{
	"abi": [
		{
			"inputs": [
				{
					"internalType": "address",
					"name": "_owner",
					"type": "address"
				},
				{
					"internalType": "address",
					"name": "_creator",
					"type": "address"
				},
				{
					"internalType": "uint256[2]",
					"name": "_creatorLimits",
					"type": "uint256[2]"
				},
				{
					"internalType": "bytes32",
					"name": "_oracleKey",
					"type": "bytes32"
				},
				{
					"internalType": "uint256",
					"name": "_strikePrice",
					"type": "uint256"
				},
				{
					"internalType": "bool",
					"name": "_refundsEnabled",
					"type": "bool"
				},
				{
					"internalType": "uint256[3]",
					"name": "_times",
					"type": "uint256[3]"
				},
				{
					"internalType": "uint256[2]",
					"name": "_bids",
					"type": "uint256[2]"
				},
				{
					"internalType": "uint256[3]",
					"name": "_fees",
					"type": "uint256[3]"
				}
			],
			"payable": false,
			"stateMutability": "nonpayable",
			"type": "constructor"
		},
		{
			"anonymous": false,
			"inputs": [
				{
					"indexed": false,
					"internalType": "enum IBinaryOptionMarket.Side",
					"name": "side",
					"type": "uint8"
				},
				{
					"indexed": true,
					"internalType": "address",
					"name": "account",
					"type": "address"
				},
				{
					"indexed": false,
					"internalType": "uint256",
					"name": "value",
					"type": "uint256"
				}
			],
			"name": "Bid",
			"type": "event"
		},
		{
			"anonymous": false,
			"inputs": [
				{
					"indexed": false,
					"internalType": "enum IBinaryOptionMarket.Side",
					"name": "result",
					"type": "uint8"
				},
				{
					"indexed": false,
					"internalType": "uint256",
					"name": "oraclePrice",
					"type": "uint256"
				},
				{
					"indexed": false,
					"internalType": "uint256",
					"name": "oracleTimestamp",
					"type": "uint256"
				},
				{
					"indexed": false,
					"internalType": "uint256",
					"name": "deposited",
					"type": "uint256"
				},
				{
					"indexed": false,
					"internalType": "uint256",
					"name": "poolFees",
					"type": "uint256"
				},
				{
					"indexed": false,
					"internalType": "uint256",
					"name": "creatorFees",
					"type": "uint256"
				}
			],
			"name": "MarketResolved",
			"type": "event"
		},
		{
			"anonymous": false,
			"inputs": [
				{
					"indexed": true,
					"internalType": "address",
					"name": "account",
					"type": "address"
				},
				{
					"indexed": false,
					"internalType": "uint256",
					"name": "longOptions",
					"type": "uint256"
				},
				{
					"indexed": false,
					"internalType": "uint256",
					"name": "shortOptions",
					"type": "uint256"
				}
			],
			"name": "OptionsClaimed",
			"type": "event"
		},
		{
			"anonymous": false,
			"inputs": [
				{
					"indexed": true,
					"internalType": "address",
					"name": "account",
					"type": "address"
				},
				{
					"indexed": false,
					"internalType": "uint256",
					"name": "value",
					"type": "uint256"
				}
			],
			"name": "OptionsExercised",
			"type": "event"
		},
		{
			"anonymous": false,
			"inputs": [
				{
					"indexed": false,
					"internalType": "address",
					"name": "oldOwner",
					"type": "address"
				},
				{
					"indexed": false,
					"internalType": "address",
					"name": "newOwner",
					"type": "address"
				}
			],
			"name": "OwnerChanged",
			"type": "event"
		},
		{
			"anonymous": false,
			"inputs": [
				{
					"indexed": false,
					"internalType": "address",
					"name": "newOwner",
					"type": "address"
				}
			],
			"name": "OwnerNominated",
			"type": "event"
		},
		{
			"anonymous": false,
			"inputs": [
				{
					"indexed": false,
					"internalType": "uint256",
					"name": "longPrice",
					"type": "uint256"
				},
				{
					"indexed": false,
					"internalType": "uint256",
					"name": "shortPrice",
					"type": "uint256"
				}
			],
			"name": "PricesUpdated",
			"type": "event"
		},
		{
			"anonymous": false,
			"inputs": [
				{
					"indexed": false,
					"internalType": "enum IBinaryOptionMarket.Side",
					"name": "side",
					"type": "uint8"
				},
				{
					"indexed": true,
					"internalType": "address",
					"name": "account",
					"type": "address"
				},
				{
					"indexed": false,
					"internalType": "uint256",
					"name": "value",
					"type": "uint256"
				},
				{
					"indexed": false,
					"internalType": "uint256",
					"name": "fee",
					"type": "uint256"
				}
			],
			"name": "Refund",
			"type": "event"
		},
		{
			"constant": true,
			"inputs": [],
			"name": "MAX_ADDRESSES_FROM_RESOLVER",
			"outputs": [
				{
					"internalType": "uint256",
					"name": "",
					"type": "uint256"
				}
			],
			"payable": false,
			"stateMutability": "view",
			"type": "function"
		},
		{
			"constant": false,
			"inputs": [],
			"name": "acceptOwnership",
			"outputs": [],
			"payable": false,
			"stateMutability": "nonpayable",
			"type": "function"
		},
		{
			"constant": true,
			"inputs": [
				{
					"internalType": "address",
					"name": "account",
					"type": "address"
				}
			],
			"name": "balancesOf",
			"outputs": [
				{
					"internalType": "uint256",
					"name": "long",
					"type": "uint256"
				},
				{
					"internalType": "uint256",
					"name": "short",
					"type": "uint256"
				}
			],
			"payable": false,
			"stateMutability": "view",
			"type": "function"
		},
		{
			"constant": false,
			"inputs": [
				{
					"internalType": "enum IBinaryOptionMarket.Side",
					"name": "side",
					"type": "uint8"
				},
				{
					"internalType": "uint256",
					"name": "value",
					"type": "uint256"
				}
			],
			"name": "bid",
			"outputs": [],
			"payable": false,
			"stateMutability": "nonpayable",
			"type": "function"
		},
		{
			"constant": true,
			"inputs": [
				{
					"internalType": "enum IBinaryOptionMarket.Side",
					"name": "bidSide",
					"type": "uint8"
				},
				{
					"internalType": "enum IBinaryOptionMarket.Side",
					"name": "priceSide",
					"type": "uint8"
				},
				{
					"internalType": "uint256",
					"name": "price",
					"type": "uint256"
				},
				{
					"internalType": "bool",
					"name": "refund",
					"type": "bool"
				}
			],
			"name": "bidOrRefundForPrice",
			"outputs": [
				{
					"internalType": "uint256",
					"name": "",
					"type": "uint256"
				}
			],
			"payable": false,
			"stateMutability": "view",
			"type": "function"
		},
		{
			"constant": true,
			"inputs": [
				{
					"internalType": "address",
					"name": "account",
					"type": "address"
				}
			],
			"name": "bidsOf",
			"outputs": [
				{
					"internalType": "uint256",
					"name": "long",
					"type": "uint256"
				},
				{
					"internalType": "uint256",
					"name": "short",
					"type": "uint256"
				}
			],
			"payable": false,
			"stateMutability": "view",
			"type": "function"
		},
		{
			"constant": true,
			"inputs": [],
			"name": "canResolve",
			"outputs": [
				{
					"internalType": "bool",
					"name": "",
					"type": "bool"
				}
			],
			"payable": false,
			"stateMutability": "view",
			"type": "function"
		},
		{
			"constant": false,
			"inputs": [
				{
					"internalType": "address payable",
					"name": "beneficiary",
					"type": "address"
				}
			],
			"name": "cancel",
			"outputs": [],
			"payable": false,
			"stateMutability": "nonpayable",
			"type": "function"
		},
		{
			"constant": false,
			"inputs": [],
			"name": "claimOptions",
			"outputs": [
				{
					"internalType": "uint256",
					"name": "longClaimed",
					"type": "uint256"
				},
				{
					"internalType": "uint256",
					"name": "shortClaimed",
					"type": "uint256"
				}
			],
			"payable": false,
			"stateMutability": "nonpayable",
			"type": "function"
		},
		{
			"constant": true,
			"inputs": [
				{
					"internalType": "address",
					"name": "account",
					"type": "address"
				}
			],
			"name": "claimableBalancesOf",
			"outputs": [
				{
					"internalType": "uint256",
					"name": "long",
					"type": "uint256"
				},
				{
					"internalType": "uint256",
					"name": "short",
					"type": "uint256"
				}
			],
			"payable": false,
			"stateMutability": "view",
			"type": "function"
		},
		{
			"constant": true,
			"inputs": [],
			"name": "creator",
			"outputs": [
				{
					"internalType": "address",
					"name": "",
					"type": "address"
				}
			],
			"payable": false,
			"stateMutability": "view",
			"type": "function"
		},
		{
			"constant": true,
			"inputs": [],
			"name": "creatorLimits",
			"outputs": [
				{
					"internalType": "uint256",
					"name": "capitalRequirement",
					"type": "uint256"
				},
				{
					"internalType": "uint256",
					"name": "skewLimit",
					"type": "uint256"
				}
			],
			"payable": false,
			"stateMutability": "view",
			"type": "function"
		},
		{
			"constant": true,
			"inputs": [],
			"name": "deposited",
			"outputs": [
				{
					"internalType": "uint256",
					"name": "",
					"type": "uint256"
				}
			],
			"payable": false,
			"stateMutability": "view",
			"type": "function"
		},
		{
			"constant": true,
			"inputs": [],
			"name": "exercisableDeposits",
			"outputs": [
				{
					"internalType": "uint256",
					"name": "",
					"type": "uint256"
				}
			],
			"payable": false,
			"stateMutability": "view",
			"type": "function"
		},
		{
			"constant": false,
			"inputs": [],
			"name": "exerciseOptions",
			"outputs": [
				{
					"internalType": "uint256",
					"name": "",
					"type": "uint256"
				}
			],
			"payable": false,
			"stateMutability": "nonpayable",
			"type": "function"
		},
		{
			"constant": false,
			"inputs": [
				{
					"internalType": "address payable",
					"name": "beneficiary",
					"type": "address"
				}
			],
			"name": "expire",
			"outputs": [],
			"payable": false,
			"stateMutability": "nonpayable",
			"type": "function"
		},
		{
			"constant": true,
			"inputs": [],
			"name": "fees",
			"outputs": [
				{
					"internalType": "uint256",
					"name": "poolFee",
					"type": "uint256"
				},
				{
					"internalType": "uint256",
					"name": "creatorFee",
					"type": "uint256"
				},
				{
					"internalType": "uint256",
					"name": "refundFee",
					"type": "uint256"
				}
			],
			"payable": false,
			"stateMutability": "view",
			"type": "function"
		},
		{
			"constant": true,
			"inputs": [],
			"name": "getResolverAddressesRequired",
			"outputs": [
				{
					"internalType": "bytes32[24]",
					"name": "addressesRequired",
					"type": "bytes32[24]"
				}
			],
			"payable": false,
			"stateMutability": "view",
			"type": "function"
		},
		{
			"constant": true,
			"inputs": [
				{
					"internalType": "contract AddressResolver",
					"name": "_resolver",
					"type": "address"
				}
			],
			"name": "isResolverCached",
			"outputs": [
				{
					"internalType": "bool",
					"name": "",
					"type": "bool"
				}
			],
			"payable": false,
			"stateMutability": "view",
			"type": "function"
		},
		{
			"constant": false,
			"inputs": [
				{
					"internalType": "address",
					"name": "_owner",
					"type": "address"
				}
			],
			"name": "nominateNewOwner",
			"outputs": [],
			"payable": false,
			"stateMutability": "nonpayable",
			"type": "function"
		},
		{
			"constant": true,
			"inputs": [],
			"name": "nominatedOwner",
			"outputs": [
				{
					"internalType": "address",
					"name": "",
					"type": "address"
				}
			],
			"payable": false,
			"stateMutability": "view",
			"type": "function"
		},
		{
			"constant": true,
			"inputs": [],
			"name": "options",
			"outputs": [
				{
					"internalType": "contract BinaryOption",
					"name": "long",
					"type": "address"
				},
				{
					"internalType": "contract BinaryOption",
					"name": "short",
					"type": "address"
				}
			],
			"payable": false,
			"stateMutability": "view",
			"type": "function"
		},
		{
			"constant": true,
			"inputs": [],
			"name": "oracleDetails",
			"outputs": [
				{
					"internalType": "bytes32",
					"name": "key",
					"type": "bytes32"
				},
				{
					"internalType": "uint256",
					"name": "strikePrice",
					"type": "uint256"
				},
				{
					"internalType": "uint256",
					"name": "finalPrice",
					"type": "uint256"
				}
			],
			"payable": false,
			"stateMutability": "view",
			"type": "function"
		},
		{
			"constant": true,
			"inputs": [],
			"name": "oraclePriceAndTimestamp",
			"outputs": [
				{
					"internalType": "uint256",
					"name": "price",
					"type": "uint256"
				},
				{
					"internalType": "uint256",
					"name": "updatedAt",
					"type": "uint256"
				}
			],
			"payable": false,
			"stateMutability": "view",
			"type": "function"
		},
		{
			"constant": true,
			"inputs": [],
			"name": "owner",
			"outputs": [
				{
					"internalType": "address",
					"name": "",
					"type": "address"
				}
			],
			"payable": false,
			"stateMutability": "view",
			"type": "function"
		},
		{
			"constant": true,
			"inputs": [],
			"name": "phase",
			"outputs": [
				{
					"internalType": "enum IBinaryOptionMarket.Phase",
					"name": "",
					"type": "uint8"
				}
			],
			"payable": false,
			"stateMutability": "view",
			"type": "function"
		},
		{
			"constant": true,
			"inputs": [],
			"name": "prices",
			"outputs": [
				{
					"internalType": "uint256",
					"name": "long",
					"type": "uint256"
				},
				{
					"internalType": "uint256",
					"name": "short",
					"type": "uint256"
				}
			],
			"payable": false,
			"stateMutability": "view",
			"type": "function"
		},
		{
			"constant": true,
			"inputs": [
				{
					"internalType": "enum IBinaryOptionMarket.Side",
					"name": "side",
					"type": "uint8"
				},
				{
					"internalType": "uint256",
					"name": "value",
					"type": "uint256"
				},
				{
					"internalType": "bool",
					"name": "refund",
					"type": "bool"
				}
			],
			"name": "pricesAfterBidOrRefund",
			"outputs": [
				{
					"internalType": "uint256",
					"name": "long",
					"type": "uint256"
				},
				{
					"internalType": "uint256",
					"name": "short",
					"type": "uint256"
				}
			],
			"payable": false,
			"stateMutability": "view",
			"type": "function"
		},
		{
			"constant": false,
			"inputs": [
				{
					"internalType": "enum IBinaryOptionMarket.Side",
					"name": "side",
					"type": "uint8"
				},
				{
					"internalType": "uint256",
					"name": "value",
					"type": "uint256"
				}
			],
			"name": "refund",
			"outputs": [
				{
					"internalType": "uint256",
					"name": "refundMinusFee",
					"type": "uint256"
				}
			],
			"payable": false,
			"stateMutability": "nonpayable",
			"type": "function"
		},
		{
			"constant": true,
			"inputs": [],
			"name": "refundsEnabled",
			"outputs": [
				{
					"internalType": "bool",
					"name": "",
					"type": "bool"
				}
			],
			"payable": false,
			"stateMutability": "view",
			"type": "function"
		},
		{
			"constant": true,
			"inputs": [],
			"name": "requireActiveAndUnpaused",
			"outputs": [],
			"payable": false,
			"stateMutability": "view",
			"type": "function"
		},
		{
			"constant": false,
			"inputs": [],
			"name": "resolve",
			"outputs": [],
			"payable": false,
			"stateMutability": "nonpayable",
			"type": "function"
		},
		{
			"constant": true,
			"inputs": [],
			"name": "resolved",
			"outputs": [
				{
					"internalType": "bool",
					"name": "",
					"type": "bool"
				}
			],
			"payable": false,
			"stateMutability": "view",
			"type": "function"
		},
		{
			"constant": true,
			"inputs": [],
			"name": "resolver",
			"outputs": [
				{
					"internalType": "contract AddressResolver",
					"name": "",
					"type": "address"
				}
			],
			"payable": false,
			"stateMutability": "view",
			"type": "function"
		},
		{
			"constant": true,
			"inputs": [
				{
					"internalType": "uint256",
					"name": "",
					"type": "uint256"
				}
			],
			"name": "resolverAddressesRequired",
			"outputs": [
				{
					"internalType": "bytes32",
					"name": "",
					"type": "bytes32"
				}
			],
			"payable": false,
			"stateMutability": "view",
			"type": "function"
		},
		{
			"constant": true,
			"inputs": [],
			"name": "result",
			"outputs": [
				{
					"internalType": "enum IBinaryOptionMarket.Side",
					"name": "",
					"type": "uint8"
				}
			],
			"payable": false,
			"stateMutability": "view",
			"type": "function"
		},
		{
			"constant": true,
			"inputs": [],
			"name": "senderPriceAndExercisableDeposits",
			"outputs": [
				{
					"internalType": "uint256",
					"name": "price",
					"type": "uint256"
				},
				{
					"internalType": "uint256",
					"name": "exercisable",
					"type": "uint256"
				}
			],
			"payable": false,
			"stateMutability": "view",
			"type": "function"
		},
		{
			"constant": false,
			"inputs": [
				{
					"internalType": "contract AddressResolver",
					"name": "_resolver",
					"type": "address"
				}
			],
			"name": "setResolverAndSyncCache",
			"outputs": [],
			"payable": false,
			"stateMutability": "nonpayable",
			"type": "function"
		},
		{
			"constant": true,
			"inputs": [],
			"name": "times",
			"outputs": [
				{
					"internalType": "uint256",
					"name": "biddingEnd",
					"type": "uint256"
				},
				{
					"internalType": "uint256",
					"name": "maturity",
					"type": "uint256"
				},
				{
					"internalType": "uint256",
					"name": "expiry",
					"type": "uint256"
				}
			],
			"payable": false,
			"stateMutability": "view",
			"type": "function"
		},
		{
			"constant": true,
			"inputs": [],
			"name": "totalBids",
			"outputs": [
				{
					"internalType": "uint256",
					"name": "long",
					"type": "uint256"
				},
				{
					"internalType": "uint256",
					"name": "short",
					"type": "uint256"
				}
			],
			"payable": false,
			"stateMutability": "view",
			"type": "function"
		},
		{
			"constant": true,
			"inputs": [],
			"name": "totalClaimableSupplies",
			"outputs": [
				{
					"internalType": "uint256",
					"name": "long",
					"type": "uint256"
				},
				{
					"internalType": "uint256",
					"name": "short",
					"type": "uint256"
				}
			],
			"payable": false,
			"stateMutability": "view",
			"type": "function"
		},
		{
			"constant": true,
			"inputs": [],
			"name": "totalSupplies",
			"outputs": [
				{
					"internalType": "uint256",
					"name": "long",
					"type": "uint256"
				},
				{
					"internalType": "uint256",
					"name": "short",
					"type": "uint256"
				}
			],
			"payable": false,
			"stateMutability": "view",
			"type": "function"
		}
	],
	"evm": {
		"bytecode": {
			"linkReferences": {
				"BinaryOptionMarket.sol": {
					"SafeDecimalMath": [
						{
							"length": 20,
							"start": 1587
						},
						{
							"length": 20,
							"start": 11730
						},
						{
							"length": 20,
							"start": 14185
						}
					]
				}
			},
			"object": "60806040526040516080810160409081526b53797374656d53746174757360a01b82526c45786368616e6765526174657360981b60208301526814de5b9d1a1cd554d160ba1b9082015266119959541bdbdb60ca1b60608201526200006990601790600462000dd6565b5034801562000082576000806200007f62000e20565b50505b50604051620070ec380380620070ec83398181016040526101e0811015620000b457600080620000b162000e20565b50505b810190808051929190602001805192602082019290916060018051929190602001805192919060200180519250602081019150608081019060c00188601760186103006040519081016040529190610300830182845b816200011562000e8d565b815260200190600101908083116200010a57508e93505050506001600160a01b038116620001945760405162461bcd60e51b815260206004820152601960248201527f4f776e657220616464726573732063616e6e6f742062652030000000000000006044820152606401604051809103906200019162000e20565b50505b806000600181620001a462000e8d565b816001600160a01b0302191690836001600160a01b0316021790620001c862000eef565b5050507fb532073b38c83145e3e5135377a08bf9aab55bc0fd7c1179cd4fb995d2a5159c6000826040516001600160a01b039283168152911660208201526040908101905180910390a150600080806200022162000e8d565b906101000a90046001600160a01b03166001600160a01b031614156200028c5760405162461bcd60e51b815260206004820152601160248201527013dddb995c881b5d5cdd081899481cd95d607a1b6044820152606401604051809103906200028962000e20565b50505b60005b60188110156200031c576000828260188110620002a857fe5b6020020151146200030d576004828260188110620002c257fe5b60200201519080600181620002d662000e8d565b018082620002e362000eef565b50506000928352916000198301915060209020919291016200030462000eef565b50505062000313565b6200031c565b6001016200028f565b508160026001816200032d62000e8d565b816001600160a01b0302191690836001600160a01b03160217906200035162000eef565b505050505087601560006101000a816200036a62000e8d565b816001600160a01b0302191690836001600160a01b03160217906200038e62000eef565b505050604051604081810190528088518152602001886001602002015190526012815181620003bc62000eef565b5050602082015181600101620003d162000eef565b505090505060405160608101604090815287825260208201879052600090820152600c8151816200040162000eef565b50506020820151816001016200041662000eef565b50506040820151816002016200042b62000eef565b5050905050604051606081016040528084518152602001846001602002015181526020016040850151905260098151816200046562000eef565b50506020820151816001016200047a62000eef565b50506040820151816002016200048f62000eef565b5050905050836015806101000a81620004a762000e8d565b8160ff02191690831515021790620004be62000eef565b5060009150819050835160208501519092509050620004e782826001600160e01b036200084e16565b896001600160a01b0316600080516020620070cc833981519152600084604051808360018111156200051557fe5b60ff1681526020018281526020019250505060405180910390a2896001600160a01b0316600080516020620070cc833981519152600183604051808360018111156200055d57fe5b60ff1681526020018281526020019250505060405180910390a260006200059382846200097e60201b62002c9c1790919060201c565b905080806014620005a362000eef565b5060009150819050855160208701519150915060405160608101604090815283825260208201839052808201908801519052600f815181620005e462000eef565b5050602082015181600101620005f962000eef565b50506040820151816002016200060e62000eef565b5050905050620006f76200063182846200097e60201b62002c9c1790919060201c565b73__$6d8b7236f42143013f28834c379abcde5d$__63907af6c06040518163ffffffff1660e01b815260040160206040518083038186806200067262000f3e565b1580156200068a576000806200068762000e20565b50505b505a6200069662000f8b565b5050505050158015620006b8573d6000803e3d6000620006b562000e20565b50505b505050506040513d6020811015620006da57600080620006d762000e20565b50505b8101908080519392505050620009ec602090811b62003b4617901c565b8060166200070462000eef565b5050506200071a85858562000a5460201b60201c565b8c856040516200072a9062001048565b6001600160a01b0390921682526020820152604090810190518091039060006200075362001056565b50508015801562000773573d6000803e3d60006200077062000e20565b50505b5060056001816200078362000e8d565b816001600160a01b0302191690836001600160a01b0316021790620007a762000eef565b5050508c84604051620007ba9062001048565b6001600160a01b039092168252602082015260409081019051809103906000620007e362001056565b50508015801562000803573d6000803e3d60006200080062000e20565b50505b5060066001816200081362000e8d565b816001600160a01b0302191690836001600160a01b03160217906200083762000eef565b505050505050505050505050505050505062001111565b60006200086a82846200097e60201b62002c9c1790919060201c565b90508060126200087962000e8d565b1115620008d75760405162461bcd60e51b815260206004820152601460248201527f496e73756666696369656e74206361706974616c000000000000000000000000604482015260640160405180910390620008d462000e20565b50505b60006013620008e562000e8d565b905062000901828562000aef60201b620040291790919060201c565b81111580156200092a575062000926828462000aef60201b620040291790919060201c565b8111155b620009785760405162461bcd60e51b815260206004820152600f60248201526e109a591cc81d1bdbc81cdad95dd959608a1b6044820152606401604051809103906200097562000e20565b50505b50505050565b600082820183811015620009e35760405162461bcd60e51b815260206004820152601b60248201527f536166654d6174683a206164646974696f6e206f766572666c6f770000000000604482015260640160405180910390620009e062000e20565b50505b90505b92915050565b60008282111562000a4e5760405162461bcd60e51b815260206004820152601e60248201527f536166654d6174683a207375627472616374696f6e206f766572666c6f77000060448201526064016040518091039062000a4b62000e20565b50505b50900390565b60008062000a6d8585856001600160e01b0362000b2a16565b915091506040516040808201905282815260208101829052600781518162000a9462000eef565b505060208201518160010162000aa962000eef565b50509050507f6546f60f34df611fa42503098acc39d5ab88bc73febe64b3cc14e5a92e3a66a7828260405191825260208201526040908101905180910390a15050505050565b6000620009e38262000b1685670de0b6b3a764000062000bf1602090811b6200407917901c565b62000c5760201b620040d81790919060201c565b600080841580159062000b3c57508315155b62000b985760405162461bcd60e51b815260206004820152601460248201527f42696473206d757374206265206e6f6e7a65726f00000000000000000000000060448201526064016040518091039062000b9562000e20565b50505b600062000bae846001600160e01b0362000ccd16565b905062000bca818762000d1b60201b62003e2c1790919060201c565b62000be4828762000d1b60201b62003e2c1790919060201c565b9250925050935093915050565b60008262000c0257506000620009e6565b8282028284828162000c1057fe5b0414620009e35760405162461bcd60e51b8152600401808060200182810382526021815260200180620070ab6021913960400191505060405180910390620009e062000e20565b600080821162000cb85760405162461bcd60e51b815260206004820152601a60248201527f536166654d6174683a206469766973696f6e206279207a65726f00000000000060448201526064016040518091039062000cb562000e20565b50505b600082848162000cc457fe5b04949350505050565b60006014601562000cdd62000e8d565b906101000a900460ff1662000d175762000d11601662000cfc62000e8d565b8362000d3b60201b62002c801790919060201c565b620009e6565b5090565b6000620009e38383670de0b6b3a76400006001600160e01b0362000d5b16565b6000620009e38383670de0b6b3a76400006001600160e01b0362000d9f16565b60008062000d808462000b1685600a028862000bf160201b620040791790919060201c565b90506005600a825b061062000d9357600a015b600a9004949350505050565b600080600a830462000dc0858762000bf160201b620040791790919060201c565b8162000dc857fe5b0490506005600a8262000d88565b826018810192821562000e12579160200282015b8281111562000e125782518262000e0062000eef565b50509160200191906001019062000dea565b5062000d17929150620010e4565b632a2a7adb598160e01b8152600481016020815285602082015260005b8681101562000e5a57808601518282016040015260200162000e3d565b506020828760640184336000905af158600e01573d6000803e3d6000fd5b3d6001141558600a015760016000f35b505050565b6303daa959598160e01b8152836004820152602081602483336000905af158600e01573d6000803e3d6000fd5b3d6001141558600a015760016000f35b8051935060005b604081101562000eea5760008282015260200162000ed1565b505050565b6322bd64c0598160e01b8152836004820152846024820152600081604483336000905af158600e01573d6000803e3d6000fd5b3d6001141558600a015760016000f35b60008152602062000ed1565b638435035b598160e01b8152836004820152602081602483336000905af158600e01573d6000803e3d6000fd5b3d6001141558600a015760016000f35b8051600082529350602062000ed1565b63ffe73914598160e01b8152836004820152846024820152606060448201528660648201526084810160005b8881101562000fd157808801518282015260200162000fb7565b50876101040182016060838a6101040185336000905af158600e01573d6000803e3d6000fd5b3d6001141558600a015760016000f35b825160408401513d6000863e8c8c82606088013350600060045af15059855b818110156200103c576000815260200162001026565b50919c50505050505050565b6119be80620056ed83390190565b6314aa2ff7598160e01b8152600481016020815286602082015260005b878110156200109057808701518282016040015260200162001073565b506020828860640184336000905af158600e01573d6000803e3d6000fd5b3d6001141558600a015760016000f35b8151965059825b81811015620010dd57600084820152602001620010c5565b5050505050565b6200110e91905b8082111562000d1757600080826200110262000eef565b505050600101620010eb565b90565b6145cc80620011216000396000f3fe60806040523480156100195760008061001661414a565b50505b50600436106102675760003560e01c80638b0341361161014f578063c588f526116100cc578063d3419bf311610090578063d3419bf314610623578063dbea36381461062b578063e3235c911461065a578063e4cfbdbd14610662578063eef49ee3146106a3578063fd087ee5146106ab57610267565b8063c588f526146105b6578063c6c9d828146105be578063c7a5bdc8146105e4578063c8db233e146105ec578063d068cdc51461061b57610267565b8063ab49848c11610113578063ab49848c1461051e578063ac3791e31461055f578063b1c9fe6e14610567578063b634bfbc1461057f578063be5af9fe146105ae57610267565b80638b034136146104d25780638da5cb5b146104da57806398508ecd146104e25780639af1d35a1461050e5780639e3b34bf1461051657610267565b80633dae89eb116101e857806353a47bb7116101ac57806353a47bb714610430578063631e1444146104385780636392a51f14610467578063653721471461049657806379ba5097146104c257806385149258146104ca57610267565b80633dae89eb146103a65780633f6fa655146103ae578063408e82af146103ca5780634c33fe94146103f9578063532f11791461042857610267565b806327745bae1161022f57806327745bae146103185780632810e1d61461032057806329e77b5d146103285780633be99e6f1461036f5780633d7a783b1461039e57610267565b806302d05d3f1461027557806304f3bcec146102995780631069143a146102a15780631627540c146102cd5780632115e303146102fe575b60008061027261414a565b50505b61027d6106e2565b6040516001600160a01b03909116815260200160405180910390f35b61027d610701565b6102a961070d565b6040516001600160a01b039283168152911660208201526040908101905180910390f35b6102fc600480360360208110156102ec576000806102e961414a565b50505b50356001600160a01b031661074f565b005b6103066107c9565b60405190815260200160405180910390f35b6102fc6107e3565b6102fc61086a565b610357600480360360208110156103475760008061034461414a565b50505b50356001600160a01b0316610d7f565b60405191825260208201526040908101905180910390f35b6102fc6004803603602081101561038e5760008061038b61414a565b50505b50356001600160a01b0316610d94565b610357610f5e565b6103576110d8565b6103b66110eb565b604051901515815260200160405180910390f35b610357600480360360208110156103e9576000806103e661414a565b50505b50356001600160a01b0316611104565b6102fc600480360360208110156104185760008061041561414a565b50505b50356001600160a01b0316611110565b6103b6611217565b61027d611222565b6103b6600480360360208110156104575760008061045461414a565b50505b50356001600160a01b031661122e565b610357600480360360208110156104865760008061048361414a565b50505b50356001600160a01b031661140a565b61049e611416565b604051808260018111156104ae57fe5b60ff16815260200191505060405180910390f35b6102fc611420565b6103066115a3565b610357611a0b565b61027d611a16565b6104ea611a21565b60405180848152602001838152602001828152602001935050505060405180910390f35b6104ea611a4b565b6104ea611a56565b610526611a61565b604051808261030080838360005b8381101561054c578082015183820152602001610534565b5050505090500191505060405180910390f35b6103b6611ac3565b61056f611b0e565b604051808260038111156104ae57fe5b6103066004803603604081101561059e5760008061059b61414a565b50505b5060ff8135169060200135611b52565b610357611f7c565b610357611f99565b610306600480360360208110156105dd576000806105da61414a565b50505b50356120e8565b610357612113565b6102fc6004803603602081101561060b5760008061060861414a565b50505b50356001600160a01b031661211e565b610357612193565b61035761229c565b6102fc6004803603604081101561064a5760008061064761414a565b50505b5060ff81351690602001356122a7565b610306612569565b610306600480360360808110156106815760008061067e61414a565b50505b5060ff813581169160208101359091169060408101359060600135151561256e565b6103066127e7565b610357600480360360608110156106ca576000806106c761414a565b50505b5060ff813516906020810135906040013515156127f1565b600060156106ee6141b5565b906101000a90046001600160a01b031681565b600060026106ee6141b5565b600560008161071a6141b5565b906101000a90046001600160a01b0316908060010160009061073a6141b5565b906101000a90046001600160a01b0316905082565b6107576128a9565b80600180806107646141b5565b816001600160a01b0302191690836001600160a01b0316021790610786614210565b5050507f906a1c6bd7e3091ea86693dd029a831c19049ce77f1dce2ce0bab1cacbabce22816040516001600160a01b03909116815260200160405180910390a150565b60006107dd60146107d86141b5565b612921565b90505b90565b6107eb61294f565b6001600160a01b031663086dabd16040518163ffffffff1660e01b8152600401600060405180830381868061081e61425e565b1580156108335760008061083061414a565b50505b505a61083d6142aa565b505050505015801561085c573d6000803e3d600061085961414a565b50505b50505050610868612994565b565b6108726128a9565b61087a612a79565b6108c45760405162461bcd60e51b815260206004820152600e60248201526d4e6f7420796574206d617475726560901b6044820152606401604051809103906108c161414a565b50505b6108cc61294f565b6001600160a01b031663086dabd16040518163ffffffff1660e01b815260040160006040518083038186806108ff61425e565b1580156109145760008061091161414a565b50505b505a61091e6142aa565b505050505015801561093d573d6000803e3d600061093a61414a565b50505b50505050610949612994565b601460156109556141b5565b906101000a900460ff16156109b95760405162461bcd60e51b815260206004820152601760248201527f4d61726b657420616c7265616479207265736f6c7665640000000000000000006044820152606401604051809103906109b661414a565b50505b6000806109c4612a94565b915091506109d181612b60565b610a1b5760405162461bcd60e51b815260206004820152600e60248201526d5072696365206973207374616c6560901b604482015260640160405180910390610a1861414a565b50505b8180600e610a27614210565b5050506001601560146101000a81610a3d6141b5565b8160ff02191690831515021790610a52614210565b5050506000610a5f612c41565b905060006014610a6d6141b5565b90506000610a8b600f610a7e6141b5565b839063ffffffff612c8016565b90506000610aa96010610a9c6141b5565b849063ffffffff612c8016565b9050610ac3610abe828463ffffffff612c9c16565b612d04565b50836001600160a01b031663a9059cbb610adb612db8565b6001600160a01b031663eb1edd616040518163ffffffff1660e01b81526004016020604051808303818680610b0e61425e565b158015610b2357600080610b2061414a565b50505b505a610b2d6142aa565b5050505050158015610b4c573d6000803e3d6000610b4961414a565b50505b505050506040513d6020811015610b6b57600080610b6861414a565b50505b810190808051925086915060409050516001600160e01b031960e085901b1681526001600160a01b039092166004830152602482015260440160206040518083038160008780610bb961425e565b158015610bce57600080610bcb61414a565b50505b505a610bd8614363565b505050505050158015610bf8573d6000803e3d6000610bf561414a565b50505b505050506040513d6020811015610c1757600080610c1461414a565b50505b8101908080515050506001600160a01b038516905063a9059cbb60006015610c3d6141b5565b906101000a90046001600160a01b0316836040516001600160e01b031960e085901b1681526001600160a01b039092166004830152602482015260440160206040518083038160008780610c8f61425e565b158015610ca457600080610ca161414a565b50505b505a610cae614363565b505050505050158015610cce573d6000803e3d6000610ccb61414a565b50505b505050506040513d6020811015610ced57600080610cea61414a565b50505b810190808051507f5528b7e06f48a519cf814c4e5293ee2737c3f5c28d93e30cca112ac649fdd2359250610d239150612df39050565b87876014610d2f6141b5565b868660405180876001811115610d4157fe5b60ff168152602001868152602001858152602001848152602001838152602001828152602001965050505050505060405180910390a1505050505050565b600080610d8b83612e4e565b91509150915091565b610d9c6128a9565b806002600181610daa6141b5565b816001600160a01b0302191690836001600160a01b0316021790610dcc614210565b5060009150505b600480610dde6141b5565b9050811015610f5a57600060048281610df56141b5565b8110610dfd57fe5b90600052602060002001610e0f6141b5565b905060006002610e1d6141b5565b906101000a90046001600160a01b03166001600160a01b031663dacb2d01826040516001600160e01b031960e084901b1681526004810191909152604060248201819052601760448301527f5265736f6c766572206d697373696e6720746172676574000000000000000000606483015260849091019060209051808303818680610ea661425e565b158015610ebb57600080610eb861414a565b50505b505a610ec56142aa565b5050505050158015610ee4573d6000803e3d6000610ee161414a565b50505b505050506040513d6020811015610f0357600080610f0061414a565b50505b8101908080516000858152600360205290935060409250905020600181610f286141b5565b816001600160a01b0302191690836001600160a01b0316021790610f4a614210565b505060019092019150610dd39050565b5050565b600080806005610f6c6141b5565b906101000a90046001600160a01b03166001600160a01b031663d6ff02e26040518163ffffffff1660e01b81526004016020604051808303818680610faf61425e565b158015610fc457600080610fc161414a565b50505b505a610fce6142aa565b5050505050158015610fed573d6000803e3d6000610fea61414a565b50505b505050506040513d602081101561100c5760008061100961414a565b50505b810190808051925060009150600690506110246141b5565b906101000a90046001600160a01b03166001600160a01b031663d6ff02e26040518163ffffffff1660e01b8152600401602060405180830381868061106761425e565b15801561107c5760008061107961414a565b50505b505a6110866142aa565b50505050501580156110a5573d6000803e3d60006110a261414a565b50505b505050506040513d60208110156110c4576000806110c161414a565b50505b8101908080519395509293505050505b9091565b6000806110e3612ff4565b915091509091565b601460156110f76141b5565b906101000a900460ff1681565b600080610d8b836133d9565b6111186128a9565b61112061350e565b1561116d5760405162461bcd60e51b815260206004820152601060248201526f42696464696e6720696e61637469766560801b60448201526064016040518091039061116a61414a565b50505b600080611178613523565b915091506000806111a4601560009061118f6141b5565b906101000a90046001600160a01b0316612e4e565b91509150600082851480156111b857508184145b9050806112065760405162461bcd60e51b815260206004820152600f60248201526e4e6f742063616e63656c6c61626c6560881b60448201526064016040518091039061120361414a565b50505b61120f8661362c565b505050505050565b6015806110f76141b5565b600060016106ee6141b5565b60006001600160a01b0382168160026112456141b5565b906101000a90046001600160a01b03166001600160a01b03161461126b57506000611405565b60005b6004806112796141b5565b90508110156113ff576000600482816112906141b5565b811061129857fe5b906000526020600020016112aa6141b5565b60008181526003602052909150604090206000906112c66141b5565b6001600160a01b036101009290920a900416600060026112e46141b5565b906101000a90046001600160a01b03166001600160a01b03166321f8a721836040516001600160e01b031960e084901b1681526004810191909152602401602060405180830381868061133561425e565b15801561134a5760008061134761414a565b50505b505a6113546142aa565b5050505050158015611373573d6000803e3d600061137061414a565b50505b505050506040513d60208110156113925760008061138f61414a565b50505b8101908080516001600160a01b0316939093141592508291506113e69050575060008181526003602052604081206000906113cb6141b5565b906101000a90046001600160a01b03166001600160a01b0316145b156113f657600092505050611405565b5060010161126e565b50600190505b919050565b600080610d8b83613984565b60006107dd612df3565b6000600161142c6141b5565b906101000a90046001600160a01b03166001600160a01b03165a61144e61441c565b6001600160a01b03161461149c5760405162461bcd60e51b815260040180806020018281038252603581526020018061450b603591396040019150506040518091039061149961414a565b50505b7fb532073b38c83145e3e5135377a08bf9aab55bc0fd7c1179cd4fb995d2a5159c6000806114c86141b5565b906101000a90046001600160a01b031660016000906114e56141b5565b906101000a90046001600160a01b03166040516001600160a01b039283168152911660208201526040908101905180910390a1600060016115246141b5565b906101000a90046001600160a01b03166000806101000a816115446141b5565b816001600160a01b0302191690836001600160a01b0316021790611566614210565b5050506000600160006101000a8161157c6141b5565b816001600160a01b0302191690836001600160a01b031602179061159e614210565b505050565b6000601460156115b16141b5565b906101000a900460ff166116ae576115c7613ab9565b6001600160a01b0316637859f4105a63996d79a5598160e01b8152602081600483336000905af158600e01573d6000803e3d6000fd5b3d6001141558600a015760016000f35b8051925060005b604081101561162b57600082820152602001611614565b5050506040516001600160e01b031960e084901b1681526001600160a01b0390911660048201526024016000604051808303816000878061166a61425e565b15801561167f5760008061167c61414a565b50505b505a611689614363565b5050505050501580156116a9573d6000803e3d60006116a661414a565b50505b505050505b6000806116c25a6116bd61441c565b6133d9565b915091508160001415806116d557508015155b156116e5576116e2612ff4565b50505b6000806116f95a6116f461441c565b613984565b9150915081600014158061170c57508015155b61175b5760405162461bcd60e51b81526020600482015260136024820152724e6f7468696e6720746f20657865726369736560681b60448201526064016040518091039061175861414a565b50505b8115611814576000600561176d6141b5565b906101000a90046001600160a01b03166001600160a01b0316631b15982a5a61179461441c565b6040516001600160e01b031960e084901b1681526001600160a01b039091166004820152602401600060405180830381600087806117d061425e565b1580156117e5576000806117e261414a565b50505b505a6117ef614363565b50505050505015801561180f573d6000803e3d600061180c61414a565b50505b505050505b80156118cd57600060066118266141b5565b906101000a90046001600160a01b03166001600160a01b0316631b15982a5a61184d61441c565b6040516001600160e01b031960e084901b1681526001600160a01b0390911660048201526024016000604051808303816000878061188961425e565b15801561189e5760008061189b61414a565b50505b505a6118a8614363565b5050505050501580156118c8573d6000803e3d60006118c561414a565b50505b505050505b60006118e16118da612df3565b8484613ada565b90505a6118ec61441c565b6001600160a01b03167fd82b6f69d7477fb41cd83d936de94990cee2fa1a309feeee90101fc0513b6a438260405190815260200160405180910390a28015611a025761193781612d04565b50611940612c41565b6001600160a01b031663a9059cbb5a61195761441c565b836040516001600160e01b031960e085901b1681526001600160a01b03909216600483015260248201526044016020604051808303816000878061199961425e565b1580156119ae576000806119ab61414a565b50505b505a6119b8614363565b5050505050501580156119d8573d6000803e3d60006119d561414a565b50505b505050506040513d60208110156119f7576000806119f461414a565b50505b810190808051505050505b94505050505090565b6000806110e3613523565b6000806106ee6141b5565b600c80611a2c6141b5565b9080600101611a396141b5565b9080600201611a466141b5565b905083565b600f80611a2c6141b5565b600980611a2c6141b5565b611a69614462565b60005b600480611a776141b5565b9050811015611abf5760048181611a8c6141b5565b8110611a9457fe5b90600052602060002001611aa66141b5565b828260188110611ab257fe5b6020020152600101611a6c565b5090565b600080611ace612a94565b9150506015601490611ade6141b5565b906101000a900460ff16158015611af85750611af8612a79565b8015611b085750611b0881612b60565b91505090565b6000611b1861350e565b611b24575060006107e0565b611b2c612a79565b611b38575060016107e0565b611b40613afd565b611b4c575060026107e0565b50600390565b6000611b5c61350e565b15611ba95760405162461bcd60e51b815260206004820152601060248201526f42696464696e6720696e61637469766560801b604482015260640160405180910390611ba661414a565b50505b601580611bb46141b5565b906101000a900460ff16611c0a5760405162461bcd60e51b815260206004820152601060248201526f1499599d5b991cc8191a5cd8589b195960821b604482015260640160405180910390611c0761414a565b50505b81611c1757506000611f76565b60006015611c236141b5565b906101000a90046001600160a01b03166001600160a01b03165a611c4561441c565b6001600160a01b03161415611c9f57600080611c685a611c6361441c565b612e4e565b90925090506001856001811115611c7b57fe5b1415611c8357905b611c9c611c96838663ffffffff613b4616565b82613bab565b50505b611d62610a7e6011611caf6141b5565b73__$6d8b7236f42143013f28834c379abcde5d$__63907af6c06040518163ffffffff1660e01b81526004016020604051808303818680611cee61425e565b158015611d0357600080611d0061414a565b50505b505a611d0d61447f565b5050505050158015611d2c573d6000803e3d6000611d2961414a565b50505b505050506040513d6020811015611d4b57600080611d4861414a565b50505b8101908080519392505063ffffffff613b46169050565b9050611d6d83613ca6565b6001600160a01b031663410085df5a611d8461441c565b846040516001600160e01b031960e085901b1681526001600160a01b039092166004830152602482015260440160006040518083038160008780611dc661425e565b158015611ddb57600080611dd861414a565b50505b505a611de5614363565b505050505050158015611e05573d6000803e3d6000611e0261414a565b50505b505050505a611e1261441c565b6001600160a01b03167f9bd0a8ca6625e01a9cee5e86eec7813a8234b41f1ca0c9f15a008d1e1d00ee5f8483611e4e868263ffffffff613b4616565b60405180846001811115611e5e57fe5b60ff168152602001838152602001828152602001935050505060405180910390a26000611e8a82612d04565b9050611e94612c41565b6001600160a01b031663a9059cbb5a611eab61441c565b846040516001600160e01b031960e085901b1681526001600160a01b039092166004830152602482015260440160206040518083038160008780611eed61425e565b158015611f0257600080611eff61414a565b50505b505a611f0c614363565b505050505050158015611f2c573d6000803e3d6000611f2961414a565b50505b505050506040513d6020811015611f4b57600080611f4861414a565b50505b8101908080515060009250829150611f639050613523565b91509150611f72828285613d01565b5050505b92915050565b601280611f876141b5565b9080600101611f946141b5565b905082565b60008060146015611fa86141b5565b906101000a900460ff161580611fe657505a611fc261441c565b6001600160a01b0316611fdb611fd6612df3565b613ca6565b6001600160a01b0316145b15611ffb57611ff860146107d86141b5565b90505b600060056120076141b5565b906101000a90046001600160a01b03166001600160a01b03165a61202961441c565b6001600160a01b031614156120495760076120426141b5565b91506110d4565b600060066120556141b5565b906101000a90046001600160a01b03166001600160a01b03165a61207761441c565b6001600160a01b031614156120905760086120426141b5565b60405162461bcd60e51b815260206004820152601760248201527f53656e646572206973206e6f7420616e206f7074696f6e0000000000000000006044820152606401604051809103906120e261414a565b50509091565b600481816120f46141b5565b81106120fc57fe5b9060005260206000200190506121106141b5565b81565b6000806110e3612a94565b6121266128a9565b61212e613afd565b6121875760405162461bcd60e51b815260206004820152601b60248201527f556e65787069726564206f7074696f6e732072656d61696e696e67000000000060448201526064016040518091039061218461414a565b50505b6121908161362c565b50565b6000808060056121a16141b5565b906101000a90046001600160a01b03166001600160a01b03166318160ddd6040518163ffffffff1660e01b815260040160206040518083038186806121e461425e565b1580156121f9576000806121f661414a565b50505b505a6122036142aa565b5050505050158015612222573d6000803e3d600061221f61414a565b50505b505050506040513d60208110156122415760008061223e61414a565b50505b810190808051925060009150600690506122596141b5565b906101000a90046001600160a01b03166001600160a01b03166318160ddd6040518163ffffffff1660e01b8152600401602060405180830381868061106761425e565b600780611f876141b5565b6122af61350e565b156122fc5760405162461bcd60e51b815260206004820152601060248201526f42696464696e6720696e61637469766560801b6044820152606401604051809103906122f961414a565b50505b8061230657610f5a565b61230f82613ca6565b6001600160a01b03166359d667a55a61232661441c565b836040516001600160e01b031960e085901b1681526001600160a01b03909216600483015260248201526044016000604051808303816000878061236861425e565b15801561237d5760008061237a61414a565b50505b505a612387614363565b5050505050501580156123a7573d6000803e3d60006123a461414a565b50505b505050505a6123b461441c565b6001600160a01b03167f70bd4a33bf447720d717d08f3affb5aecfe4d2ebb8e3dd94539f5313e24476438383604051808360018111156123f057fe5b60ff1681526020018281526020019250505060405180910390a2600061241582613d8d565b905061241f612c41565b6001600160a01b03166323b872dd5a61243661441c565b5a63996d79a5598160e01b8152602081600483336000905af158600e01573d6000803e3d6000fd5b3d6001141558600a015760016000f35b8051925060005b604081101561248c57600082820152602001612475565b505050856040516001600160e01b031960e086901b1681526001600160a01b0393841660048201529190921660248201526044810191909152606401602060405180830381600087806124dd61425e565b1580156124f2576000806124ef61414a565b50505b505a6124fc614363565b50505050505015801561251c573d6000803e3d600061251961414a565b50505b505050506040513d602081101561253b5760008061253861414a565b50505b81019080805150600092508291506125539050613523565b91509150612562828285613d01565b5050505050565b601881565b60008061258b601661257e6141b5565b859063ffffffff612c8016565b9050600061259886613ca6565b6001600160a01b0316638b0341366040518163ffffffff1660e01b815260040160206040518083038186806125cb61425e565b1580156125e0576000806125dd61414a565b50505b505a6125ea6142aa565b5050505050158015612609573d6000803e3d600061260661414a565b50505b505050506040513d60208110156126285760008061262561414a565b50505b8101908080519350600092506014915061264290506141b5565b9050600073__$6d8b7236f42143013f28834c379abcde5d$__63907af6c06040518163ffffffff1660e01b8152600401602060405180830381868061268561425e565b15801561269a5760008061269761414a565b50505b505a6126a461447f565b50505050501580156126c3573d6000803e3d60006126c061414a565b50505b505050506040513d60208110156126e2576000806126df61414a565b50505b81019080805193506000925061270c9150601190506126ff6141b5565b839063ffffffff613b4616565b905088600181111561271a57fe5b8a600181111561272657fe5b141561279057600061273e848763ffffffff612c8016565b9050871561275a5793612757868363ffffffff612c8016565b95505b61278361276d848863ffffffff613b4616565b6127778388613e05565b9063ffffffff613e2c16565b96505050505050506127df565b60006127a2858763ffffffff613e2c16565b905087156127ac57925b60006127b88286613e05565b9050886127c557806127d5565b6127d5818463ffffffff613e2c16565b9750505050505050505b949350505050565b60146121106141b5565b6000806000806127ff613523565b915091506144c28561281357612c9c612817565b613b465b9050600088600181111561282757fe5b14156128425761283b83888363ffffffff16565b9250612853565b61285082888363ffffffff16565b91505b8515612879576128766128696011611caf6141b5565b889063ffffffff612c8016565b96505b61289a8383612895601461288b6141b5565b8b8663ffffffff16565b613e41565b94509450505050935093915050565b6000806128b46141b5565b906101000a90046001600160a01b03166001600160a01b03165a6128d661441c565b6001600160a01b0316146108685760405162461bcd60e51b815260040180806020018281038252602f815260200180614540602f913960400191505060405180910390610f5a61414a565b60006014601561292f6141b5565b906101000a900460ff16611abf5761294a6016610a7e6141b5565b611f76565b60006107dd6b53797374656d53746174757360a01b6040516040808201905260148152734d697373696e672053797374656d53746174757360601b6020820152613edc565b61299c613ab9565b6001600160a01b0316635c975abb6040518163ffffffff1660e01b815260040160206040518083038186806129cf61425e565b1580156129e4576000806129e161414a565b50505b505a6129ee6142aa565b5050505050158015612a0d573d6000803e3d6000612a0a61414a565b50505b505050506040513d6020811015612a2c57600080612a2961414a565b50505b8101908080511592506108689150505760405162461bcd60e51b815260040180806020018281038252603c815260200180614590603c913960400191505060405180910390610f5a61414a565b60005a612a846144c4565b600a612a8e6141b5565b10905090565b600080612a9f613fa5565b6001600160a01b0316634308a94f600c612ab76141b5565b6040516001600160e01b031960e084901b168152600481019190915260240160408051808303818680612ae861425e565b158015612afd57600080612afa61414a565b50505b505a612b076142aa565b5050505050158015612b26573d6000803e3d6000612b2361414a565b50505b505050506040513d6040811015612b4557600080612b4261414a565b50505b81019080805192919060200180519395509293505050509091565b600080612b6b613ab9565b6001600160a01b0316634a41d89d6040518163ffffffff1660e01b81526004016060604051808303818680612b9e61425e565b158015612bb357600080612bb061414a565b50505b505a612bbd6142aa565b5050505050158015612bdc573d6000803e3d6000612bd961414a565b50505b505050506040513d6060811015612bfb57600080612bf861414a565b50505b8101908080519291906020018051929190602001805150939450869350612c389250849150600a9050612c2c6141b5565b9063ffffffff613b4616565b11159392505050565b60006107dd6814de5b9d1a1cd554d160ba1b604051604080820190526011815270135a5cdcda5b99c814de5b9d1a1cd554d1607a1b6020820152613edc565b6000612c958383670de0b6b3a7640000613fec565b9392505050565b600082820183811015612c955760405162461bcd60e51b815260206004820152601b60248201527f536166654d6174683a206164646974696f6e206f766572666c6f770000000000604482015260640160405180910390612cfb61414a565b50509392505050565b6000612d14826014612c2c6141b5565b905080806014612d22614210565b505050612d2d613ab9565b6001600160a01b0316636b3a0984836040516001600160e01b031960e084901b168152600481019190915260240160006040518083038160008780612d7061425e565b158015612d8557600080612d8261414a565b50505b505a612d8f614363565b505050505050158015612daf573d6000803e3d6000612dac61414a565b50505b50505050919050565b60006107dd66119959541bdbdb60ca1b60405160408082019052600f81526e135a5cdcda5b99c8119959541bdbdb608a1b6020820152613edc565b60008060146015612e026141b5565b906101000a900460ff1615612e2257600e612e1b6141b5565b9050612e2e565b612e2a612a94565b5090505b80600d612e396141b5565b1115612e46576001611b08565b600091505090565b600080806005612e5c6141b5565b906101000a90046001600160a01b03166001600160a01b0316638dc30b70846040516001600160e01b031960e084901b1681526001600160a01b0390911660048201526024016020604051808303818680612eb561425e565b158015612eca57600080612ec761414a565b50505b505a612ed46142aa565b5050505050158015612ef3573d6000803e3d6000612ef061414a565b50505b505050506040513d6020811015612f1257600080612f0f61414a565b50505b81019080805192506000915060069050612f2a6141b5565b906101000a90046001600160a01b03166001600160a01b0316638dc30b70856040516001600160e01b031960e084901b1681526001600160a01b0390911660048201526024016020604051808303818680612f8361425e565b158015612f9857600080612f9561414a565b50505b505a612fa26142aa565b5050505050158015612fc1573d6000803e3d6000612fbe61414a565b50505b505050506040513d6020811015612fe057600080612fdd61414a565b50505b810190808051939550929350505050915091565b600080612fff61294f565b6001600160a01b031663086dabd16040518163ffffffff1660e01b8152600401600060405180830381868061303261425e565b1580156130475760008061304461414a565b50505b505a6130516142aa565b5050505050158015613070573d6000803e3d600061306d61414a565b50505b5050505061307c612994565b61308461350e565b6130d25760405162461bcd60e51b815260206004820152601260248201527142696464696e6720696e636f6d706c65746560701b6044820152606401604051809103906130cf61414a565b50505b60006130e160146107d86141b5565b905060006130ed612df3565b90506000601460156130fd6141b5565b906101000a900460ff1690506000808215806131245750600084600181111561312257fe5b145b1561321a57600060056131356141b5565b906101000a90046001600160a01b03166001600160a01b0316632bc43fd95a61315c61441c565b60076131666141b5565b886040516001600160e01b031960e086901b1681526001600160a01b03909316600484015260248301919091526044820152606401602060405180830381600087806131b061425e565b1580156131c5576000806131c261414a565b50505b505a6131cf614363565b5050505050501580156131ef573d6000803e3d60006131ec61414a565b50505b505050506040513d602081101561320e5760008061320b61414a565b50505b81019080805194505050505b8215806132325750600184600181111561323057fe5b145b1561332857600060066132436141b5565b906101000a90046001600160a01b03166001600160a01b0316632bc43fd95a61326a61441c565b60086132746141b5565b886040516001600160e01b031960e086901b1681526001600160a01b03909316600484015260248301919091526044820152606401602060405180830381600087806132be61425e565b1580156132d3576000806132d061414a565b50505b505a6132dd614363565b5050505050501580156132fd573d6000803e3d60006132fa61414a565b50505b505050506040513d602081101561331c5760008061331961414a565b50505b81019080805193505050505b8115158061333557508015155b6133815760405162461bcd60e51b815260206004820152601060248201526f4e6f7468696e6720746f20636c61696d60801b60448201526064016040518091039061337e61414a565b50505b5a61338a61441c565b6001600160a01b03167fbbe753caa9bb201dbd1740ee3d61c6d2adf5fa89f30233d732281ae5db6a03d4838360405191825260208201526040908101905180910390a290955093505050509091565b6000808060056133e76141b5565b906101000a90046001600160a01b03166001600160a01b0316639c3ee244846040516001600160e01b031960e084901b1681526001600160a01b039091166004820152602401602060405180830381868061344061425e565b1580156134555760008061345261414a565b50505b505a61345f6142aa565b505050505015801561347e573d6000803e3d600061347b61414a565b50505b505050506040513d602081101561349d5760008061349a61414a565b50505b810190808051925060009150600690506134b56141b5565b906101000a90046001600160a01b03166001600160a01b0316639c3ee244856040516001600160e01b031960e084901b1681526001600160a01b0390911660048201526024016020604051808303818680612f8361425e565b60005a6135196144c4565b6009612a8e6141b5565b6000808060056135316141b5565b906101000a90046001600160a01b03166001600160a01b0316638b0341366040518163ffffffff1660e01b8152600401602060405180830381868061357461425e565b1580156135895760008061358661414a565b50505b505a6135936142aa565b50505050501580156135b2573d6000803e3d60006135af61414a565b50505b505050506040513d60208110156135d1576000806135ce61414a565b50505b810190808051925060009150600690506135e96141b5565b906101000a90046001600160a01b03166001600160a01b0316638b0341366040518163ffffffff1660e01b8152600401602060405180830381868061106761425e565b600060146136386141b5565b9050801561364b5761364981612d04565b505b6000613655612c41565b90506000816001600160a01b03166370a082315a63996d79a5598160e01b8152602081600483336000905af158600e01573d6000803e3d6000fd5b3d6001141558600a015760016000f35b8051925060005b60408110156136be576000828201526020016136a7565b5050506040516001600160e01b031960e084901b1681526001600160a01b03909116600482015260240160206040518083038186806136fb61425e565b1580156137105760008061370d61414a565b50505b505a61371a6142aa565b5050505050158015613739573d6000803e3d600061373661414a565b50505b505050506040513d60208110156137585760008061375561414a565b50505b81019080805193505082159150613826905057816001600160a01b031663a9059cbb85836040516001600160e01b031960e085901b1681526001600160a01b0390921660048301526024820152604401602060405180830381600087806137bd61425e565b1580156137d2576000806137cf61414a565b50505b505a6137dc614363565b5050505050501580156137fc573d6000803e3d60006137f961414a565b50505b505050506040513d602081101561381b5760008061381861414a565b50505b810190808051505050505b600060056138326141b5565b906101000a90046001600160a01b03166001600160a01b031663c8db233e856040516001600160e01b031960e084901b1681526001600160a01b0390911660048201526024016000604051808303816000878061388d61425e565b1580156138a25760008061389f61414a565b50505b505a6138ac614363565b5050505050501580156138cc573d6000803e3d60006138c961414a565b50505b5050505060056001016000906138e06141b5565b906101000a90046001600160a01b03166001600160a01b031663c8db233e856040516001600160e01b031960e084901b1681526001600160a01b0390911660048201526024016000604051808303816000878061393b61425e565b1580156139505760008061394d61414a565b50505b505a61395a614363565b50505050505015801561397a573d6000803e3d600061397761414a565b50505b5050505050505050565b6000808060056139926141b5565b906101000a90046001600160a01b03166001600160a01b03166370a08231846040516001600160e01b031960e084901b1681526001600160a01b03909116600482015260240160206040518083038186806139eb61425e565b158015613a00576000806139fd61414a565b50505b505a613a0a6142aa565b5050505050158015613a29573d6000803e3d6000613a2661414a565b50505b505050506040513d6020811015613a4857600080613a4561414a565b50505b81019080805192506000915060069050613a606141b5565b906101000a90046001600160a01b03166001600160a01b03166370a08231856040516001600160e01b031960e084901b1681526001600160a01b0390911660048201526024016020604051808303818680612f8361425e565b60008080613ac56141b5565b906101000a90046001600160a01b0316905090565b600080846001811115613ae957fe5b1415613af6575081612c95565b5092915050565b600060146015613b0b6141b5565b906101000a900460ff1680156107dd57505a613b256144c4565b600b613b2f6141b5565b10806107dd57506014613b406141b5565b15905090565b600082821115613ba55760405162461bcd60e51b815260206004820152601e60248201527f536166654d6174683a207375627472616374696f6e206f766572666c6f770000604482015260640160405180910390613ba261414a565b50505b50900390565b6000613bbd838363ffffffff612c9c16565b9050806012613bca6141b5565b1115613c1c5760405162461bcd60e51b8152602060048201526014602482015273125b9cdd59999a58da595b9d0818d85c1a5d185b60621b604482015260640160405180910390613c1961414a565b50505b60006013613c286141b5565b9050613c3a848363ffffffff61402916565b8111158015613c585750613c54838363ffffffff61402916565b8111155b613ca05760405162461bcd60e51b815260206004820152600f60248201526e109a591cc81d1bdbc81cdad95dd959608a1b60448201526064016040518091039061120f61414a565b50505050565b600080826001811115613cb557fe5b1415613cde5760006005613cc76141b5565b906101000a90046001600160a01b03169050611405565b60006006613cea6141b5565b906101000a90046001600160a01b03169050919050565b600080613d0f858585613e41565b9150915060405160408082019052828152602081018290526007815181613d34614210565b5050602082015181600101613d47614210565b50509050507f6546f60f34df611fa42503098acc39d5ab88bc73febe64b3cc14e5a92e3a66a7828260405191825260208201526040908101905180910390a15050505050565b6000613da9826014613d9d6141b5565b9063ffffffff612c9c16565b905080806014613db7614210565b505050613dc2613ab9565b6001600160a01b031663aeab5849836040516001600160e01b031960e084901b168152600481019190915260240160006040518083038160008780612d7061425e565b6000818310613e2357613e1e838363ffffffff613b4616565b612c95565b50600092915050565b6000612c958383670de0b6b3a7640000614053565b6000808415801590613e5257508315155b613ea25760405162461bcd60e51b815260206004820152601460248201527342696473206d757374206265206e6f6e7a65726f60601b604482015260640160405180910390613e9f61414a565b50505b6000613ead84612921565b9050613ebf868263ffffffff613e2c16565b613ecf868363ffffffff613e2c16565b9250925050935093915050565b600082815260036020528060408120600090613ef66141b5565b6001600160a01b036101009290920a90041690508281613f9d5760405162461bcd60e51b81526004018080602001828103825283818151815260200191508051906020019080838360005b83811015613f59578082015183820152602001613f41565b50505050905090810190601f168015613f865780820380516001836020036101000a031916815260200191505b509250505060405180910390613f9a61414a565b50505b509392505050565b60006107dd6c45786368616e6765526174657360981b6040516040808201905260158152744d697373696e672045786368616e6765526174657360581b6020820152613edc565b600080600a8304614003868663ffffffff61407916565b8161400a57fe5b0490506005600a825b061061401d57600a015b600a9004949350505050565b6000612c958261404785670de0b6b3a764000063ffffffff61407916565b9063ffffffff6140d816565b60008061406d8461404787600a870263ffffffff61407916565b90506005600a82614013565b60008261408857506000611f76565b8282028284828161409557fe5b0414612c955760405162461bcd60e51b815260040180806020018281038252602181526020018061456f6021913960400191505060405180910390612cfb61414a565b60008082116141365760405162461bcd60e51b815260206004820152601a60248201527f536166654d6174683a206469766973696f6e206279207a65726f00000000000060448201526064016040518091039061413361414a565b50505b600082848161414157fe5b04949350505050565b632a2a7adb598160e01b8152600481016020815285602082015260005b86811015614182578086015182820160400152602001614167565b506020828760640184336000905af158600e01573d6000803e3d6000fd5b3d6001141558600a015760016000f35b505050565b6303daa959598160e01b8152836004820152602081602483336000905af158600e01573d6000803e3d6000fd5b3d6001141558600a015760016000f35b8051935060005b604081101561159e576000828201526020016141f9565b6322bd64c0598160e01b8152836004820152846024820152600081604483336000905af158600e01573d6000803e3d6000fd5b3d6001141558600a015760016000f35b6000815260206141f9565b638435035b598160e01b8152836004820152602081602483336000905af158600e01573d6000803e3d6000fd5b3d6001141558600a015760016000f35b805160008252935060206141f9565b638540661f598160e01b8152836004820152846024820152606060448201528660648201526084810160005b888110156142ee5780880151828201526020016142d6565b50876101040182016060838a6101040185336000905af158600e01573d6000803e3d6000fd5b3d6001141558600a015760016000f35b825160408401513d6000863e8c8c82606088013350600060045af15059855b818110156143575760008152602001614343565b50919c50505050505050565b6385979f76598160e01b8152836004820152846024820152606060448201528760648201526084810160005b898110156143a757808901518282015260200161438f565b50886101040182016060838b6101040185336000905af158600e01573d6000803e3d6000fd5b3d6001141558600a015760016000f35b825160408401513d6000863e8d8d82606088013350600060045af15059855b8181101561441057600081526020016143fc565b50919d50505050505050565b6373509064598160e01b8152602081600483336000905af158600e01573d6000803e3d6000fd5b3d6001141558600a015760016000f35b805160008252935060206141f9565b604051610300808201604052601890829080388339509192915050565b63ffe73914598160e01b815283600482015284602482015260606044820152866064820152608481016000888110156142ee5780880151828201526020016142d6565bfe5b63bdbf8c36598160e01b8152602081600483336000905af158600e01573d6000803e3d6000fd5b3d6001141558600a015760016000f35b805160008252935060206141f956fe596f75206d757374206265206e6f6d696e61746564206265666f726520796f752063616e20616363657074206f776e6572736869704f6e6c792074686520636f6e7472616374206f776e6572206d617920706572666f726d207468697320616374696f6e536166654d6174683a206d756c7469706c69636174696f6e206f766572666c6f775468697320616374696f6e2063616e6e6f7420626520706572666f726d6564207768696c652074686520636f6e74726163742069732070617573656460806040523480156200001c5760008062000019620000e3565b50505b50604051620019be380380620019be833981810160405260408110156200004d576000806200004a620000e3565b50505b8101908080519291906020018051925050505a6200006a62000150565b600060018162000079620001ac565b816001600160a01b0302191690836001600160a01b03160217906200009d620001f9565b5050506001600160a01b038216600090815260016020528190604090208190620000c6620001f9565b5050508060028190620000d8620001f9565b505050505062000248565b632a2a7adb598160e01b8152600481016020815285602082015260005b868110156200011d57808601518282016040015260200162000100565b506020828760640184336000905af158600e01573d6000803e3d6000fd5b3d6001141558600a015760016000f35b505050565b6373509064598160e01b8152602081600483336000905af158600e01573d6000803e3d6000fd5b3d6001141558600a015760016000f35b8051935060005b6040811015620001a7576000828201526020016200018e565b505050565b6303daa959598160e01b8152836004820152602081602483336000905af158600e01573d6000803e3d6000fd5b3d6001141558600a015760016000f35b805160008252935060206200018e565b6322bd64c0598160e01b8152836004820152846024820152600081604483336000905af158600e01573d6000803e3d6000fd5b3d6001141558600a015760016000f35b6000815260206200018e565b61176680620002586000396000f3fe6080604052348015610019576000806100166114e5565b50505b506004361061012a5760003560e01c806370a08231116100b65780639c3ee2441161007a5780639c3ee244146103df578063a9059cbb1461040e578063c8db233e14610443578063d6ff02e214610472578063dd62ed3e1461047a5761012a565b806370a082311461034d57806380f556051461037c5780638b034136146103a05780638dc30b70146103a857806395d89b41146103d75761012a565b806323b872dd116100fd57806323b872dd1461024b5780632bc43fd91461028a578063313ce567146102c5578063410085df146102e357806359d667a5146103185761012a565b806306fdde0314610138578063095ea7b3146101b757806318160ddd146102005780631b15982a1461021a575b6000806101356114e5565b50505b6101406104b1565b60405160208082528190810183818151815260200191508051906020019080838360005b8381101561017c578082015183820152602001610164565b50505050905090810190601f1680156101a95780820380516001836020036101000a031916815260200191505b509250505060405180910390f35b6101ec600480360360408110156101d6576000806101d36114e5565b50505b506001600160a01b0381351690602001356104dc565b604051901515815260200160405180910390f35b6102086105a7565b60405190815260200160405180910390f35b61024960048036036020811015610239576000806102366114e5565b50505b50356001600160a01b03166105b4565b005b6101ec6004803603606081101561026a576000806102676114e5565b50505b506001600160a01b03813581169160208101359091169060400135610736565b610208600480360360608110156102a9576000806102a66114e5565b50505b506001600160a01b038135169060208101359060400135610850565b6102cd610a51565b60405160ff909116815260200160405180910390f35b61024960048036036040811015610302576000806102ff6114e5565b50505b506001600160a01b038135169060200135610a56565b61024960048036036040811015610337576000806103346114e5565b50505b506001600160a01b038135169060200135610b50565b6102086004803603602081101561036c576000806103696114e5565b50505b50356001600160a01b0316610c33565b610384610c4b565b6040516001600160a01b03909116815260200160405180910390f35b610208610c69565b610208600480360360208110156103c7576000806103c46114e5565b50505b50356001600160a01b0316610c73565b610140610c8b565b610208600480360360208110156103fe576000806103fb6114e5565b50505b50356001600160a01b0316610ca9565b6101ec6004803603604081101561042d5760008061042a6114e5565b50505b506001600160a01b038135169060200135610da2565b610249600480360360208110156104625760008061045f6114e5565b50505b50356001600160a01b0316610db7565b610208610e3f565b61020860048036036040811015610499576000806104966114e5565b50505b506001600160a01b0381358116916020013516610f11565b60405160408082019052601181527029a72c102134b730b93c9027b83a34b7b760791b602082015281565b60006001600160a01b0383166104fa576000806104f76114e5565b50505b81600560005a610508611550565b6001600160a01b03166001600160a01b031681526020019081526020016000206001600160a01b038516600090815260209190915260409020819061054b6115a5565b505050826001600160a01b03165a610561611550565b6001600160a01b03167f8c5be1e5ebec7d5bd14f71427d1e84f3dd0314c0f7b2291e5b200ac8c7c3b9258460405190815260200160405180910390a35060015b92915050565b60046105b16115f3565b81565b6000806105bf6115f3565b906101000a90046001600160a01b03166001600160a01b03165a6105e1611550565b6001600160a01b03161461063a5760405162461bcd60e51b815260206004820152601360248201527213db9b1e481b585c9ad95d08185b1b1bddd959606a1b6044820152606401604051809103906106376114e5565b50505b6001600160a01b038116600090815260036020526040812061065a6115f3565b9050806106675750610733565b6001600160a01b038216600090815260036020526040812081906106896115a5565b5050506106a681600461069a6115f3565b9063ffffffff610f3716565b8060046106b16115a5565b5060009150506001600160a01b0383167fddf252ad1be2c89b69c2b068fc378daa952ba7f163c4a11628f55a4df523b3ef8360405190815260200160405180910390a3816001600160a01b03167f696de425f79f4a40bc6d2122ca50507f0efbeabbff86a84871b7196ab8ea8df78260405190815260200160405180910390a2505b50565b6001600160a01b03831660009081526005602052806040812060005a61075a611550565b6001600160a01b03166001600160a01b031681526020019081526020016000206107826115f3565b9050808311156107da5760405162461bcd60e51b8152602060048201526016602482015275496e73756666696369656e7420616c6c6f77616e636560501b6044820152606401604051809103906107d76114e5565b50505b6107ea818463ffffffff610f3716565b6001600160a01b038616600090815260056020526040902060005a61080d611550565b6001600160a01b03166001600160a01b0316815260200190815260200160002081906108376115a5565b505050610845858585610f9c565b9150505b9392505050565b6000808061085c6115f3565b906101000a90046001600160a01b03166001600160a01b03165a61087e611550565b6001600160a01b0316146108d75760405162461bcd60e51b815260206004820152601360248201527213db9b1e481b585c9ad95d08185b1b1bddd959606a1b6044820152606401604051809103906108d46114e5565b50505b6001600160a01b03841660009081526001602052604081206108f76115f3565b90506000610906828686611242565b90508061091857600092505050610849565b61092682600261069a6115f3565b8060026109316115a5565b5050506001600160a01b038616600090815260016020526040812081906109566115a5565b5050506109738160046109676115f3565b9063ffffffff6112ed16565b80600461097e6115a5565b5050506001600160a01b038616600090815260036020526109a7908290604090206109676115f3565b6001600160a01b038716600090815260036020526040902081906109c96115a5565b5050506001600160a01b03861660007fddf252ad1be2c89b69c2b068fc378daa952ba7f163c4a11628f55a4df523b3ef8360405190815260200160405180910390a3856001600160a01b03167fa59f12e354e8cd10bb74c559844c2dd69a5458e31fe56c7594c62ca57480509a8260405190815260200160405180910390a295945050505050565b601281565b600080610a616115f3565b906101000a90046001600160a01b03166001600160a01b03165a610a83611550565b6001600160a01b031614610adc5760405162461bcd60e51b815260206004820152601360248201527213db9b1e481b585c9ad95d08185b1b1bddd959606a1b604482015260640160405180910390610ad96114e5565b50505b6001600160a01b03821660009081526001602052610b0b90610b069083906040902061069a6115f3565b611355565b6001600160a01b03831660009081526001602052604090208190610b2d6115a5565b505050610b3e81600261069a6115f3565b806002610b496115a5565b5050505050565b600080610b5b6115f3565b906101000a90046001600160a01b03166001600160a01b03165a610b7d611550565b6001600160a01b031614610bd65760405162461bcd60e51b815260206004820152601360248201527213db9b1e481b585c9ad95d08185b1b1bddd959606a1b604482015260640160405180910390610bd36114e5565b50505b6001600160a01b03821660009081526001602052610c0090610b06908390604090206109676115f3565b6001600160a01b03831660009081526001602052604090208190610c226115a5565b505050610b3e8160026109676115f3565b600360205280600052604060002090506105b16115f3565b600080610c566115f3565b906101000a90046001600160a01b031681565b60026105b16115f3565b600160205280600052604060002090506105b16115f3565b6040516040808201905260048152631cd3d41560e21b602082015281565b600080808080610cb76115f3565b906101000a90046001600160a01b03166001600160a01b031663c588f5266040518163ffffffff1660e01b815260040160408051808303818680610cf961163f565b158015610d0e57600080610d0b6114e5565b50505b505a610d1861168b565b5050505050158015610d37573d6000803e3d6000610d346114e5565b50505b505050506040513d6040811015610d5657600080610d536114e5565b50505b81019080805192919060200180516001600160a01b038916600090815260016020529496509450610d98936040935091505020610d916115f3565b8383611242565b925050505b919050565b60006108495a610db0611550565b8484610f9c565b600080610dc26115f3565b906101000a90046001600160a01b03166001600160a01b03165a610de4611550565b6001600160a01b0316146107335760405162461bcd60e51b815260206004820152601360248201527213db9b1e481b585c9ad95d08185b1b1bddd959606a1b604482015260640160405180910390610e3a6114e5565b505050565b6000808080610e4c6115f3565b906101000a90046001600160a01b03166001600160a01b031663c588f5266040518163ffffffff1660e01b815260040160408051808303818680610e8e61163f565b158015610ea357600080610ea06114e5565b50505b505a610ead61168b565b5050505050158015610ecc573d6000803e3d6000610ec96114e5565b50505b505050506040513d6040811015610eeb57600080610ee86114e5565b50505b81019080805192919060200180519450610f0b93508492506113ba915050565b91505090565b600560205281600052604060002060205280600052604060002091506105b190506115f3565b600082821115610f965760405162461bcd60e51b815260206004820152601e60248201527f536166654d6174683a207375627472616374696f6e206f766572666c6f770000604482015260640160405180910390610f936114e5565b50505b50900390565b60008080610fa86115f3565b906101000a90046001600160a01b03166001600160a01b03166327745bae6040518163ffffffff1660e01b81526004016000604051808303818680610feb61163f565b15801561100057600080610ffd6114e5565b50505b505a61100a61168b565b5050505050158015611029573d6000803e3d60006110266114e5565b50505b505050506001600160a01b038316158015906110af57505a63996d79a5598160e01b8152602081600483336000905af158600e01573d6000803e3d6000fd5b3d6001141558600a015760016000f35b8051925060005b60408110156110965760008282015260200161107f565b5050506001600160a01b0316836001600160a01b031614155b6110fa5760405162461bcd60e51b815260206004820152600f60248201526e496e76616c6964206164647265737360881b6044820152606401604051809103906110f76114e5565b50505b6001600160a01b038416600090815260036020526040812061111a6115f3565b9050808311156111705760405162461bcd60e51b8152602060048201526014602482015273496e73756666696369656e742062616c616e636560601b60448201526064016040518091039061116d6114e5565b50505b611180818463ffffffff610f3716565b6001600160a01b038616600090815260036020526040902081906111a26115a5565b5050506001600160a01b038416600090815260036020526111cb908490604090206109676115f3565b6001600160a01b038516600090815260036020526040902081906111ed6115a5565b505050836001600160a01b0316856001600160a01b03167fddf252ad1be2c89b69c2b068fc378daa952ba7f163c4a11628f55a4df523b3ef8560405190815260200160405180910390a3506001949350505050565b600080611255858563ffffffff6113ea16565b90506000611262846113ba565b9050600261126e6115f3565b8614801561127b57508515155b80611284575080155b156112925791506108499050565b808211156112e45760405162461bcd60e51b8152602060048201526012602482015271737570706c79203c20636c61696d61626c6560701b6044820152606401604051809103906112e16114e5565b50505b50949350505050565b6000828201838110156108495760405162461bcd60e51b815260206004820152601b60248201527f536166654d6174683a206164646974696f6e206f766572666c6f77000000000060448201526064016040518091039061134c6114e5565b50509392505050565b6000662386f26fc100008210158061136b575081155b6113b65760405162461bcd60e51b815260206004820152600f60248201526e42616c616e6365203c2024302e303160881b6044820152606401604051809103906113b36114e5565b50505b5090565b60008060046113c76115f3565b90508083116113da576000915050610d9d565b610849838263ffffffff610f3716565b60006108498261140885670de0b6b3a764000063ffffffff61141416565b9063ffffffff61147316565b600082611423575060006105a1565b8282028284828161143057fe5b04146108495760405162461bcd60e51b8152600401808060200182810382526021815260200180611745602191396040019150506040518091039061134c6114e5565b60008082116114d15760405162461bcd60e51b815260206004820152601a60248201527f536166654d6174683a206469766973696f6e206279207a65726f0000000000006044820152606401604051809103906114ce6114e5565b50505b60008284816114dc57fe5b04949350505050565b632a2a7adb598160e01b8152600481016020815285602082015260005b8681101561151d578086015182820160400152602001611502565b506020828760640184336000905af158600e01573d6000803e3d6000fd5b3d6001141558600a015760016000f35b505050565b6373509064598160e01b8152602081600483336000905af158600e01573d6000803e3d6000fd5b3d6001141558600a015760016000f35b8051935060005b6040811015610e3a5760008282015260200161158e565b6322bd64c0598160e01b8152836004820152846024820152600081604483336000905af158600e01573d6000803e3d6000fd5b3d6001141558600a015760016000f35b60008152602061158e565b6303daa959598160e01b8152836004820152602081602483336000905af158600e01573d6000803e3d6000fd5b3d6001141558600a015760016000f35b8051600082529350602061158e565b638435035b598160e01b8152836004820152602081602483336000905af158600e01573d6000803e3d6000fd5b3d6001141558600a015760016000f35b8051600082529350602061158e565b638540661f598160e01b8152836004820152846024820152606060448201528660648201526084810160005b888110156116cf5780880151828201526020016116b7565b50876101040182016060838a6101040185336000905af158600e01573d6000803e3d6000fd5b3d6001141558600a015760016000f35b825160408401513d6000863e8c8c82606088013350600060045af15059855b818110156117385760008152602001611724565b50919c5050505050505056fe536166654d6174683a206d756c7469706c69636174696f6e206f766572666c6f77536166654d6174683a206d756c7469706c69636174696f6e206f766572666c6f7770bd4a33bf447720d717d08f3affb5aecfe4d2ebb8e3dd94539f5313e2447643",
			"opcodes": "PUSH1 0x80 PUSH1 0x40 MSTORE PUSH1 0x40 MLOAD PUSH1 0x80 DUP2 ADD PUSH1 0x40 SWAP1 DUP2 MSTORE PUSH12 0x53797374656D537461747573 PUSH1 0xA0 SHL DUP3 MSTORE PUSH13 0x45786368616E67655261746573 PUSH1 0x98 SHL PUSH1 0x20 DUP4 ADD MSTORE PUSH9 0x14DE5B9D1A1CD554D1 PUSH1 0xBA SHL SWAP1 DUP3 ADD MSTORE PUSH7 0x119959541BDBDB PUSH1 0xCA SHL PUSH1 0x60 DUP3 ADD MSTORE PUSH3 0x69 SWAP1 PUSH1 0x17 SWAP1 PUSH1 0x4 PUSH3 0xDD6 JUMP JUMPDEST POP CALLVALUE DUP1 ISZERO PUSH3 0x82 JUMPI PUSH1 0x0 DUP1 PUSH3 0x7F PUSH3 0xE20 JUMP JUMPDEST POP POP JUMPDEST POP PUSH1 0x40 MLOAD PUSH3 0x70EC CODESIZE SUB DUP1 PUSH3 0x70EC DUP4 CODECOPY DUP2 DUP2 ADD PUSH1 0x40 MSTORE PUSH2 0x1E0 DUP2 LT ISZERO PUSH3 0xB4 JUMPI PUSH1 0x0 DUP1 PUSH3 0xB1 PUSH3 0xE20 JUMP JUMPDEST POP POP JUMPDEST DUP2 ADD SWAP1 DUP1 DUP1 MLOAD SWAP3 SWAP2 SWAP1 PUSH1 0x20 ADD DUP1 MLOAD SWAP3 PUSH1 0x20 DUP3 ADD SWAP3 SWAP1 SWAP2 PUSH1 0x60 ADD DUP1 MLOAD SWAP3 SWAP2 SWAP1 PUSH1 0x20 ADD DUP1 MLOAD SWAP3 SWAP2 SWAP1 PUSH1 0x20 ADD DUP1 MLOAD SWAP3 POP PUSH1 0x20 DUP2 ADD SWAP2 POP PUSH1 0x80 DUP2 ADD SWAP1 PUSH1 0xC0 ADD DUP9 PUSH1 0x17 PUSH1 0x18 PUSH2 0x300 PUSH1 0x40 MLOAD SWAP1 DUP2 ADD PUSH1 0x40 MSTORE SWAP2 SWAP1 PUSH2 0x300 DUP4 ADD DUP3 DUP5 JUMPDEST DUP2 PUSH3 0x115 PUSH3 0xE8D JUMP JUMPDEST DUP2 MSTORE PUSH1 0x20 ADD SWAP1 PUSH1 0x1 ADD SWAP1 DUP1 DUP4 GT PUSH3 0x10A JUMPI POP DUP15 SWAP4 POP POP POP POP PUSH1 0x1 PUSH1 0x1 PUSH1 0xA0 SHL SUB DUP2 AND PUSH3 0x194 JUMPI PUSH1 0x40 MLOAD PUSH3 0x461BCD PUSH1 0xE5 SHL DUP2 MSTORE PUSH1 0x20 PUSH1 0x4 DUP3 ADD MSTORE PUSH1 0x19 PUSH1 0x24 DUP3 ADD MSTORE PUSH32 0x4F776E657220616464726573732063616E6E6F74206265203000000000000000 PUSH1 0x44 DUP3 ADD MSTORE PUSH1 0x64 ADD PUSH1 0x40 MLOAD DUP1 SWAP2 SUB SWAP1 PUSH3 0x191 PUSH3 0xE20 JUMP JUMPDEST POP POP JUMPDEST DUP1 PUSH1 0x0 PUSH1 0x1 DUP2 PUSH3 0x1A4 PUSH3 0xE8D JUMP JUMPDEST DUP2 PUSH1 0x1 PUSH1 0x1 PUSH1 0xA0 SHL SUB MUL NOT AND SWAP1 DUP4 PUSH1 0x1 PUSH1 0x1 PUSH1 0xA0 SHL SUB AND MUL OR SWAP1 PUSH3 0x1C8 PUSH3 0xEEF JUMP JUMPDEST POP POP POP PUSH32 0xB532073B38C83145E3E5135377A08BF9AAB55BC0FD7C1179CD4FB995D2A5159C PUSH1 0x0 DUP3 PUSH1 0x40 MLOAD PUSH1 0x1 PUSH1 0x1 PUSH1 0xA0 SHL SUB SWAP3 DUP4 AND DUP2 MSTORE SWAP2 AND PUSH1 0x20 DUP3 ADD MSTORE PUSH1 0x40 SWAP1 DUP2 ADD SWAP1 MLOAD DUP1 SWAP2 SUB SWAP1 LOG1 POP PUSH1 0x0 DUP1 DUP1 PUSH3 0x221 PUSH3 0xE8D JUMP JUMPDEST SWAP1 PUSH2 0x100 EXP SWAP1 DIV PUSH1 0x1 PUSH1 0x1 PUSH1 0xA0 SHL SUB AND PUSH1 0x1 PUSH1 0x1 PUSH1 0xA0 SHL SUB AND EQ ISZERO PUSH3 0x28C JUMPI PUSH1 0x40 MLOAD PUSH3 0x461BCD PUSH1 0xE5 SHL DUP2 MSTORE PUSH1 0x20 PUSH1 0x4 DUP3 ADD MSTORE PUSH1 0x11 PUSH1 0x24 DUP3 ADD MSTORE PUSH17 0x13DDDB995C881B5D5CDD081899481CD95D PUSH1 0x7A SHL PUSH1 0x44 DUP3 ADD MSTORE PUSH1 0x64 ADD PUSH1 0x40 MLOAD DUP1 SWAP2 SUB SWAP1 PUSH3 0x289 PUSH3 0xE20 JUMP JUMPDEST POP POP JUMPDEST PUSH1 0x0 JUMPDEST PUSH1 0x18 DUP2 LT ISZERO PUSH3 0x31C JUMPI PUSH1 0x0 DUP3 DUP3 PUSH1 0x18 DUP2 LT PUSH3 0x2A8 JUMPI INVALID JUMPDEST PUSH1 0x20 MUL ADD MLOAD EQ PUSH3 0x30D JUMPI PUSH1 0x4 DUP3 DUP3 PUSH1 0x18 DUP2 LT PUSH3 0x2C2 JUMPI INVALID JUMPDEST PUSH1 0x20 MUL ADD MLOAD SWAP1 DUP1 PUSH1 0x1 DUP2 PUSH3 0x2D6 PUSH3 0xE8D JUMP JUMPDEST ADD DUP1 DUP3 PUSH3 0x2E3 PUSH3 0xEEF JUMP JUMPDEST POP POP PUSH1 0x0 SWAP3 DUP4 MSTORE SWAP2 PUSH1 0x0 NOT DUP4 ADD SWAP2 POP PUSH1 0x20 SWAP1 KECCAK256 SWAP2 SWAP3 SWAP2 ADD PUSH3 0x304 PUSH3 0xEEF JUMP JUMPDEST POP POP POP PUSH3 0x313 JUMP JUMPDEST PUSH3 0x31C JUMP JUMPDEST PUSH1 0x1 ADD PUSH3 0x28F JUMP JUMPDEST POP DUP2 PUSH1 0x2 PUSH1 0x1 DUP2 PUSH3 0x32D PUSH3 0xE8D JUMP JUMPDEST DUP2 PUSH1 0x1 PUSH1 0x1 PUSH1 0xA0 SHL SUB MUL NOT AND SWAP1 DUP4 PUSH1 0x1 PUSH1 0x1 PUSH1 0xA0 SHL SUB AND MUL OR SWAP1 PUSH3 0x351 PUSH3 0xEEF JUMP JUMPDEST POP POP POP POP POP DUP8 PUSH1 0x15 PUSH1 0x0 PUSH2 0x100 EXP DUP2 PUSH3 0x36A PUSH3 0xE8D JUMP JUMPDEST DUP2 PUSH1 0x1 PUSH1 0x1 PUSH1 0xA0 SHL SUB MUL NOT AND SWAP1 DUP4 PUSH1 0x1 PUSH1 0x1 PUSH1 0xA0 SHL SUB AND MUL OR SWAP1 PUSH3 0x38E PUSH3 0xEEF JUMP JUMPDEST POP POP POP PUSH1 0x40 MLOAD PUSH1 0x40 DUP2 DUP2 ADD SWAP1 MSTORE DUP1 DUP9 MLOAD DUP2 MSTORE PUSH1 0x20 ADD DUP9 PUSH1 0x1 PUSH1 0x20 MUL ADD MLOAD SWAP1 MSTORE PUSH1 0x12 DUP2 MLOAD DUP2 PUSH3 0x3BC PUSH3 0xEEF JUMP JUMPDEST POP POP PUSH1 0x20 DUP3 ADD MLOAD DUP2 PUSH1 0x1 ADD PUSH3 0x3D1 PUSH3 0xEEF JUMP JUMPDEST POP POP SWAP1 POP POP PUSH1 0x40 MLOAD PUSH1 0x60 DUP2 ADD PUSH1 0x40 SWAP1 DUP2 MSTORE DUP8 DUP3 MSTORE PUSH1 0x20 DUP3 ADD DUP8 SWAP1 MSTORE PUSH1 0x0 SWAP1 DUP3 ADD MSTORE PUSH1 0xC DUP2 MLOAD DUP2 PUSH3 0x401 PUSH3 0xEEF JUMP JUMPDEST POP POP PUSH1 0x20 DUP3 ADD MLOAD DUP2 PUSH1 0x1 ADD PUSH3 0x416 PUSH3 0xEEF JUMP JUMPDEST POP POP PUSH1 0x40 DUP3 ADD MLOAD DUP2 PUSH1 0x2 ADD PUSH3 0x42B PUSH3 0xEEF JUMP JUMPDEST POP POP SWAP1 POP POP PUSH1 0x40 MLOAD PUSH1 0x60 DUP2 ADD PUSH1 0x40 MSTORE DUP1 DUP5 MLOAD DUP2 MSTORE PUSH1 0x20 ADD DUP5 PUSH1 0x1 PUSH1 0x20 MUL ADD MLOAD DUP2 MSTORE PUSH1 0x20 ADD PUSH1 0x40 DUP6 ADD MLOAD SWAP1 MSTORE PUSH1 0x9 DUP2 MLOAD DUP2 PUSH3 0x465 PUSH3 0xEEF JUMP JUMPDEST POP POP PUSH1 0x20 DUP3 ADD MLOAD DUP2 PUSH1 0x1 ADD PUSH3 0x47A PUSH3 0xEEF JUMP JUMPDEST POP POP PUSH1 0x40 DUP3 ADD MLOAD DUP2 PUSH1 0x2 ADD PUSH3 0x48F PUSH3 0xEEF JUMP JUMPDEST POP POP SWAP1 POP POP DUP4 PUSH1 0x15 DUP1 PUSH2 0x100 EXP DUP2 PUSH3 0x4A7 PUSH3 0xE8D JUMP JUMPDEST DUP2 PUSH1 0xFF MUL NOT AND SWAP1 DUP4 ISZERO ISZERO MUL OR SWAP1 PUSH3 0x4BE PUSH3 0xEEF JUMP JUMPDEST POP PUSH1 0x0 SWAP2 POP DUP2 SWAP1 POP DUP4 MLOAD PUSH1 0x20 DUP6 ADD MLOAD SWAP1 SWAP3 POP SWAP1 POP PUSH3 0x4E7 DUP3 DUP3 PUSH1 0x1 PUSH1 0x1 PUSH1 0xE0 SHL SUB PUSH3 0x84E AND JUMP JUMPDEST DUP10 PUSH1 0x1 PUSH1 0x1 PUSH1 0xA0 SHL SUB AND PUSH1 0x0 DUP1 MLOAD PUSH1 0x20 PUSH3 0x70CC DUP4 CODECOPY DUP2 MLOAD SWAP2 MSTORE PUSH1 0x0 DUP5 PUSH1 0x40 MLOAD DUP1 DUP4 PUSH1 0x1 DUP2 GT ISZERO PUSH3 0x515 JUMPI INVALID JUMPDEST PUSH1 0xFF AND DUP2 MSTORE PUSH1 0x20 ADD DUP3 DUP2 MSTORE PUSH1 0x20 ADD SWAP3 POP POP POP PUSH1 0x40 MLOAD DUP1 SWAP2 SUB SWAP1 LOG2 DUP10 PUSH1 0x1 PUSH1 0x1 PUSH1 0xA0 SHL SUB AND PUSH1 0x0 DUP1 MLOAD PUSH1 0x20 PUSH3 0x70CC DUP4 CODECOPY DUP2 MLOAD SWAP2 MSTORE PUSH1 0x1 DUP4 PUSH1 0x40 MLOAD DUP1 DUP4 PUSH1 0x1 DUP2 GT ISZERO PUSH3 0x55D JUMPI INVALID JUMPDEST PUSH1 0xFF AND DUP2 MSTORE PUSH1 0x20 ADD DUP3 DUP2 MSTORE PUSH1 0x20 ADD SWAP3 POP POP POP PUSH1 0x40 MLOAD DUP1 SWAP2 SUB SWAP1 LOG2 PUSH1 0x0 PUSH3 0x593 DUP3 DUP5 PUSH3 0x97E PUSH1 0x20 SHL PUSH3 0x2C9C OR SWAP1 SWAP2 SWAP1 PUSH1 0x20 SHR JUMP JUMPDEST SWAP1 POP DUP1 DUP1 PUSH1 0x14 PUSH3 0x5A3 PUSH3 0xEEF JUMP JUMPDEST POP PUSH1 0x0 SWAP2 POP DUP2 SWAP1 POP DUP6 MLOAD PUSH1 0x20 DUP8 ADD MLOAD SWAP2 POP SWAP2 POP PUSH1 0x40 MLOAD PUSH1 0x60 DUP2 ADD PUSH1 0x40 SWAP1 DUP2 MSTORE DUP4 DUP3 MSTORE PUSH1 0x20 DUP3 ADD DUP4 SWAP1 MSTORE DUP1 DUP3 ADD SWAP1 DUP9 ADD MLOAD SWAP1 MSTORE PUSH1 0xF DUP2 MLOAD DUP2 PUSH3 0x5E4 PUSH3 0xEEF JUMP JUMPDEST POP POP PUSH1 0x20 DUP3 ADD MLOAD DUP2 PUSH1 0x1 ADD PUSH3 0x5F9 PUSH3 0xEEF JUMP JUMPDEST POP POP PUSH1 0x40 DUP3 ADD MLOAD DUP2 PUSH1 0x2 ADD PUSH3 0x60E PUSH3 0xEEF JUMP JUMPDEST POP POP SWAP1 POP POP PUSH3 0x6F7 PUSH3 0x631 DUP3 DUP5 PUSH3 0x97E PUSH1 0x20 SHL PUSH3 0x2C9C OR SWAP1 SWAP2 SWAP1 PUSH1 0x20 SHR JUMP JUMPDEST PUSH20 0x0 PUSH4 0x907AF6C0 PUSH1 0x40 MLOAD DUP2 PUSH4 0xFFFFFFFF AND PUSH1 0xE0 SHL DUP2 MSTORE PUSH1 0x4 ADD PUSH1 0x20 PUSH1 0x40 MLOAD DUP1 DUP4 SUB DUP2 DUP7 DUP1 PUSH3 0x672 PUSH3 0xF3E JUMP JUMPDEST ISZERO DUP1 ISZERO PUSH3 0x68A JUMPI PUSH1 0x0 DUP1 PUSH3 0x687 PUSH3 0xE20 JUMP JUMPDEST POP POP JUMPDEST POP GAS PUSH3 0x696 PUSH3 0xF8B JUMP JUMPDEST POP POP POP POP POP ISZERO DUP1 ISZERO PUSH3 0x6B8 JUMPI RETURNDATASIZE PUSH1 0x0 DUP1 RETURNDATACOPY RETURNDATASIZE PUSH1 0x0 PUSH3 0x6B5 PUSH3 0xE20 JUMP JUMPDEST POP POP JUMPDEST POP POP POP POP PUSH1 0x40 MLOAD RETURNDATASIZE PUSH1 0x20 DUP2 LT ISZERO PUSH3 0x6DA JUMPI PUSH1 0x0 DUP1 PUSH3 0x6D7 PUSH3 0xE20 JUMP JUMPDEST POP POP JUMPDEST DUP2 ADD SWAP1 DUP1 DUP1 MLOAD SWAP4 SWAP3 POP POP POP PUSH3 0x9EC PUSH1 0x20 SWAP1 DUP2 SHL PUSH3 0x3B46 OR SWAP1 SHR JUMP JUMPDEST DUP1 PUSH1 0x16 PUSH3 0x704 PUSH3 0xEEF JUMP JUMPDEST POP POP POP PUSH3 0x71A DUP6 DUP6 DUP6 PUSH3 0xA54 PUSH1 0x20 SHL PUSH1 0x20 SHR JUMP JUMPDEST DUP13 DUP6 PUSH1 0x40 MLOAD PUSH3 0x72A SWAP1 PUSH3 0x1048 JUMP JUMPDEST PUSH1 0x1 PUSH1 0x1 PUSH1 0xA0 SHL SUB SWAP1 SWAP3 AND DUP3 MSTORE PUSH1 0x20 DUP3 ADD MSTORE PUSH1 0x40 SWAP1 DUP2 ADD SWAP1 MLOAD DUP1 SWAP2 SUB SWAP1 PUSH1 0x0 PUSH3 0x753 PUSH3 0x1056 JUMP JUMPDEST POP POP DUP1 ISZERO DUP1 ISZERO PUSH3 0x773 JUMPI RETURNDATASIZE PUSH1 0x0 DUP1 RETURNDATACOPY RETURNDATASIZE PUSH1 0x0 PUSH3 0x770 PUSH3 0xE20 JUMP JUMPDEST POP POP JUMPDEST POP PUSH1 0x5 PUSH1 0x1 DUP2 PUSH3 0x783 PUSH3 0xE8D JUMP JUMPDEST DUP2 PUSH1 0x1 PUSH1 0x1 PUSH1 0xA0 SHL SUB MUL NOT AND SWAP1 DUP4 PUSH1 0x1 PUSH1 0x1 PUSH1 0xA0 SHL SUB AND MUL OR SWAP1 PUSH3 0x7A7 PUSH3 0xEEF JUMP JUMPDEST POP POP POP DUP13 DUP5 PUSH1 0x40 MLOAD PUSH3 0x7BA SWAP1 PUSH3 0x1048 JUMP JUMPDEST PUSH1 0x1 PUSH1 0x1 PUSH1 0xA0 SHL SUB SWAP1 SWAP3 AND DUP3 MSTORE PUSH1 0x20 DUP3 ADD MSTORE PUSH1 0x40 SWAP1 DUP2 ADD SWAP1 MLOAD DUP1 SWAP2 SUB SWAP1 PUSH1 0x0 PUSH3 0x7E3 PUSH3 0x1056 JUMP JUMPDEST POP POP DUP1 ISZERO DUP1 ISZERO PUSH3 0x803 JUMPI RETURNDATASIZE PUSH1 0x0 DUP1 RETURNDATACOPY RETURNDATASIZE PUSH1 0x0 PUSH3 0x800 PUSH3 0xE20 JUMP JUMPDEST POP POP JUMPDEST POP PUSH1 0x6 PUSH1 0x1 DUP2 PUSH3 0x813 PUSH3 0xE8D JUMP JUMPDEST DUP2 PUSH1 0x1 PUSH1 0x1 PUSH1 0xA0 SHL SUB MUL NOT AND SWAP1 DUP4 PUSH1 0x1 PUSH1 0x1 PUSH1 0xA0 SHL SUB AND MUL OR SWAP1 PUSH3 0x837 PUSH3 0xEEF JUMP JUMPDEST POP POP POP POP POP POP POP POP POP POP POP POP POP POP POP POP POP PUSH3 0x1111 JUMP JUMPDEST PUSH1 0x0 PUSH3 0x86A DUP3 DUP5 PUSH3 0x97E PUSH1 0x20 SHL PUSH3 0x2C9C OR SWAP1 SWAP2 SWAP1 PUSH1 0x20 SHR JUMP JUMPDEST SWAP1 POP DUP1 PUSH1 0x12 PUSH3 0x879 PUSH3 0xE8D JUMP JUMPDEST GT ISZERO PUSH3 0x8D7 JUMPI PUSH1 0x40 MLOAD PUSH3 0x461BCD PUSH1 0xE5 SHL DUP2 MSTORE PUSH1 0x20 PUSH1 0x4 DUP3 ADD MSTORE PUSH1 0x14 PUSH1 0x24 DUP3 ADD MSTORE PUSH32 0x496E73756666696369656E74206361706974616C000000000000000000000000 PUSH1 0x44 DUP3 ADD MSTORE PUSH1 0x64 ADD PUSH1 0x40 MLOAD DUP1 SWAP2 SUB SWAP1 PUSH3 0x8D4 PUSH3 0xE20 JUMP JUMPDEST POP POP JUMPDEST PUSH1 0x0 PUSH1 0x13 PUSH3 0x8E5 PUSH3 0xE8D JUMP JUMPDEST SWAP1 POP PUSH3 0x901 DUP3 DUP6 PUSH3 0xAEF PUSH1 0x20 SHL PUSH3 0x4029 OR SWAP1 SWAP2 SWAP1 PUSH1 0x20 SHR JUMP JUMPDEST DUP2 GT ISZERO DUP1 ISZERO PUSH3 0x92A JUMPI POP PUSH3 0x926 DUP3 DUP5 PUSH3 0xAEF PUSH1 0x20 SHL PUSH3 0x4029 OR SWAP1 SWAP2 SWAP1 PUSH1 0x20 SHR JUMP JUMPDEST DUP2 GT ISZERO JUMPDEST PUSH3 0x978 JUMPI PUSH1 0x40 MLOAD PUSH3 0x461BCD PUSH1 0xE5 SHL DUP2 MSTORE PUSH1 0x20 PUSH1 0x4 DUP3 ADD MSTORE PUSH1 0xF PUSH1 0x24 DUP3 ADD MSTORE PUSH15 0x109A591CC81D1BDBC81CDAD95DD959 PUSH1 0x8A SHL PUSH1 0x44 DUP3 ADD MSTORE PUSH1 0x64 ADD PUSH1 0x40 MLOAD DUP1 SWAP2 SUB SWAP1 PUSH3 0x975 PUSH3 0xE20 JUMP JUMPDEST POP POP JUMPDEST POP POP POP POP JUMP JUMPDEST PUSH1 0x0 DUP3 DUP3 ADD DUP4 DUP2 LT ISZERO PUSH3 0x9E3 JUMPI PUSH1 0x40 MLOAD PUSH3 0x461BCD PUSH1 0xE5 SHL DUP2 MSTORE PUSH1 0x20 PUSH1 0x4 DUP3 ADD MSTORE PUSH1 0x1B PUSH1 0x24 DUP3 ADD MSTORE PUSH32 0x536166654D6174683A206164646974696F6E206F766572666C6F770000000000 PUSH1 0x44 DUP3 ADD MSTORE PUSH1 0x64 ADD PUSH1 0x40 MLOAD DUP1 SWAP2 SUB SWAP1 PUSH3 0x9E0 PUSH3 0xE20 JUMP JUMPDEST POP POP JUMPDEST SWAP1 POP JUMPDEST SWAP3 SWAP2 POP POP JUMP JUMPDEST PUSH1 0x0 DUP3 DUP3 GT ISZERO PUSH3 0xA4E JUMPI PUSH1 0x40 MLOAD PUSH3 0x461BCD PUSH1 0xE5 SHL DUP2 MSTORE PUSH1 0x20 PUSH1 0x4 DUP3 ADD MSTORE PUSH1 0x1E PUSH1 0x24 DUP3 ADD MSTORE PUSH32 0x536166654D6174683A207375627472616374696F6E206F766572666C6F770000 PUSH1 0x44 DUP3 ADD MSTORE PUSH1 0x64 ADD PUSH1 0x40 MLOAD DUP1 SWAP2 SUB SWAP1 PUSH3 0xA4B PUSH3 0xE20 JUMP JUMPDEST POP POP JUMPDEST POP SWAP1 SUB SWAP1 JUMP JUMPDEST PUSH1 0x0 DUP1 PUSH3 0xA6D DUP6 DUP6 DUP6 PUSH1 0x1 PUSH1 0x1 PUSH1 0xE0 SHL SUB PUSH3 0xB2A AND JUMP JUMPDEST SWAP2 POP SWAP2 POP PUSH1 0x40 MLOAD PUSH1 0x40 DUP1 DUP3 ADD SWAP1 MSTORE DUP3 DUP2 MSTORE PUSH1 0x20 DUP2 ADD DUP3 SWAP1 MSTORE PUSH1 0x7 DUP2 MLOAD DUP2 PUSH3 0xA94 PUSH3 0xEEF JUMP JUMPDEST POP POP PUSH1 0x20 DUP3 ADD MLOAD DUP2 PUSH1 0x1 ADD PUSH3 0xAA9 PUSH3 0xEEF JUMP JUMPDEST POP POP SWAP1 POP POP PUSH32 0x6546F60F34DF611FA42503098ACC39D5AB88BC73FEBE64B3CC14E5A92E3A66A7 DUP3 DUP3 PUSH1 0x40 MLOAD SWAP2 DUP3 MSTORE PUSH1 0x20 DUP3 ADD MSTORE PUSH1 0x40 SWAP1 DUP2 ADD SWAP1 MLOAD DUP1 SWAP2 SUB SWAP1 LOG1 POP POP POP POP POP JUMP JUMPDEST PUSH1 0x0 PUSH3 0x9E3 DUP3 PUSH3 0xB16 DUP6 PUSH8 0xDE0B6B3A7640000 PUSH3 0xBF1 PUSH1 0x20 SWAP1 DUP2 SHL PUSH3 0x4079 OR SWAP1 SHR JUMP JUMPDEST PUSH3 0xC57 PUSH1 0x20 SHL PUSH3 0x40D8 OR SWAP1 SWAP2 SWAP1 PUSH1 0x20 SHR JUMP JUMPDEST PUSH1 0x0 DUP1 DUP5 ISZERO DUP1 ISZERO SWAP1 PUSH3 0xB3C JUMPI POP DUP4 ISZERO ISZERO JUMPDEST PUSH3 0xB98 JUMPI PUSH1 0x40 MLOAD PUSH3 0x461BCD PUSH1 0xE5 SHL DUP2 MSTORE PUSH1 0x20 PUSH1 0x4 DUP3 ADD MSTORE PUSH1 0x14 PUSH1 0x24 DUP3 ADD MSTORE PUSH32 0x42696473206D757374206265206E6F6E7A65726F000000000000000000000000 PUSH1 0x44 DUP3 ADD MSTORE PUSH1 0x64 ADD PUSH1 0x40 MLOAD DUP1 SWAP2 SUB SWAP1 PUSH3 0xB95 PUSH3 0xE20 JUMP JUMPDEST POP POP JUMPDEST PUSH1 0x0 PUSH3 0xBAE DUP5 PUSH1 0x1 PUSH1 0x1 PUSH1 0xE0 SHL SUB PUSH3 0xCCD AND JUMP JUMPDEST SWAP1 POP PUSH3 0xBCA DUP2 DUP8 PUSH3 0xD1B PUSH1 0x20 SHL PUSH3 0x3E2C OR SWAP1 SWAP2 SWAP1 PUSH1 0x20 SHR JUMP JUMPDEST PUSH3 0xBE4 DUP3 DUP8 PUSH3 0xD1B PUSH1 0x20 SHL PUSH3 0x3E2C OR SWAP1 SWAP2 SWAP1 PUSH1 0x20 SHR JUMP JUMPDEST SWAP3 POP SWAP3 POP POP SWAP4 POP SWAP4 SWAP2 POP POP JUMP JUMPDEST PUSH1 0x0 DUP3 PUSH3 0xC02 JUMPI POP PUSH1 0x0 PUSH3 0x9E6 JUMP JUMPDEST DUP3 DUP3 MUL DUP3 DUP5 DUP3 DUP2 PUSH3 0xC10 JUMPI INVALID JUMPDEST DIV EQ PUSH3 0x9E3 JUMPI PUSH1 0x40 MLOAD PUSH3 0x461BCD PUSH1 0xE5 SHL DUP2 MSTORE PUSH1 0x4 ADD DUP1 DUP1 PUSH1 0x20 ADD DUP3 DUP2 SUB DUP3 MSTORE PUSH1 0x21 DUP2 MSTORE PUSH1 0x20 ADD DUP1 PUSH3 0x70AB PUSH1 0x21 SWAP2 CODECOPY PUSH1 0x40 ADD SWAP2 POP POP PUSH1 0x40 MLOAD DUP1 SWAP2 SUB SWAP1 PUSH3 0x9E0 PUSH3 0xE20 JUMP JUMPDEST PUSH1 0x0 DUP1 DUP3 GT PUSH3 0xCB8 JUMPI PUSH1 0x40 MLOAD PUSH3 0x461BCD PUSH1 0xE5 SHL DUP2 MSTORE PUSH1 0x20 PUSH1 0x4 DUP3 ADD MSTORE PUSH1 0x1A PUSH1 0x24 DUP3 ADD MSTORE PUSH32 0x536166654D6174683A206469766973696F6E206279207A65726F000000000000 PUSH1 0x44 DUP3 ADD MSTORE PUSH1 0x64 ADD PUSH1 0x40 MLOAD DUP1 SWAP2 SUB SWAP1 PUSH3 0xCB5 PUSH3 0xE20 JUMP JUMPDEST POP POP JUMPDEST PUSH1 0x0 DUP3 DUP5 DUP2 PUSH3 0xCC4 JUMPI INVALID JUMPDEST DIV SWAP5 SWAP4 POP POP POP POP JUMP JUMPDEST PUSH1 0x0 PUSH1 0x14 PUSH1 0x15 PUSH3 0xCDD PUSH3 0xE8D JUMP JUMPDEST SWAP1 PUSH2 0x100 EXP SWAP1 DIV PUSH1 0xFF AND PUSH3 0xD17 JUMPI PUSH3 0xD11 PUSH1 0x16 PUSH3 0xCFC PUSH3 0xE8D JUMP JUMPDEST DUP4 PUSH3 0xD3B PUSH1 0x20 SHL PUSH3 0x2C80 OR SWAP1 SWAP2 SWAP1 PUSH1 0x20 SHR JUMP JUMPDEST PUSH3 0x9E6 JUMP JUMPDEST POP SWAP1 JUMP JUMPDEST PUSH1 0x0 PUSH3 0x9E3 DUP4 DUP4 PUSH8 0xDE0B6B3A7640000 PUSH1 0x1 PUSH1 0x1 PUSH1 0xE0 SHL SUB PUSH3 0xD5B AND JUMP JUMPDEST PUSH1 0x0 PUSH3 0x9E3 DUP4 DUP4 PUSH8 0xDE0B6B3A7640000 PUSH1 0x1 PUSH1 0x1 PUSH1 0xE0 SHL SUB PUSH3 0xD9F AND JUMP JUMPDEST PUSH1 0x0 DUP1 PUSH3 0xD80 DUP5 PUSH3 0xB16 DUP6 PUSH1 0xA MUL DUP9 PUSH3 0xBF1 PUSH1 0x20 SHL PUSH3 0x4079 OR SWAP1 SWAP2 SWAP1 PUSH1 0x20 SHR JUMP JUMPDEST SWAP1 POP PUSH1 0x5 PUSH1 0xA DUP3 JUMPDEST MOD LT PUSH3 0xD93 JUMPI PUSH1 0xA ADD JUMPDEST PUSH1 0xA SWAP1 DIV SWAP5 SWAP4 POP POP POP POP JUMP JUMPDEST PUSH1 0x0 DUP1 PUSH1 0xA DUP4 DIV PUSH3 0xDC0 DUP6 DUP8 PUSH3 0xBF1 PUSH1 0x20 SHL PUSH3 0x4079 OR SWAP1 SWAP2 SWAP1 PUSH1 0x20 SHR JUMP JUMPDEST DUP2 PUSH3 0xDC8 JUMPI INVALID JUMPDEST DIV SWAP1 POP PUSH1 0x5 PUSH1 0xA DUP3 PUSH3 0xD88 JUMP JUMPDEST DUP3 PUSH1 0x18 DUP2 ADD SWAP3 DUP3 ISZERO PUSH3 0xE12 JUMPI SWAP2 PUSH1 0x20 MUL DUP3 ADD JUMPDEST DUP3 DUP2 GT ISZERO PUSH3 0xE12 JUMPI DUP3 MLOAD DUP3 PUSH3 0xE00 PUSH3 0xEEF JUMP JUMPDEST POP POP SWAP2 PUSH1 0x20 ADD SWAP2 SWAP1 PUSH1 0x1 ADD SWAP1 PUSH3 0xDEA JUMP JUMPDEST POP PUSH3 0xD17 SWAP3 SWAP2 POP PUSH3 0x10E4 JUMP JUMPDEST PUSH4 0x2A2A7ADB MSIZE DUP2 PUSH1 0xE0 SHL DUP2 MSTORE PUSH1 0x4 DUP2 ADD PUSH1 0x20 DUP2 MSTORE DUP6 PUSH1 0x20 DUP3 ADD MSTORE PUSH1 0x0 JUMPDEST DUP7 DUP2 LT ISZERO PUSH3 0xE5A JUMPI DUP1 DUP7 ADD MLOAD DUP3 DUP3 ADD PUSH1 0x40 ADD MSTORE PUSH1 0x20 ADD PUSH3 0xE3D JUMP JUMPDEST POP PUSH1 0x20 DUP3 DUP8 PUSH1 0x64 ADD DUP5 CALLER PUSH1 0x0 SWAP1 GAS CALL PC PUSH1 0xE ADD JUMPI RETURNDATASIZE PUSH1 0x0 DUP1 RETURNDATACOPY RETURNDATASIZE PUSH1 0x0 REVERT JUMPDEST RETURNDATASIZE PUSH1 0x1 EQ ISZERO PC PUSH1 0xA ADD JUMPI PUSH1 0x1 PUSH1 0x0 RETURN JUMPDEST POP POP POP JUMP JUMPDEST PUSH4 0x3DAA959 MSIZE DUP2 PUSH1 0xE0 SHL DUP2 MSTORE DUP4 PUSH1 0x4 DUP3 ADD MSTORE PUSH1 0x20 DUP2 PUSH1 0x24 DUP4 CALLER PUSH1 0x0 SWAP1 GAS CALL PC PUSH1 0xE ADD JUMPI RETURNDATASIZE PUSH1 0x0 DUP1 RETURNDATACOPY RETURNDATASIZE PUSH1 0x0 REVERT JUMPDEST RETURNDATASIZE PUSH1 0x1 EQ ISZERO PC PUSH1 0xA ADD JUMPI PUSH1 0x1 PUSH1 0x0 RETURN JUMPDEST DUP1 MLOAD SWAP4 POP PUSH1 0x0 JUMPDEST PUSH1 0x40 DUP2 LT ISZERO PUSH3 0xEEA JUMPI PUSH1 0x0 DUP3 DUP3 ADD MSTORE PUSH1 0x20 ADD PUSH3 0xED1 JUMP JUMPDEST POP POP POP JUMP JUMPDEST PUSH4 0x22BD64C0 MSIZE DUP2 PUSH1 0xE0 SHL DUP2 MSTORE DUP4 PUSH1 0x4 DUP3 ADD MSTORE DUP5 PUSH1 0x24 DUP3 ADD MSTORE PUSH1 0x0 DUP2 PUSH1 0x44 DUP4 CALLER PUSH1 0x0 SWAP1 GAS CALL PC PUSH1 0xE ADD JUMPI RETURNDATASIZE PUSH1 0x0 DUP1 RETURNDATACOPY RETURNDATASIZE PUSH1 0x0 REVERT JUMPDEST RETURNDATASIZE PUSH1 0x1 EQ ISZERO PC PUSH1 0xA ADD JUMPI PUSH1 0x1 PUSH1 0x0 RETURN JUMPDEST PUSH1 0x0 DUP2 MSTORE PUSH1 0x20 PUSH3 0xED1 JUMP JUMPDEST PUSH4 0x8435035B MSIZE DUP2 PUSH1 0xE0 SHL DUP2 MSTORE DUP4 PUSH1 0x4 DUP3 ADD MSTORE PUSH1 0x20 DUP2 PUSH1 0x24 DUP4 CALLER PUSH1 0x0 SWAP1 GAS CALL PC PUSH1 0xE ADD JUMPI RETURNDATASIZE PUSH1 0x0 DUP1 RETURNDATACOPY RETURNDATASIZE PUSH1 0x0 REVERT JUMPDEST RETURNDATASIZE PUSH1 0x1 EQ ISZERO PC PUSH1 0xA ADD JUMPI PUSH1 0x1 PUSH1 0x0 RETURN JUMPDEST DUP1 MLOAD PUSH1 0x0 DUP3 MSTORE SWAP4 POP PUSH1 0x20 PUSH3 0xED1 JUMP JUMPDEST PUSH4 0xFFE73914 MSIZE DUP2 PUSH1 0xE0 SHL DUP2 MSTORE DUP4 PUSH1 0x4 DUP3 ADD MSTORE DUP5 PUSH1 0x24 DUP3 ADD MSTORE PUSH1 0x60 PUSH1 0x44 DUP3 ADD MSTORE DUP7 PUSH1 0x64 DUP3 ADD MSTORE PUSH1 0x84 DUP2 ADD PUSH1 0x0 JUMPDEST DUP9 DUP2 LT ISZERO PUSH3 0xFD1 JUMPI DUP1 DUP9 ADD MLOAD DUP3 DUP3 ADD MSTORE PUSH1 0x20 ADD PUSH3 0xFB7 JUMP JUMPDEST POP DUP8 PUSH2 0x104 ADD DUP3 ADD PUSH1 0x60 DUP4 DUP11 PUSH2 0x104 ADD DUP6 CALLER PUSH1 0x0 SWAP1 GAS CALL PC PUSH1 0xE ADD JUMPI RETURNDATASIZE PUSH1 0x0 DUP1 RETURNDATACOPY RETURNDATASIZE PUSH1 0x0 REVERT JUMPDEST RETURNDATASIZE PUSH1 0x1 EQ ISZERO PC PUSH1 0xA ADD JUMPI PUSH1 0x1 PUSH1 0x0 RETURN JUMPDEST DUP3 MLOAD PUSH1 0x40 DUP5 ADD MLOAD RETURNDATASIZE PUSH1 0x0 DUP7 RETURNDATACOPY DUP13 DUP13 DUP3 PUSH1 0x60 DUP9 ADD CALLER POP PUSH1 0x0 PUSH1 0x4 GAS CALL POP MSIZE DUP6 JUMPDEST DUP2 DUP2 LT ISZERO PUSH3 0x103C JUMPI PUSH1 0x0 DUP2 MSTORE PUSH1 0x20 ADD PUSH3 0x1026 JUMP JUMPDEST POP SWAP2 SWAP13 POP POP POP POP POP POP POP JUMP JUMPDEST PUSH2 0x19BE DUP1 PUSH3 0x56ED DUP4 CODECOPY ADD SWAP1 JUMP JUMPDEST PUSH4 0x14AA2FF7 MSIZE DUP2 PUSH1 0xE0 SHL DUP2 MSTORE PUSH1 0x4 DUP2 ADD PUSH1 0x20 DUP2 MSTORE DUP7 PUSH1 0x20 DUP3 ADD MSTORE PUSH1 0x0 JUMPDEST DUP8 DUP2 LT ISZERO PUSH3 0x1090 JUMPI DUP1 DUP8 ADD MLOAD DUP3 DUP3 ADD PUSH1 0x40 ADD MSTORE PUSH1 0x20 ADD PUSH3 0x1073 JUMP JUMPDEST POP PUSH1 0x20 DUP3 DUP9 PUSH1 0x64 ADD DUP5 CALLER PUSH1 0x0 SWAP1 GAS CALL PC PUSH1 0xE ADD JUMPI RETURNDATASIZE PUSH1 0x0 DUP1 RETURNDATACOPY RETURNDATASIZE PUSH1 0x0 REVERT JUMPDEST RETURNDATASIZE PUSH1 0x1 EQ ISZERO PC PUSH1 0xA ADD JUMPI PUSH1 0x1 PUSH1 0x0 RETURN JUMPDEST DUP2 MLOAD SWAP7 POP MSIZE DUP3 JUMPDEST DUP2 DUP2 LT ISZERO PUSH3 0x10DD JUMPI PUSH1 0x0 DUP5 DUP3 ADD MSTORE PUSH1 0x20 ADD PUSH3 0x10C5 JUMP JUMPDEST POP POP POP POP POP JUMP JUMPDEST PUSH3 0x110E SWAP2 SWAP1 JUMPDEST DUP1 DUP3 GT ISZERO PUSH3 0xD17 JUMPI PUSH1 0x0 DUP1 DUP3 PUSH3 0x1102 PUSH3 0xEEF JUMP JUMPDEST POP POP POP PUSH1 0x1 ADD PUSH3 0x10EB JUMP JUMPDEST SWAP1 JUMP JUMPDEST PUSH2 0x45CC DUP1 PUSH3 0x1121 PUSH1 0x0 CODECOPY PUSH1 0x0 RETURN INVALID PUSH1 0x80 PUSH1 0x40 MSTORE CALLVALUE DUP1 ISZERO PUSH2 0x19 JUMPI PUSH1 0x0 DUP1 PUSH2 0x16 PUSH2 0x414A JUMP JUMPDEST POP POP JUMPDEST POP PUSH1 0x4 CALLDATASIZE LT PUSH2 0x267 JUMPI PUSH1 0x0 CALLDATALOAD PUSH1 0xE0 SHR DUP1 PUSH4 0x8B034136 GT PUSH2 0x14F JUMPI DUP1 PUSH4 0xC588F526 GT PUSH2 0xCC JUMPI DUP1 PUSH4 0xD3419BF3 GT PUSH2 0x90 JUMPI DUP1 PUSH4 0xD3419BF3 EQ PUSH2 0x623 JUMPI DUP1 PUSH4 0xDBEA3638 EQ PUSH2 0x62B JUMPI DUP1 PUSH4 0xE3235C91 EQ PUSH2 0x65A JUMPI DUP1 PUSH4 0xE4CFBDBD EQ PUSH2 0x662 JUMPI DUP1 PUSH4 0xEEF49EE3 EQ PUSH2 0x6A3 JUMPI DUP1 PUSH4 0xFD087EE5 EQ PUSH2 0x6AB JUMPI PUSH2 0x267 JUMP JUMPDEST DUP1 PUSH4 0xC588F526 EQ PUSH2 0x5B6 JUMPI DUP1 PUSH4 0xC6C9D828 EQ PUSH2 0x5BE JUMPI DUP1 PUSH4 0xC7A5BDC8 EQ PUSH2 0x5E4 JUMPI DUP1 PUSH4 0xC8DB233E EQ PUSH2 0x5EC JUMPI DUP1 PUSH4 0xD068CDC5 EQ PUSH2 0x61B JUMPI PUSH2 0x267 JUMP JUMPDEST DUP1 PUSH4 0xAB49848C GT PUSH2 0x113 JUMPI DUP1 PUSH4 0xAB49848C EQ PUSH2 0x51E JUMPI DUP1 PUSH4 0xAC3791E3 EQ PUSH2 0x55F JUMPI DUP1 PUSH4 0xB1C9FE6E EQ PUSH2 0x567 JUMPI DUP1 PUSH4 0xB634BFBC EQ PUSH2 0x57F JUMPI DUP1 PUSH4 0xBE5AF9FE EQ PUSH2 0x5AE JUMPI PUSH2 0x267 JUMP JUMPDEST DUP1 PUSH4 0x8B034136 EQ PUSH2 0x4D2 JUMPI DUP1 PUSH4 0x8DA5CB5B EQ PUSH2 0x4DA JUMPI DUP1 PUSH4 0x98508ECD EQ PUSH2 0x4E2 JUMPI DUP1 PUSH4 0x9AF1D35A EQ PUSH2 0x50E JUMPI DUP1 PUSH4 0x9E3B34BF EQ PUSH2 0x516 JUMPI PUSH2 0x267 JUMP JUMPDEST DUP1 PUSH4 0x3DAE89EB GT PUSH2 0x1E8 JUMPI DUP1 PUSH4 0x53A47BB7 GT PUSH2 0x1AC JUMPI DUP1 PUSH4 0x53A47BB7 EQ PUSH2 0x430 JUMPI DUP1 PUSH4 0x631E1444 EQ PUSH2 0x438 JUMPI DUP1 PUSH4 0x6392A51F EQ PUSH2 0x467 JUMPI DUP1 PUSH4 0x65372147 EQ PUSH2 0x496 JUMPI DUP1 PUSH4 0x79BA5097 EQ PUSH2 0x4C2 JUMPI DUP1 PUSH4 0x85149258 EQ PUSH2 0x4CA JUMPI PUSH2 0x267 JUMP JUMPDEST DUP1 PUSH4 0x3DAE89EB EQ PUSH2 0x3A6 JUMPI DUP1 PUSH4 0x3F6FA655 EQ PUSH2 0x3AE JUMPI DUP1 PUSH4 0x408E82AF EQ PUSH2 0x3CA JUMPI DUP1 PUSH4 0x4C33FE94 EQ PUSH2 0x3F9 JUMPI DUP1 PUSH4 0x532F1179 EQ PUSH2 0x428 JUMPI PUSH2 0x267 JUMP JUMPDEST DUP1 PUSH4 0x27745BAE GT PUSH2 0x22F JUMPI DUP1 PUSH4 0x27745BAE EQ PUSH2 0x318 JUMPI DUP1 PUSH4 0x2810E1D6 EQ PUSH2 0x320 JUMPI DUP1 PUSH4 0x29E77B5D EQ PUSH2 0x328 JUMPI DUP1 PUSH4 0x3BE99E6F EQ PUSH2 0x36F JUMPI DUP1 PUSH4 0x3D7A783B EQ PUSH2 0x39E JUMPI PUSH2 0x267 JUMP JUMPDEST DUP1 PUSH4 0x2D05D3F EQ PUSH2 0x275 JUMPI DUP1 PUSH4 0x4F3BCEC EQ PUSH2 0x299 JUMPI DUP1 PUSH4 0x1069143A EQ PUSH2 0x2A1 JUMPI DUP1 PUSH4 0x1627540C EQ PUSH2 0x2CD JUMPI DUP1 PUSH4 0x2115E303 EQ PUSH2 0x2FE JUMPI JUMPDEST PUSH1 0x0 DUP1 PUSH2 0x272 PUSH2 0x414A JUMP JUMPDEST POP POP JUMPDEST PUSH2 0x27D PUSH2 0x6E2 JUMP JUMPDEST PUSH1 0x40 MLOAD PUSH1 0x1 PUSH1 0x1 PUSH1 0xA0 SHL SUB SWAP1 SWAP2 AND DUP2 MSTORE PUSH1 0x20 ADD PUSH1 0x40 MLOAD DUP1 SWAP2 SUB SWAP1 RETURN JUMPDEST PUSH2 0x27D PUSH2 0x701 JUMP JUMPDEST PUSH2 0x2A9 PUSH2 0x70D JUMP JUMPDEST PUSH1 0x40 MLOAD PUSH1 0x1 PUSH1 0x1 PUSH1 0xA0 SHL SUB SWAP3 DUP4 AND DUP2 MSTORE SWAP2 AND PUSH1 0x20 DUP3 ADD MSTORE PUSH1 0x40 SWAP1 DUP2 ADD SWAP1 MLOAD DUP1 SWAP2 SUB SWAP1 RETURN JUMPDEST PUSH2 0x2FC PUSH1 0x4 DUP1 CALLDATASIZE SUB PUSH1 0x20 DUP2 LT ISZERO PUSH2 0x2EC JUMPI PUSH1 0x0 DUP1 PUSH2 0x2E9 PUSH2 0x414A JUMP JUMPDEST POP POP JUMPDEST POP CALLDATALOAD PUSH1 0x1 PUSH1 0x1 PUSH1 0xA0 SHL SUB AND PUSH2 0x74F JUMP JUMPDEST STOP JUMPDEST PUSH2 0x306 PUSH2 0x7C9 JUMP JUMPDEST PUSH1 0x40 MLOAD SWAP1 DUP2 MSTORE PUSH1 0x20 ADD PUSH1 0x40 MLOAD DUP1 SWAP2 SUB SWAP1 RETURN JUMPDEST PUSH2 0x2FC PUSH2 0x7E3 JUMP JUMPDEST PUSH2 0x2FC PUSH2 0x86A JUMP JUMPDEST PUSH2 0x357 PUSH1 0x4 DUP1 CALLDATASIZE SUB PUSH1 0x20 DUP2 LT ISZERO PUSH2 0x347 JUMPI PUSH1 0x0 DUP1 PUSH2 0x344 PUSH2 0x414A JUMP JUMPDEST POP POP JUMPDEST POP CALLDATALOAD PUSH1 0x1 PUSH1 0x1 PUSH1 0xA0 SHL SUB AND PUSH2 0xD7F JUMP JUMPDEST PUSH1 0x40 MLOAD SWAP2 DUP3 MSTORE PUSH1 0x20 DUP3 ADD MSTORE PUSH1 0x40 SWAP1 DUP2 ADD SWAP1 MLOAD DUP1 SWAP2 SUB SWAP1 RETURN JUMPDEST PUSH2 0x2FC PUSH1 0x4 DUP1 CALLDATASIZE SUB PUSH1 0x20 DUP2 LT ISZERO PUSH2 0x38E JUMPI PUSH1 0x0 DUP1 PUSH2 0x38B PUSH2 0x414A JUMP JUMPDEST POP POP JUMPDEST POP CALLDATALOAD PUSH1 0x1 PUSH1 0x1 PUSH1 0xA0 SHL SUB AND PUSH2 0xD94 JUMP JUMPDEST PUSH2 0x357 PUSH2 0xF5E JUMP JUMPDEST PUSH2 0x357 PUSH2 0x10D8 JUMP JUMPDEST PUSH2 0x3B6 PUSH2 0x10EB JUMP JUMPDEST PUSH1 0x40 MLOAD SWAP1 ISZERO ISZERO DUP2 MSTORE PUSH1 0x20 ADD PUSH1 0x40 MLOAD DUP1 SWAP2 SUB SWAP1 RETURN JUMPDEST PUSH2 0x357 PUSH1 0x4 DUP1 CALLDATASIZE SUB PUSH1 0x20 DUP2 LT ISZERO PUSH2 0x3E9 JUMPI PUSH1 0x0 DUP1 PUSH2 0x3E6 PUSH2 0x414A JUMP JUMPDEST POP POP JUMPDEST POP CALLDATALOAD PUSH1 0x1 PUSH1 0x1 PUSH1 0xA0 SHL SUB AND PUSH2 0x1104 JUMP JUMPDEST PUSH2 0x2FC PUSH1 0x4 DUP1 CALLDATASIZE SUB PUSH1 0x20 DUP2 LT ISZERO PUSH2 0x418 JUMPI PUSH1 0x0 DUP1 PUSH2 0x415 PUSH2 0x414A JUMP JUMPDEST POP POP JUMPDEST POP CALLDATALOAD PUSH1 0x1 PUSH1 0x1 PUSH1 0xA0 SHL SUB AND PUSH2 0x1110 JUMP JUMPDEST PUSH2 0x3B6 PUSH2 0x1217 JUMP JUMPDEST PUSH2 0x27D PUSH2 0x1222 JUMP JUMPDEST PUSH2 0x3B6 PUSH1 0x4 DUP1 CALLDATASIZE SUB PUSH1 0x20 DUP2 LT ISZERO PUSH2 0x457 JUMPI PUSH1 0x0 DUP1 PUSH2 0x454 PUSH2 0x414A JUMP JUMPDEST POP POP JUMPDEST POP CALLDATALOAD PUSH1 0x1 PUSH1 0x1 PUSH1 0xA0 SHL SUB AND PUSH2 0x122E JUMP JUMPDEST PUSH2 0x357 PUSH1 0x4 DUP1 CALLDATASIZE SUB PUSH1 0x20 DUP2 LT ISZERO PUSH2 0x486 JUMPI PUSH1 0x0 DUP1 PUSH2 0x483 PUSH2 0x414A JUMP JUMPDEST POP POP JUMPDEST POP CALLDATALOAD PUSH1 0x1 PUSH1 0x1 PUSH1 0xA0 SHL SUB AND PUSH2 0x140A JUMP JUMPDEST PUSH2 0x49E PUSH2 0x1416 JUMP JUMPDEST PUSH1 0x40 MLOAD DUP1 DUP3 PUSH1 0x1 DUP2 GT ISZERO PUSH2 0x4AE JUMPI INVALID JUMPDEST PUSH1 0xFF AND DUP2 MSTORE PUSH1 0x20 ADD SWAP2 POP POP PUSH1 0x40 MLOAD DUP1 SWAP2 SUB SWAP1 RETURN JUMPDEST PUSH2 0x2FC PUSH2 0x1420 JUMP JUMPDEST PUSH2 0x306 PUSH2 0x15A3 JUMP JUMPDEST PUSH2 0x357 PUSH2 0x1A0B JUMP JUMPDEST PUSH2 0x27D PUSH2 0x1A16 JUMP JUMPDEST PUSH2 0x4EA PUSH2 0x1A21 JUMP JUMPDEST PUSH1 0x40 MLOAD DUP1 DUP5 DUP2 MSTORE PUSH1 0x20 ADD DUP4 DUP2 MSTORE PUSH1 0x20 ADD DUP3 DUP2 MSTORE PUSH1 0x20 ADD SWAP4 POP POP POP POP PUSH1 0x40 MLOAD DUP1 SWAP2 SUB SWAP1 RETURN JUMPDEST PUSH2 0x4EA PUSH2 0x1A4B JUMP JUMPDEST PUSH2 0x4EA PUSH2 0x1A56 JUMP JUMPDEST PUSH2 0x526 PUSH2 0x1A61 JUMP JUMPDEST PUSH1 0x40 MLOAD DUP1 DUP3 PUSH2 0x300 DUP1 DUP4 DUP4 PUSH1 0x0 JUMPDEST DUP4 DUP2 LT ISZERO PUSH2 0x54C JUMPI DUP1 DUP3 ADD MLOAD DUP4 DUP3 ADD MSTORE PUSH1 0x20 ADD PUSH2 0x534 JUMP JUMPDEST POP POP POP POP SWAP1 POP ADD SWAP2 POP POP PUSH1 0x40 MLOAD DUP1 SWAP2 SUB SWAP1 RETURN JUMPDEST PUSH2 0x3B6 PUSH2 0x1AC3 JUMP JUMPDEST PUSH2 0x56F PUSH2 0x1B0E JUMP JUMPDEST PUSH1 0x40 MLOAD DUP1 DUP3 PUSH1 0x3 DUP2 GT ISZERO PUSH2 0x4AE JUMPI INVALID JUMPDEST PUSH2 0x306 PUSH1 0x4 DUP1 CALLDATASIZE SUB PUSH1 0x40 DUP2 LT ISZERO PUSH2 0x59E JUMPI PUSH1 0x0 DUP1 PUSH2 0x59B PUSH2 0x414A JUMP JUMPDEST POP POP JUMPDEST POP PUSH1 0xFF DUP2 CALLDATALOAD AND SWAP1 PUSH1 0x20 ADD CALLDATALOAD PUSH2 0x1B52 JUMP JUMPDEST PUSH2 0x357 PUSH2 0x1F7C JUMP JUMPDEST PUSH2 0x357 PUSH2 0x1F99 JUMP JUMPDEST PUSH2 0x306 PUSH1 0x4 DUP1 CALLDATASIZE SUB PUSH1 0x20 DUP2 LT ISZERO PUSH2 0x5DD JUMPI PUSH1 0x0 DUP1 PUSH2 0x5DA PUSH2 0x414A JUMP JUMPDEST POP POP JUMPDEST POP CALLDATALOAD PUSH2 0x20E8 JUMP JUMPDEST PUSH2 0x357 PUSH2 0x2113 JUMP JUMPDEST PUSH2 0x2FC PUSH1 0x4 DUP1 CALLDATASIZE SUB PUSH1 0x20 DUP2 LT ISZERO PUSH2 0x60B JUMPI PUSH1 0x0 DUP1 PUSH2 0x608 PUSH2 0x414A JUMP JUMPDEST POP POP JUMPDEST POP CALLDATALOAD PUSH1 0x1 PUSH1 0x1 PUSH1 0xA0 SHL SUB AND PUSH2 0x211E JUMP JUMPDEST PUSH2 0x357 PUSH2 0x2193 JUMP JUMPDEST PUSH2 0x357 PUSH2 0x229C JUMP JUMPDEST PUSH2 0x2FC PUSH1 0x4 DUP1 CALLDATASIZE SUB PUSH1 0x40 DUP2 LT ISZERO PUSH2 0x64A JUMPI PUSH1 0x0 DUP1 PUSH2 0x647 PUSH2 0x414A JUMP JUMPDEST POP POP JUMPDEST POP PUSH1 0xFF DUP2 CALLDATALOAD AND SWAP1 PUSH1 0x20 ADD CALLDATALOAD PUSH2 0x22A7 JUMP JUMPDEST PUSH2 0x306 PUSH2 0x2569 JUMP JUMPDEST PUSH2 0x306 PUSH1 0x4 DUP1 CALLDATASIZE SUB PUSH1 0x80 DUP2 LT ISZERO PUSH2 0x681 JUMPI PUSH1 0x0 DUP1 PUSH2 0x67E PUSH2 0x414A JUMP JUMPDEST POP POP JUMPDEST POP PUSH1 0xFF DUP2 CALLDATALOAD DUP2 AND SWAP2 PUSH1 0x20 DUP2 ADD CALLDATALOAD SWAP1 SWAP2 AND SWAP1 PUSH1 0x40 DUP2 ADD CALLDATALOAD SWAP1 PUSH1 0x60 ADD CALLDATALOAD ISZERO ISZERO PUSH2 0x256E JUMP JUMPDEST PUSH2 0x306 PUSH2 0x27E7 JUMP JUMPDEST PUSH2 0x357 PUSH1 0x4 DUP1 CALLDATASIZE SUB PUSH1 0x60 DUP2 LT ISZERO PUSH2 0x6CA JUMPI PUSH1 0x0 DUP1 PUSH2 0x6C7 PUSH2 0x414A JUMP JUMPDEST POP POP JUMPDEST POP PUSH1 0xFF DUP2 CALLDATALOAD AND SWAP1 PUSH1 0x20 DUP2 ADD CALLDATALOAD SWAP1 PUSH1 0x40 ADD CALLDATALOAD ISZERO ISZERO PUSH2 0x27F1 JUMP JUMPDEST PUSH1 0x0 PUSH1 0x15 PUSH2 0x6EE PUSH2 0x41B5 JUMP JUMPDEST SWAP1 PUSH2 0x100 EXP SWAP1 DIV PUSH1 0x1 PUSH1 0x1 PUSH1 0xA0 SHL SUB AND DUP2 JUMP JUMPDEST PUSH1 0x0 PUSH1 0x2 PUSH2 0x6EE PUSH2 0x41B5 JUMP JUMPDEST PUSH1 0x5 PUSH1 0x0 DUP2 PUSH2 0x71A PUSH2 0x41B5 JUMP JUMPDEST SWAP1 PUSH2 0x100 EXP SWAP1 DIV PUSH1 0x1 PUSH1 0x1 PUSH1 0xA0 SHL SUB AND SWAP1 DUP1 PUSH1 0x1 ADD PUSH1 0x0 SWAP1 PUSH2 0x73A PUSH2 0x41B5 JUMP JUMPDEST SWAP1 PUSH2 0x100 EXP SWAP1 DIV PUSH1 0x1 PUSH1 0x1 PUSH1 0xA0 SHL SUB AND SWAP1 POP DUP3 JUMP JUMPDEST PUSH2 0x757 PUSH2 0x28A9 JUMP JUMPDEST DUP1 PUSH1 0x1 DUP1 DUP1 PUSH2 0x764 PUSH2 0x41B5 JUMP JUMPDEST DUP2 PUSH1 0x1 PUSH1 0x1 PUSH1 0xA0 SHL SUB MUL NOT AND SWAP1 DUP4 PUSH1 0x1 PUSH1 0x1 PUSH1 0xA0 SHL SUB AND MUL OR SWAP1 PUSH2 0x786 PUSH2 0x4210 JUMP JUMPDEST POP POP POP PUSH32 0x906A1C6BD7E3091EA86693DD029A831C19049CE77F1DCE2CE0BAB1CACBABCE22 DUP2 PUSH1 0x40 MLOAD PUSH1 0x1 PUSH1 0x1 PUSH1 0xA0 SHL SUB SWAP1 SWAP2 AND DUP2 MSTORE PUSH1 0x20 ADD PUSH1 0x40 MLOAD DUP1 SWAP2 SUB SWAP1 LOG1 POP JUMP JUMPDEST PUSH1 0x0 PUSH2 0x7DD PUSH1 0x14 PUSH2 0x7D8 PUSH2 0x41B5 JUMP JUMPDEST PUSH2 0x2921 JUMP JUMPDEST SWAP1 POP JUMPDEST SWAP1 JUMP JUMPDEST PUSH2 0x7EB PUSH2 0x294F JUMP JUMPDEST PUSH1 0x1 PUSH1 0x1 PUSH1 0xA0 SHL SUB AND PUSH4 0x86DABD1 PUSH1 0x40 MLOAD DUP2 PUSH4 0xFFFFFFFF AND PUSH1 0xE0 SHL DUP2 MSTORE PUSH1 0x4 ADD PUSH1 0x0 PUSH1 0x40 MLOAD DUP1 DUP4 SUB DUP2 DUP7 DUP1 PUSH2 0x81E PUSH2 0x425E JUMP JUMPDEST ISZERO DUP1 ISZERO PUSH2 0x833 JUMPI PUSH1 0x0 DUP1 PUSH2 0x830 PUSH2 0x414A JUMP JUMPDEST POP POP JUMPDEST POP GAS PUSH2 0x83D PUSH2 0x42AA JUMP JUMPDEST POP POP POP POP POP ISZERO DUP1 ISZERO PUSH2 0x85C JUMPI RETURNDATASIZE PUSH1 0x0 DUP1 RETURNDATACOPY RETURNDATASIZE PUSH1 0x0 PUSH2 0x859 PUSH2 0x414A JUMP JUMPDEST POP POP JUMPDEST POP POP POP POP PUSH2 0x868 PUSH2 0x2994 JUMP JUMPDEST JUMP JUMPDEST PUSH2 0x872 PUSH2 0x28A9 JUMP JUMPDEST PUSH2 0x87A PUSH2 0x2A79 JUMP JUMPDEST PUSH2 0x8C4 JUMPI PUSH1 0x40 MLOAD PUSH3 0x461BCD PUSH1 0xE5 SHL DUP2 MSTORE PUSH1 0x20 PUSH1 0x4 DUP3 ADD MSTORE PUSH1 0xE PUSH1 0x24 DUP3 ADD MSTORE PUSH14 0x4E6F7420796574206D6174757265 PUSH1 0x90 SHL PUSH1 0x44 DUP3 ADD MSTORE PUSH1 0x64 ADD PUSH1 0x40 MLOAD DUP1 SWAP2 SUB SWAP1 PUSH2 0x8C1 PUSH2 0x414A JUMP JUMPDEST POP POP JUMPDEST PUSH2 0x8CC PUSH2 0x294F JUMP JUMPDEST PUSH1 0x1 PUSH1 0x1 PUSH1 0xA0 SHL SUB AND PUSH4 0x86DABD1 PUSH1 0x40 MLOAD DUP2 PUSH4 0xFFFFFFFF AND PUSH1 0xE0 SHL DUP2 MSTORE PUSH1 0x4 ADD PUSH1 0x0 PUSH1 0x40 MLOAD DUP1 DUP4 SUB DUP2 DUP7 DUP1 PUSH2 0x8FF PUSH2 0x425E JUMP JUMPDEST ISZERO DUP1 ISZERO PUSH2 0x914 JUMPI PUSH1 0x0 DUP1 PUSH2 0x911 PUSH2 0x414A JUMP JUMPDEST POP POP JUMPDEST POP GAS PUSH2 0x91E PUSH2 0x42AA JUMP JUMPDEST POP POP POP POP POP ISZERO DUP1 ISZERO PUSH2 0x93D JUMPI RETURNDATASIZE PUSH1 0x0 DUP1 RETURNDATACOPY RETURNDATASIZE PUSH1 0x0 PUSH2 0x93A PUSH2 0x414A JUMP JUMPDEST POP POP JUMPDEST POP POP POP POP PUSH2 0x949 PUSH2 0x2994 JUMP JUMPDEST PUSH1 0x14 PUSH1 0x15 PUSH2 0x955 PUSH2 0x41B5 JUMP JUMPDEST SWAP1 PUSH2 0x100 EXP SWAP1 DIV PUSH1 0xFF AND ISZERO PUSH2 0x9B9 JUMPI PUSH1 0x40 MLOAD PUSH3 0x461BCD PUSH1 0xE5 SHL DUP2 MSTORE PUSH1 0x20 PUSH1 0x4 DUP3 ADD MSTORE PUSH1 0x17 PUSH1 0x24 DUP3 ADD MSTORE PUSH32 0x4D61726B657420616C7265616479207265736F6C766564000000000000000000 PUSH1 0x44 DUP3 ADD MSTORE PUSH1 0x64 ADD PUSH1 0x40 MLOAD DUP1 SWAP2 SUB SWAP1 PUSH2 0x9B6 PUSH2 0x414A JUMP JUMPDEST POP POP JUMPDEST PUSH1 0x0 DUP1 PUSH2 0x9C4 PUSH2 0x2A94 JUMP JUMPDEST SWAP2 POP SWAP2 POP PUSH2 0x9D1 DUP2 PUSH2 0x2B60 JUMP JUMPDEST PUSH2 0xA1B JUMPI PUSH1 0x40 MLOAD PUSH3 0x461BCD PUSH1 0xE5 SHL DUP2 MSTORE PUSH1 0x20 PUSH1 0x4 DUP3 ADD MSTORE PUSH1 0xE PUSH1 0x24 DUP3 ADD MSTORE PUSH14 0x5072696365206973207374616C65 PUSH1 0x90 SHL PUSH1 0x44 DUP3 ADD MSTORE PUSH1 0x64 ADD PUSH1 0x40 MLOAD DUP1 SWAP2 SUB SWAP1 PUSH2 0xA18 PUSH2 0x414A JUMP JUMPDEST POP POP JUMPDEST DUP2 DUP1 PUSH1 0xE PUSH2 0xA27 PUSH2 0x4210 JUMP JUMPDEST POP POP POP PUSH1 0x1 PUSH1 0x15 PUSH1 0x14 PUSH2 0x100 EXP DUP2 PUSH2 0xA3D PUSH2 0x41B5 JUMP JUMPDEST DUP2 PUSH1 0xFF MUL NOT AND SWAP1 DUP4 ISZERO ISZERO MUL OR SWAP1 PUSH2 0xA52 PUSH2 0x4210 JUMP JUMPDEST POP POP POP PUSH1 0x0 PUSH2 0xA5F PUSH2 0x2C41 JUMP JUMPDEST SWAP1 POP PUSH1 0x0 PUSH1 0x14 PUSH2 0xA6D PUSH2 0x41B5 JUMP JUMPDEST SWAP1 POP PUSH1 0x0 PUSH2 0xA8B PUSH1 0xF PUSH2 0xA7E PUSH2 0x41B5 JUMP JUMPDEST DUP4 SWAP1 PUSH4 0xFFFFFFFF PUSH2 0x2C80 AND JUMP JUMPDEST SWAP1 POP PUSH1 0x0 PUSH2 0xAA9 PUSH1 0x10 PUSH2 0xA9C PUSH2 0x41B5 JUMP JUMPDEST DUP5 SWAP1 PUSH4 0xFFFFFFFF PUSH2 0x2C80 AND JUMP JUMPDEST SWAP1 POP PUSH2 0xAC3 PUSH2 0xABE DUP3 DUP5 PUSH4 0xFFFFFFFF PUSH2 0x2C9C AND JUMP JUMPDEST PUSH2 0x2D04 JUMP JUMPDEST POP DUP4 PUSH1 0x1 PUSH1 0x1 PUSH1 0xA0 SHL SUB AND PUSH4 0xA9059CBB PUSH2 0xADB PUSH2 0x2DB8 JUMP JUMPDEST PUSH1 0x1 PUSH1 0x1 PUSH1 0xA0 SHL SUB AND PUSH4 0xEB1EDD61 PUSH1 0x40 MLOAD DUP2 PUSH4 0xFFFFFFFF AND PUSH1 0xE0 SHL DUP2 MSTORE PUSH1 0x4 ADD PUSH1 0x20 PUSH1 0x40 MLOAD DUP1 DUP4 SUB DUP2 DUP7 DUP1 PUSH2 0xB0E PUSH2 0x425E JUMP JUMPDEST ISZERO DUP1 ISZERO PUSH2 0xB23 JUMPI PUSH1 0x0 DUP1 PUSH2 0xB20 PUSH2 0x414A JUMP JUMPDEST POP POP JUMPDEST POP GAS PUSH2 0xB2D PUSH2 0x42AA JUMP JUMPDEST POP POP POP POP POP ISZERO DUP1 ISZERO PUSH2 0xB4C JUMPI RETURNDATASIZE PUSH1 0x0 DUP1 RETURNDATACOPY RETURNDATASIZE PUSH1 0x0 PUSH2 0xB49 PUSH2 0x414A JUMP JUMPDEST POP POP JUMPDEST POP POP POP POP PUSH1 0x40 MLOAD RETURNDATASIZE PUSH1 0x20 DUP2 LT ISZERO PUSH2 0xB6B JUMPI PUSH1 0x0 DUP1 PUSH2 0xB68 PUSH2 0x414A JUMP JUMPDEST POP POP JUMPDEST DUP2 ADD SWAP1 DUP1 DUP1 MLOAD SWAP3 POP DUP7 SWAP2 POP PUSH1 0x40 SWAP1 POP MLOAD PUSH1 0x1 PUSH1 0x1 PUSH1 0xE0 SHL SUB NOT PUSH1 0xE0 DUP6 SWAP1 SHL AND DUP2 MSTORE PUSH1 0x1 PUSH1 0x1 PUSH1 0xA0 SHL SUB SWAP1 SWAP3 AND PUSH1 0x4 DUP4 ADD MSTORE PUSH1 0x24 DUP3 ADD MSTORE PUSH1 0x44 ADD PUSH1 0x20 PUSH1 0x40 MLOAD DUP1 DUP4 SUB DUP2 PUSH1 0x0 DUP8 DUP1 PUSH2 0xBB9 PUSH2 0x425E JUMP JUMPDEST ISZERO DUP1 ISZERO PUSH2 0xBCE JUMPI PUSH1 0x0 DUP1 PUSH2 0xBCB PUSH2 0x414A JUMP JUMPDEST POP POP JUMPDEST POP GAS PUSH2 0xBD8 PUSH2 0x4363 JUMP JUMPDEST POP POP POP POP POP POP ISZERO DUP1 ISZERO PUSH2 0xBF8 JUMPI RETURNDATASIZE PUSH1 0x0 DUP1 RETURNDATACOPY RETURNDATASIZE PUSH1 0x0 PUSH2 0xBF5 PUSH2 0x414A JUMP JUMPDEST POP POP JUMPDEST POP POP POP POP PUSH1 0x40 MLOAD RETURNDATASIZE PUSH1 0x20 DUP2 LT ISZERO PUSH2 0xC17 JUMPI PUSH1 0x0 DUP1 PUSH2 0xC14 PUSH2 0x414A JUMP JUMPDEST POP POP JUMPDEST DUP2 ADD SWAP1 DUP1 DUP1 MLOAD POP POP POP PUSH1 0x1 PUSH1 0x1 PUSH1 0xA0 SHL SUB DUP6 AND SWAP1 POP PUSH4 0xA9059CBB PUSH1 0x0 PUSH1 0x15 PUSH2 0xC3D PUSH2 0x41B5 JUMP JUMPDEST SWAP1 PUSH2 0x100 EXP SWAP1 DIV PUSH1 0x1 PUSH1 0x1 PUSH1 0xA0 SHL SUB AND DUP4 PUSH1 0x40 MLOAD PUSH1 0x1 PUSH1 0x1 PUSH1 0xE0 SHL SUB NOT PUSH1 0xE0 DUP6 SWAP1 SHL AND DUP2 MSTORE PUSH1 0x1 PUSH1 0x1 PUSH1 0xA0 SHL SUB SWAP1 SWAP3 AND PUSH1 0x4 DUP4 ADD MSTORE PUSH1 0x24 DUP3 ADD MSTORE PUSH1 0x44 ADD PUSH1 0x20 PUSH1 0x40 MLOAD DUP1 DUP4 SUB DUP2 PUSH1 0x0 DUP8 DUP1 PUSH2 0xC8F PUSH2 0x425E JUMP JUMPDEST ISZERO DUP1 ISZERO PUSH2 0xCA4 JUMPI PUSH1 0x0 DUP1 PUSH2 0xCA1 PUSH2 0x414A JUMP JUMPDEST POP POP JUMPDEST POP GAS PUSH2 0xCAE PUSH2 0x4363 JUMP JUMPDEST POP POP POP POP POP POP ISZERO DUP1 ISZERO PUSH2 0xCCE JUMPI RETURNDATASIZE PUSH1 0x0 DUP1 RETURNDATACOPY RETURNDATASIZE PUSH1 0x0 PUSH2 0xCCB PUSH2 0x414A JUMP JUMPDEST POP POP JUMPDEST POP POP POP POP PUSH1 0x40 MLOAD RETURNDATASIZE PUSH1 0x20 DUP2 LT ISZERO PUSH2 0xCED JUMPI PUSH1 0x0 DUP1 PUSH2 0xCEA PUSH2 0x414A JUMP JUMPDEST POP POP JUMPDEST DUP2 ADD SWAP1 DUP1 DUP1 MLOAD POP PUSH32 0x5528B7E06F48A519CF814C4E5293EE2737C3F5C28D93E30CCA112AC649FDD235 SWAP3 POP PUSH2 0xD23 SWAP2 POP PUSH2 0x2DF3 SWAP1 POP JUMP JUMPDEST DUP8 DUP8 PUSH1 0x14 PUSH2 0xD2F PUSH2 0x41B5 JUMP JUMPDEST DUP7 DUP7 PUSH1 0x40 MLOAD DUP1 DUP8 PUSH1 0x1 DUP2 GT ISZERO PUSH2 0xD41 JUMPI INVALID JUMPDEST PUSH1 0xFF AND DUP2 MSTORE PUSH1 0x20 ADD DUP7 DUP2 MSTORE PUSH1 0x20 ADD DUP6 DUP2 MSTORE PUSH1 0x20 ADD DUP5 DUP2 MSTORE PUSH1 0x20 ADD DUP4 DUP2 MSTORE PUSH1 0x20 ADD DUP3 DUP2 MSTORE PUSH1 0x20 ADD SWAP7 POP POP POP POP POP POP POP PUSH1 0x40 MLOAD DUP1 SWAP2 SUB SWAP1 LOG1 POP POP POP POP POP POP JUMP JUMPDEST PUSH1 0x0 DUP1 PUSH2 0xD8B DUP4 PUSH2 0x2E4E JUMP JUMPDEST SWAP2 POP SWAP2 POP SWAP2 POP SWAP2 JUMP JUMPDEST PUSH2 0xD9C PUSH2 0x28A9 JUMP JUMPDEST DUP1 PUSH1 0x2 PUSH1 0x1 DUP2 PUSH2 0xDAA PUSH2 0x41B5 JUMP JUMPDEST DUP2 PUSH1 0x1 PUSH1 0x1 PUSH1 0xA0 SHL SUB MUL NOT AND SWAP1 DUP4 PUSH1 0x1 PUSH1 0x1 PUSH1 0xA0 SHL SUB AND MUL OR SWAP1 PUSH2 0xDCC PUSH2 0x4210 JUMP JUMPDEST POP PUSH1 0x0 SWAP2 POP POP JUMPDEST PUSH1 0x4 DUP1 PUSH2 0xDDE PUSH2 0x41B5 JUMP JUMPDEST SWAP1 POP DUP2 LT ISZERO PUSH2 0xF5A JUMPI PUSH1 0x0 PUSH1 0x4 DUP3 DUP2 PUSH2 0xDF5 PUSH2 0x41B5 JUMP JUMPDEST DUP2 LT PUSH2 0xDFD JUMPI INVALID JUMPDEST SWAP1 PUSH1 0x0 MSTORE PUSH1 0x20 PUSH1 0x0 KECCAK256 ADD PUSH2 0xE0F PUSH2 0x41B5 JUMP JUMPDEST SWAP1 POP PUSH1 0x0 PUSH1 0x2 PUSH2 0xE1D PUSH2 0x41B5 JUMP JUMPDEST SWAP1 PUSH2 0x100 EXP SWAP1 DIV PUSH1 0x1 PUSH1 0x1 PUSH1 0xA0 SHL SUB AND PUSH1 0x1 PUSH1 0x1 PUSH1 0xA0 SHL SUB AND PUSH4 0xDACB2D01 DUP3 PUSH1 0x40 MLOAD PUSH1 0x1 PUSH1 0x1 PUSH1 0xE0 SHL SUB NOT PUSH1 0xE0 DUP5 SWAP1 SHL AND DUP2 MSTORE PUSH1 0x4 DUP2 ADD SWAP2 SWAP1 SWAP2 MSTORE PUSH1 0x40 PUSH1 0x24 DUP3 ADD DUP2 SWAP1 MSTORE PUSH1 0x17 PUSH1 0x44 DUP4 ADD MSTORE PUSH32 0x5265736F6C766572206D697373696E6720746172676574000000000000000000 PUSH1 0x64 DUP4 ADD MSTORE PUSH1 0x84 SWAP1 SWAP2 ADD SWAP1 PUSH1 0x20 SWAP1 MLOAD DUP1 DUP4 SUB DUP2 DUP7 DUP1 PUSH2 0xEA6 PUSH2 0x425E JUMP JUMPDEST ISZERO DUP1 ISZERO PUSH2 0xEBB JUMPI PUSH1 0x0 DUP1 PUSH2 0xEB8 PUSH2 0x414A JUMP JUMPDEST POP POP JUMPDEST POP GAS PUSH2 0xEC5 PUSH2 0x42AA JUMP JUMPDEST POP POP POP POP POP ISZERO DUP1 ISZERO PUSH2 0xEE4 JUMPI RETURNDATASIZE PUSH1 0x0 DUP1 RETURNDATACOPY RETURNDATASIZE PUSH1 0x0 PUSH2 0xEE1 PUSH2 0x414A JUMP JUMPDEST POP POP JUMPDEST POP POP POP POP PUSH1 0x40 MLOAD RETURNDATASIZE PUSH1 0x20 DUP2 LT ISZERO PUSH2 0xF03 JUMPI PUSH1 0x0 DUP1 PUSH2 0xF00 PUSH2 0x414A JUMP JUMPDEST POP POP JUMPDEST DUP2 ADD SWAP1 DUP1 DUP1 MLOAD PUSH1 0x0 DUP6 DUP2 MSTORE PUSH1 0x3 PUSH1 0x20 MSTORE SWAP1 SWAP4 POP PUSH1 0x40 SWAP3 POP SWAP1 POP KECCAK256 PUSH1 0x1 DUP2 PUSH2 0xF28 PUSH2 0x41B5 JUMP JUMPDEST DUP2 PUSH1 0x1 PUSH1 0x1 PUSH1 0xA0 SHL SUB MUL NOT AND SWAP1 DUP4 PUSH1 0x1 PUSH1 0x1 PUSH1 0xA0 SHL SUB AND MUL OR SWAP1 PUSH2 0xF4A PUSH2 0x4210 JUMP JUMPDEST POP POP PUSH1 0x1 SWAP1 SWAP3 ADD SWAP2 POP PUSH2 0xDD3 SWAP1 POP JUMP JUMPDEST POP POP JUMP JUMPDEST PUSH1 0x0 DUP1 DUP1 PUSH1 0x5 PUSH2 0xF6C PUSH2 0x41B5 JUMP JUMPDEST SWAP1 PUSH2 0x100 EXP SWAP1 DIV PUSH1 0x1 PUSH1 0x1 PUSH1 0xA0 SHL SUB AND PUSH1 0x1 PUSH1 0x1 PUSH1 0xA0 SHL SUB AND PUSH4 0xD6FF02E2 PUSH1 0x40 MLOAD DUP2 PUSH4 0xFFFFFFFF AND PUSH1 0xE0 SHL DUP2 MSTORE PUSH1 0x4 ADD PUSH1 0x20 PUSH1 0x40 MLOAD DUP1 DUP4 SUB DUP2 DUP7 DUP1 PUSH2 0xFAF PUSH2 0x425E JUMP JUMPDEST ISZERO DUP1 ISZERO PUSH2 0xFC4 JUMPI PUSH1 0x0 DUP1 PUSH2 0xFC1 PUSH2 0x414A JUMP JUMPDEST POP POP JUMPDEST POP GAS PUSH2 0xFCE PUSH2 0x42AA JUMP JUMPDEST POP POP POP POP POP ISZERO DUP1 ISZERO PUSH2 0xFED JUMPI RETURNDATASIZE PUSH1 0x0 DUP1 RETURNDATACOPY RETURNDATASIZE PUSH1 0x0 PUSH2 0xFEA PUSH2 0x414A JUMP JUMPDEST POP POP JUMPDEST POP POP POP POP PUSH1 0x40 MLOAD RETURNDATASIZE PUSH1 0x20 DUP2 LT ISZERO PUSH2 0x100C JUMPI PUSH1 0x0 DUP1 PUSH2 0x1009 PUSH2 0x414A JUMP JUMPDEST POP POP JUMPDEST DUP2 ADD SWAP1 DUP1 DUP1 MLOAD SWAP3 POP PUSH1 0x0 SWAP2 POP PUSH1 0x6 SWAP1 POP PUSH2 0x1024 PUSH2 0x41B5 JUMP JUMPDEST SWAP1 PUSH2 0x100 EXP SWAP1 DIV PUSH1 0x1 PUSH1 0x1 PUSH1 0xA0 SHL SUB AND PUSH1 0x1 PUSH1 0x1 PUSH1 0xA0 SHL SUB AND PUSH4 0xD6FF02E2 PUSH1 0x40 MLOAD DUP2 PUSH4 0xFFFFFFFF AND PUSH1 0xE0 SHL DUP2 MSTORE PUSH1 0x4 ADD PUSH1 0x20 PUSH1 0x40 MLOAD DUP1 DUP4 SUB DUP2 DUP7 DUP1 PUSH2 0x1067 PUSH2 0x425E JUMP JUMPDEST ISZERO DUP1 ISZERO PUSH2 0x107C JUMPI PUSH1 0x0 DUP1 PUSH2 0x1079 PUSH2 0x414A JUMP JUMPDEST POP POP JUMPDEST POP GAS PUSH2 0x1086 PUSH2 0x42AA JUMP JUMPDEST POP POP POP POP POP ISZERO DUP1 ISZERO PUSH2 0x10A5 JUMPI RETURNDATASIZE PUSH1 0x0 DUP1 RETURNDATACOPY RETURNDATASIZE PUSH1 0x0 PUSH2 0x10A2 PUSH2 0x414A JUMP JUMPDEST POP POP JUMPDEST POP POP POP POP PUSH1 0x40 MLOAD RETURNDATASIZE PUSH1 0x20 DUP2 LT ISZERO PUSH2 0x10C4 JUMPI PUSH1 0x0 DUP1 PUSH2 0x10C1 PUSH2 0x414A JUMP JUMPDEST POP POP JUMPDEST DUP2 ADD SWAP1 DUP1 DUP1 MLOAD SWAP4 SWAP6 POP SWAP3 SWAP4 POP POP POP POP JUMPDEST SWAP1 SWAP2 JUMP JUMPDEST PUSH1 0x0 DUP1 PUSH2 0x10E3 PUSH2 0x2FF4 JUMP JUMPDEST SWAP2 POP SWAP2 POP SWAP1 SWAP2 JUMP JUMPDEST PUSH1 0x14 PUSH1 0x15 PUSH2 0x10F7 PUSH2 0x41B5 JUMP JUMPDEST SWAP1 PUSH2 0x100 EXP SWAP1 DIV PUSH1 0xFF AND DUP2 JUMP JUMPDEST PUSH1 0x0 DUP1 PUSH2 0xD8B DUP4 PUSH2 0x33D9 JUMP JUMPDEST PUSH2 0x1118 PUSH2 0x28A9 JUMP JUMPDEST PUSH2 0x1120 PUSH2 0x350E JUMP JUMPDEST ISZERO PUSH2 0x116D JUMPI PUSH1 0x40 MLOAD PUSH3 0x461BCD PUSH1 0xE5 SHL DUP2 MSTORE PUSH1 0x20 PUSH1 0x4 DUP3 ADD MSTORE PUSH1 0x10 PUSH1 0x24 DUP3 ADD MSTORE PUSH16 0x42696464696E6720696E616374697665 PUSH1 0x80 SHL PUSH1 0x44 DUP3 ADD MSTORE PUSH1 0x64 ADD PUSH1 0x40 MLOAD DUP1 SWAP2 SUB SWAP1 PUSH2 0x116A PUSH2 0x414A JUMP JUMPDEST POP POP JUMPDEST PUSH1 0x0 DUP1 PUSH2 0x1178 PUSH2 0x3523 JUMP JUMPDEST SWAP2 POP SWAP2 POP PUSH1 0x0 DUP1 PUSH2 0x11A4 PUSH1 0x15 PUSH1 0x0 SWAP1 PUSH2 0x118F PUSH2 0x41B5 JUMP JUMPDEST SWAP1 PUSH2 0x100 EXP SWAP1 DIV PUSH1 0x1 PUSH1 0x1 PUSH1 0xA0 SHL SUB AND PUSH2 0x2E4E JUMP JUMPDEST SWAP2 POP SWAP2 POP PUSH1 0x0 DUP3 DUP6 EQ DUP1 ISZERO PUSH2 0x11B8 JUMPI POP DUP2 DUP5 EQ JUMPDEST SWAP1 POP DUP1 PUSH2 0x1206 JUMPI PUSH1 0x40 MLOAD PUSH3 0x461BCD PUSH1 0xE5 SHL DUP2 MSTORE PUSH1 0x20 PUSH1 0x4 DUP3 ADD MSTORE PUSH1 0xF PUSH1 0x24 DUP3 ADD MSTORE PUSH15 0x4E6F742063616E63656C6C61626C65 PUSH1 0x88 SHL PUSH1 0x44 DUP3 ADD MSTORE PUSH1 0x64 ADD PUSH1 0x40 MLOAD DUP1 SWAP2 SUB SWAP1 PUSH2 0x1203 PUSH2 0x414A JUMP JUMPDEST POP POP JUMPDEST PUSH2 0x120F DUP7 PUSH2 0x362C JUMP JUMPDEST POP POP POP POP POP POP JUMP JUMPDEST PUSH1 0x15 DUP1 PUSH2 0x10F7 PUSH2 0x41B5 JUMP JUMPDEST PUSH1 0x0 PUSH1 0x1 PUSH2 0x6EE PUSH2 0x41B5 JUMP JUMPDEST PUSH1 0x0 PUSH1 0x1 PUSH1 0x1 PUSH1 0xA0 SHL SUB DUP3 AND DUP2 PUSH1 0x2 PUSH2 0x1245 PUSH2 0x41B5 JUMP JUMPDEST SWAP1 PUSH2 0x100 EXP SWAP1 DIV PUSH1 0x1 PUSH1 0x1 PUSH1 0xA0 SHL SUB AND PUSH1 0x1 PUSH1 0x1 PUSH1 0xA0 SHL SUB AND EQ PUSH2 0x126B JUMPI POP PUSH1 0x0 PUSH2 0x1405 JUMP JUMPDEST PUSH1 0x0 JUMPDEST PUSH1 0x4 DUP1 PUSH2 0x1279 PUSH2 0x41B5 JUMP JUMPDEST SWAP1 POP DUP2 LT ISZERO PUSH2 0x13FF JUMPI PUSH1 0x0 PUSH1 0x4 DUP3 DUP2 PUSH2 0x1290 PUSH2 0x41B5 JUMP JUMPDEST DUP2 LT PUSH2 0x1298 JUMPI INVALID JUMPDEST SWAP1 PUSH1 0x0 MSTORE PUSH1 0x20 PUSH1 0x0 KECCAK256 ADD PUSH2 0x12AA PUSH2 0x41B5 JUMP JUMPDEST PUSH1 0x0 DUP2 DUP2 MSTORE PUSH1 0x3 PUSH1 0x20 MSTORE SWAP1 SWAP2 POP PUSH1 0x40 SWAP1 KECCAK256 PUSH1 0x0 SWAP1 PUSH2 0x12C6 PUSH2 0x41B5 JUMP JUMPDEST PUSH1 0x1 PUSH1 0x1 PUSH1 0xA0 SHL SUB PUSH2 0x100 SWAP3 SWAP1 SWAP3 EXP SWAP1 DIV AND PUSH1 0x0 PUSH1 0x2 PUSH2 0x12E4 PUSH2 0x41B5 JUMP JUMPDEST SWAP1 PUSH2 0x100 EXP SWAP1 DIV PUSH1 0x1 PUSH1 0x1 PUSH1 0xA0 SHL SUB AND PUSH1 0x1 PUSH1 0x1 PUSH1 0xA0 SHL SUB AND PUSH4 0x21F8A721 DUP4 PUSH1 0x40 MLOAD PUSH1 0x1 PUSH1 0x1 PUSH1 0xE0 SHL SUB NOT PUSH1 0xE0 DUP5 SWAP1 SHL AND DUP2 MSTORE PUSH1 0x4 DUP2 ADD SWAP2 SWAP1 SWAP2 MSTORE PUSH1 0x24 ADD PUSH1 0x20 PUSH1 0x40 MLOAD DUP1 DUP4 SUB DUP2 DUP7 DUP1 PUSH2 0x1335 PUSH2 0x425E JUMP JUMPDEST ISZERO DUP1 ISZERO PUSH2 0x134A JUMPI PUSH1 0x0 DUP1 PUSH2 0x1347 PUSH2 0x414A JUMP JUMPDEST POP POP JUMPDEST POP GAS PUSH2 0x1354 PUSH2 0x42AA JUMP JUMPDEST POP POP POP POP POP ISZERO DUP1 ISZERO PUSH2 0x1373 JUMPI RETURNDATASIZE PUSH1 0x0 DUP1 RETURNDATACOPY RETURNDATASIZE PUSH1 0x0 PUSH2 0x1370 PUSH2 0x414A JUMP JUMPDEST POP POP JUMPDEST POP POP POP POP PUSH1 0x40 MLOAD RETURNDATASIZE PUSH1 0x20 DUP2 LT ISZERO PUSH2 0x1392 JUMPI PUSH1 0x0 DUP1 PUSH2 0x138F PUSH2 0x414A JUMP JUMPDEST POP POP JUMPDEST DUP2 ADD SWAP1 DUP1 DUP1 MLOAD PUSH1 0x1 PUSH1 0x1 PUSH1 0xA0 SHL SUB AND SWAP4 SWAP1 SWAP4 EQ ISZERO SWAP3 POP DUP3 SWAP2 POP PUSH2 0x13E6 SWAP1 POP JUMPI POP PUSH1 0x0 DUP2 DUP2 MSTORE PUSH1 0x3 PUSH1 0x20 MSTORE PUSH1 0x40 DUP2 KECCAK256 PUSH1 0x0 SWAP1 PUSH2 0x13CB PUSH2 0x41B5 JUMP JUMPDEST SWAP1 PUSH2 0x100 EXP SWAP1 DIV PUSH1 0x1 PUSH1 0x1 PUSH1 0xA0 SHL SUB AND PUSH1 0x1 PUSH1 0x1 PUSH1 0xA0 SHL SUB AND EQ JUMPDEST ISZERO PUSH2 0x13F6 JUMPI PUSH1 0x0 SWAP3 POP POP POP PUSH2 0x1405 JUMP JUMPDEST POP PUSH1 0x1 ADD PUSH2 0x126E JUMP JUMPDEST POP PUSH1 0x1 SWAP1 POP JUMPDEST SWAP2 SWAP1 POP JUMP JUMPDEST PUSH1 0x0 DUP1 PUSH2 0xD8B DUP4 PUSH2 0x3984 JUMP JUMPDEST PUSH1 0x0 PUSH2 0x7DD PUSH2 0x2DF3 JUMP JUMPDEST PUSH1 0x0 PUSH1 0x1 PUSH2 0x142C PUSH2 0x41B5 JUMP JUMPDEST SWAP1 PUSH2 0x100 EXP SWAP1 DIV PUSH1 0x1 PUSH1 0x1 PUSH1 0xA0 SHL SUB AND PUSH1 0x1 PUSH1 0x1 PUSH1 0xA0 SHL SUB AND GAS PUSH2 0x144E PUSH2 0x441C JUMP JUMPDEST PUSH1 0x1 PUSH1 0x1 PUSH1 0xA0 SHL SUB AND EQ PUSH2 0x149C JUMPI PUSH1 0x40 MLOAD PUSH3 0x461BCD PUSH1 0xE5 SHL DUP2 MSTORE PUSH1 0x4 ADD DUP1 DUP1 PUSH1 0x20 ADD DUP3 DUP2 SUB DUP3 MSTORE PUSH1 0x35 DUP2 MSTORE PUSH1 0x20 ADD DUP1 PUSH2 0x450B PUSH1 0x35 SWAP2 CODECOPY PUSH1 0x40 ADD SWAP2 POP POP PUSH1 0x40 MLOAD DUP1 SWAP2 SUB SWAP1 PUSH2 0x1499 PUSH2 0x414A JUMP JUMPDEST POP POP JUMPDEST PUSH32 0xB532073B38C83145E3E5135377A08BF9AAB55BC0FD7C1179CD4FB995D2A5159C PUSH1 0x0 DUP1 PUSH2 0x14C8 PUSH2 0x41B5 JUMP JUMPDEST SWAP1 PUSH2 0x100 EXP SWAP1 DIV PUSH1 0x1 PUSH1 0x1 PUSH1 0xA0 SHL SUB AND PUSH1 0x1 PUSH1 0x0 SWAP1 PUSH2 0x14E5 PUSH2 0x41B5 JUMP JUMPDEST SWAP1 PUSH2 0x100 EXP SWAP1 DIV PUSH1 0x1 PUSH1 0x1 PUSH1 0xA0 SHL SUB AND PUSH1 0x40 MLOAD PUSH1 0x1 PUSH1 0x1 PUSH1 0xA0 SHL SUB SWAP3 DUP4 AND DUP2 MSTORE SWAP2 AND PUSH1 0x20 DUP3 ADD MSTORE PUSH1 0x40 SWAP1 DUP2 ADD SWAP1 MLOAD DUP1 SWAP2 SUB SWAP1 LOG1 PUSH1 0x0 PUSH1 0x1 PUSH2 0x1524 PUSH2 0x41B5 JUMP JUMPDEST SWAP1 PUSH2 0x100 EXP SWAP1 DIV PUSH1 0x1 PUSH1 0x1 PUSH1 0xA0 SHL SUB AND PUSH1 0x0 DUP1 PUSH2 0x100 EXP DUP2 PUSH2 0x1544 PUSH2 0x41B5 JUMP JUMPDEST DUP2 PUSH1 0x1 PUSH1 0x1 PUSH1 0xA0 SHL SUB MUL NOT AND SWAP1 DUP4 PUSH1 0x1 PUSH1 0x1 PUSH1 0xA0 SHL SUB AND MUL OR SWAP1 PUSH2 0x1566 PUSH2 0x4210 JUMP JUMPDEST POP POP POP PUSH1 0x0 PUSH1 0x1 PUSH1 0x0 PUSH2 0x100 EXP DUP2 PUSH2 0x157C PUSH2 0x41B5 JUMP JUMPDEST DUP2 PUSH1 0x1 PUSH1 0x1 PUSH1 0xA0 SHL SUB MUL NOT AND SWAP1 DUP4 PUSH1 0x1 PUSH1 0x1 PUSH1 0xA0 SHL SUB AND MUL OR SWAP1 PUSH2 0x159E PUSH2 0x4210 JUMP JUMPDEST POP POP POP JUMP JUMPDEST PUSH1 0x0 PUSH1 0x14 PUSH1 0x15 PUSH2 0x15B1 PUSH2 0x41B5 JUMP JUMPDEST SWAP1 PUSH2 0x100 EXP SWAP1 DIV PUSH1 0xFF AND PUSH2 0x16AE JUMPI PUSH2 0x15C7 PUSH2 0x3AB9 JUMP JUMPDEST PUSH1 0x1 PUSH1 0x1 PUSH1 0xA0 SHL SUB AND PUSH4 0x7859F410 GAS PUSH4 0x996D79A5 MSIZE DUP2 PUSH1 0xE0 SHL DUP2 MSTORE PUSH1 0x20 DUP2 PUSH1 0x4 DUP4 CALLER PUSH1 0x0 SWAP1 GAS CALL PC PUSH1 0xE ADD JUMPI RETURNDATASIZE PUSH1 0x0 DUP1 RETURNDATACOPY RETURNDATASIZE PUSH1 0x0 REVERT JUMPDEST RETURNDATASIZE PUSH1 0x1 EQ ISZERO PC PUSH1 0xA ADD JUMPI PUSH1 0x1 PUSH1 0x0 RETURN JUMPDEST DUP1 MLOAD SWAP3 POP PUSH1 0x0 JUMPDEST PUSH1 0x40 DUP2 LT ISZERO PUSH2 0x162B JUMPI PUSH1 0x0 DUP3 DUP3 ADD MSTORE PUSH1 0x20 ADD PUSH2 0x1614 JUMP JUMPDEST POP POP POP PUSH1 0x40 MLOAD PUSH1 0x1 PUSH1 0x1 PUSH1 0xE0 SHL SUB NOT PUSH1 0xE0 DUP5 SWAP1 SHL AND DUP2 MSTORE PUSH1 0x1 PUSH1 0x1 PUSH1 0xA0 SHL SUB SWAP1 SWAP2 AND PUSH1 0x4 DUP3 ADD MSTORE PUSH1 0x24 ADD PUSH1 0x0 PUSH1 0x40 MLOAD DUP1 DUP4 SUB DUP2 PUSH1 0x0 DUP8 DUP1 PUSH2 0x166A PUSH2 0x425E JUMP JUMPDEST ISZERO DUP1 ISZERO PUSH2 0x167F JUMPI PUSH1 0x0 DUP1 PUSH2 0x167C PUSH2 0x414A JUMP JUMPDEST POP POP JUMPDEST POP GAS PUSH2 0x1689 PUSH2 0x4363 JUMP JUMPDEST POP POP POP POP POP POP ISZERO DUP1 ISZERO PUSH2 0x16A9 JUMPI RETURNDATASIZE PUSH1 0x0 DUP1 RETURNDATACOPY RETURNDATASIZE PUSH1 0x0 PUSH2 0x16A6 PUSH2 0x414A JUMP JUMPDEST POP POP JUMPDEST POP POP POP POP JUMPDEST PUSH1 0x0 DUP1 PUSH2 0x16C2 GAS PUSH2 0x16BD PUSH2 0x441C JUMP JUMPDEST PUSH2 0x33D9 JUMP JUMPDEST SWAP2 POP SWAP2 POP DUP2 PUSH1 0x0 EQ ISZERO DUP1 PUSH2 0x16D5 JUMPI POP DUP1 ISZERO ISZERO JUMPDEST ISZERO PUSH2 0x16E5 JUMPI PUSH2 0x16E2 PUSH2 0x2FF4 JUMP JUMPDEST POP POP JUMPDEST PUSH1 0x0 DUP1 PUSH2 0x16F9 GAS PUSH2 0x16F4 PUSH2 0x441C JUMP JUMPDEST PUSH2 0x3984 JUMP JUMPDEST SWAP2 POP SWAP2 POP DUP2 PUSH1 0x0 EQ ISZERO DUP1 PUSH2 0x170C JUMPI POP DUP1 ISZERO ISZERO JUMPDEST PUSH2 0x175B JUMPI PUSH1 0x40 MLOAD PUSH3 0x461BCD PUSH1 0xE5 SHL DUP2 MSTORE PUSH1 0x20 PUSH1 0x4 DUP3 ADD MSTORE PUSH1 0x13 PUSH1 0x24 DUP3 ADD MSTORE PUSH19 0x4E6F7468696E6720746F206578657263697365 PUSH1 0x68 SHL PUSH1 0x44 DUP3 ADD MSTORE PUSH1 0x64 ADD PUSH1 0x40 MLOAD DUP1 SWAP2 SUB SWAP1 PUSH2 0x1758 PUSH2 0x414A JUMP JUMPDEST POP POP JUMPDEST DUP2 ISZERO PUSH2 0x1814 JUMPI PUSH1 0x0 PUSH1 0x5 PUSH2 0x176D PUSH2 0x41B5 JUMP JUMPDEST SWAP1 PUSH2 0x100 EXP SWAP1 DIV PUSH1 0x1 PUSH1 0x1 PUSH1 0xA0 SHL SUB AND PUSH1 0x1 PUSH1 0x1 PUSH1 0xA0 SHL SUB AND PUSH4 0x1B15982A GAS PUSH2 0x1794 PUSH2 0x441C JUMP JUMPDEST PUSH1 0x40 MLOAD PUSH1 0x1 PUSH1 0x1 PUSH1 0xE0 SHL SUB NOT PUSH1 0xE0 DUP5 SWAP1 SHL AND DUP2 MSTORE PUSH1 0x1 PUSH1 0x1 PUSH1 0xA0 SHL SUB SWAP1 SWAP2 AND PUSH1 0x4 DUP3 ADD MSTORE PUSH1 0x24 ADD PUSH1 0x0 PUSH1 0x40 MLOAD DUP1 DUP4 SUB DUP2 PUSH1 0x0 DUP8 DUP1 PUSH2 0x17D0 PUSH2 0x425E JUMP JUMPDEST ISZERO DUP1 ISZERO PUSH2 0x17E5 JUMPI PUSH1 0x0 DUP1 PUSH2 0x17E2 PUSH2 0x414A JUMP JUMPDEST POP POP JUMPDEST POP GAS PUSH2 0x17EF PUSH2 0x4363 JUMP JUMPDEST POP POP POP POP POP POP ISZERO DUP1 ISZERO PUSH2 0x180F JUMPI RETURNDATASIZE PUSH1 0x0 DUP1 RETURNDATACOPY RETURNDATASIZE PUSH1 0x0 PUSH2 0x180C PUSH2 0x414A JUMP JUMPDEST POP POP JUMPDEST POP POP POP POP JUMPDEST DUP1 ISZERO PUSH2 0x18CD JUMPI PUSH1 0x0 PUSH1 0x6 PUSH2 0x1826 PUSH2 0x41B5 JUMP JUMPDEST SWAP1 PUSH2 0x100 EXP SWAP1 DIV PUSH1 0x1 PUSH1 0x1 PUSH1 0xA0 SHL SUB AND PUSH1 0x1 PUSH1 0x1 PUSH1 0xA0 SHL SUB AND PUSH4 0x1B15982A GAS PUSH2 0x184D PUSH2 0x441C JUMP JUMPDEST PUSH1 0x40 MLOAD PUSH1 0x1 PUSH1 0x1 PUSH1 0xE0 SHL SUB NOT PUSH1 0xE0 DUP5 SWAP1 SHL AND DUP2 MSTORE PUSH1 0x1 PUSH1 0x1 PUSH1 0xA0 SHL SUB SWAP1 SWAP2 AND PUSH1 0x4 DUP3 ADD MSTORE PUSH1 0x24 ADD PUSH1 0x0 PUSH1 0x40 MLOAD DUP1 DUP4 SUB DUP2 PUSH1 0x0 DUP8 DUP1 PUSH2 0x1889 PUSH2 0x425E JUMP JUMPDEST ISZERO DUP1 ISZERO PUSH2 0x189E JUMPI PUSH1 0x0 DUP1 PUSH2 0x189B PUSH2 0x414A JUMP JUMPDEST POP POP JUMPDEST POP GAS PUSH2 0x18A8 PUSH2 0x4363 JUMP JUMPDEST POP POP POP POP POP POP ISZERO DUP1 ISZERO PUSH2 0x18C8 JUMPI RETURNDATASIZE PUSH1 0x0 DUP1 RETURNDATACOPY RETURNDATASIZE PUSH1 0x0 PUSH2 0x18C5 PUSH2 0x414A JUMP JUMPDEST POP POP JUMPDEST POP POP POP POP JUMPDEST PUSH1 0x0 PUSH2 0x18E1 PUSH2 0x18DA PUSH2 0x2DF3 JUMP JUMPDEST DUP5 DUP5 PUSH2 0x3ADA JUMP JUMPDEST SWAP1 POP GAS PUSH2 0x18EC PUSH2 0x441C JUMP JUMPDEST PUSH1 0x1 PUSH1 0x1 PUSH1 0xA0 SHL SUB AND PUSH32 0xD82B6F69D7477FB41CD83D936DE94990CEE2FA1A309FEEEE90101FC0513B6A43 DUP3 PUSH1 0x40 MLOAD SWAP1 DUP2 MSTORE PUSH1 0x20 ADD PUSH1 0x40 MLOAD DUP1 SWAP2 SUB SWAP1 LOG2 DUP1 ISZERO PUSH2 0x1A02 JUMPI PUSH2 0x1937 DUP2 PUSH2 0x2D04 JUMP JUMPDEST POP PUSH2 0x1940 PUSH2 0x2C41 JUMP JUMPDEST PUSH1 0x1 PUSH1 0x1 PUSH1 0xA0 SHL SUB AND PUSH4 0xA9059CBB GAS PUSH2 0x1957 PUSH2 0x441C JUMP JUMPDEST DUP4 PUSH1 0x40 MLOAD PUSH1 0x1 PUSH1 0x1 PUSH1 0xE0 SHL SUB NOT PUSH1 0xE0 DUP6 SWAP1 SHL AND DUP2 MSTORE PUSH1 0x1 PUSH1 0x1 PUSH1 0xA0 SHL SUB SWAP1 SWAP3 AND PUSH1 0x4 DUP4 ADD MSTORE PUSH1 0x24 DUP3 ADD MSTORE PUSH1 0x44 ADD PUSH1 0x20 PUSH1 0x40 MLOAD DUP1 DUP4 SUB DUP2 PUSH1 0x0 DUP8 DUP1 PUSH2 0x1999 PUSH2 0x425E JUMP JUMPDEST ISZERO DUP1 ISZERO PUSH2 0x19AE JUMPI PUSH1 0x0 DUP1 PUSH2 0x19AB PUSH2 0x414A JUMP JUMPDEST POP POP JUMPDEST POP GAS PUSH2 0x19B8 PUSH2 0x4363 JUMP JUMPDEST POP POP POP POP POP POP ISZERO DUP1 ISZERO PUSH2 0x19D8 JUMPI RETURNDATASIZE PUSH1 0x0 DUP1 RETURNDATACOPY RETURNDATASIZE PUSH1 0x0 PUSH2 0x19D5 PUSH2 0x414A JUMP JUMPDEST POP POP JUMPDEST POP POP POP POP PUSH1 0x40 MLOAD RETURNDATASIZE PUSH1 0x20 DUP2 LT ISZERO PUSH2 0x19F7 JUMPI PUSH1 0x0 DUP1 PUSH2 0x19F4 PUSH2 0x414A JUMP JUMPDEST POP POP JUMPDEST DUP2 ADD SWAP1 DUP1 DUP1 MLOAD POP POP POP POP JUMPDEST SWAP5 POP POP POP POP POP SWAP1 JUMP JUMPDEST PUSH1 0x0 DUP1 PUSH2 0x10E3 PUSH2 0x3523 JUMP JUMPDEST PUSH1 0x0 DUP1 PUSH2 0x6EE PUSH2 0x41B5 JUMP JUMPDEST PUSH1 0xC DUP1 PUSH2 0x1A2C PUSH2 0x41B5 JUMP JUMPDEST SWAP1 DUP1 PUSH1 0x1 ADD PUSH2 0x1A39 PUSH2 0x41B5 JUMP JUMPDEST SWAP1 DUP1 PUSH1 0x2 ADD PUSH2 0x1A46 PUSH2 0x41B5 JUMP JUMPDEST SWAP1 POP DUP4 JUMP JUMPDEST PUSH1 0xF DUP1 PUSH2 0x1A2C PUSH2 0x41B5 JUMP JUMPDEST PUSH1 0x9 DUP1 PUSH2 0x1A2C PUSH2 0x41B5 JUMP JUMPDEST PUSH2 0x1A69 PUSH2 0x4462 JUMP JUMPDEST PUSH1 0x0 JUMPDEST PUSH1 0x4 DUP1 PUSH2 0x1A77 PUSH2 0x41B5 JUMP JUMPDEST SWAP1 POP DUP2 LT ISZERO PUSH2 0x1ABF JUMPI PUSH1 0x4 DUP2 DUP2 PUSH2 0x1A8C PUSH2 0x41B5 JUMP JUMPDEST DUP2 LT PUSH2 0x1A94 JUMPI INVALID JUMPDEST SWAP1 PUSH1 0x0 MSTORE PUSH1 0x20 PUSH1 0x0 KECCAK256 ADD PUSH2 0x1AA6 PUSH2 0x41B5 JUMP JUMPDEST DUP3 DUP3 PUSH1 0x18 DUP2 LT PUSH2 0x1AB2 JUMPI INVALID JUMPDEST PUSH1 0x20 MUL ADD MSTORE PUSH1 0x1 ADD PUSH2 0x1A6C JUMP JUMPDEST POP SWAP1 JUMP JUMPDEST PUSH1 0x0 DUP1 PUSH2 0x1ACE PUSH2 0x2A94 JUMP JUMPDEST SWAP2 POP POP PUSH1 0x15 PUSH1 0x14 SWAP1 PUSH2 0x1ADE PUSH2 0x41B5 JUMP JUMPDEST SWAP1 PUSH2 0x100 EXP SWAP1 DIV PUSH1 0xFF AND ISZERO DUP1 ISZERO PUSH2 0x1AF8 JUMPI POP PUSH2 0x1AF8 PUSH2 0x2A79 JUMP JUMPDEST DUP1 ISZERO PUSH2 0x1B08 JUMPI POP PUSH2 0x1B08 DUP2 PUSH2 0x2B60 JUMP JUMPDEST SWAP2 POP POP SWAP1 JUMP JUMPDEST PUSH1 0x0 PUSH2 0x1B18 PUSH2 0x350E JUMP JUMPDEST PUSH2 0x1B24 JUMPI POP PUSH1 0x0 PUSH2 0x7E0 JUMP JUMPDEST PUSH2 0x1B2C PUSH2 0x2A79 JUMP JUMPDEST PUSH2 0x1B38 JUMPI POP PUSH1 0x1 PUSH2 0x7E0 JUMP JUMPDEST PUSH2 0x1B40 PUSH2 0x3AFD JUMP JUMPDEST PUSH2 0x1B4C JUMPI POP PUSH1 0x2 PUSH2 0x7E0 JUMP JUMPDEST POP PUSH1 0x3 SWAP1 JUMP JUMPDEST PUSH1 0x0 PUSH2 0x1B5C PUSH2 0x350E JUMP JUMPDEST ISZERO PUSH2 0x1BA9 JUMPI PUSH1 0x40 MLOAD PUSH3 0x461BCD PUSH1 0xE5 SHL DUP2 MSTORE PUSH1 0x20 PUSH1 0x4 DUP3 ADD MSTORE PUSH1 0x10 PUSH1 0x24 DUP3 ADD MSTORE PUSH16 0x42696464696E6720696E616374697665 PUSH1 0x80 SHL PUSH1 0x44 DUP3 ADD MSTORE PUSH1 0x64 ADD PUSH1 0x40 MLOAD DUP1 SWAP2 SUB SWAP1 PUSH2 0x1BA6 PUSH2 0x414A JUMP JUMPDEST POP POP JUMPDEST PUSH1 0x15 DUP1 PUSH2 0x1BB4 PUSH2 0x41B5 JUMP JUMPDEST SWAP1 PUSH2 0x100 EXP SWAP1 DIV PUSH1 0xFF AND PUSH2 0x1C0A JUMPI PUSH1 0x40 MLOAD PUSH3 0x461BCD PUSH1 0xE5 SHL DUP2 MSTORE PUSH1 0x20 PUSH1 0x4 DUP3 ADD MSTORE PUSH1 0x10 PUSH1 0x24 DUP3 ADD MSTORE PUSH16 0x1499599D5B991CC8191A5CD8589B1959 PUSH1 0x82 SHL PUSH1 0x44 DUP3 ADD MSTORE PUSH1 0x64 ADD PUSH1 0x40 MLOAD DUP1 SWAP2 SUB SWAP1 PUSH2 0x1C07 PUSH2 0x414A JUMP JUMPDEST POP POP JUMPDEST DUP2 PUSH2 0x1C17 JUMPI POP PUSH1 0x0 PUSH2 0x1F76 JUMP JUMPDEST PUSH1 0x0 PUSH1 0x15 PUSH2 0x1C23 PUSH2 0x41B5 JUMP JUMPDEST SWAP1 PUSH2 0x100 EXP SWAP1 DIV PUSH1 0x1 PUSH1 0x1 PUSH1 0xA0 SHL SUB AND PUSH1 0x1 PUSH1 0x1 PUSH1 0xA0 SHL SUB AND GAS PUSH2 0x1C45 PUSH2 0x441C JUMP JUMPDEST PUSH1 0x1 PUSH1 0x1 PUSH1 0xA0 SHL SUB AND EQ ISZERO PUSH2 0x1C9F JUMPI PUSH1 0x0 DUP1 PUSH2 0x1C68 GAS PUSH2 0x1C63 PUSH2 0x441C JUMP JUMPDEST PUSH2 0x2E4E JUMP JUMPDEST SWAP1 SWAP3 POP SWAP1 POP PUSH1 0x1 DUP6 PUSH1 0x1 DUP2 GT ISZERO PUSH2 0x1C7B JUMPI INVALID JUMPDEST EQ ISZERO PUSH2 0x1C83 JUMPI SWAP1 JUMPDEST PUSH2 0x1C9C PUSH2 0x1C96 DUP4 DUP7 PUSH4 0xFFFFFFFF PUSH2 0x3B46 AND JUMP JUMPDEST DUP3 PUSH2 0x3BAB JUMP JUMPDEST POP POP JUMPDEST PUSH2 0x1D62 PUSH2 0xA7E PUSH1 0x11 PUSH2 0x1CAF PUSH2 0x41B5 JUMP JUMPDEST PUSH20 0x0 PUSH4 0x907AF6C0 PUSH1 0x40 MLOAD DUP2 PUSH4 0xFFFFFFFF AND PUSH1 0xE0 SHL DUP2 MSTORE PUSH1 0x4 ADD PUSH1 0x20 PUSH1 0x40 MLOAD DUP1 DUP4 SUB DUP2 DUP7 DUP1 PUSH2 0x1CEE PUSH2 0x425E JUMP JUMPDEST ISZERO DUP1 ISZERO PUSH2 0x1D03 JUMPI PUSH1 0x0 DUP1 PUSH2 0x1D00 PUSH2 0x414A JUMP JUMPDEST POP POP JUMPDEST POP GAS PUSH2 0x1D0D PUSH2 0x447F JUMP JUMPDEST POP POP POP POP POP ISZERO DUP1 ISZERO PUSH2 0x1D2C JUMPI RETURNDATASIZE PUSH1 0x0 DUP1 RETURNDATACOPY RETURNDATASIZE PUSH1 0x0 PUSH2 0x1D29 PUSH2 0x414A JUMP JUMPDEST POP POP JUMPDEST POP POP POP POP PUSH1 0x40 MLOAD RETURNDATASIZE PUSH1 0x20 DUP2 LT ISZERO PUSH2 0x1D4B JUMPI PUSH1 0x0 DUP1 PUSH2 0x1D48 PUSH2 0x414A JUMP JUMPDEST POP POP JUMPDEST DUP2 ADD SWAP1 DUP1 DUP1 MLOAD SWAP4 SWAP3 POP POP PUSH4 0xFFFFFFFF PUSH2 0x3B46 AND SWAP1 POP JUMP JUMPDEST SWAP1 POP PUSH2 0x1D6D DUP4 PUSH2 0x3CA6 JUMP JUMPDEST PUSH1 0x1 PUSH1 0x1 PUSH1 0xA0 SHL SUB AND PUSH4 0x410085DF GAS PUSH2 0x1D84 PUSH2 0x441C JUMP JUMPDEST DUP5 PUSH1 0x40 MLOAD PUSH1 0x1 PUSH1 0x1 PUSH1 0xE0 SHL SUB NOT PUSH1 0xE0 DUP6 SWAP1 SHL AND DUP2 MSTORE PUSH1 0x1 PUSH1 0x1 PUSH1 0xA0 SHL SUB SWAP1 SWAP3 AND PUSH1 0x4 DUP4 ADD MSTORE PUSH1 0x24 DUP3 ADD MSTORE PUSH1 0x44 ADD PUSH1 0x0 PUSH1 0x40 MLOAD DUP1 DUP4 SUB DUP2 PUSH1 0x0 DUP8 DUP1 PUSH2 0x1DC6 PUSH2 0x425E JUMP JUMPDEST ISZERO DUP1 ISZERO PUSH2 0x1DDB JUMPI PUSH1 0x0 DUP1 PUSH2 0x1DD8 PUSH2 0x414A JUMP JUMPDEST POP POP JUMPDEST POP GAS PUSH2 0x1DE5 PUSH2 0x4363 JUMP JUMPDEST POP POP POP POP POP POP ISZERO DUP1 ISZERO PUSH2 0x1E05 JUMPI RETURNDATASIZE PUSH1 0x0 DUP1 RETURNDATACOPY RETURNDATASIZE PUSH1 0x0 PUSH2 0x1E02 PUSH2 0x414A JUMP JUMPDEST POP POP JUMPDEST POP POP POP POP GAS PUSH2 0x1E12 PUSH2 0x441C JUMP JUMPDEST PUSH1 0x1 PUSH1 0x1 PUSH1 0xA0 SHL SUB AND PUSH32 0x9BD0A8CA6625E01A9CEE5E86EEC7813A8234B41F1CA0C9F15A008D1E1D00EE5F DUP5 DUP4 PUSH2 0x1E4E DUP7 DUP3 PUSH4 0xFFFFFFFF PUSH2 0x3B46 AND JUMP JUMPDEST PUSH1 0x40 MLOAD DUP1 DUP5 PUSH1 0x1 DUP2 GT ISZERO PUSH2 0x1E5E JUMPI INVALID JUMPDEST PUSH1 0xFF AND DUP2 MSTORE PUSH1 0x20 ADD DUP4 DUP2 MSTORE PUSH1 0x20 ADD DUP3 DUP2 MSTORE PUSH1 0x20 ADD SWAP4 POP POP POP POP PUSH1 0x40 MLOAD DUP1 SWAP2 SUB SWAP1 LOG2 PUSH1 0x0 PUSH2 0x1E8A DUP3 PUSH2 0x2D04 JUMP JUMPDEST SWAP1 POP PUSH2 0x1E94 PUSH2 0x2C41 JUMP JUMPDEST PUSH1 0x1 PUSH1 0x1 PUSH1 0xA0 SHL SUB AND PUSH4 0xA9059CBB GAS PUSH2 0x1EAB PUSH2 0x441C JUMP JUMPDEST DUP5 PUSH1 0x40 MLOAD PUSH1 0x1 PUSH1 0x1 PUSH1 0xE0 SHL SUB NOT PUSH1 0xE0 DUP6 SWAP1 SHL AND DUP2 MSTORE PUSH1 0x1 PUSH1 0x1 PUSH1 0xA0 SHL SUB SWAP1 SWAP3 AND PUSH1 0x4 DUP4 ADD MSTORE PUSH1 0x24 DUP3 ADD MSTORE PUSH1 0x44 ADD PUSH1 0x20 PUSH1 0x40 MLOAD DUP1 DUP4 SUB DUP2 PUSH1 0x0 DUP8 DUP1 PUSH2 0x1EED PUSH2 0x425E JUMP JUMPDEST ISZERO DUP1 ISZERO PUSH2 0x1F02 JUMPI PUSH1 0x0 DUP1 PUSH2 0x1EFF PUSH2 0x414A JUMP JUMPDEST POP POP JUMPDEST POP GAS PUSH2 0x1F0C PUSH2 0x4363 JUMP JUMPDEST POP POP POP POP POP POP ISZERO DUP1 ISZERO PUSH2 0x1F2C JUMPI RETURNDATASIZE PUSH1 0x0 DUP1 RETURNDATACOPY RETURNDATASIZE PUSH1 0x0 PUSH2 0x1F29 PUSH2 0x414A JUMP JUMPDEST POP POP JUMPDEST POP POP POP POP PUSH1 0x40 MLOAD RETURNDATASIZE PUSH1 0x20 DUP2 LT ISZERO PUSH2 0x1F4B JUMPI PUSH1 0x0 DUP1 PUSH2 0x1F48 PUSH2 0x414A JUMP JUMPDEST POP POP JUMPDEST DUP2 ADD SWAP1 DUP1 DUP1 MLOAD POP PUSH1 0x0 SWAP3 POP DUP3 SWAP2 POP PUSH2 0x1F63 SWAP1 POP PUSH2 0x3523 JUMP JUMPDEST SWAP2 POP SWAP2 POP PUSH2 0x1F72 DUP3 DUP3 DUP6 PUSH2 0x3D01 JUMP JUMPDEST POP POP POP JUMPDEST SWAP3 SWAP2 POP POP JUMP JUMPDEST PUSH1 0x12 DUP1 PUSH2 0x1F87 PUSH2 0x41B5 JUMP JUMPDEST SWAP1 DUP1 PUSH1 0x1 ADD PUSH2 0x1F94 PUSH2 0x41B5 JUMP JUMPDEST SWAP1 POP DUP3 JUMP JUMPDEST PUSH1 0x0 DUP1 PUSH1 0x14 PUSH1 0x15 PUSH2 0x1FA8 PUSH2 0x41B5 JUMP JUMPDEST SWAP1 PUSH2 0x100 EXP SWAP1 DIV PUSH1 0xFF AND ISZERO DUP1 PUSH2 0x1FE6 JUMPI POP GAS PUSH2 0x1FC2 PUSH2 0x441C JUMP JUMPDEST PUSH1 0x1 PUSH1 0x1 PUSH1 0xA0 SHL SUB AND PUSH2 0x1FDB PUSH2 0x1FD6 PUSH2 0x2DF3 JUMP JUMPDEST PUSH2 0x3CA6 JUMP JUMPDEST PUSH1 0x1 PUSH1 0x1 PUSH1 0xA0 SHL SUB AND EQ JUMPDEST ISZERO PUSH2 0x1FFB JUMPI PUSH2 0x1FF8 PUSH1 0x14 PUSH2 0x7D8 PUSH2 0x41B5 JUMP JUMPDEST SWAP1 POP JUMPDEST PUSH1 0x0 PUSH1 0x5 PUSH2 0x2007 PUSH2 0x41B5 JUMP JUMPDEST SWAP1 PUSH2 0x100 EXP SWAP1 DIV PUSH1 0x1 PUSH1 0x1 PUSH1 0xA0 SHL SUB AND PUSH1 0x1 PUSH1 0x1 PUSH1 0xA0 SHL SUB AND GAS PUSH2 0x2029 PUSH2 0x441C JUMP JUMPDEST PUSH1 0x1 PUSH1 0x1 PUSH1 0xA0 SHL SUB AND EQ ISZERO PUSH2 0x2049 JUMPI PUSH1 0x7 PUSH2 0x2042 PUSH2 0x41B5 JUMP JUMPDEST SWAP2 POP PUSH2 0x10D4 JUMP JUMPDEST PUSH1 0x0 PUSH1 0x6 PUSH2 0x2055 PUSH2 0x41B5 JUMP JUMPDEST SWAP1 PUSH2 0x100 EXP SWAP1 DIV PUSH1 0x1 PUSH1 0x1 PUSH1 0xA0 SHL SUB AND PUSH1 0x1 PUSH1 0x1 PUSH1 0xA0 SHL SUB AND GAS PUSH2 0x2077 PUSH2 0x441C JUMP JUMPDEST PUSH1 0x1 PUSH1 0x1 PUSH1 0xA0 SHL SUB AND EQ ISZERO PUSH2 0x2090 JUMPI PUSH1 0x8 PUSH2 0x2042 PUSH2 0x41B5 JUMP JUMPDEST PUSH1 0x40 MLOAD PUSH3 0x461BCD PUSH1 0xE5 SHL DUP2 MSTORE PUSH1 0x20 PUSH1 0x4 DUP3 ADD MSTORE PUSH1 0x17 PUSH1 0x24 DUP3 ADD MSTORE PUSH32 0x53656E646572206973206E6F7420616E206F7074696F6E000000000000000000 PUSH1 0x44 DUP3 ADD MSTORE PUSH1 0x64 ADD PUSH1 0x40 MLOAD DUP1 SWAP2 SUB SWAP1 PUSH2 0x20E2 PUSH2 0x414A JUMP JUMPDEST POP POP SWAP1 SWAP2 JUMP JUMPDEST PUSH1 0x4 DUP2 DUP2 PUSH2 0x20F4 PUSH2 0x41B5 JUMP JUMPDEST DUP2 LT PUSH2 0x20FC JUMPI INVALID JUMPDEST SWAP1 PUSH1 0x0 MSTORE PUSH1 0x20 PUSH1 0x0 KECCAK256 ADD SWAP1 POP PUSH2 0x2110 PUSH2 0x41B5 JUMP JUMPDEST DUP2 JUMP JUMPDEST PUSH1 0x0 DUP1 PUSH2 0x10E3 PUSH2 0x2A94 JUMP JUMPDEST PUSH2 0x2126 PUSH2 0x28A9 JUMP JUMPDEST PUSH2 0x212E PUSH2 0x3AFD JUMP JUMPDEST PUSH2 0x2187 JUMPI PUSH1 0x40 MLOAD PUSH3 0x461BCD PUSH1 0xE5 SHL DUP2 MSTORE PUSH1 0x20 PUSH1 0x4 DUP3 ADD MSTORE PUSH1 0x1B PUSH1 0x24 DUP3 ADD MSTORE PUSH32 0x556E65787069726564206F7074696F6E732072656D61696E696E670000000000 PUSH1 0x44 DUP3 ADD MSTORE PUSH1 0x64 ADD PUSH1 0x40 MLOAD DUP1 SWAP2 SUB SWAP1 PUSH2 0x2184 PUSH2 0x414A JUMP JUMPDEST POP POP JUMPDEST PUSH2 0x2190 DUP2 PUSH2 0x362C JUMP JUMPDEST POP JUMP JUMPDEST PUSH1 0x0 DUP1 DUP1 PUSH1 0x5 PUSH2 0x21A1 PUSH2 0x41B5 JUMP JUMPDEST SWAP1 PUSH2 0x100 EXP SWAP1 DIV PUSH1 0x1 PUSH1 0x1 PUSH1 0xA0 SHL SUB AND PUSH1 0x1 PUSH1 0x1 PUSH1 0xA0 SHL SUB AND PUSH4 0x18160DDD PUSH1 0x40 MLOAD DUP2 PUSH4 0xFFFFFFFF AND PUSH1 0xE0 SHL DUP2 MSTORE PUSH1 0x4 ADD PUSH1 0x20 PUSH1 0x40 MLOAD DUP1 DUP4 SUB DUP2 DUP7 DUP1 PUSH2 0x21E4 PUSH2 0x425E JUMP JUMPDEST ISZERO DUP1 ISZERO PUSH2 0x21F9 JUMPI PUSH1 0x0 DUP1 PUSH2 0x21F6 PUSH2 0x414A JUMP JUMPDEST POP POP JUMPDEST POP GAS PUSH2 0x2203 PUSH2 0x42AA JUMP JUMPDEST POP POP POP POP POP ISZERO DUP1 ISZERO PUSH2 0x2222 JUMPI RETURNDATASIZE PUSH1 0x0 DUP1 RETURNDATACOPY RETURNDATASIZE PUSH1 0x0 PUSH2 0x221F PUSH2 0x414A JUMP JUMPDEST POP POP JUMPDEST POP POP POP POP PUSH1 0x40 MLOAD RETURNDATASIZE PUSH1 0x20 DUP2 LT ISZERO PUSH2 0x2241 JUMPI PUSH1 0x0 DUP1 PUSH2 0x223E PUSH2 0x414A JUMP JUMPDEST POP POP JUMPDEST DUP2 ADD SWAP1 DUP1 DUP1 MLOAD SWAP3 POP PUSH1 0x0 SWAP2 POP PUSH1 0x6 SWAP1 POP PUSH2 0x2259 PUSH2 0x41B5 JUMP JUMPDEST SWAP1 PUSH2 0x100 EXP SWAP1 DIV PUSH1 0x1 PUSH1 0x1 PUSH1 0xA0 SHL SUB AND PUSH1 0x1 PUSH1 0x1 PUSH1 0xA0 SHL SUB AND PUSH4 0x18160DDD PUSH1 0x40 MLOAD DUP2 PUSH4 0xFFFFFFFF AND PUSH1 0xE0 SHL DUP2 MSTORE PUSH1 0x4 ADD PUSH1 0x20 PUSH1 0x40 MLOAD DUP1 DUP4 SUB DUP2 DUP7 DUP1 PUSH2 0x1067 PUSH2 0x425E JUMP JUMPDEST PUSH1 0x7 DUP1 PUSH2 0x1F87 PUSH2 0x41B5 JUMP JUMPDEST PUSH2 0x22AF PUSH2 0x350E JUMP JUMPDEST ISZERO PUSH2 0x22FC JUMPI PUSH1 0x40 MLOAD PUSH3 0x461BCD PUSH1 0xE5 SHL DUP2 MSTORE PUSH1 0x20 PUSH1 0x4 DUP3 ADD MSTORE PUSH1 0x10 PUSH1 0x24 DUP3 ADD MSTORE PUSH16 0x42696464696E6720696E616374697665 PUSH1 0x80 SHL PUSH1 0x44 DUP3 ADD MSTORE PUSH1 0x64 ADD PUSH1 0x40 MLOAD DUP1 SWAP2 SUB SWAP1 PUSH2 0x22F9 PUSH2 0x414A JUMP JUMPDEST POP POP JUMPDEST DUP1 PUSH2 0x2306 JUMPI PUSH2 0xF5A JUMP JUMPDEST PUSH2 0x230F DUP3 PUSH2 0x3CA6 JUMP JUMPDEST PUSH1 0x1 PUSH1 0x1 PUSH1 0xA0 SHL SUB AND PUSH4 0x59D667A5 GAS PUSH2 0x2326 PUSH2 0x441C JUMP JUMPDEST DUP4 PUSH1 0x40 MLOAD PUSH1 0x1 PUSH1 0x1 PUSH1 0xE0 SHL SUB NOT PUSH1 0xE0 DUP6 SWAP1 SHL AND DUP2 MSTORE PUSH1 0x1 PUSH1 0x1 PUSH1 0xA0 SHL SUB SWAP1 SWAP3 AND PUSH1 0x4 DUP4 ADD MSTORE PUSH1 0x24 DUP3 ADD MSTORE PUSH1 0x44 ADD PUSH1 0x0 PUSH1 0x40 MLOAD DUP1 DUP4 SUB DUP2 PUSH1 0x0 DUP8 DUP1 PUSH2 0x2368 PUSH2 0x425E JUMP JUMPDEST ISZERO DUP1 ISZERO PUSH2 0x237D JUMPI PUSH1 0x0 DUP1 PUSH2 0x237A PUSH2 0x414A JUMP JUMPDEST POP POP JUMPDEST POP GAS PUSH2 0x2387 PUSH2 0x4363 JUMP JUMPDEST POP POP POP POP POP POP ISZERO DUP1 ISZERO PUSH2 0x23A7 JUMPI RETURNDATASIZE PUSH1 0x0 DUP1 RETURNDATACOPY RETURNDATASIZE PUSH1 0x0 PUSH2 0x23A4 PUSH2 0x414A JUMP JUMPDEST POP POP JUMPDEST POP POP POP POP GAS PUSH2 0x23B4 PUSH2 0x441C JUMP JUMPDEST PUSH1 0x1 PUSH1 0x1 PUSH1 0xA0 SHL SUB AND PUSH32 0x70BD4A33BF447720D717D08F3AFFB5AECFE4D2EBB8E3DD94539F5313E2447643 DUP4 DUP4 PUSH1 0x40 MLOAD DUP1 DUP4 PUSH1 0x1 DUP2 GT ISZERO PUSH2 0x23F0 JUMPI INVALID JUMPDEST PUSH1 0xFF AND DUP2 MSTORE PUSH1 0x20 ADD DUP3 DUP2 MSTORE PUSH1 0x20 ADD SWAP3 POP POP POP PUSH1 0x40 MLOAD DUP1 SWAP2 SUB SWAP1 LOG2 PUSH1 0x0 PUSH2 0x2415 DUP3 PUSH2 0x3D8D JUMP JUMPDEST SWAP1 POP PUSH2 0x241F PUSH2 0x2C41 JUMP JUMPDEST PUSH1 0x1 PUSH1 0x1 PUSH1 0xA0 SHL SUB AND PUSH4 0x23B872DD GAS PUSH2 0x2436 PUSH2 0x441C JUMP JUMPDEST GAS PUSH4 0x996D79A5 MSIZE DUP2 PUSH1 0xE0 SHL DUP2 MSTORE PUSH1 0x20 DUP2 PUSH1 0x4 DUP4 CALLER PUSH1 0x0 SWAP1 GAS CALL PC PUSH1 0xE ADD JUMPI RETURNDATASIZE PUSH1 0x0 DUP1 RETURNDATACOPY RETURNDATASIZE PUSH1 0x0 REVERT JUMPDEST RETURNDATASIZE PUSH1 0x1 EQ ISZERO PC PUSH1 0xA ADD JUMPI PUSH1 0x1 PUSH1 0x0 RETURN JUMPDEST DUP1 MLOAD SWAP3 POP PUSH1 0x0 JUMPDEST PUSH1 0x40 DUP2 LT ISZERO PUSH2 0x248C JUMPI PUSH1 0x0 DUP3 DUP3 ADD MSTORE PUSH1 0x20 ADD PUSH2 0x2475 JUMP JUMPDEST POP POP POP DUP6 PUSH1 0x40 MLOAD PUSH1 0x1 PUSH1 0x1 PUSH1 0xE0 SHL SUB NOT PUSH1 0xE0 DUP7 SWAP1 SHL AND DUP2 MSTORE PUSH1 0x1 PUSH1 0x1 PUSH1 0xA0 SHL SUB SWAP4 DUP5 AND PUSH1 0x4 DUP3 ADD MSTORE SWAP2 SWAP1 SWAP3 AND PUSH1 0x24 DUP3 ADD MSTORE PUSH1 0x44 DUP2 ADD SWAP2 SWAP1 SWAP2 MSTORE PUSH1 0x64 ADD PUSH1 0x20 PUSH1 0x40 MLOAD DUP1 DUP4 SUB DUP2 PUSH1 0x0 DUP8 DUP1 PUSH2 0x24DD PUSH2 0x425E JUMP JUMPDEST ISZERO DUP1 ISZERO PUSH2 0x24F2 JUMPI PUSH1 0x0 DUP1 PUSH2 0x24EF PUSH2 0x414A JUMP JUMPDEST POP POP JUMPDEST POP GAS PUSH2 0x24FC PUSH2 0x4363 JUMP JUMPDEST POP POP POP POP POP POP ISZERO DUP1 ISZERO PUSH2 0x251C JUMPI RETURNDATASIZE PUSH1 0x0 DUP1 RETURNDATACOPY RETURNDATASIZE PUSH1 0x0 PUSH2 0x2519 PUSH2 0x414A JUMP JUMPDEST POP POP JUMPDEST POP POP POP POP PUSH1 0x40 MLOAD RETURNDATASIZE PUSH1 0x20 DUP2 LT ISZERO PUSH2 0x253B JUMPI PUSH1 0x0 DUP1 PUSH2 0x2538 PUSH2 0x414A JUMP JUMPDEST POP POP JUMPDEST DUP2 ADD SWAP1 DUP1 DUP1 MLOAD POP PUSH1 0x0 SWAP3 POP DUP3 SWAP2 POP PUSH2 0x2553 SWAP1 POP PUSH2 0x3523 JUMP JUMPDEST SWAP2 POP SWAP2 POP PUSH2 0x2562 DUP3 DUP3 DUP6 PUSH2 0x3D01 JUMP JUMPDEST POP POP POP POP POP JUMP JUMPDEST PUSH1 0x18 DUP2 JUMP JUMPDEST PUSH1 0x0 DUP1 PUSH2 0x258B PUSH1 0x16 PUSH2 0x257E PUSH2 0x41B5 JUMP JUMPDEST DUP6 SWAP1 PUSH4 0xFFFFFFFF PUSH2 0x2C80 AND JUMP JUMPDEST SWAP1 POP PUSH1 0x0 PUSH2 0x2598 DUP7 PUSH2 0x3CA6 JUMP JUMPDEST PUSH1 0x1 PUSH1 0x1 PUSH1 0xA0 SHL SUB AND PUSH4 0x8B034136 PUSH1 0x40 MLOAD DUP2 PUSH4 0xFFFFFFFF AND PUSH1 0xE0 SHL DUP2 MSTORE PUSH1 0x4 ADD PUSH1 0x20 PUSH1 0x40 MLOAD DUP1 DUP4 SUB DUP2 DUP7 DUP1 PUSH2 0x25CB PUSH2 0x425E JUMP JUMPDEST ISZERO DUP1 ISZERO PUSH2 0x25E0 JUMPI PUSH1 0x0 DUP1 PUSH2 0x25DD PUSH2 0x414A JUMP JUMPDEST POP POP JUMPDEST POP GAS PUSH2 0x25EA PUSH2 0x42AA JUMP JUMPDEST POP POP POP POP POP ISZERO DUP1 ISZERO PUSH2 0x2609 JUMPI RETURNDATASIZE PUSH1 0x0 DUP1 RETURNDATACOPY RETURNDATASIZE PUSH1 0x0 PUSH2 0x2606 PUSH2 0x414A JUMP JUMPDEST POP POP JUMPDEST POP POP POP POP PUSH1 0x40 MLOAD RETURNDATASIZE PUSH1 0x20 DUP2 LT ISZERO PUSH2 0x2628 JUMPI PUSH1 0x0 DUP1 PUSH2 0x2625 PUSH2 0x414A JUMP JUMPDEST POP POP JUMPDEST DUP2 ADD SWAP1 DUP1 DUP1 MLOAD SWAP4 POP PUSH1 0x0 SWAP3 POP PUSH1 0x14 SWAP2 POP PUSH2 0x2642 SWAP1 POP PUSH2 0x41B5 JUMP JUMPDEST SWAP1 POP PUSH1 0x0 PUSH20 0x0 PUSH4 0x907AF6C0 PUSH1 0x40 MLOAD DUP2 PUSH4 0xFFFFFFFF AND PUSH1 0xE0 SHL DUP2 MSTORE PUSH1 0x4 ADD PUSH1 0x20 PUSH1 0x40 MLOAD DUP1 DUP4 SUB DUP2 DUP7 DUP1 PUSH2 0x2685 PUSH2 0x425E JUMP JUMPDEST ISZERO DUP1 ISZERO PUSH2 0x269A JUMPI PUSH1 0x0 DUP1 PUSH2 0x2697 PUSH2 0x414A JUMP JUMPDEST POP POP JUMPDEST POP GAS PUSH2 0x26A4 PUSH2 0x447F JUMP JUMPDEST POP POP POP POP POP ISZERO DUP1 ISZERO PUSH2 0x26C3 JUMPI RETURNDATASIZE PUSH1 0x0 DUP1 RETURNDATACOPY RETURNDATASIZE PUSH1 0x0 PUSH2 0x26C0 PUSH2 0x414A JUMP JUMPDEST POP POP JUMPDEST POP POP POP POP PUSH1 0x40 MLOAD RETURNDATASIZE PUSH1 0x20 DUP2 LT ISZERO PUSH2 0x26E2 JUMPI PUSH1 0x0 DUP1 PUSH2 0x26DF PUSH2 0x414A JUMP JUMPDEST POP POP JUMPDEST DUP2 ADD SWAP1 DUP1 DUP1 MLOAD SWAP4 POP PUSH1 0x0 SWAP3 POP PUSH2 0x270C SWAP2 POP PUSH1 0x11 SWAP1 POP PUSH2 0x26FF PUSH2 0x41B5 JUMP JUMPDEST DUP4 SWAP1 PUSH4 0xFFFFFFFF PUSH2 0x3B46 AND JUMP JUMPDEST SWAP1 POP DUP9 PUSH1 0x1 DUP2 GT ISZERO PUSH2 0x271A JUMPI INVALID JUMPDEST DUP11 PUSH1 0x1 DUP2 GT ISZERO PUSH2 0x2726 JUMPI INVALID JUMPDEST EQ ISZERO PUSH2 0x2790 JUMPI PUSH1 0x0 PUSH2 0x273E DUP5 DUP8 PUSH4 0xFFFFFFFF PUSH2 0x2C80 AND JUMP JUMPDEST SWAP1 POP DUP8 ISZERO PUSH2 0x275A JUMPI SWAP4 PUSH2 0x2757 DUP7 DUP4 PUSH4 0xFFFFFFFF PUSH2 0x2C80 AND JUMP JUMPDEST SWAP6 POP JUMPDEST PUSH2 0x2783 PUSH2 0x276D DUP5 DUP9 PUSH4 0xFFFFFFFF PUSH2 0x3B46 AND JUMP JUMPDEST PUSH2 0x2777 DUP4 DUP9 PUSH2 0x3E05 JUMP JUMPDEST SWAP1 PUSH4 0xFFFFFFFF PUSH2 0x3E2C AND JUMP JUMPDEST SWAP7 POP POP POP POP POP POP POP PUSH2 0x27DF JUMP JUMPDEST PUSH1 0x0 PUSH2 0x27A2 DUP6 DUP8 PUSH4 0xFFFFFFFF PUSH2 0x3E2C AND JUMP JUMPDEST SWAP1 POP DUP8 ISZERO PUSH2 0x27AC JUMPI SWAP3 JUMPDEST PUSH1 0x0 PUSH2 0x27B8 DUP3 DUP7 PUSH2 0x3E05 JUMP JUMPDEST SWAP1 POP DUP9 PUSH2 0x27C5 JUMPI DUP1 PUSH2 0x27D5 JUMP JUMPDEST PUSH2 0x27D5 DUP2 DUP5 PUSH4 0xFFFFFFFF PUSH2 0x3E2C AND JUMP JUMPDEST SWAP8 POP POP POP POP POP POP POP POP JUMPDEST SWAP5 SWAP4 POP POP POP POP JUMP JUMPDEST PUSH1 0x14 PUSH2 0x2110 PUSH2 0x41B5 JUMP JUMPDEST PUSH1 0x0 DUP1 PUSH1 0x0 DUP1 PUSH2 0x27FF PUSH2 0x3523 JUMP JUMPDEST SWAP2 POP SWAP2 POP PUSH2 0x44C2 DUP6 PUSH2 0x2813 JUMPI PUSH2 0x2C9C PUSH2 0x2817 JUMP JUMPDEST PUSH2 0x3B46 JUMPDEST SWAP1 POP PUSH1 0x0 DUP9 PUSH1 0x1 DUP2 GT ISZERO PUSH2 0x2827 JUMPI INVALID JUMPDEST EQ ISZERO PUSH2 0x2842 JUMPI PUSH2 0x283B DUP4 DUP9 DUP4 PUSH4 0xFFFFFFFF AND JUMP JUMPDEST SWAP3 POP PUSH2 0x2853 JUMP JUMPDEST PUSH2 0x2850 DUP3 DUP9 DUP4 PUSH4 0xFFFFFFFF AND JUMP JUMPDEST SWAP2 POP JUMPDEST DUP6 ISZERO PUSH2 0x2879 JUMPI PUSH2 0x2876 PUSH2 0x2869 PUSH1 0x11 PUSH2 0x1CAF PUSH2 0x41B5 JUMP JUMPDEST DUP9 SWAP1 PUSH4 0xFFFFFFFF PUSH2 0x2C80 AND JUMP JUMPDEST SWAP7 POP JUMPDEST PUSH2 0x289A DUP4 DUP4 PUSH2 0x2895 PUSH1 0x14 PUSH2 0x288B PUSH2 0x41B5 JUMP JUMPDEST DUP12 DUP7 PUSH4 0xFFFFFFFF AND JUMP JUMPDEST PUSH2 0x3E41 JUMP JUMPDEST SWAP5 POP SWAP5 POP POP POP POP SWAP4 POP SWAP4 SWAP2 POP POP JUMP JUMPDEST PUSH1 0x0 DUP1 PUSH2 0x28B4 PUSH2 0x41B5 JUMP JUMPDEST SWAP1 PUSH2 0x100 EXP SWAP1 DIV PUSH1 0x1 PUSH1 0x1 PUSH1 0xA0 SHL SUB AND PUSH1 0x1 PUSH1 0x1 PUSH1 0xA0 SHL SUB AND GAS PUSH2 0x28D6 PUSH2 0x441C JUMP JUMPDEST PUSH1 0x1 PUSH1 0x1 PUSH1 0xA0 SHL SUB AND EQ PUSH2 0x868 JUMPI PUSH1 0x40 MLOAD PUSH3 0x461BCD PUSH1 0xE5 SHL DUP2 MSTORE PUSH1 0x4 ADD DUP1 DUP1 PUSH1 0x20 ADD DUP3 DUP2 SUB DUP3 MSTORE PUSH1 0x2F DUP2 MSTORE PUSH1 0x20 ADD DUP1 PUSH2 0x4540 PUSH1 0x2F SWAP2 CODECOPY PUSH1 0x40 ADD SWAP2 POP POP PUSH1 0x40 MLOAD DUP1 SWAP2 SUB SWAP1 PUSH2 0xF5A PUSH2 0x414A JUMP JUMPDEST PUSH1 0x0 PUSH1 0x14 PUSH1 0x15 PUSH2 0x292F PUSH2 0x41B5 JUMP JUMPDEST SWAP1 PUSH2 0x100 EXP SWAP1 DIV PUSH1 0xFF AND PUSH2 0x1ABF JUMPI PUSH2 0x294A PUSH1 0x16 PUSH2 0xA7E PUSH2 0x41B5 JUMP JUMPDEST PUSH2 0x1F76 JUMP JUMPDEST PUSH1 0x0 PUSH2 0x7DD PUSH12 0x53797374656D537461747573 PUSH1 0xA0 SHL PUSH1 0x40 MLOAD PUSH1 0x40 DUP1 DUP3 ADD SWAP1 MSTORE PUSH1 0x14 DUP2 MSTORE PUSH20 0x4D697373696E672053797374656D537461747573 PUSH1 0x60 SHL PUSH1 0x20 DUP3 ADD MSTORE PUSH2 0x3EDC JUMP JUMPDEST PUSH2 0x299C PUSH2 0x3AB9 JUMP JUMPDEST PUSH1 0x1 PUSH1 0x1 PUSH1 0xA0 SHL SUB AND PUSH4 0x5C975ABB PUSH1 0x40 MLOAD DUP2 PUSH4 0xFFFFFFFF AND PUSH1 0xE0 SHL DUP2 MSTORE PUSH1 0x4 ADD PUSH1 0x20 PUSH1 0x40 MLOAD DUP1 DUP4 SUB DUP2 DUP7 DUP1 PUSH2 0x29CF PUSH2 0x425E JUMP JUMPDEST ISZERO DUP1 ISZERO PUSH2 0x29E4 JUMPI PUSH1 0x0 DUP1 PUSH2 0x29E1 PUSH2 0x414A JUMP JUMPDEST POP POP JUMPDEST POP GAS PUSH2 0x29EE PUSH2 0x42AA JUMP JUMPDEST POP POP POP POP POP ISZERO DUP1 ISZERO PUSH2 0x2A0D JUMPI RETURNDATASIZE PUSH1 0x0 DUP1 RETURNDATACOPY RETURNDATASIZE PUSH1 0x0 PUSH2 0x2A0A PUSH2 0x414A JUMP JUMPDEST POP POP JUMPDEST POP POP POP POP PUSH1 0x40 MLOAD RETURNDATASIZE PUSH1 0x20 DUP2 LT ISZERO PUSH2 0x2A2C JUMPI PUSH1 0x0 DUP1 PUSH2 0x2A29 PUSH2 0x414A JUMP JUMPDEST POP POP JUMPDEST DUP2 ADD SWAP1 DUP1 DUP1 MLOAD ISZERO SWAP3 POP PUSH2 0x868 SWAP2 POP POP JUMPI PUSH1 0x40 MLOAD PUSH3 0x461BCD PUSH1 0xE5 SHL DUP2 MSTORE PUSH1 0x4 ADD DUP1 DUP1 PUSH1 0x20 ADD DUP3 DUP2 SUB DUP3 MSTORE PUSH1 0x3C DUP2 MSTORE PUSH1 0x20 ADD DUP1 PUSH2 0x4590 PUSH1 0x3C SWAP2 CODECOPY PUSH1 0x40 ADD SWAP2 POP POP PUSH1 0x40 MLOAD DUP1 SWAP2 SUB SWAP1 PUSH2 0xF5A PUSH2 0x414A JUMP JUMPDEST PUSH1 0x0 GAS PUSH2 0x2A84 PUSH2 0x44C4 JUMP JUMPDEST PUSH1 0xA PUSH2 0x2A8E PUSH2 0x41B5 JUMP JUMPDEST LT SWAP1 POP SWAP1 JUMP JUMPDEST PUSH1 0x0 DUP1 PUSH2 0x2A9F PUSH2 0x3FA5 JUMP JUMPDEST PUSH1 0x1 PUSH1 0x1 PUSH1 0xA0 SHL SUB AND PUSH4 0x4308A94F PUSH1 0xC PUSH2 0x2AB7 PUSH2 0x41B5 JUMP JUMPDEST PUSH1 0x40 MLOAD PUSH1 0x1 PUSH1 0x1 PUSH1 0xE0 SHL SUB NOT PUSH1 0xE0 DUP5 SWAP1 SHL AND DUP2 MSTORE PUSH1 0x4 DUP2 ADD SWAP2 SWAP1 SWAP2 MSTORE PUSH1 0x24 ADD PUSH1 0x40 DUP1 MLOAD DUP1 DUP4 SUB DUP2 DUP7 DUP1 PUSH2 0x2AE8 PUSH2 0x425E JUMP JUMPDEST ISZERO DUP1 ISZERO PUSH2 0x2AFD JUMPI PUSH1 0x0 DUP1 PUSH2 0x2AFA PUSH2 0x414A JUMP JUMPDEST POP POP JUMPDEST POP GAS PUSH2 0x2B07 PUSH2 0x42AA JUMP JUMPDEST POP POP POP POP POP ISZERO DUP1 ISZERO PUSH2 0x2B26 JUMPI RETURNDATASIZE PUSH1 0x0 DUP1 RETURNDATACOPY RETURNDATASIZE PUSH1 0x0 PUSH2 0x2B23 PUSH2 0x414A JUMP JUMPDEST POP POP JUMPDEST POP POP POP POP PUSH1 0x40 MLOAD RETURNDATASIZE PUSH1 0x40 DUP2 LT ISZERO PUSH2 0x2B45 JUMPI PUSH1 0x0 DUP1 PUSH2 0x2B42 PUSH2 0x414A JUMP JUMPDEST POP POP JUMPDEST DUP2 ADD SWAP1 DUP1 DUP1 MLOAD SWAP3 SWAP2 SWAP1 PUSH1 0x20 ADD DUP1 MLOAD SWAP4 SWAP6 POP SWAP3 SWAP4 POP POP POP POP SWAP1 SWAP2 JUMP JUMPDEST PUSH1 0x0 DUP1 PUSH2 0x2B6B PUSH2 0x3AB9 JUMP JUMPDEST PUSH1 0x1 PUSH1 0x1 PUSH1 0xA0 SHL SUB AND PUSH4 0x4A41D89D PUSH1 0x40 MLOAD DUP2 PUSH4 0xFFFFFFFF AND PUSH1 0xE0 SHL DUP2 MSTORE PUSH1 0x4 ADD PUSH1 0x60 PUSH1 0x40 MLOAD DUP1 DUP4 SUB DUP2 DUP7 DUP1 PUSH2 0x2B9E PUSH2 0x425E JUMP JUMPDEST ISZERO DUP1 ISZERO PUSH2 0x2BB3 JUMPI PUSH1 0x0 DUP1 PUSH2 0x2BB0 PUSH2 0x414A JUMP JUMPDEST POP POP JUMPDEST POP GAS PUSH2 0x2BBD PUSH2 0x42AA JUMP JUMPDEST POP POP POP POP POP ISZERO DUP1 ISZERO PUSH2 0x2BDC JUMPI RETURNDATASIZE PUSH1 0x0 DUP1 RETURNDATACOPY RETURNDATASIZE PUSH1 0x0 PUSH2 0x2BD9 PUSH2 0x414A JUMP JUMPDEST POP POP JUMPDEST POP POP POP POP PUSH1 0x40 MLOAD RETURNDATASIZE PUSH1 0x60 DUP2 LT ISZERO PUSH2 0x2BFB JUMPI PUSH1 0x0 DUP1 PUSH2 0x2BF8 PUSH2 0x414A JUMP JUMPDEST POP POP JUMPDEST DUP2 ADD SWAP1 DUP1 DUP1 MLOAD SWAP3 SWAP2 SWAP1 PUSH1 0x20 ADD DUP1 MLOAD SWAP3 SWAP2 SWAP1 PUSH1 0x20 ADD DUP1 MLOAD POP SWAP4 SWAP5 POP DUP7 SWAP4 POP PUSH2 0x2C38 SWAP3 POP DUP5 SWAP2 POP PUSH1 0xA SWAP1 POP PUSH2 0x2C2C PUSH2 0x41B5 JUMP JUMPDEST SWAP1 PUSH4 0xFFFFFFFF PUSH2 0x3B46 AND JUMP JUMPDEST GT ISZERO SWAP4 SWAP3 POP POP POP JUMP JUMPDEST PUSH1 0x0 PUSH2 0x7DD PUSH9 0x14DE5B9D1A1CD554D1 PUSH1 0xBA SHL PUSH1 0x40 MLOAD PUSH1 0x40 DUP1 DUP3 ADD SWAP1 MSTORE PUSH1 0x11 DUP2 MSTORE PUSH17 0x135A5CDCDA5B99C814DE5B9D1A1CD554D1 PUSH1 0x7A SHL PUSH1 0x20 DUP3 ADD MSTORE PUSH2 0x3EDC JUMP JUMPDEST PUSH1 0x0 PUSH2 0x2C95 DUP4 DUP4 PUSH8 0xDE0B6B3A7640000 PUSH2 0x3FEC JUMP JUMPDEST SWAP4 SWAP3 POP POP POP JUMP JUMPDEST PUSH1 0x0 DUP3 DUP3 ADD DUP4 DUP2 LT ISZERO PUSH2 0x2C95 JUMPI PUSH1 0x40 MLOAD PUSH3 0x461BCD PUSH1 0xE5 SHL DUP2 MSTORE PUSH1 0x20 PUSH1 0x4 DUP3 ADD MSTORE PUSH1 0x1B PUSH1 0x24 DUP3 ADD MSTORE PUSH32 0x536166654D6174683A206164646974696F6E206F766572666C6F770000000000 PUSH1 0x44 DUP3 ADD MSTORE PUSH1 0x64 ADD PUSH1 0x40 MLOAD DUP1 SWAP2 SUB SWAP1 PUSH2 0x2CFB PUSH2 0x414A JUMP JUMPDEST POP POP SWAP4 SWAP3 POP POP POP JUMP JUMPDEST PUSH1 0x0 PUSH2 0x2D14 DUP3 PUSH1 0x14 PUSH2 0x2C2C PUSH2 0x41B5 JUMP JUMPDEST SWAP1 POP DUP1 DUP1 PUSH1 0x14 PUSH2 0x2D22 PUSH2 0x4210 JUMP JUMPDEST POP POP POP PUSH2 0x2D2D PUSH2 0x3AB9 JUMP JUMPDEST PUSH1 0x1 PUSH1 0x1 PUSH1 0xA0 SHL SUB AND PUSH4 0x6B3A0984 DUP4 PUSH1 0x40 MLOAD PUSH1 0x1 PUSH1 0x1 PUSH1 0xE0 SHL SUB NOT PUSH1 0xE0 DUP5 SWAP1 SHL AND DUP2 MSTORE PUSH1 0x4 DUP2 ADD SWAP2 SWAP1 SWAP2 MSTORE PUSH1 0x24 ADD PUSH1 0x0 PUSH1 0x40 MLOAD DUP1 DUP4 SUB DUP2 PUSH1 0x0 DUP8 DUP1 PUSH2 0x2D70 PUSH2 0x425E JUMP JUMPDEST ISZERO DUP1 ISZERO PUSH2 0x2D85 JUMPI PUSH1 0x0 DUP1 PUSH2 0x2D82 PUSH2 0x414A JUMP JUMPDEST POP POP JUMPDEST POP GAS PUSH2 0x2D8F PUSH2 0x4363 JUMP JUMPDEST POP POP POP POP POP POP ISZERO DUP1 ISZERO PUSH2 0x2DAF JUMPI RETURNDATASIZE PUSH1 0x0 DUP1 RETURNDATACOPY RETURNDATASIZE PUSH1 0x0 PUSH2 0x2DAC PUSH2 0x414A JUMP JUMPDEST POP POP JUMPDEST POP POP POP POP SWAP2 SWAP1 POP JUMP JUMPDEST PUSH1 0x0 PUSH2 0x7DD PUSH7 0x119959541BDBDB PUSH1 0xCA SHL PUSH1 0x40 MLOAD PUSH1 0x40 DUP1 DUP3 ADD SWAP1 MSTORE PUSH1 0xF DUP2 MSTORE PUSH15 0x135A5CDCDA5B99C8119959541BDBDB PUSH1 0x8A SHL PUSH1 0x20 DUP3 ADD MSTORE PUSH2 0x3EDC JUMP JUMPDEST PUSH1 0x0 DUP1 PUSH1 0x14 PUSH1 0x15 PUSH2 0x2E02 PUSH2 0x41B5 JUMP JUMPDEST SWAP1 PUSH2 0x100 EXP SWAP1 DIV PUSH1 0xFF AND ISZERO PUSH2 0x2E22 JUMPI PUSH1 0xE PUSH2 0x2E1B PUSH2 0x41B5 JUMP JUMPDEST SWAP1 POP PUSH2 0x2E2E JUMP JUMPDEST PUSH2 0x2E2A PUSH2 0x2A94 JUMP JUMPDEST POP SWAP1 POP JUMPDEST DUP1 PUSH1 0xD PUSH2 0x2E39 PUSH2 0x41B5 JUMP JUMPDEST GT ISZERO PUSH2 0x2E46 JUMPI PUSH1 0x1 PUSH2 0x1B08 JUMP JUMPDEST PUSH1 0x0 SWAP2 POP POP SWAP1 JUMP JUMPDEST PUSH1 0x0 DUP1 DUP1 PUSH1 0x5 PUSH2 0x2E5C PUSH2 0x41B5 JUMP JUMPDEST SWAP1 PUSH2 0x100 EXP SWAP1 DIV PUSH1 0x1 PUSH1 0x1 PUSH1 0xA0 SHL SUB AND PUSH1 0x1 PUSH1 0x1 PUSH1 0xA0 SHL SUB AND PUSH4 0x8DC30B70 DUP5 PUSH1 0x40 MLOAD PUSH1 0x1 PUSH1 0x1 PUSH1 0xE0 SHL SUB NOT PUSH1 0xE0 DUP5 SWAP1 SHL AND DUP2 MSTORE PUSH1 0x1 PUSH1 0x1 PUSH1 0xA0 SHL SUB SWAP1 SWAP2 AND PUSH1 0x4 DUP3 ADD MSTORE PUSH1 0x24 ADD PUSH1 0x20 PUSH1 0x40 MLOAD DUP1 DUP4 SUB DUP2 DUP7 DUP1 PUSH2 0x2EB5 PUSH2 0x425E JUMP JUMPDEST ISZERO DUP1 ISZERO PUSH2 0x2ECA JUMPI PUSH1 0x0 DUP1 PUSH2 0x2EC7 PUSH2 0x414A JUMP JUMPDEST POP POP JUMPDEST POP GAS PUSH2 0x2ED4 PUSH2 0x42AA JUMP JUMPDEST POP POP POP POP POP ISZERO DUP1 ISZERO PUSH2 0x2EF3 JUMPI RETURNDATASIZE PUSH1 0x0 DUP1 RETURNDATACOPY RETURNDATASIZE PUSH1 0x0 PUSH2 0x2EF0 PUSH2 0x414A JUMP JUMPDEST POP POP JUMPDEST POP POP POP POP PUSH1 0x40 MLOAD RETURNDATASIZE PUSH1 0x20 DUP2 LT ISZERO PUSH2 0x2F12 JUMPI PUSH1 0x0 DUP1 PUSH2 0x2F0F PUSH2 0x414A JUMP JUMPDEST POP POP JUMPDEST DUP2 ADD SWAP1 DUP1 DUP1 MLOAD SWAP3 POP PUSH1 0x0 SWAP2 POP PUSH1 0x6 SWAP1 POP PUSH2 0x2F2A PUSH2 0x41B5 JUMP JUMPDEST SWAP1 PUSH2 0x100 EXP SWAP1 DIV PUSH1 0x1 PUSH1 0x1 PUSH1 0xA0 SHL SUB AND PUSH1 0x1 PUSH1 0x1 PUSH1 0xA0 SHL SUB AND PUSH4 0x8DC30B70 DUP6 PUSH1 0x40 MLOAD PUSH1 0x1 PUSH1 0x1 PUSH1 0xE0 SHL SUB NOT PUSH1 0xE0 DUP5 SWAP1 SHL AND DUP2 MSTORE PUSH1 0x1 PUSH1 0x1 PUSH1 0xA0 SHL SUB SWAP1 SWAP2 AND PUSH1 0x4 DUP3 ADD MSTORE PUSH1 0x24 ADD PUSH1 0x20 PUSH1 0x40 MLOAD DUP1 DUP4 SUB DUP2 DUP7 DUP1 PUSH2 0x2F83 PUSH2 0x425E JUMP JUMPDEST ISZERO DUP1 ISZERO PUSH2 0x2F98 JUMPI PUSH1 0x0 DUP1 PUSH2 0x2F95 PUSH2 0x414A JUMP JUMPDEST POP POP JUMPDEST POP GAS PUSH2 0x2FA2 PUSH2 0x42AA JUMP JUMPDEST POP POP POP POP POP ISZERO DUP1 ISZERO PUSH2 0x2FC1 JUMPI RETURNDATASIZE PUSH1 0x0 DUP1 RETURNDATACOPY RETURNDATASIZE PUSH1 0x0 PUSH2 0x2FBE PUSH2 0x414A JUMP JUMPDEST POP POP JUMPDEST POP POP POP POP PUSH1 0x40 MLOAD RETURNDATASIZE PUSH1 0x20 DUP2 LT ISZERO PUSH2 0x2FE0 JUMPI PUSH1 0x0 DUP1 PUSH2 0x2FDD PUSH2 0x414A JUMP JUMPDEST POP POP JUMPDEST DUP2 ADD SWAP1 DUP1 DUP1 MLOAD SWAP4 SWAP6 POP SWAP3 SWAP4 POP POP POP POP SWAP2 POP SWAP2 JUMP JUMPDEST PUSH1 0x0 DUP1 PUSH2 0x2FFF PUSH2 0x294F JUMP JUMPDEST PUSH1 0x1 PUSH1 0x1 PUSH1 0xA0 SHL SUB AND PUSH4 0x86DABD1 PUSH1 0x40 MLOAD DUP2 PUSH4 0xFFFFFFFF AND PUSH1 0xE0 SHL DUP2 MSTORE PUSH1 0x4 ADD PUSH1 0x0 PUSH1 0x40 MLOAD DUP1 DUP4 SUB DUP2 DUP7 DUP1 PUSH2 0x3032 PUSH2 0x425E JUMP JUMPDEST ISZERO DUP1 ISZERO PUSH2 0x3047 JUMPI PUSH1 0x0 DUP1 PUSH2 0x3044 PUSH2 0x414A JUMP JUMPDEST POP POP JUMPDEST POP GAS PUSH2 0x3051 PUSH2 0x42AA JUMP JUMPDEST POP POP POP POP POP ISZERO DUP1 ISZERO PUSH2 0x3070 JUMPI RETURNDATASIZE PUSH1 0x0 DUP1 RETURNDATACOPY RETURNDATASIZE PUSH1 0x0 PUSH2 0x306D PUSH2 0x414A JUMP JUMPDEST POP POP JUMPDEST POP POP POP POP PUSH2 0x307C PUSH2 0x2994 JUMP JUMPDEST PUSH2 0x3084 PUSH2 0x350E JUMP JUMPDEST PUSH2 0x30D2 JUMPI PUSH1 0x40 MLOAD PUSH3 0x461BCD PUSH1 0xE5 SHL DUP2 MSTORE PUSH1 0x20 PUSH1 0x4 DUP3 ADD MSTORE PUSH1 0x12 PUSH1 0x24 DUP3 ADD MSTORE PUSH18 0x42696464696E6720696E636F6D706C657465 PUSH1 0x70 SHL PUSH1 0x44 DUP3 ADD MSTORE PUSH1 0x64 ADD PUSH1 0x40 MLOAD DUP1 SWAP2 SUB SWAP1 PUSH2 0x30CF PUSH2 0x414A JUMP JUMPDEST POP POP JUMPDEST PUSH1 0x0 PUSH2 0x30E1 PUSH1 0x14 PUSH2 0x7D8 PUSH2 0x41B5 JUMP JUMPDEST SWAP1 POP PUSH1 0x0 PUSH2 0x30ED PUSH2 0x2DF3 JUMP JUMPDEST SWAP1 POP PUSH1 0x0 PUSH1 0x14 PUSH1 0x15 PUSH2 0x30FD PUSH2 0x41B5 JUMP JUMPDEST SWAP1 PUSH2 0x100 EXP SWAP1 DIV PUSH1 0xFF AND SWAP1 POP PUSH1 0x0 DUP1 DUP3 ISZERO DUP1 PUSH2 0x3124 JUMPI POP PUSH1 0x0 DUP5 PUSH1 0x1 DUP2 GT ISZERO PUSH2 0x3122 JUMPI INVALID JUMPDEST EQ JUMPDEST ISZERO PUSH2 0x321A JUMPI PUSH1 0x0 PUSH1 0x5 PUSH2 0x3135 PUSH2 0x41B5 JUMP JUMPDEST SWAP1 PUSH2 0x100 EXP SWAP1 DIV PUSH1 0x1 PUSH1 0x1 PUSH1 0xA0 SHL SUB AND PUSH1 0x1 PUSH1 0x1 PUSH1 0xA0 SHL SUB AND PUSH4 0x2BC43FD9 GAS PUSH2 0x315C PUSH2 0x441C JUMP JUMPDEST PUSH1 0x7 PUSH2 0x3166 PUSH2 0x41B5 JUMP JUMPDEST DUP9 PUSH1 0x40 MLOAD PUSH1 0x1 PUSH1 0x1 PUSH1 0xE0 SHL SUB NOT PUSH1 0xE0 DUP7 SWAP1 SHL AND DUP2 MSTORE PUSH1 0x1 PUSH1 0x1 PUSH1 0xA0 SHL SUB SWAP1 SWAP4 AND PUSH1 0x4 DUP5 ADD MSTORE PUSH1 0x24 DUP4 ADD SWAP2 SWAP1 SWAP2 MSTORE PUSH1 0x44 DUP3 ADD MSTORE PUSH1 0x64 ADD PUSH1 0x20 PUSH1 0x40 MLOAD DUP1 DUP4 SUB DUP2 PUSH1 0x0 DUP8 DUP1 PUSH2 0x31B0 PUSH2 0x425E JUMP JUMPDEST ISZERO DUP1 ISZERO PUSH2 0x31C5 JUMPI PUSH1 0x0 DUP1 PUSH2 0x31C2 PUSH2 0x414A JUMP JUMPDEST POP POP JUMPDEST POP GAS PUSH2 0x31CF PUSH2 0x4363 JUMP JUMPDEST POP POP POP POP POP POP ISZERO DUP1 ISZERO PUSH2 0x31EF JUMPI RETURNDATASIZE PUSH1 0x0 DUP1 RETURNDATACOPY RETURNDATASIZE PUSH1 0x0 PUSH2 0x31EC PUSH2 0x414A JUMP JUMPDEST POP POP JUMPDEST POP POP POP POP PUSH1 0x40 MLOAD RETURNDATASIZE PUSH1 0x20 DUP2 LT ISZERO PUSH2 0x320E JUMPI PUSH1 0x0 DUP1 PUSH2 0x320B PUSH2 0x414A JUMP JUMPDEST POP POP JUMPDEST DUP2 ADD SWAP1 DUP1 DUP1 MLOAD SWAP5 POP POP POP POP JUMPDEST DUP3 ISZERO DUP1 PUSH2 0x3232 JUMPI POP PUSH1 0x1 DUP5 PUSH1 0x1 DUP2 GT ISZERO PUSH2 0x3230 JUMPI INVALID JUMPDEST EQ JUMPDEST ISZERO PUSH2 0x3328 JUMPI PUSH1 0x0 PUSH1 0x6 PUSH2 0x3243 PUSH2 0x41B5 JUMP JUMPDEST SWAP1 PUSH2 0x100 EXP SWAP1 DIV PUSH1 0x1 PUSH1 0x1 PUSH1 0xA0 SHL SUB AND PUSH1 0x1 PUSH1 0x1 PUSH1 0xA0 SHL SUB AND PUSH4 0x2BC43FD9 GAS PUSH2 0x326A PUSH2 0x441C JUMP JUMPDEST PUSH1 0x8 PUSH2 0x3274 PUSH2 0x41B5 JUMP JUMPDEST DUP9 PUSH1 0x40 MLOAD PUSH1 0x1 PUSH1 0x1 PUSH1 0xE0 SHL SUB NOT PUSH1 0xE0 DUP7 SWAP1 SHL AND DUP2 MSTORE PUSH1 0x1 PUSH1 0x1 PUSH1 0xA0 SHL SUB SWAP1 SWAP4 AND PUSH1 0x4 DUP5 ADD MSTORE PUSH1 0x24 DUP4 ADD SWAP2 SWAP1 SWAP2 MSTORE PUSH1 0x44 DUP3 ADD MSTORE PUSH1 0x64 ADD PUSH1 0x20 PUSH1 0x40 MLOAD DUP1 DUP4 SUB DUP2 PUSH1 0x0 DUP8 DUP1 PUSH2 0x32BE PUSH2 0x425E JUMP JUMPDEST ISZERO DUP1 ISZERO PUSH2 0x32D3 JUMPI PUSH1 0x0 DUP1 PUSH2 0x32D0 PUSH2 0x414A JUMP JUMPDEST POP POP JUMPDEST POP GAS PUSH2 0x32DD PUSH2 0x4363 JUMP JUMPDEST POP POP POP POP POP POP ISZERO DUP1 ISZERO PUSH2 0x32FD JUMPI RETURNDATASIZE PUSH1 0x0 DUP1 RETURNDATACOPY RETURNDATASIZE PUSH1 0x0 PUSH2 0x32FA PUSH2 0x414A JUMP JUMPDEST POP POP JUMPDEST POP POP POP POP PUSH1 0x40 MLOAD RETURNDATASIZE PUSH1 0x20 DUP2 LT ISZERO PUSH2 0x331C JUMPI PUSH1 0x0 DUP1 PUSH2 0x3319 PUSH2 0x414A JUMP JUMPDEST POP POP JUMPDEST DUP2 ADD SWAP1 DUP1 DUP1 MLOAD SWAP4 POP POP POP POP JUMPDEST DUP2 ISZERO ISZERO DUP1 PUSH2 0x3335 JUMPI POP DUP1 ISZERO ISZERO JUMPDEST PUSH2 0x3381 JUMPI PUSH1 0x40 MLOAD PUSH3 0x461BCD PUSH1 0xE5 SHL DUP2 MSTORE PUSH1 0x20 PUSH1 0x4 DUP3 ADD MSTORE PUSH1 0x10 PUSH1 0x24 DUP3 ADD MSTORE PUSH16 0x4E6F7468696E6720746F20636C61696D PUSH1 0x80 SHL PUSH1 0x44 DUP3 ADD MSTORE PUSH1 0x64 ADD PUSH1 0x40 MLOAD DUP1 SWAP2 SUB SWAP1 PUSH2 0x337E PUSH2 0x414A JUMP JUMPDEST POP POP JUMPDEST GAS PUSH2 0x338A PUSH2 0x441C JUMP JUMPDEST PUSH1 0x1 PUSH1 0x1 PUSH1 0xA0 SHL SUB AND PUSH32 0xBBE753CAA9BB201DBD1740EE3D61C6D2ADF5FA89F30233D732281AE5DB6A03D4 DUP4 DUP4 PUSH1 0x40 MLOAD SWAP2 DUP3 MSTORE PUSH1 0x20 DUP3 ADD MSTORE PUSH1 0x40 SWAP1 DUP2 ADD SWAP1 MLOAD DUP1 SWAP2 SUB SWAP1 LOG2 SWAP1 SWAP6 POP SWAP4 POP POP POP POP SWAP1 SWAP2 JUMP JUMPDEST PUSH1 0x0 DUP1 DUP1 PUSH1 0x5 PUSH2 0x33E7 PUSH2 0x41B5 JUMP JUMPDEST SWAP1 PUSH2 0x100 EXP SWAP1 DIV PUSH1 0x1 PUSH1 0x1 PUSH1 0xA0 SHL SUB AND PUSH1 0x1 PUSH1 0x1 PUSH1 0xA0 SHL SUB AND PUSH4 0x9C3EE244 DUP5 PUSH1 0x40 MLOAD PUSH1 0x1 PUSH1 0x1 PUSH1 0xE0 SHL SUB NOT PUSH1 0xE0 DUP5 SWAP1 SHL AND DUP2 MSTORE PUSH1 0x1 PUSH1 0x1 PUSH1 0xA0 SHL SUB SWAP1 SWAP2 AND PUSH1 0x4 DUP3 ADD MSTORE PUSH1 0x24 ADD PUSH1 0x20 PUSH1 0x40 MLOAD DUP1 DUP4 SUB DUP2 DUP7 DUP1 PUSH2 0x3440 PUSH2 0x425E JUMP JUMPDEST ISZERO DUP1 ISZERO PUSH2 0x3455 JUMPI PUSH1 0x0 DUP1 PUSH2 0x3452 PUSH2 0x414A JUMP JUMPDEST POP POP JUMPDEST POP GAS PUSH2 0x345F PUSH2 0x42AA JUMP JUMPDEST POP POP POP POP POP ISZERO DUP1 ISZERO PUSH2 0x347E JUMPI RETURNDATASIZE PUSH1 0x0 DUP1 RETURNDATACOPY RETURNDATASIZE PUSH1 0x0 PUSH2 0x347B PUSH2 0x414A JUMP JUMPDEST POP POP JUMPDEST POP POP POP POP PUSH1 0x40 MLOAD RETURNDATASIZE PUSH1 0x20 DUP2 LT ISZERO PUSH2 0x349D JUMPI PUSH1 0x0 DUP1 PUSH2 0x349A PUSH2 0x414A JUMP JUMPDEST POP POP JUMPDEST DUP2 ADD SWAP1 DUP1 DUP1 MLOAD SWAP3 POP PUSH1 0x0 SWAP2 POP PUSH1 0x6 SWAP1 POP PUSH2 0x34B5 PUSH2 0x41B5 JUMP JUMPDEST SWAP1 PUSH2 0x100 EXP SWAP1 DIV PUSH1 0x1 PUSH1 0x1 PUSH1 0xA0 SHL SUB AND PUSH1 0x1 PUSH1 0x1 PUSH1 0xA0 SHL SUB AND PUSH4 0x9C3EE244 DUP6 PUSH1 0x40 MLOAD PUSH1 0x1 PUSH1 0x1 PUSH1 0xE0 SHL SUB NOT PUSH1 0xE0 DUP5 SWAP1 SHL AND DUP2 MSTORE PUSH1 0x1 PUSH1 0x1 PUSH1 0xA0 SHL SUB SWAP1 SWAP2 AND PUSH1 0x4 DUP3 ADD MSTORE PUSH1 0x24 ADD PUSH1 0x20 PUSH1 0x40 MLOAD DUP1 DUP4 SUB DUP2 DUP7 DUP1 PUSH2 0x2F83 PUSH2 0x425E JUMP JUMPDEST PUSH1 0x0 GAS PUSH2 0x3519 PUSH2 0x44C4 JUMP JUMPDEST PUSH1 0x9 PUSH2 0x2A8E PUSH2 0x41B5 JUMP JUMPDEST PUSH1 0x0 DUP1 DUP1 PUSH1 0x5 PUSH2 0x3531 PUSH2 0x41B5 JUMP JUMPDEST SWAP1 PUSH2 0x100 EXP SWAP1 DIV PUSH1 0x1 PUSH1 0x1 PUSH1 0xA0 SHL SUB AND PUSH1 0x1 PUSH1 0x1 PUSH1 0xA0 SHL SUB AND PUSH4 0x8B034136 PUSH1 0x40 MLOAD DUP2 PUSH4 0xFFFFFFFF AND PUSH1 0xE0 SHL DUP2 MSTORE PUSH1 0x4 ADD PUSH1 0x20 PUSH1 0x40 MLOAD DUP1 DUP4 SUB DUP2 DUP7 DUP1 PUSH2 0x3574 PUSH2 0x425E JUMP JUMPDEST ISZERO DUP1 ISZERO PUSH2 0x3589 JUMPI PUSH1 0x0 DUP1 PUSH2 0x3586 PUSH2 0x414A JUMP JUMPDEST POP POP JUMPDEST POP GAS PUSH2 0x3593 PUSH2 0x42AA JUMP JUMPDEST POP POP POP POP POP ISZERO DUP1 ISZERO PUSH2 0x35B2 JUMPI RETURNDATASIZE PUSH1 0x0 DUP1 RETURNDATACOPY RETURNDATASIZE PUSH1 0x0 PUSH2 0x35AF PUSH2 0x414A JUMP JUMPDEST POP POP JUMPDEST POP POP POP POP PUSH1 0x40 MLOAD RETURNDATASIZE PUSH1 0x20 DUP2 LT ISZERO PUSH2 0x35D1 JUMPI PUSH1 0x0 DUP1 PUSH2 0x35CE PUSH2 0x414A JUMP JUMPDEST POP POP JUMPDEST DUP2 ADD SWAP1 DUP1 DUP1 MLOAD SWAP3 POP PUSH1 0x0 SWAP2 POP PUSH1 0x6 SWAP1 POP PUSH2 0x35E9 PUSH2 0x41B5 JUMP JUMPDEST SWAP1 PUSH2 0x100 EXP SWAP1 DIV PUSH1 0x1 PUSH1 0x1 PUSH1 0xA0 SHL SUB AND PUSH1 0x1 PUSH1 0x1 PUSH1 0xA0 SHL SUB AND PUSH4 0x8B034136 PUSH1 0x40 MLOAD DUP2 PUSH4 0xFFFFFFFF AND PUSH1 0xE0 SHL DUP2 MSTORE PUSH1 0x4 ADD PUSH1 0x20 PUSH1 0x40 MLOAD DUP1 DUP4 SUB DUP2 DUP7 DUP1 PUSH2 0x1067 PUSH2 0x425E JUMP JUMPDEST PUSH1 0x0 PUSH1 0x14 PUSH2 0x3638 PUSH2 0x41B5 JUMP JUMPDEST SWAP1 POP DUP1 ISZERO PUSH2 0x364B JUMPI PUSH2 0x3649 DUP2 PUSH2 0x2D04 JUMP JUMPDEST POP JUMPDEST PUSH1 0x0 PUSH2 0x3655 PUSH2 0x2C41 JUMP JUMPDEST SWAP1 POP PUSH1 0x0 DUP2 PUSH1 0x1 PUSH1 0x1 PUSH1 0xA0 SHL SUB AND PUSH4 0x70A08231 GAS PUSH4 0x996D79A5 MSIZE DUP2 PUSH1 0xE0 SHL DUP2 MSTORE PUSH1 0x20 DUP2 PUSH1 0x4 DUP4 CALLER PUSH1 0x0 SWAP1 GAS CALL PC PUSH1 0xE ADD JUMPI RETURNDATASIZE PUSH1 0x0 DUP1 RETURNDATACOPY RETURNDATASIZE PUSH1 0x0 REVERT JUMPDEST RETURNDATASIZE PUSH1 0x1 EQ ISZERO PC PUSH1 0xA ADD JUMPI PUSH1 0x1 PUSH1 0x0 RETURN JUMPDEST DUP1 MLOAD SWAP3 POP PUSH1 0x0 JUMPDEST PUSH1 0x40 DUP2 LT ISZERO PUSH2 0x36BE JUMPI PUSH1 0x0 DUP3 DUP3 ADD MSTORE PUSH1 0x20 ADD PUSH2 0x36A7 JUMP JUMPDEST POP POP POP PUSH1 0x40 MLOAD PUSH1 0x1 PUSH1 0x1 PUSH1 0xE0 SHL SUB NOT PUSH1 0xE0 DUP5 SWAP1 SHL AND DUP2 MSTORE PUSH1 0x1 PUSH1 0x1 PUSH1 0xA0 SHL SUB SWAP1 SWAP2 AND PUSH1 0x4 DUP3 ADD MSTORE PUSH1 0x24 ADD PUSH1 0x20 PUSH1 0x40 MLOAD DUP1 DUP4 SUB DUP2 DUP7 DUP1 PUSH2 0x36FB PUSH2 0x425E JUMP JUMPDEST ISZERO DUP1 ISZERO PUSH2 0x3710 JUMPI PUSH1 0x0 DUP1 PUSH2 0x370D PUSH2 0x414A JUMP JUMPDEST POP POP JUMPDEST POP GAS PUSH2 0x371A PUSH2 0x42AA JUMP JUMPDEST POP POP POP POP POP ISZERO DUP1 ISZERO PUSH2 0x3739 JUMPI RETURNDATASIZE PUSH1 0x0 DUP1 RETURNDATACOPY RETURNDATASIZE PUSH1 0x0 PUSH2 0x3736 PUSH2 0x414A JUMP JUMPDEST POP POP JUMPDEST POP POP POP POP PUSH1 0x40 MLOAD RETURNDATASIZE PUSH1 0x20 DUP2 LT ISZERO PUSH2 0x3758 JUMPI PUSH1 0x0 DUP1 PUSH2 0x3755 PUSH2 0x414A JUMP JUMPDEST POP POP JUMPDEST DUP2 ADD SWAP1 DUP1 DUP1 MLOAD SWAP4 POP POP DUP3 ISZERO SWAP2 POP PUSH2 0x3826 SWAP1 POP JUMPI DUP2 PUSH1 0x1 PUSH1 0x1 PUSH1 0xA0 SHL SUB AND PUSH4 0xA9059CBB DUP6 DUP4 PUSH1 0x40 MLOAD PUSH1 0x1 PUSH1 0x1 PUSH1 0xE0 SHL SUB NOT PUSH1 0xE0 DUP6 SWAP1 SHL AND DUP2 MSTORE PUSH1 0x1 PUSH1 0x1 PUSH1 0xA0 SHL SUB SWAP1 SWAP3 AND PUSH1 0x4 DUP4 ADD MSTORE PUSH1 0x24 DUP3 ADD MSTORE PUSH1 0x44 ADD PUSH1 0x20 PUSH1 0x40 MLOAD DUP1 DUP4 SUB DUP2 PUSH1 0x0 DUP8 DUP1 PUSH2 0x37BD PUSH2 0x425E JUMP JUMPDEST ISZERO DUP1 ISZERO PUSH2 0x37D2 JUMPI PUSH1 0x0 DUP1 PUSH2 0x37CF PUSH2 0x414A JUMP JUMPDEST POP POP JUMPDEST POP GAS PUSH2 0x37DC PUSH2 0x4363 JUMP JUMPDEST POP POP POP POP POP POP ISZERO DUP1 ISZERO PUSH2 0x37FC JUMPI RETURNDATASIZE PUSH1 0x0 DUP1 RETURNDATACOPY RETURNDATASIZE PUSH1 0x0 PUSH2 0x37F9 PUSH2 0x414A JUMP JUMPDEST POP POP JUMPDEST POP POP POP POP PUSH1 0x40 MLOAD RETURNDATASIZE PUSH1 0x20 DUP2 LT ISZERO PUSH2 0x381B JUMPI PUSH1 0x0 DUP1 PUSH2 0x3818 PUSH2 0x414A JUMP JUMPDEST POP POP JUMPDEST DUP2 ADD SWAP1 DUP1 DUP1 MLOAD POP POP POP POP JUMPDEST PUSH1 0x0 PUSH1 0x5 PUSH2 0x3832 PUSH2 0x41B5 JUMP JUMPDEST SWAP1 PUSH2 0x100 EXP SWAP1 DIV PUSH1 0x1 PUSH1 0x1 PUSH1 0xA0 SHL SUB AND PUSH1 0x1 PUSH1 0x1 PUSH1 0xA0 SHL SUB AND PUSH4 0xC8DB233E DUP6 PUSH1 0x40 MLOAD PUSH1 0x1 PUSH1 0x1 PUSH1 0xE0 SHL SUB NOT PUSH1 0xE0 DUP5 SWAP1 SHL AND DUP2 MSTORE PUSH1 0x1 PUSH1 0x1 PUSH1 0xA0 SHL SUB SWAP1 SWAP2 AND PUSH1 0x4 DUP3 ADD MSTORE PUSH1 0x24 ADD PUSH1 0x0 PUSH1 0x40 MLOAD DUP1 DUP4 SUB DUP2 PUSH1 0x0 DUP8 DUP1 PUSH2 0x388D PUSH2 0x425E JUMP JUMPDEST ISZERO DUP1 ISZERO PUSH2 0x38A2 JUMPI PUSH1 0x0 DUP1 PUSH2 0x389F PUSH2 0x414A JUMP JUMPDEST POP POP JUMPDEST POP GAS PUSH2 0x38AC PUSH2 0x4363 JUMP JUMPDEST POP POP POP POP POP POP ISZERO DUP1 ISZERO PUSH2 0x38CC JUMPI RETURNDATASIZE PUSH1 0x0 DUP1 RETURNDATACOPY RETURNDATASIZE PUSH1 0x0 PUSH2 0x38C9 PUSH2 0x414A JUMP JUMPDEST POP POP JUMPDEST POP POP POP POP PUSH1 0x5 PUSH1 0x1 ADD PUSH1 0x0 SWAP1 PUSH2 0x38E0 PUSH2 0x41B5 JUMP JUMPDEST SWAP1 PUSH2 0x100 EXP SWAP1 DIV PUSH1 0x1 PUSH1 0x1 PUSH1 0xA0 SHL SUB AND PUSH1 0x1 PUSH1 0x1 PUSH1 0xA0 SHL SUB AND PUSH4 0xC8DB233E DUP6 PUSH1 0x40 MLOAD PUSH1 0x1 PUSH1 0x1 PUSH1 0xE0 SHL SUB NOT PUSH1 0xE0 DUP5 SWAP1 SHL AND DUP2 MSTORE PUSH1 0x1 PUSH1 0x1 PUSH1 0xA0 SHL SUB SWAP1 SWAP2 AND PUSH1 0x4 DUP3 ADD MSTORE PUSH1 0x24 ADD PUSH1 0x0 PUSH1 0x40 MLOAD DUP1 DUP4 SUB DUP2 PUSH1 0x0 DUP8 DUP1 PUSH2 0x393B PUSH2 0x425E JUMP JUMPDEST ISZERO DUP1 ISZERO PUSH2 0x3950 JUMPI PUSH1 0x0 DUP1 PUSH2 0x394D PUSH2 0x414A JUMP JUMPDEST POP POP JUMPDEST POP GAS PUSH2 0x395A PUSH2 0x4363 JUMP JUMPDEST POP POP POP POP POP POP ISZERO DUP1 ISZERO PUSH2 0x397A JUMPI RETURNDATASIZE PUSH1 0x0 DUP1 RETURNDATACOPY RETURNDATASIZE PUSH1 0x0 PUSH2 0x3977 PUSH2 0x414A JUMP JUMPDEST POP POP JUMPDEST POP POP POP POP POP POP POP POP JUMP JUMPDEST PUSH1 0x0 DUP1 DUP1 PUSH1 0x5 PUSH2 0x3992 PUSH2 0x41B5 JUMP JUMPDEST SWAP1 PUSH2 0x100 EXP SWAP1 DIV PUSH1 0x1 PUSH1 0x1 PUSH1 0xA0 SHL SUB AND PUSH1 0x1 PUSH1 0x1 PUSH1 0xA0 SHL SUB AND PUSH4 0x70A08231 DUP5 PUSH1 0x40 MLOAD PUSH1 0x1 PUSH1 0x1 PUSH1 0xE0 SHL SUB NOT PUSH1 0xE0 DUP5 SWAP1 SHL AND DUP2 MSTORE PUSH1 0x1 PUSH1 0x1 PUSH1 0xA0 SHL SUB SWAP1 SWAP2 AND PUSH1 0x4 DUP3 ADD MSTORE PUSH1 0x24 ADD PUSH1 0x20 PUSH1 0x40 MLOAD DUP1 DUP4 SUB DUP2 DUP7 DUP1 PUSH2 0x39EB PUSH2 0x425E JUMP JUMPDEST ISZERO DUP1 ISZERO PUSH2 0x3A00 JUMPI PUSH1 0x0 DUP1 PUSH2 0x39FD PUSH2 0x414A JUMP JUMPDEST POP POP JUMPDEST POP GAS PUSH2 0x3A0A PUSH2 0x42AA JUMP JUMPDEST POP POP POP POP POP ISZERO DUP1 ISZERO PUSH2 0x3A29 JUMPI RETURNDATASIZE PUSH1 0x0 DUP1 RETURNDATACOPY RETURNDATASIZE PUSH1 0x0 PUSH2 0x3A26 PUSH2 0x414A JUMP JUMPDEST POP POP JUMPDEST POP POP POP POP PUSH1 0x40 MLOAD RETURNDATASIZE PUSH1 0x20 DUP2 LT ISZERO PUSH2 0x3A48 JUMPI PUSH1 0x0 DUP1 PUSH2 0x3A45 PUSH2 0x414A JUMP JUMPDEST POP POP JUMPDEST DUP2 ADD SWAP1 DUP1 DUP1 MLOAD SWAP3 POP PUSH1 0x0 SWAP2 POP PUSH1 0x6 SWAP1 POP PUSH2 0x3A60 PUSH2 0x41B5 JUMP JUMPDEST SWAP1 PUSH2 0x100 EXP SWAP1 DIV PUSH1 0x1 PUSH1 0x1 PUSH1 0xA0 SHL SUB AND PUSH1 0x1 PUSH1 0x1 PUSH1 0xA0 SHL SUB AND PUSH4 0x70A08231 DUP6 PUSH1 0x40 MLOAD PUSH1 0x1 PUSH1 0x1 PUSH1 0xE0 SHL SUB NOT PUSH1 0xE0 DUP5 SWAP1 SHL AND DUP2 MSTORE PUSH1 0x1 PUSH1 0x1 PUSH1 0xA0 SHL SUB SWAP1 SWAP2 AND PUSH1 0x4 DUP3 ADD MSTORE PUSH1 0x24 ADD PUSH1 0x20 PUSH1 0x40 MLOAD DUP1 DUP4 SUB DUP2 DUP7 DUP1 PUSH2 0x2F83 PUSH2 0x425E JUMP JUMPDEST PUSH1 0x0 DUP1 DUP1 PUSH2 0x3AC5 PUSH2 0x41B5 JUMP JUMPDEST SWAP1 PUSH2 0x100 EXP SWAP1 DIV PUSH1 0x1 PUSH1 0x1 PUSH1 0xA0 SHL SUB AND SWAP1 POP SWAP1 JUMP JUMPDEST PUSH1 0x0 DUP1 DUP5 PUSH1 0x1 DUP2 GT ISZERO PUSH2 0x3AE9 JUMPI INVALID JUMPDEST EQ ISZERO PUSH2 0x3AF6 JUMPI POP DUP2 PUSH2 0x2C95 JUMP JUMPDEST POP SWAP3 SWAP2 POP POP JUMP JUMPDEST PUSH1 0x0 PUSH1 0x14 PUSH1 0x15 PUSH2 0x3B0B PUSH2 0x41B5 JUMP JUMPDEST SWAP1 PUSH2 0x100 EXP SWAP1 DIV PUSH1 0xFF AND DUP1 ISZERO PUSH2 0x7DD JUMPI POP GAS PUSH2 0x3B25 PUSH2 0x44C4 JUMP JUMPDEST PUSH1 0xB PUSH2 0x3B2F PUSH2 0x41B5 JUMP JUMPDEST LT DUP1 PUSH2 0x7DD JUMPI POP PUSH1 0x14 PUSH2 0x3B40 PUSH2 0x41B5 JUMP JUMPDEST ISZERO SWAP1 POP SWAP1 JUMP JUMPDEST PUSH1 0x0 DUP3 DUP3 GT ISZERO PUSH2 0x3BA5 JUMPI PUSH1 0x40 MLOAD PUSH3 0x461BCD PUSH1 0xE5 SHL DUP2 MSTORE PUSH1 0x20 PUSH1 0x4 DUP3 ADD MSTORE PUSH1 0x1E PUSH1 0x24 DUP3 ADD MSTORE PUSH32 0x536166654D6174683A207375627472616374696F6E206F766572666C6F770000 PUSH1 0x44 DUP3 ADD MSTORE PUSH1 0x64 ADD PUSH1 0x40 MLOAD DUP1 SWAP2 SUB SWAP1 PUSH2 0x3BA2 PUSH2 0x414A JUMP JUMPDEST POP POP JUMPDEST POP SWAP1 SUB SWAP1 JUMP JUMPDEST PUSH1 0x0 PUSH2 0x3BBD DUP4 DUP4 PUSH4 0xFFFFFFFF PUSH2 0x2C9C AND JUMP JUMPDEST SWAP1 POP DUP1 PUSH1 0x12 PUSH2 0x3BCA PUSH2 0x41B5 JUMP JUMPDEST GT ISZERO PUSH2 0x3C1C JUMPI PUSH1 0x40 MLOAD PUSH3 0x461BCD PUSH1 0xE5 SHL DUP2 MSTORE PUSH1 0x20 PUSH1 0x4 DUP3 ADD MSTORE PUSH1 0x14 PUSH1 0x24 DUP3 ADD MSTORE PUSH20 0x125B9CDD59999A58DA595B9D0818D85C1A5D185B PUSH1 0x62 SHL PUSH1 0x44 DUP3 ADD MSTORE PUSH1 0x64 ADD PUSH1 0x40 MLOAD DUP1 SWAP2 SUB SWAP1 PUSH2 0x3C19 PUSH2 0x414A JUMP JUMPDEST POP POP JUMPDEST PUSH1 0x0 PUSH1 0x13 PUSH2 0x3C28 PUSH2 0x41B5 JUMP JUMPDEST SWAP1 POP PUSH2 0x3C3A DUP5 DUP4 PUSH4 0xFFFFFFFF PUSH2 0x4029 AND JUMP JUMPDEST DUP2 GT ISZERO DUP1 ISZERO PUSH2 0x3C58 JUMPI POP PUSH2 0x3C54 DUP4 DUP4 PUSH4 0xFFFFFFFF PUSH2 0x4029 AND JUMP JUMPDEST DUP2 GT ISZERO JUMPDEST PUSH2 0x3CA0 JUMPI PUSH1 0x40 MLOAD PUSH3 0x461BCD PUSH1 0xE5 SHL DUP2 MSTORE PUSH1 0x20 PUSH1 0x4 DUP3 ADD MSTORE PUSH1 0xF PUSH1 0x24 DUP3 ADD MSTORE PUSH15 0x109A591CC81D1BDBC81CDAD95DD959 PUSH1 0x8A SHL PUSH1 0x44 DUP3 ADD MSTORE PUSH1 0x64 ADD PUSH1 0x40 MLOAD DUP1 SWAP2 SUB SWAP1 PUSH2 0x120F PUSH2 0x414A JUMP JUMPDEST POP POP POP POP JUMP JUMPDEST PUSH1 0x0 DUP1 DUP3 PUSH1 0x1 DUP2 GT ISZERO PUSH2 0x3CB5 JUMPI INVALID JUMPDEST EQ ISZERO PUSH2 0x3CDE JUMPI PUSH1 0x0 PUSH1 0x5 PUSH2 0x3CC7 PUSH2 0x41B5 JUMP JUMPDEST SWAP1 PUSH2 0x100 EXP SWAP1 DIV PUSH1 0x1 PUSH1 0x1 PUSH1 0xA0 SHL SUB AND SWAP1 POP PUSH2 0x1405 JUMP JUMPDEST PUSH1 0x0 PUSH1 0x6 PUSH2 0x3CEA PUSH2 0x41B5 JUMP JUMPDEST SWAP1 PUSH2 0x100 EXP SWAP1 DIV PUSH1 0x1 PUSH1 0x1 PUSH1 0xA0 SHL SUB AND SWAP1 POP SWAP2 SWAP1 POP JUMP JUMPDEST PUSH1 0x0 DUP1 PUSH2 0x3D0F DUP6 DUP6 DUP6 PUSH2 0x3E41 JUMP JUMPDEST SWAP2 POP SWAP2 POP PUSH1 0x40 MLOAD PUSH1 0x40 DUP1 DUP3 ADD SWAP1 MSTORE DUP3 DUP2 MSTORE PUSH1 0x20 DUP2 ADD DUP3 SWAP1 MSTORE PUSH1 0x7 DUP2 MLOAD DUP2 PUSH2 0x3D34 PUSH2 0x4210 JUMP JUMPDEST POP POP PUSH1 0x20 DUP3 ADD MLOAD DUP2 PUSH1 0x1 ADD PUSH2 0x3D47 PUSH2 0x4210 JUMP JUMPDEST POP POP SWAP1 POP POP PUSH32 0x6546F60F34DF611FA42503098ACC39D5AB88BC73FEBE64B3CC14E5A92E3A66A7 DUP3 DUP3 PUSH1 0x40 MLOAD SWAP2 DUP3 MSTORE PUSH1 0x20 DUP3 ADD MSTORE PUSH1 0x40 SWAP1 DUP2 ADD SWAP1 MLOAD DUP1 SWAP2 SUB SWAP1 LOG1 POP POP POP POP POP JUMP JUMPDEST PUSH1 0x0 PUSH2 0x3DA9 DUP3 PUSH1 0x14 PUSH2 0x3D9D PUSH2 0x41B5 JUMP JUMPDEST SWAP1 PUSH4 0xFFFFFFFF PUSH2 0x2C9C AND JUMP JUMPDEST SWAP1 POP DUP1 DUP1 PUSH1 0x14 PUSH2 0x3DB7 PUSH2 0x4210 JUMP JUMPDEST POP POP POP PUSH2 0x3DC2 PUSH2 0x3AB9 JUMP JUMPDEST PUSH1 0x1 PUSH1 0x1 PUSH1 0xA0 SHL SUB AND PUSH4 0xAEAB5849 DUP4 PUSH1 0x40 MLOAD PUSH1 0x1 PUSH1 0x1 PUSH1 0xE0 SHL SUB NOT PUSH1 0xE0 DUP5 SWAP1 SHL AND DUP2 MSTORE PUSH1 0x4 DUP2 ADD SWAP2 SWAP1 SWAP2 MSTORE PUSH1 0x24 ADD PUSH1 0x0 PUSH1 0x40 MLOAD DUP1 DUP4 SUB DUP2 PUSH1 0x0 DUP8 DUP1 PUSH2 0x2D70 PUSH2 0x425E JUMP JUMPDEST PUSH1 0x0 DUP2 DUP4 LT PUSH2 0x3E23 JUMPI PUSH2 0x3E1E DUP4 DUP4 PUSH4 0xFFFFFFFF PUSH2 0x3B46 AND JUMP JUMPDEST PUSH2 0x2C95 JUMP JUMPDEST POP PUSH1 0x0 SWAP3 SWAP2 POP POP JUMP JUMPDEST PUSH1 0x0 PUSH2 0x2C95 DUP4 DUP4 PUSH8 0xDE0B6B3A7640000 PUSH2 0x4053 JUMP JUMPDEST PUSH1 0x0 DUP1 DUP5 ISZERO DUP1 ISZERO SWAP1 PUSH2 0x3E52 JUMPI POP DUP4 ISZERO ISZERO JUMPDEST PUSH2 0x3EA2 JUMPI PUSH1 0x40 MLOAD PUSH3 0x461BCD PUSH1 0xE5 SHL DUP2 MSTORE PUSH1 0x20 PUSH1 0x4 DUP3 ADD MSTORE PUSH1 0x14 PUSH1 0x24 DUP3 ADD MSTORE PUSH20 0x42696473206D757374206265206E6F6E7A65726F PUSH1 0x60 SHL PUSH1 0x44 DUP3 ADD MSTORE PUSH1 0x64 ADD PUSH1 0x40 MLOAD DUP1 SWAP2 SUB SWAP1 PUSH2 0x3E9F PUSH2 0x414A JUMP JUMPDEST POP POP JUMPDEST PUSH1 0x0 PUSH2 0x3EAD DUP5 PUSH2 0x2921 JUMP JUMPDEST SWAP1 POP PUSH2 0x3EBF DUP7 DUP3 PUSH4 0xFFFFFFFF PUSH2 0x3E2C AND JUMP JUMPDEST PUSH2 0x3ECF DUP7 DUP4 PUSH4 0xFFFFFFFF PUSH2 0x3E2C AND JUMP JUMPDEST SWAP3 POP SWAP3 POP POP SWAP4 POP SWAP4 SWAP2 POP POP JUMP JUMPDEST PUSH1 0x0 DUP3 DUP2 MSTORE PUSH1 0x3 PUSH1 0x20 MSTORE DUP1 PUSH1 0x40 DUP2 KECCAK256 PUSH1 0x0 SWAP1 PUSH2 0x3EF6 PUSH2 0x41B5 JUMP JUMPDEST PUSH1 0x1 PUSH1 0x1 PUSH1 0xA0 SHL SUB PUSH2 0x100 SWAP3 SWAP1 SWAP3 EXP SWAP1 DIV AND SWAP1 POP DUP3 DUP2 PUSH2 0x3F9D JUMPI PUSH1 0x40 MLOAD PUSH3 0x461BCD PUSH1 0xE5 SHL DUP2 MSTORE PUSH1 0x4 ADD DUP1 DUP1 PUSH1 0x20 ADD DUP3 DUP2 SUB DUP3 MSTORE DUP4 DUP2 DUP2 MLOAD DUP2 MSTORE PUSH1 0x20 ADD SWAP2 POP DUP1 MLOAD SWAP1 PUSH1 0x20 ADD SWAP1 DUP1 DUP4 DUP4 PUSH1 0x0 JUMPDEST DUP4 DUP2 LT ISZERO PUSH2 0x3F59 JUMPI DUP1 DUP3 ADD MLOAD DUP4 DUP3 ADD MSTORE PUSH1 0x20 ADD PUSH2 0x3F41 JUMP JUMPDEST POP POP POP POP SWAP1 POP SWAP1 DUP2 ADD SWAP1 PUSH1 0x1F AND DUP1 ISZERO PUSH2 0x3F86 JUMPI DUP1 DUP3 SUB DUP1 MLOAD PUSH1 0x1 DUP4 PUSH1 0x20 SUB PUSH2 0x100 EXP SUB NOT AND DUP2 MSTORE PUSH1 0x20 ADD SWAP2 POP JUMPDEST POP SWAP3 POP POP POP PUSH1 0x40 MLOAD DUP1 SWAP2 SUB SWAP1 PUSH2 0x3F9A PUSH2 0x414A JUMP JUMPDEST POP POP JUMPDEST POP SWAP4 SWAP3 POP POP POP JUMP JUMPDEST PUSH1 0x0 PUSH2 0x7DD PUSH13 0x45786368616E67655261746573 PUSH1 0x98 SHL PUSH1 0x40 MLOAD PUSH1 0x40 DUP1 DUP3 ADD SWAP1 MSTORE PUSH1 0x15 DUP2 MSTORE PUSH21 0x4D697373696E672045786368616E67655261746573 PUSH1 0x58 SHL PUSH1 0x20 DUP3 ADD MSTORE PUSH2 0x3EDC JUMP JUMPDEST PUSH1 0x0 DUP1 PUSH1 0xA DUP4 DIV PUSH2 0x4003 DUP7 DUP7 PUSH4 0xFFFFFFFF PUSH2 0x4079 AND JUMP JUMPDEST DUP2 PUSH2 0x400A JUMPI INVALID JUMPDEST DIV SWAP1 POP PUSH1 0x5 PUSH1 0xA DUP3 JUMPDEST MOD LT PUSH2 0x401D JUMPI PUSH1 0xA ADD JUMPDEST PUSH1 0xA SWAP1 DIV SWAP5 SWAP4 POP POP POP POP JUMP JUMPDEST PUSH1 0x0 PUSH2 0x2C95 DUP3 PUSH2 0x4047 DUP6 PUSH8 0xDE0B6B3A7640000 PUSH4 0xFFFFFFFF PUSH2 0x4079 AND JUMP JUMPDEST SWAP1 PUSH4 0xFFFFFFFF PUSH2 0x40D8 AND JUMP JUMPDEST PUSH1 0x0 DUP1 PUSH2 0x406D DUP5 PUSH2 0x4047 DUP8 PUSH1 0xA DUP8 MUL PUSH4 0xFFFFFFFF PUSH2 0x4079 AND JUMP JUMPDEST SWAP1 POP PUSH1 0x5 PUSH1 0xA DUP3 PUSH2 0x4013 JUMP JUMPDEST PUSH1 0x0 DUP3 PUSH2 0x4088 JUMPI POP PUSH1 0x0 PUSH2 0x1F76 JUMP JUMPDEST DUP3 DUP3 MUL DUP3 DUP5 DUP3 DUP2 PUSH2 0x4095 JUMPI INVALID JUMPDEST DIV EQ PUSH2 0x2C95 JUMPI PUSH1 0x40 MLOAD PUSH3 0x461BCD PUSH1 0xE5 SHL DUP2 MSTORE PUSH1 0x4 ADD DUP1 DUP1 PUSH1 0x20 ADD DUP3 DUP2 SUB DUP3 MSTORE PUSH1 0x21 DUP2 MSTORE PUSH1 0x20 ADD DUP1 PUSH2 0x456F PUSH1 0x21 SWAP2 CODECOPY PUSH1 0x40 ADD SWAP2 POP POP PUSH1 0x40 MLOAD DUP1 SWAP2 SUB SWAP1 PUSH2 0x2CFB PUSH2 0x414A JUMP JUMPDEST PUSH1 0x0 DUP1 DUP3 GT PUSH2 0x4136 JUMPI PUSH1 0x40 MLOAD PUSH3 0x461BCD PUSH1 0xE5 SHL DUP2 MSTORE PUSH1 0x20 PUSH1 0x4 DUP3 ADD MSTORE PUSH1 0x1A PUSH1 0x24 DUP3 ADD MSTORE PUSH32 0x536166654D6174683A206469766973696F6E206279207A65726F000000000000 PUSH1 0x44 DUP3 ADD MSTORE PUSH1 0x64 ADD PUSH1 0x40 MLOAD DUP1 SWAP2 SUB SWAP1 PUSH2 0x4133 PUSH2 0x414A JUMP JUMPDEST POP POP JUMPDEST PUSH1 0x0 DUP3 DUP5 DUP2 PUSH2 0x4141 JUMPI INVALID JUMPDEST DIV SWAP5 SWAP4 POP POP POP POP JUMP JUMPDEST PUSH4 0x2A2A7ADB MSIZE DUP2 PUSH1 0xE0 SHL DUP2 MSTORE PUSH1 0x4 DUP2 ADD PUSH1 0x20 DUP2 MSTORE DUP6 PUSH1 0x20 DUP3 ADD MSTORE PUSH1 0x0 JUMPDEST DUP7 DUP2 LT ISZERO PUSH2 0x4182 JUMPI DUP1 DUP7 ADD MLOAD DUP3 DUP3 ADD PUSH1 0x40 ADD MSTORE PUSH1 0x20 ADD PUSH2 0x4167 JUMP JUMPDEST POP PUSH1 0x20 DUP3 DUP8 PUSH1 0x64 ADD DUP5 CALLER PUSH1 0x0 SWAP1 GAS CALL PC PUSH1 0xE ADD JUMPI RETURNDATASIZE PUSH1 0x0 DUP1 RETURNDATACOPY RETURNDATASIZE PUSH1 0x0 REVERT JUMPDEST RETURNDATASIZE PUSH1 0x1 EQ ISZERO PC PUSH1 0xA ADD JUMPI PUSH1 0x1 PUSH1 0x0 RETURN JUMPDEST POP POP POP JUMP JUMPDEST PUSH4 0x3DAA959 MSIZE DUP2 PUSH1 0xE0 SHL DUP2 MSTORE DUP4 PUSH1 0x4 DUP3 ADD MSTORE PUSH1 0x20 DUP2 PUSH1 0x24 DUP4 CALLER PUSH1 0x0 SWAP1 GAS CALL PC PUSH1 0xE ADD JUMPI RETURNDATASIZE PUSH1 0x0 DUP1 RETURNDATACOPY RETURNDATASIZE PUSH1 0x0 REVERT JUMPDEST RETURNDATASIZE PUSH1 0x1 EQ ISZERO PC PUSH1 0xA ADD JUMPI PUSH1 0x1 PUSH1 0x0 RETURN JUMPDEST DUP1 MLOAD SWAP4 POP PUSH1 0x0 JUMPDEST PUSH1 0x40 DUP2 LT ISZERO PUSH2 0x159E JUMPI PUSH1 0x0 DUP3 DUP3 ADD MSTORE PUSH1 0x20 ADD PUSH2 0x41F9 JUMP JUMPDEST PUSH4 0x22BD64C0 MSIZE DUP2 PUSH1 0xE0 SHL DUP2 MSTORE DUP4 PUSH1 0x4 DUP3 ADD MSTORE DUP5 PUSH1 0x24 DUP3 ADD MSTORE PUSH1 0x0 DUP2 PUSH1 0x44 DUP4 CALLER PUSH1 0x0 SWAP1 GAS CALL PC PUSH1 0xE ADD JUMPI RETURNDATASIZE PUSH1 0x0 DUP1 RETURNDATACOPY RETURNDATASIZE PUSH1 0x0 REVERT JUMPDEST RETURNDATASIZE PUSH1 0x1 EQ ISZERO PC PUSH1 0xA ADD JUMPI PUSH1 0x1 PUSH1 0x0 RETURN JUMPDEST PUSH1 0x0 DUP2 MSTORE PUSH1 0x20 PUSH2 0x41F9 JUMP JUMPDEST PUSH4 0x8435035B MSIZE DUP2 PUSH1 0xE0 SHL DUP2 MSTORE DUP4 PUSH1 0x4 DUP3 ADD MSTORE PUSH1 0x20 DUP2 PUSH1 0x24 DUP4 CALLER PUSH1 0x0 SWAP1 GAS CALL PC PUSH1 0xE ADD JUMPI RETURNDATASIZE PUSH1 0x0 DUP1 RETURNDATACOPY RETURNDATASIZE PUSH1 0x0 REVERT JUMPDEST RETURNDATASIZE PUSH1 0x1 EQ ISZERO PC PUSH1 0xA ADD JUMPI PUSH1 0x1 PUSH1 0x0 RETURN JUMPDEST DUP1 MLOAD PUSH1 0x0 DUP3 MSTORE SWAP4 POP PUSH1 0x20 PUSH2 0x41F9 JUMP JUMPDEST PUSH4 0x8540661F MSIZE DUP2 PUSH1 0xE0 SHL DUP2 MSTORE DUP4 PUSH1 0x4 DUP3 ADD MSTORE DUP5 PUSH1 0x24 DUP3 ADD MSTORE PUSH1 0x60 PUSH1 0x44 DUP3 ADD MSTORE DUP7 PUSH1 0x64 DUP3 ADD MSTORE PUSH1 0x84 DUP2 ADD PUSH1 0x0 JUMPDEST DUP9 DUP2 LT ISZERO PUSH2 0x42EE JUMPI DUP1 DUP9 ADD MLOAD DUP3 DUP3 ADD MSTORE PUSH1 0x20 ADD PUSH2 0x42D6 JUMP JUMPDEST POP DUP8 PUSH2 0x104 ADD DUP3 ADD PUSH1 0x60 DUP4 DUP11 PUSH2 0x104 ADD DUP6 CALLER PUSH1 0x0 SWAP1 GAS CALL PC PUSH1 0xE ADD JUMPI RETURNDATASIZE PUSH1 0x0 DUP1 RETURNDATACOPY RETURNDATASIZE PUSH1 0x0 REVERT JUMPDEST RETURNDATASIZE PUSH1 0x1 EQ ISZERO PC PUSH1 0xA ADD JUMPI PUSH1 0x1 PUSH1 0x0 RETURN JUMPDEST DUP3 MLOAD PUSH1 0x40 DUP5 ADD MLOAD RETURNDATASIZE PUSH1 0x0 DUP7 RETURNDATACOPY DUP13 DUP13 DUP3 PUSH1 0x60 DUP9 ADD CALLER POP PUSH1 0x0 PUSH1 0x4 GAS CALL POP MSIZE DUP6 JUMPDEST DUP2 DUP2 LT ISZERO PUSH2 0x4357 JUMPI PUSH1 0x0 DUP2 MSTORE PUSH1 0x20 ADD PUSH2 0x4343 JUMP JUMPDEST POP SWAP2 SWAP13 POP POP POP POP POP POP POP JUMP JUMPDEST PUSH4 0x85979F76 MSIZE DUP2 PUSH1 0xE0 SHL DUP2 MSTORE DUP4 PUSH1 0x4 DUP3 ADD MSTORE DUP5 PUSH1 0x24 DUP3 ADD MSTORE PUSH1 0x60 PUSH1 0x44 DUP3 ADD MSTORE DUP8 PUSH1 0x64 DUP3 ADD MSTORE PUSH1 0x84 DUP2 ADD PUSH1 0x0 JUMPDEST DUP10 DUP2 LT ISZERO PUSH2 0x43A7 JUMPI DUP1 DUP10 ADD MLOAD DUP3 DUP3 ADD MSTORE PUSH1 0x20 ADD PUSH2 0x438F JUMP JUMPDEST POP DUP9 PUSH2 0x104 ADD DUP3 ADD PUSH1 0x60 DUP4 DUP12 PUSH2 0x104 ADD DUP6 CALLER PUSH1 0x0 SWAP1 GAS CALL PC PUSH1 0xE ADD JUMPI RETURNDATASIZE PUSH1 0x0 DUP1 RETURNDATACOPY RETURNDATASIZE PUSH1 0x0 REVERT JUMPDEST RETURNDATASIZE PUSH1 0x1 EQ ISZERO PC PUSH1 0xA ADD JUMPI PUSH1 0x1 PUSH1 0x0 RETURN JUMPDEST DUP3 MLOAD PUSH1 0x40 DUP5 ADD MLOAD RETURNDATASIZE PUSH1 0x0 DUP7 RETURNDATACOPY DUP14 DUP14 DUP3 PUSH1 0x60 DUP9 ADD CALLER POP PUSH1 0x0 PUSH1 0x4 GAS CALL POP MSIZE DUP6 JUMPDEST DUP2 DUP2 LT ISZERO PUSH2 0x4410 JUMPI PUSH1 0x0 DUP2 MSTORE PUSH1 0x20 ADD PUSH2 0x43FC JUMP JUMPDEST POP SWAP2 SWAP14 POP POP POP POP POP POP POP JUMP JUMPDEST PUSH4 0x73509064 MSIZE DUP2 PUSH1 0xE0 SHL DUP2 MSTORE PUSH1 0x20 DUP2 PUSH1 0x4 DUP4 CALLER PUSH1 0x0 SWAP1 GAS CALL PC PUSH1 0xE ADD JUMPI RETURNDATASIZE PUSH1 0x0 DUP1 RETURNDATACOPY RETURNDATASIZE PUSH1 0x0 REVERT JUMPDEST RETURNDATASIZE PUSH1 0x1 EQ ISZERO PC PUSH1 0xA ADD JUMPI PUSH1 0x1 PUSH1 0x0 RETURN JUMPDEST DUP1 MLOAD PUSH1 0x0 DUP3 MSTORE SWAP4 POP PUSH1 0x20 PUSH2 0x41F9 JUMP JUMPDEST PUSH1 0x40 MLOAD PUSH2 0x300 DUP1 DUP3 ADD PUSH1 0x40 MSTORE PUSH1 0x18 SWAP1 DUP3 SWAP1 DUP1 CODESIZE DUP4 CODECOPY POP SWAP2 SWAP3 SWAP2 POP POP JUMP JUMPDEST PUSH4 0xFFE73914 MSIZE DUP2 PUSH1 0xE0 SHL DUP2 MSTORE DUP4 PUSH1 0x4 DUP3 ADD MSTORE DUP5 PUSH1 0x24 DUP3 ADD MSTORE PUSH1 0x60 PUSH1 0x44 DUP3 ADD MSTORE DUP7 PUSH1 0x64 DUP3 ADD MSTORE PUSH1 0x84 DUP2 ADD PUSH1 0x0 DUP9 DUP2 LT ISZERO PUSH2 0x42EE JUMPI DUP1 DUP9 ADD MLOAD DUP3 DUP3 ADD MSTORE PUSH1 0x20 ADD PUSH2 0x42D6 JUMP JUMPDEST INVALID JUMPDEST PUSH4 0xBDBF8C36 MSIZE DUP2 PUSH1 0xE0 SHL DUP2 MSTORE PUSH1 0x20 DUP2 PUSH1 0x4 DUP4 CALLER PUSH1 0x0 SWAP1 GAS CALL PC PUSH1 0xE ADD JUMPI RETURNDATASIZE PUSH1 0x0 DUP1 RETURNDATACOPY RETURNDATASIZE PUSH1 0x0 REVERT JUMPDEST RETURNDATASIZE PUSH1 0x1 EQ ISZERO PC PUSH1 0xA ADD JUMPI PUSH1 0x1 PUSH1 0x0 RETURN JUMPDEST DUP1 MLOAD PUSH1 0x0 DUP3 MSTORE SWAP4 POP PUSH1 0x20 PUSH2 0x41F9 JUMP INVALID MSIZE PUSH16 0x75206D757374206265206E6F6D696E61 PUSH21 0x6564206265666F726520796F752063616E20616363 PUSH6 0x7074206F776E PUSH6 0x72736869704F PUSH15 0x6C792074686520636F6E7472616374 KECCAK256 PUSH16 0x776E6572206D617920706572666F726D KECCAK256 PUSH21 0x68697320616374696F6E536166654D6174683A206D PUSH22 0x6C7469706C69636174696F6E206F766572666C6F7754 PUSH9 0x697320616374696F6E KECCAK256 PUSH4 0x616E6E6F PUSH21 0x20626520706572666F726D6564207768696C652074 PUSH9 0x6520636F6E74726163 PUSH21 0x206973207061757365646080604052348015620000 SHR JUMPI PUSH1 0x0 DUP1 PUSH3 0x19 PUSH3 0xE3 JUMP JUMPDEST POP POP JUMPDEST POP PUSH1 0x40 MLOAD PUSH3 0x19BE CODESIZE SUB DUP1 PUSH3 0x19BE DUP4 CODECOPY DUP2 DUP2 ADD PUSH1 0x40 MSTORE PUSH1 0x40 DUP2 LT ISZERO PUSH3 0x4D JUMPI PUSH1 0x0 DUP1 PUSH3 0x4A PUSH3 0xE3 JUMP JUMPDEST POP POP JUMPDEST DUP2 ADD SWAP1 DUP1 DUP1 MLOAD SWAP3 SWAP2 SWAP1 PUSH1 0x20 ADD DUP1 MLOAD SWAP3 POP POP POP GAS PUSH3 0x6A PUSH3 0x150 JUMP JUMPDEST PUSH1 0x0 PUSH1 0x1 DUP2 PUSH3 0x79 PUSH3 0x1AC JUMP JUMPDEST DUP2 PUSH1 0x1 PUSH1 0x1 PUSH1 0xA0 SHL SUB MUL NOT AND SWAP1 DUP4 PUSH1 0x1 PUSH1 0x1 PUSH1 0xA0 SHL SUB AND MUL OR SWAP1 PUSH3 0x9D PUSH3 0x1F9 JUMP JUMPDEST POP POP POP PUSH1 0x1 PUSH1 0x1 PUSH1 0xA0 SHL SUB DUP3 AND PUSH1 0x0 SWAP1 DUP2 MSTORE PUSH1 0x1 PUSH1 0x20 MSTORE DUP2 SWAP1 PUSH1 0x40 SWAP1 KECCAK256 DUP2 SWAP1 PUSH3 0xC6 PUSH3 0x1F9 JUMP JUMPDEST POP POP POP DUP1 PUSH1 0x2 DUP2 SWAP1 PUSH3 0xD8 PUSH3 0x1F9 JUMP JUMPDEST POP POP POP POP POP PUSH3 0x248 JUMP JUMPDEST PUSH4 0x2A2A7ADB MSIZE DUP2 PUSH1 0xE0 SHL DUP2 MSTORE PUSH1 0x4 DUP2 ADD PUSH1 0x20 DUP2 MSTORE DUP6 PUSH1 0x20 DUP3 ADD MSTORE PUSH1 0x0 JUMPDEST DUP7 DUP2 LT ISZERO PUSH3 0x11D JUMPI DUP1 DUP7 ADD MLOAD DUP3 DUP3 ADD PUSH1 0x40 ADD MSTORE PUSH1 0x20 ADD PUSH3 0x100 JUMP JUMPDEST POP PUSH1 0x20 DUP3 DUP8 PUSH1 0x64 ADD DUP5 CALLER PUSH1 0x0 SWAP1 GAS CALL PC PUSH1 0xE ADD JUMPI RETURNDATASIZE PUSH1 0x0 DUP1 RETURNDATACOPY RETURNDATASIZE PUSH1 0x0 REVERT JUMPDEST RETURNDATASIZE PUSH1 0x1 EQ ISZERO PC PUSH1 0xA ADD JUMPI PUSH1 0x1 PUSH1 0x0 RETURN JUMPDEST POP POP POP JUMP JUMPDEST PUSH4 0x73509064 MSIZE DUP2 PUSH1 0xE0 SHL DUP2 MSTORE PUSH1 0x20 DUP2 PUSH1 0x4 DUP4 CALLER PUSH1 0x0 SWAP1 GAS CALL PC PUSH1 0xE ADD JUMPI RETURNDATASIZE PUSH1 0x0 DUP1 RETURNDATACOPY RETURNDATASIZE PUSH1 0x0 REVERT JUMPDEST RETURNDATASIZE PUSH1 0x1 EQ ISZERO PC PUSH1 0xA ADD JUMPI PUSH1 0x1 PUSH1 0x0 RETURN JUMPDEST DUP1 MLOAD SWAP4 POP PUSH1 0x0 JUMPDEST PUSH1 0x40 DUP2 LT ISZERO PUSH3 0x1A7 JUMPI PUSH1 0x0 DUP3 DUP3 ADD MSTORE PUSH1 0x20 ADD PUSH3 0x18E JUMP JUMPDEST POP POP POP JUMP JUMPDEST PUSH4 0x3DAA959 MSIZE DUP2 PUSH1 0xE0 SHL DUP2 MSTORE DUP4 PUSH1 0x4 DUP3 ADD MSTORE PUSH1 0x20 DUP2 PUSH1 0x24 DUP4 CALLER PUSH1 0x0 SWAP1 GAS CALL PC PUSH1 0xE ADD JUMPI RETURNDATASIZE PUSH1 0x0 DUP1 RETURNDATACOPY RETURNDATASIZE PUSH1 0x0 REVERT JUMPDEST RETURNDATASIZE PUSH1 0x1 EQ ISZERO PC PUSH1 0xA ADD JUMPI PUSH1 0x1 PUSH1 0x0 RETURN JUMPDEST DUP1 MLOAD PUSH1 0x0 DUP3 MSTORE SWAP4 POP PUSH1 0x20 PUSH3 0x18E JUMP JUMPDEST PUSH4 0x22BD64C0 MSIZE DUP2 PUSH1 0xE0 SHL DUP2 MSTORE DUP4 PUSH1 0x4 DUP3 ADD MSTORE DUP5 PUSH1 0x24 DUP3 ADD MSTORE PUSH1 0x0 DUP2 PUSH1 0x44 DUP4 CALLER PUSH1 0x0 SWAP1 GAS CALL PC PUSH1 0xE ADD JUMPI RETURNDATASIZE PUSH1 0x0 DUP1 RETURNDATACOPY RETURNDATASIZE PUSH1 0x0 REVERT JUMPDEST RETURNDATASIZE PUSH1 0x1 EQ ISZERO PC PUSH1 0xA ADD JUMPI PUSH1 0x1 PUSH1 0x0 RETURN JUMPDEST PUSH1 0x0 DUP2 MSTORE PUSH1 0x20 PUSH3 0x18E JUMP JUMPDEST PUSH2 0x1766 DUP1 PUSH3 0x258 PUSH1 0x0 CODECOPY PUSH1 0x0 RETURN INVALID PUSH1 0x80 PUSH1 0x40 MSTORE CALLVALUE DUP1 ISZERO PUSH2 0x19 JUMPI PUSH1 0x0 DUP1 PUSH2 0x16 PUSH2 0x14E5 JUMP JUMPDEST POP POP JUMPDEST POP PUSH1 0x4 CALLDATASIZE LT PUSH2 0x12A JUMPI PUSH1 0x0 CALLDATALOAD PUSH1 0xE0 SHR DUP1 PUSH4 0x70A08231 GT PUSH2 0xB6 JUMPI DUP1 PUSH4 0x9C3EE244 GT PUSH2 0x7A JUMPI DUP1 PUSH4 0x9C3EE244 EQ PUSH2 0x3DF JUMPI DUP1 PUSH4 0xA9059CBB EQ PUSH2 0x40E JUMPI DUP1 PUSH4 0xC8DB233E EQ PUSH2 0x443 JUMPI DUP1 PUSH4 0xD6FF02E2 EQ PUSH2 0x472 JUMPI DUP1 PUSH4 0xDD62ED3E EQ PUSH2 0x47A JUMPI PUSH2 0x12A JUMP JUMPDEST DUP1 PUSH4 0x70A08231 EQ PUSH2 0x34D JUMPI DUP1 PUSH4 0x80F55605 EQ PUSH2 0x37C JUMPI DUP1 PUSH4 0x8B034136 EQ PUSH2 0x3A0 JUMPI DUP1 PUSH4 0x8DC30B70 EQ PUSH2 0x3A8 JUMPI DUP1 PUSH4 0x95D89B41 EQ PUSH2 0x3D7 JUMPI PUSH2 0x12A JUMP JUMPDEST DUP1 PUSH4 0x23B872DD GT PUSH2 0xFD JUMPI DUP1 PUSH4 0x23B872DD EQ PUSH2 0x24B JUMPI DUP1 PUSH4 0x2BC43FD9 EQ PUSH2 0x28A JUMPI DUP1 PUSH4 0x313CE567 EQ PUSH2 0x2C5 JUMPI DUP1 PUSH4 0x410085DF EQ PUSH2 0x2E3 JUMPI DUP1 PUSH4 0x59D667A5 EQ PUSH2 0x318 JUMPI PUSH2 0x12A JUMP JUMPDEST DUP1 PUSH4 0x6FDDE03 EQ PUSH2 0x138 JUMPI DUP1 PUSH4 0x95EA7B3 EQ PUSH2 0x1B7 JUMPI DUP1 PUSH4 0x18160DDD EQ PUSH2 0x200 JUMPI DUP1 PUSH4 0x1B15982A EQ PUSH2 0x21A JUMPI JUMPDEST PUSH1 0x0 DUP1 PUSH2 0x135 PUSH2 0x14E5 JUMP JUMPDEST POP POP JUMPDEST PUSH2 0x140 PUSH2 0x4B1 JUMP JUMPDEST PUSH1 0x40 MLOAD PUSH1 0x20 DUP1 DUP3 MSTORE DUP2 SWAP1 DUP2 ADD DUP4 DUP2 DUP2 MLOAD DUP2 MSTORE PUSH1 0x20 ADD SWAP2 POP DUP1 MLOAD SWAP1 PUSH1 0x20 ADD SWAP1 DUP1 DUP4 DUP4 PUSH1 0x0 JUMPDEST DUP4 DUP2 LT ISZERO PUSH2 0x17C JUMPI DUP1 DUP3 ADD MLOAD DUP4 DUP3 ADD MSTORE PUSH1 0x20 ADD PUSH2 0x164 JUMP JUMPDEST POP POP POP POP SWAP1 POP SWAP1 DUP2 ADD SWAP1 PUSH1 0x1F AND DUP1 ISZERO PUSH2 0x1A9 JUMPI DUP1 DUP3 SUB DUP1 MLOAD PUSH1 0x1 DUP4 PUSH1 0x20 SUB PUSH2 0x100 EXP SUB NOT AND DUP2 MSTORE PUSH1 0x20 ADD SWAP2 POP JUMPDEST POP SWAP3 POP POP POP PUSH1 0x40 MLOAD DUP1 SWAP2 SUB SWAP1 RETURN JUMPDEST PUSH2 0x1EC PUSH1 0x4 DUP1 CALLDATASIZE SUB PUSH1 0x40 DUP2 LT ISZERO PUSH2 0x1D6 JUMPI PUSH1 0x0 DUP1 PUSH2 0x1D3 PUSH2 0x14E5 JUMP JUMPDEST POP POP JUMPDEST POP PUSH1 0x1 PUSH1 0x1 PUSH1 0xA0 SHL SUB DUP2 CALLDATALOAD AND SWAP1 PUSH1 0x20 ADD CALLDATALOAD PUSH2 0x4DC JUMP JUMPDEST PUSH1 0x40 MLOAD SWAP1 ISZERO ISZERO DUP2 MSTORE PUSH1 0x20 ADD PUSH1 0x40 MLOAD DUP1 SWAP2 SUB SWAP1 RETURN JUMPDEST PUSH2 0x208 PUSH2 0x5A7 JUMP JUMPDEST PUSH1 0x40 MLOAD SWAP1 DUP2 MSTORE PUSH1 0x20 ADD PUSH1 0x40 MLOAD DUP1 SWAP2 SUB SWAP1 RETURN JUMPDEST PUSH2 0x249 PUSH1 0x4 DUP1 CALLDATASIZE SUB PUSH1 0x20 DUP2 LT ISZERO PUSH2 0x239 JUMPI PUSH1 0x0 DUP1 PUSH2 0x236 PUSH2 0x14E5 JUMP JUMPDEST POP POP JUMPDEST POP CALLDATALOAD PUSH1 0x1 PUSH1 0x1 PUSH1 0xA0 SHL SUB AND PUSH2 0x5B4 JUMP JUMPDEST STOP JUMPDEST PUSH2 0x1EC PUSH1 0x4 DUP1 CALLDATASIZE SUB PUSH1 0x60 DUP2 LT ISZERO PUSH2 0x26A JUMPI PUSH1 0x0 DUP1 PUSH2 0x267 PUSH2 0x14E5 JUMP JUMPDEST POP POP JUMPDEST POP PUSH1 0x1 PUSH1 0x1 PUSH1 0xA0 SHL SUB DUP2 CALLDATALOAD DUP2 AND SWAP2 PUSH1 0x20 DUP2 ADD CALLDATALOAD SWAP1 SWAP2 AND SWAP1 PUSH1 0x40 ADD CALLDATALOAD PUSH2 0x736 JUMP JUMPDEST PUSH2 0x208 PUSH1 0x4 DUP1 CALLDATASIZE SUB PUSH1 0x60 DUP2 LT ISZERO PUSH2 0x2A9 JUMPI PUSH1 0x0 DUP1 PUSH2 0x2A6 PUSH2 0x14E5 JUMP JUMPDEST POP POP JUMPDEST POP PUSH1 0x1 PUSH1 0x1 PUSH1 0xA0 SHL SUB DUP2 CALLDATALOAD AND SWAP1 PUSH1 0x20 DUP2 ADD CALLDATALOAD SWAP1 PUSH1 0x40 ADD CALLDATALOAD PUSH2 0x850 JUMP JUMPDEST PUSH2 0x2CD PUSH2 0xA51 JUMP JUMPDEST PUSH1 0x40 MLOAD PUSH1 0xFF SWAP1 SWAP2 AND DUP2 MSTORE PUSH1 0x20 ADD PUSH1 0x40 MLOAD DUP1 SWAP2 SUB SWAP1 RETURN JUMPDEST PUSH2 0x249 PUSH1 0x4 DUP1 CALLDATASIZE SUB PUSH1 0x40 DUP2 LT ISZERO PUSH2 0x302 JUMPI PUSH1 0x0 DUP1 PUSH2 0x2FF PUSH2 0x14E5 JUMP JUMPDEST POP POP JUMPDEST POP PUSH1 0x1 PUSH1 0x1 PUSH1 0xA0 SHL SUB DUP2 CALLDATALOAD AND SWAP1 PUSH1 0x20 ADD CALLDATALOAD PUSH2 0xA56 JUMP JUMPDEST PUSH2 0x249 PUSH1 0x4 DUP1 CALLDATASIZE SUB PUSH1 0x40 DUP2 LT ISZERO PUSH2 0x337 JUMPI PUSH1 0x0 DUP1 PUSH2 0x334 PUSH2 0x14E5 JUMP JUMPDEST POP POP JUMPDEST POP PUSH1 0x1 PUSH1 0x1 PUSH1 0xA0 SHL SUB DUP2 CALLDATALOAD AND SWAP1 PUSH1 0x20 ADD CALLDATALOAD PUSH2 0xB50 JUMP JUMPDEST PUSH2 0x208 PUSH1 0x4 DUP1 CALLDATASIZE SUB PUSH1 0x20 DUP2 LT ISZERO PUSH2 0x36C JUMPI PUSH1 0x0 DUP1 PUSH2 0x369 PUSH2 0x14E5 JUMP JUMPDEST POP POP JUMPDEST POP CALLDATALOAD PUSH1 0x1 PUSH1 0x1 PUSH1 0xA0 SHL SUB AND PUSH2 0xC33 JUMP JUMPDEST PUSH2 0x384 PUSH2 0xC4B JUMP JUMPDEST PUSH1 0x40 MLOAD PUSH1 0x1 PUSH1 0x1 PUSH1 0xA0 SHL SUB SWAP1 SWAP2 AND DUP2 MSTORE PUSH1 0x20 ADD PUSH1 0x40 MLOAD DUP1 SWAP2 SUB SWAP1 RETURN JUMPDEST PUSH2 0x208 PUSH2 0xC69 JUMP JUMPDEST PUSH2 0x208 PUSH1 0x4 DUP1 CALLDATASIZE SUB PUSH1 0x20 DUP2 LT ISZERO PUSH2 0x3C7 JUMPI PUSH1 0x0 DUP1 PUSH2 0x3C4 PUSH2 0x14E5 JUMP JUMPDEST POP POP JUMPDEST POP CALLDATALOAD PUSH1 0x1 PUSH1 0x1 PUSH1 0xA0 SHL SUB AND PUSH2 0xC73 JUMP JUMPDEST PUSH2 0x140 PUSH2 0xC8B JUMP JUMPDEST PUSH2 0x208 PUSH1 0x4 DUP1 CALLDATASIZE SUB PUSH1 0x20 DUP2 LT ISZERO PUSH2 0x3FE JUMPI PUSH1 0x0 DUP1 PUSH2 0x3FB PUSH2 0x14E5 JUMP JUMPDEST POP POP JUMPDEST POP CALLDATALOAD PUSH1 0x1 PUSH1 0x1 PUSH1 0xA0 SHL SUB AND PUSH2 0xCA9 JUMP JUMPDEST PUSH2 0x1EC PUSH1 0x4 DUP1 CALLDATASIZE SUB PUSH1 0x40 DUP2 LT ISZERO PUSH2 0x42D JUMPI PUSH1 0x0 DUP1 PUSH2 0x42A PUSH2 0x14E5 JUMP JUMPDEST POP POP JUMPDEST POP PUSH1 0x1 PUSH1 0x1 PUSH1 0xA0 SHL SUB DUP2 CALLDATALOAD AND SWAP1 PUSH1 0x20 ADD CALLDATALOAD PUSH2 0xDA2 JUMP JUMPDEST PUSH2 0x249 PUSH1 0x4 DUP1 CALLDATASIZE SUB PUSH1 0x20 DUP2 LT ISZERO PUSH2 0x462 JUMPI PUSH1 0x0 DUP1 PUSH2 0x45F PUSH2 0x14E5 JUMP JUMPDEST POP POP JUMPDEST POP CALLDATALOAD PUSH1 0x1 PUSH1 0x1 PUSH1 0xA0 SHL SUB AND PUSH2 0xDB7 JUMP JUMPDEST PUSH2 0x208 PUSH2 0xE3F JUMP JUMPDEST PUSH2 0x208 PUSH1 0x4 DUP1 CALLDATASIZE SUB PUSH1 0x40 DUP2 LT ISZERO PUSH2 0x499 JUMPI PUSH1 0x0 DUP1 PUSH2 0x496 PUSH2 0x14E5 JUMP JUMPDEST POP POP JUMPDEST POP PUSH1 0x1 PUSH1 0x1 PUSH1 0xA0 SHL SUB DUP2 CALLDATALOAD DUP2 AND SWAP2 PUSH1 0x20 ADD CALLDATALOAD AND PUSH2 0xF11 JUMP JUMPDEST PUSH1 0x40 MLOAD PUSH1 0x40 DUP1 DUP3 ADD SWAP1 MSTORE PUSH1 0x11 DUP2 MSTORE PUSH17 0x29A72C102134B730B93C9027B83A34B7B7 PUSH1 0x79 SHL PUSH1 0x20 DUP3 ADD MSTORE DUP2 JUMP JUMPDEST PUSH1 0x0 PUSH1 0x1 PUSH1 0x1 PUSH1 0xA0 SHL SUB DUP4 AND PUSH2 0x4FA JUMPI PUSH1 0x0 DUP1 PUSH2 0x4F7 PUSH2 0x14E5 JUMP JUMPDEST POP POP JUMPDEST DUP2 PUSH1 0x5 PUSH1 0x0 GAS PUSH2 0x508 PUSH2 0x1550 JUMP JUMPDEST PUSH1 0x1 PUSH1 0x1 PUSH1 0xA0 SHL SUB AND PUSH1 0x1 PUSH1 0x1 PUSH1 0xA0 SHL SUB AND DUP2 MSTORE PUSH1 0x20 ADD SWAP1 DUP2 MSTORE PUSH1 0x20 ADD PUSH1 0x0 KECCAK256 PUSH1 0x1 PUSH1 0x1 PUSH1 0xA0 SHL SUB DUP6 AND PUSH1 0x0 SWAP1 DUP2 MSTORE PUSH1 0x20 SWAP2 SWAP1 SWAP2 MSTORE PUSH1 0x40 SWAP1 KECCAK256 DUP2 SWAP1 PUSH2 0x54B PUSH2 0x15A5 JUMP JUMPDEST POP POP POP DUP3 PUSH1 0x1 PUSH1 0x1 PUSH1 0xA0 SHL SUB AND GAS PUSH2 0x561 PUSH2 0x1550 JUMP JUMPDEST PUSH1 0x1 PUSH1 0x1 PUSH1 0xA0 SHL SUB AND PUSH32 0x8C5BE1E5EBEC7D5BD14F71427D1E84F3DD0314C0F7B2291E5B200AC8C7C3B925 DUP5 PUSH1 0x40 MLOAD SWAP1 DUP2 MSTORE PUSH1 0x20 ADD PUSH1 0x40 MLOAD DUP1 SWAP2 SUB SWAP1 LOG3 POP PUSH1 0x1 JUMPDEST SWAP3 SWAP2 POP POP JUMP JUMPDEST PUSH1 0x4 PUSH2 0x5B1 PUSH2 0x15F3 JUMP JUMPDEST DUP2 JUMP JUMPDEST PUSH1 0x0 DUP1 PUSH2 0x5BF PUSH2 0x15F3 JUMP JUMPDEST SWAP1 PUSH2 0x100 EXP SWAP1 DIV PUSH1 0x1 PUSH1 0x1 PUSH1 0xA0 SHL SUB AND PUSH1 0x1 PUSH1 0x1 PUSH1 0xA0 SHL SUB AND GAS PUSH2 0x5E1 PUSH2 0x1550 JUMP JUMPDEST PUSH1 0x1 PUSH1 0x1 PUSH1 0xA0 SHL SUB AND EQ PUSH2 0x63A JUMPI PUSH1 0x40 MLOAD PUSH3 0x461BCD PUSH1 0xE5 SHL DUP2 MSTORE PUSH1 0x20 PUSH1 0x4 DUP3 ADD MSTORE PUSH1 0x13 PUSH1 0x24 DUP3 ADD MSTORE PUSH19 0x13DB9B1E481B585C9AD95D08185B1B1BDDD959 PUSH1 0x6A SHL PUSH1 0x44 DUP3 ADD MSTORE PUSH1 0x64 ADD PUSH1 0x40 MLOAD DUP1 SWAP2 SUB SWAP1 PUSH2 0x637 PUSH2 0x14E5 JUMP JUMPDEST POP POP JUMPDEST PUSH1 0x1 PUSH1 0x1 PUSH1 0xA0 SHL SUB DUP2 AND PUSH1 0x0 SWAP1 DUP2 MSTORE PUSH1 0x3 PUSH1 0x20 MSTORE PUSH1 0x40 DUP2 KECCAK256 PUSH2 0x65A PUSH2 0x15F3 JUMP JUMPDEST SWAP1 POP DUP1 PUSH2 0x667 JUMPI POP PUSH2 0x733 JUMP JUMPDEST PUSH1 0x1 PUSH1 0x1 PUSH1 0xA0 SHL SUB DUP3 AND PUSH1 0x0 SWAP1 DUP2 MSTORE PUSH1 0x3 PUSH1 0x20 MSTORE PUSH1 0x40 DUP2 KECCAK256 DUP2 SWAP1 PUSH2 0x689 PUSH2 0x15A5 JUMP JUMPDEST POP POP POP PUSH2 0x6A6 DUP2 PUSH1 0x4 PUSH2 0x69A PUSH2 0x15F3 JUMP JUMPDEST SWAP1 PUSH4 0xFFFFFFFF PUSH2 0xF37 AND JUMP JUMPDEST DUP1 PUSH1 0x4 PUSH2 0x6B1 PUSH2 0x15A5 JUMP JUMPDEST POP PUSH1 0x0 SWAP2 POP POP PUSH1 0x1 PUSH1 0x1 PUSH1 0xA0 SHL SUB DUP4 AND PUSH32 0xDDF252AD1BE2C89B69C2B068FC378DAA952BA7F163C4A11628F55A4DF523B3EF DUP4 PUSH1 0x40 MLOAD SWAP1 DUP2 MSTORE PUSH1 0x20 ADD PUSH1 0x40 MLOAD DUP1 SWAP2 SUB SWAP1 LOG3 DUP2 PUSH1 0x1 PUSH1 0x1 PUSH1 0xA0 SHL SUB AND PUSH32 0x696DE425F79F4A40BC6D2122CA50507F0EFBEABBFF86A84871B7196AB8EA8DF7 DUP3 PUSH1 0x40 MLOAD SWAP1 DUP2 MSTORE PUSH1 0x20 ADD PUSH1 0x40 MLOAD DUP1 SWAP2 SUB SWAP1 LOG2 POP JUMPDEST POP JUMP JUMPDEST PUSH1 0x1 PUSH1 0x1 PUSH1 0xA0 SHL SUB DUP4 AND PUSH1 0x0 SWAP1 DUP2 MSTORE PUSH1 0x5 PUSH1 0x20 MSTORE DUP1 PUSH1 0x40 DUP2 KECCAK256 PUSH1 0x0 GAS PUSH2 0x75A PUSH2 0x1550 JUMP JUMPDEST PUSH1 0x1 PUSH1 0x1 PUSH1 0xA0 SHL SUB AND PUSH1 0x1 PUSH1 0x1 PUSH1 0xA0 SHL SUB AND DUP2 MSTORE PUSH1 0x20 ADD SWAP1 DUP2 MSTORE PUSH1 0x20 ADD PUSH1 0x0 KECCAK256 PUSH2 0x782 PUSH2 0x15F3 JUMP JUMPDEST SWAP1 POP DUP1 DUP4 GT ISZERO PUSH2 0x7DA JUMPI PUSH1 0x40 MLOAD PUSH3 0x461BCD PUSH1 0xE5 SHL DUP2 MSTORE PUSH1 0x20 PUSH1 0x4 DUP3 ADD MSTORE PUSH1 0x16 PUSH1 0x24 DUP3 ADD MSTORE PUSH22 0x496E73756666696369656E7420616C6C6F77616E6365 PUSH1 0x50 SHL PUSH1 0x44 DUP3 ADD MSTORE PUSH1 0x64 ADD PUSH1 0x40 MLOAD DUP1 SWAP2 SUB SWAP1 PUSH2 0x7D7 PUSH2 0x14E5 JUMP JUMPDEST POP POP JUMPDEST PUSH2 0x7EA DUP2 DUP5 PUSH4 0xFFFFFFFF PUSH2 0xF37 AND JUMP JUMPDEST PUSH1 0x1 PUSH1 0x1 PUSH1 0xA0 SHL SUB DUP7 AND PUSH1 0x0 SWAP1 DUP2 MSTORE PUSH1 0x5 PUSH1 0x20 MSTORE PUSH1 0x40 SWAP1 KECCAK256 PUSH1 0x0 GAS PUSH2 0x80D PUSH2 0x1550 JUMP JUMPDEST PUSH1 0x1 PUSH1 0x1 PUSH1 0xA0 SHL SUB AND PUSH1 0x1 PUSH1 0x1 PUSH1 0xA0 SHL SUB AND DUP2 MSTORE PUSH1 0x20 ADD SWAP1 DUP2 MSTORE PUSH1 0x20 ADD PUSH1 0x0 KECCAK256 DUP2 SWAP1 PUSH2 0x837 PUSH2 0x15A5 JUMP JUMPDEST POP POP POP PUSH2 0x845 DUP6 DUP6 DUP6 PUSH2 0xF9C JUMP JUMPDEST SWAP2 POP POP JUMPDEST SWAP4 SWAP3 POP POP POP JUMP JUMPDEST PUSH1 0x0 DUP1 DUP1 PUSH2 0x85C PUSH2 0x15F3 JUMP JUMPDEST SWAP1 PUSH2 0x100 EXP SWAP1 DIV PUSH1 0x1 PUSH1 0x1 PUSH1 0xA0 SHL SUB AND PUSH1 0x1 PUSH1 0x1 PUSH1 0xA0 SHL SUB AND GAS PUSH2 0x87E PUSH2 0x1550 JUMP JUMPDEST PUSH1 0x1 PUSH1 0x1 PUSH1 0xA0 SHL SUB AND EQ PUSH2 0x8D7 JUMPI PUSH1 0x40 MLOAD PUSH3 0x461BCD PUSH1 0xE5 SHL DUP2 MSTORE PUSH1 0x20 PUSH1 0x4 DUP3 ADD MSTORE PUSH1 0x13 PUSH1 0x24 DUP3 ADD MSTORE PUSH19 0x13DB9B1E481B585C9AD95D08185B1B1BDDD959 PUSH1 0x6A SHL PUSH1 0x44 DUP3 ADD MSTORE PUSH1 0x64 ADD PUSH1 0x40 MLOAD DUP1 SWAP2 SUB SWAP1 PUSH2 0x8D4 PUSH2 0x14E5 JUMP JUMPDEST POP POP JUMPDEST PUSH1 0x1 PUSH1 0x1 PUSH1 0xA0 SHL SUB DUP5 AND PUSH1 0x0 SWAP1 DUP2 MSTORE PUSH1 0x1 PUSH1 0x20 MSTORE PUSH1 0x40 DUP2 KECCAK256 PUSH2 0x8F7 PUSH2 0x15F3 JUMP JUMPDEST SWAP1 POP PUSH1 0x0 PUSH2 0x906 DUP3 DUP7 DUP7 PUSH2 0x1242 JUMP JUMPDEST SWAP1 POP DUP1 PUSH2 0x918 JUMPI PUSH1 0x0 SWAP3 POP POP POP PUSH2 0x849 JUMP JUMPDEST PUSH2 0x926 DUP3 PUSH1 0x2 PUSH2 0x69A PUSH2 0x15F3 JUMP JUMPDEST DUP1 PUSH1 0x2 PUSH2 0x931 PUSH2 0x15A5 JUMP JUMPDEST POP POP POP PUSH1 0x1 PUSH1 0x1 PUSH1 0xA0 SHL SUB DUP7 AND PUSH1 0x0 SWAP1 DUP2 MSTORE PUSH1 0x1 PUSH1 0x20 MSTORE PUSH1 0x40 DUP2 KECCAK256 DUP2 SWAP1 PUSH2 0x956 PUSH2 0x15A5 JUMP JUMPDEST POP POP POP PUSH2 0x973 DUP2 PUSH1 0x4 PUSH2 0x967 PUSH2 0x15F3 JUMP JUMPDEST SWAP1 PUSH4 0xFFFFFFFF PUSH2 0x12ED AND JUMP JUMPDEST DUP1 PUSH1 0x4 PUSH2 0x97E PUSH2 0x15A5 JUMP JUMPDEST POP POP POP PUSH1 0x1 PUSH1 0x1 PUSH1 0xA0 SHL SUB DUP7 AND PUSH1 0x0 SWAP1 DUP2 MSTORE PUSH1 0x3 PUSH1 0x20 MSTORE PUSH2 0x9A7 SWAP1 DUP3 SWAP1 PUSH1 0x40 SWAP1 KECCAK256 PUSH2 0x967 PUSH2 0x15F3 JUMP JUMPDEST PUSH1 0x1 PUSH1 0x1 PUSH1 0xA0 SHL SUB DUP8 AND PUSH1 0x0 SWAP1 DUP2 MSTORE PUSH1 0x3 PUSH1 0x20 MSTORE PUSH1 0x40 SWAP1 KECCAK256 DUP2 SWAP1 PUSH2 0x9C9 PUSH2 0x15A5 JUMP JUMPDEST POP POP POP PUSH1 0x1 PUSH1 0x1 PUSH1 0xA0 SHL SUB DUP7 AND PUSH1 0x0 PUSH32 0xDDF252AD1BE2C89B69C2B068FC378DAA952BA7F163C4A11628F55A4DF523B3EF DUP4 PUSH1 0x40 MLOAD SWAP1 DUP2 MSTORE PUSH1 0x20 ADD PUSH1 0x40 MLOAD DUP1 SWAP2 SUB SWAP1 LOG3 DUP6 PUSH1 0x1 PUSH1 0x1 PUSH1 0xA0 SHL SUB AND PUSH32 0xA59F12E354E8CD10BB74C559844C2DD69A5458E31FE56C7594C62CA57480509A DUP3 PUSH1 0x40 MLOAD SWAP1 DUP2 MSTORE PUSH1 0x20 ADD PUSH1 0x40 MLOAD DUP1 SWAP2 SUB SWAP1 LOG2 SWAP6 SWAP5 POP POP POP POP POP JUMP JUMPDEST PUSH1 0x12 DUP2 JUMP JUMPDEST PUSH1 0x0 DUP1 PUSH2 0xA61 PUSH2 0x15F3 JUMP JUMPDEST SWAP1 PUSH2 0x100 EXP SWAP1 DIV PUSH1 0x1 PUSH1 0x1 PUSH1 0xA0 SHL SUB AND PUSH1 0x1 PUSH1 0x1 PUSH1 0xA0 SHL SUB AND GAS PUSH2 0xA83 PUSH2 0x1550 JUMP JUMPDEST PUSH1 0x1 PUSH1 0x1 PUSH1 0xA0 SHL SUB AND EQ PUSH2 0xADC JUMPI PUSH1 0x40 MLOAD PUSH3 0x461BCD PUSH1 0xE5 SHL DUP2 MSTORE PUSH1 0x20 PUSH1 0x4 DUP3 ADD MSTORE PUSH1 0x13 PUSH1 0x24 DUP3 ADD MSTORE PUSH19 0x13DB9B1E481B585C9AD95D08185B1B1BDDD959 PUSH1 0x6A SHL PUSH1 0x44 DUP3 ADD MSTORE PUSH1 0x64 ADD PUSH1 0x40 MLOAD DUP1 SWAP2 SUB SWAP1 PUSH2 0xAD9 PUSH2 0x14E5 JUMP JUMPDEST POP POP JUMPDEST PUSH1 0x1 PUSH1 0x1 PUSH1 0xA0 SHL SUB DUP3 AND PUSH1 0x0 SWAP1 DUP2 MSTORE PUSH1 0x1 PUSH1 0x20 MSTORE PUSH2 0xB0B SWAP1 PUSH2 0xB06 SWAP1 DUP4 SWAP1 PUSH1 0x40 SWAP1 KECCAK256 PUSH2 0x69A PUSH2 0x15F3 JUMP JUMPDEST PUSH2 0x1355 JUMP JUMPDEST PUSH1 0x1 PUSH1 0x1 PUSH1 0xA0 SHL SUB DUP4 AND PUSH1 0x0 SWAP1 DUP2 MSTORE PUSH1 0x1 PUSH1 0x20 MSTORE PUSH1 0x40 SWAP1 KECCAK256 DUP2 SWAP1 PUSH2 0xB2D PUSH2 0x15A5 JUMP JUMPDEST POP POP POP PUSH2 0xB3E DUP2 PUSH1 0x2 PUSH2 0x69A PUSH2 0x15F3 JUMP JUMPDEST DUP1 PUSH1 0x2 PUSH2 0xB49 PUSH2 0x15A5 JUMP JUMPDEST POP POP POP POP POP JUMP JUMPDEST PUSH1 0x0 DUP1 PUSH2 0xB5B PUSH2 0x15F3 JUMP JUMPDEST SWAP1 PUSH2 0x100 EXP SWAP1 DIV PUSH1 0x1 PUSH1 0x1 PUSH1 0xA0 SHL SUB AND PUSH1 0x1 PUSH1 0x1 PUSH1 0xA0 SHL SUB AND GAS PUSH2 0xB7D PUSH2 0x1550 JUMP JUMPDEST PUSH1 0x1 PUSH1 0x1 PUSH1 0xA0 SHL SUB AND EQ PUSH2 0xBD6 JUMPI PUSH1 0x40 MLOAD PUSH3 0x461BCD PUSH1 0xE5 SHL DUP2 MSTORE PUSH1 0x20 PUSH1 0x4 DUP3 ADD MSTORE PUSH1 0x13 PUSH1 0x24 DUP3 ADD MSTORE PUSH19 0x13DB9B1E481B585C9AD95D08185B1B1BDDD959 PUSH1 0x6A SHL PUSH1 0x44 DUP3 ADD MSTORE PUSH1 0x64 ADD PUSH1 0x40 MLOAD DUP1 SWAP2 SUB SWAP1 PUSH2 0xBD3 PUSH2 0x14E5 JUMP JUMPDEST POP POP JUMPDEST PUSH1 0x1 PUSH1 0x1 PUSH1 0xA0 SHL SUB DUP3 AND PUSH1 0x0 SWAP1 DUP2 MSTORE PUSH1 0x1 PUSH1 0x20 MSTORE PUSH2 0xC00 SWAP1 PUSH2 0xB06 SWAP1 DUP4 SWAP1 PUSH1 0x40 SWAP1 KECCAK256 PUSH2 0x967 PUSH2 0x15F3 JUMP JUMPDEST PUSH1 0x1 PUSH1 0x1 PUSH1 0xA0 SHL SUB DUP4 AND PUSH1 0x0 SWAP1 DUP2 MSTORE PUSH1 0x1 PUSH1 0x20 MSTORE PUSH1 0x40 SWAP1 KECCAK256 DUP2 SWAP1 PUSH2 0xC22 PUSH2 0x15A5 JUMP JUMPDEST POP POP POP PUSH2 0xB3E DUP2 PUSH1 0x2 PUSH2 0x967 PUSH2 0x15F3 JUMP JUMPDEST PUSH1 0x3 PUSH1 0x20 MSTORE DUP1 PUSH1 0x0 MSTORE PUSH1 0x40 PUSH1 0x0 KECCAK256 SWAP1 POP PUSH2 0x5B1 PUSH2 0x15F3 JUMP JUMPDEST PUSH1 0x0 DUP1 PUSH2 0xC56 PUSH2 0x15F3 JUMP JUMPDEST SWAP1 PUSH2 0x100 EXP SWAP1 DIV PUSH1 0x1 PUSH1 0x1 PUSH1 0xA0 SHL SUB AND DUP2 JUMP JUMPDEST PUSH1 0x2 PUSH2 0x5B1 PUSH2 0x15F3 JUMP JUMPDEST PUSH1 0x1 PUSH1 0x20 MSTORE DUP1 PUSH1 0x0 MSTORE PUSH1 0x40 PUSH1 0x0 KECCAK256 SWAP1 POP PUSH2 0x5B1 PUSH2 0x15F3 JUMP JUMPDEST PUSH1 0x40 MLOAD PUSH1 0x40 DUP1 DUP3 ADD SWAP1 MSTORE PUSH1 0x4 DUP2 MSTORE PUSH4 0x1CD3D415 PUSH1 0xE2 SHL PUSH1 0x20 DUP3 ADD MSTORE DUP2 JUMP JUMPDEST PUSH1 0x0 DUP1 DUP1 DUP1 DUP1 PUSH2 0xCB7 PUSH2 0x15F3 JUMP JUMPDEST SWAP1 PUSH2 0x100 EXP SWAP1 DIV PUSH1 0x1 PUSH1 0x1 PUSH1 0xA0 SHL SUB AND PUSH1 0x1 PUSH1 0x1 PUSH1 0xA0 SHL SUB AND PUSH4 0xC588F526 PUSH1 0x40 MLOAD DUP2 PUSH4 0xFFFFFFFF AND PUSH1 0xE0 SHL DUP2 MSTORE PUSH1 0x4 ADD PUSH1 0x40 DUP1 MLOAD DUP1 DUP4 SUB DUP2 DUP7 DUP1 PUSH2 0xCF9 PUSH2 0x163F JUMP JUMPDEST ISZERO DUP1 ISZERO PUSH2 0xD0E JUMPI PUSH1 0x0 DUP1 PUSH2 0xD0B PUSH2 0x14E5 JUMP JUMPDEST POP POP JUMPDEST POP GAS PUSH2 0xD18 PUSH2 0x168B JUMP JUMPDEST POP POP POP POP POP ISZERO DUP1 ISZERO PUSH2 0xD37 JUMPI RETURNDATASIZE PUSH1 0x0 DUP1 RETURNDATACOPY RETURNDATASIZE PUSH1 0x0 PUSH2 0xD34 PUSH2 0x14E5 JUMP JUMPDEST POP POP JUMPDEST POP POP POP POP PUSH1 0x40 MLOAD RETURNDATASIZE PUSH1 0x40 DUP2 LT ISZERO PUSH2 0xD56 JUMPI PUSH1 0x0 DUP1 PUSH2 0xD53 PUSH2 0x14E5 JUMP JUMPDEST POP POP JUMPDEST DUP2 ADD SWAP1 DUP1 DUP1 MLOAD SWAP3 SWAP2 SWAP1 PUSH1 0x20 ADD DUP1 MLOAD PUSH1 0x1 PUSH1 0x1 PUSH1 0xA0 SHL SUB DUP10 AND PUSH1 0x0 SWAP1 DUP2 MSTORE PUSH1 0x1 PUSH1 0x20 MSTORE SWAP5 SWAP7 POP SWAP5 POP PUSH2 0xD98 SWAP4 PUSH1 0x40 SWAP4 POP SWAP2 POP POP KECCAK256 PUSH2 0xD91 PUSH2 0x15F3 JUMP JUMPDEST DUP4 DUP4 PUSH2 0x1242 JUMP JUMPDEST SWAP3 POP POP POP JUMPDEST SWAP2 SWAP1 POP JUMP JUMPDEST PUSH1 0x0 PUSH2 0x849 GAS PUSH2 0xDB0 PUSH2 0x1550 JUMP JUMPDEST DUP5 DUP5 PUSH2 0xF9C JUMP JUMPDEST PUSH1 0x0 DUP1 PUSH2 0xDC2 PUSH2 0x15F3 JUMP JUMPDEST SWAP1 PUSH2 0x100 EXP SWAP1 DIV PUSH1 0x1 PUSH1 0x1 PUSH1 0xA0 SHL SUB AND PUSH1 0x1 PUSH1 0x1 PUSH1 0xA0 SHL SUB AND GAS PUSH2 0xDE4 PUSH2 0x1550 JUMP JUMPDEST PUSH1 0x1 PUSH1 0x1 PUSH1 0xA0 SHL SUB AND EQ PUSH2 0x733 JUMPI PUSH1 0x40 MLOAD PUSH3 0x461BCD PUSH1 0xE5 SHL DUP2 MSTORE PUSH1 0x20 PUSH1 0x4 DUP3 ADD MSTORE PUSH1 0x13 PUSH1 0x24 DUP3 ADD MSTORE PUSH19 0x13DB9B1E481B585C9AD95D08185B1B1BDDD959 PUSH1 0x6A SHL PUSH1 0x44 DUP3 ADD MSTORE PUSH1 0x64 ADD PUSH1 0x40 MLOAD DUP1 SWAP2 SUB SWAP1 PUSH2 0xE3A PUSH2 0x14E5 JUMP JUMPDEST POP POP POP JUMP JUMPDEST PUSH1 0x0 DUP1 DUP1 DUP1 PUSH2 0xE4C PUSH2 0x15F3 JUMP JUMPDEST SWAP1 PUSH2 0x100 EXP SWAP1 DIV PUSH1 0x1 PUSH1 0x1 PUSH1 0xA0 SHL SUB AND PUSH1 0x1 PUSH1 0x1 PUSH1 0xA0 SHL SUB AND PUSH4 0xC588F526 PUSH1 0x40 MLOAD DUP2 PUSH4 0xFFFFFFFF AND PUSH1 0xE0 SHL DUP2 MSTORE PUSH1 0x4 ADD PUSH1 0x40 DUP1 MLOAD DUP1 DUP4 SUB DUP2 DUP7 DUP1 PUSH2 0xE8E PUSH2 0x163F JUMP JUMPDEST ISZERO DUP1 ISZERO PUSH2 0xEA3 JUMPI PUSH1 0x0 DUP1 PUSH2 0xEA0 PUSH2 0x14E5 JUMP JUMPDEST POP POP JUMPDEST POP GAS PUSH2 0xEAD PUSH2 0x168B JUMP JUMPDEST POP POP POP POP POP ISZERO DUP1 ISZERO PUSH2 0xECC JUMPI RETURNDATASIZE PUSH1 0x0 DUP1 RETURNDATACOPY RETURNDATASIZE PUSH1 0x0 PUSH2 0xEC9 PUSH2 0x14E5 JUMP JUMPDEST POP POP JUMPDEST POP POP POP POP PUSH1 0x40 MLOAD RETURNDATASIZE PUSH1 0x40 DUP2 LT ISZERO PUSH2 0xEEB JUMPI PUSH1 0x0 DUP1 PUSH2 0xEE8 PUSH2 0x14E5 JUMP JUMPDEST POP POP JUMPDEST DUP2 ADD SWAP1 DUP1 DUP1 MLOAD SWAP3 SWAP2 SWAP1 PUSH1 0x20 ADD DUP1 MLOAD SWAP5 POP PUSH2 0xF0B SWAP4 POP DUP5 SWAP3 POP PUSH2 0x13BA SWAP2 POP POP JUMP JUMPDEST SWAP2 POP POP SWAP1 JUMP JUMPDEST PUSH1 0x5 PUSH1 0x20 MSTORE DUP2 PUSH1 0x0 MSTORE PUSH1 0x40 PUSH1 0x0 KECCAK256 PUSH1 0x20 MSTORE DUP1 PUSH1 0x0 MSTORE PUSH1 0x40 PUSH1 0x0 KECCAK256 SWAP2 POP PUSH2 0x5B1 SWAP1 POP PUSH2 0x15F3 JUMP JUMPDEST PUSH1 0x0 DUP3 DUP3 GT ISZERO PUSH2 0xF96 JUMPI PUSH1 0x40 MLOAD PUSH3 0x461BCD PUSH1 0xE5 SHL DUP2 MSTORE PUSH1 0x20 PUSH1 0x4 DUP3 ADD MSTORE PUSH1 0x1E PUSH1 0x24 DUP3 ADD MSTORE PUSH32 0x536166654D6174683A207375627472616374696F6E206F766572666C6F770000 PUSH1 0x44 DUP3 ADD MSTORE PUSH1 0x64 ADD PUSH1 0x40 MLOAD DUP1 SWAP2 SUB SWAP1 PUSH2 0xF93 PUSH2 0x14E5 JUMP JUMPDEST POP POP JUMPDEST POP SWAP1 SUB SWAP1 JUMP JUMPDEST PUSH1 0x0 DUP1 DUP1 PUSH2 0xFA8 PUSH2 0x15F3 JUMP JUMPDEST SWAP1 PUSH2 0x100 EXP SWAP1 DIV PUSH1 0x1 PUSH1 0x1 PUSH1 0xA0 SHL SUB AND PUSH1 0x1 PUSH1 0x1 PUSH1 0xA0 SHL SUB AND PUSH4 0x27745BAE PUSH1 0x40 MLOAD DUP2 PUSH4 0xFFFFFFFF AND PUSH1 0xE0 SHL DUP2 MSTORE PUSH1 0x4 ADD PUSH1 0x0 PUSH1 0x40 MLOAD DUP1 DUP4 SUB DUP2 DUP7 DUP1 PUSH2 0xFEB PUSH2 0x163F JUMP JUMPDEST ISZERO DUP1 ISZERO PUSH2 0x1000 JUMPI PUSH1 0x0 DUP1 PUSH2 0xFFD PUSH2 0x14E5 JUMP JUMPDEST POP POP JUMPDEST POP GAS PUSH2 0x100A PUSH2 0x168B JUMP JUMPDEST POP POP POP POP POP ISZERO DUP1 ISZERO PUSH2 0x1029 JUMPI RETURNDATASIZE PUSH1 0x0 DUP1 RETURNDATACOPY RETURNDATASIZE PUSH1 0x0 PUSH2 0x1026 PUSH2 0x14E5 JUMP JUMPDEST POP POP JUMPDEST POP POP POP POP PUSH1 0x1 PUSH1 0x1 PUSH1 0xA0 SHL SUB DUP4 AND ISZERO DUP1 ISZERO SWAP1 PUSH2 0x10AF JUMPI POP GAS PUSH4 0x996D79A5 MSIZE DUP2 PUSH1 0xE0 SHL DUP2 MSTORE PUSH1 0x20 DUP2 PUSH1 0x4 DUP4 CALLER PUSH1 0x0 SWAP1 GAS CALL PC PUSH1 0xE ADD JUMPI RETURNDATASIZE PUSH1 0x0 DUP1 RETURNDATACOPY RETURNDATASIZE PUSH1 0x0 REVERT JUMPDEST RETURNDATASIZE PUSH1 0x1 EQ ISZERO PC PUSH1 0xA ADD JUMPI PUSH1 0x1 PUSH1 0x0 RETURN JUMPDEST DUP1 MLOAD SWAP3 POP PUSH1 0x0 JUMPDEST PUSH1 0x40 DUP2 LT ISZERO PUSH2 0x1096 JUMPI PUSH1 0x0 DUP3 DUP3 ADD MSTORE PUSH1 0x20 ADD PUSH2 0x107F JUMP JUMPDEST POP POP POP PUSH1 0x1 PUSH1 0x1 PUSH1 0xA0 SHL SUB AND DUP4 PUSH1 0x1 PUSH1 0x1 PUSH1 0xA0 SHL SUB AND EQ ISZERO JUMPDEST PUSH2 0x10FA JUMPI PUSH1 0x40 MLOAD PUSH3 0x461BCD PUSH1 0xE5 SHL DUP2 MSTORE PUSH1 0x20 PUSH1 0x4 DUP3 ADD MSTORE PUSH1 0xF PUSH1 0x24 DUP3 ADD MSTORE PUSH15 0x496E76616C69642061646472657373 PUSH1 0x88 SHL PUSH1 0x44 DUP3 ADD MSTORE PUSH1 0x64 ADD PUSH1 0x40 MLOAD DUP1 SWAP2 SUB SWAP1 PUSH2 0x10F7 PUSH2 0x14E5 JUMP JUMPDEST POP POP JUMPDEST PUSH1 0x1 PUSH1 0x1 PUSH1 0xA0 SHL SUB DUP5 AND PUSH1 0x0 SWAP1 DUP2 MSTORE PUSH1 0x3 PUSH1 0x20 MSTORE PUSH1 0x40 DUP2 KECCAK256 PUSH2 0x111A PUSH2 0x15F3 JUMP JUMPDEST SWAP1 POP DUP1 DUP4 GT ISZERO PUSH2 0x1170 JUMPI PUSH1 0x40 MLOAD PUSH3 0x461BCD PUSH1 0xE5 SHL DUP2 MSTORE PUSH1 0x20 PUSH1 0x4 DUP3 ADD MSTORE PUSH1 0x14 PUSH1 0x24 DUP3 ADD MSTORE PUSH20 0x496E73756666696369656E742062616C616E6365 PUSH1 0x60 SHL PUSH1 0x44 DUP3 ADD MSTORE PUSH1 0x64 ADD PUSH1 0x40 MLOAD DUP1 SWAP2 SUB SWAP1 PUSH2 0x116D PUSH2 0x14E5 JUMP JUMPDEST POP POP JUMPDEST PUSH2 0x1180 DUP2 DUP5 PUSH4 0xFFFFFFFF PUSH2 0xF37 AND JUMP JUMPDEST PUSH1 0x1 PUSH1 0x1 PUSH1 0xA0 SHL SUB DUP7 AND PUSH1 0x0 SWAP1 DUP2 MSTORE PUSH1 0x3 PUSH1 0x20 MSTORE PUSH1 0x40 SWAP1 KECCAK256 DUP2 SWAP1 PUSH2 0x11A2 PUSH2 0x15A5 JUMP JUMPDEST POP POP POP PUSH1 0x1 PUSH1 0x1 PUSH1 0xA0 SHL SUB DUP5 AND PUSH1 0x0 SWAP1 DUP2 MSTORE PUSH1 0x3 PUSH1 0x20 MSTORE PUSH2 0x11CB SWAP1 DUP5 SWAP1 PUSH1 0x40 SWAP1 KECCAK256 PUSH2 0x967 PUSH2 0x15F3 JUMP JUMPDEST PUSH1 0x1 PUSH1 0x1 PUSH1 0xA0 SHL SUB DUP6 AND PUSH1 0x0 SWAP1 DUP2 MSTORE PUSH1 0x3 PUSH1 0x20 MSTORE PUSH1 0x40 SWAP1 KECCAK256 DUP2 SWAP1 PUSH2 0x11ED PUSH2 0x15A5 JUMP JUMPDEST POP POP POP DUP4 PUSH1 0x1 PUSH1 0x1 PUSH1 0xA0 SHL SUB AND DUP6 PUSH1 0x1 PUSH1 0x1 PUSH1 0xA0 SHL SUB AND PUSH32 0xDDF252AD1BE2C89B69C2B068FC378DAA952BA7F163C4A11628F55A4DF523B3EF DUP6 PUSH1 0x40 MLOAD SWAP1 DUP2 MSTORE PUSH1 0x20 ADD PUSH1 0x40 MLOAD DUP1 SWAP2 SUB SWAP1 LOG3 POP PUSH1 0x1 SWAP5 SWAP4 POP POP POP POP JUMP JUMPDEST PUSH1 0x0 DUP1 PUSH2 0x1255 DUP6 DUP6 PUSH4 0xFFFFFFFF PUSH2 0x13EA AND JUMP JUMPDEST SWAP1 POP PUSH1 0x0 PUSH2 0x1262 DUP5 PUSH2 0x13BA JUMP JUMPDEST SWAP1 POP PUSH1 0x2 PUSH2 0x126E PUSH2 0x15F3 JUMP JUMPDEST DUP7 EQ DUP1 ISZERO PUSH2 0x127B JUMPI POP DUP6 ISZERO ISZERO JUMPDEST DUP1 PUSH2 0x1284 JUMPI POP DUP1 ISZERO JUMPDEST ISZERO PUSH2 0x1292 JUMPI SWAP2 POP PUSH2 0x849 SWAP1 POP JUMP JUMPDEST DUP1 DUP3 GT ISZERO PUSH2 0x12E4 JUMPI PUSH1 0x40 MLOAD PUSH3 0x461BCD PUSH1 0xE5 SHL DUP2 MSTORE PUSH1 0x20 PUSH1 0x4 DUP3 ADD MSTORE PUSH1 0x12 PUSH1 0x24 DUP3 ADD MSTORE PUSH18 0x737570706C79203C20636C61696D61626C65 PUSH1 0x70 SHL PUSH1 0x44 DUP3 ADD MSTORE PUSH1 0x64 ADD PUSH1 0x40 MLOAD DUP1 SWAP2 SUB SWAP1 PUSH2 0x12E1 PUSH2 0x14E5 JUMP JUMPDEST POP POP JUMPDEST POP SWAP5 SWAP4 POP POP POP POP JUMP JUMPDEST PUSH1 0x0 DUP3 DUP3 ADD DUP4 DUP2 LT ISZERO PUSH2 0x849 JUMPI PUSH1 0x40 MLOAD PUSH3 0x461BCD PUSH1 0xE5 SHL DUP2 MSTORE PUSH1 0x20 PUSH1 0x4 DUP3 ADD MSTORE PUSH1 0x1B PUSH1 0x24 DUP3 ADD MSTORE PUSH32 0x536166654D6174683A206164646974696F6E206F766572666C6F770000000000 PUSH1 0x44 DUP3 ADD MSTORE PUSH1 0x64 ADD PUSH1 0x40 MLOAD DUP1 SWAP2 SUB SWAP1 PUSH2 0x134C PUSH2 0x14E5 JUMP JUMPDEST POP POP SWAP4 SWAP3 POP POP POP JUMP JUMPDEST PUSH1 0x0 PUSH7 0x2386F26FC10000 DUP3 LT ISZERO DUP1 PUSH2 0x136B JUMPI POP DUP2 ISZERO JUMPDEST PUSH2 0x13B6 JUMPI PUSH1 0x40 MLOAD PUSH3 0x461BCD PUSH1 0xE5 SHL DUP2 MSTORE PUSH1 0x20 PUSH1 0x4 DUP3 ADD MSTORE PUSH1 0xF PUSH1 0x24 DUP3 ADD MSTORE PUSH15 0x42616C616E6365203C2024302E3031 PUSH1 0x88 SHL PUSH1 0x44 DUP3 ADD MSTORE PUSH1 0x64 ADD PUSH1 0x40 MLOAD DUP1 SWAP2 SUB SWAP1 PUSH2 0x13B3 PUSH2 0x14E5 JUMP JUMPDEST POP POP JUMPDEST POP SWAP1 JUMP JUMPDEST PUSH1 0x0 DUP1 PUSH1 0x4 PUSH2 0x13C7 PUSH2 0x15F3 JUMP JUMPDEST SWAP1 POP DUP1 DUP4 GT PUSH2 0x13DA JUMPI PUSH1 0x0 SWAP2 POP POP PUSH2 0xD9D JUMP JUMPDEST PUSH2 0x849 DUP4 DUP3 PUSH4 0xFFFFFFFF PUSH2 0xF37 AND JUMP JUMPDEST PUSH1 0x0 PUSH2 0x849 DUP3 PUSH2 0x1408 DUP6 PUSH8 0xDE0B6B3A7640000 PUSH4 0xFFFFFFFF PUSH2 0x1414 AND JUMP JUMPDEST SWAP1 PUSH4 0xFFFFFFFF PUSH2 0x1473 AND JUMP JUMPDEST PUSH1 0x0 DUP3 PUSH2 0x1423 JUMPI POP PUSH1 0x0 PUSH2 0x5A1 JUMP JUMPDEST DUP3 DUP3 MUL DUP3 DUP5 DUP3 DUP2 PUSH2 0x1430 JUMPI INVALID JUMPDEST DIV EQ PUSH2 0x849 JUMPI PUSH1 0x40 MLOAD PUSH3 0x461BCD PUSH1 0xE5 SHL DUP2 MSTORE PUSH1 0x4 ADD DUP1 DUP1 PUSH1 0x20 ADD DUP3 DUP2 SUB DUP3 MSTORE PUSH1 0x21 DUP2 MSTORE PUSH1 0x20 ADD DUP1 PUSH2 0x1745 PUSH1 0x21 SWAP2 CODECOPY PUSH1 0x40 ADD SWAP2 POP POP PUSH1 0x40 MLOAD DUP1 SWAP2 SUB SWAP1 PUSH2 0x134C PUSH2 0x14E5 JUMP JUMPDEST PUSH1 0x0 DUP1 DUP3 GT PUSH2 0x14D1 JUMPI PUSH1 0x40 MLOAD PUSH3 0x461BCD PUSH1 0xE5 SHL DUP2 MSTORE PUSH1 0x20 PUSH1 0x4 DUP3 ADD MSTORE PUSH1 0x1A PUSH1 0x24 DUP3 ADD MSTORE PUSH32 0x536166654D6174683A206469766973696F6E206279207A65726F000000000000 PUSH1 0x44 DUP3 ADD MSTORE PUSH1 0x64 ADD PUSH1 0x40 MLOAD DUP1 SWAP2 SUB SWAP1 PUSH2 0x14CE PUSH2 0x14E5 JUMP JUMPDEST POP POP JUMPDEST PUSH1 0x0 DUP3 DUP5 DUP2 PUSH2 0x14DC JUMPI INVALID JUMPDEST DIV SWAP5 SWAP4 POP POP POP POP JUMP JUMPDEST PUSH4 0x2A2A7ADB MSIZE DUP2 PUSH1 0xE0 SHL DUP2 MSTORE PUSH1 0x4 DUP2 ADD PUSH1 0x20 DUP2 MSTORE DUP6 PUSH1 0x20 DUP3 ADD MSTORE PUSH1 0x0 JUMPDEST DUP7 DUP2 LT ISZERO PUSH2 0x151D JUMPI DUP1 DUP7 ADD MLOAD DUP3 DUP3 ADD PUSH1 0x40 ADD MSTORE PUSH1 0x20 ADD PUSH2 0x1502 JUMP JUMPDEST POP PUSH1 0x20 DUP3 DUP8 PUSH1 0x64 ADD DUP5 CALLER PUSH1 0x0 SWAP1 GAS CALL PC PUSH1 0xE ADD JUMPI RETURNDATASIZE PUSH1 0x0 DUP1 RETURNDATACOPY RETURNDATASIZE PUSH1 0x0 REVERT JUMPDEST RETURNDATASIZE PUSH1 0x1 EQ ISZERO PC PUSH1 0xA ADD JUMPI PUSH1 0x1 PUSH1 0x0 RETURN JUMPDEST POP POP POP JUMP JUMPDEST PUSH4 0x73509064 MSIZE DUP2 PUSH1 0xE0 SHL DUP2 MSTORE PUSH1 0x20 DUP2 PUSH1 0x4 DUP4 CALLER PUSH1 0x0 SWAP1 GAS CALL PC PUSH1 0xE ADD JUMPI RETURNDATASIZE PUSH1 0x0 DUP1 RETURNDATACOPY RETURNDATASIZE PUSH1 0x0 REVERT JUMPDEST RETURNDATASIZE PUSH1 0x1 EQ ISZERO PC PUSH1 0xA ADD JUMPI PUSH1 0x1 PUSH1 0x0 RETURN JUMPDEST DUP1 MLOAD SWAP4 POP PUSH1 0x0 JUMPDEST PUSH1 0x40 DUP2 LT ISZERO PUSH2 0xE3A JUMPI PUSH1 0x0 DUP3 DUP3 ADD MSTORE PUSH1 0x20 ADD PUSH2 0x158E JUMP JUMPDEST PUSH4 0x22BD64C0 MSIZE DUP2 PUSH1 0xE0 SHL DUP2 MSTORE DUP4 PUSH1 0x4 DUP3 ADD MSTORE DUP5 PUSH1 0x24 DUP3 ADD MSTORE PUSH1 0x0 DUP2 PUSH1 0x44 DUP4 CALLER PUSH1 0x0 SWAP1 GAS CALL PC PUSH1 0xE ADD JUMPI RETURNDATASIZE PUSH1 0x0 DUP1 RETURNDATACOPY RETURNDATASIZE PUSH1 0x0 REVERT JUMPDEST RETURNDATASIZE PUSH1 0x1 EQ ISZERO PC PUSH1 0xA ADD JUMPI PUSH1 0x1 PUSH1 0x0 RETURN JUMPDEST PUSH1 0x0 DUP2 MSTORE PUSH1 0x20 PUSH2 0x158E JUMP JUMPDEST PUSH4 0x3DAA959 MSIZE DUP2 PUSH1 0xE0 SHL DUP2 MSTORE DUP4 PUSH1 0x4 DUP3 ADD MSTORE PUSH1 0x20 DUP2 PUSH1 0x24 DUP4 CALLER PUSH1 0x0 SWAP1 GAS CALL PC PUSH1 0xE ADD JUMPI RETURNDATASIZE PUSH1 0x0 DUP1 RETURNDATACOPY RETURNDATASIZE PUSH1 0x0 REVERT JUMPDEST RETURNDATASIZE PUSH1 0x1 EQ ISZERO PC PUSH1 0xA ADD JUMPI PUSH1 0x1 PUSH1 0x0 RETURN JUMPDEST DUP1 MLOAD PUSH1 0x0 DUP3 MSTORE SWAP4 POP PUSH1 0x20 PUSH2 0x158E JUMP JUMPDEST PUSH4 0x8435035B MSIZE DUP2 PUSH1 0xE0 SHL DUP2 MSTORE DUP4 PUSH1 0x4 DUP3 ADD MSTORE PUSH1 0x20 DUP2 PUSH1 0x24 DUP4 CALLER PUSH1 0x0 SWAP1 GAS CALL PC PUSH1 0xE ADD JUMPI RETURNDATASIZE PUSH1 0x0 DUP1 RETURNDATACOPY RETURNDATASIZE PUSH1 0x0 REVERT JUMPDEST RETURNDATASIZE PUSH1 0x1 EQ ISZERO PC PUSH1 0xA ADD JUMPI PUSH1 0x1 PUSH1 0x0 RETURN JUMPDEST DUP1 MLOAD PUSH1 0x0 DUP3 MSTORE SWAP4 POP PUSH1 0x20 PUSH2 0x158E JUMP JUMPDEST PUSH4 0x8540661F MSIZE DUP2 PUSH1 0xE0 SHL DUP2 MSTORE DUP4 PUSH1 0x4 DUP3 ADD MSTORE DUP5 PUSH1 0x24 DUP3 ADD MSTORE PUSH1 0x60 PUSH1 0x44 DUP3 ADD MSTORE DUP7 PUSH1 0x64 DUP3 ADD MSTORE PUSH1 0x84 DUP2 ADD PUSH1 0x0 JUMPDEST DUP9 DUP2 LT ISZERO PUSH2 0x16CF JUMPI DUP1 DUP9 ADD MLOAD DUP3 DUP3 ADD MSTORE PUSH1 0x20 ADD PUSH2 0x16B7 JUMP JUMPDEST POP DUP8 PUSH2 0x104 ADD DUP3 ADD PUSH1 0x60 DUP4 DUP11 PUSH2 0x104 ADD DUP6 CALLER PUSH1 0x0 SWAP1 GAS CALL PC PUSH1 0xE ADD JUMPI RETURNDATASIZE PUSH1 0x0 DUP1 RETURNDATACOPY RETURNDATASIZE PUSH1 0x0 REVERT JUMPDEST RETURNDATASIZE PUSH1 0x1 EQ ISZERO PC PUSH1 0xA ADD JUMPI PUSH1 0x1 PUSH1 0x0 RETURN JUMPDEST DUP3 MLOAD PUSH1 0x40 DUP5 ADD MLOAD RETURNDATASIZE PUSH1 0x0 DUP7 RETURNDATACOPY DUP13 DUP13 DUP3 PUSH1 0x60 DUP9 ADD CALLER POP PUSH1 0x0 PUSH1 0x4 GAS CALL POP MSIZE DUP6 JUMPDEST DUP2 DUP2 LT ISZERO PUSH2 0x1738 JUMPI PUSH1 0x0 DUP2 MSTORE PUSH1 0x20 ADD PUSH2 0x1724 JUMP JUMPDEST POP SWAP2 SWAP13 POP POP POP POP POP POP POP JUMP INVALID MSTORE8 PUSH2 0x6665 0x4D PUSH2 0x7468 GASPRICE KECCAK256 PUSH14 0x756C7469706C69636174696F6E20 PUSH16 0x766572666C6F77536166654D6174683A KECCAK256 PUSH14 0x756C7469706C69636174696F6E20 PUSH16 0x766572666C6F7770BD4A33BF447720D7 OR 0xD0 DUP16 GASPRICE SELFDESTRUCT 0xB5 0xAE 0xCF 0xE4 0xD2 0xEB 0xB8 0xE3 0xDD SWAP5 MSTORE8 SWAP16 MSTORE8 SGT 0xE2 DIFFICULTY PUSH23 0x4300000000000000000000000000000000000000000000 "
		}
	}
}