{
	"abi": [
		{
			"inputs": [
				{
					"internalType": "address",
					"name": "_owner",
					"type": "address"
				},
				{
					"internalType": "address",
					"name": "_resolver",
					"type": "address"
				},
				{
					"internalType": "uint256",
					"name": "_maxOraclePriceAge",
					"type": "uint256"
				},
				{
					"internalType": "uint256",
					"name": "_expiryDuration",
					"type": "uint256"
				},
				{
					"internalType": "uint256",
					"name": "_maxTimeToMaturity",
					"type": "uint256"
				},
				{
					"internalType": "uint256",
					"name": "_creatorCapitalRequirement",
					"type": "uint256"
				},
				{
					"internalType": "uint256",
					"name": "_creatorSkewLimit",
					"type": "uint256"
				},
				{
					"internalType": "uint256",
					"name": "_poolFee",
					"type": "uint256"
				},
				{
					"internalType": "uint256",
					"name": "_creatorFee",
					"type": "uint256"
				},
				{
					"internalType": "uint256",
					"name": "_refundFee",
					"type": "uint256"
				}
			],
			"payable": false,
			"stateMutability": "nonpayable",
			"type": "constructor"
		},
		{
			"anonymous": false,
			"inputs": [
				{
					"indexed": false,
					"internalType": "uint256",
					"name": "value",
					"type": "uint256"
				}
			],
			"name": "CreatorCapitalRequirementUpdated",
			"type": "event"
		},
		{
			"anonymous": false,
			"inputs": [
				{
					"indexed": false,
					"internalType": "uint256",
					"name": "fee",
					"type": "uint256"
				}
			],
			"name": "CreatorFeeUpdated",
			"type": "event"
		},
		{
			"anonymous": false,
			"inputs": [
				{
					"indexed": false,
					"internalType": "uint256",
					"name": "value",
					"type": "uint256"
				}
			],
			"name": "CreatorSkewLimitUpdated",
			"type": "event"
		},
		{
			"anonymous": false,
			"inputs": [
				{
					"indexed": false,
					"internalType": "uint256",
					"name": "duration",
					"type": "uint256"
				}
			],
			"name": "ExerciseDurationUpdated",
			"type": "event"
		},
		{
			"anonymous": false,
			"inputs": [
				{
					"indexed": false,
					"internalType": "uint256",
					"name": "duration",
					"type": "uint256"
				}
			],
			"name": "ExpiryDurationUpdated",
			"type": "event"
		},
		{
			"anonymous": false,
			"inputs": [
				{
					"indexed": false,
					"internalType": "address",
					"name": "market",
					"type": "address"
				}
			],
			"name": "MarketCancelled",
			"type": "event"
		},
		{
			"anonymous": false,
			"inputs": [
				{
					"indexed": false,
					"internalType": "address",
					"name": "market",
					"type": "address"
				},
				{
					"indexed": true,
					"internalType": "address",
					"name": "creator",
					"type": "address"
				},
				{
					"indexed": true,
					"internalType": "bytes32",
					"name": "oracleKey",
					"type": "bytes32"
				},
				{
					"indexed": false,
					"internalType": "uint256",
					"name": "strikePrice",
					"type": "uint256"
				},
				{
					"indexed": false,
					"internalType": "uint256",
					"name": "biddingEndDate",
					"type": "uint256"
				},
				{
					"indexed": false,
					"internalType": "uint256",
					"name": "maturityDate",
					"type": "uint256"
				},
				{
					"indexed": false,
					"internalType": "uint256",
					"name": "expiryDate",
					"type": "uint256"
				}
			],
			"name": "MarketCreated",
			"type": "event"
		},
		{
			"anonymous": false,
			"inputs": [
				{
					"indexed": false,
					"internalType": "bool",
					"name": "enabled",
					"type": "bool"
				}
			],
			"name": "MarketCreationEnabledUpdated",
			"type": "event"
		},
		{
			"anonymous": false,
			"inputs": [
				{
					"indexed": false,
					"internalType": "address",
					"name": "market",
					"type": "address"
				}
			],
			"name": "MarketExpired",
			"type": "event"
		},
		{
			"anonymous": false,
			"inputs": [
				{
					"indexed": false,
					"internalType": "contract BinaryOptionMarketManager",
					"name": "receivingManager",
					"type": "address"
				},
				{
					"indexed": false,
					"internalType": "contract BinaryOptionMarket[]",
					"name": "markets",
					"type": "address[]"
				}
			],
			"name": "MarketsMigrated",
			"type": "event"
		},
		{
			"anonymous": false,
			"inputs": [
				{
					"indexed": false,
					"internalType": "contract BinaryOptionMarketManager",
					"name": "migratingManager",
					"type": "address"
				},
				{
					"indexed": false,
					"internalType": "contract BinaryOptionMarket[]",
					"name": "markets",
					"type": "address[]"
				}
			],
			"name": "MarketsReceived",
			"type": "event"
		},
		{
			"anonymous": false,
			"inputs": [
				{
					"indexed": false,
					"internalType": "uint256",
					"name": "duration",
					"type": "uint256"
				}
			],
			"name": "MaxOraclePriceAgeUpdated",
			"type": "event"
		},
		{
			"anonymous": false,
			"inputs": [
				{
					"indexed": false,
					"internalType": "uint256",
					"name": "duration",
					"type": "uint256"
				}
			],
			"name": "MaxTimeToMaturityUpdated",
			"type": "event"
		},
		{
			"anonymous": false,
			"inputs": [
				{
					"indexed": false,
					"internalType": "address",
					"name": "oldOwner",
					"type": "address"
				},
				{
					"indexed": false,
					"internalType": "address",
					"name": "newOwner",
					"type": "address"
				}
			],
			"name": "OwnerChanged",
			"type": "event"
		},
		{
			"anonymous": false,
			"inputs": [
				{
					"indexed": false,
					"internalType": "address",
					"name": "newOwner",
					"type": "address"
				}
			],
			"name": "OwnerNominated",
			"type": "event"
		},
		{
			"anonymous": false,
			"inputs": [
				{
					"indexed": false,
					"internalType": "bool",
					"name": "isPaused",
					"type": "bool"
				}
			],
			"name": "PauseChanged",
			"type": "event"
		},
		{
			"anonymous": false,
			"inputs": [
				{
					"indexed": false,
					"internalType": "uint256",
					"name": "fee",
					"type": "uint256"
				}
			],
			"name": "PoolFeeUpdated",
			"type": "event"
		},
		{
			"anonymous": false,
			"inputs": [
				{
					"indexed": false,
					"internalType": "uint256",
					"name": "fee",
					"type": "uint256"
				}
			],
			"name": "RefundFeeUpdated",
			"type": "event"
		},
		{
			"anonymous": false,
			"inputs": [
				{
					"indexed": false,
					"internalType": "address",
					"name": "newBeneficiary",
					"type": "address"
				}
			],
			"name": "SelfDestructBeneficiaryUpdated",
			"type": "event"
		},
		{
			"anonymous": false,
			"inputs": [
				{
					"indexed": false,
					"internalType": "uint256",
					"name": "selfDestructDelay",
					"type": "uint256"
				}
			],
			"name": "SelfDestructInitiated",
			"type": "event"
		},
		{
			"anonymous": false,
			"inputs": [],
			"name": "SelfDestructTerminated",
			"type": "event"
		},
		{
			"anonymous": false,
			"inputs": [
				{
					"indexed": false,
					"internalType": "address",
					"name": "beneficiary",
					"type": "address"
				}
			],
			"name": "SelfDestructed",
			"type": "event"
		},
		{
			"constant": true,
			"inputs": [],
			"name": "MAX_ADDRESSES_FROM_RESOLVER",
			"outputs": [
				{
					"internalType": "uint256",
					"name": "",
					"type": "uint256"
				}
			],
			"payable": false,
			"stateMutability": "view",
			"type": "function"
		},
		{
			"constant": true,
			"inputs": [],
			"name": "SELFDESTRUCT_DELAY",
			"outputs": [
				{
					"internalType": "uint256",
					"name": "",
					"type": "uint256"
				}
			],
			"payable": false,
			"stateMutability": "view",
			"type": "function"
		},
		{
			"constant": false,
			"inputs": [],
			"name": "acceptOwnership",
			"outputs": [],
			"payable": false,
			"stateMutability": "nonpayable",
			"type": "function"
		},
		{
			"constant": true,
			"inputs": [
				{
					"internalType": "uint256",
					"name": "index",
					"type": "uint256"
				},
				{
					"internalType": "uint256",
					"name": "pageSize",
					"type": "uint256"
				}
			],
			"name": "activeMarkets",
			"outputs": [
				{
					"internalType": "address[]",
					"name": "",
					"type": "address[]"
				}
			],
			"payable": false,
			"stateMutability": "view",
			"type": "function"
		},
		{
			"constant": false,
			"inputs": [
				{
					"internalType": "address",
					"name": "market",
					"type": "address"
				}
			],
			"name": "cancelMarket",
			"outputs": [],
			"payable": false,
			"stateMutability": "nonpayable",
			"type": "function"
		},
		{
			"constant": false,
			"inputs": [
				{
					"internalType": "bytes32",
					"name": "oracleKey",
					"type": "bytes32"
				},
				{
					"internalType": "uint256",
					"name": "strikePrice",
					"type": "uint256"
				},
				{
					"internalType": "bool",
					"name": "refundsEnabled",
					"type": "bool"
				},
				{
					"internalType": "uint256[2]",
					"name": "times",
					"type": "uint256[2]"
				},
				{
					"internalType": "uint256[2]",
					"name": "bids",
					"type": "uint256[2]"
				}
			],
			"name": "createMarket",
			"outputs": [
				{
					"internalType": "contract IBinaryOptionMarket",
					"name": "",
					"type": "address"
				}
			],
			"payable": false,
			"stateMutability": "nonpayable",
			"type": "function"
		},
		{
			"constant": true,
			"inputs": [],
			"name": "creatorLimits",
			"outputs": [
				{
					"internalType": "uint256",
					"name": "capitalRequirement",
					"type": "uint256"
				},
				{
					"internalType": "uint256",
					"name": "skewLimit",
					"type": "uint256"
				}
			],
			"payable": false,
			"stateMutability": "view",
			"type": "function"
		},
		{
			"constant": false,
			"inputs": [
				{
					"internalType": "uint256",
					"name": "delta",
					"type": "uint256"
				}
			],
			"name": "decrementTotalDeposited",
			"outputs": [],
			"payable": false,
			"stateMutability": "nonpayable",
			"type": "function"
		},
		{
			"constant": true,
			"inputs": [],
			"name": "durations",
			"outputs": [
				{
					"internalType": "uint256",
					"name": "maxOraclePriceAge",
					"type": "uint256"
				},
				{
					"internalType": "uint256",
					"name": "expiryDuration",
					"type": "uint256"
				},
				{
					"internalType": "uint256",
					"name": "maxTimeToMaturity",
					"type": "uint256"
				}
			],
			"payable": false,
			"stateMutability": "view",
			"type": "function"
		},
		{
			"constant": false,
			"inputs": [
				{
					"internalType": "address[]",
					"name": "markets",
					"type": "address[]"
				}
			],
			"name": "expireMarkets",
			"outputs": [],
			"payable": false,
			"stateMutability": "nonpayable",
			"type": "function"
		},
		{
			"constant": true,
			"inputs": [],
			"name": "fees",
			"outputs": [
				{
					"internalType": "uint256",
					"name": "poolFee",
					"type": "uint256"
				},
				{
					"internalType": "uint256",
					"name": "creatorFee",
					"type": "uint256"
				},
				{
					"internalType": "uint256",
					"name": "refundFee",
					"type": "uint256"
				}
			],
			"payable": false,
			"stateMutability": "view",
			"type": "function"
		},
		{
			"constant": true,
			"inputs": [],
			"name": "getResolverAddressesRequired",
			"outputs": [
				{
					"internalType": "bytes32[24]",
					"name": "addressesRequired",
					"type": "bytes32[24]"
				}
			],
			"payable": false,
			"stateMutability": "view",
			"type": "function"
		},
		{
			"constant": false,
			"inputs": [
				{
					"internalType": "uint256",
					"name": "delta",
					"type": "uint256"
				}
			],
			"name": "incrementTotalDeposited",
			"outputs": [],
			"payable": false,
			"stateMutability": "nonpayable",
			"type": "function"
		},
		{
			"constant": false,
			"inputs": [],
			"name": "initiateSelfDestruct",
			"outputs": [],
			"payable": false,
			"stateMutability": "nonpayable",
			"type": "function"
		},
		{
			"constant": true,
			"inputs": [],
			"name": "initiationTime",
			"outputs": [
				{
					"internalType": "uint256",
					"name": "",
					"type": "uint256"
				}
			],
			"payable": false,
			"stateMutability": "view",
			"type": "function"
		},
		{
			"constant": true,
			"inputs": [
				{
					"internalType": "contract AddressResolver",
					"name": "_resolver",
					"type": "address"
				}
			],
			"name": "isResolverCached",
			"outputs": [
				{
					"internalType": "bool",
					"name": "",
					"type": "bool"
				}
			],
			"payable": false,
			"stateMutability": "view",
			"type": "function"
		},
		{
			"constant": true,
			"inputs": [],
			"name": "lastPauseTime",
			"outputs": [
				{
					"internalType": "uint256",
					"name": "",
					"type": "uint256"
				}
			],
			"payable": false,
			"stateMutability": "view",
			"type": "function"
		},
		{
			"constant": true,
			"inputs": [],
			"name": "marketCreationEnabled",
			"outputs": [
				{
					"internalType": "bool",
					"name": "",
					"type": "bool"
				}
			],
			"payable": false,
			"stateMutability": "view",
			"type": "function"
		},
		{
			"constant": true,
			"inputs": [
				{
					"internalType": "uint256",
					"name": "index",
					"type": "uint256"
				},
				{
					"internalType": "uint256",
					"name": "pageSize",
					"type": "uint256"
				}
			],
			"name": "maturedMarkets",
			"outputs": [
				{
					"internalType": "address[]",
					"name": "",
					"type": "address[]"
				}
			],
			"payable": false,
			"stateMutability": "view",
			"type": "function"
		},
		{
			"constant": false,
			"inputs": [
				{
					"internalType": "contract BinaryOptionMarketManager",
					"name": "receivingManager",
					"type": "address"
				},
				{
					"internalType": "bool",
					"name": "active",
					"type": "bool"
				},
				{
					"internalType": "contract BinaryOptionMarket[]",
					"name": "marketsToMigrate",
					"type": "address[]"
				}
			],
			"name": "migrateMarkets",
			"outputs": [],
			"payable": false,
			"stateMutability": "nonpayable",
			"type": "function"
		},
		{
			"constant": false,
			"inputs": [
				{
					"internalType": "address",
					"name": "_owner",
					"type": "address"
				}
			],
			"name": "nominateNewOwner",
			"outputs": [],
			"payable": false,
			"stateMutability": "nonpayable",
			"type": "function"
		},
		{
			"constant": true,
			"inputs": [],
			"name": "nominatedOwner",
			"outputs": [
				{
					"internalType": "address",
					"name": "",
					"type": "address"
				}
			],
			"payable": false,
			"stateMutability": "view",
			"type": "function"
		},
		{
			"constant": true,
			"inputs": [],
			"name": "numActiveMarkets",
			"outputs": [
				{
					"internalType": "uint256",
					"name": "",
					"type": "uint256"
				}
			],
			"payable": false,
			"stateMutability": "view",
			"type": "function"
		},
		{
			"constant": true,
			"inputs": [],
			"name": "numMaturedMarkets",
			"outputs": [
				{
					"internalType": "uint256",
					"name": "",
					"type": "uint256"
				}
			],
			"payable": false,
			"stateMutability": "view",
			"type": "function"
		},
		{
			"constant": true,
			"inputs": [],
			"name": "owner",
			"outputs": [
				{
					"internalType": "address",
					"name": "",
					"type": "address"
				}
			],
			"payable": false,
			"stateMutability": "view",
			"type": "function"
		},
		{
			"constant": true,
			"inputs": [],
			"name": "paused",
			"outputs": [
				{
					"internalType": "bool",
					"name": "",
					"type": "bool"
				}
			],
			"payable": false,
			"stateMutability": "view",
			"type": "function"
		},
		{
			"constant": false,
			"inputs": [
				{
					"internalType": "bool",
					"name": "active",
					"type": "bool"
				},
				{
					"internalType": "contract BinaryOptionMarket[]",
					"name": "marketsToReceive",
					"type": "address[]"
				}
			],
			"name": "receiveMarkets",
			"outputs": [],
			"payable": false,
			"stateMutability": "nonpayable",
			"type": "function"
		},
		{
			"constant": false,
			"inputs": [
				{
					"internalType": "address",
					"name": "market",
					"type": "address"
				}
			],
			"name": "resolveMarket",
			"outputs": [],
			"payable": false,
			"stateMutability": "nonpayable",
			"type": "function"
		},
		{
			"constant": true,
			"inputs": [],
			"name": "resolver",
			"outputs": [
				{
					"internalType": "contract AddressResolver",
					"name": "",
					"type": "address"
				}
			],
			"payable": false,
			"stateMutability": "view",
			"type": "function"
		},
		{
			"constant": true,
			"inputs": [
				{
					"internalType": "uint256",
					"name": "",
					"type": "uint256"
				}
			],
			"name": "resolverAddressesRequired",
			"outputs": [
				{
					"internalType": "bytes32",
					"name": "",
					"type": "bytes32"
				}
			],
			"payable": false,
			"stateMutability": "view",
			"type": "function"
		},
		{
			"constant": false,
			"inputs": [],
			"name": "selfDestruct",
			"outputs": [],
			"payable": false,
			"stateMutability": "nonpayable",
			"type": "function"
		},
		{
			"constant": true,
			"inputs": [],
			"name": "selfDestructBeneficiary",
			"outputs": [
				{
					"internalType": "address",
					"name": "",
					"type": "address"
				}
			],
			"payable": false,
			"stateMutability": "view",
			"type": "function"
		},
		{
			"constant": true,
			"inputs": [],
			"name": "selfDestructInitiated",
			"outputs": [
				{
					"internalType": "bool",
					"name": "",
					"type": "bool"
				}
			],
			"payable": false,
			"stateMutability": "view",
			"type": "function"
		},
		{
			"constant": false,
			"inputs": [
				{
					"internalType": "uint256",
					"name": "_creatorCapitalRequirement",
					"type": "uint256"
				}
			],
			"name": "setCreatorCapitalRequirement",
			"outputs": [],
			"payable": false,
			"stateMutability": "nonpayable",
			"type": "function"
		},
		{
			"constant": false,
			"inputs": [
				{
					"internalType": "uint256",
					"name": "_creatorFee",
					"type": "uint256"
				}
			],
			"name": "setCreatorFee",
			"outputs": [],
			"payable": false,
			"stateMutability": "nonpayable",
			"type": "function"
		},
		{
			"constant": false,
			"inputs": [
				{
					"internalType": "uint256",
					"name": "_creatorSkewLimit",
					"type": "uint256"
				}
			],
			"name": "setCreatorSkewLimit",
			"outputs": [],
			"payable": false,
			"stateMutability": "nonpayable",
			"type": "function"
		},
		{
			"constant": false,
			"inputs": [
				{
					"internalType": "uint256",
					"name": "_expiryDuration",
					"type": "uint256"
				}
			],
			"name": "setExpiryDuration",
			"outputs": [],
			"payable": false,
			"stateMutability": "nonpayable",
			"type": "function"
		},
		{
			"constant": false,
			"inputs": [
				{
					"internalType": "bool",
					"name": "enabled",
					"type": "bool"
				}
			],
			"name": "setMarketCreationEnabled",
			"outputs": [],
			"payable": false,
			"stateMutability": "nonpayable",
			"type": "function"
		},
		{
			"constant": false,
			"inputs": [
				{
					"internalType": "uint256",
					"name": "_maxOraclePriceAge",
					"type": "uint256"
				}
			],
			"name": "setMaxOraclePriceAge",
			"outputs": [],
			"payable": false,
			"stateMutability": "nonpayable",
			"type": "function"
		},
		{
			"constant": false,
			"inputs": [
				{
					"internalType": "uint256",
					"name": "_maxTimeToMaturity",
					"type": "uint256"
				}
			],
			"name": "setMaxTimeToMaturity",
			"outputs": [],
			"payable": false,
			"stateMutability": "nonpayable",
			"type": "function"
		},
		{
			"constant": false,
			"inputs": [
				{
					"internalType": "contract BinaryOptionMarketManager",
					"name": "manager",
					"type": "address"
				}
			],
			"name": "setMigratingManager",
			"outputs": [],
			"payable": false,
			"stateMutability": "nonpayable",
			"type": "function"
		},
		{
			"constant": false,
			"inputs": [
				{
					"internalType": "bool",
					"name": "_paused",
					"type": "bool"
				}
			],
			"name": "setPaused",
			"outputs": [],
			"payable": false,
			"stateMutability": "nonpayable",
			"type": "function"
		},
		{
			"constant": false,
			"inputs": [
				{
					"internalType": "uint256",
					"name": "_poolFee",
					"type": "uint256"
				}
			],
			"name": "setPoolFee",
			"outputs": [],
			"payable": false,
			"stateMutability": "nonpayable",
			"type": "function"
		},
		{
			"constant": false,
			"inputs": [
				{
					"internalType": "uint256",
					"name": "_refundFee",
					"type": "uint256"
				}
			],
			"name": "setRefundFee",
			"outputs": [],
			"payable": false,
			"stateMutability": "nonpayable",
			"type": "function"
		},
		{
			"constant": false,
			"inputs": [
				{
					"internalType": "contract AddressResolver",
					"name": "_resolver",
					"type": "address"
				}
			],
			"name": "setResolverAndSyncCache",
			"outputs": [],
			"payable": false,
			"stateMutability": "nonpayable",
			"type": "function"
		},
		{
			"constant": false,
			"inputs": [
				{
					"internalType": "contract AddressResolver",
					"name": "_resolver",
					"type": "address"
				},
				{
					"internalType": "contract BinaryOptionMarket[]",
					"name": "marketsToSync",
					"type": "address[]"
				}
			],
			"name": "setResolverAndSyncCacheOnMarkets",
			"outputs": [],
			"payable": false,
			"stateMutability": "nonpayable",
			"type": "function"
		},
		{
			"constant": false,
			"inputs": [
				{
					"internalType": "address payable",
					"name": "_beneficiary",
					"type": "address"
				}
			],
			"name": "setSelfDestructBeneficiary",
			"outputs": [],
			"payable": false,
			"stateMutability": "nonpayable",
			"type": "function"
		},
		{
			"constant": false,
			"inputs": [],
			"name": "terminateSelfDestruct",
			"outputs": [],
			"payable": false,
			"stateMutability": "nonpayable",
			"type": "function"
		},
		{
			"constant": true,
			"inputs": [],
			"name": "totalDeposited",
			"outputs": [
				{
					"internalType": "uint256",
					"name": "",
					"type": "uint256"
				}
			],
			"payable": false,
			"stateMutability": "view",
			"type": "function"
		}
	],
	"evm": {
		"bytecode": {
			"linkReferences": {
				"BinaryOptionMarketManager.sol": {
					"SafeDecimalMath": [
						{
							"length": 20,
							"start": 2035
						},
						{
							"length": 20,
							"start": 2398
						},
						{
							"length": 20,
							"start": 2857
						},
						{
							"length": 20,
							"start": 3298
						},
						{
							"length": 20,
							"start": 8237
						},
						{
							"length": 20,
							"start": 9463
						},
						{
							"length": 20,
							"start": 11541
						},
						{
							"length": 20,
							"start": 14422
						}
					]
				}
			},
			"object": "60806040526001601181816200001462000eab565b8160ff021916908315150217906200002b62000f0d565b5050506040516080810160409081526b53797374656d53746174757360a01b82526814de5b9d1a1cd554d160ba1b60208301526c45786368616e6765526174657360981b908201527f42696e6172794f7074696f6e4d61726b6574466163746f7279000000000000006060820152620000a990601890600462000f5c565b50348015620000c257600080620000bf62000faa565b50505b50604051620054a0380380620054a08339818101604052610140811015620000f457600080620000f162000faa565b50505b81019080805192919060200180519291906020018051929190602001805192919060200180519291906020018051929190602001805192919060200180519291906020018051929190602001805192508a915060189050806103006040519081016040529190610300830182845b816200016d62000eab565b815260200190600101908083116200016257508f93505050506001600160a01b038116620001ec5760405162461bcd60e51b815260206004820152601960248201527f4f776e657220616464726573732063616e6e6f74206265203000000000000000604482015260640160405180910390620001e962000faa565b50505b806000600181620001fc62000eab565b816001600160a01b0302191690836001600160a01b03160217906200022062000f0d565b5050507fb532073b38c83145e3e5135377a08bf9aab55bc0fd7c1179cd4fb995d2a5159c6000826040516001600160a01b039283168152911660208201526040908101905180910390a150600080806200027962000eab565b906101000a90046001600160a01b03166001600160a01b03161415620002e45760405162461bcd60e51b815260206004820152601160248201527013dddb995c881b5d5cdd081899481cd95d607a1b604482015260640160405180910390620002e162000faa565b50505b60008080620002f262000eab565b906101000a90046001600160a01b03166001600160a01b031614156200035d5760405162461bcd60e51b815260206004820152601160248201527013dddb995c881b5d5cdd081899481cd95d607a1b6044820152606401604051809103906200035a62000faa565b50505b6000806200036a62000eab565b906101000a90046001600160a01b0316600560016101000a816200038d62000eab565b816001600160a01b0302191690836001600160a01b0316021790620003b162000f0d565b5050507fd5da63a0b864b315bc04128dedbc93888c8529ee6cf47ce664dc204339228c5360008090620003e362000eab565b906101000a90046001600160a01b03166040516001600160a01b03909116815260200160405180910390a1600080806200041c62000eab565b906101000a90046001600160a01b03166001600160a01b03161415620004875760405162461bcd60e51b815260206004820152601160248201527013dddb995c881b5d5cdd081899481cd95d607a1b6044820152606401604051809103906200048462000faa565b50505b60005b601881101562000517576000828260188110620004a357fe5b60200201511462000508576008828260188110620004bd57fe5b60200201519080600181620004d162000eab565b018082620004de62000f0d565b5050600092835291600019830191506020902091929101620004ff62000f0d565b5050506200050e565b62000517565b6001016200048a565b508160066001816200052862000eab565b816001600160a01b0302191690836001600160a01b03160217906200054c62000f0d565b50505050505a6200055c62001017565b60006001816200056b62000eab565b816001600160a01b0302191690836001600160a01b03160217906200058f62000f0d565b505050620005a3876200067660201b60201c565b620005b7886001600160e01b03620006d016565b620005cb866001600160e01b036200072a16565b620005df856001600160e01b036200078416565b620005f3846001600160e01b03620007de16565b62000607836001600160e01b036200093716565b6200061b826001600160e01b0362000b0216565b6200062f816001600160e01b0362000ccd16565b8960006001816200063f62000eab565b816001600160a01b0302191690836001600160a01b03160217906200066362000f0d565b5050505050505050505050505062001195565b620006896001600160e01b0362000e2616565b8080600d6200069762000f0d565b5050507ff378a0fd4ad3ffd9d7d50986f16b04acd2dc42691c4f412f34e8eefe883e66528160405190815260200160405180910390a150565b620006e36001600160e01b0362000e2616565b8080600c620006f162000f0d565b5050507f5a2f2eae84f9e787d8159d363a776fa2b61d084686190cdc5a2c1ea833480b098160405190815260200160405180910390a150565b6200073d6001600160e01b0362000e2616565b8080600e6200074b62000f0d565b5050507f6de18e808fc4e6cb9c8910cf4bdc188ddbbdab65faecff65dab871720e8484898160405190815260200160405180910390a150565b620007976001600160e01b0362000e2616565b8080600f620007a562000f0d565b5050507fdf7a26ae2e2eb953b81fd76b72fcdc74ebff7c21faa8f8f55323183d9785f52d8160405190815260200160405180910390a150565b620007f16001600160e01b0362000e2616565b73__$981eaff4516d951b878b1a7f17446065b3$__63907af6c06040518163ffffffff1660e01b81526004016020604051808303818680620008326200105e565b1580156200084a576000806200084762000faa565b50505b505a62000856620010ab565b505050505015801562000878573d6000803e3d60006200087562000faa565b50505b505050506040513d60208110156200089a576000806200089762000faa565b50505b8101908080518411159250620008f09150505760405162461bcd60e51b815260040180806020018281038252602d815260200180620053fb602d913960400191505060405180910390620008ed62000faa565b50505b80806010620008fe62000f0d565b5050507fd39cfbe31b20dbb6d995a675cf5c369555bf8bb908b6efc03873907fe9e133cf8160405190815260200160405180910390a150565b6200094a6001600160e01b0362000e2616565b6000600a6200095862000eab565b8201905073__$981eaff4516d951b878b1a7f17446065b3$__63907af6c06040518163ffffffff1660e01b815260040160206040518083038186806200099d6200105e565b158015620009b557600080620009b262000faa565b50505b505a620009c1620010ab565b5050505050158015620009e3573d6000803e3d6000620009e062000faa565b50505b505050506040513d602081101562000a055760008062000a0262000faa565b50505b8101908080518410925062000a5a9150505760405162461bcd60e51b815260040180806020018281038252602181526020018062005428602191396040019150506040518091039062000a5762000faa565b50505b8060001062000aba5760405162461bcd60e51b815260206004820152601a60248201527f546f74616c20666565206d757374206265206e6f6e7a65726f2e00000000000060448201526064016040518091039062000ab762000faa565b50505b8180600962000ac862000f0d565b5050507f7b30e8f8e3de254785fbcb3068449dc18060f1fdb37b02731ecada99a78492c38260405190815260200160405180910390a15050565b62000b156001600160e01b0362000e2616565b6000600962000b2362000eab565b8201905073__$981eaff4516d951b878b1a7f17446065b3$__63907af6c06040518163ffffffff1660e01b8152600401602060405180830381868062000b686200105e565b15801562000b805760008062000b7d62000faa565b50505b505a62000b8c620010ab565b505050505015801562000bae573d6000803e3d600062000bab62000faa565b50505b505050506040513d602081101562000bd05760008062000bcd62000faa565b50505b8101908080518410925062000c259150505760405162461bcd60e51b815260040180806020018281038252602181526020018062005428602191396040019150506040518091039062000c2262000faa565b50505b8060001062000c855760405162461bcd60e51b815260206004820152601a60248201527f546f74616c20666565206d757374206265206e6f6e7a65726f2e00000000000060448201526064016040518091039062000c8262000faa565b50505b8180600a62000c9362000f0d565b5050507f8c14462add32e0ae0fbfcf9e60711ecae573da337dc9127fff98fb7cfb3973b48260405190815260200160405180910390a15050565b62000ce06001600160e01b0362000e2616565b73__$981eaff4516d951b878b1a7f17446065b3$__63907af6c06040518163ffffffff1660e01b8152600401602060405180830381868062000d216200105e565b15801562000d395760008062000d3662000faa565b50505b505a62000d45620010ab565b505050505015801562000d67573d6000803e3d600062000d6462000faa565b50505b505050506040513d602081101562000d895760008062000d8662000faa565b50505b810190808051841115925062000ddf9150505760405162461bcd60e51b815260040180806020018281038252602881526020018062005478602891396040019150506040518091039062000ddc62000faa565b50505b8080600b62000ded62000f0d565b5050507f01634ac4e9f09be1ef87b8d09e14926870261dcb9a0929d2d6460af6e4c5ad1e8160405190815260200160405180910390a150565b60008062000e3362000eab565b906101000a90046001600160a01b03166001600160a01b03165a62000e5762001017565b6001600160a01b03161462000ea95760405162461bcd60e51b815260040180806020018281038252602f81526020018062005449602f91396040019150506040518091039062000ea662000faa565b50505b565b6303daa959598160e01b8152836004820152602081602483336000905af158600e01573d6000803e3d6000fd5b3d6001141558600a015760016000f35b8051935060005b604081101562000f085760008282015260200162000eef565b505050565b6322bd64c0598160e01b8152836004820152846024820152600081604483336000905af158600e01573d6000803e3d6000fd5b3d6001141558600a015760016000f35b60008152602062000eef565b826018810192821562000f98579160200282015b8281111562000f985782518262000f8662000f0d565b50509160200191906001019062000f70565b5062000fa692915062001168565b5090565b632a2a7adb598160e01b8152600481016020815285602082015260005b8681101562000fe457808601518282016040015260200162000fc7565b506020828760640184336000905af158600e01573d6000803e3d6000fd5b3d6001141558600a015760016000f35b505050565b6373509064598160e01b8152602081600483336000905af158600e01573d6000803e3d6000fd5b3d6001141558600a015760016000f35b8051600082529350602062000eef565b638435035b598160e01b8152836004820152602081602483336000905af158600e01573d6000803e3d6000fd5b3d6001141558600a015760016000f35b8051600082529350602062000eef565b63ffe73914598160e01b8152836004820152846024820152606060448201528660648201526084810160005b88811015620010f1578088015182820152602001620010d7565b50876101040182016060838a6101040185336000905af158600e01573d6000803e3d6000fd5b3d6001141558600a015760016000f35b825160408401513d6000863e8c8c82606088013350600060045af15059855b818110156200115c576000815260200162001146565b50919c50505050505050565b6200119291905b8082111562000fa657600080826200118662000f0d565b5050506001016200116f565b90565b61425680620011a56000396000f3fe608060405234801561001957600080610016613cf0565b50505b50600436106102c45760003560e01c806379ba50971161018b578063aeab5849116100f2578063c095daf2116100ab578063e3235c9111610085578063e3235c9114610a6c578063e73efc9b14610a74578063fe40c47014610aa0578063ff50abdc14610acf576102c4565b8063c095daf214610a18578063c58aaae614610a3e578063c6c9d82814610a46576102c4565b8063aeab58491461090a578063b8225dec14610930578063bd32aa4414610938578063bd6a10b814610940578063be5af9fe14610966578063c014fb8414610986576102c4565b80639af1d35a116101445780639af1d35a1461080e5780639cb8a26a14610816578063a461fc821461081e578063ab49848c14610826578063ac60c48614610867578063adfd31af1461086f576102c4565b806379ba50971461071357806389c6318d1461071b5780638da5cb5b1461079a57806391b4ded9146107a257806394fcf3c3146107aa5780639501dc87146107e8576102c4565b806339ab4c411161022f578063631e1444116101e8578063631e14441461063b57806364af2d871461066a57806364cf34bd146106725780636b3a09841461069857806373b7de15146106be5780637859f410146106e4576102c4565b806339ab4c41146104f25780633be99e6f1461051a5780634a41d89d1461054957806353a47bb714610575578063543d6c741461057d5780635c975abb1461061f576102c4565b806316c38b3c1161028157806316c38b3c1461043657806317c70de41461045e5780631f3f10b01461046657806320714f88146104955780633278c960146104c457806336fd711e146104cc576102c4565b806302610c50146102d257806303ff6018146102ec57806304f3bcec146103975780630dd16fd5146103bb57806315502840146103e15780631627540c14610407575b6000806102cf613cf0565b50505b6102da610ad7565b60405190815260200160405180910390f35b6103956004803603606081101561030b57600080610308613cf0565b50505b6001600160a01b03823516916020810135151591810190606081016040820135600160201b81111561034557600080610342613cf0565b50505b8201836020820111156103605760008061035d613cf0565b50505b803590602001918460208302840111600160201b8311171561038a57600080610387613cf0565b50505b509092509050610aea565b005b61039f610e4f565b6040516001600160a01b03909116815260200160405180910390f35b610395600480360360208110156103da576000806103d7613cf0565b50505b5035610e6e565b61039560048036036020811015610400576000806103fd613cf0565b50505b5035611016565b6103956004803603602081101561042657600080610423613cf0565b50505b50356001600160a01b0316611063565b6103956004803603602081101561045557600080610452613cf0565b50505b503515156110dd565b6102da6111b3565b6103956004803603602081101561048557600080610482613cf0565b50505b50356001600160a01b03166111c0565b610395600480360360208110156104b4576000806104b1613cf0565b50505b50356001600160a01b03166111f8565b6103956112d7565b610395600480360360208110156104eb576000806104e8613cf0565b50505b5035611348565b610395600480360360208110156105115760008061050e613cf0565b50505b50351515611483565b6103956004803603602081101561053957600080610536613cf0565b50505b50356001600160a01b0316611509565b6105516116d3565b60405180848152602001838152602001828152602001935050505060405180910390f35b61039f6116fd565b6103956004803603604081101561059c57600080610599613cf0565b50505b6001600160a01b038235169190810190604081016020820135600160201b8111156105cf576000806105cc613cf0565b50505b8201836020820111156105ea576000806105e7613cf0565b50505b803590602001918460208302840111600160201b8311171561061457600080610611613cf0565b50505b509092509050611709565b6106276117d2565b604051901515815260200160405180910390f35b6106276004803603602081101561065a57600080610657613cf0565b50505b50356001600160a01b03166117eb565b6106276119c7565b610395600480360360208110156106915760008061068e613cf0565b50505b50356119d3565b610395600480360360208110156106b7576000806106b4613cf0565b50505b5035611a20565b610395600480360360208110156106dd576000806106da613cf0565b50505b5035611b66565b6103956004803603602081101561070357600080610700613cf0565b50505b50356001600160a01b0316611ca1565b610395611da0565b6107476004803603604081101561073a57600080610737613cf0565b50505b5080359060200135611f23565b60405160208082528190810183818151815260200191508051906020019060200280838360005b8381101561078657808201518382015260200161076e565b505050509050019250505060405180910390f35b61039f611f40565b6102da611f4b565b61039f600480360360e08110156107c9576000806107c6613cf0565b50505b508035906020810135906040810135151590606081019060a001611f55565b6103956004803603602081101561080757600080610804613cf0565b50505b5035612697565b61055161283f565b61039561284a565b6102da61298d565b61082e612994565b604051808261030080838360005b8381101561085457808201518382015260200161083c565b5050505090500191505060405180910390f35b6102da6129f6565b6103956004803603604081101561088e5760008061088b613cf0565b50505b813515159190810190604081016020820135600160201b8111156108ba576000806108b7613cf0565b50505b8201836020820111156108d5576000806108d2613cf0565b50505b803590602001918460208302840111600160201b831117156108ff576000806108fc613cf0565b50505b509092509050612a03565b6103956004803603602081101561092957600080610926613cf0565b50505b5035612ca4565b610627612de8565b610395612df4565b6103956004803603602081101561095f5760008061095c613cf0565b50505b5035612e76565b61096e612ec3565b60405191825260208201526040908101905180910390f35b610395600480360360208110156109a5576000806109a2613cf0565b50505b810190602081018135600160201b8111156109c8576000806109c5613cf0565b50505b8201836020820111156109e3576000806109e0613cf0565b50505b803590602001918460208302840111600160201b83111715610a0d57600080610a0a613cf0565b50505b509092509050612ee0565b61039560048036036020811015610a3757600080610a34613cf0565b50505b5035613057565b61039f6130a4565b6102da60048036036020811015610a6557600080610a62613cf0565b50505b50356130b0565b6102da6130d8565b61074760048036036040811015610a9357600080610a90613cf0565b50505b50803590602001356130dd565b61039560048036036020811015610abf57600080610abc613cf0565b50505b50356001600160a01b03166130f1565b6102da6133ae565b6000601380610ae4613d5b565b91505090565b610af26133b8565b8080610afe5750610e49565b600084610b0c576015610b0f565b60135b90506000805b83811015610cea576000868683818110610b2b57fe5b905060200201356001600160a01b03169050610b4681613432565b610b915760405162461bcd60e51b815260206004820152600f60248201526e26b0b935b2ba103ab735b737bbb71760891b604482015260640160405180910390610b8e613cf0565b50505b610ba1848263ffffffff61345c16565b610c4c816001600160a01b031663eef49ee36040518163ffffffff1660e01b81526004016020604051808303818680610bd8613db6565b158015610bed57600080610bea613cf0565b50505b505a610bf7613e02565b5050505050158015610c16573d6000803e3d6000610c13613cf0565b50505b505050506040513d6020811015610c3557600080610c32613cf0565b50505b81019080805187935091505063ffffffff61362716565b9250806001600160a01b0316631627540c8a6040516001600160e01b031960e084901b1681526001600160a01b03909116600482015260240160006040518083038160008780610c9a613db6565b158015610caf57600080610cac613cf0565b50505b505a610cb9613ebb565b505050505050158015610cd9573d6000803e3d6000610cd6613cf0565b50505b505060019093019250610b15915050565b50610d05816012610cf9613d5b565b9063ffffffff61368f16565b806012610d10613f74565b5050507f3e429aa34462b428d3f7277acb67e1c83d80a57faab2a47924369b5060f356798786866040516001600160a01b03841681526040602080830182815291830184905260608301908590850280828437600083820152601f01601f1916909101955060409450505050505180910390a1866001600160a01b031663adfd31af8787876040516001600160e01b031960e086901b168152831515600482019081526040602483019081526044830184905290916064018460208502808284376000838201819052601f909101601f1916909201965090945060409350505050518083038160008780610e02613db6565b158015610e1757600080610e14613cf0565b50505b505a610e21613ebb565b505050505050158015610e41573d6000803e3d6000610e3e613cf0565b50505b505050505050505b50505050565b60006006610e5b613d5b565b906101000a90046001600160a01b031681565b610e766133b8565b60006009610e82613d5b565b8201905073__$981eaff4516d951b878b1a7f17446065b3$__63907af6c06040518163ffffffff1660e01b81526004016020604051808303818680610ec5613db6565b158015610eda57600080610ed7613cf0565b50505b505a610ee4613fc2565b5050505050158015610f03573d6000803e3d6000610f00613cf0565b50505b505050506040513d6020811015610f2257600080610f1f613cf0565b50505b81019080805184109250610f739150505760405162461bcd60e51b81526004018080602001828103825260218152602001806141116021913960400191505060405180910390610f70613cf0565b50505b80600010610fd05760405162461bcd60e51b815260206004820152601a60248201527f546f74616c20666565206d757374206265206e6f6e7a65726f2e000000000000604482015260640160405180910390610fcd613cf0565b50505b8180600a610fdc613f74565b5050507f8c14462add32e0ae0fbfcf9e60711ecae573da337dc9127fff98fb7cfb3973b48260405190815260200160405180910390a15050565b61101e6133b8565b8080600d61102a613f74565b5050507ff378a0fd4ad3ffd9d7d50986f16b04acd2dc42691c4f412f34e8eefe883e66528160405190815260200160405180910390a150565b61106b6133b8565b8060018080611078613d5b565b816001600160a01b0302191690836001600160a01b031602179061109a613f74565b5050507f906a1c6bd7e3091ea86693dd029a831c19049ce77f1dce2ce0bab1cacbabce22816040516001600160a01b03909116815260200160405180910390a150565b6110e56133b8565b600060036110f1613d5b565b906101000a900460ff161515811515141561110b576111b0565b806003600181611119613d5b565b8160ff0219169083151502179061112e613f74565b505050600360009061113e613d5b565b906101000a900460ff1615611165575a611156614005565b806002611161613f74565b5050505b7f8fb6c181ee25a520cf3dd6565006ef91229fcfe5a989566c2a3b8c115570cec560006003611192613d5b565b906101000a900460ff16604051901515815260200160405180910390a15b50565b60046111bd613d5b565b81565b6111c86133b8565b8060176001816111d6613d5b565b816001600160a01b0302191690836001600160a01b0316021790610e49613f74565b6112006133b8565b6001600160a01b0381166112635760405162461bcd60e51b815260206004820152601c60248201527f42656e6566696369617279206d757374206e6f74206265207a65726f00000000604482015260640160405180910390611260613cf0565b50505b80600561010081611272613d5b565b816001600160a01b0302191690836001600160a01b0316021790611294613f74565b5050507fd5da63a0b864b315bc04128dedbc93888c8529ee6cf47ce664dc204339228c53816040516001600160a01b03909116815260200160405180910390a150565b6112df6133b8565b60008060046112ec613f74565b5050506000600560006101000a81611302613d5b565b8160ff02191690831515021790611317613f74565b5050507f6adcc7125002935e0aa31697538ebbd65cfddf20431eb6ecdcfc3e238bfd082c60405160405180910390a1565b6113506133b8565b73__$981eaff4516d951b878b1a7f17446065b3$__63907af6c06040518163ffffffff1660e01b8152600401602060405180830381868061138f613db6565b1580156113a4576000806113a1613cf0565b50505b505a6113ae613fc2565b50505050501580156113cd573d6000803e3d60006113ca613cf0565b50505b505050506040513d60208110156113ec576000806113e9613cf0565b50505b810190808051841115925061143e9150505760405162461bcd60e51b815260040180806020018281038252602881526020018061422e602891396040019150506040518091039061143b613cf0565b50505b8080600b61144a613f74565b5050507f01634ac4e9f09be1ef87b8d09e14926870261dcb9a0929d2d6460af6e4c5ad1e8160405190815260200160405180910390a150565b61148b6133b8565b60006011611497613d5b565b906101000a900460ff161515811515146111b0578060116001816114b9613d5b565b8160ff021916908315150217906114ce613f74565b5050507fcc590b6309435383b617aaa0cae6aba938f2ee471cfb539201dd7655a23caff981604051901515815260200160405180910390a150565b6115116133b8565b80600660018161151f613d5b565b816001600160a01b0302191690836001600160a01b0316021790611541613f74565b5060009150505b600880611553613d5b565b90508110156116cf5760006008828161156a613d5b565b811061157257fe5b90600052602060002001611584613d5b565b905060006006611592613d5b565b906101000a90046001600160a01b03166001600160a01b031663dacb2d01826040516001600160e01b031960e084901b1681526004810191909152604060248201819052601760448301527f5265736f6c766572206d697373696e672074617267657400000000000000000060648301526084909101906020905180830381868061161b613db6565b1580156116305760008061162d613cf0565b50505b505a61163a613e02565b5050505050158015611659573d6000803e3d6000611656613cf0565b50505b505050506040513d602081101561167857600080611675613cf0565b50505b810190808051600085815260076020529093506040925090502060018161169d613d5b565b816001600160a01b0302191690836001600160a01b03160217906116bf613f74565b5050600190920191506115489050565b5050565b600c806116de613d5b565b90806001016116eb613d5b565b90806002016116f8613d5b565b905083565b60006001610e5b613d5b565b6117116133b8565b60005b81811015610e495782828281811061172857fe5b905060200201356001600160a01b03166001600160a01b0316633be99e6f856040516001600160e01b031960e084901b1681526001600160a01b03909116600482015260240160006040518083038160008780611783613db6565b15801561179857600080611795613cf0565b50505b505a6117a2613ebb565b5050505050501580156117c2573d6000803e3d60006117bf613cf0565b50505b5050600190920191506117149050565b600060036117de613d5b565b906101000a900460ff1681565b60006001600160a01b038216816006611802613d5b565b906101000a90046001600160a01b03166001600160a01b031614611828575060006119c2565b60005b600880611836613d5b565b90508110156119bc5760006008828161184d613d5b565b811061185557fe5b90600052602060002001611867613d5b565b6000818152600760205290915060409020600090611883613d5b565b6001600160a01b036101009290920a900416600060066118a1613d5b565b906101000a90046001600160a01b03166001600160a01b03166321f8a721836040516001600160e01b031960e084901b168152600481019190915260240160206040518083038186806118f2613db6565b15801561190757600080611904613cf0565b50505b505a611911613e02565b5050505050158015611930573d6000803e3d600061192d613cf0565b50505b505050506040513d602081101561194f5760008061194c613cf0565b50505b8101908080516001600160a01b0316939093141592508291506119a3905057506000818152600760205260408120600090611988613d5b565b906101000a90046001600160a01b03166001600160a01b0316145b156119b3576000925050506119c2565b5060010161182b565b50600190505b919050565b600060116117de613d5b565b6119db6133b8565b8080600e6119e7613f74565b5050507f6de18e808fc4e6cb9c8910cf4bdc188ddbbdab65faecff65dab871720e8484898160405190815260200160405180910390a150565b611a315a611a2c61404b565b613432565b611a755760405162461bcd60e51b81526004018080602001828103825260218152602001806141546021913960400191505060405180910390611a72613cf0565b50505b60006003611a81613d5b565b906101000a900460ff1615611ad05760405162461bcd60e51b815260040180806020018281038252603c8152602001806141c9603c913960400191505060405180910390611acd613cf0565b50505b611ad86136f4565b6001600160a01b031663086dabd16040518163ffffffff1660e01b81526004016000604051808303818680611b0b613db6565b158015611b2057600080611b1d613cf0565b50505b505a611b2a613e02565b5050505050158015611b49573d6000803e3d6000611b46613cf0565b50505b50505050611b5b816012610cf9613d5b565b806012610e49613f74565b611b6e6133b8565b73__$981eaff4516d951b878b1a7f17446065b3$__63907af6c06040518163ffffffff1660e01b81526004016020604051808303818680611bad613db6565b158015611bc257600080611bbf613cf0565b50505b505a611bcc613fc2565b5050505050158015611beb573d6000803e3d6000611be8613cf0565b50505b505050506040513d6020811015611c0a57600080611c07613cf0565b50505b8101908080518411159250611c5c9150505760405162461bcd60e51b815260040180806020018281038252602d8152602001806140e4602d913960400191505060405180910390611c59613cf0565b50505b80806010611c68613f74565b5050507fd39cfbe31b20dbb6d995a675cf5c369555bf8bb908b6efc03873907fe9e133cf8160405190815260200160405180910390a150565b611cb260138263ffffffff61374716565b611d025760405162461bcd60e51b8152602060048201526014602482015273139bdd08185b881858dd1a5d99481b585c9ad95d60621b604482015260640160405180910390611cff613cf0565b50505b806001600160a01b0316632810e1d66040518163ffffffff1660e01b815260040160006040518083038160008780611d38613db6565b158015611d4d57600080611d4a613cf0565b50505b505a611d57613ebb565b505050505050158015611d77573d6000803e3d6000611d74613cf0565b50505b50505050611d8f81601361345c90919063ffffffff16565b6111b060158263ffffffff6137e616565b60006001611dac613d5b565b906101000a90046001600160a01b03166001600160a01b03165a611dce61404b565b6001600160a01b031614611e1c5760405162461bcd60e51b81526004018080602001828103825260358152602001806140af6035913960400191505060405180910390611e19613cf0565b50505b7fb532073b38c83145e3e5135377a08bf9aab55bc0fd7c1179cd4fb995d2a5159c600080611e48613d5b565b906101000a90046001600160a01b03166001600090611e65613d5b565b906101000a90046001600160a01b03166040516001600160a01b039283168152911660208201526040908101905180910390a160006001611ea4613d5b565b906101000a90046001600160a01b03166000806101000a81611ec4613d5b565b816001600160a01b0302191690836001600160a01b0316021790611ee6613f74565b5050506000600160006101000a81611efc613d5b565b816001600160a01b0302191690836001600160a01b0316021790611f1e613f74565b505050565b6060611f376015848463ffffffff61387916565b90505b92915050565b600080610e5b613d5b565b60026111bd613d5b565b6000806003611f62613d5b565b906101000a900460ff1615611fb15760405162461bcd60e51b815260040180806020018281038252603c8152602001806141c9603c913960400191505060405180910390611fae613cf0565b50505b611fb96136f4565b6001600160a01b031663086dabd16040518163ffffffff1660e01b81526004016000604051808303818680611fec613db6565b15801561200157600080611ffe613cf0565b50505b505a61200b613e02565b505050505015801561202a573d6000803e3d6000612027613cf0565b50505b50505050601160009061203b613d5b565b906101000a900460ff1661209e5760405162461bcd60e51b815260206004820152601b60248201527f4d61726b6574206372656174696f6e2069732064697361626c6564000000000060448201526064016040518091039061209b613cf0565b50505b6120a78661398a565b6120ee5760405162461bcd60e51b815260206004820152600b60248201526a496e76616c6964206b657960a81b6044820152606401604051809103906120eb613cf0565b50505b82356020840135600e6120ff613d5b565b5a612108614005565b018111156121655760405162461bcd60e51b815260206004820152601e60248201527f4d6174757269747920746f6f2066617220696e20746865206675747572650000604482015260640160405180910390612162613cf0565b50505b6000612181600d612174613d5b565b839063ffffffff61362716565b9050600061219486356020880135613627565b9050835a6121a0614005565b106121fa5760405162461bcd60e51b815260206004820152601960248201527f456e64206f662062696464696e672068617320706173736564000000000000006044820152606401604051809103906121f7613cf0565b50505b8284106122565760405162461bcd60e51b815260206004820181905260248201527f4d6174757269747920707265646174657320656e64206f662062696464696e67604482015260640160405180910390612253613cf0565b50505b6000612260613b57565b6001600160a01b031663130efa505a61227761404b565b6040516040808201905280600f61228c613d5b565b8152602001601061229b613d5b565b90528e8e8e60405180606001604052808d81526020018c81526020018b8152508e604051606081016040528060096122d1613d5b565b8152602001600a6122e0613d5b565b8152602001600b6122ef613d5b565b90526040516001600160e01b031960e08b901b1681526001600160a01b038916600482019081529060240188604080838360005b8381101561233b578082015183820152602001612323565b505050509050018781526020018681526020018515151515815260200184600360200280838360005b8381101561237c578082015183820152602001612364565b5050505090500183600260200280828437600081840152601f19601f82011690508083019250505082600360200280838360005b838110156123c85780820151838201526020016123b0565b5050505090500198505050505050505050602060405180830381600087806123ee613db6565b15801561240357600080612400613cf0565b50505b505a61240d613ebb565b50505050505015801561242d573d6000803e3d600061242a613cf0565b50505b505050506040513d602081101561244c57600080612449613cf0565b50505b8101908080519350506001600160a01b0383169150633be99e6f905060006006612474613d5b565b906101000a90046001600160a01b03166040516001600160e01b031960e084901b1681526001600160a01b039091166004820152602401600060405180830381600087806124c0613db6565b1580156124d5576000806124d2613cf0565b50505b505a6124df613ebb565b5050505050501580156124ff573d6000803e3d60006124fc613cf0565b50505b505050506125178160136137e690919063ffffffff16565b612531826012612525613d5b565b9063ffffffff61362716565b80601261253c613f74565b505050612547613b99565b6001600160a01b03166323b872dd5a61255e61404b565b83856040516001600160e01b031960e086901b1681526001600160a01b0393841660048201529190921660248201526044810191909152606401602060405180830381600087806125ad613db6565b1580156125c2576000806125bf613cf0565b50505b505a6125cc613ebb565b5050505050501580156125ec573d6000803e3d60006125e9613cf0565b50505b505050506040513d602081101561260b57600080612608613cf0565b50505b810190808051508d925050505a61262061404b565b6001600160a01b03167fbcd154709bbe69680012cadcd07d57bd4a0ec64a033c2a3e31d2d0fadb38d3a8838d8989896040516001600160a01b03909516855260208501939093526040808501929092526060840152608083019190915260a0909101905180910390a39a9950505050505050505050565b61269f6133b8565b6000600a6126ab613d5b565b8201905073__$981eaff4516d951b878b1a7f17446065b3$__63907af6c06040518163ffffffff1660e01b815260040160206040518083038186806126ee613db6565b15801561270357600080612700613cf0565b50505b505a61270d613fc2565b505050505015801561272c573d6000803e3d6000612729613cf0565b50505b505050506040513d602081101561274b57600080612748613cf0565b50505b8101908080518410925061279c9150505760405162461bcd60e51b81526004018080602001828103825260218152602001806141116021913960400191505060405180910390612799613cf0565b50505b806000106127f95760405162461bcd60e51b815260206004820152601a60248201527f546f74616c20666565206d757374206265206e6f6e7a65726f2e0000000000006044820152606401604051809103906127f6613cf0565b50505b81806009612805613f74565b5050507f7b30e8f8e3de254785fbcb3068449dc18060f1fdb37b02731ecada99a78492c38260405190815260200160405180910390a15050565b6009806116de613d5b565b6128526133b8565b6000600561285e613d5b565b906101000a900460ff166128c15760405162461bcd60e51b815260206004820152601f60248201527f53656c66204465737472756374206e6f742079657420696e69746961746564006044820152606401604051809103906128be613cf0565b50505b5a6128ca614005565b6224ea0060046128d8613d5b565b01106129335760405162461bcd60e51b815260206004820152601b60248201527f53656c662064657374727563742064656c6179206e6f74206d65740000000000604482015260640160405180910390612930613cf0565b50505b7f8a09e1677ced846cb537dc2b172043bd05a1a81ad7e0033a7ef8ba762df990b760016005612960613d5b565b906101000a90046001600160a01b03166040516001600160a01b03909116815260200160405180910390a1565b6224ea0081565b61299c614091565b60005b6008806129aa613d5b565b90508110156129f257600881816129bf613d5b565b81106129c757fe5b906000526020600020016129d9613d5b565b8282601881106129e557fe5b602002015260010161299f565b5090565b6000601580610ae4613d5b565b60006017612a0f613d5b565b906101000a90046001600160a01b03166001600160a01b03165a612a3161404b565b6001600160a01b031614612a7f5760405162461bcd60e51b81526004018080602001828103825260258152602001806141a46025913960400191505060405180910390612a7c613cf0565b50505b8080612a8b5750611f1e565b600084612a99576015612a9c565b60135b90506000805b83811015612bf3576000868683818110612ab857fe5b905060200201356001600160a01b03169050612ad381613432565b15612b255760405162461bcd60e51b815260206004820152601560248201527426b0b935b2ba1030b63932b0b23c9035b737bbb71760591b604482015260640160405180910390612b22613cf0565b50505b806001600160a01b03166379ba50976040518163ffffffff1660e01b815260040160006040518083038160008780612b5b613db6565b158015612b7057600080612b6d613cf0565b50505b505a612b7a613ebb565b505050505050158015612b9a573d6000803e3d6000612b97613cf0565b50505b50505050612bb181856137e690919063ffffffff16565b612be8816001600160a01b031663eef49ee36040518163ffffffff1660e01b81526004016020604051808303818680610bd8613db6565b925050600101612aa2565b50612c02816012612525613d5b565b806012612c0d613f74565b5050507fea7a4e14e72ba7db7e2fd406278900badf50b2ce7d9def39d613cc08054c537b6017600090612c3e613d5b565b906101000a90046001600160a01b031686866040516001600160a01b03841681526040602080830182815291830184905260608301908590850280828437600083820152601f01601f1916909101955060409450505050505180910390a1505050505050565b612cbe5a612cb061404b565b60139063ffffffff61374716565b612d025760405162461bcd60e51b81526004018080602001828103825260228152602001806141326022913960400191505060405180910390612cff613cf0565b50505b60006003612d0e613d5b565b906101000a900460ff1615612d5d5760405162461bcd60e51b815260040180806020018281038252603c8152602001806141c9603c913960400191505060405180910390612d5a613cf0565b50505b612d656136f4565b6001600160a01b031663086dabd16040518163ffffffff1660e01b81526004016000604051808303818680612d98613db6565b158015612dad57600080612daa613cf0565b50505b505a612db7613e02565b5050505050158015612dd6573d6000803e3d6000612dd3613cf0565b50505b50505050611b5b816012612525613d5b565b600060056117de613d5b565b612dfc6133b8565b5a612e05614005565b806004612e10613f74565b5050506001600560006101000a81612e26613d5b565b8160ff02191690831515021790612e3b613f74565b5050507fcbd94ca75b8dc45c9d80c77e851670e78843c0d75180cb81db3e2158228fa9a66224ea0060405190815260200160405180910390a1565b612e7e6133b8565b8080600c612e8a613f74565b5050507f5a2f2eae84f9e787d8159d363a776fa2b61d084686190cdc5a2c1ea833480b098160405190815260200160405180910390a150565b600f80612ece613d5b565b9080600101612edb613d5b565b905082565b60006003612eec613d5b565b906101000a900460ff1615612f3b5760405162461bcd60e51b815260040180806020018281038252603c8152602001806141c9603c913960400191505060405180910390612f38613cf0565b50505b60005b81811015611f1e576000838383818110612f5457fe5b905060200201356001600160a01b03169050806001600160a01b031663c8db233e5a612f7e61404b565b6040516001600160e01b031960e084901b1681526001600160a01b03909116600482015260240160006040518083038160008780612fba613db6565b158015612fcf57600080612fcc613cf0565b50505b505a612fd9613ebb565b505050505050158015612ff9573d6000803e3d6000612ff6613cf0565b50505b5050505061301181601561345c90919063ffffffff16565b7f16e62064e42f5aec62df22ae895ef539f153e0d4ea290e2cc4e0e8f708f2fbbc816040516001600160a01b03909116815260200160405180910390a150600101612f3e565b61305f6133b8565b8080600f61306b613f74565b5050507fdf7a26ae2e2eb953b81fd76b72fcdc74ebff7c21faa8f8f55323183d9785f52d8160405190815260200160405180910390a150565b60016005610e5b613d5b565b600881816130bc613d5b565b81106130c457fe5b9060005260206000200190506111bd613d5b565b601881565b6060611f376013848463ffffffff61387916565b600060036130fd613d5b565b906101000a900460ff161561314c5760405162461bcd60e51b815260040180806020018281038252603c8152602001806141c9603c913960400191505060405180910390613149613cf0565b50505b61315d60138263ffffffff61374716565b6131ad5760405162461bcd60e51b8152602060048201526014602482015273139bdd08185b881858dd1a5d99481b585c9ad95d60621b6044820152606401604051809103906131aa613cf0565b50505b6000816001600160a01b03166302d05d3f6040518163ffffffff1660e01b815260040160206040518083038186806131e3613db6565b1580156131f8576000806131f5613cf0565b50505b505a613202613e02565b5050505050158015613221573d6000803e3d600061321e613cf0565b50505b505050506040513d60208110156132405760008061323d613cf0565b50505b8101908080519350506001600160a01b0383169150505a61325f61404b565b6001600160a01b0316146132c25760405162461bcd60e51b815260206004820152601960248201527f53656e646572206e6f74206d61726b65742063726561746f72000000000000006044820152606401604051809103906132bf613cf0565b50505b816001600160a01b0316634c33fe945a6132da61404b565b6040516001600160e01b031960e084901b1681526001600160a01b03909116600482015260240160006040518083038160008780613316613db6565b15801561332b57600080613328613cf0565b50505b505a613335613ebb565b505050505050158015613355573d6000803e3d6000613352613cf0565b50505b5050505061336d82601361345c90919063ffffffff16565b7f996fafab197beb99fff6fdc975bb6cf90352f2c733c76ef37c2e27f17d7d424b826040516001600160a01b03909116815260200160405180910390a15050565b60126111bd613d5b565b6000806133c3613d5b565b906101000a90046001600160a01b03166001600160a01b03165a6133e561404b565b6001600160a01b0316146134305760405162461bcd60e51b815260040180806020018281038252602f815260200180614175602f9139604001915050604051809103906116cf613cf0565b565b600061344560138363ffffffff61374716565b80611f3a5750611f3a60158363ffffffff61374716565b6134668282613747565b6134b65760405162461bcd60e51b815260206004820152601460248201527322b632b6b2b73a103737ba1034b7103634b9ba1760611b6044820152606401604051809103906134b3613cf0565b50505b6001600160a01b038116600090815260018301602052604081206134d8613d5b565b90506000600184806134e8613d5b565b90500390508082146135ac576000848281613501613d5b565b811061350957fe5b9060005260206000200160009061351e613d5b565b906101000a90046001600160a01b031690508085600001848161353f613d5b565b811061354757fe5b9060005260206000200160018161355c613d5b565b816001600160a01b0302191690836001600160a01b031602179061357e613f74565b5050506001600160a01b03811660009081526001860160205283906040902081906135a7613f74565b505050505b83806135b6613d5b565b806135bd57fe5b600190038181906000526020600020016001816135d8613d5b565b906001600160a01b03021916906135ed613f74565b5050906135f8613f74565b50506001600160a01b0383166000908152600185016020526040902060009061361f613f74565b505050505050565b600082820183811015611f375760405162461bcd60e51b815260206004820152601b60248201527f536166654d6174683a206164646974696f6e206f766572666c6f770000000000604482015260640160405180910390613686613cf0565b50509392505050565b6000828211156136ee5760405162461bcd60e51b815260206004820152601e60248201527f536166654d6174683a207375627472616374696f6e206f766572666c6f7700006044820152606401604051809103906136eb613cf0565b50505b50900390565b60006137426b53797374656d53746174757360a01b60405160408082019052601c81527f4d697373696e672053797374656d5374617475732061646472657373000000006020820152613be0565b905090565b60008280613753613d5b565b1515905061376357506000611f3a565b6001600160a01b03821660009081526001840160205260408120613785613d5b565b9050801515806137de57506001600160a01b038316846000816137a6613d5b565b81106137ae57fe5b906000526020600020016000906137c3613d5b565b906101000a90046001600160a01b03166001600160a01b0316145b949350505050565b81806137f0613d5b565b6001600160a01b038316600090815260018501602052909150604090208190613817613f74565b508291508390508060018161382a613d5b565b018082613835613f74565b5050600092835291600019830191506020902091929101600181613857613d5b565b816001600160a01b0302191690836001600160a01b031602179061361f613f74565b60608282018480613888613d5b565b905081111561389f57848061389b613d5b565b9150505b8381116138da5760006040519080825280602002602001820160405280156138d1578160200160208202803883390190505b50915050613983565b838103606081604051908082528060200260200182016040528015613909578160200160208202803883390190505b50905060005b8281101561397d578781880181613924613d5b565b811061392c57fe5b90600052602060002001600090613941613d5b565b906101000a90046001600160a01b031682828151811061395d57fe5b6001600160a01b039092166020928302919091019091015260010161390f565b50925050505b9392505050565b600080613995613ca9565b9050806001600160a01b031663ac82f608846040516001600160e01b031960e084901b168152600481019190915260240160206040518083038186806139d9613db6565b1580156139ee576000806139eb613cf0565b50505b505a6139f8613e02565b5050505050158015613a17573d6000803e3d6000613a14613cf0565b50505b505050506040513d6020811015613a3657600080613a33613cf0565b50505b810190808051159250613b4e9150505782631cd554d160e21b1415613a5f5760009150506119c2565b6000816001600160a01b031663728dec29856040516001600160e01b031960e084901b168152600481019190915260240160a0604051808303818680613aa3613db6565b158015613ab857600080613ab5613cf0565b50505b505a613ac2613e02565b5050505050158015613ae1573d6000803e3d6000613ade613cf0565b50505b505050506040513d60a0811015613b0057600080613afd613cf0565b50505b8101908080519291906020018051929190602001805192919060200180519291906020018051509596505085159450613b439350505050576000925050506119c2565b6001925050506119c2565b50600092915050565b60006137427f42696e6172794f7074696f6e4d61726b6574466163746f7279000000000000006040516060810160405260298082526142056020830139613be0565b60006137426814de5b9d1a1cd554d160ba1b60405160408082019052601981527f4d697373696e672053796e74687355534420616464726573730000000000000060208201525b600082815260076020528060408120600090613bfa613d5b565b6001600160a01b036101009290920a90041690508281613ca15760405162461bcd60e51b81526004018080602001828103825283818151815260200191508051906020019080838360005b83811015613c5d578082015183820152602001613c45565b50505050905090810190601f168015613c8a5780820380516001836020036101000a031916815260200191505b509250505060405180910390613c9e613cf0565b50505b509392505050565b60006137426c45786368616e6765526174657360981b6040516040808201905260158152744d697373696e672045786368616e6765526174657360581b6020820152613be0565b632a2a7adb598160e01b8152600481016020815285602082015260005b86811015613d28578086015182820160400152602001613d0d565b506020828760640184336000905af158600e01573d6000803e3d6000fd5b3d6001141558600a015760016000f35b505050565b6303daa959598160e01b8152836004820152602081602483336000905af158600e01573d6000803e3d6000fd5b3d6001141558600a015760016000f35b8051935060005b6040811015611f1e57600082820152602001613d9f565b638435035b598160e01b8152836004820152602081602483336000905af158600e01573d6000803e3d6000fd5b3d6001141558600a015760016000f35b80516000825293506020613d9f565b638540661f598160e01b8152836004820152846024820152606060448201528660648201526084810160005b88811015613e46578088015182820152602001613e2e565b50876101040182016060838a6101040185336000905af158600e01573d6000803e3d6000fd5b3d6001141558600a015760016000f35b825160408401513d6000863e8c8c82606088013350600060045af15059855b81811015613eaf5760008152602001613e9b565b50919c50505050505050565b6385979f76598160e01b8152836004820152846024820152606060448201528760648201526084810160005b89811015613eff578089015182820152602001613ee7565b50886101040182016060838b6101040185336000905af158600e01573d6000803e3d6000fd5b3d6001141558600a015760016000f35b825160408401513d6000863e8d8d82606088013350600060045af15059855b81811015613f685760008152602001613f54565b50919d50505050505050565b6322bd64c0598160e01b8152836004820152846024820152600081604483336000905af158600e01573d6000803e3d6000fd5b3d6001141558600a015760016000f35b600081526020613d9f565b63ffe73914598160e01b81528360048201528460248201526060604482015286606482015260848101600088811015613e46578088015182820152602001613e2e565b63bdbf8c36598160e01b8152602081600483336000905af158600e01573d6000803e3d6000fd5b3d6001141558600a015760016000f35b80516000825293506020613d9f565b6373509064598160e01b8152602081600483336000905af158600e01573d6000803e3d6000fd5b3d6001141558600a015760016000f35b80516000825293506020613d9f565b60405161030080820160405260189082908038833950919291505056fe596f75206d757374206265206e6f6d696e61746564206265666f726520796f752063616e20616363657074206f776e65727368697043726561746f7220736b6577206c696d6974206d757374206265206e6f2067726561746572207468616e20312e546f74616c20666565206d757374206265206c657373207468616e20313030252e5065726d6974746564206f6e6c7920666f7220616374697665206d61726b6574732e5065726d6974746564206f6e6c7920666f72206b6e6f776e206d61726b6574732e4f6e6c792074686520636f6e7472616374206f776e6572206d617920706572666f726d207468697320616374696f6e4f6e6c79207065726d697474656420666f72206d6967726174696e67206d616e616765722e5468697320616374696f6e2063616e6e6f7420626520706572666f726d6564207768696c652074686520636f6e7472616374206973207061757365644d697373696e672042696e6172794f7074696f6e4d61726b6574466163746f72792061646472657373526566756e6420666565206d757374206265206e6f2067726561746572207468616e20313030252e43726561746f7220736b6577206c696d6974206d757374206265206e6f2067726561746572207468616e20312e546f74616c20666565206d757374206265206c657373207468616e20313030252e4f6e6c792074686520636f6e7472616374206f776e6572206d617920706572666f726d207468697320616374696f6e526566756e6420666565206d757374206265206e6f2067726561746572207468616e20313030252e",
			"opcodes": "PUSH1 0x80 PUSH1 0x40 MSTORE PUSH1 0x1 PUSH1 0x11 DUP2 DUP2 PUSH3 0x14 PUSH3 0xEAB JUMP JUMPDEST DUP2 PUSH1 0xFF MUL NOT AND SWAP1 DUP4 ISZERO ISZERO MUL OR SWAP1 PUSH3 0x2B PUSH3 0xF0D JUMP JUMPDEST POP POP POP PUSH1 0x40 MLOAD PUSH1 0x80 DUP2 ADD PUSH1 0x40 SWAP1 DUP2 MSTORE PUSH12 0x53797374656D537461747573 PUSH1 0xA0 SHL DUP3 MSTORE PUSH9 0x14DE5B9D1A1CD554D1 PUSH1 0xBA SHL PUSH1 0x20 DUP4 ADD MSTORE PUSH13 0x45786368616E67655261746573 PUSH1 0x98 SHL SWAP1 DUP3 ADD MSTORE PUSH32 0x42696E6172794F7074696F6E4D61726B6574466163746F727900000000000000 PUSH1 0x60 DUP3 ADD MSTORE PUSH3 0xA9 SWAP1 PUSH1 0x18 SWAP1 PUSH1 0x4 PUSH3 0xF5C JUMP JUMPDEST POP CALLVALUE DUP1 ISZERO PUSH3 0xC2 JUMPI PUSH1 0x0 DUP1 PUSH3 0xBF PUSH3 0xFAA JUMP JUMPDEST POP POP JUMPDEST POP PUSH1 0x40 MLOAD PUSH3 0x54A0 CODESIZE SUB DUP1 PUSH3 0x54A0 DUP4 CODECOPY DUP2 DUP2 ADD PUSH1 0x40 MSTORE PUSH2 0x140 DUP2 LT ISZERO PUSH3 0xF4 JUMPI PUSH1 0x0 DUP1 PUSH3 0xF1 PUSH3 0xFAA JUMP JUMPDEST POP POP JUMPDEST DUP2 ADD SWAP1 DUP1 DUP1 MLOAD SWAP3 SWAP2 SWAP1 PUSH1 0x20 ADD DUP1 MLOAD SWAP3 SWAP2 SWAP1 PUSH1 0x20 ADD DUP1 MLOAD SWAP3 SWAP2 SWAP1 PUSH1 0x20 ADD DUP1 MLOAD SWAP3 SWAP2 SWAP1 PUSH1 0x20 ADD DUP1 MLOAD SWAP3 SWAP2 SWAP1 PUSH1 0x20 ADD DUP1 MLOAD SWAP3 SWAP2 SWAP1 PUSH1 0x20 ADD DUP1 MLOAD SWAP3 SWAP2 SWAP1 PUSH1 0x20 ADD DUP1 MLOAD SWAP3 SWAP2 SWAP1 PUSH1 0x20 ADD DUP1 MLOAD SWAP3 SWAP2 SWAP1 PUSH1 0x20 ADD DUP1 MLOAD SWAP3 POP DUP11 SWAP2 POP PUSH1 0x18 SWAP1 POP DUP1 PUSH2 0x300 PUSH1 0x40 MLOAD SWAP1 DUP2 ADD PUSH1 0x40 MSTORE SWAP2 SWAP1 PUSH2 0x300 DUP4 ADD DUP3 DUP5 JUMPDEST DUP2 PUSH3 0x16D PUSH3 0xEAB JUMP JUMPDEST DUP2 MSTORE PUSH1 0x20 ADD SWAP1 PUSH1 0x1 ADD SWAP1 DUP1 DUP4 GT PUSH3 0x162 JUMPI POP DUP16 SWAP4 POP POP POP POP PUSH1 0x1 PUSH1 0x1 PUSH1 0xA0 SHL SUB DUP2 AND PUSH3 0x1EC JUMPI PUSH1 0x40 MLOAD PUSH3 0x461BCD PUSH1 0xE5 SHL DUP2 MSTORE PUSH1 0x20 PUSH1 0x4 DUP3 ADD MSTORE PUSH1 0x19 PUSH1 0x24 DUP3 ADD MSTORE PUSH32 0x4F776E657220616464726573732063616E6E6F74206265203000000000000000 PUSH1 0x44 DUP3 ADD MSTORE PUSH1 0x64 ADD PUSH1 0x40 MLOAD DUP1 SWAP2 SUB SWAP1 PUSH3 0x1E9 PUSH3 0xFAA JUMP JUMPDEST POP POP JUMPDEST DUP1 PUSH1 0x0 PUSH1 0x1 DUP2 PUSH3 0x1FC PUSH3 0xEAB JUMP JUMPDEST DUP2 PUSH1 0x1 PUSH1 0x1 PUSH1 0xA0 SHL SUB MUL NOT AND SWAP1 DUP4 PUSH1 0x1 PUSH1 0x1 PUSH1 0xA0 SHL SUB AND MUL OR SWAP1 PUSH3 0x220 PUSH3 0xF0D JUMP JUMPDEST POP POP POP PUSH32 0xB532073B38C83145E3E5135377A08BF9AAB55BC0FD7C1179CD4FB995D2A5159C PUSH1 0x0 DUP3 PUSH1 0x40 MLOAD PUSH1 0x1 PUSH1 0x1 PUSH1 0xA0 SHL SUB SWAP3 DUP4 AND DUP2 MSTORE SWAP2 AND PUSH1 0x20 DUP3 ADD MSTORE PUSH1 0x40 SWAP1 DUP2 ADD SWAP1 MLOAD DUP1 SWAP2 SUB SWAP1 LOG1 POP PUSH1 0x0 DUP1 DUP1 PUSH3 0x279 PUSH3 0xEAB JUMP JUMPDEST SWAP1 PUSH2 0x100 EXP SWAP1 DIV PUSH1 0x1 PUSH1 0x1 PUSH1 0xA0 SHL SUB AND PUSH1 0x1 PUSH1 0x1 PUSH1 0xA0 SHL SUB AND EQ ISZERO PUSH3 0x2E4 JUMPI PUSH1 0x40 MLOAD PUSH3 0x461BCD PUSH1 0xE5 SHL DUP2 MSTORE PUSH1 0x20 PUSH1 0x4 DUP3 ADD MSTORE PUSH1 0x11 PUSH1 0x24 DUP3 ADD MSTORE PUSH17 0x13DDDB995C881B5D5CDD081899481CD95D PUSH1 0x7A SHL PUSH1 0x44 DUP3 ADD MSTORE PUSH1 0x64 ADD PUSH1 0x40 MLOAD DUP1 SWAP2 SUB SWAP1 PUSH3 0x2E1 PUSH3 0xFAA JUMP JUMPDEST POP POP JUMPDEST PUSH1 0x0 DUP1 DUP1 PUSH3 0x2F2 PUSH3 0xEAB JUMP JUMPDEST SWAP1 PUSH2 0x100 EXP SWAP1 DIV PUSH1 0x1 PUSH1 0x1 PUSH1 0xA0 SHL SUB AND PUSH1 0x1 PUSH1 0x1 PUSH1 0xA0 SHL SUB AND EQ ISZERO PUSH3 0x35D JUMPI PUSH1 0x40 MLOAD PUSH3 0x461BCD PUSH1 0xE5 SHL DUP2 MSTORE PUSH1 0x20 PUSH1 0x4 DUP3 ADD MSTORE PUSH1 0x11 PUSH1 0x24 DUP3 ADD MSTORE PUSH17 0x13DDDB995C881B5D5CDD081899481CD95D PUSH1 0x7A SHL PUSH1 0x44 DUP3 ADD MSTORE PUSH1 0x64 ADD PUSH1 0x40 MLOAD DUP1 SWAP2 SUB SWAP1 PUSH3 0x35A PUSH3 0xFAA JUMP JUMPDEST POP POP JUMPDEST PUSH1 0x0 DUP1 PUSH3 0x36A PUSH3 0xEAB JUMP JUMPDEST SWAP1 PUSH2 0x100 EXP SWAP1 DIV PUSH1 0x1 PUSH1 0x1 PUSH1 0xA0 SHL SUB AND PUSH1 0x5 PUSH1 0x1 PUSH2 0x100 EXP DUP2 PUSH3 0x38D PUSH3 0xEAB JUMP JUMPDEST DUP2 PUSH1 0x1 PUSH1 0x1 PUSH1 0xA0 SHL SUB MUL NOT AND SWAP1 DUP4 PUSH1 0x1 PUSH1 0x1 PUSH1 0xA0 SHL SUB AND MUL OR SWAP1 PUSH3 0x3B1 PUSH3 0xF0D JUMP JUMPDEST POP POP POP PUSH32 0xD5DA63A0B864B315BC04128DEDBC93888C8529EE6CF47CE664DC204339228C53 PUSH1 0x0 DUP1 SWAP1 PUSH3 0x3E3 PUSH3 0xEAB JUMP JUMPDEST SWAP1 PUSH2 0x100 EXP SWAP1 DIV PUSH1 0x1 PUSH1 0x1 PUSH1 0xA0 SHL SUB AND PUSH1 0x40 MLOAD PUSH1 0x1 PUSH1 0x1 PUSH1 0xA0 SHL SUB SWAP1 SWAP2 AND DUP2 MSTORE PUSH1 0x20 ADD PUSH1 0x40 MLOAD DUP1 SWAP2 SUB SWAP1 LOG1 PUSH1 0x0 DUP1 DUP1 PUSH3 0x41C PUSH3 0xEAB JUMP JUMPDEST SWAP1 PUSH2 0x100 EXP SWAP1 DIV PUSH1 0x1 PUSH1 0x1 PUSH1 0xA0 SHL SUB AND PUSH1 0x1 PUSH1 0x1 PUSH1 0xA0 SHL SUB AND EQ ISZERO PUSH3 0x487 JUMPI PUSH1 0x40 MLOAD PUSH3 0x461BCD PUSH1 0xE5 SHL DUP2 MSTORE PUSH1 0x20 PUSH1 0x4 DUP3 ADD MSTORE PUSH1 0x11 PUSH1 0x24 DUP3 ADD MSTORE PUSH17 0x13DDDB995C881B5D5CDD081899481CD95D PUSH1 0x7A SHL PUSH1 0x44 DUP3 ADD MSTORE PUSH1 0x64 ADD PUSH1 0x40 MLOAD DUP1 SWAP2 SUB SWAP1 PUSH3 0x484 PUSH3 0xFAA JUMP JUMPDEST POP POP JUMPDEST PUSH1 0x0 JUMPDEST PUSH1 0x18 DUP2 LT ISZERO PUSH3 0x517 JUMPI PUSH1 0x0 DUP3 DUP3 PUSH1 0x18 DUP2 LT PUSH3 0x4A3 JUMPI INVALID JUMPDEST PUSH1 0x20 MUL ADD MLOAD EQ PUSH3 0x508 JUMPI PUSH1 0x8 DUP3 DUP3 PUSH1 0x18 DUP2 LT PUSH3 0x4BD JUMPI INVALID JUMPDEST PUSH1 0x20 MUL ADD MLOAD SWAP1 DUP1 PUSH1 0x1 DUP2 PUSH3 0x4D1 PUSH3 0xEAB JUMP JUMPDEST ADD DUP1 DUP3 PUSH3 0x4DE PUSH3 0xF0D JUMP JUMPDEST POP POP PUSH1 0x0 SWAP3 DUP4 MSTORE SWAP2 PUSH1 0x0 NOT DUP4 ADD SWAP2 POP PUSH1 0x20 SWAP1 KECCAK256 SWAP2 SWAP3 SWAP2 ADD PUSH3 0x4FF PUSH3 0xF0D JUMP JUMPDEST POP POP POP PUSH3 0x50E JUMP JUMPDEST PUSH3 0x517 JUMP JUMPDEST PUSH1 0x1 ADD PUSH3 0x48A JUMP JUMPDEST POP DUP2 PUSH1 0x6 PUSH1 0x1 DUP2 PUSH3 0x528 PUSH3 0xEAB JUMP JUMPDEST DUP2 PUSH1 0x1 PUSH1 0x1 PUSH1 0xA0 SHL SUB MUL NOT AND SWAP1 DUP4 PUSH1 0x1 PUSH1 0x1 PUSH1 0xA0 SHL SUB AND MUL OR SWAP1 PUSH3 0x54C PUSH3 0xF0D JUMP JUMPDEST POP POP POP POP POP GAS PUSH3 0x55C PUSH3 0x1017 JUMP JUMPDEST PUSH1 0x0 PUSH1 0x1 DUP2 PUSH3 0x56B PUSH3 0xEAB JUMP JUMPDEST DUP2 PUSH1 0x1 PUSH1 0x1 PUSH1 0xA0 SHL SUB MUL NOT AND SWAP1 DUP4 PUSH1 0x1 PUSH1 0x1 PUSH1 0xA0 SHL SUB AND MUL OR SWAP1 PUSH3 0x58F PUSH3 0xF0D JUMP JUMPDEST POP POP POP PUSH3 0x5A3 DUP8 PUSH3 0x676 PUSH1 0x20 SHL PUSH1 0x20 SHR JUMP JUMPDEST PUSH3 0x5B7 DUP9 PUSH1 0x1 PUSH1 0x1 PUSH1 0xE0 SHL SUB PUSH3 0x6D0 AND JUMP JUMPDEST PUSH3 0x5CB DUP7 PUSH1 0x1 PUSH1 0x1 PUSH1 0xE0 SHL SUB PUSH3 0x72A AND JUMP JUMPDEST PUSH3 0x5DF DUP6 PUSH1 0x1 PUSH1 0x1 PUSH1 0xE0 SHL SUB PUSH3 0x784 AND JUMP JUMPDEST PUSH3 0x5F3 DUP5 PUSH1 0x1 PUSH1 0x1 PUSH1 0xE0 SHL SUB PUSH3 0x7DE AND JUMP JUMPDEST PUSH3 0x607 DUP4 PUSH1 0x1 PUSH1 0x1 PUSH1 0xE0 SHL SUB PUSH3 0x937 AND JUMP JUMPDEST PUSH3 0x61B DUP3 PUSH1 0x1 PUSH1 0x1 PUSH1 0xE0 SHL SUB PUSH3 0xB02 AND JUMP JUMPDEST PUSH3 0x62F DUP2 PUSH1 0x1 PUSH1 0x1 PUSH1 0xE0 SHL SUB PUSH3 0xCCD AND JUMP JUMPDEST DUP10 PUSH1 0x0 PUSH1 0x1 DUP2 PUSH3 0x63F PUSH3 0xEAB JUMP JUMPDEST DUP2 PUSH1 0x1 PUSH1 0x1 PUSH1 0xA0 SHL SUB MUL NOT AND SWAP1 DUP4 PUSH1 0x1 PUSH1 0x1 PUSH1 0xA0 SHL SUB AND MUL OR SWAP1 PUSH3 0x663 PUSH3 0xF0D JUMP JUMPDEST POP POP POP POP POP POP POP POP POP POP POP POP POP PUSH3 0x1195 JUMP JUMPDEST PUSH3 0x689 PUSH1 0x1 PUSH1 0x1 PUSH1 0xE0 SHL SUB PUSH3 0xE26 AND JUMP JUMPDEST DUP1 DUP1 PUSH1 0xD PUSH3 0x697 PUSH3 0xF0D JUMP JUMPDEST POP POP POP PUSH32 0xF378A0FD4AD3FFD9D7D50986F16B04ACD2DC42691C4F412F34E8EEFE883E6652 DUP2 PUSH1 0x40 MLOAD SWAP1 DUP2 MSTORE PUSH1 0x20 ADD PUSH1 0x40 MLOAD DUP1 SWAP2 SUB SWAP1 LOG1 POP JUMP JUMPDEST PUSH3 0x6E3 PUSH1 0x1 PUSH1 0x1 PUSH1 0xE0 SHL SUB PUSH3 0xE26 AND JUMP JUMPDEST DUP1 DUP1 PUSH1 0xC PUSH3 0x6F1 PUSH3 0xF0D JUMP JUMPDEST POP POP POP PUSH32 0x5A2F2EAE84F9E787D8159D363A776FA2B61D084686190CDC5A2C1EA833480B09 DUP2 PUSH1 0x40 MLOAD SWAP1 DUP2 MSTORE PUSH1 0x20 ADD PUSH1 0x40 MLOAD DUP1 SWAP2 SUB SWAP1 LOG1 POP JUMP JUMPDEST PUSH3 0x73D PUSH1 0x1 PUSH1 0x1 PUSH1 0xE0 SHL SUB PUSH3 0xE26 AND JUMP JUMPDEST DUP1 DUP1 PUSH1 0xE PUSH3 0x74B PUSH3 0xF0D JUMP JUMPDEST POP POP POP PUSH32 0x6DE18E808FC4E6CB9C8910CF4BDC188DDBBDAB65FAECFF65DAB871720E848489 DUP2 PUSH1 0x40 MLOAD SWAP1 DUP2 MSTORE PUSH1 0x20 ADD PUSH1 0x40 MLOAD DUP1 SWAP2 SUB SWAP1 LOG1 POP JUMP JUMPDEST PUSH3 0x797 PUSH1 0x1 PUSH1 0x1 PUSH1 0xE0 SHL SUB PUSH3 0xE26 AND JUMP JUMPDEST DUP1 DUP1 PUSH1 0xF PUSH3 0x7A5 PUSH3 0xF0D JUMP JUMPDEST POP POP POP PUSH32 0xDF7A26AE2E2EB953B81FD76B72FCDC74EBFF7C21FAA8F8F55323183D9785F52D DUP2 PUSH1 0x40 MLOAD SWAP1 DUP2 MSTORE PUSH1 0x20 ADD PUSH1 0x40 MLOAD DUP1 SWAP2 SUB SWAP1 LOG1 POP JUMP JUMPDEST PUSH3 0x7F1 PUSH1 0x1 PUSH1 0x1 PUSH1 0xE0 SHL SUB PUSH3 0xE26 AND JUMP JUMPDEST PUSH20 0x0 PUSH4 0x907AF6C0 PUSH1 0x40 MLOAD DUP2 PUSH4 0xFFFFFFFF AND PUSH1 0xE0 SHL DUP2 MSTORE PUSH1 0x4 ADD PUSH1 0x20 PUSH1 0x40 MLOAD DUP1 DUP4 SUB DUP2 DUP7 DUP1 PUSH3 0x832 PUSH3 0x105E JUMP JUMPDEST ISZERO DUP1 ISZERO PUSH3 0x84A JUMPI PUSH1 0x0 DUP1 PUSH3 0x847 PUSH3 0xFAA JUMP JUMPDEST POP POP JUMPDEST POP GAS PUSH3 0x856 PUSH3 0x10AB JUMP JUMPDEST POP POP POP POP POP ISZERO DUP1 ISZERO PUSH3 0x878 JUMPI RETURNDATASIZE PUSH1 0x0 DUP1 RETURNDATACOPY RETURNDATASIZE PUSH1 0x0 PUSH3 0x875 PUSH3 0xFAA JUMP JUMPDEST POP POP JUMPDEST POP POP POP POP PUSH1 0x40 MLOAD RETURNDATASIZE PUSH1 0x20 DUP2 LT ISZERO PUSH3 0x89A JUMPI PUSH1 0x0 DUP1 PUSH3 0x897 PUSH3 0xFAA JUMP JUMPDEST POP POP JUMPDEST DUP2 ADD SWAP1 DUP1 DUP1 MLOAD DUP5 GT ISZERO SWAP3 POP PUSH3 0x8F0 SWAP2 POP POP JUMPI PUSH1 0x40 MLOAD PUSH3 0x461BCD PUSH1 0xE5 SHL DUP2 MSTORE PUSH1 0x4 ADD DUP1 DUP1 PUSH1 0x20 ADD DUP3 DUP2 SUB DUP3 MSTORE PUSH1 0x2D DUP2 MSTORE PUSH1 0x20 ADD DUP1 PUSH3 0x53FB PUSH1 0x2D SWAP2 CODECOPY PUSH1 0x40 ADD SWAP2 POP POP PUSH1 0x40 MLOAD DUP1 SWAP2 SUB SWAP1 PUSH3 0x8ED PUSH3 0xFAA JUMP JUMPDEST POP POP JUMPDEST DUP1 DUP1 PUSH1 0x10 PUSH3 0x8FE PUSH3 0xF0D JUMP JUMPDEST POP POP POP PUSH32 0xD39CFBE31B20DBB6D995A675CF5C369555BF8BB908B6EFC03873907FE9E133CF DUP2 PUSH1 0x40 MLOAD SWAP1 DUP2 MSTORE PUSH1 0x20 ADD PUSH1 0x40 MLOAD DUP1 SWAP2 SUB SWAP1 LOG1 POP JUMP JUMPDEST PUSH3 0x94A PUSH1 0x1 PUSH1 0x1 PUSH1 0xE0 SHL SUB PUSH3 0xE26 AND JUMP JUMPDEST PUSH1 0x0 PUSH1 0xA PUSH3 0x958 PUSH3 0xEAB JUMP JUMPDEST DUP3 ADD SWAP1 POP PUSH20 0x0 PUSH4 0x907AF6C0 PUSH1 0x40 MLOAD DUP2 PUSH4 0xFFFFFFFF AND PUSH1 0xE0 SHL DUP2 MSTORE PUSH1 0x4 ADD PUSH1 0x20 PUSH1 0x40 MLOAD DUP1 DUP4 SUB DUP2 DUP7 DUP1 PUSH3 0x99D PUSH3 0x105E JUMP JUMPDEST ISZERO DUP1 ISZERO PUSH3 0x9B5 JUMPI PUSH1 0x0 DUP1 PUSH3 0x9B2 PUSH3 0xFAA JUMP JUMPDEST POP POP JUMPDEST POP GAS PUSH3 0x9C1 PUSH3 0x10AB JUMP JUMPDEST POP POP POP POP POP ISZERO DUP1 ISZERO PUSH3 0x9E3 JUMPI RETURNDATASIZE PUSH1 0x0 DUP1 RETURNDATACOPY RETURNDATASIZE PUSH1 0x0 PUSH3 0x9E0 PUSH3 0xFAA JUMP JUMPDEST POP POP JUMPDEST POP POP POP POP PUSH1 0x40 MLOAD RETURNDATASIZE PUSH1 0x20 DUP2 LT ISZERO PUSH3 0xA05 JUMPI PUSH1 0x0 DUP1 PUSH3 0xA02 PUSH3 0xFAA JUMP JUMPDEST POP POP JUMPDEST DUP2 ADD SWAP1 DUP1 DUP1 MLOAD DUP5 LT SWAP3 POP PUSH3 0xA5A SWAP2 POP POP JUMPI PUSH1 0x40 MLOAD PUSH3 0x461BCD PUSH1 0xE5 SHL DUP2 MSTORE PUSH1 0x4 ADD DUP1 DUP1 PUSH1 0x20 ADD DUP3 DUP2 SUB DUP3 MSTORE PUSH1 0x21 DUP2 MSTORE PUSH1 0x20 ADD DUP1 PUSH3 0x5428 PUSH1 0x21 SWAP2 CODECOPY PUSH1 0x40 ADD SWAP2 POP POP PUSH1 0x40 MLOAD DUP1 SWAP2 SUB SWAP1 PUSH3 0xA57 PUSH3 0xFAA JUMP JUMPDEST POP POP JUMPDEST DUP1 PUSH1 0x0 LT PUSH3 0xABA JUMPI PUSH1 0x40 MLOAD PUSH3 0x461BCD PUSH1 0xE5 SHL DUP2 MSTORE PUSH1 0x20 PUSH1 0x4 DUP3 ADD MSTORE PUSH1 0x1A PUSH1 0x24 DUP3 ADD MSTORE PUSH32 0x546F74616C20666565206D757374206265206E6F6E7A65726F2E000000000000 PUSH1 0x44 DUP3 ADD MSTORE PUSH1 0x64 ADD PUSH1 0x40 MLOAD DUP1 SWAP2 SUB SWAP1 PUSH3 0xAB7 PUSH3 0xFAA JUMP JUMPDEST POP POP JUMPDEST DUP2 DUP1 PUSH1 0x9 PUSH3 0xAC8 PUSH3 0xF0D JUMP JUMPDEST POP POP POP PUSH32 0x7B30E8F8E3DE254785FBCB3068449DC18060F1FDB37B02731ECADA99A78492C3 DUP3 PUSH1 0x40 MLOAD SWAP1 DUP2 MSTORE PUSH1 0x20 ADD PUSH1 0x40 MLOAD DUP1 SWAP2 SUB SWAP1 LOG1 POP POP JUMP JUMPDEST PUSH3 0xB15 PUSH1 0x1 PUSH1 0x1 PUSH1 0xE0 SHL SUB PUSH3 0xE26 AND JUMP JUMPDEST PUSH1 0x0 PUSH1 0x9 PUSH3 0xB23 PUSH3 0xEAB JUMP JUMPDEST DUP3 ADD SWAP1 POP PUSH20 0x0 PUSH4 0x907AF6C0 PUSH1 0x40 MLOAD DUP2 PUSH4 0xFFFFFFFF AND PUSH1 0xE0 SHL DUP2 MSTORE PUSH1 0x4 ADD PUSH1 0x20 PUSH1 0x40 MLOAD DUP1 DUP4 SUB DUP2 DUP7 DUP1 PUSH3 0xB68 PUSH3 0x105E JUMP JUMPDEST ISZERO DUP1 ISZERO PUSH3 0xB80 JUMPI PUSH1 0x0 DUP1 PUSH3 0xB7D PUSH3 0xFAA JUMP JUMPDEST POP POP JUMPDEST POP GAS PUSH3 0xB8C PUSH3 0x10AB JUMP JUMPDEST POP POP POP POP POP ISZERO DUP1 ISZERO PUSH3 0xBAE JUMPI RETURNDATASIZE PUSH1 0x0 DUP1 RETURNDATACOPY RETURNDATASIZE PUSH1 0x0 PUSH3 0xBAB PUSH3 0xFAA JUMP JUMPDEST POP POP JUMPDEST POP POP POP POP PUSH1 0x40 MLOAD RETURNDATASIZE PUSH1 0x20 DUP2 LT ISZERO PUSH3 0xBD0 JUMPI PUSH1 0x0 DUP1 PUSH3 0xBCD PUSH3 0xFAA JUMP JUMPDEST POP POP JUMPDEST DUP2 ADD SWAP1 DUP1 DUP1 MLOAD DUP5 LT SWAP3 POP PUSH3 0xC25 SWAP2 POP POP JUMPI PUSH1 0x40 MLOAD PUSH3 0x461BCD PUSH1 0xE5 SHL DUP2 MSTORE PUSH1 0x4 ADD DUP1 DUP1 PUSH1 0x20 ADD DUP3 DUP2 SUB DUP3 MSTORE PUSH1 0x21 DUP2 MSTORE PUSH1 0x20 ADD DUP1 PUSH3 0x5428 PUSH1 0x21 SWAP2 CODECOPY PUSH1 0x40 ADD SWAP2 POP POP PUSH1 0x40 MLOAD DUP1 SWAP2 SUB SWAP1 PUSH3 0xC22 PUSH3 0xFAA JUMP JUMPDEST POP POP JUMPDEST DUP1 PUSH1 0x0 LT PUSH3 0xC85 JUMPI PUSH1 0x40 MLOAD PUSH3 0x461BCD PUSH1 0xE5 SHL DUP2 MSTORE PUSH1 0x20 PUSH1 0x4 DUP3 ADD MSTORE PUSH1 0x1A PUSH1 0x24 DUP3 ADD MSTORE PUSH32 0x546F74616C20666565206D757374206265206E6F6E7A65726F2E000000000000 PUSH1 0x44 DUP3 ADD MSTORE PUSH1 0x64 ADD PUSH1 0x40 MLOAD DUP1 SWAP2 SUB SWAP1 PUSH3 0xC82 PUSH3 0xFAA JUMP JUMPDEST POP POP JUMPDEST DUP2 DUP1 PUSH1 0xA PUSH3 0xC93 PUSH3 0xF0D JUMP JUMPDEST POP POP POP PUSH32 0x8C14462ADD32E0AE0FBFCF9E60711ECAE573DA337DC9127FFF98FB7CFB3973B4 DUP3 PUSH1 0x40 MLOAD SWAP1 DUP2 MSTORE PUSH1 0x20 ADD PUSH1 0x40 MLOAD DUP1 SWAP2 SUB SWAP1 LOG1 POP POP JUMP JUMPDEST PUSH3 0xCE0 PUSH1 0x1 PUSH1 0x1 PUSH1 0xE0 SHL SUB PUSH3 0xE26 AND JUMP JUMPDEST PUSH20 0x0 PUSH4 0x907AF6C0 PUSH1 0x40 MLOAD DUP2 PUSH4 0xFFFFFFFF AND PUSH1 0xE0 SHL DUP2 MSTORE PUSH1 0x4 ADD PUSH1 0x20 PUSH1 0x40 MLOAD DUP1 DUP4 SUB DUP2 DUP7 DUP1 PUSH3 0xD21 PUSH3 0x105E JUMP JUMPDEST ISZERO DUP1 ISZERO PUSH3 0xD39 JUMPI PUSH1 0x0 DUP1 PUSH3 0xD36 PUSH3 0xFAA JUMP JUMPDEST POP POP JUMPDEST POP GAS PUSH3 0xD45 PUSH3 0x10AB JUMP JUMPDEST POP POP POP POP POP ISZERO DUP1 ISZERO PUSH3 0xD67 JUMPI RETURNDATASIZE PUSH1 0x0 DUP1 RETURNDATACOPY RETURNDATASIZE PUSH1 0x0 PUSH3 0xD64 PUSH3 0xFAA JUMP JUMPDEST POP POP JUMPDEST POP POP POP POP PUSH1 0x40 MLOAD RETURNDATASIZE PUSH1 0x20 DUP2 LT ISZERO PUSH3 0xD89 JUMPI PUSH1 0x0 DUP1 PUSH3 0xD86 PUSH3 0xFAA JUMP JUMPDEST POP POP JUMPDEST DUP2 ADD SWAP1 DUP1 DUP1 MLOAD DUP5 GT ISZERO SWAP3 POP PUSH3 0xDDF SWAP2 POP POP JUMPI PUSH1 0x40 MLOAD PUSH3 0x461BCD PUSH1 0xE5 SHL DUP2 MSTORE PUSH1 0x4 ADD DUP1 DUP1 PUSH1 0x20 ADD DUP3 DUP2 SUB DUP3 MSTORE PUSH1 0x28 DUP2 MSTORE PUSH1 0x20 ADD DUP1 PUSH3 0x5478 PUSH1 0x28 SWAP2 CODECOPY PUSH1 0x40 ADD SWAP2 POP POP PUSH1 0x40 MLOAD DUP1 SWAP2 SUB SWAP1 PUSH3 0xDDC PUSH3 0xFAA JUMP JUMPDEST POP POP JUMPDEST DUP1 DUP1 PUSH1 0xB PUSH3 0xDED PUSH3 0xF0D JUMP JUMPDEST POP POP POP PUSH32 0x1634AC4E9F09BE1EF87B8D09E14926870261DCB9A0929D2D6460AF6E4C5AD1E DUP2 PUSH1 0x40 MLOAD SWAP1 DUP2 MSTORE PUSH1 0x20 ADD PUSH1 0x40 MLOAD DUP1 SWAP2 SUB SWAP1 LOG1 POP JUMP JUMPDEST PUSH1 0x0 DUP1 PUSH3 0xE33 PUSH3 0xEAB JUMP JUMPDEST SWAP1 PUSH2 0x100 EXP SWAP1 DIV PUSH1 0x1 PUSH1 0x1 PUSH1 0xA0 SHL SUB AND PUSH1 0x1 PUSH1 0x1 PUSH1 0xA0 SHL SUB AND GAS PUSH3 0xE57 PUSH3 0x1017 JUMP JUMPDEST PUSH1 0x1 PUSH1 0x1 PUSH1 0xA0 SHL SUB AND EQ PUSH3 0xEA9 JUMPI PUSH1 0x40 MLOAD PUSH3 0x461BCD PUSH1 0xE5 SHL DUP2 MSTORE PUSH1 0x4 ADD DUP1 DUP1 PUSH1 0x20 ADD DUP3 DUP2 SUB DUP3 MSTORE PUSH1 0x2F DUP2 MSTORE PUSH1 0x20 ADD DUP1 PUSH3 0x5449 PUSH1 0x2F SWAP2 CODECOPY PUSH1 0x40 ADD SWAP2 POP POP PUSH1 0x40 MLOAD DUP1 SWAP2 SUB SWAP1 PUSH3 0xEA6 PUSH3 0xFAA JUMP JUMPDEST POP POP JUMPDEST JUMP JUMPDEST PUSH4 0x3DAA959 MSIZE DUP2 PUSH1 0xE0 SHL DUP2 MSTORE DUP4 PUSH1 0x4 DUP3 ADD MSTORE PUSH1 0x20 DUP2 PUSH1 0x24 DUP4 CALLER PUSH1 0x0 SWAP1 GAS CALL PC PUSH1 0xE ADD JUMPI RETURNDATASIZE PUSH1 0x0 DUP1 RETURNDATACOPY RETURNDATASIZE PUSH1 0x0 REVERT JUMPDEST RETURNDATASIZE PUSH1 0x1 EQ ISZERO PC PUSH1 0xA ADD JUMPI PUSH1 0x1 PUSH1 0x0 RETURN JUMPDEST DUP1 MLOAD SWAP4 POP PUSH1 0x0 JUMPDEST PUSH1 0x40 DUP2 LT ISZERO PUSH3 0xF08 JUMPI PUSH1 0x0 DUP3 DUP3 ADD MSTORE PUSH1 0x20 ADD PUSH3 0xEEF JUMP JUMPDEST POP POP POP JUMP JUMPDEST PUSH4 0x22BD64C0 MSIZE DUP2 PUSH1 0xE0 SHL DUP2 MSTORE DUP4 PUSH1 0x4 DUP3 ADD MSTORE DUP5 PUSH1 0x24 DUP3 ADD MSTORE PUSH1 0x0 DUP2 PUSH1 0x44 DUP4 CALLER PUSH1 0x0 SWAP1 GAS CALL PC PUSH1 0xE ADD JUMPI RETURNDATASIZE PUSH1 0x0 DUP1 RETURNDATACOPY RETURNDATASIZE PUSH1 0x0 REVERT JUMPDEST RETURNDATASIZE PUSH1 0x1 EQ ISZERO PC PUSH1 0xA ADD JUMPI PUSH1 0x1 PUSH1 0x0 RETURN JUMPDEST PUSH1 0x0 DUP2 MSTORE PUSH1 0x20 PUSH3 0xEEF JUMP JUMPDEST DUP3 PUSH1 0x18 DUP2 ADD SWAP3 DUP3 ISZERO PUSH3 0xF98 JUMPI SWAP2 PUSH1 0x20 MUL DUP3 ADD JUMPDEST DUP3 DUP2 GT ISZERO PUSH3 0xF98 JUMPI DUP3 MLOAD DUP3 PUSH3 0xF86 PUSH3 0xF0D JUMP JUMPDEST POP POP SWAP2 PUSH1 0x20 ADD SWAP2 SWAP1 PUSH1 0x1 ADD SWAP1 PUSH3 0xF70 JUMP JUMPDEST POP PUSH3 0xFA6 SWAP3 SWAP2 POP PUSH3 0x1168 JUMP JUMPDEST POP SWAP1 JUMP JUMPDEST PUSH4 0x2A2A7ADB MSIZE DUP2 PUSH1 0xE0 SHL DUP2 MSTORE PUSH1 0x4 DUP2 ADD PUSH1 0x20 DUP2 MSTORE DUP6 PUSH1 0x20 DUP3 ADD MSTORE PUSH1 0x0 JUMPDEST DUP7 DUP2 LT ISZERO PUSH3 0xFE4 JUMPI DUP1 DUP7 ADD MLOAD DUP3 DUP3 ADD PUSH1 0x40 ADD MSTORE PUSH1 0x20 ADD PUSH3 0xFC7 JUMP JUMPDEST POP PUSH1 0x20 DUP3 DUP8 PUSH1 0x64 ADD DUP5 CALLER PUSH1 0x0 SWAP1 GAS CALL PC PUSH1 0xE ADD JUMPI RETURNDATASIZE PUSH1 0x0 DUP1 RETURNDATACOPY RETURNDATASIZE PUSH1 0x0 REVERT JUMPDEST RETURNDATASIZE PUSH1 0x1 EQ ISZERO PC PUSH1 0xA ADD JUMPI PUSH1 0x1 PUSH1 0x0 RETURN JUMPDEST POP POP POP JUMP JUMPDEST PUSH4 0x73509064 MSIZE DUP2 PUSH1 0xE0 SHL DUP2 MSTORE PUSH1 0x20 DUP2 PUSH1 0x4 DUP4 CALLER PUSH1 0x0 SWAP1 GAS CALL PC PUSH1 0xE ADD JUMPI RETURNDATASIZE PUSH1 0x0 DUP1 RETURNDATACOPY RETURNDATASIZE PUSH1 0x0 REVERT JUMPDEST RETURNDATASIZE PUSH1 0x1 EQ ISZERO PC PUSH1 0xA ADD JUMPI PUSH1 0x1 PUSH1 0x0 RETURN JUMPDEST DUP1 MLOAD PUSH1 0x0 DUP3 MSTORE SWAP4 POP PUSH1 0x20 PUSH3 0xEEF JUMP JUMPDEST PUSH4 0x8435035B MSIZE DUP2 PUSH1 0xE0 SHL DUP2 MSTORE DUP4 PUSH1 0x4 DUP3 ADD MSTORE PUSH1 0x20 DUP2 PUSH1 0x24 DUP4 CALLER PUSH1 0x0 SWAP1 GAS CALL PC PUSH1 0xE ADD JUMPI RETURNDATASIZE PUSH1 0x0 DUP1 RETURNDATACOPY RETURNDATASIZE PUSH1 0x0 REVERT JUMPDEST RETURNDATASIZE PUSH1 0x1 EQ ISZERO PC PUSH1 0xA ADD JUMPI PUSH1 0x1 PUSH1 0x0 RETURN JUMPDEST DUP1 MLOAD PUSH1 0x0 DUP3 MSTORE SWAP4 POP PUSH1 0x20 PUSH3 0xEEF JUMP JUMPDEST PUSH4 0xFFE73914 MSIZE DUP2 PUSH1 0xE0 SHL DUP2 MSTORE DUP4 PUSH1 0x4 DUP3 ADD MSTORE DUP5 PUSH1 0x24 DUP3 ADD MSTORE PUSH1 0x60 PUSH1 0x44 DUP3 ADD MSTORE DUP7 PUSH1 0x64 DUP3 ADD MSTORE PUSH1 0x84 DUP2 ADD PUSH1 0x0 JUMPDEST DUP9 DUP2 LT ISZERO PUSH3 0x10F1 JUMPI DUP1 DUP9 ADD MLOAD DUP3 DUP3 ADD MSTORE PUSH1 0x20 ADD PUSH3 0x10D7 JUMP JUMPDEST POP DUP8 PUSH2 0x104 ADD DUP3 ADD PUSH1 0x60 DUP4 DUP11 PUSH2 0x104 ADD DUP6 CALLER PUSH1 0x0 SWAP1 GAS CALL PC PUSH1 0xE ADD JUMPI RETURNDATASIZE PUSH1 0x0 DUP1 RETURNDATACOPY RETURNDATASIZE PUSH1 0x0 REVERT JUMPDEST RETURNDATASIZE PUSH1 0x1 EQ ISZERO PC PUSH1 0xA ADD JUMPI PUSH1 0x1 PUSH1 0x0 RETURN JUMPDEST DUP3 MLOAD PUSH1 0x40 DUP5 ADD MLOAD RETURNDATASIZE PUSH1 0x0 DUP7 RETURNDATACOPY DUP13 DUP13 DUP3 PUSH1 0x60 DUP9 ADD CALLER POP PUSH1 0x0 PUSH1 0x4 GAS CALL POP MSIZE DUP6 JUMPDEST DUP2 DUP2 LT ISZERO PUSH3 0x115C JUMPI PUSH1 0x0 DUP2 MSTORE PUSH1 0x20 ADD PUSH3 0x1146 JUMP JUMPDEST POP SWAP2 SWAP13 POP POP POP POP POP POP POP JUMP JUMPDEST PUSH3 0x1192 SWAP2 SWAP1 JUMPDEST DUP1 DUP3 GT ISZERO PUSH3 0xFA6 JUMPI PUSH1 0x0 DUP1 DUP3 PUSH3 0x1186 PUSH3 0xF0D JUMP JUMPDEST POP POP POP PUSH1 0x1 ADD PUSH3 0x116F JUMP JUMPDEST SWAP1 JUMP JUMPDEST PUSH2 0x4256 DUP1 PUSH3 0x11A5 PUSH1 0x0 CODECOPY PUSH1 0x0 RETURN INVALID PUSH1 0x80 PUSH1 0x40 MSTORE CALLVALUE DUP1 ISZERO PUSH2 0x19 JUMPI PUSH1 0x0 DUP1 PUSH2 0x16 PUSH2 0x3CF0 JUMP JUMPDEST POP POP JUMPDEST POP PUSH1 0x4 CALLDATASIZE LT PUSH2 0x2C4 JUMPI PUSH1 0x0 CALLDATALOAD PUSH1 0xE0 SHR DUP1 PUSH4 0x79BA5097 GT PUSH2 0x18B JUMPI DUP1 PUSH4 0xAEAB5849 GT PUSH2 0xF2 JUMPI DUP1 PUSH4 0xC095DAF2 GT PUSH2 0xAB JUMPI DUP1 PUSH4 0xE3235C91 GT PUSH2 0x85 JUMPI DUP1 PUSH4 0xE3235C91 EQ PUSH2 0xA6C JUMPI DUP1 PUSH4 0xE73EFC9B EQ PUSH2 0xA74 JUMPI DUP1 PUSH4 0xFE40C470 EQ PUSH2 0xAA0 JUMPI DUP1 PUSH4 0xFF50ABDC EQ PUSH2 0xACF JUMPI PUSH2 0x2C4 JUMP JUMPDEST DUP1 PUSH4 0xC095DAF2 EQ PUSH2 0xA18 JUMPI DUP1 PUSH4 0xC58AAAE6 EQ PUSH2 0xA3E JUMPI DUP1 PUSH4 0xC6C9D828 EQ PUSH2 0xA46 JUMPI PUSH2 0x2C4 JUMP JUMPDEST DUP1 PUSH4 0xAEAB5849 EQ PUSH2 0x90A JUMPI DUP1 PUSH4 0xB8225DEC EQ PUSH2 0x930 JUMPI DUP1 PUSH4 0xBD32AA44 EQ PUSH2 0x938 JUMPI DUP1 PUSH4 0xBD6A10B8 EQ PUSH2 0x940 JUMPI DUP1 PUSH4 0xBE5AF9FE EQ PUSH2 0x966 JUMPI DUP1 PUSH4 0xC014FB84 EQ PUSH2 0x986 JUMPI PUSH2 0x2C4 JUMP JUMPDEST DUP1 PUSH4 0x9AF1D35A GT PUSH2 0x144 JUMPI DUP1 PUSH4 0x9AF1D35A EQ PUSH2 0x80E JUMPI DUP1 PUSH4 0x9CB8A26A EQ PUSH2 0x816 JUMPI DUP1 PUSH4 0xA461FC82 EQ PUSH2 0x81E JUMPI DUP1 PUSH4 0xAB49848C EQ PUSH2 0x826 JUMPI DUP1 PUSH4 0xAC60C486 EQ PUSH2 0x867 JUMPI DUP1 PUSH4 0xADFD31AF EQ PUSH2 0x86F JUMPI PUSH2 0x2C4 JUMP JUMPDEST DUP1 PUSH4 0x79BA5097 EQ PUSH2 0x713 JUMPI DUP1 PUSH4 0x89C6318D EQ PUSH2 0x71B JUMPI DUP1 PUSH4 0x8DA5CB5B EQ PUSH2 0x79A JUMPI DUP1 PUSH4 0x91B4DED9 EQ PUSH2 0x7A2 JUMPI DUP1 PUSH4 0x94FCF3C3 EQ PUSH2 0x7AA JUMPI DUP1 PUSH4 0x9501DC87 EQ PUSH2 0x7E8 JUMPI PUSH2 0x2C4 JUMP JUMPDEST DUP1 PUSH4 0x39AB4C41 GT PUSH2 0x22F JUMPI DUP1 PUSH4 0x631E1444 GT PUSH2 0x1E8 JUMPI DUP1 PUSH4 0x631E1444 EQ PUSH2 0x63B JUMPI DUP1 PUSH4 0x64AF2D87 EQ PUSH2 0x66A JUMPI DUP1 PUSH4 0x64CF34BD EQ PUSH2 0x672 JUMPI DUP1 PUSH4 0x6B3A0984 EQ PUSH2 0x698 JUMPI DUP1 PUSH4 0x73B7DE15 EQ PUSH2 0x6BE JUMPI DUP1 PUSH4 0x7859F410 EQ PUSH2 0x6E4 JUMPI PUSH2 0x2C4 JUMP JUMPDEST DUP1 PUSH4 0x39AB4C41 EQ PUSH2 0x4F2 JUMPI DUP1 PUSH4 0x3BE99E6F EQ PUSH2 0x51A JUMPI DUP1 PUSH4 0x4A41D89D EQ PUSH2 0x549 JUMPI DUP1 PUSH4 0x53A47BB7 EQ PUSH2 0x575 JUMPI DUP1 PUSH4 0x543D6C74 EQ PUSH2 0x57D JUMPI DUP1 PUSH4 0x5C975ABB EQ PUSH2 0x61F JUMPI PUSH2 0x2C4 JUMP JUMPDEST DUP1 PUSH4 0x16C38B3C GT PUSH2 0x281 JUMPI DUP1 PUSH4 0x16C38B3C EQ PUSH2 0x436 JUMPI DUP1 PUSH4 0x17C70DE4 EQ PUSH2 0x45E JUMPI DUP1 PUSH4 0x1F3F10B0 EQ PUSH2 0x466 JUMPI DUP1 PUSH4 0x20714F88 EQ PUSH2 0x495 JUMPI DUP1 PUSH4 0x3278C960 EQ PUSH2 0x4C4 JUMPI DUP1 PUSH4 0x36FD711E EQ PUSH2 0x4CC JUMPI PUSH2 0x2C4 JUMP JUMPDEST DUP1 PUSH4 0x2610C50 EQ PUSH2 0x2D2 JUMPI DUP1 PUSH4 0x3FF6018 EQ PUSH2 0x2EC JUMPI DUP1 PUSH4 0x4F3BCEC EQ PUSH2 0x397 JUMPI DUP1 PUSH4 0xDD16FD5 EQ PUSH2 0x3BB JUMPI DUP1 PUSH4 0x15502840 EQ PUSH2 0x3E1 JUMPI DUP1 PUSH4 0x1627540C EQ PUSH2 0x407 JUMPI JUMPDEST PUSH1 0x0 DUP1 PUSH2 0x2CF PUSH2 0x3CF0 JUMP JUMPDEST POP POP JUMPDEST PUSH2 0x2DA PUSH2 0xAD7 JUMP JUMPDEST PUSH1 0x40 MLOAD SWAP1 DUP2 MSTORE PUSH1 0x20 ADD PUSH1 0x40 MLOAD DUP1 SWAP2 SUB SWAP1 RETURN JUMPDEST PUSH2 0x395 PUSH1 0x4 DUP1 CALLDATASIZE SUB PUSH1 0x60 DUP2 LT ISZERO PUSH2 0x30B JUMPI PUSH1 0x0 DUP1 PUSH2 0x308 PUSH2 0x3CF0 JUMP JUMPDEST POP POP JUMPDEST PUSH1 0x1 PUSH1 0x1 PUSH1 0xA0 SHL SUB DUP3 CALLDATALOAD AND SWAP2 PUSH1 0x20 DUP2 ADD CALLDATALOAD ISZERO ISZERO SWAP2 DUP2 ADD SWAP1 PUSH1 0x60 DUP2 ADD PUSH1 0x40 DUP3 ADD CALLDATALOAD PUSH1 0x1 PUSH1 0x20 SHL DUP2 GT ISZERO PUSH2 0x345 JUMPI PUSH1 0x0 DUP1 PUSH2 0x342 PUSH2 0x3CF0 JUMP JUMPDEST POP POP JUMPDEST DUP3 ADD DUP4 PUSH1 0x20 DUP3 ADD GT ISZERO PUSH2 0x360 JUMPI PUSH1 0x0 DUP1 PUSH2 0x35D PUSH2 0x3CF0 JUMP JUMPDEST POP POP JUMPDEST DUP1 CALLDATALOAD SWAP1 PUSH1 0x20 ADD SWAP2 DUP5 PUSH1 0x20 DUP4 MUL DUP5 ADD GT PUSH1 0x1 PUSH1 0x20 SHL DUP4 GT OR ISZERO PUSH2 0x38A JUMPI PUSH1 0x0 DUP1 PUSH2 0x387 PUSH2 0x3CF0 JUMP JUMPDEST POP POP JUMPDEST POP SWAP1 SWAP3 POP SWAP1 POP PUSH2 0xAEA JUMP JUMPDEST STOP JUMPDEST PUSH2 0x39F PUSH2 0xE4F JUMP JUMPDEST PUSH1 0x40 MLOAD PUSH1 0x1 PUSH1 0x1 PUSH1 0xA0 SHL SUB SWAP1 SWAP2 AND DUP2 MSTORE PUSH1 0x20 ADD PUSH1 0x40 MLOAD DUP1 SWAP2 SUB SWAP1 RETURN JUMPDEST PUSH2 0x395 PUSH1 0x4 DUP1 CALLDATASIZE SUB PUSH1 0x20 DUP2 LT ISZERO PUSH2 0x3DA JUMPI PUSH1 0x0 DUP1 PUSH2 0x3D7 PUSH2 0x3CF0 JUMP JUMPDEST POP POP JUMPDEST POP CALLDATALOAD PUSH2 0xE6E JUMP JUMPDEST PUSH2 0x395 PUSH1 0x4 DUP1 CALLDATASIZE SUB PUSH1 0x20 DUP2 LT ISZERO PUSH2 0x400 JUMPI PUSH1 0x0 DUP1 PUSH2 0x3FD PUSH2 0x3CF0 JUMP JUMPDEST POP POP JUMPDEST POP CALLDATALOAD PUSH2 0x1016 JUMP JUMPDEST PUSH2 0x395 PUSH1 0x4 DUP1 CALLDATASIZE SUB PUSH1 0x20 DUP2 LT ISZERO PUSH2 0x426 JUMPI PUSH1 0x0 DUP1 PUSH2 0x423 PUSH2 0x3CF0 JUMP JUMPDEST POP POP JUMPDEST POP CALLDATALOAD PUSH1 0x1 PUSH1 0x1 PUSH1 0xA0 SHL SUB AND PUSH2 0x1063 JUMP JUMPDEST PUSH2 0x395 PUSH1 0x4 DUP1 CALLDATASIZE SUB PUSH1 0x20 DUP2 LT ISZERO PUSH2 0x455 JUMPI PUSH1 0x0 DUP1 PUSH2 0x452 PUSH2 0x3CF0 JUMP JUMPDEST POP POP JUMPDEST POP CALLDATALOAD ISZERO ISZERO PUSH2 0x10DD JUMP JUMPDEST PUSH2 0x2DA PUSH2 0x11B3 JUMP JUMPDEST PUSH2 0x395 PUSH1 0x4 DUP1 CALLDATASIZE SUB PUSH1 0x20 DUP2 LT ISZERO PUSH2 0x485 JUMPI PUSH1 0x0 DUP1 PUSH2 0x482 PUSH2 0x3CF0 JUMP JUMPDEST POP POP JUMPDEST POP CALLDATALOAD PUSH1 0x1 PUSH1 0x1 PUSH1 0xA0 SHL SUB AND PUSH2 0x11C0 JUMP JUMPDEST PUSH2 0x395 PUSH1 0x4 DUP1 CALLDATASIZE SUB PUSH1 0x20 DUP2 LT ISZERO PUSH2 0x4B4 JUMPI PUSH1 0x0 DUP1 PUSH2 0x4B1 PUSH2 0x3CF0 JUMP JUMPDEST POP POP JUMPDEST POP CALLDATALOAD PUSH1 0x1 PUSH1 0x1 PUSH1 0xA0 SHL SUB AND PUSH2 0x11F8 JUMP JUMPDEST PUSH2 0x395 PUSH2 0x12D7 JUMP JUMPDEST PUSH2 0x395 PUSH1 0x4 DUP1 CALLDATASIZE SUB PUSH1 0x20 DUP2 LT ISZERO PUSH2 0x4EB JUMPI PUSH1 0x0 DUP1 PUSH2 0x4E8 PUSH2 0x3CF0 JUMP JUMPDEST POP POP JUMPDEST POP CALLDATALOAD PUSH2 0x1348 JUMP JUMPDEST PUSH2 0x395 PUSH1 0x4 DUP1 CALLDATASIZE SUB PUSH1 0x20 DUP2 LT ISZERO PUSH2 0x511 JUMPI PUSH1 0x0 DUP1 PUSH2 0x50E PUSH2 0x3CF0 JUMP JUMPDEST POP POP JUMPDEST POP CALLDATALOAD ISZERO ISZERO PUSH2 0x1483 JUMP JUMPDEST PUSH2 0x395 PUSH1 0x4 DUP1 CALLDATASIZE SUB PUSH1 0x20 DUP2 LT ISZERO PUSH2 0x539 JUMPI PUSH1 0x0 DUP1 PUSH2 0x536 PUSH2 0x3CF0 JUMP JUMPDEST POP POP JUMPDEST POP CALLDATALOAD PUSH1 0x1 PUSH1 0x1 PUSH1 0xA0 SHL SUB AND PUSH2 0x1509 JUMP JUMPDEST PUSH2 0x551 PUSH2 0x16D3 JUMP JUMPDEST PUSH1 0x40 MLOAD DUP1 DUP5 DUP2 MSTORE PUSH1 0x20 ADD DUP4 DUP2 MSTORE PUSH1 0x20 ADD DUP3 DUP2 MSTORE PUSH1 0x20 ADD SWAP4 POP POP POP POP PUSH1 0x40 MLOAD DUP1 SWAP2 SUB SWAP1 RETURN JUMPDEST PUSH2 0x39F PUSH2 0x16FD JUMP JUMPDEST PUSH2 0x395 PUSH1 0x4 DUP1 CALLDATASIZE SUB PUSH1 0x40 DUP2 LT ISZERO PUSH2 0x59C JUMPI PUSH1 0x0 DUP1 PUSH2 0x599 PUSH2 0x3CF0 JUMP JUMPDEST POP POP JUMPDEST PUSH1 0x1 PUSH1 0x1 PUSH1 0xA0 SHL SUB DUP3 CALLDATALOAD AND SWAP2 SWAP1 DUP2 ADD SWAP1 PUSH1 0x40 DUP2 ADD PUSH1 0x20 DUP3 ADD CALLDATALOAD PUSH1 0x1 PUSH1 0x20 SHL DUP2 GT ISZERO PUSH2 0x5CF JUMPI PUSH1 0x0 DUP1 PUSH2 0x5CC PUSH2 0x3CF0 JUMP JUMPDEST POP POP JUMPDEST DUP3 ADD DUP4 PUSH1 0x20 DUP3 ADD GT ISZERO PUSH2 0x5EA JUMPI PUSH1 0x0 DUP1 PUSH2 0x5E7 PUSH2 0x3CF0 JUMP JUMPDEST POP POP JUMPDEST DUP1 CALLDATALOAD SWAP1 PUSH1 0x20 ADD SWAP2 DUP5 PUSH1 0x20 DUP4 MUL DUP5 ADD GT PUSH1 0x1 PUSH1 0x20 SHL DUP4 GT OR ISZERO PUSH2 0x614 JUMPI PUSH1 0x0 DUP1 PUSH2 0x611 PUSH2 0x3CF0 JUMP JUMPDEST POP POP JUMPDEST POP SWAP1 SWAP3 POP SWAP1 POP PUSH2 0x1709 JUMP JUMPDEST PUSH2 0x627 PUSH2 0x17D2 JUMP JUMPDEST PUSH1 0x40 MLOAD SWAP1 ISZERO ISZERO DUP2 MSTORE PUSH1 0x20 ADD PUSH1 0x40 MLOAD DUP1 SWAP2 SUB SWAP1 RETURN JUMPDEST PUSH2 0x627 PUSH1 0x4 DUP1 CALLDATASIZE SUB PUSH1 0x20 DUP2 LT ISZERO PUSH2 0x65A JUMPI PUSH1 0x0 DUP1 PUSH2 0x657 PUSH2 0x3CF0 JUMP JUMPDEST POP POP JUMPDEST POP CALLDATALOAD PUSH1 0x1 PUSH1 0x1 PUSH1 0xA0 SHL SUB AND PUSH2 0x17EB JUMP JUMPDEST PUSH2 0x627 PUSH2 0x19C7 JUMP JUMPDEST PUSH2 0x395 PUSH1 0x4 DUP1 CALLDATASIZE SUB PUSH1 0x20 DUP2 LT ISZERO PUSH2 0x691 JUMPI PUSH1 0x0 DUP1 PUSH2 0x68E PUSH2 0x3CF0 JUMP JUMPDEST POP POP JUMPDEST POP CALLDATALOAD PUSH2 0x19D3 JUMP JUMPDEST PUSH2 0x395 PUSH1 0x4 DUP1 CALLDATASIZE SUB PUSH1 0x20 DUP2 LT ISZERO PUSH2 0x6B7 JUMPI PUSH1 0x0 DUP1 PUSH2 0x6B4 PUSH2 0x3CF0 JUMP JUMPDEST POP POP JUMPDEST POP CALLDATALOAD PUSH2 0x1A20 JUMP JUMPDEST PUSH2 0x395 PUSH1 0x4 DUP1 CALLDATASIZE SUB PUSH1 0x20 DUP2 LT ISZERO PUSH2 0x6DD JUMPI PUSH1 0x0 DUP1 PUSH2 0x6DA PUSH2 0x3CF0 JUMP JUMPDEST POP POP JUMPDEST POP CALLDATALOAD PUSH2 0x1B66 JUMP JUMPDEST PUSH2 0x395 PUSH1 0x4 DUP1 CALLDATASIZE SUB PUSH1 0x20 DUP2 LT ISZERO PUSH2 0x703 JUMPI PUSH1 0x0 DUP1 PUSH2 0x700 PUSH2 0x3CF0 JUMP JUMPDEST POP POP JUMPDEST POP CALLDATALOAD PUSH1 0x1 PUSH1 0x1 PUSH1 0xA0 SHL SUB AND PUSH2 0x1CA1 JUMP JUMPDEST PUSH2 0x395 PUSH2 0x1DA0 JUMP JUMPDEST PUSH2 0x747 PUSH1 0x4 DUP1 CALLDATASIZE SUB PUSH1 0x40 DUP2 LT ISZERO PUSH2 0x73A JUMPI PUSH1 0x0 DUP1 PUSH2 0x737 PUSH2 0x3CF0 JUMP JUMPDEST POP POP JUMPDEST POP DUP1 CALLDATALOAD SWAP1 PUSH1 0x20 ADD CALLDATALOAD PUSH2 0x1F23 JUMP JUMPDEST PUSH1 0x40 MLOAD PUSH1 0x20 DUP1 DUP3 MSTORE DUP2 SWAP1 DUP2 ADD DUP4 DUP2 DUP2 MLOAD DUP2 MSTORE PUSH1 0x20 ADD SWAP2 POP DUP1 MLOAD SWAP1 PUSH1 0x20 ADD SWAP1 PUSH1 0x20 MUL DUP1 DUP4 DUP4 PUSH1 0x0 JUMPDEST DUP4 DUP2 LT ISZERO PUSH2 0x786 JUMPI DUP1 DUP3 ADD MLOAD DUP4 DUP3 ADD MSTORE PUSH1 0x20 ADD PUSH2 0x76E JUMP JUMPDEST POP POP POP POP SWAP1 POP ADD SWAP3 POP POP POP PUSH1 0x40 MLOAD DUP1 SWAP2 SUB SWAP1 RETURN JUMPDEST PUSH2 0x39F PUSH2 0x1F40 JUMP JUMPDEST PUSH2 0x2DA PUSH2 0x1F4B JUMP JUMPDEST PUSH2 0x39F PUSH1 0x4 DUP1 CALLDATASIZE SUB PUSH1 0xE0 DUP2 LT ISZERO PUSH2 0x7C9 JUMPI PUSH1 0x0 DUP1 PUSH2 0x7C6 PUSH2 0x3CF0 JUMP JUMPDEST POP POP JUMPDEST POP DUP1 CALLDATALOAD SWAP1 PUSH1 0x20 DUP2 ADD CALLDATALOAD SWAP1 PUSH1 0x40 DUP2 ADD CALLDATALOAD ISZERO ISZERO SWAP1 PUSH1 0x60 DUP2 ADD SWAP1 PUSH1 0xA0 ADD PUSH2 0x1F55 JUMP JUMPDEST PUSH2 0x395 PUSH1 0x4 DUP1 CALLDATASIZE SUB PUSH1 0x20 DUP2 LT ISZERO PUSH2 0x807 JUMPI PUSH1 0x0 DUP1 PUSH2 0x804 PUSH2 0x3CF0 JUMP JUMPDEST POP POP JUMPDEST POP CALLDATALOAD PUSH2 0x2697 JUMP JUMPDEST PUSH2 0x551 PUSH2 0x283F JUMP JUMPDEST PUSH2 0x395 PUSH2 0x284A JUMP JUMPDEST PUSH2 0x2DA PUSH2 0x298D JUMP JUMPDEST PUSH2 0x82E PUSH2 0x2994 JUMP JUMPDEST PUSH1 0x40 MLOAD DUP1 DUP3 PUSH2 0x300 DUP1 DUP4 DUP4 PUSH1 0x0 JUMPDEST DUP4 DUP2 LT ISZERO PUSH2 0x854 JUMPI DUP1 DUP3 ADD MLOAD DUP4 DUP3 ADD MSTORE PUSH1 0x20 ADD PUSH2 0x83C JUMP JUMPDEST POP POP POP POP SWAP1 POP ADD SWAP2 POP POP PUSH1 0x40 MLOAD DUP1 SWAP2 SUB SWAP1 RETURN JUMPDEST PUSH2 0x2DA PUSH2 0x29F6 JUMP JUMPDEST PUSH2 0x395 PUSH1 0x4 DUP1 CALLDATASIZE SUB PUSH1 0x40 DUP2 LT ISZERO PUSH2 0x88E JUMPI PUSH1 0x0 DUP1 PUSH2 0x88B PUSH2 0x3CF0 JUMP JUMPDEST POP POP JUMPDEST DUP2 CALLDATALOAD ISZERO ISZERO SWAP2 SWAP1 DUP2 ADD SWAP1 PUSH1 0x40 DUP2 ADD PUSH1 0x20 DUP3 ADD CALLDATALOAD PUSH1 0x1 PUSH1 0x20 SHL DUP2 GT ISZERO PUSH2 0x8BA JUMPI PUSH1 0x0 DUP1 PUSH2 0x8B7 PUSH2 0x3CF0 JUMP JUMPDEST POP POP JUMPDEST DUP3 ADD DUP4 PUSH1 0x20 DUP3 ADD GT ISZERO PUSH2 0x8D5 JUMPI PUSH1 0x0 DUP1 PUSH2 0x8D2 PUSH2 0x3CF0 JUMP JUMPDEST POP POP JUMPDEST DUP1 CALLDATALOAD SWAP1 PUSH1 0x20 ADD SWAP2 DUP5 PUSH1 0x20 DUP4 MUL DUP5 ADD GT PUSH1 0x1 PUSH1 0x20 SHL DUP4 GT OR ISZERO PUSH2 0x8FF JUMPI PUSH1 0x0 DUP1 PUSH2 0x8FC PUSH2 0x3CF0 JUMP JUMPDEST POP POP JUMPDEST POP SWAP1 SWAP3 POP SWAP1 POP PUSH2 0x2A03 JUMP JUMPDEST PUSH2 0x395 PUSH1 0x4 DUP1 CALLDATASIZE SUB PUSH1 0x20 DUP2 LT ISZERO PUSH2 0x929 JUMPI PUSH1 0x0 DUP1 PUSH2 0x926 PUSH2 0x3CF0 JUMP JUMPDEST POP POP JUMPDEST POP CALLDATALOAD PUSH2 0x2CA4 JUMP JUMPDEST PUSH2 0x627 PUSH2 0x2DE8 JUMP JUMPDEST PUSH2 0x395 PUSH2 0x2DF4 JUMP JUMPDEST PUSH2 0x395 PUSH1 0x4 DUP1 CALLDATASIZE SUB PUSH1 0x20 DUP2 LT ISZERO PUSH2 0x95F JUMPI PUSH1 0x0 DUP1 PUSH2 0x95C PUSH2 0x3CF0 JUMP JUMPDEST POP POP JUMPDEST POP CALLDATALOAD PUSH2 0x2E76 JUMP JUMPDEST PUSH2 0x96E PUSH2 0x2EC3 JUMP JUMPDEST PUSH1 0x40 MLOAD SWAP2 DUP3 MSTORE PUSH1 0x20 DUP3 ADD MSTORE PUSH1 0x40 SWAP1 DUP2 ADD SWAP1 MLOAD DUP1 SWAP2 SUB SWAP1 RETURN JUMPDEST PUSH2 0x395 PUSH1 0x4 DUP1 CALLDATASIZE SUB PUSH1 0x20 DUP2 LT ISZERO PUSH2 0x9A5 JUMPI PUSH1 0x0 DUP1 PUSH2 0x9A2 PUSH2 0x3CF0 JUMP JUMPDEST POP POP JUMPDEST DUP2 ADD SWAP1 PUSH1 0x20 DUP2 ADD DUP2 CALLDATALOAD PUSH1 0x1 PUSH1 0x20 SHL DUP2 GT ISZERO PUSH2 0x9C8 JUMPI PUSH1 0x0 DUP1 PUSH2 0x9C5 PUSH2 0x3CF0 JUMP JUMPDEST POP POP JUMPDEST DUP3 ADD DUP4 PUSH1 0x20 DUP3 ADD GT ISZERO PUSH2 0x9E3 JUMPI PUSH1 0x0 DUP1 PUSH2 0x9E0 PUSH2 0x3CF0 JUMP JUMPDEST POP POP JUMPDEST DUP1 CALLDATALOAD SWAP1 PUSH1 0x20 ADD SWAP2 DUP5 PUSH1 0x20 DUP4 MUL DUP5 ADD GT PUSH1 0x1 PUSH1 0x20 SHL DUP4 GT OR ISZERO PUSH2 0xA0D JUMPI PUSH1 0x0 DUP1 PUSH2 0xA0A PUSH2 0x3CF0 JUMP JUMPDEST POP POP JUMPDEST POP SWAP1 SWAP3 POP SWAP1 POP PUSH2 0x2EE0 JUMP JUMPDEST PUSH2 0x395 PUSH1 0x4 DUP1 CALLDATASIZE SUB PUSH1 0x20 DUP2 LT ISZERO PUSH2 0xA37 JUMPI PUSH1 0x0 DUP1 PUSH2 0xA34 PUSH2 0x3CF0 JUMP JUMPDEST POP POP JUMPDEST POP CALLDATALOAD PUSH2 0x3057 JUMP JUMPDEST PUSH2 0x39F PUSH2 0x30A4 JUMP JUMPDEST PUSH2 0x2DA PUSH1 0x4 DUP1 CALLDATASIZE SUB PUSH1 0x20 DUP2 LT ISZERO PUSH2 0xA65 JUMPI PUSH1 0x0 DUP1 PUSH2 0xA62 PUSH2 0x3CF0 JUMP JUMPDEST POP POP JUMPDEST POP CALLDATALOAD PUSH2 0x30B0 JUMP JUMPDEST PUSH2 0x2DA PUSH2 0x30D8 JUMP JUMPDEST PUSH2 0x747 PUSH1 0x4 DUP1 CALLDATASIZE SUB PUSH1 0x40 DUP2 LT ISZERO PUSH2 0xA93 JUMPI PUSH1 0x0 DUP1 PUSH2 0xA90 PUSH2 0x3CF0 JUMP JUMPDEST POP POP JUMPDEST POP DUP1 CALLDATALOAD SWAP1 PUSH1 0x20 ADD CALLDATALOAD PUSH2 0x30DD JUMP JUMPDEST PUSH2 0x395 PUSH1 0x4 DUP1 CALLDATASIZE SUB PUSH1 0x20 DUP2 LT ISZERO PUSH2 0xABF JUMPI PUSH1 0x0 DUP1 PUSH2 0xABC PUSH2 0x3CF0 JUMP JUMPDEST POP POP JUMPDEST POP CALLDATALOAD PUSH1 0x1 PUSH1 0x1 PUSH1 0xA0 SHL SUB AND PUSH2 0x30F1 JUMP JUMPDEST PUSH2 0x2DA PUSH2 0x33AE JUMP JUMPDEST PUSH1 0x0 PUSH1 0x13 DUP1 PUSH2 0xAE4 PUSH2 0x3D5B JUMP JUMPDEST SWAP2 POP POP SWAP1 JUMP JUMPDEST PUSH2 0xAF2 PUSH2 0x33B8 JUMP JUMPDEST DUP1 DUP1 PUSH2 0xAFE JUMPI POP PUSH2 0xE49 JUMP JUMPDEST PUSH1 0x0 DUP5 PUSH2 0xB0C JUMPI PUSH1 0x15 PUSH2 0xB0F JUMP JUMPDEST PUSH1 0x13 JUMPDEST SWAP1 POP PUSH1 0x0 DUP1 JUMPDEST DUP4 DUP2 LT ISZERO PUSH2 0xCEA JUMPI PUSH1 0x0 DUP7 DUP7 DUP4 DUP2 DUP2 LT PUSH2 0xB2B JUMPI INVALID JUMPDEST SWAP1 POP PUSH1 0x20 MUL ADD CALLDATALOAD PUSH1 0x1 PUSH1 0x1 PUSH1 0xA0 SHL SUB AND SWAP1 POP PUSH2 0xB46 DUP2 PUSH2 0x3432 JUMP JUMPDEST PUSH2 0xB91 JUMPI PUSH1 0x40 MLOAD PUSH3 0x461BCD PUSH1 0xE5 SHL DUP2 MSTORE PUSH1 0x20 PUSH1 0x4 DUP3 ADD MSTORE PUSH1 0xF PUSH1 0x24 DUP3 ADD MSTORE PUSH15 0x26B0B935B2BA103AB735B737BBB717 PUSH1 0x89 SHL PUSH1 0x44 DUP3 ADD MSTORE PUSH1 0x64 ADD PUSH1 0x40 MLOAD DUP1 SWAP2 SUB SWAP1 PUSH2 0xB8E PUSH2 0x3CF0 JUMP JUMPDEST POP POP JUMPDEST PUSH2 0xBA1 DUP5 DUP3 PUSH4 0xFFFFFFFF PUSH2 0x345C AND JUMP JUMPDEST PUSH2 0xC4C DUP2 PUSH1 0x1 PUSH1 0x1 PUSH1 0xA0 SHL SUB AND PUSH4 0xEEF49EE3 PUSH1 0x40 MLOAD DUP2 PUSH4 0xFFFFFFFF AND PUSH1 0xE0 SHL DUP2 MSTORE PUSH1 0x4 ADD PUSH1 0x20 PUSH1 0x40 MLOAD DUP1 DUP4 SUB DUP2 DUP7 DUP1 PUSH2 0xBD8 PUSH2 0x3DB6 JUMP JUMPDEST ISZERO DUP1 ISZERO PUSH2 0xBED JUMPI PUSH1 0x0 DUP1 PUSH2 0xBEA PUSH2 0x3CF0 JUMP JUMPDEST POP POP JUMPDEST POP GAS PUSH2 0xBF7 PUSH2 0x3E02 JUMP JUMPDEST POP POP POP POP POP ISZERO DUP1 ISZERO PUSH2 0xC16 JUMPI RETURNDATASIZE PUSH1 0x0 DUP1 RETURNDATACOPY RETURNDATASIZE PUSH1 0x0 PUSH2 0xC13 PUSH2 0x3CF0 JUMP JUMPDEST POP POP JUMPDEST POP POP POP POP PUSH1 0x40 MLOAD RETURNDATASIZE PUSH1 0x20 DUP2 LT ISZERO PUSH2 0xC35 JUMPI PUSH1 0x0 DUP1 PUSH2 0xC32 PUSH2 0x3CF0 JUMP JUMPDEST POP POP JUMPDEST DUP2 ADD SWAP1 DUP1 DUP1 MLOAD DUP8 SWAP4 POP SWAP2 POP POP PUSH4 0xFFFFFFFF PUSH2 0x3627 AND JUMP JUMPDEST SWAP3 POP DUP1 PUSH1 0x1 PUSH1 0x1 PUSH1 0xA0 SHL SUB AND PUSH4 0x1627540C DUP11 PUSH1 0x40 MLOAD PUSH1 0x1 PUSH1 0x1 PUSH1 0xE0 SHL SUB NOT PUSH1 0xE0 DUP5 SWAP1 SHL AND DUP2 MSTORE PUSH1 0x1 PUSH1 0x1 PUSH1 0xA0 SHL SUB SWAP1 SWAP2 AND PUSH1 0x4 DUP3 ADD MSTORE PUSH1 0x24 ADD PUSH1 0x0 PUSH1 0x40 MLOAD DUP1 DUP4 SUB DUP2 PUSH1 0x0 DUP8 DUP1 PUSH2 0xC9A PUSH2 0x3DB6 JUMP JUMPDEST ISZERO DUP1 ISZERO PUSH2 0xCAF JUMPI PUSH1 0x0 DUP1 PUSH2 0xCAC PUSH2 0x3CF0 JUMP JUMPDEST POP POP JUMPDEST POP GAS PUSH2 0xCB9 PUSH2 0x3EBB JUMP JUMPDEST POP POP POP POP POP POP ISZERO DUP1 ISZERO PUSH2 0xCD9 JUMPI RETURNDATASIZE PUSH1 0x0 DUP1 RETURNDATACOPY RETURNDATASIZE PUSH1 0x0 PUSH2 0xCD6 PUSH2 0x3CF0 JUMP JUMPDEST POP POP JUMPDEST POP POP PUSH1 0x1 SWAP1 SWAP4 ADD SWAP3 POP PUSH2 0xB15 SWAP2 POP POP JUMP JUMPDEST POP PUSH2 0xD05 DUP2 PUSH1 0x12 PUSH2 0xCF9 PUSH2 0x3D5B JUMP JUMPDEST SWAP1 PUSH4 0xFFFFFFFF PUSH2 0x368F AND JUMP JUMPDEST DUP1 PUSH1 0x12 PUSH2 0xD10 PUSH2 0x3F74 JUMP JUMPDEST POP POP POP PUSH32 0x3E429AA34462B428D3F7277ACB67E1C83D80A57FAAB2A47924369B5060F35679 DUP8 DUP7 DUP7 PUSH1 0x40 MLOAD PUSH1 0x1 PUSH1 0x1 PUSH1 0xA0 SHL SUB DUP5 AND DUP2 MSTORE PUSH1 0x40 PUSH1 0x20 DUP1 DUP4 ADD DUP3 DUP2 MSTORE SWAP2 DUP4 ADD DUP5 SWAP1 MSTORE PUSH1 0x60 DUP4 ADD SWAP1 DUP6 SWAP1 DUP6 MUL DUP1 DUP3 DUP5 CALLDATACOPY PUSH1 0x0 DUP4 DUP3 ADD MSTORE PUSH1 0x1F ADD PUSH1 0x1F NOT AND SWAP1 SWAP2 ADD SWAP6 POP PUSH1 0x40 SWAP5 POP POP POP POP POP MLOAD DUP1 SWAP2 SUB SWAP1 LOG1 DUP7 PUSH1 0x1 PUSH1 0x1 PUSH1 0xA0 SHL SUB AND PUSH4 0xADFD31AF DUP8 DUP8 DUP8 PUSH1 0x40 MLOAD PUSH1 0x1 PUSH1 0x1 PUSH1 0xE0 SHL SUB NOT PUSH1 0xE0 DUP7 SWAP1 SHL AND DUP2 MSTORE DUP4 ISZERO ISZERO PUSH1 0x4 DUP3 ADD SWAP1 DUP2 MSTORE PUSH1 0x40 PUSH1 0x24 DUP4 ADD SWAP1 DUP2 MSTORE PUSH1 0x44 DUP4 ADD DUP5 SWAP1 MSTORE SWAP1 SWAP2 PUSH1 0x64 ADD DUP5 PUSH1 0x20 DUP6 MUL DUP1 DUP3 DUP5 CALLDATACOPY PUSH1 0x0 DUP4 DUP3 ADD DUP2 SWAP1 MSTORE PUSH1 0x1F SWAP1 SWAP2 ADD PUSH1 0x1F NOT AND SWAP1 SWAP3 ADD SWAP7 POP SWAP1 SWAP5 POP PUSH1 0x40 SWAP4 POP POP POP POP MLOAD DUP1 DUP4 SUB DUP2 PUSH1 0x0 DUP8 DUP1 PUSH2 0xE02 PUSH2 0x3DB6 JUMP JUMPDEST ISZERO DUP1 ISZERO PUSH2 0xE17 JUMPI PUSH1 0x0 DUP1 PUSH2 0xE14 PUSH2 0x3CF0 JUMP JUMPDEST POP POP JUMPDEST POP GAS PUSH2 0xE21 PUSH2 0x3EBB JUMP JUMPDEST POP POP POP POP POP POP ISZERO DUP1 ISZERO PUSH2 0xE41 JUMPI RETURNDATASIZE PUSH1 0x0 DUP1 RETURNDATACOPY RETURNDATASIZE PUSH1 0x0 PUSH2 0xE3E PUSH2 0x3CF0 JUMP JUMPDEST POP POP JUMPDEST POP POP POP POP POP POP POP JUMPDEST POP POP POP POP JUMP JUMPDEST PUSH1 0x0 PUSH1 0x6 PUSH2 0xE5B PUSH2 0x3D5B JUMP JUMPDEST SWAP1 PUSH2 0x100 EXP SWAP1 DIV PUSH1 0x1 PUSH1 0x1 PUSH1 0xA0 SHL SUB AND DUP2 JUMP JUMPDEST PUSH2 0xE76 PUSH2 0x33B8 JUMP JUMPDEST PUSH1 0x0 PUSH1 0x9 PUSH2 0xE82 PUSH2 0x3D5B JUMP JUMPDEST DUP3 ADD SWAP1 POP PUSH20 0x0 PUSH4 0x907AF6C0 PUSH1 0x40 MLOAD DUP2 PUSH4 0xFFFFFFFF AND PUSH1 0xE0 SHL DUP2 MSTORE PUSH1 0x4 ADD PUSH1 0x20 PUSH1 0x40 MLOAD DUP1 DUP4 SUB DUP2 DUP7 DUP1 PUSH2 0xEC5 PUSH2 0x3DB6 JUMP JUMPDEST ISZERO DUP1 ISZERO PUSH2 0xEDA JUMPI PUSH1 0x0 DUP1 PUSH2 0xED7 PUSH2 0x3CF0 JUMP JUMPDEST POP POP JUMPDEST POP GAS PUSH2 0xEE4 PUSH2 0x3FC2 JUMP JUMPDEST POP POP POP POP POP ISZERO DUP1 ISZERO PUSH2 0xF03 JUMPI RETURNDATASIZE PUSH1 0x0 DUP1 RETURNDATACOPY RETURNDATASIZE PUSH1 0x0 PUSH2 0xF00 PUSH2 0x3CF0 JUMP JUMPDEST POP POP JUMPDEST POP POP POP POP PUSH1 0x40 MLOAD RETURNDATASIZE PUSH1 0x20 DUP2 LT ISZERO PUSH2 0xF22 JUMPI PUSH1 0x0 DUP1 PUSH2 0xF1F PUSH2 0x3CF0 JUMP JUMPDEST POP POP JUMPDEST DUP2 ADD SWAP1 DUP1 DUP1 MLOAD DUP5 LT SWAP3 POP PUSH2 0xF73 SWAP2 POP POP JUMPI PUSH1 0x40 MLOAD PUSH3 0x461BCD PUSH1 0xE5 SHL DUP2 MSTORE PUSH1 0x4 ADD DUP1 DUP1 PUSH1 0x20 ADD DUP3 DUP2 SUB DUP3 MSTORE PUSH1 0x21 DUP2 MSTORE PUSH1 0x20 ADD DUP1 PUSH2 0x4111 PUSH1 0x21 SWAP2 CODECOPY PUSH1 0x40 ADD SWAP2 POP POP PUSH1 0x40 MLOAD DUP1 SWAP2 SUB SWAP1 PUSH2 0xF70 PUSH2 0x3CF0 JUMP JUMPDEST POP POP JUMPDEST DUP1 PUSH1 0x0 LT PUSH2 0xFD0 JUMPI PUSH1 0x40 MLOAD PUSH3 0x461BCD PUSH1 0xE5 SHL DUP2 MSTORE PUSH1 0x20 PUSH1 0x4 DUP3 ADD MSTORE PUSH1 0x1A PUSH1 0x24 DUP3 ADD MSTORE PUSH32 0x546F74616C20666565206D757374206265206E6F6E7A65726F2E000000000000 PUSH1 0x44 DUP3 ADD MSTORE PUSH1 0x64 ADD PUSH1 0x40 MLOAD DUP1 SWAP2 SUB SWAP1 PUSH2 0xFCD PUSH2 0x3CF0 JUMP JUMPDEST POP POP JUMPDEST DUP2 DUP1 PUSH1 0xA PUSH2 0xFDC PUSH2 0x3F74 JUMP JUMPDEST POP POP POP PUSH32 0x8C14462ADD32E0AE0FBFCF9E60711ECAE573DA337DC9127FFF98FB7CFB3973B4 DUP3 PUSH1 0x40 MLOAD SWAP1 DUP2 MSTORE PUSH1 0x20 ADD PUSH1 0x40 MLOAD DUP1 SWAP2 SUB SWAP1 LOG1 POP POP JUMP JUMPDEST PUSH2 0x101E PUSH2 0x33B8 JUMP JUMPDEST DUP1 DUP1 PUSH1 0xD PUSH2 0x102A PUSH2 0x3F74 JUMP JUMPDEST POP POP POP PUSH32 0xF378A0FD4AD3FFD9D7D50986F16B04ACD2DC42691C4F412F34E8EEFE883E6652 DUP2 PUSH1 0x40 MLOAD SWAP1 DUP2 MSTORE PUSH1 0x20 ADD PUSH1 0x40 MLOAD DUP1 SWAP2 SUB SWAP1 LOG1 POP JUMP JUMPDEST PUSH2 0x106B PUSH2 0x33B8 JUMP JUMPDEST DUP1 PUSH1 0x1 DUP1 DUP1 PUSH2 0x1078 PUSH2 0x3D5B JUMP JUMPDEST DUP2 PUSH1 0x1 PUSH1 0x1 PUSH1 0xA0 SHL SUB MUL NOT AND SWAP1 DUP4 PUSH1 0x1 PUSH1 0x1 PUSH1 0xA0 SHL SUB AND MUL OR SWAP1 PUSH2 0x109A PUSH2 0x3F74 JUMP JUMPDEST POP POP POP PUSH32 0x906A1C6BD7E3091EA86693DD029A831C19049CE77F1DCE2CE0BAB1CACBABCE22 DUP2 PUSH1 0x40 MLOAD PUSH1 0x1 PUSH1 0x1 PUSH1 0xA0 SHL SUB SWAP1 SWAP2 AND DUP2 MSTORE PUSH1 0x20 ADD PUSH1 0x40 MLOAD DUP1 SWAP2 SUB SWAP1 LOG1 POP JUMP JUMPDEST PUSH2 0x10E5 PUSH2 0x33B8 JUMP JUMPDEST PUSH1 0x0 PUSH1 0x3 PUSH2 0x10F1 PUSH2 0x3D5B JUMP JUMPDEST SWAP1 PUSH2 0x100 EXP SWAP1 DIV PUSH1 0xFF AND ISZERO ISZERO DUP2 ISZERO ISZERO EQ ISZERO PUSH2 0x110B JUMPI PUSH2 0x11B0 JUMP JUMPDEST DUP1 PUSH1 0x3 PUSH1 0x1 DUP2 PUSH2 0x1119 PUSH2 0x3D5B JUMP JUMPDEST DUP2 PUSH1 0xFF MUL NOT AND SWAP1 DUP4 ISZERO ISZERO MUL OR SWAP1 PUSH2 0x112E PUSH2 0x3F74 JUMP JUMPDEST POP POP POP PUSH1 0x3 PUSH1 0x0 SWAP1 PUSH2 0x113E PUSH2 0x3D5B JUMP JUMPDEST SWAP1 PUSH2 0x100 EXP SWAP1 DIV PUSH1 0xFF AND ISZERO PUSH2 0x1165 JUMPI GAS PUSH2 0x1156 PUSH2 0x4005 JUMP JUMPDEST DUP1 PUSH1 0x2 PUSH2 0x1161 PUSH2 0x3F74 JUMP JUMPDEST POP POP POP JUMPDEST PUSH32 0x8FB6C181EE25A520CF3DD6565006EF91229FCFE5A989566C2A3B8C115570CEC5 PUSH1 0x0 PUSH1 0x3 PUSH2 0x1192 PUSH2 0x3D5B JUMP JUMPDEST SWAP1 PUSH2 0x100 EXP SWAP1 DIV PUSH1 0xFF AND PUSH1 0x40 MLOAD SWAP1 ISZERO ISZERO DUP2 MSTORE PUSH1 0x20 ADD PUSH1 0x40 MLOAD DUP1 SWAP2 SUB SWAP1 LOG1 JUMPDEST POP JUMP JUMPDEST PUSH1 0x4 PUSH2 0x11BD PUSH2 0x3D5B JUMP JUMPDEST DUP2 JUMP JUMPDEST PUSH2 0x11C8 PUSH2 0x33B8 JUMP JUMPDEST DUP1 PUSH1 0x17 PUSH1 0x1 DUP2 PUSH2 0x11D6 PUSH2 0x3D5B JUMP JUMPDEST DUP2 PUSH1 0x1 PUSH1 0x1 PUSH1 0xA0 SHL SUB MUL NOT AND SWAP1 DUP4 PUSH1 0x1 PUSH1 0x1 PUSH1 0xA0 SHL SUB AND MUL OR SWAP1 PUSH2 0xE49 PUSH2 0x3F74 JUMP JUMPDEST PUSH2 0x1200 PUSH2 0x33B8 JUMP JUMPDEST PUSH1 0x1 PUSH1 0x1 PUSH1 0xA0 SHL SUB DUP2 AND PUSH2 0x1263 JUMPI PUSH1 0x40 MLOAD PUSH3 0x461BCD PUSH1 0xE5 SHL DUP2 MSTORE PUSH1 0x20 PUSH1 0x4 DUP3 ADD MSTORE PUSH1 0x1C PUSH1 0x24 DUP3 ADD MSTORE PUSH32 0x42656E6566696369617279206D757374206E6F74206265207A65726F00000000 PUSH1 0x44 DUP3 ADD MSTORE PUSH1 0x64 ADD PUSH1 0x40 MLOAD DUP1 SWAP2 SUB SWAP1 PUSH2 0x1260 PUSH2 0x3CF0 JUMP JUMPDEST POP POP JUMPDEST DUP1 PUSH1 0x5 PUSH2 0x100 DUP2 PUSH2 0x1272 PUSH2 0x3D5B JUMP JUMPDEST DUP2 PUSH1 0x1 PUSH1 0x1 PUSH1 0xA0 SHL SUB MUL NOT AND SWAP1 DUP4 PUSH1 0x1 PUSH1 0x1 PUSH1 0xA0 SHL SUB AND MUL OR SWAP1 PUSH2 0x1294 PUSH2 0x3F74 JUMP JUMPDEST POP POP POP PUSH32 0xD5DA63A0B864B315BC04128DEDBC93888C8529EE6CF47CE664DC204339228C53 DUP2 PUSH1 0x40 MLOAD PUSH1 0x1 PUSH1 0x1 PUSH1 0xA0 SHL SUB SWAP1 SWAP2 AND DUP2 MSTORE PUSH1 0x20 ADD PUSH1 0x40 MLOAD DUP1 SWAP2 SUB SWAP1 LOG1 POP JUMP JUMPDEST PUSH2 0x12DF PUSH2 0x33B8 JUMP JUMPDEST PUSH1 0x0 DUP1 PUSH1 0x4 PUSH2 0x12EC PUSH2 0x3F74 JUMP JUMPDEST POP POP POP PUSH1 0x0 PUSH1 0x5 PUSH1 0x0 PUSH2 0x100 EXP DUP2 PUSH2 0x1302 PUSH2 0x3D5B JUMP JUMPDEST DUP2 PUSH1 0xFF MUL NOT AND SWAP1 DUP4 ISZERO ISZERO MUL OR SWAP1 PUSH2 0x1317 PUSH2 0x3F74 JUMP JUMPDEST POP POP POP PUSH32 0x6ADCC7125002935E0AA31697538EBBD65CFDDF20431EB6ECDCFC3E238BFD082C PUSH1 0x40 MLOAD PUSH1 0x40 MLOAD DUP1 SWAP2 SUB SWAP1 LOG1 JUMP JUMPDEST PUSH2 0x1350 PUSH2 0x33B8 JUMP JUMPDEST PUSH20 0x0 PUSH4 0x907AF6C0 PUSH1 0x40 MLOAD DUP2 PUSH4 0xFFFFFFFF AND PUSH1 0xE0 SHL DUP2 MSTORE PUSH1 0x4 ADD PUSH1 0x20 PUSH1 0x40 MLOAD DUP1 DUP4 SUB DUP2 DUP7 DUP1 PUSH2 0x138F PUSH2 0x3DB6 JUMP JUMPDEST ISZERO DUP1 ISZERO PUSH2 0x13A4 JUMPI PUSH1 0x0 DUP1 PUSH2 0x13A1 PUSH2 0x3CF0 JUMP JUMPDEST POP POP JUMPDEST POP GAS PUSH2 0x13AE PUSH2 0x3FC2 JUMP JUMPDEST POP POP POP POP POP ISZERO DUP1 ISZERO PUSH2 0x13CD JUMPI RETURNDATASIZE PUSH1 0x0 DUP1 RETURNDATACOPY RETURNDATASIZE PUSH1 0x0 PUSH2 0x13CA PUSH2 0x3CF0 JUMP JUMPDEST POP POP JUMPDEST POP POP POP POP PUSH1 0x40 MLOAD RETURNDATASIZE PUSH1 0x20 DUP2 LT ISZERO PUSH2 0x13EC JUMPI PUSH1 0x0 DUP1 PUSH2 0x13E9 PUSH2 0x3CF0 JUMP JUMPDEST POP POP JUMPDEST DUP2 ADD SWAP1 DUP1 DUP1 MLOAD DUP5 GT ISZERO SWAP3 POP PUSH2 0x143E SWAP2 POP POP JUMPI PUSH1 0x40 MLOAD PUSH3 0x461BCD PUSH1 0xE5 SHL DUP2 MSTORE PUSH1 0x4 ADD DUP1 DUP1 PUSH1 0x20 ADD DUP3 DUP2 SUB DUP3 MSTORE PUSH1 0x28 DUP2 MSTORE PUSH1 0x20 ADD DUP1 PUSH2 0x422E PUSH1 0x28 SWAP2 CODECOPY PUSH1 0x40 ADD SWAP2 POP POP PUSH1 0x40 MLOAD DUP1 SWAP2 SUB SWAP1 PUSH2 0x143B PUSH2 0x3CF0 JUMP JUMPDEST POP POP JUMPDEST DUP1 DUP1 PUSH1 0xB PUSH2 0x144A PUSH2 0x3F74 JUMP JUMPDEST POP POP POP PUSH32 0x1634AC4E9F09BE1EF87B8D09E14926870261DCB9A0929D2D6460AF6E4C5AD1E DUP2 PUSH1 0x40 MLOAD SWAP1 DUP2 MSTORE PUSH1 0x20 ADD PUSH1 0x40 MLOAD DUP1 SWAP2 SUB SWAP1 LOG1 POP JUMP JUMPDEST PUSH2 0x148B PUSH2 0x33B8 JUMP JUMPDEST PUSH1 0x0 PUSH1 0x11 PUSH2 0x1497 PUSH2 0x3D5B JUMP JUMPDEST SWAP1 PUSH2 0x100 EXP SWAP1 DIV PUSH1 0xFF AND ISZERO ISZERO DUP2 ISZERO ISZERO EQ PUSH2 0x11B0 JUMPI DUP1 PUSH1 0x11 PUSH1 0x1 DUP2 PUSH2 0x14B9 PUSH2 0x3D5B JUMP JUMPDEST DUP2 PUSH1 0xFF MUL NOT AND SWAP1 DUP4 ISZERO ISZERO MUL OR SWAP1 PUSH2 0x14CE PUSH2 0x3F74 JUMP JUMPDEST POP POP POP PUSH32 0xCC590B6309435383B617AAA0CAE6ABA938F2EE471CFB539201DD7655A23CAFF9 DUP2 PUSH1 0x40 MLOAD SWAP1 ISZERO ISZERO DUP2 MSTORE PUSH1 0x20 ADD PUSH1 0x40 MLOAD DUP1 SWAP2 SUB SWAP1 LOG1 POP JUMP JUMPDEST PUSH2 0x1511 PUSH2 0x33B8 JUMP JUMPDEST DUP1 PUSH1 0x6 PUSH1 0x1 DUP2 PUSH2 0x151F PUSH2 0x3D5B JUMP JUMPDEST DUP2 PUSH1 0x1 PUSH1 0x1 PUSH1 0xA0 SHL SUB MUL NOT AND SWAP1 DUP4 PUSH1 0x1 PUSH1 0x1 PUSH1 0xA0 SHL SUB AND MUL OR SWAP1 PUSH2 0x1541 PUSH2 0x3F74 JUMP JUMPDEST POP PUSH1 0x0 SWAP2 POP POP JUMPDEST PUSH1 0x8 DUP1 PUSH2 0x1553 PUSH2 0x3D5B JUMP JUMPDEST SWAP1 POP DUP2 LT ISZERO PUSH2 0x16CF JUMPI PUSH1 0x0 PUSH1 0x8 DUP3 DUP2 PUSH2 0x156A PUSH2 0x3D5B JUMP JUMPDEST DUP2 LT PUSH2 0x1572 JUMPI INVALID JUMPDEST SWAP1 PUSH1 0x0 MSTORE PUSH1 0x20 PUSH1 0x0 KECCAK256 ADD PUSH2 0x1584 PUSH2 0x3D5B JUMP JUMPDEST SWAP1 POP PUSH1 0x0 PUSH1 0x6 PUSH2 0x1592 PUSH2 0x3D5B JUMP JUMPDEST SWAP1 PUSH2 0x100 EXP SWAP1 DIV PUSH1 0x1 PUSH1 0x1 PUSH1 0xA0 SHL SUB AND PUSH1 0x1 PUSH1 0x1 PUSH1 0xA0 SHL SUB AND PUSH4 0xDACB2D01 DUP3 PUSH1 0x40 MLOAD PUSH1 0x1 PUSH1 0x1 PUSH1 0xE0 SHL SUB NOT PUSH1 0xE0 DUP5 SWAP1 SHL AND DUP2 MSTORE PUSH1 0x4 DUP2 ADD SWAP2 SWAP1 SWAP2 MSTORE PUSH1 0x40 PUSH1 0x24 DUP3 ADD DUP2 SWAP1 MSTORE PUSH1 0x17 PUSH1 0x44 DUP4 ADD MSTORE PUSH32 0x5265736F6C766572206D697373696E6720746172676574000000000000000000 PUSH1 0x64 DUP4 ADD MSTORE PUSH1 0x84 SWAP1 SWAP2 ADD SWAP1 PUSH1 0x20 SWAP1 MLOAD DUP1 DUP4 SUB DUP2 DUP7 DUP1 PUSH2 0x161B PUSH2 0x3DB6 JUMP JUMPDEST ISZERO DUP1 ISZERO PUSH2 0x1630 JUMPI PUSH1 0x0 DUP1 PUSH2 0x162D PUSH2 0x3CF0 JUMP JUMPDEST POP POP JUMPDEST POP GAS PUSH2 0x163A PUSH2 0x3E02 JUMP JUMPDEST POP POP POP POP POP ISZERO DUP1 ISZERO PUSH2 0x1659 JUMPI RETURNDATASIZE PUSH1 0x0 DUP1 RETURNDATACOPY RETURNDATASIZE PUSH1 0x0 PUSH2 0x1656 PUSH2 0x3CF0 JUMP JUMPDEST POP POP JUMPDEST POP POP POP POP PUSH1 0x40 MLOAD RETURNDATASIZE PUSH1 0x20 DUP2 LT ISZERO PUSH2 0x1678 JUMPI PUSH1 0x0 DUP1 PUSH2 0x1675 PUSH2 0x3CF0 JUMP JUMPDEST POP POP JUMPDEST DUP2 ADD SWAP1 DUP1 DUP1 MLOAD PUSH1 0x0 DUP6 DUP2 MSTORE PUSH1 0x7 PUSH1 0x20 MSTORE SWAP1 SWAP4 POP PUSH1 0x40 SWAP3 POP SWAP1 POP KECCAK256 PUSH1 0x1 DUP2 PUSH2 0x169D PUSH2 0x3D5B JUMP JUMPDEST DUP2 PUSH1 0x1 PUSH1 0x1 PUSH1 0xA0 SHL SUB MUL NOT AND SWAP1 DUP4 PUSH1 0x1 PUSH1 0x1 PUSH1 0xA0 SHL SUB AND MUL OR SWAP1 PUSH2 0x16BF PUSH2 0x3F74 JUMP JUMPDEST POP POP PUSH1 0x1 SWAP1 SWAP3 ADD SWAP2 POP PUSH2 0x1548 SWAP1 POP JUMP JUMPDEST POP POP JUMP JUMPDEST PUSH1 0xC DUP1 PUSH2 0x16DE PUSH2 0x3D5B JUMP JUMPDEST SWAP1 DUP1 PUSH1 0x1 ADD PUSH2 0x16EB PUSH2 0x3D5B JUMP JUMPDEST SWAP1 DUP1 PUSH1 0x2 ADD PUSH2 0x16F8 PUSH2 0x3D5B JUMP JUMPDEST SWAP1 POP DUP4 JUMP JUMPDEST PUSH1 0x0 PUSH1 0x1 PUSH2 0xE5B PUSH2 0x3D5B JUMP JUMPDEST PUSH2 0x1711 PUSH2 0x33B8 JUMP JUMPDEST PUSH1 0x0 JUMPDEST DUP2 DUP2 LT ISZERO PUSH2 0xE49 JUMPI DUP3 DUP3 DUP3 DUP2 DUP2 LT PUSH2 0x1728 JUMPI INVALID JUMPDEST SWAP1 POP PUSH1 0x20 MUL ADD CALLDATALOAD PUSH1 0x1 PUSH1 0x1 PUSH1 0xA0 SHL SUB AND PUSH1 0x1 PUSH1 0x1 PUSH1 0xA0 SHL SUB AND PUSH4 0x3BE99E6F DUP6 PUSH1 0x40 MLOAD PUSH1 0x1 PUSH1 0x1 PUSH1 0xE0 SHL SUB NOT PUSH1 0xE0 DUP5 SWAP1 SHL AND DUP2 MSTORE PUSH1 0x1 PUSH1 0x1 PUSH1 0xA0 SHL SUB SWAP1 SWAP2 AND PUSH1 0x4 DUP3 ADD MSTORE PUSH1 0x24 ADD PUSH1 0x0 PUSH1 0x40 MLOAD DUP1 DUP4 SUB DUP2 PUSH1 0x0 DUP8 DUP1 PUSH2 0x1783 PUSH2 0x3DB6 JUMP JUMPDEST ISZERO DUP1 ISZERO PUSH2 0x1798 JUMPI PUSH1 0x0 DUP1 PUSH2 0x1795 PUSH2 0x3CF0 JUMP JUMPDEST POP POP JUMPDEST POP GAS PUSH2 0x17A2 PUSH2 0x3EBB JUMP JUMPDEST POP POP POP POP POP POP ISZERO DUP1 ISZERO PUSH2 0x17C2 JUMPI RETURNDATASIZE PUSH1 0x0 DUP1 RETURNDATACOPY RETURNDATASIZE PUSH1 0x0 PUSH2 0x17BF PUSH2 0x3CF0 JUMP JUMPDEST POP POP JUMPDEST POP POP PUSH1 0x1 SWAP1 SWAP3 ADD SWAP2 POP PUSH2 0x1714 SWAP1 POP JUMP JUMPDEST PUSH1 0x0 PUSH1 0x3 PUSH2 0x17DE PUSH2 0x3D5B JUMP JUMPDEST SWAP1 PUSH2 0x100 EXP SWAP1 DIV PUSH1 0xFF AND DUP2 JUMP JUMPDEST PUSH1 0x0 PUSH1 0x1 PUSH1 0x1 PUSH1 0xA0 SHL SUB DUP3 AND DUP2 PUSH1 0x6 PUSH2 0x1802 PUSH2 0x3D5B JUMP JUMPDEST SWAP1 PUSH2 0x100 EXP SWAP1 DIV PUSH1 0x1 PUSH1 0x1 PUSH1 0xA0 SHL SUB AND PUSH1 0x1 PUSH1 0x1 PUSH1 0xA0 SHL SUB AND EQ PUSH2 0x1828 JUMPI POP PUSH1 0x0 PUSH2 0x19C2 JUMP JUMPDEST PUSH1 0x0 JUMPDEST PUSH1 0x8 DUP1 PUSH2 0x1836 PUSH2 0x3D5B JUMP JUMPDEST SWAP1 POP DUP2 LT ISZERO PUSH2 0x19BC JUMPI PUSH1 0x0 PUSH1 0x8 DUP3 DUP2 PUSH2 0x184D PUSH2 0x3D5B JUMP JUMPDEST DUP2 LT PUSH2 0x1855 JUMPI INVALID JUMPDEST SWAP1 PUSH1 0x0 MSTORE PUSH1 0x20 PUSH1 0x0 KECCAK256 ADD PUSH2 0x1867 PUSH2 0x3D5B JUMP JUMPDEST PUSH1 0x0 DUP2 DUP2 MSTORE PUSH1 0x7 PUSH1 0x20 MSTORE SWAP1 SWAP2 POP PUSH1 0x40 SWAP1 KECCAK256 PUSH1 0x0 SWAP1 PUSH2 0x1883 PUSH2 0x3D5B JUMP JUMPDEST PUSH1 0x1 PUSH1 0x1 PUSH1 0xA0 SHL SUB PUSH2 0x100 SWAP3 SWAP1 SWAP3 EXP SWAP1 DIV AND PUSH1 0x0 PUSH1 0x6 PUSH2 0x18A1 PUSH2 0x3D5B JUMP JUMPDEST SWAP1 PUSH2 0x100 EXP SWAP1 DIV PUSH1 0x1 PUSH1 0x1 PUSH1 0xA0 SHL SUB AND PUSH1 0x1 PUSH1 0x1 PUSH1 0xA0 SHL SUB AND PUSH4 0x21F8A721 DUP4 PUSH1 0x40 MLOAD PUSH1 0x1 PUSH1 0x1 PUSH1 0xE0 SHL SUB NOT PUSH1 0xE0 DUP5 SWAP1 SHL AND DUP2 MSTORE PUSH1 0x4 DUP2 ADD SWAP2 SWAP1 SWAP2 MSTORE PUSH1 0x24 ADD PUSH1 0x20 PUSH1 0x40 MLOAD DUP1 DUP4 SUB DUP2 DUP7 DUP1 PUSH2 0x18F2 PUSH2 0x3DB6 JUMP JUMPDEST ISZERO DUP1 ISZERO PUSH2 0x1907 JUMPI PUSH1 0x0 DUP1 PUSH2 0x1904 PUSH2 0x3CF0 JUMP JUMPDEST POP POP JUMPDEST POP GAS PUSH2 0x1911 PUSH2 0x3E02 JUMP JUMPDEST POP POP POP POP POP ISZERO DUP1 ISZERO PUSH2 0x1930 JUMPI RETURNDATASIZE PUSH1 0x0 DUP1 RETURNDATACOPY RETURNDATASIZE PUSH1 0x0 PUSH2 0x192D PUSH2 0x3CF0 JUMP JUMPDEST POP POP JUMPDEST POP POP POP POP PUSH1 0x40 MLOAD RETURNDATASIZE PUSH1 0x20 DUP2 LT ISZERO PUSH2 0x194F JUMPI PUSH1 0x0 DUP1 PUSH2 0x194C PUSH2 0x3CF0 JUMP JUMPDEST POP POP JUMPDEST DUP2 ADD SWAP1 DUP1 DUP1 MLOAD PUSH1 0x1 PUSH1 0x1 PUSH1 0xA0 SHL SUB AND SWAP4 SWAP1 SWAP4 EQ ISZERO SWAP3 POP DUP3 SWAP2 POP PUSH2 0x19A3 SWAP1 POP JUMPI POP PUSH1 0x0 DUP2 DUP2 MSTORE PUSH1 0x7 PUSH1 0x20 MSTORE PUSH1 0x40 DUP2 KECCAK256 PUSH1 0x0 SWAP1 PUSH2 0x1988 PUSH2 0x3D5B JUMP JUMPDEST SWAP1 PUSH2 0x100 EXP SWAP1 DIV PUSH1 0x1 PUSH1 0x1 PUSH1 0xA0 SHL SUB AND PUSH1 0x1 PUSH1 0x1 PUSH1 0xA0 SHL SUB AND EQ JUMPDEST ISZERO PUSH2 0x19B3 JUMPI PUSH1 0x0 SWAP3 POP POP POP PUSH2 0x19C2 JUMP JUMPDEST POP PUSH1 0x1 ADD PUSH2 0x182B JUMP JUMPDEST POP PUSH1 0x1 SWAP1 POP JUMPDEST SWAP2 SWAP1 POP JUMP JUMPDEST PUSH1 0x0 PUSH1 0x11 PUSH2 0x17DE PUSH2 0x3D5B JUMP JUMPDEST PUSH2 0x19DB PUSH2 0x33B8 JUMP JUMPDEST DUP1 DUP1 PUSH1 0xE PUSH2 0x19E7 PUSH2 0x3F74 JUMP JUMPDEST POP POP POP PUSH32 0x6DE18E808FC4E6CB9C8910CF4BDC188DDBBDAB65FAECFF65DAB871720E848489 DUP2 PUSH1 0x40 MLOAD SWAP1 DUP2 MSTORE PUSH1 0x20 ADD PUSH1 0x40 MLOAD DUP1 SWAP2 SUB SWAP1 LOG1 POP JUMP JUMPDEST PUSH2 0x1A31 GAS PUSH2 0x1A2C PUSH2 0x404B JUMP JUMPDEST PUSH2 0x3432 JUMP JUMPDEST PUSH2 0x1A75 JUMPI PUSH1 0x40 MLOAD PUSH3 0x461BCD PUSH1 0xE5 SHL DUP2 MSTORE PUSH1 0x4 ADD DUP1 DUP1 PUSH1 0x20 ADD DUP3 DUP2 SUB DUP3 MSTORE PUSH1 0x21 DUP2 MSTORE PUSH1 0x20 ADD DUP1 PUSH2 0x4154 PUSH1 0x21 SWAP2 CODECOPY PUSH1 0x40 ADD SWAP2 POP POP PUSH1 0x40 MLOAD DUP1 SWAP2 SUB SWAP1 PUSH2 0x1A72 PUSH2 0x3CF0 JUMP JUMPDEST POP POP JUMPDEST PUSH1 0x0 PUSH1 0x3 PUSH2 0x1A81 PUSH2 0x3D5B JUMP JUMPDEST SWAP1 PUSH2 0x100 EXP SWAP1 DIV PUSH1 0xFF AND ISZERO PUSH2 0x1AD0 JUMPI PUSH1 0x40 MLOAD PUSH3 0x461BCD PUSH1 0xE5 SHL DUP2 MSTORE PUSH1 0x4 ADD DUP1 DUP1 PUSH1 0x20 ADD DUP3 DUP2 SUB DUP3 MSTORE PUSH1 0x3C DUP2 MSTORE PUSH1 0x20 ADD DUP1 PUSH2 0x41C9 PUSH1 0x3C SWAP2 CODECOPY PUSH1 0x40 ADD SWAP2 POP POP PUSH1 0x40 MLOAD DUP1 SWAP2 SUB SWAP1 PUSH2 0x1ACD PUSH2 0x3CF0 JUMP JUMPDEST POP POP JUMPDEST PUSH2 0x1AD8 PUSH2 0x36F4 JUMP JUMPDEST PUSH1 0x1 PUSH1 0x1 PUSH1 0xA0 SHL SUB AND PUSH4 0x86DABD1 PUSH1 0x40 MLOAD DUP2 PUSH4 0xFFFFFFFF AND PUSH1 0xE0 SHL DUP2 MSTORE PUSH1 0x4 ADD PUSH1 0x0 PUSH1 0x40 MLOAD DUP1 DUP4 SUB DUP2 DUP7 DUP1 PUSH2 0x1B0B PUSH2 0x3DB6 JUMP JUMPDEST ISZERO DUP1 ISZERO PUSH2 0x1B20 JUMPI PUSH1 0x0 DUP1 PUSH2 0x1B1D PUSH2 0x3CF0 JUMP JUMPDEST POP POP JUMPDEST POP GAS PUSH2 0x1B2A PUSH2 0x3E02 JUMP JUMPDEST POP POP POP POP POP ISZERO DUP1 ISZERO PUSH2 0x1B49 JUMPI RETURNDATASIZE PUSH1 0x0 DUP1 RETURNDATACOPY RETURNDATASIZE PUSH1 0x0 PUSH2 0x1B46 PUSH2 0x3CF0 JUMP JUMPDEST POP POP JUMPDEST POP POP POP POP PUSH2 0x1B5B DUP2 PUSH1 0x12 PUSH2 0xCF9 PUSH2 0x3D5B JUMP JUMPDEST DUP1 PUSH1 0x12 PUSH2 0xE49 PUSH2 0x3F74 JUMP JUMPDEST PUSH2 0x1B6E PUSH2 0x33B8 JUMP JUMPDEST PUSH20 0x0 PUSH4 0x907AF6C0 PUSH1 0x40 MLOAD DUP2 PUSH4 0xFFFFFFFF AND PUSH1 0xE0 SHL DUP2 MSTORE PUSH1 0x4 ADD PUSH1 0x20 PUSH1 0x40 MLOAD DUP1 DUP4 SUB DUP2 DUP7 DUP1 PUSH2 0x1BAD PUSH2 0x3DB6 JUMP JUMPDEST ISZERO DUP1 ISZERO PUSH2 0x1BC2 JUMPI PUSH1 0x0 DUP1 PUSH2 0x1BBF PUSH2 0x3CF0 JUMP JUMPDEST POP POP JUMPDEST POP GAS PUSH2 0x1BCC PUSH2 0x3FC2 JUMP JUMPDEST POP POP POP POP POP ISZERO DUP1 ISZERO PUSH2 0x1BEB JUMPI RETURNDATASIZE PUSH1 0x0 DUP1 RETURNDATACOPY RETURNDATASIZE PUSH1 0x0 PUSH2 0x1BE8 PUSH2 0x3CF0 JUMP JUMPDEST POP POP JUMPDEST POP POP POP POP PUSH1 0x40 MLOAD RETURNDATASIZE PUSH1 0x20 DUP2 LT ISZERO PUSH2 0x1C0A JUMPI PUSH1 0x0 DUP1 PUSH2 0x1C07 PUSH2 0x3CF0 JUMP JUMPDEST POP POP JUMPDEST DUP2 ADD SWAP1 DUP1 DUP1 MLOAD DUP5 GT ISZERO SWAP3 POP PUSH2 0x1C5C SWAP2 POP POP JUMPI PUSH1 0x40 MLOAD PUSH3 0x461BCD PUSH1 0xE5 SHL DUP2 MSTORE PUSH1 0x4 ADD DUP1 DUP1 PUSH1 0x20 ADD DUP3 DUP2 SUB DUP3 MSTORE PUSH1 0x2D DUP2 MSTORE PUSH1 0x20 ADD DUP1 PUSH2 0x40E4 PUSH1 0x2D SWAP2 CODECOPY PUSH1 0x40 ADD SWAP2 POP POP PUSH1 0x40 MLOAD DUP1 SWAP2 SUB SWAP1 PUSH2 0x1C59 PUSH2 0x3CF0 JUMP JUMPDEST POP POP JUMPDEST DUP1 DUP1 PUSH1 0x10 PUSH2 0x1C68 PUSH2 0x3F74 JUMP JUMPDEST POP POP POP PUSH32 0xD39CFBE31B20DBB6D995A675CF5C369555BF8BB908B6EFC03873907FE9E133CF DUP2 PUSH1 0x40 MLOAD SWAP1 DUP2 MSTORE PUSH1 0x20 ADD PUSH1 0x40 MLOAD DUP1 SWAP2 SUB SWAP1 LOG1 POP JUMP JUMPDEST PUSH2 0x1CB2 PUSH1 0x13 DUP3 PUSH4 0xFFFFFFFF PUSH2 0x3747 AND JUMP JUMPDEST PUSH2 0x1D02 JUMPI PUSH1 0x40 MLOAD PUSH3 0x461BCD PUSH1 0xE5 SHL DUP2 MSTORE PUSH1 0x20 PUSH1 0x4 DUP3 ADD MSTORE PUSH1 0x14 PUSH1 0x24 DUP3 ADD MSTORE PUSH20 0x139BDD08185B881858DD1A5D99481B585C9AD95D PUSH1 0x62 SHL PUSH1 0x44 DUP3 ADD MSTORE PUSH1 0x64 ADD PUSH1 0x40 MLOAD DUP1 SWAP2 SUB SWAP1 PUSH2 0x1CFF PUSH2 0x3CF0 JUMP JUMPDEST POP POP JUMPDEST DUP1 PUSH1 0x1 PUSH1 0x1 PUSH1 0xA0 SHL SUB AND PUSH4 0x2810E1D6 PUSH1 0x40 MLOAD DUP2 PUSH4 0xFFFFFFFF AND PUSH1 0xE0 SHL DUP2 MSTORE PUSH1 0x4 ADD PUSH1 0x0 PUSH1 0x40 MLOAD DUP1 DUP4 SUB DUP2 PUSH1 0x0 DUP8 DUP1 PUSH2 0x1D38 PUSH2 0x3DB6 JUMP JUMPDEST ISZERO DUP1 ISZERO PUSH2 0x1D4D JUMPI PUSH1 0x0 DUP1 PUSH2 0x1D4A PUSH2 0x3CF0 JUMP JUMPDEST POP POP JUMPDEST POP GAS PUSH2 0x1D57 PUSH2 0x3EBB JUMP JUMPDEST POP POP POP POP POP POP ISZERO DUP1 ISZERO PUSH2 0x1D77 JUMPI RETURNDATASIZE PUSH1 0x0 DUP1 RETURNDATACOPY RETURNDATASIZE PUSH1 0x0 PUSH2 0x1D74 PUSH2 0x3CF0 JUMP JUMPDEST POP POP JUMPDEST POP POP POP POP PUSH2 0x1D8F DUP2 PUSH1 0x13 PUSH2 0x345C SWAP1 SWAP2 SWAP1 PUSH4 0xFFFFFFFF AND JUMP JUMPDEST PUSH2 0x11B0 PUSH1 0x15 DUP3 PUSH4 0xFFFFFFFF PUSH2 0x37E6 AND JUMP JUMPDEST PUSH1 0x0 PUSH1 0x1 PUSH2 0x1DAC PUSH2 0x3D5B JUMP JUMPDEST SWAP1 PUSH2 0x100 EXP SWAP1 DIV PUSH1 0x1 PUSH1 0x1 PUSH1 0xA0 SHL SUB AND PUSH1 0x1 PUSH1 0x1 PUSH1 0xA0 SHL SUB AND GAS PUSH2 0x1DCE PUSH2 0x404B JUMP JUMPDEST PUSH1 0x1 PUSH1 0x1 PUSH1 0xA0 SHL SUB AND EQ PUSH2 0x1E1C JUMPI PUSH1 0x40 MLOAD PUSH3 0x461BCD PUSH1 0xE5 SHL DUP2 MSTORE PUSH1 0x4 ADD DUP1 DUP1 PUSH1 0x20 ADD DUP3 DUP2 SUB DUP3 MSTORE PUSH1 0x35 DUP2 MSTORE PUSH1 0x20 ADD DUP1 PUSH2 0x40AF PUSH1 0x35 SWAP2 CODECOPY PUSH1 0x40 ADD SWAP2 POP POP PUSH1 0x40 MLOAD DUP1 SWAP2 SUB SWAP1 PUSH2 0x1E19 PUSH2 0x3CF0 JUMP JUMPDEST POP POP JUMPDEST PUSH32 0xB532073B38C83145E3E5135377A08BF9AAB55BC0FD7C1179CD4FB995D2A5159C PUSH1 0x0 DUP1 PUSH2 0x1E48 PUSH2 0x3D5B JUMP JUMPDEST SWAP1 PUSH2 0x100 EXP SWAP1 DIV PUSH1 0x1 PUSH1 0x1 PUSH1 0xA0 SHL SUB AND PUSH1 0x1 PUSH1 0x0 SWAP1 PUSH2 0x1E65 PUSH2 0x3D5B JUMP JUMPDEST SWAP1 PUSH2 0x100 EXP SWAP1 DIV PUSH1 0x1 PUSH1 0x1 PUSH1 0xA0 SHL SUB AND PUSH1 0x40 MLOAD PUSH1 0x1 PUSH1 0x1 PUSH1 0xA0 SHL SUB SWAP3 DUP4 AND DUP2 MSTORE SWAP2 AND PUSH1 0x20 DUP3 ADD MSTORE PUSH1 0x40 SWAP1 DUP2 ADD SWAP1 MLOAD DUP1 SWAP2 SUB SWAP1 LOG1 PUSH1 0x0 PUSH1 0x1 PUSH2 0x1EA4 PUSH2 0x3D5B JUMP JUMPDEST SWAP1 PUSH2 0x100 EXP SWAP1 DIV PUSH1 0x1 PUSH1 0x1 PUSH1 0xA0 SHL SUB AND PUSH1 0x0 DUP1 PUSH2 0x100 EXP DUP2 PUSH2 0x1EC4 PUSH2 0x3D5B JUMP JUMPDEST DUP2 PUSH1 0x1 PUSH1 0x1 PUSH1 0xA0 SHL SUB MUL NOT AND SWAP1 DUP4 PUSH1 0x1 PUSH1 0x1 PUSH1 0xA0 SHL SUB AND MUL OR SWAP1 PUSH2 0x1EE6 PUSH2 0x3F74 JUMP JUMPDEST POP POP POP PUSH1 0x0 PUSH1 0x1 PUSH1 0x0 PUSH2 0x100 EXP DUP2 PUSH2 0x1EFC PUSH2 0x3D5B JUMP JUMPDEST DUP2 PUSH1 0x1 PUSH1 0x1 PUSH1 0xA0 SHL SUB MUL NOT AND SWAP1 DUP4 PUSH1 0x1 PUSH1 0x1 PUSH1 0xA0 SHL SUB AND MUL OR SWAP1 PUSH2 0x1F1E PUSH2 0x3F74 JUMP JUMPDEST POP POP POP JUMP JUMPDEST PUSH1 0x60 PUSH2 0x1F37 PUSH1 0x15 DUP5 DUP5 PUSH4 0xFFFFFFFF PUSH2 0x3879 AND JUMP JUMPDEST SWAP1 POP JUMPDEST SWAP3 SWAP2 POP POP JUMP JUMPDEST PUSH1 0x0 DUP1 PUSH2 0xE5B PUSH2 0x3D5B JUMP JUMPDEST PUSH1 0x2 PUSH2 0x11BD PUSH2 0x3D5B JUMP JUMPDEST PUSH1 0x0 DUP1 PUSH1 0x3 PUSH2 0x1F62 PUSH2 0x3D5B JUMP JUMPDEST SWAP1 PUSH2 0x100 EXP SWAP1 DIV PUSH1 0xFF AND ISZERO PUSH2 0x1FB1 JUMPI PUSH1 0x40 MLOAD PUSH3 0x461BCD PUSH1 0xE5 SHL DUP2 MSTORE PUSH1 0x4 ADD DUP1 DUP1 PUSH1 0x20 ADD DUP3 DUP2 SUB DUP3 MSTORE PUSH1 0x3C DUP2 MSTORE PUSH1 0x20 ADD DUP1 PUSH2 0x41C9 PUSH1 0x3C SWAP2 CODECOPY PUSH1 0x40 ADD SWAP2 POP POP PUSH1 0x40 MLOAD DUP1 SWAP2 SUB SWAP1 PUSH2 0x1FAE PUSH2 0x3CF0 JUMP JUMPDEST POP POP JUMPDEST PUSH2 0x1FB9 PUSH2 0x36F4 JUMP JUMPDEST PUSH1 0x1 PUSH1 0x1 PUSH1 0xA0 SHL SUB AND PUSH4 0x86DABD1 PUSH1 0x40 MLOAD DUP2 PUSH4 0xFFFFFFFF AND PUSH1 0xE0 SHL DUP2 MSTORE PUSH1 0x4 ADD PUSH1 0x0 PUSH1 0x40 MLOAD DUP1 DUP4 SUB DUP2 DUP7 DUP1 PUSH2 0x1FEC PUSH2 0x3DB6 JUMP JUMPDEST ISZERO DUP1 ISZERO PUSH2 0x2001 JUMPI PUSH1 0x0 DUP1 PUSH2 0x1FFE PUSH2 0x3CF0 JUMP JUMPDEST POP POP JUMPDEST POP GAS PUSH2 0x200B PUSH2 0x3E02 JUMP JUMPDEST POP POP POP POP POP ISZERO DUP1 ISZERO PUSH2 0x202A JUMPI RETURNDATASIZE PUSH1 0x0 DUP1 RETURNDATACOPY RETURNDATASIZE PUSH1 0x0 PUSH2 0x2027 PUSH2 0x3CF0 JUMP JUMPDEST POP POP JUMPDEST POP POP POP POP PUSH1 0x11 PUSH1 0x0 SWAP1 PUSH2 0x203B PUSH2 0x3D5B JUMP JUMPDEST SWAP1 PUSH2 0x100 EXP SWAP1 DIV PUSH1 0xFF AND PUSH2 0x209E JUMPI PUSH1 0x40 MLOAD PUSH3 0x461BCD PUSH1 0xE5 SHL DUP2 MSTORE PUSH1 0x20 PUSH1 0x4 DUP3 ADD MSTORE PUSH1 0x1B PUSH1 0x24 DUP3 ADD MSTORE PUSH32 0x4D61726B6574206372656174696F6E2069732064697361626C65640000000000 PUSH1 0x44 DUP3 ADD MSTORE PUSH1 0x64 ADD PUSH1 0x40 MLOAD DUP1 SWAP2 SUB SWAP1 PUSH2 0x209B PUSH2 0x3CF0 JUMP JUMPDEST POP POP JUMPDEST PUSH2 0x20A7 DUP7 PUSH2 0x398A JUMP JUMPDEST PUSH2 0x20EE JUMPI PUSH1 0x40 MLOAD PUSH3 0x461BCD PUSH1 0xE5 SHL DUP2 MSTORE PUSH1 0x20 PUSH1 0x4 DUP3 ADD MSTORE PUSH1 0xB PUSH1 0x24 DUP3 ADD MSTORE PUSH11 0x496E76616C6964206B6579 PUSH1 0xA8 SHL PUSH1 0x44 DUP3 ADD MSTORE PUSH1 0x64 ADD PUSH1 0x40 MLOAD DUP1 SWAP2 SUB SWAP1 PUSH2 0x20EB PUSH2 0x3CF0 JUMP JUMPDEST POP POP JUMPDEST DUP3 CALLDATALOAD PUSH1 0x20 DUP5 ADD CALLDATALOAD PUSH1 0xE PUSH2 0x20FF PUSH2 0x3D5B JUMP JUMPDEST GAS PUSH2 0x2108 PUSH2 0x4005 JUMP JUMPDEST ADD DUP2 GT ISZERO PUSH2 0x2165 JUMPI PUSH1 0x40 MLOAD PUSH3 0x461BCD PUSH1 0xE5 SHL DUP2 MSTORE PUSH1 0x20 PUSH1 0x4 DUP3 ADD MSTORE PUSH1 0x1E PUSH1 0x24 DUP3 ADD MSTORE PUSH32 0x4D6174757269747920746F6F2066617220696E20746865206675747572650000 PUSH1 0x44 DUP3 ADD MSTORE PUSH1 0x64 ADD PUSH1 0x40 MLOAD DUP1 SWAP2 SUB SWAP1 PUSH2 0x2162 PUSH2 0x3CF0 JUMP JUMPDEST POP POP JUMPDEST PUSH1 0x0 PUSH2 0x2181 PUSH1 0xD PUSH2 0x2174 PUSH2 0x3D5B JUMP JUMPDEST DUP4 SWAP1 PUSH4 0xFFFFFFFF PUSH2 0x3627 AND JUMP JUMPDEST SWAP1 POP PUSH1 0x0 PUSH2 0x2194 DUP7 CALLDATALOAD PUSH1 0x20 DUP9 ADD CALLDATALOAD PUSH2 0x3627 JUMP JUMPDEST SWAP1 POP DUP4 GAS PUSH2 0x21A0 PUSH2 0x4005 JUMP JUMPDEST LT PUSH2 0x21FA JUMPI PUSH1 0x40 MLOAD PUSH3 0x461BCD PUSH1 0xE5 SHL DUP2 MSTORE PUSH1 0x20 PUSH1 0x4 DUP3 ADD MSTORE PUSH1 0x19 PUSH1 0x24 DUP3 ADD MSTORE PUSH32 0x456E64206F662062696464696E67206861732070617373656400000000000000 PUSH1 0x44 DUP3 ADD MSTORE PUSH1 0x64 ADD PUSH1 0x40 MLOAD DUP1 SWAP2 SUB SWAP1 PUSH2 0x21F7 PUSH2 0x3CF0 JUMP JUMPDEST POP POP JUMPDEST DUP3 DUP5 LT PUSH2 0x2256 JUMPI PUSH1 0x40 MLOAD PUSH3 0x461BCD PUSH1 0xE5 SHL DUP2 MSTORE PUSH1 0x20 PUSH1 0x4 DUP3 ADD DUP2 SWAP1 MSTORE PUSH1 0x24 DUP3 ADD MSTORE PUSH32 0x4D6174757269747920707265646174657320656E64206F662062696464696E67 PUSH1 0x44 DUP3 ADD MSTORE PUSH1 0x64 ADD PUSH1 0x40 MLOAD DUP1 SWAP2 SUB SWAP1 PUSH2 0x2253 PUSH2 0x3CF0 JUMP JUMPDEST POP POP JUMPDEST PUSH1 0x0 PUSH2 0x2260 PUSH2 0x3B57 JUMP JUMPDEST PUSH1 0x1 PUSH1 0x1 PUSH1 0xA0 SHL SUB AND PUSH4 0x130EFA50 GAS PUSH2 0x2277 PUSH2 0x404B JUMP JUMPDEST PUSH1 0x40 MLOAD PUSH1 0x40 DUP1 DUP3 ADD SWAP1 MSTORE DUP1 PUSH1 0xF PUSH2 0x228C PUSH2 0x3D5B JUMP JUMPDEST DUP2 MSTORE PUSH1 0x20 ADD PUSH1 0x10 PUSH2 0x229B PUSH2 0x3D5B JUMP JUMPDEST SWAP1 MSTORE DUP15 DUP15 DUP15 PUSH1 0x40 MLOAD DUP1 PUSH1 0x60 ADD PUSH1 0x40 MSTORE DUP1 DUP14 DUP2 MSTORE PUSH1 0x20 ADD DUP13 DUP2 MSTORE PUSH1 0x20 ADD DUP12 DUP2 MSTORE POP DUP15 PUSH1 0x40 MLOAD PUSH1 0x60 DUP2 ADD PUSH1 0x40 MSTORE DUP1 PUSH1 0x9 PUSH2 0x22D1 PUSH2 0x3D5B JUMP JUMPDEST DUP2 MSTORE PUSH1 0x20 ADD PUSH1 0xA PUSH2 0x22E0 PUSH2 0x3D5B JUMP JUMPDEST DUP2 MSTORE PUSH1 0x20 ADD PUSH1 0xB PUSH2 0x22EF PUSH2 0x3D5B JUMP JUMPDEST SWAP1 MSTORE PUSH1 0x40 MLOAD PUSH1 0x1 PUSH1 0x1 PUSH1 0xE0 SHL SUB NOT PUSH1 0xE0 DUP12 SWAP1 SHL AND DUP2 MSTORE PUSH1 0x1 PUSH1 0x1 PUSH1 0xA0 SHL SUB DUP10 AND PUSH1 0x4 DUP3 ADD SWAP1 DUP2 MSTORE SWAP1 PUSH1 0x24 ADD DUP9 PUSH1 0x40 DUP1 DUP4 DUP4 PUSH1 0x0 JUMPDEST DUP4 DUP2 LT ISZERO PUSH2 0x233B JUMPI DUP1 DUP3 ADD MLOAD DUP4 DUP3 ADD MSTORE PUSH1 0x20 ADD PUSH2 0x2323 JUMP JUMPDEST POP POP POP POP SWAP1 POP ADD DUP8 DUP2 MSTORE PUSH1 0x20 ADD DUP7 DUP2 MSTORE PUSH1 0x20 ADD DUP6 ISZERO ISZERO ISZERO ISZERO DUP2 MSTORE PUSH1 0x20 ADD DUP5 PUSH1 0x3 PUSH1 0x20 MUL DUP1 DUP4 DUP4 PUSH1 0x0 JUMPDEST DUP4 DUP2 LT ISZERO PUSH2 0x237C JUMPI DUP1 DUP3 ADD MLOAD DUP4 DUP3 ADD MSTORE PUSH1 0x20 ADD PUSH2 0x2364 JUMP JUMPDEST POP POP POP POP SWAP1 POP ADD DUP4 PUSH1 0x2 PUSH1 0x20 MUL DUP1 DUP3 DUP5 CALLDATACOPY PUSH1 0x0 DUP2 DUP5 ADD MSTORE PUSH1 0x1F NOT PUSH1 0x1F DUP3 ADD AND SWAP1 POP DUP1 DUP4 ADD SWAP3 POP POP POP DUP3 PUSH1 0x3 PUSH1 0x20 MUL DUP1 DUP4 DUP4 PUSH1 0x0 JUMPDEST DUP4 DUP2 LT ISZERO PUSH2 0x23C8 JUMPI DUP1 DUP3 ADD MLOAD DUP4 DUP3 ADD MSTORE PUSH1 0x20 ADD PUSH2 0x23B0 JUMP JUMPDEST POP POP POP POP SWAP1 POP ADD SWAP9 POP POP POP POP POP POP POP POP POP PUSH1 0x20 PUSH1 0x40 MLOAD DUP1 DUP4 SUB DUP2 PUSH1 0x0 DUP8 DUP1 PUSH2 0x23EE PUSH2 0x3DB6 JUMP JUMPDEST ISZERO DUP1 ISZERO PUSH2 0x2403 JUMPI PUSH1 0x0 DUP1 PUSH2 0x2400 PUSH2 0x3CF0 JUMP JUMPDEST POP POP JUMPDEST POP GAS PUSH2 0x240D PUSH2 0x3EBB JUMP JUMPDEST POP POP POP POP POP POP ISZERO DUP1 ISZERO PUSH2 0x242D JUMPI RETURNDATASIZE PUSH1 0x0 DUP1 RETURNDATACOPY RETURNDATASIZE PUSH1 0x0 PUSH2 0x242A PUSH2 0x3CF0 JUMP JUMPDEST POP POP JUMPDEST POP POP POP POP PUSH1 0x40 MLOAD RETURNDATASIZE PUSH1 0x20 DUP2 LT ISZERO PUSH2 0x244C JUMPI PUSH1 0x0 DUP1 PUSH2 0x2449 PUSH2 0x3CF0 JUMP JUMPDEST POP POP JUMPDEST DUP2 ADD SWAP1 DUP1 DUP1 MLOAD SWAP4 POP POP PUSH1 0x1 PUSH1 0x1 PUSH1 0xA0 SHL SUB DUP4 AND SWAP2 POP PUSH4 0x3BE99E6F SWAP1 POP PUSH1 0x0 PUSH1 0x6 PUSH2 0x2474 PUSH2 0x3D5B JUMP JUMPDEST SWAP1 PUSH2 0x100 EXP SWAP1 DIV PUSH1 0x1 PUSH1 0x1 PUSH1 0xA0 SHL SUB AND PUSH1 0x40 MLOAD PUSH1 0x1 PUSH1 0x1 PUSH1 0xE0 SHL SUB NOT PUSH1 0xE0 DUP5 SWAP1 SHL AND DUP2 MSTORE PUSH1 0x1 PUSH1 0x1 PUSH1 0xA0 SHL SUB SWAP1 SWAP2 AND PUSH1 0x4 DUP3 ADD MSTORE PUSH1 0x24 ADD PUSH1 0x0 PUSH1 0x40 MLOAD DUP1 DUP4 SUB DUP2 PUSH1 0x0 DUP8 DUP1 PUSH2 0x24C0 PUSH2 0x3DB6 JUMP JUMPDEST ISZERO DUP1 ISZERO PUSH2 0x24D5 JUMPI PUSH1 0x0 DUP1 PUSH2 0x24D2 PUSH2 0x3CF0 JUMP JUMPDEST POP POP JUMPDEST POP GAS PUSH2 0x24DF PUSH2 0x3EBB JUMP JUMPDEST POP POP POP POP POP POP ISZERO DUP1 ISZERO PUSH2 0x24FF JUMPI RETURNDATASIZE PUSH1 0x0 DUP1 RETURNDATACOPY RETURNDATASIZE PUSH1 0x0 PUSH2 0x24FC PUSH2 0x3CF0 JUMP JUMPDEST POP POP JUMPDEST POP POP POP POP PUSH2 0x2517 DUP2 PUSH1 0x13 PUSH2 0x37E6 SWAP1 SWAP2 SWAP1 PUSH4 0xFFFFFFFF AND JUMP JUMPDEST PUSH2 0x2531 DUP3 PUSH1 0x12 PUSH2 0x2525 PUSH2 0x3D5B JUMP JUMPDEST SWAP1 PUSH4 0xFFFFFFFF PUSH2 0x3627 AND JUMP JUMPDEST DUP1 PUSH1 0x12 PUSH2 0x253C PUSH2 0x3F74 JUMP JUMPDEST POP POP POP PUSH2 0x2547 PUSH2 0x3B99 JUMP JUMPDEST PUSH1 0x1 PUSH1 0x1 PUSH1 0xA0 SHL SUB AND PUSH4 0x23B872DD GAS PUSH2 0x255E PUSH2 0x404B JUMP JUMPDEST DUP4 DUP6 PUSH1 0x40 MLOAD PUSH1 0x1 PUSH1 0x1 PUSH1 0xE0 SHL SUB NOT PUSH1 0xE0 DUP7 SWAP1 SHL AND DUP2 MSTORE PUSH1 0x1 PUSH1 0x1 PUSH1 0xA0 SHL SUB SWAP4 DUP5 AND PUSH1 0x4 DUP3 ADD MSTORE SWAP2 SWAP1 SWAP3 AND PUSH1 0x24 DUP3 ADD MSTORE PUSH1 0x44 DUP2 ADD SWAP2 SWAP1 SWAP2 MSTORE PUSH1 0x64 ADD PUSH1 0x20 PUSH1 0x40 MLOAD DUP1 DUP4 SUB DUP2 PUSH1 0x0 DUP8 DUP1 PUSH2 0x25AD PUSH2 0x3DB6 JUMP JUMPDEST ISZERO DUP1 ISZERO PUSH2 0x25C2 JUMPI PUSH1 0x0 DUP1 PUSH2 0x25BF PUSH2 0x3CF0 JUMP JUMPDEST POP POP JUMPDEST POP GAS PUSH2 0x25CC PUSH2 0x3EBB JUMP JUMPDEST POP POP POP POP POP POP ISZERO DUP1 ISZERO PUSH2 0x25EC JUMPI RETURNDATASIZE PUSH1 0x0 DUP1 RETURNDATACOPY RETURNDATASIZE PUSH1 0x0 PUSH2 0x25E9 PUSH2 0x3CF0 JUMP JUMPDEST POP POP JUMPDEST POP POP POP POP PUSH1 0x40 MLOAD RETURNDATASIZE PUSH1 0x20 DUP2 LT ISZERO PUSH2 0x260B JUMPI PUSH1 0x0 DUP1 PUSH2 0x2608 PUSH2 0x3CF0 JUMP JUMPDEST POP POP JUMPDEST DUP2 ADD SWAP1 DUP1 DUP1 MLOAD POP DUP14 SWAP3 POP POP POP GAS PUSH2 0x2620 PUSH2 0x404B JUMP JUMPDEST PUSH1 0x1 PUSH1 0x1 PUSH1 0xA0 SHL SUB AND PUSH32 0xBCD154709BBE69680012CADCD07D57BD4A0EC64A033C2A3E31D2D0FADB38D3A8 DUP4 DUP14 DUP10 DUP10 DUP10 PUSH1 0x40 MLOAD PUSH1 0x1 PUSH1 0x1 PUSH1 0xA0 SHL SUB SWAP1 SWAP6 AND DUP6 MSTORE PUSH1 0x20 DUP6 ADD SWAP4 SWAP1 SWAP4 MSTORE PUSH1 0x40 DUP1 DUP6 ADD SWAP3 SWAP1 SWAP3 MSTORE PUSH1 0x60 DUP5 ADD MSTORE PUSH1 0x80 DUP4 ADD SWAP2 SWAP1 SWAP2 MSTORE PUSH1 0xA0 SWAP1 SWAP2 ADD SWAP1 MLOAD DUP1 SWAP2 SUB SWAP1 LOG3 SWAP11 SWAP10 POP POP POP POP POP POP POP POP POP POP JUMP JUMPDEST PUSH2 0x269F PUSH2 0x33B8 JUMP JUMPDEST PUSH1 0x0 PUSH1 0xA PUSH2 0x26AB PUSH2 0x3D5B JUMP JUMPDEST DUP3 ADD SWAP1 POP PUSH20 0x0 PUSH4 0x907AF6C0 PUSH1 0x40 MLOAD DUP2 PUSH4 0xFFFFFFFF AND PUSH1 0xE0 SHL DUP2 MSTORE PUSH1 0x4 ADD PUSH1 0x20 PUSH1 0x40 MLOAD DUP1 DUP4 SUB DUP2 DUP7 DUP1 PUSH2 0x26EE PUSH2 0x3DB6 JUMP JUMPDEST ISZERO DUP1 ISZERO PUSH2 0x2703 JUMPI PUSH1 0x0 DUP1 PUSH2 0x2700 PUSH2 0x3CF0 JUMP JUMPDEST POP POP JUMPDEST POP GAS PUSH2 0x270D PUSH2 0x3FC2 JUMP JUMPDEST POP POP POP POP POP ISZERO DUP1 ISZERO PUSH2 0x272C JUMPI RETURNDATASIZE PUSH1 0x0 DUP1 RETURNDATACOPY RETURNDATASIZE PUSH1 0x0 PUSH2 0x2729 PUSH2 0x3CF0 JUMP JUMPDEST POP POP JUMPDEST POP POP POP POP PUSH1 0x40 MLOAD RETURNDATASIZE PUSH1 0x20 DUP2 LT ISZERO PUSH2 0x274B JUMPI PUSH1 0x0 DUP1 PUSH2 0x2748 PUSH2 0x3CF0 JUMP JUMPDEST POP POP JUMPDEST DUP2 ADD SWAP1 DUP1 DUP1 MLOAD DUP5 LT SWAP3 POP PUSH2 0x279C SWAP2 POP POP JUMPI PUSH1 0x40 MLOAD PUSH3 0x461BCD PUSH1 0xE5 SHL DUP2 MSTORE PUSH1 0x4 ADD DUP1 DUP1 PUSH1 0x20 ADD DUP3 DUP2 SUB DUP3 MSTORE PUSH1 0x21 DUP2 MSTORE PUSH1 0x20 ADD DUP1 PUSH2 0x4111 PUSH1 0x21 SWAP2 CODECOPY PUSH1 0x40 ADD SWAP2 POP POP PUSH1 0x40 MLOAD DUP1 SWAP2 SUB SWAP1 PUSH2 0x2799 PUSH2 0x3CF0 JUMP JUMPDEST POP POP JUMPDEST DUP1 PUSH1 0x0 LT PUSH2 0x27F9 JUMPI PUSH1 0x40 MLOAD PUSH3 0x461BCD PUSH1 0xE5 SHL DUP2 MSTORE PUSH1 0x20 PUSH1 0x4 DUP3 ADD MSTORE PUSH1 0x1A PUSH1 0x24 DUP3 ADD MSTORE PUSH32 0x546F74616C20666565206D757374206265206E6F6E7A65726F2E000000000000 PUSH1 0x44 DUP3 ADD MSTORE PUSH1 0x64 ADD PUSH1 0x40 MLOAD DUP1 SWAP2 SUB SWAP1 PUSH2 0x27F6 PUSH2 0x3CF0 JUMP JUMPDEST POP POP JUMPDEST DUP2 DUP1 PUSH1 0x9 PUSH2 0x2805 PUSH2 0x3F74 JUMP JUMPDEST POP POP POP PUSH32 0x7B30E8F8E3DE254785FBCB3068449DC18060F1FDB37B02731ECADA99A78492C3 DUP3 PUSH1 0x40 MLOAD SWAP1 DUP2 MSTORE PUSH1 0x20 ADD PUSH1 0x40 MLOAD DUP1 SWAP2 SUB SWAP1 LOG1 POP POP JUMP JUMPDEST PUSH1 0x9 DUP1 PUSH2 0x16DE PUSH2 0x3D5B JUMP JUMPDEST PUSH2 0x2852 PUSH2 0x33B8 JUMP JUMPDEST PUSH1 0x0 PUSH1 0x5 PUSH2 0x285E PUSH2 0x3D5B JUMP JUMPDEST SWAP1 PUSH2 0x100 EXP SWAP1 DIV PUSH1 0xFF AND PUSH2 0x28C1 JUMPI PUSH1 0x40 MLOAD PUSH3 0x461BCD PUSH1 0xE5 SHL DUP2 MSTORE PUSH1 0x20 PUSH1 0x4 DUP3 ADD MSTORE PUSH1 0x1F PUSH1 0x24 DUP3 ADD MSTORE PUSH32 0x53656C66204465737472756374206E6F742079657420696E6974696174656400 PUSH1 0x44 DUP3 ADD MSTORE PUSH1 0x64 ADD PUSH1 0x40 MLOAD DUP1 SWAP2 SUB SWAP1 PUSH2 0x28BE PUSH2 0x3CF0 JUMP JUMPDEST POP POP JUMPDEST GAS PUSH2 0x28CA PUSH2 0x4005 JUMP JUMPDEST PUSH3 0x24EA00 PUSH1 0x4 PUSH2 0x28D8 PUSH2 0x3D5B JUMP JUMPDEST ADD LT PUSH2 0x2933 JUMPI PUSH1 0x40 MLOAD PUSH3 0x461BCD PUSH1 0xE5 SHL DUP2 MSTORE PUSH1 0x20 PUSH1 0x4 DUP3 ADD MSTORE PUSH1 0x1B PUSH1 0x24 DUP3 ADD MSTORE PUSH32 0x53656C662064657374727563742064656C6179206E6F74206D65740000000000 PUSH1 0x44 DUP3 ADD MSTORE PUSH1 0x64 ADD PUSH1 0x40 MLOAD DUP1 SWAP2 SUB SWAP1 PUSH2 0x2930 PUSH2 0x3CF0 JUMP JUMPDEST POP POP JUMPDEST PUSH32 0x8A09E1677CED846CB537DC2B172043BD05A1A81AD7E0033A7EF8BA762DF990B7 PUSH1 0x1 PUSH1 0x5 PUSH2 0x2960 PUSH2 0x3D5B JUMP JUMPDEST SWAP1 PUSH2 0x100 EXP SWAP1 DIV PUSH1 0x1 PUSH1 0x1 PUSH1 0xA0 SHL SUB AND PUSH1 0x40 MLOAD PUSH1 0x1 PUSH1 0x1 PUSH1 0xA0 SHL SUB SWAP1 SWAP2 AND DUP2 MSTORE PUSH1 0x20 ADD PUSH1 0x40 MLOAD DUP1 SWAP2 SUB SWAP1 LOG1 JUMP JUMPDEST PUSH3 0x24EA00 DUP2 JUMP JUMPDEST PUSH2 0x299C PUSH2 0x4091 JUMP JUMPDEST PUSH1 0x0 JUMPDEST PUSH1 0x8 DUP1 PUSH2 0x29AA PUSH2 0x3D5B JUMP JUMPDEST SWAP1 POP DUP2 LT ISZERO PUSH2 0x29F2 JUMPI PUSH1 0x8 DUP2 DUP2 PUSH2 0x29BF PUSH2 0x3D5B JUMP JUMPDEST DUP2 LT PUSH2 0x29C7 JUMPI INVALID JUMPDEST SWAP1 PUSH1 0x0 MSTORE PUSH1 0x20 PUSH1 0x0 KECCAK256 ADD PUSH2 0x29D9 PUSH2 0x3D5B JUMP JUMPDEST DUP3 DUP3 PUSH1 0x18 DUP2 LT PUSH2 0x29E5 JUMPI INVALID JUMPDEST PUSH1 0x20 MUL ADD MSTORE PUSH1 0x1 ADD PUSH2 0x299F JUMP JUMPDEST POP SWAP1 JUMP JUMPDEST PUSH1 0x0 PUSH1 0x15 DUP1 PUSH2 0xAE4 PUSH2 0x3D5B JUMP JUMPDEST PUSH1 0x0 PUSH1 0x17 PUSH2 0x2A0F PUSH2 0x3D5B JUMP JUMPDEST SWAP1 PUSH2 0x100 EXP SWAP1 DIV PUSH1 0x1 PUSH1 0x1 PUSH1 0xA0 SHL SUB AND PUSH1 0x1 PUSH1 0x1 PUSH1 0xA0 SHL SUB AND GAS PUSH2 0x2A31 PUSH2 0x404B JUMP JUMPDEST PUSH1 0x1 PUSH1 0x1 PUSH1 0xA0 SHL SUB AND EQ PUSH2 0x2A7F JUMPI PUSH1 0x40 MLOAD PUSH3 0x461BCD PUSH1 0xE5 SHL DUP2 MSTORE PUSH1 0x4 ADD DUP1 DUP1 PUSH1 0x20 ADD DUP3 DUP2 SUB DUP3 MSTORE PUSH1 0x25 DUP2 MSTORE PUSH1 0x20 ADD DUP1 PUSH2 0x41A4 PUSH1 0x25 SWAP2 CODECOPY PUSH1 0x40 ADD SWAP2 POP POP PUSH1 0x40 MLOAD DUP1 SWAP2 SUB SWAP1 PUSH2 0x2A7C PUSH2 0x3CF0 JUMP JUMPDEST POP POP JUMPDEST DUP1 DUP1 PUSH2 0x2A8B JUMPI POP PUSH2 0x1F1E JUMP JUMPDEST PUSH1 0x0 DUP5 PUSH2 0x2A99 JUMPI PUSH1 0x15 PUSH2 0x2A9C JUMP JUMPDEST PUSH1 0x13 JUMPDEST SWAP1 POP PUSH1 0x0 DUP1 JUMPDEST DUP4 DUP2 LT ISZERO PUSH2 0x2BF3 JUMPI PUSH1 0x0 DUP7 DUP7 DUP4 DUP2 DUP2 LT PUSH2 0x2AB8 JUMPI INVALID JUMPDEST SWAP1 POP PUSH1 0x20 MUL ADD CALLDATALOAD PUSH1 0x1 PUSH1 0x1 PUSH1 0xA0 SHL SUB AND SWAP1 POP PUSH2 0x2AD3 DUP2 PUSH2 0x3432 JUMP JUMPDEST ISZERO PUSH2 0x2B25 JUMPI PUSH1 0x40 MLOAD PUSH3 0x461BCD PUSH1 0xE5 SHL DUP2 MSTORE PUSH1 0x20 PUSH1 0x4 DUP3 ADD MSTORE PUSH1 0x15 PUSH1 0x24 DUP3 ADD MSTORE PUSH21 0x26B0B935B2BA1030B63932B0B23C9035B737BBB717 PUSH1 0x59 SHL PUSH1 0x44 DUP3 ADD MSTORE PUSH1 0x64 ADD PUSH1 0x40 MLOAD DUP1 SWAP2 SUB SWAP1 PUSH2 0x2B22 PUSH2 0x3CF0 JUMP JUMPDEST POP POP JUMPDEST DUP1 PUSH1 0x1 PUSH1 0x1 PUSH1 0xA0 SHL SUB AND PUSH4 0x79BA5097 PUSH1 0x40 MLOAD DUP2 PUSH4 0xFFFFFFFF AND PUSH1 0xE0 SHL DUP2 MSTORE PUSH1 0x4 ADD PUSH1 0x0 PUSH1 0x40 MLOAD DUP1 DUP4 SUB DUP2 PUSH1 0x0 DUP8 DUP1 PUSH2 0x2B5B PUSH2 0x3DB6 JUMP JUMPDEST ISZERO DUP1 ISZERO PUSH2 0x2B70 JUMPI PUSH1 0x0 DUP1 PUSH2 0x2B6D PUSH2 0x3CF0 JUMP JUMPDEST POP POP JUMPDEST POP GAS PUSH2 0x2B7A PUSH2 0x3EBB JUMP JUMPDEST POP POP POP POP POP POP ISZERO DUP1 ISZERO PUSH2 0x2B9A JUMPI RETURNDATASIZE PUSH1 0x0 DUP1 RETURNDATACOPY RETURNDATASIZE PUSH1 0x0 PUSH2 0x2B97 PUSH2 0x3CF0 JUMP JUMPDEST POP POP JUMPDEST POP POP POP POP PUSH2 0x2BB1 DUP2 DUP6 PUSH2 0x37E6 SWAP1 SWAP2 SWAP1 PUSH4 0xFFFFFFFF AND JUMP JUMPDEST PUSH2 0x2BE8 DUP2 PUSH1 0x1 PUSH1 0x1 PUSH1 0xA0 SHL SUB AND PUSH4 0xEEF49EE3 PUSH1 0x40 MLOAD DUP2 PUSH4 0xFFFFFFFF AND PUSH1 0xE0 SHL DUP2 MSTORE PUSH1 0x4 ADD PUSH1 0x20 PUSH1 0x40 MLOAD DUP1 DUP4 SUB DUP2 DUP7 DUP1 PUSH2 0xBD8 PUSH2 0x3DB6 JUMP JUMPDEST SWAP3 POP POP PUSH1 0x1 ADD PUSH2 0x2AA2 JUMP JUMPDEST POP PUSH2 0x2C02 DUP2 PUSH1 0x12 PUSH2 0x2525 PUSH2 0x3D5B JUMP JUMPDEST DUP1 PUSH1 0x12 PUSH2 0x2C0D PUSH2 0x3F74 JUMP JUMPDEST POP POP POP PUSH32 0xEA7A4E14E72BA7DB7E2FD406278900BADF50B2CE7D9DEF39D613CC08054C537B PUSH1 0x17 PUSH1 0x0 SWAP1 PUSH2 0x2C3E PUSH2 0x3D5B JUMP JUMPDEST SWAP1 PUSH2 0x100 EXP SWAP1 DIV PUSH1 0x1 PUSH1 0x1 PUSH1 0xA0 SHL SUB AND DUP7 DUP7 PUSH1 0x40 MLOAD PUSH1 0x1 PUSH1 0x1 PUSH1 0xA0 SHL SUB DUP5 AND DUP2 MSTORE PUSH1 0x40 PUSH1 0x20 DUP1 DUP4 ADD DUP3 DUP2 MSTORE SWAP2 DUP4 ADD DUP5 SWAP1 MSTORE PUSH1 0x60 DUP4 ADD SWAP1 DUP6 SWAP1 DUP6 MUL DUP1 DUP3 DUP5 CALLDATACOPY PUSH1 0x0 DUP4 DUP3 ADD MSTORE PUSH1 0x1F ADD PUSH1 0x1F NOT AND SWAP1 SWAP2 ADD SWAP6 POP PUSH1 0x40 SWAP5 POP POP POP POP POP MLOAD DUP1 SWAP2 SUB SWAP1 LOG1 POP POP POP POP POP POP JUMP JUMPDEST PUSH2 0x2CBE GAS PUSH2 0x2CB0 PUSH2 0x404B JUMP JUMPDEST PUSH1 0x13 SWAP1 PUSH4 0xFFFFFFFF PUSH2 0x3747 AND JUMP JUMPDEST PUSH2 0x2D02 JUMPI PUSH1 0x40 MLOAD PUSH3 0x461BCD PUSH1 0xE5 SHL DUP2 MSTORE PUSH1 0x4 ADD DUP1 DUP1 PUSH1 0x20 ADD DUP3 DUP2 SUB DUP3 MSTORE PUSH1 0x22 DUP2 MSTORE PUSH1 0x20 ADD DUP1 PUSH2 0x4132 PUSH1 0x22 SWAP2 CODECOPY PUSH1 0x40 ADD SWAP2 POP POP PUSH1 0x40 MLOAD DUP1 SWAP2 SUB SWAP1 PUSH2 0x2CFF PUSH2 0x3CF0 JUMP JUMPDEST POP POP JUMPDEST PUSH1 0x0 PUSH1 0x3 PUSH2 0x2D0E PUSH2 0x3D5B JUMP JUMPDEST SWAP1 PUSH2 0x100 EXP SWAP1 DIV PUSH1 0xFF AND ISZERO PUSH2 0x2D5D JUMPI PUSH1 0x40 MLOAD PUSH3 0x461BCD PUSH1 0xE5 SHL DUP2 MSTORE PUSH1 0x4 ADD DUP1 DUP1 PUSH1 0x20 ADD DUP3 DUP2 SUB DUP3 MSTORE PUSH1 0x3C DUP2 MSTORE PUSH1 0x20 ADD DUP1 PUSH2 0x41C9 PUSH1 0x3C SWAP2 CODECOPY PUSH1 0x40 ADD SWAP2 POP POP PUSH1 0x40 MLOAD DUP1 SWAP2 SUB SWAP1 PUSH2 0x2D5A PUSH2 0x3CF0 JUMP JUMPDEST POP POP JUMPDEST PUSH2 0x2D65 PUSH2 0x36F4 JUMP JUMPDEST PUSH1 0x1 PUSH1 0x1 PUSH1 0xA0 SHL SUB AND PUSH4 0x86DABD1 PUSH1 0x40 MLOAD DUP2 PUSH4 0xFFFFFFFF AND PUSH1 0xE0 SHL DUP2 MSTORE PUSH1 0x4 ADD PUSH1 0x0 PUSH1 0x40 MLOAD DUP1 DUP4 SUB DUP2 DUP7 DUP1 PUSH2 0x2D98 PUSH2 0x3DB6 JUMP JUMPDEST ISZERO DUP1 ISZERO PUSH2 0x2DAD JUMPI PUSH1 0x0 DUP1 PUSH2 0x2DAA PUSH2 0x3CF0 JUMP JUMPDEST POP POP JUMPDEST POP GAS PUSH2 0x2DB7 PUSH2 0x3E02 JUMP JUMPDEST POP POP POP POP POP ISZERO DUP1 ISZERO PUSH2 0x2DD6 JUMPI RETURNDATASIZE PUSH1 0x0 DUP1 RETURNDATACOPY RETURNDATASIZE PUSH1 0x0 PUSH2 0x2DD3 PUSH2 0x3CF0 JUMP JUMPDEST POP POP JUMPDEST POP POP POP POP PUSH2 0x1B5B DUP2 PUSH1 0x12 PUSH2 0x2525 PUSH2 0x3D5B JUMP JUMPDEST PUSH1 0x0 PUSH1 0x5 PUSH2 0x17DE PUSH2 0x3D5B JUMP JUMPDEST PUSH2 0x2DFC PUSH2 0x33B8 JUMP JUMPDEST GAS PUSH2 0x2E05 PUSH2 0x4005 JUMP JUMPDEST DUP1 PUSH1 0x4 PUSH2 0x2E10 PUSH2 0x3F74 JUMP JUMPDEST POP POP POP PUSH1 0x1 PUSH1 0x5 PUSH1 0x0 PUSH2 0x100 EXP DUP2 PUSH2 0x2E26 PUSH2 0x3D5B JUMP JUMPDEST DUP2 PUSH1 0xFF MUL NOT AND SWAP1 DUP4 ISZERO ISZERO MUL OR SWAP1 PUSH2 0x2E3B PUSH2 0x3F74 JUMP JUMPDEST POP POP POP PUSH32 0xCBD94CA75B8DC45C9D80C77E851670E78843C0D75180CB81DB3E2158228FA9A6 PUSH3 0x24EA00 PUSH1 0x40 MLOAD SWAP1 DUP2 MSTORE PUSH1 0x20 ADD PUSH1 0x40 MLOAD DUP1 SWAP2 SUB SWAP1 LOG1 JUMP JUMPDEST PUSH2 0x2E7E PUSH2 0x33B8 JUMP JUMPDEST DUP1 DUP1 PUSH1 0xC PUSH2 0x2E8A PUSH2 0x3F74 JUMP JUMPDEST POP POP POP PUSH32 0x5A2F2EAE84F9E787D8159D363A776FA2B61D084686190CDC5A2C1EA833480B09 DUP2 PUSH1 0x40 MLOAD SWAP1 DUP2 MSTORE PUSH1 0x20 ADD PUSH1 0x40 MLOAD DUP1 SWAP2 SUB SWAP1 LOG1 POP JUMP JUMPDEST PUSH1 0xF DUP1 PUSH2 0x2ECE PUSH2 0x3D5B JUMP JUMPDEST SWAP1 DUP1 PUSH1 0x1 ADD PUSH2 0x2EDB PUSH2 0x3D5B JUMP JUMPDEST SWAP1 POP DUP3 JUMP JUMPDEST PUSH1 0x0 PUSH1 0x3 PUSH2 0x2EEC PUSH2 0x3D5B JUMP JUMPDEST SWAP1 PUSH2 0x100 EXP SWAP1 DIV PUSH1 0xFF AND ISZERO PUSH2 0x2F3B JUMPI PUSH1 0x40 MLOAD PUSH3 0x461BCD PUSH1 0xE5 SHL DUP2 MSTORE PUSH1 0x4 ADD DUP1 DUP1 PUSH1 0x20 ADD DUP3 DUP2 SUB DUP3 MSTORE PUSH1 0x3C DUP2 MSTORE PUSH1 0x20 ADD DUP1 PUSH2 0x41C9 PUSH1 0x3C SWAP2 CODECOPY PUSH1 0x40 ADD SWAP2 POP POP PUSH1 0x40 MLOAD DUP1 SWAP2 SUB SWAP1 PUSH2 0x2F38 PUSH2 0x3CF0 JUMP JUMPDEST POP POP JUMPDEST PUSH1 0x0 JUMPDEST DUP2 DUP2 LT ISZERO PUSH2 0x1F1E JUMPI PUSH1 0x0 DUP4 DUP4 DUP4 DUP2 DUP2 LT PUSH2 0x2F54 JUMPI INVALID JUMPDEST SWAP1 POP PUSH1 0x20 MUL ADD CALLDATALOAD PUSH1 0x1 PUSH1 0x1 PUSH1 0xA0 SHL SUB AND SWAP1 POP DUP1 PUSH1 0x1 PUSH1 0x1 PUSH1 0xA0 SHL SUB AND PUSH4 0xC8DB233E GAS PUSH2 0x2F7E PUSH2 0x404B JUMP JUMPDEST PUSH1 0x40 MLOAD PUSH1 0x1 PUSH1 0x1 PUSH1 0xE0 SHL SUB NOT PUSH1 0xE0 DUP5 SWAP1 SHL AND DUP2 MSTORE PUSH1 0x1 PUSH1 0x1 PUSH1 0xA0 SHL SUB SWAP1 SWAP2 AND PUSH1 0x4 DUP3 ADD MSTORE PUSH1 0x24 ADD PUSH1 0x0 PUSH1 0x40 MLOAD DUP1 DUP4 SUB DUP2 PUSH1 0x0 DUP8 DUP1 PUSH2 0x2FBA PUSH2 0x3DB6 JUMP JUMPDEST ISZERO DUP1 ISZERO PUSH2 0x2FCF JUMPI PUSH1 0x0 DUP1 PUSH2 0x2FCC PUSH2 0x3CF0 JUMP JUMPDEST POP POP JUMPDEST POP GAS PUSH2 0x2FD9 PUSH2 0x3EBB JUMP JUMPDEST POP POP POP POP POP POP ISZERO DUP1 ISZERO PUSH2 0x2FF9 JUMPI RETURNDATASIZE PUSH1 0x0 DUP1 RETURNDATACOPY RETURNDATASIZE PUSH1 0x0 PUSH2 0x2FF6 PUSH2 0x3CF0 JUMP JUMPDEST POP POP JUMPDEST POP POP POP POP PUSH2 0x3011 DUP2 PUSH1 0x15 PUSH2 0x345C SWAP1 SWAP2 SWAP1 PUSH4 0xFFFFFFFF AND JUMP JUMPDEST PUSH32 0x16E62064E42F5AEC62DF22AE895EF539F153E0D4EA290E2CC4E0E8F708F2FBBC DUP2 PUSH1 0x40 MLOAD PUSH1 0x1 PUSH1 0x1 PUSH1 0xA0 SHL SUB SWAP1 SWAP2 AND DUP2 MSTORE PUSH1 0x20 ADD PUSH1 0x40 MLOAD DUP1 SWAP2 SUB SWAP1 LOG1 POP PUSH1 0x1 ADD PUSH2 0x2F3E JUMP JUMPDEST PUSH2 0x305F PUSH2 0x33B8 JUMP JUMPDEST DUP1 DUP1 PUSH1 0xF PUSH2 0x306B PUSH2 0x3F74 JUMP JUMPDEST POP POP POP PUSH32 0xDF7A26AE2E2EB953B81FD76B72FCDC74EBFF7C21FAA8F8F55323183D9785F52D DUP2 PUSH1 0x40 MLOAD SWAP1 DUP2 MSTORE PUSH1 0x20 ADD PUSH1 0x40 MLOAD DUP1 SWAP2 SUB SWAP1 LOG1 POP JUMP JUMPDEST PUSH1 0x1 PUSH1 0x5 PUSH2 0xE5B PUSH2 0x3D5B JUMP JUMPDEST PUSH1 0x8 DUP2 DUP2 PUSH2 0x30BC PUSH2 0x3D5B JUMP JUMPDEST DUP2 LT PUSH2 0x30C4 JUMPI INVALID JUMPDEST SWAP1 PUSH1 0x0 MSTORE PUSH1 0x20 PUSH1 0x0 KECCAK256 ADD SWAP1 POP PUSH2 0x11BD PUSH2 0x3D5B JUMP JUMPDEST PUSH1 0x18 DUP2 JUMP JUMPDEST PUSH1 0x60 PUSH2 0x1F37 PUSH1 0x13 DUP5 DUP5 PUSH4 0xFFFFFFFF PUSH2 0x3879 AND JUMP JUMPDEST PUSH1 0x0 PUSH1 0x3 PUSH2 0x30FD PUSH2 0x3D5B JUMP JUMPDEST SWAP1 PUSH2 0x100 EXP SWAP1 DIV PUSH1 0xFF AND ISZERO PUSH2 0x314C JUMPI PUSH1 0x40 MLOAD PUSH3 0x461BCD PUSH1 0xE5 SHL DUP2 MSTORE PUSH1 0x4 ADD DUP1 DUP1 PUSH1 0x20 ADD DUP3 DUP2 SUB DUP3 MSTORE PUSH1 0x3C DUP2 MSTORE PUSH1 0x20 ADD DUP1 PUSH2 0x41C9 PUSH1 0x3C SWAP2 CODECOPY PUSH1 0x40 ADD SWAP2 POP POP PUSH1 0x40 MLOAD DUP1 SWAP2 SUB SWAP1 PUSH2 0x3149 PUSH2 0x3CF0 JUMP JUMPDEST POP POP JUMPDEST PUSH2 0x315D PUSH1 0x13 DUP3 PUSH4 0xFFFFFFFF PUSH2 0x3747 AND JUMP JUMPDEST PUSH2 0x31AD JUMPI PUSH1 0x40 MLOAD PUSH3 0x461BCD PUSH1 0xE5 SHL DUP2 MSTORE PUSH1 0x20 PUSH1 0x4 DUP3 ADD MSTORE PUSH1 0x14 PUSH1 0x24 DUP3 ADD MSTORE PUSH20 0x139BDD08185B881858DD1A5D99481B585C9AD95D PUSH1 0x62 SHL PUSH1 0x44 DUP3 ADD MSTORE PUSH1 0x64 ADD PUSH1 0x40 MLOAD DUP1 SWAP2 SUB SWAP1 PUSH2 0x31AA PUSH2 0x3CF0 JUMP JUMPDEST POP POP JUMPDEST PUSH1 0x0 DUP2 PUSH1 0x1 PUSH1 0x1 PUSH1 0xA0 SHL SUB AND PUSH4 0x2D05D3F PUSH1 0x40 MLOAD DUP2 PUSH4 0xFFFFFFFF AND PUSH1 0xE0 SHL DUP2 MSTORE PUSH1 0x4 ADD PUSH1 0x20 PUSH1 0x40 MLOAD DUP1 DUP4 SUB DUP2 DUP7 DUP1 PUSH2 0x31E3 PUSH2 0x3DB6 JUMP JUMPDEST ISZERO DUP1 ISZERO PUSH2 0x31F8 JUMPI PUSH1 0x0 DUP1 PUSH2 0x31F5 PUSH2 0x3CF0 JUMP JUMPDEST POP POP JUMPDEST POP GAS PUSH2 0x3202 PUSH2 0x3E02 JUMP JUMPDEST POP POP POP POP POP ISZERO DUP1 ISZERO PUSH2 0x3221 JUMPI RETURNDATASIZE PUSH1 0x0 DUP1 RETURNDATACOPY RETURNDATASIZE PUSH1 0x0 PUSH2 0x321E PUSH2 0x3CF0 JUMP JUMPDEST POP POP JUMPDEST POP POP POP POP PUSH1 0x40 MLOAD RETURNDATASIZE PUSH1 0x20 DUP2 LT ISZERO PUSH2 0x3240 JUMPI PUSH1 0x0 DUP1 PUSH2 0x323D PUSH2 0x3CF0 JUMP JUMPDEST POP POP JUMPDEST DUP2 ADD SWAP1 DUP1 DUP1 MLOAD SWAP4 POP POP PUSH1 0x1 PUSH1 0x1 PUSH1 0xA0 SHL SUB DUP4 AND SWAP2 POP POP GAS PUSH2 0x325F PUSH2 0x404B JUMP JUMPDEST PUSH1 0x1 PUSH1 0x1 PUSH1 0xA0 SHL SUB AND EQ PUSH2 0x32C2 JUMPI PUSH1 0x40 MLOAD PUSH3 0x461BCD PUSH1 0xE5 SHL DUP2 MSTORE PUSH1 0x20 PUSH1 0x4 DUP3 ADD MSTORE PUSH1 0x19 PUSH1 0x24 DUP3 ADD MSTORE PUSH32 0x53656E646572206E6F74206D61726B65742063726561746F7200000000000000 PUSH1 0x44 DUP3 ADD MSTORE PUSH1 0x64 ADD PUSH1 0x40 MLOAD DUP1 SWAP2 SUB SWAP1 PUSH2 0x32BF PUSH2 0x3CF0 JUMP JUMPDEST POP POP JUMPDEST DUP2 PUSH1 0x1 PUSH1 0x1 PUSH1 0xA0 SHL SUB AND PUSH4 0x4C33FE94 GAS PUSH2 0x32DA PUSH2 0x404B JUMP JUMPDEST PUSH1 0x40 MLOAD PUSH1 0x1 PUSH1 0x1 PUSH1 0xE0 SHL SUB NOT PUSH1 0xE0 DUP5 SWAP1 SHL AND DUP2 MSTORE PUSH1 0x1 PUSH1 0x1 PUSH1 0xA0 SHL SUB SWAP1 SWAP2 AND PUSH1 0x4 DUP3 ADD MSTORE PUSH1 0x24 ADD PUSH1 0x0 PUSH1 0x40 MLOAD DUP1 DUP4 SUB DUP2 PUSH1 0x0 DUP8 DUP1 PUSH2 0x3316 PUSH2 0x3DB6 JUMP JUMPDEST ISZERO DUP1 ISZERO PUSH2 0x332B JUMPI PUSH1 0x0 DUP1 PUSH2 0x3328 PUSH2 0x3CF0 JUMP JUMPDEST POP POP JUMPDEST POP GAS PUSH2 0x3335 PUSH2 0x3EBB JUMP JUMPDEST POP POP POP POP POP POP ISZERO DUP1 ISZERO PUSH2 0x3355 JUMPI RETURNDATASIZE PUSH1 0x0 DUP1 RETURNDATACOPY RETURNDATASIZE PUSH1 0x0 PUSH2 0x3352 PUSH2 0x3CF0 JUMP JUMPDEST POP POP JUMPDEST POP POP POP POP PUSH2 0x336D DUP3 PUSH1 0x13 PUSH2 0x345C SWAP1 SWAP2 SWAP1 PUSH4 0xFFFFFFFF AND JUMP JUMPDEST PUSH32 0x996FAFAB197BEB99FFF6FDC975BB6CF90352F2C733C76EF37C2E27F17D7D424B DUP3 PUSH1 0x40 MLOAD PUSH1 0x1 PUSH1 0x1 PUSH1 0xA0 SHL SUB SWAP1 SWAP2 AND DUP2 MSTORE PUSH1 0x20 ADD PUSH1 0x40 MLOAD DUP1 SWAP2 SUB SWAP1 LOG1 POP POP JUMP JUMPDEST PUSH1 0x12 PUSH2 0x11BD PUSH2 0x3D5B JUMP JUMPDEST PUSH1 0x0 DUP1 PUSH2 0x33C3 PUSH2 0x3D5B JUMP JUMPDEST SWAP1 PUSH2 0x100 EXP SWAP1 DIV PUSH1 0x1 PUSH1 0x1 PUSH1 0xA0 SHL SUB AND PUSH1 0x1 PUSH1 0x1 PUSH1 0xA0 SHL SUB AND GAS PUSH2 0x33E5 PUSH2 0x404B JUMP JUMPDEST PUSH1 0x1 PUSH1 0x1 PUSH1 0xA0 SHL SUB AND EQ PUSH2 0x3430 JUMPI PUSH1 0x40 MLOAD PUSH3 0x461BCD PUSH1 0xE5 SHL DUP2 MSTORE PUSH1 0x4 ADD DUP1 DUP1 PUSH1 0x20 ADD DUP3 DUP2 SUB DUP3 MSTORE PUSH1 0x2F DUP2 MSTORE PUSH1 0x20 ADD DUP1 PUSH2 0x4175 PUSH1 0x2F SWAP2 CODECOPY PUSH1 0x40 ADD SWAP2 POP POP PUSH1 0x40 MLOAD DUP1 SWAP2 SUB SWAP1 PUSH2 0x16CF PUSH2 0x3CF0 JUMP JUMPDEST JUMP JUMPDEST PUSH1 0x0 PUSH2 0x3445 PUSH1 0x13 DUP4 PUSH4 0xFFFFFFFF PUSH2 0x3747 AND JUMP JUMPDEST DUP1 PUSH2 0x1F3A JUMPI POP PUSH2 0x1F3A PUSH1 0x15 DUP4 PUSH4 0xFFFFFFFF PUSH2 0x3747 AND JUMP JUMPDEST PUSH2 0x3466 DUP3 DUP3 PUSH2 0x3747 JUMP JUMPDEST PUSH2 0x34B6 JUMPI PUSH1 0x40 MLOAD PUSH3 0x461BCD PUSH1 0xE5 SHL DUP2 MSTORE PUSH1 0x20 PUSH1 0x4 DUP3 ADD MSTORE PUSH1 0x14 PUSH1 0x24 DUP3 ADD MSTORE PUSH20 0x22B632B6B2B73A103737BA1034B7103634B9BA17 PUSH1 0x61 SHL PUSH1 0x44 DUP3 ADD MSTORE PUSH1 0x64 ADD PUSH1 0x40 MLOAD DUP1 SWAP2 SUB SWAP1 PUSH2 0x34B3 PUSH2 0x3CF0 JUMP JUMPDEST POP POP JUMPDEST PUSH1 0x1 PUSH1 0x1 PUSH1 0xA0 SHL SUB DUP2 AND PUSH1 0x0 SWAP1 DUP2 MSTORE PUSH1 0x1 DUP4 ADD PUSH1 0x20 MSTORE PUSH1 0x40 DUP2 KECCAK256 PUSH2 0x34D8 PUSH2 0x3D5B JUMP JUMPDEST SWAP1 POP PUSH1 0x0 PUSH1 0x1 DUP5 DUP1 PUSH2 0x34E8 PUSH2 0x3D5B JUMP JUMPDEST SWAP1 POP SUB SWAP1 POP DUP1 DUP3 EQ PUSH2 0x35AC JUMPI PUSH1 0x0 DUP5 DUP3 DUP2 PUSH2 0x3501 PUSH2 0x3D5B JUMP JUMPDEST DUP2 LT PUSH2 0x3509 JUMPI INVALID JUMPDEST SWAP1 PUSH1 0x0 MSTORE PUSH1 0x20 PUSH1 0x0 KECCAK256 ADD PUSH1 0x0 SWAP1 PUSH2 0x351E PUSH2 0x3D5B JUMP JUMPDEST SWAP1 PUSH2 0x100 EXP SWAP1 DIV PUSH1 0x1 PUSH1 0x1 PUSH1 0xA0 SHL SUB AND SWAP1 POP DUP1 DUP6 PUSH1 0x0 ADD DUP5 DUP2 PUSH2 0x353F PUSH2 0x3D5B JUMP JUMPDEST DUP2 LT PUSH2 0x3547 JUMPI INVALID JUMPDEST SWAP1 PUSH1 0x0 MSTORE PUSH1 0x20 PUSH1 0x0 KECCAK256 ADD PUSH1 0x1 DUP2 PUSH2 0x355C PUSH2 0x3D5B JUMP JUMPDEST DUP2 PUSH1 0x1 PUSH1 0x1 PUSH1 0xA0 SHL SUB MUL NOT AND SWAP1 DUP4 PUSH1 0x1 PUSH1 0x1 PUSH1 0xA0 SHL SUB AND MUL OR SWAP1 PUSH2 0x357E PUSH2 0x3F74 JUMP JUMPDEST POP POP POP PUSH1 0x1 PUSH1 0x1 PUSH1 0xA0 SHL SUB DUP2 AND PUSH1 0x0 SWAP1 DUP2 MSTORE PUSH1 0x1 DUP7 ADD PUSH1 0x20 MSTORE DUP4 SWAP1 PUSH1 0x40 SWAP1 KECCAK256 DUP2 SWAP1 PUSH2 0x35A7 PUSH2 0x3F74 JUMP JUMPDEST POP POP POP POP JUMPDEST DUP4 DUP1 PUSH2 0x35B6 PUSH2 0x3D5B JUMP JUMPDEST DUP1 PUSH2 0x35BD JUMPI INVALID JUMPDEST PUSH1 0x1 SWAP1 SUB DUP2 DUP2 SWAP1 PUSH1 0x0 MSTORE PUSH1 0x20 PUSH1 0x0 KECCAK256 ADD PUSH1 0x1 DUP2 PUSH2 0x35D8 PUSH2 0x3D5B JUMP JUMPDEST SWAP1 PUSH1 0x1 PUSH1 0x1 PUSH1 0xA0 SHL SUB MUL NOT AND SWAP1 PUSH2 0x35ED PUSH2 0x3F74 JUMP JUMPDEST POP POP SWAP1 PUSH2 0x35F8 PUSH2 0x3F74 JUMP JUMPDEST POP POP PUSH1 0x1 PUSH1 0x1 PUSH1 0xA0 SHL SUB DUP4 AND PUSH1 0x0 SWAP1 DUP2 MSTORE PUSH1 0x1 DUP6 ADD PUSH1 0x20 MSTORE PUSH1 0x40 SWAP1 KECCAK256 PUSH1 0x0 SWAP1 PUSH2 0x361F PUSH2 0x3F74 JUMP JUMPDEST POP POP POP POP POP POP JUMP JUMPDEST PUSH1 0x0 DUP3 DUP3 ADD DUP4 DUP2 LT ISZERO PUSH2 0x1F37 JUMPI PUSH1 0x40 MLOAD PUSH3 0x461BCD PUSH1 0xE5 SHL DUP2 MSTORE PUSH1 0x20 PUSH1 0x4 DUP3 ADD MSTORE PUSH1 0x1B PUSH1 0x24 DUP3 ADD MSTORE PUSH32 0x536166654D6174683A206164646974696F6E206F766572666C6F770000000000 PUSH1 0x44 DUP3 ADD MSTORE PUSH1 0x64 ADD PUSH1 0x40 MLOAD DUP1 SWAP2 SUB SWAP1 PUSH2 0x3686 PUSH2 0x3CF0 JUMP JUMPDEST POP POP SWAP4 SWAP3 POP POP POP JUMP JUMPDEST PUSH1 0x0 DUP3 DUP3 GT ISZERO PUSH2 0x36EE JUMPI PUSH1 0x40 MLOAD PUSH3 0x461BCD PUSH1 0xE5 SHL DUP2 MSTORE PUSH1 0x20 PUSH1 0x4 DUP3 ADD MSTORE PUSH1 0x1E PUSH1 0x24 DUP3 ADD MSTORE PUSH32 0x536166654D6174683A207375627472616374696F6E206F766572666C6F770000 PUSH1 0x44 DUP3 ADD MSTORE PUSH1 0x64 ADD PUSH1 0x40 MLOAD DUP1 SWAP2 SUB SWAP1 PUSH2 0x36EB PUSH2 0x3CF0 JUMP JUMPDEST POP POP JUMPDEST POP SWAP1 SUB SWAP1 JUMP JUMPDEST PUSH1 0x0 PUSH2 0x3742 PUSH12 0x53797374656D537461747573 PUSH1 0xA0 SHL PUSH1 0x40 MLOAD PUSH1 0x40 DUP1 DUP3 ADD SWAP1 MSTORE PUSH1 0x1C DUP2 MSTORE PUSH32 0x4D697373696E672053797374656D537461747573206164647265737300000000 PUSH1 0x20 DUP3 ADD MSTORE PUSH2 0x3BE0 JUMP JUMPDEST SWAP1 POP SWAP1 JUMP JUMPDEST PUSH1 0x0 DUP3 DUP1 PUSH2 0x3753 PUSH2 0x3D5B JUMP JUMPDEST ISZERO ISZERO SWAP1 POP PUSH2 0x3763 JUMPI POP PUSH1 0x0 PUSH2 0x1F3A JUMP JUMPDEST PUSH1 0x1 PUSH1 0x1 PUSH1 0xA0 SHL SUB DUP3 AND PUSH1 0x0 SWAP1 DUP2 MSTORE PUSH1 0x1 DUP5 ADD PUSH1 0x20 MSTORE PUSH1 0x40 DUP2 KECCAK256 PUSH2 0x3785 PUSH2 0x3D5B JUMP JUMPDEST SWAP1 POP DUP1 ISZERO ISZERO DUP1 PUSH2 0x37DE JUMPI POP PUSH1 0x1 PUSH1 0x1 PUSH1 0xA0 SHL SUB DUP4 AND DUP5 PUSH1 0x0 DUP2 PUSH2 0x37A6 PUSH2 0x3D5B JUMP JUMPDEST DUP2 LT PUSH2 0x37AE JUMPI INVALID JUMPDEST SWAP1 PUSH1 0x0 MSTORE PUSH1 0x20 PUSH1 0x0 KECCAK256 ADD PUSH1 0x0 SWAP1 PUSH2 0x37C3 PUSH2 0x3D5B JUMP JUMPDEST SWAP1 PUSH2 0x100 EXP SWAP1 DIV PUSH1 0x1 PUSH1 0x1 PUSH1 0xA0 SHL SUB AND PUSH1 0x1 PUSH1 0x1 PUSH1 0xA0 SHL SUB AND EQ JUMPDEST SWAP5 SWAP4 POP POP POP POP JUMP JUMPDEST DUP2 DUP1 PUSH2 0x37F0 PUSH2 0x3D5B JUMP JUMPDEST PUSH1 0x1 PUSH1 0x1 PUSH1 0xA0 SHL SUB DUP4 AND PUSH1 0x0 SWAP1 DUP2 MSTORE PUSH1 0x1 DUP6 ADD PUSH1 0x20 MSTORE SWAP1 SWAP2 POP PUSH1 0x40 SWAP1 KECCAK256 DUP2 SWAP1 PUSH2 0x3817 PUSH2 0x3F74 JUMP JUMPDEST POP DUP3 SWAP2 POP DUP4 SWAP1 POP DUP1 PUSH1 0x1 DUP2 PUSH2 0x382A PUSH2 0x3D5B JUMP JUMPDEST ADD DUP1 DUP3 PUSH2 0x3835 PUSH2 0x3F74 JUMP JUMPDEST POP POP PUSH1 0x0 SWAP3 DUP4 MSTORE SWAP2 PUSH1 0x0 NOT DUP4 ADD SWAP2 POP PUSH1 0x20 SWAP1 KECCAK256 SWAP2 SWAP3 SWAP2 ADD PUSH1 0x1 DUP2 PUSH2 0x3857 PUSH2 0x3D5B JUMP JUMPDEST DUP2 PUSH1 0x1 PUSH1 0x1 PUSH1 0xA0 SHL SUB MUL NOT AND SWAP1 DUP4 PUSH1 0x1 PUSH1 0x1 PUSH1 0xA0 SHL SUB AND MUL OR SWAP1 PUSH2 0x361F PUSH2 0x3F74 JUMP JUMPDEST PUSH1 0x60 DUP3 DUP3 ADD DUP5 DUP1 PUSH2 0x3888 PUSH2 0x3D5B JUMP JUMPDEST SWAP1 POP DUP2 GT ISZERO PUSH2 0x389F JUMPI DUP5 DUP1 PUSH2 0x389B PUSH2 0x3D5B JUMP JUMPDEST SWAP2 POP POP JUMPDEST DUP4 DUP2 GT PUSH2 0x38DA JUMPI PUSH1 0x0 PUSH1 0x40 MLOAD SWAP1 DUP1 DUP3 MSTORE DUP1 PUSH1 0x20 MUL PUSH1 0x20 ADD DUP3 ADD PUSH1 0x40 MSTORE DUP1 ISZERO PUSH2 0x38D1 JUMPI DUP2 PUSH1 0x20 ADD PUSH1 0x20 DUP3 MUL DUP1 CODESIZE DUP4 CODECOPY ADD SWAP1 POP JUMPDEST POP SWAP2 POP POP PUSH2 0x3983 JUMP JUMPDEST DUP4 DUP2 SUB PUSH1 0x60 DUP2 PUSH1 0x40 MLOAD SWAP1 DUP1 DUP3 MSTORE DUP1 PUSH1 0x20 MUL PUSH1 0x20 ADD DUP3 ADD PUSH1 0x40 MSTORE DUP1 ISZERO PUSH2 0x3909 JUMPI DUP2 PUSH1 0x20 ADD PUSH1 0x20 DUP3 MUL DUP1 CODESIZE DUP4 CODECOPY ADD SWAP1 POP JUMPDEST POP SWAP1 POP PUSH1 0x0 JUMPDEST DUP3 DUP2 LT ISZERO PUSH2 0x397D JUMPI DUP8 DUP2 DUP9 ADD DUP2 PUSH2 0x3924 PUSH2 0x3D5B JUMP JUMPDEST DUP2 LT PUSH2 0x392C JUMPI INVALID JUMPDEST SWAP1 PUSH1 0x0 MSTORE PUSH1 0x20 PUSH1 0x0 KECCAK256 ADD PUSH1 0x0 SWAP1 PUSH2 0x3941 PUSH2 0x3D5B JUMP JUMPDEST SWAP1 PUSH2 0x100 EXP SWAP1 DIV PUSH1 0x1 PUSH1 0x1 PUSH1 0xA0 SHL SUB AND DUP3 DUP3 DUP2 MLOAD DUP2 LT PUSH2 0x395D JUMPI INVALID JUMPDEST PUSH1 0x1 PUSH1 0x1 PUSH1 0xA0 SHL SUB SWAP1 SWAP3 AND PUSH1 0x20 SWAP3 DUP4 MUL SWAP2 SWAP1 SWAP2 ADD SWAP1 SWAP2 ADD MSTORE PUSH1 0x1 ADD PUSH2 0x390F JUMP JUMPDEST POP SWAP3 POP POP POP JUMPDEST SWAP4 SWAP3 POP POP POP JUMP JUMPDEST PUSH1 0x0 DUP1 PUSH2 0x3995 PUSH2 0x3CA9 JUMP JUMPDEST SWAP1 POP DUP1 PUSH1 0x1 PUSH1 0x1 PUSH1 0xA0 SHL SUB AND PUSH4 0xAC82F608 DUP5 PUSH1 0x40 MLOAD PUSH1 0x1 PUSH1 0x1 PUSH1 0xE0 SHL SUB NOT PUSH1 0xE0 DUP5 SWAP1 SHL AND DUP2 MSTORE PUSH1 0x4 DUP2 ADD SWAP2 SWAP1 SWAP2 MSTORE PUSH1 0x24 ADD PUSH1 0x20 PUSH1 0x40 MLOAD DUP1 DUP4 SUB DUP2 DUP7 DUP1 PUSH2 0x39D9 PUSH2 0x3DB6 JUMP JUMPDEST ISZERO DUP1 ISZERO PUSH2 0x39EE JUMPI PUSH1 0x0 DUP1 PUSH2 0x39EB PUSH2 0x3CF0 JUMP JUMPDEST POP POP JUMPDEST POP GAS PUSH2 0x39F8 PUSH2 0x3E02 JUMP JUMPDEST POP POP POP POP POP ISZERO DUP1 ISZERO PUSH2 0x3A17 JUMPI RETURNDATASIZE PUSH1 0x0 DUP1 RETURNDATACOPY RETURNDATASIZE PUSH1 0x0 PUSH2 0x3A14 PUSH2 0x3CF0 JUMP JUMPDEST POP POP JUMPDEST POP POP POP POP PUSH1 0x40 MLOAD RETURNDATASIZE PUSH1 0x20 DUP2 LT ISZERO PUSH2 0x3A36 JUMPI PUSH1 0x0 DUP1 PUSH2 0x3A33 PUSH2 0x3CF0 JUMP JUMPDEST POP POP JUMPDEST DUP2 ADD SWAP1 DUP1 DUP1 MLOAD ISZERO SWAP3 POP PUSH2 0x3B4E SWAP2 POP POP JUMPI DUP3 PUSH4 0x1CD554D1 PUSH1 0xE2 SHL EQ ISZERO PUSH2 0x3A5F JUMPI PUSH1 0x0 SWAP2 POP POP PUSH2 0x19C2 JUMP JUMPDEST PUSH1 0x0 DUP2 PUSH1 0x1 PUSH1 0x1 PUSH1 0xA0 SHL SUB AND PUSH4 0x728DEC29 DUP6 PUSH1 0x40 MLOAD PUSH1 0x1 PUSH1 0x1 PUSH1 0xE0 SHL SUB NOT PUSH1 0xE0 DUP5 SWAP1 SHL AND DUP2 MSTORE PUSH1 0x4 DUP2 ADD SWAP2 SWAP1 SWAP2 MSTORE PUSH1 0x24 ADD PUSH1 0xA0 PUSH1 0x40 MLOAD DUP1 DUP4 SUB DUP2 DUP7 DUP1 PUSH2 0x3AA3 PUSH2 0x3DB6 JUMP JUMPDEST ISZERO DUP1 ISZERO PUSH2 0x3AB8 JUMPI PUSH1 0x0 DUP1 PUSH2 0x3AB5 PUSH2 0x3CF0 JUMP JUMPDEST POP POP JUMPDEST POP GAS PUSH2 0x3AC2 PUSH2 0x3E02 JUMP JUMPDEST POP POP POP POP POP ISZERO DUP1 ISZERO PUSH2 0x3AE1 JUMPI RETURNDATASIZE PUSH1 0x0 DUP1 RETURNDATACOPY RETURNDATASIZE PUSH1 0x0 PUSH2 0x3ADE PUSH2 0x3CF0 JUMP JUMPDEST POP POP JUMPDEST POP POP POP POP PUSH1 0x40 MLOAD RETURNDATASIZE PUSH1 0xA0 DUP2 LT ISZERO PUSH2 0x3B00 JUMPI PUSH1 0x0 DUP1 PUSH2 0x3AFD PUSH2 0x3CF0 JUMP JUMPDEST POP POP JUMPDEST DUP2 ADD SWAP1 DUP1 DUP1 MLOAD SWAP3 SWAP2 SWAP1 PUSH1 0x20 ADD DUP1 MLOAD SWAP3 SWAP2 SWAP1 PUSH1 0x20 ADD DUP1 MLOAD SWAP3 SWAP2 SWAP1 PUSH1 0x20 ADD DUP1 MLOAD SWAP3 SWAP2 SWAP1 PUSH1 0x20 ADD DUP1 MLOAD POP SWAP6 SWAP7 POP POP DUP6 ISZERO SWAP5 POP PUSH2 0x3B43 SWAP4 POP POP POP POP JUMPI PUSH1 0x0 SWAP3 POP POP POP PUSH2 0x19C2 JUMP JUMPDEST PUSH1 0x1 SWAP3 POP POP POP PUSH2 0x19C2 JUMP JUMPDEST POP PUSH1 0x0 SWAP3 SWAP2 POP POP JUMP JUMPDEST PUSH1 0x0 PUSH2 0x3742 PUSH32 0x42696E6172794F7074696F6E4D61726B6574466163746F727900000000000000 PUSH1 0x40 MLOAD PUSH1 0x60 DUP2 ADD PUSH1 0x40 MSTORE PUSH1 0x29 DUP1 DUP3 MSTORE PUSH2 0x4205 PUSH1 0x20 DUP4 ADD CODECOPY PUSH2 0x3BE0 JUMP JUMPDEST PUSH1 0x0 PUSH2 0x3742 PUSH9 0x14DE5B9D1A1CD554D1 PUSH1 0xBA SHL PUSH1 0x40 MLOAD PUSH1 0x40 DUP1 DUP3 ADD SWAP1 MSTORE PUSH1 0x19 DUP2 MSTORE PUSH32 0x4D697373696E672053796E746873555344206164647265737300000000000000 PUSH1 0x20 DUP3 ADD MSTORE JUMPDEST PUSH1 0x0 DUP3 DUP2 MSTORE PUSH1 0x7 PUSH1 0x20 MSTORE DUP1 PUSH1 0x40 DUP2 KECCAK256 PUSH1 0x0 SWAP1 PUSH2 0x3BFA PUSH2 0x3D5B JUMP JUMPDEST PUSH1 0x1 PUSH1 0x1 PUSH1 0xA0 SHL SUB PUSH2 0x100 SWAP3 SWAP1 SWAP3 EXP SWAP1 DIV AND SWAP1 POP DUP3 DUP2 PUSH2 0x3CA1 JUMPI PUSH1 0x40 MLOAD PUSH3 0x461BCD PUSH1 0xE5 SHL DUP2 MSTORE PUSH1 0x4 ADD DUP1 DUP1 PUSH1 0x20 ADD DUP3 DUP2 SUB DUP3 MSTORE DUP4 DUP2 DUP2 MLOAD DUP2 MSTORE PUSH1 0x20 ADD SWAP2 POP DUP1 MLOAD SWAP1 PUSH1 0x20 ADD SWAP1 DUP1 DUP4 DUP4 PUSH1 0x0 JUMPDEST DUP4 DUP2 LT ISZERO PUSH2 0x3C5D JUMPI DUP1 DUP3 ADD MLOAD DUP4 DUP3 ADD MSTORE PUSH1 0x20 ADD PUSH2 0x3C45 JUMP JUMPDEST POP POP POP POP SWAP1 POP SWAP1 DUP2 ADD SWAP1 PUSH1 0x1F AND DUP1 ISZERO PUSH2 0x3C8A JUMPI DUP1 DUP3 SUB DUP1 MLOAD PUSH1 0x1 DUP4 PUSH1 0x20 SUB PUSH2 0x100 EXP SUB NOT AND DUP2 MSTORE PUSH1 0x20 ADD SWAP2 POP JUMPDEST POP SWAP3 POP POP POP PUSH1 0x40 MLOAD DUP1 SWAP2 SUB SWAP1 PUSH2 0x3C9E PUSH2 0x3CF0 JUMP JUMPDEST POP POP JUMPDEST POP SWAP4 SWAP3 POP POP POP JUMP JUMPDEST PUSH1 0x0 PUSH2 0x3742 PUSH13 0x45786368616E67655261746573 PUSH1 0x98 SHL PUSH1 0x40 MLOAD PUSH1 0x40 DUP1 DUP3 ADD SWAP1 MSTORE PUSH1 0x15 DUP2 MSTORE PUSH21 0x4D697373696E672045786368616E67655261746573 PUSH1 0x58 SHL PUSH1 0x20 DUP3 ADD MSTORE PUSH2 0x3BE0 JUMP JUMPDEST PUSH4 0x2A2A7ADB MSIZE DUP2 PUSH1 0xE0 SHL DUP2 MSTORE PUSH1 0x4 DUP2 ADD PUSH1 0x20 DUP2 MSTORE DUP6 PUSH1 0x20 DUP3 ADD MSTORE PUSH1 0x0 JUMPDEST DUP7 DUP2 LT ISZERO PUSH2 0x3D28 JUMPI DUP1 DUP7 ADD MLOAD DUP3 DUP3 ADD PUSH1 0x40 ADD MSTORE PUSH1 0x20 ADD PUSH2 0x3D0D JUMP JUMPDEST POP PUSH1 0x20 DUP3 DUP8 PUSH1 0x64 ADD DUP5 CALLER PUSH1 0x0 SWAP1 GAS CALL PC PUSH1 0xE ADD JUMPI RETURNDATASIZE PUSH1 0x0 DUP1 RETURNDATACOPY RETURNDATASIZE PUSH1 0x0 REVERT JUMPDEST RETURNDATASIZE PUSH1 0x1 EQ ISZERO PC PUSH1 0xA ADD JUMPI PUSH1 0x1 PUSH1 0x0 RETURN JUMPDEST POP POP POP JUMP JUMPDEST PUSH4 0x3DAA959 MSIZE DUP2 PUSH1 0xE0 SHL DUP2 MSTORE DUP4 PUSH1 0x4 DUP3 ADD MSTORE PUSH1 0x20 DUP2 PUSH1 0x24 DUP4 CALLER PUSH1 0x0 SWAP1 GAS CALL PC PUSH1 0xE ADD JUMPI RETURNDATASIZE PUSH1 0x0 DUP1 RETURNDATACOPY RETURNDATASIZE PUSH1 0x0 REVERT JUMPDEST RETURNDATASIZE PUSH1 0x1 EQ ISZERO PC PUSH1 0xA ADD JUMPI PUSH1 0x1 PUSH1 0x0 RETURN JUMPDEST DUP1 MLOAD SWAP4 POP PUSH1 0x0 JUMPDEST PUSH1 0x40 DUP2 LT ISZERO PUSH2 0x1F1E JUMPI PUSH1 0x0 DUP3 DUP3 ADD MSTORE PUSH1 0x20 ADD PUSH2 0x3D9F JUMP JUMPDEST PUSH4 0x8435035B MSIZE DUP2 PUSH1 0xE0 SHL DUP2 MSTORE DUP4 PUSH1 0x4 DUP3 ADD MSTORE PUSH1 0x20 DUP2 PUSH1 0x24 DUP4 CALLER PUSH1 0x0 SWAP1 GAS CALL PC PUSH1 0xE ADD JUMPI RETURNDATASIZE PUSH1 0x0 DUP1 RETURNDATACOPY RETURNDATASIZE PUSH1 0x0 REVERT JUMPDEST RETURNDATASIZE PUSH1 0x1 EQ ISZERO PC PUSH1 0xA ADD JUMPI PUSH1 0x1 PUSH1 0x0 RETURN JUMPDEST DUP1 MLOAD PUSH1 0x0 DUP3 MSTORE SWAP4 POP PUSH1 0x20 PUSH2 0x3D9F JUMP JUMPDEST PUSH4 0x8540661F MSIZE DUP2 PUSH1 0xE0 SHL DUP2 MSTORE DUP4 PUSH1 0x4 DUP3 ADD MSTORE DUP5 PUSH1 0x24 DUP3 ADD MSTORE PUSH1 0x60 PUSH1 0x44 DUP3 ADD MSTORE DUP7 PUSH1 0x64 DUP3 ADD MSTORE PUSH1 0x84 DUP2 ADD PUSH1 0x0 JUMPDEST DUP9 DUP2 LT ISZERO PUSH2 0x3E46 JUMPI DUP1 DUP9 ADD MLOAD DUP3 DUP3 ADD MSTORE PUSH1 0x20 ADD PUSH2 0x3E2E JUMP JUMPDEST POP DUP8 PUSH2 0x104 ADD DUP3 ADD PUSH1 0x60 DUP4 DUP11 PUSH2 0x104 ADD DUP6 CALLER PUSH1 0x0 SWAP1 GAS CALL PC PUSH1 0xE ADD JUMPI RETURNDATASIZE PUSH1 0x0 DUP1 RETURNDATACOPY RETURNDATASIZE PUSH1 0x0 REVERT JUMPDEST RETURNDATASIZE PUSH1 0x1 EQ ISZERO PC PUSH1 0xA ADD JUMPI PUSH1 0x1 PUSH1 0x0 RETURN JUMPDEST DUP3 MLOAD PUSH1 0x40 DUP5 ADD MLOAD RETURNDATASIZE PUSH1 0x0 DUP7 RETURNDATACOPY DUP13 DUP13 DUP3 PUSH1 0x60 DUP9 ADD CALLER POP PUSH1 0x0 PUSH1 0x4 GAS CALL POP MSIZE DUP6 JUMPDEST DUP2 DUP2 LT ISZERO PUSH2 0x3EAF JUMPI PUSH1 0x0 DUP2 MSTORE PUSH1 0x20 ADD PUSH2 0x3E9B JUMP JUMPDEST POP SWAP2 SWAP13 POP POP POP POP POP POP POP JUMP JUMPDEST PUSH4 0x85979F76 MSIZE DUP2 PUSH1 0xE0 SHL DUP2 MSTORE DUP4 PUSH1 0x4 DUP3 ADD MSTORE DUP5 PUSH1 0x24 DUP3 ADD MSTORE PUSH1 0x60 PUSH1 0x44 DUP3 ADD MSTORE DUP8 PUSH1 0x64 DUP3 ADD MSTORE PUSH1 0x84 DUP2 ADD PUSH1 0x0 JUMPDEST DUP10 DUP2 LT ISZERO PUSH2 0x3EFF JUMPI DUP1 DUP10 ADD MLOAD DUP3 DUP3 ADD MSTORE PUSH1 0x20 ADD PUSH2 0x3EE7 JUMP JUMPDEST POP DUP9 PUSH2 0x104 ADD DUP3 ADD PUSH1 0x60 DUP4 DUP12 PUSH2 0x104 ADD DUP6 CALLER PUSH1 0x0 SWAP1 GAS CALL PC PUSH1 0xE ADD JUMPI RETURNDATASIZE PUSH1 0x0 DUP1 RETURNDATACOPY RETURNDATASIZE PUSH1 0x0 REVERT JUMPDEST RETURNDATASIZE PUSH1 0x1 EQ ISZERO PC PUSH1 0xA ADD JUMPI PUSH1 0x1 PUSH1 0x0 RETURN JUMPDEST DUP3 MLOAD PUSH1 0x40 DUP5 ADD MLOAD RETURNDATASIZE PUSH1 0x0 DUP7 RETURNDATACOPY DUP14 DUP14 DUP3 PUSH1 0x60 DUP9 ADD CALLER POP PUSH1 0x0 PUSH1 0x4 GAS CALL POP MSIZE DUP6 JUMPDEST DUP2 DUP2 LT ISZERO PUSH2 0x3F68 JUMPI PUSH1 0x0 DUP2 MSTORE PUSH1 0x20 ADD PUSH2 0x3F54 JUMP JUMPDEST POP SWAP2 SWAP14 POP POP POP POP POP POP POP JUMP JUMPDEST PUSH4 0x22BD64C0 MSIZE DUP2 PUSH1 0xE0 SHL DUP2 MSTORE DUP4 PUSH1 0x4 DUP3 ADD MSTORE DUP5 PUSH1 0x24 DUP3 ADD MSTORE PUSH1 0x0 DUP2 PUSH1 0x44 DUP4 CALLER PUSH1 0x0 SWAP1 GAS CALL PC PUSH1 0xE ADD JUMPI RETURNDATASIZE PUSH1 0x0 DUP1 RETURNDATACOPY RETURNDATASIZE PUSH1 0x0 REVERT JUMPDEST RETURNDATASIZE PUSH1 0x1 EQ ISZERO PC PUSH1 0xA ADD JUMPI PUSH1 0x1 PUSH1 0x0 RETURN JUMPDEST PUSH1 0x0 DUP2 MSTORE PUSH1 0x20 PUSH2 0x3D9F JUMP JUMPDEST PUSH4 0xFFE73914 MSIZE DUP2 PUSH1 0xE0 SHL DUP2 MSTORE DUP4 PUSH1 0x4 DUP3 ADD MSTORE DUP5 PUSH1 0x24 DUP3 ADD MSTORE PUSH1 0x60 PUSH1 0x44 DUP3 ADD MSTORE DUP7 PUSH1 0x64 DUP3 ADD MSTORE PUSH1 0x84 DUP2 ADD PUSH1 0x0 DUP9 DUP2 LT ISZERO PUSH2 0x3E46 JUMPI DUP1 DUP9 ADD MLOAD DUP3 DUP3 ADD MSTORE PUSH1 0x20 ADD PUSH2 0x3E2E JUMP JUMPDEST PUSH4 0xBDBF8C36 MSIZE DUP2 PUSH1 0xE0 SHL DUP2 MSTORE PUSH1 0x20 DUP2 PUSH1 0x4 DUP4 CALLER PUSH1 0x0 SWAP1 GAS CALL PC PUSH1 0xE ADD JUMPI RETURNDATASIZE PUSH1 0x0 DUP1 RETURNDATACOPY RETURNDATASIZE PUSH1 0x0 REVERT JUMPDEST RETURNDATASIZE PUSH1 0x1 EQ ISZERO PC PUSH1 0xA ADD JUMPI PUSH1 0x1 PUSH1 0x0 RETURN JUMPDEST DUP1 MLOAD PUSH1 0x0 DUP3 MSTORE SWAP4 POP PUSH1 0x20 PUSH2 0x3D9F JUMP JUMPDEST PUSH4 0x73509064 MSIZE DUP2 PUSH1 0xE0 SHL DUP2 MSTORE PUSH1 0x20 DUP2 PUSH1 0x4 DUP4 CALLER PUSH1 0x0 SWAP1 GAS CALL PC PUSH1 0xE ADD JUMPI RETURNDATASIZE PUSH1 0x0 DUP1 RETURNDATACOPY RETURNDATASIZE PUSH1 0x0 REVERT JUMPDEST RETURNDATASIZE PUSH1 0x1 EQ ISZERO PC PUSH1 0xA ADD JUMPI PUSH1 0x1 PUSH1 0x0 RETURN JUMPDEST DUP1 MLOAD PUSH1 0x0 DUP3 MSTORE SWAP4 POP PUSH1 0x20 PUSH2 0x3D9F JUMP JUMPDEST PUSH1 0x40 MLOAD PUSH2 0x300 DUP1 DUP3 ADD PUSH1 0x40 MSTORE PUSH1 0x18 SWAP1 DUP3 SWAP1 DUP1 CODESIZE DUP4 CODECOPY POP SWAP2 SWAP3 SWAP2 POP POP JUMP INVALID MSIZE PUSH16 0x75206D757374206265206E6F6D696E61 PUSH21 0x6564206265666F726520796F752063616E20616363 PUSH6 0x7074206F776E PUSH6 0x727368697043 PUSH19 0x6561746F7220736B6577206C696D6974206D75 PUSH20 0x74206265206E6F2067726561746572207468616E KECCAK256 BALANCE 0x2E SLOAD PUSH16 0x74616C20666565206D75737420626520 PUSH13 0x657373207468616E2031303025 0x2E POP PUSH6 0x726D69747465 PUSH5 0x206F6E6C79 KECCAK256 PUSH7 0x6F722061637469 PUSH23 0x65206D61726B6574732E5065726D6974746564206F6E6C PUSH26 0x20666F72206B6E6F776E206D61726B6574732E4F6E6C79207468 PUSH6 0x20636F6E7472 PUSH2 0x6374 KECCAK256 PUSH16 0x776E6572206D617920706572666F726D KECCAK256 PUSH21 0x68697320616374696F6E4F6E6C79207065726D6974 PUSH21 0x656420666F72206D6967726174696E67206D616E61 PUSH8 0x65722E5468697320 PUSH2 0x6374 PUSH10 0x6F6E2063616E6E6F7420 PUSH3 0x652070 PUSH6 0x72666F726D65 PUSH5 0x207768696C PUSH6 0x207468652063 PUSH16 0x6E747261637420697320706175736564 0x4D PUSH10 0x7373696E672042696E61 PUSH19 0x794F7074696F6E4D61726B6574466163746F72 PUSH26 0x2061646472657373526566756E6420666565206D757374206265 KECCAK256 PUSH15 0x6F2067726561746572207468616E20 BALANCE ADDRESS ADDRESS 0x25 0x2E NUMBER PUSH19 0x6561746F7220736B6577206C696D6974206D75 PUSH20 0x74206265206E6F2067726561746572207468616E KECCAK256 BALANCE 0x2E SLOAD PUSH16 0x74616C20666565206D75737420626520 PUSH13 0x657373207468616E2031303025 0x2E 0x4F PUSH15 0x6C792074686520636F6E7472616374 KECCAK256 PUSH16 0x776E6572206D617920706572666F726D KECCAK256 PUSH21 0x68697320616374696F6E526566756E642066656520 PUSH14 0x757374206265206E6F2067726561 PUSH21 0x6572207468616E20313030252E0000000000000000 "
		},
		"deployedBytecode": {
			"linkReferences": {
				"BinaryOptionMarketManager.sol": {
					"SafeDecimalMath": [
						{
							"length": 20,
							"start": 3720
						},
						{
							"length": 20,
							"start": 4946
						},
						{
							"length": 20,
							"start": 7024
						},
						{
							"length": 20,
							"start": 9905
						}
					]
				}
			},
			"object": "608060405234801561001957600080610016613cf0565b50505b50600436106102c45760003560e01c806379ba50971161018b578063aeab5849116100f2578063c095daf2116100ab578063e3235c9111610085578063e3235c9114610a6c578063e73efc9b14610a74578063fe40c47014610aa0578063ff50abdc14610acf576102c4565b8063c095daf214610a18578063c58aaae614610a3e578063c6c9d82814610a46576102c4565b8063aeab58491461090a578063b8225dec14610930578063bd32aa4414610938578063bd6a10b814610940578063be5af9fe14610966578063c014fb8414610986576102c4565b80639af1d35a116101445780639af1d35a1461080e5780639cb8a26a14610816578063a461fc821461081e578063ab49848c14610826578063ac60c48614610867578063adfd31af1461086f576102c4565b806379ba50971461071357806389c6318d1461071b5780638da5cb5b1461079a57806391b4ded9146107a257806394fcf3c3146107aa5780639501dc87146107e8576102c4565b806339ab4c411161022f578063631e1444116101e8578063631e14441461063b57806364af2d871461066a57806364cf34bd146106725780636b3a09841461069857806373b7de15146106be5780637859f410146106e4576102c4565b806339ab4c41146104f25780633be99e6f1461051a5780634a41d89d1461054957806353a47bb714610575578063543d6c741461057d5780635c975abb1461061f576102c4565b806316c38b3c1161028157806316c38b3c1461043657806317c70de41461045e5780631f3f10b01461046657806320714f88146104955780633278c960146104c457806336fd711e146104cc576102c4565b806302610c50146102d257806303ff6018146102ec57806304f3bcec146103975780630dd16fd5146103bb57806315502840146103e15780631627540c14610407575b6000806102cf613cf0565b50505b6102da610ad7565b60405190815260200160405180910390f35b6103956004803603606081101561030b57600080610308613cf0565b50505b6001600160a01b03823516916020810135151591810190606081016040820135600160201b81111561034557600080610342613cf0565b50505b8201836020820111156103605760008061035d613cf0565b50505b803590602001918460208302840111600160201b8311171561038a57600080610387613cf0565b50505b509092509050610aea565b005b61039f610e4f565b6040516001600160a01b03909116815260200160405180910390f35b610395600480360360208110156103da576000806103d7613cf0565b50505b5035610e6e565b61039560048036036020811015610400576000806103fd613cf0565b50505b5035611016565b6103956004803603602081101561042657600080610423613cf0565b50505b50356001600160a01b0316611063565b6103956004803603602081101561045557600080610452613cf0565b50505b503515156110dd565b6102da6111b3565b6103956004803603602081101561048557600080610482613cf0565b50505b50356001600160a01b03166111c0565b610395600480360360208110156104b4576000806104b1613cf0565b50505b50356001600160a01b03166111f8565b6103956112d7565b610395600480360360208110156104eb576000806104e8613cf0565b50505b5035611348565b610395600480360360208110156105115760008061050e613cf0565b50505b50351515611483565b6103956004803603602081101561053957600080610536613cf0565b50505b50356001600160a01b0316611509565b6105516116d3565b60405180848152602001838152602001828152602001935050505060405180910390f35b61039f6116fd565b6103956004803603604081101561059c57600080610599613cf0565b50505b6001600160a01b038235169190810190604081016020820135600160201b8111156105cf576000806105cc613cf0565b50505b8201836020820111156105ea576000806105e7613cf0565b50505b803590602001918460208302840111600160201b8311171561061457600080610611613cf0565b50505b509092509050611709565b6106276117d2565b604051901515815260200160405180910390f35b6106276004803603602081101561065a57600080610657613cf0565b50505b50356001600160a01b03166117eb565b6106276119c7565b610395600480360360208110156106915760008061068e613cf0565b50505b50356119d3565b610395600480360360208110156106b7576000806106b4613cf0565b50505b5035611a20565b610395600480360360208110156106dd576000806106da613cf0565b50505b5035611b66565b6103956004803603602081101561070357600080610700613cf0565b50505b50356001600160a01b0316611ca1565b610395611da0565b6107476004803603604081101561073a57600080610737613cf0565b50505b5080359060200135611f23565b60405160208082528190810183818151815260200191508051906020019060200280838360005b8381101561078657808201518382015260200161076e565b505050509050019250505060405180910390f35b61039f611f40565b6102da611f4b565b61039f600480360360e08110156107c9576000806107c6613cf0565b50505b508035906020810135906040810135151590606081019060a001611f55565b6103956004803603602081101561080757600080610804613cf0565b50505b5035612697565b61055161283f565b61039561284a565b6102da61298d565b61082e612994565b604051808261030080838360005b8381101561085457808201518382015260200161083c565b5050505090500191505060405180910390f35b6102da6129f6565b6103956004803603604081101561088e5760008061088b613cf0565b50505b813515159190810190604081016020820135600160201b8111156108ba576000806108b7613cf0565b50505b8201836020820111156108d5576000806108d2613cf0565b50505b803590602001918460208302840111600160201b831117156108ff576000806108fc613cf0565b50505b509092509050612a03565b6103956004803603602081101561092957600080610926613cf0565b50505b5035612ca4565b610627612de8565b610395612df4565b6103956004803603602081101561095f5760008061095c613cf0565b50505b5035612e76565b61096e612ec3565b60405191825260208201526040908101905180910390f35b610395600480360360208110156109a5576000806109a2613cf0565b50505b810190602081018135600160201b8111156109c8576000806109c5613cf0565b50505b8201836020820111156109e3576000806109e0613cf0565b50505b803590602001918460208302840111600160201b83111715610a0d57600080610a0a613cf0565b50505b509092509050612ee0565b61039560048036036020811015610a3757600080610a34613cf0565b50505b5035613057565b61039f6130a4565b6102da60048036036020811015610a6557600080610a62613cf0565b50505b50356130b0565b6102da6130d8565b61074760048036036040811015610a9357600080610a90613cf0565b50505b50803590602001356130dd565b61039560048036036020811015610abf57600080610abc613cf0565b50505b50356001600160a01b03166130f1565b6102da6133ae565b6000601380610ae4613d5b565b91505090565b610af26133b8565b8080610afe5750610e49565b600084610b0c576015610b0f565b60135b90506000805b83811015610cea576000868683818110610b2b57fe5b905060200201356001600160a01b03169050610b4681613432565b610b915760405162461bcd60e51b815260206004820152600f60248201526e26b0b935b2ba103ab735b737bbb71760891b604482015260640160405180910390610b8e613cf0565b50505b610ba1848263ffffffff61345c16565b610c4c816001600160a01b031663eef49ee36040518163ffffffff1660e01b81526004016020604051808303818680610bd8613db6565b158015610bed57600080610bea613cf0565b50505b505a610bf7613e02565b5050505050158015610c16573d6000803e3d6000610c13613cf0565b50505b505050506040513d6020811015610c3557600080610c32613cf0565b50505b81019080805187935091505063ffffffff61362716565b9250806001600160a01b0316631627540c8a6040516001600160e01b031960e084901b1681526001600160a01b03909116600482015260240160006040518083038160008780610c9a613db6565b158015610caf57600080610cac613cf0565b50505b505a610cb9613ebb565b505050505050158015610cd9573d6000803e3d6000610cd6613cf0565b50505b505060019093019250610b15915050565b50610d05816012610cf9613d5b565b9063ffffffff61368f16565b806012610d10613f74565b5050507f3e429aa34462b428d3f7277acb67e1c83d80a57faab2a47924369b5060f356798786866040516001600160a01b03841681526040602080830182815291830184905260608301908590850280828437600083820152601f01601f1916909101955060409450505050505180910390a1866001600160a01b031663adfd31af8787876040516001600160e01b031960e086901b168152831515600482019081526040602483019081526044830184905290916064018460208502808284376000838201819052601f909101601f1916909201965090945060409350505050518083038160008780610e02613db6565b158015610e1757600080610e14613cf0565b50505b505a610e21613ebb565b505050505050158015610e41573d6000803e3d6000610e3e613cf0565b50505b505050505050505b50505050565b60006006610e5b613d5b565b906101000a90046001600160a01b031681565b610e766133b8565b60006009610e82613d5b565b8201905073__$981eaff4516d951b878b1a7f17446065b3$__63907af6c06040518163ffffffff1660e01b81526004016020604051808303818680610ec5613db6565b158015610eda57600080610ed7613cf0565b50505b505a610ee4613fc2565b5050505050158015610f03573d6000803e3d6000610f00613cf0565b50505b505050506040513d6020811015610f2257600080610f1f613cf0565b50505b81019080805184109250610f739150505760405162461bcd60e51b81526004018080602001828103825260218152602001806141116021913960400191505060405180910390610f70613cf0565b50505b80600010610fd05760405162461bcd60e51b815260206004820152601a60248201527f546f74616c20666565206d757374206265206e6f6e7a65726f2e000000000000604482015260640160405180910390610fcd613cf0565b50505b8180600a610fdc613f74565b5050507f8c14462add32e0ae0fbfcf9e60711ecae573da337dc9127fff98fb7cfb3973b48260405190815260200160405180910390a15050565b61101e6133b8565b8080600d61102a613f74565b5050507ff378a0fd4ad3ffd9d7d50986f16b04acd2dc42691c4f412f34e8eefe883e66528160405190815260200160405180910390a150565b61106b6133b8565b8060018080611078613d5b565b816001600160a01b0302191690836001600160a01b031602179061109a613f74565b5050507f906a1c6bd7e3091ea86693dd029a831c19049ce77f1dce2ce0bab1cacbabce22816040516001600160a01b03909116815260200160405180910390a150565b6110e56133b8565b600060036110f1613d5b565b906101000a900460ff161515811515141561110b576111b0565b806003600181611119613d5b565b8160ff0219169083151502179061112e613f74565b505050600360009061113e613d5b565b906101000a900460ff1615611165575a611156614005565b806002611161613f74565b5050505b7f8fb6c181ee25a520cf3dd6565006ef91229fcfe5a989566c2a3b8c115570cec560006003611192613d5b565b906101000a900460ff16604051901515815260200160405180910390a15b50565b60046111bd613d5b565b81565b6111c86133b8565b8060176001816111d6613d5b565b816001600160a01b0302191690836001600160a01b0316021790610e49613f74565b6112006133b8565b6001600160a01b0381166112635760405162461bcd60e51b815260206004820152601c60248201527f42656e6566696369617279206d757374206e6f74206265207a65726f00000000604482015260640160405180910390611260613cf0565b50505b80600561010081611272613d5b565b816001600160a01b0302191690836001600160a01b0316021790611294613f74565b5050507fd5da63a0b864b315bc04128dedbc93888c8529ee6cf47ce664dc204339228c53816040516001600160a01b03909116815260200160405180910390a150565b6112df6133b8565b60008060046112ec613f74565b5050506000600560006101000a81611302613d5b565b8160ff02191690831515021790611317613f74565b5050507f6adcc7125002935e0aa31697538ebbd65cfddf20431eb6ecdcfc3e238bfd082c60405160405180910390a1565b6113506133b8565b73__$981eaff4516d951b878b1a7f17446065b3$__63907af6c06040518163ffffffff1660e01b8152600401602060405180830381868061138f613db6565b1580156113a4576000806113a1613cf0565b50505b505a6113ae613fc2565b50505050501580156113cd573d6000803e3d60006113ca613cf0565b50505b505050506040513d60208110156113ec576000806113e9613cf0565b50505b810190808051841115925061143e9150505760405162461bcd60e51b815260040180806020018281038252602881526020018061422e602891396040019150506040518091039061143b613cf0565b50505b8080600b61144a613f74565b5050507f01634ac4e9f09be1ef87b8d09e14926870261dcb9a0929d2d6460af6e4c5ad1e8160405190815260200160405180910390a150565b61148b6133b8565b60006011611497613d5b565b906101000a900460ff161515811515146111b0578060116001816114b9613d5b565b8160ff021916908315150217906114ce613f74565b5050507fcc590b6309435383b617aaa0cae6aba938f2ee471cfb539201dd7655a23caff981604051901515815260200160405180910390a150565b6115116133b8565b80600660018161151f613d5b565b816001600160a01b0302191690836001600160a01b0316021790611541613f74565b5060009150505b600880611553613d5b565b90508110156116cf5760006008828161156a613d5b565b811061157257fe5b90600052602060002001611584613d5b565b905060006006611592613d5b565b906101000a90046001600160a01b03166001600160a01b031663dacb2d01826040516001600160e01b031960e084901b1681526004810191909152604060248201819052601760448301527f5265736f6c766572206d697373696e672074617267657400000000000000000060648301526084909101906020905180830381868061161b613db6565b1580156116305760008061162d613cf0565b50505b505a61163a613e02565b5050505050158015611659573d6000803e3d6000611656613cf0565b50505b505050506040513d602081101561167857600080611675613cf0565b50505b810190808051600085815260076020529093506040925090502060018161169d613d5b565b816001600160a01b0302191690836001600160a01b03160217906116bf613f74565b5050600190920191506115489050565b5050565b600c806116de613d5b565b90806001016116eb613d5b565b90806002016116f8613d5b565b905083565b60006001610e5b613d5b565b6117116133b8565b60005b81811015610e495782828281811061172857fe5b905060200201356001600160a01b03166001600160a01b0316633be99e6f856040516001600160e01b031960e084901b1681526001600160a01b03909116600482015260240160006040518083038160008780611783613db6565b15801561179857600080611795613cf0565b50505b505a6117a2613ebb565b5050505050501580156117c2573d6000803e3d60006117bf613cf0565b50505b5050600190920191506117149050565b600060036117de613d5b565b906101000a900460ff1681565b60006001600160a01b038216816006611802613d5b565b906101000a90046001600160a01b03166001600160a01b031614611828575060006119c2565b60005b600880611836613d5b565b90508110156119bc5760006008828161184d613d5b565b811061185557fe5b90600052602060002001611867613d5b565b6000818152600760205290915060409020600090611883613d5b565b6001600160a01b036101009290920a900416600060066118a1613d5b565b906101000a90046001600160a01b03166001600160a01b03166321f8a721836040516001600160e01b031960e084901b168152600481019190915260240160206040518083038186806118f2613db6565b15801561190757600080611904613cf0565b50505b505a611911613e02565b5050505050158015611930573d6000803e3d600061192d613cf0565b50505b505050506040513d602081101561194f5760008061194c613cf0565b50505b8101908080516001600160a01b0316939093141592508291506119a3905057506000818152600760205260408120600090611988613d5b565b906101000a90046001600160a01b03166001600160a01b0316145b156119b3576000925050506119c2565b5060010161182b565b50600190505b919050565b600060116117de613d5b565b6119db6133b8565b8080600e6119e7613f74565b5050507f6de18e808fc4e6cb9c8910cf4bdc188ddbbdab65faecff65dab871720e8484898160405190815260200160405180910390a150565b611a315a611a2c61404b565b613432565b611a755760405162461bcd60e51b81526004018080602001828103825260218152602001806141546021913960400191505060405180910390611a72613cf0565b50505b60006003611a81613d5b565b906101000a900460ff1615611ad05760405162461bcd60e51b815260040180806020018281038252603c8152602001806141c9603c913960400191505060405180910390611acd613cf0565b50505b611ad86136f4565b6001600160a01b031663086dabd16040518163ffffffff1660e01b81526004016000604051808303818680611b0b613db6565b158015611b2057600080611b1d613cf0565b50505b505a611b2a613e02565b5050505050158015611b49573d6000803e3d6000611b46613cf0565b50505b50505050611b5b816012610cf9613d5b565b806012610e49613f74565b611b6e6133b8565b73__$981eaff4516d951b878b1a7f17446065b3$__63907af6c06040518163ffffffff1660e01b81526004016020604051808303818680611bad613db6565b158015611bc257600080611bbf613cf0565b50505b505a611bcc613fc2565b5050505050158015611beb573d6000803e3d6000611be8613cf0565b50505b505050506040513d6020811015611c0a57600080611c07613cf0565b50505b8101908080518411159250611c5c9150505760405162461bcd60e51b815260040180806020018281038252602d8152602001806140e4602d913960400191505060405180910390611c59613cf0565b50505b80806010611c68613f74565b5050507fd39cfbe31b20dbb6d995a675cf5c369555bf8bb908b6efc03873907fe9e133cf8160405190815260200160405180910390a150565b611cb260138263ffffffff61374716565b611d025760405162461bcd60e51b8152602060048201526014602482015273139bdd08185b881858dd1a5d99481b585c9ad95d60621b604482015260640160405180910390611cff613cf0565b50505b806001600160a01b0316632810e1d66040518163ffffffff1660e01b815260040160006040518083038160008780611d38613db6565b158015611d4d57600080611d4a613cf0565b50505b505a611d57613ebb565b505050505050158015611d77573d6000803e3d6000611d74613cf0565b50505b50505050611d8f81601361345c90919063ffffffff16565b6111b060158263ffffffff6137e616565b60006001611dac613d5b565b906101000a90046001600160a01b03166001600160a01b03165a611dce61404b565b6001600160a01b031614611e1c5760405162461bcd60e51b81526004018080602001828103825260358152602001806140af6035913960400191505060405180910390611e19613cf0565b50505b7fb532073b38c83145e3e5135377a08bf9aab55bc0fd7c1179cd4fb995d2a5159c600080611e48613d5b565b906101000a90046001600160a01b03166001600090611e65613d5b565b906101000a90046001600160a01b03166040516001600160a01b039283168152911660208201526040908101905180910390a160006001611ea4613d5b565b906101000a90046001600160a01b03166000806101000a81611ec4613d5b565b816001600160a01b0302191690836001600160a01b0316021790611ee6613f74565b5050506000600160006101000a81611efc613d5b565b816001600160a01b0302191690836001600160a01b0316021790611f1e613f74565b505050565b6060611f376015848463ffffffff61387916565b90505b92915050565b600080610e5b613d5b565b60026111bd613d5b565b6000806003611f62613d5b565b906101000a900460ff1615611fb15760405162461bcd60e51b815260040180806020018281038252603c8152602001806141c9603c913960400191505060405180910390611fae613cf0565b50505b611fb96136f4565b6001600160a01b031663086dabd16040518163ffffffff1660e01b81526004016000604051808303818680611fec613db6565b15801561200157600080611ffe613cf0565b50505b505a61200b613e02565b505050505015801561202a573d6000803e3d6000612027613cf0565b50505b50505050601160009061203b613d5b565b906101000a900460ff1661209e5760405162461bcd60e51b815260206004820152601b60248201527f4d61726b6574206372656174696f6e2069732064697361626c6564000000000060448201526064016040518091039061209b613cf0565b50505b6120a78661398a565b6120ee5760405162461bcd60e51b815260206004820152600b60248201526a496e76616c6964206b657960a81b6044820152606401604051809103906120eb613cf0565b50505b82356020840135600e6120ff613d5b565b5a612108614005565b018111156121655760405162461bcd60e51b815260206004820152601e60248201527f4d6174757269747920746f6f2066617220696e20746865206675747572650000604482015260640160405180910390612162613cf0565b50505b6000612181600d612174613d5b565b839063ffffffff61362716565b9050600061219486356020880135613627565b9050835a6121a0614005565b106121fa5760405162461bcd60e51b815260206004820152601960248201527f456e64206f662062696464696e672068617320706173736564000000000000006044820152606401604051809103906121f7613cf0565b50505b8284106122565760405162461bcd60e51b815260206004820181905260248201527f4d6174757269747920707265646174657320656e64206f662062696464696e67604482015260640160405180910390612253613cf0565b50505b6000612260613b57565b6001600160a01b031663130efa505a61227761404b565b6040516040808201905280600f61228c613d5b565b8152602001601061229b613d5b565b90528e8e8e60405180606001604052808d81526020018c81526020018b8152508e604051606081016040528060096122d1613d5b565b8152602001600a6122e0613d5b565b8152602001600b6122ef613d5b565b90526040516001600160e01b031960e08b901b1681526001600160a01b038916600482019081529060240188604080838360005b8381101561233b578082015183820152602001612323565b505050509050018781526020018681526020018515151515815260200184600360200280838360005b8381101561237c578082015183820152602001612364565b5050505090500183600260200280828437600081840152601f19601f82011690508083019250505082600360200280838360005b838110156123c85780820151838201526020016123b0565b5050505090500198505050505050505050602060405180830381600087806123ee613db6565b15801561240357600080612400613cf0565b50505b505a61240d613ebb565b50505050505015801561242d573d6000803e3d600061242a613cf0565b50505b505050506040513d602081101561244c57600080612449613cf0565b50505b8101908080519350506001600160a01b0383169150633be99e6f905060006006612474613d5b565b906101000a90046001600160a01b03166040516001600160e01b031960e084901b1681526001600160a01b039091166004820152602401600060405180830381600087806124c0613db6565b1580156124d5576000806124d2613cf0565b50505b505a6124df613ebb565b5050505050501580156124ff573d6000803e3d60006124fc613cf0565b50505b505050506125178160136137e690919063ffffffff16565b612531826012612525613d5b565b9063ffffffff61362716565b80601261253c613f74565b505050612547613b99565b6001600160a01b03166323b872dd5a61255e61404b565b83856040516001600160e01b031960e086901b1681526001600160a01b0393841660048201529190921660248201526044810191909152606401602060405180830381600087806125ad613db6565b1580156125c2576000806125bf613cf0565b50505b505a6125cc613ebb565b5050505050501580156125ec573d6000803e3d60006125e9613cf0565b50505b505050506040513d602081101561260b57600080612608613cf0565b50505b810190808051508d925050505a61262061404b565b6001600160a01b03167fbcd154709bbe69680012cadcd07d57bd4a0ec64a033c2a3e31d2d0fadb38d3a8838d8989896040516001600160a01b03909516855260208501939093526040808501929092526060840152608083019190915260a0909101905180910390a39a9950505050505050505050565b61269f6133b8565b6000600a6126ab613d5b565b8201905073__$981eaff4516d951b878b1a7f17446065b3$__63907af6c06040518163ffffffff1660e01b815260040160206040518083038186806126ee613db6565b15801561270357600080612700613cf0565b50505b505a61270d613fc2565b505050505015801561272c573d6000803e3d6000612729613cf0565b50505b505050506040513d602081101561274b57600080612748613cf0565b50505b8101908080518410925061279c9150505760405162461bcd60e51b81526004018080602001828103825260218152602001806141116021913960400191505060405180910390612799613cf0565b50505b806000106127f95760405162461bcd60e51b815260206004820152601a60248201527f546f74616c20666565206d757374206265206e6f6e7a65726f2e0000000000006044820152606401604051809103906127f6613cf0565b50505b81806009612805613f74565b5050507f7b30e8f8e3de254785fbcb3068449dc18060f1fdb37b02731ecada99a78492c38260405190815260200160405180910390a15050565b6009806116de613d5b565b6128526133b8565b6000600561285e613d5b565b906101000a900460ff166128c15760405162461bcd60e51b815260206004820152601f60248201527f53656c66204465737472756374206e6f742079657420696e69746961746564006044820152606401604051809103906128be613cf0565b50505b5a6128ca614005565b6224ea0060046128d8613d5b565b01106129335760405162461bcd60e51b815260206004820152601b60248201527f53656c662064657374727563742064656c6179206e6f74206d65740000000000604482015260640160405180910390612930613cf0565b50505b7f8a09e1677ced846cb537dc2b172043bd05a1a81ad7e0033a7ef8ba762df990b760016005612960613d5b565b906101000a90046001600160a01b03166040516001600160a01b03909116815260200160405180910390a1565b6224ea0081565b61299c614091565b60005b6008806129aa613d5b565b90508110156129f257600881816129bf613d5b565b81106129c757fe5b906000526020600020016129d9613d5b565b8282601881106129e557fe5b602002015260010161299f565b5090565b6000601580610ae4613d5b565b60006017612a0f613d5b565b906101000a90046001600160a01b03166001600160a01b03165a612a3161404b565b6001600160a01b031614612a7f5760405162461bcd60e51b81526004018080602001828103825260258152602001806141a46025913960400191505060405180910390612a7c613cf0565b50505b8080612a8b5750611f1e565b600084612a99576015612a9c565b60135b90506000805b83811015612bf3576000868683818110612ab857fe5b905060200201356001600160a01b03169050612ad381613432565b15612b255760405162461bcd60e51b815260206004820152601560248201527426b0b935b2ba1030b63932b0b23c9035b737bbb71760591b604482015260640160405180910390612b22613cf0565b50505b806001600160a01b03166379ba50976040518163ffffffff1660e01b815260040160006040518083038160008780612b5b613db6565b158015612b7057600080612b6d613cf0565b50505b505a612b7a613ebb565b505050505050158015612b9a573d6000803e3d6000612b97613cf0565b50505b50505050612bb181856137e690919063ffffffff16565b612be8816001600160a01b031663eef49ee36040518163ffffffff1660e01b81526004016020604051808303818680610bd8613db6565b925050600101612aa2565b50612c02816012612525613d5b565b806012612c0d613f74565b5050507fea7a4e14e72ba7db7e2fd406278900badf50b2ce7d9def39d613cc08054c537b6017600090612c3e613d5b565b906101000a90046001600160a01b031686866040516001600160a01b03841681526040602080830182815291830184905260608301908590850280828437600083820152601f01601f1916909101955060409450505050505180910390a1505050505050565b612cbe5a612cb061404b565b60139063ffffffff61374716565b612d025760405162461bcd60e51b81526004018080602001828103825260228152602001806141326022913960400191505060405180910390612cff613cf0565b50505b60006003612d0e613d5b565b906101000a900460ff1615612d5d5760405162461bcd60e51b815260040180806020018281038252603c8152602001806141c9603c913960400191505060405180910390612d5a613cf0565b50505b612d656136f4565b6001600160a01b031663086dabd16040518163ffffffff1660e01b81526004016000604051808303818680612d98613db6565b158015612dad57600080612daa613cf0565b50505b505a612db7613e02565b5050505050158015612dd6573d6000803e3d6000612dd3613cf0565b50505b50505050611b5b816012612525613d5b565b600060056117de613d5b565b612dfc6133b8565b5a612e05614005565b806004612e10613f74565b5050506001600560006101000a81612e26613d5b565b8160ff02191690831515021790612e3b613f74565b5050507fcbd94ca75b8dc45c9d80c77e851670e78843c0d75180cb81db3e2158228fa9a66224ea0060405190815260200160405180910390a1565b612e7e6133b8565b8080600c612e8a613f74565b5050507f5a2f2eae84f9e787d8159d363a776fa2b61d084686190cdc5a2c1ea833480b098160405190815260200160405180910390a150565b600f80612ece613d5b565b9080600101612edb613d5b565b905082565b60006003612eec613d5b565b906101000a900460ff1615612f3b5760405162461bcd60e51b815260040180806020018281038252603c8152602001806141c9603c913960400191505060405180910390612f38613cf0565b50505b60005b81811015611f1e576000838383818110612f5457fe5b905060200201356001600160a01b03169050806001600160a01b031663c8db233e5a612f7e61404b565b6040516001600160e01b031960e084901b1681526001600160a01b03909116600482015260240160006040518083038160008780612fba613db6565b158015612fcf57600080612fcc613cf0565b50505b505a612fd9613ebb565b505050505050158015612ff9573d6000803e3d6000612ff6613cf0565b50505b5050505061301181601561345c90919063ffffffff16565b7f16e62064e42f5aec62df22ae895ef539f153e0d4ea290e2cc4e0e8f708f2fbbc816040516001600160a01b03909116815260200160405180910390a150600101612f3e565b61305f6133b8565b8080600f61306b613f74565b5050507fdf7a26ae2e2eb953b81fd76b72fcdc74ebff7c21faa8f8f55323183d9785f52d8160405190815260200160405180910390a150565b60016005610e5b613d5b565b600881816130bc613d5b565b81106130c457fe5b9060005260206000200190506111bd613d5b565b601881565b6060611f376013848463ffffffff61387916565b600060036130fd613d5b565b906101000a900460ff161561314c5760405162461bcd60e51b815260040180806020018281038252603c8152602001806141c9603c913960400191505060405180910390613149613cf0565b50505b61315d60138263ffffffff61374716565b6131ad5760405162461bcd60e51b8152602060048201526014602482015273139bdd08185b881858dd1a5d99481b585c9ad95d60621b6044820152606401604051809103906131aa613cf0565b50505b6000816001600160a01b03166302d05d3f6040518163ffffffff1660e01b815260040160206040518083038186806131e3613db6565b1580156131f8576000806131f5613cf0565b50505b505a613202613e02565b5050505050158015613221573d6000803e3d600061321e613cf0565b50505b505050506040513d60208110156132405760008061323d613cf0565b50505b8101908080519350506001600160a01b0383169150505a61325f61404b565b6001600160a01b0316146132c25760405162461bcd60e51b815260206004820152601960248201527f53656e646572206e6f74206d61726b65742063726561746f72000000000000006044820152606401604051809103906132bf613cf0565b50505b816001600160a01b0316634c33fe945a6132da61404b565b6040516001600160e01b031960e084901b1681526001600160a01b03909116600482015260240160006040518083038160008780613316613db6565b15801561332b57600080613328613cf0565b50505b505a613335613ebb565b505050505050158015613355573d6000803e3d6000613352613cf0565b50505b5050505061336d82601361345c90919063ffffffff16565b7f996fafab197beb99fff6fdc975bb6cf90352f2c733c76ef37c2e27f17d7d424b826040516001600160a01b03909116815260200160405180910390a15050565b60126111bd613d5b565b6000806133c3613d5b565b906101000a90046001600160a01b03166001600160a01b03165a6133e561404b565b6001600160a01b0316146134305760405162461bcd60e51b815260040180806020018281038252602f815260200180614175602f9139604001915050604051809103906116cf613cf0565b565b600061344560138363ffffffff61374716565b80611f3a5750611f3a60158363ffffffff61374716565b6134668282613747565b6134b65760405162461bcd60e51b815260206004820152601460248201527322b632b6b2b73a103737ba1034b7103634b9ba1760611b6044820152606401604051809103906134b3613cf0565b50505b6001600160a01b038116600090815260018301602052604081206134d8613d5b565b90506000600184806134e8613d5b565b90500390508082146135ac576000848281613501613d5b565b811061350957fe5b9060005260206000200160009061351e613d5b565b906101000a90046001600160a01b031690508085600001848161353f613d5b565b811061354757fe5b9060005260206000200160018161355c613d5b565b816001600160a01b0302191690836001600160a01b031602179061357e613f74565b5050506001600160a01b03811660009081526001860160205283906040902081906135a7613f74565b505050505b83806135b6613d5b565b806135bd57fe5b600190038181906000526020600020016001816135d8613d5b565b906001600160a01b03021916906135ed613f74565b5050906135f8613f74565b50506001600160a01b0383166000908152600185016020526040902060009061361f613f74565b505050505050565b600082820183811015611f375760405162461bcd60e51b815260206004820152601b60248201527f536166654d6174683a206164646974696f6e206f766572666c6f770000000000604482015260640160405180910390613686613cf0565b50509392505050565b6000828211156136ee5760405162461bcd60e51b815260206004820152601e60248201527f536166654d6174683a207375627472616374696f6e206f766572666c6f7700006044820152606401604051809103906136eb613cf0565b50505b50900390565b60006137426b53797374656d53746174757360a01b60405160408082019052601c81527f4d697373696e672053797374656d5374617475732061646472657373000000006020820152613be0565b905090565b60008280613753613d5b565b1515905061376357506000611f3a565b6001600160a01b03821660009081526001840160205260408120613785613d5b565b9050801515806137de57506001600160a01b038316846000816137a6613d5b565b81106137ae57fe5b906000526020600020016000906137c3613d5b565b906101000a90046001600160a01b03166001600160a01b0316145b949350505050565b81806137f0613d5b565b6001600160a01b038316600090815260018501602052909150604090208190613817613f74565b508291508390508060018161382a613d5b565b018082613835613f74565b5050600092835291600019830191506020902091929101600181613857613d5b565b816001600160a01b0302191690836001600160a01b031602179061361f613f74565b60608282018480613888613d5b565b905081111561389f57848061389b613d5b565b9150505b8381116138da5760006040519080825280602002602001820160405280156138d1578160200160208202803883390190505b50915050613983565b838103606081604051908082528060200260200182016040528015613909578160200160208202803883390190505b50905060005b8281101561397d578781880181613924613d5b565b811061392c57fe5b90600052602060002001600090613941613d5b565b906101000a90046001600160a01b031682828151811061395d57fe5b6001600160a01b039092166020928302919091019091015260010161390f565b50925050505b9392505050565b600080613995613ca9565b9050806001600160a01b031663ac82f608846040516001600160e01b031960e084901b168152600481019190915260240160206040518083038186806139d9613db6565b1580156139ee576000806139eb613cf0565b50505b505a6139f8613e02565b5050505050158015613a17573d6000803e3d6000613a14613cf0565b50505b505050506040513d6020811015613a3657600080613a33613cf0565b50505b810190808051159250613b4e9150505782631cd554d160e21b1415613a5f5760009150506119c2565b6000816001600160a01b031663728dec29856040516001600160e01b031960e084901b168152600481019190915260240160a0604051808303818680613aa3613db6565b158015613ab857600080613ab5613cf0565b50505b505a613ac2613e02565b5050505050158015613ae1573d6000803e3d6000613ade613cf0565b50505b505050506040513d60a0811015613b0057600080613afd613cf0565b50505b8101908080519291906020018051929190602001805192919060200180519291906020018051509596505085159450613b439350505050576000925050506119c2565b6001925050506119c2565b50600092915050565b60006137427f42696e6172794f7074696f6e4d61726b6574466163746f7279000000000000006040516060810160405260298082526142056020830139613be0565b60006137426814de5b9d1a1cd554d160ba1b60405160408082019052601981527f4d697373696e672053796e74687355534420616464726573730000000000000060208201525b600082815260076020528060408120600090613bfa613d5b565b6001600160a01b036101009290920a90041690508281613ca15760405162461bcd60e51b81526004018080602001828103825283818151815260200191508051906020019080838360005b83811015613c5d578082015183820152602001613c45565b50505050905090810190601f168015613c8a5780820380516001836020036101000a031916815260200191505b509250505060405180910390613c9e613cf0565b50505b509392505050565b60006137426c45786368616e6765526174657360981b6040516040808201905260158152744d697373696e672045786368616e6765526174657360581b6020820152613be0565b632a2a7adb598160e01b8152600481016020815285602082015260005b86811015613d28578086015182820160400152602001613d0d565b506020828760640184336000905af158601d01573d60011458600c01573d6000803e3d621234565260ea61109c52505050565b6303daa959598160e01b8152836004820152602081602483336000905af158601d01573d60011458600c01573d6000803e3d621234565260ea61109c528051935060005b6040811015611f1e57600082820152602001613d9f565b638435035b598160e01b8152836004820152602081602483336000905af158601d01573d60011458600c01573d6000803e3d621234565260ea61109c5280516000825293506020613d9f565b638540661f598160e01b8152836004820152846024820152606060448201528660648201526084810160005b88811015613e46578088015182820152602001613e2e565b50876101040182016060838a6101040185336000905af158601d01573d60011458600c01573d6000803e3d621234565260ea61109c52825160408401513d6000863e8c8c82606088013350600060045af15059855b81811015613eaf5760008152602001613e9b565b50919c50505050505050565b6385979f76598160e01b8152836004820152846024820152606060448201528760648201526084810160005b89811015613eff578089015182820152602001613ee7565b50886101040182016060838b6101040185336000905af158601d01573d60011458600c01573d6000803e3d621234565260ea61109c52825160408401513d6000863e8d8d82606088013350600060045af15059855b81811015613f685760008152602001613f54565b50919d50505050505050565b6322bd64c0598160e01b8152836004820152846024820152600081604483336000905af158601d01573d60011458600c01573d6000803e3d621234565260ea61109c52600081526020613d9f565b63ffe73914598160e01b81528360048201528460248201526060604482015286606482015260848101600088811015613e46578088015182820152602001613e2e565b63bdbf8c36598160e01b8152602081600483336000905af158601d01573d60011458600c01573d6000803e3d621234565260ea61109c5280516000825293506020613d9f565b6373509064598160e01b8152602081600483336000905af158601d01573d60011458600c01573d6000803e3d621234565260ea61109c5280516000825293506020613d9f565b60405161030080820160405260189082908038833950919291505056fe596f75206d757374206265206e6f6d696e61746564206265666f726520796f752063616e20616363657074206f776e65727368697043726561746f7220736b6577206c696d6974206d757374206265206e6f2067726561746572207468616e20312e546f74616c20666565206d757374206265206c657373207468616e20313030252e5065726d6974746564206f6e6c7920666f7220616374697665206d61726b6574732e5065726d6974746564206f6e6c7920666f72206b6e6f776e206d61726b6574732e4f6e6c792074686520636f6e7472616374206f776e6572206d617920706572666f726d207468697320616374696f6e4f6e6c79207065726d697474656420666f72206d6967726174696e67206d616e616765722e5468697320616374696f6e2063616e6e6f7420626520706572666f726d6564207768696c652074686520636f6e7472616374206973207061757365644d697373696e672042696e6172794f7074696f6e4d61726b6574466163746f72792061646472657373526566756e6420666565206d757374206265206e6f2067726561746572207468616e20313030252e",
			"opcodes": "PUSH1 0x80 PUSH1 0x40 MSTORE CALLVALUE DUP1 ISZERO PUSH2 0x19 JUMPI PUSH1 0x0 DUP1 PUSH2 0x16 PUSH2 0x3CF0 JUMP JUMPDEST POP POP JUMPDEST POP PUSH1 0x4 CALLDATASIZE LT PUSH2 0x2C4 JUMPI PUSH1 0x0 CALLDATALOAD PUSH1 0xE0 SHR DUP1 PUSH4 0x79BA5097 GT PUSH2 0x18B JUMPI DUP1 PUSH4 0xAEAB5849 GT PUSH2 0xF2 JUMPI DUP1 PUSH4 0xC095DAF2 GT PUSH2 0xAB JUMPI DUP1 PUSH4 0xE3235C91 GT PUSH2 0x85 JUMPI DUP1 PUSH4 0xE3235C91 EQ PUSH2 0xA6C JUMPI DUP1 PUSH4 0xE73EFC9B EQ PUSH2 0xA74 JUMPI DUP1 PUSH4 0xFE40C470 EQ PUSH2 0xAA0 JUMPI DUP1 PUSH4 0xFF50ABDC EQ PUSH2 0xACF JUMPI PUSH2 0x2C4 JUMP JUMPDEST DUP1 PUSH4 0xC095DAF2 EQ PUSH2 0xA18 JUMPI DUP1 PUSH4 0xC58AAAE6 EQ PUSH2 0xA3E JUMPI DUP1 PUSH4 0xC6C9D828 EQ PUSH2 0xA46 JUMPI PUSH2 0x2C4 JUMP JUMPDEST DUP1 PUSH4 0xAEAB5849 EQ PUSH2 0x90A JUMPI DUP1 PUSH4 0xB8225DEC EQ PUSH2 0x930 JUMPI DUP1 PUSH4 0xBD32AA44 EQ PUSH2 0x938 JUMPI DUP1 PUSH4 0xBD6A10B8 EQ PUSH2 0x940 JUMPI DUP1 PUSH4 0xBE5AF9FE EQ PUSH2 0x966 JUMPI DUP1 PUSH4 0xC014FB84 EQ PUSH2 0x986 JUMPI PUSH2 0x2C4 JUMP JUMPDEST DUP1 PUSH4 0x9AF1D35A GT PUSH2 0x144 JUMPI DUP1 PUSH4 0x9AF1D35A EQ PUSH2 0x80E JUMPI DUP1 PUSH4 0x9CB8A26A EQ PUSH2 0x816 JUMPI DUP1 PUSH4 0xA461FC82 EQ PUSH2 0x81E JUMPI DUP1 PUSH4 0xAB49848C EQ PUSH2 0x826 JUMPI DUP1 PUSH4 0xAC60C486 EQ PUSH2 0x867 JUMPI DUP1 PUSH4 0xADFD31AF EQ PUSH2 0x86F JUMPI PUSH2 0x2C4 JUMP JUMPDEST DUP1 PUSH4 0x79BA5097 EQ PUSH2 0x713 JUMPI DUP1 PUSH4 0x89C6318D EQ PUSH2 0x71B JUMPI DUP1 PUSH4 0x8DA5CB5B EQ PUSH2 0x79A JUMPI DUP1 PUSH4 0x91B4DED9 EQ PUSH2 0x7A2 JUMPI DUP1 PUSH4 0x94FCF3C3 EQ PUSH2 0x7AA JUMPI DUP1 PUSH4 0x9501DC87 EQ PUSH2 0x7E8 JUMPI PUSH2 0x2C4 JUMP JUMPDEST DUP1 PUSH4 0x39AB4C41 GT PUSH2 0x22F JUMPI DUP1 PUSH4 0x631E1444 GT PUSH2 0x1E8 JUMPI DUP1 PUSH4 0x631E1444 EQ PUSH2 0x63B JUMPI DUP1 PUSH4 0x64AF2D87 EQ PUSH2 0x66A JUMPI DUP1 PUSH4 0x64CF34BD EQ PUSH2 0x672 JUMPI DUP1 PUSH4 0x6B3A0984 EQ PUSH2 0x698 JUMPI DUP1 PUSH4 0x73B7DE15 EQ PUSH2 0x6BE JUMPI DUP1 PUSH4 0x7859F410 EQ PUSH2 0x6E4 JUMPI PUSH2 0x2C4 JUMP JUMPDEST DUP1 PUSH4 0x39AB4C41 EQ PUSH2 0x4F2 JUMPI DUP1 PUSH4 0x3BE99E6F EQ PUSH2 0x51A JUMPI DUP1 PUSH4 0x4A41D89D EQ PUSH2 0x549 JUMPI DUP1 PUSH4 0x53A47BB7 EQ PUSH2 0x575 JUMPI DUP1 PUSH4 0x543D6C74 EQ PUSH2 0x57D JUMPI DUP1 PUSH4 0x5C975ABB EQ PUSH2 0x61F JUMPI PUSH2 0x2C4 JUMP JUMPDEST DUP1 PUSH4 0x16C38B3C GT PUSH2 0x281 JUMPI DUP1 PUSH4 0x16C38B3C EQ PUSH2 0x436 JUMPI DUP1 PUSH4 0x17C70DE4 EQ PUSH2 0x45E JUMPI DUP1 PUSH4 0x1F3F10B0 EQ PUSH2 0x466 JUMPI DUP1 PUSH4 0x20714F88 EQ PUSH2 0x495 JUMPI DUP1 PUSH4 0x3278C960 EQ PUSH2 0x4C4 JUMPI DUP1 PUSH4 0x36FD711E EQ PUSH2 0x4CC JUMPI PUSH2 0x2C4 JUMP JUMPDEST DUP1 PUSH4 0x2610C50 EQ PUSH2 0x2D2 JUMPI DUP1 PUSH4 0x3FF6018 EQ PUSH2 0x2EC JUMPI DUP1 PUSH4 0x4F3BCEC EQ PUSH2 0x397 JUMPI DUP1 PUSH4 0xDD16FD5 EQ PUSH2 0x3BB JUMPI DUP1 PUSH4 0x15502840 EQ PUSH2 0x3E1 JUMPI DUP1 PUSH4 0x1627540C EQ PUSH2 0x407 JUMPI JUMPDEST PUSH1 0x0 DUP1 PUSH2 0x2CF PUSH2 0x3CF0 JUMP JUMPDEST POP POP JUMPDEST PUSH2 0x2DA PUSH2 0xAD7 JUMP JUMPDEST PUSH1 0x40 MLOAD SWAP1 DUP2 MSTORE PUSH1 0x20 ADD PUSH1 0x40 MLOAD DUP1 SWAP2 SUB SWAP1 RETURN JUMPDEST PUSH2 0x395 PUSH1 0x4 DUP1 CALLDATASIZE SUB PUSH1 0x60 DUP2 LT ISZERO PUSH2 0x30B JUMPI PUSH1 0x0 DUP1 PUSH2 0x308 PUSH2 0x3CF0 JUMP JUMPDEST POP POP JUMPDEST PUSH1 0x1 PUSH1 0x1 PUSH1 0xA0 SHL SUB DUP3 CALLDATALOAD AND SWAP2 PUSH1 0x20 DUP2 ADD CALLDATALOAD ISZERO ISZERO SWAP2 DUP2 ADD SWAP1 PUSH1 0x60 DUP2 ADD PUSH1 0x40 DUP3 ADD CALLDATALOAD PUSH1 0x1 PUSH1 0x20 SHL DUP2 GT ISZERO PUSH2 0x345 JUMPI PUSH1 0x0 DUP1 PUSH2 0x342 PUSH2 0x3CF0 JUMP JUMPDEST POP POP JUMPDEST DUP3 ADD DUP4 PUSH1 0x20 DUP3 ADD GT ISZERO PUSH2 0x360 JUMPI PUSH1 0x0 DUP1 PUSH2 0x35D PUSH2 0x3CF0 JUMP JUMPDEST POP POP JUMPDEST DUP1 CALLDATALOAD SWAP1 PUSH1 0x20 ADD SWAP2 DUP5 PUSH1 0x20 DUP4 MUL DUP5 ADD GT PUSH1 0x1 PUSH1 0x20 SHL DUP4 GT OR ISZERO PUSH2 0x38A JUMPI PUSH1 0x0 DUP1 PUSH2 0x387 PUSH2 0x3CF0 JUMP JUMPDEST POP POP JUMPDEST POP SWAP1 SWAP3 POP SWAP1 POP PUSH2 0xAEA JUMP JUMPDEST STOP JUMPDEST PUSH2 0x39F PUSH2 0xE4F JUMP JUMPDEST PUSH1 0x40 MLOAD PUSH1 0x1 PUSH1 0x1 PUSH1 0xA0 SHL SUB SWAP1 SWAP2 AND DUP2 MSTORE PUSH1 0x20 ADD PUSH1 0x40 MLOAD DUP1 SWAP2 SUB SWAP1 RETURN JUMPDEST PUSH2 0x395 PUSH1 0x4 DUP1 CALLDATASIZE SUB PUSH1 0x20 DUP2 LT ISZERO PUSH2 0x3DA JUMPI PUSH1 0x0 DUP1 PUSH2 0x3D7 PUSH2 0x3CF0 JUMP JUMPDEST POP POP JUMPDEST POP CALLDATALOAD PUSH2 0xE6E JUMP JUMPDEST PUSH2 0x395 PUSH1 0x4 DUP1 CALLDATASIZE SUB PUSH1 0x20 DUP2 LT ISZERO PUSH2 0x400 JUMPI PUSH1 0x0 DUP1 PUSH2 0x3FD PUSH2 0x3CF0 JUMP JUMPDEST POP POP JUMPDEST POP CALLDATALOAD PUSH2 0x1016 JUMP JUMPDEST PUSH2 0x395 PUSH1 0x4 DUP1 CALLDATASIZE SUB PUSH1 0x20 DUP2 LT ISZERO PUSH2 0x426 JUMPI PUSH1 0x0 DUP1 PUSH2 0x423 PUSH2 0x3CF0 JUMP JUMPDEST POP POP JUMPDEST POP CALLDATALOAD PUSH1 0x1 PUSH1 0x1 PUSH1 0xA0 SHL SUB AND PUSH2 0x1063 JUMP JUMPDEST PUSH2 0x395 PUSH1 0x4 DUP1 CALLDATASIZE SUB PUSH1 0x20 DUP2 LT ISZERO PUSH2 0x455 JUMPI PUSH1 0x0 DUP1 PUSH2 0x452 PUSH2 0x3CF0 JUMP JUMPDEST POP POP JUMPDEST POP CALLDATALOAD ISZERO ISZERO PUSH2 0x10DD JUMP JUMPDEST PUSH2 0x2DA PUSH2 0x11B3 JUMP JUMPDEST PUSH2 0x395 PUSH1 0x4 DUP1 CALLDATASIZE SUB PUSH1 0x20 DUP2 LT ISZERO PUSH2 0x485 JUMPI PUSH1 0x0 DUP1 PUSH2 0x482 PUSH2 0x3CF0 JUMP JUMPDEST POP POP JUMPDEST POP CALLDATALOAD PUSH1 0x1 PUSH1 0x1 PUSH1 0xA0 SHL SUB AND PUSH2 0x11C0 JUMP JUMPDEST PUSH2 0x395 PUSH1 0x4 DUP1 CALLDATASIZE SUB PUSH1 0x20 DUP2 LT ISZERO PUSH2 0x4B4 JUMPI PUSH1 0x0 DUP1 PUSH2 0x4B1 PUSH2 0x3CF0 JUMP JUMPDEST POP POP JUMPDEST POP CALLDATALOAD PUSH1 0x1 PUSH1 0x1 PUSH1 0xA0 SHL SUB AND PUSH2 0x11F8 JUMP JUMPDEST PUSH2 0x395 PUSH2 0x12D7 JUMP JUMPDEST PUSH2 0x395 PUSH1 0x4 DUP1 CALLDATASIZE SUB PUSH1 0x20 DUP2 LT ISZERO PUSH2 0x4EB JUMPI PUSH1 0x0 DUP1 PUSH2 0x4E8 PUSH2 0x3CF0 JUMP JUMPDEST POP POP JUMPDEST POP CALLDATALOAD PUSH2 0x1348 JUMP JUMPDEST PUSH2 0x395 PUSH1 0x4 DUP1 CALLDATASIZE SUB PUSH1 0x20 DUP2 LT ISZERO PUSH2 0x511 JUMPI PUSH1 0x0 DUP1 PUSH2 0x50E PUSH2 0x3CF0 JUMP JUMPDEST POP POP JUMPDEST POP CALLDATALOAD ISZERO ISZERO PUSH2 0x1483 JUMP JUMPDEST PUSH2 0x395 PUSH1 0x4 DUP1 CALLDATASIZE SUB PUSH1 0x20 DUP2 LT ISZERO PUSH2 0x539 JUMPI PUSH1 0x0 DUP1 PUSH2 0x536 PUSH2 0x3CF0 JUMP JUMPDEST POP POP JUMPDEST POP CALLDATALOAD PUSH1 0x1 PUSH1 0x1 PUSH1 0xA0 SHL SUB AND PUSH2 0x1509 JUMP JUMPDEST PUSH2 0x551 PUSH2 0x16D3 JUMP JUMPDEST PUSH1 0x40 MLOAD DUP1 DUP5 DUP2 MSTORE PUSH1 0x20 ADD DUP4 DUP2 MSTORE PUSH1 0x20 ADD DUP3 DUP2 MSTORE PUSH1 0x20 ADD SWAP4 POP POP POP POP PUSH1 0x40 MLOAD DUP1 SWAP2 SUB SWAP1 RETURN JUMPDEST PUSH2 0x39F PUSH2 0x16FD JUMP JUMPDEST PUSH2 0x395 PUSH1 0x4 DUP1 CALLDATASIZE SUB PUSH1 0x40 DUP2 LT ISZERO PUSH2 0x59C JUMPI PUSH1 0x0 DUP1 PUSH2 0x599 PUSH2 0x3CF0 JUMP JUMPDEST POP POP JUMPDEST PUSH1 0x1 PUSH1 0x1 PUSH1 0xA0 SHL SUB DUP3 CALLDATALOAD AND SWAP2 SWAP1 DUP2 ADD SWAP1 PUSH1 0x40 DUP2 ADD PUSH1 0x20 DUP3 ADD CALLDATALOAD PUSH1 0x1 PUSH1 0x20 SHL DUP2 GT ISZERO PUSH2 0x5CF JUMPI PUSH1 0x0 DUP1 PUSH2 0x5CC PUSH2 0x3CF0 JUMP JUMPDEST POP POP JUMPDEST DUP3 ADD DUP4 PUSH1 0x20 DUP3 ADD GT ISZERO PUSH2 0x5EA JUMPI PUSH1 0x0 DUP1 PUSH2 0x5E7 PUSH2 0x3CF0 JUMP JUMPDEST POP POP JUMPDEST DUP1 CALLDATALOAD SWAP1 PUSH1 0x20 ADD SWAP2 DUP5 PUSH1 0x20 DUP4 MUL DUP5 ADD GT PUSH1 0x1 PUSH1 0x20 SHL DUP4 GT OR ISZERO PUSH2 0x614 JUMPI PUSH1 0x0 DUP1 PUSH2 0x611 PUSH2 0x3CF0 JUMP JUMPDEST POP POP JUMPDEST POP SWAP1 SWAP3 POP SWAP1 POP PUSH2 0x1709 JUMP JUMPDEST PUSH2 0x627 PUSH2 0x17D2 JUMP JUMPDEST PUSH1 0x40 MLOAD SWAP1 ISZERO ISZERO DUP2 MSTORE PUSH1 0x20 ADD PUSH1 0x40 MLOAD DUP1 SWAP2 SUB SWAP1 RETURN JUMPDEST PUSH2 0x627 PUSH1 0x4 DUP1 CALLDATASIZE SUB PUSH1 0x20 DUP2 LT ISZERO PUSH2 0x65A JUMPI PUSH1 0x0 DUP1 PUSH2 0x657 PUSH2 0x3CF0 JUMP JUMPDEST POP POP JUMPDEST POP CALLDATALOAD PUSH1 0x1 PUSH1 0x1 PUSH1 0xA0 SHL SUB AND PUSH2 0x17EB JUMP JUMPDEST PUSH2 0x627 PUSH2 0x19C7 JUMP JUMPDEST PUSH2 0x395 PUSH1 0x4 DUP1 CALLDATASIZE SUB PUSH1 0x20 DUP2 LT ISZERO PUSH2 0x691 JUMPI PUSH1 0x0 DUP1 PUSH2 0x68E PUSH2 0x3CF0 JUMP JUMPDEST POP POP JUMPDEST POP CALLDATALOAD PUSH2 0x19D3 JUMP JUMPDEST PUSH2 0x395 PUSH1 0x4 DUP1 CALLDATASIZE SUB PUSH1 0x20 DUP2 LT ISZERO PUSH2 0x6B7 JUMPI PUSH1 0x0 DUP1 PUSH2 0x6B4 PUSH2 0x3CF0 JUMP JUMPDEST POP POP JUMPDEST POP CALLDATALOAD PUSH2 0x1A20 JUMP JUMPDEST PUSH2 0x395 PUSH1 0x4 DUP1 CALLDATASIZE SUB PUSH1 0x20 DUP2 LT ISZERO PUSH2 0x6DD JUMPI PUSH1 0x0 DUP1 PUSH2 0x6DA PUSH2 0x3CF0 JUMP JUMPDEST POP POP JUMPDEST POP CALLDATALOAD PUSH2 0x1B66 JUMP JUMPDEST PUSH2 0x395 PUSH1 0x4 DUP1 CALLDATASIZE SUB PUSH1 0x20 DUP2 LT ISZERO PUSH2 0x703 JUMPI PUSH1 0x0 DUP1 PUSH2 0x700 PUSH2 0x3CF0 JUMP JUMPDEST POP POP JUMPDEST POP CALLDATALOAD PUSH1 0x1 PUSH1 0x1 PUSH1 0xA0 SHL SUB AND PUSH2 0x1CA1 JUMP JUMPDEST PUSH2 0x395 PUSH2 0x1DA0 JUMP JUMPDEST PUSH2 0x747 PUSH1 0x4 DUP1 CALLDATASIZE SUB PUSH1 0x40 DUP2 LT ISZERO PUSH2 0x73A JUMPI PUSH1 0x0 DUP1 PUSH2 0x737 PUSH2 0x3CF0 JUMP JUMPDEST POP POP JUMPDEST POP DUP1 CALLDATALOAD SWAP1 PUSH1 0x20 ADD CALLDATALOAD PUSH2 0x1F23 JUMP JUMPDEST PUSH1 0x40 MLOAD PUSH1 0x20 DUP1 DUP3 MSTORE DUP2 SWAP1 DUP2 ADD DUP4 DUP2 DUP2 MLOAD DUP2 MSTORE PUSH1 0x20 ADD SWAP2 POP DUP1 MLOAD SWAP1 PUSH1 0x20 ADD SWAP1 PUSH1 0x20 MUL DUP1 DUP4 DUP4 PUSH1 0x0 JUMPDEST DUP4 DUP2 LT ISZERO PUSH2 0x786 JUMPI DUP1 DUP3 ADD MLOAD DUP4 DUP3 ADD MSTORE PUSH1 0x20 ADD PUSH2 0x76E JUMP JUMPDEST POP POP POP POP SWAP1 POP ADD SWAP3 POP POP POP PUSH1 0x40 MLOAD DUP1 SWAP2 SUB SWAP1 RETURN JUMPDEST PUSH2 0x39F PUSH2 0x1F40 JUMP JUMPDEST PUSH2 0x2DA PUSH2 0x1F4B JUMP JUMPDEST PUSH2 0x39F PUSH1 0x4 DUP1 CALLDATASIZE SUB PUSH1 0xE0 DUP2 LT ISZERO PUSH2 0x7C9 JUMPI PUSH1 0x0 DUP1 PUSH2 0x7C6 PUSH2 0x3CF0 JUMP JUMPDEST POP POP JUMPDEST POP DUP1 CALLDATALOAD SWAP1 PUSH1 0x20 DUP2 ADD CALLDATALOAD SWAP1 PUSH1 0x40 DUP2 ADD CALLDATALOAD ISZERO ISZERO SWAP1 PUSH1 0x60 DUP2 ADD SWAP1 PUSH1 0xA0 ADD PUSH2 0x1F55 JUMP JUMPDEST PUSH2 0x395 PUSH1 0x4 DUP1 CALLDATASIZE SUB PUSH1 0x20 DUP2 LT ISZERO PUSH2 0x807 JUMPI PUSH1 0x0 DUP1 PUSH2 0x804 PUSH2 0x3CF0 JUMP JUMPDEST POP POP JUMPDEST POP CALLDATALOAD PUSH2 0x2697 JUMP JUMPDEST PUSH2 0x551 PUSH2 0x283F JUMP JUMPDEST PUSH2 0x395 PUSH2 0x284A JUMP JUMPDEST PUSH2 0x2DA PUSH2 0x298D JUMP JUMPDEST PUSH2 0x82E PUSH2 0x2994 JUMP JUMPDEST PUSH1 0x40 MLOAD DUP1 DUP3 PUSH2 0x300 DUP1 DUP4 DUP4 PUSH1 0x0 JUMPDEST DUP4 DUP2 LT ISZERO PUSH2 0x854 JUMPI DUP1 DUP3 ADD MLOAD DUP4 DUP3 ADD MSTORE PUSH1 0x20 ADD PUSH2 0x83C JUMP JUMPDEST POP POP POP POP SWAP1 POP ADD SWAP2 POP POP PUSH1 0x40 MLOAD DUP1 SWAP2 SUB SWAP1 RETURN JUMPDEST PUSH2 0x2DA PUSH2 0x29F6 JUMP JUMPDEST PUSH2 0x395 PUSH1 0x4 DUP1 CALLDATASIZE SUB PUSH1 0x40 DUP2 LT ISZERO PUSH2 0x88E JUMPI PUSH1 0x0 DUP1 PUSH2 0x88B PUSH2 0x3CF0 JUMP JUMPDEST POP POP JUMPDEST DUP2 CALLDATALOAD ISZERO ISZERO SWAP2 SWAP1 DUP2 ADD SWAP1 PUSH1 0x40 DUP2 ADD PUSH1 0x20 DUP3 ADD CALLDATALOAD PUSH1 0x1 PUSH1 0x20 SHL DUP2 GT ISZERO PUSH2 0x8BA JUMPI PUSH1 0x0 DUP1 PUSH2 0x8B7 PUSH2 0x3CF0 JUMP JUMPDEST POP POP JUMPDEST DUP3 ADD DUP4 PUSH1 0x20 DUP3 ADD GT ISZERO PUSH2 0x8D5 JUMPI PUSH1 0x0 DUP1 PUSH2 0x8D2 PUSH2 0x3CF0 JUMP JUMPDEST POP POP JUMPDEST DUP1 CALLDATALOAD SWAP1 PUSH1 0x20 ADD SWAP2 DUP5 PUSH1 0x20 DUP4 MUL DUP5 ADD GT PUSH1 0x1 PUSH1 0x20 SHL DUP4 GT OR ISZERO PUSH2 0x8FF JUMPI PUSH1 0x0 DUP1 PUSH2 0x8FC PUSH2 0x3CF0 JUMP JUMPDEST POP POP JUMPDEST POP SWAP1 SWAP3 POP SWAP1 POP PUSH2 0x2A03 JUMP JUMPDEST PUSH2 0x395 PUSH1 0x4 DUP1 CALLDATASIZE SUB PUSH1 0x20 DUP2 LT ISZERO PUSH2 0x929 JUMPI PUSH1 0x0 DUP1 PUSH2 0x926 PUSH2 0x3CF0 JUMP JUMPDEST POP POP JUMPDEST POP CALLDATALOAD PUSH2 0x2CA4 JUMP JUMPDEST PUSH2 0x627 PUSH2 0x2DE8 JUMP JUMPDEST PUSH2 0x395 PUSH2 0x2DF4 JUMP JUMPDEST PUSH2 0x395 PUSH1 0x4 DUP1 CALLDATASIZE SUB PUSH1 0x20 DUP2 LT ISZERO PUSH2 0x95F JUMPI PUSH1 0x0 DUP1 PUSH2 0x95C PUSH2 0x3CF0 JUMP JUMPDEST POP POP JUMPDEST POP CALLDATALOAD PUSH2 0x2E76 JUMP JUMPDEST PUSH2 0x96E PUSH2 0x2EC3 JUMP JUMPDEST PUSH1 0x40 MLOAD SWAP2 DUP3 MSTORE PUSH1 0x20 DUP3 ADD MSTORE PUSH1 0x40 SWAP1 DUP2 ADD SWAP1 MLOAD DUP1 SWAP2 SUB SWAP1 RETURN JUMPDEST PUSH2 0x395 PUSH1 0x4 DUP1 CALLDATASIZE SUB PUSH1 0x20 DUP2 LT ISZERO PUSH2 0x9A5 JUMPI PUSH1 0x0 DUP1 PUSH2 0x9A2 PUSH2 0x3CF0 JUMP JUMPDEST POP POP JUMPDEST DUP2 ADD SWAP1 PUSH1 0x20 DUP2 ADD DUP2 CALLDATALOAD PUSH1 0x1 PUSH1 0x20 SHL DUP2 GT ISZERO PUSH2 0x9C8 JUMPI PUSH1 0x0 DUP1 PUSH2 0x9C5 PUSH2 0x3CF0 JUMP JUMPDEST POP POP JUMPDEST DUP3 ADD DUP4 PUSH1 0x20 DUP3 ADD GT ISZERO PUSH2 0x9E3 JUMPI PUSH1 0x0 DUP1 PUSH2 0x9E0 PUSH2 0x3CF0 JUMP JUMPDEST POP POP JUMPDEST DUP1 CALLDATALOAD SWAP1 PUSH1 0x20 ADD SWAP2 DUP5 PUSH1 0x20 DUP4 MUL DUP5 ADD GT PUSH1 0x1 PUSH1 0x20 SHL DUP4 GT OR ISZERO PUSH2 0xA0D JUMPI PUSH1 0x0 DUP1 PUSH2 0xA0A PUSH2 0x3CF0 JUMP JUMPDEST POP POP JUMPDEST POP SWAP1 SWAP3 POP SWAP1 POP PUSH2 0x2EE0 JUMP JUMPDEST PUSH2 0x395 PUSH1 0x4 DUP1 CALLDATASIZE SUB PUSH1 0x20 DUP2 LT ISZERO PUSH2 0xA37 JUMPI PUSH1 0x0 DUP1 PUSH2 0xA34 PUSH2 0x3CF0 JUMP JUMPDEST POP POP JUMPDEST POP CALLDATALOAD PUSH2 0x3057 JUMP JUMPDEST PUSH2 0x39F PUSH2 0x30A4 JUMP JUMPDEST PUSH2 0x2DA PUSH1 0x4 DUP1 CALLDATASIZE SUB PUSH1 0x20 DUP2 LT ISZERO PUSH2 0xA65 JUMPI PUSH1 0x0 DUP1 PUSH2 0xA62 PUSH2 0x3CF0 JUMP JUMPDEST POP POP JUMPDEST POP CALLDATALOAD PUSH2 0x30B0 JUMP JUMPDEST PUSH2 0x2DA PUSH2 0x30D8 JUMP JUMPDEST PUSH2 0x747 PUSH1 0x4 DUP1 CALLDATASIZE SUB PUSH1 0x40 DUP2 LT ISZERO PUSH2 0xA93 JUMPI PUSH1 0x0 DUP1 PUSH2 0xA90 PUSH2 0x3CF0 JUMP JUMPDEST POP POP JUMPDEST POP DUP1 CALLDATALOAD SWAP1 PUSH1 0x20 ADD CALLDATALOAD PUSH2 0x30DD JUMP JUMPDEST PUSH2 0x395 PUSH1 0x4 DUP1 CALLDATASIZE SUB PUSH1 0x20 DUP2 LT ISZERO PUSH2 0xABF JUMPI PUSH1 0x0 DUP1 PUSH2 0xABC PUSH2 0x3CF0 JUMP JUMPDEST POP POP JUMPDEST POP CALLDATALOAD PUSH1 0x1 PUSH1 0x1 PUSH1 0xA0 SHL SUB AND PUSH2 0x30F1 JUMP JUMPDEST PUSH2 0x2DA PUSH2 0x33AE JUMP JUMPDEST PUSH1 0x0 PUSH1 0x13 DUP1 PUSH2 0xAE4 PUSH2 0x3D5B JUMP JUMPDEST SWAP2 POP POP SWAP1 JUMP JUMPDEST PUSH2 0xAF2 PUSH2 0x33B8 JUMP JUMPDEST DUP1 DUP1 PUSH2 0xAFE JUMPI POP PUSH2 0xE49 JUMP JUMPDEST PUSH1 0x0 DUP5 PUSH2 0xB0C JUMPI PUSH1 0x15 PUSH2 0xB0F JUMP JUMPDEST PUSH1 0x13 JUMPDEST SWAP1 POP PUSH1 0x0 DUP1 JUMPDEST DUP4 DUP2 LT ISZERO PUSH2 0xCEA JUMPI PUSH1 0x0 DUP7 DUP7 DUP4 DUP2 DUP2 LT PUSH2 0xB2B JUMPI INVALID JUMPDEST SWAP1 POP PUSH1 0x20 MUL ADD CALLDATALOAD PUSH1 0x1 PUSH1 0x1 PUSH1 0xA0 SHL SUB AND SWAP1 POP PUSH2 0xB46 DUP2 PUSH2 0x3432 JUMP JUMPDEST PUSH2 0xB91 JUMPI PUSH1 0x40 MLOAD PUSH3 0x461BCD PUSH1 0xE5 SHL DUP2 MSTORE PUSH1 0x20 PUSH1 0x4 DUP3 ADD MSTORE PUSH1 0xF PUSH1 0x24 DUP3 ADD MSTORE PUSH15 0x26B0B935B2BA103AB735B737BBB717 PUSH1 0x89 SHL PUSH1 0x44 DUP3 ADD MSTORE PUSH1 0x64 ADD PUSH1 0x40 MLOAD DUP1 SWAP2 SUB SWAP1 PUSH2 0xB8E PUSH2 0x3CF0 JUMP JUMPDEST POP POP JUMPDEST PUSH2 0xBA1 DUP5 DUP3 PUSH4 0xFFFFFFFF PUSH2 0x345C AND JUMP JUMPDEST PUSH2 0xC4C DUP2 PUSH1 0x1 PUSH1 0x1 PUSH1 0xA0 SHL SUB AND PUSH4 0xEEF49EE3 PUSH1 0x40 MLOAD DUP2 PUSH4 0xFFFFFFFF AND PUSH1 0xE0 SHL DUP2 MSTORE PUSH1 0x4 ADD PUSH1 0x20 PUSH1 0x40 MLOAD DUP1 DUP4 SUB DUP2 DUP7 DUP1 PUSH2 0xBD8 PUSH2 0x3DB6 JUMP JUMPDEST ISZERO DUP1 ISZERO PUSH2 0xBED JUMPI PUSH1 0x0 DUP1 PUSH2 0xBEA PUSH2 0x3CF0 JUMP JUMPDEST POP POP JUMPDEST POP GAS PUSH2 0xBF7 PUSH2 0x3E02 JUMP JUMPDEST POP POP POP POP POP ISZERO DUP1 ISZERO PUSH2 0xC16 JUMPI RETURNDATASIZE PUSH1 0x0 DUP1 RETURNDATACOPY RETURNDATASIZE PUSH1 0x0 PUSH2 0xC13 PUSH2 0x3CF0 JUMP JUMPDEST POP POP JUMPDEST POP POP POP POP PUSH1 0x40 MLOAD RETURNDATASIZE PUSH1 0x20 DUP2 LT ISZERO PUSH2 0xC35 JUMPI PUSH1 0x0 DUP1 PUSH2 0xC32 PUSH2 0x3CF0 JUMP JUMPDEST POP POP JUMPDEST DUP2 ADD SWAP1 DUP1 DUP1 MLOAD DUP8 SWAP4 POP SWAP2 POP POP PUSH4 0xFFFFFFFF PUSH2 0x3627 AND JUMP JUMPDEST SWAP3 POP DUP1 PUSH1 0x1 PUSH1 0x1 PUSH1 0xA0 SHL SUB AND PUSH4 0x1627540C DUP11 PUSH1 0x40 MLOAD PUSH1 0x1 PUSH1 0x1 PUSH1 0xE0 SHL SUB NOT PUSH1 0xE0 DUP5 SWAP1 SHL AND DUP2 MSTORE PUSH1 0x1 PUSH1 0x1 PUSH1 0xA0 SHL SUB SWAP1 SWAP2 AND PUSH1 0x4 DUP3 ADD MSTORE PUSH1 0x24 ADD PUSH1 0x0 PUSH1 0x40 MLOAD DUP1 DUP4 SUB DUP2 PUSH1 0x0 DUP8 DUP1 PUSH2 0xC9A PUSH2 0x3DB6 JUMP JUMPDEST ISZERO DUP1 ISZERO PUSH2 0xCAF JUMPI PUSH1 0x0 DUP1 PUSH2 0xCAC PUSH2 0x3CF0 JUMP JUMPDEST POP POP JUMPDEST POP GAS PUSH2 0xCB9 PUSH2 0x3EBB JUMP JUMPDEST POP POP POP POP POP POP ISZERO DUP1 ISZERO PUSH2 0xCD9 JUMPI RETURNDATASIZE PUSH1 0x0 DUP1 RETURNDATACOPY RETURNDATASIZE PUSH1 0x0 PUSH2 0xCD6 PUSH2 0x3CF0 JUMP JUMPDEST POP POP JUMPDEST POP POP PUSH1 0x1 SWAP1 SWAP4 ADD SWAP3 POP PUSH2 0xB15 SWAP2 POP POP JUMP JUMPDEST POP PUSH2 0xD05 DUP2 PUSH1 0x12 PUSH2 0xCF9 PUSH2 0x3D5B JUMP JUMPDEST SWAP1 PUSH4 0xFFFFFFFF PUSH2 0x368F AND JUMP JUMPDEST DUP1 PUSH1 0x12 PUSH2 0xD10 PUSH2 0x3F74 JUMP JUMPDEST POP POP POP PUSH32 0x3E429AA34462B428D3F7277ACB67E1C83D80A57FAAB2A47924369B5060F35679 DUP8 DUP7 DUP7 PUSH1 0x40 MLOAD PUSH1 0x1 PUSH1 0x1 PUSH1 0xA0 SHL SUB DUP5 AND DUP2 MSTORE PUSH1 0x40 PUSH1 0x20 DUP1 DUP4 ADD DUP3 DUP2 MSTORE SWAP2 DUP4 ADD DUP5 SWAP1 MSTORE PUSH1 0x60 DUP4 ADD SWAP1 DUP6 SWAP1 DUP6 MUL DUP1 DUP3 DUP5 CALLDATACOPY PUSH1 0x0 DUP4 DUP3 ADD MSTORE PUSH1 0x1F ADD PUSH1 0x1F NOT AND SWAP1 SWAP2 ADD SWAP6 POP PUSH1 0x40 SWAP5 POP POP POP POP POP MLOAD DUP1 SWAP2 SUB SWAP1 LOG1 DUP7 PUSH1 0x1 PUSH1 0x1 PUSH1 0xA0 SHL SUB AND PUSH4 0xADFD31AF DUP8 DUP8 DUP8 PUSH1 0x40 MLOAD PUSH1 0x1 PUSH1 0x1 PUSH1 0xE0 SHL SUB NOT PUSH1 0xE0 DUP7 SWAP1 SHL AND DUP2 MSTORE DUP4 ISZERO ISZERO PUSH1 0x4 DUP3 ADD SWAP1 DUP2 MSTORE PUSH1 0x40 PUSH1 0x24 DUP4 ADD SWAP1 DUP2 MSTORE PUSH1 0x44 DUP4 ADD DUP5 SWAP1 MSTORE SWAP1 SWAP2 PUSH1 0x64 ADD DUP5 PUSH1 0x20 DUP6 MUL DUP1 DUP3 DUP5 CALLDATACOPY PUSH1 0x0 DUP4 DUP3 ADD DUP2 SWAP1 MSTORE PUSH1 0x1F SWAP1 SWAP2 ADD PUSH1 0x1F NOT AND SWAP1 SWAP3 ADD SWAP7 POP SWAP1 SWAP5 POP PUSH1 0x40 SWAP4 POP POP POP POP MLOAD DUP1 DUP4 SUB DUP2 PUSH1 0x0 DUP8 DUP1 PUSH2 0xE02 PUSH2 0x3DB6 JUMP JUMPDEST ISZERO DUP1 ISZERO PUSH2 0xE17 JUMPI PUSH1 0x0 DUP1 PUSH2 0xE14 PUSH2 0x3CF0 JUMP JUMPDEST POP POP JUMPDEST POP GAS PUSH2 0xE21 PUSH2 0x3EBB JUMP JUMPDEST POP POP POP POP POP POP ISZERO DUP1 ISZERO PUSH2 0xE41 JUMPI RETURNDATASIZE PUSH1 0x0 DUP1 RETURNDATACOPY RETURNDATASIZE PUSH1 0x0 PUSH2 0xE3E PUSH2 0x3CF0 JUMP JUMPDEST POP POP JUMPDEST POP POP POP POP POP POP POP JUMPDEST POP POP POP POP JUMP JUMPDEST PUSH1 0x0 PUSH1 0x6 PUSH2 0xE5B PUSH2 0x3D5B JUMP JUMPDEST SWAP1 PUSH2 0x100 EXP SWAP1 DIV PUSH1 0x1 PUSH1 0x1 PUSH1 0xA0 SHL SUB AND DUP2 JUMP JUMPDEST PUSH2 0xE76 PUSH2 0x33B8 JUMP JUMPDEST PUSH1 0x0 PUSH1 0x9 PUSH2 0xE82 PUSH2 0x3D5B JUMP JUMPDEST DUP3 ADD SWAP1 POP PUSH20 0x0 PUSH4 0x907AF6C0 PUSH1 0x40 MLOAD DUP2 PUSH4 0xFFFFFFFF AND PUSH1 0xE0 SHL DUP2 MSTORE PUSH1 0x4 ADD PUSH1 0x20 PUSH1 0x40 MLOAD DUP1 DUP4 SUB DUP2 DUP7 DUP1 PUSH2 0xEC5 PUSH2 0x3DB6 JUMP JUMPDEST ISZERO DUP1 ISZERO PUSH2 0xEDA JUMPI PUSH1 0x0 DUP1 PUSH2 0xED7 PUSH2 0x3CF0 JUMP JUMPDEST POP POP JUMPDEST POP GAS PUSH2 0xEE4 PUSH2 0x3FC2 JUMP JUMPDEST POP POP POP POP POP ISZERO DUP1 ISZERO PUSH2 0xF03 JUMPI RETURNDATASIZE PUSH1 0x0 DUP1 RETURNDATACOPY RETURNDATASIZE PUSH1 0x0 PUSH2 0xF00 PUSH2 0x3CF0 JUMP JUMPDEST POP POP JUMPDEST POP POP POP POP PUSH1 0x40 MLOAD RETURNDATASIZE PUSH1 0x20 DUP2 LT ISZERO PUSH2 0xF22 JUMPI PUSH1 0x0 DUP1 PUSH2 0xF1F PUSH2 0x3CF0 JUMP JUMPDEST POP POP JUMPDEST DUP2 ADD SWAP1 DUP1 DUP1 MLOAD DUP5 LT SWAP3 POP PUSH2 0xF73 SWAP2 POP POP JUMPI PUSH1 0x40 MLOAD PUSH3 0x461BCD PUSH1 0xE5 SHL DUP2 MSTORE PUSH1 0x4 ADD DUP1 DUP1 PUSH1 0x20 ADD DUP3 DUP2 SUB DUP3 MSTORE PUSH1 0x21 DUP2 MSTORE PUSH1 0x20 ADD DUP1 PUSH2 0x4111 PUSH1 0x21 SWAP2 CODECOPY PUSH1 0x40 ADD SWAP2 POP POP PUSH1 0x40 MLOAD DUP1 SWAP2 SUB SWAP1 PUSH2 0xF70 PUSH2 0x3CF0 JUMP JUMPDEST POP POP JUMPDEST DUP1 PUSH1 0x0 LT PUSH2 0xFD0 JUMPI PUSH1 0x40 MLOAD PUSH3 0x461BCD PUSH1 0xE5 SHL DUP2 MSTORE PUSH1 0x20 PUSH1 0x4 DUP3 ADD MSTORE PUSH1 0x1A PUSH1 0x24 DUP3 ADD MSTORE PUSH32 0x546F74616C20666565206D757374206265206E6F6E7A65726F2E000000000000 PUSH1 0x44 DUP3 ADD MSTORE PUSH1 0x64 ADD PUSH1 0x40 MLOAD DUP1 SWAP2 SUB SWAP1 PUSH2 0xFCD PUSH2 0x3CF0 JUMP JUMPDEST POP POP JUMPDEST DUP2 DUP1 PUSH1 0xA PUSH2 0xFDC PUSH2 0x3F74 JUMP JUMPDEST POP POP POP PUSH32 0x8C14462ADD32E0AE0FBFCF9E60711ECAE573DA337DC9127FFF98FB7CFB3973B4 DUP3 PUSH1 0x40 MLOAD SWAP1 DUP2 MSTORE PUSH1 0x20 ADD PUSH1 0x40 MLOAD DUP1 SWAP2 SUB SWAP1 LOG1 POP POP JUMP JUMPDEST PUSH2 0x101E PUSH2 0x33B8 JUMP JUMPDEST DUP1 DUP1 PUSH1 0xD PUSH2 0x102A PUSH2 0x3F74 JUMP JUMPDEST POP POP POP PUSH32 0xF378A0FD4AD3FFD9D7D50986F16B04ACD2DC42691C4F412F34E8EEFE883E6652 DUP2 PUSH1 0x40 MLOAD SWAP1 DUP2 MSTORE PUSH1 0x20 ADD PUSH1 0x40 MLOAD DUP1 SWAP2 SUB SWAP1 LOG1 POP JUMP JUMPDEST PUSH2 0x106B PUSH2 0x33B8 JUMP JUMPDEST DUP1 PUSH1 0x1 DUP1 DUP1 PUSH2 0x1078 PUSH2 0x3D5B JUMP JUMPDEST DUP2 PUSH1 0x1 PUSH1 0x1 PUSH1 0xA0 SHL SUB MUL NOT AND SWAP1 DUP4 PUSH1 0x1 PUSH1 0x1 PUSH1 0xA0 SHL SUB AND MUL OR SWAP1 PUSH2 0x109A PUSH2 0x3F74 JUMP JUMPDEST POP POP POP PUSH32 0x906A1C6BD7E3091EA86693DD029A831C19049CE77F1DCE2CE0BAB1CACBABCE22 DUP2 PUSH1 0x40 MLOAD PUSH1 0x1 PUSH1 0x1 PUSH1 0xA0 SHL SUB SWAP1 SWAP2 AND DUP2 MSTORE PUSH1 0x20 ADD PUSH1 0x40 MLOAD DUP1 SWAP2 SUB SWAP1 LOG1 POP JUMP JUMPDEST PUSH2 0x10E5 PUSH2 0x33B8 JUMP JUMPDEST PUSH1 0x0 PUSH1 0x3 PUSH2 0x10F1 PUSH2 0x3D5B JUMP JUMPDEST SWAP1 PUSH2 0x100 EXP SWAP1 DIV PUSH1 0xFF AND ISZERO ISZERO DUP2 ISZERO ISZERO EQ ISZERO PUSH2 0x110B JUMPI PUSH2 0x11B0 JUMP JUMPDEST DUP1 PUSH1 0x3 PUSH1 0x1 DUP2 PUSH2 0x1119 PUSH2 0x3D5B JUMP JUMPDEST DUP2 PUSH1 0xFF MUL NOT AND SWAP1 DUP4 ISZERO ISZERO MUL OR SWAP1 PUSH2 0x112E PUSH2 0x3F74 JUMP JUMPDEST POP POP POP PUSH1 0x3 PUSH1 0x0 SWAP1 PUSH2 0x113E PUSH2 0x3D5B JUMP JUMPDEST SWAP1 PUSH2 0x100 EXP SWAP1 DIV PUSH1 0xFF AND ISZERO PUSH2 0x1165 JUMPI GAS PUSH2 0x1156 PUSH2 0x4005 JUMP JUMPDEST DUP1 PUSH1 0x2 PUSH2 0x1161 PUSH2 0x3F74 JUMP JUMPDEST POP POP POP JUMPDEST PUSH32 0x8FB6C181EE25A520CF3DD6565006EF91229FCFE5A989566C2A3B8C115570CEC5 PUSH1 0x0 PUSH1 0x3 PUSH2 0x1192 PUSH2 0x3D5B JUMP JUMPDEST SWAP1 PUSH2 0x100 EXP SWAP1 DIV PUSH1 0xFF AND PUSH1 0x40 MLOAD SWAP1 ISZERO ISZERO DUP2 MSTORE PUSH1 0x20 ADD PUSH1 0x40 MLOAD DUP1 SWAP2 SUB SWAP1 LOG1 JUMPDEST POP JUMP JUMPDEST PUSH1 0x4 PUSH2 0x11BD PUSH2 0x3D5B JUMP JUMPDEST DUP2 JUMP JUMPDEST PUSH2 0x11C8 PUSH2 0x33B8 JUMP JUMPDEST DUP1 PUSH1 0x17 PUSH1 0x1 DUP2 PUSH2 0x11D6 PUSH2 0x3D5B JUMP JUMPDEST DUP2 PUSH1 0x1 PUSH1 0x1 PUSH1 0xA0 SHL SUB MUL NOT AND SWAP1 DUP4 PUSH1 0x1 PUSH1 0x1 PUSH1 0xA0 SHL SUB AND MUL OR SWAP1 PUSH2 0xE49 PUSH2 0x3F74 JUMP JUMPDEST PUSH2 0x1200 PUSH2 0x33B8 JUMP JUMPDEST PUSH1 0x1 PUSH1 0x1 PUSH1 0xA0 SHL SUB DUP2 AND PUSH2 0x1263 JUMPI PUSH1 0x40 MLOAD PUSH3 0x461BCD PUSH1 0xE5 SHL DUP2 MSTORE PUSH1 0x20 PUSH1 0x4 DUP3 ADD MSTORE PUSH1 0x1C PUSH1 0x24 DUP3 ADD MSTORE PUSH32 0x42656E6566696369617279206D757374206E6F74206265207A65726F00000000 PUSH1 0x44 DUP3 ADD MSTORE PUSH1 0x64 ADD PUSH1 0x40 MLOAD DUP1 SWAP2 SUB SWAP1 PUSH2 0x1260 PUSH2 0x3CF0 JUMP JUMPDEST POP POP JUMPDEST DUP1 PUSH1 0x5 PUSH2 0x100 DUP2 PUSH2 0x1272 PUSH2 0x3D5B JUMP JUMPDEST DUP2 PUSH1 0x1 PUSH1 0x1 PUSH1 0xA0 SHL SUB MUL NOT AND SWAP1 DUP4 PUSH1 0x1 PUSH1 0x1 PUSH1 0xA0 SHL SUB AND MUL OR SWAP1 PUSH2 0x1294 PUSH2 0x3F74 JUMP JUMPDEST POP POP POP PUSH32 0xD5DA63A0B864B315BC04128DEDBC93888C8529EE6CF47CE664DC204339228C53 DUP2 PUSH1 0x40 MLOAD PUSH1 0x1 PUSH1 0x1 PUSH1 0xA0 SHL SUB SWAP1 SWAP2 AND DUP2 MSTORE PUSH1 0x20 ADD PUSH1 0x40 MLOAD DUP1 SWAP2 SUB SWAP1 LOG1 POP JUMP JUMPDEST PUSH2 0x12DF PUSH2 0x33B8 JUMP JUMPDEST PUSH1 0x0 DUP1 PUSH1 0x4 PUSH2 0x12EC PUSH2 0x3F74 JUMP JUMPDEST POP POP POP PUSH1 0x0 PUSH1 0x5 PUSH1 0x0 PUSH2 0x100 EXP DUP2 PUSH2 0x1302 PUSH2 0x3D5B JUMP JUMPDEST DUP2 PUSH1 0xFF MUL NOT AND SWAP1 DUP4 ISZERO ISZERO MUL OR SWAP1 PUSH2 0x1317 PUSH2 0x3F74 JUMP JUMPDEST POP POP POP PUSH32 0x6ADCC7125002935E0AA31697538EBBD65CFDDF20431EB6ECDCFC3E238BFD082C PUSH1 0x40 MLOAD PUSH1 0x40 MLOAD DUP1 SWAP2 SUB SWAP1 LOG1 JUMP JUMPDEST PUSH2 0x1350 PUSH2 0x33B8 JUMP JUMPDEST PUSH20 0x0 PUSH4 0x907AF6C0 PUSH1 0x40 MLOAD DUP2 PUSH4 0xFFFFFFFF AND PUSH1 0xE0 SHL DUP2 MSTORE PUSH1 0x4 ADD PUSH1 0x20 PUSH1 0x40 MLOAD DUP1 DUP4 SUB DUP2 DUP7 DUP1 PUSH2 0x138F PUSH2 0x3DB6 JUMP JUMPDEST ISZERO DUP1 ISZERO PUSH2 0x13A4 JUMPI PUSH1 0x0 DUP1 PUSH2 0x13A1 PUSH2 0x3CF0 JUMP JUMPDEST POP POP JUMPDEST POP GAS PUSH2 0x13AE PUSH2 0x3FC2 JUMP JUMPDEST POP POP POP POP POP ISZERO DUP1 ISZERO PUSH2 0x13CD JUMPI RETURNDATASIZE PUSH1 0x0 DUP1 RETURNDATACOPY RETURNDATASIZE PUSH1 0x0 PUSH2 0x13CA PUSH2 0x3CF0 JUMP JUMPDEST POP POP JUMPDEST POP POP POP POP PUSH1 0x40 MLOAD RETURNDATASIZE PUSH1 0x20 DUP2 LT ISZERO PUSH2 0x13EC JUMPI PUSH1 0x0 DUP1 PUSH2 0x13E9 PUSH2 0x3CF0 JUMP JUMPDEST POP POP JUMPDEST DUP2 ADD SWAP1 DUP1 DUP1 MLOAD DUP5 GT ISZERO SWAP3 POP PUSH2 0x143E SWAP2 POP POP JUMPI PUSH1 0x40 MLOAD PUSH3 0x461BCD PUSH1 0xE5 SHL DUP2 MSTORE PUSH1 0x4 ADD DUP1 DUP1 PUSH1 0x20 ADD DUP3 DUP2 SUB DUP3 MSTORE PUSH1 0x28 DUP2 MSTORE PUSH1 0x20 ADD DUP1 PUSH2 0x422E PUSH1 0x28 SWAP2 CODECOPY PUSH1 0x40 ADD SWAP2 POP POP PUSH1 0x40 MLOAD DUP1 SWAP2 SUB SWAP1 PUSH2 0x143B PUSH2 0x3CF0 JUMP JUMPDEST POP POP JUMPDEST DUP1 DUP1 PUSH1 0xB PUSH2 0x144A PUSH2 0x3F74 JUMP JUMPDEST POP POP POP PUSH32 0x1634AC4E9F09BE1EF87B8D09E14926870261DCB9A0929D2D6460AF6E4C5AD1E DUP2 PUSH1 0x40 MLOAD SWAP1 DUP2 MSTORE PUSH1 0x20 ADD PUSH1 0x40 MLOAD DUP1 SWAP2 SUB SWAP1 LOG1 POP JUMP JUMPDEST PUSH2 0x148B PUSH2 0x33B8 JUMP JUMPDEST PUSH1 0x0 PUSH1 0x11 PUSH2 0x1497 PUSH2 0x3D5B JUMP JUMPDEST SWAP1 PUSH2 0x100 EXP SWAP1 DIV PUSH1 0xFF AND ISZERO ISZERO DUP2 ISZERO ISZERO EQ PUSH2 0x11B0 JUMPI DUP1 PUSH1 0x11 PUSH1 0x1 DUP2 PUSH2 0x14B9 PUSH2 0x3D5B JUMP JUMPDEST DUP2 PUSH1 0xFF MUL NOT AND SWAP1 DUP4 ISZERO ISZERO MUL OR SWAP1 PUSH2 0x14CE PUSH2 0x3F74 JUMP JUMPDEST POP POP POP PUSH32 0xCC590B6309435383B617AAA0CAE6ABA938F2EE471CFB539201DD7655A23CAFF9 DUP2 PUSH1 0x40 MLOAD SWAP1 ISZERO ISZERO DUP2 MSTORE PUSH1 0x20 ADD PUSH1 0x40 MLOAD DUP1 SWAP2 SUB SWAP1 LOG1 POP JUMP JUMPDEST PUSH2 0x1511 PUSH2 0x33B8 JUMP JUMPDEST DUP1 PUSH1 0x6 PUSH1 0x1 DUP2 PUSH2 0x151F PUSH2 0x3D5B JUMP JUMPDEST DUP2 PUSH1 0x1 PUSH1 0x1 PUSH1 0xA0 SHL SUB MUL NOT AND SWAP1 DUP4 PUSH1 0x1 PUSH1 0x1 PUSH1 0xA0 SHL SUB AND MUL OR SWAP1 PUSH2 0x1541 PUSH2 0x3F74 JUMP JUMPDEST POP PUSH1 0x0 SWAP2 POP POP JUMPDEST PUSH1 0x8 DUP1 PUSH2 0x1553 PUSH2 0x3D5B JUMP JUMPDEST SWAP1 POP DUP2 LT ISZERO PUSH2 0x16CF JUMPI PUSH1 0x0 PUSH1 0x8 DUP3 DUP2 PUSH2 0x156A PUSH2 0x3D5B JUMP JUMPDEST DUP2 LT PUSH2 0x1572 JUMPI INVALID JUMPDEST SWAP1 PUSH1 0x0 MSTORE PUSH1 0x20 PUSH1 0x0 KECCAK256 ADD PUSH2 0x1584 PUSH2 0x3D5B JUMP JUMPDEST SWAP1 POP PUSH1 0x0 PUSH1 0x6 PUSH2 0x1592 PUSH2 0x3D5B JUMP JUMPDEST SWAP1 PUSH2 0x100 EXP SWAP1 DIV PUSH1 0x1 PUSH1 0x1 PUSH1 0xA0 SHL SUB AND PUSH1 0x1 PUSH1 0x1 PUSH1 0xA0 SHL SUB AND PUSH4 0xDACB2D01 DUP3 PUSH1 0x40 MLOAD PUSH1 0x1 PUSH1 0x1 PUSH1 0xE0 SHL SUB NOT PUSH1 0xE0 DUP5 SWAP1 SHL AND DUP2 MSTORE PUSH1 0x4 DUP2 ADD SWAP2 SWAP1 SWAP2 MSTORE PUSH1 0x40 PUSH1 0x24 DUP3 ADD DUP2 SWAP1 MSTORE PUSH1 0x17 PUSH1 0x44 DUP4 ADD MSTORE PUSH32 0x5265736F6C766572206D697373696E6720746172676574000000000000000000 PUSH1 0x64 DUP4 ADD MSTORE PUSH1 0x84 SWAP1 SWAP2 ADD SWAP1 PUSH1 0x20 SWAP1 MLOAD DUP1 DUP4 SUB DUP2 DUP7 DUP1 PUSH2 0x161B PUSH2 0x3DB6 JUMP JUMPDEST ISZERO DUP1 ISZERO PUSH2 0x1630 JUMPI PUSH1 0x0 DUP1 PUSH2 0x162D PUSH2 0x3CF0 JUMP JUMPDEST POP POP JUMPDEST POP GAS PUSH2 0x163A PUSH2 0x3E02 JUMP JUMPDEST POP POP POP POP POP ISZERO DUP1 ISZERO PUSH2 0x1659 JUMPI RETURNDATASIZE PUSH1 0x0 DUP1 RETURNDATACOPY RETURNDATASIZE PUSH1 0x0 PUSH2 0x1656 PUSH2 0x3CF0 JUMP JUMPDEST POP POP JUMPDEST POP POP POP POP PUSH1 0x40 MLOAD RETURNDATASIZE PUSH1 0x20 DUP2 LT ISZERO PUSH2 0x1678 JUMPI PUSH1 0x0 DUP1 PUSH2 0x1675 PUSH2 0x3CF0 JUMP JUMPDEST POP POP JUMPDEST DUP2 ADD SWAP1 DUP1 DUP1 MLOAD PUSH1 0x0 DUP6 DUP2 MSTORE PUSH1 0x7 PUSH1 0x20 MSTORE SWAP1 SWAP4 POP PUSH1 0x40 SWAP3 POP SWAP1 POP KECCAK256 PUSH1 0x1 DUP2 PUSH2 0x169D PUSH2 0x3D5B JUMP JUMPDEST DUP2 PUSH1 0x1 PUSH1 0x1 PUSH1 0xA0 SHL SUB MUL NOT AND SWAP1 DUP4 PUSH1 0x1 PUSH1 0x1 PUSH1 0xA0 SHL SUB AND MUL OR SWAP1 PUSH2 0x16BF PUSH2 0x3F74 JUMP JUMPDEST POP POP PUSH1 0x1 SWAP1 SWAP3 ADD SWAP2 POP PUSH2 0x1548 SWAP1 POP JUMP JUMPDEST POP POP JUMP JUMPDEST PUSH1 0xC DUP1 PUSH2 0x16DE PUSH2 0x3D5B JUMP JUMPDEST SWAP1 DUP1 PUSH1 0x1 ADD PUSH2 0x16EB PUSH2 0x3D5B JUMP JUMPDEST SWAP1 DUP1 PUSH1 0x2 ADD PUSH2 0x16F8 PUSH2 0x3D5B JUMP JUMPDEST SWAP1 POP DUP4 JUMP JUMPDEST PUSH1 0x0 PUSH1 0x1 PUSH2 0xE5B PUSH2 0x3D5B JUMP JUMPDEST PUSH2 0x1711 PUSH2 0x33B8 JUMP JUMPDEST PUSH1 0x0 JUMPDEST DUP2 DUP2 LT ISZERO PUSH2 0xE49 JUMPI DUP3 DUP3 DUP3 DUP2 DUP2 LT PUSH2 0x1728 JUMPI INVALID JUMPDEST SWAP1 POP PUSH1 0x20 MUL ADD CALLDATALOAD PUSH1 0x1 PUSH1 0x1 PUSH1 0xA0 SHL SUB AND PUSH1 0x1 PUSH1 0x1 PUSH1 0xA0 SHL SUB AND PUSH4 0x3BE99E6F DUP6 PUSH1 0x40 MLOAD PUSH1 0x1 PUSH1 0x1 PUSH1 0xE0 SHL SUB NOT PUSH1 0xE0 DUP5 SWAP1 SHL AND DUP2 MSTORE PUSH1 0x1 PUSH1 0x1 PUSH1 0xA0 SHL SUB SWAP1 SWAP2 AND PUSH1 0x4 DUP3 ADD MSTORE PUSH1 0x24 ADD PUSH1 0x0 PUSH1 0x40 MLOAD DUP1 DUP4 SUB DUP2 PUSH1 0x0 DUP8 DUP1 PUSH2 0x1783 PUSH2 0x3DB6 JUMP JUMPDEST ISZERO DUP1 ISZERO PUSH2 0x1798 JUMPI PUSH1 0x0 DUP1 PUSH2 0x1795 PUSH2 0x3CF0 JUMP JUMPDEST POP POP JUMPDEST POP GAS PUSH2 0x17A2 PUSH2 0x3EBB JUMP JUMPDEST POP POP POP POP POP POP ISZERO DUP1 ISZERO PUSH2 0x17C2 JUMPI RETURNDATASIZE PUSH1 0x0 DUP1 RETURNDATACOPY RETURNDATASIZE PUSH1 0x0 PUSH2 0x17BF PUSH2 0x3CF0 JUMP JUMPDEST POP POP JUMPDEST POP POP PUSH1 0x1 SWAP1 SWAP3 ADD SWAP2 POP PUSH2 0x1714 SWAP1 POP JUMP JUMPDEST PUSH1 0x0 PUSH1 0x3 PUSH2 0x17DE PUSH2 0x3D5B JUMP JUMPDEST SWAP1 PUSH2 0x100 EXP SWAP1 DIV PUSH1 0xFF AND DUP2 JUMP JUMPDEST PUSH1 0x0 PUSH1 0x1 PUSH1 0x1 PUSH1 0xA0 SHL SUB DUP3 AND DUP2 PUSH1 0x6 PUSH2 0x1802 PUSH2 0x3D5B JUMP JUMPDEST SWAP1 PUSH2 0x100 EXP SWAP1 DIV PUSH1 0x1 PUSH1 0x1 PUSH1 0xA0 SHL SUB AND PUSH1 0x1 PUSH1 0x1 PUSH1 0xA0 SHL SUB AND EQ PUSH2 0x1828 JUMPI POP PUSH1 0x0 PUSH2 0x19C2 JUMP JUMPDEST PUSH1 0x0 JUMPDEST PUSH1 0x8 DUP1 PUSH2 0x1836 PUSH2 0x3D5B JUMP JUMPDEST SWAP1 POP DUP2 LT ISZERO PUSH2 0x19BC JUMPI PUSH1 0x0 PUSH1 0x8 DUP3 DUP2 PUSH2 0x184D PUSH2 0x3D5B JUMP JUMPDEST DUP2 LT PUSH2 0x1855 JUMPI INVALID JUMPDEST SWAP1 PUSH1 0x0 MSTORE PUSH1 0x20 PUSH1 0x0 KECCAK256 ADD PUSH2 0x1867 PUSH2 0x3D5B JUMP JUMPDEST PUSH1 0x0 DUP2 DUP2 MSTORE PUSH1 0x7 PUSH1 0x20 MSTORE SWAP1 SWAP2 POP PUSH1 0x40 SWAP1 KECCAK256 PUSH1 0x0 SWAP1 PUSH2 0x1883 PUSH2 0x3D5B JUMP JUMPDEST PUSH1 0x1 PUSH1 0x1 PUSH1 0xA0 SHL SUB PUSH2 0x100 SWAP3 SWAP1 SWAP3 EXP SWAP1 DIV AND PUSH1 0x0 PUSH1 0x6 PUSH2 0x18A1 PUSH2 0x3D5B JUMP JUMPDEST SWAP1 PUSH2 0x100 EXP SWAP1 DIV PUSH1 0x1 PUSH1 0x1 PUSH1 0xA0 SHL SUB AND PUSH1 0x1 PUSH1 0x1 PUSH1 0xA0 SHL SUB AND PUSH4 0x21F8A721 DUP4 PUSH1 0x40 MLOAD PUSH1 0x1 PUSH1 0x1 PUSH1 0xE0 SHL SUB NOT PUSH1 0xE0 DUP5 SWAP1 SHL AND DUP2 MSTORE PUSH1 0x4 DUP2 ADD SWAP2 SWAP1 SWAP2 MSTORE PUSH1 0x24 ADD PUSH1 0x20 PUSH1 0x40 MLOAD DUP1 DUP4 SUB DUP2 DUP7 DUP1 PUSH2 0x18F2 PUSH2 0x3DB6 JUMP JUMPDEST ISZERO DUP1 ISZERO PUSH2 0x1907 JUMPI PUSH1 0x0 DUP1 PUSH2 0x1904 PUSH2 0x3CF0 JUMP JUMPDEST POP POP JUMPDEST POP GAS PUSH2 0x1911 PUSH2 0x3E02 JUMP JUMPDEST POP POP POP POP POP ISZERO DUP1 ISZERO PUSH2 0x1930 JUMPI RETURNDATASIZE PUSH1 0x0 DUP1 RETURNDATACOPY RETURNDATASIZE PUSH1 0x0 PUSH2 0x192D PUSH2 0x3CF0 JUMP JUMPDEST POP POP JUMPDEST POP POP POP POP PUSH1 0x40 MLOAD RETURNDATASIZE PUSH1 0x20 DUP2 LT ISZERO PUSH2 0x194F JUMPI PUSH1 0x0 DUP1 PUSH2 0x194C PUSH2 0x3CF0 JUMP JUMPDEST POP POP JUMPDEST DUP2 ADD SWAP1 DUP1 DUP1 MLOAD PUSH1 0x1 PUSH1 0x1 PUSH1 0xA0 SHL SUB AND SWAP4 SWAP1 SWAP4 EQ ISZERO SWAP3 POP DUP3 SWAP2 POP PUSH2 0x19A3 SWAP1 POP JUMPI POP PUSH1 0x0 DUP2 DUP2 MSTORE PUSH1 0x7 PUSH1 0x20 MSTORE PUSH1 0x40 DUP2 KECCAK256 PUSH1 0x0 SWAP1 PUSH2 0x1988 PUSH2 0x3D5B JUMP JUMPDEST SWAP1 PUSH2 0x100 EXP SWAP1 DIV PUSH1 0x1 PUSH1 0x1 PUSH1 0xA0 SHL SUB AND PUSH1 0x1 PUSH1 0x1 PUSH1 0xA0 SHL SUB AND EQ JUMPDEST ISZERO PUSH2 0x19B3 JUMPI PUSH1 0x0 SWAP3 POP POP POP PUSH2 0x19C2 JUMP JUMPDEST POP PUSH1 0x1 ADD PUSH2 0x182B JUMP JUMPDEST POP PUSH1 0x1 SWAP1 POP JUMPDEST SWAP2 SWAP1 POP JUMP JUMPDEST PUSH1 0x0 PUSH1 0x11 PUSH2 0x17DE PUSH2 0x3D5B JUMP JUMPDEST PUSH2 0x19DB PUSH2 0x33B8 JUMP JUMPDEST DUP1 DUP1 PUSH1 0xE PUSH2 0x19E7 PUSH2 0x3F74 JUMP JUMPDEST POP POP POP PUSH32 0x6DE18E808FC4E6CB9C8910CF4BDC188DDBBDAB65FAECFF65DAB871720E848489 DUP2 PUSH1 0x40 MLOAD SWAP1 DUP2 MSTORE PUSH1 0x20 ADD PUSH1 0x40 MLOAD DUP1 SWAP2 SUB SWAP1 LOG1 POP JUMP JUMPDEST PUSH2 0x1A31 GAS PUSH2 0x1A2C PUSH2 0x404B JUMP JUMPDEST PUSH2 0x3432 JUMP JUMPDEST PUSH2 0x1A75 JUMPI PUSH1 0x40 MLOAD PUSH3 0x461BCD PUSH1 0xE5 SHL DUP2 MSTORE PUSH1 0x4 ADD DUP1 DUP1 PUSH1 0x20 ADD DUP3 DUP2 SUB DUP3 MSTORE PUSH1 0x21 DUP2 MSTORE PUSH1 0x20 ADD DUP1 PUSH2 0x4154 PUSH1 0x21 SWAP2 CODECOPY PUSH1 0x40 ADD SWAP2 POP POP PUSH1 0x40 MLOAD DUP1 SWAP2 SUB SWAP1 PUSH2 0x1A72 PUSH2 0x3CF0 JUMP JUMPDEST POP POP JUMPDEST PUSH1 0x0 PUSH1 0x3 PUSH2 0x1A81 PUSH2 0x3D5B JUMP JUMPDEST SWAP1 PUSH2 0x100 EXP SWAP1 DIV PUSH1 0xFF AND ISZERO PUSH2 0x1AD0 JUMPI PUSH1 0x40 MLOAD PUSH3 0x461BCD PUSH1 0xE5 SHL DUP2 MSTORE PUSH1 0x4 ADD DUP1 DUP1 PUSH1 0x20 ADD DUP3 DUP2 SUB DUP3 MSTORE PUSH1 0x3C DUP2 MSTORE PUSH1 0x20 ADD DUP1 PUSH2 0x41C9 PUSH1 0x3C SWAP2 CODECOPY PUSH1 0x40 ADD SWAP2 POP POP PUSH1 0x40 MLOAD DUP1 SWAP2 SUB SWAP1 PUSH2 0x1ACD PUSH2 0x3CF0 JUMP JUMPDEST POP POP JUMPDEST PUSH2 0x1AD8 PUSH2 0x36F4 JUMP JUMPDEST PUSH1 0x1 PUSH1 0x1 PUSH1 0xA0 SHL SUB AND PUSH4 0x86DABD1 PUSH1 0x40 MLOAD DUP2 PUSH4 0xFFFFFFFF AND PUSH1 0xE0 SHL DUP2 MSTORE PUSH1 0x4 ADD PUSH1 0x0 PUSH1 0x40 MLOAD DUP1 DUP4 SUB DUP2 DUP7 DUP1 PUSH2 0x1B0B PUSH2 0x3DB6 JUMP JUMPDEST ISZERO DUP1 ISZERO PUSH2 0x1B20 JUMPI PUSH1 0x0 DUP1 PUSH2 0x1B1D PUSH2 0x3CF0 JUMP JUMPDEST POP POP JUMPDEST POP GAS PUSH2 0x1B2A PUSH2 0x3E02 JUMP JUMPDEST POP POP POP POP POP ISZERO DUP1 ISZERO PUSH2 0x1B49 JUMPI RETURNDATASIZE PUSH1 0x0 DUP1 RETURNDATACOPY RETURNDATASIZE PUSH1 0x0 PUSH2 0x1B46 PUSH2 0x3CF0 JUMP JUMPDEST POP POP JUMPDEST POP POP POP POP PUSH2 0x1B5B DUP2 PUSH1 0x12 PUSH2 0xCF9 PUSH2 0x3D5B JUMP JUMPDEST DUP1 PUSH1 0x12 PUSH2 0xE49 PUSH2 0x3F74 JUMP JUMPDEST PUSH2 0x1B6E PUSH2 0x33B8 JUMP JUMPDEST PUSH20 0x0 PUSH4 0x907AF6C0 PUSH1 0x40 MLOAD DUP2 PUSH4 0xFFFFFFFF AND PUSH1 0xE0 SHL DUP2 MSTORE PUSH1 0x4 ADD PUSH1 0x20 PUSH1 0x40 MLOAD DUP1 DUP4 SUB DUP2 DUP7 DUP1 PUSH2 0x1BAD PUSH2 0x3DB6 JUMP JUMPDEST ISZERO DUP1 ISZERO PUSH2 0x1BC2 JUMPI PUSH1 0x0 DUP1 PUSH2 0x1BBF PUSH2 0x3CF0 JUMP JUMPDEST POP POP JUMPDEST POP GAS PUSH2 0x1BCC PUSH2 0x3FC2 JUMP JUMPDEST POP POP POP POP POP ISZERO DUP1 ISZERO PUSH2 0x1BEB JUMPI RETURNDATASIZE PUSH1 0x0 DUP1 RETURNDATACOPY RETURNDATASIZE PUSH1 0x0 PUSH2 0x1BE8 PUSH2 0x3CF0 JUMP JUMPDEST POP POP JUMPDEST POP POP POP POP PUSH1 0x40 MLOAD RETURNDATASIZE PUSH1 0x20 DUP2 LT ISZERO PUSH2 0x1C0A JUMPI PUSH1 0x0 DUP1 PUSH2 0x1C07 PUSH2 0x3CF0 JUMP JUMPDEST POP POP JUMPDEST DUP2 ADD SWAP1 DUP1 DUP1 MLOAD DUP5 GT ISZERO SWAP3 POP PUSH2 0x1C5C SWAP2 POP POP JUMPI PUSH1 0x40 MLOAD PUSH3 0x461BCD PUSH1 0xE5 SHL DUP2 MSTORE PUSH1 0x4 ADD DUP1 DUP1 PUSH1 0x20 ADD DUP3 DUP2 SUB DUP3 MSTORE PUSH1 0x2D DUP2 MSTORE PUSH1 0x20 ADD DUP1 PUSH2 0x40E4 PUSH1 0x2D SWAP2 CODECOPY PUSH1 0x40 ADD SWAP2 POP POP PUSH1 0x40 MLOAD DUP1 SWAP2 SUB SWAP1 PUSH2 0x1C59 PUSH2 0x3CF0 JUMP JUMPDEST POP POP JUMPDEST DUP1 DUP1 PUSH1 0x10 PUSH2 0x1C68 PUSH2 0x3F74 JUMP JUMPDEST POP POP POP PUSH32 0xD39CFBE31B20DBB6D995A675CF5C369555BF8BB908B6EFC03873907FE9E133CF DUP2 PUSH1 0x40 MLOAD SWAP1 DUP2 MSTORE PUSH1 0x20 ADD PUSH1 0x40 MLOAD DUP1 SWAP2 SUB SWAP1 LOG1 POP JUMP JUMPDEST PUSH2 0x1CB2 PUSH1 0x13 DUP3 PUSH4 0xFFFFFFFF PUSH2 0x3747 AND JUMP JUMPDEST PUSH2 0x1D02 JUMPI PUSH1 0x40 MLOAD PUSH3 0x461BCD PUSH1 0xE5 SHL DUP2 MSTORE PUSH1 0x20 PUSH1 0x4 DUP3 ADD MSTORE PUSH1 0x14 PUSH1 0x24 DUP3 ADD MSTORE PUSH20 0x139BDD08185B881858DD1A5D99481B585C9AD95D PUSH1 0x62 SHL PUSH1 0x44 DUP3 ADD MSTORE PUSH1 0x64 ADD PUSH1 0x40 MLOAD DUP1 SWAP2 SUB SWAP1 PUSH2 0x1CFF PUSH2 0x3CF0 JUMP JUMPDEST POP POP JUMPDEST DUP1 PUSH1 0x1 PUSH1 0x1 PUSH1 0xA0 SHL SUB AND PUSH4 0x2810E1D6 PUSH1 0x40 MLOAD DUP2 PUSH4 0xFFFFFFFF AND PUSH1 0xE0 SHL DUP2 MSTORE PUSH1 0x4 ADD PUSH1 0x0 PUSH1 0x40 MLOAD DUP1 DUP4 SUB DUP2 PUSH1 0x0 DUP8 DUP1 PUSH2 0x1D38 PUSH2 0x3DB6 JUMP JUMPDEST ISZERO DUP1 ISZERO PUSH2 0x1D4D JUMPI PUSH1 0x0 DUP1 PUSH2 0x1D4A PUSH2 0x3CF0 JUMP JUMPDEST POP POP JUMPDEST POP GAS PUSH2 0x1D57 PUSH2 0x3EBB JUMP JUMPDEST POP POP POP POP POP POP ISZERO DUP1 ISZERO PUSH2 0x1D77 JUMPI RETURNDATASIZE PUSH1 0x0 DUP1 RETURNDATACOPY RETURNDATASIZE PUSH1 0x0 PUSH2 0x1D74 PUSH2 0x3CF0 JUMP JUMPDEST POP POP JUMPDEST POP POP POP POP PUSH2 0x1D8F DUP2 PUSH1 0x13 PUSH2 0x345C SWAP1 SWAP2 SWAP1 PUSH4 0xFFFFFFFF AND JUMP JUMPDEST PUSH2 0x11B0 PUSH1 0x15 DUP3 PUSH4 0xFFFFFFFF PUSH2 0x37E6 AND JUMP JUMPDEST PUSH1 0x0 PUSH1 0x1 PUSH2 0x1DAC PUSH2 0x3D5B JUMP JUMPDEST SWAP1 PUSH2 0x100 EXP SWAP1 DIV PUSH1 0x1 PUSH1 0x1 PUSH1 0xA0 SHL SUB AND PUSH1 0x1 PUSH1 0x1 PUSH1 0xA0 SHL SUB AND GAS PUSH2 0x1DCE PUSH2 0x404B JUMP JUMPDEST PUSH1 0x1 PUSH1 0x1 PUSH1 0xA0 SHL SUB AND EQ PUSH2 0x1E1C JUMPI PUSH1 0x40 MLOAD PUSH3 0x461BCD PUSH1 0xE5 SHL DUP2 MSTORE PUSH1 0x4 ADD DUP1 DUP1 PUSH1 0x20 ADD DUP3 DUP2 SUB DUP3 MSTORE PUSH1 0x35 DUP2 MSTORE PUSH1 0x20 ADD DUP1 PUSH2 0x40AF PUSH1 0x35 SWAP2 CODECOPY PUSH1 0x40 ADD SWAP2 POP POP PUSH1 0x40 MLOAD DUP1 SWAP2 SUB SWAP1 PUSH2 0x1E19 PUSH2 0x3CF0 JUMP JUMPDEST POP POP JUMPDEST PUSH32 0xB532073B38C83145E3E5135377A08BF9AAB55BC0FD7C1179CD4FB995D2A5159C PUSH1 0x0 DUP1 PUSH2 0x1E48 PUSH2 0x3D5B JUMP JUMPDEST SWAP1 PUSH2 0x100 EXP SWAP1 DIV PUSH1 0x1 PUSH1 0x1 PUSH1 0xA0 SHL SUB AND PUSH1 0x1 PUSH1 0x0 SWAP1 PUSH2 0x1E65 PUSH2 0x3D5B JUMP JUMPDEST SWAP1 PUSH2 0x100 EXP SWAP1 DIV PUSH1 0x1 PUSH1 0x1 PUSH1 0xA0 SHL SUB AND PUSH1 0x40 MLOAD PUSH1 0x1 PUSH1 0x1 PUSH1 0xA0 SHL SUB SWAP3 DUP4 AND DUP2 MSTORE SWAP2 AND PUSH1 0x20 DUP3 ADD MSTORE PUSH1 0x40 SWAP1 DUP2 ADD SWAP1 MLOAD DUP1 SWAP2 SUB SWAP1 LOG1 PUSH1 0x0 PUSH1 0x1 PUSH2 0x1EA4 PUSH2 0x3D5B JUMP JUMPDEST SWAP1 PUSH2 0x100 EXP SWAP1 DIV PUSH1 0x1 PUSH1 0x1 PUSH1 0xA0 SHL SUB AND PUSH1 0x0 DUP1 PUSH2 0x100 EXP DUP2 PUSH2 0x1EC4 PUSH2 0x3D5B JUMP JUMPDEST DUP2 PUSH1 0x1 PUSH1 0x1 PUSH1 0xA0 SHL SUB MUL NOT AND SWAP1 DUP4 PUSH1 0x1 PUSH1 0x1 PUSH1 0xA0 SHL SUB AND MUL OR SWAP1 PUSH2 0x1EE6 PUSH2 0x3F74 JUMP JUMPDEST POP POP POP PUSH1 0x0 PUSH1 0x1 PUSH1 0x0 PUSH2 0x100 EXP DUP2 PUSH2 0x1EFC PUSH2 0x3D5B JUMP JUMPDEST DUP2 PUSH1 0x1 PUSH1 0x1 PUSH1 0xA0 SHL SUB MUL NOT AND SWAP1 DUP4 PUSH1 0x1 PUSH1 0x1 PUSH1 0xA0 SHL SUB AND MUL OR SWAP1 PUSH2 0x1F1E PUSH2 0x3F74 JUMP JUMPDEST POP POP POP JUMP JUMPDEST PUSH1 0x60 PUSH2 0x1F37 PUSH1 0x15 DUP5 DUP5 PUSH4 0xFFFFFFFF PUSH2 0x3879 AND JUMP JUMPDEST SWAP1 POP JUMPDEST SWAP3 SWAP2 POP POP JUMP JUMPDEST PUSH1 0x0 DUP1 PUSH2 0xE5B PUSH2 0x3D5B JUMP JUMPDEST PUSH1 0x2 PUSH2 0x11BD PUSH2 0x3D5B JUMP JUMPDEST PUSH1 0x0 DUP1 PUSH1 0x3 PUSH2 0x1F62 PUSH2 0x3D5B JUMP JUMPDEST SWAP1 PUSH2 0x100 EXP SWAP1 DIV PUSH1 0xFF AND ISZERO PUSH2 0x1FB1 JUMPI PUSH1 0x40 MLOAD PUSH3 0x461BCD PUSH1 0xE5 SHL DUP2 MSTORE PUSH1 0x4 ADD DUP1 DUP1 PUSH1 0x20 ADD DUP3 DUP2 SUB DUP3 MSTORE PUSH1 0x3C DUP2 MSTORE PUSH1 0x20 ADD DUP1 PUSH2 0x41C9 PUSH1 0x3C SWAP2 CODECOPY PUSH1 0x40 ADD SWAP2 POP POP PUSH1 0x40 MLOAD DUP1 SWAP2 SUB SWAP1 PUSH2 0x1FAE PUSH2 0x3CF0 JUMP JUMPDEST POP POP JUMPDEST PUSH2 0x1FB9 PUSH2 0x36F4 JUMP JUMPDEST PUSH1 0x1 PUSH1 0x1 PUSH1 0xA0 SHL SUB AND PUSH4 0x86DABD1 PUSH1 0x40 MLOAD DUP2 PUSH4 0xFFFFFFFF AND PUSH1 0xE0 SHL DUP2 MSTORE PUSH1 0x4 ADD PUSH1 0x0 PUSH1 0x40 MLOAD DUP1 DUP4 SUB DUP2 DUP7 DUP1 PUSH2 0x1FEC PUSH2 0x3DB6 JUMP JUMPDEST ISZERO DUP1 ISZERO PUSH2 0x2001 JUMPI PUSH1 0x0 DUP1 PUSH2 0x1FFE PUSH2 0x3CF0 JUMP JUMPDEST POP POP JUMPDEST POP GAS PUSH2 0x200B PUSH2 0x3E02 JUMP JUMPDEST POP POP POP POP POP ISZERO DUP1 ISZERO PUSH2 0x202A JUMPI RETURNDATASIZE PUSH1 0x0 DUP1 RETURNDATACOPY RETURNDATASIZE PUSH1 0x0 PUSH2 0x2027 PUSH2 0x3CF0 JUMP JUMPDEST POP POP JUMPDEST POP POP POP POP PUSH1 0x11 PUSH1 0x0 SWAP1 PUSH2 0x203B PUSH2 0x3D5B JUMP JUMPDEST SWAP1 PUSH2 0x100 EXP SWAP1 DIV PUSH1 0xFF AND PUSH2 0x209E JUMPI PUSH1 0x40 MLOAD PUSH3 0x461BCD PUSH1 0xE5 SHL DUP2 MSTORE PUSH1 0x20 PUSH1 0x4 DUP3 ADD MSTORE PUSH1 0x1B PUSH1 0x24 DUP3 ADD MSTORE PUSH32 0x4D61726B6574206372656174696F6E2069732064697361626C65640000000000 PUSH1 0x44 DUP3 ADD MSTORE PUSH1 0x64 ADD PUSH1 0x40 MLOAD DUP1 SWAP2 SUB SWAP1 PUSH2 0x209B PUSH2 0x3CF0 JUMP JUMPDEST POP POP JUMPDEST PUSH2 0x20A7 DUP7 PUSH2 0x398A JUMP JUMPDEST PUSH2 0x20EE JUMPI PUSH1 0x40 MLOAD PUSH3 0x461BCD PUSH1 0xE5 SHL DUP2 MSTORE PUSH1 0x20 PUSH1 0x4 DUP3 ADD MSTORE PUSH1 0xB PUSH1 0x24 DUP3 ADD MSTORE PUSH11 0x496E76616C6964206B6579 PUSH1 0xA8 SHL PUSH1 0x44 DUP3 ADD MSTORE PUSH1 0x64 ADD PUSH1 0x40 MLOAD DUP1 SWAP2 SUB SWAP1 PUSH2 0x20EB PUSH2 0x3CF0 JUMP JUMPDEST POP POP JUMPDEST DUP3 CALLDATALOAD PUSH1 0x20 DUP5 ADD CALLDATALOAD PUSH1 0xE PUSH2 0x20FF PUSH2 0x3D5B JUMP JUMPDEST GAS PUSH2 0x2108 PUSH2 0x4005 JUMP JUMPDEST ADD DUP2 GT ISZERO PUSH2 0x2165 JUMPI PUSH1 0x40 MLOAD PUSH3 0x461BCD PUSH1 0xE5 SHL DUP2 MSTORE PUSH1 0x20 PUSH1 0x4 DUP3 ADD MSTORE PUSH1 0x1E PUSH1 0x24 DUP3 ADD MSTORE PUSH32 0x4D6174757269747920746F6F2066617220696E20746865206675747572650000 PUSH1 0x44 DUP3 ADD MSTORE PUSH1 0x64 ADD PUSH1 0x40 MLOAD DUP1 SWAP2 SUB SWAP1 PUSH2 0x2162 PUSH2 0x3CF0 JUMP JUMPDEST POP POP JUMPDEST PUSH1 0x0 PUSH2 0x2181 PUSH1 0xD PUSH2 0x2174 PUSH2 0x3D5B JUMP JUMPDEST DUP4 SWAP1 PUSH4 0xFFFFFFFF PUSH2 0x3627 AND JUMP JUMPDEST SWAP1 POP PUSH1 0x0 PUSH2 0x2194 DUP7 CALLDATALOAD PUSH1 0x20 DUP9 ADD CALLDATALOAD PUSH2 0x3627 JUMP JUMPDEST SWAP1 POP DUP4 GAS PUSH2 0x21A0 PUSH2 0x4005 JUMP JUMPDEST LT PUSH2 0x21FA JUMPI PUSH1 0x40 MLOAD PUSH3 0x461BCD PUSH1 0xE5 SHL DUP2 MSTORE PUSH1 0x20 PUSH1 0x4 DUP3 ADD MSTORE PUSH1 0x19 PUSH1 0x24 DUP3 ADD MSTORE PUSH32 0x456E64206F662062696464696E67206861732070617373656400000000000000 PUSH1 0x44 DUP3 ADD MSTORE PUSH1 0x64 ADD PUSH1 0x40 MLOAD DUP1 SWAP2 SUB SWAP1 PUSH2 0x21F7 PUSH2 0x3CF0 JUMP JUMPDEST POP POP JUMPDEST DUP3 DUP5 LT PUSH2 0x2256 JUMPI PUSH1 0x40 MLOAD PUSH3 0x461BCD PUSH1 0xE5 SHL DUP2 MSTORE PUSH1 0x20 PUSH1 0x4 DUP3 ADD DUP2 SWAP1 MSTORE PUSH1 0x24 DUP3 ADD MSTORE PUSH32 0x4D6174757269747920707265646174657320656E64206F662062696464696E67 PUSH1 0x44 DUP3 ADD MSTORE PUSH1 0x64 ADD PUSH1 0x40 MLOAD DUP1 SWAP2 SUB SWAP1 PUSH2 0x2253 PUSH2 0x3CF0 JUMP JUMPDEST POP POP JUMPDEST PUSH1 0x0 PUSH2 0x2260 PUSH2 0x3B57 JUMP JUMPDEST PUSH1 0x1 PUSH1 0x1 PUSH1 0xA0 SHL SUB AND PUSH4 0x130EFA50 GAS PUSH2 0x2277 PUSH2 0x404B JUMP JUMPDEST PUSH1 0x40 MLOAD PUSH1 0x40 DUP1 DUP3 ADD SWAP1 MSTORE DUP1 PUSH1 0xF PUSH2 0x228C PUSH2 0x3D5B JUMP JUMPDEST DUP2 MSTORE PUSH1 0x20 ADD PUSH1 0x10 PUSH2 0x229B PUSH2 0x3D5B JUMP JUMPDEST SWAP1 MSTORE DUP15 DUP15 DUP15 PUSH1 0x40 MLOAD DUP1 PUSH1 0x60 ADD PUSH1 0x40 MSTORE DUP1 DUP14 DUP2 MSTORE PUSH1 0x20 ADD DUP13 DUP2 MSTORE PUSH1 0x20 ADD DUP12 DUP2 MSTORE POP DUP15 PUSH1 0x40 MLOAD PUSH1 0x60 DUP2 ADD PUSH1 0x40 MSTORE DUP1 PUSH1 0x9 PUSH2 0x22D1 PUSH2 0x3D5B JUMP JUMPDEST DUP2 MSTORE PUSH1 0x20 ADD PUSH1 0xA PUSH2 0x22E0 PUSH2 0x3D5B JUMP JUMPDEST DUP2 MSTORE PUSH1 0x20 ADD PUSH1 0xB PUSH2 0x22EF PUSH2 0x3D5B JUMP JUMPDEST SWAP1 MSTORE PUSH1 0x40 MLOAD PUSH1 0x1 PUSH1 0x1 PUSH1 0xE0 SHL SUB NOT PUSH1 0xE0 DUP12 SWAP1 SHL AND DUP2 MSTORE PUSH1 0x1 PUSH1 0x1 PUSH1 0xA0 SHL SUB DUP10 AND PUSH1 0x4 DUP3 ADD SWAP1 DUP2 MSTORE SWAP1 PUSH1 0x24 ADD DUP9 PUSH1 0x40 DUP1 DUP4 DUP4 PUSH1 0x0 JUMPDEST DUP4 DUP2 LT ISZERO PUSH2 0x233B JUMPI DUP1 DUP3 ADD MLOAD DUP4 DUP3 ADD MSTORE PUSH1 0x20 ADD PUSH2 0x2323 JUMP JUMPDEST POP POP POP POP SWAP1 POP ADD DUP8 DUP2 MSTORE PUSH1 0x20 ADD DUP7 DUP2 MSTORE PUSH1 0x20 ADD DUP6 ISZERO ISZERO ISZERO ISZERO DUP2 MSTORE PUSH1 0x20 ADD DUP5 PUSH1 0x3 PUSH1 0x20 MUL DUP1 DUP4 DUP4 PUSH1 0x0 JUMPDEST DUP4 DUP2 LT ISZERO PUSH2 0x237C JUMPI DUP1 DUP3 ADD MLOAD DUP4 DUP3 ADD MSTORE PUSH1 0x20 ADD PUSH2 0x2364 JUMP JUMPDEST POP POP POP POP SWAP1 POP ADD DUP4 PUSH1 0x2 PUSH1 0x20 MUL DUP1 DUP3 DUP5 CALLDATACOPY PUSH1 0x0 DUP2 DUP5 ADD MSTORE PUSH1 0x1F NOT PUSH1 0x1F DUP3 ADD AND SWAP1 POP DUP1 DUP4 ADD SWAP3 POP POP POP DUP3 PUSH1 0x3 PUSH1 0x20 MUL DUP1 DUP4 DUP4 PUSH1 0x0 JUMPDEST DUP4 DUP2 LT ISZERO PUSH2 0x23C8 JUMPI DUP1 DUP3 ADD MLOAD DUP4 DUP3 ADD MSTORE PUSH1 0x20 ADD PUSH2 0x23B0 JUMP JUMPDEST POP POP POP POP SWAP1 POP ADD SWAP9 POP POP POP POP POP POP POP POP POP PUSH1 0x20 PUSH1 0x40 MLOAD DUP1 DUP4 SUB DUP2 PUSH1 0x0 DUP8 DUP1 PUSH2 0x23EE PUSH2 0x3DB6 JUMP JUMPDEST ISZERO DUP1 ISZERO PUSH2 0x2403 JUMPI PUSH1 0x0 DUP1 PUSH2 0x2400 PUSH2 0x3CF0 JUMP JUMPDEST POP POP JUMPDEST POP GAS PUSH2 0x240D PUSH2 0x3EBB JUMP JUMPDEST POP POP POP POP POP POP ISZERO DUP1 ISZERO PUSH2 0x242D JUMPI RETURNDATASIZE PUSH1 0x0 DUP1 RETURNDATACOPY RETURNDATASIZE PUSH1 0x0 PUSH2 0x242A PUSH2 0x3CF0 JUMP JUMPDEST POP POP JUMPDEST POP POP POP POP PUSH1 0x40 MLOAD RETURNDATASIZE PUSH1 0x20 DUP2 LT ISZERO PUSH2 0x244C JUMPI PUSH1 0x0 DUP1 PUSH2 0x2449 PUSH2 0x3CF0 JUMP JUMPDEST POP POP JUMPDEST DUP2 ADD SWAP1 DUP1 DUP1 MLOAD SWAP4 POP POP PUSH1 0x1 PUSH1 0x1 PUSH1 0xA0 SHL SUB DUP4 AND SWAP2 POP PUSH4 0x3BE99E6F SWAP1 POP PUSH1 0x0 PUSH1 0x6 PUSH2 0x2474 PUSH2 0x3D5B JUMP JUMPDEST SWAP1 PUSH2 0x100 EXP SWAP1 DIV PUSH1 0x1 PUSH1 0x1 PUSH1 0xA0 SHL SUB AND PUSH1 0x40 MLOAD PUSH1 0x1 PUSH1 0x1 PUSH1 0xE0 SHL SUB NOT PUSH1 0xE0 DUP5 SWAP1 SHL AND DUP2 MSTORE PUSH1 0x1 PUSH1 0x1 PUSH1 0xA0 SHL SUB SWAP1 SWAP2 AND PUSH1 0x4 DUP3 ADD MSTORE PUSH1 0x24 ADD PUSH1 0x0 PUSH1 0x40 MLOAD DUP1 DUP4 SUB DUP2 PUSH1 0x0 DUP8 DUP1 PUSH2 0x24C0 PUSH2 0x3DB6 JUMP JUMPDEST ISZERO DUP1 ISZERO PUSH2 0x24D5 JUMPI PUSH1 0x0 DUP1 PUSH2 0x24D2 PUSH2 0x3CF0 JUMP JUMPDEST POP POP JUMPDEST POP GAS PUSH2 0x24DF PUSH2 0x3EBB JUMP JUMPDEST POP POP POP POP POP POP ISZERO DUP1 ISZERO PUSH2 0x24FF JUMPI RETURNDATASIZE PUSH1 0x0 DUP1 RETURNDATACOPY RETURNDATASIZE PUSH1 0x0 PUSH2 0x24FC PUSH2 0x3CF0 JUMP JUMPDEST POP POP JUMPDEST POP POP POP POP PUSH2 0x2517 DUP2 PUSH1 0x13 PUSH2 0x37E6 SWAP1 SWAP2 SWAP1 PUSH4 0xFFFFFFFF AND JUMP JUMPDEST PUSH2 0x2531 DUP3 PUSH1 0x12 PUSH2 0x2525 PUSH2 0x3D5B JUMP JUMPDEST SWAP1 PUSH4 0xFFFFFFFF PUSH2 0x3627 AND JUMP JUMPDEST DUP1 PUSH1 0x12 PUSH2 0x253C PUSH2 0x3F74 JUMP JUMPDEST POP POP POP PUSH2 0x2547 PUSH2 0x3B99 JUMP JUMPDEST PUSH1 0x1 PUSH1 0x1 PUSH1 0xA0 SHL SUB AND PUSH4 0x23B872DD GAS PUSH2 0x255E PUSH2 0x404B JUMP JUMPDEST DUP4 DUP6 PUSH1 0x40 MLOAD PUSH1 0x1 PUSH1 0x1 PUSH1 0xE0 SHL SUB NOT PUSH1 0xE0 DUP7 SWAP1 SHL AND DUP2 MSTORE PUSH1 0x1 PUSH1 0x1 PUSH1 0xA0 SHL SUB SWAP4 DUP5 AND PUSH1 0x4 DUP3 ADD MSTORE SWAP2 SWAP1 SWAP3 AND PUSH1 0x24 DUP3 ADD MSTORE PUSH1 0x44 DUP2 ADD SWAP2 SWAP1 SWAP2 MSTORE PUSH1 0x64 ADD PUSH1 0x20 PUSH1 0x40 MLOAD DUP1 DUP4 SUB DUP2 PUSH1 0x0 DUP8 DUP1 PUSH2 0x25AD PUSH2 0x3DB6 JUMP JUMPDEST ISZERO DUP1 ISZERO PUSH2 0x25C2 JUMPI PUSH1 0x0 DUP1 PUSH2 0x25BF PUSH2 0x3CF0 JUMP JUMPDEST POP POP JUMPDEST POP GAS PUSH2 0x25CC PUSH2 0x3EBB JUMP JUMPDEST POP POP POP POP POP POP ISZERO DUP1 ISZERO PUSH2 0x25EC JUMPI RETURNDATASIZE PUSH1 0x0 DUP1 RETURNDATACOPY RETURNDATASIZE PUSH1 0x0 PUSH2 0x25E9 PUSH2 0x3CF0 JUMP JUMPDEST POP POP JUMPDEST POP POP POP POP PUSH1 0x40 MLOAD RETURNDATASIZE PUSH1 0x20 DUP2 LT ISZERO PUSH2 0x260B JUMPI PUSH1 0x0 DUP1 PUSH2 0x2608 PUSH2 0x3CF0 JUMP JUMPDEST POP POP JUMPDEST DUP2 ADD SWAP1 DUP1 DUP1 MLOAD POP DUP14 SWAP3 POP POP POP GAS PUSH2 0x2620 PUSH2 0x404B JUMP JUMPDEST PUSH1 0x1 PUSH1 0x1 PUSH1 0xA0 SHL SUB AND PUSH32 0xBCD154709BBE69680012CADCD07D57BD4A0EC64A033C2A3E31D2D0FADB38D3A8 DUP4 DUP14 DUP10 DUP10 DUP10 PUSH1 0x40 MLOAD PUSH1 0x1 PUSH1 0x1 PUSH1 0xA0 SHL SUB SWAP1 SWAP6 AND DUP6 MSTORE PUSH1 0x20 DUP6 ADD SWAP4 SWAP1 SWAP4 MSTORE PUSH1 0x40 DUP1 DUP6 ADD SWAP3 SWAP1 SWAP3 MSTORE PUSH1 0x60 DUP5 ADD MSTORE PUSH1 0x80 DUP4 ADD SWAP2 SWAP1 SWAP2 MSTORE PUSH1 0xA0 SWAP1 SWAP2 ADD SWAP1 MLOAD DUP1 SWAP2 SUB SWAP1 LOG3 SWAP11 SWAP10 POP POP POP POP POP POP POP POP POP POP JUMP JUMPDEST PUSH2 0x269F PUSH2 0x33B8 JUMP JUMPDEST PUSH1 0x0 PUSH1 0xA PUSH2 0x26AB PUSH2 0x3D5B JUMP JUMPDEST DUP3 ADD SWAP1 POP PUSH20 0x0 PUSH4 0x907AF6C0 PUSH1 0x40 MLOAD DUP2 PUSH4 0xFFFFFFFF AND PUSH1 0xE0 SHL DUP2 MSTORE PUSH1 0x4 ADD PUSH1 0x20 PUSH1 0x40 MLOAD DUP1 DUP4 SUB DUP2 DUP7 DUP1 PUSH2 0x26EE PUSH2 0x3DB6 JUMP JUMPDEST ISZERO DUP1 ISZERO PUSH2 0x2703 JUMPI PUSH1 0x0 DUP1 PUSH2 0x2700 PUSH2 0x3CF0 JUMP JUMPDEST POP POP JUMPDEST POP GAS PUSH2 0x270D PUSH2 0x3FC2 JUMP JUMPDEST POP POP POP POP POP ISZERO DUP1 ISZERO PUSH2 0x272C JUMPI RETURNDATASIZE PUSH1 0x0 DUP1 RETURNDATACOPY RETURNDATASIZE PUSH1 0x0 PUSH2 0x2729 PUSH2 0x3CF0 JUMP JUMPDEST POP POP JUMPDEST POP POP POP POP PUSH1 0x40 MLOAD RETURNDATASIZE PUSH1 0x20 DUP2 LT ISZERO PUSH2 0x274B JUMPI PUSH1 0x0 DUP1 PUSH2 0x2748 PUSH2 0x3CF0 JUMP JUMPDEST POP POP JUMPDEST DUP2 ADD SWAP1 DUP1 DUP1 MLOAD DUP5 LT SWAP3 POP PUSH2 0x279C SWAP2 POP POP JUMPI PUSH1 0x40 MLOAD PUSH3 0x461BCD PUSH1 0xE5 SHL DUP2 MSTORE PUSH1 0x4 ADD DUP1 DUP1 PUSH1 0x20 ADD DUP3 DUP2 SUB DUP3 MSTORE PUSH1 0x21 DUP2 MSTORE PUSH1 0x20 ADD DUP1 PUSH2 0x4111 PUSH1 0x21 SWAP2 CODECOPY PUSH1 0x40 ADD SWAP2 POP POP PUSH1 0x40 MLOAD DUP1 SWAP2 SUB SWAP1 PUSH2 0x2799 PUSH2 0x3CF0 JUMP JUMPDEST POP POP JUMPDEST DUP1 PUSH1 0x0 LT PUSH2 0x27F9 JUMPI PUSH1 0x40 MLOAD PUSH3 0x461BCD PUSH1 0xE5 SHL DUP2 MSTORE PUSH1 0x20 PUSH1 0x4 DUP3 ADD MSTORE PUSH1 0x1A PUSH1 0x24 DUP3 ADD MSTORE PUSH32 0x546F74616C20666565206D757374206265206E6F6E7A65726F2E000000000000 PUSH1 0x44 DUP3 ADD MSTORE PUSH1 0x64 ADD PUSH1 0x40 MLOAD DUP1 SWAP2 SUB SWAP1 PUSH2 0x27F6 PUSH2 0x3CF0 JUMP JUMPDEST POP POP JUMPDEST DUP2 DUP1 PUSH1 0x9 PUSH2 0x2805 PUSH2 0x3F74 JUMP JUMPDEST POP POP POP PUSH32 0x7B30E8F8E3DE254785FBCB3068449DC18060F1FDB37B02731ECADA99A78492C3 DUP3 PUSH1 0x40 MLOAD SWAP1 DUP2 MSTORE PUSH1 0x20 ADD PUSH1 0x40 MLOAD DUP1 SWAP2 SUB SWAP1 LOG1 POP POP JUMP JUMPDEST PUSH1 0x9 DUP1 PUSH2 0x16DE PUSH2 0x3D5B JUMP JUMPDEST PUSH2 0x2852 PUSH2 0x33B8 JUMP JUMPDEST PUSH1 0x0 PUSH1 0x5 PUSH2 0x285E PUSH2 0x3D5B JUMP JUMPDEST SWAP1 PUSH2 0x100 EXP SWAP1 DIV PUSH1 0xFF AND PUSH2 0x28C1 JUMPI PUSH1 0x40 MLOAD PUSH3 0x461BCD PUSH1 0xE5 SHL DUP2 MSTORE PUSH1 0x20 PUSH1 0x4 DUP3 ADD MSTORE PUSH1 0x1F PUSH1 0x24 DUP3 ADD MSTORE PUSH32 0x53656C66204465737472756374206E6F742079657420696E6974696174656400 PUSH1 0x44 DUP3 ADD MSTORE PUSH1 0x64 ADD PUSH1 0x40 MLOAD DUP1 SWAP2 SUB SWAP1 PUSH2 0x28BE PUSH2 0x3CF0 JUMP JUMPDEST POP POP JUMPDEST GAS PUSH2 0x28CA PUSH2 0x4005 JUMP JUMPDEST PUSH3 0x24EA00 PUSH1 0x4 PUSH2 0x28D8 PUSH2 0x3D5B JUMP JUMPDEST ADD LT PUSH2 0x2933 JUMPI PUSH1 0x40 MLOAD PUSH3 0x461BCD PUSH1 0xE5 SHL DUP2 MSTORE PUSH1 0x20 PUSH1 0x4 DUP3 ADD MSTORE PUSH1 0x1B PUSH1 0x24 DUP3 ADD MSTORE PUSH32 0x53656C662064657374727563742064656C6179206E6F74206D65740000000000 PUSH1 0x44 DUP3 ADD MSTORE PUSH1 0x64 ADD PUSH1 0x40 MLOAD DUP1 SWAP2 SUB SWAP1 PUSH2 0x2930 PUSH2 0x3CF0 JUMP JUMPDEST POP POP JUMPDEST PUSH32 0x8A09E1677CED846CB537DC2B172043BD05A1A81AD7E0033A7EF8BA762DF990B7 PUSH1 0x1 PUSH1 0x5 PUSH2 0x2960 PUSH2 0x3D5B JUMP JUMPDEST SWAP1 PUSH2 0x100 EXP SWAP1 DIV PUSH1 0x1 PUSH1 0x1 PUSH1 0xA0 SHL SUB AND PUSH1 0x40 MLOAD PUSH1 0x1 PUSH1 0x1 PUSH1 0xA0 SHL SUB SWAP1 SWAP2 AND DUP2 MSTORE PUSH1 0x20 ADD PUSH1 0x40 MLOAD DUP1 SWAP2 SUB SWAP1 LOG1 JUMP JUMPDEST PUSH3 0x24EA00 DUP2 JUMP JUMPDEST PUSH2 0x299C PUSH2 0x4091 JUMP JUMPDEST PUSH1 0x0 JUMPDEST PUSH1 0x8 DUP1 PUSH2 0x29AA PUSH2 0x3D5B JUMP JUMPDEST SWAP1 POP DUP2 LT ISZERO PUSH2 0x29F2 JUMPI PUSH1 0x8 DUP2 DUP2 PUSH2 0x29BF PUSH2 0x3D5B JUMP JUMPDEST DUP2 LT PUSH2 0x29C7 JUMPI INVALID JUMPDEST SWAP1 PUSH1 0x0 MSTORE PUSH1 0x20 PUSH1 0x0 KECCAK256 ADD PUSH2 0x29D9 PUSH2 0x3D5B JUMP JUMPDEST DUP3 DUP3 PUSH1 0x18 DUP2 LT PUSH2 0x29E5 JUMPI INVALID JUMPDEST PUSH1 0x20 MUL ADD MSTORE PUSH1 0x1 ADD PUSH2 0x299F JUMP JUMPDEST POP SWAP1 JUMP JUMPDEST PUSH1 0x0 PUSH1 0x15 DUP1 PUSH2 0xAE4 PUSH2 0x3D5B JUMP JUMPDEST PUSH1 0x0 PUSH1 0x17 PUSH2 0x2A0F PUSH2 0x3D5B JUMP JUMPDEST SWAP1 PUSH2 0x100 EXP SWAP1 DIV PUSH1 0x1 PUSH1 0x1 PUSH1 0xA0 SHL SUB AND PUSH1 0x1 PUSH1 0x1 PUSH1 0xA0 SHL SUB AND GAS PUSH2 0x2A31 PUSH2 0x404B JUMP JUMPDEST PUSH1 0x1 PUSH1 0x1 PUSH1 0xA0 SHL SUB AND EQ PUSH2 0x2A7F JUMPI PUSH1 0x40 MLOAD PUSH3 0x461BCD PUSH1 0xE5 SHL DUP2 MSTORE PUSH1 0x4 ADD DUP1 DUP1 PUSH1 0x20 ADD DUP3 DUP2 SUB DUP3 MSTORE PUSH1 0x25 DUP2 MSTORE PUSH1 0x20 ADD DUP1 PUSH2 0x41A4 PUSH1 0x25 SWAP2 CODECOPY PUSH1 0x40 ADD SWAP2 POP POP PUSH1 0x40 MLOAD DUP1 SWAP2 SUB SWAP1 PUSH2 0x2A7C PUSH2 0x3CF0 JUMP JUMPDEST POP POP JUMPDEST DUP1 DUP1 PUSH2 0x2A8B JUMPI POP PUSH2 0x1F1E JUMP JUMPDEST PUSH1 0x0 DUP5 PUSH2 0x2A99 JUMPI PUSH1 0x15 PUSH2 0x2A9C JUMP JUMPDEST PUSH1 0x13 JUMPDEST SWAP1 POP PUSH1 0x0 DUP1 JUMPDEST DUP4 DUP2 LT ISZERO PUSH2 0x2BF3 JUMPI PUSH1 0x0 DUP7 DUP7 DUP4 DUP2 DUP2 LT PUSH2 0x2AB8 JUMPI INVALID JUMPDEST SWAP1 POP PUSH1 0x20 MUL ADD CALLDATALOAD PUSH1 0x1 PUSH1 0x1 PUSH1 0xA0 SHL SUB AND SWAP1 POP PUSH2 0x2AD3 DUP2 PUSH2 0x3432 JUMP JUMPDEST ISZERO PUSH2 0x2B25 JUMPI PUSH1 0x40 MLOAD PUSH3 0x461BCD PUSH1 0xE5 SHL DUP2 MSTORE PUSH1 0x20 PUSH1 0x4 DUP3 ADD MSTORE PUSH1 0x15 PUSH1 0x24 DUP3 ADD MSTORE PUSH21 0x26B0B935B2BA1030B63932B0B23C9035B737BBB717 PUSH1 0x59 SHL PUSH1 0x44 DUP3 ADD MSTORE PUSH1 0x64 ADD PUSH1 0x40 MLOAD DUP1 SWAP2 SUB SWAP1 PUSH2 0x2B22 PUSH2 0x3CF0 JUMP JUMPDEST POP POP JUMPDEST DUP1 PUSH1 0x1 PUSH1 0x1 PUSH1 0xA0 SHL SUB AND PUSH4 0x79BA5097 PUSH1 0x40 MLOAD DUP2 PUSH4 0xFFFFFFFF AND PUSH1 0xE0 SHL DUP2 MSTORE PUSH1 0x4 ADD PUSH1 0x0 PUSH1 0x40 MLOAD DUP1 DUP4 SUB DUP2 PUSH1 0x0 DUP8 DUP1 PUSH2 0x2B5B PUSH2 0x3DB6 JUMP JUMPDEST ISZERO DUP1 ISZERO PUSH2 0x2B70 JUMPI PUSH1 0x0 DUP1 PUSH2 0x2B6D PUSH2 0x3CF0 JUMP JUMPDEST POP POP JUMPDEST POP GAS PUSH2 0x2B7A PUSH2 0x3EBB JUMP JUMPDEST POP POP POP POP POP POP ISZERO DUP1 ISZERO PUSH2 0x2B9A JUMPI RETURNDATASIZE PUSH1 0x0 DUP1 RETURNDATACOPY RETURNDATASIZE PUSH1 0x0 PUSH2 0x2B97 PUSH2 0x3CF0 JUMP JUMPDEST POP POP JUMPDEST POP POP POP POP PUSH2 0x2BB1 DUP2 DUP6 PUSH2 0x37E6 SWAP1 SWAP2 SWAP1 PUSH4 0xFFFFFFFF AND JUMP JUMPDEST PUSH2 0x2BE8 DUP2 PUSH1 0x1 PUSH1 0x1 PUSH1 0xA0 SHL SUB AND PUSH4 0xEEF49EE3 PUSH1 0x40 MLOAD DUP2 PUSH4 0xFFFFFFFF AND PUSH1 0xE0 SHL DUP2 MSTORE PUSH1 0x4 ADD PUSH1 0x20 PUSH1 0x40 MLOAD DUP1 DUP4 SUB DUP2 DUP7 DUP1 PUSH2 0xBD8 PUSH2 0x3DB6 JUMP JUMPDEST SWAP3 POP POP PUSH1 0x1 ADD PUSH2 0x2AA2 JUMP JUMPDEST POP PUSH2 0x2C02 DUP2 PUSH1 0x12 PUSH2 0x2525 PUSH2 0x3D5B JUMP JUMPDEST DUP1 PUSH1 0x12 PUSH2 0x2C0D PUSH2 0x3F74 JUMP JUMPDEST POP POP POP PUSH32 0xEA7A4E14E72BA7DB7E2FD406278900BADF50B2CE7D9DEF39D613CC08054C537B PUSH1 0x17 PUSH1 0x0 SWAP1 PUSH2 0x2C3E PUSH2 0x3D5B JUMP JUMPDEST SWAP1 PUSH2 0x100 EXP SWAP1 DIV PUSH1 0x1 PUSH1 0x1 PUSH1 0xA0 SHL SUB AND DUP7 DUP7 PUSH1 0x40 MLOAD PUSH1 0x1 PUSH1 0x1 PUSH1 0xA0 SHL SUB DUP5 AND DUP2 MSTORE PUSH1 0x40 PUSH1 0x20 DUP1 DUP4 ADD DUP3 DUP2 MSTORE SWAP2 DUP4 ADD DUP5 SWAP1 MSTORE PUSH1 0x60 DUP4 ADD SWAP1 DUP6 SWAP1 DUP6 MUL DUP1 DUP3 DUP5 CALLDATACOPY PUSH1 0x0 DUP4 DUP3 ADD MSTORE PUSH1 0x1F ADD PUSH1 0x1F NOT AND SWAP1 SWAP2 ADD SWAP6 POP PUSH1 0x40 SWAP5 POP POP POP POP POP MLOAD DUP1 SWAP2 SUB SWAP1 LOG1 POP POP POP POP POP POP JUMP JUMPDEST PUSH2 0x2CBE GAS PUSH2 0x2CB0 PUSH2 0x404B JUMP JUMPDEST PUSH1 0x13 SWAP1 PUSH4 0xFFFFFFFF PUSH2 0x3747 AND JUMP JUMPDEST PUSH2 0x2D02 JUMPI PUSH1 0x40 MLOAD PUSH3 0x461BCD PUSH1 0xE5 SHL DUP2 MSTORE PUSH1 0x4 ADD DUP1 DUP1 PUSH1 0x20 ADD DUP3 DUP2 SUB DUP3 MSTORE PUSH1 0x22 DUP2 MSTORE PUSH1 0x20 ADD DUP1 PUSH2 0x4132 PUSH1 0x22 SWAP2 CODECOPY PUSH1 0x40 ADD SWAP2 POP POP PUSH1 0x40 MLOAD DUP1 SWAP2 SUB SWAP1 PUSH2 0x2CFF PUSH2 0x3CF0 JUMP JUMPDEST POP POP JUMPDEST PUSH1 0x0 PUSH1 0x3 PUSH2 0x2D0E PUSH2 0x3D5B JUMP JUMPDEST SWAP1 PUSH2 0x100 EXP SWAP1 DIV PUSH1 0xFF AND ISZERO PUSH2 0x2D5D JUMPI PUSH1 0x40 MLOAD PUSH3 0x461BCD PUSH1 0xE5 SHL DUP2 MSTORE PUSH1 0x4 ADD DUP1 DUP1 PUSH1 0x20 ADD DUP3 DUP2 SUB DUP3 MSTORE PUSH1 0x3C DUP2 MSTORE PUSH1 0x20 ADD DUP1 PUSH2 0x41C9 PUSH1 0x3C SWAP2 CODECOPY PUSH1 0x40 ADD SWAP2 POP POP PUSH1 0x40 MLOAD DUP1 SWAP2 SUB SWAP1 PUSH2 0x2D5A PUSH2 0x3CF0 JUMP JUMPDEST POP POP JUMPDEST PUSH2 0x2D65 PUSH2 0x36F4 JUMP JUMPDEST PUSH1 0x1 PUSH1 0x1 PUSH1 0xA0 SHL SUB AND PUSH4 0x86DABD1 PUSH1 0x40 MLOAD DUP2 PUSH4 0xFFFFFFFF AND PUSH1 0xE0 SHL DUP2 MSTORE PUSH1 0x4 ADD PUSH1 0x0 PUSH1 0x40 MLOAD DUP1 DUP4 SUB DUP2 DUP7 DUP1 PUSH2 0x2D98 PUSH2 0x3DB6 JUMP JUMPDEST ISZERO DUP1 ISZERO PUSH2 0x2DAD JUMPI PUSH1 0x0 DUP1 PUSH2 0x2DAA PUSH2 0x3CF0 JUMP JUMPDEST POP POP JUMPDEST POP GAS PUSH2 0x2DB7 PUSH2 0x3E02 JUMP JUMPDEST POP POP POP POP POP ISZERO DUP1 ISZERO PUSH2 0x2DD6 JUMPI RETURNDATASIZE PUSH1 0x0 DUP1 RETURNDATACOPY RETURNDATASIZE PUSH1 0x0 PUSH2 0x2DD3 PUSH2 0x3CF0 JUMP JUMPDEST POP POP JUMPDEST POP POP POP POP PUSH2 0x1B5B DUP2 PUSH1 0x12 PUSH2 0x2525 PUSH2 0x3D5B JUMP JUMPDEST PUSH1 0x0 PUSH1 0x5 PUSH2 0x17DE PUSH2 0x3D5B JUMP JUMPDEST PUSH2 0x2DFC PUSH2 0x33B8 JUMP JUMPDEST GAS PUSH2 0x2E05 PUSH2 0x4005 JUMP JUMPDEST DUP1 PUSH1 0x4 PUSH2 0x2E10 PUSH2 0x3F74 JUMP JUMPDEST POP POP POP PUSH1 0x1 PUSH1 0x5 PUSH1 0x0 PUSH2 0x100 EXP DUP2 PUSH2 0x2E26 PUSH2 0x3D5B JUMP JUMPDEST DUP2 PUSH1 0xFF MUL NOT AND SWAP1 DUP4 ISZERO ISZERO MUL OR SWAP1 PUSH2 0x2E3B PUSH2 0x3F74 JUMP JUMPDEST POP POP POP PUSH32 0xCBD94CA75B8DC45C9D80C77E851670E78843C0D75180CB81DB3E2158228FA9A6 PUSH3 0x24EA00 PUSH1 0x40 MLOAD SWAP1 DUP2 MSTORE PUSH1 0x20 ADD PUSH1 0x40 MLOAD DUP1 SWAP2 SUB SWAP1 LOG1 JUMP JUMPDEST PUSH2 0x2E7E PUSH2 0x33B8 JUMP JUMPDEST DUP1 DUP1 PUSH1 0xC PUSH2 0x2E8A PUSH2 0x3F74 JUMP JUMPDEST POP POP POP PUSH32 0x5A2F2EAE84F9E787D8159D363A776FA2B61D084686190CDC5A2C1EA833480B09 DUP2 PUSH1 0x40 MLOAD SWAP1 DUP2 MSTORE PUSH1 0x20 ADD PUSH1 0x40 MLOAD DUP1 SWAP2 SUB SWAP1 LOG1 POP JUMP JUMPDEST PUSH1 0xF DUP1 PUSH2 0x2ECE PUSH2 0x3D5B JUMP JUMPDEST SWAP1 DUP1 PUSH1 0x1 ADD PUSH2 0x2EDB PUSH2 0x3D5B JUMP JUMPDEST SWAP1 POP DUP3 JUMP JUMPDEST PUSH1 0x0 PUSH1 0x3 PUSH2 0x2EEC PUSH2 0x3D5B JUMP JUMPDEST SWAP1 PUSH2 0x100 EXP SWAP1 DIV PUSH1 0xFF AND ISZERO PUSH2 0x2F3B JUMPI PUSH1 0x40 MLOAD PUSH3 0x461BCD PUSH1 0xE5 SHL DUP2 MSTORE PUSH1 0x4 ADD DUP1 DUP1 PUSH1 0x20 ADD DUP3 DUP2 SUB DUP3 MSTORE PUSH1 0x3C DUP2 MSTORE PUSH1 0x20 ADD DUP1 PUSH2 0x41C9 PUSH1 0x3C SWAP2 CODECOPY PUSH1 0x40 ADD SWAP2 POP POP PUSH1 0x40 MLOAD DUP1 SWAP2 SUB SWAP1 PUSH2 0x2F38 PUSH2 0x3CF0 JUMP JUMPDEST POP POP JUMPDEST PUSH1 0x0 JUMPDEST DUP2 DUP2 LT ISZERO PUSH2 0x1F1E JUMPI PUSH1 0x0 DUP4 DUP4 DUP4 DUP2 DUP2 LT PUSH2 0x2F54 JUMPI INVALID JUMPDEST SWAP1 POP PUSH1 0x20 MUL ADD CALLDATALOAD PUSH1 0x1 PUSH1 0x1 PUSH1 0xA0 SHL SUB AND SWAP1 POP DUP1 PUSH1 0x1 PUSH1 0x1 PUSH1 0xA0 SHL SUB AND PUSH4 0xC8DB233E GAS PUSH2 0x2F7E PUSH2 0x404B JUMP JUMPDEST PUSH1 0x40 MLOAD PUSH1 0x1 PUSH1 0x1 PUSH1 0xE0 SHL SUB NOT PUSH1 0xE0 DUP5 SWAP1 SHL AND DUP2 MSTORE PUSH1 0x1 PUSH1 0x1 PUSH1 0xA0 SHL SUB SWAP1 SWAP2 AND PUSH1 0x4 DUP3 ADD MSTORE PUSH1 0x24 ADD PUSH1 0x0 PUSH1 0x40 MLOAD DUP1 DUP4 SUB DUP2 PUSH1 0x0 DUP8 DUP1 PUSH2 0x2FBA PUSH2 0x3DB6 JUMP JUMPDEST ISZERO DUP1 ISZERO PUSH2 0x2FCF JUMPI PUSH1 0x0 DUP1 PUSH2 0x2FCC PUSH2 0x3CF0 JUMP JUMPDEST POP POP JUMPDEST POP GAS PUSH2 0x2FD9 PUSH2 0x3EBB JUMP JUMPDEST POP POP POP POP POP POP ISZERO DUP1 ISZERO PUSH2 0x2FF9 JUMPI RETURNDATASIZE PUSH1 0x0 DUP1 RETURNDATACOPY RETURNDATASIZE PUSH1 0x0 PUSH2 0x2FF6 PUSH2 0x3CF0 JUMP JUMPDEST POP POP JUMPDEST POP POP POP POP PUSH2 0x3011 DUP2 PUSH1 0x15 PUSH2 0x345C SWAP1 SWAP2 SWAP1 PUSH4 0xFFFFFFFF AND JUMP JUMPDEST PUSH32 0x16E62064E42F5AEC62DF22AE895EF539F153E0D4EA290E2CC4E0E8F708F2FBBC DUP2 PUSH1 0x40 MLOAD PUSH1 0x1 PUSH1 0x1 PUSH1 0xA0 SHL SUB SWAP1 SWAP2 AND DUP2 MSTORE PUSH1 0x20 ADD PUSH1 0x40 MLOAD DUP1 SWAP2 SUB SWAP1 LOG1 POP PUSH1 0x1 ADD PUSH2 0x2F3E JUMP JUMPDEST PUSH2 0x305F PUSH2 0x33B8 JUMP JUMPDEST DUP1 DUP1 PUSH1 0xF PUSH2 0x306B PUSH2 0x3F74 JUMP JUMPDEST POP POP POP PUSH32 0xDF7A26AE2E2EB953B81FD76B72FCDC74EBFF7C21FAA8F8F55323183D9785F52D DUP2 PUSH1 0x40 MLOAD SWAP1 DUP2 MSTORE PUSH1 0x20 ADD PUSH1 0x40 MLOAD DUP1 SWAP2 SUB SWAP1 LOG1 POP JUMP JUMPDEST PUSH1 0x1 PUSH1 0x5 PUSH2 0xE5B PUSH2 0x3D5B JUMP JUMPDEST PUSH1 0x8 DUP2 DUP2 PUSH2 0x30BC PUSH2 0x3D5B JUMP JUMPDEST DUP2 LT PUSH2 0x30C4 JUMPI INVALID JUMPDEST SWAP1 PUSH1 0x0 MSTORE PUSH1 0x20 PUSH1 0x0 KECCAK256 ADD SWAP1 POP PUSH2 0x11BD PUSH2 0x3D5B JUMP JUMPDEST PUSH1 0x18 DUP2 JUMP JUMPDEST PUSH1 0x60 PUSH2 0x1F37 PUSH1 0x13 DUP5 DUP5 PUSH4 0xFFFFFFFF PUSH2 0x3879 AND JUMP JUMPDEST PUSH1 0x0 PUSH1 0x3 PUSH2 0x30FD PUSH2 0x3D5B JUMP JUMPDEST SWAP1 PUSH2 0x100 EXP SWAP1 DIV PUSH1 0xFF AND ISZERO PUSH2 0x314C JUMPI PUSH1 0x40 MLOAD PUSH3 0x461BCD PUSH1 0xE5 SHL DUP2 MSTORE PUSH1 0x4 ADD DUP1 DUP1 PUSH1 0x20 ADD DUP3 DUP2 SUB DUP3 MSTORE PUSH1 0x3C DUP2 MSTORE PUSH1 0x20 ADD DUP1 PUSH2 0x41C9 PUSH1 0x3C SWAP2 CODECOPY PUSH1 0x40 ADD SWAP2 POP POP PUSH1 0x40 MLOAD DUP1 SWAP2 SUB SWAP1 PUSH2 0x3149 PUSH2 0x3CF0 JUMP JUMPDEST POP POP JUMPDEST PUSH2 0x315D PUSH1 0x13 DUP3 PUSH4 0xFFFFFFFF PUSH2 0x3747 AND JUMP JUMPDEST PUSH2 0x31AD JUMPI PUSH1 0x40 MLOAD PUSH3 0x461BCD PUSH1 0xE5 SHL DUP2 MSTORE PUSH1 0x20 PUSH1 0x4 DUP3 ADD MSTORE PUSH1 0x14 PUSH1 0x24 DUP3 ADD MSTORE PUSH20 0x139BDD08185B881858DD1A5D99481B585C9AD95D PUSH1 0x62 SHL PUSH1 0x44 DUP3 ADD MSTORE PUSH1 0x64 ADD PUSH1 0x40 MLOAD DUP1 SWAP2 SUB SWAP1 PUSH2 0x31AA PUSH2 0x3CF0 JUMP JUMPDEST POP POP JUMPDEST PUSH1 0x0 DUP2 PUSH1 0x1 PUSH1 0x1 PUSH1 0xA0 SHL SUB AND PUSH4 0x2D05D3F PUSH1 0x40 MLOAD DUP2 PUSH4 0xFFFFFFFF AND PUSH1 0xE0 SHL DUP2 MSTORE PUSH1 0x4 ADD PUSH1 0x20 PUSH1 0x40 MLOAD DUP1 DUP4 SUB DUP2 DUP7 DUP1 PUSH2 0x31E3 PUSH2 0x3DB6 JUMP JUMPDEST ISZERO DUP1 ISZERO PUSH2 0x31F8 JUMPI PUSH1 0x0 DUP1 PUSH2 0x31F5 PUSH2 0x3CF0 JUMP JUMPDEST POP POP JUMPDEST POP GAS PUSH2 0x3202 PUSH2 0x3E02 JUMP JUMPDEST POP POP POP POP POP ISZERO DUP1 ISZERO PUSH2 0x3221 JUMPI RETURNDATASIZE PUSH1 0x0 DUP1 RETURNDATACOPY RETURNDATASIZE PUSH1 0x0 PUSH2 0x321E PUSH2 0x3CF0 JUMP JUMPDEST POP POP JUMPDEST POP POP POP POP PUSH1 0x40 MLOAD RETURNDATASIZE PUSH1 0x20 DUP2 LT ISZERO PUSH2 0x3240 JUMPI PUSH1 0x0 DUP1 PUSH2 0x323D PUSH2 0x3CF0 JUMP JUMPDEST POP POP JUMPDEST DUP2 ADD SWAP1 DUP1 DUP1 MLOAD SWAP4 POP POP PUSH1 0x1 PUSH1 0x1 PUSH1 0xA0 SHL SUB DUP4 AND SWAP2 POP POP GAS PUSH2 0x325F PUSH2 0x404B JUMP JUMPDEST PUSH1 0x1 PUSH1 0x1 PUSH1 0xA0 SHL SUB AND EQ PUSH2 0x32C2 JUMPI PUSH1 0x40 MLOAD PUSH3 0x461BCD PUSH1 0xE5 SHL DUP2 MSTORE PUSH1 0x20 PUSH1 0x4 DUP3 ADD MSTORE PUSH1 0x19 PUSH1 0x24 DUP3 ADD MSTORE PUSH32 0x53656E646572206E6F74206D61726B65742063726561746F7200000000000000 PUSH1 0x44 DUP3 ADD MSTORE PUSH1 0x64 ADD PUSH1 0x40 MLOAD DUP1 SWAP2 SUB SWAP1 PUSH2 0x32BF PUSH2 0x3CF0 JUMP JUMPDEST POP POP JUMPDEST DUP2 PUSH1 0x1 PUSH1 0x1 PUSH1 0xA0 SHL SUB AND PUSH4 0x4C33FE94 GAS PUSH2 0x32DA PUSH2 0x404B JUMP JUMPDEST PUSH1 0x40 MLOAD PUSH1 0x1 PUSH1 0x1 PUSH1 0xE0 SHL SUB NOT PUSH1 0xE0 DUP5 SWAP1 SHL AND DUP2 MSTORE PUSH1 0x1 PUSH1 0x1 PUSH1 0xA0 SHL SUB SWAP1 SWAP2 AND PUSH1 0x4 DUP3 ADD MSTORE PUSH1 0x24 ADD PUSH1 0x0 PUSH1 0x40 MLOAD DUP1 DUP4 SUB DUP2 PUSH1 0x0 DUP8 DUP1 PUSH2 0x3316 PUSH2 0x3DB6 JUMP JUMPDEST ISZERO DUP1 ISZERO PUSH2 0x332B JUMPI PUSH1 0x0 DUP1 PUSH2 0x3328 PUSH2 0x3CF0 JUMP JUMPDEST POP POP JUMPDEST POP GAS PUSH2 0x3335 PUSH2 0x3EBB JUMP JUMPDEST POP POP POP POP POP POP ISZERO DUP1 ISZERO PUSH2 0x3355 JUMPI RETURNDATASIZE PUSH1 0x0 DUP1 RETURNDATACOPY RETURNDATASIZE PUSH1 0x0 PUSH2 0x3352 PUSH2 0x3CF0 JUMP JUMPDEST POP POP JUMPDEST POP POP POP POP PUSH2 0x336D DUP3 PUSH1 0x13 PUSH2 0x345C SWAP1 SWAP2 SWAP1 PUSH4 0xFFFFFFFF AND JUMP JUMPDEST PUSH32 0x996FAFAB197BEB99FFF6FDC975BB6CF90352F2C733C76EF37C2E27F17D7D424B DUP3 PUSH1 0x40 MLOAD PUSH1 0x1 PUSH1 0x1 PUSH1 0xA0 SHL SUB SWAP1 SWAP2 AND DUP2 MSTORE PUSH1 0x20 ADD PUSH1 0x40 MLOAD DUP1 SWAP2 SUB SWAP1 LOG1 POP POP JUMP JUMPDEST PUSH1 0x12 PUSH2 0x11BD PUSH2 0x3D5B JUMP JUMPDEST PUSH1 0x0 DUP1 PUSH2 0x33C3 PUSH2 0x3D5B JUMP JUMPDEST SWAP1 PUSH2 0x100 EXP SWAP1 DIV PUSH1 0x1 PUSH1 0x1 PUSH1 0xA0 SHL SUB AND PUSH1 0x1 PUSH1 0x1 PUSH1 0xA0 SHL SUB AND GAS PUSH2 0x33E5 PUSH2 0x404B JUMP JUMPDEST PUSH1 0x1 PUSH1 0x1 PUSH1 0xA0 SHL SUB AND EQ PUSH2 0x3430 JUMPI PUSH1 0x40 MLOAD PUSH3 0x461BCD PUSH1 0xE5 SHL DUP2 MSTORE PUSH1 0x4 ADD DUP1 DUP1 PUSH1 0x20 ADD DUP3 DUP2 SUB DUP3 MSTORE PUSH1 0x2F DUP2 MSTORE PUSH1 0x20 ADD DUP1 PUSH2 0x4175 PUSH1 0x2F SWAP2 CODECOPY PUSH1 0x40 ADD SWAP2 POP POP PUSH1 0x40 MLOAD DUP1 SWAP2 SUB SWAP1 PUSH2 0x16CF PUSH2 0x3CF0 JUMP JUMPDEST JUMP JUMPDEST PUSH1 0x0 PUSH2 0x3445 PUSH1 0x13 DUP4 PUSH4 0xFFFFFFFF PUSH2 0x3747 AND JUMP JUMPDEST DUP1 PUSH2 0x1F3A JUMPI POP PUSH2 0x1F3A PUSH1 0x15 DUP4 PUSH4 0xFFFFFFFF PUSH2 0x3747 AND JUMP JUMPDEST PUSH2 0x3466 DUP3 DUP3 PUSH2 0x3747 JUMP JUMPDEST PUSH2 0x34B6 JUMPI PUSH1 0x40 MLOAD PUSH3 0x461BCD PUSH1 0xE5 SHL DUP2 MSTORE PUSH1 0x20 PUSH1 0x4 DUP3 ADD MSTORE PUSH1 0x14 PUSH1 0x24 DUP3 ADD MSTORE PUSH20 0x22B632B6B2B73A103737BA1034B7103634B9BA17 PUSH1 0x61 SHL PUSH1 0x44 DUP3 ADD MSTORE PUSH1 0x64 ADD PUSH1 0x40 MLOAD DUP1 SWAP2 SUB SWAP1 PUSH2 0x34B3 PUSH2 0x3CF0 JUMP JUMPDEST POP POP JUMPDEST PUSH1 0x1 PUSH1 0x1 PUSH1 0xA0 SHL SUB DUP2 AND PUSH1 0x0 SWAP1 DUP2 MSTORE PUSH1 0x1 DUP4 ADD PUSH1 0x20 MSTORE PUSH1 0x40 DUP2 KECCAK256 PUSH2 0x34D8 PUSH2 0x3D5B JUMP JUMPDEST SWAP1 POP PUSH1 0x0 PUSH1 0x1 DUP5 DUP1 PUSH2 0x34E8 PUSH2 0x3D5B JUMP JUMPDEST SWAP1 POP SUB SWAP1 POP DUP1 DUP3 EQ PUSH2 0x35AC JUMPI PUSH1 0x0 DUP5 DUP3 DUP2 PUSH2 0x3501 PUSH2 0x3D5B JUMP JUMPDEST DUP2 LT PUSH2 0x3509 JUMPI INVALID JUMPDEST SWAP1 PUSH1 0x0 MSTORE PUSH1 0x20 PUSH1 0x0 KECCAK256 ADD PUSH1 0x0 SWAP1 PUSH2 0x351E PUSH2 0x3D5B JUMP JUMPDEST SWAP1 PUSH2 0x100 EXP SWAP1 DIV PUSH1 0x1 PUSH1 0x1 PUSH1 0xA0 SHL SUB AND SWAP1 POP DUP1 DUP6 PUSH1 0x0 ADD DUP5 DUP2 PUSH2 0x353F PUSH2 0x3D5B JUMP JUMPDEST DUP2 LT PUSH2 0x3547 JUMPI INVALID JUMPDEST SWAP1 PUSH1 0x0 MSTORE PUSH1 0x20 PUSH1 0x0 KECCAK256 ADD PUSH1 0x1 DUP2 PUSH2 0x355C PUSH2 0x3D5B JUMP JUMPDEST DUP2 PUSH1 0x1 PUSH1 0x1 PUSH1 0xA0 SHL SUB MUL NOT AND SWAP1 DUP4 PUSH1 0x1 PUSH1 0x1 PUSH1 0xA0 SHL SUB AND MUL OR SWAP1 PUSH2 0x357E PUSH2 0x3F74 JUMP JUMPDEST POP POP POP PUSH1 0x1 PUSH1 0x1 PUSH1 0xA0 SHL SUB DUP2 AND PUSH1 0x0 SWAP1 DUP2 MSTORE PUSH1 0x1 DUP7 ADD PUSH1 0x20 MSTORE DUP4 SWAP1 PUSH1 0x40 SWAP1 KECCAK256 DUP2 SWAP1 PUSH2 0x35A7 PUSH2 0x3F74 JUMP JUMPDEST POP POP POP POP JUMPDEST DUP4 DUP1 PUSH2 0x35B6 PUSH2 0x3D5B JUMP JUMPDEST DUP1 PUSH2 0x35BD JUMPI INVALID JUMPDEST PUSH1 0x1 SWAP1 SUB DUP2 DUP2 SWAP1 PUSH1 0x0 MSTORE PUSH1 0x20 PUSH1 0x0 KECCAK256 ADD PUSH1 0x1 DUP2 PUSH2 0x35D8 PUSH2 0x3D5B JUMP JUMPDEST SWAP1 PUSH1 0x1 PUSH1 0x1 PUSH1 0xA0 SHL SUB MUL NOT AND SWAP1 PUSH2 0x35ED PUSH2 0x3F74 JUMP JUMPDEST POP POP SWAP1 PUSH2 0x35F8 PUSH2 0x3F74 JUMP JUMPDEST POP POP PUSH1 0x1 PUSH1 0x1 PUSH1 0xA0 SHL SUB DUP4 AND PUSH1 0x0 SWAP1 DUP2 MSTORE PUSH1 0x1 DUP6 ADD PUSH1 0x20 MSTORE PUSH1 0x40 SWAP1 KECCAK256 PUSH1 0x0 SWAP1 PUSH2 0x361F PUSH2 0x3F74 JUMP JUMPDEST POP POP POP POP POP POP JUMP JUMPDEST PUSH1 0x0 DUP3 DUP3 ADD DUP4 DUP2 LT ISZERO PUSH2 0x1F37 JUMPI PUSH1 0x40 MLOAD PUSH3 0x461BCD PUSH1 0xE5 SHL DUP2 MSTORE PUSH1 0x20 PUSH1 0x4 DUP3 ADD MSTORE PUSH1 0x1B PUSH1 0x24 DUP3 ADD MSTORE PUSH32 0x536166654D6174683A206164646974696F6E206F766572666C6F770000000000 PUSH1 0x44 DUP3 ADD MSTORE PUSH1 0x64 ADD PUSH1 0x40 MLOAD DUP1 SWAP2 SUB SWAP1 PUSH2 0x3686 PUSH2 0x3CF0 JUMP JUMPDEST POP POP SWAP4 SWAP3 POP POP POP JUMP JUMPDEST PUSH1 0x0 DUP3 DUP3 GT ISZERO PUSH2 0x36EE JUMPI PUSH1 0x40 MLOAD PUSH3 0x461BCD PUSH1 0xE5 SHL DUP2 MSTORE PUSH1 0x20 PUSH1 0x4 DUP3 ADD MSTORE PUSH1 0x1E PUSH1 0x24 DUP3 ADD MSTORE PUSH32 0x536166654D6174683A207375627472616374696F6E206F766572666C6F770000 PUSH1 0x44 DUP3 ADD MSTORE PUSH1 0x64 ADD PUSH1 0x40 MLOAD DUP1 SWAP2 SUB SWAP1 PUSH2 0x36EB PUSH2 0x3CF0 JUMP JUMPDEST POP POP JUMPDEST POP SWAP1 SUB SWAP1 JUMP JUMPDEST PUSH1 0x0 PUSH2 0x3742 PUSH12 0x53797374656D537461747573 PUSH1 0xA0 SHL PUSH1 0x40 MLOAD PUSH1 0x40 DUP1 DUP3 ADD SWAP1 MSTORE PUSH1 0x1C DUP2 MSTORE PUSH32 0x4D697373696E672053797374656D537461747573206164647265737300000000 PUSH1 0x20 DUP3 ADD MSTORE PUSH2 0x3BE0 JUMP JUMPDEST SWAP1 POP SWAP1 JUMP JUMPDEST PUSH1 0x0 DUP3 DUP1 PUSH2 0x3753 PUSH2 0x3D5B JUMP JUMPDEST ISZERO ISZERO SWAP1 POP PUSH2 0x3763 JUMPI POP PUSH1 0x0 PUSH2 0x1F3A JUMP JUMPDEST PUSH1 0x1 PUSH1 0x1 PUSH1 0xA0 SHL SUB DUP3 AND PUSH1 0x0 SWAP1 DUP2 MSTORE PUSH1 0x1 DUP5 ADD PUSH1 0x20 MSTORE PUSH1 0x40 DUP2 KECCAK256 PUSH2 0x3785 PUSH2 0x3D5B JUMP JUMPDEST SWAP1 POP DUP1 ISZERO ISZERO DUP1 PUSH2 0x37DE JUMPI POP PUSH1 0x1 PUSH1 0x1 PUSH1 0xA0 SHL SUB DUP4 AND DUP5 PUSH1 0x0 DUP2 PUSH2 0x37A6 PUSH2 0x3D5B JUMP JUMPDEST DUP2 LT PUSH2 0x37AE JUMPI INVALID JUMPDEST SWAP1 PUSH1 0x0 MSTORE PUSH1 0x20 PUSH1 0x0 KECCAK256 ADD PUSH1 0x0 SWAP1 PUSH2 0x37C3 PUSH2 0x3D5B JUMP JUMPDEST SWAP1 PUSH2 0x100 EXP SWAP1 DIV PUSH1 0x1 PUSH1 0x1 PUSH1 0xA0 SHL SUB AND PUSH1 0x1 PUSH1 0x1 PUSH1 0xA0 SHL SUB AND EQ JUMPDEST SWAP5 SWAP4 POP POP POP POP JUMP JUMPDEST DUP2 DUP1 PUSH2 0x37F0 PUSH2 0x3D5B JUMP JUMPDEST PUSH1 0x1 PUSH1 0x1 PUSH1 0xA0 SHL SUB DUP4 AND PUSH1 0x0 SWAP1 DUP2 MSTORE PUSH1 0x1 DUP6 ADD PUSH1 0x20 MSTORE SWAP1 SWAP2 POP PUSH1 0x40 SWAP1 KECCAK256 DUP2 SWAP1 PUSH2 0x3817 PUSH2 0x3F74 JUMP JUMPDEST POP DUP3 SWAP2 POP DUP4 SWAP1 POP DUP1 PUSH1 0x1 DUP2 PUSH2 0x382A PUSH2 0x3D5B JUMP JUMPDEST ADD DUP1 DUP3 PUSH2 0x3835 PUSH2 0x3F74 JUMP JUMPDEST POP POP PUSH1 0x0 SWAP3 DUP4 MSTORE SWAP2 PUSH1 0x0 NOT DUP4 ADD SWAP2 POP PUSH1 0x20 SWAP1 KECCAK256 SWAP2 SWAP3 SWAP2 ADD PUSH1 0x1 DUP2 PUSH2 0x3857 PUSH2 0x3D5B JUMP JUMPDEST DUP2 PUSH1 0x1 PUSH1 0x1 PUSH1 0xA0 SHL SUB MUL NOT AND SWAP1 DUP4 PUSH1 0x1 PUSH1 0x1 PUSH1 0xA0 SHL SUB AND MUL OR SWAP1 PUSH2 0x361F PUSH2 0x3F74 JUMP JUMPDEST PUSH1 0x60 DUP3 DUP3 ADD DUP5 DUP1 PUSH2 0x3888 PUSH2 0x3D5B JUMP JUMPDEST SWAP1 POP DUP2 GT ISZERO PUSH2 0x389F JUMPI DUP5 DUP1 PUSH2 0x389B PUSH2 0x3D5B JUMP JUMPDEST SWAP2 POP POP JUMPDEST DUP4 DUP2 GT PUSH2 0x38DA JUMPI PUSH1 0x0 PUSH1 0x40 MLOAD SWAP1 DUP1 DUP3 MSTORE DUP1 PUSH1 0x20 MUL PUSH1 0x20 ADD DUP3 ADD PUSH1 0x40 MSTORE DUP1 ISZERO PUSH2 0x38D1 JUMPI DUP2 PUSH1 0x20 ADD PUSH1 0x20 DUP3 MUL DUP1 CODESIZE DUP4 CODECOPY ADD SWAP1 POP JUMPDEST POP SWAP2 POP POP PUSH2 0x3983 JUMP JUMPDEST DUP4 DUP2 SUB PUSH1 0x60 DUP2 PUSH1 0x40 MLOAD SWAP1 DUP1 DUP3 MSTORE DUP1 PUSH1 0x20 MUL PUSH1 0x20 ADD DUP3 ADD PUSH1 0x40 MSTORE DUP1 ISZERO PUSH2 0x3909 JUMPI DUP2 PUSH1 0x20 ADD PUSH1 0x20 DUP3 MUL DUP1 CODESIZE DUP4 CODECOPY ADD SWAP1 POP JUMPDEST POP SWAP1 POP PUSH1 0x0 JUMPDEST DUP3 DUP2 LT ISZERO PUSH2 0x397D JUMPI DUP8 DUP2 DUP9 ADD DUP2 PUSH2 0x3924 PUSH2 0x3D5B JUMP JUMPDEST DUP2 LT PUSH2 0x392C JUMPI INVALID JUMPDEST SWAP1 PUSH1 0x0 MSTORE PUSH1 0x20 PUSH1 0x0 KECCAK256 ADD PUSH1 0x0 SWAP1 PUSH2 0x3941 PUSH2 0x3D5B JUMP JUMPDEST SWAP1 PUSH2 0x100 EXP SWAP1 DIV PUSH1 0x1 PUSH1 0x1 PUSH1 0xA0 SHL SUB AND DUP3 DUP3 DUP2 MLOAD DUP2 LT PUSH2 0x395D JUMPI INVALID JUMPDEST PUSH1 0x1 PUSH1 0x1 PUSH1 0xA0 SHL SUB SWAP1 SWAP3 AND PUSH1 0x20 SWAP3 DUP4 MUL SWAP2 SWAP1 SWAP2 ADD SWAP1 SWAP2 ADD MSTORE PUSH1 0x1 ADD PUSH2 0x390F JUMP JUMPDEST POP SWAP3 POP POP POP JUMPDEST SWAP4 SWAP3 POP POP POP JUMP JUMPDEST PUSH1 0x0 DUP1 PUSH2 0x3995 PUSH2 0x3CA9 JUMP JUMPDEST SWAP1 POP DUP1 PUSH1 0x1 PUSH1 0x1 PUSH1 0xA0 SHL SUB AND PUSH4 0xAC82F608 DUP5 PUSH1 0x40 MLOAD PUSH1 0x1 PUSH1 0x1 PUSH1 0xE0 SHL SUB NOT PUSH1 0xE0 DUP5 SWAP1 SHL AND DUP2 MSTORE PUSH1 0x4 DUP2 ADD SWAP2 SWAP1 SWAP2 MSTORE PUSH1 0x24 ADD PUSH1 0x20 PUSH1 0x40 MLOAD DUP1 DUP4 SUB DUP2 DUP7 DUP1 PUSH2 0x39D9 PUSH2 0x3DB6 JUMP JUMPDEST ISZERO DUP1 ISZERO PUSH2 0x39EE JUMPI PUSH1 0x0 DUP1 PUSH2 0x39EB PUSH2 0x3CF0 JUMP JUMPDEST POP POP JUMPDEST POP GAS PUSH2 0x39F8 PUSH2 0x3E02 JUMP JUMPDEST POP POP POP POP POP ISZERO DUP1 ISZERO PUSH2 0x3A17 JUMPI RETURNDATASIZE PUSH1 0x0 DUP1 RETURNDATACOPY RETURNDATASIZE PUSH1 0x0 PUSH2 0x3A14 PUSH2 0x3CF0 JUMP JUMPDEST POP POP JUMPDEST POP POP POP POP PUSH1 0x40 MLOAD RETURNDATASIZE PUSH1 0x20 DUP2 LT ISZERO PUSH2 0x3A36 JUMPI PUSH1 0x0 DUP1 PUSH2 0x3A33 PUSH2 0x3CF0 JUMP JUMPDEST POP POP JUMPDEST DUP2 ADD SWAP1 DUP1 DUP1 MLOAD ISZERO SWAP3 POP PUSH2 0x3B4E SWAP2 POP POP JUMPI DUP3 PUSH4 0x1CD554D1 PUSH1 0xE2 SHL EQ ISZERO PUSH2 0x3A5F JUMPI PUSH1 0x0 SWAP2 POP POP PUSH2 0x19C2 JUMP JUMPDEST PUSH1 0x0 DUP2 PUSH1 0x1 PUSH1 0x1 PUSH1 0xA0 SHL SUB AND PUSH4 0x728DEC29 DUP6 PUSH1 0x40 MLOAD PUSH1 0x1 PUSH1 0x1 PUSH1 0xE0 SHL SUB NOT PUSH1 0xE0 DUP5 SWAP1 SHL AND DUP2 MSTORE PUSH1 0x4 DUP2 ADD SWAP2 SWAP1 SWAP2 MSTORE PUSH1 0x24 ADD PUSH1 0xA0 PUSH1 0x40 MLOAD DUP1 DUP4 SUB DUP2 DUP7 DUP1 PUSH2 0x3AA3 PUSH2 0x3DB6 JUMP JUMPDEST ISZERO DUP1 ISZERO PUSH2 0x3AB8 JUMPI PUSH1 0x0 DUP1 PUSH2 0x3AB5 PUSH2 0x3CF0 JUMP JUMPDEST POP POP JUMPDEST POP GAS PUSH2 0x3AC2 PUSH2 0x3E02 JUMP JUMPDEST POP POP POP POP POP ISZERO DUP1 ISZERO PUSH2 0x3AE1 JUMPI RETURNDATASIZE PUSH1 0x0 DUP1 RETURNDATACOPY RETURNDATASIZE PUSH1 0x0 PUSH2 0x3ADE PUSH2 0x3CF0 JUMP JUMPDEST POP POP JUMPDEST POP POP POP POP PUSH1 0x40 MLOAD RETURNDATASIZE PUSH1 0xA0 DUP2 LT ISZERO PUSH2 0x3B00 JUMPI PUSH1 0x0 DUP1 PUSH2 0x3AFD PUSH2 0x3CF0 JUMP JUMPDEST POP POP JUMPDEST DUP2 ADD SWAP1 DUP1 DUP1 MLOAD SWAP3 SWAP2 SWAP1 PUSH1 0x20 ADD DUP1 MLOAD SWAP3 SWAP2 SWAP1 PUSH1 0x20 ADD DUP1 MLOAD SWAP3 SWAP2 SWAP1 PUSH1 0x20 ADD DUP1 MLOAD SWAP3 SWAP2 SWAP1 PUSH1 0x20 ADD DUP1 MLOAD POP SWAP6 SWAP7 POP POP DUP6 ISZERO SWAP5 POP PUSH2 0x3B43 SWAP4 POP POP POP POP JUMPI PUSH1 0x0 SWAP3 POP POP POP PUSH2 0x19C2 JUMP JUMPDEST PUSH1 0x1 SWAP3 POP POP POP PUSH2 0x19C2 JUMP JUMPDEST POP PUSH1 0x0 SWAP3 SWAP2 POP POP JUMP JUMPDEST PUSH1 0x0 PUSH2 0x3742 PUSH32 0x42696E6172794F7074696F6E4D61726B6574466163746F727900000000000000 PUSH1 0x40 MLOAD PUSH1 0x60 DUP2 ADD PUSH1 0x40 MSTORE PUSH1 0x29 DUP1 DUP3 MSTORE PUSH2 0x4205 PUSH1 0x20 DUP4 ADD CODECOPY PUSH2 0x3BE0 JUMP JUMPDEST PUSH1 0x0 PUSH2 0x3742 PUSH9 0x14DE5B9D1A1CD554D1 PUSH1 0xBA SHL PUSH1 0x40 MLOAD PUSH1 0x40 DUP1 DUP3 ADD SWAP1 MSTORE PUSH1 0x19 DUP2 MSTORE PUSH32 0x4D697373696E672053796E746873555344206164647265737300000000000000 PUSH1 0x20 DUP3 ADD MSTORE JUMPDEST PUSH1 0x0 DUP3 DUP2 MSTORE PUSH1 0x7 PUSH1 0x20 MSTORE DUP1 PUSH1 0x40 DUP2 KECCAK256 PUSH1 0x0 SWAP1 PUSH2 0x3BFA PUSH2 0x3D5B JUMP JUMPDEST PUSH1 0x1 PUSH1 0x1 PUSH1 0xA0 SHL SUB PUSH2 0x100 SWAP3 SWAP1 SWAP3 EXP SWAP1 DIV AND SWAP1 POP DUP3 DUP2 PUSH2 0x3CA1 JUMPI PUSH1 0x40 MLOAD PUSH3 0x461BCD PUSH1 0xE5 SHL DUP2 MSTORE PUSH1 0x4 ADD DUP1 DUP1 PUSH1 0x20 ADD DUP3 DUP2 SUB DUP3 MSTORE DUP4 DUP2 DUP2 MLOAD DUP2 MSTORE PUSH1 0x20 ADD SWAP2 POP DUP1 MLOAD SWAP1 PUSH1 0x20 ADD SWAP1 DUP1 DUP4 DUP4 PUSH1 0x0 JUMPDEST DUP4 DUP2 LT ISZERO PUSH2 0x3C5D JUMPI DUP1 DUP3 ADD MLOAD DUP4 DUP3 ADD MSTORE PUSH1 0x20 ADD PUSH2 0x3C45 JUMP JUMPDEST POP POP POP POP SWAP1 POP SWAP1 DUP2 ADD SWAP1 PUSH1 0x1F AND DUP1 ISZERO PUSH2 0x3C8A JUMPI DUP1 DUP3 SUB DUP1 MLOAD PUSH1 0x1 DUP4 PUSH1 0x20 SUB PUSH2 0x100 EXP SUB NOT AND DUP2 MSTORE PUSH1 0x20 ADD SWAP2 POP JUMPDEST POP SWAP3 POP POP POP PUSH1 0x40 MLOAD DUP1 SWAP2 SUB SWAP1 PUSH2 0x3C9E PUSH2 0x3CF0 JUMP JUMPDEST POP POP JUMPDEST POP SWAP4 SWAP3 POP POP POP JUMP JUMPDEST PUSH1 0x0 PUSH2 0x3742 PUSH13 0x45786368616E67655261746573 PUSH1 0x98 SHL PUSH1 0x40 MLOAD PUSH1 0x40 DUP1 DUP3 ADD SWAP1 MSTORE PUSH1 0x15 DUP2 MSTORE PUSH21 0x4D697373696E672045786368616E67655261746573 PUSH1 0x58 SHL PUSH1 0x20 DUP3 ADD MSTORE PUSH2 0x3BE0 JUMP JUMPDEST PUSH4 0x2A2A7ADB MSIZE DUP2 PUSH1 0xE0 SHL DUP2 MSTORE PUSH1 0x4 DUP2 ADD PUSH1 0x20 DUP2 MSTORE DUP6 PUSH1 0x20 DUP3 ADD MSTORE PUSH1 0x0 JUMPDEST DUP7 DUP2 LT ISZERO PUSH2 0x3D28 JUMPI DUP1 DUP7 ADD MLOAD DUP3 DUP3 ADD PUSH1 0x40 ADD MSTORE PUSH1 0x20 ADD PUSH2 0x3D0D JUMP JUMPDEST POP PUSH1 0x20 DUP3 DUP8 PUSH1 0x64 ADD DUP5 CALLER PUSH1 0x0 SWAP1 GAS CALL PC PUSH1 0x1D ADD JUMPI RETURNDATASIZE PUSH1 0x1 EQ PC PUSH1 0xC ADD JUMPI RETURNDATASIZE PUSH1 0x0 DUP1 RETURNDATACOPY RETURNDATASIZE PUSH3 0x123456 MSTORE PUSH1 0xEA PUSH2 0x109C MSTORE POP POP POP JUMP JUMPDEST PUSH4 0x3DAA959 MSIZE DUP2 PUSH1 0xE0 SHL DUP2 MSTORE DUP4 PUSH1 0x4 DUP3 ADD MSTORE PUSH1 0x20 DUP2 PUSH1 0x24 DUP4 CALLER PUSH1 0x0 SWAP1 GAS CALL PC PUSH1 0x1D ADD JUMPI RETURNDATASIZE PUSH1 0x1 EQ PC PUSH1 0xC ADD JUMPI RETURNDATASIZE PUSH1 0x0 DUP1 RETURNDATACOPY RETURNDATASIZE PUSH3 0x123456 MSTORE PUSH1 0xEA PUSH2 0x109C MSTORE DUP1 MLOAD SWAP4 POP PUSH1 0x0 JUMPDEST PUSH1 0x40 DUP2 LT ISZERO PUSH2 0x1F1E JUMPI PUSH1 0x0 DUP3 DUP3 ADD MSTORE PUSH1 0x20 ADD PUSH2 0x3D9F JUMP JUMPDEST PUSH4 0x8435035B MSIZE DUP2 PUSH1 0xE0 SHL DUP2 MSTORE DUP4 PUSH1 0x4 DUP3 ADD MSTORE PUSH1 0x20 DUP2 PUSH1 0x24 DUP4 CALLER PUSH1 0x0 SWAP1 GAS CALL PC PUSH1 0x1D ADD JUMPI RETURNDATASIZE PUSH1 0x1 EQ PC PUSH1 0xC ADD JUMPI RETURNDATASIZE PUSH1 0x0 DUP1 RETURNDATACOPY RETURNDATASIZE PUSH3 0x123456 MSTORE PUSH1 0xEA PUSH2 0x109C MSTORE DUP1 MLOAD PUSH1 0x0 DUP3 MSTORE SWAP4 POP PUSH1 0x20 PUSH2 0x3D9F JUMP JUMPDEST PUSH4 0x8540661F MSIZE DUP2 PUSH1 0xE0 SHL DUP2 MSTORE DUP4 PUSH1 0x4 DUP3 ADD MSTORE DUP5 PUSH1 0x24 DUP3 ADD MSTORE PUSH1 0x60 PUSH1 0x44 DUP3 ADD MSTORE DUP7 PUSH1 0x64 DUP3 ADD MSTORE PUSH1 0x84 DUP2 ADD PUSH1 0x0 JUMPDEST DUP9 DUP2 LT ISZERO PUSH2 0x3E46 JUMPI DUP1 DUP9 ADD MLOAD DUP3 DUP3 ADD MSTORE PUSH1 0x20 ADD PUSH2 0x3E2E JUMP JUMPDEST POP DUP8 PUSH2 0x104 ADD DUP3 ADD PUSH1 0x60 DUP4 DUP11 PUSH2 0x104 ADD DUP6 CALLER PUSH1 0x0 SWAP1 GAS CALL PC PUSH1 0x1D ADD JUMPI RETURNDATASIZE PUSH1 0x1 EQ PC PUSH1 0xC ADD JUMPI RETURNDATASIZE PUSH1 0x0 DUP1 RETURNDATACOPY RETURNDATASIZE PUSH3 0x123456 MSTORE PUSH1 0xEA PUSH2 0x109C MSTORE DUP3 MLOAD PUSH1 0x40 DUP5 ADD MLOAD RETURNDATASIZE PUSH1 0x0 DUP7 RETURNDATACOPY DUP13 DUP13 DUP3 PUSH1 0x60 DUP9 ADD CALLER POP PUSH1 0x0 PUSH1 0x4 GAS CALL POP MSIZE DUP6 JUMPDEST DUP2 DUP2 LT ISZERO PUSH2 0x3EAF JUMPI PUSH1 0x0 DUP2 MSTORE PUSH1 0x20 ADD PUSH2 0x3E9B JUMP JUMPDEST POP SWAP2 SWAP13 POP POP POP POP POP POP POP JUMP JUMPDEST PUSH4 0x85979F76 MSIZE DUP2 PUSH1 0xE0 SHL DUP2 MSTORE DUP4 PUSH1 0x4 DUP3 ADD MSTORE DUP5 PUSH1 0x24 DUP3 ADD MSTORE PUSH1 0x60 PUSH1 0x44 DUP3 ADD MSTORE DUP8 PUSH1 0x64 DUP3 ADD MSTORE PUSH1 0x84 DUP2 ADD PUSH1 0x0 JUMPDEST DUP10 DUP2 LT ISZERO PUSH2 0x3EFF JUMPI DUP1 DUP10 ADD MLOAD DUP3 DUP3 ADD MSTORE PUSH1 0x20 ADD PUSH2 0x3EE7 JUMP JUMPDEST POP DUP9 PUSH2 0x104 ADD DUP3 ADD PUSH1 0x60 DUP4 DUP12 PUSH2 0x104 ADD DUP6 CALLER PUSH1 0x0 SWAP1 GAS CALL PC PUSH1 0x1D ADD JUMPI RETURNDATASIZE PUSH1 0x1 EQ PC PUSH1 0xC ADD JUMPI RETURNDATASIZE PUSH1 0x0 DUP1 RETURNDATACOPY RETURNDATASIZE PUSH3 0x123456 MSTORE PUSH1 0xEA PUSH2 0x109C MSTORE DUP3 MLOAD PUSH1 0x40 DUP5 ADD MLOAD RETURNDATASIZE PUSH1 0x0 DUP7 RETURNDATACOPY DUP14 DUP14 DUP3 PUSH1 0x60 DUP9 ADD CALLER POP PUSH1 0x0 PUSH1 0x4 GAS CALL POP MSIZE DUP6 JUMPDEST DUP2 DUP2 LT ISZERO PUSH2 0x3F68 JUMPI PUSH1 0x0 DUP2 MSTORE PUSH1 0x20 ADD PUSH2 0x3F54 JUMP JUMPDEST POP SWAP2 SWAP14 POP POP POP POP POP POP POP JUMP JUMPDEST PUSH4 0x22BD64C0 MSIZE DUP2 PUSH1 0xE0 SHL DUP2 MSTORE DUP4 PUSH1 0x4 DUP3 ADD MSTORE DUP5 PUSH1 0x24 DUP3 ADD MSTORE PUSH1 0x0 DUP2 PUSH1 0x44 DUP4 CALLER PUSH1 0x0 SWAP1 GAS CALL PC PUSH1 0x1D ADD JUMPI RETURNDATASIZE PUSH1 0x1 EQ PC PUSH1 0xC ADD JUMPI RETURNDATASIZE PUSH1 0x0 DUP1 RETURNDATACOPY RETURNDATASIZE PUSH3 0x123456 MSTORE PUSH1 0xEA PUSH2 0x109C MSTORE PUSH1 0x0 DUP2 MSTORE PUSH1 0x20 PUSH2 0x3D9F JUMP JUMPDEST PUSH4 0xFFE73914 MSIZE DUP2 PUSH1 0xE0 SHL DUP2 MSTORE DUP4 PUSH1 0x4 DUP3 ADD MSTORE DUP5 PUSH1 0x24 DUP3 ADD MSTORE PUSH1 0x60 PUSH1 0x44 DUP3 ADD MSTORE DUP7 PUSH1 0x64 DUP3 ADD MSTORE PUSH1 0x84 DUP2 ADD PUSH1 0x0 DUP9 DUP2 LT ISZERO PUSH2 0x3E46 JUMPI DUP1 DUP9 ADD MLOAD DUP3 DUP3 ADD MSTORE PUSH1 0x20 ADD PUSH2 0x3E2E JUMP JUMPDEST PUSH4 0xBDBF8C36 MSIZE DUP2 PUSH1 0xE0 SHL DUP2 MSTORE PUSH1 0x20 DUP2 PUSH1 0x4 DUP4 CALLER PUSH1 0x0 SWAP1 GAS CALL PC PUSH1 0x1D ADD JUMPI RETURNDATASIZE PUSH1 0x1 EQ PC PUSH1 0xC ADD JUMPI RETURNDATASIZE PUSH1 0x0 DUP1 RETURNDATACOPY RETURNDATASIZE PUSH3 0x123456 MSTORE PUSH1 0xEA PUSH2 0x109C MSTORE DUP1 MLOAD PUSH1 0x0 DUP3 MSTORE SWAP4 POP PUSH1 0x20 PUSH2 0x3D9F JUMP JUMPDEST PUSH4 0x73509064 MSIZE DUP2 PUSH1 0xE0 SHL DUP2 MSTORE PUSH1 0x20 DUP2 PUSH1 0x4 DUP4 CALLER PUSH1 0x0 SWAP1 GAS CALL PC PUSH1 0x1D ADD JUMPI RETURNDATASIZE PUSH1 0x1 EQ PC PUSH1 0xC ADD JUMPI RETURNDATASIZE PUSH1 0x0 DUP1 RETURNDATACOPY RETURNDATASIZE PUSH3 0x123456 MSTORE PUSH1 0xEA PUSH2 0x109C MSTORE DUP1 MLOAD PUSH1 0x0 DUP3 MSTORE SWAP4 POP PUSH1 0x20 PUSH2 0x3D9F JUMP JUMPDEST PUSH1 0x40 MLOAD PUSH2 0x300 DUP1 DUP3 ADD PUSH1 0x40 MSTORE PUSH1 0x18 SWAP1 DUP3 SWAP1 DUP1 CODESIZE DUP4 CODECOPY POP SWAP2 SWAP3 SWAP2 POP POP JUMP INVALID MSIZE PUSH16 0x75206D757374206265206E6F6D696E61 PUSH21 0x6564206265666F726520796F752063616E20616363 PUSH6 0x7074206F776E PUSH6 0x727368697043 PUSH19 0x6561746F7220736B6577206C696D6974206D75 PUSH20 0x74206265206E6F2067726561746572207468616E KECCAK256 BALANCE 0x2E SLOAD PUSH16 0x74616C20666565206D75737420626520 PUSH13 0x657373207468616E2031303025 0x2E POP PUSH6 0x726D69747465 PUSH5 0x206F6E6C79 KECCAK256 PUSH7 0x6F722061637469 PUSH23 0x65206D61726B6574732E5065726D6974746564206F6E6C PUSH26 0x20666F72206B6E6F776E206D61726B6574732E4F6E6C79207468 PUSH6 0x20636F6E7472 PUSH2 0x6374 KECCAK256 PUSH16 0x776E6572206D617920706572666F726D KECCAK256 PUSH21 0x68697320616374696F6E4F6E6C79207065726D6974 PUSH21 0x656420666F72206D6967726174696E67206D616E61 PUSH8 0x65722E5468697320 PUSH2 0x6374 PUSH10 0x6F6E2063616E6E6F7420 PUSH3 0x652070 PUSH6 0x72666F726D65 PUSH5 0x207768696C PUSH6 0x207468652063 PUSH16 0x6E747261637420697320706175736564 0x4D PUSH10 0x7373696E672042696E61 PUSH19 0x794F7074696F6E4D61726B6574466163746F72 PUSH26 0x2061646472657373526566756E6420666565206D757374206265 KECCAK256 PUSH15 0x6F2067726561746572207468616E20 BALANCE ADDRESS ADDRESS 0x25 0x2E "
		}
	}
}