{
	"abi": [
		{
			"inputs": [
				{
					"internalType": "address",
					"name": "_owner",
					"type": "address"
				},
				{
					"internalType": "contract EternalStorage",
					"name": "_eternalStorage",
					"type": "address"
				}
			],
			"payable": false,
			"stateMutability": "nonpayable",
			"type": "constructor"
		},
		{
			"anonymous": false,
			"inputs": [
				{
					"indexed": true,
					"internalType": "address",
					"name": "authoriser",
					"type": "address"
				},
				{
					"indexed": false,
					"internalType": "address",
					"name": "delegate",
					"type": "address"
				},
				{
					"indexed": false,
					"internalType": "bytes32",
					"name": "action",
					"type": "bytes32"
				}
			],
			"name": "Approval",
			"type": "event"
		},
		{
			"anonymous": false,
			"inputs": [
				{
					"indexed": false,
					"internalType": "address",
					"name": "newEternalStorage",
					"type": "address"
				}
			],
			"name": "EternalStorageUpdated",
			"type": "event"
		},
		{
			"anonymous": false,
			"inputs": [
				{
					"indexed": false,
					"internalType": "address",
					"name": "oldOwner",
					"type": "address"
				},
				{
					"indexed": false,
					"internalType": "address",
					"name": "newOwner",
					"type": "address"
				}
			],
			"name": "OwnerChanged",
			"type": "event"
		},
		{
			"anonymous": false,
			"inputs": [
				{
					"indexed": false,
					"internalType": "address",
					"name": "newOwner",
					"type": "address"
				}
			],
			"name": "OwnerNominated",
			"type": "event"
		},
		{
			"anonymous": false,
			"inputs": [
				{
					"indexed": true,
					"internalType": "address",
					"name": "authoriser",
					"type": "address"
				},
				{
					"indexed": false,
					"internalType": "address",
					"name": "delegate",
					"type": "address"
				},
				{
					"indexed": false,
					"internalType": "bytes32",
					"name": "action",
					"type": "bytes32"
				}
			],
			"name": "WithdrawApproval",
			"type": "event"
		},
		{
			"constant": true,
			"inputs": [],
			"name": "APPROVE_ALL",
			"outputs": [
				{
					"internalType": "bytes32",
					"name": "",
					"type": "bytes32"
				}
			],
			"payable": false,
			"stateMutability": "view",
			"type": "function"
		},
		{
			"constant": true,
			"inputs": [],
			"name": "BURN_FOR_ADDRESS",
			"outputs": [
				{
					"internalType": "bytes32",
					"name": "",
					"type": "bytes32"
				}
			],
			"payable": false,
			"stateMutability": "view",
			"type": "function"
		},
		{
			"constant": true,
			"inputs": [],
			"name": "CLAIM_FOR_ADDRESS",
			"outputs": [
				{
					"internalType": "bytes32",
					"name": "",
					"type": "bytes32"
				}
			],
			"payable": false,
			"stateMutability": "view",
			"type": "function"
		},
		{
			"constant": true,
			"inputs": [],
			"name": "EXCHANGE_FOR_ADDRESS",
			"outputs": [
				{
					"internalType": "bytes32",
					"name": "",
					"type": "bytes32"
				}
			],
			"payable": false,
			"stateMutability": "view",
			"type": "function"
		},
		{
			"constant": true,
			"inputs": [],
			"name": "ISSUE_FOR_ADDRESS",
			"outputs": [
				{
					"internalType": "bytes32",
					"name": "",
					"type": "bytes32"
				}
			],
			"payable": false,
			"stateMutability": "view",
			"type": "function"
		},
		{
			"constant": false,
			"inputs": [],
			"name": "acceptOwnership",
			"outputs": [],
			"payable": false,
			"stateMutability": "nonpayable",
			"type": "function"
		},
		{
			"constant": false,
			"inputs": [
				{
					"internalType": "address",
					"name": "delegate",
					"type": "address"
				}
			],
			"name": "approveAllDelegatePowers",
			"outputs": [],
			"payable": false,
			"stateMutability": "nonpayable",
			"type": "function"
		},
		{
			"constant": false,
			"inputs": [
				{
					"internalType": "address",
					"name": "delegate",
					"type": "address"
				}
			],
			"name": "approveBurnOnBehalf",
			"outputs": [],
			"payable": false,
			"stateMutability": "nonpayable",
			"type": "function"
		},
		{
			"constant": false,
			"inputs": [
				{
					"internalType": "address",
					"name": "delegate",
					"type": "address"
				}
			],
			"name": "approveClaimOnBehalf",
			"outputs": [],
			"payable": false,
			"stateMutability": "nonpayable",
			"type": "function"
		},
		{
			"constant": false,
			"inputs": [
				{
					"internalType": "address",
					"name": "delegate",
					"type": "address"
				}
			],
			"name": "approveExchangeOnBehalf",
			"outputs": [],
			"payable": false,
			"stateMutability": "nonpayable",
			"type": "function"
		},
		{
			"constant": false,
			"inputs": [
				{
					"internalType": "address",
					"name": "delegate",
					"type": "address"
				}
			],
			"name": "approveIssueOnBehalf",
			"outputs": [],
			"payable": false,
			"stateMutability": "nonpayable",
			"type": "function"
		},
		{
			"constant": true,
			"inputs": [
				{
					"internalType": "address",
					"name": "authoriser",
					"type": "address"
				},
				{
					"internalType": "address",
					"name": "delegate",
					"type": "address"
				}
			],
			"name": "approvedAll",
			"outputs": [
				{
					"internalType": "bool",
					"name": "",
					"type": "bool"
				}
			],
			"payable": false,
			"stateMutability": "view",
			"type": "function"
		},
		{
			"constant": true,
			"inputs": [
				{
					"internalType": "address",
					"name": "authoriser",
					"type": "address"
				},
				{
					"internalType": "address",
					"name": "delegate",
					"type": "address"
				}
			],
			"name": "canBurnFor",
			"outputs": [
				{
					"internalType": "bool",
					"name": "",
					"type": "bool"
				}
			],
			"payable": false,
			"stateMutability": "view",
			"type": "function"
		},
		{
			"constant": true,
			"inputs": [
				{
					"internalType": "address",
					"name": "authoriser",
					"type": "address"
				},
				{
					"internalType": "address",
					"name": "delegate",
					"type": "address"
				}
			],
			"name": "canClaimFor",
			"outputs": [
				{
					"internalType": "bool",
					"name": "",
					"type": "bool"
				}
			],
			"payable": false,
			"stateMutability": "view",
			"type": "function"
		},
		{
			"constant": true,
			"inputs": [
				{
					"internalType": "address",
					"name": "authoriser",
					"type": "address"
				},
				{
					"internalType": "address",
					"name": "delegate",
					"type": "address"
				}
			],
			"name": "canExchangeFor",
			"outputs": [
				{
					"internalType": "bool",
					"name": "",
					"type": "bool"
				}
			],
			"payable": false,
			"stateMutability": "view",
			"type": "function"
		},
		{
			"constant": true,
			"inputs": [
				{
					"internalType": "address",
					"name": "authoriser",
					"type": "address"
				},
				{
					"internalType": "address",
					"name": "delegate",
					"type": "address"
				}
			],
			"name": "canIssueFor",
			"outputs": [
				{
					"internalType": "bool",
					"name": "",
					"type": "bool"
				}
			],
			"payable": false,
			"stateMutability": "view",
			"type": "function"
		},
		{
			"constant": true,
			"inputs": [],
			"name": "eternalStorage",
			"outputs": [
				{
					"internalType": "contract EternalStorage",
					"name": "",
					"type": "address"
				}
			],
			"payable": false,
			"stateMutability": "view",
			"type": "function"
		},
		{
			"constant": false,
			"inputs": [
				{
					"internalType": "address",
					"name": "_owner",
					"type": "address"
				}
			],
			"name": "nominateNewOwner",
			"outputs": [],
			"payable": false,
			"stateMutability": "nonpayable",
			"type": "function"
		},
		{
			"constant": true,
			"inputs": [],
			"name": "nominatedOwner",
			"outputs": [
				{
					"internalType": "address",
					"name": "",
					"type": "address"
				}
			],
			"payable": false,
			"stateMutability": "view",
			"type": "function"
		},
		{
			"constant": true,
			"inputs": [],
			"name": "owner",
			"outputs": [
				{
					"internalType": "address",
					"name": "",
					"type": "address"
				}
			],
			"payable": false,
			"stateMutability": "view",
			"type": "function"
		},
		{
			"constant": false,
			"inputs": [
				{
					"internalType": "address",
					"name": "delegate",
					"type": "address"
				}
			],
			"name": "removeAllDelegatePowers",
			"outputs": [],
			"payable": false,
			"stateMutability": "nonpayable",
			"type": "function"
		},
		{
			"constant": false,
			"inputs": [
				{
					"internalType": "address",
					"name": "delegate",
					"type": "address"
				}
			],
			"name": "removeBurnOnBehalf",
			"outputs": [],
			"payable": false,
			"stateMutability": "nonpayable",
			"type": "function"
		},
		{
			"constant": false,
			"inputs": [
				{
					"internalType": "address",
					"name": "delegate",
					"type": "address"
				}
			],
			"name": "removeClaimOnBehalf",
			"outputs": [],
			"payable": false,
			"stateMutability": "nonpayable",
			"type": "function"
		},
		{
			"constant": false,
			"inputs": [
				{
					"internalType": "address",
					"name": "delegate",
					"type": "address"
				}
			],
			"name": "removeExchangeOnBehalf",
			"outputs": [],
			"payable": false,
			"stateMutability": "nonpayable",
			"type": "function"
		},
		{
			"constant": false,
			"inputs": [
				{
					"internalType": "address",
					"name": "delegate",
					"type": "address"
				}
			],
			"name": "removeIssueOnBehalf",
			"outputs": [],
			"payable": false,
			"stateMutability": "nonpayable",
			"type": "function"
		},
		{
			"constant": false,
			"inputs": [
				{
					"internalType": "contract EternalStorage",
					"name": "_eternalStorage",
					"type": "address"
				}
			],
			"name": "setEternalStorage",
			"outputs": [],
			"payable": false,
			"stateMutability": "nonpayable",
			"type": "function"
		}
	],
	"evm": {
		"bytecode": {
			"linkReferences": {},
			"object": "608060405260405160a08101604090815269105c1c1c9bdd99505b1b60b21b82526d4275726e466f724164647265737360901b60208301526e4973737565466f724164647265737360881b908201526e436c61696d466f724164647265737360881b60608201527145786368616e6765466f724164647265737360701b60808201526200009190600290600562000213565b50348015620000aa57600080620000a762000261565b50505b50604051620018333803806200183383398181016040526040811015620000db57600080620000d862000261565b50505b81019080805192919060200180519250839150506001600160a01b038116620001555760405162461bcd60e51b815260206004820152601960248201527f4f776e657220616464726573732063616e6e6f742062652030000000000000006044820152606401604051809103906200015262000261565b50505b80600060018162000165620002ce565b816001600160a01b0302191690836001600160a01b03160217906200018962000330565b5050507fb532073b38c83145e3e5135377a08bf9aab55bc0fd7c1179cd4fb995d2a5159c6000826040516001600160a01b039283168152911660208201526040908101905180910390a150806007600181620001e4620002ce565b816001600160a01b0302191690836001600160a01b03160217906200020862000330565b5050505050620003ac565b82600581019282156200024f579160200282015b828111156200024f578251826200023d62000330565b50509160200191906001019062000227565b506200025d9291506200037f565b5090565b632a2a7adb598160e01b8152600481016020815285602082015260005b868110156200029b5780860151828201604001526020016200027e565b506020828760640184336000905af158600e01573d6000803e3d6000fd5b3d6001141558600a015760016000f35b505050565b6303daa959598160e01b8152836004820152602081602483336000905af158600e01573d6000803e3d6000fd5b3d6001141558600a015760016000f35b8051935060005b60408110156200032b5760008282015260200162000312565b505050565b6322bd64c0598160e01b8152836004820152846024820152600081604483336000905af158600e01573d6000803e3d6000fd5b3d6001141558600a015760016000f35b60008152602062000312565b620003a991905b808211156200025d57600080826200039d62000330565b50505060010162000386565b90565b61147780620003bc6000396000f3fe6080604052348015610019576000806100166110d4565b50505b50600436106101975760003560e01c80638da5cb5b116100e7578063b5bb5619116100a0578063c5e17ab01161007a578063c5e17ab014610529578063d8eeb7c114610531578063e32b3f5214610539578063faf431bb1461054157610197565b8063b5bb56191461049c578063b9156efa146104cb578063bc87acbf146104fa57610197565b80638da5cb5b146103ef57806398ff9c54146103f75780639c79ce35146103ff5780639cbc2ebe1461042e5780639f61d33614610436578063b42e0f151461046557610197565b8063447fbc63116101545780636c8bc9fe1161012e5780636c8bc9fe146103525780636f95200b1461038157806379ba5097146103b05780637d3f0ba2146103b857610197565b8063447fbc63146102d057806353a47bb7146102ff57806359cec3d61461032357610197565b806304872617146101a55780631627540c146101f057806321f4ae57146102215780632c70aecf146102585780634180e5b514610272578063431ce540146102a1575b6000806101a26110d4565b50505b6101dc600480360360408110156101c4576000806101c16110d4565b50505b506001600160a01b0381358116916020013516610578565b604051901515815260200160405180910390f35b61021f6004803603602081101561020f5760008061020c6110d4565b50505b50356001600160a01b031661059e565b005b6101dc600480360360408110156102405760008061023d6110d4565b50505b506001600160a01b0381358116916020013516610618565b610260610637565b60405190815260200160405180910390f35b61021f600480360360208110156102915760008061028e6110d4565b50505b50356001600160a01b031661064d565b61021f600480360360208110156102c0576000806102bd6110d4565b50505b50356001600160a01b0316610675565b61021f600480360360208110156102ef576000806102ec6110d4565b50505b50356001600160a01b031661069a565b6103076106bc565b6040516001600160a01b03909116815260200160405180910390f35b61021f600480360360208110156103425760008061033f6110d4565b50505b50356001600160a01b03166106db565b61021f600480360360208110156103715760008061036e6110d4565b50505b50356001600160a01b03166106f9565b61021f600480360360208110156103a05760008061039d6110d4565b50505b50356001600160a01b0316610718565b61021f610758565b6101dc600480360360408110156103d7576000806103d46110d4565b50505b506001600160a01b03813581169160200135166108db565b6103076108f9565b610307610904565b61021f6004803603602081101561041e5760008061041b6110d4565b50505b50356001600160a01b0316610910565b61026061092e565b61021f60048036036020811015610455576000806104526110d4565b50505b50356001600160a01b031661093f565b6101dc60048036036040811015610484576000806104816110d4565b50505b506001600160a01b038135811691602001351661095e565b61021f600480360360208110156104bb576000806104b86110d4565b50505b50356001600160a01b0316610a40565b61021f600480360360208110156104ea576000806104e76110d4565b50505b50356001600160a01b0316610b25565b61021f60048036036020811015610519576000806105166110d4565b50505b50356001600160a01b0316610b47565b610260610b61565b610260610b77565b610260610b90565b6101dc600480360360408110156105605760008061055d6110d4565b50505b506001600160a01b0381358116916020013516610ba5565b60006105976e4973737565466f724164647265737360881b8484610bc3565b9392505050565b6105a6610cb1565b80600180806105b361113f565b816001600160a01b0302191690836001600160a01b03160217906105d561119a565b5050507f906a1c6bd7e3091ea86693dd029a831c19049ce77f1dce2ce0bab1cacbabce22816040516001600160a01b03909116815260200160405180910390a150565b60006105976e436c61696d466f724164647265737360881b8484610bc3565b6e4973737565466f724164647265737360881b81565b6106726e436c61696d466f724164647265737360881b5a61066c6111e8565b83610d2b565b50565b6106726e4973737565466f724164647265737360881b5a6106946111e8565b83610e96565b6106727145786368616e6765466f724164647265737360701b5a61066c6111e8565b600060016106c861113f565b906101000a90046001600160a01b031681565b6106726d4275726e466f724164647265737360901b5a6106946111e8565b6106726e436c61696d466f724164647265737360881b5a6106946111e8565b60005b60058110156107545761074c6002826005811061073457fe5b0161073d61113f565b5a6107466111e8565b84610e96565b60010161071b565b5050565b6000600161076461113f565b906101000a90046001600160a01b03166001600160a01b03165a6107866111e8565b6001600160a01b0316146107d45760405162461bcd60e51b815260040180806020018281038252603581526020018061141360359139604001915050604051809103906107d16110d4565b50505b7fb532073b38c83145e3e5135377a08bf9aab55bc0fd7c1179cd4fb995d2a5159c60008061080061113f565b906101000a90046001600160a01b0316600160009061081d61113f565b906101000a90046001600160a01b03166040516001600160a01b039283168152911660208201526040908101905180910390a16000600161085c61113f565b906101000a90046001600160a01b03166000806101000a8161087c61113f565b816001600160a01b0302191690836001600160a01b031602179061089e61119a565b5050506000600160006101000a816108b461113f565b816001600160a01b0302191690836001600160a01b03160217906108d661119a565b505050565b60006105976d4275726e466f724164647265737360901b8484610bc3565b6000806106c861113f565b600060076106c861113f565b6106726d4275726e466f724164647265737360901b5a61066c6111e8565b69105c1c1c9bdd99505b1b60b21b81565b6106726e4973737565466f724164647265737360881b5a61066c6111e8565b600080600761096b61113f565b906101000a90046001600160a01b03166001600160a01b03166317e7dd226109a169105c1c1c9bdd99505b1b60b21b8686611069565b6040516001600160e01b031960e084901b168152600481019190915260240160206040518083038186806109d361122e565b1580156109e8576000806109e56110d4565b50505b505a6109f261127a565b5050505050158015610a11573d6000803e3d6000610a0e6110d4565b50505b505050506040513d6020811015610a3057600080610a2d6110d4565b50505b8101908080519695505050505050565b610a48610cb1565b6001600160a01b038116610a965760405162461bcd60e51b81526004018080602001828103825260268152602001806113ed6026913960400191505060405180910390610a936110d4565b50505b806007600181610aa461113f565b816001600160a01b0302191690836001600160a01b0316021790610ac661119a565b5050507fe3ebe3d58e84fbd094152babb730cf99a14b47f65ed04f35a3bd6356f8161a176007600090610af761113f565b906101000a90046001600160a01b03166040516001600160a01b03909116815260200160405180910390a150565b6106727145786368616e6765466f724164647265737360701b5a6106946111e8565b61067269105c1c1c9bdd99505b1b60b21b5a61066c6111e8565b6e436c61696d466f724164647265737360881b81565b7145786368616e6765466f724164647265737360701b81565b6d4275726e466f724164647265737360901b81565b60006105977145786368616e6765466f724164647265737360701b84845b6000610bcf838361095e565b15610bdc57506001610597565b60006007610be861113f565b906101000a90046001600160a01b03166001600160a01b03166317e7dd22610c11868686611069565b6040516001600160e01b031960e084901b16815260048101919091526024016020604051808303818680610c4361122e565b158015610c5857600080610c556110d4565b50505b505a610c6261127a565b5050505050158015610c81573d6000803e3d6000610c7e6110d4565b50505b505050506040513d6020811015610ca057600080610c9d6110d4565b50505b810190808051979650505050505050565b600080610cbc61113f565b906101000a90046001600160a01b03166001600160a01b03165a610cde6111e8565b6001600160a01b031614610d295760405162461bcd60e51b815260040180806020018281038252602f815260200180611448602f9139604001915050604051809103906107546110d4565b565b6001600160a01b038116610d8e5760405162461bcd60e51b815260206004820152601c60248201527f43616e27742064656c656761746520746f206164647265737328302900000000604482015260640160405180910390610d8b6110d4565b50505b60006007610d9a61113f565b906101000a90046001600160a01b03166001600160a01b0316633eba9ed2610dc3858585611069565b60016040516001600160e01b031960e085901b16815260048101929092521515602482015260440160006040518083038160008780610e0061122e565b158015610e1557600080610e126110d4565b50505b505a610e1f611333565b505050505050158015610e3f573d6000803e3d6000610e3c6110d4565b50505b50505050816001600160a01b03167f36a9e0c1da9cdc6d8f4bd4cb261f9ad6a45eb1641a557ead7530fbeff9a2633682856040516001600160a01b03909216825260208201526040908101905180910390a2505050565b60006007610ea261113f565b906101000a90046001600160a01b03166001600160a01b03166317e7dd22610ecb858585611069565b6040516001600160e01b031960e084901b16815260048101919091526024016020604051808303818680610efd61122e565b158015610f1257600080610f0f6110d4565b50505b505a610f1c61127a565b5050505050158015610f3b573d6000803e3d6000610f386110d4565b50505b505050506040513d6020811015610f5a57600080610f576110d4565b50505b8101908080511592506108d69150505760006007610f7661113f565b906101000a90046001600160a01b03166001600160a01b0316633cc1635c610f9f858585611069565b6040516001600160e01b031960e084901b168152600481019190915260240160006040518083038160008780610fd361122e565b158015610fe857600080610fe56110d4565b50505b505a610ff2611333565b505050505050158015611012573d6000803e3d600061100f6110d4565b50505b50505050816001600160a01b03167f7e8dc09322ac82342d9dbfd49eb6497fa7ab69ac444f3763a9b8e16530342f4182856040516001600160a01b03909216825260208201526040908101905180910390a2505050565b600083838360405160200180848152602001836001600160a01b03166001600160a01b031660601b8152601401826001600160a01b03166001600160a01b031660601b8152601401935050505060405160208183030381529060405280519060200120949350505050565b632a2a7adb598160e01b8152600481016020815285602082015260005b8681101561110c5780860151828201604001526020016110f1565b506020828760640184336000905af158600e01573d6000803e3d6000fd5b3d6001141558600a015760016000f35b505050565b6303daa959598160e01b8152836004820152602081602483336000905af158600e01573d6000803e3d6000fd5b3d6001141558600a015760016000f35b8051935060005b60408110156108d657600082820152602001611183565b6322bd64c0598160e01b8152836004820152846024820152600081604483336000905af158600e01573d6000803e3d6000fd5b3d6001141558600a015760016000f35b600081526020611183565b6373509064598160e01b8152602081600483336000905af158600e01573d6000803e3d6000fd5b3d6001141558600a015760016000f35b80516000825293506020611183565b638435035b598160e01b8152836004820152602081602483336000905af158600e01573d6000803e3d6000fd5b3d6001141558600a015760016000f35b80516000825293506020611183565b638540661f598160e01b8152836004820152846024820152606060448201528660648201526084810160005b888110156112be5780880151828201526020016112a6565b50876101040182016060838a6101040185336000905af158600e01573d6000803e3d6000fd5b3d6001141558600a015760016000f35b825160408401513d6000863e8c8c82606088013350600060045af15059855b818110156113275760008152602001611313565b50919c50505050505050565b6385979f76598160e01b8152836004820152846024820152606060448201528760648201526084810160005b8981101561137757808901518282015260200161135f565b50886101040182016060838b6101040185336000905af158600e01573d6000803e3d6000fd5b3d6001141558600a015760016000f35b825160408401513d6000863e8d8d82606088013350600060045af15059855b818110156113e057600081526020016113cc565b50919d5050505050505056fe43616e27742073657420657465726e616c53746f7261676520746f2061646472657373283029596f75206d757374206265206e6f6d696e61746564206265666f726520796f752063616e20616363657074206f776e6572736869704f6e6c792074686520636f6e7472616374206f776e6572206d617920706572666f726d207468697320616374696f6e",
			"opcodes": "PUSH1 0x80 PUSH1 0x40 MSTORE PUSH1 0x40 MLOAD PUSH1 0xA0 DUP2 ADD PUSH1 0x40 SWAP1 DUP2 MSTORE PUSH10 0x105C1C1C9BDD99505B1B PUSH1 0xB2 SHL DUP3 MSTORE PUSH14 0x4275726E466F7241646472657373 PUSH1 0x90 SHL PUSH1 0x20 DUP4 ADD MSTORE PUSH15 0x4973737565466F7241646472657373 PUSH1 0x88 SHL SWAP1 DUP3 ADD MSTORE PUSH15 0x436C61696D466F7241646472657373 PUSH1 0x88 SHL PUSH1 0x60 DUP3 ADD MSTORE PUSH18 0x45786368616E6765466F7241646472657373 PUSH1 0x70 SHL PUSH1 0x80 DUP3 ADD MSTORE PUSH3 0x91 SWAP1 PUSH1 0x2 SWAP1 PUSH1 0x5 PUSH3 0x213 JUMP JUMPDEST POP CALLVALUE DUP1 ISZERO PUSH3 0xAA JUMPI PUSH1 0x0 DUP1 PUSH3 0xA7 PUSH3 0x261 JUMP JUMPDEST POP POP JUMPDEST POP PUSH1 0x40 MLOAD PUSH3 0x1833 CODESIZE SUB DUP1 PUSH3 0x1833 DUP4 CODECOPY DUP2 DUP2 ADD PUSH1 0x40 MSTORE PUSH1 0x40 DUP2 LT ISZERO PUSH3 0xDB JUMPI PUSH1 0x0 DUP1 PUSH3 0xD8 PUSH3 0x261 JUMP JUMPDEST POP POP JUMPDEST DUP2 ADD SWAP1 DUP1 DUP1 MLOAD SWAP3 SWAP2 SWAP1 PUSH1 0x20 ADD DUP1 MLOAD SWAP3 POP DUP4 SWAP2 POP POP PUSH1 0x1 PUSH1 0x1 PUSH1 0xA0 SHL SUB DUP2 AND PUSH3 0x155 JUMPI PUSH1 0x40 MLOAD PUSH3 0x461BCD PUSH1 0xE5 SHL DUP2 MSTORE PUSH1 0x20 PUSH1 0x4 DUP3 ADD MSTORE PUSH1 0x19 PUSH1 0x24 DUP3 ADD MSTORE PUSH32 0x4F776E657220616464726573732063616E6E6F74206265203000000000000000 PUSH1 0x44 DUP3 ADD MSTORE PUSH1 0x64 ADD PUSH1 0x40 MLOAD DUP1 SWAP2 SUB SWAP1 PUSH3 0x152 PUSH3 0x261 JUMP JUMPDEST POP POP JUMPDEST DUP1 PUSH1 0x0 PUSH1 0x1 DUP2 PUSH3 0x165 PUSH3 0x2CE JUMP JUMPDEST DUP2 PUSH1 0x1 PUSH1 0x1 PUSH1 0xA0 SHL SUB MUL NOT AND SWAP1 DUP4 PUSH1 0x1 PUSH1 0x1 PUSH1 0xA0 SHL SUB AND MUL OR SWAP1 PUSH3 0x189 PUSH3 0x330 JUMP JUMPDEST POP POP POP PUSH32 0xB532073B38C83145E3E5135377A08BF9AAB55BC0FD7C1179CD4FB995D2A5159C PUSH1 0x0 DUP3 PUSH1 0x40 MLOAD PUSH1 0x1 PUSH1 0x1 PUSH1 0xA0 SHL SUB SWAP3 DUP4 AND DUP2 MSTORE SWAP2 AND PUSH1 0x20 DUP3 ADD MSTORE PUSH1 0x40 SWAP1 DUP2 ADD SWAP1 MLOAD DUP1 SWAP2 SUB SWAP1 LOG1 POP DUP1 PUSH1 0x7 PUSH1 0x1 DUP2 PUSH3 0x1E4 PUSH3 0x2CE JUMP JUMPDEST DUP2 PUSH1 0x1 PUSH1 0x1 PUSH1 0xA0 SHL SUB MUL NOT AND SWAP1 DUP4 PUSH1 0x1 PUSH1 0x1 PUSH1 0xA0 SHL SUB AND MUL OR SWAP1 PUSH3 0x208 PUSH3 0x330 JUMP JUMPDEST POP POP POP POP POP PUSH3 0x3AC JUMP JUMPDEST DUP3 PUSH1 0x5 DUP2 ADD SWAP3 DUP3 ISZERO PUSH3 0x24F JUMPI SWAP2 PUSH1 0x20 MUL DUP3 ADD JUMPDEST DUP3 DUP2 GT ISZERO PUSH3 0x24F JUMPI DUP3 MLOAD DUP3 PUSH3 0x23D PUSH3 0x330 JUMP JUMPDEST POP POP SWAP2 PUSH1 0x20 ADD SWAP2 SWAP1 PUSH1 0x1 ADD SWAP1 PUSH3 0x227 JUMP JUMPDEST POP PUSH3 0x25D SWAP3 SWAP2 POP PUSH3 0x37F JUMP JUMPDEST POP SWAP1 JUMP JUMPDEST PUSH4 0x2A2A7ADB MSIZE DUP2 PUSH1 0xE0 SHL DUP2 MSTORE PUSH1 0x4 DUP2 ADD PUSH1 0x20 DUP2 MSTORE DUP6 PUSH1 0x20 DUP3 ADD MSTORE PUSH1 0x0 JUMPDEST DUP7 DUP2 LT ISZERO PUSH3 0x29B JUMPI DUP1 DUP7 ADD MLOAD DUP3 DUP3 ADD PUSH1 0x40 ADD MSTORE PUSH1 0x20 ADD PUSH3 0x27E JUMP JUMPDEST POP PUSH1 0x20 DUP3 DUP8 PUSH1 0x64 ADD DUP5 CALLER PUSH1 0x0 SWAP1 GAS CALL PC PUSH1 0xE ADD JUMPI RETURNDATASIZE PUSH1 0x0 DUP1 RETURNDATACOPY RETURNDATASIZE PUSH1 0x0 REVERT JUMPDEST RETURNDATASIZE PUSH1 0x1 EQ ISZERO PC PUSH1 0xA ADD JUMPI PUSH1 0x1 PUSH1 0x0 RETURN JUMPDEST POP POP POP JUMP JUMPDEST PUSH4 0x3DAA959 MSIZE DUP2 PUSH1 0xE0 SHL DUP2 MSTORE DUP4 PUSH1 0x4 DUP3 ADD MSTORE PUSH1 0x20 DUP2 PUSH1 0x24 DUP4 CALLER PUSH1 0x0 SWAP1 GAS CALL PC PUSH1 0xE ADD JUMPI RETURNDATASIZE PUSH1 0x0 DUP1 RETURNDATACOPY RETURNDATASIZE PUSH1 0x0 REVERT JUMPDEST RETURNDATASIZE PUSH1 0x1 EQ ISZERO PC PUSH1 0xA ADD JUMPI PUSH1 0x1 PUSH1 0x0 RETURN JUMPDEST DUP1 MLOAD SWAP4 POP PUSH1 0x0 JUMPDEST PUSH1 0x40 DUP2 LT ISZERO PUSH3 0x32B JUMPI PUSH1 0x0 DUP3 DUP3 ADD MSTORE PUSH1 0x20 ADD PUSH3 0x312 JUMP JUMPDEST POP POP POP JUMP JUMPDEST PUSH4 0x22BD64C0 MSIZE DUP2 PUSH1 0xE0 SHL DUP2 MSTORE DUP4 PUSH1 0x4 DUP3 ADD MSTORE DUP5 PUSH1 0x24 DUP3 ADD MSTORE PUSH1 0x0 DUP2 PUSH1 0x44 DUP4 CALLER PUSH1 0x0 SWAP1 GAS CALL PC PUSH1 0xE ADD JUMPI RETURNDATASIZE PUSH1 0x0 DUP1 RETURNDATACOPY RETURNDATASIZE PUSH1 0x0 REVERT JUMPDEST RETURNDATASIZE PUSH1 0x1 EQ ISZERO PC PUSH1 0xA ADD JUMPI PUSH1 0x1 PUSH1 0x0 RETURN JUMPDEST PUSH1 0x0 DUP2 MSTORE PUSH1 0x20 PUSH3 0x312 JUMP JUMPDEST PUSH3 0x3A9 SWAP2 SWAP1 JUMPDEST DUP1 DUP3 GT ISZERO PUSH3 0x25D JUMPI PUSH1 0x0 DUP1 DUP3 PUSH3 0x39D PUSH3 0x330 JUMP JUMPDEST POP POP POP PUSH1 0x1 ADD PUSH3 0x386 JUMP JUMPDEST SWAP1 JUMP JUMPDEST PUSH2 0x1477 DUP1 PUSH3 0x3BC PUSH1 0x0 CODECOPY PUSH1 0x0 RETURN INVALID PUSH1 0x80 PUSH1 0x40 MSTORE CALLVALUE DUP1 ISZERO PUSH2 0x19 JUMPI PUSH1 0x0 DUP1 PUSH2 0x16 PUSH2 0x10D4 JUMP JUMPDEST POP POP JUMPDEST POP PUSH1 0x4 CALLDATASIZE LT PUSH2 0x197 JUMPI PUSH1 0x0 CALLDATALOAD PUSH1 0xE0 SHR DUP1 PUSH4 0x8DA5CB5B GT PUSH2 0xE7 JUMPI DUP1 PUSH4 0xB5BB5619 GT PUSH2 0xA0 JUMPI DUP1 PUSH4 0xC5E17AB0 GT PUSH2 0x7A JUMPI DUP1 PUSH4 0xC5E17AB0 EQ PUSH2 0x529 JUMPI DUP1 PUSH4 0xD8EEB7C1 EQ PUSH2 0x531 JUMPI DUP1 PUSH4 0xE32B3F52 EQ PUSH2 0x539 JUMPI DUP1 PUSH4 0xFAF431BB EQ PUSH2 0x541 JUMPI PUSH2 0x197 JUMP JUMPDEST DUP1 PUSH4 0xB5BB5619 EQ PUSH2 0x49C JUMPI DUP1 PUSH4 0xB9156EFA EQ PUSH2 0x4CB JUMPI DUP1 PUSH4 0xBC87ACBF EQ PUSH2 0x4FA JUMPI PUSH2 0x197 JUMP JUMPDEST DUP1 PUSH4 0x8DA5CB5B EQ PUSH2 0x3EF JUMPI DUP1 PUSH4 0x98FF9C54 EQ PUSH2 0x3F7 JUMPI DUP1 PUSH4 0x9C79CE35 EQ PUSH2 0x3FF JUMPI DUP1 PUSH4 0x9CBC2EBE EQ PUSH2 0x42E JUMPI DUP1 PUSH4 0x9F61D336 EQ PUSH2 0x436 JUMPI DUP1 PUSH4 0xB42E0F15 EQ PUSH2 0x465 JUMPI PUSH2 0x197 JUMP JUMPDEST DUP1 PUSH4 0x447FBC63 GT PUSH2 0x154 JUMPI DUP1 PUSH4 0x6C8BC9FE GT PUSH2 0x12E JUMPI DUP1 PUSH4 0x6C8BC9FE EQ PUSH2 0x352 JUMPI DUP1 PUSH4 0x6F95200B EQ PUSH2 0x381 JUMPI DUP1 PUSH4 0x79BA5097 EQ PUSH2 0x3B0 JUMPI DUP1 PUSH4 0x7D3F0BA2 EQ PUSH2 0x3B8 JUMPI PUSH2 0x197 JUMP JUMPDEST DUP1 PUSH4 0x447FBC63 EQ PUSH2 0x2D0 JUMPI DUP1 PUSH4 0x53A47BB7 EQ PUSH2 0x2FF JUMPI DUP1 PUSH4 0x59CEC3D6 EQ PUSH2 0x323 JUMPI PUSH2 0x197 JUMP JUMPDEST DUP1 PUSH4 0x4872617 EQ PUSH2 0x1A5 JUMPI DUP1 PUSH4 0x1627540C EQ PUSH2 0x1F0 JUMPI DUP1 PUSH4 0x21F4AE57 EQ PUSH2 0x221 JUMPI DUP1 PUSH4 0x2C70AECF EQ PUSH2 0x258 JUMPI DUP1 PUSH4 0x4180E5B5 EQ PUSH2 0x272 JUMPI DUP1 PUSH4 0x431CE540 EQ PUSH2 0x2A1 JUMPI JUMPDEST PUSH1 0x0 DUP1 PUSH2 0x1A2 PUSH2 0x10D4 JUMP JUMPDEST POP POP JUMPDEST PUSH2 0x1DC PUSH1 0x4 DUP1 CALLDATASIZE SUB PUSH1 0x40 DUP2 LT ISZERO PUSH2 0x1C4 JUMPI PUSH1 0x0 DUP1 PUSH2 0x1C1 PUSH2 0x10D4 JUMP JUMPDEST POP POP JUMPDEST POP PUSH1 0x1 PUSH1 0x1 PUSH1 0xA0 SHL SUB DUP2 CALLDATALOAD DUP2 AND SWAP2 PUSH1 0x20 ADD CALLDATALOAD AND PUSH2 0x578 JUMP JUMPDEST PUSH1 0x40 MLOAD SWAP1 ISZERO ISZERO DUP2 MSTORE PUSH1 0x20 ADD PUSH1 0x40 MLOAD DUP1 SWAP2 SUB SWAP1 RETURN JUMPDEST PUSH2 0x21F PUSH1 0x4 DUP1 CALLDATASIZE SUB PUSH1 0x20 DUP2 LT ISZERO PUSH2 0x20F JUMPI PUSH1 0x0 DUP1 PUSH2 0x20C PUSH2 0x10D4 JUMP JUMPDEST POP POP JUMPDEST POP CALLDATALOAD PUSH1 0x1 PUSH1 0x1 PUSH1 0xA0 SHL SUB AND PUSH2 0x59E JUMP JUMPDEST STOP JUMPDEST PUSH2 0x1DC PUSH1 0x4 DUP1 CALLDATASIZE SUB PUSH1 0x40 DUP2 LT ISZERO PUSH2 0x240 JUMPI PUSH1 0x0 DUP1 PUSH2 0x23D PUSH2 0x10D4 JUMP JUMPDEST POP POP JUMPDEST POP PUSH1 0x1 PUSH1 0x1 PUSH1 0xA0 SHL SUB DUP2 CALLDATALOAD DUP2 AND SWAP2 PUSH1 0x20 ADD CALLDATALOAD AND PUSH2 0x618 JUMP JUMPDEST PUSH2 0x260 PUSH2 0x637 JUMP JUMPDEST PUSH1 0x40 MLOAD SWAP1 DUP2 MSTORE PUSH1 0x20 ADD PUSH1 0x40 MLOAD DUP1 SWAP2 SUB SWAP1 RETURN JUMPDEST PUSH2 0x21F PUSH1 0x4 DUP1 CALLDATASIZE SUB PUSH1 0x20 DUP2 LT ISZERO PUSH2 0x291 JUMPI PUSH1 0x0 DUP1 PUSH2 0x28E PUSH2 0x10D4 JUMP JUMPDEST POP POP JUMPDEST POP CALLDATALOAD PUSH1 0x1 PUSH1 0x1 PUSH1 0xA0 SHL SUB AND PUSH2 0x64D JUMP JUMPDEST PUSH2 0x21F PUSH1 0x4 DUP1 CALLDATASIZE SUB PUSH1 0x20 DUP2 LT ISZERO PUSH2 0x2C0 JUMPI PUSH1 0x0 DUP1 PUSH2 0x2BD PUSH2 0x10D4 JUMP JUMPDEST POP POP JUMPDEST POP CALLDATALOAD PUSH1 0x1 PUSH1 0x1 PUSH1 0xA0 SHL SUB AND PUSH2 0x675 JUMP JUMPDEST PUSH2 0x21F PUSH1 0x4 DUP1 CALLDATASIZE SUB PUSH1 0x20 DUP2 LT ISZERO PUSH2 0x2EF JUMPI PUSH1 0x0 DUP1 PUSH2 0x2EC PUSH2 0x10D4 JUMP JUMPDEST POP POP JUMPDEST POP CALLDATALOAD PUSH1 0x1 PUSH1 0x1 PUSH1 0xA0 SHL SUB AND PUSH2 0x69A JUMP JUMPDEST PUSH2 0x307 PUSH2 0x6BC JUMP JUMPDEST PUSH1 0x40 MLOAD PUSH1 0x1 PUSH1 0x1 PUSH1 0xA0 SHL SUB SWAP1 SWAP2 AND DUP2 MSTORE PUSH1 0x20 ADD PUSH1 0x40 MLOAD DUP1 SWAP2 SUB SWAP1 RETURN JUMPDEST PUSH2 0x21F PUSH1 0x4 DUP1 CALLDATASIZE SUB PUSH1 0x20 DUP2 LT ISZERO PUSH2 0x342 JUMPI PUSH1 0x0 DUP1 PUSH2 0x33F PUSH2 0x10D4 JUMP JUMPDEST POP POP JUMPDEST POP CALLDATALOAD PUSH1 0x1 PUSH1 0x1 PUSH1 0xA0 SHL SUB AND PUSH2 0x6DB JUMP JUMPDEST PUSH2 0x21F PUSH1 0x4 DUP1 CALLDATASIZE SUB PUSH1 0x20 DUP2 LT ISZERO PUSH2 0x371 JUMPI PUSH1 0x0 DUP1 PUSH2 0x36E PUSH2 0x10D4 JUMP JUMPDEST POP POP JUMPDEST POP CALLDATALOAD PUSH1 0x1 PUSH1 0x1 PUSH1 0xA0 SHL SUB AND PUSH2 0x6F9 JUMP JUMPDEST PUSH2 0x21F PUSH1 0x4 DUP1 CALLDATASIZE SUB PUSH1 0x20 DUP2 LT ISZERO PUSH2 0x3A0 JUMPI PUSH1 0x0 DUP1 PUSH2 0x39D PUSH2 0x10D4 JUMP JUMPDEST POP POP JUMPDEST POP CALLDATALOAD PUSH1 0x1 PUSH1 0x1 PUSH1 0xA0 SHL SUB AND PUSH2 0x718 JUMP JUMPDEST PUSH2 0x21F PUSH2 0x758 JUMP JUMPDEST PUSH2 0x1DC PUSH1 0x4 DUP1 CALLDATASIZE SUB PUSH1 0x40 DUP2 LT ISZERO PUSH2 0x3D7 JUMPI PUSH1 0x0 DUP1 PUSH2 0x3D4 PUSH2 0x10D4 JUMP JUMPDEST POP POP JUMPDEST POP PUSH1 0x1 PUSH1 0x1 PUSH1 0xA0 SHL SUB DUP2 CALLDATALOAD DUP2 AND SWAP2 PUSH1 0x20 ADD CALLDATALOAD AND PUSH2 0x8DB JUMP JUMPDEST PUSH2 0x307 PUSH2 0x8F9 JUMP JUMPDEST PUSH2 0x307 PUSH2 0x904 JUMP JUMPDEST PUSH2 0x21F PUSH1 0x4 DUP1 CALLDATASIZE SUB PUSH1 0x20 DUP2 LT ISZERO PUSH2 0x41E JUMPI PUSH1 0x0 DUP1 PUSH2 0x41B PUSH2 0x10D4 JUMP JUMPDEST POP POP JUMPDEST POP CALLDATALOAD PUSH1 0x1 PUSH1 0x1 PUSH1 0xA0 SHL SUB AND PUSH2 0x910 JUMP JUMPDEST PUSH2 0x260 PUSH2 0x92E JUMP JUMPDEST PUSH2 0x21F PUSH1 0x4 DUP1 CALLDATASIZE SUB PUSH1 0x20 DUP2 LT ISZERO PUSH2 0x455 JUMPI PUSH1 0x0 DUP1 PUSH2 0x452 PUSH2 0x10D4 JUMP JUMPDEST POP POP JUMPDEST POP CALLDATALOAD PUSH1 0x1 PUSH1 0x1 PUSH1 0xA0 SHL SUB AND PUSH2 0x93F JUMP JUMPDEST PUSH2 0x1DC PUSH1 0x4 DUP1 CALLDATASIZE SUB PUSH1 0x40 DUP2 LT ISZERO PUSH2 0x484 JUMPI PUSH1 0x0 DUP1 PUSH2 0x481 PUSH2 0x10D4 JUMP JUMPDEST POP POP JUMPDEST POP PUSH1 0x1 PUSH1 0x1 PUSH1 0xA0 SHL SUB DUP2 CALLDATALOAD DUP2 AND SWAP2 PUSH1 0x20 ADD CALLDATALOAD AND PUSH2 0x95E JUMP JUMPDEST PUSH2 0x21F PUSH1 0x4 DUP1 CALLDATASIZE SUB PUSH1 0x20 DUP2 LT ISZERO PUSH2 0x4BB JUMPI PUSH1 0x0 DUP1 PUSH2 0x4B8 PUSH2 0x10D4 JUMP JUMPDEST POP POP JUMPDEST POP CALLDATALOAD PUSH1 0x1 PUSH1 0x1 PUSH1 0xA0 SHL SUB AND PUSH2 0xA40 JUMP JUMPDEST PUSH2 0x21F PUSH1 0x4 DUP1 CALLDATASIZE SUB PUSH1 0x20 DUP2 LT ISZERO PUSH2 0x4EA JUMPI PUSH1 0x0 DUP1 PUSH2 0x4E7 PUSH2 0x10D4 JUMP JUMPDEST POP POP JUMPDEST POP CALLDATALOAD PUSH1 0x1 PUSH1 0x1 PUSH1 0xA0 SHL SUB AND PUSH2 0xB25 JUMP JUMPDEST PUSH2 0x21F PUSH1 0x4 DUP1 CALLDATASIZE SUB PUSH1 0x20 DUP2 LT ISZERO PUSH2 0x519 JUMPI PUSH1 0x0 DUP1 PUSH2 0x516 PUSH2 0x10D4 JUMP JUMPDEST POP POP JUMPDEST POP CALLDATALOAD PUSH1 0x1 PUSH1 0x1 PUSH1 0xA0 SHL SUB AND PUSH2 0xB47 JUMP JUMPDEST PUSH2 0x260 PUSH2 0xB61 JUMP JUMPDEST PUSH2 0x260 PUSH2 0xB77 JUMP JUMPDEST PUSH2 0x260 PUSH2 0xB90 JUMP JUMPDEST PUSH2 0x1DC PUSH1 0x4 DUP1 CALLDATASIZE SUB PUSH1 0x40 DUP2 LT ISZERO PUSH2 0x560 JUMPI PUSH1 0x0 DUP1 PUSH2 0x55D PUSH2 0x10D4 JUMP JUMPDEST POP POP JUMPDEST POP PUSH1 0x1 PUSH1 0x1 PUSH1 0xA0 SHL SUB DUP2 CALLDATALOAD DUP2 AND SWAP2 PUSH1 0x20 ADD CALLDATALOAD AND PUSH2 0xBA5 JUMP JUMPDEST PUSH1 0x0 PUSH2 0x597 PUSH15 0x4973737565466F7241646472657373 PUSH1 0x88 SHL DUP5 DUP5 PUSH2 0xBC3 JUMP JUMPDEST SWAP4 SWAP3 POP POP POP JUMP JUMPDEST PUSH2 0x5A6 PUSH2 0xCB1 JUMP JUMPDEST DUP1 PUSH1 0x1 DUP1 DUP1 PUSH2 0x5B3 PUSH2 0x113F JUMP JUMPDEST DUP2 PUSH1 0x1 PUSH1 0x1 PUSH1 0xA0 SHL SUB MUL NOT AND SWAP1 DUP4 PUSH1 0x1 PUSH1 0x1 PUSH1 0xA0 SHL SUB AND MUL OR SWAP1 PUSH2 0x5D5 PUSH2 0x119A JUMP JUMPDEST POP POP POP PUSH32 0x906A1C6BD7E3091EA86693DD029A831C19049CE77F1DCE2CE0BAB1CACBABCE22 DUP2 PUSH1 0x40 MLOAD PUSH1 0x1 PUSH1 0x1 PUSH1 0xA0 SHL SUB SWAP1 SWAP2 AND DUP2 MSTORE PUSH1 0x20 ADD PUSH1 0x40 MLOAD DUP1 SWAP2 SUB SWAP1 LOG1 POP JUMP JUMPDEST PUSH1 0x0 PUSH2 0x597 PUSH15 0x436C61696D466F7241646472657373 PUSH1 0x88 SHL DUP5 DUP5 PUSH2 0xBC3 JUMP JUMPDEST PUSH15 0x4973737565466F7241646472657373 PUSH1 0x88 SHL DUP2 JUMP JUMPDEST PUSH2 0x672 PUSH15 0x436C61696D466F7241646472657373 PUSH1 0x88 SHL GAS PUSH2 0x66C PUSH2 0x11E8 JUMP JUMPDEST DUP4 PUSH2 0xD2B JUMP JUMPDEST POP JUMP JUMPDEST PUSH2 0x672 PUSH15 0x4973737565466F7241646472657373 PUSH1 0x88 SHL GAS PUSH2 0x694 PUSH2 0x11E8 JUMP JUMPDEST DUP4 PUSH2 0xE96 JUMP JUMPDEST PUSH2 0x672 PUSH18 0x45786368616E6765466F7241646472657373 PUSH1 0x70 SHL GAS PUSH2 0x66C PUSH2 0x11E8 JUMP JUMPDEST PUSH1 0x0 PUSH1 0x1 PUSH2 0x6C8 PUSH2 0x113F JUMP JUMPDEST SWAP1 PUSH2 0x100 EXP SWAP1 DIV PUSH1 0x1 PUSH1 0x1 PUSH1 0xA0 SHL SUB AND DUP2 JUMP JUMPDEST PUSH2 0x672 PUSH14 0x4275726E466F7241646472657373 PUSH1 0x90 SHL GAS PUSH2 0x694 PUSH2 0x11E8 JUMP JUMPDEST PUSH2 0x672 PUSH15 0x436C61696D466F7241646472657373 PUSH1 0x88 SHL GAS PUSH2 0x694 PUSH2 0x11E8 JUMP JUMPDEST PUSH1 0x0 JUMPDEST PUSH1 0x5 DUP2 LT ISZERO PUSH2 0x754 JUMPI PUSH2 0x74C PUSH1 0x2 DUP3 PUSH1 0x5 DUP2 LT PUSH2 0x734 JUMPI INVALID JUMPDEST ADD PUSH2 0x73D PUSH2 0x113F JUMP JUMPDEST GAS PUSH2 0x746 PUSH2 0x11E8 JUMP JUMPDEST DUP5 PUSH2 0xE96 JUMP JUMPDEST PUSH1 0x1 ADD PUSH2 0x71B JUMP JUMPDEST POP POP JUMP JUMPDEST PUSH1 0x0 PUSH1 0x1 PUSH2 0x764 PUSH2 0x113F JUMP JUMPDEST SWAP1 PUSH2 0x100 EXP SWAP1 DIV PUSH1 0x1 PUSH1 0x1 PUSH1 0xA0 SHL SUB AND PUSH1 0x1 PUSH1 0x1 PUSH1 0xA0 SHL SUB AND GAS PUSH2 0x786 PUSH2 0x11E8 JUMP JUMPDEST PUSH1 0x1 PUSH1 0x1 PUSH1 0xA0 SHL SUB AND EQ PUSH2 0x7D4 JUMPI PUSH1 0x40 MLOAD PUSH3 0x461BCD PUSH1 0xE5 SHL DUP2 MSTORE PUSH1 0x4 ADD DUP1 DUP1 PUSH1 0x20 ADD DUP3 DUP2 SUB DUP3 MSTORE PUSH1 0x35 DUP2 MSTORE PUSH1 0x20 ADD DUP1 PUSH2 0x1413 PUSH1 0x35 SWAP2 CODECOPY PUSH1 0x40 ADD SWAP2 POP POP PUSH1 0x40 MLOAD DUP1 SWAP2 SUB SWAP1 PUSH2 0x7D1 PUSH2 0x10D4 JUMP JUMPDEST POP POP JUMPDEST PUSH32 0xB532073B38C83145E3E5135377A08BF9AAB55BC0FD7C1179CD4FB995D2A5159C PUSH1 0x0 DUP1 PUSH2 0x800 PUSH2 0x113F JUMP JUMPDEST SWAP1 PUSH2 0x100 EXP SWAP1 DIV PUSH1 0x1 PUSH1 0x1 PUSH1 0xA0 SHL SUB AND PUSH1 0x1 PUSH1 0x0 SWAP1 PUSH2 0x81D PUSH2 0x113F JUMP JUMPDEST SWAP1 PUSH2 0x100 EXP SWAP1 DIV PUSH1 0x1 PUSH1 0x1 PUSH1 0xA0 SHL SUB AND PUSH1 0x40 MLOAD PUSH1 0x1 PUSH1 0x1 PUSH1 0xA0 SHL SUB SWAP3 DUP4 AND DUP2 MSTORE SWAP2 AND PUSH1 0x20 DUP3 ADD MSTORE PUSH1 0x40 SWAP1 DUP2 ADD SWAP1 MLOAD DUP1 SWAP2 SUB SWAP1 LOG1 PUSH1 0x0 PUSH1 0x1 PUSH2 0x85C PUSH2 0x113F JUMP JUMPDEST SWAP1 PUSH2 0x100 EXP SWAP1 DIV PUSH1 0x1 PUSH1 0x1 PUSH1 0xA0 SHL SUB AND PUSH1 0x0 DUP1 PUSH2 0x100 EXP DUP2 PUSH2 0x87C PUSH2 0x113F JUMP JUMPDEST DUP2 PUSH1 0x1 PUSH1 0x1 PUSH1 0xA0 SHL SUB MUL NOT AND SWAP1 DUP4 PUSH1 0x1 PUSH1 0x1 PUSH1 0xA0 SHL SUB AND MUL OR SWAP1 PUSH2 0x89E PUSH2 0x119A JUMP JUMPDEST POP POP POP PUSH1 0x0 PUSH1 0x1 PUSH1 0x0 PUSH2 0x100 EXP DUP2 PUSH2 0x8B4 PUSH2 0x113F JUMP JUMPDEST DUP2 PUSH1 0x1 PUSH1 0x1 PUSH1 0xA0 SHL SUB MUL NOT AND SWAP1 DUP4 PUSH1 0x1 PUSH1 0x1 PUSH1 0xA0 SHL SUB AND MUL OR SWAP1 PUSH2 0x8D6 PUSH2 0x119A JUMP JUMPDEST POP POP POP JUMP JUMPDEST PUSH1 0x0 PUSH2 0x597 PUSH14 0x4275726E466F7241646472657373 PUSH1 0x90 SHL DUP5 DUP5 PUSH2 0xBC3 JUMP JUMPDEST PUSH1 0x0 DUP1 PUSH2 0x6C8 PUSH2 0x113F JUMP JUMPDEST PUSH1 0x0 PUSH1 0x7 PUSH2 0x6C8 PUSH2 0x113F JUMP JUMPDEST PUSH2 0x672 PUSH14 0x4275726E466F7241646472657373 PUSH1 0x90 SHL GAS PUSH2 0x66C PUSH2 0x11E8 JUMP JUMPDEST PUSH10 0x105C1C1C9BDD99505B1B PUSH1 0xB2 SHL DUP2 JUMP JUMPDEST PUSH2 0x672 PUSH15 0x4973737565466F7241646472657373 PUSH1 0x88 SHL GAS PUSH2 0x66C PUSH2 0x11E8 JUMP JUMPDEST PUSH1 0x0 DUP1 PUSH1 0x7 PUSH2 0x96B PUSH2 0x113F JUMP JUMPDEST SWAP1 PUSH2 0x100 EXP SWAP1 DIV PUSH1 0x1 PUSH1 0x1 PUSH1 0xA0 SHL SUB AND PUSH1 0x1 PUSH1 0x1 PUSH1 0xA0 SHL SUB AND PUSH4 0x17E7DD22 PUSH2 0x9A1 PUSH10 0x105C1C1C9BDD99505B1B PUSH1 0xB2 SHL DUP7 DUP7 PUSH2 0x1069 JUMP JUMPDEST PUSH1 0x40 MLOAD PUSH1 0x1 PUSH1 0x1 PUSH1 0xE0 SHL SUB NOT PUSH1 0xE0 DUP5 SWAP1 SHL AND DUP2 MSTORE PUSH1 0x4 DUP2 ADD SWAP2 SWAP1 SWAP2 MSTORE PUSH1 0x24 ADD PUSH1 0x20 PUSH1 0x40 MLOAD DUP1 DUP4 SUB DUP2 DUP7 DUP1 PUSH2 0x9D3 PUSH2 0x122E JUMP JUMPDEST ISZERO DUP1 ISZERO PUSH2 0x9E8 JUMPI PUSH1 0x0 DUP1 PUSH2 0x9E5 PUSH2 0x10D4 JUMP JUMPDEST POP POP JUMPDEST POP GAS PUSH2 0x9F2 PUSH2 0x127A JUMP JUMPDEST POP POP POP POP POP ISZERO DUP1 ISZERO PUSH2 0xA11 JUMPI RETURNDATASIZE PUSH1 0x0 DUP1 RETURNDATACOPY RETURNDATASIZE PUSH1 0x0 PUSH2 0xA0E PUSH2 0x10D4 JUMP JUMPDEST POP POP JUMPDEST POP POP POP POP PUSH1 0x40 MLOAD RETURNDATASIZE PUSH1 0x20 DUP2 LT ISZERO PUSH2 0xA30 JUMPI PUSH1 0x0 DUP1 PUSH2 0xA2D PUSH2 0x10D4 JUMP JUMPDEST POP POP JUMPDEST DUP2 ADD SWAP1 DUP1 DUP1 MLOAD SWAP7 SWAP6 POP POP POP POP POP POP JUMP JUMPDEST PUSH2 0xA48 PUSH2 0xCB1 JUMP JUMPDEST PUSH1 0x1 PUSH1 0x1 PUSH1 0xA0 SHL SUB DUP2 AND PUSH2 0xA96 JUMPI PUSH1 0x40 MLOAD PUSH3 0x461BCD PUSH1 0xE5 SHL DUP2 MSTORE PUSH1 0x4 ADD DUP1 DUP1 PUSH1 0x20 ADD DUP3 DUP2 SUB DUP3 MSTORE PUSH1 0x26 DUP2 MSTORE PUSH1 0x20 ADD DUP1 PUSH2 0x13ED PUSH1 0x26 SWAP2 CODECOPY PUSH1 0x40 ADD SWAP2 POP POP PUSH1 0x40 MLOAD DUP1 SWAP2 SUB SWAP1 PUSH2 0xA93 PUSH2 0x10D4 JUMP JUMPDEST POP POP JUMPDEST DUP1 PUSH1 0x7 PUSH1 0x1 DUP2 PUSH2 0xAA4 PUSH2 0x113F JUMP JUMPDEST DUP2 PUSH1 0x1 PUSH1 0x1 PUSH1 0xA0 SHL SUB MUL NOT AND SWAP1 DUP4 PUSH1 0x1 PUSH1 0x1 PUSH1 0xA0 SHL SUB AND MUL OR SWAP1 PUSH2 0xAC6 PUSH2 0x119A JUMP JUMPDEST POP POP POP PUSH32 0xE3EBE3D58E84FBD094152BABB730CF99A14B47F65ED04F35A3BD6356F8161A17 PUSH1 0x7 PUSH1 0x0 SWAP1 PUSH2 0xAF7 PUSH2 0x113F JUMP JUMPDEST SWAP1 PUSH2 0x100 EXP SWAP1 DIV PUSH1 0x1 PUSH1 0x1 PUSH1 0xA0 SHL SUB AND PUSH1 0x40 MLOAD PUSH1 0x1 PUSH1 0x1 PUSH1 0xA0 SHL SUB SWAP1 SWAP2 AND DUP2 MSTORE PUSH1 0x20 ADD PUSH1 0x40 MLOAD DUP1 SWAP2 SUB SWAP1 LOG1 POP JUMP JUMPDEST PUSH2 0x672 PUSH18 0x45786368616E6765466F7241646472657373 PUSH1 0x70 SHL GAS PUSH2 0x694 PUSH2 0x11E8 JUMP JUMPDEST PUSH2 0x672 PUSH10 0x105C1C1C9BDD99505B1B PUSH1 0xB2 SHL GAS PUSH2 0x66C PUSH2 0x11E8 JUMP JUMPDEST PUSH15 0x436C61696D466F7241646472657373 PUSH1 0x88 SHL DUP2 JUMP JUMPDEST PUSH18 0x45786368616E6765466F7241646472657373 PUSH1 0x70 SHL DUP2 JUMP JUMPDEST PUSH14 0x4275726E466F7241646472657373 PUSH1 0x90 SHL DUP2 JUMP JUMPDEST PUSH1 0x0 PUSH2 0x597 PUSH18 0x45786368616E6765466F7241646472657373 PUSH1 0x70 SHL DUP5 DUP5 JUMPDEST PUSH1 0x0 PUSH2 0xBCF DUP4 DUP4 PUSH2 0x95E JUMP JUMPDEST ISZERO PUSH2 0xBDC JUMPI POP PUSH1 0x1 PUSH2 0x597 JUMP JUMPDEST PUSH1 0x0 PUSH1 0x7 PUSH2 0xBE8 PUSH2 0x113F JUMP JUMPDEST SWAP1 PUSH2 0x100 EXP SWAP1 DIV PUSH1 0x1 PUSH1 0x1 PUSH1 0xA0 SHL SUB AND PUSH1 0x1 PUSH1 0x1 PUSH1 0xA0 SHL SUB AND PUSH4 0x17E7DD22 PUSH2 0xC11 DUP7 DUP7 DUP7 PUSH2 0x1069 JUMP JUMPDEST PUSH1 0x40 MLOAD PUSH1 0x1 PUSH1 0x1 PUSH1 0xE0 SHL SUB NOT PUSH1 0xE0 DUP5 SWAP1 SHL AND DUP2 MSTORE PUSH1 0x4 DUP2 ADD SWAP2 SWAP1 SWAP2 MSTORE PUSH1 0x24 ADD PUSH1 0x20 PUSH1 0x40 MLOAD DUP1 DUP4 SUB DUP2 DUP7 DUP1 PUSH2 0xC43 PUSH2 0x122E JUMP JUMPDEST ISZERO DUP1 ISZERO PUSH2 0xC58 JUMPI PUSH1 0x0 DUP1 PUSH2 0xC55 PUSH2 0x10D4 JUMP JUMPDEST POP POP JUMPDEST POP GAS PUSH2 0xC62 PUSH2 0x127A JUMP JUMPDEST POP POP POP POP POP ISZERO DUP1 ISZERO PUSH2 0xC81 JUMPI RETURNDATASIZE PUSH1 0x0 DUP1 RETURNDATACOPY RETURNDATASIZE PUSH1 0x0 PUSH2 0xC7E PUSH2 0x10D4 JUMP JUMPDEST POP POP JUMPDEST POP POP POP POP PUSH1 0x40 MLOAD RETURNDATASIZE PUSH1 0x20 DUP2 LT ISZERO PUSH2 0xCA0 JUMPI PUSH1 0x0 DUP1 PUSH2 0xC9D PUSH2 0x10D4 JUMP JUMPDEST POP POP JUMPDEST DUP2 ADD SWAP1 DUP1 DUP1 MLOAD SWAP8 SWAP7 POP POP POP POP POP POP POP JUMP JUMPDEST PUSH1 0x0 DUP1 PUSH2 0xCBC PUSH2 0x113F JUMP JUMPDEST SWAP1 PUSH2 0x100 EXP SWAP1 DIV PUSH1 0x1 PUSH1 0x1 PUSH1 0xA0 SHL SUB AND PUSH1 0x1 PUSH1 0x1 PUSH1 0xA0 SHL SUB AND GAS PUSH2 0xCDE PUSH2 0x11E8 JUMP JUMPDEST PUSH1 0x1 PUSH1 0x1 PUSH1 0xA0 SHL SUB AND EQ PUSH2 0xD29 JUMPI PUSH1 0x40 MLOAD PUSH3 0x461BCD PUSH1 0xE5 SHL DUP2 MSTORE PUSH1 0x4 ADD DUP1 DUP1 PUSH1 0x20 ADD DUP3 DUP2 SUB DUP3 MSTORE PUSH1 0x2F DUP2 MSTORE PUSH1 0x20 ADD DUP1 PUSH2 0x1448 PUSH1 0x2F SWAP2 CODECOPY PUSH1 0x40 ADD SWAP2 POP POP PUSH1 0x40 MLOAD DUP1 SWAP2 SUB SWAP1 PUSH2 0x754 PUSH2 0x10D4 JUMP JUMPDEST JUMP JUMPDEST PUSH1 0x1 PUSH1 0x1 PUSH1 0xA0 SHL SUB DUP2 AND PUSH2 0xD8E JUMPI PUSH1 0x40 MLOAD PUSH3 0x461BCD PUSH1 0xE5 SHL DUP2 MSTORE PUSH1 0x20 PUSH1 0x4 DUP3 ADD MSTORE PUSH1 0x1C PUSH1 0x24 DUP3 ADD MSTORE PUSH32 0x43616E27742064656C656761746520746F206164647265737328302900000000 PUSH1 0x44 DUP3 ADD MSTORE PUSH1 0x64 ADD PUSH1 0x40 MLOAD DUP1 SWAP2 SUB SWAP1 PUSH2 0xD8B PUSH2 0x10D4 JUMP JUMPDEST POP POP JUMPDEST PUSH1 0x0 PUSH1 0x7 PUSH2 0xD9A PUSH2 0x113F JUMP JUMPDEST SWAP1 PUSH2 0x100 EXP SWAP1 DIV PUSH1 0x1 PUSH1 0x1 PUSH1 0xA0 SHL SUB AND PUSH1 0x1 PUSH1 0x1 PUSH1 0xA0 SHL SUB AND PUSH4 0x3EBA9ED2 PUSH2 0xDC3 DUP6 DUP6 DUP6 PUSH2 0x1069 JUMP JUMPDEST PUSH1 0x1 PUSH1 0x40 MLOAD PUSH1 0x1 PUSH1 0x1 PUSH1 0xE0 SHL SUB NOT PUSH1 0xE0 DUP6 SWAP1 SHL AND DUP2 MSTORE PUSH1 0x4 DUP2 ADD SWAP3 SWAP1 SWAP3 MSTORE ISZERO ISZERO PUSH1 0x24 DUP3 ADD MSTORE PUSH1 0x44 ADD PUSH1 0x0 PUSH1 0x40 MLOAD DUP1 DUP4 SUB DUP2 PUSH1 0x0 DUP8 DUP1 PUSH2 0xE00 PUSH2 0x122E JUMP JUMPDEST ISZERO DUP1 ISZERO PUSH2 0xE15 JUMPI PUSH1 0x0 DUP1 PUSH2 0xE12 PUSH2 0x10D4 JUMP JUMPDEST POP POP JUMPDEST POP GAS PUSH2 0xE1F PUSH2 0x1333 JUMP JUMPDEST POP POP POP POP POP POP ISZERO DUP1 ISZERO PUSH2 0xE3F JUMPI RETURNDATASIZE PUSH1 0x0 DUP1 RETURNDATACOPY RETURNDATASIZE PUSH1 0x0 PUSH2 0xE3C PUSH2 0x10D4 JUMP JUMPDEST POP POP JUMPDEST POP POP POP POP DUP2 PUSH1 0x1 PUSH1 0x1 PUSH1 0xA0 SHL SUB AND PUSH32 0x36A9E0C1DA9CDC6D8F4BD4CB261F9AD6A45EB1641A557EAD7530FBEFF9A26336 DUP3 DUP6 PUSH1 0x40 MLOAD PUSH1 0x1 PUSH1 0x1 PUSH1 0xA0 SHL SUB SWAP1 SWAP3 AND DUP3 MSTORE PUSH1 0x20 DUP3 ADD MSTORE PUSH1 0x40 SWAP1 DUP2 ADD SWAP1 MLOAD DUP1 SWAP2 SUB SWAP1 LOG2 POP POP POP JUMP JUMPDEST PUSH1 0x0 PUSH1 0x7 PUSH2 0xEA2 PUSH2 0x113F JUMP JUMPDEST SWAP1 PUSH2 0x100 EXP SWAP1 DIV PUSH1 0x1 PUSH1 0x1 PUSH1 0xA0 SHL SUB AND PUSH1 0x1 PUSH1 0x1 PUSH1 0xA0 SHL SUB AND PUSH4 0x17E7DD22 PUSH2 0xECB DUP6 DUP6 DUP6 PUSH2 0x1069 JUMP JUMPDEST PUSH1 0x40 MLOAD PUSH1 0x1 PUSH1 0x1 PUSH1 0xE0 SHL SUB NOT PUSH1 0xE0 DUP5 SWAP1 SHL AND DUP2 MSTORE PUSH1 0x4 DUP2 ADD SWAP2 SWAP1 SWAP2 MSTORE PUSH1 0x24 ADD PUSH1 0x20 PUSH1 0x40 MLOAD DUP1 DUP4 SUB DUP2 DUP7 DUP1 PUSH2 0xEFD PUSH2 0x122E JUMP JUMPDEST ISZERO DUP1 ISZERO PUSH2 0xF12 JUMPI PUSH1 0x0 DUP1 PUSH2 0xF0F PUSH2 0x10D4 JUMP JUMPDEST POP POP JUMPDEST POP GAS PUSH2 0xF1C PUSH2 0x127A JUMP JUMPDEST POP POP POP POP POP ISZERO DUP1 ISZERO PUSH2 0xF3B JUMPI RETURNDATASIZE PUSH1 0x0 DUP1 RETURNDATACOPY RETURNDATASIZE PUSH1 0x0 PUSH2 0xF38 PUSH2 0x10D4 JUMP JUMPDEST POP POP JUMPDEST POP POP POP POP PUSH1 0x40 MLOAD RETURNDATASIZE PUSH1 0x20 DUP2 LT ISZERO PUSH2 0xF5A JUMPI PUSH1 0x0 DUP1 PUSH2 0xF57 PUSH2 0x10D4 JUMP JUMPDEST POP POP JUMPDEST DUP2 ADD SWAP1 DUP1 DUP1 MLOAD ISZERO SWAP3 POP PUSH2 0x8D6 SWAP2 POP POP JUMPI PUSH1 0x0 PUSH1 0x7 PUSH2 0xF76 PUSH2 0x113F JUMP JUMPDEST SWAP1 PUSH2 0x100 EXP SWAP1 DIV PUSH1 0x1 PUSH1 0x1 PUSH1 0xA0 SHL SUB AND PUSH1 0x1 PUSH1 0x1 PUSH1 0xA0 SHL SUB AND PUSH4 0x3CC1635C PUSH2 0xF9F DUP6 DUP6 DUP6 PUSH2 0x1069 JUMP JUMPDEST PUSH1 0x40 MLOAD PUSH1 0x1 PUSH1 0x1 PUSH1 0xE0 SHL SUB NOT PUSH1 0xE0 DUP5 SWAP1 SHL AND DUP2 MSTORE PUSH1 0x4 DUP2 ADD SWAP2 SWAP1 SWAP2 MSTORE PUSH1 0x24 ADD PUSH1 0x0 PUSH1 0x40 MLOAD DUP1 DUP4 SUB DUP2 PUSH1 0x0 DUP8 DUP1 PUSH2 0xFD3 PUSH2 0x122E JUMP JUMPDEST ISZERO DUP1 ISZERO PUSH2 0xFE8 JUMPI PUSH1 0x0 DUP1 PUSH2 0xFE5 PUSH2 0x10D4 JUMP JUMPDEST POP POP JUMPDEST POP GAS PUSH2 0xFF2 PUSH2 0x1333 JUMP JUMPDEST POP POP POP POP POP POP ISZERO DUP1 ISZERO PUSH2 0x1012 JUMPI RETURNDATASIZE PUSH1 0x0 DUP1 RETURNDATACOPY RETURNDATASIZE PUSH1 0x0 PUSH2 0x100F PUSH2 0x10D4 JUMP JUMPDEST POP POP JUMPDEST POP POP POP POP DUP2 PUSH1 0x1 PUSH1 0x1 PUSH1 0xA0 SHL SUB AND PUSH32 0x7E8DC09322AC82342D9DBFD49EB6497FA7AB69AC444F3763A9B8E16530342F41 DUP3 DUP6 PUSH1 0x40 MLOAD PUSH1 0x1 PUSH1 0x1 PUSH1 0xA0 SHL SUB SWAP1 SWAP3 AND DUP3 MSTORE PUSH1 0x20 DUP3 ADD MSTORE PUSH1 0x40 SWAP1 DUP2 ADD SWAP1 MLOAD DUP1 SWAP2 SUB SWAP1 LOG2 POP POP POP JUMP JUMPDEST PUSH1 0x0 DUP4 DUP4 DUP4 PUSH1 0x40 MLOAD PUSH1 0x20 ADD DUP1 DUP5 DUP2 MSTORE PUSH1 0x20 ADD DUP4 PUSH1 0x1 PUSH1 0x1 PUSH1 0xA0 SHL SUB AND PUSH1 0x1 PUSH1 0x1 PUSH1 0xA0 SHL SUB AND PUSH1 0x60 SHL DUP2 MSTORE PUSH1 0x14 ADD DUP3 PUSH1 0x1 PUSH1 0x1 PUSH1 0xA0 SHL SUB AND PUSH1 0x1 PUSH1 0x1 PUSH1 0xA0 SHL SUB AND PUSH1 0x60 SHL DUP2 MSTORE PUSH1 0x14 ADD SWAP4 POP POP POP POP PUSH1 0x40 MLOAD PUSH1 0x20 DUP2 DUP4 SUB SUB DUP2 MSTORE SWAP1 PUSH1 0x40 MSTORE DUP1 MLOAD SWAP1 PUSH1 0x20 ADD KECCAK256 SWAP5 SWAP4 POP POP POP POP JUMP JUMPDEST PUSH4 0x2A2A7ADB MSIZE DUP2 PUSH1 0xE0 SHL DUP2 MSTORE PUSH1 0x4 DUP2 ADD PUSH1 0x20 DUP2 MSTORE DUP6 PUSH1 0x20 DUP3 ADD MSTORE PUSH1 0x0 JUMPDEST DUP7 DUP2 LT ISZERO PUSH2 0x110C JUMPI DUP1 DUP7 ADD MLOAD DUP3 DUP3 ADD PUSH1 0x40 ADD MSTORE PUSH1 0x20 ADD PUSH2 0x10F1 JUMP JUMPDEST POP PUSH1 0x20 DUP3 DUP8 PUSH1 0x64 ADD DUP5 CALLER PUSH1 0x0 SWAP1 GAS CALL PC PUSH1 0xE ADD JUMPI RETURNDATASIZE PUSH1 0x0 DUP1 RETURNDATACOPY RETURNDATASIZE PUSH1 0x0 REVERT JUMPDEST RETURNDATASIZE PUSH1 0x1 EQ ISZERO PC PUSH1 0xA ADD JUMPI PUSH1 0x1 PUSH1 0x0 RETURN JUMPDEST POP POP POP JUMP JUMPDEST PUSH4 0x3DAA959 MSIZE DUP2 PUSH1 0xE0 SHL DUP2 MSTORE DUP4 PUSH1 0x4 DUP3 ADD MSTORE PUSH1 0x20 DUP2 PUSH1 0x24 DUP4 CALLER PUSH1 0x0 SWAP1 GAS CALL PC PUSH1 0xE ADD JUMPI RETURNDATASIZE PUSH1 0x0 DUP1 RETURNDATACOPY RETURNDATASIZE PUSH1 0x0 REVERT JUMPDEST RETURNDATASIZE PUSH1 0x1 EQ ISZERO PC PUSH1 0xA ADD JUMPI PUSH1 0x1 PUSH1 0x0 RETURN JUMPDEST DUP1 MLOAD SWAP4 POP PUSH1 0x0 JUMPDEST PUSH1 0x40 DUP2 LT ISZERO PUSH2 0x8D6 JUMPI PUSH1 0x0 DUP3 DUP3 ADD MSTORE PUSH1 0x20 ADD PUSH2 0x1183 JUMP JUMPDEST PUSH4 0x22BD64C0 MSIZE DUP2 PUSH1 0xE0 SHL DUP2 MSTORE DUP4 PUSH1 0x4 DUP3 ADD MSTORE DUP5 PUSH1 0x24 DUP3 ADD MSTORE PUSH1 0x0 DUP2 PUSH1 0x44 DUP4 CALLER PUSH1 0x0 SWAP1 GAS CALL PC PUSH1 0xE ADD JUMPI RETURNDATASIZE PUSH1 0x0 DUP1 RETURNDATACOPY RETURNDATASIZE PUSH1 0x0 REVERT JUMPDEST RETURNDATASIZE PUSH1 0x1 EQ ISZERO PC PUSH1 0xA ADD JUMPI PUSH1 0x1 PUSH1 0x0 RETURN JUMPDEST PUSH1 0x0 DUP2 MSTORE PUSH1 0x20 PUSH2 0x1183 JUMP JUMPDEST PUSH4 0x73509064 MSIZE DUP2 PUSH1 0xE0 SHL DUP2 MSTORE PUSH1 0x20 DUP2 PUSH1 0x4 DUP4 CALLER PUSH1 0x0 SWAP1 GAS CALL PC PUSH1 0xE ADD JUMPI RETURNDATASIZE PUSH1 0x0 DUP1 RETURNDATACOPY RETURNDATASIZE PUSH1 0x0 REVERT JUMPDEST RETURNDATASIZE PUSH1 0x1 EQ ISZERO PC PUSH1 0xA ADD JUMPI PUSH1 0x1 PUSH1 0x0 RETURN JUMPDEST DUP1 MLOAD PUSH1 0x0 DUP3 MSTORE SWAP4 POP PUSH1 0x20 PUSH2 0x1183 JUMP JUMPDEST PUSH4 0x8435035B MSIZE DUP2 PUSH1 0xE0 SHL DUP2 MSTORE DUP4 PUSH1 0x4 DUP3 ADD MSTORE PUSH1 0x20 DUP2 PUSH1 0x24 DUP4 CALLER PUSH1 0x0 SWAP1 GAS CALL PC PUSH1 0xE ADD JUMPI RETURNDATASIZE PUSH1 0x0 DUP1 RETURNDATACOPY RETURNDATASIZE PUSH1 0x0 REVERT JUMPDEST RETURNDATASIZE PUSH1 0x1 EQ ISZERO PC PUSH1 0xA ADD JUMPI PUSH1 0x1 PUSH1 0x0 RETURN JUMPDEST DUP1 MLOAD PUSH1 0x0 DUP3 MSTORE SWAP4 POP PUSH1 0x20 PUSH2 0x1183 JUMP JUMPDEST PUSH4 0x8540661F MSIZE DUP2 PUSH1 0xE0 SHL DUP2 MSTORE DUP4 PUSH1 0x4 DUP3 ADD MSTORE DUP5 PUSH1 0x24 DUP3 ADD MSTORE PUSH1 0x60 PUSH1 0x44 DUP3 ADD MSTORE DUP7 PUSH1 0x64 DUP3 ADD MSTORE PUSH1 0x84 DUP2 ADD PUSH1 0x0 JUMPDEST DUP9 DUP2 LT ISZERO PUSH2 0x12BE JUMPI DUP1 DUP9 ADD MLOAD DUP3 DUP3 ADD MSTORE PUSH1 0x20 ADD PUSH2 0x12A6 JUMP JUMPDEST POP DUP8 PUSH2 0x104 ADD DUP3 ADD PUSH1 0x60 DUP4 DUP11 PUSH2 0x104 ADD DUP6 CALLER PUSH1 0x0 SWAP1 GAS CALL PC PUSH1 0xE ADD JUMPI RETURNDATASIZE PUSH1 0x0 DUP1 RETURNDATACOPY RETURNDATASIZE PUSH1 0x0 REVERT JUMPDEST RETURNDATASIZE PUSH1 0x1 EQ ISZERO PC PUSH1 0xA ADD JUMPI PUSH1 0x1 PUSH1 0x0 RETURN JUMPDEST DUP3 MLOAD PUSH1 0x40 DUP5 ADD MLOAD RETURNDATASIZE PUSH1 0x0 DUP7 RETURNDATACOPY DUP13 DUP13 DUP3 PUSH1 0x60 DUP9 ADD CALLER POP PUSH1 0x0 PUSH1 0x4 GAS CALL POP MSIZE DUP6 JUMPDEST DUP2 DUP2 LT ISZERO PUSH2 0x1327 JUMPI PUSH1 0x0 DUP2 MSTORE PUSH1 0x20 ADD PUSH2 0x1313 JUMP JUMPDEST POP SWAP2 SWAP13 POP POP POP POP POP POP POP JUMP JUMPDEST PUSH4 0x85979F76 MSIZE DUP2 PUSH1 0xE0 SHL DUP2 MSTORE DUP4 PUSH1 0x4 DUP3 ADD MSTORE DUP5 PUSH1 0x24 DUP3 ADD MSTORE PUSH1 0x60 PUSH1 0x44 DUP3 ADD MSTORE DUP8 PUSH1 0x64 DUP3 ADD MSTORE PUSH1 0x84 DUP2 ADD PUSH1 0x0 JUMPDEST DUP10 DUP2 LT ISZERO PUSH2 0x1377 JUMPI DUP1 DUP10 ADD MLOAD DUP3 DUP3 ADD MSTORE PUSH1 0x20 ADD PUSH2 0x135F JUMP JUMPDEST POP DUP9 PUSH2 0x104 ADD DUP3 ADD PUSH1 0x60 DUP4 DUP12 PUSH2 0x104 ADD DUP6 CALLER PUSH1 0x0 SWAP1 GAS CALL PC PUSH1 0xE ADD JUMPI RETURNDATASIZE PUSH1 0x0 DUP1 RETURNDATACOPY RETURNDATASIZE PUSH1 0x0 REVERT JUMPDEST RETURNDATASIZE PUSH1 0x1 EQ ISZERO PC PUSH1 0xA ADD JUMPI PUSH1 0x1 PUSH1 0x0 RETURN JUMPDEST DUP3 MLOAD PUSH1 0x40 DUP5 ADD MLOAD RETURNDATASIZE PUSH1 0x0 DUP7 RETURNDATACOPY DUP14 DUP14 DUP3 PUSH1 0x60 DUP9 ADD CALLER POP PUSH1 0x0 PUSH1 0x4 GAS CALL POP MSIZE DUP6 JUMPDEST DUP2 DUP2 LT ISZERO PUSH2 0x13E0 JUMPI PUSH1 0x0 DUP2 MSTORE PUSH1 0x20 ADD PUSH2 0x13CC JUMP JUMPDEST POP SWAP2 SWAP14 POP POP POP POP POP POP POP JUMP INVALID NUMBER PUSH2 0x6E27 PUSH21 0x2073657420657465726E616C53746F726167652074 PUSH16 0x2061646472657373283029596F75206D PUSH22 0x7374206265206E6F6D696E61746564206265666F7265 KECCAK256 PUSH26 0x6F752063616E20616363657074206F776E6572736869704F6E6C PUSH26 0x2074686520636F6E7472616374206F776E6572206D6179207065 PUSH19 0x666F726D207468697320616374696F6E000000 "
		}
	}
}