{
	"abi": [
		{
			"inputs": [
				{
					"internalType": "address",
					"name": "_owner",
					"type": "address"
				},
				{
					"internalType": "address payable",
					"name": "_fundsWallet",
					"type": "address"
				},
				{
					"internalType": "address",
					"name": "_resolver",
					"type": "address"
				}
			],
			"payable": false,
			"stateMutability": "nonpayable",
			"type": "constructor"
		},
		{
			"anonymous": false,
			"inputs": [
				{
					"indexed": true,
					"internalType": "address",
					"name": "fromAddress",
					"type": "address"
				},
				{
					"indexed": true,
					"internalType": "address",
					"name": "toAddress",
					"type": "address"
				},
				{
					"indexed": false,
					"internalType": "uint256",
					"name": "fromETHAmount",
					"type": "uint256"
				},
				{
					"indexed": false,
					"internalType": "uint256",
					"name": "toAmount",
					"type": "uint256"
				},
				{
					"indexed": true,
					"internalType": "uint256",
					"name": "depositIndex",
					"type": "uint256"
				}
			],
			"name": "ClearedDeposit",
			"type": "event"
		},
		{
			"anonymous": false,
			"inputs": [
				{
					"indexed": false,
					"internalType": "string",
					"name": "fromCurrency",
					"type": "string"
				},
				{
					"indexed": false,
					"internalType": "uint256",
					"name": "fromAmount",
					"type": "uint256"
				},
				{
					"indexed": false,
					"internalType": "string",
					"name": "toCurrency",
					"type": "string"
				},
				{
					"indexed": false,
					"internalType": "uint256",
					"name": "toAmount",
					"type": "uint256"
				}
			],
			"name": "Exchange",
			"type": "event"
		},
		{
			"anonymous": false,
			"inputs": [
				{
					"indexed": false,
					"internalType": "address",
					"name": "newFundsWallet",
					"type": "address"
				}
			],
			"name": "FundsWalletUpdated",
			"type": "event"
		},
		{
			"anonymous": false,
			"inputs": [
				{
					"indexed": false,
					"internalType": "uint256",
					"name": "amount",
					"type": "uint256"
				}
			],
			"name": "MaxEthPurchaseUpdated",
			"type": "event"
		},
		{
			"anonymous": false,
			"inputs": [
				{
					"indexed": false,
					"internalType": "uint256",
					"name": "amount",
					"type": "uint256"
				}
			],
			"name": "MinimumDepositAmountUpdated",
			"type": "event"
		},
		{
			"anonymous": false,
			"inputs": [
				{
					"indexed": true,
					"internalType": "address",
					"name": "receiver",
					"type": "address"
				},
				{
					"indexed": false,
					"internalType": "uint256",
					"name": "amount",
					"type": "uint256"
				}
			],
			"name": "NonPayableContract",
			"type": "event"
		},
		{
			"anonymous": false,
			"inputs": [
				{
					"indexed": false,
					"internalType": "address",
					"name": "oldOwner",
					"type": "address"
				},
				{
					"indexed": false,
					"internalType": "address",
					"name": "newOwner",
					"type": "address"
				}
			],
			"name": "OwnerChanged",
			"type": "event"
		},
		{
			"anonymous": false,
			"inputs": [
				{
					"indexed": false,
					"internalType": "address",
					"name": "newOwner",
					"type": "address"
				}
			],
			"name": "OwnerNominated",
			"type": "event"
		},
		{
			"anonymous": false,
			"inputs": [
				{
					"indexed": false,
					"internalType": "bool",
					"name": "isPaused",
					"type": "bool"
				}
			],
			"name": "PauseChanged",
			"type": "event"
		},
		{
			"anonymous": false,
			"inputs": [
				{
					"indexed": false,
					"internalType": "address",
					"name": "newBeneficiary",
					"type": "address"
				}
			],
			"name": "SelfDestructBeneficiaryUpdated",
			"type": "event"
		},
		{
			"anonymous": false,
			"inputs": [
				{
					"indexed": false,
					"internalType": "uint256",
					"name": "selfDestructDelay",
					"type": "uint256"
				}
			],
			"name": "SelfDestructInitiated",
			"type": "event"
		},
		{
			"anonymous": false,
			"inputs": [],
			"name": "SelfDestructTerminated",
			"type": "event"
		},
		{
			"anonymous": false,
			"inputs": [
				{
					"indexed": false,
					"internalType": "address",
					"name": "beneficiary",
					"type": "address"
				}
			],
			"name": "SelfDestructed",
			"type": "event"
		},
		{
			"anonymous": false,
			"inputs": [
				{
					"indexed": true,
					"internalType": "address",
					"name": "user",
					"type": "address"
				},
				{
					"indexed": false,
					"internalType": "uint256",
					"name": "amount",
					"type": "uint256"
				},
				{
					"indexed": true,
					"internalType": "uint256",
					"name": "depositIndex",
					"type": "uint256"
				}
			],
			"name": "SynthDeposit",
			"type": "event"
		},
		{
			"anonymous": false,
			"inputs": [
				{
					"indexed": false,
					"internalType": "address",
					"name": "user",
					"type": "address"
				},
				{
					"indexed": false,
					"internalType": "uint256",
					"name": "amount",
					"type": "uint256"
				},
				{
					"indexed": false,
					"internalType": "uint256",
					"name": "minimum",
					"type": "uint256"
				}
			],
			"name": "SynthDepositNotAccepted",
			"type": "event"
		},
		{
			"anonymous": false,
			"inputs": [
				{
					"indexed": true,
					"internalType": "address",
					"name": "user",
					"type": "address"
				},
				{
					"indexed": false,
					"internalType": "uint256",
					"name": "amount",
					"type": "uint256"
				},
				{
					"indexed": true,
					"internalType": "uint256",
					"name": "depositIndex",
					"type": "uint256"
				}
			],
			"name": "SynthDepositRemoved",
			"type": "event"
		},
		{
			"anonymous": false,
			"inputs": [
				{
					"indexed": false,
					"internalType": "address",
					"name": "user",
					"type": "address"
				},
				{
					"indexed": false,
					"internalType": "uint256",
					"name": "amount",
					"type": "uint256"
				}
			],
			"name": "SynthWithdrawal",
			"type": "event"
		},
		{
			"payable": true,
			"stateMutability": "payable",
			"type": "fallback"
		},
		{
			"constant": true,
			"inputs": [],
			"name": "MAX_ADDRESSES_FROM_RESOLVER",
			"outputs": [
				{
					"internalType": "uint256",
					"name": "",
					"type": "uint256"
				}
			],
			"payable": false,
			"stateMutability": "view",
			"type": "function"
		},
		{
			"constant": true,
			"inputs": [],
			"name": "SELFDESTRUCT_DELAY",
			"outputs": [
				{
					"internalType": "uint256",
					"name": "",
					"type": "uint256"
				}
			],
			"payable": false,
			"stateMutability": "view",
			"type": "function"
		},
		{
			"constant": false,
			"inputs": [],
			"name": "acceptOwnership",
			"outputs": [],
			"payable": false,
			"stateMutability": "nonpayable",
			"type": "function"
		},
		{
			"constant": true,
			"inputs": [],
			"name": "depositEndIndex",
			"outputs": [
				{
					"internalType": "uint256",
					"name": "",
					"type": "uint256"
				}
			],
			"payable": false,
			"stateMutability": "view",
			"type": "function"
		},
		{
			"constant": true,
			"inputs": [],
			"name": "depositStartIndex",
			"outputs": [
				{
					"internalType": "uint256",
					"name": "",
					"type": "uint256"
				}
			],
			"payable": false,
			"stateMutability": "view",
			"type": "function"
		},
		{
			"constant": false,
			"inputs": [
				{
					"internalType": "uint256",
					"name": "amount",
					"type": "uint256"
				}
			],
			"name": "depositSynths",
			"outputs": [],
			"payable": false,
			"stateMutability": "nonpayable",
			"type": "function"
		},
		{
			"constant": true,
			"inputs": [
				{
					"internalType": "uint256",
					"name": "",
					"type": "uint256"
				}
			],
			"name": "deposits",
			"outputs": [
				{
					"internalType": "address payable",
					"name": "user",
					"type": "address"
				},
				{
					"internalType": "uint256",
					"name": "amount",
					"type": "uint256"
				}
			],
			"payable": false,
			"stateMutability": "view",
			"type": "function"
		},
		{
			"constant": false,
			"inputs": [],
			"name": "exchangeEtherForSNX",
			"outputs": [
				{
					"internalType": "uint256",
					"name": "",
					"type": "uint256"
				}
			],
			"payable": true,
			"stateMutability": "payable",
			"type": "function"
		},
		{
			"constant": false,
			"inputs": [
				{
					"internalType": "uint256",
					"name": "guaranteedEtherRate",
					"type": "uint256"
				},
				{
					"internalType": "uint256",
					"name": "guaranteedSynthetixRate",
					"type": "uint256"
				}
			],
			"name": "exchangeEtherForSNXAtRate",
			"outputs": [
				{
					"internalType": "uint256",
					"name": "",
					"type": "uint256"
				}
			],
			"payable": true,
			"stateMutability": "payable",
			"type": "function"
		},
		{
			"constant": false,
			"inputs": [],
			"name": "exchangeEtherForSynths",
			"outputs": [
				{
					"internalType": "uint256",
					"name": "",
					"type": "uint256"
				}
			],
			"payable": true,
			"stateMutability": "payable",
			"type": "function"
		},
		{
			"constant": false,
			"inputs": [
				{
					"internalType": "uint256",
					"name": "guaranteedRate",
					"type": "uint256"
				}
			],
			"name": "exchangeEtherForSynthsAtRate",
			"outputs": [
				{
					"internalType": "uint256",
					"name": "",
					"type": "uint256"
				}
			],
			"payable": true,
			"stateMutability": "payable",
			"type": "function"
		},
		{
			"constant": false,
			"inputs": [
				{
					"internalType": "uint256",
					"name": "synthAmount",
					"type": "uint256"
				}
			],
			"name": "exchangeSynthsForSNX",
			"outputs": [
				{
					"internalType": "uint256",
					"name": "",
					"type": "uint256"
				}
			],
			"payable": false,
			"stateMutability": "nonpayable",
			"type": "function"
		},
		{
			"constant": false,
			"inputs": [
				{
					"internalType": "uint256",
					"name": "synthAmount",
					"type": "uint256"
				},
				{
					"internalType": "uint256",
					"name": "guaranteedRate",
					"type": "uint256"
				}
			],
			"name": "exchangeSynthsForSNXAtRate",
			"outputs": [
				{
					"internalType": "uint256",
					"name": "",
					"type": "uint256"
				}
			],
			"payable": false,
			"stateMutability": "nonpayable",
			"type": "function"
		},
		{
			"constant": true,
			"inputs": [],
			"name": "fundsWallet",
			"outputs": [
				{
					"internalType": "address payable",
					"name": "",
					"type": "address"
				}
			],
			"payable": false,
			"stateMutability": "view",
			"type": "function"
		},
		{
			"constant": true,
			"inputs": [],
			"name": "getResolverAddressesRequired",
			"outputs": [
				{
					"internalType": "bytes32[24]",
					"name": "addressesRequired",
					"type": "bytes32[24]"
				}
			],
			"payable": false,
			"stateMutability": "view",
			"type": "function"
		},
		{
			"constant": false,
			"inputs": [],
			"name": "initiateSelfDestruct",
			"outputs": [],
			"payable": false,
			"stateMutability": "nonpayable",
			"type": "function"
		},
		{
			"constant": true,
			"inputs": [],
			"name": "initiationTime",
			"outputs": [
				{
					"internalType": "uint256",
					"name": "",
					"type": "uint256"
				}
			],
			"payable": false,
			"stateMutability": "view",
			"type": "function"
		},
		{
			"constant": true,
			"inputs": [
				{
					"internalType": "contract AddressResolver",
					"name": "_resolver",
					"type": "address"
				}
			],
			"name": "isResolverCached",
			"outputs": [
				{
					"internalType": "bool",
					"name": "",
					"type": "bool"
				}
			],
			"payable": false,
			"stateMutability": "view",
			"type": "function"
		},
		{
			"constant": true,
			"inputs": [],
			"name": "lastPauseTime",
			"outputs": [
				{
					"internalType": "uint256",
					"name": "",
					"type": "uint256"
				}
			],
			"payable": false,
			"stateMutability": "view",
			"type": "function"
		},
		{
			"constant": true,
			"inputs": [],
			"name": "maxEthPurchase",
			"outputs": [
				{
					"internalType": "uint256",
					"name": "",
					"type": "uint256"
				}
			],
			"payable": false,
			"stateMutability": "view",
			"type": "function"
		},
		{
			"constant": true,
			"inputs": [],
			"name": "minimumDepositAmount",
			"outputs": [
				{
					"internalType": "uint256",
					"name": "",
					"type": "uint256"
				}
			],
			"payable": false,
			"stateMutability": "view",
			"type": "function"
		},
		{
			"constant": false,
			"inputs": [
				{
					"internalType": "address",
					"name": "_owner",
					"type": "address"
				}
			],
			"name": "nominateNewOwner",
			"outputs": [],
			"payable": false,
			"stateMutability": "nonpayable",
			"type": "function"
		},
		{
			"constant": true,
			"inputs": [],
			"name": "nominatedOwner",
			"outputs": [
				{
					"internalType": "address",
					"name": "",
					"type": "address"
				}
			],
			"payable": false,
			"stateMutability": "view",
			"type": "function"
		},
		{
			"constant": true,
			"inputs": [],
			"name": "owner",
			"outputs": [
				{
					"internalType": "address",
					"name": "",
					"type": "address"
				}
			],
			"payable": false,
			"stateMutability": "view",
			"type": "function"
		},
		{
			"constant": true,
			"inputs": [],
			"name": "paused",
			"outputs": [
				{
					"internalType": "bool",
					"name": "",
					"type": "bool"
				}
			],
			"payable": false,
			"stateMutability": "view",
			"type": "function"
		},
		{
			"constant": true,
			"inputs": [],
			"name": "resolver",
			"outputs": [
				{
					"internalType": "contract AddressResolver",
					"name": "",
					"type": "address"
				}
			],
			"payable": false,
			"stateMutability": "view",
			"type": "function"
		},
		{
			"constant": true,
			"inputs": [
				{
					"internalType": "uint256",
					"name": "",
					"type": "uint256"
				}
			],
			"name": "resolverAddressesRequired",
			"outputs": [
				{
					"internalType": "bytes32",
					"name": "",
					"type": "bytes32"
				}
			],
			"payable": false,
			"stateMutability": "view",
			"type": "function"
		},
		{
			"constant": false,
			"inputs": [],
			"name": "selfDestruct",
			"outputs": [],
			"payable": false,
			"stateMutability": "nonpayable",
			"type": "function"
		},
		{
			"constant": true,
			"inputs": [],
			"name": "selfDestructBeneficiary",
			"outputs": [
				{
					"internalType": "address",
					"name": "",
					"type": "address"
				}
			],
			"payable": false,
			"stateMutability": "view",
			"type": "function"
		},
		{
			"constant": true,
			"inputs": [],
			"name": "selfDestructInitiated",
			"outputs": [
				{
					"internalType": "bool",
					"name": "",
					"type": "bool"
				}
			],
			"payable": false,
			"stateMutability": "view",
			"type": "function"
		},
		{
			"constant": false,
			"inputs": [
				{
					"internalType": "address payable",
					"name": "_fundsWallet",
					"type": "address"
				}
			],
			"name": "setFundsWallet",
			"outputs": [],
			"payable": false,
			"stateMutability": "nonpayable",
			"type": "function"
		},
		{
			"constant": false,
			"inputs": [
				{
					"internalType": "uint256",
					"name": "_maxEthPurchase",
					"type": "uint256"
				}
			],
			"name": "setMaxEthPurchase",
			"outputs": [],
			"payable": false,
			"stateMutability": "nonpayable",
			"type": "function"
		},
		{
			"constant": false,
			"inputs": [
				{
					"internalType": "uint256",
					"name": "_amount",
					"type": "uint256"
				}
			],
			"name": "setMinimumDepositAmount",
			"outputs": [],
			"payable": false,
			"stateMutability": "nonpayable",
			"type": "function"
		},
		{
			"constant": false,
			"inputs": [
				{
					"internalType": "bool",
					"name": "_paused",
					"type": "bool"
				}
			],
			"name": "setPaused",
			"outputs": [],
			"payable": false,
			"stateMutability": "nonpayable",
			"type": "function"
		},
		{
			"constant": false,
			"inputs": [
				{
					"internalType": "contract AddressResolver",
					"name": "_resolver",
					"type": "address"
				}
			],
			"name": "setResolverAndSyncCache",
			"outputs": [],
			"payable": false,
			"stateMutability": "nonpayable",
			"type": "function"
		},
		{
			"constant": false,
			"inputs": [
				{
					"internalType": "address payable",
					"name": "_beneficiary",
					"type": "address"
				}
			],
			"name": "setSelfDestructBeneficiary",
			"outputs": [],
			"payable": false,
			"stateMutability": "nonpayable",
			"type": "function"
		},
		{
			"constant": true,
			"inputs": [
				{
					"internalType": "address",
					"name": "",
					"type": "address"
				}
			],
			"name": "smallDeposits",
			"outputs": [
				{
					"internalType": "uint256",
					"name": "",
					"type": "uint256"
				}
			],
			"payable": false,
			"stateMutability": "view",
			"type": "function"
		},
		{
			"constant": true,
			"inputs": [
				{
					"internalType": "uint256",
					"name": "amount",
					"type": "uint256"
				}
			],
			"name": "synthetixReceivedForEther",
			"outputs": [
				{
					"internalType": "uint256",
					"name": "",
					"type": "uint256"
				}
			],
			"payable": false,
			"stateMutability": "view",
			"type": "function"
		},
		{
			"constant": true,
			"inputs": [
				{
					"internalType": "uint256",
					"name": "amount",
					"type": "uint256"
				}
			],
			"name": "synthetixReceivedForSynths",
			"outputs": [
				{
					"internalType": "uint256",
					"name": "",
					"type": "uint256"
				}
			],
			"payable": false,
			"stateMutability": "view",
			"type": "function"
		},
		{
			"constant": true,
			"inputs": [
				{
					"internalType": "uint256",
					"name": "amount",
					"type": "uint256"
				}
			],
			"name": "synthsReceivedForEther",
			"outputs": [
				{
					"internalType": "uint256",
					"name": "",
					"type": "uint256"
				}
			],
			"payable": false,
			"stateMutability": "view",
			"type": "function"
		},
		{
			"constant": false,
			"inputs": [],
			"name": "terminateSelfDestruct",
			"outputs": [],
			"payable": false,
			"stateMutability": "nonpayable",
			"type": "function"
		},
		{
			"constant": true,
			"inputs": [],
			"name": "totalSellableDeposits",
			"outputs": [
				{
					"internalType": "uint256",
					"name": "",
					"type": "uint256"
				}
			],
			"payable": false,
			"stateMutability": "view",
			"type": "function"
		},
		{
			"constant": false,
			"inputs": [],
			"name": "withdrawMyDepositedSynths",
			"outputs": [],
			"payable": false,
			"stateMutability": "nonpayable",
			"type": "function"
		},
		{
			"constant": false,
			"inputs": [
				{
					"internalType": "uint256",
					"name": "amount",
					"type": "uint256"
				}
			],
			"name": "withdrawSynthetix",
			"outputs": [],
			"payable": false,
			"stateMutability": "nonpayable",
			"type": "function"
		}
	],
	"evm": {
		"bytecode": {
			"linkReferences": {
				"Depot.sol": {
					"SafeDecimalMath": [
						{
							"length": 20,
							"start": 6
						},
						{
							"length": 20,
							"start": 204
						},
						{
							"length": 20,
							"start": 15160
						}
					]
				}
			},
			"object": "608060405273__$5b1a0139898c1861867d128118276f8f0f$__63907af6c06040518163ffffffff1660e01b8152600401602060405180830381868062000045620006ab565b1580156200005d576000806200005a6200070d565b50505b505a620000696200077a565b50505050501580156200008b573d6000803e3d6000620000886200070d565b50505b505050506040513d6020811015620000ad57600080620000aa6200070d565b50505b8101908080516032029250600f9150620000c8905062000837565b505073__$5b1a0139898c1861867d128118276f8f0f$__63907af6c06040518163ffffffff1660e01b815260040160206040518083038186806200010b620006ab565b1580156200012357600080620001206200070d565b50505b505a6200012f6200077a565b505050505015801562000151573d6000803e3d60006200014e6200070d565b50505b505050506040513d60208110156200017357600080620001706200070d565b50505b8101908080516101f4029250601091506200018f905062000837565b50506040516060810160409081526814de5b9d1a1cd554d160ba1b82526c45786368616e6765526174657360981b6020830152680a6f2dce8d0cae8d2f60bb1b90820152620001e390601290600362000886565b50348015620001fc57600080620001f96200070d565b50505b506040516200548038038062005480833981810160405260608110156200022d576000806200022a6200070d565b50505b8101908080519291906020018051929190602001805192508291506012905060186103006040519081016040529190610300830182845b816200026f620008d4565b815260200190600101908083116200026457508893505050506001600160a01b038116620002ee5760405162461bcd60e51b815260206004820152601960248201527f4f776e657220616464726573732063616e6e6f74206265203000000000000000604482015260640160405180910390620002eb6200070d565b50505b806000600181620002fe620008d4565b816001600160a01b0302191690836001600160a01b03160217906200032262000837565b5050507fb532073b38c83145e3e5135377a08bf9aab55bc0fd7c1179cd4fb995d2a5159c6000826040516001600160a01b039283168152911660208201526040908101905180910390a150600080806200037b620008d4565b906101000a90046001600160a01b03166001600160a01b03161415620003e65760405162461bcd60e51b815260206004820152601160248201527013dddb995c881b5d5cdd081899481cd95d607a1b604482015260640160405180910390620003e36200070d565b50505b600080620003f3620008d4565b906101000a90046001600160a01b0316600360016101000a8162000416620008d4565b816001600160a01b0302191690836001600160a01b03160217906200043a62000837565b5050507fd5da63a0b864b315bc04128dedbc93888c8529ee6cf47ce664dc204339228c53600080906200046c620008d4565b906101000a90046001600160a01b03166040516001600160a01b03909116815260200160405180910390a160008080620004a5620008d4565b906101000a90046001600160a01b03166001600160a01b03161415620005105760405162461bcd60e51b815260206004820152601160248201527013dddb995c881b5d5cdd081899481cd95d607a1b6044820152606401604051809103906200050d6200070d565b50505b60018060066200051f62000837565b50600091508190508062000532620008d4565b906101000a90046001600160a01b03166001600160a01b031614156200059d5760405162461bcd60e51b815260206004820152601160248201527013dddb995c881b5d5cdd081899481cd95d607a1b6044820152606401604051809103906200059a6200070d565b50505b60005b60188110156200062d576000828260188110620005b957fe5b6020020151146200061e576009828260188110620005d357fe5b60200201519080600181620005e7620008d4565b018082620005f462000837565b50506000928352916000198301915060209020919291016200061562000837565b50505062000624565b6200062d565b600101620005a0565b508160076001816200063e620008d4565b816001600160a01b0302191690836001600160a01b03160217906200066262000837565b505050505081600a60006101000a816200067b620008d4565b816001600160a01b0302191690836001600160a01b03160217906200069f62000837565b5050505050506200094e565b638435035b598160e01b8152836004820152602081602483336000905af158600e01573d6000803e3d6000fd5b3d6001141558600a015760016000f35b8051935060005b60408110156200070857600082820152602001620006ef565b505050565b632a2a7adb598160e01b8152600481016020815285602082015260005b86811015620007475780860151828201604001526020016200072a565b506020828760640184336000905af158600e01573d6000803e3d6000fd5b3d6001141558600a015760016000f35b505050565b63ffe73914598160e01b8152836004820152846024820152606060448201528660648201526084810160005b88811015620007c0578088015182820152602001620007a6565b50876101040182016060838a6101040185336000905af158600e01573d6000803e3d6000fd5b3d6001141558600a015760016000f35b825160408401513d6000863e8c8c82606088013350600060045af15059855b818110156200082b576000815260200162000815565b50919c50505050505050565b6322bd64c0598160e01b8152836004820152846024820152600081604483336000905af158600e01573d6000803e3d6000fd5b3d6001141558600a015760016000f35b600081526020620006ef565b8260188101928215620008c2579160200282015b82811115620008c257825182620008b062000837565b5050916020019190600101906200089a565b50620008d092915062000921565b5090565b6303daa959598160e01b8152836004820152602081602483336000905af158600e01573d6000803e3d6000fd5b3d6001141558600a015760016000f35b80516000825293506020620006ef565b6200094b91905b80821115620008d057600080826200093f62000837565b50505060010162000928565b90565b614b22806200095e6000396000f3fe6080604052600436106102675760003560e01c806391b4ded911610144578063bb7df172116100b6578063c8d889f21161007a578063c8d889f214610b42578063dc8fa6c214610b7e578063e3235c9114610bba578063e6d76a7614610bd8578063f852d39314610c14578063fd12167f14610c5057610267565b8063bb7df17214610a49578063bd32aa4414610a85578063c58aaae614610aa3578063c6abb7c714610ac1578063c6c9d82814610b0657610267565b8063aab483d611610108578063aab483d6146108da578063ab49848c14610916578063b02c43d01461096d578063b0c2cb96146109cb578063b1338cc414610a0d578063b8225dec14610a2b57610267565b806391b4ded9146108185780639342c0eb146108365780639cb8a26a14610862578063a3d8829b14610880578063a461fc82146108bc57610267565b80633278c960116101dd578063631e1444116101a1578063631e14441461071657806364e39b871461075b5780636d5ab4a9146107a057806379ba5097146107be57806381b797dc146107dc5780638da5cb5b146107fa57610267565b80633278c960146106455780633be99e6f146106635780634d0387fb146106a857806353a47bb7146106c65780635c975abb146106e457610267565b80631627540c1161022f5780631627540c1461053757806316c38b3c1461057e57806317c70de4146105bc5780631f930115146105da57806320714f88146105e25780632194f3a21461062757610267565b8063022794381461046357806304f3bcec1461047d578063080c279a146104b75780630c928bc2146104d55780630c928f05146104fb575b6001600660008282610277614576565b0192505081906102856145d1565b50505060006006610294614576565b90506208aa8960eb1b6102a5610c6e565b6001600160a01b0316632528f0fe826040516001600160e01b031960e084901b168152600481019190915260240160206040518083038186806102e661461f565b1580156102fb576000806102f861466b565b50505b505a6103056146d6565b5050505050158015610324573d6000803e3d600061032161466b565b50505b505050506040513d60208110156103435760008061034061466b565b50505b8101908080511592506103969150505760405162461bcd60e51b815260206004820152601b6024820152600080516020614a7183398151915260448201526064016040518091039061039361466b565b50505b600060056103a2614576565b906101000a900460ff16156103f15760405162461bcd60e51b815260040180806020018281038252603c815260200180614ac1603c9139604001915050604051809103906103ee61466b565b50505b6103f9610cc2565b50506006610405614576565b81146104605760405162461bcd60e51b815260206004820152601f60248201527f5265656e7472616e637947756172643a207265656e7472616e742063616c6c0060448201526064016040518091039061045d61466b565b50505b50005b61046b61177b565b60405190815260200160405180910390f35b3480156104925760008061048f61466b565b50505b5061049b6119e7565b6040516001600160a01b03909116815260200160405180910390f35b3480156104cc576000806104c961466b565b50505b5061046b611a06565b61046b600480360360208110156104f4576000806104f161466b565b50505b5035611a13565b3480156105105760008061050d61466b565b50505b5061046b600480360360208110156105305760008061052d61466b565b50505b5035611c7c565b34801561054c5760008061054961466b565b50505b5061057c6004803603602081101561056c5760008061056961466b565b50505b50356001600160a01b0316611d4c565b005b3480156105935760008061059061466b565b50505b5061057c600480360360208110156105b3576000806105b061466b565b50505b50351515611dc6565b3480156105d1576000806105ce61466b565b50505b5061046b611e9c565b61046b611ea6565b3480156105f7576000806105f461466b565b50505b5061057c600480360360208110156106175760008061061461466b565b50505b50356001600160a01b03166120a6565b34801561063c5760008061063961466b565b50505b5061049b612185565b34801561065a5760008061065761466b565b50505b5061057c612191565b3480156106785760008061067561466b565b50505b5061057c600480360360208110156106985760008061069561466b565b50505b50356001600160a01b0316612202565b3480156106bd576000806106ba61466b565b50505b5061046b6123cc565b3480156106db576000806106d861466b565b50505b5061049b6123d6565b3480156106f9576000806106f661466b565b50505b506107026123e2565b604051901515815260200160405180910390f35b34801561072b5760008061072861466b565b50505b506107026004803603602081101561074b5760008061074861466b565b50505b50356001600160a01b03166123fb565b3480156107705760008061076d61466b565b50505b5061057c600480360360208110156107905760008061078d61466b565b50505b50356001600160a01b03166125d5565b3480156107b5576000806107b261466b565b50505b5061046b61266c565b3480156107d3576000806107d061466b565b50505b5061057c612676565b3480156107f1576000806107ee61466b565b50505b5061057c6127f9565b34801561080f5760008061080c61466b565b50505b5061049b612b41565b34801561082d5760008061082a61466b565b50505b5061046b612b4c565b61046b600480360360408110156108555760008061085261466b565b50505b5080359060200135612b56565b3480156108775760008061087461466b565b50505b5061057c612fbe565b3480156108955760008061089261466b565b50505b5061046b600480360360208110156108b5576000806108b261466b565b50505b5035613101565b3480156108d1576000806108ce61466b565b50505b5061046b6131c9565b3480156108ef576000806108ec61466b565b50505b5061057c6004803603602081101561090f5760008061090c61466b565b50505b50356131d0565b34801561092b5760008061092861466b565b50505b50610934613313565b604051808261030080838360005b8381101561095a578082015183820152602001610942565b5050505090500191505060405180910390f35b3480156109825760008061097f61466b565b50505b506109a9600480360360208110156109a25760008061099f61466b565b50505b5035613371565b6040516001600160a01b03909216825260208201526040908101905180910390f35b3480156109e0576000806109dd61466b565b50505b5061046b60048036036040811015610a00576000806109fd61466b565b50505b50803590602001356133ae565b348015610a2257600080610a1f61466b565b50505b5061046b613619565b348015610a4057600080610a3d61466b565b50505b50610702613623565b348015610a5e57600080610a5b61466b565b50505b5061057c60048036036020811015610a7e57600080610a7b61466b565b50505b503561362f565b348015610a9a57600080610a9761466b565b50505b5061057c613671565b348015610ab857600080610ab561466b565b50505b5061049b6136f3565b348015610ad657600080610ad361466b565b50505b5061046b60048036036020811015610af657600080610af361466b565b50505b50356001600160a01b03166136ff565b348015610b1b57600080610b1861466b565b50505b5061046b60048036036020811015610b3b57600080610b3861466b565b50505b5035613717565b348015610b5757600080610b5461466b565b50505b5061046b60048036036020811015610b7757600080610b7461466b565b50505b503561373f565b348015610b9357600080610b9061466b565b50505b5061057c60048036036020811015610bb357600080610bb061466b565b50505b5035613813565b348015610bcf57600080610bcc61466b565b50505b5061046b613b4c565b348015610bed57600080610bea61466b565b50505b5061057c60048036036020811015610c0d57600080610c0a61466b565b50505b5035613b51565b348015610c2957600080610c2661466b565b50505b5061046b60048036036020811015610c4957600080610c4661466b565b50505b5035613c37565b348015610c6557600080610c6261466b565b50505b5061046b613d9d565b6000610cbd6c45786368616e6765526174657360981b60405160408082019052601d81527f4d697373696e672045786368616e6765526174657320616464726573730000006020820152613da7565b905090565b60006010610cce614576565b341115610d155760405162461bcd60e51b8152600401808060200182810382526025815260200180614a4c6025913960400191505060405180910390610d1261466b565b50505b600080610dde610d23610c6e565b6001600160a01b031663ac82f6086208aa8960eb1b6040516001600160e01b031960e084901b16815260048101919091526024016020604051808303818680610d6a61461f565b158015610d7f57600080610d7c61466b565b50505b505a610d896146d6565b5050505050158015610da8573d6000803e3d6000610da561466b565b50505b505050506040513d6020811015610dc757600080610dc461466b565b50505b81019080805134935091505063ffffffff613e7216565b9050806000600c610ded614576565b90505b600082118015610e085750600d610e05614576565b81105b156115bc57610e1561478f565b6000828152600b60205260409020604051604080820190529081600082610e3a614576565b6001600160a01b036101009290920a900416815260200160018201610e5d614576565b9052509050600081516001600160a01b03161415610ea357610e906001600c610e84614576565b9063ffffffff613e9c16565b80600c610e9b6145d1565b5050506115b3565b8281602001511115611239576000610ec68483602001519063ffffffff613f0416565b9050604051604080820190528083516001600160a01b0316815260209081018390526000858152600b90915260409020815181600181610f04614576565b816001600160a01b0302191690836001600160a01b0316021790610f266145d1565b505050602082015181600101610f3a6145d1565b5050905050610f5984600e610f4d614576565b9063ffffffff613f0416565b80600e610f646145d1565b50505061102d610f72610c6e565b6001600160a01b031663ac82f6086208aa8960eb1b6040516001600160e01b031960e084901b16815260048101919091526024016020604051808303818680610fb961461f565b158015610fce57600080610fcb61466b565b50505b505a610fd86146d6565b5050505050158015610ff7573d6000803e3d6000610ff461466b565b50505b505050506040513d60208110156110165760008061101361466b565b50505b81019080805188935091505063ffffffff613f6916565b955081516001600160a01b031686156108fc02876040516000604051808303818588886110586147a6565b505050505050935050505061110c576000600a611073614576565b6001600160a01b036101009290920a90041686156108fc02876040516000604051808303818588886110a36147a6565b50505050505093505050501580156110c8573d6000803e3d60006110c561466b565b50505b5081516001600160a01b03167ff2435d3901399daa085f8b58d2409fff9b83ce4ca97c1f144b532f5a08b1c96c8760405190815260200160405180910390a2611165565b8282516001600160a01b03165a61112161485f565b6001600160a01b03167f6d957e9e816107f67cb7118461e3c259e96896f80223c9af2972596c2fdd401c898860405191825260208201526040908101905180910390a45b61116d613f93565b6001600160a01b031663a9059cbb5a61118461485f565b866040516001600160e01b031960e085901b1681526001600160a01b0390921660048301526024820152604401602060405180830381600087806111c661461f565b1580156111db576000806111d861466b565b50505b505a6111e56147a6565b505050505050158015611205573d6000803e3d600061120261466b565b50505b505050506040513d60208110156112245760008061122161466b565b50505b81019080805150600096506115b39350505050565b828160200151116115b3576000828152600b60205260409020600081600181611260614576565b906001600160a01b03021916906112756145d1565b5050600182016000906112866145d1565b505050506112996001600c610e84614576565b80600c6112a46145d1565b5050506112b98160200151600e610f4d614576565b80600e6112c46145d1565b5050506113916112d2610c6e565b6001600160a01b031663ac82f6086208aa8960eb1b6040516001600160e01b031960e084901b1681526004810191909152602401602060405180830381868061131961461f565b15801561132e5760008061132b61466b565b50505b505a6113386146d6565b5050505050158015611357573d6000803e3d600061135461466b565b50505b505050506040513d60208110156113765760008061137361466b565b50505b8101908080519250505060208301519063ffffffff613f6916565b945080516001600160a01b031685156108fc02866040516000604051808303818588886113bc6147a6565b5050505050509350505050611470576000600a6113d7614576565b6001600160a01b036101009290920a90041685156108fc02866040516000604051808303818588886114076147a6565b505050505050935050505015801561142c573d6000803e3d600061142961466b565b50505b5080516001600160a01b03167ff2435d3901399daa085f8b58d2409fff9b83ce4ca97c1f144b532f5a08b1c96c8660405190815260200160405180910390a26114cd565b8181516001600160a01b03165a61148561485f565b6001600160a01b03167f6d957e9e816107f67cb7118461e3c259e96896f80223c9af2972596c2fdd401c88856020015160405191825260208201526040908101905180910390a45b6114d5613f93565b6001600160a01b031663a9059cbb5a6114ec61485f565b83602001516040516001600160e01b031960e085901b1681526001600160a01b03909216600483015260248201526044016020604051808303816000878061153261461f565b1580156115475760008061154461466b565b50505b505a6115516147a6565b505050505050158015611571573d6000803e3d600061156e61466b565b50505b505050506040513d60208110156115905760008061158d61466b565b50505b810190808051506115b0925050506020820151849063ffffffff613f0416565b92505b50600101610df0565b5080156116e1575a6115cc61485f565b6001600160a01b03166108fc61169e6115e3610c6e565b6001600160a01b031663ac82f6086208aa8960eb1b6040516001600160e01b031960e084901b1681526004810191909152602401602060405180830381868061162a61461f565b15801561163f5760008061163c61466b565b50505b505a6116496146d6565b5050505050158015611668573d6000803e3d600061166561466b565b50505b505050506040513d60208110156116875760008061168461466b565b50505b81019080805187935091505063ffffffff613f6916565b90811502906040516000604051808303818588886116ba6147a6565b50505050505093505050501580156116df573d6000803e3d60006116dc61466b565b50505b505b60006116f3838363ffffffff613f0416565b90508015611773577fdb1741ffc6844b04a9284bb6337fb0ccfe543a493ef0ac8e725242201e93d4bd34826040516020810192909252606082015260808082526003908201526208aa8960eb1b60a082015260c06040808301829052600491830191909152631cd554d160e21b60e0830152610100909101905180910390a15b935050505090565b6000620a69cb60eb1b61178c610c6e565b6001600160a01b0316632528f0fe826040516001600160e01b031960e084901b168152600481019190915260240160206040518083038186806117cd61461f565b1580156117e2576000806117df61466b565b50505b505a6117ec6146d6565b505050505015801561180b573d6000803e3d600061180861466b565b50505b505050506040513d602081101561182a5760008061182761466b565b50505b81019080805115925061187d9150505760405162461bcd60e51b815260206004820152601b6024820152600080516020614a7183398151915260448201526064016040518091039061187a61466b565b50505b6208aa8960eb1b61188c610c6e565b6001600160a01b0316632528f0fe826040516001600160e01b031960e084901b168152600481019190915260240160206040518083038186806118cd61461f565b1580156118e2576000806118df61466b565b50505b505a6118ec6146d6565b505050505015801561190b573d6000803e3d600061190861466b565b50505b505050506040513d602081101561192a5760008061192761466b565b50505b81019080805115925061197d9150505760405162461bcd60e51b815260206004820152601b6024820152600080516020614a7183398151915260448201526064016040518091039061197a61466b565b50505b60006005611989614576565b906101000a900460ff16156119d85760405162461bcd60e51b815260040180806020018281038252603c815260200180614ac1603c9139604001915050604051809103906119d561466b565b50505b6119e0613fde565b9250505090565b600060076119f3614576565b906101000a90046001600160a01b031681565b600f611a10614576565b81565b60006208aa8960eb1b611a24610c6e565b6001600160a01b0316632528f0fe826040516001600160e01b031960e084901b16815260048101919091526024016020604051808303818680611a6561461f565b158015611a7a57600080611a7761466b565b50505b505a611a846146d6565b5050505050158015611aa3573d6000803e3d6000611aa061466b565b50505b505050506040513d6020811015611ac257600080611abf61466b565b50505b810190808051159250611b159150505760405162461bcd60e51b815260206004820152601b6024820152600080516020614a71833981519152604482015260640160405180910390611b1261466b565b50505b60006005611b21614576565b906101000a900460ff1615611b705760405162461bcd60e51b815260040180806020018281038252603c815260200180614ac1603c913960400191505060405180910390611b6d61466b565b50505b611b78610c6e565b6001600160a01b031663ac82f6086208aa8960eb1b6040516001600160e01b031960e084901b16815260048101919091526024016020604051808303818680611bbf61461f565b158015611bd457600080611bd161466b565b50505b505a611bde6146d6565b5050505050158015611bfd573d6000803e3d6000611bfa61466b565b50505b505050506040513d6020811015611c1c57600080611c1961466b565b50505b81019080805186149250611c6d9150505760405162461bcd60e51b8152600401808060200182810382526025815260200180614afd6025913960400191505060405180910390611c6a61466b565b50505b611c75610cc2565b9392505050565b6000611d44611c89610c6e565b6001600160a01b031663ac82f6086208aa8960eb1b6040516001600160e01b031960e084901b16815260048101919091526024016020604051808303818680611cd061461f565b158015611ce557600080611ce261466b565b50505b505a611cef6146d6565b5050505050158015611d0e573d6000803e3d6000611d0b61466b565b50505b505050506040513d6020811015611d2d57600080611d2a61466b565b50505b81019080805186935091505063ffffffff613e7216565b90505b919050565b611d54614196565b8060018080611d61614576565b816001600160a01b0302191690836001600160a01b0316021790611d836145d1565b5050507f906a1c6bd7e3091ea86693dd029a831c19049ce77f1dce2ce0bab1cacbabce22816040516001600160a01b03909116815260200160405180910390a150565b611dce614196565b60006005611dda614576565b906101000a900460ff1615158115151415611df457611e99565b806005600181611e02614576565b8160ff02191690831515021790611e176145d1565b5050506005600090611e27614576565b906101000a900460ff1615611e4e575a611e3f6148a5565b806004611e4a6145d1565b5050505b7f8fb6c181ee25a520cf3dd6565006ef91229fcfe5a989566c2a3b8c115570cec560006005611e7b614576565b906101000a900460ff16604051901515815260200160405180910390a15b50565b6002611a10614576565b60006001600660008282611eb8614576565b019250508190611ec66145d1565b50505060006006611ed5614576565b90506208aa8960eb1b611ee6610c6e565b6001600160a01b0316632528f0fe826040516001600160e01b031960e084901b16815260048101919091526024016020604051808303818680611f2761461f565b158015611f3c57600080611f3961466b565b50505b505a611f466146d6565b5050505050158015611f65573d6000803e3d6000611f6261466b565b50505b505050506040513d6020811015611f8457600080611f8161466b565b50505b810190808051159250611fd79150505760405162461bcd60e51b815260206004820152601b6024820152600080516020614a71833981519152604482015260640160405180910390611fd461466b565b50505b60006005611fe3614576565b906101000a900460ff16156120325760405162461bcd60e51b815260040180806020018281038252603c815260200180614ac1603c91396040019150506040518091039061202f61466b565b50505b61203a610cc2565b9250506006612047614576565b81146120a25760405162461bcd60e51b815260206004820152601f60248201527f5265656e7472616e637947756172643a207265656e7472616e742063616c6c0060448201526064016040518091039061209f61466b565b50505b5090565b6120ae614196565b6001600160a01b0381166121115760405162461bcd60e51b815260206004820152601c60248201527f42656e6566696369617279206d757374206e6f74206265207a65726f0000000060448201526064016040518091039061210e61466b565b50505b80600361010081612120614576565b816001600160a01b0302191690836001600160a01b03160217906121426145d1565b5050507fd5da63a0b864b315bc04128dedbc93888c8529ee6cf47ce664dc204339228c53816040516001600160a01b03909116815260200160405180910390a150565b6000600a6119f3614576565b612199614196565b60008060026121a66145d1565b5050506000600360006101000a816121bc614576565b8160ff021916908315150217906121d16145d1565b5050507f6adcc7125002935e0aa31697538ebbd65cfddf20431eb6ecdcfc3e238bfd082c60405160405180910390a1565b61220a614196565b806007600181612218614576565b816001600160a01b0302191690836001600160a01b031602179061223a6145d1565b5060009150505b60098061224c614576565b90508110156123c857600060098281612263614576565b811061226b57fe5b9060005260206000200161227d614576565b90506000600761228b614576565b906101000a90046001600160a01b03166001600160a01b031663dacb2d01826040516001600160e01b031960e084901b1681526004810191909152604060248201819052601760448301527f5265736f6c766572206d697373696e672074617267657400000000000000000060648301526084909101906020905180830381868061231461461f565b1580156123295760008061232661466b565b50505b505a6123336146d6565b5050505050158015612352573d6000803e3d600061234f61466b565b50505b505050506040513d60208110156123715760008061236e61466b565b50505b8101908080516000858152600860205290935060409250905020600181612396614576565b816001600160a01b0302191690836001600160a01b03160217906123b86145d1565b5050600190920191506122419050565b5050565b600e611a10614576565b600060016119f3614576565b600060056123ee614576565b906101000a900460ff1681565b60006001600160a01b038216816007612412614576565b906101000a90046001600160a01b03166001600160a01b03161461243857506000611d47565b60005b600980612446614576565b90508110156125cc5760006009828161245d614576565b811061246557fe5b90600052602060002001612477614576565b6000818152600860205290915060409020600090612493614576565b6001600160a01b036101009290920a900416600060076124b1614576565b906101000a90046001600160a01b03166001600160a01b03166321f8a721836040516001600160e01b031960e084901b1681526004810191909152602401602060405180830381868061250261461f565b1580156125175760008061251461466b565b50505b505a6125216146d6565b5050505050158015612540573d6000803e3d600061253d61466b565b50505b505050506040513d602081101561255f5760008061255c61466b565b50505b8101908080516001600160a01b0316939093141592508291506125b3905057506000818152600860205260408120600090612598614576565b906101000a90046001600160a01b03166001600160a01b0316145b156125c357600092505050611d47565b5060010161243b565b50600192915050565b6125dd614196565b80600a6001816125eb614576565b816001600160a01b0302191690836001600160a01b031602179061260d6145d1565b5050507f4deb077bf9c4bc824cc2c989e01a5e53b0a4ecc44c5039d46abc9ffc88f8a050600a60009061263e614576565b906101000a90046001600160a01b03166040516001600160a01b03909116815260200160405180910390a150565b600c611a10614576565b60006001612682614576565b906101000a90046001600160a01b03166001600160a01b03165a6126a461485f565b6001600160a01b0316146126f25760405162461bcd60e51b815260040180806020018281038252603581526020018061497760359139604001915050604051809103906126ef61466b565b50505b7fb532073b38c83145e3e5135377a08bf9aab55bc0fd7c1179cd4fb995d2a5159c60008061271e614576565b906101000a90046001600160a01b0316600160009061273b614576565b906101000a90046001600160a01b03166040516001600160a01b039283168152911660208201526040908101905180910390a16000600161277a614576565b906101000a90046001600160a01b03166000806101000a8161279a614576565b816001600160a01b0302191690836001600160a01b03160217906127bc6145d1565b5050506000600160006101000a816127d2614576565b816001600160a01b0302191690836001600160a01b03160217906127f46145d1565b505050565b600080600c612806614576565b90505b600d612813614576565b8110156129405761282261478f565b6000828152600b60205260409020604051604080820190529081600082612847614576565b6001600160a01b036101009290920a90041681526020016001820161286a614576565b90525090505a61287861485f565b6001600160a01b031681516001600160a01b03161415612937576128a78160200151849063ffffffff613e9c16565b6000838152600b602052909350604090206000816001816128c6614576565b906001600160a01b03021916906128db6145d1565b5050600182016000906128ec6145d1565b505050508181600001516001600160a01b03167f3aa2b18eace5e5727a4ab525921b9b0a1ca1afdb0f96b599e3ab2d76cb5e7f72836020015160405190815260200160405180910390a35b50600101612809565b5061294f81600e610f4d614576565b80600e61295a6145d1565b5050506129a2601160005a61296d61485f565b6001600160a01b03166001600160a01b03168152602001908152602001600020612995614576565b829063ffffffff613e9c16565b90506000601160005a6129b361485f565b6001600160a01b03166001600160a01b0316815260200190815260200160002081906129dd6145d1565b50505060008111612a285760405162461bcd60e51b81526004018080602001828103825260218152602001806149db6021913960400191505060405180910390612a2561466b565b50505b612a30613f93565b6001600160a01b031663a9059cbb5a612a4761485f565b836040516001600160e01b031960e085901b1681526001600160a01b039092166004830152602482015260440160206040518083038160008780612a8961461f565b158015612a9e57600080612a9b61466b565b50505b505a612aa86147a6565b505050505050158015612ac8573d6000803e3d6000612ac561466b565b50505b505050506040513d6020811015612ae757600080612ae461466b565b50505b810190808051507faf6ec623f558c7b3527ff6c9c09432c7d81a3d38bd2e1eaaee2efe7aac23c28b925050505a612b1c61485f565b826040516001600160a01b03909216825260208201526040908101905180910390a150565b6000806119f3614576565b6004611a10614576565b6000620a69cb60eb1b612b67610c6e565b6001600160a01b0316632528f0fe826040516001600160e01b031960e084901b16815260048101919091526024016020604051808303818680612ba861461f565b158015612bbd57600080612bba61466b565b50505b505a612bc76146d6565b5050505050158015612be6573d6000803e3d6000612be361466b565b50505b505050506040513d6020811015612c0557600080612c0261466b565b50505b810190808051159250612c589150505760405162461bcd60e51b815260206004820152601b6024820152600080516020614a71833981519152604482015260640160405180910390612c5561466b565b50505b6208aa8960eb1b612c67610c6e565b6001600160a01b0316632528f0fe826040516001600160e01b031960e084901b16815260048101919091526024016020604051808303818680612ca861461f565b158015612cbd57600080612cba61466b565b50505b505a612cc76146d6565b5050505050158015612ce6573d6000803e3d6000612ce361466b565b50505b505050506040513d6020811015612d0557600080612d0261466b565b50505b810190808051159250612d589150505760405162461bcd60e51b815260206004820152601b6024820152600080516020614a71833981519152604482015260640160405180910390612d5561466b565b50505b60006005612d64614576565b906101000a900460ff1615612db35760405162461bcd60e51b815260040180806020018281038252603c815260200180614ac1603c913960400191505060405180910390612db061466b565b50505b612dbb610c6e565b6001600160a01b031663ac82f6086208aa8960eb1b6040516001600160e01b031960e084901b16815260048101919091526024016020604051808303818680612e0261461f565b158015612e1757600080612e1461466b565b50505b505a612e216146d6565b5050505050158015612e40573d6000803e3d6000612e3d61466b565b50505b505050506040513d6020811015612e5f57600080612e5c61466b565b50505b81019080805188149250612eb09150505760405162461bcd60e51b815260040180806020018281038252602b81526020018061494c602b913960400191505060405180910390612ead61466b565b50505b612eb8610c6e565b6001600160a01b031663ac82f608620a69cb60eb1b6040516001600160e01b031960e084901b16815260048101919091526024016020604051808303818680612eff61461f565b158015612f1457600080612f1161466b565b50505b505a612f1e6146d6565b5050505050158015612f3d573d6000803e3d6000612f3a61466b565b50505b505050506040513d6020811015612f5c57600080612f5961466b565b50505b81019080805187149250612fad9150505760405162461bcd60e51b815260040180806020018281038252602f8152602001806149ac602f913960400191505060405180910390612faa61466b565b50505b612fb5613fde565b95945050505050565b612fc6614196565b60006003612fd2614576565b906101000a900460ff166130355760405162461bcd60e51b815260206004820152601f60248201527f53656c66204465737472756374206e6f742079657420696e697469617465640060448201526064016040518091039061303261466b565b50505b5a61303e6148a5565b6224ea00600261304c614576565b01106130a75760405162461bcd60e51b815260206004820152601b60248201527f53656c662064657374727563742064656c6179206e6f74206d657400000000006044820152606401604051809103906130a461466b565b50505b7f8a09e1677ced846cb537dc2b172043bd05a1a81ad7e0033a7ef8ba762df990b7600160036130d4614576565b906101000a90046001600160a01b03166040516001600160a01b03909116815260200160405180910390a1565b6000611d4461310e610c6e565b6001600160a01b031663ac82f608620a69cb60eb1b6040516001600160e01b031960e084901b1681526004810191909152602401602060405180830381868061315561461f565b15801561316a5760008061316761466b565b50505b505a6131746146d6565b5050505050158015613193573d6000803e3d600061319061466b565b50505b505050506040513d60208110156131b2576000806131af61466b565b50505b81019080805186935091505063ffffffff613f6916565b6224ea0081565b6131d8614196565b73__$5b1a0139898c1861867d128118276f8f0f$__63907af6c06040518163ffffffff1660e01b8152600401602060405180830381868061321761461f565b15801561322c5760008061322961466b565b50505b505a6132366148eb565b5050505050158015613255573d6000803e3d600061325261466b565b50505b505050506040513d60208110156132745760008061327161466b565b50505b810190808051841192506132c59150505760405162461bcd60e51b8152600401808060200182810382526030815260200180614a9160309139604001915050604051809103906132c261466b565b50505b8080600f6132d16145d1565b5050507fa39eacd162ee82c70b2b030a1bc8fe89adcccc61122fad4821a8772dbcc54267600f6132ff614576565b60405190815260200160405180910390a150565b61331b61492e565b60005b600980613329614576565b90508110156120a2576009818161333e614576565b811061334657fe5b90600052602060002001613358614576565b82826018811061336457fe5b602002015260010161331e565b600b602052806000526040600020905060008161338c614576565b906101000a90046001600160a01b031690806001016133a9614576565b905082565b6000620a69cb60eb1b6133bf610c6e565b6001600160a01b0316632528f0fe826040516001600160e01b031960e084901b1681526004810191909152602401602060405180830381868061340061461f565b1580156134155760008061341261466b565b50505b505a61341f6146d6565b505050505015801561343e573d6000803e3d600061343b61466b565b50505b505050506040513d602081101561345d5760008061345a61466b565b50505b8101908080511592506134b09150505760405162461bcd60e51b815260206004820152601b6024820152600080516020614a718339815191526044820152606401604051809103906134ad61466b565b50505b600060056134bc614576565b906101000a900460ff161561350b5760405162461bcd60e51b815260040180806020018281038252603c815260200180614ac1603c91396040019150506040518091039061350861466b565b50505b613513610c6e565b6001600160a01b031663ac82f608620a69cb60eb1b6040516001600160e01b031960e084901b1681526004810191909152602401602060405180830381868061355a61461f565b15801561356f5760008061356c61466b565b50505b505a6135796146d6565b5050505050158015613598573d6000803e3d600061359561466b565b50505b505050506040513d60208110156135b7576000806135b461466b565b50505b810190808051861492506136089150505760405162461bcd60e51b8152600401808060200182810382526025815260200180614afd602591396040019150506040518091039061360561466b565b50505b61361184614210565b949350505050565b6010611a10614576565b600060036123ee614576565b613637614196565b808060106136436145d1565b5050507fdc2be810a133e01cb21a41082f15b2863d96f9fe79d1f84d7e2d5b810c5c824360106132ff614576565b613679614196565b5a6136826148a5565b80600261368d6145d1565b5050506001600360006101000a816136a3614576565b8160ff021916908315150217906136b86145d1565b5050507fcbd94ca75b8dc45c9d80c77e851670e78843c0d75180cb81db3e2158228fa9a66224ea0060405190815260200160405180910390a1565b600160036119f3614576565b60116020528060005260406000209050611a10614576565b60098181613723614576565b811061372b57fe5b906000526020600020019050611a10614576565b60008061380861374d610c6e565b6001600160a01b031663ac82f6086208aa8960eb1b6040516001600160e01b031960e084901b1681526004810191909152602401602060405180830381868061379461461f565b1580156137a9576000806137a661466b565b50505b505a6137b36146d6565b50505050501580156137d2573d6000803e3d60006137cf61466b565b50505b505050506040513d60208110156137f1576000806137ee61466b565b50505b81019080805187935091505063ffffffff613e7216565b9050611c7581613101565b61381b613f93565b6001600160a01b03166323b872dd5a61383261485f565b5a63996d79a5598160e01b8152602081600483336000905af158600e01573d6000803e3d6000fd5b3d6001141558600a015760016000f35b8051925060005b604081101561388857600082820152602001613871565b505050846040516001600160e01b031960e086901b1681526001600160a01b0393841660048201529190921660248201526044810191909152606401602060405180830381600087806138d961461f565b1580156138ee576000806138eb61466b565b50505b505a6138f86147a6565b505050505050158015613918573d6000803e3d600061391561466b565b50505b505050506040513d60208110156139375760008061393461466b565b50505b81019080805150600f925061394e91506145769050565b811015613a375761398e81601160005a61396661485f565b6001600160a01b03166001600160a01b03168152602001908152602001600020610e84614576565b601160005a61399b61485f565b6001600160a01b03166001600160a01b0316815260200190815260200160002081906139c56145d1565b5050507fbc3a12638d840d60760c64b39c73985a6498cf6eb8176f124995b0e07236cbd25a6139f261485f565b82600f6139fd614576565b60405180846001600160a01b03166001600160a01b03168152602001838152602001828152602001935050505060405180910390a1611e99565b60405180604001604052805a613a4b61485f565b6001600160a01b03168152602001829052600b6000600d613a6a614576565b8152602001908152602001600020815181600181613a86614576565b816001600160a01b0302191690836001600160a01b0316021790613aa86145d1565b505050602082015181600101613abc6145d1565b5050905050600d613acb614576565b5a613ad461485f565b6001600160a01b03167fd9acabe6e09d178728ba5c366661c5be0621b4770f216305b059ec175b37e0b48360405190815260200160405180910390a3613b1f6001600d610e84614576565b80600d613b2a6145d1565b505050613b3b81600e610e84614576565b80600e613b466145d1565b50505050565b601881565b613b59614196565b613b6161445a565b6001600160a01b031663a9059cbb600080613b7a614576565b906101000a90046001600160a01b0316836040516001600160e01b031960e085901b1681526001600160a01b039092166004830152602482015260440160206040518083038160008780613bcc61461f565b158015613be157600080613bde61466b565b50505b505a613beb6147a6565b505050505050158015613c0b573d6000803e3d6000613c0861466b565b50505b505050506040513d6020811015613c2a57600080613c2761466b565b50505b8101908080515050505050565b6000620a69cb60eb1b613c48610c6e565b6001600160a01b0316632528f0fe826040516001600160e01b031960e084901b16815260048101919091526024016020604051808303818680613c8961461f565b158015613c9e57600080613c9b61466b565b50505b505a613ca86146d6565b5050505050158015613cc7573d6000803e3d6000613cc461466b565b50505b505050506040513d6020811015613ce657600080613ce361466b565b50505b810190808051159250613d399150505760405162461bcd60e51b815260206004820152601b6024820152600080516020614a71833981519152604482015260640160405180910390613d3661466b565b50505b60006005613d45614576565b906101000a900460ff1615613d945760405162461bcd60e51b815260040180806020018281038252603c815260200180614ac1603c913960400191505060405180910390613d9161466b565b50505b611c7583614210565b600d611a10614576565b600082815260086020528060408120600090613dc1614576565b6001600160a01b036101009290920a90041690508281613e685760405162461bcd60e51b81526004018080602001828103825283818151815260200191508051906020019080838360005b83811015613e24578082015183820152602001613e0c565b50505050905090810190601f168015613e515780820380516001836020036101000a031916815260200191505b509250505060405180910390613e6561466b565b50505b5090505b92915050565b6000670de0b6b3a7640000613e8d848463ffffffff6144a516565b81613e9457fe5b049392505050565b600082820183811015611c755760405162461bcd60e51b815260206004820152601b60248201527f536166654d6174683a206164646974696f6e206f766572666c6f770000000000604482015260640160405180910390613efb61466b565b50509392505050565b600082821115613f635760405162461bcd60e51b815260206004820152601e60248201527f536166654d6174683a207375627472616374696f6e206f766572666c6f770000604482015260640160405180910390613f6061466b565b50505b50900390565b6000611c7582613f8785670de0b6b3a764000063ffffffff6144a516565b9063ffffffff61450416565b6000610cbd6814de5b9d1a1cd554d160ba1b60405160408082019052601981527f4d697373696e672053796e7468735553442061646472657373000000000000006020820152613da7565b600080613fea3461373f565b90506000600a613ff8614576565b6001600160a01b036101009290920a9004163480156108fc02906040516000604051808303818588886140296147a6565b505050505050935050505015801561404e573d6000803e3d600061404b61466b565b50505b5061405761445a565b6001600160a01b031663a9059cbb5a61406e61485f565b836040516001600160e01b031960e085901b1681526001600160a01b0390921660048301526024820152604401602060405180830381600087806140b061461f565b1580156140c5576000806140c261466b565b50505b505a6140cf6147a6565b5050505050501580156140ef573d6000803e3d60006140ec61466b565b50505b505050506040513d602081101561410e5760008061410b61466b565b50505b810190808051507fdb1741ffc6844b04a9284bb6337fb0ccfe543a493ef0ac8e725242201e93d4bd925034915083905060405160208101929092526060820152608080825260039082018190526208aa8960eb1b60a083015260c0604080840182905290830191909152620a69cb60eb1b60e0830152610100909101905180910390a1905090565b6000806141a1614576565b906101000a90046001600160a01b03166001600160a01b03165a6141c361485f565b6001600160a01b03161461420e5760405162461bcd60e51b815260040180806020018281038252602f8152602001806149fc602f9139604001915050604051809103906123c861466b565b565b60008061421c83613101565b9050614226613f93565b6001600160a01b03166323b872dd5a61423d61485f565b6000600a614249614576565b906101000a90046001600160a01b0316866040516001600160e01b031960e086901b1681526001600160a01b0393841660048201529190921660248201526044810191909152606401602060405180830381600087806142a761461f565b1580156142bc576000806142b961466b565b50505b505a6142c66147a6565b5050505050501580156142e6573d6000803e3d60006142e361466b565b50505b505050506040513d60208110156143055760008061430261466b565b50505b81019080805150614319925061445a915050565b6001600160a01b031663a9059cbb5a61433061485f565b836040516001600160e01b031960e085901b1681526001600160a01b03909216600483015260248201526044016020604051808303816000878061437261461f565b1580156143875760008061438461466b565b50505b505a6143916147a6565b5050505050501580156143b1573d6000803e3d60006143ae61466b565b50505b505050506040513d60208110156143d0576000806143cd61466b565b50505b810190808051507fdb1741ffc6844b04a9284bb6337fb0ccfe543a493ef0ac8e725242201e93d4bd9250859150839050604051602081019290925260608201526080808252600490820152631cd554d160e21b60a082015260c06040808301829052600391830191909152620a69cb60eb1b60e0830152610100909101905180910390a192915050565b6000610cbd680a6f2dce8d0cae8d2f60bb1b60405160408082019052601981527f4d697373696e672053796e7468657469782061646472657373000000000000006020820152613da7565b6000826144b457506000613e6c565b828202828482816144c157fe5b0414611c755760405162461bcd60e51b8152600401808060200182810382526021815260200180614a2b6021913960400191505060405180910390613efb61466b565b60008082116145625760405162461bcd60e51b815260206004820152601a60248201527f536166654d6174683a206469766973696f6e206279207a65726f00000000000060448201526064016040518091039061455f61466b565b50505b600082848161456d57fe5b04949350505050565b6303daa959598160e01b8152836004820152602081602483336000905af158600e01573d6000803e3d6000fd5b3d6001141558600a015760016000f35b8051935060005b60408110156127f4576000828201526020016145ba565b6322bd64c0598160e01b8152836004820152846024820152600081604483336000905af158600e01573d6000803e3d6000fd5b3d6001141558600a015760016000f35b6000815260206145ba565b638435035b598160e01b8152836004820152602081602483336000905af158600e01573d6000803e3d6000fd5b3d6001141558600a015760016000f35b805160008252935060206145ba565b632a2a7adb598160e01b8152600481016020815285602082015260005b868110156146a3578086015182820160400152602001614688565b506020828760640184336000905af158600e01573d6000803e3d6000fd5b3d6001141558600a015760016000f35b505050565b638540661f598160e01b8152836004820152846024820152606060448201528660648201526084810160005b8881101561471a578088015182820152602001614702565b50876101040182016060838a6101040185336000905af158600e01573d6000803e3d6000fd5b3d6001141558600a015760016000f35b825160408401513d6000863e8c8c82606088013350600060045af15059855b81811015614783576000815260200161476f565b50919c50505050505050565b604051604080820190526000808252602082015290565b6385979f76598160e01b8152836004820152846024820152606060448201528760648201526084810160005b898110156147ea5780890151828201526020016147d2565b50886101040182016060838b6101040185336000905af158600e01573d6000803e3d6000fd5b3d6001141558600a015760016000f35b825160408401513d6000863e8d8d82606088013350600060045af15059855b81811015614853576000815260200161483f565b50919d50505050505050565b6373509064598160e01b8152602081600483336000905af158600e01573d6000803e3d6000fd5b3d6001141558600a015760016000f35b805160008252935060206145ba565b63bdbf8c36598160e01b8152602081600483336000905af158600e01573d6000803e3d6000fd5b3d6001141558600a015760016000f35b805160008252935060206145ba565b63ffe73914598160e01b8152836004820152846024820152606060448201528660648201526084810160008881101561471a578088015182820152602001614702565b60405161030080820160405260189082908038833950919291505056fe47756172616e74656564206574686572207261746520776f756c64206e6f74206265207265636569766564596f75206d757374206265206e6f6d696e61746564206265666f726520796f752063616e20616363657074206f776e65727368697047756172616e746565642073796e746865746978207261746520776f756c64206e6f74206265207265636569766564596f752068617665206e6f206465706f7369747320746f2077697468647261772e4f6e6c792074686520636f6e7472616374206f776e6572206d617920706572666f726d207468697320616374696f6e536166654d6174683a206d756c7469706c69636174696f6e206f766572666c6f7745544820616d6f756e742061626f7665206d61784574685075726368617365206c696d69745261746520696e76616c6964206f72206e6f7420612073796e746800000000004d696e696d756d206465706f73697420616d6f756e74206d7573742062652067726561746572207468616e20554e49545468697320616374696f6e2063616e6e6f7420626520706572666f726d6564207768696c652074686520636f6e74726163742069732070617573656447756172616e74656564207261746520776f756c64206e6f74206265207265636569766564",
			"opcodes": "PUSH1 0x80 PUSH1 0x40 MSTORE PUSH20 0x0 PUSH4 0x907AF6C0 PUSH1 0x40 MLOAD DUP2 PUSH4 0xFFFFFFFF AND PUSH1 0xE0 SHL DUP2 MSTORE PUSH1 0x4 ADD PUSH1 0x20 PUSH1 0x40 MLOAD DUP1 DUP4 SUB DUP2 DUP7 DUP1 PUSH3 0x45 PUSH3 0x6AB JUMP JUMPDEST ISZERO DUP1 ISZERO PUSH3 0x5D JUMPI PUSH1 0x0 DUP1 PUSH3 0x5A PUSH3 0x70D JUMP JUMPDEST POP POP JUMPDEST POP GAS PUSH3 0x69 PUSH3 0x77A JUMP JUMPDEST POP POP POP POP POP ISZERO DUP1 ISZERO PUSH3 0x8B JUMPI RETURNDATASIZE PUSH1 0x0 DUP1 RETURNDATACOPY RETURNDATASIZE PUSH1 0x0 PUSH3 0x88 PUSH3 0x70D JUMP JUMPDEST POP POP JUMPDEST POP POP POP POP PUSH1 0x40 MLOAD RETURNDATASIZE PUSH1 0x20 DUP2 LT ISZERO PUSH3 0xAD JUMPI PUSH1 0x0 DUP1 PUSH3 0xAA PUSH3 0x70D JUMP JUMPDEST POP POP JUMPDEST DUP2 ADD SWAP1 DUP1 DUP1 MLOAD PUSH1 0x32 MUL SWAP3 POP PUSH1 0xF SWAP2 POP PUSH3 0xC8 SWAP1 POP PUSH3 0x837 JUMP JUMPDEST POP POP PUSH20 0x0 PUSH4 0x907AF6C0 PUSH1 0x40 MLOAD DUP2 PUSH4 0xFFFFFFFF AND PUSH1 0xE0 SHL DUP2 MSTORE PUSH1 0x4 ADD PUSH1 0x20 PUSH1 0x40 MLOAD DUP1 DUP4 SUB DUP2 DUP7 DUP1 PUSH3 0x10B PUSH3 0x6AB JUMP JUMPDEST ISZERO DUP1 ISZERO PUSH3 0x123 JUMPI PUSH1 0x0 DUP1 PUSH3 0x120 PUSH3 0x70D JUMP JUMPDEST POP POP JUMPDEST POP GAS PUSH3 0x12F PUSH3 0x77A JUMP JUMPDEST POP POP POP POP POP ISZERO DUP1 ISZERO PUSH3 0x151 JUMPI RETURNDATASIZE PUSH1 0x0 DUP1 RETURNDATACOPY RETURNDATASIZE PUSH1 0x0 PUSH3 0x14E PUSH3 0x70D JUMP JUMPDEST POP POP JUMPDEST POP POP POP POP PUSH1 0x40 MLOAD RETURNDATASIZE PUSH1 0x20 DUP2 LT ISZERO PUSH3 0x173 JUMPI PUSH1 0x0 DUP1 PUSH3 0x170 PUSH3 0x70D JUMP JUMPDEST POP POP JUMPDEST DUP2 ADD SWAP1 DUP1 DUP1 MLOAD PUSH2 0x1F4 MUL SWAP3 POP PUSH1 0x10 SWAP2 POP PUSH3 0x18F SWAP1 POP PUSH3 0x837 JUMP JUMPDEST POP POP PUSH1 0x40 MLOAD PUSH1 0x60 DUP2 ADD PUSH1 0x40 SWAP1 DUP2 MSTORE PUSH9 0x14DE5B9D1A1CD554D1 PUSH1 0xBA SHL DUP3 MSTORE PUSH13 0x45786368616E67655261746573 PUSH1 0x98 SHL PUSH1 0x20 DUP4 ADD MSTORE PUSH9 0xA6F2DCE8D0CAE8D2F PUSH1 0xBB SHL SWAP1 DUP3 ADD MSTORE PUSH3 0x1E3 SWAP1 PUSH1 0x12 SWAP1 PUSH1 0x3 PUSH3 0x886 JUMP JUMPDEST POP CALLVALUE DUP1 ISZERO PUSH3 0x1FC JUMPI PUSH1 0x0 DUP1 PUSH3 0x1F9 PUSH3 0x70D JUMP JUMPDEST POP POP JUMPDEST POP PUSH1 0x40 MLOAD PUSH3 0x5480 CODESIZE SUB DUP1 PUSH3 0x5480 DUP4 CODECOPY DUP2 DUP2 ADD PUSH1 0x40 MSTORE PUSH1 0x60 DUP2 LT ISZERO PUSH3 0x22D JUMPI PUSH1 0x0 DUP1 PUSH3 0x22A PUSH3 0x70D JUMP JUMPDEST POP POP JUMPDEST DUP2 ADD SWAP1 DUP1 DUP1 MLOAD SWAP3 SWAP2 SWAP1 PUSH1 0x20 ADD DUP1 MLOAD SWAP3 SWAP2 SWAP1 PUSH1 0x20 ADD DUP1 MLOAD SWAP3 POP DUP3 SWAP2 POP PUSH1 0x12 SWAP1 POP PUSH1 0x18 PUSH2 0x300 PUSH1 0x40 MLOAD SWAP1 DUP2 ADD PUSH1 0x40 MSTORE SWAP2 SWAP1 PUSH2 0x300 DUP4 ADD DUP3 DUP5 JUMPDEST DUP2 PUSH3 0x26F PUSH3 0x8D4 JUMP JUMPDEST DUP2 MSTORE PUSH1 0x20 ADD SWAP1 PUSH1 0x1 ADD SWAP1 DUP1 DUP4 GT PUSH3 0x264 JUMPI POP DUP9 SWAP4 POP POP POP POP PUSH1 0x1 PUSH1 0x1 PUSH1 0xA0 SHL SUB DUP2 AND PUSH3 0x2EE JUMPI PUSH1 0x40 MLOAD PUSH3 0x461BCD PUSH1 0xE5 SHL DUP2 MSTORE PUSH1 0x20 PUSH1 0x4 DUP3 ADD MSTORE PUSH1 0x19 PUSH1 0x24 DUP3 ADD MSTORE PUSH32 0x4F776E657220616464726573732063616E6E6F74206265203000000000000000 PUSH1 0x44 DUP3 ADD MSTORE PUSH1 0x64 ADD PUSH1 0x40 MLOAD DUP1 SWAP2 SUB SWAP1 PUSH3 0x2EB PUSH3 0x70D JUMP JUMPDEST POP POP JUMPDEST DUP1 PUSH1 0x0 PUSH1 0x1 DUP2 PUSH3 0x2FE PUSH3 0x8D4 JUMP JUMPDEST DUP2 PUSH1 0x1 PUSH1 0x1 PUSH1 0xA0 SHL SUB MUL NOT AND SWAP1 DUP4 PUSH1 0x1 PUSH1 0x1 PUSH1 0xA0 SHL SUB AND MUL OR SWAP1 PUSH3 0x322 PUSH3 0x837 JUMP JUMPDEST POP POP POP PUSH32 0xB532073B38C83145E3E5135377A08BF9AAB55BC0FD7C1179CD4FB995D2A5159C PUSH1 0x0 DUP3 PUSH1 0x40 MLOAD PUSH1 0x1 PUSH1 0x1 PUSH1 0xA0 SHL SUB SWAP3 DUP4 AND DUP2 MSTORE SWAP2 AND PUSH1 0x20 DUP3 ADD MSTORE PUSH1 0x40 SWAP1 DUP2 ADD SWAP1 MLOAD DUP1 SWAP2 SUB SWAP1 LOG1 POP PUSH1 0x0 DUP1 DUP1 PUSH3 0x37B PUSH3 0x8D4 JUMP JUMPDEST SWAP1 PUSH2 0x100 EXP SWAP1 DIV PUSH1 0x1 PUSH1 0x1 PUSH1 0xA0 SHL SUB AND PUSH1 0x1 PUSH1 0x1 PUSH1 0xA0 SHL SUB AND EQ ISZERO PUSH3 0x3E6 JUMPI PUSH1 0x40 MLOAD PUSH3 0x461BCD PUSH1 0xE5 SHL DUP2 MSTORE PUSH1 0x20 PUSH1 0x4 DUP3 ADD MSTORE PUSH1 0x11 PUSH1 0x24 DUP3 ADD MSTORE PUSH17 0x13DDDB995C881B5D5CDD081899481CD95D PUSH1 0x7A SHL PUSH1 0x44 DUP3 ADD MSTORE PUSH1 0x64 ADD PUSH1 0x40 MLOAD DUP1 SWAP2 SUB SWAP1 PUSH3 0x3E3 PUSH3 0x70D JUMP JUMPDEST POP POP JUMPDEST PUSH1 0x0 DUP1 PUSH3 0x3F3 PUSH3 0x8D4 JUMP JUMPDEST SWAP1 PUSH2 0x100 EXP SWAP1 DIV PUSH1 0x1 PUSH1 0x1 PUSH1 0xA0 SHL SUB AND PUSH1 0x3 PUSH1 0x1 PUSH2 0x100 EXP DUP2 PUSH3 0x416 PUSH3 0x8D4 JUMP JUMPDEST DUP2 PUSH1 0x1 PUSH1 0x1 PUSH1 0xA0 SHL SUB MUL NOT AND SWAP1 DUP4 PUSH1 0x1 PUSH1 0x1 PUSH1 0xA0 SHL SUB AND MUL OR SWAP1 PUSH3 0x43A PUSH3 0x837 JUMP JUMPDEST POP POP POP PUSH32 0xD5DA63A0B864B315BC04128DEDBC93888C8529EE6CF47CE664DC204339228C53 PUSH1 0x0 DUP1 SWAP1 PUSH3 0x46C PUSH3 0x8D4 JUMP JUMPDEST SWAP1 PUSH2 0x100 EXP SWAP1 DIV PUSH1 0x1 PUSH1 0x1 PUSH1 0xA0 SHL SUB AND PUSH1 0x40 MLOAD PUSH1 0x1 PUSH1 0x1 PUSH1 0xA0 SHL SUB SWAP1 SWAP2 AND DUP2 MSTORE PUSH1 0x20 ADD PUSH1 0x40 MLOAD DUP1 SWAP2 SUB SWAP1 LOG1 PUSH1 0x0 DUP1 DUP1 PUSH3 0x4A5 PUSH3 0x8D4 JUMP JUMPDEST SWAP1 PUSH2 0x100 EXP SWAP1 DIV PUSH1 0x1 PUSH1 0x1 PUSH1 0xA0 SHL SUB AND PUSH1 0x1 PUSH1 0x1 PUSH1 0xA0 SHL SUB AND EQ ISZERO PUSH3 0x510 JUMPI PUSH1 0x40 MLOAD PUSH3 0x461BCD PUSH1 0xE5 SHL DUP2 MSTORE PUSH1 0x20 PUSH1 0x4 DUP3 ADD MSTORE PUSH1 0x11 PUSH1 0x24 DUP3 ADD MSTORE PUSH17 0x13DDDB995C881B5D5CDD081899481CD95D PUSH1 0x7A SHL PUSH1 0x44 DUP3 ADD MSTORE PUSH1 0x64 ADD PUSH1 0x40 MLOAD DUP1 SWAP2 SUB SWAP1 PUSH3 0x50D PUSH3 0x70D JUMP JUMPDEST POP POP JUMPDEST PUSH1 0x1 DUP1 PUSH1 0x6 PUSH3 0x51F PUSH3 0x837 JUMP JUMPDEST POP PUSH1 0x0 SWAP2 POP DUP2 SWAP1 POP DUP1 PUSH3 0x532 PUSH3 0x8D4 JUMP JUMPDEST SWAP1 PUSH2 0x100 EXP SWAP1 DIV PUSH1 0x1 PUSH1 0x1 PUSH1 0xA0 SHL SUB AND PUSH1 0x1 PUSH1 0x1 PUSH1 0xA0 SHL SUB AND EQ ISZERO PUSH3 0x59D JUMPI PUSH1 0x40 MLOAD PUSH3 0x461BCD PUSH1 0xE5 SHL DUP2 MSTORE PUSH1 0x20 PUSH1 0x4 DUP3 ADD MSTORE PUSH1 0x11 PUSH1 0x24 DUP3 ADD MSTORE PUSH17 0x13DDDB995C881B5D5CDD081899481CD95D PUSH1 0x7A SHL PUSH1 0x44 DUP3 ADD MSTORE PUSH1 0x64 ADD PUSH1 0x40 MLOAD DUP1 SWAP2 SUB SWAP1 PUSH3 0x59A PUSH3 0x70D JUMP JUMPDEST POP POP JUMPDEST PUSH1 0x0 JUMPDEST PUSH1 0x18 DUP2 LT ISZERO PUSH3 0x62D JUMPI PUSH1 0x0 DUP3 DUP3 PUSH1 0x18 DUP2 LT PUSH3 0x5B9 JUMPI INVALID JUMPDEST PUSH1 0x20 MUL ADD MLOAD EQ PUSH3 0x61E JUMPI PUSH1 0x9 DUP3 DUP3 PUSH1 0x18 DUP2 LT PUSH3 0x5D3 JUMPI INVALID JUMPDEST PUSH1 0x20 MUL ADD MLOAD SWAP1 DUP1 PUSH1 0x1 DUP2 PUSH3 0x5E7 PUSH3 0x8D4 JUMP JUMPDEST ADD DUP1 DUP3 PUSH3 0x5F4 PUSH3 0x837 JUMP JUMPDEST POP POP PUSH1 0x0 SWAP3 DUP4 MSTORE SWAP2 PUSH1 0x0 NOT DUP4 ADD SWAP2 POP PUSH1 0x20 SWAP1 KECCAK256 SWAP2 SWAP3 SWAP2 ADD PUSH3 0x615 PUSH3 0x837 JUMP JUMPDEST POP POP POP PUSH3 0x624 JUMP JUMPDEST PUSH3 0x62D JUMP JUMPDEST PUSH1 0x1 ADD PUSH3 0x5A0 JUMP JUMPDEST POP DUP2 PUSH1 0x7 PUSH1 0x1 DUP2 PUSH3 0x63E PUSH3 0x8D4 JUMP JUMPDEST DUP2 PUSH1 0x1 PUSH1 0x1 PUSH1 0xA0 SHL SUB MUL NOT AND SWAP1 DUP4 PUSH1 0x1 PUSH1 0x1 PUSH1 0xA0 SHL SUB AND MUL OR SWAP1 PUSH3 0x662 PUSH3 0x837 JUMP JUMPDEST POP POP POP POP POP DUP2 PUSH1 0xA PUSH1 0x0 PUSH2 0x100 EXP DUP2 PUSH3 0x67B PUSH3 0x8D4 JUMP JUMPDEST DUP2 PUSH1 0x1 PUSH1 0x1 PUSH1 0xA0 SHL SUB MUL NOT AND SWAP1 DUP4 PUSH1 0x1 PUSH1 0x1 PUSH1 0xA0 SHL SUB AND MUL OR SWAP1 PUSH3 0x69F PUSH3 0x837 JUMP JUMPDEST POP POP POP POP POP POP PUSH3 0x94E JUMP JUMPDEST PUSH4 0x8435035B MSIZE DUP2 PUSH1 0xE0 SHL DUP2 MSTORE DUP4 PUSH1 0x4 DUP3 ADD MSTORE PUSH1 0x20 DUP2 PUSH1 0x24 DUP4 CALLER PUSH1 0x0 SWAP1 GAS CALL PC PUSH1 0xE ADD JUMPI RETURNDATASIZE PUSH1 0x0 DUP1 RETURNDATACOPY RETURNDATASIZE PUSH1 0x0 REVERT JUMPDEST RETURNDATASIZE PUSH1 0x1 EQ ISZERO PC PUSH1 0xA ADD JUMPI PUSH1 0x1 PUSH1 0x0 RETURN JUMPDEST DUP1 MLOAD SWAP4 POP PUSH1 0x0 JUMPDEST PUSH1 0x40 DUP2 LT ISZERO PUSH3 0x708 JUMPI PUSH1 0x0 DUP3 DUP3 ADD MSTORE PUSH1 0x20 ADD PUSH3 0x6EF JUMP JUMPDEST POP POP POP JUMP JUMPDEST PUSH4 0x2A2A7ADB MSIZE DUP2 PUSH1 0xE0 SHL DUP2 MSTORE PUSH1 0x4 DUP2 ADD PUSH1 0x20 DUP2 MSTORE DUP6 PUSH1 0x20 DUP3 ADD MSTORE PUSH1 0x0 JUMPDEST DUP7 DUP2 LT ISZERO PUSH3 0x747 JUMPI DUP1 DUP7 ADD MLOAD DUP3 DUP3 ADD PUSH1 0x40 ADD MSTORE PUSH1 0x20 ADD PUSH3 0x72A JUMP JUMPDEST POP PUSH1 0x20 DUP3 DUP8 PUSH1 0x64 ADD DUP5 CALLER PUSH1 0x0 SWAP1 GAS CALL PC PUSH1 0xE ADD JUMPI RETURNDATASIZE PUSH1 0x0 DUP1 RETURNDATACOPY RETURNDATASIZE PUSH1 0x0 REVERT JUMPDEST RETURNDATASIZE PUSH1 0x1 EQ ISZERO PC PUSH1 0xA ADD JUMPI PUSH1 0x1 PUSH1 0x0 RETURN JUMPDEST POP POP POP JUMP JUMPDEST PUSH4 0xFFE73914 MSIZE DUP2 PUSH1 0xE0 SHL DUP2 MSTORE DUP4 PUSH1 0x4 DUP3 ADD MSTORE DUP5 PUSH1 0x24 DUP3 ADD MSTORE PUSH1 0x60 PUSH1 0x44 DUP3 ADD MSTORE DUP7 PUSH1 0x64 DUP3 ADD MSTORE PUSH1 0x84 DUP2 ADD PUSH1 0x0 JUMPDEST DUP9 DUP2 LT ISZERO PUSH3 0x7C0 JUMPI DUP1 DUP9 ADD MLOAD DUP3 DUP3 ADD MSTORE PUSH1 0x20 ADD PUSH3 0x7A6 JUMP JUMPDEST POP DUP8 PUSH2 0x104 ADD DUP3 ADD PUSH1 0x60 DUP4 DUP11 PUSH2 0x104 ADD DUP6 CALLER PUSH1 0x0 SWAP1 GAS CALL PC PUSH1 0xE ADD JUMPI RETURNDATASIZE PUSH1 0x0 DUP1 RETURNDATACOPY RETURNDATASIZE PUSH1 0x0 REVERT JUMPDEST RETURNDATASIZE PUSH1 0x1 EQ ISZERO PC PUSH1 0xA ADD JUMPI PUSH1 0x1 PUSH1 0x0 RETURN JUMPDEST DUP3 MLOAD PUSH1 0x40 DUP5 ADD MLOAD RETURNDATASIZE PUSH1 0x0 DUP7 RETURNDATACOPY DUP13 DUP13 DUP3 PUSH1 0x60 DUP9 ADD CALLER POP PUSH1 0x0 PUSH1 0x4 GAS CALL POP MSIZE DUP6 JUMPDEST DUP2 DUP2 LT ISZERO PUSH3 0x82B JUMPI PUSH1 0x0 DUP2 MSTORE PUSH1 0x20 ADD PUSH3 0x815 JUMP JUMPDEST POP SWAP2 SWAP13 POP POP POP POP POP POP POP JUMP JUMPDEST PUSH4 0x22BD64C0 MSIZE DUP2 PUSH1 0xE0 SHL DUP2 MSTORE DUP4 PUSH1 0x4 DUP3 ADD MSTORE DUP5 PUSH1 0x24 DUP3 ADD MSTORE PUSH1 0x0 DUP2 PUSH1 0x44 DUP4 CALLER PUSH1 0x0 SWAP1 GAS CALL PC PUSH1 0xE ADD JUMPI RETURNDATASIZE PUSH1 0x0 DUP1 RETURNDATACOPY RETURNDATASIZE PUSH1 0x0 REVERT JUMPDEST RETURNDATASIZE PUSH1 0x1 EQ ISZERO PC PUSH1 0xA ADD JUMPI PUSH1 0x1 PUSH1 0x0 RETURN JUMPDEST PUSH1 0x0 DUP2 MSTORE PUSH1 0x20 PUSH3 0x6EF JUMP JUMPDEST DUP3 PUSH1 0x18 DUP2 ADD SWAP3 DUP3 ISZERO PUSH3 0x8C2 JUMPI SWAP2 PUSH1 0x20 MUL DUP3 ADD JUMPDEST DUP3 DUP2 GT ISZERO PUSH3 0x8C2 JUMPI DUP3 MLOAD DUP3 PUSH3 0x8B0 PUSH3 0x837 JUMP JUMPDEST POP POP SWAP2 PUSH1 0x20 ADD SWAP2 SWAP1 PUSH1 0x1 ADD SWAP1 PUSH3 0x89A JUMP JUMPDEST POP PUSH3 0x8D0 SWAP3 SWAP2 POP PUSH3 0x921 JUMP JUMPDEST POP SWAP1 JUMP JUMPDEST PUSH4 0x3DAA959 MSIZE DUP2 PUSH1 0xE0 SHL DUP2 MSTORE DUP4 PUSH1 0x4 DUP3 ADD MSTORE PUSH1 0x20 DUP2 PUSH1 0x24 DUP4 CALLER PUSH1 0x0 SWAP1 GAS CALL PC PUSH1 0xE ADD JUMPI RETURNDATASIZE PUSH1 0x0 DUP1 RETURNDATACOPY RETURNDATASIZE PUSH1 0x0 REVERT JUMPDEST RETURNDATASIZE PUSH1 0x1 EQ ISZERO PC PUSH1 0xA ADD JUMPI PUSH1 0x1 PUSH1 0x0 RETURN JUMPDEST DUP1 MLOAD PUSH1 0x0 DUP3 MSTORE SWAP4 POP PUSH1 0x20 PUSH3 0x6EF JUMP JUMPDEST PUSH3 0x94B SWAP2 SWAP1 JUMPDEST DUP1 DUP3 GT ISZERO PUSH3 0x8D0 JUMPI PUSH1 0x0 DUP1 DUP3 PUSH3 0x93F PUSH3 0x837 JUMP JUMPDEST POP POP POP PUSH1 0x1 ADD PUSH3 0x928 JUMP JUMPDEST SWAP1 JUMP JUMPDEST PUSH2 0x4B22 DUP1 PUSH3 0x95E PUSH1 0x0 CODECOPY PUSH1 0x0 RETURN INVALID PUSH1 0x80 PUSH1 0x40 MSTORE PUSH1 0x4 CALLDATASIZE LT PUSH2 0x267 JUMPI PUSH1 0x0 CALLDATALOAD PUSH1 0xE0 SHR DUP1 PUSH4 0x91B4DED9 GT PUSH2 0x144 JUMPI DUP1 PUSH4 0xBB7DF172 GT PUSH2 0xB6 JUMPI DUP1 PUSH4 0xC8D889F2 GT PUSH2 0x7A JUMPI DUP1 PUSH4 0xC8D889F2 EQ PUSH2 0xB42 JUMPI DUP1 PUSH4 0xDC8FA6C2 EQ PUSH2 0xB7E JUMPI DUP1 PUSH4 0xE3235C91 EQ PUSH2 0xBBA JUMPI DUP1 PUSH4 0xE6D76A76 EQ PUSH2 0xBD8 JUMPI DUP1 PUSH4 0xF852D393 EQ PUSH2 0xC14 JUMPI DUP1 PUSH4 0xFD12167F EQ PUSH2 0xC50 JUMPI PUSH2 0x267 JUMP JUMPDEST DUP1 PUSH4 0xBB7DF172 EQ PUSH2 0xA49 JUMPI DUP1 PUSH4 0xBD32AA44 EQ PUSH2 0xA85 JUMPI DUP1 PUSH4 0xC58AAAE6 EQ PUSH2 0xAA3 JUMPI DUP1 PUSH4 0xC6ABB7C7 EQ PUSH2 0xAC1 JUMPI DUP1 PUSH4 0xC6C9D828 EQ PUSH2 0xB06 JUMPI PUSH2 0x267 JUMP JUMPDEST DUP1 PUSH4 0xAAB483D6 GT PUSH2 0x108 JUMPI DUP1 PUSH4 0xAAB483D6 EQ PUSH2 0x8DA JUMPI DUP1 PUSH4 0xAB49848C EQ PUSH2 0x916 JUMPI DUP1 PUSH4 0xB02C43D0 EQ PUSH2 0x96D JUMPI DUP1 PUSH4 0xB0C2CB96 EQ PUSH2 0x9CB JUMPI DUP1 PUSH4 0xB1338CC4 EQ PUSH2 0xA0D JUMPI DUP1 PUSH4 0xB8225DEC EQ PUSH2 0xA2B JUMPI PUSH2 0x267 JUMP JUMPDEST DUP1 PUSH4 0x91B4DED9 EQ PUSH2 0x818 JUMPI DUP1 PUSH4 0x9342C0EB EQ PUSH2 0x836 JUMPI DUP1 PUSH4 0x9CB8A26A EQ PUSH2 0x862 JUMPI DUP1 PUSH4 0xA3D8829B EQ PUSH2 0x880 JUMPI DUP1 PUSH4 0xA461FC82 EQ PUSH2 0x8BC JUMPI PUSH2 0x267 JUMP JUMPDEST DUP1 PUSH4 0x3278C960 GT PUSH2 0x1DD JUMPI DUP1 PUSH4 0x631E1444 GT PUSH2 0x1A1 JUMPI DUP1 PUSH4 0x631E1444 EQ PUSH2 0x716 JUMPI DUP1 PUSH4 0x64E39B87 EQ PUSH2 0x75B JUMPI DUP1 PUSH4 0x6D5AB4A9 EQ PUSH2 0x7A0 JUMPI DUP1 PUSH4 0x79BA5097 EQ PUSH2 0x7BE JUMPI DUP1 PUSH4 0x81B797DC EQ PUSH2 0x7DC JUMPI DUP1 PUSH4 0x8DA5CB5B EQ PUSH2 0x7FA JUMPI PUSH2 0x267 JUMP JUMPDEST DUP1 PUSH4 0x3278C960 EQ PUSH2 0x645 JUMPI DUP1 PUSH4 0x3BE99E6F EQ PUSH2 0x663 JUMPI DUP1 PUSH4 0x4D0387FB EQ PUSH2 0x6A8 JUMPI DUP1 PUSH4 0x53A47BB7 EQ PUSH2 0x6C6 JUMPI DUP1 PUSH4 0x5C975ABB EQ PUSH2 0x6E4 JUMPI PUSH2 0x267 JUMP JUMPDEST DUP1 PUSH4 0x1627540C GT PUSH2 0x22F JUMPI DUP1 PUSH4 0x1627540C EQ PUSH2 0x537 JUMPI DUP1 PUSH4 0x16C38B3C EQ PUSH2 0x57E JUMPI DUP1 PUSH4 0x17C70DE4 EQ PUSH2 0x5BC JUMPI DUP1 PUSH4 0x1F930115 EQ PUSH2 0x5DA JUMPI DUP1 PUSH4 0x20714F88 EQ PUSH2 0x5E2 JUMPI DUP1 PUSH4 0x2194F3A2 EQ PUSH2 0x627 JUMPI PUSH2 0x267 JUMP JUMPDEST DUP1 PUSH4 0x2279438 EQ PUSH2 0x463 JUMPI DUP1 PUSH4 0x4F3BCEC EQ PUSH2 0x47D JUMPI DUP1 PUSH4 0x80C279A EQ PUSH2 0x4B7 JUMPI DUP1 PUSH4 0xC928BC2 EQ PUSH2 0x4D5 JUMPI DUP1 PUSH4 0xC928F05 EQ PUSH2 0x4FB JUMPI JUMPDEST PUSH1 0x1 PUSH1 0x6 PUSH1 0x0 DUP3 DUP3 PUSH2 0x277 PUSH2 0x4576 JUMP JUMPDEST ADD SWAP3 POP POP DUP2 SWAP1 PUSH2 0x285 PUSH2 0x45D1 JUMP JUMPDEST POP POP POP PUSH1 0x0 PUSH1 0x6 PUSH2 0x294 PUSH2 0x4576 JUMP JUMPDEST SWAP1 POP PUSH3 0x8AA89 PUSH1 0xEB SHL PUSH2 0x2A5 PUSH2 0xC6E JUMP JUMPDEST PUSH1 0x1 PUSH1 0x1 PUSH1 0xA0 SHL SUB AND PUSH4 0x2528F0FE DUP3 PUSH1 0x40 MLOAD PUSH1 0x1 PUSH1 0x1 PUSH1 0xE0 SHL SUB NOT PUSH1 0xE0 DUP5 SWAP1 SHL AND DUP2 MSTORE PUSH1 0x4 DUP2 ADD SWAP2 SWAP1 SWAP2 MSTORE PUSH1 0x24 ADD PUSH1 0x20 PUSH1 0x40 MLOAD DUP1 DUP4 SUB DUP2 DUP7 DUP1 PUSH2 0x2E6 PUSH2 0x461F JUMP JUMPDEST ISZERO DUP1 ISZERO PUSH2 0x2FB JUMPI PUSH1 0x0 DUP1 PUSH2 0x2F8 PUSH2 0x466B JUMP JUMPDEST POP POP JUMPDEST POP GAS PUSH2 0x305 PUSH2 0x46D6 JUMP JUMPDEST POP POP POP POP POP ISZERO DUP1 ISZERO PUSH2 0x324 JUMPI RETURNDATASIZE PUSH1 0x0 DUP1 RETURNDATACOPY RETURNDATASIZE PUSH1 0x0 PUSH2 0x321 PUSH2 0x466B JUMP JUMPDEST POP POP JUMPDEST POP POP POP POP PUSH1 0x40 MLOAD RETURNDATASIZE PUSH1 0x20 DUP2 LT ISZERO PUSH2 0x343 JUMPI PUSH1 0x0 DUP1 PUSH2 0x340 PUSH2 0x466B JUMP JUMPDEST POP POP JUMPDEST DUP2 ADD SWAP1 DUP1 DUP1 MLOAD ISZERO SWAP3 POP PUSH2 0x396 SWAP2 POP POP JUMPI PUSH1 0x40 MLOAD PUSH3 0x461BCD PUSH1 0xE5 SHL DUP2 MSTORE PUSH1 0x20 PUSH1 0x4 DUP3 ADD MSTORE PUSH1 0x1B PUSH1 0x24 DUP3 ADD MSTORE PUSH1 0x0 DUP1 MLOAD PUSH1 0x20 PUSH2 0x4A71 DUP4 CODECOPY DUP2 MLOAD SWAP2 MSTORE PUSH1 0x44 DUP3 ADD MSTORE PUSH1 0x64 ADD PUSH1 0x40 MLOAD DUP1 SWAP2 SUB SWAP1 PUSH2 0x393 PUSH2 0x466B JUMP JUMPDEST POP POP JUMPDEST PUSH1 0x0 PUSH1 0x5 PUSH2 0x3A2 PUSH2 0x4576 JUMP JUMPDEST SWAP1 PUSH2 0x100 EXP SWAP1 DIV PUSH1 0xFF AND ISZERO PUSH2 0x3F1 JUMPI PUSH1 0x40 MLOAD PUSH3 0x461BCD PUSH1 0xE5 SHL DUP2 MSTORE PUSH1 0x4 ADD DUP1 DUP1 PUSH1 0x20 ADD DUP3 DUP2 SUB DUP3 MSTORE PUSH1 0x3C DUP2 MSTORE PUSH1 0x20 ADD DUP1 PUSH2 0x4AC1 PUSH1 0x3C SWAP2 CODECOPY PUSH1 0x40 ADD SWAP2 POP POP PUSH1 0x40 MLOAD DUP1 SWAP2 SUB SWAP1 PUSH2 0x3EE PUSH2 0x466B JUMP JUMPDEST POP POP JUMPDEST PUSH2 0x3F9 PUSH2 0xCC2 JUMP JUMPDEST POP POP PUSH1 0x6 PUSH2 0x405 PUSH2 0x4576 JUMP JUMPDEST DUP2 EQ PUSH2 0x460 JUMPI PUSH1 0x40 MLOAD PUSH3 0x461BCD PUSH1 0xE5 SHL DUP2 MSTORE PUSH1 0x20 PUSH1 0x4 DUP3 ADD MSTORE PUSH1 0x1F PUSH1 0x24 DUP3 ADD MSTORE PUSH32 0x5265656E7472616E637947756172643A207265656E7472616E742063616C6C00 PUSH1 0x44 DUP3 ADD MSTORE PUSH1 0x64 ADD PUSH1 0x40 MLOAD DUP1 SWAP2 SUB SWAP1 PUSH2 0x45D PUSH2 0x466B JUMP JUMPDEST POP POP JUMPDEST POP STOP JUMPDEST PUSH2 0x46B PUSH2 0x177B JUMP JUMPDEST PUSH1 0x40 MLOAD SWAP1 DUP2 MSTORE PUSH1 0x20 ADD PUSH1 0x40 MLOAD DUP1 SWAP2 SUB SWAP1 RETURN JUMPDEST CALLVALUE DUP1 ISZERO PUSH2 0x492 JUMPI PUSH1 0x0 DUP1 PUSH2 0x48F PUSH2 0x466B JUMP JUMPDEST POP POP JUMPDEST POP PUSH2 0x49B PUSH2 0x19E7 JUMP JUMPDEST PUSH1 0x40 MLOAD PUSH1 0x1 PUSH1 0x1 PUSH1 0xA0 SHL SUB SWAP1 SWAP2 AND DUP2 MSTORE PUSH1 0x20 ADD PUSH1 0x40 MLOAD DUP1 SWAP2 SUB SWAP1 RETURN JUMPDEST CALLVALUE DUP1 ISZERO PUSH2 0x4CC JUMPI PUSH1 0x0 DUP1 PUSH2 0x4C9 PUSH2 0x466B JUMP JUMPDEST POP POP JUMPDEST POP PUSH2 0x46B PUSH2 0x1A06 JUMP JUMPDEST PUSH2 0x46B PUSH1 0x4 DUP1 CALLDATASIZE SUB PUSH1 0x20 DUP2 LT ISZERO PUSH2 0x4F4 JUMPI PUSH1 0x0 DUP1 PUSH2 0x4F1 PUSH2 0x466B JUMP JUMPDEST POP POP JUMPDEST POP CALLDATALOAD PUSH2 0x1A13 JUMP JUMPDEST CALLVALUE DUP1 ISZERO PUSH2 0x510 JUMPI PUSH1 0x0 DUP1 PUSH2 0x50D PUSH2 0x466B JUMP JUMPDEST POP POP JUMPDEST POP PUSH2 0x46B PUSH1 0x4 DUP1 CALLDATASIZE SUB PUSH1 0x20 DUP2 LT ISZERO PUSH2 0x530 JUMPI PUSH1 0x0 DUP1 PUSH2 0x52D PUSH2 0x466B JUMP JUMPDEST POP POP JUMPDEST POP CALLDATALOAD PUSH2 0x1C7C JUMP JUMPDEST CALLVALUE DUP1 ISZERO PUSH2 0x54C JUMPI PUSH1 0x0 DUP1 PUSH2 0x549 PUSH2 0x466B JUMP JUMPDEST POP POP JUMPDEST POP PUSH2 0x57C PUSH1 0x4 DUP1 CALLDATASIZE SUB PUSH1 0x20 DUP2 LT ISZERO PUSH2 0x56C JUMPI PUSH1 0x0 DUP1 PUSH2 0x569 PUSH2 0x466B JUMP JUMPDEST POP POP JUMPDEST POP CALLDATALOAD PUSH1 0x1 PUSH1 0x1 PUSH1 0xA0 SHL SUB AND PUSH2 0x1D4C JUMP JUMPDEST STOP JUMPDEST CALLVALUE DUP1 ISZERO PUSH2 0x593 JUMPI PUSH1 0x0 DUP1 PUSH2 0x590 PUSH2 0x466B JUMP JUMPDEST POP POP JUMPDEST POP PUSH2 0x57C PUSH1 0x4 DUP1 CALLDATASIZE SUB PUSH1 0x20 DUP2 LT ISZERO PUSH2 0x5B3 JUMPI PUSH1 0x0 DUP1 PUSH2 0x5B0 PUSH2 0x466B JUMP JUMPDEST POP POP JUMPDEST POP CALLDATALOAD ISZERO ISZERO PUSH2 0x1DC6 JUMP JUMPDEST CALLVALUE DUP1 ISZERO PUSH2 0x5D1 JUMPI PUSH1 0x0 DUP1 PUSH2 0x5CE PUSH2 0x466B JUMP JUMPDEST POP POP JUMPDEST POP PUSH2 0x46B PUSH2 0x1E9C JUMP JUMPDEST PUSH2 0x46B PUSH2 0x1EA6 JUMP JUMPDEST CALLVALUE DUP1 ISZERO PUSH2 0x5F7 JUMPI PUSH1 0x0 DUP1 PUSH2 0x5F4 PUSH2 0x466B JUMP JUMPDEST POP POP JUMPDEST POP PUSH2 0x57C PUSH1 0x4 DUP1 CALLDATASIZE SUB PUSH1 0x20 DUP2 LT ISZERO PUSH2 0x617 JUMPI PUSH1 0x0 DUP1 PUSH2 0x614 PUSH2 0x466B JUMP JUMPDEST POP POP JUMPDEST POP CALLDATALOAD PUSH1 0x1 PUSH1 0x1 PUSH1 0xA0 SHL SUB AND PUSH2 0x20A6 JUMP JUMPDEST CALLVALUE DUP1 ISZERO PUSH2 0x63C JUMPI PUSH1 0x0 DUP1 PUSH2 0x639 PUSH2 0x466B JUMP JUMPDEST POP POP JUMPDEST POP PUSH2 0x49B PUSH2 0x2185 JUMP JUMPDEST CALLVALUE DUP1 ISZERO PUSH2 0x65A JUMPI PUSH1 0x0 DUP1 PUSH2 0x657 PUSH2 0x466B JUMP JUMPDEST POP POP JUMPDEST POP PUSH2 0x57C PUSH2 0x2191 JUMP JUMPDEST CALLVALUE DUP1 ISZERO PUSH2 0x678 JUMPI PUSH1 0x0 DUP1 PUSH2 0x675 PUSH2 0x466B JUMP JUMPDEST POP POP JUMPDEST POP PUSH2 0x57C PUSH1 0x4 DUP1 CALLDATASIZE SUB PUSH1 0x20 DUP2 LT ISZERO PUSH2 0x698 JUMPI PUSH1 0x0 DUP1 PUSH2 0x695 PUSH2 0x466B JUMP JUMPDEST POP POP JUMPDEST POP CALLDATALOAD PUSH1 0x1 PUSH1 0x1 PUSH1 0xA0 SHL SUB AND PUSH2 0x2202 JUMP JUMPDEST CALLVALUE DUP1 ISZERO PUSH2 0x6BD JUMPI PUSH1 0x0 DUP1 PUSH2 0x6BA PUSH2 0x466B JUMP JUMPDEST POP POP JUMPDEST POP PUSH2 0x46B PUSH2 0x23CC JUMP JUMPDEST CALLVALUE DUP1 ISZERO PUSH2 0x6DB JUMPI PUSH1 0x0 DUP1 PUSH2 0x6D8 PUSH2 0x466B JUMP JUMPDEST POP POP JUMPDEST POP PUSH2 0x49B PUSH2 0x23D6 JUMP JUMPDEST CALLVALUE DUP1 ISZERO PUSH2 0x6F9 JUMPI PUSH1 0x0 DUP1 PUSH2 0x6F6 PUSH2 0x466B JUMP JUMPDEST POP POP JUMPDEST POP PUSH2 0x702 PUSH2 0x23E2 JUMP JUMPDEST PUSH1 0x40 MLOAD SWAP1 ISZERO ISZERO DUP2 MSTORE PUSH1 0x20 ADD PUSH1 0x40 MLOAD DUP1 SWAP2 SUB SWAP1 RETURN JUMPDEST CALLVALUE DUP1 ISZERO PUSH2 0x72B JUMPI PUSH1 0x0 DUP1 PUSH2 0x728 PUSH2 0x466B JUMP JUMPDEST POP POP JUMPDEST POP PUSH2 0x702 PUSH1 0x4 DUP1 CALLDATASIZE SUB PUSH1 0x20 DUP2 LT ISZERO PUSH2 0x74B JUMPI PUSH1 0x0 DUP1 PUSH2 0x748 PUSH2 0x466B JUMP JUMPDEST POP POP JUMPDEST POP CALLDATALOAD PUSH1 0x1 PUSH1 0x1 PUSH1 0xA0 SHL SUB AND PUSH2 0x23FB JUMP JUMPDEST CALLVALUE DUP1 ISZERO PUSH2 0x770 JUMPI PUSH1 0x0 DUP1 PUSH2 0x76D PUSH2 0x466B JUMP JUMPDEST POP POP JUMPDEST POP PUSH2 0x57C PUSH1 0x4 DUP1 CALLDATASIZE SUB PUSH1 0x20 DUP2 LT ISZERO PUSH2 0x790 JUMPI PUSH1 0x0 DUP1 PUSH2 0x78D PUSH2 0x466B JUMP JUMPDEST POP POP JUMPDEST POP CALLDATALOAD PUSH1 0x1 PUSH1 0x1 PUSH1 0xA0 SHL SUB AND PUSH2 0x25D5 JUMP JUMPDEST CALLVALUE DUP1 ISZERO PUSH2 0x7B5 JUMPI PUSH1 0x0 DUP1 PUSH2 0x7B2 PUSH2 0x466B JUMP JUMPDEST POP POP JUMPDEST POP PUSH2 0x46B PUSH2 0x266C JUMP JUMPDEST CALLVALUE DUP1 ISZERO PUSH2 0x7D3 JUMPI PUSH1 0x0 DUP1 PUSH2 0x7D0 PUSH2 0x466B JUMP JUMPDEST POP POP JUMPDEST POP PUSH2 0x57C PUSH2 0x2676 JUMP JUMPDEST CALLVALUE DUP1 ISZERO PUSH2 0x7F1 JUMPI PUSH1 0x0 DUP1 PUSH2 0x7EE PUSH2 0x466B JUMP JUMPDEST POP POP JUMPDEST POP PUSH2 0x57C PUSH2 0x27F9 JUMP JUMPDEST CALLVALUE DUP1 ISZERO PUSH2 0x80F JUMPI PUSH1 0x0 DUP1 PUSH2 0x80C PUSH2 0x466B JUMP JUMPDEST POP POP JUMPDEST POP PUSH2 0x49B PUSH2 0x2B41 JUMP JUMPDEST CALLVALUE DUP1 ISZERO PUSH2 0x82D JUMPI PUSH1 0x0 DUP1 PUSH2 0x82A PUSH2 0x466B JUMP JUMPDEST POP POP JUMPDEST POP PUSH2 0x46B PUSH2 0x2B4C JUMP JUMPDEST PUSH2 0x46B PUSH1 0x4 DUP1 CALLDATASIZE SUB PUSH1 0x40 DUP2 LT ISZERO PUSH2 0x855 JUMPI PUSH1 0x0 DUP1 PUSH2 0x852 PUSH2 0x466B JUMP JUMPDEST POP POP JUMPDEST POP DUP1 CALLDATALOAD SWAP1 PUSH1 0x20 ADD CALLDATALOAD PUSH2 0x2B56 JUMP JUMPDEST CALLVALUE DUP1 ISZERO PUSH2 0x877 JUMPI PUSH1 0x0 DUP1 PUSH2 0x874 PUSH2 0x466B JUMP JUMPDEST POP POP JUMPDEST POP PUSH2 0x57C PUSH2 0x2FBE JUMP JUMPDEST CALLVALUE DUP1 ISZERO PUSH2 0x895 JUMPI PUSH1 0x0 DUP1 PUSH2 0x892 PUSH2 0x466B JUMP JUMPDEST POP POP JUMPDEST POP PUSH2 0x46B PUSH1 0x4 DUP1 CALLDATASIZE SUB PUSH1 0x20 DUP2 LT ISZERO PUSH2 0x8B5 JUMPI PUSH1 0x0 DUP1 PUSH2 0x8B2 PUSH2 0x466B JUMP JUMPDEST POP POP JUMPDEST POP CALLDATALOAD PUSH2 0x3101 JUMP JUMPDEST CALLVALUE DUP1 ISZERO PUSH2 0x8D1 JUMPI PUSH1 0x0 DUP1 PUSH2 0x8CE PUSH2 0x466B JUMP JUMPDEST POP POP JUMPDEST POP PUSH2 0x46B PUSH2 0x31C9 JUMP JUMPDEST CALLVALUE DUP1 ISZERO PUSH2 0x8EF JUMPI PUSH1 0x0 DUP1 PUSH2 0x8EC PUSH2 0x466B JUMP JUMPDEST POP POP JUMPDEST POP PUSH2 0x57C PUSH1 0x4 DUP1 CALLDATASIZE SUB PUSH1 0x20 DUP2 LT ISZERO PUSH2 0x90F JUMPI PUSH1 0x0 DUP1 PUSH2 0x90C PUSH2 0x466B JUMP JUMPDEST POP POP JUMPDEST POP CALLDATALOAD PUSH2 0x31D0 JUMP JUMPDEST CALLVALUE DUP1 ISZERO PUSH2 0x92B JUMPI PUSH1 0x0 DUP1 PUSH2 0x928 PUSH2 0x466B JUMP JUMPDEST POP POP JUMPDEST POP PUSH2 0x934 PUSH2 0x3313 JUMP JUMPDEST PUSH1 0x40 MLOAD DUP1 DUP3 PUSH2 0x300 DUP1 DUP4 DUP4 PUSH1 0x0 JUMPDEST DUP4 DUP2 LT ISZERO PUSH2 0x95A JUMPI DUP1 DUP3 ADD MLOAD DUP4 DUP3 ADD MSTORE PUSH1 0x20 ADD PUSH2 0x942 JUMP JUMPDEST POP POP POP POP SWAP1 POP ADD SWAP2 POP POP PUSH1 0x40 MLOAD DUP1 SWAP2 SUB SWAP1 RETURN JUMPDEST CALLVALUE DUP1 ISZERO PUSH2 0x982 JUMPI PUSH1 0x0 DUP1 PUSH2 0x97F PUSH2 0x466B JUMP JUMPDEST POP POP JUMPDEST POP PUSH2 0x9A9 PUSH1 0x4 DUP1 CALLDATASIZE SUB PUSH1 0x20 DUP2 LT ISZERO PUSH2 0x9A2 JUMPI PUSH1 0x0 DUP1 PUSH2 0x99F PUSH2 0x466B JUMP JUMPDEST POP POP JUMPDEST POP CALLDATALOAD PUSH2 0x3371 JUMP JUMPDEST PUSH1 0x40 MLOAD PUSH1 0x1 PUSH1 0x1 PUSH1 0xA0 SHL SUB SWAP1 SWAP3 AND DUP3 MSTORE PUSH1 0x20 DUP3 ADD MSTORE PUSH1 0x40 SWAP1 DUP2 ADD SWAP1 MLOAD DUP1 SWAP2 SUB SWAP1 RETURN JUMPDEST CALLVALUE DUP1 ISZERO PUSH2 0x9E0 JUMPI PUSH1 0x0 DUP1 PUSH2 0x9DD PUSH2 0x466B JUMP JUMPDEST POP POP JUMPDEST POP PUSH2 0x46B PUSH1 0x4 DUP1 CALLDATASIZE SUB PUSH1 0x40 DUP2 LT ISZERO PUSH2 0xA00 JUMPI PUSH1 0x0 DUP1 PUSH2 0x9FD PUSH2 0x466B JUMP JUMPDEST POP POP JUMPDEST POP DUP1 CALLDATALOAD SWAP1 PUSH1 0x20 ADD CALLDATALOAD PUSH2 0x33AE JUMP JUMPDEST CALLVALUE DUP1 ISZERO PUSH2 0xA22 JUMPI PUSH1 0x0 DUP1 PUSH2 0xA1F PUSH2 0x466B JUMP JUMPDEST POP POP JUMPDEST POP PUSH2 0x46B PUSH2 0x3619 JUMP JUMPDEST CALLVALUE DUP1 ISZERO PUSH2 0xA40 JUMPI PUSH1 0x0 DUP1 PUSH2 0xA3D PUSH2 0x466B JUMP JUMPDEST POP POP JUMPDEST POP PUSH2 0x702 PUSH2 0x3623 JUMP JUMPDEST CALLVALUE DUP1 ISZERO PUSH2 0xA5E JUMPI PUSH1 0x0 DUP1 PUSH2 0xA5B PUSH2 0x466B JUMP JUMPDEST POP POP JUMPDEST POP PUSH2 0x57C PUSH1 0x4 DUP1 CALLDATASIZE SUB PUSH1 0x20 DUP2 LT ISZERO PUSH2 0xA7E JUMPI PUSH1 0x0 DUP1 PUSH2 0xA7B PUSH2 0x466B JUMP JUMPDEST POP POP JUMPDEST POP CALLDATALOAD PUSH2 0x362F JUMP JUMPDEST CALLVALUE DUP1 ISZERO PUSH2 0xA9A JUMPI PUSH1 0x0 DUP1 PUSH2 0xA97 PUSH2 0x466B JUMP JUMPDEST POP POP JUMPDEST POP PUSH2 0x57C PUSH2 0x3671 JUMP JUMPDEST CALLVALUE DUP1 ISZERO PUSH2 0xAB8 JUMPI PUSH1 0x0 DUP1 PUSH2 0xAB5 PUSH2 0x466B JUMP JUMPDEST POP POP JUMPDEST POP PUSH2 0x49B PUSH2 0x36F3 JUMP JUMPDEST CALLVALUE DUP1 ISZERO PUSH2 0xAD6 JUMPI PUSH1 0x0 DUP1 PUSH2 0xAD3 PUSH2 0x466B JUMP JUMPDEST POP POP JUMPDEST POP PUSH2 0x46B PUSH1 0x4 DUP1 CALLDATASIZE SUB PUSH1 0x20 DUP2 LT ISZERO PUSH2 0xAF6 JUMPI PUSH1 0x0 DUP1 PUSH2 0xAF3 PUSH2 0x466B JUMP JUMPDEST POP POP JUMPDEST POP CALLDATALOAD PUSH1 0x1 PUSH1 0x1 PUSH1 0xA0 SHL SUB AND PUSH2 0x36FF JUMP JUMPDEST CALLVALUE DUP1 ISZERO PUSH2 0xB1B JUMPI PUSH1 0x0 DUP1 PUSH2 0xB18 PUSH2 0x466B JUMP JUMPDEST POP POP JUMPDEST POP PUSH2 0x46B PUSH1 0x4 DUP1 CALLDATASIZE SUB PUSH1 0x20 DUP2 LT ISZERO PUSH2 0xB3B JUMPI PUSH1 0x0 DUP1 PUSH2 0xB38 PUSH2 0x466B JUMP JUMPDEST POP POP JUMPDEST POP CALLDATALOAD PUSH2 0x3717 JUMP JUMPDEST CALLVALUE DUP1 ISZERO PUSH2 0xB57 JUMPI PUSH1 0x0 DUP1 PUSH2 0xB54 PUSH2 0x466B JUMP JUMPDEST POP POP JUMPDEST POP PUSH2 0x46B PUSH1 0x4 DUP1 CALLDATASIZE SUB PUSH1 0x20 DUP2 LT ISZERO PUSH2 0xB77 JUMPI PUSH1 0x0 DUP1 PUSH2 0xB74 PUSH2 0x466B JUMP JUMPDEST POP POP JUMPDEST POP CALLDATALOAD PUSH2 0x373F JUMP JUMPDEST CALLVALUE DUP1 ISZERO PUSH2 0xB93 JUMPI PUSH1 0x0 DUP1 PUSH2 0xB90 PUSH2 0x466B JUMP JUMPDEST POP POP JUMPDEST POP PUSH2 0x57C PUSH1 0x4 DUP1 CALLDATASIZE SUB PUSH1 0x20 DUP2 LT ISZERO PUSH2 0xBB3 JUMPI PUSH1 0x0 DUP1 PUSH2 0xBB0 PUSH2 0x466B JUMP JUMPDEST POP POP JUMPDEST POP CALLDATALOAD PUSH2 0x3813 JUMP JUMPDEST CALLVALUE DUP1 ISZERO PUSH2 0xBCF JUMPI PUSH1 0x0 DUP1 PUSH2 0xBCC PUSH2 0x466B JUMP JUMPDEST POP POP JUMPDEST POP PUSH2 0x46B PUSH2 0x3B4C JUMP JUMPDEST CALLVALUE DUP1 ISZERO PUSH2 0xBED JUMPI PUSH1 0x0 DUP1 PUSH2 0xBEA PUSH2 0x466B JUMP JUMPDEST POP POP JUMPDEST POP PUSH2 0x57C PUSH1 0x4 DUP1 CALLDATASIZE SUB PUSH1 0x20 DUP2 LT ISZERO PUSH2 0xC0D JUMPI PUSH1 0x0 DUP1 PUSH2 0xC0A PUSH2 0x466B JUMP JUMPDEST POP POP JUMPDEST POP CALLDATALOAD PUSH2 0x3B51 JUMP JUMPDEST CALLVALUE DUP1 ISZERO PUSH2 0xC29 JUMPI PUSH1 0x0 DUP1 PUSH2 0xC26 PUSH2 0x466B JUMP JUMPDEST POP POP JUMPDEST POP PUSH2 0x46B PUSH1 0x4 DUP1 CALLDATASIZE SUB PUSH1 0x20 DUP2 LT ISZERO PUSH2 0xC49 JUMPI PUSH1 0x0 DUP1 PUSH2 0xC46 PUSH2 0x466B JUMP JUMPDEST POP POP JUMPDEST POP CALLDATALOAD PUSH2 0x3C37 JUMP JUMPDEST CALLVALUE DUP1 ISZERO PUSH2 0xC65 JUMPI PUSH1 0x0 DUP1 PUSH2 0xC62 PUSH2 0x466B JUMP JUMPDEST POP POP JUMPDEST POP PUSH2 0x46B PUSH2 0x3D9D JUMP JUMPDEST PUSH1 0x0 PUSH2 0xCBD PUSH13 0x45786368616E67655261746573 PUSH1 0x98 SHL PUSH1 0x40 MLOAD PUSH1 0x40 DUP1 DUP3 ADD SWAP1 MSTORE PUSH1 0x1D DUP2 MSTORE PUSH32 0x4D697373696E672045786368616E676552617465732061646472657373000000 PUSH1 0x20 DUP3 ADD MSTORE PUSH2 0x3DA7 JUMP JUMPDEST SWAP1 POP SWAP1 JUMP JUMPDEST PUSH1 0x0 PUSH1 0x10 PUSH2 0xCCE PUSH2 0x4576 JUMP JUMPDEST CALLVALUE GT ISZERO PUSH2 0xD15 JUMPI PUSH1 0x40 MLOAD PUSH3 0x461BCD PUSH1 0xE5 SHL DUP2 MSTORE PUSH1 0x4 ADD DUP1 DUP1 PUSH1 0x20 ADD DUP3 DUP2 SUB DUP3 MSTORE PUSH1 0x25 DUP2 MSTORE PUSH1 0x20 ADD DUP1 PUSH2 0x4A4C PUSH1 0x25 SWAP2 CODECOPY PUSH1 0x40 ADD SWAP2 POP POP PUSH1 0x40 MLOAD DUP1 SWAP2 SUB SWAP1 PUSH2 0xD12 PUSH2 0x466B JUMP JUMPDEST POP POP JUMPDEST PUSH1 0x0 DUP1 PUSH2 0xDDE PUSH2 0xD23 PUSH2 0xC6E JUMP JUMPDEST PUSH1 0x1 PUSH1 0x1 PUSH1 0xA0 SHL SUB AND PUSH4 0xAC82F608 PUSH3 0x8AA89 PUSH1 0xEB SHL PUSH1 0x40 MLOAD PUSH1 0x1 PUSH1 0x1 PUSH1 0xE0 SHL SUB NOT PUSH1 0xE0 DUP5 SWAP1 SHL AND DUP2 MSTORE PUSH1 0x4 DUP2 ADD SWAP2 SWAP1 SWAP2 MSTORE PUSH1 0x24 ADD PUSH1 0x20 PUSH1 0x40 MLOAD DUP1 DUP4 SUB DUP2 DUP7 DUP1 PUSH2 0xD6A PUSH2 0x461F JUMP JUMPDEST ISZERO DUP1 ISZERO PUSH2 0xD7F JUMPI PUSH1 0x0 DUP1 PUSH2 0xD7C PUSH2 0x466B JUMP JUMPDEST POP POP JUMPDEST POP GAS PUSH2 0xD89 PUSH2 0x46D6 JUMP JUMPDEST POP POP POP POP POP ISZERO DUP1 ISZERO PUSH2 0xDA8 JUMPI RETURNDATASIZE PUSH1 0x0 DUP1 RETURNDATACOPY RETURNDATASIZE PUSH1 0x0 PUSH2 0xDA5 PUSH2 0x466B JUMP JUMPDEST POP POP JUMPDEST POP POP POP POP PUSH1 0x40 MLOAD RETURNDATASIZE PUSH1 0x20 DUP2 LT ISZERO PUSH2 0xDC7 JUMPI PUSH1 0x0 DUP1 PUSH2 0xDC4 PUSH2 0x466B JUMP JUMPDEST POP POP JUMPDEST DUP2 ADD SWAP1 DUP1 DUP1 MLOAD CALLVALUE SWAP4 POP SWAP2 POP POP PUSH4 0xFFFFFFFF PUSH2 0x3E72 AND JUMP JUMPDEST SWAP1 POP DUP1 PUSH1 0x0 PUSH1 0xC PUSH2 0xDED PUSH2 0x4576 JUMP JUMPDEST SWAP1 POP JUMPDEST PUSH1 0x0 DUP3 GT DUP1 ISZERO PUSH2 0xE08 JUMPI POP PUSH1 0xD PUSH2 0xE05 PUSH2 0x4576 JUMP JUMPDEST DUP2 LT JUMPDEST ISZERO PUSH2 0x15BC JUMPI PUSH2 0xE15 PUSH2 0x478F JUMP JUMPDEST PUSH1 0x0 DUP3 DUP2 MSTORE PUSH1 0xB PUSH1 0x20 MSTORE PUSH1 0x40 SWAP1 KECCAK256 PUSH1 0x40 MLOAD PUSH1 0x40 DUP1 DUP3 ADD SWAP1 MSTORE SWAP1 DUP2 PUSH1 0x0 DUP3 PUSH2 0xE3A PUSH2 0x4576 JUMP JUMPDEST PUSH1 0x1 PUSH1 0x1 PUSH1 0xA0 SHL SUB PUSH2 0x100 SWAP3 SWAP1 SWAP3 EXP SWAP1 DIV AND DUP2 MSTORE PUSH1 0x20 ADD PUSH1 0x1 DUP3 ADD PUSH2 0xE5D PUSH2 0x4576 JUMP JUMPDEST SWAP1 MSTORE POP SWAP1 POP PUSH1 0x0 DUP2 MLOAD PUSH1 0x1 PUSH1 0x1 PUSH1 0xA0 SHL SUB AND EQ ISZERO PUSH2 0xEA3 JUMPI PUSH2 0xE90 PUSH1 0x1 PUSH1 0xC PUSH2 0xE84 PUSH2 0x4576 JUMP JUMPDEST SWAP1 PUSH4 0xFFFFFFFF PUSH2 0x3E9C AND JUMP JUMPDEST DUP1 PUSH1 0xC PUSH2 0xE9B PUSH2 0x45D1 JUMP JUMPDEST POP POP POP PUSH2 0x15B3 JUMP JUMPDEST DUP3 DUP2 PUSH1 0x20 ADD MLOAD GT ISZERO PUSH2 0x1239 JUMPI PUSH1 0x0 PUSH2 0xEC6 DUP5 DUP4 PUSH1 0x20 ADD MLOAD SWAP1 PUSH4 0xFFFFFFFF PUSH2 0x3F04 AND JUMP JUMPDEST SWAP1 POP PUSH1 0x40 MLOAD PUSH1 0x40 DUP1 DUP3 ADD SWAP1 MSTORE DUP1 DUP4 MLOAD PUSH1 0x1 PUSH1 0x1 PUSH1 0xA0 SHL SUB AND DUP2 MSTORE PUSH1 0x20 SWAP1 DUP2 ADD DUP4 SWAP1 MSTORE PUSH1 0x0 DUP6 DUP2 MSTORE PUSH1 0xB SWAP1 SWAP2 MSTORE PUSH1 0x40 SWAP1 KECCAK256 DUP2 MLOAD DUP2 PUSH1 0x1 DUP2 PUSH2 0xF04 PUSH2 0x4576 JUMP JUMPDEST DUP2 PUSH1 0x1 PUSH1 0x1 PUSH1 0xA0 SHL SUB MUL NOT AND SWAP1 DUP4 PUSH1 0x1 PUSH1 0x1 PUSH1 0xA0 SHL SUB AND MUL OR SWAP1 PUSH2 0xF26 PUSH2 0x45D1 JUMP JUMPDEST POP POP POP PUSH1 0x20 DUP3 ADD MLOAD DUP2 PUSH1 0x1 ADD PUSH2 0xF3A PUSH2 0x45D1 JUMP JUMPDEST POP POP SWAP1 POP POP PUSH2 0xF59 DUP5 PUSH1 0xE PUSH2 0xF4D PUSH2 0x4576 JUMP JUMPDEST SWAP1 PUSH4 0xFFFFFFFF PUSH2 0x3F04 AND JUMP JUMPDEST DUP1 PUSH1 0xE PUSH2 0xF64 PUSH2 0x45D1 JUMP JUMPDEST POP POP POP PUSH2 0x102D PUSH2 0xF72 PUSH2 0xC6E JUMP JUMPDEST PUSH1 0x1 PUSH1 0x1 PUSH1 0xA0 SHL SUB AND PUSH4 0xAC82F608 PUSH3 0x8AA89 PUSH1 0xEB SHL PUSH1 0x40 MLOAD PUSH1 0x1 PUSH1 0x1 PUSH1 0xE0 SHL SUB NOT PUSH1 0xE0 DUP5 SWAP1 SHL AND DUP2 MSTORE PUSH1 0x4 DUP2 ADD SWAP2 SWAP1 SWAP2 MSTORE PUSH1 0x24 ADD PUSH1 0x20 PUSH1 0x40 MLOAD DUP1 DUP4 SUB DUP2 DUP7 DUP1 PUSH2 0xFB9 PUSH2 0x461F JUMP JUMPDEST ISZERO DUP1 ISZERO PUSH2 0xFCE JUMPI PUSH1 0x0 DUP1 PUSH2 0xFCB PUSH2 0x466B JUMP JUMPDEST POP POP JUMPDEST POP GAS PUSH2 0xFD8 PUSH2 0x46D6 JUMP JUMPDEST POP POP POP POP POP ISZERO DUP1 ISZERO PUSH2 0xFF7 JUMPI RETURNDATASIZE PUSH1 0x0 DUP1 RETURNDATACOPY RETURNDATASIZE PUSH1 0x0 PUSH2 0xFF4 PUSH2 0x466B JUMP JUMPDEST POP POP JUMPDEST POP POP POP POP PUSH1 0x40 MLOAD RETURNDATASIZE PUSH1 0x20 DUP2 LT ISZERO PUSH2 0x1016 JUMPI PUSH1 0x0 DUP1 PUSH2 0x1013 PUSH2 0x466B JUMP JUMPDEST POP POP JUMPDEST DUP2 ADD SWAP1 DUP1 DUP1 MLOAD DUP9 SWAP4 POP SWAP2 POP POP PUSH4 0xFFFFFFFF PUSH2 0x3F69 AND JUMP JUMPDEST SWAP6 POP DUP2 MLOAD PUSH1 0x1 PUSH1 0x1 PUSH1 0xA0 SHL SUB AND DUP7 ISZERO PUSH2 0x8FC MUL DUP8 PUSH1 0x40 MLOAD PUSH1 0x0 PUSH1 0x40 MLOAD DUP1 DUP4 SUB DUP2 DUP6 DUP9 DUP9 PUSH2 0x1058 PUSH2 0x47A6 JUMP JUMPDEST POP POP POP POP POP POP SWAP4 POP POP POP POP PUSH2 0x110C JUMPI PUSH1 0x0 PUSH1 0xA PUSH2 0x1073 PUSH2 0x4576 JUMP JUMPDEST PUSH1 0x1 PUSH1 0x1 PUSH1 0xA0 SHL SUB PUSH2 0x100 SWAP3 SWAP1 SWAP3 EXP SWAP1 DIV AND DUP7 ISZERO PUSH2 0x8FC MUL DUP8 PUSH1 0x40 MLOAD PUSH1 0x0 PUSH1 0x40 MLOAD DUP1 DUP4 SUB DUP2 DUP6 DUP9 DUP9 PUSH2 0x10A3 PUSH2 0x47A6 JUMP JUMPDEST POP POP POP POP POP POP SWAP4 POP POP POP POP ISZERO DUP1 ISZERO PUSH2 0x10C8 JUMPI RETURNDATASIZE PUSH1 0x0 DUP1 RETURNDATACOPY RETURNDATASIZE PUSH1 0x0 PUSH2 0x10C5 PUSH2 0x466B JUMP JUMPDEST POP POP JUMPDEST POP DUP2 MLOAD PUSH1 0x1 PUSH1 0x1 PUSH1 0xA0 SHL SUB AND PUSH32 0xF2435D3901399DAA085F8B58D2409FFF9B83CE4CA97C1F144B532F5A08B1C96C DUP8 PUSH1 0x40 MLOAD SWAP1 DUP2 MSTORE PUSH1 0x20 ADD PUSH1 0x40 MLOAD DUP1 SWAP2 SUB SWAP1 LOG2 PUSH2 0x1165 JUMP JUMPDEST DUP3 DUP3 MLOAD PUSH1 0x1 PUSH1 0x1 PUSH1 0xA0 SHL SUB AND GAS PUSH2 0x1121 PUSH2 0x485F JUMP JUMPDEST PUSH1 0x1 PUSH1 0x1 PUSH1 0xA0 SHL SUB AND PUSH32 0x6D957E9E816107F67CB7118461E3C259E96896F80223C9AF2972596C2FDD401C DUP10 DUP9 PUSH1 0x40 MLOAD SWAP2 DUP3 MSTORE PUSH1 0x20 DUP3 ADD MSTORE PUSH1 0x40 SWAP1 DUP2 ADD SWAP1 MLOAD DUP1 SWAP2 SUB SWAP1 LOG4 JUMPDEST PUSH2 0x116D PUSH2 0x3F93 JUMP JUMPDEST PUSH1 0x1 PUSH1 0x1 PUSH1 0xA0 SHL SUB AND PUSH4 0xA9059CBB GAS PUSH2 0x1184 PUSH2 0x485F JUMP JUMPDEST DUP7 PUSH1 0x40 MLOAD PUSH1 0x1 PUSH1 0x1 PUSH1 0xE0 SHL SUB NOT PUSH1 0xE0 DUP6 SWAP1 SHL AND DUP2 MSTORE PUSH1 0x1 PUSH1 0x1 PUSH1 0xA0 SHL SUB SWAP1 SWAP3 AND PUSH1 0x4 DUP4 ADD MSTORE PUSH1 0x24 DUP3 ADD MSTORE PUSH1 0x44 ADD PUSH1 0x20 PUSH1 0x40 MLOAD DUP1 DUP4 SUB DUP2 PUSH1 0x0 DUP8 DUP1 PUSH2 0x11C6 PUSH2 0x461F JUMP JUMPDEST ISZERO DUP1 ISZERO PUSH2 0x11DB JUMPI PUSH1 0x0 DUP1 PUSH2 0x11D8 PUSH2 0x466B JUMP JUMPDEST POP POP JUMPDEST POP GAS PUSH2 0x11E5 PUSH2 0x47A6 JUMP JUMPDEST POP POP POP POP POP POP ISZERO DUP1 ISZERO PUSH2 0x1205 JUMPI RETURNDATASIZE PUSH1 0x0 DUP1 RETURNDATACOPY RETURNDATASIZE PUSH1 0x0 PUSH2 0x1202 PUSH2 0x466B JUMP JUMPDEST POP POP JUMPDEST POP POP POP POP PUSH1 0x40 MLOAD RETURNDATASIZE PUSH1 0x20 DUP2 LT ISZERO PUSH2 0x1224 JUMPI PUSH1 0x0 DUP1 PUSH2 0x1221 PUSH2 0x466B JUMP JUMPDEST POP POP JUMPDEST DUP2 ADD SWAP1 DUP1 DUP1 MLOAD POP PUSH1 0x0 SWAP7 POP PUSH2 0x15B3 SWAP4 POP POP POP POP JUMP JUMPDEST DUP3 DUP2 PUSH1 0x20 ADD MLOAD GT PUSH2 0x15B3 JUMPI PUSH1 0x0 DUP3 DUP2 MSTORE PUSH1 0xB PUSH1 0x20 MSTORE PUSH1 0x40 SWAP1 KECCAK256 PUSH1 0x0 DUP2 PUSH1 0x1 DUP2 PUSH2 0x1260 PUSH2 0x4576 JUMP JUMPDEST SWAP1 PUSH1 0x1 PUSH1 0x1 PUSH1 0xA0 SHL SUB MUL NOT AND SWAP1 PUSH2 0x1275 PUSH2 0x45D1 JUMP JUMPDEST POP POP PUSH1 0x1 DUP3 ADD PUSH1 0x0 SWAP1 PUSH2 0x1286 PUSH2 0x45D1 JUMP JUMPDEST POP POP POP POP PUSH2 0x1299 PUSH1 0x1 PUSH1 0xC PUSH2 0xE84 PUSH2 0x4576 JUMP JUMPDEST DUP1 PUSH1 0xC PUSH2 0x12A4 PUSH2 0x45D1 JUMP JUMPDEST POP POP POP PUSH2 0x12B9 DUP2 PUSH1 0x20 ADD MLOAD PUSH1 0xE PUSH2 0xF4D PUSH2 0x4576 JUMP JUMPDEST DUP1 PUSH1 0xE PUSH2 0x12C4 PUSH2 0x45D1 JUMP JUMPDEST POP POP POP PUSH2 0x1391 PUSH2 0x12D2 PUSH2 0xC6E JUMP JUMPDEST PUSH1 0x1 PUSH1 0x1 PUSH1 0xA0 SHL SUB AND PUSH4 0xAC82F608 PUSH3 0x8AA89 PUSH1 0xEB SHL PUSH1 0x40 MLOAD PUSH1 0x1 PUSH1 0x1 PUSH1 0xE0 SHL SUB NOT PUSH1 0xE0 DUP5 SWAP1 SHL AND DUP2 MSTORE PUSH1 0x4 DUP2 ADD SWAP2 SWAP1 SWAP2 MSTORE PUSH1 0x24 ADD PUSH1 0x20 PUSH1 0x40 MLOAD DUP1 DUP4 SUB DUP2 DUP7 DUP1 PUSH2 0x1319 PUSH2 0x461F JUMP JUMPDEST ISZERO DUP1 ISZERO PUSH2 0x132E JUMPI PUSH1 0x0 DUP1 PUSH2 0x132B PUSH2 0x466B JUMP JUMPDEST POP POP JUMPDEST POP GAS PUSH2 0x1338 PUSH2 0x46D6 JUMP JUMPDEST POP POP POP POP POP ISZERO DUP1 ISZERO PUSH2 0x1357 JUMPI RETURNDATASIZE PUSH1 0x0 DUP1 RETURNDATACOPY RETURNDATASIZE PUSH1 0x0 PUSH2 0x1354 PUSH2 0x466B JUMP JUMPDEST POP POP JUMPDEST POP POP POP POP PUSH1 0x40 MLOAD RETURNDATASIZE PUSH1 0x20 DUP2 LT ISZERO PUSH2 0x1376 JUMPI PUSH1 0x0 DUP1 PUSH2 0x1373 PUSH2 0x466B JUMP JUMPDEST POP POP JUMPDEST DUP2 ADD SWAP1 DUP1 DUP1 MLOAD SWAP3 POP POP POP PUSH1 0x20 DUP4 ADD MLOAD SWAP1 PUSH4 0xFFFFFFFF PUSH2 0x3F69 AND JUMP JUMPDEST SWAP5 POP DUP1 MLOAD PUSH1 0x1 PUSH1 0x1 PUSH1 0xA0 SHL SUB AND DUP6 ISZERO PUSH2 0x8FC MUL DUP7 PUSH1 0x40 MLOAD PUSH1 0x0 PUSH1 0x40 MLOAD DUP1 DUP4 SUB DUP2 DUP6 DUP9 DUP9 PUSH2 0x13BC PUSH2 0x47A6 JUMP JUMPDEST POP POP POP POP POP POP SWAP4 POP POP POP POP PUSH2 0x1470 JUMPI PUSH1 0x0 PUSH1 0xA PUSH2 0x13D7 PUSH2 0x4576 JUMP JUMPDEST PUSH1 0x1 PUSH1 0x1 PUSH1 0xA0 SHL SUB PUSH2 0x100 SWAP3 SWAP1 SWAP3 EXP SWAP1 DIV AND DUP6 ISZERO PUSH2 0x8FC MUL DUP7 PUSH1 0x40 MLOAD PUSH1 0x0 PUSH1 0x40 MLOAD DUP1 DUP4 SUB DUP2 DUP6 DUP9 DUP9 PUSH2 0x1407 PUSH2 0x47A6 JUMP JUMPDEST POP POP POP POP POP POP SWAP4 POP POP POP POP ISZERO DUP1 ISZERO PUSH2 0x142C JUMPI RETURNDATASIZE PUSH1 0x0 DUP1 RETURNDATACOPY RETURNDATASIZE PUSH1 0x0 PUSH2 0x1429 PUSH2 0x466B JUMP JUMPDEST POP POP JUMPDEST POP DUP1 MLOAD PUSH1 0x1 PUSH1 0x1 PUSH1 0xA0 SHL SUB AND PUSH32 0xF2435D3901399DAA085F8B58D2409FFF9B83CE4CA97C1F144B532F5A08B1C96C DUP7 PUSH1 0x40 MLOAD SWAP1 DUP2 MSTORE PUSH1 0x20 ADD PUSH1 0x40 MLOAD DUP1 SWAP2 SUB SWAP1 LOG2 PUSH2 0x14CD JUMP JUMPDEST DUP2 DUP2 MLOAD PUSH1 0x1 PUSH1 0x1 PUSH1 0xA0 SHL SUB AND GAS PUSH2 0x1485 PUSH2 0x485F JUMP JUMPDEST PUSH1 0x1 PUSH1 0x1 PUSH1 0xA0 SHL SUB AND PUSH32 0x6D957E9E816107F67CB7118461E3C259E96896F80223C9AF2972596C2FDD401C DUP9 DUP6 PUSH1 0x20 ADD MLOAD PUSH1 0x40 MLOAD SWAP2 DUP3 MSTORE PUSH1 0x20 DUP3 ADD MSTORE PUSH1 0x40 SWAP1 DUP2 ADD SWAP1 MLOAD DUP1 SWAP2 SUB SWAP1 LOG4 JUMPDEST PUSH2 0x14D5 PUSH2 0x3F93 JUMP JUMPDEST PUSH1 0x1 PUSH1 0x1 PUSH1 0xA0 SHL SUB AND PUSH4 0xA9059CBB GAS PUSH2 0x14EC PUSH2 0x485F JUMP JUMPDEST DUP4 PUSH1 0x20 ADD MLOAD PUSH1 0x40 MLOAD PUSH1 0x1 PUSH1 0x1 PUSH1 0xE0 SHL SUB NOT PUSH1 0xE0 DUP6 SWAP1 SHL AND DUP2 MSTORE PUSH1 0x1 PUSH1 0x1 PUSH1 0xA0 SHL SUB SWAP1 SWAP3 AND PUSH1 0x4 DUP4 ADD MSTORE PUSH1 0x24 DUP3 ADD MSTORE PUSH1 0x44 ADD PUSH1 0x20 PUSH1 0x40 MLOAD DUP1 DUP4 SUB DUP2 PUSH1 0x0 DUP8 DUP1 PUSH2 0x1532 PUSH2 0x461F JUMP JUMPDEST ISZERO DUP1 ISZERO PUSH2 0x1547 JUMPI PUSH1 0x0 DUP1 PUSH2 0x1544 PUSH2 0x466B JUMP JUMPDEST POP POP JUMPDEST POP GAS PUSH2 0x1551 PUSH2 0x47A6 JUMP JUMPDEST POP POP POP POP POP POP ISZERO DUP1 ISZERO PUSH2 0x1571 JUMPI RETURNDATASIZE PUSH1 0x0 DUP1 RETURNDATACOPY RETURNDATASIZE PUSH1 0x0 PUSH2 0x156E PUSH2 0x466B JUMP JUMPDEST POP POP JUMPDEST POP POP POP POP PUSH1 0x40 MLOAD RETURNDATASIZE PUSH1 0x20 DUP2 LT ISZERO PUSH2 0x1590 JUMPI PUSH1 0x0 DUP1 PUSH2 0x158D PUSH2 0x466B JUMP JUMPDEST POP POP JUMPDEST DUP2 ADD SWAP1 DUP1 DUP1 MLOAD POP PUSH2 0x15B0 SWAP3 POP POP POP PUSH1 0x20 DUP3 ADD MLOAD DUP5 SWAP1 PUSH4 0xFFFFFFFF PUSH2 0x3F04 AND JUMP JUMPDEST SWAP3 POP JUMPDEST POP PUSH1 0x1 ADD PUSH2 0xDF0 JUMP JUMPDEST POP DUP1 ISZERO PUSH2 0x16E1 JUMPI GAS PUSH2 0x15CC PUSH2 0x485F JUMP JUMPDEST PUSH1 0x1 PUSH1 0x1 PUSH1 0xA0 SHL SUB AND PUSH2 0x8FC PUSH2 0x169E PUSH2 0x15E3 PUSH2 0xC6E JUMP JUMPDEST PUSH1 0x1 PUSH1 0x1 PUSH1 0xA0 SHL SUB AND PUSH4 0xAC82F608 PUSH3 0x8AA89 PUSH1 0xEB SHL PUSH1 0x40 MLOAD PUSH1 0x1 PUSH1 0x1 PUSH1 0xE0 SHL SUB NOT PUSH1 0xE0 DUP5 SWAP1 SHL AND DUP2 MSTORE PUSH1 0x4 DUP2 ADD SWAP2 SWAP1 SWAP2 MSTORE PUSH1 0x24 ADD PUSH1 0x20 PUSH1 0x40 MLOAD DUP1 DUP4 SUB DUP2 DUP7 DUP1 PUSH2 0x162A PUSH2 0x461F JUMP JUMPDEST ISZERO DUP1 ISZERO PUSH2 0x163F JUMPI PUSH1 0x0 DUP1 PUSH2 0x163C PUSH2 0x466B JUMP JUMPDEST POP POP JUMPDEST POP GAS PUSH2 0x1649 PUSH2 0x46D6 JUMP JUMPDEST POP POP POP POP POP ISZERO DUP1 ISZERO PUSH2 0x1668 JUMPI RETURNDATASIZE PUSH1 0x0 DUP1 RETURNDATACOPY RETURNDATASIZE PUSH1 0x0 PUSH2 0x1665 PUSH2 0x466B JUMP JUMPDEST POP POP JUMPDEST POP POP POP POP PUSH1 0x40 MLOAD RETURNDATASIZE PUSH1 0x20 DUP2 LT ISZERO PUSH2 0x1687 JUMPI PUSH1 0x0 DUP1 PUSH2 0x1684 PUSH2 0x466B JUMP JUMPDEST POP POP JUMPDEST DUP2 ADD SWAP1 DUP1 DUP1 MLOAD DUP8 SWAP4 POP SWAP2 POP POP PUSH4 0xFFFFFFFF PUSH2 0x3F69 AND JUMP JUMPDEST SWAP1 DUP2 ISZERO MUL SWAP1 PUSH1 0x40 MLOAD PUSH1 0x0 PUSH1 0x40 MLOAD DUP1 DUP4 SUB DUP2 DUP6 DUP9 DUP9 PUSH2 0x16BA PUSH2 0x47A6 JUMP JUMPDEST POP POP POP POP POP POP SWAP4 POP POP POP POP ISZERO DUP1 ISZERO PUSH2 0x16DF JUMPI RETURNDATASIZE PUSH1 0x0 DUP1 RETURNDATACOPY RETURNDATASIZE PUSH1 0x0 PUSH2 0x16DC PUSH2 0x466B JUMP JUMPDEST POP POP JUMPDEST POP JUMPDEST PUSH1 0x0 PUSH2 0x16F3 DUP4 DUP4 PUSH4 0xFFFFFFFF PUSH2 0x3F04 AND JUMP JUMPDEST SWAP1 POP DUP1 ISZERO PUSH2 0x1773 JUMPI PUSH32 0xDB1741FFC6844B04A9284BB6337FB0CCFE543A493EF0AC8E725242201E93D4BD CALLVALUE DUP3 PUSH1 0x40 MLOAD PUSH1 0x20 DUP2 ADD SWAP3 SWAP1 SWAP3 MSTORE PUSH1 0x60 DUP3 ADD MSTORE PUSH1 0x80 DUP1 DUP3 MSTORE PUSH1 0x3 SWAP1 DUP3 ADD MSTORE PUSH3 0x8AA89 PUSH1 0xEB SHL PUSH1 0xA0 DUP3 ADD MSTORE PUSH1 0xC0 PUSH1 0x40 DUP1 DUP4 ADD DUP3 SWAP1 MSTORE PUSH1 0x4 SWAP2 DUP4 ADD SWAP2 SWAP1 SWAP2 MSTORE PUSH4 0x1CD554D1 PUSH1 0xE2 SHL PUSH1 0xE0 DUP4 ADD MSTORE PUSH2 0x100 SWAP1 SWAP2 ADD SWAP1 MLOAD DUP1 SWAP2 SUB SWAP1 LOG1 JUMPDEST SWAP4 POP POP POP POP SWAP1 JUMP JUMPDEST PUSH1 0x0 PUSH3 0xA69CB PUSH1 0xEB SHL PUSH2 0x178C PUSH2 0xC6E JUMP JUMPDEST PUSH1 0x1 PUSH1 0x1 PUSH1 0xA0 SHL SUB AND PUSH4 0x2528F0FE DUP3 PUSH1 0x40 MLOAD PUSH1 0x1 PUSH1 0x1 PUSH1 0xE0 SHL SUB NOT PUSH1 0xE0 DUP5 SWAP1 SHL AND DUP2 MSTORE PUSH1 0x4 DUP2 ADD SWAP2 SWAP1 SWAP2 MSTORE PUSH1 0x24 ADD PUSH1 0x20 PUSH1 0x40 MLOAD DUP1 DUP4 SUB DUP2 DUP7 DUP1 PUSH2 0x17CD PUSH2 0x461F JUMP JUMPDEST ISZERO DUP1 ISZERO PUSH2 0x17E2 JUMPI PUSH1 0x0 DUP1 PUSH2 0x17DF PUSH2 0x466B JUMP JUMPDEST POP POP JUMPDEST POP GAS PUSH2 0x17EC PUSH2 0x46D6 JUMP JUMPDEST POP POP POP POP POP ISZERO DUP1 ISZERO PUSH2 0x180B JUMPI RETURNDATASIZE PUSH1 0x0 DUP1 RETURNDATACOPY RETURNDATASIZE PUSH1 0x0 PUSH2 0x1808 PUSH2 0x466B JUMP JUMPDEST POP POP JUMPDEST POP POP POP POP PUSH1 0x40 MLOAD RETURNDATASIZE PUSH1 0x20 DUP2 LT ISZERO PUSH2 0x182A JUMPI PUSH1 0x0 DUP1 PUSH2 0x1827 PUSH2 0x466B JUMP JUMPDEST POP POP JUMPDEST DUP2 ADD SWAP1 DUP1 DUP1 MLOAD ISZERO SWAP3 POP PUSH2 0x187D SWAP2 POP POP JUMPI PUSH1 0x40 MLOAD PUSH3 0x461BCD PUSH1 0xE5 SHL DUP2 MSTORE PUSH1 0x20 PUSH1 0x4 DUP3 ADD MSTORE PUSH1 0x1B PUSH1 0x24 DUP3 ADD MSTORE PUSH1 0x0 DUP1 MLOAD PUSH1 0x20 PUSH2 0x4A71 DUP4 CODECOPY DUP2 MLOAD SWAP2 MSTORE PUSH1 0x44 DUP3 ADD MSTORE PUSH1 0x64 ADD PUSH1 0x40 MLOAD DUP1 SWAP2 SUB SWAP1 PUSH2 0x187A PUSH2 0x466B JUMP JUMPDEST POP POP JUMPDEST PUSH3 0x8AA89 PUSH1 0xEB SHL PUSH2 0x188C PUSH2 0xC6E JUMP JUMPDEST PUSH1 0x1 PUSH1 0x1 PUSH1 0xA0 SHL SUB AND PUSH4 0x2528F0FE DUP3 PUSH1 0x40 MLOAD PUSH1 0x1 PUSH1 0x1 PUSH1 0xE0 SHL SUB NOT PUSH1 0xE0 DUP5 SWAP1 SHL AND DUP2 MSTORE PUSH1 0x4 DUP2 ADD SWAP2 SWAP1 SWAP2 MSTORE PUSH1 0x24 ADD PUSH1 0x20 PUSH1 0x40 MLOAD DUP1 DUP4 SUB DUP2 DUP7 DUP1 PUSH2 0x18CD PUSH2 0x461F JUMP JUMPDEST ISZERO DUP1 ISZERO PUSH2 0x18E2 JUMPI PUSH1 0x0 DUP1 PUSH2 0x18DF PUSH2 0x466B JUMP JUMPDEST POP POP JUMPDEST POP GAS PUSH2 0x18EC PUSH2 0x46D6 JUMP JUMPDEST POP POP POP POP POP ISZERO DUP1 ISZERO PUSH2 0x190B JUMPI RETURNDATASIZE PUSH1 0x0 DUP1 RETURNDATACOPY RETURNDATASIZE PUSH1 0x0 PUSH2 0x1908 PUSH2 0x466B JUMP JUMPDEST POP POP JUMPDEST POP POP POP POP PUSH1 0x40 MLOAD RETURNDATASIZE PUSH1 0x20 DUP2 LT ISZERO PUSH2 0x192A JUMPI PUSH1 0x0 DUP1 PUSH2 0x1927 PUSH2 0x466B JUMP JUMPDEST POP POP JUMPDEST DUP2 ADD SWAP1 DUP1 DUP1 MLOAD ISZERO SWAP3 POP PUSH2 0x197D SWAP2 POP POP JUMPI PUSH1 0x40 MLOAD PUSH3 0x461BCD PUSH1 0xE5 SHL DUP2 MSTORE PUSH1 0x20 PUSH1 0x4 DUP3 ADD MSTORE PUSH1 0x1B PUSH1 0x24 DUP3 ADD MSTORE PUSH1 0x0 DUP1 MLOAD PUSH1 0x20 PUSH2 0x4A71 DUP4 CODECOPY DUP2 MLOAD SWAP2 MSTORE PUSH1 0x44 DUP3 ADD MSTORE PUSH1 0x64 ADD PUSH1 0x40 MLOAD DUP1 SWAP2 SUB SWAP1 PUSH2 0x197A PUSH2 0x466B JUMP JUMPDEST POP POP JUMPDEST PUSH1 0x0 PUSH1 0x5 PUSH2 0x1989 PUSH2 0x4576 JUMP JUMPDEST SWAP1 PUSH2 0x100 EXP SWAP1 DIV PUSH1 0xFF AND ISZERO PUSH2 0x19D8 JUMPI PUSH1 0x40 MLOAD PUSH3 0x461BCD PUSH1 0xE5 SHL DUP2 MSTORE PUSH1 0x4 ADD DUP1 DUP1 PUSH1 0x20 ADD DUP3 DUP2 SUB DUP3 MSTORE PUSH1 0x3C DUP2 MSTORE PUSH1 0x20 ADD DUP1 PUSH2 0x4AC1 PUSH1 0x3C SWAP2 CODECOPY PUSH1 0x40 ADD SWAP2 POP POP PUSH1 0x40 MLOAD DUP1 SWAP2 SUB SWAP1 PUSH2 0x19D5 PUSH2 0x466B JUMP JUMPDEST POP POP JUMPDEST PUSH2 0x19E0 PUSH2 0x3FDE JUMP JUMPDEST SWAP3 POP POP POP SWAP1 JUMP JUMPDEST PUSH1 0x0 PUSH1 0x7 PUSH2 0x19F3 PUSH2 0x4576 JUMP JUMPDEST SWAP1 PUSH2 0x100 EXP SWAP1 DIV PUSH1 0x1 PUSH1 0x1 PUSH1 0xA0 SHL SUB AND DUP2 JUMP JUMPDEST PUSH1 0xF PUSH2 0x1A10 PUSH2 0x4576 JUMP JUMPDEST DUP2 JUMP JUMPDEST PUSH1 0x0 PUSH3 0x8AA89 PUSH1 0xEB SHL PUSH2 0x1A24 PUSH2 0xC6E JUMP JUMPDEST PUSH1 0x1 PUSH1 0x1 PUSH1 0xA0 SHL SUB AND PUSH4 0x2528F0FE DUP3 PUSH1 0x40 MLOAD PUSH1 0x1 PUSH1 0x1 PUSH1 0xE0 SHL SUB NOT PUSH1 0xE0 DUP5 SWAP1 SHL AND DUP2 MSTORE PUSH1 0x4 DUP2 ADD SWAP2 SWAP1 SWAP2 MSTORE PUSH1 0x24 ADD PUSH1 0x20 PUSH1 0x40 MLOAD DUP1 DUP4 SUB DUP2 DUP7 DUP1 PUSH2 0x1A65 PUSH2 0x461F JUMP JUMPDEST ISZERO DUP1 ISZERO PUSH2 0x1A7A JUMPI PUSH1 0x0 DUP1 PUSH2 0x1A77 PUSH2 0x466B JUMP JUMPDEST POP POP JUMPDEST POP GAS PUSH2 0x1A84 PUSH2 0x46D6 JUMP JUMPDEST POP POP POP POP POP ISZERO DUP1 ISZERO PUSH2 0x1AA3 JUMPI RETURNDATASIZE PUSH1 0x0 DUP1 RETURNDATACOPY RETURNDATASIZE PUSH1 0x0 PUSH2 0x1AA0 PUSH2 0x466B JUMP JUMPDEST POP POP JUMPDEST POP POP POP POP PUSH1 0x40 MLOAD RETURNDATASIZE PUSH1 0x20 DUP2 LT ISZERO PUSH2 0x1AC2 JUMPI PUSH1 0x0 DUP1 PUSH2 0x1ABF PUSH2 0x466B JUMP JUMPDEST POP POP JUMPDEST DUP2 ADD SWAP1 DUP1 DUP1 MLOAD ISZERO SWAP3 POP PUSH2 0x1B15 SWAP2 POP POP JUMPI PUSH1 0x40 MLOAD PUSH3 0x461BCD PUSH1 0xE5 SHL DUP2 MSTORE PUSH1 0x20 PUSH1 0x4 DUP3 ADD MSTORE PUSH1 0x1B PUSH1 0x24 DUP3 ADD MSTORE PUSH1 0x0 DUP1 MLOAD PUSH1 0x20 PUSH2 0x4A71 DUP4 CODECOPY DUP2 MLOAD SWAP2 MSTORE PUSH1 0x44 DUP3 ADD MSTORE PUSH1 0x64 ADD PUSH1 0x40 MLOAD DUP1 SWAP2 SUB SWAP1 PUSH2 0x1B12 PUSH2 0x466B JUMP JUMPDEST POP POP JUMPDEST PUSH1 0x0 PUSH1 0x5 PUSH2 0x1B21 PUSH2 0x4576 JUMP JUMPDEST SWAP1 PUSH2 0x100 EXP SWAP1 DIV PUSH1 0xFF AND ISZERO PUSH2 0x1B70 JUMPI PUSH1 0x40 MLOAD PUSH3 0x461BCD PUSH1 0xE5 SHL DUP2 MSTORE PUSH1 0x4 ADD DUP1 DUP1 PUSH1 0x20 ADD DUP3 DUP2 SUB DUP3 MSTORE PUSH1 0x3C DUP2 MSTORE PUSH1 0x20 ADD DUP1 PUSH2 0x4AC1 PUSH1 0x3C SWAP2 CODECOPY PUSH1 0x40 ADD SWAP2 POP POP PUSH1 0x40 MLOAD DUP1 SWAP2 SUB SWAP1 PUSH2 0x1B6D PUSH2 0x466B JUMP JUMPDEST POP POP JUMPDEST PUSH2 0x1B78 PUSH2 0xC6E JUMP JUMPDEST PUSH1 0x1 PUSH1 0x1 PUSH1 0xA0 SHL SUB AND PUSH4 0xAC82F608 PUSH3 0x8AA89 PUSH1 0xEB SHL PUSH1 0x40 MLOAD PUSH1 0x1 PUSH1 0x1 PUSH1 0xE0 SHL SUB NOT PUSH1 0xE0 DUP5 SWAP1 SHL AND DUP2 MSTORE PUSH1 0x4 DUP2 ADD SWAP2 SWAP1 SWAP2 MSTORE PUSH1 0x24 ADD PUSH1 0x20 PUSH1 0x40 MLOAD DUP1 DUP4 SUB DUP2 DUP7 DUP1 PUSH2 0x1BBF PUSH2 0x461F JUMP JUMPDEST ISZERO DUP1 ISZERO PUSH2 0x1BD4 JUMPI PUSH1 0x0 DUP1 PUSH2 0x1BD1 PUSH2 0x466B JUMP JUMPDEST POP POP JUMPDEST POP GAS PUSH2 0x1BDE PUSH2 0x46D6 JUMP JUMPDEST POP POP POP POP POP ISZERO DUP1 ISZERO PUSH2 0x1BFD JUMPI RETURNDATASIZE PUSH1 0x0 DUP1 RETURNDATACOPY RETURNDATASIZE PUSH1 0x0 PUSH2 0x1BFA PUSH2 0x466B JUMP JUMPDEST POP POP JUMPDEST POP POP POP POP PUSH1 0x40 MLOAD RETURNDATASIZE PUSH1 0x20 DUP2 LT ISZERO PUSH2 0x1C1C JUMPI PUSH1 0x0 DUP1 PUSH2 0x1C19 PUSH2 0x466B JUMP JUMPDEST POP POP JUMPDEST DUP2 ADD SWAP1 DUP1 DUP1 MLOAD DUP7 EQ SWAP3 POP PUSH2 0x1C6D SWAP2 POP POP JUMPI PUSH1 0x40 MLOAD PUSH3 0x461BCD PUSH1 0xE5 SHL DUP2 MSTORE PUSH1 0x4 ADD DUP1 DUP1 PUSH1 0x20 ADD DUP3 DUP2 SUB DUP3 MSTORE PUSH1 0x25 DUP2 MSTORE PUSH1 0x20 ADD DUP1 PUSH2 0x4AFD PUSH1 0x25 SWAP2 CODECOPY PUSH1 0x40 ADD SWAP2 POP POP PUSH1 0x40 MLOAD DUP1 SWAP2 SUB SWAP1 PUSH2 0x1C6A PUSH2 0x466B JUMP JUMPDEST POP POP JUMPDEST PUSH2 0x1C75 PUSH2 0xCC2 JUMP JUMPDEST SWAP4 SWAP3 POP POP POP JUMP JUMPDEST PUSH1 0x0 PUSH2 0x1D44 PUSH2 0x1C89 PUSH2 0xC6E JUMP JUMPDEST PUSH1 0x1 PUSH1 0x1 PUSH1 0xA0 SHL SUB AND PUSH4 0xAC82F608 PUSH3 0x8AA89 PUSH1 0xEB SHL PUSH1 0x40 MLOAD PUSH1 0x1 PUSH1 0x1 PUSH1 0xE0 SHL SUB NOT PUSH1 0xE0 DUP5 SWAP1 SHL AND DUP2 MSTORE PUSH1 0x4 DUP2 ADD SWAP2 SWAP1 SWAP2 MSTORE PUSH1 0x24 ADD PUSH1 0x20 PUSH1 0x40 MLOAD DUP1 DUP4 SUB DUP2 DUP7 DUP1 PUSH2 0x1CD0 PUSH2 0x461F JUMP JUMPDEST ISZERO DUP1 ISZERO PUSH2 0x1CE5 JUMPI PUSH1 0x0 DUP1 PUSH2 0x1CE2 PUSH2 0x466B JUMP JUMPDEST POP POP JUMPDEST POP GAS PUSH2 0x1CEF PUSH2 0x46D6 JUMP JUMPDEST POP POP POP POP POP ISZERO DUP1 ISZERO PUSH2 0x1D0E JUMPI RETURNDATASIZE PUSH1 0x0 DUP1 RETURNDATACOPY RETURNDATASIZE PUSH1 0x0 PUSH2 0x1D0B PUSH2 0x466B JUMP JUMPDEST POP POP JUMPDEST POP POP POP POP PUSH1 0x40 MLOAD RETURNDATASIZE PUSH1 0x20 DUP2 LT ISZERO PUSH2 0x1D2D JUMPI PUSH1 0x0 DUP1 PUSH2 0x1D2A PUSH2 0x466B JUMP JUMPDEST POP POP JUMPDEST DUP2 ADD SWAP1 DUP1 DUP1 MLOAD DUP7 SWAP4 POP SWAP2 POP POP PUSH4 0xFFFFFFFF PUSH2 0x3E72 AND JUMP JUMPDEST SWAP1 POP JUMPDEST SWAP2 SWAP1 POP JUMP JUMPDEST PUSH2 0x1D54 PUSH2 0x4196 JUMP JUMPDEST DUP1 PUSH1 0x1 DUP1 DUP1 PUSH2 0x1D61 PUSH2 0x4576 JUMP JUMPDEST DUP2 PUSH1 0x1 PUSH1 0x1 PUSH1 0xA0 SHL SUB MUL NOT AND SWAP1 DUP4 PUSH1 0x1 PUSH1 0x1 PUSH1 0xA0 SHL SUB AND MUL OR SWAP1 PUSH2 0x1D83 PUSH2 0x45D1 JUMP JUMPDEST POP POP POP PUSH32 0x906A1C6BD7E3091EA86693DD029A831C19049CE77F1DCE2CE0BAB1CACBABCE22 DUP2 PUSH1 0x40 MLOAD PUSH1 0x1 PUSH1 0x1 PUSH1 0xA0 SHL SUB SWAP1 SWAP2 AND DUP2 MSTORE PUSH1 0x20 ADD PUSH1 0x40 MLOAD DUP1 SWAP2 SUB SWAP1 LOG1 POP JUMP JUMPDEST PUSH2 0x1DCE PUSH2 0x4196 JUMP JUMPDEST PUSH1 0x0 PUSH1 0x5 PUSH2 0x1DDA PUSH2 0x4576 JUMP JUMPDEST SWAP1 PUSH2 0x100 EXP SWAP1 DIV PUSH1 0xFF AND ISZERO ISZERO DUP2 ISZERO ISZERO EQ ISZERO PUSH2 0x1DF4 JUMPI PUSH2 0x1E99 JUMP JUMPDEST DUP1 PUSH1 0x5 PUSH1 0x1 DUP2 PUSH2 0x1E02 PUSH2 0x4576 JUMP JUMPDEST DUP2 PUSH1 0xFF MUL NOT AND SWAP1 DUP4 ISZERO ISZERO MUL OR SWAP1 PUSH2 0x1E17 PUSH2 0x45D1 JUMP JUMPDEST POP POP POP PUSH1 0x5 PUSH1 0x0 SWAP1 PUSH2 0x1E27 PUSH2 0x4576 JUMP JUMPDEST SWAP1 PUSH2 0x100 EXP SWAP1 DIV PUSH1 0xFF AND ISZERO PUSH2 0x1E4E JUMPI GAS PUSH2 0x1E3F PUSH2 0x48A5 JUMP JUMPDEST DUP1 PUSH1 0x4 PUSH2 0x1E4A PUSH2 0x45D1 JUMP JUMPDEST POP POP POP JUMPDEST PUSH32 0x8FB6C181EE25A520CF3DD6565006EF91229FCFE5A989566C2A3B8C115570CEC5 PUSH1 0x0 PUSH1 0x5 PUSH2 0x1E7B PUSH2 0x4576 JUMP JUMPDEST SWAP1 PUSH2 0x100 EXP SWAP1 DIV PUSH1 0xFF AND PUSH1 0x40 MLOAD SWAP1 ISZERO ISZERO DUP2 MSTORE PUSH1 0x20 ADD PUSH1 0x40 MLOAD DUP1 SWAP2 SUB SWAP1 LOG1 JUMPDEST POP JUMP JUMPDEST PUSH1 0x2 PUSH2 0x1A10 PUSH2 0x4576 JUMP JUMPDEST PUSH1 0x0 PUSH1 0x1 PUSH1 0x6 PUSH1 0x0 DUP3 DUP3 PUSH2 0x1EB8 PUSH2 0x4576 JUMP JUMPDEST ADD SWAP3 POP POP DUP2 SWAP1 PUSH2 0x1EC6 PUSH2 0x45D1 JUMP JUMPDEST POP POP POP PUSH1 0x0 PUSH1 0x6 PUSH2 0x1ED5 PUSH2 0x4576 JUMP JUMPDEST SWAP1 POP PUSH3 0x8AA89 PUSH1 0xEB SHL PUSH2 0x1EE6 PUSH2 0xC6E JUMP JUMPDEST PUSH1 0x1 PUSH1 0x1 PUSH1 0xA0 SHL SUB AND PUSH4 0x2528F0FE DUP3 PUSH1 0x40 MLOAD PUSH1 0x1 PUSH1 0x1 PUSH1 0xE0 SHL SUB NOT PUSH1 0xE0 DUP5 SWAP1 SHL AND DUP2 MSTORE PUSH1 0x4 DUP2 ADD SWAP2 SWAP1 SWAP2 MSTORE PUSH1 0x24 ADD PUSH1 0x20 PUSH1 0x40 MLOAD DUP1 DUP4 SUB DUP2 DUP7 DUP1 PUSH2 0x1F27 PUSH2 0x461F JUMP JUMPDEST ISZERO DUP1 ISZERO PUSH2 0x1F3C JUMPI PUSH1 0x0 DUP1 PUSH2 0x1F39 PUSH2 0x466B JUMP JUMPDEST POP POP JUMPDEST POP GAS PUSH2 0x1F46 PUSH2 0x46D6 JUMP JUMPDEST POP POP POP POP POP ISZERO DUP1 ISZERO PUSH2 0x1F65 JUMPI RETURNDATASIZE PUSH1 0x0 DUP1 RETURNDATACOPY RETURNDATASIZE PUSH1 0x0 PUSH2 0x1F62 PUSH2 0x466B JUMP JUMPDEST POP POP JUMPDEST POP POP POP POP PUSH1 0x40 MLOAD RETURNDATASIZE PUSH1 0x20 DUP2 LT ISZERO PUSH2 0x1F84 JUMPI PUSH1 0x0 DUP1 PUSH2 0x1F81 PUSH2 0x466B JUMP JUMPDEST POP POP JUMPDEST DUP2 ADD SWAP1 DUP1 DUP1 MLOAD ISZERO SWAP3 POP PUSH2 0x1FD7 SWAP2 POP POP JUMPI PUSH1 0x40 MLOAD PUSH3 0x461BCD PUSH1 0xE5 SHL DUP2 MSTORE PUSH1 0x20 PUSH1 0x4 DUP3 ADD MSTORE PUSH1 0x1B PUSH1 0x24 DUP3 ADD MSTORE PUSH1 0x0 DUP1 MLOAD PUSH1 0x20 PUSH2 0x4A71 DUP4 CODECOPY DUP2 MLOAD SWAP2 MSTORE PUSH1 0x44 DUP3 ADD MSTORE PUSH1 0x64 ADD PUSH1 0x40 MLOAD DUP1 SWAP2 SUB SWAP1 PUSH2 0x1FD4 PUSH2 0x466B JUMP JUMPDEST POP POP JUMPDEST PUSH1 0x0 PUSH1 0x5 PUSH2 0x1FE3 PUSH2 0x4576 JUMP JUMPDEST SWAP1 PUSH2 0x100 EXP SWAP1 DIV PUSH1 0xFF AND ISZERO PUSH2 0x2032 JUMPI PUSH1 0x40 MLOAD PUSH3 0x461BCD PUSH1 0xE5 SHL DUP2 MSTORE PUSH1 0x4 ADD DUP1 DUP1 PUSH1 0x20 ADD DUP3 DUP2 SUB DUP3 MSTORE PUSH1 0x3C DUP2 MSTORE PUSH1 0x20 ADD DUP1 PUSH2 0x4AC1 PUSH1 0x3C SWAP2 CODECOPY PUSH1 0x40 ADD SWAP2 POP POP PUSH1 0x40 MLOAD DUP1 SWAP2 SUB SWAP1 PUSH2 0x202F PUSH2 0x466B JUMP JUMPDEST POP POP JUMPDEST PUSH2 0x203A PUSH2 0xCC2 JUMP JUMPDEST SWAP3 POP POP PUSH1 0x6 PUSH2 0x2047 PUSH2 0x4576 JUMP JUMPDEST DUP2 EQ PUSH2 0x20A2 JUMPI PUSH1 0x40 MLOAD PUSH3 0x461BCD PUSH1 0xE5 SHL DUP2 MSTORE PUSH1 0x20 PUSH1 0x4 DUP3 ADD MSTORE PUSH1 0x1F PUSH1 0x24 DUP3 ADD MSTORE PUSH32 0x5265656E7472616E637947756172643A207265656E7472616E742063616C6C00 PUSH1 0x44 DUP3 ADD MSTORE PUSH1 0x64 ADD PUSH1 0x40 MLOAD DUP1 SWAP2 SUB SWAP1 PUSH2 0x209F PUSH2 0x466B JUMP JUMPDEST POP POP JUMPDEST POP SWAP1 JUMP JUMPDEST PUSH2 0x20AE PUSH2 0x4196 JUMP JUMPDEST PUSH1 0x1 PUSH1 0x1 PUSH1 0xA0 SHL SUB DUP2 AND PUSH2 0x2111 JUMPI PUSH1 0x40 MLOAD PUSH3 0x461BCD PUSH1 0xE5 SHL DUP2 MSTORE PUSH1 0x20 PUSH1 0x4 DUP3 ADD MSTORE PUSH1 0x1C PUSH1 0x24 DUP3 ADD MSTORE PUSH32 0x42656E6566696369617279206D757374206E6F74206265207A65726F00000000 PUSH1 0x44 DUP3 ADD MSTORE PUSH1 0x64 ADD PUSH1 0x40 MLOAD DUP1 SWAP2 SUB SWAP1 PUSH2 0x210E PUSH2 0x466B JUMP JUMPDEST POP POP JUMPDEST DUP1 PUSH1 0x3 PUSH2 0x100 DUP2 PUSH2 0x2120 PUSH2 0x4576 JUMP JUMPDEST DUP2 PUSH1 0x1 PUSH1 0x1 PUSH1 0xA0 SHL SUB MUL NOT AND SWAP1 DUP4 PUSH1 0x1 PUSH1 0x1 PUSH1 0xA0 SHL SUB AND MUL OR SWAP1 PUSH2 0x2142 PUSH2 0x45D1 JUMP JUMPDEST POP POP POP PUSH32 0xD5DA63A0B864B315BC04128DEDBC93888C8529EE6CF47CE664DC204339228C53 DUP2 PUSH1 0x40 MLOAD PUSH1 0x1 PUSH1 0x1 PUSH1 0xA0 SHL SUB SWAP1 SWAP2 AND DUP2 MSTORE PUSH1 0x20 ADD PUSH1 0x40 MLOAD DUP1 SWAP2 SUB SWAP1 LOG1 POP JUMP JUMPDEST PUSH1 0x0 PUSH1 0xA PUSH2 0x19F3 PUSH2 0x4576 JUMP JUMPDEST PUSH2 0x2199 PUSH2 0x4196 JUMP JUMPDEST PUSH1 0x0 DUP1 PUSH1 0x2 PUSH2 0x21A6 PUSH2 0x45D1 JUMP JUMPDEST POP POP POP PUSH1 0x0 PUSH1 0x3 PUSH1 0x0 PUSH2 0x100 EXP DUP2 PUSH2 0x21BC PUSH2 0x4576 JUMP JUMPDEST DUP2 PUSH1 0xFF MUL NOT AND SWAP1 DUP4 ISZERO ISZERO MUL OR SWAP1 PUSH2 0x21D1 PUSH2 0x45D1 JUMP JUMPDEST POP POP POP PUSH32 0x6ADCC7125002935E0AA31697538EBBD65CFDDF20431EB6ECDCFC3E238BFD082C PUSH1 0x40 MLOAD PUSH1 0x40 MLOAD DUP1 SWAP2 SUB SWAP1 LOG1 JUMP JUMPDEST PUSH2 0x220A PUSH2 0x4196 JUMP JUMPDEST DUP1 PUSH1 0x7 PUSH1 0x1 DUP2 PUSH2 0x2218 PUSH2 0x4576 JUMP JUMPDEST DUP2 PUSH1 0x1 PUSH1 0x1 PUSH1 0xA0 SHL SUB MUL NOT AND SWAP1 DUP4 PUSH1 0x1 PUSH1 0x1 PUSH1 0xA0 SHL SUB AND MUL OR SWAP1 PUSH2 0x223A PUSH2 0x45D1 JUMP JUMPDEST POP PUSH1 0x0 SWAP2 POP POP JUMPDEST PUSH1 0x9 DUP1 PUSH2 0x224C PUSH2 0x4576 JUMP JUMPDEST SWAP1 POP DUP2 LT ISZERO PUSH2 0x23C8 JUMPI PUSH1 0x0 PUSH1 0x9 DUP3 DUP2 PUSH2 0x2263 PUSH2 0x4576 JUMP JUMPDEST DUP2 LT PUSH2 0x226B JUMPI INVALID JUMPDEST SWAP1 PUSH1 0x0 MSTORE PUSH1 0x20 PUSH1 0x0 KECCAK256 ADD PUSH2 0x227D PUSH2 0x4576 JUMP JUMPDEST SWAP1 POP PUSH1 0x0 PUSH1 0x7 PUSH2 0x228B PUSH2 0x4576 JUMP JUMPDEST SWAP1 PUSH2 0x100 EXP SWAP1 DIV PUSH1 0x1 PUSH1 0x1 PUSH1 0xA0 SHL SUB AND PUSH1 0x1 PUSH1 0x1 PUSH1 0xA0 SHL SUB AND PUSH4 0xDACB2D01 DUP3 PUSH1 0x40 MLOAD PUSH1 0x1 PUSH1 0x1 PUSH1 0xE0 SHL SUB NOT PUSH1 0xE0 DUP5 SWAP1 SHL AND DUP2 MSTORE PUSH1 0x4 DUP2 ADD SWAP2 SWAP1 SWAP2 MSTORE PUSH1 0x40 PUSH1 0x24 DUP3 ADD DUP2 SWAP1 MSTORE PUSH1 0x17 PUSH1 0x44 DUP4 ADD MSTORE PUSH32 0x5265736F6C766572206D697373696E6720746172676574000000000000000000 PUSH1 0x64 DUP4 ADD MSTORE PUSH1 0x84 SWAP1 SWAP2 ADD SWAP1 PUSH1 0x20 SWAP1 MLOAD DUP1 DUP4 SUB DUP2 DUP7 DUP1 PUSH2 0x2314 PUSH2 0x461F JUMP JUMPDEST ISZERO DUP1 ISZERO PUSH2 0x2329 JUMPI PUSH1 0x0 DUP1 PUSH2 0x2326 PUSH2 0x466B JUMP JUMPDEST POP POP JUMPDEST POP GAS PUSH2 0x2333 PUSH2 0x46D6 JUMP JUMPDEST POP POP POP POP POP ISZERO DUP1 ISZERO PUSH2 0x2352 JUMPI RETURNDATASIZE PUSH1 0x0 DUP1 RETURNDATACOPY RETURNDATASIZE PUSH1 0x0 PUSH2 0x234F PUSH2 0x466B JUMP JUMPDEST POP POP JUMPDEST POP POP POP POP PUSH1 0x40 MLOAD RETURNDATASIZE PUSH1 0x20 DUP2 LT ISZERO PUSH2 0x2371 JUMPI PUSH1 0x0 DUP1 PUSH2 0x236E PUSH2 0x466B JUMP JUMPDEST POP POP JUMPDEST DUP2 ADD SWAP1 DUP1 DUP1 MLOAD PUSH1 0x0 DUP6 DUP2 MSTORE PUSH1 0x8 PUSH1 0x20 MSTORE SWAP1 SWAP4 POP PUSH1 0x40 SWAP3 POP SWAP1 POP KECCAK256 PUSH1 0x1 DUP2 PUSH2 0x2396 PUSH2 0x4576 JUMP JUMPDEST DUP2 PUSH1 0x1 PUSH1 0x1 PUSH1 0xA0 SHL SUB MUL NOT AND SWAP1 DUP4 PUSH1 0x1 PUSH1 0x1 PUSH1 0xA0 SHL SUB AND MUL OR SWAP1 PUSH2 0x23B8 PUSH2 0x45D1 JUMP JUMPDEST POP POP PUSH1 0x1 SWAP1 SWAP3 ADD SWAP2 POP PUSH2 0x2241 SWAP1 POP JUMP JUMPDEST POP POP JUMP JUMPDEST PUSH1 0xE PUSH2 0x1A10 PUSH2 0x4576 JUMP JUMPDEST PUSH1 0x0 PUSH1 0x1 PUSH2 0x19F3 PUSH2 0x4576 JUMP JUMPDEST PUSH1 0x0 PUSH1 0x5 PUSH2 0x23EE PUSH2 0x4576 JUMP JUMPDEST SWAP1 PUSH2 0x100 EXP SWAP1 DIV PUSH1 0xFF AND DUP2 JUMP JUMPDEST PUSH1 0x0 PUSH1 0x1 PUSH1 0x1 PUSH1 0xA0 SHL SUB DUP3 AND DUP2 PUSH1 0x7 PUSH2 0x2412 PUSH2 0x4576 JUMP JUMPDEST SWAP1 PUSH2 0x100 EXP SWAP1 DIV PUSH1 0x1 PUSH1 0x1 PUSH1 0xA0 SHL SUB AND PUSH1 0x1 PUSH1 0x1 PUSH1 0xA0 SHL SUB AND EQ PUSH2 0x2438 JUMPI POP PUSH1 0x0 PUSH2 0x1D47 JUMP JUMPDEST PUSH1 0x0 JUMPDEST PUSH1 0x9 DUP1 PUSH2 0x2446 PUSH2 0x4576 JUMP JUMPDEST SWAP1 POP DUP2 LT ISZERO PUSH2 0x25CC JUMPI PUSH1 0x0 PUSH1 0x9 DUP3 DUP2 PUSH2 0x245D PUSH2 0x4576 JUMP JUMPDEST DUP2 LT PUSH2 0x2465 JUMPI INVALID JUMPDEST SWAP1 PUSH1 0x0 MSTORE PUSH1 0x20 PUSH1 0x0 KECCAK256 ADD PUSH2 0x2477 PUSH2 0x4576 JUMP JUMPDEST PUSH1 0x0 DUP2 DUP2 MSTORE PUSH1 0x8 PUSH1 0x20 MSTORE SWAP1 SWAP2 POP PUSH1 0x40 SWAP1 KECCAK256 PUSH1 0x0 SWAP1 PUSH2 0x2493 PUSH2 0x4576 JUMP JUMPDEST PUSH1 0x1 PUSH1 0x1 PUSH1 0xA0 SHL SUB PUSH2 0x100 SWAP3 SWAP1 SWAP3 EXP SWAP1 DIV AND PUSH1 0x0 PUSH1 0x7 PUSH2 0x24B1 PUSH2 0x4576 JUMP JUMPDEST SWAP1 PUSH2 0x100 EXP SWAP1 DIV PUSH1 0x1 PUSH1 0x1 PUSH1 0xA0 SHL SUB AND PUSH1 0x1 PUSH1 0x1 PUSH1 0xA0 SHL SUB AND PUSH4 0x21F8A721 DUP4 PUSH1 0x40 MLOAD PUSH1 0x1 PUSH1 0x1 PUSH1 0xE0 SHL SUB NOT PUSH1 0xE0 DUP5 SWAP1 SHL AND DUP2 MSTORE PUSH1 0x4 DUP2 ADD SWAP2 SWAP1 SWAP2 MSTORE PUSH1 0x24 ADD PUSH1 0x20 PUSH1 0x40 MLOAD DUP1 DUP4 SUB DUP2 DUP7 DUP1 PUSH2 0x2502 PUSH2 0x461F JUMP JUMPDEST ISZERO DUP1 ISZERO PUSH2 0x2517 JUMPI PUSH1 0x0 DUP1 PUSH2 0x2514 PUSH2 0x466B JUMP JUMPDEST POP POP JUMPDEST POP GAS PUSH2 0x2521 PUSH2 0x46D6 JUMP JUMPDEST POP POP POP POP POP ISZERO DUP1 ISZERO PUSH2 0x2540 JUMPI RETURNDATASIZE PUSH1 0x0 DUP1 RETURNDATACOPY RETURNDATASIZE PUSH1 0x0 PUSH2 0x253D PUSH2 0x466B JUMP JUMPDEST POP POP JUMPDEST POP POP POP POP PUSH1 0x40 MLOAD RETURNDATASIZE PUSH1 0x20 DUP2 LT ISZERO PUSH2 0x255F JUMPI PUSH1 0x0 DUP1 PUSH2 0x255C PUSH2 0x466B JUMP JUMPDEST POP POP JUMPDEST DUP2 ADD SWAP1 DUP1 DUP1 MLOAD PUSH1 0x1 PUSH1 0x1 PUSH1 0xA0 SHL SUB AND SWAP4 SWAP1 SWAP4 EQ ISZERO SWAP3 POP DUP3 SWAP2 POP PUSH2 0x25B3 SWAP1 POP JUMPI POP PUSH1 0x0 DUP2 DUP2 MSTORE PUSH1 0x8 PUSH1 0x20 MSTORE PUSH1 0x40 DUP2 KECCAK256 PUSH1 0x0 SWAP1 PUSH2 0x2598 PUSH2 0x4576 JUMP JUMPDEST SWAP1 PUSH2 0x100 EXP SWAP1 DIV PUSH1 0x1 PUSH1 0x1 PUSH1 0xA0 SHL SUB AND PUSH1 0x1 PUSH1 0x1 PUSH1 0xA0 SHL SUB AND EQ JUMPDEST ISZERO PUSH2 0x25C3 JUMPI PUSH1 0x0 SWAP3 POP POP POP PUSH2 0x1D47 JUMP JUMPDEST POP PUSH1 0x1 ADD PUSH2 0x243B JUMP JUMPDEST POP PUSH1 0x1 SWAP3 SWAP2 POP POP JUMP JUMPDEST PUSH2 0x25DD PUSH2 0x4196 JUMP JUMPDEST DUP1 PUSH1 0xA PUSH1 0x1 DUP2 PUSH2 0x25EB PUSH2 0x4576 JUMP JUMPDEST DUP2 PUSH1 0x1 PUSH1 0x1 PUSH1 0xA0 SHL SUB MUL NOT AND SWAP1 DUP4 PUSH1 0x1 PUSH1 0x1 PUSH1 0xA0 SHL SUB AND MUL OR SWAP1 PUSH2 0x260D PUSH2 0x45D1 JUMP JUMPDEST POP POP POP PUSH32 0x4DEB077BF9C4BC824CC2C989E01A5E53B0A4ECC44C5039D46ABC9FFC88F8A050 PUSH1 0xA PUSH1 0x0 SWAP1 PUSH2 0x263E PUSH2 0x4576 JUMP JUMPDEST SWAP1 PUSH2 0x100 EXP SWAP1 DIV PUSH1 0x1 PUSH1 0x1 PUSH1 0xA0 SHL SUB AND PUSH1 0x40 MLOAD PUSH1 0x1 PUSH1 0x1 PUSH1 0xA0 SHL SUB SWAP1 SWAP2 AND DUP2 MSTORE PUSH1 0x20 ADD PUSH1 0x40 MLOAD DUP1 SWAP2 SUB SWAP1 LOG1 POP JUMP JUMPDEST PUSH1 0xC PUSH2 0x1A10 PUSH2 0x4576 JUMP JUMPDEST PUSH1 0x0 PUSH1 0x1 PUSH2 0x2682 PUSH2 0x4576 JUMP JUMPDEST SWAP1 PUSH2 0x100 EXP SWAP1 DIV PUSH1 0x1 PUSH1 0x1 PUSH1 0xA0 SHL SUB AND PUSH1 0x1 PUSH1 0x1 PUSH1 0xA0 SHL SUB AND GAS PUSH2 0x26A4 PUSH2 0x485F JUMP JUMPDEST PUSH1 0x1 PUSH1 0x1 PUSH1 0xA0 SHL SUB AND EQ PUSH2 0x26F2 JUMPI PUSH1 0x40 MLOAD PUSH3 0x461BCD PUSH1 0xE5 SHL DUP2 MSTORE PUSH1 0x4 ADD DUP1 DUP1 PUSH1 0x20 ADD DUP3 DUP2 SUB DUP3 MSTORE PUSH1 0x35 DUP2 MSTORE PUSH1 0x20 ADD DUP1 PUSH2 0x4977 PUSH1 0x35 SWAP2 CODECOPY PUSH1 0x40 ADD SWAP2 POP POP PUSH1 0x40 MLOAD DUP1 SWAP2 SUB SWAP1 PUSH2 0x26EF PUSH2 0x466B JUMP JUMPDEST POP POP JUMPDEST PUSH32 0xB532073B38C83145E3E5135377A08BF9AAB55BC0FD7C1179CD4FB995D2A5159C PUSH1 0x0 DUP1 PUSH2 0x271E PUSH2 0x4576 JUMP JUMPDEST SWAP1 PUSH2 0x100 EXP SWAP1 DIV PUSH1 0x1 PUSH1 0x1 PUSH1 0xA0 SHL SUB AND PUSH1 0x1 PUSH1 0x0 SWAP1 PUSH2 0x273B PUSH2 0x4576 JUMP JUMPDEST SWAP1 PUSH2 0x100 EXP SWAP1 DIV PUSH1 0x1 PUSH1 0x1 PUSH1 0xA0 SHL SUB AND PUSH1 0x40 MLOAD PUSH1 0x1 PUSH1 0x1 PUSH1 0xA0 SHL SUB SWAP3 DUP4 AND DUP2 MSTORE SWAP2 AND PUSH1 0x20 DUP3 ADD MSTORE PUSH1 0x40 SWAP1 DUP2 ADD SWAP1 MLOAD DUP1 SWAP2 SUB SWAP1 LOG1 PUSH1 0x0 PUSH1 0x1 PUSH2 0x277A PUSH2 0x4576 JUMP JUMPDEST SWAP1 PUSH2 0x100 EXP SWAP1 DIV PUSH1 0x1 PUSH1 0x1 PUSH1 0xA0 SHL SUB AND PUSH1 0x0 DUP1 PUSH2 0x100 EXP DUP2 PUSH2 0x279A PUSH2 0x4576 JUMP JUMPDEST DUP2 PUSH1 0x1 PUSH1 0x1 PUSH1 0xA0 SHL SUB MUL NOT AND SWAP1 DUP4 PUSH1 0x1 PUSH1 0x1 PUSH1 0xA0 SHL SUB AND MUL OR SWAP1 PUSH2 0x27BC PUSH2 0x45D1 JUMP JUMPDEST POP POP POP PUSH1 0x0 PUSH1 0x1 PUSH1 0x0 PUSH2 0x100 EXP DUP2 PUSH2 0x27D2 PUSH2 0x4576 JUMP JUMPDEST DUP2 PUSH1 0x1 PUSH1 0x1 PUSH1 0xA0 SHL SUB MUL NOT AND SWAP1 DUP4 PUSH1 0x1 PUSH1 0x1 PUSH1 0xA0 SHL SUB AND MUL OR SWAP1 PUSH2 0x27F4 PUSH2 0x45D1 JUMP JUMPDEST POP POP POP JUMP JUMPDEST PUSH1 0x0 DUP1 PUSH1 0xC PUSH2 0x2806 PUSH2 0x4576 JUMP JUMPDEST SWAP1 POP JUMPDEST PUSH1 0xD PUSH2 0x2813 PUSH2 0x4576 JUMP JUMPDEST DUP2 LT ISZERO PUSH2 0x2940 JUMPI PUSH2 0x2822 PUSH2 0x478F JUMP JUMPDEST PUSH1 0x0 DUP3 DUP2 MSTORE PUSH1 0xB PUSH1 0x20 MSTORE PUSH1 0x40 SWAP1 KECCAK256 PUSH1 0x40 MLOAD PUSH1 0x40 DUP1 DUP3 ADD SWAP1 MSTORE SWAP1 DUP2 PUSH1 0x0 DUP3 PUSH2 0x2847 PUSH2 0x4576 JUMP JUMPDEST PUSH1 0x1 PUSH1 0x1 PUSH1 0xA0 SHL SUB PUSH2 0x100 SWAP3 SWAP1 SWAP3 EXP SWAP1 DIV AND DUP2 MSTORE PUSH1 0x20 ADD PUSH1 0x1 DUP3 ADD PUSH2 0x286A PUSH2 0x4576 JUMP JUMPDEST SWAP1 MSTORE POP SWAP1 POP GAS PUSH2 0x2878 PUSH2 0x485F JUMP JUMPDEST PUSH1 0x1 PUSH1 0x1 PUSH1 0xA0 SHL SUB AND DUP2 MLOAD PUSH1 0x1 PUSH1 0x1 PUSH1 0xA0 SHL SUB AND EQ ISZERO PUSH2 0x2937 JUMPI PUSH2 0x28A7 DUP2 PUSH1 0x20 ADD MLOAD DUP5 SWAP1 PUSH4 0xFFFFFFFF PUSH2 0x3E9C AND JUMP JUMPDEST PUSH1 0x0 DUP4 DUP2 MSTORE PUSH1 0xB PUSH1 0x20 MSTORE SWAP1 SWAP4 POP PUSH1 0x40 SWAP1 KECCAK256 PUSH1 0x0 DUP2 PUSH1 0x1 DUP2 PUSH2 0x28C6 PUSH2 0x4576 JUMP JUMPDEST SWAP1 PUSH1 0x1 PUSH1 0x1 PUSH1 0xA0 SHL SUB MUL NOT AND SWAP1 PUSH2 0x28DB PUSH2 0x45D1 JUMP JUMPDEST POP POP PUSH1 0x1 DUP3 ADD PUSH1 0x0 SWAP1 PUSH2 0x28EC PUSH2 0x45D1 JUMP JUMPDEST POP POP POP POP DUP2 DUP2 PUSH1 0x0 ADD MLOAD PUSH1 0x1 PUSH1 0x1 PUSH1 0xA0 SHL SUB AND PUSH32 0x3AA2B18EACE5E5727A4AB525921B9B0A1CA1AFDB0F96B599E3AB2D76CB5E7F72 DUP4 PUSH1 0x20 ADD MLOAD PUSH1 0x40 MLOAD SWAP1 DUP2 MSTORE PUSH1 0x20 ADD PUSH1 0x40 MLOAD DUP1 SWAP2 SUB SWAP1 LOG3 JUMPDEST POP PUSH1 0x1 ADD PUSH2 0x2809 JUMP JUMPDEST POP PUSH2 0x294F DUP2 PUSH1 0xE PUSH2 0xF4D PUSH2 0x4576 JUMP JUMPDEST DUP1 PUSH1 0xE PUSH2 0x295A PUSH2 0x45D1 JUMP JUMPDEST POP POP POP PUSH2 0x29A2 PUSH1 0x11 PUSH1 0x0 GAS PUSH2 0x296D PUSH2 0x485F JUMP JUMPDEST PUSH1 0x1 PUSH1 0x1 PUSH1 0xA0 SHL SUB AND PUSH1 0x1 PUSH1 0x1 PUSH1 0xA0 SHL SUB AND DUP2 MSTORE PUSH1 0x20 ADD SWAP1 DUP2 MSTORE PUSH1 0x20 ADD PUSH1 0x0 KECCAK256 PUSH2 0x2995 PUSH2 0x4576 JUMP JUMPDEST DUP3 SWAP1 PUSH4 0xFFFFFFFF PUSH2 0x3E9C AND JUMP JUMPDEST SWAP1 POP PUSH1 0x0 PUSH1 0x11 PUSH1 0x0 GAS PUSH2 0x29B3 PUSH2 0x485F JUMP JUMPDEST PUSH1 0x1 PUSH1 0x1 PUSH1 0xA0 SHL SUB AND PUSH1 0x1 PUSH1 0x1 PUSH1 0xA0 SHL SUB AND DUP2 MSTORE PUSH1 0x20 ADD SWAP1 DUP2 MSTORE PUSH1 0x20 ADD PUSH1 0x0 KECCAK256 DUP2 SWAP1 PUSH2 0x29DD PUSH2 0x45D1 JUMP JUMPDEST POP POP POP PUSH1 0x0 DUP2 GT PUSH2 0x2A28 JUMPI PUSH1 0x40 MLOAD PUSH3 0x461BCD PUSH1 0xE5 SHL DUP2 MSTORE PUSH1 0x4 ADD DUP1 DUP1 PUSH1 0x20 ADD DUP3 DUP2 SUB DUP3 MSTORE PUSH1 0x21 DUP2 MSTORE PUSH1 0x20 ADD DUP1 PUSH2 0x49DB PUSH1 0x21 SWAP2 CODECOPY PUSH1 0x40 ADD SWAP2 POP POP PUSH1 0x40 MLOAD DUP1 SWAP2 SUB SWAP1 PUSH2 0x2A25 PUSH2 0x466B JUMP JUMPDEST POP POP JUMPDEST PUSH2 0x2A30 PUSH2 0x3F93 JUMP JUMPDEST PUSH1 0x1 PUSH1 0x1 PUSH1 0xA0 SHL SUB AND PUSH4 0xA9059CBB GAS PUSH2 0x2A47 PUSH2 0x485F JUMP JUMPDEST DUP4 PUSH1 0x40 MLOAD PUSH1 0x1 PUSH1 0x1 PUSH1 0xE0 SHL SUB NOT PUSH1 0xE0 DUP6 SWAP1 SHL AND DUP2 MSTORE PUSH1 0x1 PUSH1 0x1 PUSH1 0xA0 SHL SUB SWAP1 SWAP3 AND PUSH1 0x4 DUP4 ADD MSTORE PUSH1 0x24 DUP3 ADD MSTORE PUSH1 0x44 ADD PUSH1 0x20 PUSH1 0x40 MLOAD DUP1 DUP4 SUB DUP2 PUSH1 0x0 DUP8 DUP1 PUSH2 0x2A89 PUSH2 0x461F JUMP JUMPDEST ISZERO DUP1 ISZERO PUSH2 0x2A9E JUMPI PUSH1 0x0 DUP1 PUSH2 0x2A9B PUSH2 0x466B JUMP JUMPDEST POP POP JUMPDEST POP GAS PUSH2 0x2AA8 PUSH2 0x47A6 JUMP JUMPDEST POP POP POP POP POP POP ISZERO DUP1 ISZERO PUSH2 0x2AC8 JUMPI RETURNDATASIZE PUSH1 0x0 DUP1 RETURNDATACOPY RETURNDATASIZE PUSH1 0x0 PUSH2 0x2AC5 PUSH2 0x466B JUMP JUMPDEST POP POP JUMPDEST POP POP POP POP PUSH1 0x40 MLOAD RETURNDATASIZE PUSH1 0x20 DUP2 LT ISZERO PUSH2 0x2AE7 JUMPI PUSH1 0x0 DUP1 PUSH2 0x2AE4 PUSH2 0x466B JUMP JUMPDEST POP POP JUMPDEST DUP2 ADD SWAP1 DUP1 DUP1 MLOAD POP PUSH32 0xAF6EC623F558C7B3527FF6C9C09432C7D81A3D38BD2E1EAAEE2EFE7AAC23C28B SWAP3 POP POP POP GAS PUSH2 0x2B1C PUSH2 0x485F JUMP JUMPDEST DUP3 PUSH1 0x40 MLOAD PUSH1 0x1 PUSH1 0x1 PUSH1 0xA0 SHL SUB SWAP1 SWAP3 AND DUP3 MSTORE PUSH1 0x20 DUP3 ADD MSTORE PUSH1 0x40 SWAP1 DUP2 ADD SWAP1 MLOAD DUP1 SWAP2 SUB SWAP1 LOG1 POP JUMP JUMPDEST PUSH1 0x0 DUP1 PUSH2 0x19F3 PUSH2 0x4576 JUMP JUMPDEST PUSH1 0x4 PUSH2 0x1A10 PUSH2 0x4576 JUMP JUMPDEST PUSH1 0x0 PUSH3 0xA69CB PUSH1 0xEB SHL PUSH2 0x2B67 PUSH2 0xC6E JUMP JUMPDEST PUSH1 0x1 PUSH1 0x1 PUSH1 0xA0 SHL SUB AND PUSH4 0x2528F0FE DUP3 PUSH1 0x40 MLOAD PUSH1 0x1 PUSH1 0x1 PUSH1 0xE0 SHL SUB NOT PUSH1 0xE0 DUP5 SWAP1 SHL AND DUP2 MSTORE PUSH1 0x4 DUP2 ADD SWAP2 SWAP1 SWAP2 MSTORE PUSH1 0x24 ADD PUSH1 0x20 PUSH1 0x40 MLOAD DUP1 DUP4 SUB DUP2 DUP7 DUP1 PUSH2 0x2BA8 PUSH2 0x461F JUMP JUMPDEST ISZERO DUP1 ISZERO PUSH2 0x2BBD JUMPI PUSH1 0x0 DUP1 PUSH2 0x2BBA PUSH2 0x466B JUMP JUMPDEST POP POP JUMPDEST POP GAS PUSH2 0x2BC7 PUSH2 0x46D6 JUMP JUMPDEST POP POP POP POP POP ISZERO DUP1 ISZERO PUSH2 0x2BE6 JUMPI RETURNDATASIZE PUSH1 0x0 DUP1 RETURNDATACOPY RETURNDATASIZE PUSH1 0x0 PUSH2 0x2BE3 PUSH2 0x466B JUMP JUMPDEST POP POP JUMPDEST POP POP POP POP PUSH1 0x40 MLOAD RETURNDATASIZE PUSH1 0x20 DUP2 LT ISZERO PUSH2 0x2C05 JUMPI PUSH1 0x0 DUP1 PUSH2 0x2C02 PUSH2 0x466B JUMP JUMPDEST POP POP JUMPDEST DUP2 ADD SWAP1 DUP1 DUP1 MLOAD ISZERO SWAP3 POP PUSH2 0x2C58 SWAP2 POP POP JUMPI PUSH1 0x40 MLOAD PUSH3 0x461BCD PUSH1 0xE5 SHL DUP2 MSTORE PUSH1 0x20 PUSH1 0x4 DUP3 ADD MSTORE PUSH1 0x1B PUSH1 0x24 DUP3 ADD MSTORE PUSH1 0x0 DUP1 MLOAD PUSH1 0x20 PUSH2 0x4A71 DUP4 CODECOPY DUP2 MLOAD SWAP2 MSTORE PUSH1 0x44 DUP3 ADD MSTORE PUSH1 0x64 ADD PUSH1 0x40 MLOAD DUP1 SWAP2 SUB SWAP1 PUSH2 0x2C55 PUSH2 0x466B JUMP JUMPDEST POP POP JUMPDEST PUSH3 0x8AA89 PUSH1 0xEB SHL PUSH2 0x2C67 PUSH2 0xC6E JUMP JUMPDEST PUSH1 0x1 PUSH1 0x1 PUSH1 0xA0 SHL SUB AND PUSH4 0x2528F0FE DUP3 PUSH1 0x40 MLOAD PUSH1 0x1 PUSH1 0x1 PUSH1 0xE0 SHL SUB NOT PUSH1 0xE0 DUP5 SWAP1 SHL AND DUP2 MSTORE PUSH1 0x4 DUP2 ADD SWAP2 SWAP1 SWAP2 MSTORE PUSH1 0x24 ADD PUSH1 0x20 PUSH1 0x40 MLOAD DUP1 DUP4 SUB DUP2 DUP7 DUP1 PUSH2 0x2CA8 PUSH2 0x461F JUMP JUMPDEST ISZERO DUP1 ISZERO PUSH2 0x2CBD JUMPI PUSH1 0x0 DUP1 PUSH2 0x2CBA PUSH2 0x466B JUMP JUMPDEST POP POP JUMPDEST POP GAS PUSH2 0x2CC7 PUSH2 0x46D6 JUMP JUMPDEST POP POP POP POP POP ISZERO DUP1 ISZERO PUSH2 0x2CE6 JUMPI RETURNDATASIZE PUSH1 0x0 DUP1 RETURNDATACOPY RETURNDATASIZE PUSH1 0x0 PUSH2 0x2CE3 PUSH2 0x466B JUMP JUMPDEST POP POP JUMPDEST POP POP POP POP PUSH1 0x40 MLOAD RETURNDATASIZE PUSH1 0x20 DUP2 LT ISZERO PUSH2 0x2D05 JUMPI PUSH1 0x0 DUP1 PUSH2 0x2D02 PUSH2 0x466B JUMP JUMPDEST POP POP JUMPDEST DUP2 ADD SWAP1 DUP1 DUP1 MLOAD ISZERO SWAP3 POP PUSH2 0x2D58 SWAP2 POP POP JUMPI PUSH1 0x40 MLOAD PUSH3 0x461BCD PUSH1 0xE5 SHL DUP2 MSTORE PUSH1 0x20 PUSH1 0x4 DUP3 ADD MSTORE PUSH1 0x1B PUSH1 0x24 DUP3 ADD MSTORE PUSH1 0x0 DUP1 MLOAD PUSH1 0x20 PUSH2 0x4A71 DUP4 CODECOPY DUP2 MLOAD SWAP2 MSTORE PUSH1 0x44 DUP3 ADD MSTORE PUSH1 0x64 ADD PUSH1 0x40 MLOAD DUP1 SWAP2 SUB SWAP1 PUSH2 0x2D55 PUSH2 0x466B JUMP JUMPDEST POP POP JUMPDEST PUSH1 0x0 PUSH1 0x5 PUSH2 0x2D64 PUSH2 0x4576 JUMP JUMPDEST SWAP1 PUSH2 0x100 EXP SWAP1 DIV PUSH1 0xFF AND ISZERO PUSH2 0x2DB3 JUMPI PUSH1 0x40 MLOAD PUSH3 0x461BCD PUSH1 0xE5 SHL DUP2 MSTORE PUSH1 0x4 ADD DUP1 DUP1 PUSH1 0x20 ADD DUP3 DUP2 SUB DUP3 MSTORE PUSH1 0x3C DUP2 MSTORE PUSH1 0x20 ADD DUP1 PUSH2 0x4AC1 PUSH1 0x3C SWAP2 CODECOPY PUSH1 0x40 ADD SWAP2 POP POP PUSH1 0x40 MLOAD DUP1 SWAP2 SUB SWAP1 PUSH2 0x2DB0 PUSH2 0x466B JUMP JUMPDEST POP POP JUMPDEST PUSH2 0x2DBB PUSH2 0xC6E JUMP JUMPDEST PUSH1 0x1 PUSH1 0x1 PUSH1 0xA0 SHL SUB AND PUSH4 0xAC82F608 PUSH3 0x8AA89 PUSH1 0xEB SHL PUSH1 0x40 MLOAD PUSH1 0x1 PUSH1 0x1 PUSH1 0xE0 SHL SUB NOT PUSH1 0xE0 DUP5 SWAP1 SHL AND DUP2 MSTORE PUSH1 0x4 DUP2 ADD SWAP2 SWAP1 SWAP2 MSTORE PUSH1 0x24 ADD PUSH1 0x20 PUSH1 0x40 MLOAD DUP1 DUP4 SUB DUP2 DUP7 DUP1 PUSH2 0x2E02 PUSH2 0x461F JUMP JUMPDEST ISZERO DUP1 ISZERO PUSH2 0x2E17 JUMPI PUSH1 0x0 DUP1 PUSH2 0x2E14 PUSH2 0x466B JUMP JUMPDEST POP POP JUMPDEST POP GAS PUSH2 0x2E21 PUSH2 0x46D6 JUMP JUMPDEST POP POP POP POP POP ISZERO DUP1 ISZERO PUSH2 0x2E40 JUMPI RETURNDATASIZE PUSH1 0x0 DUP1 RETURNDATACOPY RETURNDATASIZE PUSH1 0x0 PUSH2 0x2E3D PUSH2 0x466B JUMP JUMPDEST POP POP JUMPDEST POP POP POP POP PUSH1 0x40 MLOAD RETURNDATASIZE PUSH1 0x20 DUP2 LT ISZERO PUSH2 0x2E5F JUMPI PUSH1 0x0 DUP1 PUSH2 0x2E5C PUSH2 0x466B JUMP JUMPDEST POP POP JUMPDEST DUP2 ADD SWAP1 DUP1 DUP1 MLOAD DUP9 EQ SWAP3 POP PUSH2 0x2EB0 SWAP2 POP POP JUMPI PUSH1 0x40 MLOAD PUSH3 0x461BCD PUSH1 0xE5 SHL DUP2 MSTORE PUSH1 0x4 ADD DUP1 DUP1 PUSH1 0x20 ADD DUP3 DUP2 SUB DUP3 MSTORE PUSH1 0x2B DUP2 MSTORE PUSH1 0x20 ADD DUP1 PUSH2 0x494C PUSH1 0x2B SWAP2 CODECOPY PUSH1 0x40 ADD SWAP2 POP POP PUSH1 0x40 MLOAD DUP1 SWAP2 SUB SWAP1 PUSH2 0x2EAD PUSH2 0x466B JUMP JUMPDEST POP POP JUMPDEST PUSH2 0x2EB8 PUSH2 0xC6E JUMP JUMPDEST PUSH1 0x1 PUSH1 0x1 PUSH1 0xA0 SHL SUB AND PUSH4 0xAC82F608 PUSH3 0xA69CB PUSH1 0xEB SHL PUSH1 0x40 MLOAD PUSH1 0x1 PUSH1 0x1 PUSH1 0xE0 SHL SUB NOT PUSH1 0xE0 DUP5 SWAP1 SHL AND DUP2 MSTORE PUSH1 0x4 DUP2 ADD SWAP2 SWAP1 SWAP2 MSTORE PUSH1 0x24 ADD PUSH1 0x20 PUSH1 0x40 MLOAD DUP1 DUP4 SUB DUP2 DUP7 DUP1 PUSH2 0x2EFF PUSH2 0x461F JUMP JUMPDEST ISZERO DUP1 ISZERO PUSH2 0x2F14 JUMPI PUSH1 0x0 DUP1 PUSH2 0x2F11 PUSH2 0x466B JUMP JUMPDEST POP POP JUMPDEST POP GAS PUSH2 0x2F1E PUSH2 0x46D6 JUMP JUMPDEST POP POP POP POP POP ISZERO DUP1 ISZERO PUSH2 0x2F3D JUMPI RETURNDATASIZE PUSH1 0x0 DUP1 RETURNDATACOPY RETURNDATASIZE PUSH1 0x0 PUSH2 0x2F3A PUSH2 0x466B JUMP JUMPDEST POP POP JUMPDEST POP POP POP POP PUSH1 0x40 MLOAD RETURNDATASIZE PUSH1 0x20 DUP2 LT ISZERO PUSH2 0x2F5C JUMPI PUSH1 0x0 DUP1 PUSH2 0x2F59 PUSH2 0x466B JUMP JUMPDEST POP POP JUMPDEST DUP2 ADD SWAP1 DUP1 DUP1 MLOAD DUP8 EQ SWAP3 POP PUSH2 0x2FAD SWAP2 POP POP JUMPI PUSH1 0x40 MLOAD PUSH3 0x461BCD PUSH1 0xE5 SHL DUP2 MSTORE PUSH1 0x4 ADD DUP1 DUP1 PUSH1 0x20 ADD DUP3 DUP2 SUB DUP3 MSTORE PUSH1 0x2F DUP2 MSTORE PUSH1 0x20 ADD DUP1 PUSH2 0x49AC PUSH1 0x2F SWAP2 CODECOPY PUSH1 0x40 ADD SWAP2 POP POP PUSH1 0x40 MLOAD DUP1 SWAP2 SUB SWAP1 PUSH2 0x2FAA PUSH2 0x466B JUMP JUMPDEST POP POP JUMPDEST PUSH2 0x2FB5 PUSH2 0x3FDE JUMP JUMPDEST SWAP6 SWAP5 POP POP POP POP POP JUMP JUMPDEST PUSH2 0x2FC6 PUSH2 0x4196 JUMP JUMPDEST PUSH1 0x0 PUSH1 0x3 PUSH2 0x2FD2 PUSH2 0x4576 JUMP JUMPDEST SWAP1 PUSH2 0x100 EXP SWAP1 DIV PUSH1 0xFF AND PUSH2 0x3035 JUMPI PUSH1 0x40 MLOAD PUSH3 0x461BCD PUSH1 0xE5 SHL DUP2 MSTORE PUSH1 0x20 PUSH1 0x4 DUP3 ADD MSTORE PUSH1 0x1F PUSH1 0x24 DUP3 ADD MSTORE PUSH32 0x53656C66204465737472756374206E6F742079657420696E6974696174656400 PUSH1 0x44 DUP3 ADD MSTORE PUSH1 0x64 ADD PUSH1 0x40 MLOAD DUP1 SWAP2 SUB SWAP1 PUSH2 0x3032 PUSH2 0x466B JUMP JUMPDEST POP POP JUMPDEST GAS PUSH2 0x303E PUSH2 0x48A5 JUMP JUMPDEST PUSH3 0x24EA00 PUSH1 0x2 PUSH2 0x304C PUSH2 0x4576 JUMP JUMPDEST ADD LT PUSH2 0x30A7 JUMPI PUSH1 0x40 MLOAD PUSH3 0x461BCD PUSH1 0xE5 SHL DUP2 MSTORE PUSH1 0x20 PUSH1 0x4 DUP3 ADD MSTORE PUSH1 0x1B PUSH1 0x24 DUP3 ADD MSTORE PUSH32 0x53656C662064657374727563742064656C6179206E6F74206D65740000000000 PUSH1 0x44 DUP3 ADD MSTORE PUSH1 0x64 ADD PUSH1 0x40 MLOAD DUP1 SWAP2 SUB SWAP1 PUSH2 0x30A4 PUSH2 0x466B JUMP JUMPDEST POP POP JUMPDEST PUSH32 0x8A09E1677CED846CB537DC2B172043BD05A1A81AD7E0033A7EF8BA762DF990B7 PUSH1 0x1 PUSH1 0x3 PUSH2 0x30D4 PUSH2 0x4576 JUMP JUMPDEST SWAP1 PUSH2 0x100 EXP SWAP1 DIV PUSH1 0x1 PUSH1 0x1 PUSH1 0xA0 SHL SUB AND PUSH1 0x40 MLOAD PUSH1 0x1 PUSH1 0x1 PUSH1 0xA0 SHL SUB SWAP1 SWAP2 AND DUP2 MSTORE PUSH1 0x20 ADD PUSH1 0x40 MLOAD DUP1 SWAP2 SUB SWAP1 LOG1 JUMP JUMPDEST PUSH1 0x0 PUSH2 0x1D44 PUSH2 0x310E PUSH2 0xC6E JUMP JUMPDEST PUSH1 0x1 PUSH1 0x1 PUSH1 0xA0 SHL SUB AND PUSH4 0xAC82F608 PUSH3 0xA69CB PUSH1 0xEB SHL PUSH1 0x40 MLOAD PUSH1 0x1 PUSH1 0x1 PUSH1 0xE0 SHL SUB NOT PUSH1 0xE0 DUP5 SWAP1 SHL AND DUP2 MSTORE PUSH1 0x4 DUP2 ADD SWAP2 SWAP1 SWAP2 MSTORE PUSH1 0x24 ADD PUSH1 0x20 PUSH1 0x40 MLOAD DUP1 DUP4 SUB DUP2 DUP7 DUP1 PUSH2 0x3155 PUSH2 0x461F JUMP JUMPDEST ISZERO DUP1 ISZERO PUSH2 0x316A JUMPI PUSH1 0x0 DUP1 PUSH2 0x3167 PUSH2 0x466B JUMP JUMPDEST POP POP JUMPDEST POP GAS PUSH2 0x3174 PUSH2 0x46D6 JUMP JUMPDEST POP POP POP POP POP ISZERO DUP1 ISZERO PUSH2 0x3193 JUMPI RETURNDATASIZE PUSH1 0x0 DUP1 RETURNDATACOPY RETURNDATASIZE PUSH1 0x0 PUSH2 0x3190 PUSH2 0x466B JUMP JUMPDEST POP POP JUMPDEST POP POP POP POP PUSH1 0x40 MLOAD RETURNDATASIZE PUSH1 0x20 DUP2 LT ISZERO PUSH2 0x31B2 JUMPI PUSH1 0x0 DUP1 PUSH2 0x31AF PUSH2 0x466B JUMP JUMPDEST POP POP JUMPDEST DUP2 ADD SWAP1 DUP1 DUP1 MLOAD DUP7 SWAP4 POP SWAP2 POP POP PUSH4 0xFFFFFFFF PUSH2 0x3F69 AND JUMP JUMPDEST PUSH3 0x24EA00 DUP2 JUMP JUMPDEST PUSH2 0x31D8 PUSH2 0x4196 JUMP JUMPDEST PUSH20 0x0 PUSH4 0x907AF6C0 PUSH1 0x40 MLOAD DUP2 PUSH4 0xFFFFFFFF AND PUSH1 0xE0 SHL DUP2 MSTORE PUSH1 0x4 ADD PUSH1 0x20 PUSH1 0x40 MLOAD DUP1 DUP4 SUB DUP2 DUP7 DUP1 PUSH2 0x3217 PUSH2 0x461F JUMP JUMPDEST ISZERO DUP1 ISZERO PUSH2 0x322C JUMPI PUSH1 0x0 DUP1 PUSH2 0x3229 PUSH2 0x466B JUMP JUMPDEST POP POP JUMPDEST POP GAS PUSH2 0x3236 PUSH2 0x48EB JUMP JUMPDEST POP POP POP POP POP ISZERO DUP1 ISZERO PUSH2 0x3255 JUMPI RETURNDATASIZE PUSH1 0x0 DUP1 RETURNDATACOPY RETURNDATASIZE PUSH1 0x0 PUSH2 0x3252 PUSH2 0x466B JUMP JUMPDEST POP POP JUMPDEST POP POP POP POP PUSH1 0x40 MLOAD RETURNDATASIZE PUSH1 0x20 DUP2 LT ISZERO PUSH2 0x3274 JUMPI PUSH1 0x0 DUP1 PUSH2 0x3271 PUSH2 0x466B JUMP JUMPDEST POP POP JUMPDEST DUP2 ADD SWAP1 DUP1 DUP1 MLOAD DUP5 GT SWAP3 POP PUSH2 0x32C5 SWAP2 POP POP JUMPI PUSH1 0x40 MLOAD PUSH3 0x461BCD PUSH1 0xE5 SHL DUP2 MSTORE PUSH1 0x4 ADD DUP1 DUP1 PUSH1 0x20 ADD DUP3 DUP2 SUB DUP3 MSTORE PUSH1 0x30 DUP2 MSTORE PUSH1 0x20 ADD DUP1 PUSH2 0x4A91 PUSH1 0x30 SWAP2 CODECOPY PUSH1 0x40 ADD SWAP2 POP POP PUSH1 0x40 MLOAD DUP1 SWAP2 SUB SWAP1 PUSH2 0x32C2 PUSH2 0x466B JUMP JUMPDEST POP POP JUMPDEST DUP1 DUP1 PUSH1 0xF PUSH2 0x32D1 PUSH2 0x45D1 JUMP JUMPDEST POP POP POP PUSH32 0xA39EACD162EE82C70B2B030A1BC8FE89ADCCCC61122FAD4821A8772DBCC54267 PUSH1 0xF PUSH2 0x32FF PUSH2 0x4576 JUMP JUMPDEST PUSH1 0x40 MLOAD SWAP1 DUP2 MSTORE PUSH1 0x20 ADD PUSH1 0x40 MLOAD DUP1 SWAP2 SUB SWAP1 LOG1 POP JUMP JUMPDEST PUSH2 0x331B PUSH2 0x492E JUMP JUMPDEST PUSH1 0x0 JUMPDEST PUSH1 0x9 DUP1 PUSH2 0x3329 PUSH2 0x4576 JUMP JUMPDEST SWAP1 POP DUP2 LT ISZERO PUSH2 0x20A2 JUMPI PUSH1 0x9 DUP2 DUP2 PUSH2 0x333E PUSH2 0x4576 JUMP JUMPDEST DUP2 LT PUSH2 0x3346 JUMPI INVALID JUMPDEST SWAP1 PUSH1 0x0 MSTORE PUSH1 0x20 PUSH1 0x0 KECCAK256 ADD PUSH2 0x3358 PUSH2 0x4576 JUMP JUMPDEST DUP3 DUP3 PUSH1 0x18 DUP2 LT PUSH2 0x3364 JUMPI INVALID JUMPDEST PUSH1 0x20 MUL ADD MSTORE PUSH1 0x1 ADD PUSH2 0x331E JUMP JUMPDEST PUSH1 0xB PUSH1 0x20 MSTORE DUP1 PUSH1 0x0 MSTORE PUSH1 0x40 PUSH1 0x0 KECCAK256 SWAP1 POP PUSH1 0x0 DUP2 PUSH2 0x338C PUSH2 0x4576 JUMP JUMPDEST SWAP1 PUSH2 0x100 EXP SWAP1 DIV PUSH1 0x1 PUSH1 0x1 PUSH1 0xA0 SHL SUB AND SWAP1 DUP1 PUSH1 0x1 ADD PUSH2 0x33A9 PUSH2 0x4576 JUMP JUMPDEST SWAP1 POP DUP3 JUMP JUMPDEST PUSH1 0x0 PUSH3 0xA69CB PUSH1 0xEB SHL PUSH2 0x33BF PUSH2 0xC6E JUMP JUMPDEST PUSH1 0x1 PUSH1 0x1 PUSH1 0xA0 SHL SUB AND PUSH4 0x2528F0FE DUP3 PUSH1 0x40 MLOAD PUSH1 0x1 PUSH1 0x1 PUSH1 0xE0 SHL SUB NOT PUSH1 0xE0 DUP5 SWAP1 SHL AND DUP2 MSTORE PUSH1 0x4 DUP2 ADD SWAP2 SWAP1 SWAP2 MSTORE PUSH1 0x24 ADD PUSH1 0x20 PUSH1 0x40 MLOAD DUP1 DUP4 SUB DUP2 DUP7 DUP1 PUSH2 0x3400 PUSH2 0x461F JUMP JUMPDEST ISZERO DUP1 ISZERO PUSH2 0x3415 JUMPI PUSH1 0x0 DUP1 PUSH2 0x3412 PUSH2 0x466B JUMP JUMPDEST POP POP JUMPDEST POP GAS PUSH2 0x341F PUSH2 0x46D6 JUMP JUMPDEST POP POP POP POP POP ISZERO DUP1 ISZERO PUSH2 0x343E JUMPI RETURNDATASIZE PUSH1 0x0 DUP1 RETURNDATACOPY RETURNDATASIZE PUSH1 0x0 PUSH2 0x343B PUSH2 0x466B JUMP JUMPDEST POP POP JUMPDEST POP POP POP POP PUSH1 0x40 MLOAD RETURNDATASIZE PUSH1 0x20 DUP2 LT ISZERO PUSH2 0x345D JUMPI PUSH1 0x0 DUP1 PUSH2 0x345A PUSH2 0x466B JUMP JUMPDEST POP POP JUMPDEST DUP2 ADD SWAP1 DUP1 DUP1 MLOAD ISZERO SWAP3 POP PUSH2 0x34B0 SWAP2 POP POP JUMPI PUSH1 0x40 MLOAD PUSH3 0x461BCD PUSH1 0xE5 SHL DUP2 MSTORE PUSH1 0x20 PUSH1 0x4 DUP3 ADD MSTORE PUSH1 0x1B PUSH1 0x24 DUP3 ADD MSTORE PUSH1 0x0 DUP1 MLOAD PUSH1 0x20 PUSH2 0x4A71 DUP4 CODECOPY DUP2 MLOAD SWAP2 MSTORE PUSH1 0x44 DUP3 ADD MSTORE PUSH1 0x64 ADD PUSH1 0x40 MLOAD DUP1 SWAP2 SUB SWAP1 PUSH2 0x34AD PUSH2 0x466B JUMP JUMPDEST POP POP JUMPDEST PUSH1 0x0 PUSH1 0x5 PUSH2 0x34BC PUSH2 0x4576 JUMP JUMPDEST SWAP1 PUSH2 0x100 EXP SWAP1 DIV PUSH1 0xFF AND ISZERO PUSH2 0x350B JUMPI PUSH1 0x40 MLOAD PUSH3 0x461BCD PUSH1 0xE5 SHL DUP2 MSTORE PUSH1 0x4 ADD DUP1 DUP1 PUSH1 0x20 ADD DUP3 DUP2 SUB DUP3 MSTORE PUSH1 0x3C DUP2 MSTORE PUSH1 0x20 ADD DUP1 PUSH2 0x4AC1 PUSH1 0x3C SWAP2 CODECOPY PUSH1 0x40 ADD SWAP2 POP POP PUSH1 0x40 MLOAD DUP1 SWAP2 SUB SWAP1 PUSH2 0x3508 PUSH2 0x466B JUMP JUMPDEST POP POP JUMPDEST PUSH2 0x3513 PUSH2 0xC6E JUMP JUMPDEST PUSH1 0x1 PUSH1 0x1 PUSH1 0xA0 SHL SUB AND PUSH4 0xAC82F608 PUSH3 0xA69CB PUSH1 0xEB SHL PUSH1 0x40 MLOAD PUSH1 0x1 PUSH1 0x1 PUSH1 0xE0 SHL SUB NOT PUSH1 0xE0 DUP5 SWAP1 SHL AND DUP2 MSTORE PUSH1 0x4 DUP2 ADD SWAP2 SWAP1 SWAP2 MSTORE PUSH1 0x24 ADD PUSH1 0x20 PUSH1 0x40 MLOAD DUP1 DUP4 SUB DUP2 DUP7 DUP1 PUSH2 0x355A PUSH2 0x461F JUMP JUMPDEST ISZERO DUP1 ISZERO PUSH2 0x356F JUMPI PUSH1 0x0 DUP1 PUSH2 0x356C PUSH2 0x466B JUMP JUMPDEST POP POP JUMPDEST POP GAS PUSH2 0x3579 PUSH2 0x46D6 JUMP JUMPDEST POP POP POP POP POP ISZERO DUP1 ISZERO PUSH2 0x3598 JUMPI RETURNDATASIZE PUSH1 0x0 DUP1 RETURNDATACOPY RETURNDATASIZE PUSH1 0x0 PUSH2 0x3595 PUSH2 0x466B JUMP JUMPDEST POP POP JUMPDEST POP POP POP POP PUSH1 0x40 MLOAD RETURNDATASIZE PUSH1 0x20 DUP2 LT ISZERO PUSH2 0x35B7 JUMPI PUSH1 0x0 DUP1 PUSH2 0x35B4 PUSH2 0x466B JUMP JUMPDEST POP POP JUMPDEST DUP2 ADD SWAP1 DUP1 DUP1 MLOAD DUP7 EQ SWAP3 POP PUSH2 0x3608 SWAP2 POP POP JUMPI PUSH1 0x40 MLOAD PUSH3 0x461BCD PUSH1 0xE5 SHL DUP2 MSTORE PUSH1 0x4 ADD DUP1 DUP1 PUSH1 0x20 ADD DUP3 DUP2 SUB DUP3 MSTORE PUSH1 0x25 DUP2 MSTORE PUSH1 0x20 ADD DUP1 PUSH2 0x4AFD PUSH1 0x25 SWAP2 CODECOPY PUSH1 0x40 ADD SWAP2 POP POP PUSH1 0x40 MLOAD DUP1 SWAP2 SUB SWAP1 PUSH2 0x3605 PUSH2 0x466B JUMP JUMPDEST POP POP JUMPDEST PUSH2 0x3611 DUP5 PUSH2 0x4210 JUMP JUMPDEST SWAP5 SWAP4 POP POP POP POP JUMP JUMPDEST PUSH1 0x10 PUSH2 0x1A10 PUSH2 0x4576 JUMP JUMPDEST PUSH1 0x0 PUSH1 0x3 PUSH2 0x23EE PUSH2 0x4576 JUMP JUMPDEST PUSH2 0x3637 PUSH2 0x4196 JUMP JUMPDEST DUP1 DUP1 PUSH1 0x10 PUSH2 0x3643 PUSH2 0x45D1 JUMP JUMPDEST POP POP POP PUSH32 0xDC2BE810A133E01CB21A41082F15B2863D96F9FE79D1F84D7E2D5B810C5C8243 PUSH1 0x10 PUSH2 0x32FF PUSH2 0x4576 JUMP JUMPDEST PUSH2 0x3679 PUSH2 0x4196 JUMP JUMPDEST GAS PUSH2 0x3682 PUSH2 0x48A5 JUMP JUMPDEST DUP1 PUSH1 0x2 PUSH2 0x368D PUSH2 0x45D1 JUMP JUMPDEST POP POP POP PUSH1 0x1 PUSH1 0x3 PUSH1 0x0 PUSH2 0x100 EXP DUP2 PUSH2 0x36A3 PUSH2 0x4576 JUMP JUMPDEST DUP2 PUSH1 0xFF MUL NOT AND SWAP1 DUP4 ISZERO ISZERO MUL OR SWAP1 PUSH2 0x36B8 PUSH2 0x45D1 JUMP JUMPDEST POP POP POP PUSH32 0xCBD94CA75B8DC45C9D80C77E851670E78843C0D75180CB81DB3E2158228FA9A6 PUSH3 0x24EA00 PUSH1 0x40 MLOAD SWAP1 DUP2 MSTORE PUSH1 0x20 ADD PUSH1 0x40 MLOAD DUP1 SWAP2 SUB SWAP1 LOG1 JUMP JUMPDEST PUSH1 0x1 PUSH1 0x3 PUSH2 0x19F3 PUSH2 0x4576 JUMP JUMPDEST PUSH1 0x11 PUSH1 0x20 MSTORE DUP1 PUSH1 0x0 MSTORE PUSH1 0x40 PUSH1 0x0 KECCAK256 SWAP1 POP PUSH2 0x1A10 PUSH2 0x4576 JUMP JUMPDEST PUSH1 0x9 DUP2 DUP2 PUSH2 0x3723 PUSH2 0x4576 JUMP JUMPDEST DUP2 LT PUSH2 0x372B JUMPI INVALID JUMPDEST SWAP1 PUSH1 0x0 MSTORE PUSH1 0x20 PUSH1 0x0 KECCAK256 ADD SWAP1 POP PUSH2 0x1A10 PUSH2 0x4576 JUMP JUMPDEST PUSH1 0x0 DUP1 PUSH2 0x3808 PUSH2 0x374D PUSH2 0xC6E JUMP JUMPDEST PUSH1 0x1 PUSH1 0x1 PUSH1 0xA0 SHL SUB AND PUSH4 0xAC82F608 PUSH3 0x8AA89 PUSH1 0xEB SHL PUSH1 0x40 MLOAD PUSH1 0x1 PUSH1 0x1 PUSH1 0xE0 SHL SUB NOT PUSH1 0xE0 DUP5 SWAP1 SHL AND DUP2 MSTORE PUSH1 0x4 DUP2 ADD SWAP2 SWAP1 SWAP2 MSTORE PUSH1 0x24 ADD PUSH1 0x20 PUSH1 0x40 MLOAD DUP1 DUP4 SUB DUP2 DUP7 DUP1 PUSH2 0x3794 PUSH2 0x461F JUMP JUMPDEST ISZERO DUP1 ISZERO PUSH2 0x37A9 JUMPI PUSH1 0x0 DUP1 PUSH2 0x37A6 PUSH2 0x466B JUMP JUMPDEST POP POP JUMPDEST POP GAS PUSH2 0x37B3 PUSH2 0x46D6 JUMP JUMPDEST POP POP POP POP POP ISZERO DUP1 ISZERO PUSH2 0x37D2 JUMPI RETURNDATASIZE PUSH1 0x0 DUP1 RETURNDATACOPY RETURNDATASIZE PUSH1 0x0 PUSH2 0x37CF PUSH2 0x466B JUMP JUMPDEST POP POP JUMPDEST POP POP POP POP PUSH1 0x40 MLOAD RETURNDATASIZE PUSH1 0x20 DUP2 LT ISZERO PUSH2 0x37F1 JUMPI PUSH1 0x0 DUP1 PUSH2 0x37EE PUSH2 0x466B JUMP JUMPDEST POP POP JUMPDEST DUP2 ADD SWAP1 DUP1 DUP1 MLOAD DUP8 SWAP4 POP SWAP2 POP POP PUSH4 0xFFFFFFFF PUSH2 0x3E72 AND JUMP JUMPDEST SWAP1 POP PUSH2 0x1C75 DUP2 PUSH2 0x3101 JUMP JUMPDEST PUSH2 0x381B PUSH2 0x3F93 JUMP JUMPDEST PUSH1 0x1 PUSH1 0x1 PUSH1 0xA0 SHL SUB AND PUSH4 0x23B872DD GAS PUSH2 0x3832 PUSH2 0x485F JUMP JUMPDEST GAS PUSH4 0x996D79A5 MSIZE DUP2 PUSH1 0xE0 SHL DUP2 MSTORE PUSH1 0x20 DUP2 PUSH1 0x4 DUP4 CALLER PUSH1 0x0 SWAP1 GAS CALL PC PUSH1 0xE ADD JUMPI RETURNDATASIZE PUSH1 0x0 DUP1 RETURNDATACOPY RETURNDATASIZE PUSH1 0x0 REVERT JUMPDEST RETURNDATASIZE PUSH1 0x1 EQ ISZERO PC PUSH1 0xA ADD JUMPI PUSH1 0x1 PUSH1 0x0 RETURN JUMPDEST DUP1 MLOAD SWAP3 POP PUSH1 0x0 JUMPDEST PUSH1 0x40 DUP2 LT ISZERO PUSH2 0x3888 JUMPI PUSH1 0x0 DUP3 DUP3 ADD MSTORE PUSH1 0x20 ADD PUSH2 0x3871 JUMP JUMPDEST POP POP POP DUP5 PUSH1 0x40 MLOAD PUSH1 0x1 PUSH1 0x1 PUSH1 0xE0 SHL SUB NOT PUSH1 0xE0 DUP7 SWAP1 SHL AND DUP2 MSTORE PUSH1 0x1 PUSH1 0x1 PUSH1 0xA0 SHL SUB SWAP4 DUP5 AND PUSH1 0x4 DUP3 ADD MSTORE SWAP2 SWAP1 SWAP3 AND PUSH1 0x24 DUP3 ADD MSTORE PUSH1 0x44 DUP2 ADD SWAP2 SWAP1 SWAP2 MSTORE PUSH1 0x64 ADD PUSH1 0x20 PUSH1 0x40 MLOAD DUP1 DUP4 SUB DUP2 PUSH1 0x0 DUP8 DUP1 PUSH2 0x38D9 PUSH2 0x461F JUMP JUMPDEST ISZERO DUP1 ISZERO PUSH2 0x38EE JUMPI PUSH1 0x0 DUP1 PUSH2 0x38EB PUSH2 0x466B JUMP JUMPDEST POP POP JUMPDEST POP GAS PUSH2 0x38F8 PUSH2 0x47A6 JUMP JUMPDEST POP POP POP POP POP POP ISZERO DUP1 ISZERO PUSH2 0x3918 JUMPI RETURNDATASIZE PUSH1 0x0 DUP1 RETURNDATACOPY RETURNDATASIZE PUSH1 0x0 PUSH2 0x3915 PUSH2 0x466B JUMP JUMPDEST POP POP JUMPDEST POP POP POP POP PUSH1 0x40 MLOAD RETURNDATASIZE PUSH1 0x20 DUP2 LT ISZERO PUSH2 0x3937 JUMPI PUSH1 0x0 DUP1 PUSH2 0x3934 PUSH2 0x466B JUMP JUMPDEST POP POP JUMPDEST DUP2 ADD SWAP1 DUP1 DUP1 MLOAD POP PUSH1 0xF SWAP3 POP PUSH2 0x394E SWAP2 POP PUSH2 0x4576 SWAP1 POP JUMP JUMPDEST DUP2 LT ISZERO PUSH2 0x3A37 JUMPI PUSH2 0x398E DUP2 PUSH1 0x11 PUSH1 0x0 GAS PUSH2 0x3966 PUSH2 0x485F JUMP JUMPDEST PUSH1 0x1 PUSH1 0x1 PUSH1 0xA0 SHL SUB AND PUSH1 0x1 PUSH1 0x1 PUSH1 0xA0 SHL SUB AND DUP2 MSTORE PUSH1 0x20 ADD SWAP1 DUP2 MSTORE PUSH1 0x20 ADD PUSH1 0x0 KECCAK256 PUSH2 0xE84 PUSH2 0x4576 JUMP JUMPDEST PUSH1 0x11 PUSH1 0x0 GAS PUSH2 0x399B PUSH2 0x485F JUMP JUMPDEST PUSH1 0x1 PUSH1 0x1 PUSH1 0xA0 SHL SUB AND PUSH1 0x1 PUSH1 0x1 PUSH1 0xA0 SHL SUB AND DUP2 MSTORE PUSH1 0x20 ADD SWAP1 DUP2 MSTORE PUSH1 0x20 ADD PUSH1 0x0 KECCAK256 DUP2 SWAP1 PUSH2 0x39C5 PUSH2 0x45D1 JUMP JUMPDEST POP POP POP PUSH32 0xBC3A12638D840D60760C64B39C73985A6498CF6EB8176F124995B0E07236CBD2 GAS PUSH2 0x39F2 PUSH2 0x485F JUMP JUMPDEST DUP3 PUSH1 0xF PUSH2 0x39FD PUSH2 0x4576 JUMP JUMPDEST PUSH1 0x40 MLOAD DUP1 DUP5 PUSH1 0x1 PUSH1 0x1 PUSH1 0xA0 SHL SUB AND PUSH1 0x1 PUSH1 0x1 PUSH1 0xA0 SHL SUB AND DUP2 MSTORE PUSH1 0x20 ADD DUP4 DUP2 MSTORE PUSH1 0x20 ADD DUP3 DUP2 MSTORE PUSH1 0x20 ADD SWAP4 POP POP POP POP PUSH1 0x40 MLOAD DUP1 SWAP2 SUB SWAP1 LOG1 PUSH2 0x1E99 JUMP JUMPDEST PUSH1 0x40 MLOAD DUP1 PUSH1 0x40 ADD PUSH1 0x40 MSTORE DUP1 GAS PUSH2 0x3A4B PUSH2 0x485F JUMP JUMPDEST PUSH1 0x1 PUSH1 0x1 PUSH1 0xA0 SHL SUB AND DUP2 MSTORE PUSH1 0x20 ADD DUP3 SWAP1 MSTORE PUSH1 0xB PUSH1 0x0 PUSH1 0xD PUSH2 0x3A6A PUSH2 0x4576 JUMP JUMPDEST DUP2 MSTORE PUSH1 0x20 ADD SWAP1 DUP2 MSTORE PUSH1 0x20 ADD PUSH1 0x0 KECCAK256 DUP2 MLOAD DUP2 PUSH1 0x1 DUP2 PUSH2 0x3A86 PUSH2 0x4576 JUMP JUMPDEST DUP2 PUSH1 0x1 PUSH1 0x1 PUSH1 0xA0 SHL SUB MUL NOT AND SWAP1 DUP4 PUSH1 0x1 PUSH1 0x1 PUSH1 0xA0 SHL SUB AND MUL OR SWAP1 PUSH2 0x3AA8 PUSH2 0x45D1 JUMP JUMPDEST POP POP POP PUSH1 0x20 DUP3 ADD MLOAD DUP2 PUSH1 0x1 ADD PUSH2 0x3ABC PUSH2 0x45D1 JUMP JUMPDEST POP POP SWAP1 POP POP PUSH1 0xD PUSH2 0x3ACB PUSH2 0x4576 JUMP JUMPDEST GAS PUSH2 0x3AD4 PUSH2 0x485F JUMP JUMPDEST PUSH1 0x1 PUSH1 0x1 PUSH1 0xA0 SHL SUB AND PUSH32 0xD9ACABE6E09D178728BA5C366661C5BE0621B4770F216305B059EC175B37E0B4 DUP4 PUSH1 0x40 MLOAD SWAP1 DUP2 MSTORE PUSH1 0x20 ADD PUSH1 0x40 MLOAD DUP1 SWAP2 SUB SWAP1 LOG3 PUSH2 0x3B1F PUSH1 0x1 PUSH1 0xD PUSH2 0xE84 PUSH2 0x4576 JUMP JUMPDEST DUP1 PUSH1 0xD PUSH2 0x3B2A PUSH2 0x45D1 JUMP JUMPDEST POP POP POP PUSH2 0x3B3B DUP2 PUSH1 0xE PUSH2 0xE84 PUSH2 0x4576 JUMP JUMPDEST DUP1 PUSH1 0xE PUSH2 0x3B46 PUSH2 0x45D1 JUMP JUMPDEST POP POP POP POP JUMP JUMPDEST PUSH1 0x18 DUP2 JUMP JUMPDEST PUSH2 0x3B59 PUSH2 0x4196 JUMP JUMPDEST PUSH2 0x3B61 PUSH2 0x445A JUMP JUMPDEST PUSH1 0x1 PUSH1 0x1 PUSH1 0xA0 SHL SUB AND PUSH4 0xA9059CBB PUSH1 0x0 DUP1 PUSH2 0x3B7A PUSH2 0x4576 JUMP JUMPDEST SWAP1 PUSH2 0x100 EXP SWAP1 DIV PUSH1 0x1 PUSH1 0x1 PUSH1 0xA0 SHL SUB AND DUP4 PUSH1 0x40 MLOAD PUSH1 0x1 PUSH1 0x1 PUSH1 0xE0 SHL SUB NOT PUSH1 0xE0 DUP6 SWAP1 SHL AND DUP2 MSTORE PUSH1 0x1 PUSH1 0x1 PUSH1 0xA0 SHL SUB SWAP1 SWAP3 AND PUSH1 0x4 DUP4 ADD MSTORE PUSH1 0x24 DUP3 ADD MSTORE PUSH1 0x44 ADD PUSH1 0x20 PUSH1 0x40 MLOAD DUP1 DUP4 SUB DUP2 PUSH1 0x0 DUP8 DUP1 PUSH2 0x3BCC PUSH2 0x461F JUMP JUMPDEST ISZERO DUP1 ISZERO PUSH2 0x3BE1 JUMPI PUSH1 0x0 DUP1 PUSH2 0x3BDE PUSH2 0x466B JUMP JUMPDEST POP POP JUMPDEST POP GAS PUSH2 0x3BEB PUSH2 0x47A6 JUMP JUMPDEST POP POP POP POP POP POP ISZERO DUP1 ISZERO PUSH2 0x3C0B JUMPI RETURNDATASIZE PUSH1 0x0 DUP1 RETURNDATACOPY RETURNDATASIZE PUSH1 0x0 PUSH2 0x3C08 PUSH2 0x466B JUMP JUMPDEST POP POP JUMPDEST POP POP POP POP PUSH1 0x40 MLOAD RETURNDATASIZE PUSH1 0x20 DUP2 LT ISZERO PUSH2 0x3C2A JUMPI PUSH1 0x0 DUP1 PUSH2 0x3C27 PUSH2 0x466B JUMP JUMPDEST POP POP JUMPDEST DUP2 ADD SWAP1 DUP1 DUP1 MLOAD POP POP POP POP POP JUMP JUMPDEST PUSH1 0x0 PUSH3 0xA69CB PUSH1 0xEB SHL PUSH2 0x3C48 PUSH2 0xC6E JUMP JUMPDEST PUSH1 0x1 PUSH1 0x1 PUSH1 0xA0 SHL SUB AND PUSH4 0x2528F0FE DUP3 PUSH1 0x40 MLOAD PUSH1 0x1 PUSH1 0x1 PUSH1 0xE0 SHL SUB NOT PUSH1 0xE0 DUP5 SWAP1 SHL AND DUP2 MSTORE PUSH1 0x4 DUP2 ADD SWAP2 SWAP1 SWAP2 MSTORE PUSH1 0x24 ADD PUSH1 0x20 PUSH1 0x40 MLOAD DUP1 DUP4 SUB DUP2 DUP7 DUP1 PUSH2 0x3C89 PUSH2 0x461F JUMP JUMPDEST ISZERO DUP1 ISZERO PUSH2 0x3C9E JUMPI PUSH1 0x0 DUP1 PUSH2 0x3C9B PUSH2 0x466B JUMP JUMPDEST POP POP JUMPDEST POP GAS PUSH2 0x3CA8 PUSH2 0x46D6 JUMP JUMPDEST POP POP POP POP POP ISZERO DUP1 ISZERO PUSH2 0x3CC7 JUMPI RETURNDATASIZE PUSH1 0x0 DUP1 RETURNDATACOPY RETURNDATASIZE PUSH1 0x0 PUSH2 0x3CC4 PUSH2 0x466B JUMP JUMPDEST POP POP JUMPDEST POP POP POP POP PUSH1 0x40 MLOAD RETURNDATASIZE PUSH1 0x20 DUP2 LT ISZERO PUSH2 0x3CE6 JUMPI PUSH1 0x0 DUP1 PUSH2 0x3CE3 PUSH2 0x466B JUMP JUMPDEST POP POP JUMPDEST DUP2 ADD SWAP1 DUP1 DUP1 MLOAD ISZERO SWAP3 POP PUSH2 0x3D39 SWAP2 POP POP JUMPI PUSH1 0x40 MLOAD PUSH3 0x461BCD PUSH1 0xE5 SHL DUP2 MSTORE PUSH1 0x20 PUSH1 0x4 DUP3 ADD MSTORE PUSH1 0x1B PUSH1 0x24 DUP3 ADD MSTORE PUSH1 0x0 DUP1 MLOAD PUSH1 0x20 PUSH2 0x4A71 DUP4 CODECOPY DUP2 MLOAD SWAP2 MSTORE PUSH1 0x44 DUP3 ADD MSTORE PUSH1 0x64 ADD PUSH1 0x40 MLOAD DUP1 SWAP2 SUB SWAP1 PUSH2 0x3D36 PUSH2 0x466B JUMP JUMPDEST POP POP JUMPDEST PUSH1 0x0 PUSH1 0x5 PUSH2 0x3D45 PUSH2 0x4576 JUMP JUMPDEST SWAP1 PUSH2 0x100 EXP SWAP1 DIV PUSH1 0xFF AND ISZERO PUSH2 0x3D94 JUMPI PUSH1 0x40 MLOAD PUSH3 0x461BCD PUSH1 0xE5 SHL DUP2 MSTORE PUSH1 0x4 ADD DUP1 DUP1 PUSH1 0x20 ADD DUP3 DUP2 SUB DUP3 MSTORE PUSH1 0x3C DUP2 MSTORE PUSH1 0x20 ADD DUP1 PUSH2 0x4AC1 PUSH1 0x3C SWAP2 CODECOPY PUSH1 0x40 ADD SWAP2 POP POP PUSH1 0x40 MLOAD DUP1 SWAP2 SUB SWAP1 PUSH2 0x3D91 PUSH2 0x466B JUMP JUMPDEST POP POP JUMPDEST PUSH2 0x1C75 DUP4 PUSH2 0x4210 JUMP JUMPDEST PUSH1 0xD PUSH2 0x1A10 PUSH2 0x4576 JUMP JUMPDEST PUSH1 0x0 DUP3 DUP2 MSTORE PUSH1 0x8 PUSH1 0x20 MSTORE DUP1 PUSH1 0x40 DUP2 KECCAK256 PUSH1 0x0 SWAP1 PUSH2 0x3DC1 PUSH2 0x4576 JUMP JUMPDEST PUSH1 0x1 PUSH1 0x1 PUSH1 0xA0 SHL SUB PUSH2 0x100 SWAP3 SWAP1 SWAP3 EXP SWAP1 DIV AND SWAP1 POP DUP3 DUP2 PUSH2 0x3E68 JUMPI PUSH1 0x40 MLOAD PUSH3 0x461BCD PUSH1 0xE5 SHL DUP2 MSTORE PUSH1 0x4 ADD DUP1 DUP1 PUSH1 0x20 ADD DUP3 DUP2 SUB DUP3 MSTORE DUP4 DUP2 DUP2 MLOAD DUP2 MSTORE PUSH1 0x20 ADD SWAP2 POP DUP1 MLOAD SWAP1 PUSH1 0x20 ADD SWAP1 DUP1 DUP4 DUP4 PUSH1 0x0 JUMPDEST DUP4 DUP2 LT ISZERO PUSH2 0x3E24 JUMPI DUP1 DUP3 ADD MLOAD DUP4 DUP3 ADD MSTORE PUSH1 0x20 ADD PUSH2 0x3E0C JUMP JUMPDEST POP POP POP POP SWAP1 POP SWAP1 DUP2 ADD SWAP1 PUSH1 0x1F AND DUP1 ISZERO PUSH2 0x3E51 JUMPI DUP1 DUP3 SUB DUP1 MLOAD PUSH1 0x1 DUP4 PUSH1 0x20 SUB PUSH2 0x100 EXP SUB NOT AND DUP2 MSTORE PUSH1 0x20 ADD SWAP2 POP JUMPDEST POP SWAP3 POP POP POP PUSH1 0x40 MLOAD DUP1 SWAP2 SUB SWAP1 PUSH2 0x3E65 PUSH2 0x466B JUMP JUMPDEST POP POP JUMPDEST POP SWAP1 POP JUMPDEST SWAP3 SWAP2 POP POP JUMP JUMPDEST PUSH1 0x0 PUSH8 0xDE0B6B3A7640000 PUSH2 0x3E8D DUP5 DUP5 PUSH4 0xFFFFFFFF PUSH2 0x44A5 AND JUMP JUMPDEST DUP2 PUSH2 0x3E94 JUMPI INVALID JUMPDEST DIV SWAP4 SWAP3 POP POP POP JUMP JUMPDEST PUSH1 0x0 DUP3 DUP3 ADD DUP4 DUP2 LT ISZERO PUSH2 0x1C75 JUMPI PUSH1 0x40 MLOAD PUSH3 0x461BCD PUSH1 0xE5 SHL DUP2 MSTORE PUSH1 0x20 PUSH1 0x4 DUP3 ADD MSTORE PUSH1 0x1B PUSH1 0x24 DUP3 ADD MSTORE PUSH32 0x536166654D6174683A206164646974696F6E206F766572666C6F770000000000 PUSH1 0x44 DUP3 ADD MSTORE PUSH1 0x64 ADD PUSH1 0x40 MLOAD DUP1 SWAP2 SUB SWAP1 PUSH2 0x3EFB PUSH2 0x466B JUMP JUMPDEST POP POP SWAP4 SWAP3 POP POP POP JUMP JUMPDEST PUSH1 0x0 DUP3 DUP3 GT ISZERO PUSH2 0x3F63 JUMPI PUSH1 0x40 MLOAD PUSH3 0x461BCD PUSH1 0xE5 SHL DUP2 MSTORE PUSH1 0x20 PUSH1 0x4 DUP3 ADD MSTORE PUSH1 0x1E PUSH1 0x24 DUP3 ADD MSTORE PUSH32 0x536166654D6174683A207375627472616374696F6E206F766572666C6F770000 PUSH1 0x44 DUP3 ADD MSTORE PUSH1 0x64 ADD PUSH1 0x40 MLOAD DUP1 SWAP2 SUB SWAP1 PUSH2 0x3F60 PUSH2 0x466B JUMP JUMPDEST POP POP JUMPDEST POP SWAP1 SUB SWAP1 JUMP JUMPDEST PUSH1 0x0 PUSH2 0x1C75 DUP3 PUSH2 0x3F87 DUP6 PUSH8 0xDE0B6B3A7640000 PUSH4 0xFFFFFFFF PUSH2 0x44A5 AND JUMP JUMPDEST SWAP1 PUSH4 0xFFFFFFFF PUSH2 0x4504 AND JUMP JUMPDEST PUSH1 0x0 PUSH2 0xCBD PUSH9 0x14DE5B9D1A1CD554D1 PUSH1 0xBA SHL PUSH1 0x40 MLOAD PUSH1 0x40 DUP1 DUP3 ADD SWAP1 MSTORE PUSH1 0x19 DUP2 MSTORE PUSH32 0x4D697373696E672053796E746873555344206164647265737300000000000000 PUSH1 0x20 DUP3 ADD MSTORE PUSH2 0x3DA7 JUMP JUMPDEST PUSH1 0x0 DUP1 PUSH2 0x3FEA CALLVALUE PUSH2 0x373F JUMP JUMPDEST SWAP1 POP PUSH1 0x0 PUSH1 0xA PUSH2 0x3FF8 PUSH2 0x4576 JUMP JUMPDEST PUSH1 0x1 PUSH1 0x1 PUSH1 0xA0 SHL SUB PUSH2 0x100 SWAP3 SWAP1 SWAP3 EXP SWAP1 DIV AND CALLVALUE DUP1 ISZERO PUSH2 0x8FC MUL SWAP1 PUSH1 0x40 MLOAD PUSH1 0x0 PUSH1 0x40 MLOAD DUP1 DUP4 SUB DUP2 DUP6 DUP9 DUP9 PUSH2 0x4029 PUSH2 0x47A6 JUMP JUMPDEST POP POP POP POP POP POP SWAP4 POP POP POP POP ISZERO DUP1 ISZERO PUSH2 0x404E JUMPI RETURNDATASIZE PUSH1 0x0 DUP1 RETURNDATACOPY RETURNDATASIZE PUSH1 0x0 PUSH2 0x404B PUSH2 0x466B JUMP JUMPDEST POP POP JUMPDEST POP PUSH2 0x4057 PUSH2 0x445A JUMP JUMPDEST PUSH1 0x1 PUSH1 0x1 PUSH1 0xA0 SHL SUB AND PUSH4 0xA9059CBB GAS PUSH2 0x406E PUSH2 0x485F JUMP JUMPDEST DUP4 PUSH1 0x40 MLOAD PUSH1 0x1 PUSH1 0x1 PUSH1 0xE0 SHL SUB NOT PUSH1 0xE0 DUP6 SWAP1 SHL AND DUP2 MSTORE PUSH1 0x1 PUSH1 0x1 PUSH1 0xA0 SHL SUB SWAP1 SWAP3 AND PUSH1 0x4 DUP4 ADD MSTORE PUSH1 0x24 DUP3 ADD MSTORE PUSH1 0x44 ADD PUSH1 0x20 PUSH1 0x40 MLOAD DUP1 DUP4 SUB DUP2 PUSH1 0x0 DUP8 DUP1 PUSH2 0x40B0 PUSH2 0x461F JUMP JUMPDEST ISZERO DUP1 ISZERO PUSH2 0x40C5 JUMPI PUSH1 0x0 DUP1 PUSH2 0x40C2 PUSH2 0x466B JUMP JUMPDEST POP POP JUMPDEST POP GAS PUSH2 0x40CF PUSH2 0x47A6 JUMP JUMPDEST POP POP POP POP POP POP ISZERO DUP1 ISZERO PUSH2 0x40EF JUMPI RETURNDATASIZE PUSH1 0x0 DUP1 RETURNDATACOPY RETURNDATASIZE PUSH1 0x0 PUSH2 0x40EC PUSH2 0x466B JUMP JUMPDEST POP POP JUMPDEST POP POP POP POP PUSH1 0x40 MLOAD RETURNDATASIZE PUSH1 0x20 DUP2 LT ISZERO PUSH2 0x410E JUMPI PUSH1 0x0 DUP1 PUSH2 0x410B PUSH2 0x466B JUMP JUMPDEST POP POP JUMPDEST DUP2 ADD SWAP1 DUP1 DUP1 MLOAD POP PUSH32 0xDB1741FFC6844B04A9284BB6337FB0CCFE543A493EF0AC8E725242201E93D4BD SWAP3 POP CALLVALUE SWAP2 POP DUP4 SWAP1 POP PUSH1 0x40 MLOAD PUSH1 0x20 DUP2 ADD SWAP3 SWAP1 SWAP3 MSTORE PUSH1 0x60 DUP3 ADD MSTORE PUSH1 0x80 DUP1 DUP3 MSTORE PUSH1 0x3 SWAP1 DUP3 ADD DUP2 SWAP1 MSTORE PUSH3 0x8AA89 PUSH1 0xEB SHL PUSH1 0xA0 DUP4 ADD MSTORE PUSH1 0xC0 PUSH1 0x40 DUP1 DUP5 ADD DUP3 SWAP1 MSTORE SWAP1 DUP4 ADD SWAP2 SWAP1 SWAP2 MSTORE PUSH3 0xA69CB PUSH1 0xEB SHL PUSH1 0xE0 DUP4 ADD MSTORE PUSH2 0x100 SWAP1 SWAP2 ADD SWAP1 MLOAD DUP1 SWAP2 SUB SWAP1 LOG1 SWAP1 POP SWAP1 JUMP JUMPDEST PUSH1 0x0 DUP1 PUSH2 0x41A1 PUSH2 0x4576 JUMP JUMPDEST SWAP1 PUSH2 0x100 EXP SWAP1 DIV PUSH1 0x1 PUSH1 0x1 PUSH1 0xA0 SHL SUB AND PUSH1 0x1 PUSH1 0x1 PUSH1 0xA0 SHL SUB AND GAS PUSH2 0x41C3 PUSH2 0x485F JUMP JUMPDEST PUSH1 0x1 PUSH1 0x1 PUSH1 0xA0 SHL SUB AND EQ PUSH2 0x420E JUMPI PUSH1 0x40 MLOAD PUSH3 0x461BCD PUSH1 0xE5 SHL DUP2 MSTORE PUSH1 0x4 ADD DUP1 DUP1 PUSH1 0x20 ADD DUP3 DUP2 SUB DUP3 MSTORE PUSH1 0x2F DUP2 MSTORE PUSH1 0x20 ADD DUP1 PUSH2 0x49FC PUSH1 0x2F SWAP2 CODECOPY PUSH1 0x40 ADD SWAP2 POP POP PUSH1 0x40 MLOAD DUP1 SWAP2 SUB SWAP1 PUSH2 0x23C8 PUSH2 0x466B JUMP JUMPDEST JUMP JUMPDEST PUSH1 0x0 DUP1 PUSH2 0x421C DUP4 PUSH2 0x3101 JUMP JUMPDEST SWAP1 POP PUSH2 0x4226 PUSH2 0x3F93 JUMP JUMPDEST PUSH1 0x1 PUSH1 0x1 PUSH1 0xA0 SHL SUB AND PUSH4 0x23B872DD GAS PUSH2 0x423D PUSH2 0x485F JUMP JUMPDEST PUSH1 0x0 PUSH1 0xA PUSH2 0x4249 PUSH2 0x4576 JUMP JUMPDEST SWAP1 PUSH2 0x100 EXP SWAP1 DIV PUSH1 0x1 PUSH1 0x1 PUSH1 0xA0 SHL SUB AND DUP7 PUSH1 0x40 MLOAD PUSH1 0x1 PUSH1 0x1 PUSH1 0xE0 SHL SUB NOT PUSH1 0xE0 DUP7 SWAP1 SHL AND DUP2 MSTORE PUSH1 0x1 PUSH1 0x1 PUSH1 0xA0 SHL SUB SWAP4 DUP5 AND PUSH1 0x4 DUP3 ADD MSTORE SWAP2 SWAP1 SWAP3 AND PUSH1 0x24 DUP3 ADD MSTORE PUSH1 0x44 DUP2 ADD SWAP2 SWAP1 SWAP2 MSTORE PUSH1 0x64 ADD PUSH1 0x20 PUSH1 0x40 MLOAD DUP1 DUP4 SUB DUP2 PUSH1 0x0 DUP8 DUP1 PUSH2 0x42A7 PUSH2 0x461F JUMP JUMPDEST ISZERO DUP1 ISZERO PUSH2 0x42BC JUMPI PUSH1 0x0 DUP1 PUSH2 0x42B9 PUSH2 0x466B JUMP JUMPDEST POP POP JUMPDEST POP GAS PUSH2 0x42C6 PUSH2 0x47A6 JUMP JUMPDEST POP POP POP POP POP POP ISZERO DUP1 ISZERO PUSH2 0x42E6 JUMPI RETURNDATASIZE PUSH1 0x0 DUP1 RETURNDATACOPY RETURNDATASIZE PUSH1 0x0 PUSH2 0x42E3 PUSH2 0x466B JUMP JUMPDEST POP POP JUMPDEST POP POP POP POP PUSH1 0x40 MLOAD RETURNDATASIZE PUSH1 0x20 DUP2 LT ISZERO PUSH2 0x4305 JUMPI PUSH1 0x0 DUP1 PUSH2 0x4302 PUSH2 0x466B JUMP JUMPDEST POP POP JUMPDEST DUP2 ADD SWAP1 DUP1 DUP1 MLOAD POP PUSH2 0x4319 SWAP3 POP PUSH2 0x445A SWAP2 POP POP JUMP JUMPDEST PUSH1 0x1 PUSH1 0x1 PUSH1 0xA0 SHL SUB AND PUSH4 0xA9059CBB GAS PUSH2 0x4330 PUSH2 0x485F JUMP JUMPDEST DUP4 PUSH1 0x40 MLOAD PUSH1 0x1 PUSH1 0x1 PUSH1 0xE0 SHL SUB NOT PUSH1 0xE0 DUP6 SWAP1 SHL AND DUP2 MSTORE PUSH1 0x1 PUSH1 0x1 PUSH1 0xA0 SHL SUB SWAP1 SWAP3 AND PUSH1 0x4 DUP4 ADD MSTORE PUSH1 0x24 DUP3 ADD MSTORE PUSH1 0x44 ADD PUSH1 0x20 PUSH1 0x40 MLOAD DUP1 DUP4 SUB DUP2 PUSH1 0x0 DUP8 DUP1 PUSH2 0x4372 PUSH2 0x461F JUMP JUMPDEST ISZERO DUP1 ISZERO PUSH2 0x4387 JUMPI PUSH1 0x0 DUP1 PUSH2 0x4384 PUSH2 0x466B JUMP JUMPDEST POP POP JUMPDEST POP GAS PUSH2 0x4391 PUSH2 0x47A6 JUMP JUMPDEST POP POP POP POP POP POP ISZERO DUP1 ISZERO PUSH2 0x43B1 JUMPI RETURNDATASIZE PUSH1 0x0 DUP1 RETURNDATACOPY RETURNDATASIZE PUSH1 0x0 PUSH2 0x43AE PUSH2 0x466B JUMP JUMPDEST POP POP JUMPDEST POP POP POP POP PUSH1 0x40 MLOAD RETURNDATASIZE PUSH1 0x20 DUP2 LT ISZERO PUSH2 0x43D0 JUMPI PUSH1 0x0 DUP1 PUSH2 0x43CD PUSH2 0x466B JUMP JUMPDEST POP POP JUMPDEST DUP2 ADD SWAP1 DUP1 DUP1 MLOAD POP PUSH32 0xDB1741FFC6844B04A9284BB6337FB0CCFE543A493EF0AC8E725242201E93D4BD SWAP3 POP DUP6 SWAP2 POP DUP4 SWAP1 POP PUSH1 0x40 MLOAD PUSH1 0x20 DUP2 ADD SWAP3 SWAP1 SWAP3 MSTORE PUSH1 0x60 DUP3 ADD MSTORE PUSH1 0x80 DUP1 DUP3 MSTORE PUSH1 0x4 SWAP1 DUP3 ADD MSTORE PUSH4 0x1CD554D1 PUSH1 0xE2 SHL PUSH1 0xA0 DUP3 ADD MSTORE PUSH1 0xC0 PUSH1 0x40 DUP1 DUP4 ADD DUP3 SWAP1 MSTORE PUSH1 0x3 SWAP2 DUP4 ADD SWAP2 SWAP1 SWAP2 MSTORE PUSH3 0xA69CB PUSH1 0xEB SHL PUSH1 0xE0 DUP4 ADD MSTORE PUSH2 0x100 SWAP1 SWAP2 ADD SWAP1 MLOAD DUP1 SWAP2 SUB SWAP1 LOG1 SWAP3 SWAP2 POP POP JUMP JUMPDEST PUSH1 0x0 PUSH2 0xCBD PUSH9 0xA6F2DCE8D0CAE8D2F PUSH1 0xBB SHL PUSH1 0x40 MLOAD PUSH1 0x40 DUP1 DUP3 ADD SWAP1 MSTORE PUSH1 0x19 DUP2 MSTORE PUSH32 0x4D697373696E672053796E746865746978206164647265737300000000000000 PUSH1 0x20 DUP3 ADD MSTORE PUSH2 0x3DA7 JUMP JUMPDEST PUSH1 0x0 DUP3 PUSH2 0x44B4 JUMPI POP PUSH1 0x0 PUSH2 0x3E6C JUMP JUMPDEST DUP3 DUP3 MUL DUP3 DUP5 DUP3 DUP2 PUSH2 0x44C1 JUMPI INVALID JUMPDEST DIV EQ PUSH2 0x1C75 JUMPI PUSH1 0x40 MLOAD PUSH3 0x461BCD PUSH1 0xE5 SHL DUP2 MSTORE PUSH1 0x4 ADD DUP1 DUP1 PUSH1 0x20 ADD DUP3 DUP2 SUB DUP3 MSTORE PUSH1 0x21 DUP2 MSTORE PUSH1 0x20 ADD DUP1 PUSH2 0x4A2B PUSH1 0x21 SWAP2 CODECOPY PUSH1 0x40 ADD SWAP2 POP POP PUSH1 0x40 MLOAD DUP1 SWAP2 SUB SWAP1 PUSH2 0x3EFB PUSH2 0x466B JUMP JUMPDEST PUSH1 0x0 DUP1 DUP3 GT PUSH2 0x4562 JUMPI PUSH1 0x40 MLOAD PUSH3 0x461BCD PUSH1 0xE5 SHL DUP2 MSTORE PUSH1 0x20 PUSH1 0x4 DUP3 ADD MSTORE PUSH1 0x1A PUSH1 0x24 DUP3 ADD MSTORE PUSH32 0x536166654D6174683A206469766973696F6E206279207A65726F000000000000 PUSH1 0x44 DUP3 ADD MSTORE PUSH1 0x64 ADD PUSH1 0x40 MLOAD DUP1 SWAP2 SUB SWAP1 PUSH2 0x455F PUSH2 0x466B JUMP JUMPDEST POP POP JUMPDEST PUSH1 0x0 DUP3 DUP5 DUP2 PUSH2 0x456D JUMPI INVALID JUMPDEST DIV SWAP5 SWAP4 POP POP POP POP JUMP JUMPDEST PUSH4 0x3DAA959 MSIZE DUP2 PUSH1 0xE0 SHL DUP2 MSTORE DUP4 PUSH1 0x4 DUP3 ADD MSTORE PUSH1 0x20 DUP2 PUSH1 0x24 DUP4 CALLER PUSH1 0x0 SWAP1 GAS CALL PC PUSH1 0xE ADD JUMPI RETURNDATASIZE PUSH1 0x0 DUP1 RETURNDATACOPY RETURNDATASIZE PUSH1 0x0 REVERT JUMPDEST RETURNDATASIZE PUSH1 0x1 EQ ISZERO PC PUSH1 0xA ADD JUMPI PUSH1 0x1 PUSH1 0x0 RETURN JUMPDEST DUP1 MLOAD SWAP4 POP PUSH1 0x0 JUMPDEST PUSH1 0x40 DUP2 LT ISZERO PUSH2 0x27F4 JUMPI PUSH1 0x0 DUP3 DUP3 ADD MSTORE PUSH1 0x20 ADD PUSH2 0x45BA JUMP JUMPDEST PUSH4 0x22BD64C0 MSIZE DUP2 PUSH1 0xE0 SHL DUP2 MSTORE DUP4 PUSH1 0x4 DUP3 ADD MSTORE DUP5 PUSH1 0x24 DUP3 ADD MSTORE PUSH1 0x0 DUP2 PUSH1 0x44 DUP4 CALLER PUSH1 0x0 SWAP1 GAS CALL PC PUSH1 0xE ADD JUMPI RETURNDATASIZE PUSH1 0x0 DUP1 RETURNDATACOPY RETURNDATASIZE PUSH1 0x0 REVERT JUMPDEST RETURNDATASIZE PUSH1 0x1 EQ ISZERO PC PUSH1 0xA ADD JUMPI PUSH1 0x1 PUSH1 0x0 RETURN JUMPDEST PUSH1 0x0 DUP2 MSTORE PUSH1 0x20 PUSH2 0x45BA JUMP JUMPDEST PUSH4 0x8435035B MSIZE DUP2 PUSH1 0xE0 SHL DUP2 MSTORE DUP4 PUSH1 0x4 DUP3 ADD MSTORE PUSH1 0x20 DUP2 PUSH1 0x24 DUP4 CALLER PUSH1 0x0 SWAP1 GAS CALL PC PUSH1 0xE ADD JUMPI RETURNDATASIZE PUSH1 0x0 DUP1 RETURNDATACOPY RETURNDATASIZE PUSH1 0x0 REVERT JUMPDEST RETURNDATASIZE PUSH1 0x1 EQ ISZERO PC PUSH1 0xA ADD JUMPI PUSH1 0x1 PUSH1 0x0 RETURN JUMPDEST DUP1 MLOAD PUSH1 0x0 DUP3 MSTORE SWAP4 POP PUSH1 0x20 PUSH2 0x45BA JUMP JUMPDEST PUSH4 0x2A2A7ADB MSIZE DUP2 PUSH1 0xE0 SHL DUP2 MSTORE PUSH1 0x4 DUP2 ADD PUSH1 0x20 DUP2 MSTORE DUP6 PUSH1 0x20 DUP3 ADD MSTORE PUSH1 0x0 JUMPDEST DUP7 DUP2 LT ISZERO PUSH2 0x46A3 JUMPI DUP1 DUP7 ADD MLOAD DUP3 DUP3 ADD PUSH1 0x40 ADD MSTORE PUSH1 0x20 ADD PUSH2 0x4688 JUMP JUMPDEST POP PUSH1 0x20 DUP3 DUP8 PUSH1 0x64 ADD DUP5 CALLER PUSH1 0x0 SWAP1 GAS CALL PC PUSH1 0xE ADD JUMPI RETURNDATASIZE PUSH1 0x0 DUP1 RETURNDATACOPY RETURNDATASIZE PUSH1 0x0 REVERT JUMPDEST RETURNDATASIZE PUSH1 0x1 EQ ISZERO PC PUSH1 0xA ADD JUMPI PUSH1 0x1 PUSH1 0x0 RETURN JUMPDEST POP POP POP JUMP JUMPDEST PUSH4 0x8540661F MSIZE DUP2 PUSH1 0xE0 SHL DUP2 MSTORE DUP4 PUSH1 0x4 DUP3 ADD MSTORE DUP5 PUSH1 0x24 DUP3 ADD MSTORE PUSH1 0x60 PUSH1 0x44 DUP3 ADD MSTORE DUP7 PUSH1 0x64 DUP3 ADD MSTORE PUSH1 0x84 DUP2 ADD PUSH1 0x0 JUMPDEST DUP9 DUP2 LT ISZERO PUSH2 0x471A JUMPI DUP1 DUP9 ADD MLOAD DUP3 DUP3 ADD MSTORE PUSH1 0x20 ADD PUSH2 0x4702 JUMP JUMPDEST POP DUP8 PUSH2 0x104 ADD DUP3 ADD PUSH1 0x60 DUP4 DUP11 PUSH2 0x104 ADD DUP6 CALLER PUSH1 0x0 SWAP1 GAS CALL PC PUSH1 0xE ADD JUMPI RETURNDATASIZE PUSH1 0x0 DUP1 RETURNDATACOPY RETURNDATASIZE PUSH1 0x0 REVERT JUMPDEST RETURNDATASIZE PUSH1 0x1 EQ ISZERO PC PUSH1 0xA ADD JUMPI PUSH1 0x1 PUSH1 0x0 RETURN JUMPDEST DUP3 MLOAD PUSH1 0x40 DUP5 ADD MLOAD RETURNDATASIZE PUSH1 0x0 DUP7 RETURNDATACOPY DUP13 DUP13 DUP3 PUSH1 0x60 DUP9 ADD CALLER POP PUSH1 0x0 PUSH1 0x4 GAS CALL POP MSIZE DUP6 JUMPDEST DUP2 DUP2 LT ISZERO PUSH2 0x4783 JUMPI PUSH1 0x0 DUP2 MSTORE PUSH1 0x20 ADD PUSH2 0x476F JUMP JUMPDEST POP SWAP2 SWAP13 POP POP POP POP POP POP POP JUMP JUMPDEST PUSH1 0x40 MLOAD PUSH1 0x40 DUP1 DUP3 ADD SWAP1 MSTORE PUSH1 0x0 DUP1 DUP3 MSTORE PUSH1 0x20 DUP3 ADD MSTORE SWAP1 JUMP JUMPDEST PUSH4 0x85979F76 MSIZE DUP2 PUSH1 0xE0 SHL DUP2 MSTORE DUP4 PUSH1 0x4 DUP3 ADD MSTORE DUP5 PUSH1 0x24 DUP3 ADD MSTORE PUSH1 0x60 PUSH1 0x44 DUP3 ADD MSTORE DUP8 PUSH1 0x64 DUP3 ADD MSTORE PUSH1 0x84 DUP2 ADD PUSH1 0x0 JUMPDEST DUP10 DUP2 LT ISZERO PUSH2 0x47EA JUMPI DUP1 DUP10 ADD MLOAD DUP3 DUP3 ADD MSTORE PUSH1 0x20 ADD PUSH2 0x47D2 JUMP JUMPDEST POP DUP9 PUSH2 0x104 ADD DUP3 ADD PUSH1 0x60 DUP4 DUP12 PUSH2 0x104 ADD DUP6 CALLER PUSH1 0x0 SWAP1 GAS CALL PC PUSH1 0xE ADD JUMPI RETURNDATASIZE PUSH1 0x0 DUP1 RETURNDATACOPY RETURNDATASIZE PUSH1 0x0 REVERT JUMPDEST RETURNDATASIZE PUSH1 0x1 EQ ISZERO PC PUSH1 0xA ADD JUMPI PUSH1 0x1 PUSH1 0x0 RETURN JUMPDEST DUP3 MLOAD PUSH1 0x40 DUP5 ADD MLOAD RETURNDATASIZE PUSH1 0x0 DUP7 RETURNDATACOPY DUP14 DUP14 DUP3 PUSH1 0x60 DUP9 ADD CALLER POP PUSH1 0x0 PUSH1 0x4 GAS CALL POP MSIZE DUP6 JUMPDEST DUP2 DUP2 LT ISZERO PUSH2 0x4853 JUMPI PUSH1 0x0 DUP2 MSTORE PUSH1 0x20 ADD PUSH2 0x483F JUMP JUMPDEST POP SWAP2 SWAP14 POP POP POP POP POP POP POP JUMP JUMPDEST PUSH4 0x73509064 MSIZE DUP2 PUSH1 0xE0 SHL DUP2 MSTORE PUSH1 0x20 DUP2 PUSH1 0x4 DUP4 CALLER PUSH1 0x0 SWAP1 GAS CALL PC PUSH1 0xE ADD JUMPI RETURNDATASIZE PUSH1 0x0 DUP1 RETURNDATACOPY RETURNDATASIZE PUSH1 0x0 REVERT JUMPDEST RETURNDATASIZE PUSH1 0x1 EQ ISZERO PC PUSH1 0xA ADD JUMPI PUSH1 0x1 PUSH1 0x0 RETURN JUMPDEST DUP1 MLOAD PUSH1 0x0 DUP3 MSTORE SWAP4 POP PUSH1 0x20 PUSH2 0x45BA JUMP JUMPDEST PUSH4 0xBDBF8C36 MSIZE DUP2 PUSH1 0xE0 SHL DUP2 MSTORE PUSH1 0x20 DUP2 PUSH1 0x4 DUP4 CALLER PUSH1 0x0 SWAP1 GAS CALL PC PUSH1 0xE ADD JUMPI RETURNDATASIZE PUSH1 0x0 DUP1 RETURNDATACOPY RETURNDATASIZE PUSH1 0x0 REVERT JUMPDEST RETURNDATASIZE PUSH1 0x1 EQ ISZERO PC PUSH1 0xA ADD JUMPI PUSH1 0x1 PUSH1 0x0 RETURN JUMPDEST DUP1 MLOAD PUSH1 0x0 DUP3 MSTORE SWAP4 POP PUSH1 0x20 PUSH2 0x45BA JUMP JUMPDEST PUSH4 0xFFE73914 MSIZE DUP2 PUSH1 0xE0 SHL DUP2 MSTORE DUP4 PUSH1 0x4 DUP3 ADD MSTORE DUP5 PUSH1 0x24 DUP3 ADD MSTORE PUSH1 0x60 PUSH1 0x44 DUP3 ADD MSTORE DUP7 PUSH1 0x64 DUP3 ADD MSTORE PUSH1 0x84 DUP2 ADD PUSH1 0x0 DUP9 DUP2 LT ISZERO PUSH2 0x471A JUMPI DUP1 DUP9 ADD MLOAD DUP3 DUP3 ADD MSTORE PUSH1 0x20 ADD PUSH2 0x4702 JUMP JUMPDEST PUSH1 0x40 MLOAD PUSH2 0x300 DUP1 DUP3 ADD PUSH1 0x40 MSTORE PUSH1 0x18 SWAP1 DUP3 SWAP1 DUP1 CODESIZE DUP4 CODECOPY POP SWAP2 SWAP3 SWAP2 POP POP JUMP INVALID SELFBALANCE PUSH22 0x6172616E74656564206574686572207261746520776F PUSH22 0x6C64206E6F74206265207265636569766564596F7520 PUSH14 0x757374206265206E6F6D696E6174 PUSH6 0x64206265666F PUSH19 0x6520796F752063616E20616363657074206F77 PUSH15 0x65727368697047756172616E746565 PUSH5 0x2073796E74 PUSH9 0x657469782072617465 KECCAK256 PUSH24 0x6F756C64206E6F74206265207265636569766564596F7520 PUSH9 0x617665206E6F206465 PUSH17 0x6F7369747320746F207769746864726177 0x2E 0x4F PUSH15 0x6C792074686520636F6E7472616374 KECCAK256 PUSH16 0x776E6572206D617920706572666F726D KECCAK256 PUSH21 0x68697320616374696F6E536166654D6174683A206D PUSH22 0x6C7469706C69636174696F6E206F766572666C6F7745 SLOAD 0x48 KECCAK256 PUSH2 0x6D6F PUSH22 0x6E742061626F7665206D617845746850757263686173 PUSH6 0x206C696D6974 MSTORE PUSH2 0x7465 KECCAK256 PUSH10 0x6E76616C6964206F7220 PUSH15 0x6F7420612073796E74680000000000 0x4D PUSH10 0x6E696D756D206465706F PUSH20 0x697420616D6F756E74206D757374206265206772 PUSH6 0x617465722074 PUSH9 0x616E20554E49545468 PUSH10 0x7320616374696F6E2063 PUSH2 0x6E6E PUSH16 0x7420626520706572666F726D65642077 PUSH9 0x696C65207468652063 PUSH16 0x6E747261637420697320706175736564 SELFBALANCE PUSH22 0x6172616E74656564207261746520776F756C64206E6F PUSH21 0x206265207265636569766564000000000000000000 "
		}
	}
}