{
	"abi": [
		{
			"inputs": [
				{
					"internalType": "contract ISynthetixEscrow",
					"name": "_esc",
					"type": "address"
				}
			],
			"payable": false,
			"stateMutability": "nonpayable",
			"type": "constructor"
		},
		{
			"constant": true,
			"inputs": [
				{
					"internalType": "address",
					"name": "account",
					"type": "address"
				}
			],
			"name": "checkAccountSchedule",
			"outputs": [
				{
					"internalType": "uint256[16]",
					"name": "",
					"type": "uint256[16]"
				}
			],
			"payable": false,
			"stateMutability": "view",
			"type": "function"
		},
		{
			"constant": true,
			"inputs": [],
			"name": "synthetix_escrow",
			"outputs": [
				{
					"internalType": "contract ISynthetixEscrow",
					"name": "",
					"type": "address"
				}
			],
			"payable": false,
			"stateMutability": "view",
			"type": "function"
		}
	],
	"evm": {
		"bytecode": {
			"linkReferences": {},
			"object": "60806040523480156100195760008061001661008a565b50505b506040516106c03803806106c0833981810160405260208110156100455760008061004261008a565b50505b81019080805192508291506000905060018161005f6100f5565b816001600160a01b0302191690836001600160a01b0316021790610081610155565b505050506101a3565b632a2a7adb598160e01b8152600481016020815285602082015260005b868110156100c25780860151828201604001526020016100a7565b506020828760640184336000905af158600e01573d6000803e3d6000fd5b3d6001141558600a015760016000f35b505050565b6303daa959598160e01b8152836004820152602081602483336000905af158600e01573d6000803e3d6000fd5b3d6001141558600a015760016000f35b8051935060005b604081101561015057600082820152602001610139565b505050565b6322bd64c0598160e01b8152836004820152846024820152600081604483336000905af158600e01573d6000803e3d6000fd5b3d6001141558600a015760016000f35b600081526020610139565b61050e806101b26000396000f3fe608060405234801561001957600080610016610306565b50505b506004361061003f5760003560e01c8063449d0eb11461004d5780639514c232146100b5575b60008061004a610306565b50505b61007c6004803603602081101561006c57600080610069610306565b50505b50356001600160a01b03166100d9565b604051808261020080838360005b838110156100a257808201518382015260200161008a565b5050505090500191505060405180910390f35b6100bd6102e8565b6040516001600160a01b03909116815260200160405180910390f35b6100e1610371565b6100e9610371565b600080806100f561038e565b906101000a90046001600160a01b03166001600160a01b031663204b676a856040516001600160e01b031960e084901b1681526001600160a01b039091166004820152602401602060405180830381868061014e6103ee565b15801561016357600080610160610306565b50505b505a61016d61043a565b505050505015801561018c573d6000803e3d6000610189610306565b50505b505050506040513d60208110156101ab576000806101a8610306565b50505b81019080805193506000925050505b818110156102df576101ca6104f3565b6000806101d561038e565b906101000a90046001600160a01b03166001600160a01b031663da7bd3e987846040516001600160e01b031960e085901b1681526001600160a01b0390921660048301526024820152604401604080518083038186806102336103ee565b15801561024857600080610245610306565b50505b505a61025261043a565b5050505050158015610271573d6000803e3d600061026e610306565b50505b50505050604051601f3d908101601f19168201604090815281101561029e5760008061029b610306565b50505b50905080518483600202601081106102b257fe5b602002015280600160200201518483600202600101601081106102d157fe5b6020020152506001016101ba565b50909392505050565b6000806102f361038e565b906101000a90046001600160a01b031681565b632a2a7adb598160e01b8152600481016020815285602082015260005b8681101561033e578086015182820160400152602001610323565b506020828760640184336000905af158600e01573d6000803e3d6000fd5b3d6001141558600a015760016000f35b505050565b604051610200808201604052601090829080388339509192915050565b6303daa959598160e01b8152836004820152602081602483336000905af158600e01573d6000803e3d6000fd5b3d6001141558600a015760016000f35b8051935060005b60408110156103e9576000828201526020016103d2565b505050565b638435035b598160e01b8152836004820152602081602483336000905af158600e01573d6000803e3d6000fd5b3d6001141558600a015760016000f35b805160008252935060206103d2565b638540661f598160e01b8152836004820152846024820152606060448201528660648201526084810160005b8881101561047e578088015182820152602001610466565b50876101040182016060838a6101040185336000905af158600e01573d6000803e3d6000fd5b3d6001141558600a015760016000f35b825160408401513d6000863e8c8c82606088013350600060045af15059855b818110156104e757600081526020016104d3565b50919c50505050505050565b6040516040808201815260029082908038833950919291505056",
			"opcodes": "PUSH1 0x80 PUSH1 0x40 MSTORE CALLVALUE DUP1 ISZERO PUSH2 0x19 JUMPI PUSH1 0x0 DUP1 PUSH2 0x16 PUSH2 0x8A JUMP JUMPDEST POP POP JUMPDEST POP PUSH1 0x40 MLOAD PUSH2 0x6C0 CODESIZE SUB DUP1 PUSH2 0x6C0 DUP4 CODECOPY DUP2 DUP2 ADD PUSH1 0x40 MSTORE PUSH1 0x20 DUP2 LT ISZERO PUSH2 0x45 JUMPI PUSH1 0x0 DUP1 PUSH2 0x42 PUSH2 0x8A JUMP JUMPDEST POP POP JUMPDEST DUP2 ADD SWAP1 DUP1 DUP1 MLOAD SWAP3 POP DUP3 SWAP2 POP PUSH1 0x0 SWAP1 POP PUSH1 0x1 DUP2 PUSH2 0x5F PUSH2 0xF5 JUMP JUMPDEST DUP2 PUSH1 0x1 PUSH1 0x1 PUSH1 0xA0 SHL SUB MUL NOT AND SWAP1 DUP4 PUSH1 0x1 PUSH1 0x1 PUSH1 0xA0 SHL SUB AND MUL OR SWAP1 PUSH2 0x81 PUSH2 0x155 JUMP JUMPDEST POP POP POP POP PUSH2 0x1A3 JUMP JUMPDEST PUSH4 0x2A2A7ADB MSIZE DUP2 PUSH1 0xE0 SHL DUP2 MSTORE PUSH1 0x4 DUP2 ADD PUSH1 0x20 DUP2 MSTORE DUP6 PUSH1 0x20 DUP3 ADD MSTORE PUSH1 0x0 JUMPDEST DUP7 DUP2 LT ISZERO PUSH2 0xC2 JUMPI DUP1 DUP7 ADD MLOAD DUP3 DUP3 ADD PUSH1 0x40 ADD MSTORE PUSH1 0x20 ADD PUSH2 0xA7 JUMP JUMPDEST POP PUSH1 0x20 DUP3 DUP8 PUSH1 0x64 ADD DUP5 CALLER PUSH1 0x0 SWAP1 GAS CALL PC PUSH1 0xE ADD JUMPI RETURNDATASIZE PUSH1 0x0 DUP1 RETURNDATACOPY RETURNDATASIZE PUSH1 0x0 REVERT JUMPDEST RETURNDATASIZE PUSH1 0x1 EQ ISZERO PC PUSH1 0xA ADD JUMPI PUSH1 0x1 PUSH1 0x0 RETURN JUMPDEST POP POP POP JUMP JUMPDEST PUSH4 0x3DAA959 MSIZE DUP2 PUSH1 0xE0 SHL DUP2 MSTORE DUP4 PUSH1 0x4 DUP3 ADD MSTORE PUSH1 0x20 DUP2 PUSH1 0x24 DUP4 CALLER PUSH1 0x0 SWAP1 GAS CALL PC PUSH1 0xE ADD JUMPI RETURNDATASIZE PUSH1 0x0 DUP1 RETURNDATACOPY RETURNDATASIZE PUSH1 0x0 REVERT JUMPDEST RETURNDATASIZE PUSH1 0x1 EQ ISZERO PC PUSH1 0xA ADD JUMPI PUSH1 0x1 PUSH1 0x0 RETURN JUMPDEST DUP1 MLOAD SWAP4 POP PUSH1 0x0 JUMPDEST PUSH1 0x40 DUP2 LT ISZERO PUSH2 0x150 JUMPI PUSH1 0x0 DUP3 DUP3 ADD MSTORE PUSH1 0x20 ADD PUSH2 0x139 JUMP JUMPDEST POP POP POP JUMP JUMPDEST PUSH4 0x22BD64C0 MSIZE DUP2 PUSH1 0xE0 SHL DUP2 MSTORE DUP4 PUSH1 0x4 DUP3 ADD MSTORE DUP5 PUSH1 0x24 DUP3 ADD MSTORE PUSH1 0x0 DUP2 PUSH1 0x44 DUP4 CALLER PUSH1 0x0 SWAP1 GAS CALL PC PUSH1 0xE ADD JUMPI RETURNDATASIZE PUSH1 0x0 DUP1 RETURNDATACOPY RETURNDATASIZE PUSH1 0x0 REVERT JUMPDEST RETURNDATASIZE PUSH1 0x1 EQ ISZERO PC PUSH1 0xA ADD JUMPI PUSH1 0x1 PUSH1 0x0 RETURN JUMPDEST PUSH1 0x0 DUP2 MSTORE PUSH1 0x20 PUSH2 0x139 JUMP JUMPDEST PUSH2 0x50E DUP1 PUSH2 0x1B2 PUSH1 0x0 CODECOPY PUSH1 0x0 RETURN INVALID PUSH1 0x80 PUSH1 0x40 MSTORE CALLVALUE DUP1 ISZERO PUSH2 0x19 JUMPI PUSH1 0x0 DUP1 PUSH2 0x16 PUSH2 0x306 JUMP JUMPDEST POP POP JUMPDEST POP PUSH1 0x4 CALLDATASIZE LT PUSH2 0x3F JUMPI PUSH1 0x0 CALLDATALOAD PUSH1 0xE0 SHR DUP1 PUSH4 0x449D0EB1 EQ PUSH2 0x4D JUMPI DUP1 PUSH4 0x9514C232 EQ PUSH2 0xB5 JUMPI JUMPDEST PUSH1 0x0 DUP1 PUSH2 0x4A PUSH2 0x306 JUMP JUMPDEST POP POP JUMPDEST PUSH2 0x7C PUSH1 0x4 DUP1 CALLDATASIZE SUB PUSH1 0x20 DUP2 LT ISZERO PUSH2 0x6C JUMPI PUSH1 0x0 DUP1 PUSH2 0x69 PUSH2 0x306 JUMP JUMPDEST POP POP JUMPDEST POP CALLDATALOAD PUSH1 0x1 PUSH1 0x1 PUSH1 0xA0 SHL SUB AND PUSH2 0xD9 JUMP JUMPDEST PUSH1 0x40 MLOAD DUP1 DUP3 PUSH2 0x200 DUP1 DUP4 DUP4 PUSH1 0x0 JUMPDEST DUP4 DUP2 LT ISZERO PUSH2 0xA2 JUMPI DUP1 DUP3 ADD MLOAD DUP4 DUP3 ADD MSTORE PUSH1 0x20 ADD PUSH2 0x8A JUMP JUMPDEST POP POP POP POP SWAP1 POP ADD SWAP2 POP POP PUSH1 0x40 MLOAD DUP1 SWAP2 SUB SWAP1 RETURN JUMPDEST PUSH2 0xBD PUSH2 0x2E8 JUMP JUMPDEST PUSH1 0x40 MLOAD PUSH1 0x1 PUSH1 0x1 PUSH1 0xA0 SHL SUB SWAP1 SWAP2 AND DUP2 MSTORE PUSH1 0x20 ADD PUSH1 0x40 MLOAD DUP1 SWAP2 SUB SWAP1 RETURN JUMPDEST PUSH2 0xE1 PUSH2 0x371 JUMP JUMPDEST PUSH2 0xE9 PUSH2 0x371 JUMP JUMPDEST PUSH1 0x0 DUP1 DUP1 PUSH2 0xF5 PUSH2 0x38E JUMP JUMPDEST SWAP1 PUSH2 0x100 EXP SWAP1 DIV PUSH1 0x1 PUSH1 0x1 PUSH1 0xA0 SHL SUB AND PUSH1 0x1 PUSH1 0x1 PUSH1 0xA0 SHL SUB AND PUSH4 0x204B676A DUP6 PUSH1 0x40 MLOAD PUSH1 0x1 PUSH1 0x1 PUSH1 0xE0 SHL SUB NOT PUSH1 0xE0 DUP5 SWAP1 SHL AND DUP2 MSTORE PUSH1 0x1 PUSH1 0x1 PUSH1 0xA0 SHL SUB SWAP1 SWAP2 AND PUSH1 0x4 DUP3 ADD MSTORE PUSH1 0x24 ADD PUSH1 0x20 PUSH1 0x40 MLOAD DUP1 DUP4 SUB DUP2 DUP7 DUP1 PUSH2 0x14E PUSH2 0x3EE JUMP JUMPDEST ISZERO DUP1 ISZERO PUSH2 0x163 JUMPI PUSH1 0x0 DUP1 PUSH2 0x160 PUSH2 0x306 JUMP JUMPDEST POP POP JUMPDEST POP GAS PUSH2 0x16D PUSH2 0x43A JUMP JUMPDEST POP POP POP POP POP ISZERO DUP1 ISZERO PUSH2 0x18C JUMPI RETURNDATASIZE PUSH1 0x0 DUP1 RETURNDATACOPY RETURNDATASIZE PUSH1 0x0 PUSH2 0x189 PUSH2 0x306 JUMP JUMPDEST POP POP JUMPDEST POP POP POP POP PUSH1 0x40 MLOAD RETURNDATASIZE PUSH1 0x20 DUP2 LT ISZERO PUSH2 0x1AB JUMPI PUSH1 0x0 DUP1 PUSH2 0x1A8 PUSH2 0x306 JUMP JUMPDEST POP POP JUMPDEST DUP2 ADD SWAP1 DUP1 DUP1 MLOAD SWAP4 POP PUSH1 0x0 SWAP3 POP POP POP JUMPDEST DUP2 DUP2 LT ISZERO PUSH2 0x2DF JUMPI PUSH2 0x1CA PUSH2 0x4F3 JUMP JUMPDEST PUSH1 0x0 DUP1 PUSH2 0x1D5 PUSH2 0x38E JUMP JUMPDEST SWAP1 PUSH2 0x100 EXP SWAP1 DIV PUSH1 0x1 PUSH1 0x1 PUSH1 0xA0 SHL SUB AND PUSH1 0x1 PUSH1 0x1 PUSH1 0xA0 SHL SUB AND PUSH4 0xDA7BD3E9 DUP8 DUP5 PUSH1 0x40 MLOAD PUSH1 0x1 PUSH1 0x1 PUSH1 0xE0 SHL SUB NOT PUSH1 0xE0 DUP6 SWAP1 SHL AND DUP2 MSTORE PUSH1 0x1 PUSH1 0x1 PUSH1 0xA0 SHL SUB SWAP1 SWAP3 AND PUSH1 0x4 DUP4 ADD MSTORE PUSH1 0x24 DUP3 ADD MSTORE PUSH1 0x44 ADD PUSH1 0x40 DUP1 MLOAD DUP1 DUP4 SUB DUP2 DUP7 DUP1 PUSH2 0x233 PUSH2 0x3EE JUMP JUMPDEST ISZERO DUP1 ISZERO PUSH2 0x248 JUMPI PUSH1 0x0 DUP1 PUSH2 0x245 PUSH2 0x306 JUMP JUMPDEST POP POP JUMPDEST POP GAS PUSH2 0x252 PUSH2 0x43A JUMP JUMPDEST POP POP POP POP POP ISZERO DUP1 ISZERO PUSH2 0x271 JUMPI RETURNDATASIZE PUSH1 0x0 DUP1 RETURNDATACOPY RETURNDATASIZE PUSH1 0x0 PUSH2 0x26E PUSH2 0x306 JUMP JUMPDEST POP POP JUMPDEST POP POP POP POP PUSH1 0x40 MLOAD PUSH1 0x1F RETURNDATASIZE SWAP1 DUP2 ADD PUSH1 0x1F NOT AND DUP3 ADD PUSH1 0x40 SWAP1 DUP2 MSTORE DUP2 LT ISZERO PUSH2 0x29E JUMPI PUSH1 0x0 DUP1 PUSH2 0x29B PUSH2 0x306 JUMP JUMPDEST POP POP JUMPDEST POP SWAP1 POP DUP1 MLOAD DUP5 DUP4 PUSH1 0x2 MUL PUSH1 0x10 DUP2 LT PUSH2 0x2B2 JUMPI INVALID JUMPDEST PUSH1 0x20 MUL ADD MSTORE DUP1 PUSH1 0x1 PUSH1 0x20 MUL ADD MLOAD DUP5 DUP4 PUSH1 0x2 MUL PUSH1 0x1 ADD PUSH1 0x10 DUP2 LT PUSH2 0x2D1 JUMPI INVALID JUMPDEST PUSH1 0x20 MUL ADD MSTORE POP PUSH1 0x1 ADD PUSH2 0x1BA JUMP JUMPDEST POP SWAP1 SWAP4 SWAP3 POP POP POP JUMP JUMPDEST PUSH1 0x0 DUP1 PUSH2 0x2F3 PUSH2 0x38E JUMP JUMPDEST SWAP1 PUSH2 0x100 EXP SWAP1 DIV PUSH1 0x1 PUSH1 0x1 PUSH1 0xA0 SHL SUB AND DUP2 JUMP JUMPDEST PUSH4 0x2A2A7ADB MSIZE DUP2 PUSH1 0xE0 SHL DUP2 MSTORE PUSH1 0x4 DUP2 ADD PUSH1 0x20 DUP2 MSTORE DUP6 PUSH1 0x20 DUP3 ADD MSTORE PUSH1 0x0 JUMPDEST DUP7 DUP2 LT ISZERO PUSH2 0x33E JUMPI DUP1 DUP7 ADD MLOAD DUP3 DUP3 ADD PUSH1 0x40 ADD MSTORE PUSH1 0x20 ADD PUSH2 0x323 JUMP JUMPDEST POP PUSH1 0x20 DUP3 DUP8 PUSH1 0x64 ADD DUP5 CALLER PUSH1 0x0 SWAP1 GAS CALL PC PUSH1 0xE ADD JUMPI RETURNDATASIZE PUSH1 0x0 DUP1 RETURNDATACOPY RETURNDATASIZE PUSH1 0x0 REVERT JUMPDEST RETURNDATASIZE PUSH1 0x1 EQ ISZERO PC PUSH1 0xA ADD JUMPI PUSH1 0x1 PUSH1 0x0 RETURN JUMPDEST POP POP POP JUMP JUMPDEST PUSH1 0x40 MLOAD PUSH2 0x200 DUP1 DUP3 ADD PUSH1 0x40 MSTORE PUSH1 0x10 SWAP1 DUP3 SWAP1 DUP1 CODESIZE DUP4 CODECOPY POP SWAP2 SWAP3 SWAP2 POP POP JUMP JUMPDEST PUSH4 0x3DAA959 MSIZE DUP2 PUSH1 0xE0 SHL DUP2 MSTORE DUP4 PUSH1 0x4 DUP3 ADD MSTORE PUSH1 0x20 DUP2 PUSH1 0x24 DUP4 CALLER PUSH1 0x0 SWAP1 GAS CALL PC PUSH1 0xE ADD JUMPI RETURNDATASIZE PUSH1 0x0 DUP1 RETURNDATACOPY RETURNDATASIZE PUSH1 0x0 REVERT JUMPDEST RETURNDATASIZE PUSH1 0x1 EQ ISZERO PC PUSH1 0xA ADD JUMPI PUSH1 0x1 PUSH1 0x0 RETURN JUMPDEST DUP1 MLOAD SWAP4 POP PUSH1 0x0 JUMPDEST PUSH1 0x40 DUP2 LT ISZERO PUSH2 0x3E9 JUMPI PUSH1 0x0 DUP3 DUP3 ADD MSTORE PUSH1 0x20 ADD PUSH2 0x3D2 JUMP JUMPDEST POP POP POP JUMP JUMPDEST PUSH4 0x8435035B MSIZE DUP2 PUSH1 0xE0 SHL DUP2 MSTORE DUP4 PUSH1 0x4 DUP3 ADD MSTORE PUSH1 0x20 DUP2 PUSH1 0x24 DUP4 CALLER PUSH1 0x0 SWAP1 GAS CALL PC PUSH1 0xE ADD JUMPI RETURNDATASIZE PUSH1 0x0 DUP1 RETURNDATACOPY RETURNDATASIZE PUSH1 0x0 REVERT JUMPDEST RETURNDATASIZE PUSH1 0x1 EQ ISZERO PC PUSH1 0xA ADD JUMPI PUSH1 0x1 PUSH1 0x0 RETURN JUMPDEST DUP1 MLOAD PUSH1 0x0 DUP3 MSTORE SWAP4 POP PUSH1 0x20 PUSH2 0x3D2 JUMP JUMPDEST PUSH4 0x8540661F MSIZE DUP2 PUSH1 0xE0 SHL DUP2 MSTORE DUP4 PUSH1 0x4 DUP3 ADD MSTORE DUP5 PUSH1 0x24 DUP3 ADD MSTORE PUSH1 0x60 PUSH1 0x44 DUP3 ADD MSTORE DUP7 PUSH1 0x64 DUP3 ADD MSTORE PUSH1 0x84 DUP2 ADD PUSH1 0x0 JUMPDEST DUP9 DUP2 LT ISZERO PUSH2 0x47E JUMPI DUP1 DUP9 ADD MLOAD DUP3 DUP3 ADD MSTORE PUSH1 0x20 ADD PUSH2 0x466 JUMP JUMPDEST POP DUP8 PUSH2 0x104 ADD DUP3 ADD PUSH1 0x60 DUP4 DUP11 PUSH2 0x104 ADD DUP6 CALLER PUSH1 0x0 SWAP1 GAS CALL PC PUSH1 0xE ADD JUMPI RETURNDATASIZE PUSH1 0x0 DUP1 RETURNDATACOPY RETURNDATASIZE PUSH1 0x0 REVERT JUMPDEST RETURNDATASIZE PUSH1 0x1 EQ ISZERO PC PUSH1 0xA ADD JUMPI PUSH1 0x1 PUSH1 0x0 RETURN JUMPDEST DUP3 MLOAD PUSH1 0x40 DUP5 ADD MLOAD RETURNDATASIZE PUSH1 0x0 DUP7 RETURNDATACOPY DUP13 DUP13 DUP3 PUSH1 0x60 DUP9 ADD CALLER POP PUSH1 0x0 PUSH1 0x4 GAS CALL POP MSIZE DUP6 JUMPDEST DUP2 DUP2 LT ISZERO PUSH2 0x4E7 JUMPI PUSH1 0x0 DUP2 MSTORE PUSH1 0x20 ADD PUSH2 0x4D3 JUMP JUMPDEST POP SWAP2 SWAP13 POP POP POP POP POP POP POP JUMP JUMPDEST PUSH1 0x40 MLOAD PUSH1 0x40 DUP1 DUP3 ADD DUP2 MSTORE PUSH1 0x2 SWAP1 DUP3 SWAP1 DUP1 CODESIZE DUP4 CODECOPY POP SWAP2 SWAP3 SWAP2 POP POP JUMP "
		},
		"deployedBytecode": {
			"linkReferences": {},
			"object": "608060405234801561001957600080610016610306565b50505b506004361061003f5760003560e01c8063449d0eb11461004d5780639514c232146100b5575b60008061004a610306565b50505b61007c6004803603602081101561006c57600080610069610306565b50505b50356001600160a01b03166100d9565b604051808261020080838360005b838110156100a257808201518382015260200161008a565b5050505090500191505060405180910390f35b6100bd6102e8565b6040516001600160a01b03909116815260200160405180910390f35b6100e1610371565b6100e9610371565b600080806100f561038e565b906101000a90046001600160a01b03166001600160a01b031663204b676a856040516001600160e01b031960e084901b1681526001600160a01b039091166004820152602401602060405180830381868061014e6103ee565b15801561016357600080610160610306565b50505b505a61016d61043a565b505050505015801561018c573d6000803e3d6000610189610306565b50505b505050506040513d60208110156101ab576000806101a8610306565b50505b81019080805193506000925050505b818110156102df576101ca6104f3565b6000806101d561038e565b906101000a90046001600160a01b03166001600160a01b031663da7bd3e987846040516001600160e01b031960e085901b1681526001600160a01b0390921660048301526024820152604401604080518083038186806102336103ee565b15801561024857600080610245610306565b50505b505a61025261043a565b5050505050158015610271573d6000803e3d600061026e610306565b50505b50505050604051601f3d908101601f19168201604090815281101561029e5760008061029b610306565b50505b50905080518483600202601081106102b257fe5b602002015280600160200201518483600202600101601081106102d157fe5b6020020152506001016101ba565b50909392505050565b6000806102f361038e565b906101000a90046001600160a01b031681565b632a2a7adb598160e01b8152600481016020815285602082015260005b8681101561033e578086015182820160400152602001610323565b506020828760640184336000905af158601d01573d60011458600c01573d6000803e3d621234565260ea61109c52505050565b604051610200808201604052601090829080388339509192915050565b6303daa959598160e01b8152836004820152602081602483336000905af158601d01573d60011458600c01573d6000803e3d621234565260ea61109c528051935060005b60408110156103e9576000828201526020016103d2565b505050565b638435035b598160e01b8152836004820152602081602483336000905af158601d01573d60011458600c01573d6000803e3d621234565260ea61109c52805160008252935060206103d2565b638540661f598160e01b8152836004820152846024820152606060448201528660648201526084810160005b8881101561047e578088015182820152602001610466565b50876101040182016060838a6101040185336000905af158601d01573d60011458600c01573d6000803e3d621234565260ea61109c52825160408401513d6000863e8c8c82606088013350600060045af15059855b818110156104e757600081526020016104d3565b50919c50505050505050565b6040516040808201815260029082908038833950919291505056",
			"opcodes": "PUSH1 0x80 PUSH1 0x40 MSTORE CALLVALUE DUP1 ISZERO PUSH2 0x19 JUMPI PUSH1 0x0 DUP1 PUSH2 0x16 PUSH2 0x306 JUMP JUMPDEST POP POP JUMPDEST POP PUSH1 0x4 CALLDATASIZE LT PUSH2 0x3F JUMPI PUSH1 0x0 CALLDATALOAD PUSH1 0xE0 SHR DUP1 PUSH4 0x449D0EB1 EQ PUSH2 0x4D JUMPI DUP1 PUSH4 0x9514C232 EQ PUSH2 0xB5 JUMPI JUMPDEST PUSH1 0x0 DUP1 PUSH2 0x4A PUSH2 0x306 JUMP JUMPDEST POP POP JUMPDEST PUSH2 0x7C PUSH1 0x4 DUP1 CALLDATASIZE SUB PUSH1 0x20 DUP2 LT ISZERO PUSH2 0x6C JUMPI PUSH1 0x0 DUP1 PUSH2 0x69 PUSH2 0x306 JUMP JUMPDEST POP POP JUMPDEST POP CALLDATALOAD PUSH1 0x1 PUSH1 0x1 PUSH1 0xA0 SHL SUB AND PUSH2 0xD9 JUMP JUMPDEST PUSH1 0x40 MLOAD DUP1 DUP3 PUSH2 0x200 DUP1 DUP4 DUP4 PUSH1 0x0 JUMPDEST DUP4 DUP2 LT ISZERO PUSH2 0xA2 JUMPI DUP1 DUP3 ADD MLOAD DUP4 DUP3 ADD MSTORE PUSH1 0x20 ADD PUSH2 0x8A JUMP JUMPDEST POP POP POP POP SWAP1 POP ADD SWAP2 POP POP PUSH1 0x40 MLOAD DUP1 SWAP2 SUB SWAP1 RETURN JUMPDEST PUSH2 0xBD PUSH2 0x2E8 JUMP JUMPDEST PUSH1 0x40 MLOAD PUSH1 0x1 PUSH1 0x1 PUSH1 0xA0 SHL SUB SWAP1 SWAP2 AND DUP2 MSTORE PUSH1 0x20 ADD PUSH1 0x40 MLOAD DUP1 SWAP2 SUB SWAP1 RETURN JUMPDEST PUSH2 0xE1 PUSH2 0x371 JUMP JUMPDEST PUSH2 0xE9 PUSH2 0x371 JUMP JUMPDEST PUSH1 0x0 DUP1 DUP1 PUSH2 0xF5 PUSH2 0x38E JUMP JUMPDEST SWAP1 PUSH2 0x100 EXP SWAP1 DIV PUSH1 0x1 PUSH1 0x1 PUSH1 0xA0 SHL SUB AND PUSH1 0x1 PUSH1 0x1 PUSH1 0xA0 SHL SUB AND PUSH4 0x204B676A DUP6 PUSH1 0x40 MLOAD PUSH1 0x1 PUSH1 0x1 PUSH1 0xE0 SHL SUB NOT PUSH1 0xE0 DUP5 SWAP1 SHL AND DUP2 MSTORE PUSH1 0x1 PUSH1 0x1 PUSH1 0xA0 SHL SUB SWAP1 SWAP2 AND PUSH1 0x4 DUP3 ADD MSTORE PUSH1 0x24 ADD PUSH1 0x20 PUSH1 0x40 MLOAD DUP1 DUP4 SUB DUP2 DUP7 DUP1 PUSH2 0x14E PUSH2 0x3EE JUMP JUMPDEST ISZERO DUP1 ISZERO PUSH2 0x163 JUMPI PUSH1 0x0 DUP1 PUSH2 0x160 PUSH2 0x306 JUMP JUMPDEST POP POP JUMPDEST POP GAS PUSH2 0x16D PUSH2 0x43A JUMP JUMPDEST POP POP POP POP POP ISZERO DUP1 ISZERO PUSH2 0x18C JUMPI RETURNDATASIZE PUSH1 0x0 DUP1 RETURNDATACOPY RETURNDATASIZE PUSH1 0x0 PUSH2 0x189 PUSH2 0x306 JUMP JUMPDEST POP POP JUMPDEST POP POP POP POP PUSH1 0x40 MLOAD RETURNDATASIZE PUSH1 0x20 DUP2 LT ISZERO PUSH2 0x1AB JUMPI PUSH1 0x0 DUP1 PUSH2 0x1A8 PUSH2 0x306 JUMP JUMPDEST POP POP JUMPDEST DUP2 ADD SWAP1 DUP1 DUP1 MLOAD SWAP4 POP PUSH1 0x0 SWAP3 POP POP POP JUMPDEST DUP2 DUP2 LT ISZERO PUSH2 0x2DF JUMPI PUSH2 0x1CA PUSH2 0x4F3 JUMP JUMPDEST PUSH1 0x0 DUP1 PUSH2 0x1D5 PUSH2 0x38E JUMP JUMPDEST SWAP1 PUSH2 0x100 EXP SWAP1 DIV PUSH1 0x1 PUSH1 0x1 PUSH1 0xA0 SHL SUB AND PUSH1 0x1 PUSH1 0x1 PUSH1 0xA0 SHL SUB AND PUSH4 0xDA7BD3E9 DUP8 DUP5 PUSH1 0x40 MLOAD PUSH1 0x1 PUSH1 0x1 PUSH1 0xE0 SHL SUB NOT PUSH1 0xE0 DUP6 SWAP1 SHL AND DUP2 MSTORE PUSH1 0x1 PUSH1 0x1 PUSH1 0xA0 SHL SUB SWAP1 SWAP3 AND PUSH1 0x4 DUP4 ADD MSTORE PUSH1 0x24 DUP3 ADD MSTORE PUSH1 0x44 ADD PUSH1 0x40 DUP1 MLOAD DUP1 DUP4 SUB DUP2 DUP7 DUP1 PUSH2 0x233 PUSH2 0x3EE JUMP JUMPDEST ISZERO DUP1 ISZERO PUSH2 0x248 JUMPI PUSH1 0x0 DUP1 PUSH2 0x245 PUSH2 0x306 JUMP JUMPDEST POP POP JUMPDEST POP GAS PUSH2 0x252 PUSH2 0x43A JUMP JUMPDEST POP POP POP POP POP ISZERO DUP1 ISZERO PUSH2 0x271 JUMPI RETURNDATASIZE PUSH1 0x0 DUP1 RETURNDATACOPY RETURNDATASIZE PUSH1 0x0 PUSH2 0x26E PUSH2 0x306 JUMP JUMPDEST POP POP JUMPDEST POP POP POP POP PUSH1 0x40 MLOAD PUSH1 0x1F RETURNDATASIZE SWAP1 DUP2 ADD PUSH1 0x1F NOT AND DUP3 ADD PUSH1 0x40 SWAP1 DUP2 MSTORE DUP2 LT ISZERO PUSH2 0x29E JUMPI PUSH1 0x0 DUP1 PUSH2 0x29B PUSH2 0x306 JUMP JUMPDEST POP POP JUMPDEST POP SWAP1 POP DUP1 MLOAD DUP5 DUP4 PUSH1 0x2 MUL PUSH1 0x10 DUP2 LT PUSH2 0x2B2 JUMPI INVALID JUMPDEST PUSH1 0x20 MUL ADD MSTORE DUP1 PUSH1 0x1 PUSH1 0x20 MUL ADD MLOAD DUP5 DUP4 PUSH1 0x2 MUL PUSH1 0x1 ADD PUSH1 0x10 DUP2 LT PUSH2 0x2D1 JUMPI INVALID JUMPDEST PUSH1 0x20 MUL ADD MSTORE POP PUSH1 0x1 ADD PUSH2 0x1BA JUMP JUMPDEST POP SWAP1 SWAP4 SWAP3 POP POP POP JUMP JUMPDEST PUSH1 0x0 DUP1 PUSH2 0x2F3 PUSH2 0x38E JUMP JUMPDEST SWAP1 PUSH2 0x100 EXP SWAP1 DIV PUSH1 0x1 PUSH1 0x1 PUSH1 0xA0 SHL SUB AND DUP2 JUMP JUMPDEST PUSH4 0x2A2A7ADB MSIZE DUP2 PUSH1 0xE0 SHL DUP2 MSTORE PUSH1 0x4 DUP2 ADD PUSH1 0x20 DUP2 MSTORE DUP6 PUSH1 0x20 DUP3 ADD MSTORE PUSH1 0x0 JUMPDEST DUP7 DUP2 LT ISZERO PUSH2 0x33E JUMPI DUP1 DUP7 ADD MLOAD DUP3 DUP3 ADD PUSH1 0x40 ADD MSTORE PUSH1 0x20 ADD PUSH2 0x323 JUMP JUMPDEST POP PUSH1 0x20 DUP3 DUP8 PUSH1 0x64 ADD DUP5 CALLER PUSH1 0x0 SWAP1 GAS CALL PC PUSH1 0x1D ADD JUMPI RETURNDATASIZE PUSH1 0x1 EQ PC PUSH1 0xC ADD JUMPI RETURNDATASIZE PUSH1 0x0 DUP1 RETURNDATACOPY RETURNDATASIZE PUSH3 0x123456 MSTORE PUSH1 0xEA PUSH2 0x109C MSTORE POP POP POP JUMP JUMPDEST PUSH1 0x40 MLOAD PUSH2 0x200 DUP1 DUP3 ADD PUSH1 0x40 MSTORE PUSH1 0x10 SWAP1 DUP3 SWAP1 DUP1 CODESIZE DUP4 CODECOPY POP SWAP2 SWAP3 SWAP2 POP POP JUMP JUMPDEST PUSH4 0x3DAA959 MSIZE DUP2 PUSH1 0xE0 SHL DUP2 MSTORE DUP4 PUSH1 0x4 DUP3 ADD MSTORE PUSH1 0x20 DUP2 PUSH1 0x24 DUP4 CALLER PUSH1 0x0 SWAP1 GAS CALL PC PUSH1 0x1D ADD JUMPI RETURNDATASIZE PUSH1 0x1 EQ PC PUSH1 0xC ADD JUMPI RETURNDATASIZE PUSH1 0x0 DUP1 RETURNDATACOPY RETURNDATASIZE PUSH3 0x123456 MSTORE PUSH1 0xEA PUSH2 0x109C MSTORE DUP1 MLOAD SWAP4 POP PUSH1 0x0 JUMPDEST PUSH1 0x40 DUP2 LT ISZERO PUSH2 0x3E9 JUMPI PUSH1 0x0 DUP3 DUP3 ADD MSTORE PUSH1 0x20 ADD PUSH2 0x3D2 JUMP JUMPDEST POP POP POP JUMP JUMPDEST PUSH4 0x8435035B MSIZE DUP2 PUSH1 0xE0 SHL DUP2 MSTORE DUP4 PUSH1 0x4 DUP3 ADD MSTORE PUSH1 0x20 DUP2 PUSH1 0x24 DUP4 CALLER PUSH1 0x0 SWAP1 GAS CALL PC PUSH1 0x1D ADD JUMPI RETURNDATASIZE PUSH1 0x1 EQ PC PUSH1 0xC ADD JUMPI RETURNDATASIZE PUSH1 0x0 DUP1 RETURNDATACOPY RETURNDATASIZE PUSH3 0x123456 MSTORE PUSH1 0xEA PUSH2 0x109C MSTORE DUP1 MLOAD PUSH1 0x0 DUP3 MSTORE SWAP4 POP PUSH1 0x20 PUSH2 0x3D2 JUMP JUMPDEST PUSH4 0x8540661F MSIZE DUP2 PUSH1 0xE0 SHL DUP2 MSTORE DUP4 PUSH1 0x4 DUP3 ADD MSTORE DUP5 PUSH1 0x24 DUP3 ADD MSTORE PUSH1 0x60 PUSH1 0x44 DUP3 ADD MSTORE DUP7 PUSH1 0x64 DUP3 ADD MSTORE PUSH1 0x84 DUP2 ADD PUSH1 0x0 JUMPDEST DUP9 DUP2 LT ISZERO PUSH2 0x47E JUMPI DUP1 DUP9 ADD MLOAD DUP3 DUP3 ADD MSTORE PUSH1 0x20 ADD PUSH2 0x466 JUMP JUMPDEST POP DUP8 PUSH2 0x104 ADD DUP3 ADD PUSH1 0x60 DUP4 DUP11 PUSH2 0x104 ADD DUP6 CALLER PUSH1 0x0 SWAP1 GAS CALL PC PUSH1 0x1D ADD JUMPI RETURNDATASIZE PUSH1 0x1 EQ PC PUSH1 0xC ADD JUMPI RETURNDATASIZE PUSH1 0x0 DUP1 RETURNDATACOPY RETURNDATASIZE PUSH3 0x123456 MSTORE PUSH1 0xEA PUSH2 0x109C MSTORE DUP3 MLOAD PUSH1 0x40 DUP5 ADD MLOAD RETURNDATASIZE PUSH1 0x0 DUP7 RETURNDATACOPY DUP13 DUP13 DUP3 PUSH1 0x60 DUP9 ADD CALLER POP PUSH1 0x0 PUSH1 0x4 GAS CALL POP MSIZE DUP6 JUMPDEST DUP2 DUP2 LT ISZERO PUSH2 0x4E7 JUMPI PUSH1 0x0 DUP2 MSTORE PUSH1 0x20 ADD PUSH2 0x4D3 JUMP JUMPDEST POP SWAP2 SWAP13 POP POP POP POP POP POP POP JUMP JUMPDEST PUSH1 0x40 MLOAD PUSH1 0x40 DUP1 DUP3 ADD DUP2 MSTORE PUSH1 0x2 SWAP1 DUP3 SWAP1 DUP1 CODESIZE DUP4 CODECOPY POP SWAP2 SWAP3 SWAP2 POP POP JUMP "
		}
	}
}