{
	"abi": [
		{
			"inputs": [
				{
					"internalType": "address",
					"name": "_owner",
					"type": "address"
				},
				{
					"internalType": "address",
					"name": "_resolver",
					"type": "address"
				}
			],
			"payable": false,
			"stateMutability": "nonpayable",
			"type": "constructor"
		},
		{
			"anonymous": false,
			"inputs": [
				{
					"indexed": false,
					"internalType": "uint256",
					"name": "loanLimit",
					"type": "uint256"
				}
			],
			"name": "AccountLoanLimitUpdated",
			"type": "event"
		},
		{
			"anonymous": false,
			"inputs": [
				{
					"indexed": true,
					"internalType": "address",
					"name": "account",
					"type": "address"
				},
				{
					"indexed": false,
					"internalType": "uint256",
					"name": "loanID",
					"type": "uint256"
				},
				{
					"indexed": false,
					"internalType": "uint256",
					"name": "collateralAmount",
					"type": "uint256"
				},
				{
					"indexed": false,
					"internalType": "uint256",
					"name": "collateralAfter",
					"type": "uint256"
				}
			],
			"name": "CollateralDeposited",
			"type": "event"
		},
		{
			"anonymous": false,
			"inputs": [
				{
					"indexed": true,
					"internalType": "address",
					"name": "account",
					"type": "address"
				},
				{
					"indexed": false,
					"internalType": "uint256",
					"name": "loanID",
					"type": "uint256"
				},
				{
					"indexed": false,
					"internalType": "uint256",
					"name": "amountWithdrawn",
					"type": "uint256"
				},
				{
					"indexed": false,
					"internalType": "uint256",
					"name": "collateralAfter",
					"type": "uint256"
				}
			],
			"name": "CollateralWithdrawn",
			"type": "event"
		},
		{
			"anonymous": false,
			"inputs": [
				{
					"indexed": false,
					"internalType": "uint256",
					"name": "ratio",
					"type": "uint256"
				}
			],
			"name": "CollateralizationRatioUpdated",
			"type": "event"
		},
		{
			"anonymous": false,
			"inputs": [
				{
					"indexed": false,
					"internalType": "uint256",
					"name": "interestRate",
					"type": "uint256"
				}
			],
			"name": "InterestRateUpdated",
			"type": "event"
		},
		{
			"anonymous": false,
			"inputs": [
				{
					"indexed": false,
					"internalType": "uint256",
					"name": "issueFeeRate",
					"type": "uint256"
				}
			],
			"name": "IssueFeeRateUpdated",
			"type": "event"
		},
		{
			"anonymous": false,
			"inputs": [
				{
					"indexed": false,
					"internalType": "uint256",
					"name": "issueLimit",
					"type": "uint256"
				}
			],
			"name": "IssueLimitUpdated",
			"type": "event"
		},
		{
			"anonymous": false,
			"inputs": [
				{
					"indexed": false,
					"internalType": "uint256",
					"name": "ratio",
					"type": "uint256"
				}
			],
			"name": "LiquidationRatioUpdated",
			"type": "event"
		},
		{
			"anonymous": false,
			"inputs": [
				{
					"indexed": true,
					"internalType": "address",
					"name": "account",
					"type": "address"
				},
				{
					"indexed": false,
					"internalType": "uint256",
					"name": "loanID",
					"type": "uint256"
				},
				{
					"indexed": false,
					"internalType": "uint256",
					"name": "feesPaid",
					"type": "uint256"
				}
			],
			"name": "LoanClosed",
			"type": "event"
		},
		{
			"anonymous": false,
			"inputs": [
				{
					"indexed": true,
					"internalType": "address",
					"name": "account",
					"type": "address"
				},
				{
					"indexed": false,
					"internalType": "uint256",
					"name": "loanID",
					"type": "uint256"
				},
				{
					"indexed": false,
					"internalType": "uint256",
					"name": "amount",
					"type": "uint256"
				}
			],
			"name": "LoanCreated",
			"type": "event"
		},
		{
			"anonymous": false,
			"inputs": [
				{
					"indexed": true,
					"internalType": "address",
					"name": "account",
					"type": "address"
				},
				{
					"indexed": false,
					"internalType": "uint256",
					"name": "loanID",
					"type": "uint256"
				},
				{
					"indexed": false,
					"internalType": "address",
					"name": "liquidator",
					"type": "address"
				}
			],
			"name": "LoanLiquidated",
			"type": "event"
		},
		{
			"anonymous": false,
			"inputs": [
				{
					"indexed": false,
					"internalType": "bool",
					"name": "loanLiquidationOpen",
					"type": "bool"
				}
			],
			"name": "LoanLiquidationOpenUpdated",
			"type": "event"
		},
		{
			"anonymous": false,
			"inputs": [
				{
					"indexed": true,
					"internalType": "address",
					"name": "account",
					"type": "address"
				},
				{
					"indexed": false,
					"internalType": "uint256",
					"name": "loanID",
					"type": "uint256"
				},
				{
					"indexed": false,
					"internalType": "address",
					"name": "liquidator",
					"type": "address"
				},
				{
					"indexed": false,
					"internalType": "uint256",
					"name": "liquidatedAmount",
					"type": "uint256"
				},
				{
					"indexed": false,
					"internalType": "uint256",
					"name": "liquidatedCollateral",
					"type": "uint256"
				}
			],
			"name": "LoanPartiallyLiquidated",
			"type": "event"
		},
		{
			"anonymous": false,
			"inputs": [
				{
					"indexed": true,
					"internalType": "address",
					"name": "account",
					"type": "address"
				},
				{
					"indexed": false,
					"internalType": "uint256",
					"name": "loanID",
					"type": "uint256"
				},
				{
					"indexed": false,
					"internalType": "uint256",
					"name": "repaidAmount",
					"type": "uint256"
				},
				{
					"indexed": false,
					"internalType": "uint256",
					"name": "newLoanAmount",
					"type": "uint256"
				}
			],
			"name": "LoanRepaid",
			"type": "event"
		},
		{
			"anonymous": false,
			"inputs": [
				{
					"indexed": false,
					"internalType": "uint256",
					"name": "minLoanCollateralSize",
					"type": "uint256"
				}
			],
			"name": "MinLoanCollateralSizeUpdated",
			"type": "event"
		},
		{
			"anonymous": false,
			"inputs": [
				{
					"indexed": false,
					"internalType": "address",
					"name": "oldOwner",
					"type": "address"
				},
				{
					"indexed": false,
					"internalType": "address",
					"name": "newOwner",
					"type": "address"
				}
			],
			"name": "OwnerChanged",
			"type": "event"
		},
		{
			"anonymous": false,
			"inputs": [
				{
					"indexed": false,
					"internalType": "address",
					"name": "newOwner",
					"type": "address"
				}
			],
			"name": "OwnerNominated",
			"type": "event"
		},
		{
			"anonymous": false,
			"inputs": [
				{
					"indexed": false,
					"internalType": "bool",
					"name": "isPaused",
					"type": "bool"
				}
			],
			"name": "PauseChanged",
			"type": "event"
		},
		{
			"constant": true,
			"inputs": [],
			"name": "COLLATERAL",
			"outputs": [
				{
					"internalType": "bytes32",
					"name": "",
					"type": "bytes32"
				}
			],
			"payable": false,
			"stateMutability": "view",
			"type": "function"
		},
		{
			"constant": true,
			"inputs": [],
			"name": "MAX_ADDRESSES_FROM_RESOLVER",
			"outputs": [
				{
					"internalType": "uint256",
					"name": "",
					"type": "uint256"
				}
			],
			"payable": false,
			"stateMutability": "view",
			"type": "function"
		},
		{
			"constant": false,
			"inputs": [],
			"name": "acceptOwnership",
			"outputs": [],
			"payable": false,
			"stateMutability": "nonpayable",
			"type": "function"
		},
		{
			"constant": true,
			"inputs": [],
			"name": "accountLoanLimit",
			"outputs": [
				{
					"internalType": "uint256",
					"name": "",
					"type": "uint256"
				}
			],
			"payable": false,
			"stateMutability": "view",
			"type": "function"
		},
		{
			"constant": true,
			"inputs": [
				{
					"internalType": "address",
					"name": "",
					"type": "address"
				}
			],
			"name": "accountOpenLoanCounter",
			"outputs": [
				{
					"internalType": "uint256",
					"name": "",
					"type": "uint256"
				}
			],
			"payable": false,
			"stateMutability": "view",
			"type": "function"
		},
		{
			"constant": true,
			"inputs": [
				{
					"internalType": "address",
					"name": "",
					"type": "address"
				},
				{
					"internalType": "uint256",
					"name": "",
					"type": "uint256"
				}
			],
			"name": "accountsSynthLoans",
			"outputs": [
				{
					"internalType": "address payable",
					"name": "account",
					"type": "address"
				},
				{
					"internalType": "uint256",
					"name": "collateralAmount",
					"type": "uint256"
				},
				{
					"internalType": "uint256",
					"name": "loanAmount",
					"type": "uint256"
				},
				{
					"internalType": "uint256",
					"name": "mintingFee",
					"type": "uint256"
				},
				{
					"internalType": "uint256",
					"name": "timeCreated",
					"type": "uint256"
				},
				{
					"internalType": "uint256",
					"name": "loanID",
					"type": "uint256"
				},
				{
					"internalType": "uint256",
					"name": "timeClosed",
					"type": "uint256"
				},
				{
					"internalType": "uint256",
					"name": "loanInterestRate",
					"type": "uint256"
				},
				{
					"internalType": "uint256",
					"name": "accruedInterest",
					"type": "uint256"
				},
				{
					"internalType": "uint40",
					"name": "lastInterestAccrued",
					"type": "uint40"
				}
			],
			"payable": false,
			"stateMutability": "view",
			"type": "function"
		},
		{
			"constant": true,
			"inputs": [
				{
					"internalType": "uint256",
					"name": "_loanAmount",
					"type": "uint256"
				},
				{
					"internalType": "uint256",
					"name": "_seconds",
					"type": "uint256"
				}
			],
			"name": "accruedInterestOnLoan",
			"outputs": [
				{
					"internalType": "uint256",
					"name": "interestAmount",
					"type": "uint256"
				}
			],
			"payable": false,
			"stateMutability": "view",
			"type": "function"
		},
		{
			"constant": true,
			"inputs": [
				{
					"internalType": "uint256",
					"name": "debtBalance",
					"type": "uint256"
				},
				{
					"internalType": "uint256",
					"name": "collateral",
					"type": "uint256"
				}
			],
			"name": "calculateAmountToLiquidate",
			"outputs": [
				{
					"internalType": "uint256",
					"name": "",
					"type": "uint256"
				}
			],
			"payable": false,
			"stateMutability": "view",
			"type": "function"
		},
		{
			"constant": false,
			"inputs": [
				{
					"internalType": "uint256",
					"name": "loanID",
					"type": "uint256"
				}
			],
			"name": "closeLoan",
			"outputs": [],
			"payable": false,
			"stateMutability": "nonpayable",
			"type": "function"
		},
		{
			"constant": true,
			"inputs": [
				{
					"internalType": "uint256",
					"name": "loanAmount",
					"type": "uint256"
				}
			],
			"name": "collateralAmountForLoan",
			"outputs": [
				{
					"internalType": "uint256",
					"name": "",
					"type": "uint256"
				}
			],
			"payable": false,
			"stateMutability": "view",
			"type": "function"
		},
		{
			"constant": true,
			"inputs": [],
			"name": "collateralizationRatio",
			"outputs": [
				{
					"internalType": "uint256",
					"name": "",
					"type": "uint256"
				}
			],
			"payable": false,
			"stateMutability": "view",
			"type": "function"
		},
		{
			"constant": true,
			"inputs": [
				{
					"internalType": "address",
					"name": "_account",
					"type": "address"
				},
				{
					"internalType": "uint256",
					"name": "_loanID",
					"type": "uint256"
				}
			],
			"name": "currentInterestOnLoan",
			"outputs": [
				{
					"internalType": "uint256",
					"name": "",
					"type": "uint256"
				}
			],
			"payable": false,
			"stateMutability": "view",
			"type": "function"
		},
		{
			"constant": false,
			"inputs": [
				{
					"internalType": "address",
					"name": "account",
					"type": "address"
				},
				{
					"internalType": "uint256",
					"name": "loanID",
					"type": "uint256"
				}
			],
			"name": "depositCollateral",
			"outputs": [],
			"payable": true,
			"stateMutability": "payable",
			"type": "function"
		},
		{
			"constant": true,
			"inputs": [],
			"name": "getContractInfo",
			"outputs": [
				{
					"internalType": "uint256",
					"name": "_collateralizationRatio",
					"type": "uint256"
				},
				{
					"internalType": "uint256",
					"name": "_issuanceRatio",
					"type": "uint256"
				},
				{
					"internalType": "uint256",
					"name": "_interestRate",
					"type": "uint256"
				},
				{
					"internalType": "uint256",
					"name": "_interestPerSecond",
					"type": "uint256"
				},
				{
					"internalType": "uint256",
					"name": "_issueFeeRate",
					"type": "uint256"
				},
				{
					"internalType": "uint256",
					"name": "_issueLimit",
					"type": "uint256"
				},
				{
					"internalType": "uint256",
					"name": "_minLoanCollateralSize",
					"type": "uint256"
				},
				{
					"internalType": "uint256",
					"name": "_totalIssuedSynths",
					"type": "uint256"
				},
				{
					"internalType": "uint256",
					"name": "_totalLoansCreated",
					"type": "uint256"
				},
				{
					"internalType": "uint256",
					"name": "_totalOpenLoanCount",
					"type": "uint256"
				},
				{
					"internalType": "uint256",
					"name": "_ethBalance",
					"type": "uint256"
				},
				{
					"internalType": "uint256",
					"name": "_liquidationDeadline",
					"type": "uint256"
				},
				{
					"internalType": "bool",
					"name": "_loanLiquidationOpen",
					"type": "bool"
				}
			],
			"payable": false,
			"stateMutability": "view",
			"type": "function"
		},
		{
			"constant": true,
			"inputs": [
				{
					"internalType": "address",
					"name": "_account",
					"type": "address"
				},
				{
					"internalType": "uint256",
					"name": "_loanID",
					"type": "uint256"
				}
			],
			"name": "getLoan",
			"outputs": [
				{
					"internalType": "address",
					"name": "account",
					"type": "address"
				},
				{
					"internalType": "uint256",
					"name": "collateralAmount",
					"type": "uint256"
				},
				{
					"internalType": "uint256",
					"name": "loanAmount",
					"type": "uint256"
				},
				{
					"internalType": "uint256",
					"name": "timeCreated",
					"type": "uint256"
				},
				{
					"internalType": "uint256",
					"name": "loanID",
					"type": "uint256"
				},
				{
					"internalType": "uint256",
					"name": "timeClosed",
					"type": "uint256"
				},
				{
					"internalType": "uint256",
					"name": "accruedInterest",
					"type": "uint256"
				},
				{
					"internalType": "uint256",
					"name": "totalFees",
					"type": "uint256"
				}
			],
			"payable": false,
			"stateMutability": "view",
			"type": "function"
		},
		{
			"constant": true,
			"inputs": [
				{
					"internalType": "address",
					"name": "_account",
					"type": "address"
				},
				{
					"internalType": "uint256",
					"name": "_loanID",
					"type": "uint256"
				}
			],
			"name": "getLoanCollateralRatio",
			"outputs": [
				{
					"internalType": "uint256",
					"name": "loanCollateralRatio",
					"type": "uint256"
				}
			],
			"payable": false,
			"stateMutability": "view",
			"type": "function"
		},
		{
			"constant": true,
			"inputs": [
				{
					"internalType": "address",
					"name": "_account",
					"type": "address"
				},
				{
					"internalType": "uint256",
					"name": "_loanID",
					"type": "uint256"
				}
			],
			"name": "getMintingFee",
			"outputs": [
				{
					"internalType": "uint256",
					"name": "",
					"type": "uint256"
				}
			],
			"payable": false,
			"stateMutability": "view",
			"type": "function"
		},
		{
			"constant": true,
			"inputs": [],
			"name": "getResolverAddressesRequired",
			"outputs": [
				{
					"internalType": "bytes32[24]",
					"name": "addressesRequired",
					"type": "bytes32[24]"
				}
			],
			"payable": false,
			"stateMutability": "view",
			"type": "function"
		},
		{
			"constant": true,
			"inputs": [],
			"name": "interestPerSecond",
			"outputs": [
				{
					"internalType": "uint256",
					"name": "",
					"type": "uint256"
				}
			],
			"payable": false,
			"stateMutability": "view",
			"type": "function"
		},
		{
			"constant": true,
			"inputs": [],
			"name": "interestRate",
			"outputs": [
				{
					"internalType": "uint256",
					"name": "",
					"type": "uint256"
				}
			],
			"payable": false,
			"stateMutability": "view",
			"type": "function"
		},
		{
			"constant": true,
			"inputs": [
				{
					"internalType": "contract AddressResolver",
					"name": "_resolver",
					"type": "address"
				}
			],
			"name": "isResolverCached",
			"outputs": [
				{
					"internalType": "bool",
					"name": "",
					"type": "bool"
				}
			],
			"payable": false,
			"stateMutability": "view",
			"type": "function"
		},
		{
			"constant": true,
			"inputs": [],
			"name": "issuanceRatio",
			"outputs": [
				{
					"internalType": "uint256",
					"name": "",
					"type": "uint256"
				}
			],
			"payable": false,
			"stateMutability": "view",
			"type": "function"
		},
		{
			"constant": true,
			"inputs": [],
			"name": "issueFeeRate",
			"outputs": [
				{
					"internalType": "uint256",
					"name": "",
					"type": "uint256"
				}
			],
			"payable": false,
			"stateMutability": "view",
			"type": "function"
		},
		{
			"constant": true,
			"inputs": [],
			"name": "issueLimit",
			"outputs": [
				{
					"internalType": "uint256",
					"name": "",
					"type": "uint256"
				}
			],
			"payable": false,
			"stateMutability": "view",
			"type": "function"
		},
		{
			"constant": true,
			"inputs": [],
			"name": "lastPauseTime",
			"outputs": [
				{
					"internalType": "uint256",
					"name": "",
					"type": "uint256"
				}
			],
			"payable": false,
			"stateMutability": "view",
			"type": "function"
		},
		{
			"constant": false,
			"inputs": [
				{
					"internalType": "address",
					"name": "_loanCreatorsAddress",
					"type": "address"
				},
				{
					"internalType": "uint256",
					"name": "_loanID",
					"type": "uint256"
				},
				{
					"internalType": "uint256",
					"name": "_debtToCover",
					"type": "uint256"
				}
			],
			"name": "liquidateLoan",
			"outputs": [],
			"payable": false,
			"stateMutability": "nonpayable",
			"type": "function"
		},
		{
			"constant": false,
			"inputs": [
				{
					"internalType": "address",
					"name": "_loanCreatorsAddress",
					"type": "address"
				},
				{
					"internalType": "uint256",
					"name": "_loanID",
					"type": "uint256"
				}
			],
			"name": "liquidateUnclosedLoan",
			"outputs": [],
			"payable": false,
			"stateMutability": "nonpayable",
			"type": "function"
		},
		{
			"constant": true,
			"inputs": [],
			"name": "liquidationDeadline",
			"outputs": [
				{
					"internalType": "uint256",
					"name": "",
					"type": "uint256"
				}
			],
			"payable": false,
			"stateMutability": "view",
			"type": "function"
		},
		{
			"constant": true,
			"inputs": [],
			"name": "liquidationPenalty",
			"outputs": [
				{
					"internalType": "uint256",
					"name": "",
					"type": "uint256"
				}
			],
			"payable": false,
			"stateMutability": "view",
			"type": "function"
		},
		{
			"constant": true,
			"inputs": [],
			"name": "liquidationRatio",
			"outputs": [
				{
					"internalType": "uint256",
					"name": "",
					"type": "uint256"
				}
			],
			"payable": false,
			"stateMutability": "view",
			"type": "function"
		},
		{
			"constant": true,
			"inputs": [
				{
					"internalType": "uint256",
					"name": "collateralAmount",
					"type": "uint256"
				}
			],
			"name": "loanAmountFromCollateral",
			"outputs": [
				{
					"internalType": "uint256",
					"name": "",
					"type": "uint256"
				}
			],
			"payable": false,
			"stateMutability": "view",
			"type": "function"
		},
		{
			"constant": true,
			"inputs": [],
			"name": "loanLiquidationOpen",
			"outputs": [
				{
					"internalType": "bool",
					"name": "",
					"type": "bool"
				}
			],
			"payable": false,
			"stateMutability": "view",
			"type": "function"
		},
		{
			"constant": true,
			"inputs": [],
			"name": "minLoanCollateralSize",
			"outputs": [
				{
					"internalType": "uint256",
					"name": "",
					"type": "uint256"
				}
			],
			"payable": false,
			"stateMutability": "view",
			"type": "function"
		},
		{
			"constant": false,
			"inputs": [
				{
					"internalType": "address",
					"name": "_owner",
					"type": "address"
				}
			],
			"name": "nominateNewOwner",
			"outputs": [],
			"payable": false,
			"stateMutability": "nonpayable",
			"type": "function"
		},
		{
			"constant": true,
			"inputs": [],
			"name": "nominatedOwner",
			"outputs": [
				{
					"internalType": "address",
					"name": "",
					"type": "address"
				}
			],
			"payable": false,
			"stateMutability": "view",
			"type": "function"
		},
		{
			"constant": false,
			"inputs": [
				{
					"internalType": "uint256",
					"name": "_loanAmount",
					"type": "uint256"
				}
			],
			"name": "openLoan",
			"outputs": [
				{
					"internalType": "uint256",
					"name": "loanID",
					"type": "uint256"
				}
			],
			"payable": true,
			"stateMutability": "payable",
			"type": "function"
		},
		{
			"constant": true,
			"inputs": [
				{
					"internalType": "address",
					"name": "_account",
					"type": "address"
				}
			],
			"name": "openLoanIDsByAccount",
			"outputs": [
				{
					"internalType": "uint256[]",
					"name": "",
					"type": "uint256[]"
				}
			],
			"payable": false,
			"stateMutability": "view",
			"type": "function"
		},
		{
			"constant": true,
			"inputs": [],
			"name": "owner",
			"outputs": [
				{
					"internalType": "address",
					"name": "",
					"type": "address"
				}
			],
			"payable": false,
			"stateMutability": "view",
			"type": "function"
		},
		{
			"constant": true,
			"inputs": [],
			"name": "paused",
			"outputs": [
				{
					"internalType": "bool",
					"name": "",
					"type": "bool"
				}
			],
			"payable": false,
			"stateMutability": "view",
			"type": "function"
		},
		{
			"constant": false,
			"inputs": [
				{
					"internalType": "address",
					"name": "_loanCreatorsAddress",
					"type": "address"
				},
				{
					"internalType": "uint256",
					"name": "_loanID",
					"type": "uint256"
				},
				{
					"internalType": "uint256",
					"name": "_repayAmount",
					"type": "uint256"
				}
			],
			"name": "repayLoan",
			"outputs": [],
			"payable": false,
			"stateMutability": "nonpayable",
			"type": "function"
		},
		{
			"constant": true,
			"inputs": [],
			"name": "resolver",
			"outputs": [
				{
					"internalType": "contract AddressResolver",
					"name": "",
					"type": "address"
				}
			],
			"payable": false,
			"stateMutability": "view",
			"type": "function"
		},
		{
			"constant": true,
			"inputs": [
				{
					"internalType": "uint256",
					"name": "",
					"type": "uint256"
				}
			],
			"name": "resolverAddressesRequired",
			"outputs": [
				{
					"internalType": "bytes32",
					"name": "",
					"type": "bytes32"
				}
			],
			"payable": false,
			"stateMutability": "view",
			"type": "function"
		},
		{
			"constant": false,
			"inputs": [
				{
					"internalType": "uint256",
					"name": "_loanLimit",
					"type": "uint256"
				}
			],
			"name": "setAccountLoanLimit",
			"outputs": [],
			"payable": false,
			"stateMutability": "nonpayable",
			"type": "function"
		},
		{
			"constant": false,
			"inputs": [
				{
					"internalType": "uint256",
					"name": "ratio",
					"type": "uint256"
				}
			],
			"name": "setCollateralizationRatio",
			"outputs": [],
			"payable": false,
			"stateMutability": "nonpayable",
			"type": "function"
		},
		{
			"constant": false,
			"inputs": [
				{
					"internalType": "uint256",
					"name": "_interestRate",
					"type": "uint256"
				}
			],
			"name": "setInterestRate",
			"outputs": [],
			"payable": false,
			"stateMutability": "nonpayable",
			"type": "function"
		},
		{
			"constant": false,
			"inputs": [
				{
					"internalType": "uint256",
					"name": "_issueFeeRate",
					"type": "uint256"
				}
			],
			"name": "setIssueFeeRate",
			"outputs": [],
			"payable": false,
			"stateMutability": "nonpayable",
			"type": "function"
		},
		{
			"constant": false,
			"inputs": [
				{
					"internalType": "uint256",
					"name": "_issueLimit",
					"type": "uint256"
				}
			],
			"name": "setIssueLimit",
			"outputs": [],
			"payable": false,
			"stateMutability": "nonpayable",
			"type": "function"
		},
		{
			"constant": false,
			"inputs": [
				{
					"internalType": "uint256",
					"name": "_liquidationRatio",
					"type": "uint256"
				}
			],
			"name": "setLiquidationRatio",
			"outputs": [],
			"payable": false,
			"stateMutability": "nonpayable",
			"type": "function"
		},
		{
			"constant": false,
			"inputs": [
				{
					"internalType": "bool",
					"name": "_loanLiquidationOpen",
					"type": "bool"
				}
			],
			"name": "setLoanLiquidationOpen",
			"outputs": [],
			"payable": false,
			"stateMutability": "nonpayable",
			"type": "function"
		},
		{
			"constant": false,
			"inputs": [
				{
					"internalType": "uint256",
					"name": "_minLoanCollateralSize",
					"type": "uint256"
				}
			],
			"name": "setMinLoanCollateralSize",
			"outputs": [],
			"payable": false,
			"stateMutability": "nonpayable",
			"type": "function"
		},
		{
			"constant": false,
			"inputs": [
				{
					"internalType": "bool",
					"name": "_paused",
					"type": "bool"
				}
			],
			"name": "setPaused",
			"outputs": [],
			"payable": false,
			"stateMutability": "nonpayable",
			"type": "function"
		},
		{
			"constant": false,
			"inputs": [
				{
					"internalType": "contract AddressResolver",
					"name": "_resolver",
					"type": "address"
				}
			],
			"name": "setResolverAndSyncCache",
			"outputs": [],
			"payable": false,
			"stateMutability": "nonpayable",
			"type": "function"
		},
		{
			"constant": true,
			"inputs": [
				{
					"internalType": "address",
					"name": "_account",
					"type": "address"
				},
				{
					"internalType": "uint256",
					"name": "_loanID",
					"type": "uint256"
				}
			],
			"name": "timeSinceInterestAccrualOnLoan",
			"outputs": [
				{
					"internalType": "uint256",
					"name": "",
					"type": "uint256"
				}
			],
			"payable": false,
			"stateMutability": "view",
			"type": "function"
		},
		{
			"constant": true,
			"inputs": [
				{
					"internalType": "address",
					"name": "_account",
					"type": "address"
				},
				{
					"internalType": "uint256",
					"name": "_loanID",
					"type": "uint256"
				}
			],
			"name": "totalFeesOnLoan",
			"outputs": [
				{
					"internalType": "uint256",
					"name": "interestAmount",
					"type": "uint256"
				},
				{
					"internalType": "uint256",
					"name": "mintingFee",
					"type": "uint256"
				}
			],
			"payable": false,
			"stateMutability": "view",
			"type": "function"
		},
		{
			"constant": true,
			"inputs": [],
			"name": "totalIssuedSynths",
			"outputs": [
				{
					"internalType": "uint256",
					"name": "",
					"type": "uint256"
				}
			],
			"payable": false,
			"stateMutability": "view",
			"type": "function"
		},
		{
			"constant": true,
			"inputs": [],
			"name": "totalLoansCreated",
			"outputs": [
				{
					"internalType": "uint256",
					"name": "",
					"type": "uint256"
				}
			],
			"payable": false,
			"stateMutability": "view",
			"type": "function"
		},
		{
			"constant": true,
			"inputs": [],
			"name": "totalOpenLoanCount",
			"outputs": [
				{
					"internalType": "uint256",
					"name": "",
					"type": "uint256"
				}
			],
			"payable": false,
			"stateMutability": "view",
			"type": "function"
		},
		{
			"constant": false,
			"inputs": [
				{
					"internalType": "uint256",
					"name": "loanID",
					"type": "uint256"
				},
				{
					"internalType": "uint256",
					"name": "withdrawAmount",
					"type": "uint256"
				}
			],
			"name": "withdrawCollateral",
			"outputs": [],
			"payable": false,
			"stateMutability": "nonpayable",
			"type": "function"
		}
	],
	"evm": {
		"bytecode": {
			"linkReferences": {
				"EtherCollateralsUSD.sol": {
					"SafeDecimalMath": [
						{
							"length": 20,
							"start": 6
						},
						{
							"length": 20,
							"start": 206
						},
						{
							"length": 20,
							"start": 471
						},
						{
							"length": 20,
							"start": 678
						},
						{
							"length": 20,
							"start": 878
						},
						{
							"length": 20,
							"start": 1135
						},
						{
							"length": 20,
							"start": 1344
						},
						{
							"length": 20,
							"start": 10284
						},
						{
							"length": 20,
							"start": 10844
						},
						{
							"length": 20,
							"start": 14255
						},
						{
							"length": 20,
							"start": 18344
						}
					]
				}
			},
			"object": "608060405273__$dea560c1c88ab8ee92a045569682361255$__63907af6c06040518163ffffffff1660e01b815260040160206040518083038186806200004562000a5e565b1580156200005d576000806200005a62000ac0565b50505b505a6200006962000b2d565b50505050501580156200008b573d6000803e3d60006200008862000ac0565b50505b505050506040513d6020811015620000ad57600080620000aa62000ac0565b50505b810190808051609602925060089150620000c8905062000bea565b5050606473__$dea560c1c88ab8ee92a045569682361255$__63907af6c06040518163ffffffff1660e01b815260040160206040518083038186806200010d62000a5e565b15801562000125576000806200012262000ac0565b50505b505a6200013162000b2d565b505050505015801562000153573d6000803e3d60006200015062000ac0565b50505b505050506040513d602081101562000175576000806200017262000ac0565b50505b81019080805160050292508391506200018c905057fe5b0460096200019962000bea565b5050620001c46301e133806009620001b062000c39565b620009e860201b620052d11790919060201c565b600a620001d062000bea565b50506103e873__$dea560c1c88ab8ee92a045569682361255$__63907af6c06040518163ffffffff1660e01b815260040160206040518083038186806200021662000a5e565b1580156200022e576000806200022b62000ac0565b50505b505a6200023a62000b2d565b50505050501580156200025c573d6000803e3d60006200025962000ac0565b50505b505050506040513d60208110156200027e576000806200027b62000ac0565b50505b810190808051600502925083915062000295905057fe5b04600b620002a262000bea565b505073__$dea560c1c88ab8ee92a045569682361255$__63907af6c06040518163ffffffff1660e01b81526004016020604051808303818680620002e562000a5e565b158015620002fd57600080620002fa62000ac0565b50505b505a6200030962000b2d565b50505050501580156200032b573d6000803e3d60006200032862000ac0565b50505b505050506040513d60208110156200034d576000806200034a62000ac0565b50505b81019080805162989680029250600c91506200036a905062000bea565b505073__$dea560c1c88ab8ee92a045569682361255$__63907af6c06040518163ffffffff1660e01b81526004016020604051808303818680620003ad62000a5e565b158015620003c557600080620003c262000ac0565b50505b505a620003d162000b2d565b5050505050158015620003f3573d6000803e3d6000620003f062000ac0565b50505b505050506040513d602081101562000415576000806200041262000ac0565b50505b8101908080519250600d91506200042d905062000bea565b50506032600e6200043d62000bea565b5060009050600f6001816200045162000c39565b8160ff021916908315150217906200046862000bea565b505050606473__$dea560c1c88ab8ee92a045569682361255$__63907af6c06040518163ffffffff1660e01b81526004016020604051808303818680620004ae62000a5e565b158015620004c657600080620004c362000ac0565b50505b505a620004d262000b2d565b5050505050158015620004f4573d6000803e3d6000620004f162000ac0565b50505b505050506040513d602081101562000516576000806200051362000ac0565b50505b81019080805160960292508391506200052d905057fe5b0460116200053a62000bea565b5050600a73__$dea560c1c88ab8ee92a045569682361255$__63907af6c06040518163ffffffff1660e01b815260040160206040518083038186806200057f62000a5e565b15801562000597576000806200059462000ac0565b50505b505a620005a362000b2d565b5050505050158015620005c5573d6000803e3d6000620005c262000ac0565b50505b505050506040513d6020811015620005e757600080620005e462000ac0565b50505b8101908080519250839150620005fb905057fe5b0460126200060862000bea565b50506040516080810160409081526b53797374656d53746174757360a01b82526814de5b9d1a1cd554d160ba1b60208301526c45786368616e6765526174657360981b9082015266119959541bdbdb60ca1b60608201526200066f90601890600462000c86565b5034801562000688576000806200068562000ac0565b50505b50604051620070863803806200708683398181016040526040811015620006b957600080620006b662000ac0565b50505b8101908080519291906020018051925082915060189050806103006040519081016040529190610300830182845b81620006f262000c39565b81526020019060010190808311620006e757508793505050506001600160a01b038116620007715760405162461bcd60e51b815260206004820152601960248201527f4f776e657220616464726573732063616e6e6f742062652030000000000000006044820152606401604051809103906200076e62000ac0565b50505b8060006001816200078162000c39565b816001600160a01b0302191690836001600160a01b0316021790620007a562000bea565b5050507fb532073b38c83145e3e5135377a08bf9aab55bc0fd7c1179cd4fb995d2a5159c6000826040516001600160a01b039283168152911660208201526040908101905180910390a15060008080620007fe62000c39565b906101000a90046001600160a01b03166001600160a01b03161415620008695760405162461bcd60e51b815260206004820152601160248201527013dddb995c881b5d5cdd081899481cd95d607a1b6044820152606401604051809103906200086662000ac0565b50505b60018060046200087862000bea565b5060009150819050806200088b62000c39565b906101000a90046001600160a01b03166001600160a01b03161415620008f65760405162461bcd60e51b815260206004820152601160248201527013dddb995c881b5d5cdd081899481cd95d607a1b604482015260640160405180910390620008f362000ac0565b50505b60005b6018811015620009865760008282601881106200091257fe5b602002015114620009775760078282601881106200092c57fe5b602002015190806001816200094062000c39565b0180826200094d62000bea565b50506000928352916000198301915060209020919291016200096e62000bea565b5050506200097d565b62000986565b600101620008f9565b508160056001816200099762000c39565b816001600160a01b0302191690836001600160a01b0316021790620009bb62000bea565b50505050505a620009cb62000cd4565b62794a0001806010620009dd62000bea565b505050505062000d48565b600080821162000a495760405162461bcd60e51b815260206004820152601a60248201527f536166654d6174683a206469766973696f6e206279207a65726f00000000000060448201526064016040518091039062000a4662000ac0565b50505b600082848162000a5557fe5b04949350505050565b638435035b598160e01b8152836004820152602081602483336000905af158600e01573d6000803e3d6000fd5b3d6001141558600a015760016000f35b8051935060005b604081101562000abb5760008282015260200162000aa2565b505050565b632a2a7adb598160e01b8152600481016020815285602082015260005b8681101562000afa57808601518282016040015260200162000add565b506020828760640184336000905af158600e01573d6000803e3d6000fd5b3d6001141558600a015760016000f35b505050565b63ffe73914598160e01b8152836004820152846024820152606060448201528660648201526084810160005b8881101562000b7357808801518282015260200162000b59565b50876101040182016060838a6101040185336000905af158600e01573d6000803e3d6000fd5b3d6001141558600a015760016000f35b825160408401513d6000863e8c8c82606088013350600060045af15059855b8181101562000bde576000815260200162000bc8565b50919c50505050505050565b6322bd64c0598160e01b8152836004820152846024820152600081604483336000905af158600e01573d6000803e3d6000fd5b3d6001141558600a015760016000f35b60008152602062000aa2565b6303daa959598160e01b8152836004820152602081602483336000905af158600e01573d6000803e3d6000fd5b3d6001141558600a015760016000f35b8051600082529350602062000aa2565b826018810192821562000cc2579160200282015b8281111562000cc25782518262000cb062000bea565b50509160200191906001019062000c9a565b5062000cd092915062000d1b565b5090565b63bdbf8c36598160e01b8152602081600483336000905af158600e01573d6000803e3d6000fd5b3d6001141558600a015760016000f35b8051600082529350602062000aa2565b62000d4591905b8082111562000cd0576000808262000d3962000bea565b50505060010162000d22565b90565b61632e8062000d586000396000f3fe6080604052600436106103815760003560e01c80637c3a00fd116101d1578063ab49848c11610102578063e3235c91116100a0578063ee5f3f5c1161006f578063ee5f3f5c14611048578063eea8f5da14611066578063f45f08fb14611084578063f53dfb84146110cf57610381565b8063e3235c9114610fb2578063e3c1e58c14610fd0578063e40108ed14610fee578063e5829d201461100c57610381565b8063c6c9d828116100dc578063c6c9d82814610ed1578063d05951a014610f0d578063dcaf9c4414610f49578063e220a81114610f6757610381565b8063ab49848c14610e1e578063b410a03414610e75578063bb8c6d6c14610e9357610381565b8063946ce8cd1161016f578063a2e1734211610149578063a2e1734214610cba578063a5d5db0c14610cfc578063a76cdfa514610d31578063aa754a2a14610d6d57610381565b8063946ce8cd14610bc45780639f7d568814610c00578063a1c5158614610c1e57610381565b806389c937de116101ab57806389c937de14610b015780638da5cb5b14610b4c5780638fdc8f3b14610b6a57806391b4ded914610ba657610381565b80637c3a00fd14610a095780637cc1f86714610a2757806380a5d3d814610ab057610381565b80633be99e6f116102b65780635c975abb11610254578063631e144411610223578063631e144414610946578063675969be1461098b578063767a7b05146109a957806379ba5097146109eb57610381565b80635c975abb146108395780635d1a22291461086b5780635f84f302146108a757806360655ba7146108e357610381565b80634f069f66116102905780634f069f661461076e5780634f11815c146107aa57806353a47bb7146107f557806354e3e70d1461081357610381565b80633be99e6f146106c05780634189bb4914610705578063462b97251461072357610381565b806323aa7f0f116103235780632f2bf15b116102fd5780632f2bf15b14610577578063361e20861461060f578063384585711461062d57806339735e371461067e57610381565b806323aa7f0f1461051d57806323f5589a1461053b57806324bbab8b1461055957610381565b80631627540c1161035f5780631627540c1461043e57806316c38b3c146104855780631775765f146104c357806317da255e146104e157610381565b806304f3bcec1461038f578063089f7fb4146103c95780631474b27914610420575b60008061038c615be2565b50505b3480156103a4576000806103a1615be2565b50505b506103ad61110b565b6040516001600160a01b03909116815260200160405180910390f35b3480156103de576000806103db615be2565b50505b5061040e600480360360208110156103fe576000806103fb615be2565b50505b50356001600160a01b031661112a565b60405190815260200160405180910390f35b34801561043557600080610432615be2565b50505b5061040e611145565b34801561045357600080610450615be2565b50505b506104836004803603602081101561047357600080610470615be2565b50505b50356001600160a01b031661114f565b005b34801561049a57600080610497615be2565b50505b50610483600480360360208110156104ba576000806104b7615be2565b50505b503515156111c9565b3480156104d8576000806104d5615be2565b50505b5061040e61129f565b3480156104f6576000806104f3615be2565b50505b506104836004803603602081101561051657600080610513615be2565b50505b50356112a9565b3480156105325760008061052f615be2565b50505b5061040e6112ff565b3480156105505760008061054d615be2565b50505b5061040e611309565b34801561056e5760008061056b615be2565b50505b5061040e611313565b34801561058c57600080610589615be2565b50505b506105bc600480360360208110156105ac576000806105a9615be2565b50505b50356001600160a01b031661131d565b60405160208082528190810183818151815260200191508051906020019060200280838360005b838110156105fb5780820151838201526020016105e3565b505050509050019250505060405180910390f35b34801561062457600080610621615be2565b50505b5061040e611576565b3480156106425760008061063f615be2565b50505b50610483600480360360608110156106625760008061065f615be2565b50505b506001600160a01b038135169060208101359060400135611580565b34801561069357600080610690615be2565b50505b5061040e600480360360408110156106b3576000806106b0615be2565b50505b5080359060200135611cff565b3480156106d5576000806106d2615be2565b50505b50610483600480360360208110156106f5576000806106f2615be2565b50505b50356001600160a01b0316611e39565b34801561071a57600080610717615be2565b50505b5061040e612003565b34801561073857600080610735615be2565b50505b5061040e6004803603604081101561075857600080610755615be2565b50505b506001600160a01b03813516906020013561200d565b34801561078357600080610780615be2565b50505b50610483600480360360208110156107a3576000806107a0615be2565b50505b5035612030565b3480156107bf576000806107bc615be2565b50505b5061040e600480360360408110156107df576000806107dc615be2565b50505b506001600160a01b038135169060200135612072565b34801561080a57600080610807615be2565b50505b506103ad612099565b61040e600480360360208110156108325760008061082f615be2565b50505b50356120a5565b34801561084e5760008061084b615be2565b50505b5061085761295e565b604051901515815260200160405180910390f35b3480156108805760008061087d615be2565b50505b50610483600480360360208110156108a05760008061089d615be2565b50505b5035612977565b3480156108bc576000806108b9615be2565b50505b50610483600480360360208110156108dc576000806108d9615be2565b50505b5035612a02565b3480156108f8576000806108f5615be2565b50505b5061092e6004803603604081101561091857600080610915615be2565b50505b506001600160a01b038135169060200135612ba1565b60405191825260208201526040908101905180910390f35b34801561095b57600080610958615be2565b50505b506108576004803603602081101561097b57600080610978615be2565b50505b50356001600160a01b0316612c0f565b3480156109a05760008061099d615be2565b50505b5061040e612de9565b3480156109be576000806109bb615be2565b50505b50610483600480360360408110156109de576000806109db615be2565b50505b5080359060200135612df3565b348015610a00576000806109fd615be2565b50505b50610483613274565b348015610a1e57600080610a1b615be2565b50505b5061040e6133f2565b348015610a3c57600080610a39615be2565b50505b50610a456133fc565b6040519c8d5260208d019b909b526040808d019a909a5260608c019890985260808b019690965260a08a019490945260c089019290925260e08801526101008701526101208601526101408501526101608401529015156101808301526101a0909101905180910390f35b348015610ac557600080610ac2615be2565b50505b5061048360048036036060811015610ae557600080610ae2615be2565b50505b506001600160a01b0381351690602081013590604001356134bd565b348015610b1657600080610b13615be2565b50505b5061040e60048036036040811015610b3657600080610b33615be2565b50505b506001600160a01b0381351690602001356138f1565b348015610b6157600080610b5e615be2565b50505b506103ad613950565b348015610b7f57600080610b7c615be2565b50505b5061040e60048036036020811015610b9f57600080610b9c615be2565b50505b503561395b565b348015610bbb57600080610bb8615be2565b50505b5061040e613a3c565b348015610bd957600080610bd6615be2565b50505b5061048360048036036020811015610bf957600080610bf6615be2565b50505b5035613a46565b348015610c1557600080610c12615be2565b50505b5061040e613b81565b348015610c3357600080610c30615be2565b50505b50610c6960048036036040811015610c5357600080610c50615be2565b50505b506001600160a01b038135169060200135613b8b565b6040516001600160a01b03909816885260208801969096526040808801959095526060870193909352608086019190915260a085015260c084015260e0830191909152610100909101905180910390f35b348015610ccf57600080610ccc615be2565b50505b5061040e60048036036040811015610cef57600080610cec615be2565b50505b5080359060200135613c2b565b61048360048036036040811015610d1b57600080610d18615be2565b50505b506001600160a01b038135169060200135613c5e565b348015610d4657600080610d43615be2565b50505b5061048360048036036020811015610d6657600080610d63615be2565b50505b5035613e89565b348015610d8257600080610d7f615be2565b50505b50610db860048036036040811015610da257600080610d9f615be2565b50505b506001600160a01b038135169060200135613ecb565b6040516001600160a01b03909a168a5260208a01989098526040808a01979097526060890195909552608088019390935260a087019190915260c086015260e085015261010084015264ffffffffff909116610120830152610140909101905180910390f35b348015610e3357600080610e30615be2565b50505b50610e3c613fa3565b604051808261030080838360005b83811015610e62578082015183820152602001610e4a565b5050505090500191505060405180910390f35b348015610e8a57600080610e87615be2565b50505b5061040e614005565b348015610ea857600080610ea5615be2565b50505b5061048360048036036020811015610ec857600080610ec5615be2565b50505b5035151561402f565b348015610ee657600080610ee3615be2565b50505b5061040e60048036036020811015610f0657600080610f03615be2565b50505b50356140f8565b348015610f2257600080610f1f615be2565b50505b5061048360048036036020811015610f4257600080610f3f615be2565b50505b5035614120565b348015610f5e57600080610f5b615be2565b50505b5061040e6142b2565b348015610f7c57600080610f79615be2565b50505b5061048360048036036040811015610f9c57600080610f99615be2565b50505b506001600160a01b0381351690602001356142bc565b348015610fc757600080610fc4615be2565b50505b5061040e6144c4565b348015610fe557600080610fe2615be2565b50505b506108576144c9565b34801561100357600080611000615be2565b50505b5061040e6144d5565b3480156110215760008061101e615be2565b50505b50610483600480360360208110156110415760008061103e615be2565b50505b50356144df565b34801561105d5760008061105a615be2565b50505b5061040e6145cd565b34801561107b57600080611078615be2565b50505b5061040e6145d7565b34801561109957600080611096615be2565b50505b5061040e600480360360408110156110b9576000806110b6615be2565b50505b506001600160a01b0381351690602001356145e1565b3480156110e4576000806110e1615be2565b50505b5061040e6004803603602081101561110457600080611101615be2565b50505b503561460b565b60006005611117615c4d565b906101000a90046001600160a01b031681565b60176020528060005260406000209050611142615c4d565b81565b600e611142615c4d565b6111576146ee565b8060018080611164615c4d565b816001600160a01b0302191690836001600160a01b0316021790611186615ca8565b5050507f906a1c6bd7e3091ea86693dd029a831c19049ce77f1dce2ce0bab1cacbabce22816040516001600160a01b03909116815260200160405180910390a150565b6111d16146ee565b600060036111dd615c4d565b906101000a900460ff16151581151514156111f75761129c565b806003600181611205615c4d565b8160ff0219169083151502179061121a615ca8565b505050600360009061122a615c4d565b906101000a900460ff1615611251575a611242615cf6565b80600261124d615ca8565b5050505b7f8fb6c181ee25a520cf3dd6565006ef91229fcfe5a989566c2a3b8c115570cec56000600361127e615c4d565b906101000a900460ff16604051901515815260200160405180910390a15b50565b6011611142615c4d565b6112b16146ee565b8080600d6112bd615ca8565b5050507f9f45df4d81199bea8f20e88707b6f7d36b8e8f20a7def01c113746f67557ffb6600d6112eb615c4d565b60405190815260200160405180910390a150565b6014611142615c4d565b6012611142615c4d565b6208aa8960eb1b81565b6001600160a01b0381166000908152601660205260609081906040902080611343615c4d565b8060200260200160405190810160405281815291906000602084015b8282101561145f57838290600052602060002090600a02016040516101408101604052908160008261138f615c4d565b6001600160a01b036101009290920a9004168152602001600182016113b2615c4d565b8152602001600282016113c3615c4d565b8152602001600382016113d4615c4d565b8152602001600482016113e5615c4d565b8152602001600582016113f6615c4d565b815260200160068201611407615c4d565b815260200160078201611418615c4d565b815260200160088201611429615c4d565b815260200160006009830161143c615c4d565b64ffffffffff6101009290920a900416905250815260019091019060200161135f565b50505050905060608151604051908082528060200260200182016040528015611492578160200160208202803883390190505b5090506000805b83518110156114fc578381815181106114ae57fe5b602002602001015160c001516114f4578381815181106114ca57fe5b602002602001015160a001518383815181106114e257fe5b60209081029190910101526001909101905b600101611499565b50606081604051908082528060200260200182016040528015611529578160200160208202803883390190505b50905060005b8281101561156a5783818151811061154357fe5b602002602001015182828151811061155757fe5b602090810291909101015260010161152f565b5093505050505b919050565b600b611142615c4d565b6001600460008282611590615c4d565b01925050819061159e615ca8565b505050600060046115ad615c4d565b90506115b7614768565b6001600160a01b0316632528f0fe6208aa8960eb1b6040516001600160e01b031960e084901b168152600481019190915260240160206040518083038186806115fe615d3c565b15801561161357600080611610615be2565b50505b505a61161d615d88565b505050505015801561163c573d6000803e3d6000611639615be2565b50505b505050506040513d602081101561165b57600080611658615be2565b50505b8101908080511592506116ae9150505760405162461bcd60e51b815260206004820152601e60248201526000805160206161278339815191526044820152606401604051809103906116ab615be2565b50505b6116b66147b7565b6001600160a01b031663086dabd16040518163ffffffff1660e01b815260040160006040518083038186806116e9615d3c565b1580156116fe576000806116fb615be2565b50505b505a611708615d88565b5050505050158015611727573d6000803e3d6000611724615be2565b50505b5050505081611734614805565b6001600160a01b03166370a082315a61174b615e41565b6040516001600160e01b031960e084901b1681526001600160a01b0390911660048201526024016020604051808303818680611785615d3c565b15801561179a57600080611797615be2565b50505b505a6117a4615d88565b50505050501580156117c3573d6000803e3d60006117c0615be2565b50505b505050506040513d60208110156117e2576000806117df615be2565b50505b810190808051939093101592506118459150505760405162461bcd60e51b81526020600482015260176024820152764e6f7420656e6f75676820735553442062616c616e636560481b604482015260640160405180910390611842615be2565b50505b61184d615e87565b6118578585614850565b9050611862816149f8565b600080600061187084614aa1565b9250925092506011611880615c4d565b83106118c65760405162461bcd60e51b815260040180806020018281038252602881526020018061600460289139604001915050604051809103906118c3615be2565b50505b60006118fb6118f5836118e988610100015189604001519063ffffffff614bc816565b9063ffffffff614bc816565b84611cff565b9050600087821061190c578761190e565b815b9050611918614805565b6001600160a01b0316639dc29fac5a61192f615e41565b836040516001600160e01b031960e085901b1681526001600160a01b039092166004830152602482015260440160006040518083038160008780611971615d3c565b15801561198657600080611983615be2565b50505b505a611990615eea565b5050505050501580156119b0573d6000803e3d60006119ad615be2565b50505b5050505060008060006119dd846119d3888c61010001519063ffffffff614bc816565b8b60400151614c30565b509250925092506119ee8383614ca9565b60006119f8614768565b6001600160a01b031663654a60ac631cd554d160e21b876208aa8960eb1b6040516001600160e01b031960e086901b1681526004810193909352602483019190915260448201526064016020604051808303818680611a55615d3c565b158015611a6a57600080611a67615be2565b50505b505a611a74615d88565b5050505050158015611a93573d6000803e3d6000611a90615be2565b50505b505050506040513d6020811015611ab257600080611aaf615be2565b50505b810190808051935060009250611b929150611b8590506012611ad2615c4d565b73__$dea560c1c88ab8ee92a045569682361255$__63907af6c06040518163ffffffff1660e01b81526004016020604051808303818680611b11615d3c565b158015611b2657600080611b23615be2565b50505b505a611b30615fa3565b5050505050158015611b4f573d6000803e3d6000611b4c615be2565b50505b505050506040513d6020811015611b6e57600080611b6b615be2565b50505b8101908080519392505063ffffffff614bc8169050565b839063ffffffff614e1916565b9050611bbc8b611bad868e604001519063ffffffff614e4316565b855a611bb7615cf6565b614ea8565b611bda8b611bd5838e602001519063ffffffff614e4316565b614fdd565b505a611be4615e41565b6001600160a01b031681156108fc0282604051600060405180830381858888611c0b615eea565b5050505050509350505050158015611c30573d6000803e3d6000611c2d615be2565b50505b508e6001600160a01b03167fb6e43890aeea54fbe6c0ed628e78172a0ff30bbcb1d70d8b130b12c366bac4c58f5a611c66615e41565b89856040519384526001600160a01b03909216602084015260408084019190915260608301919091526080909101905180910390a250505050505050505050506004611cb0615c4d565b8114611cf95760405162461bcd60e51b815260206004820152601f602482015260008051602061605d833981519152604482015260640160405180910390611cf6615be2565b50505b50505050565b60008073__$dea560c1c88ab8ee92a045569682361255$__63907af6c06040518163ffffffff1660e01b81526004016020604051808303818680611d41615d3c565b158015611d5657600080611d53615be2565b50505b505a611d60615fa3565b5050505050158015611d7f573d6000803e3d6000611d7c615be2565b50505b505050506040513d6020811015611d9e57600080611d9b615be2565b50505b81019080805193506000925060119150611db89050615c4d565b90506000611ddc611dcf868463ffffffff61519816565b879063ffffffff614e4316565b90506000611e1a611e0d84611e016012611df4615c4d565b889063ffffffff614bc816565b9063ffffffff61519816565b859063ffffffff614e4316565b9050611e2c828263ffffffff61519816565b9450505050505b92915050565b611e416146ee565b806005600181611e4f615c4d565b816001600160a01b0302191690836001600160a01b0316021790611e71615ca8565b5060009150505b600780611e83615c4d565b9050811015611fff57600060078281611e9a615c4d565b8110611ea257fe5b90600052602060002001611eb4615c4d565b905060006005611ec2615c4d565b906101000a90046001600160a01b03166001600160a01b031663dacb2d01826040516001600160e01b031960e084901b1681526004810191909152604060248201819052601760448301527f5265736f6c766572206d697373696e6720746172676574000000000000000000606483015260849091019060209051808303818680611f4b615d3c565b158015611f6057600080611f5d615be2565b50505b505a611f6a615d88565b5050505050158015611f89573d6000803e3d6000611f86615be2565b50505b505050506040513d6020811015611fa857600080611fa5615be2565b50505b8101908080516000858152600660205290935060409250905020600181611fcd615c4d565b816001600160a01b0302191690836001600160a01b0316021790611fef615ca8565b505060019092019150611e789050565b5050565b6015611142615c4d565b6000612017615e87565b6120218484614850565b90508060600151949350505050565b6120386146ee565b8080600c612044615ca8565b5050507fbb72ce8874020b3b98429d653df927cac6618ac1932384b1446bf04bf9a1b7e5600c6112eb615c4d565b600061207c615e87565b6120868484614850565b9050612091816151c2565b949350505050565b60006001611117615c4d565b60008060036120b2615c4d565b906101000a900460ff16156121015760405162461bcd60e51b815260040180806020018281038252603c815260200180616210603c9139604001915050604051809103906120fe615be2565b50505b6001600460008282612111615c4d565b01925050819061211f615ca8565b5050506000600461212e615c4d565b9050612138614768565b6001600160a01b0316632528f0fe6208aa8960eb1b6040516001600160e01b031960e084901b1681526004810191909152602401602060405180830381868061217f615d3c565b15801561219457600080612191615be2565b50505b505a61219e615d88565b50505050501580156121bd573d6000803e3d60006121ba615be2565b50505b505050506040513d60208110156121dc576000806121d9615be2565b50505b81019080805115925061222f9150505760405162461bcd60e51b815260206004820152601e602482015260008051602061612783398151915260448201526064016040518091039061222c615be2565b50505b6122376147b7565b6001600160a01b0316637c3125416040518163ffffffff1660e01b8152600401600060405180830381868061226a615d3c565b15801561227f5760008061227c615be2565b50505b505a612289615d88565b50505050501580156122a8573d6000803e3d60006122a5615be2565b50505b50505050600d6122b6615c4d565b3410156122fd5760405162461bcd60e51b81526004018080602001828103825260488152602001806162e660489139606001915050604051809103906122fa615be2565b50505b6000600f612309615c4d565b60ff6101009290920a9004161561236f5760405162461bcd60e51b815260206004820152601e60248201527f4c6f616e7320617265206e6f77206265696e67206c697175696461746564000060448201526064016040518091039061236c615be2565b50505b600e612379615c4d565b601660005a612386615e41565b6001600160a01b03166001600160a01b03168152602001908152602001600020806123af615c4d565b9050106123f65760405162461bcd60e51b815260040180806020018281038252602381526020018061619d60239139604001915050604051809103906123f3615be2565b50505b60006124013461395b565b90508084111561244b5760405162461bcd60e51b81526004018080602001828103825260278152602001806160d76027913960400191505060405180910390612448615be2565b50505b600061245685615226565b9050600061246a868363ffffffff614e4316565b9050600c612476615c4d565b6124848760136118e9615c4d565b11156124ca5760405162461bcd60e51b815260040180806020018281038252602381526020018061617a60239139604001915050604051809103906124c7615be2565b50505b6124d2615242565b94506124dc615e87565b6040518061014001604052805a6124f1615e41565b6001600160a01b031681526020013481526020018881526020018481526020015a61251a615cf6565b8152602001878152602001600081526020016009612536615c4d565b81526000602082018190526040909101529050821561268e57612557614805565b6001600160a01b031663867904b473feefeefeefeefeefeefeefeefeefeefeefeefeef856040516001600160e01b031960e085901b1681526001600160a01b0390921660048301526024820152604401600060405180830381600087806125bc615d3c565b1580156125d1576000806125ce615be2565b50505b505a6125db615eea565b5050505050501580156125fb573d6000803e3d60006125f8615be2565b50505b50505050612607615288565b6001600160a01b03166322bf55ef846040516001600160e01b031960e084901b16815260048101919091526024016000604051808303816000878061264a615d3c565b15801561265f5760008061265c615be2565b50505b505a612669615eea565b505050505050158015612689573d6000803e3d6000612686615be2565b50505b505050505b601660005a61269b615e41565b6001600160a01b03166001600160a01b031681526020019081526020016000208190806001816126c9615c4d565b0180826126d4615ca8565b50506000928352916000198301915060209020919291600a909102018151816001816126fe615c4d565b816001600160a01b0302191690836001600160a01b0316021790612720615ca8565b505050602082015181600101612734615ca8565b5050604082015181600201612747615ca8565b505060608201518160030161275a615ca8565b505060808201518160040161276d615ca8565b505060a082015181600501612780615ca8565b505060c082015181600601612793615ca8565b505060e0820151816007016127a6615ca8565b5050610100820151816008016127ba615ca8565b5050610120820151600982016001816127d1615c4d565b8164ffffffffff021916908364ffffffffff160217906127ef615ca8565b5050505050506128038760136118e9615c4d565b80601361280e615ca8565b505050612819614805565b6001600160a01b031663867904b45a612830615e41565b846040516001600160e01b031960e085901b1681526001600160a01b039092166004830152602482015260440160006040518083038160008780612872615d3c565b15801561288757600080612884615be2565b50505b505a612891615eea565b5050505050501580156128b1573d6000803e3d60006128ae615be2565b50505b505050505a6128be615e41565b6001600160a01b03167f58d170de3a12438e22d81380f353b2fcac86f0a708a1374deaa5c6322a95992f878960405191825260208201526040908101905180910390a250505050600461290f615c4d565b81146129585760405162461bcd60e51b815260206004820152601f602482015260008051602061605d833981519152604482015260640160405180910390612955615be2565b50505b50919050565b6000600361296a615c4d565b906101000a900460ff1681565b61297f6146ee565b6103e881106129c85760405162461bcd60e51b815260040180806020018281038252603381526020018061614760339139604001915050604051809103906129c5615be2565b50505b8080600e6129d4615ca8565b5050507f59822dc2d999f6f0618e8b0db5cfc8496084574c769b09609d9b5f4394a310b6600e6112eb615c4d565b612a0a6146ee565b6301e133808111612a555760405162461bcd60e51b81526004018080602001828103825260378152602001806162af6037913960400191505060405180910390612a52615be2565b50505b73__$dea560c1c88ab8ee92a045569682361255$__63907af6c06040518163ffffffff1660e01b81526004016020604051808303818680612a94615d3c565b158015612aa957600080612aa6615be2565b50505b505a612ab3615fa3565b5050505050158015612ad2573d6000803e3d6000612acf615be2565b50505b505050506040513d6020811015612af157600080612aee615be2565b50505b8101908080518411159250612b439150505760405162461bcd60e51b815260040180806020018281038252602581526020018061624c6025913960400191505060405180910390612b40615be2565b50505b80806009612b4f615ca8565b50612b6891508290506301e1338063ffffffff6152d116565b80600a612b73615ca8565b5050507fa90e14be5aa57b910aa6dc16c31ff1b5cda380ae25a793b0d3f74df6131a7d7460096112eb615c4d565b600080612bac615e87565b612bb68585614850565b90506000612bd482610100015183604001519063ffffffff614bc816565b9050612bfd612beb82612be6856151c2565b613c2b565b8361010001519063ffffffff614bc816565b93508160600151925050509250929050565b60006001600160a01b038216816005612c26615c4d565b906101000a90046001600160a01b03166001600160a01b031614612c4c57506000611571565b60005b600780612c5a615c4d565b9050811015612de057600060078281612c71615c4d565b8110612c7957fe5b90600052602060002001612c8b615c4d565b6000818152600660205290915060409020600090612ca7615c4d565b6001600160a01b036101009290920a90041660006005612cc5615c4d565b906101000a90046001600160a01b03166001600160a01b03166321f8a721836040516001600160e01b031960e084901b16815260048101919091526024016020604051808303818680612d16615d3c565b158015612d2b57600080612d28615be2565b50505b505a612d35615d88565b5050505050158015612d54573d6000803e3d6000612d51615be2565b50505b505050506040513d6020811015612d7357600080612d70615be2565b50505b8101908080516001600160a01b031693909314159250829150612dc7905057506000818152600660205260408120600090612dac615c4d565b906101000a90046001600160a01b03166001600160a01b0316145b15612dd757600092505050611571565b50600101612c4f565b50600192915050565b600d611142615c4d565b60006003612dff615c4d565b906101000a900460ff1615612e4e5760405162461bcd60e51b815260040180806020018281038252603c815260200180616210603c913960400191505060405180910390612e4b615be2565b50505b6001600460008282612e5e615c4d565b019250508190612e6c615ca8565b50505060006004612e7b615c4d565b9050612e85614768565b6001600160a01b0316632528f0fe6208aa8960eb1b6040516001600160e01b031960e084901b16815260048101919091526024016020604051808303818680612ecc615d3c565b158015612ee157600080612ede615be2565b50505b505a612eeb615d88565b5050505050158015612f0a573d6000803e3d6000612f07615be2565b50505b505050506040513d6020811015612f2957600080612f26615be2565b50505b810190808051159250612f7c9150505760405162461bcd60e51b815260206004820152601e6024820152600080516020616127833981519152604482015260640160405180910390612f79615be2565b50505b60008211612fc45760405162461bcd60e51b81526004018080602001828103825260298152602001806160fe6029913960400191505060405180910390612fc1615be2565b50505b612fcc6147b7565b6001600160a01b0316637c3125416040518163ffffffff1660e01b81526004016000604051808303818680612fff615d3c565b15801561301457600080613011615be2565b50505b505a61301e615d88565b505050505015801561303d573d6000803e3d600061303a615be2565b50505b50505050600f60009061304e615c4d565b60ff6101009290920a900416156130b45760405162461bcd60e51b815260206004820152601e60248201527f4c6f616e7320617265206e6f77206265696e67206c69717569646174656400006044820152606401604051809103906130b1615be2565b50505b6130bc615e87565b6130ce5a6130c8615e41565b85614850565b90506130d9816149f8565b60006130f08483602001519063ffffffff614e4316565b90506130fa615e87565b6131048383614fdd565b9050600061311182614aa1565b50509050601161311f615c4d565b81116131655760405162461bcd60e51b815260040180806020018281038252603181526020018061602c6031913960400191505060405180910390613162615be2565b50505b5a61316e615e41565b6001600160a01b031686156108fc0287604051600060405180830381858888613195615eea565b50505050505093505050501580156131ba573d6000803e3d60006131b7615be2565b50505b505a6131c4615e41565b6001600160a01b03167ffae26280bca25d80f1501a9e363c73d3845e651c9aaae54f1fc09a9dcd5f33038888856020015160405180848152602001838152602001828152602001935050505060405180910390a2505050506004613226615c4d565b811461326f5760405162461bcd60e51b815260206004820152601f602482015260008051602061605d83398151915260448201526064016040518091039061326c615be2565b50505b505050565b60006001613280615c4d565b906101000a90046001600160a01b03166001600160a01b03165a6132a2615e41565b6001600160a01b0316146132f05760405162461bcd60e51b815260040180806020018281038252603581526020018061607d60359139604001915050604051809103906132ed615be2565b50505b7fb532073b38c83145e3e5135377a08bf9aab55bc0fd7c1179cd4fb995d2a5159c60008061331c615c4d565b906101000a90046001600160a01b03166001600090613339615c4d565b906101000a90046001600160a01b03166040516001600160a01b039283168152911660208201526040908101905180910390a160006001613378615c4d565b906101000a90046001600160a01b03166000806101000a81613398615c4d565b816001600160a01b0302191690836001600160a01b03160217906133ba615ca8565b5050506000600160006101000a816133d0615c4d565b816001600160a01b0302191690836001600160a01b031602179061326f615ca8565b6009611142615c4d565b6000806000806000806000806000806000806000600861341a615c4d565b9c50613424614005565b9b506009613430615c4d565b9a50600a61343c615c4d565b9950600b613448615c4d565b9850600c613454615c4d565b9750600d613460615c4d565b9650601361346c615c4d565b95506014613478615c4d565b94506015613484615c4d565b9350600092506010613494615c4d565b91506000600f6134a2615c4d565b906101000a900460ff169050909192939495969798999a9b9c565b6134c5614768565b6001600160a01b0316632528f0fe6208aa8960eb1b6040516001600160e01b031960e084901b1681526004810191909152602401602060405180830381868061350c615d3c565b1580156135215760008061351e615be2565b50505b505a61352b615d88565b505050505015801561354a573d6000803e3d6000613547615be2565b50505b505050506040513d602081101561356957600080613566615be2565b50505b8101908080511592506135bc9150505760405162461bcd60e51b815260206004820152601e60248201526000805160206161278339815191526044820152606401604051809103906135b9615be2565b50505b6135c46147b7565b6001600160a01b031663086dabd16040518163ffffffff1660e01b815260040160006040518083038186806135f7615d3c565b15801561360c57600080613609615be2565b50505b505a613616615d88565b5050505050158015613635573d6000803e3d6000613632615be2565b50505b5050505080613642614805565b6001600160a01b03166370a082315a613659615e41565b6040516001600160e01b031960e084901b1681526001600160a01b0390911660048201526024016020604051808303818680613693615d3c565b1580156136a8576000806136a5615be2565b50505b505a6136b2615d88565b50505050501580156136d1573d6000803e3d60006136ce615be2565b50505b505050506040513d60208110156136f0576000806136ed615be2565b50505b810190808051939093101592506137539150505760405162461bcd60e51b81526020600482015260176024820152764e6f7420656e6f75676820735553442062616c616e636560481b604482015260640160405180910390613750615be2565b50505b61375b615e87565b6137658484614850565b9050613770816149f8565b600061378c82610100015183604001519063ffffffff614bc816565b9050600061379d82612be6856151c2565b905060006137b7828561010001519063ffffffff614bc816565b90506000806000806137ce89868a60400151614c30565b93509350935093506137de614805565b6001600160a01b0316639dc29fac5a6137f5615e41565b8b6040516001600160e01b031960e085901b1681526001600160a01b039092166004830152602482015260440160006040518083038160008780613837615d3c565b15801561384c57600080613849615be2565b50505b505a613856615eea565b505050505050158015613876573d6000803e3d6000613873615be2565b50505b505050506138848484614ca9565b6138938882845a611bb7615cf6565b8a6001600160a01b03167f2cebe3c4a7e8e81ca2035a6cb3ee450bb6401d9b6636652e183583f0470495728b8b8460405180848152602001838152602001828152602001935050505060405180910390a25050505050505050505050565b60006138fb615e87565b6139058484614850565b9050600061392f61392683610100015184604001519063ffffffff614bc816565b612be6846151c2565b9050613947818361010001519063ffffffff614bc816565b95945050505050565b600080611117615c4d565b6000611e33613968614768565b6001600160a01b031663ac82f6086208aa8960eb1b6040516001600160e01b031960e084901b168152600481019190915260240160206040518083038186806139af615d3c565b1580156139c4576000806139c1615be2565b50505b505a6139ce615d88565b50505050501580156139ed573d6000803e3d60006139ea615be2565b50505b505050506040513d6020811015613a0c57600080613a09615be2565b50505b8101908080519250613a309150613a239050614005565b859063ffffffff614e1916565b9063ffffffff614e1916565b6002611142615c4d565b613a4e6146ee565b73__$dea560c1c88ab8ee92a045569682361255$__63907af6c06040518163ffffffff1660e01b81526004016020604051808303818680613a8d615d3c565b158015613aa257600080613a9f615be2565b50505b505a613aac615fa3565b5050505050158015613acb573d6000803e3d6000613ac8615be2565b50505b505050506040513d6020811015613aea57600080613ae7615be2565b50505b81019080805184119250613b479150505760405162461bcd60e51b8152602060048201526014602482015273526174696f206c657373207468616e203130302560601b604482015260640160405180910390613b44615be2565b50505b80806011613b53615ca8565b5050507f5568be83e5cf7405adf8fb39305e2cdf49c43336606d23c3e0d3fe54e205150a60116112eb615c4d565b6010611142615c4d565b600080600080600080600080613b9f615e87565b613ba98b8b614850565b9050805198508060200151975080604001519650806080015195508060a0015194508060c001519350613c04613bf261392683610100015184604001519063ffffffff614bc816565b8261010001519063ffffffff614bc816565b9250613c1b8160600151849063ffffffff614bc816565b9150509295985092959890939650565b6000613c57613c4a83600a613c3e615c4d565b9063ffffffff61534316565b849063ffffffff6153a216565b9392505050565b60006003613c6a615c4d565b906101000a900460ff1615613cb95760405162461bcd60e51b815260040180806020018281038252603c815260200180616210603c913960400191505060405180910390613cb6615be2565b50505b60003411613d015760405162461bcd60e51b81526004018080602001828103825260258152602001806160b26025913960400191505060405180910390613cfe615be2565b50505b613d096147b7565b6001600160a01b0316637c3125416040518163ffffffff1660e01b81526004016000604051808303818680613d3c615d3c565b158015613d5157600080613d4e615be2565b50505b505a613d5b615d88565b5050505050158015613d7a573d6000803e3d6000613d77615be2565b50505b50505050600f600090613d8b615c4d565b60ff6101009290920a90041615613df15760405162461bcd60e51b815260206004820152601e60248201527f4c6f616e7320617265206e6f77206265696e67206c6971756964617465640000604482015260640160405180910390613dee615be2565b50505b613df9615e87565b613e038383614850565b9050613e0e816149f8565b6000613e253483602001519063ffffffff614bc816565b9050613e318282614fdd565b50836001600160a01b03167f0b1992dffc262be88559dcaf96464e9d661d8bfca7e82f2bb73e31932a82187c84348460405180848152602001838152602001828152602001935050505060405180910390a250505050565b613e916146ee565b8080600b613e9d615ca8565b5050507fe7bd72551c54d568cd97b00dc52d2787b5c5d4f0070d3582c1e8ba25141f799c600b6112eb615c4d565b60166020528160005260406000208181613ee3615c4d565b8110613eeb57fe5b906000526020600020600a9091020191506000905081613f09615c4d565b906101000a90046001600160a01b03169080600101613f26615c4d565b9080600201613f33615c4d565b9080600301613f40615c4d565b9080600401613f4d615c4d565b9080600501613f5a615c4d565b9080600601613f67615c4d565b9080600701613f74615c4d565b9080600801613f81615c4d565b90600060098201613f90615c4d565b906101000a900464ffffffffff1690508a565b613fab615fe6565b60005b600780613fb9615c4d565b90508110156140015760078181613fce615c4d565b8110613fd657fe5b90600052602060002001613fe8615c4d565b828260188110613ff457fe5b6020020152600101613fae565b5090565b600061402a6008614014615c4d565b68056bc75e2d631000009063ffffffff6153b716565b905090565b6140376146ee565b6010614041615c4d565b5a61404a615cf6565b116140a45760405162461bcd60e51b815260206004820152601b60248201527f4265666f7265206c69717569646174696f6e20646561646c696e6500000000006044820152606401604051809103906140a1615be2565b50505b80600f6001816140b2615c4d565b8160ff021916908315150217906140c7615ca8565b5050507faa52cf15c1fbb778214c66f64726e141551158858d1c06ca0392c6c5869c8567600f60009061127e615c4d565b60078181614104615c4d565b811061410c57fe5b906000526020600020019050611142615c4d565b6001600460008282614130615c4d565b01925050819061413e615ca8565b5050506000600461414d615c4d565b9050614157614768565b6001600160a01b0316632528f0fe6208aa8960eb1b6040516001600160e01b031960e084901b1681526004810191909152602401602060405180830381868061419e615d3c565b1580156141b3576000806141b0615be2565b50505b505a6141bd615d88565b50505050501580156141dc573d6000803e3d60006141d9615be2565b50505b505050506040513d60208110156141fb576000806141f8615be2565b50505b81019080805115925061424e9150505760405162461bcd60e51b815260206004820152601e602482015260008051602061612783398151915260448201526064016040518091039061424b615be2565b50505b6142625a61425a615e41565b8360006153cc565b600461426c615c4d565b8114611fff5760405162461bcd60e51b815260206004820152601f602482015260008051602061605d833981519152604482015260640160405180910390611cf9615be2565b6008611142615c4d565b60016004600082826142cc615c4d565b0192505081906142da615ca8565b505050600060046142e9615c4d565b90506142f3614768565b6001600160a01b0316632528f0fe6208aa8960eb1b6040516001600160e01b031960e084901b1681526004810191909152602401602060405180830381868061433a615d3c565b15801561434f5760008061434c615be2565b50505b505a614359615d88565b5050505050158015614378573d6000803e3d6000614375615be2565b50505b505050506040513d602081101561439757600080614394615be2565b50505b8101908080511592506143ea9150505760405162461bcd60e51b815260206004820152601e60248201526000805160206161278339815191526044820152606401604051809103906143e7615be2565b50505b6000600f6143f6615c4d565b906101000a900460ff166144595760405162461bcd60e51b815260206004820152601760248201527f4c69717569646174696f6e206973206e6f74206f70656e000000000000000000604482015260640160405180910390614456615be2565b50505b614465838360016153cc565b826001600160a01b03167fde21b2a43b0a2c2109c049fb1e4bb8653fd67d0ffd74fdcb662db381f1eeab38835a61449a615e41565b6040519182526001600160a01b031660208201526040908101905180910390a26004613226615c4d565b601881565b6000600f61296a615c4d565b600a611142615c4d565b6144e76146ee565b683635c9adc5dea000008111156145385760405162461bcd60e51b81526020600482015260086024820152670a8dede40d0d2ced60c31b604482015260640160405180910390614535615be2565b50505b68056bc75e2d631000008110156145885760405162461bcd60e51b8152602060048201526007602482015266546f6f206c6f7760c81b604482015260640160405180910390614585615be2565b50505b80806008614594615ca8565b5050507ffb0ebe8c7316e6a251494c38876d13d9a3a029273fce7964c12aa2ce078695308160405190815260200160405180910390a150565b6013611142615c4d565b600c611142615c4d565b60006145eb615e87565b6145f58484614850565b905061460081614aa1565b509095945050505050565b6000611e3368056bc75e2d631000006146e2613a23614628614768565b6001600160a01b031663ac82f6086208aa8960eb1b6040516001600160e01b031960e084901b1681526004810191909152602401602060405180830381868061466f615d3c565b15801561468457600080614681615be2565b50505b505a61468e615d88565b50505050501580156146ad573d6000803e3d60006146aa615be2565b50505b505050506040513d60208110156146cc576000806146c9615be2565b50505b8101908080519250600891506146e29050615c4d565b9063ffffffff6153b716565b6000806146f9615c4d565b906101000a90046001600160a01b03166001600160a01b03165a61471b615e41565b6001600160a01b0316146147665760405162461bcd60e51b815260040180806020018281038252602f8152602001806161c0602f913960400191505060405180910390611fff615be2565b565b600061402a6c45786368616e6765526174657360981b60405160408082019052601d81527f4d697373696e672045786368616e67655261746573206164647265737300000060208201526159e2565b600061402a6b53797374656d53746174757360a01b60405160408082019052601c81527f4d697373696e672053797374656d53746174757320616464726573730000000060208201526159e2565b600061402a6814de5b9d1a1cd554d160ba1b60405160408082019052601981527f4d697373696e672053796e74687355534420616464726573730000000000000060208201526159e2565b614858615e87565b6001600160a01b03831660009081526016602052606090604090208061487c615c4d565b8060200260200160405190810160405281815291906000602084015b8282101561499857838290600052602060002090600a0201604051610140810160405290816000826148c8615c4d565b6001600160a01b036101009290920a9004168152602001600182016148eb615c4d565b8152602001600282016148fc615c4d565b81526020016003820161490d615c4d565b81526020016004820161491e615c4d565b81526020016005820161492f615c4d565b815260200160068201614940615c4d565b815260200160078201614951615c4d565b815260200160088201614962615c4d565b8152602001600060098301614975615c4d565b64ffffffffff6101009290920a9004169052508152600190910190602001614898565b509293506000925050505b81518110156149f057838282815181106149b957fe5b602002602001015160a0015114156149e8578181815181106149d757fe5b602002602001015192505050611e33565b6001016149a3565b505092915050565b60008160a0015111614a4f5760405162461bcd60e51b8152602060048201526013602482015272131bd85b88191bd95cc81b9bdd08195e1a5cdd606a1b604482015260640160405180910390614a4c615be2565b50505b8060c001511561129c5760405162461bcd60e51b8152602060048201526013602482015272131bd85b88185b1c9958591e4818db1bdcd959606a1b60448201526064016040518091039061326f615be2565b600080600080614ac185610100015186604001519063ffffffff614bc816565b9050614ad081612be6876151c2565b9150614b9c614add614768565b6001600160a01b031663ac82f6086208aa8960eb1b6040516001600160e01b031960e084901b16815260048101919091526024016020604051808303818680614b24615d3c565b158015614b3957600080614b36615be2565b50505b505a614b43615d88565b5050505050158015614b62573d6000803e3d6000614b5f615be2565b50505b505050506040513d6020811015614b8157600080614b7e615be2565b50505b8101908080519250505060208701519063ffffffff614e1916565b9250614bbe614bb1828463ffffffff614bc816565b849063ffffffff61519816565b9350509193909250565b600082820183811015613c575760405162461bcd60e51b815260206004820152601b60248201527f536166654d6174683a206164646974696f6e206f766572666c6f770000000000604482015260640160405180910390614c27615be2565b50509392505050565b6000808381868015801590614c455750600087115b15614c8057868111614c575780614c59565b865b9450614c6b838663ffffffff614e4316565b9250614c7d818663ffffffff614e4316565b90505b8591508015614c9f57614c99828263ffffffff614e4316565b91508093505b5093509350935093565b8115614dee57614cb7614805565b6001600160a01b031663867904b473feefeefeefeefeefeefeefeefeefeefeefeefeef846040516001600160e01b031960e085901b1681526001600160a01b039092166004830152602482015260440160006040518083038160008780614d1c615d3c565b158015614d3157600080614d2e615be2565b50505b505a614d3b615eea565b505050505050158015614d5b573d6000803e3d6000614d58615be2565b50505b50505050614d67615288565b6001600160a01b03166322bf55ef836040516001600160e01b031960e084901b168152600481019190915260240160006040518083038160008780614daa615d3c565b158015614dbf57600080614dbc615be2565b50505b505a614dc9615eea565b505050505050158015614de9573d6000803e3d6000614de6615be2565b50505b505050505b8015611fff57614e0e816013614e02615c4d565b9063ffffffff614e4316565b80601361326c615ca8565b6000670de0b6b3a7640000614e34848463ffffffff61534316565b81614e3b57fe5b049392505050565b600082821115614ea25760405162461bcd60e51b815260206004820152601e60248201527f536166654d6174683a207375627472616374696f6e206f766572666c6f770000604482015260640160405180910390614e9f615be2565b50505b50900390565b600060168186516001600160a01b03166001600160a01b03168152602001908152602001600020905060005b8180614ede615c4d565b9050811015611cf6578560a00151828281614ef7615c4d565b8110614eff57fe5b90600052602060002090600a0201600501614f18615c4d565b1415614fd55784828281614f2a615c4d565b8110614f3257fe5b90600052602060002090600a02016002018190614f4d615ca8565b50505083828281614f5c615c4d565b8110614f6457fe5b90600052602060002090600a02016008018190614f7f615ca8565b50505082828281614f8e615c4d565b8110614f9657fe5b9060005260206000206009600a9092020101600181614fb3615c4d565b8164ffffffffff021916908364ffffffffff16021790614fd1615ca8565b5050505b600101614ed4565b614fe5615e87565b600060168185516001600160a01b03166001600160a01b03168152602001908152602001600020905060005b818061501b615c4d565b90508110156149f0578460a00151828281615034615c4d565b811061503c57fe5b90600052602060002090600a0201600501615055615c4d565b14156151905783828281615067615c4d565b811061506f57fe5b90600052602060002090600a0201600101819061508a615ca8565b505050818181615098615c4d565b81106150a057fe5b90600052602060002090600a0201604051610140810160405290816000826150c6615c4d565b6001600160a01b036101009290920a9004168152602001600182016150e9615c4d565b8152602001600282016150fa615c4d565b81526020016003820161510b615c4d565b81526020016004820161511c615c4d565b81526020016005820161512d615c4d565b81526020016006820161513e615c4d565b81526020016007820161514f615c4d565b815260200160088201615160615c4d565b8152602001600060098301615173615c4d565b64ffffffffff6101009290920a9004169052509250611e33915050565b600101615011565b6000613c57826151b685670de0b6b3a764000063ffffffff61534316565b9063ffffffff6152d116565b600080600083610120015164ffffffffff16116151e35782608001516151f1565b82610120015164ffffffffff165b905060008360c00151116152115761520c815a614e02615cf6565b613c57565b613c57818460c001519063ffffffff614e4316565b6000611e33600b615235615c4d565b839063ffffffff6153a216565b6000615253600160156118e9615c4d565b80601561525e615ca8565b505050615270600160146118e9615c4d565b80601461527b615ca8565b505050601461402a615c4d565b600061402a66119959541bdbdb60ca1b60405160408082019052601781527f4d697373696e6720466565506f6f6c206164647265737300000000000000000060208201526159e2565b600080821161532f5760405162461bcd60e51b815260206004820152601a60248201527f536166654d6174683a206469766973696f6e206279207a65726f00000000000060448201526064016040518091039061532c615be2565b50505b600082848161533a57fe5b04949350505050565b60008261535257506000611e33565b8282028284828161535f57fe5b0414613c575760405162461bcd60e51b81526004018080602001828103825260218152602001806161ef6021913960400191505060405180910390614c27615be2565b6000613c578383670de0b6b3a7640000615aab565b6000613c578383670de0b6b3a7640000615ae8565b6153d46147b7565b6001600160a01b0316637c3125416040518163ffffffff1660e01b81526004016000604051808303818680615407615d3c565b15801561541c57600080615419615be2565b50505b505a615426615d88565b5050505050158015615445573d6000803e3d6000615442615be2565b50505b50505050615451615e87565b61545b8484614850565b9050615466816149f8565b600061548561392683610100015184604001519063ffffffff614bc816565b9050600061549e8284604001519063ffffffff614bc816565b905060006154b8838561010001519063ffffffff614bc816565b9050816154c3614805565b6001600160a01b03166370a082315a6154da615e41565b6040516001600160e01b031960e084901b1681526001600160a01b0390911660048201526024016020604051808303818680615514615d3c565b15801561552957600080615526615be2565b50505b505a615533615d88565b5050505050158015615552573d6000803e3d600061554f615be2565b50505b505050506040513d60208110156155715760008061556e615be2565b50505b810190808051939093101592506155c59150505760405162461bcd60e51b815260040180806020018281038252603e815260200180616271603e9139604001915050604051809103906155c2615be2565b50505b6155ce84615b0e565b6155f56155eb85610100015186604001519063ffffffff614e4316565b6013614e02615c4d565b806013615600615ca8565b50505061560b614805565b6001600160a01b0316639dc29fac5a615622615e41565b846040516001600160e01b031960e085901b1681526001600160a01b039092166004830152602482015260440160006040518083038160008780615664615d3c565b15801561567957600080615676615be2565b50505b505a615683615eea565b5050505050501580156156a3573d6000803e3d60006156a0615be2565b50505b505050506156af614805565b6001600160a01b031663867904b473feefeefeefeefeefeefeefeefeefeefeefeefeef836040516001600160e01b031960e085901b1681526001600160a01b039092166004830152602482015260440160006040518083038160008780615714615d3c565b15801561572957600080615726615be2565b50505b505a615733615eea565b505050505050158015615753573d6000803e3d6000615750615be2565b50505b5050505061575f615288565b6001600160a01b03166322bf55ef826040516001600160e01b031960e084901b1681526004810191909152602401600060405180830381600087806157a2615d3c565b1580156157b7576000806157b4615be2565b50505b505a6157c1615eea565b5050505050501580156157e1573d6000803e3d60006157de615be2565b50505b5050505060008460200151905085156159455760006157fe614768565b6001600160a01b031663654a60ac631cd554d160e21b866208aa8960eb1b6040516001600160e01b031960e086901b168152600481019390935260248301919091526044820152606401602060405180830381868061585b615d3c565b1580156158705760008061586d615be2565b50505b505a61587a615d88565b5050505050158015615899573d6000803e3d6000615896615be2565b50505b505050506040513d60208110156158b8576000806158b5615be2565b50505b8101908080519350600092506158d89150611b8590506012611ad2615c4d565b90506158ea838263ffffffff614e4316565b92505a6158f5615e41565b6001600160a01b031681156108fc028260405160006040518083038185888861591c615eea565b5050505050509350505050158015615941573d6000803e3d600061593e615be2565b50505b5050505b84516001600160a01b031681156108fc028260405160006040518083038185888861596e615eea565b5050505050509350505050158015615993573d6000803e3d6000615990615be2565b50505b50876001600160a01b03167f3cc9f5d298758bad94536f27fa6a3033c2793e0a387a2d78e72550a3b8dacf1e888460405191825260208201526040908101905180910390a25050505050505050565b6000828152600660205280604081206000906159fc615c4d565b6001600160a01b036101009290920a90041690508281615aa35760405162461bcd60e51b81526004018080602001828103825283818151815260200191508051906020019080838360005b83811015615a5f578082015183820152602001615a47565b50505050905090810190601f168015615a8c5780820380516001836020036101000a031916815260200191505b509250505060405180910390615aa0615be2565b50505b509392505050565b600080600a8304615ac2868663ffffffff61534316565b81615ac957fe5b0490506005600a825b0610615adc57600a015b600a9004949350505050565b600080615b02846151b687600a870263ffffffff61534316565b90506005600a82615ad2565b600060168183516001600160a01b03166001600160a01b03168152602001908152602001600020905060005b8180615b44615c4d565b9050811015615bc7578260a00151828281615b5d615c4d565b8110615b6557fe5b90600052602060002090600a0201600501615b7e615c4d565b1415615bbf575a615b8d615cf6565b828281615b98615c4d565b8110615ba057fe5b90600052602060002090600a02016006018190615bbb615ca8565b5050505b600101615b3a565b50615bd760016015614e02615c4d565b80601561326c615ca8565b632a2a7adb598160e01b8152600481016020815285602082015260005b86811015615c1a578086015182820160400152602001615bff565b506020828760640184336000905af158600e01573d6000803e3d6000fd5b3d6001141558600a015760016000f35b505050565b6303daa959598160e01b8152836004820152602081602483336000905af158600e01573d6000803e3d6000fd5b3d6001141558600a015760016000f35b8051935060005b604081101561326f57600082820152602001615c91565b6322bd64c0598160e01b8152836004820152846024820152600081604483336000905af158600e01573d6000803e3d6000fd5b3d6001141558600a015760016000f35b600081526020615c91565b63bdbf8c36598160e01b8152602081600483336000905af158600e01573d6000803e3d6000fd5b3d6001141558600a015760016000f35b80516000825293506020615c91565b638435035b598160e01b8152836004820152602081602483336000905af158600e01573d6000803e3d6000fd5b3d6001141558600a015760016000f35b80516000825293506020615c91565b638540661f598160e01b8152836004820152846024820152606060448201528660648201526084810160005b88811015615dcc578088015182820152602001615db4565b50876101040182016060838a6101040185336000905af158600e01573d6000803e3d6000fd5b3d6001141558600a015760016000f35b825160408401513d6000863e8c8c82606088013350600060045af15059855b81811015615e355760008152602001615e21565b50919c50505050505050565b6373509064598160e01b8152602081600483336000905af158600e01573d6000803e3d6000fd5b3d6001141558600a015760016000f35b80516000825293506020615c91565b60405180610140016040528060006001600160a01b031681526020016000815260200160008152602001600081526020016000815260200160008152602001600081526020016000815260200160008152602001600064ffffffffff1681525090565b6385979f76598160e01b8152836004820152846024820152606060448201528760648201526084810160005b89811015615f2e578089015182820152602001615f16565b50886101040182016060838b6101040185336000905af158600e01573d6000803e3d6000fd5b3d6001141558600a015760016000f35b825160408401513d6000863e8d8d82606088013350600060045af15059855b81811015615f975760008152602001615f83565b50919d50505050505050565b63ffe73914598160e01b81528360048201528460248201526060604482015286606482015260848101600088811015615dcc578088015182820152602001615db4565b60405161030080820160405260189082908038833950919291505056fe436f6c6c61746572616c20726174696f2061626f7665206c69717569646174696f6e20726174696f436f6c6c61746572616c20726174696f2062656c6f77206c69717569646174696f6e2061667465722077697468647261775265656e7472616e637947756172643a207265656e7472616e742063616c6c00596f75206d757374206265206e6f6d696e61746564206265666f726520796f752063616e20616363657074206f776e6572736869704465706f73697420616d6f756e74206d7573742062652067726561746572207468616e20304c6f616e20616d6f756e742065786365656473206d617820626f72726f77696e6720706f776572416d6f756e7420746f207769746864726177206d7573742062652067726561746572207468616e2030426c6f636b656420617320455448207261746520697320696e76616c696400004f776e65722063616e6e6f742073657420686967686572207468616e204143434f554e545f4c4f414e5f4c494d49545f4341504c6f616e20416d6f756e7420657863656564732074686520737570706c79206361702e45616368206163636f756e74206973206c696d6974656420746f203530206c6f616e734f6e6c792074686520636f6e7472616374206f776e6572206d617920706572666f726d207468697320616374696f6e536166654d6174683a206d756c7469706c69636174696f6e206f766572666c6f775468697320616374696f6e2063616e6e6f7420626520706572666f726d6564207768696c652074686520636f6e747261637420697320706175736564496e7465726573742063616e6e6f74206265206d6f7265207468616e203130302520415052596f7520646f206e6f742068617665207468652072657175697265642053796e74682062616c616e636520746f20636c6f73652074686973206c6f616e2e496e74657265737420726174652063616e6e6f74206265206c657373207468617420746865205345434f4e44535f494e5f415f594541524e6f7420656e6f7567682045544820746f206372656174652074686973206c6f616e2e20506c656173652073656520746865206d696e4c6f616e436f6c6c61746572616c53697a65",
			"opcodes": "PUSH1 0x80 PUSH1 0x40 MSTORE PUSH20 0x0 PUSH4 0x907AF6C0 PUSH1 0x40 MLOAD DUP2 PUSH4 0xFFFFFFFF AND PUSH1 0xE0 SHL DUP2 MSTORE PUSH1 0x4 ADD PUSH1 0x20 PUSH1 0x40 MLOAD DUP1 DUP4 SUB DUP2 DUP7 DUP1 PUSH3 0x45 PUSH3 0xA5E JUMP JUMPDEST ISZERO DUP1 ISZERO PUSH3 0x5D JUMPI PUSH1 0x0 DUP1 PUSH3 0x5A PUSH3 0xAC0 JUMP JUMPDEST POP POP JUMPDEST POP GAS PUSH3 0x69 PUSH3 0xB2D JUMP JUMPDEST POP POP POP POP POP ISZERO DUP1 ISZERO PUSH3 0x8B JUMPI RETURNDATASIZE PUSH1 0x0 DUP1 RETURNDATACOPY RETURNDATASIZE PUSH1 0x0 PUSH3 0x88 PUSH3 0xAC0 JUMP JUMPDEST POP POP JUMPDEST POP POP POP POP PUSH1 0x40 MLOAD RETURNDATASIZE PUSH1 0x20 DUP2 LT ISZERO PUSH3 0xAD JUMPI PUSH1 0x0 DUP1 PUSH3 0xAA PUSH3 0xAC0 JUMP JUMPDEST POP POP JUMPDEST DUP2 ADD SWAP1 DUP1 DUP1 MLOAD PUSH1 0x96 MUL SWAP3 POP PUSH1 0x8 SWAP2 POP PUSH3 0xC8 SWAP1 POP PUSH3 0xBEA JUMP JUMPDEST POP POP PUSH1 0x64 PUSH20 0x0 PUSH4 0x907AF6C0 PUSH1 0x40 MLOAD DUP2 PUSH4 0xFFFFFFFF AND PUSH1 0xE0 SHL DUP2 MSTORE PUSH1 0x4 ADD PUSH1 0x20 PUSH1 0x40 MLOAD DUP1 DUP4 SUB DUP2 DUP7 DUP1 PUSH3 0x10D PUSH3 0xA5E JUMP JUMPDEST ISZERO DUP1 ISZERO PUSH3 0x125 JUMPI PUSH1 0x0 DUP1 PUSH3 0x122 PUSH3 0xAC0 JUMP JUMPDEST POP POP JUMPDEST POP GAS PUSH3 0x131 PUSH3 0xB2D JUMP JUMPDEST POP POP POP POP POP ISZERO DUP1 ISZERO PUSH3 0x153 JUMPI RETURNDATASIZE PUSH1 0x0 DUP1 RETURNDATACOPY RETURNDATASIZE PUSH1 0x0 PUSH3 0x150 PUSH3 0xAC0 JUMP JUMPDEST POP POP JUMPDEST POP POP POP POP PUSH1 0x40 MLOAD RETURNDATASIZE PUSH1 0x20 DUP2 LT ISZERO PUSH3 0x175 JUMPI PUSH1 0x0 DUP1 PUSH3 0x172 PUSH3 0xAC0 JUMP JUMPDEST POP POP JUMPDEST DUP2 ADD SWAP1 DUP1 DUP1 MLOAD PUSH1 0x5 MUL SWAP3 POP DUP4 SWAP2 POP PUSH3 0x18C SWAP1 POP JUMPI INVALID JUMPDEST DIV PUSH1 0x9 PUSH3 0x199 PUSH3 0xBEA JUMP JUMPDEST POP POP PUSH3 0x1C4 PUSH4 0x1E13380 PUSH1 0x9 PUSH3 0x1B0 PUSH3 0xC39 JUMP JUMPDEST PUSH3 0x9E8 PUSH1 0x20 SHL PUSH3 0x52D1 OR SWAP1 SWAP2 SWAP1 PUSH1 0x20 SHR JUMP JUMPDEST PUSH1 0xA PUSH3 0x1D0 PUSH3 0xBEA JUMP JUMPDEST POP POP PUSH2 0x3E8 PUSH20 0x0 PUSH4 0x907AF6C0 PUSH1 0x40 MLOAD DUP2 PUSH4 0xFFFFFFFF AND PUSH1 0xE0 SHL DUP2 MSTORE PUSH1 0x4 ADD PUSH1 0x20 PUSH1 0x40 MLOAD DUP1 DUP4 SUB DUP2 DUP7 DUP1 PUSH3 0x216 PUSH3 0xA5E JUMP JUMPDEST ISZERO DUP1 ISZERO PUSH3 0x22E JUMPI PUSH1 0x0 DUP1 PUSH3 0x22B PUSH3 0xAC0 JUMP JUMPDEST POP POP JUMPDEST POP GAS PUSH3 0x23A PUSH3 0xB2D JUMP JUMPDEST POP POP POP POP POP ISZERO DUP1 ISZERO PUSH3 0x25C JUMPI RETURNDATASIZE PUSH1 0x0 DUP1 RETURNDATACOPY RETURNDATASIZE PUSH1 0x0 PUSH3 0x259 PUSH3 0xAC0 JUMP JUMPDEST POP POP JUMPDEST POP POP POP POP PUSH1 0x40 MLOAD RETURNDATASIZE PUSH1 0x20 DUP2 LT ISZERO PUSH3 0x27E JUMPI PUSH1 0x0 DUP1 PUSH3 0x27B PUSH3 0xAC0 JUMP JUMPDEST POP POP JUMPDEST DUP2 ADD SWAP1 DUP1 DUP1 MLOAD PUSH1 0x5 MUL SWAP3 POP DUP4 SWAP2 POP PUSH3 0x295 SWAP1 POP JUMPI INVALID JUMPDEST DIV PUSH1 0xB PUSH3 0x2A2 PUSH3 0xBEA JUMP JUMPDEST POP POP PUSH20 0x0 PUSH4 0x907AF6C0 PUSH1 0x40 MLOAD DUP2 PUSH4 0xFFFFFFFF AND PUSH1 0xE0 SHL DUP2 MSTORE PUSH1 0x4 ADD PUSH1 0x20 PUSH1 0x40 MLOAD DUP1 DUP4 SUB DUP2 DUP7 DUP1 PUSH3 0x2E5 PUSH3 0xA5E JUMP JUMPDEST ISZERO DUP1 ISZERO PUSH3 0x2FD JUMPI PUSH1 0x0 DUP1 PUSH3 0x2FA PUSH3 0xAC0 JUMP JUMPDEST POP POP JUMPDEST POP GAS PUSH3 0x309 PUSH3 0xB2D JUMP JUMPDEST POP POP POP POP POP ISZERO DUP1 ISZERO PUSH3 0x32B JUMPI RETURNDATASIZE PUSH1 0x0 DUP1 RETURNDATACOPY RETURNDATASIZE PUSH1 0x0 PUSH3 0x328 PUSH3 0xAC0 JUMP JUMPDEST POP POP JUMPDEST POP POP POP POP PUSH1 0x40 MLOAD RETURNDATASIZE PUSH1 0x20 DUP2 LT ISZERO PUSH3 0x34D JUMPI PUSH1 0x0 DUP1 PUSH3 0x34A PUSH3 0xAC0 JUMP JUMPDEST POP POP JUMPDEST DUP2 ADD SWAP1 DUP1 DUP1 MLOAD PUSH3 0x989680 MUL SWAP3 POP PUSH1 0xC SWAP2 POP PUSH3 0x36A SWAP1 POP PUSH3 0xBEA JUMP JUMPDEST POP POP PUSH20 0x0 PUSH4 0x907AF6C0 PUSH1 0x40 MLOAD DUP2 PUSH4 0xFFFFFFFF AND PUSH1 0xE0 SHL DUP2 MSTORE PUSH1 0x4 ADD PUSH1 0x20 PUSH1 0x40 MLOAD DUP1 DUP4 SUB DUP2 DUP7 DUP1 PUSH3 0x3AD PUSH3 0xA5E JUMP JUMPDEST ISZERO DUP1 ISZERO PUSH3 0x3C5 JUMPI PUSH1 0x0 DUP1 PUSH3 0x3C2 PUSH3 0xAC0 JUMP JUMPDEST POP POP JUMPDEST POP GAS PUSH3 0x3D1 PUSH3 0xB2D JUMP JUMPDEST POP POP POP POP POP ISZERO DUP1 ISZERO PUSH3 0x3F3 JUMPI RETURNDATASIZE PUSH1 0x0 DUP1 RETURNDATACOPY RETURNDATASIZE PUSH1 0x0 PUSH3 0x3F0 PUSH3 0xAC0 JUMP JUMPDEST POP POP JUMPDEST POP POP POP POP PUSH1 0x40 MLOAD RETURNDATASIZE PUSH1 0x20 DUP2 LT ISZERO PUSH3 0x415 JUMPI PUSH1 0x0 DUP1 PUSH3 0x412 PUSH3 0xAC0 JUMP JUMPDEST POP POP JUMPDEST DUP2 ADD SWAP1 DUP1 DUP1 MLOAD SWAP3 POP PUSH1 0xD SWAP2 POP PUSH3 0x42D SWAP1 POP PUSH3 0xBEA JUMP JUMPDEST POP POP PUSH1 0x32 PUSH1 0xE PUSH3 0x43D PUSH3 0xBEA JUMP JUMPDEST POP PUSH1 0x0 SWAP1 POP PUSH1 0xF PUSH1 0x1 DUP2 PUSH3 0x451 PUSH3 0xC39 JUMP JUMPDEST DUP2 PUSH1 0xFF MUL NOT AND SWAP1 DUP4 ISZERO ISZERO MUL OR SWAP1 PUSH3 0x468 PUSH3 0xBEA JUMP JUMPDEST POP POP POP PUSH1 0x64 PUSH20 0x0 PUSH4 0x907AF6C0 PUSH1 0x40 MLOAD DUP2 PUSH4 0xFFFFFFFF AND PUSH1 0xE0 SHL DUP2 MSTORE PUSH1 0x4 ADD PUSH1 0x20 PUSH1 0x40 MLOAD DUP1 DUP4 SUB DUP2 DUP7 DUP1 PUSH3 0x4AE PUSH3 0xA5E JUMP JUMPDEST ISZERO DUP1 ISZERO PUSH3 0x4C6 JUMPI PUSH1 0x0 DUP1 PUSH3 0x4C3 PUSH3 0xAC0 JUMP JUMPDEST POP POP JUMPDEST POP GAS PUSH3 0x4D2 PUSH3 0xB2D JUMP JUMPDEST POP POP POP POP POP ISZERO DUP1 ISZERO PUSH3 0x4F4 JUMPI RETURNDATASIZE PUSH1 0x0 DUP1 RETURNDATACOPY RETURNDATASIZE PUSH1 0x0 PUSH3 0x4F1 PUSH3 0xAC0 JUMP JUMPDEST POP POP JUMPDEST POP POP POP POP PUSH1 0x40 MLOAD RETURNDATASIZE PUSH1 0x20 DUP2 LT ISZERO PUSH3 0x516 JUMPI PUSH1 0x0 DUP1 PUSH3 0x513 PUSH3 0xAC0 JUMP JUMPDEST POP POP JUMPDEST DUP2 ADD SWAP1 DUP1 DUP1 MLOAD PUSH1 0x96 MUL SWAP3 POP DUP4 SWAP2 POP PUSH3 0x52D SWAP1 POP JUMPI INVALID JUMPDEST DIV PUSH1 0x11 PUSH3 0x53A PUSH3 0xBEA JUMP JUMPDEST POP POP PUSH1 0xA PUSH20 0x0 PUSH4 0x907AF6C0 PUSH1 0x40 MLOAD DUP2 PUSH4 0xFFFFFFFF AND PUSH1 0xE0 SHL DUP2 MSTORE PUSH1 0x4 ADD PUSH1 0x20 PUSH1 0x40 MLOAD DUP1 DUP4 SUB DUP2 DUP7 DUP1 PUSH3 0x57F PUSH3 0xA5E JUMP JUMPDEST ISZERO DUP1 ISZERO PUSH3 0x597 JUMPI PUSH1 0x0 DUP1 PUSH3 0x594 PUSH3 0xAC0 JUMP JUMPDEST POP POP JUMPDEST POP GAS PUSH3 0x5A3 PUSH3 0xB2D JUMP JUMPDEST POP POP POP POP POP ISZERO DUP1 ISZERO PUSH3 0x5C5 JUMPI RETURNDATASIZE PUSH1 0x0 DUP1 RETURNDATACOPY RETURNDATASIZE PUSH1 0x0 PUSH3 0x5C2 PUSH3 0xAC0 JUMP JUMPDEST POP POP JUMPDEST POP POP POP POP PUSH1 0x40 MLOAD RETURNDATASIZE PUSH1 0x20 DUP2 LT ISZERO PUSH3 0x5E7 JUMPI PUSH1 0x0 DUP1 PUSH3 0x5E4 PUSH3 0xAC0 JUMP JUMPDEST POP POP JUMPDEST DUP2 ADD SWAP1 DUP1 DUP1 MLOAD SWAP3 POP DUP4 SWAP2 POP PUSH3 0x5FB SWAP1 POP JUMPI INVALID JUMPDEST DIV PUSH1 0x12 PUSH3 0x608 PUSH3 0xBEA JUMP JUMPDEST POP POP PUSH1 0x40 MLOAD PUSH1 0x80 DUP2 ADD PUSH1 0x40 SWAP1 DUP2 MSTORE PUSH12 0x53797374656D537461747573 PUSH1 0xA0 SHL DUP3 MSTORE PUSH9 0x14DE5B9D1A1CD554D1 PUSH1 0xBA SHL PUSH1 0x20 DUP4 ADD MSTORE PUSH13 0x45786368616E67655261746573 PUSH1 0x98 SHL SWAP1 DUP3 ADD MSTORE PUSH7 0x119959541BDBDB PUSH1 0xCA SHL PUSH1 0x60 DUP3 ADD MSTORE PUSH3 0x66F SWAP1 PUSH1 0x18 SWAP1 PUSH1 0x4 PUSH3 0xC86 JUMP JUMPDEST POP CALLVALUE DUP1 ISZERO PUSH3 0x688 JUMPI PUSH1 0x0 DUP1 PUSH3 0x685 PUSH3 0xAC0 JUMP JUMPDEST POP POP JUMPDEST POP PUSH1 0x40 MLOAD PUSH3 0x7086 CODESIZE SUB DUP1 PUSH3 0x7086 DUP4 CODECOPY DUP2 DUP2 ADD PUSH1 0x40 MSTORE PUSH1 0x40 DUP2 LT ISZERO PUSH3 0x6B9 JUMPI PUSH1 0x0 DUP1 PUSH3 0x6B6 PUSH3 0xAC0 JUMP JUMPDEST POP POP JUMPDEST DUP2 ADD SWAP1 DUP1 DUP1 MLOAD SWAP3 SWAP2 SWAP1 PUSH1 0x20 ADD DUP1 MLOAD SWAP3 POP DUP3 SWAP2 POP PUSH1 0x18 SWAP1 POP DUP1 PUSH2 0x300 PUSH1 0x40 MLOAD SWAP1 DUP2 ADD PUSH1 0x40 MSTORE SWAP2 SWAP1 PUSH2 0x300 DUP4 ADD DUP3 DUP5 JUMPDEST DUP2 PUSH3 0x6F2 PUSH3 0xC39 JUMP JUMPDEST DUP2 MSTORE PUSH1 0x20 ADD SWAP1 PUSH1 0x1 ADD SWAP1 DUP1 DUP4 GT PUSH3 0x6E7 JUMPI POP DUP8 SWAP4 POP POP POP POP PUSH1 0x1 PUSH1 0x1 PUSH1 0xA0 SHL SUB DUP2 AND PUSH3 0x771 JUMPI PUSH1 0x40 MLOAD PUSH3 0x461BCD PUSH1 0xE5 SHL DUP2 MSTORE PUSH1 0x20 PUSH1 0x4 DUP3 ADD MSTORE PUSH1 0x19 PUSH1 0x24 DUP3 ADD MSTORE PUSH32 0x4F776E657220616464726573732063616E6E6F74206265203000000000000000 PUSH1 0x44 DUP3 ADD MSTORE PUSH1 0x64 ADD PUSH1 0x40 MLOAD DUP1 SWAP2 SUB SWAP1 PUSH3 0x76E PUSH3 0xAC0 JUMP JUMPDEST POP POP JUMPDEST DUP1 PUSH1 0x0 PUSH1 0x1 DUP2 PUSH3 0x781 PUSH3 0xC39 JUMP JUMPDEST DUP2 PUSH1 0x1 PUSH1 0x1 PUSH1 0xA0 SHL SUB MUL NOT AND SWAP1 DUP4 PUSH1 0x1 PUSH1 0x1 PUSH1 0xA0 SHL SUB AND MUL OR SWAP1 PUSH3 0x7A5 PUSH3 0xBEA JUMP JUMPDEST POP POP POP PUSH32 0xB532073B38C83145E3E5135377A08BF9AAB55BC0FD7C1179CD4FB995D2A5159C PUSH1 0x0 DUP3 PUSH1 0x40 MLOAD PUSH1 0x1 PUSH1 0x1 PUSH1 0xA0 SHL SUB SWAP3 DUP4 AND DUP2 MSTORE SWAP2 AND PUSH1 0x20 DUP3 ADD MSTORE PUSH1 0x40 SWAP1 DUP2 ADD SWAP1 MLOAD DUP1 SWAP2 SUB SWAP1 LOG1 POP PUSH1 0x0 DUP1 DUP1 PUSH3 0x7FE PUSH3 0xC39 JUMP JUMPDEST SWAP1 PUSH2 0x100 EXP SWAP1 DIV PUSH1 0x1 PUSH1 0x1 PUSH1 0xA0 SHL SUB AND PUSH1 0x1 PUSH1 0x1 PUSH1 0xA0 SHL SUB AND EQ ISZERO PUSH3 0x869 JUMPI PUSH1 0x40 MLOAD PUSH3 0x461BCD PUSH1 0xE5 SHL DUP2 MSTORE PUSH1 0x20 PUSH1 0x4 DUP3 ADD MSTORE PUSH1 0x11 PUSH1 0x24 DUP3 ADD MSTORE PUSH17 0x13DDDB995C881B5D5CDD081899481CD95D PUSH1 0x7A SHL PUSH1 0x44 DUP3 ADD MSTORE PUSH1 0x64 ADD PUSH1 0x40 MLOAD DUP1 SWAP2 SUB SWAP1 PUSH3 0x866 PUSH3 0xAC0 JUMP JUMPDEST POP POP JUMPDEST PUSH1 0x1 DUP1 PUSH1 0x4 PUSH3 0x878 PUSH3 0xBEA JUMP JUMPDEST POP PUSH1 0x0 SWAP2 POP DUP2 SWAP1 POP DUP1 PUSH3 0x88B PUSH3 0xC39 JUMP JUMPDEST SWAP1 PUSH2 0x100 EXP SWAP1 DIV PUSH1 0x1 PUSH1 0x1 PUSH1 0xA0 SHL SUB AND PUSH1 0x1 PUSH1 0x1 PUSH1 0xA0 SHL SUB AND EQ ISZERO PUSH3 0x8F6 JUMPI PUSH1 0x40 MLOAD PUSH3 0x461BCD PUSH1 0xE5 SHL DUP2 MSTORE PUSH1 0x20 PUSH1 0x4 DUP3 ADD MSTORE PUSH1 0x11 PUSH1 0x24 DUP3 ADD MSTORE PUSH17 0x13DDDB995C881B5D5CDD081899481CD95D PUSH1 0x7A SHL PUSH1 0x44 DUP3 ADD MSTORE PUSH1 0x64 ADD PUSH1 0x40 MLOAD DUP1 SWAP2 SUB SWAP1 PUSH3 0x8F3 PUSH3 0xAC0 JUMP JUMPDEST POP POP JUMPDEST PUSH1 0x0 JUMPDEST PUSH1 0x18 DUP2 LT ISZERO PUSH3 0x986 JUMPI PUSH1 0x0 DUP3 DUP3 PUSH1 0x18 DUP2 LT PUSH3 0x912 JUMPI INVALID JUMPDEST PUSH1 0x20 MUL ADD MLOAD EQ PUSH3 0x977 JUMPI PUSH1 0x7 DUP3 DUP3 PUSH1 0x18 DUP2 LT PUSH3 0x92C JUMPI INVALID JUMPDEST PUSH1 0x20 MUL ADD MLOAD SWAP1 DUP1 PUSH1 0x1 DUP2 PUSH3 0x940 PUSH3 0xC39 JUMP JUMPDEST ADD DUP1 DUP3 PUSH3 0x94D PUSH3 0xBEA JUMP JUMPDEST POP POP PUSH1 0x0 SWAP3 DUP4 MSTORE SWAP2 PUSH1 0x0 NOT DUP4 ADD SWAP2 POP PUSH1 0x20 SWAP1 KECCAK256 SWAP2 SWAP3 SWAP2 ADD PUSH3 0x96E PUSH3 0xBEA JUMP JUMPDEST POP POP POP PUSH3 0x97D JUMP JUMPDEST PUSH3 0x986 JUMP JUMPDEST PUSH1 0x1 ADD PUSH3 0x8F9 JUMP JUMPDEST POP DUP2 PUSH1 0x5 PUSH1 0x1 DUP2 PUSH3 0x997 PUSH3 0xC39 JUMP JUMPDEST DUP2 PUSH1 0x1 PUSH1 0x1 PUSH1 0xA0 SHL SUB MUL NOT AND SWAP1 DUP4 PUSH1 0x1 PUSH1 0x1 PUSH1 0xA0 SHL SUB AND MUL OR SWAP1 PUSH3 0x9BB PUSH3 0xBEA JUMP JUMPDEST POP POP POP POP POP GAS PUSH3 0x9CB PUSH3 0xCD4 JUMP JUMPDEST PUSH3 0x794A00 ADD DUP1 PUSH1 0x10 PUSH3 0x9DD PUSH3 0xBEA JUMP JUMPDEST POP POP POP POP POP PUSH3 0xD48 JUMP JUMPDEST PUSH1 0x0 DUP1 DUP3 GT PUSH3 0xA49 JUMPI PUSH1 0x40 MLOAD PUSH3 0x461BCD PUSH1 0xE5 SHL DUP2 MSTORE PUSH1 0x20 PUSH1 0x4 DUP3 ADD MSTORE PUSH1 0x1A PUSH1 0x24 DUP3 ADD MSTORE PUSH32 0x536166654D6174683A206469766973696F6E206279207A65726F000000000000 PUSH1 0x44 DUP3 ADD MSTORE PUSH1 0x64 ADD PUSH1 0x40 MLOAD DUP1 SWAP2 SUB SWAP1 PUSH3 0xA46 PUSH3 0xAC0 JUMP JUMPDEST POP POP JUMPDEST PUSH1 0x0 DUP3 DUP5 DUP2 PUSH3 0xA55 JUMPI INVALID JUMPDEST DIV SWAP5 SWAP4 POP POP POP POP JUMP JUMPDEST PUSH4 0x8435035B MSIZE DUP2 PUSH1 0xE0 SHL DUP2 MSTORE DUP4 PUSH1 0x4 DUP3 ADD MSTORE PUSH1 0x20 DUP2 PUSH1 0x24 DUP4 CALLER PUSH1 0x0 SWAP1 GAS CALL PC PUSH1 0xE ADD JUMPI RETURNDATASIZE PUSH1 0x0 DUP1 RETURNDATACOPY RETURNDATASIZE PUSH1 0x0 REVERT JUMPDEST RETURNDATASIZE PUSH1 0x1 EQ ISZERO PC PUSH1 0xA ADD JUMPI PUSH1 0x1 PUSH1 0x0 RETURN JUMPDEST DUP1 MLOAD SWAP4 POP PUSH1 0x0 JUMPDEST PUSH1 0x40 DUP2 LT ISZERO PUSH3 0xABB JUMPI PUSH1 0x0 DUP3 DUP3 ADD MSTORE PUSH1 0x20 ADD PUSH3 0xAA2 JUMP JUMPDEST POP POP POP JUMP JUMPDEST PUSH4 0x2A2A7ADB MSIZE DUP2 PUSH1 0xE0 SHL DUP2 MSTORE PUSH1 0x4 DUP2 ADD PUSH1 0x20 DUP2 MSTORE DUP6 PUSH1 0x20 DUP3 ADD MSTORE PUSH1 0x0 JUMPDEST DUP7 DUP2 LT ISZERO PUSH3 0xAFA JUMPI DUP1 DUP7 ADD MLOAD DUP3 DUP3 ADD PUSH1 0x40 ADD MSTORE PUSH1 0x20 ADD PUSH3 0xADD JUMP JUMPDEST POP PUSH1 0x20 DUP3 DUP8 PUSH1 0x64 ADD DUP5 CALLER PUSH1 0x0 SWAP1 GAS CALL PC PUSH1 0xE ADD JUMPI RETURNDATASIZE PUSH1 0x0 DUP1 RETURNDATACOPY RETURNDATASIZE PUSH1 0x0 REVERT JUMPDEST RETURNDATASIZE PUSH1 0x1 EQ ISZERO PC PUSH1 0xA ADD JUMPI PUSH1 0x1 PUSH1 0x0 RETURN JUMPDEST POP POP POP JUMP JUMPDEST PUSH4 0xFFE73914 MSIZE DUP2 PUSH1 0xE0 SHL DUP2 MSTORE DUP4 PUSH1 0x4 DUP3 ADD MSTORE DUP5 PUSH1 0x24 DUP3 ADD MSTORE PUSH1 0x60 PUSH1 0x44 DUP3 ADD MSTORE DUP7 PUSH1 0x64 DUP3 ADD MSTORE PUSH1 0x84 DUP2 ADD PUSH1 0x0 JUMPDEST DUP9 DUP2 LT ISZERO PUSH3 0xB73 JUMPI DUP1 DUP9 ADD MLOAD DUP3 DUP3 ADD MSTORE PUSH1 0x20 ADD PUSH3 0xB59 JUMP JUMPDEST POP DUP8 PUSH2 0x104 ADD DUP3 ADD PUSH1 0x60 DUP4 DUP11 PUSH2 0x104 ADD DUP6 CALLER PUSH1 0x0 SWAP1 GAS CALL PC PUSH1 0xE ADD JUMPI RETURNDATASIZE PUSH1 0x0 DUP1 RETURNDATACOPY RETURNDATASIZE PUSH1 0x0 REVERT JUMPDEST RETURNDATASIZE PUSH1 0x1 EQ ISZERO PC PUSH1 0xA ADD JUMPI PUSH1 0x1 PUSH1 0x0 RETURN JUMPDEST DUP3 MLOAD PUSH1 0x40 DUP5 ADD MLOAD RETURNDATASIZE PUSH1 0x0 DUP7 RETURNDATACOPY DUP13 DUP13 DUP3 PUSH1 0x60 DUP9 ADD CALLER POP PUSH1 0x0 PUSH1 0x4 GAS CALL POP MSIZE DUP6 JUMPDEST DUP2 DUP2 LT ISZERO PUSH3 0xBDE JUMPI PUSH1 0x0 DUP2 MSTORE PUSH1 0x20 ADD PUSH3 0xBC8 JUMP JUMPDEST POP SWAP2 SWAP13 POP POP POP POP POP POP POP JUMP JUMPDEST PUSH4 0x22BD64C0 MSIZE DUP2 PUSH1 0xE0 SHL DUP2 MSTORE DUP4 PUSH1 0x4 DUP3 ADD MSTORE DUP5 PUSH1 0x24 DUP3 ADD MSTORE PUSH1 0x0 DUP2 PUSH1 0x44 DUP4 CALLER PUSH1 0x0 SWAP1 GAS CALL PC PUSH1 0xE ADD JUMPI RETURNDATASIZE PUSH1 0x0 DUP1 RETURNDATACOPY RETURNDATASIZE PUSH1 0x0 REVERT JUMPDEST RETURNDATASIZE PUSH1 0x1 EQ ISZERO PC PUSH1 0xA ADD JUMPI PUSH1 0x1 PUSH1 0x0 RETURN JUMPDEST PUSH1 0x0 DUP2 MSTORE PUSH1 0x20 PUSH3 0xAA2 JUMP JUMPDEST PUSH4 0x3DAA959 MSIZE DUP2 PUSH1 0xE0 SHL DUP2 MSTORE DUP4 PUSH1 0x4 DUP3 ADD MSTORE PUSH1 0x20 DUP2 PUSH1 0x24 DUP4 CALLER PUSH1 0x0 SWAP1 GAS CALL PC PUSH1 0xE ADD JUMPI RETURNDATASIZE PUSH1 0x0 DUP1 RETURNDATACOPY RETURNDATASIZE PUSH1 0x0 REVERT JUMPDEST RETURNDATASIZE PUSH1 0x1 EQ ISZERO PC PUSH1 0xA ADD JUMPI PUSH1 0x1 PUSH1 0x0 RETURN JUMPDEST DUP1 MLOAD PUSH1 0x0 DUP3 MSTORE SWAP4 POP PUSH1 0x20 PUSH3 0xAA2 JUMP JUMPDEST DUP3 PUSH1 0x18 DUP2 ADD SWAP3 DUP3 ISZERO PUSH3 0xCC2 JUMPI SWAP2 PUSH1 0x20 MUL DUP3 ADD JUMPDEST DUP3 DUP2 GT ISZERO PUSH3 0xCC2 JUMPI DUP3 MLOAD DUP3 PUSH3 0xCB0 PUSH3 0xBEA JUMP JUMPDEST POP POP SWAP2 PUSH1 0x20 ADD SWAP2 SWAP1 PUSH1 0x1 ADD SWAP1 PUSH3 0xC9A JUMP JUMPDEST POP PUSH3 0xCD0 SWAP3 SWAP2 POP PUSH3 0xD1B JUMP JUMPDEST POP SWAP1 JUMP JUMPDEST PUSH4 0xBDBF8C36 MSIZE DUP2 PUSH1 0xE0 SHL DUP2 MSTORE PUSH1 0x20 DUP2 PUSH1 0x4 DUP4 CALLER PUSH1 0x0 SWAP1 GAS CALL PC PUSH1 0xE ADD JUMPI RETURNDATASIZE PUSH1 0x0 DUP1 RETURNDATACOPY RETURNDATASIZE PUSH1 0x0 REVERT JUMPDEST RETURNDATASIZE PUSH1 0x1 EQ ISZERO PC PUSH1 0xA ADD JUMPI PUSH1 0x1 PUSH1 0x0 RETURN JUMPDEST DUP1 MLOAD PUSH1 0x0 DUP3 MSTORE SWAP4 POP PUSH1 0x20 PUSH3 0xAA2 JUMP JUMPDEST PUSH3 0xD45 SWAP2 SWAP1 JUMPDEST DUP1 DUP3 GT ISZERO PUSH3 0xCD0 JUMPI PUSH1 0x0 DUP1 DUP3 PUSH3 0xD39 PUSH3 0xBEA JUMP JUMPDEST POP POP POP PUSH1 0x1 ADD PUSH3 0xD22 JUMP JUMPDEST SWAP1 JUMP JUMPDEST PUSH2 0x632E DUP1 PUSH3 0xD58 PUSH1 0x0 CODECOPY PUSH1 0x0 RETURN INVALID PUSH1 0x80 PUSH1 0x40 MSTORE PUSH1 0x4 CALLDATASIZE LT PUSH2 0x381 JUMPI PUSH1 0x0 CALLDATALOAD PUSH1 0xE0 SHR DUP1 PUSH4 0x7C3A00FD GT PUSH2 0x1D1 JUMPI DUP1 PUSH4 0xAB49848C GT PUSH2 0x102 JUMPI DUP1 PUSH4 0xE3235C91 GT PUSH2 0xA0 JUMPI DUP1 PUSH4 0xEE5F3F5C GT PUSH2 0x6F JUMPI DUP1 PUSH4 0xEE5F3F5C EQ PUSH2 0x1048 JUMPI DUP1 PUSH4 0xEEA8F5DA EQ PUSH2 0x1066 JUMPI DUP1 PUSH4 0xF45F08FB EQ PUSH2 0x1084 JUMPI DUP1 PUSH4 0xF53DFB84 EQ PUSH2 0x10CF JUMPI PUSH2 0x381 JUMP JUMPDEST DUP1 PUSH4 0xE3235C91 EQ PUSH2 0xFB2 JUMPI DUP1 PUSH4 0xE3C1E58C EQ PUSH2 0xFD0 JUMPI DUP1 PUSH4 0xE40108ED EQ PUSH2 0xFEE JUMPI DUP1 PUSH4 0xE5829D20 EQ PUSH2 0x100C JUMPI PUSH2 0x381 JUMP JUMPDEST DUP1 PUSH4 0xC6C9D828 GT PUSH2 0xDC JUMPI DUP1 PUSH4 0xC6C9D828 EQ PUSH2 0xED1 JUMPI DUP1 PUSH4 0xD05951A0 EQ PUSH2 0xF0D JUMPI DUP1 PUSH4 0xDCAF9C44 EQ PUSH2 0xF49 JUMPI DUP1 PUSH4 0xE220A811 EQ PUSH2 0xF67 JUMPI PUSH2 0x381 JUMP JUMPDEST DUP1 PUSH4 0xAB49848C EQ PUSH2 0xE1E JUMPI DUP1 PUSH4 0xB410A034 EQ PUSH2 0xE75 JUMPI DUP1 PUSH4 0xBB8C6D6C EQ PUSH2 0xE93 JUMPI PUSH2 0x381 JUMP JUMPDEST DUP1 PUSH4 0x946CE8CD GT PUSH2 0x16F JUMPI DUP1 PUSH4 0xA2E17342 GT PUSH2 0x149 JUMPI DUP1 PUSH4 0xA2E17342 EQ PUSH2 0xCBA JUMPI DUP1 PUSH4 0xA5D5DB0C EQ PUSH2 0xCFC JUMPI DUP1 PUSH4 0xA76CDFA5 EQ PUSH2 0xD31 JUMPI DUP1 PUSH4 0xAA754A2A EQ PUSH2 0xD6D JUMPI PUSH2 0x381 JUMP JUMPDEST DUP1 PUSH4 0x946CE8CD EQ PUSH2 0xBC4 JUMPI DUP1 PUSH4 0x9F7D5688 EQ PUSH2 0xC00 JUMPI DUP1 PUSH4 0xA1C51586 EQ PUSH2 0xC1E JUMPI PUSH2 0x381 JUMP JUMPDEST DUP1 PUSH4 0x89C937DE GT PUSH2 0x1AB JUMPI DUP1 PUSH4 0x89C937DE EQ PUSH2 0xB01 JUMPI DUP1 PUSH4 0x8DA5CB5B EQ PUSH2 0xB4C JUMPI DUP1 PUSH4 0x8FDC8F3B EQ PUSH2 0xB6A JUMPI DUP1 PUSH4 0x91B4DED9 EQ PUSH2 0xBA6 JUMPI PUSH2 0x381 JUMP JUMPDEST DUP1 PUSH4 0x7C3A00FD EQ PUSH2 0xA09 JUMPI DUP1 PUSH4 0x7CC1F867 EQ PUSH2 0xA27 JUMPI DUP1 PUSH4 0x80A5D3D8 EQ PUSH2 0xAB0 JUMPI PUSH2 0x381 JUMP JUMPDEST DUP1 PUSH4 0x3BE99E6F GT PUSH2 0x2B6 JUMPI DUP1 PUSH4 0x5C975ABB GT PUSH2 0x254 JUMPI DUP1 PUSH4 0x631E1444 GT PUSH2 0x223 JUMPI DUP1 PUSH4 0x631E1444 EQ PUSH2 0x946 JUMPI DUP1 PUSH4 0x675969BE EQ PUSH2 0x98B JUMPI DUP1 PUSH4 0x767A7B05 EQ PUSH2 0x9A9 JUMPI DUP1 PUSH4 0x79BA5097 EQ PUSH2 0x9EB JUMPI PUSH2 0x381 JUMP JUMPDEST DUP1 PUSH4 0x5C975ABB EQ PUSH2 0x839 JUMPI DUP1 PUSH4 0x5D1A2229 EQ PUSH2 0x86B JUMPI DUP1 PUSH4 0x5F84F302 EQ PUSH2 0x8A7 JUMPI DUP1 PUSH4 0x60655BA7 EQ PUSH2 0x8E3 JUMPI PUSH2 0x381 JUMP JUMPDEST DUP1 PUSH4 0x4F069F66 GT PUSH2 0x290 JUMPI DUP1 PUSH4 0x4F069F66 EQ PUSH2 0x76E JUMPI DUP1 PUSH4 0x4F11815C EQ PUSH2 0x7AA JUMPI DUP1 PUSH4 0x53A47BB7 EQ PUSH2 0x7F5 JUMPI DUP1 PUSH4 0x54E3E70D EQ PUSH2 0x813 JUMPI PUSH2 0x381 JUMP JUMPDEST DUP1 PUSH4 0x3BE99E6F EQ PUSH2 0x6C0 JUMPI DUP1 PUSH4 0x4189BB49 EQ PUSH2 0x705 JUMPI DUP1 PUSH4 0x462B9725 EQ PUSH2 0x723 JUMPI PUSH2 0x381 JUMP JUMPDEST DUP1 PUSH4 0x23AA7F0F GT PUSH2 0x323 JUMPI DUP1 PUSH4 0x2F2BF15B GT PUSH2 0x2FD JUMPI DUP1 PUSH4 0x2F2BF15B EQ PUSH2 0x577 JUMPI DUP1 PUSH4 0x361E2086 EQ PUSH2 0x60F JUMPI DUP1 PUSH4 0x38458571 EQ PUSH2 0x62D JUMPI DUP1 PUSH4 0x39735E37 EQ PUSH2 0x67E JUMPI PUSH2 0x381 JUMP JUMPDEST DUP1 PUSH4 0x23AA7F0F EQ PUSH2 0x51D JUMPI DUP1 PUSH4 0x23F5589A EQ PUSH2 0x53B JUMPI DUP1 PUSH4 0x24BBAB8B EQ PUSH2 0x559 JUMPI PUSH2 0x381 JUMP JUMPDEST DUP1 PUSH4 0x1627540C GT PUSH2 0x35F JUMPI DUP1 PUSH4 0x1627540C EQ PUSH2 0x43E JUMPI DUP1 PUSH4 0x16C38B3C EQ PUSH2 0x485 JUMPI DUP1 PUSH4 0x1775765F EQ PUSH2 0x4C3 JUMPI DUP1 PUSH4 0x17DA255E EQ PUSH2 0x4E1 JUMPI PUSH2 0x381 JUMP JUMPDEST DUP1 PUSH4 0x4F3BCEC EQ PUSH2 0x38F JUMPI DUP1 PUSH4 0x89F7FB4 EQ PUSH2 0x3C9 JUMPI DUP1 PUSH4 0x1474B279 EQ PUSH2 0x420 JUMPI JUMPDEST PUSH1 0x0 DUP1 PUSH2 0x38C PUSH2 0x5BE2 JUMP JUMPDEST POP POP JUMPDEST CALLVALUE DUP1 ISZERO PUSH2 0x3A4 JUMPI PUSH1 0x0 DUP1 PUSH2 0x3A1 PUSH2 0x5BE2 JUMP JUMPDEST POP POP JUMPDEST POP PUSH2 0x3AD PUSH2 0x110B JUMP JUMPDEST PUSH1 0x40 MLOAD PUSH1 0x1 PUSH1 0x1 PUSH1 0xA0 SHL SUB SWAP1 SWAP2 AND DUP2 MSTORE PUSH1 0x20 ADD PUSH1 0x40 MLOAD DUP1 SWAP2 SUB SWAP1 RETURN JUMPDEST CALLVALUE DUP1 ISZERO PUSH2 0x3DE JUMPI PUSH1 0x0 DUP1 PUSH2 0x3DB PUSH2 0x5BE2 JUMP JUMPDEST POP POP JUMPDEST POP PUSH2 0x40E PUSH1 0x4 DUP1 CALLDATASIZE SUB PUSH1 0x20 DUP2 LT ISZERO PUSH2 0x3FE JUMPI PUSH1 0x0 DUP1 PUSH2 0x3FB PUSH2 0x5BE2 JUMP JUMPDEST POP POP JUMPDEST POP CALLDATALOAD PUSH1 0x1 PUSH1 0x1 PUSH1 0xA0 SHL SUB AND PUSH2 0x112A JUMP JUMPDEST PUSH1 0x40 MLOAD SWAP1 DUP2 MSTORE PUSH1 0x20 ADD PUSH1 0x40 MLOAD DUP1 SWAP2 SUB SWAP1 RETURN JUMPDEST CALLVALUE DUP1 ISZERO PUSH2 0x435 JUMPI PUSH1 0x0 DUP1 PUSH2 0x432 PUSH2 0x5BE2 JUMP JUMPDEST POP POP JUMPDEST POP PUSH2 0x40E PUSH2 0x1145 JUMP JUMPDEST CALLVALUE DUP1 ISZERO PUSH2 0x453 JUMPI PUSH1 0x0 DUP1 PUSH2 0x450 PUSH2 0x5BE2 JUMP JUMPDEST POP POP JUMPDEST POP PUSH2 0x483 PUSH1 0x4 DUP1 CALLDATASIZE SUB PUSH1 0x20 DUP2 LT ISZERO PUSH2 0x473 JUMPI PUSH1 0x0 DUP1 PUSH2 0x470 PUSH2 0x5BE2 JUMP JUMPDEST POP POP JUMPDEST POP CALLDATALOAD PUSH1 0x1 PUSH1 0x1 PUSH1 0xA0 SHL SUB AND PUSH2 0x114F JUMP JUMPDEST STOP JUMPDEST CALLVALUE DUP1 ISZERO PUSH2 0x49A JUMPI PUSH1 0x0 DUP1 PUSH2 0x497 PUSH2 0x5BE2 JUMP JUMPDEST POP POP JUMPDEST POP PUSH2 0x483 PUSH1 0x4 DUP1 CALLDATASIZE SUB PUSH1 0x20 DUP2 LT ISZERO PUSH2 0x4BA JUMPI PUSH1 0x0 DUP1 PUSH2 0x4B7 PUSH2 0x5BE2 JUMP JUMPDEST POP POP JUMPDEST POP CALLDATALOAD ISZERO ISZERO PUSH2 0x11C9 JUMP JUMPDEST CALLVALUE DUP1 ISZERO PUSH2 0x4D8 JUMPI PUSH1 0x0 DUP1 PUSH2 0x4D5 PUSH2 0x5BE2 JUMP JUMPDEST POP POP JUMPDEST POP PUSH2 0x40E PUSH2 0x129F JUMP JUMPDEST CALLVALUE DUP1 ISZERO PUSH2 0x4F6 JUMPI PUSH1 0x0 DUP1 PUSH2 0x4F3 PUSH2 0x5BE2 JUMP JUMPDEST POP POP JUMPDEST POP PUSH2 0x483 PUSH1 0x4 DUP1 CALLDATASIZE SUB PUSH1 0x20 DUP2 LT ISZERO PUSH2 0x516 JUMPI PUSH1 0x0 DUP1 PUSH2 0x513 PUSH2 0x5BE2 JUMP JUMPDEST POP POP JUMPDEST POP CALLDATALOAD PUSH2 0x12A9 JUMP JUMPDEST CALLVALUE DUP1 ISZERO PUSH2 0x532 JUMPI PUSH1 0x0 DUP1 PUSH2 0x52F PUSH2 0x5BE2 JUMP JUMPDEST POP POP JUMPDEST POP PUSH2 0x40E PUSH2 0x12FF JUMP JUMPDEST CALLVALUE DUP1 ISZERO PUSH2 0x550 JUMPI PUSH1 0x0 DUP1 PUSH2 0x54D PUSH2 0x5BE2 JUMP JUMPDEST POP POP JUMPDEST POP PUSH2 0x40E PUSH2 0x1309 JUMP JUMPDEST CALLVALUE DUP1 ISZERO PUSH2 0x56E JUMPI PUSH1 0x0 DUP1 PUSH2 0x56B PUSH2 0x5BE2 JUMP JUMPDEST POP POP JUMPDEST POP PUSH2 0x40E PUSH2 0x1313 JUMP JUMPDEST CALLVALUE DUP1 ISZERO PUSH2 0x58C JUMPI PUSH1 0x0 DUP1 PUSH2 0x589 PUSH2 0x5BE2 JUMP JUMPDEST POP POP JUMPDEST POP PUSH2 0x5BC PUSH1 0x4 DUP1 CALLDATASIZE SUB PUSH1 0x20 DUP2 LT ISZERO PUSH2 0x5AC JUMPI PUSH1 0x0 DUP1 PUSH2 0x5A9 PUSH2 0x5BE2 JUMP JUMPDEST POP POP JUMPDEST POP CALLDATALOAD PUSH1 0x1 PUSH1 0x1 PUSH1 0xA0 SHL SUB AND PUSH2 0x131D JUMP JUMPDEST PUSH1 0x40 MLOAD PUSH1 0x20 DUP1 DUP3 MSTORE DUP2 SWAP1 DUP2 ADD DUP4 DUP2 DUP2 MLOAD DUP2 MSTORE PUSH1 0x20 ADD SWAP2 POP DUP1 MLOAD SWAP1 PUSH1 0x20 ADD SWAP1 PUSH1 0x20 MUL DUP1 DUP4 DUP4 PUSH1 0x0 JUMPDEST DUP4 DUP2 LT ISZERO PUSH2 0x5FB JUMPI DUP1 DUP3 ADD MLOAD DUP4 DUP3 ADD MSTORE PUSH1 0x20 ADD PUSH2 0x5E3 JUMP JUMPDEST POP POP POP POP SWAP1 POP ADD SWAP3 POP POP POP PUSH1 0x40 MLOAD DUP1 SWAP2 SUB SWAP1 RETURN JUMPDEST CALLVALUE DUP1 ISZERO PUSH2 0x624 JUMPI PUSH1 0x0 DUP1 PUSH2 0x621 PUSH2 0x5BE2 JUMP JUMPDEST POP POP JUMPDEST POP PUSH2 0x40E PUSH2 0x1576 JUMP JUMPDEST CALLVALUE DUP1 ISZERO PUSH2 0x642 JUMPI PUSH1 0x0 DUP1 PUSH2 0x63F PUSH2 0x5BE2 JUMP JUMPDEST POP POP JUMPDEST POP PUSH2 0x483 PUSH1 0x4 DUP1 CALLDATASIZE SUB PUSH1 0x60 DUP2 LT ISZERO PUSH2 0x662 JUMPI PUSH1 0x0 DUP1 PUSH2 0x65F PUSH2 0x5BE2 JUMP JUMPDEST POP POP JUMPDEST POP PUSH1 0x1 PUSH1 0x1 PUSH1 0xA0 SHL SUB DUP2 CALLDATALOAD AND SWAP1 PUSH1 0x20 DUP2 ADD CALLDATALOAD SWAP1 PUSH1 0x40 ADD CALLDATALOAD PUSH2 0x1580 JUMP JUMPDEST CALLVALUE DUP1 ISZERO PUSH2 0x693 JUMPI PUSH1 0x0 DUP1 PUSH2 0x690 PUSH2 0x5BE2 JUMP JUMPDEST POP POP JUMPDEST POP PUSH2 0x40E PUSH1 0x4 DUP1 CALLDATASIZE SUB PUSH1 0x40 DUP2 LT ISZERO PUSH2 0x6B3 JUMPI PUSH1 0x0 DUP1 PUSH2 0x6B0 PUSH2 0x5BE2 JUMP JUMPDEST POP POP JUMPDEST POP DUP1 CALLDATALOAD SWAP1 PUSH1 0x20 ADD CALLDATALOAD PUSH2 0x1CFF JUMP JUMPDEST CALLVALUE DUP1 ISZERO PUSH2 0x6D5 JUMPI PUSH1 0x0 DUP1 PUSH2 0x6D2 PUSH2 0x5BE2 JUMP JUMPDEST POP POP JUMPDEST POP PUSH2 0x483 PUSH1 0x4 DUP1 CALLDATASIZE SUB PUSH1 0x20 DUP2 LT ISZERO PUSH2 0x6F5 JUMPI PUSH1 0x0 DUP1 PUSH2 0x6F2 PUSH2 0x5BE2 JUMP JUMPDEST POP POP JUMPDEST POP CALLDATALOAD PUSH1 0x1 PUSH1 0x1 PUSH1 0xA0 SHL SUB AND PUSH2 0x1E39 JUMP JUMPDEST CALLVALUE DUP1 ISZERO PUSH2 0x71A JUMPI PUSH1 0x0 DUP1 PUSH2 0x717 PUSH2 0x5BE2 JUMP JUMPDEST POP POP JUMPDEST POP PUSH2 0x40E PUSH2 0x2003 JUMP JUMPDEST CALLVALUE DUP1 ISZERO PUSH2 0x738 JUMPI PUSH1 0x0 DUP1 PUSH2 0x735 PUSH2 0x5BE2 JUMP JUMPDEST POP POP JUMPDEST POP PUSH2 0x40E PUSH1 0x4 DUP1 CALLDATASIZE SUB PUSH1 0x40 DUP2 LT ISZERO PUSH2 0x758 JUMPI PUSH1 0x0 DUP1 PUSH2 0x755 PUSH2 0x5BE2 JUMP JUMPDEST POP POP JUMPDEST POP PUSH1 0x1 PUSH1 0x1 PUSH1 0xA0 SHL SUB DUP2 CALLDATALOAD AND SWAP1 PUSH1 0x20 ADD CALLDATALOAD PUSH2 0x200D JUMP JUMPDEST CALLVALUE DUP1 ISZERO PUSH2 0x783 JUMPI PUSH1 0x0 DUP1 PUSH2 0x780 PUSH2 0x5BE2 JUMP JUMPDEST POP POP JUMPDEST POP PUSH2 0x483 PUSH1 0x4 DUP1 CALLDATASIZE SUB PUSH1 0x20 DUP2 LT ISZERO PUSH2 0x7A3 JUMPI PUSH1 0x0 DUP1 PUSH2 0x7A0 PUSH2 0x5BE2 JUMP JUMPDEST POP POP JUMPDEST POP CALLDATALOAD PUSH2 0x2030 JUMP JUMPDEST CALLVALUE DUP1 ISZERO PUSH2 0x7BF JUMPI PUSH1 0x0 DUP1 PUSH2 0x7BC PUSH2 0x5BE2 JUMP JUMPDEST POP POP JUMPDEST POP PUSH2 0x40E PUSH1 0x4 DUP1 CALLDATASIZE SUB PUSH1 0x40 DUP2 LT ISZERO PUSH2 0x7DF JUMPI PUSH1 0x0 DUP1 PUSH2 0x7DC PUSH2 0x5BE2 JUMP JUMPDEST POP POP JUMPDEST POP PUSH1 0x1 PUSH1 0x1 PUSH1 0xA0 SHL SUB DUP2 CALLDATALOAD AND SWAP1 PUSH1 0x20 ADD CALLDATALOAD PUSH2 0x2072 JUMP JUMPDEST CALLVALUE DUP1 ISZERO PUSH2 0x80A JUMPI PUSH1 0x0 DUP1 PUSH2 0x807 PUSH2 0x5BE2 JUMP JUMPDEST POP POP JUMPDEST POP PUSH2 0x3AD PUSH2 0x2099 JUMP JUMPDEST PUSH2 0x40E PUSH1 0x4 DUP1 CALLDATASIZE SUB PUSH1 0x20 DUP2 LT ISZERO PUSH2 0x832 JUMPI PUSH1 0x0 DUP1 PUSH2 0x82F PUSH2 0x5BE2 JUMP JUMPDEST POP POP JUMPDEST POP CALLDATALOAD PUSH2 0x20A5 JUMP JUMPDEST CALLVALUE DUP1 ISZERO PUSH2 0x84E JUMPI PUSH1 0x0 DUP1 PUSH2 0x84B PUSH2 0x5BE2 JUMP JUMPDEST POP POP JUMPDEST POP PUSH2 0x857 PUSH2 0x295E JUMP JUMPDEST PUSH1 0x40 MLOAD SWAP1 ISZERO ISZERO DUP2 MSTORE PUSH1 0x20 ADD PUSH1 0x40 MLOAD DUP1 SWAP2 SUB SWAP1 RETURN JUMPDEST CALLVALUE DUP1 ISZERO PUSH2 0x880 JUMPI PUSH1 0x0 DUP1 PUSH2 0x87D PUSH2 0x5BE2 JUMP JUMPDEST POP POP JUMPDEST POP PUSH2 0x483 PUSH1 0x4 DUP1 CALLDATASIZE SUB PUSH1 0x20 DUP2 LT ISZERO PUSH2 0x8A0 JUMPI PUSH1 0x0 DUP1 PUSH2 0x89D PUSH2 0x5BE2 JUMP JUMPDEST POP POP JUMPDEST POP CALLDATALOAD PUSH2 0x2977 JUMP JUMPDEST CALLVALUE DUP1 ISZERO PUSH2 0x8BC JUMPI PUSH1 0x0 DUP1 PUSH2 0x8B9 PUSH2 0x5BE2 JUMP JUMPDEST POP POP JUMPDEST POP PUSH2 0x483 PUSH1 0x4 DUP1 CALLDATASIZE SUB PUSH1 0x20 DUP2 LT ISZERO PUSH2 0x8DC JUMPI PUSH1 0x0 DUP1 PUSH2 0x8D9 PUSH2 0x5BE2 JUMP JUMPDEST POP POP JUMPDEST POP CALLDATALOAD PUSH2 0x2A02 JUMP JUMPDEST CALLVALUE DUP1 ISZERO PUSH2 0x8F8 JUMPI PUSH1 0x0 DUP1 PUSH2 0x8F5 PUSH2 0x5BE2 JUMP JUMPDEST POP POP JUMPDEST POP PUSH2 0x92E PUSH1 0x4 DUP1 CALLDATASIZE SUB PUSH1 0x40 DUP2 LT ISZERO PUSH2 0x918 JUMPI PUSH1 0x0 DUP1 PUSH2 0x915 PUSH2 0x5BE2 JUMP JUMPDEST POP POP JUMPDEST POP PUSH1 0x1 PUSH1 0x1 PUSH1 0xA0 SHL SUB DUP2 CALLDATALOAD AND SWAP1 PUSH1 0x20 ADD CALLDATALOAD PUSH2 0x2BA1 JUMP JUMPDEST PUSH1 0x40 MLOAD SWAP2 DUP3 MSTORE PUSH1 0x20 DUP3 ADD MSTORE PUSH1 0x40 SWAP1 DUP2 ADD SWAP1 MLOAD DUP1 SWAP2 SUB SWAP1 RETURN JUMPDEST CALLVALUE DUP1 ISZERO PUSH2 0x95B JUMPI PUSH1 0x0 DUP1 PUSH2 0x958 PUSH2 0x5BE2 JUMP JUMPDEST POP POP JUMPDEST POP PUSH2 0x857 PUSH1 0x4 DUP1 CALLDATASIZE SUB PUSH1 0x20 DUP2 LT ISZERO PUSH2 0x97B JUMPI PUSH1 0x0 DUP1 PUSH2 0x978 PUSH2 0x5BE2 JUMP JUMPDEST POP POP JUMPDEST POP CALLDATALOAD PUSH1 0x1 PUSH1 0x1 PUSH1 0xA0 SHL SUB AND PUSH2 0x2C0F JUMP JUMPDEST CALLVALUE DUP1 ISZERO PUSH2 0x9A0 JUMPI PUSH1 0x0 DUP1 PUSH2 0x99D PUSH2 0x5BE2 JUMP JUMPDEST POP POP JUMPDEST POP PUSH2 0x40E PUSH2 0x2DE9 JUMP JUMPDEST CALLVALUE DUP1 ISZERO PUSH2 0x9BE JUMPI PUSH1 0x0 DUP1 PUSH2 0x9BB PUSH2 0x5BE2 JUMP JUMPDEST POP POP JUMPDEST POP PUSH2 0x483 PUSH1 0x4 DUP1 CALLDATASIZE SUB PUSH1 0x40 DUP2 LT ISZERO PUSH2 0x9DE JUMPI PUSH1 0x0 DUP1 PUSH2 0x9DB PUSH2 0x5BE2 JUMP JUMPDEST POP POP JUMPDEST POP DUP1 CALLDATALOAD SWAP1 PUSH1 0x20 ADD CALLDATALOAD PUSH2 0x2DF3 JUMP JUMPDEST CALLVALUE DUP1 ISZERO PUSH2 0xA00 JUMPI PUSH1 0x0 DUP1 PUSH2 0x9FD PUSH2 0x5BE2 JUMP JUMPDEST POP POP JUMPDEST POP PUSH2 0x483 PUSH2 0x3274 JUMP JUMPDEST CALLVALUE DUP1 ISZERO PUSH2 0xA1E JUMPI PUSH1 0x0 DUP1 PUSH2 0xA1B PUSH2 0x5BE2 JUMP JUMPDEST POP POP JUMPDEST POP PUSH2 0x40E PUSH2 0x33F2 JUMP JUMPDEST CALLVALUE DUP1 ISZERO PUSH2 0xA3C JUMPI PUSH1 0x0 DUP1 PUSH2 0xA39 PUSH2 0x5BE2 JUMP JUMPDEST POP POP JUMPDEST POP PUSH2 0xA45 PUSH2 0x33FC JUMP JUMPDEST PUSH1 0x40 MLOAD SWAP13 DUP14 MSTORE PUSH1 0x20 DUP14 ADD SWAP12 SWAP1 SWAP12 MSTORE PUSH1 0x40 DUP1 DUP14 ADD SWAP11 SWAP1 SWAP11 MSTORE PUSH1 0x60 DUP13 ADD SWAP9 SWAP1 SWAP9 MSTORE PUSH1 0x80 DUP12 ADD SWAP7 SWAP1 SWAP7 MSTORE PUSH1 0xA0 DUP11 ADD SWAP5 SWAP1 SWAP5 MSTORE PUSH1 0xC0 DUP10 ADD SWAP3 SWAP1 SWAP3 MSTORE PUSH1 0xE0 DUP9 ADD MSTORE PUSH2 0x100 DUP8 ADD MSTORE PUSH2 0x120 DUP7 ADD MSTORE PUSH2 0x140 DUP6 ADD MSTORE PUSH2 0x160 DUP5 ADD MSTORE SWAP1 ISZERO ISZERO PUSH2 0x180 DUP4 ADD MSTORE PUSH2 0x1A0 SWAP1 SWAP2 ADD SWAP1 MLOAD DUP1 SWAP2 SUB SWAP1 RETURN JUMPDEST CALLVALUE DUP1 ISZERO PUSH2 0xAC5 JUMPI PUSH1 0x0 DUP1 PUSH2 0xAC2 PUSH2 0x5BE2 JUMP JUMPDEST POP POP JUMPDEST POP PUSH2 0x483 PUSH1 0x4 DUP1 CALLDATASIZE SUB PUSH1 0x60 DUP2 LT ISZERO PUSH2 0xAE5 JUMPI PUSH1 0x0 DUP1 PUSH2 0xAE2 PUSH2 0x5BE2 JUMP JUMPDEST POP POP JUMPDEST POP PUSH1 0x1 PUSH1 0x1 PUSH1 0xA0 SHL SUB DUP2 CALLDATALOAD AND SWAP1 PUSH1 0x20 DUP2 ADD CALLDATALOAD SWAP1 PUSH1 0x40 ADD CALLDATALOAD PUSH2 0x34BD JUMP JUMPDEST CALLVALUE DUP1 ISZERO PUSH2 0xB16 JUMPI PUSH1 0x0 DUP1 PUSH2 0xB13 PUSH2 0x5BE2 JUMP JUMPDEST POP POP JUMPDEST POP PUSH2 0x40E PUSH1 0x4 DUP1 CALLDATASIZE SUB PUSH1 0x40 DUP2 LT ISZERO PUSH2 0xB36 JUMPI PUSH1 0x0 DUP1 PUSH2 0xB33 PUSH2 0x5BE2 JUMP JUMPDEST POP POP JUMPDEST POP PUSH1 0x1 PUSH1 0x1 PUSH1 0xA0 SHL SUB DUP2 CALLDATALOAD AND SWAP1 PUSH1 0x20 ADD CALLDATALOAD PUSH2 0x38F1 JUMP JUMPDEST CALLVALUE DUP1 ISZERO PUSH2 0xB61 JUMPI PUSH1 0x0 DUP1 PUSH2 0xB5E PUSH2 0x5BE2 JUMP JUMPDEST POP POP JUMPDEST POP PUSH2 0x3AD PUSH2 0x3950 JUMP JUMPDEST CALLVALUE DUP1 ISZERO PUSH2 0xB7F JUMPI PUSH1 0x0 DUP1 PUSH2 0xB7C PUSH2 0x5BE2 JUMP JUMPDEST POP POP JUMPDEST POP PUSH2 0x40E PUSH1 0x4 DUP1 CALLDATASIZE SUB PUSH1 0x20 DUP2 LT ISZERO PUSH2 0xB9F JUMPI PUSH1 0x0 DUP1 PUSH2 0xB9C PUSH2 0x5BE2 JUMP JUMPDEST POP POP JUMPDEST POP CALLDATALOAD PUSH2 0x395B JUMP JUMPDEST CALLVALUE DUP1 ISZERO PUSH2 0xBBB JUMPI PUSH1 0x0 DUP1 PUSH2 0xBB8 PUSH2 0x5BE2 JUMP JUMPDEST POP POP JUMPDEST POP PUSH2 0x40E PUSH2 0x3A3C JUMP JUMPDEST CALLVALUE DUP1 ISZERO PUSH2 0xBD9 JUMPI PUSH1 0x0 DUP1 PUSH2 0xBD6 PUSH2 0x5BE2 JUMP JUMPDEST POP POP JUMPDEST POP PUSH2 0x483 PUSH1 0x4 DUP1 CALLDATASIZE SUB PUSH1 0x20 DUP2 LT ISZERO PUSH2 0xBF9 JUMPI PUSH1 0x0 DUP1 PUSH2 0xBF6 PUSH2 0x5BE2 JUMP JUMPDEST POP POP JUMPDEST POP CALLDATALOAD PUSH2 0x3A46 JUMP JUMPDEST CALLVALUE DUP1 ISZERO PUSH2 0xC15 JUMPI PUSH1 0x0 DUP1 PUSH2 0xC12 PUSH2 0x5BE2 JUMP JUMPDEST POP POP JUMPDEST POP PUSH2 0x40E PUSH2 0x3B81 JUMP JUMPDEST CALLVALUE DUP1 ISZERO PUSH2 0xC33 JUMPI PUSH1 0x0 DUP1 PUSH2 0xC30 PUSH2 0x5BE2 JUMP JUMPDEST POP POP JUMPDEST POP PUSH2 0xC69 PUSH1 0x4 DUP1 CALLDATASIZE SUB PUSH1 0x40 DUP2 LT ISZERO PUSH2 0xC53 JUMPI PUSH1 0x0 DUP1 PUSH2 0xC50 PUSH2 0x5BE2 JUMP JUMPDEST POP POP JUMPDEST POP PUSH1 0x1 PUSH1 0x1 PUSH1 0xA0 SHL SUB DUP2 CALLDATALOAD AND SWAP1 PUSH1 0x20 ADD CALLDATALOAD PUSH2 0x3B8B JUMP JUMPDEST PUSH1 0x40 MLOAD PUSH1 0x1 PUSH1 0x1 PUSH1 0xA0 SHL SUB SWAP1 SWAP9 AND DUP9 MSTORE PUSH1 0x20 DUP9 ADD SWAP7 SWAP1 SWAP7 MSTORE PUSH1 0x40 DUP1 DUP9 ADD SWAP6 SWAP1 SWAP6 MSTORE PUSH1 0x60 DUP8 ADD SWAP4 SWAP1 SWAP4 MSTORE PUSH1 0x80 DUP7 ADD SWAP2 SWAP1 SWAP2 MSTORE PUSH1 0xA0 DUP6 ADD MSTORE PUSH1 0xC0 DUP5 ADD MSTORE PUSH1 0xE0 DUP4 ADD SWAP2 SWAP1 SWAP2 MSTORE PUSH2 0x100 SWAP1 SWAP2 ADD SWAP1 MLOAD DUP1 SWAP2 SUB SWAP1 RETURN JUMPDEST CALLVALUE DUP1 ISZERO PUSH2 0xCCF JUMPI PUSH1 0x0 DUP1 PUSH2 0xCCC PUSH2 0x5BE2 JUMP JUMPDEST POP POP JUMPDEST POP PUSH2 0x40E PUSH1 0x4 DUP1 CALLDATASIZE SUB PUSH1 0x40 DUP2 LT ISZERO PUSH2 0xCEF JUMPI PUSH1 0x0 DUP1 PUSH2 0xCEC PUSH2 0x5BE2 JUMP JUMPDEST POP POP JUMPDEST POP DUP1 CALLDATALOAD SWAP1 PUSH1 0x20 ADD CALLDATALOAD PUSH2 0x3C2B JUMP JUMPDEST PUSH2 0x483 PUSH1 0x4 DUP1 CALLDATASIZE SUB PUSH1 0x40 DUP2 LT ISZERO PUSH2 0xD1B JUMPI PUSH1 0x0 DUP1 PUSH2 0xD18 PUSH2 0x5BE2 JUMP JUMPDEST POP POP JUMPDEST POP PUSH1 0x1 PUSH1 0x1 PUSH1 0xA0 SHL SUB DUP2 CALLDATALOAD AND SWAP1 PUSH1 0x20 ADD CALLDATALOAD PUSH2 0x3C5E JUMP JUMPDEST CALLVALUE DUP1 ISZERO PUSH2 0xD46 JUMPI PUSH1 0x0 DUP1 PUSH2 0xD43 PUSH2 0x5BE2 JUMP JUMPDEST POP POP JUMPDEST POP PUSH2 0x483 PUSH1 0x4 DUP1 CALLDATASIZE SUB PUSH1 0x20 DUP2 LT ISZERO PUSH2 0xD66 JUMPI PUSH1 0x0 DUP1 PUSH2 0xD63 PUSH2 0x5BE2 JUMP JUMPDEST POP POP JUMPDEST POP CALLDATALOAD PUSH2 0x3E89 JUMP JUMPDEST CALLVALUE DUP1 ISZERO PUSH2 0xD82 JUMPI PUSH1 0x0 DUP1 PUSH2 0xD7F PUSH2 0x5BE2 JUMP JUMPDEST POP POP JUMPDEST POP PUSH2 0xDB8 PUSH1 0x4 DUP1 CALLDATASIZE SUB PUSH1 0x40 DUP2 LT ISZERO PUSH2 0xDA2 JUMPI PUSH1 0x0 DUP1 PUSH2 0xD9F PUSH2 0x5BE2 JUMP JUMPDEST POP POP JUMPDEST POP PUSH1 0x1 PUSH1 0x1 PUSH1 0xA0 SHL SUB DUP2 CALLDATALOAD AND SWAP1 PUSH1 0x20 ADD CALLDATALOAD PUSH2 0x3ECB JUMP JUMPDEST PUSH1 0x40 MLOAD PUSH1 0x1 PUSH1 0x1 PUSH1 0xA0 SHL SUB SWAP1 SWAP11 AND DUP11 MSTORE PUSH1 0x20 DUP11 ADD SWAP9 SWAP1 SWAP9 MSTORE PUSH1 0x40 DUP1 DUP11 ADD SWAP8 SWAP1 SWAP8 MSTORE PUSH1 0x60 DUP10 ADD SWAP6 SWAP1 SWAP6 MSTORE PUSH1 0x80 DUP9 ADD SWAP4 SWAP1 SWAP4 MSTORE PUSH1 0xA0 DUP8 ADD SWAP2 SWAP1 SWAP2 MSTORE PUSH1 0xC0 DUP7 ADD MSTORE PUSH1 0xE0 DUP6 ADD MSTORE PUSH2 0x100 DUP5 ADD MSTORE PUSH5 0xFFFFFFFFFF SWAP1 SWAP2 AND PUSH2 0x120 DUP4 ADD MSTORE PUSH2 0x140 SWAP1 SWAP2 ADD SWAP1 MLOAD DUP1 SWAP2 SUB SWAP1 RETURN JUMPDEST CALLVALUE DUP1 ISZERO PUSH2 0xE33 JUMPI PUSH1 0x0 DUP1 PUSH2 0xE30 PUSH2 0x5BE2 JUMP JUMPDEST POP POP JUMPDEST POP PUSH2 0xE3C PUSH2 0x3FA3 JUMP JUMPDEST PUSH1 0x40 MLOAD DUP1 DUP3 PUSH2 0x300 DUP1 DUP4 DUP4 PUSH1 0x0 JUMPDEST DUP4 DUP2 LT ISZERO PUSH2 0xE62 JUMPI DUP1 DUP3 ADD MLOAD DUP4 DUP3 ADD MSTORE PUSH1 0x20 ADD PUSH2 0xE4A JUMP JUMPDEST POP POP POP POP SWAP1 POP ADD SWAP2 POP POP PUSH1 0x40 MLOAD DUP1 SWAP2 SUB SWAP1 RETURN JUMPDEST CALLVALUE DUP1 ISZERO PUSH2 0xE8A JUMPI PUSH1 0x0 DUP1 PUSH2 0xE87 PUSH2 0x5BE2 JUMP JUMPDEST POP POP JUMPDEST POP PUSH2 0x40E PUSH2 0x4005 JUMP JUMPDEST CALLVALUE DUP1 ISZERO PUSH2 0xEA8 JUMPI PUSH1 0x0 DUP1 PUSH2 0xEA5 PUSH2 0x5BE2 JUMP JUMPDEST POP POP JUMPDEST POP PUSH2 0x483 PUSH1 0x4 DUP1 CALLDATASIZE SUB PUSH1 0x20 DUP2 LT ISZERO PUSH2 0xEC8 JUMPI PUSH1 0x0 DUP1 PUSH2 0xEC5 PUSH2 0x5BE2 JUMP JUMPDEST POP POP JUMPDEST POP CALLDATALOAD ISZERO ISZERO PUSH2 0x402F JUMP JUMPDEST CALLVALUE DUP1 ISZERO PUSH2 0xEE6 JUMPI PUSH1 0x0 DUP1 PUSH2 0xEE3 PUSH2 0x5BE2 JUMP JUMPDEST POP POP JUMPDEST POP PUSH2 0x40E PUSH1 0x4 DUP1 CALLDATASIZE SUB PUSH1 0x20 DUP2 LT ISZERO PUSH2 0xF06 JUMPI PUSH1 0x0 DUP1 PUSH2 0xF03 PUSH2 0x5BE2 JUMP JUMPDEST POP POP JUMPDEST POP CALLDATALOAD PUSH2 0x40F8 JUMP JUMPDEST CALLVALUE DUP1 ISZERO PUSH2 0xF22 JUMPI PUSH1 0x0 DUP1 PUSH2 0xF1F PUSH2 0x5BE2 JUMP JUMPDEST POP POP JUMPDEST POP PUSH2 0x483 PUSH1 0x4 DUP1 CALLDATASIZE SUB PUSH1 0x20 DUP2 LT ISZERO PUSH2 0xF42 JUMPI PUSH1 0x0 DUP1 PUSH2 0xF3F PUSH2 0x5BE2 JUMP JUMPDEST POP POP JUMPDEST POP CALLDATALOAD PUSH2 0x4120 JUMP JUMPDEST CALLVALUE DUP1 ISZERO PUSH2 0xF5E JUMPI PUSH1 0x0 DUP1 PUSH2 0xF5B PUSH2 0x5BE2 JUMP JUMPDEST POP POP JUMPDEST POP PUSH2 0x40E PUSH2 0x42B2 JUMP JUMPDEST CALLVALUE DUP1 ISZERO PUSH2 0xF7C JUMPI PUSH1 0x0 DUP1 PUSH2 0xF79 PUSH2 0x5BE2 JUMP JUMPDEST POP POP JUMPDEST POP PUSH2 0x483 PUSH1 0x4 DUP1 CALLDATASIZE SUB PUSH1 0x40 DUP2 LT ISZERO PUSH2 0xF9C JUMPI PUSH1 0x0 DUP1 PUSH2 0xF99 PUSH2 0x5BE2 JUMP JUMPDEST POP POP JUMPDEST POP PUSH1 0x1 PUSH1 0x1 PUSH1 0xA0 SHL SUB DUP2 CALLDATALOAD AND SWAP1 PUSH1 0x20 ADD CALLDATALOAD PUSH2 0x42BC JUMP JUMPDEST CALLVALUE DUP1 ISZERO PUSH2 0xFC7 JUMPI PUSH1 0x0 DUP1 PUSH2 0xFC4 PUSH2 0x5BE2 JUMP JUMPDEST POP POP JUMPDEST POP PUSH2 0x40E PUSH2 0x44C4 JUMP JUMPDEST CALLVALUE DUP1 ISZERO PUSH2 0xFE5 JUMPI PUSH1 0x0 DUP1 PUSH2 0xFE2 PUSH2 0x5BE2 JUMP JUMPDEST POP POP JUMPDEST POP PUSH2 0x857 PUSH2 0x44C9 JUMP JUMPDEST CALLVALUE DUP1 ISZERO PUSH2 0x1003 JUMPI PUSH1 0x0 DUP1 PUSH2 0x1000 PUSH2 0x5BE2 JUMP JUMPDEST POP POP JUMPDEST POP PUSH2 0x40E PUSH2 0x44D5 JUMP JUMPDEST CALLVALUE DUP1 ISZERO PUSH2 0x1021 JUMPI PUSH1 0x0 DUP1 PUSH2 0x101E PUSH2 0x5BE2 JUMP JUMPDEST POP POP JUMPDEST POP PUSH2 0x483 PUSH1 0x4 DUP1 CALLDATASIZE SUB PUSH1 0x20 DUP2 LT ISZERO PUSH2 0x1041 JUMPI PUSH1 0x0 DUP1 PUSH2 0x103E PUSH2 0x5BE2 JUMP JUMPDEST POP POP JUMPDEST POP CALLDATALOAD PUSH2 0x44DF JUMP JUMPDEST CALLVALUE DUP1 ISZERO PUSH2 0x105D JUMPI PUSH1 0x0 DUP1 PUSH2 0x105A PUSH2 0x5BE2 JUMP JUMPDEST POP POP JUMPDEST POP PUSH2 0x40E PUSH2 0x45CD JUMP JUMPDEST CALLVALUE DUP1 ISZERO PUSH2 0x107B JUMPI PUSH1 0x0 DUP1 PUSH2 0x1078 PUSH2 0x5BE2 JUMP JUMPDEST POP POP JUMPDEST POP PUSH2 0x40E PUSH2 0x45D7 JUMP JUMPDEST CALLVALUE DUP1 ISZERO PUSH2 0x1099 JUMPI PUSH1 0x0 DUP1 PUSH2 0x1096 PUSH2 0x5BE2 JUMP JUMPDEST POP POP JUMPDEST POP PUSH2 0x40E PUSH1 0x4 DUP1 CALLDATASIZE SUB PUSH1 0x40 DUP2 LT ISZERO PUSH2 0x10B9 JUMPI PUSH1 0x0 DUP1 PUSH2 0x10B6 PUSH2 0x5BE2 JUMP JUMPDEST POP POP JUMPDEST POP PUSH1 0x1 PUSH1 0x1 PUSH1 0xA0 SHL SUB DUP2 CALLDATALOAD AND SWAP1 PUSH1 0x20 ADD CALLDATALOAD PUSH2 0x45E1 JUMP JUMPDEST CALLVALUE DUP1 ISZERO PUSH2 0x10E4 JUMPI PUSH1 0x0 DUP1 PUSH2 0x10E1 PUSH2 0x5BE2 JUMP JUMPDEST POP POP JUMPDEST POP PUSH2 0x40E PUSH1 0x4 DUP1 CALLDATASIZE SUB PUSH1 0x20 DUP2 LT ISZERO PUSH2 0x1104 JUMPI PUSH1 0x0 DUP1 PUSH2 0x1101 PUSH2 0x5BE2 JUMP JUMPDEST POP POP JUMPDEST POP CALLDATALOAD PUSH2 0x460B JUMP JUMPDEST PUSH1 0x0 PUSH1 0x5 PUSH2 0x1117 PUSH2 0x5C4D JUMP JUMPDEST SWAP1 PUSH2 0x100 EXP SWAP1 DIV PUSH1 0x1 PUSH1 0x1 PUSH1 0xA0 SHL SUB AND DUP2 JUMP JUMPDEST PUSH1 0x17 PUSH1 0x20 MSTORE DUP1 PUSH1 0x0 MSTORE PUSH1 0x40 PUSH1 0x0 KECCAK256 SWAP1 POP PUSH2 0x1142 PUSH2 0x5C4D JUMP JUMPDEST DUP2 JUMP JUMPDEST PUSH1 0xE PUSH2 0x1142 PUSH2 0x5C4D JUMP JUMPDEST PUSH2 0x1157 PUSH2 0x46EE JUMP JUMPDEST DUP1 PUSH1 0x1 DUP1 DUP1 PUSH2 0x1164 PUSH2 0x5C4D JUMP JUMPDEST DUP2 PUSH1 0x1 PUSH1 0x1 PUSH1 0xA0 SHL SUB MUL NOT AND SWAP1 DUP4 PUSH1 0x1 PUSH1 0x1 PUSH1 0xA0 SHL SUB AND MUL OR SWAP1 PUSH2 0x1186 PUSH2 0x5CA8 JUMP JUMPDEST POP POP POP PUSH32 0x906A1C6BD7E3091EA86693DD029A831C19049CE77F1DCE2CE0BAB1CACBABCE22 DUP2 PUSH1 0x40 MLOAD PUSH1 0x1 PUSH1 0x1 PUSH1 0xA0 SHL SUB SWAP1 SWAP2 AND DUP2 MSTORE PUSH1 0x20 ADD PUSH1 0x40 MLOAD DUP1 SWAP2 SUB SWAP1 LOG1 POP JUMP JUMPDEST PUSH2 0x11D1 PUSH2 0x46EE JUMP JUMPDEST PUSH1 0x0 PUSH1 0x3 PUSH2 0x11DD PUSH2 0x5C4D JUMP JUMPDEST SWAP1 PUSH2 0x100 EXP SWAP1 DIV PUSH1 0xFF AND ISZERO ISZERO DUP2 ISZERO ISZERO EQ ISZERO PUSH2 0x11F7 JUMPI PUSH2 0x129C JUMP JUMPDEST DUP1 PUSH1 0x3 PUSH1 0x1 DUP2 PUSH2 0x1205 PUSH2 0x5C4D JUMP JUMPDEST DUP2 PUSH1 0xFF MUL NOT AND SWAP1 DUP4 ISZERO ISZERO MUL OR SWAP1 PUSH2 0x121A PUSH2 0x5CA8 JUMP JUMPDEST POP POP POP PUSH1 0x3 PUSH1 0x0 SWAP1 PUSH2 0x122A PUSH2 0x5C4D JUMP JUMPDEST SWAP1 PUSH2 0x100 EXP SWAP1 DIV PUSH1 0xFF AND ISZERO PUSH2 0x1251 JUMPI GAS PUSH2 0x1242 PUSH2 0x5CF6 JUMP JUMPDEST DUP1 PUSH1 0x2 PUSH2 0x124D PUSH2 0x5CA8 JUMP JUMPDEST POP POP POP JUMPDEST PUSH32 0x8FB6C181EE25A520CF3DD6565006EF91229FCFE5A989566C2A3B8C115570CEC5 PUSH1 0x0 PUSH1 0x3 PUSH2 0x127E PUSH2 0x5C4D JUMP JUMPDEST SWAP1 PUSH2 0x100 EXP SWAP1 DIV PUSH1 0xFF AND PUSH1 0x40 MLOAD SWAP1 ISZERO ISZERO DUP2 MSTORE PUSH1 0x20 ADD PUSH1 0x40 MLOAD DUP1 SWAP2 SUB SWAP1 LOG1 JUMPDEST POP JUMP JUMPDEST PUSH1 0x11 PUSH2 0x1142 PUSH2 0x5C4D JUMP JUMPDEST PUSH2 0x12B1 PUSH2 0x46EE JUMP JUMPDEST DUP1 DUP1 PUSH1 0xD PUSH2 0x12BD PUSH2 0x5CA8 JUMP JUMPDEST POP POP POP PUSH32 0x9F45DF4D81199BEA8F20E88707B6F7D36B8E8F20A7DEF01C113746F67557FFB6 PUSH1 0xD PUSH2 0x12EB PUSH2 0x5C4D JUMP JUMPDEST PUSH1 0x40 MLOAD SWAP1 DUP2 MSTORE PUSH1 0x20 ADD PUSH1 0x40 MLOAD DUP1 SWAP2 SUB SWAP1 LOG1 POP JUMP JUMPDEST PUSH1 0x14 PUSH2 0x1142 PUSH2 0x5C4D JUMP JUMPDEST PUSH1 0x12 PUSH2 0x1142 PUSH2 0x5C4D JUMP JUMPDEST PUSH3 0x8AA89 PUSH1 0xEB SHL DUP2 JUMP JUMPDEST PUSH1 0x1 PUSH1 0x1 PUSH1 0xA0 SHL SUB DUP2 AND PUSH1 0x0 SWAP1 DUP2 MSTORE PUSH1 0x16 PUSH1 0x20 MSTORE PUSH1 0x60 SWAP1 DUP2 SWAP1 PUSH1 0x40 SWAP1 KECCAK256 DUP1 PUSH2 0x1343 PUSH2 0x5C4D JUMP JUMPDEST DUP1 PUSH1 0x20 MUL PUSH1 0x20 ADD PUSH1 0x40 MLOAD SWAP1 DUP2 ADD PUSH1 0x40 MSTORE DUP2 DUP2 MSTORE SWAP2 SWAP1 PUSH1 0x0 PUSH1 0x20 DUP5 ADD JUMPDEST DUP3 DUP3 LT ISZERO PUSH2 0x145F JUMPI DUP4 DUP3 SWAP1 PUSH1 0x0 MSTORE PUSH1 0x20 PUSH1 0x0 KECCAK256 SWAP1 PUSH1 0xA MUL ADD PUSH1 0x40 MLOAD PUSH2 0x140 DUP2 ADD PUSH1 0x40 MSTORE SWAP1 DUP2 PUSH1 0x0 DUP3 PUSH2 0x138F PUSH2 0x5C4D JUMP JUMPDEST PUSH1 0x1 PUSH1 0x1 PUSH1 0xA0 SHL SUB PUSH2 0x100 SWAP3 SWAP1 SWAP3 EXP SWAP1 DIV AND DUP2 MSTORE PUSH1 0x20 ADD PUSH1 0x1 DUP3 ADD PUSH2 0x13B2 PUSH2 0x5C4D JUMP JUMPDEST DUP2 MSTORE PUSH1 0x20 ADD PUSH1 0x2 DUP3 ADD PUSH2 0x13C3 PUSH2 0x5C4D JUMP JUMPDEST DUP2 MSTORE PUSH1 0x20 ADD PUSH1 0x3 DUP3 ADD PUSH2 0x13D4 PUSH2 0x5C4D JUMP JUMPDEST DUP2 MSTORE PUSH1 0x20 ADD PUSH1 0x4 DUP3 ADD PUSH2 0x13E5 PUSH2 0x5C4D JUMP JUMPDEST DUP2 MSTORE PUSH1 0x20 ADD PUSH1 0x5 DUP3 ADD PUSH2 0x13F6 PUSH2 0x5C4D JUMP JUMPDEST DUP2 MSTORE PUSH1 0x20 ADD PUSH1 0x6 DUP3 ADD PUSH2 0x1407 PUSH2 0x5C4D JUMP JUMPDEST DUP2 MSTORE PUSH1 0x20 ADD PUSH1 0x7 DUP3 ADD PUSH2 0x1418 PUSH2 0x5C4D JUMP JUMPDEST DUP2 MSTORE PUSH1 0x20 ADD PUSH1 0x8 DUP3 ADD PUSH2 0x1429 PUSH2 0x5C4D JUMP JUMPDEST DUP2 MSTORE PUSH1 0x20 ADD PUSH1 0x0 PUSH1 0x9 DUP4 ADD PUSH2 0x143C PUSH2 0x5C4D JUMP JUMPDEST PUSH5 0xFFFFFFFFFF PUSH2 0x100 SWAP3 SWAP1 SWAP3 EXP SWAP1 DIV AND SWAP1 MSTORE POP DUP2 MSTORE PUSH1 0x1 SWAP1 SWAP2 ADD SWAP1 PUSH1 0x20 ADD PUSH2 0x135F JUMP JUMPDEST POP POP POP POP SWAP1 POP PUSH1 0x60 DUP2 MLOAD PUSH1 0x40 MLOAD SWAP1 DUP1 DUP3 MSTORE DUP1 PUSH1 0x20 MUL PUSH1 0x20 ADD DUP3 ADD PUSH1 0x40 MSTORE DUP1 ISZERO PUSH2 0x1492 JUMPI DUP2 PUSH1 0x20 ADD PUSH1 0x20 DUP3 MUL DUP1 CODESIZE DUP4 CODECOPY ADD SWAP1 POP JUMPDEST POP SWAP1 POP PUSH1 0x0 DUP1 JUMPDEST DUP4 MLOAD DUP2 LT ISZERO PUSH2 0x14FC JUMPI DUP4 DUP2 DUP2 MLOAD DUP2 LT PUSH2 0x14AE JUMPI INVALID JUMPDEST PUSH1 0x20 MUL PUSH1 0x20 ADD ADD MLOAD PUSH1 0xC0 ADD MLOAD PUSH2 0x14F4 JUMPI DUP4 DUP2 DUP2 MLOAD DUP2 LT PUSH2 0x14CA JUMPI INVALID JUMPDEST PUSH1 0x20 MUL PUSH1 0x20 ADD ADD MLOAD PUSH1 0xA0 ADD MLOAD DUP4 DUP4 DUP2 MLOAD DUP2 LT PUSH2 0x14E2 JUMPI INVALID JUMPDEST PUSH1 0x20 SWAP1 DUP2 MUL SWAP2 SWAP1 SWAP2 ADD ADD MSTORE PUSH1 0x1 SWAP1 SWAP2 ADD SWAP1 JUMPDEST PUSH1 0x1 ADD PUSH2 0x1499 JUMP JUMPDEST POP PUSH1 0x60 DUP2 PUSH1 0x40 MLOAD SWAP1 DUP1 DUP3 MSTORE DUP1 PUSH1 0x20 MUL PUSH1 0x20 ADD DUP3 ADD PUSH1 0x40 MSTORE DUP1 ISZERO PUSH2 0x1529 JUMPI DUP2 PUSH1 0x20 ADD PUSH1 0x20 DUP3 MUL DUP1 CODESIZE DUP4 CODECOPY ADD SWAP1 POP JUMPDEST POP SWAP1 POP PUSH1 0x0 JUMPDEST DUP3 DUP2 LT ISZERO PUSH2 0x156A JUMPI DUP4 DUP2 DUP2 MLOAD DUP2 LT PUSH2 0x1543 JUMPI INVALID JUMPDEST PUSH1 0x20 MUL PUSH1 0x20 ADD ADD MLOAD DUP3 DUP3 DUP2 MLOAD DUP2 LT PUSH2 0x1557 JUMPI INVALID JUMPDEST PUSH1 0x20 SWAP1 DUP2 MUL SWAP2 SWAP1 SWAP2 ADD ADD MSTORE PUSH1 0x1 ADD PUSH2 0x152F JUMP JUMPDEST POP SWAP4 POP POP POP POP JUMPDEST SWAP2 SWAP1 POP JUMP JUMPDEST PUSH1 0xB PUSH2 0x1142 PUSH2 0x5C4D JUMP JUMPDEST PUSH1 0x1 PUSH1 0x4 PUSH1 0x0 DUP3 DUP3 PUSH2 0x1590 PUSH2 0x5C4D JUMP JUMPDEST ADD SWAP3 POP POP DUP2 SWAP1 PUSH2 0x159E PUSH2 0x5CA8 JUMP JUMPDEST POP POP POP PUSH1 0x0 PUSH1 0x4 PUSH2 0x15AD PUSH2 0x5C4D JUMP JUMPDEST SWAP1 POP PUSH2 0x15B7 PUSH2 0x4768 JUMP JUMPDEST PUSH1 0x1 PUSH1 0x1 PUSH1 0xA0 SHL SUB AND PUSH4 0x2528F0FE PUSH3 0x8AA89 PUSH1 0xEB SHL PUSH1 0x40 MLOAD PUSH1 0x1 PUSH1 0x1 PUSH1 0xE0 SHL SUB NOT PUSH1 0xE0 DUP5 SWAP1 SHL AND DUP2 MSTORE PUSH1 0x4 DUP2 ADD SWAP2 SWAP1 SWAP2 MSTORE PUSH1 0x24 ADD PUSH1 0x20 PUSH1 0x40 MLOAD DUP1 DUP4 SUB DUP2 DUP7 DUP1 PUSH2 0x15FE PUSH2 0x5D3C JUMP JUMPDEST ISZERO DUP1 ISZERO PUSH2 0x1613 JUMPI PUSH1 0x0 DUP1 PUSH2 0x1610 PUSH2 0x5BE2 JUMP JUMPDEST POP POP JUMPDEST POP GAS PUSH2 0x161D PUSH2 0x5D88 JUMP JUMPDEST POP POP POP POP POP ISZERO DUP1 ISZERO PUSH2 0x163C JUMPI RETURNDATASIZE PUSH1 0x0 DUP1 RETURNDATACOPY RETURNDATASIZE PUSH1 0x0 PUSH2 0x1639 PUSH2 0x5BE2 JUMP JUMPDEST POP POP JUMPDEST POP POP POP POP PUSH1 0x40 MLOAD RETURNDATASIZE PUSH1 0x20 DUP2 LT ISZERO PUSH2 0x165B JUMPI PUSH1 0x0 DUP1 PUSH2 0x1658 PUSH2 0x5BE2 JUMP JUMPDEST POP POP JUMPDEST DUP2 ADD SWAP1 DUP1 DUP1 MLOAD ISZERO SWAP3 POP PUSH2 0x16AE SWAP2 POP POP JUMPI PUSH1 0x40 MLOAD PUSH3 0x461BCD PUSH1 0xE5 SHL DUP2 MSTORE PUSH1 0x20 PUSH1 0x4 DUP3 ADD MSTORE PUSH1 0x1E PUSH1 0x24 DUP3 ADD MSTORE PUSH1 0x0 DUP1 MLOAD PUSH1 0x20 PUSH2 0x6127 DUP4 CODECOPY DUP2 MLOAD SWAP2 MSTORE PUSH1 0x44 DUP3 ADD MSTORE PUSH1 0x64 ADD PUSH1 0x40 MLOAD DUP1 SWAP2 SUB SWAP1 PUSH2 0x16AB PUSH2 0x5BE2 JUMP JUMPDEST POP POP JUMPDEST PUSH2 0x16B6 PUSH2 0x47B7 JUMP JUMPDEST PUSH1 0x1 PUSH1 0x1 PUSH1 0xA0 SHL SUB AND PUSH4 0x86DABD1 PUSH1 0x40 MLOAD DUP2 PUSH4 0xFFFFFFFF AND PUSH1 0xE0 SHL DUP2 MSTORE PUSH1 0x4 ADD PUSH1 0x0 PUSH1 0x40 MLOAD DUP1 DUP4 SUB DUP2 DUP7 DUP1 PUSH2 0x16E9 PUSH2 0x5D3C JUMP JUMPDEST ISZERO DUP1 ISZERO PUSH2 0x16FE JUMPI PUSH1 0x0 DUP1 PUSH2 0x16FB PUSH2 0x5BE2 JUMP JUMPDEST POP POP JUMPDEST POP GAS PUSH2 0x1708 PUSH2 0x5D88 JUMP JUMPDEST POP POP POP POP POP ISZERO DUP1 ISZERO PUSH2 0x1727 JUMPI RETURNDATASIZE PUSH1 0x0 DUP1 RETURNDATACOPY RETURNDATASIZE PUSH1 0x0 PUSH2 0x1724 PUSH2 0x5BE2 JUMP JUMPDEST POP POP JUMPDEST POP POP POP POP DUP2 PUSH2 0x1734 PUSH2 0x4805 JUMP JUMPDEST PUSH1 0x1 PUSH1 0x1 PUSH1 0xA0 SHL SUB AND PUSH4 0x70A08231 GAS PUSH2 0x174B PUSH2 0x5E41 JUMP JUMPDEST PUSH1 0x40 MLOAD PUSH1 0x1 PUSH1 0x1 PUSH1 0xE0 SHL SUB NOT PUSH1 0xE0 DUP5 SWAP1 SHL AND DUP2 MSTORE PUSH1 0x1 PUSH1 0x1 PUSH1 0xA0 SHL SUB SWAP1 SWAP2 AND PUSH1 0x4 DUP3 ADD MSTORE PUSH1 0x24 ADD PUSH1 0x20 PUSH1 0x40 MLOAD DUP1 DUP4 SUB DUP2 DUP7 DUP1 PUSH2 0x1785 PUSH2 0x5D3C JUMP JUMPDEST ISZERO DUP1 ISZERO PUSH2 0x179A JUMPI PUSH1 0x0 DUP1 PUSH2 0x1797 PUSH2 0x5BE2 JUMP JUMPDEST POP POP JUMPDEST POP GAS PUSH2 0x17A4 PUSH2 0x5D88 JUMP JUMPDEST POP POP POP POP POP ISZERO DUP1 ISZERO PUSH2 0x17C3 JUMPI RETURNDATASIZE PUSH1 0x0 DUP1 RETURNDATACOPY RETURNDATASIZE PUSH1 0x0 PUSH2 0x17C0 PUSH2 0x5BE2 JUMP JUMPDEST POP POP JUMPDEST POP POP POP POP PUSH1 0x40 MLOAD RETURNDATASIZE PUSH1 0x20 DUP2 LT ISZERO PUSH2 0x17E2 JUMPI PUSH1 0x0 DUP1 PUSH2 0x17DF PUSH2 0x5BE2 JUMP JUMPDEST POP POP JUMPDEST DUP2 ADD SWAP1 DUP1 DUP1 MLOAD SWAP4 SWAP1 SWAP4 LT ISZERO SWAP3 POP PUSH2 0x1845 SWAP2 POP POP JUMPI PUSH1 0x40 MLOAD PUSH3 0x461BCD PUSH1 0xE5 SHL DUP2 MSTORE PUSH1 0x20 PUSH1 0x4 DUP3 ADD MSTORE PUSH1 0x17 PUSH1 0x24 DUP3 ADD MSTORE PUSH23 0x4E6F7420656E6F75676820735553442062616C616E6365 PUSH1 0x48 SHL PUSH1 0x44 DUP3 ADD MSTORE PUSH1 0x64 ADD PUSH1 0x40 MLOAD DUP1 SWAP2 SUB SWAP1 PUSH2 0x1842 PUSH2 0x5BE2 JUMP JUMPDEST POP POP JUMPDEST PUSH2 0x184D PUSH2 0x5E87 JUMP JUMPDEST PUSH2 0x1857 DUP6 DUP6 PUSH2 0x4850 JUMP JUMPDEST SWAP1 POP PUSH2 0x1862 DUP2 PUSH2 0x49F8 JUMP JUMPDEST PUSH1 0x0 DUP1 PUSH1 0x0 PUSH2 0x1870 DUP5 PUSH2 0x4AA1 JUMP JUMPDEST SWAP3 POP SWAP3 POP SWAP3 POP PUSH1 0x11 PUSH2 0x1880 PUSH2 0x5C4D JUMP JUMPDEST DUP4 LT PUSH2 0x18C6 JUMPI PUSH1 0x40 MLOAD PUSH3 0x461BCD PUSH1 0xE5 SHL DUP2 MSTORE PUSH1 0x4 ADD DUP1 DUP1 PUSH1 0x20 ADD DUP3 DUP2 SUB DUP3 MSTORE PUSH1 0x28 DUP2 MSTORE PUSH1 0x20 ADD DUP1 PUSH2 0x6004 PUSH1 0x28 SWAP2 CODECOPY PUSH1 0x40 ADD SWAP2 POP POP PUSH1 0x40 MLOAD DUP1 SWAP2 SUB SWAP1 PUSH2 0x18C3 PUSH2 0x5BE2 JUMP JUMPDEST POP POP JUMPDEST PUSH1 0x0 PUSH2 0x18FB PUSH2 0x18F5 DUP4 PUSH2 0x18E9 DUP9 PUSH2 0x100 ADD MLOAD DUP10 PUSH1 0x40 ADD MLOAD SWAP1 PUSH4 0xFFFFFFFF PUSH2 0x4BC8 AND JUMP JUMPDEST SWAP1 PUSH4 0xFFFFFFFF PUSH2 0x4BC8 AND JUMP JUMPDEST DUP5 PUSH2 0x1CFF JUMP JUMPDEST SWAP1 POP PUSH1 0x0 DUP8 DUP3 LT PUSH2 0x190C JUMPI DUP8 PUSH2 0x190E JUMP JUMPDEST DUP2 JUMPDEST SWAP1 POP PUSH2 0x1918 PUSH2 0x4805 JUMP JUMPDEST PUSH1 0x1 PUSH1 0x1 PUSH1 0xA0 SHL SUB AND PUSH4 0x9DC29FAC GAS PUSH2 0x192F PUSH2 0x5E41 JUMP JUMPDEST DUP4 PUSH1 0x40 MLOAD PUSH1 0x1 PUSH1 0x1 PUSH1 0xE0 SHL SUB NOT PUSH1 0xE0 DUP6 SWAP1 SHL AND DUP2 MSTORE PUSH1 0x1 PUSH1 0x1 PUSH1 0xA0 SHL SUB SWAP1 SWAP3 AND PUSH1 0x4 DUP4 ADD MSTORE PUSH1 0x24 DUP3 ADD MSTORE PUSH1 0x44 ADD PUSH1 0x0 PUSH1 0x40 MLOAD DUP1 DUP4 SUB DUP2 PUSH1 0x0 DUP8 DUP1 PUSH2 0x1971 PUSH2 0x5D3C JUMP JUMPDEST ISZERO DUP1 ISZERO PUSH2 0x1986 JUMPI PUSH1 0x0 DUP1 PUSH2 0x1983 PUSH2 0x5BE2 JUMP JUMPDEST POP POP JUMPDEST POP GAS PUSH2 0x1990 PUSH2 0x5EEA JUMP JUMPDEST POP POP POP POP POP POP ISZERO DUP1 ISZERO PUSH2 0x19B0 JUMPI RETURNDATASIZE PUSH1 0x0 DUP1 RETURNDATACOPY RETURNDATASIZE PUSH1 0x0 PUSH2 0x19AD PUSH2 0x5BE2 JUMP JUMPDEST POP POP JUMPDEST POP POP POP POP PUSH1 0x0 DUP1 PUSH1 0x0 PUSH2 0x19DD DUP5 PUSH2 0x19D3 DUP9 DUP13 PUSH2 0x100 ADD MLOAD SWAP1 PUSH4 0xFFFFFFFF PUSH2 0x4BC8 AND JUMP JUMPDEST DUP12 PUSH1 0x40 ADD MLOAD PUSH2 0x4C30 JUMP JUMPDEST POP SWAP3 POP SWAP3 POP SWAP3 POP PUSH2 0x19EE DUP4 DUP4 PUSH2 0x4CA9 JUMP JUMPDEST PUSH1 0x0 PUSH2 0x19F8 PUSH2 0x4768 JUMP JUMPDEST PUSH1 0x1 PUSH1 0x1 PUSH1 0xA0 SHL SUB AND PUSH4 0x654A60AC PUSH4 0x1CD554D1 PUSH1 0xE2 SHL DUP8 PUSH3 0x8AA89 PUSH1 0xEB SHL PUSH1 0x40 MLOAD PUSH1 0x1 PUSH1 0x1 PUSH1 0xE0 SHL SUB NOT PUSH1 0xE0 DUP7 SWAP1 SHL AND DUP2 MSTORE PUSH1 0x4 DUP2 ADD SWAP4 SWAP1 SWAP4 MSTORE PUSH1 0x24 DUP4 ADD SWAP2 SWAP1 SWAP2 MSTORE PUSH1 0x44 DUP3 ADD MSTORE PUSH1 0x64 ADD PUSH1 0x20 PUSH1 0x40 MLOAD DUP1 DUP4 SUB DUP2 DUP7 DUP1 PUSH2 0x1A55 PUSH2 0x5D3C JUMP JUMPDEST ISZERO DUP1 ISZERO PUSH2 0x1A6A JUMPI PUSH1 0x0 DUP1 PUSH2 0x1A67 PUSH2 0x5BE2 JUMP JUMPDEST POP POP JUMPDEST POP GAS PUSH2 0x1A74 PUSH2 0x5D88 JUMP JUMPDEST POP POP POP POP POP ISZERO DUP1 ISZERO PUSH2 0x1A93 JUMPI RETURNDATASIZE PUSH1 0x0 DUP1 RETURNDATACOPY RETURNDATASIZE PUSH1 0x0 PUSH2 0x1A90 PUSH2 0x5BE2 JUMP JUMPDEST POP POP JUMPDEST POP POP POP POP PUSH1 0x40 MLOAD RETURNDATASIZE PUSH1 0x20 DUP2 LT ISZERO PUSH2 0x1AB2 JUMPI PUSH1 0x0 DUP1 PUSH2 0x1AAF PUSH2 0x5BE2 JUMP JUMPDEST POP POP JUMPDEST DUP2 ADD SWAP1 DUP1 DUP1 MLOAD SWAP4 POP PUSH1 0x0 SWAP3 POP PUSH2 0x1B92 SWAP2 POP PUSH2 0x1B85 SWAP1 POP PUSH1 0x12 PUSH2 0x1AD2 PUSH2 0x5C4D JUMP JUMPDEST PUSH20 0x0 PUSH4 0x907AF6C0 PUSH1 0x40 MLOAD DUP2 PUSH4 0xFFFFFFFF AND PUSH1 0xE0 SHL DUP2 MSTORE PUSH1 0x4 ADD PUSH1 0x20 PUSH1 0x40 MLOAD DUP1 DUP4 SUB DUP2 DUP7 DUP1 PUSH2 0x1B11 PUSH2 0x5D3C JUMP JUMPDEST ISZERO DUP1 ISZERO PUSH2 0x1B26 JUMPI PUSH1 0x0 DUP1 PUSH2 0x1B23 PUSH2 0x5BE2 JUMP JUMPDEST POP POP JUMPDEST POP GAS PUSH2 0x1B30 PUSH2 0x5FA3 JUMP JUMPDEST POP POP POP POP POP ISZERO DUP1 ISZERO PUSH2 0x1B4F JUMPI RETURNDATASIZE PUSH1 0x0 DUP1 RETURNDATACOPY RETURNDATASIZE PUSH1 0x0 PUSH2 0x1B4C PUSH2 0x5BE2 JUMP JUMPDEST POP POP JUMPDEST POP POP POP POP PUSH1 0x40 MLOAD RETURNDATASIZE PUSH1 0x20 DUP2 LT ISZERO PUSH2 0x1B6E JUMPI PUSH1 0x0 DUP1 PUSH2 0x1B6B PUSH2 0x5BE2 JUMP JUMPDEST POP POP JUMPDEST DUP2 ADD SWAP1 DUP1 DUP1 MLOAD SWAP4 SWAP3 POP POP PUSH4 0xFFFFFFFF PUSH2 0x4BC8 AND SWAP1 POP JUMP JUMPDEST DUP4 SWAP1 PUSH4 0xFFFFFFFF PUSH2 0x4E19 AND JUMP JUMPDEST SWAP1 POP PUSH2 0x1BBC DUP12 PUSH2 0x1BAD DUP7 DUP15 PUSH1 0x40 ADD MLOAD SWAP1 PUSH4 0xFFFFFFFF PUSH2 0x4E43 AND JUMP JUMPDEST DUP6 GAS PUSH2 0x1BB7 PUSH2 0x5CF6 JUMP JUMPDEST PUSH2 0x4EA8 JUMP JUMPDEST PUSH2 0x1BDA DUP12 PUSH2 0x1BD5 DUP4 DUP15 PUSH1 0x20 ADD MLOAD SWAP1 PUSH4 0xFFFFFFFF PUSH2 0x4E43 AND JUMP JUMPDEST PUSH2 0x4FDD JUMP JUMPDEST POP GAS PUSH2 0x1BE4 PUSH2 0x5E41 JUMP JUMPDEST PUSH1 0x1 PUSH1 0x1 PUSH1 0xA0 SHL SUB AND DUP2 ISZERO PUSH2 0x8FC MUL DUP3 PUSH1 0x40 MLOAD PUSH1 0x0 PUSH1 0x40 MLOAD DUP1 DUP4 SUB DUP2 DUP6 DUP9 DUP9 PUSH2 0x1C0B PUSH2 0x5EEA JUMP JUMPDEST POP POP POP POP POP POP SWAP4 POP POP POP POP ISZERO DUP1 ISZERO PUSH2 0x1C30 JUMPI RETURNDATASIZE PUSH1 0x0 DUP1 RETURNDATACOPY RETURNDATASIZE PUSH1 0x0 PUSH2 0x1C2D PUSH2 0x5BE2 JUMP JUMPDEST POP POP JUMPDEST POP DUP15 PUSH1 0x1 PUSH1 0x1 PUSH1 0xA0 SHL SUB AND PUSH32 0xB6E43890AEEA54FBE6C0ED628E78172A0FF30BBCB1D70D8B130B12C366BAC4C5 DUP16 GAS PUSH2 0x1C66 PUSH2 0x5E41 JUMP JUMPDEST DUP10 DUP6 PUSH1 0x40 MLOAD SWAP4 DUP5 MSTORE PUSH1 0x1 PUSH1 0x1 PUSH1 0xA0 SHL SUB SWAP1 SWAP3 AND PUSH1 0x20 DUP5 ADD MSTORE PUSH1 0x40 DUP1 DUP5 ADD SWAP2 SWAP1 SWAP2 MSTORE PUSH1 0x60 DUP4 ADD SWAP2 SWAP1 SWAP2 MSTORE PUSH1 0x80 SWAP1 SWAP2 ADD SWAP1 MLOAD DUP1 SWAP2 SUB SWAP1 LOG2 POP POP POP POP POP POP POP POP POP POP POP PUSH1 0x4 PUSH2 0x1CB0 PUSH2 0x5C4D JUMP JUMPDEST DUP2 EQ PUSH2 0x1CF9 JUMPI PUSH1 0x40 MLOAD PUSH3 0x461BCD PUSH1 0xE5 SHL DUP2 MSTORE PUSH1 0x20 PUSH1 0x4 DUP3 ADD MSTORE PUSH1 0x1F PUSH1 0x24 DUP3 ADD MSTORE PUSH1 0x0 DUP1 MLOAD PUSH1 0x20 PUSH2 0x605D DUP4 CODECOPY DUP2 MLOAD SWAP2 MSTORE PUSH1 0x44 DUP3 ADD MSTORE PUSH1 0x64 ADD PUSH1 0x40 MLOAD DUP1 SWAP2 SUB SWAP1 PUSH2 0x1CF6 PUSH2 0x5BE2 JUMP JUMPDEST POP POP JUMPDEST POP POP POP POP JUMP JUMPDEST PUSH1 0x0 DUP1 PUSH20 0x0 PUSH4 0x907AF6C0 PUSH1 0x40 MLOAD DUP2 PUSH4 0xFFFFFFFF AND PUSH1 0xE0 SHL DUP2 MSTORE PUSH1 0x4 ADD PUSH1 0x20 PUSH1 0x40 MLOAD DUP1 DUP4 SUB DUP2 DUP7 DUP1 PUSH2 0x1D41 PUSH2 0x5D3C JUMP JUMPDEST ISZERO DUP1 ISZERO PUSH2 0x1D56 JUMPI PUSH1 0x0 DUP1 PUSH2 0x1D53 PUSH2 0x5BE2 JUMP JUMPDEST POP POP JUMPDEST POP GAS PUSH2 0x1D60 PUSH2 0x5FA3 JUMP JUMPDEST POP POP POP POP POP ISZERO DUP1 ISZERO PUSH2 0x1D7F JUMPI RETURNDATASIZE PUSH1 0x0 DUP1 RETURNDATACOPY RETURNDATASIZE PUSH1 0x0 PUSH2 0x1D7C PUSH2 0x5BE2 JUMP JUMPDEST POP POP JUMPDEST POP POP POP POP PUSH1 0x40 MLOAD RETURNDATASIZE PUSH1 0x20 DUP2 LT ISZERO PUSH2 0x1D9E JUMPI PUSH1 0x0 DUP1 PUSH2 0x1D9B PUSH2 0x5BE2 JUMP JUMPDEST POP POP JUMPDEST DUP2 ADD SWAP1 DUP1 DUP1 MLOAD SWAP4 POP PUSH1 0x0 SWAP3 POP PUSH1 0x11 SWAP2 POP PUSH2 0x1DB8 SWAP1 POP PUSH2 0x5C4D JUMP JUMPDEST SWAP1 POP PUSH1 0x0 PUSH2 0x1DDC PUSH2 0x1DCF DUP7 DUP5 PUSH4 0xFFFFFFFF PUSH2 0x5198 AND JUMP JUMPDEST DUP8 SWAP1 PUSH4 0xFFFFFFFF PUSH2 0x4E43 AND JUMP JUMPDEST SWAP1 POP PUSH1 0x0 PUSH2 0x1E1A PUSH2 0x1E0D DUP5 PUSH2 0x1E01 PUSH1 0x12 PUSH2 0x1DF4 PUSH2 0x5C4D JUMP JUMPDEST DUP9 SWAP1 PUSH4 0xFFFFFFFF PUSH2 0x4BC8 AND JUMP JUMPDEST SWAP1 PUSH4 0xFFFFFFFF PUSH2 0x5198 AND JUMP JUMPDEST DUP6 SWAP1 PUSH4 0xFFFFFFFF PUSH2 0x4E43 AND JUMP JUMPDEST SWAP1 POP PUSH2 0x1E2C DUP3 DUP3 PUSH4 0xFFFFFFFF PUSH2 0x5198 AND JUMP JUMPDEST SWAP5 POP POP POP POP POP JUMPDEST SWAP3 SWAP2 POP POP JUMP JUMPDEST PUSH2 0x1E41 PUSH2 0x46EE JUMP JUMPDEST DUP1 PUSH1 0x5 PUSH1 0x1 DUP2 PUSH2 0x1E4F PUSH2 0x5C4D JUMP JUMPDEST DUP2 PUSH1 0x1 PUSH1 0x1 PUSH1 0xA0 SHL SUB MUL NOT AND SWAP1 DUP4 PUSH1 0x1 PUSH1 0x1 PUSH1 0xA0 SHL SUB AND MUL OR SWAP1 PUSH2 0x1E71 PUSH2 0x5CA8 JUMP JUMPDEST POP PUSH1 0x0 SWAP2 POP POP JUMPDEST PUSH1 0x7 DUP1 PUSH2 0x1E83 PUSH2 0x5C4D JUMP JUMPDEST SWAP1 POP DUP2 LT ISZERO PUSH2 0x1FFF JUMPI PUSH1 0x0 PUSH1 0x7 DUP3 DUP2 PUSH2 0x1E9A PUSH2 0x5C4D JUMP JUMPDEST DUP2 LT PUSH2 0x1EA2 JUMPI INVALID JUMPDEST SWAP1 PUSH1 0x0 MSTORE PUSH1 0x20 PUSH1 0x0 KECCAK256 ADD PUSH2 0x1EB4 PUSH2 0x5C4D JUMP JUMPDEST SWAP1 POP PUSH1 0x0 PUSH1 0x5 PUSH2 0x1EC2 PUSH2 0x5C4D JUMP JUMPDEST SWAP1 PUSH2 0x100 EXP SWAP1 DIV PUSH1 0x1 PUSH1 0x1 PUSH1 0xA0 SHL SUB AND PUSH1 0x1 PUSH1 0x1 PUSH1 0xA0 SHL SUB AND PUSH4 0xDACB2D01 DUP3 PUSH1 0x40 MLOAD PUSH1 0x1 PUSH1 0x1 PUSH1 0xE0 SHL SUB NOT PUSH1 0xE0 DUP5 SWAP1 SHL AND DUP2 MSTORE PUSH1 0x4 DUP2 ADD SWAP2 SWAP1 SWAP2 MSTORE PUSH1 0x40 PUSH1 0x24 DUP3 ADD DUP2 SWAP1 MSTORE PUSH1 0x17 PUSH1 0x44 DUP4 ADD MSTORE PUSH32 0x5265736F6C766572206D697373696E6720746172676574000000000000000000 PUSH1 0x64 DUP4 ADD MSTORE PUSH1 0x84 SWAP1 SWAP2 ADD SWAP1 PUSH1 0x20 SWAP1 MLOAD DUP1 DUP4 SUB DUP2 DUP7 DUP1 PUSH2 0x1F4B PUSH2 0x5D3C JUMP JUMPDEST ISZERO DUP1 ISZERO PUSH2 0x1F60 JUMPI PUSH1 0x0 DUP1 PUSH2 0x1F5D PUSH2 0x5BE2 JUMP JUMPDEST POP POP JUMPDEST POP GAS PUSH2 0x1F6A PUSH2 0x5D88 JUMP JUMPDEST POP POP POP POP POP ISZERO DUP1 ISZERO PUSH2 0x1F89 JUMPI RETURNDATASIZE PUSH1 0x0 DUP1 RETURNDATACOPY RETURNDATASIZE PUSH1 0x0 PUSH2 0x1F86 PUSH2 0x5BE2 JUMP JUMPDEST POP POP JUMPDEST POP POP POP POP PUSH1 0x40 MLOAD RETURNDATASIZE PUSH1 0x20 DUP2 LT ISZERO PUSH2 0x1FA8 JUMPI PUSH1 0x0 DUP1 PUSH2 0x1FA5 PUSH2 0x5BE2 JUMP JUMPDEST POP POP JUMPDEST DUP2 ADD SWAP1 DUP1 DUP1 MLOAD PUSH1 0x0 DUP6 DUP2 MSTORE PUSH1 0x6 PUSH1 0x20 MSTORE SWAP1 SWAP4 POP PUSH1 0x40 SWAP3 POP SWAP1 POP KECCAK256 PUSH1 0x1 DUP2 PUSH2 0x1FCD PUSH2 0x5C4D JUMP JUMPDEST DUP2 PUSH1 0x1 PUSH1 0x1 PUSH1 0xA0 SHL SUB MUL NOT AND SWAP1 DUP4 PUSH1 0x1 PUSH1 0x1 PUSH1 0xA0 SHL SUB AND MUL OR SWAP1 PUSH2 0x1FEF PUSH2 0x5CA8 JUMP JUMPDEST POP POP PUSH1 0x1 SWAP1 SWAP3 ADD SWAP2 POP PUSH2 0x1E78 SWAP1 POP JUMP JUMPDEST POP POP JUMP JUMPDEST PUSH1 0x15 PUSH2 0x1142 PUSH2 0x5C4D JUMP JUMPDEST PUSH1 0x0 PUSH2 0x2017 PUSH2 0x5E87 JUMP JUMPDEST PUSH2 0x2021 DUP5 DUP5 PUSH2 0x4850 JUMP JUMPDEST SWAP1 POP DUP1 PUSH1 0x60 ADD MLOAD SWAP5 SWAP4 POP POP POP POP JUMP JUMPDEST PUSH2 0x2038 PUSH2 0x46EE JUMP JUMPDEST DUP1 DUP1 PUSH1 0xC PUSH2 0x2044 PUSH2 0x5CA8 JUMP JUMPDEST POP POP POP PUSH32 0xBB72CE8874020B3B98429D653DF927CAC6618AC1932384B1446BF04BF9A1B7E5 PUSH1 0xC PUSH2 0x12EB PUSH2 0x5C4D JUMP JUMPDEST PUSH1 0x0 PUSH2 0x207C PUSH2 0x5E87 JUMP JUMPDEST PUSH2 0x2086 DUP5 DUP5 PUSH2 0x4850 JUMP JUMPDEST SWAP1 POP PUSH2 0x2091 DUP2 PUSH2 0x51C2 JUMP JUMPDEST SWAP5 SWAP4 POP POP POP POP JUMP JUMPDEST PUSH1 0x0 PUSH1 0x1 PUSH2 0x1117 PUSH2 0x5C4D JUMP JUMPDEST PUSH1 0x0 DUP1 PUSH1 0x3 PUSH2 0x20B2 PUSH2 0x5C4D JUMP JUMPDEST SWAP1 PUSH2 0x100 EXP SWAP1 DIV PUSH1 0xFF AND ISZERO PUSH2 0x2101 JUMPI PUSH1 0x40 MLOAD PUSH3 0x461BCD PUSH1 0xE5 SHL DUP2 MSTORE PUSH1 0x4 ADD DUP1 DUP1 PUSH1 0x20 ADD DUP3 DUP2 SUB DUP3 MSTORE PUSH1 0x3C DUP2 MSTORE PUSH1 0x20 ADD DUP1 PUSH2 0x6210 PUSH1 0x3C SWAP2 CODECOPY PUSH1 0x40 ADD SWAP2 POP POP PUSH1 0x40 MLOAD DUP1 SWAP2 SUB SWAP1 PUSH2 0x20FE PUSH2 0x5BE2 JUMP JUMPDEST POP POP JUMPDEST PUSH1 0x1 PUSH1 0x4 PUSH1 0x0 DUP3 DUP3 PUSH2 0x2111 PUSH2 0x5C4D JUMP JUMPDEST ADD SWAP3 POP POP DUP2 SWAP1 PUSH2 0x211F PUSH2 0x5CA8 JUMP JUMPDEST POP POP POP PUSH1 0x0 PUSH1 0x4 PUSH2 0x212E PUSH2 0x5C4D JUMP JUMPDEST SWAP1 POP PUSH2 0x2138 PUSH2 0x4768 JUMP JUMPDEST PUSH1 0x1 PUSH1 0x1 PUSH1 0xA0 SHL SUB AND PUSH4 0x2528F0FE PUSH3 0x8AA89 PUSH1 0xEB SHL PUSH1 0x40 MLOAD PUSH1 0x1 PUSH1 0x1 PUSH1 0xE0 SHL SUB NOT PUSH1 0xE0 DUP5 SWAP1 SHL AND DUP2 MSTORE PUSH1 0x4 DUP2 ADD SWAP2 SWAP1 SWAP2 MSTORE PUSH1 0x24 ADD PUSH1 0x20 PUSH1 0x40 MLOAD DUP1 DUP4 SUB DUP2 DUP7 DUP1 PUSH2 0x217F PUSH2 0x5D3C JUMP JUMPDEST ISZERO DUP1 ISZERO PUSH2 0x2194 JUMPI PUSH1 0x0 DUP1 PUSH2 0x2191 PUSH2 0x5BE2 JUMP JUMPDEST POP POP JUMPDEST POP GAS PUSH2 0x219E PUSH2 0x5D88 JUMP JUMPDEST POP POP POP POP POP ISZERO DUP1 ISZERO PUSH2 0x21BD JUMPI RETURNDATASIZE PUSH1 0x0 DUP1 RETURNDATACOPY RETURNDATASIZE PUSH1 0x0 PUSH2 0x21BA PUSH2 0x5BE2 JUMP JUMPDEST POP POP JUMPDEST POP POP POP POP PUSH1 0x40 MLOAD RETURNDATASIZE PUSH1 0x20 DUP2 LT ISZERO PUSH2 0x21DC JUMPI PUSH1 0x0 DUP1 PUSH2 0x21D9 PUSH2 0x5BE2 JUMP JUMPDEST POP POP JUMPDEST DUP2 ADD SWAP1 DUP1 DUP1 MLOAD ISZERO SWAP3 POP PUSH2 0x222F SWAP2 POP POP JUMPI PUSH1 0x40 MLOAD PUSH3 0x461BCD PUSH1 0xE5 SHL DUP2 MSTORE PUSH1 0x20 PUSH1 0x4 DUP3 ADD MSTORE PUSH1 0x1E PUSH1 0x24 DUP3 ADD MSTORE PUSH1 0x0 DUP1 MLOAD PUSH1 0x20 PUSH2 0x6127 DUP4 CODECOPY DUP2 MLOAD SWAP2 MSTORE PUSH1 0x44 DUP3 ADD MSTORE PUSH1 0x64 ADD PUSH1 0x40 MLOAD DUP1 SWAP2 SUB SWAP1 PUSH2 0x222C PUSH2 0x5BE2 JUMP JUMPDEST POP POP JUMPDEST PUSH2 0x2237 PUSH2 0x47B7 JUMP JUMPDEST PUSH1 0x1 PUSH1 0x1 PUSH1 0xA0 SHL SUB AND PUSH4 0x7C312541 PUSH1 0x40 MLOAD DUP2 PUSH4 0xFFFFFFFF AND PUSH1 0xE0 SHL DUP2 MSTORE PUSH1 0x4 ADD PUSH1 0x0 PUSH1 0x40 MLOAD DUP1 DUP4 SUB DUP2 DUP7 DUP1 PUSH2 0x226A PUSH2 0x5D3C JUMP JUMPDEST ISZERO DUP1 ISZERO PUSH2 0x227F JUMPI PUSH1 0x0 DUP1 PUSH2 0x227C PUSH2 0x5BE2 JUMP JUMPDEST POP POP JUMPDEST POP GAS PUSH2 0x2289 PUSH2 0x5D88 JUMP JUMPDEST POP POP POP POP POP ISZERO DUP1 ISZERO PUSH2 0x22A8 JUMPI RETURNDATASIZE PUSH1 0x0 DUP1 RETURNDATACOPY RETURNDATASIZE PUSH1 0x0 PUSH2 0x22A5 PUSH2 0x5BE2 JUMP JUMPDEST POP POP JUMPDEST POP POP POP POP PUSH1 0xD PUSH2 0x22B6 PUSH2 0x5C4D JUMP JUMPDEST CALLVALUE LT ISZERO PUSH2 0x22FD JUMPI PUSH1 0x40 MLOAD PUSH3 0x461BCD PUSH1 0xE5 SHL DUP2 MSTORE PUSH1 0x4 ADD DUP1 DUP1 PUSH1 0x20 ADD DUP3 DUP2 SUB DUP3 MSTORE PUSH1 0x48 DUP2 MSTORE PUSH1 0x20 ADD DUP1 PUSH2 0x62E6 PUSH1 0x48 SWAP2 CODECOPY PUSH1 0x60 ADD SWAP2 POP POP PUSH1 0x40 MLOAD DUP1 SWAP2 SUB SWAP1 PUSH2 0x22FA PUSH2 0x5BE2 JUMP JUMPDEST POP POP JUMPDEST PUSH1 0x0 PUSH1 0xF PUSH2 0x2309 PUSH2 0x5C4D JUMP JUMPDEST PUSH1 0xFF PUSH2 0x100 SWAP3 SWAP1 SWAP3 EXP SWAP1 DIV AND ISZERO PUSH2 0x236F JUMPI PUSH1 0x40 MLOAD PUSH3 0x461BCD PUSH1 0xE5 SHL DUP2 MSTORE PUSH1 0x20 PUSH1 0x4 DUP3 ADD MSTORE PUSH1 0x1E PUSH1 0x24 DUP3 ADD MSTORE PUSH32 0x4C6F616E7320617265206E6F77206265696E67206C6971756964617465640000 PUSH1 0x44 DUP3 ADD MSTORE PUSH1 0x64 ADD PUSH1 0x40 MLOAD DUP1 SWAP2 SUB SWAP1 PUSH2 0x236C PUSH2 0x5BE2 JUMP JUMPDEST POP POP JUMPDEST PUSH1 0xE PUSH2 0x2379 PUSH2 0x5C4D JUMP JUMPDEST PUSH1 0x16 PUSH1 0x0 GAS PUSH2 0x2386 PUSH2 0x5E41 JUMP JUMPDEST PUSH1 0x1 PUSH1 0x1 PUSH1 0xA0 SHL SUB AND PUSH1 0x1 PUSH1 0x1 PUSH1 0xA0 SHL SUB AND DUP2 MSTORE PUSH1 0x20 ADD SWAP1 DUP2 MSTORE PUSH1 0x20 ADD PUSH1 0x0 KECCAK256 DUP1 PUSH2 0x23AF PUSH2 0x5C4D JUMP JUMPDEST SWAP1 POP LT PUSH2 0x23F6 JUMPI PUSH1 0x40 MLOAD PUSH3 0x461BCD PUSH1 0xE5 SHL DUP2 MSTORE PUSH1 0x4 ADD DUP1 DUP1 PUSH1 0x20 ADD DUP3 DUP2 SUB DUP3 MSTORE PUSH1 0x23 DUP2 MSTORE PUSH1 0x20 ADD DUP1 PUSH2 0x619D PUSH1 0x23 SWAP2 CODECOPY PUSH1 0x40 ADD SWAP2 POP POP PUSH1 0x40 MLOAD DUP1 SWAP2 SUB SWAP1 PUSH2 0x23F3 PUSH2 0x5BE2 JUMP JUMPDEST POP POP JUMPDEST PUSH1 0x0 PUSH2 0x2401 CALLVALUE PUSH2 0x395B JUMP JUMPDEST SWAP1 POP DUP1 DUP5 GT ISZERO PUSH2 0x244B JUMPI PUSH1 0x40 MLOAD PUSH3 0x461BCD PUSH1 0xE5 SHL DUP2 MSTORE PUSH1 0x4 ADD DUP1 DUP1 PUSH1 0x20 ADD DUP3 DUP2 SUB DUP3 MSTORE PUSH1 0x27 DUP2 MSTORE PUSH1 0x20 ADD DUP1 PUSH2 0x60D7 PUSH1 0x27 SWAP2 CODECOPY PUSH1 0x40 ADD SWAP2 POP POP PUSH1 0x40 MLOAD DUP1 SWAP2 SUB SWAP1 PUSH2 0x2448 PUSH2 0x5BE2 JUMP JUMPDEST POP POP JUMPDEST PUSH1 0x0 PUSH2 0x2456 DUP6 PUSH2 0x5226 JUMP JUMPDEST SWAP1 POP PUSH1 0x0 PUSH2 0x246A DUP7 DUP4 PUSH4 0xFFFFFFFF PUSH2 0x4E43 AND JUMP JUMPDEST SWAP1 POP PUSH1 0xC PUSH2 0x2476 PUSH2 0x5C4D JUMP JUMPDEST PUSH2 0x2484 DUP8 PUSH1 0x13 PUSH2 0x18E9 PUSH2 0x5C4D JUMP JUMPDEST GT ISZERO PUSH2 0x24CA JUMPI PUSH1 0x40 MLOAD PUSH3 0x461BCD PUSH1 0xE5 SHL DUP2 MSTORE PUSH1 0x4 ADD DUP1 DUP1 PUSH1 0x20 ADD DUP3 DUP2 SUB DUP3 MSTORE PUSH1 0x23 DUP2 MSTORE PUSH1 0x20 ADD DUP1 PUSH2 0x617A PUSH1 0x23 SWAP2 CODECOPY PUSH1 0x40 ADD SWAP2 POP POP PUSH1 0x40 MLOAD DUP1 SWAP2 SUB SWAP1 PUSH2 0x24C7 PUSH2 0x5BE2 JUMP JUMPDEST POP POP JUMPDEST PUSH2 0x24D2 PUSH2 0x5242 JUMP JUMPDEST SWAP5 POP PUSH2 0x24DC PUSH2 0x5E87 JUMP JUMPDEST PUSH1 0x40 MLOAD DUP1 PUSH2 0x140 ADD PUSH1 0x40 MSTORE DUP1 GAS PUSH2 0x24F1 PUSH2 0x5E41 JUMP JUMPDEST PUSH1 0x1 PUSH1 0x1 PUSH1 0xA0 SHL SUB AND DUP2 MSTORE PUSH1 0x20 ADD CALLVALUE DUP2 MSTORE PUSH1 0x20 ADD DUP9 DUP2 MSTORE PUSH1 0x20 ADD DUP5 DUP2 MSTORE PUSH1 0x20 ADD GAS PUSH2 0x251A PUSH2 0x5CF6 JUMP JUMPDEST DUP2 MSTORE PUSH1 0x20 ADD DUP8 DUP2 MSTORE PUSH1 0x20 ADD PUSH1 0x0 DUP2 MSTORE PUSH1 0x20 ADD PUSH1 0x9 PUSH2 0x2536 PUSH2 0x5C4D JUMP JUMPDEST DUP2 MSTORE PUSH1 0x0 PUSH1 0x20 DUP3 ADD DUP2 SWAP1 MSTORE PUSH1 0x40 SWAP1 SWAP2 ADD MSTORE SWAP1 POP DUP3 ISZERO PUSH2 0x268E JUMPI PUSH2 0x2557 PUSH2 0x4805 JUMP JUMPDEST PUSH1 0x1 PUSH1 0x1 PUSH1 0xA0 SHL SUB AND PUSH4 0x867904B4 PUSH20 0xFEEFEEFEEFEEFEEFEEFEEFEEFEEFEEFEEFEEFEEF DUP6 PUSH1 0x40 MLOAD PUSH1 0x1 PUSH1 0x1 PUSH1 0xE0 SHL SUB NOT PUSH1 0xE0 DUP6 SWAP1 SHL AND DUP2 MSTORE PUSH1 0x1 PUSH1 0x1 PUSH1 0xA0 SHL SUB SWAP1 SWAP3 AND PUSH1 0x4 DUP4 ADD MSTORE PUSH1 0x24 DUP3 ADD MSTORE PUSH1 0x44 ADD PUSH1 0x0 PUSH1 0x40 MLOAD DUP1 DUP4 SUB DUP2 PUSH1 0x0 DUP8 DUP1 PUSH2 0x25BC PUSH2 0x5D3C JUMP JUMPDEST ISZERO DUP1 ISZERO PUSH2 0x25D1 JUMPI PUSH1 0x0 DUP1 PUSH2 0x25CE PUSH2 0x5BE2 JUMP JUMPDEST POP POP JUMPDEST POP GAS PUSH2 0x25DB PUSH2 0x5EEA JUMP JUMPDEST POP POP POP POP POP POP ISZERO DUP1 ISZERO PUSH2 0x25FB JUMPI RETURNDATASIZE PUSH1 0x0 DUP1 RETURNDATACOPY RETURNDATASIZE PUSH1 0x0 PUSH2 0x25F8 PUSH2 0x5BE2 JUMP JUMPDEST POP POP JUMPDEST POP POP POP POP PUSH2 0x2607 PUSH2 0x5288 JUMP JUMPDEST PUSH1 0x1 PUSH1 0x1 PUSH1 0xA0 SHL SUB AND PUSH4 0x22BF55EF DUP5 PUSH1 0x40 MLOAD PUSH1 0x1 PUSH1 0x1 PUSH1 0xE0 SHL SUB NOT PUSH1 0xE0 DUP5 SWAP1 SHL AND DUP2 MSTORE PUSH1 0x4 DUP2 ADD SWAP2 SWAP1 SWAP2 MSTORE PUSH1 0x24 ADD PUSH1 0x0 PUSH1 0x40 MLOAD DUP1 DUP4 SUB DUP2 PUSH1 0x0 DUP8 DUP1 PUSH2 0x264A PUSH2 0x5D3C JUMP JUMPDEST ISZERO DUP1 ISZERO PUSH2 0x265F JUMPI PUSH1 0x0 DUP1 PUSH2 0x265C PUSH2 0x5BE2 JUMP JUMPDEST POP POP JUMPDEST POP GAS PUSH2 0x2669 PUSH2 0x5EEA JUMP JUMPDEST POP POP POP POP POP POP ISZERO DUP1 ISZERO PUSH2 0x2689 JUMPI RETURNDATASIZE PUSH1 0x0 DUP1 RETURNDATACOPY RETURNDATASIZE PUSH1 0x0 PUSH2 0x2686 PUSH2 0x5BE2 JUMP JUMPDEST POP POP JUMPDEST POP POP POP POP JUMPDEST PUSH1 0x16 PUSH1 0x0 GAS PUSH2 0x269B PUSH2 0x5E41 JUMP JUMPDEST PUSH1 0x1 PUSH1 0x1 PUSH1 0xA0 SHL SUB AND PUSH1 0x1 PUSH1 0x1 PUSH1 0xA0 SHL SUB AND DUP2 MSTORE PUSH1 0x20 ADD SWAP1 DUP2 MSTORE PUSH1 0x20 ADD PUSH1 0x0 KECCAK256 DUP2 SWAP1 DUP1 PUSH1 0x1 DUP2 PUSH2 0x26C9 PUSH2 0x5C4D JUMP JUMPDEST ADD DUP1 DUP3 PUSH2 0x26D4 PUSH2 0x5CA8 JUMP JUMPDEST POP POP PUSH1 0x0 SWAP3 DUP4 MSTORE SWAP2 PUSH1 0x0 NOT DUP4 ADD SWAP2 POP PUSH1 0x20 SWAP1 KECCAK256 SWAP2 SWAP3 SWAP2 PUSH1 0xA SWAP1 SWAP2 MUL ADD DUP2 MLOAD DUP2 PUSH1 0x1 DUP2 PUSH2 0x26FE PUSH2 0x5C4D JUMP JUMPDEST DUP2 PUSH1 0x1 PUSH1 0x1 PUSH1 0xA0 SHL SUB MUL NOT AND SWAP1 DUP4 PUSH1 0x1 PUSH1 0x1 PUSH1 0xA0 SHL SUB AND MUL OR SWAP1 PUSH2 0x2720 PUSH2 0x5CA8 JUMP JUMPDEST POP POP POP PUSH1 0x20 DUP3 ADD MLOAD DUP2 PUSH1 0x1 ADD PUSH2 0x2734 PUSH2 0x5CA8 JUMP JUMPDEST POP POP PUSH1 0x40 DUP3 ADD MLOAD DUP2 PUSH1 0x2 ADD PUSH2 0x2747 PUSH2 0x5CA8 JUMP JUMPDEST POP POP PUSH1 0x60 DUP3 ADD MLOAD DUP2 PUSH1 0x3 ADD PUSH2 0x275A PUSH2 0x5CA8 JUMP JUMPDEST POP POP PUSH1 0x80 DUP3 ADD MLOAD DUP2 PUSH1 0x4 ADD PUSH2 0x276D PUSH2 0x5CA8 JUMP JUMPDEST POP POP PUSH1 0xA0 DUP3 ADD MLOAD DUP2 PUSH1 0x5 ADD PUSH2 0x2780 PUSH2 0x5CA8 JUMP JUMPDEST POP POP PUSH1 0xC0 DUP3 ADD MLOAD DUP2 PUSH1 0x6 ADD PUSH2 0x2793 PUSH2 0x5CA8 JUMP JUMPDEST POP POP PUSH1 0xE0 DUP3 ADD MLOAD DUP2 PUSH1 0x7 ADD PUSH2 0x27A6 PUSH2 0x5CA8 JUMP JUMPDEST POP POP PUSH2 0x100 DUP3 ADD MLOAD DUP2 PUSH1 0x8 ADD PUSH2 0x27BA PUSH2 0x5CA8 JUMP JUMPDEST POP POP PUSH2 0x120 DUP3 ADD MLOAD PUSH1 0x9 DUP3 ADD PUSH1 0x1 DUP2 PUSH2 0x27D1 PUSH2 0x5C4D JUMP JUMPDEST DUP2 PUSH5 0xFFFFFFFFFF MUL NOT AND SWAP1 DUP4 PUSH5 0xFFFFFFFFFF AND MUL OR SWAP1 PUSH2 0x27EF PUSH2 0x5CA8 JUMP JUMPDEST POP POP POP POP POP POP PUSH2 0x2803 DUP8 PUSH1 0x13 PUSH2 0x18E9 PUSH2 0x5C4D JUMP JUMPDEST DUP1 PUSH1 0x13 PUSH2 0x280E PUSH2 0x5CA8 JUMP JUMPDEST POP POP POP PUSH2 0x2819 PUSH2 0x4805 JUMP JUMPDEST PUSH1 0x1 PUSH1 0x1 PUSH1 0xA0 SHL SUB AND PUSH4 0x867904B4 GAS PUSH2 0x2830 PUSH2 0x5E41 JUMP JUMPDEST DUP5 PUSH1 0x40 MLOAD PUSH1 0x1 PUSH1 0x1 PUSH1 0xE0 SHL SUB NOT PUSH1 0xE0 DUP6 SWAP1 SHL AND DUP2 MSTORE PUSH1 0x1 PUSH1 0x1 PUSH1 0xA0 SHL SUB SWAP1 SWAP3 AND PUSH1 0x4 DUP4 ADD MSTORE PUSH1 0x24 DUP3 ADD MSTORE PUSH1 0x44 ADD PUSH1 0x0 PUSH1 0x40 MLOAD DUP1 DUP4 SUB DUP2 PUSH1 0x0 DUP8 DUP1 PUSH2 0x2872 PUSH2 0x5D3C JUMP JUMPDEST ISZERO DUP1 ISZERO PUSH2 0x2887 JUMPI PUSH1 0x0 DUP1 PUSH2 0x2884 PUSH2 0x5BE2 JUMP JUMPDEST POP POP JUMPDEST POP GAS PUSH2 0x2891 PUSH2 0x5EEA JUMP JUMPDEST POP POP POP POP POP POP ISZERO DUP1 ISZERO PUSH2 0x28B1 JUMPI RETURNDATASIZE PUSH1 0x0 DUP1 RETURNDATACOPY RETURNDATASIZE PUSH1 0x0 PUSH2 0x28AE PUSH2 0x5BE2 JUMP JUMPDEST POP POP JUMPDEST POP POP POP POP GAS PUSH2 0x28BE PUSH2 0x5E41 JUMP JUMPDEST PUSH1 0x1 PUSH1 0x1 PUSH1 0xA0 SHL SUB AND PUSH32 0x58D170DE3A12438E22D81380F353B2FCAC86F0A708A1374DEAA5C6322A95992F DUP8 DUP10 PUSH1 0x40 MLOAD SWAP2 DUP3 MSTORE PUSH1 0x20 DUP3 ADD MSTORE PUSH1 0x40 SWAP1 DUP2 ADD SWAP1 MLOAD DUP1 SWAP2 SUB SWAP1 LOG2 POP POP POP POP PUSH1 0x4 PUSH2 0x290F PUSH2 0x5C4D JUMP JUMPDEST DUP2 EQ PUSH2 0x2958 JUMPI PUSH1 0x40 MLOAD PUSH3 0x461BCD PUSH1 0xE5 SHL DUP2 MSTORE PUSH1 0x20 PUSH1 0x4 DUP3 ADD MSTORE PUSH1 0x1F PUSH1 0x24 DUP3 ADD MSTORE PUSH1 0x0 DUP1 MLOAD PUSH1 0x20 PUSH2 0x605D DUP4 CODECOPY DUP2 MLOAD SWAP2 MSTORE PUSH1 0x44 DUP3 ADD MSTORE PUSH1 0x64 ADD PUSH1 0x40 MLOAD DUP1 SWAP2 SUB SWAP1 PUSH2 0x2955 PUSH2 0x5BE2 JUMP JUMPDEST POP POP JUMPDEST POP SWAP2 SWAP1 POP JUMP JUMPDEST PUSH1 0x0 PUSH1 0x3 PUSH2 0x296A PUSH2 0x5C4D JUMP JUMPDEST SWAP1 PUSH2 0x100 EXP SWAP1 DIV PUSH1 0xFF AND DUP2 JUMP JUMPDEST PUSH2 0x297F PUSH2 0x46EE JUMP JUMPDEST PUSH2 0x3E8 DUP2 LT PUSH2 0x29C8 JUMPI PUSH1 0x40 MLOAD PUSH3 0x461BCD PUSH1 0xE5 SHL DUP2 MSTORE PUSH1 0x4 ADD DUP1 DUP1 PUSH1 0x20 ADD DUP3 DUP2 SUB DUP3 MSTORE PUSH1 0x33 DUP2 MSTORE PUSH1 0x20 ADD DUP1 PUSH2 0x6147 PUSH1 0x33 SWAP2 CODECOPY PUSH1 0x40 ADD SWAP2 POP POP PUSH1 0x40 MLOAD DUP1 SWAP2 SUB SWAP1 PUSH2 0x29C5 PUSH2 0x5BE2 JUMP JUMPDEST POP POP JUMPDEST DUP1 DUP1 PUSH1 0xE PUSH2 0x29D4 PUSH2 0x5CA8 JUMP JUMPDEST POP POP POP PUSH32 0x59822DC2D999F6F0618E8B0DB5CFC8496084574C769B09609D9B5F4394A310B6 PUSH1 0xE PUSH2 0x12EB PUSH2 0x5C4D JUMP JUMPDEST PUSH2 0x2A0A PUSH2 0x46EE JUMP JUMPDEST PUSH4 0x1E13380 DUP2 GT PUSH2 0x2A55 JUMPI PUSH1 0x40 MLOAD PUSH3 0x461BCD PUSH1 0xE5 SHL DUP2 MSTORE PUSH1 0x4 ADD DUP1 DUP1 PUSH1 0x20 ADD DUP3 DUP2 SUB DUP3 MSTORE PUSH1 0x37 DUP2 MSTORE PUSH1 0x20 ADD DUP1 PUSH2 0x62AF PUSH1 0x37 SWAP2 CODECOPY PUSH1 0x40 ADD SWAP2 POP POP PUSH1 0x40 MLOAD DUP1 SWAP2 SUB SWAP1 PUSH2 0x2A52 PUSH2 0x5BE2 JUMP JUMPDEST POP POP JUMPDEST PUSH20 0x0 PUSH4 0x907AF6C0 PUSH1 0x40 MLOAD DUP2 PUSH4 0xFFFFFFFF AND PUSH1 0xE0 SHL DUP2 MSTORE PUSH1 0x4 ADD PUSH1 0x20 PUSH1 0x40 MLOAD DUP1 DUP4 SUB DUP2 DUP7 DUP1 PUSH2 0x2A94 PUSH2 0x5D3C JUMP JUMPDEST ISZERO DUP1 ISZERO PUSH2 0x2AA9 JUMPI PUSH1 0x0 DUP1 PUSH2 0x2AA6 PUSH2 0x5BE2 JUMP JUMPDEST POP POP JUMPDEST POP GAS PUSH2 0x2AB3 PUSH2 0x5FA3 JUMP JUMPDEST POP POP POP POP POP ISZERO DUP1 ISZERO PUSH2 0x2AD2 JUMPI RETURNDATASIZE PUSH1 0x0 DUP1 RETURNDATACOPY RETURNDATASIZE PUSH1 0x0 PUSH2 0x2ACF PUSH2 0x5BE2 JUMP JUMPDEST POP POP JUMPDEST POP POP POP POP PUSH1 0x40 MLOAD RETURNDATASIZE PUSH1 0x20 DUP2 LT ISZERO PUSH2 0x2AF1 JUMPI PUSH1 0x0 DUP1 PUSH2 0x2AEE PUSH2 0x5BE2 JUMP JUMPDEST POP POP JUMPDEST DUP2 ADD SWAP1 DUP1 DUP1 MLOAD DUP5 GT ISZERO SWAP3 POP PUSH2 0x2B43 SWAP2 POP POP JUMPI PUSH1 0x40 MLOAD PUSH3 0x461BCD PUSH1 0xE5 SHL DUP2 MSTORE PUSH1 0x4 ADD DUP1 DUP1 PUSH1 0x20 ADD DUP3 DUP2 SUB DUP3 MSTORE PUSH1 0x25 DUP2 MSTORE PUSH1 0x20 ADD DUP1 PUSH2 0x624C PUSH1 0x25 SWAP2 CODECOPY PUSH1 0x40 ADD SWAP2 POP POP PUSH1 0x40 MLOAD DUP1 SWAP2 SUB SWAP1 PUSH2 0x2B40 PUSH2 0x5BE2 JUMP JUMPDEST POP POP JUMPDEST DUP1 DUP1 PUSH1 0x9 PUSH2 0x2B4F PUSH2 0x5CA8 JUMP JUMPDEST POP PUSH2 0x2B68 SWAP2 POP DUP3 SWAP1 POP PUSH4 0x1E13380 PUSH4 0xFFFFFFFF PUSH2 0x52D1 AND JUMP JUMPDEST DUP1 PUSH1 0xA PUSH2 0x2B73 PUSH2 0x5CA8 JUMP JUMPDEST POP POP POP PUSH32 0xA90E14BE5AA57B910AA6DC16C31FF1B5CDA380AE25A793B0D3F74DF6131A7D74 PUSH1 0x9 PUSH2 0x12EB PUSH2 0x5C4D JUMP JUMPDEST PUSH1 0x0 DUP1 PUSH2 0x2BAC PUSH2 0x5E87 JUMP JUMPDEST PUSH2 0x2BB6 DUP6 DUP6 PUSH2 0x4850 JUMP JUMPDEST SWAP1 POP PUSH1 0x0 PUSH2 0x2BD4 DUP3 PUSH2 0x100 ADD MLOAD DUP4 PUSH1 0x40 ADD MLOAD SWAP1 PUSH4 0xFFFFFFFF PUSH2 0x4BC8 AND JUMP JUMPDEST SWAP1 POP PUSH2 0x2BFD PUSH2 0x2BEB DUP3 PUSH2 0x2BE6 DUP6 PUSH2 0x51C2 JUMP JUMPDEST PUSH2 0x3C2B JUMP JUMPDEST DUP4 PUSH2 0x100 ADD MLOAD SWAP1 PUSH4 0xFFFFFFFF PUSH2 0x4BC8 AND JUMP JUMPDEST SWAP4 POP DUP2 PUSH1 0x60 ADD MLOAD SWAP3 POP POP POP SWAP3 POP SWAP3 SWAP1 POP JUMP JUMPDEST PUSH1 0x0 PUSH1 0x1 PUSH1 0x1 PUSH1 0xA0 SHL SUB DUP3 AND DUP2 PUSH1 0x5 PUSH2 0x2C26 PUSH2 0x5C4D JUMP JUMPDEST SWAP1 PUSH2 0x100 EXP SWAP1 DIV PUSH1 0x1 PUSH1 0x1 PUSH1 0xA0 SHL SUB AND PUSH1 0x1 PUSH1 0x1 PUSH1 0xA0 SHL SUB AND EQ PUSH2 0x2C4C JUMPI POP PUSH1 0x0 PUSH2 0x1571 JUMP JUMPDEST PUSH1 0x0 JUMPDEST PUSH1 0x7 DUP1 PUSH2 0x2C5A PUSH2 0x5C4D JUMP JUMPDEST SWAP1 POP DUP2 LT ISZERO PUSH2 0x2DE0 JUMPI PUSH1 0x0 PUSH1 0x7 DUP3 DUP2 PUSH2 0x2C71 PUSH2 0x5C4D JUMP JUMPDEST DUP2 LT PUSH2 0x2C79 JUMPI INVALID JUMPDEST SWAP1 PUSH1 0x0 MSTORE PUSH1 0x20 PUSH1 0x0 KECCAK256 ADD PUSH2 0x2C8B PUSH2 0x5C4D JUMP JUMPDEST PUSH1 0x0 DUP2 DUP2 MSTORE PUSH1 0x6 PUSH1 0x20 MSTORE SWAP1 SWAP2 POP PUSH1 0x40 SWAP1 KECCAK256 PUSH1 0x0 SWAP1 PUSH2 0x2CA7 PUSH2 0x5C4D JUMP JUMPDEST PUSH1 0x1 PUSH1 0x1 PUSH1 0xA0 SHL SUB PUSH2 0x100 SWAP3 SWAP1 SWAP3 EXP SWAP1 DIV AND PUSH1 0x0 PUSH1 0x5 PUSH2 0x2CC5 PUSH2 0x5C4D JUMP JUMPDEST SWAP1 PUSH2 0x100 EXP SWAP1 DIV PUSH1 0x1 PUSH1 0x1 PUSH1 0xA0 SHL SUB AND PUSH1 0x1 PUSH1 0x1 PUSH1 0xA0 SHL SUB AND PUSH4 0x21F8A721 DUP4 PUSH1 0x40 MLOAD PUSH1 0x1 PUSH1 0x1 PUSH1 0xE0 SHL SUB NOT PUSH1 0xE0 DUP5 SWAP1 SHL AND DUP2 MSTORE PUSH1 0x4 DUP2 ADD SWAP2 SWAP1 SWAP2 MSTORE PUSH1 0x24 ADD PUSH1 0x20 PUSH1 0x40 MLOAD DUP1 DUP4 SUB DUP2 DUP7 DUP1 PUSH2 0x2D16 PUSH2 0x5D3C JUMP JUMPDEST ISZERO DUP1 ISZERO PUSH2 0x2D2B JUMPI PUSH1 0x0 DUP1 PUSH2 0x2D28 PUSH2 0x5BE2 JUMP JUMPDEST POP POP JUMPDEST POP GAS PUSH2 0x2D35 PUSH2 0x5D88 JUMP JUMPDEST POP POP POP POP POP ISZERO DUP1 ISZERO PUSH2 0x2D54 JUMPI RETURNDATASIZE PUSH1 0x0 DUP1 RETURNDATACOPY RETURNDATASIZE PUSH1 0x0 PUSH2 0x2D51 PUSH2 0x5BE2 JUMP JUMPDEST POP POP JUMPDEST POP POP POP POP PUSH1 0x40 MLOAD RETURNDATASIZE PUSH1 0x20 DUP2 LT ISZERO PUSH2 0x2D73 JUMPI PUSH1 0x0 DUP1 PUSH2 0x2D70 PUSH2 0x5BE2 JUMP JUMPDEST POP POP JUMPDEST DUP2 ADD SWAP1 DUP1 DUP1 MLOAD PUSH1 0x1 PUSH1 0x1 PUSH1 0xA0 SHL SUB AND SWAP4 SWAP1 SWAP4 EQ ISZERO SWAP3 POP DUP3 SWAP2 POP PUSH2 0x2DC7 SWAP1 POP JUMPI POP PUSH1 0x0 DUP2 DUP2 MSTORE PUSH1 0x6 PUSH1 0x20 MSTORE PUSH1 0x40 DUP2 KECCAK256 PUSH1 0x0 SWAP1 PUSH2 0x2DAC PUSH2 0x5C4D JUMP JUMPDEST SWAP1 PUSH2 0x100 EXP SWAP1 DIV PUSH1 0x1 PUSH1 0x1 PUSH1 0xA0 SHL SUB AND PUSH1 0x1 PUSH1 0x1 PUSH1 0xA0 SHL SUB AND EQ JUMPDEST ISZERO PUSH2 0x2DD7 JUMPI PUSH1 0x0 SWAP3 POP POP POP PUSH2 0x1571 JUMP JUMPDEST POP PUSH1 0x1 ADD PUSH2 0x2C4F JUMP JUMPDEST POP PUSH1 0x1 SWAP3 SWAP2 POP POP JUMP JUMPDEST PUSH1 0xD PUSH2 0x1142 PUSH2 0x5C4D JUMP JUMPDEST PUSH1 0x0 PUSH1 0x3 PUSH2 0x2DFF PUSH2 0x5C4D JUMP JUMPDEST SWAP1 PUSH2 0x100 EXP SWAP1 DIV PUSH1 0xFF AND ISZERO PUSH2 0x2E4E JUMPI PUSH1 0x40 MLOAD PUSH3 0x461BCD PUSH1 0xE5 SHL DUP2 MSTORE PUSH1 0x4 ADD DUP1 DUP1 PUSH1 0x20 ADD DUP3 DUP2 SUB DUP3 MSTORE PUSH1 0x3C DUP2 MSTORE PUSH1 0x20 ADD DUP1 PUSH2 0x6210 PUSH1 0x3C SWAP2 CODECOPY PUSH1 0x40 ADD SWAP2 POP POP PUSH1 0x40 MLOAD DUP1 SWAP2 SUB SWAP1 PUSH2 0x2E4B PUSH2 0x5BE2 JUMP JUMPDEST POP POP JUMPDEST PUSH1 0x1 PUSH1 0x4 PUSH1 0x0 DUP3 DUP3 PUSH2 0x2E5E PUSH2 0x5C4D JUMP JUMPDEST ADD SWAP3 POP POP DUP2 SWAP1 PUSH2 0x2E6C PUSH2 0x5CA8 JUMP JUMPDEST POP POP POP PUSH1 0x0 PUSH1 0x4 PUSH2 0x2E7B PUSH2 0x5C4D JUMP JUMPDEST SWAP1 POP PUSH2 0x2E85 PUSH2 0x4768 JUMP JUMPDEST PUSH1 0x1 PUSH1 0x1 PUSH1 0xA0 SHL SUB AND PUSH4 0x2528F0FE PUSH3 0x8AA89 PUSH1 0xEB SHL PUSH1 0x40 MLOAD PUSH1 0x1 PUSH1 0x1 PUSH1 0xE0 SHL SUB NOT PUSH1 0xE0 DUP5 SWAP1 SHL AND DUP2 MSTORE PUSH1 0x4 DUP2 ADD SWAP2 SWAP1 SWAP2 MSTORE PUSH1 0x24 ADD PUSH1 0x20 PUSH1 0x40 MLOAD DUP1 DUP4 SUB DUP2 DUP7 DUP1 PUSH2 0x2ECC PUSH2 0x5D3C JUMP JUMPDEST ISZERO DUP1 ISZERO PUSH2 0x2EE1 JUMPI PUSH1 0x0 DUP1 PUSH2 0x2EDE PUSH2 0x5BE2 JUMP JUMPDEST POP POP JUMPDEST POP GAS PUSH2 0x2EEB PUSH2 0x5D88 JUMP JUMPDEST POP POP POP POP POP ISZERO DUP1 ISZERO PUSH2 0x2F0A JUMPI RETURNDATASIZE PUSH1 0x0 DUP1 RETURNDATACOPY RETURNDATASIZE PUSH1 0x0 PUSH2 0x2F07 PUSH2 0x5BE2 JUMP JUMPDEST POP POP JUMPDEST POP POP POP POP PUSH1 0x40 MLOAD RETURNDATASIZE PUSH1 0x20 DUP2 LT ISZERO PUSH2 0x2F29 JUMPI PUSH1 0x0 DUP1 PUSH2 0x2F26 PUSH2 0x5BE2 JUMP JUMPDEST POP POP JUMPDEST DUP2 ADD SWAP1 DUP1 DUP1 MLOAD ISZERO SWAP3 POP PUSH2 0x2F7C SWAP2 POP POP JUMPI PUSH1 0x40 MLOAD PUSH3 0x461BCD PUSH1 0xE5 SHL DUP2 MSTORE PUSH1 0x20 PUSH1 0x4 DUP3 ADD MSTORE PUSH1 0x1E PUSH1 0x24 DUP3 ADD MSTORE PUSH1 0x0 DUP1 MLOAD PUSH1 0x20 PUSH2 0x6127 DUP4 CODECOPY DUP2 MLOAD SWAP2 MSTORE PUSH1 0x44 DUP3 ADD MSTORE PUSH1 0x64 ADD PUSH1 0x40 MLOAD DUP1 SWAP2 SUB SWAP1 PUSH2 0x2F79 PUSH2 0x5BE2 JUMP JUMPDEST POP POP JUMPDEST PUSH1 0x0 DUP3 GT PUSH2 0x2FC4 JUMPI PUSH1 0x40 MLOAD PUSH3 0x461BCD PUSH1 0xE5 SHL DUP2 MSTORE PUSH1 0x4 ADD DUP1 DUP1 PUSH1 0x20 ADD DUP3 DUP2 SUB DUP3 MSTORE PUSH1 0x29 DUP2 MSTORE PUSH1 0x20 ADD DUP1 PUSH2 0x60FE PUSH1 0x29 SWAP2 CODECOPY PUSH1 0x40 ADD SWAP2 POP POP PUSH1 0x40 MLOAD DUP1 SWAP2 SUB SWAP1 PUSH2 0x2FC1 PUSH2 0x5BE2 JUMP JUMPDEST POP POP JUMPDEST PUSH2 0x2FCC PUSH2 0x47B7 JUMP JUMPDEST PUSH1 0x1 PUSH1 0x1 PUSH1 0xA0 SHL SUB AND PUSH4 0x7C312541 PUSH1 0x40 MLOAD DUP2 PUSH4 0xFFFFFFFF AND PUSH1 0xE0 SHL DUP2 MSTORE PUSH1 0x4 ADD PUSH1 0x0 PUSH1 0x40 MLOAD DUP1 DUP4 SUB DUP2 DUP7 DUP1 PUSH2 0x2FFF PUSH2 0x5D3C JUMP JUMPDEST ISZERO DUP1 ISZERO PUSH2 0x3014 JUMPI PUSH1 0x0 DUP1 PUSH2 0x3011 PUSH2 0x5BE2 JUMP JUMPDEST POP POP JUMPDEST POP GAS PUSH2 0x301E PUSH2 0x5D88 JUMP JUMPDEST POP POP POP POP POP ISZERO DUP1 ISZERO PUSH2 0x303D JUMPI RETURNDATASIZE PUSH1 0x0 DUP1 RETURNDATACOPY RETURNDATASIZE PUSH1 0x0 PUSH2 0x303A PUSH2 0x5BE2 JUMP JUMPDEST POP POP JUMPDEST POP POP POP POP PUSH1 0xF PUSH1 0x0 SWAP1 PUSH2 0x304E PUSH2 0x5C4D JUMP JUMPDEST PUSH1 0xFF PUSH2 0x100 SWAP3 SWAP1 SWAP3 EXP SWAP1 DIV AND ISZERO PUSH2 0x30B4 JUMPI PUSH1 0x40 MLOAD PUSH3 0x461BCD PUSH1 0xE5 SHL DUP2 MSTORE PUSH1 0x20 PUSH1 0x4 DUP3 ADD MSTORE PUSH1 0x1E PUSH1 0x24 DUP3 ADD MSTORE PUSH32 0x4C6F616E7320617265206E6F77206265696E67206C6971756964617465640000 PUSH1 0x44 DUP3 ADD MSTORE PUSH1 0x64 ADD PUSH1 0x40 MLOAD DUP1 SWAP2 SUB SWAP1 PUSH2 0x30B1 PUSH2 0x5BE2 JUMP JUMPDEST POP POP JUMPDEST PUSH2 0x30BC PUSH2 0x5E87 JUMP JUMPDEST PUSH2 0x30CE GAS PUSH2 0x30C8 PUSH2 0x5E41 JUMP JUMPDEST DUP6 PUSH2 0x4850 JUMP JUMPDEST SWAP1 POP PUSH2 0x30D9 DUP2 PUSH2 0x49F8 JUMP JUMPDEST PUSH1 0x0 PUSH2 0x30F0 DUP5 DUP4 PUSH1 0x20 ADD MLOAD SWAP1 PUSH4 0xFFFFFFFF PUSH2 0x4E43 AND JUMP JUMPDEST SWAP1 POP PUSH2 0x30FA PUSH2 0x5E87 JUMP JUMPDEST PUSH2 0x3104 DUP4 DUP4 PUSH2 0x4FDD JUMP JUMPDEST SWAP1 POP PUSH1 0x0 PUSH2 0x3111 DUP3 PUSH2 0x4AA1 JUMP JUMPDEST POP POP SWAP1 POP PUSH1 0x11 PUSH2 0x311F PUSH2 0x5C4D JUMP JUMPDEST DUP2 GT PUSH2 0x3165 JUMPI PUSH1 0x40 MLOAD PUSH3 0x461BCD PUSH1 0xE5 SHL DUP2 MSTORE PUSH1 0x4 ADD DUP1 DUP1 PUSH1 0x20 ADD DUP3 DUP2 SUB DUP3 MSTORE PUSH1 0x31 DUP2 MSTORE PUSH1 0x20 ADD DUP1 PUSH2 0x602C PUSH1 0x31 SWAP2 CODECOPY PUSH1 0x40 ADD SWAP2 POP POP PUSH1 0x40 MLOAD DUP1 SWAP2 SUB SWAP1 PUSH2 0x3162 PUSH2 0x5BE2 JUMP JUMPDEST POP POP JUMPDEST GAS PUSH2 0x316E PUSH2 0x5E41 JUMP JUMPDEST PUSH1 0x1 PUSH1 0x1 PUSH1 0xA0 SHL SUB AND DUP7 ISZERO PUSH2 0x8FC MUL DUP8 PUSH1 0x40 MLOAD PUSH1 0x0 PUSH1 0x40 MLOAD DUP1 DUP4 SUB DUP2 DUP6 DUP9 DUP9 PUSH2 0x3195 PUSH2 0x5EEA JUMP JUMPDEST POP POP POP POP POP POP SWAP4 POP POP POP POP ISZERO DUP1 ISZERO PUSH2 0x31BA JUMPI RETURNDATASIZE PUSH1 0x0 DUP1 RETURNDATACOPY RETURNDATASIZE PUSH1 0x0 PUSH2 0x31B7 PUSH2 0x5BE2 JUMP JUMPDEST POP POP JUMPDEST POP GAS PUSH2 0x31C4 PUSH2 0x5E41 JUMP JUMPDEST PUSH1 0x1 PUSH1 0x1 PUSH1 0xA0 SHL SUB AND PUSH32 0xFAE26280BCA25D80F1501A9E363C73D3845E651C9AAAE54F1FC09A9DCD5F3303 DUP9 DUP9 DUP6 PUSH1 0x20 ADD MLOAD PUSH1 0x40 MLOAD DUP1 DUP5 DUP2 MSTORE PUSH1 0x20 ADD DUP4 DUP2 MSTORE PUSH1 0x20 ADD DUP3 DUP2 MSTORE PUSH1 0x20 ADD SWAP4 POP POP POP POP PUSH1 0x40 MLOAD DUP1 SWAP2 SUB SWAP1 LOG2 POP POP POP POP PUSH1 0x4 PUSH2 0x3226 PUSH2 0x5C4D JUMP JUMPDEST DUP2 EQ PUSH2 0x326F JUMPI PUSH1 0x40 MLOAD PUSH3 0x461BCD PUSH1 0xE5 SHL DUP2 MSTORE PUSH1 0x20 PUSH1 0x4 DUP3 ADD MSTORE PUSH1 0x1F PUSH1 0x24 DUP3 ADD MSTORE PUSH1 0x0 DUP1 MLOAD PUSH1 0x20 PUSH2 0x605D DUP4 CODECOPY DUP2 MLOAD SWAP2 MSTORE PUSH1 0x44 DUP3 ADD MSTORE PUSH1 0x64 ADD PUSH1 0x40 MLOAD DUP1 SWAP2 SUB SWAP1 PUSH2 0x326C PUSH2 0x5BE2 JUMP JUMPDEST POP POP JUMPDEST POP POP POP JUMP JUMPDEST PUSH1 0x0 PUSH1 0x1 PUSH2 0x3280 PUSH2 0x5C4D JUMP JUMPDEST SWAP1 PUSH2 0x100 EXP SWAP1 DIV PUSH1 0x1 PUSH1 0x1 PUSH1 0xA0 SHL SUB AND PUSH1 0x1 PUSH1 0x1 PUSH1 0xA0 SHL SUB AND GAS PUSH2 0x32A2 PUSH2 0x5E41 JUMP JUMPDEST PUSH1 0x1 PUSH1 0x1 PUSH1 0xA0 SHL SUB AND EQ PUSH2 0x32F0 JUMPI PUSH1 0x40 MLOAD PUSH3 0x461BCD PUSH1 0xE5 SHL DUP2 MSTORE PUSH1 0x4 ADD DUP1 DUP1 PUSH1 0x20 ADD DUP3 DUP2 SUB DUP3 MSTORE PUSH1 0x35 DUP2 MSTORE PUSH1 0x20 ADD DUP1 PUSH2 0x607D PUSH1 0x35 SWAP2 CODECOPY PUSH1 0x40 ADD SWAP2 POP POP PUSH1 0x40 MLOAD DUP1 SWAP2 SUB SWAP1 PUSH2 0x32ED PUSH2 0x5BE2 JUMP JUMPDEST POP POP JUMPDEST PUSH32 0xB532073B38C83145E3E5135377A08BF9AAB55BC0FD7C1179CD4FB995D2A5159C PUSH1 0x0 DUP1 PUSH2 0x331C PUSH2 0x5C4D JUMP JUMPDEST SWAP1 PUSH2 0x100 EXP SWAP1 DIV PUSH1 0x1 PUSH1 0x1 PUSH1 0xA0 SHL SUB AND PUSH1 0x1 PUSH1 0x0 SWAP1 PUSH2 0x3339 PUSH2 0x5C4D JUMP JUMPDEST SWAP1 PUSH2 0x100 EXP SWAP1 DIV PUSH1 0x1 PUSH1 0x1 PUSH1 0xA0 SHL SUB AND PUSH1 0x40 MLOAD PUSH1 0x1 PUSH1 0x1 PUSH1 0xA0 SHL SUB SWAP3 DUP4 AND DUP2 MSTORE SWAP2 AND PUSH1 0x20 DUP3 ADD MSTORE PUSH1 0x40 SWAP1 DUP2 ADD SWAP1 MLOAD DUP1 SWAP2 SUB SWAP1 LOG1 PUSH1 0x0 PUSH1 0x1 PUSH2 0x3378 PUSH2 0x5C4D JUMP JUMPDEST SWAP1 PUSH2 0x100 EXP SWAP1 DIV PUSH1 0x1 PUSH1 0x1 PUSH1 0xA0 SHL SUB AND PUSH1 0x0 DUP1 PUSH2 0x100 EXP DUP2 PUSH2 0x3398 PUSH2 0x5C4D JUMP JUMPDEST DUP2 PUSH1 0x1 PUSH1 0x1 PUSH1 0xA0 SHL SUB MUL NOT AND SWAP1 DUP4 PUSH1 0x1 PUSH1 0x1 PUSH1 0xA0 SHL SUB AND MUL OR SWAP1 PUSH2 0x33BA PUSH2 0x5CA8 JUMP JUMPDEST POP POP POP PUSH1 0x0 PUSH1 0x1 PUSH1 0x0 PUSH2 0x100 EXP DUP2 PUSH2 0x33D0 PUSH2 0x5C4D JUMP JUMPDEST DUP2 PUSH1 0x1 PUSH1 0x1 PUSH1 0xA0 SHL SUB MUL NOT AND SWAP1 DUP4 PUSH1 0x1 PUSH1 0x1 PUSH1 0xA0 SHL SUB AND MUL OR SWAP1 PUSH2 0x326F PUSH2 0x5CA8 JUMP JUMPDEST PUSH1 0x9 PUSH2 0x1142 PUSH2 0x5C4D JUMP JUMPDEST PUSH1 0x0 DUP1 PUSH1 0x0 DUP1 PUSH1 0x0 DUP1 PUSH1 0x0 DUP1 PUSH1 0x0 DUP1 PUSH1 0x0 DUP1 PUSH1 0x0 PUSH1 0x8 PUSH2 0x341A PUSH2 0x5C4D JUMP JUMPDEST SWAP13 POP PUSH2 0x3424 PUSH2 0x4005 JUMP JUMPDEST SWAP12 POP PUSH1 0x9 PUSH2 0x3430 PUSH2 0x5C4D JUMP JUMPDEST SWAP11 POP PUSH1 0xA PUSH2 0x343C PUSH2 0x5C4D JUMP JUMPDEST SWAP10 POP PUSH1 0xB PUSH2 0x3448 PUSH2 0x5C4D JUMP JUMPDEST SWAP9 POP PUSH1 0xC PUSH2 0x3454 PUSH2 0x5C4D JUMP JUMPDEST SWAP8 POP PUSH1 0xD PUSH2 0x3460 PUSH2 0x5C4D JUMP JUMPDEST SWAP7 POP PUSH1 0x13 PUSH2 0x346C PUSH2 0x5C4D JUMP JUMPDEST SWAP6 POP PUSH1 0x14 PUSH2 0x3478 PUSH2 0x5C4D JUMP JUMPDEST SWAP5 POP PUSH1 0x15 PUSH2 0x3484 PUSH2 0x5C4D JUMP JUMPDEST SWAP4 POP PUSH1 0x0 SWAP3 POP PUSH1 0x10 PUSH2 0x3494 PUSH2 0x5C4D JUMP JUMPDEST SWAP2 POP PUSH1 0x0 PUSH1 0xF PUSH2 0x34A2 PUSH2 0x5C4D JUMP JUMPDEST SWAP1 PUSH2 0x100 EXP SWAP1 DIV PUSH1 0xFF AND SWAP1 POP SWAP1 SWAP2 SWAP3 SWAP4 SWAP5 SWAP6 SWAP7 SWAP8 SWAP9 SWAP10 SWAP11 SWAP12 SWAP13 JUMP JUMPDEST PUSH2 0x34C5 PUSH2 0x4768 JUMP JUMPDEST PUSH1 0x1 PUSH1 0x1 PUSH1 0xA0 SHL SUB AND PUSH4 0x2528F0FE PUSH3 0x8AA89 PUSH1 0xEB SHL PUSH1 0x40 MLOAD PUSH1 0x1 PUSH1 0x1 PUSH1 0xE0 SHL SUB NOT PUSH1 0xE0 DUP5 SWAP1 SHL AND DUP2 MSTORE PUSH1 0x4 DUP2 ADD SWAP2 SWAP1 SWAP2 MSTORE PUSH1 0x24 ADD PUSH1 0x20 PUSH1 0x40 MLOAD DUP1 DUP4 SUB DUP2 DUP7 DUP1 PUSH2 0x350C PUSH2 0x5D3C JUMP JUMPDEST ISZERO DUP1 ISZERO PUSH2 0x3521 JUMPI PUSH1 0x0 DUP1 PUSH2 0x351E PUSH2 0x5BE2 JUMP JUMPDEST POP POP JUMPDEST POP GAS PUSH2 0x352B PUSH2 0x5D88 JUMP JUMPDEST POP POP POP POP POP ISZERO DUP1 ISZERO PUSH2 0x354A JUMPI RETURNDATASIZE PUSH1 0x0 DUP1 RETURNDATACOPY RETURNDATASIZE PUSH1 0x0 PUSH2 0x3547 PUSH2 0x5BE2 JUMP JUMPDEST POP POP JUMPDEST POP POP POP POP PUSH1 0x40 MLOAD RETURNDATASIZE PUSH1 0x20 DUP2 LT ISZERO PUSH2 0x3569 JUMPI PUSH1 0x0 DUP1 PUSH2 0x3566 PUSH2 0x5BE2 JUMP JUMPDEST POP POP JUMPDEST DUP2 ADD SWAP1 DUP1 DUP1 MLOAD ISZERO SWAP3 POP PUSH2 0x35BC SWAP2 POP POP JUMPI PUSH1 0x40 MLOAD PUSH3 0x461BCD PUSH1 0xE5 SHL DUP2 MSTORE PUSH1 0x20 PUSH1 0x4 DUP3 ADD MSTORE PUSH1 0x1E PUSH1 0x24 DUP3 ADD MSTORE PUSH1 0x0 DUP1 MLOAD PUSH1 0x20 PUSH2 0x6127 DUP4 CODECOPY DUP2 MLOAD SWAP2 MSTORE PUSH1 0x44 DUP3 ADD MSTORE PUSH1 0x64 ADD PUSH1 0x40 MLOAD DUP1 SWAP2 SUB SWAP1 PUSH2 0x35B9 PUSH2 0x5BE2 JUMP JUMPDEST POP POP JUMPDEST PUSH2 0x35C4 PUSH2 0x47B7 JUMP JUMPDEST PUSH1 0x1 PUSH1 0x1 PUSH1 0xA0 SHL SUB AND PUSH4 0x86DABD1 PUSH1 0x40 MLOAD DUP2 PUSH4 0xFFFFFFFF AND PUSH1 0xE0 SHL DUP2 MSTORE PUSH1 0x4 ADD PUSH1 0x0 PUSH1 0x40 MLOAD DUP1 DUP4 SUB DUP2 DUP7 DUP1 PUSH2 0x35F7 PUSH2 0x5D3C JUMP JUMPDEST ISZERO DUP1 ISZERO PUSH2 0x360C JUMPI PUSH1 0x0 DUP1 PUSH2 0x3609 PUSH2 0x5BE2 JUMP JUMPDEST POP POP JUMPDEST POP GAS PUSH2 0x3616 PUSH2 0x5D88 JUMP JUMPDEST POP POP POP POP POP ISZERO DUP1 ISZERO PUSH2 0x3635 JUMPI RETURNDATASIZE PUSH1 0x0 DUP1 RETURNDATACOPY RETURNDATASIZE PUSH1 0x0 PUSH2 0x3632 PUSH2 0x5BE2 JUMP JUMPDEST POP POP JUMPDEST POP POP POP POP DUP1 PUSH2 0x3642 PUSH2 0x4805 JUMP JUMPDEST PUSH1 0x1 PUSH1 0x1 PUSH1 0xA0 SHL SUB AND PUSH4 0x70A08231 GAS PUSH2 0x3659 PUSH2 0x5E41 JUMP JUMPDEST PUSH1 0x40 MLOAD PUSH1 0x1 PUSH1 0x1 PUSH1 0xE0 SHL SUB NOT PUSH1 0xE0 DUP5 SWAP1 SHL AND DUP2 MSTORE PUSH1 0x1 PUSH1 0x1 PUSH1 0xA0 SHL SUB SWAP1 SWAP2 AND PUSH1 0x4 DUP3 ADD MSTORE PUSH1 0x24 ADD PUSH1 0x20 PUSH1 0x40 MLOAD DUP1 DUP4 SUB DUP2 DUP7 DUP1 PUSH2 0x3693 PUSH2 0x5D3C JUMP JUMPDEST ISZERO DUP1 ISZERO PUSH2 0x36A8 JUMPI PUSH1 0x0 DUP1 PUSH2 0x36A5 PUSH2 0x5BE2 JUMP JUMPDEST POP POP JUMPDEST POP GAS PUSH2 0x36B2 PUSH2 0x5D88 JUMP JUMPDEST POP POP POP POP POP ISZERO DUP1 ISZERO PUSH2 0x36D1 JUMPI RETURNDATASIZE PUSH1 0x0 DUP1 RETURNDATACOPY RETURNDATASIZE PUSH1 0x0 PUSH2 0x36CE PUSH2 0x5BE2 JUMP JUMPDEST POP POP JUMPDEST POP POP POP POP PUSH1 0x40 MLOAD RETURNDATASIZE PUSH1 0x20 DUP2 LT ISZERO PUSH2 0x36F0 JUMPI PUSH1 0x0 DUP1 PUSH2 0x36ED PUSH2 0x5BE2 JUMP JUMPDEST POP POP JUMPDEST DUP2 ADD SWAP1 DUP1 DUP1 MLOAD SWAP4 SWAP1 SWAP4 LT ISZERO SWAP3 POP PUSH2 0x3753 SWAP2 POP POP JUMPI PUSH1 0x40 MLOAD PUSH3 0x461BCD PUSH1 0xE5 SHL DUP2 MSTORE PUSH1 0x20 PUSH1 0x4 DUP3 ADD MSTORE PUSH1 0x17 PUSH1 0x24 DUP3 ADD MSTORE PUSH23 0x4E6F7420656E6F75676820735553442062616C616E6365 PUSH1 0x48 SHL PUSH1 0x44 DUP3 ADD MSTORE PUSH1 0x64 ADD PUSH1 0x40 MLOAD DUP1 SWAP2 SUB SWAP1 PUSH2 0x3750 PUSH2 0x5BE2 JUMP JUMPDEST POP POP JUMPDEST PUSH2 0x375B PUSH2 0x5E87 JUMP JUMPDEST PUSH2 0x3765 DUP5 DUP5 PUSH2 0x4850 JUMP JUMPDEST SWAP1 POP PUSH2 0x3770 DUP2 PUSH2 0x49F8 JUMP JUMPDEST PUSH1 0x0 PUSH2 0x378C DUP3 PUSH2 0x100 ADD MLOAD DUP4 PUSH1 0x40 ADD MLOAD SWAP1 PUSH4 0xFFFFFFFF PUSH2 0x4BC8 AND JUMP JUMPDEST SWAP1 POP PUSH1 0x0 PUSH2 0x379D DUP3 PUSH2 0x2BE6 DUP6 PUSH2 0x51C2 JUMP JUMPDEST SWAP1 POP PUSH1 0x0 PUSH2 0x37B7 DUP3 DUP6 PUSH2 0x100 ADD MLOAD SWAP1 PUSH4 0xFFFFFFFF PUSH2 0x4BC8 AND JUMP JUMPDEST SWAP1 POP PUSH1 0x0 DUP1 PUSH1 0x0 DUP1 PUSH2 0x37CE DUP10 DUP7 DUP11 PUSH1 0x40 ADD MLOAD PUSH2 0x4C30 JUMP JUMPDEST SWAP4 POP SWAP4 POP SWAP4 POP SWAP4 POP PUSH2 0x37DE PUSH2 0x4805 JUMP JUMPDEST PUSH1 0x1 PUSH1 0x1 PUSH1 0xA0 SHL SUB AND PUSH4 0x9DC29FAC GAS PUSH2 0x37F5 PUSH2 0x5E41 JUMP JUMPDEST DUP12 PUSH1 0x40 MLOAD PUSH1 0x1 PUSH1 0x1 PUSH1 0xE0 SHL SUB NOT PUSH1 0xE0 DUP6 SWAP1 SHL AND DUP2 MSTORE PUSH1 0x1 PUSH1 0x1 PUSH1 0xA0 SHL SUB SWAP1 SWAP3 AND PUSH1 0x4 DUP4 ADD MSTORE PUSH1 0x24 DUP3 ADD MSTORE PUSH1 0x44 ADD PUSH1 0x0 PUSH1 0x40 MLOAD DUP1 DUP4 SUB DUP2 PUSH1 0x0 DUP8 DUP1 PUSH2 0x3837 PUSH2 0x5D3C JUMP JUMPDEST ISZERO DUP1 ISZERO PUSH2 0x384C JUMPI PUSH1 0x0 DUP1 PUSH2 0x3849 PUSH2 0x5BE2 JUMP JUMPDEST POP POP JUMPDEST POP GAS PUSH2 0x3856 PUSH2 0x5EEA JUMP JUMPDEST POP POP POP POP POP POP ISZERO DUP1 ISZERO PUSH2 0x3876 JUMPI RETURNDATASIZE PUSH1 0x0 DUP1 RETURNDATACOPY RETURNDATASIZE PUSH1 0x0 PUSH2 0x3873 PUSH2 0x5BE2 JUMP JUMPDEST POP POP JUMPDEST POP POP POP POP PUSH2 0x3884 DUP5 DUP5 PUSH2 0x4CA9 JUMP JUMPDEST PUSH2 0x3893 DUP9 DUP3 DUP5 GAS PUSH2 0x1BB7 PUSH2 0x5CF6 JUMP JUMPDEST DUP11 PUSH1 0x1 PUSH1 0x1 PUSH1 0xA0 SHL SUB AND PUSH32 0x2CEBE3C4A7E8E81CA2035A6CB3EE450BB6401D9B6636652E183583F047049572 DUP12 DUP12 DUP5 PUSH1 0x40 MLOAD DUP1 DUP5 DUP2 MSTORE PUSH1 0x20 ADD DUP4 DUP2 MSTORE PUSH1 0x20 ADD DUP3 DUP2 MSTORE PUSH1 0x20 ADD SWAP4 POP POP POP POP PUSH1 0x40 MLOAD DUP1 SWAP2 SUB SWAP1 LOG2 POP POP POP POP POP POP POP POP POP POP POP JUMP JUMPDEST PUSH1 0x0 PUSH2 0x38FB PUSH2 0x5E87 JUMP JUMPDEST PUSH2 0x3905 DUP5 DUP5 PUSH2 0x4850 JUMP JUMPDEST SWAP1 POP PUSH1 0x0 PUSH2 0x392F PUSH2 0x3926 DUP4 PUSH2 0x100 ADD MLOAD DUP5 PUSH1 0x40 ADD MLOAD SWAP1 PUSH4 0xFFFFFFFF PUSH2 0x4BC8 AND JUMP JUMPDEST PUSH2 0x2BE6 DUP5 PUSH2 0x51C2 JUMP JUMPDEST SWAP1 POP PUSH2 0x3947 DUP2 DUP4 PUSH2 0x100 ADD MLOAD SWAP1 PUSH4 0xFFFFFFFF PUSH2 0x4BC8 AND JUMP JUMPDEST SWAP6 SWAP5 POP POP POP POP POP JUMP JUMPDEST PUSH1 0x0 DUP1 PUSH2 0x1117 PUSH2 0x5C4D JUMP JUMPDEST PUSH1 0x0 PUSH2 0x1E33 PUSH2 0x3968 PUSH2 0x4768 JUMP JUMPDEST PUSH1 0x1 PUSH1 0x1 PUSH1 0xA0 SHL SUB AND PUSH4 0xAC82F608 PUSH3 0x8AA89 PUSH1 0xEB SHL PUSH1 0x40 MLOAD PUSH1 0x1 PUSH1 0x1 PUSH1 0xE0 SHL SUB NOT PUSH1 0xE0 DUP5 SWAP1 SHL AND DUP2 MSTORE PUSH1 0x4 DUP2 ADD SWAP2 SWAP1 SWAP2 MSTORE PUSH1 0x24 ADD PUSH1 0x20 PUSH1 0x40 MLOAD DUP1 DUP4 SUB DUP2 DUP7 DUP1 PUSH2 0x39AF PUSH2 0x5D3C JUMP JUMPDEST ISZERO DUP1 ISZERO PUSH2 0x39C4 JUMPI PUSH1 0x0 DUP1 PUSH2 0x39C1 PUSH2 0x5BE2 JUMP JUMPDEST POP POP JUMPDEST POP GAS PUSH2 0x39CE PUSH2 0x5D88 JUMP JUMPDEST POP POP POP POP POP ISZERO DUP1 ISZERO PUSH2 0x39ED JUMPI RETURNDATASIZE PUSH1 0x0 DUP1 RETURNDATACOPY RETURNDATASIZE PUSH1 0x0 PUSH2 0x39EA PUSH2 0x5BE2 JUMP JUMPDEST POP POP JUMPDEST POP POP POP POP PUSH1 0x40 MLOAD RETURNDATASIZE PUSH1 0x20 DUP2 LT ISZERO PUSH2 0x3A0C JUMPI PUSH1 0x0 DUP1 PUSH2 0x3A09 PUSH2 0x5BE2 JUMP JUMPDEST POP POP JUMPDEST DUP2 ADD SWAP1 DUP1 DUP1 MLOAD SWAP3 POP PUSH2 0x3A30 SWAP2 POP PUSH2 0x3A23 SWAP1 POP PUSH2 0x4005 JUMP JUMPDEST DUP6 SWAP1 PUSH4 0xFFFFFFFF PUSH2 0x4E19 AND JUMP JUMPDEST SWAP1 PUSH4 0xFFFFFFFF PUSH2 0x4E19 AND JUMP JUMPDEST PUSH1 0x2 PUSH2 0x1142 PUSH2 0x5C4D JUMP JUMPDEST PUSH2 0x3A4E PUSH2 0x46EE JUMP JUMPDEST PUSH20 0x0 PUSH4 0x907AF6C0 PUSH1 0x40 MLOAD DUP2 PUSH4 0xFFFFFFFF AND PUSH1 0xE0 SHL DUP2 MSTORE PUSH1 0x4 ADD PUSH1 0x20 PUSH1 0x40 MLOAD DUP1 DUP4 SUB DUP2 DUP7 DUP1 PUSH2 0x3A8D PUSH2 0x5D3C JUMP JUMPDEST ISZERO DUP1 ISZERO PUSH2 0x3AA2 JUMPI PUSH1 0x0 DUP1 PUSH2 0x3A9F PUSH2 0x5BE2 JUMP JUMPDEST POP POP JUMPDEST POP GAS PUSH2 0x3AAC PUSH2 0x5FA3 JUMP JUMPDEST POP POP POP POP POP ISZERO DUP1 ISZERO PUSH2 0x3ACB JUMPI RETURNDATASIZE PUSH1 0x0 DUP1 RETURNDATACOPY RETURNDATASIZE PUSH1 0x0 PUSH2 0x3AC8 PUSH2 0x5BE2 JUMP JUMPDEST POP POP JUMPDEST POP POP POP POP PUSH1 0x40 MLOAD RETURNDATASIZE PUSH1 0x20 DUP2 LT ISZERO PUSH2 0x3AEA JUMPI PUSH1 0x0 DUP1 PUSH2 0x3AE7 PUSH2 0x5BE2 JUMP JUMPDEST POP POP JUMPDEST DUP2 ADD SWAP1 DUP1 DUP1 MLOAD DUP5 GT SWAP3 POP PUSH2 0x3B47 SWAP2 POP POP JUMPI PUSH1 0x40 MLOAD PUSH3 0x461BCD PUSH1 0xE5 SHL DUP2 MSTORE PUSH1 0x20 PUSH1 0x4 DUP3 ADD MSTORE PUSH1 0x14 PUSH1 0x24 DUP3 ADD MSTORE PUSH20 0x526174696F206C657373207468616E2031303025 PUSH1 0x60 SHL PUSH1 0x44 DUP3 ADD MSTORE PUSH1 0x64 ADD PUSH1 0x40 MLOAD DUP1 SWAP2 SUB SWAP1 PUSH2 0x3B44 PUSH2 0x5BE2 JUMP JUMPDEST POP POP JUMPDEST DUP1 DUP1 PUSH1 0x11 PUSH2 0x3B53 PUSH2 0x5CA8 JUMP JUMPDEST POP POP POP PUSH32 0x5568BE83E5CF7405ADF8FB39305E2CDF49C43336606D23C3E0D3FE54E205150A PUSH1 0x11 PUSH2 0x12EB PUSH2 0x5C4D JUMP JUMPDEST PUSH1 0x10 PUSH2 0x1142 PUSH2 0x5C4D JUMP JUMPDEST PUSH1 0x0 DUP1 PUSH1 0x0 DUP1 PUSH1 0x0 DUP1 PUSH1 0x0 DUP1 PUSH2 0x3B9F PUSH2 0x5E87 JUMP JUMPDEST PUSH2 0x3BA9 DUP12 DUP12 PUSH2 0x4850 JUMP JUMPDEST SWAP1 POP DUP1 MLOAD SWAP9 POP DUP1 PUSH1 0x20 ADD MLOAD SWAP8 POP DUP1 PUSH1 0x40 ADD MLOAD SWAP7 POP DUP1 PUSH1 0x80 ADD MLOAD SWAP6 POP DUP1 PUSH1 0xA0 ADD MLOAD SWAP5 POP DUP1 PUSH1 0xC0 ADD MLOAD SWAP4 POP PUSH2 0x3C04 PUSH2 0x3BF2 PUSH2 0x3926 DUP4 PUSH2 0x100 ADD MLOAD DUP5 PUSH1 0x40 ADD MLOAD SWAP1 PUSH4 0xFFFFFFFF PUSH2 0x4BC8 AND JUMP JUMPDEST DUP3 PUSH2 0x100 ADD MLOAD SWAP1 PUSH4 0xFFFFFFFF PUSH2 0x4BC8 AND JUMP JUMPDEST SWAP3 POP PUSH2 0x3C1B DUP2 PUSH1 0x60 ADD MLOAD DUP5 SWAP1 PUSH4 0xFFFFFFFF PUSH2 0x4BC8 AND JUMP JUMPDEST SWAP2 POP POP SWAP3 SWAP6 SWAP9 POP SWAP3 SWAP6 SWAP9 SWAP1 SWAP4 SWAP7 POP JUMP JUMPDEST PUSH1 0x0 PUSH2 0x3C57 PUSH2 0x3C4A DUP4 PUSH1 0xA PUSH2 0x3C3E PUSH2 0x5C4D JUMP JUMPDEST SWAP1 PUSH4 0xFFFFFFFF PUSH2 0x5343 AND JUMP JUMPDEST DUP5 SWAP1 PUSH4 0xFFFFFFFF PUSH2 0x53A2 AND JUMP JUMPDEST SWAP4 SWAP3 POP POP POP JUMP JUMPDEST PUSH1 0x0 PUSH1 0x3 PUSH2 0x3C6A PUSH2 0x5C4D JUMP JUMPDEST SWAP1 PUSH2 0x100 EXP SWAP1 DIV PUSH1 0xFF AND ISZERO PUSH2 0x3CB9 JUMPI PUSH1 0x40 MLOAD PUSH3 0x461BCD PUSH1 0xE5 SHL DUP2 MSTORE PUSH1 0x4 ADD DUP1 DUP1 PUSH1 0x20 ADD DUP3 DUP2 SUB DUP3 MSTORE PUSH1 0x3C DUP2 MSTORE PUSH1 0x20 ADD DUP1 PUSH2 0x6210 PUSH1 0x3C SWAP2 CODECOPY PUSH1 0x40 ADD SWAP2 POP POP PUSH1 0x40 MLOAD DUP1 SWAP2 SUB SWAP1 PUSH2 0x3CB6 PUSH2 0x5BE2 JUMP JUMPDEST POP POP JUMPDEST PUSH1 0x0 CALLVALUE GT PUSH2 0x3D01 JUMPI PUSH1 0x40 MLOAD PUSH3 0x461BCD PUSH1 0xE5 SHL DUP2 MSTORE PUSH1 0x4 ADD DUP1 DUP1 PUSH1 0x20 ADD DUP3 DUP2 SUB DUP3 MSTORE PUSH1 0x25 DUP2 MSTORE PUSH1 0x20 ADD DUP1 PUSH2 0x60B2 PUSH1 0x25 SWAP2 CODECOPY PUSH1 0x40 ADD SWAP2 POP POP PUSH1 0x40 MLOAD DUP1 SWAP2 SUB SWAP1 PUSH2 0x3CFE PUSH2 0x5BE2 JUMP JUMPDEST POP POP JUMPDEST PUSH2 0x3D09 PUSH2 0x47B7 JUMP JUMPDEST PUSH1 0x1 PUSH1 0x1 PUSH1 0xA0 SHL SUB AND PUSH4 0x7C312541 PUSH1 0x40 MLOAD DUP2 PUSH4 0xFFFFFFFF AND PUSH1 0xE0 SHL DUP2 MSTORE PUSH1 0x4 ADD PUSH1 0x0 PUSH1 0x40 MLOAD DUP1 DUP4 SUB DUP2 DUP7 DUP1 PUSH2 0x3D3C PUSH2 0x5D3C JUMP JUMPDEST ISZERO DUP1 ISZERO PUSH2 0x3D51 JUMPI PUSH1 0x0 DUP1 PUSH2 0x3D4E PUSH2 0x5BE2 JUMP JUMPDEST POP POP JUMPDEST POP GAS PUSH2 0x3D5B PUSH2 0x5D88 JUMP JUMPDEST POP POP POP POP POP ISZERO DUP1 ISZERO PUSH2 0x3D7A JUMPI RETURNDATASIZE PUSH1 0x0 DUP1 RETURNDATACOPY RETURNDATASIZE PUSH1 0x0 PUSH2 0x3D77 PUSH2 0x5BE2 JUMP JUMPDEST POP POP JUMPDEST POP POP POP POP PUSH1 0xF PUSH1 0x0 SWAP1 PUSH2 0x3D8B PUSH2 0x5C4D JUMP JUMPDEST PUSH1 0xFF PUSH2 0x100 SWAP3 SWAP1 SWAP3 EXP SWAP1 DIV AND ISZERO PUSH2 0x3DF1 JUMPI PUSH1 0x40 MLOAD PUSH3 0x461BCD PUSH1 0xE5 SHL DUP2 MSTORE PUSH1 0x20 PUSH1 0x4 DUP3 ADD MSTORE PUSH1 0x1E PUSH1 0x24 DUP3 ADD MSTORE PUSH32 0x4C6F616E7320617265206E6F77206265696E67206C6971756964617465640000 PUSH1 0x44 DUP3 ADD MSTORE PUSH1 0x64 ADD PUSH1 0x40 MLOAD DUP1 SWAP2 SUB SWAP1 PUSH2 0x3DEE PUSH2 0x5BE2 JUMP JUMPDEST POP POP JUMPDEST PUSH2 0x3DF9 PUSH2 0x5E87 JUMP JUMPDEST PUSH2 0x3E03 DUP4 DUP4 PUSH2 0x4850 JUMP JUMPDEST SWAP1 POP PUSH2 0x3E0E DUP2 PUSH2 0x49F8 JUMP JUMPDEST PUSH1 0x0 PUSH2 0x3E25 CALLVALUE DUP4 PUSH1 0x20 ADD MLOAD SWAP1 PUSH4 0xFFFFFFFF PUSH2 0x4BC8 AND JUMP JUMPDEST SWAP1 POP PUSH2 0x3E31 DUP3 DUP3 PUSH2 0x4FDD JUMP JUMPDEST POP DUP4 PUSH1 0x1 PUSH1 0x1 PUSH1 0xA0 SHL SUB AND PUSH32 0xB1992DFFC262BE88559DCAF96464E9D661D8BFCA7E82F2BB73E31932A82187C DUP5 CALLVALUE DUP5 PUSH1 0x40 MLOAD DUP1 DUP5 DUP2 MSTORE PUSH1 0x20 ADD DUP4 DUP2 MSTORE PUSH1 0x20 ADD DUP3 DUP2 MSTORE PUSH1 0x20 ADD SWAP4 POP POP POP POP PUSH1 0x40 MLOAD DUP1 SWAP2 SUB SWAP1 LOG2 POP POP POP POP JUMP JUMPDEST PUSH2 0x3E91 PUSH2 0x46EE JUMP JUMPDEST DUP1 DUP1 PUSH1 0xB PUSH2 0x3E9D PUSH2 0x5CA8 JUMP JUMPDEST POP POP POP PUSH32 0xE7BD72551C54D568CD97B00DC52D2787B5C5D4F0070D3582C1E8BA25141F799C PUSH1 0xB PUSH2 0x12EB PUSH2 0x5C4D JUMP JUMPDEST PUSH1 0x16 PUSH1 0x20 MSTORE DUP2 PUSH1 0x0 MSTORE PUSH1 0x40 PUSH1 0x0 KECCAK256 DUP2 DUP2 PUSH2 0x3EE3 PUSH2 0x5C4D JUMP JUMPDEST DUP2 LT PUSH2 0x3EEB JUMPI INVALID JUMPDEST SWAP1 PUSH1 0x0 MSTORE PUSH1 0x20 PUSH1 0x0 KECCAK256 PUSH1 0xA SWAP1 SWAP2 MUL ADD SWAP2 POP PUSH1 0x0 SWAP1 POP DUP2 PUSH2 0x3F09 PUSH2 0x5C4D JUMP JUMPDEST SWAP1 PUSH2 0x100 EXP SWAP1 DIV PUSH1 0x1 PUSH1 0x1 PUSH1 0xA0 SHL SUB AND SWAP1 DUP1 PUSH1 0x1 ADD PUSH2 0x3F26 PUSH2 0x5C4D JUMP JUMPDEST SWAP1 DUP1 PUSH1 0x2 ADD PUSH2 0x3F33 PUSH2 0x5C4D JUMP JUMPDEST SWAP1 DUP1 PUSH1 0x3 ADD PUSH2 0x3F40 PUSH2 0x5C4D JUMP JUMPDEST SWAP1 DUP1 PUSH1 0x4 ADD PUSH2 0x3F4D PUSH2 0x5C4D JUMP JUMPDEST SWAP1 DUP1 PUSH1 0x5 ADD PUSH2 0x3F5A PUSH2 0x5C4D JUMP JUMPDEST SWAP1 DUP1 PUSH1 0x6 ADD PUSH2 0x3F67 PUSH2 0x5C4D JUMP JUMPDEST SWAP1 DUP1 PUSH1 0x7 ADD PUSH2 0x3F74 PUSH2 0x5C4D JUMP JUMPDEST SWAP1 DUP1 PUSH1 0x8 ADD PUSH2 0x3F81 PUSH2 0x5C4D JUMP JUMPDEST SWAP1 PUSH1 0x0 PUSH1 0x9 DUP3 ADD PUSH2 0x3F90 PUSH2 0x5C4D JUMP JUMPDEST SWAP1 PUSH2 0x100 EXP SWAP1 DIV PUSH5 0xFFFFFFFFFF AND SWAP1 POP DUP11 JUMP JUMPDEST PUSH2 0x3FAB PUSH2 0x5FE6 JUMP JUMPDEST PUSH1 0x0 JUMPDEST PUSH1 0x7 DUP1 PUSH2 0x3FB9 PUSH2 0x5C4D JUMP JUMPDEST SWAP1 POP DUP2 LT ISZERO PUSH2 0x4001 JUMPI PUSH1 0x7 DUP2 DUP2 PUSH2 0x3FCE PUSH2 0x5C4D JUMP JUMPDEST DUP2 LT PUSH2 0x3FD6 JUMPI INVALID JUMPDEST SWAP1 PUSH1 0x0 MSTORE PUSH1 0x20 PUSH1 0x0 KECCAK256 ADD PUSH2 0x3FE8 PUSH2 0x5C4D JUMP JUMPDEST DUP3 DUP3 PUSH1 0x18 DUP2 LT PUSH2 0x3FF4 JUMPI INVALID JUMPDEST PUSH1 0x20 MUL ADD MSTORE PUSH1 0x1 ADD PUSH2 0x3FAE JUMP JUMPDEST POP SWAP1 JUMP JUMPDEST PUSH1 0x0 PUSH2 0x402A PUSH1 0x8 PUSH2 0x4014 PUSH2 0x5C4D JUMP JUMPDEST PUSH9 0x56BC75E2D63100000 SWAP1 PUSH4 0xFFFFFFFF PUSH2 0x53B7 AND JUMP JUMPDEST SWAP1 POP SWAP1 JUMP JUMPDEST PUSH2 0x4037 PUSH2 0x46EE JUMP JUMPDEST PUSH1 0x10 PUSH2 0x4041 PUSH2 0x5C4D JUMP JUMPDEST GAS PUSH2 0x404A PUSH2 0x5CF6 JUMP JUMPDEST GT PUSH2 0x40A4 JUMPI PUSH1 0x40 MLOAD PUSH3 0x461BCD PUSH1 0xE5 SHL DUP2 MSTORE PUSH1 0x20 PUSH1 0x4 DUP3 ADD MSTORE PUSH1 0x1B PUSH1 0x24 DUP3 ADD MSTORE PUSH32 0x4265666F7265206C69717569646174696F6E20646561646C696E650000000000 PUSH1 0x44 DUP3 ADD MSTORE PUSH1 0x64 ADD PUSH1 0x40 MLOAD DUP1 SWAP2 SUB SWAP1 PUSH2 0x40A1 PUSH2 0x5BE2 JUMP JUMPDEST POP POP JUMPDEST DUP1 PUSH1 0xF PUSH1 0x1 DUP2 PUSH2 0x40B2 PUSH2 0x5C4D JUMP JUMPDEST DUP2 PUSH1 0xFF MUL NOT AND SWAP1 DUP4 ISZERO ISZERO MUL OR SWAP1 PUSH2 0x40C7 PUSH2 0x5CA8 JUMP JUMPDEST POP POP POP PUSH32 0xAA52CF15C1FBB778214C66F64726E141551158858D1C06CA0392C6C5869C8567 PUSH1 0xF PUSH1 0x0 SWAP1 PUSH2 0x127E PUSH2 0x5C4D JUMP JUMPDEST PUSH1 0x7 DUP2 DUP2 PUSH2 0x4104 PUSH2 0x5C4D JUMP JUMPDEST DUP2 LT PUSH2 0x410C JUMPI INVALID JUMPDEST SWAP1 PUSH1 0x0 MSTORE PUSH1 0x20 PUSH1 0x0 KECCAK256 ADD SWAP1 POP PUSH2 0x1142 PUSH2 0x5C4D JUMP JUMPDEST PUSH1 0x1 PUSH1 0x4 PUSH1 0x0 DUP3 DUP3 PUSH2 0x4130 PUSH2 0x5C4D JUMP JUMPDEST ADD SWAP3 POP POP DUP2 SWAP1 PUSH2 0x413E PUSH2 0x5CA8 JUMP JUMPDEST POP POP POP PUSH1 0x0 PUSH1 0x4 PUSH2 0x414D PUSH2 0x5C4D JUMP JUMPDEST SWAP1 POP PUSH2 0x4157 PUSH2 0x4768 JUMP JUMPDEST PUSH1 0x1 PUSH1 0x1 PUSH1 0xA0 SHL SUB AND PUSH4 0x2528F0FE PUSH3 0x8AA89 PUSH1 0xEB SHL PUSH1 0x40 MLOAD PUSH1 0x1 PUSH1 0x1 PUSH1 0xE0 SHL SUB NOT PUSH1 0xE0 DUP5 SWAP1 SHL AND DUP2 MSTORE PUSH1 0x4 DUP2 ADD SWAP2 SWAP1 SWAP2 MSTORE PUSH1 0x24 ADD PUSH1 0x20 PUSH1 0x40 MLOAD DUP1 DUP4 SUB DUP2 DUP7 DUP1 PUSH2 0x419E PUSH2 0x5D3C JUMP JUMPDEST ISZERO DUP1 ISZERO PUSH2 0x41B3 JUMPI PUSH1 0x0 DUP1 PUSH2 0x41B0 PUSH2 0x5BE2 JUMP JUMPDEST POP POP JUMPDEST POP GAS PUSH2 0x41BD PUSH2 0x5D88 JUMP JUMPDEST POP POP POP POP POP ISZERO DUP1 ISZERO PUSH2 0x41DC JUMPI RETURNDATASIZE PUSH1 0x0 DUP1 RETURNDATACOPY RETURNDATASIZE PUSH1 0x0 PUSH2 0x41D9 PUSH2 0x5BE2 JUMP JUMPDEST POP POP JUMPDEST POP POP POP POP PUSH1 0x40 MLOAD RETURNDATASIZE PUSH1 0x20 DUP2 LT ISZERO PUSH2 0x41FB JUMPI PUSH1 0x0 DUP1 PUSH2 0x41F8 PUSH2 0x5BE2 JUMP JUMPDEST POP POP JUMPDEST DUP2 ADD SWAP1 DUP1 DUP1 MLOAD ISZERO SWAP3 POP PUSH2 0x424E SWAP2 POP POP JUMPI PUSH1 0x40 MLOAD PUSH3 0x461BCD PUSH1 0xE5 SHL DUP2 MSTORE PUSH1 0x20 PUSH1 0x4 DUP3 ADD MSTORE PUSH1 0x1E PUSH1 0x24 DUP3 ADD MSTORE PUSH1 0x0 DUP1 MLOAD PUSH1 0x20 PUSH2 0x6127 DUP4 CODECOPY DUP2 MLOAD SWAP2 MSTORE PUSH1 0x44 DUP3 ADD MSTORE PUSH1 0x64 ADD PUSH1 0x40 MLOAD DUP1 SWAP2 SUB SWAP1 PUSH2 0x424B PUSH2 0x5BE2 JUMP JUMPDEST POP POP JUMPDEST PUSH2 0x4262 GAS PUSH2 0x425A PUSH2 0x5E41 JUMP JUMPDEST DUP4 PUSH1 0x0 PUSH2 0x53CC JUMP JUMPDEST PUSH1 0x4 PUSH2 0x426C PUSH2 0x5C4D JUMP JUMPDEST DUP2 EQ PUSH2 0x1FFF JUMPI PUSH1 0x40 MLOAD PUSH3 0x461BCD PUSH1 0xE5 SHL DUP2 MSTORE PUSH1 0x20 PUSH1 0x4 DUP3 ADD MSTORE PUSH1 0x1F PUSH1 0x24 DUP3 ADD MSTORE PUSH1 0x0 DUP1 MLOAD PUSH1 0x20 PUSH2 0x605D DUP4 CODECOPY DUP2 MLOAD SWAP2 MSTORE PUSH1 0x44 DUP3 ADD MSTORE PUSH1 0x64 ADD PUSH1 0x40 MLOAD DUP1 SWAP2 SUB SWAP1 PUSH2 0x1CF9 PUSH2 0x5BE2 JUMP JUMPDEST PUSH1 0x8 PUSH2 0x1142 PUSH2 0x5C4D JUMP JUMPDEST PUSH1 0x1 PUSH1 0x4 PUSH1 0x0 DUP3 DUP3 PUSH2 0x42CC PUSH2 0x5C4D JUMP JUMPDEST ADD SWAP3 POP POP DUP2 SWAP1 PUSH2 0x42DA PUSH2 0x5CA8 JUMP JUMPDEST POP POP POP PUSH1 0x0 PUSH1 0x4 PUSH2 0x42E9 PUSH2 0x5C4D JUMP JUMPDEST SWAP1 POP PUSH2 0x42F3 PUSH2 0x4768 JUMP JUMPDEST PUSH1 0x1 PUSH1 0x1 PUSH1 0xA0 SHL SUB AND PUSH4 0x2528F0FE PUSH3 0x8AA89 PUSH1 0xEB SHL PUSH1 0x40 MLOAD PUSH1 0x1 PUSH1 0x1 PUSH1 0xE0 SHL SUB NOT PUSH1 0xE0 DUP5 SWAP1 SHL AND DUP2 MSTORE PUSH1 0x4 DUP2 ADD SWAP2 SWAP1 SWAP2 MSTORE PUSH1 0x24 ADD PUSH1 0x20 PUSH1 0x40 MLOAD DUP1 DUP4 SUB DUP2 DUP7 DUP1 PUSH2 0x433A PUSH2 0x5D3C JUMP JUMPDEST ISZERO DUP1 ISZERO PUSH2 0x434F JUMPI PUSH1 0x0 DUP1 PUSH2 0x434C PUSH2 0x5BE2 JUMP JUMPDEST POP POP JUMPDEST POP GAS PUSH2 0x4359 PUSH2 0x5D88 JUMP JUMPDEST POP POP POP POP POP ISZERO DUP1 ISZERO PUSH2 0x4378 JUMPI RETURNDATASIZE PUSH1 0x0 DUP1 RETURNDATACOPY RETURNDATASIZE PUSH1 0x0 PUSH2 0x4375 PUSH2 0x5BE2 JUMP JUMPDEST POP POP JUMPDEST POP POP POP POP PUSH1 0x40 MLOAD RETURNDATASIZE PUSH1 0x20 DUP2 LT ISZERO PUSH2 0x4397 JUMPI PUSH1 0x0 DUP1 PUSH2 0x4394 PUSH2 0x5BE2 JUMP JUMPDEST POP POP JUMPDEST DUP2 ADD SWAP1 DUP1 DUP1 MLOAD ISZERO SWAP3 POP PUSH2 0x43EA SWAP2 POP POP JUMPI PUSH1 0x40 MLOAD PUSH3 0x461BCD PUSH1 0xE5 SHL DUP2 MSTORE PUSH1 0x20 PUSH1 0x4 DUP3 ADD MSTORE PUSH1 0x1E PUSH1 0x24 DUP3 ADD MSTORE PUSH1 0x0 DUP1 MLOAD PUSH1 0x20 PUSH2 0x6127 DUP4 CODECOPY DUP2 MLOAD SWAP2 MSTORE PUSH1 0x44 DUP3 ADD MSTORE PUSH1 0x64 ADD PUSH1 0x40 MLOAD DUP1 SWAP2 SUB SWAP1 PUSH2 0x43E7 PUSH2 0x5BE2 JUMP JUMPDEST POP POP JUMPDEST PUSH1 0x0 PUSH1 0xF PUSH2 0x43F6 PUSH2 0x5C4D JUMP JUMPDEST SWAP1 PUSH2 0x100 EXP SWAP1 DIV PUSH1 0xFF AND PUSH2 0x4459 JUMPI PUSH1 0x40 MLOAD PUSH3 0x461BCD PUSH1 0xE5 SHL DUP2 MSTORE PUSH1 0x20 PUSH1 0x4 DUP3 ADD MSTORE PUSH1 0x17 PUSH1 0x24 DUP3 ADD MSTORE PUSH32 0x4C69717569646174696F6E206973206E6F74206F70656E000000000000000000 PUSH1 0x44 DUP3 ADD MSTORE PUSH1 0x64 ADD PUSH1 0x40 MLOAD DUP1 SWAP2 SUB SWAP1 PUSH2 0x4456 PUSH2 0x5BE2 JUMP JUMPDEST POP POP JUMPDEST PUSH2 0x4465 DUP4 DUP4 PUSH1 0x1 PUSH2 0x53CC JUMP JUMPDEST DUP3 PUSH1 0x1 PUSH1 0x1 PUSH1 0xA0 SHL SUB AND PUSH32 0xDE21B2A43B0A2C2109C049FB1E4BB8653FD67D0FFD74FDCB662DB381F1EEAB38 DUP4 GAS PUSH2 0x449A PUSH2 0x5E41 JUMP JUMPDEST PUSH1 0x40 MLOAD SWAP2 DUP3 MSTORE PUSH1 0x1 PUSH1 0x1 PUSH1 0xA0 SHL SUB AND PUSH1 0x20 DUP3 ADD MSTORE PUSH1 0x40 SWAP1 DUP2 ADD SWAP1 MLOAD DUP1 SWAP2 SUB SWAP1 LOG2 PUSH1 0x4 PUSH2 0x3226 PUSH2 0x5C4D JUMP JUMPDEST PUSH1 0x18 DUP2 JUMP JUMPDEST PUSH1 0x0 PUSH1 0xF PUSH2 0x296A PUSH2 0x5C4D JUMP JUMPDEST PUSH1 0xA PUSH2 0x1142 PUSH2 0x5C4D JUMP JUMPDEST PUSH2 0x44E7 PUSH2 0x46EE JUMP JUMPDEST PUSH9 0x3635C9ADC5DEA00000 DUP2 GT ISZERO PUSH2 0x4538 JUMPI PUSH1 0x40 MLOAD PUSH3 0x461BCD PUSH1 0xE5 SHL DUP2 MSTORE PUSH1 0x20 PUSH1 0x4 DUP3 ADD MSTORE PUSH1 0x8 PUSH1 0x24 DUP3 ADD MSTORE PUSH8 0xA8DEDE40D0D2CED PUSH1 0xC3 SHL PUSH1 0x44 DUP3 ADD MSTORE PUSH1 0x64 ADD PUSH1 0x40 MLOAD DUP1 SWAP2 SUB SWAP1 PUSH2 0x4535 PUSH2 0x5BE2 JUMP JUMPDEST POP POP JUMPDEST PUSH9 0x56BC75E2D63100000 DUP2 LT ISZERO PUSH2 0x4588 JUMPI PUSH1 0x40 MLOAD PUSH3 0x461BCD PUSH1 0xE5 SHL DUP2 MSTORE PUSH1 0x20 PUSH1 0x4 DUP3 ADD MSTORE PUSH1 0x7 PUSH1 0x24 DUP3 ADD MSTORE PUSH7 0x546F6F206C6F77 PUSH1 0xC8 SHL PUSH1 0x44 DUP3 ADD MSTORE PUSH1 0x64 ADD PUSH1 0x40 MLOAD DUP1 SWAP2 SUB SWAP1 PUSH2 0x4585 PUSH2 0x5BE2 JUMP JUMPDEST POP POP JUMPDEST DUP1 DUP1 PUSH1 0x8 PUSH2 0x4594 PUSH2 0x5CA8 JUMP JUMPDEST POP POP POP PUSH32 0xFB0EBE8C7316E6A251494C38876D13D9A3A029273FCE7964C12AA2CE07869530 DUP2 PUSH1 0x40 MLOAD SWAP1 DUP2 MSTORE PUSH1 0x20 ADD PUSH1 0x40 MLOAD DUP1 SWAP2 SUB SWAP1 LOG1 POP JUMP JUMPDEST PUSH1 0x13 PUSH2 0x1142 PUSH2 0x5C4D JUMP JUMPDEST PUSH1 0xC PUSH2 0x1142 PUSH2 0x5C4D JUMP JUMPDEST PUSH1 0x0 PUSH2 0x45EB PUSH2 0x5E87 JUMP JUMPDEST PUSH2 0x45F5 DUP5 DUP5 PUSH2 0x4850 JUMP JUMPDEST SWAP1 POP PUSH2 0x4600 DUP2 PUSH2 0x4AA1 JUMP JUMPDEST POP SWAP1 SWAP6 SWAP5 POP POP POP POP POP JUMP JUMPDEST PUSH1 0x0 PUSH2 0x1E33 PUSH9 0x56BC75E2D63100000 PUSH2 0x46E2 PUSH2 0x3A23 PUSH2 0x4628 PUSH2 0x4768 JUMP JUMPDEST PUSH1 0x1 PUSH1 0x1 PUSH1 0xA0 SHL SUB AND PUSH4 0xAC82F608 PUSH3 0x8AA89 PUSH1 0xEB SHL PUSH1 0x40 MLOAD PUSH1 0x1 PUSH1 0x1 PUSH1 0xE0 SHL SUB NOT PUSH1 0xE0 DUP5 SWAP1 SHL AND DUP2 MSTORE PUSH1 0x4 DUP2 ADD SWAP2 SWAP1 SWAP2 MSTORE PUSH1 0x24 ADD PUSH1 0x20 PUSH1 0x40 MLOAD DUP1 DUP4 SUB DUP2 DUP7 DUP1 PUSH2 0x466F PUSH2 0x5D3C JUMP JUMPDEST ISZERO DUP1 ISZERO PUSH2 0x4684 JUMPI PUSH1 0x0 DUP1 PUSH2 0x4681 PUSH2 0x5BE2 JUMP JUMPDEST POP POP JUMPDEST POP GAS PUSH2 0x468E PUSH2 0x5D88 JUMP JUMPDEST POP POP POP POP POP ISZERO DUP1 ISZERO PUSH2 0x46AD JUMPI RETURNDATASIZE PUSH1 0x0 DUP1 RETURNDATACOPY RETURNDATASIZE PUSH1 0x0 PUSH2 0x46AA PUSH2 0x5BE2 JUMP JUMPDEST POP POP JUMPDEST POP POP POP POP PUSH1 0x40 MLOAD RETURNDATASIZE PUSH1 0x20 DUP2 LT ISZERO PUSH2 0x46CC JUMPI PUSH1 0x0 DUP1 PUSH2 0x46C9 PUSH2 0x5BE2 JUMP JUMPDEST POP POP JUMPDEST DUP2 ADD SWAP1 DUP1 DUP1 MLOAD SWAP3 POP PUSH1 0x8 SWAP2 POP PUSH2 0x46E2 SWAP1 POP PUSH2 0x5C4D JUMP JUMPDEST SWAP1 PUSH4 0xFFFFFFFF PUSH2 0x53B7 AND JUMP JUMPDEST PUSH1 0x0 DUP1 PUSH2 0x46F9 PUSH2 0x5C4D JUMP JUMPDEST SWAP1 PUSH2 0x100 EXP SWAP1 DIV PUSH1 0x1 PUSH1 0x1 PUSH1 0xA0 SHL SUB AND PUSH1 0x1 PUSH1 0x1 PUSH1 0xA0 SHL SUB AND GAS PUSH2 0x471B PUSH2 0x5E41 JUMP JUMPDEST PUSH1 0x1 PUSH1 0x1 PUSH1 0xA0 SHL SUB AND EQ PUSH2 0x4766 JUMPI PUSH1 0x40 MLOAD PUSH3 0x461BCD PUSH1 0xE5 SHL DUP2 MSTORE PUSH1 0x4 ADD DUP1 DUP1 PUSH1 0x20 ADD DUP3 DUP2 SUB DUP3 MSTORE PUSH1 0x2F DUP2 MSTORE PUSH1 0x20 ADD DUP1 PUSH2 0x61C0 PUSH1 0x2F SWAP2 CODECOPY PUSH1 0x40 ADD SWAP2 POP POP PUSH1 0x40 MLOAD DUP1 SWAP2 SUB SWAP1 PUSH2 0x1FFF PUSH2 0x5BE2 JUMP JUMPDEST JUMP JUMPDEST PUSH1 0x0 PUSH2 0x402A PUSH13 0x45786368616E67655261746573 PUSH1 0x98 SHL PUSH1 0x40 MLOAD PUSH1 0x40 DUP1 DUP3 ADD SWAP1 MSTORE PUSH1 0x1D DUP2 MSTORE PUSH32 0x4D697373696E672045786368616E676552617465732061646472657373000000 PUSH1 0x20 DUP3 ADD MSTORE PUSH2 0x59E2 JUMP JUMPDEST PUSH1 0x0 PUSH2 0x402A PUSH12 0x53797374656D537461747573 PUSH1 0xA0 SHL PUSH1 0x40 MLOAD PUSH1 0x40 DUP1 DUP3 ADD SWAP1 MSTORE PUSH1 0x1C DUP2 MSTORE PUSH32 0x4D697373696E672053797374656D537461747573206164647265737300000000 PUSH1 0x20 DUP3 ADD MSTORE PUSH2 0x59E2 JUMP JUMPDEST PUSH1 0x0 PUSH2 0x402A PUSH9 0x14DE5B9D1A1CD554D1 PUSH1 0xBA SHL PUSH1 0x40 MLOAD PUSH1 0x40 DUP1 DUP3 ADD SWAP1 MSTORE PUSH1 0x19 DUP2 MSTORE PUSH32 0x4D697373696E672053796E746873555344206164647265737300000000000000 PUSH1 0x20 DUP3 ADD MSTORE PUSH2 0x59E2 JUMP JUMPDEST PUSH2 0x4858 PUSH2 0x5E87 JUMP JUMPDEST PUSH1 0x1 PUSH1 0x1 PUSH1 0xA0 SHL SUB DUP4 AND PUSH1 0x0 SWAP1 DUP2 MSTORE PUSH1 0x16 PUSH1 0x20 MSTORE PUSH1 0x60 SWAP1 PUSH1 0x40 SWAP1 KECCAK256 DUP1 PUSH2 0x487C PUSH2 0x5C4D JUMP JUMPDEST DUP1 PUSH1 0x20 MUL PUSH1 0x20 ADD PUSH1 0x40 MLOAD SWAP1 DUP2 ADD PUSH1 0x40 MSTORE DUP2 DUP2 MSTORE SWAP2 SWAP1 PUSH1 0x0 PUSH1 0x20 DUP5 ADD JUMPDEST DUP3 DUP3 LT ISZERO PUSH2 0x4998 JUMPI DUP4 DUP3 SWAP1 PUSH1 0x0 MSTORE PUSH1 0x20 PUSH1 0x0 KECCAK256 SWAP1 PUSH1 0xA MUL ADD PUSH1 0x40 MLOAD PUSH2 0x140 DUP2 ADD PUSH1 0x40 MSTORE SWAP1 DUP2 PUSH1 0x0 DUP3 PUSH2 0x48C8 PUSH2 0x5C4D JUMP JUMPDEST PUSH1 0x1 PUSH1 0x1 PUSH1 0xA0 SHL SUB PUSH2 0x100 SWAP3 SWAP1 SWAP3 EXP SWAP1 DIV AND DUP2 MSTORE PUSH1 0x20 ADD PUSH1 0x1 DUP3 ADD PUSH2 0x48EB PUSH2 0x5C4D JUMP JUMPDEST DUP2 MSTORE PUSH1 0x20 ADD PUSH1 0x2 DUP3 ADD PUSH2 0x48FC PUSH2 0x5C4D JUMP JUMPDEST DUP2 MSTORE PUSH1 0x20 ADD PUSH1 0x3 DUP3 ADD PUSH2 0x490D PUSH2 0x5C4D JUMP JUMPDEST DUP2 MSTORE PUSH1 0x20 ADD PUSH1 0x4 DUP3 ADD PUSH2 0x491E PUSH2 0x5C4D JUMP JUMPDEST DUP2 MSTORE PUSH1 0x20 ADD PUSH1 0x5 DUP3 ADD PUSH2 0x492F PUSH2 0x5C4D JUMP JUMPDEST DUP2 MSTORE PUSH1 0x20 ADD PUSH1 0x6 DUP3 ADD PUSH2 0x4940 PUSH2 0x5C4D JUMP JUMPDEST DUP2 MSTORE PUSH1 0x20 ADD PUSH1 0x7 DUP3 ADD PUSH2 0x4951 PUSH2 0x5C4D JUMP JUMPDEST DUP2 MSTORE PUSH1 0x20 ADD PUSH1 0x8 DUP3 ADD PUSH2 0x4962 PUSH2 0x5C4D JUMP JUMPDEST DUP2 MSTORE PUSH1 0x20 ADD PUSH1 0x0 PUSH1 0x9 DUP4 ADD PUSH2 0x4975 PUSH2 0x5C4D JUMP JUMPDEST PUSH5 0xFFFFFFFFFF PUSH2 0x100 SWAP3 SWAP1 SWAP3 EXP SWAP1 DIV AND SWAP1 MSTORE POP DUP2 MSTORE PUSH1 0x1 SWAP1 SWAP2 ADD SWAP1 PUSH1 0x20 ADD PUSH2 0x4898 JUMP JUMPDEST POP SWAP3 SWAP4 POP PUSH1 0x0 SWAP3 POP POP POP JUMPDEST DUP2 MLOAD DUP2 LT ISZERO PUSH2 0x49F0 JUMPI DUP4 DUP3 DUP3 DUP2 MLOAD DUP2 LT PUSH2 0x49B9 JUMPI INVALID JUMPDEST PUSH1 0x20 MUL PUSH1 0x20 ADD ADD MLOAD PUSH1 0xA0 ADD MLOAD EQ ISZERO PUSH2 0x49E8 JUMPI DUP2 DUP2 DUP2 MLOAD DUP2 LT PUSH2 0x49D7 JUMPI INVALID JUMPDEST PUSH1 0x20 MUL PUSH1 0x20 ADD ADD MLOAD SWAP3 POP POP POP PUSH2 0x1E33 JUMP JUMPDEST PUSH1 0x1 ADD PUSH2 0x49A3 JUMP JUMPDEST POP POP SWAP3 SWAP2 POP POP JUMP JUMPDEST PUSH1 0x0 DUP2 PUSH1 0xA0 ADD MLOAD GT PUSH2 0x4A4F JUMPI PUSH1 0x40 MLOAD PUSH3 0x461BCD PUSH1 0xE5 SHL DUP2 MSTORE PUSH1 0x20 PUSH1 0x4 DUP3 ADD MSTORE PUSH1 0x13 PUSH1 0x24 DUP3 ADD MSTORE PUSH19 0x131BD85B88191BD95CC81B9BDD08195E1A5CDD PUSH1 0x6A SHL PUSH1 0x44 DUP3 ADD MSTORE PUSH1 0x64 ADD PUSH1 0x40 MLOAD DUP1 SWAP2 SUB SWAP1 PUSH2 0x4A4C PUSH2 0x5BE2 JUMP JUMPDEST POP POP JUMPDEST DUP1 PUSH1 0xC0 ADD MLOAD ISZERO PUSH2 0x129C JUMPI PUSH1 0x40 MLOAD PUSH3 0x461BCD PUSH1 0xE5 SHL DUP2 MSTORE PUSH1 0x20 PUSH1 0x4 DUP3 ADD MSTORE PUSH1 0x13 PUSH1 0x24 DUP3 ADD MSTORE PUSH19 0x131BD85B88185B1C9958591E4818DB1BDCD959 PUSH1 0x6A SHL PUSH1 0x44 DUP3 ADD MSTORE PUSH1 0x64 ADD PUSH1 0x40 MLOAD DUP1 SWAP2 SUB SWAP1 PUSH2 0x326F PUSH2 0x5BE2 JUMP JUMPDEST PUSH1 0x0 DUP1 PUSH1 0x0 DUP1 PUSH2 0x4AC1 DUP6 PUSH2 0x100 ADD MLOAD DUP7 PUSH1 0x40 ADD MLOAD SWAP1 PUSH4 0xFFFFFFFF PUSH2 0x4BC8 AND JUMP JUMPDEST SWAP1 POP PUSH2 0x4AD0 DUP2 PUSH2 0x2BE6 DUP8 PUSH2 0x51C2 JUMP JUMPDEST SWAP2 POP PUSH2 0x4B9C PUSH2 0x4ADD PUSH2 0x4768 JUMP JUMPDEST PUSH1 0x1 PUSH1 0x1 PUSH1 0xA0 SHL SUB AND PUSH4 0xAC82F608 PUSH3 0x8AA89 PUSH1 0xEB SHL PUSH1 0x40 MLOAD PUSH1 0x1 PUSH1 0x1 PUSH1 0xE0 SHL SUB NOT PUSH1 0xE0 DUP5 SWAP1 SHL AND DUP2 MSTORE PUSH1 0x4 DUP2 ADD SWAP2 SWAP1 SWAP2 MSTORE PUSH1 0x24 ADD PUSH1 0x20 PUSH1 0x40 MLOAD DUP1 DUP4 SUB DUP2 DUP7 DUP1 PUSH2 0x4B24 PUSH2 0x5D3C JUMP JUMPDEST ISZERO DUP1 ISZERO PUSH2 0x4B39 JUMPI PUSH1 0x0 DUP1 PUSH2 0x4B36 PUSH2 0x5BE2 JUMP JUMPDEST POP POP JUMPDEST POP GAS PUSH2 0x4B43 PUSH2 0x5D88 JUMP JUMPDEST POP POP POP POP POP ISZERO DUP1 ISZERO PUSH2 0x4B62 JUMPI RETURNDATASIZE PUSH1 0x0 DUP1 RETURNDATACOPY RETURNDATASIZE PUSH1 0x0 PUSH2 0x4B5F PUSH2 0x5BE2 JUMP JUMPDEST POP POP JUMPDEST POP POP POP POP PUSH1 0x40 MLOAD RETURNDATASIZE PUSH1 0x20 DUP2 LT ISZERO PUSH2 0x4B81 JUMPI PUSH1 0x0 DUP1 PUSH2 0x4B7E PUSH2 0x5BE2 JUMP JUMPDEST POP POP JUMPDEST DUP2 ADD SWAP1 DUP1 DUP1 MLOAD SWAP3 POP POP POP PUSH1 0x20 DUP8 ADD MLOAD SWAP1 PUSH4 0xFFFFFFFF PUSH2 0x4E19 AND JUMP JUMPDEST SWAP3 POP PUSH2 0x4BBE PUSH2 0x4BB1 DUP3 DUP5 PUSH4 0xFFFFFFFF PUSH2 0x4BC8 AND JUMP JUMPDEST DUP5 SWAP1 PUSH4 0xFFFFFFFF PUSH2 0x5198 AND JUMP JUMPDEST SWAP4 POP POP SWAP2 SWAP4 SWAP1 SWAP3 POP JUMP JUMPDEST PUSH1 0x0 DUP3 DUP3 ADD DUP4 DUP2 LT ISZERO PUSH2 0x3C57 JUMPI PUSH1 0x40 MLOAD PUSH3 0x461BCD PUSH1 0xE5 SHL DUP2 MSTORE PUSH1 0x20 PUSH1 0x4 DUP3 ADD MSTORE PUSH1 0x1B PUSH1 0x24 DUP3 ADD MSTORE PUSH32 0x536166654D6174683A206164646974696F6E206F766572666C6F770000000000 PUSH1 0x44 DUP3 ADD MSTORE PUSH1 0x64 ADD PUSH1 0x40 MLOAD DUP1 SWAP2 SUB SWAP1 PUSH2 0x4C27 PUSH2 0x5BE2 JUMP JUMPDEST POP POP SWAP4 SWAP3 POP POP POP JUMP JUMPDEST PUSH1 0x0 DUP1 DUP4 DUP2 DUP7 DUP1 ISZERO DUP1 ISZERO SWAP1 PUSH2 0x4C45 JUMPI POP PUSH1 0x0 DUP8 GT JUMPDEST ISZERO PUSH2 0x4C80 JUMPI DUP7 DUP2 GT PUSH2 0x4C57 JUMPI DUP1 PUSH2 0x4C59 JUMP JUMPDEST DUP7 JUMPDEST SWAP5 POP PUSH2 0x4C6B DUP4 DUP7 PUSH4 0xFFFFFFFF PUSH2 0x4E43 AND JUMP JUMPDEST SWAP3 POP PUSH2 0x4C7D DUP2 DUP7 PUSH4 0xFFFFFFFF PUSH2 0x4E43 AND JUMP JUMPDEST SWAP1 POP JUMPDEST DUP6 SWAP2 POP DUP1 ISZERO PUSH2 0x4C9F JUMPI PUSH2 0x4C99 DUP3 DUP3 PUSH4 0xFFFFFFFF PUSH2 0x4E43 AND JUMP JUMPDEST SWAP2 POP DUP1 SWAP4 POP JUMPDEST POP SWAP4 POP SWAP4 POP SWAP4 POP SWAP4 JUMP JUMPDEST DUP2 ISZERO PUSH2 0x4DEE JUMPI PUSH2 0x4CB7 PUSH2 0x4805 JUMP JUMPDEST PUSH1 0x1 PUSH1 0x1 PUSH1 0xA0 SHL SUB AND PUSH4 0x867904B4 PUSH20 0xFEEFEEFEEFEEFEEFEEFEEFEEFEEFEEFEEFEEFEEF DUP5 PUSH1 0x40 MLOAD PUSH1 0x1 PUSH1 0x1 PUSH1 0xE0 SHL SUB NOT PUSH1 0xE0 DUP6 SWAP1 SHL AND DUP2 MSTORE PUSH1 0x1 PUSH1 0x1 PUSH1 0xA0 SHL SUB SWAP1 SWAP3 AND PUSH1 0x4 DUP4 ADD MSTORE PUSH1 0x24 DUP3 ADD MSTORE PUSH1 0x44 ADD PUSH1 0x0 PUSH1 0x40 MLOAD DUP1 DUP4 SUB DUP2 PUSH1 0x0 DUP8 DUP1 PUSH2 0x4D1C PUSH2 0x5D3C JUMP JUMPDEST ISZERO DUP1 ISZERO PUSH2 0x4D31 JUMPI PUSH1 0x0 DUP1 PUSH2 0x4D2E PUSH2 0x5BE2 JUMP JUMPDEST POP POP JUMPDEST POP GAS PUSH2 0x4D3B PUSH2 0x5EEA JUMP JUMPDEST POP POP POP POP POP POP ISZERO DUP1 ISZERO PUSH2 0x4D5B JUMPI RETURNDATASIZE PUSH1 0x0 DUP1 RETURNDATACOPY RETURNDATASIZE PUSH1 0x0 PUSH2 0x4D58 PUSH2 0x5BE2 JUMP JUMPDEST POP POP JUMPDEST POP POP POP POP PUSH2 0x4D67 PUSH2 0x5288 JUMP JUMPDEST PUSH1 0x1 PUSH1 0x1 PUSH1 0xA0 SHL SUB AND PUSH4 0x22BF55EF DUP4 PUSH1 0x40 MLOAD PUSH1 0x1 PUSH1 0x1 PUSH1 0xE0 SHL SUB NOT PUSH1 0xE0 DUP5 SWAP1 SHL AND DUP2 MSTORE PUSH1 0x4 DUP2 ADD SWAP2 SWAP1 SWAP2 MSTORE PUSH1 0x24 ADD PUSH1 0x0 PUSH1 0x40 MLOAD DUP1 DUP4 SUB DUP2 PUSH1 0x0 DUP8 DUP1 PUSH2 0x4DAA PUSH2 0x5D3C JUMP JUMPDEST ISZERO DUP1 ISZERO PUSH2 0x4DBF JUMPI PUSH1 0x0 DUP1 PUSH2 0x4DBC PUSH2 0x5BE2 JUMP JUMPDEST POP POP JUMPDEST POP GAS PUSH2 0x4DC9 PUSH2 0x5EEA JUMP JUMPDEST POP POP POP POP POP POP ISZERO DUP1 ISZERO PUSH2 0x4DE9 JUMPI RETURNDATASIZE PUSH1 0x0 DUP1 RETURNDATACOPY RETURNDATASIZE PUSH1 0x0 PUSH2 0x4DE6 PUSH2 0x5BE2 JUMP JUMPDEST POP POP JUMPDEST POP POP POP POP JUMPDEST DUP1 ISZERO PUSH2 0x1FFF JUMPI PUSH2 0x4E0E DUP2 PUSH1 0x13 PUSH2 0x4E02 PUSH2 0x5C4D JUMP JUMPDEST SWAP1 PUSH4 0xFFFFFFFF PUSH2 0x4E43 AND JUMP JUMPDEST DUP1 PUSH1 0x13 PUSH2 0x326C PUSH2 0x5CA8 JUMP JUMPDEST PUSH1 0x0 PUSH8 0xDE0B6B3A7640000 PUSH2 0x4E34 DUP5 DUP5 PUSH4 0xFFFFFFFF PUSH2 0x5343 AND JUMP JUMPDEST DUP2 PUSH2 0x4E3B JUMPI INVALID JUMPDEST DIV SWAP4 SWAP3 POP POP POP JUMP JUMPDEST PUSH1 0x0 DUP3 DUP3 GT ISZERO PUSH2 0x4EA2 JUMPI PUSH1 0x40 MLOAD PUSH3 0x461BCD PUSH1 0xE5 SHL DUP2 MSTORE PUSH1 0x20 PUSH1 0x4 DUP3 ADD MSTORE PUSH1 0x1E PUSH1 0x24 DUP3 ADD MSTORE PUSH32 0x536166654D6174683A207375627472616374696F6E206F766572666C6F770000 PUSH1 0x44 DUP3 ADD MSTORE PUSH1 0x64 ADD PUSH1 0x40 MLOAD DUP1 SWAP2 SUB SWAP1 PUSH2 0x4E9F PUSH2 0x5BE2 JUMP JUMPDEST POP POP JUMPDEST POP SWAP1 SUB SWAP1 JUMP JUMPDEST PUSH1 0x0 PUSH1 0x16 DUP2 DUP7 MLOAD PUSH1 0x1 PUSH1 0x1 PUSH1 0xA0 SHL SUB AND PUSH1 0x1 PUSH1 0x1 PUSH1 0xA0 SHL SUB AND DUP2 MSTORE PUSH1 0x20 ADD SWAP1 DUP2 MSTORE PUSH1 0x20 ADD PUSH1 0x0 KECCAK256 SWAP1 POP PUSH1 0x0 JUMPDEST DUP2 DUP1 PUSH2 0x4EDE PUSH2 0x5C4D JUMP JUMPDEST SWAP1 POP DUP2 LT ISZERO PUSH2 0x1CF6 JUMPI DUP6 PUSH1 0xA0 ADD MLOAD DUP3 DUP3 DUP2 PUSH2 0x4EF7 PUSH2 0x5C4D JUMP JUMPDEST DUP2 LT PUSH2 0x4EFF JUMPI INVALID JUMPDEST SWAP1 PUSH1 0x0 MSTORE PUSH1 0x20 PUSH1 0x0 KECCAK256 SWAP1 PUSH1 0xA MUL ADD PUSH1 0x5 ADD PUSH2 0x4F18 PUSH2 0x5C4D JUMP JUMPDEST EQ ISZERO PUSH2 0x4FD5 JUMPI DUP5 DUP3 DUP3 DUP2 PUSH2 0x4F2A PUSH2 0x5C4D JUMP JUMPDEST DUP2 LT PUSH2 0x4F32 JUMPI INVALID JUMPDEST SWAP1 PUSH1 0x0 MSTORE PUSH1 0x20 PUSH1 0x0 KECCAK256 SWAP1 PUSH1 0xA MUL ADD PUSH1 0x2 ADD DUP2 SWAP1 PUSH2 0x4F4D PUSH2 0x5CA8 JUMP JUMPDEST POP POP POP DUP4 DUP3 DUP3 DUP2 PUSH2 0x4F5C PUSH2 0x5C4D JUMP JUMPDEST DUP2 LT PUSH2 0x4F64 JUMPI INVALID JUMPDEST SWAP1 PUSH1 0x0 MSTORE PUSH1 0x20 PUSH1 0x0 KECCAK256 SWAP1 PUSH1 0xA MUL ADD PUSH1 0x8 ADD DUP2 SWAP1 PUSH2 0x4F7F PUSH2 0x5CA8 JUMP JUMPDEST POP POP POP DUP3 DUP3 DUP3 DUP2 PUSH2 0x4F8E PUSH2 0x5C4D JUMP JUMPDEST DUP2 LT PUSH2 0x4F96 JUMPI INVALID JUMPDEST SWAP1 PUSH1 0x0 MSTORE PUSH1 0x20 PUSH1 0x0 KECCAK256 PUSH1 0x9 PUSH1 0xA SWAP1 SWAP3 MUL ADD ADD PUSH1 0x1 DUP2 PUSH2 0x4FB3 PUSH2 0x5C4D JUMP JUMPDEST DUP2 PUSH5 0xFFFFFFFFFF MUL NOT AND SWAP1 DUP4 PUSH5 0xFFFFFFFFFF AND MUL OR SWAP1 PUSH2 0x4FD1 PUSH2 0x5CA8 JUMP JUMPDEST POP POP POP JUMPDEST PUSH1 0x1 ADD PUSH2 0x4ED4 JUMP JUMPDEST PUSH2 0x4FE5 PUSH2 0x5E87 JUMP JUMPDEST PUSH1 0x0 PUSH1 0x16 DUP2 DUP6 MLOAD PUSH1 0x1 PUSH1 0x1 PUSH1 0xA0 SHL SUB AND PUSH1 0x1 PUSH1 0x1 PUSH1 0xA0 SHL SUB AND DUP2 MSTORE PUSH1 0x20 ADD SWAP1 DUP2 MSTORE PUSH1 0x20 ADD PUSH1 0x0 KECCAK256 SWAP1 POP PUSH1 0x0 JUMPDEST DUP2 DUP1 PUSH2 0x501B PUSH2 0x5C4D JUMP JUMPDEST SWAP1 POP DUP2 LT ISZERO PUSH2 0x49F0 JUMPI DUP5 PUSH1 0xA0 ADD MLOAD DUP3 DUP3 DUP2 PUSH2 0x5034 PUSH2 0x5C4D JUMP JUMPDEST DUP2 LT PUSH2 0x503C JUMPI INVALID JUMPDEST SWAP1 PUSH1 0x0 MSTORE PUSH1 0x20 PUSH1 0x0 KECCAK256 SWAP1 PUSH1 0xA MUL ADD PUSH1 0x5 ADD PUSH2 0x5055 PUSH2 0x5C4D JUMP JUMPDEST EQ ISZERO PUSH2 0x5190 JUMPI DUP4 DUP3 DUP3 DUP2 PUSH2 0x5067 PUSH2 0x5C4D JUMP JUMPDEST DUP2 LT PUSH2 0x506F JUMPI INVALID JUMPDEST SWAP1 PUSH1 0x0 MSTORE PUSH1 0x20 PUSH1 0x0 KECCAK256 SWAP1 PUSH1 0xA MUL ADD PUSH1 0x1 ADD DUP2 SWAP1 PUSH2 0x508A PUSH2 0x5CA8 JUMP JUMPDEST POP POP POP DUP2 DUP2 DUP2 PUSH2 0x5098 PUSH2 0x5C4D JUMP JUMPDEST DUP2 LT PUSH2 0x50A0 JUMPI INVALID JUMPDEST SWAP1 PUSH1 0x0 MSTORE PUSH1 0x20 PUSH1 0x0 KECCAK256 SWAP1 PUSH1 0xA MUL ADD PUSH1 0x40 MLOAD PUSH2 0x140 DUP2 ADD PUSH1 0x40 MSTORE SWAP1 DUP2 PUSH1 0x0 DUP3 PUSH2 0x50C6 PUSH2 0x5C4D JUMP JUMPDEST PUSH1 0x1 PUSH1 0x1 PUSH1 0xA0 SHL SUB PUSH2 0x100 SWAP3 SWAP1 SWAP3 EXP SWAP1 DIV AND DUP2 MSTORE PUSH1 0x20 ADD PUSH1 0x1 DUP3 ADD PUSH2 0x50E9 PUSH2 0x5C4D JUMP JUMPDEST DUP2 MSTORE PUSH1 0x20 ADD PUSH1 0x2 DUP3 ADD PUSH2 0x50FA PUSH2 0x5C4D JUMP JUMPDEST DUP2 MSTORE PUSH1 0x20 ADD PUSH1 0x3 DUP3 ADD PUSH2 0x510B PUSH2 0x5C4D JUMP JUMPDEST DUP2 MSTORE PUSH1 0x20 ADD PUSH1 0x4 DUP3 ADD PUSH2 0x511C PUSH2 0x5C4D JUMP JUMPDEST DUP2 MSTORE PUSH1 0x20 ADD PUSH1 0x5 DUP3 ADD PUSH2 0x512D PUSH2 0x5C4D JUMP JUMPDEST DUP2 MSTORE PUSH1 0x20 ADD PUSH1 0x6 DUP3 ADD PUSH2 0x513E PUSH2 0x5C4D JUMP JUMPDEST DUP2 MSTORE PUSH1 0x20 ADD PUSH1 0x7 DUP3 ADD PUSH2 0x514F PUSH2 0x5C4D JUMP JUMPDEST DUP2 MSTORE PUSH1 0x20 ADD PUSH1 0x8 DUP3 ADD PUSH2 0x5160 PUSH2 0x5C4D JUMP JUMPDEST DUP2 MSTORE PUSH1 0x20 ADD PUSH1 0x0 PUSH1 0x9 DUP4 ADD PUSH2 0x5173 PUSH2 0x5C4D JUMP JUMPDEST PUSH5 0xFFFFFFFFFF PUSH2 0x100 SWAP3 SWAP1 SWAP3 EXP SWAP1 DIV AND SWAP1 MSTORE POP SWAP3 POP PUSH2 0x1E33 SWAP2 POP POP JUMP JUMPDEST PUSH1 0x1 ADD PUSH2 0x5011 JUMP JUMPDEST PUSH1 0x0 PUSH2 0x3C57 DUP3 PUSH2 0x51B6 DUP6 PUSH8 0xDE0B6B3A7640000 PUSH4 0xFFFFFFFF PUSH2 0x5343 AND JUMP JUMPDEST SWAP1 PUSH4 0xFFFFFFFF PUSH2 0x52D1 AND JUMP JUMPDEST PUSH1 0x0 DUP1 PUSH1 0x0 DUP4 PUSH2 0x120 ADD MLOAD PUSH5 0xFFFFFFFFFF AND GT PUSH2 0x51E3 JUMPI DUP3 PUSH1 0x80 ADD MLOAD PUSH2 0x51F1 JUMP JUMPDEST DUP3 PUSH2 0x120 ADD MLOAD PUSH5 0xFFFFFFFFFF AND JUMPDEST SWAP1 POP PUSH1 0x0 DUP4 PUSH1 0xC0 ADD MLOAD GT PUSH2 0x5211 JUMPI PUSH2 0x520C DUP2 GAS PUSH2 0x4E02 PUSH2 0x5CF6 JUMP JUMPDEST PUSH2 0x3C57 JUMP JUMPDEST PUSH2 0x3C57 DUP2 DUP5 PUSH1 0xC0 ADD MLOAD SWAP1 PUSH4 0xFFFFFFFF PUSH2 0x4E43 AND JUMP JUMPDEST PUSH1 0x0 PUSH2 0x1E33 PUSH1 0xB PUSH2 0x5235 PUSH2 0x5C4D JUMP JUMPDEST DUP4 SWAP1 PUSH4 0xFFFFFFFF PUSH2 0x53A2 AND JUMP JUMPDEST PUSH1 0x0 PUSH2 0x5253 PUSH1 0x1 PUSH1 0x15 PUSH2 0x18E9 PUSH2 0x5C4D JUMP JUMPDEST DUP1 PUSH1 0x15 PUSH2 0x525E PUSH2 0x5CA8 JUMP JUMPDEST POP POP POP PUSH2 0x5270 PUSH1 0x1 PUSH1 0x14 PUSH2 0x18E9 PUSH2 0x5C4D JUMP JUMPDEST DUP1 PUSH1 0x14 PUSH2 0x527B PUSH2 0x5CA8 JUMP JUMPDEST POP POP POP PUSH1 0x14 PUSH2 0x402A PUSH2 0x5C4D JUMP JUMPDEST PUSH1 0x0 PUSH2 0x402A PUSH7 0x119959541BDBDB PUSH1 0xCA SHL PUSH1 0x40 MLOAD PUSH1 0x40 DUP1 DUP3 ADD SWAP1 MSTORE PUSH1 0x17 DUP2 MSTORE PUSH32 0x4D697373696E6720466565506F6F6C2061646472657373000000000000000000 PUSH1 0x20 DUP3 ADD MSTORE PUSH2 0x59E2 JUMP JUMPDEST PUSH1 0x0 DUP1 DUP3 GT PUSH2 0x532F JUMPI PUSH1 0x40 MLOAD PUSH3 0x461BCD PUSH1 0xE5 SHL DUP2 MSTORE PUSH1 0x20 PUSH1 0x4 DUP3 ADD MSTORE PUSH1 0x1A PUSH1 0x24 DUP3 ADD MSTORE PUSH32 0x536166654D6174683A206469766973696F6E206279207A65726F000000000000 PUSH1 0x44 DUP3 ADD MSTORE PUSH1 0x64 ADD PUSH1 0x40 MLOAD DUP1 SWAP2 SUB SWAP1 PUSH2 0x532C PUSH2 0x5BE2 JUMP JUMPDEST POP POP JUMPDEST PUSH1 0x0 DUP3 DUP5 DUP2 PUSH2 0x533A JUMPI INVALID JUMPDEST DIV SWAP5 SWAP4 POP POP POP POP JUMP JUMPDEST PUSH1 0x0 DUP3 PUSH2 0x5352 JUMPI POP PUSH1 0x0 PUSH2 0x1E33 JUMP JUMPDEST DUP3 DUP3 MUL DUP3 DUP5 DUP3 DUP2 PUSH2 0x535F JUMPI INVALID JUMPDEST DIV EQ PUSH2 0x3C57 JUMPI PUSH1 0x40 MLOAD PUSH3 0x461BCD PUSH1 0xE5 SHL DUP2 MSTORE PUSH1 0x4 ADD DUP1 DUP1 PUSH1 0x20 ADD DUP3 DUP2 SUB DUP3 MSTORE PUSH1 0x21 DUP2 MSTORE PUSH1 0x20 ADD DUP1 PUSH2 0x61EF PUSH1 0x21 SWAP2 CODECOPY PUSH1 0x40 ADD SWAP2 POP POP PUSH1 0x40 MLOAD DUP1 SWAP2 SUB SWAP1 PUSH2 0x4C27 PUSH2 0x5BE2 JUMP JUMPDEST PUSH1 0x0 PUSH2 0x3C57 DUP4 DUP4 PUSH8 0xDE0B6B3A7640000 PUSH2 0x5AAB JUMP JUMPDEST PUSH1 0x0 PUSH2 0x3C57 DUP4 DUP4 PUSH8 0xDE0B6B3A7640000 PUSH2 0x5AE8 JUMP JUMPDEST PUSH2 0x53D4 PUSH2 0x47B7 JUMP JUMPDEST PUSH1 0x1 PUSH1 0x1 PUSH1 0xA0 SHL SUB AND PUSH4 0x7C312541 PUSH1 0x40 MLOAD DUP2 PUSH4 0xFFFFFFFF AND PUSH1 0xE0 SHL DUP2 MSTORE PUSH1 0x4 ADD PUSH1 0x0 PUSH1 0x40 MLOAD DUP1 DUP4 SUB DUP2 DUP7 DUP1 PUSH2 0x5407 PUSH2 0x5D3C JUMP JUMPDEST ISZERO DUP1 ISZERO PUSH2 0x541C JUMPI PUSH1 0x0 DUP1 PUSH2 0x5419 PUSH2 0x5BE2 JUMP JUMPDEST POP POP JUMPDEST POP GAS PUSH2 0x5426 PUSH2 0x5D88 JUMP JUMPDEST POP POP POP POP POP ISZERO DUP1 ISZERO PUSH2 0x5445 JUMPI RETURNDATASIZE PUSH1 0x0 DUP1 RETURNDATACOPY RETURNDATASIZE PUSH1 0x0 PUSH2 0x5442 PUSH2 0x5BE2 JUMP JUMPDEST POP POP JUMPDEST POP POP POP POP PUSH2 0x5451 PUSH2 0x5E87 JUMP JUMPDEST PUSH2 0x545B DUP5 DUP5 PUSH2 0x4850 JUMP JUMPDEST SWAP1 POP PUSH2 0x5466 DUP2 PUSH2 0x49F8 JUMP JUMPDEST PUSH1 0x0 PUSH2 0x5485 PUSH2 0x3926 DUP4 PUSH2 0x100 ADD MLOAD DUP5 PUSH1 0x40 ADD MLOAD SWAP1 PUSH4 0xFFFFFFFF PUSH2 0x4BC8 AND JUMP JUMPDEST SWAP1 POP PUSH1 0x0 PUSH2 0x549E DUP3 DUP5 PUSH1 0x40 ADD MLOAD SWAP1 PUSH4 0xFFFFFFFF PUSH2 0x4BC8 AND JUMP JUMPDEST SWAP1 POP PUSH1 0x0 PUSH2 0x54B8 DUP4 DUP6 PUSH2 0x100 ADD MLOAD SWAP1 PUSH4 0xFFFFFFFF PUSH2 0x4BC8 AND JUMP JUMPDEST SWAP1 POP DUP2 PUSH2 0x54C3 PUSH2 0x4805 JUMP JUMPDEST PUSH1 0x1 PUSH1 0x1 PUSH1 0xA0 SHL SUB AND PUSH4 0x70A08231 GAS PUSH2 0x54DA PUSH2 0x5E41 JUMP JUMPDEST PUSH1 0x40 MLOAD PUSH1 0x1 PUSH1 0x1 PUSH1 0xE0 SHL SUB NOT PUSH1 0xE0 DUP5 SWAP1 SHL AND DUP2 MSTORE PUSH1 0x1 PUSH1 0x1 PUSH1 0xA0 SHL SUB SWAP1 SWAP2 AND PUSH1 0x4 DUP3 ADD MSTORE PUSH1 0x24 ADD PUSH1 0x20 PUSH1 0x40 MLOAD DUP1 DUP4 SUB DUP2 DUP7 DUP1 PUSH2 0x5514 PUSH2 0x5D3C JUMP JUMPDEST ISZERO DUP1 ISZERO PUSH2 0x5529 JUMPI PUSH1 0x0 DUP1 PUSH2 0x5526 PUSH2 0x5BE2 JUMP JUMPDEST POP POP JUMPDEST POP GAS PUSH2 0x5533 PUSH2 0x5D88 JUMP JUMPDEST POP POP POP POP POP ISZERO DUP1 ISZERO PUSH2 0x5552 JUMPI RETURNDATASIZE PUSH1 0x0 DUP1 RETURNDATACOPY RETURNDATASIZE PUSH1 0x0 PUSH2 0x554F PUSH2 0x5BE2 JUMP JUMPDEST POP POP JUMPDEST POP POP POP POP PUSH1 0x40 MLOAD RETURNDATASIZE PUSH1 0x20 DUP2 LT ISZERO PUSH2 0x5571 JUMPI PUSH1 0x0 DUP1 PUSH2 0x556E PUSH2 0x5BE2 JUMP JUMPDEST POP POP JUMPDEST DUP2 ADD SWAP1 DUP1 DUP1 MLOAD SWAP4 SWAP1 SWAP4 LT ISZERO SWAP3 POP PUSH2 0x55C5 SWAP2 POP POP JUMPI PUSH1 0x40 MLOAD PUSH3 0x461BCD PUSH1 0xE5 SHL DUP2 MSTORE PUSH1 0x4 ADD DUP1 DUP1 PUSH1 0x20 ADD DUP3 DUP2 SUB DUP3 MSTORE PUSH1 0x3E DUP2 MSTORE PUSH1 0x20 ADD DUP1 PUSH2 0x6271 PUSH1 0x3E SWAP2 CODECOPY PUSH1 0x40 ADD SWAP2 POP POP PUSH1 0x40 MLOAD DUP1 SWAP2 SUB SWAP1 PUSH2 0x55C2 PUSH2 0x5BE2 JUMP JUMPDEST POP POP JUMPDEST PUSH2 0x55CE DUP5 PUSH2 0x5B0E JUMP JUMPDEST PUSH2 0x55F5 PUSH2 0x55EB DUP6 PUSH2 0x100 ADD MLOAD DUP7 PUSH1 0x40 ADD MLOAD SWAP1 PUSH4 0xFFFFFFFF PUSH2 0x4E43 AND JUMP JUMPDEST PUSH1 0x13 PUSH2 0x4E02 PUSH2 0x5C4D JUMP JUMPDEST DUP1 PUSH1 0x13 PUSH2 0x5600 PUSH2 0x5CA8 JUMP JUMPDEST POP POP POP PUSH2 0x560B PUSH2 0x4805 JUMP JUMPDEST PUSH1 0x1 PUSH1 0x1 PUSH1 0xA0 SHL SUB AND PUSH4 0x9DC29FAC GAS PUSH2 0x5622 PUSH2 0x5E41 JUMP JUMPDEST DUP5 PUSH1 0x40 MLOAD PUSH1 0x1 PUSH1 0x1 PUSH1 0xE0 SHL SUB NOT PUSH1 0xE0 DUP6 SWAP1 SHL AND DUP2 MSTORE PUSH1 0x1 PUSH1 0x1 PUSH1 0xA0 SHL SUB SWAP1 SWAP3 AND PUSH1 0x4 DUP4 ADD MSTORE PUSH1 0x24 DUP3 ADD MSTORE PUSH1 0x44 ADD PUSH1 0x0 PUSH1 0x40 MLOAD DUP1 DUP4 SUB DUP2 PUSH1 0x0 DUP8 DUP1 PUSH2 0x5664 PUSH2 0x5D3C JUMP JUMPDEST ISZERO DUP1 ISZERO PUSH2 0x5679 JUMPI PUSH1 0x0 DUP1 PUSH2 0x5676 PUSH2 0x5BE2 JUMP JUMPDEST POP POP JUMPDEST POP GAS PUSH2 0x5683 PUSH2 0x5EEA JUMP JUMPDEST POP POP POP POP POP POP ISZERO DUP1 ISZERO PUSH2 0x56A3 JUMPI RETURNDATASIZE PUSH1 0x0 DUP1 RETURNDATACOPY RETURNDATASIZE PUSH1 0x0 PUSH2 0x56A0 PUSH2 0x5BE2 JUMP JUMPDEST POP POP JUMPDEST POP POP POP POP PUSH2 0x56AF PUSH2 0x4805 JUMP JUMPDEST PUSH1 0x1 PUSH1 0x1 PUSH1 0xA0 SHL SUB AND PUSH4 0x867904B4 PUSH20 0xFEEFEEFEEFEEFEEFEEFEEFEEFEEFEEFEEFEEFEEF DUP4 PUSH1 0x40 MLOAD PUSH1 0x1 PUSH1 0x1 PUSH1 0xE0 SHL SUB NOT PUSH1 0xE0 DUP6 SWAP1 SHL AND DUP2 MSTORE PUSH1 0x1 PUSH1 0x1 PUSH1 0xA0 SHL SUB SWAP1 SWAP3 AND PUSH1 0x4 DUP4 ADD MSTORE PUSH1 0x24 DUP3 ADD MSTORE PUSH1 0x44 ADD PUSH1 0x0 PUSH1 0x40 MLOAD DUP1 DUP4 SUB DUP2 PUSH1 0x0 DUP8 DUP1 PUSH2 0x5714 PUSH2 0x5D3C JUMP JUMPDEST ISZERO DUP1 ISZERO PUSH2 0x5729 JUMPI PUSH1 0x0 DUP1 PUSH2 0x5726 PUSH2 0x5BE2 JUMP JUMPDEST POP POP JUMPDEST POP GAS PUSH2 0x5733 PUSH2 0x5EEA JUMP JUMPDEST POP POP POP POP POP POP ISZERO DUP1 ISZERO PUSH2 0x5753 JUMPI RETURNDATASIZE PUSH1 0x0 DUP1 RETURNDATACOPY RETURNDATASIZE PUSH1 0x0 PUSH2 0x5750 PUSH2 0x5BE2 JUMP JUMPDEST POP POP JUMPDEST POP POP POP POP PUSH2 0x575F PUSH2 0x5288 JUMP JUMPDEST PUSH1 0x1 PUSH1 0x1 PUSH1 0xA0 SHL SUB AND PUSH4 0x22BF55EF DUP3 PUSH1 0x40 MLOAD PUSH1 0x1 PUSH1 0x1 PUSH1 0xE0 SHL SUB NOT PUSH1 0xE0 DUP5 SWAP1 SHL AND DUP2 MSTORE PUSH1 0x4 DUP2 ADD SWAP2 SWAP1 SWAP2 MSTORE PUSH1 0x24 ADD PUSH1 0x0 PUSH1 0x40 MLOAD DUP1 DUP4 SUB DUP2 PUSH1 0x0 DUP8 DUP1 PUSH2 0x57A2 PUSH2 0x5D3C JUMP JUMPDEST ISZERO DUP1 ISZERO PUSH2 0x57B7 JUMPI PUSH1 0x0 DUP1 PUSH2 0x57B4 PUSH2 0x5BE2 JUMP JUMPDEST POP POP JUMPDEST POP GAS PUSH2 0x57C1 PUSH2 0x5EEA JUMP JUMPDEST POP POP POP POP POP POP ISZERO DUP1 ISZERO PUSH2 0x57E1 JUMPI RETURNDATASIZE PUSH1 0x0 DUP1 RETURNDATACOPY RETURNDATASIZE PUSH1 0x0 PUSH2 0x57DE PUSH2 0x5BE2 JUMP JUMPDEST POP POP JUMPDEST POP POP POP POP PUSH1 0x0 DUP5 PUSH1 0x20 ADD MLOAD SWAP1 POP DUP6 ISZERO PUSH2 0x5945 JUMPI PUSH1 0x0 PUSH2 0x57FE PUSH2 0x4768 JUMP JUMPDEST PUSH1 0x1 PUSH1 0x1 PUSH1 0xA0 SHL SUB AND PUSH4 0x654A60AC PUSH4 0x1CD554D1 PUSH1 0xE2 SHL DUP7 PUSH3 0x8AA89 PUSH1 0xEB SHL PUSH1 0x40 MLOAD PUSH1 0x1 PUSH1 0x1 PUSH1 0xE0 SHL SUB NOT PUSH1 0xE0 DUP7 SWAP1 SHL AND DUP2 MSTORE PUSH1 0x4 DUP2 ADD SWAP4 SWAP1 SWAP4 MSTORE PUSH1 0x24 DUP4 ADD SWAP2 SWAP1 SWAP2 MSTORE PUSH1 0x44 DUP3 ADD MSTORE PUSH1 0x64 ADD PUSH1 0x20 PUSH1 0x40 MLOAD DUP1 DUP4 SUB DUP2 DUP7 DUP1 PUSH2 0x585B PUSH2 0x5D3C JUMP JUMPDEST ISZERO DUP1 ISZERO PUSH2 0x5870 JUMPI PUSH1 0x0 DUP1 PUSH2 0x586D PUSH2 0x5BE2 JUMP JUMPDEST POP POP JUMPDEST POP GAS PUSH2 0x587A PUSH2 0x5D88 JUMP JUMPDEST POP POP POP POP POP ISZERO DUP1 ISZERO PUSH2 0x5899 JUMPI RETURNDATASIZE PUSH1 0x0 DUP1 RETURNDATACOPY RETURNDATASIZE PUSH1 0x0 PUSH2 0x5896 PUSH2 0x5BE2 JUMP JUMPDEST POP POP JUMPDEST POP POP POP POP PUSH1 0x40 MLOAD RETURNDATASIZE PUSH1 0x20 DUP2 LT ISZERO PUSH2 0x58B8 JUMPI PUSH1 0x0 DUP1 PUSH2 0x58B5 PUSH2 0x5BE2 JUMP JUMPDEST POP POP JUMPDEST DUP2 ADD SWAP1 DUP1 DUP1 MLOAD SWAP4 POP PUSH1 0x0 SWAP3 POP PUSH2 0x58D8 SWAP2 POP PUSH2 0x1B85 SWAP1 POP PUSH1 0x12 PUSH2 0x1AD2 PUSH2 0x5C4D JUMP JUMPDEST SWAP1 POP PUSH2 0x58EA DUP4 DUP3 PUSH4 0xFFFFFFFF PUSH2 0x4E43 AND JUMP JUMPDEST SWAP3 POP GAS PUSH2 0x58F5 PUSH2 0x5E41 JUMP JUMPDEST PUSH1 0x1 PUSH1 0x1 PUSH1 0xA0 SHL SUB AND DUP2 ISZERO PUSH2 0x8FC MUL DUP3 PUSH1 0x40 MLOAD PUSH1 0x0 PUSH1 0x40 MLOAD DUP1 DUP4 SUB DUP2 DUP6 DUP9 DUP9 PUSH2 0x591C PUSH2 0x5EEA JUMP JUMPDEST POP POP POP POP POP POP SWAP4 POP POP POP POP ISZERO DUP1 ISZERO PUSH2 0x5941 JUMPI RETURNDATASIZE PUSH1 0x0 DUP1 RETURNDATACOPY RETURNDATASIZE PUSH1 0x0 PUSH2 0x593E PUSH2 0x5BE2 JUMP JUMPDEST POP POP JUMPDEST POP POP POP JUMPDEST DUP5 MLOAD PUSH1 0x1 PUSH1 0x1 PUSH1 0xA0 SHL SUB AND DUP2 ISZERO PUSH2 0x8FC MUL DUP3 PUSH1 0x40 MLOAD PUSH1 0x0 PUSH1 0x40 MLOAD DUP1 DUP4 SUB DUP2 DUP6 DUP9 DUP9 PUSH2 0x596E PUSH2 0x5EEA JUMP JUMPDEST POP POP POP POP POP POP SWAP4 POP POP POP POP ISZERO DUP1 ISZERO PUSH2 0x5993 JUMPI RETURNDATASIZE PUSH1 0x0 DUP1 RETURNDATACOPY RETURNDATASIZE PUSH1 0x0 PUSH2 0x5990 PUSH2 0x5BE2 JUMP JUMPDEST POP POP JUMPDEST POP DUP8 PUSH1 0x1 PUSH1 0x1 PUSH1 0xA0 SHL SUB AND PUSH32 0x3CC9F5D298758BAD94536F27FA6A3033C2793E0A387A2D78E72550A3B8DACF1E DUP9 DUP5 PUSH1 0x40 MLOAD SWAP2 DUP3 MSTORE PUSH1 0x20 DUP3 ADD MSTORE PUSH1 0x40 SWAP1 DUP2 ADD SWAP1 MLOAD DUP1 SWAP2 SUB SWAP1 LOG2 POP POP POP POP POP POP POP POP JUMP JUMPDEST PUSH1 0x0 DUP3 DUP2 MSTORE PUSH1 0x6 PUSH1 0x20 MSTORE DUP1 PUSH1 0x40 DUP2 KECCAK256 PUSH1 0x0 SWAP1 PUSH2 0x59FC PUSH2 0x5C4D JUMP JUMPDEST PUSH1 0x1 PUSH1 0x1 PUSH1 0xA0 SHL SUB PUSH2 0x100 SWAP3 SWAP1 SWAP3 EXP SWAP1 DIV AND SWAP1 POP DUP3 DUP2 PUSH2 0x5AA3 JUMPI PUSH1 0x40 MLOAD PUSH3 0x461BCD PUSH1 0xE5 SHL DUP2 MSTORE PUSH1 0x4 ADD DUP1 DUP1 PUSH1 0x20 ADD DUP3 DUP2 SUB DUP3 MSTORE DUP4 DUP2 DUP2 MLOAD DUP2 MSTORE PUSH1 0x20 ADD SWAP2 POP DUP1 MLOAD SWAP1 PUSH1 0x20 ADD SWAP1 DUP1 DUP4 DUP4 PUSH1 0x0 JUMPDEST DUP4 DUP2 LT ISZERO PUSH2 0x5A5F JUMPI DUP1 DUP3 ADD MLOAD DUP4 DUP3 ADD MSTORE PUSH1 0x20 ADD PUSH2 0x5A47 JUMP JUMPDEST POP POP POP POP SWAP1 POP SWAP1 DUP2 ADD SWAP1 PUSH1 0x1F AND DUP1 ISZERO PUSH2 0x5A8C JUMPI DUP1 DUP3 SUB DUP1 MLOAD PUSH1 0x1 DUP4 PUSH1 0x20 SUB PUSH2 0x100 EXP SUB NOT AND DUP2 MSTORE PUSH1 0x20 ADD SWAP2 POP JUMPDEST POP SWAP3 POP POP POP PUSH1 0x40 MLOAD DUP1 SWAP2 SUB SWAP1 PUSH2 0x5AA0 PUSH2 0x5BE2 JUMP JUMPDEST POP POP JUMPDEST POP SWAP4 SWAP3 POP POP POP JUMP JUMPDEST PUSH1 0x0 DUP1 PUSH1 0xA DUP4 DIV PUSH2 0x5AC2 DUP7 DUP7 PUSH4 0xFFFFFFFF PUSH2 0x5343 AND JUMP JUMPDEST DUP2 PUSH2 0x5AC9 JUMPI INVALID JUMPDEST DIV SWAP1 POP PUSH1 0x5 PUSH1 0xA DUP3 JUMPDEST MOD LT PUSH2 0x5ADC JUMPI PUSH1 0xA ADD JUMPDEST PUSH1 0xA SWAP1 DIV SWAP5 SWAP4 POP POP POP POP JUMP JUMPDEST PUSH1 0x0 DUP1 PUSH2 0x5B02 DUP5 PUSH2 0x51B6 DUP8 PUSH1 0xA DUP8 MUL PUSH4 0xFFFFFFFF PUSH2 0x5343 AND JUMP JUMPDEST SWAP1 POP PUSH1 0x5 PUSH1 0xA DUP3 PUSH2 0x5AD2 JUMP JUMPDEST PUSH1 0x0 PUSH1 0x16 DUP2 DUP4 MLOAD PUSH1 0x1 PUSH1 0x1 PUSH1 0xA0 SHL SUB AND PUSH1 0x1 PUSH1 0x1 PUSH1 0xA0 SHL SUB AND DUP2 MSTORE PUSH1 0x20 ADD SWAP1 DUP2 MSTORE PUSH1 0x20 ADD PUSH1 0x0 KECCAK256 SWAP1 POP PUSH1 0x0 JUMPDEST DUP2 DUP1 PUSH2 0x5B44 PUSH2 0x5C4D JUMP JUMPDEST SWAP1 POP DUP2 LT ISZERO PUSH2 0x5BC7 JUMPI DUP3 PUSH1 0xA0 ADD MLOAD DUP3 DUP3 DUP2 PUSH2 0x5B5D PUSH2 0x5C4D JUMP JUMPDEST DUP2 LT PUSH2 0x5B65 JUMPI INVALID JUMPDEST SWAP1 PUSH1 0x0 MSTORE PUSH1 0x20 PUSH1 0x0 KECCAK256 SWAP1 PUSH1 0xA MUL ADD PUSH1 0x5 ADD PUSH2 0x5B7E PUSH2 0x5C4D JUMP JUMPDEST EQ ISZERO PUSH2 0x5BBF JUMPI GAS PUSH2 0x5B8D PUSH2 0x5CF6 JUMP JUMPDEST DUP3 DUP3 DUP2 PUSH2 0x5B98 PUSH2 0x5C4D JUMP JUMPDEST DUP2 LT PUSH2 0x5BA0 JUMPI INVALID JUMPDEST SWAP1 PUSH1 0x0 MSTORE PUSH1 0x20 PUSH1 0x0 KECCAK256 SWAP1 PUSH1 0xA MUL ADD PUSH1 0x6 ADD DUP2 SWAP1 PUSH2 0x5BBB PUSH2 0x5CA8 JUMP JUMPDEST POP POP POP JUMPDEST PUSH1 0x1 ADD PUSH2 0x5B3A JUMP JUMPDEST POP PUSH2 0x5BD7 PUSH1 0x1 PUSH1 0x15 PUSH2 0x4E02 PUSH2 0x5C4D JUMP JUMPDEST DUP1 PUSH1 0x15 PUSH2 0x326C PUSH2 0x5CA8 JUMP JUMPDEST PUSH4 0x2A2A7ADB MSIZE DUP2 PUSH1 0xE0 SHL DUP2 MSTORE PUSH1 0x4 DUP2 ADD PUSH1 0x20 DUP2 MSTORE DUP6 PUSH1 0x20 DUP3 ADD MSTORE PUSH1 0x0 JUMPDEST DUP7 DUP2 LT ISZERO PUSH2 0x5C1A JUMPI DUP1 DUP7 ADD MLOAD DUP3 DUP3 ADD PUSH1 0x40 ADD MSTORE PUSH1 0x20 ADD PUSH2 0x5BFF JUMP JUMPDEST POP PUSH1 0x20 DUP3 DUP8 PUSH1 0x64 ADD DUP5 CALLER PUSH1 0x0 SWAP1 GAS CALL PC PUSH1 0xE ADD JUMPI RETURNDATASIZE PUSH1 0x0 DUP1 RETURNDATACOPY RETURNDATASIZE PUSH1 0x0 REVERT JUMPDEST RETURNDATASIZE PUSH1 0x1 EQ ISZERO PC PUSH1 0xA ADD JUMPI PUSH1 0x1 PUSH1 0x0 RETURN JUMPDEST POP POP POP JUMP JUMPDEST PUSH4 0x3DAA959 MSIZE DUP2 PUSH1 0xE0 SHL DUP2 MSTORE DUP4 PUSH1 0x4 DUP3 ADD MSTORE PUSH1 0x20 DUP2 PUSH1 0x24 DUP4 CALLER PUSH1 0x0 SWAP1 GAS CALL PC PUSH1 0xE ADD JUMPI RETURNDATASIZE PUSH1 0x0 DUP1 RETURNDATACOPY RETURNDATASIZE PUSH1 0x0 REVERT JUMPDEST RETURNDATASIZE PUSH1 0x1 EQ ISZERO PC PUSH1 0xA ADD JUMPI PUSH1 0x1 PUSH1 0x0 RETURN JUMPDEST DUP1 MLOAD SWAP4 POP PUSH1 0x0 JUMPDEST PUSH1 0x40 DUP2 LT ISZERO PUSH2 0x326F JUMPI PUSH1 0x0 DUP3 DUP3 ADD MSTORE PUSH1 0x20 ADD PUSH2 0x5C91 JUMP JUMPDEST PUSH4 0x22BD64C0 MSIZE DUP2 PUSH1 0xE0 SHL DUP2 MSTORE DUP4 PUSH1 0x4 DUP3 ADD MSTORE DUP5 PUSH1 0x24 DUP3 ADD MSTORE PUSH1 0x0 DUP2 PUSH1 0x44 DUP4 CALLER PUSH1 0x0 SWAP1 GAS CALL PC PUSH1 0xE ADD JUMPI RETURNDATASIZE PUSH1 0x0 DUP1 RETURNDATACOPY RETURNDATASIZE PUSH1 0x0 REVERT JUMPDEST RETURNDATASIZE PUSH1 0x1 EQ ISZERO PC PUSH1 0xA ADD JUMPI PUSH1 0x1 PUSH1 0x0 RETURN JUMPDEST PUSH1 0x0 DUP2 MSTORE PUSH1 0x20 PUSH2 0x5C91 JUMP JUMPDEST PUSH4 0xBDBF8C36 MSIZE DUP2 PUSH1 0xE0 SHL DUP2 MSTORE PUSH1 0x20 DUP2 PUSH1 0x4 DUP4 CALLER PUSH1 0x0 SWAP1 GAS CALL PC PUSH1 0xE ADD JUMPI RETURNDATASIZE PUSH1 0x0 DUP1 RETURNDATACOPY RETURNDATASIZE PUSH1 0x0 REVERT JUMPDEST RETURNDATASIZE PUSH1 0x1 EQ ISZERO PC PUSH1 0xA ADD JUMPI PUSH1 0x1 PUSH1 0x0 RETURN JUMPDEST DUP1 MLOAD PUSH1 0x0 DUP3 MSTORE SWAP4 POP PUSH1 0x20 PUSH2 0x5C91 JUMP JUMPDEST PUSH4 0x8435035B MSIZE DUP2 PUSH1 0xE0 SHL DUP2 MSTORE DUP4 PUSH1 0x4 DUP3 ADD MSTORE PUSH1 0x20 DUP2 PUSH1 0x24 DUP4 CALLER PUSH1 0x0 SWAP1 GAS CALL PC PUSH1 0xE ADD JUMPI RETURNDATASIZE PUSH1 0x0 DUP1 RETURNDATACOPY RETURNDATASIZE PUSH1 0x0 REVERT JUMPDEST RETURNDATASIZE PUSH1 0x1 EQ ISZERO PC PUSH1 0xA ADD JUMPI PUSH1 0x1 PUSH1 0x0 RETURN JUMPDEST DUP1 MLOAD PUSH1 0x0 DUP3 MSTORE SWAP4 POP PUSH1 0x20 PUSH2 0x5C91 JUMP JUMPDEST PUSH4 0x8540661F MSIZE DUP2 PUSH1 0xE0 SHL DUP2 MSTORE DUP4 PUSH1 0x4 DUP3 ADD MSTORE DUP5 PUSH1 0x24 DUP3 ADD MSTORE PUSH1 0x60 PUSH1 0x44 DUP3 ADD MSTORE DUP7 PUSH1 0x64 DUP3 ADD MSTORE PUSH1 0x84 DUP2 ADD PUSH1 0x0 JUMPDEST DUP9 DUP2 LT ISZERO PUSH2 0x5DCC JUMPI DUP1 DUP9 ADD MLOAD DUP3 DUP3 ADD MSTORE PUSH1 0x20 ADD PUSH2 0x5DB4 JUMP JUMPDEST POP DUP8 PUSH2 0x104 ADD DUP3 ADD PUSH1 0x60 DUP4 DUP11 PUSH2 0x104 ADD DUP6 CALLER PUSH1 0x0 SWAP1 GAS CALL PC PUSH1 0xE ADD JUMPI RETURNDATASIZE PUSH1 0x0 DUP1 RETURNDATACOPY RETURNDATASIZE PUSH1 0x0 REVERT JUMPDEST RETURNDATASIZE PUSH1 0x1 EQ ISZERO PC PUSH1 0xA ADD JUMPI PUSH1 0x1 PUSH1 0x0 RETURN JUMPDEST DUP3 MLOAD PUSH1 0x40 DUP5 ADD MLOAD RETURNDATASIZE PUSH1 0x0 DUP7 RETURNDATACOPY DUP13 DUP13 DUP3 PUSH1 0x60 DUP9 ADD CALLER POP PUSH1 0x0 PUSH1 0x4 GAS CALL POP MSIZE DUP6 JUMPDEST DUP2 DUP2 LT ISZERO PUSH2 0x5E35 JUMPI PUSH1 0x0 DUP2 MSTORE PUSH1 0x20 ADD PUSH2 0x5E21 JUMP JUMPDEST POP SWAP2 SWAP13 POP POP POP POP POP POP POP JUMP JUMPDEST PUSH4 0x73509064 MSIZE DUP2 PUSH1 0xE0 SHL DUP2 MSTORE PUSH1 0x20 DUP2 PUSH1 0x4 DUP4 CALLER PUSH1 0x0 SWAP1 GAS CALL PC PUSH1 0xE ADD JUMPI RETURNDATASIZE PUSH1 0x0 DUP1 RETURNDATACOPY RETURNDATASIZE PUSH1 0x0 REVERT JUMPDEST RETURNDATASIZE PUSH1 0x1 EQ ISZERO PC PUSH1 0xA ADD JUMPI PUSH1 0x1 PUSH1 0x0 RETURN JUMPDEST DUP1 MLOAD PUSH1 0x0 DUP3 MSTORE SWAP4 POP PUSH1 0x20 PUSH2 0x5C91 JUMP JUMPDEST PUSH1 0x40 MLOAD DUP1 PUSH2 0x140 ADD PUSH1 0x40 MSTORE DUP1 PUSH1 0x0 PUSH1 0x1 PUSH1 0x1 PUSH1 0xA0 SHL SUB AND DUP2 MSTORE PUSH1 0x20 ADD PUSH1 0x0 DUP2 MSTORE PUSH1 0x20 ADD PUSH1 0x0 DUP2 MSTORE PUSH1 0x20 ADD PUSH1 0x0 DUP2 MSTORE PUSH1 0x20 ADD PUSH1 0x0 DUP2 MSTORE PUSH1 0x20 ADD PUSH1 0x0 DUP2 MSTORE PUSH1 0x20 ADD PUSH1 0x0 DUP2 MSTORE PUSH1 0x20 ADD PUSH1 0x0 DUP2 MSTORE PUSH1 0x20 ADD PUSH1 0x0 DUP2 MSTORE PUSH1 0x20 ADD PUSH1 0x0 PUSH5 0xFFFFFFFFFF AND DUP2 MSTORE POP SWAP1 JUMP JUMPDEST PUSH4 0x85979F76 MSIZE DUP2 PUSH1 0xE0 SHL DUP2 MSTORE DUP4 PUSH1 0x4 DUP3 ADD MSTORE DUP5 PUSH1 0x24 DUP3 ADD MSTORE PUSH1 0x60 PUSH1 0x44 DUP3 ADD MSTORE DUP8 PUSH1 0x64 DUP3 ADD MSTORE PUSH1 0x84 DUP2 ADD PUSH1 0x0 JUMPDEST DUP10 DUP2 LT ISZERO PUSH2 0x5F2E JUMPI DUP1 DUP10 ADD MLOAD DUP3 DUP3 ADD MSTORE PUSH1 0x20 ADD PUSH2 0x5F16 JUMP JUMPDEST POP DUP9 PUSH2 0x104 ADD DUP3 ADD PUSH1 0x60 DUP4 DUP12 PUSH2 0x104 ADD DUP6 CALLER PUSH1 0x0 SWAP1 GAS CALL PC PUSH1 0xE ADD JUMPI RETURNDATASIZE PUSH1 0x0 DUP1 RETURNDATACOPY RETURNDATASIZE PUSH1 0x0 REVERT JUMPDEST RETURNDATASIZE PUSH1 0x1 EQ ISZERO PC PUSH1 0xA ADD JUMPI PUSH1 0x1 PUSH1 0x0 RETURN JUMPDEST DUP3 MLOAD PUSH1 0x40 DUP5 ADD MLOAD RETURNDATASIZE PUSH1 0x0 DUP7 RETURNDATACOPY DUP14 DUP14 DUP3 PUSH1 0x60 DUP9 ADD CALLER POP PUSH1 0x0 PUSH1 0x4 GAS CALL POP MSIZE DUP6 JUMPDEST DUP2 DUP2 LT ISZERO PUSH2 0x5F97 JUMPI PUSH1 0x0 DUP2 MSTORE PUSH1 0x20 ADD PUSH2 0x5F83 JUMP JUMPDEST POP SWAP2 SWAP14 POP POP POP POP POP POP POP JUMP JUMPDEST PUSH4 0xFFE73914 MSIZE DUP2 PUSH1 0xE0 SHL DUP2 MSTORE DUP4 PUSH1 0x4 DUP3 ADD MSTORE DUP5 PUSH1 0x24 DUP3 ADD MSTORE PUSH1 0x60 PUSH1 0x44 DUP3 ADD MSTORE DUP7 PUSH1 0x64 DUP3 ADD MSTORE PUSH1 0x84 DUP2 ADD PUSH1 0x0 DUP9 DUP2 LT ISZERO PUSH2 0x5DCC JUMPI DUP1 DUP9 ADD MLOAD DUP3 DUP3 ADD MSTORE PUSH1 0x20 ADD PUSH2 0x5DB4 JUMP JUMPDEST PUSH1 0x40 MLOAD PUSH2 0x300 DUP1 DUP3 ADD PUSH1 0x40 MSTORE PUSH1 0x18 SWAP1 DUP3 SWAP1 DUP1 CODESIZE DUP4 CODECOPY POP SWAP2 SWAP3 SWAP2 POP POP JUMP INVALID NUMBER PUSH16 0x6C6C61746572616C20726174696F2061 PUSH3 0x6F7665 KECCAK256 PUSH13 0x69717569646174696F6E207261 PUSH21 0x696F436F6C6C61746572616C20726174696F206265 PUSH13 0x6F77206C69717569646174696F PUSH15 0x206166746572207769746864726177 MSTORE PUSH6 0x656E7472616E PUSH4 0x79477561 PUSH19 0x643A207265656E7472616E742063616C6C0059 PUSH16 0x75206D757374206265206E6F6D696E61 PUSH21 0x6564206265666F726520796F752063616E20616363 PUSH6 0x7074206F776E PUSH6 0x727368697044 PUSH6 0x706F73697420 PUSH2 0x6D6F PUSH22 0x6E74206D757374206265206772656174657220746861 PUSH15 0x20304C6F616E20616D6F756E742065 PUSH25 0x6365656473206D617820626F72726F77696E6720706F776572 COINBASE PUSH14 0x6F756E7420746F20776974686472 PUSH2 0x7720 PUSH14 0x7573742062652067726561746572 KECCAK256 PUSH21 0x68616E2030426C6F636B6564206173204554482072 PUSH2 0x7465 KECCAK256 PUSH10 0x7320696E76616C696400 STOP 0x4F PUSH24 0x6E65722063616E6E6F742073657420686967686572207468 PUSH2 0x6E20 COINBASE NUMBER NUMBER 0x4F SSTORE 0x4E SLOAD 0x5F 0x4C 0x4F COINBASE 0x4E 0x5F 0x4C 0x49 0x4D 0x49 SLOAD 0x5F NUMBER COINBASE POP 0x4C PUSH16 0x616E20416D6F756E7420657863656564 PUSH20 0x2074686520737570706C79206361702E45616368 KECCAK256 PUSH2 0x6363 PUSH16 0x756E74206973206C696D697465642074 PUSH16 0x203530206C6F616E734F6E6C79207468 PUSH6 0x20636F6E7472 PUSH2 0x6374 KECCAK256 PUSH16 0x776E6572206D617920706572666F726D KECCAK256 PUSH21 0x68697320616374696F6E536166654D6174683A206D PUSH22 0x6C7469706C69636174696F6E206F766572666C6F7754 PUSH9 0x697320616374696F6E KECCAK256 PUSH4 0x616E6E6F PUSH21 0x20626520706572666F726D6564207768696C652074 PUSH9 0x6520636F6E74726163 PUSH21 0x20697320706175736564496E746572657374206361 PUSH15 0x6E6F74206265206D6F726520746861 PUSH15 0x203130302520415052596F7520646F KECCAK256 PUSH15 0x6F7420686176652074686520726571 PUSH22 0x697265642053796E74682062616C616E636520746F20 PUSH4 0x6C6F7365 KECCAK256 PUSH21 0x686973206C6F616E2E496E74657265737420726174 PUSH6 0x2063616E6E6F PUSH21 0x206265206C65737320746861742074686520534543 0x4F 0x4E DIFFICULTY MSTORE8 0x5F 0x49 0x4E 0x5F COINBASE 0x5F MSIZE GASLIMIT COINBASE MSTORE 0x4E PUSH16 0x7420656E6F7567682045544820746F20 PUSH4 0x72656174 PUSH6 0x207468697320 PUSH13 0x6F616E2E20506C656173652073 PUSH6 0x652074686520 PUSH14 0x696E4C6F616E436F6C6C61746572 PUSH2 0x6C53 PUSH10 0x7A650000000000000000 "
		}
	}
}