{
	"abi": [
		{
			"inputs": [
				{
					"internalType": "address",
					"name": "_owner",
					"type": "address"
				},
				{
					"internalType": "address",
					"name": "_resolver",
					"type": "address"
				}
			],
			"payable": false,
			"stateMutability": "nonpayable",
			"type": "constructor"
		},
		{
			"anonymous": false,
			"inputs": [
				{
					"indexed": false,
					"internalType": "uint256",
					"name": "loanLimit",
					"type": "uint256"
				}
			],
			"name": "AccountLoanLimitUpdated",
			"type": "event"
		},
		{
			"anonymous": false,
			"inputs": [
				{
					"indexed": false,
					"internalType": "uint256",
					"name": "ratio",
					"type": "uint256"
				}
			],
			"name": "CollateralizationRatioUpdated",
			"type": "event"
		},
		{
			"anonymous": false,
			"inputs": [
				{
					"indexed": false,
					"internalType": "uint256",
					"name": "interestRate",
					"type": "uint256"
				}
			],
			"name": "InterestRateUpdated",
			"type": "event"
		},
		{
			"anonymous": false,
			"inputs": [
				{
					"indexed": false,
					"internalType": "uint256",
					"name": "issueFeeRate",
					"type": "uint256"
				}
			],
			"name": "IssueFeeRateUpdated",
			"type": "event"
		},
		{
			"anonymous": false,
			"inputs": [
				{
					"indexed": false,
					"internalType": "uint256",
					"name": "issueLimit",
					"type": "uint256"
				}
			],
			"name": "IssueLimitUpdated",
			"type": "event"
		},
		{
			"anonymous": false,
			"inputs": [
				{
					"indexed": true,
					"internalType": "address",
					"name": "account",
					"type": "address"
				},
				{
					"indexed": false,
					"internalType": "uint256",
					"name": "loanID",
					"type": "uint256"
				},
				{
					"indexed": false,
					"internalType": "uint256",
					"name": "feesPaid",
					"type": "uint256"
				}
			],
			"name": "LoanClosed",
			"type": "event"
		},
		{
			"anonymous": false,
			"inputs": [
				{
					"indexed": true,
					"internalType": "address",
					"name": "account",
					"type": "address"
				},
				{
					"indexed": false,
					"internalType": "uint256",
					"name": "loanID",
					"type": "uint256"
				},
				{
					"indexed": false,
					"internalType": "uint256",
					"name": "amount",
					"type": "uint256"
				}
			],
			"name": "LoanCreated",
			"type": "event"
		},
		{
			"anonymous": false,
			"inputs": [
				{
					"indexed": true,
					"internalType": "address",
					"name": "account",
					"type": "address"
				},
				{
					"indexed": false,
					"internalType": "uint256",
					"name": "loanID",
					"type": "uint256"
				},
				{
					"indexed": false,
					"internalType": "address",
					"name": "liquidator",
					"type": "address"
				}
			],
			"name": "LoanLiquidated",
			"type": "event"
		},
		{
			"anonymous": false,
			"inputs": [
				{
					"indexed": false,
					"internalType": "bool",
					"name": "loanLiquidationOpen",
					"type": "bool"
				}
			],
			"name": "LoanLiquidationOpenUpdated",
			"type": "event"
		},
		{
			"anonymous": false,
			"inputs": [
				{
					"indexed": false,
					"internalType": "uint256",
					"name": "minLoanSize",
					"type": "uint256"
				}
			],
			"name": "MinLoanSizeUpdated",
			"type": "event"
		},
		{
			"anonymous": false,
			"inputs": [
				{
					"indexed": false,
					"internalType": "address",
					"name": "oldOwner",
					"type": "address"
				},
				{
					"indexed": false,
					"internalType": "address",
					"name": "newOwner",
					"type": "address"
				}
			],
			"name": "OwnerChanged",
			"type": "event"
		},
		{
			"anonymous": false,
			"inputs": [
				{
					"indexed": false,
					"internalType": "address",
					"name": "newOwner",
					"type": "address"
				}
			],
			"name": "OwnerNominated",
			"type": "event"
		},
		{
			"anonymous": false,
			"inputs": [
				{
					"indexed": false,
					"internalType": "bool",
					"name": "isPaused",
					"type": "bool"
				}
			],
			"name": "PauseChanged",
			"type": "event"
		},
		{
			"constant": true,
			"inputs": [],
			"name": "MAX_ADDRESSES_FROM_RESOLVER",
			"outputs": [
				{
					"internalType": "uint256",
					"name": "",
					"type": "uint256"
				}
			],
			"payable": false,
			"stateMutability": "view",
			"type": "function"
		},
		{
			"constant": false,
			"inputs": [],
			"name": "acceptOwnership",
			"outputs": [],
			"payable": false,
			"stateMutability": "nonpayable",
			"type": "function"
		},
		{
			"constant": true,
			"inputs": [],
			"name": "accountLoanLimit",
			"outputs": [
				{
					"internalType": "uint256",
					"name": "",
					"type": "uint256"
				}
			],
			"payable": false,
			"stateMutability": "view",
			"type": "function"
		},
		{
			"constant": true,
			"inputs": [
				{
					"internalType": "address",
					"name": "",
					"type": "address"
				}
			],
			"name": "accountOpenLoanCounter",
			"outputs": [
				{
					"internalType": "uint256",
					"name": "",
					"type": "uint256"
				}
			],
			"payable": false,
			"stateMutability": "view",
			"type": "function"
		},
		{
			"constant": true,
			"inputs": [
				{
					"internalType": "address",
					"name": "",
					"type": "address"
				},
				{
					"internalType": "uint256",
					"name": "",
					"type": "uint256"
				}
			],
			"name": "accountsSynthLoans",
			"outputs": [
				{
					"internalType": "address",
					"name": "account",
					"type": "address"
				},
				{
					"internalType": "uint256",
					"name": "collateralAmount",
					"type": "uint256"
				},
				{
					"internalType": "uint256",
					"name": "loanAmount",
					"type": "uint256"
				},
				{
					"internalType": "uint256",
					"name": "timeCreated",
					"type": "uint256"
				},
				{
					"internalType": "uint256",
					"name": "loanID",
					"type": "uint256"
				},
				{
					"internalType": "uint256",
					"name": "timeClosed",
					"type": "uint256"
				}
			],
			"payable": false,
			"stateMutability": "view",
			"type": "function"
		},
		{
			"constant": true,
			"inputs": [
				{
					"internalType": "uint256",
					"name": "_loanAmount",
					"type": "uint256"
				},
				{
					"internalType": "uint256",
					"name": "_seconds",
					"type": "uint256"
				}
			],
			"name": "accruedInterestOnLoan",
			"outputs": [
				{
					"internalType": "uint256",
					"name": "interestAmount",
					"type": "uint256"
				}
			],
			"payable": false,
			"stateMutability": "view",
			"type": "function"
		},
		{
			"constant": true,
			"inputs": [
				{
					"internalType": "address",
					"name": "_account",
					"type": "address"
				},
				{
					"internalType": "uint256",
					"name": "_loanID",
					"type": "uint256"
				}
			],
			"name": "calculateMintingFee",
			"outputs": [
				{
					"internalType": "uint256",
					"name": "",
					"type": "uint256"
				}
			],
			"payable": false,
			"stateMutability": "view",
			"type": "function"
		},
		{
			"constant": false,
			"inputs": [
				{
					"internalType": "uint256",
					"name": "loanID",
					"type": "uint256"
				}
			],
			"name": "closeLoan",
			"outputs": [],
			"payable": false,
			"stateMutability": "nonpayable",
			"type": "function"
		},
		{
			"constant": true,
			"inputs": [
				{
					"internalType": "uint256",
					"name": "loanAmount",
					"type": "uint256"
				}
			],
			"name": "collateralAmountForLoan",
			"outputs": [
				{
					"internalType": "uint256",
					"name": "",
					"type": "uint256"
				}
			],
			"payable": false,
			"stateMutability": "view",
			"type": "function"
		},
		{
			"constant": true,
			"inputs": [],
			"name": "collateralizationRatio",
			"outputs": [
				{
					"internalType": "uint256",
					"name": "",
					"type": "uint256"
				}
			],
			"payable": false,
			"stateMutability": "view",
			"type": "function"
		},
		{
			"constant": true,
			"inputs": [
				{
					"internalType": "address",
					"name": "_account",
					"type": "address"
				},
				{
					"internalType": "uint256",
					"name": "_loanID",
					"type": "uint256"
				}
			],
			"name": "currentInterestOnLoan",
			"outputs": [
				{
					"internalType": "uint256",
					"name": "",
					"type": "uint256"
				}
			],
			"payable": false,
			"stateMutability": "view",
			"type": "function"
		},
		{
			"constant": true,
			"inputs": [],
			"name": "getContractInfo",
			"outputs": [
				{
					"internalType": "uint256",
					"name": "_collateralizationRatio",
					"type": "uint256"
				},
				{
					"internalType": "uint256",
					"name": "_issuanceRatio",
					"type": "uint256"
				},
				{
					"internalType": "uint256",
					"name": "_interestRate",
					"type": "uint256"
				},
				{
					"internalType": "uint256",
					"name": "_interestPerSecond",
					"type": "uint256"
				},
				{
					"internalType": "uint256",
					"name": "_issueFeeRate",
					"type": "uint256"
				},
				{
					"internalType": "uint256",
					"name": "_issueLimit",
					"type": "uint256"
				},
				{
					"internalType": "uint256",
					"name": "_minLoanSize",
					"type": "uint256"
				},
				{
					"internalType": "uint256",
					"name": "_totalIssuedSynths",
					"type": "uint256"
				},
				{
					"internalType": "uint256",
					"name": "_totalLoansCreated",
					"type": "uint256"
				},
				{
					"internalType": "uint256",
					"name": "_totalOpenLoanCount",
					"type": "uint256"
				},
				{
					"internalType": "uint256",
					"name": "_ethBalance",
					"type": "uint256"
				},
				{
					"internalType": "uint256",
					"name": "_liquidationDeadline",
					"type": "uint256"
				},
				{
					"internalType": "bool",
					"name": "_loanLiquidationOpen",
					"type": "bool"
				}
			],
			"payable": false,
			"stateMutability": "view",
			"type": "function"
		},
		{
			"constant": true,
			"inputs": [
				{
					"internalType": "address",
					"name": "_account",
					"type": "address"
				},
				{
					"internalType": "uint256",
					"name": "_loanID",
					"type": "uint256"
				}
			],
			"name": "getLoan",
			"outputs": [
				{
					"internalType": "address",
					"name": "account",
					"type": "address"
				},
				{
					"internalType": "uint256",
					"name": "collateralAmount",
					"type": "uint256"
				},
				{
					"internalType": "uint256",
					"name": "loanAmount",
					"type": "uint256"
				},
				{
					"internalType": "uint256",
					"name": "timeCreated",
					"type": "uint256"
				},
				{
					"internalType": "uint256",
					"name": "loanID",
					"type": "uint256"
				},
				{
					"internalType": "uint256",
					"name": "timeClosed",
					"type": "uint256"
				},
				{
					"internalType": "uint256",
					"name": "interest",
					"type": "uint256"
				},
				{
					"internalType": "uint256",
					"name": "totalFees",
					"type": "uint256"
				}
			],
			"payable": false,
			"stateMutability": "view",
			"type": "function"
		},
		{
			"constant": true,
			"inputs": [],
			"name": "getResolverAddressesRequired",
			"outputs": [
				{
					"internalType": "bytes32[24]",
					"name": "addressesRequired",
					"type": "bytes32[24]"
				}
			],
			"payable": false,
			"stateMutability": "view",
			"type": "function"
		},
		{
			"constant": true,
			"inputs": [],
			"name": "interestPerSecond",
			"outputs": [
				{
					"internalType": "uint256",
					"name": "",
					"type": "uint256"
				}
			],
			"payable": false,
			"stateMutability": "view",
			"type": "function"
		},
		{
			"constant": true,
			"inputs": [],
			"name": "interestRate",
			"outputs": [
				{
					"internalType": "uint256",
					"name": "",
					"type": "uint256"
				}
			],
			"payable": false,
			"stateMutability": "view",
			"type": "function"
		},
		{
			"constant": true,
			"inputs": [
				{
					"internalType": "contract AddressResolver",
					"name": "_resolver",
					"type": "address"
				}
			],
			"name": "isResolverCached",
			"outputs": [
				{
					"internalType": "bool",
					"name": "",
					"type": "bool"
				}
			],
			"payable": false,
			"stateMutability": "view",
			"type": "function"
		},
		{
			"constant": true,
			"inputs": [],
			"name": "issuanceRatio",
			"outputs": [
				{
					"internalType": "uint256",
					"name": "",
					"type": "uint256"
				}
			],
			"payable": false,
			"stateMutability": "view",
			"type": "function"
		},
		{
			"constant": true,
			"inputs": [],
			"name": "issueFeeRate",
			"outputs": [
				{
					"internalType": "uint256",
					"name": "",
					"type": "uint256"
				}
			],
			"payable": false,
			"stateMutability": "view",
			"type": "function"
		},
		{
			"constant": true,
			"inputs": [],
			"name": "issueLimit",
			"outputs": [
				{
					"internalType": "uint256",
					"name": "",
					"type": "uint256"
				}
			],
			"payable": false,
			"stateMutability": "view",
			"type": "function"
		},
		{
			"constant": true,
			"inputs": [],
			"name": "lastPauseTime",
			"outputs": [
				{
					"internalType": "uint256",
					"name": "",
					"type": "uint256"
				}
			],
			"payable": false,
			"stateMutability": "view",
			"type": "function"
		},
		{
			"constant": false,
			"inputs": [
				{
					"internalType": "address",
					"name": "_loanCreatorsAddress",
					"type": "address"
				},
				{
					"internalType": "uint256",
					"name": "_loanID",
					"type": "uint256"
				}
			],
			"name": "liquidateUnclosedLoan",
			"outputs": [],
			"payable": false,
			"stateMutability": "nonpayable",
			"type": "function"
		},
		{
			"constant": true,
			"inputs": [],
			"name": "liquidationDeadline",
			"outputs": [
				{
					"internalType": "uint256",
					"name": "",
					"type": "uint256"
				}
			],
			"payable": false,
			"stateMutability": "view",
			"type": "function"
		},
		{
			"constant": true,
			"inputs": [
				{
					"internalType": "uint256",
					"name": "collateralAmount",
					"type": "uint256"
				}
			],
			"name": "loanAmountFromCollateral",
			"outputs": [
				{
					"internalType": "uint256",
					"name": "",
					"type": "uint256"
				}
			],
			"payable": false,
			"stateMutability": "view",
			"type": "function"
		},
		{
			"constant": true,
			"inputs": [
				{
					"internalType": "address",
					"name": "_account",
					"type": "address"
				},
				{
					"internalType": "uint256",
					"name": "_loanID",
					"type": "uint256"
				}
			],
			"name": "loanLifeSpan",
			"outputs": [
				{
					"internalType": "uint256",
					"name": "loanLifeSpanResult",
					"type": "uint256"
				}
			],
			"payable": false,
			"stateMutability": "view",
			"type": "function"
		},
		{
			"constant": true,
			"inputs": [],
			"name": "loanLiquidationOpen",
			"outputs": [
				{
					"internalType": "bool",
					"name": "",
					"type": "bool"
				}
			],
			"payable": false,
			"stateMutability": "view",
			"type": "function"
		},
		{
			"constant": true,
			"inputs": [],
			"name": "minLoanSize",
			"outputs": [
				{
					"internalType": "uint256",
					"name": "",
					"type": "uint256"
				}
			],
			"payable": false,
			"stateMutability": "view",
			"type": "function"
		},
		{
			"constant": false,
			"inputs": [
				{
					"internalType": "address",
					"name": "_owner",
					"type": "address"
				}
			],
			"name": "nominateNewOwner",
			"outputs": [],
			"payable": false,
			"stateMutability": "nonpayable",
			"type": "function"
		},
		{
			"constant": true,
			"inputs": [],
			"name": "nominatedOwner",
			"outputs": [
				{
					"internalType": "address",
					"name": "",
					"type": "address"
				}
			],
			"payable": false,
			"stateMutability": "view",
			"type": "function"
		},
		{
			"constant": false,
			"inputs": [],
			"name": "openLoan",
			"outputs": [
				{
					"internalType": "uint256",
					"name": "loanID",
					"type": "uint256"
				}
			],
			"payable": true,
			"stateMutability": "payable",
			"type": "function"
		},
		{
			"constant": true,
			"inputs": [
				{
					"internalType": "address",
					"name": "_account",
					"type": "address"
				}
			],
			"name": "openLoanIDsByAccount",
			"outputs": [
				{
					"internalType": "uint256[]",
					"name": "",
					"type": "uint256[]"
				}
			],
			"payable": false,
			"stateMutability": "view",
			"type": "function"
		},
		{
			"constant": true,
			"inputs": [],
			"name": "owner",
			"outputs": [
				{
					"internalType": "address",
					"name": "",
					"type": "address"
				}
			],
			"payable": false,
			"stateMutability": "view",
			"type": "function"
		},
		{
			"constant": true,
			"inputs": [],
			"name": "paused",
			"outputs": [
				{
					"internalType": "bool",
					"name": "",
					"type": "bool"
				}
			],
			"payable": false,
			"stateMutability": "view",
			"type": "function"
		},
		{
			"constant": true,
			"inputs": [],
			"name": "resolver",
			"outputs": [
				{
					"internalType": "contract AddressResolver",
					"name": "",
					"type": "address"
				}
			],
			"payable": false,
			"stateMutability": "view",
			"type": "function"
		},
		{
			"constant": true,
			"inputs": [
				{
					"internalType": "uint256",
					"name": "",
					"type": "uint256"
				}
			],
			"name": "resolverAddressesRequired",
			"outputs": [
				{
					"internalType": "bytes32",
					"name": "",
					"type": "bytes32"
				}
			],
			"payable": false,
			"stateMutability": "view",
			"type": "function"
		},
		{
			"constant": false,
			"inputs": [
				{
					"internalType": "uint256",
					"name": "_loanLimit",
					"type": "uint256"
				}
			],
			"name": "setAccountLoanLimit",
			"outputs": [],
			"payable": false,
			"stateMutability": "nonpayable",
			"type": "function"
		},
		{
			"constant": false,
			"inputs": [
				{
					"internalType": "uint256",
					"name": "ratio",
					"type": "uint256"
				}
			],
			"name": "setCollateralizationRatio",
			"outputs": [],
			"payable": false,
			"stateMutability": "nonpayable",
			"type": "function"
		},
		{
			"constant": false,
			"inputs": [
				{
					"internalType": "uint256",
					"name": "_interestRate",
					"type": "uint256"
				}
			],
			"name": "setInterestRate",
			"outputs": [],
			"payable": false,
			"stateMutability": "nonpayable",
			"type": "function"
		},
		{
			"constant": false,
			"inputs": [
				{
					"internalType": "uint256",
					"name": "_issueFeeRate",
					"type": "uint256"
				}
			],
			"name": "setIssueFeeRate",
			"outputs": [],
			"payable": false,
			"stateMutability": "nonpayable",
			"type": "function"
		},
		{
			"constant": false,
			"inputs": [
				{
					"internalType": "uint256",
					"name": "_issueLimit",
					"type": "uint256"
				}
			],
			"name": "setIssueLimit",
			"outputs": [],
			"payable": false,
			"stateMutability": "nonpayable",
			"type": "function"
		},
		{
			"constant": false,
			"inputs": [
				{
					"internalType": "bool",
					"name": "_loanLiquidationOpen",
					"type": "bool"
				}
			],
			"name": "setLoanLiquidationOpen",
			"outputs": [],
			"payable": false,
			"stateMutability": "nonpayable",
			"type": "function"
		},
		{
			"constant": false,
			"inputs": [
				{
					"internalType": "uint256",
					"name": "_minLoanSize",
					"type": "uint256"
				}
			],
			"name": "setMinLoanSize",
			"outputs": [],
			"payable": false,
			"stateMutability": "nonpayable",
			"type": "function"
		},
		{
			"constant": false,
			"inputs": [
				{
					"internalType": "bool",
					"name": "_paused",
					"type": "bool"
				}
			],
			"name": "setPaused",
			"outputs": [],
			"payable": false,
			"stateMutability": "nonpayable",
			"type": "function"
		},
		{
			"constant": false,
			"inputs": [
				{
					"internalType": "contract AddressResolver",
					"name": "_resolver",
					"type": "address"
				}
			],
			"name": "setResolverAndSyncCache",
			"outputs": [],
			"payable": false,
			"stateMutability": "nonpayable",
			"type": "function"
		},
		{
			"constant": true,
			"inputs": [],
			"name": "totalIssuedSynths",
			"outputs": [
				{
					"internalType": "uint256",
					"name": "",
					"type": "uint256"
				}
			],
			"payable": false,
			"stateMutability": "view",
			"type": "function"
		},
		{
			"constant": true,
			"inputs": [],
			"name": "totalLoansCreated",
			"outputs": [
				{
					"internalType": "uint256",
					"name": "",
					"type": "uint256"
				}
			],
			"payable": false,
			"stateMutability": "view",
			"type": "function"
		},
		{
			"constant": true,
			"inputs": [],
			"name": "totalOpenLoanCount",
			"outputs": [
				{
					"internalType": "uint256",
					"name": "",
					"type": "uint256"
				}
			],
			"payable": false,
			"stateMutability": "view",
			"type": "function"
		}
	],
	"evm": {
		"bytecode": {
			"linkReferences": {
				"EtherCollateral.sol": {
					"SafeDecimalMath": [
						{
							"length": 20,
							"start": 6
						},
						{
							"length": 20,
							"start": 206
						},
						{
							"length": 20,
							"start": 471
						},
						{
							"length": 20,
							"start": 678
						},
						{
							"length": 20,
							"start": 877
						},
						{
							"length": 20,
							"start": 8285
						}
					]
				}
			},
			"object": "608060405273__$09231a05ed34b6851f1018822ecfa0dcb8$__63907af6c06040518163ffffffff1660e01b8152600401602060405180830381868062000045620008cf565b1580156200005d576000806200005a62000931565b50505b505a620000696200099e565b50505050501580156200008b573d6000803e3d60006200008862000931565b50505b505050506040513d6020811015620000ad57600080620000aa62000931565b50505b810190808051607d02925060089150620000c8905062000a5b565b5050606473__$09231a05ed34b6851f1018822ecfa0dcb8$__63907af6c06040518163ffffffff1660e01b815260040160206040518083038186806200010d620008cf565b15801562000125576000806200012262000931565b50505b505a620001316200099e565b505050505015801562000153573d6000803e3d60006200015062000931565b50505b505050506040513d602081101562000175576000806200017262000931565b50505b81019080805160050292508391506200018c905057fe5b0460096200019962000a5b565b5050620001c46301e133806009620001b062000aaa565b6200085960201b62002bb31790919060201c565b600a620001d062000a5b565b50506103e873__$09231a05ed34b6851f1018822ecfa0dcb8$__63907af6c06040518163ffffffff1660e01b8152600401602060405180830381868062000216620008cf565b1580156200022e576000806200022b62000931565b50505b505a6200023a6200099e565b50505050501580156200025c573d6000803e3d60006200025962000931565b50505b505050506040513d60208110156200027e576000806200027b62000931565b50505b810190808051600502925083915062000295905057fe5b04600b620002a262000a5b565b505073__$09231a05ed34b6851f1018822ecfa0dcb8$__63907af6c06040518163ffffffff1660e01b81526004016020604051808303818680620002e5620008cf565b158015620002fd57600080620002fa62000931565b50505b505a620003096200099e565b50505050501580156200032b573d6000803e3d60006200032862000931565b50505b505050506040513d60208110156200034d576000806200034a62000931565b50505b810190808051611388029250600c915062000369905062000a5b565b505073__$09231a05ed34b6851f1018822ecfa0dcb8$__63907af6c06040518163ffffffff1660e01b81526004016020604051808303818680620003ac620008cf565b158015620003c457600080620003c162000931565b50505b505a620003d06200099e565b5050505050158015620003f2573d6000803e3d6000620003ef62000931565b50505b505050506040513d602081101562000414576000806200041162000931565b50505b8101908080519250600d91506200042c905062000a5b565b50506032600e6200043c62000a5b565b5060009050600f6001816200045062000aaa565b8160ff021916908315150217906200046762000a5b565b50505060405160a0810160409081526b53797374656d53746174757360a01b8252680a6f2dce8d0e68aa8960bb1b60208301526814de5b9d1a1cd554d160ba1b908201526411195c1bdd60da1b60608201526c45786368616e6765526174657360981b6080820152620004df90601690600562000af7565b50348015620004f857600080620004f562000931565b50505b5060405162004c0b38038062004c0b8339818101604052604081101562000529576000806200052662000931565b50505b810190808051929190602001805192508291506016905060186103006040519081016040529190610300830182845b816200056362000aaa565b815260200190600101908083116200055857508793505050506001600160a01b038116620005e25760405162461bcd60e51b815260206004820152601960248201527f4f776e657220616464726573732063616e6e6f74206265203000000000000000604482015260640160405180910390620005df62000931565b50505b806000600181620005f262000aaa565b816001600160a01b0302191690836001600160a01b03160217906200061662000a5b565b5050507fb532073b38c83145e3e5135377a08bf9aab55bc0fd7c1179cd4fb995d2a5159c6000826040516001600160a01b039283168152911660208201526040908101905180910390a150600080806200066f62000aaa565b906101000a90046001600160a01b03166001600160a01b03161415620006da5760405162461bcd60e51b815260206004820152601160248201527013dddb995c881b5d5cdd081899481cd95d607a1b604482015260640160405180910390620006d762000931565b50505b6001806004620006e962000a5b565b506000915081905080620006fc62000aaa565b906101000a90046001600160a01b03166001600160a01b03161415620007675760405162461bcd60e51b815260206004820152601160248201527013dddb995c881b5d5cdd081899481cd95d607a1b6044820152606401604051809103906200076462000931565b50505b60005b6018811015620007f75760008282601881106200078357fe5b602002015114620007e85760078282601881106200079d57fe5b60200201519080600181620007b162000aaa565b018082620007be62000a5b565b5050600092835291600019830191506020902091929101620007df62000a5b565b505050620007ee565b620007f7565b6001016200076a565b508160056001816200080862000aaa565b816001600160a01b0302191690836001600160a01b03160217906200082c62000a5b565b50505050505a6200083c62000b45565b62794a00018060106200084e62000a5b565b505050505062000bb9565b6000808211620008ba5760405162461bcd60e51b815260206004820152601a60248201527f536166654d6174683a206469766973696f6e206279207a65726f000000000000604482015260640160405180910390620008b762000931565b50505b6000828481620008c657fe5b04949350505050565b638435035b598160e01b8152836004820152602081602483336000905af158600e01573d6000803e3d6000fd5b3d6001141558600a015760016000f35b8051935060005b60408110156200092c5760008282015260200162000913565b505050565b632a2a7adb598160e01b8152600481016020815285602082015260005b868110156200096b5780860151828201604001526020016200094e565b506020828760640184336000905af158600e01573d6000803e3d6000fd5b3d6001141558600a015760016000f35b505050565b63ffe73914598160e01b8152836004820152846024820152606060448201528660648201526084810160005b88811015620009e4578088015182820152602001620009ca565b50876101040182016060838a6101040185336000905af158600e01573d6000803e3d6000fd5b3d6001141558600a015760016000f35b825160408401513d6000863e8c8c82606088013350600060045af15059855b8181101562000a4f576000815260200162000a39565b50919c50505050505050565b6322bd64c0598160e01b8152836004820152846024820152600081604483336000905af158600e01573d6000803e3d6000fd5b3d6001141558600a015760016000f35b60008152602062000913565b6303daa959598160e01b8152836004820152602081602483336000905af158600e01573d6000803e3d6000fd5b3d6001141558600a015760016000f35b8051600082529350602062000913565b826018810192821562000b33579160200282015b8281111562000b335782518262000b2162000a5b565b50509160200191906001019062000b0b565b5062000b4192915062000b8c565b5090565b63bdbf8c36598160e01b8152602081600483336000905af158600e01573d6000803e3d6000fd5b3d6001141558600a015760016000f35b8051600082529350602062000913565b62000bb691905b8082111562000b41576000808262000baa62000a5b565b50505060010162000b93565b90565b6140428062000bc96000396000f3fe6080604052600436106102885760003560e01c80638c4638691161015a578063c6c9d828116100c1578063e3c1e58c1161007a578063e3c1e58c14610c4a578063e40108ed14610c68578063e5829d2014610c86578063ee5f3f5c14610cc2578063eea8f5da14610ce0578063f53dfb8414610cfe57610288565b8063c6c9d82814610b2d578063cf09b4ae14610b69578063d05951a014610b87578063dcaf9c4414610bc3578063e220a81114610be1578063e3235c9114610c2c57610288565b8063a2e1734211610113578063a2e1734214610966578063a76cdfa5146109a8578063aa754a2a146109e4578063ab49848c14610a7a578063b410a03414610ad1578063bb8c6d6c14610aef57610288565b80638c463869146107e95780638da5cb5b146108345780638fdc8f3b1461085257806391b4ded91461088e5780639f7d5688146108ac578063a1c51586146108ca57610288565b80634f069f66116101fe578063631e1444116101b7578063631e14441461068c5780636b231938146106d157806379ba5097146106d95780637c3a00fd146106f75780637cc1f8671461071557806389c937de1461079e57610288565b80634f069f661461054c57806350e3b2e71461058857806353a47bb7146105c45780635c975abb146105e25780635d1a2229146106145780635f84f3021461065057610288565b806323aa7f0f1161025057806323aa7f0f146103ca57806327cff2e5146103e85780632f2bf15b14610433578063361e2086146104cb5780633be99e6f146104e95780634189bb491461052e57610288565b806304f3bcec14610296578063089f7fb4146102d05780631474b279146103275780631627540c1461034557806316c38b3c1461038c575b600080610293613a09565b50505b3480156102ab576000806102a8613a09565b50505b506102b4610d3a565b6040516001600160a01b03909116815260200160405180910390f35b3480156102e5576000806102e2613a09565b50505b506103156004803603602081101561030557600080610302613a09565b50505b50356001600160a01b0316610d59565b60405190815260200160405180910390f35b34801561033c57600080610339613a09565b50505b50610315610d74565b34801561035a57600080610357613a09565b50505b5061038a6004803603602081101561037a57600080610377613a09565b50505b50356001600160a01b0316610d7e565b005b3480156103a15760008061039e613a09565b50505b5061038a600480360360208110156103c1576000806103be613a09565b50505b50351515610df8565b3480156103df576000806103dc613a09565b50505b50610315610ece565b3480156103fd576000806103fa613a09565b50505b506103156004803603604081101561041d5760008061041a613a09565b50505b506001600160a01b038135169060200135610ed8565b34801561044857600080610445613a09565b50505b506104786004803603602081101561046857600080610465613a09565b50505b50356001600160a01b0316610f01565b60405160208082528190810183818151815260200191508051906020019060200280838360005b838110156104b757808201518382015260200161049f565b505050509050019250505060405180910390f35b3480156104e0576000806104dd613a09565b50505b50610315611103565b3480156104fe576000806104fb613a09565b50505b5061038a6004803603602081101561051e5760008061051b613a09565b50505b50356001600160a01b031661110d565b34801561054357600080610540613a09565b50505b506103156112d7565b3480156105615760008061055e613a09565b50505b5061038a600480360360208110156105815760008061057e613a09565b50505b50356112e1565b34801561059d5760008061059a613a09565b50505b5061038a600480360360208110156105bd576000806105ba613a09565b50505b5035611337565b3480156105d9576000806105d6613a09565b50505b506102b4611379565b3480156105f7576000806105f4613a09565b50505b50610600611385565b604051901515815260200160405180910390f35b34801561062957600080610626613a09565b50505b5061038a6004803603602081101561064957600080610646613a09565b50505b503561139e565b34801561066557600080610662613a09565b50505b5061038a6004803603602081101561068557600080610682613a09565b50505b503561143f565b3480156106a15760008061069e613a09565b50505b50610600600480360360208110156106c1576000806106be613a09565b50505b50356001600160a01b03166115de565b6103156117b8565b3480156106ee576000806106eb613a09565b50505b5061038a611e58565b34801561070c57600080610709613a09565b50505b50610315611fdb565b34801561072a57600080610727613a09565b50505b50610733611fe5565b6040519c8d5260208d019b909b526040808d019a909a5260608c019890985260808b019690965260a08a019490945260c089019290925260e08801526101008701526101208601526101408501526101608401529015156101808301526101a0909101905180910390f35b3480156107b3576000806107b0613a09565b50505b50610315600480360360408110156107d3576000806107d0613a09565b50505b506001600160a01b0381351690602001356120a6565b3480156107fe576000806107fb613a09565b50505b506103156004803603604081101561081e5760008061081b613a09565b50505b506001600160a01b0381351690602001356120e0565b34801561084957600080610846613a09565b50505b506102b46120ff565b34801561086757600080610864613a09565b50505b506103156004803603602081101561088757600080610884613a09565b50505b503561210a565b3480156108a3576000806108a0613a09565b50505b50610315612124565b3480156108c1576000806108be613a09565b50505b5061031561212e565b3480156108df576000806108dc613a09565b50505b50610915600480360360408110156108ff576000806108fc613a09565b50505b506001600160a01b038135169060200135612138565b6040516001600160a01b03909816885260208801969096526040808801959095526060870193909352608086019190915260a085015260c084015260e0830191909152610100909101905180910390f35b34801561097b57600080610978613a09565b50505b506103156004803603604081101561099b57600080610998613a09565b50505b50803590602001356121c0565b3480156109bd576000806109ba613a09565b50505b5061038a600480360360208110156109dd576000806109da613a09565b50505b50356121f3565b3480156109f9576000806109f6613a09565b50505b50610a2f60048036036040811015610a1957600080610a16613a09565b50505b506001600160a01b038135169060200135612235565b60405180876001600160a01b03166001600160a01b03168152602001868152602001858152602001848152602001838152602001828152602001965050505050505060405180910390f35b348015610a8f57600080610a8c613a09565b50505b50610a986122c9565b604051808261030080838360005b83811015610abe578082015183820152602001610aa6565b5050505090500191505060405180910390f35b348015610ae657600080610ae3613a09565b50505b50610315612327565b348015610b0457600080610b01613a09565b50505b5061038a60048036036020811015610b2457600080610b21613a09565b50505b50351515612351565b348015610b4257600080610b3f613a09565b50505b5061031560048036036020811015610b6257600080610b5f613a09565b50505b503561241a565b348015610b7e57600080610b7b613a09565b50505b50610315612442565b348015610b9c57600080610b99613a09565b50505b5061038a60048036036020811015610bbc57600080610bb9613a09565b50505b503561244c565b348015610bd857600080610bd5613a09565b50505b50610315612604565b348015610bf657600080610bf3613a09565b50505b5061038a60048036036040811015610c1657600080610c13613a09565b50505b506001600160a01b03813516906020013561260e565b348015610c4157600080610c3e613a09565b50505b50610315612883565b348015610c5f57600080610c5c613a09565b50505b50610600612888565b348015610c7d57600080610c7a613a09565b50505b50610315612894565b348015610c9b57600080610c98613a09565b50505b5061038a60048036036020811015610cbb57600080610cb8613a09565b50505b503561289e565b348015610cd757600080610cd4613a09565b50505b5061031561298c565b348015610cf557600080610cf2613a09565b50505b50610315612996565b348015610d1357600080610d10613a09565b50505b5061031560048036036020811015610d3357600080610d30613a09565b50505b50356129a0565b60006005610d46613a74565b906101000a90046001600160a01b031681565b60156020528060005260406000209050610d71613a74565b81565b600e610d71613a74565b610d866129c8565b8060018080610d93613a74565b816001600160a01b0302191690836001600160a01b0316021790610db5613acf565b5050507f906a1c6bd7e3091ea86693dd029a831c19049ce77f1dce2ce0bab1cacbabce22816040516001600160a01b03909116815260200160405180910390a150565b610e006129c8565b60006003610e0c613a74565b906101000a900460ff1615158115151415610e2657610ecb565b806003600181610e34613a74565b8160ff02191690831515021790610e49613acf565b5050506003600090610e59613a74565b906101000a900460ff1615610e80575a610e71613b1d565b806002610e7c613acf565b5050505b7f8fb6c181ee25a520cf3dd6565006ef91229fcfe5a989566c2a3b8c115570cec560006003610ead613a74565b906101000a900460ff16604051901515815260200160405180910390a15b50565b6012610d71613a74565b6000610ee2613b63565b610eec8484612a42565b9050610ef781612b93565b9150505b92915050565b6001600160a01b0381166000908152601460205260609081906040902080610f27613a74565b8060200260200160405190810160405281815291906000602084015b82821015610fec578382906000526020600020906006020160405160c081016040529081600082610f72613a74565b6001600160a01b036101009290920a900416815260200160018201610f95613a74565b815260200160028201610fa6613a74565b815260200160038201610fb7613a74565b815260200160048201610fc8613a74565b815260200160058201610fd9613a74565b8152505081526020019060010190610f43565b5050505090506060815160405190808252806020026020018201604052801561101f578160200160208202803883390190505b5090506000805b83518110156110895783818151811061103b57fe5b602002602001015160a001516110815783818151811061105757fe5b60200260200101516080015183838151811061106f57fe5b60209081029190910101526001909101905b600101611026565b506060816040519080825280602002602001820160405280156110b6578160200160208202803883390190505b50905060005b828110156110f7578381815181106110d057fe5b60200260200101518282815181106110e457fe5b60209081029190910101526001016110bc565b5093505050505b919050565b600b610d71613a74565b6111156129c8565b806005600181611123613a74565b816001600160a01b0302191690836001600160a01b0316021790611145613acf565b5060009150505b600780611157613a74565b90508110156112d35760006007828161116e613a74565b811061117657fe5b90600052602060002001611188613a74565b905060006005611196613a74565b906101000a90046001600160a01b03166001600160a01b031663dacb2d01826040516001600160e01b031960e084901b1681526004810191909152604060248201819052601760448301527f5265736f6c766572206d697373696e672074617267657400000000000000000060648301526084909101906020905180830381868061121f613ba2565b15801561123457600080611231613a09565b50505b505a61123e613bee565b505050505015801561125d573d6000803e3d600061125a613a09565b50505b505050506040513d602081101561127c57600080611279613a09565b50505b81019080805160008581526006602052909350604092509050206001816112a1613a74565b816001600160a01b0302191690836001600160a01b03160217906112c3613acf565b50506001909201915061114c9050565b5050565b6013610d71613a74565b6112e96129c8565b8080600c6112f5613acf565b5050507fbb72ce8874020b3b98429d653df927cac6618ac1932384b1446bf04bf9a1b7e5600c611323613a74565b60405190815260200160405180910390a150565b61133f6129c8565b8080600d61134b613acf565b5050507f8640e538c9503bd8d11554fc26280efe867c12195c0eee0aeede5f4a8d528839600d611323613a74565b60006001610d46613a74565b60006003611391613a74565b906101000a900460ff1681565b6113a66129c8565b6103e88082106113f05760405162461bcd60e51b8152600401808060200182810382526025815260200180613e3c60259139604001915050604051809103906113ed613a09565b50505b8180600e6113fc613acf565b5050507f59822dc2d999f6f0618e8b0db5cfc8496084574c769b09609d9b5f4394a310b6600e61142a613a74565b60405190815260200160405180910390a15050565b6114476129c8565b6301e1338081116114925760405162461bcd60e51b815260040180806020018281038252603781526020018061400b603791396040019150506040518091039061148f613a09565b50505b73__$09231a05ed34b6851f1018822ecfa0dcb8$__63907af6c06040518163ffffffff1660e01b815260040160206040518083038186806114d1613ba2565b1580156114e6576000806114e3613a09565b50505b505a6114f0613ca7565b505050505015801561150f573d6000803e3d600061150c613a09565b50505b505050506040513d602081101561152e5760008061152b613a09565b50505b81019080805184111592506115809150505760405162461bcd60e51b8152600401808060200182810382526025815260200180613f70602591396040019150506040518091039061157d613a09565b50505b8080600961158c613acf565b506115a591508290506301e1338063ffffffff612bb316565b80600a6115b0613acf565b5050507fa90e14be5aa57b910aa6dc16c31ff1b5cda380ae25a793b0d3f74df6131a7d746009611323613a74565b60006001600160a01b0382168160056115f5613a74565b906101000a90046001600160a01b03166001600160a01b03161461161b575060006110fe565b60005b600780611629613a74565b90508110156117af57600060078281611640613a74565b811061164857fe5b9060005260206000200161165a613a74565b6000818152600660205290915060409020600090611676613a74565b6001600160a01b036101009290920a90041660006005611694613a74565b906101000a90046001600160a01b03166001600160a01b03166321f8a721836040516001600160e01b031960e084901b168152600481019190915260240160206040518083038186806116e5613ba2565b1580156116fa576000806116f7613a09565b50505b505a611704613bee565b5050505050158015611723573d6000803e3d6000611720613a09565b50505b505050506040513d60208110156117425760008061173f613a09565b50505b8101908080516001600160a01b03169390931415925082915061179690505750600081815260066020526040812060009061177b613a74565b906101000a90046001600160a01b03166001600160a01b0316145b156117a6576000925050506110fe565b5060010161161e565b50600192915050565b60008060036117c5613a74565b906101000a900460ff16156118145760405162461bcd60e51b815260040180806020018281038252603c815260200180613f34603c913960400191505060405180910390611811613a09565b50505b6001600460008282611824613a74565b019250508190611832613acf565b50505060006004611841613a74565b905061184b612c25565b6001600160a01b0316632528f0fe6040516001600160e01b031960e083901b168152630e68aa8960e31b60048201526024016020604051808303818680611890613ba2565b1580156118a5576000806118a2613a09565b50505b505a6118af613bee565b50505050501580156118ce573d6000803e3d60006118cb613a09565b50505b505050506040513d60208110156118ed576000806118ea613a09565b50505b8101908080511592506119529150505760405162461bcd60e51b815260206004820152601f60248201527f426c6f636b65642061732073455448207261746520697320696e76616c69640060448201526064016040518091039061194f613a09565b50505b61195a612c74565b6001600160a01b0316637c3125416040518163ffffffff1660e01b8152600401600060405180830381868061198d613ba2565b1580156119a25760008061199f613a09565b50505b505a6119ac613bee565b50505050501580156119cb573d6000803e3d60006119c8613a09565b50505b50505050600d6119d9613a74565b341015611a205760405162461bcd60e51b815260040180806020018281038252603e815260200180613ef6603e913960400191505060405180910390611a1d613a09565b50505b6000600f611a2c613a74565b60ff6101009290920a90041615611a925760405162461bcd60e51b815260206004820152601e60248201527f4c6f616e7320617265206e6f77206265696e67206c6971756964617465640000604482015260640160405180910390611a8f613a09565b50505b600e611a9c613a74565b601460005a611aa9613cea565b6001600160a01b03166001600160a01b0316815260200190815260200160002080611ad2613a74565b905010611b195760405162461bcd60e51b8152600401808060200182810382526022815260200180613e616022913960400191505060405180910390611b16613a09565b50505b6000611b243461210a565b9050600c611b30613a74565b611b4a826011611b3e613a74565b9063ffffffff612cc216565b10611b8f5760405162461bcd60e51b8152600401808060200182810382526023815260200180613e836023913960400191505060405180910390611b8c613a09565b50505b611b97612d2a565b9250611ba1613b63565b6040518060c001604052805a611bb5613cea565b6001600160a01b031681526020013481526020018381526020015a611bd8613b1d565b815260200185815260200160008152509050601460005a611bf7613cea565b6001600160a01b03166001600160a01b03168152602001908152602001600020819080600181611c25613a74565b018082611c30613acf565b50506000928352916000198301915060209020919291600690910201815181600181611c5a613a74565b816001600160a01b0302191690836001600160a01b0316021790611c7c613acf565b505050602082015181600101611c90613acf565b5050604082015181600201611ca3613acf565b5050606082015181600301611cb6613acf565b5050608082015181600401611cc9613acf565b505060a082015181600501611cdc613acf565b5050505050611cef826011611b3e613a74565b806011611cfa613acf565b505050611d05612d70565b6001600160a01b031663867904b45a611d1c613cea565b846040516001600160e01b031960e085901b1681526001600160a01b039092166004830152602482015260440160006040518083038160008780611d5e613ba2565b158015611d7357600080611d70613a09565b50505b505a611d7d613d30565b505050505050158015611d9d573d6000803e3d6000611d9a613a09565b50505b505050505a611daa613cea565b6001600160a01b03167f58d170de3a12438e22d81380f353b2fcac86f0a708a1374deaa5c6322a95992f858460405191825260208201526040908101905180910390a250506004611df9613a74565b8114611e545760405162461bcd60e51b815260206004820152601f60248201527f5265656e7472616e637947756172643a207265656e7472616e742063616c6c00604482015260640160405180910390611e51613a09565b50505b5090565b60006001611e64613a74565b906101000a90046001600160a01b03166001600160a01b03165a611e86613cea565b6001600160a01b031614611ed45760405162461bcd60e51b8152600401808060200182810382526035815260200180613e076035913960400191505060405180910390611ed1613a09565b50505b7fb532073b38c83145e3e5135377a08bf9aab55bc0fd7c1179cd4fb995d2a5159c600080611f00613a74565b906101000a90046001600160a01b03166001600090611f1d613a74565b906101000a90046001600160a01b03166040516001600160a01b039283168152911660208201526040908101905180910390a160006001611f5c613a74565b906101000a90046001600160a01b03166000806101000a81611f7c613a74565b816001600160a01b0302191690836001600160a01b0316021790611f9e613acf565b5050506000600160006101000a81611fb4613a74565b816001600160a01b0302191690836001600160a01b0316021790611fd6613acf565b505050565b6009610d71613a74565b60008060008060008060008060008060008060006008612003613a74565b9c5061200d612327565b9b506009612019613a74565b9a50600a612025613a74565b9950600b612031613a74565b9850600c61203d613a74565b9750600d612049613a74565b96506011612055613a74565b95506012612061613a74565b9450601361206d613a74565b935060009250601061207d613a74565b91506000600f61208b613a74565b906101000a900460ff169050909192939495969798999a9b9c565b60006120b0613b63565b6120ba8484612a42565b905060006120c782612dbb565b90506120d78260400151826121c0565b95945050505050565b60006120ea613b63565b6120f48484612a42565b9050610ef781612dbb565b600080610d46613a74565b6000610efb612117612327565b839063ffffffff612e0816565b6002610d71613a74565b6010610d71613a74565b60008060008060008060008061214c613b63565b6121568b8b612a42565b905080519850806020015197508060400151965080606001519550806080015194508060a001519350612195816040015161219083612dbb565b6121c0565b92506121b06121a382612b93565b849063ffffffff612cc216565b9150509295985092959890939650565b60006121ec6121df83600a6121d3613a74565b9063ffffffff612e3216565b849063ffffffff612e9116565b9392505050565b6121fb6129c8565b8080600b612207613acf565b5050507fe7bd72551c54d568cd97b00dc52d2787b5c5d4f0070d3582c1e8ba25141f799c600b611323613a74565b6014602052816000526040600020818161224d613a74565b811061225557fe5b90600052602060002060069091020191506000905081612273613a74565b906101000a90046001600160a01b03169080600101612290613a74565b908060020161229d613a74565b90806003016122aa613a74565b90806004016122b7613a74565b90806005016122c4613a74565b905086565b6122d1613de9565b60005b6007806122df613a74565b9050811015611e5457600781816122f4613a74565b81106122fc57fe5b9060005260206000200161230e613a74565b82826018811061231a57fe5b60200201526001016122d4565b600061234c6008612336613a74565b68056bc75e2d631000009063ffffffff612ea616565b905090565b6123596129c8565b6010612363613a74565b5a61236c613b1d565b116123c65760405162461bcd60e51b815260206004820152601b60248201527f4265666f7265206c69717569646174696f6e20646561646c696e6500000000006044820152606401604051809103906123c3613a09565b50505b80600f6001816123d4613a74565b8160ff021916908315150217906123e9613acf565b5050507faa52cf15c1fbb778214c66f64726e141551158858d1c06ca0392c6c5869c8567600f600090610ead613a74565b60078181612426613a74565b811061242e57fe5b906000526020600020019050610d71613a74565b600d610d71613a74565b600160046000828261245c613a74565b01925050819061246a613acf565b50505060006004612479613a74565b9050612483612c25565b6001600160a01b0316632528f0fe6040516001600160e01b031960e083901b168152630e68aa8960e31b600482015260240160206040518083038186806124c8613ba2565b1580156124dd576000806124da613a09565b50505b505a6124e7613bee565b5050505050158015612506573d6000803e3d6000612503613a09565b50505b505050506040513d602081101561252557600080612522613a09565b50505b81019080805115925061258a9150505760405162461bcd60e51b815260206004820152601f60248201527f426c6f636b65642061732073455448207261746520697320696e76616c696400604482015260640160405180910390612587613a09565b50505b61259c5a612596613cea565b83612ebb565b60046125a6613a74565b81146112d35760405162461bcd60e51b815260206004820152601f60248201527f5265656e7472616e637947756172643a207265656e7472616e742063616c6c006044820152606401604051809103906125fe613a09565b50505050565b6008610d71613a74565b600160046000828261261e613a74565b01925050819061262c613acf565b5050506000600461263b613a74565b9050612645612c25565b6001600160a01b0316632528f0fe6040516001600160e01b031960e083901b168152630e68aa8960e31b6004820152602401602060405180830381868061268a613ba2565b15801561269f5760008061269c613a09565b50505b505a6126a9613bee565b50505050501580156126c8573d6000803e3d60006126c5613a09565b50505b505050506040513d60208110156126e7576000806126e4613a09565b50505b81019080805115925061274c9150505760405162461bcd60e51b815260206004820152601f60248201527f426c6f636b65642061732073455448207261746520697320696e76616c696400604482015260640160405180910390612749613a09565b50505b6000600f612758613a74565b906101000a900460ff166127bb5760405162461bcd60e51b815260206004820152601760248201527f4c69717569646174696f6e206973206e6f74206f70656e0000000000000000006044820152606401604051809103906127b8613a09565b50505b6127c58383612ebb565b826001600160a01b03167fde21b2a43b0a2c2109c049fb1e4bb8653fd67d0ffd74fdcb662db381f1eeab38835a6127fa613cea565b6040519182526001600160a01b031660208201526040908101905180910390a26004612824613a74565b8114611fd65760405162461bcd60e51b815260206004820152601f60248201527f5265656e7472616e637947756172643a207265656e7472616e742063616c6c0060448201526064016040518091039061287c613a09565b5050505050565b601881565b6000600f611391613a74565b600a610d71613a74565b6128a66129c8565b683635c9adc5dea000008111156128f75760405162461bcd60e51b81526020600482015260086024820152670a8dede40d0d2ced60c31b6044820152606401604051809103906128f4613a09565b50505b68056bc75e2d631000008110156129475760405162461bcd60e51b8152602060048201526007602482015266546f6f206c6f7760c81b604482015260640160405180910390612944613a09565b50505b80806008612953613acf565b5050507ffb0ebe8c7316e6a251494c38876d13d9a3a029273fce7964c12aa2ce078695308160405190815260200160405180910390a150565b6011610d71613a74565b600c610d71613a74565b6000610efb61211768056bc75e2d6310000060086129bc613a74565b9063ffffffff612ea616565b6000806129d3613a74565b906101000a90046001600160a01b03166001600160a01b03165a6129f5613cea565b6001600160a01b031614612a405760405162461bcd60e51b815260040180806020018281038252602f815260200180613ea6602f9139604001915050604051809103906112d3613a09565b565b612a4a613b63565b6001600160a01b038316600090815260146020526060906040902080612a6e613a74565b8060200260200160405190810160405281815291906000602084015b82821015612b33578382906000526020600020906006020160405160c081016040529081600082612ab9613a74565b6001600160a01b036101009290920a900416815260200160018201612adc613a74565b815260200160028201612aed613a74565b815260200160038201612afe613a74565b815260200160048201612b0f613a74565b815260200160058201612b20613a74565b8152505081526020019060010190612a8a565b509293506000925050505b8151811015612b8b5783828281518110612b5457fe5b6020026020010151608001511415612b8357818181518110612b7257fe5b602002602001015192505050610efb565b600101612b3e565b505092915050565b6000610efb600b612ba2613a74565b83604001519063ffffffff612e9116565b6000808211612c115760405162461bcd60e51b815260206004820152601a60248201527f536166654d6174683a206469766973696f6e206279207a65726f000000000000604482015260640160405180910390612c0e613a09565b50505b6000828481612c1c57fe5b04949350505050565b600061234c6c45786368616e6765526174657360981b60405160408082019052601d81527f4d697373696e672045786368616e676552617465732061646472657373000000602082015261370e565b600061234c6b53797374656d53746174757360a01b60405160408082019052601c81527f4d697373696e672053797374656d537461747573206164647265737300000000602082015261370e565b6000828201838110156121ec5760405162461bcd60e51b815260206004820152601b60248201527f536166654d6174683a206164646974696f6e206f766572666c6f770000000000604482015260640160405180910390612d21613a09565b50509392505050565b6000612d3b60016013611b3e613a74565b806013612d46613acf565b505050612d5860016012611b3e613a74565b806012612d63613acf565b505050601261234c613a74565b600061234c680a6f2dce8d0e68aa8960bb1b60405160408082019052601981527f4d697373696e672053796e746873455448206164647265737300000000000000602082015261370e565b60008060008360a0015111905080612def57612dea83606001515a612dde613b1d565b9063ffffffff6137d716565b6121ec565b6121ec83606001518460a001519063ffffffff6137d716565b6000670de0b6b3a7640000612e23848463ffffffff612e3216565b81612e2a57fe5b049392505050565b600082612e4157506000610efb565b82820282848281612e4e57fe5b04146121ec5760405162461bcd60e51b8152600401808060200182810382526021815260200180613ed56021913960400191505060405180910390612d21613a09565b60006121ec8383670de0b6b3a764000061383c565b60006121ec8383670de0b6b3a7640000613879565b612ec3612c74565b6001600160a01b0316637c3125416040518163ffffffff1660e01b81526004016000604051808303818680612ef6613ba2565b158015612f0b57600080612f08613a09565b50505b505a612f15613bee565b5050505050158015612f34573d6000803e3d6000612f31613a09565b50505b50505050612f40613b63565b612f4a8383612a42565b90506000816080015111612fa35760405162461bcd60e51b8152602060048201526013602482015272131bd85b88191bd95cc81b9bdd08195e1a5cdd606a1b604482015260640160405180910390612fa0613a09565b50505b8060a0015115612ff85760405162461bcd60e51b8152602060048201526013602482015272131bd85b88185b1c9958591e4818db1bdcd959606a1b604482015260640160405180910390612ff5613a09565b50505b8060400151613005612d70565b6001600160a01b03166370a082315a61301c613cea565b6040516001600160e01b031960e084901b1681526001600160a01b0390911660048201526024016020604051808303818680613056613ba2565b15801561306b57600080613068613a09565b50505b505a613075613bee565b5050505050158015613094573d6000803e3d6000613091613a09565b50505b505050506040513d60208110156130b3576000806130b0613a09565b50505b810190808051939093101592506131079150505760405162461bcd60e51b815260040180806020018281038252603e815260200180613fcd603e913960400191505060405180910390613104613a09565b50505b613110816138ab565b61312281604001516011612dde613a74565b80601161312d613acf565b5050506000613143826040015161219084612dbb565b9050600061315083612b93565b90506000613164838363ffffffff612cc216565b905061316e612d70565b6001600160a01b0316639dc29fac5a613185613cea565b86604001516040516001600160e01b031960e085901b1681526001600160a01b0390921660048301526024820152604401600060405180830381600087806131cb613ba2565b1580156131e0576000806131dd613a09565b50505b505a6131ea613d30565b50505050505015801561320a573d6000803e3d6000613207613a09565b50505b5050505061321661397f565b6001600160a01b0316630c928f05826040516001600160e01b031960e084901b16815260048101919091526024016020604051808303818680613257613ba2565b15801561326c57600080613269613a09565b50505b505a613276613bee565b5050505050158015613295573d6000803e3d6000613292613a09565b50505b505050506040513d60208110156132b4576000806132b1613a09565b50505b81019080805192506132c891506139be9050565b6001600160a01b03166370a082316132de61397f565b6040516001600160e01b031960e084901b1681526001600160a01b0390911660048201526024016020604051808303818680613318613ba2565b15801561332d5760008061332a613a09565b50505b505a613337613bee565b5050505050158015613356573d6000803e3d6000613353613a09565b50505b505050506040513d602081101561337557600080613372613a09565b50505b810190808051939093101592506133c99150505760405162461bcd60e51b8152600401808060200182810382526038815260200180613f9560389139604001915050604051809103906133c6613a09565b50505b6133d161397f565b6001600160a01b0316631f930115826040518263ffffffff1660e01b8152600401602060405180830381858880613406613ba2565b15801561341b57600080613418613a09565b50505b505a613425613d30565b505050505050158015613445573d6000803e3d6000613442613a09565b50505b50505050506040513d602081101561346557600080613462613a09565b50505b8101908080515061347992506139be915050565b6001600160a01b031663a9059cbb73feefeefeefeefeefeefeefeefeefeefeefeefeef6134a46139be565b6001600160a01b03166370a082315a63996d79a5598160e01b8152602081600483336000905af158600e01573d6000803e3d6000fd5b3d6001141558600a015760016000f35b8051925060005b6040811015613508576000828201526020016134f1565b5050506040516001600160e01b031960e084901b1681526001600160a01b0390911660048201526024016020604051808303818680613545613ba2565b15801561355a57600080613557613a09565b50505b505a613564613bee565b5050505050158015613583573d6000803e3d6000613580613a09565b50505b505050506040513d60208110156135a25760008061359f613a09565b50505b81019080805192506040915050516001600160e01b031960e085901b1681526001600160a01b0390921660048301526024820152604401602060405180830381600087806135ee613ba2565b15801561360357600080613600613a09565b50505b505a61360d613d30565b50505050505015801561362d573d6000803e3d600061362a613a09565b50505b505050506040513d602081101561364c57600080613649613a09565b50505b810190808051505050505a61365f613cea565b6001600160a01b03166108fc6136808387602001519063ffffffff6137d716565b908115029060405160006040518083038185888861369c613d30565b50505050505093505050501580156136c1573d6000803e3d60006136be613a09565b50505b50856001600160a01b03167f3cc9f5d298758bad94536f27fa6a3033c2793e0a387a2d78e72550a3b8dacf1e868360405191825260208201526040908101905180910390a2505050505050565b600082815260066020528060408120600090613728613a74565b6001600160a01b036101009290920a900416905082816137cf5760405162461bcd60e51b81526004018080602001828103825283818151815260200191508051906020019080838360005b8381101561378b578082015183820152602001613773565b50505050905090810190601f1680156137b85780820380516001836020036101000a031916815260200191505b5092505050604051809103906137cc613a09565b50505b509392505050565b6000828211156138365760405162461bcd60e51b815260206004820152601e60248201527f536166654d6174683a207375627472616374696f6e206f766572666c6f770000604482015260640160405180910390613833613a09565b50505b50900390565b600080600a8304613853868663ffffffff612e3216565b8161385a57fe5b0490506005600a825b061061386d57600a015b600a9004949350505050565b60008061389f8461389387600a870263ffffffff612e3216565b9063ffffffff612bb316565b90506005600a82613863565b600060148183516001600160a01b03166001600160a01b03168152602001908152602001600020905060005b81806138e1613a74565b90508110156139645782608001518282816138fa613a74565b811061390257fe5b906000526020600020906006020160040161391b613a74565b141561395c575a61392a613b1d565b828281613935613a74565b811061393d57fe5b90600052602060002090600602016005018190613958613acf565b5050505b6001016138d7565b5061397460016013612dde613a74565b80601361287c613acf565b600061234c6411195c1bdd60da1b6040516040808201905260158152744d697373696e67204465706f74206164647265737360581b602082015261370e565b600061234c6814de5b9d1a1cd554d160ba1b60405160408082019052601981527f4d697373696e672053796e746873555344206164647265737300000000000000602082015261370e565b632a2a7adb598160e01b8152600481016020815285602082015260005b86811015613a41578086015182820160400152602001613a26565b506020828760640184336000905af158600e01573d6000803e3d6000fd5b3d6001141558600a015760016000f35b505050565b6303daa959598160e01b8152836004820152602081602483336000905af158600e01573d6000803e3d6000fd5b3d6001141558600a015760016000f35b8051935060005b6040811015611fd657600082820152602001613ab8565b6322bd64c0598160e01b8152836004820152846024820152600081604483336000905af158600e01573d6000803e3d6000fd5b3d6001141558600a015760016000f35b600081526020613ab8565b63bdbf8c36598160e01b8152602081600483336000905af158600e01573d6000803e3d6000fd5b3d6001141558600a015760016000f35b80516000825293506020613ab8565b6040518060c0016040528060006001600160a01b0316815260200160008152602001600081526020016000815260200160008152602001600081525090565b638435035b598160e01b8152836004820152602081602483336000905af158600e01573d6000803e3d6000fd5b3d6001141558600a015760016000f35b80516000825293506020613ab8565b638540661f598160e01b8152836004820152846024820152606060448201528660648201526084810160005b88811015613c32578088015182820152602001613c1a565b50876101040182016060838a6101040185336000905af158600e01573d6000803e3d6000fd5b3d6001141558600a015760016000f35b825160408401513d6000863e8c8c82606088013350600060045af15059855b81811015613c9b5760008152602001613c87565b50919c50505050505050565b63ffe73914598160e01b81528360048201528460248201526060604482015286606482015260848101600088811015613c32578088015182820152602001613c1a565b6373509064598160e01b8152602081600483336000905af158600e01573d6000803e3d6000fd5b3d6001141558600a015760016000f35b80516000825293506020613ab8565b6385979f76598160e01b8152836004820152846024820152606060448201528760648201526084810160005b89811015613d74578089015182820152602001613d5c565b50886101040182016060838b6101040185336000905af158600e01573d6000803e3d6000fd5b3d6001141558600a015760016000f35b825160408401513d6000863e8d8d82606088013350600060045af15059855b81811015613ddd5760008152602001613dc9565b50919d50505050505050565b60405161030080820160405260189082908038833950919291505056fe596f75206d757374206265206e6f6d696e61746564206265666f726520796f752063616e20616363657074206f776e6572736869704f776e65722063616e6e6f742073657420686967686572207468616e20484152445f43415045616368206163636f756e74206973206c696d74656420746f203530206c6f616e734c6f616e20416d6f756e7420657863656564732074686520737570706c79206361702e4f6e6c792074686520636f6e7472616374206f776e6572206d617920706572666f726d207468697320616374696f6e536166654d6174683a206d756c7469706c69636174696f6e206f766572666c6f774e6f7420656e6f7567682045544820746f206372656174652074686973206c6f616e2e20506c656173652073656520746865206d696e4c6f616e53697a655468697320616374696f6e2063616e6e6f7420626520706572666f726d6564207768696c652074686520636f6e747261637420697320706175736564496e7465726573742063616e6e6f74206265206d6f7265207468616e2031303025204150525468652073555344204465706f7420646f6573206e6f74206861766520656e6f756768207355534420746f2062757920666f722066656573596f7520646f206e6f742068617665207468652072657175697265642053796e74682062616c616e636520746f20636c6f73652074686973206c6f616e2e496e74657265737420726174652063616e6e6f74206265206c657373207468617420746865205345434f4e44535f494e5f415f59454152",
			"opcodes": "PUSH1 0x80 PUSH1 0x40 MSTORE PUSH20 0x0 PUSH4 0x907AF6C0 PUSH1 0x40 MLOAD DUP2 PUSH4 0xFFFFFFFF AND PUSH1 0xE0 SHL DUP2 MSTORE PUSH1 0x4 ADD PUSH1 0x20 PUSH1 0x40 MLOAD DUP1 DUP4 SUB DUP2 DUP7 DUP1 PUSH3 0x45 PUSH3 0x8CF JUMP JUMPDEST ISZERO DUP1 ISZERO PUSH3 0x5D JUMPI PUSH1 0x0 DUP1 PUSH3 0x5A PUSH3 0x931 JUMP JUMPDEST POP POP JUMPDEST POP GAS PUSH3 0x69 PUSH3 0x99E JUMP JUMPDEST POP POP POP POP POP ISZERO DUP1 ISZERO PUSH3 0x8B JUMPI RETURNDATASIZE PUSH1 0x0 DUP1 RETURNDATACOPY RETURNDATASIZE PUSH1 0x0 PUSH3 0x88 PUSH3 0x931 JUMP JUMPDEST POP POP JUMPDEST POP POP POP POP PUSH1 0x40 MLOAD RETURNDATASIZE PUSH1 0x20 DUP2 LT ISZERO PUSH3 0xAD JUMPI PUSH1 0x0 DUP1 PUSH3 0xAA PUSH3 0x931 JUMP JUMPDEST POP POP JUMPDEST DUP2 ADD SWAP1 DUP1 DUP1 MLOAD PUSH1 0x7D MUL SWAP3 POP PUSH1 0x8 SWAP2 POP PUSH3 0xC8 SWAP1 POP PUSH3 0xA5B JUMP JUMPDEST POP POP PUSH1 0x64 PUSH20 0x0 PUSH4 0x907AF6C0 PUSH1 0x40 MLOAD DUP2 PUSH4 0xFFFFFFFF AND PUSH1 0xE0 SHL DUP2 MSTORE PUSH1 0x4 ADD PUSH1 0x20 PUSH1 0x40 MLOAD DUP1 DUP4 SUB DUP2 DUP7 DUP1 PUSH3 0x10D PUSH3 0x8CF JUMP JUMPDEST ISZERO DUP1 ISZERO PUSH3 0x125 JUMPI PUSH1 0x0 DUP1 PUSH3 0x122 PUSH3 0x931 JUMP JUMPDEST POP POP JUMPDEST POP GAS PUSH3 0x131 PUSH3 0x99E JUMP JUMPDEST POP POP POP POP POP ISZERO DUP1 ISZERO PUSH3 0x153 JUMPI RETURNDATASIZE PUSH1 0x0 DUP1 RETURNDATACOPY RETURNDATASIZE PUSH1 0x0 PUSH3 0x150 PUSH3 0x931 JUMP JUMPDEST POP POP JUMPDEST POP POP POP POP PUSH1 0x40 MLOAD RETURNDATASIZE PUSH1 0x20 DUP2 LT ISZERO PUSH3 0x175 JUMPI PUSH1 0x0 DUP1 PUSH3 0x172 PUSH3 0x931 JUMP JUMPDEST POP POP JUMPDEST DUP2 ADD SWAP1 DUP1 DUP1 MLOAD PUSH1 0x5 MUL SWAP3 POP DUP4 SWAP2 POP PUSH3 0x18C SWAP1 POP JUMPI INVALID JUMPDEST DIV PUSH1 0x9 PUSH3 0x199 PUSH3 0xA5B JUMP JUMPDEST POP POP PUSH3 0x1C4 PUSH4 0x1E13380 PUSH1 0x9 PUSH3 0x1B0 PUSH3 0xAAA JUMP JUMPDEST PUSH3 0x859 PUSH1 0x20 SHL PUSH3 0x2BB3 OR SWAP1 SWAP2 SWAP1 PUSH1 0x20 SHR JUMP JUMPDEST PUSH1 0xA PUSH3 0x1D0 PUSH3 0xA5B JUMP JUMPDEST POP POP PUSH2 0x3E8 PUSH20 0x0 PUSH4 0x907AF6C0 PUSH1 0x40 MLOAD DUP2 PUSH4 0xFFFFFFFF AND PUSH1 0xE0 SHL DUP2 MSTORE PUSH1 0x4 ADD PUSH1 0x20 PUSH1 0x40 MLOAD DUP1 DUP4 SUB DUP2 DUP7 DUP1 PUSH3 0x216 PUSH3 0x8CF JUMP JUMPDEST ISZERO DUP1 ISZERO PUSH3 0x22E JUMPI PUSH1 0x0 DUP1 PUSH3 0x22B PUSH3 0x931 JUMP JUMPDEST POP POP JUMPDEST POP GAS PUSH3 0x23A PUSH3 0x99E JUMP JUMPDEST POP POP POP POP POP ISZERO DUP1 ISZERO PUSH3 0x25C JUMPI RETURNDATASIZE PUSH1 0x0 DUP1 RETURNDATACOPY RETURNDATASIZE PUSH1 0x0 PUSH3 0x259 PUSH3 0x931 JUMP JUMPDEST POP POP JUMPDEST POP POP POP POP PUSH1 0x40 MLOAD RETURNDATASIZE PUSH1 0x20 DUP2 LT ISZERO PUSH3 0x27E JUMPI PUSH1 0x0 DUP1 PUSH3 0x27B PUSH3 0x931 JUMP JUMPDEST POP POP JUMPDEST DUP2 ADD SWAP1 DUP1 DUP1 MLOAD PUSH1 0x5 MUL SWAP3 POP DUP4 SWAP2 POP PUSH3 0x295 SWAP1 POP JUMPI INVALID JUMPDEST DIV PUSH1 0xB PUSH3 0x2A2 PUSH3 0xA5B JUMP JUMPDEST POP POP PUSH20 0x0 PUSH4 0x907AF6C0 PUSH1 0x40 MLOAD DUP2 PUSH4 0xFFFFFFFF AND PUSH1 0xE0 SHL DUP2 MSTORE PUSH1 0x4 ADD PUSH1 0x20 PUSH1 0x40 MLOAD DUP1 DUP4 SUB DUP2 DUP7 DUP1 PUSH3 0x2E5 PUSH3 0x8CF JUMP JUMPDEST ISZERO DUP1 ISZERO PUSH3 0x2FD JUMPI PUSH1 0x0 DUP1 PUSH3 0x2FA PUSH3 0x931 JUMP JUMPDEST POP POP JUMPDEST POP GAS PUSH3 0x309 PUSH3 0x99E JUMP JUMPDEST POP POP POP POP POP ISZERO DUP1 ISZERO PUSH3 0x32B JUMPI RETURNDATASIZE PUSH1 0x0 DUP1 RETURNDATACOPY RETURNDATASIZE PUSH1 0x0 PUSH3 0x328 PUSH3 0x931 JUMP JUMPDEST POP POP JUMPDEST POP POP POP POP PUSH1 0x40 MLOAD RETURNDATASIZE PUSH1 0x20 DUP2 LT ISZERO PUSH3 0x34D JUMPI PUSH1 0x0 DUP1 PUSH3 0x34A PUSH3 0x931 JUMP JUMPDEST POP POP JUMPDEST DUP2 ADD SWAP1 DUP1 DUP1 MLOAD PUSH2 0x1388 MUL SWAP3 POP PUSH1 0xC SWAP2 POP PUSH3 0x369 SWAP1 POP PUSH3 0xA5B JUMP JUMPDEST POP POP PUSH20 0x0 PUSH4 0x907AF6C0 PUSH1 0x40 MLOAD DUP2 PUSH4 0xFFFFFFFF AND PUSH1 0xE0 SHL DUP2 MSTORE PUSH1 0x4 ADD PUSH1 0x20 PUSH1 0x40 MLOAD DUP1 DUP4 SUB DUP2 DUP7 DUP1 PUSH3 0x3AC PUSH3 0x8CF JUMP JUMPDEST ISZERO DUP1 ISZERO PUSH3 0x3C4 JUMPI PUSH1 0x0 DUP1 PUSH3 0x3C1 PUSH3 0x931 JUMP JUMPDEST POP POP JUMPDEST POP GAS PUSH3 0x3D0 PUSH3 0x99E JUMP JUMPDEST POP POP POP POP POP ISZERO DUP1 ISZERO PUSH3 0x3F2 JUMPI RETURNDATASIZE PUSH1 0x0 DUP1 RETURNDATACOPY RETURNDATASIZE PUSH1 0x0 PUSH3 0x3EF PUSH3 0x931 JUMP JUMPDEST POP POP JUMPDEST POP POP POP POP PUSH1 0x40 MLOAD RETURNDATASIZE PUSH1 0x20 DUP2 LT ISZERO PUSH3 0x414 JUMPI PUSH1 0x0 DUP1 PUSH3 0x411 PUSH3 0x931 JUMP JUMPDEST POP POP JUMPDEST DUP2 ADD SWAP1 DUP1 DUP1 MLOAD SWAP3 POP PUSH1 0xD SWAP2 POP PUSH3 0x42C SWAP1 POP PUSH3 0xA5B JUMP JUMPDEST POP POP PUSH1 0x32 PUSH1 0xE PUSH3 0x43C PUSH3 0xA5B JUMP JUMPDEST POP PUSH1 0x0 SWAP1 POP PUSH1 0xF PUSH1 0x1 DUP2 PUSH3 0x450 PUSH3 0xAAA JUMP JUMPDEST DUP2 PUSH1 0xFF MUL NOT AND SWAP1 DUP4 ISZERO ISZERO MUL OR SWAP1 PUSH3 0x467 PUSH3 0xA5B JUMP JUMPDEST POP POP POP PUSH1 0x40 MLOAD PUSH1 0xA0 DUP2 ADD PUSH1 0x40 SWAP1 DUP2 MSTORE PUSH12 0x53797374656D537461747573 PUSH1 0xA0 SHL DUP3 MSTORE PUSH9 0xA6F2DCE8D0E68AA89 PUSH1 0xBB SHL PUSH1 0x20 DUP4 ADD MSTORE PUSH9 0x14DE5B9D1A1CD554D1 PUSH1 0xBA SHL SWAP1 DUP3 ADD MSTORE PUSH5 0x11195C1BDD PUSH1 0xDA SHL PUSH1 0x60 DUP3 ADD MSTORE PUSH13 0x45786368616E67655261746573 PUSH1 0x98 SHL PUSH1 0x80 DUP3 ADD MSTORE PUSH3 0x4DF SWAP1 PUSH1 0x16 SWAP1 PUSH1 0x5 PUSH3 0xAF7 JUMP JUMPDEST POP CALLVALUE DUP1 ISZERO PUSH3 0x4F8 JUMPI PUSH1 0x0 DUP1 PUSH3 0x4F5 PUSH3 0x931 JUMP JUMPDEST POP POP JUMPDEST POP PUSH1 0x40 MLOAD PUSH3 0x4C0B CODESIZE SUB DUP1 PUSH3 0x4C0B DUP4 CODECOPY DUP2 DUP2 ADD PUSH1 0x40 MSTORE PUSH1 0x40 DUP2 LT ISZERO PUSH3 0x529 JUMPI PUSH1 0x0 DUP1 PUSH3 0x526 PUSH3 0x931 JUMP JUMPDEST POP POP JUMPDEST DUP2 ADD SWAP1 DUP1 DUP1 MLOAD SWAP3 SWAP2 SWAP1 PUSH1 0x20 ADD DUP1 MLOAD SWAP3 POP DUP3 SWAP2 POP PUSH1 0x16 SWAP1 POP PUSH1 0x18 PUSH2 0x300 PUSH1 0x40 MLOAD SWAP1 DUP2 ADD PUSH1 0x40 MSTORE SWAP2 SWAP1 PUSH2 0x300 DUP4 ADD DUP3 DUP5 JUMPDEST DUP2 PUSH3 0x563 PUSH3 0xAAA JUMP JUMPDEST DUP2 MSTORE PUSH1 0x20 ADD SWAP1 PUSH1 0x1 ADD SWAP1 DUP1 DUP4 GT PUSH3 0x558 JUMPI POP DUP8 SWAP4 POP POP POP POP PUSH1 0x1 PUSH1 0x1 PUSH1 0xA0 SHL SUB DUP2 AND PUSH3 0x5E2 JUMPI PUSH1 0x40 MLOAD PUSH3 0x461BCD PUSH1 0xE5 SHL DUP2 MSTORE PUSH1 0x20 PUSH1 0x4 DUP3 ADD MSTORE PUSH1 0x19 PUSH1 0x24 DUP3 ADD MSTORE PUSH32 0x4F776E657220616464726573732063616E6E6F74206265203000000000000000 PUSH1 0x44 DUP3 ADD MSTORE PUSH1 0x64 ADD PUSH1 0x40 MLOAD DUP1 SWAP2 SUB SWAP1 PUSH3 0x5DF PUSH3 0x931 JUMP JUMPDEST POP POP JUMPDEST DUP1 PUSH1 0x0 PUSH1 0x1 DUP2 PUSH3 0x5F2 PUSH3 0xAAA JUMP JUMPDEST DUP2 PUSH1 0x1 PUSH1 0x1 PUSH1 0xA0 SHL SUB MUL NOT AND SWAP1 DUP4 PUSH1 0x1 PUSH1 0x1 PUSH1 0xA0 SHL SUB AND MUL OR SWAP1 PUSH3 0x616 PUSH3 0xA5B JUMP JUMPDEST POP POP POP PUSH32 0xB532073B38C83145E3E5135377A08BF9AAB55BC0FD7C1179CD4FB995D2A5159C PUSH1 0x0 DUP3 PUSH1 0x40 MLOAD PUSH1 0x1 PUSH1 0x1 PUSH1 0xA0 SHL SUB SWAP3 DUP4 AND DUP2 MSTORE SWAP2 AND PUSH1 0x20 DUP3 ADD MSTORE PUSH1 0x40 SWAP1 DUP2 ADD SWAP1 MLOAD DUP1 SWAP2 SUB SWAP1 LOG1 POP PUSH1 0x0 DUP1 DUP1 PUSH3 0x66F PUSH3 0xAAA JUMP JUMPDEST SWAP1 PUSH2 0x100 EXP SWAP1 DIV PUSH1 0x1 PUSH1 0x1 PUSH1 0xA0 SHL SUB AND PUSH1 0x1 PUSH1 0x1 PUSH1 0xA0 SHL SUB AND EQ ISZERO PUSH3 0x6DA JUMPI PUSH1 0x40 MLOAD PUSH3 0x461BCD PUSH1 0xE5 SHL DUP2 MSTORE PUSH1 0x20 PUSH1 0x4 DUP3 ADD MSTORE PUSH1 0x11 PUSH1 0x24 DUP3 ADD MSTORE PUSH17 0x13DDDB995C881B5D5CDD081899481CD95D PUSH1 0x7A SHL PUSH1 0x44 DUP3 ADD MSTORE PUSH1 0x64 ADD PUSH1 0x40 MLOAD DUP1 SWAP2 SUB SWAP1 PUSH3 0x6D7 PUSH3 0x931 JUMP JUMPDEST POP POP JUMPDEST PUSH1 0x1 DUP1 PUSH1 0x4 PUSH3 0x6E9 PUSH3 0xA5B JUMP JUMPDEST POP PUSH1 0x0 SWAP2 POP DUP2 SWAP1 POP DUP1 PUSH3 0x6FC PUSH3 0xAAA JUMP JUMPDEST SWAP1 PUSH2 0x100 EXP SWAP1 DIV PUSH1 0x1 PUSH1 0x1 PUSH1 0xA0 SHL SUB AND PUSH1 0x1 PUSH1 0x1 PUSH1 0xA0 SHL SUB AND EQ ISZERO PUSH3 0x767 JUMPI PUSH1 0x40 MLOAD PUSH3 0x461BCD PUSH1 0xE5 SHL DUP2 MSTORE PUSH1 0x20 PUSH1 0x4 DUP3 ADD MSTORE PUSH1 0x11 PUSH1 0x24 DUP3 ADD MSTORE PUSH17 0x13DDDB995C881B5D5CDD081899481CD95D PUSH1 0x7A SHL PUSH1 0x44 DUP3 ADD MSTORE PUSH1 0x64 ADD PUSH1 0x40 MLOAD DUP1 SWAP2 SUB SWAP1 PUSH3 0x764 PUSH3 0x931 JUMP JUMPDEST POP POP JUMPDEST PUSH1 0x0 JUMPDEST PUSH1 0x18 DUP2 LT ISZERO PUSH3 0x7F7 JUMPI PUSH1 0x0 DUP3 DUP3 PUSH1 0x18 DUP2 LT PUSH3 0x783 JUMPI INVALID JUMPDEST PUSH1 0x20 MUL ADD MLOAD EQ PUSH3 0x7E8 JUMPI PUSH1 0x7 DUP3 DUP3 PUSH1 0x18 DUP2 LT PUSH3 0x79D JUMPI INVALID JUMPDEST PUSH1 0x20 MUL ADD MLOAD SWAP1 DUP1 PUSH1 0x1 DUP2 PUSH3 0x7B1 PUSH3 0xAAA JUMP JUMPDEST ADD DUP1 DUP3 PUSH3 0x7BE PUSH3 0xA5B JUMP JUMPDEST POP POP PUSH1 0x0 SWAP3 DUP4 MSTORE SWAP2 PUSH1 0x0 NOT DUP4 ADD SWAP2 POP PUSH1 0x20 SWAP1 KECCAK256 SWAP2 SWAP3 SWAP2 ADD PUSH3 0x7DF PUSH3 0xA5B JUMP JUMPDEST POP POP POP PUSH3 0x7EE JUMP JUMPDEST PUSH3 0x7F7 JUMP JUMPDEST PUSH1 0x1 ADD PUSH3 0x76A JUMP JUMPDEST POP DUP2 PUSH1 0x5 PUSH1 0x1 DUP2 PUSH3 0x808 PUSH3 0xAAA JUMP JUMPDEST DUP2 PUSH1 0x1 PUSH1 0x1 PUSH1 0xA0 SHL SUB MUL NOT AND SWAP1 DUP4 PUSH1 0x1 PUSH1 0x1 PUSH1 0xA0 SHL SUB AND MUL OR SWAP1 PUSH3 0x82C PUSH3 0xA5B JUMP JUMPDEST POP POP POP POP POP GAS PUSH3 0x83C PUSH3 0xB45 JUMP JUMPDEST PUSH3 0x794A00 ADD DUP1 PUSH1 0x10 PUSH3 0x84E PUSH3 0xA5B JUMP JUMPDEST POP POP POP POP POP PUSH3 0xBB9 JUMP JUMPDEST PUSH1 0x0 DUP1 DUP3 GT PUSH3 0x8BA JUMPI PUSH1 0x40 MLOAD PUSH3 0x461BCD PUSH1 0xE5 SHL DUP2 MSTORE PUSH1 0x20 PUSH1 0x4 DUP3 ADD MSTORE PUSH1 0x1A PUSH1 0x24 DUP3 ADD MSTORE PUSH32 0x536166654D6174683A206469766973696F6E206279207A65726F000000000000 PUSH1 0x44 DUP3 ADD MSTORE PUSH1 0x64 ADD PUSH1 0x40 MLOAD DUP1 SWAP2 SUB SWAP1 PUSH3 0x8B7 PUSH3 0x931 JUMP JUMPDEST POP POP JUMPDEST PUSH1 0x0 DUP3 DUP5 DUP2 PUSH3 0x8C6 JUMPI INVALID JUMPDEST DIV SWAP5 SWAP4 POP POP POP POP JUMP JUMPDEST PUSH4 0x8435035B MSIZE DUP2 PUSH1 0xE0 SHL DUP2 MSTORE DUP4 PUSH1 0x4 DUP3 ADD MSTORE PUSH1 0x20 DUP2 PUSH1 0x24 DUP4 CALLER PUSH1 0x0 SWAP1 GAS CALL PC PUSH1 0xE ADD JUMPI RETURNDATASIZE PUSH1 0x0 DUP1 RETURNDATACOPY RETURNDATASIZE PUSH1 0x0 REVERT JUMPDEST RETURNDATASIZE PUSH1 0x1 EQ ISZERO PC PUSH1 0xA ADD JUMPI PUSH1 0x1 PUSH1 0x0 RETURN JUMPDEST DUP1 MLOAD SWAP4 POP PUSH1 0x0 JUMPDEST PUSH1 0x40 DUP2 LT ISZERO PUSH3 0x92C JUMPI PUSH1 0x0 DUP3 DUP3 ADD MSTORE PUSH1 0x20 ADD PUSH3 0x913 JUMP JUMPDEST POP POP POP JUMP JUMPDEST PUSH4 0x2A2A7ADB MSIZE DUP2 PUSH1 0xE0 SHL DUP2 MSTORE PUSH1 0x4 DUP2 ADD PUSH1 0x20 DUP2 MSTORE DUP6 PUSH1 0x20 DUP3 ADD MSTORE PUSH1 0x0 JUMPDEST DUP7 DUP2 LT ISZERO PUSH3 0x96B JUMPI DUP1 DUP7 ADD MLOAD DUP3 DUP3 ADD PUSH1 0x40 ADD MSTORE PUSH1 0x20 ADD PUSH3 0x94E JUMP JUMPDEST POP PUSH1 0x20 DUP3 DUP8 PUSH1 0x64 ADD DUP5 CALLER PUSH1 0x0 SWAP1 GAS CALL PC PUSH1 0xE ADD JUMPI RETURNDATASIZE PUSH1 0x0 DUP1 RETURNDATACOPY RETURNDATASIZE PUSH1 0x0 REVERT JUMPDEST RETURNDATASIZE PUSH1 0x1 EQ ISZERO PC PUSH1 0xA ADD JUMPI PUSH1 0x1 PUSH1 0x0 RETURN JUMPDEST POP POP POP JUMP JUMPDEST PUSH4 0xFFE73914 MSIZE DUP2 PUSH1 0xE0 SHL DUP2 MSTORE DUP4 PUSH1 0x4 DUP3 ADD MSTORE DUP5 PUSH1 0x24 DUP3 ADD MSTORE PUSH1 0x60 PUSH1 0x44 DUP3 ADD MSTORE DUP7 PUSH1 0x64 DUP3 ADD MSTORE PUSH1 0x84 DUP2 ADD PUSH1 0x0 JUMPDEST DUP9 DUP2 LT ISZERO PUSH3 0x9E4 JUMPI DUP1 DUP9 ADD MLOAD DUP3 DUP3 ADD MSTORE PUSH1 0x20 ADD PUSH3 0x9CA JUMP JUMPDEST POP DUP8 PUSH2 0x104 ADD DUP3 ADD PUSH1 0x60 DUP4 DUP11 PUSH2 0x104 ADD DUP6 CALLER PUSH1 0x0 SWAP1 GAS CALL PC PUSH1 0xE ADD JUMPI RETURNDATASIZE PUSH1 0x0 DUP1 RETURNDATACOPY RETURNDATASIZE PUSH1 0x0 REVERT JUMPDEST RETURNDATASIZE PUSH1 0x1 EQ ISZERO PC PUSH1 0xA ADD JUMPI PUSH1 0x1 PUSH1 0x0 RETURN JUMPDEST DUP3 MLOAD PUSH1 0x40 DUP5 ADD MLOAD RETURNDATASIZE PUSH1 0x0 DUP7 RETURNDATACOPY DUP13 DUP13 DUP3 PUSH1 0x60 DUP9 ADD CALLER POP PUSH1 0x0 PUSH1 0x4 GAS CALL POP MSIZE DUP6 JUMPDEST DUP2 DUP2 LT ISZERO PUSH3 0xA4F JUMPI PUSH1 0x0 DUP2 MSTORE PUSH1 0x20 ADD PUSH3 0xA39 JUMP JUMPDEST POP SWAP2 SWAP13 POP POP POP POP POP POP POP JUMP JUMPDEST PUSH4 0x22BD64C0 MSIZE DUP2 PUSH1 0xE0 SHL DUP2 MSTORE DUP4 PUSH1 0x4 DUP3 ADD MSTORE DUP5 PUSH1 0x24 DUP3 ADD MSTORE PUSH1 0x0 DUP2 PUSH1 0x44 DUP4 CALLER PUSH1 0x0 SWAP1 GAS CALL PC PUSH1 0xE ADD JUMPI RETURNDATASIZE PUSH1 0x0 DUP1 RETURNDATACOPY RETURNDATASIZE PUSH1 0x0 REVERT JUMPDEST RETURNDATASIZE PUSH1 0x1 EQ ISZERO PC PUSH1 0xA ADD JUMPI PUSH1 0x1 PUSH1 0x0 RETURN JUMPDEST PUSH1 0x0 DUP2 MSTORE PUSH1 0x20 PUSH3 0x913 JUMP JUMPDEST PUSH4 0x3DAA959 MSIZE DUP2 PUSH1 0xE0 SHL DUP2 MSTORE DUP4 PUSH1 0x4 DUP3 ADD MSTORE PUSH1 0x20 DUP2 PUSH1 0x24 DUP4 CALLER PUSH1 0x0 SWAP1 GAS CALL PC PUSH1 0xE ADD JUMPI RETURNDATASIZE PUSH1 0x0 DUP1 RETURNDATACOPY RETURNDATASIZE PUSH1 0x0 REVERT JUMPDEST RETURNDATASIZE PUSH1 0x1 EQ ISZERO PC PUSH1 0xA ADD JUMPI PUSH1 0x1 PUSH1 0x0 RETURN JUMPDEST DUP1 MLOAD PUSH1 0x0 DUP3 MSTORE SWAP4 POP PUSH1 0x20 PUSH3 0x913 JUMP JUMPDEST DUP3 PUSH1 0x18 DUP2 ADD SWAP3 DUP3 ISZERO PUSH3 0xB33 JUMPI SWAP2 PUSH1 0x20 MUL DUP3 ADD JUMPDEST DUP3 DUP2 GT ISZERO PUSH3 0xB33 JUMPI DUP3 MLOAD DUP3 PUSH3 0xB21 PUSH3 0xA5B JUMP JUMPDEST POP POP SWAP2 PUSH1 0x20 ADD SWAP2 SWAP1 PUSH1 0x1 ADD SWAP1 PUSH3 0xB0B JUMP JUMPDEST POP PUSH3 0xB41 SWAP3 SWAP2 POP PUSH3 0xB8C JUMP JUMPDEST POP SWAP1 JUMP JUMPDEST PUSH4 0xBDBF8C36 MSIZE DUP2 PUSH1 0xE0 SHL DUP2 MSTORE PUSH1 0x20 DUP2 PUSH1 0x4 DUP4 CALLER PUSH1 0x0 SWAP1 GAS CALL PC PUSH1 0xE ADD JUMPI RETURNDATASIZE PUSH1 0x0 DUP1 RETURNDATACOPY RETURNDATASIZE PUSH1 0x0 REVERT JUMPDEST RETURNDATASIZE PUSH1 0x1 EQ ISZERO PC PUSH1 0xA ADD JUMPI PUSH1 0x1 PUSH1 0x0 RETURN JUMPDEST DUP1 MLOAD PUSH1 0x0 DUP3 MSTORE SWAP4 POP PUSH1 0x20 PUSH3 0x913 JUMP JUMPDEST PUSH3 0xBB6 SWAP2 SWAP1 JUMPDEST DUP1 DUP3 GT ISZERO PUSH3 0xB41 JUMPI PUSH1 0x0 DUP1 DUP3 PUSH3 0xBAA PUSH3 0xA5B JUMP JUMPDEST POP POP POP PUSH1 0x1 ADD PUSH3 0xB93 JUMP JUMPDEST SWAP1 JUMP JUMPDEST PUSH2 0x4042 DUP1 PUSH3 0xBC9 PUSH1 0x0 CODECOPY PUSH1 0x0 RETURN INVALID PUSH1 0x80 PUSH1 0x40 MSTORE PUSH1 0x4 CALLDATASIZE LT PUSH2 0x288 JUMPI PUSH1 0x0 CALLDATALOAD PUSH1 0xE0 SHR DUP1 PUSH4 0x8C463869 GT PUSH2 0x15A JUMPI DUP1 PUSH4 0xC6C9D828 GT PUSH2 0xC1 JUMPI DUP1 PUSH4 0xE3C1E58C GT PUSH2 0x7A JUMPI DUP1 PUSH4 0xE3C1E58C EQ PUSH2 0xC4A JUMPI DUP1 PUSH4 0xE40108ED EQ PUSH2 0xC68 JUMPI DUP1 PUSH4 0xE5829D20 EQ PUSH2 0xC86 JUMPI DUP1 PUSH4 0xEE5F3F5C EQ PUSH2 0xCC2 JUMPI DUP1 PUSH4 0xEEA8F5DA EQ PUSH2 0xCE0 JUMPI DUP1 PUSH4 0xF53DFB84 EQ PUSH2 0xCFE JUMPI PUSH2 0x288 JUMP JUMPDEST DUP1 PUSH4 0xC6C9D828 EQ PUSH2 0xB2D JUMPI DUP1 PUSH4 0xCF09B4AE EQ PUSH2 0xB69 JUMPI DUP1 PUSH4 0xD05951A0 EQ PUSH2 0xB87 JUMPI DUP1 PUSH4 0xDCAF9C44 EQ PUSH2 0xBC3 JUMPI DUP1 PUSH4 0xE220A811 EQ PUSH2 0xBE1 JUMPI DUP1 PUSH4 0xE3235C91 EQ PUSH2 0xC2C JUMPI PUSH2 0x288 JUMP JUMPDEST DUP1 PUSH4 0xA2E17342 GT PUSH2 0x113 JUMPI DUP1 PUSH4 0xA2E17342 EQ PUSH2 0x966 JUMPI DUP1 PUSH4 0xA76CDFA5 EQ PUSH2 0x9A8 JUMPI DUP1 PUSH4 0xAA754A2A EQ PUSH2 0x9E4 JUMPI DUP1 PUSH4 0xAB49848C EQ PUSH2 0xA7A JUMPI DUP1 PUSH4 0xB410A034 EQ PUSH2 0xAD1 JUMPI DUP1 PUSH4 0xBB8C6D6C EQ PUSH2 0xAEF JUMPI PUSH2 0x288 JUMP JUMPDEST DUP1 PUSH4 0x8C463869 EQ PUSH2 0x7E9 JUMPI DUP1 PUSH4 0x8DA5CB5B EQ PUSH2 0x834 JUMPI DUP1 PUSH4 0x8FDC8F3B EQ PUSH2 0x852 JUMPI DUP1 PUSH4 0x91B4DED9 EQ PUSH2 0x88E JUMPI DUP1 PUSH4 0x9F7D5688 EQ PUSH2 0x8AC JUMPI DUP1 PUSH4 0xA1C51586 EQ PUSH2 0x8CA JUMPI PUSH2 0x288 JUMP JUMPDEST DUP1 PUSH4 0x4F069F66 GT PUSH2 0x1FE JUMPI DUP1 PUSH4 0x631E1444 GT PUSH2 0x1B7 JUMPI DUP1 PUSH4 0x631E1444 EQ PUSH2 0x68C JUMPI DUP1 PUSH4 0x6B231938 EQ PUSH2 0x6D1 JUMPI DUP1 PUSH4 0x79BA5097 EQ PUSH2 0x6D9 JUMPI DUP1 PUSH4 0x7C3A00FD EQ PUSH2 0x6F7 JUMPI DUP1 PUSH4 0x7CC1F867 EQ PUSH2 0x715 JUMPI DUP1 PUSH4 0x89C937DE EQ PUSH2 0x79E JUMPI PUSH2 0x288 JUMP JUMPDEST DUP1 PUSH4 0x4F069F66 EQ PUSH2 0x54C JUMPI DUP1 PUSH4 0x50E3B2E7 EQ PUSH2 0x588 JUMPI DUP1 PUSH4 0x53A47BB7 EQ PUSH2 0x5C4 JUMPI DUP1 PUSH4 0x5C975ABB EQ PUSH2 0x5E2 JUMPI DUP1 PUSH4 0x5D1A2229 EQ PUSH2 0x614 JUMPI DUP1 PUSH4 0x5F84F302 EQ PUSH2 0x650 JUMPI PUSH2 0x288 JUMP JUMPDEST DUP1 PUSH4 0x23AA7F0F GT PUSH2 0x250 JUMPI DUP1 PUSH4 0x23AA7F0F EQ PUSH2 0x3CA JUMPI DUP1 PUSH4 0x27CFF2E5 EQ PUSH2 0x3E8 JUMPI DUP1 PUSH4 0x2F2BF15B EQ PUSH2 0x433 JUMPI DUP1 PUSH4 0x361E2086 EQ PUSH2 0x4CB JUMPI DUP1 PUSH4 0x3BE99E6F EQ PUSH2 0x4E9 JUMPI DUP1 PUSH4 0x4189BB49 EQ PUSH2 0x52E JUMPI PUSH2 0x288 JUMP JUMPDEST DUP1 PUSH4 0x4F3BCEC EQ PUSH2 0x296 JUMPI DUP1 PUSH4 0x89F7FB4 EQ PUSH2 0x2D0 JUMPI DUP1 PUSH4 0x1474B279 EQ PUSH2 0x327 JUMPI DUP1 PUSH4 0x1627540C EQ PUSH2 0x345 JUMPI DUP1 PUSH4 0x16C38B3C EQ PUSH2 0x38C JUMPI JUMPDEST PUSH1 0x0 DUP1 PUSH2 0x293 PUSH2 0x3A09 JUMP JUMPDEST POP POP JUMPDEST CALLVALUE DUP1 ISZERO PUSH2 0x2AB JUMPI PUSH1 0x0 DUP1 PUSH2 0x2A8 PUSH2 0x3A09 JUMP JUMPDEST POP POP JUMPDEST POP PUSH2 0x2B4 PUSH2 0xD3A JUMP JUMPDEST PUSH1 0x40 MLOAD PUSH1 0x1 PUSH1 0x1 PUSH1 0xA0 SHL SUB SWAP1 SWAP2 AND DUP2 MSTORE PUSH1 0x20 ADD PUSH1 0x40 MLOAD DUP1 SWAP2 SUB SWAP1 RETURN JUMPDEST CALLVALUE DUP1 ISZERO PUSH2 0x2E5 JUMPI PUSH1 0x0 DUP1 PUSH2 0x2E2 PUSH2 0x3A09 JUMP JUMPDEST POP POP JUMPDEST POP PUSH2 0x315 PUSH1 0x4 DUP1 CALLDATASIZE SUB PUSH1 0x20 DUP2 LT ISZERO PUSH2 0x305 JUMPI PUSH1 0x0 DUP1 PUSH2 0x302 PUSH2 0x3A09 JUMP JUMPDEST POP POP JUMPDEST POP CALLDATALOAD PUSH1 0x1 PUSH1 0x1 PUSH1 0xA0 SHL SUB AND PUSH2 0xD59 JUMP JUMPDEST PUSH1 0x40 MLOAD SWAP1 DUP2 MSTORE PUSH1 0x20 ADD PUSH1 0x40 MLOAD DUP1 SWAP2 SUB SWAP1 RETURN JUMPDEST CALLVALUE DUP1 ISZERO PUSH2 0x33C JUMPI PUSH1 0x0 DUP1 PUSH2 0x339 PUSH2 0x3A09 JUMP JUMPDEST POP POP JUMPDEST POP PUSH2 0x315 PUSH2 0xD74 JUMP JUMPDEST CALLVALUE DUP1 ISZERO PUSH2 0x35A JUMPI PUSH1 0x0 DUP1 PUSH2 0x357 PUSH2 0x3A09 JUMP JUMPDEST POP POP JUMPDEST POP PUSH2 0x38A PUSH1 0x4 DUP1 CALLDATASIZE SUB PUSH1 0x20 DUP2 LT ISZERO PUSH2 0x37A JUMPI PUSH1 0x0 DUP1 PUSH2 0x377 PUSH2 0x3A09 JUMP JUMPDEST POP POP JUMPDEST POP CALLDATALOAD PUSH1 0x1 PUSH1 0x1 PUSH1 0xA0 SHL SUB AND PUSH2 0xD7E JUMP JUMPDEST STOP JUMPDEST CALLVALUE DUP1 ISZERO PUSH2 0x3A1 JUMPI PUSH1 0x0 DUP1 PUSH2 0x39E PUSH2 0x3A09 JUMP JUMPDEST POP POP JUMPDEST POP PUSH2 0x38A PUSH1 0x4 DUP1 CALLDATASIZE SUB PUSH1 0x20 DUP2 LT ISZERO PUSH2 0x3C1 JUMPI PUSH1 0x0 DUP1 PUSH2 0x3BE PUSH2 0x3A09 JUMP JUMPDEST POP POP JUMPDEST POP CALLDATALOAD ISZERO ISZERO PUSH2 0xDF8 JUMP JUMPDEST CALLVALUE DUP1 ISZERO PUSH2 0x3DF JUMPI PUSH1 0x0 DUP1 PUSH2 0x3DC PUSH2 0x3A09 JUMP JUMPDEST POP POP JUMPDEST POP PUSH2 0x315 PUSH2 0xECE JUMP JUMPDEST CALLVALUE DUP1 ISZERO PUSH2 0x3FD JUMPI PUSH1 0x0 DUP1 PUSH2 0x3FA PUSH2 0x3A09 JUMP JUMPDEST POP POP JUMPDEST POP PUSH2 0x315 PUSH1 0x4 DUP1 CALLDATASIZE SUB PUSH1 0x40 DUP2 LT ISZERO PUSH2 0x41D JUMPI PUSH1 0x0 DUP1 PUSH2 0x41A PUSH2 0x3A09 JUMP JUMPDEST POP POP JUMPDEST POP PUSH1 0x1 PUSH1 0x1 PUSH1 0xA0 SHL SUB DUP2 CALLDATALOAD AND SWAP1 PUSH1 0x20 ADD CALLDATALOAD PUSH2 0xED8 JUMP JUMPDEST CALLVALUE DUP1 ISZERO PUSH2 0x448 JUMPI PUSH1 0x0 DUP1 PUSH2 0x445 PUSH2 0x3A09 JUMP JUMPDEST POP POP JUMPDEST POP PUSH2 0x478 PUSH1 0x4 DUP1 CALLDATASIZE SUB PUSH1 0x20 DUP2 LT ISZERO PUSH2 0x468 JUMPI PUSH1 0x0 DUP1 PUSH2 0x465 PUSH2 0x3A09 JUMP JUMPDEST POP POP JUMPDEST POP CALLDATALOAD PUSH1 0x1 PUSH1 0x1 PUSH1 0xA0 SHL SUB AND PUSH2 0xF01 JUMP JUMPDEST PUSH1 0x40 MLOAD PUSH1 0x20 DUP1 DUP3 MSTORE DUP2 SWAP1 DUP2 ADD DUP4 DUP2 DUP2 MLOAD DUP2 MSTORE PUSH1 0x20 ADD SWAP2 POP DUP1 MLOAD SWAP1 PUSH1 0x20 ADD SWAP1 PUSH1 0x20 MUL DUP1 DUP4 DUP4 PUSH1 0x0 JUMPDEST DUP4 DUP2 LT ISZERO PUSH2 0x4B7 JUMPI DUP1 DUP3 ADD MLOAD DUP4 DUP3 ADD MSTORE PUSH1 0x20 ADD PUSH2 0x49F JUMP JUMPDEST POP POP POP POP SWAP1 POP ADD SWAP3 POP POP POP PUSH1 0x40 MLOAD DUP1 SWAP2 SUB SWAP1 RETURN JUMPDEST CALLVALUE DUP1 ISZERO PUSH2 0x4E0 JUMPI PUSH1 0x0 DUP1 PUSH2 0x4DD PUSH2 0x3A09 JUMP JUMPDEST POP POP JUMPDEST POP PUSH2 0x315 PUSH2 0x1103 JUMP JUMPDEST CALLVALUE DUP1 ISZERO PUSH2 0x4FE JUMPI PUSH1 0x0 DUP1 PUSH2 0x4FB PUSH2 0x3A09 JUMP JUMPDEST POP POP JUMPDEST POP PUSH2 0x38A PUSH1 0x4 DUP1 CALLDATASIZE SUB PUSH1 0x20 DUP2 LT ISZERO PUSH2 0x51E JUMPI PUSH1 0x0 DUP1 PUSH2 0x51B PUSH2 0x3A09 JUMP JUMPDEST POP POP JUMPDEST POP CALLDATALOAD PUSH1 0x1 PUSH1 0x1 PUSH1 0xA0 SHL SUB AND PUSH2 0x110D JUMP JUMPDEST CALLVALUE DUP1 ISZERO PUSH2 0x543 JUMPI PUSH1 0x0 DUP1 PUSH2 0x540 PUSH2 0x3A09 JUMP JUMPDEST POP POP JUMPDEST POP PUSH2 0x315 PUSH2 0x12D7 JUMP JUMPDEST CALLVALUE DUP1 ISZERO PUSH2 0x561 JUMPI PUSH1 0x0 DUP1 PUSH2 0x55E PUSH2 0x3A09 JUMP JUMPDEST POP POP JUMPDEST POP PUSH2 0x38A PUSH1 0x4 DUP1 CALLDATASIZE SUB PUSH1 0x20 DUP2 LT ISZERO PUSH2 0x581 JUMPI PUSH1 0x0 DUP1 PUSH2 0x57E PUSH2 0x3A09 JUMP JUMPDEST POP POP JUMPDEST POP CALLDATALOAD PUSH2 0x12E1 JUMP JUMPDEST CALLVALUE DUP1 ISZERO PUSH2 0x59D JUMPI PUSH1 0x0 DUP1 PUSH2 0x59A PUSH2 0x3A09 JUMP JUMPDEST POP POP JUMPDEST POP PUSH2 0x38A PUSH1 0x4 DUP1 CALLDATASIZE SUB PUSH1 0x20 DUP2 LT ISZERO PUSH2 0x5BD JUMPI PUSH1 0x0 DUP1 PUSH2 0x5BA PUSH2 0x3A09 JUMP JUMPDEST POP POP JUMPDEST POP CALLDATALOAD PUSH2 0x1337 JUMP JUMPDEST CALLVALUE DUP1 ISZERO PUSH2 0x5D9 JUMPI PUSH1 0x0 DUP1 PUSH2 0x5D6 PUSH2 0x3A09 JUMP JUMPDEST POP POP JUMPDEST POP PUSH2 0x2B4 PUSH2 0x1379 JUMP JUMPDEST CALLVALUE DUP1 ISZERO PUSH2 0x5F7 JUMPI PUSH1 0x0 DUP1 PUSH2 0x5F4 PUSH2 0x3A09 JUMP JUMPDEST POP POP JUMPDEST POP PUSH2 0x600 PUSH2 0x1385 JUMP JUMPDEST PUSH1 0x40 MLOAD SWAP1 ISZERO ISZERO DUP2 MSTORE PUSH1 0x20 ADD PUSH1 0x40 MLOAD DUP1 SWAP2 SUB SWAP1 RETURN JUMPDEST CALLVALUE DUP1 ISZERO PUSH2 0x629 JUMPI PUSH1 0x0 DUP1 PUSH2 0x626 PUSH2 0x3A09 JUMP JUMPDEST POP POP JUMPDEST POP PUSH2 0x38A PUSH1 0x4 DUP1 CALLDATASIZE SUB PUSH1 0x20 DUP2 LT ISZERO PUSH2 0x649 JUMPI PUSH1 0x0 DUP1 PUSH2 0x646 PUSH2 0x3A09 JUMP JUMPDEST POP POP JUMPDEST POP CALLDATALOAD PUSH2 0x139E JUMP JUMPDEST CALLVALUE DUP1 ISZERO PUSH2 0x665 JUMPI PUSH1 0x0 DUP1 PUSH2 0x662 PUSH2 0x3A09 JUMP JUMPDEST POP POP JUMPDEST POP PUSH2 0x38A PUSH1 0x4 DUP1 CALLDATASIZE SUB PUSH1 0x20 DUP2 LT ISZERO PUSH2 0x685 JUMPI PUSH1 0x0 DUP1 PUSH2 0x682 PUSH2 0x3A09 JUMP JUMPDEST POP POP JUMPDEST POP CALLDATALOAD PUSH2 0x143F JUMP JUMPDEST CALLVALUE DUP1 ISZERO PUSH2 0x6A1 JUMPI PUSH1 0x0 DUP1 PUSH2 0x69E PUSH2 0x3A09 JUMP JUMPDEST POP POP JUMPDEST POP PUSH2 0x600 PUSH1 0x4 DUP1 CALLDATASIZE SUB PUSH1 0x20 DUP2 LT ISZERO PUSH2 0x6C1 JUMPI PUSH1 0x0 DUP1 PUSH2 0x6BE PUSH2 0x3A09 JUMP JUMPDEST POP POP JUMPDEST POP CALLDATALOAD PUSH1 0x1 PUSH1 0x1 PUSH1 0xA0 SHL SUB AND PUSH2 0x15DE JUMP JUMPDEST PUSH2 0x315 PUSH2 0x17B8 JUMP JUMPDEST CALLVALUE DUP1 ISZERO PUSH2 0x6EE JUMPI PUSH1 0x0 DUP1 PUSH2 0x6EB PUSH2 0x3A09 JUMP JUMPDEST POP POP JUMPDEST POP PUSH2 0x38A PUSH2 0x1E58 JUMP JUMPDEST CALLVALUE DUP1 ISZERO PUSH2 0x70C JUMPI PUSH1 0x0 DUP1 PUSH2 0x709 PUSH2 0x3A09 JUMP JUMPDEST POP POP JUMPDEST POP PUSH2 0x315 PUSH2 0x1FDB JUMP JUMPDEST CALLVALUE DUP1 ISZERO PUSH2 0x72A JUMPI PUSH1 0x0 DUP1 PUSH2 0x727 PUSH2 0x3A09 JUMP JUMPDEST POP POP JUMPDEST POP PUSH2 0x733 PUSH2 0x1FE5 JUMP JUMPDEST PUSH1 0x40 MLOAD SWAP13 DUP14 MSTORE PUSH1 0x20 DUP14 ADD SWAP12 SWAP1 SWAP12 MSTORE PUSH1 0x40 DUP1 DUP14 ADD SWAP11 SWAP1 SWAP11 MSTORE PUSH1 0x60 DUP13 ADD SWAP9 SWAP1 SWAP9 MSTORE PUSH1 0x80 DUP12 ADD SWAP7 SWAP1 SWAP7 MSTORE PUSH1 0xA0 DUP11 ADD SWAP5 SWAP1 SWAP5 MSTORE PUSH1 0xC0 DUP10 ADD SWAP3 SWAP1 SWAP3 MSTORE PUSH1 0xE0 DUP9 ADD MSTORE PUSH2 0x100 DUP8 ADD MSTORE PUSH2 0x120 DUP7 ADD MSTORE PUSH2 0x140 DUP6 ADD MSTORE PUSH2 0x160 DUP5 ADD MSTORE SWAP1 ISZERO ISZERO PUSH2 0x180 DUP4 ADD MSTORE PUSH2 0x1A0 SWAP1 SWAP2 ADD SWAP1 MLOAD DUP1 SWAP2 SUB SWAP1 RETURN JUMPDEST CALLVALUE DUP1 ISZERO PUSH2 0x7B3 JUMPI PUSH1 0x0 DUP1 PUSH2 0x7B0 PUSH2 0x3A09 JUMP JUMPDEST POP POP JUMPDEST POP PUSH2 0x315 PUSH1 0x4 DUP1 CALLDATASIZE SUB PUSH1 0x40 DUP2 LT ISZERO PUSH2 0x7D3 JUMPI PUSH1 0x0 DUP1 PUSH2 0x7D0 PUSH2 0x3A09 JUMP JUMPDEST POP POP JUMPDEST POP PUSH1 0x1 PUSH1 0x1 PUSH1 0xA0 SHL SUB DUP2 CALLDATALOAD AND SWAP1 PUSH1 0x20 ADD CALLDATALOAD PUSH2 0x20A6 JUMP JUMPDEST CALLVALUE DUP1 ISZERO PUSH2 0x7FE JUMPI PUSH1 0x0 DUP1 PUSH2 0x7FB PUSH2 0x3A09 JUMP JUMPDEST POP POP JUMPDEST POP PUSH2 0x315 PUSH1 0x4 DUP1 CALLDATASIZE SUB PUSH1 0x40 DUP2 LT ISZERO PUSH2 0x81E JUMPI PUSH1 0x0 DUP1 PUSH2 0x81B PUSH2 0x3A09 JUMP JUMPDEST POP POP JUMPDEST POP PUSH1 0x1 PUSH1 0x1 PUSH1 0xA0 SHL SUB DUP2 CALLDATALOAD AND SWAP1 PUSH1 0x20 ADD CALLDATALOAD PUSH2 0x20E0 JUMP JUMPDEST CALLVALUE DUP1 ISZERO PUSH2 0x849 JUMPI PUSH1 0x0 DUP1 PUSH2 0x846 PUSH2 0x3A09 JUMP JUMPDEST POP POP JUMPDEST POP PUSH2 0x2B4 PUSH2 0x20FF JUMP JUMPDEST CALLVALUE DUP1 ISZERO PUSH2 0x867 JUMPI PUSH1 0x0 DUP1 PUSH2 0x864 PUSH2 0x3A09 JUMP JUMPDEST POP POP JUMPDEST POP PUSH2 0x315 PUSH1 0x4 DUP1 CALLDATASIZE SUB PUSH1 0x20 DUP2 LT ISZERO PUSH2 0x887 JUMPI PUSH1 0x0 DUP1 PUSH2 0x884 PUSH2 0x3A09 JUMP JUMPDEST POP POP JUMPDEST POP CALLDATALOAD PUSH2 0x210A JUMP JUMPDEST CALLVALUE DUP1 ISZERO PUSH2 0x8A3 JUMPI PUSH1 0x0 DUP1 PUSH2 0x8A0 PUSH2 0x3A09 JUMP JUMPDEST POP POP JUMPDEST POP PUSH2 0x315 PUSH2 0x2124 JUMP JUMPDEST CALLVALUE DUP1 ISZERO PUSH2 0x8C1 JUMPI PUSH1 0x0 DUP1 PUSH2 0x8BE PUSH2 0x3A09 JUMP JUMPDEST POP POP JUMPDEST POP PUSH2 0x315 PUSH2 0x212E JUMP JUMPDEST CALLVALUE DUP1 ISZERO PUSH2 0x8DF JUMPI PUSH1 0x0 DUP1 PUSH2 0x8DC PUSH2 0x3A09 JUMP JUMPDEST POP POP JUMPDEST POP PUSH2 0x915 PUSH1 0x4 DUP1 CALLDATASIZE SUB PUSH1 0x40 DUP2 LT ISZERO PUSH2 0x8FF JUMPI PUSH1 0x0 DUP1 PUSH2 0x8FC PUSH2 0x3A09 JUMP JUMPDEST POP POP JUMPDEST POP PUSH1 0x1 PUSH1 0x1 PUSH1 0xA0 SHL SUB DUP2 CALLDATALOAD AND SWAP1 PUSH1 0x20 ADD CALLDATALOAD PUSH2 0x2138 JUMP JUMPDEST PUSH1 0x40 MLOAD PUSH1 0x1 PUSH1 0x1 PUSH1 0xA0 SHL SUB SWAP1 SWAP9 AND DUP9 MSTORE PUSH1 0x20 DUP9 ADD SWAP7 SWAP1 SWAP7 MSTORE PUSH1 0x40 DUP1 DUP9 ADD SWAP6 SWAP1 SWAP6 MSTORE PUSH1 0x60 DUP8 ADD SWAP4 SWAP1 SWAP4 MSTORE PUSH1 0x80 DUP7 ADD SWAP2 SWAP1 SWAP2 MSTORE PUSH1 0xA0 DUP6 ADD MSTORE PUSH1 0xC0 DUP5 ADD MSTORE PUSH1 0xE0 DUP4 ADD SWAP2 SWAP1 SWAP2 MSTORE PUSH2 0x100 SWAP1 SWAP2 ADD SWAP1 MLOAD DUP1 SWAP2 SUB SWAP1 RETURN JUMPDEST CALLVALUE DUP1 ISZERO PUSH2 0x97B JUMPI PUSH1 0x0 DUP1 PUSH2 0x978 PUSH2 0x3A09 JUMP JUMPDEST POP POP JUMPDEST POP PUSH2 0x315 PUSH1 0x4 DUP1 CALLDATASIZE SUB PUSH1 0x40 DUP2 LT ISZERO PUSH2 0x99B JUMPI PUSH1 0x0 DUP1 PUSH2 0x998 PUSH2 0x3A09 JUMP JUMPDEST POP POP JUMPDEST POP DUP1 CALLDATALOAD SWAP1 PUSH1 0x20 ADD CALLDATALOAD PUSH2 0x21C0 JUMP JUMPDEST CALLVALUE DUP1 ISZERO PUSH2 0x9BD JUMPI PUSH1 0x0 DUP1 PUSH2 0x9BA PUSH2 0x3A09 JUMP JUMPDEST POP POP JUMPDEST POP PUSH2 0x38A PUSH1 0x4 DUP1 CALLDATASIZE SUB PUSH1 0x20 DUP2 LT ISZERO PUSH2 0x9DD JUMPI PUSH1 0x0 DUP1 PUSH2 0x9DA PUSH2 0x3A09 JUMP JUMPDEST POP POP JUMPDEST POP CALLDATALOAD PUSH2 0x21F3 JUMP JUMPDEST CALLVALUE DUP1 ISZERO PUSH2 0x9F9 JUMPI PUSH1 0x0 DUP1 PUSH2 0x9F6 PUSH2 0x3A09 JUMP JUMPDEST POP POP JUMPDEST POP PUSH2 0xA2F PUSH1 0x4 DUP1 CALLDATASIZE SUB PUSH1 0x40 DUP2 LT ISZERO PUSH2 0xA19 JUMPI PUSH1 0x0 DUP1 PUSH2 0xA16 PUSH2 0x3A09 JUMP JUMPDEST POP POP JUMPDEST POP PUSH1 0x1 PUSH1 0x1 PUSH1 0xA0 SHL SUB DUP2 CALLDATALOAD AND SWAP1 PUSH1 0x20 ADD CALLDATALOAD PUSH2 0x2235 JUMP JUMPDEST PUSH1 0x40 MLOAD DUP1 DUP8 PUSH1 0x1 PUSH1 0x1 PUSH1 0xA0 SHL SUB AND PUSH1 0x1 PUSH1 0x1 PUSH1 0xA0 SHL SUB AND DUP2 MSTORE PUSH1 0x20 ADD DUP7 DUP2 MSTORE PUSH1 0x20 ADD DUP6 DUP2 MSTORE PUSH1 0x20 ADD DUP5 DUP2 MSTORE PUSH1 0x20 ADD DUP4 DUP2 MSTORE PUSH1 0x20 ADD DUP3 DUP2 MSTORE PUSH1 0x20 ADD SWAP7 POP POP POP POP POP POP POP PUSH1 0x40 MLOAD DUP1 SWAP2 SUB SWAP1 RETURN JUMPDEST CALLVALUE DUP1 ISZERO PUSH2 0xA8F JUMPI PUSH1 0x0 DUP1 PUSH2 0xA8C PUSH2 0x3A09 JUMP JUMPDEST POP POP JUMPDEST POP PUSH2 0xA98 PUSH2 0x22C9 JUMP JUMPDEST PUSH1 0x40 MLOAD DUP1 DUP3 PUSH2 0x300 DUP1 DUP4 DUP4 PUSH1 0x0 JUMPDEST DUP4 DUP2 LT ISZERO PUSH2 0xABE JUMPI DUP1 DUP3 ADD MLOAD DUP4 DUP3 ADD MSTORE PUSH1 0x20 ADD PUSH2 0xAA6 JUMP JUMPDEST POP POP POP POP SWAP1 POP ADD SWAP2 POP POP PUSH1 0x40 MLOAD DUP1 SWAP2 SUB SWAP1 RETURN JUMPDEST CALLVALUE DUP1 ISZERO PUSH2 0xAE6 JUMPI PUSH1 0x0 DUP1 PUSH2 0xAE3 PUSH2 0x3A09 JUMP JUMPDEST POP POP JUMPDEST POP PUSH2 0x315 PUSH2 0x2327 JUMP JUMPDEST CALLVALUE DUP1 ISZERO PUSH2 0xB04 JUMPI PUSH1 0x0 DUP1 PUSH2 0xB01 PUSH2 0x3A09 JUMP JUMPDEST POP POP JUMPDEST POP PUSH2 0x38A PUSH1 0x4 DUP1 CALLDATASIZE SUB PUSH1 0x20 DUP2 LT ISZERO PUSH2 0xB24 JUMPI PUSH1 0x0 DUP1 PUSH2 0xB21 PUSH2 0x3A09 JUMP JUMPDEST POP POP JUMPDEST POP CALLDATALOAD ISZERO ISZERO PUSH2 0x2351 JUMP JUMPDEST CALLVALUE DUP1 ISZERO PUSH2 0xB42 JUMPI PUSH1 0x0 DUP1 PUSH2 0xB3F PUSH2 0x3A09 JUMP JUMPDEST POP POP JUMPDEST POP PUSH2 0x315 PUSH1 0x4 DUP1 CALLDATASIZE SUB PUSH1 0x20 DUP2 LT ISZERO PUSH2 0xB62 JUMPI PUSH1 0x0 DUP1 PUSH2 0xB5F PUSH2 0x3A09 JUMP JUMPDEST POP POP JUMPDEST POP CALLDATALOAD PUSH2 0x241A JUMP JUMPDEST CALLVALUE DUP1 ISZERO PUSH2 0xB7E JUMPI PUSH1 0x0 DUP1 PUSH2 0xB7B PUSH2 0x3A09 JUMP JUMPDEST POP POP JUMPDEST POP PUSH2 0x315 PUSH2 0x2442 JUMP JUMPDEST CALLVALUE DUP1 ISZERO PUSH2 0xB9C JUMPI PUSH1 0x0 DUP1 PUSH2 0xB99 PUSH2 0x3A09 JUMP JUMPDEST POP POP JUMPDEST POP PUSH2 0x38A PUSH1 0x4 DUP1 CALLDATASIZE SUB PUSH1 0x20 DUP2 LT ISZERO PUSH2 0xBBC JUMPI PUSH1 0x0 DUP1 PUSH2 0xBB9 PUSH2 0x3A09 JUMP JUMPDEST POP POP JUMPDEST POP CALLDATALOAD PUSH2 0x244C JUMP JUMPDEST CALLVALUE DUP1 ISZERO PUSH2 0xBD8 JUMPI PUSH1 0x0 DUP1 PUSH2 0xBD5 PUSH2 0x3A09 JUMP JUMPDEST POP POP JUMPDEST POP PUSH2 0x315 PUSH2 0x2604 JUMP JUMPDEST CALLVALUE DUP1 ISZERO PUSH2 0xBF6 JUMPI PUSH1 0x0 DUP1 PUSH2 0xBF3 PUSH2 0x3A09 JUMP JUMPDEST POP POP JUMPDEST POP PUSH2 0x38A PUSH1 0x4 DUP1 CALLDATASIZE SUB PUSH1 0x40 DUP2 LT ISZERO PUSH2 0xC16 JUMPI PUSH1 0x0 DUP1 PUSH2 0xC13 PUSH2 0x3A09 JUMP JUMPDEST POP POP JUMPDEST POP PUSH1 0x1 PUSH1 0x1 PUSH1 0xA0 SHL SUB DUP2 CALLDATALOAD AND SWAP1 PUSH1 0x20 ADD CALLDATALOAD PUSH2 0x260E JUMP JUMPDEST CALLVALUE DUP1 ISZERO PUSH2 0xC41 JUMPI PUSH1 0x0 DUP1 PUSH2 0xC3E PUSH2 0x3A09 JUMP JUMPDEST POP POP JUMPDEST POP PUSH2 0x315 PUSH2 0x2883 JUMP JUMPDEST CALLVALUE DUP1 ISZERO PUSH2 0xC5F JUMPI PUSH1 0x0 DUP1 PUSH2 0xC5C PUSH2 0x3A09 JUMP JUMPDEST POP POP JUMPDEST POP PUSH2 0x600 PUSH2 0x2888 JUMP JUMPDEST CALLVALUE DUP1 ISZERO PUSH2 0xC7D JUMPI PUSH1 0x0 DUP1 PUSH2 0xC7A PUSH2 0x3A09 JUMP JUMPDEST POP POP JUMPDEST POP PUSH2 0x315 PUSH2 0x2894 JUMP JUMPDEST CALLVALUE DUP1 ISZERO PUSH2 0xC9B JUMPI PUSH1 0x0 DUP1 PUSH2 0xC98 PUSH2 0x3A09 JUMP JUMPDEST POP POP JUMPDEST POP PUSH2 0x38A PUSH1 0x4 DUP1 CALLDATASIZE SUB PUSH1 0x20 DUP2 LT ISZERO PUSH2 0xCBB JUMPI PUSH1 0x0 DUP1 PUSH2 0xCB8 PUSH2 0x3A09 JUMP JUMPDEST POP POP JUMPDEST POP CALLDATALOAD PUSH2 0x289E JUMP JUMPDEST CALLVALUE DUP1 ISZERO PUSH2 0xCD7 JUMPI PUSH1 0x0 DUP1 PUSH2 0xCD4 PUSH2 0x3A09 JUMP JUMPDEST POP POP JUMPDEST POP PUSH2 0x315 PUSH2 0x298C JUMP JUMPDEST CALLVALUE DUP1 ISZERO PUSH2 0xCF5 JUMPI PUSH1 0x0 DUP1 PUSH2 0xCF2 PUSH2 0x3A09 JUMP JUMPDEST POP POP JUMPDEST POP PUSH2 0x315 PUSH2 0x2996 JUMP JUMPDEST CALLVALUE DUP1 ISZERO PUSH2 0xD13 JUMPI PUSH1 0x0 DUP1 PUSH2 0xD10 PUSH2 0x3A09 JUMP JUMPDEST POP POP JUMPDEST POP PUSH2 0x315 PUSH1 0x4 DUP1 CALLDATASIZE SUB PUSH1 0x20 DUP2 LT ISZERO PUSH2 0xD33 JUMPI PUSH1 0x0 DUP1 PUSH2 0xD30 PUSH2 0x3A09 JUMP JUMPDEST POP POP JUMPDEST POP CALLDATALOAD PUSH2 0x29A0 JUMP JUMPDEST PUSH1 0x0 PUSH1 0x5 PUSH2 0xD46 PUSH2 0x3A74 JUMP JUMPDEST SWAP1 PUSH2 0x100 EXP SWAP1 DIV PUSH1 0x1 PUSH1 0x1 PUSH1 0xA0 SHL SUB AND DUP2 JUMP JUMPDEST PUSH1 0x15 PUSH1 0x20 MSTORE DUP1 PUSH1 0x0 MSTORE PUSH1 0x40 PUSH1 0x0 KECCAK256 SWAP1 POP PUSH2 0xD71 PUSH2 0x3A74 JUMP JUMPDEST DUP2 JUMP JUMPDEST PUSH1 0xE PUSH2 0xD71 PUSH2 0x3A74 JUMP JUMPDEST PUSH2 0xD86 PUSH2 0x29C8 JUMP JUMPDEST DUP1 PUSH1 0x1 DUP1 DUP1 PUSH2 0xD93 PUSH2 0x3A74 JUMP JUMPDEST DUP2 PUSH1 0x1 PUSH1 0x1 PUSH1 0xA0 SHL SUB MUL NOT AND SWAP1 DUP4 PUSH1 0x1 PUSH1 0x1 PUSH1 0xA0 SHL SUB AND MUL OR SWAP1 PUSH2 0xDB5 PUSH2 0x3ACF JUMP JUMPDEST POP POP POP PUSH32 0x906A1C6BD7E3091EA86693DD029A831C19049CE77F1DCE2CE0BAB1CACBABCE22 DUP2 PUSH1 0x40 MLOAD PUSH1 0x1 PUSH1 0x1 PUSH1 0xA0 SHL SUB SWAP1 SWAP2 AND DUP2 MSTORE PUSH1 0x20 ADD PUSH1 0x40 MLOAD DUP1 SWAP2 SUB SWAP1 LOG1 POP JUMP JUMPDEST PUSH2 0xE00 PUSH2 0x29C8 JUMP JUMPDEST PUSH1 0x0 PUSH1 0x3 PUSH2 0xE0C PUSH2 0x3A74 JUMP JUMPDEST SWAP1 PUSH2 0x100 EXP SWAP1 DIV PUSH1 0xFF AND ISZERO ISZERO DUP2 ISZERO ISZERO EQ ISZERO PUSH2 0xE26 JUMPI PUSH2 0xECB JUMP JUMPDEST DUP1 PUSH1 0x3 PUSH1 0x1 DUP2 PUSH2 0xE34 PUSH2 0x3A74 JUMP JUMPDEST DUP2 PUSH1 0xFF MUL NOT AND SWAP1 DUP4 ISZERO ISZERO MUL OR SWAP1 PUSH2 0xE49 PUSH2 0x3ACF JUMP JUMPDEST POP POP POP PUSH1 0x3 PUSH1 0x0 SWAP1 PUSH2 0xE59 PUSH2 0x3A74 JUMP JUMPDEST SWAP1 PUSH2 0x100 EXP SWAP1 DIV PUSH1 0xFF AND ISZERO PUSH2 0xE80 JUMPI GAS PUSH2 0xE71 PUSH2 0x3B1D JUMP JUMPDEST DUP1 PUSH1 0x2 PUSH2 0xE7C PUSH2 0x3ACF JUMP JUMPDEST POP POP POP JUMPDEST PUSH32 0x8FB6C181EE25A520CF3DD6565006EF91229FCFE5A989566C2A3B8C115570CEC5 PUSH1 0x0 PUSH1 0x3 PUSH2 0xEAD PUSH2 0x3A74 JUMP JUMPDEST SWAP1 PUSH2 0x100 EXP SWAP1 DIV PUSH1 0xFF AND PUSH1 0x40 MLOAD SWAP1 ISZERO ISZERO DUP2 MSTORE PUSH1 0x20 ADD PUSH1 0x40 MLOAD DUP1 SWAP2 SUB SWAP1 LOG1 JUMPDEST POP JUMP JUMPDEST PUSH1 0x12 PUSH2 0xD71 PUSH2 0x3A74 JUMP JUMPDEST PUSH1 0x0 PUSH2 0xEE2 PUSH2 0x3B63 JUMP JUMPDEST PUSH2 0xEEC DUP5 DUP5 PUSH2 0x2A42 JUMP JUMPDEST SWAP1 POP PUSH2 0xEF7 DUP2 PUSH2 0x2B93 JUMP JUMPDEST SWAP2 POP POP JUMPDEST SWAP3 SWAP2 POP POP JUMP JUMPDEST PUSH1 0x1 PUSH1 0x1 PUSH1 0xA0 SHL SUB DUP2 AND PUSH1 0x0 SWAP1 DUP2 MSTORE PUSH1 0x14 PUSH1 0x20 MSTORE PUSH1 0x60 SWAP1 DUP2 SWAP1 PUSH1 0x40 SWAP1 KECCAK256 DUP1 PUSH2 0xF27 PUSH2 0x3A74 JUMP JUMPDEST DUP1 PUSH1 0x20 MUL PUSH1 0x20 ADD PUSH1 0x40 MLOAD SWAP1 DUP2 ADD PUSH1 0x40 MSTORE DUP2 DUP2 MSTORE SWAP2 SWAP1 PUSH1 0x0 PUSH1 0x20 DUP5 ADD JUMPDEST DUP3 DUP3 LT ISZERO PUSH2 0xFEC JUMPI DUP4 DUP3 SWAP1 PUSH1 0x0 MSTORE PUSH1 0x20 PUSH1 0x0 KECCAK256 SWAP1 PUSH1 0x6 MUL ADD PUSH1 0x40 MLOAD PUSH1 0xC0 DUP2 ADD PUSH1 0x40 MSTORE SWAP1 DUP2 PUSH1 0x0 DUP3 PUSH2 0xF72 PUSH2 0x3A74 JUMP JUMPDEST PUSH1 0x1 PUSH1 0x1 PUSH1 0xA0 SHL SUB PUSH2 0x100 SWAP3 SWAP1 SWAP3 EXP SWAP1 DIV AND DUP2 MSTORE PUSH1 0x20 ADD PUSH1 0x1 DUP3 ADD PUSH2 0xF95 PUSH2 0x3A74 JUMP JUMPDEST DUP2 MSTORE PUSH1 0x20 ADD PUSH1 0x2 DUP3 ADD PUSH2 0xFA6 PUSH2 0x3A74 JUMP JUMPDEST DUP2 MSTORE PUSH1 0x20 ADD PUSH1 0x3 DUP3 ADD PUSH2 0xFB7 PUSH2 0x3A74 JUMP JUMPDEST DUP2 MSTORE PUSH1 0x20 ADD PUSH1 0x4 DUP3 ADD PUSH2 0xFC8 PUSH2 0x3A74 JUMP JUMPDEST DUP2 MSTORE PUSH1 0x20 ADD PUSH1 0x5 DUP3 ADD PUSH2 0xFD9 PUSH2 0x3A74 JUMP JUMPDEST DUP2 MSTORE POP POP DUP2 MSTORE PUSH1 0x20 ADD SWAP1 PUSH1 0x1 ADD SWAP1 PUSH2 0xF43 JUMP JUMPDEST POP POP POP POP SWAP1 POP PUSH1 0x60 DUP2 MLOAD PUSH1 0x40 MLOAD SWAP1 DUP1 DUP3 MSTORE DUP1 PUSH1 0x20 MUL PUSH1 0x20 ADD DUP3 ADD PUSH1 0x40 MSTORE DUP1 ISZERO PUSH2 0x101F JUMPI DUP2 PUSH1 0x20 ADD PUSH1 0x20 DUP3 MUL DUP1 CODESIZE DUP4 CODECOPY ADD SWAP1 POP JUMPDEST POP SWAP1 POP PUSH1 0x0 DUP1 JUMPDEST DUP4 MLOAD DUP2 LT ISZERO PUSH2 0x1089 JUMPI DUP4 DUP2 DUP2 MLOAD DUP2 LT PUSH2 0x103B JUMPI INVALID JUMPDEST PUSH1 0x20 MUL PUSH1 0x20 ADD ADD MLOAD PUSH1 0xA0 ADD MLOAD PUSH2 0x1081 JUMPI DUP4 DUP2 DUP2 MLOAD DUP2 LT PUSH2 0x1057 JUMPI INVALID JUMPDEST PUSH1 0x20 MUL PUSH1 0x20 ADD ADD MLOAD PUSH1 0x80 ADD MLOAD DUP4 DUP4 DUP2 MLOAD DUP2 LT PUSH2 0x106F JUMPI INVALID JUMPDEST PUSH1 0x20 SWAP1 DUP2 MUL SWAP2 SWAP1 SWAP2 ADD ADD MSTORE PUSH1 0x1 SWAP1 SWAP2 ADD SWAP1 JUMPDEST PUSH1 0x1 ADD PUSH2 0x1026 JUMP JUMPDEST POP PUSH1 0x60 DUP2 PUSH1 0x40 MLOAD SWAP1 DUP1 DUP3 MSTORE DUP1 PUSH1 0x20 MUL PUSH1 0x20 ADD DUP3 ADD PUSH1 0x40 MSTORE DUP1 ISZERO PUSH2 0x10B6 JUMPI DUP2 PUSH1 0x20 ADD PUSH1 0x20 DUP3 MUL DUP1 CODESIZE DUP4 CODECOPY ADD SWAP1 POP JUMPDEST POP SWAP1 POP PUSH1 0x0 JUMPDEST DUP3 DUP2 LT ISZERO PUSH2 0x10F7 JUMPI DUP4 DUP2 DUP2 MLOAD DUP2 LT PUSH2 0x10D0 JUMPI INVALID JUMPDEST PUSH1 0x20 MUL PUSH1 0x20 ADD ADD MLOAD DUP3 DUP3 DUP2 MLOAD DUP2 LT PUSH2 0x10E4 JUMPI INVALID JUMPDEST PUSH1 0x20 SWAP1 DUP2 MUL SWAP2 SWAP1 SWAP2 ADD ADD MSTORE PUSH1 0x1 ADD PUSH2 0x10BC JUMP JUMPDEST POP SWAP4 POP POP POP POP JUMPDEST SWAP2 SWAP1 POP JUMP JUMPDEST PUSH1 0xB PUSH2 0xD71 PUSH2 0x3A74 JUMP JUMPDEST PUSH2 0x1115 PUSH2 0x29C8 JUMP JUMPDEST DUP1 PUSH1 0x5 PUSH1 0x1 DUP2 PUSH2 0x1123 PUSH2 0x3A74 JUMP JUMPDEST DUP2 PUSH1 0x1 PUSH1 0x1 PUSH1 0xA0 SHL SUB MUL NOT AND SWAP1 DUP4 PUSH1 0x1 PUSH1 0x1 PUSH1 0xA0 SHL SUB AND MUL OR SWAP1 PUSH2 0x1145 PUSH2 0x3ACF JUMP JUMPDEST POP PUSH1 0x0 SWAP2 POP POP JUMPDEST PUSH1 0x7 DUP1 PUSH2 0x1157 PUSH2 0x3A74 JUMP JUMPDEST SWAP1 POP DUP2 LT ISZERO PUSH2 0x12D3 JUMPI PUSH1 0x0 PUSH1 0x7 DUP3 DUP2 PUSH2 0x116E PUSH2 0x3A74 JUMP JUMPDEST DUP2 LT PUSH2 0x1176 JUMPI INVALID JUMPDEST SWAP1 PUSH1 0x0 MSTORE PUSH1 0x20 PUSH1 0x0 KECCAK256 ADD PUSH2 0x1188 PUSH2 0x3A74 JUMP JUMPDEST SWAP1 POP PUSH1 0x0 PUSH1 0x5 PUSH2 0x1196 PUSH2 0x3A74 JUMP JUMPDEST SWAP1 PUSH2 0x100 EXP SWAP1 DIV PUSH1 0x1 PUSH1 0x1 PUSH1 0xA0 SHL SUB AND PUSH1 0x1 PUSH1 0x1 PUSH1 0xA0 SHL SUB AND PUSH4 0xDACB2D01 DUP3 PUSH1 0x40 MLOAD PUSH1 0x1 PUSH1 0x1 PUSH1 0xE0 SHL SUB NOT PUSH1 0xE0 DUP5 SWAP1 SHL AND DUP2 MSTORE PUSH1 0x4 DUP2 ADD SWAP2 SWAP1 SWAP2 MSTORE PUSH1 0x40 PUSH1 0x24 DUP3 ADD DUP2 SWAP1 MSTORE PUSH1 0x17 PUSH1 0x44 DUP4 ADD MSTORE PUSH32 0x5265736F6C766572206D697373696E6720746172676574000000000000000000 PUSH1 0x64 DUP4 ADD MSTORE PUSH1 0x84 SWAP1 SWAP2 ADD SWAP1 PUSH1 0x20 SWAP1 MLOAD DUP1 DUP4 SUB DUP2 DUP7 DUP1 PUSH2 0x121F PUSH2 0x3BA2 JUMP JUMPDEST ISZERO DUP1 ISZERO PUSH2 0x1234 JUMPI PUSH1 0x0 DUP1 PUSH2 0x1231 PUSH2 0x3A09 JUMP JUMPDEST POP POP JUMPDEST POP GAS PUSH2 0x123E PUSH2 0x3BEE JUMP JUMPDEST POP POP POP POP POP ISZERO DUP1 ISZERO PUSH2 0x125D JUMPI RETURNDATASIZE PUSH1 0x0 DUP1 RETURNDATACOPY RETURNDATASIZE PUSH1 0x0 PUSH2 0x125A PUSH2 0x3A09 JUMP JUMPDEST POP POP JUMPDEST POP POP POP POP PUSH1 0x40 MLOAD RETURNDATASIZE PUSH1 0x20 DUP2 LT ISZERO PUSH2 0x127C JUMPI PUSH1 0x0 DUP1 PUSH2 0x1279 PUSH2 0x3A09 JUMP JUMPDEST POP POP JUMPDEST DUP2 ADD SWAP1 DUP1 DUP1 MLOAD PUSH1 0x0 DUP6 DUP2 MSTORE PUSH1 0x6 PUSH1 0x20 MSTORE SWAP1 SWAP4 POP PUSH1 0x40 SWAP3 POP SWAP1 POP KECCAK256 PUSH1 0x1 DUP2 PUSH2 0x12A1 PUSH2 0x3A74 JUMP JUMPDEST DUP2 PUSH1 0x1 PUSH1 0x1 PUSH1 0xA0 SHL SUB MUL NOT AND SWAP1 DUP4 PUSH1 0x1 PUSH1 0x1 PUSH1 0xA0 SHL SUB AND MUL OR SWAP1 PUSH2 0x12C3 PUSH2 0x3ACF JUMP JUMPDEST POP POP PUSH1 0x1 SWAP1 SWAP3 ADD SWAP2 POP PUSH2 0x114C SWAP1 POP JUMP JUMPDEST POP POP JUMP JUMPDEST PUSH1 0x13 PUSH2 0xD71 PUSH2 0x3A74 JUMP JUMPDEST PUSH2 0x12E9 PUSH2 0x29C8 JUMP JUMPDEST DUP1 DUP1 PUSH1 0xC PUSH2 0x12F5 PUSH2 0x3ACF JUMP JUMPDEST POP POP POP PUSH32 0xBB72CE8874020B3B98429D653DF927CAC6618AC1932384B1446BF04BF9A1B7E5 PUSH1 0xC PUSH2 0x1323 PUSH2 0x3A74 JUMP JUMPDEST PUSH1 0x40 MLOAD SWAP1 DUP2 MSTORE PUSH1 0x20 ADD PUSH1 0x40 MLOAD DUP1 SWAP2 SUB SWAP1 LOG1 POP JUMP JUMPDEST PUSH2 0x133F PUSH2 0x29C8 JUMP JUMPDEST DUP1 DUP1 PUSH1 0xD PUSH2 0x134B PUSH2 0x3ACF JUMP JUMPDEST POP POP POP PUSH32 0x8640E538C9503BD8D11554FC26280EFE867C12195C0EEE0AEEDE5F4A8D528839 PUSH1 0xD PUSH2 0x1323 PUSH2 0x3A74 JUMP JUMPDEST PUSH1 0x0 PUSH1 0x1 PUSH2 0xD46 PUSH2 0x3A74 JUMP JUMPDEST PUSH1 0x0 PUSH1 0x3 PUSH2 0x1391 PUSH2 0x3A74 JUMP JUMPDEST SWAP1 PUSH2 0x100 EXP SWAP1 DIV PUSH1 0xFF AND DUP2 JUMP JUMPDEST PUSH2 0x13A6 PUSH2 0x29C8 JUMP JUMPDEST PUSH2 0x3E8 DUP1 DUP3 LT PUSH2 0x13F0 JUMPI PUSH1 0x40 MLOAD PUSH3 0x461BCD PUSH1 0xE5 SHL DUP2 MSTORE PUSH1 0x4 ADD DUP1 DUP1 PUSH1 0x20 ADD DUP3 DUP2 SUB DUP3 MSTORE PUSH1 0x25 DUP2 MSTORE PUSH1 0x20 ADD DUP1 PUSH2 0x3E3C PUSH1 0x25 SWAP2 CODECOPY PUSH1 0x40 ADD SWAP2 POP POP PUSH1 0x40 MLOAD DUP1 SWAP2 SUB SWAP1 PUSH2 0x13ED PUSH2 0x3A09 JUMP JUMPDEST POP POP JUMPDEST DUP2 DUP1 PUSH1 0xE PUSH2 0x13FC PUSH2 0x3ACF JUMP JUMPDEST POP POP POP PUSH32 0x59822DC2D999F6F0618E8B0DB5CFC8496084574C769B09609D9B5F4394A310B6 PUSH1 0xE PUSH2 0x142A PUSH2 0x3A74 JUMP JUMPDEST PUSH1 0x40 MLOAD SWAP1 DUP2 MSTORE PUSH1 0x20 ADD PUSH1 0x40 MLOAD DUP1 SWAP2 SUB SWAP1 LOG1 POP POP JUMP JUMPDEST PUSH2 0x1447 PUSH2 0x29C8 JUMP JUMPDEST PUSH4 0x1E13380 DUP2 GT PUSH2 0x1492 JUMPI PUSH1 0x40 MLOAD PUSH3 0x461BCD PUSH1 0xE5 SHL DUP2 MSTORE PUSH1 0x4 ADD DUP1 DUP1 PUSH1 0x20 ADD DUP3 DUP2 SUB DUP3 MSTORE PUSH1 0x37 DUP2 MSTORE PUSH1 0x20 ADD DUP1 PUSH2 0x400B PUSH1 0x37 SWAP2 CODECOPY PUSH1 0x40 ADD SWAP2 POP POP PUSH1 0x40 MLOAD DUP1 SWAP2 SUB SWAP1 PUSH2 0x148F PUSH2 0x3A09 JUMP JUMPDEST POP POP JUMPDEST PUSH20 0x0 PUSH4 0x907AF6C0 PUSH1 0x40 MLOAD DUP2 PUSH4 0xFFFFFFFF AND PUSH1 0xE0 SHL DUP2 MSTORE PUSH1 0x4 ADD PUSH1 0x20 PUSH1 0x40 MLOAD DUP1 DUP4 SUB DUP2 DUP7 DUP1 PUSH2 0x14D1 PUSH2 0x3BA2 JUMP JUMPDEST ISZERO DUP1 ISZERO PUSH2 0x14E6 JUMPI PUSH1 0x0 DUP1 PUSH2 0x14E3 PUSH2 0x3A09 JUMP JUMPDEST POP POP JUMPDEST POP GAS PUSH2 0x14F0 PUSH2 0x3CA7 JUMP JUMPDEST POP POP POP POP POP ISZERO DUP1 ISZERO PUSH2 0x150F JUMPI RETURNDATASIZE PUSH1 0x0 DUP1 RETURNDATACOPY RETURNDATASIZE PUSH1 0x0 PUSH2 0x150C PUSH2 0x3A09 JUMP JUMPDEST POP POP JUMPDEST POP POP POP POP PUSH1 0x40 MLOAD RETURNDATASIZE PUSH1 0x20 DUP2 LT ISZERO PUSH2 0x152E JUMPI PUSH1 0x0 DUP1 PUSH2 0x152B PUSH2 0x3A09 JUMP JUMPDEST POP POP JUMPDEST DUP2 ADD SWAP1 DUP1 DUP1 MLOAD DUP5 GT ISZERO SWAP3 POP PUSH2 0x1580 SWAP2 POP POP JUMPI PUSH1 0x40 MLOAD PUSH3 0x461BCD PUSH1 0xE5 SHL DUP2 MSTORE PUSH1 0x4 ADD DUP1 DUP1 PUSH1 0x20 ADD DUP3 DUP2 SUB DUP3 MSTORE PUSH1 0x25 DUP2 MSTORE PUSH1 0x20 ADD DUP1 PUSH2 0x3F70 PUSH1 0x25 SWAP2 CODECOPY PUSH1 0x40 ADD SWAP2 POP POP PUSH1 0x40 MLOAD DUP1 SWAP2 SUB SWAP1 PUSH2 0x157D PUSH2 0x3A09 JUMP JUMPDEST POP POP JUMPDEST DUP1 DUP1 PUSH1 0x9 PUSH2 0x158C PUSH2 0x3ACF JUMP JUMPDEST POP PUSH2 0x15A5 SWAP2 POP DUP3 SWAP1 POP PUSH4 0x1E13380 PUSH4 0xFFFFFFFF PUSH2 0x2BB3 AND JUMP JUMPDEST DUP1 PUSH1 0xA PUSH2 0x15B0 PUSH2 0x3ACF JUMP JUMPDEST POP POP POP PUSH32 0xA90E14BE5AA57B910AA6DC16C31FF1B5CDA380AE25A793B0D3F74DF6131A7D74 PUSH1 0x9 PUSH2 0x1323 PUSH2 0x3A74 JUMP JUMPDEST PUSH1 0x0 PUSH1 0x1 PUSH1 0x1 PUSH1 0xA0 SHL SUB DUP3 AND DUP2 PUSH1 0x5 PUSH2 0x15F5 PUSH2 0x3A74 JUMP JUMPDEST SWAP1 PUSH2 0x100 EXP SWAP1 DIV PUSH1 0x1 PUSH1 0x1 PUSH1 0xA0 SHL SUB AND PUSH1 0x1 PUSH1 0x1 PUSH1 0xA0 SHL SUB AND EQ PUSH2 0x161B JUMPI POP PUSH1 0x0 PUSH2 0x10FE JUMP JUMPDEST PUSH1 0x0 JUMPDEST PUSH1 0x7 DUP1 PUSH2 0x1629 PUSH2 0x3A74 JUMP JUMPDEST SWAP1 POP DUP2 LT ISZERO PUSH2 0x17AF JUMPI PUSH1 0x0 PUSH1 0x7 DUP3 DUP2 PUSH2 0x1640 PUSH2 0x3A74 JUMP JUMPDEST DUP2 LT PUSH2 0x1648 JUMPI INVALID JUMPDEST SWAP1 PUSH1 0x0 MSTORE PUSH1 0x20 PUSH1 0x0 KECCAK256 ADD PUSH2 0x165A PUSH2 0x3A74 JUMP JUMPDEST PUSH1 0x0 DUP2 DUP2 MSTORE PUSH1 0x6 PUSH1 0x20 MSTORE SWAP1 SWAP2 POP PUSH1 0x40 SWAP1 KECCAK256 PUSH1 0x0 SWAP1 PUSH2 0x1676 PUSH2 0x3A74 JUMP JUMPDEST PUSH1 0x1 PUSH1 0x1 PUSH1 0xA0 SHL SUB PUSH2 0x100 SWAP3 SWAP1 SWAP3 EXP SWAP1 DIV AND PUSH1 0x0 PUSH1 0x5 PUSH2 0x1694 PUSH2 0x3A74 JUMP JUMPDEST SWAP1 PUSH2 0x100 EXP SWAP1 DIV PUSH1 0x1 PUSH1 0x1 PUSH1 0xA0 SHL SUB AND PUSH1 0x1 PUSH1 0x1 PUSH1 0xA0 SHL SUB AND PUSH4 0x21F8A721 DUP4 PUSH1 0x40 MLOAD PUSH1 0x1 PUSH1 0x1 PUSH1 0xE0 SHL SUB NOT PUSH1 0xE0 DUP5 SWAP1 SHL AND DUP2 MSTORE PUSH1 0x4 DUP2 ADD SWAP2 SWAP1 SWAP2 MSTORE PUSH1 0x24 ADD PUSH1 0x20 PUSH1 0x40 MLOAD DUP1 DUP4 SUB DUP2 DUP7 DUP1 PUSH2 0x16E5 PUSH2 0x3BA2 JUMP JUMPDEST ISZERO DUP1 ISZERO PUSH2 0x16FA JUMPI PUSH1 0x0 DUP1 PUSH2 0x16F7 PUSH2 0x3A09 JUMP JUMPDEST POP POP JUMPDEST POP GAS PUSH2 0x1704 PUSH2 0x3BEE JUMP JUMPDEST POP POP POP POP POP ISZERO DUP1 ISZERO PUSH2 0x1723 JUMPI RETURNDATASIZE PUSH1 0x0 DUP1 RETURNDATACOPY RETURNDATASIZE PUSH1 0x0 PUSH2 0x1720 PUSH2 0x3A09 JUMP JUMPDEST POP POP JUMPDEST POP POP POP POP PUSH1 0x40 MLOAD RETURNDATASIZE PUSH1 0x20 DUP2 LT ISZERO PUSH2 0x1742 JUMPI PUSH1 0x0 DUP1 PUSH2 0x173F PUSH2 0x3A09 JUMP JUMPDEST POP POP JUMPDEST DUP2 ADD SWAP1 DUP1 DUP1 MLOAD PUSH1 0x1 PUSH1 0x1 PUSH1 0xA0 SHL SUB AND SWAP4 SWAP1 SWAP4 EQ ISZERO SWAP3 POP DUP3 SWAP2 POP PUSH2 0x1796 SWAP1 POP JUMPI POP PUSH1 0x0 DUP2 DUP2 MSTORE PUSH1 0x6 PUSH1 0x20 MSTORE PUSH1 0x40 DUP2 KECCAK256 PUSH1 0x0 SWAP1 PUSH2 0x177B PUSH2 0x3A74 JUMP JUMPDEST SWAP1 PUSH2 0x100 EXP SWAP1 DIV PUSH1 0x1 PUSH1 0x1 PUSH1 0xA0 SHL SUB AND PUSH1 0x1 PUSH1 0x1 PUSH1 0xA0 SHL SUB AND EQ JUMPDEST ISZERO PUSH2 0x17A6 JUMPI PUSH1 0x0 SWAP3 POP POP POP PUSH2 0x10FE JUMP JUMPDEST POP PUSH1 0x1 ADD PUSH2 0x161E JUMP JUMPDEST POP PUSH1 0x1 SWAP3 SWAP2 POP POP JUMP JUMPDEST PUSH1 0x0 DUP1 PUSH1 0x3 PUSH2 0x17C5 PUSH2 0x3A74 JUMP JUMPDEST SWAP1 PUSH2 0x100 EXP SWAP1 DIV PUSH1 0xFF AND ISZERO PUSH2 0x1814 JUMPI PUSH1 0x40 MLOAD PUSH3 0x461BCD PUSH1 0xE5 SHL DUP2 MSTORE PUSH1 0x4 ADD DUP1 DUP1 PUSH1 0x20 ADD DUP3 DUP2 SUB DUP3 MSTORE PUSH1 0x3C DUP2 MSTORE PUSH1 0x20 ADD DUP1 PUSH2 0x3F34 PUSH1 0x3C SWAP2 CODECOPY PUSH1 0x40 ADD SWAP2 POP POP PUSH1 0x40 MLOAD DUP1 SWAP2 SUB SWAP1 PUSH2 0x1811 PUSH2 0x3A09 JUMP JUMPDEST POP POP JUMPDEST PUSH1 0x1 PUSH1 0x4 PUSH1 0x0 DUP3 DUP3 PUSH2 0x1824 PUSH2 0x3A74 JUMP JUMPDEST ADD SWAP3 POP POP DUP2 SWAP1 PUSH2 0x1832 PUSH2 0x3ACF JUMP JUMPDEST POP POP POP PUSH1 0x0 PUSH1 0x4 PUSH2 0x1841 PUSH2 0x3A74 JUMP JUMPDEST SWAP1 POP PUSH2 0x184B PUSH2 0x2C25 JUMP JUMPDEST PUSH1 0x1 PUSH1 0x1 PUSH1 0xA0 SHL SUB AND PUSH4 0x2528F0FE PUSH1 0x40 MLOAD PUSH1 0x1 PUSH1 0x1 PUSH1 0xE0 SHL SUB NOT PUSH1 0xE0 DUP4 SWAP1 SHL AND DUP2 MSTORE PUSH4 0xE68AA89 PUSH1 0xE3 SHL PUSH1 0x4 DUP3 ADD MSTORE PUSH1 0x24 ADD PUSH1 0x20 PUSH1 0x40 MLOAD DUP1 DUP4 SUB DUP2 DUP7 DUP1 PUSH2 0x1890 PUSH2 0x3BA2 JUMP JUMPDEST ISZERO DUP1 ISZERO PUSH2 0x18A5 JUMPI PUSH1 0x0 DUP1 PUSH2 0x18A2 PUSH2 0x3A09 JUMP JUMPDEST POP POP JUMPDEST POP GAS PUSH2 0x18AF PUSH2 0x3BEE JUMP JUMPDEST POP POP POP POP POP ISZERO DUP1 ISZERO PUSH2 0x18CE JUMPI RETURNDATASIZE PUSH1 0x0 DUP1 RETURNDATACOPY RETURNDATASIZE PUSH1 0x0 PUSH2 0x18CB PUSH2 0x3A09 JUMP JUMPDEST POP POP JUMPDEST POP POP POP POP PUSH1 0x40 MLOAD RETURNDATASIZE PUSH1 0x20 DUP2 LT ISZERO PUSH2 0x18ED JUMPI PUSH1 0x0 DUP1 PUSH2 0x18EA PUSH2 0x3A09 JUMP JUMPDEST POP POP JUMPDEST DUP2 ADD SWAP1 DUP1 DUP1 MLOAD ISZERO SWAP3 POP PUSH2 0x1952 SWAP2 POP POP JUMPI PUSH1 0x40 MLOAD PUSH3 0x461BCD PUSH1 0xE5 SHL DUP2 MSTORE PUSH1 0x20 PUSH1 0x4 DUP3 ADD MSTORE PUSH1 0x1F PUSH1 0x24 DUP3 ADD MSTORE PUSH32 0x426C6F636B65642061732073455448207261746520697320696E76616C696400 PUSH1 0x44 DUP3 ADD MSTORE PUSH1 0x64 ADD PUSH1 0x40 MLOAD DUP1 SWAP2 SUB SWAP1 PUSH2 0x194F PUSH2 0x3A09 JUMP JUMPDEST POP POP JUMPDEST PUSH2 0x195A PUSH2 0x2C74 JUMP JUMPDEST PUSH1 0x1 PUSH1 0x1 PUSH1 0xA0 SHL SUB AND PUSH4 0x7C312541 PUSH1 0x40 MLOAD DUP2 PUSH4 0xFFFFFFFF AND PUSH1 0xE0 SHL DUP2 MSTORE PUSH1 0x4 ADD PUSH1 0x0 PUSH1 0x40 MLOAD DUP1 DUP4 SUB DUP2 DUP7 DUP1 PUSH2 0x198D PUSH2 0x3BA2 JUMP JUMPDEST ISZERO DUP1 ISZERO PUSH2 0x19A2 JUMPI PUSH1 0x0 DUP1 PUSH2 0x199F PUSH2 0x3A09 JUMP JUMPDEST POP POP JUMPDEST POP GAS PUSH2 0x19AC PUSH2 0x3BEE JUMP JUMPDEST POP POP POP POP POP ISZERO DUP1 ISZERO PUSH2 0x19CB JUMPI RETURNDATASIZE PUSH1 0x0 DUP1 RETURNDATACOPY RETURNDATASIZE PUSH1 0x0 PUSH2 0x19C8 PUSH2 0x3A09 JUMP JUMPDEST POP POP JUMPDEST POP POP POP POP PUSH1 0xD PUSH2 0x19D9 PUSH2 0x3A74 JUMP JUMPDEST CALLVALUE LT ISZERO PUSH2 0x1A20 JUMPI PUSH1 0x40 MLOAD PUSH3 0x461BCD PUSH1 0xE5 SHL DUP2 MSTORE PUSH1 0x4 ADD DUP1 DUP1 PUSH1 0x20 ADD DUP3 DUP2 SUB DUP3 MSTORE PUSH1 0x3E DUP2 MSTORE PUSH1 0x20 ADD DUP1 PUSH2 0x3EF6 PUSH1 0x3E SWAP2 CODECOPY PUSH1 0x40 ADD SWAP2 POP POP PUSH1 0x40 MLOAD DUP1 SWAP2 SUB SWAP1 PUSH2 0x1A1D PUSH2 0x3A09 JUMP JUMPDEST POP POP JUMPDEST PUSH1 0x0 PUSH1 0xF PUSH2 0x1A2C PUSH2 0x3A74 JUMP JUMPDEST PUSH1 0xFF PUSH2 0x100 SWAP3 SWAP1 SWAP3 EXP SWAP1 DIV AND ISZERO PUSH2 0x1A92 JUMPI PUSH1 0x40 MLOAD PUSH3 0x461BCD PUSH1 0xE5 SHL DUP2 MSTORE PUSH1 0x20 PUSH1 0x4 DUP3 ADD MSTORE PUSH1 0x1E PUSH1 0x24 DUP3 ADD MSTORE PUSH32 0x4C6F616E7320617265206E6F77206265696E67206C6971756964617465640000 PUSH1 0x44 DUP3 ADD MSTORE PUSH1 0x64 ADD PUSH1 0x40 MLOAD DUP1 SWAP2 SUB SWAP1 PUSH2 0x1A8F PUSH2 0x3A09 JUMP JUMPDEST POP POP JUMPDEST PUSH1 0xE PUSH2 0x1A9C PUSH2 0x3A74 JUMP JUMPDEST PUSH1 0x14 PUSH1 0x0 GAS PUSH2 0x1AA9 PUSH2 0x3CEA JUMP JUMPDEST PUSH1 0x1 PUSH1 0x1 PUSH1 0xA0 SHL SUB AND PUSH1 0x1 PUSH1 0x1 PUSH1 0xA0 SHL SUB AND DUP2 MSTORE PUSH1 0x20 ADD SWAP1 DUP2 MSTORE PUSH1 0x20 ADD PUSH1 0x0 KECCAK256 DUP1 PUSH2 0x1AD2 PUSH2 0x3A74 JUMP JUMPDEST SWAP1 POP LT PUSH2 0x1B19 JUMPI PUSH1 0x40 MLOAD PUSH3 0x461BCD PUSH1 0xE5 SHL DUP2 MSTORE PUSH1 0x4 ADD DUP1 DUP1 PUSH1 0x20 ADD DUP3 DUP2 SUB DUP3 MSTORE PUSH1 0x22 DUP2 MSTORE PUSH1 0x20 ADD DUP1 PUSH2 0x3E61 PUSH1 0x22 SWAP2 CODECOPY PUSH1 0x40 ADD SWAP2 POP POP PUSH1 0x40 MLOAD DUP1 SWAP2 SUB SWAP1 PUSH2 0x1B16 PUSH2 0x3A09 JUMP JUMPDEST POP POP JUMPDEST PUSH1 0x0 PUSH2 0x1B24 CALLVALUE PUSH2 0x210A JUMP JUMPDEST SWAP1 POP PUSH1 0xC PUSH2 0x1B30 PUSH2 0x3A74 JUMP JUMPDEST PUSH2 0x1B4A DUP3 PUSH1 0x11 PUSH2 0x1B3E PUSH2 0x3A74 JUMP JUMPDEST SWAP1 PUSH4 0xFFFFFFFF PUSH2 0x2CC2 AND JUMP JUMPDEST LT PUSH2 0x1B8F JUMPI PUSH1 0x40 MLOAD PUSH3 0x461BCD PUSH1 0xE5 SHL DUP2 MSTORE PUSH1 0x4 ADD DUP1 DUP1 PUSH1 0x20 ADD DUP3 DUP2 SUB DUP3 MSTORE PUSH1 0x23 DUP2 MSTORE PUSH1 0x20 ADD DUP1 PUSH2 0x3E83 PUSH1 0x23 SWAP2 CODECOPY PUSH1 0x40 ADD SWAP2 POP POP PUSH1 0x40 MLOAD DUP1 SWAP2 SUB SWAP1 PUSH2 0x1B8C PUSH2 0x3A09 JUMP JUMPDEST POP POP JUMPDEST PUSH2 0x1B97 PUSH2 0x2D2A JUMP JUMPDEST SWAP3 POP PUSH2 0x1BA1 PUSH2 0x3B63 JUMP JUMPDEST PUSH1 0x40 MLOAD DUP1 PUSH1 0xC0 ADD PUSH1 0x40 MSTORE DUP1 GAS PUSH2 0x1BB5 PUSH2 0x3CEA JUMP JUMPDEST PUSH1 0x1 PUSH1 0x1 PUSH1 0xA0 SHL SUB AND DUP2 MSTORE PUSH1 0x20 ADD CALLVALUE DUP2 MSTORE PUSH1 0x20 ADD DUP4 DUP2 MSTORE PUSH1 0x20 ADD GAS PUSH2 0x1BD8 PUSH2 0x3B1D JUMP JUMPDEST DUP2 MSTORE PUSH1 0x20 ADD DUP6 DUP2 MSTORE PUSH1 0x20 ADD PUSH1 0x0 DUP2 MSTORE POP SWAP1 POP PUSH1 0x14 PUSH1 0x0 GAS PUSH2 0x1BF7 PUSH2 0x3CEA JUMP JUMPDEST PUSH1 0x1 PUSH1 0x1 PUSH1 0xA0 SHL SUB AND PUSH1 0x1 PUSH1 0x1 PUSH1 0xA0 SHL SUB AND DUP2 MSTORE PUSH1 0x20 ADD SWAP1 DUP2 MSTORE PUSH1 0x20 ADD PUSH1 0x0 KECCAK256 DUP2 SWAP1 DUP1 PUSH1 0x1 DUP2 PUSH2 0x1C25 PUSH2 0x3A74 JUMP JUMPDEST ADD DUP1 DUP3 PUSH2 0x1C30 PUSH2 0x3ACF JUMP JUMPDEST POP POP PUSH1 0x0 SWAP3 DUP4 MSTORE SWAP2 PUSH1 0x0 NOT DUP4 ADD SWAP2 POP PUSH1 0x20 SWAP1 KECCAK256 SWAP2 SWAP3 SWAP2 PUSH1 0x6 SWAP1 SWAP2 MUL ADD DUP2 MLOAD DUP2 PUSH1 0x1 DUP2 PUSH2 0x1C5A PUSH2 0x3A74 JUMP JUMPDEST DUP2 PUSH1 0x1 PUSH1 0x1 PUSH1 0xA0 SHL SUB MUL NOT AND SWAP1 DUP4 PUSH1 0x1 PUSH1 0x1 PUSH1 0xA0 SHL SUB AND MUL OR SWAP1 PUSH2 0x1C7C PUSH2 0x3ACF JUMP JUMPDEST POP POP POP PUSH1 0x20 DUP3 ADD MLOAD DUP2 PUSH1 0x1 ADD PUSH2 0x1C90 PUSH2 0x3ACF JUMP JUMPDEST POP POP PUSH1 0x40 DUP3 ADD MLOAD DUP2 PUSH1 0x2 ADD PUSH2 0x1CA3 PUSH2 0x3ACF JUMP JUMPDEST POP POP PUSH1 0x60 DUP3 ADD MLOAD DUP2 PUSH1 0x3 ADD PUSH2 0x1CB6 PUSH2 0x3ACF JUMP JUMPDEST POP POP PUSH1 0x80 DUP3 ADD MLOAD DUP2 PUSH1 0x4 ADD PUSH2 0x1CC9 PUSH2 0x3ACF JUMP JUMPDEST POP POP PUSH1 0xA0 DUP3 ADD MLOAD DUP2 PUSH1 0x5 ADD PUSH2 0x1CDC PUSH2 0x3ACF JUMP JUMPDEST POP POP POP POP POP PUSH2 0x1CEF DUP3 PUSH1 0x11 PUSH2 0x1B3E PUSH2 0x3A74 JUMP JUMPDEST DUP1 PUSH1 0x11 PUSH2 0x1CFA PUSH2 0x3ACF JUMP JUMPDEST POP POP POP PUSH2 0x1D05 PUSH2 0x2D70 JUMP JUMPDEST PUSH1 0x1 PUSH1 0x1 PUSH1 0xA0 SHL SUB AND PUSH4 0x867904B4 GAS PUSH2 0x1D1C PUSH2 0x3CEA JUMP JUMPDEST DUP5 PUSH1 0x40 MLOAD PUSH1 0x1 PUSH1 0x1 PUSH1 0xE0 SHL SUB NOT PUSH1 0xE0 DUP6 SWAP1 SHL AND DUP2 MSTORE PUSH1 0x1 PUSH1 0x1 PUSH1 0xA0 SHL SUB SWAP1 SWAP3 AND PUSH1 0x4 DUP4 ADD MSTORE PUSH1 0x24 DUP3 ADD MSTORE PUSH1 0x44 ADD PUSH1 0x0 PUSH1 0x40 MLOAD DUP1 DUP4 SUB DUP2 PUSH1 0x0 DUP8 DUP1 PUSH2 0x1D5E PUSH2 0x3BA2 JUMP JUMPDEST ISZERO DUP1 ISZERO PUSH2 0x1D73 JUMPI PUSH1 0x0 DUP1 PUSH2 0x1D70 PUSH2 0x3A09 JUMP JUMPDEST POP POP JUMPDEST POP GAS PUSH2 0x1D7D PUSH2 0x3D30 JUMP JUMPDEST POP POP POP POP POP POP ISZERO DUP1 ISZERO PUSH2 0x1D9D JUMPI RETURNDATASIZE PUSH1 0x0 DUP1 RETURNDATACOPY RETURNDATASIZE PUSH1 0x0 PUSH2 0x1D9A PUSH2 0x3A09 JUMP JUMPDEST POP POP JUMPDEST POP POP POP POP GAS PUSH2 0x1DAA PUSH2 0x3CEA JUMP JUMPDEST PUSH1 0x1 PUSH1 0x1 PUSH1 0xA0 SHL SUB AND PUSH32 0x58D170DE3A12438E22D81380F353B2FCAC86F0A708A1374DEAA5C6322A95992F DUP6 DUP5 PUSH1 0x40 MLOAD SWAP2 DUP3 MSTORE PUSH1 0x20 DUP3 ADD MSTORE PUSH1 0x40 SWAP1 DUP2 ADD SWAP1 MLOAD DUP1 SWAP2 SUB SWAP1 LOG2 POP POP PUSH1 0x4 PUSH2 0x1DF9 PUSH2 0x3A74 JUMP JUMPDEST DUP2 EQ PUSH2 0x1E54 JUMPI PUSH1 0x40 MLOAD PUSH3 0x461BCD PUSH1 0xE5 SHL DUP2 MSTORE PUSH1 0x20 PUSH1 0x4 DUP3 ADD MSTORE PUSH1 0x1F PUSH1 0x24 DUP3 ADD MSTORE PUSH32 0x5265656E7472616E637947756172643A207265656E7472616E742063616C6C00 PUSH1 0x44 DUP3 ADD MSTORE PUSH1 0x64 ADD PUSH1 0x40 MLOAD DUP1 SWAP2 SUB SWAP1 PUSH2 0x1E51 PUSH2 0x3A09 JUMP JUMPDEST POP POP JUMPDEST POP SWAP1 JUMP JUMPDEST PUSH1 0x0 PUSH1 0x1 PUSH2 0x1E64 PUSH2 0x3A74 JUMP JUMPDEST SWAP1 PUSH2 0x100 EXP SWAP1 DIV PUSH1 0x1 PUSH1 0x1 PUSH1 0xA0 SHL SUB AND PUSH1 0x1 PUSH1 0x1 PUSH1 0xA0 SHL SUB AND GAS PUSH2 0x1E86 PUSH2 0x3CEA JUMP JUMPDEST PUSH1 0x1 PUSH1 0x1 PUSH1 0xA0 SHL SUB AND EQ PUSH2 0x1ED4 JUMPI PUSH1 0x40 MLOAD PUSH3 0x461BCD PUSH1 0xE5 SHL DUP2 MSTORE PUSH1 0x4 ADD DUP1 DUP1 PUSH1 0x20 ADD DUP3 DUP2 SUB DUP3 MSTORE PUSH1 0x35 DUP2 MSTORE PUSH1 0x20 ADD DUP1 PUSH2 0x3E07 PUSH1 0x35 SWAP2 CODECOPY PUSH1 0x40 ADD SWAP2 POP POP PUSH1 0x40 MLOAD DUP1 SWAP2 SUB SWAP1 PUSH2 0x1ED1 PUSH2 0x3A09 JUMP JUMPDEST POP POP JUMPDEST PUSH32 0xB532073B38C83145E3E5135377A08BF9AAB55BC0FD7C1179CD4FB995D2A5159C PUSH1 0x0 DUP1 PUSH2 0x1F00 PUSH2 0x3A74 JUMP JUMPDEST SWAP1 PUSH2 0x100 EXP SWAP1 DIV PUSH1 0x1 PUSH1 0x1 PUSH1 0xA0 SHL SUB AND PUSH1 0x1 PUSH1 0x0 SWAP1 PUSH2 0x1F1D PUSH2 0x3A74 JUMP JUMPDEST SWAP1 PUSH2 0x100 EXP SWAP1 DIV PUSH1 0x1 PUSH1 0x1 PUSH1 0xA0 SHL SUB AND PUSH1 0x40 MLOAD PUSH1 0x1 PUSH1 0x1 PUSH1 0xA0 SHL SUB SWAP3 DUP4 AND DUP2 MSTORE SWAP2 AND PUSH1 0x20 DUP3 ADD MSTORE PUSH1 0x40 SWAP1 DUP2 ADD SWAP1 MLOAD DUP1 SWAP2 SUB SWAP1 LOG1 PUSH1 0x0 PUSH1 0x1 PUSH2 0x1F5C PUSH2 0x3A74 JUMP JUMPDEST SWAP1 PUSH2 0x100 EXP SWAP1 DIV PUSH1 0x1 PUSH1 0x1 PUSH1 0xA0 SHL SUB AND PUSH1 0x0 DUP1 PUSH2 0x100 EXP DUP2 PUSH2 0x1F7C PUSH2 0x3A74 JUMP JUMPDEST DUP2 PUSH1 0x1 PUSH1 0x1 PUSH1 0xA0 SHL SUB MUL NOT AND SWAP1 DUP4 PUSH1 0x1 PUSH1 0x1 PUSH1 0xA0 SHL SUB AND MUL OR SWAP1 PUSH2 0x1F9E PUSH2 0x3ACF JUMP JUMPDEST POP POP POP PUSH1 0x0 PUSH1 0x1 PUSH1 0x0 PUSH2 0x100 EXP DUP2 PUSH2 0x1FB4 PUSH2 0x3A74 JUMP JUMPDEST DUP2 PUSH1 0x1 PUSH1 0x1 PUSH1 0xA0 SHL SUB MUL NOT AND SWAP1 DUP4 PUSH1 0x1 PUSH1 0x1 PUSH1 0xA0 SHL SUB AND MUL OR SWAP1 PUSH2 0x1FD6 PUSH2 0x3ACF JUMP JUMPDEST POP POP POP JUMP JUMPDEST PUSH1 0x9 PUSH2 0xD71 PUSH2 0x3A74 JUMP JUMPDEST PUSH1 0x0 DUP1 PUSH1 0x0 DUP1 PUSH1 0x0 DUP1 PUSH1 0x0 DUP1 PUSH1 0x0 DUP1 PUSH1 0x0 DUP1 PUSH1 0x0 PUSH1 0x8 PUSH2 0x2003 PUSH2 0x3A74 JUMP JUMPDEST SWAP13 POP PUSH2 0x200D PUSH2 0x2327 JUMP JUMPDEST SWAP12 POP PUSH1 0x9 PUSH2 0x2019 PUSH2 0x3A74 JUMP JUMPDEST SWAP11 POP PUSH1 0xA PUSH2 0x2025 PUSH2 0x3A74 JUMP JUMPDEST SWAP10 POP PUSH1 0xB PUSH2 0x2031 PUSH2 0x3A74 JUMP JUMPDEST SWAP9 POP PUSH1 0xC PUSH2 0x203D PUSH2 0x3A74 JUMP JUMPDEST SWAP8 POP PUSH1 0xD PUSH2 0x2049 PUSH2 0x3A74 JUMP JUMPDEST SWAP7 POP PUSH1 0x11 PUSH2 0x2055 PUSH2 0x3A74 JUMP JUMPDEST SWAP6 POP PUSH1 0x12 PUSH2 0x2061 PUSH2 0x3A74 JUMP JUMPDEST SWAP5 POP PUSH1 0x13 PUSH2 0x206D PUSH2 0x3A74 JUMP JUMPDEST SWAP4 POP PUSH1 0x0 SWAP3 POP PUSH1 0x10 PUSH2 0x207D PUSH2 0x3A74 JUMP JUMPDEST SWAP2 POP PUSH1 0x0 PUSH1 0xF PUSH2 0x208B PUSH2 0x3A74 JUMP JUMPDEST SWAP1 PUSH2 0x100 EXP SWAP1 DIV PUSH1 0xFF AND SWAP1 POP SWAP1 SWAP2 SWAP3 SWAP4 SWAP5 SWAP6 SWAP7 SWAP8 SWAP9 SWAP10 SWAP11 SWAP12 SWAP13 JUMP JUMPDEST PUSH1 0x0 PUSH2 0x20B0 PUSH2 0x3B63 JUMP JUMPDEST PUSH2 0x20BA DUP5 DUP5 PUSH2 0x2A42 JUMP JUMPDEST SWAP1 POP PUSH1 0x0 PUSH2 0x20C7 DUP3 PUSH2 0x2DBB JUMP JUMPDEST SWAP1 POP PUSH2 0x20D7 DUP3 PUSH1 0x40 ADD MLOAD DUP3 PUSH2 0x21C0 JUMP JUMPDEST SWAP6 SWAP5 POP POP POP POP POP JUMP JUMPDEST PUSH1 0x0 PUSH2 0x20EA PUSH2 0x3B63 JUMP JUMPDEST PUSH2 0x20F4 DUP5 DUP5 PUSH2 0x2A42 JUMP JUMPDEST SWAP1 POP PUSH2 0xEF7 DUP2 PUSH2 0x2DBB JUMP JUMPDEST PUSH1 0x0 DUP1 PUSH2 0xD46 PUSH2 0x3A74 JUMP JUMPDEST PUSH1 0x0 PUSH2 0xEFB PUSH2 0x2117 PUSH2 0x2327 JUMP JUMPDEST DUP4 SWAP1 PUSH4 0xFFFFFFFF PUSH2 0x2E08 AND JUMP JUMPDEST PUSH1 0x2 PUSH2 0xD71 PUSH2 0x3A74 JUMP JUMPDEST PUSH1 0x10 PUSH2 0xD71 PUSH2 0x3A74 JUMP JUMPDEST PUSH1 0x0 DUP1 PUSH1 0x0 DUP1 PUSH1 0x0 DUP1 PUSH1 0x0 DUP1 PUSH2 0x214C PUSH2 0x3B63 JUMP JUMPDEST PUSH2 0x2156 DUP12 DUP12 PUSH2 0x2A42 JUMP JUMPDEST SWAP1 POP DUP1 MLOAD SWAP9 POP DUP1 PUSH1 0x20 ADD MLOAD SWAP8 POP DUP1 PUSH1 0x40 ADD MLOAD SWAP7 POP DUP1 PUSH1 0x60 ADD MLOAD SWAP6 POP DUP1 PUSH1 0x80 ADD MLOAD SWAP5 POP DUP1 PUSH1 0xA0 ADD MLOAD SWAP4 POP PUSH2 0x2195 DUP2 PUSH1 0x40 ADD MLOAD PUSH2 0x2190 DUP4 PUSH2 0x2DBB JUMP JUMPDEST PUSH2 0x21C0 JUMP JUMPDEST SWAP3 POP PUSH2 0x21B0 PUSH2 0x21A3 DUP3 PUSH2 0x2B93 JUMP JUMPDEST DUP5 SWAP1 PUSH4 0xFFFFFFFF PUSH2 0x2CC2 AND JUMP JUMPDEST SWAP2 POP POP SWAP3 SWAP6 SWAP9 POP SWAP3 SWAP6 SWAP9 SWAP1 SWAP4 SWAP7 POP JUMP JUMPDEST PUSH1 0x0 PUSH2 0x21EC PUSH2 0x21DF DUP4 PUSH1 0xA PUSH2 0x21D3 PUSH2 0x3A74 JUMP JUMPDEST SWAP1 PUSH4 0xFFFFFFFF PUSH2 0x2E32 AND JUMP JUMPDEST DUP5 SWAP1 PUSH4 0xFFFFFFFF PUSH2 0x2E91 AND JUMP JUMPDEST SWAP4 SWAP3 POP POP POP JUMP JUMPDEST PUSH2 0x21FB PUSH2 0x29C8 JUMP JUMPDEST DUP1 DUP1 PUSH1 0xB PUSH2 0x2207 PUSH2 0x3ACF JUMP JUMPDEST POP POP POP PUSH32 0xE7BD72551C54D568CD97B00DC52D2787B5C5D4F0070D3582C1E8BA25141F799C PUSH1 0xB PUSH2 0x1323 PUSH2 0x3A74 JUMP JUMPDEST PUSH1 0x14 PUSH1 0x20 MSTORE DUP2 PUSH1 0x0 MSTORE PUSH1 0x40 PUSH1 0x0 KECCAK256 DUP2 DUP2 PUSH2 0x224D PUSH2 0x3A74 JUMP JUMPDEST DUP2 LT PUSH2 0x2255 JUMPI INVALID JUMPDEST SWAP1 PUSH1 0x0 MSTORE PUSH1 0x20 PUSH1 0x0 KECCAK256 PUSH1 0x6 SWAP1 SWAP2 MUL ADD SWAP2 POP PUSH1 0x0 SWAP1 POP DUP2 PUSH2 0x2273 PUSH2 0x3A74 JUMP JUMPDEST SWAP1 PUSH2 0x100 EXP SWAP1 DIV PUSH1 0x1 PUSH1 0x1 PUSH1 0xA0 SHL SUB AND SWAP1 DUP1 PUSH1 0x1 ADD PUSH2 0x2290 PUSH2 0x3A74 JUMP JUMPDEST SWAP1 DUP1 PUSH1 0x2 ADD PUSH2 0x229D PUSH2 0x3A74 JUMP JUMPDEST SWAP1 DUP1 PUSH1 0x3 ADD PUSH2 0x22AA PUSH2 0x3A74 JUMP JUMPDEST SWAP1 DUP1 PUSH1 0x4 ADD PUSH2 0x22B7 PUSH2 0x3A74 JUMP JUMPDEST SWAP1 DUP1 PUSH1 0x5 ADD PUSH2 0x22C4 PUSH2 0x3A74 JUMP JUMPDEST SWAP1 POP DUP7 JUMP JUMPDEST PUSH2 0x22D1 PUSH2 0x3DE9 JUMP JUMPDEST PUSH1 0x0 JUMPDEST PUSH1 0x7 DUP1 PUSH2 0x22DF PUSH2 0x3A74 JUMP JUMPDEST SWAP1 POP DUP2 LT ISZERO PUSH2 0x1E54 JUMPI PUSH1 0x7 DUP2 DUP2 PUSH2 0x22F4 PUSH2 0x3A74 JUMP JUMPDEST DUP2 LT PUSH2 0x22FC JUMPI INVALID JUMPDEST SWAP1 PUSH1 0x0 MSTORE PUSH1 0x20 PUSH1 0x0 KECCAK256 ADD PUSH2 0x230E PUSH2 0x3A74 JUMP JUMPDEST DUP3 DUP3 PUSH1 0x18 DUP2 LT PUSH2 0x231A JUMPI INVALID JUMPDEST PUSH1 0x20 MUL ADD MSTORE PUSH1 0x1 ADD PUSH2 0x22D4 JUMP JUMPDEST PUSH1 0x0 PUSH2 0x234C PUSH1 0x8 PUSH2 0x2336 PUSH2 0x3A74 JUMP JUMPDEST PUSH9 0x56BC75E2D63100000 SWAP1 PUSH4 0xFFFFFFFF PUSH2 0x2EA6 AND JUMP JUMPDEST SWAP1 POP SWAP1 JUMP JUMPDEST PUSH2 0x2359 PUSH2 0x29C8 JUMP JUMPDEST PUSH1 0x10 PUSH2 0x2363 PUSH2 0x3A74 JUMP JUMPDEST GAS PUSH2 0x236C PUSH2 0x3B1D JUMP JUMPDEST GT PUSH2 0x23C6 JUMPI PUSH1 0x40 MLOAD PUSH3 0x461BCD PUSH1 0xE5 SHL DUP2 MSTORE PUSH1 0x20 PUSH1 0x4 DUP3 ADD MSTORE PUSH1 0x1B PUSH1 0x24 DUP3 ADD MSTORE PUSH32 0x4265666F7265206C69717569646174696F6E20646561646C696E650000000000 PUSH1 0x44 DUP3 ADD MSTORE PUSH1 0x64 ADD PUSH1 0x40 MLOAD DUP1 SWAP2 SUB SWAP1 PUSH2 0x23C3 PUSH2 0x3A09 JUMP JUMPDEST POP POP JUMPDEST DUP1 PUSH1 0xF PUSH1 0x1 DUP2 PUSH2 0x23D4 PUSH2 0x3A74 JUMP JUMPDEST DUP2 PUSH1 0xFF MUL NOT AND SWAP1 DUP4 ISZERO ISZERO MUL OR SWAP1 PUSH2 0x23E9 PUSH2 0x3ACF JUMP JUMPDEST POP POP POP PUSH32 0xAA52CF15C1FBB778214C66F64726E141551158858D1C06CA0392C6C5869C8567 PUSH1 0xF PUSH1 0x0 SWAP1 PUSH2 0xEAD PUSH2 0x3A74 JUMP JUMPDEST PUSH1 0x7 DUP2 DUP2 PUSH2 0x2426 PUSH2 0x3A74 JUMP JUMPDEST DUP2 LT PUSH2 0x242E JUMPI INVALID JUMPDEST SWAP1 PUSH1 0x0 MSTORE PUSH1 0x20 PUSH1 0x0 KECCAK256 ADD SWAP1 POP PUSH2 0xD71 PUSH2 0x3A74 JUMP JUMPDEST PUSH1 0xD PUSH2 0xD71 PUSH2 0x3A74 JUMP JUMPDEST PUSH1 0x1 PUSH1 0x4 PUSH1 0x0 DUP3 DUP3 PUSH2 0x245C PUSH2 0x3A74 JUMP JUMPDEST ADD SWAP3 POP POP DUP2 SWAP1 PUSH2 0x246A PUSH2 0x3ACF JUMP JUMPDEST POP POP POP PUSH1 0x0 PUSH1 0x4 PUSH2 0x2479 PUSH2 0x3A74 JUMP JUMPDEST SWAP1 POP PUSH2 0x2483 PUSH2 0x2C25 JUMP JUMPDEST PUSH1 0x1 PUSH1 0x1 PUSH1 0xA0 SHL SUB AND PUSH4 0x2528F0FE PUSH1 0x40 MLOAD PUSH1 0x1 PUSH1 0x1 PUSH1 0xE0 SHL SUB NOT PUSH1 0xE0 DUP4 SWAP1 SHL AND DUP2 MSTORE PUSH4 0xE68AA89 PUSH1 0xE3 SHL PUSH1 0x4 DUP3 ADD MSTORE PUSH1 0x24 ADD PUSH1 0x20 PUSH1 0x40 MLOAD DUP1 DUP4 SUB DUP2 DUP7 DUP1 PUSH2 0x24C8 PUSH2 0x3BA2 JUMP JUMPDEST ISZERO DUP1 ISZERO PUSH2 0x24DD JUMPI PUSH1 0x0 DUP1 PUSH2 0x24DA PUSH2 0x3A09 JUMP JUMPDEST POP POP JUMPDEST POP GAS PUSH2 0x24E7 PUSH2 0x3BEE JUMP JUMPDEST POP POP POP POP POP ISZERO DUP1 ISZERO PUSH2 0x2506 JUMPI RETURNDATASIZE PUSH1 0x0 DUP1 RETURNDATACOPY RETURNDATASIZE PUSH1 0x0 PUSH2 0x2503 PUSH2 0x3A09 JUMP JUMPDEST POP POP JUMPDEST POP POP POP POP PUSH1 0x40 MLOAD RETURNDATASIZE PUSH1 0x20 DUP2 LT ISZERO PUSH2 0x2525 JUMPI PUSH1 0x0 DUP1 PUSH2 0x2522 PUSH2 0x3A09 JUMP JUMPDEST POP POP JUMPDEST DUP2 ADD SWAP1 DUP1 DUP1 MLOAD ISZERO SWAP3 POP PUSH2 0x258A SWAP2 POP POP JUMPI PUSH1 0x40 MLOAD PUSH3 0x461BCD PUSH1 0xE5 SHL DUP2 MSTORE PUSH1 0x20 PUSH1 0x4 DUP3 ADD MSTORE PUSH1 0x1F PUSH1 0x24 DUP3 ADD MSTORE PUSH32 0x426C6F636B65642061732073455448207261746520697320696E76616C696400 PUSH1 0x44 DUP3 ADD MSTORE PUSH1 0x64 ADD PUSH1 0x40 MLOAD DUP1 SWAP2 SUB SWAP1 PUSH2 0x2587 PUSH2 0x3A09 JUMP JUMPDEST POP POP JUMPDEST PUSH2 0x259C GAS PUSH2 0x2596 PUSH2 0x3CEA JUMP JUMPDEST DUP4 PUSH2 0x2EBB JUMP JUMPDEST PUSH1 0x4 PUSH2 0x25A6 PUSH2 0x3A74 JUMP JUMPDEST DUP2 EQ PUSH2 0x12D3 JUMPI PUSH1 0x40 MLOAD PUSH3 0x461BCD PUSH1 0xE5 SHL DUP2 MSTORE PUSH1 0x20 PUSH1 0x4 DUP3 ADD MSTORE PUSH1 0x1F PUSH1 0x24 DUP3 ADD MSTORE PUSH32 0x5265656E7472616E637947756172643A207265656E7472616E742063616C6C00 PUSH1 0x44 DUP3 ADD MSTORE PUSH1 0x64 ADD PUSH1 0x40 MLOAD DUP1 SWAP2 SUB SWAP1 PUSH2 0x25FE PUSH2 0x3A09 JUMP JUMPDEST POP POP POP POP JUMP JUMPDEST PUSH1 0x8 PUSH2 0xD71 PUSH2 0x3A74 JUMP JUMPDEST PUSH1 0x1 PUSH1 0x4 PUSH1 0x0 DUP3 DUP3 PUSH2 0x261E PUSH2 0x3A74 JUMP JUMPDEST ADD SWAP3 POP POP DUP2 SWAP1 PUSH2 0x262C PUSH2 0x3ACF JUMP JUMPDEST POP POP POP PUSH1 0x0 PUSH1 0x4 PUSH2 0x263B PUSH2 0x3A74 JUMP JUMPDEST SWAP1 POP PUSH2 0x2645 PUSH2 0x2C25 JUMP JUMPDEST PUSH1 0x1 PUSH1 0x1 PUSH1 0xA0 SHL SUB AND PUSH4 0x2528F0FE PUSH1 0x40 MLOAD PUSH1 0x1 PUSH1 0x1 PUSH1 0xE0 SHL SUB NOT PUSH1 0xE0 DUP4 SWAP1 SHL AND DUP2 MSTORE PUSH4 0xE68AA89 PUSH1 0xE3 SHL PUSH1 0x4 DUP3 ADD MSTORE PUSH1 0x24 ADD PUSH1 0x20 PUSH1 0x40 MLOAD DUP1 DUP4 SUB DUP2 DUP7 DUP1 PUSH2 0x268A PUSH2 0x3BA2 JUMP JUMPDEST ISZERO DUP1 ISZERO PUSH2 0x269F JUMPI PUSH1 0x0 DUP1 PUSH2 0x269C PUSH2 0x3A09 JUMP JUMPDEST POP POP JUMPDEST POP GAS PUSH2 0x26A9 PUSH2 0x3BEE JUMP JUMPDEST POP POP POP POP POP ISZERO DUP1 ISZERO PUSH2 0x26C8 JUMPI RETURNDATASIZE PUSH1 0x0 DUP1 RETURNDATACOPY RETURNDATASIZE PUSH1 0x0 PUSH2 0x26C5 PUSH2 0x3A09 JUMP JUMPDEST POP POP JUMPDEST POP POP POP POP PUSH1 0x40 MLOAD RETURNDATASIZE PUSH1 0x20 DUP2 LT ISZERO PUSH2 0x26E7 JUMPI PUSH1 0x0 DUP1 PUSH2 0x26E4 PUSH2 0x3A09 JUMP JUMPDEST POP POP JUMPDEST DUP2 ADD SWAP1 DUP1 DUP1 MLOAD ISZERO SWAP3 POP PUSH2 0x274C SWAP2 POP POP JUMPI PUSH1 0x40 MLOAD PUSH3 0x461BCD PUSH1 0xE5 SHL DUP2 MSTORE PUSH1 0x20 PUSH1 0x4 DUP3 ADD MSTORE PUSH1 0x1F PUSH1 0x24 DUP3 ADD MSTORE PUSH32 0x426C6F636B65642061732073455448207261746520697320696E76616C696400 PUSH1 0x44 DUP3 ADD MSTORE PUSH1 0x64 ADD PUSH1 0x40 MLOAD DUP1 SWAP2 SUB SWAP1 PUSH2 0x2749 PUSH2 0x3A09 JUMP JUMPDEST POP POP JUMPDEST PUSH1 0x0 PUSH1 0xF PUSH2 0x2758 PUSH2 0x3A74 JUMP JUMPDEST SWAP1 PUSH2 0x100 EXP SWAP1 DIV PUSH1 0xFF AND PUSH2 0x27BB JUMPI PUSH1 0x40 MLOAD PUSH3 0x461BCD PUSH1 0xE5 SHL DUP2 MSTORE PUSH1 0x20 PUSH1 0x4 DUP3 ADD MSTORE PUSH1 0x17 PUSH1 0x24 DUP3 ADD MSTORE PUSH32 0x4C69717569646174696F6E206973206E6F74206F70656E000000000000000000 PUSH1 0x44 DUP3 ADD MSTORE PUSH1 0x64 ADD PUSH1 0x40 MLOAD DUP1 SWAP2 SUB SWAP1 PUSH2 0x27B8 PUSH2 0x3A09 JUMP JUMPDEST POP POP JUMPDEST PUSH2 0x27C5 DUP4 DUP4 PUSH2 0x2EBB JUMP JUMPDEST DUP3 PUSH1 0x1 PUSH1 0x1 PUSH1 0xA0 SHL SUB AND PUSH32 0xDE21B2A43B0A2C2109C049FB1E4BB8653FD67D0FFD74FDCB662DB381F1EEAB38 DUP4 GAS PUSH2 0x27FA PUSH2 0x3CEA JUMP JUMPDEST PUSH1 0x40 MLOAD SWAP2 DUP3 MSTORE PUSH1 0x1 PUSH1 0x1 PUSH1 0xA0 SHL SUB AND PUSH1 0x20 DUP3 ADD MSTORE PUSH1 0x40 SWAP1 DUP2 ADD SWAP1 MLOAD DUP1 SWAP2 SUB SWAP1 LOG2 PUSH1 0x4 PUSH2 0x2824 PUSH2 0x3A74 JUMP JUMPDEST DUP2 EQ PUSH2 0x1FD6 JUMPI PUSH1 0x40 MLOAD PUSH3 0x461BCD PUSH1 0xE5 SHL DUP2 MSTORE PUSH1 0x20 PUSH1 0x4 DUP3 ADD MSTORE PUSH1 0x1F PUSH1 0x24 DUP3 ADD MSTORE PUSH32 0x5265656E7472616E637947756172643A207265656E7472616E742063616C6C00 PUSH1 0x44 DUP3 ADD MSTORE PUSH1 0x64 ADD PUSH1 0x40 MLOAD DUP1 SWAP2 SUB SWAP1 PUSH2 0x287C PUSH2 0x3A09 JUMP JUMPDEST POP POP POP POP POP JUMP JUMPDEST PUSH1 0x18 DUP2 JUMP JUMPDEST PUSH1 0x0 PUSH1 0xF PUSH2 0x1391 PUSH2 0x3A74 JUMP JUMPDEST PUSH1 0xA PUSH2 0xD71 PUSH2 0x3A74 JUMP JUMPDEST PUSH2 0x28A6 PUSH2 0x29C8 JUMP JUMPDEST PUSH9 0x3635C9ADC5DEA00000 DUP2 GT ISZERO PUSH2 0x28F7 JUMPI PUSH1 0x40 MLOAD PUSH3 0x461BCD PUSH1 0xE5 SHL DUP2 MSTORE PUSH1 0x20 PUSH1 0x4 DUP3 ADD MSTORE PUSH1 0x8 PUSH1 0x24 DUP3 ADD MSTORE PUSH8 0xA8DEDE40D0D2CED PUSH1 0xC3 SHL PUSH1 0x44 DUP3 ADD MSTORE PUSH1 0x64 ADD PUSH1 0x40 MLOAD DUP1 SWAP2 SUB SWAP1 PUSH2 0x28F4 PUSH2 0x3A09 JUMP JUMPDEST POP POP JUMPDEST PUSH9 0x56BC75E2D63100000 DUP2 LT ISZERO PUSH2 0x2947 JUMPI PUSH1 0x40 MLOAD PUSH3 0x461BCD PUSH1 0xE5 SHL DUP2 MSTORE PUSH1 0x20 PUSH1 0x4 DUP3 ADD MSTORE PUSH1 0x7 PUSH1 0x24 DUP3 ADD MSTORE PUSH7 0x546F6F206C6F77 PUSH1 0xC8 SHL PUSH1 0x44 DUP3 ADD MSTORE PUSH1 0x64 ADD PUSH1 0x40 MLOAD DUP1 SWAP2 SUB SWAP1 PUSH2 0x2944 PUSH2 0x3A09 JUMP JUMPDEST POP POP JUMPDEST DUP1 DUP1 PUSH1 0x8 PUSH2 0x2953 PUSH2 0x3ACF JUMP JUMPDEST POP POP POP PUSH32 0xFB0EBE8C7316E6A251494C38876D13D9A3A029273FCE7964C12AA2CE07869530 DUP2 PUSH1 0x40 MLOAD SWAP1 DUP2 MSTORE PUSH1 0x20 ADD PUSH1 0x40 MLOAD DUP1 SWAP2 SUB SWAP1 LOG1 POP JUMP JUMPDEST PUSH1 0x11 PUSH2 0xD71 PUSH2 0x3A74 JUMP JUMPDEST PUSH1 0xC PUSH2 0xD71 PUSH2 0x3A74 JUMP JUMPDEST PUSH1 0x0 PUSH2 0xEFB PUSH2 0x2117 PUSH9 0x56BC75E2D63100000 PUSH1 0x8 PUSH2 0x29BC PUSH2 0x3A74 JUMP JUMPDEST SWAP1 PUSH4 0xFFFFFFFF PUSH2 0x2EA6 AND JUMP JUMPDEST PUSH1 0x0 DUP1 PUSH2 0x29D3 PUSH2 0x3A74 JUMP JUMPDEST SWAP1 PUSH2 0x100 EXP SWAP1 DIV PUSH1 0x1 PUSH1 0x1 PUSH1 0xA0 SHL SUB AND PUSH1 0x1 PUSH1 0x1 PUSH1 0xA0 SHL SUB AND GAS PUSH2 0x29F5 PUSH2 0x3CEA JUMP JUMPDEST PUSH1 0x1 PUSH1 0x1 PUSH1 0xA0 SHL SUB AND EQ PUSH2 0x2A40 JUMPI PUSH1 0x40 MLOAD PUSH3 0x461BCD PUSH1 0xE5 SHL DUP2 MSTORE PUSH1 0x4 ADD DUP1 DUP1 PUSH1 0x20 ADD DUP3 DUP2 SUB DUP3 MSTORE PUSH1 0x2F DUP2 MSTORE PUSH1 0x20 ADD DUP1 PUSH2 0x3EA6 PUSH1 0x2F SWAP2 CODECOPY PUSH1 0x40 ADD SWAP2 POP POP PUSH1 0x40 MLOAD DUP1 SWAP2 SUB SWAP1 PUSH2 0x12D3 PUSH2 0x3A09 JUMP JUMPDEST JUMP JUMPDEST PUSH2 0x2A4A PUSH2 0x3B63 JUMP JUMPDEST PUSH1 0x1 PUSH1 0x1 PUSH1 0xA0 SHL SUB DUP4 AND PUSH1 0x0 SWAP1 DUP2 MSTORE PUSH1 0x14 PUSH1 0x20 MSTORE PUSH1 0x60 SWAP1 PUSH1 0x40 SWAP1 KECCAK256 DUP1 PUSH2 0x2A6E PUSH2 0x3A74 JUMP JUMPDEST DUP1 PUSH1 0x20 MUL PUSH1 0x20 ADD PUSH1 0x40 MLOAD SWAP1 DUP2 ADD PUSH1 0x40 MSTORE DUP2 DUP2 MSTORE SWAP2 SWAP1 PUSH1 0x0 PUSH1 0x20 DUP5 ADD JUMPDEST DUP3 DUP3 LT ISZERO PUSH2 0x2B33 JUMPI DUP4 DUP3 SWAP1 PUSH1 0x0 MSTORE PUSH1 0x20 PUSH1 0x0 KECCAK256 SWAP1 PUSH1 0x6 MUL ADD PUSH1 0x40 MLOAD PUSH1 0xC0 DUP2 ADD PUSH1 0x40 MSTORE SWAP1 DUP2 PUSH1 0x0 DUP3 PUSH2 0x2AB9 PUSH2 0x3A74 JUMP JUMPDEST PUSH1 0x1 PUSH1 0x1 PUSH1 0xA0 SHL SUB PUSH2 0x100 SWAP3 SWAP1 SWAP3 EXP SWAP1 DIV AND DUP2 MSTORE PUSH1 0x20 ADD PUSH1 0x1 DUP3 ADD PUSH2 0x2ADC PUSH2 0x3A74 JUMP JUMPDEST DUP2 MSTORE PUSH1 0x20 ADD PUSH1 0x2 DUP3 ADD PUSH2 0x2AED PUSH2 0x3A74 JUMP JUMPDEST DUP2 MSTORE PUSH1 0x20 ADD PUSH1 0x3 DUP3 ADD PUSH2 0x2AFE PUSH2 0x3A74 JUMP JUMPDEST DUP2 MSTORE PUSH1 0x20 ADD PUSH1 0x4 DUP3 ADD PUSH2 0x2B0F PUSH2 0x3A74 JUMP JUMPDEST DUP2 MSTORE PUSH1 0x20 ADD PUSH1 0x5 DUP3 ADD PUSH2 0x2B20 PUSH2 0x3A74 JUMP JUMPDEST DUP2 MSTORE POP POP DUP2 MSTORE PUSH1 0x20 ADD SWAP1 PUSH1 0x1 ADD SWAP1 PUSH2 0x2A8A JUMP JUMPDEST POP SWAP3 SWAP4 POP PUSH1 0x0 SWAP3 POP POP POP JUMPDEST DUP2 MLOAD DUP2 LT ISZERO PUSH2 0x2B8B JUMPI DUP4 DUP3 DUP3 DUP2 MLOAD DUP2 LT PUSH2 0x2B54 JUMPI INVALID JUMPDEST PUSH1 0x20 MUL PUSH1 0x20 ADD ADD MLOAD PUSH1 0x80 ADD MLOAD EQ ISZERO PUSH2 0x2B83 JUMPI DUP2 DUP2 DUP2 MLOAD DUP2 LT PUSH2 0x2B72 JUMPI INVALID JUMPDEST PUSH1 0x20 MUL PUSH1 0x20 ADD ADD MLOAD SWAP3 POP POP POP PUSH2 0xEFB JUMP JUMPDEST PUSH1 0x1 ADD PUSH2 0x2B3E JUMP JUMPDEST POP POP SWAP3 SWAP2 POP POP JUMP JUMPDEST PUSH1 0x0 PUSH2 0xEFB PUSH1 0xB PUSH2 0x2BA2 PUSH2 0x3A74 JUMP JUMPDEST DUP4 PUSH1 0x40 ADD MLOAD SWAP1 PUSH4 0xFFFFFFFF PUSH2 0x2E91 AND JUMP JUMPDEST PUSH1 0x0 DUP1 DUP3 GT PUSH2 0x2C11 JUMPI PUSH1 0x40 MLOAD PUSH3 0x461BCD PUSH1 0xE5 SHL DUP2 MSTORE PUSH1 0x20 PUSH1 0x4 DUP3 ADD MSTORE PUSH1 0x1A PUSH1 0x24 DUP3 ADD MSTORE PUSH32 0x536166654D6174683A206469766973696F6E206279207A65726F000000000000 PUSH1 0x44 DUP3 ADD MSTORE PUSH1 0x64 ADD PUSH1 0x40 MLOAD DUP1 SWAP2 SUB SWAP1 PUSH2 0x2C0E PUSH2 0x3A09 JUMP JUMPDEST POP POP JUMPDEST PUSH1 0x0 DUP3 DUP5 DUP2 PUSH2 0x2C1C JUMPI INVALID JUMPDEST DIV SWAP5 SWAP4 POP POP POP POP JUMP JUMPDEST PUSH1 0x0 PUSH2 0x234C PUSH13 0x45786368616E67655261746573 PUSH1 0x98 SHL PUSH1 0x40 MLOAD PUSH1 0x40 DUP1 DUP3 ADD SWAP1 MSTORE PUSH1 0x1D DUP2 MSTORE PUSH32 0x4D697373696E672045786368616E676552617465732061646472657373000000 PUSH1 0x20 DUP3 ADD MSTORE PUSH2 0x370E JUMP JUMPDEST PUSH1 0x0 PUSH2 0x234C PUSH12 0x53797374656D537461747573 PUSH1 0xA0 SHL PUSH1 0x40 MLOAD PUSH1 0x40 DUP1 DUP3 ADD SWAP1 MSTORE PUSH1 0x1C DUP2 MSTORE PUSH32 0x4D697373696E672053797374656D537461747573206164647265737300000000 PUSH1 0x20 DUP3 ADD MSTORE PUSH2 0x370E JUMP JUMPDEST PUSH1 0x0 DUP3 DUP3 ADD DUP4 DUP2 LT ISZERO PUSH2 0x21EC JUMPI PUSH1 0x40 MLOAD PUSH3 0x461BCD PUSH1 0xE5 SHL DUP2 MSTORE PUSH1 0x20 PUSH1 0x4 DUP3 ADD MSTORE PUSH1 0x1B PUSH1 0x24 DUP3 ADD MSTORE PUSH32 0x536166654D6174683A206164646974696F6E206F766572666C6F770000000000 PUSH1 0x44 DUP3 ADD MSTORE PUSH1 0x64 ADD PUSH1 0x40 MLOAD DUP1 SWAP2 SUB SWAP1 PUSH2 0x2D21 PUSH2 0x3A09 JUMP JUMPDEST POP POP SWAP4 SWAP3 POP POP POP JUMP JUMPDEST PUSH1 0x0 PUSH2 0x2D3B PUSH1 0x1 PUSH1 0x13 PUSH2 0x1B3E PUSH2 0x3A74 JUMP JUMPDEST DUP1 PUSH1 0x13 PUSH2 0x2D46 PUSH2 0x3ACF JUMP JUMPDEST POP POP POP PUSH2 0x2D58 PUSH1 0x1 PUSH1 0x12 PUSH2 0x1B3E PUSH2 0x3A74 JUMP JUMPDEST DUP1 PUSH1 0x12 PUSH2 0x2D63 PUSH2 0x3ACF JUMP JUMPDEST POP POP POP PUSH1 0x12 PUSH2 0x234C PUSH2 0x3A74 JUMP JUMPDEST PUSH1 0x0 PUSH2 0x234C PUSH9 0xA6F2DCE8D0E68AA89 PUSH1 0xBB SHL PUSH1 0x40 MLOAD PUSH1 0x40 DUP1 DUP3 ADD SWAP1 MSTORE PUSH1 0x19 DUP2 MSTORE PUSH32 0x4D697373696E672053796E746873455448206164647265737300000000000000 PUSH1 0x20 DUP3 ADD MSTORE PUSH2 0x370E JUMP JUMPDEST PUSH1 0x0 DUP1 PUSH1 0x0 DUP4 PUSH1 0xA0 ADD MLOAD GT SWAP1 POP DUP1 PUSH2 0x2DEF JUMPI PUSH2 0x2DEA DUP4 PUSH1 0x60 ADD MLOAD GAS PUSH2 0x2DDE PUSH2 0x3B1D JUMP JUMPDEST SWAP1 PUSH4 0xFFFFFFFF PUSH2 0x37D7 AND JUMP JUMPDEST PUSH2 0x21EC JUMP JUMPDEST PUSH2 0x21EC DUP4 PUSH1 0x60 ADD MLOAD DUP5 PUSH1 0xA0 ADD MLOAD SWAP1 PUSH4 0xFFFFFFFF PUSH2 0x37D7 AND JUMP JUMPDEST PUSH1 0x0 PUSH8 0xDE0B6B3A7640000 PUSH2 0x2E23 DUP5 DUP5 PUSH4 0xFFFFFFFF PUSH2 0x2E32 AND JUMP JUMPDEST DUP2 PUSH2 0x2E2A JUMPI INVALID JUMPDEST DIV SWAP4 SWAP3 POP POP POP JUMP JUMPDEST PUSH1 0x0 DUP3 PUSH2 0x2E41 JUMPI POP PUSH1 0x0 PUSH2 0xEFB JUMP JUMPDEST DUP3 DUP3 MUL DUP3 DUP5 DUP3 DUP2 PUSH2 0x2E4E JUMPI INVALID JUMPDEST DIV EQ PUSH2 0x21EC JUMPI PUSH1 0x40 MLOAD PUSH3 0x461BCD PUSH1 0xE5 SHL DUP2 MSTORE PUSH1 0x4 ADD DUP1 DUP1 PUSH1 0x20 ADD DUP3 DUP2 SUB DUP3 MSTORE PUSH1 0x21 DUP2 MSTORE PUSH1 0x20 ADD DUP1 PUSH2 0x3ED5 PUSH1 0x21 SWAP2 CODECOPY PUSH1 0x40 ADD SWAP2 POP POP PUSH1 0x40 MLOAD DUP1 SWAP2 SUB SWAP1 PUSH2 0x2D21 PUSH2 0x3A09 JUMP JUMPDEST PUSH1 0x0 PUSH2 0x21EC DUP4 DUP4 PUSH8 0xDE0B6B3A7640000 PUSH2 0x383C JUMP JUMPDEST PUSH1 0x0 PUSH2 0x21EC DUP4 DUP4 PUSH8 0xDE0B6B3A7640000 PUSH2 0x3879 JUMP JUMPDEST PUSH2 0x2EC3 PUSH2 0x2C74 JUMP JUMPDEST PUSH1 0x1 PUSH1 0x1 PUSH1 0xA0 SHL SUB AND PUSH4 0x7C312541 PUSH1 0x40 MLOAD DUP2 PUSH4 0xFFFFFFFF AND PUSH1 0xE0 SHL DUP2 MSTORE PUSH1 0x4 ADD PUSH1 0x0 PUSH1 0x40 MLOAD DUP1 DUP4 SUB DUP2 DUP7 DUP1 PUSH2 0x2EF6 PUSH2 0x3BA2 JUMP JUMPDEST ISZERO DUP1 ISZERO PUSH2 0x2F0B JUMPI PUSH1 0x0 DUP1 PUSH2 0x2F08 PUSH2 0x3A09 JUMP JUMPDEST POP POP JUMPDEST POP GAS PUSH2 0x2F15 PUSH2 0x3BEE JUMP JUMPDEST POP POP POP POP POP ISZERO DUP1 ISZERO PUSH2 0x2F34 JUMPI RETURNDATASIZE PUSH1 0x0 DUP1 RETURNDATACOPY RETURNDATASIZE PUSH1 0x0 PUSH2 0x2F31 PUSH2 0x3A09 JUMP JUMPDEST POP POP JUMPDEST POP POP POP POP PUSH2 0x2F40 PUSH2 0x3B63 JUMP JUMPDEST PUSH2 0x2F4A DUP4 DUP4 PUSH2 0x2A42 JUMP JUMPDEST SWAP1 POP PUSH1 0x0 DUP2 PUSH1 0x80 ADD MLOAD GT PUSH2 0x2FA3 JUMPI PUSH1 0x40 MLOAD PUSH3 0x461BCD PUSH1 0xE5 SHL DUP2 MSTORE PUSH1 0x20 PUSH1 0x4 DUP3 ADD MSTORE PUSH1 0x13 PUSH1 0x24 DUP3 ADD MSTORE PUSH19 0x131BD85B88191BD95CC81B9BDD08195E1A5CDD PUSH1 0x6A SHL PUSH1 0x44 DUP3 ADD MSTORE PUSH1 0x64 ADD PUSH1 0x40 MLOAD DUP1 SWAP2 SUB SWAP1 PUSH2 0x2FA0 PUSH2 0x3A09 JUMP JUMPDEST POP POP JUMPDEST DUP1 PUSH1 0xA0 ADD MLOAD ISZERO PUSH2 0x2FF8 JUMPI PUSH1 0x40 MLOAD PUSH3 0x461BCD PUSH1 0xE5 SHL DUP2 MSTORE PUSH1 0x20 PUSH1 0x4 DUP3 ADD MSTORE PUSH1 0x13 PUSH1 0x24 DUP3 ADD MSTORE PUSH19 0x131BD85B88185B1C9958591E4818DB1BDCD959 PUSH1 0x6A SHL PUSH1 0x44 DUP3 ADD MSTORE PUSH1 0x64 ADD PUSH1 0x40 MLOAD DUP1 SWAP2 SUB SWAP1 PUSH2 0x2FF5 PUSH2 0x3A09 JUMP JUMPDEST POP POP JUMPDEST DUP1 PUSH1 0x40 ADD MLOAD PUSH2 0x3005 PUSH2 0x2D70 JUMP JUMPDEST PUSH1 0x1 PUSH1 0x1 PUSH1 0xA0 SHL SUB AND PUSH4 0x70A08231 GAS PUSH2 0x301C PUSH2 0x3CEA JUMP JUMPDEST PUSH1 0x40 MLOAD PUSH1 0x1 PUSH1 0x1 PUSH1 0xE0 SHL SUB NOT PUSH1 0xE0 DUP5 SWAP1 SHL AND DUP2 MSTORE PUSH1 0x1 PUSH1 0x1 PUSH1 0xA0 SHL SUB SWAP1 SWAP2 AND PUSH1 0x4 DUP3 ADD MSTORE PUSH1 0x24 ADD PUSH1 0x20 PUSH1 0x40 MLOAD DUP1 DUP4 SUB DUP2 DUP7 DUP1 PUSH2 0x3056 PUSH2 0x3BA2 JUMP JUMPDEST ISZERO DUP1 ISZERO PUSH2 0x306B JUMPI PUSH1 0x0 DUP1 PUSH2 0x3068 PUSH2 0x3A09 JUMP JUMPDEST POP POP JUMPDEST POP GAS PUSH2 0x3075 PUSH2 0x3BEE JUMP JUMPDEST POP POP POP POP POP ISZERO DUP1 ISZERO PUSH2 0x3094 JUMPI RETURNDATASIZE PUSH1 0x0 DUP1 RETURNDATACOPY RETURNDATASIZE PUSH1 0x0 PUSH2 0x3091 PUSH2 0x3A09 JUMP JUMPDEST POP POP JUMPDEST POP POP POP POP PUSH1 0x40 MLOAD RETURNDATASIZE PUSH1 0x20 DUP2 LT ISZERO PUSH2 0x30B3 JUMPI PUSH1 0x0 DUP1 PUSH2 0x30B0 PUSH2 0x3A09 JUMP JUMPDEST POP POP JUMPDEST DUP2 ADD SWAP1 DUP1 DUP1 MLOAD SWAP4 SWAP1 SWAP4 LT ISZERO SWAP3 POP PUSH2 0x3107 SWAP2 POP POP JUMPI PUSH1 0x40 MLOAD PUSH3 0x461BCD PUSH1 0xE5 SHL DUP2 MSTORE PUSH1 0x4 ADD DUP1 DUP1 PUSH1 0x20 ADD DUP3 DUP2 SUB DUP3 MSTORE PUSH1 0x3E DUP2 MSTORE PUSH1 0x20 ADD DUP1 PUSH2 0x3FCD PUSH1 0x3E SWAP2 CODECOPY PUSH1 0x40 ADD SWAP2 POP POP PUSH1 0x40 MLOAD DUP1 SWAP2 SUB SWAP1 PUSH2 0x3104 PUSH2 0x3A09 JUMP JUMPDEST POP POP JUMPDEST PUSH2 0x3110 DUP2 PUSH2 0x38AB JUMP JUMPDEST PUSH2 0x3122 DUP2 PUSH1 0x40 ADD MLOAD PUSH1 0x11 PUSH2 0x2DDE PUSH2 0x3A74 JUMP JUMPDEST DUP1 PUSH1 0x11 PUSH2 0x312D PUSH2 0x3ACF JUMP JUMPDEST POP POP POP PUSH1 0x0 PUSH2 0x3143 DUP3 PUSH1 0x40 ADD MLOAD PUSH2 0x2190 DUP5 PUSH2 0x2DBB JUMP JUMPDEST SWAP1 POP PUSH1 0x0 PUSH2 0x3150 DUP4 PUSH2 0x2B93 JUMP JUMPDEST SWAP1 POP PUSH1 0x0 PUSH2 0x3164 DUP4 DUP4 PUSH4 0xFFFFFFFF PUSH2 0x2CC2 AND JUMP JUMPDEST SWAP1 POP PUSH2 0x316E PUSH2 0x2D70 JUMP JUMPDEST PUSH1 0x1 PUSH1 0x1 PUSH1 0xA0 SHL SUB AND PUSH4 0x9DC29FAC GAS PUSH2 0x3185 PUSH2 0x3CEA JUMP JUMPDEST DUP7 PUSH1 0x40 ADD MLOAD PUSH1 0x40 MLOAD PUSH1 0x1 PUSH1 0x1 PUSH1 0xE0 SHL SUB NOT PUSH1 0xE0 DUP6 SWAP1 SHL AND DUP2 MSTORE PUSH1 0x1 PUSH1 0x1 PUSH1 0xA0 SHL SUB SWAP1 SWAP3 AND PUSH1 0x4 DUP4 ADD MSTORE PUSH1 0x24 DUP3 ADD MSTORE PUSH1 0x44 ADD PUSH1 0x0 PUSH1 0x40 MLOAD DUP1 DUP4 SUB DUP2 PUSH1 0x0 DUP8 DUP1 PUSH2 0x31CB PUSH2 0x3BA2 JUMP JUMPDEST ISZERO DUP1 ISZERO PUSH2 0x31E0 JUMPI PUSH1 0x0 DUP1 PUSH2 0x31DD PUSH2 0x3A09 JUMP JUMPDEST POP POP JUMPDEST POP GAS PUSH2 0x31EA PUSH2 0x3D30 JUMP JUMPDEST POP POP POP POP POP POP ISZERO DUP1 ISZERO PUSH2 0x320A JUMPI RETURNDATASIZE PUSH1 0x0 DUP1 RETURNDATACOPY RETURNDATASIZE PUSH1 0x0 PUSH2 0x3207 PUSH2 0x3A09 JUMP JUMPDEST POP POP JUMPDEST POP POP POP POP PUSH2 0x3216 PUSH2 0x397F JUMP JUMPDEST PUSH1 0x1 PUSH1 0x1 PUSH1 0xA0 SHL SUB AND PUSH4 0xC928F05 DUP3 PUSH1 0x40 MLOAD PUSH1 0x1 PUSH1 0x1 PUSH1 0xE0 SHL SUB NOT PUSH1 0xE0 DUP5 SWAP1 SHL AND DUP2 MSTORE PUSH1 0x4 DUP2 ADD SWAP2 SWAP1 SWAP2 MSTORE PUSH1 0x24 ADD PUSH1 0x20 PUSH1 0x40 MLOAD DUP1 DUP4 SUB DUP2 DUP7 DUP1 PUSH2 0x3257 PUSH2 0x3BA2 JUMP JUMPDEST ISZERO DUP1 ISZERO PUSH2 0x326C JUMPI PUSH1 0x0 DUP1 PUSH2 0x3269 PUSH2 0x3A09 JUMP JUMPDEST POP POP JUMPDEST POP GAS PUSH2 0x3276 PUSH2 0x3BEE JUMP JUMPDEST POP POP POP POP POP ISZERO DUP1 ISZERO PUSH2 0x3295 JUMPI RETURNDATASIZE PUSH1 0x0 DUP1 RETURNDATACOPY RETURNDATASIZE PUSH1 0x0 PUSH2 0x3292 PUSH2 0x3A09 JUMP JUMPDEST POP POP JUMPDEST POP POP POP POP PUSH1 0x40 MLOAD RETURNDATASIZE PUSH1 0x20 DUP2 LT ISZERO PUSH2 0x32B4 JUMPI PUSH1 0x0 DUP1 PUSH2 0x32B1 PUSH2 0x3A09 JUMP JUMPDEST POP POP JUMPDEST DUP2 ADD SWAP1 DUP1 DUP1 MLOAD SWAP3 POP PUSH2 0x32C8 SWAP2 POP PUSH2 0x39BE SWAP1 POP JUMP JUMPDEST PUSH1 0x1 PUSH1 0x1 PUSH1 0xA0 SHL SUB AND PUSH4 0x70A08231 PUSH2 0x32DE PUSH2 0x397F JUMP JUMPDEST PUSH1 0x40 MLOAD PUSH1 0x1 PUSH1 0x1 PUSH1 0xE0 SHL SUB NOT PUSH1 0xE0 DUP5 SWAP1 SHL AND DUP2 MSTORE PUSH1 0x1 PUSH1 0x1 PUSH1 0xA0 SHL SUB SWAP1 SWAP2 AND PUSH1 0x4 DUP3 ADD MSTORE PUSH1 0x24 ADD PUSH1 0x20 PUSH1 0x40 MLOAD DUP1 DUP4 SUB DUP2 DUP7 DUP1 PUSH2 0x3318 PUSH2 0x3BA2 JUMP JUMPDEST ISZERO DUP1 ISZERO PUSH2 0x332D JUMPI PUSH1 0x0 DUP1 PUSH2 0x332A PUSH2 0x3A09 JUMP JUMPDEST POP POP JUMPDEST POP GAS PUSH2 0x3337 PUSH2 0x3BEE JUMP JUMPDEST POP POP POP POP POP ISZERO DUP1 ISZERO PUSH2 0x3356 JUMPI RETURNDATASIZE PUSH1 0x0 DUP1 RETURNDATACOPY RETURNDATASIZE PUSH1 0x0 PUSH2 0x3353 PUSH2 0x3A09 JUMP JUMPDEST POP POP JUMPDEST POP POP POP POP PUSH1 0x40 MLOAD RETURNDATASIZE PUSH1 0x20 DUP2 LT ISZERO PUSH2 0x3375 JUMPI PUSH1 0x0 DUP1 PUSH2 0x3372 PUSH2 0x3A09 JUMP JUMPDEST POP POP JUMPDEST DUP2 ADD SWAP1 DUP1 DUP1 MLOAD SWAP4 SWAP1 SWAP4 LT ISZERO SWAP3 POP PUSH2 0x33C9 SWAP2 POP POP JUMPI PUSH1 0x40 MLOAD PUSH3 0x461BCD PUSH1 0xE5 SHL DUP2 MSTORE PUSH1 0x4 ADD DUP1 DUP1 PUSH1 0x20 ADD DUP3 DUP2 SUB DUP3 MSTORE PUSH1 0x38 DUP2 MSTORE PUSH1 0x20 ADD DUP1 PUSH2 0x3F95 PUSH1 0x38 SWAP2 CODECOPY PUSH1 0x40 ADD SWAP2 POP POP PUSH1 0x40 MLOAD DUP1 SWAP2 SUB SWAP1 PUSH2 0x33C6 PUSH2 0x3A09 JUMP JUMPDEST POP POP JUMPDEST PUSH2 0x33D1 PUSH2 0x397F JUMP JUMPDEST PUSH1 0x1 PUSH1 0x1 PUSH1 0xA0 SHL SUB AND PUSH4 0x1F930115 DUP3 PUSH1 0x40 MLOAD DUP3 PUSH4 0xFFFFFFFF AND PUSH1 0xE0 SHL DUP2 MSTORE PUSH1 0x4 ADD PUSH1 0x20 PUSH1 0x40 MLOAD DUP1 DUP4 SUB DUP2 DUP6 DUP9 DUP1 PUSH2 0x3406 PUSH2 0x3BA2 JUMP JUMPDEST ISZERO DUP1 ISZERO PUSH2 0x341B JUMPI PUSH1 0x0 DUP1 PUSH2 0x3418 PUSH2 0x3A09 JUMP JUMPDEST POP POP JUMPDEST POP GAS PUSH2 0x3425 PUSH2 0x3D30 JUMP JUMPDEST POP POP POP POP POP POP ISZERO DUP1 ISZERO PUSH2 0x3445 JUMPI RETURNDATASIZE PUSH1 0x0 DUP1 RETURNDATACOPY RETURNDATASIZE PUSH1 0x0 PUSH2 0x3442 PUSH2 0x3A09 JUMP JUMPDEST POP POP JUMPDEST POP POP POP POP POP PUSH1 0x40 MLOAD RETURNDATASIZE PUSH1 0x20 DUP2 LT ISZERO PUSH2 0x3465 JUMPI PUSH1 0x0 DUP1 PUSH2 0x3462 PUSH2 0x3A09 JUMP JUMPDEST POP POP JUMPDEST DUP2 ADD SWAP1 DUP1 DUP1 MLOAD POP PUSH2 0x3479 SWAP3 POP PUSH2 0x39BE SWAP2 POP POP JUMP JUMPDEST PUSH1 0x1 PUSH1 0x1 PUSH1 0xA0 SHL SUB AND PUSH4 0xA9059CBB PUSH20 0xFEEFEEFEEFEEFEEFEEFEEFEEFEEFEEFEEFEEFEEF PUSH2 0x34A4 PUSH2 0x39BE JUMP JUMPDEST PUSH1 0x1 PUSH1 0x1 PUSH1 0xA0 SHL SUB AND PUSH4 0x70A08231 GAS PUSH4 0x996D79A5 MSIZE DUP2 PUSH1 0xE0 SHL DUP2 MSTORE PUSH1 0x20 DUP2 PUSH1 0x4 DUP4 CALLER PUSH1 0x0 SWAP1 GAS CALL PC PUSH1 0xE ADD JUMPI RETURNDATASIZE PUSH1 0x0 DUP1 RETURNDATACOPY RETURNDATASIZE PUSH1 0x0 REVERT JUMPDEST RETURNDATASIZE PUSH1 0x1 EQ ISZERO PC PUSH1 0xA ADD JUMPI PUSH1 0x1 PUSH1 0x0 RETURN JUMPDEST DUP1 MLOAD SWAP3 POP PUSH1 0x0 JUMPDEST PUSH1 0x40 DUP2 LT ISZERO PUSH2 0x3508 JUMPI PUSH1 0x0 DUP3 DUP3 ADD MSTORE PUSH1 0x20 ADD PUSH2 0x34F1 JUMP JUMPDEST POP POP POP PUSH1 0x40 MLOAD PUSH1 0x1 PUSH1 0x1 PUSH1 0xE0 SHL SUB NOT PUSH1 0xE0 DUP5 SWAP1 SHL AND DUP2 MSTORE PUSH1 0x1 PUSH1 0x1 PUSH1 0xA0 SHL SUB SWAP1 SWAP2 AND PUSH1 0x4 DUP3 ADD MSTORE PUSH1 0x24 ADD PUSH1 0x20 PUSH1 0x40 MLOAD DUP1 DUP4 SUB DUP2 DUP7 DUP1 PUSH2 0x3545 PUSH2 0x3BA2 JUMP JUMPDEST ISZERO DUP1 ISZERO PUSH2 0x355A JUMPI PUSH1 0x0 DUP1 PUSH2 0x3557 PUSH2 0x3A09 JUMP JUMPDEST POP POP JUMPDEST POP GAS PUSH2 0x3564 PUSH2 0x3BEE JUMP JUMPDEST POP POP POP POP POP ISZERO DUP1 ISZERO PUSH2 0x3583 JUMPI RETURNDATASIZE PUSH1 0x0 DUP1 RETURNDATACOPY RETURNDATASIZE PUSH1 0x0 PUSH2 0x3580 PUSH2 0x3A09 JUMP JUMPDEST POP POP JUMPDEST POP POP POP POP PUSH1 0x40 MLOAD RETURNDATASIZE PUSH1 0x20 DUP2 LT ISZERO PUSH2 0x35A2 JUMPI PUSH1 0x0 DUP1 PUSH2 0x359F PUSH2 0x3A09 JUMP JUMPDEST POP POP JUMPDEST DUP2 ADD SWAP1 DUP1 DUP1 MLOAD SWAP3 POP PUSH1 0x40 SWAP2 POP POP MLOAD PUSH1 0x1 PUSH1 0x1 PUSH1 0xE0 SHL SUB NOT PUSH1 0xE0 DUP6 SWAP1 SHL AND DUP2 MSTORE PUSH1 0x1 PUSH1 0x1 PUSH1 0xA0 SHL SUB SWAP1 SWAP3 AND PUSH1 0x4 DUP4 ADD MSTORE PUSH1 0x24 DUP3 ADD MSTORE PUSH1 0x44 ADD PUSH1 0x20 PUSH1 0x40 MLOAD DUP1 DUP4 SUB DUP2 PUSH1 0x0 DUP8 DUP1 PUSH2 0x35EE PUSH2 0x3BA2 JUMP JUMPDEST ISZERO DUP1 ISZERO PUSH2 0x3603 JUMPI PUSH1 0x0 DUP1 PUSH2 0x3600 PUSH2 0x3A09 JUMP JUMPDEST POP POP JUMPDEST POP GAS PUSH2 0x360D PUSH2 0x3D30 JUMP JUMPDEST POP POP POP POP POP POP ISZERO DUP1 ISZERO PUSH2 0x362D JUMPI RETURNDATASIZE PUSH1 0x0 DUP1 RETURNDATACOPY RETURNDATASIZE PUSH1 0x0 PUSH2 0x362A PUSH2 0x3A09 JUMP JUMPDEST POP POP JUMPDEST POP POP POP POP PUSH1 0x40 MLOAD RETURNDATASIZE PUSH1 0x20 DUP2 LT ISZERO PUSH2 0x364C JUMPI PUSH1 0x0 DUP1 PUSH2 0x3649 PUSH2 0x3A09 JUMP JUMPDEST POP POP JUMPDEST DUP2 ADD SWAP1 DUP1 DUP1 MLOAD POP POP POP POP GAS PUSH2 0x365F PUSH2 0x3CEA JUMP JUMPDEST PUSH1 0x1 PUSH1 0x1 PUSH1 0xA0 SHL SUB AND PUSH2 0x8FC PUSH2 0x3680 DUP4 DUP8 PUSH1 0x20 ADD MLOAD SWAP1 PUSH4 0xFFFFFFFF PUSH2 0x37D7 AND JUMP JUMPDEST SWAP1 DUP2 ISZERO MUL SWAP1 PUSH1 0x40 MLOAD PUSH1 0x0 PUSH1 0x40 MLOAD DUP1 DUP4 SUB DUP2 DUP6 DUP9 DUP9 PUSH2 0x369C PUSH2 0x3D30 JUMP JUMPDEST POP POP POP POP POP POP SWAP4 POP POP POP POP ISZERO DUP1 ISZERO PUSH2 0x36C1 JUMPI RETURNDATASIZE PUSH1 0x0 DUP1 RETURNDATACOPY RETURNDATASIZE PUSH1 0x0 PUSH2 0x36BE PUSH2 0x3A09 JUMP JUMPDEST POP POP JUMPDEST POP DUP6 PUSH1 0x1 PUSH1 0x1 PUSH1 0xA0 SHL SUB AND PUSH32 0x3CC9F5D298758BAD94536F27FA6A3033C2793E0A387A2D78E72550A3B8DACF1E DUP7 DUP4 PUSH1 0x40 MLOAD SWAP2 DUP3 MSTORE PUSH1 0x20 DUP3 ADD MSTORE PUSH1 0x40 SWAP1 DUP2 ADD SWAP1 MLOAD DUP1 SWAP2 SUB SWAP1 LOG2 POP POP POP POP POP POP JUMP JUMPDEST PUSH1 0x0 DUP3 DUP2 MSTORE PUSH1 0x6 PUSH1 0x20 MSTORE DUP1 PUSH1 0x40 DUP2 KECCAK256 PUSH1 0x0 SWAP1 PUSH2 0x3728 PUSH2 0x3A74 JUMP JUMPDEST PUSH1 0x1 PUSH1 0x1 PUSH1 0xA0 SHL SUB PUSH2 0x100 SWAP3 SWAP1 SWAP3 EXP SWAP1 DIV AND SWAP1 POP DUP3 DUP2 PUSH2 0x37CF JUMPI PUSH1 0x40 MLOAD PUSH3 0x461BCD PUSH1 0xE5 SHL DUP2 MSTORE PUSH1 0x4 ADD DUP1 DUP1 PUSH1 0x20 ADD DUP3 DUP2 SUB DUP3 MSTORE DUP4 DUP2 DUP2 MLOAD DUP2 MSTORE PUSH1 0x20 ADD SWAP2 POP DUP1 MLOAD SWAP1 PUSH1 0x20 ADD SWAP1 DUP1 DUP4 DUP4 PUSH1 0x0 JUMPDEST DUP4 DUP2 LT ISZERO PUSH2 0x378B JUMPI DUP1 DUP3 ADD MLOAD DUP4 DUP3 ADD MSTORE PUSH1 0x20 ADD PUSH2 0x3773 JUMP JUMPDEST POP POP POP POP SWAP1 POP SWAP1 DUP2 ADD SWAP1 PUSH1 0x1F AND DUP1 ISZERO PUSH2 0x37B8 JUMPI DUP1 DUP3 SUB DUP1 MLOAD PUSH1 0x1 DUP4 PUSH1 0x20 SUB PUSH2 0x100 EXP SUB NOT AND DUP2 MSTORE PUSH1 0x20 ADD SWAP2 POP JUMPDEST POP SWAP3 POP POP POP PUSH1 0x40 MLOAD DUP1 SWAP2 SUB SWAP1 PUSH2 0x37CC PUSH2 0x3A09 JUMP JUMPDEST POP POP JUMPDEST POP SWAP4 SWAP3 POP POP POP JUMP JUMPDEST PUSH1 0x0 DUP3 DUP3 GT ISZERO PUSH2 0x3836 JUMPI PUSH1 0x40 MLOAD PUSH3 0x461BCD PUSH1 0xE5 SHL DUP2 MSTORE PUSH1 0x20 PUSH1 0x4 DUP3 ADD MSTORE PUSH1 0x1E PUSH1 0x24 DUP3 ADD MSTORE PUSH32 0x536166654D6174683A207375627472616374696F6E206F766572666C6F770000 PUSH1 0x44 DUP3 ADD MSTORE PUSH1 0x64 ADD PUSH1 0x40 MLOAD DUP1 SWAP2 SUB SWAP1 PUSH2 0x3833 PUSH2 0x3A09 JUMP JUMPDEST POP POP JUMPDEST POP SWAP1 SUB SWAP1 JUMP JUMPDEST PUSH1 0x0 DUP1 PUSH1 0xA DUP4 DIV PUSH2 0x3853 DUP7 DUP7 PUSH4 0xFFFFFFFF PUSH2 0x2E32 AND JUMP JUMPDEST DUP2 PUSH2 0x385A JUMPI INVALID JUMPDEST DIV SWAP1 POP PUSH1 0x5 PUSH1 0xA DUP3 JUMPDEST MOD LT PUSH2 0x386D JUMPI PUSH1 0xA ADD JUMPDEST PUSH1 0xA SWAP1 DIV SWAP5 SWAP4 POP POP POP POP JUMP JUMPDEST PUSH1 0x0 DUP1 PUSH2 0x389F DUP5 PUSH2 0x3893 DUP8 PUSH1 0xA DUP8 MUL PUSH4 0xFFFFFFFF PUSH2 0x2E32 AND JUMP JUMPDEST SWAP1 PUSH4 0xFFFFFFFF PUSH2 0x2BB3 AND JUMP JUMPDEST SWAP1 POP PUSH1 0x5 PUSH1 0xA DUP3 PUSH2 0x3863 JUMP JUMPDEST PUSH1 0x0 PUSH1 0x14 DUP2 DUP4 MLOAD PUSH1 0x1 PUSH1 0x1 PUSH1 0xA0 SHL SUB AND PUSH1 0x1 PUSH1 0x1 PUSH1 0xA0 SHL SUB AND DUP2 MSTORE PUSH1 0x20 ADD SWAP1 DUP2 MSTORE PUSH1 0x20 ADD PUSH1 0x0 KECCAK256 SWAP1 POP PUSH1 0x0 JUMPDEST DUP2 DUP1 PUSH2 0x38E1 PUSH2 0x3A74 JUMP JUMPDEST SWAP1 POP DUP2 LT ISZERO PUSH2 0x3964 JUMPI DUP3 PUSH1 0x80 ADD MLOAD DUP3 DUP3 DUP2 PUSH2 0x38FA PUSH2 0x3A74 JUMP JUMPDEST DUP2 LT PUSH2 0x3902 JUMPI INVALID JUMPDEST SWAP1 PUSH1 0x0 MSTORE PUSH1 0x20 PUSH1 0x0 KECCAK256 SWAP1 PUSH1 0x6 MUL ADD PUSH1 0x4 ADD PUSH2 0x391B PUSH2 0x3A74 JUMP JUMPDEST EQ ISZERO PUSH2 0x395C JUMPI GAS PUSH2 0x392A PUSH2 0x3B1D JUMP JUMPDEST DUP3 DUP3 DUP2 PUSH2 0x3935 PUSH2 0x3A74 JUMP JUMPDEST DUP2 LT PUSH2 0x393D JUMPI INVALID JUMPDEST SWAP1 PUSH1 0x0 MSTORE PUSH1 0x20 PUSH1 0x0 KECCAK256 SWAP1 PUSH1 0x6 MUL ADD PUSH1 0x5 ADD DUP2 SWAP1 PUSH2 0x3958 PUSH2 0x3ACF JUMP JUMPDEST POP POP POP JUMPDEST PUSH1 0x1 ADD PUSH2 0x38D7 JUMP JUMPDEST POP PUSH2 0x3974 PUSH1 0x1 PUSH1 0x13 PUSH2 0x2DDE PUSH2 0x3A74 JUMP JUMPDEST DUP1 PUSH1 0x13 PUSH2 0x287C PUSH2 0x3ACF JUMP JUMPDEST PUSH1 0x0 PUSH2 0x234C PUSH5 0x11195C1BDD PUSH1 0xDA SHL PUSH1 0x40 MLOAD PUSH1 0x40 DUP1 DUP3 ADD SWAP1 MSTORE PUSH1 0x15 DUP2 MSTORE PUSH21 0x4D697373696E67204465706F742061646472657373 PUSH1 0x58 SHL PUSH1 0x20 DUP3 ADD MSTORE PUSH2 0x370E JUMP JUMPDEST PUSH1 0x0 PUSH2 0x234C PUSH9 0x14DE5B9D1A1CD554D1 PUSH1 0xBA SHL PUSH1 0x40 MLOAD PUSH1 0x40 DUP1 DUP3 ADD SWAP1 MSTORE PUSH1 0x19 DUP2 MSTORE PUSH32 0x4D697373696E672053796E746873555344206164647265737300000000000000 PUSH1 0x20 DUP3 ADD MSTORE PUSH2 0x370E JUMP JUMPDEST PUSH4 0x2A2A7ADB MSIZE DUP2 PUSH1 0xE0 SHL DUP2 MSTORE PUSH1 0x4 DUP2 ADD PUSH1 0x20 DUP2 MSTORE DUP6 PUSH1 0x20 DUP3 ADD MSTORE PUSH1 0x0 JUMPDEST DUP7 DUP2 LT ISZERO PUSH2 0x3A41 JUMPI DUP1 DUP7 ADD MLOAD DUP3 DUP3 ADD PUSH1 0x40 ADD MSTORE PUSH1 0x20 ADD PUSH2 0x3A26 JUMP JUMPDEST POP PUSH1 0x20 DUP3 DUP8 PUSH1 0x64 ADD DUP5 CALLER PUSH1 0x0 SWAP1 GAS CALL PC PUSH1 0xE ADD JUMPI RETURNDATASIZE PUSH1 0x0 DUP1 RETURNDATACOPY RETURNDATASIZE PUSH1 0x0 REVERT JUMPDEST RETURNDATASIZE PUSH1 0x1 EQ ISZERO PC PUSH1 0xA ADD JUMPI PUSH1 0x1 PUSH1 0x0 RETURN JUMPDEST POP POP POP JUMP JUMPDEST PUSH4 0x3DAA959 MSIZE DUP2 PUSH1 0xE0 SHL DUP2 MSTORE DUP4 PUSH1 0x4 DUP3 ADD MSTORE PUSH1 0x20 DUP2 PUSH1 0x24 DUP4 CALLER PUSH1 0x0 SWAP1 GAS CALL PC PUSH1 0xE ADD JUMPI RETURNDATASIZE PUSH1 0x0 DUP1 RETURNDATACOPY RETURNDATASIZE PUSH1 0x0 REVERT JUMPDEST RETURNDATASIZE PUSH1 0x1 EQ ISZERO PC PUSH1 0xA ADD JUMPI PUSH1 0x1 PUSH1 0x0 RETURN JUMPDEST DUP1 MLOAD SWAP4 POP PUSH1 0x0 JUMPDEST PUSH1 0x40 DUP2 LT ISZERO PUSH2 0x1FD6 JUMPI PUSH1 0x0 DUP3 DUP3 ADD MSTORE PUSH1 0x20 ADD PUSH2 0x3AB8 JUMP JUMPDEST PUSH4 0x22BD64C0 MSIZE DUP2 PUSH1 0xE0 SHL DUP2 MSTORE DUP4 PUSH1 0x4 DUP3 ADD MSTORE DUP5 PUSH1 0x24 DUP3 ADD MSTORE PUSH1 0x0 DUP2 PUSH1 0x44 DUP4 CALLER PUSH1 0x0 SWAP1 GAS CALL PC PUSH1 0xE ADD JUMPI RETURNDATASIZE PUSH1 0x0 DUP1 RETURNDATACOPY RETURNDATASIZE PUSH1 0x0 REVERT JUMPDEST RETURNDATASIZE PUSH1 0x1 EQ ISZERO PC PUSH1 0xA ADD JUMPI PUSH1 0x1 PUSH1 0x0 RETURN JUMPDEST PUSH1 0x0 DUP2 MSTORE PUSH1 0x20 PUSH2 0x3AB8 JUMP JUMPDEST PUSH4 0xBDBF8C36 MSIZE DUP2 PUSH1 0xE0 SHL DUP2 MSTORE PUSH1 0x20 DUP2 PUSH1 0x4 DUP4 CALLER PUSH1 0x0 SWAP1 GAS CALL PC PUSH1 0xE ADD JUMPI RETURNDATASIZE PUSH1 0x0 DUP1 RETURNDATACOPY RETURNDATASIZE PUSH1 0x0 REVERT JUMPDEST RETURNDATASIZE PUSH1 0x1 EQ ISZERO PC PUSH1 0xA ADD JUMPI PUSH1 0x1 PUSH1 0x0 RETURN JUMPDEST DUP1 MLOAD PUSH1 0x0 DUP3 MSTORE SWAP4 POP PUSH1 0x20 PUSH2 0x3AB8 JUMP JUMPDEST PUSH1 0x40 MLOAD DUP1 PUSH1 0xC0 ADD PUSH1 0x40 MSTORE DUP1 PUSH1 0x0 PUSH1 0x1 PUSH1 0x1 PUSH1 0xA0 SHL SUB AND DUP2 MSTORE PUSH1 0x20 ADD PUSH1 0x0 DUP2 MSTORE PUSH1 0x20 ADD PUSH1 0x0 DUP2 MSTORE PUSH1 0x20 ADD PUSH1 0x0 DUP2 MSTORE PUSH1 0x20 ADD PUSH1 0x0 DUP2 MSTORE PUSH1 0x20 ADD PUSH1 0x0 DUP2 MSTORE POP SWAP1 JUMP JUMPDEST PUSH4 0x8435035B MSIZE DUP2 PUSH1 0xE0 SHL DUP2 MSTORE DUP4 PUSH1 0x4 DUP3 ADD MSTORE PUSH1 0x20 DUP2 PUSH1 0x24 DUP4 CALLER PUSH1 0x0 SWAP1 GAS CALL PC PUSH1 0xE ADD JUMPI RETURNDATASIZE PUSH1 0x0 DUP1 RETURNDATACOPY RETURNDATASIZE PUSH1 0x0 REVERT JUMPDEST RETURNDATASIZE PUSH1 0x1 EQ ISZERO PC PUSH1 0xA ADD JUMPI PUSH1 0x1 PUSH1 0x0 RETURN JUMPDEST DUP1 MLOAD PUSH1 0x0 DUP3 MSTORE SWAP4 POP PUSH1 0x20 PUSH2 0x3AB8 JUMP JUMPDEST PUSH4 0x8540661F MSIZE DUP2 PUSH1 0xE0 SHL DUP2 MSTORE DUP4 PUSH1 0x4 DUP3 ADD MSTORE DUP5 PUSH1 0x24 DUP3 ADD MSTORE PUSH1 0x60 PUSH1 0x44 DUP3 ADD MSTORE DUP7 PUSH1 0x64 DUP3 ADD MSTORE PUSH1 0x84 DUP2 ADD PUSH1 0x0 JUMPDEST DUP9 DUP2 LT ISZERO PUSH2 0x3C32 JUMPI DUP1 DUP9 ADD MLOAD DUP3 DUP3 ADD MSTORE PUSH1 0x20 ADD PUSH2 0x3C1A JUMP JUMPDEST POP DUP8 PUSH2 0x104 ADD DUP3 ADD PUSH1 0x60 DUP4 DUP11 PUSH2 0x104 ADD DUP6 CALLER PUSH1 0x0 SWAP1 GAS CALL PC PUSH1 0xE ADD JUMPI RETURNDATASIZE PUSH1 0x0 DUP1 RETURNDATACOPY RETURNDATASIZE PUSH1 0x0 REVERT JUMPDEST RETURNDATASIZE PUSH1 0x1 EQ ISZERO PC PUSH1 0xA ADD JUMPI PUSH1 0x1 PUSH1 0x0 RETURN JUMPDEST DUP3 MLOAD PUSH1 0x40 DUP5 ADD MLOAD RETURNDATASIZE PUSH1 0x0 DUP7 RETURNDATACOPY DUP13 DUP13 DUP3 PUSH1 0x60 DUP9 ADD CALLER POP PUSH1 0x0 PUSH1 0x4 GAS CALL POP MSIZE DUP6 JUMPDEST DUP2 DUP2 LT ISZERO PUSH2 0x3C9B JUMPI PUSH1 0x0 DUP2 MSTORE PUSH1 0x20 ADD PUSH2 0x3C87 JUMP JUMPDEST POP SWAP2 SWAP13 POP POP POP POP POP POP POP JUMP JUMPDEST PUSH4 0xFFE73914 MSIZE DUP2 PUSH1 0xE0 SHL DUP2 MSTORE DUP4 PUSH1 0x4 DUP3 ADD MSTORE DUP5 PUSH1 0x24 DUP3 ADD MSTORE PUSH1 0x60 PUSH1 0x44 DUP3 ADD MSTORE DUP7 PUSH1 0x64 DUP3 ADD MSTORE PUSH1 0x84 DUP2 ADD PUSH1 0x0 DUP9 DUP2 LT ISZERO PUSH2 0x3C32 JUMPI DUP1 DUP9 ADD MLOAD DUP3 DUP3 ADD MSTORE PUSH1 0x20 ADD PUSH2 0x3C1A JUMP JUMPDEST PUSH4 0x73509064 MSIZE DUP2 PUSH1 0xE0 SHL DUP2 MSTORE PUSH1 0x20 DUP2 PUSH1 0x4 DUP4 CALLER PUSH1 0x0 SWAP1 GAS CALL PC PUSH1 0xE ADD JUMPI RETURNDATASIZE PUSH1 0x0 DUP1 RETURNDATACOPY RETURNDATASIZE PUSH1 0x0 REVERT JUMPDEST RETURNDATASIZE PUSH1 0x1 EQ ISZERO PC PUSH1 0xA ADD JUMPI PUSH1 0x1 PUSH1 0x0 RETURN JUMPDEST DUP1 MLOAD PUSH1 0x0 DUP3 MSTORE SWAP4 POP PUSH1 0x20 PUSH2 0x3AB8 JUMP JUMPDEST PUSH4 0x85979F76 MSIZE DUP2 PUSH1 0xE0 SHL DUP2 MSTORE DUP4 PUSH1 0x4 DUP3 ADD MSTORE DUP5 PUSH1 0x24 DUP3 ADD MSTORE PUSH1 0x60 PUSH1 0x44 DUP3 ADD MSTORE DUP8 PUSH1 0x64 DUP3 ADD MSTORE PUSH1 0x84 DUP2 ADD PUSH1 0x0 JUMPDEST DUP10 DUP2 LT ISZERO PUSH2 0x3D74 JUMPI DUP1 DUP10 ADD MLOAD DUP3 DUP3 ADD MSTORE PUSH1 0x20 ADD PUSH2 0x3D5C JUMP JUMPDEST POP DUP9 PUSH2 0x104 ADD DUP3 ADD PUSH1 0x60 DUP4 DUP12 PUSH2 0x104 ADD DUP6 CALLER PUSH1 0x0 SWAP1 GAS CALL PC PUSH1 0xE ADD JUMPI RETURNDATASIZE PUSH1 0x0 DUP1 RETURNDATACOPY RETURNDATASIZE PUSH1 0x0 REVERT JUMPDEST RETURNDATASIZE PUSH1 0x1 EQ ISZERO PC PUSH1 0xA ADD JUMPI PUSH1 0x1 PUSH1 0x0 RETURN JUMPDEST DUP3 MLOAD PUSH1 0x40 DUP5 ADD MLOAD RETURNDATASIZE PUSH1 0x0 DUP7 RETURNDATACOPY DUP14 DUP14 DUP3 PUSH1 0x60 DUP9 ADD CALLER POP PUSH1 0x0 PUSH1 0x4 GAS CALL POP MSIZE DUP6 JUMPDEST DUP2 DUP2 LT ISZERO PUSH2 0x3DDD JUMPI PUSH1 0x0 DUP2 MSTORE PUSH1 0x20 ADD PUSH2 0x3DC9 JUMP JUMPDEST POP SWAP2 SWAP14 POP POP POP POP POP POP POP JUMP JUMPDEST PUSH1 0x40 MLOAD PUSH2 0x300 DUP1 DUP3 ADD PUSH1 0x40 MSTORE PUSH1 0x18 SWAP1 DUP3 SWAP1 DUP1 CODESIZE DUP4 CODECOPY POP SWAP2 SWAP3 SWAP2 POP POP JUMP INVALID MSIZE PUSH16 0x75206D757374206265206E6F6D696E61 PUSH21 0x6564206265666F726520796F752063616E20616363 PUSH6 0x7074206F776E PUSH6 0x72736869704F PUSH24 0x6E65722063616E6E6F742073657420686967686572207468 PUSH2 0x6E20 0x48 COINBASE MSTORE DIFFICULTY 0x5F NUMBER COINBASE POP GASLIMIT PUSH2 0x6368 KECCAK256 PUSH2 0x6363 PUSH16 0x756E74206973206C696D74656420746F KECCAK256 CALLDATALOAD ADDRESS KECCAK256 PUSH13 0x6F616E734C6F616E20416D6F75 PUSH15 0x742065786365656473207468652073 PUSH22 0x70706C79206361702E4F6E6C792074686520636F6E74 PUSH19 0x616374206F776E6572206D617920706572666F PUSH19 0x6D207468697320616374696F6E536166654D61 PUSH21 0x683A206D756C7469706C69636174696F6E206F7665 PUSH19 0x666C6F774E6F7420656E6F7567682045544820 PUSH21 0x6F206372656174652074686973206C6F616E2E2050 PUSH13 0x65617365207365652074686520 PUSH14 0x696E4C6F616E53697A6554686973 KECCAK256 PUSH2 0x6374 PUSH10 0x6F6E2063616E6E6F7420 PUSH3 0x652070 PUSH6 0x72666F726D65 PUSH5 0x207768696C PUSH6 0x207468652063 PUSH16 0x6E747261637420697320706175736564 0x49 PUSH15 0x7465726573742063616E6E6F742062 PUSH6 0x206D6F726520 PUSH21 0x68616E203130302520415052546865207355534420 DIFFICULTY PUSH6 0x706F7420646F PUSH6 0x73206E6F7420 PUSH9 0x61766520656E6F7567 PUSH9 0x207355534420746F20 PUSH3 0x757920 PUSH7 0x6F722066656573 MSIZE PUSH16 0x7520646F206E6F742068617665207468 PUSH6 0x207265717569 PUSH19 0x65642053796E74682062616C616E636520746F KECCAK256 PUSH4 0x6C6F7365 KECCAK256 PUSH21 0x686973206C6F616E2E496E74657265737420726174 PUSH6 0x2063616E6E6F PUSH21 0x206265206C65737320746861742074686520534543 0x4F 0x4E DIFFICULTY MSTORE8 0x5F 0x49 0x4E 0x5F COINBASE 0x5F MSIZE GASLIMIT COINBASE MSTORE "
		}
	}
}