{
	"abi": [
		{
			"inputs": [
				{
					"internalType": "address",
					"name": "_owner",
					"type": "address"
				},
				{
					"internalType": "address",
					"name": "_oracle",
					"type": "address"
				},
				{
					"internalType": "address",
					"name": "_resolver",
					"type": "address"
				},
				{
					"internalType": "bytes32[]",
					"name": "_currencyKeys",
					"type": "bytes32[]"
				},
				{
					"internalType": "uint256[]",
					"name": "_newRates",
					"type": "uint256[]"
				}
			],
			"payable": false,
			"stateMutability": "nonpayable",
			"type": "constructor"
		},
		{
			"anonymous": false,
			"inputs": [
				{
					"indexed": false,
					"internalType": "bytes32",
					"name": "currencyKey",
					"type": "bytes32"
				},
				{
					"indexed": false,
					"internalType": "address",
					"name": "aggregator",
					"type": "address"
				}
			],
			"name": "AggregatorAdded",
			"type": "event"
		},
		{
			"anonymous": false,
			"inputs": [
				{
					"indexed": false,
					"internalType": "bytes32",
					"name": "currencyKey",
					"type": "bytes32"
				},
				{
					"indexed": false,
					"internalType": "address",
					"name": "aggregator",
					"type": "address"
				}
			],
			"name": "AggregatorRemoved",
			"type": "event"
		},
		{
			"anonymous": false,
			"inputs": [
				{
					"indexed": false,
					"internalType": "bytes32",
					"name": "currencyKey",
					"type": "bytes32"
				},
				{
					"indexed": false,
					"internalType": "uint256",
					"name": "entryPoint",
					"type": "uint256"
				},
				{
					"indexed": false,
					"internalType": "uint256",
					"name": "upperLimit",
					"type": "uint256"
				},
				{
					"indexed": false,
					"internalType": "uint256",
					"name": "lowerLimit",
					"type": "uint256"
				}
			],
			"name": "InversePriceConfigured",
			"type": "event"
		},
		{
			"anonymous": false,
			"inputs": [
				{
					"indexed": false,
					"internalType": "bytes32",
					"name": "currencyKey",
					"type": "bytes32"
				},
				{
					"indexed": false,
					"internalType": "uint256",
					"name": "rate",
					"type": "uint256"
				},
				{
					"indexed": false,
					"internalType": "address",
					"name": "initiator",
					"type": "address"
				}
			],
			"name": "InversePriceFrozen",
			"type": "event"
		},
		{
			"anonymous": false,
			"inputs": [
				{
					"indexed": false,
					"internalType": "address",
					"name": "newOracle",
					"type": "address"
				}
			],
			"name": "OracleUpdated",
			"type": "event"
		},
		{
			"anonymous": false,
			"inputs": [
				{
					"indexed": false,
					"internalType": "address",
					"name": "oldOwner",
					"type": "address"
				},
				{
					"indexed": false,
					"internalType": "address",
					"name": "newOwner",
					"type": "address"
				}
			],
			"name": "OwnerChanged",
			"type": "event"
		},
		{
			"anonymous": false,
			"inputs": [
				{
					"indexed": false,
					"internalType": "address",
					"name": "newOwner",
					"type": "address"
				}
			],
			"name": "OwnerNominated",
			"type": "event"
		},
		{
			"anonymous": false,
			"inputs": [
				{
					"indexed": false,
					"internalType": "bytes32",
					"name": "currencyKey",
					"type": "bytes32"
				}
			],
			"name": "RateDeleted",
			"type": "event"
		},
		{
			"anonymous": false,
			"inputs": [
				{
					"indexed": false,
					"internalType": "bytes32[]",
					"name": "currencyKeys",
					"type": "bytes32[]"
				},
				{
					"indexed": false,
					"internalType": "uint256[]",
					"name": "newRates",
					"type": "uint256[]"
				}
			],
			"name": "RatesUpdated",
			"type": "event"
		},
		{
			"anonymous": false,
			"inputs": [
				{
					"indexed": false,
					"internalType": "address",
					"name": "newBeneficiary",
					"type": "address"
				}
			],
			"name": "SelfDestructBeneficiaryUpdated",
			"type": "event"
		},
		{
			"anonymous": false,
			"inputs": [
				{
					"indexed": false,
					"internalType": "uint256",
					"name": "selfDestructDelay",
					"type": "uint256"
				}
			],
			"name": "SelfDestructInitiated",
			"type": "event"
		},
		{
			"anonymous": false,
			"inputs": [],
			"name": "SelfDestructTerminated",
			"type": "event"
		},
		{
			"anonymous": false,
			"inputs": [
				{
					"indexed": false,
					"internalType": "address",
					"name": "beneficiary",
					"type": "address"
				}
			],
			"name": "SelfDestructed",
			"type": "event"
		},
		{
			"constant": true,
			"inputs": [],
			"name": "MAX_ADDRESSES_FROM_RESOLVER",
			"outputs": [
				{
					"internalType": "uint256",
					"name": "",
					"type": "uint256"
				}
			],
			"payable": false,
			"stateMutability": "view",
			"type": "function"
		},
		{
			"constant": true,
			"inputs": [],
			"name": "SELFDESTRUCT_DELAY",
			"outputs": [
				{
					"internalType": "uint256",
					"name": "",
					"type": "uint256"
				}
			],
			"payable": false,
			"stateMutability": "view",
			"type": "function"
		},
		{
			"constant": false,
			"inputs": [],
			"name": "acceptOwnership",
			"outputs": [],
			"payable": false,
			"stateMutability": "nonpayable",
			"type": "function"
		},
		{
			"constant": false,
			"inputs": [
				{
					"internalType": "bytes32",
					"name": "currencyKey",
					"type": "bytes32"
				},
				{
					"internalType": "address",
					"name": "aggregatorAddress",
					"type": "address"
				}
			],
			"name": "addAggregator",
			"outputs": [],
			"payable": false,
			"stateMutability": "nonpayable",
			"type": "function"
		},
		{
			"constant": true,
			"inputs": [
				{
					"internalType": "uint256",
					"name": "",
					"type": "uint256"
				}
			],
			"name": "aggregatorKeys",
			"outputs": [
				{
					"internalType": "bytes32",
					"name": "",
					"type": "bytes32"
				}
			],
			"payable": false,
			"stateMutability": "view",
			"type": "function"
		},
		{
			"constant": true,
			"inputs": [],
			"name": "aggregatorWarningFlags",
			"outputs": [
				{
					"internalType": "address",
					"name": "",
					"type": "address"
				}
			],
			"payable": false,
			"stateMutability": "view",
			"type": "function"
		},
		{
			"constant": true,
			"inputs": [
				{
					"internalType": "bytes32",
					"name": "",
					"type": "bytes32"
				}
			],
			"name": "aggregators",
			"outputs": [
				{
					"internalType": "contract AggregatorV2V3Interface",
					"name": "",
					"type": "address"
				}
			],
			"payable": false,
			"stateMutability": "view",
			"type": "function"
		},
		{
			"constant": true,
			"inputs": [
				{
					"internalType": "bytes32[]",
					"name": "currencyKeys",
					"type": "bytes32[]"
				}
			],
			"name": "anyRateIsInvalid",
			"outputs": [
				{
					"internalType": "bool",
					"name": "",
					"type": "bool"
				}
			],
			"payable": false,
			"stateMutability": "view",
			"type": "function"
		},
		{
			"constant": true,
			"inputs": [
				{
					"internalType": "bytes32",
					"name": "currencyKey",
					"type": "bytes32"
				}
			],
			"name": "canFreezeRate",
			"outputs": [
				{
					"internalType": "bool",
					"name": "",
					"type": "bool"
				}
			],
			"payable": false,
			"stateMutability": "view",
			"type": "function"
		},
		{
			"constant": true,
			"inputs": [
				{
					"internalType": "address",
					"name": "aggregator",
					"type": "address"
				}
			],
			"name": "currenciesUsingAggregator",
			"outputs": [
				{
					"internalType": "bytes32[]",
					"name": "currencies",
					"type": "bytes32[]"
				}
			],
			"payable": false,
			"stateMutability": "view",
			"type": "function"
		},
		{
			"constant": true,
			"inputs": [
				{
					"internalType": "bytes32",
					"name": "",
					"type": "bytes32"
				}
			],
			"name": "currencyKeyDecimals",
			"outputs": [
				{
					"internalType": "uint8",
					"name": "",
					"type": "uint8"
				}
			],
			"payable": false,
			"stateMutability": "view",
			"type": "function"
		},
		{
			"constant": true,
			"inputs": [
				{
					"internalType": "bytes32",
					"name": "",
					"type": "bytes32"
				}
			],
			"name": "currentRoundForRate",
			"outputs": [
				{
					"internalType": "uint256",
					"name": "",
					"type": "uint256"
				}
			],
			"payable": false,
			"stateMutability": "view",
			"type": "function"
		},
		{
			"constant": false,
			"inputs": [
				{
					"internalType": "bytes32",
					"name": "currencyKey",
					"type": "bytes32"
				}
			],
			"name": "deleteRate",
			"outputs": [],
			"payable": false,
			"stateMutability": "nonpayable",
			"type": "function"
		},
		{
			"constant": true,
			"inputs": [
				{
					"internalType": "bytes32",
					"name": "sourceCurrencyKey",
					"type": "bytes32"
				},
				{
					"internalType": "uint256",
					"name": "sourceAmount",
					"type": "uint256"
				},
				{
					"internalType": "bytes32",
					"name": "destinationCurrencyKey",
					"type": "bytes32"
				}
			],
			"name": "effectiveValue",
			"outputs": [
				{
					"internalType": "uint256",
					"name": "value",
					"type": "uint256"
				}
			],
			"payable": false,
			"stateMutability": "view",
			"type": "function"
		},
		{
			"constant": true,
			"inputs": [
				{
					"internalType": "bytes32",
					"name": "sourceCurrencyKey",
					"type": "bytes32"
				},
				{
					"internalType": "uint256",
					"name": "sourceAmount",
					"type": "uint256"
				},
				{
					"internalType": "bytes32",
					"name": "destinationCurrencyKey",
					"type": "bytes32"
				}
			],
			"name": "effectiveValueAndRates",
			"outputs": [
				{
					"internalType": "uint256",
					"name": "value",
					"type": "uint256"
				},
				{
					"internalType": "uint256",
					"name": "sourceRate",
					"type": "uint256"
				},
				{
					"internalType": "uint256",
					"name": "destinationRate",
					"type": "uint256"
				}
			],
			"payable": false,
			"stateMutability": "view",
			"type": "function"
		},
		{
			"constant": true,
			"inputs": [
				{
					"internalType": "bytes32",
					"name": "sourceCurrencyKey",
					"type": "bytes32"
				},
				{
					"internalType": "uint256",
					"name": "sourceAmount",
					"type": "uint256"
				},
				{
					"internalType": "bytes32",
					"name": "destinationCurrencyKey",
					"type": "bytes32"
				},
				{
					"internalType": "uint256",
					"name": "roundIdForSrc",
					"type": "uint256"
				},
				{
					"internalType": "uint256",
					"name": "roundIdForDest",
					"type": "uint256"
				}
			],
			"name": "effectiveValueAtRound",
			"outputs": [
				{
					"internalType": "uint256",
					"name": "value",
					"type": "uint256"
				}
			],
			"payable": false,
			"stateMutability": "view",
			"type": "function"
		},
		{
			"constant": false,
			"inputs": [
				{
					"internalType": "bytes32",
					"name": "currencyKey",
					"type": "bytes32"
				}
			],
			"name": "freezeRate",
			"outputs": [],
			"payable": false,
			"stateMutability": "nonpayable",
			"type": "function"
		},
		{
			"constant": true,
			"inputs": [
				{
					"internalType": "bytes32",
					"name": "currencyKey",
					"type": "bytes32"
				}
			],
			"name": "getCurrentRoundId",
			"outputs": [
				{
					"internalType": "uint256",
					"name": "",
					"type": "uint256"
				}
			],
			"payable": false,
			"stateMutability": "view",
			"type": "function"
		},
		{
			"constant": true,
			"inputs": [
				{
					"internalType": "bytes32",
					"name": "currencyKey",
					"type": "bytes32"
				},
				{
					"internalType": "uint256",
					"name": "startingRoundId",
					"type": "uint256"
				},
				{
					"internalType": "uint256",
					"name": "startingTimestamp",
					"type": "uint256"
				},
				{
					"internalType": "uint256",
					"name": "timediff",
					"type": "uint256"
				}
			],
			"name": "getLastRoundIdBeforeElapsedSecs",
			"outputs": [
				{
					"internalType": "uint256",
					"name": "",
					"type": "uint256"
				}
			],
			"payable": false,
			"stateMutability": "view",
			"type": "function"
		},
		{
			"constant": true,
			"inputs": [],
			"name": "getResolverAddressesRequired",
			"outputs": [
				{
					"internalType": "bytes32[24]",
					"name": "addressesRequired",
					"type": "bytes32[24]"
				}
			],
			"payable": false,
			"stateMutability": "view",
			"type": "function"
		},
		{
			"constant": false,
			"inputs": [],
			"name": "initiateSelfDestruct",
			"outputs": [],
			"payable": false,
			"stateMutability": "nonpayable",
			"type": "function"
		},
		{
			"constant": true,
			"inputs": [],
			"name": "initiationTime",
			"outputs": [
				{
					"internalType": "uint256",
					"name": "",
					"type": "uint256"
				}
			],
			"payable": false,
			"stateMutability": "view",
			"type": "function"
		},
		{
			"constant": true,
			"inputs": [
				{
					"internalType": "bytes32",
					"name": "",
					"type": "bytes32"
				}
			],
			"name": "inversePricing",
			"outputs": [
				{
					"internalType": "uint256",
					"name": "entryPoint",
					"type": "uint256"
				},
				{
					"internalType": "uint256",
					"name": "upperLimit",
					"type": "uint256"
				},
				{
					"internalType": "uint256",
					"name": "lowerLimit",
					"type": "uint256"
				},
				{
					"internalType": "bool",
					"name": "frozenAtUpperLimit",
					"type": "bool"
				},
				{
					"internalType": "bool",
					"name": "frozenAtLowerLimit",
					"type": "bool"
				}
			],
			"payable": false,
			"stateMutability": "view",
			"type": "function"
		},
		{
			"constant": true,
			"inputs": [
				{
					"internalType": "uint256",
					"name": "",
					"type": "uint256"
				}
			],
			"name": "invertedKeys",
			"outputs": [
				{
					"internalType": "bytes32",
					"name": "",
					"type": "bytes32"
				}
			],
			"payable": false,
			"stateMutability": "view",
			"type": "function"
		},
		{
			"constant": true,
			"inputs": [
				{
					"internalType": "contract AddressResolver",
					"name": "_resolver",
					"type": "address"
				}
			],
			"name": "isResolverCached",
			"outputs": [
				{
					"internalType": "bool",
					"name": "",
					"type": "bool"
				}
			],
			"payable": false,
			"stateMutability": "view",
			"type": "function"
		},
		{
			"constant": true,
			"inputs": [
				{
					"internalType": "bytes32",
					"name": "currencyKey",
					"type": "bytes32"
				}
			],
			"name": "lastRateUpdateTimes",
			"outputs": [
				{
					"internalType": "uint256",
					"name": "",
					"type": "uint256"
				}
			],
			"payable": false,
			"stateMutability": "view",
			"type": "function"
		},
		{
			"constant": true,
			"inputs": [
				{
					"internalType": "bytes32[]",
					"name": "currencyKeys",
					"type": "bytes32[]"
				}
			],
			"name": "lastRateUpdateTimesForCurrencies",
			"outputs": [
				{
					"internalType": "uint256[]",
					"name": "",
					"type": "uint256[]"
				}
			],
			"payable": false,
			"stateMutability": "view",
			"type": "function"
		},
		{
			"constant": false,
			"inputs": [
				{
					"internalType": "address",
					"name": "_owner",
					"type": "address"
				}
			],
			"name": "nominateNewOwner",
			"outputs": [],
			"payable": false,
			"stateMutability": "nonpayable",
			"type": "function"
		},
		{
			"constant": true,
			"inputs": [],
			"name": "nominatedOwner",
			"outputs": [
				{
					"internalType": "address",
					"name": "",
					"type": "address"
				}
			],
			"payable": false,
			"stateMutability": "view",
			"type": "function"
		},
		{
			"constant": true,
			"inputs": [],
			"name": "oracle",
			"outputs": [
				{
					"internalType": "address",
					"name": "",
					"type": "address"
				}
			],
			"payable": false,
			"stateMutability": "view",
			"type": "function"
		},
		{
			"constant": true,
			"inputs": [],
			"name": "owner",
			"outputs": [
				{
					"internalType": "address",
					"name": "",
					"type": "address"
				}
			],
			"payable": false,
			"stateMutability": "view",
			"type": "function"
		},
		{
			"constant": true,
			"inputs": [
				{
					"internalType": "bytes32",
					"name": "currencyKey",
					"type": "bytes32"
				}
			],
			"name": "rateAndInvalid",
			"outputs": [
				{
					"internalType": "uint256",
					"name": "rate",
					"type": "uint256"
				},
				{
					"internalType": "bool",
					"name": "isInvalid",
					"type": "bool"
				}
			],
			"payable": false,
			"stateMutability": "view",
			"type": "function"
		},
		{
			"constant": true,
			"inputs": [
				{
					"internalType": "bytes32",
					"name": "currencyKey",
					"type": "bytes32"
				},
				{
					"internalType": "uint256",
					"name": "roundId",
					"type": "uint256"
				}
			],
			"name": "rateAndTimestampAtRound",
			"outputs": [
				{
					"internalType": "uint256",
					"name": "rate",
					"type": "uint256"
				},
				{
					"internalType": "uint256",
					"name": "time",
					"type": "uint256"
				}
			],
			"payable": false,
			"stateMutability": "view",
			"type": "function"
		},
		{
			"constant": true,
			"inputs": [
				{
					"internalType": "bytes32",
					"name": "currencyKey",
					"type": "bytes32"
				}
			],
			"name": "rateAndUpdatedTime",
			"outputs": [
				{
					"internalType": "uint256",
					"name": "rate",
					"type": "uint256"
				},
				{
					"internalType": "uint256",
					"name": "time",
					"type": "uint256"
				}
			],
			"payable": false,
			"stateMutability": "view",
			"type": "function"
		},
		{
			"constant": true,
			"inputs": [
				{
					"internalType": "bytes32",
					"name": "currencyKey",
					"type": "bytes32"
				}
			],
			"name": "rateForCurrency",
			"outputs": [
				{
					"internalType": "uint256",
					"name": "",
					"type": "uint256"
				}
			],
			"payable": false,
			"stateMutability": "view",
			"type": "function"
		},
		{
			"constant": true,
			"inputs": [
				{
					"internalType": "bytes32",
					"name": "currencyKey",
					"type": "bytes32"
				}
			],
			"name": "rateIsFlagged",
			"outputs": [
				{
					"internalType": "bool",
					"name": "",
					"type": "bool"
				}
			],
			"payable": false,
			"stateMutability": "view",
			"type": "function"
		},
		{
			"constant": true,
			"inputs": [
				{
					"internalType": "bytes32",
					"name": "currencyKey",
					"type": "bytes32"
				}
			],
			"name": "rateIsFrozen",
			"outputs": [
				{
					"internalType": "bool",
					"name": "",
					"type": "bool"
				}
			],
			"payable": false,
			"stateMutability": "view",
			"type": "function"
		},
		{
			"constant": true,
			"inputs": [
				{
					"internalType": "bytes32",
					"name": "currencyKey",
					"type": "bytes32"
				}
			],
			"name": "rateIsInvalid",
			"outputs": [
				{
					"internalType": "bool",
					"name": "",
					"type": "bool"
				}
			],
			"payable": false,
			"stateMutability": "view",
			"type": "function"
		},
		{
			"constant": true,
			"inputs": [
				{
					"internalType": "bytes32",
					"name": "currencyKey",
					"type": "bytes32"
				}
			],
			"name": "rateIsStale",
			"outputs": [
				{
					"internalType": "bool",
					"name": "",
					"type": "bool"
				}
			],
			"payable": false,
			"stateMutability": "view",
			"type": "function"
		},
		{
			"constant": true,
			"inputs": [],
			"name": "rateStalePeriod",
			"outputs": [
				{
					"internalType": "uint256",
					"name": "",
					"type": "uint256"
				}
			],
			"payable": false,
			"stateMutability": "view",
			"type": "function"
		},
		{
			"constant": true,
			"inputs": [
				{
					"internalType": "bytes32[]",
					"name": "currencyKeys",
					"type": "bytes32[]"
				}
			],
			"name": "ratesAndInvalidForCurrencies",
			"outputs": [
				{
					"internalType": "uint256[]",
					"name": "rates",
					"type": "uint256[]"
				},
				{
					"internalType": "bool",
					"name": "anyRateInvalid",
					"type": "bool"
				}
			],
			"payable": false,
			"stateMutability": "view",
			"type": "function"
		},
		{
			"constant": true,
			"inputs": [
				{
					"internalType": "bytes32",
					"name": "currencyKey",
					"type": "bytes32"
				},
				{
					"internalType": "uint256",
					"name": "numRounds",
					"type": "uint256"
				}
			],
			"name": "ratesAndUpdatedTimeForCurrencyLastNRounds",
			"outputs": [
				{
					"internalType": "uint256[]",
					"name": "rates",
					"type": "uint256[]"
				},
				{
					"internalType": "uint256[]",
					"name": "times",
					"type": "uint256[]"
				}
			],
			"payable": false,
			"stateMutability": "view",
			"type": "function"
		},
		{
			"constant": true,
			"inputs": [
				{
					"internalType": "bytes32[]",
					"name": "currencyKeys",
					"type": "bytes32[]"
				}
			],
			"name": "ratesForCurrencies",
			"outputs": [
				{
					"internalType": "uint256[]",
					"name": "",
					"type": "uint256[]"
				}
			],
			"payable": false,
			"stateMutability": "view",
			"type": "function"
		},
		{
			"constant": false,
			"inputs": [
				{
					"internalType": "bytes32",
					"name": "currencyKey",
					"type": "bytes32"
				}
			],
			"name": "removeAggregator",
			"outputs": [],
			"payable": false,
			"stateMutability": "nonpayable",
			"type": "function"
		},
		{
			"constant": false,
			"inputs": [
				{
					"internalType": "bytes32",
					"name": "currencyKey",
					"type": "bytes32"
				}
			],
			"name": "removeInversePricing",
			"outputs": [],
			"payable": false,
			"stateMutability": "nonpayable",
			"type": "function"
		},
		{
			"constant": true,
			"inputs": [],
			"name": "resolver",
			"outputs": [
				{
					"internalType": "contract AddressResolver",
					"name": "",
					"type": "address"
				}
			],
			"payable": false,
			"stateMutability": "view",
			"type": "function"
		},
		{
			"constant": true,
			"inputs": [
				{
					"internalType": "uint256",
					"name": "",
					"type": "uint256"
				}
			],
			"name": "resolverAddressesRequired",
			"outputs": [
				{
					"internalType": "bytes32",
					"name": "",
					"type": "bytes32"
				}
			],
			"payable": false,
			"stateMutability": "view",
			"type": "function"
		},
		{
			"constant": false,
			"inputs": [],
			"name": "selfDestruct",
			"outputs": [],
			"payable": false,
			"stateMutability": "nonpayable",
			"type": "function"
		},
		{
			"constant": true,
			"inputs": [],
			"name": "selfDestructBeneficiary",
			"outputs": [
				{
					"internalType": "address",
					"name": "",
					"type": "address"
				}
			],
			"payable": false,
			"stateMutability": "view",
			"type": "function"
		},
		{
			"constant": true,
			"inputs": [],
			"name": "selfDestructInitiated",
			"outputs": [
				{
					"internalType": "bool",
					"name": "",
					"type": "bool"
				}
			],
			"payable": false,
			"stateMutability": "view",
			"type": "function"
		},
		{
			"constant": false,
			"inputs": [
				{
					"internalType": "bytes32",
					"name": "currencyKey",
					"type": "bytes32"
				},
				{
					"internalType": "uint256",
					"name": "entryPoint",
					"type": "uint256"
				},
				{
					"internalType": "uint256",
					"name": "upperLimit",
					"type": "uint256"
				},
				{
					"internalType": "uint256",
					"name": "lowerLimit",
					"type": "uint256"
				},
				{
					"internalType": "bool",
					"name": "freezeAtUpperLimit",
					"type": "bool"
				},
				{
					"internalType": "bool",
					"name": "freezeAtLowerLimit",
					"type": "bool"
				}
			],
			"name": "setInversePricing",
			"outputs": [],
			"payable": false,
			"stateMutability": "nonpayable",
			"type": "function"
		},
		{
			"constant": false,
			"inputs": [
				{
					"internalType": "address",
					"name": "_oracle",
					"type": "address"
				}
			],
			"name": "setOracle",
			"outputs": [],
			"payable": false,
			"stateMutability": "nonpayable",
			"type": "function"
		},
		{
			"constant": false,
			"inputs": [
				{
					"internalType": "contract AddressResolver",
					"name": "_resolver",
					"type": "address"
				}
			],
			"name": "setResolverAndSyncCache",
			"outputs": [],
			"payable": false,
			"stateMutability": "nonpayable",
			"type": "function"
		},
		{
			"constant": false,
			"inputs": [
				{
					"internalType": "address payable",
					"name": "_beneficiary",
					"type": "address"
				}
			],
			"name": "setSelfDestructBeneficiary",
			"outputs": [],
			"payable": false,
			"stateMutability": "nonpayable",
			"type": "function"
		},
		{
			"constant": false,
			"inputs": [],
			"name": "terminateSelfDestruct",
			"outputs": [],
			"payable": false,
			"stateMutability": "nonpayable",
			"type": "function"
		},
		{
			"constant": false,
			"inputs": [
				{
					"internalType": "bytes32[]",
					"name": "currencyKeys",
					"type": "bytes32[]"
				},
				{
					"internalType": "uint256[]",
					"name": "newRates",
					"type": "uint256[]"
				},
				{
					"internalType": "uint256",
					"name": "timeSent",
					"type": "uint256"
				}
			],
			"name": "updateRates",
			"outputs": [
				{
					"internalType": "bool",
					"name": "",
					"type": "bool"
				}
			],
			"payable": false,
			"stateMutability": "nonpayable",
			"type": "function"
		}
	],
	"evm": {
		"bytecode": {
			"linkReferences": {
				"ExchangeRates.sol": {
					"SafeDecimalMath": [
						{
							"length": 20,
							"start": 1594
						}
					]
				}
			},
			"object": "6080604052604051602081016040526822bc31b430b733b2b960b91b81526200002d90600f90600162001300565b503480156200004657600080620000436200134e565b50505b5060405162006fcc38038062006fcc833981810160405260a08110156200007757600080620000746200134e565b50505b8101908080519291906020018051929190602001805192919060200180516040519392919084640100000000821115620000bb57600080620000b86200134e565b50505b908301906020820185811115620000dc57600080620000d96200134e565b50505b82518660208202830111640100000000821117156200010557600080620001026200134e565b50505b825250602001908051906020019060200280838360005b83811015620001365780820151838201526020016200011c565b50505050905001604052602001805160405193929190846401000000008211156200016b57600080620001686200134e565b50505b9083019060208201858111156200018c57600080620001896200134e565b50505b8251866020820283011164010000000082111715620001b557600080620001b26200134e565b50505b825250602001908051906020019060200280838360005b83811015620001e6578082015183820152602001620001cc565b5050505090500160405250505082600f6018806020026040519081016040529190610300830182845b816200021a620013bb565b815260200190600101908083116200020f57508a93505050506001600160a01b038116620002995760405162461bcd60e51b815260206004820152601960248201527f4f776e657220616464726573732063616e6e6f74206265203000000000000000604482015260640160405180910390620002966200134e565b50505b806000600181620002a9620013bb565b816001600160a01b0302191690836001600160a01b0316021790620002cd6200141d565b5050507fb532073b38c83145e3e5135377a08bf9aab55bc0fd7c1179cd4fb995d2a5159c6000826040516001600160a01b039283168152911660208201526040908101905180910390a1506000808062000326620013bb565b906101000a90046001600160a01b03166001600160a01b03161415620003915760405162461bcd60e51b815260206004820152601160248201527013dddb995c881b5d5cdd081899481cd95d607a1b6044820152606401604051809103906200038e6200134e565b50505b6000806200039e620013bb565b906101000a90046001600160a01b0316600360016101000a81620003c1620013bb565b816001600160a01b0302191690836001600160a01b0316021790620003e56200141d565b5050507fd5da63a0b864b315bc04128dedbc93888c8529ee6cf47ce664dc204339228c536000809062000417620013bb565b906101000a90046001600160a01b03166040516001600160a01b03909116815260200160405180910390a16000808062000450620013bb565b906101000a90046001600160a01b03166001600160a01b03161415620004bb5760405162461bcd60e51b815260206004820152601160248201527013dddb995c881b5d5cdd081899481cd95d607a1b604482015260640160405180910390620004b86200134e565b50505b60005b60188110156200054b576000828260188110620004d757fe5b6020020151146200053c576006828260188110620004f157fe5b6020020151908060018162000505620013bb565b018082620005126200141d565b5050600092835291600019830191506020902091929101620005336200141d565b50505062000542565b6200054b565b600101620004be565b508160046001816200055c620013bb565b816001600160a01b0302191690836001600160a01b0316021790620005806200141d565b5050505050620005a86e466c657869626c6553746f7261676560881b6200073160201b60201c565b8051825114620005f55760405162461bcd60e51b815260040180806020018281038252602f81526020018062006eda602f913960400191505060405180910390620005f26200134e565b50505b83600860018162000605620013bb565b816001600160a01b0302191690836001600160a01b0316021790620006296200141d565b50505062000705631cd554d160e21b73__$81fd87b331096e90074cc3e2c16d5bc3ee$__63907af6c06040518163ffffffff1660e01b81526004016020604051808303818680620006796200146c565b15801562000691576000806200068e6200134e565b50505b505a6200069d620014b9565b5050505050158015620006bf573d6000803e3d6000620006bc6200134e565b50505b505050506040513d6020811015620006e157600080620006de6200134e565b50505b810190808051925050505a620006f662001576565b6001600160e01b03620008fb16565b6200072582825a6200071662001576565b6001600160e01b03620009f916565b50505050505062001673565b8060068060018162000742620013bb565b0180826200074f6200141d565b5050600092835291600019830191506020902091929101620007706200141d565b505050601860068062000782620013bb565b905010620007e15760405162461bcd60e51b815260206004820152601b60248201527f4d6178207265736f6c7665722063616368652073697a65206d65740000000000604482015260640160405180910390620007de6200134e565b50505b60006004620007ef620013bb565b906101000a90046001600160a01b03166001600160a01b03166321f8a721826040516001600160e01b031960e084901b16815260048101919091526024016020604051808303818680620008426200146c565b1580156200085a57600080620008576200134e565b50505b505a62000866620015bd565b505050505015801562000888573d6000803e3d6000620008856200134e565b50505b505050506040513d6020811015620008aa57600080620008a76200134e565b50505b8101908080516000858152600560205290935060409250905020600181620008d1620013bb565b816001600160a01b0302191690836001600160a01b0316021790620008f56200141d565b50505050565b6000838152600e6020526040902060008162000916620013bb565b91600183019150620009276200141d565b505050604051604080820181526001600160d81b038416825264ffffffffff831660208084019190915260008681526007909152206000858152600e6020526040812062000974620013bb565b815260200190815260200160002081518160018162000992620013bb565b816001600160d81b0302191690836001600160d81b0316021790620009b66200141d565b505050602082015181600160d81b81620009cf620013bb565b8164ffffffffff021916908364ffffffffff16021790620009ef6200141d565b5050505050505050565b6000825184511462000a485760405162461bcd60e51b815260040180806020018281038252603881526020018062006f5b603891396040019150506040518091039062000a456200134e565b50505b6102585a62000a5662001576565b01821062000ab55760405162461bcd60e51b815260206004820152601f60248201527f54696d6520697320746f6f2066617220696e746f20746865206675747572650060448201526064016040518091039062000ab26200134e565b50505b60005b845181101562000be357600085828151811062000ad157fe5b6020026020010151905084828151811062000ae857fe5b602002602001015162000b385760405162461bcd60e51b815260040180806020018281038252603981526020018062006f93603991396040019150506040518091039062000b356200134e565b50505b80631cd554d160e21b141562000b8b5760405162461bcd60e51b815260040180806020018281038252603181526020018062006f09603191396040019150506040518091039062000b886200134e565b50505b62000b9f816001600160e01b0362000cad16565b84101562000bae575062000bda565b62000bd88186848151811062000bc057fe5b6020026020010151866001600160e01b03620008fb16565b505b60010162000ab8565b507f1bc0fc8997efa076f59b5ef02c315bc5390f7a6d24d661ce12128c01a3b0ba578484604051808060200180602001838103835285818151815260200191508051906020019060200280838360005b8381101562000c4d57808201518382015260200162000c33565b50505050905001838103825284818151815260200191508051906020019060200280838360005b8381101562000c8e57808201518382015260200162000c74565b5050505090500194505050505060405180910390a15060019392505050565b600062000cc3826001600160e01b0362000cd616565b6020015164ffffffffff1690505b919050565b62000ce062001602565b600082815260096020526040812060009062000cfb620013bb565b6001600160a01b036101009290920a9004169050801562000ec9576060604051602401604051601f19818303018152604091909152633fabe5a360e21b6020820180516001600160e01b031690911790529050600060606001600160a01b038416836040518082805190602001908083835b6020831062000d8e5780518252601f19909201916020918201910162000d6d565b6001836020036101000a038019825116818451168082178552505050505050905001915050600060405180830381855a62000dc8620015bd565b50505050509150503d806000811462000dfe576040513d603f01601f191681016040523d815291503d6000602084013e62000e03565b606091505b5091509150811562000ec05760008060208301835160a081101562000e325760008062000e2f6200134e565b50505b810190808051929190602001805192919060200180519291906020018051929190602001805150949750919550604094505050505051604080820190528062000e998a62000e8a81876001600160e01b0362000fb016565b6001600160e01b03620010b116565b6001600160d81b031681526020018264ffffffffff16815250965050505050505062000cd1565b50505062000faa565b62000ed362001602565b60008481526007602052604090206000858152600e6020526040812062000ef9620013bb565b815260200190815260200160002060405160408082019052908160008262000f20620013bb565b6001600160d81b036101009290920a9004168152602001601b8262000f44620013bb565b64ffffffffff6101009290920a9004169052509050604051604080820190528062000f838684516001600160d81b03166001600160e01b03620010b116565b6001600160d81b03168152602001826020015164ffffffffff168152509250505062000cd1565b50919050565b600080821215620010125760405162461bcd60e51b815260206004820152601b60248201527f4e656761746976652072617465206e6f7420737570706f7274656400000000006044820152606401604051809103906200100f6200134e565b50505b6000838152600a602052604081206000906200102d620013bb565b906101000a900460ff1660ff161115620010a8576000838152600a6020526200108060126040832060009062001062620013bb565b906101000a900460ff1660ff166200122860201b620051701760201c565b600a0a90506200109f81846200129060201b620048a31790919060201c565b915050620010ab565b50805b92915050565b6000620010bd62001619565b6000848152600c6020526040902060405160a08101604052908181620010e2620013bb565b815260200160018201620010f5620013bb565b81526020016002820162001108620013bb565b81526020016000600383016200111d620013bb565b60ff6101009290920a9004161515815260200160016003830162001140620013bb565b60ff6101009290920a900416151590525090508051158062001160575082155b15620011705782915050620010ab565b8291508060600151156200118b578060200151915062001221565b806080015115620011a3578060400151915062001221565b6000620011c1600283516200129060201b620048a31790919060201c565b9050838111620011d55760009250620011f2565b620011ef84826200122860201b620051701790919060201c565b92505b816020015183106200120b57816020015192506200121f565b816040015183116200121f57816040015192505b505b5092915050565b6000828211156200128a5760405162461bcd60e51b815260206004820152601e60248201527f536166654d6174683a207375627472616374696f6e206f766572666c6f770000604482015260640160405180910390620012876200134e565b50505b50900390565b600082620012a157506000620010ab565b82820282848281620012af57fe5b0414620012f95760405162461bcd60e51b815260040180806020018281038252602181526020018062006f3a6021913960400191505060405180910390620012f66200134e565b50505b9392505050565b82601881019282156200133c579160200282015b828111156200133c578251826200132a6200141d565b50509160200191906001019062001314565b506200134a92915062001646565b5090565b632a2a7adb598160e01b8152600481016020815285602082015260005b86811015620013885780860151828201604001526020016200136b565b506020828760640184336000905af158600e01573d6000803e3d6000fd5b3d6001141558600a015760016000f35b505050565b6303daa959598160e01b8152836004820152602081602483336000905af158600e01573d6000803e3d6000fd5b3d6001141558600a015760016000f35b8051935060005b60408110156200141857600082820152602001620013ff565b505050565b6322bd64c0598160e01b8152836004820152846024820152600081604483336000905af158600e01573d6000803e3d6000fd5b3d6001141558600a015760016000f35b600081526020620013ff565b638435035b598160e01b8152836004820152602081602483336000905af158600e01573d6000803e3d6000fd5b3d6001141558600a015760016000f35b80516000825293506020620013ff565b63ffe73914598160e01b8152836004820152846024820152606060448201528660648201526084810160005b88811015620014ff578088015182820152602001620014e5565b50876101040182016060838a6101040185336000905af158600e01573d6000803e3d6000fd5b3d6001141558600a015760016000f35b825160408401513d6000863e8c8c82606088013350600060045af15059855b818110156200156a576000815260200162001554565b50919c50505050505050565b63bdbf8c36598160e01b8152602081600483336000905af158600e01573d6000803e3d6000fd5b3d6001141558600a015760016000f35b80516000825293506020620013ff565b638540661f598160e01b81528360048201528460248201526060604482015286606482015260848101600088811015620014ff578088015182820152602001620014e5565b604051604080820190526000808252602082015290565b60405160a08101604090815260008083526020830181905290820181905260608201819052608082015290565b6200167091905b808211156200134a5760008082620016646200141d565b5050506001016200164d565b90565b61585780620016836000396000f3fe608060405234801561001957600080610016615247565b50505b50600436106103805760003560e01c80637103353e116101dc578063b199c7641161010d578063c6c9d828116100ab578063ce8480ea11610085578063ce8480ea14610f92578063de02795e14610fb8578063e3235c9114610fde578063fdadbc7e14610fe657610380565b8063c6c9d82814610e56578063c8e5bbd514610e7c578063c8e6f39514610f6c57610380565b8063bd32aa44116100e7578063bd32aa4414610cb1578063bfa005ce14610cb9578063c2c8a67614610dba578063c58aaae614610e4e57610380565b8063b199c76414610c25578063b295ad3414610c6d578063b8225dec14610ca957610380565b80638da5cb5b1161017a578063a461fc8211610154578063a461fc8214610b90578063ab49848c14610b98578063ac82f60814610bd9578063af3aea8614610bff57610380565b80638da5cb5b14610b5a578063935f4abd14610b625780639cb8a26a14610b8857610380565b80637a018a1e116101b65780637a018a1e14610a9a5780637adbf97314610ac05780637dc0d1d014610afc5780638295016a14610b0457610380565b80637103353e14610a13578063728dec2914610a3957806379ba509714610a9257610380565b80632d7371e1116102b65780634308a94f116102545780634f72def61161022e5780634f72def61461097757806353a47bb71461099d578063631e1444146109a5578063654a60ac146109e157610380565b80634308a94f1461090b57806345938849146109495780634c36b8371461096f57610380565b80633375fcd1116102905780633375fcd11461084157806338aa1b99146108675780633be99e6f1461088d5780633f0e084f146108c957610380565b80632d7371e11461074e5780632ea913d4146108135780633278c9601461083957610380565b80631627540c116103235780632528f0fe116102fd5780632528f0fe14610688578063266da16b146106ae5780632678df96146106ec5780632bed9e0c1461072857610380565b80631627540c1461060657806317c70de41461064457806320714f881461064c57610380565b80630a7d36d11161035f5780630a7d36d1146104e05780630c71cd23146105745780630ee4951b146105b4578063109e46a2146105ce57610380565b80629919c01461038e57806304f3bcec146103c857806305a046e5146103f9575b60008061038b615247565b50505b6103b4600480360360208110156103ad576000806103aa615247565b50505b5035611012565b604051901515815260200160405180910390f35b6103d061102d565b60405173ffffffffffffffffffffffffffffffffffffffff909116815260200160405180910390f35b61048d6004803603602081101561041857600080610415615247565b50505b81019060208101813564010000000081111561043c57600080610439615247565b50505b82018360208201111561045757600080610454615247565b50505b803590602001918460208302840111640100000000831117156104825760008061047f615247565b50505b509092509050611059565b60405160208082528190810183818151815260200191508051906020019060200280838360005b838110156104cc5780820151838201526020016104b4565b505050509050019250505060405180910390f35b6103b4600480360360208110156104ff576000806104fc615247565b50505b81019060208101813564010000000081111561052357600080610520615247565b50505b82018360208201111561053e5760008061053b615247565b50505b8035906020019184602083028401116401000000008311171561056957600080610566615247565b50505b5090925090506110d8565b61059a6004803603602081101561059357600080610590615247565b50505b503561118b565b604051918252151560208201526040908101905180910390f35b6105bc611254565b60405190815260200160405180910390f35b6105bc600480360360808110156105ed576000806105ea615247565b50505b5080359060208101359060408101359060600135611264565b6106426004803603602081101561062557600080610622615247565b50505b503573ffffffffffffffffffffffffffffffffffffffff166112a7565b005b6105bc611348565b6106426004803603602081101561066b57600080610668615247565b50505b503573ffffffffffffffffffffffffffffffffffffffff16611355565b6103b4600480360360208110156106a7576000806106a4615247565b50505b5035611468565b6105bc600480360360a08110156106cd576000806106ca615247565b50505b5080359060208101359060408101359060608101359060800135611488565b61048d6004803603602081101561070b57600080610708615247565b50505b503573ffffffffffffffffffffffffffffffffffffffff166114f5565b6106426004803603602081101561074757600080610744615247565b50505b503561160e565b61077a6004803603604081101561076d5760008061076a615247565b50505b508035906020013561177c565b604051808060200180602001838103835285818151815260200191508051906020019060200280838360005b838110156107be5780820151838201526020016107a6565b50505050905001838103825284818151815260200191508051906020019060200280838360005b838110156107fd5780820151838201526020016107e5565b5050505090500194505050505060405180910390f35b6105bc600480360360208110156108325760008061082f615247565b50505b503561186d565b610642611895565b6103b4600480360360208110156108605760008061085d615247565b50505b5035611906565b6103b46004803603602081101561088657600080610883615247565b50505b5035611a04565b610642600480360360208110156108ac576000806108a9615247565b50505b503573ffffffffffffffffffffffffffffffffffffffff16611a12565b610642600480360360408110156108e8576000806108e5615247565b50505b508035906020013573ffffffffffffffffffffffffffffffffffffffff16611c42565b6109316004803603602081101561092a57600080610927615247565b50505b5035611fdd565b60405191825260208201526040908101905180910390f35b6106426004803603602081101561096857600080610965615247565b50505b503561202a565b6103d061225c565b6105bc6004803603602081101561099657600080610993615247565b50505b5035612266565b6103d0612272565b6103b4600480360360208110156109c4576000806109c1615247565b50505b503573ffffffffffffffffffffffffffffffffffffffff1661227e565b6105bc60048036036060811015610a00576000806109fd615247565b50505b50803590602081013590604001356124e5565b6103d060048036036020811015610a3257600080610a2f615247565b50505b50356124fd565b610a5f60048036036020811015610a5857600080610a55615247565b50505b5035612517565b604051948552602085019390935260408085019290925215156060840152901515608083015260a0909101905180910390f35b610642612582565b6105bc60048036036020811015610ab957600080610ab6615247565b50505b503561278f565b61064260048036036020811015610adf57600080610adc615247565b50505b503573ffffffffffffffffffffffffffffffffffffffff1661279a565b6103d0612865565b610b3660048036036060811015610b2357600080610b20615247565b50505b5080359060208101359060400135612871565b60405180848152602001838152602001828152602001935050505060405180910390f35b6103d0612891565b6105bc60048036036020811015610b8157600080610b7e615247565b50505b503561289c565b6106426128b4565b6105bc612a11565b610ba0612a18565b604051808261030080838360005b83811015610bc6578082015183820152602001610bae565b5050505090500191505060405180910390f35b6105bc60048036036020811015610bf857600080610bf5615247565b50505b5035612a7a565b6103b460048036036020811015610c1e57600080610c1b615247565b50505b5035612aa9565b610642600480360360c0811015610c4457600080610c41615247565b50505b50803590602081013590604081013590606081013590608081013515159060a001351515612ab4565b610c9360048036036020811015610c8c57600080610c89615247565b50505b5035612f5d565b60405160ff909116815260200160405180910390f35b6103b4612f84565b610642612f90565b6103b460048036036060811015610cd857600080610cd5615247565b50505b810190602081018135640100000000811115610cfc57600080610cf9615247565b50505b820183602082011115610d1757600080610d14615247565b50505b80359060200191846020830284011164010000000083111715610d4257600080610d3f615247565b50505b919390929091602081019035640100000000811115610d6957600080610d66615247565b50505b820183602082011115610d8457600080610d81615247565b50505b80359060200191846020830284011164010000000083111715610daf57600080610dac615247565b50505b919350915035613012565b61048d60048036036020811015610dd957600080610dd6615247565b50505b810190602081018135640100000000811115610dfd57600080610dfa615247565b50505b820183602082011115610e1857600080610e15615247565b50505b80359060200191846020830284011164010000000083111715610e4357600080610e40615247565b50505b509092509050613133565b6103d06131a8565b6105bc60048036036020811015610e7557600080610e72615247565b50505b50356131b4565b610f1060048036036020811015610e9b57600080610e98615247565b50505b810190602081018135640100000000811115610ebf57600080610ebc615247565b50505b820183602082011115610eda57600080610ed7615247565b50505b80359060200191846020830284011164010000000083111715610f0557600080610f02615247565b50505b5090925090506131c0565b604051811515602082015260408082528190810184818151815260200191508051906020019060200280838360005b83811015610f57578082015183820152602001610f3f565b50505050905001935050505060405180910390f35b61064260048036036020811015610f8b57600080610f88615247565b50505b503561332e565b6105bc60048036036020811015610fb157600080610fae615247565b50505b5035613491565b61064260048036036020811015610fd757600080610fd4615247565b50505b503561349c565b6105bc613714565b6109316004803603604081101561100557600080611002615247565b50505b5080359060200135613719565b600061102582611020613731565b613852565b90505b919050565b600060046110396152b2565b906101000a900473ffffffffffffffffffffffffffffffffffffffff1681565b60608082604051908082528060200260200182016040528015611086578160200160208202803883390190505b50905060005b838110156110ce576110af8585838181106110a357fe5b9050602002013561389d565b8282815181106110bb57fe5b602090810291909101015260010161108c565b5090505b92915050565b6000806110e3613731565b905060606111238585808060200260200160405190810160405280939291908181526020018383602002808284376000920191909152506138b992505050565b905060005b8481101561117f5781818151811061113c57fe5b602002602001015180611166575061116686868381811061115957fe5b9050602002013584613852565b1561117757600193505050506110d2565b600101611128565b50600095945050505050565b60008061119661530d565b61119f84613ba3565b9050837f735553440000000000000000000000000000000000000000000000000000000014156111f55780517affffffffffffffffffffffffffffffffffffffffffffffffffffff1692506000915061124f9050565b8051611213611202613731565b836020015164ffffffffff16613f2e565b8061122a575061122a85611225613f51565b614007565b7affffffffffffffffffffffffffffffffffffffffffffffffffffff90911693509150505b915091565b600061125e613731565b90505b90565b600083815b611276878360010161418d565b915050801580611287575083850181115b156112945750905061129f565b600190910190611269565b949350505050565b6112af6144ac565b80600180806112bc6152b2565b8173ffffffffffffffffffffffffffffffffffffffff021916908373ffffffffffffffffffffffffffffffffffffffff160217906112f8615324565b5050507f906a1c6bd7e3091ea86693dd029a831c19049ce77f1dce2ce0bab1cacbabce228160405173ffffffffffffffffffffffffffffffffffffffff909116815260200160405180910390a150565b60026113526152b2565b81565b61135d6144ac565b73ffffffffffffffffffffffffffffffffffffffff81166113cd5760405162461bcd60e51b815260206004820152601c60248201527f42656e6566696369617279206d757374206e6f74206265207a65726f000000006044820152606401604051809103906113ca615247565b50505b806003610100816113dc6152b2565b8173ffffffffffffffffffffffffffffffffffffffff021916908373ffffffffffffffffffffffffffffffffffffffff16021790611418615324565b5050507fd5da63a0b864b315bc04128dedbc93888c8529ee6cf47ce664dc204339228c538160405173ffffffffffffffffffffffffffffffffffffffff909116815260200160405180910390a150565b600061147682611020613731565b80611025575061102582611225613f51565b6000838614156114995750836114ec565b60006114a5878561418d565b50905060006114b4868561418d565b509050806114c7576000925050506114ec565b6114e7816114db898563ffffffff61454d16565b9063ffffffff61456216565b925050505b95945050505050565b60606000600b806115046152b2565b905060405190808252806020026020018201604052801561152f578160200160208202803883390190505b50915060005b600b806115406152b2565b9050811015611607576000600b82816115576152b2565b811061155f57fe5b906000526020600020016115716152b2565b6000818152600960205290915073ffffffffffffffffffffffffffffffffffffffff861690604090206000906115a56152b2565b906101000a900473ffffffffffffffffffffffffffffffffffffffff1673ffffffffffffffffffffffffffffffffffffffff1614156115fe57808484806001019550815181106115f157fe5b6020026020010181815250505b50600101611535565b5050919050565b6116166144ac565b600081815260096020526040812060009061162f6152b2565b73ffffffffffffffffffffffffffffffffffffffff6101009290920a9004169050806116aa5760405162461bcd60e51b815260206004820152601c60248201527f4e6f2061676772656761746f722065786973747320666f72206b6579000000006044820152606401604051809103906116a7615247565b50505b60008281526009602052604090206001816116c36152b2565b9073ffffffffffffffffffffffffffffffffffffffff021916906116e5615324565b50506000828152600a602052604090206001816117006152b2565b9060ff0219169061170f615324565b5050600061171e83600b614577565b90508015611777577fec70e890fc7db7de4059b114c9093a1f41283d18ffcfbcac45566feea4d4f777838360405191825273ffffffffffffffffffffffffffffffffffffffff1660208201526040908101905180910390a15b505050565b606080826040519080825280602002602001820160405280156117a9578160200160208202803883390190505b509150826040519080825280602002602001820160405280156117d6578160200160208202803883390190505b50905060006117e485614695565b905060005b84811015611863576117fb868361418d565b85838151811061180757fe5b6020026020010185848151811061181a57fe5b6020908102919091010191909152528161183657506118669050565b7fffffffffffffffffffffffffffffffffffffffffffffffffffffffffffffffff909101906001016117e9565b50505b9250929050565b600d81816118796152b2565b811061188157fe5b9060005260206000200190506113526152b2565b61189d6144ac565b60008060026118aa615324565b5050506000600360006101000a816118c06152b2565b8160ff021916908315150217906118d5615324565b5050507f6adcc7125002935e0aa31697538ebbd65cfddf20431eb6ecdcfc3e238bfd082c60405160405180910390a1565b6000611910615372565b6000838152600c6020526040902060405160a081016040529081816119336152b2565b8152602001600182016119446152b2565b8152602001600282016119556152b2565b81526020016000600383016119686152b2565b60ff6101009290920a900416151581526020016001600383016119896152b2565b60ff6101009290920a90041615159052509050805115806119ab575080606001515b806119b7575080608001515b156119c6576000915050611028565b60006119d184612a7a565b90506000811180156119f557508160200151811015806119f5575081604001518111155b92505050611028565b50919050565b600061102582611225613f51565b611a1a6144ac565b806004600181611a286152b2565b8173ffffffffffffffffffffffffffffffffffffffff021916908373ffffffffffffffffffffffffffffffffffffffff16021790611a64615324565b5060009150505b600680611a766152b2565b9050811015611c3e57600060068281611a8d6152b2565b8110611a9557fe5b90600052602060002001611aa76152b2565b905060006004611ab56152b2565b906101000a900473ffffffffffffffffffffffffffffffffffffffff1673ffffffffffffffffffffffffffffffffffffffff1663dacb2d01826040517fffffffff0000000000000000000000000000000000000000000000000000000060e084901b1681526004810191909152604060248201819052601760448301527f5265736f6c766572206d697373696e6720746172676574000000000000000000606483015260849091019060209051808303818680611b7061539f565b158015611b8557600080611b82615247565b50505b505a611b8f6153eb565b5050505050158015611bae573d6000803e3d6000611bab615247565b50505b505050506040513d6020811015611bcd57600080611bca615247565b50505b8101908080516000858152600560205290935060409250905020600181611bf26152b2565b8173ffffffffffffffffffffffffffffffffffffffff021916908373ffffffffffffffffffffffffffffffffffffffff16021790611c2e615324565b505060019092019150611a6b9050565b5050565b611c4a6144ac565b80600073ffffffffffffffffffffffffffffffffffffffff821663668a0f026040518163ffffffff1660e01b81526004016020604051808303818680611c8e61539f565b158015611ca357600080611ca0615247565b50505b505a611cad6153eb565b5050505050158015611ccc573d6000803e3d6000611cc9615247565b50505b505050506040513d6020811015611ceb57600080611ce8615247565b50505b81019080805193909310159250611d549150505760405162461bcd60e51b815260206004820152601b60248201527f476976656e2041676772656761746f7220697320696e76616c69640000000000604482015260640160405180910390611d51615247565b50505b60008173ffffffffffffffffffffffffffffffffffffffff1663313ce5676040518163ffffffff1660e01b81526004016020604051808303818680611d9761539f565b158015611dac57600080611da9615247565b50505b505a611db66153eb565b5050505050158015611dd5573d6000803e3d6000611dd2615247565b50505b505050506040513d6020811015611df457600080611df1615247565b50505b81019080805193505050601260ff831611159050611e4c5760405162461bcd60e51b81526004018080602001828103825260328152602001806157c56032913960400191505060405180910390611e49615247565b50505b6000848152600960205260408120600090611e656152b2565b906101000a900473ffffffffffffffffffffffffffffffffffffffff1673ffffffffffffffffffffffffffffffffffffffff161415611ef95783600b80600181611ead6152b2565b018082611eb8615324565b50506000928352917fffffffffffffffffffffffffffffffffffffffffffffffffffffffffffffffff830191506020902091929101611ef5615324565b5050505b60008481526009602052829060409020600181611f146152b2565b8173ffffffffffffffffffffffffffffffffffffffff021916908373ffffffffffffffffffffffffffffffffffffffff16021790611f50615324565b5050506000848152600a602052819060409020600181611f6e6152b2565b8160ff021916908360ff16021790611f84615324565b5050507f0bcae573430f69c5361e5d76534d3f61d2d803958778680cd74be9dc6299bc63848360405191825273ffffffffffffffffffffffffffffffffffffffff1660208201526040908101905180910390a150505050565b600080611fe861530d565b611ff184613ba3565b9050805181602001517affffffffffffffffffffffffffffffffffffffffffffffffffffff909116935064ffffffffff16915050915091565b600060086120366152b2565b906101000a900473ffffffffffffffffffffffffffffffffffffffff1673ffffffffffffffffffffffffffffffffffffffff165a6120726154a4565b73ffffffffffffffffffffffffffffffffffffffff16146120cd5760405162461bcd60e51b81526004018080602001828103825260278152602001806156c160279139604001915050604051809103906120ca615247565b50505b60006120d882612a7a565b116121325760405162461bcd60e51b815260206004820152600c60248201527f52617465206973207a65726f000000000000000000000000000000000000000060448201526064016040518091039061212f615247565b50505b60008181526007602052604090206000828152600e602052604081206121566152b2565b81526020019081526020016000206000816001816121726152b2565b907affffffffffffffffffffffffffffffffffffffffffffffffffffff0219169061219b615324565b508290507b01000000000000000000000000000000000000000000000000000000816121c56152b2565b9064ffffffffff021916906121d8615324565b5050506000828152600e60205260409150206000816121f56152b2565b917fffffffffffffffffffffffffffffffffffffffffffffffffffffffffffffffff83019150612223615324565b5050507fe69d655565c7ff1353d8eaeea62fb7904fa9696987431ec351be288c865f1ae18160405190815260200160405180910390a150565b600061125e613f51565b600b81816118796152b2565b600060016110396152b2565b600073ffffffffffffffffffffffffffffffffffffffff82168160046122a26152b2565b906101000a900473ffffffffffffffffffffffffffffffffffffffff1673ffffffffffffffffffffffffffffffffffffffff16146122e257506000611028565b60005b6006806122f06152b2565b90508110156124dc576000600682816123076152b2565b811061230f57fe5b906000526020600020016123216152b2565b600081815260056020529091506040902060009061233d6152b2565b73ffffffffffffffffffffffffffffffffffffffff6101009290920a900416600060046123686152b2565b906101000a900473ffffffffffffffffffffffffffffffffffffffff1673ffffffffffffffffffffffffffffffffffffffff166321f8a721836040517fffffffff0000000000000000000000000000000000000000000000000000000060e084901b168152600481019190915260240160206040518083038186806123eb61539f565b158015612400576000806123fd615247565b50505b505a61240a6153eb565b5050505050158015612429573d6000803e3d6000612426615247565b50505b505050506040513d602081101561244857600080612445615247565b50505b81019080805173ffffffffffffffffffffffffffffffffffffffff16939093141592508291506124c390505750600081815260056020526040812060009061248e6152b2565b906101000a900473ffffffffffffffffffffffffffffffffffffffff1673ffffffffffffffffffffffffffffffffffffffff16145b156124d357600092505050611028565b506001016122e5565b50600192915050565b60006124f28484846147a4565b509095945050505050565b6009602052806000526040600020600091506110396152b2565b600c6020528060005260406000209050806125306152b2565b908060010161253d6152b2565b908060020161254a6152b2565b906000600382016125596152b2565b906101000a900460ff1690806003016001906125736152b2565b906101000a900460ff16905085565b6000600161258e6152b2565b906101000a900473ffffffffffffffffffffffffffffffffffffffff1673ffffffffffffffffffffffffffffffffffffffff165a6125ca6154a4565b73ffffffffffffffffffffffffffffffffffffffff16146126255760405162461bcd60e51b815260040180806020018281038252603581526020018061565b6035913960400191505060405180910390612622615247565b50505b7fb532073b38c83145e3e5135377a08bf9aab55bc0fd7c1179cd4fb995d2a5159c6000806126516152b2565b906101000a900473ffffffffffffffffffffffffffffffffffffffff16600160009061267b6152b2565b906101000a900473ffffffffffffffffffffffffffffffffffffffff1660405173ffffffffffffffffffffffffffffffffffffffff9283168152911660208201526040908101905180910390a1600060016126d46152b2565b906101000a900473ffffffffffffffffffffffffffffffffffffffff166000806101000a816127016152b2565b8173ffffffffffffffffffffffffffffffffffffffff021916908373ffffffffffffffffffffffffffffffffffffffff1602179061273d615324565b5050506000600160006101000a816127536152b2565b8173ffffffffffffffffffffffffffffffffffffffff021916908373ffffffffffffffffffffffffffffffffffffffff16021790611777615324565b600061102582614695565b6127a26144ac565b8060086001816127b06152b2565b8173ffffffffffffffffffffffffffffffffffffffff021916908373ffffffffffffffffffffffffffffffffffffffff160217906127ec615324565b5050507f3df77beb5db05fcdd70a30fc8adf3f83f9501b68579455adbd100b8180940394600860009061281d6152b2565b906101000a900473ffffffffffffffffffffffffffffffffffffffff1660405173ffffffffffffffffffffffffffffffffffffffff909116815260200160405180910390a150565b600060086110396152b2565b60008060006128818686866147a4565b9250925092505b93509350939050565b6000806110396152b2565b600e60205280600052604060002090506113526152b2565b6128bc6144ac565b600060036128c86152b2565b906101000a900460ff1661292b5760405162461bcd60e51b815260206004820152601f60248201527f53656c66204465737472756374206e6f742079657420696e6974696174656400604482015260640160405180910390612928615247565b50505b5a6129346154ea565b6224ea0060026129426152b2565b011061299d5760405162461bcd60e51b815260206004820152601b60248201527f53656c662064657374727563742064656c6179206e6f74206d6574000000000060448201526064016040518091039061299a615247565b50505b7f8a09e1677ced846cb537dc2b172043bd05a1a81ad7e0033a7ef8ba762df990b7600160036129ca6152b2565b906101000a900473ffffffffffffffffffffffffffffffffffffffff1660405173ffffffffffffffffffffffffffffffffffffffff909116815260200160405180910390a1565b6224ea0081565b612a20615530565b60005b600680612a2e6152b2565b9050811015612a765760068181612a436152b2565b8110612a4b57fe5b90600052602060002001612a5d6152b2565b828260188110612a6957fe5b6020020152600101612a23565b5090565b6000612a8582613ba3565b517affffffffffffffffffffffffffffffffffffffffffffffffffffff1692915050565b6000611025826147f6565b612abc6144ac565b60008311612b195760405162461bcd60e51b815260206004820152601a60248201527f6c6f7765724c696d6974206d7573742062652061626f76652030000000000000604482015260640160405180910390612b16615247565b50505b848411612b605760405162461bcd60e51b81526004018080602001828103825260278152602001806158306027913960400191505060405180910390612b5d615247565b50505b612b7185600263ffffffff6148a316565b8410612bb75760405162461bcd60e51b815260040180806020018281038252602e815260200180615797602e913960400191505060405180910390612bb4615247565b50505b848310612bfe5760405162461bcd60e51b81526004018080602001828103825260278152602001806157706027913960400191505060405180910390612bfb615247565b50505b818015612c085750805b15612c625760405162461bcd60e51b815260206004820152601c60248201527f43616e6e6f7420667265657a6520617420626f7468206c696d69747300000000604482015260640160405180910390612c5f615247565b50505b6000868152600c60205260408120905080612c7b6152b2565b612cda5786600d80600181612c8e6152b2565b018082612c99615324565b50506000928352917fffffffffffffffffffffffffffffffffffffffffffffffffffffffffffffffff830191506020902091929101612cd6615324565b5050505b858082612ce5615324565b50505084816001018190612cf7615324565b50505083816002018190612d09615324565b5050508280612d155750815b15612de2578260038201600181612d2a6152b2565b8160ff02191690831515021790612d3f615324565b50839150506003820161010081612d546152b2565b8160ff02191690831515021790612d69615324565b5050507f3de98bb945f5841b9e27e10a317b59497fa7aab6bc7ba00461fbb3211b5501658784612d995785612d9b565b865b5a612da46154a4565b604051928352602083019190915273ffffffffffffffffffffffffffffffffffffffff166040808301919091526060909101905180910390a1612e37565b600060038201600181612df36152b2565b8160ff02191690831515021790612e08615324565b5060009150506003820161010081612e1e6152b2565b8160ff02191690831515021790612e33615324565b5050505b6000612e4288612a7a565b90508015612f0457612e5261490b565b73ffffffffffffffffffffffffffffffffffffffff1663ce09694089836040517fffffffff0000000000000000000000000000000000000000000000000000000060e085901b1681526004810192909252602482015260440160006040518083038160008780612ec061539f565b158015612ed557600080612ed2615247565b50505b505a612edf61554d565b505050505050158015612eff573d6000803e3d6000612efc615247565b50505b505050505b7f37efb38e92b0f94698f6df0c9070e2f00946862a042ac09e34ae8c547684240a888888886040518085815260200184815260200183815260200182815260200194505050505060405180910390a15050505050505050565b600a60205280600052604060002060009150612f776152b2565b906101000a900460ff1681565b60006003612f776152b2565b612f986144ac565b5a612fa16154ea565b806002612fac615324565b5050506001600360006101000a81612fc26152b2565b8160ff02191690831515021790612fd7615324565b5050507fcbd94ca75b8dc45c9d80c77e851670e78843c0d75180cb81db3e2158228fa9a66224ea0060405190815260200160405180910390a1565b600080600861301f6152b2565b906101000a900473ffffffffffffffffffffffffffffffffffffffff1673ffffffffffffffffffffffffffffffffffffffff165a61305b6154a4565b73ffffffffffffffffffffffffffffffffffffffff16146130b65760405162461bcd60e51b81526004018080602001828103825260278152602001806156c160279139604001915050604051809103906130b3615247565b50505b613129868680806020026020016040519081016040528093929190818152602001838360200280828437600092019190915250889250879150819050602080820201604051908101604052809392919081815260200183836020028082843760009201919091525087925061496a915050565b9695505050505050565b60608082604051908082528060200260200182016040528015613160578160200160208202803883390190505b50905060005b838110156110ce5761318985858381811061317d57fe5b90506020020135612a7a565b82828151811061319557fe5b6020908102919091010152600101613166565b600160036110396152b2565b600681816118796152b2565b60606000826040519080825280602002602001820160405280156131ee578160200160208202803883390190505b50915060006131fb613731565b9050606061323b8686808060200260200160405190810160405280939291908181526020018383602002808284376000920191909152506138b992505050565b905060005b858110156133245761325061530d565b61326b88888481811061325f57fe5b90506020020135613ba3565b905080517affffffffffffffffffffffffffffffffffffffffffffffffffffff1686838151811061329857fe5b602002602001018181525050841580156132e457508787838181106132b957fe5b905060200201357f735553440000000000000000000000000000000000000000000000000000000014155b1561331b578282815181106132f557fe5b602002602001015180613318575061331884826020015164ffffffffff16613f2e565b94505b50600101613240565b5050509250929050565b6133366144ac565b6000818152600c6020526040812061334c6152b2565b116133a65760405162461bcd60e51b815260206004820152601860248201527f4e6f20696e7665727465642070726963652065786973747300000000000000006044820152606401604051809103906133a3615247565b50505b6000818152600c60205260409020600080826133c0615324565b5050600182016000906133d1615324565b5050600282016000906133e2615324565b5050600382016001816133f36152b2565b9060ff02191690613402615324565b505060038201610100816134146152b2565b9060ff02191690613423615324565b50505050600061343482600d614577565b90508015611c3e577f37efb38e92b0f94698f6df0c9070e2f00946862a042ac09e34ae8c547684240a8260008060006040518085815260200184815260200183815260200182815260200194505050505060405180910390a15050565b60006110258261389d565b6000818152600c6020526040812090506000816134b76152b2565b116135115760405162461bcd60e51b815260206004820152601e60248201527f43616e6e6f7420667265657a65206e6f6e2d696e76657273652072617465000060448201526064016040518091039061350e615247565b50505b60006003820161351f6152b2565b906101000a900460ff1615801561354b575060016003820161353f6152b2565b906101000a900460ff16155b6135a45760405162461bcd60e51b815260206004820152601a60248201527f546865207261746520697320616c72656164792066726f7a656e0000000000006044820152606401604051809103906135a1615247565b50505b60006135af83612a7a565b90506000811180156135e15750816001016135c86152b2565b811015806135e15750816002016135dd6152b2565b8111155b156136bb57816001016135f26152b2565b8114600383016001816136036152b2565b8160ff02191690831515021790613618615324565b505050816002016136276152b2565b811460038301610100816136396152b2565b8160ff0219169083151502179061364e615324565b5050507f3de98bb945f5841b9e27e10a317b59497fa7aab6bc7ba00461fbb3211b55016583825a61367d6154a4565b604051928352602083019190915273ffffffffffffffffffffffffffffffffffffffff166040808301919091526060909101905180910390a1611777565b60405162461bcd60e51b815260206004820152601260248201527f526174652077697468696e20626f756e6473000000000000000000000000000060448201526064016040518091039061370d615247565b5050505050565b601881565b600080613726848461418d565b915091509250929050565b600061373b614c05565b73ffffffffffffffffffffffffffffffffffffffff166323257c2b7f53797374656d53657474696e67730000000000000000000000000000000000007f726174655374616c65506572696f6400000000000000000000000000000000006040517fffffffff0000000000000000000000000000000000000000000000000000000060e085901b1681526004810192909252602482015260440160206040518083038186806137e761539f565b1580156137fc576000806137f9615247565b50505b505a6138066153eb565b5050505050158015613825573d6000803e3d6000613822615247565b50505b505050506040513d602081101561384457600080613841615247565b50505b810190808051935050505090565b6000827f73555344000000000000000000000000000000000000000000000000000000001415613884575060006110d2565b613896826138918561389d565b613f2e565b9392505050565b60006138a882613ba3565b6020015164ffffffffff1692915050565b606060006138c5613f51565b905073ffffffffffffffffffffffffffffffffffffffff811615613b705760608351604051908082528060200260200182016040528015613910578160200160208202803883390190505b50905060005b84518110156139a6576009600086838151811061392f57fe5b602002602001015181526020019081526020016000206000906139506152b2565b906101000a900473ffffffffffffffffffffffffffffffffffffffff1682828151811061397957fe5b73ffffffffffffffffffffffffffffffffffffffff90921660209283029190910190910152600101613916565b508173ffffffffffffffffffffffffffffffffffffffff16637d723cac826040518263ffffffff1660e01b81526004018080602001828103825283818151815260200191508051906020019060200280838360005b83811015613a135780820151838201526020016139fb565b50505050905001925050506000604051808303818680613a3161539f565b158015613a4657600080613a43615247565b50505b505a613a506153eb565b5050505050158015613a6f573d6000803e3d6000613a6c615247565b50505b505050506040513d6000823e601f3d9081017fffffffffffffffffffffffffffffffffffffffffffffffffffffffffffffffe01682016040526020811015613abf57600080613abc615247565b50505b8101908080516040519392919084640100000000821115613ae857600080613ae5615247565b50505b908301906020820185811115613b0657600080613b03615247565b50505b8251866020820283011164010000000082111715613b2c57600080613b29615247565b50505b825250602001908051906020019060200280838360005b83811015613b5b578082015183820152602001613b43565b505050509050016040525050509250506119fe565b8251604051908082528060200260200182016040528015613b9b578160200160208202803883390190505b509392505050565b613bab61530d565b6000828152600960205260408120600090613bc46152b2565b73ffffffffffffffffffffffffffffffffffffffff6101009290920a90041690508015613e255760606040516024016040517fffffffffffffffffffffffffffffffffffffffffffffffffffffffffffffffe08183030181526040919091527ffeaf968c000000000000000000000000000000000000000000000000000000006020820180517bffffffffffffffffffffffffffffffffffffffffffffffffffffffff16909117905290506000606073ffffffffffffffffffffffffffffffffffffffff8416836040518082805190602001908083835b60208310613cd857805182527fffffffffffffffffffffffffffffffffffffffffffffffffffffffffffffffe09092019160209182019101613c9b565b6001836020036101000a038019825116818451168082178552505050505050905001915050600060405180830381855a613d106153eb565b50505050509150503d8060008114613d62576040513d603f017fffffffffffffffffffffffffffffffffffffffffffffffffffffffffffffffe01681016040523d815291503d6000602084013e613d67565b606091505b50915091508115613e1d5760008060208301835160a0811015613d9257600080613d8f615247565b50505b8101908080519291906020018051929190602001805192919060200180519291906020018051509497509195506040945050505050518060400160405280613de38a613dde8c87614c64565b614d3c565b7affffffffffffffffffffffffffffffffffffffffffffffffffffff1681526020018264ffffffffff168152509650505050505050611028565b5050506119fe565b613e2d61530d565b60008481526007602052604090206000858152600e60205260408120613e516152b2565b8152602001908152602001600020604051604080820190529081600082613e766152b2565b7affffffffffffffffffffffffffffffffffffffffffffffffffffff6101009290920a9004168152602001601b82613eac6152b2565b64ffffffffff6101009290920a90041690525090506040516040808201905280613ef48684517affffffffffffffffffffffffffffffffffffffffffffffffffffff16614d3c565b7affffffffffffffffffffffffffffffffffffffffffffffffffffff168152602001826020015164ffffffffff1681525092505050611028565b60005a613f396154ea565b613f49838563ffffffff614e8816565b109392505050565b6000613f5b614c05565b73ffffffffffffffffffffffffffffffffffffffff16639ee5955a7f53797374656d53657474696e67730000000000000000000000000000000000007f61676772656761746f725761726e696e67466c616773000000000000000000006040517fffffffff0000000000000000000000000000000000000000000000000000000060e085901b1681526004810192909252602482015260440160206040518083038186806137e761539f565b6000827f73555344000000000000000000000000000000000000000000000000000000001415614039575060006110d2565b60008381526009602052604081206000906140526152b2565b73ffffffffffffffffffffffffffffffffffffffff6101009290920a9004169050801580614094575073ffffffffffffffffffffffffffffffffffffffff8316155b156140a35760009150506110d2565b8273ffffffffffffffffffffffffffffffffffffffff1663357e47fe826040517fffffffff0000000000000000000000000000000000000000000000000000000060e084901b16815273ffffffffffffffffffffffffffffffffffffffff9091166004820152602401602060405180830381868061411f61539f565b15801561413457600080614131615247565b50505b505a61413e6153eb565b505050505015801561415d573d6000803e3d600061415a615247565b50505b505050506040513d602081101561417c57600080614179615247565b50505b810190808051979650505050505050565b600082815260096020528080604081206000906141a86152b2565b73ffffffffffffffffffffffffffffffffffffffff6101009290920a900416905080156143dc5760608460405160248101919091526044016040517fffffffffffffffffffffffffffffffffffffffffffffffffffffffffffffffe08183030181526040919091527f9a6fc8f5000000000000000000000000000000000000000000000000000000006020820180517bffffffffffffffffffffffffffffffffffffffffffffffffffffffff16909117905290506000606073ffffffffffffffffffffffffffffffffffffffff8416836040518082805190602001908083835b602083106142c557805182527fffffffffffffffffffffffffffffffffffffffffffffffffffffffffffffffe09092019160209182019101614288565b6001836020036101000a038019825116818451168082178552505050505050905001915050600060405180830381855a6142fd6153eb565b50505050509150503d806000811461434f576040513d603f017fffffffffffffffffffffffffffffffffffffffffffffffffffffffffffffffe01681016040523d815291503d6000602084013e614354565b606091505b509150915081156143d45760008060208301835160a081101561437f5760008061437c615247565b50505b81019080805192919060200180519291906020018051929190602001805192919060200180519060200190929190505050509350509250506143c58a613dde8c85614c64565b97509550611866945050505050565b5050506144a4565b6143e461530d565b60008681526007602052604090206000868152602091909152604090206040516040808201905290816000826144186152b2565b7affffffffffffffffffffffffffffffffffffffffffffffffffffff6101009290920a9004168152602001601b8261444e6152b2565b64ffffffffff6101009290920a900416905250905061448b8682517affffffffffffffffffffffffffffffffffffffffffffffffffffff16614d3c565b816020015190945064ffffffffff169250611866915050565b509250929050565b6000806144b76152b2565b906101000a900473ffffffffffffffffffffffffffffffffffffffff1673ffffffffffffffffffffffffffffffffffffffff165a6144f36154a4565b73ffffffffffffffffffffffffffffffffffffffff161461454b5760405162461bcd60e51b815260040180806020018281038252602f8152602001806156e8602f913960400191505060405180910390611c3e615247565b565b60006138968383670de0b6b3a7640000614ee7565b60006138968383670de0b6b3a7640000614f24565b6000805b82806145856152b2565b905081101561468b578383828161459a6152b2565b81106145a257fe5b906000526020600020016145b46152b2565b1415614683578281816145c56152b2565b81106145cd57fe5b906000526020600020016000906145e2615324565b505082600184806145f16152b2565b905003816145fd6152b2565b811061460557fe5b906000526020600020016146176152b2565b8382816146226152b2565b811061462a57fe5b90600052602060002001819061463e615324565b505050828061464b6152b2565b90614678907fffffffffffffffffffffffffffffffffffffffffffffffffffffffffffffffff8301615606565b5060019150506110d2565b60010161457b565b5060009392505050565b6000818152600960205280604081206000906146af6152b2565b73ffffffffffffffffffffffffffffffffffffffff6101009290920a90041690508015614786578073ffffffffffffffffffffffffffffffffffffffff1663668a0f026040518163ffffffff1660e01b8152600401602060405180830381868061471761539f565b15801561472c57600080614729615247565b50505b505a6147366153eb565b5050505050158015614755573d6000803e3d6000614752615247565b50505b505050506040513d602081101561477457600080614771615247565b50505b81019080805194506110289350505050565b6000838152600e6020526040902061479c6152b2565b915050611028565b60008060006147b286612a7a565b9150838614156147c6575083915080612888565b6147cf84612a7a565b90508015612888576147eb816114db878563ffffffff61454d16565b925093509350939050565b6000614800615372565b6000838152600c6020526040902060405160a081016040529081816148236152b2565b8152602001600182016148346152b2565b8152602001600282016148456152b2565b81526020016000600383016148586152b2565b60ff6101009290920a900416151581526020016001600383016148796152b2565b60ff6101009290920a90041615159052509050606081015180613896575080608001519392505050565b6000826148b2575060006110d2565b828202828482816148bf57fe5b04146138965760405162461bcd60e51b81526004018080602001828103825260218152602001806157176021913960400191505060405180910390614902615247565b50509392505050565b600061125e7f45786368616e676572000000000000000000000000000000000000000000000060405160408082019052601981527f4d697373696e672045786368616e6765722061646472657373000000000000006020820152614f56565b600082518451146149b55760405162461bcd60e51b815260040180806020018281038252603881526020018061573860389139604001915050604051809103906149b2615247565b50505b6102585a6149c16154ea565b018210614a1d5760405162461bcd60e51b815260206004820152601f60248201527f54696d6520697320746f6f2066617220696e746f207468652066757475726500604482015260640160405180910390614a1a615247565b50505b60005b8451811015614b3f576000858281518110614a3757fe5b60200260200101519050848281518110614a4d57fe5b6020026020010151614a995760405162461bcd60e51b81526004018080602001828103825260398152602001806157f76039913960400191505060405180910390614a96615247565b50505b807f73555344000000000000000000000000000000000000000000000000000000001415614b015760405162461bcd60e51b81526004018080602001828103825260318152602001806156906031913960400191505060405180910390614afe615247565b50505b614b0a8161389d565b841015614b175750614b37565b614b3581868481518110614b2757fe5b60200260200101518661502c565b505b600101614a20565b507f1bc0fc8997efa076f59b5ef02c315bc5390f7a6d24d661ce12128c01a3b0ba578484604051808060200180602001838103835285818151815260200191508051906020019060200280838360005b83811015614ba7578082015183820152602001614b8f565b50505050905001838103825284818151815260200191508051906020019060200280838360005b83811015614be6578082015183820152602001614bce565b5050505090500194505050505060405180910390a15060019392505050565b600061125e7f466c657869626c6553746f72616765000000000000000000000000000000000060405160408082019052601f81527f4d697373696e6720466c657869626c6553746f726167652061646472657373006020820152614f56565b600080821215614cc35760405162461bcd60e51b815260206004820152601b60248201527f4e656761746976652072617465206e6f7420737570706f727465640000000000604482015260640160405180910390614cc0615247565b50505b6000838152600a60205260408120600090614cdc6152b2565b906101000a900460ff1660ff1611156119fe576000838152600a602052614d1f601260408320600090614d0d6152b2565b906101000a900460ff1660ff16615170565b600a0a9050614d34838263ffffffff6148a316565b9150506110d2565b6000614d46615372565b6000848152600c6020526040902060405160a08101604052908181614d696152b2565b815260200160018201614d7a6152b2565b815260200160028201614d8b6152b2565b8152602001600060038301614d9e6152b2565b60ff6101009290920a90041615158152602001600160038301614dbf6152b2565b60ff6101009290920a9004161515905250905080511580614dde575082155b15614dec57829150506110d2565b829150806060015115614e055780602001519150614e81565b806080015115614e1b5780604001519150614e81565b6000614e30600283519063ffffffff6148a316565b9050838111614e425760009250614e55565b614e52818563ffffffff61517016565b92505b81602001518310614e6c5781602001519250614e7f565b81604001518311614e7f57816040015192505b505b5092915050565b6000828201838110156138965760405162461bcd60e51b815260206004820152601b60248201527f536166654d6174683a206164646974696f6e206f766572666c6f770000000000604482015260640160405180910390614902615247565b600080600a8304614efe868663ffffffff6148a316565b81614f0557fe5b0490506005600a825b0610614f1857600a015b600a9004949350505050565b600080614f4a84614f3e87600a870263ffffffff6148a316565b9063ffffffff6151d516565b90506005600a82614f0e565b600082815260056020528060408120600090614f706152b2565b73ffffffffffffffffffffffffffffffffffffffff6101009290920a900416905082816110ce5760405162461bcd60e51b81526004018080602001828103825283818151815260200191508051906020019080838360005b83811015614fe0578082015183820152602001614fc8565b50505050905090810190601f16801561500d5780820380516001836020036101000a031916815260200191505b509250505060405180910390615021615247565b505050905092915050565b6000838152600e602052604090206000816150456152b2565b91600183019150615054615324565b505050604051604080820181527affffffffffffffffffffffffffffffffffffffffffffffffffffff8416825264ffffffffff831660208084019190915260008681526007909152206000858152600e602052604081206150b36152b2565b81526020019081526020016000208151816001816150cf6152b2565b817affffffffffffffffffffffffffffffffffffffffffffffffffffff02191690837affffffffffffffffffffffffffffffffffffffffffffffffffffff16021790615119615324565b5050506020820151817b01000000000000000000000000000000000000000000000000000000816151486152b2565b8164ffffffffff021916908364ffffffffff16021790615166615324565b5050505050505050565b6000828211156151cf5760405162461bcd60e51b815260206004820152601e60248201527f536166654d6174683a207375627472616374696f6e206f766572666c6f7700006044820152606401604051809103906151cc615247565b50505b50900390565b60008082116152335760405162461bcd60e51b815260206004820152601a60248201527f536166654d6174683a206469766973696f6e206279207a65726f000000000000604482015260640160405180910390615230615247565b50505b600082848161523e57fe5b04949350505050565b632a2a7adb598160e01b8152600481016020815285602082015260005b8681101561527f578086015182820160400152602001615264565b506020828760640184336000905af158600e01573d6000803e3d6000fd5b3d6001141558600a015760016000f35b505050565b6303daa959598160e01b8152836004820152602081602483336000905af158600e01573d6000803e3d6000fd5b3d6001141558600a015760016000f35b8051935060005b6040811015611777576000828201526020016152f6565b604051604080820190526000808252602082015290565b6322bd64c0598160e01b8152836004820152846024820152600081604483336000905af158600e01573d6000803e3d6000fd5b3d6001141558600a015760016000f35b6000815260206152f6565b60405160a08101604090815260008083526020830181905290820181905260608201819052608082015290565b638435035b598160e01b8152836004820152602081602483336000905af158600e01573d6000803e3d6000fd5b3d6001141558600a015760016000f35b805160008252935060206152f6565b638540661f598160e01b8152836004820152846024820152606060448201528660648201526084810160005b8881101561542f578088015182820152602001615417565b50876101040182016060838a6101040185336000905af158600e01573d6000803e3d6000fd5b3d6001141558600a015760016000f35b825160408401513d6000863e8c8c82606088013350600060045af15059855b818110156154985760008152602001615484565b50919c50505050505050565b6373509064598160e01b8152602081600483336000905af158600e01573d6000803e3d6000fd5b3d6001141558600a015760016000f35b805160008252935060206152f6565b63bdbf8c36598160e01b8152602081600483336000905af158600e01573d6000803e3d6000fd5b3d6001141558600a015760016000f35b805160008252935060206152f6565b604051610300808201604052601890829080388339509192915050565b6385979f76598160e01b8152836004820152846024820152606060448201528760648201526084810160005b89811015615591578089015182820152602001615579565b50886101040182016060838b6101040185336000905af158600e01573d6000803e3d6000fd5b3d6001141558600a015760016000f35b825160408401513d6000863e8d8d82606088013350600060045af15059855b818110156155fa57600081526020016155e6565b50919d50505050505050565b8161560f6152b2565b8183615619615324565b5050818111156117775781836000526020600020611777928101910161126191905b80821115612a76576000808261564f615324565b50505060010161563b56fe596f75206d757374206265206e6f6d696e61746564206265666f726520796f752063616e20616363657074206f776e65727368697052617465206f6620735553442063616e6e6f7420626520757064617465642c206974277320616c7761797320554e49542e4f6e6c7920746865206f7261636c652063616e20706572666f726d207468697320616374696f6e4f6e6c792074686520636f6e7472616374206f776e6572206d617920706572666f726d207468697320616374696f6e536166654d6174683a206d756c7469706c69636174696f6e206f766572666c6f7743757272656e6379206b6579206172726179206c656e677468206d757374206d61746368207261746573206172726179206c656e6774682e6c6f7765724c696d6974206d7573742062652062656c6f772074686520656e747279506f696e7475707065724c696d6974206d757374206265206c657373207468616e20646f75626c6520656e747279506f696e7441676772656761746f7220646563696d616c732073686f756c64206265206c6f776572206f7220657175616c20746f2031385a65726f206973206e6f7420612076616c696420726174652c20706c656173652063616c6c2064656c6574655261746520696e73746561642e75707065724c696d6974206d7573742062652061626f76652074686520656e747279506f696e7443757272656e6379206b6579206c656e67746820616e642072617465206c656e677468206d757374206d617463682e52617465206f6620735553442063616e6e6f7420626520757064617465642c206974277320616c7761797320554e49542e536166654d6174683a206d756c7469706c69636174696f6e206f766572666c6f7743757272656e6379206b6579206172726179206c656e677468206d757374206d61746368207261746573206172726179206c656e6774682e5a65726f206973206e6f7420612076616c696420726174652c20706c656173652063616c6c2064656c6574655261746520696e73746561642e",
			"opcodes": "PUSH1 0x80 PUSH1 0x40 MSTORE PUSH1 0x40 MLOAD PUSH1 0x20 DUP2 ADD PUSH1 0x40 MSTORE PUSH9 0x22BC31B430B733B2B9 PUSH1 0xB9 SHL DUP2 MSTORE PUSH3 0x2D SWAP1 PUSH1 0xF SWAP1 PUSH1 0x1 PUSH3 0x1300 JUMP JUMPDEST POP CALLVALUE DUP1 ISZERO PUSH3 0x46 JUMPI PUSH1 0x0 DUP1 PUSH3 0x43 PUSH3 0x134E JUMP JUMPDEST POP POP JUMPDEST POP PUSH1 0x40 MLOAD PUSH3 0x6FCC CODESIZE SUB DUP1 PUSH3 0x6FCC DUP4 CODECOPY DUP2 DUP2 ADD PUSH1 0x40 MSTORE PUSH1 0xA0 DUP2 LT ISZERO PUSH3 0x77 JUMPI PUSH1 0x0 DUP1 PUSH3 0x74 PUSH3 0x134E JUMP JUMPDEST POP POP JUMPDEST DUP2 ADD SWAP1 DUP1 DUP1 MLOAD SWAP3 SWAP2 SWAP1 PUSH1 0x20 ADD DUP1 MLOAD SWAP3 SWAP2 SWAP1 PUSH1 0x20 ADD DUP1 MLOAD SWAP3 SWAP2 SWAP1 PUSH1 0x20 ADD DUP1 MLOAD PUSH1 0x40 MLOAD SWAP4 SWAP3 SWAP2 SWAP1 DUP5 PUSH5 0x100000000 DUP3 GT ISZERO PUSH3 0xBB JUMPI PUSH1 0x0 DUP1 PUSH3 0xB8 PUSH3 0x134E JUMP JUMPDEST POP POP JUMPDEST SWAP1 DUP4 ADD SWAP1 PUSH1 0x20 DUP3 ADD DUP6 DUP2 GT ISZERO PUSH3 0xDC JUMPI PUSH1 0x0 DUP1 PUSH3 0xD9 PUSH3 0x134E JUMP JUMPDEST POP POP JUMPDEST DUP3 MLOAD DUP7 PUSH1 0x20 DUP3 MUL DUP4 ADD GT PUSH5 0x100000000 DUP3 GT OR ISZERO PUSH3 0x105 JUMPI PUSH1 0x0 DUP1 PUSH3 0x102 PUSH3 0x134E JUMP JUMPDEST POP POP JUMPDEST DUP3 MSTORE POP PUSH1 0x20 ADD SWAP1 DUP1 MLOAD SWAP1 PUSH1 0x20 ADD SWAP1 PUSH1 0x20 MUL DUP1 DUP4 DUP4 PUSH1 0x0 JUMPDEST DUP4 DUP2 LT ISZERO PUSH3 0x136 JUMPI DUP1 DUP3 ADD MLOAD DUP4 DUP3 ADD MSTORE PUSH1 0x20 ADD PUSH3 0x11C JUMP JUMPDEST POP POP POP POP SWAP1 POP ADD PUSH1 0x40 MSTORE PUSH1 0x20 ADD DUP1 MLOAD PUSH1 0x40 MLOAD SWAP4 SWAP3 SWAP2 SWAP1 DUP5 PUSH5 0x100000000 DUP3 GT ISZERO PUSH3 0x16B JUMPI PUSH1 0x0 DUP1 PUSH3 0x168 PUSH3 0x134E JUMP JUMPDEST POP POP JUMPDEST SWAP1 DUP4 ADD SWAP1 PUSH1 0x20 DUP3 ADD DUP6 DUP2 GT ISZERO PUSH3 0x18C JUMPI PUSH1 0x0 DUP1 PUSH3 0x189 PUSH3 0x134E JUMP JUMPDEST POP POP JUMPDEST DUP3 MLOAD DUP7 PUSH1 0x20 DUP3 MUL DUP4 ADD GT PUSH5 0x100000000 DUP3 GT OR ISZERO PUSH3 0x1B5 JUMPI PUSH1 0x0 DUP1 PUSH3 0x1B2 PUSH3 0x134E JUMP JUMPDEST POP POP JUMPDEST DUP3 MSTORE POP PUSH1 0x20 ADD SWAP1 DUP1 MLOAD SWAP1 PUSH1 0x20 ADD SWAP1 PUSH1 0x20 MUL DUP1 DUP4 DUP4 PUSH1 0x0 JUMPDEST DUP4 DUP2 LT ISZERO PUSH3 0x1E6 JUMPI DUP1 DUP3 ADD MLOAD DUP4 DUP3 ADD MSTORE PUSH1 0x20 ADD PUSH3 0x1CC JUMP JUMPDEST POP POP POP POP SWAP1 POP ADD PUSH1 0x40 MSTORE POP POP POP DUP3 PUSH1 0xF PUSH1 0x18 DUP1 PUSH1 0x20 MUL PUSH1 0x40 MLOAD SWAP1 DUP2 ADD PUSH1 0x40 MSTORE SWAP2 SWAP1 PUSH2 0x300 DUP4 ADD DUP3 DUP5 JUMPDEST DUP2 PUSH3 0x21A PUSH3 0x13BB JUMP JUMPDEST DUP2 MSTORE PUSH1 0x20 ADD SWAP1 PUSH1 0x1 ADD SWAP1 DUP1 DUP4 GT PUSH3 0x20F JUMPI POP DUP11 SWAP4 POP POP POP POP PUSH1 0x1 PUSH1 0x1 PUSH1 0xA0 SHL SUB DUP2 AND PUSH3 0x299 JUMPI PUSH1 0x40 MLOAD PUSH3 0x461BCD PUSH1 0xE5 SHL DUP2 MSTORE PUSH1 0x20 PUSH1 0x4 DUP3 ADD MSTORE PUSH1 0x19 PUSH1 0x24 DUP3 ADD MSTORE PUSH32 0x4F776E657220616464726573732063616E6E6F74206265203000000000000000 PUSH1 0x44 DUP3 ADD MSTORE PUSH1 0x64 ADD PUSH1 0x40 MLOAD DUP1 SWAP2 SUB SWAP1 PUSH3 0x296 PUSH3 0x134E JUMP JUMPDEST POP POP JUMPDEST DUP1 PUSH1 0x0 PUSH1 0x1 DUP2 PUSH3 0x2A9 PUSH3 0x13BB JUMP JUMPDEST DUP2 PUSH1 0x1 PUSH1 0x1 PUSH1 0xA0 SHL SUB MUL NOT AND SWAP1 DUP4 PUSH1 0x1 PUSH1 0x1 PUSH1 0xA0 SHL SUB AND MUL OR SWAP1 PUSH3 0x2CD PUSH3 0x141D JUMP JUMPDEST POP POP POP PUSH32 0xB532073B38C83145E3E5135377A08BF9AAB55BC0FD7C1179CD4FB995D2A5159C PUSH1 0x0 DUP3 PUSH1 0x40 MLOAD PUSH1 0x1 PUSH1 0x1 PUSH1 0xA0 SHL SUB SWAP3 DUP4 AND DUP2 MSTORE SWAP2 AND PUSH1 0x20 DUP3 ADD MSTORE PUSH1 0x40 SWAP1 DUP2 ADD SWAP1 MLOAD DUP1 SWAP2 SUB SWAP1 LOG1 POP PUSH1 0x0 DUP1 DUP1 PUSH3 0x326 PUSH3 0x13BB JUMP JUMPDEST SWAP1 PUSH2 0x100 EXP SWAP1 DIV PUSH1 0x1 PUSH1 0x1 PUSH1 0xA0 SHL SUB AND PUSH1 0x1 PUSH1 0x1 PUSH1 0xA0 SHL SUB AND EQ ISZERO PUSH3 0x391 JUMPI PUSH1 0x40 MLOAD PUSH3 0x461BCD PUSH1 0xE5 SHL DUP2 MSTORE PUSH1 0x20 PUSH1 0x4 DUP3 ADD MSTORE PUSH1 0x11 PUSH1 0x24 DUP3 ADD MSTORE PUSH17 0x13DDDB995C881B5D5CDD081899481CD95D PUSH1 0x7A SHL PUSH1 0x44 DUP3 ADD MSTORE PUSH1 0x64 ADD PUSH1 0x40 MLOAD DUP1 SWAP2 SUB SWAP1 PUSH3 0x38E PUSH3 0x134E JUMP JUMPDEST POP POP JUMPDEST PUSH1 0x0 DUP1 PUSH3 0x39E PUSH3 0x13BB JUMP JUMPDEST SWAP1 PUSH2 0x100 EXP SWAP1 DIV PUSH1 0x1 PUSH1 0x1 PUSH1 0xA0 SHL SUB AND PUSH1 0x3 PUSH1 0x1 PUSH2 0x100 EXP DUP2 PUSH3 0x3C1 PUSH3 0x13BB JUMP JUMPDEST DUP2 PUSH1 0x1 PUSH1 0x1 PUSH1 0xA0 SHL SUB MUL NOT AND SWAP1 DUP4 PUSH1 0x1 PUSH1 0x1 PUSH1 0xA0 SHL SUB AND MUL OR SWAP1 PUSH3 0x3E5 PUSH3 0x141D JUMP JUMPDEST POP POP POP PUSH32 0xD5DA63A0B864B315BC04128DEDBC93888C8529EE6CF47CE664DC204339228C53 PUSH1 0x0 DUP1 SWAP1 PUSH3 0x417 PUSH3 0x13BB JUMP JUMPDEST SWAP1 PUSH2 0x100 EXP SWAP1 DIV PUSH1 0x1 PUSH1 0x1 PUSH1 0xA0 SHL SUB AND PUSH1 0x40 MLOAD PUSH1 0x1 PUSH1 0x1 PUSH1 0xA0 SHL SUB SWAP1 SWAP2 AND DUP2 MSTORE PUSH1 0x20 ADD PUSH1 0x40 MLOAD DUP1 SWAP2 SUB SWAP1 LOG1 PUSH1 0x0 DUP1 DUP1 PUSH3 0x450 PUSH3 0x13BB JUMP JUMPDEST SWAP1 PUSH2 0x100 EXP SWAP1 DIV PUSH1 0x1 PUSH1 0x1 PUSH1 0xA0 SHL SUB AND PUSH1 0x1 PUSH1 0x1 PUSH1 0xA0 SHL SUB AND EQ ISZERO PUSH3 0x4BB JUMPI PUSH1 0x40 MLOAD PUSH3 0x461BCD PUSH1 0xE5 SHL DUP2 MSTORE PUSH1 0x20 PUSH1 0x4 DUP3 ADD MSTORE PUSH1 0x11 PUSH1 0x24 DUP3 ADD MSTORE PUSH17 0x13DDDB995C881B5D5CDD081899481CD95D PUSH1 0x7A SHL PUSH1 0x44 DUP3 ADD MSTORE PUSH1 0x64 ADD PUSH1 0x40 MLOAD DUP1 SWAP2 SUB SWAP1 PUSH3 0x4B8 PUSH3 0x134E JUMP JUMPDEST POP POP JUMPDEST PUSH1 0x0 JUMPDEST PUSH1 0x18 DUP2 LT ISZERO PUSH3 0x54B JUMPI PUSH1 0x0 DUP3 DUP3 PUSH1 0x18 DUP2 LT PUSH3 0x4D7 JUMPI INVALID JUMPDEST PUSH1 0x20 MUL ADD MLOAD EQ PUSH3 0x53C JUMPI PUSH1 0x6 DUP3 DUP3 PUSH1 0x18 DUP2 LT PUSH3 0x4F1 JUMPI INVALID JUMPDEST PUSH1 0x20 MUL ADD MLOAD SWAP1 DUP1 PUSH1 0x1 DUP2 PUSH3 0x505 PUSH3 0x13BB JUMP JUMPDEST ADD DUP1 DUP3 PUSH3 0x512 PUSH3 0x141D JUMP JUMPDEST POP POP PUSH1 0x0 SWAP3 DUP4 MSTORE SWAP2 PUSH1 0x0 NOT DUP4 ADD SWAP2 POP PUSH1 0x20 SWAP1 KECCAK256 SWAP2 SWAP3 SWAP2 ADD PUSH3 0x533 PUSH3 0x141D JUMP JUMPDEST POP POP POP PUSH3 0x542 JUMP JUMPDEST PUSH3 0x54B JUMP JUMPDEST PUSH1 0x1 ADD PUSH3 0x4BE JUMP JUMPDEST POP DUP2 PUSH1 0x4 PUSH1 0x1 DUP2 PUSH3 0x55C PUSH3 0x13BB JUMP JUMPDEST DUP2 PUSH1 0x1 PUSH1 0x1 PUSH1 0xA0 SHL SUB MUL NOT AND SWAP1 DUP4 PUSH1 0x1 PUSH1 0x1 PUSH1 0xA0 SHL SUB AND MUL OR SWAP1 PUSH3 0x580 PUSH3 0x141D JUMP JUMPDEST POP POP POP POP POP PUSH3 0x5A8 PUSH15 0x466C657869626C6553746F72616765 PUSH1 0x88 SHL PUSH3 0x731 PUSH1 0x20 SHL PUSH1 0x20 SHR JUMP JUMPDEST DUP1 MLOAD DUP3 MLOAD EQ PUSH3 0x5F5 JUMPI PUSH1 0x40 MLOAD PUSH3 0x461BCD PUSH1 0xE5 SHL DUP2 MSTORE PUSH1 0x4 ADD DUP1 DUP1 PUSH1 0x20 ADD DUP3 DUP2 SUB DUP3 MSTORE PUSH1 0x2F DUP2 MSTORE PUSH1 0x20 ADD DUP1 PUSH3 0x6EDA PUSH1 0x2F SWAP2 CODECOPY PUSH1 0x40 ADD SWAP2 POP POP PUSH1 0x40 MLOAD DUP1 SWAP2 SUB SWAP1 PUSH3 0x5F2 PUSH3 0x134E JUMP JUMPDEST POP POP JUMPDEST DUP4 PUSH1 0x8 PUSH1 0x1 DUP2 PUSH3 0x605 PUSH3 0x13BB JUMP JUMPDEST DUP2 PUSH1 0x1 PUSH1 0x1 PUSH1 0xA0 SHL SUB MUL NOT AND SWAP1 DUP4 PUSH1 0x1 PUSH1 0x1 PUSH1 0xA0 SHL SUB AND MUL OR SWAP1 PUSH3 0x629 PUSH3 0x141D JUMP JUMPDEST POP POP POP PUSH3 0x705 PUSH4 0x1CD554D1 PUSH1 0xE2 SHL PUSH20 0x0 PUSH4 0x907AF6C0 PUSH1 0x40 MLOAD DUP2 PUSH4 0xFFFFFFFF AND PUSH1 0xE0 SHL DUP2 MSTORE PUSH1 0x4 ADD PUSH1 0x20 PUSH1 0x40 MLOAD DUP1 DUP4 SUB DUP2 DUP7 DUP1 PUSH3 0x679 PUSH3 0x146C JUMP JUMPDEST ISZERO DUP1 ISZERO PUSH3 0x691 JUMPI PUSH1 0x0 DUP1 PUSH3 0x68E PUSH3 0x134E JUMP JUMPDEST POP POP JUMPDEST POP GAS PUSH3 0x69D PUSH3 0x14B9 JUMP JUMPDEST POP POP POP POP POP ISZERO DUP1 ISZERO PUSH3 0x6BF JUMPI RETURNDATASIZE PUSH1 0x0 DUP1 RETURNDATACOPY RETURNDATASIZE PUSH1 0x0 PUSH3 0x6BC PUSH3 0x134E JUMP JUMPDEST POP POP JUMPDEST POP POP POP POP PUSH1 0x40 MLOAD RETURNDATASIZE PUSH1 0x20 DUP2 LT ISZERO PUSH3 0x6E1 JUMPI PUSH1 0x0 DUP1 PUSH3 0x6DE PUSH3 0x134E JUMP JUMPDEST POP POP JUMPDEST DUP2 ADD SWAP1 DUP1 DUP1 MLOAD SWAP3 POP POP POP GAS PUSH3 0x6F6 PUSH3 0x1576 JUMP JUMPDEST PUSH1 0x1 PUSH1 0x1 PUSH1 0xE0 SHL SUB PUSH3 0x8FB AND JUMP JUMPDEST PUSH3 0x725 DUP3 DUP3 GAS PUSH3 0x716 PUSH3 0x1576 JUMP JUMPDEST PUSH1 0x1 PUSH1 0x1 PUSH1 0xE0 SHL SUB PUSH3 0x9F9 AND JUMP JUMPDEST POP POP POP POP POP POP PUSH3 0x1673 JUMP JUMPDEST DUP1 PUSH1 0x6 DUP1 PUSH1 0x1 DUP2 PUSH3 0x742 PUSH3 0x13BB JUMP JUMPDEST ADD DUP1 DUP3 PUSH3 0x74F PUSH3 0x141D JUMP JUMPDEST POP POP PUSH1 0x0 SWAP3 DUP4 MSTORE SWAP2 PUSH1 0x0 NOT DUP4 ADD SWAP2 POP PUSH1 0x20 SWAP1 KECCAK256 SWAP2 SWAP3 SWAP2 ADD PUSH3 0x770 PUSH3 0x141D JUMP JUMPDEST POP POP POP PUSH1 0x18 PUSH1 0x6 DUP1 PUSH3 0x782 PUSH3 0x13BB JUMP JUMPDEST SWAP1 POP LT PUSH3 0x7E1 JUMPI PUSH1 0x40 MLOAD PUSH3 0x461BCD PUSH1 0xE5 SHL DUP2 MSTORE PUSH1 0x20 PUSH1 0x4 DUP3 ADD MSTORE PUSH1 0x1B PUSH1 0x24 DUP3 ADD MSTORE PUSH32 0x4D6178207265736F6C7665722063616368652073697A65206D65740000000000 PUSH1 0x44 DUP3 ADD MSTORE PUSH1 0x64 ADD PUSH1 0x40 MLOAD DUP1 SWAP2 SUB SWAP1 PUSH3 0x7DE PUSH3 0x134E JUMP JUMPDEST POP POP JUMPDEST PUSH1 0x0 PUSH1 0x4 PUSH3 0x7EF PUSH3 0x13BB JUMP JUMPDEST SWAP1 PUSH2 0x100 EXP SWAP1 DIV PUSH1 0x1 PUSH1 0x1 PUSH1 0xA0 SHL SUB AND PUSH1 0x1 PUSH1 0x1 PUSH1 0xA0 SHL SUB AND PUSH4 0x21F8A721 DUP3 PUSH1 0x40 MLOAD PUSH1 0x1 PUSH1 0x1 PUSH1 0xE0 SHL SUB NOT PUSH1 0xE0 DUP5 SWAP1 SHL AND DUP2 MSTORE PUSH1 0x4 DUP2 ADD SWAP2 SWAP1 SWAP2 MSTORE PUSH1 0x24 ADD PUSH1 0x20 PUSH1 0x40 MLOAD DUP1 DUP4 SUB DUP2 DUP7 DUP1 PUSH3 0x842 PUSH3 0x146C JUMP JUMPDEST ISZERO DUP1 ISZERO PUSH3 0x85A JUMPI PUSH1 0x0 DUP1 PUSH3 0x857 PUSH3 0x134E JUMP JUMPDEST POP POP JUMPDEST POP GAS PUSH3 0x866 PUSH3 0x15BD JUMP JUMPDEST POP POP POP POP POP ISZERO DUP1 ISZERO PUSH3 0x888 JUMPI RETURNDATASIZE PUSH1 0x0 DUP1 RETURNDATACOPY RETURNDATASIZE PUSH1 0x0 PUSH3 0x885 PUSH3 0x134E JUMP JUMPDEST POP POP JUMPDEST POP POP POP POP PUSH1 0x40 MLOAD RETURNDATASIZE PUSH1 0x20 DUP2 LT ISZERO PUSH3 0x8AA JUMPI PUSH1 0x0 DUP1 PUSH3 0x8A7 PUSH3 0x134E JUMP JUMPDEST POP POP JUMPDEST DUP2 ADD SWAP1 DUP1 DUP1 MLOAD PUSH1 0x0 DUP6 DUP2 MSTORE PUSH1 0x5 PUSH1 0x20 MSTORE SWAP1 SWAP4 POP PUSH1 0x40 SWAP3 POP SWAP1 POP KECCAK256 PUSH1 0x1 DUP2 PUSH3 0x8D1 PUSH3 0x13BB JUMP JUMPDEST DUP2 PUSH1 0x1 PUSH1 0x1 PUSH1 0xA0 SHL SUB MUL NOT AND SWAP1 DUP4 PUSH1 0x1 PUSH1 0x1 PUSH1 0xA0 SHL SUB AND MUL OR SWAP1 PUSH3 0x8F5 PUSH3 0x141D JUMP JUMPDEST POP POP POP POP JUMP JUMPDEST PUSH1 0x0 DUP4 DUP2 MSTORE PUSH1 0xE PUSH1 0x20 MSTORE PUSH1 0x40 SWAP1 KECCAK256 PUSH1 0x0 DUP2 PUSH3 0x916 PUSH3 0x13BB JUMP JUMPDEST SWAP2 PUSH1 0x1 DUP4 ADD SWAP2 POP PUSH3 0x927 PUSH3 0x141D JUMP JUMPDEST POP POP POP PUSH1 0x40 MLOAD PUSH1 0x40 DUP1 DUP3 ADD DUP2 MSTORE PUSH1 0x1 PUSH1 0x1 PUSH1 0xD8 SHL SUB DUP5 AND DUP3 MSTORE PUSH5 0xFFFFFFFFFF DUP4 AND PUSH1 0x20 DUP1 DUP5 ADD SWAP2 SWAP1 SWAP2 MSTORE PUSH1 0x0 DUP7 DUP2 MSTORE PUSH1 0x7 SWAP1 SWAP2 MSTORE KECCAK256 PUSH1 0x0 DUP6 DUP2 MSTORE PUSH1 0xE PUSH1 0x20 MSTORE PUSH1 0x40 DUP2 KECCAK256 PUSH3 0x974 PUSH3 0x13BB JUMP JUMPDEST DUP2 MSTORE PUSH1 0x20 ADD SWAP1 DUP2 MSTORE PUSH1 0x20 ADD PUSH1 0x0 KECCAK256 DUP2 MLOAD DUP2 PUSH1 0x1 DUP2 PUSH3 0x992 PUSH3 0x13BB JUMP JUMPDEST DUP2 PUSH1 0x1 PUSH1 0x1 PUSH1 0xD8 SHL SUB MUL NOT AND SWAP1 DUP4 PUSH1 0x1 PUSH1 0x1 PUSH1 0xD8 SHL SUB AND MUL OR SWAP1 PUSH3 0x9B6 PUSH3 0x141D JUMP JUMPDEST POP POP POP PUSH1 0x20 DUP3 ADD MLOAD DUP2 PUSH1 0x1 PUSH1 0xD8 SHL DUP2 PUSH3 0x9CF PUSH3 0x13BB JUMP JUMPDEST DUP2 PUSH5 0xFFFFFFFFFF MUL NOT AND SWAP1 DUP4 PUSH5 0xFFFFFFFFFF AND MUL OR SWAP1 PUSH3 0x9EF PUSH3 0x141D JUMP JUMPDEST POP POP POP POP POP POP POP POP JUMP JUMPDEST PUSH1 0x0 DUP3 MLOAD DUP5 MLOAD EQ PUSH3 0xA48 JUMPI PUSH1 0x40 MLOAD PUSH3 0x461BCD PUSH1 0xE5 SHL DUP2 MSTORE PUSH1 0x4 ADD DUP1 DUP1 PUSH1 0x20 ADD DUP3 DUP2 SUB DUP3 MSTORE PUSH1 0x38 DUP2 MSTORE PUSH1 0x20 ADD DUP1 PUSH3 0x6F5B PUSH1 0x38 SWAP2 CODECOPY PUSH1 0x40 ADD SWAP2 POP POP PUSH1 0x40 MLOAD DUP1 SWAP2 SUB SWAP1 PUSH3 0xA45 PUSH3 0x134E JUMP JUMPDEST POP POP JUMPDEST PUSH2 0x258 GAS PUSH3 0xA56 PUSH3 0x1576 JUMP JUMPDEST ADD DUP3 LT PUSH3 0xAB5 JUMPI PUSH1 0x40 MLOAD PUSH3 0x461BCD PUSH1 0xE5 SHL DUP2 MSTORE PUSH1 0x20 PUSH1 0x4 DUP3 ADD MSTORE PUSH1 0x1F PUSH1 0x24 DUP3 ADD MSTORE PUSH32 0x54696D6520697320746F6F2066617220696E746F207468652066757475726500 PUSH1 0x44 DUP3 ADD MSTORE PUSH1 0x64 ADD PUSH1 0x40 MLOAD DUP1 SWAP2 SUB SWAP1 PUSH3 0xAB2 PUSH3 0x134E JUMP JUMPDEST POP POP JUMPDEST PUSH1 0x0 JUMPDEST DUP5 MLOAD DUP2 LT ISZERO PUSH3 0xBE3 JUMPI PUSH1 0x0 DUP6 DUP3 DUP2 MLOAD DUP2 LT PUSH3 0xAD1 JUMPI INVALID JUMPDEST PUSH1 0x20 MUL PUSH1 0x20 ADD ADD MLOAD SWAP1 POP DUP5 DUP3 DUP2 MLOAD DUP2 LT PUSH3 0xAE8 JUMPI INVALID JUMPDEST PUSH1 0x20 MUL PUSH1 0x20 ADD ADD MLOAD PUSH3 0xB38 JUMPI PUSH1 0x40 MLOAD PUSH3 0x461BCD PUSH1 0xE5 SHL DUP2 MSTORE PUSH1 0x4 ADD DUP1 DUP1 PUSH1 0x20 ADD DUP3 DUP2 SUB DUP3 MSTORE PUSH1 0x39 DUP2 MSTORE PUSH1 0x20 ADD DUP1 PUSH3 0x6F93 PUSH1 0x39 SWAP2 CODECOPY PUSH1 0x40 ADD SWAP2 POP POP PUSH1 0x40 MLOAD DUP1 SWAP2 SUB SWAP1 PUSH3 0xB35 PUSH3 0x134E JUMP JUMPDEST POP POP JUMPDEST DUP1 PUSH4 0x1CD554D1 PUSH1 0xE2 SHL EQ ISZERO PUSH3 0xB8B JUMPI PUSH1 0x40 MLOAD PUSH3 0x461BCD PUSH1 0xE5 SHL DUP2 MSTORE PUSH1 0x4 ADD DUP1 DUP1 PUSH1 0x20 ADD DUP3 DUP2 SUB DUP3 MSTORE PUSH1 0x31 DUP2 MSTORE PUSH1 0x20 ADD DUP1 PUSH3 0x6F09 PUSH1 0x31 SWAP2 CODECOPY PUSH1 0x40 ADD SWAP2 POP POP PUSH1 0x40 MLOAD DUP1 SWAP2 SUB SWAP1 PUSH3 0xB88 PUSH3 0x134E JUMP JUMPDEST POP POP JUMPDEST PUSH3 0xB9F DUP2 PUSH1 0x1 PUSH1 0x1 PUSH1 0xE0 SHL SUB PUSH3 0xCAD AND JUMP JUMPDEST DUP5 LT ISZERO PUSH3 0xBAE JUMPI POP PUSH3 0xBDA JUMP JUMPDEST PUSH3 0xBD8 DUP2 DUP7 DUP5 DUP2 MLOAD DUP2 LT PUSH3 0xBC0 JUMPI INVALID JUMPDEST PUSH1 0x20 MUL PUSH1 0x20 ADD ADD MLOAD DUP7 PUSH1 0x1 PUSH1 0x1 PUSH1 0xE0 SHL SUB PUSH3 0x8FB AND JUMP JUMPDEST POP JUMPDEST PUSH1 0x1 ADD PUSH3 0xAB8 JUMP JUMPDEST POP PUSH32 0x1BC0FC8997EFA076F59B5EF02C315BC5390F7A6D24D661CE12128C01A3B0BA57 DUP5 DUP5 PUSH1 0x40 MLOAD DUP1 DUP1 PUSH1 0x20 ADD DUP1 PUSH1 0x20 ADD DUP4 DUP2 SUB DUP4 MSTORE DUP6 DUP2 DUP2 MLOAD DUP2 MSTORE PUSH1 0x20 ADD SWAP2 POP DUP1 MLOAD SWAP1 PUSH1 0x20 ADD SWAP1 PUSH1 0x20 MUL DUP1 DUP4 DUP4 PUSH1 0x0 JUMPDEST DUP4 DUP2 LT ISZERO PUSH3 0xC4D JUMPI DUP1 DUP3 ADD MLOAD DUP4 DUP3 ADD MSTORE PUSH1 0x20 ADD PUSH3 0xC33 JUMP JUMPDEST POP POP POP POP SWAP1 POP ADD DUP4 DUP2 SUB DUP3 MSTORE DUP5 DUP2 DUP2 MLOAD DUP2 MSTORE PUSH1 0x20 ADD SWAP2 POP DUP1 MLOAD SWAP1 PUSH1 0x20 ADD SWAP1 PUSH1 0x20 MUL DUP1 DUP4 DUP4 PUSH1 0x0 JUMPDEST DUP4 DUP2 LT ISZERO PUSH3 0xC8E JUMPI DUP1 DUP3 ADD MLOAD DUP4 DUP3 ADD MSTORE PUSH1 0x20 ADD PUSH3 0xC74 JUMP JUMPDEST POP POP POP POP SWAP1 POP ADD SWAP5 POP POP POP POP POP PUSH1 0x40 MLOAD DUP1 SWAP2 SUB SWAP1 LOG1 POP PUSH1 0x1 SWAP4 SWAP3 POP POP POP JUMP JUMPDEST PUSH1 0x0 PUSH3 0xCC3 DUP3 PUSH1 0x1 PUSH1 0x1 PUSH1 0xE0 SHL SUB PUSH3 0xCD6 AND JUMP JUMPDEST PUSH1 0x20 ADD MLOAD PUSH5 0xFFFFFFFFFF AND SWAP1 POP JUMPDEST SWAP2 SWAP1 POP JUMP JUMPDEST PUSH3 0xCE0 PUSH3 0x1602 JUMP JUMPDEST PUSH1 0x0 DUP3 DUP2 MSTORE PUSH1 0x9 PUSH1 0x20 MSTORE PUSH1 0x40 DUP2 KECCAK256 PUSH1 0x0 SWAP1 PUSH3 0xCFB PUSH3 0x13BB JUMP JUMPDEST PUSH1 0x1 PUSH1 0x1 PUSH1 0xA0 SHL SUB PUSH2 0x100 SWAP3 SWAP1 SWAP3 EXP SWAP1 DIV AND SWAP1 POP DUP1 ISZERO PUSH3 0xEC9 JUMPI PUSH1 0x60 PUSH1 0x40 MLOAD PUSH1 0x24 ADD PUSH1 0x40 MLOAD PUSH1 0x1F NOT DUP2 DUP4 SUB ADD DUP2 MSTORE PUSH1 0x40 SWAP2 SWAP1 SWAP2 MSTORE PUSH4 0x3FABE5A3 PUSH1 0xE2 SHL PUSH1 0x20 DUP3 ADD DUP1 MLOAD PUSH1 0x1 PUSH1 0x1 PUSH1 0xE0 SHL SUB AND SWAP1 SWAP2 OR SWAP1 MSTORE SWAP1 POP PUSH1 0x0 PUSH1 0x60 PUSH1 0x1 PUSH1 0x1 PUSH1 0xA0 SHL SUB DUP5 AND DUP4 PUSH1 0x40 MLOAD DUP1 DUP3 DUP1 MLOAD SWAP1 PUSH1 0x20 ADD SWAP1 DUP1 DUP4 DUP4 JUMPDEST PUSH1 0x20 DUP4 LT PUSH3 0xD8E JUMPI DUP1 MLOAD DUP3 MSTORE PUSH1 0x1F NOT SWAP1 SWAP3 ADD SWAP2 PUSH1 0x20 SWAP2 DUP3 ADD SWAP2 ADD PUSH3 0xD6D JUMP JUMPDEST PUSH1 0x1 DUP4 PUSH1 0x20 SUB PUSH2 0x100 EXP SUB DUP1 NOT DUP3 MLOAD AND DUP2 DUP5 MLOAD AND DUP1 DUP3 OR DUP6 MSTORE POP POP POP POP POP POP SWAP1 POP ADD SWAP2 POP POP PUSH1 0x0 PUSH1 0x40 MLOAD DUP1 DUP4 SUB DUP2 DUP6 GAS PUSH3 0xDC8 PUSH3 0x15BD JUMP JUMPDEST POP POP POP POP POP SWAP2 POP POP RETURNDATASIZE DUP1 PUSH1 0x0 DUP2 EQ PUSH3 0xDFE JUMPI PUSH1 0x40 MLOAD RETURNDATASIZE PUSH1 0x3F ADD PUSH1 0x1F NOT AND DUP2 ADD PUSH1 0x40 MSTORE RETURNDATASIZE DUP2 MSTORE SWAP2 POP RETURNDATASIZE PUSH1 0x0 PUSH1 0x20 DUP5 ADD RETURNDATACOPY PUSH3 0xE03 JUMP JUMPDEST PUSH1 0x60 SWAP2 POP JUMPDEST POP SWAP2 POP SWAP2 POP DUP2 ISZERO PUSH3 0xEC0 JUMPI PUSH1 0x0 DUP1 PUSH1 0x20 DUP4 ADD DUP4 MLOAD PUSH1 0xA0 DUP2 LT ISZERO PUSH3 0xE32 JUMPI PUSH1 0x0 DUP1 PUSH3 0xE2F PUSH3 0x134E JUMP JUMPDEST POP POP JUMPDEST DUP2 ADD SWAP1 DUP1 DUP1 MLOAD SWAP3 SWAP2 SWAP1 PUSH1 0x20 ADD DUP1 MLOAD SWAP3 SWAP2 SWAP1 PUSH1 0x20 ADD DUP1 MLOAD SWAP3 SWAP2 SWAP1 PUSH1 0x20 ADD DUP1 MLOAD SWAP3 SWAP2 SWAP1 PUSH1 0x20 ADD DUP1 MLOAD POP SWAP5 SWAP8 POP SWAP2 SWAP6 POP PUSH1 0x40 SWAP5 POP POP POP POP POP MLOAD PUSH1 0x40 DUP1 DUP3 ADD SWAP1 MSTORE DUP1 PUSH3 0xE99 DUP11 PUSH3 0xE8A DUP2 DUP8 PUSH1 0x1 PUSH1 0x1 PUSH1 0xE0 SHL SUB PUSH3 0xFB0 AND JUMP JUMPDEST PUSH1 0x1 PUSH1 0x1 PUSH1 0xE0 SHL SUB PUSH3 0x10B1 AND JUMP JUMPDEST PUSH1 0x1 PUSH1 0x1 PUSH1 0xD8 SHL SUB AND DUP2 MSTORE PUSH1 0x20 ADD DUP3 PUSH5 0xFFFFFFFFFF AND DUP2 MSTORE POP SWAP7 POP POP POP POP POP POP POP PUSH3 0xCD1 JUMP JUMPDEST POP POP POP PUSH3 0xFAA JUMP JUMPDEST PUSH3 0xED3 PUSH3 0x1602 JUMP JUMPDEST PUSH1 0x0 DUP5 DUP2 MSTORE PUSH1 0x7 PUSH1 0x20 MSTORE PUSH1 0x40 SWAP1 KECCAK256 PUSH1 0x0 DUP6 DUP2 MSTORE PUSH1 0xE PUSH1 0x20 MSTORE PUSH1 0x40 DUP2 KECCAK256 PUSH3 0xEF9 PUSH3 0x13BB JUMP JUMPDEST DUP2 MSTORE PUSH1 0x20 ADD SWAP1 DUP2 MSTORE PUSH1 0x20 ADD PUSH1 0x0 KECCAK256 PUSH1 0x40 MLOAD PUSH1 0x40 DUP1 DUP3 ADD SWAP1 MSTORE SWAP1 DUP2 PUSH1 0x0 DUP3 PUSH3 0xF20 PUSH3 0x13BB JUMP JUMPDEST PUSH1 0x1 PUSH1 0x1 PUSH1 0xD8 SHL SUB PUSH2 0x100 SWAP3 SWAP1 SWAP3 EXP SWAP1 DIV AND DUP2 MSTORE PUSH1 0x20 ADD PUSH1 0x1B DUP3 PUSH3 0xF44 PUSH3 0x13BB JUMP JUMPDEST PUSH5 0xFFFFFFFFFF PUSH2 0x100 SWAP3 SWAP1 SWAP3 EXP SWAP1 DIV AND SWAP1 MSTORE POP SWAP1 POP PUSH1 0x40 MLOAD PUSH1 0x40 DUP1 DUP3 ADD SWAP1 MSTORE DUP1 PUSH3 0xF83 DUP7 DUP5 MLOAD PUSH1 0x1 PUSH1 0x1 PUSH1 0xD8 SHL SUB AND PUSH1 0x1 PUSH1 0x1 PUSH1 0xE0 SHL SUB PUSH3 0x10B1 AND JUMP JUMPDEST PUSH1 0x1 PUSH1 0x1 PUSH1 0xD8 SHL SUB AND DUP2 MSTORE PUSH1 0x20 ADD DUP3 PUSH1 0x20 ADD MLOAD PUSH5 0xFFFFFFFFFF AND DUP2 MSTORE POP SWAP3 POP POP POP PUSH3 0xCD1 JUMP JUMPDEST POP SWAP2 SWAP1 POP JUMP JUMPDEST PUSH1 0x0 DUP1 DUP3 SLT ISZERO PUSH3 0x1012 JUMPI PUSH1 0x40 MLOAD PUSH3 0x461BCD PUSH1 0xE5 SHL DUP2 MSTORE PUSH1 0x20 PUSH1 0x4 DUP3 ADD MSTORE PUSH1 0x1B PUSH1 0x24 DUP3 ADD MSTORE PUSH32 0x4E656761746976652072617465206E6F7420737570706F727465640000000000 PUSH1 0x44 DUP3 ADD MSTORE PUSH1 0x64 ADD PUSH1 0x40 MLOAD DUP1 SWAP2 SUB SWAP1 PUSH3 0x100F PUSH3 0x134E JUMP JUMPDEST POP POP JUMPDEST PUSH1 0x0 DUP4 DUP2 MSTORE PUSH1 0xA PUSH1 0x20 MSTORE PUSH1 0x40 DUP2 KECCAK256 PUSH1 0x0 SWAP1 PUSH3 0x102D PUSH3 0x13BB JUMP JUMPDEST SWAP1 PUSH2 0x100 EXP SWAP1 DIV PUSH1 0xFF AND PUSH1 0xFF AND GT ISZERO PUSH3 0x10A8 JUMPI PUSH1 0x0 DUP4 DUP2 MSTORE PUSH1 0xA PUSH1 0x20 MSTORE PUSH3 0x1080 PUSH1 0x12 PUSH1 0x40 DUP4 KECCAK256 PUSH1 0x0 SWAP1 PUSH3 0x1062 PUSH3 0x13BB JUMP JUMPDEST SWAP1 PUSH2 0x100 EXP SWAP1 DIV PUSH1 0xFF AND PUSH1 0xFF AND PUSH3 0x1228 PUSH1 0x20 SHL PUSH3 0x5170 OR PUSH1 0x20 SHR JUMP JUMPDEST PUSH1 0xA EXP SWAP1 POP PUSH3 0x109F DUP2 DUP5 PUSH3 0x1290 PUSH1 0x20 SHL PUSH3 0x48A3 OR SWAP1 SWAP2 SWAP1 PUSH1 0x20 SHR JUMP JUMPDEST SWAP2 POP POP PUSH3 0x10AB JUMP JUMPDEST POP DUP1 JUMPDEST SWAP3 SWAP2 POP POP JUMP JUMPDEST PUSH1 0x0 PUSH3 0x10BD PUSH3 0x1619 JUMP JUMPDEST PUSH1 0x0 DUP5 DUP2 MSTORE PUSH1 0xC PUSH1 0x20 MSTORE PUSH1 0x40 SWAP1 KECCAK256 PUSH1 0x40 MLOAD PUSH1 0xA0 DUP2 ADD PUSH1 0x40 MSTORE SWAP1 DUP2 DUP2 PUSH3 0x10E2 PUSH3 0x13BB JUMP JUMPDEST DUP2 MSTORE PUSH1 0x20 ADD PUSH1 0x1 DUP3 ADD PUSH3 0x10F5 PUSH3 0x13BB JUMP JUMPDEST DUP2 MSTORE PUSH1 0x20 ADD PUSH1 0x2 DUP3 ADD PUSH3 0x1108 PUSH3 0x13BB JUMP JUMPDEST DUP2 MSTORE PUSH1 0x20 ADD PUSH1 0x0 PUSH1 0x3 DUP4 ADD PUSH3 0x111D PUSH3 0x13BB JUMP JUMPDEST PUSH1 0xFF PUSH2 0x100 SWAP3 SWAP1 SWAP3 EXP SWAP1 DIV AND ISZERO ISZERO DUP2 MSTORE PUSH1 0x20 ADD PUSH1 0x1 PUSH1 0x3 DUP4 ADD PUSH3 0x1140 PUSH3 0x13BB JUMP JUMPDEST PUSH1 0xFF PUSH2 0x100 SWAP3 SWAP1 SWAP3 EXP SWAP1 DIV AND ISZERO ISZERO SWAP1 MSTORE POP SWAP1 POP DUP1 MLOAD ISZERO DUP1 PUSH3 0x1160 JUMPI POP DUP3 ISZERO JUMPDEST ISZERO PUSH3 0x1170 JUMPI DUP3 SWAP2 POP POP PUSH3 0x10AB JUMP JUMPDEST DUP3 SWAP2 POP DUP1 PUSH1 0x60 ADD MLOAD ISZERO PUSH3 0x118B JUMPI DUP1 PUSH1 0x20 ADD MLOAD SWAP2 POP PUSH3 0x1221 JUMP JUMPDEST DUP1 PUSH1 0x80 ADD MLOAD ISZERO PUSH3 0x11A3 JUMPI DUP1 PUSH1 0x40 ADD MLOAD SWAP2 POP PUSH3 0x1221 JUMP JUMPDEST PUSH1 0x0 PUSH3 0x11C1 PUSH1 0x2 DUP4 MLOAD PUSH3 0x1290 PUSH1 0x20 SHL PUSH3 0x48A3 OR SWAP1 SWAP2 SWAP1 PUSH1 0x20 SHR JUMP JUMPDEST SWAP1 POP DUP4 DUP2 GT PUSH3 0x11D5 JUMPI PUSH1 0x0 SWAP3 POP PUSH3 0x11F2 JUMP JUMPDEST PUSH3 0x11EF DUP5 DUP3 PUSH3 0x1228 PUSH1 0x20 SHL PUSH3 0x5170 OR SWAP1 SWAP2 SWAP1 PUSH1 0x20 SHR JUMP JUMPDEST SWAP3 POP JUMPDEST DUP2 PUSH1 0x20 ADD MLOAD DUP4 LT PUSH3 0x120B JUMPI DUP2 PUSH1 0x20 ADD MLOAD SWAP3 POP PUSH3 0x121F JUMP JUMPDEST DUP2 PUSH1 0x40 ADD MLOAD DUP4 GT PUSH3 0x121F JUMPI DUP2 PUSH1 0x40 ADD MLOAD SWAP3 POP JUMPDEST POP JUMPDEST POP SWAP3 SWAP2 POP POP JUMP JUMPDEST PUSH1 0x0 DUP3 DUP3 GT ISZERO PUSH3 0x128A JUMPI PUSH1 0x40 MLOAD PUSH3 0x461BCD PUSH1 0xE5 SHL DUP2 MSTORE PUSH1 0x20 PUSH1 0x4 DUP3 ADD MSTORE PUSH1 0x1E PUSH1 0x24 DUP3 ADD MSTORE PUSH32 0x536166654D6174683A207375627472616374696F6E206F766572666C6F770000 PUSH1 0x44 DUP3 ADD MSTORE PUSH1 0x64 ADD PUSH1 0x40 MLOAD DUP1 SWAP2 SUB SWAP1 PUSH3 0x1287 PUSH3 0x134E JUMP JUMPDEST POP POP JUMPDEST POP SWAP1 SUB SWAP1 JUMP JUMPDEST PUSH1 0x0 DUP3 PUSH3 0x12A1 JUMPI POP PUSH1 0x0 PUSH3 0x10AB JUMP JUMPDEST DUP3 DUP3 MUL DUP3 DUP5 DUP3 DUP2 PUSH3 0x12AF JUMPI INVALID JUMPDEST DIV EQ PUSH3 0x12F9 JUMPI PUSH1 0x40 MLOAD PUSH3 0x461BCD PUSH1 0xE5 SHL DUP2 MSTORE PUSH1 0x4 ADD DUP1 DUP1 PUSH1 0x20 ADD DUP3 DUP2 SUB DUP3 MSTORE PUSH1 0x21 DUP2 MSTORE PUSH1 0x20 ADD DUP1 PUSH3 0x6F3A PUSH1 0x21 SWAP2 CODECOPY PUSH1 0x40 ADD SWAP2 POP POP PUSH1 0x40 MLOAD DUP1 SWAP2 SUB SWAP1 PUSH3 0x12F6 PUSH3 0x134E JUMP JUMPDEST POP POP JUMPDEST SWAP4 SWAP3 POP POP POP JUMP JUMPDEST DUP3 PUSH1 0x18 DUP2 ADD SWAP3 DUP3 ISZERO PUSH3 0x133C JUMPI SWAP2 PUSH1 0x20 MUL DUP3 ADD JUMPDEST DUP3 DUP2 GT ISZERO PUSH3 0x133C JUMPI DUP3 MLOAD DUP3 PUSH3 0x132A PUSH3 0x141D JUMP JUMPDEST POP POP SWAP2 PUSH1 0x20 ADD SWAP2 SWAP1 PUSH1 0x1 ADD SWAP1 PUSH3 0x1314 JUMP JUMPDEST POP PUSH3 0x134A SWAP3 SWAP2 POP PUSH3 0x1646 JUMP JUMPDEST POP SWAP1 JUMP JUMPDEST PUSH4 0x2A2A7ADB MSIZE DUP2 PUSH1 0xE0 SHL DUP2 MSTORE PUSH1 0x4 DUP2 ADD PUSH1 0x20 DUP2 MSTORE DUP6 PUSH1 0x20 DUP3 ADD MSTORE PUSH1 0x0 JUMPDEST DUP7 DUP2 LT ISZERO PUSH3 0x1388 JUMPI DUP1 DUP7 ADD MLOAD DUP3 DUP3 ADD PUSH1 0x40 ADD MSTORE PUSH1 0x20 ADD PUSH3 0x136B JUMP JUMPDEST POP PUSH1 0x20 DUP3 DUP8 PUSH1 0x64 ADD DUP5 CALLER PUSH1 0x0 SWAP1 GAS CALL PC PUSH1 0xE ADD JUMPI RETURNDATASIZE PUSH1 0x0 DUP1 RETURNDATACOPY RETURNDATASIZE PUSH1 0x0 REVERT JUMPDEST RETURNDATASIZE PUSH1 0x1 EQ ISZERO PC PUSH1 0xA ADD JUMPI PUSH1 0x1 PUSH1 0x0 RETURN JUMPDEST POP POP POP JUMP JUMPDEST PUSH4 0x3DAA959 MSIZE DUP2 PUSH1 0xE0 SHL DUP2 MSTORE DUP4 PUSH1 0x4 DUP3 ADD MSTORE PUSH1 0x20 DUP2 PUSH1 0x24 DUP4 CALLER PUSH1 0x0 SWAP1 GAS CALL PC PUSH1 0xE ADD JUMPI RETURNDATASIZE PUSH1 0x0 DUP1 RETURNDATACOPY RETURNDATASIZE PUSH1 0x0 REVERT JUMPDEST RETURNDATASIZE PUSH1 0x1 EQ ISZERO PC PUSH1 0xA ADD JUMPI PUSH1 0x1 PUSH1 0x0 RETURN JUMPDEST DUP1 MLOAD SWAP4 POP PUSH1 0x0 JUMPDEST PUSH1 0x40 DUP2 LT ISZERO PUSH3 0x1418 JUMPI PUSH1 0x0 DUP3 DUP3 ADD MSTORE PUSH1 0x20 ADD PUSH3 0x13FF JUMP JUMPDEST POP POP POP JUMP JUMPDEST PUSH4 0x22BD64C0 MSIZE DUP2 PUSH1 0xE0 SHL DUP2 MSTORE DUP4 PUSH1 0x4 DUP3 ADD MSTORE DUP5 PUSH1 0x24 DUP3 ADD MSTORE PUSH1 0x0 DUP2 PUSH1 0x44 DUP4 CALLER PUSH1 0x0 SWAP1 GAS CALL PC PUSH1 0xE ADD JUMPI RETURNDATASIZE PUSH1 0x0 DUP1 RETURNDATACOPY RETURNDATASIZE PUSH1 0x0 REVERT JUMPDEST RETURNDATASIZE PUSH1 0x1 EQ ISZERO PC PUSH1 0xA ADD JUMPI PUSH1 0x1 PUSH1 0x0 RETURN JUMPDEST PUSH1 0x0 DUP2 MSTORE PUSH1 0x20 PUSH3 0x13FF JUMP JUMPDEST PUSH4 0x8435035B MSIZE DUP2 PUSH1 0xE0 SHL DUP2 MSTORE DUP4 PUSH1 0x4 DUP3 ADD MSTORE PUSH1 0x20 DUP2 PUSH1 0x24 DUP4 CALLER PUSH1 0x0 SWAP1 GAS CALL PC PUSH1 0xE ADD JUMPI RETURNDATASIZE PUSH1 0x0 DUP1 RETURNDATACOPY RETURNDATASIZE PUSH1 0x0 REVERT JUMPDEST RETURNDATASIZE PUSH1 0x1 EQ ISZERO PC PUSH1 0xA ADD JUMPI PUSH1 0x1 PUSH1 0x0 RETURN JUMPDEST DUP1 MLOAD PUSH1 0x0 DUP3 MSTORE SWAP4 POP PUSH1 0x20 PUSH3 0x13FF JUMP JUMPDEST PUSH4 0xFFE73914 MSIZE DUP2 PUSH1 0xE0 SHL DUP2 MSTORE DUP4 PUSH1 0x4 DUP3 ADD MSTORE DUP5 PUSH1 0x24 DUP3 ADD MSTORE PUSH1 0x60 PUSH1 0x44 DUP3 ADD MSTORE DUP7 PUSH1 0x64 DUP3 ADD MSTORE PUSH1 0x84 DUP2 ADD PUSH1 0x0 JUMPDEST DUP9 DUP2 LT ISZERO PUSH3 0x14FF JUMPI DUP1 DUP9 ADD MLOAD DUP3 DUP3 ADD MSTORE PUSH1 0x20 ADD PUSH3 0x14E5 JUMP JUMPDEST POP DUP8 PUSH2 0x104 ADD DUP3 ADD PUSH1 0x60 DUP4 DUP11 PUSH2 0x104 ADD DUP6 CALLER PUSH1 0x0 SWAP1 GAS CALL PC PUSH1 0xE ADD JUMPI RETURNDATASIZE PUSH1 0x0 DUP1 RETURNDATACOPY RETURNDATASIZE PUSH1 0x0 REVERT JUMPDEST RETURNDATASIZE PUSH1 0x1 EQ ISZERO PC PUSH1 0xA ADD JUMPI PUSH1 0x1 PUSH1 0x0 RETURN JUMPDEST DUP3 MLOAD PUSH1 0x40 DUP5 ADD MLOAD RETURNDATASIZE PUSH1 0x0 DUP7 RETURNDATACOPY DUP13 DUP13 DUP3 PUSH1 0x60 DUP9 ADD CALLER POP PUSH1 0x0 PUSH1 0x4 GAS CALL POP MSIZE DUP6 JUMPDEST DUP2 DUP2 LT ISZERO PUSH3 0x156A JUMPI PUSH1 0x0 DUP2 MSTORE PUSH1 0x20 ADD PUSH3 0x1554 JUMP JUMPDEST POP SWAP2 SWAP13 POP POP POP POP POP POP POP JUMP JUMPDEST PUSH4 0xBDBF8C36 MSIZE DUP2 PUSH1 0xE0 SHL DUP2 MSTORE PUSH1 0x20 DUP2 PUSH1 0x4 DUP4 CALLER PUSH1 0x0 SWAP1 GAS CALL PC PUSH1 0xE ADD JUMPI RETURNDATASIZE PUSH1 0x0 DUP1 RETURNDATACOPY RETURNDATASIZE PUSH1 0x0 REVERT JUMPDEST RETURNDATASIZE PUSH1 0x1 EQ ISZERO PC PUSH1 0xA ADD JUMPI PUSH1 0x1 PUSH1 0x0 RETURN JUMPDEST DUP1 MLOAD PUSH1 0x0 DUP3 MSTORE SWAP4 POP PUSH1 0x20 PUSH3 0x13FF JUMP JUMPDEST PUSH4 0x8540661F MSIZE DUP2 PUSH1 0xE0 SHL DUP2 MSTORE DUP4 PUSH1 0x4 DUP3 ADD MSTORE DUP5 PUSH1 0x24 DUP3 ADD MSTORE PUSH1 0x60 PUSH1 0x44 DUP3 ADD MSTORE DUP7 PUSH1 0x64 DUP3 ADD MSTORE PUSH1 0x84 DUP2 ADD PUSH1 0x0 DUP9 DUP2 LT ISZERO PUSH3 0x14FF JUMPI DUP1 DUP9 ADD MLOAD DUP3 DUP3 ADD MSTORE PUSH1 0x20 ADD PUSH3 0x14E5 JUMP JUMPDEST PUSH1 0x40 MLOAD PUSH1 0x40 DUP1 DUP3 ADD SWAP1 MSTORE PUSH1 0x0 DUP1 DUP3 MSTORE PUSH1 0x20 DUP3 ADD MSTORE SWAP1 JUMP JUMPDEST PUSH1 0x40 MLOAD PUSH1 0xA0 DUP2 ADD PUSH1 0x40 SWAP1 DUP2 MSTORE PUSH1 0x0 DUP1 DUP4 MSTORE PUSH1 0x20 DUP4 ADD DUP2 SWAP1 MSTORE SWAP1 DUP3 ADD DUP2 SWAP1 MSTORE PUSH1 0x60 DUP3 ADD DUP2 SWAP1 MSTORE PUSH1 0x80 DUP3 ADD MSTORE SWAP1 JUMP JUMPDEST PUSH3 0x1670 SWAP2 SWAP1 JUMPDEST DUP1 DUP3 GT ISZERO PUSH3 0x134A JUMPI PUSH1 0x0 DUP1 DUP3 PUSH3 0x1664 PUSH3 0x141D JUMP JUMPDEST POP POP POP PUSH1 0x1 ADD PUSH3 0x164D JUMP JUMPDEST SWAP1 JUMP JUMPDEST PUSH2 0x5857 DUP1 PUSH3 0x1683 PUSH1 0x0 CODECOPY PUSH1 0x0 RETURN INVALID PUSH1 0x80 PUSH1 0x40 MSTORE CALLVALUE DUP1 ISZERO PUSH2 0x19 JUMPI PUSH1 0x0 DUP1 PUSH2 0x16 PUSH2 0x5247 JUMP JUMPDEST POP POP JUMPDEST POP PUSH1 0x4 CALLDATASIZE LT PUSH2 0x380 JUMPI PUSH1 0x0 CALLDATALOAD PUSH1 0xE0 SHR DUP1 PUSH4 0x7103353E GT PUSH2 0x1DC JUMPI DUP1 PUSH4 0xB199C764 GT PUSH2 0x10D JUMPI DUP1 PUSH4 0xC6C9D828 GT PUSH2 0xAB JUMPI DUP1 PUSH4 0xCE8480EA GT PUSH2 0x85 JUMPI DUP1 PUSH4 0xCE8480EA EQ PUSH2 0xF92 JUMPI DUP1 PUSH4 0xDE02795E EQ PUSH2 0xFB8 JUMPI DUP1 PUSH4 0xE3235C91 EQ PUSH2 0xFDE JUMPI DUP1 PUSH4 0xFDADBC7E EQ PUSH2 0xFE6 JUMPI PUSH2 0x380 JUMP JUMPDEST DUP1 PUSH4 0xC6C9D828 EQ PUSH2 0xE56 JUMPI DUP1 PUSH4 0xC8E5BBD5 EQ PUSH2 0xE7C JUMPI DUP1 PUSH4 0xC8E6F395 EQ PUSH2 0xF6C JUMPI PUSH2 0x380 JUMP JUMPDEST DUP1 PUSH4 0xBD32AA44 GT PUSH2 0xE7 JUMPI DUP1 PUSH4 0xBD32AA44 EQ PUSH2 0xCB1 JUMPI DUP1 PUSH4 0xBFA005CE EQ PUSH2 0xCB9 JUMPI DUP1 PUSH4 0xC2C8A676 EQ PUSH2 0xDBA JUMPI DUP1 PUSH4 0xC58AAAE6 EQ PUSH2 0xE4E JUMPI PUSH2 0x380 JUMP JUMPDEST DUP1 PUSH4 0xB199C764 EQ PUSH2 0xC25 JUMPI DUP1 PUSH4 0xB295AD34 EQ PUSH2 0xC6D JUMPI DUP1 PUSH4 0xB8225DEC EQ PUSH2 0xCA9 JUMPI PUSH2 0x380 JUMP JUMPDEST DUP1 PUSH4 0x8DA5CB5B GT PUSH2 0x17A JUMPI DUP1 PUSH4 0xA461FC82 GT PUSH2 0x154 JUMPI DUP1 PUSH4 0xA461FC82 EQ PUSH2 0xB90 JUMPI DUP1 PUSH4 0xAB49848C EQ PUSH2 0xB98 JUMPI DUP1 PUSH4 0xAC82F608 EQ PUSH2 0xBD9 JUMPI DUP1 PUSH4 0xAF3AEA86 EQ PUSH2 0xBFF JUMPI PUSH2 0x380 JUMP JUMPDEST DUP1 PUSH4 0x8DA5CB5B EQ PUSH2 0xB5A JUMPI DUP1 PUSH4 0x935F4ABD EQ PUSH2 0xB62 JUMPI DUP1 PUSH4 0x9CB8A26A EQ PUSH2 0xB88 JUMPI PUSH2 0x380 JUMP JUMPDEST DUP1 PUSH4 0x7A018A1E GT PUSH2 0x1B6 JUMPI DUP1 PUSH4 0x7A018A1E EQ PUSH2 0xA9A JUMPI DUP1 PUSH4 0x7ADBF973 EQ PUSH2 0xAC0 JUMPI DUP1 PUSH4 0x7DC0D1D0 EQ PUSH2 0xAFC JUMPI DUP1 PUSH4 0x8295016A EQ PUSH2 0xB04 JUMPI PUSH2 0x380 JUMP JUMPDEST DUP1 PUSH4 0x7103353E EQ PUSH2 0xA13 JUMPI DUP1 PUSH4 0x728DEC29 EQ PUSH2 0xA39 JUMPI DUP1 PUSH4 0x79BA5097 EQ PUSH2 0xA92 JUMPI PUSH2 0x380 JUMP JUMPDEST DUP1 PUSH4 0x2D7371E1 GT PUSH2 0x2B6 JUMPI DUP1 PUSH4 0x4308A94F GT PUSH2 0x254 JUMPI DUP1 PUSH4 0x4F72DEF6 GT PUSH2 0x22E JUMPI DUP1 PUSH4 0x4F72DEF6 EQ PUSH2 0x977 JUMPI DUP1 PUSH4 0x53A47BB7 EQ PUSH2 0x99D JUMPI DUP1 PUSH4 0x631E1444 EQ PUSH2 0x9A5 JUMPI DUP1 PUSH4 0x654A60AC EQ PUSH2 0x9E1 JUMPI PUSH2 0x380 JUMP JUMPDEST DUP1 PUSH4 0x4308A94F EQ PUSH2 0x90B JUMPI DUP1 PUSH4 0x45938849 EQ PUSH2 0x949 JUMPI DUP1 PUSH4 0x4C36B837 EQ PUSH2 0x96F JUMPI PUSH2 0x380 JUMP JUMPDEST DUP1 PUSH4 0x3375FCD1 GT PUSH2 0x290 JUMPI DUP1 PUSH4 0x3375FCD1 EQ PUSH2 0x841 JUMPI DUP1 PUSH4 0x38AA1B99 EQ PUSH2 0x867 JUMPI DUP1 PUSH4 0x3BE99E6F EQ PUSH2 0x88D JUMPI DUP1 PUSH4 0x3F0E084F EQ PUSH2 0x8C9 JUMPI PUSH2 0x380 JUMP JUMPDEST DUP1 PUSH4 0x2D7371E1 EQ PUSH2 0x74E JUMPI DUP1 PUSH4 0x2EA913D4 EQ PUSH2 0x813 JUMPI DUP1 PUSH4 0x3278C960 EQ PUSH2 0x839 JUMPI PUSH2 0x380 JUMP JUMPDEST DUP1 PUSH4 0x1627540C GT PUSH2 0x323 JUMPI DUP1 PUSH4 0x2528F0FE GT PUSH2 0x2FD JUMPI DUP1 PUSH4 0x2528F0FE EQ PUSH2 0x688 JUMPI DUP1 PUSH4 0x266DA16B EQ PUSH2 0x6AE JUMPI DUP1 PUSH4 0x2678DF96 EQ PUSH2 0x6EC JUMPI DUP1 PUSH4 0x2BED9E0C EQ PUSH2 0x728 JUMPI PUSH2 0x380 JUMP JUMPDEST DUP1 PUSH4 0x1627540C EQ PUSH2 0x606 JUMPI DUP1 PUSH4 0x17C70DE4 EQ PUSH2 0x644 JUMPI DUP1 PUSH4 0x20714F88 EQ PUSH2 0x64C JUMPI PUSH2 0x380 JUMP JUMPDEST DUP1 PUSH4 0xA7D36D1 GT PUSH2 0x35F JUMPI DUP1 PUSH4 0xA7D36D1 EQ PUSH2 0x4E0 JUMPI DUP1 PUSH4 0xC71CD23 EQ PUSH2 0x574 JUMPI DUP1 PUSH4 0xEE4951B EQ PUSH2 0x5B4 JUMPI DUP1 PUSH4 0x109E46A2 EQ PUSH2 0x5CE JUMPI PUSH2 0x380 JUMP JUMPDEST DUP1 PUSH3 0x9919C0 EQ PUSH2 0x38E JUMPI DUP1 PUSH4 0x4F3BCEC EQ PUSH2 0x3C8 JUMPI DUP1 PUSH4 0x5A046E5 EQ PUSH2 0x3F9 JUMPI JUMPDEST PUSH1 0x0 DUP1 PUSH2 0x38B PUSH2 0x5247 JUMP JUMPDEST POP POP JUMPDEST PUSH2 0x3B4 PUSH1 0x4 DUP1 CALLDATASIZE SUB PUSH1 0x20 DUP2 LT ISZERO PUSH2 0x3AD JUMPI PUSH1 0x0 DUP1 PUSH2 0x3AA PUSH2 0x5247 JUMP JUMPDEST POP POP JUMPDEST POP CALLDATALOAD PUSH2 0x1012 JUMP JUMPDEST PUSH1 0x40 MLOAD SWAP1 ISZERO ISZERO DUP2 MSTORE PUSH1 0x20 ADD PUSH1 0x40 MLOAD DUP1 SWAP2 SUB SWAP1 RETURN JUMPDEST PUSH2 0x3D0 PUSH2 0x102D JUMP JUMPDEST PUSH1 0x40 MLOAD PUSH20 0xFFFFFFFFFFFFFFFFFFFFFFFFFFFFFFFFFFFFFFFF SWAP1 SWAP2 AND DUP2 MSTORE PUSH1 0x20 ADD PUSH1 0x40 MLOAD DUP1 SWAP2 SUB SWAP1 RETURN JUMPDEST PUSH2 0x48D PUSH1 0x4 DUP1 CALLDATASIZE SUB PUSH1 0x20 DUP2 LT ISZERO PUSH2 0x418 JUMPI PUSH1 0x0 DUP1 PUSH2 0x415 PUSH2 0x5247 JUMP JUMPDEST POP POP JUMPDEST DUP2 ADD SWAP1 PUSH1 0x20 DUP2 ADD DUP2 CALLDATALOAD PUSH5 0x100000000 DUP2 GT ISZERO PUSH2 0x43C JUMPI PUSH1 0x0 DUP1 PUSH2 0x439 PUSH2 0x5247 JUMP JUMPDEST POP POP JUMPDEST DUP3 ADD DUP4 PUSH1 0x20 DUP3 ADD GT ISZERO PUSH2 0x457 JUMPI PUSH1 0x0 DUP1 PUSH2 0x454 PUSH2 0x5247 JUMP JUMPDEST POP POP JUMPDEST DUP1 CALLDATALOAD SWAP1 PUSH1 0x20 ADD SWAP2 DUP5 PUSH1 0x20 DUP4 MUL DUP5 ADD GT PUSH5 0x100000000 DUP4 GT OR ISZERO PUSH2 0x482 JUMPI PUSH1 0x0 DUP1 PUSH2 0x47F PUSH2 0x5247 JUMP JUMPDEST POP POP JUMPDEST POP SWAP1 SWAP3 POP SWAP1 POP PUSH2 0x1059 JUMP JUMPDEST PUSH1 0x40 MLOAD PUSH1 0x20 DUP1 DUP3 MSTORE DUP2 SWAP1 DUP2 ADD DUP4 DUP2 DUP2 MLOAD DUP2 MSTORE PUSH1 0x20 ADD SWAP2 POP DUP1 MLOAD SWAP1 PUSH1 0x20 ADD SWAP1 PUSH1 0x20 MUL DUP1 DUP4 DUP4 PUSH1 0x0 JUMPDEST DUP4 DUP2 LT ISZERO PUSH2 0x4CC JUMPI DUP1 DUP3 ADD MLOAD DUP4 DUP3 ADD MSTORE PUSH1 0x20 ADD PUSH2 0x4B4 JUMP JUMPDEST POP POP POP POP SWAP1 POP ADD SWAP3 POP POP POP PUSH1 0x40 MLOAD DUP1 SWAP2 SUB SWAP1 RETURN JUMPDEST PUSH2 0x3B4 PUSH1 0x4 DUP1 CALLDATASIZE SUB PUSH1 0x20 DUP2 LT ISZERO PUSH2 0x4FF JUMPI PUSH1 0x0 DUP1 PUSH2 0x4FC PUSH2 0x5247 JUMP JUMPDEST POP POP JUMPDEST DUP2 ADD SWAP1 PUSH1 0x20 DUP2 ADD DUP2 CALLDATALOAD PUSH5 0x100000000 DUP2 GT ISZERO PUSH2 0x523 JUMPI PUSH1 0x0 DUP1 PUSH2 0x520 PUSH2 0x5247 JUMP JUMPDEST POP POP JUMPDEST DUP3 ADD DUP4 PUSH1 0x20 DUP3 ADD GT ISZERO PUSH2 0x53E JUMPI PUSH1 0x0 DUP1 PUSH2 0x53B PUSH2 0x5247 JUMP JUMPDEST POP POP JUMPDEST DUP1 CALLDATALOAD SWAP1 PUSH1 0x20 ADD SWAP2 DUP5 PUSH1 0x20 DUP4 MUL DUP5 ADD GT PUSH5 0x100000000 DUP4 GT OR ISZERO PUSH2 0x569 JUMPI PUSH1 0x0 DUP1 PUSH2 0x566 PUSH2 0x5247 JUMP JUMPDEST POP POP JUMPDEST POP SWAP1 SWAP3 POP SWAP1 POP PUSH2 0x10D8 JUMP JUMPDEST PUSH2 0x59A PUSH1 0x4 DUP1 CALLDATASIZE SUB PUSH1 0x20 DUP2 LT ISZERO PUSH2 0x593 JUMPI PUSH1 0x0 DUP1 PUSH2 0x590 PUSH2 0x5247 JUMP JUMPDEST POP POP JUMPDEST POP CALLDATALOAD PUSH2 0x118B JUMP JUMPDEST PUSH1 0x40 MLOAD SWAP2 DUP3 MSTORE ISZERO ISZERO PUSH1 0x20 DUP3 ADD MSTORE PUSH1 0x40 SWAP1 DUP2 ADD SWAP1 MLOAD DUP1 SWAP2 SUB SWAP1 RETURN JUMPDEST PUSH2 0x5BC PUSH2 0x1254 JUMP JUMPDEST PUSH1 0x40 MLOAD SWAP1 DUP2 MSTORE PUSH1 0x20 ADD PUSH1 0x40 MLOAD DUP1 SWAP2 SUB SWAP1 RETURN JUMPDEST PUSH2 0x5BC PUSH1 0x4 DUP1 CALLDATASIZE SUB PUSH1 0x80 DUP2 LT ISZERO PUSH2 0x5ED JUMPI PUSH1 0x0 DUP1 PUSH2 0x5EA PUSH2 0x5247 JUMP JUMPDEST POP POP JUMPDEST POP DUP1 CALLDATALOAD SWAP1 PUSH1 0x20 DUP2 ADD CALLDATALOAD SWAP1 PUSH1 0x40 DUP2 ADD CALLDATALOAD SWAP1 PUSH1 0x60 ADD CALLDATALOAD PUSH2 0x1264 JUMP JUMPDEST PUSH2 0x642 PUSH1 0x4 DUP1 CALLDATASIZE SUB PUSH1 0x20 DUP2 LT ISZERO PUSH2 0x625 JUMPI PUSH1 0x0 DUP1 PUSH2 0x622 PUSH2 0x5247 JUMP JUMPDEST POP POP JUMPDEST POP CALLDATALOAD PUSH20 0xFFFFFFFFFFFFFFFFFFFFFFFFFFFFFFFFFFFFFFFF AND PUSH2 0x12A7 JUMP JUMPDEST STOP JUMPDEST PUSH2 0x5BC PUSH2 0x1348 JUMP JUMPDEST PUSH2 0x642 PUSH1 0x4 DUP1 CALLDATASIZE SUB PUSH1 0x20 DUP2 LT ISZERO PUSH2 0x66B JUMPI PUSH1 0x0 DUP1 PUSH2 0x668 PUSH2 0x5247 JUMP JUMPDEST POP POP JUMPDEST POP CALLDATALOAD PUSH20 0xFFFFFFFFFFFFFFFFFFFFFFFFFFFFFFFFFFFFFFFF AND PUSH2 0x1355 JUMP JUMPDEST PUSH2 0x3B4 PUSH1 0x4 DUP1 CALLDATASIZE SUB PUSH1 0x20 DUP2 LT ISZERO PUSH2 0x6A7 JUMPI PUSH1 0x0 DUP1 PUSH2 0x6A4 PUSH2 0x5247 JUMP JUMPDEST POP POP JUMPDEST POP CALLDATALOAD PUSH2 0x1468 JUMP JUMPDEST PUSH2 0x5BC PUSH1 0x4 DUP1 CALLDATASIZE SUB PUSH1 0xA0 DUP2 LT ISZERO PUSH2 0x6CD JUMPI PUSH1 0x0 DUP1 PUSH2 0x6CA PUSH2 0x5247 JUMP JUMPDEST POP POP JUMPDEST POP DUP1 CALLDATALOAD SWAP1 PUSH1 0x20 DUP2 ADD CALLDATALOAD SWAP1 PUSH1 0x40 DUP2 ADD CALLDATALOAD SWAP1 PUSH1 0x60 DUP2 ADD CALLDATALOAD SWAP1 PUSH1 0x80 ADD CALLDATALOAD PUSH2 0x1488 JUMP JUMPDEST PUSH2 0x48D PUSH1 0x4 DUP1 CALLDATASIZE SUB PUSH1 0x20 DUP2 LT ISZERO PUSH2 0x70B JUMPI PUSH1 0x0 DUP1 PUSH2 0x708 PUSH2 0x5247 JUMP JUMPDEST POP POP JUMPDEST POP CALLDATALOAD PUSH20 0xFFFFFFFFFFFFFFFFFFFFFFFFFFFFFFFFFFFFFFFF AND PUSH2 0x14F5 JUMP JUMPDEST PUSH2 0x642 PUSH1 0x4 DUP1 CALLDATASIZE SUB PUSH1 0x20 DUP2 LT ISZERO PUSH2 0x747 JUMPI PUSH1 0x0 DUP1 PUSH2 0x744 PUSH2 0x5247 JUMP JUMPDEST POP POP JUMPDEST POP CALLDATALOAD PUSH2 0x160E JUMP JUMPDEST PUSH2 0x77A PUSH1 0x4 DUP1 CALLDATASIZE SUB PUSH1 0x40 DUP2 LT ISZERO PUSH2 0x76D JUMPI PUSH1 0x0 DUP1 PUSH2 0x76A PUSH2 0x5247 JUMP JUMPDEST POP POP JUMPDEST POP DUP1 CALLDATALOAD SWAP1 PUSH1 0x20 ADD CALLDATALOAD PUSH2 0x177C JUMP JUMPDEST PUSH1 0x40 MLOAD DUP1 DUP1 PUSH1 0x20 ADD DUP1 PUSH1 0x20 ADD DUP4 DUP2 SUB DUP4 MSTORE DUP6 DUP2 DUP2 MLOAD DUP2 MSTORE PUSH1 0x20 ADD SWAP2 POP DUP1 MLOAD SWAP1 PUSH1 0x20 ADD SWAP1 PUSH1 0x20 MUL DUP1 DUP4 DUP4 PUSH1 0x0 JUMPDEST DUP4 DUP2 LT ISZERO PUSH2 0x7BE JUMPI DUP1 DUP3 ADD MLOAD DUP4 DUP3 ADD MSTORE PUSH1 0x20 ADD PUSH2 0x7A6 JUMP JUMPDEST POP POP POP POP SWAP1 POP ADD DUP4 DUP2 SUB DUP3 MSTORE DUP5 DUP2 DUP2 MLOAD DUP2 MSTORE PUSH1 0x20 ADD SWAP2 POP DUP1 MLOAD SWAP1 PUSH1 0x20 ADD SWAP1 PUSH1 0x20 MUL DUP1 DUP4 DUP4 PUSH1 0x0 JUMPDEST DUP4 DUP2 LT ISZERO PUSH2 0x7FD JUMPI DUP1 DUP3 ADD MLOAD DUP4 DUP3 ADD MSTORE PUSH1 0x20 ADD PUSH2 0x7E5 JUMP JUMPDEST POP POP POP POP SWAP1 POP ADD SWAP5 POP POP POP POP POP PUSH1 0x40 MLOAD DUP1 SWAP2 SUB SWAP1 RETURN JUMPDEST PUSH2 0x5BC PUSH1 0x4 DUP1 CALLDATASIZE SUB PUSH1 0x20 DUP2 LT ISZERO PUSH2 0x832 JUMPI PUSH1 0x0 DUP1 PUSH2 0x82F PUSH2 0x5247 JUMP JUMPDEST POP POP JUMPDEST POP CALLDATALOAD PUSH2 0x186D JUMP JUMPDEST PUSH2 0x642 PUSH2 0x1895 JUMP JUMPDEST PUSH2 0x3B4 PUSH1 0x4 DUP1 CALLDATASIZE SUB PUSH1 0x20 DUP2 LT ISZERO PUSH2 0x860 JUMPI PUSH1 0x0 DUP1 PUSH2 0x85D PUSH2 0x5247 JUMP JUMPDEST POP POP JUMPDEST POP CALLDATALOAD PUSH2 0x1906 JUMP JUMPDEST PUSH2 0x3B4 PUSH1 0x4 DUP1 CALLDATASIZE SUB PUSH1 0x20 DUP2 LT ISZERO PUSH2 0x886 JUMPI PUSH1 0x0 DUP1 PUSH2 0x883 PUSH2 0x5247 JUMP JUMPDEST POP POP JUMPDEST POP CALLDATALOAD PUSH2 0x1A04 JUMP JUMPDEST PUSH2 0x642 PUSH1 0x4 DUP1 CALLDATASIZE SUB PUSH1 0x20 DUP2 LT ISZERO PUSH2 0x8AC JUMPI PUSH1 0x0 DUP1 PUSH2 0x8A9 PUSH2 0x5247 JUMP JUMPDEST POP POP JUMPDEST POP CALLDATALOAD PUSH20 0xFFFFFFFFFFFFFFFFFFFFFFFFFFFFFFFFFFFFFFFF AND PUSH2 0x1A12 JUMP JUMPDEST PUSH2 0x642 PUSH1 0x4 DUP1 CALLDATASIZE SUB PUSH1 0x40 DUP2 LT ISZERO PUSH2 0x8E8 JUMPI PUSH1 0x0 DUP1 PUSH2 0x8E5 PUSH2 0x5247 JUMP JUMPDEST POP POP JUMPDEST POP DUP1 CALLDATALOAD SWAP1 PUSH1 0x20 ADD CALLDATALOAD PUSH20 0xFFFFFFFFFFFFFFFFFFFFFFFFFFFFFFFFFFFFFFFF AND PUSH2 0x1C42 JUMP JUMPDEST PUSH2 0x931 PUSH1 0x4 DUP1 CALLDATASIZE SUB PUSH1 0x20 DUP2 LT ISZERO PUSH2 0x92A JUMPI PUSH1 0x0 DUP1 PUSH2 0x927 PUSH2 0x5247 JUMP JUMPDEST POP POP JUMPDEST POP CALLDATALOAD PUSH2 0x1FDD JUMP JUMPDEST PUSH1 0x40 MLOAD SWAP2 DUP3 MSTORE PUSH1 0x20 DUP3 ADD MSTORE PUSH1 0x40 SWAP1 DUP2 ADD SWAP1 MLOAD DUP1 SWAP2 SUB SWAP1 RETURN JUMPDEST PUSH2 0x642 PUSH1 0x4 DUP1 CALLDATASIZE SUB PUSH1 0x20 DUP2 LT ISZERO PUSH2 0x968 JUMPI PUSH1 0x0 DUP1 PUSH2 0x965 PUSH2 0x5247 JUMP JUMPDEST POP POP JUMPDEST POP CALLDATALOAD PUSH2 0x202A JUMP JUMPDEST PUSH2 0x3D0 PUSH2 0x225C JUMP JUMPDEST PUSH2 0x5BC PUSH1 0x4 DUP1 CALLDATASIZE SUB PUSH1 0x20 DUP2 LT ISZERO PUSH2 0x996 JUMPI PUSH1 0x0 DUP1 PUSH2 0x993 PUSH2 0x5247 JUMP JUMPDEST POP POP JUMPDEST POP CALLDATALOAD PUSH2 0x2266 JUMP JUMPDEST PUSH2 0x3D0 PUSH2 0x2272 JUMP JUMPDEST PUSH2 0x3B4 PUSH1 0x4 DUP1 CALLDATASIZE SUB PUSH1 0x20 DUP2 LT ISZERO PUSH2 0x9C4 JUMPI PUSH1 0x0 DUP1 PUSH2 0x9C1 PUSH2 0x5247 JUMP JUMPDEST POP POP JUMPDEST POP CALLDATALOAD PUSH20 0xFFFFFFFFFFFFFFFFFFFFFFFFFFFFFFFFFFFFFFFF AND PUSH2 0x227E JUMP JUMPDEST PUSH2 0x5BC PUSH1 0x4 DUP1 CALLDATASIZE SUB PUSH1 0x60 DUP2 LT ISZERO PUSH2 0xA00 JUMPI PUSH1 0x0 DUP1 PUSH2 0x9FD PUSH2 0x5247 JUMP JUMPDEST POP POP JUMPDEST POP DUP1 CALLDATALOAD SWAP1 PUSH1 0x20 DUP2 ADD CALLDATALOAD SWAP1 PUSH1 0x40 ADD CALLDATALOAD PUSH2 0x24E5 JUMP JUMPDEST PUSH2 0x3D0 PUSH1 0x4 DUP1 CALLDATASIZE SUB PUSH1 0x20 DUP2 LT ISZERO PUSH2 0xA32 JUMPI PUSH1 0x0 DUP1 PUSH2 0xA2F PUSH2 0x5247 JUMP JUMPDEST POP POP JUMPDEST POP CALLDATALOAD PUSH2 0x24FD JUMP JUMPDEST PUSH2 0xA5F PUSH1 0x4 DUP1 CALLDATASIZE SUB PUSH1 0x20 DUP2 LT ISZERO PUSH2 0xA58 JUMPI PUSH1 0x0 DUP1 PUSH2 0xA55 PUSH2 0x5247 JUMP JUMPDEST POP POP JUMPDEST POP CALLDATALOAD PUSH2 0x2517 JUMP JUMPDEST PUSH1 0x40 MLOAD SWAP5 DUP6 MSTORE PUSH1 0x20 DUP6 ADD SWAP4 SWAP1 SWAP4 MSTORE PUSH1 0x40 DUP1 DUP6 ADD SWAP3 SWAP1 SWAP3 MSTORE ISZERO ISZERO PUSH1 0x60 DUP5 ADD MSTORE SWAP1 ISZERO ISZERO PUSH1 0x80 DUP4 ADD MSTORE PUSH1 0xA0 SWAP1 SWAP2 ADD SWAP1 MLOAD DUP1 SWAP2 SUB SWAP1 RETURN JUMPDEST PUSH2 0x642 PUSH2 0x2582 JUMP JUMPDEST PUSH2 0x5BC PUSH1 0x4 DUP1 CALLDATASIZE SUB PUSH1 0x20 DUP2 LT ISZERO PUSH2 0xAB9 JUMPI PUSH1 0x0 DUP1 PUSH2 0xAB6 PUSH2 0x5247 JUMP JUMPDEST POP POP JUMPDEST POP CALLDATALOAD PUSH2 0x278F JUMP JUMPDEST PUSH2 0x642 PUSH1 0x4 DUP1 CALLDATASIZE SUB PUSH1 0x20 DUP2 LT ISZERO PUSH2 0xADF JUMPI PUSH1 0x0 DUP1 PUSH2 0xADC PUSH2 0x5247 JUMP JUMPDEST POP POP JUMPDEST POP CALLDATALOAD PUSH20 0xFFFFFFFFFFFFFFFFFFFFFFFFFFFFFFFFFFFFFFFF AND PUSH2 0x279A JUMP JUMPDEST PUSH2 0x3D0 PUSH2 0x2865 JUMP JUMPDEST PUSH2 0xB36 PUSH1 0x4 DUP1 CALLDATASIZE SUB PUSH1 0x60 DUP2 LT ISZERO PUSH2 0xB23 JUMPI PUSH1 0x0 DUP1 PUSH2 0xB20 PUSH2 0x5247 JUMP JUMPDEST POP POP JUMPDEST POP DUP1 CALLDATALOAD SWAP1 PUSH1 0x20 DUP2 ADD CALLDATALOAD SWAP1 PUSH1 0x40 ADD CALLDATALOAD PUSH2 0x2871 JUMP JUMPDEST PUSH1 0x40 MLOAD DUP1 DUP5 DUP2 MSTORE PUSH1 0x20 ADD DUP4 DUP2 MSTORE PUSH1 0x20 ADD DUP3 DUP2 MSTORE PUSH1 0x20 ADD SWAP4 POP POP POP POP PUSH1 0x40 MLOAD DUP1 SWAP2 SUB SWAP1 RETURN JUMPDEST PUSH2 0x3D0 PUSH2 0x2891 JUMP JUMPDEST PUSH2 0x5BC PUSH1 0x4 DUP1 CALLDATASIZE SUB PUSH1 0x20 DUP2 LT ISZERO PUSH2 0xB81 JUMPI PUSH1 0x0 DUP1 PUSH2 0xB7E PUSH2 0x5247 JUMP JUMPDEST POP POP JUMPDEST POP CALLDATALOAD PUSH2 0x289C JUMP JUMPDEST PUSH2 0x642 PUSH2 0x28B4 JUMP JUMPDEST PUSH2 0x5BC PUSH2 0x2A11 JUMP JUMPDEST PUSH2 0xBA0 PUSH2 0x2A18 JUMP JUMPDEST PUSH1 0x40 MLOAD DUP1 DUP3 PUSH2 0x300 DUP1 DUP4 DUP4 PUSH1 0x0 JUMPDEST DUP4 DUP2 LT ISZERO PUSH2 0xBC6 JUMPI DUP1 DUP3 ADD MLOAD DUP4 DUP3 ADD MSTORE PUSH1 0x20 ADD PUSH2 0xBAE JUMP JUMPDEST POP POP POP POP SWAP1 POP ADD SWAP2 POP POP PUSH1 0x40 MLOAD DUP1 SWAP2 SUB SWAP1 RETURN JUMPDEST PUSH2 0x5BC PUSH1 0x4 DUP1 CALLDATASIZE SUB PUSH1 0x20 DUP2 LT ISZERO PUSH2 0xBF8 JUMPI PUSH1 0x0 DUP1 PUSH2 0xBF5 PUSH2 0x5247 JUMP JUMPDEST POP POP JUMPDEST POP CALLDATALOAD PUSH2 0x2A7A JUMP JUMPDEST PUSH2 0x3B4 PUSH1 0x4 DUP1 CALLDATASIZE SUB PUSH1 0x20 DUP2 LT ISZERO PUSH2 0xC1E JUMPI PUSH1 0x0 DUP1 PUSH2 0xC1B PUSH2 0x5247 JUMP JUMPDEST POP POP JUMPDEST POP CALLDATALOAD PUSH2 0x2AA9 JUMP JUMPDEST PUSH2 0x642 PUSH1 0x4 DUP1 CALLDATASIZE SUB PUSH1 0xC0 DUP2 LT ISZERO PUSH2 0xC44 JUMPI PUSH1 0x0 DUP1 PUSH2 0xC41 PUSH2 0x5247 JUMP JUMPDEST POP POP JUMPDEST POP DUP1 CALLDATALOAD SWAP1 PUSH1 0x20 DUP2 ADD CALLDATALOAD SWAP1 PUSH1 0x40 DUP2 ADD CALLDATALOAD SWAP1 PUSH1 0x60 DUP2 ADD CALLDATALOAD SWAP1 PUSH1 0x80 DUP2 ADD CALLDATALOAD ISZERO ISZERO SWAP1 PUSH1 0xA0 ADD CALLDATALOAD ISZERO ISZERO PUSH2 0x2AB4 JUMP JUMPDEST PUSH2 0xC93 PUSH1 0x4 DUP1 CALLDATASIZE SUB PUSH1 0x20 DUP2 LT ISZERO PUSH2 0xC8C JUMPI PUSH1 0x0 DUP1 PUSH2 0xC89 PUSH2 0x5247 JUMP JUMPDEST POP POP JUMPDEST POP CALLDATALOAD PUSH2 0x2F5D JUMP JUMPDEST PUSH1 0x40 MLOAD PUSH1 0xFF SWAP1 SWAP2 AND DUP2 MSTORE PUSH1 0x20 ADD PUSH1 0x40 MLOAD DUP1 SWAP2 SUB SWAP1 RETURN JUMPDEST PUSH2 0x3B4 PUSH2 0x2F84 JUMP JUMPDEST PUSH2 0x642 PUSH2 0x2F90 JUMP JUMPDEST PUSH2 0x3B4 PUSH1 0x4 DUP1 CALLDATASIZE SUB PUSH1 0x60 DUP2 LT ISZERO PUSH2 0xCD8 JUMPI PUSH1 0x0 DUP1 PUSH2 0xCD5 PUSH2 0x5247 JUMP JUMPDEST POP POP JUMPDEST DUP2 ADD SWAP1 PUSH1 0x20 DUP2 ADD DUP2 CALLDATALOAD PUSH5 0x100000000 DUP2 GT ISZERO PUSH2 0xCFC JUMPI PUSH1 0x0 DUP1 PUSH2 0xCF9 PUSH2 0x5247 JUMP JUMPDEST POP POP JUMPDEST DUP3 ADD DUP4 PUSH1 0x20 DUP3 ADD GT ISZERO PUSH2 0xD17 JUMPI PUSH1 0x0 DUP1 PUSH2 0xD14 PUSH2 0x5247 JUMP JUMPDEST POP POP JUMPDEST DUP1 CALLDATALOAD SWAP1 PUSH1 0x20 ADD SWAP2 DUP5 PUSH1 0x20 DUP4 MUL DUP5 ADD GT PUSH5 0x100000000 DUP4 GT OR ISZERO PUSH2 0xD42 JUMPI PUSH1 0x0 DUP1 PUSH2 0xD3F PUSH2 0x5247 JUMP JUMPDEST POP POP JUMPDEST SWAP2 SWAP4 SWAP1 SWAP3 SWAP1 SWAP2 PUSH1 0x20 DUP2 ADD SWAP1 CALLDATALOAD PUSH5 0x100000000 DUP2 GT ISZERO PUSH2 0xD69 JUMPI PUSH1 0x0 DUP1 PUSH2 0xD66 PUSH2 0x5247 JUMP JUMPDEST POP POP JUMPDEST DUP3 ADD DUP4 PUSH1 0x20 DUP3 ADD GT ISZERO PUSH2 0xD84 JUMPI PUSH1 0x0 DUP1 PUSH2 0xD81 PUSH2 0x5247 JUMP JUMPDEST POP POP JUMPDEST DUP1 CALLDATALOAD SWAP1 PUSH1 0x20 ADD SWAP2 DUP5 PUSH1 0x20 DUP4 MUL DUP5 ADD GT PUSH5 0x100000000 DUP4 GT OR ISZERO PUSH2 0xDAF JUMPI PUSH1 0x0 DUP1 PUSH2 0xDAC PUSH2 0x5247 JUMP JUMPDEST POP POP JUMPDEST SWAP2 SWAP4 POP SWAP2 POP CALLDATALOAD PUSH2 0x3012 JUMP JUMPDEST PUSH2 0x48D PUSH1 0x4 DUP1 CALLDATASIZE SUB PUSH1 0x20 DUP2 LT ISZERO PUSH2 0xDD9 JUMPI PUSH1 0x0 DUP1 PUSH2 0xDD6 PUSH2 0x5247 JUMP JUMPDEST POP POP JUMPDEST DUP2 ADD SWAP1 PUSH1 0x20 DUP2 ADD DUP2 CALLDATALOAD PUSH5 0x100000000 DUP2 GT ISZERO PUSH2 0xDFD JUMPI PUSH1 0x0 DUP1 PUSH2 0xDFA PUSH2 0x5247 JUMP JUMPDEST POP POP JUMPDEST DUP3 ADD DUP4 PUSH1 0x20 DUP3 ADD GT ISZERO PUSH2 0xE18 JUMPI PUSH1 0x0 DUP1 PUSH2 0xE15 PUSH2 0x5247 JUMP JUMPDEST POP POP JUMPDEST DUP1 CALLDATALOAD SWAP1 PUSH1 0x20 ADD SWAP2 DUP5 PUSH1 0x20 DUP4 MUL DUP5 ADD GT PUSH5 0x100000000 DUP4 GT OR ISZERO PUSH2 0xE43 JUMPI PUSH1 0x0 DUP1 PUSH2 0xE40 PUSH2 0x5247 JUMP JUMPDEST POP POP JUMPDEST POP SWAP1 SWAP3 POP SWAP1 POP PUSH2 0x3133 JUMP JUMPDEST PUSH2 0x3D0 PUSH2 0x31A8 JUMP JUMPDEST PUSH2 0x5BC PUSH1 0x4 DUP1 CALLDATASIZE SUB PUSH1 0x20 DUP2 LT ISZERO PUSH2 0xE75 JUMPI PUSH1 0x0 DUP1 PUSH2 0xE72 PUSH2 0x5247 JUMP JUMPDEST POP POP JUMPDEST POP CALLDATALOAD PUSH2 0x31B4 JUMP JUMPDEST PUSH2 0xF10 PUSH1 0x4 DUP1 CALLDATASIZE SUB PUSH1 0x20 DUP2 LT ISZERO PUSH2 0xE9B JUMPI PUSH1 0x0 DUP1 PUSH2 0xE98 PUSH2 0x5247 JUMP JUMPDEST POP POP JUMPDEST DUP2 ADD SWAP1 PUSH1 0x20 DUP2 ADD DUP2 CALLDATALOAD PUSH5 0x100000000 DUP2 GT ISZERO PUSH2 0xEBF JUMPI PUSH1 0x0 DUP1 PUSH2 0xEBC PUSH2 0x5247 JUMP JUMPDEST POP POP JUMPDEST DUP3 ADD DUP4 PUSH1 0x20 DUP3 ADD GT ISZERO PUSH2 0xEDA JUMPI PUSH1 0x0 DUP1 PUSH2 0xED7 PUSH2 0x5247 JUMP JUMPDEST POP POP JUMPDEST DUP1 CALLDATALOAD SWAP1 PUSH1 0x20 ADD SWAP2 DUP5 PUSH1 0x20 DUP4 MUL DUP5 ADD GT PUSH5 0x100000000 DUP4 GT OR ISZERO PUSH2 0xF05 JUMPI PUSH1 0x0 DUP1 PUSH2 0xF02 PUSH2 0x5247 JUMP JUMPDEST POP POP JUMPDEST POP SWAP1 SWAP3 POP SWAP1 POP PUSH2 0x31C0 JUMP JUMPDEST PUSH1 0x40 MLOAD DUP2 ISZERO ISZERO PUSH1 0x20 DUP3 ADD MSTORE PUSH1 0x40 DUP1 DUP3 MSTORE DUP2 SWAP1 DUP2 ADD DUP5 DUP2 DUP2 MLOAD DUP2 MSTORE PUSH1 0x20 ADD SWAP2 POP DUP1 MLOAD SWAP1 PUSH1 0x20 ADD SWAP1 PUSH1 0x20 MUL DUP1 DUP4 DUP4 PUSH1 0x0 JUMPDEST DUP4 DUP2 LT ISZERO PUSH2 0xF57 JUMPI DUP1 DUP3 ADD MLOAD DUP4 DUP3 ADD MSTORE PUSH1 0x20 ADD PUSH2 0xF3F JUMP JUMPDEST POP POP POP POP SWAP1 POP ADD SWAP4 POP POP POP POP PUSH1 0x40 MLOAD DUP1 SWAP2 SUB SWAP1 RETURN JUMPDEST PUSH2 0x642 PUSH1 0x4 DUP1 CALLDATASIZE SUB PUSH1 0x20 DUP2 LT ISZERO PUSH2 0xF8B JUMPI PUSH1 0x0 DUP1 PUSH2 0xF88 PUSH2 0x5247 JUMP JUMPDEST POP POP JUMPDEST POP CALLDATALOAD PUSH2 0x332E JUMP JUMPDEST PUSH2 0x5BC PUSH1 0x4 DUP1 CALLDATASIZE SUB PUSH1 0x20 DUP2 LT ISZERO PUSH2 0xFB1 JUMPI PUSH1 0x0 DUP1 PUSH2 0xFAE PUSH2 0x5247 JUMP JUMPDEST POP POP JUMPDEST POP CALLDATALOAD PUSH2 0x3491 JUMP JUMPDEST PUSH2 0x642 PUSH1 0x4 DUP1 CALLDATASIZE SUB PUSH1 0x20 DUP2 LT ISZERO PUSH2 0xFD7 JUMPI PUSH1 0x0 DUP1 PUSH2 0xFD4 PUSH2 0x5247 JUMP JUMPDEST POP POP JUMPDEST POP CALLDATALOAD PUSH2 0x349C JUMP JUMPDEST PUSH2 0x5BC PUSH2 0x3714 JUMP JUMPDEST PUSH2 0x931 PUSH1 0x4 DUP1 CALLDATASIZE SUB PUSH1 0x40 DUP2 LT ISZERO PUSH2 0x1005 JUMPI PUSH1 0x0 DUP1 PUSH2 0x1002 PUSH2 0x5247 JUMP JUMPDEST POP POP JUMPDEST POP DUP1 CALLDATALOAD SWAP1 PUSH1 0x20 ADD CALLDATALOAD PUSH2 0x3719 JUMP JUMPDEST PUSH1 0x0 PUSH2 0x1025 DUP3 PUSH2 0x1020 PUSH2 0x3731 JUMP JUMPDEST PUSH2 0x3852 JUMP JUMPDEST SWAP1 POP JUMPDEST SWAP2 SWAP1 POP JUMP JUMPDEST PUSH1 0x0 PUSH1 0x4 PUSH2 0x1039 PUSH2 0x52B2 JUMP JUMPDEST SWAP1 PUSH2 0x100 EXP SWAP1 DIV PUSH20 0xFFFFFFFFFFFFFFFFFFFFFFFFFFFFFFFFFFFFFFFF AND DUP2 JUMP JUMPDEST PUSH1 0x60 DUP1 DUP3 PUSH1 0x40 MLOAD SWAP1 DUP1 DUP3 MSTORE DUP1 PUSH1 0x20 MUL PUSH1 0x20 ADD DUP3 ADD PUSH1 0x40 MSTORE DUP1 ISZERO PUSH2 0x1086 JUMPI DUP2 PUSH1 0x20 ADD PUSH1 0x20 DUP3 MUL DUP1 CODESIZE DUP4 CODECOPY ADD SWAP1 POP JUMPDEST POP SWAP1 POP PUSH1 0x0 JUMPDEST DUP4 DUP2 LT ISZERO PUSH2 0x10CE JUMPI PUSH2 0x10AF DUP6 DUP6 DUP4 DUP2 DUP2 LT PUSH2 0x10A3 JUMPI INVALID JUMPDEST SWAP1 POP PUSH1 0x20 MUL ADD CALLDATALOAD PUSH2 0x389D JUMP JUMPDEST DUP3 DUP3 DUP2 MLOAD DUP2 LT PUSH2 0x10BB JUMPI INVALID JUMPDEST PUSH1 0x20 SWAP1 DUP2 MUL SWAP2 SWAP1 SWAP2 ADD ADD MSTORE PUSH1 0x1 ADD PUSH2 0x108C JUMP JUMPDEST POP SWAP1 POP JUMPDEST SWAP3 SWAP2 POP POP JUMP JUMPDEST PUSH1 0x0 DUP1 PUSH2 0x10E3 PUSH2 0x3731 JUMP JUMPDEST SWAP1 POP PUSH1 0x60 PUSH2 0x1123 DUP6 DUP6 DUP1 DUP1 PUSH1 0x20 MUL PUSH1 0x20 ADD PUSH1 0x40 MLOAD SWAP1 DUP2 ADD PUSH1 0x40 MSTORE DUP1 SWAP4 SWAP3 SWAP2 SWAP1 DUP2 DUP2 MSTORE PUSH1 0x20 ADD DUP4 DUP4 PUSH1 0x20 MUL DUP1 DUP3 DUP5 CALLDATACOPY PUSH1 0x0 SWAP3 ADD SWAP2 SWAP1 SWAP2 MSTORE POP PUSH2 0x38B9 SWAP3 POP POP POP JUMP JUMPDEST SWAP1 POP PUSH1 0x0 JUMPDEST DUP5 DUP2 LT ISZERO PUSH2 0x117F JUMPI DUP2 DUP2 DUP2 MLOAD DUP2 LT PUSH2 0x113C JUMPI INVALID JUMPDEST PUSH1 0x20 MUL PUSH1 0x20 ADD ADD MLOAD DUP1 PUSH2 0x1166 JUMPI POP PUSH2 0x1166 DUP7 DUP7 DUP4 DUP2 DUP2 LT PUSH2 0x1159 JUMPI INVALID JUMPDEST SWAP1 POP PUSH1 0x20 MUL ADD CALLDATALOAD DUP5 PUSH2 0x3852 JUMP JUMPDEST ISZERO PUSH2 0x1177 JUMPI PUSH1 0x1 SWAP4 POP POP POP POP PUSH2 0x10D2 JUMP JUMPDEST PUSH1 0x1 ADD PUSH2 0x1128 JUMP JUMPDEST POP PUSH1 0x0 SWAP6 SWAP5 POP POP POP POP POP JUMP JUMPDEST PUSH1 0x0 DUP1 PUSH2 0x1196 PUSH2 0x530D JUMP JUMPDEST PUSH2 0x119F DUP5 PUSH2 0x3BA3 JUMP JUMPDEST SWAP1 POP DUP4 PUSH32 0x7355534400000000000000000000000000000000000000000000000000000000 EQ ISZERO PUSH2 0x11F5 JUMPI DUP1 MLOAD PUSH27 0xFFFFFFFFFFFFFFFFFFFFFFFFFFFFFFFFFFFFFFFFFFFFFFFFFFFFFF AND SWAP3 POP PUSH1 0x0 SWAP2 POP PUSH2 0x124F SWAP1 POP JUMP JUMPDEST DUP1 MLOAD PUSH2 0x1213 PUSH2 0x1202 PUSH2 0x3731 JUMP JUMPDEST DUP4 PUSH1 0x20 ADD MLOAD PUSH5 0xFFFFFFFFFF AND PUSH2 0x3F2E JUMP JUMPDEST DUP1 PUSH2 0x122A JUMPI POP PUSH2 0x122A DUP6 PUSH2 0x1225 PUSH2 0x3F51 JUMP JUMPDEST PUSH2 0x4007 JUMP JUMPDEST PUSH27 0xFFFFFFFFFFFFFFFFFFFFFFFFFFFFFFFFFFFFFFFFFFFFFFFFFFFFFF SWAP1 SWAP2 AND SWAP4 POP SWAP2 POP POP JUMPDEST SWAP2 POP SWAP2 JUMP JUMPDEST PUSH1 0x0 PUSH2 0x125E PUSH2 0x3731 JUMP JUMPDEST SWAP1 POP JUMPDEST SWAP1 JUMP JUMPDEST PUSH1 0x0 DUP4 DUP2 JUMPDEST PUSH2 0x1276 DUP8 DUP4 PUSH1 0x1 ADD PUSH2 0x418D JUMP JUMPDEST SWAP2 POP POP DUP1 ISZERO DUP1 PUSH2 0x1287 JUMPI POP DUP4 DUP6 ADD DUP2 GT JUMPDEST ISZERO PUSH2 0x1294 JUMPI POP SWAP1 POP PUSH2 0x129F JUMP JUMPDEST PUSH1 0x1 SWAP1 SWAP2 ADD SWAP1 PUSH2 0x1269 JUMP JUMPDEST SWAP5 SWAP4 POP POP POP POP JUMP JUMPDEST PUSH2 0x12AF PUSH2 0x44AC JUMP JUMPDEST DUP1 PUSH1 0x1 DUP1 DUP1 PUSH2 0x12BC PUSH2 0x52B2 JUMP JUMPDEST DUP2 PUSH20 0xFFFFFFFFFFFFFFFFFFFFFFFFFFFFFFFFFFFFFFFF MUL NOT AND SWAP1 DUP4 PUSH20 0xFFFFFFFFFFFFFFFFFFFFFFFFFFFFFFFFFFFFFFFF AND MUL OR SWAP1 PUSH2 0x12F8 PUSH2 0x5324 JUMP JUMPDEST POP POP POP PUSH32 0x906A1C6BD7E3091EA86693DD029A831C19049CE77F1DCE2CE0BAB1CACBABCE22 DUP2 PUSH1 0x40 MLOAD PUSH20 0xFFFFFFFFFFFFFFFFFFFFFFFFFFFFFFFFFFFFFFFF SWAP1 SWAP2 AND DUP2 MSTORE PUSH1 0x20 ADD PUSH1 0x40 MLOAD DUP1 SWAP2 SUB SWAP1 LOG1 POP JUMP JUMPDEST PUSH1 0x2 PUSH2 0x1352 PUSH2 0x52B2 JUMP JUMPDEST DUP2 JUMP JUMPDEST PUSH2 0x135D PUSH2 0x44AC JUMP JUMPDEST PUSH20 0xFFFFFFFFFFFFFFFFFFFFFFFFFFFFFFFFFFFFFFFF DUP2 AND PUSH2 0x13CD JUMPI PUSH1 0x40 MLOAD PUSH3 0x461BCD PUSH1 0xE5 SHL DUP2 MSTORE PUSH1 0x20 PUSH1 0x4 DUP3 ADD MSTORE PUSH1 0x1C PUSH1 0x24 DUP3 ADD MSTORE PUSH32 0x42656E6566696369617279206D757374206E6F74206265207A65726F00000000 PUSH1 0x44 DUP3 ADD MSTORE PUSH1 0x64 ADD PUSH1 0x40 MLOAD DUP1 SWAP2 SUB SWAP1 PUSH2 0x13CA PUSH2 0x5247 JUMP JUMPDEST POP POP JUMPDEST DUP1 PUSH1 0x3 PUSH2 0x100 DUP2 PUSH2 0x13DC PUSH2 0x52B2 JUMP JUMPDEST DUP2 PUSH20 0xFFFFFFFFFFFFFFFFFFFFFFFFFFFFFFFFFFFFFFFF MUL NOT AND SWAP1 DUP4 PUSH20 0xFFFFFFFFFFFFFFFFFFFFFFFFFFFFFFFFFFFFFFFF AND MUL OR SWAP1 PUSH2 0x1418 PUSH2 0x5324 JUMP JUMPDEST POP POP POP PUSH32 0xD5DA63A0B864B315BC04128DEDBC93888C8529EE6CF47CE664DC204339228C53 DUP2 PUSH1 0x40 MLOAD PUSH20 0xFFFFFFFFFFFFFFFFFFFFFFFFFFFFFFFFFFFFFFFF SWAP1 SWAP2 AND DUP2 MSTORE PUSH1 0x20 ADD PUSH1 0x40 MLOAD DUP1 SWAP2 SUB SWAP1 LOG1 POP JUMP JUMPDEST PUSH1 0x0 PUSH2 0x1476 DUP3 PUSH2 0x1020 PUSH2 0x3731 JUMP JUMPDEST DUP1 PUSH2 0x1025 JUMPI POP PUSH2 0x1025 DUP3 PUSH2 0x1225 PUSH2 0x3F51 JUMP JUMPDEST PUSH1 0x0 DUP4 DUP7 EQ ISZERO PUSH2 0x1499 JUMPI POP DUP4 PUSH2 0x14EC JUMP JUMPDEST PUSH1 0x0 PUSH2 0x14A5 DUP8 DUP6 PUSH2 0x418D JUMP JUMPDEST POP SWAP1 POP PUSH1 0x0 PUSH2 0x14B4 DUP7 DUP6 PUSH2 0x418D JUMP JUMPDEST POP SWAP1 POP DUP1 PUSH2 0x14C7 JUMPI PUSH1 0x0 SWAP3 POP POP POP PUSH2 0x14EC JUMP JUMPDEST PUSH2 0x14E7 DUP2 PUSH2 0x14DB DUP10 DUP6 PUSH4 0xFFFFFFFF PUSH2 0x454D AND JUMP JUMPDEST SWAP1 PUSH4 0xFFFFFFFF PUSH2 0x4562 AND JUMP JUMPDEST SWAP3 POP POP POP JUMPDEST SWAP6 SWAP5 POP POP POP POP POP JUMP JUMPDEST PUSH1 0x60 PUSH1 0x0 PUSH1 0xB DUP1 PUSH2 0x1504 PUSH2 0x52B2 JUMP JUMPDEST SWAP1 POP PUSH1 0x40 MLOAD SWAP1 DUP1 DUP3 MSTORE DUP1 PUSH1 0x20 MUL PUSH1 0x20 ADD DUP3 ADD PUSH1 0x40 MSTORE DUP1 ISZERO PUSH2 0x152F JUMPI DUP2 PUSH1 0x20 ADD PUSH1 0x20 DUP3 MUL DUP1 CODESIZE DUP4 CODECOPY ADD SWAP1 POP JUMPDEST POP SWAP2 POP PUSH1 0x0 JUMPDEST PUSH1 0xB DUP1 PUSH2 0x1540 PUSH2 0x52B2 JUMP JUMPDEST SWAP1 POP DUP2 LT ISZERO PUSH2 0x1607 JUMPI PUSH1 0x0 PUSH1 0xB DUP3 DUP2 PUSH2 0x1557 PUSH2 0x52B2 JUMP JUMPDEST DUP2 LT PUSH2 0x155F JUMPI INVALID JUMPDEST SWAP1 PUSH1 0x0 MSTORE PUSH1 0x20 PUSH1 0x0 KECCAK256 ADD PUSH2 0x1571 PUSH2 0x52B2 JUMP JUMPDEST PUSH1 0x0 DUP2 DUP2 MSTORE PUSH1 0x9 PUSH1 0x20 MSTORE SWAP1 SWAP2 POP PUSH20 0xFFFFFFFFFFFFFFFFFFFFFFFFFFFFFFFFFFFFFFFF DUP7 AND SWAP1 PUSH1 0x40 SWAP1 KECCAK256 PUSH1 0x0 SWAP1 PUSH2 0x15A5 PUSH2 0x52B2 JUMP JUMPDEST SWAP1 PUSH2 0x100 EXP SWAP1 DIV PUSH20 0xFFFFFFFFFFFFFFFFFFFFFFFFFFFFFFFFFFFFFFFF AND PUSH20 0xFFFFFFFFFFFFFFFFFFFFFFFFFFFFFFFFFFFFFFFF AND EQ ISZERO PUSH2 0x15FE JUMPI DUP1 DUP5 DUP5 DUP1 PUSH1 0x1 ADD SWAP6 POP DUP2 MLOAD DUP2 LT PUSH2 0x15F1 JUMPI INVALID JUMPDEST PUSH1 0x20 MUL PUSH1 0x20 ADD ADD DUP2 DUP2 MSTORE POP POP JUMPDEST POP PUSH1 0x1 ADD PUSH2 0x1535 JUMP JUMPDEST POP POP SWAP2 SWAP1 POP JUMP JUMPDEST PUSH2 0x1616 PUSH2 0x44AC JUMP JUMPDEST PUSH1 0x0 DUP2 DUP2 MSTORE PUSH1 0x9 PUSH1 0x20 MSTORE PUSH1 0x40 DUP2 KECCAK256 PUSH1 0x0 SWAP1 PUSH2 0x162F PUSH2 0x52B2 JUMP JUMPDEST PUSH20 0xFFFFFFFFFFFFFFFFFFFFFFFFFFFFFFFFFFFFFFFF PUSH2 0x100 SWAP3 SWAP1 SWAP3 EXP SWAP1 DIV AND SWAP1 POP DUP1 PUSH2 0x16AA JUMPI PUSH1 0x40 MLOAD PUSH3 0x461BCD PUSH1 0xE5 SHL DUP2 MSTORE PUSH1 0x20 PUSH1 0x4 DUP3 ADD MSTORE PUSH1 0x1C PUSH1 0x24 DUP3 ADD MSTORE PUSH32 0x4E6F2061676772656761746F722065786973747320666F72206B657900000000 PUSH1 0x44 DUP3 ADD MSTORE PUSH1 0x64 ADD PUSH1 0x40 MLOAD DUP1 SWAP2 SUB SWAP1 PUSH2 0x16A7 PUSH2 0x5247 JUMP JUMPDEST POP POP JUMPDEST PUSH1 0x0 DUP3 DUP2 MSTORE PUSH1 0x9 PUSH1 0x20 MSTORE PUSH1 0x40 SWAP1 KECCAK256 PUSH1 0x1 DUP2 PUSH2 0x16C3 PUSH2 0x52B2 JUMP JUMPDEST SWAP1 PUSH20 0xFFFFFFFFFFFFFFFFFFFFFFFFFFFFFFFFFFFFFFFF MUL NOT AND SWAP1 PUSH2 0x16E5 PUSH2 0x5324 JUMP JUMPDEST POP POP PUSH1 0x0 DUP3 DUP2 MSTORE PUSH1 0xA PUSH1 0x20 MSTORE PUSH1 0x40 SWAP1 KECCAK256 PUSH1 0x1 DUP2 PUSH2 0x1700 PUSH2 0x52B2 JUMP JUMPDEST SWAP1 PUSH1 0xFF MUL NOT AND SWAP1 PUSH2 0x170F PUSH2 0x5324 JUMP JUMPDEST POP POP PUSH1 0x0 PUSH2 0x171E DUP4 PUSH1 0xB PUSH2 0x4577 JUMP JUMPDEST SWAP1 POP DUP1 ISZERO PUSH2 0x1777 JUMPI PUSH32 0xEC70E890FC7DB7DE4059B114C9093A1F41283D18FFCFBCAC45566FEEA4D4F777 DUP4 DUP4 PUSH1 0x40 MLOAD SWAP2 DUP3 MSTORE PUSH20 0xFFFFFFFFFFFFFFFFFFFFFFFFFFFFFFFFFFFFFFFF AND PUSH1 0x20 DUP3 ADD MSTORE PUSH1 0x40 SWAP1 DUP2 ADD SWAP1 MLOAD DUP1 SWAP2 SUB SWAP1 LOG1 JUMPDEST POP POP POP JUMP JUMPDEST PUSH1 0x60 DUP1 DUP3 PUSH1 0x40 MLOAD SWAP1 DUP1 DUP3 MSTORE DUP1 PUSH1 0x20 MUL PUSH1 0x20 ADD DUP3 ADD PUSH1 0x40 MSTORE DUP1 ISZERO PUSH2 0x17A9 JUMPI DUP2 PUSH1 0x20 ADD PUSH1 0x20 DUP3 MUL DUP1 CODESIZE DUP4 CODECOPY ADD SWAP1 POP JUMPDEST POP SWAP2 POP DUP3 PUSH1 0x40 MLOAD SWAP1 DUP1 DUP3 MSTORE DUP1 PUSH1 0x20 MUL PUSH1 0x20 ADD DUP3 ADD PUSH1 0x40 MSTORE DUP1 ISZERO PUSH2 0x17D6 JUMPI DUP2 PUSH1 0x20 ADD PUSH1 0x20 DUP3 MUL DUP1 CODESIZE DUP4 CODECOPY ADD SWAP1 POP JUMPDEST POP SWAP1 POP PUSH1 0x0 PUSH2 0x17E4 DUP6 PUSH2 0x4695 JUMP JUMPDEST SWAP1 POP PUSH1 0x0 JUMPDEST DUP5 DUP2 LT ISZERO PUSH2 0x1863 JUMPI PUSH2 0x17FB DUP7 DUP4 PUSH2 0x418D JUMP JUMPDEST DUP6 DUP4 DUP2 MLOAD DUP2 LT PUSH2 0x1807 JUMPI INVALID JUMPDEST PUSH1 0x20 MUL PUSH1 0x20 ADD ADD DUP6 DUP5 DUP2 MLOAD DUP2 LT PUSH2 0x181A JUMPI INVALID JUMPDEST PUSH1 0x20 SWAP1 DUP2 MUL SWAP2 SWAP1 SWAP2 ADD ADD SWAP2 SWAP1 SWAP2 MSTORE MSTORE DUP2 PUSH2 0x1836 JUMPI POP PUSH2 0x1866 SWAP1 POP JUMP JUMPDEST PUSH32 0xFFFFFFFFFFFFFFFFFFFFFFFFFFFFFFFFFFFFFFFFFFFFFFFFFFFFFFFFFFFFFFFF SWAP1 SWAP2 ADD SWAP1 PUSH1 0x1 ADD PUSH2 0x17E9 JUMP JUMPDEST POP POP JUMPDEST SWAP3 POP SWAP3 SWAP1 POP JUMP JUMPDEST PUSH1 0xD DUP2 DUP2 PUSH2 0x1879 PUSH2 0x52B2 JUMP JUMPDEST DUP2 LT PUSH2 0x1881 JUMPI INVALID JUMPDEST SWAP1 PUSH1 0x0 MSTORE PUSH1 0x20 PUSH1 0x0 KECCAK256 ADD SWAP1 POP PUSH2 0x1352 PUSH2 0x52B2 JUMP JUMPDEST PUSH2 0x189D PUSH2 0x44AC JUMP JUMPDEST PUSH1 0x0 DUP1 PUSH1 0x2 PUSH2 0x18AA PUSH2 0x5324 JUMP JUMPDEST POP POP POP PUSH1 0x0 PUSH1 0x3 PUSH1 0x0 PUSH2 0x100 EXP DUP2 PUSH2 0x18C0 PUSH2 0x52B2 JUMP JUMPDEST DUP2 PUSH1 0xFF MUL NOT AND SWAP1 DUP4 ISZERO ISZERO MUL OR SWAP1 PUSH2 0x18D5 PUSH2 0x5324 JUMP JUMPDEST POP POP POP PUSH32 0x6ADCC7125002935E0AA31697538EBBD65CFDDF20431EB6ECDCFC3E238BFD082C PUSH1 0x40 MLOAD PUSH1 0x40 MLOAD DUP1 SWAP2 SUB SWAP1 LOG1 JUMP JUMPDEST PUSH1 0x0 PUSH2 0x1910 PUSH2 0x5372 JUMP JUMPDEST PUSH1 0x0 DUP4 DUP2 MSTORE PUSH1 0xC PUSH1 0x20 MSTORE PUSH1 0x40 SWAP1 KECCAK256 PUSH1 0x40 MLOAD PUSH1 0xA0 DUP2 ADD PUSH1 0x40 MSTORE SWAP1 DUP2 DUP2 PUSH2 0x1933 PUSH2 0x52B2 JUMP JUMPDEST DUP2 MSTORE PUSH1 0x20 ADD PUSH1 0x1 DUP3 ADD PUSH2 0x1944 PUSH2 0x52B2 JUMP JUMPDEST DUP2 MSTORE PUSH1 0x20 ADD PUSH1 0x2 DUP3 ADD PUSH2 0x1955 PUSH2 0x52B2 JUMP JUMPDEST DUP2 MSTORE PUSH1 0x20 ADD PUSH1 0x0 PUSH1 0x3 DUP4 ADD PUSH2 0x1968 PUSH2 0x52B2 JUMP JUMPDEST PUSH1 0xFF PUSH2 0x100 SWAP3 SWAP1 SWAP3 EXP SWAP1 DIV AND ISZERO ISZERO DUP2 MSTORE PUSH1 0x20 ADD PUSH1 0x1 PUSH1 0x3 DUP4 ADD PUSH2 0x1989 PUSH2 0x52B2 JUMP JUMPDEST PUSH1 0xFF PUSH2 0x100 SWAP3 SWAP1 SWAP3 EXP SWAP1 DIV AND ISZERO ISZERO SWAP1 MSTORE POP SWAP1 POP DUP1 MLOAD ISZERO DUP1 PUSH2 0x19AB JUMPI POP DUP1 PUSH1 0x60 ADD MLOAD JUMPDEST DUP1 PUSH2 0x19B7 JUMPI POP DUP1 PUSH1 0x80 ADD MLOAD JUMPDEST ISZERO PUSH2 0x19C6 JUMPI PUSH1 0x0 SWAP2 POP POP PUSH2 0x1028 JUMP JUMPDEST PUSH1 0x0 PUSH2 0x19D1 DUP5 PUSH2 0x2A7A JUMP JUMPDEST SWAP1 POP PUSH1 0x0 DUP2 GT DUP1 ISZERO PUSH2 0x19F5 JUMPI POP DUP2 PUSH1 0x20 ADD MLOAD DUP2 LT ISZERO DUP1 PUSH2 0x19F5 JUMPI POP DUP2 PUSH1 0x40 ADD MLOAD DUP2 GT ISZERO JUMPDEST SWAP3 POP POP POP PUSH2 0x1028 JUMP JUMPDEST POP SWAP2 SWAP1 POP JUMP JUMPDEST PUSH1 0x0 PUSH2 0x1025 DUP3 PUSH2 0x1225 PUSH2 0x3F51 JUMP JUMPDEST PUSH2 0x1A1A PUSH2 0x44AC JUMP JUMPDEST DUP1 PUSH1 0x4 PUSH1 0x1 DUP2 PUSH2 0x1A28 PUSH2 0x52B2 JUMP JUMPDEST DUP2 PUSH20 0xFFFFFFFFFFFFFFFFFFFFFFFFFFFFFFFFFFFFFFFF MUL NOT AND SWAP1 DUP4 PUSH20 0xFFFFFFFFFFFFFFFFFFFFFFFFFFFFFFFFFFFFFFFF AND MUL OR SWAP1 PUSH2 0x1A64 PUSH2 0x5324 JUMP JUMPDEST POP PUSH1 0x0 SWAP2 POP POP JUMPDEST PUSH1 0x6 DUP1 PUSH2 0x1A76 PUSH2 0x52B2 JUMP JUMPDEST SWAP1 POP DUP2 LT ISZERO PUSH2 0x1C3E JUMPI PUSH1 0x0 PUSH1 0x6 DUP3 DUP2 PUSH2 0x1A8D PUSH2 0x52B2 JUMP JUMPDEST DUP2 LT PUSH2 0x1A95 JUMPI INVALID JUMPDEST SWAP1 PUSH1 0x0 MSTORE PUSH1 0x20 PUSH1 0x0 KECCAK256 ADD PUSH2 0x1AA7 PUSH2 0x52B2 JUMP JUMPDEST SWAP1 POP PUSH1 0x0 PUSH1 0x4 PUSH2 0x1AB5 PUSH2 0x52B2 JUMP JUMPDEST SWAP1 PUSH2 0x100 EXP SWAP1 DIV PUSH20 0xFFFFFFFFFFFFFFFFFFFFFFFFFFFFFFFFFFFFFFFF AND PUSH20 0xFFFFFFFFFFFFFFFFFFFFFFFFFFFFFFFFFFFFFFFF AND PUSH4 0xDACB2D01 DUP3 PUSH1 0x40 MLOAD PUSH32 0xFFFFFFFF00000000000000000000000000000000000000000000000000000000 PUSH1 0xE0 DUP5 SWAP1 SHL AND DUP2 MSTORE PUSH1 0x4 DUP2 ADD SWAP2 SWAP1 SWAP2 MSTORE PUSH1 0x40 PUSH1 0x24 DUP3 ADD DUP2 SWAP1 MSTORE PUSH1 0x17 PUSH1 0x44 DUP4 ADD MSTORE PUSH32 0x5265736F6C766572206D697373696E6720746172676574000000000000000000 PUSH1 0x64 DUP4 ADD MSTORE PUSH1 0x84 SWAP1 SWAP2 ADD SWAP1 PUSH1 0x20 SWAP1 MLOAD DUP1 DUP4 SUB DUP2 DUP7 DUP1 PUSH2 0x1B70 PUSH2 0x539F JUMP JUMPDEST ISZERO DUP1 ISZERO PUSH2 0x1B85 JUMPI PUSH1 0x0 DUP1 PUSH2 0x1B82 PUSH2 0x5247 JUMP JUMPDEST POP POP JUMPDEST POP GAS PUSH2 0x1B8F PUSH2 0x53EB JUMP JUMPDEST POP POP POP POP POP ISZERO DUP1 ISZERO PUSH2 0x1BAE JUMPI RETURNDATASIZE PUSH1 0x0 DUP1 RETURNDATACOPY RETURNDATASIZE PUSH1 0x0 PUSH2 0x1BAB PUSH2 0x5247 JUMP JUMPDEST POP POP JUMPDEST POP POP POP POP PUSH1 0x40 MLOAD RETURNDATASIZE PUSH1 0x20 DUP2 LT ISZERO PUSH2 0x1BCD JUMPI PUSH1 0x0 DUP1 PUSH2 0x1BCA PUSH2 0x5247 JUMP JUMPDEST POP POP JUMPDEST DUP2 ADD SWAP1 DUP1 DUP1 MLOAD PUSH1 0x0 DUP6 DUP2 MSTORE PUSH1 0x5 PUSH1 0x20 MSTORE SWAP1 SWAP4 POP PUSH1 0x40 SWAP3 POP SWAP1 POP KECCAK256 PUSH1 0x1 DUP2 PUSH2 0x1BF2 PUSH2 0x52B2 JUMP JUMPDEST DUP2 PUSH20 0xFFFFFFFFFFFFFFFFFFFFFFFFFFFFFFFFFFFFFFFF MUL NOT AND SWAP1 DUP4 PUSH20 0xFFFFFFFFFFFFFFFFFFFFFFFFFFFFFFFFFFFFFFFF AND MUL OR SWAP1 PUSH2 0x1C2E PUSH2 0x5324 JUMP JUMPDEST POP POP PUSH1 0x1 SWAP1 SWAP3 ADD SWAP2 POP PUSH2 0x1A6B SWAP1 POP JUMP JUMPDEST POP POP JUMP JUMPDEST PUSH2 0x1C4A PUSH2 0x44AC JUMP JUMPDEST DUP1 PUSH1 0x0 PUSH20 0xFFFFFFFFFFFFFFFFFFFFFFFFFFFFFFFFFFFFFFFF DUP3 AND PUSH4 0x668A0F02 PUSH1 0x40 MLOAD DUP2 PUSH4 0xFFFFFFFF AND PUSH1 0xE0 SHL DUP2 MSTORE PUSH1 0x4 ADD PUSH1 0x20 PUSH1 0x40 MLOAD DUP1 DUP4 SUB DUP2 DUP7 DUP1 PUSH2 0x1C8E PUSH2 0x539F JUMP JUMPDEST ISZERO DUP1 ISZERO PUSH2 0x1CA3 JUMPI PUSH1 0x0 DUP1 PUSH2 0x1CA0 PUSH2 0x5247 JUMP JUMPDEST POP POP JUMPDEST POP GAS PUSH2 0x1CAD PUSH2 0x53EB JUMP JUMPDEST POP POP POP POP POP ISZERO DUP1 ISZERO PUSH2 0x1CCC JUMPI RETURNDATASIZE PUSH1 0x0 DUP1 RETURNDATACOPY RETURNDATASIZE PUSH1 0x0 PUSH2 0x1CC9 PUSH2 0x5247 JUMP JUMPDEST POP POP JUMPDEST POP POP POP POP PUSH1 0x40 MLOAD RETURNDATASIZE PUSH1 0x20 DUP2 LT ISZERO PUSH2 0x1CEB JUMPI PUSH1 0x0 DUP1 PUSH2 0x1CE8 PUSH2 0x5247 JUMP JUMPDEST POP POP JUMPDEST DUP2 ADD SWAP1 DUP1 DUP1 MLOAD SWAP4 SWAP1 SWAP4 LT ISZERO SWAP3 POP PUSH2 0x1D54 SWAP2 POP POP JUMPI PUSH1 0x40 MLOAD PUSH3 0x461BCD PUSH1 0xE5 SHL DUP2 MSTORE PUSH1 0x20 PUSH1 0x4 DUP3 ADD MSTORE PUSH1 0x1B PUSH1 0x24 DUP3 ADD MSTORE PUSH32 0x476976656E2041676772656761746F7220697320696E76616C69640000000000 PUSH1 0x44 DUP3 ADD MSTORE PUSH1 0x64 ADD PUSH1 0x40 MLOAD DUP1 SWAP2 SUB SWAP1 PUSH2 0x1D51 PUSH2 0x5247 JUMP JUMPDEST POP POP JUMPDEST PUSH1 0x0 DUP2 PUSH20 0xFFFFFFFFFFFFFFFFFFFFFFFFFFFFFFFFFFFFFFFF AND PUSH4 0x313CE567 PUSH1 0x40 MLOAD DUP2 PUSH4 0xFFFFFFFF AND PUSH1 0xE0 SHL DUP2 MSTORE PUSH1 0x4 ADD PUSH1 0x20 PUSH1 0x40 MLOAD DUP1 DUP4 SUB DUP2 DUP7 DUP1 PUSH2 0x1D97 PUSH2 0x539F JUMP JUMPDEST ISZERO DUP1 ISZERO PUSH2 0x1DAC JUMPI PUSH1 0x0 DUP1 PUSH2 0x1DA9 PUSH2 0x5247 JUMP JUMPDEST POP POP JUMPDEST POP GAS PUSH2 0x1DB6 PUSH2 0x53EB JUMP JUMPDEST POP POP POP POP POP ISZERO DUP1 ISZERO PUSH2 0x1DD5 JUMPI RETURNDATASIZE PUSH1 0x0 DUP1 RETURNDATACOPY RETURNDATASIZE PUSH1 0x0 PUSH2 0x1DD2 PUSH2 0x5247 JUMP JUMPDEST POP POP JUMPDEST POP POP POP POP PUSH1 0x40 MLOAD RETURNDATASIZE PUSH1 0x20 DUP2 LT ISZERO PUSH2 0x1DF4 JUMPI PUSH1 0x0 DUP1 PUSH2 0x1DF1 PUSH2 0x5247 JUMP JUMPDEST POP POP JUMPDEST DUP2 ADD SWAP1 DUP1 DUP1 MLOAD SWAP4 POP POP POP PUSH1 0x12 PUSH1 0xFF DUP4 AND GT ISZERO SWAP1 POP PUSH2 0x1E4C JUMPI PUSH1 0x40 MLOAD PUSH3 0x461BCD PUSH1 0xE5 SHL DUP2 MSTORE PUSH1 0x4 ADD DUP1 DUP1 PUSH1 0x20 ADD DUP3 DUP2 SUB DUP3 MSTORE PUSH1 0x32 DUP2 MSTORE PUSH1 0x20 ADD DUP1 PUSH2 0x57C5 PUSH1 0x32 SWAP2 CODECOPY PUSH1 0x40 ADD SWAP2 POP POP PUSH1 0x40 MLOAD DUP1 SWAP2 SUB SWAP1 PUSH2 0x1E49 PUSH2 0x5247 JUMP JUMPDEST POP POP JUMPDEST PUSH1 0x0 DUP5 DUP2 MSTORE PUSH1 0x9 PUSH1 0x20 MSTORE PUSH1 0x40 DUP2 KECCAK256 PUSH1 0x0 SWAP1 PUSH2 0x1E65 PUSH2 0x52B2 JUMP JUMPDEST SWAP1 PUSH2 0x100 EXP SWAP1 DIV PUSH20 0xFFFFFFFFFFFFFFFFFFFFFFFFFFFFFFFFFFFFFFFF AND PUSH20 0xFFFFFFFFFFFFFFFFFFFFFFFFFFFFFFFFFFFFFFFF AND EQ ISZERO PUSH2 0x1EF9 JUMPI DUP4 PUSH1 0xB DUP1 PUSH1 0x1 DUP2 PUSH2 0x1EAD PUSH2 0x52B2 JUMP JUMPDEST ADD DUP1 DUP3 PUSH2 0x1EB8 PUSH2 0x5324 JUMP JUMPDEST POP POP PUSH1 0x0 SWAP3 DUP4 MSTORE SWAP2 PUSH32 0xFFFFFFFFFFFFFFFFFFFFFFFFFFFFFFFFFFFFFFFFFFFFFFFFFFFFFFFFFFFFFFFF DUP4 ADD SWAP2 POP PUSH1 0x20 SWAP1 KECCAK256 SWAP2 SWAP3 SWAP2 ADD PUSH2 0x1EF5 PUSH2 0x5324 JUMP JUMPDEST POP POP POP JUMPDEST PUSH1 0x0 DUP5 DUP2 MSTORE PUSH1 0x9 PUSH1 0x20 MSTORE DUP3 SWAP1 PUSH1 0x40 SWAP1 KECCAK256 PUSH1 0x1 DUP2 PUSH2 0x1F14 PUSH2 0x52B2 JUMP JUMPDEST DUP2 PUSH20 0xFFFFFFFFFFFFFFFFFFFFFFFFFFFFFFFFFFFFFFFF MUL NOT AND SWAP1 DUP4 PUSH20 0xFFFFFFFFFFFFFFFFFFFFFFFFFFFFFFFFFFFFFFFF AND MUL OR SWAP1 PUSH2 0x1F50 PUSH2 0x5324 JUMP JUMPDEST POP POP POP PUSH1 0x0 DUP5 DUP2 MSTORE PUSH1 0xA PUSH1 0x20 MSTORE DUP2 SWAP1 PUSH1 0x40 SWAP1 KECCAK256 PUSH1 0x1 DUP2 PUSH2 0x1F6E PUSH2 0x52B2 JUMP JUMPDEST DUP2 PUSH1 0xFF MUL NOT AND SWAP1 DUP4 PUSH1 0xFF AND MUL OR SWAP1 PUSH2 0x1F84 PUSH2 0x5324 JUMP JUMPDEST POP POP POP PUSH32 0xBCAE573430F69C5361E5D76534D3F61D2D803958778680CD74BE9DC6299BC63 DUP5 DUP4 PUSH1 0x40 MLOAD SWAP2 DUP3 MSTORE PUSH20 0xFFFFFFFFFFFFFFFFFFFFFFFFFFFFFFFFFFFFFFFF AND PUSH1 0x20 DUP3 ADD MSTORE PUSH1 0x40 SWAP1 DUP2 ADD SWAP1 MLOAD DUP1 SWAP2 SUB SWAP1 LOG1 POP POP POP POP JUMP JUMPDEST PUSH1 0x0 DUP1 PUSH2 0x1FE8 PUSH2 0x530D JUMP JUMPDEST PUSH2 0x1FF1 DUP5 PUSH2 0x3BA3 JUMP JUMPDEST SWAP1 POP DUP1 MLOAD DUP2 PUSH1 0x20 ADD MLOAD PUSH27 0xFFFFFFFFFFFFFFFFFFFFFFFFFFFFFFFFFFFFFFFFFFFFFFFFFFFFFF SWAP1 SWAP2 AND SWAP4 POP PUSH5 0xFFFFFFFFFF AND SWAP2 POP POP SWAP2 POP SWAP2 JUMP JUMPDEST PUSH1 0x0 PUSH1 0x8 PUSH2 0x2036 PUSH2 0x52B2 JUMP JUMPDEST SWAP1 PUSH2 0x100 EXP SWAP1 DIV PUSH20 0xFFFFFFFFFFFFFFFFFFFFFFFFFFFFFFFFFFFFFFFF AND PUSH20 0xFFFFFFFFFFFFFFFFFFFFFFFFFFFFFFFFFFFFFFFF AND GAS PUSH2 0x2072 PUSH2 0x54A4 JUMP JUMPDEST PUSH20 0xFFFFFFFFFFFFFFFFFFFFFFFFFFFFFFFFFFFFFFFF AND EQ PUSH2 0x20CD JUMPI PUSH1 0x40 MLOAD PUSH3 0x461BCD PUSH1 0xE5 SHL DUP2 MSTORE PUSH1 0x4 ADD DUP1 DUP1 PUSH1 0x20 ADD DUP3 DUP2 SUB DUP3 MSTORE PUSH1 0x27 DUP2 MSTORE PUSH1 0x20 ADD DUP1 PUSH2 0x56C1 PUSH1 0x27 SWAP2 CODECOPY PUSH1 0x40 ADD SWAP2 POP POP PUSH1 0x40 MLOAD DUP1 SWAP2 SUB SWAP1 PUSH2 0x20CA PUSH2 0x5247 JUMP JUMPDEST POP POP JUMPDEST PUSH1 0x0 PUSH2 0x20D8 DUP3 PUSH2 0x2A7A JUMP JUMPDEST GT PUSH2 0x2132 JUMPI PUSH1 0x40 MLOAD PUSH3 0x461BCD PUSH1 0xE5 SHL DUP2 MSTORE PUSH1 0x20 PUSH1 0x4 DUP3 ADD MSTORE PUSH1 0xC PUSH1 0x24 DUP3 ADD MSTORE PUSH32 0x52617465206973207A65726F0000000000000000000000000000000000000000 PUSH1 0x44 DUP3 ADD MSTORE PUSH1 0x64 ADD PUSH1 0x40 MLOAD DUP1 SWAP2 SUB SWAP1 PUSH2 0x212F PUSH2 0x5247 JUMP JUMPDEST POP POP JUMPDEST PUSH1 0x0 DUP2 DUP2 MSTORE PUSH1 0x7 PUSH1 0x20 MSTORE PUSH1 0x40 SWAP1 KECCAK256 PUSH1 0x0 DUP3 DUP2 MSTORE PUSH1 0xE PUSH1 0x20 MSTORE PUSH1 0x40 DUP2 KECCAK256 PUSH2 0x2156 PUSH2 0x52B2 JUMP JUMPDEST DUP2 MSTORE PUSH1 0x20 ADD SWAP1 DUP2 MSTORE PUSH1 0x20 ADD PUSH1 0x0 KECCAK256 PUSH1 0x0 DUP2 PUSH1 0x1 DUP2 PUSH2 0x2172 PUSH2 0x52B2 JUMP JUMPDEST SWAP1 PUSH27 0xFFFFFFFFFFFFFFFFFFFFFFFFFFFFFFFFFFFFFFFFFFFFFFFFFFFFFF MUL NOT AND SWAP1 PUSH2 0x219B PUSH2 0x5324 JUMP JUMPDEST POP DUP3 SWAP1 POP PUSH28 0x1000000000000000000000000000000000000000000000000000000 DUP2 PUSH2 0x21C5 PUSH2 0x52B2 JUMP JUMPDEST SWAP1 PUSH5 0xFFFFFFFFFF MUL NOT AND SWAP1 PUSH2 0x21D8 PUSH2 0x5324 JUMP JUMPDEST POP POP POP PUSH1 0x0 DUP3 DUP2 MSTORE PUSH1 0xE PUSH1 0x20 MSTORE PUSH1 0x40 SWAP2 POP KECCAK256 PUSH1 0x0 DUP2 PUSH2 0x21F5 PUSH2 0x52B2 JUMP JUMPDEST SWAP2 PUSH32 0xFFFFFFFFFFFFFFFFFFFFFFFFFFFFFFFFFFFFFFFFFFFFFFFFFFFFFFFFFFFFFFFF DUP4 ADD SWAP2 POP PUSH2 0x2223 PUSH2 0x5324 JUMP JUMPDEST POP POP POP PUSH32 0xE69D655565C7FF1353D8EAEEA62FB7904FA9696987431EC351BE288C865F1AE1 DUP2 PUSH1 0x40 MLOAD SWAP1 DUP2 MSTORE PUSH1 0x20 ADD PUSH1 0x40 MLOAD DUP1 SWAP2 SUB SWAP1 LOG1 POP JUMP JUMPDEST PUSH1 0x0 PUSH2 0x125E PUSH2 0x3F51 JUMP JUMPDEST PUSH1 0xB DUP2 DUP2 PUSH2 0x1879 PUSH2 0x52B2 JUMP JUMPDEST PUSH1 0x0 PUSH1 0x1 PUSH2 0x1039 PUSH2 0x52B2 JUMP JUMPDEST PUSH1 0x0 PUSH20 0xFFFFFFFFFFFFFFFFFFFFFFFFFFFFFFFFFFFFFFFF DUP3 AND DUP2 PUSH1 0x4 PUSH2 0x22A2 PUSH2 0x52B2 JUMP JUMPDEST SWAP1 PUSH2 0x100 EXP SWAP1 DIV PUSH20 0xFFFFFFFFFFFFFFFFFFFFFFFFFFFFFFFFFFFFFFFF AND PUSH20 0xFFFFFFFFFFFFFFFFFFFFFFFFFFFFFFFFFFFFFFFF AND EQ PUSH2 0x22E2 JUMPI POP PUSH1 0x0 PUSH2 0x1028 JUMP JUMPDEST PUSH1 0x0 JUMPDEST PUSH1 0x6 DUP1 PUSH2 0x22F0 PUSH2 0x52B2 JUMP JUMPDEST SWAP1 POP DUP2 LT ISZERO PUSH2 0x24DC JUMPI PUSH1 0x0 PUSH1 0x6 DUP3 DUP2 PUSH2 0x2307 PUSH2 0x52B2 JUMP JUMPDEST DUP2 LT PUSH2 0x230F JUMPI INVALID JUMPDEST SWAP1 PUSH1 0x0 MSTORE PUSH1 0x20 PUSH1 0x0 KECCAK256 ADD PUSH2 0x2321 PUSH2 0x52B2 JUMP JUMPDEST PUSH1 0x0 DUP2 DUP2 MSTORE PUSH1 0x5 PUSH1 0x20 MSTORE SWAP1 SWAP2 POP PUSH1 0x40 SWAP1 KECCAK256 PUSH1 0x0 SWAP1 PUSH2 0x233D PUSH2 0x52B2 JUMP JUMPDEST PUSH20 0xFFFFFFFFFFFFFFFFFFFFFFFFFFFFFFFFFFFFFFFF PUSH2 0x100 SWAP3 SWAP1 SWAP3 EXP SWAP1 DIV AND PUSH1 0x0 PUSH1 0x4 PUSH2 0x2368 PUSH2 0x52B2 JUMP JUMPDEST SWAP1 PUSH2 0x100 EXP SWAP1 DIV PUSH20 0xFFFFFFFFFFFFFFFFFFFFFFFFFFFFFFFFFFFFFFFF AND PUSH20 0xFFFFFFFFFFFFFFFFFFFFFFFFFFFFFFFFFFFFFFFF AND PUSH4 0x21F8A721 DUP4 PUSH1 0x40 MLOAD PUSH32 0xFFFFFFFF00000000000000000000000000000000000000000000000000000000 PUSH1 0xE0 DUP5 SWAP1 SHL AND DUP2 MSTORE PUSH1 0x4 DUP2 ADD SWAP2 SWAP1 SWAP2 MSTORE PUSH1 0x24 ADD PUSH1 0x20 PUSH1 0x40 MLOAD DUP1 DUP4 SUB DUP2 DUP7 DUP1 PUSH2 0x23EB PUSH2 0x539F JUMP JUMPDEST ISZERO DUP1 ISZERO PUSH2 0x2400 JUMPI PUSH1 0x0 DUP1 PUSH2 0x23FD PUSH2 0x5247 JUMP JUMPDEST POP POP JUMPDEST POP GAS PUSH2 0x240A PUSH2 0x53EB JUMP JUMPDEST POP POP POP POP POP ISZERO DUP1 ISZERO PUSH2 0x2429 JUMPI RETURNDATASIZE PUSH1 0x0 DUP1 RETURNDATACOPY RETURNDATASIZE PUSH1 0x0 PUSH2 0x2426 PUSH2 0x5247 JUMP JUMPDEST POP POP JUMPDEST POP POP POP POP PUSH1 0x40 MLOAD RETURNDATASIZE PUSH1 0x20 DUP2 LT ISZERO PUSH2 0x2448 JUMPI PUSH1 0x0 DUP1 PUSH2 0x2445 PUSH2 0x5247 JUMP JUMPDEST POP POP JUMPDEST DUP2 ADD SWAP1 DUP1 DUP1 MLOAD PUSH20 0xFFFFFFFFFFFFFFFFFFFFFFFFFFFFFFFFFFFFFFFF AND SWAP4 SWAP1 SWAP4 EQ ISZERO SWAP3 POP DUP3 SWAP2 POP PUSH2 0x24C3 SWAP1 POP JUMPI POP PUSH1 0x0 DUP2 DUP2 MSTORE PUSH1 0x5 PUSH1 0x20 MSTORE PUSH1 0x40 DUP2 KECCAK256 PUSH1 0x0 SWAP1 PUSH2 0x248E PUSH2 0x52B2 JUMP JUMPDEST SWAP1 PUSH2 0x100 EXP SWAP1 DIV PUSH20 0xFFFFFFFFFFFFFFFFFFFFFFFFFFFFFFFFFFFFFFFF AND PUSH20 0xFFFFFFFFFFFFFFFFFFFFFFFFFFFFFFFFFFFFFFFF AND EQ JUMPDEST ISZERO PUSH2 0x24D3 JUMPI PUSH1 0x0 SWAP3 POP POP POP PUSH2 0x1028 JUMP JUMPDEST POP PUSH1 0x1 ADD PUSH2 0x22E5 JUMP JUMPDEST POP PUSH1 0x1 SWAP3 SWAP2 POP POP JUMP JUMPDEST PUSH1 0x0 PUSH2 0x24F2 DUP5 DUP5 DUP5 PUSH2 0x47A4 JUMP JUMPDEST POP SWAP1 SWAP6 SWAP5 POP POP POP POP POP JUMP JUMPDEST PUSH1 0x9 PUSH1 0x20 MSTORE DUP1 PUSH1 0x0 MSTORE PUSH1 0x40 PUSH1 0x0 KECCAK256 PUSH1 0x0 SWAP2 POP PUSH2 0x1039 PUSH2 0x52B2 JUMP JUMPDEST PUSH1 0xC PUSH1 0x20 MSTORE DUP1 PUSH1 0x0 MSTORE PUSH1 0x40 PUSH1 0x0 KECCAK256 SWAP1 POP DUP1 PUSH2 0x2530 PUSH2 0x52B2 JUMP JUMPDEST SWAP1 DUP1 PUSH1 0x1 ADD PUSH2 0x253D PUSH2 0x52B2 JUMP JUMPDEST SWAP1 DUP1 PUSH1 0x2 ADD PUSH2 0x254A PUSH2 0x52B2 JUMP JUMPDEST SWAP1 PUSH1 0x0 PUSH1 0x3 DUP3 ADD PUSH2 0x2559 PUSH2 0x52B2 JUMP JUMPDEST SWAP1 PUSH2 0x100 EXP SWAP1 DIV PUSH1 0xFF AND SWAP1 DUP1 PUSH1 0x3 ADD PUSH1 0x1 SWAP1 PUSH2 0x2573 PUSH2 0x52B2 JUMP JUMPDEST SWAP1 PUSH2 0x100 EXP SWAP1 DIV PUSH1 0xFF AND SWAP1 POP DUP6 JUMP JUMPDEST PUSH1 0x0 PUSH1 0x1 PUSH2 0x258E PUSH2 0x52B2 JUMP JUMPDEST SWAP1 PUSH2 0x100 EXP SWAP1 DIV PUSH20 0xFFFFFFFFFFFFFFFFFFFFFFFFFFFFFFFFFFFFFFFF AND PUSH20 0xFFFFFFFFFFFFFFFFFFFFFFFFFFFFFFFFFFFFFFFF AND GAS PUSH2 0x25CA PUSH2 0x54A4 JUMP JUMPDEST PUSH20 0xFFFFFFFFFFFFFFFFFFFFFFFFFFFFFFFFFFFFFFFF AND EQ PUSH2 0x2625 JUMPI PUSH1 0x40 MLOAD PUSH3 0x461BCD PUSH1 0xE5 SHL DUP2 MSTORE PUSH1 0x4 ADD DUP1 DUP1 PUSH1 0x20 ADD DUP3 DUP2 SUB DUP3 MSTORE PUSH1 0x35 DUP2 MSTORE PUSH1 0x20 ADD DUP1 PUSH2 0x565B PUSH1 0x35 SWAP2 CODECOPY PUSH1 0x40 ADD SWAP2 POP POP PUSH1 0x40 MLOAD DUP1 SWAP2 SUB SWAP1 PUSH2 0x2622 PUSH2 0x5247 JUMP JUMPDEST POP POP JUMPDEST PUSH32 0xB532073B38C83145E3E5135377A08BF9AAB55BC0FD7C1179CD4FB995D2A5159C PUSH1 0x0 DUP1 PUSH2 0x2651 PUSH2 0x52B2 JUMP JUMPDEST SWAP1 PUSH2 0x100 EXP SWAP1 DIV PUSH20 0xFFFFFFFFFFFFFFFFFFFFFFFFFFFFFFFFFFFFFFFF AND PUSH1 0x1 PUSH1 0x0 SWAP1 PUSH2 0x267B PUSH2 0x52B2 JUMP JUMPDEST SWAP1 PUSH2 0x100 EXP SWAP1 DIV PUSH20 0xFFFFFFFFFFFFFFFFFFFFFFFFFFFFFFFFFFFFFFFF AND PUSH1 0x40 MLOAD PUSH20 0xFFFFFFFFFFFFFFFFFFFFFFFFFFFFFFFFFFFFFFFF SWAP3 DUP4 AND DUP2 MSTORE SWAP2 AND PUSH1 0x20 DUP3 ADD MSTORE PUSH1 0x40 SWAP1 DUP2 ADD SWAP1 MLOAD DUP1 SWAP2 SUB SWAP1 LOG1 PUSH1 0x0 PUSH1 0x1 PUSH2 0x26D4 PUSH2 0x52B2 JUMP JUMPDEST SWAP1 PUSH2 0x100 EXP SWAP1 DIV PUSH20 0xFFFFFFFFFFFFFFFFFFFFFFFFFFFFFFFFFFFFFFFF AND PUSH1 0x0 DUP1 PUSH2 0x100 EXP DUP2 PUSH2 0x2701 PUSH2 0x52B2 JUMP JUMPDEST DUP2 PUSH20 0xFFFFFFFFFFFFFFFFFFFFFFFFFFFFFFFFFFFFFFFF MUL NOT AND SWAP1 DUP4 PUSH20 0xFFFFFFFFFFFFFFFFFFFFFFFFFFFFFFFFFFFFFFFF AND MUL OR SWAP1 PUSH2 0x273D PUSH2 0x5324 JUMP JUMPDEST POP POP POP PUSH1 0x0 PUSH1 0x1 PUSH1 0x0 PUSH2 0x100 EXP DUP2 PUSH2 0x2753 PUSH2 0x52B2 JUMP JUMPDEST DUP2 PUSH20 0xFFFFFFFFFFFFFFFFFFFFFFFFFFFFFFFFFFFFFFFF MUL NOT AND SWAP1 DUP4 PUSH20 0xFFFFFFFFFFFFFFFFFFFFFFFFFFFFFFFFFFFFFFFF AND MUL OR SWAP1 PUSH2 0x1777 PUSH2 0x5324 JUMP JUMPDEST PUSH1 0x0 PUSH2 0x1025 DUP3 PUSH2 0x4695 JUMP JUMPDEST PUSH2 0x27A2 PUSH2 0x44AC JUMP JUMPDEST DUP1 PUSH1 0x8 PUSH1 0x1 DUP2 PUSH2 0x27B0 PUSH2 0x52B2 JUMP JUMPDEST DUP2 PUSH20 0xFFFFFFFFFFFFFFFFFFFFFFFFFFFFFFFFFFFFFFFF MUL NOT AND SWAP1 DUP4 PUSH20 0xFFFFFFFFFFFFFFFFFFFFFFFFFFFFFFFFFFFFFFFF AND MUL OR SWAP1 PUSH2 0x27EC PUSH2 0x5324 JUMP JUMPDEST POP POP POP PUSH32 0x3DF77BEB5DB05FCDD70A30FC8ADF3F83F9501B68579455ADBD100B8180940394 PUSH1 0x8 PUSH1 0x0 SWAP1 PUSH2 0x281D PUSH2 0x52B2 JUMP JUMPDEST SWAP1 PUSH2 0x100 EXP SWAP1 DIV PUSH20 0xFFFFFFFFFFFFFFFFFFFFFFFFFFFFFFFFFFFFFFFF AND PUSH1 0x40 MLOAD PUSH20 0xFFFFFFFFFFFFFFFFFFFFFFFFFFFFFFFFFFFFFFFF SWAP1 SWAP2 AND DUP2 MSTORE PUSH1 0x20 ADD PUSH1 0x40 MLOAD DUP1 SWAP2 SUB SWAP1 LOG1 POP JUMP JUMPDEST PUSH1 0x0 PUSH1 0x8 PUSH2 0x1039 PUSH2 0x52B2 JUMP JUMPDEST PUSH1 0x0 DUP1 PUSH1 0x0 PUSH2 0x2881 DUP7 DUP7 DUP7 PUSH2 0x47A4 JUMP JUMPDEST SWAP3 POP SWAP3 POP SWAP3 POP JUMPDEST SWAP4 POP SWAP4 POP SWAP4 SWAP1 POP JUMP JUMPDEST PUSH1 0x0 DUP1 PUSH2 0x1039 PUSH2 0x52B2 JUMP JUMPDEST PUSH1 0xE PUSH1 0x20 MSTORE DUP1 PUSH1 0x0 MSTORE PUSH1 0x40 PUSH1 0x0 KECCAK256 SWAP1 POP PUSH2 0x1352 PUSH2 0x52B2 JUMP JUMPDEST PUSH2 0x28BC PUSH2 0x44AC JUMP JUMPDEST PUSH1 0x0 PUSH1 0x3 PUSH2 0x28C8 PUSH2 0x52B2 JUMP JUMPDEST SWAP1 PUSH2 0x100 EXP SWAP1 DIV PUSH1 0xFF AND PUSH2 0x292B JUMPI PUSH1 0x40 MLOAD PUSH3 0x461BCD PUSH1 0xE5 SHL DUP2 MSTORE PUSH1 0x20 PUSH1 0x4 DUP3 ADD MSTORE PUSH1 0x1F PUSH1 0x24 DUP3 ADD MSTORE PUSH32 0x53656C66204465737472756374206E6F742079657420696E6974696174656400 PUSH1 0x44 DUP3 ADD MSTORE PUSH1 0x64 ADD PUSH1 0x40 MLOAD DUP1 SWAP2 SUB SWAP1 PUSH2 0x2928 PUSH2 0x5247 JUMP JUMPDEST POP POP JUMPDEST GAS PUSH2 0x2934 PUSH2 0x54EA JUMP JUMPDEST PUSH3 0x24EA00 PUSH1 0x2 PUSH2 0x2942 PUSH2 0x52B2 JUMP JUMPDEST ADD LT PUSH2 0x299D JUMPI PUSH1 0x40 MLOAD PUSH3 0x461BCD PUSH1 0xE5 SHL DUP2 MSTORE PUSH1 0x20 PUSH1 0x4 DUP3 ADD MSTORE PUSH1 0x1B PUSH1 0x24 DUP3 ADD MSTORE PUSH32 0x53656C662064657374727563742064656C6179206E6F74206D65740000000000 PUSH1 0x44 DUP3 ADD MSTORE PUSH1 0x64 ADD PUSH1 0x40 MLOAD DUP1 SWAP2 SUB SWAP1 PUSH2 0x299A PUSH2 0x5247 JUMP JUMPDEST POP POP JUMPDEST PUSH32 0x8A09E1677CED846CB537DC2B172043BD05A1A81AD7E0033A7EF8BA762DF990B7 PUSH1 0x1 PUSH1 0x3 PUSH2 0x29CA PUSH2 0x52B2 JUMP JUMPDEST SWAP1 PUSH2 0x100 EXP SWAP1 DIV PUSH20 0xFFFFFFFFFFFFFFFFFFFFFFFFFFFFFFFFFFFFFFFF AND PUSH1 0x40 MLOAD PUSH20 0xFFFFFFFFFFFFFFFFFFFFFFFFFFFFFFFFFFFFFFFF SWAP1 SWAP2 AND DUP2 MSTORE PUSH1 0x20 ADD PUSH1 0x40 MLOAD DUP1 SWAP2 SUB SWAP1 LOG1 JUMP JUMPDEST PUSH3 0x24EA00 DUP2 JUMP JUMPDEST PUSH2 0x2A20 PUSH2 0x5530 JUMP JUMPDEST PUSH1 0x0 JUMPDEST PUSH1 0x6 DUP1 PUSH2 0x2A2E PUSH2 0x52B2 JUMP JUMPDEST SWAP1 POP DUP2 LT ISZERO PUSH2 0x2A76 JUMPI PUSH1 0x6 DUP2 DUP2 PUSH2 0x2A43 PUSH2 0x52B2 JUMP JUMPDEST DUP2 LT PUSH2 0x2A4B JUMPI INVALID JUMPDEST SWAP1 PUSH1 0x0 MSTORE PUSH1 0x20 PUSH1 0x0 KECCAK256 ADD PUSH2 0x2A5D PUSH2 0x52B2 JUMP JUMPDEST DUP3 DUP3 PUSH1 0x18 DUP2 LT PUSH2 0x2A69 JUMPI INVALID JUMPDEST PUSH1 0x20 MUL ADD MSTORE PUSH1 0x1 ADD PUSH2 0x2A23 JUMP JUMPDEST POP SWAP1 JUMP JUMPDEST PUSH1 0x0 PUSH2 0x2A85 DUP3 PUSH2 0x3BA3 JUMP JUMPDEST MLOAD PUSH27 0xFFFFFFFFFFFFFFFFFFFFFFFFFFFFFFFFFFFFFFFFFFFFFFFFFFFFFF AND SWAP3 SWAP2 POP POP JUMP JUMPDEST PUSH1 0x0 PUSH2 0x1025 DUP3 PUSH2 0x47F6 JUMP JUMPDEST PUSH2 0x2ABC PUSH2 0x44AC JUMP JUMPDEST PUSH1 0x0 DUP4 GT PUSH2 0x2B19 JUMPI PUSH1 0x40 MLOAD PUSH3 0x461BCD PUSH1 0xE5 SHL DUP2 MSTORE PUSH1 0x20 PUSH1 0x4 DUP3 ADD MSTORE PUSH1 0x1A PUSH1 0x24 DUP3 ADD MSTORE PUSH32 0x6C6F7765724C696D6974206D7573742062652061626F76652030000000000000 PUSH1 0x44 DUP3 ADD MSTORE PUSH1 0x64 ADD PUSH1 0x40 MLOAD DUP1 SWAP2 SUB SWAP1 PUSH2 0x2B16 PUSH2 0x5247 JUMP JUMPDEST POP POP JUMPDEST DUP5 DUP5 GT PUSH2 0x2B60 JUMPI PUSH1 0x40 MLOAD PUSH3 0x461BCD PUSH1 0xE5 SHL DUP2 MSTORE PUSH1 0x4 ADD DUP1 DUP1 PUSH1 0x20 ADD DUP3 DUP2 SUB DUP3 MSTORE PUSH1 0x27 DUP2 MSTORE PUSH1 0x20 ADD DUP1 PUSH2 0x5830 PUSH1 0x27 SWAP2 CODECOPY PUSH1 0x40 ADD SWAP2 POP POP PUSH1 0x40 MLOAD DUP1 SWAP2 SUB SWAP1 PUSH2 0x2B5D PUSH2 0x5247 JUMP JUMPDEST POP POP JUMPDEST PUSH2 0x2B71 DUP6 PUSH1 0x2 PUSH4 0xFFFFFFFF PUSH2 0x48A3 AND JUMP JUMPDEST DUP5 LT PUSH2 0x2BB7 JUMPI PUSH1 0x40 MLOAD PUSH3 0x461BCD PUSH1 0xE5 SHL DUP2 MSTORE PUSH1 0x4 ADD DUP1 DUP1 PUSH1 0x20 ADD DUP3 DUP2 SUB DUP3 MSTORE PUSH1 0x2E DUP2 MSTORE PUSH1 0x20 ADD DUP1 PUSH2 0x5797 PUSH1 0x2E SWAP2 CODECOPY PUSH1 0x40 ADD SWAP2 POP POP PUSH1 0x40 MLOAD DUP1 SWAP2 SUB SWAP1 PUSH2 0x2BB4 PUSH2 0x5247 JUMP JUMPDEST POP POP JUMPDEST DUP5 DUP4 LT PUSH2 0x2BFE JUMPI PUSH1 0x40 MLOAD PUSH3 0x461BCD PUSH1 0xE5 SHL DUP2 MSTORE PUSH1 0x4 ADD DUP1 DUP1 PUSH1 0x20 ADD DUP3 DUP2 SUB DUP3 MSTORE PUSH1 0x27 DUP2 MSTORE PUSH1 0x20 ADD DUP1 PUSH2 0x5770 PUSH1 0x27 SWAP2 CODECOPY PUSH1 0x40 ADD SWAP2 POP POP PUSH1 0x40 MLOAD DUP1 SWAP2 SUB SWAP1 PUSH2 0x2BFB PUSH2 0x5247 JUMP JUMPDEST POP POP JUMPDEST DUP2 DUP1 ISZERO PUSH2 0x2C08 JUMPI POP DUP1 JUMPDEST ISZERO PUSH2 0x2C62 JUMPI PUSH1 0x40 MLOAD PUSH3 0x461BCD PUSH1 0xE5 SHL DUP2 MSTORE PUSH1 0x20 PUSH1 0x4 DUP3 ADD MSTORE PUSH1 0x1C PUSH1 0x24 DUP3 ADD MSTORE PUSH32 0x43616E6E6F7420667265657A6520617420626F7468206C696D69747300000000 PUSH1 0x44 DUP3 ADD MSTORE PUSH1 0x64 ADD PUSH1 0x40 MLOAD DUP1 SWAP2 SUB SWAP1 PUSH2 0x2C5F PUSH2 0x5247 JUMP JUMPDEST POP POP JUMPDEST PUSH1 0x0 DUP7 DUP2 MSTORE PUSH1 0xC PUSH1 0x20 MSTORE PUSH1 0x40 DUP2 KECCAK256 SWAP1 POP DUP1 PUSH2 0x2C7B PUSH2 0x52B2 JUMP JUMPDEST PUSH2 0x2CDA JUMPI DUP7 PUSH1 0xD DUP1 PUSH1 0x1 DUP2 PUSH2 0x2C8E PUSH2 0x52B2 JUMP JUMPDEST ADD DUP1 DUP3 PUSH2 0x2C99 PUSH2 0x5324 JUMP JUMPDEST POP POP PUSH1 0x0 SWAP3 DUP4 MSTORE SWAP2 PUSH32 0xFFFFFFFFFFFFFFFFFFFFFFFFFFFFFFFFFFFFFFFFFFFFFFFFFFFFFFFFFFFFFFFF DUP4 ADD SWAP2 POP PUSH1 0x20 SWAP1 KECCAK256 SWAP2 SWAP3 SWAP2 ADD PUSH2 0x2CD6 PUSH2 0x5324 JUMP JUMPDEST POP POP POP JUMPDEST DUP6 DUP1 DUP3 PUSH2 0x2CE5 PUSH2 0x5324 JUMP JUMPDEST POP POP POP DUP5 DUP2 PUSH1 0x1 ADD DUP2 SWAP1 PUSH2 0x2CF7 PUSH2 0x5324 JUMP JUMPDEST POP POP POP DUP4 DUP2 PUSH1 0x2 ADD DUP2 SWAP1 PUSH2 0x2D09 PUSH2 0x5324 JUMP JUMPDEST POP POP POP DUP3 DUP1 PUSH2 0x2D15 JUMPI POP DUP2 JUMPDEST ISZERO PUSH2 0x2DE2 JUMPI DUP3 PUSH1 0x3 DUP3 ADD PUSH1 0x1 DUP2 PUSH2 0x2D2A PUSH2 0x52B2 JUMP JUMPDEST DUP2 PUSH1 0xFF MUL NOT AND SWAP1 DUP4 ISZERO ISZERO MUL OR SWAP1 PUSH2 0x2D3F PUSH2 0x5324 JUMP JUMPDEST POP DUP4 SWAP2 POP POP PUSH1 0x3 DUP3 ADD PUSH2 0x100 DUP2 PUSH2 0x2D54 PUSH2 0x52B2 JUMP JUMPDEST DUP2 PUSH1 0xFF MUL NOT AND SWAP1 DUP4 ISZERO ISZERO MUL OR SWAP1 PUSH2 0x2D69 PUSH2 0x5324 JUMP JUMPDEST POP POP POP PUSH32 0x3DE98BB945F5841B9E27E10A317B59497FA7AAB6BC7BA00461FBB3211B550165 DUP8 DUP5 PUSH2 0x2D99 JUMPI DUP6 PUSH2 0x2D9B JUMP JUMPDEST DUP7 JUMPDEST GAS PUSH2 0x2DA4 PUSH2 0x54A4 JUMP JUMPDEST PUSH1 0x40 MLOAD SWAP3 DUP4 MSTORE PUSH1 0x20 DUP4 ADD SWAP2 SWAP1 SWAP2 MSTORE PUSH20 0xFFFFFFFFFFFFFFFFFFFFFFFFFFFFFFFFFFFFFFFF AND PUSH1 0x40 DUP1 DUP4 ADD SWAP2 SWAP1 SWAP2 MSTORE PUSH1 0x60 SWAP1 SWAP2 ADD SWAP1 MLOAD DUP1 SWAP2 SUB SWAP1 LOG1 PUSH2 0x2E37 JUMP JUMPDEST PUSH1 0x0 PUSH1 0x3 DUP3 ADD PUSH1 0x1 DUP2 PUSH2 0x2DF3 PUSH2 0x52B2 JUMP JUMPDEST DUP2 PUSH1 0xFF MUL NOT AND SWAP1 DUP4 ISZERO ISZERO MUL OR SWAP1 PUSH2 0x2E08 PUSH2 0x5324 JUMP JUMPDEST POP PUSH1 0x0 SWAP2 POP POP PUSH1 0x3 DUP3 ADD PUSH2 0x100 DUP2 PUSH2 0x2E1E PUSH2 0x52B2 JUMP JUMPDEST DUP2 PUSH1 0xFF MUL NOT AND SWAP1 DUP4 ISZERO ISZERO MUL OR SWAP1 PUSH2 0x2E33 PUSH2 0x5324 JUMP JUMPDEST POP POP POP JUMPDEST PUSH1 0x0 PUSH2 0x2E42 DUP9 PUSH2 0x2A7A JUMP JUMPDEST SWAP1 POP DUP1 ISZERO PUSH2 0x2F04 JUMPI PUSH2 0x2E52 PUSH2 0x490B JUMP JUMPDEST PUSH20 0xFFFFFFFFFFFFFFFFFFFFFFFFFFFFFFFFFFFFFFFF AND PUSH4 0xCE096940 DUP10 DUP4 PUSH1 0x40 MLOAD PUSH32 0xFFFFFFFF00000000000000000000000000000000000000000000000000000000 PUSH1 0xE0 DUP6 SWAP1 SHL AND DUP2 MSTORE PUSH1 0x4 DUP2 ADD SWAP3 SWAP1 SWAP3 MSTORE PUSH1 0x24 DUP3 ADD MSTORE PUSH1 0x44 ADD PUSH1 0x0 PUSH1 0x40 MLOAD DUP1 DUP4 SUB DUP2 PUSH1 0x0 DUP8 DUP1 PUSH2 0x2EC0 PUSH2 0x539F JUMP JUMPDEST ISZERO DUP1 ISZERO PUSH2 0x2ED5 JUMPI PUSH1 0x0 DUP1 PUSH2 0x2ED2 PUSH2 0x5247 JUMP JUMPDEST POP POP JUMPDEST POP GAS PUSH2 0x2EDF PUSH2 0x554D JUMP JUMPDEST POP POP POP POP POP POP ISZERO DUP1 ISZERO PUSH2 0x2EFF JUMPI RETURNDATASIZE PUSH1 0x0 DUP1 RETURNDATACOPY RETURNDATASIZE PUSH1 0x0 PUSH2 0x2EFC PUSH2 0x5247 JUMP JUMPDEST POP POP JUMPDEST POP POP POP POP JUMPDEST PUSH32 0x37EFB38E92B0F94698F6DF0C9070E2F00946862A042AC09E34AE8C547684240A DUP9 DUP9 DUP9 DUP9 PUSH1 0x40 MLOAD DUP1 DUP6 DUP2 MSTORE PUSH1 0x20 ADD DUP5 DUP2 MSTORE PUSH1 0x20 ADD DUP4 DUP2 MSTORE PUSH1 0x20 ADD DUP3 DUP2 MSTORE PUSH1 0x20 ADD SWAP5 POP POP POP POP POP PUSH1 0x40 MLOAD DUP1 SWAP2 SUB SWAP1 LOG1 POP POP POP POP POP POP POP POP JUMP JUMPDEST PUSH1 0xA PUSH1 0x20 MSTORE DUP1 PUSH1 0x0 MSTORE PUSH1 0x40 PUSH1 0x0 KECCAK256 PUSH1 0x0 SWAP2 POP PUSH2 0x2F77 PUSH2 0x52B2 JUMP JUMPDEST SWAP1 PUSH2 0x100 EXP SWAP1 DIV PUSH1 0xFF AND DUP2 JUMP JUMPDEST PUSH1 0x0 PUSH1 0x3 PUSH2 0x2F77 PUSH2 0x52B2 JUMP JUMPDEST PUSH2 0x2F98 PUSH2 0x44AC JUMP JUMPDEST GAS PUSH2 0x2FA1 PUSH2 0x54EA JUMP JUMPDEST DUP1 PUSH1 0x2 PUSH2 0x2FAC PUSH2 0x5324 JUMP JUMPDEST POP POP POP PUSH1 0x1 PUSH1 0x3 PUSH1 0x0 PUSH2 0x100 EXP DUP2 PUSH2 0x2FC2 PUSH2 0x52B2 JUMP JUMPDEST DUP2 PUSH1 0xFF MUL NOT AND SWAP1 DUP4 ISZERO ISZERO MUL OR SWAP1 PUSH2 0x2FD7 PUSH2 0x5324 JUMP JUMPDEST POP POP POP PUSH32 0xCBD94CA75B8DC45C9D80C77E851670E78843C0D75180CB81DB3E2158228FA9A6 PUSH3 0x24EA00 PUSH1 0x40 MLOAD SWAP1 DUP2 MSTORE PUSH1 0x20 ADD PUSH1 0x40 MLOAD DUP1 SWAP2 SUB SWAP1 LOG1 JUMP JUMPDEST PUSH1 0x0 DUP1 PUSH1 0x8 PUSH2 0x301F PUSH2 0x52B2 JUMP JUMPDEST SWAP1 PUSH2 0x100 EXP SWAP1 DIV PUSH20 0xFFFFFFFFFFFFFFFFFFFFFFFFFFFFFFFFFFFFFFFF AND PUSH20 0xFFFFFFFFFFFFFFFFFFFFFFFFFFFFFFFFFFFFFFFF AND GAS PUSH2 0x305B PUSH2 0x54A4 JUMP JUMPDEST PUSH20 0xFFFFFFFFFFFFFFFFFFFFFFFFFFFFFFFFFFFFFFFF AND EQ PUSH2 0x30B6 JUMPI PUSH1 0x40 MLOAD PUSH3 0x461BCD PUSH1 0xE5 SHL DUP2 MSTORE PUSH1 0x4 ADD DUP1 DUP1 PUSH1 0x20 ADD DUP3 DUP2 SUB DUP3 MSTORE PUSH1 0x27 DUP2 MSTORE PUSH1 0x20 ADD DUP1 PUSH2 0x56C1 PUSH1 0x27 SWAP2 CODECOPY PUSH1 0x40 ADD SWAP2 POP POP PUSH1 0x40 MLOAD DUP1 SWAP2 SUB SWAP1 PUSH2 0x30B3 PUSH2 0x5247 JUMP JUMPDEST POP POP JUMPDEST PUSH2 0x3129 DUP7 DUP7 DUP1 DUP1 PUSH1 0x20 MUL PUSH1 0x20 ADD PUSH1 0x40 MLOAD SWAP1 DUP2 ADD PUSH1 0x40 MSTORE DUP1 SWAP4 SWAP3 SWAP2 SWAP1 DUP2 DUP2 MSTORE PUSH1 0x20 ADD DUP4 DUP4 PUSH1 0x20 MUL DUP1 DUP3 DUP5 CALLDATACOPY PUSH1 0x0 SWAP3 ADD SWAP2 SWAP1 SWAP2 MSTORE POP DUP9 SWAP3 POP DUP8 SWAP2 POP DUP2 SWAP1 POP PUSH1 0x20 DUP1 DUP3 MUL ADD PUSH1 0x40 MLOAD SWAP1 DUP2 ADD PUSH1 0x40 MSTORE DUP1 SWAP4 SWAP3 SWAP2 SWAP1 DUP2 DUP2 MSTORE PUSH1 0x20 ADD DUP4 DUP4 PUSH1 0x20 MUL DUP1 DUP3 DUP5 CALLDATACOPY PUSH1 0x0 SWAP3 ADD SWAP2 SWAP1 SWAP2 MSTORE POP DUP8 SWAP3 POP PUSH2 0x496A SWAP2 POP POP JUMP JUMPDEST SWAP7 SWAP6 POP POP POP POP POP POP JUMP JUMPDEST PUSH1 0x60 DUP1 DUP3 PUSH1 0x40 MLOAD SWAP1 DUP1 DUP3 MSTORE DUP1 PUSH1 0x20 MUL PUSH1 0x20 ADD DUP3 ADD PUSH1 0x40 MSTORE DUP1 ISZERO PUSH2 0x3160 JUMPI DUP2 PUSH1 0x20 ADD PUSH1 0x20 DUP3 MUL DUP1 CODESIZE DUP4 CODECOPY ADD SWAP1 POP JUMPDEST POP SWAP1 POP PUSH1 0x0 JUMPDEST DUP4 DUP2 LT ISZERO PUSH2 0x10CE JUMPI PUSH2 0x3189 DUP6 DUP6 DUP4 DUP2 DUP2 LT PUSH2 0x317D JUMPI INVALID JUMPDEST SWAP1 POP PUSH1 0x20 MUL ADD CALLDATALOAD PUSH2 0x2A7A JUMP JUMPDEST DUP3 DUP3 DUP2 MLOAD DUP2 LT PUSH2 0x3195 JUMPI INVALID JUMPDEST PUSH1 0x20 SWAP1 DUP2 MUL SWAP2 SWAP1 SWAP2 ADD ADD MSTORE PUSH1 0x1 ADD PUSH2 0x3166 JUMP JUMPDEST PUSH1 0x1 PUSH1 0x3 PUSH2 0x1039 PUSH2 0x52B2 JUMP JUMPDEST PUSH1 0x6 DUP2 DUP2 PUSH2 0x1879 PUSH2 0x52B2 JUMP JUMPDEST PUSH1 0x60 PUSH1 0x0 DUP3 PUSH1 0x40 MLOAD SWAP1 DUP1 DUP3 MSTORE DUP1 PUSH1 0x20 MUL PUSH1 0x20 ADD DUP3 ADD PUSH1 0x40 MSTORE DUP1 ISZERO PUSH2 0x31EE JUMPI DUP2 PUSH1 0x20 ADD PUSH1 0x20 DUP3 MUL DUP1 CODESIZE DUP4 CODECOPY ADD SWAP1 POP JUMPDEST POP SWAP2 POP PUSH1 0x0 PUSH2 0x31FB PUSH2 0x3731 JUMP JUMPDEST SWAP1 POP PUSH1 0x60 PUSH2 0x323B DUP7 DUP7 DUP1 DUP1 PUSH1 0x20 MUL PUSH1 0x20 ADD PUSH1 0x40 MLOAD SWAP1 DUP2 ADD PUSH1 0x40 MSTORE DUP1 SWAP4 SWAP3 SWAP2 SWAP1 DUP2 DUP2 MSTORE PUSH1 0x20 ADD DUP4 DUP4 PUSH1 0x20 MUL DUP1 DUP3 DUP5 CALLDATACOPY PUSH1 0x0 SWAP3 ADD SWAP2 SWAP1 SWAP2 MSTORE POP PUSH2 0x38B9 SWAP3 POP POP POP JUMP JUMPDEST SWAP1 POP PUSH1 0x0 JUMPDEST DUP6 DUP2 LT ISZERO PUSH2 0x3324 JUMPI PUSH2 0x3250 PUSH2 0x530D JUMP JUMPDEST PUSH2 0x326B DUP9 DUP9 DUP5 DUP2 DUP2 LT PUSH2 0x325F JUMPI INVALID JUMPDEST SWAP1 POP PUSH1 0x20 MUL ADD CALLDATALOAD PUSH2 0x3BA3 JUMP JUMPDEST SWAP1 POP DUP1 MLOAD PUSH27 0xFFFFFFFFFFFFFFFFFFFFFFFFFFFFFFFFFFFFFFFFFFFFFFFFFFFFFF AND DUP7 DUP4 DUP2 MLOAD DUP2 LT PUSH2 0x3298 JUMPI INVALID JUMPDEST PUSH1 0x20 MUL PUSH1 0x20 ADD ADD DUP2 DUP2 MSTORE POP POP DUP5 ISZERO DUP1 ISZERO PUSH2 0x32E4 JUMPI POP DUP8 DUP8 DUP4 DUP2 DUP2 LT PUSH2 0x32B9 JUMPI INVALID JUMPDEST SWAP1 POP PUSH1 0x20 MUL ADD CALLDATALOAD PUSH32 0x7355534400000000000000000000000000000000000000000000000000000000 EQ ISZERO JUMPDEST ISZERO PUSH2 0x331B JUMPI DUP3 DUP3 DUP2 MLOAD DUP2 LT PUSH2 0x32F5 JUMPI INVALID JUMPDEST PUSH1 0x20 MUL PUSH1 0x20 ADD ADD MLOAD DUP1 PUSH2 0x3318 JUMPI POP PUSH2 0x3318 DUP5 DUP3 PUSH1 0x20 ADD MLOAD PUSH5 0xFFFFFFFFFF AND PUSH2 0x3F2E JUMP JUMPDEST SWAP5 POP JUMPDEST POP PUSH1 0x1 ADD PUSH2 0x3240 JUMP JUMPDEST POP POP POP SWAP3 POP SWAP3 SWAP1 POP JUMP JUMPDEST PUSH2 0x3336 PUSH2 0x44AC JUMP JUMPDEST PUSH1 0x0 DUP2 DUP2 MSTORE PUSH1 0xC PUSH1 0x20 MSTORE PUSH1 0x40 DUP2 KECCAK256 PUSH2 0x334C PUSH2 0x52B2 JUMP JUMPDEST GT PUSH2 0x33A6 JUMPI PUSH1 0x40 MLOAD PUSH3 0x461BCD PUSH1 0xE5 SHL DUP2 MSTORE PUSH1 0x20 PUSH1 0x4 DUP3 ADD MSTORE PUSH1 0x18 PUSH1 0x24 DUP3 ADD MSTORE PUSH32 0x4E6F20696E766572746564207072696365206578697374730000000000000000 PUSH1 0x44 DUP3 ADD MSTORE PUSH1 0x64 ADD PUSH1 0x40 MLOAD DUP1 SWAP2 SUB SWAP1 PUSH2 0x33A3 PUSH2 0x5247 JUMP JUMPDEST POP POP JUMPDEST PUSH1 0x0 DUP2 DUP2 MSTORE PUSH1 0xC PUSH1 0x20 MSTORE PUSH1 0x40 SWAP1 KECCAK256 PUSH1 0x0 DUP1 DUP3 PUSH2 0x33C0 PUSH2 0x5324 JUMP JUMPDEST POP POP PUSH1 0x1 DUP3 ADD PUSH1 0x0 SWAP1 PUSH2 0x33D1 PUSH2 0x5324 JUMP JUMPDEST POP POP PUSH1 0x2 DUP3 ADD PUSH1 0x0 SWAP1 PUSH2 0x33E2 PUSH2 0x5324 JUMP JUMPDEST POP POP PUSH1 0x3 DUP3 ADD PUSH1 0x1 DUP2 PUSH2 0x33F3 PUSH2 0x52B2 JUMP JUMPDEST SWAP1 PUSH1 0xFF MUL NOT AND SWAP1 PUSH2 0x3402 PUSH2 0x5324 JUMP JUMPDEST POP POP PUSH1 0x3 DUP3 ADD PUSH2 0x100 DUP2 PUSH2 0x3414 PUSH2 0x52B2 JUMP JUMPDEST SWAP1 PUSH1 0xFF MUL NOT AND SWAP1 PUSH2 0x3423 PUSH2 0x5324 JUMP JUMPDEST POP POP POP POP PUSH1 0x0 PUSH2 0x3434 DUP3 PUSH1 0xD PUSH2 0x4577 JUMP JUMPDEST SWAP1 POP DUP1 ISZERO PUSH2 0x1C3E JUMPI PUSH32 0x37EFB38E92B0F94698F6DF0C9070E2F00946862A042AC09E34AE8C547684240A DUP3 PUSH1 0x0 DUP1 PUSH1 0x0 PUSH1 0x40 MLOAD DUP1 DUP6 DUP2 MSTORE PUSH1 0x20 ADD DUP5 DUP2 MSTORE PUSH1 0x20 ADD DUP4 DUP2 MSTORE PUSH1 0x20 ADD DUP3 DUP2 MSTORE PUSH1 0x20 ADD SWAP5 POP POP POP POP POP PUSH1 0x40 MLOAD DUP1 SWAP2 SUB SWAP1 LOG1 POP POP JUMP JUMPDEST PUSH1 0x0 PUSH2 0x1025 DUP3 PUSH2 0x389D JUMP JUMPDEST PUSH1 0x0 DUP2 DUP2 MSTORE PUSH1 0xC PUSH1 0x20 MSTORE PUSH1 0x40 DUP2 KECCAK256 SWAP1 POP PUSH1 0x0 DUP2 PUSH2 0x34B7 PUSH2 0x52B2 JUMP JUMPDEST GT PUSH2 0x3511 JUMPI PUSH1 0x40 MLOAD PUSH3 0x461BCD PUSH1 0xE5 SHL DUP2 MSTORE PUSH1 0x20 PUSH1 0x4 DUP3 ADD MSTORE PUSH1 0x1E PUSH1 0x24 DUP3 ADD MSTORE PUSH32 0x43616E6E6F7420667265657A65206E6F6E2D696E766572736520726174650000 PUSH1 0x44 DUP3 ADD MSTORE PUSH1 0x64 ADD PUSH1 0x40 MLOAD DUP1 SWAP2 SUB SWAP1 PUSH2 0x350E PUSH2 0x5247 JUMP JUMPDEST POP POP JUMPDEST PUSH1 0x0 PUSH1 0x3 DUP3 ADD PUSH2 0x351F PUSH2 0x52B2 JUMP JUMPDEST SWAP1 PUSH2 0x100 EXP SWAP1 DIV PUSH1 0xFF AND ISZERO DUP1 ISZERO PUSH2 0x354B JUMPI POP PUSH1 0x1 PUSH1 0x3 DUP3 ADD PUSH2 0x353F PUSH2 0x52B2 JUMP JUMPDEST SWAP1 PUSH2 0x100 EXP SWAP1 DIV PUSH1 0xFF AND ISZERO JUMPDEST PUSH2 0x35A4 JUMPI PUSH1 0x40 MLOAD PUSH3 0x461BCD PUSH1 0xE5 SHL DUP2 MSTORE PUSH1 0x20 PUSH1 0x4 DUP3 ADD MSTORE PUSH1 0x1A PUSH1 0x24 DUP3 ADD MSTORE PUSH32 0x546865207261746520697320616C72656164792066726F7A656E000000000000 PUSH1 0x44 DUP3 ADD MSTORE PUSH1 0x64 ADD PUSH1 0x40 MLOAD DUP1 SWAP2 SUB SWAP1 PUSH2 0x35A1 PUSH2 0x5247 JUMP JUMPDEST POP POP JUMPDEST PUSH1 0x0 PUSH2 0x35AF DUP4 PUSH2 0x2A7A JUMP JUMPDEST SWAP1 POP PUSH1 0x0 DUP2 GT DUP1 ISZERO PUSH2 0x35E1 JUMPI POP DUP2 PUSH1 0x1 ADD PUSH2 0x35C8 PUSH2 0x52B2 JUMP JUMPDEST DUP2 LT ISZERO DUP1 PUSH2 0x35E1 JUMPI POP DUP2 PUSH1 0x2 ADD PUSH2 0x35DD PUSH2 0x52B2 JUMP JUMPDEST DUP2 GT ISZERO JUMPDEST ISZERO PUSH2 0x36BB JUMPI DUP2 PUSH1 0x1 ADD PUSH2 0x35F2 PUSH2 0x52B2 JUMP JUMPDEST DUP2 EQ PUSH1 0x3 DUP4 ADD PUSH1 0x1 DUP2 PUSH2 0x3603 PUSH2 0x52B2 JUMP JUMPDEST DUP2 PUSH1 0xFF MUL NOT AND SWAP1 DUP4 ISZERO ISZERO MUL OR SWAP1 PUSH2 0x3618 PUSH2 0x5324 JUMP JUMPDEST POP POP POP DUP2 PUSH1 0x2 ADD PUSH2 0x3627 PUSH2 0x52B2 JUMP JUMPDEST DUP2 EQ PUSH1 0x3 DUP4 ADD PUSH2 0x100 DUP2 PUSH2 0x3639 PUSH2 0x52B2 JUMP JUMPDEST DUP2 PUSH1 0xFF MUL NOT AND SWAP1 DUP4 ISZERO ISZERO MUL OR SWAP1 PUSH2 0x364E PUSH2 0x5324 JUMP JUMPDEST POP POP POP PUSH32 0x3DE98BB945F5841B9E27E10A317B59497FA7AAB6BC7BA00461FBB3211B550165 DUP4 DUP3 GAS PUSH2 0x367D PUSH2 0x54A4 JUMP JUMPDEST PUSH1 0x40 MLOAD SWAP3 DUP4 MSTORE PUSH1 0x20 DUP4 ADD SWAP2 SWAP1 SWAP2 MSTORE PUSH20 0xFFFFFFFFFFFFFFFFFFFFFFFFFFFFFFFFFFFFFFFF AND PUSH1 0x40 DUP1 DUP4 ADD SWAP2 SWAP1 SWAP2 MSTORE PUSH1 0x60 SWAP1 SWAP2 ADD SWAP1 MLOAD DUP1 SWAP2 SUB SWAP1 LOG1 PUSH2 0x1777 JUMP JUMPDEST PUSH1 0x40 MLOAD PUSH3 0x461BCD PUSH1 0xE5 SHL DUP2 MSTORE PUSH1 0x20 PUSH1 0x4 DUP3 ADD MSTORE PUSH1 0x12 PUSH1 0x24 DUP3 ADD MSTORE PUSH32 0x526174652077697468696E20626F756E64730000000000000000000000000000 PUSH1 0x44 DUP3 ADD MSTORE PUSH1 0x64 ADD PUSH1 0x40 MLOAD DUP1 SWAP2 SUB SWAP1 PUSH2 0x370D PUSH2 0x5247 JUMP JUMPDEST POP POP POP POP POP JUMP JUMPDEST PUSH1 0x18 DUP2 JUMP JUMPDEST PUSH1 0x0 DUP1 PUSH2 0x3726 DUP5 DUP5 PUSH2 0x418D JUMP JUMPDEST SWAP2 POP SWAP2 POP SWAP3 POP SWAP3 SWAP1 POP JUMP JUMPDEST PUSH1 0x0 PUSH2 0x373B PUSH2 0x4C05 JUMP JUMPDEST PUSH20 0xFFFFFFFFFFFFFFFFFFFFFFFFFFFFFFFFFFFFFFFF AND PUSH4 0x23257C2B PUSH32 0x53797374656D53657474696E6773000000000000000000000000000000000000 PUSH32 0x726174655374616C65506572696F640000000000000000000000000000000000 PUSH1 0x40 MLOAD PUSH32 0xFFFFFFFF00000000000000000000000000000000000000000000000000000000 PUSH1 0xE0 DUP6 SWAP1 SHL AND DUP2 MSTORE PUSH1 0x4 DUP2 ADD SWAP3 SWAP1 SWAP3 MSTORE PUSH1 0x24 DUP3 ADD MSTORE PUSH1 0x44 ADD PUSH1 0x20 PUSH1 0x40 MLOAD DUP1 DUP4 SUB DUP2 DUP7 DUP1 PUSH2 0x37E7 PUSH2 0x539F JUMP JUMPDEST ISZERO DUP1 ISZERO PUSH2 0x37FC JUMPI PUSH1 0x0 DUP1 PUSH2 0x37F9 PUSH2 0x5247 JUMP JUMPDEST POP POP JUMPDEST POP GAS PUSH2 0x3806 PUSH2 0x53EB JUMP JUMPDEST POP POP POP POP POP ISZERO DUP1 ISZERO PUSH2 0x3825 JUMPI RETURNDATASIZE PUSH1 0x0 DUP1 RETURNDATACOPY RETURNDATASIZE PUSH1 0x0 PUSH2 0x3822 PUSH2 0x5247 JUMP JUMPDEST POP POP JUMPDEST POP POP POP POP PUSH1 0x40 MLOAD RETURNDATASIZE PUSH1 0x20 DUP2 LT ISZERO PUSH2 0x3844 JUMPI PUSH1 0x0 DUP1 PUSH2 0x3841 PUSH2 0x5247 JUMP JUMPDEST POP POP JUMPDEST DUP2 ADD SWAP1 DUP1 DUP1 MLOAD SWAP4 POP POP POP POP SWAP1 JUMP JUMPDEST PUSH1 0x0 DUP3 PUSH32 0x7355534400000000000000000000000000000000000000000000000000000000 EQ ISZERO PUSH2 0x3884 JUMPI POP PUSH1 0x0 PUSH2 0x10D2 JUMP JUMPDEST PUSH2 0x3896 DUP3 PUSH2 0x3891 DUP6 PUSH2 0x389D JUMP JUMPDEST PUSH2 0x3F2E JUMP JUMPDEST SWAP4 SWAP3 POP POP POP JUMP JUMPDEST PUSH1 0x0 PUSH2 0x38A8 DUP3 PUSH2 0x3BA3 JUMP JUMPDEST PUSH1 0x20 ADD MLOAD PUSH5 0xFFFFFFFFFF AND SWAP3 SWAP2 POP POP JUMP JUMPDEST PUSH1 0x60 PUSH1 0x0 PUSH2 0x38C5 PUSH2 0x3F51 JUMP JUMPDEST SWAP1 POP PUSH20 0xFFFFFFFFFFFFFFFFFFFFFFFFFFFFFFFFFFFFFFFF DUP2 AND ISZERO PUSH2 0x3B70 JUMPI PUSH1 0x60 DUP4 MLOAD PUSH1 0x40 MLOAD SWAP1 DUP1 DUP3 MSTORE DUP1 PUSH1 0x20 MUL PUSH1 0x20 ADD DUP3 ADD PUSH1 0x40 MSTORE DUP1 ISZERO PUSH2 0x3910 JUMPI DUP2 PUSH1 0x20 ADD PUSH1 0x20 DUP3 MUL DUP1 CODESIZE DUP4 CODECOPY ADD SWAP1 POP JUMPDEST POP SWAP1 POP PUSH1 0x0 JUMPDEST DUP5 MLOAD DUP2 LT ISZERO PUSH2 0x39A6 JUMPI PUSH1 0x9 PUSH1 0x0 DUP7 DUP4 DUP2 MLOAD DUP2 LT PUSH2 0x392F JUMPI INVALID JUMPDEST PUSH1 0x20 MUL PUSH1 0x20 ADD ADD MLOAD DUP2 MSTORE PUSH1 0x20 ADD SWAP1 DUP2 MSTORE PUSH1 0x20 ADD PUSH1 0x0 KECCAK256 PUSH1 0x0 SWAP1 PUSH2 0x3950 PUSH2 0x52B2 JUMP JUMPDEST SWAP1 PUSH2 0x100 EXP SWAP1 DIV PUSH20 0xFFFFFFFFFFFFFFFFFFFFFFFFFFFFFFFFFFFFFFFF AND DUP3 DUP3 DUP2 MLOAD DUP2 LT PUSH2 0x3979 JUMPI INVALID JUMPDEST PUSH20 0xFFFFFFFFFFFFFFFFFFFFFFFFFFFFFFFFFFFFFFFF SWAP1 SWAP3 AND PUSH1 0x20 SWAP3 DUP4 MUL SWAP2 SWAP1 SWAP2 ADD SWAP1 SWAP2 ADD MSTORE PUSH1 0x1 ADD PUSH2 0x3916 JUMP JUMPDEST POP DUP2 PUSH20 0xFFFFFFFFFFFFFFFFFFFFFFFFFFFFFFFFFFFFFFFF AND PUSH4 0x7D723CAC DUP3 PUSH1 0x40 MLOAD DUP3 PUSH4 0xFFFFFFFF AND PUSH1 0xE0 SHL DUP2 MSTORE PUSH1 0x4 ADD DUP1 DUP1 PUSH1 0x20 ADD DUP3 DUP2 SUB DUP3 MSTORE DUP4 DUP2 DUP2 MLOAD DUP2 MSTORE PUSH1 0x20 ADD SWAP2 POP DUP1 MLOAD SWAP1 PUSH1 0x20 ADD SWAP1 PUSH1 0x20 MUL DUP1 DUP4 DUP4 PUSH1 0x0 JUMPDEST DUP4 DUP2 LT ISZERO PUSH2 0x3A13 JUMPI DUP1 DUP3 ADD MLOAD DUP4 DUP3 ADD MSTORE PUSH1 0x20 ADD PUSH2 0x39FB JUMP JUMPDEST POP POP POP POP SWAP1 POP ADD SWAP3 POP POP POP PUSH1 0x0 PUSH1 0x40 MLOAD DUP1 DUP4 SUB DUP2 DUP7 DUP1 PUSH2 0x3A31 PUSH2 0x539F JUMP JUMPDEST ISZERO DUP1 ISZERO PUSH2 0x3A46 JUMPI PUSH1 0x0 DUP1 PUSH2 0x3A43 PUSH2 0x5247 JUMP JUMPDEST POP POP JUMPDEST POP GAS PUSH2 0x3A50 PUSH2 0x53EB JUMP JUMPDEST POP POP POP POP POP ISZERO DUP1 ISZERO PUSH2 0x3A6F JUMPI RETURNDATASIZE PUSH1 0x0 DUP1 RETURNDATACOPY RETURNDATASIZE PUSH1 0x0 PUSH2 0x3A6C PUSH2 0x5247 JUMP JUMPDEST POP POP JUMPDEST POP POP POP POP PUSH1 0x40 MLOAD RETURNDATASIZE PUSH1 0x0 DUP3 RETURNDATACOPY PUSH1 0x1F RETURNDATASIZE SWAP1 DUP2 ADD PUSH32 0xFFFFFFFFFFFFFFFFFFFFFFFFFFFFFFFFFFFFFFFFFFFFFFFFFFFFFFFFFFFFFFE0 AND DUP3 ADD PUSH1 0x40 MSTORE PUSH1 0x20 DUP2 LT ISZERO PUSH2 0x3ABF JUMPI PUSH1 0x0 DUP1 PUSH2 0x3ABC PUSH2 0x5247 JUMP JUMPDEST POP POP JUMPDEST DUP2 ADD SWAP1 DUP1 DUP1 MLOAD PUSH1 0x40 MLOAD SWAP4 SWAP3 SWAP2 SWAP1 DUP5 PUSH5 0x100000000 DUP3 GT ISZERO PUSH2 0x3AE8 JUMPI PUSH1 0x0 DUP1 PUSH2 0x3AE5 PUSH2 0x5247 JUMP JUMPDEST POP POP JUMPDEST SWAP1 DUP4 ADD SWAP1 PUSH1 0x20 DUP3 ADD DUP6 DUP2 GT ISZERO PUSH2 0x3B06 JUMPI PUSH1 0x0 DUP1 PUSH2 0x3B03 PUSH2 0x5247 JUMP JUMPDEST POP POP JUMPDEST DUP3 MLOAD DUP7 PUSH1 0x20 DUP3 MUL DUP4 ADD GT PUSH5 0x100000000 DUP3 GT OR ISZERO PUSH2 0x3B2C JUMPI PUSH1 0x0 DUP1 PUSH2 0x3B29 PUSH2 0x5247 JUMP JUMPDEST POP POP JUMPDEST DUP3 MSTORE POP PUSH1 0x20 ADD SWAP1 DUP1 MLOAD SWAP1 PUSH1 0x20 ADD SWAP1 PUSH1 0x20 MUL DUP1 DUP4 DUP4 PUSH1 0x0 JUMPDEST DUP4 DUP2 LT ISZERO PUSH2 0x3B5B JUMPI DUP1 DUP3 ADD MLOAD DUP4 DUP3 ADD MSTORE PUSH1 0x20 ADD PUSH2 0x3B43 JUMP JUMPDEST POP POP POP POP SWAP1 POP ADD PUSH1 0x40 MSTORE POP POP POP SWAP3 POP POP PUSH2 0x19FE JUMP JUMPDEST DUP3 MLOAD PUSH1 0x40 MLOAD SWAP1 DUP1 DUP3 MSTORE DUP1 PUSH1 0x20 MUL PUSH1 0x20 ADD DUP3 ADD PUSH1 0x40 MSTORE DUP1 ISZERO PUSH2 0x3B9B JUMPI DUP2 PUSH1 0x20 ADD PUSH1 0x20 DUP3 MUL DUP1 CODESIZE DUP4 CODECOPY ADD SWAP1 POP JUMPDEST POP SWAP4 SWAP3 POP POP POP JUMP JUMPDEST PUSH2 0x3BAB PUSH2 0x530D JUMP JUMPDEST PUSH1 0x0 DUP3 DUP2 MSTORE PUSH1 0x9 PUSH1 0x20 MSTORE PUSH1 0x40 DUP2 KECCAK256 PUSH1 0x0 SWAP1 PUSH2 0x3BC4 PUSH2 0x52B2 JUMP JUMPDEST PUSH20 0xFFFFFFFFFFFFFFFFFFFFFFFFFFFFFFFFFFFFFFFF PUSH2 0x100 SWAP3 SWAP1 SWAP3 EXP SWAP1 DIV AND SWAP1 POP DUP1 ISZERO PUSH2 0x3E25 JUMPI PUSH1 0x60 PUSH1 0x40 MLOAD PUSH1 0x24 ADD PUSH1 0x40 MLOAD PUSH32 0xFFFFFFFFFFFFFFFFFFFFFFFFFFFFFFFFFFFFFFFFFFFFFFFFFFFFFFFFFFFFFFE0 DUP2 DUP4 SUB ADD DUP2 MSTORE PUSH1 0x40 SWAP2 SWAP1 SWAP2 MSTORE PUSH32 0xFEAF968C00000000000000000000000000000000000000000000000000000000 PUSH1 0x20 DUP3 ADD DUP1 MLOAD PUSH28 0xFFFFFFFFFFFFFFFFFFFFFFFFFFFFFFFFFFFFFFFFFFFFFFFFFFFFFFFF AND SWAP1 SWAP2 OR SWAP1 MSTORE SWAP1 POP PUSH1 0x0 PUSH1 0x60 PUSH20 0xFFFFFFFFFFFFFFFFFFFFFFFFFFFFFFFFFFFFFFFF DUP5 AND DUP4 PUSH1 0x40 MLOAD DUP1 DUP3 DUP1 MLOAD SWAP1 PUSH1 0x20 ADD SWAP1 DUP1 DUP4 DUP4 JUMPDEST PUSH1 0x20 DUP4 LT PUSH2 0x3CD8 JUMPI DUP1 MLOAD DUP3 MSTORE PUSH32 0xFFFFFFFFFFFFFFFFFFFFFFFFFFFFFFFFFFFFFFFFFFFFFFFFFFFFFFFFFFFFFFE0 SWAP1 SWAP3 ADD SWAP2 PUSH1 0x20 SWAP2 DUP3 ADD SWAP2 ADD PUSH2 0x3C9B JUMP JUMPDEST PUSH1 0x1 DUP4 PUSH1 0x20 SUB PUSH2 0x100 EXP SUB DUP1 NOT DUP3 MLOAD AND DUP2 DUP5 MLOAD AND DUP1 DUP3 OR DUP6 MSTORE POP POP POP POP POP POP SWAP1 POP ADD SWAP2 POP POP PUSH1 0x0 PUSH1 0x40 MLOAD DUP1 DUP4 SUB DUP2 DUP6 GAS PUSH2 0x3D10 PUSH2 0x53EB JUMP JUMPDEST POP POP POP POP POP SWAP2 POP POP RETURNDATASIZE DUP1 PUSH1 0x0 DUP2 EQ PUSH2 0x3D62 JUMPI PUSH1 0x40 MLOAD RETURNDATASIZE PUSH1 0x3F ADD PUSH32 0xFFFFFFFFFFFFFFFFFFFFFFFFFFFFFFFFFFFFFFFFFFFFFFFFFFFFFFFFFFFFFFE0 AND DUP2 ADD PUSH1 0x40 MSTORE RETURNDATASIZE DUP2 MSTORE SWAP2 POP RETURNDATASIZE PUSH1 0x0 PUSH1 0x20 DUP5 ADD RETURNDATACOPY PUSH2 0x3D67 JUMP JUMPDEST PUSH1 0x60 SWAP2 POP JUMPDEST POP SWAP2 POP SWAP2 POP DUP2 ISZERO PUSH2 0x3E1D JUMPI PUSH1 0x0 DUP1 PUSH1 0x20 DUP4 ADD DUP4 MLOAD PUSH1 0xA0 DUP2 LT ISZERO PUSH2 0x3D92 JUMPI PUSH1 0x0 DUP1 PUSH2 0x3D8F PUSH2 0x5247 JUMP JUMPDEST POP POP JUMPDEST DUP2 ADD SWAP1 DUP1 DUP1 MLOAD SWAP3 SWAP2 SWAP1 PUSH1 0x20 ADD DUP1 MLOAD SWAP3 SWAP2 SWAP1 PUSH1 0x20 ADD DUP1 MLOAD SWAP3 SWAP2 SWAP1 PUSH1 0x20 ADD DUP1 MLOAD SWAP3 SWAP2 SWAP1 PUSH1 0x20 ADD DUP1 MLOAD POP SWAP5 SWAP8 POP SWAP2 SWAP6 POP PUSH1 0x40 SWAP5 POP POP POP POP POP MLOAD DUP1 PUSH1 0x40 ADD PUSH1 0x40 MSTORE DUP1 PUSH2 0x3DE3 DUP11 PUSH2 0x3DDE DUP13 DUP8 PUSH2 0x4C64 JUMP JUMPDEST PUSH2 0x4D3C JUMP JUMPDEST PUSH27 0xFFFFFFFFFFFFFFFFFFFFFFFFFFFFFFFFFFFFFFFFFFFFFFFFFFFFFF AND DUP2 MSTORE PUSH1 0x20 ADD DUP3 PUSH5 0xFFFFFFFFFF AND DUP2 MSTORE POP SWAP7 POP POP POP POP POP POP POP PUSH2 0x1028 JUMP JUMPDEST POP POP POP PUSH2 0x19FE JUMP JUMPDEST PUSH2 0x3E2D PUSH2 0x530D JUMP JUMPDEST PUSH1 0x0 DUP5 DUP2 MSTORE PUSH1 0x7 PUSH1 0x20 MSTORE PUSH1 0x40 SWAP1 KECCAK256 PUSH1 0x0 DUP6 DUP2 MSTORE PUSH1 0xE PUSH1 0x20 MSTORE PUSH1 0x40 DUP2 KECCAK256 PUSH2 0x3E51 PUSH2 0x52B2 JUMP JUMPDEST DUP2 MSTORE PUSH1 0x20 ADD SWAP1 DUP2 MSTORE PUSH1 0x20 ADD PUSH1 0x0 KECCAK256 PUSH1 0x40 MLOAD PUSH1 0x40 DUP1 DUP3 ADD SWAP1 MSTORE SWAP1 DUP2 PUSH1 0x0 DUP3 PUSH2 0x3E76 PUSH2 0x52B2 JUMP JUMPDEST PUSH27 0xFFFFFFFFFFFFFFFFFFFFFFFFFFFFFFFFFFFFFFFFFFFFFFFFFFFFFF PUSH2 0x100 SWAP3 SWAP1 SWAP3 EXP SWAP1 DIV AND DUP2 MSTORE PUSH1 0x20 ADD PUSH1 0x1B DUP3 PUSH2 0x3EAC PUSH2 0x52B2 JUMP JUMPDEST PUSH5 0xFFFFFFFFFF PUSH2 0x100 SWAP3 SWAP1 SWAP3 EXP SWAP1 DIV AND SWAP1 MSTORE POP SWAP1 POP PUSH1 0x40 MLOAD PUSH1 0x40 DUP1 DUP3 ADD SWAP1 MSTORE DUP1 PUSH2 0x3EF4 DUP7 DUP5 MLOAD PUSH27 0xFFFFFFFFFFFFFFFFFFFFFFFFFFFFFFFFFFFFFFFFFFFFFFFFFFFFFF AND PUSH2 0x4D3C JUMP JUMPDEST PUSH27 0xFFFFFFFFFFFFFFFFFFFFFFFFFFFFFFFFFFFFFFFFFFFFFFFFFFFFFF AND DUP2 MSTORE PUSH1 0x20 ADD DUP3 PUSH1 0x20 ADD MLOAD PUSH5 0xFFFFFFFFFF AND DUP2 MSTORE POP SWAP3 POP POP POP PUSH2 0x1028 JUMP JUMPDEST PUSH1 0x0 GAS PUSH2 0x3F39 PUSH2 0x54EA JUMP JUMPDEST PUSH2 0x3F49 DUP4 DUP6 PUSH4 0xFFFFFFFF PUSH2 0x4E88 AND JUMP JUMPDEST LT SWAP4 SWAP3 POP POP POP JUMP JUMPDEST PUSH1 0x0 PUSH2 0x3F5B PUSH2 0x4C05 JUMP JUMPDEST PUSH20 0xFFFFFFFFFFFFFFFFFFFFFFFFFFFFFFFFFFFFFFFF AND PUSH4 0x9EE5955A PUSH32 0x53797374656D53657474696E6773000000000000000000000000000000000000 PUSH32 0x61676772656761746F725761726E696E67466C61677300000000000000000000 PUSH1 0x40 MLOAD PUSH32 0xFFFFFFFF00000000000000000000000000000000000000000000000000000000 PUSH1 0xE0 DUP6 SWAP1 SHL AND DUP2 MSTORE PUSH1 0x4 DUP2 ADD SWAP3 SWAP1 SWAP3 MSTORE PUSH1 0x24 DUP3 ADD MSTORE PUSH1 0x44 ADD PUSH1 0x20 PUSH1 0x40 MLOAD DUP1 DUP4 SUB DUP2 DUP7 DUP1 PUSH2 0x37E7 PUSH2 0x539F JUMP JUMPDEST PUSH1 0x0 DUP3 PUSH32 0x7355534400000000000000000000000000000000000000000000000000000000 EQ ISZERO PUSH2 0x4039 JUMPI POP PUSH1 0x0 PUSH2 0x10D2 JUMP JUMPDEST PUSH1 0x0 DUP4 DUP2 MSTORE PUSH1 0x9 PUSH1 0x20 MSTORE PUSH1 0x40 DUP2 KECCAK256 PUSH1 0x0 SWAP1 PUSH2 0x4052 PUSH2 0x52B2 JUMP JUMPDEST PUSH20 0xFFFFFFFFFFFFFFFFFFFFFFFFFFFFFFFFFFFFFFFF PUSH2 0x100 SWAP3 SWAP1 SWAP3 EXP SWAP1 DIV AND SWAP1 POP DUP1 ISZERO DUP1 PUSH2 0x4094 JUMPI POP PUSH20 0xFFFFFFFFFFFFFFFFFFFFFFFFFFFFFFFFFFFFFFFF DUP4 AND ISZERO JUMPDEST ISZERO PUSH2 0x40A3 JUMPI PUSH1 0x0 SWAP2 POP POP PUSH2 0x10D2 JUMP JUMPDEST DUP3 PUSH20 0xFFFFFFFFFFFFFFFFFFFFFFFFFFFFFFFFFFFFFFFF AND PUSH4 0x357E47FE DUP3 PUSH1 0x40 MLOAD PUSH32 0xFFFFFFFF00000000000000000000000000000000000000000000000000000000 PUSH1 0xE0 DUP5 SWAP1 SHL AND DUP2 MSTORE PUSH20 0xFFFFFFFFFFFFFFFFFFFFFFFFFFFFFFFFFFFFFFFF SWAP1 SWAP2 AND PUSH1 0x4 DUP3 ADD MSTORE PUSH1 0x24 ADD PUSH1 0x20 PUSH1 0x40 MLOAD DUP1 DUP4 SUB DUP2 DUP7 DUP1 PUSH2 0x411F PUSH2 0x539F JUMP JUMPDEST ISZERO DUP1 ISZERO PUSH2 0x4134 JUMPI PUSH1 0x0 DUP1 PUSH2 0x4131 PUSH2 0x5247 JUMP JUMPDEST POP POP JUMPDEST POP GAS PUSH2 0x413E PUSH2 0x53EB JUMP JUMPDEST POP POP POP POP POP ISZERO DUP1 ISZERO PUSH2 0x415D JUMPI RETURNDATASIZE PUSH1 0x0 DUP1 RETURNDATACOPY RETURNDATASIZE PUSH1 0x0 PUSH2 0x415A PUSH2 0x5247 JUMP JUMPDEST POP POP JUMPDEST POP POP POP POP PUSH1 0x40 MLOAD RETURNDATASIZE PUSH1 0x20 DUP2 LT ISZERO PUSH2 0x417C JUMPI PUSH1 0x0 DUP1 PUSH2 0x4179 PUSH2 0x5247 JUMP JUMPDEST POP POP JUMPDEST DUP2 ADD SWAP1 DUP1 DUP1 MLOAD SWAP8 SWAP7 POP POP POP POP POP POP POP JUMP JUMPDEST PUSH1 0x0 DUP3 DUP2 MSTORE PUSH1 0x9 PUSH1 0x20 MSTORE DUP1 DUP1 PUSH1 0x40 DUP2 KECCAK256 PUSH1 0x0 SWAP1 PUSH2 0x41A8 PUSH2 0x52B2 JUMP JUMPDEST PUSH20 0xFFFFFFFFFFFFFFFFFFFFFFFFFFFFFFFFFFFFFFFF PUSH2 0x100 SWAP3 SWAP1 SWAP3 EXP SWAP1 DIV AND SWAP1 POP DUP1 ISZERO PUSH2 0x43DC JUMPI PUSH1 0x60 DUP5 PUSH1 0x40 MLOAD PUSH1 0x24 DUP2 ADD SWAP2 SWAP1 SWAP2 MSTORE PUSH1 0x44 ADD PUSH1 0x40 MLOAD PUSH32 0xFFFFFFFFFFFFFFFFFFFFFFFFFFFFFFFFFFFFFFFFFFFFFFFFFFFFFFFFFFFFFFE0 DUP2 DUP4 SUB ADD DUP2 MSTORE PUSH1 0x40 SWAP2 SWAP1 SWAP2 MSTORE PUSH32 0x9A6FC8F500000000000000000000000000000000000000000000000000000000 PUSH1 0x20 DUP3 ADD DUP1 MLOAD PUSH28 0xFFFFFFFFFFFFFFFFFFFFFFFFFFFFFFFFFFFFFFFFFFFFFFFFFFFFFFFF AND SWAP1 SWAP2 OR SWAP1 MSTORE SWAP1 POP PUSH1 0x0 PUSH1 0x60 PUSH20 0xFFFFFFFFFFFFFFFFFFFFFFFFFFFFFFFFFFFFFFFF DUP5 AND DUP4 PUSH1 0x40 MLOAD DUP1 DUP3 DUP1 MLOAD SWAP1 PUSH1 0x20 ADD SWAP1 DUP1 DUP4 DUP4 JUMPDEST PUSH1 0x20 DUP4 LT PUSH2 0x42C5 JUMPI DUP1 MLOAD DUP3 MSTORE PUSH32 0xFFFFFFFFFFFFFFFFFFFFFFFFFFFFFFFFFFFFFFFFFFFFFFFFFFFFFFFFFFFFFFE0 SWAP1 SWAP3 ADD SWAP2 PUSH1 0x20 SWAP2 DUP3 ADD SWAP2 ADD PUSH2 0x4288 JUMP JUMPDEST PUSH1 0x1 DUP4 PUSH1 0x20 SUB PUSH2 0x100 EXP SUB DUP1 NOT DUP3 MLOAD AND DUP2 DUP5 MLOAD AND DUP1 DUP3 OR DUP6 MSTORE POP POP POP POP POP POP SWAP1 POP ADD SWAP2 POP POP PUSH1 0x0 PUSH1 0x40 MLOAD DUP1 DUP4 SUB DUP2 DUP6 GAS PUSH2 0x42FD PUSH2 0x53EB JUMP JUMPDEST POP POP POP POP POP SWAP2 POP POP RETURNDATASIZE DUP1 PUSH1 0x0 DUP2 EQ PUSH2 0x434F JUMPI PUSH1 0x40 MLOAD RETURNDATASIZE PUSH1 0x3F ADD PUSH32 0xFFFFFFFFFFFFFFFFFFFFFFFFFFFFFFFFFFFFFFFFFFFFFFFFFFFFFFFFFFFFFFE0 AND DUP2 ADD PUSH1 0x40 MSTORE RETURNDATASIZE DUP2 MSTORE SWAP2 POP RETURNDATASIZE PUSH1 0x0 PUSH1 0x20 DUP5 ADD RETURNDATACOPY PUSH2 0x4354 JUMP JUMPDEST PUSH1 0x60 SWAP2 POP JUMPDEST POP SWAP2 POP SWAP2 POP DUP2 ISZERO PUSH2 0x43D4 JUMPI PUSH1 0x0 DUP1 PUSH1 0x20 DUP4 ADD DUP4 MLOAD PUSH1 0xA0 DUP2 LT ISZERO PUSH2 0x437F JUMPI PUSH1 0x0 DUP1 PUSH2 0x437C PUSH2 0x5247 JUMP JUMPDEST POP POP JUMPDEST DUP2 ADD SWAP1 DUP1 DUP1 MLOAD SWAP3 SWAP2 SWAP1 PUSH1 0x20 ADD DUP1 MLOAD SWAP3 SWAP2 SWAP1 PUSH1 0x20 ADD DUP1 MLOAD SWAP3 SWAP2 SWAP1 PUSH1 0x20 ADD DUP1 MLOAD SWAP3 SWAP2 SWAP1 PUSH1 0x20 ADD DUP1 MLOAD SWAP1 PUSH1 0x20 ADD SWAP1 SWAP3 SWAP2 SWAP1 POP POP POP POP SWAP4 POP POP SWAP3 POP POP PUSH2 0x43C5 DUP11 PUSH2 0x3DDE DUP13 DUP6 PUSH2 0x4C64 JUMP JUMPDEST SWAP8 POP SWAP6 POP PUSH2 0x1866 SWAP5 POP POP POP POP POP JUMP JUMPDEST POP POP POP PUSH2 0x44A4 JUMP JUMPDEST PUSH2 0x43E4 PUSH2 0x530D JUMP JUMPDEST PUSH1 0x0 DUP7 DUP2 MSTORE PUSH1 0x7 PUSH1 0x20 MSTORE PUSH1 0x40 SWAP1 KECCAK256 PUSH1 0x0 DUP7 DUP2 MSTORE PUSH1 0x20 SWAP2 SWAP1 SWAP2 MSTORE PUSH1 0x40 SWAP1 KECCAK256 PUSH1 0x40 MLOAD PUSH1 0x40 DUP1 DUP3 ADD SWAP1 MSTORE SWAP1 DUP2 PUSH1 0x0 DUP3 PUSH2 0x4418 PUSH2 0x52B2 JUMP JUMPDEST PUSH27 0xFFFFFFFFFFFFFFFFFFFFFFFFFFFFFFFFFFFFFFFFFFFFFFFFFFFFFF PUSH2 0x100 SWAP3 SWAP1 SWAP3 EXP SWAP1 DIV AND DUP2 MSTORE PUSH1 0x20 ADD PUSH1 0x1B DUP3 PUSH2 0x444E PUSH2 0x52B2 JUMP JUMPDEST PUSH5 0xFFFFFFFFFF PUSH2 0x100 SWAP3 SWAP1 SWAP3 EXP SWAP1 DIV AND SWAP1 MSTORE POP SWAP1 POP PUSH2 0x448B DUP7 DUP3 MLOAD PUSH27 0xFFFFFFFFFFFFFFFFFFFFFFFFFFFFFFFFFFFFFFFFFFFFFFFFFFFFFF AND PUSH2 0x4D3C JUMP JUMPDEST DUP2 PUSH1 0x20 ADD MLOAD SWAP1 SWAP5 POP PUSH5 0xFFFFFFFFFF AND SWAP3 POP PUSH2 0x1866 SWAP2 POP POP JUMP JUMPDEST POP SWAP3 POP SWAP3 SWAP1 POP JUMP JUMPDEST PUSH1 0x0 DUP1 PUSH2 0x44B7 PUSH2 0x52B2 JUMP JUMPDEST SWAP1 PUSH2 0x100 EXP SWAP1 DIV PUSH20 0xFFFFFFFFFFFFFFFFFFFFFFFFFFFFFFFFFFFFFFFF AND PUSH20 0xFFFFFFFFFFFFFFFFFFFFFFFFFFFFFFFFFFFFFFFF AND GAS PUSH2 0x44F3 PUSH2 0x54A4 JUMP JUMPDEST PUSH20 0xFFFFFFFFFFFFFFFFFFFFFFFFFFFFFFFFFFFFFFFF AND EQ PUSH2 0x454B JUMPI PUSH1 0x40 MLOAD PUSH3 0x461BCD PUSH1 0xE5 SHL DUP2 MSTORE PUSH1 0x4 ADD DUP1 DUP1 PUSH1 0x20 ADD DUP3 DUP2 SUB DUP3 MSTORE PUSH1 0x2F DUP2 MSTORE PUSH1 0x20 ADD DUP1 PUSH2 0x56E8 PUSH1 0x2F SWAP2 CODECOPY PUSH1 0x40 ADD SWAP2 POP POP PUSH1 0x40 MLOAD DUP1 SWAP2 SUB SWAP1 PUSH2 0x1C3E PUSH2 0x5247 JUMP JUMPDEST JUMP JUMPDEST PUSH1 0x0 PUSH2 0x3896 DUP4 DUP4 PUSH8 0xDE0B6B3A7640000 PUSH2 0x4EE7 JUMP JUMPDEST PUSH1 0x0 PUSH2 0x3896 DUP4 DUP4 PUSH8 0xDE0B6B3A7640000 PUSH2 0x4F24 JUMP JUMPDEST PUSH1 0x0 DUP1 JUMPDEST DUP3 DUP1 PUSH2 0x4585 PUSH2 0x52B2 JUMP JUMPDEST SWAP1 POP DUP2 LT ISZERO PUSH2 0x468B JUMPI DUP4 DUP4 DUP3 DUP2 PUSH2 0x459A PUSH2 0x52B2 JUMP JUMPDEST DUP2 LT PUSH2 0x45A2 JUMPI INVALID JUMPDEST SWAP1 PUSH1 0x0 MSTORE PUSH1 0x20 PUSH1 0x0 KECCAK256 ADD PUSH2 0x45B4 PUSH2 0x52B2 JUMP JUMPDEST EQ ISZERO PUSH2 0x4683 JUMPI DUP3 DUP2 DUP2 PUSH2 0x45C5 PUSH2 0x52B2 JUMP JUMPDEST DUP2 LT PUSH2 0x45CD JUMPI INVALID JUMPDEST SWAP1 PUSH1 0x0 MSTORE PUSH1 0x20 PUSH1 0x0 KECCAK256 ADD PUSH1 0x0 SWAP1 PUSH2 0x45E2 PUSH2 0x5324 JUMP JUMPDEST POP POP DUP3 PUSH1 0x1 DUP5 DUP1 PUSH2 0x45F1 PUSH2 0x52B2 JUMP JUMPDEST SWAP1 POP SUB DUP2 PUSH2 0x45FD PUSH2 0x52B2 JUMP JUMPDEST DUP2 LT PUSH2 0x4605 JUMPI INVALID JUMPDEST SWAP1 PUSH1 0x0 MSTORE PUSH1 0x20 PUSH1 0x0 KECCAK256 ADD PUSH2 0x4617 PUSH2 0x52B2 JUMP JUMPDEST DUP4 DUP3 DUP2 PUSH2 0x4622 PUSH2 0x52B2 JUMP JUMPDEST DUP2 LT PUSH2 0x462A JUMPI INVALID JUMPDEST SWAP1 PUSH1 0x0 MSTORE PUSH1 0x20 PUSH1 0x0 KECCAK256 ADD DUP2 SWAP1 PUSH2 0x463E PUSH2 0x5324 JUMP JUMPDEST POP POP POP DUP3 DUP1 PUSH2 0x464B PUSH2 0x52B2 JUMP JUMPDEST SWAP1 PUSH2 0x4678 SWAP1 PUSH32 0xFFFFFFFFFFFFFFFFFFFFFFFFFFFFFFFFFFFFFFFFFFFFFFFFFFFFFFFFFFFFFFFF DUP4 ADD PUSH2 0x5606 JUMP JUMPDEST POP PUSH1 0x1 SWAP2 POP POP PUSH2 0x10D2 JUMP JUMPDEST PUSH1 0x1 ADD PUSH2 0x457B JUMP JUMPDEST POP PUSH1 0x0 SWAP4 SWAP3 POP POP POP JUMP JUMPDEST PUSH1 0x0 DUP2 DUP2 MSTORE PUSH1 0x9 PUSH1 0x20 MSTORE DUP1 PUSH1 0x40 DUP2 KECCAK256 PUSH1 0x0 SWAP1 PUSH2 0x46AF PUSH2 0x52B2 JUMP JUMPDEST PUSH20 0xFFFFFFFFFFFFFFFFFFFFFFFFFFFFFFFFFFFFFFFF PUSH2 0x100 SWAP3 SWAP1 SWAP3 EXP SWAP1 DIV AND SWAP1 POP DUP1 ISZERO PUSH2 0x4786 JUMPI DUP1 PUSH20 0xFFFFFFFFFFFFFFFFFFFFFFFFFFFFFFFFFFFFFFFF AND PUSH4 0x668A0F02 PUSH1 0x40 MLOAD DUP2 PUSH4 0xFFFFFFFF AND PUSH1 0xE0 SHL DUP2 MSTORE PUSH1 0x4 ADD PUSH1 0x20 PUSH1 0x40 MLOAD DUP1 DUP4 SUB DUP2 DUP7 DUP1 PUSH2 0x4717 PUSH2 0x539F JUMP JUMPDEST ISZERO DUP1 ISZERO PUSH2 0x472C JUMPI PUSH1 0x0 DUP1 PUSH2 0x4729 PUSH2 0x5247 JUMP JUMPDEST POP POP JUMPDEST POP GAS PUSH2 0x4736 PUSH2 0x53EB JUMP JUMPDEST POP POP POP POP POP ISZERO DUP1 ISZERO PUSH2 0x4755 JUMPI RETURNDATASIZE PUSH1 0x0 DUP1 RETURNDATACOPY RETURNDATASIZE PUSH1 0x0 PUSH2 0x4752 PUSH2 0x5247 JUMP JUMPDEST POP POP JUMPDEST POP POP POP POP PUSH1 0x40 MLOAD RETURNDATASIZE PUSH1 0x20 DUP2 LT ISZERO PUSH2 0x4774 JUMPI PUSH1 0x0 DUP1 PUSH2 0x4771 PUSH2 0x5247 JUMP JUMPDEST POP POP JUMPDEST DUP2 ADD SWAP1 DUP1 DUP1 MLOAD SWAP5 POP PUSH2 0x1028 SWAP4 POP POP POP POP JUMP JUMPDEST PUSH1 0x0 DUP4 DUP2 MSTORE PUSH1 0xE PUSH1 0x20 MSTORE PUSH1 0x40 SWAP1 KECCAK256 PUSH2 0x479C PUSH2 0x52B2 JUMP JUMPDEST SWAP2 POP POP PUSH2 0x1028 JUMP JUMPDEST PUSH1 0x0 DUP1 PUSH1 0x0 PUSH2 0x47B2 DUP7 PUSH2 0x2A7A JUMP JUMPDEST SWAP2 POP DUP4 DUP7 EQ ISZERO PUSH2 0x47C6 JUMPI POP DUP4 SWAP2 POP DUP1 PUSH2 0x2888 JUMP JUMPDEST PUSH2 0x47CF DUP5 PUSH2 0x2A7A JUMP JUMPDEST SWAP1 POP DUP1 ISZERO PUSH2 0x2888 JUMPI PUSH2 0x47EB DUP2 PUSH2 0x14DB DUP8 DUP6 PUSH4 0xFFFFFFFF PUSH2 0x454D AND JUMP JUMPDEST SWAP3 POP SWAP4 POP SWAP4 POP SWAP4 SWAP1 POP JUMP JUMPDEST PUSH1 0x0 PUSH2 0x4800 PUSH2 0x5372 JUMP JUMPDEST PUSH1 0x0 DUP4 DUP2 MSTORE PUSH1 0xC PUSH1 0x20 MSTORE PUSH1 0x40 SWAP1 KECCAK256 PUSH1 0x40 MLOAD PUSH1 0xA0 DUP2 ADD PUSH1 0x40 MSTORE SWAP1 DUP2 DUP2 PUSH2 0x4823 PUSH2 0x52B2 JUMP JUMPDEST DUP2 MSTORE PUSH1 0x20 ADD PUSH1 0x1 DUP3 ADD PUSH2 0x4834 PUSH2 0x52B2 JUMP JUMPDEST DUP2 MSTORE PUSH1 0x20 ADD PUSH1 0x2 DUP3 ADD PUSH2 0x4845 PUSH2 0x52B2 JUMP JUMPDEST DUP2 MSTORE PUSH1 0x20 ADD PUSH1 0x0 PUSH1 0x3 DUP4 ADD PUSH2 0x4858 PUSH2 0x52B2 JUMP JUMPDEST PUSH1 0xFF PUSH2 0x100 SWAP3 SWAP1 SWAP3 EXP SWAP1 DIV AND ISZERO ISZERO DUP2 MSTORE PUSH1 0x20 ADD PUSH1 0x1 PUSH1 0x3 DUP4 ADD PUSH2 0x4879 PUSH2 0x52B2 JUMP JUMPDEST PUSH1 0xFF PUSH2 0x100 SWAP3 SWAP1 SWAP3 EXP SWAP1 DIV AND ISZERO ISZERO SWAP1 MSTORE POP SWAP1 POP PUSH1 0x60 DUP2 ADD MLOAD DUP1 PUSH2 0x3896 JUMPI POP DUP1 PUSH1 0x80 ADD MLOAD SWAP4 SWAP3 POP POP POP JUMP JUMPDEST PUSH1 0x0 DUP3 PUSH2 0x48B2 JUMPI POP PUSH1 0x0 PUSH2 0x10D2 JUMP JUMPDEST DUP3 DUP3 MUL DUP3 DUP5 DUP3 DUP2 PUSH2 0x48BF JUMPI INVALID JUMPDEST DIV EQ PUSH2 0x3896 JUMPI PUSH1 0x40 MLOAD PUSH3 0x461BCD PUSH1 0xE5 SHL DUP2 MSTORE PUSH1 0x4 ADD DUP1 DUP1 PUSH1 0x20 ADD DUP3 DUP2 SUB DUP3 MSTORE PUSH1 0x21 DUP2 MSTORE PUSH1 0x20 ADD DUP1 PUSH2 0x5717 PUSH1 0x21 SWAP2 CODECOPY PUSH1 0x40 ADD SWAP2 POP POP PUSH1 0x40 MLOAD DUP1 SWAP2 SUB SWAP1 PUSH2 0x4902 PUSH2 0x5247 JUMP JUMPDEST POP POP SWAP4 SWAP3 POP POP POP JUMP JUMPDEST PUSH1 0x0 PUSH2 0x125E PUSH32 0x45786368616E6765720000000000000000000000000000000000000000000000 PUSH1 0x40 MLOAD PUSH1 0x40 DUP1 DUP3 ADD SWAP1 MSTORE PUSH1 0x19 DUP2 MSTORE PUSH32 0x4D697373696E672045786368616E676572206164647265737300000000000000 PUSH1 0x20 DUP3 ADD MSTORE PUSH2 0x4F56 JUMP JUMPDEST PUSH1 0x0 DUP3 MLOAD DUP5 MLOAD EQ PUSH2 0x49B5 JUMPI PUSH1 0x40 MLOAD PUSH3 0x461BCD PUSH1 0xE5 SHL DUP2 MSTORE PUSH1 0x4 ADD DUP1 DUP1 PUSH1 0x20 ADD DUP3 DUP2 SUB DUP3 MSTORE PUSH1 0x38 DUP2 MSTORE PUSH1 0x20 ADD DUP1 PUSH2 0x5738 PUSH1 0x38 SWAP2 CODECOPY PUSH1 0x40 ADD SWAP2 POP POP PUSH1 0x40 MLOAD DUP1 SWAP2 SUB SWAP1 PUSH2 0x49B2 PUSH2 0x5247 JUMP JUMPDEST POP POP JUMPDEST PUSH2 0x258 GAS PUSH2 0x49C1 PUSH2 0x54EA JUMP JUMPDEST ADD DUP3 LT PUSH2 0x4A1D JUMPI PUSH1 0x40 MLOAD PUSH3 0x461BCD PUSH1 0xE5 SHL DUP2 MSTORE PUSH1 0x20 PUSH1 0x4 DUP3 ADD MSTORE PUSH1 0x1F PUSH1 0x24 DUP3 ADD MSTORE PUSH32 0x54696D6520697320746F6F2066617220696E746F207468652066757475726500 PUSH1 0x44 DUP3 ADD MSTORE PUSH1 0x64 ADD PUSH1 0x40 MLOAD DUP1 SWAP2 SUB SWAP1 PUSH2 0x4A1A PUSH2 0x5247 JUMP JUMPDEST POP POP JUMPDEST PUSH1 0x0 JUMPDEST DUP5 MLOAD DUP2 LT ISZERO PUSH2 0x4B3F JUMPI PUSH1 0x0 DUP6 DUP3 DUP2 MLOAD DUP2 LT PUSH2 0x4A37 JUMPI INVALID JUMPDEST PUSH1 0x20 MUL PUSH1 0x20 ADD ADD MLOAD SWAP1 POP DUP5 DUP3 DUP2 MLOAD DUP2 LT PUSH2 0x4A4D JUMPI INVALID JUMPDEST PUSH1 0x20 MUL PUSH1 0x20 ADD ADD MLOAD PUSH2 0x4A99 JUMPI PUSH1 0x40 MLOAD PUSH3 0x461BCD PUSH1 0xE5 SHL DUP2 MSTORE PUSH1 0x4 ADD DUP1 DUP1 PUSH1 0x20 ADD DUP3 DUP2 SUB DUP3 MSTORE PUSH1 0x39 DUP2 MSTORE PUSH1 0x20 ADD DUP1 PUSH2 0x57F7 PUSH1 0x39 SWAP2 CODECOPY PUSH1 0x40 ADD SWAP2 POP POP PUSH1 0x40 MLOAD DUP1 SWAP2 SUB SWAP1 PUSH2 0x4A96 PUSH2 0x5247 JUMP JUMPDEST POP POP JUMPDEST DUP1 PUSH32 0x7355534400000000000000000000000000000000000000000000000000000000 EQ ISZERO PUSH2 0x4B01 JUMPI PUSH1 0x40 MLOAD PUSH3 0x461BCD PUSH1 0xE5 SHL DUP2 MSTORE PUSH1 0x4 ADD DUP1 DUP1 PUSH1 0x20 ADD DUP3 DUP2 SUB DUP3 MSTORE PUSH1 0x31 DUP2 MSTORE PUSH1 0x20 ADD DUP1 PUSH2 0x5690 PUSH1 0x31 SWAP2 CODECOPY PUSH1 0x40 ADD SWAP2 POP POP PUSH1 0x40 MLOAD DUP1 SWAP2 SUB SWAP1 PUSH2 0x4AFE PUSH2 0x5247 JUMP JUMPDEST POP POP JUMPDEST PUSH2 0x4B0A DUP2 PUSH2 0x389D JUMP JUMPDEST DUP5 LT ISZERO PUSH2 0x4B17 JUMPI POP PUSH2 0x4B37 JUMP JUMPDEST PUSH2 0x4B35 DUP2 DUP7 DUP5 DUP2 MLOAD DUP2 LT PUSH2 0x4B27 JUMPI INVALID JUMPDEST PUSH1 0x20 MUL PUSH1 0x20 ADD ADD MLOAD DUP7 PUSH2 0x502C JUMP JUMPDEST POP JUMPDEST PUSH1 0x1 ADD PUSH2 0x4A20 JUMP JUMPDEST POP PUSH32 0x1BC0FC8997EFA076F59B5EF02C315BC5390F7A6D24D661CE12128C01A3B0BA57 DUP5 DUP5 PUSH1 0x40 MLOAD DUP1 DUP1 PUSH1 0x20 ADD DUP1 PUSH1 0x20 ADD DUP4 DUP2 SUB DUP4 MSTORE DUP6 DUP2 DUP2 MLOAD DUP2 MSTORE PUSH1 0x20 ADD SWAP2 POP DUP1 MLOAD SWAP1 PUSH1 0x20 ADD SWAP1 PUSH1 0x20 MUL DUP1 DUP4 DUP4 PUSH1 0x0 JUMPDEST DUP4 DUP2 LT ISZERO PUSH2 0x4BA7 JUMPI DUP1 DUP3 ADD MLOAD DUP4 DUP3 ADD MSTORE PUSH1 0x20 ADD PUSH2 0x4B8F JUMP JUMPDEST POP POP POP POP SWAP1 POP ADD DUP4 DUP2 SUB DUP3 MSTORE DUP5 DUP2 DUP2 MLOAD DUP2 MSTORE PUSH1 0x20 ADD SWAP2 POP DUP1 MLOAD SWAP1 PUSH1 0x20 ADD SWAP1 PUSH1 0x20 MUL DUP1 DUP4 DUP4 PUSH1 0x0 JUMPDEST DUP4 DUP2 LT ISZERO PUSH2 0x4BE6 JUMPI DUP1 DUP3 ADD MLOAD DUP4 DUP3 ADD MSTORE PUSH1 0x20 ADD PUSH2 0x4BCE JUMP JUMPDEST POP POP POP POP SWAP1 POP ADD SWAP5 POP POP POP POP POP PUSH1 0x40 MLOAD DUP1 SWAP2 SUB SWAP1 LOG1 POP PUSH1 0x1 SWAP4 SWAP3 POP POP POP JUMP JUMPDEST PUSH1 0x0 PUSH2 0x125E PUSH32 0x466C657869626C6553746F726167650000000000000000000000000000000000 PUSH1 0x40 MLOAD PUSH1 0x40 DUP1 DUP3 ADD SWAP1 MSTORE PUSH1 0x1F DUP2 MSTORE PUSH32 0x4D697373696E6720466C657869626C6553746F72616765206164647265737300 PUSH1 0x20 DUP3 ADD MSTORE PUSH2 0x4F56 JUMP JUMPDEST PUSH1 0x0 DUP1 DUP3 SLT ISZERO PUSH2 0x4CC3 JUMPI PUSH1 0x40 MLOAD PUSH3 0x461BCD PUSH1 0xE5 SHL DUP2 MSTORE PUSH1 0x20 PUSH1 0x4 DUP3 ADD MSTORE PUSH1 0x1B PUSH1 0x24 DUP3 ADD MSTORE PUSH32 0x4E656761746976652072617465206E6F7420737570706F727465640000000000 PUSH1 0x44 DUP3 ADD MSTORE PUSH1 0x64 ADD PUSH1 0x40 MLOAD DUP1 SWAP2 SUB SWAP1 PUSH2 0x4CC0 PUSH2 0x5247 JUMP JUMPDEST POP POP JUMPDEST PUSH1 0x0 DUP4 DUP2 MSTORE PUSH1 0xA PUSH1 0x20 MSTORE PUSH1 0x40 DUP2 KECCAK256 PUSH1 0x0 SWAP1 PUSH2 0x4CDC PUSH2 0x52B2 JUMP JUMPDEST SWAP1 PUSH2 0x100 EXP SWAP1 DIV PUSH1 0xFF AND PUSH1 0xFF AND GT ISZERO PUSH2 0x19FE JUMPI PUSH1 0x0 DUP4 DUP2 MSTORE PUSH1 0xA PUSH1 0x20 MSTORE PUSH2 0x4D1F PUSH1 0x12 PUSH1 0x40 DUP4 KECCAK256 PUSH1 0x0 SWAP1 PUSH2 0x4D0D PUSH2 0x52B2 JUMP JUMPDEST SWAP1 PUSH2 0x100 EXP SWAP1 DIV PUSH1 0xFF AND PUSH1 0xFF AND PUSH2 0x5170 JUMP JUMPDEST PUSH1 0xA EXP SWAP1 POP PUSH2 0x4D34 DUP4 DUP3 PUSH4 0xFFFFFFFF PUSH2 0x48A3 AND JUMP JUMPDEST SWAP2 POP POP PUSH2 0x10D2 JUMP JUMPDEST PUSH1 0x0 PUSH2 0x4D46 PUSH2 0x5372 JUMP JUMPDEST PUSH1 0x0 DUP5 DUP2 MSTORE PUSH1 0xC PUSH1 0x20 MSTORE PUSH1 0x40 SWAP1 KECCAK256 PUSH1 0x40 MLOAD PUSH1 0xA0 DUP2 ADD PUSH1 0x40 MSTORE SWAP1 DUP2 DUP2 PUSH2 0x4D69 PUSH2 0x52B2 JUMP JUMPDEST DUP2 MSTORE PUSH1 0x20 ADD PUSH1 0x1 DUP3 ADD PUSH2 0x4D7A PUSH2 0x52B2 JUMP JUMPDEST DUP2 MSTORE PUSH1 0x20 ADD PUSH1 0x2 DUP3 ADD PUSH2 0x4D8B PUSH2 0x52B2 JUMP JUMPDEST DUP2 MSTORE PUSH1 0x20 ADD PUSH1 0x0 PUSH1 0x3 DUP4 ADD PUSH2 0x4D9E PUSH2 0x52B2 JUMP JUMPDEST PUSH1 0xFF PUSH2 0x100 SWAP3 SWAP1 SWAP3 EXP SWAP1 DIV AND ISZERO ISZERO DUP2 MSTORE PUSH1 0x20 ADD PUSH1 0x1 PUSH1 0x3 DUP4 ADD PUSH2 0x4DBF PUSH2 0x52B2 JUMP JUMPDEST PUSH1 0xFF PUSH2 0x100 SWAP3 SWAP1 SWAP3 EXP SWAP1 DIV AND ISZERO ISZERO SWAP1 MSTORE POP SWAP1 POP DUP1 MLOAD ISZERO DUP1 PUSH2 0x4DDE JUMPI POP DUP3 ISZERO JUMPDEST ISZERO PUSH2 0x4DEC JUMPI DUP3 SWAP2 POP POP PUSH2 0x10D2 JUMP JUMPDEST DUP3 SWAP2 POP DUP1 PUSH1 0x60 ADD MLOAD ISZERO PUSH2 0x4E05 JUMPI DUP1 PUSH1 0x20 ADD MLOAD SWAP2 POP PUSH2 0x4E81 JUMP JUMPDEST DUP1 PUSH1 0x80 ADD MLOAD ISZERO PUSH2 0x4E1B JUMPI DUP1 PUSH1 0x40 ADD MLOAD SWAP2 POP PUSH2 0x4E81 JUMP JUMPDEST PUSH1 0x0 PUSH2 0x4E30 PUSH1 0x2 DUP4 MLOAD SWAP1 PUSH4 0xFFFFFFFF PUSH2 0x48A3 AND JUMP JUMPDEST SWAP1 POP DUP4 DUP2 GT PUSH2 0x4E42 JUMPI PUSH1 0x0 SWAP3 POP PUSH2 0x4E55 JUMP JUMPDEST PUSH2 0x4E52 DUP2 DUP6 PUSH4 0xFFFFFFFF PUSH2 0x5170 AND JUMP JUMPDEST SWAP3 POP JUMPDEST DUP2 PUSH1 0x20 ADD MLOAD DUP4 LT PUSH2 0x4E6C JUMPI DUP2 PUSH1 0x20 ADD MLOAD SWAP3 POP PUSH2 0x4E7F JUMP JUMPDEST DUP2 PUSH1 0x40 ADD MLOAD DUP4 GT PUSH2 0x4E7F JUMPI DUP2 PUSH1 0x40 ADD MLOAD SWAP3 POP JUMPDEST POP JUMPDEST POP SWAP3 SWAP2 POP POP JUMP JUMPDEST PUSH1 0x0 DUP3 DUP3 ADD DUP4 DUP2 LT ISZERO PUSH2 0x3896 JUMPI PUSH1 0x40 MLOAD PUSH3 0x461BCD PUSH1 0xE5 SHL DUP2 MSTORE PUSH1 0x20 PUSH1 0x4 DUP3 ADD MSTORE PUSH1 0x1B PUSH1 0x24 DUP3 ADD MSTORE PUSH32 0x536166654D6174683A206164646974696F6E206F766572666C6F770000000000 PUSH1 0x44 DUP3 ADD MSTORE PUSH1 0x64 ADD PUSH1 0x40 MLOAD DUP1 SWAP2 SUB SWAP1 PUSH2 0x4902 PUSH2 0x5247 JUMP JUMPDEST PUSH1 0x0 DUP1 PUSH1 0xA DUP4 DIV PUSH2 0x4EFE DUP7 DUP7 PUSH4 0xFFFFFFFF PUSH2 0x48A3 AND JUMP JUMPDEST DUP2 PUSH2 0x4F05 JUMPI INVALID JUMPDEST DIV SWAP1 POP PUSH1 0x5 PUSH1 0xA DUP3 JUMPDEST MOD LT PUSH2 0x4F18 JUMPI PUSH1 0xA ADD JUMPDEST PUSH1 0xA SWAP1 DIV SWAP5 SWAP4 POP POP POP POP JUMP JUMPDEST PUSH1 0x0 DUP1 PUSH2 0x4F4A DUP5 PUSH2 0x4F3E DUP8 PUSH1 0xA DUP8 MUL PUSH4 0xFFFFFFFF PUSH2 0x48A3 AND JUMP JUMPDEST SWAP1 PUSH4 0xFFFFFFFF PUSH2 0x51D5 AND JUMP JUMPDEST SWAP1 POP PUSH1 0x5 PUSH1 0xA DUP3 PUSH2 0x4F0E JUMP JUMPDEST PUSH1 0x0 DUP3 DUP2 MSTORE PUSH1 0x5 PUSH1 0x20 MSTORE DUP1 PUSH1 0x40 DUP2 KECCAK256 PUSH1 0x0 SWAP1 PUSH2 0x4F70 PUSH2 0x52B2 JUMP JUMPDEST PUSH20 0xFFFFFFFFFFFFFFFFFFFFFFFFFFFFFFFFFFFFFFFF PUSH2 0x100 SWAP3 SWAP1 SWAP3 EXP SWAP1 DIV AND SWAP1 POP DUP3 DUP2 PUSH2 0x10CE JUMPI PUSH1 0x40 MLOAD PUSH3 0x461BCD PUSH1 0xE5 SHL DUP2 MSTORE PUSH1 0x4 ADD DUP1 DUP1 PUSH1 0x20 ADD DUP3 DUP2 SUB DUP3 MSTORE DUP4 DUP2 DUP2 MLOAD DUP2 MSTORE PUSH1 0x20 ADD SWAP2 POP DUP1 MLOAD SWAP1 PUSH1 0x20 ADD SWAP1 DUP1 DUP4 DUP4 PUSH1 0x0 JUMPDEST DUP4 DUP2 LT ISZERO PUSH2 0x4FE0 JUMPI DUP1 DUP3 ADD MLOAD DUP4 DUP3 ADD MSTORE PUSH1 0x20 ADD PUSH2 0x4FC8 JUMP JUMPDEST POP POP POP POP SWAP1 POP SWAP1 DUP2 ADD SWAP1 PUSH1 0x1F AND DUP1 ISZERO PUSH2 0x500D JUMPI DUP1 DUP3 SUB DUP1 MLOAD PUSH1 0x1 DUP4 PUSH1 0x20 SUB PUSH2 0x100 EXP SUB NOT AND DUP2 MSTORE PUSH1 0x20 ADD SWAP2 POP JUMPDEST POP SWAP3 POP POP POP PUSH1 0x40 MLOAD DUP1 SWAP2 SUB SWAP1 PUSH2 0x5021 PUSH2 0x5247 JUMP JUMPDEST POP POP POP SWAP1 POP SWAP3 SWAP2 POP POP JUMP JUMPDEST PUSH1 0x0 DUP4 DUP2 MSTORE PUSH1 0xE PUSH1 0x20 MSTORE PUSH1 0x40 SWAP1 KECCAK256 PUSH1 0x0 DUP2 PUSH2 0x5045 PUSH2 0x52B2 JUMP JUMPDEST SWAP2 PUSH1 0x1 DUP4 ADD SWAP2 POP PUSH2 0x5054 PUSH2 0x5324 JUMP JUMPDEST POP POP POP PUSH1 0x40 MLOAD PUSH1 0x40 DUP1 DUP3 ADD DUP2 MSTORE PUSH27 0xFFFFFFFFFFFFFFFFFFFFFFFFFFFFFFFFFFFFFFFFFFFFFFFFFFFFFF DUP5 AND DUP3 MSTORE PUSH5 0xFFFFFFFFFF DUP4 AND PUSH1 0x20 DUP1 DUP5 ADD SWAP2 SWAP1 SWAP2 MSTORE PUSH1 0x0 DUP7 DUP2 MSTORE PUSH1 0x7 SWAP1 SWAP2 MSTORE KECCAK256 PUSH1 0x0 DUP6 DUP2 MSTORE PUSH1 0xE PUSH1 0x20 MSTORE PUSH1 0x40 DUP2 KECCAK256 PUSH2 0x50B3 PUSH2 0x52B2 JUMP JUMPDEST DUP2 MSTORE PUSH1 0x20 ADD SWAP1 DUP2 MSTORE PUSH1 0x20 ADD PUSH1 0x0 KECCAK256 DUP2 MLOAD DUP2 PUSH1 0x1 DUP2 PUSH2 0x50CF PUSH2 0x52B2 JUMP JUMPDEST DUP2 PUSH27 0xFFFFFFFFFFFFFFFFFFFFFFFFFFFFFFFFFFFFFFFFFFFFFFFFFFFFFF MUL NOT AND SWAP1 DUP4 PUSH27 0xFFFFFFFFFFFFFFFFFFFFFFFFFFFFFFFFFFFFFFFFFFFFFFFFFFFFFF AND MUL OR SWAP1 PUSH2 0x5119 PUSH2 0x5324 JUMP JUMPDEST POP POP POP PUSH1 0x20 DUP3 ADD MLOAD DUP2 PUSH28 0x1000000000000000000000000000000000000000000000000000000 DUP2 PUSH2 0x5148 PUSH2 0x52B2 JUMP JUMPDEST DUP2 PUSH5 0xFFFFFFFFFF MUL NOT AND SWAP1 DUP4 PUSH5 0xFFFFFFFFFF AND MUL OR SWAP1 PUSH2 0x5166 PUSH2 0x5324 JUMP JUMPDEST POP POP POP POP POP POP POP POP JUMP JUMPDEST PUSH1 0x0 DUP3 DUP3 GT ISZERO PUSH2 0x51CF JUMPI PUSH1 0x40 MLOAD PUSH3 0x461BCD PUSH1 0xE5 SHL DUP2 MSTORE PUSH1 0x20 PUSH1 0x4 DUP3 ADD MSTORE PUSH1 0x1E PUSH1 0x24 DUP3 ADD MSTORE PUSH32 0x536166654D6174683A207375627472616374696F6E206F766572666C6F770000 PUSH1 0x44 DUP3 ADD MSTORE PUSH1 0x64 ADD PUSH1 0x40 MLOAD DUP1 SWAP2 SUB SWAP1 PUSH2 0x51CC PUSH2 0x5247 JUMP JUMPDEST POP POP JUMPDEST POP SWAP1 SUB SWAP1 JUMP JUMPDEST PUSH1 0x0 DUP1 DUP3 GT PUSH2 0x5233 JUMPI PUSH1 0x40 MLOAD PUSH3 0x461BCD PUSH1 0xE5 SHL DUP2 MSTORE PUSH1 0x20 PUSH1 0x4 DUP3 ADD MSTORE PUSH1 0x1A PUSH1 0x24 DUP3 ADD MSTORE PUSH32 0x536166654D6174683A206469766973696F6E206279207A65726F000000000000 PUSH1 0x44 DUP3 ADD MSTORE PUSH1 0x64 ADD PUSH1 0x40 MLOAD DUP1 SWAP2 SUB SWAP1 PUSH2 0x5230 PUSH2 0x5247 JUMP JUMPDEST POP POP JUMPDEST PUSH1 0x0 DUP3 DUP5 DUP2 PUSH2 0x523E JUMPI INVALID JUMPDEST DIV SWAP5 SWAP4 POP POP POP POP JUMP JUMPDEST PUSH4 0x2A2A7ADB MSIZE DUP2 PUSH1 0xE0 SHL DUP2 MSTORE PUSH1 0x4 DUP2 ADD PUSH1 0x20 DUP2 MSTORE DUP6 PUSH1 0x20 DUP3 ADD MSTORE PUSH1 0x0 JUMPDEST DUP7 DUP2 LT ISZERO PUSH2 0x527F JUMPI DUP1 DUP7 ADD MLOAD DUP3 DUP3 ADD PUSH1 0x40 ADD MSTORE PUSH1 0x20 ADD PUSH2 0x5264 JUMP JUMPDEST POP PUSH1 0x20 DUP3 DUP8 PUSH1 0x64 ADD DUP5 CALLER PUSH1 0x0 SWAP1 GAS CALL PC PUSH1 0xE ADD JUMPI RETURNDATASIZE PUSH1 0x0 DUP1 RETURNDATACOPY RETURNDATASIZE PUSH1 0x0 REVERT JUMPDEST RETURNDATASIZE PUSH1 0x1 EQ ISZERO PC PUSH1 0xA ADD JUMPI PUSH1 0x1 PUSH1 0x0 RETURN JUMPDEST POP POP POP JUMP JUMPDEST PUSH4 0x3DAA959 MSIZE DUP2 PUSH1 0xE0 SHL DUP2 MSTORE DUP4 PUSH1 0x4 DUP3 ADD MSTORE PUSH1 0x20 DUP2 PUSH1 0x24 DUP4 CALLER PUSH1 0x0 SWAP1 GAS CALL PC PUSH1 0xE ADD JUMPI RETURNDATASIZE PUSH1 0x0 DUP1 RETURNDATACOPY RETURNDATASIZE PUSH1 0x0 REVERT JUMPDEST RETURNDATASIZE PUSH1 0x1 EQ ISZERO PC PUSH1 0xA ADD JUMPI PUSH1 0x1 PUSH1 0x0 RETURN JUMPDEST DUP1 MLOAD SWAP4 POP PUSH1 0x0 JUMPDEST PUSH1 0x40 DUP2 LT ISZERO PUSH2 0x1777 JUMPI PUSH1 0x0 DUP3 DUP3 ADD MSTORE PUSH1 0x20 ADD PUSH2 0x52F6 JUMP JUMPDEST PUSH1 0x40 MLOAD PUSH1 0x40 DUP1 DUP3 ADD SWAP1 MSTORE PUSH1 0x0 DUP1 DUP3 MSTORE PUSH1 0x20 DUP3 ADD MSTORE SWAP1 JUMP JUMPDEST PUSH4 0x22BD64C0 MSIZE DUP2 PUSH1 0xE0 SHL DUP2 MSTORE DUP4 PUSH1 0x4 DUP3 ADD MSTORE DUP5 PUSH1 0x24 DUP3 ADD MSTORE PUSH1 0x0 DUP2 PUSH1 0x44 DUP4 CALLER PUSH1 0x0 SWAP1 GAS CALL PC PUSH1 0xE ADD JUMPI RETURNDATASIZE PUSH1 0x0 DUP1 RETURNDATACOPY RETURNDATASIZE PUSH1 0x0 REVERT JUMPDEST RETURNDATASIZE PUSH1 0x1 EQ ISZERO PC PUSH1 0xA ADD JUMPI PUSH1 0x1 PUSH1 0x0 RETURN JUMPDEST PUSH1 0x0 DUP2 MSTORE PUSH1 0x20 PUSH2 0x52F6 JUMP JUMPDEST PUSH1 0x40 MLOAD PUSH1 0xA0 DUP2 ADD PUSH1 0x40 SWAP1 DUP2 MSTORE PUSH1 0x0 DUP1 DUP4 MSTORE PUSH1 0x20 DUP4 ADD DUP2 SWAP1 MSTORE SWAP1 DUP3 ADD DUP2 SWAP1 MSTORE PUSH1 0x60 DUP3 ADD DUP2 SWAP1 MSTORE PUSH1 0x80 DUP3 ADD MSTORE SWAP1 JUMP JUMPDEST PUSH4 0x8435035B MSIZE DUP2 PUSH1 0xE0 SHL DUP2 MSTORE DUP4 PUSH1 0x4 DUP3 ADD MSTORE PUSH1 0x20 DUP2 PUSH1 0x24 DUP4 CALLER PUSH1 0x0 SWAP1 GAS CALL PC PUSH1 0xE ADD JUMPI RETURNDATASIZE PUSH1 0x0 DUP1 RETURNDATACOPY RETURNDATASIZE PUSH1 0x0 REVERT JUMPDEST RETURNDATASIZE PUSH1 0x1 EQ ISZERO PC PUSH1 0xA ADD JUMPI PUSH1 0x1 PUSH1 0x0 RETURN JUMPDEST DUP1 MLOAD PUSH1 0x0 DUP3 MSTORE SWAP4 POP PUSH1 0x20 PUSH2 0x52F6 JUMP JUMPDEST PUSH4 0x8540661F MSIZE DUP2 PUSH1 0xE0 SHL DUP2 MSTORE DUP4 PUSH1 0x4 DUP3 ADD MSTORE DUP5 PUSH1 0x24 DUP3 ADD MSTORE PUSH1 0x60 PUSH1 0x44 DUP3 ADD MSTORE DUP7 PUSH1 0x64 DUP3 ADD MSTORE PUSH1 0x84 DUP2 ADD PUSH1 0x0 JUMPDEST DUP9 DUP2 LT ISZERO PUSH2 0x542F JUMPI DUP1 DUP9 ADD MLOAD DUP3 DUP3 ADD MSTORE PUSH1 0x20 ADD PUSH2 0x5417 JUMP JUMPDEST POP DUP8 PUSH2 0x104 ADD DUP3 ADD PUSH1 0x60 DUP4 DUP11 PUSH2 0x104 ADD DUP6 CALLER PUSH1 0x0 SWAP1 GAS CALL PC PUSH1 0xE ADD JUMPI RETURNDATASIZE PUSH1 0x0 DUP1 RETURNDATACOPY RETURNDATASIZE PUSH1 0x0 REVERT JUMPDEST RETURNDATASIZE PUSH1 0x1 EQ ISZERO PC PUSH1 0xA ADD JUMPI PUSH1 0x1 PUSH1 0x0 RETURN JUMPDEST DUP3 MLOAD PUSH1 0x40 DUP5 ADD MLOAD RETURNDATASIZE PUSH1 0x0 DUP7 RETURNDATACOPY DUP13 DUP13 DUP3 PUSH1 0x60 DUP9 ADD CALLER POP PUSH1 0x0 PUSH1 0x4 GAS CALL POP MSIZE DUP6 JUMPDEST DUP2 DUP2 LT ISZERO PUSH2 0x5498 JUMPI PUSH1 0x0 DUP2 MSTORE PUSH1 0x20 ADD PUSH2 0x5484 JUMP JUMPDEST POP SWAP2 SWAP13 POP POP POP POP POP POP POP JUMP JUMPDEST PUSH4 0x73509064 MSIZE DUP2 PUSH1 0xE0 SHL DUP2 MSTORE PUSH1 0x20 DUP2 PUSH1 0x4 DUP4 CALLER PUSH1 0x0 SWAP1 GAS CALL PC PUSH1 0xE ADD JUMPI RETURNDATASIZE PUSH1 0x0 DUP1 RETURNDATACOPY RETURNDATASIZE PUSH1 0x0 REVERT JUMPDEST RETURNDATASIZE PUSH1 0x1 EQ ISZERO PC PUSH1 0xA ADD JUMPI PUSH1 0x1 PUSH1 0x0 RETURN JUMPDEST DUP1 MLOAD PUSH1 0x0 DUP3 MSTORE SWAP4 POP PUSH1 0x20 PUSH2 0x52F6 JUMP JUMPDEST PUSH4 0xBDBF8C36 MSIZE DUP2 PUSH1 0xE0 SHL DUP2 MSTORE PUSH1 0x20 DUP2 PUSH1 0x4 DUP4 CALLER PUSH1 0x0 SWAP1 GAS CALL PC PUSH1 0xE ADD JUMPI RETURNDATASIZE PUSH1 0x0 DUP1 RETURNDATACOPY RETURNDATASIZE PUSH1 0x0 REVERT JUMPDEST RETURNDATASIZE PUSH1 0x1 EQ ISZERO PC PUSH1 0xA ADD JUMPI PUSH1 0x1 PUSH1 0x0 RETURN JUMPDEST DUP1 MLOAD PUSH1 0x0 DUP3 MSTORE SWAP4 POP PUSH1 0x20 PUSH2 0x52F6 JUMP JUMPDEST PUSH1 0x40 MLOAD PUSH2 0x300 DUP1 DUP3 ADD PUSH1 0x40 MSTORE PUSH1 0x18 SWAP1 DUP3 SWAP1 DUP1 CODESIZE DUP4 CODECOPY POP SWAP2 SWAP3 SWAP2 POP POP JUMP JUMPDEST PUSH4 0x85979F76 MSIZE DUP2 PUSH1 0xE0 SHL DUP2 MSTORE DUP4 PUSH1 0x4 DUP3 ADD MSTORE DUP5 PUSH1 0x24 DUP3 ADD MSTORE PUSH1 0x60 PUSH1 0x44 DUP3 ADD MSTORE DUP8 PUSH1 0x64 DUP3 ADD MSTORE PUSH1 0x84 DUP2 ADD PUSH1 0x0 JUMPDEST DUP10 DUP2 LT ISZERO PUSH2 0x5591 JUMPI DUP1 DUP10 ADD MLOAD DUP3 DUP3 ADD MSTORE PUSH1 0x20 ADD PUSH2 0x5579 JUMP JUMPDEST POP DUP9 PUSH2 0x104 ADD DUP3 ADD PUSH1 0x60 DUP4 DUP12 PUSH2 0x104 ADD DUP6 CALLER PUSH1 0x0 SWAP1 GAS CALL PC PUSH1 0xE ADD JUMPI RETURNDATASIZE PUSH1 0x0 DUP1 RETURNDATACOPY RETURNDATASIZE PUSH1 0x0 REVERT JUMPDEST RETURNDATASIZE PUSH1 0x1 EQ ISZERO PC PUSH1 0xA ADD JUMPI PUSH1 0x1 PUSH1 0x0 RETURN JUMPDEST DUP3 MLOAD PUSH1 0x40 DUP5 ADD MLOAD RETURNDATASIZE PUSH1 0x0 DUP7 RETURNDATACOPY DUP14 DUP14 DUP3 PUSH1 0x60 DUP9 ADD CALLER POP PUSH1 0x0 PUSH1 0x4 GAS CALL POP MSIZE DUP6 JUMPDEST DUP2 DUP2 LT ISZERO PUSH2 0x55FA JUMPI PUSH1 0x0 DUP2 MSTORE PUSH1 0x20 ADD PUSH2 0x55E6 JUMP JUMPDEST POP SWAP2 SWAP14 POP POP POP POP POP POP POP JUMP JUMPDEST DUP2 PUSH2 0x560F PUSH2 0x52B2 JUMP JUMPDEST DUP2 DUP4 PUSH2 0x5619 PUSH2 0x5324 JUMP JUMPDEST POP POP DUP2 DUP2 GT ISZERO PUSH2 0x1777 JUMPI DUP2 DUP4 PUSH1 0x0 MSTORE PUSH1 0x20 PUSH1 0x0 KECCAK256 PUSH2 0x1777 SWAP3 DUP2 ADD SWAP2 ADD PUSH2 0x1261 SWAP2 SWAP1 JUMPDEST DUP1 DUP3 GT ISZERO PUSH2 0x2A76 JUMPI PUSH1 0x0 DUP1 DUP3 PUSH2 0x564F PUSH2 0x5324 JUMP JUMPDEST POP POP POP PUSH1 0x1 ADD PUSH2 0x563B JUMP INVALID MSIZE PUSH16 0x75206D757374206265206E6F6D696E61 PUSH21 0x6564206265666F726520796F752063616E20616363 PUSH6 0x7074206F776E PUSH6 0x727368697052 PUSH2 0x7465 KECCAK256 PUSH16 0x6620735553442063616E6E6F74206265 KECCAK256 PUSH22 0x7064617465642C206974277320616C7761797320554E 0x49 SLOAD 0x2E 0x4F PUSH15 0x6C7920746865206F7261636C652063 PUSH2 0x6E20 PUSH17 0x6572666F726D207468697320616374696F PUSH15 0x4F6E6C792074686520636F6E747261 PUSH4 0x74206F77 PUSH15 0x6572206D617920706572666F726D20 PUSH21 0x68697320616374696F6E536166654D6174683A206D PUSH22 0x6C7469706C69636174696F6E206F766572666C6F7743 PUSH22 0x7272656E6379206B6579206172726179206C656E6774 PUSH9 0x206D757374206D6174 PUSH4 0x68207261 PUSH21 0x6573206172726179206C656E6774682E6C6F776572 0x4C PUSH10 0x6D6974206D7573742062 PUSH6 0x2062656C6F77 KECCAK256 PUSH21 0x686520656E747279506F696E7475707065724C696D PUSH10 0x74206D75737420626520 PUSH13 0x657373207468616E20646F7562 PUSH13 0x6520656E747279506F696E7441 PUSH8 0x6772656761746F72 KECCAK256 PUSH5 0x6563696D61 PUSH13 0x732073686F756C64206265206C PUSH16 0x776572206F7220657175616C20746F20 BALANCE CODESIZE GAS PUSH6 0x726F20697320 PUSH15 0x6F7420612076616C69642072617465 0x2C KECCAK256 PUSH17 0x6C656173652063616C6C2064656C657465 MSTORE PUSH2 0x7465 KECCAK256 PUSH10 0x6E73746561642E757070 PUSH6 0x724C696D6974 KECCAK256 PUSH14 0x7573742062652061626F76652074 PUSH9 0x6520656E747279506F PUSH10 0x6E7443757272656E6379 KECCAK256 PUSH12 0x6579206C656E67746820616E PUSH5 0x2072617465 KECCAK256 PUSH13 0x656E677468206D757374206D61 PUSH21 0x63682E52617465206F6620735553442063616E6E6F PUSH21 0x20626520757064617465642C206974277320616C77 PUSH2 0x7973 KECCAK256 SSTORE 0x4E 0x49 SLOAD 0x2E MSTORE8 PUSH2 0x6665 0x4D PUSH2 0x7468 GASPRICE KECCAK256 PUSH14 0x756C7469706C69636174696F6E20 PUSH16 0x766572666C6F7743757272656E637920 PUSH12 0x6579206172726179206C656E PUSH8 0x7468206D75737420 PUSH14 0x6174636820726174657320617272 PUSH2 0x7920 PUSH13 0x656E6774682E5A65726F206973 KECCAK256 PUSH15 0x6F7420612076616C69642072617465 0x2C KECCAK256 PUSH17 0x6C656173652063616C6C2064656C657465 MSTORE PUSH2 0x7465 KECCAK256 PUSH10 0x6E73746561642E000000 "
		}
	}
}