{
	"abi": [
		{
			"inputs": [
				{
					"internalType": "address payable",
					"name": "_proxy",
					"type": "address"
				},
				{
					"internalType": "contract TokenState",
					"name": "_tokenState",
					"type": "address"
				},
				{
					"internalType": "string",
					"name": "_name",
					"type": "string"
				},
				{
					"internalType": "string",
					"name": "_symbol",
					"type": "string"
				},
				{
					"internalType": "uint256",
					"name": "_totalSupply",
					"type": "uint256"
				},
				{
					"internalType": "uint8",
					"name": "_decimals",
					"type": "uint8"
				},
				{
					"internalType": "address",
					"name": "_owner",
					"type": "address"
				}
			],
			"payable": false,
			"stateMutability": "nonpayable",
			"type": "constructor"
		},
		{
			"anonymous": false,
			"inputs": [
				{
					"indexed": true,
					"internalType": "address",
					"name": "owner",
					"type": "address"
				},
				{
					"indexed": true,
					"internalType": "address",
					"name": "spender",
					"type": "address"
				},
				{
					"indexed": false,
					"internalType": "uint256",
					"name": "value",
					"type": "uint256"
				}
			],
			"name": "Approval",
			"type": "event"
		},
		{
			"anonymous": false,
			"inputs": [
				{
					"indexed": false,
					"internalType": "address",
					"name": "oldOwner",
					"type": "address"
				},
				{
					"indexed": false,
					"internalType": "address",
					"name": "newOwner",
					"type": "address"
				}
			],
			"name": "OwnerChanged",
			"type": "event"
		},
		{
			"anonymous": false,
			"inputs": [
				{
					"indexed": false,
					"internalType": "address",
					"name": "newOwner",
					"type": "address"
				}
			],
			"name": "OwnerNominated",
			"type": "event"
		},
		{
			"anonymous": false,
			"inputs": [
				{
					"indexed": false,
					"internalType": "address",
					"name": "proxyAddress",
					"type": "address"
				}
			],
			"name": "ProxyUpdated",
			"type": "event"
		},
		{
			"anonymous": false,
			"inputs": [
				{
					"indexed": false,
					"internalType": "address",
					"name": "newBeneficiary",
					"type": "address"
				}
			],
			"name": "SelfDestructBeneficiaryUpdated",
			"type": "event"
		},
		{
			"anonymous": false,
			"inputs": [
				{
					"indexed": false,
					"internalType": "uint256",
					"name": "selfDestructDelay",
					"type": "uint256"
				}
			],
			"name": "SelfDestructInitiated",
			"type": "event"
		},
		{
			"anonymous": false,
			"inputs": [],
			"name": "SelfDestructTerminated",
			"type": "event"
		},
		{
			"anonymous": false,
			"inputs": [
				{
					"indexed": false,
					"internalType": "address",
					"name": "beneficiary",
					"type": "address"
				}
			],
			"name": "SelfDestructed",
			"type": "event"
		},
		{
			"anonymous": false,
			"inputs": [
				{
					"indexed": false,
					"internalType": "address",
					"name": "newTokenState",
					"type": "address"
				}
			],
			"name": "TokenStateUpdated",
			"type": "event"
		},
		{
			"anonymous": false,
			"inputs": [
				{
					"indexed": true,
					"internalType": "address",
					"name": "from",
					"type": "address"
				},
				{
					"indexed": true,
					"internalType": "address",
					"name": "to",
					"type": "address"
				},
				{
					"indexed": false,
					"internalType": "uint256",
					"name": "value",
					"type": "uint256"
				}
			],
			"name": "Transfer",
			"type": "event"
		},
		{
			"constant": true,
			"inputs": [],
			"name": "SELFDESTRUCT_DELAY",
			"outputs": [
				{
					"internalType": "uint256",
					"name": "",
					"type": "uint256"
				}
			],
			"payable": false,
			"stateMutability": "view",
			"type": "function"
		},
		{
			"constant": false,
			"inputs": [],
			"name": "acceptOwnership",
			"outputs": [],
			"payable": false,
			"stateMutability": "nonpayable",
			"type": "function"
		},
		{
			"constant": true,
			"inputs": [
				{
					"internalType": "address",
					"name": "owner",
					"type": "address"
				},
				{
					"internalType": "address",
					"name": "spender",
					"type": "address"
				}
			],
			"name": "allowance",
			"outputs": [
				{
					"internalType": "uint256",
					"name": "",
					"type": "uint256"
				}
			],
			"payable": false,
			"stateMutability": "view",
			"type": "function"
		},
		{
			"constant": false,
			"inputs": [
				{
					"internalType": "address",
					"name": "spender",
					"type": "address"
				},
				{
					"internalType": "uint256",
					"name": "value",
					"type": "uint256"
				}
			],
			"name": "approve",
			"outputs": [
				{
					"internalType": "bool",
					"name": "",
					"type": "bool"
				}
			],
			"payable": false,
			"stateMutability": "nonpayable",
			"type": "function"
		},
		{
			"constant": true,
			"inputs": [
				{
					"internalType": "address",
					"name": "account",
					"type": "address"
				}
			],
			"name": "balanceOf",
			"outputs": [
				{
					"internalType": "uint256",
					"name": "",
					"type": "uint256"
				}
			],
			"payable": false,
			"stateMutability": "view",
			"type": "function"
		},
		{
			"constant": true,
			"inputs": [],
			"name": "decimals",
			"outputs": [
				{
					"internalType": "uint8",
					"name": "",
					"type": "uint8"
				}
			],
			"payable": false,
			"stateMutability": "view",
			"type": "function"
		},
		{
			"constant": false,
			"inputs": [],
			"name": "initiateSelfDestruct",
			"outputs": [],
			"payable": false,
			"stateMutability": "nonpayable",
			"type": "function"
		},
		{
			"constant": true,
			"inputs": [],
			"name": "initiationTime",
			"outputs": [
				{
					"internalType": "uint256",
					"name": "",
					"type": "uint256"
				}
			],
			"payable": false,
			"stateMutability": "view",
			"type": "function"
		},
		{
			"constant": true,
			"inputs": [],
			"name": "integrationProxy",
			"outputs": [
				{
					"internalType": "contract Proxy",
					"name": "",
					"type": "address"
				}
			],
			"payable": false,
			"stateMutability": "view",
			"type": "function"
		},
		{
			"constant": true,
			"inputs": [],
			"name": "messageSender",
			"outputs": [
				{
					"internalType": "address",
					"name": "",
					"type": "address"
				}
			],
			"payable": false,
			"stateMutability": "view",
			"type": "function"
		},
		{
			"constant": true,
			"inputs": [],
			"name": "name",
			"outputs": [
				{
					"internalType": "string",
					"name": "",
					"type": "string"
				}
			],
			"payable": false,
			"stateMutability": "view",
			"type": "function"
		},
		{
			"constant": false,
			"inputs": [
				{
					"internalType": "address",
					"name": "_owner",
					"type": "address"
				}
			],
			"name": "nominateNewOwner",
			"outputs": [],
			"payable": false,
			"stateMutability": "nonpayable",
			"type": "function"
		},
		{
			"constant": true,
			"inputs": [],
			"name": "nominatedOwner",
			"outputs": [
				{
					"internalType": "address",
					"name": "",
					"type": "address"
				}
			],
			"payable": false,
			"stateMutability": "view",
			"type": "function"
		},
		{
			"constant": true,
			"inputs": [],
			"name": "owner",
			"outputs": [
				{
					"internalType": "address",
					"name": "",
					"type": "address"
				}
			],
			"payable": false,
			"stateMutability": "view",
			"type": "function"
		},
		{
			"constant": true,
			"inputs": [],
			"name": "proxy",
			"outputs": [
				{
					"internalType": "contract Proxy",
					"name": "",
					"type": "address"
				}
			],
			"payable": false,
			"stateMutability": "view",
			"type": "function"
		},
		{
			"constant": false,
			"inputs": [],
			"name": "selfDestruct",
			"outputs": [],
			"payable": false,
			"stateMutability": "nonpayable",
			"type": "function"
		},
		{
			"constant": true,
			"inputs": [],
			"name": "selfDestructBeneficiary",
			"outputs": [
				{
					"internalType": "address",
					"name": "",
					"type": "address"
				}
			],
			"payable": false,
			"stateMutability": "view",
			"type": "function"
		},
		{
			"constant": true,
			"inputs": [],
			"name": "selfDestructInitiated",
			"outputs": [
				{
					"internalType": "bool",
					"name": "",
					"type": "bool"
				}
			],
			"payable": false,
			"stateMutability": "view",
			"type": "function"
		},
		{
			"constant": false,
			"inputs": [
				{
					"internalType": "address payable",
					"name": "_integrationProxy",
					"type": "address"
				}
			],
			"name": "setIntegrationProxy",
			"outputs": [],
			"payable": false,
			"stateMutability": "nonpayable",
			"type": "function"
		},
		{
			"constant": false,
			"inputs": [
				{
					"internalType": "address",
					"name": "sender",
					"type": "address"
				}
			],
			"name": "setMessageSender",
			"outputs": [],
			"payable": false,
			"stateMutability": "nonpayable",
			"type": "function"
		},
		{
			"constant": false,
			"inputs": [
				{
					"internalType": "address payable",
					"name": "_proxy",
					"type": "address"
				}
			],
			"name": "setProxy",
			"outputs": [],
			"payable": false,
			"stateMutability": "nonpayable",
			"type": "function"
		},
		{
			"constant": false,
			"inputs": [
				{
					"internalType": "address payable",
					"name": "_beneficiary",
					"type": "address"
				}
			],
			"name": "setSelfDestructBeneficiary",
			"outputs": [],
			"payable": false,
			"stateMutability": "nonpayable",
			"type": "function"
		},
		{
			"constant": false,
			"inputs": [
				{
					"internalType": "contract TokenState",
					"name": "_tokenState",
					"type": "address"
				}
			],
			"name": "setTokenState",
			"outputs": [],
			"payable": false,
			"stateMutability": "nonpayable",
			"type": "function"
		},
		{
			"constant": true,
			"inputs": [],
			"name": "symbol",
			"outputs": [
				{
					"internalType": "string",
					"name": "",
					"type": "string"
				}
			],
			"payable": false,
			"stateMutability": "view",
			"type": "function"
		},
		{
			"constant": false,
			"inputs": [],
			"name": "terminateSelfDestruct",
			"outputs": [],
			"payable": false,
			"stateMutability": "nonpayable",
			"type": "function"
		},
		{
			"constant": true,
			"inputs": [],
			"name": "tokenState",
			"outputs": [
				{
					"internalType": "contract TokenState",
					"name": "",
					"type": "address"
				}
			],
			"payable": false,
			"stateMutability": "view",
			"type": "function"
		},
		{
			"constant": true,
			"inputs": [],
			"name": "totalSupply",
			"outputs": [
				{
					"internalType": "uint256",
					"name": "",
					"type": "uint256"
				}
			],
			"payable": false,
			"stateMutability": "view",
			"type": "function"
		}
	],
	"evm": {
		"bytecode": {
			"linkReferences": {},
			"object": "60806040523480156200001c5760008062000019620005cd565b50505b506040516200222238038062002222833981810160405260e08110156200004d576000806200004a620005cd565b50505b810190808051929190602001805192919060200180516040519392919084640100000000821115620000895760008062000086620005cd565b50505b908301906020820185811115620000aa57600080620000a7620005cd565b50505b8251640100000000811182820188101715620000d057600080620000cd620005cd565b50505b825250602001908051906020019080838360005b83811015620000fe578082015183820152602001620000e4565b50505050905090810190601f1680156200012c5780820380516001836020036101000a031916815260200191505b50604052602001805160405193929190846401000000008211156200015b5760008062000158620005cd565b50505b9083019060208201858111156200017c5760008062000179620005cd565b50505b8251640100000000811182820188101715620001a2576000806200019f620005cd565b50505b825250602001908051906020019080838360005b83811015620001d0578082015183820152602001620001b6565b50505050905090810190601f168015620001fe5780820380516001836020036101000a031916815260200191505b5060405260200180519291906020018051929190602001805192508891508290506001600160a01b038116620002855760405162461bcd60e51b815260206004820152601960248201527f4f776e657220616464726573732063616e6e6f7420626520300000000000000060448201526064016040518091039062000282620005cd565b50505b806000600181620002956200063a565b816001600160a01b0302191690836001600160a01b0316021790620002b96200069c565b5050507fb532073b38c83145e3e5135377a08bf9aab55bc0fd7c1179cd4fb995d2a5159c6000826040516001600160a01b039283168152911660208201526040908101905180910390a15060008080620003126200063a565b906101000a90046001600160a01b03166001600160a01b031614156200037d5760405162461bcd60e51b815260206004820152601160248201527013dddb995c881b5d5cdd081899481cd95d607a1b6044820152606401604051809103906200037a620005cd565b50505b6000806200038a6200063a565b906101000a90046001600160a01b0316600360016101000a81620003ad6200063a565b816001600160a01b0302191690836001600160a01b0316021790620003d16200069c565b5050507fd5da63a0b864b315bc04128dedbc93888c8529ee6cf47ce664dc204339228c5360008090620004036200063a565b906101000a90046001600160a01b03166040516001600160a01b03909116815260200160405180910390a1600080806200043c6200063a565b906101000a90046001600160a01b03166001600160a01b03161415620004a75760405162461bcd60e51b815260206004820152601160248201527013dddb995c881b5d5cdd081899481cd95d607a1b604482015260640160405180910390620004a4620005cd565b50505b806004600181620004b76200063a565b816001600160a01b0302191690836001600160a01b0316021790620004db6200069c565b5050507ffc80377ca9c49cc11ae6982f390a42db976d5530af7c43889264b13fbbd7c57e816040516001600160a01b03909116815260200160405180910390a1508560076001816200052c6200063a565b816001600160a01b0302191690836001600160a01b0316021790620005506200069c565b50505084600890805162000569929160200190620006eb565b5060098480516200057f929160200190620006eb565b508280600a6200058e6200069c565b50505081600b60006101000a81620005a56200063a565b8160ff021916908360ff16021790620005bd6200069c565b50505050505050505050620007c7565b632a2a7adb598160e01b8152600481016020815285602082015260005b8681101562000607578086015182820160400152602001620005ea565b506020828760640184336000905af158600e01573d6000803e3d6000fd5b3d6001141558600a015760016000f35b505050565b6303daa959598160e01b8152836004820152602081602483336000905af158600e01573d6000803e3d6000fd5b3d6001141558600a015760016000f35b8051935060005b604081101562000697576000828201526020016200067e565b505050565b6322bd64c0598160e01b8152836004820152846024820152600081604483336000905af158600e01573d6000803e3d6000fd5b3d6001141558600a015760016000f35b6000815260206200067e565b8280620006f76200063a565b600181600116156101000203166002900490600052602060002090601f016020900481019282601f106200074257805160ff191683800117856200073a6200069c565b505062000788565b82800160010185620007536200069c565b5050821562000788579182015b828111156200078857825182620007766200069c565b50509160200191906001019062000760565b50620007969291506200079a565b5090565b620007c491905b80821115620007965760008082620007b86200069c565b505050600101620007a1565b90565b611a4b80620007d76000396000f3fe608060405234801561001957600080610016611667565b50505b50600436106101b25760003560e01c806395d89b4111610102578063bc67f832116100a0578063d67bdd251161007a578063d67bdd2514610487578063dd62ed3e1461048f578063e90dd9e2146104c6578063ec556889146104ce576101b2565b8063bc67f83214610448578063bd32aa4414610477578063c58aaae61461047f576101b2565b80639cbdaeb6116100dc5780639cbdaeb6146104015780639f76980714610409578063a461fc8214610438578063b8225dec14610440576101b2565b806395d89b41146103c257806397107d6d146103ca5780639cb8a26a146103f9576101b2565b806320714f881161016f57806353a47bb71161014957806353a47bb71461035f57806370a082311461038357806379ba5097146103b25780638da5cb5b146103ba576101b2565b806320714f881461030a578063313ce567146103395780633278c96014610357576101b2565b806306fdde03146101c0578063095ea7b31461023f578063131b0ae7146102885780631627540c146102b957806317c70de4146102e857806318160ddd14610302575b6000806101bd611667565b50505b6101c86104d6565b60405160208082528190810183818151815260200191508051906020019080838360005b838110156102045780820151838201526020016101ec565b50505050905090810190601f1680156102315780820380516001836020036101000a031916815260200191505b509250505060405180910390f35b6102746004803603604081101561025e5760008061025b611667565b50505b506001600160a01b03813516906020013561058f565b604051901515815260200160405180910390f35b6102b7600480360360208110156102a7576000806102a4611667565b50505b50356001600160a01b031661068b565b005b6102b7600480360360208110156102d8576000806102d5611667565b50505b50356001600160a01b03166106c9565b6102f0610743565b60405190815260200160405180910390f35b6102f0610750565b6102b76004803603602081101561032957600080610326611667565b50505b50356001600160a01b031661075a565b610341610839565b60405160ff909116815260200160405180910390f35b6102b7610852565b6103676108c3565b6040516001600160a01b03909116815260200160405180910390f35b6102f0600480360360208110156103a25760008061039f611667565b50505b50356001600160a01b03166108e2565b6102b76109b4565b610367610b37565b6101c8610b42565b6102b7600480360360208110156103e9576000806103e6611667565b50505b50356001600160a01b0316610be4565b6102b7610c5f565b610367610da2565b6102b76004803603602081101561042857600080610425611667565b50505b50356001600160a01b0316610dae565b6102f0610df5565b610274610dfc565b6102b76004803603602081101561046757600080610464611667565b50505b50356001600160a01b0316610e08565b6102b7610e1e565b610367610ea0565b610367610eac565b6102f0600480360360408110156104ae576000806104ab611667565b50505b506001600160a01b0381358116916020013516610eb8565b610367610f93565b610367610f9f565b6008806104e16116d2565b600181600116156101000203166002900480601f01602080910402602001604051908101604052818152919060208301828061051b6116d2565b600181600116156101000203166002900480156105875780601f106105555761010080836105476116d2565b040283529160200191610587565b820191906000526020600020905b8161056c6116d2565b8152906001019060200180831161056357829003601f168201915b505050505081565b6000610599610fab565b60008060066105a66116d2565b906101000a90046001600160a01b0316905060076000906105c56116d2565b906101000a90046001600160a01b03166001600160a01b031663da46098c8286866040516001600160e01b031960e086901b1681526001600160a01b03938416600482015291909216602482015260448101919091526064016000604051808303816000878061063361172d565b15801561064857600080610645611667565b50505b505a610652611779565b505050505050158015610672573d6000803e3d600061066f611667565b50505b50505050610681818585611083565b5060019392505050565b6106936111fc565b8060056001816106a16116d2565b816001600160a01b0302191690836001600160a01b03160217906106c3611832565b50505050565b6106d16111fc565b80600180806106de6116d2565b816001600160a01b0302191690836001600160a01b0316021790610700611832565b5050507f906a1c6bd7e3091ea86693dd029a831c19049ce77f1dce2ce0bab1cacbabce22816040516001600160a01b03909116815260200160405180910390a150565b600261074d6116d2565b81565b600a61074d6116d2565b6107626111fc565b6001600160a01b0381166107c55760405162461bcd60e51b815260206004820152601c60248201527f42656e6566696369617279206d757374206e6f74206265207a65726f000000006044820152606401604051809103906107c2611667565b50505b806003610100816107d46116d2565b816001600160a01b0302191690836001600160a01b03160217906107f6611832565b5050507fd5da63a0b864b315bc04128dedbc93888c8529ee6cf47ce664dc204339228c53816040516001600160a01b03909116815260200160405180910390a150565b6000600b6108456116d2565b906101000a900460ff1681565b61085a6111fc565b6000806002610867611832565b5050506000600360006101000a8161087d6116d2565b8160ff02191690831515021790610892611832565b5050507f6adcc7125002935e0aa31697538ebbd65cfddf20431eb6ecdcfc3e238bfd082c60405160405180910390a1565b600060016108cf6116d2565b906101000a90046001600160a01b031681565b60008060076108ef6116d2565b906101000a90046001600160a01b03166001600160a01b03166370a08231836040516001600160e01b031960e084901b1681526001600160a01b039091166004820152602401602060405180830381868061094861172d565b15801561095d5760008061095a611667565b50505b505a610967611880565b5050505050158015610986573d6000803e3d6000610983611667565b50505b505050506040513d60208110156109a5576000806109a2611667565b50505b81019080805195945050505050565b600060016109c06116d2565b906101000a90046001600160a01b03166001600160a01b03165a6109e2611939565b6001600160a01b031614610a305760405162461bcd60e51b81526004018080602001828103825260358152602001806119c66035913960400191505060405180910390610a2d611667565b50505b7fb532073b38c83145e3e5135377a08bf9aab55bc0fd7c1179cd4fb995d2a5159c600080610a5c6116d2565b906101000a90046001600160a01b03166001600090610a796116d2565b906101000a90046001600160a01b03166040516001600160a01b039283168152911660208201526040908101905180910390a160006001610ab86116d2565b906101000a90046001600160a01b03166000806101000a81610ad86116d2565b816001600160a01b0302191690836001600160a01b0316021790610afa611832565b5050506000600160006101000a81610b106116d2565b816001600160a01b0302191690836001600160a01b0316021790610b32611832565b505050565b6000806108cf6116d2565b600980610b4d6116d2565b600181600116156101000203166002900480601f016020809104026020016040519081016040528181529190602083018280610b876116d2565b600181600116156101000203166002900480156105875780601f10610bb35761010080836105476116d2565b820191906000526020600020905b81610bca6116d2565b81529060010190602001808311610bc15750859350505050565b610bec6111fc565b806004600181610bfa6116d2565b816001600160a01b0302191690836001600160a01b0316021790610c1c611832565b5050507ffc80377ca9c49cc11ae6982f390a42db976d5530af7c43889264b13fbbd7c57e816040516001600160a01b03909116815260200160405180910390a150565b610c676111fc565b60006003610c736116d2565b906101000a900460ff16610cd65760405162461bcd60e51b815260206004820152601f60248201527f53656c66204465737472756374206e6f742079657420696e6974696174656400604482015260640160405180910390610cd3611667565b50505b5a610cdf61197f565b6224ea006002610ced6116d2565b0110610d485760405162461bcd60e51b815260206004820152601b60248201527f53656c662064657374727563742064656c6179206e6f74206d65740000000000604482015260640160405180910390610d45611667565b50505b7f8a09e1677ced846cb537dc2b172043bd05a1a81ad7e0033a7ef8ba762df990b760016003610d756116d2565b906101000a90046001600160a01b03166040516001600160a01b03909116815260200160405180910390a1565b600060056108cf6116d2565b610db6611278565b806007600181610dc46116d2565b816001600160a01b0302191690836001600160a01b0316021790610de6611832565b505050610df281611403565b50565b6224ea0081565b600060036108456116d2565b610e1061158e565b8060066001816106a16116d2565b610e266111fc565b5a610e2f61197f565b806002610e3a611832565b5050506001600360006101000a81610e506116d2565b8160ff02191690831515021790610e65611832565b5050507fcbd94ca75b8dc45c9d80c77e851670e78843c0d75180cb81db3e2158228fa9a66224ea0060405190815260200160405180910390a1565b600160036108cf6116d2565b600060066108cf6116d2565b6000806007610ec56116d2565b906101000a90046001600160a01b03166001600160a01b031663dd62ed3e84846040516001600160e01b031960e085901b1681526001600160a01b039283166004820152911660248201526044016020604051808303818680610f2661172d565b158015610f3b57600080610f38611667565b50505b505a610f45611880565b5050505050158015610f64573d6000803e3d6000610f61611667565b50505b505050506040513d6020811015610f8357600080610f80611667565b50505b8101908080519695505050505050565b600060076108cf6116d2565b600060046108cf6116d2565b60006004610fb76116d2565b906101000a90046001600160a01b03166001600160a01b03165a610fd9611939565b6001600160a01b031614158015611025575060006005610ff76116d2565b906101000a90046001600160a01b03166001600160a01b03165a611019611939565b6001600160a01b031614155b801561106657505a611035611939565b6001600160a01b03166000600661104a6116d2565b906101000a90046001600160a01b03166001600160a01b031614155b15611081575a611074611939565b6006600181610b106116d2565b565b6000600461108f6116d2565b906101000a90046001600160a01b03166001600160a01b031663907dff9782604051602001808281526020019150506040516020818303038152906040526003604051806021611a2a8239602101905060405180910390206110f08861165b565b6110f98861165b565b60006040518763ffffffff1660e01b815260040180806020018781526020018681526020018581526020018481526020018360001b8152602001828103825288818151815260200191508051906020019080838360005b83811015611168578082015183820152602001611150565b50505050905090810190601f1680156111955780820380516001836020036101000a031916815260200191505b50975050505050505050600060405180830381600087806111b461172d565b1580156111c9576000806111c6611667565b50505b505a6111d3611779565b5050505050501580156111f3573d6000803e3d60006111f0611667565b50505b50505050505050565b6000806112076116d2565b906101000a90046001600160a01b03166001600160a01b03165a611229611939565b6001600160a01b0316146110815760405162461bcd60e51b815260040180806020018281038252602f8152602001806119fb602f913960400191505060405180910390611274611667565b5050565b600060046112846116d2565b906101000a90046001600160a01b03166001600160a01b03165a6112a6611939565b6001600160a01b0316141580156112f25750600060056112c46116d2565b906101000a90046001600160a01b03166001600160a01b03165a6112e6611939565b6001600160a01b031614155b801561133357505a611302611939565b6001600160a01b0316600060066113176116d2565b906101000a90046001600160a01b03166001600160a01b031614155b15611374575a611341611939565b600660018161134e6116d2565b816001600160a01b0302191690836001600160a01b0316021790611370611832565b5050505b60008061137f6116d2565b6001600160a01b036101009290920a9004166000600661139d6116d2565b906101000a90046001600160a01b03166001600160a01b0316146110815760405162461bcd60e51b815260206004820152601360248201527227bbb732b91037b7363c90333ab731ba34b7b760691b604482015260640160405180910390611274611667565b6000600461140f6116d2565b906101000a90046001600160a01b03166001600160a01b031663907dff97826040516001600160a01b0390911660208201526040908101905160208183030381529060405260016040517f546f6b656e5374617465557064617465642861646472657373290000000000008152601a01604051809103902060008060006040518763ffffffff1660e01b815260040180806020018781526020018681526020018560001b81526020018460001b81526020018360001b8152602001828103825288818151815260200191508051906020019080838360005b838110156114ff5780820151838201526020016114e7565b50505050905090810190601f16801561152c5780820380516001836020036101000a031916815260200191505b509750505050505050506000604051808303816000878061154b61172d565b1580156115605760008061155d611667565b50505b505a61156a611779565b505050505050158015611587573d6000803e3d60006111f3611667565b5050505050565b6000600461159a6116d2565b906101000a90046001600160a01b03166001600160a01b03165a6115bc611939565b6001600160a01b031614806116055750600060056115d86116d2565b906101000a90046001600160a01b03166001600160a01b03165a6115fa611939565b6001600160a01b0316145b6110815760405162461bcd60e51b815260206004820152601760248201527f4f6e6c79207468652070726f78792063616e2063616c6c000000000000000000604482015260640160405180910390611274611667565b6001600160a01b031690565b632a2a7adb598160e01b8152600481016020815285602082015260005b8681101561169f578086015182820160400152602001611684565b506020828760640184336000905af158600e01573d6000803e3d6000fd5b3d6001141558600a015760016000f35b505050565b6303daa959598160e01b8152836004820152602081602483336000905af158600e01573d6000803e3d6000fd5b3d6001141558600a015760016000f35b8051935060005b6040811015610b3257600082820152602001611716565b638435035b598160e01b8152836004820152602081602483336000905af158600e01573d6000803e3d6000fd5b3d6001141558600a015760016000f35b80516000825293506020611716565b6385979f76598160e01b8152836004820152846024820152606060448201528760648201526084810160005b898110156117bd5780890151828201526020016117a5565b50886101040182016060838b6101040185336000905af158600e01573d6000803e3d6000fd5b3d6001141558600a015760016000f35b825160408401513d6000863e8d8d82606088013350600060045af15059855b818110156118265760008152602001611812565b50919d50505050505050565b6322bd64c0598160e01b8152836004820152846024820152600081604483336000905af158600e01573d6000803e3d6000fd5b3d6001141558600a015760016000f35b600081526020611716565b638540661f598160e01b8152836004820152846024820152606060448201528660648201526084810160005b888110156118c45780880151828201526020016118ac565b50876101040182016060838a6101040185336000905af158600e01573d6000803e3d6000fd5b3d6001141558600a015760016000f35b825160408401513d6000863e8c8c82606088013350600060045af15059855b8181101561192d5760008152602001611919565b50919c50505050505050565b6373509064598160e01b8152602081600483336000905af158600e01573d6000803e3d6000fd5b3d6001141558600a015760016000f35b80516000825293506020611716565b63bdbf8c36598160e01b8152602081600483336000905af158600e01573d6000803e3d6000fd5b3d6001141558600a015760016000f35b8051600082529350602061171656fe596f75206d757374206265206e6f6d696e61746564206265666f726520796f752063616e20616363657074206f776e6572736869704f6e6c792074686520636f6e7472616374206f776e6572206d617920706572666f726d207468697320616374696f6e417070726f76616c28616464726573732c616464726573732c75696e7432353629",
			"opcodes": "PUSH1 0x80 PUSH1 0x40 MSTORE CALLVALUE DUP1 ISZERO PUSH3 0x1C JUMPI PUSH1 0x0 DUP1 PUSH3 0x19 PUSH3 0x5CD JUMP JUMPDEST POP POP JUMPDEST POP PUSH1 0x40 MLOAD PUSH3 0x2222 CODESIZE SUB DUP1 PUSH3 0x2222 DUP4 CODECOPY DUP2 DUP2 ADD PUSH1 0x40 MSTORE PUSH1 0xE0 DUP2 LT ISZERO PUSH3 0x4D JUMPI PUSH1 0x0 DUP1 PUSH3 0x4A PUSH3 0x5CD JUMP JUMPDEST POP POP JUMPDEST DUP2 ADD SWAP1 DUP1 DUP1 MLOAD SWAP3 SWAP2 SWAP1 PUSH1 0x20 ADD DUP1 MLOAD SWAP3 SWAP2 SWAP1 PUSH1 0x20 ADD DUP1 MLOAD PUSH1 0x40 MLOAD SWAP4 SWAP3 SWAP2 SWAP1 DUP5 PUSH5 0x100000000 DUP3 GT ISZERO PUSH3 0x89 JUMPI PUSH1 0x0 DUP1 PUSH3 0x86 PUSH3 0x5CD JUMP JUMPDEST POP POP JUMPDEST SWAP1 DUP4 ADD SWAP1 PUSH1 0x20 DUP3 ADD DUP6 DUP2 GT ISZERO PUSH3 0xAA JUMPI PUSH1 0x0 DUP1 PUSH3 0xA7 PUSH3 0x5CD JUMP JUMPDEST POP POP JUMPDEST DUP3 MLOAD PUSH5 0x100000000 DUP2 GT DUP3 DUP3 ADD DUP9 LT OR ISZERO PUSH3 0xD0 JUMPI PUSH1 0x0 DUP1 PUSH3 0xCD PUSH3 0x5CD JUMP JUMPDEST POP POP JUMPDEST DUP3 MSTORE POP PUSH1 0x20 ADD SWAP1 DUP1 MLOAD SWAP1 PUSH1 0x20 ADD SWAP1 DUP1 DUP4 DUP4 PUSH1 0x0 JUMPDEST DUP4 DUP2 LT ISZERO PUSH3 0xFE JUMPI DUP1 DUP3 ADD MLOAD DUP4 DUP3 ADD MSTORE PUSH1 0x20 ADD PUSH3 0xE4 JUMP JUMPDEST POP POP POP POP SWAP1 POP SWAP1 DUP2 ADD SWAP1 PUSH1 0x1F AND DUP1 ISZERO PUSH3 0x12C JUMPI DUP1 DUP3 SUB DUP1 MLOAD PUSH1 0x1 DUP4 PUSH1 0x20 SUB PUSH2 0x100 EXP SUB NOT AND DUP2 MSTORE PUSH1 0x20 ADD SWAP2 POP JUMPDEST POP PUSH1 0x40 MSTORE PUSH1 0x20 ADD DUP1 MLOAD PUSH1 0x40 MLOAD SWAP4 SWAP3 SWAP2 SWAP1 DUP5 PUSH5 0x100000000 DUP3 GT ISZERO PUSH3 0x15B JUMPI PUSH1 0x0 DUP1 PUSH3 0x158 PUSH3 0x5CD JUMP JUMPDEST POP POP JUMPDEST SWAP1 DUP4 ADD SWAP1 PUSH1 0x20 DUP3 ADD DUP6 DUP2 GT ISZERO PUSH3 0x17C JUMPI PUSH1 0x0 DUP1 PUSH3 0x179 PUSH3 0x5CD JUMP JUMPDEST POP POP JUMPDEST DUP3 MLOAD PUSH5 0x100000000 DUP2 GT DUP3 DUP3 ADD DUP9 LT OR ISZERO PUSH3 0x1A2 JUMPI PUSH1 0x0 DUP1 PUSH3 0x19F PUSH3 0x5CD JUMP JUMPDEST POP POP JUMPDEST DUP3 MSTORE POP PUSH1 0x20 ADD SWAP1 DUP1 MLOAD SWAP1 PUSH1 0x20 ADD SWAP1 DUP1 DUP4 DUP4 PUSH1 0x0 JUMPDEST DUP4 DUP2 LT ISZERO PUSH3 0x1D0 JUMPI DUP1 DUP3 ADD MLOAD DUP4 DUP3 ADD MSTORE PUSH1 0x20 ADD PUSH3 0x1B6 JUMP JUMPDEST POP POP POP POP SWAP1 POP SWAP1 DUP2 ADD SWAP1 PUSH1 0x1F AND DUP1 ISZERO PUSH3 0x1FE JUMPI DUP1 DUP3 SUB DUP1 MLOAD PUSH1 0x1 DUP4 PUSH1 0x20 SUB PUSH2 0x100 EXP SUB NOT AND DUP2 MSTORE PUSH1 0x20 ADD SWAP2 POP JUMPDEST POP PUSH1 0x40 MSTORE PUSH1 0x20 ADD DUP1 MLOAD SWAP3 SWAP2 SWAP1 PUSH1 0x20 ADD DUP1 MLOAD SWAP3 SWAP2 SWAP1 PUSH1 0x20 ADD DUP1 MLOAD SWAP3 POP DUP9 SWAP2 POP DUP3 SWAP1 POP PUSH1 0x1 PUSH1 0x1 PUSH1 0xA0 SHL SUB DUP2 AND PUSH3 0x285 JUMPI PUSH1 0x40 MLOAD PUSH3 0x461BCD PUSH1 0xE5 SHL DUP2 MSTORE PUSH1 0x20 PUSH1 0x4 DUP3 ADD MSTORE PUSH1 0x19 PUSH1 0x24 DUP3 ADD MSTORE PUSH32 0x4F776E657220616464726573732063616E6E6F74206265203000000000000000 PUSH1 0x44 DUP3 ADD MSTORE PUSH1 0x64 ADD PUSH1 0x40 MLOAD DUP1 SWAP2 SUB SWAP1 PUSH3 0x282 PUSH3 0x5CD JUMP JUMPDEST POP POP JUMPDEST DUP1 PUSH1 0x0 PUSH1 0x1 DUP2 PUSH3 0x295 PUSH3 0x63A JUMP JUMPDEST DUP2 PUSH1 0x1 PUSH1 0x1 PUSH1 0xA0 SHL SUB MUL NOT AND SWAP1 DUP4 PUSH1 0x1 PUSH1 0x1 PUSH1 0xA0 SHL SUB AND MUL OR SWAP1 PUSH3 0x2B9 PUSH3 0x69C JUMP JUMPDEST POP POP POP PUSH32 0xB532073B38C83145E3E5135377A08BF9AAB55BC0FD7C1179CD4FB995D2A5159C PUSH1 0x0 DUP3 PUSH1 0x40 MLOAD PUSH1 0x1 PUSH1 0x1 PUSH1 0xA0 SHL SUB SWAP3 DUP4 AND DUP2 MSTORE SWAP2 AND PUSH1 0x20 DUP3 ADD MSTORE PUSH1 0x40 SWAP1 DUP2 ADD SWAP1 MLOAD DUP1 SWAP2 SUB SWAP1 LOG1 POP PUSH1 0x0 DUP1 DUP1 PUSH3 0x312 PUSH3 0x63A JUMP JUMPDEST SWAP1 PUSH2 0x100 EXP SWAP1 DIV PUSH1 0x1 PUSH1 0x1 PUSH1 0xA0 SHL SUB AND PUSH1 0x1 PUSH1 0x1 PUSH1 0xA0 SHL SUB AND EQ ISZERO PUSH3 0x37D JUMPI PUSH1 0x40 MLOAD PUSH3 0x461BCD PUSH1 0xE5 SHL DUP2 MSTORE PUSH1 0x20 PUSH1 0x4 DUP3 ADD MSTORE PUSH1 0x11 PUSH1 0x24 DUP3 ADD MSTORE PUSH17 0x13DDDB995C881B5D5CDD081899481CD95D PUSH1 0x7A SHL PUSH1 0x44 DUP3 ADD MSTORE PUSH1 0x64 ADD PUSH1 0x40 MLOAD DUP1 SWAP2 SUB SWAP1 PUSH3 0x37A PUSH3 0x5CD JUMP JUMPDEST POP POP JUMPDEST PUSH1 0x0 DUP1 PUSH3 0x38A PUSH3 0x63A JUMP JUMPDEST SWAP1 PUSH2 0x100 EXP SWAP1 DIV PUSH1 0x1 PUSH1 0x1 PUSH1 0xA0 SHL SUB AND PUSH1 0x3 PUSH1 0x1 PUSH2 0x100 EXP DUP2 PUSH3 0x3AD PUSH3 0x63A JUMP JUMPDEST DUP2 PUSH1 0x1 PUSH1 0x1 PUSH1 0xA0 SHL SUB MUL NOT AND SWAP1 DUP4 PUSH1 0x1 PUSH1 0x1 PUSH1 0xA0 SHL SUB AND MUL OR SWAP1 PUSH3 0x3D1 PUSH3 0x69C JUMP JUMPDEST POP POP POP PUSH32 0xD5DA63A0B864B315BC04128DEDBC93888C8529EE6CF47CE664DC204339228C53 PUSH1 0x0 DUP1 SWAP1 PUSH3 0x403 PUSH3 0x63A JUMP JUMPDEST SWAP1 PUSH2 0x100 EXP SWAP1 DIV PUSH1 0x1 PUSH1 0x1 PUSH1 0xA0 SHL SUB AND PUSH1 0x40 MLOAD PUSH1 0x1 PUSH1 0x1 PUSH1 0xA0 SHL SUB SWAP1 SWAP2 AND DUP2 MSTORE PUSH1 0x20 ADD PUSH1 0x40 MLOAD DUP1 SWAP2 SUB SWAP1 LOG1 PUSH1 0x0 DUP1 DUP1 PUSH3 0x43C PUSH3 0x63A JUMP JUMPDEST SWAP1 PUSH2 0x100 EXP SWAP1 DIV PUSH1 0x1 PUSH1 0x1 PUSH1 0xA0 SHL SUB AND PUSH1 0x1 PUSH1 0x1 PUSH1 0xA0 SHL SUB AND EQ ISZERO PUSH3 0x4A7 JUMPI PUSH1 0x40 MLOAD PUSH3 0x461BCD PUSH1 0xE5 SHL DUP2 MSTORE PUSH1 0x20 PUSH1 0x4 DUP3 ADD MSTORE PUSH1 0x11 PUSH1 0x24 DUP3 ADD MSTORE PUSH17 0x13DDDB995C881B5D5CDD081899481CD95D PUSH1 0x7A SHL PUSH1 0x44 DUP3 ADD MSTORE PUSH1 0x64 ADD PUSH1 0x40 MLOAD DUP1 SWAP2 SUB SWAP1 PUSH3 0x4A4 PUSH3 0x5CD JUMP JUMPDEST POP POP JUMPDEST DUP1 PUSH1 0x4 PUSH1 0x1 DUP2 PUSH3 0x4B7 PUSH3 0x63A JUMP JUMPDEST DUP2 PUSH1 0x1 PUSH1 0x1 PUSH1 0xA0 SHL SUB MUL NOT AND SWAP1 DUP4 PUSH1 0x1 PUSH1 0x1 PUSH1 0xA0 SHL SUB AND MUL OR SWAP1 PUSH3 0x4DB PUSH3 0x69C JUMP JUMPDEST POP POP POP PUSH32 0xFC80377CA9C49CC11AE6982F390A42DB976D5530AF7C43889264B13FBBD7C57E DUP2 PUSH1 0x40 MLOAD PUSH1 0x1 PUSH1 0x1 PUSH1 0xA0 SHL SUB SWAP1 SWAP2 AND DUP2 MSTORE PUSH1 0x20 ADD PUSH1 0x40 MLOAD DUP1 SWAP2 SUB SWAP1 LOG1 POP DUP6 PUSH1 0x7 PUSH1 0x1 DUP2 PUSH3 0x52C PUSH3 0x63A JUMP JUMPDEST DUP2 PUSH1 0x1 PUSH1 0x1 PUSH1 0xA0 SHL SUB MUL NOT AND SWAP1 DUP4 PUSH1 0x1 PUSH1 0x1 PUSH1 0xA0 SHL SUB AND MUL OR SWAP1 PUSH3 0x550 PUSH3 0x69C JUMP JUMPDEST POP POP POP DUP5 PUSH1 0x8 SWAP1 DUP1 MLOAD PUSH3 0x569 SWAP3 SWAP2 PUSH1 0x20 ADD SWAP1 PUSH3 0x6EB JUMP JUMPDEST POP PUSH1 0x9 DUP5 DUP1 MLOAD PUSH3 0x57F SWAP3 SWAP2 PUSH1 0x20 ADD SWAP1 PUSH3 0x6EB JUMP JUMPDEST POP DUP3 DUP1 PUSH1 0xA PUSH3 0x58E PUSH3 0x69C JUMP JUMPDEST POP POP POP DUP2 PUSH1 0xB PUSH1 0x0 PUSH2 0x100 EXP DUP2 PUSH3 0x5A5 PUSH3 0x63A JUMP JUMPDEST DUP2 PUSH1 0xFF MUL NOT AND SWAP1 DUP4 PUSH1 0xFF AND MUL OR SWAP1 PUSH3 0x5BD PUSH3 0x69C JUMP JUMPDEST POP POP POP POP POP POP POP POP POP POP PUSH3 0x7C7 JUMP JUMPDEST PUSH4 0x2A2A7ADB MSIZE DUP2 PUSH1 0xE0 SHL DUP2 MSTORE PUSH1 0x4 DUP2 ADD PUSH1 0x20 DUP2 MSTORE DUP6 PUSH1 0x20 DUP3 ADD MSTORE PUSH1 0x0 JUMPDEST DUP7 DUP2 LT ISZERO PUSH3 0x607 JUMPI DUP1 DUP7 ADD MLOAD DUP3 DUP3 ADD PUSH1 0x40 ADD MSTORE PUSH1 0x20 ADD PUSH3 0x5EA JUMP JUMPDEST POP PUSH1 0x20 DUP3 DUP8 PUSH1 0x64 ADD DUP5 CALLER PUSH1 0x0 SWAP1 GAS CALL PC PUSH1 0xE ADD JUMPI RETURNDATASIZE PUSH1 0x0 DUP1 RETURNDATACOPY RETURNDATASIZE PUSH1 0x0 REVERT JUMPDEST RETURNDATASIZE PUSH1 0x1 EQ ISZERO PC PUSH1 0xA ADD JUMPI PUSH1 0x1 PUSH1 0x0 RETURN JUMPDEST POP POP POP JUMP JUMPDEST PUSH4 0x3DAA959 MSIZE DUP2 PUSH1 0xE0 SHL DUP2 MSTORE DUP4 PUSH1 0x4 DUP3 ADD MSTORE PUSH1 0x20 DUP2 PUSH1 0x24 DUP4 CALLER PUSH1 0x0 SWAP1 GAS CALL PC PUSH1 0xE ADD JUMPI RETURNDATASIZE PUSH1 0x0 DUP1 RETURNDATACOPY RETURNDATASIZE PUSH1 0x0 REVERT JUMPDEST RETURNDATASIZE PUSH1 0x1 EQ ISZERO PC PUSH1 0xA ADD JUMPI PUSH1 0x1 PUSH1 0x0 RETURN JUMPDEST DUP1 MLOAD SWAP4 POP PUSH1 0x0 JUMPDEST PUSH1 0x40 DUP2 LT ISZERO PUSH3 0x697 JUMPI PUSH1 0x0 DUP3 DUP3 ADD MSTORE PUSH1 0x20 ADD PUSH3 0x67E JUMP JUMPDEST POP POP POP JUMP JUMPDEST PUSH4 0x22BD64C0 MSIZE DUP2 PUSH1 0xE0 SHL DUP2 MSTORE DUP4 PUSH1 0x4 DUP3 ADD MSTORE DUP5 PUSH1 0x24 DUP3 ADD MSTORE PUSH1 0x0 DUP2 PUSH1 0x44 DUP4 CALLER PUSH1 0x0 SWAP1 GAS CALL PC PUSH1 0xE ADD JUMPI RETURNDATASIZE PUSH1 0x0 DUP1 RETURNDATACOPY RETURNDATASIZE PUSH1 0x0 REVERT JUMPDEST RETURNDATASIZE PUSH1 0x1 EQ ISZERO PC PUSH1 0xA ADD JUMPI PUSH1 0x1 PUSH1 0x0 RETURN JUMPDEST PUSH1 0x0 DUP2 MSTORE PUSH1 0x20 PUSH3 0x67E JUMP JUMPDEST DUP3 DUP1 PUSH3 0x6F7 PUSH3 0x63A JUMP JUMPDEST PUSH1 0x1 DUP2 PUSH1 0x1 AND ISZERO PUSH2 0x100 MUL SUB AND PUSH1 0x2 SWAP1 DIV SWAP1 PUSH1 0x0 MSTORE PUSH1 0x20 PUSH1 0x0 KECCAK256 SWAP1 PUSH1 0x1F ADD PUSH1 0x20 SWAP1 DIV DUP2 ADD SWAP3 DUP3 PUSH1 0x1F LT PUSH3 0x742 JUMPI DUP1 MLOAD PUSH1 0xFF NOT AND DUP4 DUP1 ADD OR DUP6 PUSH3 0x73A PUSH3 0x69C JUMP JUMPDEST POP POP PUSH3 0x788 JUMP JUMPDEST DUP3 DUP1 ADD PUSH1 0x1 ADD DUP6 PUSH3 0x753 PUSH3 0x69C JUMP JUMPDEST POP POP DUP3 ISZERO PUSH3 0x788 JUMPI SWAP2 DUP3 ADD JUMPDEST DUP3 DUP2 GT ISZERO PUSH3 0x788 JUMPI DUP3 MLOAD DUP3 PUSH3 0x776 PUSH3 0x69C JUMP JUMPDEST POP POP SWAP2 PUSH1 0x20 ADD SWAP2 SWAP1 PUSH1 0x1 ADD SWAP1 PUSH3 0x760 JUMP JUMPDEST POP PUSH3 0x796 SWAP3 SWAP2 POP PUSH3 0x79A JUMP JUMPDEST POP SWAP1 JUMP JUMPDEST PUSH3 0x7C4 SWAP2 SWAP1 JUMPDEST DUP1 DUP3 GT ISZERO PUSH3 0x796 JUMPI PUSH1 0x0 DUP1 DUP3 PUSH3 0x7B8 PUSH3 0x69C JUMP JUMPDEST POP POP POP PUSH1 0x1 ADD PUSH3 0x7A1 JUMP JUMPDEST SWAP1 JUMP JUMPDEST PUSH2 0x1A4B DUP1 PUSH3 0x7D7 PUSH1 0x0 CODECOPY PUSH1 0x0 RETURN INVALID PUSH1 0x80 PUSH1 0x40 MSTORE CALLVALUE DUP1 ISZERO PUSH2 0x19 JUMPI PUSH1 0x0 DUP1 PUSH2 0x16 PUSH2 0x1667 JUMP JUMPDEST POP POP JUMPDEST POP PUSH1 0x4 CALLDATASIZE LT PUSH2 0x1B2 JUMPI PUSH1 0x0 CALLDATALOAD PUSH1 0xE0 SHR DUP1 PUSH4 0x95D89B41 GT PUSH2 0x102 JUMPI DUP1 PUSH4 0xBC67F832 GT PUSH2 0xA0 JUMPI DUP1 PUSH4 0xD67BDD25 GT PUSH2 0x7A JUMPI DUP1 PUSH4 0xD67BDD25 EQ PUSH2 0x487 JUMPI DUP1 PUSH4 0xDD62ED3E EQ PUSH2 0x48F JUMPI DUP1 PUSH4 0xE90DD9E2 EQ PUSH2 0x4C6 JUMPI DUP1 PUSH4 0xEC556889 EQ PUSH2 0x4CE JUMPI PUSH2 0x1B2 JUMP JUMPDEST DUP1 PUSH4 0xBC67F832 EQ PUSH2 0x448 JUMPI DUP1 PUSH4 0xBD32AA44 EQ PUSH2 0x477 JUMPI DUP1 PUSH4 0xC58AAAE6 EQ PUSH2 0x47F JUMPI PUSH2 0x1B2 JUMP JUMPDEST DUP1 PUSH4 0x9CBDAEB6 GT PUSH2 0xDC JUMPI DUP1 PUSH4 0x9CBDAEB6 EQ PUSH2 0x401 JUMPI DUP1 PUSH4 0x9F769807 EQ PUSH2 0x409 JUMPI DUP1 PUSH4 0xA461FC82 EQ PUSH2 0x438 JUMPI DUP1 PUSH4 0xB8225DEC EQ PUSH2 0x440 JUMPI PUSH2 0x1B2 JUMP JUMPDEST DUP1 PUSH4 0x95D89B41 EQ PUSH2 0x3C2 JUMPI DUP1 PUSH4 0x97107D6D EQ PUSH2 0x3CA JUMPI DUP1 PUSH4 0x9CB8A26A EQ PUSH2 0x3F9 JUMPI PUSH2 0x1B2 JUMP JUMPDEST DUP1 PUSH4 0x20714F88 GT PUSH2 0x16F JUMPI DUP1 PUSH4 0x53A47BB7 GT PUSH2 0x149 JUMPI DUP1 PUSH4 0x53A47BB7 EQ PUSH2 0x35F JUMPI DUP1 PUSH4 0x70A08231 EQ PUSH2 0x383 JUMPI DUP1 PUSH4 0x79BA5097 EQ PUSH2 0x3B2 JUMPI DUP1 PUSH4 0x8DA5CB5B EQ PUSH2 0x3BA JUMPI PUSH2 0x1B2 JUMP JUMPDEST DUP1 PUSH4 0x20714F88 EQ PUSH2 0x30A JUMPI DUP1 PUSH4 0x313CE567 EQ PUSH2 0x339 JUMPI DUP1 PUSH4 0x3278C960 EQ PUSH2 0x357 JUMPI PUSH2 0x1B2 JUMP JUMPDEST DUP1 PUSH4 0x6FDDE03 EQ PUSH2 0x1C0 JUMPI DUP1 PUSH4 0x95EA7B3 EQ PUSH2 0x23F JUMPI DUP1 PUSH4 0x131B0AE7 EQ PUSH2 0x288 JUMPI DUP1 PUSH4 0x1627540C EQ PUSH2 0x2B9 JUMPI DUP1 PUSH4 0x17C70DE4 EQ PUSH2 0x2E8 JUMPI DUP1 PUSH4 0x18160DDD EQ PUSH2 0x302 JUMPI JUMPDEST PUSH1 0x0 DUP1 PUSH2 0x1BD PUSH2 0x1667 JUMP JUMPDEST POP POP JUMPDEST PUSH2 0x1C8 PUSH2 0x4D6 JUMP JUMPDEST PUSH1 0x40 MLOAD PUSH1 0x20 DUP1 DUP3 MSTORE DUP2 SWAP1 DUP2 ADD DUP4 DUP2 DUP2 MLOAD DUP2 MSTORE PUSH1 0x20 ADD SWAP2 POP DUP1 MLOAD SWAP1 PUSH1 0x20 ADD SWAP1 DUP1 DUP4 DUP4 PUSH1 0x0 JUMPDEST DUP4 DUP2 LT ISZERO PUSH2 0x204 JUMPI DUP1 DUP3 ADD MLOAD DUP4 DUP3 ADD MSTORE PUSH1 0x20 ADD PUSH2 0x1EC JUMP JUMPDEST POP POP POP POP SWAP1 POP SWAP1 DUP2 ADD SWAP1 PUSH1 0x1F AND DUP1 ISZERO PUSH2 0x231 JUMPI DUP1 DUP3 SUB DUP1 MLOAD PUSH1 0x1 DUP4 PUSH1 0x20 SUB PUSH2 0x100 EXP SUB NOT AND DUP2 MSTORE PUSH1 0x20 ADD SWAP2 POP JUMPDEST POP SWAP3 POP POP POP PUSH1 0x40 MLOAD DUP1 SWAP2 SUB SWAP1 RETURN JUMPDEST PUSH2 0x274 PUSH1 0x4 DUP1 CALLDATASIZE SUB PUSH1 0x40 DUP2 LT ISZERO PUSH2 0x25E JUMPI PUSH1 0x0 DUP1 PUSH2 0x25B PUSH2 0x1667 JUMP JUMPDEST POP POP JUMPDEST POP PUSH1 0x1 PUSH1 0x1 PUSH1 0xA0 SHL SUB DUP2 CALLDATALOAD AND SWAP1 PUSH1 0x20 ADD CALLDATALOAD PUSH2 0x58F JUMP JUMPDEST PUSH1 0x40 MLOAD SWAP1 ISZERO ISZERO DUP2 MSTORE PUSH1 0x20 ADD PUSH1 0x40 MLOAD DUP1 SWAP2 SUB SWAP1 RETURN JUMPDEST PUSH2 0x2B7 PUSH1 0x4 DUP1 CALLDATASIZE SUB PUSH1 0x20 DUP2 LT ISZERO PUSH2 0x2A7 JUMPI PUSH1 0x0 DUP1 PUSH2 0x2A4 PUSH2 0x1667 JUMP JUMPDEST POP POP JUMPDEST POP CALLDATALOAD PUSH1 0x1 PUSH1 0x1 PUSH1 0xA0 SHL SUB AND PUSH2 0x68B JUMP JUMPDEST STOP JUMPDEST PUSH2 0x2B7 PUSH1 0x4 DUP1 CALLDATASIZE SUB PUSH1 0x20 DUP2 LT ISZERO PUSH2 0x2D8 JUMPI PUSH1 0x0 DUP1 PUSH2 0x2D5 PUSH2 0x1667 JUMP JUMPDEST POP POP JUMPDEST POP CALLDATALOAD PUSH1 0x1 PUSH1 0x1 PUSH1 0xA0 SHL SUB AND PUSH2 0x6C9 JUMP JUMPDEST PUSH2 0x2F0 PUSH2 0x743 JUMP JUMPDEST PUSH1 0x40 MLOAD SWAP1 DUP2 MSTORE PUSH1 0x20 ADD PUSH1 0x40 MLOAD DUP1 SWAP2 SUB SWAP1 RETURN JUMPDEST PUSH2 0x2F0 PUSH2 0x750 JUMP JUMPDEST PUSH2 0x2B7 PUSH1 0x4 DUP1 CALLDATASIZE SUB PUSH1 0x20 DUP2 LT ISZERO PUSH2 0x329 JUMPI PUSH1 0x0 DUP1 PUSH2 0x326 PUSH2 0x1667 JUMP JUMPDEST POP POP JUMPDEST POP CALLDATALOAD PUSH1 0x1 PUSH1 0x1 PUSH1 0xA0 SHL SUB AND PUSH2 0x75A JUMP JUMPDEST PUSH2 0x341 PUSH2 0x839 JUMP JUMPDEST PUSH1 0x40 MLOAD PUSH1 0xFF SWAP1 SWAP2 AND DUP2 MSTORE PUSH1 0x20 ADD PUSH1 0x40 MLOAD DUP1 SWAP2 SUB SWAP1 RETURN JUMPDEST PUSH2 0x2B7 PUSH2 0x852 JUMP JUMPDEST PUSH2 0x367 PUSH2 0x8C3 JUMP JUMPDEST PUSH1 0x40 MLOAD PUSH1 0x1 PUSH1 0x1 PUSH1 0xA0 SHL SUB SWAP1 SWAP2 AND DUP2 MSTORE PUSH1 0x20 ADD PUSH1 0x40 MLOAD DUP1 SWAP2 SUB SWAP1 RETURN JUMPDEST PUSH2 0x2F0 PUSH1 0x4 DUP1 CALLDATASIZE SUB PUSH1 0x20 DUP2 LT ISZERO PUSH2 0x3A2 JUMPI PUSH1 0x0 DUP1 PUSH2 0x39F PUSH2 0x1667 JUMP JUMPDEST POP POP JUMPDEST POP CALLDATALOAD PUSH1 0x1 PUSH1 0x1 PUSH1 0xA0 SHL SUB AND PUSH2 0x8E2 JUMP JUMPDEST PUSH2 0x2B7 PUSH2 0x9B4 JUMP JUMPDEST PUSH2 0x367 PUSH2 0xB37 JUMP JUMPDEST PUSH2 0x1C8 PUSH2 0xB42 JUMP JUMPDEST PUSH2 0x2B7 PUSH1 0x4 DUP1 CALLDATASIZE SUB PUSH1 0x20 DUP2 LT ISZERO PUSH2 0x3E9 JUMPI PUSH1 0x0 DUP1 PUSH2 0x3E6 PUSH2 0x1667 JUMP JUMPDEST POP POP JUMPDEST POP CALLDATALOAD PUSH1 0x1 PUSH1 0x1 PUSH1 0xA0 SHL SUB AND PUSH2 0xBE4 JUMP JUMPDEST PUSH2 0x2B7 PUSH2 0xC5F JUMP JUMPDEST PUSH2 0x367 PUSH2 0xDA2 JUMP JUMPDEST PUSH2 0x2B7 PUSH1 0x4 DUP1 CALLDATASIZE SUB PUSH1 0x20 DUP2 LT ISZERO PUSH2 0x428 JUMPI PUSH1 0x0 DUP1 PUSH2 0x425 PUSH2 0x1667 JUMP JUMPDEST POP POP JUMPDEST POP CALLDATALOAD PUSH1 0x1 PUSH1 0x1 PUSH1 0xA0 SHL SUB AND PUSH2 0xDAE JUMP JUMPDEST PUSH2 0x2F0 PUSH2 0xDF5 JUMP JUMPDEST PUSH2 0x274 PUSH2 0xDFC JUMP JUMPDEST PUSH2 0x2B7 PUSH1 0x4 DUP1 CALLDATASIZE SUB PUSH1 0x20 DUP2 LT ISZERO PUSH2 0x467 JUMPI PUSH1 0x0 DUP1 PUSH2 0x464 PUSH2 0x1667 JUMP JUMPDEST POP POP JUMPDEST POP CALLDATALOAD PUSH1 0x1 PUSH1 0x1 PUSH1 0xA0 SHL SUB AND PUSH2 0xE08 JUMP JUMPDEST PUSH2 0x2B7 PUSH2 0xE1E JUMP JUMPDEST PUSH2 0x367 PUSH2 0xEA0 JUMP JUMPDEST PUSH2 0x367 PUSH2 0xEAC JUMP JUMPDEST PUSH2 0x2F0 PUSH1 0x4 DUP1 CALLDATASIZE SUB PUSH1 0x40 DUP2 LT ISZERO PUSH2 0x4AE JUMPI PUSH1 0x0 DUP1 PUSH2 0x4AB PUSH2 0x1667 JUMP JUMPDEST POP POP JUMPDEST POP PUSH1 0x1 PUSH1 0x1 PUSH1 0xA0 SHL SUB DUP2 CALLDATALOAD DUP2 AND SWAP2 PUSH1 0x20 ADD CALLDATALOAD AND PUSH2 0xEB8 JUMP JUMPDEST PUSH2 0x367 PUSH2 0xF93 JUMP JUMPDEST PUSH2 0x367 PUSH2 0xF9F JUMP JUMPDEST PUSH1 0x8 DUP1 PUSH2 0x4E1 PUSH2 0x16D2 JUMP JUMPDEST PUSH1 0x1 DUP2 PUSH1 0x1 AND ISZERO PUSH2 0x100 MUL SUB AND PUSH1 0x2 SWAP1 DIV DUP1 PUSH1 0x1F ADD PUSH1 0x20 DUP1 SWAP2 DIV MUL PUSH1 0x20 ADD PUSH1 0x40 MLOAD SWAP1 DUP2 ADD PUSH1 0x40 MSTORE DUP2 DUP2 MSTORE SWAP2 SWAP1 PUSH1 0x20 DUP4 ADD DUP3 DUP1 PUSH2 0x51B PUSH2 0x16D2 JUMP JUMPDEST PUSH1 0x1 DUP2 PUSH1 0x1 AND ISZERO PUSH2 0x100 MUL SUB AND PUSH1 0x2 SWAP1 DIV DUP1 ISZERO PUSH2 0x587 JUMPI DUP1 PUSH1 0x1F LT PUSH2 0x555 JUMPI PUSH2 0x100 DUP1 DUP4 PUSH2 0x547 PUSH2 0x16D2 JUMP JUMPDEST DIV MUL DUP4 MSTORE SWAP2 PUSH1 0x20 ADD SWAP2 PUSH2 0x587 JUMP JUMPDEST DUP3 ADD SWAP2 SWAP1 PUSH1 0x0 MSTORE PUSH1 0x20 PUSH1 0x0 KECCAK256 SWAP1 JUMPDEST DUP2 PUSH2 0x56C PUSH2 0x16D2 JUMP JUMPDEST DUP2 MSTORE SWAP1 PUSH1 0x1 ADD SWAP1 PUSH1 0x20 ADD DUP1 DUP4 GT PUSH2 0x563 JUMPI DUP3 SWAP1 SUB PUSH1 0x1F AND DUP3 ADD SWAP2 JUMPDEST POP POP POP POP POP DUP2 JUMP JUMPDEST PUSH1 0x0 PUSH2 0x599 PUSH2 0xFAB JUMP JUMPDEST PUSH1 0x0 DUP1 PUSH1 0x6 PUSH2 0x5A6 PUSH2 0x16D2 JUMP JUMPDEST SWAP1 PUSH2 0x100 EXP SWAP1 DIV PUSH1 0x1 PUSH1 0x1 PUSH1 0xA0 SHL SUB AND SWAP1 POP PUSH1 0x7 PUSH1 0x0 SWAP1 PUSH2 0x5C5 PUSH2 0x16D2 JUMP JUMPDEST SWAP1 PUSH2 0x100 EXP SWAP1 DIV PUSH1 0x1 PUSH1 0x1 PUSH1 0xA0 SHL SUB AND PUSH1 0x1 PUSH1 0x1 PUSH1 0xA0 SHL SUB AND PUSH4 0xDA46098C DUP3 DUP7 DUP7 PUSH1 0x40 MLOAD PUSH1 0x1 PUSH1 0x1 PUSH1 0xE0 SHL SUB NOT PUSH1 0xE0 DUP7 SWAP1 SHL AND DUP2 MSTORE PUSH1 0x1 PUSH1 0x1 PUSH1 0xA0 SHL SUB SWAP4 DUP5 AND PUSH1 0x4 DUP3 ADD MSTORE SWAP2 SWAP1 SWAP3 AND PUSH1 0x24 DUP3 ADD MSTORE PUSH1 0x44 DUP2 ADD SWAP2 SWAP1 SWAP2 MSTORE PUSH1 0x64 ADD PUSH1 0x0 PUSH1 0x40 MLOAD DUP1 DUP4 SUB DUP2 PUSH1 0x0 DUP8 DUP1 PUSH2 0x633 PUSH2 0x172D JUMP JUMPDEST ISZERO DUP1 ISZERO PUSH2 0x648 JUMPI PUSH1 0x0 DUP1 PUSH2 0x645 PUSH2 0x1667 JUMP JUMPDEST POP POP JUMPDEST POP GAS PUSH2 0x652 PUSH2 0x1779 JUMP JUMPDEST POP POP POP POP POP POP ISZERO DUP1 ISZERO PUSH2 0x672 JUMPI RETURNDATASIZE PUSH1 0x0 DUP1 RETURNDATACOPY RETURNDATASIZE PUSH1 0x0 PUSH2 0x66F PUSH2 0x1667 JUMP JUMPDEST POP POP JUMPDEST POP POP POP POP PUSH2 0x681 DUP2 DUP6 DUP6 PUSH2 0x1083 JUMP JUMPDEST POP PUSH1 0x1 SWAP4 SWAP3 POP POP POP JUMP JUMPDEST PUSH2 0x693 PUSH2 0x11FC JUMP JUMPDEST DUP1 PUSH1 0x5 PUSH1 0x1 DUP2 PUSH2 0x6A1 PUSH2 0x16D2 JUMP JUMPDEST DUP2 PUSH1 0x1 PUSH1 0x1 PUSH1 0xA0 SHL SUB MUL NOT AND SWAP1 DUP4 PUSH1 0x1 PUSH1 0x1 PUSH1 0xA0 SHL SUB AND MUL OR SWAP1 PUSH2 0x6C3 PUSH2 0x1832 JUMP JUMPDEST POP POP POP POP JUMP JUMPDEST PUSH2 0x6D1 PUSH2 0x11FC JUMP JUMPDEST DUP1 PUSH1 0x1 DUP1 DUP1 PUSH2 0x6DE PUSH2 0x16D2 JUMP JUMPDEST DUP2 PUSH1 0x1 PUSH1 0x1 PUSH1 0xA0 SHL SUB MUL NOT AND SWAP1 DUP4 PUSH1 0x1 PUSH1 0x1 PUSH1 0xA0 SHL SUB AND MUL OR SWAP1 PUSH2 0x700 PUSH2 0x1832 JUMP JUMPDEST POP POP POP PUSH32 0x906A1C6BD7E3091EA86693DD029A831C19049CE77F1DCE2CE0BAB1CACBABCE22 DUP2 PUSH1 0x40 MLOAD PUSH1 0x1 PUSH1 0x1 PUSH1 0xA0 SHL SUB SWAP1 SWAP2 AND DUP2 MSTORE PUSH1 0x20 ADD PUSH1 0x40 MLOAD DUP1 SWAP2 SUB SWAP1 LOG1 POP JUMP JUMPDEST PUSH1 0x2 PUSH2 0x74D PUSH2 0x16D2 JUMP JUMPDEST DUP2 JUMP JUMPDEST PUSH1 0xA PUSH2 0x74D PUSH2 0x16D2 JUMP JUMPDEST PUSH2 0x762 PUSH2 0x11FC JUMP JUMPDEST PUSH1 0x1 PUSH1 0x1 PUSH1 0xA0 SHL SUB DUP2 AND PUSH2 0x7C5 JUMPI PUSH1 0x40 MLOAD PUSH3 0x461BCD PUSH1 0xE5 SHL DUP2 MSTORE PUSH1 0x20 PUSH1 0x4 DUP3 ADD MSTORE PUSH1 0x1C PUSH1 0x24 DUP3 ADD MSTORE PUSH32 0x42656E6566696369617279206D757374206E6F74206265207A65726F00000000 PUSH1 0x44 DUP3 ADD MSTORE PUSH1 0x64 ADD PUSH1 0x40 MLOAD DUP1 SWAP2 SUB SWAP1 PUSH2 0x7C2 PUSH2 0x1667 JUMP JUMPDEST POP POP JUMPDEST DUP1 PUSH1 0x3 PUSH2 0x100 DUP2 PUSH2 0x7D4 PUSH2 0x16D2 JUMP JUMPDEST DUP2 PUSH1 0x1 PUSH1 0x1 PUSH1 0xA0 SHL SUB MUL NOT AND SWAP1 DUP4 PUSH1 0x1 PUSH1 0x1 PUSH1 0xA0 SHL SUB AND MUL OR SWAP1 PUSH2 0x7F6 PUSH2 0x1832 JUMP JUMPDEST POP POP POP PUSH32 0xD5DA63A0B864B315BC04128DEDBC93888C8529EE6CF47CE664DC204339228C53 DUP2 PUSH1 0x40 MLOAD PUSH1 0x1 PUSH1 0x1 PUSH1 0xA0 SHL SUB SWAP1 SWAP2 AND DUP2 MSTORE PUSH1 0x20 ADD PUSH1 0x40 MLOAD DUP1 SWAP2 SUB SWAP1 LOG1 POP JUMP JUMPDEST PUSH1 0x0 PUSH1 0xB PUSH2 0x845 PUSH2 0x16D2 JUMP JUMPDEST SWAP1 PUSH2 0x100 EXP SWAP1 DIV PUSH1 0xFF AND DUP2 JUMP JUMPDEST PUSH2 0x85A PUSH2 0x11FC JUMP JUMPDEST PUSH1 0x0 DUP1 PUSH1 0x2 PUSH2 0x867 PUSH2 0x1832 JUMP JUMPDEST POP POP POP PUSH1 0x0 PUSH1 0x3 PUSH1 0x0 PUSH2 0x100 EXP DUP2 PUSH2 0x87D PUSH2 0x16D2 JUMP JUMPDEST DUP2 PUSH1 0xFF MUL NOT AND SWAP1 DUP4 ISZERO ISZERO MUL OR SWAP1 PUSH2 0x892 PUSH2 0x1832 JUMP JUMPDEST POP POP POP PUSH32 0x6ADCC7125002935E0AA31697538EBBD65CFDDF20431EB6ECDCFC3E238BFD082C PUSH1 0x40 MLOAD PUSH1 0x40 MLOAD DUP1 SWAP2 SUB SWAP1 LOG1 JUMP JUMPDEST PUSH1 0x0 PUSH1 0x1 PUSH2 0x8CF PUSH2 0x16D2 JUMP JUMPDEST SWAP1 PUSH2 0x100 EXP SWAP1 DIV PUSH1 0x1 PUSH1 0x1 PUSH1 0xA0 SHL SUB AND DUP2 JUMP JUMPDEST PUSH1 0x0 DUP1 PUSH1 0x7 PUSH2 0x8EF PUSH2 0x16D2 JUMP JUMPDEST SWAP1 PUSH2 0x100 EXP SWAP1 DIV PUSH1 0x1 PUSH1 0x1 PUSH1 0xA0 SHL SUB AND PUSH1 0x1 PUSH1 0x1 PUSH1 0xA0 SHL SUB AND PUSH4 0x70A08231 DUP4 PUSH1 0x40 MLOAD PUSH1 0x1 PUSH1 0x1 PUSH1 0xE0 SHL SUB NOT PUSH1 0xE0 DUP5 SWAP1 SHL AND DUP2 MSTORE PUSH1 0x1 PUSH1 0x1 PUSH1 0xA0 SHL SUB SWAP1 SWAP2 AND PUSH1 0x4 DUP3 ADD MSTORE PUSH1 0x24 ADD PUSH1 0x20 PUSH1 0x40 MLOAD DUP1 DUP4 SUB DUP2 DUP7 DUP1 PUSH2 0x948 PUSH2 0x172D JUMP JUMPDEST ISZERO DUP1 ISZERO PUSH2 0x95D JUMPI PUSH1 0x0 DUP1 PUSH2 0x95A PUSH2 0x1667 JUMP JUMPDEST POP POP JUMPDEST POP GAS PUSH2 0x967 PUSH2 0x1880 JUMP JUMPDEST POP POP POP POP POP ISZERO DUP1 ISZERO PUSH2 0x986 JUMPI RETURNDATASIZE PUSH1 0x0 DUP1 RETURNDATACOPY RETURNDATASIZE PUSH1 0x0 PUSH2 0x983 PUSH2 0x1667 JUMP JUMPDEST POP POP JUMPDEST POP POP POP POP PUSH1 0x40 MLOAD RETURNDATASIZE PUSH1 0x20 DUP2 LT ISZERO PUSH2 0x9A5 JUMPI PUSH1 0x0 DUP1 PUSH2 0x9A2 PUSH2 0x1667 JUMP JUMPDEST POP POP JUMPDEST DUP2 ADD SWAP1 DUP1 DUP1 MLOAD SWAP6 SWAP5 POP POP POP POP POP JUMP JUMPDEST PUSH1 0x0 PUSH1 0x1 PUSH2 0x9C0 PUSH2 0x16D2 JUMP JUMPDEST SWAP1 PUSH2 0x100 EXP SWAP1 DIV PUSH1 0x1 PUSH1 0x1 PUSH1 0xA0 SHL SUB AND PUSH1 0x1 PUSH1 0x1 PUSH1 0xA0 SHL SUB AND GAS PUSH2 0x9E2 PUSH2 0x1939 JUMP JUMPDEST PUSH1 0x1 PUSH1 0x1 PUSH1 0xA0 SHL SUB AND EQ PUSH2 0xA30 JUMPI PUSH1 0x40 MLOAD PUSH3 0x461BCD PUSH1 0xE5 SHL DUP2 MSTORE PUSH1 0x4 ADD DUP1 DUP1 PUSH1 0x20 ADD DUP3 DUP2 SUB DUP3 MSTORE PUSH1 0x35 DUP2 MSTORE PUSH1 0x20 ADD DUP1 PUSH2 0x19C6 PUSH1 0x35 SWAP2 CODECOPY PUSH1 0x40 ADD SWAP2 POP POP PUSH1 0x40 MLOAD DUP1 SWAP2 SUB SWAP1 PUSH2 0xA2D PUSH2 0x1667 JUMP JUMPDEST POP POP JUMPDEST PUSH32 0xB532073B38C83145E3E5135377A08BF9AAB55BC0FD7C1179CD4FB995D2A5159C PUSH1 0x0 DUP1 PUSH2 0xA5C PUSH2 0x16D2 JUMP JUMPDEST SWAP1 PUSH2 0x100 EXP SWAP1 DIV PUSH1 0x1 PUSH1 0x1 PUSH1 0xA0 SHL SUB AND PUSH1 0x1 PUSH1 0x0 SWAP1 PUSH2 0xA79 PUSH2 0x16D2 JUMP JUMPDEST SWAP1 PUSH2 0x100 EXP SWAP1 DIV PUSH1 0x1 PUSH1 0x1 PUSH1 0xA0 SHL SUB AND PUSH1 0x40 MLOAD PUSH1 0x1 PUSH1 0x1 PUSH1 0xA0 SHL SUB SWAP3 DUP4 AND DUP2 MSTORE SWAP2 AND PUSH1 0x20 DUP3 ADD MSTORE PUSH1 0x40 SWAP1 DUP2 ADD SWAP1 MLOAD DUP1 SWAP2 SUB SWAP1 LOG1 PUSH1 0x0 PUSH1 0x1 PUSH2 0xAB8 PUSH2 0x16D2 JUMP JUMPDEST SWAP1 PUSH2 0x100 EXP SWAP1 DIV PUSH1 0x1 PUSH1 0x1 PUSH1 0xA0 SHL SUB AND PUSH1 0x0 DUP1 PUSH2 0x100 EXP DUP2 PUSH2 0xAD8 PUSH2 0x16D2 JUMP JUMPDEST DUP2 PUSH1 0x1 PUSH1 0x1 PUSH1 0xA0 SHL SUB MUL NOT AND SWAP1 DUP4 PUSH1 0x1 PUSH1 0x1 PUSH1 0xA0 SHL SUB AND MUL OR SWAP1 PUSH2 0xAFA PUSH2 0x1832 JUMP JUMPDEST POP POP POP PUSH1 0x0 PUSH1 0x1 PUSH1 0x0 PUSH2 0x100 EXP DUP2 PUSH2 0xB10 PUSH2 0x16D2 JUMP JUMPDEST DUP2 PUSH1 0x1 PUSH1 0x1 PUSH1 0xA0 SHL SUB MUL NOT AND SWAP1 DUP4 PUSH1 0x1 PUSH1 0x1 PUSH1 0xA0 SHL SUB AND MUL OR SWAP1 PUSH2 0xB32 PUSH2 0x1832 JUMP JUMPDEST POP POP POP JUMP JUMPDEST PUSH1 0x0 DUP1 PUSH2 0x8CF PUSH2 0x16D2 JUMP JUMPDEST PUSH1 0x9 DUP1 PUSH2 0xB4D PUSH2 0x16D2 JUMP JUMPDEST PUSH1 0x1 DUP2 PUSH1 0x1 AND ISZERO PUSH2 0x100 MUL SUB AND PUSH1 0x2 SWAP1 DIV DUP1 PUSH1 0x1F ADD PUSH1 0x20 DUP1 SWAP2 DIV MUL PUSH1 0x20 ADD PUSH1 0x40 MLOAD SWAP1 DUP2 ADD PUSH1 0x40 MSTORE DUP2 DUP2 MSTORE SWAP2 SWAP1 PUSH1 0x20 DUP4 ADD DUP3 DUP1 PUSH2 0xB87 PUSH2 0x16D2 JUMP JUMPDEST PUSH1 0x1 DUP2 PUSH1 0x1 AND ISZERO PUSH2 0x100 MUL SUB AND PUSH1 0x2 SWAP1 DIV DUP1 ISZERO PUSH2 0x587 JUMPI DUP1 PUSH1 0x1F LT PUSH2 0xBB3 JUMPI PUSH2 0x100 DUP1 DUP4 PUSH2 0x547 PUSH2 0x16D2 JUMP JUMPDEST DUP3 ADD SWAP2 SWAP1 PUSH1 0x0 MSTORE PUSH1 0x20 PUSH1 0x0 KECCAK256 SWAP1 JUMPDEST DUP2 PUSH2 0xBCA PUSH2 0x16D2 JUMP JUMPDEST DUP2 MSTORE SWAP1 PUSH1 0x1 ADD SWAP1 PUSH1 0x20 ADD DUP1 DUP4 GT PUSH2 0xBC1 JUMPI POP DUP6 SWAP4 POP POP POP POP JUMP JUMPDEST PUSH2 0xBEC PUSH2 0x11FC JUMP JUMPDEST DUP1 PUSH1 0x4 PUSH1 0x1 DUP2 PUSH2 0xBFA PUSH2 0x16D2 JUMP JUMPDEST DUP2 PUSH1 0x1 PUSH1 0x1 PUSH1 0xA0 SHL SUB MUL NOT AND SWAP1 DUP4 PUSH1 0x1 PUSH1 0x1 PUSH1 0xA0 SHL SUB AND MUL OR SWAP1 PUSH2 0xC1C PUSH2 0x1832 JUMP JUMPDEST POP POP POP PUSH32 0xFC80377CA9C49CC11AE6982F390A42DB976D5530AF7C43889264B13FBBD7C57E DUP2 PUSH1 0x40 MLOAD PUSH1 0x1 PUSH1 0x1 PUSH1 0xA0 SHL SUB SWAP1 SWAP2 AND DUP2 MSTORE PUSH1 0x20 ADD PUSH1 0x40 MLOAD DUP1 SWAP2 SUB SWAP1 LOG1 POP JUMP JUMPDEST PUSH2 0xC67 PUSH2 0x11FC JUMP JUMPDEST PUSH1 0x0 PUSH1 0x3 PUSH2 0xC73 PUSH2 0x16D2 JUMP JUMPDEST SWAP1 PUSH2 0x100 EXP SWAP1 DIV PUSH1 0xFF AND PUSH2 0xCD6 JUMPI PUSH1 0x40 MLOAD PUSH3 0x461BCD PUSH1 0xE5 SHL DUP2 MSTORE PUSH1 0x20 PUSH1 0x4 DUP3 ADD MSTORE PUSH1 0x1F PUSH1 0x24 DUP3 ADD MSTORE PUSH32 0x53656C66204465737472756374206E6F742079657420696E6974696174656400 PUSH1 0x44 DUP3 ADD MSTORE PUSH1 0x64 ADD PUSH1 0x40 MLOAD DUP1 SWAP2 SUB SWAP1 PUSH2 0xCD3 PUSH2 0x1667 JUMP JUMPDEST POP POP JUMPDEST GAS PUSH2 0xCDF PUSH2 0x197F JUMP JUMPDEST PUSH3 0x24EA00 PUSH1 0x2 PUSH2 0xCED PUSH2 0x16D2 JUMP JUMPDEST ADD LT PUSH2 0xD48 JUMPI PUSH1 0x40 MLOAD PUSH3 0x461BCD PUSH1 0xE5 SHL DUP2 MSTORE PUSH1 0x20 PUSH1 0x4 DUP3 ADD MSTORE PUSH1 0x1B PUSH1 0x24 DUP3 ADD MSTORE PUSH32 0x53656C662064657374727563742064656C6179206E6F74206D65740000000000 PUSH1 0x44 DUP3 ADD MSTORE PUSH1 0x64 ADD PUSH1 0x40 MLOAD DUP1 SWAP2 SUB SWAP1 PUSH2 0xD45 PUSH2 0x1667 JUMP JUMPDEST POP POP JUMPDEST PUSH32 0x8A09E1677CED846CB537DC2B172043BD05A1A81AD7E0033A7EF8BA762DF990B7 PUSH1 0x1 PUSH1 0x3 PUSH2 0xD75 PUSH2 0x16D2 JUMP JUMPDEST SWAP1 PUSH2 0x100 EXP SWAP1 DIV PUSH1 0x1 PUSH1 0x1 PUSH1 0xA0 SHL SUB AND PUSH1 0x40 MLOAD PUSH1 0x1 PUSH1 0x1 PUSH1 0xA0 SHL SUB SWAP1 SWAP2 AND DUP2 MSTORE PUSH1 0x20 ADD PUSH1 0x40 MLOAD DUP1 SWAP2 SUB SWAP1 LOG1 JUMP JUMPDEST PUSH1 0x0 PUSH1 0x5 PUSH2 0x8CF PUSH2 0x16D2 JUMP JUMPDEST PUSH2 0xDB6 PUSH2 0x1278 JUMP JUMPDEST DUP1 PUSH1 0x7 PUSH1 0x1 DUP2 PUSH2 0xDC4 PUSH2 0x16D2 JUMP JUMPDEST DUP2 PUSH1 0x1 PUSH1 0x1 PUSH1 0xA0 SHL SUB MUL NOT AND SWAP1 DUP4 PUSH1 0x1 PUSH1 0x1 PUSH1 0xA0 SHL SUB AND MUL OR SWAP1 PUSH2 0xDE6 PUSH2 0x1832 JUMP JUMPDEST POP POP POP PUSH2 0xDF2 DUP2 PUSH2 0x1403 JUMP JUMPDEST POP JUMP JUMPDEST PUSH3 0x24EA00 DUP2 JUMP JUMPDEST PUSH1 0x0 PUSH1 0x3 PUSH2 0x845 PUSH2 0x16D2 JUMP JUMPDEST PUSH2 0xE10 PUSH2 0x158E JUMP JUMPDEST DUP1 PUSH1 0x6 PUSH1 0x1 DUP2 PUSH2 0x6A1 PUSH2 0x16D2 JUMP JUMPDEST PUSH2 0xE26 PUSH2 0x11FC JUMP JUMPDEST GAS PUSH2 0xE2F PUSH2 0x197F JUMP JUMPDEST DUP1 PUSH1 0x2 PUSH2 0xE3A PUSH2 0x1832 JUMP JUMPDEST POP POP POP PUSH1 0x1 PUSH1 0x3 PUSH1 0x0 PUSH2 0x100 EXP DUP2 PUSH2 0xE50 PUSH2 0x16D2 JUMP JUMPDEST DUP2 PUSH1 0xFF MUL NOT AND SWAP1 DUP4 ISZERO ISZERO MUL OR SWAP1 PUSH2 0xE65 PUSH2 0x1832 JUMP JUMPDEST POP POP POP PUSH32 0xCBD94CA75B8DC45C9D80C77E851670E78843C0D75180CB81DB3E2158228FA9A6 PUSH3 0x24EA00 PUSH1 0x40 MLOAD SWAP1 DUP2 MSTORE PUSH1 0x20 ADD PUSH1 0x40 MLOAD DUP1 SWAP2 SUB SWAP1 LOG1 JUMP JUMPDEST PUSH1 0x1 PUSH1 0x3 PUSH2 0x8CF PUSH2 0x16D2 JUMP JUMPDEST PUSH1 0x0 PUSH1 0x6 PUSH2 0x8CF PUSH2 0x16D2 JUMP JUMPDEST PUSH1 0x0 DUP1 PUSH1 0x7 PUSH2 0xEC5 PUSH2 0x16D2 JUMP JUMPDEST SWAP1 PUSH2 0x100 EXP SWAP1 DIV PUSH1 0x1 PUSH1 0x1 PUSH1 0xA0 SHL SUB AND PUSH1 0x1 PUSH1 0x1 PUSH1 0xA0 SHL SUB AND PUSH4 0xDD62ED3E DUP5 DUP5 PUSH1 0x40 MLOAD PUSH1 0x1 PUSH1 0x1 PUSH1 0xE0 SHL SUB NOT PUSH1 0xE0 DUP6 SWAP1 SHL AND DUP2 MSTORE PUSH1 0x1 PUSH1 0x1 PUSH1 0xA0 SHL SUB SWAP3 DUP4 AND PUSH1 0x4 DUP3 ADD MSTORE SWAP2 AND PUSH1 0x24 DUP3 ADD MSTORE PUSH1 0x44 ADD PUSH1 0x20 PUSH1 0x40 MLOAD DUP1 DUP4 SUB DUP2 DUP7 DUP1 PUSH2 0xF26 PUSH2 0x172D JUMP JUMPDEST ISZERO DUP1 ISZERO PUSH2 0xF3B JUMPI PUSH1 0x0 DUP1 PUSH2 0xF38 PUSH2 0x1667 JUMP JUMPDEST POP POP JUMPDEST POP GAS PUSH2 0xF45 PUSH2 0x1880 JUMP JUMPDEST POP POP POP POP POP ISZERO DUP1 ISZERO PUSH2 0xF64 JUMPI RETURNDATASIZE PUSH1 0x0 DUP1 RETURNDATACOPY RETURNDATASIZE PUSH1 0x0 PUSH2 0xF61 PUSH2 0x1667 JUMP JUMPDEST POP POP JUMPDEST POP POP POP POP PUSH1 0x40 MLOAD RETURNDATASIZE PUSH1 0x20 DUP2 LT ISZERO PUSH2 0xF83 JUMPI PUSH1 0x0 DUP1 PUSH2 0xF80 PUSH2 0x1667 JUMP JUMPDEST POP POP JUMPDEST DUP2 ADD SWAP1 DUP1 DUP1 MLOAD SWAP7 SWAP6 POP POP POP POP POP POP JUMP JUMPDEST PUSH1 0x0 PUSH1 0x7 PUSH2 0x8CF PUSH2 0x16D2 JUMP JUMPDEST PUSH1 0x0 PUSH1 0x4 PUSH2 0x8CF PUSH2 0x16D2 JUMP JUMPDEST PUSH1 0x0 PUSH1 0x4 PUSH2 0xFB7 PUSH2 0x16D2 JUMP JUMPDEST SWAP1 PUSH2 0x100 EXP SWAP1 DIV PUSH1 0x1 PUSH1 0x1 PUSH1 0xA0 SHL SUB AND PUSH1 0x1 PUSH1 0x1 PUSH1 0xA0 SHL SUB AND GAS PUSH2 0xFD9 PUSH2 0x1939 JUMP JUMPDEST PUSH1 0x1 PUSH1 0x1 PUSH1 0xA0 SHL SUB AND EQ ISZERO DUP1 ISZERO PUSH2 0x1025 JUMPI POP PUSH1 0x0 PUSH1 0x5 PUSH2 0xFF7 PUSH2 0x16D2 JUMP JUMPDEST SWAP1 PUSH2 0x100 EXP SWAP1 DIV PUSH1 0x1 PUSH1 0x1 PUSH1 0xA0 SHL SUB AND PUSH1 0x1 PUSH1 0x1 PUSH1 0xA0 SHL SUB AND GAS PUSH2 0x1019 PUSH2 0x1939 JUMP JUMPDEST PUSH1 0x1 PUSH1 0x1 PUSH1 0xA0 SHL SUB AND EQ ISZERO JUMPDEST DUP1 ISZERO PUSH2 0x1066 JUMPI POP GAS PUSH2 0x1035 PUSH2 0x1939 JUMP JUMPDEST PUSH1 0x1 PUSH1 0x1 PUSH1 0xA0 SHL SUB AND PUSH1 0x0 PUSH1 0x6 PUSH2 0x104A PUSH2 0x16D2 JUMP JUMPDEST SWAP1 PUSH2 0x100 EXP SWAP1 DIV PUSH1 0x1 PUSH1 0x1 PUSH1 0xA0 SHL SUB AND PUSH1 0x1 PUSH1 0x1 PUSH1 0xA0 SHL SUB AND EQ ISZERO JUMPDEST ISZERO PUSH2 0x1081 JUMPI GAS PUSH2 0x1074 PUSH2 0x1939 JUMP JUMPDEST PUSH1 0x6 PUSH1 0x1 DUP2 PUSH2 0xB10 PUSH2 0x16D2 JUMP JUMPDEST JUMP JUMPDEST PUSH1 0x0 PUSH1 0x4 PUSH2 0x108F PUSH2 0x16D2 JUMP JUMPDEST SWAP1 PUSH2 0x100 EXP SWAP1 DIV PUSH1 0x1 PUSH1 0x1 PUSH1 0xA0 SHL SUB AND PUSH1 0x1 PUSH1 0x1 PUSH1 0xA0 SHL SUB AND PUSH4 0x907DFF97 DUP3 PUSH1 0x40 MLOAD PUSH1 0x20 ADD DUP1 DUP3 DUP2 MSTORE PUSH1 0x20 ADD SWAP2 POP POP PUSH1 0x40 MLOAD PUSH1 0x20 DUP2 DUP4 SUB SUB DUP2 MSTORE SWAP1 PUSH1 0x40 MSTORE PUSH1 0x3 PUSH1 0x40 MLOAD DUP1 PUSH1 0x21 PUSH2 0x1A2A DUP3 CODECOPY PUSH1 0x21 ADD SWAP1 POP PUSH1 0x40 MLOAD DUP1 SWAP2 SUB SWAP1 KECCAK256 PUSH2 0x10F0 DUP9 PUSH2 0x165B JUMP JUMPDEST PUSH2 0x10F9 DUP9 PUSH2 0x165B JUMP JUMPDEST PUSH1 0x0 PUSH1 0x40 MLOAD DUP8 PUSH4 0xFFFFFFFF AND PUSH1 0xE0 SHL DUP2 MSTORE PUSH1 0x4 ADD DUP1 DUP1 PUSH1 0x20 ADD DUP8 DUP2 MSTORE PUSH1 0x20 ADD DUP7 DUP2 MSTORE PUSH1 0x20 ADD DUP6 DUP2 MSTORE PUSH1 0x20 ADD DUP5 DUP2 MSTORE PUSH1 0x20 ADD DUP4 PUSH1 0x0 SHL DUP2 MSTORE PUSH1 0x20 ADD DUP3 DUP2 SUB DUP3 MSTORE DUP9 DUP2 DUP2 MLOAD DUP2 MSTORE PUSH1 0x20 ADD SWAP2 POP DUP1 MLOAD SWAP1 PUSH1 0x20 ADD SWAP1 DUP1 DUP4 DUP4 PUSH1 0x0 JUMPDEST DUP4 DUP2 LT ISZERO PUSH2 0x1168 JUMPI DUP1 DUP3 ADD MLOAD DUP4 DUP3 ADD MSTORE PUSH1 0x20 ADD PUSH2 0x1150 JUMP JUMPDEST POP POP POP POP SWAP1 POP SWAP1 DUP2 ADD SWAP1 PUSH1 0x1F AND DUP1 ISZERO PUSH2 0x1195 JUMPI DUP1 DUP3 SUB DUP1 MLOAD PUSH1 0x1 DUP4 PUSH1 0x20 SUB PUSH2 0x100 EXP SUB NOT AND DUP2 MSTORE PUSH1 0x20 ADD SWAP2 POP JUMPDEST POP SWAP8 POP POP POP POP POP POP POP POP PUSH1 0x0 PUSH1 0x40 MLOAD DUP1 DUP4 SUB DUP2 PUSH1 0x0 DUP8 DUP1 PUSH2 0x11B4 PUSH2 0x172D JUMP JUMPDEST ISZERO DUP1 ISZERO PUSH2 0x11C9 JUMPI PUSH1 0x0 DUP1 PUSH2 0x11C6 PUSH2 0x1667 JUMP JUMPDEST POP POP JUMPDEST POP GAS PUSH2 0x11D3 PUSH2 0x1779 JUMP JUMPDEST POP POP POP POP POP POP ISZERO DUP1 ISZERO PUSH2 0x11F3 JUMPI RETURNDATASIZE PUSH1 0x0 DUP1 RETURNDATACOPY RETURNDATASIZE PUSH1 0x0 PUSH2 0x11F0 PUSH2 0x1667 JUMP JUMPDEST POP POP JUMPDEST POP POP POP POP POP POP POP JUMP JUMPDEST PUSH1 0x0 DUP1 PUSH2 0x1207 PUSH2 0x16D2 JUMP JUMPDEST SWAP1 PUSH2 0x100 EXP SWAP1 DIV PUSH1 0x1 PUSH1 0x1 PUSH1 0xA0 SHL SUB AND PUSH1 0x1 PUSH1 0x1 PUSH1 0xA0 SHL SUB AND GAS PUSH2 0x1229 PUSH2 0x1939 JUMP JUMPDEST PUSH1 0x1 PUSH1 0x1 PUSH1 0xA0 SHL SUB AND EQ PUSH2 0x1081 JUMPI PUSH1 0x40 MLOAD PUSH3 0x461BCD PUSH1 0xE5 SHL DUP2 MSTORE PUSH1 0x4 ADD DUP1 DUP1 PUSH1 0x20 ADD DUP3 DUP2 SUB DUP3 MSTORE PUSH1 0x2F DUP2 MSTORE PUSH1 0x20 ADD DUP1 PUSH2 0x19FB PUSH1 0x2F SWAP2 CODECOPY PUSH1 0x40 ADD SWAP2 POP POP PUSH1 0x40 MLOAD DUP1 SWAP2 SUB SWAP1 PUSH2 0x1274 PUSH2 0x1667 JUMP JUMPDEST POP POP JUMP JUMPDEST PUSH1 0x0 PUSH1 0x4 PUSH2 0x1284 PUSH2 0x16D2 JUMP JUMPDEST SWAP1 PUSH2 0x100 EXP SWAP1 DIV PUSH1 0x1 PUSH1 0x1 PUSH1 0xA0 SHL SUB AND PUSH1 0x1 PUSH1 0x1 PUSH1 0xA0 SHL SUB AND GAS PUSH2 0x12A6 PUSH2 0x1939 JUMP JUMPDEST PUSH1 0x1 PUSH1 0x1 PUSH1 0xA0 SHL SUB AND EQ ISZERO DUP1 ISZERO PUSH2 0x12F2 JUMPI POP PUSH1 0x0 PUSH1 0x5 PUSH2 0x12C4 PUSH2 0x16D2 JUMP JUMPDEST SWAP1 PUSH2 0x100 EXP SWAP1 DIV PUSH1 0x1 PUSH1 0x1 PUSH1 0xA0 SHL SUB AND PUSH1 0x1 PUSH1 0x1 PUSH1 0xA0 SHL SUB AND GAS PUSH2 0x12E6 PUSH2 0x1939 JUMP JUMPDEST PUSH1 0x1 PUSH1 0x1 PUSH1 0xA0 SHL SUB AND EQ ISZERO JUMPDEST DUP1 ISZERO PUSH2 0x1333 JUMPI POP GAS PUSH2 0x1302 PUSH2 0x1939 JUMP JUMPDEST PUSH1 0x1 PUSH1 0x1 PUSH1 0xA0 SHL SUB AND PUSH1 0x0 PUSH1 0x6 PUSH2 0x1317 PUSH2 0x16D2 JUMP JUMPDEST SWAP1 PUSH2 0x100 EXP SWAP1 DIV PUSH1 0x1 PUSH1 0x1 PUSH1 0xA0 SHL SUB AND PUSH1 0x1 PUSH1 0x1 PUSH1 0xA0 SHL SUB AND EQ ISZERO JUMPDEST ISZERO PUSH2 0x1374 JUMPI GAS PUSH2 0x1341 PUSH2 0x1939 JUMP JUMPDEST PUSH1 0x6 PUSH1 0x1 DUP2 PUSH2 0x134E PUSH2 0x16D2 JUMP JUMPDEST DUP2 PUSH1 0x1 PUSH1 0x1 PUSH1 0xA0 SHL SUB MUL NOT AND SWAP1 DUP4 PUSH1 0x1 PUSH1 0x1 PUSH1 0xA0 SHL SUB AND MUL OR SWAP1 PUSH2 0x1370 PUSH2 0x1832 JUMP JUMPDEST POP POP POP JUMPDEST PUSH1 0x0 DUP1 PUSH2 0x137F PUSH2 0x16D2 JUMP JUMPDEST PUSH1 0x1 PUSH1 0x1 PUSH1 0xA0 SHL SUB PUSH2 0x100 SWAP3 SWAP1 SWAP3 EXP SWAP1 DIV AND PUSH1 0x0 PUSH1 0x6 PUSH2 0x139D PUSH2 0x16D2 JUMP JUMPDEST SWAP1 PUSH2 0x100 EXP SWAP1 DIV PUSH1 0x1 PUSH1 0x1 PUSH1 0xA0 SHL SUB AND PUSH1 0x1 PUSH1 0x1 PUSH1 0xA0 SHL SUB AND EQ PUSH2 0x1081 JUMPI PUSH1 0x40 MLOAD PUSH3 0x461BCD PUSH1 0xE5 SHL DUP2 MSTORE PUSH1 0x20 PUSH1 0x4 DUP3 ADD MSTORE PUSH1 0x13 PUSH1 0x24 DUP3 ADD MSTORE PUSH19 0x27BBB732B91037B7363C90333AB731BA34B7B7 PUSH1 0x69 SHL PUSH1 0x44 DUP3 ADD MSTORE PUSH1 0x64 ADD PUSH1 0x40 MLOAD DUP1 SWAP2 SUB SWAP1 PUSH2 0x1274 PUSH2 0x1667 JUMP JUMPDEST PUSH1 0x0 PUSH1 0x4 PUSH2 0x140F PUSH2 0x16D2 JUMP JUMPDEST SWAP1 PUSH2 0x100 EXP SWAP1 DIV PUSH1 0x1 PUSH1 0x1 PUSH1 0xA0 SHL SUB AND PUSH1 0x1 PUSH1 0x1 PUSH1 0xA0 SHL SUB AND PUSH4 0x907DFF97 DUP3 PUSH1 0x40 MLOAD PUSH1 0x1 PUSH1 0x1 PUSH1 0xA0 SHL SUB SWAP1 SWAP2 AND PUSH1 0x20 DUP3 ADD MSTORE PUSH1 0x40 SWAP1 DUP2 ADD SWAP1 MLOAD PUSH1 0x20 DUP2 DUP4 SUB SUB DUP2 MSTORE SWAP1 PUSH1 0x40 MSTORE PUSH1 0x1 PUSH1 0x40 MLOAD PUSH32 0x546F6B656E537461746555706461746564286164647265737329000000000000 DUP2 MSTORE PUSH1 0x1A ADD PUSH1 0x40 MLOAD DUP1 SWAP2 SUB SWAP1 KECCAK256 PUSH1 0x0 DUP1 PUSH1 0x0 PUSH1 0x40 MLOAD DUP8 PUSH4 0xFFFFFFFF AND PUSH1 0xE0 SHL DUP2 MSTORE PUSH1 0x4 ADD DUP1 DUP1 PUSH1 0x20 ADD DUP8 DUP2 MSTORE PUSH1 0x20 ADD DUP7 DUP2 MSTORE PUSH1 0x20 ADD DUP6 PUSH1 0x0 SHL DUP2 MSTORE PUSH1 0x20 ADD DUP5 PUSH1 0x0 SHL DUP2 MSTORE PUSH1 0x20 ADD DUP4 PUSH1 0x0 SHL DUP2 MSTORE PUSH1 0x20 ADD DUP3 DUP2 SUB DUP3 MSTORE DUP9 DUP2 DUP2 MLOAD DUP2 MSTORE PUSH1 0x20 ADD SWAP2 POP DUP1 MLOAD SWAP1 PUSH1 0x20 ADD SWAP1 DUP1 DUP4 DUP4 PUSH1 0x0 JUMPDEST DUP4 DUP2 LT ISZERO PUSH2 0x14FF JUMPI DUP1 DUP3 ADD MLOAD DUP4 DUP3 ADD MSTORE PUSH1 0x20 ADD PUSH2 0x14E7 JUMP JUMPDEST POP POP POP POP SWAP1 POP SWAP1 DUP2 ADD SWAP1 PUSH1 0x1F AND DUP1 ISZERO PUSH2 0x152C JUMPI DUP1 DUP3 SUB DUP1 MLOAD PUSH1 0x1 DUP4 PUSH1 0x20 SUB PUSH2 0x100 EXP SUB NOT AND DUP2 MSTORE PUSH1 0x20 ADD SWAP2 POP JUMPDEST POP SWAP8 POP POP POP POP POP POP POP POP PUSH1 0x0 PUSH1 0x40 MLOAD DUP1 DUP4 SUB DUP2 PUSH1 0x0 DUP8 DUP1 PUSH2 0x154B PUSH2 0x172D JUMP JUMPDEST ISZERO DUP1 ISZERO PUSH2 0x1560 JUMPI PUSH1 0x0 DUP1 PUSH2 0x155D PUSH2 0x1667 JUMP JUMPDEST POP POP JUMPDEST POP GAS PUSH2 0x156A PUSH2 0x1779 JUMP JUMPDEST POP POP POP POP POP POP ISZERO DUP1 ISZERO PUSH2 0x1587 JUMPI RETURNDATASIZE PUSH1 0x0 DUP1 RETURNDATACOPY RETURNDATASIZE PUSH1 0x0 PUSH2 0x11F3 PUSH2 0x1667 JUMP JUMPDEST POP POP POP POP POP JUMP JUMPDEST PUSH1 0x0 PUSH1 0x4 PUSH2 0x159A PUSH2 0x16D2 JUMP JUMPDEST SWAP1 PUSH2 0x100 EXP SWAP1 DIV PUSH1 0x1 PUSH1 0x1 PUSH1 0xA0 SHL SUB AND PUSH1 0x1 PUSH1 0x1 PUSH1 0xA0 SHL SUB AND GAS PUSH2 0x15BC PUSH2 0x1939 JUMP JUMPDEST PUSH1 0x1 PUSH1 0x1 PUSH1 0xA0 SHL SUB AND EQ DUP1 PUSH2 0x1605 JUMPI POP PUSH1 0x0 PUSH1 0x5 PUSH2 0x15D8 PUSH2 0x16D2 JUMP JUMPDEST SWAP1 PUSH2 0x100 EXP SWAP1 DIV PUSH1 0x1 PUSH1 0x1 PUSH1 0xA0 SHL SUB AND PUSH1 0x1 PUSH1 0x1 PUSH1 0xA0 SHL SUB AND GAS PUSH2 0x15FA PUSH2 0x1939 JUMP JUMPDEST PUSH1 0x1 PUSH1 0x1 PUSH1 0xA0 SHL SUB AND EQ JUMPDEST PUSH2 0x1081 JUMPI PUSH1 0x40 MLOAD PUSH3 0x461BCD PUSH1 0xE5 SHL DUP2 MSTORE PUSH1 0x20 PUSH1 0x4 DUP3 ADD MSTORE PUSH1 0x17 PUSH1 0x24 DUP3 ADD MSTORE PUSH32 0x4F6E6C79207468652070726F78792063616E2063616C6C000000000000000000 PUSH1 0x44 DUP3 ADD MSTORE PUSH1 0x64 ADD PUSH1 0x40 MLOAD DUP1 SWAP2 SUB SWAP1 PUSH2 0x1274 PUSH2 0x1667 JUMP JUMPDEST PUSH1 0x1 PUSH1 0x1 PUSH1 0xA0 SHL SUB AND SWAP1 JUMP JUMPDEST PUSH4 0x2A2A7ADB MSIZE DUP2 PUSH1 0xE0 SHL DUP2 MSTORE PUSH1 0x4 DUP2 ADD PUSH1 0x20 DUP2 MSTORE DUP6 PUSH1 0x20 DUP3 ADD MSTORE PUSH1 0x0 JUMPDEST DUP7 DUP2 LT ISZERO PUSH2 0x169F JUMPI DUP1 DUP7 ADD MLOAD DUP3 DUP3 ADD PUSH1 0x40 ADD MSTORE PUSH1 0x20 ADD PUSH2 0x1684 JUMP JUMPDEST POP PUSH1 0x20 DUP3 DUP8 PUSH1 0x64 ADD DUP5 CALLER PUSH1 0x0 SWAP1 GAS CALL PC PUSH1 0xE ADD JUMPI RETURNDATASIZE PUSH1 0x0 DUP1 RETURNDATACOPY RETURNDATASIZE PUSH1 0x0 REVERT JUMPDEST RETURNDATASIZE PUSH1 0x1 EQ ISZERO PC PUSH1 0xA ADD JUMPI PUSH1 0x1 PUSH1 0x0 RETURN JUMPDEST POP POP POP JUMP JUMPDEST PUSH4 0x3DAA959 MSIZE DUP2 PUSH1 0xE0 SHL DUP2 MSTORE DUP4 PUSH1 0x4 DUP3 ADD MSTORE PUSH1 0x20 DUP2 PUSH1 0x24 DUP4 CALLER PUSH1 0x0 SWAP1 GAS CALL PC PUSH1 0xE ADD JUMPI RETURNDATASIZE PUSH1 0x0 DUP1 RETURNDATACOPY RETURNDATASIZE PUSH1 0x0 REVERT JUMPDEST RETURNDATASIZE PUSH1 0x1 EQ ISZERO PC PUSH1 0xA ADD JUMPI PUSH1 0x1 PUSH1 0x0 RETURN JUMPDEST DUP1 MLOAD SWAP4 POP PUSH1 0x0 JUMPDEST PUSH1 0x40 DUP2 LT ISZERO PUSH2 0xB32 JUMPI PUSH1 0x0 DUP3 DUP3 ADD MSTORE PUSH1 0x20 ADD PUSH2 0x1716 JUMP JUMPDEST PUSH4 0x8435035B MSIZE DUP2 PUSH1 0xE0 SHL DUP2 MSTORE DUP4 PUSH1 0x4 DUP3 ADD MSTORE PUSH1 0x20 DUP2 PUSH1 0x24 DUP4 CALLER PUSH1 0x0 SWAP1 GAS CALL PC PUSH1 0xE ADD JUMPI RETURNDATASIZE PUSH1 0x0 DUP1 RETURNDATACOPY RETURNDATASIZE PUSH1 0x0 REVERT JUMPDEST RETURNDATASIZE PUSH1 0x1 EQ ISZERO PC PUSH1 0xA ADD JUMPI PUSH1 0x1 PUSH1 0x0 RETURN JUMPDEST DUP1 MLOAD PUSH1 0x0 DUP3 MSTORE SWAP4 POP PUSH1 0x20 PUSH2 0x1716 JUMP JUMPDEST PUSH4 0x85979F76 MSIZE DUP2 PUSH1 0xE0 SHL DUP2 MSTORE DUP4 PUSH1 0x4 DUP3 ADD MSTORE DUP5 PUSH1 0x24 DUP3 ADD MSTORE PUSH1 0x60 PUSH1 0x44 DUP3 ADD MSTORE DUP8 PUSH1 0x64 DUP3 ADD MSTORE PUSH1 0x84 DUP2 ADD PUSH1 0x0 JUMPDEST DUP10 DUP2 LT ISZERO PUSH2 0x17BD JUMPI DUP1 DUP10 ADD MLOAD DUP3 DUP3 ADD MSTORE PUSH1 0x20 ADD PUSH2 0x17A5 JUMP JUMPDEST POP DUP9 PUSH2 0x104 ADD DUP3 ADD PUSH1 0x60 DUP4 DUP12 PUSH2 0x104 ADD DUP6 CALLER PUSH1 0x0 SWAP1 GAS CALL PC PUSH1 0xE ADD JUMPI RETURNDATASIZE PUSH1 0x0 DUP1 RETURNDATACOPY RETURNDATASIZE PUSH1 0x0 REVERT JUMPDEST RETURNDATASIZE PUSH1 0x1 EQ ISZERO PC PUSH1 0xA ADD JUMPI PUSH1 0x1 PUSH1 0x0 RETURN JUMPDEST DUP3 MLOAD PUSH1 0x40 DUP5 ADD MLOAD RETURNDATASIZE PUSH1 0x0 DUP7 RETURNDATACOPY DUP14 DUP14 DUP3 PUSH1 0x60 DUP9 ADD CALLER POP PUSH1 0x0 PUSH1 0x4 GAS CALL POP MSIZE DUP6 JUMPDEST DUP2 DUP2 LT ISZERO PUSH2 0x1826 JUMPI PUSH1 0x0 DUP2 MSTORE PUSH1 0x20 ADD PUSH2 0x1812 JUMP JUMPDEST POP SWAP2 SWAP14 POP POP POP POP POP POP POP JUMP JUMPDEST PUSH4 0x22BD64C0 MSIZE DUP2 PUSH1 0xE0 SHL DUP2 MSTORE DUP4 PUSH1 0x4 DUP3 ADD MSTORE DUP5 PUSH1 0x24 DUP3 ADD MSTORE PUSH1 0x0 DUP2 PUSH1 0x44 DUP4 CALLER PUSH1 0x0 SWAP1 GAS CALL PC PUSH1 0xE ADD JUMPI RETURNDATASIZE PUSH1 0x0 DUP1 RETURNDATACOPY RETURNDATASIZE PUSH1 0x0 REVERT JUMPDEST RETURNDATASIZE PUSH1 0x1 EQ ISZERO PC PUSH1 0xA ADD JUMPI PUSH1 0x1 PUSH1 0x0 RETURN JUMPDEST PUSH1 0x0 DUP2 MSTORE PUSH1 0x20 PUSH2 0x1716 JUMP JUMPDEST PUSH4 0x8540661F MSIZE DUP2 PUSH1 0xE0 SHL DUP2 MSTORE DUP4 PUSH1 0x4 DUP3 ADD MSTORE DUP5 PUSH1 0x24 DUP3 ADD MSTORE PUSH1 0x60 PUSH1 0x44 DUP3 ADD MSTORE DUP7 PUSH1 0x64 DUP3 ADD MSTORE PUSH1 0x84 DUP2 ADD PUSH1 0x0 JUMPDEST DUP9 DUP2 LT ISZERO PUSH2 0x18C4 JUMPI DUP1 DUP9 ADD MLOAD DUP3 DUP3 ADD MSTORE PUSH1 0x20 ADD PUSH2 0x18AC JUMP JUMPDEST POP DUP8 PUSH2 0x104 ADD DUP3 ADD PUSH1 0x60 DUP4 DUP11 PUSH2 0x104 ADD DUP6 CALLER PUSH1 0x0 SWAP1 GAS CALL PC PUSH1 0xE ADD JUMPI RETURNDATASIZE PUSH1 0x0 DUP1 RETURNDATACOPY RETURNDATASIZE PUSH1 0x0 REVERT JUMPDEST RETURNDATASIZE PUSH1 0x1 EQ ISZERO PC PUSH1 0xA ADD JUMPI PUSH1 0x1 PUSH1 0x0 RETURN JUMPDEST DUP3 MLOAD PUSH1 0x40 DUP5 ADD MLOAD RETURNDATASIZE PUSH1 0x0 DUP7 RETURNDATACOPY DUP13 DUP13 DUP3 PUSH1 0x60 DUP9 ADD CALLER POP PUSH1 0x0 PUSH1 0x4 GAS CALL POP MSIZE DUP6 JUMPDEST DUP2 DUP2 LT ISZERO PUSH2 0x192D JUMPI PUSH1 0x0 DUP2 MSTORE PUSH1 0x20 ADD PUSH2 0x1919 JUMP JUMPDEST POP SWAP2 SWAP13 POP POP POP POP POP POP POP JUMP JUMPDEST PUSH4 0x73509064 MSIZE DUP2 PUSH1 0xE0 SHL DUP2 MSTORE PUSH1 0x20 DUP2 PUSH1 0x4 DUP4 CALLER PUSH1 0x0 SWAP1 GAS CALL PC PUSH1 0xE ADD JUMPI RETURNDATASIZE PUSH1 0x0 DUP1 RETURNDATACOPY RETURNDATASIZE PUSH1 0x0 REVERT JUMPDEST RETURNDATASIZE PUSH1 0x1 EQ ISZERO PC PUSH1 0xA ADD JUMPI PUSH1 0x1 PUSH1 0x0 RETURN JUMPDEST DUP1 MLOAD PUSH1 0x0 DUP3 MSTORE SWAP4 POP PUSH1 0x20 PUSH2 0x1716 JUMP JUMPDEST PUSH4 0xBDBF8C36 MSIZE DUP2 PUSH1 0xE0 SHL DUP2 MSTORE PUSH1 0x20 DUP2 PUSH1 0x4 DUP4 CALLER PUSH1 0x0 SWAP1 GAS CALL PC PUSH1 0xE ADD JUMPI RETURNDATASIZE PUSH1 0x0 DUP1 RETURNDATACOPY RETURNDATASIZE PUSH1 0x0 REVERT JUMPDEST RETURNDATASIZE PUSH1 0x1 EQ ISZERO PC PUSH1 0xA ADD JUMPI PUSH1 0x1 PUSH1 0x0 RETURN JUMPDEST DUP1 MLOAD PUSH1 0x0 DUP3 MSTORE SWAP4 POP PUSH1 0x20 PUSH2 0x1716 JUMP INVALID MSIZE PUSH16 0x75206D757374206265206E6F6D696E61 PUSH21 0x6564206265666F726520796F752063616E20616363 PUSH6 0x7074206F776E PUSH6 0x72736869704F PUSH15 0x6C792074686520636F6E7472616374 KECCAK256 PUSH16 0x776E6572206D617920706572666F726D KECCAK256 PUSH21 0x68697320616374696F6E417070726F76616C286164 PUSH5 0x726573732C PUSH2 0x6464 PUSH19 0x6573732C75696E743235362900000000000000 "
		}
	}
}