{
	"abi": [
		{
			"inputs": [
				{
					"internalType": "address",
					"name": "owner",
					"type": "address"
				},
				{
					"internalType": "address",
					"name": "periodController",
					"type": "address"
				},
				{
					"internalType": "address",
					"name": "resolver",
					"type": "address"
				},
				{
					"internalType": "address",
					"name": "mockSynthetixToken",
					"type": "address"
				}
			],
			"payable": false,
			"stateMutability": "nonpayable",
			"type": "constructor"
		},
		{
			"anonymous": false,
			"inputs": [
				{
					"indexed": false,
					"internalType": "address",
					"name": "recoverAddress",
					"type": "address"
				},
				{
					"indexed": false,
					"internalType": "uint256",
					"name": "amount",
					"type": "uint256"
				},
				{
					"indexed": false,
					"internalType": "uint256",
					"name": "periodID",
					"type": "uint256"
				}
			],
			"name": "AssignedRewardTokensRecovered",
			"type": "event"
		},
		{
			"anonymous": false,
			"inputs": [
				{
					"indexed": false,
					"internalType": "address",
					"name": "recoverAddress",
					"type": "address"
				},
				{
					"indexed": false,
					"internalType": "uint256",
					"name": "amount",
					"type": "uint256"
				}
			],
			"name": "EtherRecovered",
			"type": "event"
		},
		{
			"anonymous": false,
			"inputs": [
				{
					"indexed": true,
					"internalType": "address",
					"name": "account",
					"type": "address"
				},
				{
					"indexed": false,
					"internalType": "uint256",
					"name": "amount",
					"type": "uint256"
				},
				{
					"indexed": false,
					"internalType": "uint256",
					"name": "periodID",
					"type": "uint256"
				}
			],
			"name": "ExchangeFeeRecorded",
			"type": "event"
		},
		{
			"anonymous": false,
			"inputs": [
				{
					"indexed": false,
					"internalType": "uint256",
					"name": "periodID",
					"type": "uint256"
				}
			],
			"name": "NewPeriodStarted",
			"type": "event"
		},
		{
			"anonymous": false,
			"inputs": [
				{
					"indexed": false,
					"internalType": "address",
					"name": "oldOwner",
					"type": "address"
				},
				{
					"indexed": false,
					"internalType": "address",
					"name": "newOwner",
					"type": "address"
				}
			],
			"name": "OwnerChanged",
			"type": "event"
		},
		{
			"anonymous": false,
			"inputs": [
				{
					"indexed": false,
					"internalType": "address",
					"name": "newOwner",
					"type": "address"
				}
			],
			"name": "OwnerNominated",
			"type": "event"
		},
		{
			"anonymous": false,
			"inputs": [
				{
					"indexed": false,
					"internalType": "bool",
					"name": "isPaused",
					"type": "bool"
				}
			],
			"name": "PauseChanged",
			"type": "event"
		},
		{
			"anonymous": false,
			"inputs": [
				{
					"indexed": false,
					"internalType": "address",
					"name": "newPeriodController",
					"type": "address"
				}
			],
			"name": "PeriodControllerChanged",
			"type": "event"
		},
		{
			"anonymous": false,
			"inputs": [
				{
					"indexed": false,
					"internalType": "uint256",
					"name": "periodID",
					"type": "uint256"
				},
				{
					"indexed": false,
					"internalType": "uint256",
					"name": "rewards",
					"type": "uint256"
				}
			],
			"name": "PeriodFinalizedWithRewards",
			"type": "event"
		},
		{
			"anonymous": false,
			"inputs": [
				{
					"indexed": true,
					"internalType": "address",
					"name": "account",
					"type": "address"
				},
				{
					"indexed": false,
					"internalType": "uint256",
					"name": "amount",
					"type": "uint256"
				},
				{
					"indexed": false,
					"internalType": "uint256",
					"name": "periodID",
					"type": "uint256"
				}
			],
			"name": "RewardsClaimed",
			"type": "event"
		},
		{
			"anonymous": false,
			"inputs": [
				{
					"indexed": false,
					"internalType": "address",
					"name": "tokenAddress",
					"type": "address"
				},
				{
					"indexed": false,
					"internalType": "address",
					"name": "recoverAddress",
					"type": "address"
				},
				{
					"indexed": false,
					"internalType": "uint256",
					"name": "amount",
					"type": "uint256"
				}
			],
			"name": "TokensRecovered",
			"type": "event"
		},
		{
			"anonymous": false,
			"inputs": [
				{
					"indexed": false,
					"internalType": "address",
					"name": "recoverAddress",
					"type": "address"
				},
				{
					"indexed": false,
					"internalType": "uint256",
					"name": "amount",
					"type": "uint256"
				}
			],
			"name": "UnassignedRewardTokensRecovered",
			"type": "event"
		},
		{
			"constant": true,
			"inputs": [],
			"name": "MAX_ADDRESSES_FROM_RESOLVER",
			"outputs": [
				{
					"internalType": "uint256",
					"name": "",
					"type": "uint256"
				}
			],
			"payable": false,
			"stateMutability": "view",
			"type": "function"
		},
		{
			"constant": true,
			"inputs": [],
			"name": "_mockSynthetixToken",
			"outputs": [
				{
					"internalType": "contract IERC20",
					"name": "",
					"type": "address"
				}
			],
			"payable": false,
			"stateMutability": "view",
			"type": "function"
		},
		{
			"constant": false,
			"inputs": [],
			"name": "acceptOwnership",
			"outputs": [],
			"payable": false,
			"stateMutability": "nonpayable",
			"type": "function"
		},
		{
			"constant": false,
			"inputs": [
				{
					"internalType": "uint256",
					"name": "periodID",
					"type": "uint256"
				}
			],
			"name": "claimRewardsForPeriod",
			"outputs": [],
			"payable": false,
			"stateMutability": "nonpayable",
			"type": "function"
		},
		{
			"constant": false,
			"inputs": [
				{
					"internalType": "uint256[]",
					"name": "periodIDs",
					"type": "uint256[]"
				}
			],
			"name": "claimRewardsForPeriods",
			"outputs": [],
			"payable": false,
			"stateMutability": "nonpayable",
			"type": "function"
		},
		{
			"constant": false,
			"inputs": [
				{
					"internalType": "uint256",
					"name": "rewards",
					"type": "uint256"
				}
			],
			"name": "closeCurrentPeriodWithRewards",
			"outputs": [],
			"payable": false,
			"stateMutability": "nonpayable",
			"type": "function"
		},
		{
			"constant": false,
			"inputs": [],
			"name": "ethBackdoor",
			"outputs": [],
			"payable": true,
			"stateMutability": "payable",
			"type": "function"
		},
		{
			"constant": true,
			"inputs": [],
			"name": "getAvailableRewards",
			"outputs": [
				{
					"internalType": "uint256",
					"name": "",
					"type": "uint256"
				}
			],
			"payable": false,
			"stateMutability": "view",
			"type": "function"
		},
		{
			"constant": true,
			"inputs": [
				{
					"internalType": "address",
					"name": "account",
					"type": "address"
				},
				{
					"internalType": "uint256",
					"name": "periodID",
					"type": "uint256"
				}
			],
			"name": "getAvailableRewardsForAccountForPeriod",
			"outputs": [
				{
					"internalType": "uint256",
					"name": "",
					"type": "uint256"
				}
			],
			"payable": false,
			"stateMutability": "view",
			"type": "function"
		},
		{
			"constant": true,
			"inputs": [
				{
					"internalType": "address",
					"name": "account",
					"type": "address"
				},
				{
					"internalType": "uint256[]",
					"name": "periodIDs",
					"type": "uint256[]"
				}
			],
			"name": "getAvailableRewardsForAccountForPeriods",
			"outputs": [
				{
					"internalType": "uint256",
					"name": "totalRewards",
					"type": "uint256"
				}
			],
			"payable": false,
			"stateMutability": "view",
			"type": "function"
		},
		{
			"constant": true,
			"inputs": [],
			"name": "getCurrentPeriod",
			"outputs": [
				{
					"internalType": "uint256",
					"name": "",
					"type": "uint256"
				}
			],
			"payable": false,
			"stateMutability": "view",
			"type": "function"
		},
		{
			"constant": true,
			"inputs": [
				{
					"internalType": "uint256",
					"name": "periodID",
					"type": "uint256"
				}
			],
			"name": "getPeriodAvailableRewards",
			"outputs": [
				{
					"internalType": "uint256",
					"name": "",
					"type": "uint256"
				}
			],
			"payable": false,
			"stateMutability": "view",
			"type": "function"
		},
		{
			"constant": true,
			"inputs": [],
			"name": "getPeriodController",
			"outputs": [
				{
					"internalType": "address",
					"name": "",
					"type": "address"
				}
			],
			"payable": false,
			"stateMutability": "view",
			"type": "function"
		},
		{
			"constant": true,
			"inputs": [
				{
					"internalType": "uint256",
					"name": "periodID",
					"type": "uint256"
				}
			],
			"name": "getPeriodIsClaimable",
			"outputs": [
				{
					"internalType": "bool",
					"name": "",
					"type": "bool"
				}
			],
			"payable": false,
			"stateMutability": "view",
			"type": "function"
		},
		{
			"constant": true,
			"inputs": [
				{
					"internalType": "uint256",
					"name": "periodID",
					"type": "uint256"
				}
			],
			"name": "getPeriodIsFinalized",
			"outputs": [
				{
					"internalType": "bool",
					"name": "",
					"type": "bool"
				}
			],
			"payable": false,
			"stateMutability": "view",
			"type": "function"
		},
		{
			"constant": true,
			"inputs": [
				{
					"internalType": "uint256",
					"name": "periodID",
					"type": "uint256"
				}
			],
			"name": "getPeriodRecordedFees",
			"outputs": [
				{
					"internalType": "uint256",
					"name": "",
					"type": "uint256"
				}
			],
			"payable": false,
			"stateMutability": "view",
			"type": "function"
		},
		{
			"constant": true,
			"inputs": [
				{
					"internalType": "uint256",
					"name": "periodID",
					"type": "uint256"
				}
			],
			"name": "getPeriodTotalRewards",
			"outputs": [
				{
					"internalType": "uint256",
					"name": "",
					"type": "uint256"
				}
			],
			"payable": false,
			"stateMutability": "view",
			"type": "function"
		},
		{
			"constant": true,
			"inputs": [],
			"name": "getResolverAddressesRequired",
			"outputs": [
				{
					"internalType": "bytes32[24]",
					"name": "addressesRequired",
					"type": "bytes32[24]"
				}
			],
			"payable": false,
			"stateMutability": "view",
			"type": "function"
		},
		{
			"constant": true,
			"inputs": [],
			"name": "getRewardsToken",
			"outputs": [
				{
					"internalType": "address",
					"name": "",
					"type": "address"
				}
			],
			"payable": false,
			"stateMutability": "view",
			"type": "function"
		},
		{
			"constant": true,
			"inputs": [
				{
					"internalType": "address",
					"name": "account",
					"type": "address"
				},
				{
					"internalType": "uint256",
					"name": "periodID",
					"type": "uint256"
				}
			],
			"name": "getUnaccountedFeesForAccountForPeriod",
			"outputs": [
				{
					"internalType": "uint256",
					"name": "",
					"type": "uint256"
				}
			],
			"payable": false,
			"stateMutability": "view",
			"type": "function"
		},
		{
			"constant": true,
			"inputs": [],
			"name": "getUnassignedRewards",
			"outputs": [
				{
					"internalType": "uint256",
					"name": "",
					"type": "uint256"
				}
			],
			"payable": false,
			"stateMutability": "view",
			"type": "function"
		},
		{
			"constant": true,
			"inputs": [
				{
					"internalType": "contract AddressResolver",
					"name": "_resolver",
					"type": "address"
				}
			],
			"name": "isResolverCached",
			"outputs": [
				{
					"internalType": "bool",
					"name": "",
					"type": "bool"
				}
			],
			"payable": false,
			"stateMutability": "view",
			"type": "function"
		},
		{
			"constant": true,
			"inputs": [],
			"name": "lastPauseTime",
			"outputs": [
				{
					"internalType": "uint256",
					"name": "",
					"type": "uint256"
				}
			],
			"payable": false,
			"stateMutability": "view",
			"type": "function"
		},
		{
			"constant": false,
			"inputs": [
				{
					"internalType": "address",
					"name": "_owner",
					"type": "address"
				}
			],
			"name": "nominateNewOwner",
			"outputs": [],
			"payable": false,
			"stateMutability": "nonpayable",
			"type": "function"
		},
		{
			"constant": true,
			"inputs": [],
			"name": "nominatedOwner",
			"outputs": [
				{
					"internalType": "address",
					"name": "",
					"type": "address"
				}
			],
			"payable": false,
			"stateMutability": "view",
			"type": "function"
		},
		{
			"constant": true,
			"inputs": [],
			"name": "owner",
			"outputs": [
				{
					"internalType": "address",
					"name": "",
					"type": "address"
				}
			],
			"payable": false,
			"stateMutability": "view",
			"type": "function"
		},
		{
			"constant": true,
			"inputs": [],
			"name": "paused",
			"outputs": [
				{
					"internalType": "bool",
					"name": "",
					"type": "bool"
				}
			],
			"payable": false,
			"stateMutability": "view",
			"type": "function"
		},
		{
			"constant": false,
			"inputs": [
				{
					"internalType": "uint256",
					"name": "usdFeeAmount",
					"type": "uint256"
				},
				{
					"internalType": "address",
					"name": "account",
					"type": "address"
				}
			],
			"name": "recordExchangeFeeForAccount",
			"outputs": [],
			"payable": false,
			"stateMutability": "nonpayable",
			"type": "function"
		},
		{
			"constant": false,
			"inputs": [
				{
					"internalType": "address",
					"name": "recoverAddress",
					"type": "address"
				},
				{
					"internalType": "uint256",
					"name": "periodID",
					"type": "uint256"
				}
			],
			"name": "recoverAssignedRewardTokensAndDestroyPeriod",
			"outputs": [],
			"payable": false,
			"stateMutability": "nonpayable",
			"type": "function"
		},
		{
			"constant": false,
			"inputs": [
				{
					"internalType": "address payable",
					"name": "recoverAddress",
					"type": "address"
				}
			],
			"name": "recoverEther",
			"outputs": [],
			"payable": false,
			"stateMutability": "nonpayable",
			"type": "function"
		},
		{
			"constant": false,
			"inputs": [
				{
					"internalType": "address",
					"name": "tokenAddress",
					"type": "address"
				},
				{
					"internalType": "address",
					"name": "recoverAddress",
					"type": "address"
				}
			],
			"name": "recoverTokens",
			"outputs": [],
			"payable": false,
			"stateMutability": "nonpayable",
			"type": "function"
		},
		{
			"constant": false,
			"inputs": [
				{
					"internalType": "address",
					"name": "recoverAddress",
					"type": "address"
				}
			],
			"name": "recoverUnassignedRewardTokens",
			"outputs": [],
			"payable": false,
			"stateMutability": "nonpayable",
			"type": "function"
		},
		{
			"constant": true,
			"inputs": [],
			"name": "resolver",
			"outputs": [
				{
					"internalType": "contract AddressResolver",
					"name": "",
					"type": "address"
				}
			],
			"payable": false,
			"stateMutability": "view",
			"type": "function"
		},
		{
			"constant": true,
			"inputs": [
				{
					"internalType": "uint256",
					"name": "",
					"type": "uint256"
				}
			],
			"name": "resolverAddressesRequired",
			"outputs": [
				{
					"internalType": "bytes32",
					"name": "",
					"type": "bytes32"
				}
			],
			"payable": false,
			"stateMutability": "view",
			"type": "function"
		},
		{
			"constant": false,
			"inputs": [
				{
					"internalType": "bool",
					"name": "_paused",
					"type": "bool"
				}
			],
			"name": "setPaused",
			"outputs": [],
			"payable": false,
			"stateMutability": "nonpayable",
			"type": "function"
		},
		{
			"constant": false,
			"inputs": [
				{
					"internalType": "address",
					"name": "newPeriodController",
					"type": "address"
				}
			],
			"name": "setPeriodController",
			"outputs": [],
			"payable": false,
			"stateMutability": "nonpayable",
			"type": "function"
		},
		{
			"constant": false,
			"inputs": [
				{
					"internalType": "contract AddressResolver",
					"name": "_resolver",
					"type": "address"
				}
			],
			"name": "setResolverAndSyncCache",
			"outputs": [],
			"payable": false,
			"stateMutability": "nonpayable",
			"type": "function"
		}
	],
	"evm": {
		"bytecode": {
			"linkReferences": {},
			"object": "60c06040526822bc31b430b733b2b960b91b6080908152680a6f2dce8d0cae8d2f60bb1b60a0526200003690600b90600262000336565b503480156200004457600080fd5b506040516200256238038062002562833981810160405260808110156200006a57600080fd5b508051602082015160408084015160609094015181516103008101928390529394929390918591859185918291600b9060189082845b815481526020019060010190808311620000a0575050600160005550869150506001600160a01b0381166200011c576040805162461bcd60e51b815260206004820152601960248201527f4f776e657220616464726573732063616e6e6f74206265203000000000000000604482015290519081900360640190fd5b600180546001600160a01b0319166001600160a01b0383169081179091556040805160008152602081019290925280517fb532073b38c83145e3e5135377a08bf9aab55bc0fd7c1179cd4fb995d2a5159c9281900390910190a1506001546001600160a01b0316620001c9576040805162461bcd60e51b815260206004820152601160248201527013dddb995c881b5d5cdd081899481cd95d607a1b604482015290519081900360640190fd5b6001546001600160a01b03166200021b576040805162461bcd60e51b815260206004820152601160248201527013dddb995c881b5d5cdd081899481cd95d607a1b604482015290519081900360640190fd5b60005b6018811015620002835760008282601881106200023757fe5b602002015114620002745760068282601881106200025157fe5b60209081029190910151825460018101845560009384529190922001556200027a565b62000283565b6001016200021e565b505060048054610100600160a81b0319166101006001600160a01b03938416021790558216620002fa576040805162461bcd60e51b815260206004820152601960248201527f496e76616c696420706572696f6420636f6e74726f6c6c657200000000000000604482015290519081900360640190fd5b50600a80546001600160a01b039283166001600160a01b0319918216179091556023805494909216931692909217909155506200039992505050565b826018810192821562000367579160200282015b82811115620003675782518255916020019190600101906200034a565b506200037592915062000379565b5090565b6200039691905b8082111562000375576000815560010162000380565b90565b6121b980620003a96000396000f3fe60806040526004361061021a5760003560e01c8063706848d211610123578063c6c9d828116100ab578063f32ffd691161006f578063f32ffd691461070a578063f61aa3ae14610787578063f61f5df61461079c578063f6b58479146107d5578063fc9c99ac146108625761021a565b8063c6c9d8281461067d578063ccb6e0431461033d578063ce7fccba146106a7578063dea021a5146106e0578063e3235c91146106f55761021a565b8063937ffb8f116100f2578063937ffb8f1461058d5780639865fdb7146105b7578063ab49848c146105cc578063ae934a7a1461061a578063b225dbaa146106535761021a565b8063706848d21461052457806379ba50971461054e5780638da5cb5b1461056357806391b4ded9146105785761021a565b80633be99e6f116101a657806355aa41bf1161017557806355aa41bf146104955780635ac8fa64146104bf5780635c975abb146104c7578063631e1444146104dc5780636fe4136b1461050f5761021a565b80633be99e6f146103e75780633dbf12fa1461041a57806352d5999f1461044d57806353a47bb7146104805761021a565b806316841952116101ed57806316841952146102e757806316c38b3c14610311578063175c51891461033d57806321cad7741461037b57806338dfa8cf146103b45761021a565b806304f3bcec1461021f578063056097ac14610250578063086146d21461028d5780631627540c146102b4575b600080fd5b34801561022b57600080fd5b50610234610877565b604080516001600160a01b039092168252519081900360200190f35b34801561025c57600080fd5b5061028b6004803603604081101561027357600080fd5b506001600160a01b038135811691602001351661088b565b005b34801561029957600080fd5b506102a2610a36565b60408051918252519081900360200190f35b3480156102c057600080fd5b5061028b600480360360208110156102d757600080fd5b50356001600160a01b0316610a3c565b3480156102f357600080fd5b5061028b6004803603602081101561030a57600080fd5b5035610a98565b34801561031d57600080fd5b5061028b6004803603602081101561033457600080fd5b50351515610cc1565b34801561034957600080fd5b506103676004803603602081101561036057600080fd5b5035610d3b565b604080519115158252519081900360200190f35b34801561038757600080fd5b5061028b6004803603604081101561039e57600080fd5b50803590602001356001600160a01b0316610d53565b3480156103c057600080fd5b5061028b600480360360208110156103d757600080fd5b50356001600160a01b0316610e7d565b3480156103f357600080fd5b5061028b6004803603602081101561040a57600080fd5b50356001600160a01b0316611035565b34801561042657600080fd5b5061028b6004803603602081101561043d57600080fd5b50356001600160a01b0316611169565b34801561045957600080fd5b5061028b6004803603602081101561047057600080fd5b50356001600160a01b0316611220565b34801561048c57600080fd5b506102346112b2565b3480156104a157600080fd5b506102a2600480360360208110156104b857600080fd5b50356112c1565b61028b6112d6565b3480156104d357600080fd5b506103676112d8565b3480156104e857600080fd5b50610367600480360360208110156104ff57600080fd5b50356001600160a01b03166112e1565b34801561051b57600080fd5b50610234611407565b34801561053057600080fd5b506102a26004803603602081101561054757600080fd5b5035611416565b34801561055a57600080fd5b5061028b61142b565b34801561056f57600080fd5b506102346114e7565b34801561058457600080fd5b506102a26114f6565b34801561059957600080fd5b506102a2600480360360208110156105b057600080fd5b50356114fc565b3480156105c357600080fd5b506102a2611511565b3480156105d857600080fd5b506105e16115ae565b604051808261030080838360005b838110156106075781810151838201526020016105ef565b5050505090500191505060405180910390f35b34801561062657600080fd5b5061028b6004803603604081101561063d57600080fd5b506001600160a01b0381351690602001356115f8565b34801561065f57600080fd5b5061028b6004803603602081101561067657600080fd5b5035611765565b34801561068957600080fd5b506102a2600480360360208110156106a057600080fd5b5035611812565b3480156106b357600080fd5b506102a2600480360360408110156106ca57600080fd5b506001600160a01b038135169060200135611830565b3480156106ec57600080fd5b50610234611845565b34801561070157600080fd5b506102a2611854565b34801561071657600080fd5b5061028b6004803603602081101561072d57600080fd5b81019060208101813564010000000081111561074857600080fd5b82018360208201111561075a57600080fd5b8035906020019184602083028401116401000000008311171561077c57600080fd5b509092509050611859565b34801561079357600080fd5b50610234611937565b3480156107a857600080fd5b506102a2600480360360408110156107bf57600080fd5b506001600160a01b038135169060200135611946565b3480156107e157600080fd5b506102a2600480360360408110156107f857600080fd5b6001600160a01b03823516919081019060408101602082013564010000000081111561082357600080fd5b82018360208201111561083557600080fd5b8035906020019184602083028401116401000000008311171561085757600080fd5b509092509050611971565b34801561086e57600080fd5b506102a26119c1565b60045461010090046001600160a01b031681565b6108936119c7565b61089c81611a10565b6108a4611a80565b6001600160a01b0316826001600160a01b0316141561090a576040805162461bcd60e51b815260206004820152601960248201527f4d7573742075736520616e6f746865722066756e6374696f6e00000000000000604482015290519081900360640190fd5b604080516370a0823160e01b8152306004820152905183916000916001600160a01b038416916370a08231916024808301926020929190829003018186803b15801561095557600080fd5b505afa158015610969573d6000803e3d6000fd5b505050506040513d602081101561097f57600080fd5b50519050806109cc576040805162461bcd60e51b81526020600482015260146024820152732737903a37b5b2b739903a37903932b1b7bb32b960611b604482015290519081900360640190fd5b6109e66001600160a01b038316848363ffffffff611a8f16565b604080516001600160a01b0380871682528516602082015280820183905290517f401f439d865a766757ec78675925bd67198d5e78805aa41691b34b5d6a6cbbe69181900360600190a150505050565b60075490565b610a446119c7565b600280546001600160a01b0383166001600160a01b0319909116811790915560408051918252517f906a1c6bd7e3091ea86693dd029a831c19049ce77f1dce2ce0bab1cacbabce229181900360200190a150565b600a546001600160a01b03163314610af7576040805162461bcd60e51b815260206004820152601c60248201527f43616c6c6572206e6f7420706572696f6420636f6e74726f6c6c657200000000604482015290519081900360640190fd5b6000610b01611a80565b6001600160a01b03166370a08231306040518263ffffffff1660e01b815260040180826001600160a01b03166001600160a01b0316815260200191505060206040518083038186803b158015610b5657600080fd5b505afa158015610b6a573d6000803e3d6000fd5b505050506040513d6020811015610b8057600080fd5b5051600854909150600090610b9c90839063ffffffff611ae116565b905080831115610bf3576040805162461bcd60e51b815260206004820152601960248201527f496e73756666696369656e742066726565207265776172647300000000000000604482015290519081900360640190fd5b60075460009081526009602052604090206002810184905560038101849055805460ff19166001178155600854610c30908563ffffffff611b3e16565b600855600754604080519182526020820186905280517ffa0492b63d7120c62ccb8708eb597813e6968a23d09adac98d54dd0085cb264f9281900390910190a1600754610c8490600163ffffffff611b3e16565b600781905560408051918252517f4368a9298adc0e57eceb11d0ef07022051a2feb5985d832be0764cde9a2307329181900360200190a150505050565b610cc96119c7565b60045460ff1615158115151415610cdf57610d38565b6004805460ff1916821515179081905560ff1615610cfc57426003555b6004546040805160ff90921615158252517f8fb6c181ee25a520cf3dd6565006ef91229fcfe5a989566c2a3b8c115570cec59181900360200190a15b50565b60008181526009602052604090205460ff165b919050565b610d5b611b98565b6001600160a01b0316336001600160a01b031614610dc0576040805162461bcd60e51b815260206004820152601e60248201527f4f6e6c792045786368616e6765722063616e20696e766f6b6520746869730000604482015290519081900360640190fd5b60075460009081526009602090815260408083206001600160a01b03851684526004810190925290912054610dfb908463ffffffff611b3e16565b6001600160a01b03831660009081526004830160205260409020556001810154610e2b908463ffffffff611b3e16565b600182015560075460408051858152602081019290925280516001600160a01b038516927f927be3e95451b16be3f4586524834dfffa10e6f9ee4c1e26fe3c46140fbbf86692908290030190a2505050565b610e856119c7565b610e8e81611a10565b6000610e98611a80565b6001600160a01b03166370a08231306040518263ffffffff1660e01b815260040180826001600160a01b03166001600160a01b0316815260200191505060206040518083038186803b158015610eed57600080fd5b505afa158015610f01573d6000803e3d6000fd5b505050506040513d6020811015610f1757600080fd5b5051905080610f64576040805162461bcd60e51b81526020600482015260146024820152732737903a37b5b2b739903a37903932b1b7bb32b960611b604482015290519081900360640190fd5b6000610f7b60085483611ae190919063ffffffff16565b905060008111610fc9576040805162461bcd60e51b81526020600482015260146024820152732737903a37b5b2b739903a37903932b1b7bb32b960611b604482015290519081900360640190fd5b610fec8382610fd6611a80565b6001600160a01b0316919063ffffffff611a8f16565b604080516001600160a01b03851681526020810183905281517f14e7312259d4851b8b6742ace55ac44b31d7929a6b2998b35ba22445859e5ee3929181900390910190a1505050565b61103d6119c7565b60048054610100600160a81b0319166101006001600160a01b0384160217905560005b6006548110156111655760006006828154811061107957fe5b60009182526020918290200154600480546040805163dacb2d0160e01b815292830184905260248301819052601760448401527f5265736f6c766572206d697373696e672074617267657400000000000000000060648401525192945061010090046001600160a01b03169263dacb2d0192608480840193829003018186803b15801561110557600080fd5b505afa158015611119573d6000803e3d6000fd5b505050506040513d602081101561112f57600080fd5b505160009182526005602052604090912080546001600160a01b0319166001600160a01b03909216919091179055600101611060565b5050565b6111716119c7565b6001600160a01b0381166111cc576040805162461bcd60e51b815260206004820152601960248201527f496e76616c696420706572696f6420636f6e74726f6c6c657200000000000000604482015290519081900360640190fd5b600a80546001600160a01b0383166001600160a01b0319909116811790915560408051918252517fb81e5409e39d3d3d85951a2af3563e484cfe2e7b4af2500a0ecbe14035a9bddc9181900360200190a150565b6112286119c7565b61123181611a10565b60405147906001600160a01b0383169082156108fc029083906000818181858888f19350505050158015611269573d6000803e3d6000fd5b50604080516001600160a01b03841681526020810183905281517f8e274e42262a7f013b700b35c2b4629ccce1702f8fe83f8dfb7eacbb26a4382c929181900390910190a15050565b6002546001600160a01b031681565b60009081526009602052604090206001015490565b565b60045460ff1681565b6004546000906001600160a01b03838116610100909204161461130657506000610d4e565b60005b6006548110156113fe5760006006828154811061132257fe5b600091825260208083209091015480835260058252604092839020546004805485516321f8a72160e01b815291820184905294519295506001600160a01b03918216946101009004909116926321f8a72192602480840193829003018186803b15801561138e57600080fd5b505afa1580156113a2573d6000803e3d6000fd5b505050506040513d60208110156113b857600080fd5b50516001600160a01b03161415806113e557506000818152600560205260409020546001600160a01b0316155b156113f557600092505050610d4e565b50600101611309565b50600192915050565b6000611411611a80565b905090565b60009081526009602052604090206003015490565b6002546001600160a01b031633146114745760405162461bcd60e51b815260040180806020018281038252603581526020018061209a6035913960400191505060405180910390fd5b600154600254604080516001600160a01b03938416815292909116602083015280517fb532073b38c83145e3e5135377a08bf9aab55bc0fd7c1179cd4fb995d2a5159c9281900390910190a160028054600180546001600160a01b03199081166001600160a01b03841617909155169055565b6001546001600160a01b031681565b60035481565b60009081526009602052604090206002015490565b6000611411600854611521611a80565b6001600160a01b03166370a08231306040518263ffffffff1660e01b815260040180826001600160a01b03166001600160a01b0316815260200191505060206040518083038186803b15801561157657600080fd5b505afa15801561158a573d6000803e3d6000fd5b505050506040513d60208110156115a057600080fd5b50519063ffffffff611ae116565b6115b661207a565b60005b6006548110156115f457600681815481106115d057fe5b90600052602060002001548282601881106115e757fe5b60200201526001016115b9565b5090565b6116006119c7565b61160982611a10565b600754811061165f576040805162461bcd60e51b815260206004820152601a60248201527f43616e6e6f74207265636f7665722066726f6d20616374697665000000000000604482015290519081900360640190fd5b600081815260096020526040902060038101546116c3576040805162461bcd60e51b815260206004820152601f60248201527f4e6f207265776172647320617661696c61626c6520746f207265636f76657200604482015290519081900360640190fd5b60038101546116d58482610fd6611a80565b6008546116e8908263ffffffff611ae116565b6008556000838152600960209081526040808320805460ff1916815560018101849055600281018490556003019290925581516001600160a01b038716815290810183905280820185905290517f60f2caebb6d06055322fce1f0db429f6bc0a48534c8c9ba42359a80f36bb7f0c9181900360600190a150505050565b600080546001019081905560045460ff16156117b25760405162461bcd60e51b815260040180806020018281038252603c81526020018061211f603c913960400191505060405180910390fd5b6117bc3383611b9c565b6000548114611165576040805162461bcd60e51b815260206004820152601f60248201527f5265656e7472616e637947756172643a207265656e7472616e742063616c6c00604482015290519081900360640190fd5b6006818154811061181f57fe5b600091825260209091200154905081565b600061183c8383611cfb565b90505b92915050565b600a546001600160a01b031690565b601881565b600080546001019081905560045460ff16156118a65760405162461bcd60e51b815260040180806020018281038252603c81526020018061211f603c913960400191505060405180910390fd5b60005b828110156118db5760008484838181106118bf57fe5b9050602002013590506118d23382611b9c565b506001016118a9565b506000548114611932576040805162461bcd60e51b815260206004820152601f60248201527f5265656e7472616e637947756172643a207265656e7472616e742063616c6c00604482015290519081900360640190fd5b505050565b6023546001600160a01b031681565b60009081526009602090815260408083206001600160a01b0394909416835260049093019052205490565b6000805b828110156119b957600084848381811061198b57fe5b9050602002013590506119ae6119a18783611cfb565b849063ffffffff611b3e16565b925050600101611975565b509392505050565b60085490565b6001546001600160a01b031633146112d65760405162461bcd60e51b815260040180806020018281038252602f8152602001806120cf602f913960400191505060405180910390fd5b6001600160a01b0381161580611a2e57506001600160a01b03811630145b15610d38576040805162461bcd60e51b815260206004820152601760248201527f496e76616c6964207265636f7665722061646472657373000000000000000000604482015290519081900360640190fd5b6023546001600160a01b031690565b604080516001600160a01b038416602482015260448082018490528251808303909101815260649091019091526020810180516001600160e01b031663a9059cbb60e01b179052611932908490611d9f565b600082821115611b38576040805162461bcd60e51b815260206004820152601e60248201527f536166654d6174683a207375627472616374696f6e206f766572666c6f770000604482015290519081900360640190fd5b50900390565b60008282018381101561183c576040805162461bcd60e51b815260206004820152601b60248201527f536166654d6174683a206164646974696f6e206f766572666c6f770000000000604482015290519081900360640190fd5b3390565b6000818152600960205260409020805460ff16611c00576040805162461bcd60e51b815260206004820152601760248201527f506572696f64206973206e6f742066696e616c697a6564000000000000000000604482015290519081900360640190fd5b6000611c0c8484611cfb565b905060008111611c5a576040805162461bcd60e51b81526020600482015260146024820152734e6f207265776172647320617661696c61626c6560601b604482015290519081900360640190fd5b6001600160a01b03841660009081526004830160205260408120556003820154611c8a908263ffffffff611ae116565b6003830155600854611ca2908263ffffffff611ae116565b600855611cb28482610fd6611a80565b604080518281526020810185905281516001600160a01b038716927fdacbdde355ba930696a362ea6738feb9f8bd52dfb3d81947558fd3217e23e325928290030190a250505050565b600081815260096020526040812060038101541580611d1c57506001810154155b80611d295750805460ff16155b15611d3857600091505061183f565b6001600160a01b038416600090815260048201602052604090205480611d635760009250505061183f565b6000611d7c836001015483611f5d90919063ffffffff16565b9050611d95836002015482611f8790919063ffffffff16565b9695505050505050565b611db1826001600160a01b0316611fb1565b611e02576040805162461bcd60e51b815260206004820152601f60248201527f5361666545524332303a2063616c6c20746f206e6f6e2d636f6e747261637400604482015290519081900360640190fd5b60006060836001600160a01b0316836040518082805190602001908083835b60208310611e405780518252601f199092019160209182019101611e21565b6001836020036101000a0380198251168184511680821785525050505050509050019150506000604051808303816000865af19150503d8060008114611ea2576040519150601f19603f3d011682016040523d82523d6000602084013e611ea7565b606091505b509150915081611efe576040805162461bcd60e51b815260206004820181905260248201527f5361666545524332303a206c6f772d6c6576656c2063616c6c206661696c6564604482015290519081900360640190fd5b805115611f5757808060200190516020811015611f1a57600080fd5b5051611f575760405162461bcd60e51b815260040180806020018281038252602a81526020018061215b602a913960400191505060405180910390fd5b50505050565b600061183c82611f7b85670de0b6b3a764000063ffffffff611fb716565b9063ffffffff61201016565b6000670de0b6b3a7640000611fa2848463ffffffff611fb716565b81611fa957fe5b049392505050565b3b151590565b600082611fc65750600061183f565b82820282848281611fd357fe5b041461183c5760405162461bcd60e51b81526004018080602001828103825260218152602001806120fe6021913960400191505060405180910390fd5b6000808211612066576040805162461bcd60e51b815260206004820152601a60248201527f536166654d6174683a206469766973696f6e206279207a65726f000000000000604482015290519081900360640190fd5b600082848161207157fe5b04949350505050565b604051806103000160405280601890602082028038833950919291505056fe596f75206d757374206265206e6f6d696e61746564206265666f726520796f752063616e20616363657074206f776e6572736869704f6e6c792074686520636f6e7472616374206f776e6572206d617920706572666f726d207468697320616374696f6e536166654d6174683a206d756c7469706c69636174696f6e206f766572666c6f775468697320616374696f6e2063616e6e6f7420626520706572666f726d6564207768696c652074686520636f6e7472616374206973207061757365645361666545524332303a204552433230206f7065726174696f6e20646964206e6f742073756363656564a265627a7a7231582094812a40ce5529a5ddb8903a804a1e8766e7e7d8671f0b843026dabff400767264736f6c63430005100032",
			"opcodes": "PUSH1 0xC0 PUSH1 0x40 MSTORE PUSH9 0x22BC31B430B733B2B9 PUSH1 0xB9 SHL PUSH1 0x80 SWAP1 DUP2 MSTORE PUSH9 0xA6F2DCE8D0CAE8D2F PUSH1 0xBB SHL PUSH1 0xA0 MSTORE PUSH3 0x36 SWAP1 PUSH1 0xB SWAP1 PUSH1 0x2 PUSH3 0x336 JUMP JUMPDEST POP CALLVALUE DUP1 ISZERO PUSH3 0x44 JUMPI PUSH1 0x0 DUP1 REVERT JUMPDEST POP PUSH1 0x40 MLOAD PUSH3 0x2562 CODESIZE SUB DUP1 PUSH3 0x2562 DUP4 CODECOPY DUP2 DUP2 ADD PUSH1 0x40 MSTORE PUSH1 0x80 DUP2 LT ISZERO PUSH3 0x6A JUMPI PUSH1 0x0 DUP1 REVERT JUMPDEST POP DUP1 MLOAD PUSH1 0x20 DUP3 ADD MLOAD PUSH1 0x40 DUP1 DUP5 ADD MLOAD PUSH1 0x60 SWAP1 SWAP5 ADD MLOAD DUP2 MLOAD PUSH2 0x300 DUP2 ADD SWAP3 DUP4 SWAP1 MSTORE SWAP4 SWAP5 SWAP3 SWAP4 SWAP1 SWAP2 DUP6 SWAP2 DUP6 SWAP2 DUP6 SWAP2 DUP3 SWAP2 PUSH1 0xB SWAP1 PUSH1 0x18 SWAP1 DUP3 DUP5 JUMPDEST DUP2 SLOAD DUP2 MSTORE PUSH1 0x20 ADD SWAP1 PUSH1 0x1 ADD SWAP1 DUP1 DUP4 GT PUSH3 0xA0 JUMPI POP POP PUSH1 0x1 PUSH1 0x0 SSTORE POP DUP7 SWAP2 POP POP PUSH1 0x1 PUSH1 0x1 PUSH1 0xA0 SHL SUB DUP2 AND PUSH3 0x11C JUMPI PUSH1 0x40 DUP1 MLOAD PUSH3 0x461BCD PUSH1 0xE5 SHL DUP2 MSTORE PUSH1 0x20 PUSH1 0x4 DUP3 ADD MSTORE PUSH1 0x19 PUSH1 0x24 DUP3 ADD MSTORE PUSH32 0x4F776E657220616464726573732063616E6E6F74206265203000000000000000 PUSH1 0x44 DUP3 ADD MSTORE SWAP1 MLOAD SWAP1 DUP2 SWAP1 SUB PUSH1 0x64 ADD SWAP1 REVERT JUMPDEST PUSH1 0x1 DUP1 SLOAD PUSH1 0x1 PUSH1 0x1 PUSH1 0xA0 SHL SUB NOT AND PUSH1 0x1 PUSH1 0x1 PUSH1 0xA0 SHL SUB DUP4 AND SWAP1 DUP2 OR SWAP1 SWAP2 SSTORE PUSH1 0x40 DUP1 MLOAD PUSH1 0x0 DUP2 MSTORE PUSH1 0x20 DUP2 ADD SWAP3 SWAP1 SWAP3 MSTORE DUP1 MLOAD PUSH32 0xB532073B38C83145E3E5135377A08BF9AAB55BC0FD7C1179CD4FB995D2A5159C SWAP3 DUP2 SWAP1 SUB SWAP1 SWAP2 ADD SWAP1 LOG1 POP PUSH1 0x1 SLOAD PUSH1 0x1 PUSH1 0x1 PUSH1 0xA0 SHL SUB AND PUSH3 0x1C9 JUMPI PUSH1 0x40 DUP1 MLOAD PUSH3 0x461BCD PUSH1 0xE5 SHL DUP2 MSTORE PUSH1 0x20 PUSH1 0x4 DUP3 ADD MSTORE PUSH1 0x11 PUSH1 0x24 DUP3 ADD MSTORE PUSH17 0x13DDDB995C881B5D5CDD081899481CD95D PUSH1 0x7A SHL PUSH1 0x44 DUP3 ADD MSTORE SWAP1 MLOAD SWAP1 DUP2 SWAP1 SUB PUSH1 0x64 ADD SWAP1 REVERT JUMPDEST PUSH1 0x1 SLOAD PUSH1 0x1 PUSH1 0x1 PUSH1 0xA0 SHL SUB AND PUSH3 0x21B JUMPI PUSH1 0x40 DUP1 MLOAD PUSH3 0x461BCD PUSH1 0xE5 SHL DUP2 MSTORE PUSH1 0x20 PUSH1 0x4 DUP3 ADD MSTORE PUSH1 0x11 PUSH1 0x24 DUP3 ADD MSTORE PUSH17 0x13DDDB995C881B5D5CDD081899481CD95D PUSH1 0x7A SHL PUSH1 0x44 DUP3 ADD MSTORE SWAP1 MLOAD SWAP1 DUP2 SWAP1 SUB PUSH1 0x64 ADD SWAP1 REVERT JUMPDEST PUSH1 0x0 JUMPDEST PUSH1 0x18 DUP2 LT ISZERO PUSH3 0x283 JUMPI PUSH1 0x0 DUP3 DUP3 PUSH1 0x18 DUP2 LT PUSH3 0x237 JUMPI INVALID JUMPDEST PUSH1 0x20 MUL ADD MLOAD EQ PUSH3 0x274 JUMPI PUSH1 0x6 DUP3 DUP3 PUSH1 0x18 DUP2 LT PUSH3 0x251 JUMPI INVALID JUMPDEST PUSH1 0x20 SWAP1 DUP2 MUL SWAP2 SWAP1 SWAP2 ADD MLOAD DUP3 SLOAD PUSH1 0x1 DUP2 ADD DUP5 SSTORE PUSH1 0x0 SWAP4 DUP5 MSTORE SWAP2 SWAP1 SWAP3 KECCAK256 ADD SSTORE PUSH3 0x27A JUMP JUMPDEST PUSH3 0x283 JUMP JUMPDEST PUSH1 0x1 ADD PUSH3 0x21E JUMP JUMPDEST POP POP PUSH1 0x4 DUP1 SLOAD PUSH2 0x100 PUSH1 0x1 PUSH1 0xA8 SHL SUB NOT AND PUSH2 0x100 PUSH1 0x1 PUSH1 0x1 PUSH1 0xA0 SHL SUB SWAP4 DUP5 AND MUL OR SWAP1 SSTORE DUP3 AND PUSH3 0x2FA JUMPI PUSH1 0x40 DUP1 MLOAD PUSH3 0x461BCD PUSH1 0xE5 SHL DUP2 MSTORE PUSH1 0x20 PUSH1 0x4 DUP3 ADD MSTORE PUSH1 0x19 PUSH1 0x24 DUP3 ADD MSTORE PUSH32 0x496E76616C696420706572696F6420636F6E74726F6C6C657200000000000000 PUSH1 0x44 DUP3 ADD MSTORE SWAP1 MLOAD SWAP1 DUP2 SWAP1 SUB PUSH1 0x64 ADD SWAP1 REVERT JUMPDEST POP PUSH1 0xA DUP1 SLOAD PUSH1 0x1 PUSH1 0x1 PUSH1 0xA0 SHL SUB SWAP3 DUP4 AND PUSH1 0x1 PUSH1 0x1 PUSH1 0xA0 SHL SUB NOT SWAP2 DUP3 AND OR SWAP1 SWAP2 SSTORE PUSH1 0x23 DUP1 SLOAD SWAP5 SWAP1 SWAP3 AND SWAP4 AND SWAP3 SWAP1 SWAP3 OR SWAP1 SWAP2 SSTORE POP PUSH3 0x399 SWAP3 POP POP POP JUMP JUMPDEST DUP3 PUSH1 0x18 DUP2 ADD SWAP3 DUP3 ISZERO PUSH3 0x367 JUMPI SWAP2 PUSH1 0x20 MUL DUP3 ADD JUMPDEST DUP3 DUP2 GT ISZERO PUSH3 0x367 JUMPI DUP3 MLOAD DUP3 SSTORE SWAP2 PUSH1 0x20 ADD SWAP2 SWAP1 PUSH1 0x1 ADD SWAP1 PUSH3 0x34A JUMP JUMPDEST POP PUSH3 0x375 SWAP3 SWAP2 POP PUSH3 0x379 JUMP JUMPDEST POP SWAP1 JUMP JUMPDEST PUSH3 0x396 SWAP2 SWAP1 JUMPDEST DUP1 DUP3 GT ISZERO PUSH3 0x375 JUMPI PUSH1 0x0 DUP2 SSTORE PUSH1 0x1 ADD PUSH3 0x380 JUMP JUMPDEST SWAP1 JUMP JUMPDEST PUSH2 0x21B9 DUP1 PUSH3 0x3A9 PUSH1 0x0 CODECOPY PUSH1 0x0 RETURN INVALID PUSH1 0x80 PUSH1 0x40 MSTORE PUSH1 0x4 CALLDATASIZE LT PUSH2 0x21A JUMPI PUSH1 0x0 CALLDATALOAD PUSH1 0xE0 SHR DUP1 PUSH4 0x706848D2 GT PUSH2 0x123 JUMPI DUP1 PUSH4 0xC6C9D828 GT PUSH2 0xAB JUMPI DUP1 PUSH4 0xF32FFD69 GT PUSH2 0x6F JUMPI DUP1 PUSH4 0xF32FFD69 EQ PUSH2 0x70A JUMPI DUP1 PUSH4 0xF61AA3AE EQ PUSH2 0x787 JUMPI DUP1 PUSH4 0xF61F5DF6 EQ PUSH2 0x79C JUMPI DUP1 PUSH4 0xF6B58479 EQ PUSH2 0x7D5 JUMPI DUP1 PUSH4 0xFC9C99AC EQ PUSH2 0x862 JUMPI PUSH2 0x21A JUMP JUMPDEST DUP1 PUSH4 0xC6C9D828 EQ PUSH2 0x67D JUMPI DUP1 PUSH4 0xCCB6E043 EQ PUSH2 0x33D JUMPI DUP1 PUSH4 0xCE7FCCBA EQ PUSH2 0x6A7 JUMPI DUP1 PUSH4 0xDEA021A5 EQ PUSH2 0x6E0 JUMPI DUP1 PUSH4 0xE3235C91 EQ PUSH2 0x6F5 JUMPI PUSH2 0x21A JUMP JUMPDEST DUP1 PUSH4 0x937FFB8F GT PUSH2 0xF2 JUMPI DUP1 PUSH4 0x937FFB8F EQ PUSH2 0x58D JUMPI DUP1 PUSH4 0x9865FDB7 EQ PUSH2 0x5B7 JUMPI DUP1 PUSH4 0xAB49848C EQ PUSH2 0x5CC JUMPI DUP1 PUSH4 0xAE934A7A EQ PUSH2 0x61A JUMPI DUP1 PUSH4 0xB225DBAA EQ PUSH2 0x653 JUMPI PUSH2 0x21A JUMP JUMPDEST DUP1 PUSH4 0x706848D2 EQ PUSH2 0x524 JUMPI DUP1 PUSH4 0x79BA5097 EQ PUSH2 0x54E JUMPI DUP1 PUSH4 0x8DA5CB5B EQ PUSH2 0x563 JUMPI DUP1 PUSH4 0x91B4DED9 EQ PUSH2 0x578 JUMPI PUSH2 0x21A JUMP JUMPDEST DUP1 PUSH4 0x3BE99E6F GT PUSH2 0x1A6 JUMPI DUP1 PUSH4 0x55AA41BF GT PUSH2 0x175 JUMPI DUP1 PUSH4 0x55AA41BF EQ PUSH2 0x495 JUMPI DUP1 PUSH4 0x5AC8FA64 EQ PUSH2 0x4BF JUMPI DUP1 PUSH4 0x5C975ABB EQ PUSH2 0x4C7 JUMPI DUP1 PUSH4 0x631E1444 EQ PUSH2 0x4DC JUMPI DUP1 PUSH4 0x6FE4136B EQ PUSH2 0x50F JUMPI PUSH2 0x21A JUMP JUMPDEST DUP1 PUSH4 0x3BE99E6F EQ PUSH2 0x3E7 JUMPI DUP1 PUSH4 0x3DBF12FA EQ PUSH2 0x41A JUMPI DUP1 PUSH4 0x52D5999F EQ PUSH2 0x44D JUMPI DUP1 PUSH4 0x53A47BB7 EQ PUSH2 0x480 JUMPI PUSH2 0x21A JUMP JUMPDEST DUP1 PUSH4 0x16841952 GT PUSH2 0x1ED JUMPI DUP1 PUSH4 0x16841952 EQ PUSH2 0x2E7 JUMPI DUP1 PUSH4 0x16C38B3C EQ PUSH2 0x311 JUMPI DUP1 PUSH4 0x175C5189 EQ PUSH2 0x33D JUMPI DUP1 PUSH4 0x21CAD774 EQ PUSH2 0x37B JUMPI DUP1 PUSH4 0x38DFA8CF EQ PUSH2 0x3B4 JUMPI PUSH2 0x21A JUMP JUMPDEST DUP1 PUSH4 0x4F3BCEC EQ PUSH2 0x21F JUMPI DUP1 PUSH4 0x56097AC EQ PUSH2 0x250 JUMPI DUP1 PUSH4 0x86146D2 EQ PUSH2 0x28D JUMPI DUP1 PUSH4 0x1627540C EQ PUSH2 0x2B4 JUMPI JUMPDEST PUSH1 0x0 DUP1 REVERT JUMPDEST CALLVALUE DUP1 ISZERO PUSH2 0x22B JUMPI PUSH1 0x0 DUP1 REVERT JUMPDEST POP PUSH2 0x234 PUSH2 0x877 JUMP JUMPDEST PUSH1 0x40 DUP1 MLOAD PUSH1 0x1 PUSH1 0x1 PUSH1 0xA0 SHL SUB SWAP1 SWAP3 AND DUP3 MSTORE MLOAD SWAP1 DUP2 SWAP1 SUB PUSH1 0x20 ADD SWAP1 RETURN JUMPDEST CALLVALUE DUP1 ISZERO PUSH2 0x25C JUMPI PUSH1 0x0 DUP1 REVERT JUMPDEST POP PUSH2 0x28B PUSH1 0x4 DUP1 CALLDATASIZE SUB PUSH1 0x40 DUP2 LT ISZERO PUSH2 0x273 JUMPI PUSH1 0x0 DUP1 REVERT JUMPDEST POP PUSH1 0x1 PUSH1 0x1 PUSH1 0xA0 SHL SUB DUP2 CALLDATALOAD DUP2 AND SWAP2 PUSH1 0x20 ADD CALLDATALOAD AND PUSH2 0x88B JUMP JUMPDEST STOP JUMPDEST CALLVALUE DUP1 ISZERO PUSH2 0x299 JUMPI PUSH1 0x0 DUP1 REVERT JUMPDEST POP PUSH2 0x2A2 PUSH2 0xA36 JUMP JUMPDEST PUSH1 0x40 DUP1 MLOAD SWAP2 DUP3 MSTORE MLOAD SWAP1 DUP2 SWAP1 SUB PUSH1 0x20 ADD SWAP1 RETURN JUMPDEST CALLVALUE DUP1 ISZERO PUSH2 0x2C0 JUMPI PUSH1 0x0 DUP1 REVERT JUMPDEST POP PUSH2 0x28B PUSH1 0x4 DUP1 CALLDATASIZE SUB PUSH1 0x20 DUP2 LT ISZERO PUSH2 0x2D7 JUMPI PUSH1 0x0 DUP1 REVERT JUMPDEST POP CALLDATALOAD PUSH1 0x1 PUSH1 0x1 PUSH1 0xA0 SHL SUB AND PUSH2 0xA3C JUMP JUMPDEST CALLVALUE DUP1 ISZERO PUSH2 0x2F3 JUMPI PUSH1 0x0 DUP1 REVERT JUMPDEST POP PUSH2 0x28B PUSH1 0x4 DUP1 CALLDATASIZE SUB PUSH1 0x20 DUP2 LT ISZERO PUSH2 0x30A JUMPI PUSH1 0x0 DUP1 REVERT JUMPDEST POP CALLDATALOAD PUSH2 0xA98 JUMP JUMPDEST CALLVALUE DUP1 ISZERO PUSH2 0x31D JUMPI PUSH1 0x0 DUP1 REVERT JUMPDEST POP PUSH2 0x28B PUSH1 0x4 DUP1 CALLDATASIZE SUB PUSH1 0x20 DUP2 LT ISZERO PUSH2 0x334 JUMPI PUSH1 0x0 DUP1 REVERT JUMPDEST POP CALLDATALOAD ISZERO ISZERO PUSH2 0xCC1 JUMP JUMPDEST CALLVALUE DUP1 ISZERO PUSH2 0x349 JUMPI PUSH1 0x0 DUP1 REVERT JUMPDEST POP PUSH2 0x367 PUSH1 0x4 DUP1 CALLDATASIZE SUB PUSH1 0x20 DUP2 LT ISZERO PUSH2 0x360 JUMPI PUSH1 0x0 DUP1 REVERT JUMPDEST POP CALLDATALOAD PUSH2 0xD3B JUMP JUMPDEST PUSH1 0x40 DUP1 MLOAD SWAP2 ISZERO ISZERO DUP3 MSTORE MLOAD SWAP1 DUP2 SWAP1 SUB PUSH1 0x20 ADD SWAP1 RETURN JUMPDEST CALLVALUE DUP1 ISZERO PUSH2 0x387 JUMPI PUSH1 0x0 DUP1 REVERT JUMPDEST POP PUSH2 0x28B PUSH1 0x4 DUP1 CALLDATASIZE SUB PUSH1 0x40 DUP2 LT ISZERO PUSH2 0x39E JUMPI PUSH1 0x0 DUP1 REVERT JUMPDEST POP DUP1 CALLDATALOAD SWAP1 PUSH1 0x20 ADD CALLDATALOAD PUSH1 0x1 PUSH1 0x1 PUSH1 0xA0 SHL SUB AND PUSH2 0xD53 JUMP JUMPDEST CALLVALUE DUP1 ISZERO PUSH2 0x3C0 JUMPI PUSH1 0x0 DUP1 REVERT JUMPDEST POP PUSH2 0x28B PUSH1 0x4 DUP1 CALLDATASIZE SUB PUSH1 0x20 DUP2 LT ISZERO PUSH2 0x3D7 JUMPI PUSH1 0x0 DUP1 REVERT JUMPDEST POP CALLDATALOAD PUSH1 0x1 PUSH1 0x1 PUSH1 0xA0 SHL SUB AND PUSH2 0xE7D JUMP JUMPDEST CALLVALUE DUP1 ISZERO PUSH2 0x3F3 JUMPI PUSH1 0x0 DUP1 REVERT JUMPDEST POP PUSH2 0x28B PUSH1 0x4 DUP1 CALLDATASIZE SUB PUSH1 0x20 DUP2 LT ISZERO PUSH2 0x40A JUMPI PUSH1 0x0 DUP1 REVERT JUMPDEST POP CALLDATALOAD PUSH1 0x1 PUSH1 0x1 PUSH1 0xA0 SHL SUB AND PUSH2 0x1035 JUMP JUMPDEST CALLVALUE DUP1 ISZERO PUSH2 0x426 JUMPI PUSH1 0x0 DUP1 REVERT JUMPDEST POP PUSH2 0x28B PUSH1 0x4 DUP1 CALLDATASIZE SUB PUSH1 0x20 DUP2 LT ISZERO PUSH2 0x43D JUMPI PUSH1 0x0 DUP1 REVERT JUMPDEST POP CALLDATALOAD PUSH1 0x1 PUSH1 0x1 PUSH1 0xA0 SHL SUB AND PUSH2 0x1169 JUMP JUMPDEST CALLVALUE DUP1 ISZERO PUSH2 0x459 JUMPI PUSH1 0x0 DUP1 REVERT JUMPDEST POP PUSH2 0x28B PUSH1 0x4 DUP1 CALLDATASIZE SUB PUSH1 0x20 DUP2 LT ISZERO PUSH2 0x470 JUMPI PUSH1 0x0 DUP1 REVERT JUMPDEST POP CALLDATALOAD PUSH1 0x1 PUSH1 0x1 PUSH1 0xA0 SHL SUB AND PUSH2 0x1220 JUMP JUMPDEST CALLVALUE DUP1 ISZERO PUSH2 0x48C JUMPI PUSH1 0x0 DUP1 REVERT JUMPDEST POP PUSH2 0x234 PUSH2 0x12B2 JUMP JUMPDEST CALLVALUE DUP1 ISZERO PUSH2 0x4A1 JUMPI PUSH1 0x0 DUP1 REVERT JUMPDEST POP PUSH2 0x2A2 PUSH1 0x4 DUP1 CALLDATASIZE SUB PUSH1 0x20 DUP2 LT ISZERO PUSH2 0x4B8 JUMPI PUSH1 0x0 DUP1 REVERT JUMPDEST POP CALLDATALOAD PUSH2 0x12C1 JUMP JUMPDEST PUSH2 0x28B PUSH2 0x12D6 JUMP JUMPDEST CALLVALUE DUP1 ISZERO PUSH2 0x4D3 JUMPI PUSH1 0x0 DUP1 REVERT JUMPDEST POP PUSH2 0x367 PUSH2 0x12D8 JUMP JUMPDEST CALLVALUE DUP1 ISZERO PUSH2 0x4E8 JUMPI PUSH1 0x0 DUP1 REVERT JUMPDEST POP PUSH2 0x367 PUSH1 0x4 DUP1 CALLDATASIZE SUB PUSH1 0x20 DUP2 LT ISZERO PUSH2 0x4FF JUMPI PUSH1 0x0 DUP1 REVERT JUMPDEST POP CALLDATALOAD PUSH1 0x1 PUSH1 0x1 PUSH1 0xA0 SHL SUB AND PUSH2 0x12E1 JUMP JUMPDEST CALLVALUE DUP1 ISZERO PUSH2 0x51B JUMPI PUSH1 0x0 DUP1 REVERT JUMPDEST POP PUSH2 0x234 PUSH2 0x1407 JUMP JUMPDEST CALLVALUE DUP1 ISZERO PUSH2 0x530 JUMPI PUSH1 0x0 DUP1 REVERT JUMPDEST POP PUSH2 0x2A2 PUSH1 0x4 DUP1 CALLDATASIZE SUB PUSH1 0x20 DUP2 LT ISZERO PUSH2 0x547 JUMPI PUSH1 0x0 DUP1 REVERT JUMPDEST POP CALLDATALOAD PUSH2 0x1416 JUMP JUMPDEST CALLVALUE DUP1 ISZERO PUSH2 0x55A JUMPI PUSH1 0x0 DUP1 REVERT JUMPDEST POP PUSH2 0x28B PUSH2 0x142B JUMP JUMPDEST CALLVALUE DUP1 ISZERO PUSH2 0x56F JUMPI PUSH1 0x0 DUP1 REVERT JUMPDEST POP PUSH2 0x234 PUSH2 0x14E7 JUMP JUMPDEST CALLVALUE DUP1 ISZERO PUSH2 0x584 JUMPI PUSH1 0x0 DUP1 REVERT JUMPDEST POP PUSH2 0x2A2 PUSH2 0x14F6 JUMP JUMPDEST CALLVALUE DUP1 ISZERO PUSH2 0x599 JUMPI PUSH1 0x0 DUP1 REVERT JUMPDEST POP PUSH2 0x2A2 PUSH1 0x4 DUP1 CALLDATASIZE SUB PUSH1 0x20 DUP2 LT ISZERO PUSH2 0x5B0 JUMPI PUSH1 0x0 DUP1 REVERT JUMPDEST POP CALLDATALOAD PUSH2 0x14FC JUMP JUMPDEST CALLVALUE DUP1 ISZERO PUSH2 0x5C3 JUMPI PUSH1 0x0 DUP1 REVERT JUMPDEST POP PUSH2 0x2A2 PUSH2 0x1511 JUMP JUMPDEST CALLVALUE DUP1 ISZERO PUSH2 0x5D8 JUMPI PUSH1 0x0 DUP1 REVERT JUMPDEST POP PUSH2 0x5E1 PUSH2 0x15AE JUMP JUMPDEST PUSH1 0x40 MLOAD DUP1 DUP3 PUSH2 0x300 DUP1 DUP4 DUP4 PUSH1 0x0 JUMPDEST DUP4 DUP2 LT ISZERO PUSH2 0x607 JUMPI DUP2 DUP2 ADD MLOAD DUP4 DUP3 ADD MSTORE PUSH1 0x20 ADD PUSH2 0x5EF JUMP JUMPDEST POP POP POP POP SWAP1 POP ADD SWAP2 POP POP PUSH1 0x40 MLOAD DUP1 SWAP2 SUB SWAP1 RETURN JUMPDEST CALLVALUE DUP1 ISZERO PUSH2 0x626 JUMPI PUSH1 0x0 DUP1 REVERT JUMPDEST POP PUSH2 0x28B PUSH1 0x4 DUP1 CALLDATASIZE SUB PUSH1 0x40 DUP2 LT ISZERO PUSH2 0x63D JUMPI PUSH1 0x0 DUP1 REVERT JUMPDEST POP PUSH1 0x1 PUSH1 0x1 PUSH1 0xA0 SHL SUB DUP2 CALLDATALOAD AND SWAP1 PUSH1 0x20 ADD CALLDATALOAD PUSH2 0x15F8 JUMP JUMPDEST CALLVALUE DUP1 ISZERO PUSH2 0x65F JUMPI PUSH1 0x0 DUP1 REVERT JUMPDEST POP PUSH2 0x28B PUSH1 0x4 DUP1 CALLDATASIZE SUB PUSH1 0x20 DUP2 LT ISZERO PUSH2 0x676 JUMPI PUSH1 0x0 DUP1 REVERT JUMPDEST POP CALLDATALOAD PUSH2 0x1765 JUMP JUMPDEST CALLVALUE DUP1 ISZERO PUSH2 0x689 JUMPI PUSH1 0x0 DUP1 REVERT JUMPDEST POP PUSH2 0x2A2 PUSH1 0x4 DUP1 CALLDATASIZE SUB PUSH1 0x20 DUP2 LT ISZERO PUSH2 0x6A0 JUMPI PUSH1 0x0 DUP1 REVERT JUMPDEST POP CALLDATALOAD PUSH2 0x1812 JUMP JUMPDEST CALLVALUE DUP1 ISZERO PUSH2 0x6B3 JUMPI PUSH1 0x0 DUP1 REVERT JUMPDEST POP PUSH2 0x2A2 PUSH1 0x4 DUP1 CALLDATASIZE SUB PUSH1 0x40 DUP2 LT ISZERO PUSH2 0x6CA JUMPI PUSH1 0x0 DUP1 REVERT JUMPDEST POP PUSH1 0x1 PUSH1 0x1 PUSH1 0xA0 SHL SUB DUP2 CALLDATALOAD AND SWAP1 PUSH1 0x20 ADD CALLDATALOAD PUSH2 0x1830 JUMP JUMPDEST CALLVALUE DUP1 ISZERO PUSH2 0x6EC JUMPI PUSH1 0x0 DUP1 REVERT JUMPDEST POP PUSH2 0x234 PUSH2 0x1845 JUMP JUMPDEST CALLVALUE DUP1 ISZERO PUSH2 0x701 JUMPI PUSH1 0x0 DUP1 REVERT JUMPDEST POP PUSH2 0x2A2 PUSH2 0x1854 JUMP JUMPDEST CALLVALUE DUP1 ISZERO PUSH2 0x716 JUMPI PUSH1 0x0 DUP1 REVERT JUMPDEST POP PUSH2 0x28B PUSH1 0x4 DUP1 CALLDATASIZE SUB PUSH1 0x20 DUP2 LT ISZERO PUSH2 0x72D JUMPI PUSH1 0x0 DUP1 REVERT JUMPDEST DUP2 ADD SWAP1 PUSH1 0x20 DUP2 ADD DUP2 CALLDATALOAD PUSH5 0x100000000 DUP2 GT ISZERO PUSH2 0x748 JUMPI PUSH1 0x0 DUP1 REVERT JUMPDEST DUP3 ADD DUP4 PUSH1 0x20 DUP3 ADD GT ISZERO PUSH2 0x75A JUMPI PUSH1 0x0 DUP1 REVERT JUMPDEST DUP1 CALLDATALOAD SWAP1 PUSH1 0x20 ADD SWAP2 DUP5 PUSH1 0x20 DUP4 MUL DUP5 ADD GT PUSH5 0x100000000 DUP4 GT OR ISZERO PUSH2 0x77C JUMPI PUSH1 0x0 DUP1 REVERT JUMPDEST POP SWAP1 SWAP3 POP SWAP1 POP PUSH2 0x1859 JUMP JUMPDEST CALLVALUE DUP1 ISZERO PUSH2 0x793 JUMPI PUSH1 0x0 DUP1 REVERT JUMPDEST POP PUSH2 0x234 PUSH2 0x1937 JUMP JUMPDEST CALLVALUE DUP1 ISZERO PUSH2 0x7A8 JUMPI PUSH1 0x0 DUP1 REVERT JUMPDEST POP PUSH2 0x2A2 PUSH1 0x4 DUP1 CALLDATASIZE SUB PUSH1 0x40 DUP2 LT ISZERO PUSH2 0x7BF JUMPI PUSH1 0x0 DUP1 REVERT JUMPDEST POP PUSH1 0x1 PUSH1 0x1 PUSH1 0xA0 SHL SUB DUP2 CALLDATALOAD AND SWAP1 PUSH1 0x20 ADD CALLDATALOAD PUSH2 0x1946 JUMP JUMPDEST CALLVALUE DUP1 ISZERO PUSH2 0x7E1 JUMPI PUSH1 0x0 DUP1 REVERT JUMPDEST POP PUSH2 0x2A2 PUSH1 0x4 DUP1 CALLDATASIZE SUB PUSH1 0x40 DUP2 LT ISZERO PUSH2 0x7F8 JUMPI PUSH1 0x0 DUP1 REVERT JUMPDEST PUSH1 0x1 PUSH1 0x1 PUSH1 0xA0 SHL SUB DUP3 CALLDATALOAD AND SWAP2 SWAP1 DUP2 ADD SWAP1 PUSH1 0x40 DUP2 ADD PUSH1 0x20 DUP3 ADD CALLDATALOAD PUSH5 0x100000000 DUP2 GT ISZERO PUSH2 0x823 JUMPI PUSH1 0x0 DUP1 REVERT JUMPDEST DUP3 ADD DUP4 PUSH1 0x20 DUP3 ADD GT ISZERO PUSH2 0x835 JUMPI PUSH1 0x0 DUP1 REVERT JUMPDEST DUP1 CALLDATALOAD SWAP1 PUSH1 0x20 ADD SWAP2 DUP5 PUSH1 0x20 DUP4 MUL DUP5 ADD GT PUSH5 0x100000000 DUP4 GT OR ISZERO PUSH2 0x857 JUMPI PUSH1 0x0 DUP1 REVERT JUMPDEST POP SWAP1 SWAP3 POP SWAP1 POP PUSH2 0x1971 JUMP JUMPDEST CALLVALUE DUP1 ISZERO PUSH2 0x86E JUMPI PUSH1 0x0 DUP1 REVERT JUMPDEST POP PUSH2 0x2A2 PUSH2 0x19C1 JUMP JUMPDEST PUSH1 0x4 SLOAD PUSH2 0x100 SWAP1 DIV PUSH1 0x1 PUSH1 0x1 PUSH1 0xA0 SHL SUB AND DUP2 JUMP JUMPDEST PUSH2 0x893 PUSH2 0x19C7 JUMP JUMPDEST PUSH2 0x89C DUP2 PUSH2 0x1A10 JUMP JUMPDEST PUSH2 0x8A4 PUSH2 0x1A80 JUMP JUMPDEST PUSH1 0x1 PUSH1 0x1 PUSH1 0xA0 SHL SUB AND DUP3 PUSH1 0x1 PUSH1 0x1 PUSH1 0xA0 SHL SUB AND EQ ISZERO PUSH2 0x90A JUMPI PUSH1 0x40 DUP1 MLOAD PUSH3 0x461BCD PUSH1 0xE5 SHL DUP2 MSTORE PUSH1 0x20 PUSH1 0x4 DUP3 ADD MSTORE PUSH1 0x19 PUSH1 0x24 DUP3 ADD MSTORE PUSH32 0x4D7573742075736520616E6F746865722066756E6374696F6E00000000000000 PUSH1 0x44 DUP3 ADD MSTORE SWAP1 MLOAD SWAP1 DUP2 SWAP1 SUB PUSH1 0x64 ADD SWAP1 REVERT JUMPDEST PUSH1 0x40 DUP1 MLOAD PUSH4 0x70A08231 PUSH1 0xE0 SHL DUP2 MSTORE ADDRESS PUSH1 0x4 DUP3 ADD MSTORE SWAP1 MLOAD DUP4 SWAP2 PUSH1 0x0 SWAP2 PUSH1 0x1 PUSH1 0x1 PUSH1 0xA0 SHL SUB DUP5 AND SWAP2 PUSH4 0x70A08231 SWAP2 PUSH1 0x24 DUP1 DUP4 ADD SWAP3 PUSH1 0x20 SWAP3 SWAP2 SWAP1 DUP3 SWAP1 SUB ADD DUP2 DUP7 DUP1 EXTCODESIZE ISZERO DUP1 ISZERO PUSH2 0x955 JUMPI PUSH1 0x0 DUP1 REVERT JUMPDEST POP GAS STATICCALL ISZERO DUP1 ISZERO PUSH2 0x969 JUMPI RETURNDATASIZE PUSH1 0x0 DUP1 RETURNDATACOPY RETURNDATASIZE PUSH1 0x0 REVERT JUMPDEST POP POP POP POP PUSH1 0x40 MLOAD RETURNDATASIZE PUSH1 0x20 DUP2 LT ISZERO PUSH2 0x97F JUMPI PUSH1 0x0 DUP1 REVERT JUMPDEST POP MLOAD SWAP1 POP DUP1 PUSH2 0x9CC JUMPI PUSH1 0x40 DUP1 MLOAD PUSH3 0x461BCD PUSH1 0xE5 SHL DUP2 MSTORE PUSH1 0x20 PUSH1 0x4 DUP3 ADD MSTORE PUSH1 0x14 PUSH1 0x24 DUP3 ADD MSTORE PUSH20 0x2737903A37B5B2B739903A37903932B1B7BB32B9 PUSH1 0x61 SHL PUSH1 0x44 DUP3 ADD MSTORE SWAP1 MLOAD SWAP1 DUP2 SWAP1 SUB PUSH1 0x64 ADD SWAP1 REVERT JUMPDEST PUSH2 0x9E6 PUSH1 0x1 PUSH1 0x1 PUSH1 0xA0 SHL SUB DUP4 AND DUP5 DUP4 PUSH4 0xFFFFFFFF PUSH2 0x1A8F AND JUMP JUMPDEST PUSH1 0x40 DUP1 MLOAD PUSH1 0x1 PUSH1 0x1 PUSH1 0xA0 SHL SUB DUP1 DUP8 AND DUP3 MSTORE DUP6 AND PUSH1 0x20 DUP3 ADD MSTORE DUP1 DUP3 ADD DUP4 SWAP1 MSTORE SWAP1 MLOAD PUSH32 0x401F439D865A766757EC78675925BD67198D5E78805AA41691B34B5D6A6CBBE6 SWAP2 DUP2 SWAP1 SUB PUSH1 0x60 ADD SWAP1 LOG1 POP POP POP POP JUMP JUMPDEST PUSH1 0x7 SLOAD SWAP1 JUMP JUMPDEST PUSH2 0xA44 PUSH2 0x19C7 JUMP JUMPDEST PUSH1 0x2 DUP1 SLOAD PUSH1 0x1 PUSH1 0x1 PUSH1 0xA0 SHL SUB DUP4 AND PUSH1 0x1 PUSH1 0x1 PUSH1 0xA0 SHL SUB NOT SWAP1 SWAP2 AND DUP2 OR SWAP1 SWAP2 SSTORE PUSH1 0x40 DUP1 MLOAD SWAP2 DUP3 MSTORE MLOAD PUSH32 0x906A1C6BD7E3091EA86693DD029A831C19049CE77F1DCE2CE0BAB1CACBABCE22 SWAP2 DUP2 SWAP1 SUB PUSH1 0x20 ADD SWAP1 LOG1 POP JUMP JUMPDEST PUSH1 0xA SLOAD PUSH1 0x1 PUSH1 0x1 PUSH1 0xA0 SHL SUB AND CALLER EQ PUSH2 0xAF7 JUMPI PUSH1 0x40 DUP1 MLOAD PUSH3 0x461BCD PUSH1 0xE5 SHL DUP2 MSTORE PUSH1 0x20 PUSH1 0x4 DUP3 ADD MSTORE PUSH1 0x1C PUSH1 0x24 DUP3 ADD MSTORE PUSH32 0x43616C6C6572206E6F7420706572696F6420636F6E74726F6C6C657200000000 PUSH1 0x44 DUP3 ADD MSTORE SWAP1 MLOAD SWAP1 DUP2 SWAP1 SUB PUSH1 0x64 ADD SWAP1 REVERT JUMPDEST PUSH1 0x0 PUSH2 0xB01 PUSH2 0x1A80 JUMP JUMPDEST PUSH1 0x1 PUSH1 0x1 PUSH1 0xA0 SHL SUB AND PUSH4 0x70A08231 ADDRESS PUSH1 0x40 MLOAD DUP3 PUSH4 0xFFFFFFFF AND PUSH1 0xE0 SHL DUP2 MSTORE PUSH1 0x4 ADD DUP1 DUP3 PUSH1 0x1 PUSH1 0x1 PUSH1 0xA0 SHL SUB AND PUSH1 0x1 PUSH1 0x1 PUSH1 0xA0 SHL SUB AND DUP2 MSTORE PUSH1 0x20 ADD SWAP2 POP POP PUSH1 0x20 PUSH1 0x40 MLOAD DUP1 DUP4 SUB DUP2 DUP7 DUP1 EXTCODESIZE ISZERO DUP1 ISZERO PUSH2 0xB56 JUMPI PUSH1 0x0 DUP1 REVERT JUMPDEST POP GAS STATICCALL ISZERO DUP1 ISZERO PUSH2 0xB6A JUMPI RETURNDATASIZE PUSH1 0x0 DUP1 RETURNDATACOPY RETURNDATASIZE PUSH1 0x0 REVERT JUMPDEST POP POP POP POP PUSH1 0x40 MLOAD RETURNDATASIZE PUSH1 0x20 DUP2 LT ISZERO PUSH2 0xB80 JUMPI PUSH1 0x0 DUP1 REVERT JUMPDEST POP MLOAD PUSH1 0x8 SLOAD SWAP1 SWAP2 POP PUSH1 0x0 SWAP1 PUSH2 0xB9C SWAP1 DUP4 SWAP1 PUSH4 0xFFFFFFFF PUSH2 0x1AE1 AND JUMP JUMPDEST SWAP1 POP DUP1 DUP4 GT ISZERO PUSH2 0xBF3 JUMPI PUSH1 0x40 DUP1 MLOAD PUSH3 0x461BCD PUSH1 0xE5 SHL DUP2 MSTORE PUSH1 0x20 PUSH1 0x4 DUP3 ADD MSTORE PUSH1 0x19 PUSH1 0x24 DUP3 ADD MSTORE PUSH32 0x496E73756666696369656E742066726565207265776172647300000000000000 PUSH1 0x44 DUP3 ADD MSTORE SWAP1 MLOAD SWAP1 DUP2 SWAP1 SUB PUSH1 0x64 ADD SWAP1 REVERT JUMPDEST PUSH1 0x7 SLOAD PUSH1 0x0 SWAP1 DUP2 MSTORE PUSH1 0x9 PUSH1 0x20 MSTORE PUSH1 0x40 SWAP1 KECCAK256 PUSH1 0x2 DUP2 ADD DUP5 SWAP1 SSTORE PUSH1 0x3 DUP2 ADD DUP5 SWAP1 SSTORE DUP1 SLOAD PUSH1 0xFF NOT AND PUSH1 0x1 OR DUP2 SSTORE PUSH1 0x8 SLOAD PUSH2 0xC30 SWAP1 DUP6 PUSH4 0xFFFFFFFF PUSH2 0x1B3E AND JUMP JUMPDEST PUSH1 0x8 SSTORE PUSH1 0x7 SLOAD PUSH1 0x40 DUP1 MLOAD SWAP2 DUP3 MSTORE PUSH1 0x20 DUP3 ADD DUP7 SWAP1 MSTORE DUP1 MLOAD PUSH32 0xFA0492B63D7120C62CCB8708EB597813E6968A23D09ADAC98D54DD0085CB264F SWAP3 DUP2 SWAP1 SUB SWAP1 SWAP2 ADD SWAP1 LOG1 PUSH1 0x7 SLOAD PUSH2 0xC84 SWAP1 PUSH1 0x1 PUSH4 0xFFFFFFFF PUSH2 0x1B3E AND JUMP JUMPDEST PUSH1 0x7 DUP2 SWAP1 SSTORE PUSH1 0x40 DUP1 MLOAD SWAP2 DUP3 MSTORE MLOAD PUSH32 0x4368A9298ADC0E57ECEB11D0EF07022051A2FEB5985D832BE0764CDE9A230732 SWAP2 DUP2 SWAP1 SUB PUSH1 0x20 ADD SWAP1 LOG1 POP POP POP POP JUMP JUMPDEST PUSH2 0xCC9 PUSH2 0x19C7 JUMP JUMPDEST PUSH1 0x4 SLOAD PUSH1 0xFF AND ISZERO ISZERO DUP2 ISZERO ISZERO EQ ISZERO PUSH2 0xCDF JUMPI PUSH2 0xD38 JUMP JUMPDEST PUSH1 0x4 DUP1 SLOAD PUSH1 0xFF NOT AND DUP3 ISZERO ISZERO OR SWAP1 DUP2 SWAP1 SSTORE PUSH1 0xFF AND ISZERO PUSH2 0xCFC JUMPI TIMESTAMP PUSH1 0x3 SSTORE JUMPDEST PUSH1 0x4 SLOAD PUSH1 0x40 DUP1 MLOAD PUSH1 0xFF SWAP1 SWAP3 AND ISZERO ISZERO DUP3 MSTORE MLOAD PUSH32 0x8FB6C181EE25A520CF3DD6565006EF91229FCFE5A989566C2A3B8C115570CEC5 SWAP2 DUP2 SWAP1 SUB PUSH1 0x20 ADD SWAP1 LOG1 JUMPDEST POP JUMP JUMPDEST PUSH1 0x0 DUP2 DUP2 MSTORE PUSH1 0x9 PUSH1 0x20 MSTORE PUSH1 0x40 SWAP1 KECCAK256 SLOAD PUSH1 0xFF AND JUMPDEST SWAP2 SWAP1 POP JUMP JUMPDEST PUSH2 0xD5B PUSH2 0x1B98 JUMP JUMPDEST PUSH1 0x1 PUSH1 0x1 PUSH1 0xA0 SHL SUB AND CALLER PUSH1 0x1 PUSH1 0x1 PUSH1 0xA0 SHL SUB AND EQ PUSH2 0xDC0 JUMPI PUSH1 0x40 DUP1 MLOAD PUSH3 0x461BCD PUSH1 0xE5 SHL DUP2 MSTORE PUSH1 0x20 PUSH1 0x4 DUP3 ADD MSTORE PUSH1 0x1E PUSH1 0x24 DUP3 ADD MSTORE PUSH32 0x4F6E6C792045786368616E6765722063616E20696E766F6B6520746869730000 PUSH1 0x44 DUP3 ADD MSTORE SWAP1 MLOAD SWAP1 DUP2 SWAP1 SUB PUSH1 0x64 ADD SWAP1 REVERT JUMPDEST PUSH1 0x7 SLOAD PUSH1 0x0 SWAP1 DUP2 MSTORE PUSH1 0x9 PUSH1 0x20 SWAP1 DUP2 MSTORE PUSH1 0x40 DUP1 DUP4 KECCAK256 PUSH1 0x1 PUSH1 0x1 PUSH1 0xA0 SHL SUB DUP6 AND DUP5 MSTORE PUSH1 0x4 DUP2 ADD SWAP1 SWAP3 MSTORE SWAP1 SWAP2 KECCAK256 SLOAD PUSH2 0xDFB SWAP1 DUP5 PUSH4 0xFFFFFFFF PUSH2 0x1B3E AND JUMP JUMPDEST PUSH1 0x1 PUSH1 0x1 PUSH1 0xA0 SHL SUB DUP4 AND PUSH1 0x0 SWAP1 DUP2 MSTORE PUSH1 0x4 DUP4 ADD PUSH1 0x20 MSTORE PUSH1 0x40 SWAP1 KECCAK256 SSTORE PUSH1 0x1 DUP2 ADD SLOAD PUSH2 0xE2B SWAP1 DUP5 PUSH4 0xFFFFFFFF PUSH2 0x1B3E AND JUMP JUMPDEST PUSH1 0x1 DUP3 ADD SSTORE PUSH1 0x7 SLOAD PUSH1 0x40 DUP1 MLOAD DUP6 DUP2 MSTORE PUSH1 0x20 DUP2 ADD SWAP3 SWAP1 SWAP3 MSTORE DUP1 MLOAD PUSH1 0x1 PUSH1 0x1 PUSH1 0xA0 SHL SUB DUP6 AND SWAP3 PUSH32 0x927BE3E95451B16BE3F4586524834DFFFA10E6F9EE4C1E26FE3C46140FBBF866 SWAP3 SWAP1 DUP3 SWAP1 SUB ADD SWAP1 LOG2 POP POP POP JUMP JUMPDEST PUSH2 0xE85 PUSH2 0x19C7 JUMP JUMPDEST PUSH2 0xE8E DUP2 PUSH2 0x1A10 JUMP JUMPDEST PUSH1 0x0 PUSH2 0xE98 PUSH2 0x1A80 JUMP JUMPDEST PUSH1 0x1 PUSH1 0x1 PUSH1 0xA0 SHL SUB AND PUSH4 0x70A08231 ADDRESS PUSH1 0x40 MLOAD DUP3 PUSH4 0xFFFFFFFF AND PUSH1 0xE0 SHL DUP2 MSTORE PUSH1 0x4 ADD DUP1 DUP3 PUSH1 0x1 PUSH1 0x1 PUSH1 0xA0 SHL SUB AND PUSH1 0x1 PUSH1 0x1 PUSH1 0xA0 SHL SUB AND DUP2 MSTORE PUSH1 0x20 ADD SWAP2 POP POP PUSH1 0x20 PUSH1 0x40 MLOAD DUP1 DUP4 SUB DUP2 DUP7 DUP1 EXTCODESIZE ISZERO DUP1 ISZERO PUSH2 0xEED JUMPI PUSH1 0x0 DUP1 REVERT JUMPDEST POP GAS STATICCALL ISZERO DUP1 ISZERO PUSH2 0xF01 JUMPI RETURNDATASIZE PUSH1 0x0 DUP1 RETURNDATACOPY RETURNDATASIZE PUSH1 0x0 REVERT JUMPDEST POP POP POP POP PUSH1 0x40 MLOAD RETURNDATASIZE PUSH1 0x20 DUP2 LT ISZERO PUSH2 0xF17 JUMPI PUSH1 0x0 DUP1 REVERT JUMPDEST POP MLOAD SWAP1 POP DUP1 PUSH2 0xF64 JUMPI PUSH1 0x40 DUP1 MLOAD PUSH3 0x461BCD PUSH1 0xE5 SHL DUP2 MSTORE PUSH1 0x20 PUSH1 0x4 DUP3 ADD MSTORE PUSH1 0x14 PUSH1 0x24 DUP3 ADD MSTORE PUSH20 0x2737903A37B5B2B739903A37903932B1B7BB32B9 PUSH1 0x61 SHL PUSH1 0x44 DUP3 ADD MSTORE SWAP1 MLOAD SWAP1 DUP2 SWAP1 SUB PUSH1 0x64 ADD SWAP1 REVERT JUMPDEST PUSH1 0x0 PUSH2 0xF7B PUSH1 0x8 SLOAD DUP4 PUSH2 0x1AE1 SWAP1 SWAP2 SWAP1 PUSH4 0xFFFFFFFF AND JUMP JUMPDEST SWAP1 POP PUSH1 0x0 DUP2 GT PUSH2 0xFC9 JUMPI PUSH1 0x40 DUP1 MLOAD PUSH3 0x461BCD PUSH1 0xE5 SHL DUP2 MSTORE PUSH1 0x20 PUSH1 0x4 DUP3 ADD MSTORE PUSH1 0x14 PUSH1 0x24 DUP3 ADD MSTORE PUSH20 0x2737903A37B5B2B739903A37903932B1B7BB32B9 PUSH1 0x61 SHL PUSH1 0x44 DUP3 ADD MSTORE SWAP1 MLOAD SWAP1 DUP2 SWAP1 SUB PUSH1 0x64 ADD SWAP1 REVERT JUMPDEST PUSH2 0xFEC DUP4 DUP3 PUSH2 0xFD6 PUSH2 0x1A80 JUMP JUMPDEST PUSH1 0x1 PUSH1 0x1 PUSH1 0xA0 SHL SUB AND SWAP2 SWAP1 PUSH4 0xFFFFFFFF PUSH2 0x1A8F AND JUMP JUMPDEST PUSH1 0x40 DUP1 MLOAD PUSH1 0x1 PUSH1 0x1 PUSH1 0xA0 SHL SUB DUP6 AND DUP2 MSTORE PUSH1 0x20 DUP2 ADD DUP4 SWAP1 MSTORE DUP2 MLOAD PUSH32 0x14E7312259D4851B8B6742ACE55AC44B31D7929A6B2998B35BA22445859E5EE3 SWAP3 SWAP2 DUP2 SWAP1 SUB SWAP1 SWAP2 ADD SWAP1 LOG1 POP POP POP JUMP JUMPDEST PUSH2 0x103D PUSH2 0x19C7 JUMP JUMPDEST PUSH1 0x4 DUP1 SLOAD PUSH2 0x100 PUSH1 0x1 PUSH1 0xA8 SHL SUB NOT AND PUSH2 0x100 PUSH1 0x1 PUSH1 0x1 PUSH1 0xA0 SHL SUB DUP5 AND MUL OR SWAP1 SSTORE PUSH1 0x0 JUMPDEST PUSH1 0x6 SLOAD DUP2 LT ISZERO PUSH2 0x1165 JUMPI PUSH1 0x0 PUSH1 0x6 DUP3 DUP2 SLOAD DUP2 LT PUSH2 0x1079 JUMPI INVALID JUMPDEST PUSH1 0x0 SWAP2 DUP3 MSTORE PUSH1 0x20 SWAP2 DUP3 SWAP1 KECCAK256 ADD SLOAD PUSH1 0x4 DUP1 SLOAD PUSH1 0x40 DUP1 MLOAD PUSH4 0xDACB2D01 PUSH1 0xE0 SHL DUP2 MSTORE SWAP3 DUP4 ADD DUP5 SWAP1 MSTORE PUSH1 0x24 DUP4 ADD DUP2 SWAP1 MSTORE PUSH1 0x17 PUSH1 0x44 DUP5 ADD MSTORE PUSH32 0x5265736F6C766572206D697373696E6720746172676574000000000000000000 PUSH1 0x64 DUP5 ADD MSTORE MLOAD SWAP3 SWAP5 POP PUSH2 0x100 SWAP1 DIV PUSH1 0x1 PUSH1 0x1 PUSH1 0xA0 SHL SUB AND SWAP3 PUSH4 0xDACB2D01 SWAP3 PUSH1 0x84 DUP1 DUP5 ADD SWAP4 DUP3 SWAP1 SUB ADD DUP2 DUP7 DUP1 EXTCODESIZE ISZERO DUP1 ISZERO PUSH2 0x1105 JUMPI PUSH1 0x0 DUP1 REVERT JUMPDEST POP GAS STATICCALL ISZERO DUP1 ISZERO PUSH2 0x1119 JUMPI RETURNDATASIZE PUSH1 0x0 DUP1 RETURNDATACOPY RETURNDATASIZE PUSH1 0x0 REVERT JUMPDEST POP POP POP POP PUSH1 0x40 MLOAD RETURNDATASIZE PUSH1 0x20 DUP2 LT ISZERO PUSH2 0x112F JUMPI PUSH1 0x0 DUP1 REVERT JUMPDEST POP MLOAD PUSH1 0x0 SWAP2 DUP3 MSTORE PUSH1 0x5 PUSH1 0x20 MSTORE PUSH1 0x40 SWAP1 SWAP2 KECCAK256 DUP1 SLOAD PUSH1 0x1 PUSH1 0x1 PUSH1 0xA0 SHL SUB NOT AND PUSH1 0x1 PUSH1 0x1 PUSH1 0xA0 SHL SUB SWAP1 SWAP3 AND SWAP2 SWAP1 SWAP2 OR SWAP1 SSTORE PUSH1 0x1 ADD PUSH2 0x1060 JUMP JUMPDEST POP POP JUMP JUMPDEST PUSH2 0x1171 PUSH2 0x19C7 JUMP JUMPDEST PUSH1 0x1 PUSH1 0x1 PUSH1 0xA0 SHL SUB DUP2 AND PUSH2 0x11CC JUMPI PUSH1 0x40 DUP1 MLOAD PUSH3 0x461BCD PUSH1 0xE5 SHL DUP2 MSTORE PUSH1 0x20 PUSH1 0x4 DUP3 ADD MSTORE PUSH1 0x19 PUSH1 0x24 DUP3 ADD MSTORE PUSH32 0x496E76616C696420706572696F6420636F6E74726F6C6C657200000000000000 PUSH1 0x44 DUP3 ADD MSTORE SWAP1 MLOAD SWAP1 DUP2 SWAP1 SUB PUSH1 0x64 ADD SWAP1 REVERT JUMPDEST PUSH1 0xA DUP1 SLOAD PUSH1 0x1 PUSH1 0x1 PUSH1 0xA0 SHL SUB DUP4 AND PUSH1 0x1 PUSH1 0x1 PUSH1 0xA0 SHL SUB NOT SWAP1 SWAP2 AND DUP2 OR SWAP1 SWAP2 SSTORE PUSH1 0x40 DUP1 MLOAD SWAP2 DUP3 MSTORE MLOAD PUSH32 0xB81E5409E39D3D3D85951A2AF3563E484CFE2E7B4AF2500A0ECBE14035A9BDDC SWAP2 DUP2 SWAP1 SUB PUSH1 0x20 ADD SWAP1 LOG1 POP JUMP JUMPDEST PUSH2 0x1228 PUSH2 0x19C7 JUMP JUMPDEST PUSH2 0x1231 DUP2 PUSH2 0x1A10 JUMP JUMPDEST PUSH1 0x40 MLOAD SELFBALANCE SWAP1 PUSH1 0x1 PUSH1 0x1 PUSH1 0xA0 SHL SUB DUP4 AND SWAP1 DUP3 ISZERO PUSH2 0x8FC MUL SWAP1 DUP4 SWAP1 PUSH1 0x0 DUP2 DUP2 DUP2 DUP6 DUP9 DUP9 CALL SWAP4 POP POP POP POP ISZERO DUP1 ISZERO PUSH2 0x1269 JUMPI RETURNDATASIZE PUSH1 0x0 DUP1 RETURNDATACOPY RETURNDATASIZE PUSH1 0x0 REVERT JUMPDEST POP PUSH1 0x40 DUP1 MLOAD PUSH1 0x1 PUSH1 0x1 PUSH1 0xA0 SHL SUB DUP5 AND DUP2 MSTORE PUSH1 0x20 DUP2 ADD DUP4 SWAP1 MSTORE DUP2 MLOAD PUSH32 0x8E274E42262A7F013B700B35C2B4629CCCE1702F8FE83F8DFB7EACBB26A4382C SWAP3 SWAP2 DUP2 SWAP1 SUB SWAP1 SWAP2 ADD SWAP1 LOG1 POP POP JUMP JUMPDEST PUSH1 0x2 SLOAD PUSH1 0x1 PUSH1 0x1 PUSH1 0xA0 SHL SUB AND DUP2 JUMP JUMPDEST PUSH1 0x0 SWAP1 DUP2 MSTORE PUSH1 0x9 PUSH1 0x20 MSTORE PUSH1 0x40 SWAP1 KECCAK256 PUSH1 0x1 ADD SLOAD SWAP1 JUMP JUMPDEST JUMP JUMPDEST PUSH1 0x4 SLOAD PUSH1 0xFF AND DUP2 JUMP JUMPDEST PUSH1 0x4 SLOAD PUSH1 0x0 SWAP1 PUSH1 0x1 PUSH1 0x1 PUSH1 0xA0 SHL SUB DUP4 DUP2 AND PUSH2 0x100 SWAP1 SWAP3 DIV AND EQ PUSH2 0x1306 JUMPI POP PUSH1 0x0 PUSH2 0xD4E JUMP JUMPDEST PUSH1 0x0 JUMPDEST PUSH1 0x6 SLOAD DUP2 LT ISZERO PUSH2 0x13FE JUMPI PUSH1 0x0 PUSH1 0x6 DUP3 DUP2 SLOAD DUP2 LT PUSH2 0x1322 JUMPI INVALID JUMPDEST PUSH1 0x0 SWAP2 DUP3 MSTORE PUSH1 0x20 DUP1 DUP4 KECCAK256 SWAP1 SWAP2 ADD SLOAD DUP1 DUP4 MSTORE PUSH1 0x5 DUP3 MSTORE PUSH1 0x40 SWAP3 DUP4 SWAP1 KECCAK256 SLOAD PUSH1 0x4 DUP1 SLOAD DUP6 MLOAD PUSH4 0x21F8A721 PUSH1 0xE0 SHL DUP2 MSTORE SWAP2 DUP3 ADD DUP5 SWAP1 MSTORE SWAP5 MLOAD SWAP3 SWAP6 POP PUSH1 0x1 PUSH1 0x1 PUSH1 0xA0 SHL SUB SWAP2 DUP3 AND SWAP5 PUSH2 0x100 SWAP1 DIV SWAP1 SWAP2 AND SWAP3 PUSH4 0x21F8A721 SWAP3 PUSH1 0x24 DUP1 DUP5 ADD SWAP4 DUP3 SWAP1 SUB ADD DUP2 DUP7 DUP1 EXTCODESIZE ISZERO DUP1 ISZERO PUSH2 0x138E JUMPI PUSH1 0x0 DUP1 REVERT JUMPDEST POP GAS STATICCALL ISZERO DUP1 ISZERO PUSH2 0x13A2 JUMPI RETURNDATASIZE PUSH1 0x0 DUP1 RETURNDATACOPY RETURNDATASIZE PUSH1 0x0 REVERT JUMPDEST POP POP POP POP PUSH1 0x40 MLOAD RETURNDATASIZE PUSH1 0x20 DUP2 LT ISZERO PUSH2 0x13B8 JUMPI PUSH1 0x0 DUP1 REVERT JUMPDEST POP MLOAD PUSH1 0x1 PUSH1 0x1 PUSH1 0xA0 SHL SUB AND EQ ISZERO DUP1 PUSH2 0x13E5 JUMPI POP PUSH1 0x0 DUP2 DUP2 MSTORE PUSH1 0x5 PUSH1 0x20 MSTORE PUSH1 0x40 SWAP1 KECCAK256 SLOAD PUSH1 0x1 PUSH1 0x1 PUSH1 0xA0 SHL SUB AND ISZERO JUMPDEST ISZERO PUSH2 0x13F5 JUMPI PUSH1 0x0 SWAP3 POP POP POP PUSH2 0xD4E JUMP JUMPDEST POP PUSH1 0x1 ADD PUSH2 0x1309 JUMP JUMPDEST POP PUSH1 0x1 SWAP3 SWAP2 POP POP JUMP JUMPDEST PUSH1 0x0 PUSH2 0x1411 PUSH2 0x1A80 JUMP JUMPDEST SWAP1 POP SWAP1 JUMP JUMPDEST PUSH1 0x0 SWAP1 DUP2 MSTORE PUSH1 0x9 PUSH1 0x20 MSTORE PUSH1 0x40 SWAP1 KECCAK256 PUSH1 0x3 ADD SLOAD SWAP1 JUMP JUMPDEST PUSH1 0x2 SLOAD PUSH1 0x1 PUSH1 0x1 PUSH1 0xA0 SHL SUB AND CALLER EQ PUSH2 0x1474 JUMPI PUSH1 0x40 MLOAD PUSH3 0x461BCD PUSH1 0xE5 SHL DUP2 MSTORE PUSH1 0x4 ADD DUP1 DUP1 PUSH1 0x20 ADD DUP3 DUP2 SUB DUP3 MSTORE PUSH1 0x35 DUP2 MSTORE PUSH1 0x20 ADD DUP1 PUSH2 0x209A PUSH1 0x35 SWAP2 CODECOPY PUSH1 0x40 ADD SWAP2 POP POP PUSH1 0x40 MLOAD DUP1 SWAP2 SUB SWAP1 REVERT JUMPDEST PUSH1 0x1 SLOAD PUSH1 0x2 SLOAD PUSH1 0x40 DUP1 MLOAD PUSH1 0x1 PUSH1 0x1 PUSH1 0xA0 SHL SUB SWAP4 DUP5 AND DUP2 MSTORE SWAP3 SWAP1 SWAP2 AND PUSH1 0x20 DUP4 ADD MSTORE DUP1 MLOAD PUSH32 0xB532073B38C83145E3E5135377A08BF9AAB55BC0FD7C1179CD4FB995D2A5159C SWAP3 DUP2 SWAP1 SUB SWAP1 SWAP2 ADD SWAP1 LOG1 PUSH1 0x2 DUP1 SLOAD PUSH1 0x1 DUP1 SLOAD PUSH1 0x1 PUSH1 0x1 PUSH1 0xA0 SHL SUB NOT SWAP1 DUP2 AND PUSH1 0x1 PUSH1 0x1 PUSH1 0xA0 SHL SUB DUP5 AND OR SWAP1 SWAP2 SSTORE AND SWAP1 SSTORE JUMP JUMPDEST PUSH1 0x1 SLOAD PUSH1 0x1 PUSH1 0x1 PUSH1 0xA0 SHL SUB AND DUP2 JUMP JUMPDEST PUSH1 0x3 SLOAD DUP2 JUMP JUMPDEST PUSH1 0x0 SWAP1 DUP2 MSTORE PUSH1 0x9 PUSH1 0x20 MSTORE PUSH1 0x40 SWAP1 KECCAK256 PUSH1 0x2 ADD SLOAD SWAP1 JUMP JUMPDEST PUSH1 0x0 PUSH2 0x1411 PUSH1 0x8 SLOAD PUSH2 0x1521 PUSH2 0x1A80 JUMP JUMPDEST PUSH1 0x1 PUSH1 0x1 PUSH1 0xA0 SHL SUB AND PUSH4 0x70A08231 ADDRESS PUSH1 0x40 MLOAD DUP3 PUSH4 0xFFFFFFFF AND PUSH1 0xE0 SHL DUP2 MSTORE PUSH1 0x4 ADD DUP1 DUP3 PUSH1 0x1 PUSH1 0x1 PUSH1 0xA0 SHL SUB AND PUSH1 0x1 PUSH1 0x1 PUSH1 0xA0 SHL SUB AND DUP2 MSTORE PUSH1 0x20 ADD SWAP2 POP POP PUSH1 0x20 PUSH1 0x40 MLOAD DUP1 DUP4 SUB DUP2 DUP7 DUP1 EXTCODESIZE ISZERO DUP1 ISZERO PUSH2 0x1576 JUMPI PUSH1 0x0 DUP1 REVERT JUMPDEST POP GAS STATICCALL ISZERO DUP1 ISZERO PUSH2 0x158A JUMPI RETURNDATASIZE PUSH1 0x0 DUP1 RETURNDATACOPY RETURNDATASIZE PUSH1 0x0 REVERT JUMPDEST POP POP POP POP PUSH1 0x40 MLOAD RETURNDATASIZE PUSH1 0x20 DUP2 LT ISZERO PUSH2 0x15A0 JUMPI PUSH1 0x0 DUP1 REVERT JUMPDEST POP MLOAD SWAP1 PUSH4 0xFFFFFFFF PUSH2 0x1AE1 AND JUMP JUMPDEST PUSH2 0x15B6 PUSH2 0x207A JUMP JUMPDEST PUSH1 0x0 JUMPDEST PUSH1 0x6 SLOAD DUP2 LT ISZERO PUSH2 0x15F4 JUMPI PUSH1 0x6 DUP2 DUP2 SLOAD DUP2 LT PUSH2 0x15D0 JUMPI INVALID JUMPDEST SWAP1 PUSH1 0x0 MSTORE PUSH1 0x20 PUSH1 0x0 KECCAK256 ADD SLOAD DUP3 DUP3 PUSH1 0x18 DUP2 LT PUSH2 0x15E7 JUMPI INVALID JUMPDEST PUSH1 0x20 MUL ADD MSTORE PUSH1 0x1 ADD PUSH2 0x15B9 JUMP JUMPDEST POP SWAP1 JUMP JUMPDEST PUSH2 0x1600 PUSH2 0x19C7 JUMP JUMPDEST PUSH2 0x1609 DUP3 PUSH2 0x1A10 JUMP JUMPDEST PUSH1 0x7 SLOAD DUP2 LT PUSH2 0x165F JUMPI PUSH1 0x40 DUP1 MLOAD PUSH3 0x461BCD PUSH1 0xE5 SHL DUP2 MSTORE PUSH1 0x20 PUSH1 0x4 DUP3 ADD MSTORE PUSH1 0x1A PUSH1 0x24 DUP3 ADD MSTORE PUSH32 0x43616E6E6F74207265636F7665722066726F6D20616374697665000000000000 PUSH1 0x44 DUP3 ADD MSTORE SWAP1 MLOAD SWAP1 DUP2 SWAP1 SUB PUSH1 0x64 ADD SWAP1 REVERT JUMPDEST PUSH1 0x0 DUP2 DUP2 MSTORE PUSH1 0x9 PUSH1 0x20 MSTORE PUSH1 0x40 SWAP1 KECCAK256 PUSH1 0x3 DUP2 ADD SLOAD PUSH2 0x16C3 JUMPI PUSH1 0x40 DUP1 MLOAD PUSH3 0x461BCD PUSH1 0xE5 SHL DUP2 MSTORE PUSH1 0x20 PUSH1 0x4 DUP3 ADD MSTORE PUSH1 0x1F PUSH1 0x24 DUP3 ADD MSTORE PUSH32 0x4E6F207265776172647320617661696C61626C6520746F207265636F76657200 PUSH1 0x44 DUP3 ADD MSTORE SWAP1 MLOAD SWAP1 DUP2 SWAP1 SUB PUSH1 0x64 ADD SWAP1 REVERT JUMPDEST PUSH1 0x3 DUP2 ADD SLOAD PUSH2 0x16D5 DUP5 DUP3 PUSH2 0xFD6 PUSH2 0x1A80 JUMP JUMPDEST PUSH1 0x8 SLOAD PUSH2 0x16E8 SWAP1 DUP3 PUSH4 0xFFFFFFFF PUSH2 0x1AE1 AND JUMP JUMPDEST PUSH1 0x8 SSTORE PUSH1 0x0 DUP4 DUP2 MSTORE PUSH1 0x9 PUSH1 0x20 SWAP1 DUP2 MSTORE PUSH1 0x40 DUP1 DUP4 KECCAK256 DUP1 SLOAD PUSH1 0xFF NOT AND DUP2 SSTORE PUSH1 0x1 DUP2 ADD DUP5 SWAP1 SSTORE PUSH1 0x2 DUP2 ADD DUP5 SWAP1 SSTORE PUSH1 0x3 ADD SWAP3 SWAP1 SWAP3 SSTORE DUP2 MLOAD PUSH1 0x1 PUSH1 0x1 PUSH1 0xA0 SHL SUB DUP8 AND DUP2 MSTORE SWAP1 DUP2 ADD DUP4 SWAP1 MSTORE DUP1 DUP3 ADD DUP6 SWAP1 MSTORE SWAP1 MLOAD PUSH32 0x60F2CAEBB6D06055322FCE1F0DB429F6BC0A48534C8C9BA42359A80F36BB7F0C SWAP2 DUP2 SWAP1 SUB PUSH1 0x60 ADD SWAP1 LOG1 POP POP POP POP JUMP JUMPDEST PUSH1 0x0 DUP1 SLOAD PUSH1 0x1 ADD SWAP1 DUP2 SWAP1 SSTORE PUSH1 0x4 SLOAD PUSH1 0xFF AND ISZERO PUSH2 0x17B2 JUMPI PUSH1 0x40 MLOAD PUSH3 0x461BCD PUSH1 0xE5 SHL DUP2 MSTORE PUSH1 0x4 ADD DUP1 DUP1 PUSH1 0x20 ADD DUP3 DUP2 SUB DUP3 MSTORE PUSH1 0x3C DUP2 MSTORE PUSH1 0x20 ADD DUP1 PUSH2 0x211F PUSH1 0x3C SWAP2 CODECOPY PUSH1 0x40 ADD SWAP2 POP POP PUSH1 0x40 MLOAD DUP1 SWAP2 SUB SWAP1 REVERT JUMPDEST PUSH2 0x17BC CALLER DUP4 PUSH2 0x1B9C JUMP JUMPDEST PUSH1 0x0 SLOAD DUP2 EQ PUSH2 0x1165 JUMPI PUSH1 0x40 DUP1 MLOAD PUSH3 0x461BCD PUSH1 0xE5 SHL DUP2 MSTORE PUSH1 0x20 PUSH1 0x4 DUP3 ADD MSTORE PUSH1 0x1F PUSH1 0x24 DUP3 ADD MSTORE PUSH32 0x5265656E7472616E637947756172643A207265656E7472616E742063616C6C00 PUSH1 0x44 DUP3 ADD MSTORE SWAP1 MLOAD SWAP1 DUP2 SWAP1 SUB PUSH1 0x64 ADD SWAP1 REVERT JUMPDEST PUSH1 0x6 DUP2 DUP2 SLOAD DUP2 LT PUSH2 0x181F JUMPI INVALID JUMPDEST PUSH1 0x0 SWAP2 DUP3 MSTORE PUSH1 0x20 SWAP1 SWAP2 KECCAK256 ADD SLOAD SWAP1 POP DUP2 JUMP JUMPDEST PUSH1 0x0 PUSH2 0x183C DUP4 DUP4 PUSH2 0x1CFB JUMP JUMPDEST SWAP1 POP JUMPDEST SWAP3 SWAP2 POP POP JUMP JUMPDEST PUSH1 0xA SLOAD PUSH1 0x1 PUSH1 0x1 PUSH1 0xA0 SHL SUB AND SWAP1 JUMP JUMPDEST PUSH1 0x18 DUP2 JUMP JUMPDEST PUSH1 0x0 DUP1 SLOAD PUSH1 0x1 ADD SWAP1 DUP2 SWAP1 SSTORE PUSH1 0x4 SLOAD PUSH1 0xFF AND ISZERO PUSH2 0x18A6 JUMPI PUSH1 0x40 MLOAD PUSH3 0x461BCD PUSH1 0xE5 SHL DUP2 MSTORE PUSH1 0x4 ADD DUP1 DUP1 PUSH1 0x20 ADD DUP3 DUP2 SUB DUP3 MSTORE PUSH1 0x3C DUP2 MSTORE PUSH1 0x20 ADD DUP1 PUSH2 0x211F PUSH1 0x3C SWAP2 CODECOPY PUSH1 0x40 ADD SWAP2 POP POP PUSH1 0x40 MLOAD DUP1 SWAP2 SUB SWAP1 REVERT JUMPDEST PUSH1 0x0 JUMPDEST DUP3 DUP2 LT ISZERO PUSH2 0x18DB JUMPI PUSH1 0x0 DUP5 DUP5 DUP4 DUP2 DUP2 LT PUSH2 0x18BF JUMPI INVALID JUMPDEST SWAP1 POP PUSH1 0x20 MUL ADD CALLDATALOAD SWAP1 POP PUSH2 0x18D2 CALLER DUP3 PUSH2 0x1B9C JUMP JUMPDEST POP PUSH1 0x1 ADD PUSH2 0x18A9 JUMP JUMPDEST POP PUSH1 0x0 SLOAD DUP2 EQ PUSH2 0x1932 JUMPI PUSH1 0x40 DUP1 MLOAD PUSH3 0x461BCD PUSH1 0xE5 SHL DUP2 MSTORE PUSH1 0x20 PUSH1 0x4 DUP3 ADD MSTORE PUSH1 0x1F PUSH1 0x24 DUP3 ADD MSTORE PUSH32 0x5265656E7472616E637947756172643A207265656E7472616E742063616C6C00 PUSH1 0x44 DUP3 ADD MSTORE SWAP1 MLOAD SWAP1 DUP2 SWAP1 SUB PUSH1 0x64 ADD SWAP1 REVERT JUMPDEST POP POP POP JUMP JUMPDEST PUSH1 0x23 SLOAD PUSH1 0x1 PUSH1 0x1 PUSH1 0xA0 SHL SUB AND DUP2 JUMP JUMPDEST PUSH1 0x0 SWAP1 DUP2 MSTORE PUSH1 0x9 PUSH1 0x20 SWAP1 DUP2 MSTORE PUSH1 0x40 DUP1 DUP4 KECCAK256 PUSH1 0x1 PUSH1 0x1 PUSH1 0xA0 SHL SUB SWAP5 SWAP1 SWAP5 AND DUP4 MSTORE PUSH1 0x4 SWAP1 SWAP4 ADD SWAP1 MSTORE KECCAK256 SLOAD SWAP1 JUMP JUMPDEST PUSH1 0x0 DUP1 JUMPDEST DUP3 DUP2 LT ISZERO PUSH2 0x19B9 JUMPI PUSH1 0x0 DUP5 DUP5 DUP4 DUP2 DUP2 LT PUSH2 0x198B JUMPI INVALID JUMPDEST SWAP1 POP PUSH1 0x20 MUL ADD CALLDATALOAD SWAP1 POP PUSH2 0x19AE PUSH2 0x19A1 DUP8 DUP4 PUSH2 0x1CFB JUMP JUMPDEST DUP5 SWAP1 PUSH4 0xFFFFFFFF PUSH2 0x1B3E AND JUMP JUMPDEST SWAP3 POP POP PUSH1 0x1 ADD PUSH2 0x1975 JUMP JUMPDEST POP SWAP4 SWAP3 POP POP POP JUMP JUMPDEST PUSH1 0x8 SLOAD SWAP1 JUMP JUMPDEST PUSH1 0x1 SLOAD PUSH1 0x1 PUSH1 0x1 PUSH1 0xA0 SHL SUB AND CALLER EQ PUSH2 0x12D6 JUMPI PUSH1 0x40 MLOAD PUSH3 0x461BCD PUSH1 0xE5 SHL DUP2 MSTORE PUSH1 0x4 ADD DUP1 DUP1 PUSH1 0x20 ADD DUP3 DUP2 SUB DUP3 MSTORE PUSH1 0x2F DUP2 MSTORE PUSH1 0x20 ADD DUP1 PUSH2 0x20CF PUSH1 0x2F SWAP2 CODECOPY PUSH1 0x40 ADD SWAP2 POP POP PUSH1 0x40 MLOAD DUP1 SWAP2 SUB SWAP1 REVERT JUMPDEST PUSH1 0x1 PUSH1 0x1 PUSH1 0xA0 SHL SUB DUP2 AND ISZERO DUP1 PUSH2 0x1A2E JUMPI POP PUSH1 0x1 PUSH1 0x1 PUSH1 0xA0 SHL SUB DUP2 AND ADDRESS EQ JUMPDEST ISZERO PUSH2 0xD38 JUMPI PUSH1 0x40 DUP1 MLOAD PUSH3 0x461BCD PUSH1 0xE5 SHL DUP2 MSTORE PUSH1 0x20 PUSH1 0x4 DUP3 ADD MSTORE PUSH1 0x17 PUSH1 0x24 DUP3 ADD MSTORE PUSH32 0x496E76616C6964207265636F7665722061646472657373000000000000000000 PUSH1 0x44 DUP3 ADD MSTORE SWAP1 MLOAD SWAP1 DUP2 SWAP1 SUB PUSH1 0x64 ADD SWAP1 REVERT JUMPDEST PUSH1 0x23 SLOAD PUSH1 0x1 PUSH1 0x1 PUSH1 0xA0 SHL SUB AND SWAP1 JUMP JUMPDEST PUSH1 0x40 DUP1 MLOAD PUSH1 0x1 PUSH1 0x1 PUSH1 0xA0 SHL SUB DUP5 AND PUSH1 0x24 DUP3 ADD MSTORE PUSH1 0x44 DUP1 DUP3 ADD DUP5 SWAP1 MSTORE DUP3 MLOAD DUP1 DUP4 SUB SWAP1 SWAP2 ADD DUP2 MSTORE PUSH1 0x64 SWAP1 SWAP2 ADD SWAP1 SWAP2 MSTORE PUSH1 0x20 DUP2 ADD DUP1 MLOAD PUSH1 0x1 PUSH1 0x1 PUSH1 0xE0 SHL SUB AND PUSH4 0xA9059CBB PUSH1 0xE0 SHL OR SWAP1 MSTORE PUSH2 0x1932 SWAP1 DUP5 SWAP1 PUSH2 0x1D9F JUMP JUMPDEST PUSH1 0x0 DUP3 DUP3 GT ISZERO PUSH2 0x1B38 JUMPI PUSH1 0x40 DUP1 MLOAD PUSH3 0x461BCD PUSH1 0xE5 SHL DUP2 MSTORE PUSH1 0x20 PUSH1 0x4 DUP3 ADD MSTORE PUSH1 0x1E PUSH1 0x24 DUP3 ADD MSTORE PUSH32 0x536166654D6174683A207375627472616374696F6E206F766572666C6F770000 PUSH1 0x44 DUP3 ADD MSTORE SWAP1 MLOAD SWAP1 DUP2 SWAP1 SUB PUSH1 0x64 ADD SWAP1 REVERT JUMPDEST POP SWAP1 SUB SWAP1 JUMP JUMPDEST PUSH1 0x0 DUP3 DUP3 ADD DUP4 DUP2 LT ISZERO PUSH2 0x183C JUMPI PUSH1 0x40 DUP1 MLOAD PUSH3 0x461BCD PUSH1 0xE5 SHL DUP2 MSTORE PUSH1 0x20 PUSH1 0x4 DUP3 ADD MSTORE PUSH1 0x1B PUSH1 0x24 DUP3 ADD MSTORE PUSH32 0x536166654D6174683A206164646974696F6E206F766572666C6F770000000000 PUSH1 0x44 DUP3 ADD MSTORE SWAP1 MLOAD SWAP1 DUP2 SWAP1 SUB PUSH1 0x64 ADD SWAP1 REVERT JUMPDEST CALLER SWAP1 JUMP JUMPDEST PUSH1 0x0 DUP2 DUP2 MSTORE PUSH1 0x9 PUSH1 0x20 MSTORE PUSH1 0x40 SWAP1 KECCAK256 DUP1 SLOAD PUSH1 0xFF AND PUSH2 0x1C00 JUMPI PUSH1 0x40 DUP1 MLOAD PUSH3 0x461BCD PUSH1 0xE5 SHL DUP2 MSTORE PUSH1 0x20 PUSH1 0x4 DUP3 ADD MSTORE PUSH1 0x17 PUSH1 0x24 DUP3 ADD MSTORE PUSH32 0x506572696F64206973206E6F742066696E616C697A6564000000000000000000 PUSH1 0x44 DUP3 ADD MSTORE SWAP1 MLOAD SWAP1 DUP2 SWAP1 SUB PUSH1 0x64 ADD SWAP1 REVERT JUMPDEST PUSH1 0x0 PUSH2 0x1C0C DUP5 DUP5 PUSH2 0x1CFB JUMP JUMPDEST SWAP1 POP PUSH1 0x0 DUP2 GT PUSH2 0x1C5A JUMPI PUSH1 0x40 DUP1 MLOAD PUSH3 0x461BCD PUSH1 0xE5 SHL DUP2 MSTORE PUSH1 0x20 PUSH1 0x4 DUP3 ADD MSTORE PUSH1 0x14 PUSH1 0x24 DUP3 ADD MSTORE PUSH20 0x4E6F207265776172647320617661696C61626C65 PUSH1 0x60 SHL PUSH1 0x44 DUP3 ADD MSTORE SWAP1 MLOAD SWAP1 DUP2 SWAP1 SUB PUSH1 0x64 ADD SWAP1 REVERT JUMPDEST PUSH1 0x1 PUSH1 0x1 PUSH1 0xA0 SHL SUB DUP5 AND PUSH1 0x0 SWAP1 DUP2 MSTORE PUSH1 0x4 DUP4 ADD PUSH1 0x20 MSTORE PUSH1 0x40 DUP2 KECCAK256 SSTORE PUSH1 0x3 DUP3 ADD SLOAD PUSH2 0x1C8A SWAP1 DUP3 PUSH4 0xFFFFFFFF PUSH2 0x1AE1 AND JUMP JUMPDEST PUSH1 0x3 DUP4 ADD SSTORE PUSH1 0x8 SLOAD PUSH2 0x1CA2 SWAP1 DUP3 PUSH4 0xFFFFFFFF PUSH2 0x1AE1 AND JUMP JUMPDEST PUSH1 0x8 SSTORE PUSH2 0x1CB2 DUP5 DUP3 PUSH2 0xFD6 PUSH2 0x1A80 JUMP JUMPDEST PUSH1 0x40 DUP1 MLOAD DUP3 DUP2 MSTORE PUSH1 0x20 DUP2 ADD DUP6 SWAP1 MSTORE DUP2 MLOAD PUSH1 0x1 PUSH1 0x1 PUSH1 0xA0 SHL SUB DUP8 AND SWAP3 PUSH32 0xDACBDDE355BA930696A362EA6738FEB9F8BD52DFB3D81947558FD3217E23E325 SWAP3 DUP3 SWAP1 SUB ADD SWAP1 LOG2 POP POP POP POP JUMP JUMPDEST PUSH1 0x0 DUP2 DUP2 MSTORE PUSH1 0x9 PUSH1 0x20 MSTORE PUSH1 0x40 DUP2 KECCAK256 PUSH1 0x3 DUP2 ADD SLOAD ISZERO DUP1 PUSH2 0x1D1C JUMPI POP PUSH1 0x1 DUP2 ADD SLOAD ISZERO JUMPDEST DUP1 PUSH2 0x1D29 JUMPI POP DUP1 SLOAD PUSH1 0xFF AND ISZERO JUMPDEST ISZERO PUSH2 0x1D38 JUMPI PUSH1 0x0 SWAP2 POP POP PUSH2 0x183F JUMP JUMPDEST PUSH1 0x1 PUSH1 0x1 PUSH1 0xA0 SHL SUB DUP5 AND PUSH1 0x0 SWAP1 DUP2 MSTORE PUSH1 0x4 DUP3 ADD PUSH1 0x20 MSTORE PUSH1 0x40 SWAP1 KECCAK256 SLOAD DUP1 PUSH2 0x1D63 JUMPI PUSH1 0x0 SWAP3 POP POP POP PUSH2 0x183F JUMP JUMPDEST PUSH1 0x0 PUSH2 0x1D7C DUP4 PUSH1 0x1 ADD SLOAD DUP4 PUSH2 0x1F5D SWAP1 SWAP2 SWAP1 PUSH4 0xFFFFFFFF AND JUMP JUMPDEST SWAP1 POP PUSH2 0x1D95 DUP4 PUSH1 0x2 ADD SLOAD DUP3 PUSH2 0x1F87 SWAP1 SWAP2 SWAP1 PUSH4 0xFFFFFFFF AND JUMP JUMPDEST SWAP7 SWAP6 POP POP POP POP POP POP JUMP JUMPDEST PUSH2 0x1DB1 DUP3 PUSH1 0x1 PUSH1 0x1 PUSH1 0xA0 SHL SUB AND PUSH2 0x1FB1 JUMP JUMPDEST PUSH2 0x1E02 JUMPI PUSH1 0x40 DUP1 MLOAD PUSH3 0x461BCD PUSH1 0xE5 SHL DUP2 MSTORE PUSH1 0x20 PUSH1 0x4 DUP3 ADD MSTORE PUSH1 0x1F PUSH1 0x24 DUP3 ADD MSTORE PUSH32 0x5361666545524332303A2063616C6C20746F206E6F6E2D636F6E747261637400 PUSH1 0x44 DUP3 ADD MSTORE SWAP1 MLOAD SWAP1 DUP2 SWAP1 SUB PUSH1 0x64 ADD SWAP1 REVERT JUMPDEST PUSH1 0x0 PUSH1 0x60 DUP4 PUSH1 0x1 PUSH1 0x1 PUSH1 0xA0 SHL SUB AND DUP4 PUSH1 0x40 MLOAD DUP1 DUP3 DUP1 MLOAD SWAP1 PUSH1 0x20 ADD SWAP1 DUP1 DUP4 DUP4 JUMPDEST PUSH1 0x20 DUP4 LT PUSH2 0x1E40 JUMPI DUP1 MLOAD DUP3 MSTORE PUSH1 0x1F NOT SWAP1 SWAP3 ADD SWAP2 PUSH1 0x20 SWAP2 DUP3 ADD SWAP2 ADD PUSH2 0x1E21 JUMP JUMPDEST PUSH1 0x1 DUP4 PUSH1 0x20 SUB PUSH2 0x100 EXP SUB DUP1 NOT DUP3 MLOAD AND DUP2 DUP5 MLOAD AND DUP1 DUP3 OR DUP6 MSTORE POP POP POP POP POP POP SWAP1 POP ADD SWAP2 POP POP PUSH1 0x0 PUSH1 0x40 MLOAD DUP1 DUP4 SUB DUP2 PUSH1 0x0 DUP7 GAS CALL SWAP2 POP POP RETURNDATASIZE DUP1 PUSH1 0x0 DUP2 EQ PUSH2 0x1EA2 JUMPI PUSH1 0x40 MLOAD SWAP2 POP PUSH1 0x1F NOT PUSH1 0x3F RETURNDATASIZE ADD AND DUP3 ADD PUSH1 0x40 MSTORE RETURNDATASIZE DUP3 MSTORE RETURNDATASIZE PUSH1 0x0 PUSH1 0x20 DUP5 ADD RETURNDATACOPY PUSH2 0x1EA7 JUMP JUMPDEST PUSH1 0x60 SWAP2 POP JUMPDEST POP SWAP2 POP SWAP2 POP DUP2 PUSH2 0x1EFE JUMPI PUSH1 0x40 DUP1 MLOAD PUSH3 0x461BCD PUSH1 0xE5 SHL DUP2 MSTORE PUSH1 0x20 PUSH1 0x4 DUP3 ADD DUP2 SWAP1 MSTORE PUSH1 0x24 DUP3 ADD MSTORE PUSH32 0x5361666545524332303A206C6F772D6C6576656C2063616C6C206661696C6564 PUSH1 0x44 DUP3 ADD MSTORE SWAP1 MLOAD SWAP1 DUP2 SWAP1 SUB PUSH1 0x64 ADD SWAP1 REVERT JUMPDEST DUP1 MLOAD ISZERO PUSH2 0x1F57 JUMPI DUP1 DUP1 PUSH1 0x20 ADD SWAP1 MLOAD PUSH1 0x20 DUP2 LT ISZERO PUSH2 0x1F1A JUMPI PUSH1 0x0 DUP1 REVERT JUMPDEST POP MLOAD PUSH2 0x1F57 JUMPI PUSH1 0x40 MLOAD PUSH3 0x461BCD PUSH1 0xE5 SHL DUP2 MSTORE PUSH1 0x4 ADD DUP1 DUP1 PUSH1 0x20 ADD DUP3 DUP2 SUB DUP3 MSTORE PUSH1 0x2A DUP2 MSTORE PUSH1 0x20 ADD DUP1 PUSH2 0x215B PUSH1 0x2A SWAP2 CODECOPY PUSH1 0x40 ADD SWAP2 POP POP PUSH1 0x40 MLOAD DUP1 SWAP2 SUB SWAP1 REVERT JUMPDEST POP POP POP POP JUMP JUMPDEST PUSH1 0x0 PUSH2 0x183C DUP3 PUSH2 0x1F7B DUP6 PUSH8 0xDE0B6B3A7640000 PUSH4 0xFFFFFFFF PUSH2 0x1FB7 AND JUMP JUMPDEST SWAP1 PUSH4 0xFFFFFFFF PUSH2 0x2010 AND JUMP JUMPDEST PUSH1 0x0 PUSH8 0xDE0B6B3A7640000 PUSH2 0x1FA2 DUP5 DUP5 PUSH4 0xFFFFFFFF PUSH2 0x1FB7 AND JUMP JUMPDEST DUP2 PUSH2 0x1FA9 JUMPI INVALID JUMPDEST DIV SWAP4 SWAP3 POP POP POP JUMP JUMPDEST EXTCODESIZE ISZERO ISZERO SWAP1 JUMP JUMPDEST PUSH1 0x0 DUP3 PUSH2 0x1FC6 JUMPI POP PUSH1 0x0 PUSH2 0x183F JUMP JUMPDEST DUP3 DUP3 MUL DUP3 DUP5 DUP3 DUP2 PUSH2 0x1FD3 JUMPI INVALID JUMPDEST DIV EQ PUSH2 0x183C JUMPI PUSH1 0x40 MLOAD PUSH3 0x461BCD PUSH1 0xE5 SHL DUP2 MSTORE PUSH1 0x4 ADD DUP1 DUP1 PUSH1 0x20 ADD DUP3 DUP2 SUB DUP3 MSTORE PUSH1 0x21 DUP2 MSTORE PUSH1 0x20 ADD DUP1 PUSH2 0x20FE PUSH1 0x21 SWAP2 CODECOPY PUSH1 0x40 ADD SWAP2 POP POP PUSH1 0x40 MLOAD DUP1 SWAP2 SUB SWAP1 REVERT JUMPDEST PUSH1 0x0 DUP1 DUP3 GT PUSH2 0x2066 JUMPI PUSH1 0x40 DUP1 MLOAD PUSH3 0x461BCD PUSH1 0xE5 SHL DUP2 MSTORE PUSH1 0x20 PUSH1 0x4 DUP3 ADD MSTORE PUSH1 0x1A PUSH1 0x24 DUP3 ADD MSTORE PUSH32 0x536166654D6174683A206469766973696F6E206279207A65726F000000000000 PUSH1 0x44 DUP3 ADD MSTORE SWAP1 MLOAD SWAP1 DUP2 SWAP1 SUB PUSH1 0x64 ADD SWAP1 REVERT JUMPDEST PUSH1 0x0 DUP3 DUP5 DUP2 PUSH2 0x2071 JUMPI INVALID JUMPDEST DIV SWAP5 SWAP4 POP POP POP POP JUMP JUMPDEST PUSH1 0x40 MLOAD DUP1 PUSH2 0x300 ADD PUSH1 0x40 MSTORE DUP1 PUSH1 0x18 SWAP1 PUSH1 0x20 DUP3 MUL DUP1 CODESIZE DUP4 CODECOPY POP SWAP2 SWAP3 SWAP2 POP POP JUMP INVALID MSIZE PUSH16 0x75206D757374206265206E6F6D696E61 PUSH21 0x6564206265666F726520796F752063616E20616363 PUSH6 0x7074206F776E PUSH6 0x72736869704F PUSH15 0x6C792074686520636F6E7472616374 KECCAK256 PUSH16 0x776E6572206D617920706572666F726D KECCAK256 PUSH21 0x68697320616374696F6E536166654D6174683A206D PUSH22 0x6C7469706C69636174696F6E206F766572666C6F7754 PUSH9 0x697320616374696F6E KECCAK256 PUSH4 0x616E6E6F PUSH21 0x20626520706572666F726D6564207768696C652074 PUSH9 0x6520636F6E74726163 PUSH21 0x206973207061757365645361666545524332303A20 GASLIMIT MSTORE NUMBER ORIGIN ADDRESS KECCAK256 PUSH16 0x7065726174696F6E20646964206E6F74 KECCAK256 PUSH20 0x756363656564A265627A7A7231582094812A40CE SSTORE 0x29 0xA5 0xDD 0xB8 SWAP1 GASPRICE DUP1 0x4A 0x1E DUP8 PUSH7 0xE7E7D8671F0B84 ADDRESS 0x26 0xDA 0xBF DELEGATECALL STOP PUSH23 0x7264736F6C634300051000320000000000000000000000 "
		}
	}
}