{
	"abi": [
		{
			"inputs": [
				{
					"internalType": "address payable",
					"name": "_proxy",
					"type": "address"
				},
				{
					"internalType": "address",
					"name": "_owner",
					"type": "address"
				},
				{
					"internalType": "address",
					"name": "_resolver",
					"type": "address"
				}
			],
			"payable": false,
			"stateMutability": "nonpayable",
			"type": "constructor"
		},
		{
			"anonymous": false,
			"inputs": [
				{
					"indexed": false,
					"internalType": "uint256",
					"name": "feePeriodId",
					"type": "uint256"
				}
			],
			"name": "FeePeriodClosed",
			"type": "event"
		},
		{
			"anonymous": false,
			"inputs": [
				{
					"indexed": false,
					"internalType": "address",
					"name": "account",
					"type": "address"
				},
				{
					"indexed": false,
					"internalType": "uint256",
					"name": "sUSDAmount",
					"type": "uint256"
				},
				{
					"indexed": false,
					"internalType": "uint256",
					"name": "snxRewards",
					"type": "uint256"
				}
			],
			"name": "FeesClaimed",
			"type": "event"
		},
		{
			"anonymous": false,
			"inputs": [
				{
					"indexed": true,
					"internalType": "address",
					"name": "account",
					"type": "address"
				},
				{
					"indexed": false,
					"internalType": "uint256",
					"name": "debtRatio",
					"type": "uint256"
				},
				{
					"indexed": false,
					"internalType": "uint256",
					"name": "debtEntryIndex",
					"type": "uint256"
				},
				{
					"indexed": false,
					"internalType": "uint256",
					"name": "feePeriodStartingDebtIndex",
					"type": "uint256"
				}
			],
			"name": "IssuanceDebtRatioEntry",
			"type": "event"
		},
		{
			"anonymous": false,
			"inputs": [
				{
					"indexed": false,
					"internalType": "address",
					"name": "oldOwner",
					"type": "address"
				},
				{
					"indexed": false,
					"internalType": "address",
					"name": "newOwner",
					"type": "address"
				}
			],
			"name": "OwnerChanged",
			"type": "event"
		},
		{
			"anonymous": false,
			"inputs": [
				{
					"indexed": false,
					"internalType": "address",
					"name": "newOwner",
					"type": "address"
				}
			],
			"name": "OwnerNominated",
			"type": "event"
		},
		{
			"anonymous": false,
			"inputs": [
				{
					"indexed": false,
					"internalType": "address",
					"name": "proxyAddress",
					"type": "address"
				}
			],
			"name": "ProxyUpdated",
			"type": "event"
		},
		{
			"anonymous": false,
			"inputs": [
				{
					"indexed": false,
					"internalType": "address",
					"name": "newBeneficiary",
					"type": "address"
				}
			],
			"name": "SelfDestructBeneficiaryUpdated",
			"type": "event"
		},
		{
			"anonymous": false,
			"inputs": [
				{
					"indexed": false,
					"internalType": "uint256",
					"name": "selfDestructDelay",
					"type": "uint256"
				}
			],
			"name": "SelfDestructInitiated",
			"type": "event"
		},
		{
			"anonymous": false,
			"inputs": [],
			"name": "SelfDestructTerminated",
			"type": "event"
		},
		{
			"anonymous": false,
			"inputs": [
				{
					"indexed": false,
					"internalType": "address",
					"name": "beneficiary",
					"type": "address"
				}
			],
			"name": "SelfDestructed",
			"type": "event"
		},
		{
			"constant": true,
			"inputs": [],
			"name": "FEE_ADDRESS",
			"outputs": [
				{
					"internalType": "address",
					"name": "",
					"type": "address"
				}
			],
			"payable": false,
			"stateMutability": "view",
			"type": "function"
		},
		{
			"constant": true,
			"inputs": [],
			"name": "FEE_PERIOD_LENGTH",
			"outputs": [
				{
					"internalType": "uint8",
					"name": "",
					"type": "uint8"
				}
			],
			"payable": false,
			"stateMutability": "view",
			"type": "function"
		},
		{
			"constant": true,
			"inputs": [],
			"name": "MAX_ADDRESSES_FROM_RESOLVER",
			"outputs": [
				{
					"internalType": "uint256",
					"name": "",
					"type": "uint256"
				}
			],
			"payable": false,
			"stateMutability": "view",
			"type": "function"
		},
		{
			"constant": true,
			"inputs": [],
			"name": "SELFDESTRUCT_DELAY",
			"outputs": [
				{
					"internalType": "uint256",
					"name": "",
					"type": "uint256"
				}
			],
			"payable": false,
			"stateMutability": "view",
			"type": "function"
		},
		{
			"constant": false,
			"inputs": [],
			"name": "acceptOwnership",
			"outputs": [],
			"payable": false,
			"stateMutability": "nonpayable",
			"type": "function"
		},
		{
			"constant": false,
			"inputs": [
				{
					"internalType": "address",
					"name": "account",
					"type": "address"
				},
				{
					"internalType": "uint256",
					"name": "debtRatio",
					"type": "uint256"
				},
				{
					"internalType": "uint256",
					"name": "debtEntryIndex",
					"type": "uint256"
				}
			],
			"name": "appendAccountIssuanceRecord",
			"outputs": [],
			"payable": false,
			"stateMutability": "nonpayable",
			"type": "function"
		},
		{
			"constant": false,
			"inputs": [
				{
					"internalType": "address",
					"name": "account",
					"type": "address"
				},
				{
					"internalType": "uint256",
					"name": "quantity",
					"type": "uint256"
				}
			],
			"name": "appendVestingEntry",
			"outputs": [],
			"payable": false,
			"stateMutability": "nonpayable",
			"type": "function"
		},
		{
			"constant": false,
			"inputs": [],
			"name": "claimFees",
			"outputs": [
				{
					"internalType": "bool",
					"name": "",
					"type": "bool"
				}
			],
			"payable": false,
			"stateMutability": "nonpayable",
			"type": "function"
		},
		{
			"constant": false,
			"inputs": [
				{
					"internalType": "address",
					"name": "claimingForAddress",
					"type": "address"
				}
			],
			"name": "claimOnBehalf",
			"outputs": [
				{
					"internalType": "bool",
					"name": "",
					"type": "bool"
				}
			],
			"payable": false,
			"stateMutability": "nonpayable",
			"type": "function"
		},
		{
			"constant": false,
			"inputs": [],
			"name": "closeCurrentFeePeriod",
			"outputs": [],
			"payable": false,
			"stateMutability": "nonpayable",
			"type": "function"
		},
		{
			"constant": true,
			"inputs": [
				{
					"internalType": "address",
					"name": "account",
					"type": "address"
				},
				{
					"internalType": "uint256",
					"name": "period",
					"type": "uint256"
				}
			],
			"name": "effectiveDebtRatioForPeriod",
			"outputs": [
				{
					"internalType": "uint256",
					"name": "",
					"type": "uint256"
				}
			],
			"payable": false,
			"stateMutability": "view",
			"type": "function"
		},
		{
			"constant": true,
			"inputs": [],
			"name": "feePeriodDuration",
			"outputs": [
				{
					"internalType": "uint256",
					"name": "",
					"type": "uint256"
				}
			],
			"payable": false,
			"stateMutability": "view",
			"type": "function"
		},
		{
			"constant": true,
			"inputs": [
				{
					"internalType": "address",
					"name": "account",
					"type": "address"
				}
			],
			"name": "feesAvailable",
			"outputs": [
				{
					"internalType": "uint256",
					"name": "",
					"type": "uint256"
				},
				{
					"internalType": "uint256",
					"name": "",
					"type": "uint256"
				}
			],
			"payable": false,
			"stateMutability": "view",
			"type": "function"
		},
		{
			"constant": true,
			"inputs": [
				{
					"internalType": "address",
					"name": "account",
					"type": "address"
				}
			],
			"name": "feesByPeriod",
			"outputs": [
				{
					"internalType": "uint256[2][2]",
					"name": "results",
					"type": "uint256[2][2]"
				}
			],
			"payable": false,
			"stateMutability": "view",
			"type": "function"
		},
		{
			"constant": true,
			"inputs": [
				{
					"internalType": "address",
					"name": "_claimingAddress",
					"type": "address"
				}
			],
			"name": "getLastFeeWithdrawal",
			"outputs": [
				{
					"internalType": "uint256",
					"name": "",
					"type": "uint256"
				}
			],
			"payable": false,
			"stateMutability": "view",
			"type": "function"
		},
		{
			"constant": true,
			"inputs": [],
			"name": "getPenaltyThresholdRatio",
			"outputs": [
				{
					"internalType": "uint256",
					"name": "",
					"type": "uint256"
				}
			],
			"payable": false,
			"stateMutability": "view",
			"type": "function"
		},
		{
			"constant": true,
			"inputs": [],
			"name": "getResolverAddressesRequired",
			"outputs": [
				{
					"internalType": "bytes32[24]",
					"name": "addressesRequired",
					"type": "bytes32[24]"
				}
			],
			"payable": false,
			"stateMutability": "view",
			"type": "function"
		},
		{
			"constant": false,
			"inputs": [
				{
					"internalType": "uint256",
					"name": "feePeriodIndex",
					"type": "uint256"
				},
				{
					"internalType": "uint256",
					"name": "feePeriodId",
					"type": "uint256"
				},
				{
					"internalType": "uint256",
					"name": "startingDebtIndex",
					"type": "uint256"
				},
				{
					"internalType": "uint256",
					"name": "startTime",
					"type": "uint256"
				},
				{
					"internalType": "uint256",
					"name": "feesToDistribute",
					"type": "uint256"
				},
				{
					"internalType": "uint256",
					"name": "feesClaimed",
					"type": "uint256"
				},
				{
					"internalType": "uint256",
					"name": "rewardsToDistribute",
					"type": "uint256"
				},
				{
					"internalType": "uint256",
					"name": "rewardsClaimed",
					"type": "uint256"
				}
			],
			"name": "importFeePeriod",
			"outputs": [],
			"payable": false,
			"stateMutability": "nonpayable",
			"type": "function"
		},
		{
			"constant": false,
			"inputs": [],
			"name": "initiateSelfDestruct",
			"outputs": [],
			"payable": false,
			"stateMutability": "nonpayable",
			"type": "function"
		},
		{
			"constant": true,
			"inputs": [],
			"name": "initiationTime",
			"outputs": [
				{
					"internalType": "uint256",
					"name": "",
					"type": "uint256"
				}
			],
			"payable": false,
			"stateMutability": "view",
			"type": "function"
		},
		{
			"constant": true,
			"inputs": [],
			"name": "integrationProxy",
			"outputs": [
				{
					"internalType": "contract Proxy",
					"name": "",
					"type": "address"
				}
			],
			"payable": false,
			"stateMutability": "view",
			"type": "function"
		},
		{
			"constant": true,
			"inputs": [
				{
					"internalType": "address",
					"name": "account",
					"type": "address"
				}
			],
			"name": "isFeesClaimable",
			"outputs": [
				{
					"internalType": "bool",
					"name": "feesClaimable",
					"type": "bool"
				}
			],
			"payable": false,
			"stateMutability": "view",
			"type": "function"
		},
		{
			"constant": true,
			"inputs": [
				{
					"internalType": "contract AddressResolver",
					"name": "_resolver",
					"type": "address"
				}
			],
			"name": "isResolverCached",
			"outputs": [
				{
					"internalType": "bool",
					"name": "",
					"type": "bool"
				}
			],
			"payable": false,
			"stateMutability": "view",
			"type": "function"
		},
		{
			"constant": true,
			"inputs": [],
			"name": "issuanceRatio",
			"outputs": [
				{
					"internalType": "uint256",
					"name": "",
					"type": "uint256"
				}
			],
			"payable": false,
			"stateMutability": "view",
			"type": "function"
		},
		{
			"constant": true,
			"inputs": [],
			"name": "messageSender",
			"outputs": [
				{
					"internalType": "address",
					"name": "",
					"type": "address"
				}
			],
			"payable": false,
			"stateMutability": "view",
			"type": "function"
		},
		{
			"constant": false,
			"inputs": [
				{
					"internalType": "address",
					"name": "_owner",
					"type": "address"
				}
			],
			"name": "nominateNewOwner",
			"outputs": [],
			"payable": false,
			"stateMutability": "nonpayable",
			"type": "function"
		},
		{
			"constant": true,
			"inputs": [],
			"name": "nominatedOwner",
			"outputs": [
				{
					"internalType": "address",
					"name": "",
					"type": "address"
				}
			],
			"payable": false,
			"stateMutability": "view",
			"type": "function"
		},
		{
			"constant": true,
			"inputs": [],
			"name": "owner",
			"outputs": [
				{
					"internalType": "address",
					"name": "",
					"type": "address"
				}
			],
			"payable": false,
			"stateMutability": "view",
			"type": "function"
		},
		{
			"constant": true,
			"inputs": [],
			"name": "proxy",
			"outputs": [
				{
					"internalType": "contract Proxy",
					"name": "",
					"type": "address"
				}
			],
			"payable": false,
			"stateMutability": "view",
			"type": "function"
		},
		{
			"constant": true,
			"inputs": [
				{
					"internalType": "uint256",
					"name": "index",
					"type": "uint256"
				}
			],
			"name": "recentFeePeriods",
			"outputs": [
				{
					"internalType": "uint64",
					"name": "feePeriodId",
					"type": "uint64"
				},
				{
					"internalType": "uint64",
					"name": "startingDebtIndex",
					"type": "uint64"
				},
				{
					"internalType": "uint64",
					"name": "startTime",
					"type": "uint64"
				},
				{
					"internalType": "uint256",
					"name": "feesToDistribute",
					"type": "uint256"
				},
				{
					"internalType": "uint256",
					"name": "feesClaimed",
					"type": "uint256"
				},
				{
					"internalType": "uint256",
					"name": "rewardsToDistribute",
					"type": "uint256"
				},
				{
					"internalType": "uint256",
					"name": "rewardsClaimed",
					"type": "uint256"
				}
			],
			"payable": false,
			"stateMutability": "view",
			"type": "function"
		},
		{
			"constant": false,
			"inputs": [
				{
					"internalType": "uint256",
					"name": "amount",
					"type": "uint256"
				}
			],
			"name": "recordFeePaid",
			"outputs": [],
			"payable": false,
			"stateMutability": "nonpayable",
			"type": "function"
		},
		{
			"constant": true,
			"inputs": [],
			"name": "resolver",
			"outputs": [
				{
					"internalType": "contract AddressResolver",
					"name": "",
					"type": "address"
				}
			],
			"payable": false,
			"stateMutability": "view",
			"type": "function"
		},
		{
			"constant": true,
			"inputs": [
				{
					"internalType": "uint256",
					"name": "",
					"type": "uint256"
				}
			],
			"name": "resolverAddressesRequired",
			"outputs": [
				{
					"internalType": "bytes32",
					"name": "",
					"type": "bytes32"
				}
			],
			"payable": false,
			"stateMutability": "view",
			"type": "function"
		},
		{
			"constant": false,
			"inputs": [],
			"name": "selfDestruct",
			"outputs": [],
			"payable": false,
			"stateMutability": "nonpayable",
			"type": "function"
		},
		{
			"constant": true,
			"inputs": [],
			"name": "selfDestructBeneficiary",
			"outputs": [
				{
					"internalType": "address",
					"name": "",
					"type": "address"
				}
			],
			"payable": false,
			"stateMutability": "view",
			"type": "function"
		},
		{
			"constant": true,
			"inputs": [],
			"name": "selfDestructInitiated",
			"outputs": [
				{
					"internalType": "bool",
					"name": "",
					"type": "bool"
				}
			],
			"payable": false,
			"stateMutability": "view",
			"type": "function"
		},
		{
			"constant": false,
			"inputs": [
				{
					"internalType": "address payable",
					"name": "_integrationProxy",
					"type": "address"
				}
			],
			"name": "setIntegrationProxy",
			"outputs": [],
			"payable": false,
			"stateMutability": "nonpayable",
			"type": "function"
		},
		{
			"constant": false,
			"inputs": [
				{
					"internalType": "address",
					"name": "sender",
					"type": "address"
				}
			],
			"name": "setMessageSender",
			"outputs": [],
			"payable": false,
			"stateMutability": "nonpayable",
			"type": "function"
		},
		{
			"constant": false,
			"inputs": [
				{
					"internalType": "address payable",
					"name": "_proxy",
					"type": "address"
				}
			],
			"name": "setProxy",
			"outputs": [],
			"payable": false,
			"stateMutability": "nonpayable",
			"type": "function"
		},
		{
			"constant": false,
			"inputs": [
				{
					"internalType": "contract AddressResolver",
					"name": "_resolver",
					"type": "address"
				}
			],
			"name": "setResolverAndSyncCache",
			"outputs": [],
			"payable": false,
			"stateMutability": "nonpayable",
			"type": "function"
		},
		{
			"constant": false,
			"inputs": [
				{
					"internalType": "uint256",
					"name": "amount",
					"type": "uint256"
				}
			],
			"name": "setRewardsToDistribute",
			"outputs": [],
			"payable": false,
			"stateMutability": "nonpayable",
			"type": "function"
		},
		{
			"constant": false,
			"inputs": [
				{
					"internalType": "address payable",
					"name": "_beneficiary",
					"type": "address"
				}
			],
			"name": "setSelfDestructBeneficiary",
			"outputs": [],
			"payable": false,
			"stateMutability": "nonpayable",
			"type": "function"
		},
		{
			"constant": true,
			"inputs": [],
			"name": "setupExpiryTime",
			"outputs": [
				{
					"internalType": "uint256",
					"name": "",
					"type": "uint256"
				}
			],
			"payable": false,
			"stateMutability": "view",
			"type": "function"
		},
		{
			"constant": true,
			"inputs": [],
			"name": "targetThreshold",
			"outputs": [
				{
					"internalType": "uint256",
					"name": "",
					"type": "uint256"
				}
			],
			"payable": false,
			"stateMutability": "view",
			"type": "function"
		},
		{
			"constant": false,
			"inputs": [],
			"name": "terminateSelfDestruct",
			"outputs": [],
			"payable": false,
			"stateMutability": "nonpayable",
			"type": "function"
		},
		{
			"constant": true,
			"inputs": [],
			"name": "totalFeesAvailable",
			"outputs": [
				{
					"internalType": "uint256",
					"name": "",
					"type": "uint256"
				}
			],
			"payable": false,
			"stateMutability": "view",
			"type": "function"
		},
		{
			"constant": true,
			"inputs": [],
			"name": "totalRewardsAvailable",
			"outputs": [
				{
					"internalType": "uint256",
					"name": "",
					"type": "uint256"
				}
			],
			"payable": false,
			"stateMutability": "view",
			"type": "function"
		}
	],
	"evm": {
		"bytecode": {
			"linkReferences": {
				"FeePool.sol": {
					"SafeDecimalMath": [
						{
							"length": 20,
							"start": 12748
						}
					]
				}
			},
			"object": "6080604052631cd554d160e21b600b6200001862000934565b5050604051610160810160409081526b53797374656d53746174757360a01b8252680a6f2dce8d0cae8d2f60bb1b60208301526b466565506f6f6c537461746560a01b908201527f466565506f6f6c457465726e616c53746f72616765000000000000000000000060608201526822bc31b430b733b2b960b91b60808201526524b9b9bab2b960d11b60a08201526d53796e746865746978537461746560901b60c08201526b526577617264457363726f7760a01b60e08201527044656c6567617465417070726f76616c7360781b6101008201527f4574686572436f6c6c61746572616c73555344000000000000000000000000006101208201527f52657761726473446973747269627574696f6e000000000000000000000000006101408201526200014b90601790600b62000998565b50348015620001645760008062000161620009e6565b50505b5060405162005cce38038062005cce83398181016040526060811015620001955760008062000192620009e6565b50505b8101908080519291906020018051929190602001805192508291506017905060186103006040519081016040529190610300830182845b81620001d762000a53565b81526020019060010190808311620001cc575050505050621baf80858560006001600160a01b0316816001600160a01b03161415620002675760405162461bcd60e51b815260206004820152601960248201527f4f776e657220616464726573732063616e6e6f7420626520300000000000000060448201526064016040518091039062000264620009e6565b50505b8060006001816200027762000a53565b816001600160a01b0302191690836001600160a01b03160217906200029b62000934565b5050507fb532073b38c83145e3e5135377a08bf9aab55bc0fd7c1179cd4fb995d2a5159c6000826040516001600160a01b039283168152911660208201526040908101905180910390a15060008080620002f462000a53565b906101000a90046001600160a01b03166001600160a01b031614156200035f5760405162461bcd60e51b815260206004820152601160248201527013dddb995c881b5d5cdd081899481cd95d607a1b6044820152606401604051809103906200035c620009e6565b50505b8060026001816200036f62000a53565b816001600160a01b0302191690836001600160a01b03160217906200039362000934565b5050507ffc80377ca9c49cc11ae6982f390a42db976d5530af7c43889264b13fbbd7c57e816040516001600160a01b03909116815260200160405180910390a15060008080620003e262000a53565b906101000a90046001600160a01b03166001600160a01b031614156200044d5760405162461bcd60e51b815260206004820152601160248201527013dddb995c881b5d5cdd081899481cd95d607a1b6044820152606401604051809103906200044a620009e6565b50505b6000806200045a62000a53565b906101000a90046001600160a01b0316600660016101000a816200047d62000a53565b816001600160a01b0302191690836001600160a01b0316021790620004a162000934565b5050507fd5da63a0b864b315bc04128dedbc93888c8529ee6cf47ce664dc204339228c5360008090620004d362000a53565b906101000a90046001600160a01b03166040516001600160a01b03909116815260200160405180910390a1805a6200050a62000aa0565b018060076200051862000934565b5050505060006001600160a01b0316600080906200053562000a53565b906101000a90046001600160a01b03166001600160a01b03161415620005a05760405162461bcd60e51b815260206004820152601160248201527013dddb995c881b5d5cdd081899481cd95d607a1b6044820152606401604051809103906200059d620009e6565b50505b60005b601881101562000630576000828260188110620005bc57fe5b6020020151146200062157600a828260188110620005d657fe5b60200201519080600181620005ea62000a53565b018082620005f762000934565b50506000928352916000198301915060209020919291016200061862000934565b50505062000627565b62000630565b600101620005a3565b508160086001816200064162000a53565b816001600160a01b0302191690836001600160a01b03160217906200066562000934565b50505050506200068d6e466c657869626c6553746f7261676560881b6200073860201b60201c565b6001620006a460006001600160e01b036200090216565b600181620006b162000a53565b816001600160401b0302191690836001600160401b0316021790620006d562000934565b5050505a620006e362000aa0565b620006f860006001600160e01b036200090216565b600160801b816200070862000a53565b816001600160401b0302191690836001600160401b03160217906200072c62000934565b50505050505062000c1e565b80600a806001816200074962000a53565b0180826200075662000934565b50506000928352916000198301915060209020919291016200077762000934565b5050506018600a806200078962000a53565b905010620007e85760405162461bcd60e51b815260206004820152601b60248201527f4d6178207265736f6c7665722063616368652073697a65206d65740000000000604482015260640160405180910390620007e5620009e6565b50505b60006008620007f662000a53565b906101000a90046001600160a01b03166001600160a01b03166321f8a721826040516001600160e01b031960e084901b168152600481019190915260240160206040518083038186806200084962000ae7565b15801562000861576000806200085e620009e6565b50505b505a6200086d62000b34565b50505050501580156200088f573d6000803e3d60006200088c620009e6565b50505b505050506040513d6020811015620008b157600080620008ae620009e6565b50505b8101908080516000858152600960205290935060409250905020600181620008d862000a53565b816001600160a01b0302191690836001600160a01b0316021790620008fc62000934565b50505050565b6000600c60028360166200091562000a53565b01816200091e57fe5b06600281106200092a57fe5b6005020192915050565b6322bd64c0598160e01b8152836004820152846024820152600081604483336000905af158600e01573d6000803e3d6000fd5b3d6001141558600a015760016000f35b60005b604081101562000993576000828201526020016200097a565b505050565b8260188101928215620009d4579160200282015b82811115620009d457825182620009c262000934565b505091602001919060010190620009ac565b50620009e292915062000bf1565b5090565b632a2a7adb598160e01b8152600481016020815285602082015260005b8681101562000a2057808601518282016040015260200162000a03565b506020828760640184336000905af158600e01573d6000803e3d6000fd5b3d6001141558600a015760016000f35b505050565b6303daa959598160e01b8152836004820152602081602483336000905af158600e01573d6000803e3d6000fd5b3d6001141558600a015760016000f35b805160008252935060206200097a565b63bdbf8c36598160e01b8152602081600483336000905af158600e01573d6000803e3d6000fd5b3d6001141558600a015760016000f35b805160008252935060206200097a565b638435035b598160e01b8152836004820152602081602483336000905af158600e01573d6000803e3d6000fd5b3d6001141558600a015760016000f35b805160008252935060206200097a565b638540661f598160e01b8152836004820152846024820152606060448201528660648201526084810160005b8881101562000b7a57808801518282015260200162000b60565b50876101040182016060838a6101040185336000905af158600e01573d6000803e3d6000fd5b3d6001141558600a015760016000f35b825160408401513d6000863e8c8c82606088013350600060045af15059855b8181101562000be5576000815260200162000bcf565b50919c50505050505050565b62000c1b91905b80821115620009e2576000808262000c0f62000934565b50505060010162000bf8565b90565b6150a08062000c2e6000396000f3fe608060405234801561001957600080610016614a89565b50505b506004361061031e5760003560e01c806386645274116101b0578063bc67f832116100f7578063d67bdd25116100a0578063eb1edd611161007a578063eb1edd61146108e0578063ec556889146108e8578063fd1f498d146108f05761031e565b8063d67bdd25146108c8578063e0e6393d146108d0578063e3235c91146108d85761031e565b8063c6c9d828116100d1578063c6c9d8281461087c578063cff2ddad146108a2578063d294f093146108c05761031e565b8063bc67f8321461083d578063bd32aa441461086c578063c58aaae6146108745761031e565b8063ab49848c11610159578063b410a03411610133578063b410a034146107f8578063b5ddb9c714610800578063b8225dec146108355761031e565b8063ab49848c1461075e578063ac8341931461079f578063b10090b8146107a75761031e565b80639cb8a26a1161018a5780639cb8a26a146107465780639cbdaeb61461074e578063a461fc82146107565761031e565b806386645274146106d45780638da5cb5b1461070f57806397107d6d146107175761031e565b80633314001611610274578063569249d01161021d5780636466f45e116101f75780636466f45e146106955780636de813f1146106c457806379ba5097146106cc5761031e565b8063569249d01461061b57806359a2f19f14610623578063631e1444146106665761031e565b80633fcd22401161024e5780633fcd22401461059a57806346ba2d901461060b57806353a47bb7146106135761031e565b806333140016146104da5780633be99e6f146105635780633ebc457a146105925761031e565b80631627540c116102d657806322425fa4116102b057806322425fa4146104a457806322bf55ef146104ac5780633278c960146104d25761031e565b80631627540c1461043e57806317c70de41461046d57806320714f88146104755761031e565b80630813071c116103075780630813071c146103915780630de58615146103c6578063131b0ae71461040d5761031e565b806304f3bcec1461032c57806307ea50cd14610350575b600080610329614a89565b50505b610334610916565b6040516001600160a01b03909116815260200160405180910390f35b61037f6004803603602081101561036f5760008061036c614a89565b50505b50356001600160a01b0316610935565b60405190815260200160405180910390f35b61037f600480360360408110156103b0576000806103ad614a89565b50505b506001600160a01b038135169060200135610a51565b6103f5600480360360208110156103e5576000806103e2614a89565b50505b50356001600160a01b0316610c66565b60405191825260208201526040908101905180910390f35b61043c6004803603602081101561042c57600080610429614a89565b50505b50356001600160a01b0316610ceb565b005b61043c6004803603602081101561045d5760008061045a614a89565b50505b50356001600160a01b0316610d29565b61037f610da3565b61043c6004803603602081101561049457600080610491614a89565b50505b50356001600160a01b0316610db0565b61037f610e8f565b61043c600480360360208110156104cb576000806104c8614a89565b50505b5035610e9e565b61043c611069565b610509600480360360208110156104f9576000806104f6614a89565b50505b50356001600160a01b03166110da565b6040516000826002835b818410156105535782846020020151604080838360005b8381101561054257808201518382015260200161052a565b505050509050019260010192610513565b9250505091505060405180910390f35b61043c600480360360208110156105825760008061057f614a89565b50505b50356001600160a01b03166113b6565b61043c611580565b6105c0600480360360208110156105b9576000806105b6614a89565b50505b5035611ab3565b60405167ffffffffffffffff97881681529587166020870152939095166040808601919091526060850192909252608084015260a083019390935260c082015260e001905180910390f35b61037f611bc0565b610334611bca565b61037f611bd6565b610652600480360360208110156106425760008061063f614a89565b50505b50356001600160a01b0316611c3f565b604051901515815260200160405180910390f35b6106526004803603602081101561068557600080610682614a89565b50505b50356001600160a01b0316611c51565b610652600480360360208110156106b4576000806106b1614a89565b50505b50356001600160a01b0316611e2b565b61037f611ff0565b61043c612039565b61043c600480360360608110156106f3576000806106f0614a89565b50505b506001600160a01b0381351690602081013590604001356121bc565b61033461234e565b61043c6004803603602081101561073657600080610733614a89565b50505b50356001600160a01b0316612359565b61043c6123d4565b610334612517565b61037f612523565b61076661252a565b604051808261030080838360005b8381101561078c578082015183820152602001610774565b5050505090500191505060405180910390f35b61037f61258c565b61043c60048036036101008110156107c7576000806107c4614a89565b50505b5080359060208101359060408101359060608101359060808101359060a08101359060c08101359060e00135612663565b61037f61294e565b61043c6004803603604081101561081f5760008061081c614a89565b50505b506001600160a01b038135169060200135612958565b610652612af2565b61043c6004803603602081101561085c57600080610859614a89565b50505b50356001600160a01b0316612b0b565b61043c612b21565b610334612ba3565b61037f6004803603602081101561089b57600080610898614a89565b50505b5035612baf565b6108aa612bd7565b60405160ff909116815260200160405180910390f35b610652612bdc565b610334612c87565b61037f612c93565b61037f612c9d565b610334612ca2565b610334612cba565b61043c6004803603602081101561090f5760008061090c614a89565b50505b5035612cc6565b60006008610922614af4565b906101000a90046001600160a01b031681565b600061093f612db6565b6001600160a01b031663bdc963d87f6c6173745f6665655f7769746864726177616c000000000000000000000000008460405160200180838152602001826001600160a01b03166001600160a01b031660601b815260140192505050604051602081830303815290604052805190602001206040516001600160e01b031960e084901b168152600481019190915260240160206040518083038186806109e3614b4f565b1580156109f8576000806109f5614a89565b50505b505a610a02614b9b565b5050505050158015610a21573d6000803e3d6000610a1e614a89565b50505b505050506040513d6020811015610a4057600080610a3d614a89565b50505b81019080805193505050505b919050565b600081610aad5760405162461bcd60e51b815260206004820181905260248201527f43757272656e7420706572696f64206973206e6f7420636c6f73656420796574604482015260640160405180910390610aaa614a89565b50505b60028210610b0a5760405162461bcd60e51b815260206004820152601d60248201527f4578636565647320746865204645455f504552494f445f4c454e475448000000604482015260640160405180910390610b07614a89565b50505b610b1660018303612df8565b600890610b21614af4565b67ffffffffffffffff6101009290920a900416610b4057506000610c60565b6000610b7d6001610b5360018603612df8565b600890610b5e614af4565b67ffffffffffffffff6101009290920a9004169063ffffffff612e2616565b9050600080610b8a612e8b565b6001600160a01b031663d29c000a87856040516001600160e01b031960e085901b1681526001600160a01b039092166004830152602482015260440160408051808303818680610bd8614b4f565b158015610bed57600080610bea614a89565b50505b505a610bf7614b9b565b5050505050158015610c16573d6000803e3d6000610c13614a89565b50505b505050506040513d6040811015610c3557600080610c32614a89565b50505b8101908080519291906020018051939550929350610c5a925085915084905083612eea565b93505050505b92915050565b600080610c71614c54565b610c7a846110da565b905060008060015b6002811015610cde57610cad848260028110610c9a57fe5b602002015151849063ffffffff61307516565b9250610cd4848260028110610cbe57fe5b602002015160200151839063ffffffff61307516565b9150600101610c82565b509093509150505b915091565b610cf36130de565b806003600181610d01614af4565b816001600160a01b0302191690836001600160a01b0316021790610d23614c81565b50505050565b610d316130de565b8060018080610d3e614af4565b816001600160a01b0302191690836001600160a01b0316021790610d60614c81565b5050507f906a1c6bd7e3091ea86693dd029a831c19049ce77f1dce2ce0bab1cacbabce22816040516001600160a01b03909116815260200160405180910390a150565b6005610dad614af4565b81565b610db86130de565b6001600160a01b038116610e1b5760405162461bcd60e51b815260206004820152601c60248201527f42656e6566696369617279206d757374206e6f74206265207a65726f00000000604482015260640160405180910390610e18614a89565b50505b80600661010081610e2a614af4565b816001600160a01b0302191690836001600160a01b0316021790610e4c614c81565b5050507fd5da63a0b864b315bc04128dedbc93888c8529ee6cf47ce664dc204339228c53816040516001600160a01b03909116815260200160405180910390a150565b6000610e99613158565b905090565b6000610ea8613254565b6001600160a01b03165a610eba614ccf565b6001600160a01b0316149050600080610ed16132b3565b6001600160a01b03166316b2213f5a610ee8614ccf565b6040516001600160e01b031960e084901b1681526001600160a01b0390911660048201526024016020604051808303818680610f22614b4f565b158015610f3757600080610f34614a89565b50505b505a610f41614b9b565b5050505050158015610f60573d6000803e3d6000610f5d614a89565b50505b505050506040513d6020811015610f7f57600080610f7c614a89565b50505b8101908080519390931415935060009250610f9c91506133129050565b6001600160a01b03165a610fae614ccf565b6001600160a01b03161490508280610fc35750815b80610fcb5750805b6110245760405162461bcd60e51b815260206004820152601760248201527f4f6e6c7920496e7465726e616c20436f6e747261637473000000000000000000604482015260640160405180910390611021614a89565b50505b611049846110326000612df8565b60010161103d614af4565b9063ffffffff61307516565b6110536000612df8565b6001018190611060614c81565b50505050505050565b6110716130de565b600080600561107e614c81565b5050506000600660006101000a81611094614af4565b8160ff021916908315150217906110a9614c81565b5050507f6adcc7125002935e0aa31697538ebbd65cfddf20431eb6ecdcfc3e238bfd082c60405160405180910390a1565b6110e2614c54565b60008060006110ef612e8b565b9050806001600160a01b031663b326f84e8660006040516001600160e01b031960e085901b1681526001600160a01b039092166004830152602482015260440160408051808303818680611141614b4f565b15801561115657600080611153614a89565b50505b505a611160614b9b565b505050505015801561117f573d6000803e3d600061117c614a89565b50505b505050506040513d604081101561119e5760008061119b614a89565b50505b810190808051929190602001805193965092945050831591505080156111c2575082155b156111da576111cf614c54565b9350610a4c92505050565b6000806111e960008686613354565b90925090508186515280865160200152600061120488610935565b905060015b80156113aa576000198101600061121f82612df8565b60089061122a614af4565b906101000a900467ffffffffffffffff1667ffffffffffffffff169050600081118015611284575061125b83612df8565b600090611266614af4565b906101000a900467ffffffffffffffff1667ffffffffffffffff1684105b1561139f57600061129c82600163ffffffff612e2616565b9050876001600160a01b031663d29c000a8d836040516001600160e01b031960e085901b1681526001600160a01b0390921660048301526024820152604401604080518083038186806112ed614b4f565b158015611302576000806112ff614a89565b50505b505a61130c614b9b565b505050505015801561132b573d6000803e3d6000611328614a89565b50505b505050506040513d604081101561134a57600080611347614a89565b50505b8101908080519291906020018051939d50929b5061136f92508691508c90508b613354565b9097509550868b856002811061138157fe5b602002015152858b856002811061139457fe5b602002015160200152505b505060001901611209565b50505050505050919050565b6113be6130de565b8060086001816113cc614af4565b816001600160a01b0302191690836001600160a01b03160217906113ee614c81565b5060009150505b600a80611400614af4565b905081101561157c576000600a8281611417614af4565b811061141f57fe5b90600052602060002001611431614af4565b90506000600861143f614af4565b906101000a90046001600160a01b03166001600160a01b031663dacb2d01826040516001600160e01b031960e084901b1681526004810191909152604060248201819052601760448301527f5265736f6c766572206d697373696e67207461726765740000000000000000006064830152608490910190602090518083038186806114c8614b4f565b1580156114dd576000806114da614a89565b50505b505a6114e7614b9b565b5050505050158015611506573d6000803e3d6000611503614a89565b50505b505050506040513d602081101561152557600080611522614a89565b50505b810190808051600085815260096020529093506040925090502060018161154a614af4565b816001600160a01b0302191690836001600160a01b031602179061156c614c81565b5050600190920191506113f59050565b5050565b6115886133ec565b6001600160a01b0316637c3125416040518163ffffffff1660e01b815260040160006040518083038186806115bb614b4f565b1580156115d0576000806115cd614a89565b50505b505a6115da614b9b565b50505050501580156115f9573d6000803e3d60006115f6614a89565b50505b505050506000611607613158565b116116615760405162461bcd60e51b815260206004820152601b60248201527f46656520506572696f64204475726174696f6e206e6f7420736574000000000060448201526064016040518091039061165e614a89565b50505b611669613158565b5a611672614d15565b0361167d6000612df8565b601090611688614af4565b906101000a900467ffffffffffffffff1667ffffffffffffffff1611156116fe5760405162461bcd60e51b815260206004820152601d60248201527f546f6f206561726c7920746f20636c6f73652066656520706572696f640000006044820152606401604051809103906116fb614a89565b50505b600061170981612df8565b905060006117176001612df8565b905061174f82600101611728614af4565b61103d83600201611737614af4565b84600101611743614af4565b9063ffffffff612e2616565b6117596000612df8565b6001018190611766614c81565b50505061179382600301611778614af4565b61103d83600401611787614af4565b84600301611743614af4565b61179d6000612df8565b60030181906117aa614c81565b506117d39150600290506117c7600161174383601661103d614af4565b9063ffffffff61344b16565b8060166117de614c81565b505050600c60166117ed614af4565b600281106117f757fe5b60050201600081600181611809614af4565b9067ffffffffffffffff0219169061181f614c81565b508290506801000000000000000081611836614af4565b9067ffffffffffffffff0219169061184c614c81565b508290507001000000000000000000000000000000008161186b614af4565b9067ffffffffffffffff02191690611881614c81565b505060018201600090611892614c81565b5050600282016000906118a3614c81565b5050600382016000906118b4614c81565b5050600482016000906118c5614c81565b5050505061190260016118d86001612df8565b6000906118e3614af4565b67ffffffffffffffff6101009290920a9004169063ffffffff61307516565b61190c6000612df8565b600181611917614af4565b8167ffffffffffffffff021916908367ffffffffffffffff1602179061193b614c81565b5050506119466134b8565b6001600160a01b031663cd92eba96040518163ffffffff1660e01b81526004016020604051808303818680611979614b4f565b15801561198e5760008061198b614a89565b50505b505a611998614b9b565b50505050501580156119b7573d6000803e3d60006119b4614a89565b50505b505050506040513d60208110156119d6576000806119d3614a89565b50505b81019080805192506119ec915060009050612df8565b68010000000000000000816119ff614af4565b8167ffffffffffffffff021916908367ffffffffffffffff16021790611a23614c81565b5050505a611a2f614d15565b611a396000612df8565b70010000000000000000000000000000000081611a54614af4565b8167ffffffffffffffff021916908367ffffffffffffffff16021790611a78614c81565b50505061157c611a886001612df8565b600090611a93614af4565b906101000a900467ffffffffffffffff1667ffffffffffffffff16613517565b6000806000806000806000611ac6614d5b565b611acf89612df8565b60405160e081016040529081600082611ae6614af4565b67ffffffffffffffff6101009290920a9004168152602001600882611b09614af4565b67ffffffffffffffff6101009290920a9004168152602001601082611b2c614af4565b67ffffffffffffffff6101009290920a900416815260200160018201611b50614af4565b815260200160028201611b61614af4565b815260200160038201611b72614af4565b815260200160048201611b83614af4565b9052509050805181602001518260400151836060015184608001518560a001518660c00151959f949e50929c50909a509850965090945092505050565b6007610dad614af4565b60006001610922614af4565b60008060015b6002811015611c3957611c09611bf182612df8565b600101611bfc614af4565b839063ffffffff61307516565b9150611c2f611c1782612df8565b600201611c22614af4565b839063ffffffff612e2616565b9150600101611bdc565b50905090565b6000611c4a82613694565b5092915050565b60006001600160a01b038216816008611c68614af4565b906101000a90046001600160a01b03166001600160a01b031614611c8e57506000610a4c565b60005b600a80611c9c614af4565b9050811015611e22576000600a8281611cb3614af4565b8110611cbb57fe5b90600052602060002001611ccd614af4565b6000818152600960205290915060409020600090611ce9614af4565b6001600160a01b036101009290920a90041660006008611d07614af4565b906101000a90046001600160a01b03166001600160a01b03166321f8a721836040516001600160e01b031960e084901b16815260048101919091526024016020604051808303818680611d58614b4f565b158015611d6d57600080611d6a614a89565b50505b505a611d77614b9b565b5050505050158015611d96573d6000803e3d6000611d93614a89565b50505b505050506040513d6020811015611db557600080611db2614a89565b50505b8101908080516001600160a01b031693909314159250829150611e09905057506000818152600960205260408120600090611dee614af4565b906101000a90046001600160a01b03166001600160a01b0316145b15611e1957600092505050610a4c565b50600101611c91565b50600192915050565b6000611e356133ec565b6001600160a01b0316637c3125416040518163ffffffff1660e01b81526004016000604051808303818680611e68614b4f565b158015611e7d57600080611e7a614a89565b50505b505a611e87614b9b565b5050505050158015611ea6573d6000803e3d6000611ea3614a89565b50505b50505050611eb26137c9565b611eba61389f565b6001600160a01b03166321f4ae578360006004611ed5614af4565b906101000a90046001600160a01b03166040516001600160e01b031960e085901b1681526001600160a01b039283166004820152911660248201526044016020604051808303818680611f26614b4f565b158015611f3b57600080611f38614a89565b50505b505a611f45614b9b565b5050505050158015611f64573d6000803e3d6000611f61614a89565b50505b505050506040513d6020811015611f8357600080611f80614a89565b50505b8101908080519250611fe79150505760405162461bcd60e51b815260206004820152601f60248201527f4e6f7420617070726f76656420746f20636c61696d206f6e20626568616c6600604482015260640160405180910390611fe4614a89565b50505b610c60826138e1565b60008060015b6002811015611c395761201661200b82612df8565b600301611bfc614af4565b915061202f61202482612df8565b600401611c22614af4565b9150600101611ff6565b60006001612045614af4565b906101000a90046001600160a01b03166001600160a01b03165a612067614ccf565b6001600160a01b0316146120b55760405162461bcd60e51b8152600401808060200182810382526035815260200180614ecb60359139604001915050604051809103906120b2614a89565b50505b7fb532073b38c83145e3e5135377a08bf9aab55bc0fd7c1179cd4fb995d2a5159c6000806120e1614af4565b906101000a90046001600160a01b031660016000906120fe614af4565b906101000a90046001600160a01b03166040516001600160a01b039283168152911660208201526040908101905180910390a16000600161213d614af4565b906101000a90046001600160a01b03166000806101000a8161215d614af4565b816001600160a01b0302191690836001600160a01b031602179061217f614c81565b5050506000600160006101000a81612195614af4565b816001600160a01b0302191690836001600160a01b03160217906121b7614c81565b505050565b6121c46132b3565b6001600160a01b03165a6121d6614ccf565b6001600160a01b0316146122395760405162461bcd60e51b815260206004820152601f60248201527f466565506f6f6c3a204f6e6c792049737375657220417574686f726973656400604482015260640160405180910390612236614a89565b50505b612241612e8b565b6001600160a01b03166394e1a44884848461225c6000612df8565b600890612267614af4565b906101000a900467ffffffffffffffff166040516001600160e01b031960e087901b1681526001600160a01b0390941660048501526024840192909252604483015267ffffffffffffffff166064820152608401600060405180830381600087806122d0614b4f565b1580156122e5576000806122e2614a89565b50505b505a6122ef614d96565b50505050505015801561230f573d6000803e3d600061230c614a89565b50505b505050506121b78383836123236000612df8565b60089061232e614af4565b906101000a900467ffffffffffffffff1667ffffffffffffffff16613a93565b600080610922614af4565b6123616130de565b80600260018161236f614af4565b816001600160a01b0302191690836001600160a01b0316021790612391614c81565b5050507ffc80377ca9c49cc11ae6982f390a42db976d5530af7c43889264b13fbbd7c57e816040516001600160a01b03909116815260200160405180910390a150565b6123dc6130de565b600060066123e8614af4565b906101000a900460ff1661244b5760405162461bcd60e51b815260206004820152601f60248201527f53656c66204465737472756374206e6f742079657420696e6974696174656400604482015260640160405180910390612448614a89565b50505b5a612454614d15565b6224ea006005612462614af4565b01106124bd5760405162461bcd60e51b815260206004820152601b60248201527f53656c662064657374727563742064656c6179206e6f74206d657400000000006044820152606401604051809103906124ba614a89565b50505b7f8a09e1677ced846cb537dc2b172043bd05a1a81ad7e0033a7ef8ba762df990b7600160066124ea614af4565b906101000a90046001600160a01b03166040516001600160a01b03909116815260200160405180910390a1565b60006003610922614af4565b6224ea0081565b612532614e4f565b60005b600a80612540614af4565b905081101561258857600a8181612555614af4565b811061255d57fe5b9060005260206000200161256f614af4565b82826018811061257b57fe5b6020020152600101612535565b5090565b6000610e9961264f61259c613c18565b73__$f9217daff40bcb29719cec84f7ab900933$__63907af6c06040518163ffffffff1660e01b815260040160206040518083038186806125db614b4f565b1580156125f0576000806125ed614a89565b50505b505a6125fa614e6c565b5050505050158015612619573d6000803e3d6000612616614a89565b50505b505050506040513d602081101561263857600080612635614a89565b50505b8101908080519392505063ffffffff613075169050565b612657613ca9565b9063ffffffff613d3a16565b61266b613d64565b6007612675614af4565b5a61267e614d15565b106126c35760405162461bcd60e51b815260040180806020018281038252602981526020018061502f60299139604001915050604051809103906126c0614a89565b50505b6126cb6134b8565b6001600160a01b031663cd92eba96040518163ffffffff1660e01b815260040160206040518083038186806126fe614b4f565b15801561271357600080612710614a89565b50505b505a61271d614b9b565b505050505015801561273c573d6000803e3d6000612739614a89565b50505b505050506040513d602081101561275b57600080612758614a89565b50505b81019080805189111592506127c29150505760405162461bcd60e51b815260206004820152601660248201527f43616e6e6f7420696d706f7274206261642064617461000000000000000000006044820152606401604051809103906127bf614a89565b50505b6040518060e001604052808867ffffffffffffffff1681526020018767ffffffffffffffff1681526020018667ffffffffffffffff16815260200185815260200184815260200183815260200182815250600c61282b600260ff166117c78c601661103d614af4565b6002811061283557fe5b60050201815181600181612847614af4565b8167ffffffffffffffff021916908367ffffffffffffffff1602179061286b614c81565b5050506020820151816801000000000000000081612887614af4565b8167ffffffffffffffff021916908367ffffffffffffffff160217906128ab614c81565b505050604082015181700100000000000000000000000000000000816128cf614af4565b8167ffffffffffffffff021916908367ffffffffffffffff160217906128f3614c81565b505050606082015181600101612907614c81565b505060808201518160020161291a614c81565b505060a08201518160030161292d614c81565b505060c082015181600401612940614c81565b505050505050505050505050565b6000610e99613ca9565b612960613d64565b612968613ef9565b6001600160a01b03166323b872dd60006004612982614af4565b906101000a90046001600160a01b031661299a613f58565b846040516001600160e01b031960e086901b1681526001600160a01b0393841660048201529190921660248201526044810191909152606401602060405180830381600087806129e8614b4f565b1580156129fd576000806129fa614a89565b50505b505a612a07614d96565b505050505050158015612a27573d6000803e3d6000612a24614a89565b50505b505050506040513d6020811015612a4657600080612a43614a89565b50505b81019080805150612a5a9250613f58915050565b6001600160a01b031663b5ddb9c783836040516001600160e01b031960e085901b1681526001600160a01b039092166004830152602482015260440160006040518083038160008780612aab614b4f565b158015612ac057600080612abd614a89565b50505b505a612aca614d96565b505050505050158015612aea573d6000803e3d6000612ae7614a89565b50505b505050505050565b60006006612afe614af4565b906101000a900460ff1681565b612b13613fb7565b806004600181610d01614af4565b612b296130de565b5a612b32614d15565b806005612b3d614c81565b5050506001600660006101000a81612b53614af4565b8160ff02191690831515021790612b68614c81565b5050507fcbd94ca75b8dc45c9d80c77e851670e78843c0d75180cb81db3e2158228fa9a66224ea0060405190815260200160405180910390a1565b60016006610922614af4565b600a8181612bbb614af4565b8110612bc357fe5b906000526020600020019050610dad614af4565b600281565b6000612be66133ec565b6001600160a01b0316637c3125416040518163ffffffff1660e01b81526004016000604051808303818680612c19614b4f565b158015612c2e57600080612c2b614a89565b50505b505a612c38614b9b565b5050505050158015612c57573d6000803e3d6000612c54614a89565b50505b50505050612c636137c9565b610e9960006004612c72614af4565b906101000a90046001600160a01b03166138e1565b60006004610922614af4565b6000610e99613c18565b601881565b73feefeefeefeefeefeefeefeefeefeefeefeefeef81565b60006002610922614af4565b6000612cd0614084565b90506001600160a01b03811660006004612ce8614af4565b906101000a90046001600160a01b03166001600160a01b03161480612d265750806001600160a01b03165a612d1b614ccf565b6001600160a01b0316145b612d7f5760405162461bcd60e51b815260206004820152601e60248201527f43616c6c6572206973206e6f742072657761726473417574686f726974790000604482015260640160405180910390612d7c614a89565b50505b612d9882612d8d6000612df8565b60030161103d614af4565b612da26000612df8565b6003018190612daf614c81565b5050505050565b6000610e997f466565506f6f6c457465726e616c53746f72616765000000000000000000000060405160608101604052602580825261507b60208301396140c2565b6000600c6002836016612e09614af4565b0181612e1157fe5b0660028110612e1c57fe5b6005020192915050565b600082821115612e855760405162461bcd60e51b815260206004820152601e60248201527f536166654d6174683a207375627472616374696f6e206f766572666c6f770000604482015260640160405180910390612e82614a89565b50505b50900390565b6000610e997f466565506f6f6c5374617465000000000000000000000000000000000000000060405160408082019052601c81527f4d697373696e6720466565506f6f6c537461746520616464726573730000000060208201526140c2565b600080612ef56134b8565b9050600061306b8561305f846001600160a01b03166308d95cd5886040516001600160e01b031960e084901b16815260048101919091526024016020604051808303818680612f42614b4f565b158015612f5757600080612f54614a89565b50505b505a612f61614b9b565b5050505050158015612f80573d6000803e3d6000612f7d614a89565b50505b505050506040513d6020811015612f9f57600080612f9c614a89565b50505b810190808051925050506001600160a01b0386166308d95cd58b6040516001600160e01b031960e084901b16815260048101919091526024016020604051808303818680612feb614b4f565b15801561300057600080612ffd614a89565b50505b505a61300a614b9b565b5050505050158015613029573d6000803e3d6000613026614a89565b50505b505050506040513d602081101561304857600080613045614a89565b50505b8101908080519392505063ffffffff61418b169050565b9063ffffffff6141a416565b9695505050505050565b6000828201838110156130d75760405162461bcd60e51b815260206004820152601b60248201527f536166654d6174683a206164646974696f6e206f766572666c6f7700000000006044820152606401604051809103906130d4614a89565b50505b9392505050565b6000806130e9614af4565b906101000a90046001600160a01b03166001600160a01b03165a61310b614ccf565b6001600160a01b0316146131565760405162461bcd60e51b815260040180806020018281038252602f815260200180614fbc602f91396040019150506040518091039061157c614a89565b565b60006131626141bd565b6001600160a01b03166323257c2b7f53797374656d53657474696e67730000000000000000000000000000000000007f666565506572696f644475726174696f6e0000000000000000000000000000006040516001600160e01b031960e085901b1681526004810192909252602482015260440160206040518083038186806131e9614b4f565b1580156131fe576000806131fb614a89565b50505b505a613208614b9b565b5050505050158015613227573d6000803e3d6000613224614a89565b50505b505050506040513d602081101561324657600080613243614a89565b50505b810190808051935050505090565b6000610e997f45786368616e676572000000000000000000000000000000000000000000000060405160408082019052601981527f4d697373696e672045786368616e67657220616464726573730000000000000060208201526140c2565b6000610e997f497373756572000000000000000000000000000000000000000000000000000060405160408082019052601681527f4d697373696e672049737375657220616464726573730000000000000000000060208201526140c2565b6000610e997f4574686572436f6c6c61746572616c735553440000000000000000000000000060405160608101604052602380825261505860208301396140c2565b60008083613367575060009050806133e4565b8385156133925760006133816001610b5360018a03612df8565b905061338e818787612eea565b9150505b60006133ac826133a189612df8565b600101612657614af4565b905060006133c8836133bd8a612df8565b600301612657614af4565b90506133d38261421c565b6133dc8261421c565b945094505050505b935093915050565b6000610e997f53797374656d537461747573000000000000000000000000000000000000000060405160408082019052601c81527f4d697373696e672053797374656d53746174757320616464726573730000000060208201526140c2565b6000816134a75760405162461bcd60e51b815260206004820152601860248201527f536166654d6174683a206d6f64756c6f206279207a65726f00000000000000006044820152606401604051809103906134a4614a89565b50505b8183816134b057fe5b069392505050565b6000610e997f53796e746865746978537461746500000000000000000000000000000000000060405160408082019052601e81527f4d697373696e672053796e74686574697853746174652061646472657373000060208201526140c2565b60006002613523614af4565b906101000a90046001600160a01b03166001600160a01b031663907dff97826040516020018082815260200191505060405160208183030381529060405260016040517f466565506572696f64436c6f7365642875696e743235362900000000000000008152601801604051809103902060008060006040518763ffffffff1660e01b815260040180806020018781526020018681526020018560001b81526020018460001b81526020018360001b8152602001828103825288818151815260200191508051906020019080838360005b8381101561360c5780820151838201526020016135f4565b50505050905090810190601f1680156136395780820380516001836020036101000a031916815260200191505b5097505050505050505060006040518083038160008780613658614b4f565b15801561366d5760008061366a614a89565b50505b505a613677614d96565b505050505050158015612daf573d6000803e3d6000611060614a89565b6000806000806136a26132b3565b6001600160a01b031663ae3bbbbb866040516001600160e01b031960e084901b1681526001600160a01b039091166004820152602401604080518083038186806136ea614b4f565b1580156136ff576000806136fc614a89565b50505b505a613709614b9b565b5050505050158015613728573d6000803e3d6000613725614a89565b50505b505050506040513d604081101561374757600080613744614a89565b50505b81019080805192919060200180519395509293506000925061376b9150613ca99050565b9050808310156137835750600193509150610ce69050565b60006137a061379361259c613c18565b839063ffffffff613d3a16565b9050808411156137ba576000839550955050505050610ce6565b50600194509092505050915091565b600060026137d5614af4565b906101000a90046001600160a01b03166001600160a01b03165a6137f7614ccf565b6001600160a01b031614158015613843575060006003613815614af4565b906101000a90046001600160a01b03166001600160a01b03165a613837614ccf565b6001600160a01b031614155b801561388457505a613853614ccf565b6001600160a01b031660006004613868614af4565b906101000a90046001600160a01b03166001600160a01b031614155b15613156575a613892614ccf565b6004600181612195614af4565b6000610e997f44656c6567617465417070726f76616c73000000000000000000000000000000604051606081016040526021808252614f2460208301396140c2565b60008080808080806138f288613694565b91509150816139505760405162461bcd60e51b815260206004820152601f60248201527f432d526174696f2062656c6f772070656e616c7479207468726573686f6c640060448201526064016040518091039061394d614a89565b50505b80156139ab5760405162461bcd60e51b815260206004820152601e60248201527f412073796e7468206f7220534e58207261746520697320696e76616c696400006044820152606401604051809103906139a8614a89565b50505b6139b488610c66565b9094509250831515806139c75750600083115b613a0b5760405162461bcd60e51b8152600401808060200182810382526040815260200180614f7c6040913960400191505060405180910390613a08614a89565b50505b613a4488613a196001612df8565b600090613a24614af4565b906101000a900467ffffffffffffffff1667ffffffffffffffff1661423e565b8315613a5f57613a53846142f2565b9450613a5f88866143d6565b8215613a7a57613a6e8361460a565b9550613a7a88876146ef565b613a8588868861480a565b506001979650505050505050565b60006002613a9f614af4565b906101000a90046001600160a01b03166001600160a01b031663907dff978484846040516020018084815260200183815260200182815260200193505050506040516020818303038152906040526002604051806037614f458239603701905060405180910390206001600160a01b0389166000806040518763ffffffff1660e01b815260040180806020018781526020018681526020018581526020018460001b81526020018360001b8152602001828103825288818151815260200191508051906020019080838360005b83811015613b84578082015183820152602001613b6c565b50505050905090810190601f168015613bb15780820380516001836020036101000a031916815260200191505b5097505050505050505060006040518083038160008780613bd0614b4f565b158015613be557600080613be2614a89565b50505b505a613bef614d96565b505050505050158015612ae7573d6000803e3d6000613c0c614a89565b50505050505050505050565b6000613c226141bd565b6001600160a01b03166323257c2b7f53797374656d53657474696e67730000000000000000000000000000000000007f7461726765745468726573686f6c6400000000000000000000000000000000006040516001600160e01b031960e085901b1681526004810192909252602482015260440160206040518083038186806131e9614b4f565b6000613cb36141bd565b6001600160a01b03166323257c2b7f53797374656d53657474696e67730000000000000000000000000000000000007f69737375616e6365526174696f000000000000000000000000000000000000006040516001600160e01b031960e085901b1681526004810192909252602482015260440160206040518083038186806131e9614b4f565b6000670de0b6b3a7640000613d55848463ffffffff61494916565b81613d5c57fe5b049392505050565b60006002613d70614af4565b906101000a90046001600160a01b03166001600160a01b03165a613d92614ccf565b6001600160a01b031614158015613dde575060006003613db0614af4565b906101000a90046001600160a01b03166001600160a01b03165a613dd2614ccf565b6001600160a01b031614155b8015613e1f57505a613dee614ccf565b6001600160a01b031660006004613e03614af4565b906101000a90046001600160a01b03166001600160a01b031614155b15613e60575a613e2d614ccf565b6004600181613e3a614af4565b816001600160a01b0302191690836001600160a01b0316021790613e5c614c81565b5050505b600080613e6b614af4565b6001600160a01b036101009290920a90041660006004613e89614af4565b906101000a90046001600160a01b03166001600160a01b0316146131565760405162461bcd60e51b815260206004820152601360248201527f4f776e6572206f6e6c792066756e6374696f6e0000000000000000000000000060448201526064016040518091039061157c614a89565b6000610e997f53796e746865746978000000000000000000000000000000000000000000000060405160408082019052601981527f4d697373696e672053796e74686574697820616464726573730000000000000060208201526140c2565b6000610e997f526577617264457363726f77000000000000000000000000000000000000000060405160408082019052601c81527f4d697373696e6720526577617264457363726f7720616464726573730000000060208201526140c2565b60006002613fc3614af4565b906101000a90046001600160a01b03166001600160a01b03165a613fe5614ccf565b6001600160a01b0316148061402e575060006003614001614af4565b906101000a90046001600160a01b03166001600160a01b03165a614023614ccf565b6001600160a01b0316145b6131565760405162461bcd60e51b815260206004820152601760248201527f4f6e6c79207468652070726f78792063616e2063616c6c00000000000000000060448201526064016040518091039061157c614a89565b6000610e997f52657761726473446973747269627574696f6e00000000000000000000000000604051606081016040526023808252614feb60208301395b6000828152600960205280604081206000906140dc614af4565b6001600160a01b036101009290920a900416905082816141835760405162461bcd60e51b81526004018080602001828103825283818151815260200191508051906020019080838360005b8381101561413f578082015183820152602001614127565b50505050905090810190601f16801561416c5780820380516001836020036101000a031916815260200191505b509250505060405180910390614180614a89565b50505b509392505050565b60006130d783836b033b2e3c9fd0803ce80000006149a8565b60006130d783836b033b2e3c9fd0803ce80000006149ec565b6000610e997f466c657869626c6553746f72616765000000000000000000000000000000000060405160408082019052601f81527f4d697373696e6720466c657869626c6553746f7261676520616464726573730060208201526140c2565b60006305f5e10082046005600a82061061423457600a015b600a900492915050565b614246612db6565b6001600160a01b0316633562fd207f6c6173745f6665655f7769746864726177616c000000000000000000000000008460405160200180838152602001826001600160a01b03166001600160a01b031660601b81526014019250505060405160208183030381529060405280519060200120836040516001600160e01b031960e085901b1681526004810192909252602482015260440160006040518083038160008780612aab614b4f565b6000818160015b600281101561418357600061430d82612df8565b600201614318614af4565b905060006143348261432985612df8565b600101611743614af4565b905080156143cb57600085821061434b578561434d565b815b905061435f838263ffffffff61307516565b61436885612df8565b6002018190614375614c81565b5061438a91508790508263ffffffff612e2616565b955061439c858263ffffffff61307516565b9450856143b157849650505050505050610a4c565b831580156143bf5750600086115b156143c957600095505b505b5050600019016142f9565b816001600160a01b03811673feefeefeefeefeefeefeefeefeefeefeefeefeef14156144515760405162461bcd60e51b815260206004820152601760248201527f4665652061646472657373206e6f7420616c6c6f77656400000000000000000060448201526064016040518091039061444e614a89565b50505b600061445b6132b3565b6001600160a01b03166332608039600b614473614af4565b6040516001600160e01b031960e084901b168152600481019190915260240160206040518083038186806144a5614b4f565b1580156144ba576000806144b7614a89565b50505b505a6144c4614b9b565b50505050501580156144e3573d6000803e3d60006144e0614a89565b50505b505050506040513d6020811015614502576000806144ff614a89565b50505b8101908080519350506001600160a01b0383169150639dc29fac905073feefeefeefeefeefeefeefeefeefeefeefeefeef856040516001600160e01b031960e085901b1681526001600160a01b039092166004830152602482015260440160006040518083038160008780614575614b4f565b15801561458a57600080614587614a89565b50505b505a614594614d96565b5050505050501580156145b4573d6000803e3d60006145b1614a89565b50505b50505050806001600160a01b031663867904b485856040516001600160e01b031960e085901b1681526001600160a01b039092166004830152602482015260440160006040518083038160008780613bd0614b4f565b6000818160015b600281101561418357600061464761462883612df8565b600401614633614af4565b61463c84612df8565b600301611743614af4565b905080156146e557600084821061465e5784614660565b815b905061467a8161466f85612df8565b60040161103d614af4565b61468384612df8565b6004018190614690614c81565b506146a591508690508263ffffffff612e2616565b94506146b7848263ffffffff61307516565b9350846146cb578395505050505050610a4c565b821580156146d95750600085115b156146e357600094505b505b5060001901614611565b816001600160a01b03811673feefeefeefeefeefeefeefeefeefeefeefeefeef141561476a5760405162461bcd60e51b815260206004820152601760248201527f4665652061646472657373206e6f7420616c6c6f776564000000000000000000604482015260640160405180910390614767614a89565b50505b614772613f58565b6001600160a01b031663b5ddb9c784846040516001600160e01b031960e085901b1681526001600160a01b0390921660048301526024820152604401600060405180830381600087806147c3614b4f565b1580156147d8576000806147d5614a89565b50505b505a6147e2614d96565b505050505050158015611060573d6000803e3d60006147ff614a89565b505050505050505050565b60006002614816614af4565b906101000a90046001600160a01b03166001600160a01b031663907dff978484846040516001600160a01b0390931660208401526040808401929092526060830152608090910190516020818303038152906040526001604051806024614f0082396024019050604051809103902060008060006040518763ffffffff1660e01b815260040180806020018781526020018681526020018560001b81526020018460001b81526020018360001b8152602001828103825288818151815260200191508051906020019080838360005b838110156148fd5780820151838201526020016148e5565b50505050905090810190601f16801561492a5780820380516001836020036101000a031916815260200191505b50975050505050505050600060405180830381600087806147c3614b4f565b60008261495857506000610c60565b8282028284828161496557fe5b04146130d75760405162461bcd60e51b815260040180806020018281038252602181526020018061500e60219139604001915050604051809103906130d4614a89565b6000806149ce846149c287600a870263ffffffff61494916565b9063ffffffff614a1716565b90506005600a825b06106149e057600a015b600a9004949350505050565b600080600a8304614a03868663ffffffff61494916565b81614a0a57fe5b0490506005600a826149d6565b6000808211614a755760405162461bcd60e51b815260206004820152601a60248201527f536166654d6174683a206469766973696f6e206279207a65726f000000000000604482015260640160405180910390614a72614a89565b50505b6000828481614a8057fe5b04949350505050565b632a2a7adb598160e01b8152600481016020815285602082015260005b86811015614ac1578086015182820160400152602001614aa6565b506020828760640184336000905af158600e01573d6000803e3d6000fd5b3d6001141558600a015760016000f35b505050565b6303daa959598160e01b8152836004820152602081602483336000905af158600e01573d6000803e3d6000fd5b3d6001141558600a015760016000f35b8051935060005b60408110156121b757600082820152602001614b38565b638435035b598160e01b8152836004820152602081602483336000905af158600e01573d6000803e3d6000fd5b3d6001141558600a015760016000f35b80516000825293506020614b38565b638540661f598160e01b8152836004820152846024820152606060448201528660648201526084810160005b88811015614bdf578088015182820152602001614bc7565b50876101040182016060838a6101040185336000905af158600e01573d6000803e3d6000fd5b3d6001141558600a015760016000f35b825160408401513d6000863e8c8c82606088013350600060045af15059855b81811015614c485760008152602001614c34565b50919c50505050505050565b60405180604001604052806002905b614c6b614eaf565b815260200190600190039081614c635790505090565b6322bd64c0598160e01b8152836004820152846024820152600081604483336000905af158600e01573d6000803e3d6000fd5b3d6001141558600a015760016000f35b600081526020614b38565b6373509064598160e01b8152602081600483336000905af158600e01573d6000803e3d6000fd5b3d6001141558600a015760016000f35b80516000825293506020614b38565b63bdbf8c36598160e01b8152602081600483336000905af158600e01573d6000803e3d6000fd5b3d6001141558600a015760016000f35b80516000825293506020614b38565b60405160e081016040908152600080835260208301819052908201819052606082018190526080820181905260a0820181905260c082015290565b6385979f76598160e01b8152836004820152846024820152606060448201528760648201526084810160005b89811015614dda578089015182820152602001614dc2565b50886101040182016060838b6101040185336000905af158600e01573d6000803e3d6000fd5b3d6001141558600a015760016000f35b825160408401513d6000863e8d8d82606088013350600060045af15059855b81811015614e435760008152602001614e2f565b50919d50505050505050565b604051610300808201604052601890829080388339509192915050565b63ffe73914598160e01b81528360048201528460248201526060604482015286606482015260848101600088811015614bdf578088015182820152602001614bc7565b6040516040808201815260029082908038833950919291505056fe596f75206d757374206265206e6f6d696e61746564206265666f726520796f752063616e20616363657074206f776e65727368697046656573436c61696d656428616464726573732c75696e743235362c75696e74323536294d697373696e672044656c6567617465417070726f76616c73206164647265737349737375616e636544656274526174696f456e74727928616464726573732c75696e743235362c75696e743235362c75696e74323536294e6f2066656573206f72207265776172647320617661696c61626c6520666f7220706572696f642c206f72206665657320616c726561647920636c61696d65644f6e6c792074686520636f6e7472616374206f776e6572206d617920706572666f726d207468697320616374696f6e4d697373696e672052657761726473446973747269627574696f6e2061646472657373536166654d6174683a206d756c7469706c69636174696f6e206f766572666c6f7743616e206f6e6c7920706572666f726d207468697320616374696f6e20647572696e672073657475704d697373696e67204574686572436f6c6c61746572616c7355534420616464726573734d697373696e6720466565506f6f6c457465726e616c53746f726167652061646472657373",
			"opcodes": "PUSH1 0x80 PUSH1 0x40 MSTORE PUSH4 0x1CD554D1 PUSH1 0xE2 SHL PUSH1 0xB PUSH3 0x18 PUSH3 0x934 JUMP JUMPDEST POP POP PUSH1 0x40 MLOAD PUSH2 0x160 DUP2 ADD PUSH1 0x40 SWAP1 DUP2 MSTORE PUSH12 0x53797374656D537461747573 PUSH1 0xA0 SHL DUP3 MSTORE PUSH9 0xA6F2DCE8D0CAE8D2F PUSH1 0xBB SHL PUSH1 0x20 DUP4 ADD MSTORE PUSH12 0x466565506F6F6C5374617465 PUSH1 0xA0 SHL SWAP1 DUP3 ADD MSTORE PUSH32 0x466565506F6F6C457465726E616C53746F726167650000000000000000000000 PUSH1 0x60 DUP3 ADD MSTORE PUSH9 0x22BC31B430B733B2B9 PUSH1 0xB9 SHL PUSH1 0x80 DUP3 ADD MSTORE PUSH6 0x24B9B9BAB2B9 PUSH1 0xD1 SHL PUSH1 0xA0 DUP3 ADD MSTORE PUSH14 0x53796E7468657469785374617465 PUSH1 0x90 SHL PUSH1 0xC0 DUP3 ADD MSTORE PUSH12 0x526577617264457363726F77 PUSH1 0xA0 SHL PUSH1 0xE0 DUP3 ADD MSTORE PUSH17 0x44656C6567617465417070726F76616C73 PUSH1 0x78 SHL PUSH2 0x100 DUP3 ADD MSTORE PUSH32 0x4574686572436F6C6C61746572616C7355534400000000000000000000000000 PUSH2 0x120 DUP3 ADD MSTORE PUSH32 0x52657761726473446973747269627574696F6E00000000000000000000000000 PUSH2 0x140 DUP3 ADD MSTORE PUSH3 0x14B SWAP1 PUSH1 0x17 SWAP1 PUSH1 0xB PUSH3 0x998 JUMP JUMPDEST POP CALLVALUE DUP1 ISZERO PUSH3 0x164 JUMPI PUSH1 0x0 DUP1 PUSH3 0x161 PUSH3 0x9E6 JUMP JUMPDEST POP POP JUMPDEST POP PUSH1 0x40 MLOAD PUSH3 0x5CCE CODESIZE SUB DUP1 PUSH3 0x5CCE DUP4 CODECOPY DUP2 DUP2 ADD PUSH1 0x40 MSTORE PUSH1 0x60 DUP2 LT ISZERO PUSH3 0x195 JUMPI PUSH1 0x0 DUP1 PUSH3 0x192 PUSH3 0x9E6 JUMP JUMPDEST POP POP JUMPDEST DUP2 ADD SWAP1 DUP1 DUP1 MLOAD SWAP3 SWAP2 SWAP1 PUSH1 0x20 ADD DUP1 MLOAD SWAP3 SWAP2 SWAP1 PUSH1 0x20 ADD DUP1 MLOAD SWAP3 POP DUP3 SWAP2 POP PUSH1 0x17 SWAP1 POP PUSH1 0x18 PUSH2 0x300 PUSH1 0x40 MLOAD SWAP1 DUP2 ADD PUSH1 0x40 MSTORE SWAP2 SWAP1 PUSH2 0x300 DUP4 ADD DUP3 DUP5 JUMPDEST DUP2 PUSH3 0x1D7 PUSH3 0xA53 JUMP JUMPDEST DUP2 MSTORE PUSH1 0x20 ADD SWAP1 PUSH1 0x1 ADD SWAP1 DUP1 DUP4 GT PUSH3 0x1CC JUMPI POP POP POP POP POP PUSH3 0x1BAF80 DUP6 DUP6 PUSH1 0x0 PUSH1 0x1 PUSH1 0x1 PUSH1 0xA0 SHL SUB AND DUP2 PUSH1 0x1 PUSH1 0x1 PUSH1 0xA0 SHL SUB AND EQ ISZERO PUSH3 0x267 JUMPI PUSH1 0x40 MLOAD PUSH3 0x461BCD PUSH1 0xE5 SHL DUP2 MSTORE PUSH1 0x20 PUSH1 0x4 DUP3 ADD MSTORE PUSH1 0x19 PUSH1 0x24 DUP3 ADD MSTORE PUSH32 0x4F776E657220616464726573732063616E6E6F74206265203000000000000000 PUSH1 0x44 DUP3 ADD MSTORE PUSH1 0x64 ADD PUSH1 0x40 MLOAD DUP1 SWAP2 SUB SWAP1 PUSH3 0x264 PUSH3 0x9E6 JUMP JUMPDEST POP POP JUMPDEST DUP1 PUSH1 0x0 PUSH1 0x1 DUP2 PUSH3 0x277 PUSH3 0xA53 JUMP JUMPDEST DUP2 PUSH1 0x1 PUSH1 0x1 PUSH1 0xA0 SHL SUB MUL NOT AND SWAP1 DUP4 PUSH1 0x1 PUSH1 0x1 PUSH1 0xA0 SHL SUB AND MUL OR SWAP1 PUSH3 0x29B PUSH3 0x934 JUMP JUMPDEST POP POP POP PUSH32 0xB532073B38C83145E3E5135377A08BF9AAB55BC0FD7C1179CD4FB995D2A5159C PUSH1 0x0 DUP3 PUSH1 0x40 MLOAD PUSH1 0x1 PUSH1 0x1 PUSH1 0xA0 SHL SUB SWAP3 DUP4 AND DUP2 MSTORE SWAP2 AND PUSH1 0x20 DUP3 ADD MSTORE PUSH1 0x40 SWAP1 DUP2 ADD SWAP1 MLOAD DUP1 SWAP2 SUB SWAP1 LOG1 POP PUSH1 0x0 DUP1 DUP1 PUSH3 0x2F4 PUSH3 0xA53 JUMP JUMPDEST SWAP1 PUSH2 0x100 EXP SWAP1 DIV PUSH1 0x1 PUSH1 0x1 PUSH1 0xA0 SHL SUB AND PUSH1 0x1 PUSH1 0x1 PUSH1 0xA0 SHL SUB AND EQ ISZERO PUSH3 0x35F JUMPI PUSH1 0x40 MLOAD PUSH3 0x461BCD PUSH1 0xE5 SHL DUP2 MSTORE PUSH1 0x20 PUSH1 0x4 DUP3 ADD MSTORE PUSH1 0x11 PUSH1 0x24 DUP3 ADD MSTORE PUSH17 0x13DDDB995C881B5D5CDD081899481CD95D PUSH1 0x7A SHL PUSH1 0x44 DUP3 ADD MSTORE PUSH1 0x64 ADD PUSH1 0x40 MLOAD DUP1 SWAP2 SUB SWAP1 PUSH3 0x35C PUSH3 0x9E6 JUMP JUMPDEST POP POP JUMPDEST DUP1 PUSH1 0x2 PUSH1 0x1 DUP2 PUSH3 0x36F PUSH3 0xA53 JUMP JUMPDEST DUP2 PUSH1 0x1 PUSH1 0x1 PUSH1 0xA0 SHL SUB MUL NOT AND SWAP1 DUP4 PUSH1 0x1 PUSH1 0x1 PUSH1 0xA0 SHL SUB AND MUL OR SWAP1 PUSH3 0x393 PUSH3 0x934 JUMP JUMPDEST POP POP POP PUSH32 0xFC80377CA9C49CC11AE6982F390A42DB976D5530AF7C43889264B13FBBD7C57E DUP2 PUSH1 0x40 MLOAD PUSH1 0x1 PUSH1 0x1 PUSH1 0xA0 SHL SUB SWAP1 SWAP2 AND DUP2 MSTORE PUSH1 0x20 ADD PUSH1 0x40 MLOAD DUP1 SWAP2 SUB SWAP1 LOG1 POP PUSH1 0x0 DUP1 DUP1 PUSH3 0x3E2 PUSH3 0xA53 JUMP JUMPDEST SWAP1 PUSH2 0x100 EXP SWAP1 DIV PUSH1 0x1 PUSH1 0x1 PUSH1 0xA0 SHL SUB AND PUSH1 0x1 PUSH1 0x1 PUSH1 0xA0 SHL SUB AND EQ ISZERO PUSH3 0x44D JUMPI PUSH1 0x40 MLOAD PUSH3 0x461BCD PUSH1 0xE5 SHL DUP2 MSTORE PUSH1 0x20 PUSH1 0x4 DUP3 ADD MSTORE PUSH1 0x11 PUSH1 0x24 DUP3 ADD MSTORE PUSH17 0x13DDDB995C881B5D5CDD081899481CD95D PUSH1 0x7A SHL PUSH1 0x44 DUP3 ADD MSTORE PUSH1 0x64 ADD PUSH1 0x40 MLOAD DUP1 SWAP2 SUB SWAP1 PUSH3 0x44A PUSH3 0x9E6 JUMP JUMPDEST POP POP JUMPDEST PUSH1 0x0 DUP1 PUSH3 0x45A PUSH3 0xA53 JUMP JUMPDEST SWAP1 PUSH2 0x100 EXP SWAP1 DIV PUSH1 0x1 PUSH1 0x1 PUSH1 0xA0 SHL SUB AND PUSH1 0x6 PUSH1 0x1 PUSH2 0x100 EXP DUP2 PUSH3 0x47D PUSH3 0xA53 JUMP JUMPDEST DUP2 PUSH1 0x1 PUSH1 0x1 PUSH1 0xA0 SHL SUB MUL NOT AND SWAP1 DUP4 PUSH1 0x1 PUSH1 0x1 PUSH1 0xA0 SHL SUB AND MUL OR SWAP1 PUSH3 0x4A1 PUSH3 0x934 JUMP JUMPDEST POP POP POP PUSH32 0xD5DA63A0B864B315BC04128DEDBC93888C8529EE6CF47CE664DC204339228C53 PUSH1 0x0 DUP1 SWAP1 PUSH3 0x4D3 PUSH3 0xA53 JUMP JUMPDEST SWAP1 PUSH2 0x100 EXP SWAP1 DIV PUSH1 0x1 PUSH1 0x1 PUSH1 0xA0 SHL SUB AND PUSH1 0x40 MLOAD PUSH1 0x1 PUSH1 0x1 PUSH1 0xA0 SHL SUB SWAP1 SWAP2 AND DUP2 MSTORE PUSH1 0x20 ADD PUSH1 0x40 MLOAD DUP1 SWAP2 SUB SWAP1 LOG1 DUP1 GAS PUSH3 0x50A PUSH3 0xAA0 JUMP JUMPDEST ADD DUP1 PUSH1 0x7 PUSH3 0x518 PUSH3 0x934 JUMP JUMPDEST POP POP POP POP PUSH1 0x0 PUSH1 0x1 PUSH1 0x1 PUSH1 0xA0 SHL SUB AND PUSH1 0x0 DUP1 SWAP1 PUSH3 0x535 PUSH3 0xA53 JUMP JUMPDEST SWAP1 PUSH2 0x100 EXP SWAP1 DIV PUSH1 0x1 PUSH1 0x1 PUSH1 0xA0 SHL SUB AND PUSH1 0x1 PUSH1 0x1 PUSH1 0xA0 SHL SUB AND EQ ISZERO PUSH3 0x5A0 JUMPI PUSH1 0x40 MLOAD PUSH3 0x461BCD PUSH1 0xE5 SHL DUP2 MSTORE PUSH1 0x20 PUSH1 0x4 DUP3 ADD MSTORE PUSH1 0x11 PUSH1 0x24 DUP3 ADD MSTORE PUSH17 0x13DDDB995C881B5D5CDD081899481CD95D PUSH1 0x7A SHL PUSH1 0x44 DUP3 ADD MSTORE PUSH1 0x64 ADD PUSH1 0x40 MLOAD DUP1 SWAP2 SUB SWAP1 PUSH3 0x59D PUSH3 0x9E6 JUMP JUMPDEST POP POP JUMPDEST PUSH1 0x0 JUMPDEST PUSH1 0x18 DUP2 LT ISZERO PUSH3 0x630 JUMPI PUSH1 0x0 DUP3 DUP3 PUSH1 0x18 DUP2 LT PUSH3 0x5BC JUMPI INVALID JUMPDEST PUSH1 0x20 MUL ADD MLOAD EQ PUSH3 0x621 JUMPI PUSH1 0xA DUP3 DUP3 PUSH1 0x18 DUP2 LT PUSH3 0x5D6 JUMPI INVALID JUMPDEST PUSH1 0x20 MUL ADD MLOAD SWAP1 DUP1 PUSH1 0x1 DUP2 PUSH3 0x5EA PUSH3 0xA53 JUMP JUMPDEST ADD DUP1 DUP3 PUSH3 0x5F7 PUSH3 0x934 JUMP JUMPDEST POP POP PUSH1 0x0 SWAP3 DUP4 MSTORE SWAP2 PUSH1 0x0 NOT DUP4 ADD SWAP2 POP PUSH1 0x20 SWAP1 KECCAK256 SWAP2 SWAP3 SWAP2 ADD PUSH3 0x618 PUSH3 0x934 JUMP JUMPDEST POP POP POP PUSH3 0x627 JUMP JUMPDEST PUSH3 0x630 JUMP JUMPDEST PUSH1 0x1 ADD PUSH3 0x5A3 JUMP JUMPDEST POP DUP2 PUSH1 0x8 PUSH1 0x1 DUP2 PUSH3 0x641 PUSH3 0xA53 JUMP JUMPDEST DUP2 PUSH1 0x1 PUSH1 0x1 PUSH1 0xA0 SHL SUB MUL NOT AND SWAP1 DUP4 PUSH1 0x1 PUSH1 0x1 PUSH1 0xA0 SHL SUB AND MUL OR SWAP1 PUSH3 0x665 PUSH3 0x934 JUMP JUMPDEST POP POP POP POP POP PUSH3 0x68D PUSH15 0x466C657869626C6553746F72616765 PUSH1 0x88 SHL PUSH3 0x738 PUSH1 0x20 SHL PUSH1 0x20 SHR JUMP JUMPDEST PUSH1 0x1 PUSH3 0x6A4 PUSH1 0x0 PUSH1 0x1 PUSH1 0x1 PUSH1 0xE0 SHL SUB PUSH3 0x902 AND JUMP JUMPDEST PUSH1 0x1 DUP2 PUSH3 0x6B1 PUSH3 0xA53 JUMP JUMPDEST DUP2 PUSH1 0x1 PUSH1 0x1 PUSH1 0x40 SHL SUB MUL NOT AND SWAP1 DUP4 PUSH1 0x1 PUSH1 0x1 PUSH1 0x40 SHL SUB AND MUL OR SWAP1 PUSH3 0x6D5 PUSH3 0x934 JUMP JUMPDEST POP POP POP GAS PUSH3 0x6E3 PUSH3 0xAA0 JUMP JUMPDEST PUSH3 0x6F8 PUSH1 0x0 PUSH1 0x1 PUSH1 0x1 PUSH1 0xE0 SHL SUB PUSH3 0x902 AND JUMP JUMPDEST PUSH1 0x1 PUSH1 0x80 SHL DUP2 PUSH3 0x708 PUSH3 0xA53 JUMP JUMPDEST DUP2 PUSH1 0x1 PUSH1 0x1 PUSH1 0x40 SHL SUB MUL NOT AND SWAP1 DUP4 PUSH1 0x1 PUSH1 0x1 PUSH1 0x40 SHL SUB AND MUL OR SWAP1 PUSH3 0x72C PUSH3 0x934 JUMP JUMPDEST POP POP POP POP POP POP PUSH3 0xC1E JUMP JUMPDEST DUP1 PUSH1 0xA DUP1 PUSH1 0x1 DUP2 PUSH3 0x749 PUSH3 0xA53 JUMP JUMPDEST ADD DUP1 DUP3 PUSH3 0x756 PUSH3 0x934 JUMP JUMPDEST POP POP PUSH1 0x0 SWAP3 DUP4 MSTORE SWAP2 PUSH1 0x0 NOT DUP4 ADD SWAP2 POP PUSH1 0x20 SWAP1 KECCAK256 SWAP2 SWAP3 SWAP2 ADD PUSH3 0x777 PUSH3 0x934 JUMP JUMPDEST POP POP POP PUSH1 0x18 PUSH1 0xA DUP1 PUSH3 0x789 PUSH3 0xA53 JUMP JUMPDEST SWAP1 POP LT PUSH3 0x7E8 JUMPI PUSH1 0x40 MLOAD PUSH3 0x461BCD PUSH1 0xE5 SHL DUP2 MSTORE PUSH1 0x20 PUSH1 0x4 DUP3 ADD MSTORE PUSH1 0x1B PUSH1 0x24 DUP3 ADD MSTORE PUSH32 0x4D6178207265736F6C7665722063616368652073697A65206D65740000000000 PUSH1 0x44 DUP3 ADD MSTORE PUSH1 0x64 ADD PUSH1 0x40 MLOAD DUP1 SWAP2 SUB SWAP1 PUSH3 0x7E5 PUSH3 0x9E6 JUMP JUMPDEST POP POP JUMPDEST PUSH1 0x0 PUSH1 0x8 PUSH3 0x7F6 PUSH3 0xA53 JUMP JUMPDEST SWAP1 PUSH2 0x100 EXP SWAP1 DIV PUSH1 0x1 PUSH1 0x1 PUSH1 0xA0 SHL SUB AND PUSH1 0x1 PUSH1 0x1 PUSH1 0xA0 SHL SUB AND PUSH4 0x21F8A721 DUP3 PUSH1 0x40 MLOAD PUSH1 0x1 PUSH1 0x1 PUSH1 0xE0 SHL SUB NOT PUSH1 0xE0 DUP5 SWAP1 SHL AND DUP2 MSTORE PUSH1 0x4 DUP2 ADD SWAP2 SWAP1 SWAP2 MSTORE PUSH1 0x24 ADD PUSH1 0x20 PUSH1 0x40 MLOAD DUP1 DUP4 SUB DUP2 DUP7 DUP1 PUSH3 0x849 PUSH3 0xAE7 JUMP JUMPDEST ISZERO DUP1 ISZERO PUSH3 0x861 JUMPI PUSH1 0x0 DUP1 PUSH3 0x85E PUSH3 0x9E6 JUMP JUMPDEST POP POP JUMPDEST POP GAS PUSH3 0x86D PUSH3 0xB34 JUMP JUMPDEST POP POP POP POP POP ISZERO DUP1 ISZERO PUSH3 0x88F JUMPI RETURNDATASIZE PUSH1 0x0 DUP1 RETURNDATACOPY RETURNDATASIZE PUSH1 0x0 PUSH3 0x88C PUSH3 0x9E6 JUMP JUMPDEST POP POP JUMPDEST POP POP POP POP PUSH1 0x40 MLOAD RETURNDATASIZE PUSH1 0x20 DUP2 LT ISZERO PUSH3 0x8B1 JUMPI PUSH1 0x0 DUP1 PUSH3 0x8AE PUSH3 0x9E6 JUMP JUMPDEST POP POP JUMPDEST DUP2 ADD SWAP1 DUP1 DUP1 MLOAD PUSH1 0x0 DUP6 DUP2 MSTORE PUSH1 0x9 PUSH1 0x20 MSTORE SWAP1 SWAP4 POP PUSH1 0x40 SWAP3 POP SWAP1 POP KECCAK256 PUSH1 0x1 DUP2 PUSH3 0x8D8 PUSH3 0xA53 JUMP JUMPDEST DUP2 PUSH1 0x1 PUSH1 0x1 PUSH1 0xA0 SHL SUB MUL NOT AND SWAP1 DUP4 PUSH1 0x1 PUSH1 0x1 PUSH1 0xA0 SHL SUB AND MUL OR SWAP1 PUSH3 0x8FC PUSH3 0x934 JUMP JUMPDEST POP POP POP POP JUMP JUMPDEST PUSH1 0x0 PUSH1 0xC PUSH1 0x2 DUP4 PUSH1 0x16 PUSH3 0x915 PUSH3 0xA53 JUMP JUMPDEST ADD DUP2 PUSH3 0x91E JUMPI INVALID JUMPDEST MOD PUSH1 0x2 DUP2 LT PUSH3 0x92A JUMPI INVALID JUMPDEST PUSH1 0x5 MUL ADD SWAP3 SWAP2 POP POP JUMP JUMPDEST PUSH4 0x22BD64C0 MSIZE DUP2 PUSH1 0xE0 SHL DUP2 MSTORE DUP4 PUSH1 0x4 DUP3 ADD MSTORE DUP5 PUSH1 0x24 DUP3 ADD MSTORE PUSH1 0x0 DUP2 PUSH1 0x44 DUP4 CALLER PUSH1 0x0 SWAP1 GAS CALL PC PUSH1 0xE ADD JUMPI RETURNDATASIZE PUSH1 0x0 DUP1 RETURNDATACOPY RETURNDATASIZE PUSH1 0x0 REVERT JUMPDEST RETURNDATASIZE PUSH1 0x1 EQ ISZERO PC PUSH1 0xA ADD JUMPI PUSH1 0x1 PUSH1 0x0 RETURN JUMPDEST PUSH1 0x0 JUMPDEST PUSH1 0x40 DUP2 LT ISZERO PUSH3 0x993 JUMPI PUSH1 0x0 DUP3 DUP3 ADD MSTORE PUSH1 0x20 ADD PUSH3 0x97A JUMP JUMPDEST POP POP POP JUMP JUMPDEST DUP3 PUSH1 0x18 DUP2 ADD SWAP3 DUP3 ISZERO PUSH3 0x9D4 JUMPI SWAP2 PUSH1 0x20 MUL DUP3 ADD JUMPDEST DUP3 DUP2 GT ISZERO PUSH3 0x9D4 JUMPI DUP3 MLOAD DUP3 PUSH3 0x9C2 PUSH3 0x934 JUMP JUMPDEST POP POP SWAP2 PUSH1 0x20 ADD SWAP2 SWAP1 PUSH1 0x1 ADD SWAP1 PUSH3 0x9AC JUMP JUMPDEST POP PUSH3 0x9E2 SWAP3 SWAP2 POP PUSH3 0xBF1 JUMP JUMPDEST POP SWAP1 JUMP JUMPDEST PUSH4 0x2A2A7ADB MSIZE DUP2 PUSH1 0xE0 SHL DUP2 MSTORE PUSH1 0x4 DUP2 ADD PUSH1 0x20 DUP2 MSTORE DUP6 PUSH1 0x20 DUP3 ADD MSTORE PUSH1 0x0 JUMPDEST DUP7 DUP2 LT ISZERO PUSH3 0xA20 JUMPI DUP1 DUP7 ADD MLOAD DUP3 DUP3 ADD PUSH1 0x40 ADD MSTORE PUSH1 0x20 ADD PUSH3 0xA03 JUMP JUMPDEST POP PUSH1 0x20 DUP3 DUP8 PUSH1 0x64 ADD DUP5 CALLER PUSH1 0x0 SWAP1 GAS CALL PC PUSH1 0xE ADD JUMPI RETURNDATASIZE PUSH1 0x0 DUP1 RETURNDATACOPY RETURNDATASIZE PUSH1 0x0 REVERT JUMPDEST RETURNDATASIZE PUSH1 0x1 EQ ISZERO PC PUSH1 0xA ADD JUMPI PUSH1 0x1 PUSH1 0x0 RETURN JUMPDEST POP POP POP JUMP JUMPDEST PUSH4 0x3DAA959 MSIZE DUP2 PUSH1 0xE0 SHL DUP2 MSTORE DUP4 PUSH1 0x4 DUP3 ADD MSTORE PUSH1 0x20 DUP2 PUSH1 0x24 DUP4 CALLER PUSH1 0x0 SWAP1 GAS CALL PC PUSH1 0xE ADD JUMPI RETURNDATASIZE PUSH1 0x0 DUP1 RETURNDATACOPY RETURNDATASIZE PUSH1 0x0 REVERT JUMPDEST RETURNDATASIZE PUSH1 0x1 EQ ISZERO PC PUSH1 0xA ADD JUMPI PUSH1 0x1 PUSH1 0x0 RETURN JUMPDEST DUP1 MLOAD PUSH1 0x0 DUP3 MSTORE SWAP4 POP PUSH1 0x20 PUSH3 0x97A JUMP JUMPDEST PUSH4 0xBDBF8C36 MSIZE DUP2 PUSH1 0xE0 SHL DUP2 MSTORE PUSH1 0x20 DUP2 PUSH1 0x4 DUP4 CALLER PUSH1 0x0 SWAP1 GAS CALL PC PUSH1 0xE ADD JUMPI RETURNDATASIZE PUSH1 0x0 DUP1 RETURNDATACOPY RETURNDATASIZE PUSH1 0x0 REVERT JUMPDEST RETURNDATASIZE PUSH1 0x1 EQ ISZERO PC PUSH1 0xA ADD JUMPI PUSH1 0x1 PUSH1 0x0 RETURN JUMPDEST DUP1 MLOAD PUSH1 0x0 DUP3 MSTORE SWAP4 POP PUSH1 0x20 PUSH3 0x97A JUMP JUMPDEST PUSH4 0x8435035B MSIZE DUP2 PUSH1 0xE0 SHL DUP2 MSTORE DUP4 PUSH1 0x4 DUP3 ADD MSTORE PUSH1 0x20 DUP2 PUSH1 0x24 DUP4 CALLER PUSH1 0x0 SWAP1 GAS CALL PC PUSH1 0xE ADD JUMPI RETURNDATASIZE PUSH1 0x0 DUP1 RETURNDATACOPY RETURNDATASIZE PUSH1 0x0 REVERT JUMPDEST RETURNDATASIZE PUSH1 0x1 EQ ISZERO PC PUSH1 0xA ADD JUMPI PUSH1 0x1 PUSH1 0x0 RETURN JUMPDEST DUP1 MLOAD PUSH1 0x0 DUP3 MSTORE SWAP4 POP PUSH1 0x20 PUSH3 0x97A JUMP JUMPDEST PUSH4 0x8540661F MSIZE DUP2 PUSH1 0xE0 SHL DUP2 MSTORE DUP4 PUSH1 0x4 DUP3 ADD MSTORE DUP5 PUSH1 0x24 DUP3 ADD MSTORE PUSH1 0x60 PUSH1 0x44 DUP3 ADD MSTORE DUP7 PUSH1 0x64 DUP3 ADD MSTORE PUSH1 0x84 DUP2 ADD PUSH1 0x0 JUMPDEST DUP9 DUP2 LT ISZERO PUSH3 0xB7A JUMPI DUP1 DUP9 ADD MLOAD DUP3 DUP3 ADD MSTORE PUSH1 0x20 ADD PUSH3 0xB60 JUMP JUMPDEST POP DUP8 PUSH2 0x104 ADD DUP3 ADD PUSH1 0x60 DUP4 DUP11 PUSH2 0x104 ADD DUP6 CALLER PUSH1 0x0 SWAP1 GAS CALL PC PUSH1 0xE ADD JUMPI RETURNDATASIZE PUSH1 0x0 DUP1 RETURNDATACOPY RETURNDATASIZE PUSH1 0x0 REVERT JUMPDEST RETURNDATASIZE PUSH1 0x1 EQ ISZERO PC PUSH1 0xA ADD JUMPI PUSH1 0x1 PUSH1 0x0 RETURN JUMPDEST DUP3 MLOAD PUSH1 0x40 DUP5 ADD MLOAD RETURNDATASIZE PUSH1 0x0 DUP7 RETURNDATACOPY DUP13 DUP13 DUP3 PUSH1 0x60 DUP9 ADD CALLER POP PUSH1 0x0 PUSH1 0x4 GAS CALL POP MSIZE DUP6 JUMPDEST DUP2 DUP2 LT ISZERO PUSH3 0xBE5 JUMPI PUSH1 0x0 DUP2 MSTORE PUSH1 0x20 ADD PUSH3 0xBCF JUMP JUMPDEST POP SWAP2 SWAP13 POP POP POP POP POP POP POP JUMP JUMPDEST PUSH3 0xC1B SWAP2 SWAP1 JUMPDEST DUP1 DUP3 GT ISZERO PUSH3 0x9E2 JUMPI PUSH1 0x0 DUP1 DUP3 PUSH3 0xC0F PUSH3 0x934 JUMP JUMPDEST POP POP POP PUSH1 0x1 ADD PUSH3 0xBF8 JUMP JUMPDEST SWAP1 JUMP JUMPDEST PUSH2 0x50A0 DUP1 PUSH3 0xC2E PUSH1 0x0 CODECOPY PUSH1 0x0 RETURN INVALID PUSH1 0x80 PUSH1 0x40 MSTORE CALLVALUE DUP1 ISZERO PUSH2 0x19 JUMPI PUSH1 0x0 DUP1 PUSH2 0x16 PUSH2 0x4A89 JUMP JUMPDEST POP POP JUMPDEST POP PUSH1 0x4 CALLDATASIZE LT PUSH2 0x31E JUMPI PUSH1 0x0 CALLDATALOAD PUSH1 0xE0 SHR DUP1 PUSH4 0x86645274 GT PUSH2 0x1B0 JUMPI DUP1 PUSH4 0xBC67F832 GT PUSH2 0xF7 JUMPI DUP1 PUSH4 0xD67BDD25 GT PUSH2 0xA0 JUMPI DUP1 PUSH4 0xEB1EDD61 GT PUSH2 0x7A JUMPI DUP1 PUSH4 0xEB1EDD61 EQ PUSH2 0x8E0 JUMPI DUP1 PUSH4 0xEC556889 EQ PUSH2 0x8E8 JUMPI DUP1 PUSH4 0xFD1F498D EQ PUSH2 0x8F0 JUMPI PUSH2 0x31E JUMP JUMPDEST DUP1 PUSH4 0xD67BDD25 EQ PUSH2 0x8C8 JUMPI DUP1 PUSH4 0xE0E6393D EQ PUSH2 0x8D0 JUMPI DUP1 PUSH4 0xE3235C91 EQ PUSH2 0x8D8 JUMPI PUSH2 0x31E JUMP JUMPDEST DUP1 PUSH4 0xC6C9D828 GT PUSH2 0xD1 JUMPI DUP1 PUSH4 0xC6C9D828 EQ PUSH2 0x87C JUMPI DUP1 PUSH4 0xCFF2DDAD EQ PUSH2 0x8A2 JUMPI DUP1 PUSH4 0xD294F093 EQ PUSH2 0x8C0 JUMPI PUSH2 0x31E JUMP JUMPDEST DUP1 PUSH4 0xBC67F832 EQ PUSH2 0x83D JUMPI DUP1 PUSH4 0xBD32AA44 EQ PUSH2 0x86C JUMPI DUP1 PUSH4 0xC58AAAE6 EQ PUSH2 0x874 JUMPI PUSH2 0x31E JUMP JUMPDEST DUP1 PUSH4 0xAB49848C GT PUSH2 0x159 JUMPI DUP1 PUSH4 0xB410A034 GT PUSH2 0x133 JUMPI DUP1 PUSH4 0xB410A034 EQ PUSH2 0x7F8 JUMPI DUP1 PUSH4 0xB5DDB9C7 EQ PUSH2 0x800 JUMPI DUP1 PUSH4 0xB8225DEC EQ PUSH2 0x835 JUMPI PUSH2 0x31E JUMP JUMPDEST DUP1 PUSH4 0xAB49848C EQ PUSH2 0x75E JUMPI DUP1 PUSH4 0xAC834193 EQ PUSH2 0x79F JUMPI DUP1 PUSH4 0xB10090B8 EQ PUSH2 0x7A7 JUMPI PUSH2 0x31E JUMP JUMPDEST DUP1 PUSH4 0x9CB8A26A GT PUSH2 0x18A JUMPI DUP1 PUSH4 0x9CB8A26A EQ PUSH2 0x746 JUMPI DUP1 PUSH4 0x9CBDAEB6 EQ PUSH2 0x74E JUMPI DUP1 PUSH4 0xA461FC82 EQ PUSH2 0x756 JUMPI PUSH2 0x31E JUMP JUMPDEST DUP1 PUSH4 0x86645274 EQ PUSH2 0x6D4 JUMPI DUP1 PUSH4 0x8DA5CB5B EQ PUSH2 0x70F JUMPI DUP1 PUSH4 0x97107D6D EQ PUSH2 0x717 JUMPI PUSH2 0x31E JUMP JUMPDEST DUP1 PUSH4 0x33140016 GT PUSH2 0x274 JUMPI DUP1 PUSH4 0x569249D0 GT PUSH2 0x21D JUMPI DUP1 PUSH4 0x6466F45E GT PUSH2 0x1F7 JUMPI DUP1 PUSH4 0x6466F45E EQ PUSH2 0x695 JUMPI DUP1 PUSH4 0x6DE813F1 EQ PUSH2 0x6C4 JUMPI DUP1 PUSH4 0x79BA5097 EQ PUSH2 0x6CC JUMPI PUSH2 0x31E JUMP JUMPDEST DUP1 PUSH4 0x569249D0 EQ PUSH2 0x61B JUMPI DUP1 PUSH4 0x59A2F19F EQ PUSH2 0x623 JUMPI DUP1 PUSH4 0x631E1444 EQ PUSH2 0x666 JUMPI PUSH2 0x31E JUMP JUMPDEST DUP1 PUSH4 0x3FCD2240 GT PUSH2 0x24E JUMPI DUP1 PUSH4 0x3FCD2240 EQ PUSH2 0x59A JUMPI DUP1 PUSH4 0x46BA2D90 EQ PUSH2 0x60B JUMPI DUP1 PUSH4 0x53A47BB7 EQ PUSH2 0x613 JUMPI PUSH2 0x31E JUMP JUMPDEST DUP1 PUSH4 0x33140016 EQ PUSH2 0x4DA JUMPI DUP1 PUSH4 0x3BE99E6F EQ PUSH2 0x563 JUMPI DUP1 PUSH4 0x3EBC457A EQ PUSH2 0x592 JUMPI PUSH2 0x31E JUMP JUMPDEST DUP1 PUSH4 0x1627540C GT PUSH2 0x2D6 JUMPI DUP1 PUSH4 0x22425FA4 GT PUSH2 0x2B0 JUMPI DUP1 PUSH4 0x22425FA4 EQ PUSH2 0x4A4 JUMPI DUP1 PUSH4 0x22BF55EF EQ PUSH2 0x4AC JUMPI DUP1 PUSH4 0x3278C960 EQ PUSH2 0x4D2 JUMPI PUSH2 0x31E JUMP JUMPDEST DUP1 PUSH4 0x1627540C EQ PUSH2 0x43E JUMPI DUP1 PUSH4 0x17C70DE4 EQ PUSH2 0x46D JUMPI DUP1 PUSH4 0x20714F88 EQ PUSH2 0x475 JUMPI PUSH2 0x31E JUMP JUMPDEST DUP1 PUSH4 0x813071C GT PUSH2 0x307 JUMPI DUP1 PUSH4 0x813071C EQ PUSH2 0x391 JUMPI DUP1 PUSH4 0xDE58615 EQ PUSH2 0x3C6 JUMPI DUP1 PUSH4 0x131B0AE7 EQ PUSH2 0x40D JUMPI PUSH2 0x31E JUMP JUMPDEST DUP1 PUSH4 0x4F3BCEC EQ PUSH2 0x32C JUMPI DUP1 PUSH4 0x7EA50CD EQ PUSH2 0x350 JUMPI JUMPDEST PUSH1 0x0 DUP1 PUSH2 0x329 PUSH2 0x4A89 JUMP JUMPDEST POP POP JUMPDEST PUSH2 0x334 PUSH2 0x916 JUMP JUMPDEST PUSH1 0x40 MLOAD PUSH1 0x1 PUSH1 0x1 PUSH1 0xA0 SHL SUB SWAP1 SWAP2 AND DUP2 MSTORE PUSH1 0x20 ADD PUSH1 0x40 MLOAD DUP1 SWAP2 SUB SWAP1 RETURN JUMPDEST PUSH2 0x37F PUSH1 0x4 DUP1 CALLDATASIZE SUB PUSH1 0x20 DUP2 LT ISZERO PUSH2 0x36F JUMPI PUSH1 0x0 DUP1 PUSH2 0x36C PUSH2 0x4A89 JUMP JUMPDEST POP POP JUMPDEST POP CALLDATALOAD PUSH1 0x1 PUSH1 0x1 PUSH1 0xA0 SHL SUB AND PUSH2 0x935 JUMP JUMPDEST PUSH1 0x40 MLOAD SWAP1 DUP2 MSTORE PUSH1 0x20 ADD PUSH1 0x40 MLOAD DUP1 SWAP2 SUB SWAP1 RETURN JUMPDEST PUSH2 0x37F PUSH1 0x4 DUP1 CALLDATASIZE SUB PUSH1 0x40 DUP2 LT ISZERO PUSH2 0x3B0 JUMPI PUSH1 0x0 DUP1 PUSH2 0x3AD PUSH2 0x4A89 JUMP JUMPDEST POP POP JUMPDEST POP PUSH1 0x1 PUSH1 0x1 PUSH1 0xA0 SHL SUB DUP2 CALLDATALOAD AND SWAP1 PUSH1 0x20 ADD CALLDATALOAD PUSH2 0xA51 JUMP JUMPDEST PUSH2 0x3F5 PUSH1 0x4 DUP1 CALLDATASIZE SUB PUSH1 0x20 DUP2 LT ISZERO PUSH2 0x3E5 JUMPI PUSH1 0x0 DUP1 PUSH2 0x3E2 PUSH2 0x4A89 JUMP JUMPDEST POP POP JUMPDEST POP CALLDATALOAD PUSH1 0x1 PUSH1 0x1 PUSH1 0xA0 SHL SUB AND PUSH2 0xC66 JUMP JUMPDEST PUSH1 0x40 MLOAD SWAP2 DUP3 MSTORE PUSH1 0x20 DUP3 ADD MSTORE PUSH1 0x40 SWAP1 DUP2 ADD SWAP1 MLOAD DUP1 SWAP2 SUB SWAP1 RETURN JUMPDEST PUSH2 0x43C PUSH1 0x4 DUP1 CALLDATASIZE SUB PUSH1 0x20 DUP2 LT ISZERO PUSH2 0x42C JUMPI PUSH1 0x0 DUP1 PUSH2 0x429 PUSH2 0x4A89 JUMP JUMPDEST POP POP JUMPDEST POP CALLDATALOAD PUSH1 0x1 PUSH1 0x1 PUSH1 0xA0 SHL SUB AND PUSH2 0xCEB JUMP JUMPDEST STOP JUMPDEST PUSH2 0x43C PUSH1 0x4 DUP1 CALLDATASIZE SUB PUSH1 0x20 DUP2 LT ISZERO PUSH2 0x45D JUMPI PUSH1 0x0 DUP1 PUSH2 0x45A PUSH2 0x4A89 JUMP JUMPDEST POP POP JUMPDEST POP CALLDATALOAD PUSH1 0x1 PUSH1 0x1 PUSH1 0xA0 SHL SUB AND PUSH2 0xD29 JUMP JUMPDEST PUSH2 0x37F PUSH2 0xDA3 JUMP JUMPDEST PUSH2 0x43C PUSH1 0x4 DUP1 CALLDATASIZE SUB PUSH1 0x20 DUP2 LT ISZERO PUSH2 0x494 JUMPI PUSH1 0x0 DUP1 PUSH2 0x491 PUSH2 0x4A89 JUMP JUMPDEST POP POP JUMPDEST POP CALLDATALOAD PUSH1 0x1 PUSH1 0x1 PUSH1 0xA0 SHL SUB AND PUSH2 0xDB0 JUMP JUMPDEST PUSH2 0x37F PUSH2 0xE8F JUMP JUMPDEST PUSH2 0x43C PUSH1 0x4 DUP1 CALLDATASIZE SUB PUSH1 0x20 DUP2 LT ISZERO PUSH2 0x4CB JUMPI PUSH1 0x0 DUP1 PUSH2 0x4C8 PUSH2 0x4A89 JUMP JUMPDEST POP POP JUMPDEST POP CALLDATALOAD PUSH2 0xE9E JUMP JUMPDEST PUSH2 0x43C PUSH2 0x1069 JUMP JUMPDEST PUSH2 0x509 PUSH1 0x4 DUP1 CALLDATASIZE SUB PUSH1 0x20 DUP2 LT ISZERO PUSH2 0x4F9 JUMPI PUSH1 0x0 DUP1 PUSH2 0x4F6 PUSH2 0x4A89 JUMP JUMPDEST POP POP JUMPDEST POP CALLDATALOAD PUSH1 0x1 PUSH1 0x1 PUSH1 0xA0 SHL SUB AND PUSH2 0x10DA JUMP JUMPDEST PUSH1 0x40 MLOAD PUSH1 0x0 DUP3 PUSH1 0x2 DUP4 JUMPDEST DUP2 DUP5 LT ISZERO PUSH2 0x553 JUMPI DUP3 DUP5 PUSH1 0x20 MUL ADD MLOAD PUSH1 0x40 DUP1 DUP4 DUP4 PUSH1 0x0 JUMPDEST DUP4 DUP2 LT ISZERO PUSH2 0x542 JUMPI DUP1 DUP3 ADD MLOAD DUP4 DUP3 ADD MSTORE PUSH1 0x20 ADD PUSH2 0x52A JUMP JUMPDEST POP POP POP POP SWAP1 POP ADD SWAP3 PUSH1 0x1 ADD SWAP3 PUSH2 0x513 JUMP JUMPDEST SWAP3 POP POP POP SWAP2 POP POP PUSH1 0x40 MLOAD DUP1 SWAP2 SUB SWAP1 RETURN JUMPDEST PUSH2 0x43C PUSH1 0x4 DUP1 CALLDATASIZE SUB PUSH1 0x20 DUP2 LT ISZERO PUSH2 0x582 JUMPI PUSH1 0x0 DUP1 PUSH2 0x57F PUSH2 0x4A89 JUMP JUMPDEST POP POP JUMPDEST POP CALLDATALOAD PUSH1 0x1 PUSH1 0x1 PUSH1 0xA0 SHL SUB AND PUSH2 0x13B6 JUMP JUMPDEST PUSH2 0x43C PUSH2 0x1580 JUMP JUMPDEST PUSH2 0x5C0 PUSH1 0x4 DUP1 CALLDATASIZE SUB PUSH1 0x20 DUP2 LT ISZERO PUSH2 0x5B9 JUMPI PUSH1 0x0 DUP1 PUSH2 0x5B6 PUSH2 0x4A89 JUMP JUMPDEST POP POP JUMPDEST POP CALLDATALOAD PUSH2 0x1AB3 JUMP JUMPDEST PUSH1 0x40 MLOAD PUSH8 0xFFFFFFFFFFFFFFFF SWAP8 DUP9 AND DUP2 MSTORE SWAP6 DUP8 AND PUSH1 0x20 DUP8 ADD MSTORE SWAP4 SWAP1 SWAP6 AND PUSH1 0x40 DUP1 DUP7 ADD SWAP2 SWAP1 SWAP2 MSTORE PUSH1 0x60 DUP6 ADD SWAP3 SWAP1 SWAP3 MSTORE PUSH1 0x80 DUP5 ADD MSTORE PUSH1 0xA0 DUP4 ADD SWAP4 SWAP1 SWAP4 MSTORE PUSH1 0xC0 DUP3 ADD MSTORE PUSH1 0xE0 ADD SWAP1 MLOAD DUP1 SWAP2 SUB SWAP1 RETURN JUMPDEST PUSH2 0x37F PUSH2 0x1BC0 JUMP JUMPDEST PUSH2 0x334 PUSH2 0x1BCA JUMP JUMPDEST PUSH2 0x37F PUSH2 0x1BD6 JUMP JUMPDEST PUSH2 0x652 PUSH1 0x4 DUP1 CALLDATASIZE SUB PUSH1 0x20 DUP2 LT ISZERO PUSH2 0x642 JUMPI PUSH1 0x0 DUP1 PUSH2 0x63F PUSH2 0x4A89 JUMP JUMPDEST POP POP JUMPDEST POP CALLDATALOAD PUSH1 0x1 PUSH1 0x1 PUSH1 0xA0 SHL SUB AND PUSH2 0x1C3F JUMP JUMPDEST PUSH1 0x40 MLOAD SWAP1 ISZERO ISZERO DUP2 MSTORE PUSH1 0x20 ADD PUSH1 0x40 MLOAD DUP1 SWAP2 SUB SWAP1 RETURN JUMPDEST PUSH2 0x652 PUSH1 0x4 DUP1 CALLDATASIZE SUB PUSH1 0x20 DUP2 LT ISZERO PUSH2 0x685 JUMPI PUSH1 0x0 DUP1 PUSH2 0x682 PUSH2 0x4A89 JUMP JUMPDEST POP POP JUMPDEST POP CALLDATALOAD PUSH1 0x1 PUSH1 0x1 PUSH1 0xA0 SHL SUB AND PUSH2 0x1C51 JUMP JUMPDEST PUSH2 0x652 PUSH1 0x4 DUP1 CALLDATASIZE SUB PUSH1 0x20 DUP2 LT ISZERO PUSH2 0x6B4 JUMPI PUSH1 0x0 DUP1 PUSH2 0x6B1 PUSH2 0x4A89 JUMP JUMPDEST POP POP JUMPDEST POP CALLDATALOAD PUSH1 0x1 PUSH1 0x1 PUSH1 0xA0 SHL SUB AND PUSH2 0x1E2B JUMP JUMPDEST PUSH2 0x37F PUSH2 0x1FF0 JUMP JUMPDEST PUSH2 0x43C PUSH2 0x2039 JUMP JUMPDEST PUSH2 0x43C PUSH1 0x4 DUP1 CALLDATASIZE SUB PUSH1 0x60 DUP2 LT ISZERO PUSH2 0x6F3 JUMPI PUSH1 0x0 DUP1 PUSH2 0x6F0 PUSH2 0x4A89 JUMP JUMPDEST POP POP JUMPDEST POP PUSH1 0x1 PUSH1 0x1 PUSH1 0xA0 SHL SUB DUP2 CALLDATALOAD AND SWAP1 PUSH1 0x20 DUP2 ADD CALLDATALOAD SWAP1 PUSH1 0x40 ADD CALLDATALOAD PUSH2 0x21BC JUMP JUMPDEST PUSH2 0x334 PUSH2 0x234E JUMP JUMPDEST PUSH2 0x43C PUSH1 0x4 DUP1 CALLDATASIZE SUB PUSH1 0x20 DUP2 LT ISZERO PUSH2 0x736 JUMPI PUSH1 0x0 DUP1 PUSH2 0x733 PUSH2 0x4A89 JUMP JUMPDEST POP POP JUMPDEST POP CALLDATALOAD PUSH1 0x1 PUSH1 0x1 PUSH1 0xA0 SHL SUB AND PUSH2 0x2359 JUMP JUMPDEST PUSH2 0x43C PUSH2 0x23D4 JUMP JUMPDEST PUSH2 0x334 PUSH2 0x2517 JUMP JUMPDEST PUSH2 0x37F PUSH2 0x2523 JUMP JUMPDEST PUSH2 0x766 PUSH2 0x252A JUMP JUMPDEST PUSH1 0x40 MLOAD DUP1 DUP3 PUSH2 0x300 DUP1 DUP4 DUP4 PUSH1 0x0 JUMPDEST DUP4 DUP2 LT ISZERO PUSH2 0x78C JUMPI DUP1 DUP3 ADD MLOAD DUP4 DUP3 ADD MSTORE PUSH1 0x20 ADD PUSH2 0x774 JUMP JUMPDEST POP POP POP POP SWAP1 POP ADD SWAP2 POP POP PUSH1 0x40 MLOAD DUP1 SWAP2 SUB SWAP1 RETURN JUMPDEST PUSH2 0x37F PUSH2 0x258C JUMP JUMPDEST PUSH2 0x43C PUSH1 0x4 DUP1 CALLDATASIZE SUB PUSH2 0x100 DUP2 LT ISZERO PUSH2 0x7C7 JUMPI PUSH1 0x0 DUP1 PUSH2 0x7C4 PUSH2 0x4A89 JUMP JUMPDEST POP POP JUMPDEST POP DUP1 CALLDATALOAD SWAP1 PUSH1 0x20 DUP2 ADD CALLDATALOAD SWAP1 PUSH1 0x40 DUP2 ADD CALLDATALOAD SWAP1 PUSH1 0x60 DUP2 ADD CALLDATALOAD SWAP1 PUSH1 0x80 DUP2 ADD CALLDATALOAD SWAP1 PUSH1 0xA0 DUP2 ADD CALLDATALOAD SWAP1 PUSH1 0xC0 DUP2 ADD CALLDATALOAD SWAP1 PUSH1 0xE0 ADD CALLDATALOAD PUSH2 0x2663 JUMP JUMPDEST PUSH2 0x37F PUSH2 0x294E JUMP JUMPDEST PUSH2 0x43C PUSH1 0x4 DUP1 CALLDATASIZE SUB PUSH1 0x40 DUP2 LT ISZERO PUSH2 0x81F JUMPI PUSH1 0x0 DUP1 PUSH2 0x81C PUSH2 0x4A89 JUMP JUMPDEST POP POP JUMPDEST POP PUSH1 0x1 PUSH1 0x1 PUSH1 0xA0 SHL SUB DUP2 CALLDATALOAD AND SWAP1 PUSH1 0x20 ADD CALLDATALOAD PUSH2 0x2958 JUMP JUMPDEST PUSH2 0x652 PUSH2 0x2AF2 JUMP JUMPDEST PUSH2 0x43C PUSH1 0x4 DUP1 CALLDATASIZE SUB PUSH1 0x20 DUP2 LT ISZERO PUSH2 0x85C JUMPI PUSH1 0x0 DUP1 PUSH2 0x859 PUSH2 0x4A89 JUMP JUMPDEST POP POP JUMPDEST POP CALLDATALOAD PUSH1 0x1 PUSH1 0x1 PUSH1 0xA0 SHL SUB AND PUSH2 0x2B0B JUMP JUMPDEST PUSH2 0x43C PUSH2 0x2B21 JUMP JUMPDEST PUSH2 0x334 PUSH2 0x2BA3 JUMP JUMPDEST PUSH2 0x37F PUSH1 0x4 DUP1 CALLDATASIZE SUB PUSH1 0x20 DUP2 LT ISZERO PUSH2 0x89B JUMPI PUSH1 0x0 DUP1 PUSH2 0x898 PUSH2 0x4A89 JUMP JUMPDEST POP POP JUMPDEST POP CALLDATALOAD PUSH2 0x2BAF JUMP JUMPDEST PUSH2 0x8AA PUSH2 0x2BD7 JUMP JUMPDEST PUSH1 0x40 MLOAD PUSH1 0xFF SWAP1 SWAP2 AND DUP2 MSTORE PUSH1 0x20 ADD PUSH1 0x40 MLOAD DUP1 SWAP2 SUB SWAP1 RETURN JUMPDEST PUSH2 0x652 PUSH2 0x2BDC JUMP JUMPDEST PUSH2 0x334 PUSH2 0x2C87 JUMP JUMPDEST PUSH2 0x37F PUSH2 0x2C93 JUMP JUMPDEST PUSH2 0x37F PUSH2 0x2C9D JUMP JUMPDEST PUSH2 0x334 PUSH2 0x2CA2 JUMP JUMPDEST PUSH2 0x334 PUSH2 0x2CBA JUMP JUMPDEST PUSH2 0x43C PUSH1 0x4 DUP1 CALLDATASIZE SUB PUSH1 0x20 DUP2 LT ISZERO PUSH2 0x90F JUMPI PUSH1 0x0 DUP1 PUSH2 0x90C PUSH2 0x4A89 JUMP JUMPDEST POP POP JUMPDEST POP CALLDATALOAD PUSH2 0x2CC6 JUMP JUMPDEST PUSH1 0x0 PUSH1 0x8 PUSH2 0x922 PUSH2 0x4AF4 JUMP JUMPDEST SWAP1 PUSH2 0x100 EXP SWAP1 DIV PUSH1 0x1 PUSH1 0x1 PUSH1 0xA0 SHL SUB AND DUP2 JUMP JUMPDEST PUSH1 0x0 PUSH2 0x93F PUSH2 0x2DB6 JUMP JUMPDEST PUSH1 0x1 PUSH1 0x1 PUSH1 0xA0 SHL SUB AND PUSH4 0xBDC963D8 PUSH32 0x6C6173745F6665655F7769746864726177616C00000000000000000000000000 DUP5 PUSH1 0x40 MLOAD PUSH1 0x20 ADD DUP1 DUP4 DUP2 MSTORE PUSH1 0x20 ADD DUP3 PUSH1 0x1 PUSH1 0x1 PUSH1 0xA0 SHL SUB AND PUSH1 0x1 PUSH1 0x1 PUSH1 0xA0 SHL SUB AND PUSH1 0x60 SHL DUP2 MSTORE PUSH1 0x14 ADD SWAP3 POP POP POP PUSH1 0x40 MLOAD PUSH1 0x20 DUP2 DUP4 SUB SUB DUP2 MSTORE SWAP1 PUSH1 0x40 MSTORE DUP1 MLOAD SWAP1 PUSH1 0x20 ADD KECCAK256 PUSH1 0x40 MLOAD PUSH1 0x1 PUSH1 0x1 PUSH1 0xE0 SHL SUB NOT PUSH1 0xE0 DUP5 SWAP1 SHL AND DUP2 MSTORE PUSH1 0x4 DUP2 ADD SWAP2 SWAP1 SWAP2 MSTORE PUSH1 0x24 ADD PUSH1 0x20 PUSH1 0x40 MLOAD DUP1 DUP4 SUB DUP2 DUP7 DUP1 PUSH2 0x9E3 PUSH2 0x4B4F JUMP JUMPDEST ISZERO DUP1 ISZERO PUSH2 0x9F8 JUMPI PUSH1 0x0 DUP1 PUSH2 0x9F5 PUSH2 0x4A89 JUMP JUMPDEST POP POP JUMPDEST POP GAS PUSH2 0xA02 PUSH2 0x4B9B JUMP JUMPDEST POP POP POP POP POP ISZERO DUP1 ISZERO PUSH2 0xA21 JUMPI RETURNDATASIZE PUSH1 0x0 DUP1 RETURNDATACOPY RETURNDATASIZE PUSH1 0x0 PUSH2 0xA1E PUSH2 0x4A89 JUMP JUMPDEST POP POP JUMPDEST POP POP POP POP PUSH1 0x40 MLOAD RETURNDATASIZE PUSH1 0x20 DUP2 LT ISZERO PUSH2 0xA40 JUMPI PUSH1 0x0 DUP1 PUSH2 0xA3D PUSH2 0x4A89 JUMP JUMPDEST POP POP JUMPDEST DUP2 ADD SWAP1 DUP1 DUP1 MLOAD SWAP4 POP POP POP POP JUMPDEST SWAP2 SWAP1 POP JUMP JUMPDEST PUSH1 0x0 DUP2 PUSH2 0xAAD JUMPI PUSH1 0x40 MLOAD PUSH3 0x461BCD PUSH1 0xE5 SHL DUP2 MSTORE PUSH1 0x20 PUSH1 0x4 DUP3 ADD DUP2 SWAP1 MSTORE PUSH1 0x24 DUP3 ADD MSTORE PUSH32 0x43757272656E7420706572696F64206973206E6F7420636C6F73656420796574 PUSH1 0x44 DUP3 ADD MSTORE PUSH1 0x64 ADD PUSH1 0x40 MLOAD DUP1 SWAP2 SUB SWAP1 PUSH2 0xAAA PUSH2 0x4A89 JUMP JUMPDEST POP POP JUMPDEST PUSH1 0x2 DUP3 LT PUSH2 0xB0A JUMPI PUSH1 0x40 MLOAD PUSH3 0x461BCD PUSH1 0xE5 SHL DUP2 MSTORE PUSH1 0x20 PUSH1 0x4 DUP3 ADD MSTORE PUSH1 0x1D PUSH1 0x24 DUP3 ADD MSTORE PUSH32 0x4578636565647320746865204645455F504552494F445F4C454E475448000000 PUSH1 0x44 DUP3 ADD MSTORE PUSH1 0x64 ADD PUSH1 0x40 MLOAD DUP1 SWAP2 SUB SWAP1 PUSH2 0xB07 PUSH2 0x4A89 JUMP JUMPDEST POP POP JUMPDEST PUSH2 0xB16 PUSH1 0x1 DUP4 SUB PUSH2 0x2DF8 JUMP JUMPDEST PUSH1 0x8 SWAP1 PUSH2 0xB21 PUSH2 0x4AF4 JUMP JUMPDEST PUSH8 0xFFFFFFFFFFFFFFFF PUSH2 0x100 SWAP3 SWAP1 SWAP3 EXP SWAP1 DIV AND PUSH2 0xB40 JUMPI POP PUSH1 0x0 PUSH2 0xC60 JUMP JUMPDEST PUSH1 0x0 PUSH2 0xB7D PUSH1 0x1 PUSH2 0xB53 PUSH1 0x1 DUP7 SUB PUSH2 0x2DF8 JUMP JUMPDEST PUSH1 0x8 SWAP1 PUSH2 0xB5E PUSH2 0x4AF4 JUMP JUMPDEST PUSH8 0xFFFFFFFFFFFFFFFF PUSH2 0x100 SWAP3 SWAP1 SWAP3 EXP SWAP1 DIV AND SWAP1 PUSH4 0xFFFFFFFF PUSH2 0x2E26 AND JUMP JUMPDEST SWAP1 POP PUSH1 0x0 DUP1 PUSH2 0xB8A PUSH2 0x2E8B JUMP JUMPDEST PUSH1 0x1 PUSH1 0x1 PUSH1 0xA0 SHL SUB AND PUSH4 0xD29C000A DUP8 DUP6 PUSH1 0x40 MLOAD PUSH1 0x1 PUSH1 0x1 PUSH1 0xE0 SHL SUB NOT PUSH1 0xE0 DUP6 SWAP1 SHL AND DUP2 MSTORE PUSH1 0x1 PUSH1 0x1 PUSH1 0xA0 SHL SUB SWAP1 SWAP3 AND PUSH1 0x4 DUP4 ADD MSTORE PUSH1 0x24 DUP3 ADD MSTORE PUSH1 0x44 ADD PUSH1 0x40 DUP1 MLOAD DUP1 DUP4 SUB DUP2 DUP7 DUP1 PUSH2 0xBD8 PUSH2 0x4B4F JUMP JUMPDEST ISZERO DUP1 ISZERO PUSH2 0xBED JUMPI PUSH1 0x0 DUP1 PUSH2 0xBEA PUSH2 0x4A89 JUMP JUMPDEST POP POP JUMPDEST POP GAS PUSH2 0xBF7 PUSH2 0x4B9B JUMP JUMPDEST POP POP POP POP POP ISZERO DUP1 ISZERO PUSH2 0xC16 JUMPI RETURNDATASIZE PUSH1 0x0 DUP1 RETURNDATACOPY RETURNDATASIZE PUSH1 0x0 PUSH2 0xC13 PUSH2 0x4A89 JUMP JUMPDEST POP POP JUMPDEST POP POP POP POP PUSH1 0x40 MLOAD RETURNDATASIZE PUSH1 0x40 DUP2 LT ISZERO PUSH2 0xC35 JUMPI PUSH1 0x0 DUP1 PUSH2 0xC32 PUSH2 0x4A89 JUMP JUMPDEST POP POP JUMPDEST DUP2 ADD SWAP1 DUP1 DUP1 MLOAD SWAP3 SWAP2 SWAP1 PUSH1 0x20 ADD DUP1 MLOAD SWAP4 SWAP6 POP SWAP3 SWAP4 POP PUSH2 0xC5A SWAP3 POP DUP6 SWAP2 POP DUP5 SWAP1 POP DUP4 PUSH2 0x2EEA JUMP JUMPDEST SWAP4 POP POP POP POP JUMPDEST SWAP3 SWAP2 POP POP JUMP JUMPDEST PUSH1 0x0 DUP1 PUSH2 0xC71 PUSH2 0x4C54 JUMP JUMPDEST PUSH2 0xC7A DUP5 PUSH2 0x10DA JUMP JUMPDEST SWAP1 POP PUSH1 0x0 DUP1 PUSH1 0x1 JUMPDEST PUSH1 0x2 DUP2 LT ISZERO PUSH2 0xCDE JUMPI PUSH2 0xCAD DUP5 DUP3 PUSH1 0x2 DUP2 LT PUSH2 0xC9A JUMPI INVALID JUMPDEST PUSH1 0x20 MUL ADD MLOAD MLOAD DUP5 SWAP1 PUSH4 0xFFFFFFFF PUSH2 0x3075 AND JUMP JUMPDEST SWAP3 POP PUSH2 0xCD4 DUP5 DUP3 PUSH1 0x2 DUP2 LT PUSH2 0xCBE JUMPI INVALID JUMPDEST PUSH1 0x20 MUL ADD MLOAD PUSH1 0x20 ADD MLOAD DUP4 SWAP1 PUSH4 0xFFFFFFFF PUSH2 0x3075 AND JUMP JUMPDEST SWAP2 POP PUSH1 0x1 ADD PUSH2 0xC82 JUMP JUMPDEST POP SWAP1 SWAP4 POP SWAP2 POP POP JUMPDEST SWAP2 POP SWAP2 JUMP JUMPDEST PUSH2 0xCF3 PUSH2 0x30DE JUMP JUMPDEST DUP1 PUSH1 0x3 PUSH1 0x1 DUP2 PUSH2 0xD01 PUSH2 0x4AF4 JUMP JUMPDEST DUP2 PUSH1 0x1 PUSH1 0x1 PUSH1 0xA0 SHL SUB MUL NOT AND SWAP1 DUP4 PUSH1 0x1 PUSH1 0x1 PUSH1 0xA0 SHL SUB AND MUL OR SWAP1 PUSH2 0xD23 PUSH2 0x4C81 JUMP JUMPDEST POP POP POP POP JUMP JUMPDEST PUSH2 0xD31 PUSH2 0x30DE JUMP JUMPDEST DUP1 PUSH1 0x1 DUP1 DUP1 PUSH2 0xD3E PUSH2 0x4AF4 JUMP JUMPDEST DUP2 PUSH1 0x1 PUSH1 0x1 PUSH1 0xA0 SHL SUB MUL NOT AND SWAP1 DUP4 PUSH1 0x1 PUSH1 0x1 PUSH1 0xA0 SHL SUB AND MUL OR SWAP1 PUSH2 0xD60 PUSH2 0x4C81 JUMP JUMPDEST POP POP POP PUSH32 0x906A1C6BD7E3091EA86693DD029A831C19049CE77F1DCE2CE0BAB1CACBABCE22 DUP2 PUSH1 0x40 MLOAD PUSH1 0x1 PUSH1 0x1 PUSH1 0xA0 SHL SUB SWAP1 SWAP2 AND DUP2 MSTORE PUSH1 0x20 ADD PUSH1 0x40 MLOAD DUP1 SWAP2 SUB SWAP1 LOG1 POP JUMP JUMPDEST PUSH1 0x5 PUSH2 0xDAD PUSH2 0x4AF4 JUMP JUMPDEST DUP2 JUMP JUMPDEST PUSH2 0xDB8 PUSH2 0x30DE JUMP JUMPDEST PUSH1 0x1 PUSH1 0x1 PUSH1 0xA0 SHL SUB DUP2 AND PUSH2 0xE1B JUMPI PUSH1 0x40 MLOAD PUSH3 0x461BCD PUSH1 0xE5 SHL DUP2 MSTORE PUSH1 0x20 PUSH1 0x4 DUP3 ADD MSTORE PUSH1 0x1C PUSH1 0x24 DUP3 ADD MSTORE PUSH32 0x42656E6566696369617279206D757374206E6F74206265207A65726F00000000 PUSH1 0x44 DUP3 ADD MSTORE PUSH1 0x64 ADD PUSH1 0x40 MLOAD DUP1 SWAP2 SUB SWAP1 PUSH2 0xE18 PUSH2 0x4A89 JUMP JUMPDEST POP POP JUMPDEST DUP1 PUSH1 0x6 PUSH2 0x100 DUP2 PUSH2 0xE2A PUSH2 0x4AF4 JUMP JUMPDEST DUP2 PUSH1 0x1 PUSH1 0x1 PUSH1 0xA0 SHL SUB MUL NOT AND SWAP1 DUP4 PUSH1 0x1 PUSH1 0x1 PUSH1 0xA0 SHL SUB AND MUL OR SWAP1 PUSH2 0xE4C PUSH2 0x4C81 JUMP JUMPDEST POP POP POP PUSH32 0xD5DA63A0B864B315BC04128DEDBC93888C8529EE6CF47CE664DC204339228C53 DUP2 PUSH1 0x40 MLOAD PUSH1 0x1 PUSH1 0x1 PUSH1 0xA0 SHL SUB SWAP1 SWAP2 AND DUP2 MSTORE PUSH1 0x20 ADD PUSH1 0x40 MLOAD DUP1 SWAP2 SUB SWAP1 LOG1 POP JUMP JUMPDEST PUSH1 0x0 PUSH2 0xE99 PUSH2 0x3158 JUMP JUMPDEST SWAP1 POP SWAP1 JUMP JUMPDEST PUSH1 0x0 PUSH2 0xEA8 PUSH2 0x3254 JUMP JUMPDEST PUSH1 0x1 PUSH1 0x1 PUSH1 0xA0 SHL SUB AND GAS PUSH2 0xEBA PUSH2 0x4CCF JUMP JUMPDEST PUSH1 0x1 PUSH1 0x1 PUSH1 0xA0 SHL SUB AND EQ SWAP1 POP PUSH1 0x0 DUP1 PUSH2 0xED1 PUSH2 0x32B3 JUMP JUMPDEST PUSH1 0x1 PUSH1 0x1 PUSH1 0xA0 SHL SUB AND PUSH4 0x16B2213F GAS PUSH2 0xEE8 PUSH2 0x4CCF JUMP JUMPDEST PUSH1 0x40 MLOAD PUSH1 0x1 PUSH1 0x1 PUSH1 0xE0 SHL SUB NOT PUSH1 0xE0 DUP5 SWAP1 SHL AND DUP2 MSTORE PUSH1 0x1 PUSH1 0x1 PUSH1 0xA0 SHL SUB SWAP1 SWAP2 AND PUSH1 0x4 DUP3 ADD MSTORE PUSH1 0x24 ADD PUSH1 0x20 PUSH1 0x40 MLOAD DUP1 DUP4 SUB DUP2 DUP7 DUP1 PUSH2 0xF22 PUSH2 0x4B4F JUMP JUMPDEST ISZERO DUP1 ISZERO PUSH2 0xF37 JUMPI PUSH1 0x0 DUP1 PUSH2 0xF34 PUSH2 0x4A89 JUMP JUMPDEST POP POP JUMPDEST POP GAS PUSH2 0xF41 PUSH2 0x4B9B JUMP JUMPDEST POP POP POP POP POP ISZERO DUP1 ISZERO PUSH2 0xF60 JUMPI RETURNDATASIZE PUSH1 0x0 DUP1 RETURNDATACOPY RETURNDATASIZE PUSH1 0x0 PUSH2 0xF5D PUSH2 0x4A89 JUMP JUMPDEST POP POP JUMPDEST POP POP POP POP PUSH1 0x40 MLOAD RETURNDATASIZE PUSH1 0x20 DUP2 LT ISZERO PUSH2 0xF7F JUMPI PUSH1 0x0 DUP1 PUSH2 0xF7C PUSH2 0x4A89 JUMP JUMPDEST POP POP JUMPDEST DUP2 ADD SWAP1 DUP1 DUP1 MLOAD SWAP4 SWAP1 SWAP4 EQ ISZERO SWAP4 POP PUSH1 0x0 SWAP3 POP PUSH2 0xF9C SWAP2 POP PUSH2 0x3312 SWAP1 POP JUMP JUMPDEST PUSH1 0x1 PUSH1 0x1 PUSH1 0xA0 SHL SUB AND GAS PUSH2 0xFAE PUSH2 0x4CCF JUMP JUMPDEST PUSH1 0x1 PUSH1 0x1 PUSH1 0xA0 SHL SUB AND EQ SWAP1 POP DUP3 DUP1 PUSH2 0xFC3 JUMPI POP DUP2 JUMPDEST DUP1 PUSH2 0xFCB JUMPI POP DUP1 JUMPDEST PUSH2 0x1024 JUMPI PUSH1 0x40 MLOAD PUSH3 0x461BCD PUSH1 0xE5 SHL DUP2 MSTORE PUSH1 0x20 PUSH1 0x4 DUP3 ADD MSTORE PUSH1 0x17 PUSH1 0x24 DUP3 ADD MSTORE PUSH32 0x4F6E6C7920496E7465726E616C20436F6E747261637473000000000000000000 PUSH1 0x44 DUP3 ADD MSTORE PUSH1 0x64 ADD PUSH1 0x40 MLOAD DUP1 SWAP2 SUB SWAP1 PUSH2 0x1021 PUSH2 0x4A89 JUMP JUMPDEST POP POP JUMPDEST PUSH2 0x1049 DUP5 PUSH2 0x1032 PUSH1 0x0 PUSH2 0x2DF8 JUMP JUMPDEST PUSH1 0x1 ADD PUSH2 0x103D PUSH2 0x4AF4 JUMP JUMPDEST SWAP1 PUSH4 0xFFFFFFFF PUSH2 0x3075 AND JUMP JUMPDEST PUSH2 0x1053 PUSH1 0x0 PUSH2 0x2DF8 JUMP JUMPDEST PUSH1 0x1 ADD DUP2 SWAP1 PUSH2 0x1060 PUSH2 0x4C81 JUMP JUMPDEST POP POP POP POP POP POP POP JUMP JUMPDEST PUSH2 0x1071 PUSH2 0x30DE JUMP JUMPDEST PUSH1 0x0 DUP1 PUSH1 0x5 PUSH2 0x107E PUSH2 0x4C81 JUMP JUMPDEST POP POP POP PUSH1 0x0 PUSH1 0x6 PUSH1 0x0 PUSH2 0x100 EXP DUP2 PUSH2 0x1094 PUSH2 0x4AF4 JUMP JUMPDEST DUP2 PUSH1 0xFF MUL NOT AND SWAP1 DUP4 ISZERO ISZERO MUL OR SWAP1 PUSH2 0x10A9 PUSH2 0x4C81 JUMP JUMPDEST POP POP POP PUSH32 0x6ADCC7125002935E0AA31697538EBBD65CFDDF20431EB6ECDCFC3E238BFD082C PUSH1 0x40 MLOAD PUSH1 0x40 MLOAD DUP1 SWAP2 SUB SWAP1 LOG1 JUMP JUMPDEST PUSH2 0x10E2 PUSH2 0x4C54 JUMP JUMPDEST PUSH1 0x0 DUP1 PUSH1 0x0 PUSH2 0x10EF PUSH2 0x2E8B JUMP JUMPDEST SWAP1 POP DUP1 PUSH1 0x1 PUSH1 0x1 PUSH1 0xA0 SHL SUB AND PUSH4 0xB326F84E DUP7 PUSH1 0x0 PUSH1 0x40 MLOAD PUSH1 0x1 PUSH1 0x1 PUSH1 0xE0 SHL SUB NOT PUSH1 0xE0 DUP6 SWAP1 SHL AND DUP2 MSTORE PUSH1 0x1 PUSH1 0x1 PUSH1 0xA0 SHL SUB SWAP1 SWAP3 AND PUSH1 0x4 DUP4 ADD MSTORE PUSH1 0x24 DUP3 ADD MSTORE PUSH1 0x44 ADD PUSH1 0x40 DUP1 MLOAD DUP1 DUP4 SUB DUP2 DUP7 DUP1 PUSH2 0x1141 PUSH2 0x4B4F JUMP JUMPDEST ISZERO DUP1 ISZERO PUSH2 0x1156 JUMPI PUSH1 0x0 DUP1 PUSH2 0x1153 PUSH2 0x4A89 JUMP JUMPDEST POP POP JUMPDEST POP GAS PUSH2 0x1160 PUSH2 0x4B9B JUMP JUMPDEST POP POP POP POP POP ISZERO DUP1 ISZERO PUSH2 0x117F JUMPI RETURNDATASIZE PUSH1 0x0 DUP1 RETURNDATACOPY RETURNDATASIZE PUSH1 0x0 PUSH2 0x117C PUSH2 0x4A89 JUMP JUMPDEST POP POP JUMPDEST POP POP POP POP PUSH1 0x40 MLOAD RETURNDATASIZE PUSH1 0x40 DUP2 LT ISZERO PUSH2 0x119E JUMPI PUSH1 0x0 DUP1 PUSH2 0x119B PUSH2 0x4A89 JUMP JUMPDEST POP POP JUMPDEST DUP2 ADD SWAP1 DUP1 DUP1 MLOAD SWAP3 SWAP2 SWAP1 PUSH1 0x20 ADD DUP1 MLOAD SWAP4 SWAP7 POP SWAP3 SWAP5 POP POP DUP4 ISZERO SWAP2 POP POP DUP1 ISZERO PUSH2 0x11C2 JUMPI POP DUP3 ISZERO JUMPDEST ISZERO PUSH2 0x11DA JUMPI PUSH2 0x11CF PUSH2 0x4C54 JUMP JUMPDEST SWAP4 POP PUSH2 0xA4C SWAP3 POP POP POP JUMP JUMPDEST PUSH1 0x0 DUP1 PUSH2 0x11E9 PUSH1 0x0 DUP7 DUP7 PUSH2 0x3354 JUMP JUMPDEST SWAP1 SWAP3 POP SWAP1 POP DUP2 DUP7 MLOAD MSTORE DUP1 DUP7 MLOAD PUSH1 0x20 ADD MSTORE PUSH1 0x0 PUSH2 0x1204 DUP9 PUSH2 0x935 JUMP JUMPDEST SWAP1 POP PUSH1 0x1 JUMPDEST DUP1 ISZERO PUSH2 0x13AA JUMPI PUSH1 0x0 NOT DUP2 ADD PUSH1 0x0 PUSH2 0x121F DUP3 PUSH2 0x2DF8 JUMP JUMPDEST PUSH1 0x8 SWAP1 PUSH2 0x122A PUSH2 0x4AF4 JUMP JUMPDEST SWAP1 PUSH2 0x100 EXP SWAP1 DIV PUSH8 0xFFFFFFFFFFFFFFFF AND PUSH8 0xFFFFFFFFFFFFFFFF AND SWAP1 POP PUSH1 0x0 DUP2 GT DUP1 ISZERO PUSH2 0x1284 JUMPI POP PUSH2 0x125B DUP4 PUSH2 0x2DF8 JUMP JUMPDEST PUSH1 0x0 SWAP1 PUSH2 0x1266 PUSH2 0x4AF4 JUMP JUMPDEST SWAP1 PUSH2 0x100 EXP SWAP1 DIV PUSH8 0xFFFFFFFFFFFFFFFF AND PUSH8 0xFFFFFFFFFFFFFFFF AND DUP5 LT JUMPDEST ISZERO PUSH2 0x139F JUMPI PUSH1 0x0 PUSH2 0x129C DUP3 PUSH1 0x1 PUSH4 0xFFFFFFFF PUSH2 0x2E26 AND JUMP JUMPDEST SWAP1 POP DUP8 PUSH1 0x1 PUSH1 0x1 PUSH1 0xA0 SHL SUB AND PUSH4 0xD29C000A DUP14 DUP4 PUSH1 0x40 MLOAD PUSH1 0x1 PUSH1 0x1 PUSH1 0xE0 SHL SUB NOT PUSH1 0xE0 DUP6 SWAP1 SHL AND DUP2 MSTORE PUSH1 0x1 PUSH1 0x1 PUSH1 0xA0 SHL SUB SWAP1 SWAP3 AND PUSH1 0x4 DUP4 ADD MSTORE PUSH1 0x24 DUP3 ADD MSTORE PUSH1 0x44 ADD PUSH1 0x40 DUP1 MLOAD DUP1 DUP4 SUB DUP2 DUP7 DUP1 PUSH2 0x12ED PUSH2 0x4B4F JUMP JUMPDEST ISZERO DUP1 ISZERO PUSH2 0x1302 JUMPI PUSH1 0x0 DUP1 PUSH2 0x12FF PUSH2 0x4A89 JUMP JUMPDEST POP POP JUMPDEST POP GAS PUSH2 0x130C PUSH2 0x4B9B JUMP JUMPDEST POP POP POP POP POP ISZERO DUP1 ISZERO PUSH2 0x132B JUMPI RETURNDATASIZE PUSH1 0x0 DUP1 RETURNDATACOPY RETURNDATASIZE PUSH1 0x0 PUSH2 0x1328 PUSH2 0x4A89 JUMP JUMPDEST POP POP JUMPDEST POP POP POP POP PUSH1 0x40 MLOAD RETURNDATASIZE PUSH1 0x40 DUP2 LT ISZERO PUSH2 0x134A JUMPI PUSH1 0x0 DUP1 PUSH2 0x1347 PUSH2 0x4A89 JUMP JUMPDEST POP POP JUMPDEST DUP2 ADD SWAP1 DUP1 DUP1 MLOAD SWAP3 SWAP2 SWAP1 PUSH1 0x20 ADD DUP1 MLOAD SWAP4 SWAP14 POP SWAP3 SWAP12 POP PUSH2 0x136F SWAP3 POP DUP7 SWAP2 POP DUP13 SWAP1 POP DUP12 PUSH2 0x3354 JUMP JUMPDEST SWAP1 SWAP8 POP SWAP6 POP DUP7 DUP12 DUP6 PUSH1 0x2 DUP2 LT PUSH2 0x1381 JUMPI INVALID JUMPDEST PUSH1 0x20 MUL ADD MLOAD MSTORE DUP6 DUP12 DUP6 PUSH1 0x2 DUP2 LT PUSH2 0x1394 JUMPI INVALID JUMPDEST PUSH1 0x20 MUL ADD MLOAD PUSH1 0x20 ADD MSTORE POP JUMPDEST POP POP PUSH1 0x0 NOT ADD PUSH2 0x1209 JUMP JUMPDEST POP POP POP POP POP POP POP SWAP2 SWAP1 POP JUMP JUMPDEST PUSH2 0x13BE PUSH2 0x30DE JUMP JUMPDEST DUP1 PUSH1 0x8 PUSH1 0x1 DUP2 PUSH2 0x13CC PUSH2 0x4AF4 JUMP JUMPDEST DUP2 PUSH1 0x1 PUSH1 0x1 PUSH1 0xA0 SHL SUB MUL NOT AND SWAP1 DUP4 PUSH1 0x1 PUSH1 0x1 PUSH1 0xA0 SHL SUB AND MUL OR SWAP1 PUSH2 0x13EE PUSH2 0x4C81 JUMP JUMPDEST POP PUSH1 0x0 SWAP2 POP POP JUMPDEST PUSH1 0xA DUP1 PUSH2 0x1400 PUSH2 0x4AF4 JUMP JUMPDEST SWAP1 POP DUP2 LT ISZERO PUSH2 0x157C JUMPI PUSH1 0x0 PUSH1 0xA DUP3 DUP2 PUSH2 0x1417 PUSH2 0x4AF4 JUMP JUMPDEST DUP2 LT PUSH2 0x141F JUMPI INVALID JUMPDEST SWAP1 PUSH1 0x0 MSTORE PUSH1 0x20 PUSH1 0x0 KECCAK256 ADD PUSH2 0x1431 PUSH2 0x4AF4 JUMP JUMPDEST SWAP1 POP PUSH1 0x0 PUSH1 0x8 PUSH2 0x143F PUSH2 0x4AF4 JUMP JUMPDEST SWAP1 PUSH2 0x100 EXP SWAP1 DIV PUSH1 0x1 PUSH1 0x1 PUSH1 0xA0 SHL SUB AND PUSH1 0x1 PUSH1 0x1 PUSH1 0xA0 SHL SUB AND PUSH4 0xDACB2D01 DUP3 PUSH1 0x40 MLOAD PUSH1 0x1 PUSH1 0x1 PUSH1 0xE0 SHL SUB NOT PUSH1 0xE0 DUP5 SWAP1 SHL AND DUP2 MSTORE PUSH1 0x4 DUP2 ADD SWAP2 SWAP1 SWAP2 MSTORE PUSH1 0x40 PUSH1 0x24 DUP3 ADD DUP2 SWAP1 MSTORE PUSH1 0x17 PUSH1 0x44 DUP4 ADD MSTORE PUSH32 0x5265736F6C766572206D697373696E6720746172676574000000000000000000 PUSH1 0x64 DUP4 ADD MSTORE PUSH1 0x84 SWAP1 SWAP2 ADD SWAP1 PUSH1 0x20 SWAP1 MLOAD DUP1 DUP4 SUB DUP2 DUP7 DUP1 PUSH2 0x14C8 PUSH2 0x4B4F JUMP JUMPDEST ISZERO DUP1 ISZERO PUSH2 0x14DD JUMPI PUSH1 0x0 DUP1 PUSH2 0x14DA PUSH2 0x4A89 JUMP JUMPDEST POP POP JUMPDEST POP GAS PUSH2 0x14E7 PUSH2 0x4B9B JUMP JUMPDEST POP POP POP POP POP ISZERO DUP1 ISZERO PUSH2 0x1506 JUMPI RETURNDATASIZE PUSH1 0x0 DUP1 RETURNDATACOPY RETURNDATASIZE PUSH1 0x0 PUSH2 0x1503 PUSH2 0x4A89 JUMP JUMPDEST POP POP JUMPDEST POP POP POP POP PUSH1 0x40 MLOAD RETURNDATASIZE PUSH1 0x20 DUP2 LT ISZERO PUSH2 0x1525 JUMPI PUSH1 0x0 DUP1 PUSH2 0x1522 PUSH2 0x4A89 JUMP JUMPDEST POP POP JUMPDEST DUP2 ADD SWAP1 DUP1 DUP1 MLOAD PUSH1 0x0 DUP6 DUP2 MSTORE PUSH1 0x9 PUSH1 0x20 MSTORE SWAP1 SWAP4 POP PUSH1 0x40 SWAP3 POP SWAP1 POP KECCAK256 PUSH1 0x1 DUP2 PUSH2 0x154A PUSH2 0x4AF4 JUMP JUMPDEST DUP2 PUSH1 0x1 PUSH1 0x1 PUSH1 0xA0 SHL SUB MUL NOT AND SWAP1 DUP4 PUSH1 0x1 PUSH1 0x1 PUSH1 0xA0 SHL SUB AND MUL OR SWAP1 PUSH2 0x156C PUSH2 0x4C81 JUMP JUMPDEST POP POP PUSH1 0x1 SWAP1 SWAP3 ADD SWAP2 POP PUSH2 0x13F5 SWAP1 POP JUMP JUMPDEST POP POP JUMP JUMPDEST PUSH2 0x1588 PUSH2 0x33EC JUMP JUMPDEST PUSH1 0x1 PUSH1 0x1 PUSH1 0xA0 SHL SUB AND PUSH4 0x7C312541 PUSH1 0x40 MLOAD DUP2 PUSH4 0xFFFFFFFF AND PUSH1 0xE0 SHL DUP2 MSTORE PUSH1 0x4 ADD PUSH1 0x0 PUSH1 0x40 MLOAD DUP1 DUP4 SUB DUP2 DUP7 DUP1 PUSH2 0x15BB PUSH2 0x4B4F JUMP JUMPDEST ISZERO DUP1 ISZERO PUSH2 0x15D0 JUMPI PUSH1 0x0 DUP1 PUSH2 0x15CD PUSH2 0x4A89 JUMP JUMPDEST POP POP JUMPDEST POP GAS PUSH2 0x15DA PUSH2 0x4B9B JUMP JUMPDEST POP POP POP POP POP ISZERO DUP1 ISZERO PUSH2 0x15F9 JUMPI RETURNDATASIZE PUSH1 0x0 DUP1 RETURNDATACOPY RETURNDATASIZE PUSH1 0x0 PUSH2 0x15F6 PUSH2 0x4A89 JUMP JUMPDEST POP POP JUMPDEST POP POP POP POP PUSH1 0x0 PUSH2 0x1607 PUSH2 0x3158 JUMP JUMPDEST GT PUSH2 0x1661 JUMPI PUSH1 0x40 MLOAD PUSH3 0x461BCD PUSH1 0xE5 SHL DUP2 MSTORE PUSH1 0x20 PUSH1 0x4 DUP3 ADD MSTORE PUSH1 0x1B PUSH1 0x24 DUP3 ADD MSTORE PUSH32 0x46656520506572696F64204475726174696F6E206E6F74207365740000000000 PUSH1 0x44 DUP3 ADD MSTORE PUSH1 0x64 ADD PUSH1 0x40 MLOAD DUP1 SWAP2 SUB SWAP1 PUSH2 0x165E PUSH2 0x4A89 JUMP JUMPDEST POP POP JUMPDEST PUSH2 0x1669 PUSH2 0x3158 JUMP JUMPDEST GAS PUSH2 0x1672 PUSH2 0x4D15 JUMP JUMPDEST SUB PUSH2 0x167D PUSH1 0x0 PUSH2 0x2DF8 JUMP JUMPDEST PUSH1 0x10 SWAP1 PUSH2 0x1688 PUSH2 0x4AF4 JUMP JUMPDEST SWAP1 PUSH2 0x100 EXP SWAP1 DIV PUSH8 0xFFFFFFFFFFFFFFFF AND PUSH8 0xFFFFFFFFFFFFFFFF AND GT ISZERO PUSH2 0x16FE JUMPI PUSH1 0x40 MLOAD PUSH3 0x461BCD PUSH1 0xE5 SHL DUP2 MSTORE PUSH1 0x20 PUSH1 0x4 DUP3 ADD MSTORE PUSH1 0x1D PUSH1 0x24 DUP3 ADD MSTORE PUSH32 0x546F6F206561726C7920746F20636C6F73652066656520706572696F64000000 PUSH1 0x44 DUP3 ADD MSTORE PUSH1 0x64 ADD PUSH1 0x40 MLOAD DUP1 SWAP2 SUB SWAP1 PUSH2 0x16FB PUSH2 0x4A89 JUMP JUMPDEST POP POP JUMPDEST PUSH1 0x0 PUSH2 0x1709 DUP2 PUSH2 0x2DF8 JUMP JUMPDEST SWAP1 POP PUSH1 0x0 PUSH2 0x1717 PUSH1 0x1 PUSH2 0x2DF8 JUMP JUMPDEST SWAP1 POP PUSH2 0x174F DUP3 PUSH1 0x1 ADD PUSH2 0x1728 PUSH2 0x4AF4 JUMP JUMPDEST PUSH2 0x103D DUP4 PUSH1 0x2 ADD PUSH2 0x1737 PUSH2 0x4AF4 JUMP JUMPDEST DUP5 PUSH1 0x1 ADD PUSH2 0x1743 PUSH2 0x4AF4 JUMP JUMPDEST SWAP1 PUSH4 0xFFFFFFFF PUSH2 0x2E26 AND JUMP JUMPDEST PUSH2 0x1759 PUSH1 0x0 PUSH2 0x2DF8 JUMP JUMPDEST PUSH1 0x1 ADD DUP2 SWAP1 PUSH2 0x1766 PUSH2 0x4C81 JUMP JUMPDEST POP POP POP PUSH2 0x1793 DUP3 PUSH1 0x3 ADD PUSH2 0x1778 PUSH2 0x4AF4 JUMP JUMPDEST PUSH2 0x103D DUP4 PUSH1 0x4 ADD PUSH2 0x1787 PUSH2 0x4AF4 JUMP JUMPDEST DUP5 PUSH1 0x3 ADD PUSH2 0x1743 PUSH2 0x4AF4 JUMP JUMPDEST PUSH2 0x179D PUSH1 0x0 PUSH2 0x2DF8 JUMP JUMPDEST PUSH1 0x3 ADD DUP2 SWAP1 PUSH2 0x17AA PUSH2 0x4C81 JUMP JUMPDEST POP PUSH2 0x17D3 SWAP2 POP PUSH1 0x2 SWAP1 POP PUSH2 0x17C7 PUSH1 0x1 PUSH2 0x1743 DUP4 PUSH1 0x16 PUSH2 0x103D PUSH2 0x4AF4 JUMP JUMPDEST SWAP1 PUSH4 0xFFFFFFFF PUSH2 0x344B AND JUMP JUMPDEST DUP1 PUSH1 0x16 PUSH2 0x17DE PUSH2 0x4C81 JUMP JUMPDEST POP POP POP PUSH1 0xC PUSH1 0x16 PUSH2 0x17ED PUSH2 0x4AF4 JUMP JUMPDEST PUSH1 0x2 DUP2 LT PUSH2 0x17F7 JUMPI INVALID JUMPDEST PUSH1 0x5 MUL ADD PUSH1 0x0 DUP2 PUSH1 0x1 DUP2 PUSH2 0x1809 PUSH2 0x4AF4 JUMP JUMPDEST SWAP1 PUSH8 0xFFFFFFFFFFFFFFFF MUL NOT AND SWAP1 PUSH2 0x181F PUSH2 0x4C81 JUMP JUMPDEST POP DUP3 SWAP1 POP PUSH9 0x10000000000000000 DUP2 PUSH2 0x1836 PUSH2 0x4AF4 JUMP JUMPDEST SWAP1 PUSH8 0xFFFFFFFFFFFFFFFF MUL NOT AND SWAP1 PUSH2 0x184C PUSH2 0x4C81 JUMP JUMPDEST POP DUP3 SWAP1 POP PUSH17 0x100000000000000000000000000000000 DUP2 PUSH2 0x186B PUSH2 0x4AF4 JUMP JUMPDEST SWAP1 PUSH8 0xFFFFFFFFFFFFFFFF MUL NOT AND SWAP1 PUSH2 0x1881 PUSH2 0x4C81 JUMP JUMPDEST POP POP PUSH1 0x1 DUP3 ADD PUSH1 0x0 SWAP1 PUSH2 0x1892 PUSH2 0x4C81 JUMP JUMPDEST POP POP PUSH1 0x2 DUP3 ADD PUSH1 0x0 SWAP1 PUSH2 0x18A3 PUSH2 0x4C81 JUMP JUMPDEST POP POP PUSH1 0x3 DUP3 ADD PUSH1 0x0 SWAP1 PUSH2 0x18B4 PUSH2 0x4C81 JUMP JUMPDEST POP POP PUSH1 0x4 DUP3 ADD PUSH1 0x0 SWAP1 PUSH2 0x18C5 PUSH2 0x4C81 JUMP JUMPDEST POP POP POP POP PUSH2 0x1902 PUSH1 0x1 PUSH2 0x18D8 PUSH1 0x1 PUSH2 0x2DF8 JUMP JUMPDEST PUSH1 0x0 SWAP1 PUSH2 0x18E3 PUSH2 0x4AF4 JUMP JUMPDEST PUSH8 0xFFFFFFFFFFFFFFFF PUSH2 0x100 SWAP3 SWAP1 SWAP3 EXP SWAP1 DIV AND SWAP1 PUSH4 0xFFFFFFFF PUSH2 0x3075 AND JUMP JUMPDEST PUSH2 0x190C PUSH1 0x0 PUSH2 0x2DF8 JUMP JUMPDEST PUSH1 0x1 DUP2 PUSH2 0x1917 PUSH2 0x4AF4 JUMP JUMPDEST DUP2 PUSH8 0xFFFFFFFFFFFFFFFF MUL NOT AND SWAP1 DUP4 PUSH8 0xFFFFFFFFFFFFFFFF AND MUL OR SWAP1 PUSH2 0x193B PUSH2 0x4C81 JUMP JUMPDEST POP POP POP PUSH2 0x1946 PUSH2 0x34B8 JUMP JUMPDEST PUSH1 0x1 PUSH1 0x1 PUSH1 0xA0 SHL SUB AND PUSH4 0xCD92EBA9 PUSH1 0x40 MLOAD DUP2 PUSH4 0xFFFFFFFF AND PUSH1 0xE0 SHL DUP2 MSTORE PUSH1 0x4 ADD PUSH1 0x20 PUSH1 0x40 MLOAD DUP1 DUP4 SUB DUP2 DUP7 DUP1 PUSH2 0x1979 PUSH2 0x4B4F JUMP JUMPDEST ISZERO DUP1 ISZERO PUSH2 0x198E JUMPI PUSH1 0x0 DUP1 PUSH2 0x198B PUSH2 0x4A89 JUMP JUMPDEST POP POP JUMPDEST POP GAS PUSH2 0x1998 PUSH2 0x4B9B JUMP JUMPDEST POP POP POP POP POP ISZERO DUP1 ISZERO PUSH2 0x19B7 JUMPI RETURNDATASIZE PUSH1 0x0 DUP1 RETURNDATACOPY RETURNDATASIZE PUSH1 0x0 PUSH2 0x19B4 PUSH2 0x4A89 JUMP JUMPDEST POP POP JUMPDEST POP POP POP POP PUSH1 0x40 MLOAD RETURNDATASIZE PUSH1 0x20 DUP2 LT ISZERO PUSH2 0x19D6 JUMPI PUSH1 0x0 DUP1 PUSH2 0x19D3 PUSH2 0x4A89 JUMP JUMPDEST POP POP JUMPDEST DUP2 ADD SWAP1 DUP1 DUP1 MLOAD SWAP3 POP PUSH2 0x19EC SWAP2 POP PUSH1 0x0 SWAP1 POP PUSH2 0x2DF8 JUMP JUMPDEST PUSH9 0x10000000000000000 DUP2 PUSH2 0x19FF PUSH2 0x4AF4 JUMP JUMPDEST DUP2 PUSH8 0xFFFFFFFFFFFFFFFF MUL NOT AND SWAP1 DUP4 PUSH8 0xFFFFFFFFFFFFFFFF AND MUL OR SWAP1 PUSH2 0x1A23 PUSH2 0x4C81 JUMP JUMPDEST POP POP POP GAS PUSH2 0x1A2F PUSH2 0x4D15 JUMP JUMPDEST PUSH2 0x1A39 PUSH1 0x0 PUSH2 0x2DF8 JUMP JUMPDEST PUSH17 0x100000000000000000000000000000000 DUP2 PUSH2 0x1A54 PUSH2 0x4AF4 JUMP JUMPDEST DUP2 PUSH8 0xFFFFFFFFFFFFFFFF MUL NOT AND SWAP1 DUP4 PUSH8 0xFFFFFFFFFFFFFFFF AND MUL OR SWAP1 PUSH2 0x1A78 PUSH2 0x4C81 JUMP JUMPDEST POP POP POP PUSH2 0x157C PUSH2 0x1A88 PUSH1 0x1 PUSH2 0x2DF8 JUMP JUMPDEST PUSH1 0x0 SWAP1 PUSH2 0x1A93 PUSH2 0x4AF4 JUMP JUMPDEST SWAP1 PUSH2 0x100 EXP SWAP1 DIV PUSH8 0xFFFFFFFFFFFFFFFF AND PUSH8 0xFFFFFFFFFFFFFFFF AND PUSH2 0x3517 JUMP JUMPDEST PUSH1 0x0 DUP1 PUSH1 0x0 DUP1 PUSH1 0x0 DUP1 PUSH1 0x0 PUSH2 0x1AC6 PUSH2 0x4D5B JUMP JUMPDEST PUSH2 0x1ACF DUP10 PUSH2 0x2DF8 JUMP JUMPDEST PUSH1 0x40 MLOAD PUSH1 0xE0 DUP2 ADD PUSH1 0x40 MSTORE SWAP1 DUP2 PUSH1 0x0 DUP3 PUSH2 0x1AE6 PUSH2 0x4AF4 JUMP JUMPDEST PUSH8 0xFFFFFFFFFFFFFFFF PUSH2 0x100 SWAP3 SWAP1 SWAP3 EXP SWAP1 DIV AND DUP2 MSTORE PUSH1 0x20 ADD PUSH1 0x8 DUP3 PUSH2 0x1B09 PUSH2 0x4AF4 JUMP JUMPDEST PUSH8 0xFFFFFFFFFFFFFFFF PUSH2 0x100 SWAP3 SWAP1 SWAP3 EXP SWAP1 DIV AND DUP2 MSTORE PUSH1 0x20 ADD PUSH1 0x10 DUP3 PUSH2 0x1B2C PUSH2 0x4AF4 JUMP JUMPDEST PUSH8 0xFFFFFFFFFFFFFFFF PUSH2 0x100 SWAP3 SWAP1 SWAP3 EXP SWAP1 DIV AND DUP2 MSTORE PUSH1 0x20 ADD PUSH1 0x1 DUP3 ADD PUSH2 0x1B50 PUSH2 0x4AF4 JUMP JUMPDEST DUP2 MSTORE PUSH1 0x20 ADD PUSH1 0x2 DUP3 ADD PUSH2 0x1B61 PUSH2 0x4AF4 JUMP JUMPDEST DUP2 MSTORE PUSH1 0x20 ADD PUSH1 0x3 DUP3 ADD PUSH2 0x1B72 PUSH2 0x4AF4 JUMP JUMPDEST DUP2 MSTORE PUSH1 0x20 ADD PUSH1 0x4 DUP3 ADD PUSH2 0x1B83 PUSH2 0x4AF4 JUMP JUMPDEST SWAP1 MSTORE POP SWAP1 POP DUP1 MLOAD DUP2 PUSH1 0x20 ADD MLOAD DUP3 PUSH1 0x40 ADD MLOAD DUP4 PUSH1 0x60 ADD MLOAD DUP5 PUSH1 0x80 ADD MLOAD DUP6 PUSH1 0xA0 ADD MLOAD DUP7 PUSH1 0xC0 ADD MLOAD SWAP6 SWAP16 SWAP5 SWAP15 POP SWAP3 SWAP13 POP SWAP1 SWAP11 POP SWAP9 POP SWAP7 POP SWAP1 SWAP5 POP SWAP3 POP POP POP JUMP JUMPDEST PUSH1 0x7 PUSH2 0xDAD PUSH2 0x4AF4 JUMP JUMPDEST PUSH1 0x0 PUSH1 0x1 PUSH2 0x922 PUSH2 0x4AF4 JUMP JUMPDEST PUSH1 0x0 DUP1 PUSH1 0x1 JUMPDEST PUSH1 0x2 DUP2 LT ISZERO PUSH2 0x1C39 JUMPI PUSH2 0x1C09 PUSH2 0x1BF1 DUP3 PUSH2 0x2DF8 JUMP JUMPDEST PUSH1 0x1 ADD PUSH2 0x1BFC PUSH2 0x4AF4 JUMP JUMPDEST DUP4 SWAP1 PUSH4 0xFFFFFFFF PUSH2 0x3075 AND JUMP JUMPDEST SWAP2 POP PUSH2 0x1C2F PUSH2 0x1C17 DUP3 PUSH2 0x2DF8 JUMP JUMPDEST PUSH1 0x2 ADD PUSH2 0x1C22 PUSH2 0x4AF4 JUMP JUMPDEST DUP4 SWAP1 PUSH4 0xFFFFFFFF PUSH2 0x2E26 AND JUMP JUMPDEST SWAP2 POP PUSH1 0x1 ADD PUSH2 0x1BDC JUMP JUMPDEST POP SWAP1 POP SWAP1 JUMP JUMPDEST PUSH1 0x0 PUSH2 0x1C4A DUP3 PUSH2 0x3694 JUMP JUMPDEST POP SWAP3 SWAP2 POP POP JUMP JUMPDEST PUSH1 0x0 PUSH1 0x1 PUSH1 0x1 PUSH1 0xA0 SHL SUB DUP3 AND DUP2 PUSH1 0x8 PUSH2 0x1C68 PUSH2 0x4AF4 JUMP JUMPDEST SWAP1 PUSH2 0x100 EXP SWAP1 DIV PUSH1 0x1 PUSH1 0x1 PUSH1 0xA0 SHL SUB AND PUSH1 0x1 PUSH1 0x1 PUSH1 0xA0 SHL SUB AND EQ PUSH2 0x1C8E JUMPI POP PUSH1 0x0 PUSH2 0xA4C JUMP JUMPDEST PUSH1 0x0 JUMPDEST PUSH1 0xA DUP1 PUSH2 0x1C9C PUSH2 0x4AF4 JUMP JUMPDEST SWAP1 POP DUP2 LT ISZERO PUSH2 0x1E22 JUMPI PUSH1 0x0 PUSH1 0xA DUP3 DUP2 PUSH2 0x1CB3 PUSH2 0x4AF4 JUMP JUMPDEST DUP2 LT PUSH2 0x1CBB JUMPI INVALID JUMPDEST SWAP1 PUSH1 0x0 MSTORE PUSH1 0x20 PUSH1 0x0 KECCAK256 ADD PUSH2 0x1CCD PUSH2 0x4AF4 JUMP JUMPDEST PUSH1 0x0 DUP2 DUP2 MSTORE PUSH1 0x9 PUSH1 0x20 MSTORE SWAP1 SWAP2 POP PUSH1 0x40 SWAP1 KECCAK256 PUSH1 0x0 SWAP1 PUSH2 0x1CE9 PUSH2 0x4AF4 JUMP JUMPDEST PUSH1 0x1 PUSH1 0x1 PUSH1 0xA0 SHL SUB PUSH2 0x100 SWAP3 SWAP1 SWAP3 EXP SWAP1 DIV AND PUSH1 0x0 PUSH1 0x8 PUSH2 0x1D07 PUSH2 0x4AF4 JUMP JUMPDEST SWAP1 PUSH2 0x100 EXP SWAP1 DIV PUSH1 0x1 PUSH1 0x1 PUSH1 0xA0 SHL SUB AND PUSH1 0x1 PUSH1 0x1 PUSH1 0xA0 SHL SUB AND PUSH4 0x21F8A721 DUP4 PUSH1 0x40 MLOAD PUSH1 0x1 PUSH1 0x1 PUSH1 0xE0 SHL SUB NOT PUSH1 0xE0 DUP5 SWAP1 SHL AND DUP2 MSTORE PUSH1 0x4 DUP2 ADD SWAP2 SWAP1 SWAP2 MSTORE PUSH1 0x24 ADD PUSH1 0x20 PUSH1 0x40 MLOAD DUP1 DUP4 SUB DUP2 DUP7 DUP1 PUSH2 0x1D58 PUSH2 0x4B4F JUMP JUMPDEST ISZERO DUP1 ISZERO PUSH2 0x1D6D JUMPI PUSH1 0x0 DUP1 PUSH2 0x1D6A PUSH2 0x4A89 JUMP JUMPDEST POP POP JUMPDEST POP GAS PUSH2 0x1D77 PUSH2 0x4B9B JUMP JUMPDEST POP POP POP POP POP ISZERO DUP1 ISZERO PUSH2 0x1D96 JUMPI RETURNDATASIZE PUSH1 0x0 DUP1 RETURNDATACOPY RETURNDATASIZE PUSH1 0x0 PUSH2 0x1D93 PUSH2 0x4A89 JUMP JUMPDEST POP POP JUMPDEST POP POP POP POP PUSH1 0x40 MLOAD RETURNDATASIZE PUSH1 0x20 DUP2 LT ISZERO PUSH2 0x1DB5 JUMPI PUSH1 0x0 DUP1 PUSH2 0x1DB2 PUSH2 0x4A89 JUMP JUMPDEST POP POP JUMPDEST DUP2 ADD SWAP1 DUP1 DUP1 MLOAD PUSH1 0x1 PUSH1 0x1 PUSH1 0xA0 SHL SUB AND SWAP4 SWAP1 SWAP4 EQ ISZERO SWAP3 POP DUP3 SWAP2 POP PUSH2 0x1E09 SWAP1 POP JUMPI POP PUSH1 0x0 DUP2 DUP2 MSTORE PUSH1 0x9 PUSH1 0x20 MSTORE PUSH1 0x40 DUP2 KECCAK256 PUSH1 0x0 SWAP1 PUSH2 0x1DEE PUSH2 0x4AF4 JUMP JUMPDEST SWAP1 PUSH2 0x100 EXP SWAP1 DIV PUSH1 0x1 PUSH1 0x1 PUSH1 0xA0 SHL SUB AND PUSH1 0x1 PUSH1 0x1 PUSH1 0xA0 SHL SUB AND EQ JUMPDEST ISZERO PUSH2 0x1E19 JUMPI PUSH1 0x0 SWAP3 POP POP POP PUSH2 0xA4C JUMP JUMPDEST POP PUSH1 0x1 ADD PUSH2 0x1C91 JUMP JUMPDEST POP PUSH1 0x1 SWAP3 SWAP2 POP POP JUMP JUMPDEST PUSH1 0x0 PUSH2 0x1E35 PUSH2 0x33EC JUMP JUMPDEST PUSH1 0x1 PUSH1 0x1 PUSH1 0xA0 SHL SUB AND PUSH4 0x7C312541 PUSH1 0x40 MLOAD DUP2 PUSH4 0xFFFFFFFF AND PUSH1 0xE0 SHL DUP2 MSTORE PUSH1 0x4 ADD PUSH1 0x0 PUSH1 0x40 MLOAD DUP1 DUP4 SUB DUP2 DUP7 DUP1 PUSH2 0x1E68 PUSH2 0x4B4F JUMP JUMPDEST ISZERO DUP1 ISZERO PUSH2 0x1E7D JUMPI PUSH1 0x0 DUP1 PUSH2 0x1E7A PUSH2 0x4A89 JUMP JUMPDEST POP POP JUMPDEST POP GAS PUSH2 0x1E87 PUSH2 0x4B9B JUMP JUMPDEST POP POP POP POP POP ISZERO DUP1 ISZERO PUSH2 0x1EA6 JUMPI RETURNDATASIZE PUSH1 0x0 DUP1 RETURNDATACOPY RETURNDATASIZE PUSH1 0x0 PUSH2 0x1EA3 PUSH2 0x4A89 JUMP JUMPDEST POP POP JUMPDEST POP POP POP POP PUSH2 0x1EB2 PUSH2 0x37C9 JUMP JUMPDEST PUSH2 0x1EBA PUSH2 0x389F JUMP JUMPDEST PUSH1 0x1 PUSH1 0x1 PUSH1 0xA0 SHL SUB AND PUSH4 0x21F4AE57 DUP4 PUSH1 0x0 PUSH1 0x4 PUSH2 0x1ED5 PUSH2 0x4AF4 JUMP JUMPDEST SWAP1 PUSH2 0x100 EXP SWAP1 DIV PUSH1 0x1 PUSH1 0x1 PUSH1 0xA0 SHL SUB AND PUSH1 0x40 MLOAD PUSH1 0x1 PUSH1 0x1 PUSH1 0xE0 SHL SUB NOT PUSH1 0xE0 DUP6 SWAP1 SHL AND DUP2 MSTORE PUSH1 0x1 PUSH1 0x1 PUSH1 0xA0 SHL SUB SWAP3 DUP4 AND PUSH1 0x4 DUP3 ADD MSTORE SWAP2 AND PUSH1 0x24 DUP3 ADD MSTORE PUSH1 0x44 ADD PUSH1 0x20 PUSH1 0x40 MLOAD DUP1 DUP4 SUB DUP2 DUP7 DUP1 PUSH2 0x1F26 PUSH2 0x4B4F JUMP JUMPDEST ISZERO DUP1 ISZERO PUSH2 0x1F3B JUMPI PUSH1 0x0 DUP1 PUSH2 0x1F38 PUSH2 0x4A89 JUMP JUMPDEST POP POP JUMPDEST POP GAS PUSH2 0x1F45 PUSH2 0x4B9B JUMP JUMPDEST POP POP POP POP POP ISZERO DUP1 ISZERO PUSH2 0x1F64 JUMPI RETURNDATASIZE PUSH1 0x0 DUP1 RETURNDATACOPY RETURNDATASIZE PUSH1 0x0 PUSH2 0x1F61 PUSH2 0x4A89 JUMP JUMPDEST POP POP JUMPDEST POP POP POP POP PUSH1 0x40 MLOAD RETURNDATASIZE PUSH1 0x20 DUP2 LT ISZERO PUSH2 0x1F83 JUMPI PUSH1 0x0 DUP1 PUSH2 0x1F80 PUSH2 0x4A89 JUMP JUMPDEST POP POP JUMPDEST DUP2 ADD SWAP1 DUP1 DUP1 MLOAD SWAP3 POP PUSH2 0x1FE7 SWAP2 POP POP JUMPI PUSH1 0x40 MLOAD PUSH3 0x461BCD PUSH1 0xE5 SHL DUP2 MSTORE PUSH1 0x20 PUSH1 0x4 DUP3 ADD MSTORE PUSH1 0x1F PUSH1 0x24 DUP3 ADD MSTORE PUSH32 0x4E6F7420617070726F76656420746F20636C61696D206F6E20626568616C6600 PUSH1 0x44 DUP3 ADD MSTORE PUSH1 0x64 ADD PUSH1 0x40 MLOAD DUP1 SWAP2 SUB SWAP1 PUSH2 0x1FE4 PUSH2 0x4A89 JUMP JUMPDEST POP POP JUMPDEST PUSH2 0xC60 DUP3 PUSH2 0x38E1 JUMP JUMPDEST PUSH1 0x0 DUP1 PUSH1 0x1 JUMPDEST PUSH1 0x2 DUP2 LT ISZERO PUSH2 0x1C39 JUMPI PUSH2 0x2016 PUSH2 0x200B DUP3 PUSH2 0x2DF8 JUMP JUMPDEST PUSH1 0x3 ADD PUSH2 0x1BFC PUSH2 0x4AF4 JUMP JUMPDEST SWAP2 POP PUSH2 0x202F PUSH2 0x2024 DUP3 PUSH2 0x2DF8 JUMP JUMPDEST PUSH1 0x4 ADD PUSH2 0x1C22 PUSH2 0x4AF4 JUMP JUMPDEST SWAP2 POP PUSH1 0x1 ADD PUSH2 0x1FF6 JUMP JUMPDEST PUSH1 0x0 PUSH1 0x1 PUSH2 0x2045 PUSH2 0x4AF4 JUMP JUMPDEST SWAP1 PUSH2 0x100 EXP SWAP1 DIV PUSH1 0x1 PUSH1 0x1 PUSH1 0xA0 SHL SUB AND PUSH1 0x1 PUSH1 0x1 PUSH1 0xA0 SHL SUB AND GAS PUSH2 0x2067 PUSH2 0x4CCF JUMP JUMPDEST PUSH1 0x1 PUSH1 0x1 PUSH1 0xA0 SHL SUB AND EQ PUSH2 0x20B5 JUMPI PUSH1 0x40 MLOAD PUSH3 0x461BCD PUSH1 0xE5 SHL DUP2 MSTORE PUSH1 0x4 ADD DUP1 DUP1 PUSH1 0x20 ADD DUP3 DUP2 SUB DUP3 MSTORE PUSH1 0x35 DUP2 MSTORE PUSH1 0x20 ADD DUP1 PUSH2 0x4ECB PUSH1 0x35 SWAP2 CODECOPY PUSH1 0x40 ADD SWAP2 POP POP PUSH1 0x40 MLOAD DUP1 SWAP2 SUB SWAP1 PUSH2 0x20B2 PUSH2 0x4A89 JUMP JUMPDEST POP POP JUMPDEST PUSH32 0xB532073B38C83145E3E5135377A08BF9AAB55BC0FD7C1179CD4FB995D2A5159C PUSH1 0x0 DUP1 PUSH2 0x20E1 PUSH2 0x4AF4 JUMP JUMPDEST SWAP1 PUSH2 0x100 EXP SWAP1 DIV PUSH1 0x1 PUSH1 0x1 PUSH1 0xA0 SHL SUB AND PUSH1 0x1 PUSH1 0x0 SWAP1 PUSH2 0x20FE PUSH2 0x4AF4 JUMP JUMPDEST SWAP1 PUSH2 0x100 EXP SWAP1 DIV PUSH1 0x1 PUSH1 0x1 PUSH1 0xA0 SHL SUB AND PUSH1 0x40 MLOAD PUSH1 0x1 PUSH1 0x1 PUSH1 0xA0 SHL SUB SWAP3 DUP4 AND DUP2 MSTORE SWAP2 AND PUSH1 0x20 DUP3 ADD MSTORE PUSH1 0x40 SWAP1 DUP2 ADD SWAP1 MLOAD DUP1 SWAP2 SUB SWAP1 LOG1 PUSH1 0x0 PUSH1 0x1 PUSH2 0x213D PUSH2 0x4AF4 JUMP JUMPDEST SWAP1 PUSH2 0x100 EXP SWAP1 DIV PUSH1 0x1 PUSH1 0x1 PUSH1 0xA0 SHL SUB AND PUSH1 0x0 DUP1 PUSH2 0x100 EXP DUP2 PUSH2 0x215D PUSH2 0x4AF4 JUMP JUMPDEST DUP2 PUSH1 0x1 PUSH1 0x1 PUSH1 0xA0 SHL SUB MUL NOT AND SWAP1 DUP4 PUSH1 0x1 PUSH1 0x1 PUSH1 0xA0 SHL SUB AND MUL OR SWAP1 PUSH2 0x217F PUSH2 0x4C81 JUMP JUMPDEST POP POP POP PUSH1 0x0 PUSH1 0x1 PUSH1 0x0 PUSH2 0x100 EXP DUP2 PUSH2 0x2195 PUSH2 0x4AF4 JUMP JUMPDEST DUP2 PUSH1 0x1 PUSH1 0x1 PUSH1 0xA0 SHL SUB MUL NOT AND SWAP1 DUP4 PUSH1 0x1 PUSH1 0x1 PUSH1 0xA0 SHL SUB AND MUL OR SWAP1 PUSH2 0x21B7 PUSH2 0x4C81 JUMP JUMPDEST POP POP POP JUMP JUMPDEST PUSH2 0x21C4 PUSH2 0x32B3 JUMP JUMPDEST PUSH1 0x1 PUSH1 0x1 PUSH1 0xA0 SHL SUB AND GAS PUSH2 0x21D6 PUSH2 0x4CCF JUMP JUMPDEST PUSH1 0x1 PUSH1 0x1 PUSH1 0xA0 SHL SUB AND EQ PUSH2 0x2239 JUMPI PUSH1 0x40 MLOAD PUSH3 0x461BCD PUSH1 0xE5 SHL DUP2 MSTORE PUSH1 0x20 PUSH1 0x4 DUP3 ADD MSTORE PUSH1 0x1F PUSH1 0x24 DUP3 ADD MSTORE PUSH32 0x466565506F6F6C3A204F6E6C792049737375657220417574686F726973656400 PUSH1 0x44 DUP3 ADD MSTORE PUSH1 0x64 ADD PUSH1 0x40 MLOAD DUP1 SWAP2 SUB SWAP1 PUSH2 0x2236 PUSH2 0x4A89 JUMP JUMPDEST POP POP JUMPDEST PUSH2 0x2241 PUSH2 0x2E8B JUMP JUMPDEST PUSH1 0x1 PUSH1 0x1 PUSH1 0xA0 SHL SUB AND PUSH4 0x94E1A448 DUP5 DUP5 DUP5 PUSH2 0x225C PUSH1 0x0 PUSH2 0x2DF8 JUMP JUMPDEST PUSH1 0x8 SWAP1 PUSH2 0x2267 PUSH2 0x4AF4 JUMP JUMPDEST SWAP1 PUSH2 0x100 EXP SWAP1 DIV PUSH8 0xFFFFFFFFFFFFFFFF AND PUSH1 0x40 MLOAD PUSH1 0x1 PUSH1 0x1 PUSH1 0xE0 SHL SUB NOT PUSH1 0xE0 DUP8 SWAP1 SHL AND DUP2 MSTORE PUSH1 0x1 PUSH1 0x1 PUSH1 0xA0 SHL SUB SWAP1 SWAP5 AND PUSH1 0x4 DUP6 ADD MSTORE PUSH1 0x24 DUP5 ADD SWAP3 SWAP1 SWAP3 MSTORE PUSH1 0x44 DUP4 ADD MSTORE PUSH8 0xFFFFFFFFFFFFFFFF AND PUSH1 0x64 DUP3 ADD MSTORE PUSH1 0x84 ADD PUSH1 0x0 PUSH1 0x40 MLOAD DUP1 DUP4 SUB DUP2 PUSH1 0x0 DUP8 DUP1 PUSH2 0x22D0 PUSH2 0x4B4F JUMP JUMPDEST ISZERO DUP1 ISZERO PUSH2 0x22E5 JUMPI PUSH1 0x0 DUP1 PUSH2 0x22E2 PUSH2 0x4A89 JUMP JUMPDEST POP POP JUMPDEST POP GAS PUSH2 0x22EF PUSH2 0x4D96 JUMP JUMPDEST POP POP POP POP POP POP ISZERO DUP1 ISZERO PUSH2 0x230F JUMPI RETURNDATASIZE PUSH1 0x0 DUP1 RETURNDATACOPY RETURNDATASIZE PUSH1 0x0 PUSH2 0x230C PUSH2 0x4A89 JUMP JUMPDEST POP POP JUMPDEST POP POP POP POP PUSH2 0x21B7 DUP4 DUP4 DUP4 PUSH2 0x2323 PUSH1 0x0 PUSH2 0x2DF8 JUMP JUMPDEST PUSH1 0x8 SWAP1 PUSH2 0x232E PUSH2 0x4AF4 JUMP JUMPDEST SWAP1 PUSH2 0x100 EXP SWAP1 DIV PUSH8 0xFFFFFFFFFFFFFFFF AND PUSH8 0xFFFFFFFFFFFFFFFF AND PUSH2 0x3A93 JUMP JUMPDEST PUSH1 0x0 DUP1 PUSH2 0x922 PUSH2 0x4AF4 JUMP JUMPDEST PUSH2 0x2361 PUSH2 0x30DE JUMP JUMPDEST DUP1 PUSH1 0x2 PUSH1 0x1 DUP2 PUSH2 0x236F PUSH2 0x4AF4 JUMP JUMPDEST DUP2 PUSH1 0x1 PUSH1 0x1 PUSH1 0xA0 SHL SUB MUL NOT AND SWAP1 DUP4 PUSH1 0x1 PUSH1 0x1 PUSH1 0xA0 SHL SUB AND MUL OR SWAP1 PUSH2 0x2391 PUSH2 0x4C81 JUMP JUMPDEST POP POP POP PUSH32 0xFC80377CA9C49CC11AE6982F390A42DB976D5530AF7C43889264B13FBBD7C57E DUP2 PUSH1 0x40 MLOAD PUSH1 0x1 PUSH1 0x1 PUSH1 0xA0 SHL SUB SWAP1 SWAP2 AND DUP2 MSTORE PUSH1 0x20 ADD PUSH1 0x40 MLOAD DUP1 SWAP2 SUB SWAP1 LOG1 POP JUMP JUMPDEST PUSH2 0x23DC PUSH2 0x30DE JUMP JUMPDEST PUSH1 0x0 PUSH1 0x6 PUSH2 0x23E8 PUSH2 0x4AF4 JUMP JUMPDEST SWAP1 PUSH2 0x100 EXP SWAP1 DIV PUSH1 0xFF AND PUSH2 0x244B JUMPI PUSH1 0x40 MLOAD PUSH3 0x461BCD PUSH1 0xE5 SHL DUP2 MSTORE PUSH1 0x20 PUSH1 0x4 DUP3 ADD MSTORE PUSH1 0x1F PUSH1 0x24 DUP3 ADD MSTORE PUSH32 0x53656C66204465737472756374206E6F742079657420696E6974696174656400 PUSH1 0x44 DUP3 ADD MSTORE PUSH1 0x64 ADD PUSH1 0x40 MLOAD DUP1 SWAP2 SUB SWAP1 PUSH2 0x2448 PUSH2 0x4A89 JUMP JUMPDEST POP POP JUMPDEST GAS PUSH2 0x2454 PUSH2 0x4D15 JUMP JUMPDEST PUSH3 0x24EA00 PUSH1 0x5 PUSH2 0x2462 PUSH2 0x4AF4 JUMP JUMPDEST ADD LT PUSH2 0x24BD JUMPI PUSH1 0x40 MLOAD PUSH3 0x461BCD PUSH1 0xE5 SHL DUP2 MSTORE PUSH1 0x20 PUSH1 0x4 DUP3 ADD MSTORE PUSH1 0x1B PUSH1 0x24 DUP3 ADD MSTORE PUSH32 0x53656C662064657374727563742064656C6179206E6F74206D65740000000000 PUSH1 0x44 DUP3 ADD MSTORE PUSH1 0x64 ADD PUSH1 0x40 MLOAD DUP1 SWAP2 SUB SWAP1 PUSH2 0x24BA PUSH2 0x4A89 JUMP JUMPDEST POP POP JUMPDEST PUSH32 0x8A09E1677CED846CB537DC2B172043BD05A1A81AD7E0033A7EF8BA762DF990B7 PUSH1 0x1 PUSH1 0x6 PUSH2 0x24EA PUSH2 0x4AF4 JUMP JUMPDEST SWAP1 PUSH2 0x100 EXP SWAP1 DIV PUSH1 0x1 PUSH1 0x1 PUSH1 0xA0 SHL SUB AND PUSH1 0x40 MLOAD PUSH1 0x1 PUSH1 0x1 PUSH1 0xA0 SHL SUB SWAP1 SWAP2 AND DUP2 MSTORE PUSH1 0x20 ADD PUSH1 0x40 MLOAD DUP1 SWAP2 SUB SWAP1 LOG1 JUMP JUMPDEST PUSH1 0x0 PUSH1 0x3 PUSH2 0x922 PUSH2 0x4AF4 JUMP JUMPDEST PUSH3 0x24EA00 DUP2 JUMP JUMPDEST PUSH2 0x2532 PUSH2 0x4E4F JUMP JUMPDEST PUSH1 0x0 JUMPDEST PUSH1 0xA DUP1 PUSH2 0x2540 PUSH2 0x4AF4 JUMP JUMPDEST SWAP1 POP DUP2 LT ISZERO PUSH2 0x2588 JUMPI PUSH1 0xA DUP2 DUP2 PUSH2 0x2555 PUSH2 0x4AF4 JUMP JUMPDEST DUP2 LT PUSH2 0x255D JUMPI INVALID JUMPDEST SWAP1 PUSH1 0x0 MSTORE PUSH1 0x20 PUSH1 0x0 KECCAK256 ADD PUSH2 0x256F PUSH2 0x4AF4 JUMP JUMPDEST DUP3 DUP3 PUSH1 0x18 DUP2 LT PUSH2 0x257B JUMPI INVALID JUMPDEST PUSH1 0x20 MUL ADD MSTORE PUSH1 0x1 ADD PUSH2 0x2535 JUMP JUMPDEST POP SWAP1 JUMP JUMPDEST PUSH1 0x0 PUSH2 0xE99 PUSH2 0x264F PUSH2 0x259C PUSH2 0x3C18 JUMP JUMPDEST PUSH20 0x0 PUSH4 0x907AF6C0 PUSH1 0x40 MLOAD DUP2 PUSH4 0xFFFFFFFF AND PUSH1 0xE0 SHL DUP2 MSTORE PUSH1 0x4 ADD PUSH1 0x20 PUSH1 0x40 MLOAD DUP1 DUP4 SUB DUP2 DUP7 DUP1 PUSH2 0x25DB PUSH2 0x4B4F JUMP JUMPDEST ISZERO DUP1 ISZERO PUSH2 0x25F0 JUMPI PUSH1 0x0 DUP1 PUSH2 0x25ED PUSH2 0x4A89 JUMP JUMPDEST POP POP JUMPDEST POP GAS PUSH2 0x25FA PUSH2 0x4E6C JUMP JUMPDEST POP POP POP POP POP ISZERO DUP1 ISZERO PUSH2 0x2619 JUMPI RETURNDATASIZE PUSH1 0x0 DUP1 RETURNDATACOPY RETURNDATASIZE PUSH1 0x0 PUSH2 0x2616 PUSH2 0x4A89 JUMP JUMPDEST POP POP JUMPDEST POP POP POP POP PUSH1 0x40 MLOAD RETURNDATASIZE PUSH1 0x20 DUP2 LT ISZERO PUSH2 0x2638 JUMPI PUSH1 0x0 DUP1 PUSH2 0x2635 PUSH2 0x4A89 JUMP JUMPDEST POP POP JUMPDEST DUP2 ADD SWAP1 DUP1 DUP1 MLOAD SWAP4 SWAP3 POP POP PUSH4 0xFFFFFFFF PUSH2 0x3075 AND SWAP1 POP JUMP JUMPDEST PUSH2 0x2657 PUSH2 0x3CA9 JUMP JUMPDEST SWAP1 PUSH4 0xFFFFFFFF PUSH2 0x3D3A AND JUMP JUMPDEST PUSH2 0x266B PUSH2 0x3D64 JUMP JUMPDEST PUSH1 0x7 PUSH2 0x2675 PUSH2 0x4AF4 JUMP JUMPDEST GAS PUSH2 0x267E PUSH2 0x4D15 JUMP JUMPDEST LT PUSH2 0x26C3 JUMPI PUSH1 0x40 MLOAD PUSH3 0x461BCD PUSH1 0xE5 SHL DUP2 MSTORE PUSH1 0x4 ADD DUP1 DUP1 PUSH1 0x20 ADD DUP3 DUP2 SUB DUP3 MSTORE PUSH1 0x29 DUP2 MSTORE PUSH1 0x20 ADD DUP1 PUSH2 0x502F PUSH1 0x29 SWAP2 CODECOPY PUSH1 0x40 ADD SWAP2 POP POP PUSH1 0x40 MLOAD DUP1 SWAP2 SUB SWAP1 PUSH2 0x26C0 PUSH2 0x4A89 JUMP JUMPDEST POP POP JUMPDEST PUSH2 0x26CB PUSH2 0x34B8 JUMP JUMPDEST PUSH1 0x1 PUSH1 0x1 PUSH1 0xA0 SHL SUB AND PUSH4 0xCD92EBA9 PUSH1 0x40 MLOAD DUP2 PUSH4 0xFFFFFFFF AND PUSH1 0xE0 SHL DUP2 MSTORE PUSH1 0x4 ADD PUSH1 0x20 PUSH1 0x40 MLOAD DUP1 DUP4 SUB DUP2 DUP7 DUP1 PUSH2 0x26FE PUSH2 0x4B4F JUMP JUMPDEST ISZERO DUP1 ISZERO PUSH2 0x2713 JUMPI PUSH1 0x0 DUP1 PUSH2 0x2710 PUSH2 0x4A89 JUMP JUMPDEST POP POP JUMPDEST POP GAS PUSH2 0x271D PUSH2 0x4B9B JUMP JUMPDEST POP POP POP POP POP ISZERO DUP1 ISZERO PUSH2 0x273C JUMPI RETURNDATASIZE PUSH1 0x0 DUP1 RETURNDATACOPY RETURNDATASIZE PUSH1 0x0 PUSH2 0x2739 PUSH2 0x4A89 JUMP JUMPDEST POP POP JUMPDEST POP POP POP POP PUSH1 0x40 MLOAD RETURNDATASIZE PUSH1 0x20 DUP2 LT ISZERO PUSH2 0x275B JUMPI PUSH1 0x0 DUP1 PUSH2 0x2758 PUSH2 0x4A89 JUMP JUMPDEST POP POP JUMPDEST DUP2 ADD SWAP1 DUP1 DUP1 MLOAD DUP10 GT ISZERO SWAP3 POP PUSH2 0x27C2 SWAP2 POP POP JUMPI PUSH1 0x40 MLOAD PUSH3 0x461BCD PUSH1 0xE5 SHL DUP2 MSTORE PUSH1 0x20 PUSH1 0x4 DUP3 ADD MSTORE PUSH1 0x16 PUSH1 0x24 DUP3 ADD MSTORE PUSH32 0x43616E6E6F7420696D706F727420626164206461746100000000000000000000 PUSH1 0x44 DUP3 ADD MSTORE PUSH1 0x64 ADD PUSH1 0x40 MLOAD DUP1 SWAP2 SUB SWAP1 PUSH2 0x27BF PUSH2 0x4A89 JUMP JUMPDEST POP POP JUMPDEST PUSH1 0x40 MLOAD DUP1 PUSH1 0xE0 ADD PUSH1 0x40 MSTORE DUP1 DUP9 PUSH8 0xFFFFFFFFFFFFFFFF AND DUP2 MSTORE PUSH1 0x20 ADD DUP8 PUSH8 0xFFFFFFFFFFFFFFFF AND DUP2 MSTORE PUSH1 0x20 ADD DUP7 PUSH8 0xFFFFFFFFFFFFFFFF AND DUP2 MSTORE PUSH1 0x20 ADD DUP6 DUP2 MSTORE PUSH1 0x20 ADD DUP5 DUP2 MSTORE PUSH1 0x20 ADD DUP4 DUP2 MSTORE PUSH1 0x20 ADD DUP3 DUP2 MSTORE POP PUSH1 0xC PUSH2 0x282B PUSH1 0x2 PUSH1 0xFF AND PUSH2 0x17C7 DUP13 PUSH1 0x16 PUSH2 0x103D PUSH2 0x4AF4 JUMP JUMPDEST PUSH1 0x2 DUP2 LT PUSH2 0x2835 JUMPI INVALID JUMPDEST PUSH1 0x5 MUL ADD DUP2 MLOAD DUP2 PUSH1 0x1 DUP2 PUSH2 0x2847 PUSH2 0x4AF4 JUMP JUMPDEST DUP2 PUSH8 0xFFFFFFFFFFFFFFFF MUL NOT AND SWAP1 DUP4 PUSH8 0xFFFFFFFFFFFFFFFF AND MUL OR SWAP1 PUSH2 0x286B PUSH2 0x4C81 JUMP JUMPDEST POP POP POP PUSH1 0x20 DUP3 ADD MLOAD DUP2 PUSH9 0x10000000000000000 DUP2 PUSH2 0x2887 PUSH2 0x4AF4 JUMP JUMPDEST DUP2 PUSH8 0xFFFFFFFFFFFFFFFF MUL NOT AND SWAP1 DUP4 PUSH8 0xFFFFFFFFFFFFFFFF AND MUL OR SWAP1 PUSH2 0x28AB PUSH2 0x4C81 JUMP JUMPDEST POP POP POP PUSH1 0x40 DUP3 ADD MLOAD DUP2 PUSH17 0x100000000000000000000000000000000 DUP2 PUSH2 0x28CF PUSH2 0x4AF4 JUMP JUMPDEST DUP2 PUSH8 0xFFFFFFFFFFFFFFFF MUL NOT AND SWAP1 DUP4 PUSH8 0xFFFFFFFFFFFFFFFF AND MUL OR SWAP1 PUSH2 0x28F3 PUSH2 0x4C81 JUMP JUMPDEST POP POP POP PUSH1 0x60 DUP3 ADD MLOAD DUP2 PUSH1 0x1 ADD PUSH2 0x2907 PUSH2 0x4C81 JUMP JUMPDEST POP POP PUSH1 0x80 DUP3 ADD MLOAD DUP2 PUSH1 0x2 ADD PUSH2 0x291A PUSH2 0x4C81 JUMP JUMPDEST POP POP PUSH1 0xA0 DUP3 ADD MLOAD DUP2 PUSH1 0x3 ADD PUSH2 0x292D PUSH2 0x4C81 JUMP JUMPDEST POP POP PUSH1 0xC0 DUP3 ADD MLOAD DUP2 PUSH1 0x4 ADD PUSH2 0x2940 PUSH2 0x4C81 JUMP JUMPDEST POP POP POP POP POP POP POP POP POP POP POP POP JUMP JUMPDEST PUSH1 0x0 PUSH2 0xE99 PUSH2 0x3CA9 JUMP JUMPDEST PUSH2 0x2960 PUSH2 0x3D64 JUMP JUMPDEST PUSH2 0x2968 PUSH2 0x3EF9 JUMP JUMPDEST PUSH1 0x1 PUSH1 0x1 PUSH1 0xA0 SHL SUB AND PUSH4 0x23B872DD PUSH1 0x0 PUSH1 0x4 PUSH2 0x2982 PUSH2 0x4AF4 JUMP JUMPDEST SWAP1 PUSH2 0x100 EXP SWAP1 DIV PUSH1 0x1 PUSH1 0x1 PUSH1 0xA0 SHL SUB AND PUSH2 0x299A PUSH2 0x3F58 JUMP JUMPDEST DUP5 PUSH1 0x40 MLOAD PUSH1 0x1 PUSH1 0x1 PUSH1 0xE0 SHL SUB NOT PUSH1 0xE0 DUP7 SWAP1 SHL AND DUP2 MSTORE PUSH1 0x1 PUSH1 0x1 PUSH1 0xA0 SHL SUB SWAP4 DUP5 AND PUSH1 0x4 DUP3 ADD MSTORE SWAP2 SWAP1 SWAP3 AND PUSH1 0x24 DUP3 ADD MSTORE PUSH1 0x44 DUP2 ADD SWAP2 SWAP1 SWAP2 MSTORE PUSH1 0x64 ADD PUSH1 0x20 PUSH1 0x40 MLOAD DUP1 DUP4 SUB DUP2 PUSH1 0x0 DUP8 DUP1 PUSH2 0x29E8 PUSH2 0x4B4F JUMP JUMPDEST ISZERO DUP1 ISZERO PUSH2 0x29FD JUMPI PUSH1 0x0 DUP1 PUSH2 0x29FA PUSH2 0x4A89 JUMP JUMPDEST POP POP JUMPDEST POP GAS PUSH2 0x2A07 PUSH2 0x4D96 JUMP JUMPDEST POP POP POP POP POP POP ISZERO DUP1 ISZERO PUSH2 0x2A27 JUMPI RETURNDATASIZE PUSH1 0x0 DUP1 RETURNDATACOPY RETURNDATASIZE PUSH1 0x0 PUSH2 0x2A24 PUSH2 0x4A89 JUMP JUMPDEST POP POP JUMPDEST POP POP POP POP PUSH1 0x40 MLOAD RETURNDATASIZE PUSH1 0x20 DUP2 LT ISZERO PUSH2 0x2A46 JUMPI PUSH1 0x0 DUP1 PUSH2 0x2A43 PUSH2 0x4A89 JUMP JUMPDEST POP POP JUMPDEST DUP2 ADD SWAP1 DUP1 DUP1 MLOAD POP PUSH2 0x2A5A SWAP3 POP PUSH2 0x3F58 SWAP2 POP POP JUMP JUMPDEST PUSH1 0x1 PUSH1 0x1 PUSH1 0xA0 SHL SUB AND PUSH4 0xB5DDB9C7 DUP4 DUP4 PUSH1 0x40 MLOAD PUSH1 0x1 PUSH1 0x1 PUSH1 0xE0 SHL SUB NOT PUSH1 0xE0 DUP6 SWAP1 SHL AND DUP2 MSTORE PUSH1 0x1 PUSH1 0x1 PUSH1 0xA0 SHL SUB SWAP1 SWAP3 AND PUSH1 0x4 DUP4 ADD MSTORE PUSH1 0x24 DUP3 ADD MSTORE PUSH1 0x44 ADD PUSH1 0x0 PUSH1 0x40 MLOAD DUP1 DUP4 SUB DUP2 PUSH1 0x0 DUP8 DUP1 PUSH2 0x2AAB PUSH2 0x4B4F JUMP JUMPDEST ISZERO DUP1 ISZERO PUSH2 0x2AC0 JUMPI PUSH1 0x0 DUP1 PUSH2 0x2ABD PUSH2 0x4A89 JUMP JUMPDEST POP POP JUMPDEST POP GAS PUSH2 0x2ACA PUSH2 0x4D96 JUMP JUMPDEST POP POP POP POP POP POP ISZERO DUP1 ISZERO PUSH2 0x2AEA JUMPI RETURNDATASIZE PUSH1 0x0 DUP1 RETURNDATACOPY RETURNDATASIZE PUSH1 0x0 PUSH2 0x2AE7 PUSH2 0x4A89 JUMP JUMPDEST POP POP JUMPDEST POP POP POP POP POP POP JUMP JUMPDEST PUSH1 0x0 PUSH1 0x6 PUSH2 0x2AFE PUSH2 0x4AF4 JUMP JUMPDEST SWAP1 PUSH2 0x100 EXP SWAP1 DIV PUSH1 0xFF AND DUP2 JUMP JUMPDEST PUSH2 0x2B13 PUSH2 0x3FB7 JUMP JUMPDEST DUP1 PUSH1 0x4 PUSH1 0x1 DUP2 PUSH2 0xD01 PUSH2 0x4AF4 JUMP JUMPDEST PUSH2 0x2B29 PUSH2 0x30DE JUMP JUMPDEST GAS PUSH2 0x2B32 PUSH2 0x4D15 JUMP JUMPDEST DUP1 PUSH1 0x5 PUSH2 0x2B3D PUSH2 0x4C81 JUMP JUMPDEST POP POP POP PUSH1 0x1 PUSH1 0x6 PUSH1 0x0 PUSH2 0x100 EXP DUP2 PUSH2 0x2B53 PUSH2 0x4AF4 JUMP JUMPDEST DUP2 PUSH1 0xFF MUL NOT AND SWAP1 DUP4 ISZERO ISZERO MUL OR SWAP1 PUSH2 0x2B68 PUSH2 0x4C81 JUMP JUMPDEST POP POP POP PUSH32 0xCBD94CA75B8DC45C9D80C77E851670E78843C0D75180CB81DB3E2158228FA9A6 PUSH3 0x24EA00 PUSH1 0x40 MLOAD SWAP1 DUP2 MSTORE PUSH1 0x20 ADD PUSH1 0x40 MLOAD DUP1 SWAP2 SUB SWAP1 LOG1 JUMP JUMPDEST PUSH1 0x1 PUSH1 0x6 PUSH2 0x922 PUSH2 0x4AF4 JUMP JUMPDEST PUSH1 0xA DUP2 DUP2 PUSH2 0x2BBB PUSH2 0x4AF4 JUMP JUMPDEST DUP2 LT PUSH2 0x2BC3 JUMPI INVALID JUMPDEST SWAP1 PUSH1 0x0 MSTORE PUSH1 0x20 PUSH1 0x0 KECCAK256 ADD SWAP1 POP PUSH2 0xDAD PUSH2 0x4AF4 JUMP JUMPDEST PUSH1 0x2 DUP2 JUMP JUMPDEST PUSH1 0x0 PUSH2 0x2BE6 PUSH2 0x33EC JUMP JUMPDEST PUSH1 0x1 PUSH1 0x1 PUSH1 0xA0 SHL SUB AND PUSH4 0x7C312541 PUSH1 0x40 MLOAD DUP2 PUSH4 0xFFFFFFFF AND PUSH1 0xE0 SHL DUP2 MSTORE PUSH1 0x4 ADD PUSH1 0x0 PUSH1 0x40 MLOAD DUP1 DUP4 SUB DUP2 DUP7 DUP1 PUSH2 0x2C19 PUSH2 0x4B4F JUMP JUMPDEST ISZERO DUP1 ISZERO PUSH2 0x2C2E JUMPI PUSH1 0x0 DUP1 PUSH2 0x2C2B PUSH2 0x4A89 JUMP JUMPDEST POP POP JUMPDEST POP GAS PUSH2 0x2C38 PUSH2 0x4B9B JUMP JUMPDEST POP POP POP POP POP ISZERO DUP1 ISZERO PUSH2 0x2C57 JUMPI RETURNDATASIZE PUSH1 0x0 DUP1 RETURNDATACOPY RETURNDATASIZE PUSH1 0x0 PUSH2 0x2C54 PUSH2 0x4A89 JUMP JUMPDEST POP POP JUMPDEST POP POP POP POP PUSH2 0x2C63 PUSH2 0x37C9 JUMP JUMPDEST PUSH2 0xE99 PUSH1 0x0 PUSH1 0x4 PUSH2 0x2C72 PUSH2 0x4AF4 JUMP JUMPDEST SWAP1 PUSH2 0x100 EXP SWAP1 DIV PUSH1 0x1 PUSH1 0x1 PUSH1 0xA0 SHL SUB AND PUSH2 0x38E1 JUMP JUMPDEST PUSH1 0x0 PUSH1 0x4 PUSH2 0x922 PUSH2 0x4AF4 JUMP JUMPDEST PUSH1 0x0 PUSH2 0xE99 PUSH2 0x3C18 JUMP JUMPDEST PUSH1 0x18 DUP2 JUMP JUMPDEST PUSH20 0xFEEFEEFEEFEEFEEFEEFEEFEEFEEFEEFEEFEEFEEF DUP2 JUMP JUMPDEST PUSH1 0x0 PUSH1 0x2 PUSH2 0x922 PUSH2 0x4AF4 JUMP JUMPDEST PUSH1 0x0 PUSH2 0x2CD0 PUSH2 0x4084 JUMP JUMPDEST SWAP1 POP PUSH1 0x1 PUSH1 0x1 PUSH1 0xA0 SHL SUB DUP2 AND PUSH1 0x0 PUSH1 0x4 PUSH2 0x2CE8 PUSH2 0x4AF4 JUMP JUMPDEST SWAP1 PUSH2 0x100 EXP SWAP1 DIV PUSH1 0x1 PUSH1 0x1 PUSH1 0xA0 SHL SUB AND PUSH1 0x1 PUSH1 0x1 PUSH1 0xA0 SHL SUB AND EQ DUP1 PUSH2 0x2D26 JUMPI POP DUP1 PUSH1 0x1 PUSH1 0x1 PUSH1 0xA0 SHL SUB AND GAS PUSH2 0x2D1B PUSH2 0x4CCF JUMP JUMPDEST PUSH1 0x1 PUSH1 0x1 PUSH1 0xA0 SHL SUB AND EQ JUMPDEST PUSH2 0x2D7F JUMPI PUSH1 0x40 MLOAD PUSH3 0x461BCD PUSH1 0xE5 SHL DUP2 MSTORE PUSH1 0x20 PUSH1 0x4 DUP3 ADD MSTORE PUSH1 0x1E PUSH1 0x24 DUP3 ADD MSTORE PUSH32 0x43616C6C6572206973206E6F742072657761726473417574686F726974790000 PUSH1 0x44 DUP3 ADD MSTORE PUSH1 0x64 ADD PUSH1 0x40 MLOAD DUP1 SWAP2 SUB SWAP1 PUSH2 0x2D7C PUSH2 0x4A89 JUMP JUMPDEST POP POP JUMPDEST PUSH2 0x2D98 DUP3 PUSH2 0x2D8D PUSH1 0x0 PUSH2 0x2DF8 JUMP JUMPDEST PUSH1 0x3 ADD PUSH2 0x103D PUSH2 0x4AF4 JUMP JUMPDEST PUSH2 0x2DA2 PUSH1 0x0 PUSH2 0x2DF8 JUMP JUMPDEST PUSH1 0x3 ADD DUP2 SWAP1 PUSH2 0x2DAF PUSH2 0x4C81 JUMP JUMPDEST POP POP POP POP POP JUMP JUMPDEST PUSH1 0x0 PUSH2 0xE99 PUSH32 0x466565506F6F6C457465726E616C53746F726167650000000000000000000000 PUSH1 0x40 MLOAD PUSH1 0x60 DUP2 ADD PUSH1 0x40 MSTORE PUSH1 0x25 DUP1 DUP3 MSTORE PUSH2 0x507B PUSH1 0x20 DUP4 ADD CODECOPY PUSH2 0x40C2 JUMP JUMPDEST PUSH1 0x0 PUSH1 0xC PUSH1 0x2 DUP4 PUSH1 0x16 PUSH2 0x2E09 PUSH2 0x4AF4 JUMP JUMPDEST ADD DUP2 PUSH2 0x2E11 JUMPI INVALID JUMPDEST MOD PUSH1 0x2 DUP2 LT PUSH2 0x2E1C JUMPI INVALID JUMPDEST PUSH1 0x5 MUL ADD SWAP3 SWAP2 POP POP JUMP JUMPDEST PUSH1 0x0 DUP3 DUP3 GT ISZERO PUSH2 0x2E85 JUMPI PUSH1 0x40 MLOAD PUSH3 0x461BCD PUSH1 0xE5 SHL DUP2 MSTORE PUSH1 0x20 PUSH1 0x4 DUP3 ADD MSTORE PUSH1 0x1E PUSH1 0x24 DUP3 ADD MSTORE PUSH32 0x536166654D6174683A207375627472616374696F6E206F766572666C6F770000 PUSH1 0x44 DUP3 ADD MSTORE PUSH1 0x64 ADD PUSH1 0x40 MLOAD DUP1 SWAP2 SUB SWAP1 PUSH2 0x2E82 PUSH2 0x4A89 JUMP JUMPDEST POP POP JUMPDEST POP SWAP1 SUB SWAP1 JUMP JUMPDEST PUSH1 0x0 PUSH2 0xE99 PUSH32 0x466565506F6F6C53746174650000000000000000000000000000000000000000 PUSH1 0x40 MLOAD PUSH1 0x40 DUP1 DUP3 ADD SWAP1 MSTORE PUSH1 0x1C DUP2 MSTORE PUSH32 0x4D697373696E6720466565506F6F6C5374617465206164647265737300000000 PUSH1 0x20 DUP3 ADD MSTORE PUSH2 0x40C2 JUMP JUMPDEST PUSH1 0x0 DUP1 PUSH2 0x2EF5 PUSH2 0x34B8 JUMP JUMPDEST SWAP1 POP PUSH1 0x0 PUSH2 0x306B DUP6 PUSH2 0x305F DUP5 PUSH1 0x1 PUSH1 0x1 PUSH1 0xA0 SHL SUB AND PUSH4 0x8D95CD5 DUP9 PUSH1 0x40 MLOAD PUSH1 0x1 PUSH1 0x1 PUSH1 0xE0 SHL SUB NOT PUSH1 0xE0 DUP5 SWAP1 SHL AND DUP2 MSTORE PUSH1 0x4 DUP2 ADD SWAP2 SWAP1 SWAP2 MSTORE PUSH1 0x24 ADD PUSH1 0x20 PUSH1 0x40 MLOAD DUP1 DUP4 SUB DUP2 DUP7 DUP1 PUSH2 0x2F42 PUSH2 0x4B4F JUMP JUMPDEST ISZERO DUP1 ISZERO PUSH2 0x2F57 JUMPI PUSH1 0x0 DUP1 PUSH2 0x2F54 PUSH2 0x4A89 JUMP JUMPDEST POP POP JUMPDEST POP GAS PUSH2 0x2F61 PUSH2 0x4B9B JUMP JUMPDEST POP POP POP POP POP ISZERO DUP1 ISZERO PUSH2 0x2F80 JUMPI RETURNDATASIZE PUSH1 0x0 DUP1 RETURNDATACOPY RETURNDATASIZE PUSH1 0x0 PUSH2 0x2F7D PUSH2 0x4A89 JUMP JUMPDEST POP POP JUMPDEST POP POP POP POP PUSH1 0x40 MLOAD RETURNDATASIZE PUSH1 0x20 DUP2 LT ISZERO PUSH2 0x2F9F JUMPI PUSH1 0x0 DUP1 PUSH2 0x2F9C PUSH2 0x4A89 JUMP JUMPDEST POP POP JUMPDEST DUP2 ADD SWAP1 DUP1 DUP1 MLOAD SWAP3 POP POP POP PUSH1 0x1 PUSH1 0x1 PUSH1 0xA0 SHL SUB DUP7 AND PUSH4 0x8D95CD5 DUP12 PUSH1 0x40 MLOAD PUSH1 0x1 PUSH1 0x1 PUSH1 0xE0 SHL SUB NOT PUSH1 0xE0 DUP5 SWAP1 SHL AND DUP2 MSTORE PUSH1 0x4 DUP2 ADD SWAP2 SWAP1 SWAP2 MSTORE PUSH1 0x24 ADD PUSH1 0x20 PUSH1 0x40 MLOAD DUP1 DUP4 SUB DUP2 DUP7 DUP1 PUSH2 0x2FEB PUSH2 0x4B4F JUMP JUMPDEST ISZERO DUP1 ISZERO PUSH2 0x3000 JUMPI PUSH1 0x0 DUP1 PUSH2 0x2FFD PUSH2 0x4A89 JUMP JUMPDEST POP POP JUMPDEST POP GAS PUSH2 0x300A PUSH2 0x4B9B JUMP JUMPDEST POP POP POP POP POP ISZERO DUP1 ISZERO PUSH2 0x3029 JUMPI RETURNDATASIZE PUSH1 0x0 DUP1 RETURNDATACOPY RETURNDATASIZE PUSH1 0x0 PUSH2 0x3026 PUSH2 0x4A89 JUMP JUMPDEST POP POP JUMPDEST POP POP POP POP PUSH1 0x40 MLOAD RETURNDATASIZE PUSH1 0x20 DUP2 LT ISZERO PUSH2 0x3048 JUMPI PUSH1 0x0 DUP1 PUSH2 0x3045 PUSH2 0x4A89 JUMP JUMPDEST POP POP JUMPDEST DUP2 ADD SWAP1 DUP1 DUP1 MLOAD SWAP4 SWAP3 POP POP PUSH4 0xFFFFFFFF PUSH2 0x418B AND SWAP1 POP JUMP JUMPDEST SWAP1 PUSH4 0xFFFFFFFF PUSH2 0x41A4 AND JUMP JUMPDEST SWAP7 SWAP6 POP POP POP POP POP POP JUMP JUMPDEST PUSH1 0x0 DUP3 DUP3 ADD DUP4 DUP2 LT ISZERO PUSH2 0x30D7 JUMPI PUSH1 0x40 MLOAD PUSH3 0x461BCD PUSH1 0xE5 SHL DUP2 MSTORE PUSH1 0x20 PUSH1 0x4 DUP3 ADD MSTORE PUSH1 0x1B PUSH1 0x24 DUP3 ADD MSTORE PUSH32 0x536166654D6174683A206164646974696F6E206F766572666C6F770000000000 PUSH1 0x44 DUP3 ADD MSTORE PUSH1 0x64 ADD PUSH1 0x40 MLOAD DUP1 SWAP2 SUB SWAP1 PUSH2 0x30D4 PUSH2 0x4A89 JUMP JUMPDEST POP POP JUMPDEST SWAP4 SWAP3 POP POP POP JUMP JUMPDEST PUSH1 0x0 DUP1 PUSH2 0x30E9 PUSH2 0x4AF4 JUMP JUMPDEST SWAP1 PUSH2 0x100 EXP SWAP1 DIV PUSH1 0x1 PUSH1 0x1 PUSH1 0xA0 SHL SUB AND PUSH1 0x1 PUSH1 0x1 PUSH1 0xA0 SHL SUB AND GAS PUSH2 0x310B PUSH2 0x4CCF JUMP JUMPDEST PUSH1 0x1 PUSH1 0x1 PUSH1 0xA0 SHL SUB AND EQ PUSH2 0x3156 JUMPI PUSH1 0x40 MLOAD PUSH3 0x461BCD PUSH1 0xE5 SHL DUP2 MSTORE PUSH1 0x4 ADD DUP1 DUP1 PUSH1 0x20 ADD DUP3 DUP2 SUB DUP3 MSTORE PUSH1 0x2F DUP2 MSTORE PUSH1 0x20 ADD DUP1 PUSH2 0x4FBC PUSH1 0x2F SWAP2 CODECOPY PUSH1 0x40 ADD SWAP2 POP POP PUSH1 0x40 MLOAD DUP1 SWAP2 SUB SWAP1 PUSH2 0x157C PUSH2 0x4A89 JUMP JUMPDEST JUMP JUMPDEST PUSH1 0x0 PUSH2 0x3162 PUSH2 0x41BD JUMP JUMPDEST PUSH1 0x1 PUSH1 0x1 PUSH1 0xA0 SHL SUB AND PUSH4 0x23257C2B PUSH32 0x53797374656D53657474696E6773000000000000000000000000000000000000 PUSH32 0x666565506572696F644475726174696F6E000000000000000000000000000000 PUSH1 0x40 MLOAD PUSH1 0x1 PUSH1 0x1 PUSH1 0xE0 SHL SUB NOT PUSH1 0xE0 DUP6 SWAP1 SHL AND DUP2 MSTORE PUSH1 0x4 DUP2 ADD SWAP3 SWAP1 SWAP3 MSTORE PUSH1 0x24 DUP3 ADD MSTORE PUSH1 0x44 ADD PUSH1 0x20 PUSH1 0x40 MLOAD DUP1 DUP4 SUB DUP2 DUP7 DUP1 PUSH2 0x31E9 PUSH2 0x4B4F JUMP JUMPDEST ISZERO DUP1 ISZERO PUSH2 0x31FE JUMPI PUSH1 0x0 DUP1 PUSH2 0x31FB PUSH2 0x4A89 JUMP JUMPDEST POP POP JUMPDEST POP GAS PUSH2 0x3208 PUSH2 0x4B9B JUMP JUMPDEST POP POP POP POP POP ISZERO DUP1 ISZERO PUSH2 0x3227 JUMPI RETURNDATASIZE PUSH1 0x0 DUP1 RETURNDATACOPY RETURNDATASIZE PUSH1 0x0 PUSH2 0x3224 PUSH2 0x4A89 JUMP JUMPDEST POP POP JUMPDEST POP POP POP POP PUSH1 0x40 MLOAD RETURNDATASIZE PUSH1 0x20 DUP2 LT ISZERO PUSH2 0x3246 JUMPI PUSH1 0x0 DUP1 PUSH2 0x3243 PUSH2 0x4A89 JUMP JUMPDEST POP POP JUMPDEST DUP2 ADD SWAP1 DUP1 DUP1 MLOAD SWAP4 POP POP POP POP SWAP1 JUMP JUMPDEST PUSH1 0x0 PUSH2 0xE99 PUSH32 0x45786368616E6765720000000000000000000000000000000000000000000000 PUSH1 0x40 MLOAD PUSH1 0x40 DUP1 DUP3 ADD SWAP1 MSTORE PUSH1 0x19 DUP2 MSTORE PUSH32 0x4D697373696E672045786368616E676572206164647265737300000000000000 PUSH1 0x20 DUP3 ADD MSTORE PUSH2 0x40C2 JUMP JUMPDEST PUSH1 0x0 PUSH2 0xE99 PUSH32 0x4973737565720000000000000000000000000000000000000000000000000000 PUSH1 0x40 MLOAD PUSH1 0x40 DUP1 DUP3 ADD SWAP1 MSTORE PUSH1 0x16 DUP2 MSTORE PUSH32 0x4D697373696E6720497373756572206164647265737300000000000000000000 PUSH1 0x20 DUP3 ADD MSTORE PUSH2 0x40C2 JUMP JUMPDEST PUSH1 0x0 PUSH2 0xE99 PUSH32 0x4574686572436F6C6C61746572616C7355534400000000000000000000000000 PUSH1 0x40 MLOAD PUSH1 0x60 DUP2 ADD PUSH1 0x40 MSTORE PUSH1 0x23 DUP1 DUP3 MSTORE PUSH2 0x5058 PUSH1 0x20 DUP4 ADD CODECOPY PUSH2 0x40C2 JUMP JUMPDEST PUSH1 0x0 DUP1 DUP4 PUSH2 0x3367 JUMPI POP PUSH1 0x0 SWAP1 POP DUP1 PUSH2 0x33E4 JUMP JUMPDEST DUP4 DUP6 ISZERO PUSH2 0x3392 JUMPI PUSH1 0x0 PUSH2 0x3381 PUSH1 0x1 PUSH2 0xB53 PUSH1 0x1 DUP11 SUB PUSH2 0x2DF8 JUMP JUMPDEST SWAP1 POP PUSH2 0x338E DUP2 DUP8 DUP8 PUSH2 0x2EEA JUMP JUMPDEST SWAP2 POP POP JUMPDEST PUSH1 0x0 PUSH2 0x33AC DUP3 PUSH2 0x33A1 DUP10 PUSH2 0x2DF8 JUMP JUMPDEST PUSH1 0x1 ADD PUSH2 0x2657 PUSH2 0x4AF4 JUMP JUMPDEST SWAP1 POP PUSH1 0x0 PUSH2 0x33C8 DUP4 PUSH2 0x33BD DUP11 PUSH2 0x2DF8 JUMP JUMPDEST PUSH1 0x3 ADD PUSH2 0x2657 PUSH2 0x4AF4 JUMP JUMPDEST SWAP1 POP PUSH2 0x33D3 DUP3 PUSH2 0x421C JUMP JUMPDEST PUSH2 0x33DC DUP3 PUSH2 0x421C JUMP JUMPDEST SWAP5 POP SWAP5 POP POP POP POP JUMPDEST SWAP4 POP SWAP4 SWAP2 POP POP JUMP JUMPDEST PUSH1 0x0 PUSH2 0xE99 PUSH32 0x53797374656D5374617475730000000000000000000000000000000000000000 PUSH1 0x40 MLOAD PUSH1 0x40 DUP1 DUP3 ADD SWAP1 MSTORE PUSH1 0x1C DUP2 MSTORE PUSH32 0x4D697373696E672053797374656D537461747573206164647265737300000000 PUSH1 0x20 DUP3 ADD MSTORE PUSH2 0x40C2 JUMP JUMPDEST PUSH1 0x0 DUP2 PUSH2 0x34A7 JUMPI PUSH1 0x40 MLOAD PUSH3 0x461BCD PUSH1 0xE5 SHL DUP2 MSTORE PUSH1 0x20 PUSH1 0x4 DUP3 ADD MSTORE PUSH1 0x18 PUSH1 0x24 DUP3 ADD MSTORE PUSH32 0x536166654D6174683A206D6F64756C6F206279207A65726F0000000000000000 PUSH1 0x44 DUP3 ADD MSTORE PUSH1 0x64 ADD PUSH1 0x40 MLOAD DUP1 SWAP2 SUB SWAP1 PUSH2 0x34A4 PUSH2 0x4A89 JUMP JUMPDEST POP POP JUMPDEST DUP2 DUP4 DUP2 PUSH2 0x34B0 JUMPI INVALID JUMPDEST MOD SWAP4 SWAP3 POP POP POP JUMP JUMPDEST PUSH1 0x0 PUSH2 0xE99 PUSH32 0x53796E7468657469785374617465000000000000000000000000000000000000 PUSH1 0x40 MLOAD PUSH1 0x40 DUP1 DUP3 ADD SWAP1 MSTORE PUSH1 0x1E DUP2 MSTORE PUSH32 0x4D697373696E672053796E746865746978537461746520616464726573730000 PUSH1 0x20 DUP3 ADD MSTORE PUSH2 0x40C2 JUMP JUMPDEST PUSH1 0x0 PUSH1 0x2 PUSH2 0x3523 PUSH2 0x4AF4 JUMP JUMPDEST SWAP1 PUSH2 0x100 EXP SWAP1 DIV PUSH1 0x1 PUSH1 0x1 PUSH1 0xA0 SHL SUB AND PUSH1 0x1 PUSH1 0x1 PUSH1 0xA0 SHL SUB AND PUSH4 0x907DFF97 DUP3 PUSH1 0x40 MLOAD PUSH1 0x20 ADD DUP1 DUP3 DUP2 MSTORE PUSH1 0x20 ADD SWAP2 POP POP PUSH1 0x40 MLOAD PUSH1 0x20 DUP2 DUP4 SUB SUB DUP2 MSTORE SWAP1 PUSH1 0x40 MSTORE PUSH1 0x1 PUSH1 0x40 MLOAD PUSH32 0x466565506572696F64436C6F7365642875696E74323536290000000000000000 DUP2 MSTORE PUSH1 0x18 ADD PUSH1 0x40 MLOAD DUP1 SWAP2 SUB SWAP1 KECCAK256 PUSH1 0x0 DUP1 PUSH1 0x0 PUSH1 0x40 MLOAD DUP8 PUSH4 0xFFFFFFFF AND PUSH1 0xE0 SHL DUP2 MSTORE PUSH1 0x4 ADD DUP1 DUP1 PUSH1 0x20 ADD DUP8 DUP2 MSTORE PUSH1 0x20 ADD DUP7 DUP2 MSTORE PUSH1 0x20 ADD DUP6 PUSH1 0x0 SHL DUP2 MSTORE PUSH1 0x20 ADD DUP5 PUSH1 0x0 SHL DUP2 MSTORE PUSH1 0x20 ADD DUP4 PUSH1 0x0 SHL DUP2 MSTORE PUSH1 0x20 ADD DUP3 DUP2 SUB DUP3 MSTORE DUP9 DUP2 DUP2 MLOAD DUP2 MSTORE PUSH1 0x20 ADD SWAP2 POP DUP1 MLOAD SWAP1 PUSH1 0x20 ADD SWAP1 DUP1 DUP4 DUP4 PUSH1 0x0 JUMPDEST DUP4 DUP2 LT ISZERO PUSH2 0x360C JUMPI DUP1 DUP3 ADD MLOAD DUP4 DUP3 ADD MSTORE PUSH1 0x20 ADD PUSH2 0x35F4 JUMP JUMPDEST POP POP POP POP SWAP1 POP SWAP1 DUP2 ADD SWAP1 PUSH1 0x1F AND DUP1 ISZERO PUSH2 0x3639 JUMPI DUP1 DUP3 SUB DUP1 MLOAD PUSH1 0x1 DUP4 PUSH1 0x20 SUB PUSH2 0x100 EXP SUB NOT AND DUP2 MSTORE PUSH1 0x20 ADD SWAP2 POP JUMPDEST POP SWAP8 POP POP POP POP POP POP POP POP PUSH1 0x0 PUSH1 0x40 MLOAD DUP1 DUP4 SUB DUP2 PUSH1 0x0 DUP8 DUP1 PUSH2 0x3658 PUSH2 0x4B4F JUMP JUMPDEST ISZERO DUP1 ISZERO PUSH2 0x366D JUMPI PUSH1 0x0 DUP1 PUSH2 0x366A PUSH2 0x4A89 JUMP JUMPDEST POP POP JUMPDEST POP GAS PUSH2 0x3677 PUSH2 0x4D96 JUMP JUMPDEST POP POP POP POP POP POP ISZERO DUP1 ISZERO PUSH2 0x2DAF JUMPI RETURNDATASIZE PUSH1 0x0 DUP1 RETURNDATACOPY RETURNDATASIZE PUSH1 0x0 PUSH2 0x1060 PUSH2 0x4A89 JUMP JUMPDEST PUSH1 0x0 DUP1 PUSH1 0x0 DUP1 PUSH2 0x36A2 PUSH2 0x32B3 JUMP JUMPDEST PUSH1 0x1 PUSH1 0x1 PUSH1 0xA0 SHL SUB AND PUSH4 0xAE3BBBBB DUP7 PUSH1 0x40 MLOAD PUSH1 0x1 PUSH1 0x1 PUSH1 0xE0 SHL SUB NOT PUSH1 0xE0 DUP5 SWAP1 SHL AND DUP2 MSTORE PUSH1 0x1 PUSH1 0x1 PUSH1 0xA0 SHL SUB SWAP1 SWAP2 AND PUSH1 0x4 DUP3 ADD MSTORE PUSH1 0x24 ADD PUSH1 0x40 DUP1 MLOAD DUP1 DUP4 SUB DUP2 DUP7 DUP1 PUSH2 0x36EA PUSH2 0x4B4F JUMP JUMPDEST ISZERO DUP1 ISZERO PUSH2 0x36FF JUMPI PUSH1 0x0 DUP1 PUSH2 0x36FC PUSH2 0x4A89 JUMP JUMPDEST POP POP JUMPDEST POP GAS PUSH2 0x3709 PUSH2 0x4B9B JUMP JUMPDEST POP POP POP POP POP ISZERO DUP1 ISZERO PUSH2 0x3728 JUMPI RETURNDATASIZE PUSH1 0x0 DUP1 RETURNDATACOPY RETURNDATASIZE PUSH1 0x0 PUSH2 0x3725 PUSH2 0x4A89 JUMP JUMPDEST POP POP JUMPDEST POP POP POP POP PUSH1 0x40 MLOAD RETURNDATASIZE PUSH1 0x40 DUP2 LT ISZERO PUSH2 0x3747 JUMPI PUSH1 0x0 DUP1 PUSH2 0x3744 PUSH2 0x4A89 JUMP JUMPDEST POP POP JUMPDEST DUP2 ADD SWAP1 DUP1 DUP1 MLOAD SWAP3 SWAP2 SWAP1 PUSH1 0x20 ADD DUP1 MLOAD SWAP4 SWAP6 POP SWAP3 SWAP4 POP PUSH1 0x0 SWAP3 POP PUSH2 0x376B SWAP2 POP PUSH2 0x3CA9 SWAP1 POP JUMP JUMPDEST SWAP1 POP DUP1 DUP4 LT ISZERO PUSH2 0x3783 JUMPI POP PUSH1 0x1 SWAP4 POP SWAP2 POP PUSH2 0xCE6 SWAP1 POP JUMP JUMPDEST PUSH1 0x0 PUSH2 0x37A0 PUSH2 0x3793 PUSH2 0x259C PUSH2 0x3C18 JUMP JUMPDEST DUP4 SWAP1 PUSH4 0xFFFFFFFF PUSH2 0x3D3A AND JUMP JUMPDEST SWAP1 POP DUP1 DUP5 GT ISZERO PUSH2 0x37BA JUMPI PUSH1 0x0 DUP4 SWAP6 POP SWAP6 POP POP POP POP POP PUSH2 0xCE6 JUMP JUMPDEST POP PUSH1 0x1 SWAP5 POP SWAP1 SWAP3 POP POP POP SWAP2 POP SWAP2 JUMP JUMPDEST PUSH1 0x0 PUSH1 0x2 PUSH2 0x37D5 PUSH2 0x4AF4 JUMP JUMPDEST SWAP1 PUSH2 0x100 EXP SWAP1 DIV PUSH1 0x1 PUSH1 0x1 PUSH1 0xA0 SHL SUB AND PUSH1 0x1 PUSH1 0x1 PUSH1 0xA0 SHL SUB AND GAS PUSH2 0x37F7 PUSH2 0x4CCF JUMP JUMPDEST PUSH1 0x1 PUSH1 0x1 PUSH1 0xA0 SHL SUB AND EQ ISZERO DUP1 ISZERO PUSH2 0x3843 JUMPI POP PUSH1 0x0 PUSH1 0x3 PUSH2 0x3815 PUSH2 0x4AF4 JUMP JUMPDEST SWAP1 PUSH2 0x100 EXP SWAP1 DIV PUSH1 0x1 PUSH1 0x1 PUSH1 0xA0 SHL SUB AND PUSH1 0x1 PUSH1 0x1 PUSH1 0xA0 SHL SUB AND GAS PUSH2 0x3837 PUSH2 0x4CCF JUMP JUMPDEST PUSH1 0x1 PUSH1 0x1 PUSH1 0xA0 SHL SUB AND EQ ISZERO JUMPDEST DUP1 ISZERO PUSH2 0x3884 JUMPI POP GAS PUSH2 0x3853 PUSH2 0x4CCF JUMP JUMPDEST PUSH1 0x1 PUSH1 0x1 PUSH1 0xA0 SHL SUB AND PUSH1 0x0 PUSH1 0x4 PUSH2 0x3868 PUSH2 0x4AF4 JUMP JUMPDEST SWAP1 PUSH2 0x100 EXP SWAP1 DIV PUSH1 0x1 PUSH1 0x1 PUSH1 0xA0 SHL SUB AND PUSH1 0x1 PUSH1 0x1 PUSH1 0xA0 SHL SUB AND EQ ISZERO JUMPDEST ISZERO PUSH2 0x3156 JUMPI GAS PUSH2 0x3892 PUSH2 0x4CCF JUMP JUMPDEST PUSH1 0x4 PUSH1 0x1 DUP2 PUSH2 0x2195 PUSH2 0x4AF4 JUMP JUMPDEST PUSH1 0x0 PUSH2 0xE99 PUSH32 0x44656C6567617465417070726F76616C73000000000000000000000000000000 PUSH1 0x40 MLOAD PUSH1 0x60 DUP2 ADD PUSH1 0x40 MSTORE PUSH1 0x21 DUP1 DUP3 MSTORE PUSH2 0x4F24 PUSH1 0x20 DUP4 ADD CODECOPY PUSH2 0x40C2 JUMP JUMPDEST PUSH1 0x0 DUP1 DUP1 DUP1 DUP1 DUP1 DUP1 PUSH2 0x38F2 DUP9 PUSH2 0x3694 JUMP JUMPDEST SWAP2 POP SWAP2 POP DUP2 PUSH2 0x3950 JUMPI PUSH1 0x40 MLOAD PUSH3 0x461BCD PUSH1 0xE5 SHL DUP2 MSTORE PUSH1 0x20 PUSH1 0x4 DUP3 ADD MSTORE PUSH1 0x1F PUSH1 0x24 DUP3 ADD MSTORE PUSH32 0x432D526174696F2062656C6F772070656E616C7479207468726573686F6C6400 PUSH1 0x44 DUP3 ADD MSTORE PUSH1 0x64 ADD PUSH1 0x40 MLOAD DUP1 SWAP2 SUB SWAP1 PUSH2 0x394D PUSH2 0x4A89 JUMP JUMPDEST POP POP JUMPDEST DUP1 ISZERO PUSH2 0x39AB JUMPI PUSH1 0x40 MLOAD PUSH3 0x461BCD PUSH1 0xE5 SHL DUP2 MSTORE PUSH1 0x20 PUSH1 0x4 DUP3 ADD MSTORE PUSH1 0x1E PUSH1 0x24 DUP3 ADD MSTORE PUSH32 0x412073796E7468206F7220534E58207261746520697320696E76616C69640000 PUSH1 0x44 DUP3 ADD MSTORE PUSH1 0x64 ADD PUSH1 0x40 MLOAD DUP1 SWAP2 SUB SWAP1 PUSH2 0x39A8 PUSH2 0x4A89 JUMP JUMPDEST POP POP JUMPDEST PUSH2 0x39B4 DUP9 PUSH2 0xC66 JUMP JUMPDEST SWAP1 SWAP5 POP SWAP3 POP DUP4 ISZERO ISZERO DUP1 PUSH2 0x39C7 JUMPI POP PUSH1 0x0 DUP4 GT JUMPDEST PUSH2 0x3A0B JUMPI PUSH1 0x40 MLOAD PUSH3 0x461BCD PUSH1 0xE5 SHL DUP2 MSTORE PUSH1 0x4 ADD DUP1 DUP1 PUSH1 0x20 ADD DUP3 DUP2 SUB DUP3 MSTORE PUSH1 0x40 DUP2 MSTORE PUSH1 0x20 ADD DUP1 PUSH2 0x4F7C PUSH1 0x40 SWAP2 CODECOPY PUSH1 0x40 ADD SWAP2 POP POP PUSH1 0x40 MLOAD DUP1 SWAP2 SUB SWAP1 PUSH2 0x3A08 PUSH2 0x4A89 JUMP JUMPDEST POP POP JUMPDEST PUSH2 0x3A44 DUP9 PUSH2 0x3A19 PUSH1 0x1 PUSH2 0x2DF8 JUMP JUMPDEST PUSH1 0x0 SWAP1 PUSH2 0x3A24 PUSH2 0x4AF4 JUMP JUMPDEST SWAP1 PUSH2 0x100 EXP SWAP1 DIV PUSH8 0xFFFFFFFFFFFFFFFF AND PUSH8 0xFFFFFFFFFFFFFFFF AND PUSH2 0x423E JUMP JUMPDEST DUP4 ISZERO PUSH2 0x3A5F JUMPI PUSH2 0x3A53 DUP5 PUSH2 0x42F2 JUMP JUMPDEST SWAP5 POP PUSH2 0x3A5F DUP9 DUP7 PUSH2 0x43D6 JUMP JUMPDEST DUP3 ISZERO PUSH2 0x3A7A JUMPI PUSH2 0x3A6E DUP4 PUSH2 0x460A JUMP JUMPDEST SWAP6 POP PUSH2 0x3A7A DUP9 DUP8 PUSH2 0x46EF JUMP JUMPDEST PUSH2 0x3A85 DUP9 DUP7 DUP9 PUSH2 0x480A JUMP JUMPDEST POP PUSH1 0x1 SWAP8 SWAP7 POP POP POP POP POP POP POP JUMP JUMPDEST PUSH1 0x0 PUSH1 0x2 PUSH2 0x3A9F PUSH2 0x4AF4 JUMP JUMPDEST SWAP1 PUSH2 0x100 EXP SWAP1 DIV PUSH1 0x1 PUSH1 0x1 PUSH1 0xA0 SHL SUB AND PUSH1 0x1 PUSH1 0x1 PUSH1 0xA0 SHL SUB AND PUSH4 0x907DFF97 DUP5 DUP5 DUP5 PUSH1 0x40 MLOAD PUSH1 0x20 ADD DUP1 DUP5 DUP2 MSTORE PUSH1 0x20 ADD DUP4 DUP2 MSTORE PUSH1 0x20 ADD DUP3 DUP2 MSTORE PUSH1 0x20 ADD SWAP4 POP POP POP POP PUSH1 0x40 MLOAD PUSH1 0x20 DUP2 DUP4 SUB SUB DUP2 MSTORE SWAP1 PUSH1 0x40 MSTORE PUSH1 0x2 PUSH1 0x40 MLOAD DUP1 PUSH1 0x37 PUSH2 0x4F45 DUP3 CODECOPY PUSH1 0x37 ADD SWAP1 POP PUSH1 0x40 MLOAD DUP1 SWAP2 SUB SWAP1 KECCAK256 PUSH1 0x1 PUSH1 0x1 PUSH1 0xA0 SHL SUB DUP10 AND PUSH1 0x0 DUP1 PUSH1 0x40 MLOAD DUP8 PUSH4 0xFFFFFFFF AND PUSH1 0xE0 SHL DUP2 MSTORE PUSH1 0x4 ADD DUP1 DUP1 PUSH1 0x20 ADD DUP8 DUP2 MSTORE PUSH1 0x20 ADD DUP7 DUP2 MSTORE PUSH1 0x20 ADD DUP6 DUP2 MSTORE PUSH1 0x20 ADD DUP5 PUSH1 0x0 SHL DUP2 MSTORE PUSH1 0x20 ADD DUP4 PUSH1 0x0 SHL DUP2 MSTORE PUSH1 0x20 ADD DUP3 DUP2 SUB DUP3 MSTORE DUP9 DUP2 DUP2 MLOAD DUP2 MSTORE PUSH1 0x20 ADD SWAP2 POP DUP1 MLOAD SWAP1 PUSH1 0x20 ADD SWAP1 DUP1 DUP4 DUP4 PUSH1 0x0 JUMPDEST DUP4 DUP2 LT ISZERO PUSH2 0x3B84 JUMPI DUP1 DUP3 ADD MLOAD DUP4 DUP3 ADD MSTORE PUSH1 0x20 ADD PUSH2 0x3B6C JUMP JUMPDEST POP POP POP POP SWAP1 POP SWAP1 DUP2 ADD SWAP1 PUSH1 0x1F AND DUP1 ISZERO PUSH2 0x3BB1 JUMPI DUP1 DUP3 SUB DUP1 MLOAD PUSH1 0x1 DUP4 PUSH1 0x20 SUB PUSH2 0x100 EXP SUB NOT AND DUP2 MSTORE PUSH1 0x20 ADD SWAP2 POP JUMPDEST POP SWAP8 POP POP POP POP POP POP POP POP PUSH1 0x0 PUSH1 0x40 MLOAD DUP1 DUP4 SUB DUP2 PUSH1 0x0 DUP8 DUP1 PUSH2 0x3BD0 PUSH2 0x4B4F JUMP JUMPDEST ISZERO DUP1 ISZERO PUSH2 0x3BE5 JUMPI PUSH1 0x0 DUP1 PUSH2 0x3BE2 PUSH2 0x4A89 JUMP JUMPDEST POP POP JUMPDEST POP GAS PUSH2 0x3BEF PUSH2 0x4D96 JUMP JUMPDEST POP POP POP POP POP POP ISZERO DUP1 ISZERO PUSH2 0x2AE7 JUMPI RETURNDATASIZE PUSH1 0x0 DUP1 RETURNDATACOPY RETURNDATASIZE PUSH1 0x0 PUSH2 0x3C0C PUSH2 0x4A89 JUMP JUMPDEST POP POP POP POP POP POP POP POP POP POP JUMP JUMPDEST PUSH1 0x0 PUSH2 0x3C22 PUSH2 0x41BD JUMP JUMPDEST PUSH1 0x1 PUSH1 0x1 PUSH1 0xA0 SHL SUB AND PUSH4 0x23257C2B PUSH32 0x53797374656D53657474696E6773000000000000000000000000000000000000 PUSH32 0x7461726765745468726573686F6C640000000000000000000000000000000000 PUSH1 0x40 MLOAD PUSH1 0x1 PUSH1 0x1 PUSH1 0xE0 SHL SUB NOT PUSH1 0xE0 DUP6 SWAP1 SHL AND DUP2 MSTORE PUSH1 0x4 DUP2 ADD SWAP3 SWAP1 SWAP3 MSTORE PUSH1 0x24 DUP3 ADD MSTORE PUSH1 0x44 ADD PUSH1 0x20 PUSH1 0x40 MLOAD DUP1 DUP4 SUB DUP2 DUP7 DUP1 PUSH2 0x31E9 PUSH2 0x4B4F JUMP JUMPDEST PUSH1 0x0 PUSH2 0x3CB3 PUSH2 0x41BD JUMP JUMPDEST PUSH1 0x1 PUSH1 0x1 PUSH1 0xA0 SHL SUB AND PUSH4 0x23257C2B PUSH32 0x53797374656D53657474696E6773000000000000000000000000000000000000 PUSH32 0x69737375616E6365526174696F00000000000000000000000000000000000000 PUSH1 0x40 MLOAD PUSH1 0x1 PUSH1 0x1 PUSH1 0xE0 SHL SUB NOT PUSH1 0xE0 DUP6 SWAP1 SHL AND DUP2 MSTORE PUSH1 0x4 DUP2 ADD SWAP3 SWAP1 SWAP3 MSTORE PUSH1 0x24 DUP3 ADD MSTORE PUSH1 0x44 ADD PUSH1 0x20 PUSH1 0x40 MLOAD DUP1 DUP4 SUB DUP2 DUP7 DUP1 PUSH2 0x31E9 PUSH2 0x4B4F JUMP JUMPDEST PUSH1 0x0 PUSH8 0xDE0B6B3A7640000 PUSH2 0x3D55 DUP5 DUP5 PUSH4 0xFFFFFFFF PUSH2 0x4949 AND JUMP JUMPDEST DUP2 PUSH2 0x3D5C JUMPI INVALID JUMPDEST DIV SWAP4 SWAP3 POP POP POP JUMP JUMPDEST PUSH1 0x0 PUSH1 0x2 PUSH2 0x3D70 PUSH2 0x4AF4 JUMP JUMPDEST SWAP1 PUSH2 0x100 EXP SWAP1 DIV PUSH1 0x1 PUSH1 0x1 PUSH1 0xA0 SHL SUB AND PUSH1 0x1 PUSH1 0x1 PUSH1 0xA0 SHL SUB AND GAS PUSH2 0x3D92 PUSH2 0x4CCF JUMP JUMPDEST PUSH1 0x1 PUSH1 0x1 PUSH1 0xA0 SHL SUB AND EQ ISZERO DUP1 ISZERO PUSH2 0x3DDE JUMPI POP PUSH1 0x0 PUSH1 0x3 PUSH2 0x3DB0 PUSH2 0x4AF4 JUMP JUMPDEST SWAP1 PUSH2 0x100 EXP SWAP1 DIV PUSH1 0x1 PUSH1 0x1 PUSH1 0xA0 SHL SUB AND PUSH1 0x1 PUSH1 0x1 PUSH1 0xA0 SHL SUB AND GAS PUSH2 0x3DD2 PUSH2 0x4CCF JUMP JUMPDEST PUSH1 0x1 PUSH1 0x1 PUSH1 0xA0 SHL SUB AND EQ ISZERO JUMPDEST DUP1 ISZERO PUSH2 0x3E1F JUMPI POP GAS PUSH2 0x3DEE PUSH2 0x4CCF JUMP JUMPDEST PUSH1 0x1 PUSH1 0x1 PUSH1 0xA0 SHL SUB AND PUSH1 0x0 PUSH1 0x4 PUSH2 0x3E03 PUSH2 0x4AF4 JUMP JUMPDEST SWAP1 PUSH2 0x100 EXP SWAP1 DIV PUSH1 0x1 PUSH1 0x1 PUSH1 0xA0 SHL SUB AND PUSH1 0x1 PUSH1 0x1 PUSH1 0xA0 SHL SUB AND EQ ISZERO JUMPDEST ISZERO PUSH2 0x3E60 JUMPI GAS PUSH2 0x3E2D PUSH2 0x4CCF JUMP JUMPDEST PUSH1 0x4 PUSH1 0x1 DUP2 PUSH2 0x3E3A PUSH2 0x4AF4 JUMP JUMPDEST DUP2 PUSH1 0x1 PUSH1 0x1 PUSH1 0xA0 SHL SUB MUL NOT AND SWAP1 DUP4 PUSH1 0x1 PUSH1 0x1 PUSH1 0xA0 SHL SUB AND MUL OR SWAP1 PUSH2 0x3E5C PUSH2 0x4C81 JUMP JUMPDEST POP POP POP JUMPDEST PUSH1 0x0 DUP1 PUSH2 0x3E6B PUSH2 0x4AF4 JUMP JUMPDEST PUSH1 0x1 PUSH1 0x1 PUSH1 0xA0 SHL SUB PUSH2 0x100 SWAP3 SWAP1 SWAP3 EXP SWAP1 DIV AND PUSH1 0x0 PUSH1 0x4 PUSH2 0x3E89 PUSH2 0x4AF4 JUMP JUMPDEST SWAP1 PUSH2 0x100 EXP SWAP1 DIV PUSH1 0x1 PUSH1 0x1 PUSH1 0xA0 SHL SUB AND PUSH1 0x1 PUSH1 0x1 PUSH1 0xA0 SHL SUB AND EQ PUSH2 0x3156 JUMPI PUSH1 0x40 MLOAD PUSH3 0x461BCD PUSH1 0xE5 SHL DUP2 MSTORE PUSH1 0x20 PUSH1 0x4 DUP3 ADD MSTORE PUSH1 0x13 PUSH1 0x24 DUP3 ADD MSTORE PUSH32 0x4F776E6572206F6E6C792066756E6374696F6E00000000000000000000000000 PUSH1 0x44 DUP3 ADD MSTORE PUSH1 0x64 ADD PUSH1 0x40 MLOAD DUP1 SWAP2 SUB SWAP1 PUSH2 0x157C PUSH2 0x4A89 JUMP JUMPDEST PUSH1 0x0 PUSH2 0xE99 PUSH32 0x53796E7468657469780000000000000000000000000000000000000000000000 PUSH1 0x40 MLOAD PUSH1 0x40 DUP1 DUP3 ADD SWAP1 MSTORE PUSH1 0x19 DUP2 MSTORE PUSH32 0x4D697373696E672053796E746865746978206164647265737300000000000000 PUSH1 0x20 DUP3 ADD MSTORE PUSH2 0x40C2 JUMP JUMPDEST PUSH1 0x0 PUSH2 0xE99 PUSH32 0x526577617264457363726F770000000000000000000000000000000000000000 PUSH1 0x40 MLOAD PUSH1 0x40 DUP1 DUP3 ADD SWAP1 MSTORE PUSH1 0x1C DUP2 MSTORE PUSH32 0x4D697373696E6720526577617264457363726F77206164647265737300000000 PUSH1 0x20 DUP3 ADD MSTORE PUSH2 0x40C2 JUMP JUMPDEST PUSH1 0x0 PUSH1 0x2 PUSH2 0x3FC3 PUSH2 0x4AF4 JUMP JUMPDEST SWAP1 PUSH2 0x100 EXP SWAP1 DIV PUSH1 0x1 PUSH1 0x1 PUSH1 0xA0 SHL SUB AND PUSH1 0x1 PUSH1 0x1 PUSH1 0xA0 SHL SUB AND GAS PUSH2 0x3FE5 PUSH2 0x4CCF JUMP JUMPDEST PUSH1 0x1 PUSH1 0x1 PUSH1 0xA0 SHL SUB AND EQ DUP1 PUSH2 0x402E JUMPI POP PUSH1 0x0 PUSH1 0x3 PUSH2 0x4001 PUSH2 0x4AF4 JUMP JUMPDEST SWAP1 PUSH2 0x100 EXP SWAP1 DIV PUSH1 0x1 PUSH1 0x1 PUSH1 0xA0 SHL SUB AND PUSH1 0x1 PUSH1 0x1 PUSH1 0xA0 SHL SUB AND GAS PUSH2 0x4023 PUSH2 0x4CCF JUMP JUMPDEST PUSH1 0x1 PUSH1 0x1 PUSH1 0xA0 SHL SUB AND EQ JUMPDEST PUSH2 0x3156 JUMPI PUSH1 0x40 MLOAD PUSH3 0x461BCD PUSH1 0xE5 SHL DUP2 MSTORE PUSH1 0x20 PUSH1 0x4 DUP3 ADD MSTORE PUSH1 0x17 PUSH1 0x24 DUP3 ADD MSTORE PUSH32 0x4F6E6C79207468652070726F78792063616E2063616C6C000000000000000000 PUSH1 0x44 DUP3 ADD MSTORE PUSH1 0x64 ADD PUSH1 0x40 MLOAD DUP1 SWAP2 SUB SWAP1 PUSH2 0x157C PUSH2 0x4A89 JUMP JUMPDEST PUSH1 0x0 PUSH2 0xE99 PUSH32 0x52657761726473446973747269627574696F6E00000000000000000000000000 PUSH1 0x40 MLOAD PUSH1 0x60 DUP2 ADD PUSH1 0x40 MSTORE PUSH1 0x23 DUP1 DUP3 MSTORE PUSH2 0x4FEB PUSH1 0x20 DUP4 ADD CODECOPY JUMPDEST PUSH1 0x0 DUP3 DUP2 MSTORE PUSH1 0x9 PUSH1 0x20 MSTORE DUP1 PUSH1 0x40 DUP2 KECCAK256 PUSH1 0x0 SWAP1 PUSH2 0x40DC PUSH2 0x4AF4 JUMP JUMPDEST PUSH1 0x1 PUSH1 0x1 PUSH1 0xA0 SHL SUB PUSH2 0x100 SWAP3 SWAP1 SWAP3 EXP SWAP1 DIV AND SWAP1 POP DUP3 DUP2 PUSH2 0x4183 JUMPI PUSH1 0x40 MLOAD PUSH3 0x461BCD PUSH1 0xE5 SHL DUP2 MSTORE PUSH1 0x4 ADD DUP1 DUP1 PUSH1 0x20 ADD DUP3 DUP2 SUB DUP3 MSTORE DUP4 DUP2 DUP2 MLOAD DUP2 MSTORE PUSH1 0x20 ADD SWAP2 POP DUP1 MLOAD SWAP1 PUSH1 0x20 ADD SWAP1 DUP1 DUP4 DUP4 PUSH1 0x0 JUMPDEST DUP4 DUP2 LT ISZERO PUSH2 0x413F JUMPI DUP1 DUP3 ADD MLOAD DUP4 DUP3 ADD MSTORE PUSH1 0x20 ADD PUSH2 0x4127 JUMP JUMPDEST POP POP POP POP SWAP1 POP SWAP1 DUP2 ADD SWAP1 PUSH1 0x1F AND DUP1 ISZERO PUSH2 0x416C JUMPI DUP1 DUP3 SUB DUP1 MLOAD PUSH1 0x1 DUP4 PUSH1 0x20 SUB PUSH2 0x100 EXP SUB NOT AND DUP2 MSTORE PUSH1 0x20 ADD SWAP2 POP JUMPDEST POP SWAP3 POP POP POP PUSH1 0x40 MLOAD DUP1 SWAP2 SUB SWAP1 PUSH2 0x4180 PUSH2 0x4A89 JUMP JUMPDEST POP POP JUMPDEST POP SWAP4 SWAP3 POP POP POP JUMP JUMPDEST PUSH1 0x0 PUSH2 0x30D7 DUP4 DUP4 PUSH12 0x33B2E3C9FD0803CE8000000 PUSH2 0x49A8 JUMP JUMPDEST PUSH1 0x0 PUSH2 0x30D7 DUP4 DUP4 PUSH12 0x33B2E3C9FD0803CE8000000 PUSH2 0x49EC JUMP JUMPDEST PUSH1 0x0 PUSH2 0xE99 PUSH32 0x466C657869626C6553746F726167650000000000000000000000000000000000 PUSH1 0x40 MLOAD PUSH1 0x40 DUP1 DUP3 ADD SWAP1 MSTORE PUSH1 0x1F DUP2 MSTORE PUSH32 0x4D697373696E6720466C657869626C6553746F72616765206164647265737300 PUSH1 0x20 DUP3 ADD MSTORE PUSH2 0x40C2 JUMP JUMPDEST PUSH1 0x0 PUSH4 0x5F5E100 DUP3 DIV PUSH1 0x5 PUSH1 0xA DUP3 MOD LT PUSH2 0x4234 JUMPI PUSH1 0xA ADD JUMPDEST PUSH1 0xA SWAP1 DIV SWAP3 SWAP2 POP POP JUMP JUMPDEST PUSH2 0x4246 PUSH2 0x2DB6 JUMP JUMPDEST PUSH1 0x1 PUSH1 0x1 PUSH1 0xA0 SHL SUB AND PUSH4 0x3562FD20 PUSH32 0x6C6173745F6665655F7769746864726177616C00000000000000000000000000 DUP5 PUSH1 0x40 MLOAD PUSH1 0x20 ADD DUP1 DUP4 DUP2 MSTORE PUSH1 0x20 ADD DUP3 PUSH1 0x1 PUSH1 0x1 PUSH1 0xA0 SHL SUB AND PUSH1 0x1 PUSH1 0x1 PUSH1 0xA0 SHL SUB AND PUSH1 0x60 SHL DUP2 MSTORE PUSH1 0x14 ADD SWAP3 POP POP POP PUSH1 0x40 MLOAD PUSH1 0x20 DUP2 DUP4 SUB SUB DUP2 MSTORE SWAP1 PUSH1 0x40 MSTORE DUP1 MLOAD SWAP1 PUSH1 0x20 ADD KECCAK256 DUP4 PUSH1 0x40 MLOAD PUSH1 0x1 PUSH1 0x1 PUSH1 0xE0 SHL SUB NOT PUSH1 0xE0 DUP6 SWAP1 SHL AND DUP2 MSTORE PUSH1 0x4 DUP2 ADD SWAP3 SWAP1 SWAP3 MSTORE PUSH1 0x24 DUP3 ADD MSTORE PUSH1 0x44 ADD PUSH1 0x0 PUSH1 0x40 MLOAD DUP1 DUP4 SUB DUP2 PUSH1 0x0 DUP8 DUP1 PUSH2 0x2AAB PUSH2 0x4B4F JUMP JUMPDEST PUSH1 0x0 DUP2 DUP2 PUSH1 0x1 JUMPDEST PUSH1 0x2 DUP2 LT ISZERO PUSH2 0x4183 JUMPI PUSH1 0x0 PUSH2 0x430D DUP3 PUSH2 0x2DF8 JUMP JUMPDEST PUSH1 0x2 ADD PUSH2 0x4318 PUSH2 0x4AF4 JUMP JUMPDEST SWAP1 POP PUSH1 0x0 PUSH2 0x4334 DUP3 PUSH2 0x4329 DUP6 PUSH2 0x2DF8 JUMP JUMPDEST PUSH1 0x1 ADD PUSH2 0x1743 PUSH2 0x4AF4 JUMP JUMPDEST SWAP1 POP DUP1 ISZERO PUSH2 0x43CB JUMPI PUSH1 0x0 DUP6 DUP3 LT PUSH2 0x434B JUMPI DUP6 PUSH2 0x434D JUMP JUMPDEST DUP2 JUMPDEST SWAP1 POP PUSH2 0x435F DUP4 DUP3 PUSH4 0xFFFFFFFF PUSH2 0x3075 AND JUMP JUMPDEST PUSH2 0x4368 DUP6 PUSH2 0x2DF8 JUMP JUMPDEST PUSH1 0x2 ADD DUP2 SWAP1 PUSH2 0x4375 PUSH2 0x4C81 JUMP JUMPDEST POP PUSH2 0x438A SWAP2 POP DUP8 SWAP1 POP DUP3 PUSH4 0xFFFFFFFF PUSH2 0x2E26 AND JUMP JUMPDEST SWAP6 POP PUSH2 0x439C DUP6 DUP3 PUSH4 0xFFFFFFFF PUSH2 0x3075 AND JUMP JUMPDEST SWAP5 POP DUP6 PUSH2 0x43B1 JUMPI DUP5 SWAP7 POP POP POP POP POP POP POP PUSH2 0xA4C JUMP JUMPDEST DUP4 ISZERO DUP1 ISZERO PUSH2 0x43BF JUMPI POP PUSH1 0x0 DUP7 GT JUMPDEST ISZERO PUSH2 0x43C9 JUMPI PUSH1 0x0 SWAP6 POP JUMPDEST POP JUMPDEST POP POP PUSH1 0x0 NOT ADD PUSH2 0x42F9 JUMP JUMPDEST DUP2 PUSH1 0x1 PUSH1 0x1 PUSH1 0xA0 SHL SUB DUP2 AND PUSH20 0xFEEFEEFEEFEEFEEFEEFEEFEEFEEFEEFEEFEEFEEF EQ ISZERO PUSH2 0x4451 JUMPI PUSH1 0x40 MLOAD PUSH3 0x461BCD PUSH1 0xE5 SHL DUP2 MSTORE PUSH1 0x20 PUSH1 0x4 DUP3 ADD MSTORE PUSH1 0x17 PUSH1 0x24 DUP3 ADD MSTORE PUSH32 0x4665652061646472657373206E6F7420616C6C6F776564000000000000000000 PUSH1 0x44 DUP3 ADD MSTORE PUSH1 0x64 ADD PUSH1 0x40 MLOAD DUP1 SWAP2 SUB SWAP1 PUSH2 0x444E PUSH2 0x4A89 JUMP JUMPDEST POP POP JUMPDEST PUSH1 0x0 PUSH2 0x445B PUSH2 0x32B3 JUMP JUMPDEST PUSH1 0x1 PUSH1 0x1 PUSH1 0xA0 SHL SUB AND PUSH4 0x32608039 PUSH1 0xB PUSH2 0x4473 PUSH2 0x4AF4 JUMP JUMPDEST PUSH1 0x40 MLOAD PUSH1 0x1 PUSH1 0x1 PUSH1 0xE0 SHL SUB NOT PUSH1 0xE0 DUP5 SWAP1 SHL AND DUP2 MSTORE PUSH1 0x4 DUP2 ADD SWAP2 SWAP1 SWAP2 MSTORE PUSH1 0x24 ADD PUSH1 0x20 PUSH1 0x40 MLOAD DUP1 DUP4 SUB DUP2 DUP7 DUP1 PUSH2 0x44A5 PUSH2 0x4B4F JUMP JUMPDEST ISZERO DUP1 ISZERO PUSH2 0x44BA JUMPI PUSH1 0x0 DUP1 PUSH2 0x44B7 PUSH2 0x4A89 JUMP JUMPDEST POP POP JUMPDEST POP GAS PUSH2 0x44C4 PUSH2 0x4B9B JUMP JUMPDEST POP POP POP POP POP ISZERO DUP1 ISZERO PUSH2 0x44E3 JUMPI RETURNDATASIZE PUSH1 0x0 DUP1 RETURNDATACOPY RETURNDATASIZE PUSH1 0x0 PUSH2 0x44E0 PUSH2 0x4A89 JUMP JUMPDEST POP POP JUMPDEST POP POP POP POP PUSH1 0x40 MLOAD RETURNDATASIZE PUSH1 0x20 DUP2 LT ISZERO PUSH2 0x4502 JUMPI PUSH1 0x0 DUP1 PUSH2 0x44FF PUSH2 0x4A89 JUMP JUMPDEST POP POP JUMPDEST DUP2 ADD SWAP1 DUP1 DUP1 MLOAD SWAP4 POP POP PUSH1 0x1 PUSH1 0x1 PUSH1 0xA0 SHL SUB DUP4 AND SWAP2 POP PUSH4 0x9DC29FAC SWAP1 POP PUSH20 0xFEEFEEFEEFEEFEEFEEFEEFEEFEEFEEFEEFEEFEEF DUP6 PUSH1 0x40 MLOAD PUSH1 0x1 PUSH1 0x1 PUSH1 0xE0 SHL SUB NOT PUSH1 0xE0 DUP6 SWAP1 SHL AND DUP2 MSTORE PUSH1 0x1 PUSH1 0x1 PUSH1 0xA0 SHL SUB SWAP1 SWAP3 AND PUSH1 0x4 DUP4 ADD MSTORE PUSH1 0x24 DUP3 ADD MSTORE PUSH1 0x44 ADD PUSH1 0x0 PUSH1 0x40 MLOAD DUP1 DUP4 SUB DUP2 PUSH1 0x0 DUP8 DUP1 PUSH2 0x4575 PUSH2 0x4B4F JUMP JUMPDEST ISZERO DUP1 ISZERO PUSH2 0x458A JUMPI PUSH1 0x0 DUP1 PUSH2 0x4587 PUSH2 0x4A89 JUMP JUMPDEST POP POP JUMPDEST POP GAS PUSH2 0x4594 PUSH2 0x4D96 JUMP JUMPDEST POP POP POP POP POP POP ISZERO DUP1 ISZERO PUSH2 0x45B4 JUMPI RETURNDATASIZE PUSH1 0x0 DUP1 RETURNDATACOPY RETURNDATASIZE PUSH1 0x0 PUSH2 0x45B1 PUSH2 0x4A89 JUMP JUMPDEST POP POP JUMPDEST POP POP POP POP DUP1 PUSH1 0x1 PUSH1 0x1 PUSH1 0xA0 SHL SUB AND PUSH4 0x867904B4 DUP6 DUP6 PUSH1 0x40 MLOAD PUSH1 0x1 PUSH1 0x1 PUSH1 0xE0 SHL SUB NOT PUSH1 0xE0 DUP6 SWAP1 SHL AND DUP2 MSTORE PUSH1 0x1 PUSH1 0x1 PUSH1 0xA0 SHL SUB SWAP1 SWAP3 AND PUSH1 0x4 DUP4 ADD MSTORE PUSH1 0x24 DUP3 ADD MSTORE PUSH1 0x44 ADD PUSH1 0x0 PUSH1 0x40 MLOAD DUP1 DUP4 SUB DUP2 PUSH1 0x0 DUP8 DUP1 PUSH2 0x3BD0 PUSH2 0x4B4F JUMP JUMPDEST PUSH1 0x0 DUP2 DUP2 PUSH1 0x1 JUMPDEST PUSH1 0x2 DUP2 LT ISZERO PUSH2 0x4183 JUMPI PUSH1 0x0 PUSH2 0x4647 PUSH2 0x4628 DUP4 PUSH2 0x2DF8 JUMP JUMPDEST PUSH1 0x4 ADD PUSH2 0x4633 PUSH2 0x4AF4 JUMP JUMPDEST PUSH2 0x463C DUP5 PUSH2 0x2DF8 JUMP JUMPDEST PUSH1 0x3 ADD PUSH2 0x1743 PUSH2 0x4AF4 JUMP JUMPDEST SWAP1 POP DUP1 ISZERO PUSH2 0x46E5 JUMPI PUSH1 0x0 DUP5 DUP3 LT PUSH2 0x465E JUMPI DUP5 PUSH2 0x4660 JUMP JUMPDEST DUP2 JUMPDEST SWAP1 POP PUSH2 0x467A DUP2 PUSH2 0x466F DUP6 PUSH2 0x2DF8 JUMP JUMPDEST PUSH1 0x4 ADD PUSH2 0x103D PUSH2 0x4AF4 JUMP JUMPDEST PUSH2 0x4683 DUP5 PUSH2 0x2DF8 JUMP JUMPDEST PUSH1 0x4 ADD DUP2 SWAP1 PUSH2 0x4690 PUSH2 0x4C81 JUMP JUMPDEST POP PUSH2 0x46A5 SWAP2 POP DUP7 SWAP1 POP DUP3 PUSH4 0xFFFFFFFF PUSH2 0x2E26 AND JUMP JUMPDEST SWAP5 POP PUSH2 0x46B7 DUP5 DUP3 PUSH4 0xFFFFFFFF PUSH2 0x3075 AND JUMP JUMPDEST SWAP4 POP DUP5 PUSH2 0x46CB JUMPI DUP4 SWAP6 POP POP POP POP POP POP PUSH2 0xA4C JUMP JUMPDEST DUP3 ISZERO DUP1 ISZERO PUSH2 0x46D9 JUMPI POP PUSH1 0x0 DUP6 GT JUMPDEST ISZERO PUSH2 0x46E3 JUMPI PUSH1 0x0 SWAP5 POP JUMPDEST POP JUMPDEST POP PUSH1 0x0 NOT ADD PUSH2 0x4611 JUMP JUMPDEST DUP2 PUSH1 0x1 PUSH1 0x1 PUSH1 0xA0 SHL SUB DUP2 AND PUSH20 0xFEEFEEFEEFEEFEEFEEFEEFEEFEEFEEFEEFEEFEEF EQ ISZERO PUSH2 0x476A JUMPI PUSH1 0x40 MLOAD PUSH3 0x461BCD PUSH1 0xE5 SHL DUP2 MSTORE PUSH1 0x20 PUSH1 0x4 DUP3 ADD MSTORE PUSH1 0x17 PUSH1 0x24 DUP3 ADD MSTORE PUSH32 0x4665652061646472657373206E6F7420616C6C6F776564000000000000000000 PUSH1 0x44 DUP3 ADD MSTORE PUSH1 0x64 ADD PUSH1 0x40 MLOAD DUP1 SWAP2 SUB SWAP1 PUSH2 0x4767 PUSH2 0x4A89 JUMP JUMPDEST POP POP JUMPDEST PUSH2 0x4772 PUSH2 0x3F58 JUMP JUMPDEST PUSH1 0x1 PUSH1 0x1 PUSH1 0xA0 SHL SUB AND PUSH4 0xB5DDB9C7 DUP5 DUP5 PUSH1 0x40 MLOAD PUSH1 0x1 PUSH1 0x1 PUSH1 0xE0 SHL SUB NOT PUSH1 0xE0 DUP6 SWAP1 SHL AND DUP2 MSTORE PUSH1 0x1 PUSH1 0x1 PUSH1 0xA0 SHL SUB SWAP1 SWAP3 AND PUSH1 0x4 DUP4 ADD MSTORE PUSH1 0x24 DUP3 ADD MSTORE PUSH1 0x44 ADD PUSH1 0x0 PUSH1 0x40 MLOAD DUP1 DUP4 SUB DUP2 PUSH1 0x0 DUP8 DUP1 PUSH2 0x47C3 PUSH2 0x4B4F JUMP JUMPDEST ISZERO DUP1 ISZERO PUSH2 0x47D8 JUMPI PUSH1 0x0 DUP1 PUSH2 0x47D5 PUSH2 0x4A89 JUMP JUMPDEST POP POP JUMPDEST POP GAS PUSH2 0x47E2 PUSH2 0x4D96 JUMP JUMPDEST POP POP POP POP POP POP ISZERO DUP1 ISZERO PUSH2 0x1060 JUMPI RETURNDATASIZE PUSH1 0x0 DUP1 RETURNDATACOPY RETURNDATASIZE PUSH1 0x0 PUSH2 0x47FF PUSH2 0x4A89 JUMP JUMPDEST POP POP POP POP POP POP POP POP POP JUMP JUMPDEST PUSH1 0x0 PUSH1 0x2 PUSH2 0x4816 PUSH2 0x4AF4 JUMP JUMPDEST SWAP1 PUSH2 0x100 EXP SWAP1 DIV PUSH1 0x1 PUSH1 0x1 PUSH1 0xA0 SHL SUB AND PUSH1 0x1 PUSH1 0x1 PUSH1 0xA0 SHL SUB AND PUSH4 0x907DFF97 DUP5 DUP5 DUP5 PUSH1 0x40 MLOAD PUSH1 0x1 PUSH1 0x1 PUSH1 0xA0 SHL SUB SWAP1 SWAP4 AND PUSH1 0x20 DUP5 ADD MSTORE PUSH1 0x40 DUP1 DUP5 ADD SWAP3 SWAP1 SWAP3 MSTORE PUSH1 0x60 DUP4 ADD MSTORE PUSH1 0x80 SWAP1 SWAP2 ADD SWAP1 MLOAD PUSH1 0x20 DUP2 DUP4 SUB SUB DUP2 MSTORE SWAP1 PUSH1 0x40 MSTORE PUSH1 0x1 PUSH1 0x40 MLOAD DUP1 PUSH1 0x24 PUSH2 0x4F00 DUP3 CODECOPY PUSH1 0x24 ADD SWAP1 POP PUSH1 0x40 MLOAD DUP1 SWAP2 SUB SWAP1 KECCAK256 PUSH1 0x0 DUP1 PUSH1 0x0 PUSH1 0x40 MLOAD DUP8 PUSH4 0xFFFFFFFF AND PUSH1 0xE0 SHL DUP2 MSTORE PUSH1 0x4 ADD DUP1 DUP1 PUSH1 0x20 ADD DUP8 DUP2 MSTORE PUSH1 0x20 ADD DUP7 DUP2 MSTORE PUSH1 0x20 ADD DUP6 PUSH1 0x0 SHL DUP2 MSTORE PUSH1 0x20 ADD DUP5 PUSH1 0x0 SHL DUP2 MSTORE PUSH1 0x20 ADD DUP4 PUSH1 0x0 SHL DUP2 MSTORE PUSH1 0x20 ADD DUP3 DUP2 SUB DUP3 MSTORE DUP9 DUP2 DUP2 MLOAD DUP2 MSTORE PUSH1 0x20 ADD SWAP2 POP DUP1 MLOAD SWAP1 PUSH1 0x20 ADD SWAP1 DUP1 DUP4 DUP4 PUSH1 0x0 JUMPDEST DUP4 DUP2 LT ISZERO PUSH2 0x48FD JUMPI DUP1 DUP3 ADD MLOAD DUP4 DUP3 ADD MSTORE PUSH1 0x20 ADD PUSH2 0x48E5 JUMP JUMPDEST POP POP POP POP SWAP1 POP SWAP1 DUP2 ADD SWAP1 PUSH1 0x1F AND DUP1 ISZERO PUSH2 0x492A JUMPI DUP1 DUP3 SUB DUP1 MLOAD PUSH1 0x1 DUP4 PUSH1 0x20 SUB PUSH2 0x100 EXP SUB NOT AND DUP2 MSTORE PUSH1 0x20 ADD SWAP2 POP JUMPDEST POP SWAP8 POP POP POP POP POP POP POP POP PUSH1 0x0 PUSH1 0x40 MLOAD DUP1 DUP4 SUB DUP2 PUSH1 0x0 DUP8 DUP1 PUSH2 0x47C3 PUSH2 0x4B4F JUMP JUMPDEST PUSH1 0x0 DUP3 PUSH2 0x4958 JUMPI POP PUSH1 0x0 PUSH2 0xC60 JUMP JUMPDEST DUP3 DUP3 MUL DUP3 DUP5 DUP3 DUP2 PUSH2 0x4965 JUMPI INVALID JUMPDEST DIV EQ PUSH2 0x30D7 JUMPI PUSH1 0x40 MLOAD PUSH3 0x461BCD PUSH1 0xE5 SHL DUP2 MSTORE PUSH1 0x4 ADD DUP1 DUP1 PUSH1 0x20 ADD DUP3 DUP2 SUB DUP3 MSTORE PUSH1 0x21 DUP2 MSTORE PUSH1 0x20 ADD DUP1 PUSH2 0x500E PUSH1 0x21 SWAP2 CODECOPY PUSH1 0x40 ADD SWAP2 POP POP PUSH1 0x40 MLOAD DUP1 SWAP2 SUB SWAP1 PUSH2 0x30D4 PUSH2 0x4A89 JUMP JUMPDEST PUSH1 0x0 DUP1 PUSH2 0x49CE DUP5 PUSH2 0x49C2 DUP8 PUSH1 0xA DUP8 MUL PUSH4 0xFFFFFFFF PUSH2 0x4949 AND JUMP JUMPDEST SWAP1 PUSH4 0xFFFFFFFF PUSH2 0x4A17 AND JUMP JUMPDEST SWAP1 POP PUSH1 0x5 PUSH1 0xA DUP3 JUMPDEST MOD LT PUSH2 0x49E0 JUMPI PUSH1 0xA ADD JUMPDEST PUSH1 0xA SWAP1 DIV SWAP5 SWAP4 POP POP POP POP JUMP JUMPDEST PUSH1 0x0 DUP1 PUSH1 0xA DUP4 DIV PUSH2 0x4A03 DUP7 DUP7 PUSH4 0xFFFFFFFF PUSH2 0x4949 AND JUMP JUMPDEST DUP2 PUSH2 0x4A0A JUMPI INVALID JUMPDEST DIV SWAP1 POP PUSH1 0x5 PUSH1 0xA DUP3 PUSH2 0x49D6 JUMP JUMPDEST PUSH1 0x0 DUP1 DUP3 GT PUSH2 0x4A75 JUMPI PUSH1 0x40 MLOAD PUSH3 0x461BCD PUSH1 0xE5 SHL DUP2 MSTORE PUSH1 0x20 PUSH1 0x4 DUP3 ADD MSTORE PUSH1 0x1A PUSH1 0x24 DUP3 ADD MSTORE PUSH32 0x536166654D6174683A206469766973696F6E206279207A65726F000000000000 PUSH1 0x44 DUP3 ADD MSTORE PUSH1 0x64 ADD PUSH1 0x40 MLOAD DUP1 SWAP2 SUB SWAP1 PUSH2 0x4A72 PUSH2 0x4A89 JUMP JUMPDEST POP POP JUMPDEST PUSH1 0x0 DUP3 DUP5 DUP2 PUSH2 0x4A80 JUMPI INVALID JUMPDEST DIV SWAP5 SWAP4 POP POP POP POP JUMP JUMPDEST PUSH4 0x2A2A7ADB MSIZE DUP2 PUSH1 0xE0 SHL DUP2 MSTORE PUSH1 0x4 DUP2 ADD PUSH1 0x20 DUP2 MSTORE DUP6 PUSH1 0x20 DUP3 ADD MSTORE PUSH1 0x0 JUMPDEST DUP7 DUP2 LT ISZERO PUSH2 0x4AC1 JUMPI DUP1 DUP7 ADD MLOAD DUP3 DUP3 ADD PUSH1 0x40 ADD MSTORE PUSH1 0x20 ADD PUSH2 0x4AA6 JUMP JUMPDEST POP PUSH1 0x20 DUP3 DUP8 PUSH1 0x64 ADD DUP5 CALLER PUSH1 0x0 SWAP1 GAS CALL PC PUSH1 0xE ADD JUMPI RETURNDATASIZE PUSH1 0x0 DUP1 RETURNDATACOPY RETURNDATASIZE PUSH1 0x0 REVERT JUMPDEST RETURNDATASIZE PUSH1 0x1 EQ ISZERO PC PUSH1 0xA ADD JUMPI PUSH1 0x1 PUSH1 0x0 RETURN JUMPDEST POP POP POP JUMP JUMPDEST PUSH4 0x3DAA959 MSIZE DUP2 PUSH1 0xE0 SHL DUP2 MSTORE DUP4 PUSH1 0x4 DUP3 ADD MSTORE PUSH1 0x20 DUP2 PUSH1 0x24 DUP4 CALLER PUSH1 0x0 SWAP1 GAS CALL PC PUSH1 0xE ADD JUMPI RETURNDATASIZE PUSH1 0x0 DUP1 RETURNDATACOPY RETURNDATASIZE PUSH1 0x0 REVERT JUMPDEST RETURNDATASIZE PUSH1 0x1 EQ ISZERO PC PUSH1 0xA ADD JUMPI PUSH1 0x1 PUSH1 0x0 RETURN JUMPDEST DUP1 MLOAD SWAP4 POP PUSH1 0x0 JUMPDEST PUSH1 0x40 DUP2 LT ISZERO PUSH2 0x21B7 JUMPI PUSH1 0x0 DUP3 DUP3 ADD MSTORE PUSH1 0x20 ADD PUSH2 0x4B38 JUMP JUMPDEST PUSH4 0x8435035B MSIZE DUP2 PUSH1 0xE0 SHL DUP2 MSTORE DUP4 PUSH1 0x4 DUP3 ADD MSTORE PUSH1 0x20 DUP2 PUSH1 0x24 DUP4 CALLER PUSH1 0x0 SWAP1 GAS CALL PC PUSH1 0xE ADD JUMPI RETURNDATASIZE PUSH1 0x0 DUP1 RETURNDATACOPY RETURNDATASIZE PUSH1 0x0 REVERT JUMPDEST RETURNDATASIZE PUSH1 0x1 EQ ISZERO PC PUSH1 0xA ADD JUMPI PUSH1 0x1 PUSH1 0x0 RETURN JUMPDEST DUP1 MLOAD PUSH1 0x0 DUP3 MSTORE SWAP4 POP PUSH1 0x20 PUSH2 0x4B38 JUMP JUMPDEST PUSH4 0x8540661F MSIZE DUP2 PUSH1 0xE0 SHL DUP2 MSTORE DUP4 PUSH1 0x4 DUP3 ADD MSTORE DUP5 PUSH1 0x24 DUP3 ADD MSTORE PUSH1 0x60 PUSH1 0x44 DUP3 ADD MSTORE DUP7 PUSH1 0x64 DUP3 ADD MSTORE PUSH1 0x84 DUP2 ADD PUSH1 0x0 JUMPDEST DUP9 DUP2 LT ISZERO PUSH2 0x4BDF JUMPI DUP1 DUP9 ADD MLOAD DUP3 DUP3 ADD MSTORE PUSH1 0x20 ADD PUSH2 0x4BC7 JUMP JUMPDEST POP DUP8 PUSH2 0x104 ADD DUP3 ADD PUSH1 0x60 DUP4 DUP11 PUSH2 0x104 ADD DUP6 CALLER PUSH1 0x0 SWAP1 GAS CALL PC PUSH1 0xE ADD JUMPI RETURNDATASIZE PUSH1 0x0 DUP1 RETURNDATACOPY RETURNDATASIZE PUSH1 0x0 REVERT JUMPDEST RETURNDATASIZE PUSH1 0x1 EQ ISZERO PC PUSH1 0xA ADD JUMPI PUSH1 0x1 PUSH1 0x0 RETURN JUMPDEST DUP3 MLOAD PUSH1 0x40 DUP5 ADD MLOAD RETURNDATASIZE PUSH1 0x0 DUP7 RETURNDATACOPY DUP13 DUP13 DUP3 PUSH1 0x60 DUP9 ADD CALLER POP PUSH1 0x0 PUSH1 0x4 GAS CALL POP MSIZE DUP6 JUMPDEST DUP2 DUP2 LT ISZERO PUSH2 0x4C48 JUMPI PUSH1 0x0 DUP2 MSTORE PUSH1 0x20 ADD PUSH2 0x4C34 JUMP JUMPDEST POP SWAP2 SWAP13 POP POP POP POP POP POP POP JUMP JUMPDEST PUSH1 0x40 MLOAD DUP1 PUSH1 0x40 ADD PUSH1 0x40 MSTORE DUP1 PUSH1 0x2 SWAP1 JUMPDEST PUSH2 0x4C6B PUSH2 0x4EAF JUMP JUMPDEST DUP2 MSTORE PUSH1 0x20 ADD SWAP1 PUSH1 0x1 SWAP1 SUB SWAP1 DUP2 PUSH2 0x4C63 JUMPI SWAP1 POP POP SWAP1 JUMP JUMPDEST PUSH4 0x22BD64C0 MSIZE DUP2 PUSH1 0xE0 SHL DUP2 MSTORE DUP4 PUSH1 0x4 DUP3 ADD MSTORE DUP5 PUSH1 0x24 DUP3 ADD MSTORE PUSH1 0x0 DUP2 PUSH1 0x44 DUP4 CALLER PUSH1 0x0 SWAP1 GAS CALL PC PUSH1 0xE ADD JUMPI RETURNDATASIZE PUSH1 0x0 DUP1 RETURNDATACOPY RETURNDATASIZE PUSH1 0x0 REVERT JUMPDEST RETURNDATASIZE PUSH1 0x1 EQ ISZERO PC PUSH1 0xA ADD JUMPI PUSH1 0x1 PUSH1 0x0 RETURN JUMPDEST PUSH1 0x0 DUP2 MSTORE PUSH1 0x20 PUSH2 0x4B38 JUMP JUMPDEST PUSH4 0x73509064 MSIZE DUP2 PUSH1 0xE0 SHL DUP2 MSTORE PUSH1 0x20 DUP2 PUSH1 0x4 DUP4 CALLER PUSH1 0x0 SWAP1 GAS CALL PC PUSH1 0xE ADD JUMPI RETURNDATASIZE PUSH1 0x0 DUP1 RETURNDATACOPY RETURNDATASIZE PUSH1 0x0 REVERT JUMPDEST RETURNDATASIZE PUSH1 0x1 EQ ISZERO PC PUSH1 0xA ADD JUMPI PUSH1 0x1 PUSH1 0x0 RETURN JUMPDEST DUP1 MLOAD PUSH1 0x0 DUP3 MSTORE SWAP4 POP PUSH1 0x20 PUSH2 0x4B38 JUMP JUMPDEST PUSH4 0xBDBF8C36 MSIZE DUP2 PUSH1 0xE0 SHL DUP2 MSTORE PUSH1 0x20 DUP2 PUSH1 0x4 DUP4 CALLER PUSH1 0x0 SWAP1 GAS CALL PC PUSH1 0xE ADD JUMPI RETURNDATASIZE PUSH1 0x0 DUP1 RETURNDATACOPY RETURNDATASIZE PUSH1 0x0 REVERT JUMPDEST RETURNDATASIZE PUSH1 0x1 EQ ISZERO PC PUSH1 0xA ADD JUMPI PUSH1 0x1 PUSH1 0x0 RETURN JUMPDEST DUP1 MLOAD PUSH1 0x0 DUP3 MSTORE SWAP4 POP PUSH1 0x20 PUSH2 0x4B38 JUMP JUMPDEST PUSH1 0x40 MLOAD PUSH1 0xE0 DUP2 ADD PUSH1 0x40 SWAP1 DUP2 MSTORE PUSH1 0x0 DUP1 DUP4 MSTORE PUSH1 0x20 DUP4 ADD DUP2 SWAP1 MSTORE SWAP1 DUP3 ADD DUP2 SWAP1 MSTORE PUSH1 0x60 DUP3 ADD DUP2 SWAP1 MSTORE PUSH1 0x80 DUP3 ADD DUP2 SWAP1 MSTORE PUSH1 0xA0 DUP3 ADD DUP2 SWAP1 MSTORE PUSH1 0xC0 DUP3 ADD MSTORE SWAP1 JUMP JUMPDEST PUSH4 0x85979F76 MSIZE DUP2 PUSH1 0xE0 SHL DUP2 MSTORE DUP4 PUSH1 0x4 DUP3 ADD MSTORE DUP5 PUSH1 0x24 DUP3 ADD MSTORE PUSH1 0x60 PUSH1 0x44 DUP3 ADD MSTORE DUP8 PUSH1 0x64 DUP3 ADD MSTORE PUSH1 0x84 DUP2 ADD PUSH1 0x0 JUMPDEST DUP10 DUP2 LT ISZERO PUSH2 0x4DDA JUMPI DUP1 DUP10 ADD MLOAD DUP3 DUP3 ADD MSTORE PUSH1 0x20 ADD PUSH2 0x4DC2 JUMP JUMPDEST POP DUP9 PUSH2 0x104 ADD DUP3 ADD PUSH1 0x60 DUP4 DUP12 PUSH2 0x104 ADD DUP6 CALLER PUSH1 0x0 SWAP1 GAS CALL PC PUSH1 0xE ADD JUMPI RETURNDATASIZE PUSH1 0x0 DUP1 RETURNDATACOPY RETURNDATASIZE PUSH1 0x0 REVERT JUMPDEST RETURNDATASIZE PUSH1 0x1 EQ ISZERO PC PUSH1 0xA ADD JUMPI PUSH1 0x1 PUSH1 0x0 RETURN JUMPDEST DUP3 MLOAD PUSH1 0x40 DUP5 ADD MLOAD RETURNDATASIZE PUSH1 0x0 DUP7 RETURNDATACOPY DUP14 DUP14 DUP3 PUSH1 0x60 DUP9 ADD CALLER POP PUSH1 0x0 PUSH1 0x4 GAS CALL POP MSIZE DUP6 JUMPDEST DUP2 DUP2 LT ISZERO PUSH2 0x4E43 JUMPI PUSH1 0x0 DUP2 MSTORE PUSH1 0x20 ADD PUSH2 0x4E2F JUMP JUMPDEST POP SWAP2 SWAP14 POP POP POP POP POP POP POP JUMP JUMPDEST PUSH1 0x40 MLOAD PUSH2 0x300 DUP1 DUP3 ADD PUSH1 0x40 MSTORE PUSH1 0x18 SWAP1 DUP3 SWAP1 DUP1 CODESIZE DUP4 CODECOPY POP SWAP2 SWAP3 SWAP2 POP POP JUMP JUMPDEST PUSH4 0xFFE73914 MSIZE DUP2 PUSH1 0xE0 SHL DUP2 MSTORE DUP4 PUSH1 0x4 DUP3 ADD MSTORE DUP5 PUSH1 0x24 DUP3 ADD MSTORE PUSH1 0x60 PUSH1 0x44 DUP3 ADD MSTORE DUP7 PUSH1 0x64 DUP3 ADD MSTORE PUSH1 0x84 DUP2 ADD PUSH1 0x0 DUP9 DUP2 LT ISZERO PUSH2 0x4BDF JUMPI DUP1 DUP9 ADD MLOAD DUP3 DUP3 ADD MSTORE PUSH1 0x20 ADD PUSH2 0x4BC7 JUMP JUMPDEST PUSH1 0x40 MLOAD PUSH1 0x40 DUP1 DUP3 ADD DUP2 MSTORE PUSH1 0x2 SWAP1 DUP3 SWAP1 DUP1 CODESIZE DUP4 CODECOPY POP SWAP2 SWAP3 SWAP2 POP POP JUMP INVALID MSIZE PUSH16 0x75206D757374206265206E6F6D696E61 PUSH21 0x6564206265666F726520796F752063616E20616363 PUSH6 0x7074206F776E PUSH6 0x727368697046 PUSH6 0x6573436C6169 PUSH14 0x656428616464726573732C75696E PUSH21 0x3235362C75696E74323536294D697373696E672044 PUSH6 0x6C6567617465 COINBASE PUSH17 0x70726F76616C7320616464726573734973 PUSH20 0x75616E636544656274526174696F456E74727928 PUSH2 0x6464 PUSH19 0x6573732C75696E743235362C75696E74323536 0x2C PUSH22 0x696E74323536294E6F2066656573206F722072657761 PUSH19 0x647320617661696C61626C6520666F72207065 PUSH19 0x696F642C206F72206665657320616C72656164 PUSH26 0x20636C61696D65644F6E6C792074686520636F6E747261637420 PUSH16 0x776E6572206D617920706572666F726D KECCAK256 PUSH21 0x68697320616374696F6E4D697373696E6720526577 PUSH2 0x7264 PUSH20 0x446973747269627574696F6E2061646472657373 MSTORE8 PUSH2 0x6665 0x4D PUSH2 0x7468 GASPRICE KECCAK256 PUSH14 0x756C7469706C69636174696F6E20 PUSH16 0x766572666C6F7743616E206F6E6C7920 PUSH17 0x6572666F726D207468697320616374696F PUSH15 0x20647572696E672073657475704D69 PUSH20 0x73696E67204574686572436F6C6C61746572616C PUSH20 0x55534420616464726573734D697373696E672046 PUSH6 0x65506F6F6C45 PUSH21 0x65726E616C53746F72616765206164647265737300 "
		}
	}
}