{
	"abi": [
		{
			"inputs": [
				{
					"internalType": "address",
					"name": "_owner",
					"type": "address"
				},
				{
					"internalType": "address",
					"name": "_resolver",
					"type": "address"
				},
				{
					"internalType": "uint256",
					"name": "_inflationStartDate",
					"type": "uint256"
				},
				{
					"internalType": "uint256",
					"name": "_lastMintEvent",
					"type": "uint256"
				},
				{
					"internalType": "uint256",
					"name": "_mintPeriodCounter",
					"type": "uint256"
				},
				{
					"internalType": "uint256",
					"name": "_mintPeriodDuration",
					"type": "uint256"
				},
				{
					"internalType": "uint256",
					"name": "_mintBuffer",
					"type": "uint256"
				},
				{
					"internalType": "uint256",
					"name": "_fixedPeriodicSupply",
					"type": "uint256"
				},
				{
					"internalType": "uint256",
					"name": "_supplyEnd",
					"type": "uint256"
				},
				{
					"internalType": "uint256",
					"name": "_minterReward",
					"type": "uint256"
				}
			],
			"payable": false,
			"stateMutability": "nonpayable",
			"type": "constructor"
		},
		{
			"anonymous": false,
			"inputs": [
				{
					"indexed": false,
					"internalType": "uint256",
					"name": "newRewardAmount",
					"type": "uint256"
				}
			],
			"name": "MinterRewardUpdated",
			"type": "event"
		},
		{
			"anonymous": false,
			"inputs": [
				{
					"indexed": false,
					"internalType": "address",
					"name": "oldOwner",
					"type": "address"
				},
				{
					"indexed": false,
					"internalType": "address",
					"name": "newOwner",
					"type": "address"
				}
			],
			"name": "OwnerChanged",
			"type": "event"
		},
		{
			"anonymous": false,
			"inputs": [
				{
					"indexed": false,
					"internalType": "address",
					"name": "newOwner",
					"type": "address"
				}
			],
			"name": "OwnerNominated",
			"type": "event"
		},
		{
			"anonymous": false,
			"inputs": [
				{
					"indexed": false,
					"internalType": "uint256",
					"name": "supplyMinted",
					"type": "uint256"
				},
				{
					"indexed": false,
					"internalType": "uint256",
					"name": "numberOfPeriodsIssued",
					"type": "uint256"
				},
				{
					"indexed": false,
					"internalType": "uint256",
					"name": "lastMintEvent",
					"type": "uint256"
				},
				{
					"indexed": false,
					"internalType": "uint256",
					"name": "timestamp",
					"type": "uint256"
				}
			],
			"name": "SupplyMinted",
			"type": "event"
		},
		{
			"constant": true,
			"inputs": [],
			"name": "DEFAULT_MINT_BUFFER",
			"outputs": [
				{
					"internalType": "uint256",
					"name": "",
					"type": "uint256"
				}
			],
			"payable": false,
			"stateMutability": "view",
			"type": "function"
		},
		{
			"constant": true,
			"inputs": [],
			"name": "DEFAULT_MINT_PERIOD_DURATION",
			"outputs": [
				{
					"internalType": "uint256",
					"name": "",
					"type": "uint256"
				}
			],
			"payable": false,
			"stateMutability": "view",
			"type": "function"
		},
		{
			"constant": true,
			"inputs": [],
			"name": "MAX_ADDRESSES_FROM_RESOLVER",
			"outputs": [
				{
					"internalType": "uint256",
					"name": "",
					"type": "uint256"
				}
			],
			"payable": false,
			"stateMutability": "view",
			"type": "function"
		},
		{
			"constant": true,
			"inputs": [],
			"name": "MAX_MINTER_REWARD",
			"outputs": [
				{
					"internalType": "uint256",
					"name": "",
					"type": "uint256"
				}
			],
			"payable": false,
			"stateMutability": "view",
			"type": "function"
		},
		{
			"constant": false,
			"inputs": [],
			"name": "acceptOwnership",
			"outputs": [],
			"payable": false,
			"stateMutability": "nonpayable",
			"type": "function"
		},
		{
			"constant": true,
			"inputs": [],
			"name": "fixedPeriodicSupply",
			"outputs": [
				{
					"internalType": "uint256",
					"name": "",
					"type": "uint256"
				}
			],
			"payable": false,
			"stateMutability": "view",
			"type": "function"
		},
		{
			"constant": true,
			"inputs": [],
			"name": "getResolverAddressesRequired",
			"outputs": [
				{
					"internalType": "bytes32[24]",
					"name": "addressesRequired",
					"type": "bytes32[24]"
				}
			],
			"payable": false,
			"stateMutability": "view",
			"type": "function"
		},
		{
			"constant": true,
			"inputs": [],
			"name": "inflationStartDate",
			"outputs": [
				{
					"internalType": "uint256",
					"name": "",
					"type": "uint256"
				}
			],
			"payable": false,
			"stateMutability": "view",
			"type": "function"
		},
		{
			"constant": true,
			"inputs": [],
			"name": "isMintable",
			"outputs": [
				{
					"internalType": "bool",
					"name": "",
					"type": "bool"
				}
			],
			"payable": false,
			"stateMutability": "view",
			"type": "function"
		},
		{
			"constant": true,
			"inputs": [
				{
					"internalType": "contract AddressResolver",
					"name": "_resolver",
					"type": "address"
				}
			],
			"name": "isResolverCached",
			"outputs": [
				{
					"internalType": "bool",
					"name": "",
					"type": "bool"
				}
			],
			"payable": false,
			"stateMutability": "view",
			"type": "function"
		},
		{
			"constant": true,
			"inputs": [],
			"name": "lastMintEvent",
			"outputs": [
				{
					"internalType": "uint256",
					"name": "",
					"type": "uint256"
				}
			],
			"payable": false,
			"stateMutability": "view",
			"type": "function"
		},
		{
			"constant": true,
			"inputs": [],
			"name": "mintBuffer",
			"outputs": [
				{
					"internalType": "uint256",
					"name": "",
					"type": "uint256"
				}
			],
			"payable": false,
			"stateMutability": "view",
			"type": "function"
		},
		{
			"constant": true,
			"inputs": [],
			"name": "mintPeriodCounter",
			"outputs": [
				{
					"internalType": "uint256",
					"name": "",
					"type": "uint256"
				}
			],
			"payable": false,
			"stateMutability": "view",
			"type": "function"
		},
		{
			"constant": true,
			"inputs": [],
			"name": "mintPeriodDuration",
			"outputs": [
				{
					"internalType": "uint256",
					"name": "",
					"type": "uint256"
				}
			],
			"payable": false,
			"stateMutability": "view",
			"type": "function"
		},
		{
			"constant": true,
			"inputs": [],
			"name": "mintableSupply",
			"outputs": [
				{
					"internalType": "uint256",
					"name": "",
					"type": "uint256"
				}
			],
			"payable": false,
			"stateMutability": "view",
			"type": "function"
		},
		{
			"constant": true,
			"inputs": [],
			"name": "minterReward",
			"outputs": [
				{
					"internalType": "uint256",
					"name": "",
					"type": "uint256"
				}
			],
			"payable": false,
			"stateMutability": "view",
			"type": "function"
		},
		{
			"constant": false,
			"inputs": [
				{
					"internalType": "address",
					"name": "_owner",
					"type": "address"
				}
			],
			"name": "nominateNewOwner",
			"outputs": [],
			"payable": false,
			"stateMutability": "nonpayable",
			"type": "function"
		},
		{
			"constant": true,
			"inputs": [],
			"name": "nominatedOwner",
			"outputs": [
				{
					"internalType": "address",
					"name": "",
					"type": "address"
				}
			],
			"payable": false,
			"stateMutability": "view",
			"type": "function"
		},
		{
			"constant": true,
			"inputs": [],
			"name": "owner",
			"outputs": [
				{
					"internalType": "address",
					"name": "",
					"type": "address"
				}
			],
			"payable": false,
			"stateMutability": "view",
			"type": "function"
		},
		{
			"constant": true,
			"inputs": [],
			"name": "periodsSinceLastIssuance",
			"outputs": [
				{
					"internalType": "uint256",
					"name": "",
					"type": "uint256"
				}
			],
			"payable": false,
			"stateMutability": "view",
			"type": "function"
		},
		{
			"constant": false,
			"inputs": [
				{
					"internalType": "uint256",
					"name": "supplyMinted",
					"type": "uint256"
				}
			],
			"name": "recordMintEvent",
			"outputs": [
				{
					"internalType": "bool",
					"name": "",
					"type": "bool"
				}
			],
			"payable": false,
			"stateMutability": "nonpayable",
			"type": "function"
		},
		{
			"constant": true,
			"inputs": [],
			"name": "resolver",
			"outputs": [
				{
					"internalType": "contract AddressResolver",
					"name": "",
					"type": "address"
				}
			],
			"payable": false,
			"stateMutability": "view",
			"type": "function"
		},
		{
			"constant": true,
			"inputs": [
				{
					"internalType": "uint256",
					"name": "",
					"type": "uint256"
				}
			],
			"name": "resolverAddressesRequired",
			"outputs": [
				{
					"internalType": "bytes32",
					"name": "",
					"type": "bytes32"
				}
			],
			"payable": false,
			"stateMutability": "view",
			"type": "function"
		},
		{
			"constant": false,
			"inputs": [
				{
					"internalType": "uint256",
					"name": "amount",
					"type": "uint256"
				}
			],
			"name": "setMinterReward",
			"outputs": [],
			"payable": false,
			"stateMutability": "nonpayable",
			"type": "function"
		},
		{
			"constant": false,
			"inputs": [
				{
					"internalType": "contract AddressResolver",
					"name": "_resolver",
					"type": "address"
				}
			],
			"name": "setResolverAndSyncCache",
			"outputs": [],
			"payable": false,
			"stateMutability": "nonpayable",
			"type": "function"
		},
		{
			"constant": true,
			"inputs": [],
			"name": "supplyEnd",
			"outputs": [
				{
					"internalType": "uint256",
					"name": "",
					"type": "uint256"
				}
			],
			"payable": false,
			"stateMutability": "view",
			"type": "function"
		}
	],
	"evm": {
		"bytecode": {
			"linkReferences": {},
			"object": "608060405262093a8060086200001462000579565b50506201518060096200002662000579565b505060405160208101604052680a6f2dce8d0cae8d2f60bb1b81526200005190600d906001620005dd565b503480156200006a57600080620000676200062b565b50505b5060405162001cc938038062001cc983398181016040526101408110156200009c57600080620000996200062b565b50505b81019080805192919060200180519291906020018051929190602001805192919060200180519291906020018051929190602001805192919060200180519291906020018051929190602001805192508a9150600d905060186103006040519081016040529190610300830182845b816200011662000698565b815260200190600101908083116200010b57508f93505050506001600160a01b038116620001955760405162461bcd60e51b815260206004820152601960248201527f4f776e657220616464726573732063616e6e6f74206265203000000000000000604482015260640160405180910390620001926200062b565b50505b806000600181620001a562000698565b816001600160a01b0302191690836001600160a01b0316021790620001c962000579565b5050507fb532073b38c83145e3e5135377a08bf9aab55bc0fd7c1179cd4fb995d2a5159c6000826040516001600160a01b039283168152911660208201526040908101905180910390a150600080806200022262000698565b906101000a90046001600160a01b03166001600160a01b031614156200028d5760405162461bcd60e51b815260206004820152601160248201527013dddb995c881b5d5cdd081899481cd95d607a1b6044820152606401604051809103906200028a6200062b565b50505b60005b60188110156200031d576000828260188110620002a957fe5b6020020151146200030e576004828260188110620002c357fe5b60200201519080600181620002d762000698565b018082620002e462000579565b50506000928352916000198301915060209020919291016200030562000579565b50505062000314565b6200031d565b60010162000290565b508160026001816200032e62000698565b816001600160a01b0302191690836001600160a01b03160217906200035262000579565b5050505050876000146200037757878060056200036e62000579565b50505062000393565b5a62000382620006e5565b8060056200038f62000579565b5050505b86156200043c576005620003a662000698565b8711620003f05760405162461bcd60e51b815260040180806020018281038252602f81526020018062001c28602f913960400191505060405180910390620003ed6200062b565b50505b600086116200043c5760405162461bcd60e51b815260040180806020018281038252602a81526020018062001c9f602a913960400191505060405180910390620004396200062b565b50505b84841115620004885760405162461bcd60e51b815260040180806020018281038252602381526020018062001c7c6023913960400191505060405180910390620004856200062b565b50505b680ad78ebc5ac6200000811115620004dd5760405162461bcd60e51b815260040180806020018281038252602581526020018062001c576025913960400191505060405180910390620004da6200062b565b50505b86806006620004eb62000579565b5050508560078190620004fd62000579565b50505082600a81906200050f62000579565b505050836000146200052d57838060096200052962000579565b5050505b84156200054657848060086200054262000579565b5050505b8180600b6200055462000579565b50505080600c81906200056662000579565b5050505050505050505050505062000759565b6322bd64c0598160e01b8152836004820152846024820152600081604483336000905af158600e01573d6000803e3d6000fd5b3d6001141558600a015760016000f35b60005b6040811015620005d857600082820152602001620005bf565b505050565b826018810192821562000619579160200282015b8281111562000619578251826200060762000579565b505091602001919060010190620005f1565b50620006279291506200072c565b5090565b632a2a7adb598160e01b8152600481016020815285602082015260005b868110156200066557808601518282016040015260200162000648565b506020828760640184336000905af158600e01573d6000803e3d6000fd5b3d6001141558600a015760016000f35b505050565b6303daa959598160e01b8152836004820152602081602483336000905af158600e01573d6000803e3d6000fd5b3d6001141558600a015760016000f35b80516000825293506020620005bf565b63bdbf8c36598160e01b8152602081600483336000905af158600e01573d6000803e3d6000fd5b3d6001141558600a015760016000f35b80516000825293506020620005bf565b6200075691905b808211156200062757600080826200074a62000579565b50505060010162000733565b90565b6114bf80620007696000396000f3fe60806040523480156100195760008061001661110f565b50505b50600436106101975760003560e01c8063957ddd82116100e7578063be801f01116100a0578063cbb74bf71161007a578063cbb74bf7146103a1578063cc5c095c146103a9578063e3235c91146103b1578063e6d7d72d146103b957610197565b8063be801f011461036b578063c4b388ca14610373578063c6c9d8281461037b57610197565b8063957ddd82146103025780639bdd7ac71461030a5780639cb081b214610312578063ab49848c1461031a578063aec383fc1461035b578063afb331851461036357610197565b80634ae265211161015457806379ba50971161012e57806379ba5097146102c45780637e7961d7146102cc5780638da5cb5b146102f25780638f3a7a49146102fa57610197565b80634ae265211461026757806353a47bb71461028d578063631e14441461029557610197565b806304f3bcec146101a55780631627540c146101c957806322af2bab146101fa57806326f75e05146102145780633be99e6f1461021c57806346b45af71461024b575b6000806101a261110f565b50505b6101ad6103c1565b6040516001600160a01b03909116815260200160405180910390f35b6101f8600480360360208110156101e8576000806101e561110f565b50505b50356001600160a01b03166103e0565b005b61020261045a565b60405190815260200160405180910390f35b610202610467565b6101f86004803603602081101561023b5760008061023861110f565b50505b50356001600160a01b0316610474565b61025361063e565b604051901515815260200160405180910390f35b6101f8600480360360208110156102865760008061028361110f565b50505b5035610673565b6101ad61071a565b610253600480360360208110156102b4576000806102b161110f565b50505b50356001600160a01b0316610726565b6101f8610902565b610253600480360360208110156102eb576000806102e861110f565b50505b5035610a85565b6101ad610bd7565b610202610be2565b610202610bec565b610202610bf6565b610202610c00565b610322610c6a565b604051808261030080838360005b83811015610348578082015183820152602001610330565b5050505090500191505060405180910390f35b610202610ccc565b610202610cd6565b610202610cdd565b610202610ce7565b6102026004803603602081101561039a5760008061039761110f565b50505b5035610cf1565b610202610d19565b610202610d23565b610202610dcf565b610202610dd4565b600060026103cd61117a565b906101000a90046001600160a01b031681565b6103e8610ddb565b80600180806103f561117a565b816001600160a01b0302191690836001600160a01b03160217906104176111d5565b5050507f906a1c6bd7e3091ea86693dd029a831c19049ce77f1dce2ce0bab1cacbabce22816040516001600160a01b03909116815260200160405180910390a150565b680ad78ebc5ac620000081565b600561047161117a565b81565b61047c610ddb565b80600260018161048a61117a565b816001600160a01b0302191690836001600160a01b03160217906104ac6111d5565b5060009150505b6004806104be61117a565b905081101561063a576000600482816104d561117a565b81106104dd57fe5b906000526020600020016104ef61117a565b9050600060026104fd61117a565b906101000a90046001600160a01b03166001600160a01b031663dacb2d01826040516001600160e01b031960e084901b1681526004810191909152604060248201819052601760448301527f5265736f6c766572206d697373696e6720746172676574000000000000000000606483015260849091019060209051808303818680610586611223565b15801561059b5760008061059861110f565b50505b505a6105a561126f565b50505050501580156105c4573d6000803e3d60006105c161110f565b50505b505050506040513d60208110156105e3576000806105e061110f565b50505b810190808051600085815260036020529093506040925090502060018161060861117a565b816001600160a01b0302191690836001600160a01b031602179061062a6111d5565b5050600190920191506104b39050565b5050565b6000600861064a61117a565b600661065461117a565b5a61065d611328565b03111561066c57506001610670565b5060005b90565b61067b610ddb565b680ad78ebc5ac62000008111156106cc5760405162461bcd60e51b815260040180806020018281038252602581526020018061144a60259139604001915050604051809103906106c961110f565b50505b8080600c6106d86111d5565b5050507f036e0c635f8b7d9314bb6f2a577046108ef0f8b5e3869fbd29fd5a448ed99d30600c61070661117a565b60405190815260200160405180910390a150565b600060016103cd61117a565b60006001600160a01b03821681600261073d61117a565b906101000a90046001600160a01b03166001600160a01b031614610763575060006108fd565b60005b60048061077161117a565b90508110156108f75760006004828161078861117a565b811061079057fe5b906000526020600020016107a261117a565b60008181526003602052909150604090206000906107be61117a565b6001600160a01b036101009290920a900416600060026107dc61117a565b906101000a90046001600160a01b03166001600160a01b03166321f8a721836040516001600160e01b031960e084901b1681526004810191909152602401602060405180830381868061082d611223565b1580156108425760008061083f61110f565b50505b505a61084c61126f565b505050505015801561086b573d6000803e3d600061086861110f565b50505b505050506040513d602081101561088a5760008061088761110f565b50505b8101908080516001600160a01b0316939093141592508291506108de9050575060008181526003602052604081206000906108c361117a565b906101000a90046001600160a01b03166001600160a01b0316145b156108ee576000925050506108fd565b50600101610766565b50600190505b919050565b6000600161090e61117a565b906101000a90046001600160a01b03166001600160a01b03165a61093061136e565b6001600160a01b03161461097e5760405162461bcd60e51b81526004018080602001828103825260358152602001806113d2603591396040019150506040518091039061097b61110f565b50505b7fb532073b38c83145e3e5135377a08bf9aab55bc0fd7c1179cd4fb995d2a5159c6000806109aa61117a565b906101000a90046001600160a01b031660016000906109c761117a565b906101000a90046001600160a01b03166040516001600160a01b039283168152911660208201526040908101905180910390a160006001610a0661117a565b906101000a90046001600160a01b03166000806101000a81610a2661117a565b816001600160a01b0302191690836001600160a01b0316021790610a486111d5565b5050506000600160006101000a81610a5e61117a565b816001600160a01b0302191690836001600160a01b0316021790610a806111d5565b505050565b6000610a8f610e55565b6001600160a01b03165a610aa161136e565b6001600160a01b031614610aef5760405162461bcd60e51b81526004018080602001828103825260438152602001806114076043913960600191505060405180910390610aec61110f565b50505b6000610af9610c00565b9050610b15816007610b0961117a565b9063ffffffff610ea516565b806007610b206111d5565b505050610b606009610b3061117a565b610b09610b566008610b4061117a565b6007610b4a61117a565b9063ffffffff610f1016565b6005610b0961117a565b806006610b6b6111d5565b5050507f601e517d4811033fed8290c79b7823ce1ab70258da45400fe2391a3c7432edab83826006610b9b61117a565b5a610ba4611328565b6040518085815260200184815260200183815260200182815260200194505050505060405180910390a150600192915050565b6000806103cd61117a565b600861047161117a565b600761047161117a565b600c61047161117a565b60008060006006610c0f61117a565b11610c3b57610c366005610c2161117a565b5a610c2a611328565b9063ffffffff610f6f16565b610c48565b610c486006610c2161117a565b9050610c646008610c5761117a565b829063ffffffff610fd416565b91505090565b610c726113b4565b60005b600480610c8061117a565b9050811015610cc85760048181610c9561117a565b8110610c9d57fe5b90600052602060002001610caf61117a565b828260188110610cbb57fe5b6020020152600101610c75565b5090565b600961047161117a565b6201518081565b600661047161117a565b600b61047161117a565b60048181610cfd61117a565b8110610d0557fe5b90600052602060002001905061047161117a565b600a61047161117a565b600080610d2e61063e565b1580610d415750600a610d3f61117a565b155b15610d50576000915050610670565b6000610d5a610c00565b905060006007610d6861117a565b90505b8115610dc757610d8281600163ffffffff610ea516565b9050600b610d8e61117a565b811015610db657610daf600a610da261117a565b849063ffffffff610ea516565b9250610dbb565b610dc7565b60001990910190610d6b565b509091505090565b601881565b62093a8081565b600080610de661117a565b906101000a90046001600160a01b03166001600160a01b03165a610e0861136e565b6001600160a01b031614610e535760405162461bcd60e51b815260040180806020018281038252602f81526020018061146f602f91396040019150506040518091039061063a61110f565b565b6000610ea0680a6f2dce8d0cae8d2f60bb1b60405160408082019052601981527f4d697373696e672053796e7468657469782061646472657373000000000000006020820152611046565b905090565b600082820183811015610f075760405162461bcd60e51b815260206004820152601b60248201527f536166654d6174683a206164646974696f6e206f766572666c6f770000000000604482015260640160405180910390610f0461110f565b50505b90505b92915050565b600082610f1f57506000610f0a565b82820282848281610f2c57fe5b0414610f075760405162461bcd60e51b815260040180806020018281038252602181526020018061149e6021913960400191505060405180910390610f0461110f565b600082821115610fce5760405162461bcd60e51b815260206004820152601e60248201527f536166654d6174683a207375627472616374696f6e206f766572666c6f770000604482015260640160405180910390610fcb61110f565b50505b50900390565b60008082116110325760405162461bcd60e51b815260206004820152601a60248201527f536166654d6174683a206469766973696f6e206279207a65726f00000000000060448201526064016040518091039061102f61110f565b50505b600082848161103d57fe5b04949350505050565b60008281526003602052806040812060009061106061117a565b6001600160a01b036101009290920a900416905082816111075760405162461bcd60e51b81526004018080602001828103825283818151815260200191508051906020019080838360005b838110156110c35780820151838201526020016110ab565b50505050905090810190601f1680156110f05780820380516001836020036101000a031916815260200191505b50925050506040518091039061110461110f565b50505b509392505050565b632a2a7adb598160e01b8152600481016020815285602082015260005b8681101561114757808601518282016040015260200161112c565b506020828760640184336000905af158600e01573d6000803e3d6000fd5b3d6001141558600a015760016000f35b505050565b6303daa959598160e01b8152836004820152602081602483336000905af158600e01573d6000803e3d6000fd5b3d6001141558600a015760016000f35b8051935060005b6040811015610a80576000828201526020016111be565b6322bd64c0598160e01b8152836004820152846024820152600081604483336000905af158600e01573d6000803e3d6000fd5b3d6001141558600a015760016000f35b6000815260206111be565b638435035b598160e01b8152836004820152602081602483336000905af158600e01573d6000803e3d6000fd5b3d6001141558600a015760016000f35b805160008252935060206111be565b638540661f598160e01b8152836004820152846024820152606060448201528660648201526084810160005b888110156112b357808801518282015260200161129b565b50876101040182016060838a6101040185336000905af158600e01573d6000803e3d6000fd5b3d6001141558600a015760016000f35b825160408401513d6000863e8c8c82606088013350600060045af15059855b8181101561131c5760008152602001611308565b50919c50505050505050565b63bdbf8c36598160e01b8152602081600483336000905af158600e01573d6000803e3d6000fd5b3d6001141558600a015760016000f35b805160008252935060206111be565b6373509064598160e01b8152602081600483336000905af158600e01573d6000803e3d6000fd5b3d6001141558600a015760016000f35b805160008252935060206111be565b60405161030080820160405260189082908038833950919291505056fe596f75206d757374206265206e6f6d696e61746564206265666f726520796f752063616e20616363657074206f776e657273686970537570706c795363686564756c653a204f6e6c79207468652073796e74686574697820636f6e74726163742063616e20706572666f726d207468697320616374696f6e5265776172642063616e277420657863656564206d6178206d696e746572207265776172644f6e6c792074686520636f6e7472616374206f776e6572206d617920706572666f726d207468697320616374696f6e536166654d6174683a206d756c7469706c69636174696f6e206f766572666c6f774d696e74206576656e742063616e27742068617070656e206265666f726520696e666c6174696f6e207374617274735265776172642063616e277420657863656564206d6178206d696e746572207265776172644275666665722063616e27742062652067726561746572207468616e20706572696f644174206c656173742061206d696e74206576656e742068617320616c7265616479206f63637572726564",
			"opcodes": "PUSH1 0x80 PUSH1 0x40 MSTORE PUSH3 0x93A80 PUSH1 0x8 PUSH3 0x14 PUSH3 0x579 JUMP JUMPDEST POP POP PUSH3 0x15180 PUSH1 0x9 PUSH3 0x26 PUSH3 0x579 JUMP JUMPDEST POP POP PUSH1 0x40 MLOAD PUSH1 0x20 DUP2 ADD PUSH1 0x40 MSTORE PUSH9 0xA6F2DCE8D0CAE8D2F PUSH1 0xBB SHL DUP2 MSTORE PUSH3 0x51 SWAP1 PUSH1 0xD SWAP1 PUSH1 0x1 PUSH3 0x5DD JUMP JUMPDEST POP CALLVALUE DUP1 ISZERO PUSH3 0x6A JUMPI PUSH1 0x0 DUP1 PUSH3 0x67 PUSH3 0x62B JUMP JUMPDEST POP POP JUMPDEST POP PUSH1 0x40 MLOAD PUSH3 0x1CC9 CODESIZE SUB DUP1 PUSH3 0x1CC9 DUP4 CODECOPY DUP2 DUP2 ADD PUSH1 0x40 MSTORE PUSH2 0x140 DUP2 LT ISZERO PUSH3 0x9C JUMPI PUSH1 0x0 DUP1 PUSH3 0x99 PUSH3 0x62B JUMP JUMPDEST POP POP JUMPDEST DUP2 ADD SWAP1 DUP1 DUP1 MLOAD SWAP3 SWAP2 SWAP1 PUSH1 0x20 ADD DUP1 MLOAD SWAP3 SWAP2 SWAP1 PUSH1 0x20 ADD DUP1 MLOAD SWAP3 SWAP2 SWAP1 PUSH1 0x20 ADD DUP1 MLOAD SWAP3 SWAP2 SWAP1 PUSH1 0x20 ADD DUP1 MLOAD SWAP3 SWAP2 SWAP1 PUSH1 0x20 ADD DUP1 MLOAD SWAP3 SWAP2 SWAP1 PUSH1 0x20 ADD DUP1 MLOAD SWAP3 SWAP2 SWAP1 PUSH1 0x20 ADD DUP1 MLOAD SWAP3 SWAP2 SWAP1 PUSH1 0x20 ADD DUP1 MLOAD SWAP3 SWAP2 SWAP1 PUSH1 0x20 ADD DUP1 MLOAD SWAP3 POP DUP11 SWAP2 POP PUSH1 0xD SWAP1 POP PUSH1 0x18 PUSH2 0x300 PUSH1 0x40 MLOAD SWAP1 DUP2 ADD PUSH1 0x40 MSTORE SWAP2 SWAP1 PUSH2 0x300 DUP4 ADD DUP3 DUP5 JUMPDEST DUP2 PUSH3 0x116 PUSH3 0x698 JUMP JUMPDEST DUP2 MSTORE PUSH1 0x20 ADD SWAP1 PUSH1 0x1 ADD SWAP1 DUP1 DUP4 GT PUSH3 0x10B JUMPI POP DUP16 SWAP4 POP POP POP POP PUSH1 0x1 PUSH1 0x1 PUSH1 0xA0 SHL SUB DUP2 AND PUSH3 0x195 JUMPI PUSH1 0x40 MLOAD PUSH3 0x461BCD PUSH1 0xE5 SHL DUP2 MSTORE PUSH1 0x20 PUSH1 0x4 DUP3 ADD MSTORE PUSH1 0x19 PUSH1 0x24 DUP3 ADD MSTORE PUSH32 0x4F776E657220616464726573732063616E6E6F74206265203000000000000000 PUSH1 0x44 DUP3 ADD MSTORE PUSH1 0x64 ADD PUSH1 0x40 MLOAD DUP1 SWAP2 SUB SWAP1 PUSH3 0x192 PUSH3 0x62B JUMP JUMPDEST POP POP JUMPDEST DUP1 PUSH1 0x0 PUSH1 0x1 DUP2 PUSH3 0x1A5 PUSH3 0x698 JUMP JUMPDEST DUP2 PUSH1 0x1 PUSH1 0x1 PUSH1 0xA0 SHL SUB MUL NOT AND SWAP1 DUP4 PUSH1 0x1 PUSH1 0x1 PUSH1 0xA0 SHL SUB AND MUL OR SWAP1 PUSH3 0x1C9 PUSH3 0x579 JUMP JUMPDEST POP POP POP PUSH32 0xB532073B38C83145E3E5135377A08BF9AAB55BC0FD7C1179CD4FB995D2A5159C PUSH1 0x0 DUP3 PUSH1 0x40 MLOAD PUSH1 0x1 PUSH1 0x1 PUSH1 0xA0 SHL SUB SWAP3 DUP4 AND DUP2 MSTORE SWAP2 AND PUSH1 0x20 DUP3 ADD MSTORE PUSH1 0x40 SWAP1 DUP2 ADD SWAP1 MLOAD DUP1 SWAP2 SUB SWAP1 LOG1 POP PUSH1 0x0 DUP1 DUP1 PUSH3 0x222 PUSH3 0x698 JUMP JUMPDEST SWAP1 PUSH2 0x100 EXP SWAP1 DIV PUSH1 0x1 PUSH1 0x1 PUSH1 0xA0 SHL SUB AND PUSH1 0x1 PUSH1 0x1 PUSH1 0xA0 SHL SUB AND EQ ISZERO PUSH3 0x28D JUMPI PUSH1 0x40 MLOAD PUSH3 0x461BCD PUSH1 0xE5 SHL DUP2 MSTORE PUSH1 0x20 PUSH1 0x4 DUP3 ADD MSTORE PUSH1 0x11 PUSH1 0x24 DUP3 ADD MSTORE PUSH17 0x13DDDB995C881B5D5CDD081899481CD95D PUSH1 0x7A SHL PUSH1 0x44 DUP3 ADD MSTORE PUSH1 0x64 ADD PUSH1 0x40 MLOAD DUP1 SWAP2 SUB SWAP1 PUSH3 0x28A PUSH3 0x62B JUMP JUMPDEST POP POP JUMPDEST PUSH1 0x0 JUMPDEST PUSH1 0x18 DUP2 LT ISZERO PUSH3 0x31D JUMPI PUSH1 0x0 DUP3 DUP3 PUSH1 0x18 DUP2 LT PUSH3 0x2A9 JUMPI INVALID JUMPDEST PUSH1 0x20 MUL ADD MLOAD EQ PUSH3 0x30E JUMPI PUSH1 0x4 DUP3 DUP3 PUSH1 0x18 DUP2 LT PUSH3 0x2C3 JUMPI INVALID JUMPDEST PUSH1 0x20 MUL ADD MLOAD SWAP1 DUP1 PUSH1 0x1 DUP2 PUSH3 0x2D7 PUSH3 0x698 JUMP JUMPDEST ADD DUP1 DUP3 PUSH3 0x2E4 PUSH3 0x579 JUMP JUMPDEST POP POP PUSH1 0x0 SWAP3 DUP4 MSTORE SWAP2 PUSH1 0x0 NOT DUP4 ADD SWAP2 POP PUSH1 0x20 SWAP1 KECCAK256 SWAP2 SWAP3 SWAP2 ADD PUSH3 0x305 PUSH3 0x579 JUMP JUMPDEST POP POP POP PUSH3 0x314 JUMP JUMPDEST PUSH3 0x31D JUMP JUMPDEST PUSH1 0x1 ADD PUSH3 0x290 JUMP JUMPDEST POP DUP2 PUSH1 0x2 PUSH1 0x1 DUP2 PUSH3 0x32E PUSH3 0x698 JUMP JUMPDEST DUP2 PUSH1 0x1 PUSH1 0x1 PUSH1 0xA0 SHL SUB MUL NOT AND SWAP1 DUP4 PUSH1 0x1 PUSH1 0x1 PUSH1 0xA0 SHL SUB AND MUL OR SWAP1 PUSH3 0x352 PUSH3 0x579 JUMP JUMPDEST POP POP POP POP POP DUP8 PUSH1 0x0 EQ PUSH3 0x377 JUMPI DUP8 DUP1 PUSH1 0x5 PUSH3 0x36E PUSH3 0x579 JUMP JUMPDEST POP POP POP PUSH3 0x393 JUMP JUMPDEST GAS PUSH3 0x382 PUSH3 0x6E5 JUMP JUMPDEST DUP1 PUSH1 0x5 PUSH3 0x38F PUSH3 0x579 JUMP JUMPDEST POP POP POP JUMPDEST DUP7 ISZERO PUSH3 0x43C JUMPI PUSH1 0x5 PUSH3 0x3A6 PUSH3 0x698 JUMP JUMPDEST DUP8 GT PUSH3 0x3F0 JUMPI PUSH1 0x40 MLOAD PUSH3 0x461BCD PUSH1 0xE5 SHL DUP2 MSTORE PUSH1 0x4 ADD DUP1 DUP1 PUSH1 0x20 ADD DUP3 DUP2 SUB DUP3 MSTORE PUSH1 0x2F DUP2 MSTORE PUSH1 0x20 ADD DUP1 PUSH3 0x1C28 PUSH1 0x2F SWAP2 CODECOPY PUSH1 0x40 ADD SWAP2 POP POP PUSH1 0x40 MLOAD DUP1 SWAP2 SUB SWAP1 PUSH3 0x3ED PUSH3 0x62B JUMP JUMPDEST POP POP JUMPDEST PUSH1 0x0 DUP7 GT PUSH3 0x43C JUMPI PUSH1 0x40 MLOAD PUSH3 0x461BCD PUSH1 0xE5 SHL DUP2 MSTORE PUSH1 0x4 ADD DUP1 DUP1 PUSH1 0x20 ADD DUP3 DUP2 SUB DUP3 MSTORE PUSH1 0x2A DUP2 MSTORE PUSH1 0x20 ADD DUP1 PUSH3 0x1C9F PUSH1 0x2A SWAP2 CODECOPY PUSH1 0x40 ADD SWAP2 POP POP PUSH1 0x40 MLOAD DUP1 SWAP2 SUB SWAP1 PUSH3 0x439 PUSH3 0x62B JUMP JUMPDEST POP POP JUMPDEST DUP5 DUP5 GT ISZERO PUSH3 0x488 JUMPI PUSH1 0x40 MLOAD PUSH3 0x461BCD PUSH1 0xE5 SHL DUP2 MSTORE PUSH1 0x4 ADD DUP1 DUP1 PUSH1 0x20 ADD DUP3 DUP2 SUB DUP3 MSTORE PUSH1 0x23 DUP2 MSTORE PUSH1 0x20 ADD DUP1 PUSH3 0x1C7C PUSH1 0x23 SWAP2 CODECOPY PUSH1 0x40 ADD SWAP2 POP POP PUSH1 0x40 MLOAD DUP1 SWAP2 SUB SWAP1 PUSH3 0x485 PUSH3 0x62B JUMP JUMPDEST POP POP JUMPDEST PUSH9 0xAD78EBC5AC6200000 DUP2 GT ISZERO PUSH3 0x4DD JUMPI PUSH1 0x40 MLOAD PUSH3 0x461BCD PUSH1 0xE5 SHL DUP2 MSTORE PUSH1 0x4 ADD DUP1 DUP1 PUSH1 0x20 ADD DUP3 DUP2 SUB DUP3 MSTORE PUSH1 0x25 DUP2 MSTORE PUSH1 0x20 ADD DUP1 PUSH3 0x1C57 PUSH1 0x25 SWAP2 CODECOPY PUSH1 0x40 ADD SWAP2 POP POP PUSH1 0x40 MLOAD DUP1 SWAP2 SUB SWAP1 PUSH3 0x4DA PUSH3 0x62B JUMP JUMPDEST POP POP JUMPDEST DUP7 DUP1 PUSH1 0x6 PUSH3 0x4EB PUSH3 0x579 JUMP JUMPDEST POP POP POP DUP6 PUSH1 0x7 DUP2 SWAP1 PUSH3 0x4FD PUSH3 0x579 JUMP JUMPDEST POP POP POP DUP3 PUSH1 0xA DUP2 SWAP1 PUSH3 0x50F PUSH3 0x579 JUMP JUMPDEST POP POP POP DUP4 PUSH1 0x0 EQ PUSH3 0x52D JUMPI DUP4 DUP1 PUSH1 0x9 PUSH3 0x529 PUSH3 0x579 JUMP JUMPDEST POP POP POP JUMPDEST DUP5 ISZERO PUSH3 0x546 JUMPI DUP5 DUP1 PUSH1 0x8 PUSH3 0x542 PUSH3 0x579 JUMP JUMPDEST POP POP POP JUMPDEST DUP2 DUP1 PUSH1 0xB PUSH3 0x554 PUSH3 0x579 JUMP JUMPDEST POP POP POP DUP1 PUSH1 0xC DUP2 SWAP1 PUSH3 0x566 PUSH3 0x579 JUMP JUMPDEST POP POP POP POP POP POP POP POP POP POP POP POP POP PUSH3 0x759 JUMP JUMPDEST PUSH4 0x22BD64C0 MSIZE DUP2 PUSH1 0xE0 SHL DUP2 MSTORE DUP4 PUSH1 0x4 DUP3 ADD MSTORE DUP5 PUSH1 0x24 DUP3 ADD MSTORE PUSH1 0x0 DUP2 PUSH1 0x44 DUP4 CALLER PUSH1 0x0 SWAP1 GAS CALL PC PUSH1 0xE ADD JUMPI RETURNDATASIZE PUSH1 0x0 DUP1 RETURNDATACOPY RETURNDATASIZE PUSH1 0x0 REVERT JUMPDEST RETURNDATASIZE PUSH1 0x1 EQ ISZERO PC PUSH1 0xA ADD JUMPI PUSH1 0x1 PUSH1 0x0 RETURN JUMPDEST PUSH1 0x0 JUMPDEST PUSH1 0x40 DUP2 LT ISZERO PUSH3 0x5D8 JUMPI PUSH1 0x0 DUP3 DUP3 ADD MSTORE PUSH1 0x20 ADD PUSH3 0x5BF JUMP JUMPDEST POP POP POP JUMP JUMPDEST DUP3 PUSH1 0x18 DUP2 ADD SWAP3 DUP3 ISZERO PUSH3 0x619 JUMPI SWAP2 PUSH1 0x20 MUL DUP3 ADD JUMPDEST DUP3 DUP2 GT ISZERO PUSH3 0x619 JUMPI DUP3 MLOAD DUP3 PUSH3 0x607 PUSH3 0x579 JUMP JUMPDEST POP POP SWAP2 PUSH1 0x20 ADD SWAP2 SWAP1 PUSH1 0x1 ADD SWAP1 PUSH3 0x5F1 JUMP JUMPDEST POP PUSH3 0x627 SWAP3 SWAP2 POP PUSH3 0x72C JUMP JUMPDEST POP SWAP1 JUMP JUMPDEST PUSH4 0x2A2A7ADB MSIZE DUP2 PUSH1 0xE0 SHL DUP2 MSTORE PUSH1 0x4 DUP2 ADD PUSH1 0x20 DUP2 MSTORE DUP6 PUSH1 0x20 DUP3 ADD MSTORE PUSH1 0x0 JUMPDEST DUP7 DUP2 LT ISZERO PUSH3 0x665 JUMPI DUP1 DUP7 ADD MLOAD DUP3 DUP3 ADD PUSH1 0x40 ADD MSTORE PUSH1 0x20 ADD PUSH3 0x648 JUMP JUMPDEST POP PUSH1 0x20 DUP3 DUP8 PUSH1 0x64 ADD DUP5 CALLER PUSH1 0x0 SWAP1 GAS CALL PC PUSH1 0xE ADD JUMPI RETURNDATASIZE PUSH1 0x0 DUP1 RETURNDATACOPY RETURNDATASIZE PUSH1 0x0 REVERT JUMPDEST RETURNDATASIZE PUSH1 0x1 EQ ISZERO PC PUSH1 0xA ADD JUMPI PUSH1 0x1 PUSH1 0x0 RETURN JUMPDEST POP POP POP JUMP JUMPDEST PUSH4 0x3DAA959 MSIZE DUP2 PUSH1 0xE0 SHL DUP2 MSTORE DUP4 PUSH1 0x4 DUP3 ADD MSTORE PUSH1 0x20 DUP2 PUSH1 0x24 DUP4 CALLER PUSH1 0x0 SWAP1 GAS CALL PC PUSH1 0xE ADD JUMPI RETURNDATASIZE PUSH1 0x0 DUP1 RETURNDATACOPY RETURNDATASIZE PUSH1 0x0 REVERT JUMPDEST RETURNDATASIZE PUSH1 0x1 EQ ISZERO PC PUSH1 0xA ADD JUMPI PUSH1 0x1 PUSH1 0x0 RETURN JUMPDEST DUP1 MLOAD PUSH1 0x0 DUP3 MSTORE SWAP4 POP PUSH1 0x20 PUSH3 0x5BF JUMP JUMPDEST PUSH4 0xBDBF8C36 MSIZE DUP2 PUSH1 0xE0 SHL DUP2 MSTORE PUSH1 0x20 DUP2 PUSH1 0x4 DUP4 CALLER PUSH1 0x0 SWAP1 GAS CALL PC PUSH1 0xE ADD JUMPI RETURNDATASIZE PUSH1 0x0 DUP1 RETURNDATACOPY RETURNDATASIZE PUSH1 0x0 REVERT JUMPDEST RETURNDATASIZE PUSH1 0x1 EQ ISZERO PC PUSH1 0xA ADD JUMPI PUSH1 0x1 PUSH1 0x0 RETURN JUMPDEST DUP1 MLOAD PUSH1 0x0 DUP3 MSTORE SWAP4 POP PUSH1 0x20 PUSH3 0x5BF JUMP JUMPDEST PUSH3 0x756 SWAP2 SWAP1 JUMPDEST DUP1 DUP3 GT ISZERO PUSH3 0x627 JUMPI PUSH1 0x0 DUP1 DUP3 PUSH3 0x74A PUSH3 0x579 JUMP JUMPDEST POP POP POP PUSH1 0x1 ADD PUSH3 0x733 JUMP JUMPDEST SWAP1 JUMP JUMPDEST PUSH2 0x14BF DUP1 PUSH3 0x769 PUSH1 0x0 CODECOPY PUSH1 0x0 RETURN INVALID PUSH1 0x80 PUSH1 0x40 MSTORE CALLVALUE DUP1 ISZERO PUSH2 0x19 JUMPI PUSH1 0x0 DUP1 PUSH2 0x16 PUSH2 0x110F JUMP JUMPDEST POP POP JUMPDEST POP PUSH1 0x4 CALLDATASIZE LT PUSH2 0x197 JUMPI PUSH1 0x0 CALLDATALOAD PUSH1 0xE0 SHR DUP1 PUSH4 0x957DDD82 GT PUSH2 0xE7 JUMPI DUP1 PUSH4 0xBE801F01 GT PUSH2 0xA0 JUMPI DUP1 PUSH4 0xCBB74BF7 GT PUSH2 0x7A JUMPI DUP1 PUSH4 0xCBB74BF7 EQ PUSH2 0x3A1 JUMPI DUP1 PUSH4 0xCC5C095C EQ PUSH2 0x3A9 JUMPI DUP1 PUSH4 0xE3235C91 EQ PUSH2 0x3B1 JUMPI DUP1 PUSH4 0xE6D7D72D EQ PUSH2 0x3B9 JUMPI PUSH2 0x197 JUMP JUMPDEST DUP1 PUSH4 0xBE801F01 EQ PUSH2 0x36B JUMPI DUP1 PUSH4 0xC4B388CA EQ PUSH2 0x373 JUMPI DUP1 PUSH4 0xC6C9D828 EQ PUSH2 0x37B JUMPI PUSH2 0x197 JUMP JUMPDEST DUP1 PUSH4 0x957DDD82 EQ PUSH2 0x302 JUMPI DUP1 PUSH4 0x9BDD7AC7 EQ PUSH2 0x30A JUMPI DUP1 PUSH4 0x9CB081B2 EQ PUSH2 0x312 JUMPI DUP1 PUSH4 0xAB49848C EQ PUSH2 0x31A JUMPI DUP1 PUSH4 0xAEC383FC EQ PUSH2 0x35B JUMPI DUP1 PUSH4 0xAFB33185 EQ PUSH2 0x363 JUMPI PUSH2 0x197 JUMP JUMPDEST DUP1 PUSH4 0x4AE26521 GT PUSH2 0x154 JUMPI DUP1 PUSH4 0x79BA5097 GT PUSH2 0x12E JUMPI DUP1 PUSH4 0x79BA5097 EQ PUSH2 0x2C4 JUMPI DUP1 PUSH4 0x7E7961D7 EQ PUSH2 0x2CC JUMPI DUP1 PUSH4 0x8DA5CB5B EQ PUSH2 0x2F2 JUMPI DUP1 PUSH4 0x8F3A7A49 EQ PUSH2 0x2FA JUMPI PUSH2 0x197 JUMP JUMPDEST DUP1 PUSH4 0x4AE26521 EQ PUSH2 0x267 JUMPI DUP1 PUSH4 0x53A47BB7 EQ PUSH2 0x28D JUMPI DUP1 PUSH4 0x631E1444 EQ PUSH2 0x295 JUMPI PUSH2 0x197 JUMP JUMPDEST DUP1 PUSH4 0x4F3BCEC EQ PUSH2 0x1A5 JUMPI DUP1 PUSH4 0x1627540C EQ PUSH2 0x1C9 JUMPI DUP1 PUSH4 0x22AF2BAB EQ PUSH2 0x1FA JUMPI DUP1 PUSH4 0x26F75E05 EQ PUSH2 0x214 JUMPI DUP1 PUSH4 0x3BE99E6F EQ PUSH2 0x21C JUMPI DUP1 PUSH4 0x46B45AF7 EQ PUSH2 0x24B JUMPI JUMPDEST PUSH1 0x0 DUP1 PUSH2 0x1A2 PUSH2 0x110F JUMP JUMPDEST POP POP JUMPDEST PUSH2 0x1AD PUSH2 0x3C1 JUMP JUMPDEST PUSH1 0x40 MLOAD PUSH1 0x1 PUSH1 0x1 PUSH1 0xA0 SHL SUB SWAP1 SWAP2 AND DUP2 MSTORE PUSH1 0x20 ADD PUSH1 0x40 MLOAD DUP1 SWAP2 SUB SWAP1 RETURN JUMPDEST PUSH2 0x1F8 PUSH1 0x4 DUP1 CALLDATASIZE SUB PUSH1 0x20 DUP2 LT ISZERO PUSH2 0x1E8 JUMPI PUSH1 0x0 DUP1 PUSH2 0x1E5 PUSH2 0x110F JUMP JUMPDEST POP POP JUMPDEST POP CALLDATALOAD PUSH1 0x1 PUSH1 0x1 PUSH1 0xA0 SHL SUB AND PUSH2 0x3E0 JUMP JUMPDEST STOP JUMPDEST PUSH2 0x202 PUSH2 0x45A JUMP JUMPDEST PUSH1 0x40 MLOAD SWAP1 DUP2 MSTORE PUSH1 0x20 ADD PUSH1 0x40 MLOAD DUP1 SWAP2 SUB SWAP1 RETURN JUMPDEST PUSH2 0x202 PUSH2 0x467 JUMP JUMPDEST PUSH2 0x1F8 PUSH1 0x4 DUP1 CALLDATASIZE SUB PUSH1 0x20 DUP2 LT ISZERO PUSH2 0x23B JUMPI PUSH1 0x0 DUP1 PUSH2 0x238 PUSH2 0x110F JUMP JUMPDEST POP POP JUMPDEST POP CALLDATALOAD PUSH1 0x1 PUSH1 0x1 PUSH1 0xA0 SHL SUB AND PUSH2 0x474 JUMP JUMPDEST PUSH2 0x253 PUSH2 0x63E JUMP JUMPDEST PUSH1 0x40 MLOAD SWAP1 ISZERO ISZERO DUP2 MSTORE PUSH1 0x20 ADD PUSH1 0x40 MLOAD DUP1 SWAP2 SUB SWAP1 RETURN JUMPDEST PUSH2 0x1F8 PUSH1 0x4 DUP1 CALLDATASIZE SUB PUSH1 0x20 DUP2 LT ISZERO PUSH2 0x286 JUMPI PUSH1 0x0 DUP1 PUSH2 0x283 PUSH2 0x110F JUMP JUMPDEST POP POP JUMPDEST POP CALLDATALOAD PUSH2 0x673 JUMP JUMPDEST PUSH2 0x1AD PUSH2 0x71A JUMP JUMPDEST PUSH2 0x253 PUSH1 0x4 DUP1 CALLDATASIZE SUB PUSH1 0x20 DUP2 LT ISZERO PUSH2 0x2B4 JUMPI PUSH1 0x0 DUP1 PUSH2 0x2B1 PUSH2 0x110F JUMP JUMPDEST POP POP JUMPDEST POP CALLDATALOAD PUSH1 0x1 PUSH1 0x1 PUSH1 0xA0 SHL SUB AND PUSH2 0x726 JUMP JUMPDEST PUSH2 0x1F8 PUSH2 0x902 JUMP JUMPDEST PUSH2 0x253 PUSH1 0x4 DUP1 CALLDATASIZE SUB PUSH1 0x20 DUP2 LT ISZERO PUSH2 0x2EB JUMPI PUSH1 0x0 DUP1 PUSH2 0x2E8 PUSH2 0x110F JUMP JUMPDEST POP POP JUMPDEST POP CALLDATALOAD PUSH2 0xA85 JUMP JUMPDEST PUSH2 0x1AD PUSH2 0xBD7 JUMP JUMPDEST PUSH2 0x202 PUSH2 0xBE2 JUMP JUMPDEST PUSH2 0x202 PUSH2 0xBEC JUMP JUMPDEST PUSH2 0x202 PUSH2 0xBF6 JUMP JUMPDEST PUSH2 0x202 PUSH2 0xC00 JUMP JUMPDEST PUSH2 0x322 PUSH2 0xC6A JUMP JUMPDEST PUSH1 0x40 MLOAD DUP1 DUP3 PUSH2 0x300 DUP1 DUP4 DUP4 PUSH1 0x0 JUMPDEST DUP4 DUP2 LT ISZERO PUSH2 0x348 JUMPI DUP1 DUP3 ADD MLOAD DUP4 DUP3 ADD MSTORE PUSH1 0x20 ADD PUSH2 0x330 JUMP JUMPDEST POP POP POP POP SWAP1 POP ADD SWAP2 POP POP PUSH1 0x40 MLOAD DUP1 SWAP2 SUB SWAP1 RETURN JUMPDEST PUSH2 0x202 PUSH2 0xCCC JUMP JUMPDEST PUSH2 0x202 PUSH2 0xCD6 JUMP JUMPDEST PUSH2 0x202 PUSH2 0xCDD JUMP JUMPDEST PUSH2 0x202 PUSH2 0xCE7 JUMP JUMPDEST PUSH2 0x202 PUSH1 0x4 DUP1 CALLDATASIZE SUB PUSH1 0x20 DUP2 LT ISZERO PUSH2 0x39A JUMPI PUSH1 0x0 DUP1 PUSH2 0x397 PUSH2 0x110F JUMP JUMPDEST POP POP JUMPDEST POP CALLDATALOAD PUSH2 0xCF1 JUMP JUMPDEST PUSH2 0x202 PUSH2 0xD19 JUMP JUMPDEST PUSH2 0x202 PUSH2 0xD23 JUMP JUMPDEST PUSH2 0x202 PUSH2 0xDCF JUMP JUMPDEST PUSH2 0x202 PUSH2 0xDD4 JUMP JUMPDEST PUSH1 0x0 PUSH1 0x2 PUSH2 0x3CD PUSH2 0x117A JUMP JUMPDEST SWAP1 PUSH2 0x100 EXP SWAP1 DIV PUSH1 0x1 PUSH1 0x1 PUSH1 0xA0 SHL SUB AND DUP2 JUMP JUMPDEST PUSH2 0x3E8 PUSH2 0xDDB JUMP JUMPDEST DUP1 PUSH1 0x1 DUP1 DUP1 PUSH2 0x3F5 PUSH2 0x117A JUMP JUMPDEST DUP2 PUSH1 0x1 PUSH1 0x1 PUSH1 0xA0 SHL SUB MUL NOT AND SWAP1 DUP4 PUSH1 0x1 PUSH1 0x1 PUSH1 0xA0 SHL SUB AND MUL OR SWAP1 PUSH2 0x417 PUSH2 0x11D5 JUMP JUMPDEST POP POP POP PUSH32 0x906A1C6BD7E3091EA86693DD029A831C19049CE77F1DCE2CE0BAB1CACBABCE22 DUP2 PUSH1 0x40 MLOAD PUSH1 0x1 PUSH1 0x1 PUSH1 0xA0 SHL SUB SWAP1 SWAP2 AND DUP2 MSTORE PUSH1 0x20 ADD PUSH1 0x40 MLOAD DUP1 SWAP2 SUB SWAP1 LOG1 POP JUMP JUMPDEST PUSH9 0xAD78EBC5AC6200000 DUP2 JUMP JUMPDEST PUSH1 0x5 PUSH2 0x471 PUSH2 0x117A JUMP JUMPDEST DUP2 JUMP JUMPDEST PUSH2 0x47C PUSH2 0xDDB JUMP JUMPDEST DUP1 PUSH1 0x2 PUSH1 0x1 DUP2 PUSH2 0x48A PUSH2 0x117A JUMP JUMPDEST DUP2 PUSH1 0x1 PUSH1 0x1 PUSH1 0xA0 SHL SUB MUL NOT AND SWAP1 DUP4 PUSH1 0x1 PUSH1 0x1 PUSH1 0xA0 SHL SUB AND MUL OR SWAP1 PUSH2 0x4AC PUSH2 0x11D5 JUMP JUMPDEST POP PUSH1 0x0 SWAP2 POP POP JUMPDEST PUSH1 0x4 DUP1 PUSH2 0x4BE PUSH2 0x117A JUMP JUMPDEST SWAP1 POP DUP2 LT ISZERO PUSH2 0x63A JUMPI PUSH1 0x0 PUSH1 0x4 DUP3 DUP2 PUSH2 0x4D5 PUSH2 0x117A JUMP JUMPDEST DUP2 LT PUSH2 0x4DD JUMPI INVALID JUMPDEST SWAP1 PUSH1 0x0 MSTORE PUSH1 0x20 PUSH1 0x0 KECCAK256 ADD PUSH2 0x4EF PUSH2 0x117A JUMP JUMPDEST SWAP1 POP PUSH1 0x0 PUSH1 0x2 PUSH2 0x4FD PUSH2 0x117A JUMP JUMPDEST SWAP1 PUSH2 0x100 EXP SWAP1 DIV PUSH1 0x1 PUSH1 0x1 PUSH1 0xA0 SHL SUB AND PUSH1 0x1 PUSH1 0x1 PUSH1 0xA0 SHL SUB AND PUSH4 0xDACB2D01 DUP3 PUSH1 0x40 MLOAD PUSH1 0x1 PUSH1 0x1 PUSH1 0xE0 SHL SUB NOT PUSH1 0xE0 DUP5 SWAP1 SHL AND DUP2 MSTORE PUSH1 0x4 DUP2 ADD SWAP2 SWAP1 SWAP2 MSTORE PUSH1 0x40 PUSH1 0x24 DUP3 ADD DUP2 SWAP1 MSTORE PUSH1 0x17 PUSH1 0x44 DUP4 ADD MSTORE PUSH32 0x5265736F6C766572206D697373696E6720746172676574000000000000000000 PUSH1 0x64 DUP4 ADD MSTORE PUSH1 0x84 SWAP1 SWAP2 ADD SWAP1 PUSH1 0x20 SWAP1 MLOAD DUP1 DUP4 SUB DUP2 DUP7 DUP1 PUSH2 0x586 PUSH2 0x1223 JUMP JUMPDEST ISZERO DUP1 ISZERO PUSH2 0x59B JUMPI PUSH1 0x0 DUP1 PUSH2 0x598 PUSH2 0x110F JUMP JUMPDEST POP POP JUMPDEST POP GAS PUSH2 0x5A5 PUSH2 0x126F JUMP JUMPDEST POP POP POP POP POP ISZERO DUP1 ISZERO PUSH2 0x5C4 JUMPI RETURNDATASIZE PUSH1 0x0 DUP1 RETURNDATACOPY RETURNDATASIZE PUSH1 0x0 PUSH2 0x5C1 PUSH2 0x110F JUMP JUMPDEST POP POP JUMPDEST POP POP POP POP PUSH1 0x40 MLOAD RETURNDATASIZE PUSH1 0x20 DUP2 LT ISZERO PUSH2 0x5E3 JUMPI PUSH1 0x0 DUP1 PUSH2 0x5E0 PUSH2 0x110F JUMP JUMPDEST POP POP JUMPDEST DUP2 ADD SWAP1 DUP1 DUP1 MLOAD PUSH1 0x0 DUP6 DUP2 MSTORE PUSH1 0x3 PUSH1 0x20 MSTORE SWAP1 SWAP4 POP PUSH1 0x40 SWAP3 POP SWAP1 POP KECCAK256 PUSH1 0x1 DUP2 PUSH2 0x608 PUSH2 0x117A JUMP JUMPDEST DUP2 PUSH1 0x1 PUSH1 0x1 PUSH1 0xA0 SHL SUB MUL NOT AND SWAP1 DUP4 PUSH1 0x1 PUSH1 0x1 PUSH1 0xA0 SHL SUB AND MUL OR SWAP1 PUSH2 0x62A PUSH2 0x11D5 JUMP JUMPDEST POP POP PUSH1 0x1 SWAP1 SWAP3 ADD SWAP2 POP PUSH2 0x4B3 SWAP1 POP JUMP JUMPDEST POP POP JUMP JUMPDEST PUSH1 0x0 PUSH1 0x8 PUSH2 0x64A PUSH2 0x117A JUMP JUMPDEST PUSH1 0x6 PUSH2 0x654 PUSH2 0x117A JUMP JUMPDEST GAS PUSH2 0x65D PUSH2 0x1328 JUMP JUMPDEST SUB GT ISZERO PUSH2 0x66C JUMPI POP PUSH1 0x1 PUSH2 0x670 JUMP JUMPDEST POP PUSH1 0x0 JUMPDEST SWAP1 JUMP JUMPDEST PUSH2 0x67B PUSH2 0xDDB JUMP JUMPDEST PUSH9 0xAD78EBC5AC6200000 DUP2 GT ISZERO PUSH2 0x6CC JUMPI PUSH1 0x40 MLOAD PUSH3 0x461BCD PUSH1 0xE5 SHL DUP2 MSTORE PUSH1 0x4 ADD DUP1 DUP1 PUSH1 0x20 ADD DUP3 DUP2 SUB DUP3 MSTORE PUSH1 0x25 DUP2 MSTORE PUSH1 0x20 ADD DUP1 PUSH2 0x144A PUSH1 0x25 SWAP2 CODECOPY PUSH1 0x40 ADD SWAP2 POP POP PUSH1 0x40 MLOAD DUP1 SWAP2 SUB SWAP1 PUSH2 0x6C9 PUSH2 0x110F JUMP JUMPDEST POP POP JUMPDEST DUP1 DUP1 PUSH1 0xC PUSH2 0x6D8 PUSH2 0x11D5 JUMP JUMPDEST POP POP POP PUSH32 0x36E0C635F8B7D9314BB6F2A577046108EF0F8B5E3869FBD29FD5A448ED99D30 PUSH1 0xC PUSH2 0x706 PUSH2 0x117A JUMP JUMPDEST PUSH1 0x40 MLOAD SWAP1 DUP2 MSTORE PUSH1 0x20 ADD PUSH1 0x40 MLOAD DUP1 SWAP2 SUB SWAP1 LOG1 POP JUMP JUMPDEST PUSH1 0x0 PUSH1 0x1 PUSH2 0x3CD PUSH2 0x117A JUMP JUMPDEST PUSH1 0x0 PUSH1 0x1 PUSH1 0x1 PUSH1 0xA0 SHL SUB DUP3 AND DUP2 PUSH1 0x2 PUSH2 0x73D PUSH2 0x117A JUMP JUMPDEST SWAP1 PUSH2 0x100 EXP SWAP1 DIV PUSH1 0x1 PUSH1 0x1 PUSH1 0xA0 SHL SUB AND PUSH1 0x1 PUSH1 0x1 PUSH1 0xA0 SHL SUB AND EQ PUSH2 0x763 JUMPI POP PUSH1 0x0 PUSH2 0x8FD JUMP JUMPDEST PUSH1 0x0 JUMPDEST PUSH1 0x4 DUP1 PUSH2 0x771 PUSH2 0x117A JUMP JUMPDEST SWAP1 POP DUP2 LT ISZERO PUSH2 0x8F7 JUMPI PUSH1 0x0 PUSH1 0x4 DUP3 DUP2 PUSH2 0x788 PUSH2 0x117A JUMP JUMPDEST DUP2 LT PUSH2 0x790 JUMPI INVALID JUMPDEST SWAP1 PUSH1 0x0 MSTORE PUSH1 0x20 PUSH1 0x0 KECCAK256 ADD PUSH2 0x7A2 PUSH2 0x117A JUMP JUMPDEST PUSH1 0x0 DUP2 DUP2 MSTORE PUSH1 0x3 PUSH1 0x20 MSTORE SWAP1 SWAP2 POP PUSH1 0x40 SWAP1 KECCAK256 PUSH1 0x0 SWAP1 PUSH2 0x7BE PUSH2 0x117A JUMP JUMPDEST PUSH1 0x1 PUSH1 0x1 PUSH1 0xA0 SHL SUB PUSH2 0x100 SWAP3 SWAP1 SWAP3 EXP SWAP1 DIV AND PUSH1 0x0 PUSH1 0x2 PUSH2 0x7DC PUSH2 0x117A JUMP JUMPDEST SWAP1 PUSH2 0x100 EXP SWAP1 DIV PUSH1 0x1 PUSH1 0x1 PUSH1 0xA0 SHL SUB AND PUSH1 0x1 PUSH1 0x1 PUSH1 0xA0 SHL SUB AND PUSH4 0x21F8A721 DUP4 PUSH1 0x40 MLOAD PUSH1 0x1 PUSH1 0x1 PUSH1 0xE0 SHL SUB NOT PUSH1 0xE0 DUP5 SWAP1 SHL AND DUP2 MSTORE PUSH1 0x4 DUP2 ADD SWAP2 SWAP1 SWAP2 MSTORE PUSH1 0x24 ADD PUSH1 0x20 PUSH1 0x40 MLOAD DUP1 DUP4 SUB DUP2 DUP7 DUP1 PUSH2 0x82D PUSH2 0x1223 JUMP JUMPDEST ISZERO DUP1 ISZERO PUSH2 0x842 JUMPI PUSH1 0x0 DUP1 PUSH2 0x83F PUSH2 0x110F JUMP JUMPDEST POP POP JUMPDEST POP GAS PUSH2 0x84C PUSH2 0x126F JUMP JUMPDEST POP POP POP POP POP ISZERO DUP1 ISZERO PUSH2 0x86B JUMPI RETURNDATASIZE PUSH1 0x0 DUP1 RETURNDATACOPY RETURNDATASIZE PUSH1 0x0 PUSH2 0x868 PUSH2 0x110F JUMP JUMPDEST POP POP JUMPDEST POP POP POP POP PUSH1 0x40 MLOAD RETURNDATASIZE PUSH1 0x20 DUP2 LT ISZERO PUSH2 0x88A JUMPI PUSH1 0x0 DUP1 PUSH2 0x887 PUSH2 0x110F JUMP JUMPDEST POP POP JUMPDEST DUP2 ADD SWAP1 DUP1 DUP1 MLOAD PUSH1 0x1 PUSH1 0x1 PUSH1 0xA0 SHL SUB AND SWAP4 SWAP1 SWAP4 EQ ISZERO SWAP3 POP DUP3 SWAP2 POP PUSH2 0x8DE SWAP1 POP JUMPI POP PUSH1 0x0 DUP2 DUP2 MSTORE PUSH1 0x3 PUSH1 0x20 MSTORE PUSH1 0x40 DUP2 KECCAK256 PUSH1 0x0 SWAP1 PUSH2 0x8C3 PUSH2 0x117A JUMP JUMPDEST SWAP1 PUSH2 0x100 EXP SWAP1 DIV PUSH1 0x1 PUSH1 0x1 PUSH1 0xA0 SHL SUB AND PUSH1 0x1 PUSH1 0x1 PUSH1 0xA0 SHL SUB AND EQ JUMPDEST ISZERO PUSH2 0x8EE JUMPI PUSH1 0x0 SWAP3 POP POP POP PUSH2 0x8FD JUMP JUMPDEST POP PUSH1 0x1 ADD PUSH2 0x766 JUMP JUMPDEST POP PUSH1 0x1 SWAP1 POP JUMPDEST SWAP2 SWAP1 POP JUMP JUMPDEST PUSH1 0x0 PUSH1 0x1 PUSH2 0x90E PUSH2 0x117A JUMP JUMPDEST SWAP1 PUSH2 0x100 EXP SWAP1 DIV PUSH1 0x1 PUSH1 0x1 PUSH1 0xA0 SHL SUB AND PUSH1 0x1 PUSH1 0x1 PUSH1 0xA0 SHL SUB AND GAS PUSH2 0x930 PUSH2 0x136E JUMP JUMPDEST PUSH1 0x1 PUSH1 0x1 PUSH1 0xA0 SHL SUB AND EQ PUSH2 0x97E JUMPI PUSH1 0x40 MLOAD PUSH3 0x461BCD PUSH1 0xE5 SHL DUP2 MSTORE PUSH1 0x4 ADD DUP1 DUP1 PUSH1 0x20 ADD DUP3 DUP2 SUB DUP3 MSTORE PUSH1 0x35 DUP2 MSTORE PUSH1 0x20 ADD DUP1 PUSH2 0x13D2 PUSH1 0x35 SWAP2 CODECOPY PUSH1 0x40 ADD SWAP2 POP POP PUSH1 0x40 MLOAD DUP1 SWAP2 SUB SWAP1 PUSH2 0x97B PUSH2 0x110F JUMP JUMPDEST POP POP JUMPDEST PUSH32 0xB532073B38C83145E3E5135377A08BF9AAB55BC0FD7C1179CD4FB995D2A5159C PUSH1 0x0 DUP1 PUSH2 0x9AA PUSH2 0x117A JUMP JUMPDEST SWAP1 PUSH2 0x100 EXP SWAP1 DIV PUSH1 0x1 PUSH1 0x1 PUSH1 0xA0 SHL SUB AND PUSH1 0x1 PUSH1 0x0 SWAP1 PUSH2 0x9C7 PUSH2 0x117A JUMP JUMPDEST SWAP1 PUSH2 0x100 EXP SWAP1 DIV PUSH1 0x1 PUSH1 0x1 PUSH1 0xA0 SHL SUB AND PUSH1 0x40 MLOAD PUSH1 0x1 PUSH1 0x1 PUSH1 0xA0 SHL SUB SWAP3 DUP4 AND DUP2 MSTORE SWAP2 AND PUSH1 0x20 DUP3 ADD MSTORE PUSH1 0x40 SWAP1 DUP2 ADD SWAP1 MLOAD DUP1 SWAP2 SUB SWAP1 LOG1 PUSH1 0x0 PUSH1 0x1 PUSH2 0xA06 PUSH2 0x117A JUMP JUMPDEST SWAP1 PUSH2 0x100 EXP SWAP1 DIV PUSH1 0x1 PUSH1 0x1 PUSH1 0xA0 SHL SUB AND PUSH1 0x0 DUP1 PUSH2 0x100 EXP DUP2 PUSH2 0xA26 PUSH2 0x117A JUMP JUMPDEST DUP2 PUSH1 0x1 PUSH1 0x1 PUSH1 0xA0 SHL SUB MUL NOT AND SWAP1 DUP4 PUSH1 0x1 PUSH1 0x1 PUSH1 0xA0 SHL SUB AND MUL OR SWAP1 PUSH2 0xA48 PUSH2 0x11D5 JUMP JUMPDEST POP POP POP PUSH1 0x0 PUSH1 0x1 PUSH1 0x0 PUSH2 0x100 EXP DUP2 PUSH2 0xA5E PUSH2 0x117A JUMP JUMPDEST DUP2 PUSH1 0x1 PUSH1 0x1 PUSH1 0xA0 SHL SUB MUL NOT AND SWAP1 DUP4 PUSH1 0x1 PUSH1 0x1 PUSH1 0xA0 SHL SUB AND MUL OR SWAP1 PUSH2 0xA80 PUSH2 0x11D5 JUMP JUMPDEST POP POP POP JUMP JUMPDEST PUSH1 0x0 PUSH2 0xA8F PUSH2 0xE55 JUMP JUMPDEST PUSH1 0x1 PUSH1 0x1 PUSH1 0xA0 SHL SUB AND GAS PUSH2 0xAA1 PUSH2 0x136E JUMP JUMPDEST PUSH1 0x1 PUSH1 0x1 PUSH1 0xA0 SHL SUB AND EQ PUSH2 0xAEF JUMPI PUSH1 0x40 MLOAD PUSH3 0x461BCD PUSH1 0xE5 SHL DUP2 MSTORE PUSH1 0x4 ADD DUP1 DUP1 PUSH1 0x20 ADD DUP3 DUP2 SUB DUP3 MSTORE PUSH1 0x43 DUP2 MSTORE PUSH1 0x20 ADD DUP1 PUSH2 0x1407 PUSH1 0x43 SWAP2 CODECOPY PUSH1 0x60 ADD SWAP2 POP POP PUSH1 0x40 MLOAD DUP1 SWAP2 SUB SWAP1 PUSH2 0xAEC PUSH2 0x110F JUMP JUMPDEST POP POP JUMPDEST PUSH1 0x0 PUSH2 0xAF9 PUSH2 0xC00 JUMP JUMPDEST SWAP1 POP PUSH2 0xB15 DUP2 PUSH1 0x7 PUSH2 0xB09 PUSH2 0x117A JUMP JUMPDEST SWAP1 PUSH4 0xFFFFFFFF PUSH2 0xEA5 AND JUMP JUMPDEST DUP1 PUSH1 0x7 PUSH2 0xB20 PUSH2 0x11D5 JUMP JUMPDEST POP POP POP PUSH2 0xB60 PUSH1 0x9 PUSH2 0xB30 PUSH2 0x117A JUMP JUMPDEST PUSH2 0xB09 PUSH2 0xB56 PUSH1 0x8 PUSH2 0xB40 PUSH2 0x117A JUMP JUMPDEST PUSH1 0x7 PUSH2 0xB4A PUSH2 0x117A JUMP JUMPDEST SWAP1 PUSH4 0xFFFFFFFF PUSH2 0xF10 AND JUMP JUMPDEST PUSH1 0x5 PUSH2 0xB09 PUSH2 0x117A JUMP JUMPDEST DUP1 PUSH1 0x6 PUSH2 0xB6B PUSH2 0x11D5 JUMP JUMPDEST POP POP POP PUSH32 0x601E517D4811033FED8290C79B7823CE1AB70258DA45400FE2391A3C7432EDAB DUP4 DUP3 PUSH1 0x6 PUSH2 0xB9B PUSH2 0x117A JUMP JUMPDEST GAS PUSH2 0xBA4 PUSH2 0x1328 JUMP JUMPDEST PUSH1 0x40 MLOAD DUP1 DUP6 DUP2 MSTORE PUSH1 0x20 ADD DUP5 DUP2 MSTORE PUSH1 0x20 ADD DUP4 DUP2 MSTORE PUSH1 0x20 ADD DUP3 DUP2 MSTORE PUSH1 0x20 ADD SWAP5 POP POP POP POP POP PUSH1 0x40 MLOAD DUP1 SWAP2 SUB SWAP1 LOG1 POP PUSH1 0x1 SWAP3 SWAP2 POP POP JUMP JUMPDEST PUSH1 0x0 DUP1 PUSH2 0x3CD PUSH2 0x117A JUMP JUMPDEST PUSH1 0x8 PUSH2 0x471 PUSH2 0x117A JUMP JUMPDEST PUSH1 0x7 PUSH2 0x471 PUSH2 0x117A JUMP JUMPDEST PUSH1 0xC PUSH2 0x471 PUSH2 0x117A JUMP JUMPDEST PUSH1 0x0 DUP1 PUSH1 0x0 PUSH1 0x6 PUSH2 0xC0F PUSH2 0x117A JUMP JUMPDEST GT PUSH2 0xC3B JUMPI PUSH2 0xC36 PUSH1 0x5 PUSH2 0xC21 PUSH2 0x117A JUMP JUMPDEST GAS PUSH2 0xC2A PUSH2 0x1328 JUMP JUMPDEST SWAP1 PUSH4 0xFFFFFFFF PUSH2 0xF6F AND JUMP JUMPDEST PUSH2 0xC48 JUMP JUMPDEST PUSH2 0xC48 PUSH1 0x6 PUSH2 0xC21 PUSH2 0x117A JUMP JUMPDEST SWAP1 POP PUSH2 0xC64 PUSH1 0x8 PUSH2 0xC57 PUSH2 0x117A JUMP JUMPDEST DUP3 SWAP1 PUSH4 0xFFFFFFFF PUSH2 0xFD4 AND JUMP JUMPDEST SWAP2 POP POP SWAP1 JUMP JUMPDEST PUSH2 0xC72 PUSH2 0x13B4 JUMP JUMPDEST PUSH1 0x0 JUMPDEST PUSH1 0x4 DUP1 PUSH2 0xC80 PUSH2 0x117A JUMP JUMPDEST SWAP1 POP DUP2 LT ISZERO PUSH2 0xCC8 JUMPI PUSH1 0x4 DUP2 DUP2 PUSH2 0xC95 PUSH2 0x117A JUMP JUMPDEST DUP2 LT PUSH2 0xC9D JUMPI INVALID JUMPDEST SWAP1 PUSH1 0x0 MSTORE PUSH1 0x20 PUSH1 0x0 KECCAK256 ADD PUSH2 0xCAF PUSH2 0x117A JUMP JUMPDEST DUP3 DUP3 PUSH1 0x18 DUP2 LT PUSH2 0xCBB JUMPI INVALID JUMPDEST PUSH1 0x20 MUL ADD MSTORE PUSH1 0x1 ADD PUSH2 0xC75 JUMP JUMPDEST POP SWAP1 JUMP JUMPDEST PUSH1 0x9 PUSH2 0x471 PUSH2 0x117A JUMP JUMPDEST PUSH3 0x15180 DUP2 JUMP JUMPDEST PUSH1 0x6 PUSH2 0x471 PUSH2 0x117A JUMP JUMPDEST PUSH1 0xB PUSH2 0x471 PUSH2 0x117A JUMP JUMPDEST PUSH1 0x4 DUP2 DUP2 PUSH2 0xCFD PUSH2 0x117A JUMP JUMPDEST DUP2 LT PUSH2 0xD05 JUMPI INVALID JUMPDEST SWAP1 PUSH1 0x0 MSTORE PUSH1 0x20 PUSH1 0x0 KECCAK256 ADD SWAP1 POP PUSH2 0x471 PUSH2 0x117A JUMP JUMPDEST PUSH1 0xA PUSH2 0x471 PUSH2 0x117A JUMP JUMPDEST PUSH1 0x0 DUP1 PUSH2 0xD2E PUSH2 0x63E JUMP JUMPDEST ISZERO DUP1 PUSH2 0xD41 JUMPI POP PUSH1 0xA PUSH2 0xD3F PUSH2 0x117A JUMP JUMPDEST ISZERO JUMPDEST ISZERO PUSH2 0xD50 JUMPI PUSH1 0x0 SWAP2 POP POP PUSH2 0x670 JUMP JUMPDEST PUSH1 0x0 PUSH2 0xD5A PUSH2 0xC00 JUMP JUMPDEST SWAP1 POP PUSH1 0x0 PUSH1 0x7 PUSH2 0xD68 PUSH2 0x117A JUMP JUMPDEST SWAP1 POP JUMPDEST DUP2 ISZERO PUSH2 0xDC7 JUMPI PUSH2 0xD82 DUP2 PUSH1 0x1 PUSH4 0xFFFFFFFF PUSH2 0xEA5 AND JUMP JUMPDEST SWAP1 POP PUSH1 0xB PUSH2 0xD8E PUSH2 0x117A JUMP JUMPDEST DUP2 LT ISZERO PUSH2 0xDB6 JUMPI PUSH2 0xDAF PUSH1 0xA PUSH2 0xDA2 PUSH2 0x117A JUMP JUMPDEST DUP5 SWAP1 PUSH4 0xFFFFFFFF PUSH2 0xEA5 AND JUMP JUMPDEST SWAP3 POP PUSH2 0xDBB JUMP JUMPDEST PUSH2 0xDC7 JUMP JUMPDEST PUSH1 0x0 NOT SWAP1 SWAP2 ADD SWAP1 PUSH2 0xD6B JUMP JUMPDEST POP SWAP1 SWAP2 POP POP SWAP1 JUMP JUMPDEST PUSH1 0x18 DUP2 JUMP JUMPDEST PUSH3 0x93A80 DUP2 JUMP JUMPDEST PUSH1 0x0 DUP1 PUSH2 0xDE6 PUSH2 0x117A JUMP JUMPDEST SWAP1 PUSH2 0x100 EXP SWAP1 DIV PUSH1 0x1 PUSH1 0x1 PUSH1 0xA0 SHL SUB AND PUSH1 0x1 PUSH1 0x1 PUSH1 0xA0 SHL SUB AND GAS PUSH2 0xE08 PUSH2 0x136E JUMP JUMPDEST PUSH1 0x1 PUSH1 0x1 PUSH1 0xA0 SHL SUB AND EQ PUSH2 0xE53 JUMPI PUSH1 0x40 MLOAD PUSH3 0x461BCD PUSH1 0xE5 SHL DUP2 MSTORE PUSH1 0x4 ADD DUP1 DUP1 PUSH1 0x20 ADD DUP3 DUP2 SUB DUP3 MSTORE PUSH1 0x2F DUP2 MSTORE PUSH1 0x20 ADD DUP1 PUSH2 0x146F PUSH1 0x2F SWAP2 CODECOPY PUSH1 0x40 ADD SWAP2 POP POP PUSH1 0x40 MLOAD DUP1 SWAP2 SUB SWAP1 PUSH2 0x63A PUSH2 0x110F JUMP JUMPDEST JUMP JUMPDEST PUSH1 0x0 PUSH2 0xEA0 PUSH9 0xA6F2DCE8D0CAE8D2F PUSH1 0xBB SHL PUSH1 0x40 MLOAD PUSH1 0x40 DUP1 DUP3 ADD SWAP1 MSTORE PUSH1 0x19 DUP2 MSTORE PUSH32 0x4D697373696E672053796E746865746978206164647265737300000000000000 PUSH1 0x20 DUP3 ADD MSTORE PUSH2 0x1046 JUMP JUMPDEST SWAP1 POP SWAP1 JUMP JUMPDEST PUSH1 0x0 DUP3 DUP3 ADD DUP4 DUP2 LT ISZERO PUSH2 0xF07 JUMPI PUSH1 0x40 MLOAD PUSH3 0x461BCD PUSH1 0xE5 SHL DUP2 MSTORE PUSH1 0x20 PUSH1 0x4 DUP3 ADD MSTORE PUSH1 0x1B PUSH1 0x24 DUP3 ADD MSTORE PUSH32 0x536166654D6174683A206164646974696F6E206F766572666C6F770000000000 PUSH1 0x44 DUP3 ADD MSTORE PUSH1 0x64 ADD PUSH1 0x40 MLOAD DUP1 SWAP2 SUB SWAP1 PUSH2 0xF04 PUSH2 0x110F JUMP JUMPDEST POP POP JUMPDEST SWAP1 POP JUMPDEST SWAP3 SWAP2 POP POP JUMP JUMPDEST PUSH1 0x0 DUP3 PUSH2 0xF1F JUMPI POP PUSH1 0x0 PUSH2 0xF0A JUMP JUMPDEST DUP3 DUP3 MUL DUP3 DUP5 DUP3 DUP2 PUSH2 0xF2C JUMPI INVALID JUMPDEST DIV EQ PUSH2 0xF07 JUMPI PUSH1 0x40 MLOAD PUSH3 0x461BCD PUSH1 0xE5 SHL DUP2 MSTORE PUSH1 0x4 ADD DUP1 DUP1 PUSH1 0x20 ADD DUP3 DUP2 SUB DUP3 MSTORE PUSH1 0x21 DUP2 MSTORE PUSH1 0x20 ADD DUP1 PUSH2 0x149E PUSH1 0x21 SWAP2 CODECOPY PUSH1 0x40 ADD SWAP2 POP POP PUSH1 0x40 MLOAD DUP1 SWAP2 SUB SWAP1 PUSH2 0xF04 PUSH2 0x110F JUMP JUMPDEST PUSH1 0x0 DUP3 DUP3 GT ISZERO PUSH2 0xFCE JUMPI PUSH1 0x40 MLOAD PUSH3 0x461BCD PUSH1 0xE5 SHL DUP2 MSTORE PUSH1 0x20 PUSH1 0x4 DUP3 ADD MSTORE PUSH1 0x1E PUSH1 0x24 DUP3 ADD MSTORE PUSH32 0x536166654D6174683A207375627472616374696F6E206F766572666C6F770000 PUSH1 0x44 DUP3 ADD MSTORE PUSH1 0x64 ADD PUSH1 0x40 MLOAD DUP1 SWAP2 SUB SWAP1 PUSH2 0xFCB PUSH2 0x110F JUMP JUMPDEST POP POP JUMPDEST POP SWAP1 SUB SWAP1 JUMP JUMPDEST PUSH1 0x0 DUP1 DUP3 GT PUSH2 0x1032 JUMPI PUSH1 0x40 MLOAD PUSH3 0x461BCD PUSH1 0xE5 SHL DUP2 MSTORE PUSH1 0x20 PUSH1 0x4 DUP3 ADD MSTORE PUSH1 0x1A PUSH1 0x24 DUP3 ADD MSTORE PUSH32 0x536166654D6174683A206469766973696F6E206279207A65726F000000000000 PUSH1 0x44 DUP3 ADD MSTORE PUSH1 0x64 ADD PUSH1 0x40 MLOAD DUP1 SWAP2 SUB SWAP1 PUSH2 0x102F PUSH2 0x110F JUMP JUMPDEST POP POP JUMPDEST PUSH1 0x0 DUP3 DUP5 DUP2 PUSH2 0x103D JUMPI INVALID JUMPDEST DIV SWAP5 SWAP4 POP POP POP POP JUMP JUMPDEST PUSH1 0x0 DUP3 DUP2 MSTORE PUSH1 0x3 PUSH1 0x20 MSTORE DUP1 PUSH1 0x40 DUP2 KECCAK256 PUSH1 0x0 SWAP1 PUSH2 0x1060 PUSH2 0x117A JUMP JUMPDEST PUSH1 0x1 PUSH1 0x1 PUSH1 0xA0 SHL SUB PUSH2 0x100 SWAP3 SWAP1 SWAP3 EXP SWAP1 DIV AND SWAP1 POP DUP3 DUP2 PUSH2 0x1107 JUMPI PUSH1 0x40 MLOAD PUSH3 0x461BCD PUSH1 0xE5 SHL DUP2 MSTORE PUSH1 0x4 ADD DUP1 DUP1 PUSH1 0x20 ADD DUP3 DUP2 SUB DUP3 MSTORE DUP4 DUP2 DUP2 MLOAD DUP2 MSTORE PUSH1 0x20 ADD SWAP2 POP DUP1 MLOAD SWAP1 PUSH1 0x20 ADD SWAP1 DUP1 DUP4 DUP4 PUSH1 0x0 JUMPDEST DUP4 DUP2 LT ISZERO PUSH2 0x10C3 JUMPI DUP1 DUP3 ADD MLOAD DUP4 DUP3 ADD MSTORE PUSH1 0x20 ADD PUSH2 0x10AB JUMP JUMPDEST POP POP POP POP SWAP1 POP SWAP1 DUP2 ADD SWAP1 PUSH1 0x1F AND DUP1 ISZERO PUSH2 0x10F0 JUMPI DUP1 DUP3 SUB DUP1 MLOAD PUSH1 0x1 DUP4 PUSH1 0x20 SUB PUSH2 0x100 EXP SUB NOT AND DUP2 MSTORE PUSH1 0x20 ADD SWAP2 POP JUMPDEST POP SWAP3 POP POP POP PUSH1 0x40 MLOAD DUP1 SWAP2 SUB SWAP1 PUSH2 0x1104 PUSH2 0x110F JUMP JUMPDEST POP POP JUMPDEST POP SWAP4 SWAP3 POP POP POP JUMP JUMPDEST PUSH4 0x2A2A7ADB MSIZE DUP2 PUSH1 0xE0 SHL DUP2 MSTORE PUSH1 0x4 DUP2 ADD PUSH1 0x20 DUP2 MSTORE DUP6 PUSH1 0x20 DUP3 ADD MSTORE PUSH1 0x0 JUMPDEST DUP7 DUP2 LT ISZERO PUSH2 0x1147 JUMPI DUP1 DUP7 ADD MLOAD DUP3 DUP3 ADD PUSH1 0x40 ADD MSTORE PUSH1 0x20 ADD PUSH2 0x112C JUMP JUMPDEST POP PUSH1 0x20 DUP3 DUP8 PUSH1 0x64 ADD DUP5 CALLER PUSH1 0x0 SWAP1 GAS CALL PC PUSH1 0xE ADD JUMPI RETURNDATASIZE PUSH1 0x0 DUP1 RETURNDATACOPY RETURNDATASIZE PUSH1 0x0 REVERT JUMPDEST RETURNDATASIZE PUSH1 0x1 EQ ISZERO PC PUSH1 0xA ADD JUMPI PUSH1 0x1 PUSH1 0x0 RETURN JUMPDEST POP POP POP JUMP JUMPDEST PUSH4 0x3DAA959 MSIZE DUP2 PUSH1 0xE0 SHL DUP2 MSTORE DUP4 PUSH1 0x4 DUP3 ADD MSTORE PUSH1 0x20 DUP2 PUSH1 0x24 DUP4 CALLER PUSH1 0x0 SWAP1 GAS CALL PC PUSH1 0xE ADD JUMPI RETURNDATASIZE PUSH1 0x0 DUP1 RETURNDATACOPY RETURNDATASIZE PUSH1 0x0 REVERT JUMPDEST RETURNDATASIZE PUSH1 0x1 EQ ISZERO PC PUSH1 0xA ADD JUMPI PUSH1 0x1 PUSH1 0x0 RETURN JUMPDEST DUP1 MLOAD SWAP4 POP PUSH1 0x0 JUMPDEST PUSH1 0x40 DUP2 LT ISZERO PUSH2 0xA80 JUMPI PUSH1 0x0 DUP3 DUP3 ADD MSTORE PUSH1 0x20 ADD PUSH2 0x11BE JUMP JUMPDEST PUSH4 0x22BD64C0 MSIZE DUP2 PUSH1 0xE0 SHL DUP2 MSTORE DUP4 PUSH1 0x4 DUP3 ADD MSTORE DUP5 PUSH1 0x24 DUP3 ADD MSTORE PUSH1 0x0 DUP2 PUSH1 0x44 DUP4 CALLER PUSH1 0x0 SWAP1 GAS CALL PC PUSH1 0xE ADD JUMPI RETURNDATASIZE PUSH1 0x0 DUP1 RETURNDATACOPY RETURNDATASIZE PUSH1 0x0 REVERT JUMPDEST RETURNDATASIZE PUSH1 0x1 EQ ISZERO PC PUSH1 0xA ADD JUMPI PUSH1 0x1 PUSH1 0x0 RETURN JUMPDEST PUSH1 0x0 DUP2 MSTORE PUSH1 0x20 PUSH2 0x11BE JUMP JUMPDEST PUSH4 0x8435035B MSIZE DUP2 PUSH1 0xE0 SHL DUP2 MSTORE DUP4 PUSH1 0x4 DUP3 ADD MSTORE PUSH1 0x20 DUP2 PUSH1 0x24 DUP4 CALLER PUSH1 0x0 SWAP1 GAS CALL PC PUSH1 0xE ADD JUMPI RETURNDATASIZE PUSH1 0x0 DUP1 RETURNDATACOPY RETURNDATASIZE PUSH1 0x0 REVERT JUMPDEST RETURNDATASIZE PUSH1 0x1 EQ ISZERO PC PUSH1 0xA ADD JUMPI PUSH1 0x1 PUSH1 0x0 RETURN JUMPDEST DUP1 MLOAD PUSH1 0x0 DUP3 MSTORE SWAP4 POP PUSH1 0x20 PUSH2 0x11BE JUMP JUMPDEST PUSH4 0x8540661F MSIZE DUP2 PUSH1 0xE0 SHL DUP2 MSTORE DUP4 PUSH1 0x4 DUP3 ADD MSTORE DUP5 PUSH1 0x24 DUP3 ADD MSTORE PUSH1 0x60 PUSH1 0x44 DUP3 ADD MSTORE DUP7 PUSH1 0x64 DUP3 ADD MSTORE PUSH1 0x84 DUP2 ADD PUSH1 0x0 JUMPDEST DUP9 DUP2 LT ISZERO PUSH2 0x12B3 JUMPI DUP1 DUP9 ADD MLOAD DUP3 DUP3 ADD MSTORE PUSH1 0x20 ADD PUSH2 0x129B JUMP JUMPDEST POP DUP8 PUSH2 0x104 ADD DUP3 ADD PUSH1 0x60 DUP4 DUP11 PUSH2 0x104 ADD DUP6 CALLER PUSH1 0x0 SWAP1 GAS CALL PC PUSH1 0xE ADD JUMPI RETURNDATASIZE PUSH1 0x0 DUP1 RETURNDATACOPY RETURNDATASIZE PUSH1 0x0 REVERT JUMPDEST RETURNDATASIZE PUSH1 0x1 EQ ISZERO PC PUSH1 0xA ADD JUMPI PUSH1 0x1 PUSH1 0x0 RETURN JUMPDEST DUP3 MLOAD PUSH1 0x40 DUP5 ADD MLOAD RETURNDATASIZE PUSH1 0x0 DUP7 RETURNDATACOPY DUP13 DUP13 DUP3 PUSH1 0x60 DUP9 ADD CALLER POP PUSH1 0x0 PUSH1 0x4 GAS CALL POP MSIZE DUP6 JUMPDEST DUP2 DUP2 LT ISZERO PUSH2 0x131C JUMPI PUSH1 0x0 DUP2 MSTORE PUSH1 0x20 ADD PUSH2 0x1308 JUMP JUMPDEST POP SWAP2 SWAP13 POP POP POP POP POP POP POP JUMP JUMPDEST PUSH4 0xBDBF8C36 MSIZE DUP2 PUSH1 0xE0 SHL DUP2 MSTORE PUSH1 0x20 DUP2 PUSH1 0x4 DUP4 CALLER PUSH1 0x0 SWAP1 GAS CALL PC PUSH1 0xE ADD JUMPI RETURNDATASIZE PUSH1 0x0 DUP1 RETURNDATACOPY RETURNDATASIZE PUSH1 0x0 REVERT JUMPDEST RETURNDATASIZE PUSH1 0x1 EQ ISZERO PC PUSH1 0xA ADD JUMPI PUSH1 0x1 PUSH1 0x0 RETURN JUMPDEST DUP1 MLOAD PUSH1 0x0 DUP3 MSTORE SWAP4 POP PUSH1 0x20 PUSH2 0x11BE JUMP JUMPDEST PUSH4 0x73509064 MSIZE DUP2 PUSH1 0xE0 SHL DUP2 MSTORE PUSH1 0x20 DUP2 PUSH1 0x4 DUP4 CALLER PUSH1 0x0 SWAP1 GAS CALL PC PUSH1 0xE ADD JUMPI RETURNDATASIZE PUSH1 0x0 DUP1 RETURNDATACOPY RETURNDATASIZE PUSH1 0x0 REVERT JUMPDEST RETURNDATASIZE PUSH1 0x1 EQ ISZERO PC PUSH1 0xA ADD JUMPI PUSH1 0x1 PUSH1 0x0 RETURN JUMPDEST DUP1 MLOAD PUSH1 0x0 DUP3 MSTORE SWAP4 POP PUSH1 0x20 PUSH2 0x11BE JUMP JUMPDEST PUSH1 0x40 MLOAD PUSH2 0x300 DUP1 DUP3 ADD PUSH1 0x40 MSTORE PUSH1 0x18 SWAP1 DUP3 SWAP1 DUP1 CODESIZE DUP4 CODECOPY POP SWAP2 SWAP3 SWAP2 POP POP JUMP INVALID MSIZE PUSH16 0x75206D757374206265206E6F6D696E61 PUSH21 0x6564206265666F726520796F752063616E20616363 PUSH6 0x7074206F776E PUSH6 0x727368697053 PUSH22 0x70706C795363686564756C653A204F6E6C7920746865 KECCAK256 PUSH20 0x796E74686574697820636F6E7472616374206361 PUSH15 0x20706572666F726D20746869732061 PUSH4 0x74696F6E MSTORE PUSH6 0x776172642063 PUSH2 0x6E27 PUSH21 0x20657863656564206D6178206D696E746572207265 PUSH24 0x6172644F6E6C792074686520636F6E7472616374206F776E PUSH6 0x72206D617920 PUSH17 0x6572666F726D207468697320616374696F PUSH15 0x536166654D6174683A206D756C7469 PUSH17 0x6C69636174696F6E206F766572666C6F77 0x4D PUSH10 0x6E74206576656E742063 PUSH2 0x6E27 PUSH21 0x2068617070656E206265666F726520696E666C6174 PUSH10 0x6F6E2073746172747352 PUSH6 0x776172642063 PUSH2 0x6E27 PUSH21 0x20657863656564206D6178206D696E746572207265 PUSH24 0x6172644275666665722063616E2774206265206772656174 PUSH6 0x72207468616E KECCAK256 PUSH17 0x6572696F644174206C656173742061206D PUSH10 0x6E74206576656E742068 PUSH2 0x7320 PUSH2 0x6C72 PUSH6 0x616479206F63 PUSH4 0x75727265 PUSH5 0x0 "
		}
	}
}