{
	"abi": [
		{
			"inputs": [
				{
					"internalType": "address",
					"name": "_resolver",
					"type": "address"
				}
			],
			"payable": false,
			"stateMutability": "nonpayable",
			"type": "constructor"
		},
		{
			"anonymous": false,
			"inputs": [
				{
					"indexed": false,
					"internalType": "bytes32",
					"name": "fromContractName",
					"type": "bytes32"
				},
				{
					"indexed": false,
					"internalType": "bytes32",
					"name": "toContractName",
					"type": "bytes32"
				},
				{
					"indexed": false,
					"internalType": "bool",
					"name": "removeAccessFromPreviousContract",
					"type": "bool"
				}
			],
			"name": "KeyMigrated",
			"type": "event"
		},
		{
			"anonymous": false,
			"inputs": [
				{
					"indexed": false,
					"internalType": "bytes32",
					"name": "contractName",
					"type": "bytes32"
				},
				{
					"indexed": false,
					"internalType": "bytes32",
					"name": "record",
					"type": "bytes32"
				},
				{
					"indexed": false,
					"internalType": "address",
					"name": "value",
					"type": "address"
				}
			],
			"name": "ValueDeletedAddress",
			"type": "event"
		},
		{
			"anonymous": false,
			"inputs": [
				{
					"indexed": false,
					"internalType": "bytes32",
					"name": "contractName",
					"type": "bytes32"
				},
				{
					"indexed": false,
					"internalType": "bytes32",
					"name": "record",
					"type": "bytes32"
				},
				{
					"indexed": false,
					"internalType": "bool",
					"name": "value",
					"type": "bool"
				}
			],
			"name": "ValueDeletedBool",
			"type": "event"
		},
		{
			"anonymous": false,
			"inputs": [
				{
					"indexed": false,
					"internalType": "bytes32",
					"name": "contractName",
					"type": "bytes32"
				},
				{
					"indexed": false,
					"internalType": "bytes32",
					"name": "record",
					"type": "bytes32"
				},
				{
					"indexed": false,
					"internalType": "bytes32",
					"name": "value",
					"type": "bytes32"
				}
			],
			"name": "ValueDeletedBytes32",
			"type": "event"
		},
		{
			"anonymous": false,
			"inputs": [
				{
					"indexed": false,
					"internalType": "bytes32",
					"name": "contractName",
					"type": "bytes32"
				},
				{
					"indexed": false,
					"internalType": "bytes32",
					"name": "record",
					"type": "bytes32"
				},
				{
					"indexed": false,
					"internalType": "int256",
					"name": "value",
					"type": "int256"
				}
			],
			"name": "ValueDeletedInt",
			"type": "event"
		},
		{
			"anonymous": false,
			"inputs": [
				{
					"indexed": false,
					"internalType": "bytes32",
					"name": "contractName",
					"type": "bytes32"
				},
				{
					"indexed": false,
					"internalType": "bytes32",
					"name": "record",
					"type": "bytes32"
				},
				{
					"indexed": false,
					"internalType": "uint256",
					"name": "value",
					"type": "uint256"
				}
			],
			"name": "ValueDeletedUInt",
			"type": "event"
		},
		{
			"anonymous": false,
			"inputs": [
				{
					"indexed": false,
					"internalType": "bytes32",
					"name": "contractName",
					"type": "bytes32"
				},
				{
					"indexed": false,
					"internalType": "bytes32",
					"name": "record",
					"type": "bytes32"
				},
				{
					"indexed": false,
					"internalType": "address",
					"name": "value",
					"type": "address"
				}
			],
			"name": "ValueSetAddress",
			"type": "event"
		},
		{
			"anonymous": false,
			"inputs": [
				{
					"indexed": false,
					"internalType": "bytes32",
					"name": "contractName",
					"type": "bytes32"
				},
				{
					"indexed": false,
					"internalType": "bytes32",
					"name": "record",
					"type": "bytes32"
				},
				{
					"indexed": false,
					"internalType": "bool",
					"name": "value",
					"type": "bool"
				}
			],
			"name": "ValueSetBool",
			"type": "event"
		},
		{
			"anonymous": false,
			"inputs": [
				{
					"indexed": false,
					"internalType": "bytes32",
					"name": "contractName",
					"type": "bytes32"
				},
				{
					"indexed": false,
					"internalType": "bytes32",
					"name": "record",
					"type": "bytes32"
				},
				{
					"indexed": false,
					"internalType": "bytes32",
					"name": "value",
					"type": "bytes32"
				}
			],
			"name": "ValueSetBytes32",
			"type": "event"
		},
		{
			"anonymous": false,
			"inputs": [
				{
					"indexed": false,
					"internalType": "bytes32",
					"name": "contractName",
					"type": "bytes32"
				},
				{
					"indexed": false,
					"internalType": "bytes32",
					"name": "record",
					"type": "bytes32"
				},
				{
					"indexed": false,
					"internalType": "int256",
					"name": "value",
					"type": "int256"
				}
			],
			"name": "ValueSetInt",
			"type": "event"
		},
		{
			"anonymous": false,
			"inputs": [
				{
					"indexed": false,
					"internalType": "bytes32",
					"name": "contractName",
					"type": "bytes32"
				},
				{
					"indexed": false,
					"internalType": "bytes32",
					"name": "record",
					"type": "bytes32"
				},
				{
					"indexed": false,
					"internalType": "uint256",
					"name": "value",
					"type": "uint256"
				}
			],
			"name": "ValueSetUInt",
			"type": "event"
		},
		{
			"constant": false,
			"inputs": [
				{
					"internalType": "bytes32",
					"name": "contractName",
					"type": "bytes32"
				},
				{
					"internalType": "bytes32",
					"name": "record",
					"type": "bytes32"
				}
			],
			"name": "deleteAddressValue",
			"outputs": [],
			"payable": false,
			"stateMutability": "nonpayable",
			"type": "function"
		},
		{
			"constant": false,
			"inputs": [
				{
					"internalType": "bytes32",
					"name": "contractName",
					"type": "bytes32"
				},
				{
					"internalType": "bytes32",
					"name": "record",
					"type": "bytes32"
				}
			],
			"name": "deleteBoolValue",
			"outputs": [],
			"payable": false,
			"stateMutability": "nonpayable",
			"type": "function"
		},
		{
			"constant": false,
			"inputs": [
				{
					"internalType": "bytes32",
					"name": "contractName",
					"type": "bytes32"
				},
				{
					"internalType": "bytes32",
					"name": "record",
					"type": "bytes32"
				}
			],
			"name": "deleteBytes32Value",
			"outputs": [],
			"payable": false,
			"stateMutability": "nonpayable",
			"type": "function"
		},
		{
			"constant": false,
			"inputs": [
				{
					"internalType": "bytes32",
					"name": "contractName",
					"type": "bytes32"
				},
				{
					"internalType": "bytes32",
					"name": "record",
					"type": "bytes32"
				}
			],
			"name": "deleteIntValue",
			"outputs": [],
			"payable": false,
			"stateMutability": "nonpayable",
			"type": "function"
		},
		{
			"constant": false,
			"inputs": [
				{
					"internalType": "bytes32",
					"name": "contractName",
					"type": "bytes32"
				},
				{
					"internalType": "bytes32",
					"name": "record",
					"type": "bytes32"
				}
			],
			"name": "deleteUIntValue",
			"outputs": [],
			"payable": false,
			"stateMutability": "nonpayable",
			"type": "function"
		},
		{
			"constant": true,
			"inputs": [
				{
					"internalType": "bytes32",
					"name": "contractName",
					"type": "bytes32"
				},
				{
					"internalType": "bytes32",
					"name": "record",
					"type": "bytes32"
				}
			],
			"name": "getAddressValue",
			"outputs": [
				{
					"internalType": "address",
					"name": "",
					"type": "address"
				}
			],
			"payable": false,
			"stateMutability": "view",
			"type": "function"
		},
		{
			"constant": true,
			"inputs": [
				{
					"internalType": "bytes32",
					"name": "contractName",
					"type": "bytes32"
				},
				{
					"internalType": "bytes32[]",
					"name": "records",
					"type": "bytes32[]"
				}
			],
			"name": "getAddressValues",
			"outputs": [
				{
					"internalType": "address[]",
					"name": "",
					"type": "address[]"
				}
			],
			"payable": false,
			"stateMutability": "view",
			"type": "function"
		},
		{
			"constant": true,
			"inputs": [
				{
					"internalType": "bytes32",
					"name": "contractName",
					"type": "bytes32"
				},
				{
					"internalType": "bytes32",
					"name": "record",
					"type": "bytes32"
				}
			],
			"name": "getBoolValue",
			"outputs": [
				{
					"internalType": "bool",
					"name": "",
					"type": "bool"
				}
			],
			"payable": false,
			"stateMutability": "view",
			"type": "function"
		},
		{
			"constant": true,
			"inputs": [
				{
					"internalType": "bytes32",
					"name": "contractName",
					"type": "bytes32"
				},
				{
					"internalType": "bytes32[]",
					"name": "records",
					"type": "bytes32[]"
				}
			],
			"name": "getBoolValues",
			"outputs": [
				{
					"internalType": "bool[]",
					"name": "",
					"type": "bool[]"
				}
			],
			"payable": false,
			"stateMutability": "view",
			"type": "function"
		},
		{
			"constant": true,
			"inputs": [
				{
					"internalType": "bytes32",
					"name": "contractName",
					"type": "bytes32"
				},
				{
					"internalType": "bytes32",
					"name": "record",
					"type": "bytes32"
				}
			],
			"name": "getBytes32Value",
			"outputs": [
				{
					"internalType": "bytes32",
					"name": "",
					"type": "bytes32"
				}
			],
			"payable": false,
			"stateMutability": "view",
			"type": "function"
		},
		{
			"constant": true,
			"inputs": [
				{
					"internalType": "bytes32",
					"name": "contractName",
					"type": "bytes32"
				},
				{
					"internalType": "bytes32[]",
					"name": "records",
					"type": "bytes32[]"
				}
			],
			"name": "getBytes32Values",
			"outputs": [
				{
					"internalType": "bytes32[]",
					"name": "",
					"type": "bytes32[]"
				}
			],
			"payable": false,
			"stateMutability": "view",
			"type": "function"
		},
		{
			"constant": true,
			"inputs": [
				{
					"internalType": "bytes32",
					"name": "contractName",
					"type": "bytes32"
				},
				{
					"internalType": "bytes32",
					"name": "record",
					"type": "bytes32"
				}
			],
			"name": "getIntValue",
			"outputs": [
				{
					"internalType": "int256",
					"name": "",
					"type": "int256"
				}
			],
			"payable": false,
			"stateMutability": "view",
			"type": "function"
		},
		{
			"constant": true,
			"inputs": [
				{
					"internalType": "bytes32",
					"name": "contractName",
					"type": "bytes32"
				},
				{
					"internalType": "bytes32[]",
					"name": "records",
					"type": "bytes32[]"
				}
			],
			"name": "getIntValues",
			"outputs": [
				{
					"internalType": "int256[]",
					"name": "",
					"type": "int256[]"
				}
			],
			"payable": false,
			"stateMutability": "view",
			"type": "function"
		},
		{
			"constant": true,
			"inputs": [
				{
					"internalType": "bytes32",
					"name": "contractName",
					"type": "bytes32"
				},
				{
					"internalType": "bytes32",
					"name": "record",
					"type": "bytes32"
				}
			],
			"name": "getUIntValue",
			"outputs": [
				{
					"internalType": "uint256",
					"name": "",
					"type": "uint256"
				}
			],
			"payable": false,
			"stateMutability": "view",
			"type": "function"
		},
		{
			"constant": true,
			"inputs": [
				{
					"internalType": "bytes32",
					"name": "contractName",
					"type": "bytes32"
				},
				{
					"internalType": "bytes32[]",
					"name": "records",
					"type": "bytes32[]"
				}
			],
			"name": "getUIntValues",
			"outputs": [
				{
					"internalType": "uint256[]",
					"name": "",
					"type": "uint256[]"
				}
			],
			"payable": false,
			"stateMutability": "view",
			"type": "function"
		},
		{
			"constant": true,
			"inputs": [
				{
					"internalType": "bytes32",
					"name": "",
					"type": "bytes32"
				}
			],
			"name": "hashes",
			"outputs": [
				{
					"internalType": "bytes32",
					"name": "",
					"type": "bytes32"
				}
			],
			"payable": false,
			"stateMutability": "view",
			"type": "function"
		},
		{
			"constant": false,
			"inputs": [
				{
					"internalType": "bytes32",
					"name": "fromContractName",
					"type": "bytes32"
				},
				{
					"internalType": "bytes32",
					"name": "toContractName",
					"type": "bytes32"
				},
				{
					"internalType": "bool",
					"name": "removeAccessFromPreviousContract",
					"type": "bool"
				}
			],
			"name": "migrateContractKey",
			"outputs": [],
			"payable": false,
			"stateMutability": "nonpayable",
			"type": "function"
		},
		{
			"constant": true,
			"inputs": [],
			"name": "resolverProxy",
			"outputs": [
				{
					"internalType": "contract IAddressResolver",
					"name": "",
					"type": "address"
				}
			],
			"payable": false,
			"stateMutability": "view",
			"type": "function"
		},
		{
			"constant": false,
			"inputs": [
				{
					"internalType": "bytes32",
					"name": "contractName",
					"type": "bytes32"
				},
				{
					"internalType": "bytes32",
					"name": "record",
					"type": "bytes32"
				},
				{
					"internalType": "address",
					"name": "value",
					"type": "address"
				}
			],
			"name": "setAddressValue",
			"outputs": [],
			"payable": false,
			"stateMutability": "nonpayable",
			"type": "function"
		},
		{
			"constant": false,
			"inputs": [
				{
					"internalType": "bytes32",
					"name": "contractName",
					"type": "bytes32"
				},
				{
					"internalType": "bytes32[]",
					"name": "records",
					"type": "bytes32[]"
				},
				{
					"internalType": "address[]",
					"name": "values",
					"type": "address[]"
				}
			],
			"name": "setAddressValues",
			"outputs": [],
			"payable": false,
			"stateMutability": "nonpayable",
			"type": "function"
		},
		{
			"constant": false,
			"inputs": [
				{
					"internalType": "bytes32",
					"name": "contractName",
					"type": "bytes32"
				},
				{
					"internalType": "bytes32",
					"name": "record",
					"type": "bytes32"
				},
				{
					"internalType": "bool",
					"name": "value",
					"type": "bool"
				}
			],
			"name": "setBoolValue",
			"outputs": [],
			"payable": false,
			"stateMutability": "nonpayable",
			"type": "function"
		},
		{
			"constant": false,
			"inputs": [
				{
					"internalType": "bytes32",
					"name": "contractName",
					"type": "bytes32"
				},
				{
					"internalType": "bytes32[]",
					"name": "records",
					"type": "bytes32[]"
				},
				{
					"internalType": "bool[]",
					"name": "values",
					"type": "bool[]"
				}
			],
			"name": "setBoolValues",
			"outputs": [],
			"payable": false,
			"stateMutability": "nonpayable",
			"type": "function"
		},
		{
			"constant": false,
			"inputs": [
				{
					"internalType": "bytes32",
					"name": "contractName",
					"type": "bytes32"
				},
				{
					"internalType": "bytes32",
					"name": "record",
					"type": "bytes32"
				},
				{
					"internalType": "bytes32",
					"name": "value",
					"type": "bytes32"
				}
			],
			"name": "setBytes32Value",
			"outputs": [],
			"payable": false,
			"stateMutability": "nonpayable",
			"type": "function"
		},
		{
			"constant": false,
			"inputs": [
				{
					"internalType": "bytes32",
					"name": "contractName",
					"type": "bytes32"
				},
				{
					"internalType": "bytes32[]",
					"name": "records",
					"type": "bytes32[]"
				},
				{
					"internalType": "bytes32[]",
					"name": "values",
					"type": "bytes32[]"
				}
			],
			"name": "setBytes32Values",
			"outputs": [],
			"payable": false,
			"stateMutability": "nonpayable",
			"type": "function"
		},
		{
			"constant": false,
			"inputs": [
				{
					"internalType": "bytes32",
					"name": "contractName",
					"type": "bytes32"
				},
				{
					"internalType": "bytes32",
					"name": "record",
					"type": "bytes32"
				},
				{
					"internalType": "int256",
					"name": "value",
					"type": "int256"
				}
			],
			"name": "setIntValue",
			"outputs": [],
			"payable": false,
			"stateMutability": "nonpayable",
			"type": "function"
		},
		{
			"constant": false,
			"inputs": [
				{
					"internalType": "bytes32",
					"name": "contractName",
					"type": "bytes32"
				},
				{
					"internalType": "bytes32[]",
					"name": "records",
					"type": "bytes32[]"
				},
				{
					"internalType": "int256[]",
					"name": "values",
					"type": "int256[]"
				}
			],
			"name": "setIntValues",
			"outputs": [],
			"payable": false,
			"stateMutability": "nonpayable",
			"type": "function"
		},
		{
			"constant": false,
			"inputs": [
				{
					"internalType": "bytes32",
					"name": "contractName",
					"type": "bytes32"
				},
				{
					"internalType": "bytes32",
					"name": "record",
					"type": "bytes32"
				},
				{
					"internalType": "uint256",
					"name": "value",
					"type": "uint256"
				}
			],
			"name": "setUIntValue",
			"outputs": [],
			"payable": false,
			"stateMutability": "nonpayable",
			"type": "function"
		},
		{
			"constant": false,
			"inputs": [
				{
					"internalType": "bytes32",
					"name": "contractName",
					"type": "bytes32"
				},
				{
					"internalType": "bytes32[]",
					"name": "records",
					"type": "bytes32[]"
				},
				{
					"internalType": "uint256[]",
					"name": "values",
					"type": "uint256[]"
				}
			],
			"name": "setUIntValues",
			"outputs": [],
			"payable": false,
			"stateMutability": "nonpayable",
			"type": "function"
		}
	],
	"evm": {
		"bytecode": {
			"linkReferences": {},
			"object": "60806040523480156200001c576000806200001962000099565b50505b506040516200371838038062003718833981810160405260208110156200004d576000806200004a62000099565b50505b810190808051925082915081905060006001816200006a62000106565b816001600160a01b0302191690836001600160a01b03160217906200008e62000168565b5050505050620001b7565b632a2a7adb598160e01b8152600481016020815285602082015260005b86811015620000d3578086015182820160400152602001620000b6565b506020828760640184336000905af158600e01573d6000803e3d6000fd5b3d6001141558600a015760016000f35b505050565b6303daa959598160e01b8152836004820152602081602483336000905af158600e01573d6000803e3d6000fd5b3d6001141558600a015760016000f35b8051935060005b604081101562000163576000828201526020016200014a565b505050565b6322bd64c0598160e01b8152836004820152846024820152600081604483336000905af158600e01573d6000803e3d6000fd5b3d6001141558600a015760016000f35b6000815260206200014a565b61355180620001c76000396000f3fe608060405234801561001957600080610016613230565b50505b50600436106101cc5760003560e01c80638ca0adaf11610102578063c89eb562116100a0578063d994502d1161007a578063d994502d14610c05578063f7833c5d14610c45578063f9c39d2f14610c71578063fdfc4c1314610d75576101cc565b8063c89eb56214610aa9578063d658d2e914610bad578063d71a9b0114610bd3576101cc565b8063ab15985d116100dc578063ab15985d14610847578063b67fa7ed1461094b578063c13a2b0c146109e4578063c4f610ed14610a7d576101cc565b80638ca0adaf146107565780638f6b95a3146107ef5780639ee5955a1461081b576101cc565b806335ab27081161016f5780634dca0978116101495780634dca09781461062a5780635bda91e2146106655780636a59e495146106995780638408a5e5146106bd576101cc565b806335ab2708146104c65780633bd6ad89146104f25780633f28a6fc146105f6576101cc565b80631625e3ef116101ab5780631625e3ef146103fe57806318f662ed1461042a5780631d5b277f1461045657806323257c2b14610488576101cc565b80624b62d6146101da57806303cdc0171461020e578063142a391e14610312575b6000806101d7613230565b50505b61020c600480360360608110156101f9576000806101f6613230565b50505b5080359060208101359060400135610da1565b005b61020c6004803603606081101561022d5760008061022a613230565b50505b81359190810190604081016020820135600160201b81111561025757600080610254613230565b50505b8201836020820111156102725760008061026f613230565b50505b803590602001918460208302840111600160201b8311171561029c57600080610299613230565b50505b919390929091602081019035600160201b8111156102c2576000806102bf613230565b50505b8201836020820111156102dd576000806102da613230565b50505b803590602001918460208302840111600160201b8311171561030757600080610304613230565b50505b509092509050610ef3565b6103ab600480360360408110156103315760008061032e613230565b50505b81359190810190604081016020820135600160201b81111561035b57600080610358613230565b50505b82018360208201111561037657600080610373613230565b50505b803590602001918460208302840111600160201b831117156103a05760008061039d613230565b50505b5090925090506110c9565b60405160208082528190810183818151815260200191508051906020019060200280838360005b838110156103ea5780820151838201526020016103d2565b505050509050019250505060405180910390f35b61020c6004803603604081101561041d5760008061041a613230565b50505b5080359060200135611184565b61020c6004803603604081101561044957600080610446613230565b50505b50803590602001356113b3565b61020c6004803603606081101561047557600080610472613230565b50505b50803590602081013590604001356115bb565b6104b4600480360360408110156104a7576000806104a4613230565b50505b5080359060200135611706565b60405190815260200160405180910390f35b61020c600480360360408110156104e5576000806104e2613230565b50505b508035906020013561174b565b61020c600480360360608110156105115760008061050e613230565b50505b81359190810190604081016020820135600160201b81111561053b57600080610538613230565b50505b82018360208201111561055657600080610553613230565b50505b803590602001918460208302840111600160201b831117156105805760008061057d613230565b50505b919390929091602081019035600160201b8111156105a6576000806105a3613230565b50505b8201836020820111156105c1576000806105be613230565b50505b803590602001918460208302840111600160201b831117156105eb576000806105e8613230565b50505b50909250905061192b565b61020c6004803603606081101561061557600080610612613230565b50505b50803590602081013590604001351515611b00565b61020c6004803603606081101561064957600080610646613230565b50505b50803590602081013590604001356001600160a01b0316611c4b565b61020c6004803603606081101561068457600080610681613230565b50505b50803590602081013590604001351515611d96565b6106a1611fea565b6040516001600160a01b03909116815260200160405180910390f35b6103ab600480360360408110156106dc576000806106d9613230565b50505b81359190810190604081016020820135600160201b81111561070657600080610703613230565b50505b8201836020820111156107215760008061071e613230565b50505b803590602001918460208302840111600160201b8311171561074b57600080610748613230565b50505b509092509050612008565b6103ab6004803603604081101561077557600080610772613230565b50505b81359190810190604081016020820135600160201b81111561079f5760008061079c613230565b50505b8201836020820111156107ba576000806107b7613230565b50505b803590602001918460208302840111600160201b831117156107e4576000806107e1613230565b50505b5090925090506120b8565b61020c6004803603604081101561080e5760008061080b613230565b50505b5080359060200135612188565b6106a16004803603604081101561083a57600080610837613230565b50505b50803590602001356123c1565b61020c6004803603606081101561086657600080610863613230565b50505b81359190810190604081016020820135600160201b8111156108905760008061088d613230565b50505b8201836020820111156108ab576000806108a8613230565b50505b803590602001918460208302840111600160201b831117156108d5576000806108d2613230565b50505b919390929091602081019035600160201b8111156108fb576000806108f8613230565b50505b82018360208201111561091657600080610913613230565b50505b803590602001918460208302840111600160201b831117156109405760008061093d613230565b50505b50909250905061241a565b6103ab6004803603604081101561096a57600080610967613230565b50505b81359190810190604081016020820135600160201b81111561099457600080610991613230565b50505b8201836020820111156109af576000806109ac613230565b50505b803590602001918460208302840111600160201b831117156109d9576000806109d6613230565b50505b5090925090506125e6565b6103ab60048036036040811015610a0357600080610a00613230565b50505b81359190810190604081016020820135600160201b811115610a2d57600080610a2a613230565b50505b820183602082011115610a4857600080610a45613230565b50505b803590602001918460208302840111600160201b83111715610a7257600080610a6f613230565b50505b509092509050612696565b6104b460048036036040811015610a9c57600080610a99613230565b50505b5080359060200135612758565b61020c60048036036060811015610ac857600080610ac5613230565b50505b81359190810190604081016020820135600160201b811115610af257600080610aef613230565b50505b820183602082011115610b0d57600080610b0a613230565b50505b803590602001918460208302840111600160201b83111715610b3757600080610b34613230565b50505b919390929091602081019035600160201b811115610b5d57600080610b5a613230565b50505b820183602082011115610b7857600080610b75613230565b50505b803590602001918460208302840111600160201b83111715610ba257600080610b9f613230565b50505b509092509050612771565b6104b460048036036020811015610bcc57600080610bc9613230565b50505b503561293d565b61020c60048036036060811015610bf257600080610bef613230565b50505b5080359060208101359060400135612958565b610c3160048036036040811015610c2457600080610c21613230565b50505b5080359060200135612aa3565b604051901515815260200160405180910390f35b6104b460048036036040811015610c6457600080610c61613230565b50505b5080359060200135612af6565b61020c60048036036060811015610c9057600080610c8d613230565b50505b81359190810190604081016020820135600160201b811115610cba57600080610cb7613230565b50505b820183602082011115610cd557600080610cd2613230565b50505b803590602001918460208302840111600160201b83111715610cff57600080610cfc613230565b50505b919390929091602081019035600160201b811115610d2557600080610d22613230565b50505b820183602082011115610d4057600080610d3d613230565b50505b803590602001918460208302840111600160201b83111715610d6a57600080610d67613230565b50505b509092509050612b0f565b61020c60048036036040811015610d9457600080610d91613230565b50505b5080359060200135612cdd565b8260008080610dae61329b565b906101000a90046001600160a01b03166001600160a01b031663dacb2d01836040518263ffffffff1660e01b81526004018082815260200180602001828103825260288152602001806134db60289139604001925050506020604051808303818680610e186132fb565b158015610e2d57600080610e2a613230565b50505b505a610e37613347565b5050505050158015610e56573d6000803e3d6000610e53613230565b50505b505050506040513d6020811015610e7557600080610e72613230565b50505b81019080805193505050505a610e89613400565b6001600160a01b0316816001600160a01b031614610ee15760405162461bcd60e51b815260040180806020018281038252602e815260200180613503602e913960400191505060405180910390610ede613230565b50505b610eec858585612ebd565b5050505050565b8460008080610f0061329b565b906101000a90046001600160a01b03166001600160a01b031663dacb2d01836040518263ffffffff1660e01b81526004018082815260200180602001828103825260288152602001806134db60289139604001925050506020604051808303818680610f6a6132fb565b158015610f7f57600080610f7c613230565b50505b505a610f89613347565b5050505050158015610fa8573d6000803e3d6000610fa5613230565b50505b505050506040513d6020811015610fc757600080610fc4613230565b50505b81019080805193505050505a610fdb613400565b6001600160a01b0316816001600160a01b0316146110335760405162461bcd60e51b815260040180806020018281038252602e815260200180613503602e913960400191505060405180910390611030613230565b50505b84831461107d5760405162461bcd60e51b8152602060048201526018602482015260008051602061353183398151915260448201526064016040518091039061107a613230565b50505b60005b858110156110bf576110b78888888481811061109857fe5b905060200201358787858181106110ab57fe5b90506020020135612f41565b600101611080565b5050505050505050565b606080826040519080825280602002602001820160405280156110f6578160200160208202803883390190505b50600086815260016020529091506003816040812061111361329b565b8152602001908152602001600020905060005b848110156111795781600087878481811061113d57fe5b90506020020135815260200190815260200160002061115a61329b565b83828151811061116657fe5b6020908102919091010152600101611126565b509095945050505050565b816000808061119161329b565b906101000a90046001600160a01b03166001600160a01b031663dacb2d01836040518263ffffffff1660e01b81526004018082815260200180602001828103825260288152602001806134db602891396040019250505060206040518083038186806111fb6132fb565b1580156112105760008061120d613230565b50505b505a61121a613347565b5050505050158015611239573d6000803e3d6000611236613230565b50505b505050506040513d602081101561125857600080611255613230565b50505b81019080805193505050505a61126c613400565b6001600160a01b0316816001600160a01b0316146112c45760405162461bcd60e51b815260040180806020018281038252602e815260200180613503602e9139604001915050604051809103906112c1613230565b50505b60008481526001602052600581604081206112dd61329b565b815260200190815260200160002060008581526020919091526040902060009061130561329b565b906101000a900460ff1690507f321123223c2c7bffd7484ae8fb80c6eb45aa5537df0a621c47833ab9376a4a9c858583604051928352602083019190915215156040808301919091526060909101905180910390a1600085815260016020526005906040812061137361329b565b815260200190815260200160002060008581526020919091526040902060018161139b61329b565b9060ff021916906113aa613446565b50505050505050565b81600080806113c061329b565b906101000a90046001600160a01b03166001600160a01b031663dacb2d01836040518263ffffffff1660e01b81526004018082815260200180602001828103825260288152602001806134db6028913960400192505050602060405180830381868061142a6132fb565b15801561143f5760008061143c613230565b50505b505a611449613347565b5050505050158015611468573d6000803e3d6000611465613230565b50505b505050506040513d602081101561148757600080611484613230565b50505b81019080805193505050505a61149b613400565b6001600160a01b0316816001600160a01b0316146114f35760405162461bcd60e51b815260040180806020018281038252602e815260200180613503602e9139604001915050604051809103906114f0613230565b50505b600084815260016020526002816040812061150c61329b565b815260200190815260200160002060008581526020919091526040902061153161329b565b90507f8a6b612c1a1e056bc504f34fe56106a878fca2d1a50be35360d02ac39d4d466285858360405180848152602001838152602001828152602001935050505060405180910390a1600085815260016020526002906040812061159361329b565b81526020019081526020016000206000858152602091909152604090206000906113aa613446565b82600080806115c861329b565b906101000a90046001600160a01b03166001600160a01b031663dacb2d01836040518263ffffffff1660e01b81526004018082815260200180602001828103825260288152602001806134db602891396040019250505060206040518083038186806116326132fb565b15801561164757600080611644613230565b50505b505a611651613347565b5050505050158015611670573d6000803e3d600061166d613230565b50505b505050506040513d602081101561168f5760008061168c613230565b50505b81019080805193505050505a6116a3613400565b6001600160a01b0316816001600160a01b0316146116fb5760405162461bcd60e51b815260040180806020018281038252602e815260200180613503602e9139604001915050604051809103906116f8613230565b50505b610eec858585612f41565b600082815260016020526002816040812061171f61329b565b815260200190815260200160002060008381526020919091526040902061174461329b565b9392505050565b816000808061175861329b565b906101000a90046001600160a01b03166001600160a01b031663dacb2d01836040518263ffffffff1660e01b81526004018082815260200180602001828103825260288152602001806134db602891396040019250505060206040518083038186806117c26132fb565b1580156117d7576000806117d4613230565b50505b505a6117e1613347565b5050505050158015611800573d6000803e3d60006117fd613230565b50505b505050506040513d602081101561181f5760008061181c613230565b50505b81019080805193505050505a611833613400565b6001600160a01b0316816001600160a01b03161461188b5760405162461bcd60e51b815260040180806020018281038252602e815260200180613503602e913960400191505060405180910390611888613230565b50505b60008481526001602052600681604081206118a461329b565b81526020019081526020016000206000858152602091909152604090206118c961329b565b90507f1f751825a531bf2a176e42d5cb792bb7228163cf53e36b033509ccbe869cfd9385858360405180848152602001838152602001828152602001935050505060405180910390a1600085815260016020526006906040812061159361329b565b846000808061193861329b565b906101000a90046001600160a01b03166001600160a01b031663dacb2d01836040518263ffffffff1660e01b81526004018082815260200180602001828103825260288152602001806134db602891396040019250505060206040518083038186806119a26132fb565b1580156119b7576000806119b4613230565b50505b505a6119c1613347565b50505050501580156119e0573d6000803e3d60006119dd613230565b50505b505050506040513d60208110156119ff576000806119fc613230565b50505b81019080805193505050505a611a13613400565b6001600160a01b0316816001600160a01b031614611a6b5760405162461bcd60e51b815260040180806020018281038252602e815260200180613503602e913960400191505060405180910390611a68613230565b50505b848314611ab55760405162461bcd60e51b81526020600482015260186024820152600080516020613531833981519152604482015260640160405180910390611ab2613230565b50505b60005b858110156110bf57611af888888884818110611ad057fe5b90506020020135878785818110611ae357fe5b905060200201356001600160a01b0316612fc5565b600101611ab8565b8260008080611b0d61329b565b906101000a90046001600160a01b03166001600160a01b031663dacb2d01836040518263ffffffff1660e01b81526004018082815260200180602001828103825260288152602001806134db60289139604001925050506020604051808303818680611b776132fb565b158015611b8c57600080611b89613230565b50505b505a611b96613347565b5050505050158015611bb5573d6000803e3d6000611bb2613230565b50505b505050506040513d6020811015611bd457600080611bd1613230565b50505b81019080805193505050505a611be8613400565b6001600160a01b0316816001600160a01b031614611c405760405162461bcd60e51b815260040180806020018281038252602e815260200180613503602e913960400191505060405180910390611c3d613230565b50505b610eec858585613075565b8260008080611c5861329b565b906101000a90046001600160a01b03166001600160a01b031663dacb2d01836040518263ffffffff1660e01b81526004018082815260200180602001828103825260288152602001806134db60289139604001925050506020604051808303818680611cc26132fb565b158015611cd757600080611cd4613230565b50505b505a611ce1613347565b5050505050158015611d00573d6000803e3d6000611cfd613230565b50505b505050506040513d6020811015611d1f57600080611d1c613230565b50505b81019080805193505050505a611d33613400565b6001600160a01b0316816001600160a01b031614611d8b5760405162461bcd60e51b815260040180806020018281038252602e815260200180613503602e913960400191505060405180910390611d88613230565b50505b610eec858585612fc5565b8260008080611da361329b565b906101000a90046001600160a01b03166001600160a01b031663dacb2d01836040518263ffffffff1660e01b81526004018082815260200180602001828103825260288152602001806134db60289139604001925050506020604051808303818680611e0d6132fb565b158015611e2257600080611e1f613230565b50505b505a611e2c613347565b5050505050158015611e4b573d6000803e3d6000611e48613230565b50505b505050506040513d6020811015611e6a57600080611e67613230565b50505b81019080805193505050505a611e7e613400565b6001600160a01b0316816001600160a01b031614611ed65760405162461bcd60e51b815260040180806020018281038252602e815260200180613503602e913960400191505060405180910390611ed3613230565b50505b6000858152600160205260408120611eec61329b565b1415611f475760405162461bcd60e51b815260206004820152601d60248201527f43616e6e6f74206d69677261746520656d70747920636f6e7472616374000000604482015260640160405180910390611f44613230565b50505b6000858152600160205260409020611f5d61329b565b60008581526001602052604090208190611f75613446565b5050508215611f9a576000858152600160205260409020600090611f97613446565b50505b7fa3db9c909daa141b61562c797dae4dc4b3d7751686068c98111db87b2a8c374c858585604051928352602083019190915215156040808301919091526060909101905180910390a15050505050565b600080611ff561329b565b906101000a90046001600160a01b031681565b60608082604051908082528060200260200182016040528015612035578160200160208202803883390190505b50600086815260016020529091506006816040812061205261329b565b8152602001908152602001600020905060005b848110156111795781600087878481811061207c57fe5b90506020020135815260200190815260200160002061209961329b565b8382815181106120a557fe5b6020908102919091010152600101612065565b606080826040519080825280602002602001820160405280156120e5578160200160208202803883390190505b50600086815260016020529091506004816040812061210261329b565b8152602001908152602001600020905060005b848110156111795781600087878481811061212c57fe5b90506020020135815260200190815260200160002060009061214c61329b565b906101000a90046001600160a01b031683828151811061216857fe5b6001600160a01b0390921660209283029190910190910152600101612115565b816000808061219561329b565b906101000a90046001600160a01b03166001600160a01b031663dacb2d01836040518263ffffffff1660e01b81526004018082815260200180602001828103825260288152602001806134db602891396040019250505060206040518083038186806121ff6132fb565b15801561221457600080612211613230565b50505b505a61221e613347565b505050505015801561223d573d6000803e3d600061223a613230565b50505b505050506040513d602081101561225c57600080612259613230565b50505b81019080805193505050505a612270613400565b6001600160a01b0316816001600160a01b0316146122c85760405162461bcd60e51b815260040180806020018281038252602e815260200180613503602e9139604001915050604051809103906122c5613230565b50505b60008481526001602052600481604081206122e161329b565b815260200190815260200160002060008581526020919091526040902060009061230961329b565b906101000a90046001600160a01b031690507fec1140277b8f20820dc76b92216489238a207d5f22c964099303820fbd2bdf6685858360405192835260208301919091526001600160a01b03166040808301919091526060909101905180910390a1600085815260016020526004906040812061238461329b565b81526020019081526020016000206000858152602091909152604090206001816123ac61329b565b906001600160a01b03021916906113aa613446565b60008281526001602052600481604081206123da61329b565b815260200190815260200160002060008381526020919091526040902060009061240261329b565b906101000a90046001600160a01b0316905092915050565b846000808061242761329b565b906101000a90046001600160a01b03166001600160a01b031663dacb2d01836040518263ffffffff1660e01b81526004018082815260200180602001828103825260288152602001806134db602891396040019250505060206040518083038186806124916132fb565b1580156124a6576000806124a3613230565b50505b505a6124b0613347565b50505050501580156124cf573d6000803e3d60006124cc613230565b50505b505050506040513d60208110156124ee576000806124eb613230565b50505b81019080805193505050505a612502613400565b6001600160a01b0316816001600160a01b03161461255a5760405162461bcd60e51b815260040180806020018281038252602e815260200180613503602e913960400191505060405180910390612557613230565b50505b8483146125a45760405162461bcd60e51b815260206004820152601860248201526000805160206135318339815191526044820152606401604051809103906125a1613230565b50505b60005b858110156110bf576125de888888848181106125bf57fe5b905060200201358787858181106125d257fe5b90506020020135613111565b6001016125a7565b60608082604051908082528060200260200182016040528015612613578160200160208202803883390190505b50600086815260016020529091506002816040812061263061329b565b8152602001908152602001600020905060005b848110156111795781600087878481811061265a57fe5b90506020020135815260200190815260200160002061267761329b565b83828151811061268357fe5b6020908102919091010152600101612643565b606080826040519080825280602002602001820160405280156126c3578160200160208202803883390190505b5060008681526001602052909150600581604081206126e061329b565b8152602001908152602001600020905060005b848110156111795781600087878481811061270a57fe5b90506020020135815260200190815260200160002060009061272a61329b565b906101000a900460ff1683828151811061274057fe5b911515602092830291909101909101526001016126f3565b600082815260016020526003816040812061171f61329b565b846000808061277e61329b565b906101000a90046001600160a01b03166001600160a01b031663dacb2d01836040518263ffffffff1660e01b81526004018082815260200180602001828103825260288152602001806134db602891396040019250505060206040518083038186806127e86132fb565b1580156127fd576000806127fa613230565b50505b505a612807613347565b5050505050158015612826573d6000803e3d6000612823613230565b50505b505050506040513d602081101561284557600080612842613230565b50505b81019080805193505050505a612859613400565b6001600160a01b0316816001600160a01b0316146128b15760405162461bcd60e51b815260040180806020018281038252602e815260200180613503602e9139604001915050604051809103906128ae613230565b50505b8483146128fb5760405162461bcd60e51b815260206004820152601860248201526000805160206135318339815191526044820152606401604051809103906128f8613230565b50505b60005b858110156110bf576129358888888481811061291657fe5b9050602002013587878581811061292957fe5b90506020020135612ebd565b6001016128fe565b6001602052806000526040600020905061295561329b565b81565b826000808061296561329b565b906101000a90046001600160a01b03166001600160a01b031663dacb2d01836040518263ffffffff1660e01b81526004018082815260200180602001828103825260288152602001806134db602891396040019250505060206040518083038186806129cf6132fb565b1580156129e4576000806129e1613230565b50505b505a6129ee613347565b5050505050158015612a0d573d6000803e3d6000612a0a613230565b50505b505050506040513d6020811015612a2c57600080612a29613230565b50505b81019080805193505050505a612a40613400565b6001600160a01b0316816001600160a01b031614612a985760405162461bcd60e51b815260040180806020018281038252602e815260200180613503602e913960400191505060405180910390612a95613230565b50505b610eec858585613111565b6000828152600160205260058160408120612abc61329b565b8152602001908152602001600020600083815260209190915260409020600090612ae461329b565b906101000a900460ff16905092915050565b600082815260016020526006816040812061171f61329b565b8460008080612b1c61329b565b906101000a90046001600160a01b03166001600160a01b031663dacb2d01836040518263ffffffff1660e01b81526004018082815260200180602001828103825260288152602001806134db60289139604001925050506020604051808303818680612b866132fb565b158015612b9b57600080612b98613230565b50505b505a612ba5613347565b5050505050158015612bc4573d6000803e3d6000612bc1613230565b50505b505050506040513d6020811015612be357600080612be0613230565b50505b81019080805193505050505a612bf7613400565b6001600160a01b0316816001600160a01b031614612c4f5760405162461bcd60e51b815260040180806020018281038252602e815260200180613503602e913960400191505060405180910390612c4c613230565b50505b848314612c995760405162461bcd60e51b81526020600482015260186024820152600080516020613531833981519152604482015260640160405180910390612c96613230565b50505b60005b858110156110bf57612cd588888884818110612cb457fe5b90506020020135878785818110612cc757fe5b905060200201351515613075565b600101612c9c565b8160008080612cea61329b565b906101000a90046001600160a01b03166001600160a01b031663dacb2d01836040518263ffffffff1660e01b81526004018082815260200180602001828103825260288152602001806134db60289139604001925050506020604051808303818680612d546132fb565b158015612d6957600080612d66613230565b50505b505a612d73613347565b5050505050158015612d92573d6000803e3d6000612d8f613230565b50505b505050506040513d6020811015612db157600080612dae613230565b50505b81019080805193505050505a612dc5613400565b6001600160a01b0316816001600160a01b031614612e1d5760405162461bcd60e51b815260040180806020018281038252602e815260200180613503602e913960400191505060405180910390612e1a613230565b50505b6000848152600160205260038160408120612e3661329b565b8152602001908152602001600020600085815260209190915260409020612e5b61329b565b90507f78962c711b5655608c554689ba42e4890d9e5d3f590b99842612ad39cd7ae0ae85858360405180848152602001838152602001828152602001935050505060405180910390a1600085815260016020526003906040812061159361329b565b8060066000612ecb86613195565b81526020019081526020016000206000848152602091909152604090208190612ef2613446565b5050507f961abb018d8a303304c9f1ff1f306c7493a8b68b381bbe4e9a3abf9588a9528083838360405180848152602001838152602001828152602001935050505060405180910390a1505050565b8060026000612f4f86613195565b81526020019081526020016000206000848152602091909152604090208190612f76613446565b5050507f60738523f766167cfd2310c61593dc795bc9d77de9276ed7e0c514df55e0a2c983838360405180848152602001838152602001828152602001935050505060405180910390a1505050565b8060046000612fd386613195565b8152602001908152602001600020600084815260209190915260409020600181612ffb61329b565b816001600160a01b0302191690836001600160a01b031602179061301d613446565b5050507f524fb430ecbfd4606a947f9ae445dbf7c9703944cf928789b86f3a8aad63936583838360405192835260208301919091526001600160a01b03166040808301919091526060909101905180910390a1505050565b806005600061308386613195565b81526020019081526020016000206000848152602091909152604090206001816130ab61329b565b8160ff021916908315150217906130c0613446565b5050507f9c94ad4cfff55907724cb65340f342d3897dd884e6cd3c2d3777087191d5eb7b838383604051928352602083019190915215156040808301919091526060909101905180910390a1505050565b806003600061311f86613195565b81526020019081526020016000206000848152602091909152604090208190613146613446565b5050507f0d8877f604dfe262a8ac3904781814f022156c9341af779608a2ae0beef1906c83838360405180848152602001838152602001828152602001935050505060405180910390a1505050565b6000818152600160205280604081206131ac61329b565b90508061322a575a6131bc613400565b835a6131c6613494565b60405160609390931b6bffffffffffffffffffffffff191660208401526034830191909152605482015260740160405160208183030381529060405280519060200120600084815260016020529091508190604090208190613226613446565b5050505b92915050565b632a2a7adb598160e01b8152600481016020815285602082015260005b8681101561326857808601518282016040015260200161324d565b506020828760640184336000905af158600e01573d6000803e3d6000fd5b3d6001141558600a015760016000f35b505050565b6303daa959598160e01b8152836004820152602081602483336000905af158600e01573d6000803e3d6000fd5b3d6001141558600a015760016000f35b8051935060005b60408110156132f6576000828201526020016132df565b505050565b638435035b598160e01b8152836004820152602081602483336000905af158600e01573d6000803e3d6000fd5b3d6001141558600a015760016000f35b805160008252935060206132df565b638540661f598160e01b8152836004820152846024820152606060448201528660648201526084810160005b8881101561338b578088015182820152602001613373565b50876101040182016060838a6101040185336000905af158600e01573d6000803e3d6000fd5b3d6001141558600a015760016000f35b825160408401513d6000863e8c8c82606088013350600060045af15059855b818110156133f457600081526020016133e0565b50919c50505050505050565b6373509064598160e01b8152602081600483336000905af158600e01573d6000803e3d6000fd5b3d6001141558600a015760016000f35b805160008252935060206132df565b6322bd64c0598160e01b8152836004820152846024820152600081604483336000905af158600e01573d6000803e3d6000fd5b3d6001141558600a015760016000f35b6000815260206132df565b635a98c361598160e01b8152602081600483336000905af158600e01573d6000803e3d6000fd5b3d6001141558600a015760016000f35b805160008252935060206132df56fe43616e6e6f742066696e6420636f6e747261637420696e2041646472657373205265736f6c76657243616e206f6e6c7920626520696e766f6b65642062792074686520636f6e6669677572656420636f6e7472616374496e707574206c656e67746873206d757374206d617463680000000000000000",
			"opcodes": "PUSH1 0x80 PUSH1 0x40 MSTORE CALLVALUE DUP1 ISZERO PUSH3 0x1C JUMPI PUSH1 0x0 DUP1 PUSH3 0x19 PUSH3 0x99 JUMP JUMPDEST POP POP JUMPDEST POP PUSH1 0x40 MLOAD PUSH3 0x3718 CODESIZE SUB DUP1 PUSH3 0x3718 DUP4 CODECOPY DUP2 DUP2 ADD PUSH1 0x40 MSTORE PUSH1 0x20 DUP2 LT ISZERO PUSH3 0x4D JUMPI PUSH1 0x0 DUP1 PUSH3 0x4A PUSH3 0x99 JUMP JUMPDEST POP POP JUMPDEST DUP2 ADD SWAP1 DUP1 DUP1 MLOAD SWAP3 POP DUP3 SWAP2 POP DUP2 SWAP1 POP PUSH1 0x0 PUSH1 0x1 DUP2 PUSH3 0x6A PUSH3 0x106 JUMP JUMPDEST DUP2 PUSH1 0x1 PUSH1 0x1 PUSH1 0xA0 SHL SUB MUL NOT AND SWAP1 DUP4 PUSH1 0x1 PUSH1 0x1 PUSH1 0xA0 SHL SUB AND MUL OR SWAP1 PUSH3 0x8E PUSH3 0x168 JUMP JUMPDEST POP POP POP POP POP PUSH3 0x1B7 JUMP JUMPDEST PUSH4 0x2A2A7ADB MSIZE DUP2 PUSH1 0xE0 SHL DUP2 MSTORE PUSH1 0x4 DUP2 ADD PUSH1 0x20 DUP2 MSTORE DUP6 PUSH1 0x20 DUP3 ADD MSTORE PUSH1 0x0 JUMPDEST DUP7 DUP2 LT ISZERO PUSH3 0xD3 JUMPI DUP1 DUP7 ADD MLOAD DUP3 DUP3 ADD PUSH1 0x40 ADD MSTORE PUSH1 0x20 ADD PUSH3 0xB6 JUMP JUMPDEST POP PUSH1 0x20 DUP3 DUP8 PUSH1 0x64 ADD DUP5 CALLER PUSH1 0x0 SWAP1 GAS CALL PC PUSH1 0xE ADD JUMPI RETURNDATASIZE PUSH1 0x0 DUP1 RETURNDATACOPY RETURNDATASIZE PUSH1 0x0 REVERT JUMPDEST RETURNDATASIZE PUSH1 0x1 EQ ISZERO PC PUSH1 0xA ADD JUMPI PUSH1 0x1 PUSH1 0x0 RETURN JUMPDEST POP POP POP JUMP JUMPDEST PUSH4 0x3DAA959 MSIZE DUP2 PUSH1 0xE0 SHL DUP2 MSTORE DUP4 PUSH1 0x4 DUP3 ADD MSTORE PUSH1 0x20 DUP2 PUSH1 0x24 DUP4 CALLER PUSH1 0x0 SWAP1 GAS CALL PC PUSH1 0xE ADD JUMPI RETURNDATASIZE PUSH1 0x0 DUP1 RETURNDATACOPY RETURNDATASIZE PUSH1 0x0 REVERT JUMPDEST RETURNDATASIZE PUSH1 0x1 EQ ISZERO PC PUSH1 0xA ADD JUMPI PUSH1 0x1 PUSH1 0x0 RETURN JUMPDEST DUP1 MLOAD SWAP4 POP PUSH1 0x0 JUMPDEST PUSH1 0x40 DUP2 LT ISZERO PUSH3 0x163 JUMPI PUSH1 0x0 DUP3 DUP3 ADD MSTORE PUSH1 0x20 ADD PUSH3 0x14A JUMP JUMPDEST POP POP POP JUMP JUMPDEST PUSH4 0x22BD64C0 MSIZE DUP2 PUSH1 0xE0 SHL DUP2 MSTORE DUP4 PUSH1 0x4 DUP3 ADD MSTORE DUP5 PUSH1 0x24 DUP3 ADD MSTORE PUSH1 0x0 DUP2 PUSH1 0x44 DUP4 CALLER PUSH1 0x0 SWAP1 GAS CALL PC PUSH1 0xE ADD JUMPI RETURNDATASIZE PUSH1 0x0 DUP1 RETURNDATACOPY RETURNDATASIZE PUSH1 0x0 REVERT JUMPDEST RETURNDATASIZE PUSH1 0x1 EQ ISZERO PC PUSH1 0xA ADD JUMPI PUSH1 0x1 PUSH1 0x0 RETURN JUMPDEST PUSH1 0x0 DUP2 MSTORE PUSH1 0x20 PUSH3 0x14A JUMP JUMPDEST PUSH2 0x3551 DUP1 PUSH3 0x1C7 PUSH1 0x0 CODECOPY PUSH1 0x0 RETURN INVALID PUSH1 0x80 PUSH1 0x40 MSTORE CALLVALUE DUP1 ISZERO PUSH2 0x19 JUMPI PUSH1 0x0 DUP1 PUSH2 0x16 PUSH2 0x3230 JUMP JUMPDEST POP POP JUMPDEST POP PUSH1 0x4 CALLDATASIZE LT PUSH2 0x1CC JUMPI PUSH1 0x0 CALLDATALOAD PUSH1 0xE0 SHR DUP1 PUSH4 0x8CA0ADAF GT PUSH2 0x102 JUMPI DUP1 PUSH4 0xC89EB562 GT PUSH2 0xA0 JUMPI DUP1 PUSH4 0xD994502D GT PUSH2 0x7A JUMPI DUP1 PUSH4 0xD994502D EQ PUSH2 0xC05 JUMPI DUP1 PUSH4 0xF7833C5D EQ PUSH2 0xC45 JUMPI DUP1 PUSH4 0xF9C39D2F EQ PUSH2 0xC71 JUMPI DUP1 PUSH4 0xFDFC4C13 EQ PUSH2 0xD75 JUMPI PUSH2 0x1CC JUMP JUMPDEST DUP1 PUSH4 0xC89EB562 EQ PUSH2 0xAA9 JUMPI DUP1 PUSH4 0xD658D2E9 EQ PUSH2 0xBAD JUMPI DUP1 PUSH4 0xD71A9B01 EQ PUSH2 0xBD3 JUMPI PUSH2 0x1CC JUMP JUMPDEST DUP1 PUSH4 0xAB15985D GT PUSH2 0xDC JUMPI DUP1 PUSH4 0xAB15985D EQ PUSH2 0x847 JUMPI DUP1 PUSH4 0xB67FA7ED EQ PUSH2 0x94B JUMPI DUP1 PUSH4 0xC13A2B0C EQ PUSH2 0x9E4 JUMPI DUP1 PUSH4 0xC4F610ED EQ PUSH2 0xA7D JUMPI PUSH2 0x1CC JUMP JUMPDEST DUP1 PUSH4 0x8CA0ADAF EQ PUSH2 0x756 JUMPI DUP1 PUSH4 0x8F6B95A3 EQ PUSH2 0x7EF JUMPI DUP1 PUSH4 0x9EE5955A EQ PUSH2 0x81B JUMPI PUSH2 0x1CC JUMP JUMPDEST DUP1 PUSH4 0x35AB2708 GT PUSH2 0x16F JUMPI DUP1 PUSH4 0x4DCA0978 GT PUSH2 0x149 JUMPI DUP1 PUSH4 0x4DCA0978 EQ PUSH2 0x62A JUMPI DUP1 PUSH4 0x5BDA91E2 EQ PUSH2 0x665 JUMPI DUP1 PUSH4 0x6A59E495 EQ PUSH2 0x699 JUMPI DUP1 PUSH4 0x8408A5E5 EQ PUSH2 0x6BD JUMPI PUSH2 0x1CC JUMP JUMPDEST DUP1 PUSH4 0x35AB2708 EQ PUSH2 0x4C6 JUMPI DUP1 PUSH4 0x3BD6AD89 EQ PUSH2 0x4F2 JUMPI DUP1 PUSH4 0x3F28A6FC EQ PUSH2 0x5F6 JUMPI PUSH2 0x1CC JUMP JUMPDEST DUP1 PUSH4 0x1625E3EF GT PUSH2 0x1AB JUMPI DUP1 PUSH4 0x1625E3EF EQ PUSH2 0x3FE JUMPI DUP1 PUSH4 0x18F662ED EQ PUSH2 0x42A JUMPI DUP1 PUSH4 0x1D5B277F EQ PUSH2 0x456 JUMPI DUP1 PUSH4 0x23257C2B EQ PUSH2 0x488 JUMPI PUSH2 0x1CC JUMP JUMPDEST DUP1 PUSH3 0x4B62D6 EQ PUSH2 0x1DA JUMPI DUP1 PUSH4 0x3CDC017 EQ PUSH2 0x20E JUMPI DUP1 PUSH4 0x142A391E EQ PUSH2 0x312 JUMPI JUMPDEST PUSH1 0x0 DUP1 PUSH2 0x1D7 PUSH2 0x3230 JUMP JUMPDEST POP POP JUMPDEST PUSH2 0x20C PUSH1 0x4 DUP1 CALLDATASIZE SUB PUSH1 0x60 DUP2 LT ISZERO PUSH2 0x1F9 JUMPI PUSH1 0x0 DUP1 PUSH2 0x1F6 PUSH2 0x3230 JUMP JUMPDEST POP POP JUMPDEST POP DUP1 CALLDATALOAD SWAP1 PUSH1 0x20 DUP2 ADD CALLDATALOAD SWAP1 PUSH1 0x40 ADD CALLDATALOAD PUSH2 0xDA1 JUMP JUMPDEST STOP JUMPDEST PUSH2 0x20C PUSH1 0x4 DUP1 CALLDATASIZE SUB PUSH1 0x60 DUP2 LT ISZERO PUSH2 0x22D JUMPI PUSH1 0x0 DUP1 PUSH2 0x22A PUSH2 0x3230 JUMP JUMPDEST POP POP JUMPDEST DUP2 CALLDATALOAD SWAP2 SWAP1 DUP2 ADD SWAP1 PUSH1 0x40 DUP2 ADD PUSH1 0x20 DUP3 ADD CALLDATALOAD PUSH1 0x1 PUSH1 0x20 SHL DUP2 GT ISZERO PUSH2 0x257 JUMPI PUSH1 0x0 DUP1 PUSH2 0x254 PUSH2 0x3230 JUMP JUMPDEST POP POP JUMPDEST DUP3 ADD DUP4 PUSH1 0x20 DUP3 ADD GT ISZERO PUSH2 0x272 JUMPI PUSH1 0x0 DUP1 PUSH2 0x26F PUSH2 0x3230 JUMP JUMPDEST POP POP JUMPDEST DUP1 CALLDATALOAD SWAP1 PUSH1 0x20 ADD SWAP2 DUP5 PUSH1 0x20 DUP4 MUL DUP5 ADD GT PUSH1 0x1 PUSH1 0x20 SHL DUP4 GT OR ISZERO PUSH2 0x29C JUMPI PUSH1 0x0 DUP1 PUSH2 0x299 PUSH2 0x3230 JUMP JUMPDEST POP POP JUMPDEST SWAP2 SWAP4 SWAP1 SWAP3 SWAP1 SWAP2 PUSH1 0x20 DUP2 ADD SWAP1 CALLDATALOAD PUSH1 0x1 PUSH1 0x20 SHL DUP2 GT ISZERO PUSH2 0x2C2 JUMPI PUSH1 0x0 DUP1 PUSH2 0x2BF PUSH2 0x3230 JUMP JUMPDEST POP POP JUMPDEST DUP3 ADD DUP4 PUSH1 0x20 DUP3 ADD GT ISZERO PUSH2 0x2DD JUMPI PUSH1 0x0 DUP1 PUSH2 0x2DA PUSH2 0x3230 JUMP JUMPDEST POP POP JUMPDEST DUP1 CALLDATALOAD SWAP1 PUSH1 0x20 ADD SWAP2 DUP5 PUSH1 0x20 DUP4 MUL DUP5 ADD GT PUSH1 0x1 PUSH1 0x20 SHL DUP4 GT OR ISZERO PUSH2 0x307 JUMPI PUSH1 0x0 DUP1 PUSH2 0x304 PUSH2 0x3230 JUMP JUMPDEST POP POP JUMPDEST POP SWAP1 SWAP3 POP SWAP1 POP PUSH2 0xEF3 JUMP JUMPDEST PUSH2 0x3AB PUSH1 0x4 DUP1 CALLDATASIZE SUB PUSH1 0x40 DUP2 LT ISZERO PUSH2 0x331 JUMPI PUSH1 0x0 DUP1 PUSH2 0x32E PUSH2 0x3230 JUMP JUMPDEST POP POP JUMPDEST DUP2 CALLDATALOAD SWAP2 SWAP1 DUP2 ADD SWAP1 PUSH1 0x40 DUP2 ADD PUSH1 0x20 DUP3 ADD CALLDATALOAD PUSH1 0x1 PUSH1 0x20 SHL DUP2 GT ISZERO PUSH2 0x35B JUMPI PUSH1 0x0 DUP1 PUSH2 0x358 PUSH2 0x3230 JUMP JUMPDEST POP POP JUMPDEST DUP3 ADD DUP4 PUSH1 0x20 DUP3 ADD GT ISZERO PUSH2 0x376 JUMPI PUSH1 0x0 DUP1 PUSH2 0x373 PUSH2 0x3230 JUMP JUMPDEST POP POP JUMPDEST DUP1 CALLDATALOAD SWAP1 PUSH1 0x20 ADD SWAP2 DUP5 PUSH1 0x20 DUP4 MUL DUP5 ADD GT PUSH1 0x1 PUSH1 0x20 SHL DUP4 GT OR ISZERO PUSH2 0x3A0 JUMPI PUSH1 0x0 DUP1 PUSH2 0x39D PUSH2 0x3230 JUMP JUMPDEST POP POP JUMPDEST POP SWAP1 SWAP3 POP SWAP1 POP PUSH2 0x10C9 JUMP JUMPDEST PUSH1 0x40 MLOAD PUSH1 0x20 DUP1 DUP3 MSTORE DUP2 SWAP1 DUP2 ADD DUP4 DUP2 DUP2 MLOAD DUP2 MSTORE PUSH1 0x20 ADD SWAP2 POP DUP1 MLOAD SWAP1 PUSH1 0x20 ADD SWAP1 PUSH1 0x20 MUL DUP1 DUP4 DUP4 PUSH1 0x0 JUMPDEST DUP4 DUP2 LT ISZERO PUSH2 0x3EA JUMPI DUP1 DUP3 ADD MLOAD DUP4 DUP3 ADD MSTORE PUSH1 0x20 ADD PUSH2 0x3D2 JUMP JUMPDEST POP POP POP POP SWAP1 POP ADD SWAP3 POP POP POP PUSH1 0x40 MLOAD DUP1 SWAP2 SUB SWAP1 RETURN JUMPDEST PUSH2 0x20C PUSH1 0x4 DUP1 CALLDATASIZE SUB PUSH1 0x40 DUP2 LT ISZERO PUSH2 0x41D JUMPI PUSH1 0x0 DUP1 PUSH2 0x41A PUSH2 0x3230 JUMP JUMPDEST POP POP JUMPDEST POP DUP1 CALLDATALOAD SWAP1 PUSH1 0x20 ADD CALLDATALOAD PUSH2 0x1184 JUMP JUMPDEST PUSH2 0x20C PUSH1 0x4 DUP1 CALLDATASIZE SUB PUSH1 0x40 DUP2 LT ISZERO PUSH2 0x449 JUMPI PUSH1 0x0 DUP1 PUSH2 0x446 PUSH2 0x3230 JUMP JUMPDEST POP POP JUMPDEST POP DUP1 CALLDATALOAD SWAP1 PUSH1 0x20 ADD CALLDATALOAD PUSH2 0x13B3 JUMP JUMPDEST PUSH2 0x20C PUSH1 0x4 DUP1 CALLDATASIZE SUB PUSH1 0x60 DUP2 LT ISZERO PUSH2 0x475 JUMPI PUSH1 0x0 DUP1 PUSH2 0x472 PUSH2 0x3230 JUMP JUMPDEST POP POP JUMPDEST POP DUP1 CALLDATALOAD SWAP1 PUSH1 0x20 DUP2 ADD CALLDATALOAD SWAP1 PUSH1 0x40 ADD CALLDATALOAD PUSH2 0x15BB JUMP JUMPDEST PUSH2 0x4B4 PUSH1 0x4 DUP1 CALLDATASIZE SUB PUSH1 0x40 DUP2 LT ISZERO PUSH2 0x4A7 JUMPI PUSH1 0x0 DUP1 PUSH2 0x4A4 PUSH2 0x3230 JUMP JUMPDEST POP POP JUMPDEST POP DUP1 CALLDATALOAD SWAP1 PUSH1 0x20 ADD CALLDATALOAD PUSH2 0x1706 JUMP JUMPDEST PUSH1 0x40 MLOAD SWAP1 DUP2 MSTORE PUSH1 0x20 ADD PUSH1 0x40 MLOAD DUP1 SWAP2 SUB SWAP1 RETURN JUMPDEST PUSH2 0x20C PUSH1 0x4 DUP1 CALLDATASIZE SUB PUSH1 0x40 DUP2 LT ISZERO PUSH2 0x4E5 JUMPI PUSH1 0x0 DUP1 PUSH2 0x4E2 PUSH2 0x3230 JUMP JUMPDEST POP POP JUMPDEST POP DUP1 CALLDATALOAD SWAP1 PUSH1 0x20 ADD CALLDATALOAD PUSH2 0x174B JUMP JUMPDEST PUSH2 0x20C PUSH1 0x4 DUP1 CALLDATASIZE SUB PUSH1 0x60 DUP2 LT ISZERO PUSH2 0x511 JUMPI PUSH1 0x0 DUP1 PUSH2 0x50E PUSH2 0x3230 JUMP JUMPDEST POP POP JUMPDEST DUP2 CALLDATALOAD SWAP2 SWAP1 DUP2 ADD SWAP1 PUSH1 0x40 DUP2 ADD PUSH1 0x20 DUP3 ADD CALLDATALOAD PUSH1 0x1 PUSH1 0x20 SHL DUP2 GT ISZERO PUSH2 0x53B JUMPI PUSH1 0x0 DUP1 PUSH2 0x538 PUSH2 0x3230 JUMP JUMPDEST POP POP JUMPDEST DUP3 ADD DUP4 PUSH1 0x20 DUP3 ADD GT ISZERO PUSH2 0x556 JUMPI PUSH1 0x0 DUP1 PUSH2 0x553 PUSH2 0x3230 JUMP JUMPDEST POP POP JUMPDEST DUP1 CALLDATALOAD SWAP1 PUSH1 0x20 ADD SWAP2 DUP5 PUSH1 0x20 DUP4 MUL DUP5 ADD GT PUSH1 0x1 PUSH1 0x20 SHL DUP4 GT OR ISZERO PUSH2 0x580 JUMPI PUSH1 0x0 DUP1 PUSH2 0x57D PUSH2 0x3230 JUMP JUMPDEST POP POP JUMPDEST SWAP2 SWAP4 SWAP1 SWAP3 SWAP1 SWAP2 PUSH1 0x20 DUP2 ADD SWAP1 CALLDATALOAD PUSH1 0x1 PUSH1 0x20 SHL DUP2 GT ISZERO PUSH2 0x5A6 JUMPI PUSH1 0x0 DUP1 PUSH2 0x5A3 PUSH2 0x3230 JUMP JUMPDEST POP POP JUMPDEST DUP3 ADD DUP4 PUSH1 0x20 DUP3 ADD GT ISZERO PUSH2 0x5C1 JUMPI PUSH1 0x0 DUP1 PUSH2 0x5BE PUSH2 0x3230 JUMP JUMPDEST POP POP JUMPDEST DUP1 CALLDATALOAD SWAP1 PUSH1 0x20 ADD SWAP2 DUP5 PUSH1 0x20 DUP4 MUL DUP5 ADD GT PUSH1 0x1 PUSH1 0x20 SHL DUP4 GT OR ISZERO PUSH2 0x5EB JUMPI PUSH1 0x0 DUP1 PUSH2 0x5E8 PUSH2 0x3230 JUMP JUMPDEST POP POP JUMPDEST POP SWAP1 SWAP3 POP SWAP1 POP PUSH2 0x192B JUMP JUMPDEST PUSH2 0x20C PUSH1 0x4 DUP1 CALLDATASIZE SUB PUSH1 0x60 DUP2 LT ISZERO PUSH2 0x615 JUMPI PUSH1 0x0 DUP1 PUSH2 0x612 PUSH2 0x3230 JUMP JUMPDEST POP POP JUMPDEST POP DUP1 CALLDATALOAD SWAP1 PUSH1 0x20 DUP2 ADD CALLDATALOAD SWAP1 PUSH1 0x40 ADD CALLDATALOAD ISZERO ISZERO PUSH2 0x1B00 JUMP JUMPDEST PUSH2 0x20C PUSH1 0x4 DUP1 CALLDATASIZE SUB PUSH1 0x60 DUP2 LT ISZERO PUSH2 0x649 JUMPI PUSH1 0x0 DUP1 PUSH2 0x646 PUSH2 0x3230 JUMP JUMPDEST POP POP JUMPDEST POP DUP1 CALLDATALOAD SWAP1 PUSH1 0x20 DUP2 ADD CALLDATALOAD SWAP1 PUSH1 0x40 ADD CALLDATALOAD PUSH1 0x1 PUSH1 0x1 PUSH1 0xA0 SHL SUB AND PUSH2 0x1C4B JUMP JUMPDEST PUSH2 0x20C PUSH1 0x4 DUP1 CALLDATASIZE SUB PUSH1 0x60 DUP2 LT ISZERO PUSH2 0x684 JUMPI PUSH1 0x0 DUP1 PUSH2 0x681 PUSH2 0x3230 JUMP JUMPDEST POP POP JUMPDEST POP DUP1 CALLDATALOAD SWAP1 PUSH1 0x20 DUP2 ADD CALLDATALOAD SWAP1 PUSH1 0x40 ADD CALLDATALOAD ISZERO ISZERO PUSH2 0x1D96 JUMP JUMPDEST PUSH2 0x6A1 PUSH2 0x1FEA JUMP JUMPDEST PUSH1 0x40 MLOAD PUSH1 0x1 PUSH1 0x1 PUSH1 0xA0 SHL SUB SWAP1 SWAP2 AND DUP2 MSTORE PUSH1 0x20 ADD PUSH1 0x40 MLOAD DUP1 SWAP2 SUB SWAP1 RETURN JUMPDEST PUSH2 0x3AB PUSH1 0x4 DUP1 CALLDATASIZE SUB PUSH1 0x40 DUP2 LT ISZERO PUSH2 0x6DC JUMPI PUSH1 0x0 DUP1 PUSH2 0x6D9 PUSH2 0x3230 JUMP JUMPDEST POP POP JUMPDEST DUP2 CALLDATALOAD SWAP2 SWAP1 DUP2 ADD SWAP1 PUSH1 0x40 DUP2 ADD PUSH1 0x20 DUP3 ADD CALLDATALOAD PUSH1 0x1 PUSH1 0x20 SHL DUP2 GT ISZERO PUSH2 0x706 JUMPI PUSH1 0x0 DUP1 PUSH2 0x703 PUSH2 0x3230 JUMP JUMPDEST POP POP JUMPDEST DUP3 ADD DUP4 PUSH1 0x20 DUP3 ADD GT ISZERO PUSH2 0x721 JUMPI PUSH1 0x0 DUP1 PUSH2 0x71E PUSH2 0x3230 JUMP JUMPDEST POP POP JUMPDEST DUP1 CALLDATALOAD SWAP1 PUSH1 0x20 ADD SWAP2 DUP5 PUSH1 0x20 DUP4 MUL DUP5 ADD GT PUSH1 0x1 PUSH1 0x20 SHL DUP4 GT OR ISZERO PUSH2 0x74B JUMPI PUSH1 0x0 DUP1 PUSH2 0x748 PUSH2 0x3230 JUMP JUMPDEST POP POP JUMPDEST POP SWAP1 SWAP3 POP SWAP1 POP PUSH2 0x2008 JUMP JUMPDEST PUSH2 0x3AB PUSH1 0x4 DUP1 CALLDATASIZE SUB PUSH1 0x40 DUP2 LT ISZERO PUSH2 0x775 JUMPI PUSH1 0x0 DUP1 PUSH2 0x772 PUSH2 0x3230 JUMP JUMPDEST POP POP JUMPDEST DUP2 CALLDATALOAD SWAP2 SWAP1 DUP2 ADD SWAP1 PUSH1 0x40 DUP2 ADD PUSH1 0x20 DUP3 ADD CALLDATALOAD PUSH1 0x1 PUSH1 0x20 SHL DUP2 GT ISZERO PUSH2 0x79F JUMPI PUSH1 0x0 DUP1 PUSH2 0x79C PUSH2 0x3230 JUMP JUMPDEST POP POP JUMPDEST DUP3 ADD DUP4 PUSH1 0x20 DUP3 ADD GT ISZERO PUSH2 0x7BA JUMPI PUSH1 0x0 DUP1 PUSH2 0x7B7 PUSH2 0x3230 JUMP JUMPDEST POP POP JUMPDEST DUP1 CALLDATALOAD SWAP1 PUSH1 0x20 ADD SWAP2 DUP5 PUSH1 0x20 DUP4 MUL DUP5 ADD GT PUSH1 0x1 PUSH1 0x20 SHL DUP4 GT OR ISZERO PUSH2 0x7E4 JUMPI PUSH1 0x0 DUP1 PUSH2 0x7E1 PUSH2 0x3230 JUMP JUMPDEST POP POP JUMPDEST POP SWAP1 SWAP3 POP SWAP1 POP PUSH2 0x20B8 JUMP JUMPDEST PUSH2 0x20C PUSH1 0x4 DUP1 CALLDATASIZE SUB PUSH1 0x40 DUP2 LT ISZERO PUSH2 0x80E JUMPI PUSH1 0x0 DUP1 PUSH2 0x80B PUSH2 0x3230 JUMP JUMPDEST POP POP JUMPDEST POP DUP1 CALLDATALOAD SWAP1 PUSH1 0x20 ADD CALLDATALOAD PUSH2 0x2188 JUMP JUMPDEST PUSH2 0x6A1 PUSH1 0x4 DUP1 CALLDATASIZE SUB PUSH1 0x40 DUP2 LT ISZERO PUSH2 0x83A JUMPI PUSH1 0x0 DUP1 PUSH2 0x837 PUSH2 0x3230 JUMP JUMPDEST POP POP JUMPDEST POP DUP1 CALLDATALOAD SWAP1 PUSH1 0x20 ADD CALLDATALOAD PUSH2 0x23C1 JUMP JUMPDEST PUSH2 0x20C PUSH1 0x4 DUP1 CALLDATASIZE SUB PUSH1 0x60 DUP2 LT ISZERO PUSH2 0x866 JUMPI PUSH1 0x0 DUP1 PUSH2 0x863 PUSH2 0x3230 JUMP JUMPDEST POP POP JUMPDEST DUP2 CALLDATALOAD SWAP2 SWAP1 DUP2 ADD SWAP1 PUSH1 0x40 DUP2 ADD PUSH1 0x20 DUP3 ADD CALLDATALOAD PUSH1 0x1 PUSH1 0x20 SHL DUP2 GT ISZERO PUSH2 0x890 JUMPI PUSH1 0x0 DUP1 PUSH2 0x88D PUSH2 0x3230 JUMP JUMPDEST POP POP JUMPDEST DUP3 ADD DUP4 PUSH1 0x20 DUP3 ADD GT ISZERO PUSH2 0x8AB JUMPI PUSH1 0x0 DUP1 PUSH2 0x8A8 PUSH2 0x3230 JUMP JUMPDEST POP POP JUMPDEST DUP1 CALLDATALOAD SWAP1 PUSH1 0x20 ADD SWAP2 DUP5 PUSH1 0x20 DUP4 MUL DUP5 ADD GT PUSH1 0x1 PUSH1 0x20 SHL DUP4 GT OR ISZERO PUSH2 0x8D5 JUMPI PUSH1 0x0 DUP1 PUSH2 0x8D2 PUSH2 0x3230 JUMP JUMPDEST POP POP JUMPDEST SWAP2 SWAP4 SWAP1 SWAP3 SWAP1 SWAP2 PUSH1 0x20 DUP2 ADD SWAP1 CALLDATALOAD PUSH1 0x1 PUSH1 0x20 SHL DUP2 GT ISZERO PUSH2 0x8FB JUMPI PUSH1 0x0 DUP1 PUSH2 0x8F8 PUSH2 0x3230 JUMP JUMPDEST POP POP JUMPDEST DUP3 ADD DUP4 PUSH1 0x20 DUP3 ADD GT ISZERO PUSH2 0x916 JUMPI PUSH1 0x0 DUP1 PUSH2 0x913 PUSH2 0x3230 JUMP JUMPDEST POP POP JUMPDEST DUP1 CALLDATALOAD SWAP1 PUSH1 0x20 ADD SWAP2 DUP5 PUSH1 0x20 DUP4 MUL DUP5 ADD GT PUSH1 0x1 PUSH1 0x20 SHL DUP4 GT OR ISZERO PUSH2 0x940 JUMPI PUSH1 0x0 DUP1 PUSH2 0x93D PUSH2 0x3230 JUMP JUMPDEST POP POP JUMPDEST POP SWAP1 SWAP3 POP SWAP1 POP PUSH2 0x241A JUMP JUMPDEST PUSH2 0x3AB PUSH1 0x4 DUP1 CALLDATASIZE SUB PUSH1 0x40 DUP2 LT ISZERO PUSH2 0x96A JUMPI PUSH1 0x0 DUP1 PUSH2 0x967 PUSH2 0x3230 JUMP JUMPDEST POP POP JUMPDEST DUP2 CALLDATALOAD SWAP2 SWAP1 DUP2 ADD SWAP1 PUSH1 0x40 DUP2 ADD PUSH1 0x20 DUP3 ADD CALLDATALOAD PUSH1 0x1 PUSH1 0x20 SHL DUP2 GT ISZERO PUSH2 0x994 JUMPI PUSH1 0x0 DUP1 PUSH2 0x991 PUSH2 0x3230 JUMP JUMPDEST POP POP JUMPDEST DUP3 ADD DUP4 PUSH1 0x20 DUP3 ADD GT ISZERO PUSH2 0x9AF JUMPI PUSH1 0x0 DUP1 PUSH2 0x9AC PUSH2 0x3230 JUMP JUMPDEST POP POP JUMPDEST DUP1 CALLDATALOAD SWAP1 PUSH1 0x20 ADD SWAP2 DUP5 PUSH1 0x20 DUP4 MUL DUP5 ADD GT PUSH1 0x1 PUSH1 0x20 SHL DUP4 GT OR ISZERO PUSH2 0x9D9 JUMPI PUSH1 0x0 DUP1 PUSH2 0x9D6 PUSH2 0x3230 JUMP JUMPDEST POP POP JUMPDEST POP SWAP1 SWAP3 POP SWAP1 POP PUSH2 0x25E6 JUMP JUMPDEST PUSH2 0x3AB PUSH1 0x4 DUP1 CALLDATASIZE SUB PUSH1 0x40 DUP2 LT ISZERO PUSH2 0xA03 JUMPI PUSH1 0x0 DUP1 PUSH2 0xA00 PUSH2 0x3230 JUMP JUMPDEST POP POP JUMPDEST DUP2 CALLDATALOAD SWAP2 SWAP1 DUP2 ADD SWAP1 PUSH1 0x40 DUP2 ADD PUSH1 0x20 DUP3 ADD CALLDATALOAD PUSH1 0x1 PUSH1 0x20 SHL DUP2 GT ISZERO PUSH2 0xA2D JUMPI PUSH1 0x0 DUP1 PUSH2 0xA2A PUSH2 0x3230 JUMP JUMPDEST POP POP JUMPDEST DUP3 ADD DUP4 PUSH1 0x20 DUP3 ADD GT ISZERO PUSH2 0xA48 JUMPI PUSH1 0x0 DUP1 PUSH2 0xA45 PUSH2 0x3230 JUMP JUMPDEST POP POP JUMPDEST DUP1 CALLDATALOAD SWAP1 PUSH1 0x20 ADD SWAP2 DUP5 PUSH1 0x20 DUP4 MUL DUP5 ADD GT PUSH1 0x1 PUSH1 0x20 SHL DUP4 GT OR ISZERO PUSH2 0xA72 JUMPI PUSH1 0x0 DUP1 PUSH2 0xA6F PUSH2 0x3230 JUMP JUMPDEST POP POP JUMPDEST POP SWAP1 SWAP3 POP SWAP1 POP PUSH2 0x2696 JUMP JUMPDEST PUSH2 0x4B4 PUSH1 0x4 DUP1 CALLDATASIZE SUB PUSH1 0x40 DUP2 LT ISZERO PUSH2 0xA9C JUMPI PUSH1 0x0 DUP1 PUSH2 0xA99 PUSH2 0x3230 JUMP JUMPDEST POP POP JUMPDEST POP DUP1 CALLDATALOAD SWAP1 PUSH1 0x20 ADD CALLDATALOAD PUSH2 0x2758 JUMP JUMPDEST PUSH2 0x20C PUSH1 0x4 DUP1 CALLDATASIZE SUB PUSH1 0x60 DUP2 LT ISZERO PUSH2 0xAC8 JUMPI PUSH1 0x0 DUP1 PUSH2 0xAC5 PUSH2 0x3230 JUMP JUMPDEST POP POP JUMPDEST DUP2 CALLDATALOAD SWAP2 SWAP1 DUP2 ADD SWAP1 PUSH1 0x40 DUP2 ADD PUSH1 0x20 DUP3 ADD CALLDATALOAD PUSH1 0x1 PUSH1 0x20 SHL DUP2 GT ISZERO PUSH2 0xAF2 JUMPI PUSH1 0x0 DUP1 PUSH2 0xAEF PUSH2 0x3230 JUMP JUMPDEST POP POP JUMPDEST DUP3 ADD DUP4 PUSH1 0x20 DUP3 ADD GT ISZERO PUSH2 0xB0D JUMPI PUSH1 0x0 DUP1 PUSH2 0xB0A PUSH2 0x3230 JUMP JUMPDEST POP POP JUMPDEST DUP1 CALLDATALOAD SWAP1 PUSH1 0x20 ADD SWAP2 DUP5 PUSH1 0x20 DUP4 MUL DUP5 ADD GT PUSH1 0x1 PUSH1 0x20 SHL DUP4 GT OR ISZERO PUSH2 0xB37 JUMPI PUSH1 0x0 DUP1 PUSH2 0xB34 PUSH2 0x3230 JUMP JUMPDEST POP POP JUMPDEST SWAP2 SWAP4 SWAP1 SWAP3 SWAP1 SWAP2 PUSH1 0x20 DUP2 ADD SWAP1 CALLDATALOAD PUSH1 0x1 PUSH1 0x20 SHL DUP2 GT ISZERO PUSH2 0xB5D JUMPI PUSH1 0x0 DUP1 PUSH2 0xB5A PUSH2 0x3230 JUMP JUMPDEST POP POP JUMPDEST DUP3 ADD DUP4 PUSH1 0x20 DUP3 ADD GT ISZERO PUSH2 0xB78 JUMPI PUSH1 0x0 DUP1 PUSH2 0xB75 PUSH2 0x3230 JUMP JUMPDEST POP POP JUMPDEST DUP1 CALLDATALOAD SWAP1 PUSH1 0x20 ADD SWAP2 DUP5 PUSH1 0x20 DUP4 MUL DUP5 ADD GT PUSH1 0x1 PUSH1 0x20 SHL DUP4 GT OR ISZERO PUSH2 0xBA2 JUMPI PUSH1 0x0 DUP1 PUSH2 0xB9F PUSH2 0x3230 JUMP JUMPDEST POP POP JUMPDEST POP SWAP1 SWAP3 POP SWAP1 POP PUSH2 0x2771 JUMP JUMPDEST PUSH2 0x4B4 PUSH1 0x4 DUP1 CALLDATASIZE SUB PUSH1 0x20 DUP2 LT ISZERO PUSH2 0xBCC JUMPI PUSH1 0x0 DUP1 PUSH2 0xBC9 PUSH2 0x3230 JUMP JUMPDEST POP POP JUMPDEST POP CALLDATALOAD PUSH2 0x293D JUMP JUMPDEST PUSH2 0x20C PUSH1 0x4 DUP1 CALLDATASIZE SUB PUSH1 0x60 DUP2 LT ISZERO PUSH2 0xBF2 JUMPI PUSH1 0x0 DUP1 PUSH2 0xBEF PUSH2 0x3230 JUMP JUMPDEST POP POP JUMPDEST POP DUP1 CALLDATALOAD SWAP1 PUSH1 0x20 DUP2 ADD CALLDATALOAD SWAP1 PUSH1 0x40 ADD CALLDATALOAD PUSH2 0x2958 JUMP JUMPDEST PUSH2 0xC31 PUSH1 0x4 DUP1 CALLDATASIZE SUB PUSH1 0x40 DUP2 LT ISZERO PUSH2 0xC24 JUMPI PUSH1 0x0 DUP1 PUSH2 0xC21 PUSH2 0x3230 JUMP JUMPDEST POP POP JUMPDEST POP DUP1 CALLDATALOAD SWAP1 PUSH1 0x20 ADD CALLDATALOAD PUSH2 0x2AA3 JUMP JUMPDEST PUSH1 0x40 MLOAD SWAP1 ISZERO ISZERO DUP2 MSTORE PUSH1 0x20 ADD PUSH1 0x40 MLOAD DUP1 SWAP2 SUB SWAP1 RETURN JUMPDEST PUSH2 0x4B4 PUSH1 0x4 DUP1 CALLDATASIZE SUB PUSH1 0x40 DUP2 LT ISZERO PUSH2 0xC64 JUMPI PUSH1 0x0 DUP1 PUSH2 0xC61 PUSH2 0x3230 JUMP JUMPDEST POP POP JUMPDEST POP DUP1 CALLDATALOAD SWAP1 PUSH1 0x20 ADD CALLDATALOAD PUSH2 0x2AF6 JUMP JUMPDEST PUSH2 0x20C PUSH1 0x4 DUP1 CALLDATASIZE SUB PUSH1 0x60 DUP2 LT ISZERO PUSH2 0xC90 JUMPI PUSH1 0x0 DUP1 PUSH2 0xC8D PUSH2 0x3230 JUMP JUMPDEST POP POP JUMPDEST DUP2 CALLDATALOAD SWAP2 SWAP1 DUP2 ADD SWAP1 PUSH1 0x40 DUP2 ADD PUSH1 0x20 DUP3 ADD CALLDATALOAD PUSH1 0x1 PUSH1 0x20 SHL DUP2 GT ISZERO PUSH2 0xCBA JUMPI PUSH1 0x0 DUP1 PUSH2 0xCB7 PUSH2 0x3230 JUMP JUMPDEST POP POP JUMPDEST DUP3 ADD DUP4 PUSH1 0x20 DUP3 ADD GT ISZERO PUSH2 0xCD5 JUMPI PUSH1 0x0 DUP1 PUSH2 0xCD2 PUSH2 0x3230 JUMP JUMPDEST POP POP JUMPDEST DUP1 CALLDATALOAD SWAP1 PUSH1 0x20 ADD SWAP2 DUP5 PUSH1 0x20 DUP4 MUL DUP5 ADD GT PUSH1 0x1 PUSH1 0x20 SHL DUP4 GT OR ISZERO PUSH2 0xCFF JUMPI PUSH1 0x0 DUP1 PUSH2 0xCFC PUSH2 0x3230 JUMP JUMPDEST POP POP JUMPDEST SWAP2 SWAP4 SWAP1 SWAP3 SWAP1 SWAP2 PUSH1 0x20 DUP2 ADD SWAP1 CALLDATALOAD PUSH1 0x1 PUSH1 0x20 SHL DUP2 GT ISZERO PUSH2 0xD25 JUMPI PUSH1 0x0 DUP1 PUSH2 0xD22 PUSH2 0x3230 JUMP JUMPDEST POP POP JUMPDEST DUP3 ADD DUP4 PUSH1 0x20 DUP3 ADD GT ISZERO PUSH2 0xD40 JUMPI PUSH1 0x0 DUP1 PUSH2 0xD3D PUSH2 0x3230 JUMP JUMPDEST POP POP JUMPDEST DUP1 CALLDATALOAD SWAP1 PUSH1 0x20 ADD SWAP2 DUP5 PUSH1 0x20 DUP4 MUL DUP5 ADD GT PUSH1 0x1 PUSH1 0x20 SHL DUP4 GT OR ISZERO PUSH2 0xD6A JUMPI PUSH1 0x0 DUP1 PUSH2 0xD67 PUSH2 0x3230 JUMP JUMPDEST POP POP JUMPDEST POP SWAP1 SWAP3 POP SWAP1 POP PUSH2 0x2B0F JUMP JUMPDEST PUSH2 0x20C PUSH1 0x4 DUP1 CALLDATASIZE SUB PUSH1 0x40 DUP2 LT ISZERO PUSH2 0xD94 JUMPI PUSH1 0x0 DUP1 PUSH2 0xD91 PUSH2 0x3230 JUMP JUMPDEST POP POP JUMPDEST POP DUP1 CALLDATALOAD SWAP1 PUSH1 0x20 ADD CALLDATALOAD PUSH2 0x2CDD JUMP JUMPDEST DUP3 PUSH1 0x0 DUP1 DUP1 PUSH2 0xDAE PUSH2 0x329B JUMP JUMPDEST SWAP1 PUSH2 0x100 EXP SWAP1 DIV PUSH1 0x1 PUSH1 0x1 PUSH1 0xA0 SHL SUB AND PUSH1 0x1 PUSH1 0x1 PUSH1 0xA0 SHL SUB AND PUSH4 0xDACB2D01 DUP4 PUSH1 0x40 MLOAD DUP3 PUSH4 0xFFFFFFFF AND PUSH1 0xE0 SHL DUP2 MSTORE PUSH1 0x4 ADD DUP1 DUP3 DUP2 MSTORE PUSH1 0x20 ADD DUP1 PUSH1 0x20 ADD DUP3 DUP2 SUB DUP3 MSTORE PUSH1 0x28 DUP2 MSTORE PUSH1 0x20 ADD DUP1 PUSH2 0x34DB PUSH1 0x28 SWAP2 CODECOPY PUSH1 0x40 ADD SWAP3 POP POP POP PUSH1 0x20 PUSH1 0x40 MLOAD DUP1 DUP4 SUB DUP2 DUP7 DUP1 PUSH2 0xE18 PUSH2 0x32FB JUMP JUMPDEST ISZERO DUP1 ISZERO PUSH2 0xE2D JUMPI PUSH1 0x0 DUP1 PUSH2 0xE2A PUSH2 0x3230 JUMP JUMPDEST POP POP JUMPDEST POP GAS PUSH2 0xE37 PUSH2 0x3347 JUMP JUMPDEST POP POP POP POP POP ISZERO DUP1 ISZERO PUSH2 0xE56 JUMPI RETURNDATASIZE PUSH1 0x0 DUP1 RETURNDATACOPY RETURNDATASIZE PUSH1 0x0 PUSH2 0xE53 PUSH2 0x3230 JUMP JUMPDEST POP POP JUMPDEST POP POP POP POP PUSH1 0x40 MLOAD RETURNDATASIZE PUSH1 0x20 DUP2 LT ISZERO PUSH2 0xE75 JUMPI PUSH1 0x0 DUP1 PUSH2 0xE72 PUSH2 0x3230 JUMP JUMPDEST POP POP JUMPDEST DUP2 ADD SWAP1 DUP1 DUP1 MLOAD SWAP4 POP POP POP POP GAS PUSH2 0xE89 PUSH2 0x3400 JUMP JUMPDEST PUSH1 0x1 PUSH1 0x1 PUSH1 0xA0 SHL SUB AND DUP2 PUSH1 0x1 PUSH1 0x1 PUSH1 0xA0 SHL SUB AND EQ PUSH2 0xEE1 JUMPI PUSH1 0x40 MLOAD PUSH3 0x461BCD PUSH1 0xE5 SHL DUP2 MSTORE PUSH1 0x4 ADD DUP1 DUP1 PUSH1 0x20 ADD DUP3 DUP2 SUB DUP3 MSTORE PUSH1 0x2E DUP2 MSTORE PUSH1 0x20 ADD DUP1 PUSH2 0x3503 PUSH1 0x2E SWAP2 CODECOPY PUSH1 0x40 ADD SWAP2 POP POP PUSH1 0x40 MLOAD DUP1 SWAP2 SUB SWAP1 PUSH2 0xEDE PUSH2 0x3230 JUMP JUMPDEST POP POP JUMPDEST PUSH2 0xEEC DUP6 DUP6 DUP6 PUSH2 0x2EBD JUMP JUMPDEST POP POP POP POP POP JUMP JUMPDEST DUP5 PUSH1 0x0 DUP1 DUP1 PUSH2 0xF00 PUSH2 0x329B JUMP JUMPDEST SWAP1 PUSH2 0x100 EXP SWAP1 DIV PUSH1 0x1 PUSH1 0x1 PUSH1 0xA0 SHL SUB AND PUSH1 0x1 PUSH1 0x1 PUSH1 0xA0 SHL SUB AND PUSH4 0xDACB2D01 DUP4 PUSH1 0x40 MLOAD DUP3 PUSH4 0xFFFFFFFF AND PUSH1 0xE0 SHL DUP2 MSTORE PUSH1 0x4 ADD DUP1 DUP3 DUP2 MSTORE PUSH1 0x20 ADD DUP1 PUSH1 0x20 ADD DUP3 DUP2 SUB DUP3 MSTORE PUSH1 0x28 DUP2 MSTORE PUSH1 0x20 ADD DUP1 PUSH2 0x34DB PUSH1 0x28 SWAP2 CODECOPY PUSH1 0x40 ADD SWAP3 POP POP POP PUSH1 0x20 PUSH1 0x40 MLOAD DUP1 DUP4 SUB DUP2 DUP7 DUP1 PUSH2 0xF6A PUSH2 0x32FB JUMP JUMPDEST ISZERO DUP1 ISZERO PUSH2 0xF7F JUMPI PUSH1 0x0 DUP1 PUSH2 0xF7C PUSH2 0x3230 JUMP JUMPDEST POP POP JUMPDEST POP GAS PUSH2 0xF89 PUSH2 0x3347 JUMP JUMPDEST POP POP POP POP POP ISZERO DUP1 ISZERO PUSH2 0xFA8 JUMPI RETURNDATASIZE PUSH1 0x0 DUP1 RETURNDATACOPY RETURNDATASIZE PUSH1 0x0 PUSH2 0xFA5 PUSH2 0x3230 JUMP JUMPDEST POP POP JUMPDEST POP POP POP POP PUSH1 0x40 MLOAD RETURNDATASIZE PUSH1 0x20 DUP2 LT ISZERO PUSH2 0xFC7 JUMPI PUSH1 0x0 DUP1 PUSH2 0xFC4 PUSH2 0x3230 JUMP JUMPDEST POP POP JUMPDEST DUP2 ADD SWAP1 DUP1 DUP1 MLOAD SWAP4 POP POP POP POP GAS PUSH2 0xFDB PUSH2 0x3400 JUMP JUMPDEST PUSH1 0x1 PUSH1 0x1 PUSH1 0xA0 SHL SUB AND DUP2 PUSH1 0x1 PUSH1 0x1 PUSH1 0xA0 SHL SUB AND EQ PUSH2 0x1033 JUMPI PUSH1 0x40 MLOAD PUSH3 0x461BCD PUSH1 0xE5 SHL DUP2 MSTORE PUSH1 0x4 ADD DUP1 DUP1 PUSH1 0x20 ADD DUP3 DUP2 SUB DUP3 MSTORE PUSH1 0x2E DUP2 MSTORE PUSH1 0x20 ADD DUP1 PUSH2 0x3503 PUSH1 0x2E SWAP2 CODECOPY PUSH1 0x40 ADD SWAP2 POP POP PUSH1 0x40 MLOAD DUP1 SWAP2 SUB SWAP1 PUSH2 0x1030 PUSH2 0x3230 JUMP JUMPDEST POP POP JUMPDEST DUP5 DUP4 EQ PUSH2 0x107D JUMPI PUSH1 0x40 MLOAD PUSH3 0x461BCD PUSH1 0xE5 SHL DUP2 MSTORE PUSH1 0x20 PUSH1 0x4 DUP3 ADD MSTORE PUSH1 0x18 PUSH1 0x24 DUP3 ADD MSTORE PUSH1 0x0 DUP1 MLOAD PUSH1 0x20 PUSH2 0x3531 DUP4 CODECOPY DUP2 MLOAD SWAP2 MSTORE PUSH1 0x44 DUP3 ADD MSTORE PUSH1 0x64 ADD PUSH1 0x40 MLOAD DUP1 SWAP2 SUB SWAP1 PUSH2 0x107A PUSH2 0x3230 JUMP JUMPDEST POP POP JUMPDEST PUSH1 0x0 JUMPDEST DUP6 DUP2 LT ISZERO PUSH2 0x10BF JUMPI PUSH2 0x10B7 DUP9 DUP9 DUP9 DUP5 DUP2 DUP2 LT PUSH2 0x1098 JUMPI INVALID JUMPDEST SWAP1 POP PUSH1 0x20 MUL ADD CALLDATALOAD DUP8 DUP8 DUP6 DUP2 DUP2 LT PUSH2 0x10AB JUMPI INVALID JUMPDEST SWAP1 POP PUSH1 0x20 MUL ADD CALLDATALOAD PUSH2 0x2F41 JUMP JUMPDEST PUSH1 0x1 ADD PUSH2 0x1080 JUMP JUMPDEST POP POP POP POP POP POP POP POP JUMP JUMPDEST PUSH1 0x60 DUP1 DUP3 PUSH1 0x40 MLOAD SWAP1 DUP1 DUP3 MSTORE DUP1 PUSH1 0x20 MUL PUSH1 0x20 ADD DUP3 ADD PUSH1 0x40 MSTORE DUP1 ISZERO PUSH2 0x10F6 JUMPI DUP2 PUSH1 0x20 ADD PUSH1 0x20 DUP3 MUL DUP1 CODESIZE DUP4 CODECOPY ADD SWAP1 POP JUMPDEST POP PUSH1 0x0 DUP7 DUP2 MSTORE PUSH1 0x1 PUSH1 0x20 MSTORE SWAP1 SWAP2 POP PUSH1 0x3 DUP2 PUSH1 0x40 DUP2 KECCAK256 PUSH2 0x1113 PUSH2 0x329B JUMP JUMPDEST DUP2 MSTORE PUSH1 0x20 ADD SWAP1 DUP2 MSTORE PUSH1 0x20 ADD PUSH1 0x0 KECCAK256 SWAP1 POP PUSH1 0x0 JUMPDEST DUP5 DUP2 LT ISZERO PUSH2 0x1179 JUMPI DUP2 PUSH1 0x0 DUP8 DUP8 DUP5 DUP2 DUP2 LT PUSH2 0x113D JUMPI INVALID JUMPDEST SWAP1 POP PUSH1 0x20 MUL ADD CALLDATALOAD DUP2 MSTORE PUSH1 0x20 ADD SWAP1 DUP2 MSTORE PUSH1 0x20 ADD PUSH1 0x0 KECCAK256 PUSH2 0x115A PUSH2 0x329B JUMP JUMPDEST DUP4 DUP3 DUP2 MLOAD DUP2 LT PUSH2 0x1166 JUMPI INVALID JUMPDEST PUSH1 0x20 SWAP1 DUP2 MUL SWAP2 SWAP1 SWAP2 ADD ADD MSTORE PUSH1 0x1 ADD PUSH2 0x1126 JUMP JUMPDEST POP SWAP1 SWAP6 SWAP5 POP POP POP POP POP JUMP JUMPDEST DUP2 PUSH1 0x0 DUP1 DUP1 PUSH2 0x1191 PUSH2 0x329B JUMP JUMPDEST SWAP1 PUSH2 0x100 EXP SWAP1 DIV PUSH1 0x1 PUSH1 0x1 PUSH1 0xA0 SHL SUB AND PUSH1 0x1 PUSH1 0x1 PUSH1 0xA0 SHL SUB AND PUSH4 0xDACB2D01 DUP4 PUSH1 0x40 MLOAD DUP3 PUSH4 0xFFFFFFFF AND PUSH1 0xE0 SHL DUP2 MSTORE PUSH1 0x4 ADD DUP1 DUP3 DUP2 MSTORE PUSH1 0x20 ADD DUP1 PUSH1 0x20 ADD DUP3 DUP2 SUB DUP3 MSTORE PUSH1 0x28 DUP2 MSTORE PUSH1 0x20 ADD DUP1 PUSH2 0x34DB PUSH1 0x28 SWAP2 CODECOPY PUSH1 0x40 ADD SWAP3 POP POP POP PUSH1 0x20 PUSH1 0x40 MLOAD DUP1 DUP4 SUB DUP2 DUP7 DUP1 PUSH2 0x11FB PUSH2 0x32FB JUMP JUMPDEST ISZERO DUP1 ISZERO PUSH2 0x1210 JUMPI PUSH1 0x0 DUP1 PUSH2 0x120D PUSH2 0x3230 JUMP JUMPDEST POP POP JUMPDEST POP GAS PUSH2 0x121A PUSH2 0x3347 JUMP JUMPDEST POP POP POP POP POP ISZERO DUP1 ISZERO PUSH2 0x1239 JUMPI RETURNDATASIZE PUSH1 0x0 DUP1 RETURNDATACOPY RETURNDATASIZE PUSH1 0x0 PUSH2 0x1236 PUSH2 0x3230 JUMP JUMPDEST POP POP JUMPDEST POP POP POP POP PUSH1 0x40 MLOAD RETURNDATASIZE PUSH1 0x20 DUP2 LT ISZERO PUSH2 0x1258 JUMPI PUSH1 0x0 DUP1 PUSH2 0x1255 PUSH2 0x3230 JUMP JUMPDEST POP POP JUMPDEST DUP2 ADD SWAP1 DUP1 DUP1 MLOAD SWAP4 POP POP POP POP GAS PUSH2 0x126C PUSH2 0x3400 JUMP JUMPDEST PUSH1 0x1 PUSH1 0x1 PUSH1 0xA0 SHL SUB AND DUP2 PUSH1 0x1 PUSH1 0x1 PUSH1 0xA0 SHL SUB AND EQ PUSH2 0x12C4 JUMPI PUSH1 0x40 MLOAD PUSH3 0x461BCD PUSH1 0xE5 SHL DUP2 MSTORE PUSH1 0x4 ADD DUP1 DUP1 PUSH1 0x20 ADD DUP3 DUP2 SUB DUP3 MSTORE PUSH1 0x2E DUP2 MSTORE PUSH1 0x20 ADD DUP1 PUSH2 0x3503 PUSH1 0x2E SWAP2 CODECOPY PUSH1 0x40 ADD SWAP2 POP POP PUSH1 0x40 MLOAD DUP1 SWAP2 SUB SWAP1 PUSH2 0x12C1 PUSH2 0x3230 JUMP JUMPDEST POP POP JUMPDEST PUSH1 0x0 DUP5 DUP2 MSTORE PUSH1 0x1 PUSH1 0x20 MSTORE PUSH1 0x5 DUP2 PUSH1 0x40 DUP2 KECCAK256 PUSH2 0x12DD PUSH2 0x329B JUMP JUMPDEST DUP2 MSTORE PUSH1 0x20 ADD SWAP1 DUP2 MSTORE PUSH1 0x20 ADD PUSH1 0x0 KECCAK256 PUSH1 0x0 DUP6 DUP2 MSTORE PUSH1 0x20 SWAP2 SWAP1 SWAP2 MSTORE PUSH1 0x40 SWAP1 KECCAK256 PUSH1 0x0 SWAP1 PUSH2 0x1305 PUSH2 0x329B JUMP JUMPDEST SWAP1 PUSH2 0x100 EXP SWAP1 DIV PUSH1 0xFF AND SWAP1 POP PUSH32 0x321123223C2C7BFFD7484AE8FB80C6EB45AA5537DF0A621C47833AB9376A4A9C DUP6 DUP6 DUP4 PUSH1 0x40 MLOAD SWAP3 DUP4 MSTORE PUSH1 0x20 DUP4 ADD SWAP2 SWAP1 SWAP2 MSTORE ISZERO ISZERO PUSH1 0x40 DUP1 DUP4 ADD SWAP2 SWAP1 SWAP2 MSTORE PUSH1 0x60 SWAP1 SWAP2 ADD SWAP1 MLOAD DUP1 SWAP2 SUB SWAP1 LOG1 PUSH1 0x0 DUP6 DUP2 MSTORE PUSH1 0x1 PUSH1 0x20 MSTORE PUSH1 0x5 SWAP1 PUSH1 0x40 DUP2 KECCAK256 PUSH2 0x1373 PUSH2 0x329B JUMP JUMPDEST DUP2 MSTORE PUSH1 0x20 ADD SWAP1 DUP2 MSTORE PUSH1 0x20 ADD PUSH1 0x0 KECCAK256 PUSH1 0x0 DUP6 DUP2 MSTORE PUSH1 0x20 SWAP2 SWAP1 SWAP2 MSTORE PUSH1 0x40 SWAP1 KECCAK256 PUSH1 0x1 DUP2 PUSH2 0x139B PUSH2 0x329B JUMP JUMPDEST SWAP1 PUSH1 0xFF MUL NOT AND SWAP1 PUSH2 0x13AA PUSH2 0x3446 JUMP JUMPDEST POP POP POP POP POP POP POP JUMP JUMPDEST DUP2 PUSH1 0x0 DUP1 DUP1 PUSH2 0x13C0 PUSH2 0x329B JUMP JUMPDEST SWAP1 PUSH2 0x100 EXP SWAP1 DIV PUSH1 0x1 PUSH1 0x1 PUSH1 0xA0 SHL SUB AND PUSH1 0x1 PUSH1 0x1 PUSH1 0xA0 SHL SUB AND PUSH4 0xDACB2D01 DUP4 PUSH1 0x40 MLOAD DUP3 PUSH4 0xFFFFFFFF AND PUSH1 0xE0 SHL DUP2 MSTORE PUSH1 0x4 ADD DUP1 DUP3 DUP2 MSTORE PUSH1 0x20 ADD DUP1 PUSH1 0x20 ADD DUP3 DUP2 SUB DUP3 MSTORE PUSH1 0x28 DUP2 MSTORE PUSH1 0x20 ADD DUP1 PUSH2 0x34DB PUSH1 0x28 SWAP2 CODECOPY PUSH1 0x40 ADD SWAP3 POP POP POP PUSH1 0x20 PUSH1 0x40 MLOAD DUP1 DUP4 SUB DUP2 DUP7 DUP1 PUSH2 0x142A PUSH2 0x32FB JUMP JUMPDEST ISZERO DUP1 ISZERO PUSH2 0x143F JUMPI PUSH1 0x0 DUP1 PUSH2 0x143C PUSH2 0x3230 JUMP JUMPDEST POP POP JUMPDEST POP GAS PUSH2 0x1449 PUSH2 0x3347 JUMP JUMPDEST POP POP POP POP POP ISZERO DUP1 ISZERO PUSH2 0x1468 JUMPI RETURNDATASIZE PUSH1 0x0 DUP1 RETURNDATACOPY RETURNDATASIZE PUSH1 0x0 PUSH2 0x1465 PUSH2 0x3230 JUMP JUMPDEST POP POP JUMPDEST POP POP POP POP PUSH1 0x40 MLOAD RETURNDATASIZE PUSH1 0x20 DUP2 LT ISZERO PUSH2 0x1487 JUMPI PUSH1 0x0 DUP1 PUSH2 0x1484 PUSH2 0x3230 JUMP JUMPDEST POP POP JUMPDEST DUP2 ADD SWAP1 DUP1 DUP1 MLOAD SWAP4 POP POP POP POP GAS PUSH2 0x149B PUSH2 0x3400 JUMP JUMPDEST PUSH1 0x1 PUSH1 0x1 PUSH1 0xA0 SHL SUB AND DUP2 PUSH1 0x1 PUSH1 0x1 PUSH1 0xA0 SHL SUB AND EQ PUSH2 0x14F3 JUMPI PUSH1 0x40 MLOAD PUSH3 0x461BCD PUSH1 0xE5 SHL DUP2 MSTORE PUSH1 0x4 ADD DUP1 DUP1 PUSH1 0x20 ADD DUP3 DUP2 SUB DUP3 MSTORE PUSH1 0x2E DUP2 MSTORE PUSH1 0x20 ADD DUP1 PUSH2 0x3503 PUSH1 0x2E SWAP2 CODECOPY PUSH1 0x40 ADD SWAP2 POP POP PUSH1 0x40 MLOAD DUP1 SWAP2 SUB SWAP1 PUSH2 0x14F0 PUSH2 0x3230 JUMP JUMPDEST POP POP JUMPDEST PUSH1 0x0 DUP5 DUP2 MSTORE PUSH1 0x1 PUSH1 0x20 MSTORE PUSH1 0x2 DUP2 PUSH1 0x40 DUP2 KECCAK256 PUSH2 0x150C PUSH2 0x329B JUMP JUMPDEST DUP2 MSTORE PUSH1 0x20 ADD SWAP1 DUP2 MSTORE PUSH1 0x20 ADD PUSH1 0x0 KECCAK256 PUSH1 0x0 DUP6 DUP2 MSTORE PUSH1 0x20 SWAP2 SWAP1 SWAP2 MSTORE PUSH1 0x40 SWAP1 KECCAK256 PUSH2 0x1531 PUSH2 0x329B JUMP JUMPDEST SWAP1 POP PUSH32 0x8A6B612C1A1E056BC504F34FE56106A878FCA2D1A50BE35360D02AC39D4D4662 DUP6 DUP6 DUP4 PUSH1 0x40 MLOAD DUP1 DUP5 DUP2 MSTORE PUSH1 0x20 ADD DUP4 DUP2 MSTORE PUSH1 0x20 ADD DUP3 DUP2 MSTORE PUSH1 0x20 ADD SWAP4 POP POP POP POP PUSH1 0x40 MLOAD DUP1 SWAP2 SUB SWAP1 LOG1 PUSH1 0x0 DUP6 DUP2 MSTORE PUSH1 0x1 PUSH1 0x20 MSTORE PUSH1 0x2 SWAP1 PUSH1 0x40 DUP2 KECCAK256 PUSH2 0x1593 PUSH2 0x329B JUMP JUMPDEST DUP2 MSTORE PUSH1 0x20 ADD SWAP1 DUP2 MSTORE PUSH1 0x20 ADD PUSH1 0x0 KECCAK256 PUSH1 0x0 DUP6 DUP2 MSTORE PUSH1 0x20 SWAP2 SWAP1 SWAP2 MSTORE PUSH1 0x40 SWAP1 KECCAK256 PUSH1 0x0 SWAP1 PUSH2 0x13AA PUSH2 0x3446 JUMP JUMPDEST DUP3 PUSH1 0x0 DUP1 DUP1 PUSH2 0x15C8 PUSH2 0x329B JUMP JUMPDEST SWAP1 PUSH2 0x100 EXP SWAP1 DIV PUSH1 0x1 PUSH1 0x1 PUSH1 0xA0 SHL SUB AND PUSH1 0x1 PUSH1 0x1 PUSH1 0xA0 SHL SUB AND PUSH4 0xDACB2D01 DUP4 PUSH1 0x40 MLOAD DUP3 PUSH4 0xFFFFFFFF AND PUSH1 0xE0 SHL DUP2 MSTORE PUSH1 0x4 ADD DUP1 DUP3 DUP2 MSTORE PUSH1 0x20 ADD DUP1 PUSH1 0x20 ADD DUP3 DUP2 SUB DUP3 MSTORE PUSH1 0x28 DUP2 MSTORE PUSH1 0x20 ADD DUP1 PUSH2 0x34DB PUSH1 0x28 SWAP2 CODECOPY PUSH1 0x40 ADD SWAP3 POP POP POP PUSH1 0x20 PUSH1 0x40 MLOAD DUP1 DUP4 SUB DUP2 DUP7 DUP1 PUSH2 0x1632 PUSH2 0x32FB JUMP JUMPDEST ISZERO DUP1 ISZERO PUSH2 0x1647 JUMPI PUSH1 0x0 DUP1 PUSH2 0x1644 PUSH2 0x3230 JUMP JUMPDEST POP POP JUMPDEST POP GAS PUSH2 0x1651 PUSH2 0x3347 JUMP JUMPDEST POP POP POP POP POP ISZERO DUP1 ISZERO PUSH2 0x1670 JUMPI RETURNDATASIZE PUSH1 0x0 DUP1 RETURNDATACOPY RETURNDATASIZE PUSH1 0x0 PUSH2 0x166D PUSH2 0x3230 JUMP JUMPDEST POP POP JUMPDEST POP POP POP POP PUSH1 0x40 MLOAD RETURNDATASIZE PUSH1 0x20 DUP2 LT ISZERO PUSH2 0x168F JUMPI PUSH1 0x0 DUP1 PUSH2 0x168C PUSH2 0x3230 JUMP JUMPDEST POP POP JUMPDEST DUP2 ADD SWAP1 DUP1 DUP1 MLOAD SWAP4 POP POP POP POP GAS PUSH2 0x16A3 PUSH2 0x3400 JUMP JUMPDEST PUSH1 0x1 PUSH1 0x1 PUSH1 0xA0 SHL SUB AND DUP2 PUSH1 0x1 PUSH1 0x1 PUSH1 0xA0 SHL SUB AND EQ PUSH2 0x16FB JUMPI PUSH1 0x40 MLOAD PUSH3 0x461BCD PUSH1 0xE5 SHL DUP2 MSTORE PUSH1 0x4 ADD DUP1 DUP1 PUSH1 0x20 ADD DUP3 DUP2 SUB DUP3 MSTORE PUSH1 0x2E DUP2 MSTORE PUSH1 0x20 ADD DUP1 PUSH2 0x3503 PUSH1 0x2E SWAP2 CODECOPY PUSH1 0x40 ADD SWAP2 POP POP PUSH1 0x40 MLOAD DUP1 SWAP2 SUB SWAP1 PUSH2 0x16F8 PUSH2 0x3230 JUMP JUMPDEST POP POP JUMPDEST PUSH2 0xEEC DUP6 DUP6 DUP6 PUSH2 0x2F41 JUMP JUMPDEST PUSH1 0x0 DUP3 DUP2 MSTORE PUSH1 0x1 PUSH1 0x20 MSTORE PUSH1 0x2 DUP2 PUSH1 0x40 DUP2 KECCAK256 PUSH2 0x171F PUSH2 0x329B JUMP JUMPDEST DUP2 MSTORE PUSH1 0x20 ADD SWAP1 DUP2 MSTORE PUSH1 0x20 ADD PUSH1 0x0 KECCAK256 PUSH1 0x0 DUP4 DUP2 MSTORE PUSH1 0x20 SWAP2 SWAP1 SWAP2 MSTORE PUSH1 0x40 SWAP1 KECCAK256 PUSH2 0x1744 PUSH2 0x329B JUMP JUMPDEST SWAP4 SWAP3 POP POP POP JUMP JUMPDEST DUP2 PUSH1 0x0 DUP1 DUP1 PUSH2 0x1758 PUSH2 0x329B JUMP JUMPDEST SWAP1 PUSH2 0x100 EXP SWAP1 DIV PUSH1 0x1 PUSH1 0x1 PUSH1 0xA0 SHL SUB AND PUSH1 0x1 PUSH1 0x1 PUSH1 0xA0 SHL SUB AND PUSH4 0xDACB2D01 DUP4 PUSH1 0x40 MLOAD DUP3 PUSH4 0xFFFFFFFF AND PUSH1 0xE0 SHL DUP2 MSTORE PUSH1 0x4 ADD DUP1 DUP3 DUP2 MSTORE PUSH1 0x20 ADD DUP1 PUSH1 0x20 ADD DUP3 DUP2 SUB DUP3 MSTORE PUSH1 0x28 DUP2 MSTORE PUSH1 0x20 ADD DUP1 PUSH2 0x34DB PUSH1 0x28 SWAP2 CODECOPY PUSH1 0x40 ADD SWAP3 POP POP POP PUSH1 0x20 PUSH1 0x40 MLOAD DUP1 DUP4 SUB DUP2 DUP7 DUP1 PUSH2 0x17C2 PUSH2 0x32FB JUMP JUMPDEST ISZERO DUP1 ISZERO PUSH2 0x17D7 JUMPI PUSH1 0x0 DUP1 PUSH2 0x17D4 PUSH2 0x3230 JUMP JUMPDEST POP POP JUMPDEST POP GAS PUSH2 0x17E1 PUSH2 0x3347 JUMP JUMPDEST POP POP POP POP POP ISZERO DUP1 ISZERO PUSH2 0x1800 JUMPI RETURNDATASIZE PUSH1 0x0 DUP1 RETURNDATACOPY RETURNDATASIZE PUSH1 0x0 PUSH2 0x17FD PUSH2 0x3230 JUMP JUMPDEST POP POP JUMPDEST POP POP POP POP PUSH1 0x40 MLOAD RETURNDATASIZE PUSH1 0x20 DUP2 LT ISZERO PUSH2 0x181F JUMPI PUSH1 0x0 DUP1 PUSH2 0x181C PUSH2 0x3230 JUMP JUMPDEST POP POP JUMPDEST DUP2 ADD SWAP1 DUP1 DUP1 MLOAD SWAP4 POP POP POP POP GAS PUSH2 0x1833 PUSH2 0x3400 JUMP JUMPDEST PUSH1 0x1 PUSH1 0x1 PUSH1 0xA0 SHL SUB AND DUP2 PUSH1 0x1 PUSH1 0x1 PUSH1 0xA0 SHL SUB AND EQ PUSH2 0x188B JUMPI PUSH1 0x40 MLOAD PUSH3 0x461BCD PUSH1 0xE5 SHL DUP2 MSTORE PUSH1 0x4 ADD DUP1 DUP1 PUSH1 0x20 ADD DUP3 DUP2 SUB DUP3 MSTORE PUSH1 0x2E DUP2 MSTORE PUSH1 0x20 ADD DUP1 PUSH2 0x3503 PUSH1 0x2E SWAP2 CODECOPY PUSH1 0x40 ADD SWAP2 POP POP PUSH1 0x40 MLOAD DUP1 SWAP2 SUB SWAP1 PUSH2 0x1888 PUSH2 0x3230 JUMP JUMPDEST POP POP JUMPDEST PUSH1 0x0 DUP5 DUP2 MSTORE PUSH1 0x1 PUSH1 0x20 MSTORE PUSH1 0x6 DUP2 PUSH1 0x40 DUP2 KECCAK256 PUSH2 0x18A4 PUSH2 0x329B JUMP JUMPDEST DUP2 MSTORE PUSH1 0x20 ADD SWAP1 DUP2 MSTORE PUSH1 0x20 ADD PUSH1 0x0 KECCAK256 PUSH1 0x0 DUP6 DUP2 MSTORE PUSH1 0x20 SWAP2 SWAP1 SWAP2 MSTORE PUSH1 0x40 SWAP1 KECCAK256 PUSH2 0x18C9 PUSH2 0x329B JUMP JUMPDEST SWAP1 POP PUSH32 0x1F751825A531BF2A176E42D5CB792BB7228163CF53E36B033509CCBE869CFD93 DUP6 DUP6 DUP4 PUSH1 0x40 MLOAD DUP1 DUP5 DUP2 MSTORE PUSH1 0x20 ADD DUP4 DUP2 MSTORE PUSH1 0x20 ADD DUP3 DUP2 MSTORE PUSH1 0x20 ADD SWAP4 POP POP POP POP PUSH1 0x40 MLOAD DUP1 SWAP2 SUB SWAP1 LOG1 PUSH1 0x0 DUP6 DUP2 MSTORE PUSH1 0x1 PUSH1 0x20 MSTORE PUSH1 0x6 SWAP1 PUSH1 0x40 DUP2 KECCAK256 PUSH2 0x1593 PUSH2 0x329B JUMP JUMPDEST DUP5 PUSH1 0x0 DUP1 DUP1 PUSH2 0x1938 PUSH2 0x329B JUMP JUMPDEST SWAP1 PUSH2 0x100 EXP SWAP1 DIV PUSH1 0x1 PUSH1 0x1 PUSH1 0xA0 SHL SUB AND PUSH1 0x1 PUSH1 0x1 PUSH1 0xA0 SHL SUB AND PUSH4 0xDACB2D01 DUP4 PUSH1 0x40 MLOAD DUP3 PUSH4 0xFFFFFFFF AND PUSH1 0xE0 SHL DUP2 MSTORE PUSH1 0x4 ADD DUP1 DUP3 DUP2 MSTORE PUSH1 0x20 ADD DUP1 PUSH1 0x20 ADD DUP3 DUP2 SUB DUP3 MSTORE PUSH1 0x28 DUP2 MSTORE PUSH1 0x20 ADD DUP1 PUSH2 0x34DB PUSH1 0x28 SWAP2 CODECOPY PUSH1 0x40 ADD SWAP3 POP POP POP PUSH1 0x20 PUSH1 0x40 MLOAD DUP1 DUP4 SUB DUP2 DUP7 DUP1 PUSH2 0x19A2 PUSH2 0x32FB JUMP JUMPDEST ISZERO DUP1 ISZERO PUSH2 0x19B7 JUMPI PUSH1 0x0 DUP1 PUSH2 0x19B4 PUSH2 0x3230 JUMP JUMPDEST POP POP JUMPDEST POP GAS PUSH2 0x19C1 PUSH2 0x3347 JUMP JUMPDEST POP POP POP POP POP ISZERO DUP1 ISZERO PUSH2 0x19E0 JUMPI RETURNDATASIZE PUSH1 0x0 DUP1 RETURNDATACOPY RETURNDATASIZE PUSH1 0x0 PUSH2 0x19DD PUSH2 0x3230 JUMP JUMPDEST POP POP JUMPDEST POP POP POP POP PUSH1 0x40 MLOAD RETURNDATASIZE PUSH1 0x20 DUP2 LT ISZERO PUSH2 0x19FF JUMPI PUSH1 0x0 DUP1 PUSH2 0x19FC PUSH2 0x3230 JUMP JUMPDEST POP POP JUMPDEST DUP2 ADD SWAP1 DUP1 DUP1 MLOAD SWAP4 POP POP POP POP GAS PUSH2 0x1A13 PUSH2 0x3400 JUMP JUMPDEST PUSH1 0x1 PUSH1 0x1 PUSH1 0xA0 SHL SUB AND DUP2 PUSH1 0x1 PUSH1 0x1 PUSH1 0xA0 SHL SUB AND EQ PUSH2 0x1A6B JUMPI PUSH1 0x40 MLOAD PUSH3 0x461BCD PUSH1 0xE5 SHL DUP2 MSTORE PUSH1 0x4 ADD DUP1 DUP1 PUSH1 0x20 ADD DUP3 DUP2 SUB DUP3 MSTORE PUSH1 0x2E DUP2 MSTORE PUSH1 0x20 ADD DUP1 PUSH2 0x3503 PUSH1 0x2E SWAP2 CODECOPY PUSH1 0x40 ADD SWAP2 POP POP PUSH1 0x40 MLOAD DUP1 SWAP2 SUB SWAP1 PUSH2 0x1A68 PUSH2 0x3230 JUMP JUMPDEST POP POP JUMPDEST DUP5 DUP4 EQ PUSH2 0x1AB5 JUMPI PUSH1 0x40 MLOAD PUSH3 0x461BCD PUSH1 0xE5 SHL DUP2 MSTORE PUSH1 0x20 PUSH1 0x4 DUP3 ADD MSTORE PUSH1 0x18 PUSH1 0x24 DUP3 ADD MSTORE PUSH1 0x0 DUP1 MLOAD PUSH1 0x20 PUSH2 0x3531 DUP4 CODECOPY DUP2 MLOAD SWAP2 MSTORE PUSH1 0x44 DUP3 ADD MSTORE PUSH1 0x64 ADD PUSH1 0x40 MLOAD DUP1 SWAP2 SUB SWAP1 PUSH2 0x1AB2 PUSH2 0x3230 JUMP JUMPDEST POP POP JUMPDEST PUSH1 0x0 JUMPDEST DUP6 DUP2 LT ISZERO PUSH2 0x10BF JUMPI PUSH2 0x1AF8 DUP9 DUP9 DUP9 DUP5 DUP2 DUP2 LT PUSH2 0x1AD0 JUMPI INVALID JUMPDEST SWAP1 POP PUSH1 0x20 MUL ADD CALLDATALOAD DUP8 DUP8 DUP6 DUP2 DUP2 LT PUSH2 0x1AE3 JUMPI INVALID JUMPDEST SWAP1 POP PUSH1 0x20 MUL ADD CALLDATALOAD PUSH1 0x1 PUSH1 0x1 PUSH1 0xA0 SHL SUB AND PUSH2 0x2FC5 JUMP JUMPDEST PUSH1 0x1 ADD PUSH2 0x1AB8 JUMP JUMPDEST DUP3 PUSH1 0x0 DUP1 DUP1 PUSH2 0x1B0D PUSH2 0x329B JUMP JUMPDEST SWAP1 PUSH2 0x100 EXP SWAP1 DIV PUSH1 0x1 PUSH1 0x1 PUSH1 0xA0 SHL SUB AND PUSH1 0x1 PUSH1 0x1 PUSH1 0xA0 SHL SUB AND PUSH4 0xDACB2D01 DUP4 PUSH1 0x40 MLOAD DUP3 PUSH4 0xFFFFFFFF AND PUSH1 0xE0 SHL DUP2 MSTORE PUSH1 0x4 ADD DUP1 DUP3 DUP2 MSTORE PUSH1 0x20 ADD DUP1 PUSH1 0x20 ADD DUP3 DUP2 SUB DUP3 MSTORE PUSH1 0x28 DUP2 MSTORE PUSH1 0x20 ADD DUP1 PUSH2 0x34DB PUSH1 0x28 SWAP2 CODECOPY PUSH1 0x40 ADD SWAP3 POP POP POP PUSH1 0x20 PUSH1 0x40 MLOAD DUP1 DUP4 SUB DUP2 DUP7 DUP1 PUSH2 0x1B77 PUSH2 0x32FB JUMP JUMPDEST ISZERO DUP1 ISZERO PUSH2 0x1B8C JUMPI PUSH1 0x0 DUP1 PUSH2 0x1B89 PUSH2 0x3230 JUMP JUMPDEST POP POP JUMPDEST POP GAS PUSH2 0x1B96 PUSH2 0x3347 JUMP JUMPDEST POP POP POP POP POP ISZERO DUP1 ISZERO PUSH2 0x1BB5 JUMPI RETURNDATASIZE PUSH1 0x0 DUP1 RETURNDATACOPY RETURNDATASIZE PUSH1 0x0 PUSH2 0x1BB2 PUSH2 0x3230 JUMP JUMPDEST POP POP JUMPDEST POP POP POP POP PUSH1 0x40 MLOAD RETURNDATASIZE PUSH1 0x20 DUP2 LT ISZERO PUSH2 0x1BD4 JUMPI PUSH1 0x0 DUP1 PUSH2 0x1BD1 PUSH2 0x3230 JUMP JUMPDEST POP POP JUMPDEST DUP2 ADD SWAP1 DUP1 DUP1 MLOAD SWAP4 POP POP POP POP GAS PUSH2 0x1BE8 PUSH2 0x3400 JUMP JUMPDEST PUSH1 0x1 PUSH1 0x1 PUSH1 0xA0 SHL SUB AND DUP2 PUSH1 0x1 PUSH1 0x1 PUSH1 0xA0 SHL SUB AND EQ PUSH2 0x1C40 JUMPI PUSH1 0x40 MLOAD PUSH3 0x461BCD PUSH1 0xE5 SHL DUP2 MSTORE PUSH1 0x4 ADD DUP1 DUP1 PUSH1 0x20 ADD DUP3 DUP2 SUB DUP3 MSTORE PUSH1 0x2E DUP2 MSTORE PUSH1 0x20 ADD DUP1 PUSH2 0x3503 PUSH1 0x2E SWAP2 CODECOPY PUSH1 0x40 ADD SWAP2 POP POP PUSH1 0x40 MLOAD DUP1 SWAP2 SUB SWAP1 PUSH2 0x1C3D PUSH2 0x3230 JUMP JUMPDEST POP POP JUMPDEST PUSH2 0xEEC DUP6 DUP6 DUP6 PUSH2 0x3075 JUMP JUMPDEST DUP3 PUSH1 0x0 DUP1 DUP1 PUSH2 0x1C58 PUSH2 0x329B JUMP JUMPDEST SWAP1 PUSH2 0x100 EXP SWAP1 DIV PUSH1 0x1 PUSH1 0x1 PUSH1 0xA0 SHL SUB AND PUSH1 0x1 PUSH1 0x1 PUSH1 0xA0 SHL SUB AND PUSH4 0xDACB2D01 DUP4 PUSH1 0x40 MLOAD DUP3 PUSH4 0xFFFFFFFF AND PUSH1 0xE0 SHL DUP2 MSTORE PUSH1 0x4 ADD DUP1 DUP3 DUP2 MSTORE PUSH1 0x20 ADD DUP1 PUSH1 0x20 ADD DUP3 DUP2 SUB DUP3 MSTORE PUSH1 0x28 DUP2 MSTORE PUSH1 0x20 ADD DUP1 PUSH2 0x34DB PUSH1 0x28 SWAP2 CODECOPY PUSH1 0x40 ADD SWAP3 POP POP POP PUSH1 0x20 PUSH1 0x40 MLOAD DUP1 DUP4 SUB DUP2 DUP7 DUP1 PUSH2 0x1CC2 PUSH2 0x32FB JUMP JUMPDEST ISZERO DUP1 ISZERO PUSH2 0x1CD7 JUMPI PUSH1 0x0 DUP1 PUSH2 0x1CD4 PUSH2 0x3230 JUMP JUMPDEST POP POP JUMPDEST POP GAS PUSH2 0x1CE1 PUSH2 0x3347 JUMP JUMPDEST POP POP POP POP POP ISZERO DUP1 ISZERO PUSH2 0x1D00 JUMPI RETURNDATASIZE PUSH1 0x0 DUP1 RETURNDATACOPY RETURNDATASIZE PUSH1 0x0 PUSH2 0x1CFD PUSH2 0x3230 JUMP JUMPDEST POP POP JUMPDEST POP POP POP POP PUSH1 0x40 MLOAD RETURNDATASIZE PUSH1 0x20 DUP2 LT ISZERO PUSH2 0x1D1F JUMPI PUSH1 0x0 DUP1 PUSH2 0x1D1C PUSH2 0x3230 JUMP JUMPDEST POP POP JUMPDEST DUP2 ADD SWAP1 DUP1 DUP1 MLOAD SWAP4 POP POP POP POP GAS PUSH2 0x1D33 PUSH2 0x3400 JUMP JUMPDEST PUSH1 0x1 PUSH1 0x1 PUSH1 0xA0 SHL SUB AND DUP2 PUSH1 0x1 PUSH1 0x1 PUSH1 0xA0 SHL SUB AND EQ PUSH2 0x1D8B JUMPI PUSH1 0x40 MLOAD PUSH3 0x461BCD PUSH1 0xE5 SHL DUP2 MSTORE PUSH1 0x4 ADD DUP1 DUP1 PUSH1 0x20 ADD DUP3 DUP2 SUB DUP3 MSTORE PUSH1 0x2E DUP2 MSTORE PUSH1 0x20 ADD DUP1 PUSH2 0x3503 PUSH1 0x2E SWAP2 CODECOPY PUSH1 0x40 ADD SWAP2 POP POP PUSH1 0x40 MLOAD DUP1 SWAP2 SUB SWAP1 PUSH2 0x1D88 PUSH2 0x3230 JUMP JUMPDEST POP POP JUMPDEST PUSH2 0xEEC DUP6 DUP6 DUP6 PUSH2 0x2FC5 JUMP JUMPDEST DUP3 PUSH1 0x0 DUP1 DUP1 PUSH2 0x1DA3 PUSH2 0x329B JUMP JUMPDEST SWAP1 PUSH2 0x100 EXP SWAP1 DIV PUSH1 0x1 PUSH1 0x1 PUSH1 0xA0 SHL SUB AND PUSH1 0x1 PUSH1 0x1 PUSH1 0xA0 SHL SUB AND PUSH4 0xDACB2D01 DUP4 PUSH1 0x40 MLOAD DUP3 PUSH4 0xFFFFFFFF AND PUSH1 0xE0 SHL DUP2 MSTORE PUSH1 0x4 ADD DUP1 DUP3 DUP2 MSTORE PUSH1 0x20 ADD DUP1 PUSH1 0x20 ADD DUP3 DUP2 SUB DUP3 MSTORE PUSH1 0x28 DUP2 MSTORE PUSH1 0x20 ADD DUP1 PUSH2 0x34DB PUSH1 0x28 SWAP2 CODECOPY PUSH1 0x40 ADD SWAP3 POP POP POP PUSH1 0x20 PUSH1 0x40 MLOAD DUP1 DUP4 SUB DUP2 DUP7 DUP1 PUSH2 0x1E0D PUSH2 0x32FB JUMP JUMPDEST ISZERO DUP1 ISZERO PUSH2 0x1E22 JUMPI PUSH1 0x0 DUP1 PUSH2 0x1E1F PUSH2 0x3230 JUMP JUMPDEST POP POP JUMPDEST POP GAS PUSH2 0x1E2C PUSH2 0x3347 JUMP JUMPDEST POP POP POP POP POP ISZERO DUP1 ISZERO PUSH2 0x1E4B JUMPI RETURNDATASIZE PUSH1 0x0 DUP1 RETURNDATACOPY RETURNDATASIZE PUSH1 0x0 PUSH2 0x1E48 PUSH2 0x3230 JUMP JUMPDEST POP POP JUMPDEST POP POP POP POP PUSH1 0x40 MLOAD RETURNDATASIZE PUSH1 0x20 DUP2 LT ISZERO PUSH2 0x1E6A JUMPI PUSH1 0x0 DUP1 PUSH2 0x1E67 PUSH2 0x3230 JUMP JUMPDEST POP POP JUMPDEST DUP2 ADD SWAP1 DUP1 DUP1 MLOAD SWAP4 POP POP POP POP GAS PUSH2 0x1E7E PUSH2 0x3400 JUMP JUMPDEST PUSH1 0x1 PUSH1 0x1 PUSH1 0xA0 SHL SUB AND DUP2 PUSH1 0x1 PUSH1 0x1 PUSH1 0xA0 SHL SUB AND EQ PUSH2 0x1ED6 JUMPI PUSH1 0x40 MLOAD PUSH3 0x461BCD PUSH1 0xE5 SHL DUP2 MSTORE PUSH1 0x4 ADD DUP1 DUP1 PUSH1 0x20 ADD DUP3 DUP2 SUB DUP3 MSTORE PUSH1 0x2E DUP2 MSTORE PUSH1 0x20 ADD DUP1 PUSH2 0x3503 PUSH1 0x2E SWAP2 CODECOPY PUSH1 0x40 ADD SWAP2 POP POP PUSH1 0x40 MLOAD DUP1 SWAP2 SUB SWAP1 PUSH2 0x1ED3 PUSH2 0x3230 JUMP JUMPDEST POP POP JUMPDEST PUSH1 0x0 DUP6 DUP2 MSTORE PUSH1 0x1 PUSH1 0x20 MSTORE PUSH1 0x40 DUP2 KECCAK256 PUSH2 0x1EEC PUSH2 0x329B JUMP JUMPDEST EQ ISZERO PUSH2 0x1F47 JUMPI PUSH1 0x40 MLOAD PUSH3 0x461BCD PUSH1 0xE5 SHL DUP2 MSTORE PUSH1 0x20 PUSH1 0x4 DUP3 ADD MSTORE PUSH1 0x1D PUSH1 0x24 DUP3 ADD MSTORE PUSH32 0x43616E6E6F74206D69677261746520656D70747920636F6E7472616374000000 PUSH1 0x44 DUP3 ADD MSTORE PUSH1 0x64 ADD PUSH1 0x40 MLOAD DUP1 SWAP2 SUB SWAP1 PUSH2 0x1F44 PUSH2 0x3230 JUMP JUMPDEST POP POP JUMPDEST PUSH1 0x0 DUP6 DUP2 MSTORE PUSH1 0x1 PUSH1 0x20 MSTORE PUSH1 0x40 SWAP1 KECCAK256 PUSH2 0x1F5D PUSH2 0x329B JUMP JUMPDEST PUSH1 0x0 DUP6 DUP2 MSTORE PUSH1 0x1 PUSH1 0x20 MSTORE PUSH1 0x40 SWAP1 KECCAK256 DUP2 SWAP1 PUSH2 0x1F75 PUSH2 0x3446 JUMP JUMPDEST POP POP POP DUP3 ISZERO PUSH2 0x1F9A JUMPI PUSH1 0x0 DUP6 DUP2 MSTORE PUSH1 0x1 PUSH1 0x20 MSTORE PUSH1 0x40 SWAP1 KECCAK256 PUSH1 0x0 SWAP1 PUSH2 0x1F97 PUSH2 0x3446 JUMP JUMPDEST POP POP JUMPDEST PUSH32 0xA3DB9C909DAA141B61562C797DAE4DC4B3D7751686068C98111DB87B2A8C374C DUP6 DUP6 DUP6 PUSH1 0x40 MLOAD SWAP3 DUP4 MSTORE PUSH1 0x20 DUP4 ADD SWAP2 SWAP1 SWAP2 MSTORE ISZERO ISZERO PUSH1 0x40 DUP1 DUP4 ADD SWAP2 SWAP1 SWAP2 MSTORE PUSH1 0x60 SWAP1 SWAP2 ADD SWAP1 MLOAD DUP1 SWAP2 SUB SWAP1 LOG1 POP POP POP POP POP JUMP JUMPDEST PUSH1 0x0 DUP1 PUSH2 0x1FF5 PUSH2 0x329B JUMP JUMPDEST SWAP1 PUSH2 0x100 EXP SWAP1 DIV PUSH1 0x1 PUSH1 0x1 PUSH1 0xA0 SHL SUB AND DUP2 JUMP JUMPDEST PUSH1 0x60 DUP1 DUP3 PUSH1 0x40 MLOAD SWAP1 DUP1 DUP3 MSTORE DUP1 PUSH1 0x20 MUL PUSH1 0x20 ADD DUP3 ADD PUSH1 0x40 MSTORE DUP1 ISZERO PUSH2 0x2035 JUMPI DUP2 PUSH1 0x20 ADD PUSH1 0x20 DUP3 MUL DUP1 CODESIZE DUP4 CODECOPY ADD SWAP1 POP JUMPDEST POP PUSH1 0x0 DUP7 DUP2 MSTORE PUSH1 0x1 PUSH1 0x20 MSTORE SWAP1 SWAP2 POP PUSH1 0x6 DUP2 PUSH1 0x40 DUP2 KECCAK256 PUSH2 0x2052 PUSH2 0x329B JUMP JUMPDEST DUP2 MSTORE PUSH1 0x20 ADD SWAP1 DUP2 MSTORE PUSH1 0x20 ADD PUSH1 0x0 KECCAK256 SWAP1 POP PUSH1 0x0 JUMPDEST DUP5 DUP2 LT ISZERO PUSH2 0x1179 JUMPI DUP2 PUSH1 0x0 DUP8 DUP8 DUP5 DUP2 DUP2 LT PUSH2 0x207C JUMPI INVALID JUMPDEST SWAP1 POP PUSH1 0x20 MUL ADD CALLDATALOAD DUP2 MSTORE PUSH1 0x20 ADD SWAP1 DUP2 MSTORE PUSH1 0x20 ADD PUSH1 0x0 KECCAK256 PUSH2 0x2099 PUSH2 0x329B JUMP JUMPDEST DUP4 DUP3 DUP2 MLOAD DUP2 LT PUSH2 0x20A5 JUMPI INVALID JUMPDEST PUSH1 0x20 SWAP1 DUP2 MUL SWAP2 SWAP1 SWAP2 ADD ADD MSTORE PUSH1 0x1 ADD PUSH2 0x2065 JUMP JUMPDEST PUSH1 0x60 DUP1 DUP3 PUSH1 0x40 MLOAD SWAP1 DUP1 DUP3 MSTORE DUP1 PUSH1 0x20 MUL PUSH1 0x20 ADD DUP3 ADD PUSH1 0x40 MSTORE DUP1 ISZERO PUSH2 0x20E5 JUMPI DUP2 PUSH1 0x20 ADD PUSH1 0x20 DUP3 MUL DUP1 CODESIZE DUP4 CODECOPY ADD SWAP1 POP JUMPDEST POP PUSH1 0x0 DUP7 DUP2 MSTORE PUSH1 0x1 PUSH1 0x20 MSTORE SWAP1 SWAP2 POP PUSH1 0x4 DUP2 PUSH1 0x40 DUP2 KECCAK256 PUSH2 0x2102 PUSH2 0x329B JUMP JUMPDEST DUP2 MSTORE PUSH1 0x20 ADD SWAP1 DUP2 MSTORE PUSH1 0x20 ADD PUSH1 0x0 KECCAK256 SWAP1 POP PUSH1 0x0 JUMPDEST DUP5 DUP2 LT ISZERO PUSH2 0x1179 JUMPI DUP2 PUSH1 0x0 DUP8 DUP8 DUP5 DUP2 DUP2 LT PUSH2 0x212C JUMPI INVALID JUMPDEST SWAP1 POP PUSH1 0x20 MUL ADD CALLDATALOAD DUP2 MSTORE PUSH1 0x20 ADD SWAP1 DUP2 MSTORE PUSH1 0x20 ADD PUSH1 0x0 KECCAK256 PUSH1 0x0 SWAP1 PUSH2 0x214C PUSH2 0x329B JUMP JUMPDEST SWAP1 PUSH2 0x100 EXP SWAP1 DIV PUSH1 0x1 PUSH1 0x1 PUSH1 0xA0 SHL SUB AND DUP4 DUP3 DUP2 MLOAD DUP2 LT PUSH2 0x2168 JUMPI INVALID JUMPDEST PUSH1 0x1 PUSH1 0x1 PUSH1 0xA0 SHL SUB SWAP1 SWAP3 AND PUSH1 0x20 SWAP3 DUP4 MUL SWAP2 SWAP1 SWAP2 ADD SWAP1 SWAP2 ADD MSTORE PUSH1 0x1 ADD PUSH2 0x2115 JUMP JUMPDEST DUP2 PUSH1 0x0 DUP1 DUP1 PUSH2 0x2195 PUSH2 0x329B JUMP JUMPDEST SWAP1 PUSH2 0x100 EXP SWAP1 DIV PUSH1 0x1 PUSH1 0x1 PUSH1 0xA0 SHL SUB AND PUSH1 0x1 PUSH1 0x1 PUSH1 0xA0 SHL SUB AND PUSH4 0xDACB2D01 DUP4 PUSH1 0x40 MLOAD DUP3 PUSH4 0xFFFFFFFF AND PUSH1 0xE0 SHL DUP2 MSTORE PUSH1 0x4 ADD DUP1 DUP3 DUP2 MSTORE PUSH1 0x20 ADD DUP1 PUSH1 0x20 ADD DUP3 DUP2 SUB DUP3 MSTORE PUSH1 0x28 DUP2 MSTORE PUSH1 0x20 ADD DUP1 PUSH2 0x34DB PUSH1 0x28 SWAP2 CODECOPY PUSH1 0x40 ADD SWAP3 POP POP POP PUSH1 0x20 PUSH1 0x40 MLOAD DUP1 DUP4 SUB DUP2 DUP7 DUP1 PUSH2 0x21FF PUSH2 0x32FB JUMP JUMPDEST ISZERO DUP1 ISZERO PUSH2 0x2214 JUMPI PUSH1 0x0 DUP1 PUSH2 0x2211 PUSH2 0x3230 JUMP JUMPDEST POP POP JUMPDEST POP GAS PUSH2 0x221E PUSH2 0x3347 JUMP JUMPDEST POP POP POP POP POP ISZERO DUP1 ISZERO PUSH2 0x223D JUMPI RETURNDATASIZE PUSH1 0x0 DUP1 RETURNDATACOPY RETURNDATASIZE PUSH1 0x0 PUSH2 0x223A PUSH2 0x3230 JUMP JUMPDEST POP POP JUMPDEST POP POP POP POP PUSH1 0x40 MLOAD RETURNDATASIZE PUSH1 0x20 DUP2 LT ISZERO PUSH2 0x225C JUMPI PUSH1 0x0 DUP1 PUSH2 0x2259 PUSH2 0x3230 JUMP JUMPDEST POP POP JUMPDEST DUP2 ADD SWAP1 DUP1 DUP1 MLOAD SWAP4 POP POP POP POP GAS PUSH2 0x2270 PUSH2 0x3400 JUMP JUMPDEST PUSH1 0x1 PUSH1 0x1 PUSH1 0xA0 SHL SUB AND DUP2 PUSH1 0x1 PUSH1 0x1 PUSH1 0xA0 SHL SUB AND EQ PUSH2 0x22C8 JUMPI PUSH1 0x40 MLOAD PUSH3 0x461BCD PUSH1 0xE5 SHL DUP2 MSTORE PUSH1 0x4 ADD DUP1 DUP1 PUSH1 0x20 ADD DUP3 DUP2 SUB DUP3 MSTORE PUSH1 0x2E DUP2 MSTORE PUSH1 0x20 ADD DUP1 PUSH2 0x3503 PUSH1 0x2E SWAP2 CODECOPY PUSH1 0x40 ADD SWAP2 POP POP PUSH1 0x40 MLOAD DUP1 SWAP2 SUB SWAP1 PUSH2 0x22C5 PUSH2 0x3230 JUMP JUMPDEST POP POP JUMPDEST PUSH1 0x0 DUP5 DUP2 MSTORE PUSH1 0x1 PUSH1 0x20 MSTORE PUSH1 0x4 DUP2 PUSH1 0x40 DUP2 KECCAK256 PUSH2 0x22E1 PUSH2 0x329B JUMP JUMPDEST DUP2 MSTORE PUSH1 0x20 ADD SWAP1 DUP2 MSTORE PUSH1 0x20 ADD PUSH1 0x0 KECCAK256 PUSH1 0x0 DUP6 DUP2 MSTORE PUSH1 0x20 SWAP2 SWAP1 SWAP2 MSTORE PUSH1 0x40 SWAP1 KECCAK256 PUSH1 0x0 SWAP1 PUSH2 0x2309 PUSH2 0x329B JUMP JUMPDEST SWAP1 PUSH2 0x100 EXP SWAP1 DIV PUSH1 0x1 PUSH1 0x1 PUSH1 0xA0 SHL SUB AND SWAP1 POP PUSH32 0xEC1140277B8F20820DC76B92216489238A207D5F22C964099303820FBD2BDF66 DUP6 DUP6 DUP4 PUSH1 0x40 MLOAD SWAP3 DUP4 MSTORE PUSH1 0x20 DUP4 ADD SWAP2 SWAP1 SWAP2 MSTORE PUSH1 0x1 PUSH1 0x1 PUSH1 0xA0 SHL SUB AND PUSH1 0x40 DUP1 DUP4 ADD SWAP2 SWAP1 SWAP2 MSTORE PUSH1 0x60 SWAP1 SWAP2 ADD SWAP1 MLOAD DUP1 SWAP2 SUB SWAP1 LOG1 PUSH1 0x0 DUP6 DUP2 MSTORE PUSH1 0x1 PUSH1 0x20 MSTORE PUSH1 0x4 SWAP1 PUSH1 0x40 DUP2 KECCAK256 PUSH2 0x2384 PUSH2 0x329B JUMP JUMPDEST DUP2 MSTORE PUSH1 0x20 ADD SWAP1 DUP2 MSTORE PUSH1 0x20 ADD PUSH1 0x0 KECCAK256 PUSH1 0x0 DUP6 DUP2 MSTORE PUSH1 0x20 SWAP2 SWAP1 SWAP2 MSTORE PUSH1 0x40 SWAP1 KECCAK256 PUSH1 0x1 DUP2 PUSH2 0x23AC PUSH2 0x329B JUMP JUMPDEST SWAP1 PUSH1 0x1 PUSH1 0x1 PUSH1 0xA0 SHL SUB MUL NOT AND SWAP1 PUSH2 0x13AA PUSH2 0x3446 JUMP JUMPDEST PUSH1 0x0 DUP3 DUP2 MSTORE PUSH1 0x1 PUSH1 0x20 MSTORE PUSH1 0x4 DUP2 PUSH1 0x40 DUP2 KECCAK256 PUSH2 0x23DA PUSH2 0x329B JUMP JUMPDEST DUP2 MSTORE PUSH1 0x20 ADD SWAP1 DUP2 MSTORE PUSH1 0x20 ADD PUSH1 0x0 KECCAK256 PUSH1 0x0 DUP4 DUP2 MSTORE PUSH1 0x20 SWAP2 SWAP1 SWAP2 MSTORE PUSH1 0x40 SWAP1 KECCAK256 PUSH1 0x0 SWAP1 PUSH2 0x2402 PUSH2 0x329B JUMP JUMPDEST SWAP1 PUSH2 0x100 EXP SWAP1 DIV PUSH1 0x1 PUSH1 0x1 PUSH1 0xA0 SHL SUB AND SWAP1 POP SWAP3 SWAP2 POP POP JUMP JUMPDEST DUP5 PUSH1 0x0 DUP1 DUP1 PUSH2 0x2427 PUSH2 0x329B JUMP JUMPDEST SWAP1 PUSH2 0x100 EXP SWAP1 DIV PUSH1 0x1 PUSH1 0x1 PUSH1 0xA0 SHL SUB AND PUSH1 0x1 PUSH1 0x1 PUSH1 0xA0 SHL SUB AND PUSH4 0xDACB2D01 DUP4 PUSH1 0x40 MLOAD DUP3 PUSH4 0xFFFFFFFF AND PUSH1 0xE0 SHL DUP2 MSTORE PUSH1 0x4 ADD DUP1 DUP3 DUP2 MSTORE PUSH1 0x20 ADD DUP1 PUSH1 0x20 ADD DUP3 DUP2 SUB DUP3 MSTORE PUSH1 0x28 DUP2 MSTORE PUSH1 0x20 ADD DUP1 PUSH2 0x34DB PUSH1 0x28 SWAP2 CODECOPY PUSH1 0x40 ADD SWAP3 POP POP POP PUSH1 0x20 PUSH1 0x40 MLOAD DUP1 DUP4 SUB DUP2 DUP7 DUP1 PUSH2 0x2491 PUSH2 0x32FB JUMP JUMPDEST ISZERO DUP1 ISZERO PUSH2 0x24A6 JUMPI PUSH1 0x0 DUP1 PUSH2 0x24A3 PUSH2 0x3230 JUMP JUMPDEST POP POP JUMPDEST POP GAS PUSH2 0x24B0 PUSH2 0x3347 JUMP JUMPDEST POP POP POP POP POP ISZERO DUP1 ISZERO PUSH2 0x24CF JUMPI RETURNDATASIZE PUSH1 0x0 DUP1 RETURNDATACOPY RETURNDATASIZE PUSH1 0x0 PUSH2 0x24CC PUSH2 0x3230 JUMP JUMPDEST POP POP JUMPDEST POP POP POP POP PUSH1 0x40 MLOAD RETURNDATASIZE PUSH1 0x20 DUP2 LT ISZERO PUSH2 0x24EE JUMPI PUSH1 0x0 DUP1 PUSH2 0x24EB PUSH2 0x3230 JUMP JUMPDEST POP POP JUMPDEST DUP2 ADD SWAP1 DUP1 DUP1 MLOAD SWAP4 POP POP POP POP GAS PUSH2 0x2502 PUSH2 0x3400 JUMP JUMPDEST PUSH1 0x1 PUSH1 0x1 PUSH1 0xA0 SHL SUB AND DUP2 PUSH1 0x1 PUSH1 0x1 PUSH1 0xA0 SHL SUB AND EQ PUSH2 0x255A JUMPI PUSH1 0x40 MLOAD PUSH3 0x461BCD PUSH1 0xE5 SHL DUP2 MSTORE PUSH1 0x4 ADD DUP1 DUP1 PUSH1 0x20 ADD DUP3 DUP2 SUB DUP3 MSTORE PUSH1 0x2E DUP2 MSTORE PUSH1 0x20 ADD DUP1 PUSH2 0x3503 PUSH1 0x2E SWAP2 CODECOPY PUSH1 0x40 ADD SWAP2 POP POP PUSH1 0x40 MLOAD DUP1 SWAP2 SUB SWAP1 PUSH2 0x2557 PUSH2 0x3230 JUMP JUMPDEST POP POP JUMPDEST DUP5 DUP4 EQ PUSH2 0x25A4 JUMPI PUSH1 0x40 MLOAD PUSH3 0x461BCD PUSH1 0xE5 SHL DUP2 MSTORE PUSH1 0x20 PUSH1 0x4 DUP3 ADD MSTORE PUSH1 0x18 PUSH1 0x24 DUP3 ADD MSTORE PUSH1 0x0 DUP1 MLOAD PUSH1 0x20 PUSH2 0x3531 DUP4 CODECOPY DUP2 MLOAD SWAP2 MSTORE PUSH1 0x44 DUP3 ADD MSTORE PUSH1 0x64 ADD PUSH1 0x40 MLOAD DUP1 SWAP2 SUB SWAP1 PUSH2 0x25A1 PUSH2 0x3230 JUMP JUMPDEST POP POP JUMPDEST PUSH1 0x0 JUMPDEST DUP6 DUP2 LT ISZERO PUSH2 0x10BF JUMPI PUSH2 0x25DE DUP9 DUP9 DUP9 DUP5 DUP2 DUP2 LT PUSH2 0x25BF JUMPI INVALID JUMPDEST SWAP1 POP PUSH1 0x20 MUL ADD CALLDATALOAD DUP8 DUP8 DUP6 DUP2 DUP2 LT PUSH2 0x25D2 JUMPI INVALID JUMPDEST SWAP1 POP PUSH1 0x20 MUL ADD CALLDATALOAD PUSH2 0x3111 JUMP JUMPDEST PUSH1 0x1 ADD PUSH2 0x25A7 JUMP JUMPDEST PUSH1 0x60 DUP1 DUP3 PUSH1 0x40 MLOAD SWAP1 DUP1 DUP3 MSTORE DUP1 PUSH1 0x20 MUL PUSH1 0x20 ADD DUP3 ADD PUSH1 0x40 MSTORE DUP1 ISZERO PUSH2 0x2613 JUMPI DUP2 PUSH1 0x20 ADD PUSH1 0x20 DUP3 MUL DUP1 CODESIZE DUP4 CODECOPY ADD SWAP1 POP JUMPDEST POP PUSH1 0x0 DUP7 DUP2 MSTORE PUSH1 0x1 PUSH1 0x20 MSTORE SWAP1 SWAP2 POP PUSH1 0x2 DUP2 PUSH1 0x40 DUP2 KECCAK256 PUSH2 0x2630 PUSH2 0x329B JUMP JUMPDEST DUP2 MSTORE PUSH1 0x20 ADD SWAP1 DUP2 MSTORE PUSH1 0x20 ADD PUSH1 0x0 KECCAK256 SWAP1 POP PUSH1 0x0 JUMPDEST DUP5 DUP2 LT ISZERO PUSH2 0x1179 JUMPI DUP2 PUSH1 0x0 DUP8 DUP8 DUP5 DUP2 DUP2 LT PUSH2 0x265A JUMPI INVALID JUMPDEST SWAP1 POP PUSH1 0x20 MUL ADD CALLDATALOAD DUP2 MSTORE PUSH1 0x20 ADD SWAP1 DUP2 MSTORE PUSH1 0x20 ADD PUSH1 0x0 KECCAK256 PUSH2 0x2677 PUSH2 0x329B JUMP JUMPDEST DUP4 DUP3 DUP2 MLOAD DUP2 LT PUSH2 0x2683 JUMPI INVALID JUMPDEST PUSH1 0x20 SWAP1 DUP2 MUL SWAP2 SWAP1 SWAP2 ADD ADD MSTORE PUSH1 0x1 ADD PUSH2 0x2643 JUMP JUMPDEST PUSH1 0x60 DUP1 DUP3 PUSH1 0x40 MLOAD SWAP1 DUP1 DUP3 MSTORE DUP1 PUSH1 0x20 MUL PUSH1 0x20 ADD DUP3 ADD PUSH1 0x40 MSTORE DUP1 ISZERO PUSH2 0x26C3 JUMPI DUP2 PUSH1 0x20 ADD PUSH1 0x20 DUP3 MUL DUP1 CODESIZE DUP4 CODECOPY ADD SWAP1 POP JUMPDEST POP PUSH1 0x0 DUP7 DUP2 MSTORE PUSH1 0x1 PUSH1 0x20 MSTORE SWAP1 SWAP2 POP PUSH1 0x5 DUP2 PUSH1 0x40 DUP2 KECCAK256 PUSH2 0x26E0 PUSH2 0x329B JUMP JUMPDEST DUP2 MSTORE PUSH1 0x20 ADD SWAP1 DUP2 MSTORE PUSH1 0x20 ADD PUSH1 0x0 KECCAK256 SWAP1 POP PUSH1 0x0 JUMPDEST DUP5 DUP2 LT ISZERO PUSH2 0x1179 JUMPI DUP2 PUSH1 0x0 DUP8 DUP8 DUP5 DUP2 DUP2 LT PUSH2 0x270A JUMPI INVALID JUMPDEST SWAP1 POP PUSH1 0x20 MUL ADD CALLDATALOAD DUP2 MSTORE PUSH1 0x20 ADD SWAP1 DUP2 MSTORE PUSH1 0x20 ADD PUSH1 0x0 KECCAK256 PUSH1 0x0 SWAP1 PUSH2 0x272A PUSH2 0x329B JUMP JUMPDEST SWAP1 PUSH2 0x100 EXP SWAP1 DIV PUSH1 0xFF AND DUP4 DUP3 DUP2 MLOAD DUP2 LT PUSH2 0x2740 JUMPI INVALID JUMPDEST SWAP2 ISZERO ISZERO PUSH1 0x20 SWAP3 DUP4 MUL SWAP2 SWAP1 SWAP2 ADD SWAP1 SWAP2 ADD MSTORE PUSH1 0x1 ADD PUSH2 0x26F3 JUMP JUMPDEST PUSH1 0x0 DUP3 DUP2 MSTORE PUSH1 0x1 PUSH1 0x20 MSTORE PUSH1 0x3 DUP2 PUSH1 0x40 DUP2 KECCAK256 PUSH2 0x171F PUSH2 0x329B JUMP JUMPDEST DUP5 PUSH1 0x0 DUP1 DUP1 PUSH2 0x277E PUSH2 0x329B JUMP JUMPDEST SWAP1 PUSH2 0x100 EXP SWAP1 DIV PUSH1 0x1 PUSH1 0x1 PUSH1 0xA0 SHL SUB AND PUSH1 0x1 PUSH1 0x1 PUSH1 0xA0 SHL SUB AND PUSH4 0xDACB2D01 DUP4 PUSH1 0x40 MLOAD DUP3 PUSH4 0xFFFFFFFF AND PUSH1 0xE0 SHL DUP2 MSTORE PUSH1 0x4 ADD DUP1 DUP3 DUP2 MSTORE PUSH1 0x20 ADD DUP1 PUSH1 0x20 ADD DUP3 DUP2 SUB DUP3 MSTORE PUSH1 0x28 DUP2 MSTORE PUSH1 0x20 ADD DUP1 PUSH2 0x34DB PUSH1 0x28 SWAP2 CODECOPY PUSH1 0x40 ADD SWAP3 POP POP POP PUSH1 0x20 PUSH1 0x40 MLOAD DUP1 DUP4 SUB DUP2 DUP7 DUP1 PUSH2 0x27E8 PUSH2 0x32FB JUMP JUMPDEST ISZERO DUP1 ISZERO PUSH2 0x27FD JUMPI PUSH1 0x0 DUP1 PUSH2 0x27FA PUSH2 0x3230 JUMP JUMPDEST POP POP JUMPDEST POP GAS PUSH2 0x2807 PUSH2 0x3347 JUMP JUMPDEST POP POP POP POP POP ISZERO DUP1 ISZERO PUSH2 0x2826 JUMPI RETURNDATASIZE PUSH1 0x0 DUP1 RETURNDATACOPY RETURNDATASIZE PUSH1 0x0 PUSH2 0x2823 PUSH2 0x3230 JUMP JUMPDEST POP POP JUMPDEST POP POP POP POP PUSH1 0x40 MLOAD RETURNDATASIZE PUSH1 0x20 DUP2 LT ISZERO PUSH2 0x2845 JUMPI PUSH1 0x0 DUP1 PUSH2 0x2842 PUSH2 0x3230 JUMP JUMPDEST POP POP JUMPDEST DUP2 ADD SWAP1 DUP1 DUP1 MLOAD SWAP4 POP POP POP POP GAS PUSH2 0x2859 PUSH2 0x3400 JUMP JUMPDEST PUSH1 0x1 PUSH1 0x1 PUSH1 0xA0 SHL SUB AND DUP2 PUSH1 0x1 PUSH1 0x1 PUSH1 0xA0 SHL SUB AND EQ PUSH2 0x28B1 JUMPI PUSH1 0x40 MLOAD PUSH3 0x461BCD PUSH1 0xE5 SHL DUP2 MSTORE PUSH1 0x4 ADD DUP1 DUP1 PUSH1 0x20 ADD DUP3 DUP2 SUB DUP3 MSTORE PUSH1 0x2E DUP2 MSTORE PUSH1 0x20 ADD DUP1 PUSH2 0x3503 PUSH1 0x2E SWAP2 CODECOPY PUSH1 0x40 ADD SWAP2 POP POP PUSH1 0x40 MLOAD DUP1 SWAP2 SUB SWAP1 PUSH2 0x28AE PUSH2 0x3230 JUMP JUMPDEST POP POP JUMPDEST DUP5 DUP4 EQ PUSH2 0x28FB JUMPI PUSH1 0x40 MLOAD PUSH3 0x461BCD PUSH1 0xE5 SHL DUP2 MSTORE PUSH1 0x20 PUSH1 0x4 DUP3 ADD MSTORE PUSH1 0x18 PUSH1 0x24 DUP3 ADD MSTORE PUSH1 0x0 DUP1 MLOAD PUSH1 0x20 PUSH2 0x3531 DUP4 CODECOPY DUP2 MLOAD SWAP2 MSTORE PUSH1 0x44 DUP3 ADD MSTORE PUSH1 0x64 ADD PUSH1 0x40 MLOAD DUP1 SWAP2 SUB SWAP1 PUSH2 0x28F8 PUSH2 0x3230 JUMP JUMPDEST POP POP JUMPDEST PUSH1 0x0 JUMPDEST DUP6 DUP2 LT ISZERO PUSH2 0x10BF JUMPI PUSH2 0x2935 DUP9 DUP9 DUP9 DUP5 DUP2 DUP2 LT PUSH2 0x2916 JUMPI INVALID JUMPDEST SWAP1 POP PUSH1 0x20 MUL ADD CALLDATALOAD DUP8 DUP8 DUP6 DUP2 DUP2 LT PUSH2 0x2929 JUMPI INVALID JUMPDEST SWAP1 POP PUSH1 0x20 MUL ADD CALLDATALOAD PUSH2 0x2EBD JUMP JUMPDEST PUSH1 0x1 ADD PUSH2 0x28FE JUMP JUMPDEST PUSH1 0x1 PUSH1 0x20 MSTORE DUP1 PUSH1 0x0 MSTORE PUSH1 0x40 PUSH1 0x0 KECCAK256 SWAP1 POP PUSH2 0x2955 PUSH2 0x329B JUMP JUMPDEST DUP2 JUMP JUMPDEST DUP3 PUSH1 0x0 DUP1 DUP1 PUSH2 0x2965 PUSH2 0x329B JUMP JUMPDEST SWAP1 PUSH2 0x100 EXP SWAP1 DIV PUSH1 0x1 PUSH1 0x1 PUSH1 0xA0 SHL SUB AND PUSH1 0x1 PUSH1 0x1 PUSH1 0xA0 SHL SUB AND PUSH4 0xDACB2D01 DUP4 PUSH1 0x40 MLOAD DUP3 PUSH4 0xFFFFFFFF AND PUSH1 0xE0 SHL DUP2 MSTORE PUSH1 0x4 ADD DUP1 DUP3 DUP2 MSTORE PUSH1 0x20 ADD DUP1 PUSH1 0x20 ADD DUP3 DUP2 SUB DUP3 MSTORE PUSH1 0x28 DUP2 MSTORE PUSH1 0x20 ADD DUP1 PUSH2 0x34DB PUSH1 0x28 SWAP2 CODECOPY PUSH1 0x40 ADD SWAP3 POP POP POP PUSH1 0x20 PUSH1 0x40 MLOAD DUP1 DUP4 SUB DUP2 DUP7 DUP1 PUSH2 0x29CF PUSH2 0x32FB JUMP JUMPDEST ISZERO DUP1 ISZERO PUSH2 0x29E4 JUMPI PUSH1 0x0 DUP1 PUSH2 0x29E1 PUSH2 0x3230 JUMP JUMPDEST POP POP JUMPDEST POP GAS PUSH2 0x29EE PUSH2 0x3347 JUMP JUMPDEST POP POP POP POP POP ISZERO DUP1 ISZERO PUSH2 0x2A0D JUMPI RETURNDATASIZE PUSH1 0x0 DUP1 RETURNDATACOPY RETURNDATASIZE PUSH1 0x0 PUSH2 0x2A0A PUSH2 0x3230 JUMP JUMPDEST POP POP JUMPDEST POP POP POP POP PUSH1 0x40 MLOAD RETURNDATASIZE PUSH1 0x20 DUP2 LT ISZERO PUSH2 0x2A2C JUMPI PUSH1 0x0 DUP1 PUSH2 0x2A29 PUSH2 0x3230 JUMP JUMPDEST POP POP JUMPDEST DUP2 ADD SWAP1 DUP1 DUP1 MLOAD SWAP4 POP POP POP POP GAS PUSH2 0x2A40 PUSH2 0x3400 JUMP JUMPDEST PUSH1 0x1 PUSH1 0x1 PUSH1 0xA0 SHL SUB AND DUP2 PUSH1 0x1 PUSH1 0x1 PUSH1 0xA0 SHL SUB AND EQ PUSH2 0x2A98 JUMPI PUSH1 0x40 MLOAD PUSH3 0x461BCD PUSH1 0xE5 SHL DUP2 MSTORE PUSH1 0x4 ADD DUP1 DUP1 PUSH1 0x20 ADD DUP3 DUP2 SUB DUP3 MSTORE PUSH1 0x2E DUP2 MSTORE PUSH1 0x20 ADD DUP1 PUSH2 0x3503 PUSH1 0x2E SWAP2 CODECOPY PUSH1 0x40 ADD SWAP2 POP POP PUSH1 0x40 MLOAD DUP1 SWAP2 SUB SWAP1 PUSH2 0x2A95 PUSH2 0x3230 JUMP JUMPDEST POP POP JUMPDEST PUSH2 0xEEC DUP6 DUP6 DUP6 PUSH2 0x3111 JUMP JUMPDEST PUSH1 0x0 DUP3 DUP2 MSTORE PUSH1 0x1 PUSH1 0x20 MSTORE PUSH1 0x5 DUP2 PUSH1 0x40 DUP2 KECCAK256 PUSH2 0x2ABC PUSH2 0x329B JUMP JUMPDEST DUP2 MSTORE PUSH1 0x20 ADD SWAP1 DUP2 MSTORE PUSH1 0x20 ADD PUSH1 0x0 KECCAK256 PUSH1 0x0 DUP4 DUP2 MSTORE PUSH1 0x20 SWAP2 SWAP1 SWAP2 MSTORE PUSH1 0x40 SWAP1 KECCAK256 PUSH1 0x0 SWAP1 PUSH2 0x2AE4 PUSH2 0x329B JUMP JUMPDEST SWAP1 PUSH2 0x100 EXP SWAP1 DIV PUSH1 0xFF AND SWAP1 POP SWAP3 SWAP2 POP POP JUMP JUMPDEST PUSH1 0x0 DUP3 DUP2 MSTORE PUSH1 0x1 PUSH1 0x20 MSTORE PUSH1 0x6 DUP2 PUSH1 0x40 DUP2 KECCAK256 PUSH2 0x171F PUSH2 0x329B JUMP JUMPDEST DUP5 PUSH1 0x0 DUP1 DUP1 PUSH2 0x2B1C PUSH2 0x329B JUMP JUMPDEST SWAP1 PUSH2 0x100 EXP SWAP1 DIV PUSH1 0x1 PUSH1 0x1 PUSH1 0xA0 SHL SUB AND PUSH1 0x1 PUSH1 0x1 PUSH1 0xA0 SHL SUB AND PUSH4 0xDACB2D01 DUP4 PUSH1 0x40 MLOAD DUP3 PUSH4 0xFFFFFFFF AND PUSH1 0xE0 SHL DUP2 MSTORE PUSH1 0x4 ADD DUP1 DUP3 DUP2 MSTORE PUSH1 0x20 ADD DUP1 PUSH1 0x20 ADD DUP3 DUP2 SUB DUP3 MSTORE PUSH1 0x28 DUP2 MSTORE PUSH1 0x20 ADD DUP1 PUSH2 0x34DB PUSH1 0x28 SWAP2 CODECOPY PUSH1 0x40 ADD SWAP3 POP POP POP PUSH1 0x20 PUSH1 0x40 MLOAD DUP1 DUP4 SUB DUP2 DUP7 DUP1 PUSH2 0x2B86 PUSH2 0x32FB JUMP JUMPDEST ISZERO DUP1 ISZERO PUSH2 0x2B9B JUMPI PUSH1 0x0 DUP1 PUSH2 0x2B98 PUSH2 0x3230 JUMP JUMPDEST POP POP JUMPDEST POP GAS PUSH2 0x2BA5 PUSH2 0x3347 JUMP JUMPDEST POP POP POP POP POP ISZERO DUP1 ISZERO PUSH2 0x2BC4 JUMPI RETURNDATASIZE PUSH1 0x0 DUP1 RETURNDATACOPY RETURNDATASIZE PUSH1 0x0 PUSH2 0x2BC1 PUSH2 0x3230 JUMP JUMPDEST POP POP JUMPDEST POP POP POP POP PUSH1 0x40 MLOAD RETURNDATASIZE PUSH1 0x20 DUP2 LT ISZERO PUSH2 0x2BE3 JUMPI PUSH1 0x0 DUP1 PUSH2 0x2BE0 PUSH2 0x3230 JUMP JUMPDEST POP POP JUMPDEST DUP2 ADD SWAP1 DUP1 DUP1 MLOAD SWAP4 POP POP POP POP GAS PUSH2 0x2BF7 PUSH2 0x3400 JUMP JUMPDEST PUSH1 0x1 PUSH1 0x1 PUSH1 0xA0 SHL SUB AND DUP2 PUSH1 0x1 PUSH1 0x1 PUSH1 0xA0 SHL SUB AND EQ PUSH2 0x2C4F JUMPI PUSH1 0x40 MLOAD PUSH3 0x461BCD PUSH1 0xE5 SHL DUP2 MSTORE PUSH1 0x4 ADD DUP1 DUP1 PUSH1 0x20 ADD DUP3 DUP2 SUB DUP3 MSTORE PUSH1 0x2E DUP2 MSTORE PUSH1 0x20 ADD DUP1 PUSH2 0x3503 PUSH1 0x2E SWAP2 CODECOPY PUSH1 0x40 ADD SWAP2 POP POP PUSH1 0x40 MLOAD DUP1 SWAP2 SUB SWAP1 PUSH2 0x2C4C PUSH2 0x3230 JUMP JUMPDEST POP POP JUMPDEST DUP5 DUP4 EQ PUSH2 0x2C99 JUMPI PUSH1 0x40 MLOAD PUSH3 0x461BCD PUSH1 0xE5 SHL DUP2 MSTORE PUSH1 0x20 PUSH1 0x4 DUP3 ADD MSTORE PUSH1 0x18 PUSH1 0x24 DUP3 ADD MSTORE PUSH1 0x0 DUP1 MLOAD PUSH1 0x20 PUSH2 0x3531 DUP4 CODECOPY DUP2 MLOAD SWAP2 MSTORE PUSH1 0x44 DUP3 ADD MSTORE PUSH1 0x64 ADD PUSH1 0x40 MLOAD DUP1 SWAP2 SUB SWAP1 PUSH2 0x2C96 PUSH2 0x3230 JUMP JUMPDEST POP POP JUMPDEST PUSH1 0x0 JUMPDEST DUP6 DUP2 LT ISZERO PUSH2 0x10BF JUMPI PUSH2 0x2CD5 DUP9 DUP9 DUP9 DUP5 DUP2 DUP2 LT PUSH2 0x2CB4 JUMPI INVALID JUMPDEST SWAP1 POP PUSH1 0x20 MUL ADD CALLDATALOAD DUP8 DUP8 DUP6 DUP2 DUP2 LT PUSH2 0x2CC7 JUMPI INVALID JUMPDEST SWAP1 POP PUSH1 0x20 MUL ADD CALLDATALOAD ISZERO ISZERO PUSH2 0x3075 JUMP JUMPDEST PUSH1 0x1 ADD PUSH2 0x2C9C JUMP JUMPDEST DUP2 PUSH1 0x0 DUP1 DUP1 PUSH2 0x2CEA PUSH2 0x329B JUMP JUMPDEST SWAP1 PUSH2 0x100 EXP SWAP1 DIV PUSH1 0x1 PUSH1 0x1 PUSH1 0xA0 SHL SUB AND PUSH1 0x1 PUSH1 0x1 PUSH1 0xA0 SHL SUB AND PUSH4 0xDACB2D01 DUP4 PUSH1 0x40 MLOAD DUP3 PUSH4 0xFFFFFFFF AND PUSH1 0xE0 SHL DUP2 MSTORE PUSH1 0x4 ADD DUP1 DUP3 DUP2 MSTORE PUSH1 0x20 ADD DUP1 PUSH1 0x20 ADD DUP3 DUP2 SUB DUP3 MSTORE PUSH1 0x28 DUP2 MSTORE PUSH1 0x20 ADD DUP1 PUSH2 0x34DB PUSH1 0x28 SWAP2 CODECOPY PUSH1 0x40 ADD SWAP3 POP POP POP PUSH1 0x20 PUSH1 0x40 MLOAD DUP1 DUP4 SUB DUP2 DUP7 DUP1 PUSH2 0x2D54 PUSH2 0x32FB JUMP JUMPDEST ISZERO DUP1 ISZERO PUSH2 0x2D69 JUMPI PUSH1 0x0 DUP1 PUSH2 0x2D66 PUSH2 0x3230 JUMP JUMPDEST POP POP JUMPDEST POP GAS PUSH2 0x2D73 PUSH2 0x3347 JUMP JUMPDEST POP POP POP POP POP ISZERO DUP1 ISZERO PUSH2 0x2D92 JUMPI RETURNDATASIZE PUSH1 0x0 DUP1 RETURNDATACOPY RETURNDATASIZE PUSH1 0x0 PUSH2 0x2D8F PUSH2 0x3230 JUMP JUMPDEST POP POP JUMPDEST POP POP POP POP PUSH1 0x40 MLOAD RETURNDATASIZE PUSH1 0x20 DUP2 LT ISZERO PUSH2 0x2DB1 JUMPI PUSH1 0x0 DUP1 PUSH2 0x2DAE PUSH2 0x3230 JUMP JUMPDEST POP POP JUMPDEST DUP2 ADD SWAP1 DUP1 DUP1 MLOAD SWAP4 POP POP POP POP GAS PUSH2 0x2DC5 PUSH2 0x3400 JUMP JUMPDEST PUSH1 0x1 PUSH1 0x1 PUSH1 0xA0 SHL SUB AND DUP2 PUSH1 0x1 PUSH1 0x1 PUSH1 0xA0 SHL SUB AND EQ PUSH2 0x2E1D JUMPI PUSH1 0x40 MLOAD PUSH3 0x461BCD PUSH1 0xE5 SHL DUP2 MSTORE PUSH1 0x4 ADD DUP1 DUP1 PUSH1 0x20 ADD DUP3 DUP2 SUB DUP3 MSTORE PUSH1 0x2E DUP2 MSTORE PUSH1 0x20 ADD DUP1 PUSH2 0x3503 PUSH1 0x2E SWAP2 CODECOPY PUSH1 0x40 ADD SWAP2 POP POP PUSH1 0x40 MLOAD DUP1 SWAP2 SUB SWAP1 PUSH2 0x2E1A PUSH2 0x3230 JUMP JUMPDEST POP POP JUMPDEST PUSH1 0x0 DUP5 DUP2 MSTORE PUSH1 0x1 PUSH1 0x20 MSTORE PUSH1 0x3 DUP2 PUSH1 0x40 DUP2 KECCAK256 PUSH2 0x2E36 PUSH2 0x329B JUMP JUMPDEST DUP2 MSTORE PUSH1 0x20 ADD SWAP1 DUP2 MSTORE PUSH1 0x20 ADD PUSH1 0x0 KECCAK256 PUSH1 0x0 DUP6 DUP2 MSTORE PUSH1 0x20 SWAP2 SWAP1 SWAP2 MSTORE PUSH1 0x40 SWAP1 KECCAK256 PUSH2 0x2E5B PUSH2 0x329B JUMP JUMPDEST SWAP1 POP PUSH32 0x78962C711B5655608C554689BA42E4890D9E5D3F590B99842612AD39CD7AE0AE DUP6 DUP6 DUP4 PUSH1 0x40 MLOAD DUP1 DUP5 DUP2 MSTORE PUSH1 0x20 ADD DUP4 DUP2 MSTORE PUSH1 0x20 ADD DUP3 DUP2 MSTORE PUSH1 0x20 ADD SWAP4 POP POP POP POP PUSH1 0x40 MLOAD DUP1 SWAP2 SUB SWAP1 LOG1 PUSH1 0x0 DUP6 DUP2 MSTORE PUSH1 0x1 PUSH1 0x20 MSTORE PUSH1 0x3 SWAP1 PUSH1 0x40 DUP2 KECCAK256 PUSH2 0x1593 PUSH2 0x329B JUMP JUMPDEST DUP1 PUSH1 0x6 PUSH1 0x0 PUSH2 0x2ECB DUP7 PUSH2 0x3195 JUMP JUMPDEST DUP2 MSTORE PUSH1 0x20 ADD SWAP1 DUP2 MSTORE PUSH1 0x20 ADD PUSH1 0x0 KECCAK256 PUSH1 0x0 DUP5 DUP2 MSTORE PUSH1 0x20 SWAP2 SWAP1 SWAP2 MSTORE PUSH1 0x40 SWAP1 KECCAK256 DUP2 SWAP1 PUSH2 0x2EF2 PUSH2 0x3446 JUMP JUMPDEST POP POP POP PUSH32 0x961ABB018D8A303304C9F1FF1F306C7493A8B68B381BBE4E9A3ABF9588A95280 DUP4 DUP4 DUP4 PUSH1 0x40 MLOAD DUP1 DUP5 DUP2 MSTORE PUSH1 0x20 ADD DUP4 DUP2 MSTORE PUSH1 0x20 ADD DUP3 DUP2 MSTORE PUSH1 0x20 ADD SWAP4 POP POP POP POP PUSH1 0x40 MLOAD DUP1 SWAP2 SUB SWAP1 LOG1 POP POP POP JUMP JUMPDEST DUP1 PUSH1 0x2 PUSH1 0x0 PUSH2 0x2F4F DUP7 PUSH2 0x3195 JUMP JUMPDEST DUP2 MSTORE PUSH1 0x20 ADD SWAP1 DUP2 MSTORE PUSH1 0x20 ADD PUSH1 0x0 KECCAK256 PUSH1 0x0 DUP5 DUP2 MSTORE PUSH1 0x20 SWAP2 SWAP1 SWAP2 MSTORE PUSH1 0x40 SWAP1 KECCAK256 DUP2 SWAP1 PUSH2 0x2F76 PUSH2 0x3446 JUMP JUMPDEST POP POP POP PUSH32 0x60738523F766167CFD2310C61593DC795BC9D77DE9276ED7E0C514DF55E0A2C9 DUP4 DUP4 DUP4 PUSH1 0x40 MLOAD DUP1 DUP5 DUP2 MSTORE PUSH1 0x20 ADD DUP4 DUP2 MSTORE PUSH1 0x20 ADD DUP3 DUP2 MSTORE PUSH1 0x20 ADD SWAP4 POP POP POP POP PUSH1 0x40 MLOAD DUP1 SWAP2 SUB SWAP1 LOG1 POP POP POP JUMP JUMPDEST DUP1 PUSH1 0x4 PUSH1 0x0 PUSH2 0x2FD3 DUP7 PUSH2 0x3195 JUMP JUMPDEST DUP2 MSTORE PUSH1 0x20 ADD SWAP1 DUP2 MSTORE PUSH1 0x20 ADD PUSH1 0x0 KECCAK256 PUSH1 0x0 DUP5 DUP2 MSTORE PUSH1 0x20 SWAP2 SWAP1 SWAP2 MSTORE PUSH1 0x40 SWAP1 KECCAK256 PUSH1 0x1 DUP2 PUSH2 0x2FFB PUSH2 0x329B JUMP JUMPDEST DUP2 PUSH1 0x1 PUSH1 0x1 PUSH1 0xA0 SHL SUB MUL NOT AND SWAP1 DUP4 PUSH1 0x1 PUSH1 0x1 PUSH1 0xA0 SHL SUB AND MUL OR SWAP1 PUSH2 0x301D PUSH2 0x3446 JUMP JUMPDEST POP POP POP PUSH32 0x524FB430ECBFD4606A947F9AE445DBF7C9703944CF928789B86F3A8AAD639365 DUP4 DUP4 DUP4 PUSH1 0x40 MLOAD SWAP3 DUP4 MSTORE PUSH1 0x20 DUP4 ADD SWAP2 SWAP1 SWAP2 MSTORE PUSH1 0x1 PUSH1 0x1 PUSH1 0xA0 SHL SUB AND PUSH1 0x40 DUP1 DUP4 ADD SWAP2 SWAP1 SWAP2 MSTORE PUSH1 0x60 SWAP1 SWAP2 ADD SWAP1 MLOAD DUP1 SWAP2 SUB SWAP1 LOG1 POP POP POP JUMP JUMPDEST DUP1 PUSH1 0x5 PUSH1 0x0 PUSH2 0x3083 DUP7 PUSH2 0x3195 JUMP JUMPDEST DUP2 MSTORE PUSH1 0x20 ADD SWAP1 DUP2 MSTORE PUSH1 0x20 ADD PUSH1 0x0 KECCAK256 PUSH1 0x0 DUP5 DUP2 MSTORE PUSH1 0x20 SWAP2 SWAP1 SWAP2 MSTORE PUSH1 0x40 SWAP1 KECCAK256 PUSH1 0x1 DUP2 PUSH2 0x30AB PUSH2 0x329B JUMP JUMPDEST DUP2 PUSH1 0xFF MUL NOT AND SWAP1 DUP4 ISZERO ISZERO MUL OR SWAP1 PUSH2 0x30C0 PUSH2 0x3446 JUMP JUMPDEST POP POP POP PUSH32 0x9C94AD4CFFF55907724CB65340F342D3897DD884E6CD3C2D3777087191D5EB7B DUP4 DUP4 DUP4 PUSH1 0x40 MLOAD SWAP3 DUP4 MSTORE PUSH1 0x20 DUP4 ADD SWAP2 SWAP1 SWAP2 MSTORE ISZERO ISZERO PUSH1 0x40 DUP1 DUP4 ADD SWAP2 SWAP1 SWAP2 MSTORE PUSH1 0x60 SWAP1 SWAP2 ADD SWAP1 MLOAD DUP1 SWAP2 SUB SWAP1 LOG1 POP POP POP JUMP JUMPDEST DUP1 PUSH1 0x3 PUSH1 0x0 PUSH2 0x311F DUP7 PUSH2 0x3195 JUMP JUMPDEST DUP2 MSTORE PUSH1 0x20 ADD SWAP1 DUP2 MSTORE PUSH1 0x20 ADD PUSH1 0x0 KECCAK256 PUSH1 0x0 DUP5 DUP2 MSTORE PUSH1 0x20 SWAP2 SWAP1 SWAP2 MSTORE PUSH1 0x40 SWAP1 KECCAK256 DUP2 SWAP1 PUSH2 0x3146 PUSH2 0x3446 JUMP JUMPDEST POP POP POP PUSH32 0xD8877F604DFE262A8AC3904781814F022156C9341AF779608A2AE0BEEF1906C DUP4 DUP4 DUP4 PUSH1 0x40 MLOAD DUP1 DUP5 DUP2 MSTORE PUSH1 0x20 ADD DUP4 DUP2 MSTORE PUSH1 0x20 ADD DUP3 DUP2 MSTORE PUSH1 0x20 ADD SWAP4 POP POP POP POP PUSH1 0x40 MLOAD DUP1 SWAP2 SUB SWAP1 LOG1 POP POP POP JUMP JUMPDEST PUSH1 0x0 DUP2 DUP2 MSTORE PUSH1 0x1 PUSH1 0x20 MSTORE DUP1 PUSH1 0x40 DUP2 KECCAK256 PUSH2 0x31AC PUSH2 0x329B JUMP JUMPDEST SWAP1 POP DUP1 PUSH2 0x322A JUMPI GAS PUSH2 0x31BC PUSH2 0x3400 JUMP JUMPDEST DUP4 GAS PUSH2 0x31C6 PUSH2 0x3494 JUMP JUMPDEST PUSH1 0x40 MLOAD PUSH1 0x60 SWAP4 SWAP1 SWAP4 SHL PUSH12 0xFFFFFFFFFFFFFFFFFFFFFFFF NOT AND PUSH1 0x20 DUP5 ADD MSTORE PUSH1 0x34 DUP4 ADD SWAP2 SWAP1 SWAP2 MSTORE PUSH1 0x54 DUP3 ADD MSTORE PUSH1 0x74 ADD PUSH1 0x40 MLOAD PUSH1 0x20 DUP2 DUP4 SUB SUB DUP2 MSTORE SWAP1 PUSH1 0x40 MSTORE DUP1 MLOAD SWAP1 PUSH1 0x20 ADD KECCAK256 PUSH1 0x0 DUP5 DUP2 MSTORE PUSH1 0x1 PUSH1 0x20 MSTORE SWAP1 SWAP2 POP DUP2 SWAP1 PUSH1 0x40 SWAP1 KECCAK256 DUP2 SWAP1 PUSH2 0x3226 PUSH2 0x3446 JUMP JUMPDEST POP POP POP JUMPDEST SWAP3 SWAP2 POP POP JUMP JUMPDEST PUSH4 0x2A2A7ADB MSIZE DUP2 PUSH1 0xE0 SHL DUP2 MSTORE PUSH1 0x4 DUP2 ADD PUSH1 0x20 DUP2 MSTORE DUP6 PUSH1 0x20 DUP3 ADD MSTORE PUSH1 0x0 JUMPDEST DUP7 DUP2 LT ISZERO PUSH2 0x3268 JUMPI DUP1 DUP7 ADD MLOAD DUP3 DUP3 ADD PUSH1 0x40 ADD MSTORE PUSH1 0x20 ADD PUSH2 0x324D JUMP JUMPDEST POP PUSH1 0x20 DUP3 DUP8 PUSH1 0x64 ADD DUP5 CALLER PUSH1 0x0 SWAP1 GAS CALL PC PUSH1 0xE ADD JUMPI RETURNDATASIZE PUSH1 0x0 DUP1 RETURNDATACOPY RETURNDATASIZE PUSH1 0x0 REVERT JUMPDEST RETURNDATASIZE PUSH1 0x1 EQ ISZERO PC PUSH1 0xA ADD JUMPI PUSH1 0x1 PUSH1 0x0 RETURN JUMPDEST POP POP POP JUMP JUMPDEST PUSH4 0x3DAA959 MSIZE DUP2 PUSH1 0xE0 SHL DUP2 MSTORE DUP4 PUSH1 0x4 DUP3 ADD MSTORE PUSH1 0x20 DUP2 PUSH1 0x24 DUP4 CALLER PUSH1 0x0 SWAP1 GAS CALL PC PUSH1 0xE ADD JUMPI RETURNDATASIZE PUSH1 0x0 DUP1 RETURNDATACOPY RETURNDATASIZE PUSH1 0x0 REVERT JUMPDEST RETURNDATASIZE PUSH1 0x1 EQ ISZERO PC PUSH1 0xA ADD JUMPI PUSH1 0x1 PUSH1 0x0 RETURN JUMPDEST DUP1 MLOAD SWAP4 POP PUSH1 0x0 JUMPDEST PUSH1 0x40 DUP2 LT ISZERO PUSH2 0x32F6 JUMPI PUSH1 0x0 DUP3 DUP3 ADD MSTORE PUSH1 0x20 ADD PUSH2 0x32DF JUMP JUMPDEST POP POP POP JUMP JUMPDEST PUSH4 0x8435035B MSIZE DUP2 PUSH1 0xE0 SHL DUP2 MSTORE DUP4 PUSH1 0x4 DUP3 ADD MSTORE PUSH1 0x20 DUP2 PUSH1 0x24 DUP4 CALLER PUSH1 0x0 SWAP1 GAS CALL PC PUSH1 0xE ADD JUMPI RETURNDATASIZE PUSH1 0x0 DUP1 RETURNDATACOPY RETURNDATASIZE PUSH1 0x0 REVERT JUMPDEST RETURNDATASIZE PUSH1 0x1 EQ ISZERO PC PUSH1 0xA ADD JUMPI PUSH1 0x1 PUSH1 0x0 RETURN JUMPDEST DUP1 MLOAD PUSH1 0x0 DUP3 MSTORE SWAP4 POP PUSH1 0x20 PUSH2 0x32DF JUMP JUMPDEST PUSH4 0x8540661F MSIZE DUP2 PUSH1 0xE0 SHL DUP2 MSTORE DUP4 PUSH1 0x4 DUP3 ADD MSTORE DUP5 PUSH1 0x24 DUP3 ADD MSTORE PUSH1 0x60 PUSH1 0x44 DUP3 ADD MSTORE DUP7 PUSH1 0x64 DUP3 ADD MSTORE PUSH1 0x84 DUP2 ADD PUSH1 0x0 JUMPDEST DUP9 DUP2 LT ISZERO PUSH2 0x338B JUMPI DUP1 DUP9 ADD MLOAD DUP3 DUP3 ADD MSTORE PUSH1 0x20 ADD PUSH2 0x3373 JUMP JUMPDEST POP DUP8 PUSH2 0x104 ADD DUP3 ADD PUSH1 0x60 DUP4 DUP11 PUSH2 0x104 ADD DUP6 CALLER PUSH1 0x0 SWAP1 GAS CALL PC PUSH1 0xE ADD JUMPI RETURNDATASIZE PUSH1 0x0 DUP1 RETURNDATACOPY RETURNDATASIZE PUSH1 0x0 REVERT JUMPDEST RETURNDATASIZE PUSH1 0x1 EQ ISZERO PC PUSH1 0xA ADD JUMPI PUSH1 0x1 PUSH1 0x0 RETURN JUMPDEST DUP3 MLOAD PUSH1 0x40 DUP5 ADD MLOAD RETURNDATASIZE PUSH1 0x0 DUP7 RETURNDATACOPY DUP13 DUP13 DUP3 PUSH1 0x60 DUP9 ADD CALLER POP PUSH1 0x0 PUSH1 0x4 GAS CALL POP MSIZE DUP6 JUMPDEST DUP2 DUP2 LT ISZERO PUSH2 0x33F4 JUMPI PUSH1 0x0 DUP2 MSTORE PUSH1 0x20 ADD PUSH2 0x33E0 JUMP JUMPDEST POP SWAP2 SWAP13 POP POP POP POP POP POP POP JUMP JUMPDEST PUSH4 0x73509064 MSIZE DUP2 PUSH1 0xE0 SHL DUP2 MSTORE PUSH1 0x20 DUP2 PUSH1 0x4 DUP4 CALLER PUSH1 0x0 SWAP1 GAS CALL PC PUSH1 0xE ADD JUMPI RETURNDATASIZE PUSH1 0x0 DUP1 RETURNDATACOPY RETURNDATASIZE PUSH1 0x0 REVERT JUMPDEST RETURNDATASIZE PUSH1 0x1 EQ ISZERO PC PUSH1 0xA ADD JUMPI PUSH1 0x1 PUSH1 0x0 RETURN JUMPDEST DUP1 MLOAD PUSH1 0x0 DUP3 MSTORE SWAP4 POP PUSH1 0x20 PUSH2 0x32DF JUMP JUMPDEST PUSH4 0x22BD64C0 MSIZE DUP2 PUSH1 0xE0 SHL DUP2 MSTORE DUP4 PUSH1 0x4 DUP3 ADD MSTORE DUP5 PUSH1 0x24 DUP3 ADD MSTORE PUSH1 0x0 DUP2 PUSH1 0x44 DUP4 CALLER PUSH1 0x0 SWAP1 GAS CALL PC PUSH1 0xE ADD JUMPI RETURNDATASIZE PUSH1 0x0 DUP1 RETURNDATACOPY RETURNDATASIZE PUSH1 0x0 REVERT JUMPDEST RETURNDATASIZE PUSH1 0x1 EQ ISZERO PC PUSH1 0xA ADD JUMPI PUSH1 0x1 PUSH1 0x0 RETURN JUMPDEST PUSH1 0x0 DUP2 MSTORE PUSH1 0x20 PUSH2 0x32DF JUMP JUMPDEST PUSH4 0x5A98C361 MSIZE DUP2 PUSH1 0xE0 SHL DUP2 MSTORE PUSH1 0x20 DUP2 PUSH1 0x4 DUP4 CALLER PUSH1 0x0 SWAP1 GAS CALL PC PUSH1 0xE ADD JUMPI RETURNDATASIZE PUSH1 0x0 DUP1 RETURNDATACOPY RETURNDATASIZE PUSH1 0x0 REVERT JUMPDEST RETURNDATASIZE PUSH1 0x1 EQ ISZERO PC PUSH1 0xA ADD JUMPI PUSH1 0x1 PUSH1 0x0 RETURN JUMPDEST DUP1 MLOAD PUSH1 0x0 DUP3 MSTORE SWAP4 POP PUSH1 0x20 PUSH2 0x32DF JUMP INVALID NUMBER PUSH2 0x6E6E PUSH16 0x742066696E6420636F6E747261637420 PUSH10 0x6E204164647265737320 MSTORE PUSH6 0x736F6C766572 NUMBER PUSH2 0x6E20 PUSH16 0x6E6C7920626520696E766F6B65642062 PUSH26 0x2074686520636F6E6669677572656420636F6E7472616374496E PUSH17 0x7574206C656E67746873206D757374206D PUSH2 0x7463 PUSH9 0x0 "
		},
		"deployedBytecode": {
			"linkReferences": {},
			"object": "608060405234801561001957600080610016613230565b50505b50600436106101cc5760003560e01c80638ca0adaf11610102578063c89eb562116100a0578063d994502d1161007a578063d994502d14610c05578063f7833c5d14610c45578063f9c39d2f14610c71578063fdfc4c1314610d75576101cc565b8063c89eb56214610aa9578063d658d2e914610bad578063d71a9b0114610bd3576101cc565b8063ab15985d116100dc578063ab15985d14610847578063b67fa7ed1461094b578063c13a2b0c146109e4578063c4f610ed14610a7d576101cc565b80638ca0adaf146107565780638f6b95a3146107ef5780639ee5955a1461081b576101cc565b806335ab27081161016f5780634dca0978116101495780634dca09781461062a5780635bda91e2146106655780636a59e495146106995780638408a5e5146106bd576101cc565b806335ab2708146104c65780633bd6ad89146104f25780633f28a6fc146105f6576101cc565b80631625e3ef116101ab5780631625e3ef146103fe57806318f662ed1461042a5780631d5b277f1461045657806323257c2b14610488576101cc565b80624b62d6146101da57806303cdc0171461020e578063142a391e14610312575b6000806101d7613230565b50505b61020c600480360360608110156101f9576000806101f6613230565b50505b5080359060208101359060400135610da1565b005b61020c6004803603606081101561022d5760008061022a613230565b50505b81359190810190604081016020820135600160201b81111561025757600080610254613230565b50505b8201836020820111156102725760008061026f613230565b50505b803590602001918460208302840111600160201b8311171561029c57600080610299613230565b50505b919390929091602081019035600160201b8111156102c2576000806102bf613230565b50505b8201836020820111156102dd576000806102da613230565b50505b803590602001918460208302840111600160201b8311171561030757600080610304613230565b50505b509092509050610ef3565b6103ab600480360360408110156103315760008061032e613230565b50505b81359190810190604081016020820135600160201b81111561035b57600080610358613230565b50505b82018360208201111561037657600080610373613230565b50505b803590602001918460208302840111600160201b831117156103a05760008061039d613230565b50505b5090925090506110c9565b60405160208082528190810183818151815260200191508051906020019060200280838360005b838110156103ea5780820151838201526020016103d2565b505050509050019250505060405180910390f35b61020c6004803603604081101561041d5760008061041a613230565b50505b5080359060200135611184565b61020c6004803603604081101561044957600080610446613230565b50505b50803590602001356113b3565b61020c6004803603606081101561047557600080610472613230565b50505b50803590602081013590604001356115bb565b6104b4600480360360408110156104a7576000806104a4613230565b50505b5080359060200135611706565b60405190815260200160405180910390f35b61020c600480360360408110156104e5576000806104e2613230565b50505b508035906020013561174b565b61020c600480360360608110156105115760008061050e613230565b50505b81359190810190604081016020820135600160201b81111561053b57600080610538613230565b50505b82018360208201111561055657600080610553613230565b50505b803590602001918460208302840111600160201b831117156105805760008061057d613230565b50505b919390929091602081019035600160201b8111156105a6576000806105a3613230565b50505b8201836020820111156105c1576000806105be613230565b50505b803590602001918460208302840111600160201b831117156105eb576000806105e8613230565b50505b50909250905061192b565b61020c6004803603606081101561061557600080610612613230565b50505b50803590602081013590604001351515611b00565b61020c6004803603606081101561064957600080610646613230565b50505b50803590602081013590604001356001600160a01b0316611c4b565b61020c6004803603606081101561068457600080610681613230565b50505b50803590602081013590604001351515611d96565b6106a1611fea565b6040516001600160a01b03909116815260200160405180910390f35b6103ab600480360360408110156106dc576000806106d9613230565b50505b81359190810190604081016020820135600160201b81111561070657600080610703613230565b50505b8201836020820111156107215760008061071e613230565b50505b803590602001918460208302840111600160201b8311171561074b57600080610748613230565b50505b509092509050612008565b6103ab6004803603604081101561077557600080610772613230565b50505b81359190810190604081016020820135600160201b81111561079f5760008061079c613230565b50505b8201836020820111156107ba576000806107b7613230565b50505b803590602001918460208302840111600160201b831117156107e4576000806107e1613230565b50505b5090925090506120b8565b61020c6004803603604081101561080e5760008061080b613230565b50505b5080359060200135612188565b6106a16004803603604081101561083a57600080610837613230565b50505b50803590602001356123c1565b61020c6004803603606081101561086657600080610863613230565b50505b81359190810190604081016020820135600160201b8111156108905760008061088d613230565b50505b8201836020820111156108ab576000806108a8613230565b50505b803590602001918460208302840111600160201b831117156108d5576000806108d2613230565b50505b919390929091602081019035600160201b8111156108fb576000806108f8613230565b50505b82018360208201111561091657600080610913613230565b50505b803590602001918460208302840111600160201b831117156109405760008061093d613230565b50505b50909250905061241a565b6103ab6004803603604081101561096a57600080610967613230565b50505b81359190810190604081016020820135600160201b81111561099457600080610991613230565b50505b8201836020820111156109af576000806109ac613230565b50505b803590602001918460208302840111600160201b831117156109d9576000806109d6613230565b50505b5090925090506125e6565b6103ab60048036036040811015610a0357600080610a00613230565b50505b81359190810190604081016020820135600160201b811115610a2d57600080610a2a613230565b50505b820183602082011115610a4857600080610a45613230565b50505b803590602001918460208302840111600160201b83111715610a7257600080610a6f613230565b50505b509092509050612696565b6104b460048036036040811015610a9c57600080610a99613230565b50505b5080359060200135612758565b61020c60048036036060811015610ac857600080610ac5613230565b50505b81359190810190604081016020820135600160201b811115610af257600080610aef613230565b50505b820183602082011115610b0d57600080610b0a613230565b50505b803590602001918460208302840111600160201b83111715610b3757600080610b34613230565b50505b919390929091602081019035600160201b811115610b5d57600080610b5a613230565b50505b820183602082011115610b7857600080610b75613230565b50505b803590602001918460208302840111600160201b83111715610ba257600080610b9f613230565b50505b509092509050612771565b6104b460048036036020811015610bcc57600080610bc9613230565b50505b503561293d565b61020c60048036036060811015610bf257600080610bef613230565b50505b5080359060208101359060400135612958565b610c3160048036036040811015610c2457600080610c21613230565b50505b5080359060200135612aa3565b604051901515815260200160405180910390f35b6104b460048036036040811015610c6457600080610c61613230565b50505b5080359060200135612af6565b61020c60048036036060811015610c9057600080610c8d613230565b50505b81359190810190604081016020820135600160201b811115610cba57600080610cb7613230565b50505b820183602082011115610cd557600080610cd2613230565b50505b803590602001918460208302840111600160201b83111715610cff57600080610cfc613230565b50505b919390929091602081019035600160201b811115610d2557600080610d22613230565b50505b820183602082011115610d4057600080610d3d613230565b50505b803590602001918460208302840111600160201b83111715610d6a57600080610d67613230565b50505b509092509050612b0f565b61020c60048036036040811015610d9457600080610d91613230565b50505b5080359060200135612cdd565b8260008080610dae61329b565b906101000a90046001600160a01b03166001600160a01b031663dacb2d01836040518263ffffffff1660e01b81526004018082815260200180602001828103825260288152602001806134db60289139604001925050506020604051808303818680610e186132fb565b158015610e2d57600080610e2a613230565b50505b505a610e37613347565b5050505050158015610e56573d6000803e3d6000610e53613230565b50505b505050506040513d6020811015610e7557600080610e72613230565b50505b81019080805193505050505a610e89613400565b6001600160a01b0316816001600160a01b031614610ee15760405162461bcd60e51b815260040180806020018281038252602e815260200180613503602e913960400191505060405180910390610ede613230565b50505b610eec858585612ebd565b5050505050565b8460008080610f0061329b565b906101000a90046001600160a01b03166001600160a01b031663dacb2d01836040518263ffffffff1660e01b81526004018082815260200180602001828103825260288152602001806134db60289139604001925050506020604051808303818680610f6a6132fb565b158015610f7f57600080610f7c613230565b50505b505a610f89613347565b5050505050158015610fa8573d6000803e3d6000610fa5613230565b50505b505050506040513d6020811015610fc757600080610fc4613230565b50505b81019080805193505050505a610fdb613400565b6001600160a01b0316816001600160a01b0316146110335760405162461bcd60e51b815260040180806020018281038252602e815260200180613503602e913960400191505060405180910390611030613230565b50505b84831461107d5760405162461bcd60e51b8152602060048201526018602482015260008051602061353183398151915260448201526064016040518091039061107a613230565b50505b60005b858110156110bf576110b78888888481811061109857fe5b905060200201358787858181106110ab57fe5b90506020020135612f41565b600101611080565b5050505050505050565b606080826040519080825280602002602001820160405280156110f6578160200160208202803883390190505b50600086815260016020529091506003816040812061111361329b565b8152602001908152602001600020905060005b848110156111795781600087878481811061113d57fe5b90506020020135815260200190815260200160002061115a61329b565b83828151811061116657fe5b6020908102919091010152600101611126565b509095945050505050565b816000808061119161329b565b906101000a90046001600160a01b03166001600160a01b031663dacb2d01836040518263ffffffff1660e01b81526004018082815260200180602001828103825260288152602001806134db602891396040019250505060206040518083038186806111fb6132fb565b1580156112105760008061120d613230565b50505b505a61121a613347565b5050505050158015611239573d6000803e3d6000611236613230565b50505b505050506040513d602081101561125857600080611255613230565b50505b81019080805193505050505a61126c613400565b6001600160a01b0316816001600160a01b0316146112c45760405162461bcd60e51b815260040180806020018281038252602e815260200180613503602e9139604001915050604051809103906112c1613230565b50505b60008481526001602052600581604081206112dd61329b565b815260200190815260200160002060008581526020919091526040902060009061130561329b565b906101000a900460ff1690507f321123223c2c7bffd7484ae8fb80c6eb45aa5537df0a621c47833ab9376a4a9c858583604051928352602083019190915215156040808301919091526060909101905180910390a1600085815260016020526005906040812061137361329b565b815260200190815260200160002060008581526020919091526040902060018161139b61329b565b9060ff021916906113aa613446565b50505050505050565b81600080806113c061329b565b906101000a90046001600160a01b03166001600160a01b031663dacb2d01836040518263ffffffff1660e01b81526004018082815260200180602001828103825260288152602001806134db6028913960400192505050602060405180830381868061142a6132fb565b15801561143f5760008061143c613230565b50505b505a611449613347565b5050505050158015611468573d6000803e3d6000611465613230565b50505b505050506040513d602081101561148757600080611484613230565b50505b81019080805193505050505a61149b613400565b6001600160a01b0316816001600160a01b0316146114f35760405162461bcd60e51b815260040180806020018281038252602e815260200180613503602e9139604001915050604051809103906114f0613230565b50505b600084815260016020526002816040812061150c61329b565b815260200190815260200160002060008581526020919091526040902061153161329b565b90507f8a6b612c1a1e056bc504f34fe56106a878fca2d1a50be35360d02ac39d4d466285858360405180848152602001838152602001828152602001935050505060405180910390a1600085815260016020526002906040812061159361329b565b81526020019081526020016000206000858152602091909152604090206000906113aa613446565b82600080806115c861329b565b906101000a90046001600160a01b03166001600160a01b031663dacb2d01836040518263ffffffff1660e01b81526004018082815260200180602001828103825260288152602001806134db602891396040019250505060206040518083038186806116326132fb565b15801561164757600080611644613230565b50505b505a611651613347565b5050505050158015611670573d6000803e3d600061166d613230565b50505b505050506040513d602081101561168f5760008061168c613230565b50505b81019080805193505050505a6116a3613400565b6001600160a01b0316816001600160a01b0316146116fb5760405162461bcd60e51b815260040180806020018281038252602e815260200180613503602e9139604001915050604051809103906116f8613230565b50505b610eec858585612f41565b600082815260016020526002816040812061171f61329b565b815260200190815260200160002060008381526020919091526040902061174461329b565b9392505050565b816000808061175861329b565b906101000a90046001600160a01b03166001600160a01b031663dacb2d01836040518263ffffffff1660e01b81526004018082815260200180602001828103825260288152602001806134db602891396040019250505060206040518083038186806117c26132fb565b1580156117d7576000806117d4613230565b50505b505a6117e1613347565b5050505050158015611800573d6000803e3d60006117fd613230565b50505b505050506040513d602081101561181f5760008061181c613230565b50505b81019080805193505050505a611833613400565b6001600160a01b0316816001600160a01b03161461188b5760405162461bcd60e51b815260040180806020018281038252602e815260200180613503602e913960400191505060405180910390611888613230565b50505b60008481526001602052600681604081206118a461329b565b81526020019081526020016000206000858152602091909152604090206118c961329b565b90507f1f751825a531bf2a176e42d5cb792bb7228163cf53e36b033509ccbe869cfd9385858360405180848152602001838152602001828152602001935050505060405180910390a1600085815260016020526006906040812061159361329b565b846000808061193861329b565b906101000a90046001600160a01b03166001600160a01b031663dacb2d01836040518263ffffffff1660e01b81526004018082815260200180602001828103825260288152602001806134db602891396040019250505060206040518083038186806119a26132fb565b1580156119b7576000806119b4613230565b50505b505a6119c1613347565b50505050501580156119e0573d6000803e3d60006119dd613230565b50505b505050506040513d60208110156119ff576000806119fc613230565b50505b81019080805193505050505a611a13613400565b6001600160a01b0316816001600160a01b031614611a6b5760405162461bcd60e51b815260040180806020018281038252602e815260200180613503602e913960400191505060405180910390611a68613230565b50505b848314611ab55760405162461bcd60e51b81526020600482015260186024820152600080516020613531833981519152604482015260640160405180910390611ab2613230565b50505b60005b858110156110bf57611af888888884818110611ad057fe5b90506020020135878785818110611ae357fe5b905060200201356001600160a01b0316612fc5565b600101611ab8565b8260008080611b0d61329b565b906101000a90046001600160a01b03166001600160a01b031663dacb2d01836040518263ffffffff1660e01b81526004018082815260200180602001828103825260288152602001806134db60289139604001925050506020604051808303818680611b776132fb565b158015611b8c57600080611b89613230565b50505b505a611b96613347565b5050505050158015611bb5573d6000803e3d6000611bb2613230565b50505b505050506040513d6020811015611bd457600080611bd1613230565b50505b81019080805193505050505a611be8613400565b6001600160a01b0316816001600160a01b031614611c405760405162461bcd60e51b815260040180806020018281038252602e815260200180613503602e913960400191505060405180910390611c3d613230565b50505b610eec858585613075565b8260008080611c5861329b565b906101000a90046001600160a01b03166001600160a01b031663dacb2d01836040518263ffffffff1660e01b81526004018082815260200180602001828103825260288152602001806134db60289139604001925050506020604051808303818680611cc26132fb565b158015611cd757600080611cd4613230565b50505b505a611ce1613347565b5050505050158015611d00573d6000803e3d6000611cfd613230565b50505b505050506040513d6020811015611d1f57600080611d1c613230565b50505b81019080805193505050505a611d33613400565b6001600160a01b0316816001600160a01b031614611d8b5760405162461bcd60e51b815260040180806020018281038252602e815260200180613503602e913960400191505060405180910390611d88613230565b50505b610eec858585612fc5565b8260008080611da361329b565b906101000a90046001600160a01b03166001600160a01b031663dacb2d01836040518263ffffffff1660e01b81526004018082815260200180602001828103825260288152602001806134db60289139604001925050506020604051808303818680611e0d6132fb565b158015611e2257600080611e1f613230565b50505b505a611e2c613347565b5050505050158015611e4b573d6000803e3d6000611e48613230565b50505b505050506040513d6020811015611e6a57600080611e67613230565b50505b81019080805193505050505a611e7e613400565b6001600160a01b0316816001600160a01b031614611ed65760405162461bcd60e51b815260040180806020018281038252602e815260200180613503602e913960400191505060405180910390611ed3613230565b50505b6000858152600160205260408120611eec61329b565b1415611f475760405162461bcd60e51b815260206004820152601d60248201527f43616e6e6f74206d69677261746520656d70747920636f6e7472616374000000604482015260640160405180910390611f44613230565b50505b6000858152600160205260409020611f5d61329b565b60008581526001602052604090208190611f75613446565b5050508215611f9a576000858152600160205260409020600090611f97613446565b50505b7fa3db9c909daa141b61562c797dae4dc4b3d7751686068c98111db87b2a8c374c858585604051928352602083019190915215156040808301919091526060909101905180910390a15050505050565b600080611ff561329b565b906101000a90046001600160a01b031681565b60608082604051908082528060200260200182016040528015612035578160200160208202803883390190505b50600086815260016020529091506006816040812061205261329b565b8152602001908152602001600020905060005b848110156111795781600087878481811061207c57fe5b90506020020135815260200190815260200160002061209961329b565b8382815181106120a557fe5b6020908102919091010152600101612065565b606080826040519080825280602002602001820160405280156120e5578160200160208202803883390190505b50600086815260016020529091506004816040812061210261329b565b8152602001908152602001600020905060005b848110156111795781600087878481811061212c57fe5b90506020020135815260200190815260200160002060009061214c61329b565b906101000a90046001600160a01b031683828151811061216857fe5b6001600160a01b0390921660209283029190910190910152600101612115565b816000808061219561329b565b906101000a90046001600160a01b03166001600160a01b031663dacb2d01836040518263ffffffff1660e01b81526004018082815260200180602001828103825260288152602001806134db602891396040019250505060206040518083038186806121ff6132fb565b15801561221457600080612211613230565b50505b505a61221e613347565b505050505015801561223d573d6000803e3d600061223a613230565b50505b505050506040513d602081101561225c57600080612259613230565b50505b81019080805193505050505a612270613400565b6001600160a01b0316816001600160a01b0316146122c85760405162461bcd60e51b815260040180806020018281038252602e815260200180613503602e9139604001915050604051809103906122c5613230565b50505b60008481526001602052600481604081206122e161329b565b815260200190815260200160002060008581526020919091526040902060009061230961329b565b906101000a90046001600160a01b031690507fec1140277b8f20820dc76b92216489238a207d5f22c964099303820fbd2bdf6685858360405192835260208301919091526001600160a01b03166040808301919091526060909101905180910390a1600085815260016020526004906040812061238461329b565b81526020019081526020016000206000858152602091909152604090206001816123ac61329b565b906001600160a01b03021916906113aa613446565b60008281526001602052600481604081206123da61329b565b815260200190815260200160002060008381526020919091526040902060009061240261329b565b906101000a90046001600160a01b0316905092915050565b846000808061242761329b565b906101000a90046001600160a01b03166001600160a01b031663dacb2d01836040518263ffffffff1660e01b81526004018082815260200180602001828103825260288152602001806134db602891396040019250505060206040518083038186806124916132fb565b1580156124a6576000806124a3613230565b50505b505a6124b0613347565b50505050501580156124cf573d6000803e3d60006124cc613230565b50505b505050506040513d60208110156124ee576000806124eb613230565b50505b81019080805193505050505a612502613400565b6001600160a01b0316816001600160a01b03161461255a5760405162461bcd60e51b815260040180806020018281038252602e815260200180613503602e913960400191505060405180910390612557613230565b50505b8483146125a45760405162461bcd60e51b815260206004820152601860248201526000805160206135318339815191526044820152606401604051809103906125a1613230565b50505b60005b858110156110bf576125de888888848181106125bf57fe5b905060200201358787858181106125d257fe5b90506020020135613111565b6001016125a7565b60608082604051908082528060200260200182016040528015612613578160200160208202803883390190505b50600086815260016020529091506002816040812061263061329b565b8152602001908152602001600020905060005b848110156111795781600087878481811061265a57fe5b90506020020135815260200190815260200160002061267761329b565b83828151811061268357fe5b6020908102919091010152600101612643565b606080826040519080825280602002602001820160405280156126c3578160200160208202803883390190505b5060008681526001602052909150600581604081206126e061329b565b8152602001908152602001600020905060005b848110156111795781600087878481811061270a57fe5b90506020020135815260200190815260200160002060009061272a61329b565b906101000a900460ff1683828151811061274057fe5b911515602092830291909101909101526001016126f3565b600082815260016020526003816040812061171f61329b565b846000808061277e61329b565b906101000a90046001600160a01b03166001600160a01b031663dacb2d01836040518263ffffffff1660e01b81526004018082815260200180602001828103825260288152602001806134db602891396040019250505060206040518083038186806127e86132fb565b1580156127fd576000806127fa613230565b50505b505a612807613347565b5050505050158015612826573d6000803e3d6000612823613230565b50505b505050506040513d602081101561284557600080612842613230565b50505b81019080805193505050505a612859613400565b6001600160a01b0316816001600160a01b0316146128b15760405162461bcd60e51b815260040180806020018281038252602e815260200180613503602e9139604001915050604051809103906128ae613230565b50505b8483146128fb5760405162461bcd60e51b815260206004820152601860248201526000805160206135318339815191526044820152606401604051809103906128f8613230565b50505b60005b858110156110bf576129358888888481811061291657fe5b9050602002013587878581811061292957fe5b90506020020135612ebd565b6001016128fe565b6001602052806000526040600020905061295561329b565b81565b826000808061296561329b565b906101000a90046001600160a01b03166001600160a01b031663dacb2d01836040518263ffffffff1660e01b81526004018082815260200180602001828103825260288152602001806134db602891396040019250505060206040518083038186806129cf6132fb565b1580156129e4576000806129e1613230565b50505b505a6129ee613347565b5050505050158015612a0d573d6000803e3d6000612a0a613230565b50505b505050506040513d6020811015612a2c57600080612a29613230565b50505b81019080805193505050505a612a40613400565b6001600160a01b0316816001600160a01b031614612a985760405162461bcd60e51b815260040180806020018281038252602e815260200180613503602e913960400191505060405180910390612a95613230565b50505b610eec858585613111565b6000828152600160205260058160408120612abc61329b565b8152602001908152602001600020600083815260209190915260409020600090612ae461329b565b906101000a900460ff16905092915050565b600082815260016020526006816040812061171f61329b565b8460008080612b1c61329b565b906101000a90046001600160a01b03166001600160a01b031663dacb2d01836040518263ffffffff1660e01b81526004018082815260200180602001828103825260288152602001806134db60289139604001925050506020604051808303818680612b866132fb565b158015612b9b57600080612b98613230565b50505b505a612ba5613347565b5050505050158015612bc4573d6000803e3d6000612bc1613230565b50505b505050506040513d6020811015612be357600080612be0613230565b50505b81019080805193505050505a612bf7613400565b6001600160a01b0316816001600160a01b031614612c4f5760405162461bcd60e51b815260040180806020018281038252602e815260200180613503602e913960400191505060405180910390612c4c613230565b50505b848314612c995760405162461bcd60e51b81526020600482015260186024820152600080516020613531833981519152604482015260640160405180910390612c96613230565b50505b60005b858110156110bf57612cd588888884818110612cb457fe5b90506020020135878785818110612cc757fe5b905060200201351515613075565b600101612c9c565b8160008080612cea61329b565b906101000a90046001600160a01b03166001600160a01b031663dacb2d01836040518263ffffffff1660e01b81526004018082815260200180602001828103825260288152602001806134db60289139604001925050506020604051808303818680612d546132fb565b158015612d6957600080612d66613230565b50505b505a612d73613347565b5050505050158015612d92573d6000803e3d6000612d8f613230565b50505b505050506040513d6020811015612db157600080612dae613230565b50505b81019080805193505050505a612dc5613400565b6001600160a01b0316816001600160a01b031614612e1d5760405162461bcd60e51b815260040180806020018281038252602e815260200180613503602e913960400191505060405180910390612e1a613230565b50505b6000848152600160205260038160408120612e3661329b565b8152602001908152602001600020600085815260209190915260409020612e5b61329b565b90507f78962c711b5655608c554689ba42e4890d9e5d3f590b99842612ad39cd7ae0ae85858360405180848152602001838152602001828152602001935050505060405180910390a1600085815260016020526003906040812061159361329b565b8060066000612ecb86613195565b81526020019081526020016000206000848152602091909152604090208190612ef2613446565b5050507f961abb018d8a303304c9f1ff1f306c7493a8b68b381bbe4e9a3abf9588a9528083838360405180848152602001838152602001828152602001935050505060405180910390a1505050565b8060026000612f4f86613195565b81526020019081526020016000206000848152602091909152604090208190612f76613446565b5050507f60738523f766167cfd2310c61593dc795bc9d77de9276ed7e0c514df55e0a2c983838360405180848152602001838152602001828152602001935050505060405180910390a1505050565b8060046000612fd386613195565b8152602001908152602001600020600084815260209190915260409020600181612ffb61329b565b816001600160a01b0302191690836001600160a01b031602179061301d613446565b5050507f524fb430ecbfd4606a947f9ae445dbf7c9703944cf928789b86f3a8aad63936583838360405192835260208301919091526001600160a01b03166040808301919091526060909101905180910390a1505050565b806005600061308386613195565b81526020019081526020016000206000848152602091909152604090206001816130ab61329b565b8160ff021916908315150217906130c0613446565b5050507f9c94ad4cfff55907724cb65340f342d3897dd884e6cd3c2d3777087191d5eb7b838383604051928352602083019190915215156040808301919091526060909101905180910390a1505050565b806003600061311f86613195565b81526020019081526020016000206000848152602091909152604090208190613146613446565b5050507f0d8877f604dfe262a8ac3904781814f022156c9341af779608a2ae0beef1906c83838360405180848152602001838152602001828152602001935050505060405180910390a1505050565b6000818152600160205280604081206131ac61329b565b90508061322a575a6131bc613400565b835a6131c6613494565b60405160609390931b6bffffffffffffffffffffffff191660208401526034830191909152605482015260740160405160208183030381529060405280519060200120600084815260016020529091508190604090208190613226613446565b5050505b92915050565b632a2a7adb598160e01b8152600481016020815285602082015260005b8681101561326857808601518282016040015260200161324d565b506020828760640184336000905af158601d01573d60011458600c01573d6000803e3d621234565260ea61109c52505050565b6303daa959598160e01b8152836004820152602081602483336000905af158601d01573d60011458600c01573d6000803e3d621234565260ea61109c528051935060005b60408110156132f6576000828201526020016132df565b505050565b638435035b598160e01b8152836004820152602081602483336000905af158601d01573d60011458600c01573d6000803e3d621234565260ea61109c52805160008252935060206132df565b638540661f598160e01b8152836004820152846024820152606060448201528660648201526084810160005b8881101561338b578088015182820152602001613373565b50876101040182016060838a6101040185336000905af158601d01573d60011458600c01573d6000803e3d621234565260ea61109c52825160408401513d6000863e8c8c82606088013350600060045af15059855b818110156133f457600081526020016133e0565b50919c50505050505050565b6373509064598160e01b8152602081600483336000905af158601d01573d60011458600c01573d6000803e3d621234565260ea61109c52805160008252935060206132df565b6322bd64c0598160e01b8152836004820152846024820152600081604483336000905af158601d01573d60011458600c01573d6000803e3d621234565260ea61109c526000815260206132df565b635a98c361598160e01b8152602081600483336000905af158601d01573d60011458600c01573d6000803e3d621234565260ea61109c52805160008252935060206132df56fe43616e6e6f742066696e6420636f6e747261637420696e2041646472657373205265736f6c76657243616e206f6e6c7920626520696e766f6b65642062792074686520636f6e6669677572656420636f6e7472616374496e707574206c656e67746873206d757374206d617463680000000000000000",
			"opcodes": "PUSH1 0x80 PUSH1 0x40 MSTORE CALLVALUE DUP1 ISZERO PUSH2 0x19 JUMPI PUSH1 0x0 DUP1 PUSH2 0x16 PUSH2 0x3230 JUMP JUMPDEST POP POP JUMPDEST POP PUSH1 0x4 CALLDATASIZE LT PUSH2 0x1CC JUMPI PUSH1 0x0 CALLDATALOAD PUSH1 0xE0 SHR DUP1 PUSH4 0x8CA0ADAF GT PUSH2 0x102 JUMPI DUP1 PUSH4 0xC89EB562 GT PUSH2 0xA0 JUMPI DUP1 PUSH4 0xD994502D GT PUSH2 0x7A JUMPI DUP1 PUSH4 0xD994502D EQ PUSH2 0xC05 JUMPI DUP1 PUSH4 0xF7833C5D EQ PUSH2 0xC45 JUMPI DUP1 PUSH4 0xF9C39D2F EQ PUSH2 0xC71 JUMPI DUP1 PUSH4 0xFDFC4C13 EQ PUSH2 0xD75 JUMPI PUSH2 0x1CC JUMP JUMPDEST DUP1 PUSH4 0xC89EB562 EQ PUSH2 0xAA9 JUMPI DUP1 PUSH4 0xD658D2E9 EQ PUSH2 0xBAD JUMPI DUP1 PUSH4 0xD71A9B01 EQ PUSH2 0xBD3 JUMPI PUSH2 0x1CC JUMP JUMPDEST DUP1 PUSH4 0xAB15985D GT PUSH2 0xDC JUMPI DUP1 PUSH4 0xAB15985D EQ PUSH2 0x847 JUMPI DUP1 PUSH4 0xB67FA7ED EQ PUSH2 0x94B JUMPI DUP1 PUSH4 0xC13A2B0C EQ PUSH2 0x9E4 JUMPI DUP1 PUSH4 0xC4F610ED EQ PUSH2 0xA7D JUMPI PUSH2 0x1CC JUMP JUMPDEST DUP1 PUSH4 0x8CA0ADAF EQ PUSH2 0x756 JUMPI DUP1 PUSH4 0x8F6B95A3 EQ PUSH2 0x7EF JUMPI DUP1 PUSH4 0x9EE5955A EQ PUSH2 0x81B JUMPI PUSH2 0x1CC JUMP JUMPDEST DUP1 PUSH4 0x35AB2708 GT PUSH2 0x16F JUMPI DUP1 PUSH4 0x4DCA0978 GT PUSH2 0x149 JUMPI DUP1 PUSH4 0x4DCA0978 EQ PUSH2 0x62A JUMPI DUP1 PUSH4 0x5BDA91E2 EQ PUSH2 0x665 JUMPI DUP1 PUSH4 0x6A59E495 EQ PUSH2 0x699 JUMPI DUP1 PUSH4 0x8408A5E5 EQ PUSH2 0x6BD JUMPI PUSH2 0x1CC JUMP JUMPDEST DUP1 PUSH4 0x35AB2708 EQ PUSH2 0x4C6 JUMPI DUP1 PUSH4 0x3BD6AD89 EQ PUSH2 0x4F2 JUMPI DUP1 PUSH4 0x3F28A6FC EQ PUSH2 0x5F6 JUMPI PUSH2 0x1CC JUMP JUMPDEST DUP1 PUSH4 0x1625E3EF GT PUSH2 0x1AB JUMPI DUP1 PUSH4 0x1625E3EF EQ PUSH2 0x3FE JUMPI DUP1 PUSH4 0x18F662ED EQ PUSH2 0x42A JUMPI DUP1 PUSH4 0x1D5B277F EQ PUSH2 0x456 JUMPI DUP1 PUSH4 0x23257C2B EQ PUSH2 0x488 JUMPI PUSH2 0x1CC JUMP JUMPDEST DUP1 PUSH3 0x4B62D6 EQ PUSH2 0x1DA JUMPI DUP1 PUSH4 0x3CDC017 EQ PUSH2 0x20E JUMPI DUP1 PUSH4 0x142A391E EQ PUSH2 0x312 JUMPI JUMPDEST PUSH1 0x0 DUP1 PUSH2 0x1D7 PUSH2 0x3230 JUMP JUMPDEST POP POP JUMPDEST PUSH2 0x20C PUSH1 0x4 DUP1 CALLDATASIZE SUB PUSH1 0x60 DUP2 LT ISZERO PUSH2 0x1F9 JUMPI PUSH1 0x0 DUP1 PUSH2 0x1F6 PUSH2 0x3230 JUMP JUMPDEST POP POP JUMPDEST POP DUP1 CALLDATALOAD SWAP1 PUSH1 0x20 DUP2 ADD CALLDATALOAD SWAP1 PUSH1 0x40 ADD CALLDATALOAD PUSH2 0xDA1 JUMP JUMPDEST STOP JUMPDEST PUSH2 0x20C PUSH1 0x4 DUP1 CALLDATASIZE SUB PUSH1 0x60 DUP2 LT ISZERO PUSH2 0x22D JUMPI PUSH1 0x0 DUP1 PUSH2 0x22A PUSH2 0x3230 JUMP JUMPDEST POP POP JUMPDEST DUP2 CALLDATALOAD SWAP2 SWAP1 DUP2 ADD SWAP1 PUSH1 0x40 DUP2 ADD PUSH1 0x20 DUP3 ADD CALLDATALOAD PUSH1 0x1 PUSH1 0x20 SHL DUP2 GT ISZERO PUSH2 0x257 JUMPI PUSH1 0x0 DUP1 PUSH2 0x254 PUSH2 0x3230 JUMP JUMPDEST POP POP JUMPDEST DUP3 ADD DUP4 PUSH1 0x20 DUP3 ADD GT ISZERO PUSH2 0x272 JUMPI PUSH1 0x0 DUP1 PUSH2 0x26F PUSH2 0x3230 JUMP JUMPDEST POP POP JUMPDEST DUP1 CALLDATALOAD SWAP1 PUSH1 0x20 ADD SWAP2 DUP5 PUSH1 0x20 DUP4 MUL DUP5 ADD GT PUSH1 0x1 PUSH1 0x20 SHL DUP4 GT OR ISZERO PUSH2 0x29C JUMPI PUSH1 0x0 DUP1 PUSH2 0x299 PUSH2 0x3230 JUMP JUMPDEST POP POP JUMPDEST SWAP2 SWAP4 SWAP1 SWAP3 SWAP1 SWAP2 PUSH1 0x20 DUP2 ADD SWAP1 CALLDATALOAD PUSH1 0x1 PUSH1 0x20 SHL DUP2 GT ISZERO PUSH2 0x2C2 JUMPI PUSH1 0x0 DUP1 PUSH2 0x2BF PUSH2 0x3230 JUMP JUMPDEST POP POP JUMPDEST DUP3 ADD DUP4 PUSH1 0x20 DUP3 ADD GT ISZERO PUSH2 0x2DD JUMPI PUSH1 0x0 DUP1 PUSH2 0x2DA PUSH2 0x3230 JUMP JUMPDEST POP POP JUMPDEST DUP1 CALLDATALOAD SWAP1 PUSH1 0x20 ADD SWAP2 DUP5 PUSH1 0x20 DUP4 MUL DUP5 ADD GT PUSH1 0x1 PUSH1 0x20 SHL DUP4 GT OR ISZERO PUSH2 0x307 JUMPI PUSH1 0x0 DUP1 PUSH2 0x304 PUSH2 0x3230 JUMP JUMPDEST POP POP JUMPDEST POP SWAP1 SWAP3 POP SWAP1 POP PUSH2 0xEF3 JUMP JUMPDEST PUSH2 0x3AB PUSH1 0x4 DUP1 CALLDATASIZE SUB PUSH1 0x40 DUP2 LT ISZERO PUSH2 0x331 JUMPI PUSH1 0x0 DUP1 PUSH2 0x32E PUSH2 0x3230 JUMP JUMPDEST POP POP JUMPDEST DUP2 CALLDATALOAD SWAP2 SWAP1 DUP2 ADD SWAP1 PUSH1 0x40 DUP2 ADD PUSH1 0x20 DUP3 ADD CALLDATALOAD PUSH1 0x1 PUSH1 0x20 SHL DUP2 GT ISZERO PUSH2 0x35B JUMPI PUSH1 0x0 DUP1 PUSH2 0x358 PUSH2 0x3230 JUMP JUMPDEST POP POP JUMPDEST DUP3 ADD DUP4 PUSH1 0x20 DUP3 ADD GT ISZERO PUSH2 0x376 JUMPI PUSH1 0x0 DUP1 PUSH2 0x373 PUSH2 0x3230 JUMP JUMPDEST POP POP JUMPDEST DUP1 CALLDATALOAD SWAP1 PUSH1 0x20 ADD SWAP2 DUP5 PUSH1 0x20 DUP4 MUL DUP5 ADD GT PUSH1 0x1 PUSH1 0x20 SHL DUP4 GT OR ISZERO PUSH2 0x3A0 JUMPI PUSH1 0x0 DUP1 PUSH2 0x39D PUSH2 0x3230 JUMP JUMPDEST POP POP JUMPDEST POP SWAP1 SWAP3 POP SWAP1 POP PUSH2 0x10C9 JUMP JUMPDEST PUSH1 0x40 MLOAD PUSH1 0x20 DUP1 DUP3 MSTORE DUP2 SWAP1 DUP2 ADD DUP4 DUP2 DUP2 MLOAD DUP2 MSTORE PUSH1 0x20 ADD SWAP2 POP DUP1 MLOAD SWAP1 PUSH1 0x20 ADD SWAP1 PUSH1 0x20 MUL DUP1 DUP4 DUP4 PUSH1 0x0 JUMPDEST DUP4 DUP2 LT ISZERO PUSH2 0x3EA JUMPI DUP1 DUP3 ADD MLOAD DUP4 DUP3 ADD MSTORE PUSH1 0x20 ADD PUSH2 0x3D2 JUMP JUMPDEST POP POP POP POP SWAP1 POP ADD SWAP3 POP POP POP PUSH1 0x40 MLOAD DUP1 SWAP2 SUB SWAP1 RETURN JUMPDEST PUSH2 0x20C PUSH1 0x4 DUP1 CALLDATASIZE SUB PUSH1 0x40 DUP2 LT ISZERO PUSH2 0x41D JUMPI PUSH1 0x0 DUP1 PUSH2 0x41A PUSH2 0x3230 JUMP JUMPDEST POP POP JUMPDEST POP DUP1 CALLDATALOAD SWAP1 PUSH1 0x20 ADD CALLDATALOAD PUSH2 0x1184 JUMP JUMPDEST PUSH2 0x20C PUSH1 0x4 DUP1 CALLDATASIZE SUB PUSH1 0x40 DUP2 LT ISZERO PUSH2 0x449 JUMPI PUSH1 0x0 DUP1 PUSH2 0x446 PUSH2 0x3230 JUMP JUMPDEST POP POP JUMPDEST POP DUP1 CALLDATALOAD SWAP1 PUSH1 0x20 ADD CALLDATALOAD PUSH2 0x13B3 JUMP JUMPDEST PUSH2 0x20C PUSH1 0x4 DUP1 CALLDATASIZE SUB PUSH1 0x60 DUP2 LT ISZERO PUSH2 0x475 JUMPI PUSH1 0x0 DUP1 PUSH2 0x472 PUSH2 0x3230 JUMP JUMPDEST POP POP JUMPDEST POP DUP1 CALLDATALOAD SWAP1 PUSH1 0x20 DUP2 ADD CALLDATALOAD SWAP1 PUSH1 0x40 ADD CALLDATALOAD PUSH2 0x15BB JUMP JUMPDEST PUSH2 0x4B4 PUSH1 0x4 DUP1 CALLDATASIZE SUB PUSH1 0x40 DUP2 LT ISZERO PUSH2 0x4A7 JUMPI PUSH1 0x0 DUP1 PUSH2 0x4A4 PUSH2 0x3230 JUMP JUMPDEST POP POP JUMPDEST POP DUP1 CALLDATALOAD SWAP1 PUSH1 0x20 ADD CALLDATALOAD PUSH2 0x1706 JUMP JUMPDEST PUSH1 0x40 MLOAD SWAP1 DUP2 MSTORE PUSH1 0x20 ADD PUSH1 0x40 MLOAD DUP1 SWAP2 SUB SWAP1 RETURN JUMPDEST PUSH2 0x20C PUSH1 0x4 DUP1 CALLDATASIZE SUB PUSH1 0x40 DUP2 LT ISZERO PUSH2 0x4E5 JUMPI PUSH1 0x0 DUP1 PUSH2 0x4E2 PUSH2 0x3230 JUMP JUMPDEST POP POP JUMPDEST POP DUP1 CALLDATALOAD SWAP1 PUSH1 0x20 ADD CALLDATALOAD PUSH2 0x174B JUMP JUMPDEST PUSH2 0x20C PUSH1 0x4 DUP1 CALLDATASIZE SUB PUSH1 0x60 DUP2 LT ISZERO PUSH2 0x511 JUMPI PUSH1 0x0 DUP1 PUSH2 0x50E PUSH2 0x3230 JUMP JUMPDEST POP POP JUMPDEST DUP2 CALLDATALOAD SWAP2 SWAP1 DUP2 ADD SWAP1 PUSH1 0x40 DUP2 ADD PUSH1 0x20 DUP3 ADD CALLDATALOAD PUSH1 0x1 PUSH1 0x20 SHL DUP2 GT ISZERO PUSH2 0x53B JUMPI PUSH1 0x0 DUP1 PUSH2 0x538 PUSH2 0x3230 JUMP JUMPDEST POP POP JUMPDEST DUP3 ADD DUP4 PUSH1 0x20 DUP3 ADD GT ISZERO PUSH2 0x556 JUMPI PUSH1 0x0 DUP1 PUSH2 0x553 PUSH2 0x3230 JUMP JUMPDEST POP POP JUMPDEST DUP1 CALLDATALOAD SWAP1 PUSH1 0x20 ADD SWAP2 DUP5 PUSH1 0x20 DUP4 MUL DUP5 ADD GT PUSH1 0x1 PUSH1 0x20 SHL DUP4 GT OR ISZERO PUSH2 0x580 JUMPI PUSH1 0x0 DUP1 PUSH2 0x57D PUSH2 0x3230 JUMP JUMPDEST POP POP JUMPDEST SWAP2 SWAP4 SWAP1 SWAP3 SWAP1 SWAP2 PUSH1 0x20 DUP2 ADD SWAP1 CALLDATALOAD PUSH1 0x1 PUSH1 0x20 SHL DUP2 GT ISZERO PUSH2 0x5A6 JUMPI PUSH1 0x0 DUP1 PUSH2 0x5A3 PUSH2 0x3230 JUMP JUMPDEST POP POP JUMPDEST DUP3 ADD DUP4 PUSH1 0x20 DUP3 ADD GT ISZERO PUSH2 0x5C1 JUMPI PUSH1 0x0 DUP1 PUSH2 0x5BE PUSH2 0x3230 JUMP JUMPDEST POP POP JUMPDEST DUP1 CALLDATALOAD SWAP1 PUSH1 0x20 ADD SWAP2 DUP5 PUSH1 0x20 DUP4 MUL DUP5 ADD GT PUSH1 0x1 PUSH1 0x20 SHL DUP4 GT OR ISZERO PUSH2 0x5EB JUMPI PUSH1 0x0 DUP1 PUSH2 0x5E8 PUSH2 0x3230 JUMP JUMPDEST POP POP JUMPDEST POP SWAP1 SWAP3 POP SWAP1 POP PUSH2 0x192B JUMP JUMPDEST PUSH2 0x20C PUSH1 0x4 DUP1 CALLDATASIZE SUB PUSH1 0x60 DUP2 LT ISZERO PUSH2 0x615 JUMPI PUSH1 0x0 DUP1 PUSH2 0x612 PUSH2 0x3230 JUMP JUMPDEST POP POP JUMPDEST POP DUP1 CALLDATALOAD SWAP1 PUSH1 0x20 DUP2 ADD CALLDATALOAD SWAP1 PUSH1 0x40 ADD CALLDATALOAD ISZERO ISZERO PUSH2 0x1B00 JUMP JUMPDEST PUSH2 0x20C PUSH1 0x4 DUP1 CALLDATASIZE SUB PUSH1 0x60 DUP2 LT ISZERO PUSH2 0x649 JUMPI PUSH1 0x0 DUP1 PUSH2 0x646 PUSH2 0x3230 JUMP JUMPDEST POP POP JUMPDEST POP DUP1 CALLDATALOAD SWAP1 PUSH1 0x20 DUP2 ADD CALLDATALOAD SWAP1 PUSH1 0x40 ADD CALLDATALOAD PUSH1 0x1 PUSH1 0x1 PUSH1 0xA0 SHL SUB AND PUSH2 0x1C4B JUMP JUMPDEST PUSH2 0x20C PUSH1 0x4 DUP1 CALLDATASIZE SUB PUSH1 0x60 DUP2 LT ISZERO PUSH2 0x684 JUMPI PUSH1 0x0 DUP1 PUSH2 0x681 PUSH2 0x3230 JUMP JUMPDEST POP POP JUMPDEST POP DUP1 CALLDATALOAD SWAP1 PUSH1 0x20 DUP2 ADD CALLDATALOAD SWAP1 PUSH1 0x40 ADD CALLDATALOAD ISZERO ISZERO PUSH2 0x1D96 JUMP JUMPDEST PUSH2 0x6A1 PUSH2 0x1FEA JUMP JUMPDEST PUSH1 0x40 MLOAD PUSH1 0x1 PUSH1 0x1 PUSH1 0xA0 SHL SUB SWAP1 SWAP2 AND DUP2 MSTORE PUSH1 0x20 ADD PUSH1 0x40 MLOAD DUP1 SWAP2 SUB SWAP1 RETURN JUMPDEST PUSH2 0x3AB PUSH1 0x4 DUP1 CALLDATASIZE SUB PUSH1 0x40 DUP2 LT ISZERO PUSH2 0x6DC JUMPI PUSH1 0x0 DUP1 PUSH2 0x6D9 PUSH2 0x3230 JUMP JUMPDEST POP POP JUMPDEST DUP2 CALLDATALOAD SWAP2 SWAP1 DUP2 ADD SWAP1 PUSH1 0x40 DUP2 ADD PUSH1 0x20 DUP3 ADD CALLDATALOAD PUSH1 0x1 PUSH1 0x20 SHL DUP2 GT ISZERO PUSH2 0x706 JUMPI PUSH1 0x0 DUP1 PUSH2 0x703 PUSH2 0x3230 JUMP JUMPDEST POP POP JUMPDEST DUP3 ADD DUP4 PUSH1 0x20 DUP3 ADD GT ISZERO PUSH2 0x721 JUMPI PUSH1 0x0 DUP1 PUSH2 0x71E PUSH2 0x3230 JUMP JUMPDEST POP POP JUMPDEST DUP1 CALLDATALOAD SWAP1 PUSH1 0x20 ADD SWAP2 DUP5 PUSH1 0x20 DUP4 MUL DUP5 ADD GT PUSH1 0x1 PUSH1 0x20 SHL DUP4 GT OR ISZERO PUSH2 0x74B JUMPI PUSH1 0x0 DUP1 PUSH2 0x748 PUSH2 0x3230 JUMP JUMPDEST POP POP JUMPDEST POP SWAP1 SWAP3 POP SWAP1 POP PUSH2 0x2008 JUMP JUMPDEST PUSH2 0x3AB PUSH1 0x4 DUP1 CALLDATASIZE SUB PUSH1 0x40 DUP2 LT ISZERO PUSH2 0x775 JUMPI PUSH1 0x0 DUP1 PUSH2 0x772 PUSH2 0x3230 JUMP JUMPDEST POP POP JUMPDEST DUP2 CALLDATALOAD SWAP2 SWAP1 DUP2 ADD SWAP1 PUSH1 0x40 DUP2 ADD PUSH1 0x20 DUP3 ADD CALLDATALOAD PUSH1 0x1 PUSH1 0x20 SHL DUP2 GT ISZERO PUSH2 0x79F JUMPI PUSH1 0x0 DUP1 PUSH2 0x79C PUSH2 0x3230 JUMP JUMPDEST POP POP JUMPDEST DUP3 ADD DUP4 PUSH1 0x20 DUP3 ADD GT ISZERO PUSH2 0x7BA JUMPI PUSH1 0x0 DUP1 PUSH2 0x7B7 PUSH2 0x3230 JUMP JUMPDEST POP POP JUMPDEST DUP1 CALLDATALOAD SWAP1 PUSH1 0x20 ADD SWAP2 DUP5 PUSH1 0x20 DUP4 MUL DUP5 ADD GT PUSH1 0x1 PUSH1 0x20 SHL DUP4 GT OR ISZERO PUSH2 0x7E4 JUMPI PUSH1 0x0 DUP1 PUSH2 0x7E1 PUSH2 0x3230 JUMP JUMPDEST POP POP JUMPDEST POP SWAP1 SWAP3 POP SWAP1 POP PUSH2 0x20B8 JUMP JUMPDEST PUSH2 0x20C PUSH1 0x4 DUP1 CALLDATASIZE SUB PUSH1 0x40 DUP2 LT ISZERO PUSH2 0x80E JUMPI PUSH1 0x0 DUP1 PUSH2 0x80B PUSH2 0x3230 JUMP JUMPDEST POP POP JUMPDEST POP DUP1 CALLDATALOAD SWAP1 PUSH1 0x20 ADD CALLDATALOAD PUSH2 0x2188 JUMP JUMPDEST PUSH2 0x6A1 PUSH1 0x4 DUP1 CALLDATASIZE SUB PUSH1 0x40 DUP2 LT ISZERO PUSH2 0x83A JUMPI PUSH1 0x0 DUP1 PUSH2 0x837 PUSH2 0x3230 JUMP JUMPDEST POP POP JUMPDEST POP DUP1 CALLDATALOAD SWAP1 PUSH1 0x20 ADD CALLDATALOAD PUSH2 0x23C1 JUMP JUMPDEST PUSH2 0x20C PUSH1 0x4 DUP1 CALLDATASIZE SUB PUSH1 0x60 DUP2 LT ISZERO PUSH2 0x866 JUMPI PUSH1 0x0 DUP1 PUSH2 0x863 PUSH2 0x3230 JUMP JUMPDEST POP POP JUMPDEST DUP2 CALLDATALOAD SWAP2 SWAP1 DUP2 ADD SWAP1 PUSH1 0x40 DUP2 ADD PUSH1 0x20 DUP3 ADD CALLDATALOAD PUSH1 0x1 PUSH1 0x20 SHL DUP2 GT ISZERO PUSH2 0x890 JUMPI PUSH1 0x0 DUP1 PUSH2 0x88D PUSH2 0x3230 JUMP JUMPDEST POP POP JUMPDEST DUP3 ADD DUP4 PUSH1 0x20 DUP3 ADD GT ISZERO PUSH2 0x8AB JUMPI PUSH1 0x0 DUP1 PUSH2 0x8A8 PUSH2 0x3230 JUMP JUMPDEST POP POP JUMPDEST DUP1 CALLDATALOAD SWAP1 PUSH1 0x20 ADD SWAP2 DUP5 PUSH1 0x20 DUP4 MUL DUP5 ADD GT PUSH1 0x1 PUSH1 0x20 SHL DUP4 GT OR ISZERO PUSH2 0x8D5 JUMPI PUSH1 0x0 DUP1 PUSH2 0x8D2 PUSH2 0x3230 JUMP JUMPDEST POP POP JUMPDEST SWAP2 SWAP4 SWAP1 SWAP3 SWAP1 SWAP2 PUSH1 0x20 DUP2 ADD SWAP1 CALLDATALOAD PUSH1 0x1 PUSH1 0x20 SHL DUP2 GT ISZERO PUSH2 0x8FB JUMPI PUSH1 0x0 DUP1 PUSH2 0x8F8 PUSH2 0x3230 JUMP JUMPDEST POP POP JUMPDEST DUP3 ADD DUP4 PUSH1 0x20 DUP3 ADD GT ISZERO PUSH2 0x916 JUMPI PUSH1 0x0 DUP1 PUSH2 0x913 PUSH2 0x3230 JUMP JUMPDEST POP POP JUMPDEST DUP1 CALLDATALOAD SWAP1 PUSH1 0x20 ADD SWAP2 DUP5 PUSH1 0x20 DUP4 MUL DUP5 ADD GT PUSH1 0x1 PUSH1 0x20 SHL DUP4 GT OR ISZERO PUSH2 0x940 JUMPI PUSH1 0x0 DUP1 PUSH2 0x93D PUSH2 0x3230 JUMP JUMPDEST POP POP JUMPDEST POP SWAP1 SWAP3 POP SWAP1 POP PUSH2 0x241A JUMP JUMPDEST PUSH2 0x3AB PUSH1 0x4 DUP1 CALLDATASIZE SUB PUSH1 0x40 DUP2 LT ISZERO PUSH2 0x96A JUMPI PUSH1 0x0 DUP1 PUSH2 0x967 PUSH2 0x3230 JUMP JUMPDEST POP POP JUMPDEST DUP2 CALLDATALOAD SWAP2 SWAP1 DUP2 ADD SWAP1 PUSH1 0x40 DUP2 ADD PUSH1 0x20 DUP3 ADD CALLDATALOAD PUSH1 0x1 PUSH1 0x20 SHL DUP2 GT ISZERO PUSH2 0x994 JUMPI PUSH1 0x0 DUP1 PUSH2 0x991 PUSH2 0x3230 JUMP JUMPDEST POP POP JUMPDEST DUP3 ADD DUP4 PUSH1 0x20 DUP3 ADD GT ISZERO PUSH2 0x9AF JUMPI PUSH1 0x0 DUP1 PUSH2 0x9AC PUSH2 0x3230 JUMP JUMPDEST POP POP JUMPDEST DUP1 CALLDATALOAD SWAP1 PUSH1 0x20 ADD SWAP2 DUP5 PUSH1 0x20 DUP4 MUL DUP5 ADD GT PUSH1 0x1 PUSH1 0x20 SHL DUP4 GT OR ISZERO PUSH2 0x9D9 JUMPI PUSH1 0x0 DUP1 PUSH2 0x9D6 PUSH2 0x3230 JUMP JUMPDEST POP POP JUMPDEST POP SWAP1 SWAP3 POP SWAP1 POP PUSH2 0x25E6 JUMP JUMPDEST PUSH2 0x3AB PUSH1 0x4 DUP1 CALLDATASIZE SUB PUSH1 0x40 DUP2 LT ISZERO PUSH2 0xA03 JUMPI PUSH1 0x0 DUP1 PUSH2 0xA00 PUSH2 0x3230 JUMP JUMPDEST POP POP JUMPDEST DUP2 CALLDATALOAD SWAP2 SWAP1 DUP2 ADD SWAP1 PUSH1 0x40 DUP2 ADD PUSH1 0x20 DUP3 ADD CALLDATALOAD PUSH1 0x1 PUSH1 0x20 SHL DUP2 GT ISZERO PUSH2 0xA2D JUMPI PUSH1 0x0 DUP1 PUSH2 0xA2A PUSH2 0x3230 JUMP JUMPDEST POP POP JUMPDEST DUP3 ADD DUP4 PUSH1 0x20 DUP3 ADD GT ISZERO PUSH2 0xA48 JUMPI PUSH1 0x0 DUP1 PUSH2 0xA45 PUSH2 0x3230 JUMP JUMPDEST POP POP JUMPDEST DUP1 CALLDATALOAD SWAP1 PUSH1 0x20 ADD SWAP2 DUP5 PUSH1 0x20 DUP4 MUL DUP5 ADD GT PUSH1 0x1 PUSH1 0x20 SHL DUP4 GT OR ISZERO PUSH2 0xA72 JUMPI PUSH1 0x0 DUP1 PUSH2 0xA6F PUSH2 0x3230 JUMP JUMPDEST POP POP JUMPDEST POP SWAP1 SWAP3 POP SWAP1 POP PUSH2 0x2696 JUMP JUMPDEST PUSH2 0x4B4 PUSH1 0x4 DUP1 CALLDATASIZE SUB PUSH1 0x40 DUP2 LT ISZERO PUSH2 0xA9C JUMPI PUSH1 0x0 DUP1 PUSH2 0xA99 PUSH2 0x3230 JUMP JUMPDEST POP POP JUMPDEST POP DUP1 CALLDATALOAD SWAP1 PUSH1 0x20 ADD CALLDATALOAD PUSH2 0x2758 JUMP JUMPDEST PUSH2 0x20C PUSH1 0x4 DUP1 CALLDATASIZE SUB PUSH1 0x60 DUP2 LT ISZERO PUSH2 0xAC8 JUMPI PUSH1 0x0 DUP1 PUSH2 0xAC5 PUSH2 0x3230 JUMP JUMPDEST POP POP JUMPDEST DUP2 CALLDATALOAD SWAP2 SWAP1 DUP2 ADD SWAP1 PUSH1 0x40 DUP2 ADD PUSH1 0x20 DUP3 ADD CALLDATALOAD PUSH1 0x1 PUSH1 0x20 SHL DUP2 GT ISZERO PUSH2 0xAF2 JUMPI PUSH1 0x0 DUP1 PUSH2 0xAEF PUSH2 0x3230 JUMP JUMPDEST POP POP JUMPDEST DUP3 ADD DUP4 PUSH1 0x20 DUP3 ADD GT ISZERO PUSH2 0xB0D JUMPI PUSH1 0x0 DUP1 PUSH2 0xB0A PUSH2 0x3230 JUMP JUMPDEST POP POP JUMPDEST DUP1 CALLDATALOAD SWAP1 PUSH1 0x20 ADD SWAP2 DUP5 PUSH1 0x20 DUP4 MUL DUP5 ADD GT PUSH1 0x1 PUSH1 0x20 SHL DUP4 GT OR ISZERO PUSH2 0xB37 JUMPI PUSH1 0x0 DUP1 PUSH2 0xB34 PUSH2 0x3230 JUMP JUMPDEST POP POP JUMPDEST SWAP2 SWAP4 SWAP1 SWAP3 SWAP1 SWAP2 PUSH1 0x20 DUP2 ADD SWAP1 CALLDATALOAD PUSH1 0x1 PUSH1 0x20 SHL DUP2 GT ISZERO PUSH2 0xB5D JUMPI PUSH1 0x0 DUP1 PUSH2 0xB5A PUSH2 0x3230 JUMP JUMPDEST POP POP JUMPDEST DUP3 ADD DUP4 PUSH1 0x20 DUP3 ADD GT ISZERO PUSH2 0xB78 JUMPI PUSH1 0x0 DUP1 PUSH2 0xB75 PUSH2 0x3230 JUMP JUMPDEST POP POP JUMPDEST DUP1 CALLDATALOAD SWAP1 PUSH1 0x20 ADD SWAP2 DUP5 PUSH1 0x20 DUP4 MUL DUP5 ADD GT PUSH1 0x1 PUSH1 0x20 SHL DUP4 GT OR ISZERO PUSH2 0xBA2 JUMPI PUSH1 0x0 DUP1 PUSH2 0xB9F PUSH2 0x3230 JUMP JUMPDEST POP POP JUMPDEST POP SWAP1 SWAP3 POP SWAP1 POP PUSH2 0x2771 JUMP JUMPDEST PUSH2 0x4B4 PUSH1 0x4 DUP1 CALLDATASIZE SUB PUSH1 0x20 DUP2 LT ISZERO PUSH2 0xBCC JUMPI PUSH1 0x0 DUP1 PUSH2 0xBC9 PUSH2 0x3230 JUMP JUMPDEST POP POP JUMPDEST POP CALLDATALOAD PUSH2 0x293D JUMP JUMPDEST PUSH2 0x20C PUSH1 0x4 DUP1 CALLDATASIZE SUB PUSH1 0x60 DUP2 LT ISZERO PUSH2 0xBF2 JUMPI PUSH1 0x0 DUP1 PUSH2 0xBEF PUSH2 0x3230 JUMP JUMPDEST POP POP JUMPDEST POP DUP1 CALLDATALOAD SWAP1 PUSH1 0x20 DUP2 ADD CALLDATALOAD SWAP1 PUSH1 0x40 ADD CALLDATALOAD PUSH2 0x2958 JUMP JUMPDEST PUSH2 0xC31 PUSH1 0x4 DUP1 CALLDATASIZE SUB PUSH1 0x40 DUP2 LT ISZERO PUSH2 0xC24 JUMPI PUSH1 0x0 DUP1 PUSH2 0xC21 PUSH2 0x3230 JUMP JUMPDEST POP POP JUMPDEST POP DUP1 CALLDATALOAD SWAP1 PUSH1 0x20 ADD CALLDATALOAD PUSH2 0x2AA3 JUMP JUMPDEST PUSH1 0x40 MLOAD SWAP1 ISZERO ISZERO DUP2 MSTORE PUSH1 0x20 ADD PUSH1 0x40 MLOAD DUP1 SWAP2 SUB SWAP1 RETURN JUMPDEST PUSH2 0x4B4 PUSH1 0x4 DUP1 CALLDATASIZE SUB PUSH1 0x40 DUP2 LT ISZERO PUSH2 0xC64 JUMPI PUSH1 0x0 DUP1 PUSH2 0xC61 PUSH2 0x3230 JUMP JUMPDEST POP POP JUMPDEST POP DUP1 CALLDATALOAD SWAP1 PUSH1 0x20 ADD CALLDATALOAD PUSH2 0x2AF6 JUMP JUMPDEST PUSH2 0x20C PUSH1 0x4 DUP1 CALLDATASIZE SUB PUSH1 0x60 DUP2 LT ISZERO PUSH2 0xC90 JUMPI PUSH1 0x0 DUP1 PUSH2 0xC8D PUSH2 0x3230 JUMP JUMPDEST POP POP JUMPDEST DUP2 CALLDATALOAD SWAP2 SWAP1 DUP2 ADD SWAP1 PUSH1 0x40 DUP2 ADD PUSH1 0x20 DUP3 ADD CALLDATALOAD PUSH1 0x1 PUSH1 0x20 SHL DUP2 GT ISZERO PUSH2 0xCBA JUMPI PUSH1 0x0 DUP1 PUSH2 0xCB7 PUSH2 0x3230 JUMP JUMPDEST POP POP JUMPDEST DUP3 ADD DUP4 PUSH1 0x20 DUP3 ADD GT ISZERO PUSH2 0xCD5 JUMPI PUSH1 0x0 DUP1 PUSH2 0xCD2 PUSH2 0x3230 JUMP JUMPDEST POP POP JUMPDEST DUP1 CALLDATALOAD SWAP1 PUSH1 0x20 ADD SWAP2 DUP5 PUSH1 0x20 DUP4 MUL DUP5 ADD GT PUSH1 0x1 PUSH1 0x20 SHL DUP4 GT OR ISZERO PUSH2 0xCFF JUMPI PUSH1 0x0 DUP1 PUSH2 0xCFC PUSH2 0x3230 JUMP JUMPDEST POP POP JUMPDEST SWAP2 SWAP4 SWAP1 SWAP3 SWAP1 SWAP2 PUSH1 0x20 DUP2 ADD SWAP1 CALLDATALOAD PUSH1 0x1 PUSH1 0x20 SHL DUP2 GT ISZERO PUSH2 0xD25 JUMPI PUSH1 0x0 DUP1 PUSH2 0xD22 PUSH2 0x3230 JUMP JUMPDEST POP POP JUMPDEST DUP3 ADD DUP4 PUSH1 0x20 DUP3 ADD GT ISZERO PUSH2 0xD40 JUMPI PUSH1 0x0 DUP1 PUSH2 0xD3D PUSH2 0x3230 JUMP JUMPDEST POP POP JUMPDEST DUP1 CALLDATALOAD SWAP1 PUSH1 0x20 ADD SWAP2 DUP5 PUSH1 0x20 DUP4 MUL DUP5 ADD GT PUSH1 0x1 PUSH1 0x20 SHL DUP4 GT OR ISZERO PUSH2 0xD6A JUMPI PUSH1 0x0 DUP1 PUSH2 0xD67 PUSH2 0x3230 JUMP JUMPDEST POP POP JUMPDEST POP SWAP1 SWAP3 POP SWAP1 POP PUSH2 0x2B0F JUMP JUMPDEST PUSH2 0x20C PUSH1 0x4 DUP1 CALLDATASIZE SUB PUSH1 0x40 DUP2 LT ISZERO PUSH2 0xD94 JUMPI PUSH1 0x0 DUP1 PUSH2 0xD91 PUSH2 0x3230 JUMP JUMPDEST POP POP JUMPDEST POP DUP1 CALLDATALOAD SWAP1 PUSH1 0x20 ADD CALLDATALOAD PUSH2 0x2CDD JUMP JUMPDEST DUP3 PUSH1 0x0 DUP1 DUP1 PUSH2 0xDAE PUSH2 0x329B JUMP JUMPDEST SWAP1 PUSH2 0x100 EXP SWAP1 DIV PUSH1 0x1 PUSH1 0x1 PUSH1 0xA0 SHL SUB AND PUSH1 0x1 PUSH1 0x1 PUSH1 0xA0 SHL SUB AND PUSH4 0xDACB2D01 DUP4 PUSH1 0x40 MLOAD DUP3 PUSH4 0xFFFFFFFF AND PUSH1 0xE0 SHL DUP2 MSTORE PUSH1 0x4 ADD DUP1 DUP3 DUP2 MSTORE PUSH1 0x20 ADD DUP1 PUSH1 0x20 ADD DUP3 DUP2 SUB DUP3 MSTORE PUSH1 0x28 DUP2 MSTORE PUSH1 0x20 ADD DUP1 PUSH2 0x34DB PUSH1 0x28 SWAP2 CODECOPY PUSH1 0x40 ADD SWAP3 POP POP POP PUSH1 0x20 PUSH1 0x40 MLOAD DUP1 DUP4 SUB DUP2 DUP7 DUP1 PUSH2 0xE18 PUSH2 0x32FB JUMP JUMPDEST ISZERO DUP1 ISZERO PUSH2 0xE2D JUMPI PUSH1 0x0 DUP1 PUSH2 0xE2A PUSH2 0x3230 JUMP JUMPDEST POP POP JUMPDEST POP GAS PUSH2 0xE37 PUSH2 0x3347 JUMP JUMPDEST POP POP POP POP POP ISZERO DUP1 ISZERO PUSH2 0xE56 JUMPI RETURNDATASIZE PUSH1 0x0 DUP1 RETURNDATACOPY RETURNDATASIZE PUSH1 0x0 PUSH2 0xE53 PUSH2 0x3230 JUMP JUMPDEST POP POP JUMPDEST POP POP POP POP PUSH1 0x40 MLOAD RETURNDATASIZE PUSH1 0x20 DUP2 LT ISZERO PUSH2 0xE75 JUMPI PUSH1 0x0 DUP1 PUSH2 0xE72 PUSH2 0x3230 JUMP JUMPDEST POP POP JUMPDEST DUP2 ADD SWAP1 DUP1 DUP1 MLOAD SWAP4 POP POP POP POP GAS PUSH2 0xE89 PUSH2 0x3400 JUMP JUMPDEST PUSH1 0x1 PUSH1 0x1 PUSH1 0xA0 SHL SUB AND DUP2 PUSH1 0x1 PUSH1 0x1 PUSH1 0xA0 SHL SUB AND EQ PUSH2 0xEE1 JUMPI PUSH1 0x40 MLOAD PUSH3 0x461BCD PUSH1 0xE5 SHL DUP2 MSTORE PUSH1 0x4 ADD DUP1 DUP1 PUSH1 0x20 ADD DUP3 DUP2 SUB DUP3 MSTORE PUSH1 0x2E DUP2 MSTORE PUSH1 0x20 ADD DUP1 PUSH2 0x3503 PUSH1 0x2E SWAP2 CODECOPY PUSH1 0x40 ADD SWAP2 POP POP PUSH1 0x40 MLOAD DUP1 SWAP2 SUB SWAP1 PUSH2 0xEDE PUSH2 0x3230 JUMP JUMPDEST POP POP JUMPDEST PUSH2 0xEEC DUP6 DUP6 DUP6 PUSH2 0x2EBD JUMP JUMPDEST POP POP POP POP POP JUMP JUMPDEST DUP5 PUSH1 0x0 DUP1 DUP1 PUSH2 0xF00 PUSH2 0x329B JUMP JUMPDEST SWAP1 PUSH2 0x100 EXP SWAP1 DIV PUSH1 0x1 PUSH1 0x1 PUSH1 0xA0 SHL SUB AND PUSH1 0x1 PUSH1 0x1 PUSH1 0xA0 SHL SUB AND PUSH4 0xDACB2D01 DUP4 PUSH1 0x40 MLOAD DUP3 PUSH4 0xFFFFFFFF AND PUSH1 0xE0 SHL DUP2 MSTORE PUSH1 0x4 ADD DUP1 DUP3 DUP2 MSTORE PUSH1 0x20 ADD DUP1 PUSH1 0x20 ADD DUP3 DUP2 SUB DUP3 MSTORE PUSH1 0x28 DUP2 MSTORE PUSH1 0x20 ADD DUP1 PUSH2 0x34DB PUSH1 0x28 SWAP2 CODECOPY PUSH1 0x40 ADD SWAP3 POP POP POP PUSH1 0x20 PUSH1 0x40 MLOAD DUP1 DUP4 SUB DUP2 DUP7 DUP1 PUSH2 0xF6A PUSH2 0x32FB JUMP JUMPDEST ISZERO DUP1 ISZERO PUSH2 0xF7F JUMPI PUSH1 0x0 DUP1 PUSH2 0xF7C PUSH2 0x3230 JUMP JUMPDEST POP POP JUMPDEST POP GAS PUSH2 0xF89 PUSH2 0x3347 JUMP JUMPDEST POP POP POP POP POP ISZERO DUP1 ISZERO PUSH2 0xFA8 JUMPI RETURNDATASIZE PUSH1 0x0 DUP1 RETURNDATACOPY RETURNDATASIZE PUSH1 0x0 PUSH2 0xFA5 PUSH2 0x3230 JUMP JUMPDEST POP POP JUMPDEST POP POP POP POP PUSH1 0x40 MLOAD RETURNDATASIZE PUSH1 0x20 DUP2 LT ISZERO PUSH2 0xFC7 JUMPI PUSH1 0x0 DUP1 PUSH2 0xFC4 PUSH2 0x3230 JUMP JUMPDEST POP POP JUMPDEST DUP2 ADD SWAP1 DUP1 DUP1 MLOAD SWAP4 POP POP POP POP GAS PUSH2 0xFDB PUSH2 0x3400 JUMP JUMPDEST PUSH1 0x1 PUSH1 0x1 PUSH1 0xA0 SHL SUB AND DUP2 PUSH1 0x1 PUSH1 0x1 PUSH1 0xA0 SHL SUB AND EQ PUSH2 0x1033 JUMPI PUSH1 0x40 MLOAD PUSH3 0x461BCD PUSH1 0xE5 SHL DUP2 MSTORE PUSH1 0x4 ADD DUP1 DUP1 PUSH1 0x20 ADD DUP3 DUP2 SUB DUP3 MSTORE PUSH1 0x2E DUP2 MSTORE PUSH1 0x20 ADD DUP1 PUSH2 0x3503 PUSH1 0x2E SWAP2 CODECOPY PUSH1 0x40 ADD SWAP2 POP POP PUSH1 0x40 MLOAD DUP1 SWAP2 SUB SWAP1 PUSH2 0x1030 PUSH2 0x3230 JUMP JUMPDEST POP POP JUMPDEST DUP5 DUP4 EQ PUSH2 0x107D JUMPI PUSH1 0x40 MLOAD PUSH3 0x461BCD PUSH1 0xE5 SHL DUP2 MSTORE PUSH1 0x20 PUSH1 0x4 DUP3 ADD MSTORE PUSH1 0x18 PUSH1 0x24 DUP3 ADD MSTORE PUSH1 0x0 DUP1 MLOAD PUSH1 0x20 PUSH2 0x3531 DUP4 CODECOPY DUP2 MLOAD SWAP2 MSTORE PUSH1 0x44 DUP3 ADD MSTORE PUSH1 0x64 ADD PUSH1 0x40 MLOAD DUP1 SWAP2 SUB SWAP1 PUSH2 0x107A PUSH2 0x3230 JUMP JUMPDEST POP POP JUMPDEST PUSH1 0x0 JUMPDEST DUP6 DUP2 LT ISZERO PUSH2 0x10BF JUMPI PUSH2 0x10B7 DUP9 DUP9 DUP9 DUP5 DUP2 DUP2 LT PUSH2 0x1098 JUMPI INVALID JUMPDEST SWAP1 POP PUSH1 0x20 MUL ADD CALLDATALOAD DUP8 DUP8 DUP6 DUP2 DUP2 LT PUSH2 0x10AB JUMPI INVALID JUMPDEST SWAP1 POP PUSH1 0x20 MUL ADD CALLDATALOAD PUSH2 0x2F41 JUMP JUMPDEST PUSH1 0x1 ADD PUSH2 0x1080 JUMP JUMPDEST POP POP POP POP POP POP POP POP JUMP JUMPDEST PUSH1 0x60 DUP1 DUP3 PUSH1 0x40 MLOAD SWAP1 DUP1 DUP3 MSTORE DUP1 PUSH1 0x20 MUL PUSH1 0x20 ADD DUP3 ADD PUSH1 0x40 MSTORE DUP1 ISZERO PUSH2 0x10F6 JUMPI DUP2 PUSH1 0x20 ADD PUSH1 0x20 DUP3 MUL DUP1 CODESIZE DUP4 CODECOPY ADD SWAP1 POP JUMPDEST POP PUSH1 0x0 DUP7 DUP2 MSTORE PUSH1 0x1 PUSH1 0x20 MSTORE SWAP1 SWAP2 POP PUSH1 0x3 DUP2 PUSH1 0x40 DUP2 KECCAK256 PUSH2 0x1113 PUSH2 0x329B JUMP JUMPDEST DUP2 MSTORE PUSH1 0x20 ADD SWAP1 DUP2 MSTORE PUSH1 0x20 ADD PUSH1 0x0 KECCAK256 SWAP1 POP PUSH1 0x0 JUMPDEST DUP5 DUP2 LT ISZERO PUSH2 0x1179 JUMPI DUP2 PUSH1 0x0 DUP8 DUP8 DUP5 DUP2 DUP2 LT PUSH2 0x113D JUMPI INVALID JUMPDEST SWAP1 POP PUSH1 0x20 MUL ADD CALLDATALOAD DUP2 MSTORE PUSH1 0x20 ADD SWAP1 DUP2 MSTORE PUSH1 0x20 ADD PUSH1 0x0 KECCAK256 PUSH2 0x115A PUSH2 0x329B JUMP JUMPDEST DUP4 DUP3 DUP2 MLOAD DUP2 LT PUSH2 0x1166 JUMPI INVALID JUMPDEST PUSH1 0x20 SWAP1 DUP2 MUL SWAP2 SWAP1 SWAP2 ADD ADD MSTORE PUSH1 0x1 ADD PUSH2 0x1126 JUMP JUMPDEST POP SWAP1 SWAP6 SWAP5 POP POP POP POP POP JUMP JUMPDEST DUP2 PUSH1 0x0 DUP1 DUP1 PUSH2 0x1191 PUSH2 0x329B JUMP JUMPDEST SWAP1 PUSH2 0x100 EXP SWAP1 DIV PUSH1 0x1 PUSH1 0x1 PUSH1 0xA0 SHL SUB AND PUSH1 0x1 PUSH1 0x1 PUSH1 0xA0 SHL SUB AND PUSH4 0xDACB2D01 DUP4 PUSH1 0x40 MLOAD DUP3 PUSH4 0xFFFFFFFF AND PUSH1 0xE0 SHL DUP2 MSTORE PUSH1 0x4 ADD DUP1 DUP3 DUP2 MSTORE PUSH1 0x20 ADD DUP1 PUSH1 0x20 ADD DUP3 DUP2 SUB DUP3 MSTORE PUSH1 0x28 DUP2 MSTORE PUSH1 0x20 ADD DUP1 PUSH2 0x34DB PUSH1 0x28 SWAP2 CODECOPY PUSH1 0x40 ADD SWAP3 POP POP POP PUSH1 0x20 PUSH1 0x40 MLOAD DUP1 DUP4 SUB DUP2 DUP7 DUP1 PUSH2 0x11FB PUSH2 0x32FB JUMP JUMPDEST ISZERO DUP1 ISZERO PUSH2 0x1210 JUMPI PUSH1 0x0 DUP1 PUSH2 0x120D PUSH2 0x3230 JUMP JUMPDEST POP POP JUMPDEST POP GAS PUSH2 0x121A PUSH2 0x3347 JUMP JUMPDEST POP POP POP POP POP ISZERO DUP1 ISZERO PUSH2 0x1239 JUMPI RETURNDATASIZE PUSH1 0x0 DUP1 RETURNDATACOPY RETURNDATASIZE PUSH1 0x0 PUSH2 0x1236 PUSH2 0x3230 JUMP JUMPDEST POP POP JUMPDEST POP POP POP POP PUSH1 0x40 MLOAD RETURNDATASIZE PUSH1 0x20 DUP2 LT ISZERO PUSH2 0x1258 JUMPI PUSH1 0x0 DUP1 PUSH2 0x1255 PUSH2 0x3230 JUMP JUMPDEST POP POP JUMPDEST DUP2 ADD SWAP1 DUP1 DUP1 MLOAD SWAP4 POP POP POP POP GAS PUSH2 0x126C PUSH2 0x3400 JUMP JUMPDEST PUSH1 0x1 PUSH1 0x1 PUSH1 0xA0 SHL SUB AND DUP2 PUSH1 0x1 PUSH1 0x1 PUSH1 0xA0 SHL SUB AND EQ PUSH2 0x12C4 JUMPI PUSH1 0x40 MLOAD PUSH3 0x461BCD PUSH1 0xE5 SHL DUP2 MSTORE PUSH1 0x4 ADD DUP1 DUP1 PUSH1 0x20 ADD DUP3 DUP2 SUB DUP3 MSTORE PUSH1 0x2E DUP2 MSTORE PUSH1 0x20 ADD DUP1 PUSH2 0x3503 PUSH1 0x2E SWAP2 CODECOPY PUSH1 0x40 ADD SWAP2 POP POP PUSH1 0x40 MLOAD DUP1 SWAP2 SUB SWAP1 PUSH2 0x12C1 PUSH2 0x3230 JUMP JUMPDEST POP POP JUMPDEST PUSH1 0x0 DUP5 DUP2 MSTORE PUSH1 0x1 PUSH1 0x20 MSTORE PUSH1 0x5 DUP2 PUSH1 0x40 DUP2 KECCAK256 PUSH2 0x12DD PUSH2 0x329B JUMP JUMPDEST DUP2 MSTORE PUSH1 0x20 ADD SWAP1 DUP2 MSTORE PUSH1 0x20 ADD PUSH1 0x0 KECCAK256 PUSH1 0x0 DUP6 DUP2 MSTORE PUSH1 0x20 SWAP2 SWAP1 SWAP2 MSTORE PUSH1 0x40 SWAP1 KECCAK256 PUSH1 0x0 SWAP1 PUSH2 0x1305 PUSH2 0x329B JUMP JUMPDEST SWAP1 PUSH2 0x100 EXP SWAP1 DIV PUSH1 0xFF AND SWAP1 POP PUSH32 0x321123223C2C7BFFD7484AE8FB80C6EB45AA5537DF0A621C47833AB9376A4A9C DUP6 DUP6 DUP4 PUSH1 0x40 MLOAD SWAP3 DUP4 MSTORE PUSH1 0x20 DUP4 ADD SWAP2 SWAP1 SWAP2 MSTORE ISZERO ISZERO PUSH1 0x40 DUP1 DUP4 ADD SWAP2 SWAP1 SWAP2 MSTORE PUSH1 0x60 SWAP1 SWAP2 ADD SWAP1 MLOAD DUP1 SWAP2 SUB SWAP1 LOG1 PUSH1 0x0 DUP6 DUP2 MSTORE PUSH1 0x1 PUSH1 0x20 MSTORE PUSH1 0x5 SWAP1 PUSH1 0x40 DUP2 KECCAK256 PUSH2 0x1373 PUSH2 0x329B JUMP JUMPDEST DUP2 MSTORE PUSH1 0x20 ADD SWAP1 DUP2 MSTORE PUSH1 0x20 ADD PUSH1 0x0 KECCAK256 PUSH1 0x0 DUP6 DUP2 MSTORE PUSH1 0x20 SWAP2 SWAP1 SWAP2 MSTORE PUSH1 0x40 SWAP1 KECCAK256 PUSH1 0x1 DUP2 PUSH2 0x139B PUSH2 0x329B JUMP JUMPDEST SWAP1 PUSH1 0xFF MUL NOT AND SWAP1 PUSH2 0x13AA PUSH2 0x3446 JUMP JUMPDEST POP POP POP POP POP POP POP JUMP JUMPDEST DUP2 PUSH1 0x0 DUP1 DUP1 PUSH2 0x13C0 PUSH2 0x329B JUMP JUMPDEST SWAP1 PUSH2 0x100 EXP SWAP1 DIV PUSH1 0x1 PUSH1 0x1 PUSH1 0xA0 SHL SUB AND PUSH1 0x1 PUSH1 0x1 PUSH1 0xA0 SHL SUB AND PUSH4 0xDACB2D01 DUP4 PUSH1 0x40 MLOAD DUP3 PUSH4 0xFFFFFFFF AND PUSH1 0xE0 SHL DUP2 MSTORE PUSH1 0x4 ADD DUP1 DUP3 DUP2 MSTORE PUSH1 0x20 ADD DUP1 PUSH1 0x20 ADD DUP3 DUP2 SUB DUP3 MSTORE PUSH1 0x28 DUP2 MSTORE PUSH1 0x20 ADD DUP1 PUSH2 0x34DB PUSH1 0x28 SWAP2 CODECOPY PUSH1 0x40 ADD SWAP3 POP POP POP PUSH1 0x20 PUSH1 0x40 MLOAD DUP1 DUP4 SUB DUP2 DUP7 DUP1 PUSH2 0x142A PUSH2 0x32FB JUMP JUMPDEST ISZERO DUP1 ISZERO PUSH2 0x143F JUMPI PUSH1 0x0 DUP1 PUSH2 0x143C PUSH2 0x3230 JUMP JUMPDEST POP POP JUMPDEST POP GAS PUSH2 0x1449 PUSH2 0x3347 JUMP JUMPDEST POP POP POP POP POP ISZERO DUP1 ISZERO PUSH2 0x1468 JUMPI RETURNDATASIZE PUSH1 0x0 DUP1 RETURNDATACOPY RETURNDATASIZE PUSH1 0x0 PUSH2 0x1465 PUSH2 0x3230 JUMP JUMPDEST POP POP JUMPDEST POP POP POP POP PUSH1 0x40 MLOAD RETURNDATASIZE PUSH1 0x20 DUP2 LT ISZERO PUSH2 0x1487 JUMPI PUSH1 0x0 DUP1 PUSH2 0x1484 PUSH2 0x3230 JUMP JUMPDEST POP POP JUMPDEST DUP2 ADD SWAP1 DUP1 DUP1 MLOAD SWAP4 POP POP POP POP GAS PUSH2 0x149B PUSH2 0x3400 JUMP JUMPDEST PUSH1 0x1 PUSH1 0x1 PUSH1 0xA0 SHL SUB AND DUP2 PUSH1 0x1 PUSH1 0x1 PUSH1 0xA0 SHL SUB AND EQ PUSH2 0x14F3 JUMPI PUSH1 0x40 MLOAD PUSH3 0x461BCD PUSH1 0xE5 SHL DUP2 MSTORE PUSH1 0x4 ADD DUP1 DUP1 PUSH1 0x20 ADD DUP3 DUP2 SUB DUP3 MSTORE PUSH1 0x2E DUP2 MSTORE PUSH1 0x20 ADD DUP1 PUSH2 0x3503 PUSH1 0x2E SWAP2 CODECOPY PUSH1 0x40 ADD SWAP2 POP POP PUSH1 0x40 MLOAD DUP1 SWAP2 SUB SWAP1 PUSH2 0x14F0 PUSH2 0x3230 JUMP JUMPDEST POP POP JUMPDEST PUSH1 0x0 DUP5 DUP2 MSTORE PUSH1 0x1 PUSH1 0x20 MSTORE PUSH1 0x2 DUP2 PUSH1 0x40 DUP2 KECCAK256 PUSH2 0x150C PUSH2 0x329B JUMP JUMPDEST DUP2 MSTORE PUSH1 0x20 ADD SWAP1 DUP2 MSTORE PUSH1 0x20 ADD PUSH1 0x0 KECCAK256 PUSH1 0x0 DUP6 DUP2 MSTORE PUSH1 0x20 SWAP2 SWAP1 SWAP2 MSTORE PUSH1 0x40 SWAP1 KECCAK256 PUSH2 0x1531 PUSH2 0x329B JUMP JUMPDEST SWAP1 POP PUSH32 0x8A6B612C1A1E056BC504F34FE56106A878FCA2D1A50BE35360D02AC39D4D4662 DUP6 DUP6 DUP4 PUSH1 0x40 MLOAD DUP1 DUP5 DUP2 MSTORE PUSH1 0x20 ADD DUP4 DUP2 MSTORE PUSH1 0x20 ADD DUP3 DUP2 MSTORE PUSH1 0x20 ADD SWAP4 POP POP POP POP PUSH1 0x40 MLOAD DUP1 SWAP2 SUB SWAP1 LOG1 PUSH1 0x0 DUP6 DUP2 MSTORE PUSH1 0x1 PUSH1 0x20 MSTORE PUSH1 0x2 SWAP1 PUSH1 0x40 DUP2 KECCAK256 PUSH2 0x1593 PUSH2 0x329B JUMP JUMPDEST DUP2 MSTORE PUSH1 0x20 ADD SWAP1 DUP2 MSTORE PUSH1 0x20 ADD PUSH1 0x0 KECCAK256 PUSH1 0x0 DUP6 DUP2 MSTORE PUSH1 0x20 SWAP2 SWAP1 SWAP2 MSTORE PUSH1 0x40 SWAP1 KECCAK256 PUSH1 0x0 SWAP1 PUSH2 0x13AA PUSH2 0x3446 JUMP JUMPDEST DUP3 PUSH1 0x0 DUP1 DUP1 PUSH2 0x15C8 PUSH2 0x329B JUMP JUMPDEST SWAP1 PUSH2 0x100 EXP SWAP1 DIV PUSH1 0x1 PUSH1 0x1 PUSH1 0xA0 SHL SUB AND PUSH1 0x1 PUSH1 0x1 PUSH1 0xA0 SHL SUB AND PUSH4 0xDACB2D01 DUP4 PUSH1 0x40 MLOAD DUP3 PUSH4 0xFFFFFFFF AND PUSH1 0xE0 SHL DUP2 MSTORE PUSH1 0x4 ADD DUP1 DUP3 DUP2 MSTORE PUSH1 0x20 ADD DUP1 PUSH1 0x20 ADD DUP3 DUP2 SUB DUP3 MSTORE PUSH1 0x28 DUP2 MSTORE PUSH1 0x20 ADD DUP1 PUSH2 0x34DB PUSH1 0x28 SWAP2 CODECOPY PUSH1 0x40 ADD SWAP3 POP POP POP PUSH1 0x20 PUSH1 0x40 MLOAD DUP1 DUP4 SUB DUP2 DUP7 DUP1 PUSH2 0x1632 PUSH2 0x32FB JUMP JUMPDEST ISZERO DUP1 ISZERO PUSH2 0x1647 JUMPI PUSH1 0x0 DUP1 PUSH2 0x1644 PUSH2 0x3230 JUMP JUMPDEST POP POP JUMPDEST POP GAS PUSH2 0x1651 PUSH2 0x3347 JUMP JUMPDEST POP POP POP POP POP ISZERO DUP1 ISZERO PUSH2 0x1670 JUMPI RETURNDATASIZE PUSH1 0x0 DUP1 RETURNDATACOPY RETURNDATASIZE PUSH1 0x0 PUSH2 0x166D PUSH2 0x3230 JUMP JUMPDEST POP POP JUMPDEST POP POP POP POP PUSH1 0x40 MLOAD RETURNDATASIZE PUSH1 0x20 DUP2 LT ISZERO PUSH2 0x168F JUMPI PUSH1 0x0 DUP1 PUSH2 0x168C PUSH2 0x3230 JUMP JUMPDEST POP POP JUMPDEST DUP2 ADD SWAP1 DUP1 DUP1 MLOAD SWAP4 POP POP POP POP GAS PUSH2 0x16A3 PUSH2 0x3400 JUMP JUMPDEST PUSH1 0x1 PUSH1 0x1 PUSH1 0xA0 SHL SUB AND DUP2 PUSH1 0x1 PUSH1 0x1 PUSH1 0xA0 SHL SUB AND EQ PUSH2 0x16FB JUMPI PUSH1 0x40 MLOAD PUSH3 0x461BCD PUSH1 0xE5 SHL DUP2 MSTORE PUSH1 0x4 ADD DUP1 DUP1 PUSH1 0x20 ADD DUP3 DUP2 SUB DUP3 MSTORE PUSH1 0x2E DUP2 MSTORE PUSH1 0x20 ADD DUP1 PUSH2 0x3503 PUSH1 0x2E SWAP2 CODECOPY PUSH1 0x40 ADD SWAP2 POP POP PUSH1 0x40 MLOAD DUP1 SWAP2 SUB SWAP1 PUSH2 0x16F8 PUSH2 0x3230 JUMP JUMPDEST POP POP JUMPDEST PUSH2 0xEEC DUP6 DUP6 DUP6 PUSH2 0x2F41 JUMP JUMPDEST PUSH1 0x0 DUP3 DUP2 MSTORE PUSH1 0x1 PUSH1 0x20 MSTORE PUSH1 0x2 DUP2 PUSH1 0x40 DUP2 KECCAK256 PUSH2 0x171F PUSH2 0x329B JUMP JUMPDEST DUP2 MSTORE PUSH1 0x20 ADD SWAP1 DUP2 MSTORE PUSH1 0x20 ADD PUSH1 0x0 KECCAK256 PUSH1 0x0 DUP4 DUP2 MSTORE PUSH1 0x20 SWAP2 SWAP1 SWAP2 MSTORE PUSH1 0x40 SWAP1 KECCAK256 PUSH2 0x1744 PUSH2 0x329B JUMP JUMPDEST SWAP4 SWAP3 POP POP POP JUMP JUMPDEST DUP2 PUSH1 0x0 DUP1 DUP1 PUSH2 0x1758 PUSH2 0x329B JUMP JUMPDEST SWAP1 PUSH2 0x100 EXP SWAP1 DIV PUSH1 0x1 PUSH1 0x1 PUSH1 0xA0 SHL SUB AND PUSH1 0x1 PUSH1 0x1 PUSH1 0xA0 SHL SUB AND PUSH4 0xDACB2D01 DUP4 PUSH1 0x40 MLOAD DUP3 PUSH4 0xFFFFFFFF AND PUSH1 0xE0 SHL DUP2 MSTORE PUSH1 0x4 ADD DUP1 DUP3 DUP2 MSTORE PUSH1 0x20 ADD DUP1 PUSH1 0x20 ADD DUP3 DUP2 SUB DUP3 MSTORE PUSH1 0x28 DUP2 MSTORE PUSH1 0x20 ADD DUP1 PUSH2 0x34DB PUSH1 0x28 SWAP2 CODECOPY PUSH1 0x40 ADD SWAP3 POP POP POP PUSH1 0x20 PUSH1 0x40 MLOAD DUP1 DUP4 SUB DUP2 DUP7 DUP1 PUSH2 0x17C2 PUSH2 0x32FB JUMP JUMPDEST ISZERO DUP1 ISZERO PUSH2 0x17D7 JUMPI PUSH1 0x0 DUP1 PUSH2 0x17D4 PUSH2 0x3230 JUMP JUMPDEST POP POP JUMPDEST POP GAS PUSH2 0x17E1 PUSH2 0x3347 JUMP JUMPDEST POP POP POP POP POP ISZERO DUP1 ISZERO PUSH2 0x1800 JUMPI RETURNDATASIZE PUSH1 0x0 DUP1 RETURNDATACOPY RETURNDATASIZE PUSH1 0x0 PUSH2 0x17FD PUSH2 0x3230 JUMP JUMPDEST POP POP JUMPDEST POP POP POP POP PUSH1 0x40 MLOAD RETURNDATASIZE PUSH1 0x20 DUP2 LT ISZERO PUSH2 0x181F JUMPI PUSH1 0x0 DUP1 PUSH2 0x181C PUSH2 0x3230 JUMP JUMPDEST POP POP JUMPDEST DUP2 ADD SWAP1 DUP1 DUP1 MLOAD SWAP4 POP POP POP POP GAS PUSH2 0x1833 PUSH2 0x3400 JUMP JUMPDEST PUSH1 0x1 PUSH1 0x1 PUSH1 0xA0 SHL SUB AND DUP2 PUSH1 0x1 PUSH1 0x1 PUSH1 0xA0 SHL SUB AND EQ PUSH2 0x188B JUMPI PUSH1 0x40 MLOAD PUSH3 0x461BCD PUSH1 0xE5 SHL DUP2 MSTORE PUSH1 0x4 ADD DUP1 DUP1 PUSH1 0x20 ADD DUP3 DUP2 SUB DUP3 MSTORE PUSH1 0x2E DUP2 MSTORE PUSH1 0x20 ADD DUP1 PUSH2 0x3503 PUSH1 0x2E SWAP2 CODECOPY PUSH1 0x40 ADD SWAP2 POP POP PUSH1 0x40 MLOAD DUP1 SWAP2 SUB SWAP1 PUSH2 0x1888 PUSH2 0x3230 JUMP JUMPDEST POP POP JUMPDEST PUSH1 0x0 DUP5 DUP2 MSTORE PUSH1 0x1 PUSH1 0x20 MSTORE PUSH1 0x6 DUP2 PUSH1 0x40 DUP2 KECCAK256 PUSH2 0x18A4 PUSH2 0x329B JUMP JUMPDEST DUP2 MSTORE PUSH1 0x20 ADD SWAP1 DUP2 MSTORE PUSH1 0x20 ADD PUSH1 0x0 KECCAK256 PUSH1 0x0 DUP6 DUP2 MSTORE PUSH1 0x20 SWAP2 SWAP1 SWAP2 MSTORE PUSH1 0x40 SWAP1 KECCAK256 PUSH2 0x18C9 PUSH2 0x329B JUMP JUMPDEST SWAP1 POP PUSH32 0x1F751825A531BF2A176E42D5CB792BB7228163CF53E36B033509CCBE869CFD93 DUP6 DUP6 DUP4 PUSH1 0x40 MLOAD DUP1 DUP5 DUP2 MSTORE PUSH1 0x20 ADD DUP4 DUP2 MSTORE PUSH1 0x20 ADD DUP3 DUP2 MSTORE PUSH1 0x20 ADD SWAP4 POP POP POP POP PUSH1 0x40 MLOAD DUP1 SWAP2 SUB SWAP1 LOG1 PUSH1 0x0 DUP6 DUP2 MSTORE PUSH1 0x1 PUSH1 0x20 MSTORE PUSH1 0x6 SWAP1 PUSH1 0x40 DUP2 KECCAK256 PUSH2 0x1593 PUSH2 0x329B JUMP JUMPDEST DUP5 PUSH1 0x0 DUP1 DUP1 PUSH2 0x1938 PUSH2 0x329B JUMP JUMPDEST SWAP1 PUSH2 0x100 EXP SWAP1 DIV PUSH1 0x1 PUSH1 0x1 PUSH1 0xA0 SHL SUB AND PUSH1 0x1 PUSH1 0x1 PUSH1 0xA0 SHL SUB AND PUSH4 0xDACB2D01 DUP4 PUSH1 0x40 MLOAD DUP3 PUSH4 0xFFFFFFFF AND PUSH1 0xE0 SHL DUP2 MSTORE PUSH1 0x4 ADD DUP1 DUP3 DUP2 MSTORE PUSH1 0x20 ADD DUP1 PUSH1 0x20 ADD DUP3 DUP2 SUB DUP3 MSTORE PUSH1 0x28 DUP2 MSTORE PUSH1 0x20 ADD DUP1 PUSH2 0x34DB PUSH1 0x28 SWAP2 CODECOPY PUSH1 0x40 ADD SWAP3 POP POP POP PUSH1 0x20 PUSH1 0x40 MLOAD DUP1 DUP4 SUB DUP2 DUP7 DUP1 PUSH2 0x19A2 PUSH2 0x32FB JUMP JUMPDEST ISZERO DUP1 ISZERO PUSH2 0x19B7 JUMPI PUSH1 0x0 DUP1 PUSH2 0x19B4 PUSH2 0x3230 JUMP JUMPDEST POP POP JUMPDEST POP GAS PUSH2 0x19C1 PUSH2 0x3347 JUMP JUMPDEST POP POP POP POP POP ISZERO DUP1 ISZERO PUSH2 0x19E0 JUMPI RETURNDATASIZE PUSH1 0x0 DUP1 RETURNDATACOPY RETURNDATASIZE PUSH1 0x0 PUSH2 0x19DD PUSH2 0x3230 JUMP JUMPDEST POP POP JUMPDEST POP POP POP POP PUSH1 0x40 MLOAD RETURNDATASIZE PUSH1 0x20 DUP2 LT ISZERO PUSH2 0x19FF JUMPI PUSH1 0x0 DUP1 PUSH2 0x19FC PUSH2 0x3230 JUMP JUMPDEST POP POP JUMPDEST DUP2 ADD SWAP1 DUP1 DUP1 MLOAD SWAP4 POP POP POP POP GAS PUSH2 0x1A13 PUSH2 0x3400 JUMP JUMPDEST PUSH1 0x1 PUSH1 0x1 PUSH1 0xA0 SHL SUB AND DUP2 PUSH1 0x1 PUSH1 0x1 PUSH1 0xA0 SHL SUB AND EQ PUSH2 0x1A6B JUMPI PUSH1 0x40 MLOAD PUSH3 0x461BCD PUSH1 0xE5 SHL DUP2 MSTORE PUSH1 0x4 ADD DUP1 DUP1 PUSH1 0x20 ADD DUP3 DUP2 SUB DUP3 MSTORE PUSH1 0x2E DUP2 MSTORE PUSH1 0x20 ADD DUP1 PUSH2 0x3503 PUSH1 0x2E SWAP2 CODECOPY PUSH1 0x40 ADD SWAP2 POP POP PUSH1 0x40 MLOAD DUP1 SWAP2 SUB SWAP1 PUSH2 0x1A68 PUSH2 0x3230 JUMP JUMPDEST POP POP JUMPDEST DUP5 DUP4 EQ PUSH2 0x1AB5 JUMPI PUSH1 0x40 MLOAD PUSH3 0x461BCD PUSH1 0xE5 SHL DUP2 MSTORE PUSH1 0x20 PUSH1 0x4 DUP3 ADD MSTORE PUSH1 0x18 PUSH1 0x24 DUP3 ADD MSTORE PUSH1 0x0 DUP1 MLOAD PUSH1 0x20 PUSH2 0x3531 DUP4 CODECOPY DUP2 MLOAD SWAP2 MSTORE PUSH1 0x44 DUP3 ADD MSTORE PUSH1 0x64 ADD PUSH1 0x40 MLOAD DUP1 SWAP2 SUB SWAP1 PUSH2 0x1AB2 PUSH2 0x3230 JUMP JUMPDEST POP POP JUMPDEST PUSH1 0x0 JUMPDEST DUP6 DUP2 LT ISZERO PUSH2 0x10BF JUMPI PUSH2 0x1AF8 DUP9 DUP9 DUP9 DUP5 DUP2 DUP2 LT PUSH2 0x1AD0 JUMPI INVALID JUMPDEST SWAP1 POP PUSH1 0x20 MUL ADD CALLDATALOAD DUP8 DUP8 DUP6 DUP2 DUP2 LT PUSH2 0x1AE3 JUMPI INVALID JUMPDEST SWAP1 POP PUSH1 0x20 MUL ADD CALLDATALOAD PUSH1 0x1 PUSH1 0x1 PUSH1 0xA0 SHL SUB AND PUSH2 0x2FC5 JUMP JUMPDEST PUSH1 0x1 ADD PUSH2 0x1AB8 JUMP JUMPDEST DUP3 PUSH1 0x0 DUP1 DUP1 PUSH2 0x1B0D PUSH2 0x329B JUMP JUMPDEST SWAP1 PUSH2 0x100 EXP SWAP1 DIV PUSH1 0x1 PUSH1 0x1 PUSH1 0xA0 SHL SUB AND PUSH1 0x1 PUSH1 0x1 PUSH1 0xA0 SHL SUB AND PUSH4 0xDACB2D01 DUP4 PUSH1 0x40 MLOAD DUP3 PUSH4 0xFFFFFFFF AND PUSH1 0xE0 SHL DUP2 MSTORE PUSH1 0x4 ADD DUP1 DUP3 DUP2 MSTORE PUSH1 0x20 ADD DUP1 PUSH1 0x20 ADD DUP3 DUP2 SUB DUP3 MSTORE PUSH1 0x28 DUP2 MSTORE PUSH1 0x20 ADD DUP1 PUSH2 0x34DB PUSH1 0x28 SWAP2 CODECOPY PUSH1 0x40 ADD SWAP3 POP POP POP PUSH1 0x20 PUSH1 0x40 MLOAD DUP1 DUP4 SUB DUP2 DUP7 DUP1 PUSH2 0x1B77 PUSH2 0x32FB JUMP JUMPDEST ISZERO DUP1 ISZERO PUSH2 0x1B8C JUMPI PUSH1 0x0 DUP1 PUSH2 0x1B89 PUSH2 0x3230 JUMP JUMPDEST POP POP JUMPDEST POP GAS PUSH2 0x1B96 PUSH2 0x3347 JUMP JUMPDEST POP POP POP POP POP ISZERO DUP1 ISZERO PUSH2 0x1BB5 JUMPI RETURNDATASIZE PUSH1 0x0 DUP1 RETURNDATACOPY RETURNDATASIZE PUSH1 0x0 PUSH2 0x1BB2 PUSH2 0x3230 JUMP JUMPDEST POP POP JUMPDEST POP POP POP POP PUSH1 0x40 MLOAD RETURNDATASIZE PUSH1 0x20 DUP2 LT ISZERO PUSH2 0x1BD4 JUMPI PUSH1 0x0 DUP1 PUSH2 0x1BD1 PUSH2 0x3230 JUMP JUMPDEST POP POP JUMPDEST DUP2 ADD SWAP1 DUP1 DUP1 MLOAD SWAP4 POP POP POP POP GAS PUSH2 0x1BE8 PUSH2 0x3400 JUMP JUMPDEST PUSH1 0x1 PUSH1 0x1 PUSH1 0xA0 SHL SUB AND DUP2 PUSH1 0x1 PUSH1 0x1 PUSH1 0xA0 SHL SUB AND EQ PUSH2 0x1C40 JUMPI PUSH1 0x40 MLOAD PUSH3 0x461BCD PUSH1 0xE5 SHL DUP2 MSTORE PUSH1 0x4 ADD DUP1 DUP1 PUSH1 0x20 ADD DUP3 DUP2 SUB DUP3 MSTORE PUSH1 0x2E DUP2 MSTORE PUSH1 0x20 ADD DUP1 PUSH2 0x3503 PUSH1 0x2E SWAP2 CODECOPY PUSH1 0x40 ADD SWAP2 POP POP PUSH1 0x40 MLOAD DUP1 SWAP2 SUB SWAP1 PUSH2 0x1C3D PUSH2 0x3230 JUMP JUMPDEST POP POP JUMPDEST PUSH2 0xEEC DUP6 DUP6 DUP6 PUSH2 0x3075 JUMP JUMPDEST DUP3 PUSH1 0x0 DUP1 DUP1 PUSH2 0x1C58 PUSH2 0x329B JUMP JUMPDEST SWAP1 PUSH2 0x100 EXP SWAP1 DIV PUSH1 0x1 PUSH1 0x1 PUSH1 0xA0 SHL SUB AND PUSH1 0x1 PUSH1 0x1 PUSH1 0xA0 SHL SUB AND PUSH4 0xDACB2D01 DUP4 PUSH1 0x40 MLOAD DUP3 PUSH4 0xFFFFFFFF AND PUSH1 0xE0 SHL DUP2 MSTORE PUSH1 0x4 ADD DUP1 DUP3 DUP2 MSTORE PUSH1 0x20 ADD DUP1 PUSH1 0x20 ADD DUP3 DUP2 SUB DUP3 MSTORE PUSH1 0x28 DUP2 MSTORE PUSH1 0x20 ADD DUP1 PUSH2 0x34DB PUSH1 0x28 SWAP2 CODECOPY PUSH1 0x40 ADD SWAP3 POP POP POP PUSH1 0x20 PUSH1 0x40 MLOAD DUP1 DUP4 SUB DUP2 DUP7 DUP1 PUSH2 0x1CC2 PUSH2 0x32FB JUMP JUMPDEST ISZERO DUP1 ISZERO PUSH2 0x1CD7 JUMPI PUSH1 0x0 DUP1 PUSH2 0x1CD4 PUSH2 0x3230 JUMP JUMPDEST POP POP JUMPDEST POP GAS PUSH2 0x1CE1 PUSH2 0x3347 JUMP JUMPDEST POP POP POP POP POP ISZERO DUP1 ISZERO PUSH2 0x1D00 JUMPI RETURNDATASIZE PUSH1 0x0 DUP1 RETURNDATACOPY RETURNDATASIZE PUSH1 0x0 PUSH2 0x1CFD PUSH2 0x3230 JUMP JUMPDEST POP POP JUMPDEST POP POP POP POP PUSH1 0x40 MLOAD RETURNDATASIZE PUSH1 0x20 DUP2 LT ISZERO PUSH2 0x1D1F JUMPI PUSH1 0x0 DUP1 PUSH2 0x1D1C PUSH2 0x3230 JUMP JUMPDEST POP POP JUMPDEST DUP2 ADD SWAP1 DUP1 DUP1 MLOAD SWAP4 POP POP POP POP GAS PUSH2 0x1D33 PUSH2 0x3400 JUMP JUMPDEST PUSH1 0x1 PUSH1 0x1 PUSH1 0xA0 SHL SUB AND DUP2 PUSH1 0x1 PUSH1 0x1 PUSH1 0xA0 SHL SUB AND EQ PUSH2 0x1D8B JUMPI PUSH1 0x40 MLOAD PUSH3 0x461BCD PUSH1 0xE5 SHL DUP2 MSTORE PUSH1 0x4 ADD DUP1 DUP1 PUSH1 0x20 ADD DUP3 DUP2 SUB DUP3 MSTORE PUSH1 0x2E DUP2 MSTORE PUSH1 0x20 ADD DUP1 PUSH2 0x3503 PUSH1 0x2E SWAP2 CODECOPY PUSH1 0x40 ADD SWAP2 POP POP PUSH1 0x40 MLOAD DUP1 SWAP2 SUB SWAP1 PUSH2 0x1D88 PUSH2 0x3230 JUMP JUMPDEST POP POP JUMPDEST PUSH2 0xEEC DUP6 DUP6 DUP6 PUSH2 0x2FC5 JUMP JUMPDEST DUP3 PUSH1 0x0 DUP1 DUP1 PUSH2 0x1DA3 PUSH2 0x329B JUMP JUMPDEST SWAP1 PUSH2 0x100 EXP SWAP1 DIV PUSH1 0x1 PUSH1 0x1 PUSH1 0xA0 SHL SUB AND PUSH1 0x1 PUSH1 0x1 PUSH1 0xA0 SHL SUB AND PUSH4 0xDACB2D01 DUP4 PUSH1 0x40 MLOAD DUP3 PUSH4 0xFFFFFFFF AND PUSH1 0xE0 SHL DUP2 MSTORE PUSH1 0x4 ADD DUP1 DUP3 DUP2 MSTORE PUSH1 0x20 ADD DUP1 PUSH1 0x20 ADD DUP3 DUP2 SUB DUP3 MSTORE PUSH1 0x28 DUP2 MSTORE PUSH1 0x20 ADD DUP1 PUSH2 0x34DB PUSH1 0x28 SWAP2 CODECOPY PUSH1 0x40 ADD SWAP3 POP POP POP PUSH1 0x20 PUSH1 0x40 MLOAD DUP1 DUP4 SUB DUP2 DUP7 DUP1 PUSH2 0x1E0D PUSH2 0x32FB JUMP JUMPDEST ISZERO DUP1 ISZERO PUSH2 0x1E22 JUMPI PUSH1 0x0 DUP1 PUSH2 0x1E1F PUSH2 0x3230 JUMP JUMPDEST POP POP JUMPDEST POP GAS PUSH2 0x1E2C PUSH2 0x3347 JUMP JUMPDEST POP POP POP POP POP ISZERO DUP1 ISZERO PUSH2 0x1E4B JUMPI RETURNDATASIZE PUSH1 0x0 DUP1 RETURNDATACOPY RETURNDATASIZE PUSH1 0x0 PUSH2 0x1E48 PUSH2 0x3230 JUMP JUMPDEST POP POP JUMPDEST POP POP POP POP PUSH1 0x40 MLOAD RETURNDATASIZE PUSH1 0x20 DUP2 LT ISZERO PUSH2 0x1E6A JUMPI PUSH1 0x0 DUP1 PUSH2 0x1E67 PUSH2 0x3230 JUMP JUMPDEST POP POP JUMPDEST DUP2 ADD SWAP1 DUP1 DUP1 MLOAD SWAP4 POP POP POP POP GAS PUSH2 0x1E7E PUSH2 0x3400 JUMP JUMPDEST PUSH1 0x1 PUSH1 0x1 PUSH1 0xA0 SHL SUB AND DUP2 PUSH1 0x1 PUSH1 0x1 PUSH1 0xA0 SHL SUB AND EQ PUSH2 0x1ED6 JUMPI PUSH1 0x40 MLOAD PUSH3 0x461BCD PUSH1 0xE5 SHL DUP2 MSTORE PUSH1 0x4 ADD DUP1 DUP1 PUSH1 0x20 ADD DUP3 DUP2 SUB DUP3 MSTORE PUSH1 0x2E DUP2 MSTORE PUSH1 0x20 ADD DUP1 PUSH2 0x3503 PUSH1 0x2E SWAP2 CODECOPY PUSH1 0x40 ADD SWAP2 POP POP PUSH1 0x40 MLOAD DUP1 SWAP2 SUB SWAP1 PUSH2 0x1ED3 PUSH2 0x3230 JUMP JUMPDEST POP POP JUMPDEST PUSH1 0x0 DUP6 DUP2 MSTORE PUSH1 0x1 PUSH1 0x20 MSTORE PUSH1 0x40 DUP2 KECCAK256 PUSH2 0x1EEC PUSH2 0x329B JUMP JUMPDEST EQ ISZERO PUSH2 0x1F47 JUMPI PUSH1 0x40 MLOAD PUSH3 0x461BCD PUSH1 0xE5 SHL DUP2 MSTORE PUSH1 0x20 PUSH1 0x4 DUP3 ADD MSTORE PUSH1 0x1D PUSH1 0x24 DUP3 ADD MSTORE PUSH32 0x43616E6E6F74206D69677261746520656D70747920636F6E7472616374000000 PUSH1 0x44 DUP3 ADD MSTORE PUSH1 0x64 ADD PUSH1 0x40 MLOAD DUP1 SWAP2 SUB SWAP1 PUSH2 0x1F44 PUSH2 0x3230 JUMP JUMPDEST POP POP JUMPDEST PUSH1 0x0 DUP6 DUP2 MSTORE PUSH1 0x1 PUSH1 0x20 MSTORE PUSH1 0x40 SWAP1 KECCAK256 PUSH2 0x1F5D PUSH2 0x329B JUMP JUMPDEST PUSH1 0x0 DUP6 DUP2 MSTORE PUSH1 0x1 PUSH1 0x20 MSTORE PUSH1 0x40 SWAP1 KECCAK256 DUP2 SWAP1 PUSH2 0x1F75 PUSH2 0x3446 JUMP JUMPDEST POP POP POP DUP3 ISZERO PUSH2 0x1F9A JUMPI PUSH1 0x0 DUP6 DUP2 MSTORE PUSH1 0x1 PUSH1 0x20 MSTORE PUSH1 0x40 SWAP1 KECCAK256 PUSH1 0x0 SWAP1 PUSH2 0x1F97 PUSH2 0x3446 JUMP JUMPDEST POP POP JUMPDEST PUSH32 0xA3DB9C909DAA141B61562C797DAE4DC4B3D7751686068C98111DB87B2A8C374C DUP6 DUP6 DUP6 PUSH1 0x40 MLOAD SWAP3 DUP4 MSTORE PUSH1 0x20 DUP4 ADD SWAP2 SWAP1 SWAP2 MSTORE ISZERO ISZERO PUSH1 0x40 DUP1 DUP4 ADD SWAP2 SWAP1 SWAP2 MSTORE PUSH1 0x60 SWAP1 SWAP2 ADD SWAP1 MLOAD DUP1 SWAP2 SUB SWAP1 LOG1 POP POP POP POP POP JUMP JUMPDEST PUSH1 0x0 DUP1 PUSH2 0x1FF5 PUSH2 0x329B JUMP JUMPDEST SWAP1 PUSH2 0x100 EXP SWAP1 DIV PUSH1 0x1 PUSH1 0x1 PUSH1 0xA0 SHL SUB AND DUP2 JUMP JUMPDEST PUSH1 0x60 DUP1 DUP3 PUSH1 0x40 MLOAD SWAP1 DUP1 DUP3 MSTORE DUP1 PUSH1 0x20 MUL PUSH1 0x20 ADD DUP3 ADD PUSH1 0x40 MSTORE DUP1 ISZERO PUSH2 0x2035 JUMPI DUP2 PUSH1 0x20 ADD PUSH1 0x20 DUP3 MUL DUP1 CODESIZE DUP4 CODECOPY ADD SWAP1 POP JUMPDEST POP PUSH1 0x0 DUP7 DUP2 MSTORE PUSH1 0x1 PUSH1 0x20 MSTORE SWAP1 SWAP2 POP PUSH1 0x6 DUP2 PUSH1 0x40 DUP2 KECCAK256 PUSH2 0x2052 PUSH2 0x329B JUMP JUMPDEST DUP2 MSTORE PUSH1 0x20 ADD SWAP1 DUP2 MSTORE PUSH1 0x20 ADD PUSH1 0x0 KECCAK256 SWAP1 POP PUSH1 0x0 JUMPDEST DUP5 DUP2 LT ISZERO PUSH2 0x1179 JUMPI DUP2 PUSH1 0x0 DUP8 DUP8 DUP5 DUP2 DUP2 LT PUSH2 0x207C JUMPI INVALID JUMPDEST SWAP1 POP PUSH1 0x20 MUL ADD CALLDATALOAD DUP2 MSTORE PUSH1 0x20 ADD SWAP1 DUP2 MSTORE PUSH1 0x20 ADD PUSH1 0x0 KECCAK256 PUSH2 0x2099 PUSH2 0x329B JUMP JUMPDEST DUP4 DUP3 DUP2 MLOAD DUP2 LT PUSH2 0x20A5 JUMPI INVALID JUMPDEST PUSH1 0x20 SWAP1 DUP2 MUL SWAP2 SWAP1 SWAP2 ADD ADD MSTORE PUSH1 0x1 ADD PUSH2 0x2065 JUMP JUMPDEST PUSH1 0x60 DUP1 DUP3 PUSH1 0x40 MLOAD SWAP1 DUP1 DUP3 MSTORE DUP1 PUSH1 0x20 MUL PUSH1 0x20 ADD DUP3 ADD PUSH1 0x40 MSTORE DUP1 ISZERO PUSH2 0x20E5 JUMPI DUP2 PUSH1 0x20 ADD PUSH1 0x20 DUP3 MUL DUP1 CODESIZE DUP4 CODECOPY ADD SWAP1 POP JUMPDEST POP PUSH1 0x0 DUP7 DUP2 MSTORE PUSH1 0x1 PUSH1 0x20 MSTORE SWAP1 SWAP2 POP PUSH1 0x4 DUP2 PUSH1 0x40 DUP2 KECCAK256 PUSH2 0x2102 PUSH2 0x329B JUMP JUMPDEST DUP2 MSTORE PUSH1 0x20 ADD SWAP1 DUP2 MSTORE PUSH1 0x20 ADD PUSH1 0x0 KECCAK256 SWAP1 POP PUSH1 0x0 JUMPDEST DUP5 DUP2 LT ISZERO PUSH2 0x1179 JUMPI DUP2 PUSH1 0x0 DUP8 DUP8 DUP5 DUP2 DUP2 LT PUSH2 0x212C JUMPI INVALID JUMPDEST SWAP1 POP PUSH1 0x20 MUL ADD CALLDATALOAD DUP2 MSTORE PUSH1 0x20 ADD SWAP1 DUP2 MSTORE PUSH1 0x20 ADD PUSH1 0x0 KECCAK256 PUSH1 0x0 SWAP1 PUSH2 0x214C PUSH2 0x329B JUMP JUMPDEST SWAP1 PUSH2 0x100 EXP SWAP1 DIV PUSH1 0x1 PUSH1 0x1 PUSH1 0xA0 SHL SUB AND DUP4 DUP3 DUP2 MLOAD DUP2 LT PUSH2 0x2168 JUMPI INVALID JUMPDEST PUSH1 0x1 PUSH1 0x1 PUSH1 0xA0 SHL SUB SWAP1 SWAP3 AND PUSH1 0x20 SWAP3 DUP4 MUL SWAP2 SWAP1 SWAP2 ADD SWAP1 SWAP2 ADD MSTORE PUSH1 0x1 ADD PUSH2 0x2115 JUMP JUMPDEST DUP2 PUSH1 0x0 DUP1 DUP1 PUSH2 0x2195 PUSH2 0x329B JUMP JUMPDEST SWAP1 PUSH2 0x100 EXP SWAP1 DIV PUSH1 0x1 PUSH1 0x1 PUSH1 0xA0 SHL SUB AND PUSH1 0x1 PUSH1 0x1 PUSH1 0xA0 SHL SUB AND PUSH4 0xDACB2D01 DUP4 PUSH1 0x40 MLOAD DUP3 PUSH4 0xFFFFFFFF AND PUSH1 0xE0 SHL DUP2 MSTORE PUSH1 0x4 ADD DUP1 DUP3 DUP2 MSTORE PUSH1 0x20 ADD DUP1 PUSH1 0x20 ADD DUP3 DUP2 SUB DUP3 MSTORE PUSH1 0x28 DUP2 MSTORE PUSH1 0x20 ADD DUP1 PUSH2 0x34DB PUSH1 0x28 SWAP2 CODECOPY PUSH1 0x40 ADD SWAP3 POP POP POP PUSH1 0x20 PUSH1 0x40 MLOAD DUP1 DUP4 SUB DUP2 DUP7 DUP1 PUSH2 0x21FF PUSH2 0x32FB JUMP JUMPDEST ISZERO DUP1 ISZERO PUSH2 0x2214 JUMPI PUSH1 0x0 DUP1 PUSH2 0x2211 PUSH2 0x3230 JUMP JUMPDEST POP POP JUMPDEST POP GAS PUSH2 0x221E PUSH2 0x3347 JUMP JUMPDEST POP POP POP POP POP ISZERO DUP1 ISZERO PUSH2 0x223D JUMPI RETURNDATASIZE PUSH1 0x0 DUP1 RETURNDATACOPY RETURNDATASIZE PUSH1 0x0 PUSH2 0x223A PUSH2 0x3230 JUMP JUMPDEST POP POP JUMPDEST POP POP POP POP PUSH1 0x40 MLOAD RETURNDATASIZE PUSH1 0x20 DUP2 LT ISZERO PUSH2 0x225C JUMPI PUSH1 0x0 DUP1 PUSH2 0x2259 PUSH2 0x3230 JUMP JUMPDEST POP POP JUMPDEST DUP2 ADD SWAP1 DUP1 DUP1 MLOAD SWAP4 POP POP POP POP GAS PUSH2 0x2270 PUSH2 0x3400 JUMP JUMPDEST PUSH1 0x1 PUSH1 0x1 PUSH1 0xA0 SHL SUB AND DUP2 PUSH1 0x1 PUSH1 0x1 PUSH1 0xA0 SHL SUB AND EQ PUSH2 0x22C8 JUMPI PUSH1 0x40 MLOAD PUSH3 0x461BCD PUSH1 0xE5 SHL DUP2 MSTORE PUSH1 0x4 ADD DUP1 DUP1 PUSH1 0x20 ADD DUP3 DUP2 SUB DUP3 MSTORE PUSH1 0x2E DUP2 MSTORE PUSH1 0x20 ADD DUP1 PUSH2 0x3503 PUSH1 0x2E SWAP2 CODECOPY PUSH1 0x40 ADD SWAP2 POP POP PUSH1 0x40 MLOAD DUP1 SWAP2 SUB SWAP1 PUSH2 0x22C5 PUSH2 0x3230 JUMP JUMPDEST POP POP JUMPDEST PUSH1 0x0 DUP5 DUP2 MSTORE PUSH1 0x1 PUSH1 0x20 MSTORE PUSH1 0x4 DUP2 PUSH1 0x40 DUP2 KECCAK256 PUSH2 0x22E1 PUSH2 0x329B JUMP JUMPDEST DUP2 MSTORE PUSH1 0x20 ADD SWAP1 DUP2 MSTORE PUSH1 0x20 ADD PUSH1 0x0 KECCAK256 PUSH1 0x0 DUP6 DUP2 MSTORE PUSH1 0x20 SWAP2 SWAP1 SWAP2 MSTORE PUSH1 0x40 SWAP1 KECCAK256 PUSH1 0x0 SWAP1 PUSH2 0x2309 PUSH2 0x329B JUMP JUMPDEST SWAP1 PUSH2 0x100 EXP SWAP1 DIV PUSH1 0x1 PUSH1 0x1 PUSH1 0xA0 SHL SUB AND SWAP1 POP PUSH32 0xEC1140277B8F20820DC76B92216489238A207D5F22C964099303820FBD2BDF66 DUP6 DUP6 DUP4 PUSH1 0x40 MLOAD SWAP3 DUP4 MSTORE PUSH1 0x20 DUP4 ADD SWAP2 SWAP1 SWAP2 MSTORE PUSH1 0x1 PUSH1 0x1 PUSH1 0xA0 SHL SUB AND PUSH1 0x40 DUP1 DUP4 ADD SWAP2 SWAP1 SWAP2 MSTORE PUSH1 0x60 SWAP1 SWAP2 ADD SWAP1 MLOAD DUP1 SWAP2 SUB SWAP1 LOG1 PUSH1 0x0 DUP6 DUP2 MSTORE PUSH1 0x1 PUSH1 0x20 MSTORE PUSH1 0x4 SWAP1 PUSH1 0x40 DUP2 KECCAK256 PUSH2 0x2384 PUSH2 0x329B JUMP JUMPDEST DUP2 MSTORE PUSH1 0x20 ADD SWAP1 DUP2 MSTORE PUSH1 0x20 ADD PUSH1 0x0 KECCAK256 PUSH1 0x0 DUP6 DUP2 MSTORE PUSH1 0x20 SWAP2 SWAP1 SWAP2 MSTORE PUSH1 0x40 SWAP1 KECCAK256 PUSH1 0x1 DUP2 PUSH2 0x23AC PUSH2 0x329B JUMP JUMPDEST SWAP1 PUSH1 0x1 PUSH1 0x1 PUSH1 0xA0 SHL SUB MUL NOT AND SWAP1 PUSH2 0x13AA PUSH2 0x3446 JUMP JUMPDEST PUSH1 0x0 DUP3 DUP2 MSTORE PUSH1 0x1 PUSH1 0x20 MSTORE PUSH1 0x4 DUP2 PUSH1 0x40 DUP2 KECCAK256 PUSH2 0x23DA PUSH2 0x329B JUMP JUMPDEST DUP2 MSTORE PUSH1 0x20 ADD SWAP1 DUP2 MSTORE PUSH1 0x20 ADD PUSH1 0x0 KECCAK256 PUSH1 0x0 DUP4 DUP2 MSTORE PUSH1 0x20 SWAP2 SWAP1 SWAP2 MSTORE PUSH1 0x40 SWAP1 KECCAK256 PUSH1 0x0 SWAP1 PUSH2 0x2402 PUSH2 0x329B JUMP JUMPDEST SWAP1 PUSH2 0x100 EXP SWAP1 DIV PUSH1 0x1 PUSH1 0x1 PUSH1 0xA0 SHL SUB AND SWAP1 POP SWAP3 SWAP2 POP POP JUMP JUMPDEST DUP5 PUSH1 0x0 DUP1 DUP1 PUSH2 0x2427 PUSH2 0x329B JUMP JUMPDEST SWAP1 PUSH2 0x100 EXP SWAP1 DIV PUSH1 0x1 PUSH1 0x1 PUSH1 0xA0 SHL SUB AND PUSH1 0x1 PUSH1 0x1 PUSH1 0xA0 SHL SUB AND PUSH4 0xDACB2D01 DUP4 PUSH1 0x40 MLOAD DUP3 PUSH4 0xFFFFFFFF AND PUSH1 0xE0 SHL DUP2 MSTORE PUSH1 0x4 ADD DUP1 DUP3 DUP2 MSTORE PUSH1 0x20 ADD DUP1 PUSH1 0x20 ADD DUP3 DUP2 SUB DUP3 MSTORE PUSH1 0x28 DUP2 MSTORE PUSH1 0x20 ADD DUP1 PUSH2 0x34DB PUSH1 0x28 SWAP2 CODECOPY PUSH1 0x40 ADD SWAP3 POP POP POP PUSH1 0x20 PUSH1 0x40 MLOAD DUP1 DUP4 SUB DUP2 DUP7 DUP1 PUSH2 0x2491 PUSH2 0x32FB JUMP JUMPDEST ISZERO DUP1 ISZERO PUSH2 0x24A6 JUMPI PUSH1 0x0 DUP1 PUSH2 0x24A3 PUSH2 0x3230 JUMP JUMPDEST POP POP JUMPDEST POP GAS PUSH2 0x24B0 PUSH2 0x3347 JUMP JUMPDEST POP POP POP POP POP ISZERO DUP1 ISZERO PUSH2 0x24CF JUMPI RETURNDATASIZE PUSH1 0x0 DUP1 RETURNDATACOPY RETURNDATASIZE PUSH1 0x0 PUSH2 0x24CC PUSH2 0x3230 JUMP JUMPDEST POP POP JUMPDEST POP POP POP POP PUSH1 0x40 MLOAD RETURNDATASIZE PUSH1 0x20 DUP2 LT ISZERO PUSH2 0x24EE JUMPI PUSH1 0x0 DUP1 PUSH2 0x24EB PUSH2 0x3230 JUMP JUMPDEST POP POP JUMPDEST DUP2 ADD SWAP1 DUP1 DUP1 MLOAD SWAP4 POP POP POP POP GAS PUSH2 0x2502 PUSH2 0x3400 JUMP JUMPDEST PUSH1 0x1 PUSH1 0x1 PUSH1 0xA0 SHL SUB AND DUP2 PUSH1 0x1 PUSH1 0x1 PUSH1 0xA0 SHL SUB AND EQ PUSH2 0x255A JUMPI PUSH1 0x40 MLOAD PUSH3 0x461BCD PUSH1 0xE5 SHL DUP2 MSTORE PUSH1 0x4 ADD DUP1 DUP1 PUSH1 0x20 ADD DUP3 DUP2 SUB DUP3 MSTORE PUSH1 0x2E DUP2 MSTORE PUSH1 0x20 ADD DUP1 PUSH2 0x3503 PUSH1 0x2E SWAP2 CODECOPY PUSH1 0x40 ADD SWAP2 POP POP PUSH1 0x40 MLOAD DUP1 SWAP2 SUB SWAP1 PUSH2 0x2557 PUSH2 0x3230 JUMP JUMPDEST POP POP JUMPDEST DUP5 DUP4 EQ PUSH2 0x25A4 JUMPI PUSH1 0x40 MLOAD PUSH3 0x461BCD PUSH1 0xE5 SHL DUP2 MSTORE PUSH1 0x20 PUSH1 0x4 DUP3 ADD MSTORE PUSH1 0x18 PUSH1 0x24 DUP3 ADD MSTORE PUSH1 0x0 DUP1 MLOAD PUSH1 0x20 PUSH2 0x3531 DUP4 CODECOPY DUP2 MLOAD SWAP2 MSTORE PUSH1 0x44 DUP3 ADD MSTORE PUSH1 0x64 ADD PUSH1 0x40 MLOAD DUP1 SWAP2 SUB SWAP1 PUSH2 0x25A1 PUSH2 0x3230 JUMP JUMPDEST POP POP JUMPDEST PUSH1 0x0 JUMPDEST DUP6 DUP2 LT ISZERO PUSH2 0x10BF JUMPI PUSH2 0x25DE DUP9 DUP9 DUP9 DUP5 DUP2 DUP2 LT PUSH2 0x25BF JUMPI INVALID JUMPDEST SWAP1 POP PUSH1 0x20 MUL ADD CALLDATALOAD DUP8 DUP8 DUP6 DUP2 DUP2 LT PUSH2 0x25D2 JUMPI INVALID JUMPDEST SWAP1 POP PUSH1 0x20 MUL ADD CALLDATALOAD PUSH2 0x3111 JUMP JUMPDEST PUSH1 0x1 ADD PUSH2 0x25A7 JUMP JUMPDEST PUSH1 0x60 DUP1 DUP3 PUSH1 0x40 MLOAD SWAP1 DUP1 DUP3 MSTORE DUP1 PUSH1 0x20 MUL PUSH1 0x20 ADD DUP3 ADD PUSH1 0x40 MSTORE DUP1 ISZERO PUSH2 0x2613 JUMPI DUP2 PUSH1 0x20 ADD PUSH1 0x20 DUP3 MUL DUP1 CODESIZE DUP4 CODECOPY ADD SWAP1 POP JUMPDEST POP PUSH1 0x0 DUP7 DUP2 MSTORE PUSH1 0x1 PUSH1 0x20 MSTORE SWAP1 SWAP2 POP PUSH1 0x2 DUP2 PUSH1 0x40 DUP2 KECCAK256 PUSH2 0x2630 PUSH2 0x329B JUMP JUMPDEST DUP2 MSTORE PUSH1 0x20 ADD SWAP1 DUP2 MSTORE PUSH1 0x20 ADD PUSH1 0x0 KECCAK256 SWAP1 POP PUSH1 0x0 JUMPDEST DUP5 DUP2 LT ISZERO PUSH2 0x1179 JUMPI DUP2 PUSH1 0x0 DUP8 DUP8 DUP5 DUP2 DUP2 LT PUSH2 0x265A JUMPI INVALID JUMPDEST SWAP1 POP PUSH1 0x20 MUL ADD CALLDATALOAD DUP2 MSTORE PUSH1 0x20 ADD SWAP1 DUP2 MSTORE PUSH1 0x20 ADD PUSH1 0x0 KECCAK256 PUSH2 0x2677 PUSH2 0x329B JUMP JUMPDEST DUP4 DUP3 DUP2 MLOAD DUP2 LT PUSH2 0x2683 JUMPI INVALID JUMPDEST PUSH1 0x20 SWAP1 DUP2 MUL SWAP2 SWAP1 SWAP2 ADD ADD MSTORE PUSH1 0x1 ADD PUSH2 0x2643 JUMP JUMPDEST PUSH1 0x60 DUP1 DUP3 PUSH1 0x40 MLOAD SWAP1 DUP1 DUP3 MSTORE DUP1 PUSH1 0x20 MUL PUSH1 0x20 ADD DUP3 ADD PUSH1 0x40 MSTORE DUP1 ISZERO PUSH2 0x26C3 JUMPI DUP2 PUSH1 0x20 ADD PUSH1 0x20 DUP3 MUL DUP1 CODESIZE DUP4 CODECOPY ADD SWAP1 POP JUMPDEST POP PUSH1 0x0 DUP7 DUP2 MSTORE PUSH1 0x1 PUSH1 0x20 MSTORE SWAP1 SWAP2 POP PUSH1 0x5 DUP2 PUSH1 0x40 DUP2 KECCAK256 PUSH2 0x26E0 PUSH2 0x329B JUMP JUMPDEST DUP2 MSTORE PUSH1 0x20 ADD SWAP1 DUP2 MSTORE PUSH1 0x20 ADD PUSH1 0x0 KECCAK256 SWAP1 POP PUSH1 0x0 JUMPDEST DUP5 DUP2 LT ISZERO PUSH2 0x1179 JUMPI DUP2 PUSH1 0x0 DUP8 DUP8 DUP5 DUP2 DUP2 LT PUSH2 0x270A JUMPI INVALID JUMPDEST SWAP1 POP PUSH1 0x20 MUL ADD CALLDATALOAD DUP2 MSTORE PUSH1 0x20 ADD SWAP1 DUP2 MSTORE PUSH1 0x20 ADD PUSH1 0x0 KECCAK256 PUSH1 0x0 SWAP1 PUSH2 0x272A PUSH2 0x329B JUMP JUMPDEST SWAP1 PUSH2 0x100 EXP SWAP1 DIV PUSH1 0xFF AND DUP4 DUP3 DUP2 MLOAD DUP2 LT PUSH2 0x2740 JUMPI INVALID JUMPDEST SWAP2 ISZERO ISZERO PUSH1 0x20 SWAP3 DUP4 MUL SWAP2 SWAP1 SWAP2 ADD SWAP1 SWAP2 ADD MSTORE PUSH1 0x1 ADD PUSH2 0x26F3 JUMP JUMPDEST PUSH1 0x0 DUP3 DUP2 MSTORE PUSH1 0x1 PUSH1 0x20 MSTORE PUSH1 0x3 DUP2 PUSH1 0x40 DUP2 KECCAK256 PUSH2 0x171F PUSH2 0x329B JUMP JUMPDEST DUP5 PUSH1 0x0 DUP1 DUP1 PUSH2 0x277E PUSH2 0x329B JUMP JUMPDEST SWAP1 PUSH2 0x100 EXP SWAP1 DIV PUSH1 0x1 PUSH1 0x1 PUSH1 0xA0 SHL SUB AND PUSH1 0x1 PUSH1 0x1 PUSH1 0xA0 SHL SUB AND PUSH4 0xDACB2D01 DUP4 PUSH1 0x40 MLOAD DUP3 PUSH4 0xFFFFFFFF AND PUSH1 0xE0 SHL DUP2 MSTORE PUSH1 0x4 ADD DUP1 DUP3 DUP2 MSTORE PUSH1 0x20 ADD DUP1 PUSH1 0x20 ADD DUP3 DUP2 SUB DUP3 MSTORE PUSH1 0x28 DUP2 MSTORE PUSH1 0x20 ADD DUP1 PUSH2 0x34DB PUSH1 0x28 SWAP2 CODECOPY PUSH1 0x40 ADD SWAP3 POP POP POP PUSH1 0x20 PUSH1 0x40 MLOAD DUP1 DUP4 SUB DUP2 DUP7 DUP1 PUSH2 0x27E8 PUSH2 0x32FB JUMP JUMPDEST ISZERO DUP1 ISZERO PUSH2 0x27FD JUMPI PUSH1 0x0 DUP1 PUSH2 0x27FA PUSH2 0x3230 JUMP JUMPDEST POP POP JUMPDEST POP GAS PUSH2 0x2807 PUSH2 0x3347 JUMP JUMPDEST POP POP POP POP POP ISZERO DUP1 ISZERO PUSH2 0x2826 JUMPI RETURNDATASIZE PUSH1 0x0 DUP1 RETURNDATACOPY RETURNDATASIZE PUSH1 0x0 PUSH2 0x2823 PUSH2 0x3230 JUMP JUMPDEST POP POP JUMPDEST POP POP POP POP PUSH1 0x40 MLOAD RETURNDATASIZE PUSH1 0x20 DUP2 LT ISZERO PUSH2 0x2845 JUMPI PUSH1 0x0 DUP1 PUSH2 0x2842 PUSH2 0x3230 JUMP JUMPDEST POP POP JUMPDEST DUP2 ADD SWAP1 DUP1 DUP1 MLOAD SWAP4 POP POP POP POP GAS PUSH2 0x2859 PUSH2 0x3400 JUMP JUMPDEST PUSH1 0x1 PUSH1 0x1 PUSH1 0xA0 SHL SUB AND DUP2 PUSH1 0x1 PUSH1 0x1 PUSH1 0xA0 SHL SUB AND EQ PUSH2 0x28B1 JUMPI PUSH1 0x40 MLOAD PUSH3 0x461BCD PUSH1 0xE5 SHL DUP2 MSTORE PUSH1 0x4 ADD DUP1 DUP1 PUSH1 0x20 ADD DUP3 DUP2 SUB DUP3 MSTORE PUSH1 0x2E DUP2 MSTORE PUSH1 0x20 ADD DUP1 PUSH2 0x3503 PUSH1 0x2E SWAP2 CODECOPY PUSH1 0x40 ADD SWAP2 POP POP PUSH1 0x40 MLOAD DUP1 SWAP2 SUB SWAP1 PUSH2 0x28AE PUSH2 0x3230 JUMP JUMPDEST POP POP JUMPDEST DUP5 DUP4 EQ PUSH2 0x28FB JUMPI PUSH1 0x40 MLOAD PUSH3 0x461BCD PUSH1 0xE5 SHL DUP2 MSTORE PUSH1 0x20 PUSH1 0x4 DUP3 ADD MSTORE PUSH1 0x18 PUSH1 0x24 DUP3 ADD MSTORE PUSH1 0x0 DUP1 MLOAD PUSH1 0x20 PUSH2 0x3531 DUP4 CODECOPY DUP2 MLOAD SWAP2 MSTORE PUSH1 0x44 DUP3 ADD MSTORE PUSH1 0x64 ADD PUSH1 0x40 MLOAD DUP1 SWAP2 SUB SWAP1 PUSH2 0x28F8 PUSH2 0x3230 JUMP JUMPDEST POP POP JUMPDEST PUSH1 0x0 JUMPDEST DUP6 DUP2 LT ISZERO PUSH2 0x10BF JUMPI PUSH2 0x2935 DUP9 DUP9 DUP9 DUP5 DUP2 DUP2 LT PUSH2 0x2916 JUMPI INVALID JUMPDEST SWAP1 POP PUSH1 0x20 MUL ADD CALLDATALOAD DUP8 DUP8 DUP6 DUP2 DUP2 LT PUSH2 0x2929 JUMPI INVALID JUMPDEST SWAP1 POP PUSH1 0x20 MUL ADD CALLDATALOAD PUSH2 0x2EBD JUMP JUMPDEST PUSH1 0x1 ADD PUSH2 0x28FE JUMP JUMPDEST PUSH1 0x1 PUSH1 0x20 MSTORE DUP1 PUSH1 0x0 MSTORE PUSH1 0x40 PUSH1 0x0 KECCAK256 SWAP1 POP PUSH2 0x2955 PUSH2 0x329B JUMP JUMPDEST DUP2 JUMP JUMPDEST DUP3 PUSH1 0x0 DUP1 DUP1 PUSH2 0x2965 PUSH2 0x329B JUMP JUMPDEST SWAP1 PUSH2 0x100 EXP SWAP1 DIV PUSH1 0x1 PUSH1 0x1 PUSH1 0xA0 SHL SUB AND PUSH1 0x1 PUSH1 0x1 PUSH1 0xA0 SHL SUB AND PUSH4 0xDACB2D01 DUP4 PUSH1 0x40 MLOAD DUP3 PUSH4 0xFFFFFFFF AND PUSH1 0xE0 SHL DUP2 MSTORE PUSH1 0x4 ADD DUP1 DUP3 DUP2 MSTORE PUSH1 0x20 ADD DUP1 PUSH1 0x20 ADD DUP3 DUP2 SUB DUP3 MSTORE PUSH1 0x28 DUP2 MSTORE PUSH1 0x20 ADD DUP1 PUSH2 0x34DB PUSH1 0x28 SWAP2 CODECOPY PUSH1 0x40 ADD SWAP3 POP POP POP PUSH1 0x20 PUSH1 0x40 MLOAD DUP1 DUP4 SUB DUP2 DUP7 DUP1 PUSH2 0x29CF PUSH2 0x32FB JUMP JUMPDEST ISZERO DUP1 ISZERO PUSH2 0x29E4 JUMPI PUSH1 0x0 DUP1 PUSH2 0x29E1 PUSH2 0x3230 JUMP JUMPDEST POP POP JUMPDEST POP GAS PUSH2 0x29EE PUSH2 0x3347 JUMP JUMPDEST POP POP POP POP POP ISZERO DUP1 ISZERO PUSH2 0x2A0D JUMPI RETURNDATASIZE PUSH1 0x0 DUP1 RETURNDATACOPY RETURNDATASIZE PUSH1 0x0 PUSH2 0x2A0A PUSH2 0x3230 JUMP JUMPDEST POP POP JUMPDEST POP POP POP POP PUSH1 0x40 MLOAD RETURNDATASIZE PUSH1 0x20 DUP2 LT ISZERO PUSH2 0x2A2C JUMPI PUSH1 0x0 DUP1 PUSH2 0x2A29 PUSH2 0x3230 JUMP JUMPDEST POP POP JUMPDEST DUP2 ADD SWAP1 DUP1 DUP1 MLOAD SWAP4 POP POP POP POP GAS PUSH2 0x2A40 PUSH2 0x3400 JUMP JUMPDEST PUSH1 0x1 PUSH1 0x1 PUSH1 0xA0 SHL SUB AND DUP2 PUSH1 0x1 PUSH1 0x1 PUSH1 0xA0 SHL SUB AND EQ PUSH2 0x2A98 JUMPI PUSH1 0x40 MLOAD PUSH3 0x461BCD PUSH1 0xE5 SHL DUP2 MSTORE PUSH1 0x4 ADD DUP1 DUP1 PUSH1 0x20 ADD DUP3 DUP2 SUB DUP3 MSTORE PUSH1 0x2E DUP2 MSTORE PUSH1 0x20 ADD DUP1 PUSH2 0x3503 PUSH1 0x2E SWAP2 CODECOPY PUSH1 0x40 ADD SWAP2 POP POP PUSH1 0x40 MLOAD DUP1 SWAP2 SUB SWAP1 PUSH2 0x2A95 PUSH2 0x3230 JUMP JUMPDEST POP POP JUMPDEST PUSH2 0xEEC DUP6 DUP6 DUP6 PUSH2 0x3111 JUMP JUMPDEST PUSH1 0x0 DUP3 DUP2 MSTORE PUSH1 0x1 PUSH1 0x20 MSTORE PUSH1 0x5 DUP2 PUSH1 0x40 DUP2 KECCAK256 PUSH2 0x2ABC PUSH2 0x329B JUMP JUMPDEST DUP2 MSTORE PUSH1 0x20 ADD SWAP1 DUP2 MSTORE PUSH1 0x20 ADD PUSH1 0x0 KECCAK256 PUSH1 0x0 DUP4 DUP2 MSTORE PUSH1 0x20 SWAP2 SWAP1 SWAP2 MSTORE PUSH1 0x40 SWAP1 KECCAK256 PUSH1 0x0 SWAP1 PUSH2 0x2AE4 PUSH2 0x329B JUMP JUMPDEST SWAP1 PUSH2 0x100 EXP SWAP1 DIV PUSH1 0xFF AND SWAP1 POP SWAP3 SWAP2 POP POP JUMP JUMPDEST PUSH1 0x0 DUP3 DUP2 MSTORE PUSH1 0x1 PUSH1 0x20 MSTORE PUSH1 0x6 DUP2 PUSH1 0x40 DUP2 KECCAK256 PUSH2 0x171F PUSH2 0x329B JUMP JUMPDEST DUP5 PUSH1 0x0 DUP1 DUP1 PUSH2 0x2B1C PUSH2 0x329B JUMP JUMPDEST SWAP1 PUSH2 0x100 EXP SWAP1 DIV PUSH1 0x1 PUSH1 0x1 PUSH1 0xA0 SHL SUB AND PUSH1 0x1 PUSH1 0x1 PUSH1 0xA0 SHL SUB AND PUSH4 0xDACB2D01 DUP4 PUSH1 0x40 MLOAD DUP3 PUSH4 0xFFFFFFFF AND PUSH1 0xE0 SHL DUP2 MSTORE PUSH1 0x4 ADD DUP1 DUP3 DUP2 MSTORE PUSH1 0x20 ADD DUP1 PUSH1 0x20 ADD DUP3 DUP2 SUB DUP3 MSTORE PUSH1 0x28 DUP2 MSTORE PUSH1 0x20 ADD DUP1 PUSH2 0x34DB PUSH1 0x28 SWAP2 CODECOPY PUSH1 0x40 ADD SWAP3 POP POP POP PUSH1 0x20 PUSH1 0x40 MLOAD DUP1 DUP4 SUB DUP2 DUP7 DUP1 PUSH2 0x2B86 PUSH2 0x32FB JUMP JUMPDEST ISZERO DUP1 ISZERO PUSH2 0x2B9B JUMPI PUSH1 0x0 DUP1 PUSH2 0x2B98 PUSH2 0x3230 JUMP JUMPDEST POP POP JUMPDEST POP GAS PUSH2 0x2BA5 PUSH2 0x3347 JUMP JUMPDEST POP POP POP POP POP ISZERO DUP1 ISZERO PUSH2 0x2BC4 JUMPI RETURNDATASIZE PUSH1 0x0 DUP1 RETURNDATACOPY RETURNDATASIZE PUSH1 0x0 PUSH2 0x2BC1 PUSH2 0x3230 JUMP JUMPDEST POP POP JUMPDEST POP POP POP POP PUSH1 0x40 MLOAD RETURNDATASIZE PUSH1 0x20 DUP2 LT ISZERO PUSH2 0x2BE3 JUMPI PUSH1 0x0 DUP1 PUSH2 0x2BE0 PUSH2 0x3230 JUMP JUMPDEST POP POP JUMPDEST DUP2 ADD SWAP1 DUP1 DUP1 MLOAD SWAP4 POP POP POP POP GAS PUSH2 0x2BF7 PUSH2 0x3400 JUMP JUMPDEST PUSH1 0x1 PUSH1 0x1 PUSH1 0xA0 SHL SUB AND DUP2 PUSH1 0x1 PUSH1 0x1 PUSH1 0xA0 SHL SUB AND EQ PUSH2 0x2C4F JUMPI PUSH1 0x40 MLOAD PUSH3 0x461BCD PUSH1 0xE5 SHL DUP2 MSTORE PUSH1 0x4 ADD DUP1 DUP1 PUSH1 0x20 ADD DUP3 DUP2 SUB DUP3 MSTORE PUSH1 0x2E DUP2 MSTORE PUSH1 0x20 ADD DUP1 PUSH2 0x3503 PUSH1 0x2E SWAP2 CODECOPY PUSH1 0x40 ADD SWAP2 POP POP PUSH1 0x40 MLOAD DUP1 SWAP2 SUB SWAP1 PUSH2 0x2C4C PUSH2 0x3230 JUMP JUMPDEST POP POP JUMPDEST DUP5 DUP4 EQ PUSH2 0x2C99 JUMPI PUSH1 0x40 MLOAD PUSH3 0x461BCD PUSH1 0xE5 SHL DUP2 MSTORE PUSH1 0x20 PUSH1 0x4 DUP3 ADD MSTORE PUSH1 0x18 PUSH1 0x24 DUP3 ADD MSTORE PUSH1 0x0 DUP1 MLOAD PUSH1 0x20 PUSH2 0x3531 DUP4 CODECOPY DUP2 MLOAD SWAP2 MSTORE PUSH1 0x44 DUP3 ADD MSTORE PUSH1 0x64 ADD PUSH1 0x40 MLOAD DUP1 SWAP2 SUB SWAP1 PUSH2 0x2C96 PUSH2 0x3230 JUMP JUMPDEST POP POP JUMPDEST PUSH1 0x0 JUMPDEST DUP6 DUP2 LT ISZERO PUSH2 0x10BF JUMPI PUSH2 0x2CD5 DUP9 DUP9 DUP9 DUP5 DUP2 DUP2 LT PUSH2 0x2CB4 JUMPI INVALID JUMPDEST SWAP1 POP PUSH1 0x20 MUL ADD CALLDATALOAD DUP8 DUP8 DUP6 DUP2 DUP2 LT PUSH2 0x2CC7 JUMPI INVALID JUMPDEST SWAP1 POP PUSH1 0x20 MUL ADD CALLDATALOAD ISZERO ISZERO PUSH2 0x3075 JUMP JUMPDEST PUSH1 0x1 ADD PUSH2 0x2C9C JUMP JUMPDEST DUP2 PUSH1 0x0 DUP1 DUP1 PUSH2 0x2CEA PUSH2 0x329B JUMP JUMPDEST SWAP1 PUSH2 0x100 EXP SWAP1 DIV PUSH1 0x1 PUSH1 0x1 PUSH1 0xA0 SHL SUB AND PUSH1 0x1 PUSH1 0x1 PUSH1 0xA0 SHL SUB AND PUSH4 0xDACB2D01 DUP4 PUSH1 0x40 MLOAD DUP3 PUSH4 0xFFFFFFFF AND PUSH1 0xE0 SHL DUP2 MSTORE PUSH1 0x4 ADD DUP1 DUP3 DUP2 MSTORE PUSH1 0x20 ADD DUP1 PUSH1 0x20 ADD DUP3 DUP2 SUB DUP3 MSTORE PUSH1 0x28 DUP2 MSTORE PUSH1 0x20 ADD DUP1 PUSH2 0x34DB PUSH1 0x28 SWAP2 CODECOPY PUSH1 0x40 ADD SWAP3 POP POP POP PUSH1 0x20 PUSH1 0x40 MLOAD DUP1 DUP4 SUB DUP2 DUP7 DUP1 PUSH2 0x2D54 PUSH2 0x32FB JUMP JUMPDEST ISZERO DUP1 ISZERO PUSH2 0x2D69 JUMPI PUSH1 0x0 DUP1 PUSH2 0x2D66 PUSH2 0x3230 JUMP JUMPDEST POP POP JUMPDEST POP GAS PUSH2 0x2D73 PUSH2 0x3347 JUMP JUMPDEST POP POP POP POP POP ISZERO DUP1 ISZERO PUSH2 0x2D92 JUMPI RETURNDATASIZE PUSH1 0x0 DUP1 RETURNDATACOPY RETURNDATASIZE PUSH1 0x0 PUSH2 0x2D8F PUSH2 0x3230 JUMP JUMPDEST POP POP JUMPDEST POP POP POP POP PUSH1 0x40 MLOAD RETURNDATASIZE PUSH1 0x20 DUP2 LT ISZERO PUSH2 0x2DB1 JUMPI PUSH1 0x0 DUP1 PUSH2 0x2DAE PUSH2 0x3230 JUMP JUMPDEST POP POP JUMPDEST DUP2 ADD SWAP1 DUP1 DUP1 MLOAD SWAP4 POP POP POP POP GAS PUSH2 0x2DC5 PUSH2 0x3400 JUMP JUMPDEST PUSH1 0x1 PUSH1 0x1 PUSH1 0xA0 SHL SUB AND DUP2 PUSH1 0x1 PUSH1 0x1 PUSH1 0xA0 SHL SUB AND EQ PUSH2 0x2E1D JUMPI PUSH1 0x40 MLOAD PUSH3 0x461BCD PUSH1 0xE5 SHL DUP2 MSTORE PUSH1 0x4 ADD DUP1 DUP1 PUSH1 0x20 ADD DUP3 DUP2 SUB DUP3 MSTORE PUSH1 0x2E DUP2 MSTORE PUSH1 0x20 ADD DUP1 PUSH2 0x3503 PUSH1 0x2E SWAP2 CODECOPY PUSH1 0x40 ADD SWAP2 POP POP PUSH1 0x40 MLOAD DUP1 SWAP2 SUB SWAP1 PUSH2 0x2E1A PUSH2 0x3230 JUMP JUMPDEST POP POP JUMPDEST PUSH1 0x0 DUP5 DUP2 MSTORE PUSH1 0x1 PUSH1 0x20 MSTORE PUSH1 0x3 DUP2 PUSH1 0x40 DUP2 KECCAK256 PUSH2 0x2E36 PUSH2 0x329B JUMP JUMPDEST DUP2 MSTORE PUSH1 0x20 ADD SWAP1 DUP2 MSTORE PUSH1 0x20 ADD PUSH1 0x0 KECCAK256 PUSH1 0x0 DUP6 DUP2 MSTORE PUSH1 0x20 SWAP2 SWAP1 SWAP2 MSTORE PUSH1 0x40 SWAP1 KECCAK256 PUSH2 0x2E5B PUSH2 0x329B JUMP JUMPDEST SWAP1 POP PUSH32 0x78962C711B5655608C554689BA42E4890D9E5D3F590B99842612AD39CD7AE0AE DUP6 DUP6 DUP4 PUSH1 0x40 MLOAD DUP1 DUP5 DUP2 MSTORE PUSH1 0x20 ADD DUP4 DUP2 MSTORE PUSH1 0x20 ADD DUP3 DUP2 MSTORE PUSH1 0x20 ADD SWAP4 POP POP POP POP PUSH1 0x40 MLOAD DUP1 SWAP2 SUB SWAP1 LOG1 PUSH1 0x0 DUP6 DUP2 MSTORE PUSH1 0x1 PUSH1 0x20 MSTORE PUSH1 0x3 SWAP1 PUSH1 0x40 DUP2 KECCAK256 PUSH2 0x1593 PUSH2 0x329B JUMP JUMPDEST DUP1 PUSH1 0x6 PUSH1 0x0 PUSH2 0x2ECB DUP7 PUSH2 0x3195 JUMP JUMPDEST DUP2 MSTORE PUSH1 0x20 ADD SWAP1 DUP2 MSTORE PUSH1 0x20 ADD PUSH1 0x0 KECCAK256 PUSH1 0x0 DUP5 DUP2 MSTORE PUSH1 0x20 SWAP2 SWAP1 SWAP2 MSTORE PUSH1 0x40 SWAP1 KECCAK256 DUP2 SWAP1 PUSH2 0x2EF2 PUSH2 0x3446 JUMP JUMPDEST POP POP POP PUSH32 0x961ABB018D8A303304C9F1FF1F306C7493A8B68B381BBE4E9A3ABF9588A95280 DUP4 DUP4 DUP4 PUSH1 0x40 MLOAD DUP1 DUP5 DUP2 MSTORE PUSH1 0x20 ADD DUP4 DUP2 MSTORE PUSH1 0x20 ADD DUP3 DUP2 MSTORE PUSH1 0x20 ADD SWAP4 POP POP POP POP PUSH1 0x40 MLOAD DUP1 SWAP2 SUB SWAP1 LOG1 POP POP POP JUMP JUMPDEST DUP1 PUSH1 0x2 PUSH1 0x0 PUSH2 0x2F4F DUP7 PUSH2 0x3195 JUMP JUMPDEST DUP2 MSTORE PUSH1 0x20 ADD SWAP1 DUP2 MSTORE PUSH1 0x20 ADD PUSH1 0x0 KECCAK256 PUSH1 0x0 DUP5 DUP2 MSTORE PUSH1 0x20 SWAP2 SWAP1 SWAP2 MSTORE PUSH1 0x40 SWAP1 KECCAK256 DUP2 SWAP1 PUSH2 0x2F76 PUSH2 0x3446 JUMP JUMPDEST POP POP POP PUSH32 0x60738523F766167CFD2310C61593DC795BC9D77DE9276ED7E0C514DF55E0A2C9 DUP4 DUP4 DUP4 PUSH1 0x40 MLOAD DUP1 DUP5 DUP2 MSTORE PUSH1 0x20 ADD DUP4 DUP2 MSTORE PUSH1 0x20 ADD DUP3 DUP2 MSTORE PUSH1 0x20 ADD SWAP4 POP POP POP POP PUSH1 0x40 MLOAD DUP1 SWAP2 SUB SWAP1 LOG1 POP POP POP JUMP JUMPDEST DUP1 PUSH1 0x4 PUSH1 0x0 PUSH2 0x2FD3 DUP7 PUSH2 0x3195 JUMP JUMPDEST DUP2 MSTORE PUSH1 0x20 ADD SWAP1 DUP2 MSTORE PUSH1 0x20 ADD PUSH1 0x0 KECCAK256 PUSH1 0x0 DUP5 DUP2 MSTORE PUSH1 0x20 SWAP2 SWAP1 SWAP2 MSTORE PUSH1 0x40 SWAP1 KECCAK256 PUSH1 0x1 DUP2 PUSH2 0x2FFB PUSH2 0x329B JUMP JUMPDEST DUP2 PUSH1 0x1 PUSH1 0x1 PUSH1 0xA0 SHL SUB MUL NOT AND SWAP1 DUP4 PUSH1 0x1 PUSH1 0x1 PUSH1 0xA0 SHL SUB AND MUL OR SWAP1 PUSH2 0x301D PUSH2 0x3446 JUMP JUMPDEST POP POP POP PUSH32 0x524FB430ECBFD4606A947F9AE445DBF7C9703944CF928789B86F3A8AAD639365 DUP4 DUP4 DUP4 PUSH1 0x40 MLOAD SWAP3 DUP4 MSTORE PUSH1 0x20 DUP4 ADD SWAP2 SWAP1 SWAP2 MSTORE PUSH1 0x1 PUSH1 0x1 PUSH1 0xA0 SHL SUB AND PUSH1 0x40 DUP1 DUP4 ADD SWAP2 SWAP1 SWAP2 MSTORE PUSH1 0x60 SWAP1 SWAP2 ADD SWAP1 MLOAD DUP1 SWAP2 SUB SWAP1 LOG1 POP POP POP JUMP JUMPDEST DUP1 PUSH1 0x5 PUSH1 0x0 PUSH2 0x3083 DUP7 PUSH2 0x3195 JUMP JUMPDEST DUP2 MSTORE PUSH1 0x20 ADD SWAP1 DUP2 MSTORE PUSH1 0x20 ADD PUSH1 0x0 KECCAK256 PUSH1 0x0 DUP5 DUP2 MSTORE PUSH1 0x20 SWAP2 SWAP1 SWAP2 MSTORE PUSH1 0x40 SWAP1 KECCAK256 PUSH1 0x1 DUP2 PUSH2 0x30AB PUSH2 0x329B JUMP JUMPDEST DUP2 PUSH1 0xFF MUL NOT AND SWAP1 DUP4 ISZERO ISZERO MUL OR SWAP1 PUSH2 0x30C0 PUSH2 0x3446 JUMP JUMPDEST POP POP POP PUSH32 0x9C94AD4CFFF55907724CB65340F342D3897DD884E6CD3C2D3777087191D5EB7B DUP4 DUP4 DUP4 PUSH1 0x40 MLOAD SWAP3 DUP4 MSTORE PUSH1 0x20 DUP4 ADD SWAP2 SWAP1 SWAP2 MSTORE ISZERO ISZERO PUSH1 0x40 DUP1 DUP4 ADD SWAP2 SWAP1 SWAP2 MSTORE PUSH1 0x60 SWAP1 SWAP2 ADD SWAP1 MLOAD DUP1 SWAP2 SUB SWAP1 LOG1 POP POP POP JUMP JUMPDEST DUP1 PUSH1 0x3 PUSH1 0x0 PUSH2 0x311F DUP7 PUSH2 0x3195 JUMP JUMPDEST DUP2 MSTORE PUSH1 0x20 ADD SWAP1 DUP2 MSTORE PUSH1 0x20 ADD PUSH1 0x0 KECCAK256 PUSH1 0x0 DUP5 DUP2 MSTORE PUSH1 0x20 SWAP2 SWAP1 SWAP2 MSTORE PUSH1 0x40 SWAP1 KECCAK256 DUP2 SWAP1 PUSH2 0x3146 PUSH2 0x3446 JUMP JUMPDEST POP POP POP PUSH32 0xD8877F604DFE262A8AC3904781814F022156C9341AF779608A2AE0BEEF1906C DUP4 DUP4 DUP4 PUSH1 0x40 MLOAD DUP1 DUP5 DUP2 MSTORE PUSH1 0x20 ADD DUP4 DUP2 MSTORE PUSH1 0x20 ADD DUP3 DUP2 MSTORE PUSH1 0x20 ADD SWAP4 POP POP POP POP PUSH1 0x40 MLOAD DUP1 SWAP2 SUB SWAP1 LOG1 POP POP POP JUMP JUMPDEST PUSH1 0x0 DUP2 DUP2 MSTORE PUSH1 0x1 PUSH1 0x20 MSTORE DUP1 PUSH1 0x40 DUP2 KECCAK256 PUSH2 0x31AC PUSH2 0x329B JUMP JUMPDEST SWAP1 POP DUP1 PUSH2 0x322A JUMPI GAS PUSH2 0x31BC PUSH2 0x3400 JUMP JUMPDEST DUP4 GAS PUSH2 0x31C6 PUSH2 0x3494 JUMP JUMPDEST PUSH1 0x40 MLOAD PUSH1 0x60 SWAP4 SWAP1 SWAP4 SHL PUSH12 0xFFFFFFFFFFFFFFFFFFFFFFFF NOT AND PUSH1 0x20 DUP5 ADD MSTORE PUSH1 0x34 DUP4 ADD SWAP2 SWAP1 SWAP2 MSTORE PUSH1 0x54 DUP3 ADD MSTORE PUSH1 0x74 ADD PUSH1 0x40 MLOAD PUSH1 0x20 DUP2 DUP4 SUB SUB DUP2 MSTORE SWAP1 PUSH1 0x40 MSTORE DUP1 MLOAD SWAP1 PUSH1 0x20 ADD KECCAK256 PUSH1 0x0 DUP5 DUP2 MSTORE PUSH1 0x1 PUSH1 0x20 MSTORE SWAP1 SWAP2 POP DUP2 SWAP1 PUSH1 0x40 SWAP1 KECCAK256 DUP2 SWAP1 PUSH2 0x3226 PUSH2 0x3446 JUMP JUMPDEST POP POP POP JUMPDEST SWAP3 SWAP2 POP POP JUMP JUMPDEST PUSH4 0x2A2A7ADB MSIZE DUP2 PUSH1 0xE0 SHL DUP2 MSTORE PUSH1 0x4 DUP2 ADD PUSH1 0x20 DUP2 MSTORE DUP6 PUSH1 0x20 DUP3 ADD MSTORE PUSH1 0x0 JUMPDEST DUP7 DUP2 LT ISZERO PUSH2 0x3268 JUMPI DUP1 DUP7 ADD MLOAD DUP3 DUP3 ADD PUSH1 0x40 ADD MSTORE PUSH1 0x20 ADD PUSH2 0x324D JUMP JUMPDEST POP PUSH1 0x20 DUP3 DUP8 PUSH1 0x64 ADD DUP5 CALLER PUSH1 0x0 SWAP1 GAS CALL PC PUSH1 0x1D ADD JUMPI RETURNDATASIZE PUSH1 0x1 EQ PC PUSH1 0xC ADD JUMPI RETURNDATASIZE PUSH1 0x0 DUP1 RETURNDATACOPY RETURNDATASIZE PUSH3 0x123456 MSTORE PUSH1 0xEA PUSH2 0x109C MSTORE POP POP POP JUMP JUMPDEST PUSH4 0x3DAA959 MSIZE DUP2 PUSH1 0xE0 SHL DUP2 MSTORE DUP4 PUSH1 0x4 DUP3 ADD MSTORE PUSH1 0x20 DUP2 PUSH1 0x24 DUP4 CALLER PUSH1 0x0 SWAP1 GAS CALL PC PUSH1 0x1D ADD JUMPI RETURNDATASIZE PUSH1 0x1 EQ PC PUSH1 0xC ADD JUMPI RETURNDATASIZE PUSH1 0x0 DUP1 RETURNDATACOPY RETURNDATASIZE PUSH3 0x123456 MSTORE PUSH1 0xEA PUSH2 0x109C MSTORE DUP1 MLOAD SWAP4 POP PUSH1 0x0 JUMPDEST PUSH1 0x40 DUP2 LT ISZERO PUSH2 0x32F6 JUMPI PUSH1 0x0 DUP3 DUP3 ADD MSTORE PUSH1 0x20 ADD PUSH2 0x32DF JUMP JUMPDEST POP POP POP JUMP JUMPDEST PUSH4 0x8435035B MSIZE DUP2 PUSH1 0xE0 SHL DUP2 MSTORE DUP4 PUSH1 0x4 DUP3 ADD MSTORE PUSH1 0x20 DUP2 PUSH1 0x24 DUP4 CALLER PUSH1 0x0 SWAP1 GAS CALL PC PUSH1 0x1D ADD JUMPI RETURNDATASIZE PUSH1 0x1 EQ PC PUSH1 0xC ADD JUMPI RETURNDATASIZE PUSH1 0x0 DUP1 RETURNDATACOPY RETURNDATASIZE PUSH3 0x123456 MSTORE PUSH1 0xEA PUSH2 0x109C MSTORE DUP1 MLOAD PUSH1 0x0 DUP3 MSTORE SWAP4 POP PUSH1 0x20 PUSH2 0x32DF JUMP JUMPDEST PUSH4 0x8540661F MSIZE DUP2 PUSH1 0xE0 SHL DUP2 MSTORE DUP4 PUSH1 0x4 DUP3 ADD MSTORE DUP5 PUSH1 0x24 DUP3 ADD MSTORE PUSH1 0x60 PUSH1 0x44 DUP3 ADD MSTORE DUP7 PUSH1 0x64 DUP3 ADD MSTORE PUSH1 0x84 DUP2 ADD PUSH1 0x0 JUMPDEST DUP9 DUP2 LT ISZERO PUSH2 0x338B JUMPI DUP1 DUP9 ADD MLOAD DUP3 DUP3 ADD MSTORE PUSH1 0x20 ADD PUSH2 0x3373 JUMP JUMPDEST POP DUP8 PUSH2 0x104 ADD DUP3 ADD PUSH1 0x60 DUP4 DUP11 PUSH2 0x104 ADD DUP6 CALLER PUSH1 0x0 SWAP1 GAS CALL PC PUSH1 0x1D ADD JUMPI RETURNDATASIZE PUSH1 0x1 EQ PC PUSH1 0xC ADD JUMPI RETURNDATASIZE PUSH1 0x0 DUP1 RETURNDATACOPY RETURNDATASIZE PUSH3 0x123456 MSTORE PUSH1 0xEA PUSH2 0x109C MSTORE DUP3 MLOAD PUSH1 0x40 DUP5 ADD MLOAD RETURNDATASIZE PUSH1 0x0 DUP7 RETURNDATACOPY DUP13 DUP13 DUP3 PUSH1 0x60 DUP9 ADD CALLER POP PUSH1 0x0 PUSH1 0x4 GAS CALL POP MSIZE DUP6 JUMPDEST DUP2 DUP2 LT ISZERO PUSH2 0x33F4 JUMPI PUSH1 0x0 DUP2 MSTORE PUSH1 0x20 ADD PUSH2 0x33E0 JUMP JUMPDEST POP SWAP2 SWAP13 POP POP POP POP POP POP POP JUMP JUMPDEST PUSH4 0x73509064 MSIZE DUP2 PUSH1 0xE0 SHL DUP2 MSTORE PUSH1 0x20 DUP2 PUSH1 0x4 DUP4 CALLER PUSH1 0x0 SWAP1 GAS CALL PC PUSH1 0x1D ADD JUMPI RETURNDATASIZE PUSH1 0x1 EQ PC PUSH1 0xC ADD JUMPI RETURNDATASIZE PUSH1 0x0 DUP1 RETURNDATACOPY RETURNDATASIZE PUSH3 0x123456 MSTORE PUSH1 0xEA PUSH2 0x109C MSTORE DUP1 MLOAD PUSH1 0x0 DUP3 MSTORE SWAP4 POP PUSH1 0x20 PUSH2 0x32DF JUMP JUMPDEST PUSH4 0x22BD64C0 MSIZE DUP2 PUSH1 0xE0 SHL DUP2 MSTORE DUP4 PUSH1 0x4 DUP3 ADD MSTORE DUP5 PUSH1 0x24 DUP3 ADD MSTORE PUSH1 0x0 DUP2 PUSH1 0x44 DUP4 CALLER PUSH1 0x0 SWAP1 GAS CALL PC PUSH1 0x1D ADD JUMPI RETURNDATASIZE PUSH1 0x1 EQ PC PUSH1 0xC ADD JUMPI RETURNDATASIZE PUSH1 0x0 DUP1 RETURNDATACOPY RETURNDATASIZE PUSH3 0x123456 MSTORE PUSH1 0xEA PUSH2 0x109C MSTORE PUSH1 0x0 DUP2 MSTORE PUSH1 0x20 PUSH2 0x32DF JUMP JUMPDEST PUSH4 0x5A98C361 MSIZE DUP2 PUSH1 0xE0 SHL DUP2 MSTORE PUSH1 0x20 DUP2 PUSH1 0x4 DUP4 CALLER PUSH1 0x0 SWAP1 GAS CALL PC PUSH1 0x1D ADD JUMPI RETURNDATASIZE PUSH1 0x1 EQ PC PUSH1 0xC ADD JUMPI RETURNDATASIZE PUSH1 0x0 DUP1 RETURNDATACOPY RETURNDATASIZE PUSH3 0x123456 MSTORE PUSH1 0xEA PUSH2 0x109C MSTORE DUP1 MLOAD PUSH1 0x0 DUP3 MSTORE SWAP4 POP PUSH1 0x20 PUSH2 0x32DF JUMP INVALID NUMBER PUSH2 0x6E6E PUSH16 0x742066696E6420636F6E747261637420 PUSH10 0x6E204164647265737320 MSTORE PUSH6 0x736F6C766572 NUMBER PUSH2 0x6E20 PUSH16 0x6E6C7920626520696E766F6B65642062 PUSH26 0x2074686520636F6E6669677572656420636F6E7472616374496E PUSH17 0x7574206C656E67746873206D757374206D PUSH2 0x7463 PUSH9 0x0 "
		}
	}
}