{
	"abi": [
		{
			"inputs": [
				{
					"internalType": "address",
					"name": "_owner",
					"type": "address"
				},
				{
					"internalType": "address",
					"name": "_resolver",
					"type": "address"
				}
			],
			"payable": false,
			"stateMutability": "nonpayable",
			"type": "constructor"
		},
		{
			"anonymous": false,
			"inputs": [
				{
					"indexed": false,
					"internalType": "uint256",
					"name": "timestamp",
					"type": "uint256"
				}
			],
			"name": "DebtCacheSynchronised",
			"type": "event"
		},
		{
			"anonymous": false,
			"inputs": [
				{
					"indexed": false,
					"internalType": "uint256",
					"name": "cachedDebt",
					"type": "uint256"
				}
			],
			"name": "DebtCacheUpdated",
			"type": "event"
		},
		{
			"anonymous": false,
			"inputs": [
				{
					"indexed": true,
					"internalType": "bool",
					"name": "isInvalid",
					"type": "bool"
				}
			],
			"name": "DebtCacheValidityChanged",
			"type": "event"
		},
		{
			"anonymous": false,
			"inputs": [
				{
					"indexed": false,
					"internalType": "address",
					"name": "oldOwner",
					"type": "address"
				},
				{
					"indexed": false,
					"internalType": "address",
					"name": "newOwner",
					"type": "address"
				}
			],
			"name": "OwnerChanged",
			"type": "event"
		},
		{
			"anonymous": false,
			"inputs": [
				{
					"indexed": false,
					"internalType": "address",
					"name": "newOwner",
					"type": "address"
				}
			],
			"name": "OwnerNominated",
			"type": "event"
		},
		{
			"anonymous": false,
			"inputs": [
				{
					"indexed": false,
					"internalType": "bytes32",
					"name": "currencyKey",
					"type": "bytes32"
				},
				{
					"indexed": false,
					"internalType": "address",
					"name": "synth",
					"type": "address"
				}
			],
			"name": "SynthAdded",
			"type": "event"
		},
		{
			"anonymous": false,
			"inputs": [
				{
					"indexed": false,
					"internalType": "bytes32",
					"name": "currencyKey",
					"type": "bytes32"
				},
				{
					"indexed": false,
					"internalType": "address",
					"name": "synth",
					"type": "address"
				}
			],
			"name": "SynthRemoved",
			"type": "event"
		},
		{
			"constant": true,
			"inputs": [],
			"name": "CONTRACT_NAME",
			"outputs": [
				{
					"internalType": "bytes32",
					"name": "",
					"type": "bytes32"
				}
			],
			"payable": false,
			"stateMutability": "view",
			"type": "function"
		},
		{
			"constant": true,
			"inputs": [],
			"name": "MAX_ADDRESSES_FROM_RESOLVER",
			"outputs": [
				{
					"internalType": "uint256",
					"name": "",
					"type": "uint256"
				}
			],
			"payable": false,
			"stateMutability": "view",
			"type": "function"
		},
		{
			"constant": false,
			"inputs": [],
			"name": "acceptOwnership",
			"outputs": [],
			"payable": false,
			"stateMutability": "nonpayable",
			"type": "function"
		},
		{
			"constant": false,
			"inputs": [
				{
					"internalType": "contract ISynth",
					"name": "synth",
					"type": "address"
				}
			],
			"name": "addSynth",
			"outputs": [],
			"payable": false,
			"stateMutability": "nonpayable",
			"type": "function"
		},
		{
			"constant": true,
			"inputs": [],
			"name": "anySynthOrSNXRateIsInvalid",
			"outputs": [
				{
					"internalType": "bool",
					"name": "anyRateInvalid",
					"type": "bool"
				}
			],
			"payable": false,
			"stateMutability": "view",
			"type": "function"
		},
		{
			"constant": true,
			"inputs": [],
			"name": "availableCurrencyKeys",
			"outputs": [
				{
					"internalType": "bytes32[]",
					"name": "",
					"type": "bytes32[]"
				}
			],
			"payable": false,
			"stateMutability": "view",
			"type": "function"
		},
		{
			"constant": true,
			"inputs": [],
			"name": "availableSynthCount",
			"outputs": [
				{
					"internalType": "uint256",
					"name": "",
					"type": "uint256"
				}
			],
			"payable": false,
			"stateMutability": "view",
			"type": "function"
		},
		{
			"constant": true,
			"inputs": [
				{
					"internalType": "uint256",
					"name": "",
					"type": "uint256"
				}
			],
			"name": "availableSynths",
			"outputs": [
				{
					"internalType": "contract ISynth",
					"name": "",
					"type": "address"
				}
			],
			"payable": false,
			"stateMutability": "view",
			"type": "function"
		},
		{
			"constant": false,
			"inputs": [
				{
					"internalType": "address",
					"name": "from",
					"type": "address"
				},
				{
					"internalType": "uint256",
					"name": "amount",
					"type": "uint256"
				}
			],
			"name": "burnSynths",
			"outputs": [],
			"payable": false,
			"stateMutability": "nonpayable",
			"type": "function"
		},
		{
			"constant": false,
			"inputs": [
				{
					"internalType": "address",
					"name": "burnForAddress",
					"type": "address"
				},
				{
					"internalType": "address",
					"name": "from",
					"type": "address"
				},
				{
					"internalType": "uint256",
					"name": "amount",
					"type": "uint256"
				}
			],
			"name": "burnSynthsOnBehalf",
			"outputs": [],
			"payable": false,
			"stateMutability": "nonpayable",
			"type": "function"
		},
		{
			"constant": false,
			"inputs": [
				{
					"internalType": "address",
					"name": "from",
					"type": "address"
				}
			],
			"name": "burnSynthsToTarget",
			"outputs": [],
			"payable": false,
			"stateMutability": "nonpayable",
			"type": "function"
		},
		{
			"constant": false,
			"inputs": [
				{
					"internalType": "address",
					"name": "burnForAddress",
					"type": "address"
				},
				{
					"internalType": "address",
					"name": "from",
					"type": "address"
				}
			],
			"name": "burnSynthsToTargetOnBehalf",
			"outputs": [],
			"payable": false,
			"stateMutability": "nonpayable",
			"type": "function"
		},
		{
			"constant": false,
			"inputs": [],
			"name": "cacheSNXIssuedDebt",
			"outputs": [],
			"payable": false,
			"stateMutability": "nonpayable",
			"type": "function"
		},
		{
			"constant": true,
			"inputs": [
				{
					"internalType": "bytes32[]",
					"name": "currencyKeys",
					"type": "bytes32[]"
				}
			],
			"name": "cachedSNXIssuedDebtForCurrencies",
			"outputs": [
				{
					"internalType": "uint256[]",
					"name": "snxIssuedDebts",
					"type": "uint256[]"
				}
			],
			"payable": false,
			"stateMutability": "view",
			"type": "function"
		},
		{
			"constant": true,
			"inputs": [],
			"name": "cachedSNXIssuedDebtInfo",
			"outputs": [
				{
					"internalType": "uint256",
					"name": "cachedDebt",
					"type": "uint256"
				},
				{
					"internalType": "uint256",
					"name": "timestamp",
					"type": "uint256"
				},
				{
					"internalType": "bool",
					"name": "isInvalid",
					"type": "bool"
				}
			],
			"payable": false,
			"stateMutability": "view",
			"type": "function"
		},
		{
			"constant": true,
			"inputs": [
				{
					"internalType": "address",
					"name": "account",
					"type": "address"
				}
			],
			"name": "canBurnSynths",
			"outputs": [
				{
					"internalType": "bool",
					"name": "",
					"type": "bool"
				}
			],
			"payable": false,
			"stateMutability": "view",
			"type": "function"
		},
		{
			"constant": true,
			"inputs": [
				{
					"internalType": "address",
					"name": "account",
					"type": "address"
				}
			],
			"name": "collateral",
			"outputs": [
				{
					"internalType": "uint256",
					"name": "",
					"type": "uint256"
				}
			],
			"payable": false,
			"stateMutability": "view",
			"type": "function"
		},
		{
			"constant": true,
			"inputs": [
				{
					"internalType": "address",
					"name": "_issuer",
					"type": "address"
				}
			],
			"name": "collateralisationRatio",
			"outputs": [
				{
					"internalType": "uint256",
					"name": "cratio",
					"type": "uint256"
				}
			],
			"payable": false,
			"stateMutability": "view",
			"type": "function"
		},
		{
			"constant": true,
			"inputs": [
				{
					"internalType": "address",
					"name": "_issuer",
					"type": "address"
				}
			],
			"name": "collateralisationRatioAndAnyRatesInvalid",
			"outputs": [
				{
					"internalType": "uint256",
					"name": "cratio",
					"type": "uint256"
				},
				{
					"internalType": "bool",
					"name": "anyRateIsInvalid",
					"type": "bool"
				}
			],
			"payable": false,
			"stateMutability": "view",
			"type": "function"
		},
		{
			"constant": true,
			"inputs": [],
			"name": "currentSNXIssuedDebt",
			"outputs": [
				{
					"internalType": "uint256",
					"name": "snxIssuedDebt",
					"type": "uint256"
				},
				{
					"internalType": "bool",
					"name": "anyRateIsInvalid",
					"type": "bool"
				}
			],
			"payable": false,
			"stateMutability": "view",
			"type": "function"
		},
		{
			"constant": true,
			"inputs": [
				{
					"internalType": "bytes32[]",
					"name": "currencyKeys",
					"type": "bytes32[]"
				}
			],
			"name": "currentSNXIssuedDebtForCurrencies",
			"outputs": [
				{
					"internalType": "uint256[]",
					"name": "snxIssuedDebts",
					"type": "uint256[]"
				},
				{
					"internalType": "bool",
					"name": "anyRateIsInvalid",
					"type": "bool"
				}
			],
			"payable": false,
			"stateMutability": "view",
			"type": "function"
		},
		{
			"constant": true,
			"inputs": [
				{
					"internalType": "address",
					"name": "_issuer",
					"type": "address"
				},
				{
					"internalType": "bytes32",
					"name": "currencyKey",
					"type": "bytes32"
				}
			],
			"name": "debtBalanceOf",
			"outputs": [
				{
					"internalType": "uint256",
					"name": "debtBalance",
					"type": "uint256"
				}
			],
			"payable": false,
			"stateMutability": "view",
			"type": "function"
		},
		{
			"constant": true,
			"inputs": [],
			"name": "debtCacheIsStale",
			"outputs": [
				{
					"internalType": "bool",
					"name": "",
					"type": "bool"
				}
			],
			"payable": false,
			"stateMutability": "view",
			"type": "function"
		},
		{
			"constant": true,
			"inputs": [],
			"name": "debtSnapshotStaleTime",
			"outputs": [
				{
					"internalType": "uint256",
					"name": "",
					"type": "uint256"
				}
			],
			"payable": false,
			"stateMutability": "view",
			"type": "function"
		},
		{
			"constant": true,
			"inputs": [],
			"name": "getResolverAddressesRequired",
			"outputs": [
				{
					"internalType": "bytes32[24]",
					"name": "addressesRequired",
					"type": "bytes32[24]"
				}
			],
			"payable": false,
			"stateMutability": "view",
			"type": "function"
		},
		{
			"constant": true,
			"inputs": [
				{
					"internalType": "contract AddressResolver",
					"name": "_resolver",
					"type": "address"
				}
			],
			"name": "isResolverCached",
			"outputs": [
				{
					"internalType": "bool",
					"name": "",
					"type": "bool"
				}
			],
			"payable": false,
			"stateMutability": "view",
			"type": "function"
		},
		{
			"constant": true,
			"inputs": [],
			"name": "issuanceRatio",
			"outputs": [
				{
					"internalType": "uint256",
					"name": "",
					"type": "uint256"
				}
			],
			"payable": false,
			"stateMutability": "view",
			"type": "function"
		},
		{
			"constant": false,
			"inputs": [
				{
					"internalType": "address",
					"name": "from",
					"type": "address"
				}
			],
			"name": "issueMaxSynths",
			"outputs": [],
			"payable": false,
			"stateMutability": "nonpayable",
			"type": "function"
		},
		{
			"constant": false,
			"inputs": [
				{
					"internalType": "address",
					"name": "issueForAddress",
					"type": "address"
				},
				{
					"internalType": "address",
					"name": "from",
					"type": "address"
				}
			],
			"name": "issueMaxSynthsOnBehalf",
			"outputs": [],
			"payable": false,
			"stateMutability": "nonpayable",
			"type": "function"
		},
		{
			"constant": false,
			"inputs": [
				{
					"internalType": "address",
					"name": "from",
					"type": "address"
				},
				{
					"internalType": "uint256",
					"name": "amount",
					"type": "uint256"
				}
			],
			"name": "issueSynths",
			"outputs": [],
			"payable": false,
			"stateMutability": "nonpayable",
			"type": "function"
		},
		{
			"constant": false,
			"inputs": [
				{
					"internalType": "address",
					"name": "issueForAddress",
					"type": "address"
				},
				{
					"internalType": "address",
					"name": "from",
					"type": "address"
				},
				{
					"internalType": "uint256",
					"name": "amount",
					"type": "uint256"
				}
			],
			"name": "issueSynthsOnBehalf",
			"outputs": [],
			"payable": false,
			"stateMutability": "nonpayable",
			"type": "function"
		},
		{
			"constant": true,
			"inputs": [
				{
					"internalType": "address",
					"name": "account",
					"type": "address"
				}
			],
			"name": "lastIssueEvent",
			"outputs": [
				{
					"internalType": "uint256",
					"name": "",
					"type": "uint256"
				}
			],
			"payable": false,
			"stateMutability": "view",
			"type": "function"
		},
		{
			"constant": false,
			"inputs": [
				{
					"internalType": "address",
					"name": "account",
					"type": "address"
				},
				{
					"internalType": "uint256",
					"name": "susdAmount",
					"type": "uint256"
				},
				{
					"internalType": "address",
					"name": "liquidator",
					"type": "address"
				}
			],
			"name": "liquidateDelinquentAccount",
			"outputs": [
				{
					"internalType": "uint256",
					"name": "totalRedeemed",
					"type": "uint256"
				},
				{
					"internalType": "uint256",
					"name": "amountToLiquidate",
					"type": "uint256"
				}
			],
			"payable": false,
			"stateMutability": "nonpayable",
			"type": "function"
		},
		{
			"constant": true,
			"inputs": [
				{
					"internalType": "address",
					"name": "_issuer",
					"type": "address"
				}
			],
			"name": "maxIssuableSynths",
			"outputs": [
				{
					"internalType": "uint256",
					"name": "",
					"type": "uint256"
				}
			],
			"payable": false,
			"stateMutability": "view",
			"type": "function"
		},
		{
			"constant": true,
			"inputs": [],
			"name": "minimumStakeTime",
			"outputs": [
				{
					"internalType": "uint256",
					"name": "",
					"type": "uint256"
				}
			],
			"payable": false,
			"stateMutability": "view",
			"type": "function"
		},
		{
			"constant": false,
			"inputs": [
				{
					"internalType": "address",
					"name": "_owner",
					"type": "address"
				}
			],
			"name": "nominateNewOwner",
			"outputs": [],
			"payable": false,
			"stateMutability": "nonpayable",
			"type": "function"
		},
		{
			"constant": true,
			"inputs": [],
			"name": "nominatedOwner",
			"outputs": [
				{
					"internalType": "address",
					"name": "",
					"type": "address"
				}
			],
			"payable": false,
			"stateMutability": "view",
			"type": "function"
		},
		{
			"constant": true,
			"inputs": [],
			"name": "owner",
			"outputs": [
				{
					"internalType": "address",
					"name": "",
					"type": "address"
				}
			],
			"payable": false,
			"stateMutability": "view",
			"type": "function"
		},
		{
			"constant": false,
			"inputs": [
				{
					"internalType": "bytes32",
					"name": "currencyKey",
					"type": "bytes32"
				}
			],
			"name": "purgeDebtCacheForSynth",
			"outputs": [],
			"payable": false,
			"stateMutability": "nonpayable",
			"type": "function"
		},
		{
			"constant": true,
			"inputs": [
				{
					"internalType": "address",
					"name": "_issuer",
					"type": "address"
				}
			],
			"name": "remainingIssuableSynths",
			"outputs": [
				{
					"internalType": "uint256",
					"name": "maxIssuable",
					"type": "uint256"
				},
				{
					"internalType": "uint256",
					"name": "alreadyIssued",
					"type": "uint256"
				},
				{
					"internalType": "uint256",
					"name": "totalSystemDebt",
					"type": "uint256"
				}
			],
			"payable": false,
			"stateMutability": "view",
			"type": "function"
		},
		{
			"constant": false,
			"inputs": [
				{
					"internalType": "bytes32",
					"name": "currencyKey",
					"type": "bytes32"
				}
			],
			"name": "removeSynth",
			"outputs": [],
			"payable": false,
			"stateMutability": "nonpayable",
			"type": "function"
		},
		{
			"constant": true,
			"inputs": [],
			"name": "resolver",
			"outputs": [
				{
					"internalType": "contract AddressResolver",
					"name": "",
					"type": "address"
				}
			],
			"payable": false,
			"stateMutability": "view",
			"type": "function"
		},
		{
			"constant": true,
			"inputs": [
				{
					"internalType": "uint256",
					"name": "",
					"type": "uint256"
				}
			],
			"name": "resolverAddressesRequired",
			"outputs": [
				{
					"internalType": "bytes32",
					"name": "",
					"type": "bytes32"
				}
			],
			"payable": false,
			"stateMutability": "view",
			"type": "function"
		},
		{
			"constant": false,
			"inputs": [
				{
					"internalType": "contract AddressResolver",
					"name": "_resolver",
					"type": "address"
				}
			],
			"name": "setResolverAndSyncCache",
			"outputs": [],
			"payable": false,
			"stateMutability": "nonpayable",
			"type": "function"
		},
		{
			"constant": true,
			"inputs": [
				{
					"internalType": "bytes32",
					"name": "",
					"type": "bytes32"
				}
			],
			"name": "synths",
			"outputs": [
				{
					"internalType": "contract ISynth",
					"name": "",
					"type": "address"
				}
			],
			"payable": false,
			"stateMutability": "view",
			"type": "function"
		},
		{
			"constant": true,
			"inputs": [
				{
					"internalType": "address",
					"name": "",
					"type": "address"
				}
			],
			"name": "synthsByAddress",
			"outputs": [
				{
					"internalType": "bytes32",
					"name": "",
					"type": "bytes32"
				}
			],
			"payable": false,
			"stateMutability": "view",
			"type": "function"
		},
		{
			"constant": true,
			"inputs": [
				{
					"internalType": "bytes32",
					"name": "currencyKey",
					"type": "bytes32"
				},
				{
					"internalType": "bool",
					"name": "excludeEtherCollateral",
					"type": "bool"
				}
			],
			"name": "totalIssuedSynths",
			"outputs": [
				{
					"internalType": "uint256",
					"name": "totalIssued",
					"type": "uint256"
				}
			],
			"payable": false,
			"stateMutability": "view",
			"type": "function"
		},
		{
			"constant": true,
			"inputs": [
				{
					"internalType": "address",
					"name": "account",
					"type": "address"
				},
				{
					"internalType": "uint256",
					"name": "balance",
					"type": "uint256"
				}
			],
			"name": "transferableSynthetixAndAnyRateIsInvalid",
			"outputs": [
				{
					"internalType": "uint256",
					"name": "transferable",
					"type": "uint256"
				},
				{
					"internalType": "bool",
					"name": "anyRateIsInvalid",
					"type": "bool"
				}
			],
			"payable": false,
			"stateMutability": "view",
			"type": "function"
		},
		{
			"constant": false,
			"inputs": [
				{
					"internalType": "bytes32[]",
					"name": "currencyKeys",
					"type": "bytes32[]"
				}
			],
			"name": "updateSNXIssuedDebtForCurrencies",
			"outputs": [],
			"payable": false,
			"stateMutability": "nonpayable",
			"type": "function"
		},
		{
			"constant": false,
			"inputs": [
				{
					"internalType": "bytes32[2]",
					"name": "currencyKeys",
					"type": "bytes32[2]"
				},
				{
					"internalType": "uint256[2]",
					"name": "currencyRates",
					"type": "uint256[2]"
				}
			],
			"name": "updateSNXIssuedDebtOnExchange",
			"outputs": [],
			"payable": false,
			"stateMutability": "nonpayable",
			"type": "function"
		}
	],
	"evm": {
		"bytecode": {
			"linkReferences": {
				"Issuer.sol": {
					"SafeDecimalMath": [
						{
							"length": 20,
							"start": 12142
						},
						{
							"length": 20,
							"start": 13924
						},
						{
							"length": 20,
							"start": 14139
						},
						{
							"length": 20,
							"start": 16151
						},
						{
							"length": 20,
							"start": 25525
						},
						{
							"length": 20,
							"start": 26154
						},
						{
							"length": 20,
							"start": 27135
						},
						{
							"length": 20,
							"start": 29066
						}
					]
				}
			},
			"object": "60806040526040516101a081016040908152680a6f2dce8d0cae8d2f60bb1b82526822bc31b430b733b2b960b91b60208301526c45786368616e6765526174657360981b908201526d53796e746865746978537461746560901b606082015266119959541bdbdb60ca1b60808201527044656c6567617465417070726f76616c7360781b60a08201526e115d1a195c90dbdb1b185d195c985b608a1b60c08201527f4574686572436f6c6c61746572616c735553440000000000000000000000000060e08201526b526577617264457363726f7760a01b6101008201526e53796e746865746978457363726f7760881b6101208201526b4c69717569646174696f6e7360a01b6101408201526e466c657869626c6553746f7261676560881b6101608201526b53797374656d53746174757360a01b6101808201526200014a90600890600d62000604565b5034801562000163576000806200016062000652565b50505b5060405162007a1538038062007a158339818101604052604081101562000194576000806200019162000652565b50505b810190808051929190602001805192508291506008905060186103006040519081016040529190610300830182845b81620001ce620006bf565b81526020019060010190808311620001c357508793505050506001600160a01b0381166200024d5760405162461bcd60e51b815260206004820152601960248201527f4f776e657220616464726573732063616e6e6f742062652030000000000000006044820152606401604051809103906200024a62000652565b50505b8060006001816200025d620006bf565b816001600160a01b0302191690836001600160a01b03160217906200028162000721565b5050507fb532073b38c83145e3e5135377a08bf9aab55bc0fd7c1179cd4fb995d2a5159c6000826040516001600160a01b039283168152911660208201526040908101905180910390a15060008080620002da620006bf565b906101000a90046001600160a01b03166001600160a01b03161415620003455760405162461bcd60e51b815260206004820152601160248201527013dddb995c881b5d5cdd081899481cd95d607a1b6044820152606401604051809103906200034262000652565b50505b60005b6018811015620003d55760008282601881106200036157fe5b602002015114620003c65760048282601881106200037b57fe5b602002015190806001816200038f620006bf565b0180826200039c62000721565b5050600092835291600019830191506020902091929101620003bd62000721565b505050620003cc565b620003d5565b60010162000348565b50816002600181620003e6620006bf565b816001600160a01b0302191690836001600160a01b03160217906200040a62000721565b5050505050620004326e466c657869626c6553746f7261676560881b6200043a60201b60201c565b5050620008a7565b806004806001816200044b620006bf565b0180826200045862000721565b50506000928352916000198301915060209020919291016200047962000721565b50505060186004806200048b620006bf565b905010620004ea5760405162461bcd60e51b815260206004820152601b60248201527f4d6178207265736f6c7665722063616368652073697a65206d65740000000000604482015260640160405180910390620004e762000652565b50505b60006002620004f8620006bf565b906101000a90046001600160a01b03166001600160a01b03166321f8a721826040516001600160e01b031960e084901b168152600481019190915260240160206040518083038186806200054b62000770565b15801562000563576000806200056062000652565b50505b505a6200056f620007bd565b505050505015801562000591573d6000803e3d60006200058e62000652565b50505b505050506040513d6020811015620005b357600080620005b062000652565b50505b8101908080516000858152600360205290935060409250905020600181620005da620006bf565b816001600160a01b0302191690836001600160a01b0316021790620005fe62000721565b50505050565b826018810192821562000640579160200282015b8281111562000640578251826200062e62000721565b50509160200191906001019062000618565b506200064e9291506200087a565b5090565b632a2a7adb598160e01b8152600481016020815285602082015260005b868110156200068c5780860151828201604001526020016200066f565b506020828760640184336000905af158600e01573d6000803e3d6000fd5b3d6001141558600a015760016000f35b505050565b6303daa959598160e01b8152836004820152602081602483336000905af158600e01573d6000803e3d6000fd5b3d6001141558600a015760016000f35b8051935060005b60408110156200071c5760008282015260200162000703565b505050565b6322bd64c0598160e01b8152836004820152846024820152600081604483336000905af158600e01573d6000803e3d6000fd5b3d6001141558600a015760016000f35b60008152602062000703565b638435035b598160e01b8152836004820152602081602483336000905af158600e01573d6000803e3d6000fd5b3d6001141558600a015760016000f35b8051600082529350602062000703565b638540661f598160e01b8152836004820152846024820152606060448201528660648201526084810160005b8881101562000803578088015182820152602001620007e9565b50876101040182016060838a6101040185336000905af158600e01573d6000803e3d6000fd5b3d6001141558600a015760016000f35b825160408401513d6000863e8c8c82606088013350600060045af15059855b818110156200086e576000815260200162000858565b50919c50505050505050565b620008a491905b808211156200064e57600080826200089862000721565b50505060010162000881565b90565b61715e80620008b76000396000f3fe608060405234801561001957600080610016616c1f565b50505b50600436106102df5760003560e01c80637b1001b71161018b578063af5355d8116100f2578063c8977132116100ab578063dd3d2b2e11610085578063dd3d2b2e14610bac578063e3235c9114610bdb578063fd864ccf14610be3578063fe1d77e714610c1a576102df565b8063c897713214610b40578063d37c4d8b14610b6f578063dbf6334014610ba4576102df565b8063af5355d814610a9e578063b06e8c6514610aa6578063b410a03414610adb578063be84351514610ae3578063bff4fdfc14610aeb578063c6c9d82814610b1a576102df565b80639e342f71116101445780639e342f7114610950578063a311c7c214610979578063a5fdc5de146109a8578063a63c4df4146109d7578063ab49848c14610a2e578063ae3bbbbb14610a6f576102df565b80637b1001b7146108605780637d74e85d1461088e578063835e119c146108b4578063849cf588146108da5780638da5cb5b146109095780639a5154b414610911576102df565b8063364fb7651161024a5780634e99bda911610203578063631e1444116101dd578063631e1444146107ec5780636bed04151461081b57806372cb051f1461085057806379ba509714610858576102df565b80634e99bda9146107c057806353a47bb7146107dc578063614d08f8146107e4576102df565b8063364fb765146104ef5780633973a2bb1461051d5780633be99e6f1461063e57806344ec6b621461066d578063497d704a146106ac57806349e4c7b7146106db576102df565b806316b2213f1161029c57806316b2213f14610431578063172058f71461046057806321428aa014610468578063242df9e11461048a5780632b3f41aa1461049257806332608039146104c9576102df565b8063042e0688146102ed57806304f3bcec1461032457806305b3c1c9146103485780630b887dae146103895780631137aedf146103af5780631627540c14610402575b6000806102ea616c1f565b50505b6103226004803603604081101561030c57600080610309616c1f565b50505b506001600160a01b038135169060200135610cac565b005b61032c610cc4565b6040516001600160a01b03909116815260200160405180910390f35b6103776004803603602081101561036757600080610364616c1f565b50505b50356001600160a01b0316610ce3565b60405190815260200160405180910390f35b610322600480360360208110156103a8576000806103a5616c1f565b50505b5035610cf9565b6103de600480360360208110156103ce576000806103cb616c1f565b50505b50356001600160a01b03166110e6565b60405180848152602001838152602001828152602001935050505060405180910390f35b610322600480360360208110156104215760008061041e616c1f565b50505b50356001600160a01b0316611102565b610377600480360360208110156104505760008061044d616c1f565b50505b50356001600160a01b031661117c565b610322611197565b6104706115c5565b604051918252151560208201526040908101905180910390f35b610377611619565b610322600480360360408110156104b1576000806104ae616c1f565b50505b506001600160a01b0381358116916020013516611629565b61032c600480360360208110156104e8576000806104e5616c1f565b50505b5035611648565b6104f7611662565b604051928352602083019190915215156040808301919091526060909101905180910390f35b6105e26004803603602081101561053c57600080610539616c1f565b50505b810190602081018135600160201b81111561055f5760008061055c616c1f565b50505b82018360208201111561057a57600080610577616c1f565b50505b803590602001918460208302840111600160201b831117156105a4576000806105a1616c1f565b50505b91908080602002602001604051908101604052809392919081815260200183836020028082843760009201919091525092955061169b945050505050565b604051811515602082015260408082528190810184818151815260200191508051906020019060200280838360005b83811015610629578082015183820152602001610611565b50505050905001935050505060405180910390f35b6103226004803603602081101561065d5760008061065a616c1f565b50505b50356001600160a01b0316611861565b6103226004803603606081101561068c57600080610689616c1f565b50505b506001600160a01b03813581169160208101359091169060400135611a27565b610322600480360360208110156106cb576000806106c8616c1f565b50505b50356001600160a01b0316611a4a565b61076d600480360360208110156106fa576000806106f7616c1f565b50505b810190602081018135600160201b81111561071d5760008061071a616c1f565b50505b82018360208201111561073857600080610735616c1f565b50505b803590602001918460208302840111600160201b831117156107625760008061075f616c1f565b50505b509092509050611a62565b60405160208082528190810183818151815260200191508051906020019060200280838360005b838110156107ac578082015183820152602001610794565b505050509050019250505060405180910390f35b6107c8611c09565b604051901515815260200160405180910390f35b61032c611dba565b610377611dc6565b6107c86004803603602081101561080b57600080610808616c1f565b50505b50356001600160a01b0316611dd3565b6104706004803603604081101561083a57600080610837616c1f565b50505b506001600160a01b038135169060200135611fad565b61076d612011565b61032261201d565b6103776004803603604081101561087f5760008061087c616c1f565b50505b5080359060200135151561219b565b610322600480360360208110156108ad576000806108aa616c1f565b50505b50356121af565b61032c600480360360208110156108d3576000806108d0616c1f565b50505b503561226a565b610322600480360360208110156108f9576000806108f6616c1f565b50505b50356001600160a01b0316612294565b61032c6124db565b610322600480360360608110156109305760008061092d616c1f565b50505b506001600160a01b038135811691602081013590911690604001356124e6565b6103226004803603608081101561096f5760008061096c616c1f565b50505b5060408101612504565b6103776004803603602081101561099857600080610995616c1f565b50505b50356001600160a01b031661278b565b610377600480360360208110156109c7576000806109c4616c1f565b50505b50356001600160a01b031661279d565b610a16600480360360608110156109f6576000806109f3616c1f565b50505b506001600160a01b038135811691602081013591604090910135166127a8565b60405191825260208201526040908101905180910390f35b610a36612f95565b604051808261030080838360005b83811015610a5c578082015183820152602001610a44565b5050505090500191505060405180910390f35b61047060048036036020811015610a8e57600080610a8b616c1f565b50505b50356001600160a01b0316612ff7565b61037761300c565b61032260048036036040811015610ac557600080610ac2616c1f565b50505b506001600160a01b038135169060200135613016565b61037761302a565b6107c8613034565b6107c860048036036020811015610b0a57600080610b07616c1f565b50505b50356001600160a01b031661312d565b61037760048036036020811015610b3957600080610b36616c1f565b50505b5035613138565b61032260048036036020811015610b5f57600080610b5c616c1f565b50505b50356001600160a01b0316613160565b61037760048036036040811015610b8e57600080610b8b616c1f565b50505b506001600160a01b038135169060200135613175565b610377613268565b61037760048036036020811015610bcb57600080610bc8616c1f565b50505b50356001600160a01b031661327b565b610377613286565b61032260048036036040811015610c0257600080610bff616c1f565b50505b506001600160a01b038135811691602001351661328b565b61032260048036036020811015610c3957600080610c36616c1f565b50505b810190602081018135600160201b811115610c5c57600080610c59616c1f565b50505b820183602082011115610c7757600080610c74616c1f565b50505b803590602001918460208302840111600160201b83111715610ca157600080610c9e616c1f565b50505b5090925090506132aa565b610cb4613494565b610cc0828260006134fb565b5050565b60006002610cd0616c8a565b906101000a90046001600160a01b031681565b600080610cef83613713565b509150505b919050565b610d0161380b565b6000818152600660205260408120600090610d1a616c8a565b6001600160a01b036101009290920a900416905080610d7f5760405162461bcd60e51b815260206004820152601460248201527314de5b9d1a08191bd95cc81b9bdd08195e1a5cdd60621b604482015260640160405180910390610d7c616c1f565b50505b806001600160a01b03166318160ddd6040518163ffffffff1660e01b81526004016020604051808303818680610db3616ce5565b158015610dc857600080610dc5616c1f565b50505b505a610dd2616d31565b5050505050158015610df1573d6000803e3d6000610dee616c1f565b50505b505050506040513d6020811015610e1057600080610e0d616c1f565b50505b810190808051159250610e6b9150505760405162461bcd60e51b815260206004820152601360248201527253796e746820737570706c792065786973747360681b604482015260640160405180910390610e68616c1f565b50505b631cd554d160e21b821415610ec55760405162461bcd60e51b8152602060048201526013602482015272086c2dcdcdee840e4cadadeecca40e6f2dce8d606b1b604482015260640160405180910390610ec2616c1f565b50505b610ed0826000613883565b610ee2610edb613923565b6001613974565b60005b600580610ef0616c8a565b905081101561104957816001600160a01b031660058281610f0f616c8a565b8110610f1757fe5b90600052602060002001600090610f2c616c8a565b906101000a90046001600160a01b03166001600160a01b031614156110415760058181610f57616c8a565b8110610f5f57fe5b90600052602060002001600181610f74616c8a565b906001600160a01b0302191690610f89616dea565b505060056001600580610f9a616c8a565b90500381610fa6616c8a565b8110610fae57fe5b90600052602060002001600090610fc3616c8a565b906101000a90046001600160a01b031660058281610fdf616c8a565b8110610fe757fe5b90600052602060002001600181610ffc616c8a565b816001600160a01b0302191690836001600160a01b031602179061101e616dea565b50505060058061102c616c8a565b9061103b906000198301616e38565b50611049565b600101610ee5565b506001600160a01b038116600090815260076020526040902060009061106d616dea565b50506000828152600660205260409020600181611088616c8a565b906001600160a01b030219169061109d616dea565b50507f6166f5c475cc1cd535c6cdf14a6d5edb811e34117031fc2863392a136eb655d082826040519182526001600160a01b031660208201526040908101905180910390a15050565b60008060006110f484613a81565b509196909550909350915050565b61110a61380b565b8060018080611117616c8a565b816001600160a01b0302191690836001600160a01b0316021790611139616dea565b5050507f906a1c6bd7e3091ea86693dd029a831c19049ce77f1dce2ce0bab1cacbabce22816040516001600160a01b03909116815260200160405180910390a150565b60076020528060005260406000209050611194616c8a565b81565b61119f613ae9565b60606111ab6000613b9a565b9050606060006111ba8361169b565b915091506000825190506000805b828110156111fe576111f48582815181106111df57fe5b6020026020010151839063ffffffff613cbc16565b91506001016111c8565b506060600260405190808252806020026020018201604052801561122c578160200160208202803883390190505b5090507218d858da195914d396125cdcdd59591119589d606a1b8160008151811061125357fe5b6020026020010181815250507f636163686564534e584973737565644465627454696d657374616d70000000008160018151811061128d57fe5b602002602001018181525050606060026040519080825280602002602001820160405280156112c6578160200160208202803883390190505b50905082816000815181106112d757fe5b6020026020010181815250505a6112ec616e6c565b816001815181106112f957fe5b602002602001018181525050600061130f613923565b9050806001600160a01b03166303cdc0176524b9b9bab2b960d11b8a8a6040518463ffffffff1660e01b8152600401808481526020018060200180602001838103835285818151815260200191508051906020019060200280838360005b8381101561138557808201518382015260200161136d565b50505050905001838103825284818151815260200191508051906020019060200280838360005b838110156113c45780820151838201526020016113ac565b5050505090500195505050505050600060405180830381600087806113e7616ce5565b1580156113fc576000806113f9616c1f565b50505b505a611406616eb2565b505050505050158015611426573d6000803e3d6000611423616c1f565b50505b50505050806001600160a01b03166303cdc0176524b9b9bab2b960d11b85856040518463ffffffff1660e01b8152600401808481526020018060200180602001838103835285818151815260200191508051906020019060200280838360005b8381101561149e578082015183820152602001611486565b50505050905001838103825284818151815260200191508051906020019060200280838360005b838110156114dd5780820151838201526020016114c5565b505050509050019550505050505060006040518083038160008780611500616ce5565b15801561151557600080611512616c1f565b50505b505a61151f616eb2565b50505050505015801561153f573d6000803e3d600061153c616c1f565b50505b505050507f294a7c394e53042c7d754779562747d93b41db019dd4b970dd9b531db71be5998460405190815260200160405180910390a17f6eddff7d81afa874124321780c7eeb5b2af804fa8e16ef689f9f042a8f63e1fc5a6115a0616e6c565b60405190815260200160405180910390a16115bb8187613974565b5050505050505050565b600080606060006115de6115d96000613b9a565b61169b565b915091506000825190506000805b8281101561160d576116038582815181106111df57fe5b91506001016115ec565b50945090925050509091565b6000611623613d25565b90505b90565b611631613494565b61163b8282613e05565b610cc08260006001613f1c565b600660205280600052604060002060009150610cd0616c8a565b600080600080611670613923565b905060008061167e836142b5565b91509150818161168d85614530565b955095509550505050909192565b60606000606060006116ab61460f565b6001600160a01b031663c8e5bbd5866040518263ffffffff1660e01b81526004018080602001828103825283818151815260200191508051906020019060200280838360005b838110156117095780820151838201526020016116f1565b50505050905001925050506000604051808303818680611727616ce5565b15801561173c57600080611739616c1f565b50505b505a611746616d31565b5050505050158015611765573d6000803e3d6000611762616c1f565b50505b505050506040513d6000823e601f3d908101601f19168201604090815281101561179757600080611794616c1f565b50505b8101908080516040519392919084600160201b8211156117bf576000806117bc616c1f565b50505b9083019060208201858111156117dd576000806117da616c1f565b50505b82518660208202830111600160201b82111715611802576000806117ff616c1f565b50505b825250602001908051906020019060200280838360005b83811015611831578082015183820152602001611819565b505050509050016040526020018051939550929350611856925087915084905061465e565b93509150505b915091565b61186961380b565b806002600181611877616c8a565b816001600160a01b0302191690836001600160a01b0316021790611899616dea565b5060009150505b6004806118ab616c8a565b9050811015610cc0576000600482816118c2616c8a565b81106118ca57fe5b906000526020600020016118dc616c8a565b9050600060026118ea616c8a565b906101000a90046001600160a01b03166001600160a01b031663dacb2d01826040516001600160e01b031960e084901b1681526004810191909152604060248201819052601760448301527f5265736f6c766572206d697373696e6720746172676574000000000000000000606483015260849091019060209051808303818680611973616ce5565b15801561198857600080611985616c1f565b50505b505a611992616d31565b50505050501580156119b1573d6000803e3d60006119ae616c1f565b50505b505050506040513d60208110156119d0576000806119cd616c1f565b50505b81019080805160008581526003602052909350604092509050206001816119f5616c8a565b816001600160a01b0302191690836001600160a01b0316021790611a17616dea565b5050600190920191506118a09050565b611a2f613494565b611a3983836148c2565b611a45838260006134fb565b505050565b611a52613494565b611a5f8160006001613f1c565b50565b6060611a6c613923565b6001600160a01b031663b67fa7ed6524b9b9bab2b960d11b85856040518463ffffffff1660e01b8152600401808481526020018060200182810382528484828181526020019250602002808284376000838201819052601f909101601f191690920196509094506040935050505051808303818680611ae9616ce5565b158015611afe57600080611afb616c1f565b50505b505a611b08616d31565b5050505050158015611b27573d6000803e3d6000611b24616c1f565b50505b505050506040513d6000823e601f3d908101601f191682016040526020811015611b5957600080611b56616c1f565b50505b8101908080516040519392919084600160201b821115611b8157600080611b7e616c1f565b50505b908301906020820185811115611b9f57600080611b9c616c1f565b50505b82518660208202830111600160201b82111715611bc457600080611bc1616c1f565b50505b825250602001908051906020019060200280838360005b83811015611bf3578082015183820152602001611bdb565b5050505090500160405250505090505b92915050565b6000611c1361460f565b6001600160a01b031663c8e5bbd5611c2b6001613b9a565b6040518263ffffffff1660e01b81526004018080602001828103825283818151815260200191508051906020019060200280838360005b83811015611c7a578082015183820152602001611c62565b50505050905001925050506000604051808303818680611c98616ce5565b158015611cad57600080611caa616c1f565b50505b505a611cb7616d31565b5050505050158015611cd6573d6000803e3d6000611cd3616c1f565b50505b505050506040513d6000823e601f3d908101601f191682016040908152811015611d0857600080611d05616c1f565b50505b8101908080516040519392919084600160201b821115611d3057600080611d2d616c1f565b50505b908301906020820185811115611d4e57600080611d4b616c1f565b50505b82518660208202830111600160201b82111715611d7357600080611d70616c1f565b50505b825250602001908051906020019060200280838360005b83811015611da2578082015183820152602001611d8a565b50505050905001604052602001805195945050505050565b60006001610cd0616c8a565b6524b9b9bab2b960d11b81565b60006001600160a01b038216816002611dea616c8a565b906101000a90046001600160a01b03166001600160a01b031614611e1057506000610cf4565b60005b600480611e1e616c8a565b9050811015611fa457600060048281611e35616c8a565b8110611e3d57fe5b90600052602060002001611e4f616c8a565b6000818152600360205290915060409020600090611e6b616c8a565b6001600160a01b036101009290920a90041660006002611e89616c8a565b906101000a90046001600160a01b03166001600160a01b03166321f8a721836040516001600160e01b031960e084901b16815260048101919091526024016020604051808303818680611eda616ce5565b158015611eef57600080611eec616c1f565b50505b505a611ef9616d31565b5050505050158015611f18573d6000803e3d6000611f15616c1f565b50505b505050506040513d6020811015611f3757600080611f34616c1f565b50505b8101908080516001600160a01b031693909314159250829150611f8b905057506000818152600360205260408120600090611f70616c8a565b906101000a90046001600160a01b03166001600160a01b0316145b15611f9b57600092505050610cf4565b50600101611e13565b50600192915050565b6000806000611fc285620a69cb60eb1b61491b565b935090915060009050611fe3611fd6614ba1565b839063ffffffff614c1316565b9050848110611ff55760009350612008565b612005858263ffffffff614c2816565b93505b50509250929050565b60606116236000613b9a565b60006001612029616c8a565b906101000a90046001600160a01b03166001600160a01b03165a61204b616f6b565b6001600160a01b0316146120995760405162461bcd60e51b81526004018080602001828103825260358152602001806170376035913960400191505060405180910390612096616c1f565b50505b7fb532073b38c83145e3e5135377a08bf9aab55bc0fd7c1179cd4fb995d2a5159c6000806120c5616c8a565b906101000a90046001600160a01b031660016000906120e2616c8a565b906101000a90046001600160a01b03166040516001600160a01b039283168152911660208201526040908101905180910390a160006001612121616c8a565b906101000a90046001600160a01b03166000806101000a81612141616c8a565b816001600160a01b0302191690836001600160a01b0316021790612163616dea565b5050506000600160006101000a81612179616c8a565b816001600160a01b0302191690836001600160a01b0316021790611a45616dea565b60006121a78383614c8d565b509392505050565b6121b761380b565b6121c081615041565b6121c8613923565b6001600160a01b0316631d5b277f6524b9b9bab2b960d11b8360006040516001600160e01b031960e086901b16815260048101939093526024830191909152604482015260640160006040518083038160008780612224616ce5565b15801561223957600080612236616c1f565b50505b505a612243616eb2565b505050505050158015612263573d6000803e3d6000612260616c1f565b50505b5050505050565b60058181612276616c8a565b811061227e57fe5b9060005260206000200160009150610cd0616c8a565b61229c61380b565b6000816001600160a01b031663dbd06c856040518163ffffffff1660e01b815260040160206040518083038186806122d2616ce5565b1580156122e7576000806122e4616c1f565b50505b505a6122f1616d31565b5050505050158015612310573d6000803e3d600061230d616c1f565b50505b505050506040513d602081101561232f5760008061232c616c1f565b50505b810190808051935061234692508391506150419050565b6001600160a01b0382166000908152600760205260408120612366616c8a565b146123c05760405162461bcd60e51b815260206004820152601c60248201527f53796e7468206164647265737320616c726561647920657869737473000000006044820152606401604051809103906123bd616c1f565b50505b6123cb610edb613923565b816005806001816123da616c8a565b0180826123e5616dea565b5050600092835291600019830191506020902091929101600181612407616c8a565b816001600160a01b0302191690836001600160a01b0316021790612429616dea565b5050506000828152600660205283915060409020600181612448616c8a565b816001600160a01b0302191690836001600160a01b031602179061246a616dea565b5050506001600160a01b038216600090815260076020528190604090208190612491616dea565b5050507f0a2b6ebf143b3e9fcd67e17748ad315174746100c27228468b2c98c302c6288481836040519182526001600160a01b031660208201526040908101905180910390a15050565b600080610cd0616c8a565b6124ee613494565b6124f88383613e05565b611a4583826000613f1c565b61250c6150b9565b6001600160a01b03165a61251e616f6b565b6001600160a01b0316146125815760405162461bcd60e51b815260206004820152601760248201527f53656e646572206973206e6f742045786368616e67657200000000000000000060448201526064016040518091039061257e616c1f565b50505b60008235631cd554d160e21b14806125a357506020830135631cd554d160e21b145b90506000816125b35760036125b6565b60025b60ff1690506060816040519080825280602002602001820160405280156125e7578160200160208202803883390190505b5090508435816000815181106125f957fe5b602090810291909101015284600160200201358160018151811061261957fe5b602002602001018181525050606082604051908082528060200260200182016040528015612651578160200160208202803883390190505b50905084358160008151811061266357fe5b602090810291909101015284600160200201358160018151811061268357fe5b6020026020010181815250508361277757631cd554d160e21b826002815181106126a957fe5b60200260200101818152505073__$595c53754087f91f9b1379b44678cc419e$__63907af6c06040518163ffffffff1660e01b815260040160206040518083038186806126f4616ce5565b15801561270957600080612706616c1f565b50505b505a612713616fb1565b5050505050158015612732573d6000803e3d600061272f616c1f565b50505b505050506040513d60208110156127515760008061274e616c1f565b50505b8101908080519250839150600290508151811061276a57fe5b6020026020010181815250505b61278382826000615104565b505050505050565b6000612796826156d0565b5092915050565b6000611c038261572a565b6000806127b3613494565b6127bb6150b9565b6001600160a01b031663d6f32e0684631cd554d160e21b6040516001600160e01b031960e085901b1681526001600160a01b03909216600483015260248201526044016020604051808303818680612811616ce5565b15801561282657600080612823616c1f565b50505b505a612830616d31565b505050505015801561284f573d6000803e3d600061284c616c1f565b50505b505050506040513d602081101561286e5760008061286b616c1f565b50505b8101908080511592506128d39150505760405162461bcd60e51b815260206004820152601860248201527f73555344206e6565647320746f20626520736574746c656400000000000000006044820152606401604051809103906128d0616c1f565b50505b6128db6158ef565b6001600160a01b031663c49e80a6866040516001600160e01b031960e084901b1681526001600160a01b0390911660048201526024016020604051808303818680612924616ce5565b15801561293957600080612936616c1f565b50505b505a612943616d31565b5050505050158015612962573d6000803e3d600061295f616c1f565b50505b505050506040513d60208110156129815760008061297e616c1f565b50505b81019080805192506129e59150505760405162461bcd60e51b815260206004820181905260248201527f4163636f756e74206e6f74206f70656e20666f72206c69717569646174696f6e6044820152606401604051809103906129e2616c1f565b50505b631cd554d160e21b60009081526006602052849060409020600090612a08616c8a565b906101000a90046001600160a01b03166001600160a01b03166370a08231856040516001600160e01b031960e084901b1681526001600160a01b0390911660048201526024016020604051808303818680612a61616ce5565b158015612a7657600080612a73616c1f565b50505b505a612a80616d31565b5050505050158015612a9f573d6000803e3d6000612a9c616c1f565b50505b505050506040513d6020811015612abe57600080612abb616c1f565b50505b81019080805193909310159250612b199150505760405162461bcd60e51b815260206004820152600f60248201526e139bdd08195b9bdd59da081cd554d1608a1b604482015260640160405180910390612b16616c1f565b50505b6000612b236158ef565b6001600160a01b03166323f5589a6040518163ffffffff1660e01b81526004016020604051808303818680612b56616ce5565b158015612b6b57600080612b68616c1f565b50505b505a612b75616d31565b5050505050158015612b94573d6000803e3d6000612b91616c1f565b50505b505050506040513d6020811015612bb357600080612bb0616c1f565b50505b810190808051935060009250829150819050612bd689631cd554d160e21b61491b565b925092509250600080612be761460f565b6001600160a01b0316630c71cd23620a69cb60eb1b6040516001600160e01b031960e084901b168152600481019190915260240160408051808303818680612c2d616ce5565b158015612c4257600080612c3f616c1f565b50505b505a612c4c616d31565b5050505050158015612c6b573d6000803e3d6000612c68616c1f565b50505b505050506040513d6040811015612c8a57600080612c87616c1f565b50505b8101908080519291906020018051939550929350612cb59250859150819050612cb05750815b61593d565b6000612cc08c61572a565b90506000612ccc6158ef565b6001600160a01b0316630ac045d588612ce58588615995565b6040516001600160e01b031960e085901b168152600481019290925260248201526044016020604051808303818680612d1c616ce5565b158015612d3157600080612d2e616c1f565b50505b505a612d3b616d31565b5050505050158015612d5a573d6000803e3d6000612d57616c1f565b50505b505050506040513d6020811015612d7957600080612d76616c1f565b50505b810190808051935050508c82109050612d92578b612d94565b805b98506000612da28a866159a7565b9050612e6b612e5e8a73__$595c53754087f91f9b1379b44678cc419e$__63907af6c06040518163ffffffff1660e01b81526004016020604051808303818680612dea616ce5565b158015612dff57600080612dfc616c1f565b50505b505a612e09616fb1565b5050505050158015612e28573d6000803e3d6000612e25616c1f565b50505b505050506040513d6020811015612e4757600080612e44616c1f565b50505b8101908080519392505063ffffffff613cbc169050565b829063ffffffff6159b916565b9a50828b1115612ed757829a50612ed4612ece612ec18b73__$595c53754087f91f9b1379b44678cc419e$__63907af6c06040518163ffffffff1660e01b81526004016020604051808303818680612dea616ce5565b859063ffffffff6159e316565b86615995565b99505b612ee48e8d8c8b8b615a0d565b50818a1415612f8457612ef56158ef565b6001600160a01b031663974e9e7f8f6040516001600160e01b031960e084901b1681526001600160a01b03909116600482015260240160006040518083038160008780612f40616ce5565b158015612f5557600080612f52616c1f565b50505b505a612f5f616eb2565b505050505050158015612f7f573d6000803e3d6000612f7c616c1f565b50505b505050505b505050505050505050935093915050565b612f9d616ff4565b60005b600480612fab616c8a565b9050811015612ff35760048181612fc0616c8a565b8110612fc857fe5b90600052602060002001612fda616c8a565b828260188110612fe657fe5b6020020152600101612fa0565b5090565b600080613003836156d0565b91509150915091565b6000611623615b4d565b61301e613494565b610cc082826000613f1c565b6000611623614ba1565b600061303e613923565b6001600160a01b03166323257c2b6524b9b9bab2b960d11b7f636163686564534e584973737565644465627454696d657374616d70000000006040516001600160e01b031960e085901b1681526004810192909252602482015260440160206040518083038186806130ae616ce5565b1580156130c3576000806130c0616c1f565b50505b505a6130cd616d31565b50505050501580156130ec573d6000803e3d60006130e9616c1f565b50505b505050506040513d602081101561310b57600080613108616c1f565b50505b810190808051925050505a61311e616e6c565b03613127615b4d565b10905090565b6000611c0382615bc7565b60048181613144616c8a565b811061314c57fe5b906000526020600020019050611194616c8a565b613168613494565b611a5f81600060016134fb565b600080613180615bee565b90506000816001600160a01b0316638b3f8088866040516001600160e01b031960e084901b1681526001600160a01b039091166004820152602401604080518083038186806131cd616ce5565b1580156131e2576000806131df616c1f565b50505b505a6131ec616d31565b505050505015801561320b573d6000803e3d6000613208616c1f565b50505b505050506040513d604081101561322a57600080613227616c1f565b50505b8101908080519291906020018051509293505050811515905061325257600092505050611c03565b61325c858561491b565b50909695505050505050565b6000600580613275616c8a565b91505090565b6000611c0382615c3e565b601881565b613293613494565b61329d82826148c2565b610cc082600060016134fb565b6132b2613ae9565b606060006132be61460f565b6001600160a01b031663c8e5bbd585856040518363ffffffff1660e01b8152600401808060200182810382528484828181526020019250602002808284376000838201819052601f909101601f191690920195509093506040925050505180830381868061332a616ce5565b15801561333f5760008061333c616c1f565b50505b505a613349616d31565b5050505050158015613368573d6000803e3d6000613365616c1f565b50505b505050506040513d6000823e601f3d908101601f19168201604090815281101561339a57600080613397616c1f565b50505b8101908080516040519392919084600160201b8211156133c2576000806133bf616c1f565b50505b9083019060208201858111156133e0576000806133dd616c1f565b50505b82518660208202830111600160201b8211171561340557600080613402616c1f565b50505b825250602001908051906020019060200280838360005b8381101561343457808201518382015260200161341c565b50505050905001604052602001805193955092935061348e92508691508590508060208181020160405190810160405280939291908181526020018383602002808284376000920191909152508692508591506151049050565b50505050565b61349c615cec565b6001600160a01b03165a6134ae616f6b565b6001600160a01b0316146134f95760405162461bcd60e51b815260040180806020018281038252603b81526020018061708d603b913960400191505060405180910390610cc0616c1f565b565b60008060008061350a87613a81565b935093509350935061351b8161593d565b8461357557838611156135705760405162461bcd60e51b815260206004820152601060248201526f416d6f756e7420746f6f206c6172676560801b60448201526064016040518091039061356d616c1f565b50505b613579565b8395505b61358587878585615d37565b61358e8761626e565b631cd554d160e21b60009081526006602052604090206000906135af616c8a565b906101000a90046001600160a01b03166001600160a01b031663867904b488886040516001600160e01b031960e085901b1681526001600160a01b039092166004830152602482015260440160006040518083038160008780613610616ce5565b15801561362557600080613622616c1f565b50505b505a61362f616eb2565b50505050505015801561364f573d6000803e3d600061364c616c1f565b50505b5050505061370a631cd554d160e21b73__$595c53754087f91f9b1379b44678cc419e$__63907af6c06040518163ffffffff1660e01b8152600401602060405180830381868061369d616ce5565b1580156136b2576000806136af616c1f565b50505b505a6136bc616fb1565b50505050501580156136db573d6000803e3d60006136d8616c1f565b50505b505050506040513d60208110156136fa576000806136f7616c1f565b50505b8101908080519250613883915050565b6122608761632d565b60008060008061372161460f565b6001600160a01b0316630c71cd23620a69cb60eb1b6040516001600160e01b031960e084901b168152600481019190915260240160408051808303818680613767616ce5565b15801561377c57600080613779616c1f565b50505b505a613786616d31565b50505050501580156137a5573d6000803e3d60006137a2616c1f565b50505b505050506040513d60408110156137c4576000806137c1616c1f565b50505b8101908080519291906020018051939550929350600092506137f291506137ec90508761572a565b84615995565b90506137ff612e5e614ba1565b94509092505050915091565b600080613816616c8a565b906101000a90046001600160a01b03166001600160a01b03165a613838616f6b565b6001600160a01b0316146134f95760405162461bcd60e51b815260040180806020018281038252602f8152602001806170c8602f913960400191505060405180910390610cc0616c1f565b606060016040519080825280602002602001820160405280156138b0578160200160208202803883390190505b50905082816000815181106138c157fe5b602002602001018181525050606060016040519080825280602002602001820160405280156138fa578160200160208202803883390190505b509050828160008151811061390b57fe5b60200260200101818152505061348e82826000615104565b60006116236e466c657869626c6553746f7261676560881b60405160408082019052601f81527f4d697373696e6720466c657869626c6553746f726167652061646472657373006020820152616494565b600061397f83614530565b905081151581151514611a4557826001600160a01b0316633f28a6fc6524b9b9bab2b960d11b7f636163686564534e5849737375656444656274496e76616c6964000000000000856040516001600160e01b031960e086901b168152600481019390935260248301919091521515604482015260640160006040518083038160008780613a0a616ce5565b158015613a1f57600080613a1c616c1f565b50505b505a613a29616eb2565b505050505050158015613a49573d6000803e3d6000613a46616c1f565b50505b505050508115157f8eebec690c34bbf0fe0d5b93e442beaf16bdaf99052569581de2dcb3e31a53a760405160405180910390a2505050565b600080600080613a9885631cd554d160e21b61491b565b91945092509050600080613aab87613713565b915091508195508280613abb5750805b9250858510613acd5760009550613ae0565b613add868663ffffffff614c2816565b95505b50509193509193565b600080613af4616c8a565b906101000a90046001600160a01b03166001600160a01b03165a613b16616f6b565b6001600160a01b0316146134f957613b2c61655d565b6001600160a01b031663086dabd16040518163ffffffff1660e01b81526004016000604051808303818680613b5f616ce5565b158015613b7457600080613b71616c1f565b50505b505a613b7e616d31565b505050505015801561348e573d6000803e3d6000612783616c1f565b60608082613ba9576000613bac565b60015b60ff16600580613bba616c8a565b905001604051908082528060200260200182016040528015613be6578160200160208202803883390190505b50905060005b600580613bf7616c8a565b9050811015613c84576007600060058381613c10616c8a565b8110613c1857fe5b90600052602060002001600090613c2d616c8a565b906101000a90046001600160a01b03166001600160a01b03166001600160a01b03168152602001908152602001600020613c65616c8a565b828281518110613c7157fe5b6020908102919091010152600101613bec565b508215611c0357620a69cb60eb1b81600580613c9e616c8a565b905081518110613caa57fe5b60200260200101818152505092915050565b600082820183811015613d1e5760405162461bcd60e51b815260206004820152601b60248201527f536166654d6174683a206164646974696f6e206f766572666c6f770000000000604482015260640160405180910390613d1b616c1f565b50505b9392505050565b6000613d2f613923565b6001600160a01b03166323257c2b6d53797374656d53657474696e677360901b6f6d696e696d756d5374616b6554696d6560801b6040516001600160e01b031960e085901b168152600481019290925260248201526044016020604051808303818680613d9a616ce5565b158015613daf57600080613dac616c1f565b50505b505a613db9616d31565b5050505050158015613dd8573d6000803e3d6000613dd5616c1f565b50505b505050506040513d6020811015613df757600080613df4616c1f565b50505b810190808051935050505090565b613e0d6165ab565b6001600160a01b0316637d3f0ba283836040516001600160e01b031960e085901b1681526001600160a01b039283166004820152911660248201526044016020604051808303818680613e5e616ce5565b158015613e7357600080613e70616c1f565b50505b505a613e7d616d31565b5050505050158015613e9c573d6000803e3d6000613e99616c1f565b50505b505050506040513d6020811015613ebb57600080613eb8616c1f565b50505b8101908080519250610cc09150505760405162461bcd60e51b815260206004820152601d60248201527f4e6f7420617070726f76656420746f20616374206f6e20626568616c6600000060448201526064016040518091039061348e616c1f565b8061414557613f2a83615bc7565b613f835760405162461bcd60e51b815260206004820152601e60248201527f4d696e696d756d207374616b652074696d65206e6f7420726561636865640000604482015260640160405180910390613f80616c1f565b50505b600080613f8e6150b9565b6001600160a01b0316631b16802c86631cd554d160e21b6040516001600160e01b031960e085901b1681526001600160a01b039092166004830152602482015260440160606040518083038160008780613fe6616ce5565b158015613ffb57600080613ff8616c1f565b50505b505a614005616eb2565b505050505050158015614025573d6000803e3d6000614022616c1f565b50505b505050506040513d606081101561404457600080614041616c1f565b50505b810190808051929190602001805192919060200180519396509294505083159250614142915050576140746150b9565b6001600160a01b0316634c268fc886631cd554d160e21b87866040516001600160e01b031960e087901b1681526001600160a01b03909416600485015260248401929092526044830152606482015260840160206040518083038186806140d9616ce5565b1580156140ee576000806140eb616c1f565b50505b505a6140f8616d31565b5050505050158015614117573d6000803e3d6000614114616c1f565b50505b505050506040513d602081101561413657600080614133616c1f565b50505b81019080805196505050505b50505b600080600061415b86631cd554d160e21b61491b565b92509250925060008061416d88613713565b915091506141818380612cb057508161593d565b600085116141d35760405162461bcd60e51b81526020600482015260126024820152714e6f206465627420746f20666f726769766560701b6044820152606401604051809103906141d0616c1f565b50505b85156141ec576141e9858363ffffffff614c2816565b96505b60006141fb898a8a8989615a0d565b90508261420e878363ffffffff614c2816565b116142aa5761421b6158ef565b6001600160a01b031663974e9e7f8a6040516001600160e01b031960e084901b1681526001600160a01b03909116600482015260240160006040518083038160008780614266616ce5565b15801561427b57600080614278616c1f565b50505b505a614285616eb2565b5050505050501580156142a5573d6000803e3d60006142a2616c1f565b50505b505050505b505050505050505050565b600080606060026040519080825280602002602001820160405280156142e5578160200160208202803883390190505b5090507218d858da195914d396125cdcdd59591119589d606a1b8160008151811061430c57fe5b6020026020010181815250507f636163686564534e584973737565644465627454696d657374616d70000000008160018151811061434657fe5b6020026020010181815250506060846001600160a01b031663b67fa7ed6524b9b9bab2b960d11b846040518363ffffffff1660e01b81526004018083815260200180602001828103825283818151815260200191508051906020019060200280838360005b838110156143c35780820151838201526020016143ab565b50505050905001935050505060006040518083038186806143e2616ce5565b1580156143f7576000806143f4616c1f565b50505b505a614401616d31565b5050505050158015614420573d6000803e3d600061441d616c1f565b50505b505050506040513d6000823e601f3d908101601f1916820160405260208110156144525760008061444f616c1f565b50505b8101908080516040519392919084600160201b82111561447a57600080614477616c1f565b50505b90830190602082018581111561449857600080614495616c1f565b50505b82518660208202830111600160201b821117156144bd576000806144ba616c1f565b50505b825250602001908051906020019060200280838360005b838110156144ec5780820151838201526020016144d4565b5050505090500160405250505090508060008151811061450857fe5b60200260200101518160018151811061451d57fe5b6020026020010151935093505050915091565b6000816001600160a01b031663d994502d6524b9b9bab2b960d11b7f636163686564534e5849737375656444656274496e76616c69640000000000006040516001600160e01b031960e085901b1681526004810192909252602482015260440160206040518083038186806145a3616ce5565b1580156145b8576000806145b5616c1f565b50505b505a6145c2616d31565b50505050501580156145e1573d6000803e3d60006145de616c1f565b50505b505050506040513d6020811015614600576000806145fd616c1f565b50505b81019080805195945050505050565b60006116236c45786368616e6765526174657360981b60405160408082019052601d81527f4d697373696e672045786368616e6765526174657320616464726573730000006020820152616494565b6060600083519050606081604051908082528060200260200182016040528015614692578160200160208202803883390190505b50905060005b828110156148b95760008682815181106146ae57fe5b602002602001015160008181526006602052909150604081206000906146d2616c8a565b906101000a90046001600160a01b03166001600160a01b03166318160ddd6040518163ffffffff1660e01b81526004016020604051808303818680614715616ce5565b15801561472a57600080614727616c1f565b50505b505a614734616d31565b5050505050158015614753573d6000803e3d6000614750616c1f565b50505b505050506040513d60208110156147725760008061476f616c1f565b50505b81019080805193505050631cd554d160e21b83149050808061479a5750630e68aa8960e31b83145b15614873576000816147b3576147ae6165e1565b6147bb565b6147bb616632565b90506000816001600160a01b031663ee5f3f5c6040518163ffffffff1660e01b815260040160206040518083038186806147f3616ce5565b15801561480857600080614805616c1f565b50505b505a614812616d31565b5050505050158015614831573d6000803e3d600061482e616c1f565b50505b505050506040513d60208110156148505760008061484d616c1f565b50505b810190808051935061486e925086915083905063ffffffff614c2816565b935050505b61489788858151811061488257fe5b6020026020010151839063ffffffff61666a16565b8585815181106148a357fe5b6020908102919091010152505050600101614698565b50949350505050565b6148ca6165ab565b6001600160a01b0316630487261783836040516001600160e01b031960e085901b1681526001600160a01b039283166004820152911660248201526044016020604051808303818680613e5e616ce5565b600080600080614929615bee565b9050600080826001600160a01b0316638b3f8088896040516001600160e01b031960e084901b1681526001600160a01b03909116600482015260240160408051808303818680614977616ce5565b15801561498c57600080614989616c1f565b50505b505a614996616d31565b50505050501580156149b5573d6000803e3d60006149b2616c1f565b50505b505050506040513d60408110156149d4576000806149d1616c1f565b50505b81019080805192919060200180519395509293506149f9925089915060019050614c8d565b909550935081614a10575060009450614b9a915050565b6000614b7683614b6a866001600160a01b03166308d95cd5866040516001600160e01b031960e084901b16815260048101919091526024016020604051808303818680614a5b616ce5565b158015614a7057600080614a6d616c1f565b50505b505a614a7a616d31565b5050505050158015614a99573d6000803e3d6000614a96616c1f565b50505b505050506040513d6020811015614ab857600080614ab5616c1f565b50505b810190808051925050506001600160a01b03881663463177126040518163ffffffff1660e01b81526004016020604051808303818680614af6616ce5565b158015614b0b57600080614b08616c1f565b50505b505a614b15616d31565b5050505050158015614b34573d6000803e3d6000614b31616c1f565b50505b505050506040513d6020811015614b5357600080614b50616c1f565b50505b8101908080519392505063ffffffff61667f169050565b9063ffffffff61669816565b90506000614b8782614b6a896166b1565b9050614b92816166c7565b975050505050505b9250925092565b6000614bab613923565b6001600160a01b03166323257c2b6d53797374656d53657474696e677360901b6c69737375616e6365526174696f60981b6040516001600160e01b031960e085901b168152600481019290925260248201526044016020604051808303818680613d9a616ce5565b6000613d1e8383670de0b6b3a76400006166e9565b600082821115614c875760405162461bcd60e51b815260206004820152601e60248201527f536166654d6174683a207375627472616374696f6e206f766572666c6f770000604482015260640160405180910390614c84616c1f565b50505b50900390565b6000806000614c9a613923565b9050600080614ca8836142b5565b915091506000815a614cb8616e6c565b03614cc1615b4d565b1090508080614cd45750614cd484614530565b80614cdd575081155b94506000614ce961460f565b905087614f3e57614da2614cfb616632565b6001600160a01b031663ee5f3f5c6040518163ffffffff1660e01b81526004016020604051808303818680614d2e616ce5565b158015614d4357600080614d40616c1f565b50505b505a614d4d616d31565b5050505050158015614d6c573d6000803e3d6000614d69616c1f565b50505b505050506040513d6020811015614d8b57600080614d88616c1f565b50505b81019080805188935091505063ffffffff613cbc16565b9350600080826001600160a01b0316630c71cd23630e68aa8960e31b6040516001600160e01b031960e084901b168152600481019190915260240160408051808303818680614def616ce5565b158015614e0457600080614e01616c1f565b50505b505a614e0e616d31565b5050505050158015614e2d573d6000803e3d6000614e2a616c1f565b50505b505050506040513d6040811015614e4c57600080614e49616c1f565b50505b810190808051929190602001805193955092935060009250614f1b9150849050614e746165e1565b6001600160a01b031663ee5f3f5c6040518163ffffffff1660e01b81526004016020604051808303818680614ea7616ce5565b158015614ebc57600080614eb9616c1f565b50505b505a614ec6616d31565b5050505050158015614ee5573d6000803e3d6000614ee2616c1f565b50505b505050506040513d6020811015614f0457600080614f01616c1f565b50505b8101908080519392505063ffffffff61666a169050565b9050614f2d878263ffffffff613cbc16565b96508880614f385750815b98505050505b631cd554d160e21b891415614f5a575091945061503a92505050565b600080826001600160a01b0316630c71cd238c6040516001600160e01b031960e084901b168152600481019190915260240160408051808303818680614f9e616ce5565b158015614fb357600080614fb0616c1f565b50505b505a614fbd616d31565b5050505050158015614fdc573d6000803e3d6000614fd9616c1f565b50505b505050506040513d6040811015614ffb57600080614ff8616c1f565b50505b8101908080519291906020018051939550929350615025925088915084905063ffffffff614c1316565b888061502e5750815b98509850505050505050505b9250929050565b600081815260066020526040812060009061505a616c8a565b906101000a90046001600160a01b03166001600160a01b031614611a5f5760405162461bcd60e51b815260206004820152600c60248201526b53796e74682065786973747360a01b604482015260640160405180910390611a45616c1f565b60006116236822bc31b430b733b2b960b91b60405160408082019052601981527f4d697373696e672045786368616e6765722061646472657373000000000000006020820152616494565b600083519050825181146151675760405162461bcd60e51b815260206004820152601a60248201527f496e707574206172726179206c656e6774687320646966666572000000000000604482015260640160405180910390615164616c1f565b50505b6000615171613923565b90506060816001600160a01b031663b67fa7ed6524b9b9bab2b960d11b886040518363ffffffff1660e01b81526004018083815260200180602001828103825283818151815260200191508051906020019060200280838360005b838110156151e45780820151838201526020016151cc565b5050505090500193505050506000604051808303818680615203616ce5565b15801561521857600080615215616c1f565b50505b505a615222616d31565b5050505050158015615241573d6000803e3d600061523e616c1f565b50505b505050506040513d6000823e601f3d908101601f19168201604052602081101561527357600080615270616c1f565b50505b8101908080516040519392919084600160201b82111561529b57600080615298616c1f565b50505b9083019060208201858111156152b9576000806152b6616c1f565b50505b82518660208202830111600160201b821117156152de576000806152db616c1f565b50505b825250602001908051906020019060200280838360005b8381101561530d5780820151838201526020016152f5565b5050505090500160405250505090506060615328878761465e565b9050826001600160a01b03166303cdc0176524b9b9bab2b960d11b89846040518463ffffffff1660e01b8152600401808481526020018060200180602001838103835285818151815260200191508051906020019060200280838360005b8381101561539e578082015183820152602001615386565b50505050905001838103825284818151815260200191508051906020019060200280838360005b838110156153dd5780820151838201526020016153c5565b505050509050019550505050505060006040518083038160008780615400616ce5565b15801561541557600080615412616c1f565b50505b505a61541f616eb2565b50505050505015801561543f573d6000803e3d600061543c616c1f565b50505b5050505060008060008090505b868110156154935761547885828151811061546357fe5b6020026020010151849063ffffffff613cbc16565b92506154898482815181106111df57fe5b915060010161544c565b508082146156c0576000856001600160a01b03166323257c2b6524b9b9bab2b960d11b7218d858da195914d396125cdcdd59591119589d606a1b6040516001600160e01b031960e085901b168152600481019290925260248201526044016020604051808303818680615504616ce5565b15801561551957600080615516616c1f565b50505b505a615523616d31565b5050505050158015615542573d6000803e3d600061553f616c1f565b50505b505050506040513d60208110156155615760008061555e616c1f565b50505b8101908080519350505050808311156155b45760405162461bcd60e51b815260040180806020018281038252602381526020018061711860239139604001915050604051809103906155b1616c1f565b50505b6155d4826155c8838663ffffffff614c2816565b9063ffffffff613cbc16565b9050856001600160a01b0316631d5b277f6524b9b9bab2b960d11b7218d858da195914d396125cdcdd59591119589d606a1b846040516001600160e01b031960e086901b16815260048101939093526024830191909152604482015260640160006040518083038160008780615648616ce5565b15801561565d5760008061565a616c1f565b50505b505a615667616eb2565b505050505050158015615687573d6000803e3d6000615684616c1f565b50505b505050507f294a7c394e53042c7d754779562747d93b41db019dd4b970dd9b531db71be5998160405190815260200160405180910390a1505b86156142aa576142aa8588613974565b60008060006156de8461572a565b90506000806156f386620a69cb60eb1b61491b565b9250509150826000141561570f5760009450925061185c915050565b61571f828463ffffffff614c1316565b945092505050915091565b600080615735615cec565b6001600160a01b03166370a08231846040516001600160e01b031960e084901b1681526001600160a01b039091166004820152602401602060405180830381868061577e616ce5565b15801561579357600080615790616c1f565b50505b505a61579d616d31565b50505050501580156157bc573d6000803e3d60006157b9616c1f565b50505b505050506040513d60208110156157db576000806157d8616c1f565b50505b8101908080519350600092506157f391506167219050565b6001600160a01b0316146158cc576158c961580c616721565b6001600160a01b03166370a08231856040516001600160e01b031960e084901b1681526001600160a01b0390911660048201526024016020604051808303818680615855616ce5565b15801561586a57600080615867616c1f565b50505b505a615874616d31565b5050505050158015615893573d6000803e3d6000615890616c1f565b50505b505050506040513d60208110156158b2576000806158af616c1f565b50505b81019080805185935091505063ffffffff613cbc16565b90505b60006158d6616772565b6001600160a01b031614611c0357613d1e61580c616772565b60006116236b4c69717569646174696f6e7360a01b60405160408082019052601c81527f4d697373696e67204c69717569646174696f6e732061646472657373000000006020820152616494565b8015611a5f5760405162461bcd60e51b815260206004820152601e60248201527f412073796e7468206f7220534e58207261746520697320696e76616c69640000604482015260640160405180910390611a45616c1f565b6000613d1e838363ffffffff61666a16565b6000613d1e838363ffffffff614c1316565b6000670de0b6b3a76400006159d4848463ffffffff6167c016565b816159db57fe5b049392505050565b6000613d1e82615a0185670de0b6b3a764000063ffffffff6167c016565b9063ffffffff61681f16565b6000838310615a1c5783615a1e565b825b9050615a2c86828585616891565b631cd554d160e21b6000908152600660205260409020600090615a4d616c8a565b906101000a90046001600160a01b03166001600160a01b0316639dc29fac86836040516001600160e01b031960e085901b1681526001600160a01b039092166004830152602482015260440160006040518083038160008780615aae616ce5565b158015615ac357600080615ac0616c1f565b50505b505a615acd616eb2565b505050505050158015615aed573d6000803e3d6000615aea616c1f565b50505b50505050615b3b631cd554d160e21b73__$595c53754087f91f9b1379b44678cc419e$__63907af6c06040518163ffffffff1660e01b8152600401602060405180830381868061369d616ce5565b615b448661632d565b95945050505050565b6000615b57613923565b6001600160a01b03166323257c2b6d53797374656d53657474696e677360901b7464656274536e617073686f745374616c6554696d6560581b6040516001600160e01b031960e085901b168152600481019290925260248201526044016020604051808303818680613d9a616ce5565b6000615bdd615bd4613d25565b6155c884615c3e565b5a615be6616e6c565b101592915050565b60006116236d53796e746865746978537461746560901b60405160408082019052601e81527f4d697373696e672053796e7468657469785374617465206164647265737300006020820152616494565b6000615c48613923565b6001600160a01b03166323257c2b6524b9b9bab2b960d11b6d1b185cdd125cdcdd59515d995b9d60921b8560405160200180838152602001826001600160a01b03166001600160a01b031660601b815260140192505050604051602081830303815290604052805190602001206040516001600160e01b031960e085901b1681526004810192909252602482015260440160206040518083038186806145a3616ce5565b6000611623680a6f2dce8d0cae8d2f60bb1b60405160408082019052601981527f4d697373696e672053796e7468657469782061646472657373000000000000006020820152616494565b6000615d41615bee565b90506000615d55858463ffffffff613cbc16565b90506000615d69868363ffffffff61667f16565b90506000615e248273__$595c53754087f91f9b1379b44678cc419e$__63d5e5e6e66040518163ffffffff1660e01b81526004016020604051808303818680615db0616ce5565b158015615dc557600080615dc2616c1f565b50505b505a615dcf616fb1565b5050505050158015615dee573d6000803e3d6000615deb616c1f565b50505b505050506040513d6020811015615e0d57600080615e0a616c1f565b50505b8101908080519392505063ffffffff614c28169050565b90508515615e5357615e4c83615e40898963ffffffff613cbc16565b9063ffffffff61667f16565b9150615ecd565b836001600160a01b0316631bfba5956040518163ffffffff1660e01b815260040160006040518083038160008780615e89616ce5565b158015615e9e57600080615e9b616c1f565b50505b505a615ea8616eb2565b505050505050158015615ec8573d6000803e3d6000615ec5616c1f565b50505b505050505b836001600160a01b031663a764eb4589846040516001600160e01b031960e085901b1681526001600160a01b039092166004830152602482015260440160006040518083038160008780615f1f616ce5565b158015615f3457600080615f31616c1f565b50505b505a615f3e616eb2565b505050505050158015615f5e573d6000803e3d6000615f5b616c1f565b50505b505050506000846001600160a01b031663cd92eba96040518163ffffffff1660e01b81526004016020604051808303818680615f98616ce5565b158015615fad57600080615faa616c1f565b50505b505a615fb7616d31565b5050505050158015615fd6573d6000803e3d6000615fd3616c1f565b50505b505050506040513d6020811015615ff557600080615ff2616c1f565b50505b81019080805193909311159250616137915050576001600160a01b038416633d31e97b6160bb838363463177126040518163ffffffff1660e01b81526004016020604051808303818680616047616ce5565b15801561605c57600080616059616c1f565b50505b505a616066616d31565b5050505050158015616085573d6000803e3d6000616082616c1f565b50505b505050506040513d60208110156160a4576000806160a1616c1f565b50505b8101908080519392505063ffffffff616698169050565b6040516001600160e01b031960e084901b1681526004810191909152602401600060405180830381600087806160ef616ce5565b15801561610457600080616101616c1f565b50505b505a61610e616eb2565b50505050505015801561612e573d6000803e3d600061612b616c1f565b50505b505050506115bb565b836001600160a01b0316633d31e97b73__$595c53754087f91f9b1379b44678cc419e$__63d5e5e6e66040518163ffffffff1660e01b81526004016020604051808303818680616185616ce5565b15801561619a57600080616197616c1f565b50505b505a6161a4616fb1565b50505050501580156161c3573d6000803e3d60006161c0616c1f565b50505b505050506040513d60208110156161e2576000806161df616c1f565b50505b81019080805192506040915050516001600160e01b031960e084901b168152600481019190915260240160006040518083038160008780616221616ce5565b15801561623657600080616233616c1f565b50505b505a616240616eb2565b505050505050158015616260573d6000803e3d600061625d616c1f565b50505b505050505050505050505050565b616276613923565b6001600160a01b0316631d5b277f6524b9b9bab2b960d11b6d1b185cdd125cdcdd59515d995b9d60921b8460405160200180838152602001826001600160a01b03166001600160a01b031660601b815260140192505050604051602081830303815290604052805190602001205a6162ec616e6c565b6040516001600160e01b031960e086901b16815260048101939093526024830191909152604482015260640160006040518083038160008780612224616ce5565b600080616338615bee565b6001600160a01b0316638b3f8088846040516001600160e01b031960e084901b1681526001600160a01b03909116600482015260240160408051808303818680616380616ce5565b15801561639557600080616392616c1f565b50505b505a61639f616d31565b50505050501580156163be573d6000803e3d60006163bb616c1f565b50505b505050506040513d60408110156163dd576000806163da616c1f565b50505b81019080805192919060200180519395509293506163fe9250616bab915050565b6001600160a01b031663866452748484846040516001600160e01b031960e086901b1681526001600160a01b0390931660048401526024830191909152604482015260640160006040518083038160008780616458616ce5565b15801561646d5760008061646a616c1f565b50505b505a616477616eb2565b505050505050158015612260573d6000803e3d60006142aa616c1f565b6000828152600360205280604081206000906164ae616c8a565b6001600160a01b036101009290920a900416905082816121a75760405162461bcd60e51b81526004018080602001828103825283818151815260200191508051906020019080838360005b838110156165115780820151838201526020016164f9565b50505050905090810190601f16801561653e5780820380516001836020036101000a031916815260200191505b509250505060405180910390616552616c1f565b505050905092915050565b60006116236b53797374656d53746174757360a01b60405160408082019052601c81527f4d697373696e672053797374656d5374617475732061646472657373000000006020820152616494565b60006116237044656c6567617465417070726f76616c7360781b60405160608101604052602180825261706c6020830139616494565b60006116236e115d1a195c90dbdb1b185d195c985b608a1b60405160408082019052601f81527f4d697373696e67204574686572436f6c6c61746572616c2061646472657373006020820152616494565b600061162372115d1a195c90dbdb1b185d195c985b1cd554d1606a1b60405160608101604052602380825261713b6020830139616494565b6000613d1e8383670de0b6b3a7640000616bf4565b6000613d1e83836b033b2e3c9fd0803ce80000006166e9565b6000613d1e83836b033b2e3c9fd0803ce8000000616bf4565b6000611c0382633b9aca0063ffffffff6167c016565b60006305f5e10082046005600a8206106166df57600a015b600a900492915050565b60008061670384615a0187600a870263ffffffff6167c016565b90506005600a825b061061671557600a015b600a9004949350505050565b60006116236e53796e746865746978457363726f7760881b60405160408082019052601f81527f4d697373696e672053796e746865746978457363726f772061646472657373006020820152616494565b60006116236b526577617264457363726f7760a01b60405160408082019052601c81527f4d697373696e6720526577617264457363726f772061646472657373000000006020820152616494565b6000826167cf57506000611c03565b828202828482816167dc57fe5b0414613d1e5760405162461bcd60e51b81526004018080602001828103825260218152602001806170f76021913960400191505060405180910390613d1b616c1f565b600080821161687d5760405162461bcd60e51b815260206004820152601a60248201527f536166654d6174683a206469766973696f6e206279207a65726f00000000000060448201526064016040518091039061687a616c1f565b50505b600082848161688857fe5b04949350505050565b600061689b615bee565b905060006168af838663ffffffff614c2816565b9050600081156169145760006168cb878463ffffffff61667f16565b90506169108173__$595c53754087f91f9b1379b44678cc419e$__63d5e5e6e66040518163ffffffff1660e01b81526004016020604051808303818680612dea616ce5565b9150505b84861415616a3057826001600160a01b031663a764eb458860006040516001600160e01b031960e085901b1681526001600160a01b03909216600483015260248201526044016000604051808303816000878061696f616ce5565b15801561698457600080616981616c1f565b50505b505a61698e616eb2565b5050505050501580156169ae573d6000803e3d60006169ab616c1f565b50505b50505050826001600160a01b031663ba08f2996040518163ffffffff1660e01b8152600401600060405180830381600087806169e8616ce5565b1580156169fd576000806169fa616c1f565b50505b505a616a07616eb2565b505050505050158015616a27573d6000803e3d6000616a24616c1f565b50505b50505050616af0565b6000616a42868863ffffffff614c2816565b90506000616a56828563ffffffff61667f16565b9050846001600160a01b031663a764eb458a836040516001600160e01b031960e085901b1681526001600160a01b039092166004830152602482015260440160006040518083038160008780616aaa616ce5565b158015616abf57600080616abc616c1f565b50505b505a616ac9616eb2565b505050505050158015616ae9573d6000803e3d6000616ae6616c1f565b50505b5050505050505b6001600160a01b038316633d31e97b616b2e838363463177126040518163ffffffff1660e01b81526004016020604051808303818680616047616ce5565b6040516001600160e01b031960e084901b168152600481019190915260240160006040518083038160008780616b62616ce5565b158015616b7757600080616b74616c1f565b50505b505a616b81616eb2565b505050505050158015616b9e573d6000803e3d60006142a5616c1f565b5050505050505050505050565b600061162366119959541bdbdb60ca1b60405160408082019052601781527f4d697373696e6720466565506f6f6c20616464726573730000000000000000006020820152616494565b600080600a8304616c0b868663ffffffff6167c016565b81616c1257fe5b0490506005600a8261670b565b632a2a7adb598160e01b8152600481016020815285602082015260005b86811015616c57578086015182820160400152602001616c3c565b506020828760640184336000905af158600e01573d6000803e3d6000fd5b3d6001141558600a015760016000f35b505050565b6303daa959598160e01b8152836004820152602081602483336000905af158600e01573d6000803e3d6000fd5b3d6001141558600a015760016000f35b8051935060005b6040811015611a4557600082820152602001616cce565b638435035b598160e01b8152836004820152602081602483336000905af158600e01573d6000803e3d6000fd5b3d6001141558600a015760016000f35b80516000825293506020616cce565b638540661f598160e01b8152836004820152846024820152606060448201528660648201526084810160005b88811015616d75578088015182820152602001616d5d565b50876101040182016060838a6101040185336000905af158600e01573d6000803e3d6000fd5b3d6001141558600a015760016000f35b825160408401513d6000863e8c8c82606088013350600060045af15059855b81811015616dde5760008152602001616dca565b50919c50505050505050565b6322bd64c0598160e01b8152836004820152846024820152600081604483336000905af158600e01573d6000803e3d6000fd5b3d6001141558600a015760016000f35b600081526020616cce565b81616e41616c8a565b8183616e4b616dea565b505081811115611a455781836000526020600020611a459281019101617011565b63bdbf8c36598160e01b8152602081600483336000905af158600e01573d6000803e3d6000fd5b3d6001141558600a015760016000f35b80516000825293506020616cce565b6385979f76598160e01b8152836004820152846024820152606060448201528760648201526084810160005b89811015616ef6578089015182820152602001616ede565b50886101040182016060838b6101040185336000905af158600e01573d6000803e3d6000fd5b3d6001141558600a015760016000f35b825160408401513d6000863e8d8d82606088013350600060045af15059855b81811015616f5f5760008152602001616f4b565b50919d50505050505050565b6373509064598160e01b8152602081600483336000905af158600e01573d6000803e3d6000fd5b3d6001141558600a015760016000f35b80516000825293506020616cce565b63ffe73914598160e01b81528360048201528460248201526060604482015286606482015260848101600088811015616d75578088015182820152602001616d5d565b604051610300808201604052601890829080388339509192915050565b61162691905b80821115612ff3576000808261702b616dea565b50505060010161701756fe596f75206d757374206265206e6f6d696e61746564206265666f726520796f752063616e20616363657074206f776e6572736869704d697373696e672044656c6567617465417070726f76616c7320616464726573734973737565723a204f6e6c79207468652073796e74686574697820636f6e74726163742063616e20706572666f726d207468697320616374696f6e4f6e6c792074686520636f6e7472616374206f776e6572206d617920706572666f726d207468697320616374696f6e536166654d6174683a206d756c7469706c69636174696f6e206f766572666c6f774361636865642073796e74682073756d206578636565647320746f74616c20646562744d697373696e67204574686572436f6c6c61746572616c735553442061646472657373",
			"opcodes": "PUSH1 0x80 PUSH1 0x40 MSTORE PUSH1 0x40 MLOAD PUSH2 0x1A0 DUP2 ADD PUSH1 0x40 SWAP1 DUP2 MSTORE PUSH9 0xA6F2DCE8D0CAE8D2F PUSH1 0xBB SHL DUP3 MSTORE PUSH9 0x22BC31B430B733B2B9 PUSH1 0xB9 SHL PUSH1 0x20 DUP4 ADD MSTORE PUSH13 0x45786368616E67655261746573 PUSH1 0x98 SHL SWAP1 DUP3 ADD MSTORE PUSH14 0x53796E7468657469785374617465 PUSH1 0x90 SHL PUSH1 0x60 DUP3 ADD MSTORE PUSH7 0x119959541BDBDB PUSH1 0xCA SHL PUSH1 0x80 DUP3 ADD MSTORE PUSH17 0x44656C6567617465417070726F76616C73 PUSH1 0x78 SHL PUSH1 0xA0 DUP3 ADD MSTORE PUSH15 0x115D1A195C90DBDB1B185D195C985B PUSH1 0x8A SHL PUSH1 0xC0 DUP3 ADD MSTORE PUSH32 0x4574686572436F6C6C61746572616C7355534400000000000000000000000000 PUSH1 0xE0 DUP3 ADD MSTORE PUSH12 0x526577617264457363726F77 PUSH1 0xA0 SHL PUSH2 0x100 DUP3 ADD MSTORE PUSH15 0x53796E746865746978457363726F77 PUSH1 0x88 SHL PUSH2 0x120 DUP3 ADD MSTORE PUSH12 0x4C69717569646174696F6E73 PUSH1 0xA0 SHL PUSH2 0x140 DUP3 ADD MSTORE PUSH15 0x466C657869626C6553746F72616765 PUSH1 0x88 SHL PUSH2 0x160 DUP3 ADD MSTORE PUSH12 0x53797374656D537461747573 PUSH1 0xA0 SHL PUSH2 0x180 DUP3 ADD MSTORE PUSH3 0x14A SWAP1 PUSH1 0x8 SWAP1 PUSH1 0xD PUSH3 0x604 JUMP JUMPDEST POP CALLVALUE DUP1 ISZERO PUSH3 0x163 JUMPI PUSH1 0x0 DUP1 PUSH3 0x160 PUSH3 0x652 JUMP JUMPDEST POP POP JUMPDEST POP PUSH1 0x40 MLOAD PUSH3 0x7A15 CODESIZE SUB DUP1 PUSH3 0x7A15 DUP4 CODECOPY DUP2 DUP2 ADD PUSH1 0x40 MSTORE PUSH1 0x40 DUP2 LT ISZERO PUSH3 0x194 JUMPI PUSH1 0x0 DUP1 PUSH3 0x191 PUSH3 0x652 JUMP JUMPDEST POP POP JUMPDEST DUP2 ADD SWAP1 DUP1 DUP1 MLOAD SWAP3 SWAP2 SWAP1 PUSH1 0x20 ADD DUP1 MLOAD SWAP3 POP DUP3 SWAP2 POP PUSH1 0x8 SWAP1 POP PUSH1 0x18 PUSH2 0x300 PUSH1 0x40 MLOAD SWAP1 DUP2 ADD PUSH1 0x40 MSTORE SWAP2 SWAP1 PUSH2 0x300 DUP4 ADD DUP3 DUP5 JUMPDEST DUP2 PUSH3 0x1CE PUSH3 0x6BF JUMP JUMPDEST DUP2 MSTORE PUSH1 0x20 ADD SWAP1 PUSH1 0x1 ADD SWAP1 DUP1 DUP4 GT PUSH3 0x1C3 JUMPI POP DUP8 SWAP4 POP POP POP POP PUSH1 0x1 PUSH1 0x1 PUSH1 0xA0 SHL SUB DUP2 AND PUSH3 0x24D JUMPI PUSH1 0x40 MLOAD PUSH3 0x461BCD PUSH1 0xE5 SHL DUP2 MSTORE PUSH1 0x20 PUSH1 0x4 DUP3 ADD MSTORE PUSH1 0x19 PUSH1 0x24 DUP3 ADD MSTORE PUSH32 0x4F776E657220616464726573732063616E6E6F74206265203000000000000000 PUSH1 0x44 DUP3 ADD MSTORE PUSH1 0x64 ADD PUSH1 0x40 MLOAD DUP1 SWAP2 SUB SWAP1 PUSH3 0x24A PUSH3 0x652 JUMP JUMPDEST POP POP JUMPDEST DUP1 PUSH1 0x0 PUSH1 0x1 DUP2 PUSH3 0x25D PUSH3 0x6BF JUMP JUMPDEST DUP2 PUSH1 0x1 PUSH1 0x1 PUSH1 0xA0 SHL SUB MUL NOT AND SWAP1 DUP4 PUSH1 0x1 PUSH1 0x1 PUSH1 0xA0 SHL SUB AND MUL OR SWAP1 PUSH3 0x281 PUSH3 0x721 JUMP JUMPDEST POP POP POP PUSH32 0xB532073B38C83145E3E5135377A08BF9AAB55BC0FD7C1179CD4FB995D2A5159C PUSH1 0x0 DUP3 PUSH1 0x40 MLOAD PUSH1 0x1 PUSH1 0x1 PUSH1 0xA0 SHL SUB SWAP3 DUP4 AND DUP2 MSTORE SWAP2 AND PUSH1 0x20 DUP3 ADD MSTORE PUSH1 0x40 SWAP1 DUP2 ADD SWAP1 MLOAD DUP1 SWAP2 SUB SWAP1 LOG1 POP PUSH1 0x0 DUP1 DUP1 PUSH3 0x2DA PUSH3 0x6BF JUMP JUMPDEST SWAP1 PUSH2 0x100 EXP SWAP1 DIV PUSH1 0x1 PUSH1 0x1 PUSH1 0xA0 SHL SUB AND PUSH1 0x1 PUSH1 0x1 PUSH1 0xA0 SHL SUB AND EQ ISZERO PUSH3 0x345 JUMPI PUSH1 0x40 MLOAD PUSH3 0x461BCD PUSH1 0xE5 SHL DUP2 MSTORE PUSH1 0x20 PUSH1 0x4 DUP3 ADD MSTORE PUSH1 0x11 PUSH1 0x24 DUP3 ADD MSTORE PUSH17 0x13DDDB995C881B5D5CDD081899481CD95D PUSH1 0x7A SHL PUSH1 0x44 DUP3 ADD MSTORE PUSH1 0x64 ADD PUSH1 0x40 MLOAD DUP1 SWAP2 SUB SWAP1 PUSH3 0x342 PUSH3 0x652 JUMP JUMPDEST POP POP JUMPDEST PUSH1 0x0 JUMPDEST PUSH1 0x18 DUP2 LT ISZERO PUSH3 0x3D5 JUMPI PUSH1 0x0 DUP3 DUP3 PUSH1 0x18 DUP2 LT PUSH3 0x361 JUMPI INVALID JUMPDEST PUSH1 0x20 MUL ADD MLOAD EQ PUSH3 0x3C6 JUMPI PUSH1 0x4 DUP3 DUP3 PUSH1 0x18 DUP2 LT PUSH3 0x37B JUMPI INVALID JUMPDEST PUSH1 0x20 MUL ADD MLOAD SWAP1 DUP1 PUSH1 0x1 DUP2 PUSH3 0x38F PUSH3 0x6BF JUMP JUMPDEST ADD DUP1 DUP3 PUSH3 0x39C PUSH3 0x721 JUMP JUMPDEST POP POP PUSH1 0x0 SWAP3 DUP4 MSTORE SWAP2 PUSH1 0x0 NOT DUP4 ADD SWAP2 POP PUSH1 0x20 SWAP1 KECCAK256 SWAP2 SWAP3 SWAP2 ADD PUSH3 0x3BD PUSH3 0x721 JUMP JUMPDEST POP POP POP PUSH3 0x3CC JUMP JUMPDEST PUSH3 0x3D5 JUMP JUMPDEST PUSH1 0x1 ADD PUSH3 0x348 JUMP JUMPDEST POP DUP2 PUSH1 0x2 PUSH1 0x1 DUP2 PUSH3 0x3E6 PUSH3 0x6BF JUMP JUMPDEST DUP2 PUSH1 0x1 PUSH1 0x1 PUSH1 0xA0 SHL SUB MUL NOT AND SWAP1 DUP4 PUSH1 0x1 PUSH1 0x1 PUSH1 0xA0 SHL SUB AND MUL OR SWAP1 PUSH3 0x40A PUSH3 0x721 JUMP JUMPDEST POP POP POP POP POP PUSH3 0x432 PUSH15 0x466C657869626C6553746F72616765 PUSH1 0x88 SHL PUSH3 0x43A PUSH1 0x20 SHL PUSH1 0x20 SHR JUMP JUMPDEST POP POP PUSH3 0x8A7 JUMP JUMPDEST DUP1 PUSH1 0x4 DUP1 PUSH1 0x1 DUP2 PUSH3 0x44B PUSH3 0x6BF JUMP JUMPDEST ADD DUP1 DUP3 PUSH3 0x458 PUSH3 0x721 JUMP JUMPDEST POP POP PUSH1 0x0 SWAP3 DUP4 MSTORE SWAP2 PUSH1 0x0 NOT DUP4 ADD SWAP2 POP PUSH1 0x20 SWAP1 KECCAK256 SWAP2 SWAP3 SWAP2 ADD PUSH3 0x479 PUSH3 0x721 JUMP JUMPDEST POP POP POP PUSH1 0x18 PUSH1 0x4 DUP1 PUSH3 0x48B PUSH3 0x6BF JUMP JUMPDEST SWAP1 POP LT PUSH3 0x4EA JUMPI PUSH1 0x40 MLOAD PUSH3 0x461BCD PUSH1 0xE5 SHL DUP2 MSTORE PUSH1 0x20 PUSH1 0x4 DUP3 ADD MSTORE PUSH1 0x1B PUSH1 0x24 DUP3 ADD MSTORE PUSH32 0x4D6178207265736F6C7665722063616368652073697A65206D65740000000000 PUSH1 0x44 DUP3 ADD MSTORE PUSH1 0x64 ADD PUSH1 0x40 MLOAD DUP1 SWAP2 SUB SWAP1 PUSH3 0x4E7 PUSH3 0x652 JUMP JUMPDEST POP POP JUMPDEST PUSH1 0x0 PUSH1 0x2 PUSH3 0x4F8 PUSH3 0x6BF JUMP JUMPDEST SWAP1 PUSH2 0x100 EXP SWAP1 DIV PUSH1 0x1 PUSH1 0x1 PUSH1 0xA0 SHL SUB AND PUSH1 0x1 PUSH1 0x1 PUSH1 0xA0 SHL SUB AND PUSH4 0x21F8A721 DUP3 PUSH1 0x40 MLOAD PUSH1 0x1 PUSH1 0x1 PUSH1 0xE0 SHL SUB NOT PUSH1 0xE0 DUP5 SWAP1 SHL AND DUP2 MSTORE PUSH1 0x4 DUP2 ADD SWAP2 SWAP1 SWAP2 MSTORE PUSH1 0x24 ADD PUSH1 0x20 PUSH1 0x40 MLOAD DUP1 DUP4 SUB DUP2 DUP7 DUP1 PUSH3 0x54B PUSH3 0x770 JUMP JUMPDEST ISZERO DUP1 ISZERO PUSH3 0x563 JUMPI PUSH1 0x0 DUP1 PUSH3 0x560 PUSH3 0x652 JUMP JUMPDEST POP POP JUMPDEST POP GAS PUSH3 0x56F PUSH3 0x7BD JUMP JUMPDEST POP POP POP POP POP ISZERO DUP1 ISZERO PUSH3 0x591 JUMPI RETURNDATASIZE PUSH1 0x0 DUP1 RETURNDATACOPY RETURNDATASIZE PUSH1 0x0 PUSH3 0x58E PUSH3 0x652 JUMP JUMPDEST POP POP JUMPDEST POP POP POP POP PUSH1 0x40 MLOAD RETURNDATASIZE PUSH1 0x20 DUP2 LT ISZERO PUSH3 0x5B3 JUMPI PUSH1 0x0 DUP1 PUSH3 0x5B0 PUSH3 0x652 JUMP JUMPDEST POP POP JUMPDEST DUP2 ADD SWAP1 DUP1 DUP1 MLOAD PUSH1 0x0 DUP6 DUP2 MSTORE PUSH1 0x3 PUSH1 0x20 MSTORE SWAP1 SWAP4 POP PUSH1 0x40 SWAP3 POP SWAP1 POP KECCAK256 PUSH1 0x1 DUP2 PUSH3 0x5DA PUSH3 0x6BF JUMP JUMPDEST DUP2 PUSH1 0x1 PUSH1 0x1 PUSH1 0xA0 SHL SUB MUL NOT AND SWAP1 DUP4 PUSH1 0x1 PUSH1 0x1 PUSH1 0xA0 SHL SUB AND MUL OR SWAP1 PUSH3 0x5FE PUSH3 0x721 JUMP JUMPDEST POP POP POP POP JUMP JUMPDEST DUP3 PUSH1 0x18 DUP2 ADD SWAP3 DUP3 ISZERO PUSH3 0x640 JUMPI SWAP2 PUSH1 0x20 MUL DUP3 ADD JUMPDEST DUP3 DUP2 GT ISZERO PUSH3 0x640 JUMPI DUP3 MLOAD DUP3 PUSH3 0x62E PUSH3 0x721 JUMP JUMPDEST POP POP SWAP2 PUSH1 0x20 ADD SWAP2 SWAP1 PUSH1 0x1 ADD SWAP1 PUSH3 0x618 JUMP JUMPDEST POP PUSH3 0x64E SWAP3 SWAP2 POP PUSH3 0x87A JUMP JUMPDEST POP SWAP1 JUMP JUMPDEST PUSH4 0x2A2A7ADB MSIZE DUP2 PUSH1 0xE0 SHL DUP2 MSTORE PUSH1 0x4 DUP2 ADD PUSH1 0x20 DUP2 MSTORE DUP6 PUSH1 0x20 DUP3 ADD MSTORE PUSH1 0x0 JUMPDEST DUP7 DUP2 LT ISZERO PUSH3 0x68C JUMPI DUP1 DUP7 ADD MLOAD DUP3 DUP3 ADD PUSH1 0x40 ADD MSTORE PUSH1 0x20 ADD PUSH3 0x66F JUMP JUMPDEST POP PUSH1 0x20 DUP3 DUP8 PUSH1 0x64 ADD DUP5 CALLER PUSH1 0x0 SWAP1 GAS CALL PC PUSH1 0xE ADD JUMPI RETURNDATASIZE PUSH1 0x0 DUP1 RETURNDATACOPY RETURNDATASIZE PUSH1 0x0 REVERT JUMPDEST RETURNDATASIZE PUSH1 0x1 EQ ISZERO PC PUSH1 0xA ADD JUMPI PUSH1 0x1 PUSH1 0x0 RETURN JUMPDEST POP POP POP JUMP JUMPDEST PUSH4 0x3DAA959 MSIZE DUP2 PUSH1 0xE0 SHL DUP2 MSTORE DUP4 PUSH1 0x4 DUP3 ADD MSTORE PUSH1 0x20 DUP2 PUSH1 0x24 DUP4 CALLER PUSH1 0x0 SWAP1 GAS CALL PC PUSH1 0xE ADD JUMPI RETURNDATASIZE PUSH1 0x0 DUP1 RETURNDATACOPY RETURNDATASIZE PUSH1 0x0 REVERT JUMPDEST RETURNDATASIZE PUSH1 0x1 EQ ISZERO PC PUSH1 0xA ADD JUMPI PUSH1 0x1 PUSH1 0x0 RETURN JUMPDEST DUP1 MLOAD SWAP4 POP PUSH1 0x0 JUMPDEST PUSH1 0x40 DUP2 LT ISZERO PUSH3 0x71C JUMPI PUSH1 0x0 DUP3 DUP3 ADD MSTORE PUSH1 0x20 ADD PUSH3 0x703 JUMP JUMPDEST POP POP POP JUMP JUMPDEST PUSH4 0x22BD64C0 MSIZE DUP2 PUSH1 0xE0 SHL DUP2 MSTORE DUP4 PUSH1 0x4 DUP3 ADD MSTORE DUP5 PUSH1 0x24 DUP3 ADD MSTORE PUSH1 0x0 DUP2 PUSH1 0x44 DUP4 CALLER PUSH1 0x0 SWAP1 GAS CALL PC PUSH1 0xE ADD JUMPI RETURNDATASIZE PUSH1 0x0 DUP1 RETURNDATACOPY RETURNDATASIZE PUSH1 0x0 REVERT JUMPDEST RETURNDATASIZE PUSH1 0x1 EQ ISZERO PC PUSH1 0xA ADD JUMPI PUSH1 0x1 PUSH1 0x0 RETURN JUMPDEST PUSH1 0x0 DUP2 MSTORE PUSH1 0x20 PUSH3 0x703 JUMP JUMPDEST PUSH4 0x8435035B MSIZE DUP2 PUSH1 0xE0 SHL DUP2 MSTORE DUP4 PUSH1 0x4 DUP3 ADD MSTORE PUSH1 0x20 DUP2 PUSH1 0x24 DUP4 CALLER PUSH1 0x0 SWAP1 GAS CALL PC PUSH1 0xE ADD JUMPI RETURNDATASIZE PUSH1 0x0 DUP1 RETURNDATACOPY RETURNDATASIZE PUSH1 0x0 REVERT JUMPDEST RETURNDATASIZE PUSH1 0x1 EQ ISZERO PC PUSH1 0xA ADD JUMPI PUSH1 0x1 PUSH1 0x0 RETURN JUMPDEST DUP1 MLOAD PUSH1 0x0 DUP3 MSTORE SWAP4 POP PUSH1 0x20 PUSH3 0x703 JUMP JUMPDEST PUSH4 0x8540661F MSIZE DUP2 PUSH1 0xE0 SHL DUP2 MSTORE DUP4 PUSH1 0x4 DUP3 ADD MSTORE DUP5 PUSH1 0x24 DUP3 ADD MSTORE PUSH1 0x60 PUSH1 0x44 DUP3 ADD MSTORE DUP7 PUSH1 0x64 DUP3 ADD MSTORE PUSH1 0x84 DUP2 ADD PUSH1 0x0 JUMPDEST DUP9 DUP2 LT ISZERO PUSH3 0x803 JUMPI DUP1 DUP9 ADD MLOAD DUP3 DUP3 ADD MSTORE PUSH1 0x20 ADD PUSH3 0x7E9 JUMP JUMPDEST POP DUP8 PUSH2 0x104 ADD DUP3 ADD PUSH1 0x60 DUP4 DUP11 PUSH2 0x104 ADD DUP6 CALLER PUSH1 0x0 SWAP1 GAS CALL PC PUSH1 0xE ADD JUMPI RETURNDATASIZE PUSH1 0x0 DUP1 RETURNDATACOPY RETURNDATASIZE PUSH1 0x0 REVERT JUMPDEST RETURNDATASIZE PUSH1 0x1 EQ ISZERO PC PUSH1 0xA ADD JUMPI PUSH1 0x1 PUSH1 0x0 RETURN JUMPDEST DUP3 MLOAD PUSH1 0x40 DUP5 ADD MLOAD RETURNDATASIZE PUSH1 0x0 DUP7 RETURNDATACOPY DUP13 DUP13 DUP3 PUSH1 0x60 DUP9 ADD CALLER POP PUSH1 0x0 PUSH1 0x4 GAS CALL POP MSIZE DUP6 JUMPDEST DUP2 DUP2 LT ISZERO PUSH3 0x86E JUMPI PUSH1 0x0 DUP2 MSTORE PUSH1 0x20 ADD PUSH3 0x858 JUMP JUMPDEST POP SWAP2 SWAP13 POP POP POP POP POP POP POP JUMP JUMPDEST PUSH3 0x8A4 SWAP2 SWAP1 JUMPDEST DUP1 DUP3 GT ISZERO PUSH3 0x64E JUMPI PUSH1 0x0 DUP1 DUP3 PUSH3 0x898 PUSH3 0x721 JUMP JUMPDEST POP POP POP PUSH1 0x1 ADD PUSH3 0x881 JUMP JUMPDEST SWAP1 JUMP JUMPDEST PUSH2 0x715E DUP1 PUSH3 0x8B7 PUSH1 0x0 CODECOPY PUSH1 0x0 RETURN INVALID PUSH1 0x80 PUSH1 0x40 MSTORE CALLVALUE DUP1 ISZERO PUSH2 0x19 JUMPI PUSH1 0x0 DUP1 PUSH2 0x16 PUSH2 0x6C1F JUMP JUMPDEST POP POP JUMPDEST POP PUSH1 0x4 CALLDATASIZE LT PUSH2 0x2DF JUMPI PUSH1 0x0 CALLDATALOAD PUSH1 0xE0 SHR DUP1 PUSH4 0x7B1001B7 GT PUSH2 0x18B JUMPI DUP1 PUSH4 0xAF5355D8 GT PUSH2 0xF2 JUMPI DUP1 PUSH4 0xC8977132 GT PUSH2 0xAB JUMPI DUP1 PUSH4 0xDD3D2B2E GT PUSH2 0x85 JUMPI DUP1 PUSH4 0xDD3D2B2E EQ PUSH2 0xBAC JUMPI DUP1 PUSH4 0xE3235C91 EQ PUSH2 0xBDB JUMPI DUP1 PUSH4 0xFD864CCF EQ PUSH2 0xBE3 JUMPI DUP1 PUSH4 0xFE1D77E7 EQ PUSH2 0xC1A JUMPI PUSH2 0x2DF JUMP JUMPDEST DUP1 PUSH4 0xC8977132 EQ PUSH2 0xB40 JUMPI DUP1 PUSH4 0xD37C4D8B EQ PUSH2 0xB6F JUMPI DUP1 PUSH4 0xDBF63340 EQ PUSH2 0xBA4 JUMPI PUSH2 0x2DF JUMP JUMPDEST DUP1 PUSH4 0xAF5355D8 EQ PUSH2 0xA9E JUMPI DUP1 PUSH4 0xB06E8C65 EQ PUSH2 0xAA6 JUMPI DUP1 PUSH4 0xB410A034 EQ PUSH2 0xADB JUMPI DUP1 PUSH4 0xBE843515 EQ PUSH2 0xAE3 JUMPI DUP1 PUSH4 0xBFF4FDFC EQ PUSH2 0xAEB JUMPI DUP1 PUSH4 0xC6C9D828 EQ PUSH2 0xB1A JUMPI PUSH2 0x2DF JUMP JUMPDEST DUP1 PUSH4 0x9E342F71 GT PUSH2 0x144 JUMPI DUP1 PUSH4 0x9E342F71 EQ PUSH2 0x950 JUMPI DUP1 PUSH4 0xA311C7C2 EQ PUSH2 0x979 JUMPI DUP1 PUSH4 0xA5FDC5DE EQ PUSH2 0x9A8 JUMPI DUP1 PUSH4 0xA63C4DF4 EQ PUSH2 0x9D7 JUMPI DUP1 PUSH4 0xAB49848C EQ PUSH2 0xA2E JUMPI DUP1 PUSH4 0xAE3BBBBB EQ PUSH2 0xA6F JUMPI PUSH2 0x2DF JUMP JUMPDEST DUP1 PUSH4 0x7B1001B7 EQ PUSH2 0x860 JUMPI DUP1 PUSH4 0x7D74E85D EQ PUSH2 0x88E JUMPI DUP1 PUSH4 0x835E119C EQ PUSH2 0x8B4 JUMPI DUP1 PUSH4 0x849CF588 EQ PUSH2 0x8DA JUMPI DUP1 PUSH4 0x8DA5CB5B EQ PUSH2 0x909 JUMPI DUP1 PUSH4 0x9A5154B4 EQ PUSH2 0x911 JUMPI PUSH2 0x2DF JUMP JUMPDEST DUP1 PUSH4 0x364FB765 GT PUSH2 0x24A JUMPI DUP1 PUSH4 0x4E99BDA9 GT PUSH2 0x203 JUMPI DUP1 PUSH4 0x631E1444 GT PUSH2 0x1DD JUMPI DUP1 PUSH4 0x631E1444 EQ PUSH2 0x7EC JUMPI DUP1 PUSH4 0x6BED0415 EQ PUSH2 0x81B JUMPI DUP1 PUSH4 0x72CB051F EQ PUSH2 0x850 JUMPI DUP1 PUSH4 0x79BA5097 EQ PUSH2 0x858 JUMPI PUSH2 0x2DF JUMP JUMPDEST DUP1 PUSH4 0x4E99BDA9 EQ PUSH2 0x7C0 JUMPI DUP1 PUSH4 0x53A47BB7 EQ PUSH2 0x7DC JUMPI DUP1 PUSH4 0x614D08F8 EQ PUSH2 0x7E4 JUMPI PUSH2 0x2DF JUMP JUMPDEST DUP1 PUSH4 0x364FB765 EQ PUSH2 0x4EF JUMPI DUP1 PUSH4 0x3973A2BB EQ PUSH2 0x51D JUMPI DUP1 PUSH4 0x3BE99E6F EQ PUSH2 0x63E JUMPI DUP1 PUSH4 0x44EC6B62 EQ PUSH2 0x66D JUMPI DUP1 PUSH4 0x497D704A EQ PUSH2 0x6AC JUMPI DUP1 PUSH4 0x49E4C7B7 EQ PUSH2 0x6DB JUMPI PUSH2 0x2DF JUMP JUMPDEST DUP1 PUSH4 0x16B2213F GT PUSH2 0x29C JUMPI DUP1 PUSH4 0x16B2213F EQ PUSH2 0x431 JUMPI DUP1 PUSH4 0x172058F7 EQ PUSH2 0x460 JUMPI DUP1 PUSH4 0x21428AA0 EQ PUSH2 0x468 JUMPI DUP1 PUSH4 0x242DF9E1 EQ PUSH2 0x48A JUMPI DUP1 PUSH4 0x2B3F41AA EQ PUSH2 0x492 JUMPI DUP1 PUSH4 0x32608039 EQ PUSH2 0x4C9 JUMPI PUSH2 0x2DF JUMP JUMPDEST DUP1 PUSH4 0x42E0688 EQ PUSH2 0x2ED JUMPI DUP1 PUSH4 0x4F3BCEC EQ PUSH2 0x324 JUMPI DUP1 PUSH4 0x5B3C1C9 EQ PUSH2 0x348 JUMPI DUP1 PUSH4 0xB887DAE EQ PUSH2 0x389 JUMPI DUP1 PUSH4 0x1137AEDF EQ PUSH2 0x3AF JUMPI DUP1 PUSH4 0x1627540C EQ PUSH2 0x402 JUMPI JUMPDEST PUSH1 0x0 DUP1 PUSH2 0x2EA PUSH2 0x6C1F JUMP JUMPDEST POP POP JUMPDEST PUSH2 0x322 PUSH1 0x4 DUP1 CALLDATASIZE SUB PUSH1 0x40 DUP2 LT ISZERO PUSH2 0x30C JUMPI PUSH1 0x0 DUP1 PUSH2 0x309 PUSH2 0x6C1F JUMP JUMPDEST POP POP JUMPDEST POP PUSH1 0x1 PUSH1 0x1 PUSH1 0xA0 SHL SUB DUP2 CALLDATALOAD AND SWAP1 PUSH1 0x20 ADD CALLDATALOAD PUSH2 0xCAC JUMP JUMPDEST STOP JUMPDEST PUSH2 0x32C PUSH2 0xCC4 JUMP JUMPDEST PUSH1 0x40 MLOAD PUSH1 0x1 PUSH1 0x1 PUSH1 0xA0 SHL SUB SWAP1 SWAP2 AND DUP2 MSTORE PUSH1 0x20 ADD PUSH1 0x40 MLOAD DUP1 SWAP2 SUB SWAP1 RETURN JUMPDEST PUSH2 0x377 PUSH1 0x4 DUP1 CALLDATASIZE SUB PUSH1 0x20 DUP2 LT ISZERO PUSH2 0x367 JUMPI PUSH1 0x0 DUP1 PUSH2 0x364 PUSH2 0x6C1F JUMP JUMPDEST POP POP JUMPDEST POP CALLDATALOAD PUSH1 0x1 PUSH1 0x1 PUSH1 0xA0 SHL SUB AND PUSH2 0xCE3 JUMP JUMPDEST PUSH1 0x40 MLOAD SWAP1 DUP2 MSTORE PUSH1 0x20 ADD PUSH1 0x40 MLOAD DUP1 SWAP2 SUB SWAP1 RETURN JUMPDEST PUSH2 0x322 PUSH1 0x4 DUP1 CALLDATASIZE SUB PUSH1 0x20 DUP2 LT ISZERO PUSH2 0x3A8 JUMPI PUSH1 0x0 DUP1 PUSH2 0x3A5 PUSH2 0x6C1F JUMP JUMPDEST POP POP JUMPDEST POP CALLDATALOAD PUSH2 0xCF9 JUMP JUMPDEST PUSH2 0x3DE PUSH1 0x4 DUP1 CALLDATASIZE SUB PUSH1 0x20 DUP2 LT ISZERO PUSH2 0x3CE JUMPI PUSH1 0x0 DUP1 PUSH2 0x3CB PUSH2 0x6C1F JUMP JUMPDEST POP POP JUMPDEST POP CALLDATALOAD PUSH1 0x1 PUSH1 0x1 PUSH1 0xA0 SHL SUB AND PUSH2 0x10E6 JUMP JUMPDEST PUSH1 0x40 MLOAD DUP1 DUP5 DUP2 MSTORE PUSH1 0x20 ADD DUP4 DUP2 MSTORE PUSH1 0x20 ADD DUP3 DUP2 MSTORE PUSH1 0x20 ADD SWAP4 POP POP POP POP PUSH1 0x40 MLOAD DUP1 SWAP2 SUB SWAP1 RETURN JUMPDEST PUSH2 0x322 PUSH1 0x4 DUP1 CALLDATASIZE SUB PUSH1 0x20 DUP2 LT ISZERO PUSH2 0x421 JUMPI PUSH1 0x0 DUP1 PUSH2 0x41E PUSH2 0x6C1F JUMP JUMPDEST POP POP JUMPDEST POP CALLDATALOAD PUSH1 0x1 PUSH1 0x1 PUSH1 0xA0 SHL SUB AND PUSH2 0x1102 JUMP JUMPDEST PUSH2 0x377 PUSH1 0x4 DUP1 CALLDATASIZE SUB PUSH1 0x20 DUP2 LT ISZERO PUSH2 0x450 JUMPI PUSH1 0x0 DUP1 PUSH2 0x44D PUSH2 0x6C1F JUMP JUMPDEST POP POP JUMPDEST POP CALLDATALOAD PUSH1 0x1 PUSH1 0x1 PUSH1 0xA0 SHL SUB AND PUSH2 0x117C JUMP JUMPDEST PUSH2 0x322 PUSH2 0x1197 JUMP JUMPDEST PUSH2 0x470 PUSH2 0x15C5 JUMP JUMPDEST PUSH1 0x40 MLOAD SWAP2 DUP3 MSTORE ISZERO ISZERO PUSH1 0x20 DUP3 ADD MSTORE PUSH1 0x40 SWAP1 DUP2 ADD SWAP1 MLOAD DUP1 SWAP2 SUB SWAP1 RETURN JUMPDEST PUSH2 0x377 PUSH2 0x1619 JUMP JUMPDEST PUSH2 0x322 PUSH1 0x4 DUP1 CALLDATASIZE SUB PUSH1 0x40 DUP2 LT ISZERO PUSH2 0x4B1 JUMPI PUSH1 0x0 DUP1 PUSH2 0x4AE PUSH2 0x6C1F JUMP JUMPDEST POP POP JUMPDEST POP PUSH1 0x1 PUSH1 0x1 PUSH1 0xA0 SHL SUB DUP2 CALLDATALOAD DUP2 AND SWAP2 PUSH1 0x20 ADD CALLDATALOAD AND PUSH2 0x1629 JUMP JUMPDEST PUSH2 0x32C PUSH1 0x4 DUP1 CALLDATASIZE SUB PUSH1 0x20 DUP2 LT ISZERO PUSH2 0x4E8 JUMPI PUSH1 0x0 DUP1 PUSH2 0x4E5 PUSH2 0x6C1F JUMP JUMPDEST POP POP JUMPDEST POP CALLDATALOAD PUSH2 0x1648 JUMP JUMPDEST PUSH2 0x4F7 PUSH2 0x1662 JUMP JUMPDEST PUSH1 0x40 MLOAD SWAP3 DUP4 MSTORE PUSH1 0x20 DUP4 ADD SWAP2 SWAP1 SWAP2 MSTORE ISZERO ISZERO PUSH1 0x40 DUP1 DUP4 ADD SWAP2 SWAP1 SWAP2 MSTORE PUSH1 0x60 SWAP1 SWAP2 ADD SWAP1 MLOAD DUP1 SWAP2 SUB SWAP1 RETURN JUMPDEST PUSH2 0x5E2 PUSH1 0x4 DUP1 CALLDATASIZE SUB PUSH1 0x20 DUP2 LT ISZERO PUSH2 0x53C JUMPI PUSH1 0x0 DUP1 PUSH2 0x539 PUSH2 0x6C1F JUMP JUMPDEST POP POP JUMPDEST DUP2 ADD SWAP1 PUSH1 0x20 DUP2 ADD DUP2 CALLDATALOAD PUSH1 0x1 PUSH1 0x20 SHL DUP2 GT ISZERO PUSH2 0x55F JUMPI PUSH1 0x0 DUP1 PUSH2 0x55C PUSH2 0x6C1F JUMP JUMPDEST POP POP JUMPDEST DUP3 ADD DUP4 PUSH1 0x20 DUP3 ADD GT ISZERO PUSH2 0x57A JUMPI PUSH1 0x0 DUP1 PUSH2 0x577 PUSH2 0x6C1F JUMP JUMPDEST POP POP JUMPDEST DUP1 CALLDATALOAD SWAP1 PUSH1 0x20 ADD SWAP2 DUP5 PUSH1 0x20 DUP4 MUL DUP5 ADD GT PUSH1 0x1 PUSH1 0x20 SHL DUP4 GT OR ISZERO PUSH2 0x5A4 JUMPI PUSH1 0x0 DUP1 PUSH2 0x5A1 PUSH2 0x6C1F JUMP JUMPDEST POP POP JUMPDEST SWAP2 SWAP1 DUP1 DUP1 PUSH1 0x20 MUL PUSH1 0x20 ADD PUSH1 0x40 MLOAD SWAP1 DUP2 ADD PUSH1 0x40 MSTORE DUP1 SWAP4 SWAP3 SWAP2 SWAP1 DUP2 DUP2 MSTORE PUSH1 0x20 ADD DUP4 DUP4 PUSH1 0x20 MUL DUP1 DUP3 DUP5 CALLDATACOPY PUSH1 0x0 SWAP3 ADD SWAP2 SWAP1 SWAP2 MSTORE POP SWAP3 SWAP6 POP PUSH2 0x169B SWAP5 POP POP POP POP POP JUMP JUMPDEST PUSH1 0x40 MLOAD DUP2 ISZERO ISZERO PUSH1 0x20 DUP3 ADD MSTORE PUSH1 0x40 DUP1 DUP3 MSTORE DUP2 SWAP1 DUP2 ADD DUP5 DUP2 DUP2 MLOAD DUP2 MSTORE PUSH1 0x20 ADD SWAP2 POP DUP1 MLOAD SWAP1 PUSH1 0x20 ADD SWAP1 PUSH1 0x20 MUL DUP1 DUP4 DUP4 PUSH1 0x0 JUMPDEST DUP4 DUP2 LT ISZERO PUSH2 0x629 JUMPI DUP1 DUP3 ADD MLOAD DUP4 DUP3 ADD MSTORE PUSH1 0x20 ADD PUSH2 0x611 JUMP JUMPDEST POP POP POP POP SWAP1 POP ADD SWAP4 POP POP POP POP PUSH1 0x40 MLOAD DUP1 SWAP2 SUB SWAP1 RETURN JUMPDEST PUSH2 0x322 PUSH1 0x4 DUP1 CALLDATASIZE SUB PUSH1 0x20 DUP2 LT ISZERO PUSH2 0x65D JUMPI PUSH1 0x0 DUP1 PUSH2 0x65A PUSH2 0x6C1F JUMP JUMPDEST POP POP JUMPDEST POP CALLDATALOAD PUSH1 0x1 PUSH1 0x1 PUSH1 0xA0 SHL SUB AND PUSH2 0x1861 JUMP JUMPDEST PUSH2 0x322 PUSH1 0x4 DUP1 CALLDATASIZE SUB PUSH1 0x60 DUP2 LT ISZERO PUSH2 0x68C JUMPI PUSH1 0x0 DUP1 PUSH2 0x689 PUSH2 0x6C1F JUMP JUMPDEST POP POP JUMPDEST POP PUSH1 0x1 PUSH1 0x1 PUSH1 0xA0 SHL SUB DUP2 CALLDATALOAD DUP2 AND SWAP2 PUSH1 0x20 DUP2 ADD CALLDATALOAD SWAP1 SWAP2 AND SWAP1 PUSH1 0x40 ADD CALLDATALOAD PUSH2 0x1A27 JUMP JUMPDEST PUSH2 0x322 PUSH1 0x4 DUP1 CALLDATASIZE SUB PUSH1 0x20 DUP2 LT ISZERO PUSH2 0x6CB JUMPI PUSH1 0x0 DUP1 PUSH2 0x6C8 PUSH2 0x6C1F JUMP JUMPDEST POP POP JUMPDEST POP CALLDATALOAD PUSH1 0x1 PUSH1 0x1 PUSH1 0xA0 SHL SUB AND PUSH2 0x1A4A JUMP JUMPDEST PUSH2 0x76D PUSH1 0x4 DUP1 CALLDATASIZE SUB PUSH1 0x20 DUP2 LT ISZERO PUSH2 0x6FA JUMPI PUSH1 0x0 DUP1 PUSH2 0x6F7 PUSH2 0x6C1F JUMP JUMPDEST POP POP JUMPDEST DUP2 ADD SWAP1 PUSH1 0x20 DUP2 ADD DUP2 CALLDATALOAD PUSH1 0x1 PUSH1 0x20 SHL DUP2 GT ISZERO PUSH2 0x71D JUMPI PUSH1 0x0 DUP1 PUSH2 0x71A PUSH2 0x6C1F JUMP JUMPDEST POP POP JUMPDEST DUP3 ADD DUP4 PUSH1 0x20 DUP3 ADD GT ISZERO PUSH2 0x738 JUMPI PUSH1 0x0 DUP1 PUSH2 0x735 PUSH2 0x6C1F JUMP JUMPDEST POP POP JUMPDEST DUP1 CALLDATALOAD SWAP1 PUSH1 0x20 ADD SWAP2 DUP5 PUSH1 0x20 DUP4 MUL DUP5 ADD GT PUSH1 0x1 PUSH1 0x20 SHL DUP4 GT OR ISZERO PUSH2 0x762 JUMPI PUSH1 0x0 DUP1 PUSH2 0x75F PUSH2 0x6C1F JUMP JUMPDEST POP POP JUMPDEST POP SWAP1 SWAP3 POP SWAP1 POP PUSH2 0x1A62 JUMP JUMPDEST PUSH1 0x40 MLOAD PUSH1 0x20 DUP1 DUP3 MSTORE DUP2 SWAP1 DUP2 ADD DUP4 DUP2 DUP2 MLOAD DUP2 MSTORE PUSH1 0x20 ADD SWAP2 POP DUP1 MLOAD SWAP1 PUSH1 0x20 ADD SWAP1 PUSH1 0x20 MUL DUP1 DUP4 DUP4 PUSH1 0x0 JUMPDEST DUP4 DUP2 LT ISZERO PUSH2 0x7AC JUMPI DUP1 DUP3 ADD MLOAD DUP4 DUP3 ADD MSTORE PUSH1 0x20 ADD PUSH2 0x794 JUMP JUMPDEST POP POP POP POP SWAP1 POP ADD SWAP3 POP POP POP PUSH1 0x40 MLOAD DUP1 SWAP2 SUB SWAP1 RETURN JUMPDEST PUSH2 0x7C8 PUSH2 0x1C09 JUMP JUMPDEST PUSH1 0x40 MLOAD SWAP1 ISZERO ISZERO DUP2 MSTORE PUSH1 0x20 ADD PUSH1 0x40 MLOAD DUP1 SWAP2 SUB SWAP1 RETURN JUMPDEST PUSH2 0x32C PUSH2 0x1DBA JUMP JUMPDEST PUSH2 0x377 PUSH2 0x1DC6 JUMP JUMPDEST PUSH2 0x7C8 PUSH1 0x4 DUP1 CALLDATASIZE SUB PUSH1 0x20 DUP2 LT ISZERO PUSH2 0x80B JUMPI PUSH1 0x0 DUP1 PUSH2 0x808 PUSH2 0x6C1F JUMP JUMPDEST POP POP JUMPDEST POP CALLDATALOAD PUSH1 0x1 PUSH1 0x1 PUSH1 0xA0 SHL SUB AND PUSH2 0x1DD3 JUMP JUMPDEST PUSH2 0x470 PUSH1 0x4 DUP1 CALLDATASIZE SUB PUSH1 0x40 DUP2 LT ISZERO PUSH2 0x83A JUMPI PUSH1 0x0 DUP1 PUSH2 0x837 PUSH2 0x6C1F JUMP JUMPDEST POP POP JUMPDEST POP PUSH1 0x1 PUSH1 0x1 PUSH1 0xA0 SHL SUB DUP2 CALLDATALOAD AND SWAP1 PUSH1 0x20 ADD CALLDATALOAD PUSH2 0x1FAD JUMP JUMPDEST PUSH2 0x76D PUSH2 0x2011 JUMP JUMPDEST PUSH2 0x322 PUSH2 0x201D JUMP JUMPDEST PUSH2 0x377 PUSH1 0x4 DUP1 CALLDATASIZE SUB PUSH1 0x40 DUP2 LT ISZERO PUSH2 0x87F JUMPI PUSH1 0x0 DUP1 PUSH2 0x87C PUSH2 0x6C1F JUMP JUMPDEST POP POP JUMPDEST POP DUP1 CALLDATALOAD SWAP1 PUSH1 0x20 ADD CALLDATALOAD ISZERO ISZERO PUSH2 0x219B JUMP JUMPDEST PUSH2 0x322 PUSH1 0x4 DUP1 CALLDATASIZE SUB PUSH1 0x20 DUP2 LT ISZERO PUSH2 0x8AD JUMPI PUSH1 0x0 DUP1 PUSH2 0x8AA PUSH2 0x6C1F JUMP JUMPDEST POP POP JUMPDEST POP CALLDATALOAD PUSH2 0x21AF JUMP JUMPDEST PUSH2 0x32C PUSH1 0x4 DUP1 CALLDATASIZE SUB PUSH1 0x20 DUP2 LT ISZERO PUSH2 0x8D3 JUMPI PUSH1 0x0 DUP1 PUSH2 0x8D0 PUSH2 0x6C1F JUMP JUMPDEST POP POP JUMPDEST POP CALLDATALOAD PUSH2 0x226A JUMP JUMPDEST PUSH2 0x322 PUSH1 0x4 DUP1 CALLDATASIZE SUB PUSH1 0x20 DUP2 LT ISZERO PUSH2 0x8F9 JUMPI PUSH1 0x0 DUP1 PUSH2 0x8F6 PUSH2 0x6C1F JUMP JUMPDEST POP POP JUMPDEST POP CALLDATALOAD PUSH1 0x1 PUSH1 0x1 PUSH1 0xA0 SHL SUB AND PUSH2 0x2294 JUMP JUMPDEST PUSH2 0x32C PUSH2 0x24DB JUMP JUMPDEST PUSH2 0x322 PUSH1 0x4 DUP1 CALLDATASIZE SUB PUSH1 0x60 DUP2 LT ISZERO PUSH2 0x930 JUMPI PUSH1 0x0 DUP1 PUSH2 0x92D PUSH2 0x6C1F JUMP JUMPDEST POP POP JUMPDEST POP PUSH1 0x1 PUSH1 0x1 PUSH1 0xA0 SHL SUB DUP2 CALLDATALOAD DUP2 AND SWAP2 PUSH1 0x20 DUP2 ADD CALLDATALOAD SWAP1 SWAP2 AND SWAP1 PUSH1 0x40 ADD CALLDATALOAD PUSH2 0x24E6 JUMP JUMPDEST PUSH2 0x322 PUSH1 0x4 DUP1 CALLDATASIZE SUB PUSH1 0x80 DUP2 LT ISZERO PUSH2 0x96F JUMPI PUSH1 0x0 DUP1 PUSH2 0x96C PUSH2 0x6C1F JUMP JUMPDEST POP POP JUMPDEST POP PUSH1 0x40 DUP2 ADD PUSH2 0x2504 JUMP JUMPDEST PUSH2 0x377 PUSH1 0x4 DUP1 CALLDATASIZE SUB PUSH1 0x20 DUP2 LT ISZERO PUSH2 0x998 JUMPI PUSH1 0x0 DUP1 PUSH2 0x995 PUSH2 0x6C1F JUMP JUMPDEST POP POP JUMPDEST POP CALLDATALOAD PUSH1 0x1 PUSH1 0x1 PUSH1 0xA0 SHL SUB AND PUSH2 0x278B JUMP JUMPDEST PUSH2 0x377 PUSH1 0x4 DUP1 CALLDATASIZE SUB PUSH1 0x20 DUP2 LT ISZERO PUSH2 0x9C7 JUMPI PUSH1 0x0 DUP1 PUSH2 0x9C4 PUSH2 0x6C1F JUMP JUMPDEST POP POP JUMPDEST POP CALLDATALOAD PUSH1 0x1 PUSH1 0x1 PUSH1 0xA0 SHL SUB AND PUSH2 0x279D JUMP JUMPDEST PUSH2 0xA16 PUSH1 0x4 DUP1 CALLDATASIZE SUB PUSH1 0x60 DUP2 LT ISZERO PUSH2 0x9F6 JUMPI PUSH1 0x0 DUP1 PUSH2 0x9F3 PUSH2 0x6C1F JUMP JUMPDEST POP POP JUMPDEST POP PUSH1 0x1 PUSH1 0x1 PUSH1 0xA0 SHL SUB DUP2 CALLDATALOAD DUP2 AND SWAP2 PUSH1 0x20 DUP2 ADD CALLDATALOAD SWAP2 PUSH1 0x40 SWAP1 SWAP2 ADD CALLDATALOAD AND PUSH2 0x27A8 JUMP JUMPDEST PUSH1 0x40 MLOAD SWAP2 DUP3 MSTORE PUSH1 0x20 DUP3 ADD MSTORE PUSH1 0x40 SWAP1 DUP2 ADD SWAP1 MLOAD DUP1 SWAP2 SUB SWAP1 RETURN JUMPDEST PUSH2 0xA36 PUSH2 0x2F95 JUMP JUMPDEST PUSH1 0x40 MLOAD DUP1 DUP3 PUSH2 0x300 DUP1 DUP4 DUP4 PUSH1 0x0 JUMPDEST DUP4 DUP2 LT ISZERO PUSH2 0xA5C JUMPI DUP1 DUP3 ADD MLOAD DUP4 DUP3 ADD MSTORE PUSH1 0x20 ADD PUSH2 0xA44 JUMP JUMPDEST POP POP POP POP SWAP1 POP ADD SWAP2 POP POP PUSH1 0x40 MLOAD DUP1 SWAP2 SUB SWAP1 RETURN JUMPDEST PUSH2 0x470 PUSH1 0x4 DUP1 CALLDATASIZE SUB PUSH1 0x20 DUP2 LT ISZERO PUSH2 0xA8E JUMPI PUSH1 0x0 DUP1 PUSH2 0xA8B PUSH2 0x6C1F JUMP JUMPDEST POP POP JUMPDEST POP CALLDATALOAD PUSH1 0x1 PUSH1 0x1 PUSH1 0xA0 SHL SUB AND PUSH2 0x2FF7 JUMP JUMPDEST PUSH2 0x377 PUSH2 0x300C JUMP JUMPDEST PUSH2 0x322 PUSH1 0x4 DUP1 CALLDATASIZE SUB PUSH1 0x40 DUP2 LT ISZERO PUSH2 0xAC5 JUMPI PUSH1 0x0 DUP1 PUSH2 0xAC2 PUSH2 0x6C1F JUMP JUMPDEST POP POP JUMPDEST POP PUSH1 0x1 PUSH1 0x1 PUSH1 0xA0 SHL SUB DUP2 CALLDATALOAD AND SWAP1 PUSH1 0x20 ADD CALLDATALOAD PUSH2 0x3016 JUMP JUMPDEST PUSH2 0x377 PUSH2 0x302A JUMP JUMPDEST PUSH2 0x7C8 PUSH2 0x3034 JUMP JUMPDEST PUSH2 0x7C8 PUSH1 0x4 DUP1 CALLDATASIZE SUB PUSH1 0x20 DUP2 LT ISZERO PUSH2 0xB0A JUMPI PUSH1 0x0 DUP1 PUSH2 0xB07 PUSH2 0x6C1F JUMP JUMPDEST POP POP JUMPDEST POP CALLDATALOAD PUSH1 0x1 PUSH1 0x1 PUSH1 0xA0 SHL SUB AND PUSH2 0x312D JUMP JUMPDEST PUSH2 0x377 PUSH1 0x4 DUP1 CALLDATASIZE SUB PUSH1 0x20 DUP2 LT ISZERO PUSH2 0xB39 JUMPI PUSH1 0x0 DUP1 PUSH2 0xB36 PUSH2 0x6C1F JUMP JUMPDEST POP POP JUMPDEST POP CALLDATALOAD PUSH2 0x3138 JUMP JUMPDEST PUSH2 0x322 PUSH1 0x4 DUP1 CALLDATASIZE SUB PUSH1 0x20 DUP2 LT ISZERO PUSH2 0xB5F JUMPI PUSH1 0x0 DUP1 PUSH2 0xB5C PUSH2 0x6C1F JUMP JUMPDEST POP POP JUMPDEST POP CALLDATALOAD PUSH1 0x1 PUSH1 0x1 PUSH1 0xA0 SHL SUB AND PUSH2 0x3160 JUMP JUMPDEST PUSH2 0x377 PUSH1 0x4 DUP1 CALLDATASIZE SUB PUSH1 0x40 DUP2 LT ISZERO PUSH2 0xB8E JUMPI PUSH1 0x0 DUP1 PUSH2 0xB8B PUSH2 0x6C1F JUMP JUMPDEST POP POP JUMPDEST POP PUSH1 0x1 PUSH1 0x1 PUSH1 0xA0 SHL SUB DUP2 CALLDATALOAD AND SWAP1 PUSH1 0x20 ADD CALLDATALOAD PUSH2 0x3175 JUMP JUMPDEST PUSH2 0x377 PUSH2 0x3268 JUMP JUMPDEST PUSH2 0x377 PUSH1 0x4 DUP1 CALLDATASIZE SUB PUSH1 0x20 DUP2 LT ISZERO PUSH2 0xBCB JUMPI PUSH1 0x0 DUP1 PUSH2 0xBC8 PUSH2 0x6C1F JUMP JUMPDEST POP POP JUMPDEST POP CALLDATALOAD PUSH1 0x1 PUSH1 0x1 PUSH1 0xA0 SHL SUB AND PUSH2 0x327B JUMP JUMPDEST PUSH2 0x377 PUSH2 0x3286 JUMP JUMPDEST PUSH2 0x322 PUSH1 0x4 DUP1 CALLDATASIZE SUB PUSH1 0x40 DUP2 LT ISZERO PUSH2 0xC02 JUMPI PUSH1 0x0 DUP1 PUSH2 0xBFF PUSH2 0x6C1F JUMP JUMPDEST POP POP JUMPDEST POP PUSH1 0x1 PUSH1 0x1 PUSH1 0xA0 SHL SUB DUP2 CALLDATALOAD DUP2 AND SWAP2 PUSH1 0x20 ADD CALLDATALOAD AND PUSH2 0x328B JUMP JUMPDEST PUSH2 0x322 PUSH1 0x4 DUP1 CALLDATASIZE SUB PUSH1 0x20 DUP2 LT ISZERO PUSH2 0xC39 JUMPI PUSH1 0x0 DUP1 PUSH2 0xC36 PUSH2 0x6C1F JUMP JUMPDEST POP POP JUMPDEST DUP2 ADD SWAP1 PUSH1 0x20 DUP2 ADD DUP2 CALLDATALOAD PUSH1 0x1 PUSH1 0x20 SHL DUP2 GT ISZERO PUSH2 0xC5C JUMPI PUSH1 0x0 DUP1 PUSH2 0xC59 PUSH2 0x6C1F JUMP JUMPDEST POP POP JUMPDEST DUP3 ADD DUP4 PUSH1 0x20 DUP3 ADD GT ISZERO PUSH2 0xC77 JUMPI PUSH1 0x0 DUP1 PUSH2 0xC74 PUSH2 0x6C1F JUMP JUMPDEST POP POP JUMPDEST DUP1 CALLDATALOAD SWAP1 PUSH1 0x20 ADD SWAP2 DUP5 PUSH1 0x20 DUP4 MUL DUP5 ADD GT PUSH1 0x1 PUSH1 0x20 SHL DUP4 GT OR ISZERO PUSH2 0xCA1 JUMPI PUSH1 0x0 DUP1 PUSH2 0xC9E PUSH2 0x6C1F JUMP JUMPDEST POP POP JUMPDEST POP SWAP1 SWAP3 POP SWAP1 POP PUSH2 0x32AA JUMP JUMPDEST PUSH2 0xCB4 PUSH2 0x3494 JUMP JUMPDEST PUSH2 0xCC0 DUP3 DUP3 PUSH1 0x0 PUSH2 0x34FB JUMP JUMPDEST POP POP JUMP JUMPDEST PUSH1 0x0 PUSH1 0x2 PUSH2 0xCD0 PUSH2 0x6C8A JUMP JUMPDEST SWAP1 PUSH2 0x100 EXP SWAP1 DIV PUSH1 0x1 PUSH1 0x1 PUSH1 0xA0 SHL SUB AND DUP2 JUMP JUMPDEST PUSH1 0x0 DUP1 PUSH2 0xCEF DUP4 PUSH2 0x3713 JUMP JUMPDEST POP SWAP2 POP POP JUMPDEST SWAP2 SWAP1 POP JUMP JUMPDEST PUSH2 0xD01 PUSH2 0x380B JUMP JUMPDEST PUSH1 0x0 DUP2 DUP2 MSTORE PUSH1 0x6 PUSH1 0x20 MSTORE PUSH1 0x40 DUP2 KECCAK256 PUSH1 0x0 SWAP1 PUSH2 0xD1A PUSH2 0x6C8A JUMP JUMPDEST PUSH1 0x1 PUSH1 0x1 PUSH1 0xA0 SHL SUB PUSH2 0x100 SWAP3 SWAP1 SWAP3 EXP SWAP1 DIV AND SWAP1 POP DUP1 PUSH2 0xD7F JUMPI PUSH1 0x40 MLOAD PUSH3 0x461BCD PUSH1 0xE5 SHL DUP2 MSTORE PUSH1 0x20 PUSH1 0x4 DUP3 ADD MSTORE PUSH1 0x14 PUSH1 0x24 DUP3 ADD MSTORE PUSH20 0x14DE5B9D1A08191BD95CC81B9BDD08195E1A5CDD PUSH1 0x62 SHL PUSH1 0x44 DUP3 ADD MSTORE PUSH1 0x64 ADD PUSH1 0x40 MLOAD DUP1 SWAP2 SUB SWAP1 PUSH2 0xD7C PUSH2 0x6C1F JUMP JUMPDEST POP POP JUMPDEST DUP1 PUSH1 0x1 PUSH1 0x1 PUSH1 0xA0 SHL SUB AND PUSH4 0x18160DDD PUSH1 0x40 MLOAD DUP2 PUSH4 0xFFFFFFFF AND PUSH1 0xE0 SHL DUP2 MSTORE PUSH1 0x4 ADD PUSH1 0x20 PUSH1 0x40 MLOAD DUP1 DUP4 SUB DUP2 DUP7 DUP1 PUSH2 0xDB3 PUSH2 0x6CE5 JUMP JUMPDEST ISZERO DUP1 ISZERO PUSH2 0xDC8 JUMPI PUSH1 0x0 DUP1 PUSH2 0xDC5 PUSH2 0x6C1F JUMP JUMPDEST POP POP JUMPDEST POP GAS PUSH2 0xDD2 PUSH2 0x6D31 JUMP JUMPDEST POP POP POP POP POP ISZERO DUP1 ISZERO PUSH2 0xDF1 JUMPI RETURNDATASIZE PUSH1 0x0 DUP1 RETURNDATACOPY RETURNDATASIZE PUSH1 0x0 PUSH2 0xDEE PUSH2 0x6C1F JUMP JUMPDEST POP POP JUMPDEST POP POP POP POP PUSH1 0x40 MLOAD RETURNDATASIZE PUSH1 0x20 DUP2 LT ISZERO PUSH2 0xE10 JUMPI PUSH1 0x0 DUP1 PUSH2 0xE0D PUSH2 0x6C1F JUMP JUMPDEST POP POP JUMPDEST DUP2 ADD SWAP1 DUP1 DUP1 MLOAD ISZERO SWAP3 POP PUSH2 0xE6B SWAP2 POP POP JUMPI PUSH1 0x40 MLOAD PUSH3 0x461BCD PUSH1 0xE5 SHL DUP2 MSTORE PUSH1 0x20 PUSH1 0x4 DUP3 ADD MSTORE PUSH1 0x13 PUSH1 0x24 DUP3 ADD MSTORE PUSH19 0x53796E746820737570706C7920657869737473 PUSH1 0x68 SHL PUSH1 0x44 DUP3 ADD MSTORE PUSH1 0x64 ADD PUSH1 0x40 MLOAD DUP1 SWAP2 SUB SWAP1 PUSH2 0xE68 PUSH2 0x6C1F JUMP JUMPDEST POP POP JUMPDEST PUSH4 0x1CD554D1 PUSH1 0xE2 SHL DUP3 EQ ISZERO PUSH2 0xEC5 JUMPI PUSH1 0x40 MLOAD PUSH3 0x461BCD PUSH1 0xE5 SHL DUP2 MSTORE PUSH1 0x20 PUSH1 0x4 DUP3 ADD MSTORE PUSH1 0x13 PUSH1 0x24 DUP3 ADD MSTORE PUSH19 0x86C2DCDCDEE840E4CADADEECCA40E6F2DCE8D PUSH1 0x6B SHL PUSH1 0x44 DUP3 ADD MSTORE PUSH1 0x64 ADD PUSH1 0x40 MLOAD DUP1 SWAP2 SUB SWAP1 PUSH2 0xEC2 PUSH2 0x6C1F JUMP JUMPDEST POP POP JUMPDEST PUSH2 0xED0 DUP3 PUSH1 0x0 PUSH2 0x3883 JUMP JUMPDEST PUSH2 0xEE2 PUSH2 0xEDB PUSH2 0x3923 JUMP JUMPDEST PUSH1 0x1 PUSH2 0x3974 JUMP JUMPDEST PUSH1 0x0 JUMPDEST PUSH1 0x5 DUP1 PUSH2 0xEF0 PUSH2 0x6C8A JUMP JUMPDEST SWAP1 POP DUP2 LT ISZERO PUSH2 0x1049 JUMPI DUP2 PUSH1 0x1 PUSH1 0x1 PUSH1 0xA0 SHL SUB AND PUSH1 0x5 DUP3 DUP2 PUSH2 0xF0F PUSH2 0x6C8A JUMP JUMPDEST DUP2 LT PUSH2 0xF17 JUMPI INVALID JUMPDEST SWAP1 PUSH1 0x0 MSTORE PUSH1 0x20 PUSH1 0x0 KECCAK256 ADD PUSH1 0x0 SWAP1 PUSH2 0xF2C PUSH2 0x6C8A JUMP JUMPDEST SWAP1 PUSH2 0x100 EXP SWAP1 DIV PUSH1 0x1 PUSH1 0x1 PUSH1 0xA0 SHL SUB AND PUSH1 0x1 PUSH1 0x1 PUSH1 0xA0 SHL SUB AND EQ ISZERO PUSH2 0x1041 JUMPI PUSH1 0x5 DUP2 DUP2 PUSH2 0xF57 PUSH2 0x6C8A JUMP JUMPDEST DUP2 LT PUSH2 0xF5F JUMPI INVALID JUMPDEST SWAP1 PUSH1 0x0 MSTORE PUSH1 0x20 PUSH1 0x0 KECCAK256 ADD PUSH1 0x1 DUP2 PUSH2 0xF74 PUSH2 0x6C8A JUMP JUMPDEST SWAP1 PUSH1 0x1 PUSH1 0x1 PUSH1 0xA0 SHL SUB MUL NOT AND SWAP1 PUSH2 0xF89 PUSH2 0x6DEA JUMP JUMPDEST POP POP PUSH1 0x5 PUSH1 0x1 PUSH1 0x5 DUP1 PUSH2 0xF9A PUSH2 0x6C8A JUMP JUMPDEST SWAP1 POP SUB DUP2 PUSH2 0xFA6 PUSH2 0x6C8A JUMP JUMPDEST DUP2 LT PUSH2 0xFAE JUMPI INVALID JUMPDEST SWAP1 PUSH1 0x0 MSTORE PUSH1 0x20 PUSH1 0x0 KECCAK256 ADD PUSH1 0x0 SWAP1 PUSH2 0xFC3 PUSH2 0x6C8A JUMP JUMPDEST SWAP1 PUSH2 0x100 EXP SWAP1 DIV PUSH1 0x1 PUSH1 0x1 PUSH1 0xA0 SHL SUB AND PUSH1 0x5 DUP3 DUP2 PUSH2 0xFDF PUSH2 0x6C8A JUMP JUMPDEST DUP2 LT PUSH2 0xFE7 JUMPI INVALID JUMPDEST SWAP1 PUSH1 0x0 MSTORE PUSH1 0x20 PUSH1 0x0 KECCAK256 ADD PUSH1 0x1 DUP2 PUSH2 0xFFC PUSH2 0x6C8A JUMP JUMPDEST DUP2 PUSH1 0x1 PUSH1 0x1 PUSH1 0xA0 SHL SUB MUL NOT AND SWAP1 DUP4 PUSH1 0x1 PUSH1 0x1 PUSH1 0xA0 SHL SUB AND MUL OR SWAP1 PUSH2 0x101E PUSH2 0x6DEA JUMP JUMPDEST POP POP POP PUSH1 0x5 DUP1 PUSH2 0x102C PUSH2 0x6C8A JUMP JUMPDEST SWAP1 PUSH2 0x103B SWAP1 PUSH1 0x0 NOT DUP4 ADD PUSH2 0x6E38 JUMP JUMPDEST POP PUSH2 0x1049 JUMP JUMPDEST PUSH1 0x1 ADD PUSH2 0xEE5 JUMP JUMPDEST POP PUSH1 0x1 PUSH1 0x1 PUSH1 0xA0 SHL SUB DUP2 AND PUSH1 0x0 SWAP1 DUP2 MSTORE PUSH1 0x7 PUSH1 0x20 MSTORE PUSH1 0x40 SWAP1 KECCAK256 PUSH1 0x0 SWAP1 PUSH2 0x106D PUSH2 0x6DEA JUMP JUMPDEST POP POP PUSH1 0x0 DUP3 DUP2 MSTORE PUSH1 0x6 PUSH1 0x20 MSTORE PUSH1 0x40 SWAP1 KECCAK256 PUSH1 0x1 DUP2 PUSH2 0x1088 PUSH2 0x6C8A JUMP JUMPDEST SWAP1 PUSH1 0x1 PUSH1 0x1 PUSH1 0xA0 SHL SUB MUL NOT AND SWAP1 PUSH2 0x109D PUSH2 0x6DEA JUMP JUMPDEST POP POP PUSH32 0x6166F5C475CC1CD535C6CDF14A6D5EDB811E34117031FC2863392A136EB655D0 DUP3 DUP3 PUSH1 0x40 MLOAD SWAP2 DUP3 MSTORE PUSH1 0x1 PUSH1 0x1 PUSH1 0xA0 SHL SUB AND PUSH1 0x20 DUP3 ADD MSTORE PUSH1 0x40 SWAP1 DUP2 ADD SWAP1 MLOAD DUP1 SWAP2 SUB SWAP1 LOG1 POP POP JUMP JUMPDEST PUSH1 0x0 DUP1 PUSH1 0x0 PUSH2 0x10F4 DUP5 PUSH2 0x3A81 JUMP JUMPDEST POP SWAP2 SWAP7 SWAP1 SWAP6 POP SWAP1 SWAP4 POP SWAP2 POP POP JUMP JUMPDEST PUSH2 0x110A PUSH2 0x380B JUMP JUMPDEST DUP1 PUSH1 0x1 DUP1 DUP1 PUSH2 0x1117 PUSH2 0x6C8A JUMP JUMPDEST DUP2 PUSH1 0x1 PUSH1 0x1 PUSH1 0xA0 SHL SUB MUL NOT AND SWAP1 DUP4 PUSH1 0x1 PUSH1 0x1 PUSH1 0xA0 SHL SUB AND MUL OR SWAP1 PUSH2 0x1139 PUSH2 0x6DEA JUMP JUMPDEST POP POP POP PUSH32 0x906A1C6BD7E3091EA86693DD029A831C19049CE77F1DCE2CE0BAB1CACBABCE22 DUP2 PUSH1 0x40 MLOAD PUSH1 0x1 PUSH1 0x1 PUSH1 0xA0 SHL SUB SWAP1 SWAP2 AND DUP2 MSTORE PUSH1 0x20 ADD PUSH1 0x40 MLOAD DUP1 SWAP2 SUB SWAP1 LOG1 POP JUMP JUMPDEST PUSH1 0x7 PUSH1 0x20 MSTORE DUP1 PUSH1 0x0 MSTORE PUSH1 0x40 PUSH1 0x0 KECCAK256 SWAP1 POP PUSH2 0x1194 PUSH2 0x6C8A JUMP JUMPDEST DUP2 JUMP JUMPDEST PUSH2 0x119F PUSH2 0x3AE9 JUMP JUMPDEST PUSH1 0x60 PUSH2 0x11AB PUSH1 0x0 PUSH2 0x3B9A JUMP JUMPDEST SWAP1 POP PUSH1 0x60 PUSH1 0x0 PUSH2 0x11BA DUP4 PUSH2 0x169B JUMP JUMPDEST SWAP2 POP SWAP2 POP PUSH1 0x0 DUP3 MLOAD SWAP1 POP PUSH1 0x0 DUP1 JUMPDEST DUP3 DUP2 LT ISZERO PUSH2 0x11FE JUMPI PUSH2 0x11F4 DUP6 DUP3 DUP2 MLOAD DUP2 LT PUSH2 0x11DF JUMPI INVALID JUMPDEST PUSH1 0x20 MUL PUSH1 0x20 ADD ADD MLOAD DUP4 SWAP1 PUSH4 0xFFFFFFFF PUSH2 0x3CBC AND JUMP JUMPDEST SWAP2 POP PUSH1 0x1 ADD PUSH2 0x11C8 JUMP JUMPDEST POP PUSH1 0x60 PUSH1 0x2 PUSH1 0x40 MLOAD SWAP1 DUP1 DUP3 MSTORE DUP1 PUSH1 0x20 MUL PUSH1 0x20 ADD DUP3 ADD PUSH1 0x40 MSTORE DUP1 ISZERO PUSH2 0x122C JUMPI DUP2 PUSH1 0x20 ADD PUSH1 0x20 DUP3 MUL DUP1 CODESIZE DUP4 CODECOPY ADD SWAP1 POP JUMPDEST POP SWAP1 POP PUSH19 0x18D858DA195914D396125CDCDD59591119589D PUSH1 0x6A SHL DUP2 PUSH1 0x0 DUP2 MLOAD DUP2 LT PUSH2 0x1253 JUMPI INVALID JUMPDEST PUSH1 0x20 MUL PUSH1 0x20 ADD ADD DUP2 DUP2 MSTORE POP POP PUSH32 0x636163686564534E584973737565644465627454696D657374616D7000000000 DUP2 PUSH1 0x1 DUP2 MLOAD DUP2 LT PUSH2 0x128D JUMPI INVALID JUMPDEST PUSH1 0x20 MUL PUSH1 0x20 ADD ADD DUP2 DUP2 MSTORE POP POP PUSH1 0x60 PUSH1 0x2 PUSH1 0x40 MLOAD SWAP1 DUP1 DUP3 MSTORE DUP1 PUSH1 0x20 MUL PUSH1 0x20 ADD DUP3 ADD PUSH1 0x40 MSTORE DUP1 ISZERO PUSH2 0x12C6 JUMPI DUP2 PUSH1 0x20 ADD PUSH1 0x20 DUP3 MUL DUP1 CODESIZE DUP4 CODECOPY ADD SWAP1 POP JUMPDEST POP SWAP1 POP DUP3 DUP2 PUSH1 0x0 DUP2 MLOAD DUP2 LT PUSH2 0x12D7 JUMPI INVALID JUMPDEST PUSH1 0x20 MUL PUSH1 0x20 ADD ADD DUP2 DUP2 MSTORE POP POP GAS PUSH2 0x12EC PUSH2 0x6E6C JUMP JUMPDEST DUP2 PUSH1 0x1 DUP2 MLOAD DUP2 LT PUSH2 0x12F9 JUMPI INVALID JUMPDEST PUSH1 0x20 MUL PUSH1 0x20 ADD ADD DUP2 DUP2 MSTORE POP POP PUSH1 0x0 PUSH2 0x130F PUSH2 0x3923 JUMP JUMPDEST SWAP1 POP DUP1 PUSH1 0x1 PUSH1 0x1 PUSH1 0xA0 SHL SUB AND PUSH4 0x3CDC017 PUSH6 0x24B9B9BAB2B9 PUSH1 0xD1 SHL DUP11 DUP11 PUSH1 0x40 MLOAD DUP5 PUSH4 0xFFFFFFFF AND PUSH1 0xE0 SHL DUP2 MSTORE PUSH1 0x4 ADD DUP1 DUP5 DUP2 MSTORE PUSH1 0x20 ADD DUP1 PUSH1 0x20 ADD DUP1 PUSH1 0x20 ADD DUP4 DUP2 SUB DUP4 MSTORE DUP6 DUP2 DUP2 MLOAD DUP2 MSTORE PUSH1 0x20 ADD SWAP2 POP DUP1 MLOAD SWAP1 PUSH1 0x20 ADD SWAP1 PUSH1 0x20 MUL DUP1 DUP4 DUP4 PUSH1 0x0 JUMPDEST DUP4 DUP2 LT ISZERO PUSH2 0x1385 JUMPI DUP1 DUP3 ADD MLOAD DUP4 DUP3 ADD MSTORE PUSH1 0x20 ADD PUSH2 0x136D JUMP JUMPDEST POP POP POP POP SWAP1 POP ADD DUP4 DUP2 SUB DUP3 MSTORE DUP5 DUP2 DUP2 MLOAD DUP2 MSTORE PUSH1 0x20 ADD SWAP2 POP DUP1 MLOAD SWAP1 PUSH1 0x20 ADD SWAP1 PUSH1 0x20 MUL DUP1 DUP4 DUP4 PUSH1 0x0 JUMPDEST DUP4 DUP2 LT ISZERO PUSH2 0x13C4 JUMPI DUP1 DUP3 ADD MLOAD DUP4 DUP3 ADD MSTORE PUSH1 0x20 ADD PUSH2 0x13AC JUMP JUMPDEST POP POP POP POP SWAP1 POP ADD SWAP6 POP POP POP POP POP POP PUSH1 0x0 PUSH1 0x40 MLOAD DUP1 DUP4 SUB DUP2 PUSH1 0x0 DUP8 DUP1 PUSH2 0x13E7 PUSH2 0x6CE5 JUMP JUMPDEST ISZERO DUP1 ISZERO PUSH2 0x13FC JUMPI PUSH1 0x0 DUP1 PUSH2 0x13F9 PUSH2 0x6C1F JUMP JUMPDEST POP POP JUMPDEST POP GAS PUSH2 0x1406 PUSH2 0x6EB2 JUMP JUMPDEST POP POP POP POP POP POP ISZERO DUP1 ISZERO PUSH2 0x1426 JUMPI RETURNDATASIZE PUSH1 0x0 DUP1 RETURNDATACOPY RETURNDATASIZE PUSH1 0x0 PUSH2 0x1423 PUSH2 0x6C1F JUMP JUMPDEST POP POP JUMPDEST POP POP POP POP DUP1 PUSH1 0x1 PUSH1 0x1 PUSH1 0xA0 SHL SUB AND PUSH4 0x3CDC017 PUSH6 0x24B9B9BAB2B9 PUSH1 0xD1 SHL DUP6 DUP6 PUSH1 0x40 MLOAD DUP5 PUSH4 0xFFFFFFFF AND PUSH1 0xE0 SHL DUP2 MSTORE PUSH1 0x4 ADD DUP1 DUP5 DUP2 MSTORE PUSH1 0x20 ADD DUP1 PUSH1 0x20 ADD DUP1 PUSH1 0x20 ADD DUP4 DUP2 SUB DUP4 MSTORE DUP6 DUP2 DUP2 MLOAD DUP2 MSTORE PUSH1 0x20 ADD SWAP2 POP DUP1 MLOAD SWAP1 PUSH1 0x20 ADD SWAP1 PUSH1 0x20 MUL DUP1 DUP4 DUP4 PUSH1 0x0 JUMPDEST DUP4 DUP2 LT ISZERO PUSH2 0x149E JUMPI DUP1 DUP3 ADD MLOAD DUP4 DUP3 ADD MSTORE PUSH1 0x20 ADD PUSH2 0x1486 JUMP JUMPDEST POP POP POP POP SWAP1 POP ADD DUP4 DUP2 SUB DUP3 MSTORE DUP5 DUP2 DUP2 MLOAD DUP2 MSTORE PUSH1 0x20 ADD SWAP2 POP DUP1 MLOAD SWAP1 PUSH1 0x20 ADD SWAP1 PUSH1 0x20 MUL DUP1 DUP4 DUP4 PUSH1 0x0 JUMPDEST DUP4 DUP2 LT ISZERO PUSH2 0x14DD JUMPI DUP1 DUP3 ADD MLOAD DUP4 DUP3 ADD MSTORE PUSH1 0x20 ADD PUSH2 0x14C5 JUMP JUMPDEST POP POP POP POP SWAP1 POP ADD SWAP6 POP POP POP POP POP POP PUSH1 0x0 PUSH1 0x40 MLOAD DUP1 DUP4 SUB DUP2 PUSH1 0x0 DUP8 DUP1 PUSH2 0x1500 PUSH2 0x6CE5 JUMP JUMPDEST ISZERO DUP1 ISZERO PUSH2 0x1515 JUMPI PUSH1 0x0 DUP1 PUSH2 0x1512 PUSH2 0x6C1F JUMP JUMPDEST POP POP JUMPDEST POP GAS PUSH2 0x151F PUSH2 0x6EB2 JUMP JUMPDEST POP POP POP POP POP POP ISZERO DUP1 ISZERO PUSH2 0x153F JUMPI RETURNDATASIZE PUSH1 0x0 DUP1 RETURNDATACOPY RETURNDATASIZE PUSH1 0x0 PUSH2 0x153C PUSH2 0x6C1F JUMP JUMPDEST POP POP JUMPDEST POP POP POP POP PUSH32 0x294A7C394E53042C7D754779562747D93B41DB019DD4B970DD9B531DB71BE599 DUP5 PUSH1 0x40 MLOAD SWAP1 DUP2 MSTORE PUSH1 0x20 ADD PUSH1 0x40 MLOAD DUP1 SWAP2 SUB SWAP1 LOG1 PUSH32 0x6EDDFF7D81AFA874124321780C7EEB5B2AF804FA8E16EF689F9F042A8F63E1FC GAS PUSH2 0x15A0 PUSH2 0x6E6C JUMP JUMPDEST PUSH1 0x40 MLOAD SWAP1 DUP2 MSTORE PUSH1 0x20 ADD PUSH1 0x40 MLOAD DUP1 SWAP2 SUB SWAP1 LOG1 PUSH2 0x15BB DUP2 DUP8 PUSH2 0x3974 JUMP JUMPDEST POP POP POP POP POP POP POP POP JUMP JUMPDEST PUSH1 0x0 DUP1 PUSH1 0x60 PUSH1 0x0 PUSH2 0x15DE PUSH2 0x15D9 PUSH1 0x0 PUSH2 0x3B9A JUMP JUMPDEST PUSH2 0x169B JUMP JUMPDEST SWAP2 POP SWAP2 POP PUSH1 0x0 DUP3 MLOAD SWAP1 POP PUSH1 0x0 DUP1 JUMPDEST DUP3 DUP2 LT ISZERO PUSH2 0x160D JUMPI PUSH2 0x1603 DUP6 DUP3 DUP2 MLOAD DUP2 LT PUSH2 0x11DF JUMPI INVALID JUMPDEST SWAP2 POP PUSH1 0x1 ADD PUSH2 0x15EC JUMP JUMPDEST POP SWAP5 POP SWAP1 SWAP3 POP POP POP SWAP1 SWAP2 JUMP JUMPDEST PUSH1 0x0 PUSH2 0x1623 PUSH2 0x3D25 JUMP JUMPDEST SWAP1 POP JUMPDEST SWAP1 JUMP JUMPDEST PUSH2 0x1631 PUSH2 0x3494 JUMP JUMPDEST PUSH2 0x163B DUP3 DUP3 PUSH2 0x3E05 JUMP JUMPDEST PUSH2 0xCC0 DUP3 PUSH1 0x0 PUSH1 0x1 PUSH2 0x3F1C JUMP JUMPDEST PUSH1 0x6 PUSH1 0x20 MSTORE DUP1 PUSH1 0x0 MSTORE PUSH1 0x40 PUSH1 0x0 KECCAK256 PUSH1 0x0 SWAP2 POP PUSH2 0xCD0 PUSH2 0x6C8A JUMP JUMPDEST PUSH1 0x0 DUP1 PUSH1 0x0 DUP1 PUSH2 0x1670 PUSH2 0x3923 JUMP JUMPDEST SWAP1 POP PUSH1 0x0 DUP1 PUSH2 0x167E DUP4 PUSH2 0x42B5 JUMP JUMPDEST SWAP2 POP SWAP2 POP DUP2 DUP2 PUSH2 0x168D DUP6 PUSH2 0x4530 JUMP JUMPDEST SWAP6 POP SWAP6 POP SWAP6 POP POP POP POP SWAP1 SWAP2 SWAP3 JUMP JUMPDEST PUSH1 0x60 PUSH1 0x0 PUSH1 0x60 PUSH1 0x0 PUSH2 0x16AB PUSH2 0x460F JUMP JUMPDEST PUSH1 0x1 PUSH1 0x1 PUSH1 0xA0 SHL SUB AND PUSH4 0xC8E5BBD5 DUP7 PUSH1 0x40 MLOAD DUP3 PUSH4 0xFFFFFFFF AND PUSH1 0xE0 SHL DUP2 MSTORE PUSH1 0x4 ADD DUP1 DUP1 PUSH1 0x20 ADD DUP3 DUP2 SUB DUP3 MSTORE DUP4 DUP2 DUP2 MLOAD DUP2 MSTORE PUSH1 0x20 ADD SWAP2 POP DUP1 MLOAD SWAP1 PUSH1 0x20 ADD SWAP1 PUSH1 0x20 MUL DUP1 DUP4 DUP4 PUSH1 0x0 JUMPDEST DUP4 DUP2 LT ISZERO PUSH2 0x1709 JUMPI DUP1 DUP3 ADD MLOAD DUP4 DUP3 ADD MSTORE PUSH1 0x20 ADD PUSH2 0x16F1 JUMP JUMPDEST POP POP POP POP SWAP1 POP ADD SWAP3 POP POP POP PUSH1 0x0 PUSH1 0x40 MLOAD DUP1 DUP4 SUB DUP2 DUP7 DUP1 PUSH2 0x1727 PUSH2 0x6CE5 JUMP JUMPDEST ISZERO DUP1 ISZERO PUSH2 0x173C JUMPI PUSH1 0x0 DUP1 PUSH2 0x1739 PUSH2 0x6C1F JUMP JUMPDEST POP POP JUMPDEST POP GAS PUSH2 0x1746 PUSH2 0x6D31 JUMP JUMPDEST POP POP POP POP POP ISZERO DUP1 ISZERO PUSH2 0x1765 JUMPI RETURNDATASIZE PUSH1 0x0 DUP1 RETURNDATACOPY RETURNDATASIZE PUSH1 0x0 PUSH2 0x1762 PUSH2 0x6C1F JUMP JUMPDEST POP POP JUMPDEST POP POP POP POP PUSH1 0x40 MLOAD RETURNDATASIZE PUSH1 0x0 DUP3 RETURNDATACOPY PUSH1 0x1F RETURNDATASIZE SWAP1 DUP2 ADD PUSH1 0x1F NOT AND DUP3 ADD PUSH1 0x40 SWAP1 DUP2 MSTORE DUP2 LT ISZERO PUSH2 0x1797 JUMPI PUSH1 0x0 DUP1 PUSH2 0x1794 PUSH2 0x6C1F JUMP JUMPDEST POP POP JUMPDEST DUP2 ADD SWAP1 DUP1 DUP1 MLOAD PUSH1 0x40 MLOAD SWAP4 SWAP3 SWAP2 SWAP1 DUP5 PUSH1 0x1 PUSH1 0x20 SHL DUP3 GT ISZERO PUSH2 0x17BF JUMPI PUSH1 0x0 DUP1 PUSH2 0x17BC PUSH2 0x6C1F JUMP JUMPDEST POP POP JUMPDEST SWAP1 DUP4 ADD SWAP1 PUSH1 0x20 DUP3 ADD DUP6 DUP2 GT ISZERO PUSH2 0x17DD JUMPI PUSH1 0x0 DUP1 PUSH2 0x17DA PUSH2 0x6C1F JUMP JUMPDEST POP POP JUMPDEST DUP3 MLOAD DUP7 PUSH1 0x20 DUP3 MUL DUP4 ADD GT PUSH1 0x1 PUSH1 0x20 SHL DUP3 GT OR ISZERO PUSH2 0x1802 JUMPI PUSH1 0x0 DUP1 PUSH2 0x17FF PUSH2 0x6C1F JUMP JUMPDEST POP POP JUMPDEST DUP3 MSTORE POP PUSH1 0x20 ADD SWAP1 DUP1 MLOAD SWAP1 PUSH1 0x20 ADD SWAP1 PUSH1 0x20 MUL DUP1 DUP4 DUP4 PUSH1 0x0 JUMPDEST DUP4 DUP2 LT ISZERO PUSH2 0x1831 JUMPI DUP1 DUP3 ADD MLOAD DUP4 DUP3 ADD MSTORE PUSH1 0x20 ADD PUSH2 0x1819 JUMP JUMPDEST POP POP POP POP SWAP1 POP ADD PUSH1 0x40 MSTORE PUSH1 0x20 ADD DUP1 MLOAD SWAP4 SWAP6 POP SWAP3 SWAP4 POP PUSH2 0x1856 SWAP3 POP DUP8 SWAP2 POP DUP5 SWAP1 POP PUSH2 0x465E JUMP JUMPDEST SWAP4 POP SWAP2 POP POP JUMPDEST SWAP2 POP SWAP2 JUMP JUMPDEST PUSH2 0x1869 PUSH2 0x380B JUMP JUMPDEST DUP1 PUSH1 0x2 PUSH1 0x1 DUP2 PUSH2 0x1877 PUSH2 0x6C8A JUMP JUMPDEST DUP2 PUSH1 0x1 PUSH1 0x1 PUSH1 0xA0 SHL SUB MUL NOT AND SWAP1 DUP4 PUSH1 0x1 PUSH1 0x1 PUSH1 0xA0 SHL SUB AND MUL OR SWAP1 PUSH2 0x1899 PUSH2 0x6DEA JUMP JUMPDEST POP PUSH1 0x0 SWAP2 POP POP JUMPDEST PUSH1 0x4 DUP1 PUSH2 0x18AB PUSH2 0x6C8A JUMP JUMPDEST SWAP1 POP DUP2 LT ISZERO PUSH2 0xCC0 JUMPI PUSH1 0x0 PUSH1 0x4 DUP3 DUP2 PUSH2 0x18C2 PUSH2 0x6C8A JUMP JUMPDEST DUP2 LT PUSH2 0x18CA JUMPI INVALID JUMPDEST SWAP1 PUSH1 0x0 MSTORE PUSH1 0x20 PUSH1 0x0 KECCAK256 ADD PUSH2 0x18DC PUSH2 0x6C8A JUMP JUMPDEST SWAP1 POP PUSH1 0x0 PUSH1 0x2 PUSH2 0x18EA PUSH2 0x6C8A JUMP JUMPDEST SWAP1 PUSH2 0x100 EXP SWAP1 DIV PUSH1 0x1 PUSH1 0x1 PUSH1 0xA0 SHL SUB AND PUSH1 0x1 PUSH1 0x1 PUSH1 0xA0 SHL SUB AND PUSH4 0xDACB2D01 DUP3 PUSH1 0x40 MLOAD PUSH1 0x1 PUSH1 0x1 PUSH1 0xE0 SHL SUB NOT PUSH1 0xE0 DUP5 SWAP1 SHL AND DUP2 MSTORE PUSH1 0x4 DUP2 ADD SWAP2 SWAP1 SWAP2 MSTORE PUSH1 0x40 PUSH1 0x24 DUP3 ADD DUP2 SWAP1 MSTORE PUSH1 0x17 PUSH1 0x44 DUP4 ADD MSTORE PUSH32 0x5265736F6C766572206D697373696E6720746172676574000000000000000000 PUSH1 0x64 DUP4 ADD MSTORE PUSH1 0x84 SWAP1 SWAP2 ADD SWAP1 PUSH1 0x20 SWAP1 MLOAD DUP1 DUP4 SUB DUP2 DUP7 DUP1 PUSH2 0x1973 PUSH2 0x6CE5 JUMP JUMPDEST ISZERO DUP1 ISZERO PUSH2 0x1988 JUMPI PUSH1 0x0 DUP1 PUSH2 0x1985 PUSH2 0x6C1F JUMP JUMPDEST POP POP JUMPDEST POP GAS PUSH2 0x1992 PUSH2 0x6D31 JUMP JUMPDEST POP POP POP POP POP ISZERO DUP1 ISZERO PUSH2 0x19B1 JUMPI RETURNDATASIZE PUSH1 0x0 DUP1 RETURNDATACOPY RETURNDATASIZE PUSH1 0x0 PUSH2 0x19AE PUSH2 0x6C1F JUMP JUMPDEST POP POP JUMPDEST POP POP POP POP PUSH1 0x40 MLOAD RETURNDATASIZE PUSH1 0x20 DUP2 LT ISZERO PUSH2 0x19D0 JUMPI PUSH1 0x0 DUP1 PUSH2 0x19CD PUSH2 0x6C1F JUMP JUMPDEST POP POP JUMPDEST DUP2 ADD SWAP1 DUP1 DUP1 MLOAD PUSH1 0x0 DUP6 DUP2 MSTORE PUSH1 0x3 PUSH1 0x20 MSTORE SWAP1 SWAP4 POP PUSH1 0x40 SWAP3 POP SWAP1 POP KECCAK256 PUSH1 0x1 DUP2 PUSH2 0x19F5 PUSH2 0x6C8A JUMP JUMPDEST DUP2 PUSH1 0x1 PUSH1 0x1 PUSH1 0xA0 SHL SUB MUL NOT AND SWAP1 DUP4 PUSH1 0x1 PUSH1 0x1 PUSH1 0xA0 SHL SUB AND MUL OR SWAP1 PUSH2 0x1A17 PUSH2 0x6DEA JUMP JUMPDEST POP POP PUSH1 0x1 SWAP1 SWAP3 ADD SWAP2 POP PUSH2 0x18A0 SWAP1 POP JUMP JUMPDEST PUSH2 0x1A2F PUSH2 0x3494 JUMP JUMPDEST PUSH2 0x1A39 DUP4 DUP4 PUSH2 0x48C2 JUMP JUMPDEST PUSH2 0x1A45 DUP4 DUP3 PUSH1 0x0 PUSH2 0x34FB JUMP JUMPDEST POP POP POP JUMP JUMPDEST PUSH2 0x1A52 PUSH2 0x3494 JUMP JUMPDEST PUSH2 0x1A5F DUP2 PUSH1 0x0 PUSH1 0x1 PUSH2 0x3F1C JUMP JUMPDEST POP JUMP JUMPDEST PUSH1 0x60 PUSH2 0x1A6C PUSH2 0x3923 JUMP JUMPDEST PUSH1 0x1 PUSH1 0x1 PUSH1 0xA0 SHL SUB AND PUSH4 0xB67FA7ED PUSH6 0x24B9B9BAB2B9 PUSH1 0xD1 SHL DUP6 DUP6 PUSH1 0x40 MLOAD DUP5 PUSH4 0xFFFFFFFF AND PUSH1 0xE0 SHL DUP2 MSTORE PUSH1 0x4 ADD DUP1 DUP5 DUP2 MSTORE PUSH1 0x20 ADD DUP1 PUSH1 0x20 ADD DUP3 DUP2 SUB DUP3 MSTORE DUP5 DUP5 DUP3 DUP2 DUP2 MSTORE PUSH1 0x20 ADD SWAP3 POP PUSH1 0x20 MUL DUP1 DUP3 DUP5 CALLDATACOPY PUSH1 0x0 DUP4 DUP3 ADD DUP2 SWAP1 MSTORE PUSH1 0x1F SWAP1 SWAP2 ADD PUSH1 0x1F NOT AND SWAP1 SWAP3 ADD SWAP7 POP SWAP1 SWAP5 POP PUSH1 0x40 SWAP4 POP POP POP POP MLOAD DUP1 DUP4 SUB DUP2 DUP7 DUP1 PUSH2 0x1AE9 PUSH2 0x6CE5 JUMP JUMPDEST ISZERO DUP1 ISZERO PUSH2 0x1AFE JUMPI PUSH1 0x0 DUP1 PUSH2 0x1AFB PUSH2 0x6C1F JUMP JUMPDEST POP POP JUMPDEST POP GAS PUSH2 0x1B08 PUSH2 0x6D31 JUMP JUMPDEST POP POP POP POP POP ISZERO DUP1 ISZERO PUSH2 0x1B27 JUMPI RETURNDATASIZE PUSH1 0x0 DUP1 RETURNDATACOPY RETURNDATASIZE PUSH1 0x0 PUSH2 0x1B24 PUSH2 0x6C1F JUMP JUMPDEST POP POP JUMPDEST POP POP POP POP PUSH1 0x40 MLOAD RETURNDATASIZE PUSH1 0x0 DUP3 RETURNDATACOPY PUSH1 0x1F RETURNDATASIZE SWAP1 DUP2 ADD PUSH1 0x1F NOT AND DUP3 ADD PUSH1 0x40 MSTORE PUSH1 0x20 DUP2 LT ISZERO PUSH2 0x1B59 JUMPI PUSH1 0x0 DUP1 PUSH2 0x1B56 PUSH2 0x6C1F JUMP JUMPDEST POP POP JUMPDEST DUP2 ADD SWAP1 DUP1 DUP1 MLOAD PUSH1 0x40 MLOAD SWAP4 SWAP3 SWAP2 SWAP1 DUP5 PUSH1 0x1 PUSH1 0x20 SHL DUP3 GT ISZERO PUSH2 0x1B81 JUMPI PUSH1 0x0 DUP1 PUSH2 0x1B7E PUSH2 0x6C1F JUMP JUMPDEST POP POP JUMPDEST SWAP1 DUP4 ADD SWAP1 PUSH1 0x20 DUP3 ADD DUP6 DUP2 GT ISZERO PUSH2 0x1B9F JUMPI PUSH1 0x0 DUP1 PUSH2 0x1B9C PUSH2 0x6C1F JUMP JUMPDEST POP POP JUMPDEST DUP3 MLOAD DUP7 PUSH1 0x20 DUP3 MUL DUP4 ADD GT PUSH1 0x1 PUSH1 0x20 SHL DUP3 GT OR ISZERO PUSH2 0x1BC4 JUMPI PUSH1 0x0 DUP1 PUSH2 0x1BC1 PUSH2 0x6C1F JUMP JUMPDEST POP POP JUMPDEST DUP3 MSTORE POP PUSH1 0x20 ADD SWAP1 DUP1 MLOAD SWAP1 PUSH1 0x20 ADD SWAP1 PUSH1 0x20 MUL DUP1 DUP4 DUP4 PUSH1 0x0 JUMPDEST DUP4 DUP2 LT ISZERO PUSH2 0x1BF3 JUMPI DUP1 DUP3 ADD MLOAD DUP4 DUP3 ADD MSTORE PUSH1 0x20 ADD PUSH2 0x1BDB JUMP JUMPDEST POP POP POP POP SWAP1 POP ADD PUSH1 0x40 MSTORE POP POP POP SWAP1 POP JUMPDEST SWAP3 SWAP2 POP POP JUMP JUMPDEST PUSH1 0x0 PUSH2 0x1C13 PUSH2 0x460F JUMP JUMPDEST PUSH1 0x1 PUSH1 0x1 PUSH1 0xA0 SHL SUB AND PUSH4 0xC8E5BBD5 PUSH2 0x1C2B PUSH1 0x1 PUSH2 0x3B9A JUMP JUMPDEST PUSH1 0x40 MLOAD DUP3 PUSH4 0xFFFFFFFF AND PUSH1 0xE0 SHL DUP2 MSTORE PUSH1 0x4 ADD DUP1 DUP1 PUSH1 0x20 ADD DUP3 DUP2 SUB DUP3 MSTORE DUP4 DUP2 DUP2 MLOAD DUP2 MSTORE PUSH1 0x20 ADD SWAP2 POP DUP1 MLOAD SWAP1 PUSH1 0x20 ADD SWAP1 PUSH1 0x20 MUL DUP1 DUP4 DUP4 PUSH1 0x0 JUMPDEST DUP4 DUP2 LT ISZERO PUSH2 0x1C7A JUMPI DUP1 DUP3 ADD MLOAD DUP4 DUP3 ADD MSTORE PUSH1 0x20 ADD PUSH2 0x1C62 JUMP JUMPDEST POP POP POP POP SWAP1 POP ADD SWAP3 POP POP POP PUSH1 0x0 PUSH1 0x40 MLOAD DUP1 DUP4 SUB DUP2 DUP7 DUP1 PUSH2 0x1C98 PUSH2 0x6CE5 JUMP JUMPDEST ISZERO DUP1 ISZERO PUSH2 0x1CAD JUMPI PUSH1 0x0 DUP1 PUSH2 0x1CAA PUSH2 0x6C1F JUMP JUMPDEST POP POP JUMPDEST POP GAS PUSH2 0x1CB7 PUSH2 0x6D31 JUMP JUMPDEST POP POP POP POP POP ISZERO DUP1 ISZERO PUSH2 0x1CD6 JUMPI RETURNDATASIZE PUSH1 0x0 DUP1 RETURNDATACOPY RETURNDATASIZE PUSH1 0x0 PUSH2 0x1CD3 PUSH2 0x6C1F JUMP JUMPDEST POP POP JUMPDEST POP POP POP POP PUSH1 0x40 MLOAD RETURNDATASIZE PUSH1 0x0 DUP3 RETURNDATACOPY PUSH1 0x1F RETURNDATASIZE SWAP1 DUP2 ADD PUSH1 0x1F NOT AND DUP3 ADD PUSH1 0x40 SWAP1 DUP2 MSTORE DUP2 LT ISZERO PUSH2 0x1D08 JUMPI PUSH1 0x0 DUP1 PUSH2 0x1D05 PUSH2 0x6C1F JUMP JUMPDEST POP POP JUMPDEST DUP2 ADD SWAP1 DUP1 DUP1 MLOAD PUSH1 0x40 MLOAD SWAP4 SWAP3 SWAP2 SWAP1 DUP5 PUSH1 0x1 PUSH1 0x20 SHL DUP3 GT ISZERO PUSH2 0x1D30 JUMPI PUSH1 0x0 DUP1 PUSH2 0x1D2D PUSH2 0x6C1F JUMP JUMPDEST POP POP JUMPDEST SWAP1 DUP4 ADD SWAP1 PUSH1 0x20 DUP3 ADD DUP6 DUP2 GT ISZERO PUSH2 0x1D4E JUMPI PUSH1 0x0 DUP1 PUSH2 0x1D4B PUSH2 0x6C1F JUMP JUMPDEST POP POP JUMPDEST DUP3 MLOAD DUP7 PUSH1 0x20 DUP3 MUL DUP4 ADD GT PUSH1 0x1 PUSH1 0x20 SHL DUP3 GT OR ISZERO PUSH2 0x1D73 JUMPI PUSH1 0x0 DUP1 PUSH2 0x1D70 PUSH2 0x6C1F JUMP JUMPDEST POP POP JUMPDEST DUP3 MSTORE POP PUSH1 0x20 ADD SWAP1 DUP1 MLOAD SWAP1 PUSH1 0x20 ADD SWAP1 PUSH1 0x20 MUL DUP1 DUP4 DUP4 PUSH1 0x0 JUMPDEST DUP4 DUP2 LT ISZERO PUSH2 0x1DA2 JUMPI DUP1 DUP3 ADD MLOAD DUP4 DUP3 ADD MSTORE PUSH1 0x20 ADD PUSH2 0x1D8A JUMP JUMPDEST POP POP POP POP SWAP1 POP ADD PUSH1 0x40 MSTORE PUSH1 0x20 ADD DUP1 MLOAD SWAP6 SWAP5 POP POP POP POP POP JUMP JUMPDEST PUSH1 0x0 PUSH1 0x1 PUSH2 0xCD0 PUSH2 0x6C8A JUMP JUMPDEST PUSH6 0x24B9B9BAB2B9 PUSH1 0xD1 SHL DUP2 JUMP JUMPDEST PUSH1 0x0 PUSH1 0x1 PUSH1 0x1 PUSH1 0xA0 SHL SUB DUP3 AND DUP2 PUSH1 0x2 PUSH2 0x1DEA PUSH2 0x6C8A JUMP JUMPDEST SWAP1 PUSH2 0x100 EXP SWAP1 DIV PUSH1 0x1 PUSH1 0x1 PUSH1 0xA0 SHL SUB AND PUSH1 0x1 PUSH1 0x1 PUSH1 0xA0 SHL SUB AND EQ PUSH2 0x1E10 JUMPI POP PUSH1 0x0 PUSH2 0xCF4 JUMP JUMPDEST PUSH1 0x0 JUMPDEST PUSH1 0x4 DUP1 PUSH2 0x1E1E PUSH2 0x6C8A JUMP JUMPDEST SWAP1 POP DUP2 LT ISZERO PUSH2 0x1FA4 JUMPI PUSH1 0x0 PUSH1 0x4 DUP3 DUP2 PUSH2 0x1E35 PUSH2 0x6C8A JUMP JUMPDEST DUP2 LT PUSH2 0x1E3D JUMPI INVALID JUMPDEST SWAP1 PUSH1 0x0 MSTORE PUSH1 0x20 PUSH1 0x0 KECCAK256 ADD PUSH2 0x1E4F PUSH2 0x6C8A JUMP JUMPDEST PUSH1 0x0 DUP2 DUP2 MSTORE PUSH1 0x3 PUSH1 0x20 MSTORE SWAP1 SWAP2 POP PUSH1 0x40 SWAP1 KECCAK256 PUSH1 0x0 SWAP1 PUSH2 0x1E6B PUSH2 0x6C8A JUMP JUMPDEST PUSH1 0x1 PUSH1 0x1 PUSH1 0xA0 SHL SUB PUSH2 0x100 SWAP3 SWAP1 SWAP3 EXP SWAP1 DIV AND PUSH1 0x0 PUSH1 0x2 PUSH2 0x1E89 PUSH2 0x6C8A JUMP JUMPDEST SWAP1 PUSH2 0x100 EXP SWAP1 DIV PUSH1 0x1 PUSH1 0x1 PUSH1 0xA0 SHL SUB AND PUSH1 0x1 PUSH1 0x1 PUSH1 0xA0 SHL SUB AND PUSH4 0x21F8A721 DUP4 PUSH1 0x40 MLOAD PUSH1 0x1 PUSH1 0x1 PUSH1 0xE0 SHL SUB NOT PUSH1 0xE0 DUP5 SWAP1 SHL AND DUP2 MSTORE PUSH1 0x4 DUP2 ADD SWAP2 SWAP1 SWAP2 MSTORE PUSH1 0x24 ADD PUSH1 0x20 PUSH1 0x40 MLOAD DUP1 DUP4 SUB DUP2 DUP7 DUP1 PUSH2 0x1EDA PUSH2 0x6CE5 JUMP JUMPDEST ISZERO DUP1 ISZERO PUSH2 0x1EEF JUMPI PUSH1 0x0 DUP1 PUSH2 0x1EEC PUSH2 0x6C1F JUMP JUMPDEST POP POP JUMPDEST POP GAS PUSH2 0x1EF9 PUSH2 0x6D31 JUMP JUMPDEST POP POP POP POP POP ISZERO DUP1 ISZERO PUSH2 0x1F18 JUMPI RETURNDATASIZE PUSH1 0x0 DUP1 RETURNDATACOPY RETURNDATASIZE PUSH1 0x0 PUSH2 0x1F15 PUSH2 0x6C1F JUMP JUMPDEST POP POP JUMPDEST POP POP POP POP PUSH1 0x40 MLOAD RETURNDATASIZE PUSH1 0x20 DUP2 LT ISZERO PUSH2 0x1F37 JUMPI PUSH1 0x0 DUP1 PUSH2 0x1F34 PUSH2 0x6C1F JUMP JUMPDEST POP POP JUMPDEST DUP2 ADD SWAP1 DUP1 DUP1 MLOAD PUSH1 0x1 PUSH1 0x1 PUSH1 0xA0 SHL SUB AND SWAP4 SWAP1 SWAP4 EQ ISZERO SWAP3 POP DUP3 SWAP2 POP PUSH2 0x1F8B SWAP1 POP JUMPI POP PUSH1 0x0 DUP2 DUP2 MSTORE PUSH1 0x3 PUSH1 0x20 MSTORE PUSH1 0x40 DUP2 KECCAK256 PUSH1 0x0 SWAP1 PUSH2 0x1F70 PUSH2 0x6C8A JUMP JUMPDEST SWAP1 PUSH2 0x100 EXP SWAP1 DIV PUSH1 0x1 PUSH1 0x1 PUSH1 0xA0 SHL SUB AND PUSH1 0x1 PUSH1 0x1 PUSH1 0xA0 SHL SUB AND EQ JUMPDEST ISZERO PUSH2 0x1F9B JUMPI PUSH1 0x0 SWAP3 POP POP POP PUSH2 0xCF4 JUMP JUMPDEST POP PUSH1 0x1 ADD PUSH2 0x1E13 JUMP JUMPDEST POP PUSH1 0x1 SWAP3 SWAP2 POP POP JUMP JUMPDEST PUSH1 0x0 DUP1 PUSH1 0x0 PUSH2 0x1FC2 DUP6 PUSH3 0xA69CB PUSH1 0xEB SHL PUSH2 0x491B JUMP JUMPDEST SWAP4 POP SWAP1 SWAP2 POP PUSH1 0x0 SWAP1 POP PUSH2 0x1FE3 PUSH2 0x1FD6 PUSH2 0x4BA1 JUMP JUMPDEST DUP4 SWAP1 PUSH4 0xFFFFFFFF PUSH2 0x4C13 AND JUMP JUMPDEST SWAP1 POP DUP5 DUP2 LT PUSH2 0x1FF5 JUMPI PUSH1 0x0 SWAP4 POP PUSH2 0x2008 JUMP JUMPDEST PUSH2 0x2005 DUP6 DUP3 PUSH4 0xFFFFFFFF PUSH2 0x4C28 AND JUMP JUMPDEST SWAP4 POP JUMPDEST POP POP SWAP3 POP SWAP3 SWAP1 POP JUMP JUMPDEST PUSH1 0x60 PUSH2 0x1623 PUSH1 0x0 PUSH2 0x3B9A JUMP JUMPDEST PUSH1 0x0 PUSH1 0x1 PUSH2 0x2029 PUSH2 0x6C8A JUMP JUMPDEST SWAP1 PUSH2 0x100 EXP SWAP1 DIV PUSH1 0x1 PUSH1 0x1 PUSH1 0xA0 SHL SUB AND PUSH1 0x1 PUSH1 0x1 PUSH1 0xA0 SHL SUB AND GAS PUSH2 0x204B PUSH2 0x6F6B JUMP JUMPDEST PUSH1 0x1 PUSH1 0x1 PUSH1 0xA0 SHL SUB AND EQ PUSH2 0x2099 JUMPI PUSH1 0x40 MLOAD PUSH3 0x461BCD PUSH1 0xE5 SHL DUP2 MSTORE PUSH1 0x4 ADD DUP1 DUP1 PUSH1 0x20 ADD DUP3 DUP2 SUB DUP3 MSTORE PUSH1 0x35 DUP2 MSTORE PUSH1 0x20 ADD DUP1 PUSH2 0x7037 PUSH1 0x35 SWAP2 CODECOPY PUSH1 0x40 ADD SWAP2 POP POP PUSH1 0x40 MLOAD DUP1 SWAP2 SUB SWAP1 PUSH2 0x2096 PUSH2 0x6C1F JUMP JUMPDEST POP POP JUMPDEST PUSH32 0xB532073B38C83145E3E5135377A08BF9AAB55BC0FD7C1179CD4FB995D2A5159C PUSH1 0x0 DUP1 PUSH2 0x20C5 PUSH2 0x6C8A JUMP JUMPDEST SWAP1 PUSH2 0x100 EXP SWAP1 DIV PUSH1 0x1 PUSH1 0x1 PUSH1 0xA0 SHL SUB AND PUSH1 0x1 PUSH1 0x0 SWAP1 PUSH2 0x20E2 PUSH2 0x6C8A JUMP JUMPDEST SWAP1 PUSH2 0x100 EXP SWAP1 DIV PUSH1 0x1 PUSH1 0x1 PUSH1 0xA0 SHL SUB AND PUSH1 0x40 MLOAD PUSH1 0x1 PUSH1 0x1 PUSH1 0xA0 SHL SUB SWAP3 DUP4 AND DUP2 MSTORE SWAP2 AND PUSH1 0x20 DUP3 ADD MSTORE PUSH1 0x40 SWAP1 DUP2 ADD SWAP1 MLOAD DUP1 SWAP2 SUB SWAP1 LOG1 PUSH1 0x0 PUSH1 0x1 PUSH2 0x2121 PUSH2 0x6C8A JUMP JUMPDEST SWAP1 PUSH2 0x100 EXP SWAP1 DIV PUSH1 0x1 PUSH1 0x1 PUSH1 0xA0 SHL SUB AND PUSH1 0x0 DUP1 PUSH2 0x100 EXP DUP2 PUSH2 0x2141 PUSH2 0x6C8A JUMP JUMPDEST DUP2 PUSH1 0x1 PUSH1 0x1 PUSH1 0xA0 SHL SUB MUL NOT AND SWAP1 DUP4 PUSH1 0x1 PUSH1 0x1 PUSH1 0xA0 SHL SUB AND MUL OR SWAP1 PUSH2 0x2163 PUSH2 0x6DEA JUMP JUMPDEST POP POP POP PUSH1 0x0 PUSH1 0x1 PUSH1 0x0 PUSH2 0x100 EXP DUP2 PUSH2 0x2179 PUSH2 0x6C8A JUMP JUMPDEST DUP2 PUSH1 0x1 PUSH1 0x1 PUSH1 0xA0 SHL SUB MUL NOT AND SWAP1 DUP4 PUSH1 0x1 PUSH1 0x1 PUSH1 0xA0 SHL SUB AND MUL OR SWAP1 PUSH2 0x1A45 PUSH2 0x6DEA JUMP JUMPDEST PUSH1 0x0 PUSH2 0x21A7 DUP4 DUP4 PUSH2 0x4C8D JUMP JUMPDEST POP SWAP4 SWAP3 POP POP POP JUMP JUMPDEST PUSH2 0x21B7 PUSH2 0x380B JUMP JUMPDEST PUSH2 0x21C0 DUP2 PUSH2 0x5041 JUMP JUMPDEST PUSH2 0x21C8 PUSH2 0x3923 JUMP JUMPDEST PUSH1 0x1 PUSH1 0x1 PUSH1 0xA0 SHL SUB AND PUSH4 0x1D5B277F PUSH6 0x24B9B9BAB2B9 PUSH1 0xD1 SHL DUP4 PUSH1 0x0 PUSH1 0x40 MLOAD PUSH1 0x1 PUSH1 0x1 PUSH1 0xE0 SHL SUB NOT PUSH1 0xE0 DUP7 SWAP1 SHL AND DUP2 MSTORE PUSH1 0x4 DUP2 ADD SWAP4 SWAP1 SWAP4 MSTORE PUSH1 0x24 DUP4 ADD SWAP2 SWAP1 SWAP2 MSTORE PUSH1 0x44 DUP3 ADD MSTORE PUSH1 0x64 ADD PUSH1 0x0 PUSH1 0x40 MLOAD DUP1 DUP4 SUB DUP2 PUSH1 0x0 DUP8 DUP1 PUSH2 0x2224 PUSH2 0x6CE5 JUMP JUMPDEST ISZERO DUP1 ISZERO PUSH2 0x2239 JUMPI PUSH1 0x0 DUP1 PUSH2 0x2236 PUSH2 0x6C1F JUMP JUMPDEST POP POP JUMPDEST POP GAS PUSH2 0x2243 PUSH2 0x6EB2 JUMP JUMPDEST POP POP POP POP POP POP ISZERO DUP1 ISZERO PUSH2 0x2263 JUMPI RETURNDATASIZE PUSH1 0x0 DUP1 RETURNDATACOPY RETURNDATASIZE PUSH1 0x0 PUSH2 0x2260 PUSH2 0x6C1F JUMP JUMPDEST POP POP JUMPDEST POP POP POP POP POP JUMP JUMPDEST PUSH1 0x5 DUP2 DUP2 PUSH2 0x2276 PUSH2 0x6C8A JUMP JUMPDEST DUP2 LT PUSH2 0x227E JUMPI INVALID JUMPDEST SWAP1 PUSH1 0x0 MSTORE PUSH1 0x20 PUSH1 0x0 KECCAK256 ADD PUSH1 0x0 SWAP2 POP PUSH2 0xCD0 PUSH2 0x6C8A JUMP JUMPDEST PUSH2 0x229C PUSH2 0x380B JUMP JUMPDEST PUSH1 0x0 DUP2 PUSH1 0x1 PUSH1 0x1 PUSH1 0xA0 SHL SUB AND PUSH4 0xDBD06C85 PUSH1 0x40 MLOAD DUP2 PUSH4 0xFFFFFFFF AND PUSH1 0xE0 SHL DUP2 MSTORE PUSH1 0x4 ADD PUSH1 0x20 PUSH1 0x40 MLOAD DUP1 DUP4 SUB DUP2 DUP7 DUP1 PUSH2 0x22D2 PUSH2 0x6CE5 JUMP JUMPDEST ISZERO DUP1 ISZERO PUSH2 0x22E7 JUMPI PUSH1 0x0 DUP1 PUSH2 0x22E4 PUSH2 0x6C1F JUMP JUMPDEST POP POP JUMPDEST POP GAS PUSH2 0x22F1 PUSH2 0x6D31 JUMP JUMPDEST POP POP POP POP POP ISZERO DUP1 ISZERO PUSH2 0x2310 JUMPI RETURNDATASIZE PUSH1 0x0 DUP1 RETURNDATACOPY RETURNDATASIZE PUSH1 0x0 PUSH2 0x230D PUSH2 0x6C1F JUMP JUMPDEST POP POP JUMPDEST POP POP POP POP PUSH1 0x40 MLOAD RETURNDATASIZE PUSH1 0x20 DUP2 LT ISZERO PUSH2 0x232F JUMPI PUSH1 0x0 DUP1 PUSH2 0x232C PUSH2 0x6C1F JUMP JUMPDEST POP POP JUMPDEST DUP2 ADD SWAP1 DUP1 DUP1 MLOAD SWAP4 POP PUSH2 0x2346 SWAP3 POP DUP4 SWAP2 POP PUSH2 0x5041 SWAP1 POP JUMP JUMPDEST PUSH1 0x1 PUSH1 0x1 PUSH1 0xA0 SHL SUB DUP3 AND PUSH1 0x0 SWAP1 DUP2 MSTORE PUSH1 0x7 PUSH1 0x20 MSTORE PUSH1 0x40 DUP2 KECCAK256 PUSH2 0x2366 PUSH2 0x6C8A JUMP JUMPDEST EQ PUSH2 0x23C0 JUMPI PUSH1 0x40 MLOAD PUSH3 0x461BCD PUSH1 0xE5 SHL DUP2 MSTORE PUSH1 0x20 PUSH1 0x4 DUP3 ADD MSTORE PUSH1 0x1C PUSH1 0x24 DUP3 ADD MSTORE PUSH32 0x53796E7468206164647265737320616C72656164792065786973747300000000 PUSH1 0x44 DUP3 ADD MSTORE PUSH1 0x64 ADD PUSH1 0x40 MLOAD DUP1 SWAP2 SUB SWAP1 PUSH2 0x23BD PUSH2 0x6C1F JUMP JUMPDEST POP POP JUMPDEST PUSH2 0x23CB PUSH2 0xEDB PUSH2 0x3923 JUMP JUMPDEST DUP2 PUSH1 0x5 DUP1 PUSH1 0x1 DUP2 PUSH2 0x23DA PUSH2 0x6C8A JUMP JUMPDEST ADD DUP1 DUP3 PUSH2 0x23E5 PUSH2 0x6DEA JUMP JUMPDEST POP POP PUSH1 0x0 SWAP3 DUP4 MSTORE SWAP2 PUSH1 0x0 NOT DUP4 ADD SWAP2 POP PUSH1 0x20 SWAP1 KECCAK256 SWAP2 SWAP3 SWAP2 ADD PUSH1 0x1 DUP2 PUSH2 0x2407 PUSH2 0x6C8A JUMP JUMPDEST DUP2 PUSH1 0x1 PUSH1 0x1 PUSH1 0xA0 SHL SUB MUL NOT AND SWAP1 DUP4 PUSH1 0x1 PUSH1 0x1 PUSH1 0xA0 SHL SUB AND MUL OR SWAP1 PUSH2 0x2429 PUSH2 0x6DEA JUMP JUMPDEST POP POP POP PUSH1 0x0 DUP3 DUP2 MSTORE PUSH1 0x6 PUSH1 0x20 MSTORE DUP4 SWAP2 POP PUSH1 0x40 SWAP1 KECCAK256 PUSH1 0x1 DUP2 PUSH2 0x2448 PUSH2 0x6C8A JUMP JUMPDEST DUP2 PUSH1 0x1 PUSH1 0x1 PUSH1 0xA0 SHL SUB MUL NOT AND SWAP1 DUP4 PUSH1 0x1 PUSH1 0x1 PUSH1 0xA0 SHL SUB AND MUL OR SWAP1 PUSH2 0x246A PUSH2 0x6DEA JUMP JUMPDEST POP POP POP PUSH1 0x1 PUSH1 0x1 PUSH1 0xA0 SHL SUB DUP3 AND PUSH1 0x0 SWAP1 DUP2 MSTORE PUSH1 0x7 PUSH1 0x20 MSTORE DUP2 SWAP1 PUSH1 0x40 SWAP1 KECCAK256 DUP2 SWAP1 PUSH2 0x2491 PUSH2 0x6DEA JUMP JUMPDEST POP POP POP PUSH32 0xA2B6EBF143B3E9FCD67E17748AD315174746100C27228468B2C98C302C62884 DUP2 DUP4 PUSH1 0x40 MLOAD SWAP2 DUP3 MSTORE PUSH1 0x1 PUSH1 0x1 PUSH1 0xA0 SHL SUB AND PUSH1 0x20 DUP3 ADD MSTORE PUSH1 0x40 SWAP1 DUP2 ADD SWAP1 MLOAD DUP1 SWAP2 SUB SWAP1 LOG1 POP POP JUMP JUMPDEST PUSH1 0x0 DUP1 PUSH2 0xCD0 PUSH2 0x6C8A JUMP JUMPDEST PUSH2 0x24EE PUSH2 0x3494 JUMP JUMPDEST PUSH2 0x24F8 DUP4 DUP4 PUSH2 0x3E05 JUMP JUMPDEST PUSH2 0x1A45 DUP4 DUP3 PUSH1 0x0 PUSH2 0x3F1C JUMP JUMPDEST PUSH2 0x250C PUSH2 0x50B9 JUMP JUMPDEST PUSH1 0x1 PUSH1 0x1 PUSH1 0xA0 SHL SUB AND GAS PUSH2 0x251E PUSH2 0x6F6B JUMP JUMPDEST PUSH1 0x1 PUSH1 0x1 PUSH1 0xA0 SHL SUB AND EQ PUSH2 0x2581 JUMPI PUSH1 0x40 MLOAD PUSH3 0x461BCD PUSH1 0xE5 SHL DUP2 MSTORE PUSH1 0x20 PUSH1 0x4 DUP3 ADD MSTORE PUSH1 0x17 PUSH1 0x24 DUP3 ADD MSTORE PUSH32 0x53656E646572206973206E6F742045786368616E676572000000000000000000 PUSH1 0x44 DUP3 ADD MSTORE PUSH1 0x64 ADD PUSH1 0x40 MLOAD DUP1 SWAP2 SUB SWAP1 PUSH2 0x257E PUSH2 0x6C1F JUMP JUMPDEST POP POP JUMPDEST PUSH1 0x0 DUP3 CALLDATALOAD PUSH4 0x1CD554D1 PUSH1 0xE2 SHL EQ DUP1 PUSH2 0x25A3 JUMPI POP PUSH1 0x20 DUP4 ADD CALLDATALOAD PUSH4 0x1CD554D1 PUSH1 0xE2 SHL EQ JUMPDEST SWAP1 POP PUSH1 0x0 DUP2 PUSH2 0x25B3 JUMPI PUSH1 0x3 PUSH2 0x25B6 JUMP JUMPDEST PUSH1 0x2 JUMPDEST PUSH1 0xFF AND SWAP1 POP PUSH1 0x60 DUP2 PUSH1 0x40 MLOAD SWAP1 DUP1 DUP3 MSTORE DUP1 PUSH1 0x20 MUL PUSH1 0x20 ADD DUP3 ADD PUSH1 0x40 MSTORE DUP1 ISZERO PUSH2 0x25E7 JUMPI DUP2 PUSH1 0x20 ADD PUSH1 0x20 DUP3 MUL DUP1 CODESIZE DUP4 CODECOPY ADD SWAP1 POP JUMPDEST POP SWAP1 POP DUP5 CALLDATALOAD DUP2 PUSH1 0x0 DUP2 MLOAD DUP2 LT PUSH2 0x25F9 JUMPI INVALID JUMPDEST PUSH1 0x20 SWAP1 DUP2 MUL SWAP2 SWAP1 SWAP2 ADD ADD MSTORE DUP5 PUSH1 0x1 PUSH1 0x20 MUL ADD CALLDATALOAD DUP2 PUSH1 0x1 DUP2 MLOAD DUP2 LT PUSH2 0x2619 JUMPI INVALID JUMPDEST PUSH1 0x20 MUL PUSH1 0x20 ADD ADD DUP2 DUP2 MSTORE POP POP PUSH1 0x60 DUP3 PUSH1 0x40 MLOAD SWAP1 DUP1 DUP3 MSTORE DUP1 PUSH1 0x20 MUL PUSH1 0x20 ADD DUP3 ADD PUSH1 0x40 MSTORE DUP1 ISZERO PUSH2 0x2651 JUMPI DUP2 PUSH1 0x20 ADD PUSH1 0x20 DUP3 MUL DUP1 CODESIZE DUP4 CODECOPY ADD SWAP1 POP JUMPDEST POP SWAP1 POP DUP5 CALLDATALOAD DUP2 PUSH1 0x0 DUP2 MLOAD DUP2 LT PUSH2 0x2663 JUMPI INVALID JUMPDEST PUSH1 0x20 SWAP1 DUP2 MUL SWAP2 SWAP1 SWAP2 ADD ADD MSTORE DUP5 PUSH1 0x1 PUSH1 0x20 MUL ADD CALLDATALOAD DUP2 PUSH1 0x1 DUP2 MLOAD DUP2 LT PUSH2 0x2683 JUMPI INVALID JUMPDEST PUSH1 0x20 MUL PUSH1 0x20 ADD ADD DUP2 DUP2 MSTORE POP POP DUP4 PUSH2 0x2777 JUMPI PUSH4 0x1CD554D1 PUSH1 0xE2 SHL DUP3 PUSH1 0x2 DUP2 MLOAD DUP2 LT PUSH2 0x26A9 JUMPI INVALID JUMPDEST PUSH1 0x20 MUL PUSH1 0x20 ADD ADD DUP2 DUP2 MSTORE POP POP PUSH20 0x0 PUSH4 0x907AF6C0 PUSH1 0x40 MLOAD DUP2 PUSH4 0xFFFFFFFF AND PUSH1 0xE0 SHL DUP2 MSTORE PUSH1 0x4 ADD PUSH1 0x20 PUSH1 0x40 MLOAD DUP1 DUP4 SUB DUP2 DUP7 DUP1 PUSH2 0x26F4 PUSH2 0x6CE5 JUMP JUMPDEST ISZERO DUP1 ISZERO PUSH2 0x2709 JUMPI PUSH1 0x0 DUP1 PUSH2 0x2706 PUSH2 0x6C1F JUMP JUMPDEST POP POP JUMPDEST POP GAS PUSH2 0x2713 PUSH2 0x6FB1 JUMP JUMPDEST POP POP POP POP POP ISZERO DUP1 ISZERO PUSH2 0x2732 JUMPI RETURNDATASIZE PUSH1 0x0 DUP1 RETURNDATACOPY RETURNDATASIZE PUSH1 0x0 PUSH2 0x272F PUSH2 0x6C1F JUMP JUMPDEST POP POP JUMPDEST POP POP POP POP PUSH1 0x40 MLOAD RETURNDATASIZE PUSH1 0x20 DUP2 LT ISZERO PUSH2 0x2751 JUMPI PUSH1 0x0 DUP1 PUSH2 0x274E PUSH2 0x6C1F JUMP JUMPDEST POP POP JUMPDEST DUP2 ADD SWAP1 DUP1 DUP1 MLOAD SWAP3 POP DUP4 SWAP2 POP PUSH1 0x2 SWAP1 POP DUP2 MLOAD DUP2 LT PUSH2 0x276A JUMPI INVALID JUMPDEST PUSH1 0x20 MUL PUSH1 0x20 ADD ADD DUP2 DUP2 MSTORE POP POP JUMPDEST PUSH2 0x2783 DUP3 DUP3 PUSH1 0x0 PUSH2 0x5104 JUMP JUMPDEST POP POP POP POP POP POP JUMP JUMPDEST PUSH1 0x0 PUSH2 0x2796 DUP3 PUSH2 0x56D0 JUMP JUMPDEST POP SWAP3 SWAP2 POP POP JUMP JUMPDEST PUSH1 0x0 PUSH2 0x1C03 DUP3 PUSH2 0x572A JUMP JUMPDEST PUSH1 0x0 DUP1 PUSH2 0x27B3 PUSH2 0x3494 JUMP JUMPDEST PUSH2 0x27BB PUSH2 0x50B9 JUMP JUMPDEST PUSH1 0x1 PUSH1 0x1 PUSH1 0xA0 SHL SUB AND PUSH4 0xD6F32E06 DUP5 PUSH4 0x1CD554D1 PUSH1 0xE2 SHL PUSH1 0x40 MLOAD PUSH1 0x1 PUSH1 0x1 PUSH1 0xE0 SHL SUB NOT PUSH1 0xE0 DUP6 SWAP1 SHL AND DUP2 MSTORE PUSH1 0x1 PUSH1 0x1 PUSH1 0xA0 SHL SUB SWAP1 SWAP3 AND PUSH1 0x4 DUP4 ADD MSTORE PUSH1 0x24 DUP3 ADD MSTORE PUSH1 0x44 ADD PUSH1 0x20 PUSH1 0x40 MLOAD DUP1 DUP4 SUB DUP2 DUP7 DUP1 PUSH2 0x2811 PUSH2 0x6CE5 JUMP JUMPDEST ISZERO DUP1 ISZERO PUSH2 0x2826 JUMPI PUSH1 0x0 DUP1 PUSH2 0x2823 PUSH2 0x6C1F JUMP JUMPDEST POP POP JUMPDEST POP GAS PUSH2 0x2830 PUSH2 0x6D31 JUMP JUMPDEST POP POP POP POP POP ISZERO DUP1 ISZERO PUSH2 0x284F JUMPI RETURNDATASIZE PUSH1 0x0 DUP1 RETURNDATACOPY RETURNDATASIZE PUSH1 0x0 PUSH2 0x284C PUSH2 0x6C1F JUMP JUMPDEST POP POP JUMPDEST POP POP POP POP PUSH1 0x40 MLOAD RETURNDATASIZE PUSH1 0x20 DUP2 LT ISZERO PUSH2 0x286E JUMPI PUSH1 0x0 DUP1 PUSH2 0x286B PUSH2 0x6C1F JUMP JUMPDEST POP POP JUMPDEST DUP2 ADD SWAP1 DUP1 DUP1 MLOAD ISZERO SWAP3 POP PUSH2 0x28D3 SWAP2 POP POP JUMPI PUSH1 0x40 MLOAD PUSH3 0x461BCD PUSH1 0xE5 SHL DUP2 MSTORE PUSH1 0x20 PUSH1 0x4 DUP3 ADD MSTORE PUSH1 0x18 PUSH1 0x24 DUP3 ADD MSTORE PUSH32 0x73555344206E6565647320746F20626520736574746C65640000000000000000 PUSH1 0x44 DUP3 ADD MSTORE PUSH1 0x64 ADD PUSH1 0x40 MLOAD DUP1 SWAP2 SUB SWAP1 PUSH2 0x28D0 PUSH2 0x6C1F JUMP JUMPDEST POP POP JUMPDEST PUSH2 0x28DB PUSH2 0x58EF JUMP JUMPDEST PUSH1 0x1 PUSH1 0x1 PUSH1 0xA0 SHL SUB AND PUSH4 0xC49E80A6 DUP7 PUSH1 0x40 MLOAD PUSH1 0x1 PUSH1 0x1 PUSH1 0xE0 SHL SUB NOT PUSH1 0xE0 DUP5 SWAP1 SHL AND DUP2 MSTORE PUSH1 0x1 PUSH1 0x1 PUSH1 0xA0 SHL SUB SWAP1 SWAP2 AND PUSH1 0x4 DUP3 ADD MSTORE PUSH1 0x24 ADD PUSH1 0x20 PUSH1 0x40 MLOAD DUP1 DUP4 SUB DUP2 DUP7 DUP1 PUSH2 0x2924 PUSH2 0x6CE5 JUMP JUMPDEST ISZERO DUP1 ISZERO PUSH2 0x2939 JUMPI PUSH1 0x0 DUP1 PUSH2 0x2936 PUSH2 0x6C1F JUMP JUMPDEST POP POP JUMPDEST POP GAS PUSH2 0x2943 PUSH2 0x6D31 JUMP JUMPDEST POP POP POP POP POP ISZERO DUP1 ISZERO PUSH2 0x2962 JUMPI RETURNDATASIZE PUSH1 0x0 DUP1 RETURNDATACOPY RETURNDATASIZE PUSH1 0x0 PUSH2 0x295F PUSH2 0x6C1F JUMP JUMPDEST POP POP JUMPDEST POP POP POP POP PUSH1 0x40 MLOAD RETURNDATASIZE PUSH1 0x20 DUP2 LT ISZERO PUSH2 0x2981 JUMPI PUSH1 0x0 DUP1 PUSH2 0x297E PUSH2 0x6C1F JUMP JUMPDEST POP POP JUMPDEST DUP2 ADD SWAP1 DUP1 DUP1 MLOAD SWAP3 POP PUSH2 0x29E5 SWAP2 POP POP JUMPI PUSH1 0x40 MLOAD PUSH3 0x461BCD PUSH1 0xE5 SHL DUP2 MSTORE PUSH1 0x20 PUSH1 0x4 DUP3 ADD DUP2 SWAP1 MSTORE PUSH1 0x24 DUP3 ADD MSTORE PUSH32 0x4163636F756E74206E6F74206F70656E20666F72206C69717569646174696F6E PUSH1 0x44 DUP3 ADD MSTORE PUSH1 0x64 ADD PUSH1 0x40 MLOAD DUP1 SWAP2 SUB SWAP1 PUSH2 0x29E2 PUSH2 0x6C1F JUMP JUMPDEST POP POP JUMPDEST PUSH4 0x1CD554D1 PUSH1 0xE2 SHL PUSH1 0x0 SWAP1 DUP2 MSTORE PUSH1 0x6 PUSH1 0x20 MSTORE DUP5 SWAP1 PUSH1 0x40 SWAP1 KECCAK256 PUSH1 0x0 SWAP1 PUSH2 0x2A08 PUSH2 0x6C8A JUMP JUMPDEST SWAP1 PUSH2 0x100 EXP SWAP1 DIV PUSH1 0x1 PUSH1 0x1 PUSH1 0xA0 SHL SUB AND PUSH1 0x1 PUSH1 0x1 PUSH1 0xA0 SHL SUB AND PUSH4 0x70A08231 DUP6 PUSH1 0x40 MLOAD PUSH1 0x1 PUSH1 0x1 PUSH1 0xE0 SHL SUB NOT PUSH1 0xE0 DUP5 SWAP1 SHL AND DUP2 MSTORE PUSH1 0x1 PUSH1 0x1 PUSH1 0xA0 SHL SUB SWAP1 SWAP2 AND PUSH1 0x4 DUP3 ADD MSTORE PUSH1 0x24 ADD PUSH1 0x20 PUSH1 0x40 MLOAD DUP1 DUP4 SUB DUP2 DUP7 DUP1 PUSH2 0x2A61 PUSH2 0x6CE5 JUMP JUMPDEST ISZERO DUP1 ISZERO PUSH2 0x2A76 JUMPI PUSH1 0x0 DUP1 PUSH2 0x2A73 PUSH2 0x6C1F JUMP JUMPDEST POP POP JUMPDEST POP GAS PUSH2 0x2A80 PUSH2 0x6D31 JUMP JUMPDEST POP POP POP POP POP ISZERO DUP1 ISZERO PUSH2 0x2A9F JUMPI RETURNDATASIZE PUSH1 0x0 DUP1 RETURNDATACOPY RETURNDATASIZE PUSH1 0x0 PUSH2 0x2A9C PUSH2 0x6C1F JUMP JUMPDEST POP POP JUMPDEST POP POP POP POP PUSH1 0x40 MLOAD RETURNDATASIZE PUSH1 0x20 DUP2 LT ISZERO PUSH2 0x2ABE JUMPI PUSH1 0x0 DUP1 PUSH2 0x2ABB PUSH2 0x6C1F JUMP JUMPDEST POP POP JUMPDEST DUP2 ADD SWAP1 DUP1 DUP1 MLOAD SWAP4 SWAP1 SWAP4 LT ISZERO SWAP3 POP PUSH2 0x2B19 SWAP2 POP POP JUMPI PUSH1 0x40 MLOAD PUSH3 0x461BCD PUSH1 0xE5 SHL DUP2 MSTORE PUSH1 0x20 PUSH1 0x4 DUP3 ADD MSTORE PUSH1 0xF PUSH1 0x24 DUP3 ADD MSTORE PUSH15 0x139BDD08195B9BDD59DA081CD554D1 PUSH1 0x8A SHL PUSH1 0x44 DUP3 ADD MSTORE PUSH1 0x64 ADD PUSH1 0x40 MLOAD DUP1 SWAP2 SUB SWAP1 PUSH2 0x2B16 PUSH2 0x6C1F JUMP JUMPDEST POP POP JUMPDEST PUSH1 0x0 PUSH2 0x2B23 PUSH2 0x58EF JUMP JUMPDEST PUSH1 0x1 PUSH1 0x1 PUSH1 0xA0 SHL SUB AND PUSH4 0x23F5589A PUSH1 0x40 MLOAD DUP2 PUSH4 0xFFFFFFFF AND PUSH1 0xE0 SHL DUP2 MSTORE PUSH1 0x4 ADD PUSH1 0x20 PUSH1 0x40 MLOAD DUP1 DUP4 SUB DUP2 DUP7 DUP1 PUSH2 0x2B56 PUSH2 0x6CE5 JUMP JUMPDEST ISZERO DUP1 ISZERO PUSH2 0x2B6B JUMPI PUSH1 0x0 DUP1 PUSH2 0x2B68 PUSH2 0x6C1F JUMP JUMPDEST POP POP JUMPDEST POP GAS PUSH2 0x2B75 PUSH2 0x6D31 JUMP JUMPDEST POP POP POP POP POP ISZERO DUP1 ISZERO PUSH2 0x2B94 JUMPI RETURNDATASIZE PUSH1 0x0 DUP1 RETURNDATACOPY RETURNDATASIZE PUSH1 0x0 PUSH2 0x2B91 PUSH2 0x6C1F JUMP JUMPDEST POP POP JUMPDEST POP POP POP POP PUSH1 0x40 MLOAD RETURNDATASIZE PUSH1 0x20 DUP2 LT ISZERO PUSH2 0x2BB3 JUMPI PUSH1 0x0 DUP1 PUSH2 0x2BB0 PUSH2 0x6C1F JUMP JUMPDEST POP POP JUMPDEST DUP2 ADD SWAP1 DUP1 DUP1 MLOAD SWAP4 POP PUSH1 0x0 SWAP3 POP DUP3 SWAP2 POP DUP2 SWAP1 POP PUSH2 0x2BD6 DUP10 PUSH4 0x1CD554D1 PUSH1 0xE2 SHL PUSH2 0x491B JUMP JUMPDEST SWAP3 POP SWAP3 POP SWAP3 POP PUSH1 0x0 DUP1 PUSH2 0x2BE7 PUSH2 0x460F JUMP JUMPDEST PUSH1 0x1 PUSH1 0x1 PUSH1 0xA0 SHL SUB AND PUSH4 0xC71CD23 PUSH3 0xA69CB PUSH1 0xEB SHL PUSH1 0x40 MLOAD PUSH1 0x1 PUSH1 0x1 PUSH1 0xE0 SHL SUB NOT PUSH1 0xE0 DUP5 SWAP1 SHL AND DUP2 MSTORE PUSH1 0x4 DUP2 ADD SWAP2 SWAP1 SWAP2 MSTORE PUSH1 0x24 ADD PUSH1 0x40 DUP1 MLOAD DUP1 DUP4 SUB DUP2 DUP7 DUP1 PUSH2 0x2C2D PUSH2 0x6CE5 JUMP JUMPDEST ISZERO DUP1 ISZERO PUSH2 0x2C42 JUMPI PUSH1 0x0 DUP1 PUSH2 0x2C3F PUSH2 0x6C1F JUMP JUMPDEST POP POP JUMPDEST POP GAS PUSH2 0x2C4C PUSH2 0x6D31 JUMP JUMPDEST POP POP POP POP POP ISZERO DUP1 ISZERO PUSH2 0x2C6B JUMPI RETURNDATASIZE PUSH1 0x0 DUP1 RETURNDATACOPY RETURNDATASIZE PUSH1 0x0 PUSH2 0x2C68 PUSH2 0x6C1F JUMP JUMPDEST POP POP JUMPDEST POP POP POP POP PUSH1 0x40 MLOAD RETURNDATASIZE PUSH1 0x40 DUP2 LT ISZERO PUSH2 0x2C8A JUMPI PUSH1 0x0 DUP1 PUSH2 0x2C87 PUSH2 0x6C1F JUMP JUMPDEST POP POP JUMPDEST DUP2 ADD SWAP1 DUP1 DUP1 MLOAD SWAP3 SWAP2 SWAP1 PUSH1 0x20 ADD DUP1 MLOAD SWAP4 SWAP6 POP SWAP3 SWAP4 POP PUSH2 0x2CB5 SWAP3 POP DUP6 SWAP2 POP DUP2 SWAP1 POP PUSH2 0x2CB0 JUMPI POP DUP2 JUMPDEST PUSH2 0x593D JUMP JUMPDEST PUSH1 0x0 PUSH2 0x2CC0 DUP13 PUSH2 0x572A JUMP JUMPDEST SWAP1 POP PUSH1 0x0 PUSH2 0x2CCC PUSH2 0x58EF JUMP JUMPDEST PUSH1 0x1 PUSH1 0x1 PUSH1 0xA0 SHL SUB AND PUSH4 0xAC045D5 DUP9 PUSH2 0x2CE5 DUP6 DUP9 PUSH2 0x5995 JUMP JUMPDEST PUSH1 0x40 MLOAD PUSH1 0x1 PUSH1 0x1 PUSH1 0xE0 SHL SUB NOT PUSH1 0xE0 DUP6 SWAP1 SHL AND DUP2 MSTORE PUSH1 0x4 DUP2 ADD SWAP3 SWAP1 SWAP3 MSTORE PUSH1 0x24 DUP3 ADD MSTORE PUSH1 0x44 ADD PUSH1 0x20 PUSH1 0x40 MLOAD DUP1 DUP4 SUB DUP2 DUP7 DUP1 PUSH2 0x2D1C PUSH2 0x6CE5 JUMP JUMPDEST ISZERO DUP1 ISZERO PUSH2 0x2D31 JUMPI PUSH1 0x0 DUP1 PUSH2 0x2D2E PUSH2 0x6C1F JUMP JUMPDEST POP POP JUMPDEST POP GAS PUSH2 0x2D3B PUSH2 0x6D31 JUMP JUMPDEST POP POP POP POP POP ISZERO DUP1 ISZERO PUSH2 0x2D5A JUMPI RETURNDATASIZE PUSH1 0x0 DUP1 RETURNDATACOPY RETURNDATASIZE PUSH1 0x0 PUSH2 0x2D57 PUSH2 0x6C1F JUMP JUMPDEST POP POP JUMPDEST POP POP POP POP PUSH1 0x40 MLOAD RETURNDATASIZE PUSH1 0x20 DUP2 LT ISZERO PUSH2 0x2D79 JUMPI PUSH1 0x0 DUP1 PUSH2 0x2D76 PUSH2 0x6C1F JUMP JUMPDEST POP POP JUMPDEST DUP2 ADD SWAP1 DUP1 DUP1 MLOAD SWAP4 POP POP POP DUP13 DUP3 LT SWAP1 POP PUSH2 0x2D92 JUMPI DUP12 PUSH2 0x2D94 JUMP JUMPDEST DUP1 JUMPDEST SWAP9 POP PUSH1 0x0 PUSH2 0x2DA2 DUP11 DUP7 PUSH2 0x59A7 JUMP JUMPDEST SWAP1 POP PUSH2 0x2E6B PUSH2 0x2E5E DUP11 PUSH20 0x0 PUSH4 0x907AF6C0 PUSH1 0x40 MLOAD DUP2 PUSH4 0xFFFFFFFF AND PUSH1 0xE0 SHL DUP2 MSTORE PUSH1 0x4 ADD PUSH1 0x20 PUSH1 0x40 MLOAD DUP1 DUP4 SUB DUP2 DUP7 DUP1 PUSH2 0x2DEA PUSH2 0x6CE5 JUMP JUMPDEST ISZERO DUP1 ISZERO PUSH2 0x2DFF JUMPI PUSH1 0x0 DUP1 PUSH2 0x2DFC PUSH2 0x6C1F JUMP JUMPDEST POP POP JUMPDEST POP GAS PUSH2 0x2E09 PUSH2 0x6FB1 JUMP JUMPDEST POP POP POP POP POP ISZERO DUP1 ISZERO PUSH2 0x2E28 JUMPI RETURNDATASIZE PUSH1 0x0 DUP1 RETURNDATACOPY RETURNDATASIZE PUSH1 0x0 PUSH2 0x2E25 PUSH2 0x6C1F JUMP JUMPDEST POP POP JUMPDEST POP POP POP POP PUSH1 0x40 MLOAD RETURNDATASIZE PUSH1 0x20 DUP2 LT ISZERO PUSH2 0x2E47 JUMPI PUSH1 0x0 DUP1 PUSH2 0x2E44 PUSH2 0x6C1F JUMP JUMPDEST POP POP JUMPDEST DUP2 ADD SWAP1 DUP1 DUP1 MLOAD SWAP4 SWAP3 POP POP PUSH4 0xFFFFFFFF PUSH2 0x3CBC AND SWAP1 POP JUMP JUMPDEST DUP3 SWAP1 PUSH4 0xFFFFFFFF PUSH2 0x59B9 AND JUMP JUMPDEST SWAP11 POP DUP3 DUP12 GT ISZERO PUSH2 0x2ED7 JUMPI DUP3 SWAP11 POP PUSH2 0x2ED4 PUSH2 0x2ECE PUSH2 0x2EC1 DUP12 PUSH20 0x0 PUSH4 0x907AF6C0 PUSH1 0x40 MLOAD DUP2 PUSH4 0xFFFFFFFF AND PUSH1 0xE0 SHL DUP2 MSTORE PUSH1 0x4 ADD PUSH1 0x20 PUSH1 0x40 MLOAD DUP1 DUP4 SUB DUP2 DUP7 DUP1 PUSH2 0x2DEA PUSH2 0x6CE5 JUMP JUMPDEST DUP6 SWAP1 PUSH4 0xFFFFFFFF PUSH2 0x59E3 AND JUMP JUMPDEST DUP7 PUSH2 0x5995 JUMP JUMPDEST SWAP10 POP JUMPDEST PUSH2 0x2EE4 DUP15 DUP14 DUP13 DUP12 DUP12 PUSH2 0x5A0D JUMP JUMPDEST POP DUP2 DUP11 EQ ISZERO PUSH2 0x2F84 JUMPI PUSH2 0x2EF5 PUSH2 0x58EF JUMP JUMPDEST PUSH1 0x1 PUSH1 0x1 PUSH1 0xA0 SHL SUB AND PUSH4 0x974E9E7F DUP16 PUSH1 0x40 MLOAD PUSH1 0x1 PUSH1 0x1 PUSH1 0xE0 SHL SUB NOT PUSH1 0xE0 DUP5 SWAP1 SHL AND DUP2 MSTORE PUSH1 0x1 PUSH1 0x1 PUSH1 0xA0 SHL SUB SWAP1 SWAP2 AND PUSH1 0x4 DUP3 ADD MSTORE PUSH1 0x24 ADD PUSH1 0x0 PUSH1 0x40 MLOAD DUP1 DUP4 SUB DUP2 PUSH1 0x0 DUP8 DUP1 PUSH2 0x2F40 PUSH2 0x6CE5 JUMP JUMPDEST ISZERO DUP1 ISZERO PUSH2 0x2F55 JUMPI PUSH1 0x0 DUP1 PUSH2 0x2F52 PUSH2 0x6C1F JUMP JUMPDEST POP POP JUMPDEST POP GAS PUSH2 0x2F5F PUSH2 0x6EB2 JUMP JUMPDEST POP POP POP POP POP POP ISZERO DUP1 ISZERO PUSH2 0x2F7F JUMPI RETURNDATASIZE PUSH1 0x0 DUP1 RETURNDATACOPY RETURNDATASIZE PUSH1 0x0 PUSH2 0x2F7C PUSH2 0x6C1F JUMP JUMPDEST POP POP JUMPDEST POP POP POP POP JUMPDEST POP POP POP POP POP POP POP POP POP SWAP4 POP SWAP4 SWAP2 POP POP JUMP JUMPDEST PUSH2 0x2F9D PUSH2 0x6FF4 JUMP JUMPDEST PUSH1 0x0 JUMPDEST PUSH1 0x4 DUP1 PUSH2 0x2FAB PUSH2 0x6C8A JUMP JUMPDEST SWAP1 POP DUP2 LT ISZERO PUSH2 0x2FF3 JUMPI PUSH1 0x4 DUP2 DUP2 PUSH2 0x2FC0 PUSH2 0x6C8A JUMP JUMPDEST DUP2 LT PUSH2 0x2FC8 JUMPI INVALID JUMPDEST SWAP1 PUSH1 0x0 MSTORE PUSH1 0x20 PUSH1 0x0 KECCAK256 ADD PUSH2 0x2FDA PUSH2 0x6C8A JUMP JUMPDEST DUP3 DUP3 PUSH1 0x18 DUP2 LT PUSH2 0x2FE6 JUMPI INVALID JUMPDEST PUSH1 0x20 MUL ADD MSTORE PUSH1 0x1 ADD PUSH2 0x2FA0 JUMP JUMPDEST POP SWAP1 JUMP JUMPDEST PUSH1 0x0 DUP1 PUSH2 0x3003 DUP4 PUSH2 0x56D0 JUMP JUMPDEST SWAP2 POP SWAP2 POP SWAP2 POP SWAP2 JUMP JUMPDEST PUSH1 0x0 PUSH2 0x1623 PUSH2 0x5B4D JUMP JUMPDEST PUSH2 0x301E PUSH2 0x3494 JUMP JUMPDEST PUSH2 0xCC0 DUP3 DUP3 PUSH1 0x0 PUSH2 0x3F1C JUMP JUMPDEST PUSH1 0x0 PUSH2 0x1623 PUSH2 0x4BA1 JUMP JUMPDEST PUSH1 0x0 PUSH2 0x303E PUSH2 0x3923 JUMP JUMPDEST PUSH1 0x1 PUSH1 0x1 PUSH1 0xA0 SHL SUB AND PUSH4 0x23257C2B PUSH6 0x24B9B9BAB2B9 PUSH1 0xD1 SHL PUSH32 0x636163686564534E584973737565644465627454696D657374616D7000000000 PUSH1 0x40 MLOAD PUSH1 0x1 PUSH1 0x1 PUSH1 0xE0 SHL SUB NOT PUSH1 0xE0 DUP6 SWAP1 SHL AND DUP2 MSTORE PUSH1 0x4 DUP2 ADD SWAP3 SWAP1 SWAP3 MSTORE PUSH1 0x24 DUP3 ADD MSTORE PUSH1 0x44 ADD PUSH1 0x20 PUSH1 0x40 MLOAD DUP1 DUP4 SUB DUP2 DUP7 DUP1 PUSH2 0x30AE PUSH2 0x6CE5 JUMP JUMPDEST ISZERO DUP1 ISZERO PUSH2 0x30C3 JUMPI PUSH1 0x0 DUP1 PUSH2 0x30C0 PUSH2 0x6C1F JUMP JUMPDEST POP POP JUMPDEST POP GAS PUSH2 0x30CD PUSH2 0x6D31 JUMP JUMPDEST POP POP POP POP POP ISZERO DUP1 ISZERO PUSH2 0x30EC JUMPI RETURNDATASIZE PUSH1 0x0 DUP1 RETURNDATACOPY RETURNDATASIZE PUSH1 0x0 PUSH2 0x30E9 PUSH2 0x6C1F JUMP JUMPDEST POP POP JUMPDEST POP POP POP POP PUSH1 0x40 MLOAD RETURNDATASIZE PUSH1 0x20 DUP2 LT ISZERO PUSH2 0x310B JUMPI PUSH1 0x0 DUP1 PUSH2 0x3108 PUSH2 0x6C1F JUMP JUMPDEST POP POP JUMPDEST DUP2 ADD SWAP1 DUP1 DUP1 MLOAD SWAP3 POP POP POP GAS PUSH2 0x311E PUSH2 0x6E6C JUMP JUMPDEST SUB PUSH2 0x3127 PUSH2 0x5B4D JUMP JUMPDEST LT SWAP1 POP SWAP1 JUMP JUMPDEST PUSH1 0x0 PUSH2 0x1C03 DUP3 PUSH2 0x5BC7 JUMP JUMPDEST PUSH1 0x4 DUP2 DUP2 PUSH2 0x3144 PUSH2 0x6C8A JUMP JUMPDEST DUP2 LT PUSH2 0x314C JUMPI INVALID JUMPDEST SWAP1 PUSH1 0x0 MSTORE PUSH1 0x20 PUSH1 0x0 KECCAK256 ADD SWAP1 POP PUSH2 0x1194 PUSH2 0x6C8A JUMP JUMPDEST PUSH2 0x3168 PUSH2 0x3494 JUMP JUMPDEST PUSH2 0x1A5F DUP2 PUSH1 0x0 PUSH1 0x1 PUSH2 0x34FB JUMP JUMPDEST PUSH1 0x0 DUP1 PUSH2 0x3180 PUSH2 0x5BEE JUMP JUMPDEST SWAP1 POP PUSH1 0x0 DUP2 PUSH1 0x1 PUSH1 0x1 PUSH1 0xA0 SHL SUB AND PUSH4 0x8B3F8088 DUP7 PUSH1 0x40 MLOAD PUSH1 0x1 PUSH1 0x1 PUSH1 0xE0 SHL SUB NOT PUSH1 0xE0 DUP5 SWAP1 SHL AND DUP2 MSTORE PUSH1 0x1 PUSH1 0x1 PUSH1 0xA0 SHL SUB SWAP1 SWAP2 AND PUSH1 0x4 DUP3 ADD MSTORE PUSH1 0x24 ADD PUSH1 0x40 DUP1 MLOAD DUP1 DUP4 SUB DUP2 DUP7 DUP1 PUSH2 0x31CD PUSH2 0x6CE5 JUMP JUMPDEST ISZERO DUP1 ISZERO PUSH2 0x31E2 JUMPI PUSH1 0x0 DUP1 PUSH2 0x31DF PUSH2 0x6C1F JUMP JUMPDEST POP POP JUMPDEST POP GAS PUSH2 0x31EC PUSH2 0x6D31 JUMP JUMPDEST POP POP POP POP POP ISZERO DUP1 ISZERO PUSH2 0x320B JUMPI RETURNDATASIZE PUSH1 0x0 DUP1 RETURNDATACOPY RETURNDATASIZE PUSH1 0x0 PUSH2 0x3208 PUSH2 0x6C1F JUMP JUMPDEST POP POP JUMPDEST POP POP POP POP PUSH1 0x40 MLOAD RETURNDATASIZE PUSH1 0x40 DUP2 LT ISZERO PUSH2 0x322A JUMPI PUSH1 0x0 DUP1 PUSH2 0x3227 PUSH2 0x6C1F JUMP JUMPDEST POP POP JUMPDEST DUP2 ADD SWAP1 DUP1 DUP1 MLOAD SWAP3 SWAP2 SWAP1 PUSH1 0x20 ADD DUP1 MLOAD POP SWAP3 SWAP4 POP POP POP DUP2 ISZERO ISZERO SWAP1 POP PUSH2 0x3252 JUMPI PUSH1 0x0 SWAP3 POP POP POP PUSH2 0x1C03 JUMP JUMPDEST PUSH2 0x325C DUP6 DUP6 PUSH2 0x491B JUMP JUMPDEST POP SWAP1 SWAP7 SWAP6 POP POP POP POP POP POP JUMP JUMPDEST PUSH1 0x0 PUSH1 0x5 DUP1 PUSH2 0x3275 PUSH2 0x6C8A JUMP JUMPDEST SWAP2 POP POP SWAP1 JUMP JUMPDEST PUSH1 0x0 PUSH2 0x1C03 DUP3 PUSH2 0x5C3E JUMP JUMPDEST PUSH1 0x18 DUP2 JUMP JUMPDEST PUSH2 0x3293 PUSH2 0x3494 JUMP JUMPDEST PUSH2 0x329D DUP3 DUP3 PUSH2 0x48C2 JUMP JUMPDEST PUSH2 0xCC0 DUP3 PUSH1 0x0 PUSH1 0x1 PUSH2 0x34FB JUMP JUMPDEST PUSH2 0x32B2 PUSH2 0x3AE9 JUMP JUMPDEST PUSH1 0x60 PUSH1 0x0 PUSH2 0x32BE PUSH2 0x460F JUMP JUMPDEST PUSH1 0x1 PUSH1 0x1 PUSH1 0xA0 SHL SUB AND PUSH4 0xC8E5BBD5 DUP6 DUP6 PUSH1 0x40 MLOAD DUP4 PUSH4 0xFFFFFFFF AND PUSH1 0xE0 SHL DUP2 MSTORE PUSH1 0x4 ADD DUP1 DUP1 PUSH1 0x20 ADD DUP3 DUP2 SUB DUP3 MSTORE DUP5 DUP5 DUP3 DUP2 DUP2 MSTORE PUSH1 0x20 ADD SWAP3 POP PUSH1 0x20 MUL DUP1 DUP3 DUP5 CALLDATACOPY PUSH1 0x0 DUP4 DUP3 ADD DUP2 SWAP1 MSTORE PUSH1 0x1F SWAP1 SWAP2 ADD PUSH1 0x1F NOT AND SWAP1 SWAP3 ADD SWAP6 POP SWAP1 SWAP4 POP PUSH1 0x40 SWAP3 POP POP POP MLOAD DUP1 DUP4 SUB DUP2 DUP7 DUP1 PUSH2 0x332A PUSH2 0x6CE5 JUMP JUMPDEST ISZERO DUP1 ISZERO PUSH2 0x333F JUMPI PUSH1 0x0 DUP1 PUSH2 0x333C PUSH2 0x6C1F JUMP JUMPDEST POP POP JUMPDEST POP GAS PUSH2 0x3349 PUSH2 0x6D31 JUMP JUMPDEST POP POP POP POP POP ISZERO DUP1 ISZERO PUSH2 0x3368 JUMPI RETURNDATASIZE PUSH1 0x0 DUP1 RETURNDATACOPY RETURNDATASIZE PUSH1 0x0 PUSH2 0x3365 PUSH2 0x6C1F JUMP JUMPDEST POP POP JUMPDEST POP POP POP POP PUSH1 0x40 MLOAD RETURNDATASIZE PUSH1 0x0 DUP3 RETURNDATACOPY PUSH1 0x1F RETURNDATASIZE SWAP1 DUP2 ADD PUSH1 0x1F NOT AND DUP3 ADD PUSH1 0x40 SWAP1 DUP2 MSTORE DUP2 LT ISZERO PUSH2 0x339A JUMPI PUSH1 0x0 DUP1 PUSH2 0x3397 PUSH2 0x6C1F JUMP JUMPDEST POP POP JUMPDEST DUP2 ADD SWAP1 DUP1 DUP1 MLOAD PUSH1 0x40 MLOAD SWAP4 SWAP3 SWAP2 SWAP1 DUP5 PUSH1 0x1 PUSH1 0x20 SHL DUP3 GT ISZERO PUSH2 0x33C2 JUMPI PUSH1 0x0 DUP1 PUSH2 0x33BF PUSH2 0x6C1F JUMP JUMPDEST POP POP JUMPDEST SWAP1 DUP4 ADD SWAP1 PUSH1 0x20 DUP3 ADD DUP6 DUP2 GT ISZERO PUSH2 0x33E0 JUMPI PUSH1 0x0 DUP1 PUSH2 0x33DD PUSH2 0x6C1F JUMP JUMPDEST POP POP JUMPDEST DUP3 MLOAD DUP7 PUSH1 0x20 DUP3 MUL DUP4 ADD GT PUSH1 0x1 PUSH1 0x20 SHL DUP3 GT OR ISZERO PUSH2 0x3405 JUMPI PUSH1 0x0 DUP1 PUSH2 0x3402 PUSH2 0x6C1F JUMP JUMPDEST POP POP JUMPDEST DUP3 MSTORE POP PUSH1 0x20 ADD SWAP1 DUP1 MLOAD SWAP1 PUSH1 0x20 ADD SWAP1 PUSH1 0x20 MUL DUP1 DUP4 DUP4 PUSH1 0x0 JUMPDEST DUP4 DUP2 LT ISZERO PUSH2 0x3434 JUMPI DUP1 DUP3 ADD MLOAD DUP4 DUP3 ADD MSTORE PUSH1 0x20 ADD PUSH2 0x341C JUMP JUMPDEST POP POP POP POP SWAP1 POP ADD PUSH1 0x40 MSTORE PUSH1 0x20 ADD DUP1 MLOAD SWAP4 SWAP6 POP SWAP3 SWAP4 POP PUSH2 0x348E SWAP3 POP DUP7 SWAP2 POP DUP6 SWAP1 POP DUP1 PUSH1 0x20 DUP2 DUP2 MUL ADD PUSH1 0x40 MLOAD SWAP1 DUP2 ADD PUSH1 0x40 MSTORE DUP1 SWAP4 SWAP3 SWAP2 SWAP1 DUP2 DUP2 MSTORE PUSH1 0x20 ADD DUP4 DUP4 PUSH1 0x20 MUL DUP1 DUP3 DUP5 CALLDATACOPY PUSH1 0x0 SWAP3 ADD SWAP2 SWAP1 SWAP2 MSTORE POP DUP7 SWAP3 POP DUP6 SWAP2 POP PUSH2 0x5104 SWAP1 POP JUMP JUMPDEST POP POP POP POP JUMP JUMPDEST PUSH2 0x349C PUSH2 0x5CEC JUMP JUMPDEST PUSH1 0x1 PUSH1 0x1 PUSH1 0xA0 SHL SUB AND GAS PUSH2 0x34AE PUSH2 0x6F6B JUMP JUMPDEST PUSH1 0x1 PUSH1 0x1 PUSH1 0xA0 SHL SUB AND EQ PUSH2 0x34F9 JUMPI PUSH1 0x40 MLOAD PUSH3 0x461BCD PUSH1 0xE5 SHL DUP2 MSTORE PUSH1 0x4 ADD DUP1 DUP1 PUSH1 0x20 ADD DUP3 DUP2 SUB DUP3 MSTORE PUSH1 0x3B DUP2 MSTORE PUSH1 0x20 ADD DUP1 PUSH2 0x708D PUSH1 0x3B SWAP2 CODECOPY PUSH1 0x40 ADD SWAP2 POP POP PUSH1 0x40 MLOAD DUP1 SWAP2 SUB SWAP1 PUSH2 0xCC0 PUSH2 0x6C1F JUMP JUMPDEST JUMP JUMPDEST PUSH1 0x0 DUP1 PUSH1 0x0 DUP1 PUSH2 0x350A DUP8 PUSH2 0x3A81 JUMP JUMPDEST SWAP4 POP SWAP4 POP SWAP4 POP SWAP4 POP PUSH2 0x351B DUP2 PUSH2 0x593D JUMP JUMPDEST DUP5 PUSH2 0x3575 JUMPI DUP4 DUP7 GT ISZERO PUSH2 0x3570 JUMPI PUSH1 0x40 MLOAD PUSH3 0x461BCD PUSH1 0xE5 SHL DUP2 MSTORE PUSH1 0x20 PUSH1 0x4 DUP3 ADD MSTORE PUSH1 0x10 PUSH1 0x24 DUP3 ADD MSTORE PUSH16 0x416D6F756E7420746F6F206C61726765 PUSH1 0x80 SHL PUSH1 0x44 DUP3 ADD MSTORE PUSH1 0x64 ADD PUSH1 0x40 MLOAD DUP1 SWAP2 SUB SWAP1 PUSH2 0x356D PUSH2 0x6C1F JUMP JUMPDEST POP POP JUMPDEST PUSH2 0x3579 JUMP JUMPDEST DUP4 SWAP6 POP JUMPDEST PUSH2 0x3585 DUP8 DUP8 DUP6 DUP6 PUSH2 0x5D37 JUMP JUMPDEST PUSH2 0x358E DUP8 PUSH2 0x626E JUMP JUMPDEST PUSH4 0x1CD554D1 PUSH1 0xE2 SHL PUSH1 0x0 SWAP1 DUP2 MSTORE PUSH1 0x6 PUSH1 0x20 MSTORE PUSH1 0x40 SWAP1 KECCAK256 PUSH1 0x0 SWAP1 PUSH2 0x35AF PUSH2 0x6C8A JUMP JUMPDEST SWAP1 PUSH2 0x100 EXP SWAP1 DIV PUSH1 0x1 PUSH1 0x1 PUSH1 0xA0 SHL SUB AND PUSH1 0x1 PUSH1 0x1 PUSH1 0xA0 SHL SUB AND PUSH4 0x867904B4 DUP9 DUP9 PUSH1 0x40 MLOAD PUSH1 0x1 PUSH1 0x1 PUSH1 0xE0 SHL SUB NOT PUSH1 0xE0 DUP6 SWAP1 SHL AND DUP2 MSTORE PUSH1 0x1 PUSH1 0x1 PUSH1 0xA0 SHL SUB SWAP1 SWAP3 AND PUSH1 0x4 DUP4 ADD MSTORE PUSH1 0x24 DUP3 ADD MSTORE PUSH1 0x44 ADD PUSH1 0x0 PUSH1 0x40 MLOAD DUP1 DUP4 SUB DUP2 PUSH1 0x0 DUP8 DUP1 PUSH2 0x3610 PUSH2 0x6CE5 JUMP JUMPDEST ISZERO DUP1 ISZERO PUSH2 0x3625 JUMPI PUSH1 0x0 DUP1 PUSH2 0x3622 PUSH2 0x6C1F JUMP JUMPDEST POP POP JUMPDEST POP GAS PUSH2 0x362F PUSH2 0x6EB2 JUMP JUMPDEST POP POP POP POP POP POP ISZERO DUP1 ISZERO PUSH2 0x364F JUMPI RETURNDATASIZE PUSH1 0x0 DUP1 RETURNDATACOPY RETURNDATASIZE PUSH1 0x0 PUSH2 0x364C PUSH2 0x6C1F JUMP JUMPDEST POP POP JUMPDEST POP POP POP POP PUSH2 0x370A PUSH4 0x1CD554D1 PUSH1 0xE2 SHL PUSH20 0x0 PUSH4 0x907AF6C0 PUSH1 0x40 MLOAD DUP2 PUSH4 0xFFFFFFFF AND PUSH1 0xE0 SHL DUP2 MSTORE PUSH1 0x4 ADD PUSH1 0x20 PUSH1 0x40 MLOAD DUP1 DUP4 SUB DUP2 DUP7 DUP1 PUSH2 0x369D PUSH2 0x6CE5 JUMP JUMPDEST ISZERO DUP1 ISZERO PUSH2 0x36B2 JUMPI PUSH1 0x0 DUP1 PUSH2 0x36AF PUSH2 0x6C1F JUMP JUMPDEST POP POP JUMPDEST POP GAS PUSH2 0x36BC PUSH2 0x6FB1 JUMP JUMPDEST POP POP POP POP POP ISZERO DUP1 ISZERO PUSH2 0x36DB JUMPI RETURNDATASIZE PUSH1 0x0 DUP1 RETURNDATACOPY RETURNDATASIZE PUSH1 0x0 PUSH2 0x36D8 PUSH2 0x6C1F JUMP JUMPDEST POP POP JUMPDEST POP POP POP POP PUSH1 0x40 MLOAD RETURNDATASIZE PUSH1 0x20 DUP2 LT ISZERO PUSH2 0x36FA JUMPI PUSH1 0x0 DUP1 PUSH2 0x36F7 PUSH2 0x6C1F JUMP JUMPDEST POP POP JUMPDEST DUP2 ADD SWAP1 DUP1 DUP1 MLOAD SWAP3 POP PUSH2 0x3883 SWAP2 POP POP JUMP JUMPDEST PUSH2 0x2260 DUP8 PUSH2 0x632D JUMP JUMPDEST PUSH1 0x0 DUP1 PUSH1 0x0 DUP1 PUSH2 0x3721 PUSH2 0x460F JUMP JUMPDEST PUSH1 0x1 PUSH1 0x1 PUSH1 0xA0 SHL SUB AND PUSH4 0xC71CD23 PUSH3 0xA69CB PUSH1 0xEB SHL PUSH1 0x40 MLOAD PUSH1 0x1 PUSH1 0x1 PUSH1 0xE0 SHL SUB NOT PUSH1 0xE0 DUP5 SWAP1 SHL AND DUP2 MSTORE PUSH1 0x4 DUP2 ADD SWAP2 SWAP1 SWAP2 MSTORE PUSH1 0x24 ADD PUSH1 0x40 DUP1 MLOAD DUP1 DUP4 SUB DUP2 DUP7 DUP1 PUSH2 0x3767 PUSH2 0x6CE5 JUMP JUMPDEST ISZERO DUP1 ISZERO PUSH2 0x377C JUMPI PUSH1 0x0 DUP1 PUSH2 0x3779 PUSH2 0x6C1F JUMP JUMPDEST POP POP JUMPDEST POP GAS PUSH2 0x3786 PUSH2 0x6D31 JUMP JUMPDEST POP POP POP POP POP ISZERO DUP1 ISZERO PUSH2 0x37A5 JUMPI RETURNDATASIZE PUSH1 0x0 DUP1 RETURNDATACOPY RETURNDATASIZE PUSH1 0x0 PUSH2 0x37A2 PUSH2 0x6C1F JUMP JUMPDEST POP POP JUMPDEST POP POP POP POP PUSH1 0x40 MLOAD RETURNDATASIZE PUSH1 0x40 DUP2 LT ISZERO PUSH2 0x37C4 JUMPI PUSH1 0x0 DUP1 PUSH2 0x37C1 PUSH2 0x6C1F JUMP JUMPDEST POP POP JUMPDEST DUP2 ADD SWAP1 DUP1 DUP1 MLOAD SWAP3 SWAP2 SWAP1 PUSH1 0x20 ADD DUP1 MLOAD SWAP4 SWAP6 POP SWAP3 SWAP4 POP PUSH1 0x0 SWAP3 POP PUSH2 0x37F2 SWAP2 POP PUSH2 0x37EC SWAP1 POP DUP8 PUSH2 0x572A JUMP JUMPDEST DUP5 PUSH2 0x5995 JUMP JUMPDEST SWAP1 POP PUSH2 0x37FF PUSH2 0x2E5E PUSH2 0x4BA1 JUMP JUMPDEST SWAP5 POP SWAP1 SWAP3 POP POP POP SWAP2 POP SWAP2 JUMP JUMPDEST PUSH1 0x0 DUP1 PUSH2 0x3816 PUSH2 0x6C8A JUMP JUMPDEST SWAP1 PUSH2 0x100 EXP SWAP1 DIV PUSH1 0x1 PUSH1 0x1 PUSH1 0xA0 SHL SUB AND PUSH1 0x1 PUSH1 0x1 PUSH1 0xA0 SHL SUB AND GAS PUSH2 0x3838 PUSH2 0x6F6B JUMP JUMPDEST PUSH1 0x1 PUSH1 0x1 PUSH1 0xA0 SHL SUB AND EQ PUSH2 0x34F9 JUMPI PUSH1 0x40 MLOAD PUSH3 0x461BCD PUSH1 0xE5 SHL DUP2 MSTORE PUSH1 0x4 ADD DUP1 DUP1 PUSH1 0x20 ADD DUP3 DUP2 SUB DUP3 MSTORE PUSH1 0x2F DUP2 MSTORE PUSH1 0x20 ADD DUP1 PUSH2 0x70C8 PUSH1 0x2F SWAP2 CODECOPY PUSH1 0x40 ADD SWAP2 POP POP PUSH1 0x40 MLOAD DUP1 SWAP2 SUB SWAP1 PUSH2 0xCC0 PUSH2 0x6C1F JUMP JUMPDEST PUSH1 0x60 PUSH1 0x1 PUSH1 0x40 MLOAD SWAP1 DUP1 DUP3 MSTORE DUP1 PUSH1 0x20 MUL PUSH1 0x20 ADD DUP3 ADD PUSH1 0x40 MSTORE DUP1 ISZERO PUSH2 0x38B0 JUMPI DUP2 PUSH1 0x20 ADD PUSH1 0x20 DUP3 MUL DUP1 CODESIZE DUP4 CODECOPY ADD SWAP1 POP JUMPDEST POP SWAP1 POP DUP3 DUP2 PUSH1 0x0 DUP2 MLOAD DUP2 LT PUSH2 0x38C1 JUMPI INVALID JUMPDEST PUSH1 0x20 MUL PUSH1 0x20 ADD ADD DUP2 DUP2 MSTORE POP POP PUSH1 0x60 PUSH1 0x1 PUSH1 0x40 MLOAD SWAP1 DUP1 DUP3 MSTORE DUP1 PUSH1 0x20 MUL PUSH1 0x20 ADD DUP3 ADD PUSH1 0x40 MSTORE DUP1 ISZERO PUSH2 0x38FA JUMPI DUP2 PUSH1 0x20 ADD PUSH1 0x20 DUP3 MUL DUP1 CODESIZE DUP4 CODECOPY ADD SWAP1 POP JUMPDEST POP SWAP1 POP DUP3 DUP2 PUSH1 0x0 DUP2 MLOAD DUP2 LT PUSH2 0x390B JUMPI INVALID JUMPDEST PUSH1 0x20 MUL PUSH1 0x20 ADD ADD DUP2 DUP2 MSTORE POP POP PUSH2 0x348E DUP3 DUP3 PUSH1 0x0 PUSH2 0x5104 JUMP JUMPDEST PUSH1 0x0 PUSH2 0x1623 PUSH15 0x466C657869626C6553746F72616765 PUSH1 0x88 SHL PUSH1 0x40 MLOAD PUSH1 0x40 DUP1 DUP3 ADD SWAP1 MSTORE PUSH1 0x1F DUP2 MSTORE PUSH32 0x4D697373696E6720466C657869626C6553746F72616765206164647265737300 PUSH1 0x20 DUP3 ADD MSTORE PUSH2 0x6494 JUMP JUMPDEST PUSH1 0x0 PUSH2 0x397F DUP4 PUSH2 0x4530 JUMP JUMPDEST SWAP1 POP DUP2 ISZERO ISZERO DUP2 ISZERO ISZERO EQ PUSH2 0x1A45 JUMPI DUP3 PUSH1 0x1 PUSH1 0x1 PUSH1 0xA0 SHL SUB AND PUSH4 0x3F28A6FC PUSH6 0x24B9B9BAB2B9 PUSH1 0xD1 SHL PUSH32 0x636163686564534E5849737375656444656274496E76616C6964000000000000 DUP6 PUSH1 0x40 MLOAD PUSH1 0x1 PUSH1 0x1 PUSH1 0xE0 SHL SUB NOT PUSH1 0xE0 DUP7 SWAP1 SHL AND DUP2 MSTORE PUSH1 0x4 DUP2 ADD SWAP4 SWAP1 SWAP4 MSTORE PUSH1 0x24 DUP4 ADD SWAP2 SWAP1 SWAP2 MSTORE ISZERO ISZERO PUSH1 0x44 DUP3 ADD MSTORE PUSH1 0x64 ADD PUSH1 0x0 PUSH1 0x40 MLOAD DUP1 DUP4 SUB DUP2 PUSH1 0x0 DUP8 DUP1 PUSH2 0x3A0A PUSH2 0x6CE5 JUMP JUMPDEST ISZERO DUP1 ISZERO PUSH2 0x3A1F JUMPI PUSH1 0x0 DUP1 PUSH2 0x3A1C PUSH2 0x6C1F JUMP JUMPDEST POP POP JUMPDEST POP GAS PUSH2 0x3A29 PUSH2 0x6EB2 JUMP JUMPDEST POP POP POP POP POP POP ISZERO DUP1 ISZERO PUSH2 0x3A49 JUMPI RETURNDATASIZE PUSH1 0x0 DUP1 RETURNDATACOPY RETURNDATASIZE PUSH1 0x0 PUSH2 0x3A46 PUSH2 0x6C1F JUMP JUMPDEST POP POP JUMPDEST POP POP POP POP DUP2 ISZERO ISZERO PUSH32 0x8EEBEC690C34BBF0FE0D5B93E442BEAF16BDAF99052569581DE2DCB3E31A53A7 PUSH1 0x40 MLOAD PUSH1 0x40 MLOAD DUP1 SWAP2 SUB SWAP1 LOG2 POP POP POP JUMP JUMPDEST PUSH1 0x0 DUP1 PUSH1 0x0 DUP1 PUSH2 0x3A98 DUP6 PUSH4 0x1CD554D1 PUSH1 0xE2 SHL PUSH2 0x491B JUMP JUMPDEST SWAP2 SWAP5 POP SWAP3 POP SWAP1 POP PUSH1 0x0 DUP1 PUSH2 0x3AAB DUP8 PUSH2 0x3713 JUMP JUMPDEST SWAP2 POP SWAP2 POP DUP2 SWAP6 POP DUP3 DUP1 PUSH2 0x3ABB JUMPI POP DUP1 JUMPDEST SWAP3 POP DUP6 DUP6 LT PUSH2 0x3ACD JUMPI PUSH1 0x0 SWAP6 POP PUSH2 0x3AE0 JUMP JUMPDEST PUSH2 0x3ADD DUP7 DUP7 PUSH4 0xFFFFFFFF PUSH2 0x4C28 AND JUMP JUMPDEST SWAP6 POP JUMPDEST POP POP SWAP2 SWAP4 POP SWAP2 SWAP4 JUMP JUMPDEST PUSH1 0x0 DUP1 PUSH2 0x3AF4 PUSH2 0x6C8A JUMP JUMPDEST SWAP1 PUSH2 0x100 EXP SWAP1 DIV PUSH1 0x1 PUSH1 0x1 PUSH1 0xA0 SHL SUB AND PUSH1 0x1 PUSH1 0x1 PUSH1 0xA0 SHL SUB AND GAS PUSH2 0x3B16 PUSH2 0x6F6B JUMP JUMPDEST PUSH1 0x1 PUSH1 0x1 PUSH1 0xA0 SHL SUB AND EQ PUSH2 0x34F9 JUMPI PUSH2 0x3B2C PUSH2 0x655D JUMP JUMPDEST PUSH1 0x1 PUSH1 0x1 PUSH1 0xA0 SHL SUB AND PUSH4 0x86DABD1 PUSH1 0x40 MLOAD DUP2 PUSH4 0xFFFFFFFF AND PUSH1 0xE0 SHL DUP2 MSTORE PUSH1 0x4 ADD PUSH1 0x0 PUSH1 0x40 MLOAD DUP1 DUP4 SUB DUP2 DUP7 DUP1 PUSH2 0x3B5F PUSH2 0x6CE5 JUMP JUMPDEST ISZERO DUP1 ISZERO PUSH2 0x3B74 JUMPI PUSH1 0x0 DUP1 PUSH2 0x3B71 PUSH2 0x6C1F JUMP JUMPDEST POP POP JUMPDEST POP GAS PUSH2 0x3B7E PUSH2 0x6D31 JUMP JUMPDEST POP POP POP POP POP ISZERO DUP1 ISZERO PUSH2 0x348E JUMPI RETURNDATASIZE PUSH1 0x0 DUP1 RETURNDATACOPY RETURNDATASIZE PUSH1 0x0 PUSH2 0x2783 PUSH2 0x6C1F JUMP JUMPDEST PUSH1 0x60 DUP1 DUP3 PUSH2 0x3BA9 JUMPI PUSH1 0x0 PUSH2 0x3BAC JUMP JUMPDEST PUSH1 0x1 JUMPDEST PUSH1 0xFF AND PUSH1 0x5 DUP1 PUSH2 0x3BBA PUSH2 0x6C8A JUMP JUMPDEST SWAP1 POP ADD PUSH1 0x40 MLOAD SWAP1 DUP1 DUP3 MSTORE DUP1 PUSH1 0x20 MUL PUSH1 0x20 ADD DUP3 ADD PUSH1 0x40 MSTORE DUP1 ISZERO PUSH2 0x3BE6 JUMPI DUP2 PUSH1 0x20 ADD PUSH1 0x20 DUP3 MUL DUP1 CODESIZE DUP4 CODECOPY ADD SWAP1 POP JUMPDEST POP SWAP1 POP PUSH1 0x0 JUMPDEST PUSH1 0x5 DUP1 PUSH2 0x3BF7 PUSH2 0x6C8A JUMP JUMPDEST SWAP1 POP DUP2 LT ISZERO PUSH2 0x3C84 JUMPI PUSH1 0x7 PUSH1 0x0 PUSH1 0x5 DUP4 DUP2 PUSH2 0x3C10 PUSH2 0x6C8A JUMP JUMPDEST DUP2 LT PUSH2 0x3C18 JUMPI INVALID JUMPDEST SWAP1 PUSH1 0x0 MSTORE PUSH1 0x20 PUSH1 0x0 KECCAK256 ADD PUSH1 0x0 SWAP1 PUSH2 0x3C2D PUSH2 0x6C8A JUMP JUMPDEST SWAP1 PUSH2 0x100 EXP SWAP1 DIV PUSH1 0x1 PUSH1 0x1 PUSH1 0xA0 SHL SUB AND PUSH1 0x1 PUSH1 0x1 PUSH1 0xA0 SHL SUB AND PUSH1 0x1 PUSH1 0x1 PUSH1 0xA0 SHL SUB AND DUP2 MSTORE PUSH1 0x20 ADD SWAP1 DUP2 MSTORE PUSH1 0x20 ADD PUSH1 0x0 KECCAK256 PUSH2 0x3C65 PUSH2 0x6C8A JUMP JUMPDEST DUP3 DUP3 DUP2 MLOAD DUP2 LT PUSH2 0x3C71 JUMPI INVALID JUMPDEST PUSH1 0x20 SWAP1 DUP2 MUL SWAP2 SWAP1 SWAP2 ADD ADD MSTORE PUSH1 0x1 ADD PUSH2 0x3BEC JUMP JUMPDEST POP DUP3 ISZERO PUSH2 0x1C03 JUMPI PUSH3 0xA69CB PUSH1 0xEB SHL DUP2 PUSH1 0x5 DUP1 PUSH2 0x3C9E PUSH2 0x6C8A JUMP JUMPDEST SWAP1 POP DUP2 MLOAD DUP2 LT PUSH2 0x3CAA JUMPI INVALID JUMPDEST PUSH1 0x20 MUL PUSH1 0x20 ADD ADD DUP2 DUP2 MSTORE POP POP SWAP3 SWAP2 POP POP JUMP JUMPDEST PUSH1 0x0 DUP3 DUP3 ADD DUP4 DUP2 LT ISZERO PUSH2 0x3D1E JUMPI PUSH1 0x40 MLOAD PUSH3 0x461BCD PUSH1 0xE5 SHL DUP2 MSTORE PUSH1 0x20 PUSH1 0x4 DUP3 ADD MSTORE PUSH1 0x1B PUSH1 0x24 DUP3 ADD MSTORE PUSH32 0x536166654D6174683A206164646974696F6E206F766572666C6F770000000000 PUSH1 0x44 DUP3 ADD MSTORE PUSH1 0x64 ADD PUSH1 0x40 MLOAD DUP1 SWAP2 SUB SWAP1 PUSH2 0x3D1B PUSH2 0x6C1F JUMP JUMPDEST POP POP JUMPDEST SWAP4 SWAP3 POP POP POP JUMP JUMPDEST PUSH1 0x0 PUSH2 0x3D2F PUSH2 0x3923 JUMP JUMPDEST PUSH1 0x1 PUSH1 0x1 PUSH1 0xA0 SHL SUB AND PUSH4 0x23257C2B PUSH14 0x53797374656D53657474696E6773 PUSH1 0x90 SHL PUSH16 0x6D696E696D756D5374616B6554696D65 PUSH1 0x80 SHL PUSH1 0x40 MLOAD PUSH1 0x1 PUSH1 0x1 PUSH1 0xE0 SHL SUB NOT PUSH1 0xE0 DUP6 SWAP1 SHL AND DUP2 MSTORE PUSH1 0x4 DUP2 ADD SWAP3 SWAP1 SWAP3 MSTORE PUSH1 0x24 DUP3 ADD MSTORE PUSH1 0x44 ADD PUSH1 0x20 PUSH1 0x40 MLOAD DUP1 DUP4 SUB DUP2 DUP7 DUP1 PUSH2 0x3D9A PUSH2 0x6CE5 JUMP JUMPDEST ISZERO DUP1 ISZERO PUSH2 0x3DAF JUMPI PUSH1 0x0 DUP1 PUSH2 0x3DAC PUSH2 0x6C1F JUMP JUMPDEST POP POP JUMPDEST POP GAS PUSH2 0x3DB9 PUSH2 0x6D31 JUMP JUMPDEST POP POP POP POP POP ISZERO DUP1 ISZERO PUSH2 0x3DD8 JUMPI RETURNDATASIZE PUSH1 0x0 DUP1 RETURNDATACOPY RETURNDATASIZE PUSH1 0x0 PUSH2 0x3DD5 PUSH2 0x6C1F JUMP JUMPDEST POP POP JUMPDEST POP POP POP POP PUSH1 0x40 MLOAD RETURNDATASIZE PUSH1 0x20 DUP2 LT ISZERO PUSH2 0x3DF7 JUMPI PUSH1 0x0 DUP1 PUSH2 0x3DF4 PUSH2 0x6C1F JUMP JUMPDEST POP POP JUMPDEST DUP2 ADD SWAP1 DUP1 DUP1 MLOAD SWAP4 POP POP POP POP SWAP1 JUMP JUMPDEST PUSH2 0x3E0D PUSH2 0x65AB JUMP JUMPDEST PUSH1 0x1 PUSH1 0x1 PUSH1 0xA0 SHL SUB AND PUSH4 0x7D3F0BA2 DUP4 DUP4 PUSH1 0x40 MLOAD PUSH1 0x1 PUSH1 0x1 PUSH1 0xE0 SHL SUB NOT PUSH1 0xE0 DUP6 SWAP1 SHL AND DUP2 MSTORE PUSH1 0x1 PUSH1 0x1 PUSH1 0xA0 SHL SUB SWAP3 DUP4 AND PUSH1 0x4 DUP3 ADD MSTORE SWAP2 AND PUSH1 0x24 DUP3 ADD MSTORE PUSH1 0x44 ADD PUSH1 0x20 PUSH1 0x40 MLOAD DUP1 DUP4 SUB DUP2 DUP7 DUP1 PUSH2 0x3E5E PUSH2 0x6CE5 JUMP JUMPDEST ISZERO DUP1 ISZERO PUSH2 0x3E73 JUMPI PUSH1 0x0 DUP1 PUSH2 0x3E70 PUSH2 0x6C1F JUMP JUMPDEST POP POP JUMPDEST POP GAS PUSH2 0x3E7D PUSH2 0x6D31 JUMP JUMPDEST POP POP POP POP POP ISZERO DUP1 ISZERO PUSH2 0x3E9C JUMPI RETURNDATASIZE PUSH1 0x0 DUP1 RETURNDATACOPY RETURNDATASIZE PUSH1 0x0 PUSH2 0x3E99 PUSH2 0x6C1F JUMP JUMPDEST POP POP JUMPDEST POP POP POP POP PUSH1 0x40 MLOAD RETURNDATASIZE PUSH1 0x20 DUP2 LT ISZERO PUSH2 0x3EBB JUMPI PUSH1 0x0 DUP1 PUSH2 0x3EB8 PUSH2 0x6C1F JUMP JUMPDEST POP POP JUMPDEST DUP2 ADD SWAP1 DUP1 DUP1 MLOAD SWAP3 POP PUSH2 0xCC0 SWAP2 POP POP JUMPI PUSH1 0x40 MLOAD PUSH3 0x461BCD PUSH1 0xE5 SHL DUP2 MSTORE PUSH1 0x20 PUSH1 0x4 DUP3 ADD MSTORE PUSH1 0x1D PUSH1 0x24 DUP3 ADD MSTORE PUSH32 0x4E6F7420617070726F76656420746F20616374206F6E20626568616C66000000 PUSH1 0x44 DUP3 ADD MSTORE PUSH1 0x64 ADD PUSH1 0x40 MLOAD DUP1 SWAP2 SUB SWAP1 PUSH2 0x348E PUSH2 0x6C1F JUMP JUMPDEST DUP1 PUSH2 0x4145 JUMPI PUSH2 0x3F2A DUP4 PUSH2 0x5BC7 JUMP JUMPDEST PUSH2 0x3F83 JUMPI PUSH1 0x40 MLOAD PUSH3 0x461BCD PUSH1 0xE5 SHL DUP2 MSTORE PUSH1 0x20 PUSH1 0x4 DUP3 ADD MSTORE PUSH1 0x1E PUSH1 0x24 DUP3 ADD MSTORE PUSH32 0x4D696E696D756D207374616B652074696D65206E6F7420726561636865640000 PUSH1 0x44 DUP3 ADD MSTORE PUSH1 0x64 ADD PUSH1 0x40 MLOAD DUP1 SWAP2 SUB SWAP1 PUSH2 0x3F80 PUSH2 0x6C1F JUMP JUMPDEST POP POP JUMPDEST PUSH1 0x0 DUP1 PUSH2 0x3F8E PUSH2 0x50B9 JUMP JUMPDEST PUSH1 0x1 PUSH1 0x1 PUSH1 0xA0 SHL SUB AND PUSH4 0x1B16802C DUP7 PUSH4 0x1CD554D1 PUSH1 0xE2 SHL PUSH1 0x40 MLOAD PUSH1 0x1 PUSH1 0x1 PUSH1 0xE0 SHL SUB NOT PUSH1 0xE0 DUP6 SWAP1 SHL AND DUP2 MSTORE PUSH1 0x1 PUSH1 0x1 PUSH1 0xA0 SHL SUB SWAP1 SWAP3 AND PUSH1 0x4 DUP4 ADD MSTORE PUSH1 0x24 DUP3 ADD MSTORE PUSH1 0x44 ADD PUSH1 0x60 PUSH1 0x40 MLOAD DUP1 DUP4 SUB DUP2 PUSH1 0x0 DUP8 DUP1 PUSH2 0x3FE6 PUSH2 0x6CE5 JUMP JUMPDEST ISZERO DUP1 ISZERO PUSH2 0x3FFB JUMPI PUSH1 0x0 DUP1 PUSH2 0x3FF8 PUSH2 0x6C1F JUMP JUMPDEST POP POP JUMPDEST POP GAS PUSH2 0x4005 PUSH2 0x6EB2 JUMP JUMPDEST POP POP POP POP POP POP ISZERO DUP1 ISZERO PUSH2 0x4025 JUMPI RETURNDATASIZE PUSH1 0x0 DUP1 RETURNDATACOPY RETURNDATASIZE PUSH1 0x0 PUSH2 0x4022 PUSH2 0x6C1F JUMP JUMPDEST POP POP JUMPDEST POP POP POP POP PUSH1 0x40 MLOAD RETURNDATASIZE PUSH1 0x60 DUP2 LT ISZERO PUSH2 0x4044 JUMPI PUSH1 0x0 DUP1 PUSH2 0x4041 PUSH2 0x6C1F JUMP JUMPDEST POP POP JUMPDEST DUP2 ADD SWAP1 DUP1 DUP1 MLOAD SWAP3 SWAP2 SWAP1 PUSH1 0x20 ADD DUP1 MLOAD SWAP3 SWAP2 SWAP1 PUSH1 0x20 ADD DUP1 MLOAD SWAP4 SWAP7 POP SWAP3 SWAP5 POP POP DUP4 ISZERO SWAP3 POP PUSH2 0x4142 SWAP2 POP POP JUMPI PUSH2 0x4074 PUSH2 0x50B9 JUMP JUMPDEST PUSH1 0x1 PUSH1 0x1 PUSH1 0xA0 SHL SUB AND PUSH4 0x4C268FC8 DUP7 PUSH4 0x1CD554D1 PUSH1 0xE2 SHL DUP8 DUP7 PUSH1 0x40 MLOAD PUSH1 0x1 PUSH1 0x1 PUSH1 0xE0 SHL SUB NOT PUSH1 0xE0 DUP8 SWAP1 SHL AND DUP2 MSTORE PUSH1 0x1 PUSH1 0x1 PUSH1 0xA0 SHL SUB SWAP1 SWAP5 AND PUSH1 0x4 DUP6 ADD MSTORE PUSH1 0x24 DUP5 ADD SWAP3 SWAP1 SWAP3 MSTORE PUSH1 0x44 DUP4 ADD MSTORE PUSH1 0x64 DUP3 ADD MSTORE PUSH1 0x84 ADD PUSH1 0x20 PUSH1 0x40 MLOAD DUP1 DUP4 SUB DUP2 DUP7 DUP1 PUSH2 0x40D9 PUSH2 0x6CE5 JUMP JUMPDEST ISZERO DUP1 ISZERO PUSH2 0x40EE JUMPI PUSH1 0x0 DUP1 PUSH2 0x40EB PUSH2 0x6C1F JUMP JUMPDEST POP POP JUMPDEST POP GAS PUSH2 0x40F8 PUSH2 0x6D31 JUMP JUMPDEST POP POP POP POP POP ISZERO DUP1 ISZERO PUSH2 0x4117 JUMPI RETURNDATASIZE PUSH1 0x0 DUP1 RETURNDATACOPY RETURNDATASIZE PUSH1 0x0 PUSH2 0x4114 PUSH2 0x6C1F JUMP JUMPDEST POP POP JUMPDEST POP POP POP POP PUSH1 0x40 MLOAD RETURNDATASIZE PUSH1 0x20 DUP2 LT ISZERO PUSH2 0x4136 JUMPI PUSH1 0x0 DUP1 PUSH2 0x4133 PUSH2 0x6C1F JUMP JUMPDEST POP POP JUMPDEST DUP2 ADD SWAP1 DUP1 DUP1 MLOAD SWAP7 POP POP POP POP JUMPDEST POP POP JUMPDEST PUSH1 0x0 DUP1 PUSH1 0x0 PUSH2 0x415B DUP7 PUSH4 0x1CD554D1 PUSH1 0xE2 SHL PUSH2 0x491B JUMP JUMPDEST SWAP3 POP SWAP3 POP SWAP3 POP PUSH1 0x0 DUP1 PUSH2 0x416D DUP9 PUSH2 0x3713 JUMP JUMPDEST SWAP2 POP SWAP2 POP PUSH2 0x4181 DUP4 DUP1 PUSH2 0x2CB0 JUMPI POP DUP2 PUSH2 0x593D JUMP JUMPDEST PUSH1 0x0 DUP6 GT PUSH2 0x41D3 JUMPI PUSH1 0x40 MLOAD PUSH3 0x461BCD PUSH1 0xE5 SHL DUP2 MSTORE PUSH1 0x20 PUSH1 0x4 DUP3 ADD MSTORE PUSH1 0x12 PUSH1 0x24 DUP3 ADD MSTORE PUSH18 0x4E6F206465627420746F20666F7267697665 PUSH1 0x70 SHL PUSH1 0x44 DUP3 ADD MSTORE PUSH1 0x64 ADD PUSH1 0x40 MLOAD DUP1 SWAP2 SUB SWAP1 PUSH2 0x41D0 PUSH2 0x6C1F JUMP JUMPDEST POP POP JUMPDEST DUP6 ISZERO PUSH2 0x41EC JUMPI PUSH2 0x41E9 DUP6 DUP4 PUSH4 0xFFFFFFFF PUSH2 0x4C28 AND JUMP JUMPDEST SWAP7 POP JUMPDEST PUSH1 0x0 PUSH2 0x41FB DUP10 DUP11 DUP11 DUP10 DUP10 PUSH2 0x5A0D JUMP JUMPDEST SWAP1 POP DUP3 PUSH2 0x420E DUP8 DUP4 PUSH4 0xFFFFFFFF PUSH2 0x4C28 AND JUMP JUMPDEST GT PUSH2 0x42AA JUMPI PUSH2 0x421B PUSH2 0x58EF JUMP JUMPDEST PUSH1 0x1 PUSH1 0x1 PUSH1 0xA0 SHL SUB AND PUSH4 0x974E9E7F DUP11 PUSH1 0x40 MLOAD PUSH1 0x1 PUSH1 0x1 PUSH1 0xE0 SHL SUB NOT PUSH1 0xE0 DUP5 SWAP1 SHL AND DUP2 MSTORE PUSH1 0x1 PUSH1 0x1 PUSH1 0xA0 SHL SUB SWAP1 SWAP2 AND PUSH1 0x4 DUP3 ADD MSTORE PUSH1 0x24 ADD PUSH1 0x0 PUSH1 0x40 MLOAD DUP1 DUP4 SUB DUP2 PUSH1 0x0 DUP8 DUP1 PUSH2 0x4266 PUSH2 0x6CE5 JUMP JUMPDEST ISZERO DUP1 ISZERO PUSH2 0x427B JUMPI PUSH1 0x0 DUP1 PUSH2 0x4278 PUSH2 0x6C1F JUMP JUMPDEST POP POP JUMPDEST POP GAS PUSH2 0x4285 PUSH2 0x6EB2 JUMP JUMPDEST POP POP POP POP POP POP ISZERO DUP1 ISZERO PUSH2 0x42A5 JUMPI RETURNDATASIZE PUSH1 0x0 DUP1 RETURNDATACOPY RETURNDATASIZE PUSH1 0x0 PUSH2 0x42A2 PUSH2 0x6C1F JUMP JUMPDEST POP POP JUMPDEST POP POP POP POP JUMPDEST POP POP POP POP POP POP POP POP POP JUMP JUMPDEST PUSH1 0x0 DUP1 PUSH1 0x60 PUSH1 0x2 PUSH1 0x40 MLOAD SWAP1 DUP1 DUP3 MSTORE DUP1 PUSH1 0x20 MUL PUSH1 0x20 ADD DUP3 ADD PUSH1 0x40 MSTORE DUP1 ISZERO PUSH2 0x42E5 JUMPI DUP2 PUSH1 0x20 ADD PUSH1 0x20 DUP3 MUL DUP1 CODESIZE DUP4 CODECOPY ADD SWAP1 POP JUMPDEST POP SWAP1 POP PUSH19 0x18D858DA195914D396125CDCDD59591119589D PUSH1 0x6A SHL DUP2 PUSH1 0x0 DUP2 MLOAD DUP2 LT PUSH2 0x430C JUMPI INVALID JUMPDEST PUSH1 0x20 MUL PUSH1 0x20 ADD ADD DUP2 DUP2 MSTORE POP POP PUSH32 0x636163686564534E584973737565644465627454696D657374616D7000000000 DUP2 PUSH1 0x1 DUP2 MLOAD DUP2 LT PUSH2 0x4346 JUMPI INVALID JUMPDEST PUSH1 0x20 MUL PUSH1 0x20 ADD ADD DUP2 DUP2 MSTORE POP POP PUSH1 0x60 DUP5 PUSH1 0x1 PUSH1 0x1 PUSH1 0xA0 SHL SUB AND PUSH4 0xB67FA7ED PUSH6 0x24B9B9BAB2B9 PUSH1 0xD1 SHL DUP5 PUSH1 0x40 MLOAD DUP4 PUSH4 0xFFFFFFFF AND PUSH1 0xE0 SHL DUP2 MSTORE PUSH1 0x4 ADD DUP1 DUP4 DUP2 MSTORE PUSH1 0x20 ADD DUP1 PUSH1 0x20 ADD DUP3 DUP2 SUB DUP3 MSTORE DUP4 DUP2 DUP2 MLOAD DUP2 MSTORE PUSH1 0x20 ADD SWAP2 POP DUP1 MLOAD SWAP1 PUSH1 0x20 ADD SWAP1 PUSH1 0x20 MUL DUP1 DUP4 DUP4 PUSH1 0x0 JUMPDEST DUP4 DUP2 LT ISZERO PUSH2 0x43C3 JUMPI DUP1 DUP3 ADD MLOAD DUP4 DUP3 ADD MSTORE PUSH1 0x20 ADD PUSH2 0x43AB JUMP JUMPDEST POP POP POP POP SWAP1 POP ADD SWAP4 POP POP POP POP PUSH1 0x0 PUSH1 0x40 MLOAD DUP1 DUP4 SUB DUP2 DUP7 DUP1 PUSH2 0x43E2 PUSH2 0x6CE5 JUMP JUMPDEST ISZERO DUP1 ISZERO PUSH2 0x43F7 JUMPI PUSH1 0x0 DUP1 PUSH2 0x43F4 PUSH2 0x6C1F JUMP JUMPDEST POP POP JUMPDEST POP GAS PUSH2 0x4401 PUSH2 0x6D31 JUMP JUMPDEST POP POP POP POP POP ISZERO DUP1 ISZERO PUSH2 0x4420 JUMPI RETURNDATASIZE PUSH1 0x0 DUP1 RETURNDATACOPY RETURNDATASIZE PUSH1 0x0 PUSH2 0x441D PUSH2 0x6C1F JUMP JUMPDEST POP POP JUMPDEST POP POP POP POP PUSH1 0x40 MLOAD RETURNDATASIZE PUSH1 0x0 DUP3 RETURNDATACOPY PUSH1 0x1F RETURNDATASIZE SWAP1 DUP2 ADD PUSH1 0x1F NOT AND DUP3 ADD PUSH1 0x40 MSTORE PUSH1 0x20 DUP2 LT ISZERO PUSH2 0x4452 JUMPI PUSH1 0x0 DUP1 PUSH2 0x444F PUSH2 0x6C1F JUMP JUMPDEST POP POP JUMPDEST DUP2 ADD SWAP1 DUP1 DUP1 MLOAD PUSH1 0x40 MLOAD SWAP4 SWAP3 SWAP2 SWAP1 DUP5 PUSH1 0x1 PUSH1 0x20 SHL DUP3 GT ISZERO PUSH2 0x447A JUMPI PUSH1 0x0 DUP1 PUSH2 0x4477 PUSH2 0x6C1F JUMP JUMPDEST POP POP JUMPDEST SWAP1 DUP4 ADD SWAP1 PUSH1 0x20 DUP3 ADD DUP6 DUP2 GT ISZERO PUSH2 0x4498 JUMPI PUSH1 0x0 DUP1 PUSH2 0x4495 PUSH2 0x6C1F JUMP JUMPDEST POP POP JUMPDEST DUP3 MLOAD DUP7 PUSH1 0x20 DUP3 MUL DUP4 ADD GT PUSH1 0x1 PUSH1 0x20 SHL DUP3 GT OR ISZERO PUSH2 0x44BD JUMPI PUSH1 0x0 DUP1 PUSH2 0x44BA PUSH2 0x6C1F JUMP JUMPDEST POP POP JUMPDEST DUP3 MSTORE POP PUSH1 0x20 ADD SWAP1 DUP1 MLOAD SWAP1 PUSH1 0x20 ADD SWAP1 PUSH1 0x20 MUL DUP1 DUP4 DUP4 PUSH1 0x0 JUMPDEST DUP4 DUP2 LT ISZERO PUSH2 0x44EC JUMPI DUP1 DUP3 ADD MLOAD DUP4 DUP3 ADD MSTORE PUSH1 0x20 ADD PUSH2 0x44D4 JUMP JUMPDEST POP POP POP POP SWAP1 POP ADD PUSH1 0x40 MSTORE POP POP POP SWAP1 POP DUP1 PUSH1 0x0 DUP2 MLOAD DUP2 LT PUSH2 0x4508 JUMPI INVALID JUMPDEST PUSH1 0x20 MUL PUSH1 0x20 ADD ADD MLOAD DUP2 PUSH1 0x1 DUP2 MLOAD DUP2 LT PUSH2 0x451D JUMPI INVALID JUMPDEST PUSH1 0x20 MUL PUSH1 0x20 ADD ADD MLOAD SWAP4 POP SWAP4 POP POP POP SWAP2 POP SWAP2 JUMP JUMPDEST PUSH1 0x0 DUP2 PUSH1 0x1 PUSH1 0x1 PUSH1 0xA0 SHL SUB AND PUSH4 0xD994502D PUSH6 0x24B9B9BAB2B9 PUSH1 0xD1 SHL PUSH32 0x636163686564534E5849737375656444656274496E76616C6964000000000000 PUSH1 0x40 MLOAD PUSH1 0x1 PUSH1 0x1 PUSH1 0xE0 SHL SUB NOT PUSH1 0xE0 DUP6 SWAP1 SHL AND DUP2 MSTORE PUSH1 0x4 DUP2 ADD SWAP3 SWAP1 SWAP3 MSTORE PUSH1 0x24 DUP3 ADD MSTORE PUSH1 0x44 ADD PUSH1 0x20 PUSH1 0x40 MLOAD DUP1 DUP4 SUB DUP2 DUP7 DUP1 PUSH2 0x45A3 PUSH2 0x6CE5 JUMP JUMPDEST ISZERO DUP1 ISZERO PUSH2 0x45B8 JUMPI PUSH1 0x0 DUP1 PUSH2 0x45B5 PUSH2 0x6C1F JUMP JUMPDEST POP POP JUMPDEST POP GAS PUSH2 0x45C2 PUSH2 0x6D31 JUMP JUMPDEST POP POP POP POP POP ISZERO DUP1 ISZERO PUSH2 0x45E1 JUMPI RETURNDATASIZE PUSH1 0x0 DUP1 RETURNDATACOPY RETURNDATASIZE PUSH1 0x0 PUSH2 0x45DE PUSH2 0x6C1F JUMP JUMPDEST POP POP JUMPDEST POP POP POP POP PUSH1 0x40 MLOAD RETURNDATASIZE PUSH1 0x20 DUP2 LT ISZERO PUSH2 0x4600 JUMPI PUSH1 0x0 DUP1 PUSH2 0x45FD PUSH2 0x6C1F JUMP JUMPDEST POP POP JUMPDEST DUP2 ADD SWAP1 DUP1 DUP1 MLOAD SWAP6 SWAP5 POP POP POP POP POP JUMP JUMPDEST PUSH1 0x0 PUSH2 0x1623 PUSH13 0x45786368616E67655261746573 PUSH1 0x98 SHL PUSH1 0x40 MLOAD PUSH1 0x40 DUP1 DUP3 ADD SWAP1 MSTORE PUSH1 0x1D DUP2 MSTORE PUSH32 0x4D697373696E672045786368616E676552617465732061646472657373000000 PUSH1 0x20 DUP3 ADD MSTORE PUSH2 0x6494 JUMP JUMPDEST PUSH1 0x60 PUSH1 0x0 DUP4 MLOAD SWAP1 POP PUSH1 0x60 DUP2 PUSH1 0x40 MLOAD SWAP1 DUP1 DUP3 MSTORE DUP1 PUSH1 0x20 MUL PUSH1 0x20 ADD DUP3 ADD PUSH1 0x40 MSTORE DUP1 ISZERO PUSH2 0x4692 JUMPI DUP2 PUSH1 0x20 ADD PUSH1 0x20 DUP3 MUL DUP1 CODESIZE DUP4 CODECOPY ADD SWAP1 POP JUMPDEST POP SWAP1 POP PUSH1 0x0 JUMPDEST DUP3 DUP2 LT ISZERO PUSH2 0x48B9 JUMPI PUSH1 0x0 DUP7 DUP3 DUP2 MLOAD DUP2 LT PUSH2 0x46AE JUMPI INVALID JUMPDEST PUSH1 0x20 MUL PUSH1 0x20 ADD ADD MLOAD PUSH1 0x0 DUP2 DUP2 MSTORE PUSH1 0x6 PUSH1 0x20 MSTORE SWAP1 SWAP2 POP PUSH1 0x40 DUP2 KECCAK256 PUSH1 0x0 SWAP1 PUSH2 0x46D2 PUSH2 0x6C8A JUMP JUMPDEST SWAP1 PUSH2 0x100 EXP SWAP1 DIV PUSH1 0x1 PUSH1 0x1 PUSH1 0xA0 SHL SUB AND PUSH1 0x1 PUSH1 0x1 PUSH1 0xA0 SHL SUB AND PUSH4 0x18160DDD PUSH1 0x40 MLOAD DUP2 PUSH4 0xFFFFFFFF AND PUSH1 0xE0 SHL DUP2 MSTORE PUSH1 0x4 ADD PUSH1 0x20 PUSH1 0x40 MLOAD DUP1 DUP4 SUB DUP2 DUP7 DUP1 PUSH2 0x4715 PUSH2 0x6CE5 JUMP JUMPDEST ISZERO DUP1 ISZERO PUSH2 0x472A JUMPI PUSH1 0x0 DUP1 PUSH2 0x4727 PUSH2 0x6C1F JUMP JUMPDEST POP POP JUMPDEST POP GAS PUSH2 0x4734 PUSH2 0x6D31 JUMP JUMPDEST POP POP POP POP POP ISZERO DUP1 ISZERO PUSH2 0x4753 JUMPI RETURNDATASIZE PUSH1 0x0 DUP1 RETURNDATACOPY RETURNDATASIZE PUSH1 0x0 PUSH2 0x4750 PUSH2 0x6C1F JUMP JUMPDEST POP POP JUMPDEST POP POP POP POP PUSH1 0x40 MLOAD RETURNDATASIZE PUSH1 0x20 DUP2 LT ISZERO PUSH2 0x4772 JUMPI PUSH1 0x0 DUP1 PUSH2 0x476F PUSH2 0x6C1F JUMP JUMPDEST POP POP JUMPDEST DUP2 ADD SWAP1 DUP1 DUP1 MLOAD SWAP4 POP POP POP PUSH4 0x1CD554D1 PUSH1 0xE2 SHL DUP4 EQ SWAP1 POP DUP1 DUP1 PUSH2 0x479A JUMPI POP PUSH4 0xE68AA89 PUSH1 0xE3 SHL DUP4 EQ JUMPDEST ISZERO PUSH2 0x4873 JUMPI PUSH1 0x0 DUP2 PUSH2 0x47B3 JUMPI PUSH2 0x47AE PUSH2 0x65E1 JUMP JUMPDEST PUSH2 0x47BB JUMP JUMPDEST PUSH2 0x47BB PUSH2 0x6632 JUMP JUMPDEST SWAP1 POP PUSH1 0x0 DUP2 PUSH1 0x1 PUSH1 0x1 PUSH1 0xA0 SHL SUB AND PUSH4 0xEE5F3F5C PUSH1 0x40 MLOAD DUP2 PUSH4 0xFFFFFFFF AND PUSH1 0xE0 SHL DUP2 MSTORE PUSH1 0x4 ADD PUSH1 0x20 PUSH1 0x40 MLOAD DUP1 DUP4 SUB DUP2 DUP7 DUP1 PUSH2 0x47F3 PUSH2 0x6CE5 JUMP JUMPDEST ISZERO DUP1 ISZERO PUSH2 0x4808 JUMPI PUSH1 0x0 DUP1 PUSH2 0x4805 PUSH2 0x6C1F JUMP JUMPDEST POP POP JUMPDEST POP GAS PUSH2 0x4812 PUSH2 0x6D31 JUMP JUMPDEST POP POP POP POP POP ISZERO DUP1 ISZERO PUSH2 0x4831 JUMPI RETURNDATASIZE PUSH1 0x0 DUP1 RETURNDATACOPY RETURNDATASIZE PUSH1 0x0 PUSH2 0x482E PUSH2 0x6C1F JUMP JUMPDEST POP POP JUMPDEST POP POP POP POP PUSH1 0x40 MLOAD RETURNDATASIZE PUSH1 0x20 DUP2 LT ISZERO PUSH2 0x4850 JUMPI PUSH1 0x0 DUP1 PUSH2 0x484D PUSH2 0x6C1F JUMP JUMPDEST POP POP JUMPDEST DUP2 ADD SWAP1 DUP1 DUP1 MLOAD SWAP4 POP PUSH2 0x486E SWAP3 POP DUP7 SWAP2 POP DUP4 SWAP1 POP PUSH4 0xFFFFFFFF PUSH2 0x4C28 AND JUMP JUMPDEST SWAP4 POP POP POP JUMPDEST PUSH2 0x4897 DUP9 DUP6 DUP2 MLOAD DUP2 LT PUSH2 0x4882 JUMPI INVALID JUMPDEST PUSH1 0x20 MUL PUSH1 0x20 ADD ADD MLOAD DUP4 SWAP1 PUSH4 0xFFFFFFFF PUSH2 0x666A AND JUMP JUMPDEST DUP6 DUP6 DUP2 MLOAD DUP2 LT PUSH2 0x48A3 JUMPI INVALID JUMPDEST PUSH1 0x20 SWAP1 DUP2 MUL SWAP2 SWAP1 SWAP2 ADD ADD MSTORE POP POP POP PUSH1 0x1 ADD PUSH2 0x4698 JUMP JUMPDEST POP SWAP5 SWAP4 POP POP POP POP JUMP JUMPDEST PUSH2 0x48CA PUSH2 0x65AB JUMP JUMPDEST PUSH1 0x1 PUSH1 0x1 PUSH1 0xA0 SHL SUB AND PUSH4 0x4872617 DUP4 DUP4 PUSH1 0x40 MLOAD PUSH1 0x1 PUSH1 0x1 PUSH1 0xE0 SHL SUB NOT PUSH1 0xE0 DUP6 SWAP1 SHL AND DUP2 MSTORE PUSH1 0x1 PUSH1 0x1 PUSH1 0xA0 SHL SUB SWAP3 DUP4 AND PUSH1 0x4 DUP3 ADD MSTORE SWAP2 AND PUSH1 0x24 DUP3 ADD MSTORE PUSH1 0x44 ADD PUSH1 0x20 PUSH1 0x40 MLOAD DUP1 DUP4 SUB DUP2 DUP7 DUP1 PUSH2 0x3E5E PUSH2 0x6CE5 JUMP JUMPDEST PUSH1 0x0 DUP1 PUSH1 0x0 DUP1 PUSH2 0x4929 PUSH2 0x5BEE JUMP JUMPDEST SWAP1 POP PUSH1 0x0 DUP1 DUP3 PUSH1 0x1 PUSH1 0x1 PUSH1 0xA0 SHL SUB AND PUSH4 0x8B3F8088 DUP10 PUSH1 0x40 MLOAD PUSH1 0x1 PUSH1 0x1 PUSH1 0xE0 SHL SUB NOT PUSH1 0xE0 DUP5 SWAP1 SHL AND DUP2 MSTORE PUSH1 0x1 PUSH1 0x1 PUSH1 0xA0 SHL SUB SWAP1 SWAP2 AND PUSH1 0x4 DUP3 ADD MSTORE PUSH1 0x24 ADD PUSH1 0x40 DUP1 MLOAD DUP1 DUP4 SUB DUP2 DUP7 DUP1 PUSH2 0x4977 PUSH2 0x6CE5 JUMP JUMPDEST ISZERO DUP1 ISZERO PUSH2 0x498C JUMPI PUSH1 0x0 DUP1 PUSH2 0x4989 PUSH2 0x6C1F JUMP JUMPDEST POP POP JUMPDEST POP GAS PUSH2 0x4996 PUSH2 0x6D31 JUMP JUMPDEST POP POP POP POP POP ISZERO DUP1 ISZERO PUSH2 0x49B5 JUMPI RETURNDATASIZE PUSH1 0x0 DUP1 RETURNDATACOPY RETURNDATASIZE PUSH1 0x0 PUSH2 0x49B2 PUSH2 0x6C1F JUMP JUMPDEST POP POP JUMPDEST POP POP POP POP PUSH1 0x40 MLOAD RETURNDATASIZE PUSH1 0x40 DUP2 LT ISZERO PUSH2 0x49D4 JUMPI PUSH1 0x0 DUP1 PUSH2 0x49D1 PUSH2 0x6C1F JUMP JUMPDEST POP POP JUMPDEST DUP2 ADD SWAP1 DUP1 DUP1 MLOAD SWAP3 SWAP2 SWAP1 PUSH1 0x20 ADD DUP1 MLOAD SWAP4 SWAP6 POP SWAP3 SWAP4 POP PUSH2 0x49F9 SWAP3 POP DUP10 SWAP2 POP PUSH1 0x1 SWAP1 POP PUSH2 0x4C8D JUMP JUMPDEST SWAP1 SWAP6 POP SWAP4 POP DUP2 PUSH2 0x4A10 JUMPI POP PUSH1 0x0 SWAP5 POP PUSH2 0x4B9A SWAP2 POP POP JUMP JUMPDEST PUSH1 0x0 PUSH2 0x4B76 DUP4 PUSH2 0x4B6A DUP7 PUSH1 0x1 PUSH1 0x1 PUSH1 0xA0 SHL SUB AND PUSH4 0x8D95CD5 DUP7 PUSH1 0x40 MLOAD PUSH1 0x1 PUSH1 0x1 PUSH1 0xE0 SHL SUB NOT PUSH1 0xE0 DUP5 SWAP1 SHL AND DUP2 MSTORE PUSH1 0x4 DUP2 ADD SWAP2 SWAP1 SWAP2 MSTORE PUSH1 0x24 ADD PUSH1 0x20 PUSH1 0x40 MLOAD DUP1 DUP4 SUB DUP2 DUP7 DUP1 PUSH2 0x4A5B PUSH2 0x6CE5 JUMP JUMPDEST ISZERO DUP1 ISZERO PUSH2 0x4A70 JUMPI PUSH1 0x0 DUP1 PUSH2 0x4A6D PUSH2 0x6C1F JUMP JUMPDEST POP POP JUMPDEST POP GAS PUSH2 0x4A7A PUSH2 0x6D31 JUMP JUMPDEST POP POP POP POP POP ISZERO DUP1 ISZERO PUSH2 0x4A99 JUMPI RETURNDATASIZE PUSH1 0x0 DUP1 RETURNDATACOPY RETURNDATASIZE PUSH1 0x0 PUSH2 0x4A96 PUSH2 0x6C1F JUMP JUMPDEST POP POP JUMPDEST POP POP POP POP PUSH1 0x40 MLOAD RETURNDATASIZE PUSH1 0x20 DUP2 LT ISZERO PUSH2 0x4AB8 JUMPI PUSH1 0x0 DUP1 PUSH2 0x4AB5 PUSH2 0x6C1F JUMP JUMPDEST POP POP JUMPDEST DUP2 ADD SWAP1 DUP1 DUP1 MLOAD SWAP3 POP POP POP PUSH1 0x1 PUSH1 0x1 PUSH1 0xA0 SHL SUB DUP9 AND PUSH4 0x46317712 PUSH1 0x40 MLOAD DUP2 PUSH4 0xFFFFFFFF AND PUSH1 0xE0 SHL DUP2 MSTORE PUSH1 0x4 ADD PUSH1 0x20 PUSH1 0x40 MLOAD DUP1 DUP4 SUB DUP2 DUP7 DUP1 PUSH2 0x4AF6 PUSH2 0x6CE5 JUMP JUMPDEST ISZERO DUP1 ISZERO PUSH2 0x4B0B JUMPI PUSH1 0x0 DUP1 PUSH2 0x4B08 PUSH2 0x6C1F JUMP JUMPDEST POP POP JUMPDEST POP GAS PUSH2 0x4B15 PUSH2 0x6D31 JUMP JUMPDEST POP POP POP POP POP ISZERO DUP1 ISZERO PUSH2 0x4B34 JUMPI RETURNDATASIZE PUSH1 0x0 DUP1 RETURNDATACOPY RETURNDATASIZE PUSH1 0x0 PUSH2 0x4B31 PUSH2 0x6C1F JUMP JUMPDEST POP POP JUMPDEST POP POP POP POP PUSH1 0x40 MLOAD RETURNDATASIZE PUSH1 0x20 DUP2 LT ISZERO PUSH2 0x4B53 JUMPI PUSH1 0x0 DUP1 PUSH2 0x4B50 PUSH2 0x6C1F JUMP JUMPDEST POP POP JUMPDEST DUP2 ADD SWAP1 DUP1 DUP1 MLOAD SWAP4 SWAP3 POP POP PUSH4 0xFFFFFFFF PUSH2 0x667F AND SWAP1 POP JUMP JUMPDEST SWAP1 PUSH4 0xFFFFFFFF PUSH2 0x6698 AND JUMP JUMPDEST SWAP1 POP PUSH1 0x0 PUSH2 0x4B87 DUP3 PUSH2 0x4B6A DUP10 PUSH2 0x66B1 JUMP JUMPDEST SWAP1 POP PUSH2 0x4B92 DUP2 PUSH2 0x66C7 JUMP JUMPDEST SWAP8 POP POP POP POP POP POP JUMPDEST SWAP3 POP SWAP3 POP SWAP3 JUMP JUMPDEST PUSH1 0x0 PUSH2 0x4BAB PUSH2 0x3923 JUMP JUMPDEST PUSH1 0x1 PUSH1 0x1 PUSH1 0xA0 SHL SUB AND PUSH4 0x23257C2B PUSH14 0x53797374656D53657474696E6773 PUSH1 0x90 SHL PUSH13 0x69737375616E6365526174696F PUSH1 0x98 SHL PUSH1 0x40 MLOAD PUSH1 0x1 PUSH1 0x1 PUSH1 0xE0 SHL SUB NOT PUSH1 0xE0 DUP6 SWAP1 SHL AND DUP2 MSTORE PUSH1 0x4 DUP2 ADD SWAP3 SWAP1 SWAP3 MSTORE PUSH1 0x24 DUP3 ADD MSTORE PUSH1 0x44 ADD PUSH1 0x20 PUSH1 0x40 MLOAD DUP1 DUP4 SUB DUP2 DUP7 DUP1 PUSH2 0x3D9A PUSH2 0x6CE5 JUMP JUMPDEST PUSH1 0x0 PUSH2 0x3D1E DUP4 DUP4 PUSH8 0xDE0B6B3A7640000 PUSH2 0x66E9 JUMP JUMPDEST PUSH1 0x0 DUP3 DUP3 GT ISZERO PUSH2 0x4C87 JUMPI PUSH1 0x40 MLOAD PUSH3 0x461BCD PUSH1 0xE5 SHL DUP2 MSTORE PUSH1 0x20 PUSH1 0x4 DUP3 ADD MSTORE PUSH1 0x1E PUSH1 0x24 DUP3 ADD MSTORE PUSH32 0x536166654D6174683A207375627472616374696F6E206F766572666C6F770000 PUSH1 0x44 DUP3 ADD MSTORE PUSH1 0x64 ADD PUSH1 0x40 MLOAD DUP1 SWAP2 SUB SWAP1 PUSH2 0x4C84 PUSH2 0x6C1F JUMP JUMPDEST POP POP JUMPDEST POP SWAP1 SUB SWAP1 JUMP JUMPDEST PUSH1 0x0 DUP1 PUSH1 0x0 PUSH2 0x4C9A PUSH2 0x3923 JUMP JUMPDEST SWAP1 POP PUSH1 0x0 DUP1 PUSH2 0x4CA8 DUP4 PUSH2 0x42B5 JUMP JUMPDEST SWAP2 POP SWAP2 POP PUSH1 0x0 DUP2 GAS PUSH2 0x4CB8 PUSH2 0x6E6C JUMP JUMPDEST SUB PUSH2 0x4CC1 PUSH2 0x5B4D JUMP JUMPDEST LT SWAP1 POP DUP1 DUP1 PUSH2 0x4CD4 JUMPI POP PUSH2 0x4CD4 DUP5 PUSH2 0x4530 JUMP JUMPDEST DUP1 PUSH2 0x4CDD JUMPI POP DUP2 ISZERO JUMPDEST SWAP5 POP PUSH1 0x0 PUSH2 0x4CE9 PUSH2 0x460F JUMP JUMPDEST SWAP1 POP DUP8 PUSH2 0x4F3E JUMPI PUSH2 0x4DA2 PUSH2 0x4CFB PUSH2 0x6632 JUMP JUMPDEST PUSH1 0x1 PUSH1 0x1 PUSH1 0xA0 SHL SUB AND PUSH4 0xEE5F3F5C PUSH1 0x40 MLOAD DUP2 PUSH4 0xFFFFFFFF AND PUSH1 0xE0 SHL DUP2 MSTORE PUSH1 0x4 ADD PUSH1 0x20 PUSH1 0x40 MLOAD DUP1 DUP4 SUB DUP2 DUP7 DUP1 PUSH2 0x4D2E PUSH2 0x6CE5 JUMP JUMPDEST ISZERO DUP1 ISZERO PUSH2 0x4D43 JUMPI PUSH1 0x0 DUP1 PUSH2 0x4D40 PUSH2 0x6C1F JUMP JUMPDEST POP POP JUMPDEST POP GAS PUSH2 0x4D4D PUSH2 0x6D31 JUMP JUMPDEST POP POP POP POP POP ISZERO DUP1 ISZERO PUSH2 0x4D6C JUMPI RETURNDATASIZE PUSH1 0x0 DUP1 RETURNDATACOPY RETURNDATASIZE PUSH1 0x0 PUSH2 0x4D69 PUSH2 0x6C1F JUMP JUMPDEST POP POP JUMPDEST POP POP POP POP PUSH1 0x40 MLOAD RETURNDATASIZE PUSH1 0x20 DUP2 LT ISZERO PUSH2 0x4D8B JUMPI PUSH1 0x0 DUP1 PUSH2 0x4D88 PUSH2 0x6C1F JUMP JUMPDEST POP POP JUMPDEST DUP2 ADD SWAP1 DUP1 DUP1 MLOAD DUP9 SWAP4 POP SWAP2 POP POP PUSH4 0xFFFFFFFF PUSH2 0x3CBC AND JUMP JUMPDEST SWAP4 POP PUSH1 0x0 DUP1 DUP3 PUSH1 0x1 PUSH1 0x1 PUSH1 0xA0 SHL SUB AND PUSH4 0xC71CD23 PUSH4 0xE68AA89 PUSH1 0xE3 SHL PUSH1 0x40 MLOAD PUSH1 0x1 PUSH1 0x1 PUSH1 0xE0 SHL SUB NOT PUSH1 0xE0 DUP5 SWAP1 SHL AND DUP2 MSTORE PUSH1 0x4 DUP2 ADD SWAP2 SWAP1 SWAP2 MSTORE PUSH1 0x24 ADD PUSH1 0x40 DUP1 MLOAD DUP1 DUP4 SUB DUP2 DUP7 DUP1 PUSH2 0x4DEF PUSH2 0x6CE5 JUMP JUMPDEST ISZERO DUP1 ISZERO PUSH2 0x4E04 JUMPI PUSH1 0x0 DUP1 PUSH2 0x4E01 PUSH2 0x6C1F JUMP JUMPDEST POP POP JUMPDEST POP GAS PUSH2 0x4E0E PUSH2 0x6D31 JUMP JUMPDEST POP POP POP POP POP ISZERO DUP1 ISZERO PUSH2 0x4E2D JUMPI RETURNDATASIZE PUSH1 0x0 DUP1 RETURNDATACOPY RETURNDATASIZE PUSH1 0x0 PUSH2 0x4E2A PUSH2 0x6C1F JUMP JUMPDEST POP POP JUMPDEST POP POP POP POP PUSH1 0x40 MLOAD RETURNDATASIZE PUSH1 0x40 DUP2 LT ISZERO PUSH2 0x4E4C JUMPI PUSH1 0x0 DUP1 PUSH2 0x4E49 PUSH2 0x6C1F JUMP JUMPDEST POP POP JUMPDEST DUP2 ADD SWAP1 DUP1 DUP1 MLOAD SWAP3 SWAP2 SWAP1 PUSH1 0x20 ADD DUP1 MLOAD SWAP4 SWAP6 POP SWAP3 SWAP4 POP PUSH1 0x0 SWAP3 POP PUSH2 0x4F1B SWAP2 POP DUP5 SWAP1 POP PUSH2 0x4E74 PUSH2 0x65E1 JUMP JUMPDEST PUSH1 0x1 PUSH1 0x1 PUSH1 0xA0 SHL SUB AND PUSH4 0xEE5F3F5C PUSH1 0x40 MLOAD DUP2 PUSH4 0xFFFFFFFF AND PUSH1 0xE0 SHL DUP2 MSTORE PUSH1 0x4 ADD PUSH1 0x20 PUSH1 0x40 MLOAD DUP1 DUP4 SUB DUP2 DUP7 DUP1 PUSH2 0x4EA7 PUSH2 0x6CE5 JUMP JUMPDEST ISZERO DUP1 ISZERO PUSH2 0x4EBC JUMPI PUSH1 0x0 DUP1 PUSH2 0x4EB9 PUSH2 0x6C1F JUMP JUMPDEST POP POP JUMPDEST POP GAS PUSH2 0x4EC6 PUSH2 0x6D31 JUMP JUMPDEST POP POP POP POP POP ISZERO DUP1 ISZERO PUSH2 0x4EE5 JUMPI RETURNDATASIZE PUSH1 0x0 DUP1 RETURNDATACOPY RETURNDATASIZE PUSH1 0x0 PUSH2 0x4EE2 PUSH2 0x6C1F JUMP JUMPDEST POP POP JUMPDEST POP POP POP POP PUSH1 0x40 MLOAD RETURNDATASIZE PUSH1 0x20 DUP2 LT ISZERO PUSH2 0x4F04 JUMPI PUSH1 0x0 DUP1 PUSH2 0x4F01 PUSH2 0x6C1F JUMP JUMPDEST POP POP JUMPDEST DUP2 ADD SWAP1 DUP1 DUP1 MLOAD SWAP4 SWAP3 POP POP PUSH4 0xFFFFFFFF PUSH2 0x666A AND SWAP1 POP JUMP JUMPDEST SWAP1 POP PUSH2 0x4F2D DUP8 DUP3 PUSH4 0xFFFFFFFF PUSH2 0x3CBC AND JUMP JUMPDEST SWAP7 POP DUP9 DUP1 PUSH2 0x4F38 JUMPI POP DUP2 JUMPDEST SWAP9 POP POP POP POP JUMPDEST PUSH4 0x1CD554D1 PUSH1 0xE2 SHL DUP10 EQ ISZERO PUSH2 0x4F5A JUMPI POP SWAP2 SWAP5 POP PUSH2 0x503A SWAP3 POP POP POP JUMP JUMPDEST PUSH1 0x0 DUP1 DUP3 PUSH1 0x1 PUSH1 0x1 PUSH1 0xA0 SHL SUB AND PUSH4 0xC71CD23 DUP13 PUSH1 0x40 MLOAD PUSH1 0x1 PUSH1 0x1 PUSH1 0xE0 SHL SUB NOT PUSH1 0xE0 DUP5 SWAP1 SHL AND DUP2 MSTORE PUSH1 0x4 DUP2 ADD SWAP2 SWAP1 SWAP2 MSTORE PUSH1 0x24 ADD PUSH1 0x40 DUP1 MLOAD DUP1 DUP4 SUB DUP2 DUP7 DUP1 PUSH2 0x4F9E PUSH2 0x6CE5 JUMP JUMPDEST ISZERO DUP1 ISZERO PUSH2 0x4FB3 JUMPI PUSH1 0x0 DUP1 PUSH2 0x4FB0 PUSH2 0x6C1F JUMP JUMPDEST POP POP JUMPDEST POP GAS PUSH2 0x4FBD PUSH2 0x6D31 JUMP JUMPDEST POP POP POP POP POP ISZERO DUP1 ISZERO PUSH2 0x4FDC JUMPI RETURNDATASIZE PUSH1 0x0 DUP1 RETURNDATACOPY RETURNDATASIZE PUSH1 0x0 PUSH2 0x4FD9 PUSH2 0x6C1F JUMP JUMPDEST POP POP JUMPDEST POP POP POP POP PUSH1 0x40 MLOAD RETURNDATASIZE PUSH1 0x40 DUP2 LT ISZERO PUSH2 0x4FFB JUMPI PUSH1 0x0 DUP1 PUSH2 0x4FF8 PUSH2 0x6C1F JUMP JUMPDEST POP POP JUMPDEST DUP2 ADD SWAP1 DUP1 DUP1 MLOAD SWAP3 SWAP2 SWAP1 PUSH1 0x20 ADD DUP1 MLOAD SWAP4 SWAP6 POP SWAP3 SWAP4 POP PUSH2 0x5025 SWAP3 POP DUP9 SWAP2 POP DUP5 SWAP1 POP PUSH4 0xFFFFFFFF PUSH2 0x4C13 AND JUMP JUMPDEST DUP9 DUP1 PUSH2 0x502E JUMPI POP DUP2 JUMPDEST SWAP9 POP SWAP9 POP POP POP POP POP POP POP POP JUMPDEST SWAP3 POP SWAP3 SWAP1 POP JUMP JUMPDEST PUSH1 0x0 DUP2 DUP2 MSTORE PUSH1 0x6 PUSH1 0x20 MSTORE PUSH1 0x40 DUP2 KECCAK256 PUSH1 0x0 SWAP1 PUSH2 0x505A PUSH2 0x6C8A JUMP JUMPDEST SWAP1 PUSH2 0x100 EXP SWAP1 DIV PUSH1 0x1 PUSH1 0x1 PUSH1 0xA0 SHL SUB AND PUSH1 0x1 PUSH1 0x1 PUSH1 0xA0 SHL SUB AND EQ PUSH2 0x1A5F JUMPI PUSH1 0x40 MLOAD PUSH3 0x461BCD PUSH1 0xE5 SHL DUP2 MSTORE PUSH1 0x20 PUSH1 0x4 DUP3 ADD MSTORE PUSH1 0xC PUSH1 0x24 DUP3 ADD MSTORE PUSH12 0x53796E746820657869737473 PUSH1 0xA0 SHL PUSH1 0x44 DUP3 ADD MSTORE PUSH1 0x64 ADD PUSH1 0x40 MLOAD DUP1 SWAP2 SUB SWAP1 PUSH2 0x1A45 PUSH2 0x6C1F JUMP JUMPDEST PUSH1 0x0 PUSH2 0x1623 PUSH9 0x22BC31B430B733B2B9 PUSH1 0xB9 SHL PUSH1 0x40 MLOAD PUSH1 0x40 DUP1 DUP3 ADD SWAP1 MSTORE PUSH1 0x19 DUP2 MSTORE PUSH32 0x4D697373696E672045786368616E676572206164647265737300000000000000 PUSH1 0x20 DUP3 ADD MSTORE PUSH2 0x6494 JUMP JUMPDEST PUSH1 0x0 DUP4 MLOAD SWAP1 POP DUP3 MLOAD DUP2 EQ PUSH2 0x5167 JUMPI PUSH1 0x40 MLOAD PUSH3 0x461BCD PUSH1 0xE5 SHL DUP2 MSTORE PUSH1 0x20 PUSH1 0x4 DUP3 ADD MSTORE PUSH1 0x1A PUSH1 0x24 DUP3 ADD MSTORE PUSH32 0x496E707574206172726179206C656E6774687320646966666572000000000000 PUSH1 0x44 DUP3 ADD MSTORE PUSH1 0x64 ADD PUSH1 0x40 MLOAD DUP1 SWAP2 SUB SWAP1 PUSH2 0x5164 PUSH2 0x6C1F JUMP JUMPDEST POP POP JUMPDEST PUSH1 0x0 PUSH2 0x5171 PUSH2 0x3923 JUMP JUMPDEST SWAP1 POP PUSH1 0x60 DUP2 PUSH1 0x1 PUSH1 0x1 PUSH1 0xA0 SHL SUB AND PUSH4 0xB67FA7ED PUSH6 0x24B9B9BAB2B9 PUSH1 0xD1 SHL DUP9 PUSH1 0x40 MLOAD DUP4 PUSH4 0xFFFFFFFF AND PUSH1 0xE0 SHL DUP2 MSTORE PUSH1 0x4 ADD DUP1 DUP4 DUP2 MSTORE PUSH1 0x20 ADD DUP1 PUSH1 0x20 ADD DUP3 DUP2 SUB DUP3 MSTORE DUP4 DUP2 DUP2 MLOAD DUP2 MSTORE PUSH1 0x20 ADD SWAP2 POP DUP1 MLOAD SWAP1 PUSH1 0x20 ADD SWAP1 PUSH1 0x20 MUL DUP1 DUP4 DUP4 PUSH1 0x0 JUMPDEST DUP4 DUP2 LT ISZERO PUSH2 0x51E4 JUMPI DUP1 DUP3 ADD MLOAD DUP4 DUP3 ADD MSTORE PUSH1 0x20 ADD PUSH2 0x51CC JUMP JUMPDEST POP POP POP POP SWAP1 POP ADD SWAP4 POP POP POP POP PUSH1 0x0 PUSH1 0x40 MLOAD DUP1 DUP4 SUB DUP2 DUP7 DUP1 PUSH2 0x5203 PUSH2 0x6CE5 JUMP JUMPDEST ISZERO DUP1 ISZERO PUSH2 0x5218 JUMPI PUSH1 0x0 DUP1 PUSH2 0x5215 PUSH2 0x6C1F JUMP JUMPDEST POP POP JUMPDEST POP GAS PUSH2 0x5222 PUSH2 0x6D31 JUMP JUMPDEST POP POP POP POP POP ISZERO DUP1 ISZERO PUSH2 0x5241 JUMPI RETURNDATASIZE PUSH1 0x0 DUP1 RETURNDATACOPY RETURNDATASIZE PUSH1 0x0 PUSH2 0x523E PUSH2 0x6C1F JUMP JUMPDEST POP POP JUMPDEST POP POP POP POP PUSH1 0x40 MLOAD RETURNDATASIZE PUSH1 0x0 DUP3 RETURNDATACOPY PUSH1 0x1F RETURNDATASIZE SWAP1 DUP2 ADD PUSH1 0x1F NOT AND DUP3 ADD PUSH1 0x40 MSTORE PUSH1 0x20 DUP2 LT ISZERO PUSH2 0x5273 JUMPI PUSH1 0x0 DUP1 PUSH2 0x5270 PUSH2 0x6C1F JUMP JUMPDEST POP POP JUMPDEST DUP2 ADD SWAP1 DUP1 DUP1 MLOAD PUSH1 0x40 MLOAD SWAP4 SWAP3 SWAP2 SWAP1 DUP5 PUSH1 0x1 PUSH1 0x20 SHL DUP3 GT ISZERO PUSH2 0x529B JUMPI PUSH1 0x0 DUP1 PUSH2 0x5298 PUSH2 0x6C1F JUMP JUMPDEST POP POP JUMPDEST SWAP1 DUP4 ADD SWAP1 PUSH1 0x20 DUP3 ADD DUP6 DUP2 GT ISZERO PUSH2 0x52B9 JUMPI PUSH1 0x0 DUP1 PUSH2 0x52B6 PUSH2 0x6C1F JUMP JUMPDEST POP POP JUMPDEST DUP3 MLOAD DUP7 PUSH1 0x20 DUP3 MUL DUP4 ADD GT PUSH1 0x1 PUSH1 0x20 SHL DUP3 GT OR ISZERO PUSH2 0x52DE JUMPI PUSH1 0x0 DUP1 PUSH2 0x52DB PUSH2 0x6C1F JUMP JUMPDEST POP POP JUMPDEST DUP3 MSTORE POP PUSH1 0x20 ADD SWAP1 DUP1 MLOAD SWAP1 PUSH1 0x20 ADD SWAP1 PUSH1 0x20 MUL DUP1 DUP4 DUP4 PUSH1 0x0 JUMPDEST DUP4 DUP2 LT ISZERO PUSH2 0x530D JUMPI DUP1 DUP3 ADD MLOAD DUP4 DUP3 ADD MSTORE PUSH1 0x20 ADD PUSH2 0x52F5 JUMP JUMPDEST POP POP POP POP SWAP1 POP ADD PUSH1 0x40 MSTORE POP POP POP SWAP1 POP PUSH1 0x60 PUSH2 0x5328 DUP8 DUP8 PUSH2 0x465E JUMP JUMPDEST SWAP1 POP DUP3 PUSH1 0x1 PUSH1 0x1 PUSH1 0xA0 SHL SUB AND PUSH4 0x3CDC017 PUSH6 0x24B9B9BAB2B9 PUSH1 0xD1 SHL DUP10 DUP5 PUSH1 0x40 MLOAD DUP5 PUSH4 0xFFFFFFFF AND PUSH1 0xE0 SHL DUP2 MSTORE PUSH1 0x4 ADD DUP1 DUP5 DUP2 MSTORE PUSH1 0x20 ADD DUP1 PUSH1 0x20 ADD DUP1 PUSH1 0x20 ADD DUP4 DUP2 SUB DUP4 MSTORE DUP6 DUP2 DUP2 MLOAD DUP2 MSTORE PUSH1 0x20 ADD SWAP2 POP DUP1 MLOAD SWAP1 PUSH1 0x20 ADD SWAP1 PUSH1 0x20 MUL DUP1 DUP4 DUP4 PUSH1 0x0 JUMPDEST DUP4 DUP2 LT ISZERO PUSH2 0x539E JUMPI DUP1 DUP3 ADD MLOAD DUP4 DUP3 ADD MSTORE PUSH1 0x20 ADD PUSH2 0x5386 JUMP JUMPDEST POP POP POP POP SWAP1 POP ADD DUP4 DUP2 SUB DUP3 MSTORE DUP5 DUP2 DUP2 MLOAD DUP2 MSTORE PUSH1 0x20 ADD SWAP2 POP DUP1 MLOAD SWAP1 PUSH1 0x20 ADD SWAP1 PUSH1 0x20 MUL DUP1 DUP4 DUP4 PUSH1 0x0 JUMPDEST DUP4 DUP2 LT ISZERO PUSH2 0x53DD JUMPI DUP1 DUP3 ADD MLOAD DUP4 DUP3 ADD MSTORE PUSH1 0x20 ADD PUSH2 0x53C5 JUMP JUMPDEST POP POP POP POP SWAP1 POP ADD SWAP6 POP POP POP POP POP POP PUSH1 0x0 PUSH1 0x40 MLOAD DUP1 DUP4 SUB DUP2 PUSH1 0x0 DUP8 DUP1 PUSH2 0x5400 PUSH2 0x6CE5 JUMP JUMPDEST ISZERO DUP1 ISZERO PUSH2 0x5415 JUMPI PUSH1 0x0 DUP1 PUSH2 0x5412 PUSH2 0x6C1F JUMP JUMPDEST POP POP JUMPDEST POP GAS PUSH2 0x541F PUSH2 0x6EB2 JUMP JUMPDEST POP POP POP POP POP POP ISZERO DUP1 ISZERO PUSH2 0x543F JUMPI RETURNDATASIZE PUSH1 0x0 DUP1 RETURNDATACOPY RETURNDATASIZE PUSH1 0x0 PUSH2 0x543C PUSH2 0x6C1F JUMP JUMPDEST POP POP JUMPDEST POP POP POP POP PUSH1 0x0 DUP1 PUSH1 0x0 DUP1 SWAP1 POP JUMPDEST DUP7 DUP2 LT ISZERO PUSH2 0x5493 JUMPI PUSH2 0x5478 DUP6 DUP3 DUP2 MLOAD DUP2 LT PUSH2 0x5463 JUMPI INVALID JUMPDEST PUSH1 0x20 MUL PUSH1 0x20 ADD ADD MLOAD DUP5 SWAP1 PUSH4 0xFFFFFFFF PUSH2 0x3CBC AND JUMP JUMPDEST SWAP3 POP PUSH2 0x5489 DUP5 DUP3 DUP2 MLOAD DUP2 LT PUSH2 0x11DF JUMPI INVALID JUMPDEST SWAP2 POP PUSH1 0x1 ADD PUSH2 0x544C JUMP JUMPDEST POP DUP1 DUP3 EQ PUSH2 0x56C0 JUMPI PUSH1 0x0 DUP6 PUSH1 0x1 PUSH1 0x1 PUSH1 0xA0 SHL SUB AND PUSH4 0x23257C2B PUSH6 0x24B9B9BAB2B9 PUSH1 0xD1 SHL PUSH19 0x18D858DA195914D396125CDCDD59591119589D PUSH1 0x6A SHL PUSH1 0x40 MLOAD PUSH1 0x1 PUSH1 0x1 PUSH1 0xE0 SHL SUB NOT PUSH1 0xE0 DUP6 SWAP1 SHL AND DUP2 MSTORE PUSH1 0x4 DUP2 ADD SWAP3 SWAP1 SWAP3 MSTORE PUSH1 0x24 DUP3 ADD MSTORE PUSH1 0x44 ADD PUSH1 0x20 PUSH1 0x40 MLOAD DUP1 DUP4 SUB DUP2 DUP7 DUP1 PUSH2 0x5504 PUSH2 0x6CE5 JUMP JUMPDEST ISZERO DUP1 ISZERO PUSH2 0x5519 JUMPI PUSH1 0x0 DUP1 PUSH2 0x5516 PUSH2 0x6C1F JUMP JUMPDEST POP POP JUMPDEST POP GAS PUSH2 0x5523 PUSH2 0x6D31 JUMP JUMPDEST POP POP POP POP POP ISZERO DUP1 ISZERO PUSH2 0x5542 JUMPI RETURNDATASIZE PUSH1 0x0 DUP1 RETURNDATACOPY RETURNDATASIZE PUSH1 0x0 PUSH2 0x553F PUSH2 0x6C1F JUMP JUMPDEST POP POP JUMPDEST POP POP POP POP PUSH1 0x40 MLOAD RETURNDATASIZE PUSH1 0x20 DUP2 LT ISZERO PUSH2 0x5561 JUMPI PUSH1 0x0 DUP1 PUSH2 0x555E PUSH2 0x6C1F JUMP JUMPDEST POP POP JUMPDEST DUP2 ADD SWAP1 DUP1 DUP1 MLOAD SWAP4 POP POP POP POP DUP1 DUP4 GT ISZERO PUSH2 0x55B4 JUMPI PUSH1 0x40 MLOAD PUSH3 0x461BCD PUSH1 0xE5 SHL DUP2 MSTORE PUSH1 0x4 ADD DUP1 DUP1 PUSH1 0x20 ADD DUP3 DUP2 SUB DUP3 MSTORE PUSH1 0x23 DUP2 MSTORE PUSH1 0x20 ADD DUP1 PUSH2 0x7118 PUSH1 0x23 SWAP2 CODECOPY PUSH1 0x40 ADD SWAP2 POP POP PUSH1 0x40 MLOAD DUP1 SWAP2 SUB SWAP1 PUSH2 0x55B1 PUSH2 0x6C1F JUMP JUMPDEST POP POP JUMPDEST PUSH2 0x55D4 DUP3 PUSH2 0x55C8 DUP4 DUP7 PUSH4 0xFFFFFFFF PUSH2 0x4C28 AND JUMP JUMPDEST SWAP1 PUSH4 0xFFFFFFFF PUSH2 0x3CBC AND JUMP JUMPDEST SWAP1 POP DUP6 PUSH1 0x1 PUSH1 0x1 PUSH1 0xA0 SHL SUB AND PUSH4 0x1D5B277F PUSH6 0x24B9B9BAB2B9 PUSH1 0xD1 SHL PUSH19 0x18D858DA195914D396125CDCDD59591119589D PUSH1 0x6A SHL DUP5 PUSH1 0x40 MLOAD PUSH1 0x1 PUSH1 0x1 PUSH1 0xE0 SHL SUB NOT PUSH1 0xE0 DUP7 SWAP1 SHL AND DUP2 MSTORE PUSH1 0x4 DUP2 ADD SWAP4 SWAP1 SWAP4 MSTORE PUSH1 0x24 DUP4 ADD SWAP2 SWAP1 SWAP2 MSTORE PUSH1 0x44 DUP3 ADD MSTORE PUSH1 0x64 ADD PUSH1 0x0 PUSH1 0x40 MLOAD DUP1 DUP4 SUB DUP2 PUSH1 0x0 DUP8 DUP1 PUSH2 0x5648 PUSH2 0x6CE5 JUMP JUMPDEST ISZERO DUP1 ISZERO PUSH2 0x565D JUMPI PUSH1 0x0 DUP1 PUSH2 0x565A PUSH2 0x6C1F JUMP JUMPDEST POP POP JUMPDEST POP GAS PUSH2 0x5667 PUSH2 0x6EB2 JUMP JUMPDEST POP POP POP POP POP POP ISZERO DUP1 ISZERO PUSH2 0x5687 JUMPI RETURNDATASIZE PUSH1 0x0 DUP1 RETURNDATACOPY RETURNDATASIZE PUSH1 0x0 PUSH2 0x5684 PUSH2 0x6C1F JUMP JUMPDEST POP POP JUMPDEST POP POP POP POP PUSH32 0x294A7C394E53042C7D754779562747D93B41DB019DD4B970DD9B531DB71BE599 DUP2 PUSH1 0x40 MLOAD SWAP1 DUP2 MSTORE PUSH1 0x20 ADD PUSH1 0x40 MLOAD DUP1 SWAP2 SUB SWAP1 LOG1 POP JUMPDEST DUP7 ISZERO PUSH2 0x42AA JUMPI PUSH2 0x42AA DUP6 DUP9 PUSH2 0x3974 JUMP JUMPDEST PUSH1 0x0 DUP1 PUSH1 0x0 PUSH2 0x56DE DUP5 PUSH2 0x572A JUMP JUMPDEST SWAP1 POP PUSH1 0x0 DUP1 PUSH2 0x56F3 DUP7 PUSH3 0xA69CB PUSH1 0xEB SHL PUSH2 0x491B JUMP JUMPDEST SWAP3 POP POP SWAP2 POP DUP3 PUSH1 0x0 EQ ISZERO PUSH2 0x570F JUMPI PUSH1 0x0 SWAP5 POP SWAP3 POP PUSH2 0x185C SWAP2 POP POP JUMP JUMPDEST PUSH2 0x571F DUP3 DUP5 PUSH4 0xFFFFFFFF PUSH2 0x4C13 AND JUMP JUMPDEST SWAP5 POP SWAP3 POP POP POP SWAP2 POP SWAP2 JUMP JUMPDEST PUSH1 0x0 DUP1 PUSH2 0x5735 PUSH2 0x5CEC JUMP JUMPDEST PUSH1 0x1 PUSH1 0x1 PUSH1 0xA0 SHL SUB AND PUSH4 0x70A08231 DUP5 PUSH1 0x40 MLOAD PUSH1 0x1 PUSH1 0x1 PUSH1 0xE0 SHL SUB NOT PUSH1 0xE0 DUP5 SWAP1 SHL AND DUP2 MSTORE PUSH1 0x1 PUSH1 0x1 PUSH1 0xA0 SHL SUB SWAP1 SWAP2 AND PUSH1 0x4 DUP3 ADD MSTORE PUSH1 0x24 ADD PUSH1 0x20 PUSH1 0x40 MLOAD DUP1 DUP4 SUB DUP2 DUP7 DUP1 PUSH2 0x577E PUSH2 0x6CE5 JUMP JUMPDEST ISZERO DUP1 ISZERO PUSH2 0x5793 JUMPI PUSH1 0x0 DUP1 PUSH2 0x5790 PUSH2 0x6C1F JUMP JUMPDEST POP POP JUMPDEST POP GAS PUSH2 0x579D PUSH2 0x6D31 JUMP JUMPDEST POP POP POP POP POP ISZERO DUP1 ISZERO PUSH2 0x57BC JUMPI RETURNDATASIZE PUSH1 0x0 DUP1 RETURNDATACOPY RETURNDATASIZE PUSH1 0x0 PUSH2 0x57B9 PUSH2 0x6C1F JUMP JUMPDEST POP POP JUMPDEST POP POP POP POP PUSH1 0x40 MLOAD RETURNDATASIZE PUSH1 0x20 DUP2 LT ISZERO PUSH2 0x57DB JUMPI PUSH1 0x0 DUP1 PUSH2 0x57D8 PUSH2 0x6C1F JUMP JUMPDEST POP POP JUMPDEST DUP2 ADD SWAP1 DUP1 DUP1 MLOAD SWAP4 POP PUSH1 0x0 SWAP3 POP PUSH2 0x57F3 SWAP2 POP PUSH2 0x6721 SWAP1 POP JUMP JUMPDEST PUSH1 0x1 PUSH1 0x1 PUSH1 0xA0 SHL SUB AND EQ PUSH2 0x58CC JUMPI PUSH2 0x58C9 PUSH2 0x580C PUSH2 0x6721 JUMP JUMPDEST PUSH1 0x1 PUSH1 0x1 PUSH1 0xA0 SHL SUB AND PUSH4 0x70A08231 DUP6 PUSH1 0x40 MLOAD PUSH1 0x1 PUSH1 0x1 PUSH1 0xE0 SHL SUB NOT PUSH1 0xE0 DUP5 SWAP1 SHL AND DUP2 MSTORE PUSH1 0x1 PUSH1 0x1 PUSH1 0xA0 SHL SUB SWAP1 SWAP2 AND PUSH1 0x4 DUP3 ADD MSTORE PUSH1 0x24 ADD PUSH1 0x20 PUSH1 0x40 MLOAD DUP1 DUP4 SUB DUP2 DUP7 DUP1 PUSH2 0x5855 PUSH2 0x6CE5 JUMP JUMPDEST ISZERO DUP1 ISZERO PUSH2 0x586A JUMPI PUSH1 0x0 DUP1 PUSH2 0x5867 PUSH2 0x6C1F JUMP JUMPDEST POP POP JUMPDEST POP GAS PUSH2 0x5874 PUSH2 0x6D31 JUMP JUMPDEST POP POP POP POP POP ISZERO DUP1 ISZERO PUSH2 0x5893 JUMPI RETURNDATASIZE PUSH1 0x0 DUP1 RETURNDATACOPY RETURNDATASIZE PUSH1 0x0 PUSH2 0x5890 PUSH2 0x6C1F JUMP JUMPDEST POP POP JUMPDEST POP POP POP POP PUSH1 0x40 MLOAD RETURNDATASIZE PUSH1 0x20 DUP2 LT ISZERO PUSH2 0x58B2 JUMPI PUSH1 0x0 DUP1 PUSH2 0x58AF PUSH2 0x6C1F JUMP JUMPDEST POP POP JUMPDEST DUP2 ADD SWAP1 DUP1 DUP1 MLOAD DUP6 SWAP4 POP SWAP2 POP POP PUSH4 0xFFFFFFFF PUSH2 0x3CBC AND JUMP JUMPDEST SWAP1 POP JUMPDEST PUSH1 0x0 PUSH2 0x58D6 PUSH2 0x6772 JUMP JUMPDEST PUSH1 0x1 PUSH1 0x1 PUSH1 0xA0 SHL SUB AND EQ PUSH2 0x1C03 JUMPI PUSH2 0x3D1E PUSH2 0x580C PUSH2 0x6772 JUMP JUMPDEST PUSH1 0x0 PUSH2 0x1623 PUSH12 0x4C69717569646174696F6E73 PUSH1 0xA0 SHL PUSH1 0x40 MLOAD PUSH1 0x40 DUP1 DUP3 ADD SWAP1 MSTORE PUSH1 0x1C DUP2 MSTORE PUSH32 0x4D697373696E67204C69717569646174696F6E73206164647265737300000000 PUSH1 0x20 DUP3 ADD MSTORE PUSH2 0x6494 JUMP JUMPDEST DUP1 ISZERO PUSH2 0x1A5F JUMPI PUSH1 0x40 MLOAD PUSH3 0x461BCD PUSH1 0xE5 SHL DUP2 MSTORE PUSH1 0x20 PUSH1 0x4 DUP3 ADD MSTORE PUSH1 0x1E PUSH1 0x24 DUP3 ADD MSTORE PUSH32 0x412073796E7468206F7220534E58207261746520697320696E76616C69640000 PUSH1 0x44 DUP3 ADD MSTORE PUSH1 0x64 ADD PUSH1 0x40 MLOAD DUP1 SWAP2 SUB SWAP1 PUSH2 0x1A45 PUSH2 0x6C1F JUMP JUMPDEST PUSH1 0x0 PUSH2 0x3D1E DUP4 DUP4 PUSH4 0xFFFFFFFF PUSH2 0x666A AND JUMP JUMPDEST PUSH1 0x0 PUSH2 0x3D1E DUP4 DUP4 PUSH4 0xFFFFFFFF PUSH2 0x4C13 AND JUMP JUMPDEST PUSH1 0x0 PUSH8 0xDE0B6B3A7640000 PUSH2 0x59D4 DUP5 DUP5 PUSH4 0xFFFFFFFF PUSH2 0x67C0 AND JUMP JUMPDEST DUP2 PUSH2 0x59DB JUMPI INVALID JUMPDEST DIV SWAP4 SWAP3 POP POP POP JUMP JUMPDEST PUSH1 0x0 PUSH2 0x3D1E DUP3 PUSH2 0x5A01 DUP6 PUSH8 0xDE0B6B3A7640000 PUSH4 0xFFFFFFFF PUSH2 0x67C0 AND JUMP JUMPDEST SWAP1 PUSH4 0xFFFFFFFF PUSH2 0x681F AND JUMP JUMPDEST PUSH1 0x0 DUP4 DUP4 LT PUSH2 0x5A1C JUMPI DUP4 PUSH2 0x5A1E JUMP JUMPDEST DUP3 JUMPDEST SWAP1 POP PUSH2 0x5A2C DUP7 DUP3 DUP6 DUP6 PUSH2 0x6891 JUMP JUMPDEST PUSH4 0x1CD554D1 PUSH1 0xE2 SHL PUSH1 0x0 SWAP1 DUP2 MSTORE PUSH1 0x6 PUSH1 0x20 MSTORE PUSH1 0x40 SWAP1 KECCAK256 PUSH1 0x0 SWAP1 PUSH2 0x5A4D PUSH2 0x6C8A JUMP JUMPDEST SWAP1 PUSH2 0x100 EXP SWAP1 DIV PUSH1 0x1 PUSH1 0x1 PUSH1 0xA0 SHL SUB AND PUSH1 0x1 PUSH1 0x1 PUSH1 0xA0 SHL SUB AND PUSH4 0x9DC29FAC DUP7 DUP4 PUSH1 0x40 MLOAD PUSH1 0x1 PUSH1 0x1 PUSH1 0xE0 SHL SUB NOT PUSH1 0xE0 DUP6 SWAP1 SHL AND DUP2 MSTORE PUSH1 0x1 PUSH1 0x1 PUSH1 0xA0 SHL SUB SWAP1 SWAP3 AND PUSH1 0x4 DUP4 ADD MSTORE PUSH1 0x24 DUP3 ADD MSTORE PUSH1 0x44 ADD PUSH1 0x0 PUSH1 0x40 MLOAD DUP1 DUP4 SUB DUP2 PUSH1 0x0 DUP8 DUP1 PUSH2 0x5AAE PUSH2 0x6CE5 JUMP JUMPDEST ISZERO DUP1 ISZERO PUSH2 0x5AC3 JUMPI PUSH1 0x0 DUP1 PUSH2 0x5AC0 PUSH2 0x6C1F JUMP JUMPDEST POP POP JUMPDEST POP GAS PUSH2 0x5ACD PUSH2 0x6EB2 JUMP JUMPDEST POP POP POP POP POP POP ISZERO DUP1 ISZERO PUSH2 0x5AED JUMPI RETURNDATASIZE PUSH1 0x0 DUP1 RETURNDATACOPY RETURNDATASIZE PUSH1 0x0 PUSH2 0x5AEA PUSH2 0x6C1F JUMP JUMPDEST POP POP JUMPDEST POP POP POP POP PUSH2 0x5B3B PUSH4 0x1CD554D1 PUSH1 0xE2 SHL PUSH20 0x0 PUSH4 0x907AF6C0 PUSH1 0x40 MLOAD DUP2 PUSH4 0xFFFFFFFF AND PUSH1 0xE0 SHL DUP2 MSTORE PUSH1 0x4 ADD PUSH1 0x20 PUSH1 0x40 MLOAD DUP1 DUP4 SUB DUP2 DUP7 DUP1 PUSH2 0x369D PUSH2 0x6CE5 JUMP JUMPDEST PUSH2 0x5B44 DUP7 PUSH2 0x632D JUMP JUMPDEST SWAP6 SWAP5 POP POP POP POP POP JUMP JUMPDEST PUSH1 0x0 PUSH2 0x5B57 PUSH2 0x3923 JUMP JUMPDEST PUSH1 0x1 PUSH1 0x1 PUSH1 0xA0 SHL SUB AND PUSH4 0x23257C2B PUSH14 0x53797374656D53657474696E6773 PUSH1 0x90 SHL PUSH21 0x64656274536E617073686F745374616C6554696D65 PUSH1 0x58 SHL PUSH1 0x40 MLOAD PUSH1 0x1 PUSH1 0x1 PUSH1 0xE0 SHL SUB NOT PUSH1 0xE0 DUP6 SWAP1 SHL AND DUP2 MSTORE PUSH1 0x4 DUP2 ADD SWAP3 SWAP1 SWAP3 MSTORE PUSH1 0x24 DUP3 ADD MSTORE PUSH1 0x44 ADD PUSH1 0x20 PUSH1 0x40 MLOAD DUP1 DUP4 SUB DUP2 DUP7 DUP1 PUSH2 0x3D9A PUSH2 0x6CE5 JUMP JUMPDEST PUSH1 0x0 PUSH2 0x5BDD PUSH2 0x5BD4 PUSH2 0x3D25 JUMP JUMPDEST PUSH2 0x55C8 DUP5 PUSH2 0x5C3E JUMP JUMPDEST GAS PUSH2 0x5BE6 PUSH2 0x6E6C JUMP JUMPDEST LT ISZERO SWAP3 SWAP2 POP POP JUMP JUMPDEST PUSH1 0x0 PUSH2 0x1623 PUSH14 0x53796E7468657469785374617465 PUSH1 0x90 SHL PUSH1 0x40 MLOAD PUSH1 0x40 DUP1 DUP3 ADD SWAP1 MSTORE PUSH1 0x1E DUP2 MSTORE PUSH32 0x4D697373696E672053796E746865746978537461746520616464726573730000 PUSH1 0x20 DUP3 ADD MSTORE PUSH2 0x6494 JUMP JUMPDEST PUSH1 0x0 PUSH2 0x5C48 PUSH2 0x3923 JUMP JUMPDEST PUSH1 0x1 PUSH1 0x1 PUSH1 0xA0 SHL SUB AND PUSH4 0x23257C2B PUSH6 0x24B9B9BAB2B9 PUSH1 0xD1 SHL PUSH14 0x1B185CDD125CDCDD59515D995B9D PUSH1 0x92 SHL DUP6 PUSH1 0x40 MLOAD PUSH1 0x20 ADD DUP1 DUP4 DUP2 MSTORE PUSH1 0x20 ADD DUP3 PUSH1 0x1 PUSH1 0x1 PUSH1 0xA0 SHL SUB AND PUSH1 0x1 PUSH1 0x1 PUSH1 0xA0 SHL SUB AND PUSH1 0x60 SHL DUP2 MSTORE PUSH1 0x14 ADD SWAP3 POP POP POP PUSH1 0x40 MLOAD PUSH1 0x20 DUP2 DUP4 SUB SUB DUP2 MSTORE SWAP1 PUSH1 0x40 MSTORE DUP1 MLOAD SWAP1 PUSH1 0x20 ADD KECCAK256 PUSH1 0x40 MLOAD PUSH1 0x1 PUSH1 0x1 PUSH1 0xE0 SHL SUB NOT PUSH1 0xE0 DUP6 SWAP1 SHL AND DUP2 MSTORE PUSH1 0x4 DUP2 ADD SWAP3 SWAP1 SWAP3 MSTORE PUSH1 0x24 DUP3 ADD MSTORE PUSH1 0x44 ADD PUSH1 0x20 PUSH1 0x40 MLOAD DUP1 DUP4 SUB DUP2 DUP7 DUP1 PUSH2 0x45A3 PUSH2 0x6CE5 JUMP JUMPDEST PUSH1 0x0 PUSH2 0x1623 PUSH9 0xA6F2DCE8D0CAE8D2F PUSH1 0xBB SHL PUSH1 0x40 MLOAD PUSH1 0x40 DUP1 DUP3 ADD SWAP1 MSTORE PUSH1 0x19 DUP2 MSTORE PUSH32 0x4D697373696E672053796E746865746978206164647265737300000000000000 PUSH1 0x20 DUP3 ADD MSTORE PUSH2 0x6494 JUMP JUMPDEST PUSH1 0x0 PUSH2 0x5D41 PUSH2 0x5BEE JUMP JUMPDEST SWAP1 POP PUSH1 0x0 PUSH2 0x5D55 DUP6 DUP5 PUSH4 0xFFFFFFFF PUSH2 0x3CBC AND JUMP JUMPDEST SWAP1 POP PUSH1 0x0 PUSH2 0x5D69 DUP7 DUP4 PUSH4 0xFFFFFFFF PUSH2 0x667F AND JUMP JUMPDEST SWAP1 POP PUSH1 0x0 PUSH2 0x5E24 DUP3 PUSH20 0x0 PUSH4 0xD5E5E6E6 PUSH1 0x40 MLOAD DUP2 PUSH4 0xFFFFFFFF AND PUSH1 0xE0 SHL DUP2 MSTORE PUSH1 0x4 ADD PUSH1 0x20 PUSH1 0x40 MLOAD DUP1 DUP4 SUB DUP2 DUP7 DUP1 PUSH2 0x5DB0 PUSH2 0x6CE5 JUMP JUMPDEST ISZERO DUP1 ISZERO PUSH2 0x5DC5 JUMPI PUSH1 0x0 DUP1 PUSH2 0x5DC2 PUSH2 0x6C1F JUMP JUMPDEST POP POP JUMPDEST POP GAS PUSH2 0x5DCF PUSH2 0x6FB1 JUMP JUMPDEST POP POP POP POP POP ISZERO DUP1 ISZERO PUSH2 0x5DEE JUMPI RETURNDATASIZE PUSH1 0x0 DUP1 RETURNDATACOPY RETURNDATASIZE PUSH1 0x0 PUSH2 0x5DEB PUSH2 0x6C1F JUMP JUMPDEST POP POP JUMPDEST POP POP POP POP PUSH1 0x40 MLOAD RETURNDATASIZE PUSH1 0x20 DUP2 LT ISZERO PUSH2 0x5E0D JUMPI PUSH1 0x0 DUP1 PUSH2 0x5E0A PUSH2 0x6C1F JUMP JUMPDEST POP POP JUMPDEST DUP2 ADD SWAP1 DUP1 DUP1 MLOAD SWAP4 SWAP3 POP POP PUSH4 0xFFFFFFFF PUSH2 0x4C28 AND SWAP1 POP JUMP JUMPDEST SWAP1 POP DUP6 ISZERO PUSH2 0x5E53 JUMPI PUSH2 0x5E4C DUP4 PUSH2 0x5E40 DUP10 DUP10 PUSH4 0xFFFFFFFF PUSH2 0x3CBC AND JUMP JUMPDEST SWAP1 PUSH4 0xFFFFFFFF PUSH2 0x667F AND JUMP JUMPDEST SWAP2 POP PUSH2 0x5ECD JUMP JUMPDEST DUP4 PUSH1 0x1 PUSH1 0x1 PUSH1 0xA0 SHL SUB AND PUSH4 0x1BFBA595 PUSH1 0x40 MLOAD DUP2 PUSH4 0xFFFFFFFF AND PUSH1 0xE0 SHL DUP2 MSTORE PUSH1 0x4 ADD PUSH1 0x0 PUSH1 0x40 MLOAD DUP1 DUP4 SUB DUP2 PUSH1 0x0 DUP8 DUP1 PUSH2 0x5E89 PUSH2 0x6CE5 JUMP JUMPDEST ISZERO DUP1 ISZERO PUSH2 0x5E9E JUMPI PUSH1 0x0 DUP1 PUSH2 0x5E9B PUSH2 0x6C1F JUMP JUMPDEST POP POP JUMPDEST POP GAS PUSH2 0x5EA8 PUSH2 0x6EB2 JUMP JUMPDEST POP POP POP POP POP POP ISZERO DUP1 ISZERO PUSH2 0x5EC8 JUMPI RETURNDATASIZE PUSH1 0x0 DUP1 RETURNDATACOPY RETURNDATASIZE PUSH1 0x0 PUSH2 0x5EC5 PUSH2 0x6C1F JUMP JUMPDEST POP POP JUMPDEST POP POP POP POP JUMPDEST DUP4 PUSH1 0x1 PUSH1 0x1 PUSH1 0xA0 SHL SUB AND PUSH4 0xA764EB45 DUP10 DUP5 PUSH1 0x40 MLOAD PUSH1 0x1 PUSH1 0x1 PUSH1 0xE0 SHL SUB NOT PUSH1 0xE0 DUP6 SWAP1 SHL AND DUP2 MSTORE PUSH1 0x1 PUSH1 0x1 PUSH1 0xA0 SHL SUB SWAP1 SWAP3 AND PUSH1 0x4 DUP4 ADD MSTORE PUSH1 0x24 DUP3 ADD MSTORE PUSH1 0x44 ADD PUSH1 0x0 PUSH1 0x40 MLOAD DUP1 DUP4 SUB DUP2 PUSH1 0x0 DUP8 DUP1 PUSH2 0x5F1F PUSH2 0x6CE5 JUMP JUMPDEST ISZERO DUP1 ISZERO PUSH2 0x5F34 JUMPI PUSH1 0x0 DUP1 PUSH2 0x5F31 PUSH2 0x6C1F JUMP JUMPDEST POP POP JUMPDEST POP GAS PUSH2 0x5F3E PUSH2 0x6EB2 JUMP JUMPDEST POP POP POP POP POP POP ISZERO DUP1 ISZERO PUSH2 0x5F5E JUMPI RETURNDATASIZE PUSH1 0x0 DUP1 RETURNDATACOPY RETURNDATASIZE PUSH1 0x0 PUSH2 0x5F5B PUSH2 0x6C1F JUMP JUMPDEST POP POP JUMPDEST POP POP POP POP PUSH1 0x0 DUP5 PUSH1 0x1 PUSH1 0x1 PUSH1 0xA0 SHL SUB AND PUSH4 0xCD92EBA9 PUSH1 0x40 MLOAD DUP2 PUSH4 0xFFFFFFFF AND PUSH1 0xE0 SHL DUP2 MSTORE PUSH1 0x4 ADD PUSH1 0x20 PUSH1 0x40 MLOAD DUP1 DUP4 SUB DUP2 DUP7 DUP1 PUSH2 0x5F98 PUSH2 0x6CE5 JUMP JUMPDEST ISZERO DUP1 ISZERO PUSH2 0x5FAD JUMPI PUSH1 0x0 DUP1 PUSH2 0x5FAA PUSH2 0x6C1F JUMP JUMPDEST POP POP JUMPDEST POP GAS PUSH2 0x5FB7 PUSH2 0x6D31 JUMP JUMPDEST POP POP POP POP POP ISZERO DUP1 ISZERO PUSH2 0x5FD6 JUMPI RETURNDATASIZE PUSH1 0x0 DUP1 RETURNDATACOPY RETURNDATASIZE PUSH1 0x0 PUSH2 0x5FD3 PUSH2 0x6C1F JUMP JUMPDEST POP POP JUMPDEST POP POP POP POP PUSH1 0x40 MLOAD RETURNDATASIZE PUSH1 0x20 DUP2 LT ISZERO PUSH2 0x5FF5 JUMPI PUSH1 0x0 DUP1 PUSH2 0x5FF2 PUSH2 0x6C1F JUMP JUMPDEST POP POP JUMPDEST DUP2 ADD SWAP1 DUP1 DUP1 MLOAD SWAP4 SWAP1 SWAP4 GT ISZERO SWAP3 POP PUSH2 0x6137 SWAP2 POP POP JUMPI PUSH1 0x1 PUSH1 0x1 PUSH1 0xA0 SHL SUB DUP5 AND PUSH4 0x3D31E97B PUSH2 0x60BB DUP4 DUP4 PUSH4 0x46317712 PUSH1 0x40 MLOAD DUP2 PUSH4 0xFFFFFFFF AND PUSH1 0xE0 SHL DUP2 MSTORE PUSH1 0x4 ADD PUSH1 0x20 PUSH1 0x40 MLOAD DUP1 DUP4 SUB DUP2 DUP7 DUP1 PUSH2 0x6047 PUSH2 0x6CE5 JUMP JUMPDEST ISZERO DUP1 ISZERO PUSH2 0x605C JUMPI PUSH1 0x0 DUP1 PUSH2 0x6059 PUSH2 0x6C1F JUMP JUMPDEST POP POP JUMPDEST POP GAS PUSH2 0x6066 PUSH2 0x6D31 JUMP JUMPDEST POP POP POP POP POP ISZERO DUP1 ISZERO PUSH2 0x6085 JUMPI RETURNDATASIZE PUSH1 0x0 DUP1 RETURNDATACOPY RETURNDATASIZE PUSH1 0x0 PUSH2 0x6082 PUSH2 0x6C1F JUMP JUMPDEST POP POP JUMPDEST POP POP POP POP PUSH1 0x40 MLOAD RETURNDATASIZE PUSH1 0x20 DUP2 LT ISZERO PUSH2 0x60A4 JUMPI PUSH1 0x0 DUP1 PUSH2 0x60A1 PUSH2 0x6C1F JUMP JUMPDEST POP POP JUMPDEST DUP2 ADD SWAP1 DUP1 DUP1 MLOAD SWAP4 SWAP3 POP POP PUSH4 0xFFFFFFFF PUSH2 0x6698 AND SWAP1 POP JUMP JUMPDEST PUSH1 0x40 MLOAD PUSH1 0x1 PUSH1 0x1 PUSH1 0xE0 SHL SUB NOT PUSH1 0xE0 DUP5 SWAP1 SHL AND DUP2 MSTORE PUSH1 0x4 DUP2 ADD SWAP2 SWAP1 SWAP2 MSTORE PUSH1 0x24 ADD PUSH1 0x0 PUSH1 0x40 MLOAD DUP1 DUP4 SUB DUP2 PUSH1 0x0 DUP8 DUP1 PUSH2 0x60EF PUSH2 0x6CE5 JUMP JUMPDEST ISZERO DUP1 ISZERO PUSH2 0x6104 JUMPI PUSH1 0x0 DUP1 PUSH2 0x6101 PUSH2 0x6C1F JUMP JUMPDEST POP POP JUMPDEST POP GAS PUSH2 0x610E PUSH2 0x6EB2 JUMP JUMPDEST POP POP POP POP POP POP ISZERO DUP1 ISZERO PUSH2 0x612E JUMPI RETURNDATASIZE PUSH1 0x0 DUP1 RETURNDATACOPY RETURNDATASIZE PUSH1 0x0 PUSH2 0x612B PUSH2 0x6C1F JUMP JUMPDEST POP POP JUMPDEST POP POP POP POP PUSH2 0x15BB JUMP JUMPDEST DUP4 PUSH1 0x1 PUSH1 0x1 PUSH1 0xA0 SHL SUB AND PUSH4 0x3D31E97B PUSH20 0x0 PUSH4 0xD5E5E6E6 PUSH1 0x40 MLOAD DUP2 PUSH4 0xFFFFFFFF AND PUSH1 0xE0 SHL DUP2 MSTORE PUSH1 0x4 ADD PUSH1 0x20 PUSH1 0x40 MLOAD DUP1 DUP4 SUB DUP2 DUP7 DUP1 PUSH2 0x6185 PUSH2 0x6CE5 JUMP JUMPDEST ISZERO DUP1 ISZERO PUSH2 0x619A JUMPI PUSH1 0x0 DUP1 PUSH2 0x6197 PUSH2 0x6C1F JUMP JUMPDEST POP POP JUMPDEST POP GAS PUSH2 0x61A4 PUSH2 0x6FB1 JUMP JUMPDEST POP POP POP POP POP ISZERO DUP1 ISZERO PUSH2 0x61C3 JUMPI RETURNDATASIZE PUSH1 0x0 DUP1 RETURNDATACOPY RETURNDATASIZE PUSH1 0x0 PUSH2 0x61C0 PUSH2 0x6C1F JUMP JUMPDEST POP POP JUMPDEST POP POP POP POP PUSH1 0x40 MLOAD RETURNDATASIZE PUSH1 0x20 DUP2 LT ISZERO PUSH2 0x61E2 JUMPI PUSH1 0x0 DUP1 PUSH2 0x61DF PUSH2 0x6C1F JUMP JUMPDEST POP POP JUMPDEST DUP2 ADD SWAP1 DUP1 DUP1 MLOAD SWAP3 POP PUSH1 0x40 SWAP2 POP POP MLOAD PUSH1 0x1 PUSH1 0x1 PUSH1 0xE0 SHL SUB NOT PUSH1 0xE0 DUP5 SWAP1 SHL AND DUP2 MSTORE PUSH1 0x4 DUP2 ADD SWAP2 SWAP1 SWAP2 MSTORE PUSH1 0x24 ADD PUSH1 0x0 PUSH1 0x40 MLOAD DUP1 DUP4 SUB DUP2 PUSH1 0x0 DUP8 DUP1 PUSH2 0x6221 PUSH2 0x6CE5 JUMP JUMPDEST ISZERO DUP1 ISZERO PUSH2 0x6236 JUMPI PUSH1 0x0 DUP1 PUSH2 0x6233 PUSH2 0x6C1F JUMP JUMPDEST POP POP JUMPDEST POP GAS PUSH2 0x6240 PUSH2 0x6EB2 JUMP JUMPDEST POP POP POP POP POP POP ISZERO DUP1 ISZERO PUSH2 0x6260 JUMPI RETURNDATASIZE PUSH1 0x0 DUP1 RETURNDATACOPY RETURNDATASIZE PUSH1 0x0 PUSH2 0x625D PUSH2 0x6C1F JUMP JUMPDEST POP POP JUMPDEST POP POP POP POP POP POP POP POP POP POP POP POP JUMP JUMPDEST PUSH2 0x6276 PUSH2 0x3923 JUMP JUMPDEST PUSH1 0x1 PUSH1 0x1 PUSH1 0xA0 SHL SUB AND PUSH4 0x1D5B277F PUSH6 0x24B9B9BAB2B9 PUSH1 0xD1 SHL PUSH14 0x1B185CDD125CDCDD59515D995B9D PUSH1 0x92 SHL DUP5 PUSH1 0x40 MLOAD PUSH1 0x20 ADD DUP1 DUP4 DUP2 MSTORE PUSH1 0x20 ADD DUP3 PUSH1 0x1 PUSH1 0x1 PUSH1 0xA0 SHL SUB AND PUSH1 0x1 PUSH1 0x1 PUSH1 0xA0 SHL SUB AND PUSH1 0x60 SHL DUP2 MSTORE PUSH1 0x14 ADD SWAP3 POP POP POP PUSH1 0x40 MLOAD PUSH1 0x20 DUP2 DUP4 SUB SUB DUP2 MSTORE SWAP1 PUSH1 0x40 MSTORE DUP1 MLOAD SWAP1 PUSH1 0x20 ADD KECCAK256 GAS PUSH2 0x62EC PUSH2 0x6E6C JUMP JUMPDEST PUSH1 0x40 MLOAD PUSH1 0x1 PUSH1 0x1 PUSH1 0xE0 SHL SUB NOT PUSH1 0xE0 DUP7 SWAP1 SHL AND DUP2 MSTORE PUSH1 0x4 DUP2 ADD SWAP4 SWAP1 SWAP4 MSTORE PUSH1 0x24 DUP4 ADD SWAP2 SWAP1 SWAP2 MSTORE PUSH1 0x44 DUP3 ADD MSTORE PUSH1 0x64 ADD PUSH1 0x0 PUSH1 0x40 MLOAD DUP1 DUP4 SUB DUP2 PUSH1 0x0 DUP8 DUP1 PUSH2 0x2224 PUSH2 0x6CE5 JUMP JUMPDEST PUSH1 0x0 DUP1 PUSH2 0x6338 PUSH2 0x5BEE JUMP JUMPDEST PUSH1 0x1 PUSH1 0x1 PUSH1 0xA0 SHL SUB AND PUSH4 0x8B3F8088 DUP5 PUSH1 0x40 MLOAD PUSH1 0x1 PUSH1 0x1 PUSH1 0xE0 SHL SUB NOT PUSH1 0xE0 DUP5 SWAP1 SHL AND DUP2 MSTORE PUSH1 0x1 PUSH1 0x1 PUSH1 0xA0 SHL SUB SWAP1 SWAP2 AND PUSH1 0x4 DUP3 ADD MSTORE PUSH1 0x24 ADD PUSH1 0x40 DUP1 MLOAD DUP1 DUP4 SUB DUP2 DUP7 DUP1 PUSH2 0x6380 PUSH2 0x6CE5 JUMP JUMPDEST ISZERO DUP1 ISZERO PUSH2 0x6395 JUMPI PUSH1 0x0 DUP1 PUSH2 0x6392 PUSH2 0x6C1F JUMP JUMPDEST POP POP JUMPDEST POP GAS PUSH2 0x639F PUSH2 0x6D31 JUMP JUMPDEST POP POP POP POP POP ISZERO DUP1 ISZERO PUSH2 0x63BE JUMPI RETURNDATASIZE PUSH1 0x0 DUP1 RETURNDATACOPY RETURNDATASIZE PUSH1 0x0 PUSH2 0x63BB PUSH2 0x6C1F JUMP JUMPDEST POP POP JUMPDEST POP POP POP POP PUSH1 0x40 MLOAD RETURNDATASIZE PUSH1 0x40 DUP2 LT ISZERO PUSH2 0x63DD JUMPI PUSH1 0x0 DUP1 PUSH2 0x63DA PUSH2 0x6C1F JUMP JUMPDEST POP POP JUMPDEST DUP2 ADD SWAP1 DUP1 DUP1 MLOAD SWAP3 SWAP2 SWAP1 PUSH1 0x20 ADD DUP1 MLOAD SWAP4 SWAP6 POP SWAP3 SWAP4 POP PUSH2 0x63FE SWAP3 POP PUSH2 0x6BAB SWAP2 POP POP JUMP JUMPDEST PUSH1 0x1 PUSH1 0x1 PUSH1 0xA0 SHL SUB AND PUSH4 0x86645274 DUP5 DUP5 DUP5 PUSH1 0x40 MLOAD PUSH1 0x1 PUSH1 0x1 PUSH1 0xE0 SHL SUB NOT PUSH1 0xE0 DUP7 SWAP1 SHL AND DUP2 MSTORE PUSH1 0x1 PUSH1 0x1 PUSH1 0xA0 SHL SUB SWAP1 SWAP4 AND PUSH1 0x4 DUP5 ADD MSTORE PUSH1 0x24 DUP4 ADD SWAP2 SWAP1 SWAP2 MSTORE PUSH1 0x44 DUP3 ADD MSTORE PUSH1 0x64 ADD PUSH1 0x0 PUSH1 0x40 MLOAD DUP1 DUP4 SUB DUP2 PUSH1 0x0 DUP8 DUP1 PUSH2 0x6458 PUSH2 0x6CE5 JUMP JUMPDEST ISZERO DUP1 ISZERO PUSH2 0x646D JUMPI PUSH1 0x0 DUP1 PUSH2 0x646A PUSH2 0x6C1F JUMP JUMPDEST POP POP JUMPDEST POP GAS PUSH2 0x6477 PUSH2 0x6EB2 JUMP JUMPDEST POP POP POP POP POP POP ISZERO DUP1 ISZERO PUSH2 0x2260 JUMPI RETURNDATASIZE PUSH1 0x0 DUP1 RETURNDATACOPY RETURNDATASIZE PUSH1 0x0 PUSH2 0x42AA PUSH2 0x6C1F JUMP JUMPDEST PUSH1 0x0 DUP3 DUP2 MSTORE PUSH1 0x3 PUSH1 0x20 MSTORE DUP1 PUSH1 0x40 DUP2 KECCAK256 PUSH1 0x0 SWAP1 PUSH2 0x64AE PUSH2 0x6C8A JUMP JUMPDEST PUSH1 0x1 PUSH1 0x1 PUSH1 0xA0 SHL SUB PUSH2 0x100 SWAP3 SWAP1 SWAP3 EXP SWAP1 DIV AND SWAP1 POP DUP3 DUP2 PUSH2 0x21A7 JUMPI PUSH1 0x40 MLOAD PUSH3 0x461BCD PUSH1 0xE5 SHL DUP2 MSTORE PUSH1 0x4 ADD DUP1 DUP1 PUSH1 0x20 ADD DUP3 DUP2 SUB DUP3 MSTORE DUP4 DUP2 DUP2 MLOAD DUP2 MSTORE PUSH1 0x20 ADD SWAP2 POP DUP1 MLOAD SWAP1 PUSH1 0x20 ADD SWAP1 DUP1 DUP4 DUP4 PUSH1 0x0 JUMPDEST DUP4 DUP2 LT ISZERO PUSH2 0x6511 JUMPI DUP1 DUP3 ADD MLOAD DUP4 DUP3 ADD MSTORE PUSH1 0x20 ADD PUSH2 0x64F9 JUMP JUMPDEST POP POP POP POP SWAP1 POP SWAP1 DUP2 ADD SWAP1 PUSH1 0x1F AND DUP1 ISZERO PUSH2 0x653E JUMPI DUP1 DUP3 SUB DUP1 MLOAD PUSH1 0x1 DUP4 PUSH1 0x20 SUB PUSH2 0x100 EXP SUB NOT AND DUP2 MSTORE PUSH1 0x20 ADD SWAP2 POP JUMPDEST POP SWAP3 POP POP POP PUSH1 0x40 MLOAD DUP1 SWAP2 SUB SWAP1 PUSH2 0x6552 PUSH2 0x6C1F JUMP JUMPDEST POP POP POP SWAP1 POP SWAP3 SWAP2 POP POP JUMP JUMPDEST PUSH1 0x0 PUSH2 0x1623 PUSH12 0x53797374656D537461747573 PUSH1 0xA0 SHL PUSH1 0x40 MLOAD PUSH1 0x40 DUP1 DUP3 ADD SWAP1 MSTORE PUSH1 0x1C DUP2 MSTORE PUSH32 0x4D697373696E672053797374656D537461747573206164647265737300000000 PUSH1 0x20 DUP3 ADD MSTORE PUSH2 0x6494 JUMP JUMPDEST PUSH1 0x0 PUSH2 0x1623 PUSH17 0x44656C6567617465417070726F76616C73 PUSH1 0x78 SHL PUSH1 0x40 MLOAD PUSH1 0x60 DUP2 ADD PUSH1 0x40 MSTORE PUSH1 0x21 DUP1 DUP3 MSTORE PUSH2 0x706C PUSH1 0x20 DUP4 ADD CODECOPY PUSH2 0x6494 JUMP JUMPDEST PUSH1 0x0 PUSH2 0x1623 PUSH15 0x115D1A195C90DBDB1B185D195C985B PUSH1 0x8A SHL PUSH1 0x40 MLOAD PUSH1 0x40 DUP1 DUP3 ADD SWAP1 MSTORE PUSH1 0x1F DUP2 MSTORE PUSH32 0x4D697373696E67204574686572436F6C6C61746572616C206164647265737300 PUSH1 0x20 DUP3 ADD MSTORE PUSH2 0x6494 JUMP JUMPDEST PUSH1 0x0 PUSH2 0x1623 PUSH19 0x115D1A195C90DBDB1B185D195C985B1CD554D1 PUSH1 0x6A SHL PUSH1 0x40 MLOAD PUSH1 0x60 DUP2 ADD PUSH1 0x40 MSTORE PUSH1 0x23 DUP1 DUP3 MSTORE PUSH2 0x713B PUSH1 0x20 DUP4 ADD CODECOPY PUSH2 0x6494 JUMP JUMPDEST PUSH1 0x0 PUSH2 0x3D1E DUP4 DUP4 PUSH8 0xDE0B6B3A7640000 PUSH2 0x6BF4 JUMP JUMPDEST PUSH1 0x0 PUSH2 0x3D1E DUP4 DUP4 PUSH12 0x33B2E3C9FD0803CE8000000 PUSH2 0x66E9 JUMP JUMPDEST PUSH1 0x0 PUSH2 0x3D1E DUP4 DUP4 PUSH12 0x33B2E3C9FD0803CE8000000 PUSH2 0x6BF4 JUMP JUMPDEST PUSH1 0x0 PUSH2 0x1C03 DUP3 PUSH4 0x3B9ACA00 PUSH4 0xFFFFFFFF PUSH2 0x67C0 AND JUMP JUMPDEST PUSH1 0x0 PUSH4 0x5F5E100 DUP3 DIV PUSH1 0x5 PUSH1 0xA DUP3 MOD LT PUSH2 0x66DF JUMPI PUSH1 0xA ADD JUMPDEST PUSH1 0xA SWAP1 DIV SWAP3 SWAP2 POP POP JUMP JUMPDEST PUSH1 0x0 DUP1 PUSH2 0x6703 DUP5 PUSH2 0x5A01 DUP8 PUSH1 0xA DUP8 MUL PUSH4 0xFFFFFFFF PUSH2 0x67C0 AND JUMP JUMPDEST SWAP1 POP PUSH1 0x5 PUSH1 0xA DUP3 JUMPDEST MOD LT PUSH2 0x6715 JUMPI PUSH1 0xA ADD JUMPDEST PUSH1 0xA SWAP1 DIV SWAP5 SWAP4 POP POP POP POP JUMP JUMPDEST PUSH1 0x0 PUSH2 0x1623 PUSH15 0x53796E746865746978457363726F77 PUSH1 0x88 SHL PUSH1 0x40 MLOAD PUSH1 0x40 DUP1 DUP3 ADD SWAP1 MSTORE PUSH1 0x1F DUP2 MSTORE PUSH32 0x4D697373696E672053796E746865746978457363726F77206164647265737300 PUSH1 0x20 DUP3 ADD MSTORE PUSH2 0x6494 JUMP JUMPDEST PUSH1 0x0 PUSH2 0x1623 PUSH12 0x526577617264457363726F77 PUSH1 0xA0 SHL PUSH1 0x40 MLOAD PUSH1 0x40 DUP1 DUP3 ADD SWAP1 MSTORE PUSH1 0x1C DUP2 MSTORE PUSH32 0x4D697373696E6720526577617264457363726F77206164647265737300000000 PUSH1 0x20 DUP3 ADD MSTORE PUSH2 0x6494 JUMP JUMPDEST PUSH1 0x0 DUP3 PUSH2 0x67CF JUMPI POP PUSH1 0x0 PUSH2 0x1C03 JUMP JUMPDEST DUP3 DUP3 MUL DUP3 DUP5 DUP3 DUP2 PUSH2 0x67DC JUMPI INVALID JUMPDEST DIV EQ PUSH2 0x3D1E JUMPI PUSH1 0x40 MLOAD PUSH3 0x461BCD PUSH1 0xE5 SHL DUP2 MSTORE PUSH1 0x4 ADD DUP1 DUP1 PUSH1 0x20 ADD DUP3 DUP2 SUB DUP3 MSTORE PUSH1 0x21 DUP2 MSTORE PUSH1 0x20 ADD DUP1 PUSH2 0x70F7 PUSH1 0x21 SWAP2 CODECOPY PUSH1 0x40 ADD SWAP2 POP POP PUSH1 0x40 MLOAD DUP1 SWAP2 SUB SWAP1 PUSH2 0x3D1B PUSH2 0x6C1F JUMP JUMPDEST PUSH1 0x0 DUP1 DUP3 GT PUSH2 0x687D JUMPI PUSH1 0x40 MLOAD PUSH3 0x461BCD PUSH1 0xE5 SHL DUP2 MSTORE PUSH1 0x20 PUSH1 0x4 DUP3 ADD MSTORE PUSH1 0x1A PUSH1 0x24 DUP3 ADD MSTORE PUSH32 0x536166654D6174683A206469766973696F6E206279207A65726F000000000000 PUSH1 0x44 DUP3 ADD MSTORE PUSH1 0x64 ADD PUSH1 0x40 MLOAD DUP1 SWAP2 SUB SWAP1 PUSH2 0x687A PUSH2 0x6C1F JUMP JUMPDEST POP POP JUMPDEST PUSH1 0x0 DUP3 DUP5 DUP2 PUSH2 0x6888 JUMPI INVALID JUMPDEST DIV SWAP5 SWAP4 POP POP POP POP JUMP JUMPDEST PUSH1 0x0 PUSH2 0x689B PUSH2 0x5BEE JUMP JUMPDEST SWAP1 POP PUSH1 0x0 PUSH2 0x68AF DUP4 DUP7 PUSH4 0xFFFFFFFF PUSH2 0x4C28 AND JUMP JUMPDEST SWAP1 POP PUSH1 0x0 DUP2 ISZERO PUSH2 0x6914 JUMPI PUSH1 0x0 PUSH2 0x68CB DUP8 DUP5 PUSH4 0xFFFFFFFF PUSH2 0x667F AND JUMP JUMPDEST SWAP1 POP PUSH2 0x6910 DUP2 PUSH20 0x0 PUSH4 0xD5E5E6E6 PUSH1 0x40 MLOAD DUP2 PUSH4 0xFFFFFFFF AND PUSH1 0xE0 SHL DUP2 MSTORE PUSH1 0x4 ADD PUSH1 0x20 PUSH1 0x40 MLOAD DUP1 DUP4 SUB DUP2 DUP7 DUP1 PUSH2 0x2DEA PUSH2 0x6CE5 JUMP JUMPDEST SWAP2 POP POP JUMPDEST DUP5 DUP7 EQ ISZERO PUSH2 0x6A30 JUMPI DUP3 PUSH1 0x1 PUSH1 0x1 PUSH1 0xA0 SHL SUB AND PUSH4 0xA764EB45 DUP9 PUSH1 0x0 PUSH1 0x40 MLOAD PUSH1 0x1 PUSH1 0x1 PUSH1 0xE0 SHL SUB NOT PUSH1 0xE0 DUP6 SWAP1 SHL AND DUP2 MSTORE PUSH1 0x1 PUSH1 0x1 PUSH1 0xA0 SHL SUB SWAP1 SWAP3 AND PUSH1 0x4 DUP4 ADD MSTORE PUSH1 0x24 DUP3 ADD MSTORE PUSH1 0x44 ADD PUSH1 0x0 PUSH1 0x40 MLOAD DUP1 DUP4 SUB DUP2 PUSH1 0x0 DUP8 DUP1 PUSH2 0x696F PUSH2 0x6CE5 JUMP JUMPDEST ISZERO DUP1 ISZERO PUSH2 0x6984 JUMPI PUSH1 0x0 DUP1 PUSH2 0x6981 PUSH2 0x6C1F JUMP JUMPDEST POP POP JUMPDEST POP GAS PUSH2 0x698E PUSH2 0x6EB2 JUMP JUMPDEST POP POP POP POP POP POP ISZERO DUP1 ISZERO PUSH2 0x69AE JUMPI RETURNDATASIZE PUSH1 0x0 DUP1 RETURNDATACOPY RETURNDATASIZE PUSH1 0x0 PUSH2 0x69AB PUSH2 0x6C1F JUMP JUMPDEST POP POP JUMPDEST POP POP POP POP DUP3 PUSH1 0x1 PUSH1 0x1 PUSH1 0xA0 SHL SUB AND PUSH4 0xBA08F299 PUSH1 0x40 MLOAD DUP2 PUSH4 0xFFFFFFFF AND PUSH1 0xE0 SHL DUP2 MSTORE PUSH1 0x4 ADD PUSH1 0x0 PUSH1 0x40 MLOAD DUP1 DUP4 SUB DUP2 PUSH1 0x0 DUP8 DUP1 PUSH2 0x69E8 PUSH2 0x6CE5 JUMP JUMPDEST ISZERO DUP1 ISZERO PUSH2 0x69FD JUMPI PUSH1 0x0 DUP1 PUSH2 0x69FA PUSH2 0x6C1F JUMP JUMPDEST POP POP JUMPDEST POP GAS PUSH2 0x6A07 PUSH2 0x6EB2 JUMP JUMPDEST POP POP POP POP POP POP ISZERO DUP1 ISZERO PUSH2 0x6A27 JUMPI RETURNDATASIZE PUSH1 0x0 DUP1 RETURNDATACOPY RETURNDATASIZE PUSH1 0x0 PUSH2 0x6A24 PUSH2 0x6C1F JUMP JUMPDEST POP POP JUMPDEST POP POP POP POP PUSH2 0x6AF0 JUMP JUMPDEST PUSH1 0x0 PUSH2 0x6A42 DUP7 DUP9 PUSH4 0xFFFFFFFF PUSH2 0x4C28 AND JUMP JUMPDEST SWAP1 POP PUSH1 0x0 PUSH2 0x6A56 DUP3 DUP6 PUSH4 0xFFFFFFFF PUSH2 0x667F AND JUMP JUMPDEST SWAP1 POP DUP5 PUSH1 0x1 PUSH1 0x1 PUSH1 0xA0 SHL SUB AND PUSH4 0xA764EB45 DUP11 DUP4 PUSH1 0x40 MLOAD PUSH1 0x1 PUSH1 0x1 PUSH1 0xE0 SHL SUB NOT PUSH1 0xE0 DUP6 SWAP1 SHL AND DUP2 MSTORE PUSH1 0x1 PUSH1 0x1 PUSH1 0xA0 SHL SUB SWAP1 SWAP3 AND PUSH1 0x4 DUP4 ADD MSTORE PUSH1 0x24 DUP3 ADD MSTORE PUSH1 0x44 ADD PUSH1 0x0 PUSH1 0x40 MLOAD DUP1 DUP4 SUB DUP2 PUSH1 0x0 DUP8 DUP1 PUSH2 0x6AAA PUSH2 0x6CE5 JUMP JUMPDEST ISZERO DUP1 ISZERO PUSH2 0x6ABF JUMPI PUSH1 0x0 DUP1 PUSH2 0x6ABC PUSH2 0x6C1F JUMP JUMPDEST POP POP JUMPDEST POP GAS PUSH2 0x6AC9 PUSH2 0x6EB2 JUMP JUMPDEST POP POP POP POP POP POP ISZERO DUP1 ISZERO PUSH2 0x6AE9 JUMPI RETURNDATASIZE PUSH1 0x0 DUP1 RETURNDATACOPY RETURNDATASIZE PUSH1 0x0 PUSH2 0x6AE6 PUSH2 0x6C1F JUMP JUMPDEST POP POP JUMPDEST POP POP POP POP POP POP JUMPDEST PUSH1 0x1 PUSH1 0x1 PUSH1 0xA0 SHL SUB DUP4 AND PUSH4 0x3D31E97B PUSH2 0x6B2E DUP4 DUP4 PUSH4 0x46317712 PUSH1 0x40 MLOAD DUP2 PUSH4 0xFFFFFFFF AND PUSH1 0xE0 SHL DUP2 MSTORE PUSH1 0x4 ADD PUSH1 0x20 PUSH1 0x40 MLOAD DUP1 DUP4 SUB DUP2 DUP7 DUP1 PUSH2 0x6047 PUSH2 0x6CE5 JUMP JUMPDEST PUSH1 0x40 MLOAD PUSH1 0x1 PUSH1 0x1 PUSH1 0xE0 SHL SUB NOT PUSH1 0xE0 DUP5 SWAP1 SHL AND DUP2 MSTORE PUSH1 0x4 DUP2 ADD SWAP2 SWAP1 SWAP2 MSTORE PUSH1 0x24 ADD PUSH1 0x0 PUSH1 0x40 MLOAD DUP1 DUP4 SUB DUP2 PUSH1 0x0 DUP8 DUP1 PUSH2 0x6B62 PUSH2 0x6CE5 JUMP JUMPDEST ISZERO DUP1 ISZERO PUSH2 0x6B77 JUMPI PUSH1 0x0 DUP1 PUSH2 0x6B74 PUSH2 0x6C1F JUMP JUMPDEST POP POP JUMPDEST POP GAS PUSH2 0x6B81 PUSH2 0x6EB2 JUMP JUMPDEST POP POP POP POP POP POP ISZERO DUP1 ISZERO PUSH2 0x6B9E JUMPI RETURNDATASIZE PUSH1 0x0 DUP1 RETURNDATACOPY RETURNDATASIZE PUSH1 0x0 PUSH2 0x42A5 PUSH2 0x6C1F JUMP JUMPDEST POP POP POP POP POP POP POP POP POP POP POP JUMP JUMPDEST PUSH1 0x0 PUSH2 0x1623 PUSH7 0x119959541BDBDB PUSH1 0xCA SHL PUSH1 0x40 MLOAD PUSH1 0x40 DUP1 DUP3 ADD SWAP1 MSTORE PUSH1 0x17 DUP2 MSTORE PUSH32 0x4D697373696E6720466565506F6F6C2061646472657373000000000000000000 PUSH1 0x20 DUP3 ADD MSTORE PUSH2 0x6494 JUMP JUMPDEST PUSH1 0x0 DUP1 PUSH1 0xA DUP4 DIV PUSH2 0x6C0B DUP7 DUP7 PUSH4 0xFFFFFFFF PUSH2 0x67C0 AND JUMP JUMPDEST DUP2 PUSH2 0x6C12 JUMPI INVALID JUMPDEST DIV SWAP1 POP PUSH1 0x5 PUSH1 0xA DUP3 PUSH2 0x670B JUMP JUMPDEST PUSH4 0x2A2A7ADB MSIZE DUP2 PUSH1 0xE0 SHL DUP2 MSTORE PUSH1 0x4 DUP2 ADD PUSH1 0x20 DUP2 MSTORE DUP6 PUSH1 0x20 DUP3 ADD MSTORE PUSH1 0x0 JUMPDEST DUP7 DUP2 LT ISZERO PUSH2 0x6C57 JUMPI DUP1 DUP7 ADD MLOAD DUP3 DUP3 ADD PUSH1 0x40 ADD MSTORE PUSH1 0x20 ADD PUSH2 0x6C3C JUMP JUMPDEST POP PUSH1 0x20 DUP3 DUP8 PUSH1 0x64 ADD DUP5 CALLER PUSH1 0x0 SWAP1 GAS CALL PC PUSH1 0xE ADD JUMPI RETURNDATASIZE PUSH1 0x0 DUP1 RETURNDATACOPY RETURNDATASIZE PUSH1 0x0 REVERT JUMPDEST RETURNDATASIZE PUSH1 0x1 EQ ISZERO PC PUSH1 0xA ADD JUMPI PUSH1 0x1 PUSH1 0x0 RETURN JUMPDEST POP POP POP JUMP JUMPDEST PUSH4 0x3DAA959 MSIZE DUP2 PUSH1 0xE0 SHL DUP2 MSTORE DUP4 PUSH1 0x4 DUP3 ADD MSTORE PUSH1 0x20 DUP2 PUSH1 0x24 DUP4 CALLER PUSH1 0x0 SWAP1 GAS CALL PC PUSH1 0xE ADD JUMPI RETURNDATASIZE PUSH1 0x0 DUP1 RETURNDATACOPY RETURNDATASIZE PUSH1 0x0 REVERT JUMPDEST RETURNDATASIZE PUSH1 0x1 EQ ISZERO PC PUSH1 0xA ADD JUMPI PUSH1 0x1 PUSH1 0x0 RETURN JUMPDEST DUP1 MLOAD SWAP4 POP PUSH1 0x0 JUMPDEST PUSH1 0x40 DUP2 LT ISZERO PUSH2 0x1A45 JUMPI PUSH1 0x0 DUP3 DUP3 ADD MSTORE PUSH1 0x20 ADD PUSH2 0x6CCE JUMP JUMPDEST PUSH4 0x8435035B MSIZE DUP2 PUSH1 0xE0 SHL DUP2 MSTORE DUP4 PUSH1 0x4 DUP3 ADD MSTORE PUSH1 0x20 DUP2 PUSH1 0x24 DUP4 CALLER PUSH1 0x0 SWAP1 GAS CALL PC PUSH1 0xE ADD JUMPI RETURNDATASIZE PUSH1 0x0 DUP1 RETURNDATACOPY RETURNDATASIZE PUSH1 0x0 REVERT JUMPDEST RETURNDATASIZE PUSH1 0x1 EQ ISZERO PC PUSH1 0xA ADD JUMPI PUSH1 0x1 PUSH1 0x0 RETURN JUMPDEST DUP1 MLOAD PUSH1 0x0 DUP3 MSTORE SWAP4 POP PUSH1 0x20 PUSH2 0x6CCE JUMP JUMPDEST PUSH4 0x8540661F MSIZE DUP2 PUSH1 0xE0 SHL DUP2 MSTORE DUP4 PUSH1 0x4 DUP3 ADD MSTORE DUP5 PUSH1 0x24 DUP3 ADD MSTORE PUSH1 0x60 PUSH1 0x44 DUP3 ADD MSTORE DUP7 PUSH1 0x64 DUP3 ADD MSTORE PUSH1 0x84 DUP2 ADD PUSH1 0x0 JUMPDEST DUP9 DUP2 LT ISZERO PUSH2 0x6D75 JUMPI DUP1 DUP9 ADD MLOAD DUP3 DUP3 ADD MSTORE PUSH1 0x20 ADD PUSH2 0x6D5D JUMP JUMPDEST POP DUP8 PUSH2 0x104 ADD DUP3 ADD PUSH1 0x60 DUP4 DUP11 PUSH2 0x104 ADD DUP6 CALLER PUSH1 0x0 SWAP1 GAS CALL PC PUSH1 0xE ADD JUMPI RETURNDATASIZE PUSH1 0x0 DUP1 RETURNDATACOPY RETURNDATASIZE PUSH1 0x0 REVERT JUMPDEST RETURNDATASIZE PUSH1 0x1 EQ ISZERO PC PUSH1 0xA ADD JUMPI PUSH1 0x1 PUSH1 0x0 RETURN JUMPDEST DUP3 MLOAD PUSH1 0x40 DUP5 ADD MLOAD RETURNDATASIZE PUSH1 0x0 DUP7 RETURNDATACOPY DUP13 DUP13 DUP3 PUSH1 0x60 DUP9 ADD CALLER POP PUSH1 0x0 PUSH1 0x4 GAS CALL POP MSIZE DUP6 JUMPDEST DUP2 DUP2 LT ISZERO PUSH2 0x6DDE JUMPI PUSH1 0x0 DUP2 MSTORE PUSH1 0x20 ADD PUSH2 0x6DCA JUMP JUMPDEST POP SWAP2 SWAP13 POP POP POP POP POP POP POP JUMP JUMPDEST PUSH4 0x22BD64C0 MSIZE DUP2 PUSH1 0xE0 SHL DUP2 MSTORE DUP4 PUSH1 0x4 DUP3 ADD MSTORE DUP5 PUSH1 0x24 DUP3 ADD MSTORE PUSH1 0x0 DUP2 PUSH1 0x44 DUP4 CALLER PUSH1 0x0 SWAP1 GAS CALL PC PUSH1 0xE ADD JUMPI RETURNDATASIZE PUSH1 0x0 DUP1 RETURNDATACOPY RETURNDATASIZE PUSH1 0x0 REVERT JUMPDEST RETURNDATASIZE PUSH1 0x1 EQ ISZERO PC PUSH1 0xA ADD JUMPI PUSH1 0x1 PUSH1 0x0 RETURN JUMPDEST PUSH1 0x0 DUP2 MSTORE PUSH1 0x20 PUSH2 0x6CCE JUMP JUMPDEST DUP2 PUSH2 0x6E41 PUSH2 0x6C8A JUMP JUMPDEST DUP2 DUP4 PUSH2 0x6E4B PUSH2 0x6DEA JUMP JUMPDEST POP POP DUP2 DUP2 GT ISZERO PUSH2 0x1A45 JUMPI DUP2 DUP4 PUSH1 0x0 MSTORE PUSH1 0x20 PUSH1 0x0 KECCAK256 PUSH2 0x1A45 SWAP3 DUP2 ADD SWAP2 ADD PUSH2 0x7011 JUMP JUMPDEST PUSH4 0xBDBF8C36 MSIZE DUP2 PUSH1 0xE0 SHL DUP2 MSTORE PUSH1 0x20 DUP2 PUSH1 0x4 DUP4 CALLER PUSH1 0x0 SWAP1 GAS CALL PC PUSH1 0xE ADD JUMPI RETURNDATASIZE PUSH1 0x0 DUP1 RETURNDATACOPY RETURNDATASIZE PUSH1 0x0 REVERT JUMPDEST RETURNDATASIZE PUSH1 0x1 EQ ISZERO PC PUSH1 0xA ADD JUMPI PUSH1 0x1 PUSH1 0x0 RETURN JUMPDEST DUP1 MLOAD PUSH1 0x0 DUP3 MSTORE SWAP4 POP PUSH1 0x20 PUSH2 0x6CCE JUMP JUMPDEST PUSH4 0x85979F76 MSIZE DUP2 PUSH1 0xE0 SHL DUP2 MSTORE DUP4 PUSH1 0x4 DUP3 ADD MSTORE DUP5 PUSH1 0x24 DUP3 ADD MSTORE PUSH1 0x60 PUSH1 0x44 DUP3 ADD MSTORE DUP8 PUSH1 0x64 DUP3 ADD MSTORE PUSH1 0x84 DUP2 ADD PUSH1 0x0 JUMPDEST DUP10 DUP2 LT ISZERO PUSH2 0x6EF6 JUMPI DUP1 DUP10 ADD MLOAD DUP3 DUP3 ADD MSTORE PUSH1 0x20 ADD PUSH2 0x6EDE JUMP JUMPDEST POP DUP9 PUSH2 0x104 ADD DUP3 ADD PUSH1 0x60 DUP4 DUP12 PUSH2 0x104 ADD DUP6 CALLER PUSH1 0x0 SWAP1 GAS CALL PC PUSH1 0xE ADD JUMPI RETURNDATASIZE PUSH1 0x0 DUP1 RETURNDATACOPY RETURNDATASIZE PUSH1 0x0 REVERT JUMPDEST RETURNDATASIZE PUSH1 0x1 EQ ISZERO PC PUSH1 0xA ADD JUMPI PUSH1 0x1 PUSH1 0x0 RETURN JUMPDEST DUP3 MLOAD PUSH1 0x40 DUP5 ADD MLOAD RETURNDATASIZE PUSH1 0x0 DUP7 RETURNDATACOPY DUP14 DUP14 DUP3 PUSH1 0x60 DUP9 ADD CALLER POP PUSH1 0x0 PUSH1 0x4 GAS CALL POP MSIZE DUP6 JUMPDEST DUP2 DUP2 LT ISZERO PUSH2 0x6F5F JUMPI PUSH1 0x0 DUP2 MSTORE PUSH1 0x20 ADD PUSH2 0x6F4B JUMP JUMPDEST POP SWAP2 SWAP14 POP POP POP POP POP POP POP JUMP JUMPDEST PUSH4 0x73509064 MSIZE DUP2 PUSH1 0xE0 SHL DUP2 MSTORE PUSH1 0x20 DUP2 PUSH1 0x4 DUP4 CALLER PUSH1 0x0 SWAP1 GAS CALL PC PUSH1 0xE ADD JUMPI RETURNDATASIZE PUSH1 0x0 DUP1 RETURNDATACOPY RETURNDATASIZE PUSH1 0x0 REVERT JUMPDEST RETURNDATASIZE PUSH1 0x1 EQ ISZERO PC PUSH1 0xA ADD JUMPI PUSH1 0x1 PUSH1 0x0 RETURN JUMPDEST DUP1 MLOAD PUSH1 0x0 DUP3 MSTORE SWAP4 POP PUSH1 0x20 PUSH2 0x6CCE JUMP JUMPDEST PUSH4 0xFFE73914 MSIZE DUP2 PUSH1 0xE0 SHL DUP2 MSTORE DUP4 PUSH1 0x4 DUP3 ADD MSTORE DUP5 PUSH1 0x24 DUP3 ADD MSTORE PUSH1 0x60 PUSH1 0x44 DUP3 ADD MSTORE DUP7 PUSH1 0x64 DUP3 ADD MSTORE PUSH1 0x84 DUP2 ADD PUSH1 0x0 DUP9 DUP2 LT ISZERO PUSH2 0x6D75 JUMPI DUP1 DUP9 ADD MLOAD DUP3 DUP3 ADD MSTORE PUSH1 0x20 ADD PUSH2 0x6D5D JUMP JUMPDEST PUSH1 0x40 MLOAD PUSH2 0x300 DUP1 DUP3 ADD PUSH1 0x40 MSTORE PUSH1 0x18 SWAP1 DUP3 SWAP1 DUP1 CODESIZE DUP4 CODECOPY POP SWAP2 SWAP3 SWAP2 POP POP JUMP JUMPDEST PUSH2 0x1626 SWAP2 SWAP1 JUMPDEST DUP1 DUP3 GT ISZERO PUSH2 0x2FF3 JUMPI PUSH1 0x0 DUP1 DUP3 PUSH2 0x702B PUSH2 0x6DEA JUMP JUMPDEST POP POP POP PUSH1 0x1 ADD PUSH2 0x7017 JUMP INVALID MSIZE PUSH16 0x75206D757374206265206E6F6D696E61 PUSH21 0x6564206265666F726520796F752063616E20616363 PUSH6 0x7074206F776E PUSH6 0x72736869704D PUSH10 0x7373696E672044656C65 PUSH8 0x617465417070726F PUSH23 0x616C7320616464726573734973737565723A204F6E6C79 KECCAK256 PUSH21 0x68652073796E74686574697820636F6E7472616374 KECCAK256 PUSH4 0x616E2070 PUSH6 0x72666F726D20 PUSH21 0x68697320616374696F6E4F6E6C792074686520636F PUSH15 0x7472616374206F776E6572206D6179 KECCAK256 PUSH17 0x6572666F726D207468697320616374696F PUSH15 0x536166654D6174683A206D756C7469 PUSH17 0x6C69636174696F6E206F766572666C6F77 NUMBER PUSH2 0x6368 PUSH6 0x642073796E74 PUSH9 0x2073756D2065786365 PUSH6 0x647320746F74 PUSH2 0x6C20 PUSH5 0x6562744D69 PUSH20 0x73696E67204574686572436F6C6C61746572616C PUSH20 0x5553442061646472657373000000000000000000 "
		}
	}
}