{
	"abi": [
		{
			"inputs": [
				{
					"internalType": "address",
					"name": "_owner",
					"type": "address"
				},
				{
					"internalType": "address",
					"name": "_resolver",
					"type": "address"
				}
			],
			"payable": false,
			"stateMutability": "nonpayable",
			"type": "constructor"
		},
		{
			"anonymous": false,
			"inputs": [
				{
					"indexed": false,
					"internalType": "uint256",
					"name": "timestamp",
					"type": "uint256"
				}
			],
			"name": "DebtCacheSynchronised",
			"type": "event"
		},
		{
			"anonymous": false,
			"inputs": [
				{
					"indexed": false,
					"internalType": "uint256",
					"name": "cachedDebt",
					"type": "uint256"
				}
			],
			"name": "DebtCacheUpdated",
			"type": "event"
		},
		{
			"anonymous": false,
			"inputs": [
				{
					"indexed": true,
					"internalType": "bool",
					"name": "isInvalid",
					"type": "bool"
				}
			],
			"name": "DebtCacheValidityChanged",
			"type": "event"
		},
		{
			"anonymous": false,
			"inputs": [
				{
					"indexed": false,
					"internalType": "address",
					"name": "oldOwner",
					"type": "address"
				},
				{
					"indexed": false,
					"internalType": "address",
					"name": "newOwner",
					"type": "address"
				}
			],
			"name": "OwnerChanged",
			"type": "event"
		},
		{
			"anonymous": false,
			"inputs": [
				{
					"indexed": false,
					"internalType": "address",
					"name": "newOwner",
					"type": "address"
				}
			],
			"name": "OwnerNominated",
			"type": "event"
		},
		{
			"anonymous": false,
			"inputs": [
				{
					"indexed": false,
					"internalType": "bytes32",
					"name": "currencyKey",
					"type": "bytes32"
				},
				{
					"indexed": false,
					"internalType": "address",
					"name": "synth",
					"type": "address"
				}
			],
			"name": "SynthAdded",
			"type": "event"
		},
		{
			"anonymous": false,
			"inputs": [
				{
					"indexed": false,
					"internalType": "bytes32",
					"name": "currencyKey",
					"type": "bytes32"
				},
				{
					"indexed": false,
					"internalType": "address",
					"name": "synth",
					"type": "address"
				}
			],
			"name": "SynthRemoved",
			"type": "event"
		},
		{
			"constant": true,
			"inputs": [],
			"name": "CONTRACT_NAME",
			"outputs": [
				{
					"internalType": "bytes32",
					"name": "",
					"type": "bytes32"
				}
			],
			"payable": false,
			"stateMutability": "view",
			"type": "function"
		},
		{
			"constant": true,
			"inputs": [],
			"name": "MAX_ADDRESSES_FROM_RESOLVER",
			"outputs": [
				{
					"internalType": "uint256",
					"name": "",
					"type": "uint256"
				}
			],
			"payable": false,
			"stateMutability": "view",
			"type": "function"
		},
		{
			"constant": false,
			"inputs": [],
			"name": "acceptOwnership",
			"outputs": [],
			"payable": false,
			"stateMutability": "nonpayable",
			"type": "function"
		},
		{
			"constant": false,
			"inputs": [
				{
					"internalType": "contract ISynth",
					"name": "synth",
					"type": "address"
				}
			],
			"name": "addSynth",
			"outputs": [],
			"payable": false,
			"stateMutability": "nonpayable",
			"type": "function"
		},
		{
			"constant": true,
			"inputs": [],
			"name": "anySynthOrSNXRateIsInvalid",
			"outputs": [
				{
					"internalType": "bool",
					"name": "anyRateInvalid",
					"type": "bool"
				}
			],
			"payable": false,
			"stateMutability": "view",
			"type": "function"
		},
		{
			"constant": true,
			"inputs": [],
			"name": "availableCurrencyKeys",
			"outputs": [
				{
					"internalType": "bytes32[]",
					"name": "",
					"type": "bytes32[]"
				}
			],
			"payable": false,
			"stateMutability": "view",
			"type": "function"
		},
		{
			"constant": true,
			"inputs": [],
			"name": "availableSynthCount",
			"outputs": [
				{
					"internalType": "uint256",
					"name": "",
					"type": "uint256"
				}
			],
			"payable": false,
			"stateMutability": "view",
			"type": "function"
		},
		{
			"constant": true,
			"inputs": [
				{
					"internalType": "uint256",
					"name": "",
					"type": "uint256"
				}
			],
			"name": "availableSynths",
			"outputs": [
				{
					"internalType": "contract ISynth",
					"name": "",
					"type": "address"
				}
			],
			"payable": false,
			"stateMutability": "view",
			"type": "function"
		},
		{
			"constant": false,
			"inputs": [
				{
					"internalType": "address",
					"name": "from",
					"type": "address"
				},
				{
					"internalType": "uint256",
					"name": "amount",
					"type": "uint256"
				}
			],
			"name": "burnSynths",
			"outputs": [],
			"payable": false,
			"stateMutability": "nonpayable",
			"type": "function"
		},
		{
			"constant": false,
			"inputs": [
				{
					"internalType": "address",
					"name": "burnForAddress",
					"type": "address"
				},
				{
					"internalType": "address",
					"name": "from",
					"type": "address"
				},
				{
					"internalType": "uint256",
					"name": "amount",
					"type": "uint256"
				}
			],
			"name": "burnSynthsOnBehalf",
			"outputs": [],
			"payable": false,
			"stateMutability": "nonpayable",
			"type": "function"
		},
		{
			"constant": false,
			"inputs": [
				{
					"internalType": "address",
					"name": "from",
					"type": "address"
				}
			],
			"name": "burnSynthsToTarget",
			"outputs": [],
			"payable": false,
			"stateMutability": "nonpayable",
			"type": "function"
		},
		{
			"constant": false,
			"inputs": [
				{
					"internalType": "address",
					"name": "burnForAddress",
					"type": "address"
				},
				{
					"internalType": "address",
					"name": "from",
					"type": "address"
				}
			],
			"name": "burnSynthsToTargetOnBehalf",
			"outputs": [],
			"payable": false,
			"stateMutability": "nonpayable",
			"type": "function"
		},
		{
			"constant": false,
			"inputs": [],
			"name": "cacheSNXIssuedDebt",
			"outputs": [],
			"payable": false,
			"stateMutability": "nonpayable",
			"type": "function"
		},
		{
			"constant": true,
			"inputs": [
				{
					"internalType": "bytes32[]",
					"name": "currencyKeys",
					"type": "bytes32[]"
				}
			],
			"name": "cachedSNXIssuedDebtForCurrencies",
			"outputs": [
				{
					"internalType": "uint256[]",
					"name": "snxIssuedDebts",
					"type": "uint256[]"
				}
			],
			"payable": false,
			"stateMutability": "view",
			"type": "function"
		},
		{
			"constant": true,
			"inputs": [],
			"name": "cachedSNXIssuedDebtInfo",
			"outputs": [
				{
					"internalType": "uint256",
					"name": "cachedDebt",
					"type": "uint256"
				},
				{
					"internalType": "uint256",
					"name": "timestamp",
					"type": "uint256"
				},
				{
					"internalType": "bool",
					"name": "isInvalid",
					"type": "bool"
				}
			],
			"payable": false,
			"stateMutability": "view",
			"type": "function"
		},
		{
			"constant": true,
			"inputs": [
				{
					"internalType": "address",
					"name": "account",
					"type": "address"
				}
			],
			"name": "canBurnSynths",
			"outputs": [
				{
					"internalType": "bool",
					"name": "",
					"type": "bool"
				}
			],
			"payable": false,
			"stateMutability": "view",
			"type": "function"
		},
		{
			"constant": true,
			"inputs": [
				{
					"internalType": "address",
					"name": "account",
					"type": "address"
				}
			],
			"name": "collateral",
			"outputs": [
				{
					"internalType": "uint256",
					"name": "",
					"type": "uint256"
				}
			],
			"payable": false,
			"stateMutability": "view",
			"type": "function"
		},
		{
			"constant": true,
			"inputs": [
				{
					"internalType": "address",
					"name": "_issuer",
					"type": "address"
				}
			],
			"name": "collateralisationRatio",
			"outputs": [
				{
					"internalType": "uint256",
					"name": "cratio",
					"type": "uint256"
				}
			],
			"payable": false,
			"stateMutability": "view",
			"type": "function"
		},
		{
			"constant": true,
			"inputs": [
				{
					"internalType": "address",
					"name": "_issuer",
					"type": "address"
				}
			],
			"name": "collateralisationRatioAndAnyRatesInvalid",
			"outputs": [
				{
					"internalType": "uint256",
					"name": "cratio",
					"type": "uint256"
				},
				{
					"internalType": "bool",
					"name": "anyRateIsInvalid",
					"type": "bool"
				}
			],
			"payable": false,
			"stateMutability": "view",
			"type": "function"
		},
		{
			"constant": true,
			"inputs": [],
			"name": "currentSNXIssuedDebt",
			"outputs": [
				{
					"internalType": "uint256",
					"name": "snxIssuedDebt",
					"type": "uint256"
				},
				{
					"internalType": "bool",
					"name": "anyRateIsInvalid",
					"type": "bool"
				}
			],
			"payable": false,
			"stateMutability": "view",
			"type": "function"
		},
		{
			"constant": true,
			"inputs": [
				{
					"internalType": "bytes32[]",
					"name": "currencyKeys",
					"type": "bytes32[]"
				}
			],
			"name": "currentSNXIssuedDebtForCurrencies",
			"outputs": [
				{
					"internalType": "uint256[]",
					"name": "snxIssuedDebts",
					"type": "uint256[]"
				},
				{
					"internalType": "bool",
					"name": "anyRateIsInvalid",
					"type": "bool"
				}
			],
			"payable": false,
			"stateMutability": "view",
			"type": "function"
		},
		{
			"constant": true,
			"inputs": [
				{
					"internalType": "address",
					"name": "_issuer",
					"type": "address"
				},
				{
					"internalType": "bytes32",
					"name": "currencyKey",
					"type": "bytes32"
				}
			],
			"name": "debtBalanceOf",
			"outputs": [
				{
					"internalType": "uint256",
					"name": "debtBalance",
					"type": "uint256"
				}
			],
			"payable": false,
			"stateMutability": "view",
			"type": "function"
		},
		{
			"constant": true,
			"inputs": [],
			"name": "debtCacheIsStale",
			"outputs": [
				{
					"internalType": "bool",
					"name": "",
					"type": "bool"
				}
			],
			"payable": false,
			"stateMutability": "view",
			"type": "function"
		},
		{
			"constant": true,
			"inputs": [],
			"name": "debtSnapshotStaleTime",
			"outputs": [
				{
					"internalType": "uint256",
					"name": "",
					"type": "uint256"
				}
			],
			"payable": false,
			"stateMutability": "view",
			"type": "function"
		},
		{
			"constant": true,
			"inputs": [],
			"name": "getResolverAddressesRequired",
			"outputs": [
				{
					"internalType": "bytes32[24]",
					"name": "addressesRequired",
					"type": "bytes32[24]"
				}
			],
			"payable": false,
			"stateMutability": "view",
			"type": "function"
		},
		{
			"constant": true,
			"inputs": [
				{
					"internalType": "contract AddressResolver",
					"name": "_resolver",
					"type": "address"
				}
			],
			"name": "isResolverCached",
			"outputs": [
				{
					"internalType": "bool",
					"name": "",
					"type": "bool"
				}
			],
			"payable": false,
			"stateMutability": "view",
			"type": "function"
		},
		{
			"constant": true,
			"inputs": [],
			"name": "issuanceRatio",
			"outputs": [
				{
					"internalType": "uint256",
					"name": "",
					"type": "uint256"
				}
			],
			"payable": false,
			"stateMutability": "view",
			"type": "function"
		},
		{
			"constant": false,
			"inputs": [
				{
					"internalType": "address",
					"name": "from",
					"type": "address"
				}
			],
			"name": "issueMaxSynths",
			"outputs": [],
			"payable": false,
			"stateMutability": "nonpayable",
			"type": "function"
		},
		{
			"constant": false,
			"inputs": [
				{
					"internalType": "address",
					"name": "issueForAddress",
					"type": "address"
				},
				{
					"internalType": "address",
					"name": "from",
					"type": "address"
				}
			],
			"name": "issueMaxSynthsOnBehalf",
			"outputs": [],
			"payable": false,
			"stateMutability": "nonpayable",
			"type": "function"
		},
		{
			"constant": false,
			"inputs": [
				{
					"internalType": "address",
					"name": "from",
					"type": "address"
				},
				{
					"internalType": "uint256",
					"name": "amount",
					"type": "uint256"
				}
			],
			"name": "issueSynths",
			"outputs": [],
			"payable": false,
			"stateMutability": "nonpayable",
			"type": "function"
		},
		{
			"constant": false,
			"inputs": [
				{
					"internalType": "address",
					"name": "issueForAddress",
					"type": "address"
				},
				{
					"internalType": "address",
					"name": "from",
					"type": "address"
				},
				{
					"internalType": "uint256",
					"name": "amount",
					"type": "uint256"
				}
			],
			"name": "issueSynthsOnBehalf",
			"outputs": [],
			"payable": false,
			"stateMutability": "nonpayable",
			"type": "function"
		},
		{
			"constant": true,
			"inputs": [
				{
					"internalType": "address",
					"name": "account",
					"type": "address"
				}
			],
			"name": "lastIssueEvent",
			"outputs": [
				{
					"internalType": "uint256",
					"name": "",
					"type": "uint256"
				}
			],
			"payable": false,
			"stateMutability": "view",
			"type": "function"
		},
		{
			"constant": false,
			"inputs": [
				{
					"internalType": "address",
					"name": "account",
					"type": "address"
				},
				{
					"internalType": "uint256",
					"name": "susdAmount",
					"type": "uint256"
				},
				{
					"internalType": "address",
					"name": "liquidator",
					"type": "address"
				}
			],
			"name": "liquidateDelinquentAccount",
			"outputs": [
				{
					"internalType": "uint256",
					"name": "totalRedeemed",
					"type": "uint256"
				},
				{
					"internalType": "uint256",
					"name": "amountToLiquidate",
					"type": "uint256"
				}
			],
			"payable": false,
			"stateMutability": "nonpayable",
			"type": "function"
		},
		{
			"constant": true,
			"inputs": [
				{
					"internalType": "address",
					"name": "_issuer",
					"type": "address"
				}
			],
			"name": "maxIssuableSynths",
			"outputs": [
				{
					"internalType": "uint256",
					"name": "",
					"type": "uint256"
				}
			],
			"payable": false,
			"stateMutability": "view",
			"type": "function"
		},
		{
			"constant": true,
			"inputs": [],
			"name": "minimumStakeTime",
			"outputs": [
				{
					"internalType": "uint256",
					"name": "",
					"type": "uint256"
				}
			],
			"payable": false,
			"stateMutability": "view",
			"type": "function"
		},
		{
			"constant": false,
			"inputs": [
				{
					"internalType": "address",
					"name": "_owner",
					"type": "address"
				}
			],
			"name": "nominateNewOwner",
			"outputs": [],
			"payable": false,
			"stateMutability": "nonpayable",
			"type": "function"
		},
		{
			"constant": true,
			"inputs": [],
			"name": "nominatedOwner",
			"outputs": [
				{
					"internalType": "address",
					"name": "",
					"type": "address"
				}
			],
			"payable": false,
			"stateMutability": "view",
			"type": "function"
		},
		{
			"constant": true,
			"inputs": [],
			"name": "owner",
			"outputs": [
				{
					"internalType": "address",
					"name": "",
					"type": "address"
				}
			],
			"payable": false,
			"stateMutability": "view",
			"type": "function"
		},
		{
			"constant": false,
			"inputs": [
				{
					"internalType": "bytes32",
					"name": "currencyKey",
					"type": "bytes32"
				}
			],
			"name": "purgeDebtCacheForSynth",
			"outputs": [],
			"payable": false,
			"stateMutability": "nonpayable",
			"type": "function"
		},
		{
			"constant": true,
			"inputs": [
				{
					"internalType": "address",
					"name": "_issuer",
					"type": "address"
				}
			],
			"name": "remainingIssuableSynths",
			"outputs": [
				{
					"internalType": "uint256",
					"name": "maxIssuable",
					"type": "uint256"
				},
				{
					"internalType": "uint256",
					"name": "alreadyIssued",
					"type": "uint256"
				},
				{
					"internalType": "uint256",
					"name": "totalSystemDebt",
					"type": "uint256"
				}
			],
			"payable": false,
			"stateMutability": "view",
			"type": "function"
		},
		{
			"constant": false,
			"inputs": [
				{
					"internalType": "bytes32",
					"name": "currencyKey",
					"type": "bytes32"
				}
			],
			"name": "removeSynth",
			"outputs": [],
			"payable": false,
			"stateMutability": "nonpayable",
			"type": "function"
		},
		{
			"constant": true,
			"inputs": [],
			"name": "resolver",
			"outputs": [
				{
					"internalType": "contract AddressResolver",
					"name": "",
					"type": "address"
				}
			],
			"payable": false,
			"stateMutability": "view",
			"type": "function"
		},
		{
			"constant": true,
			"inputs": [
				{
					"internalType": "uint256",
					"name": "",
					"type": "uint256"
				}
			],
			"name": "resolverAddressesRequired",
			"outputs": [
				{
					"internalType": "bytes32",
					"name": "",
					"type": "bytes32"
				}
			],
			"payable": false,
			"stateMutability": "view",
			"type": "function"
		},
		{
			"constant": false,
			"inputs": [
				{
					"internalType": "contract AddressResolver",
					"name": "_resolver",
					"type": "address"
				}
			],
			"name": "setResolverAndSyncCache",
			"outputs": [],
			"payable": false,
			"stateMutability": "nonpayable",
			"type": "function"
		},
		{
			"constant": true,
			"inputs": [
				{
					"internalType": "bytes32",
					"name": "",
					"type": "bytes32"
				}
			],
			"name": "synths",
			"outputs": [
				{
					"internalType": "contract ISynth",
					"name": "",
					"type": "address"
				}
			],
			"payable": false,
			"stateMutability": "view",
			"type": "function"
		},
		{
			"constant": true,
			"inputs": [
				{
					"internalType": "address",
					"name": "",
					"type": "address"
				}
			],
			"name": "synthsByAddress",
			"outputs": [
				{
					"internalType": "bytes32",
					"name": "",
					"type": "bytes32"
				}
			],
			"payable": false,
			"stateMutability": "view",
			"type": "function"
		},
		{
			"constant": true,
			"inputs": [
				{
					"internalType": "bytes32",
					"name": "currencyKey",
					"type": "bytes32"
				},
				{
					"internalType": "bool",
					"name": "excludeEtherCollateral",
					"type": "bool"
				}
			],
			"name": "totalIssuedSynths",
			"outputs": [
				{
					"internalType": "uint256",
					"name": "totalIssued",
					"type": "uint256"
				}
			],
			"payable": false,
			"stateMutability": "view",
			"type": "function"
		},
		{
			"constant": true,
			"inputs": [
				{
					"internalType": "address",
					"name": "account",
					"type": "address"
				},
				{
					"internalType": "uint256",
					"name": "balance",
					"type": "uint256"
				}
			],
			"name": "transferableSynthetixAndAnyRateIsInvalid",
			"outputs": [
				{
					"internalType": "uint256",
					"name": "transferable",
					"type": "uint256"
				},
				{
					"internalType": "bool",
					"name": "anyRateIsInvalid",
					"type": "bool"
				}
			],
			"payable": false,
			"stateMutability": "view",
			"type": "function"
		},
		{
			"constant": false,
			"inputs": [
				{
					"internalType": "bytes32[]",
					"name": "currencyKeys",
					"type": "bytes32[]"
				}
			],
			"name": "updateSNXIssuedDebtForCurrencies",
			"outputs": [],
			"payable": false,
			"stateMutability": "nonpayable",
			"type": "function"
		},
		{
			"constant": false,
			"inputs": [
				{
					"internalType": "bytes32[2]",
					"name": "currencyKeys",
					"type": "bytes32[2]"
				},
				{
					"internalType": "uint256[2]",
					"name": "currencyRates",
					"type": "uint256[2]"
				}
			],
			"name": "updateSNXIssuedDebtOnExchange",
			"outputs": [],
			"payable": false,
			"stateMutability": "nonpayable",
			"type": "function"
		}
	],
	"evm": {
		"bytecode": {
			"linkReferences": {
				"IssuerWithoutUpdatableCache.sol": {
					"SafeDecimalMath": [
						{
							"length": 20,
							"start": 6771
						},
						{
							"length": 20,
							"start": 12645
						},
						{
							"length": 20,
							"start": 12860
						},
						{
							"length": 20,
							"start": 14382
						},
						{
							"length": 20,
							"start": 22177
						},
						{
							"length": 20,
							"start": 22818
						},
						{
							"length": 20,
							"start": 23799
						},
						{
							"length": 20,
							"start": 27203
						}
					]
				}
			},
			"object": "60806040526040516101a081016040908152680a6f2dce8d0cae8d2f60bb1b82526822bc31b430b733b2b960b91b60208301526c45786368616e6765526174657360981b908201526d53796e746865746978537461746560901b606082015266119959541bdbdb60ca1b60808201527044656c6567617465417070726f76616c7360781b60a08201526e115d1a195c90dbdb1b185d195c985b608a1b60c08201527f4574686572436f6c6c61746572616c735553440000000000000000000000000060e08201526b526577617264457363726f7760a01b6101008201526e53796e746865746978457363726f7760881b6101208201526b4c69717569646174696f6e7360a01b6101408201526e466c657869626c6553746f7261676560881b6101608201526b53797374656d53746174757360a01b6101808201526200014a90600890600d62000608565b5034801562000163576000806200016062000656565b50505b50604051620072ce380380620072ce8339818101604052604081101562000194576000806200019162000656565b50505b8101908080519291906020018051925083915082905080600860186103006040519081016040529190610300830182845b81620001d0620006c3565b81526020019060010190808311620001c557508793505050506001600160a01b0381166200024f5760405162461bcd60e51b815260206004820152601960248201527f4f776e657220616464726573732063616e6e6f742062652030000000000000006044820152606401604051809103906200024c62000656565b50505b8060006001816200025f620006c3565b816001600160a01b0302191690836001600160a01b03160217906200028362000725565b5050507fb532073b38c83145e3e5135377a08bf9aab55bc0fd7c1179cd4fb995d2a5159c6000826040516001600160a01b039283168152911660208201526040908101905180910390a15060008080620002dc620006c3565b906101000a90046001600160a01b03166001600160a01b03161415620003475760405162461bcd60e51b815260206004820152601160248201527013dddb995c881b5d5cdd081899481cd95d607a1b6044820152606401604051809103906200034462000656565b50505b60005b6018811015620003d75760008282601881106200036357fe5b602002015114620003c85760048282601881106200037d57fe5b6020020151908060018162000391620006c3565b0180826200039e62000725565b5050600092835291600019830191506020902091929101620003bf62000725565b505050620003ce565b620003d7565b6001016200034a565b50816002600181620003e8620006c3565b816001600160a01b0302191690836001600160a01b03160217906200040c62000725565b5050505050620004346e466c657869626c6553746f7261676560881b6200043e60201b60201c565b50505050620008ab565b806004806001816200044f620006c3565b0180826200045c62000725565b50506000928352916000198301915060209020919291016200047d62000725565b50505060186004806200048f620006c3565b905010620004ee5760405162461bcd60e51b815260206004820152601b60248201527f4d6178207265736f6c7665722063616368652073697a65206d65740000000000604482015260640160405180910390620004eb62000656565b50505b60006002620004fc620006c3565b906101000a90046001600160a01b03166001600160a01b03166321f8a721826040516001600160e01b031960e084901b168152600481019190915260240160206040518083038186806200054f62000774565b15801562000567576000806200056462000656565b50505b505a62000573620007c1565b505050505015801562000595573d6000803e3d60006200059262000656565b50505b505050506040513d6020811015620005b757600080620005b462000656565b50505b8101908080516000858152600360205290935060409250905020600181620005de620006c3565b816001600160a01b0302191690836001600160a01b03160217906200060262000725565b50505050565b826018810192821562000644579160200282015b8281111562000644578251826200063262000725565b5050916020019190600101906200061c565b50620006529291506200087e565b5090565b632a2a7adb598160e01b8152600481016020815285602082015260005b868110156200069057808601518282016040015260200162000673565b506020828760640184336000905af158600e01573d6000803e3d6000fd5b3d6001141558600a015760016000f35b505050565b6303daa959598160e01b8152836004820152602081602483336000905af158600e01573d6000803e3d6000fd5b3d6001141558600a015760016000f35b8051935060005b6040811015620007205760008282015260200162000707565b505050565b6322bd64c0598160e01b8152836004820152846024820152600081604483336000905af158600e01573d6000803e3d6000fd5b3d6001141558600a015760016000f35b60008152602062000707565b638435035b598160e01b8152836004820152602081602483336000905af158600e01573d6000803e3d6000fd5b3d6001141558600a015760016000f35b8051600082529350602062000707565b638540661f598160e01b8152836004820152846024820152606060448201528660648201526084810160005b8881101562000807578088015182820152602001620007ed565b50876101040182016060838a6101040185336000905af158600e01573d6000803e3d6000fd5b3d6001141558600a015760016000f35b825160408401513d6000863e8c8c82606088013350600060045af15059855b818110156200087257600081526020016200085c565b50919c50505050505050565b620008a891905b808211156200065257600080826200089c62000725565b50505060010162000885565b90565b616a1380620008bb6000396000f3fe6080604052348015610019576000806100166164d4565b50505b50600436106102df5760003560e01c80637b1001b71161018b578063af5355d8116100f2578063c8977132116100ab578063dd3d2b2e11610085578063dd3d2b2e14610bac578063e3235c9114610bdb578063fd864ccf14610be3578063fe1d77e714610c1a576102df565b8063c897713214610b40578063d37c4d8b14610b6f578063dbf6334014610ba4576102df565b8063af5355d814610a9e578063b06e8c6514610aa6578063b410a03414610adb578063be84351514610ae3578063bff4fdfc14610aeb578063c6c9d82814610b1a576102df565b80639e342f71116101445780639e342f7114610950578063a311c7c214610979578063a5fdc5de146109a8578063a63c4df4146109d7578063ab49848c14610a2e578063ae3bbbbb14610a6f576102df565b80637b1001b7146108605780637d74e85d1461088e578063835e119c146108b4578063849cf588146108da5780638da5cb5b146109095780639a5154b414610911576102df565b8063364fb7651161024a5780634e99bda911610203578063631e1444116101dd578063631e1444146107ec5780636bed04151461081b57806372cb051f1461085057806379ba509714610858576102df565b80634e99bda9146107c057806353a47bb7146107dc578063614d08f8146107e4576102df565b8063364fb765146104ef5780633973a2bb1461051d5780633be99e6f1461063e57806344ec6b621461066d578063497d704a146106ac57806349e4c7b7146106db576102df565b806316b2213f1161029c57806316b2213f14610431578063172058f71461046057806321428aa014610468578063242df9e11461048a5780632b3f41aa1461049257806332608039146104c9576102df565b8063042e0688146102ed57806304f3bcec1461032457806305b3c1c9146103485780630b887dae146103895780631137aedf146103af5780631627540c14610402575b6000806102ea6164d4565b50505b6103226004803603604081101561030c576000806103096164d4565b50505b506001600160a01b038135169060200135610cac565b005b61032c610cc4565b6040516001600160a01b03909116815260200160405180910390f35b61037760048036036020811015610367576000806103646164d4565b50505b50356001600160a01b0316610ce3565b60405190815260200160405180910390f35b610322600480360360208110156103a8576000806103a56164d4565b50505b5035610cf9565b6103de600480360360208110156103ce576000806103cb6164d4565b50505b50356001600160a01b03166110e6565b60405180848152602001838152602001828152602001935050505060405180910390f35b610322600480360360208110156104215760008061041e6164d4565b50505b50356001600160a01b0316611102565b610377600480360360208110156104505760008061044d6164d4565b50505b50356001600160a01b031661117c565b610322611197565b610470611337565b604051918252151560208201526040908101905180910390f35b6103776113a0565b610322600480360360408110156104b1576000806104ae6164d4565b50505b506001600160a01b03813581169160200135166113b0565b61032c600480360360208110156104e8576000806104e56164d4565b50505b50356113cf565b6104f76113e9565b604051928352602083019190915215156040808301919091526060909101905180910390f35b6105e26004803603602081101561053c576000806105396164d4565b50505b810190602081018135600160201b81111561055f5760008061055c6164d4565b50505b82018360208201111561057a576000806105776164d4565b50505b803590602001918460208302840111600160201b831117156105a4576000806105a16164d4565b50505b919080806020026020016040519081016040528093929190818152602001838360200280828437600092019190915250929550611422945050505050565b604051811515602082015260408082528190810184818151815260200191508051906020019060200280838360005b83811015610629578082015183820152602001610611565b50505050905001935050505060405180910390f35b6103226004803603602081101561065d5760008061065a6164d4565b50505b50356001600160a01b03166115e8565b6103226004803603606081101561068c576000806106896164d4565b50505b506001600160a01b038135811691602081013590911690604001356117ae565b610322600480360360208110156106cb576000806106c86164d4565b50505b50356001600160a01b03166117d1565b61076d600480360360208110156106fa576000806106f76164d4565b50505b810190602081018135600160201b81111561071d5760008061071a6164d4565b50505b820183602082011115610738576000806107356164d4565b50505b803590602001918460208302840111600160201b831117156107625760008061075f6164d4565b50505b5090925090506117e6565b60405160208082528190810183818151815260200191508051906020019060200280838360005b838110156107ac578082015183820152602001610794565b505050509050019250505060405180910390f35b6107c861198d565b604051901515815260200160405180910390f35b61032c611b3e565b610377611b4a565b6107c86004803603602081101561080b576000806108086164d4565b50505b50356001600160a01b0316611b57565b6104706004803603604081101561083a576000806108376164d4565b50505b506001600160a01b038135169060200135611d31565b61076d611d95565b610322611da1565b6103776004803603604081101561087f5760008061087c6164d4565b50505b50803590602001351515611f1f565b610322600480360360208110156108ad576000806108aa6164d4565b50505b5035611f33565b61032c600480360360208110156108d3576000806108d06164d4565b50505b5035611fee565b610322600480360360208110156108f9576000806108f66164d4565b50505b50356001600160a01b0316612018565b61032c61225f565b610322600480360360608110156109305760008061092d6164d4565b50505b506001600160a01b0381358116916020810135909116906040013561226a565b6103226004803603608081101561096f5760008061096c6164d4565b50505b5060408101610cc0565b61037760048036036020811015610998576000806109956164d4565b50505b50356001600160a01b0316612288565b610377600480360360208110156109c7576000806109c46164d4565b50505b50356001600160a01b031661229a565b610a16600480360360608110156109f6576000806109f36164d4565b50505b506001600160a01b038135811691602081013591604090910135166122a5565b60405191825260208201526040908101905180910390f35b610a36612a92565b604051808261030080838360005b83811015610a5c578082015183820152602001610a44565b5050505090500191505060405180910390f35b61047060048036036020811015610a8e57600080610a8b6164d4565b50505b50356001600160a01b0316612af4565b610377612b09565b61032260048036036040811015610ac557600080610ac26164d4565b50505b506001600160a01b038135169060200135612b13565b610377612b27565b6107c8612b31565b6107c860048036036020811015610b0a57600080610b076164d4565b50505b50356001600160a01b0316612c2a565b61037760048036036020811015610b3957600080610b366164d4565b50505b5035612c35565b61032260048036036020811015610b5f57600080610b5c6164d4565b50505b50356001600160a01b0316612c5d565b61037760048036036040811015610b8e57600080610b8b6164d4565b50505b506001600160a01b038135169060200135612c72565b610377612d65565b61037760048036036020811015610bcb57600080610bc86164d4565b50505b50356001600160a01b0316612d78565b610377612d83565b61032260048036036040811015610c0257600080610bff6164d4565b50505b506001600160a01b0381358116916020013516612d88565b61032260048036036020811015610c3957600080610c366164d4565b50505b810190602081018135600160201b811115610c5c57600080610c596164d4565b50505b820183602082011115610c7757600080610c746164d4565b50505b803590602001918460208302840111600160201b83111715610ca157600080610c9e6164d4565b50505b509092509050610cc0565b610cb4612da7565b610cc082826000612e0e565b5050565b60006002610cd061653f565b906101000a90046001600160a01b031681565b600080610cef83612fb9565b509150505b919050565b610d016130b1565b6000818152600660205260408120600090610d1a61653f565b6001600160a01b036101009290920a900416905080610d7f5760405162461bcd60e51b815260206004820152601460248201527314de5b9d1a08191bd95cc81b9bdd08195e1a5cdd60621b604482015260640160405180910390610d7c6164d4565b50505b806001600160a01b03166318160ddd6040518163ffffffff1660e01b81526004016020604051808303818680610db361659a565b158015610dc857600080610dc56164d4565b50505b505a610dd26165e6565b5050505050158015610df1573d6000803e3d6000610dee6164d4565b50505b505050506040513d6020811015610e1057600080610e0d6164d4565b50505b810190808051159250610e6b9150505760405162461bcd60e51b815260206004820152601360248201527253796e746820737570706c792065786973747360681b604482015260640160405180910390610e686164d4565b50505b631cd554d160e21b821415610ec55760405162461bcd60e51b8152602060048201526013602482015272086c2dcdcdee840e4cadadeecca40e6f2dce8d606b1b604482015260640160405180910390610ec26164d4565b50505b610ed0826000613129565b610ee2610edb6131cf565b6001613220565b60005b600580610ef061653f565b905081101561104957816001600160a01b031660058281610f0f61653f565b8110610f1757fe5b90600052602060002001600090610f2c61653f565b906101000a90046001600160a01b03166001600160a01b031614156110415760058181610f5761653f565b8110610f5f57fe5b90600052602060002001600181610f7461653f565b906001600160a01b0302191690610f8961669f565b505060056001600580610f9a61653f565b90500381610fa661653f565b8110610fae57fe5b90600052602060002001600090610fc361653f565b906101000a90046001600160a01b031660058281610fdf61653f565b8110610fe757fe5b90600052602060002001600181610ffc61653f565b816001600160a01b0302191690836001600160a01b031602179061101e61669f565b50505060058061102c61653f565b9061103b9060001983016166ed565b50611049565b600101610ee5565b506001600160a01b038116600090815260076020526040902060009061106d61669f565b5050600082815260066020526040902060018161108861653f565b906001600160a01b030219169061109d61669f565b50507f6166f5c475cc1cd535c6cdf14a6d5edb811e34117031fc2863392a136eb655d082826040519182526001600160a01b031660208201526040908101905180910390a15050565b60008060006110f48461332d565b509196909550909350915050565b61110a6130b1565b806001808061111761653f565b816001600160a01b0302191690836001600160a01b031602179061113961669f565b5050507f906a1c6bd7e3091ea86693dd029a831c19049ce77f1dce2ce0bab1cacbabce22816040516001600160a01b03909116815260200160405180910390a150565b6007602052806000526040600020905061119461653f565b81565b61119f613395565b60006111a96131cf565b9050611262631cd554d160e21b73__$012b109f13094d29c4767dbda215a49cf7$__63907af6c06040518163ffffffff1660e01b815260040160206040518083038186806111f561659a565b15801561120a576000806112076164d4565b50505b505a611214616721565b5050505050158015611233573d6000803e3d60006112306164d4565b50505b505050506040513d60208110156112525760008061124f6164d4565b50505b8101908080519250613129915050565b806001600160a01b0316631d5b277f6524b9b9bab2b960d11b7f636163686564534e584973737565644465627454696d657374616d70000000005a6112a5616764565b6040516001600160e01b031960e086901b168152600481019390935260248301919091526044820152606401600060405180830381600087806112e661659a565b1580156112fb576000806112f86164d4565b50505b505a6113056167aa565b505050505050158015611325573d6000803e3d60006113226164d4565b50505b50505050611334816000613220565b50565b6000806060600061135061134b600061344e565b611422565b915091506000825190506000805b828110156113945761138a85828151811061137557fe5b6020026020010151839063ffffffff61357016565b915060010161135e565b50945090925050509091565b60006113aa6135d9565b90505b90565b6113b8612da7565b6113c282826136b9565b610cc082600060016137d0565b600660205280600052604060002060009150610cd061653f565b6000806000806113f76131cf565b905060008061140583613b69565b91509150818161141485613de4565b955095509550505050909192565b6060600060606000611432613ec3565b6001600160a01b031663c8e5bbd5866040518263ffffffff1660e01b81526004018080602001828103825283818151815260200191508051906020019060200280838360005b83811015611490578082015183820152602001611478565b505050509050019250505060006040518083038186806114ae61659a565b1580156114c3576000806114c06164d4565b50505b505a6114cd6165e6565b50505050501580156114ec573d6000803e3d60006114e96164d4565b50505b505050506040513d6000823e601f3d908101601f19168201604090815281101561151e5760008061151b6164d4565b50505b8101908080516040519392919084600160201b821115611546576000806115436164d4565b50505b908301906020820185811115611564576000806115616164d4565b50505b82518660208202830111600160201b82111715611589576000806115866164d4565b50505b825250602001908051906020019060200280838360005b838110156115b85780820151838201526020016115a0565b5050505090500160405260200180519395509293506115dd9250879150849050613f12565b93509150505b915091565b6115f06130b1565b8060026001816115fe61653f565b816001600160a01b0302191690836001600160a01b031602179061162061669f565b5060009150505b60048061163261653f565b9050811015610cc05760006004828161164961653f565b811061165157fe5b9060005260206000200161166361653f565b90506000600261167161653f565b906101000a90046001600160a01b03166001600160a01b031663dacb2d01826040516001600160e01b031960e084901b1681526004810191909152604060248201819052601760448301527f5265736f6c766572206d697373696e67207461726765740000000000000000006064830152608490910190602090518083038186806116fa61659a565b15801561170f5760008061170c6164d4565b50505b505a6117196165e6565b5050505050158015611738573d6000803e3d60006117356164d4565b50505b505050506040513d6020811015611757576000806117546164d4565b50505b810190808051600085815260036020529093506040925090502060018161177c61653f565b816001600160a01b0302191690836001600160a01b031602179061179e61669f565b5050600190920191506116279050565b6117b6612da7565b6117c08383614176565b6117cc83826000612e0e565b505050565b6117d9612da7565b61133481600060016137d0565b60606117f06131cf565b6001600160a01b031663b67fa7ed6524b9b9bab2b960d11b85856040518463ffffffff1660e01b8152600401808481526020018060200182810382528484828181526020019250602002808284376000838201819052601f909101601f19169092019650909450604093505050505180830381868061186d61659a565b1580156118825760008061187f6164d4565b50505b505a61188c6165e6565b50505050501580156118ab573d6000803e3d60006118a86164d4565b50505b505050506040513d6000823e601f3d908101601f1916820160405260208110156118dd576000806118da6164d4565b50505b8101908080516040519392919084600160201b821115611905576000806119026164d4565b50505b908301906020820185811115611923576000806119206164d4565b50505b82518660208202830111600160201b82111715611948576000806119456164d4565b50505b825250602001908051906020019060200280838360005b8381101561197757808201518382015260200161195f565b5050505090500160405250505090505b92915050565b6000611997613ec3565b6001600160a01b031663c8e5bbd56119af600161344e565b6040518263ffffffff1660e01b81526004018080602001828103825283818151815260200191508051906020019060200280838360005b838110156119fe5780820151838201526020016119e6565b50505050905001925050506000604051808303818680611a1c61659a565b158015611a3157600080611a2e6164d4565b50505b505a611a3b6165e6565b5050505050158015611a5a573d6000803e3d6000611a576164d4565b50505b505050506040513d6000823e601f3d908101601f191682016040908152811015611a8c57600080611a896164d4565b50505b8101908080516040519392919084600160201b821115611ab457600080611ab16164d4565b50505b908301906020820185811115611ad257600080611acf6164d4565b50505b82518660208202830111600160201b82111715611af757600080611af46164d4565b50505b825250602001908051906020019060200280838360005b83811015611b26578082015183820152602001611b0e565b50505050905001604052602001805195945050505050565b60006001610cd061653f565b6524b9b9bab2b960d11b81565b60006001600160a01b038216816002611b6e61653f565b906101000a90046001600160a01b03166001600160a01b031614611b9457506000610cf4565b60005b600480611ba261653f565b9050811015611d2857600060048281611bb961653f565b8110611bc157fe5b90600052602060002001611bd361653f565b6000818152600360205290915060409020600090611bef61653f565b6001600160a01b036101009290920a90041660006002611c0d61653f565b906101000a90046001600160a01b03166001600160a01b03166321f8a721836040516001600160e01b031960e084901b16815260048101919091526024016020604051808303818680611c5e61659a565b158015611c7357600080611c706164d4565b50505b505a611c7d6165e6565b5050505050158015611c9c573d6000803e3d6000611c996164d4565b50505b505050506040513d6020811015611cbb57600080611cb86164d4565b50505b8101908080516001600160a01b031693909314159250829150611d0f905057506000818152600360205260408120600090611cf461653f565b906101000a90046001600160a01b03166001600160a01b0316145b15611d1f57600092505050610cf4565b50600101611b97565b50600192915050565b6000806000611d4685620a69cb60eb1b6141cf565b935090915060009050611d67611d5a614455565b839063ffffffff6144c716565b9050848110611d795760009350611d8c565b611d89858263ffffffff6144dc16565b93505b50509250929050565b60606113aa600061344e565b60006001611dad61653f565b906101000a90046001600160a01b03166001600160a01b03165a611dcf616863565b6001600160a01b031614611e1d5760405162461bcd60e51b81526004018080602001828103825260358152602001806168ec6035913960400191505060405180910390611e1a6164d4565b50505b7fb532073b38c83145e3e5135377a08bf9aab55bc0fd7c1179cd4fb995d2a5159c600080611e4961653f565b906101000a90046001600160a01b03166001600090611e6661653f565b906101000a90046001600160a01b03166040516001600160a01b039283168152911660208201526040908101905180910390a160006001611ea561653f565b906101000a90046001600160a01b03166000806101000a81611ec561653f565b816001600160a01b0302191690836001600160a01b0316021790611ee761669f565b5050506000600160006101000a81611efd61653f565b816001600160a01b0302191690836001600160a01b03160217906117cc61669f565b6000611f2b8383614541565b509392505050565b611f3b6130b1565b611f44816148f5565b611f4c6131cf565b6001600160a01b0316631d5b277f6524b9b9bab2b960d11b8360006040516001600160e01b031960e086901b16815260048101939093526024830191909152604482015260640160006040518083038160008780611fa861659a565b158015611fbd57600080611fba6164d4565b50505b505a611fc76167aa565b505050505050158015611fe7573d6000803e3d6000611fe46164d4565b50505b5050505050565b60058181611ffa61653f565b811061200257fe5b9060005260206000200160009150610cd061653f565b6120206130b1565b6000816001600160a01b031663dbd06c856040518163ffffffff1660e01b8152600401602060405180830381868061205661659a565b15801561206b576000806120686164d4565b50505b505a6120756165e6565b5050505050158015612094573d6000803e3d60006120916164d4565b50505b505050506040513d60208110156120b3576000806120b06164d4565b50505b81019080805193506120ca92508391506148f59050565b6001600160a01b03821660009081526007602052604081206120ea61653f565b146121445760405162461bcd60e51b815260206004820152601c60248201527f53796e7468206164647265737320616c726561647920657869737473000000006044820152606401604051809103906121416164d4565b50505b61214f610edb6131cf565b8160058060018161215e61653f565b01808261216961669f565b505060009283529160001983019150602090209192910160018161218b61653f565b816001600160a01b0302191690836001600160a01b03160217906121ad61669f565b50505060008281526006602052839150604090206001816121cc61653f565b816001600160a01b0302191690836001600160a01b03160217906121ee61669f565b5050506001600160a01b03821660009081526007602052819060409020819061221561669f565b5050507f0a2b6ebf143b3e9fcd67e17748ad315174746100c27228468b2c98c302c6288481836040519182526001600160a01b031660208201526040908101905180910390a15050565b600080610cd061653f565b612272612da7565b61227c83836136b9565b6117cc838260006137d0565b60006122938261496d565b5092915050565b6000611987826149c7565b6000806122b0612da7565b6122b8614b8c565b6001600160a01b031663d6f32e0684631cd554d160e21b6040516001600160e01b031960e085901b1681526001600160a01b0390921660048301526024820152604401602060405180830381868061230e61659a565b158015612323576000806123206164d4565b50505b505a61232d6165e6565b505050505015801561234c573d6000803e3d60006123496164d4565b50505b505050506040513d602081101561236b576000806123686164d4565b50505b8101908080511592506123d09150505760405162461bcd60e51b815260206004820152601860248201527f73555344206e6565647320746f20626520736574746c656400000000000000006044820152606401604051809103906123cd6164d4565b50505b6123d8614bd7565b6001600160a01b031663c49e80a6866040516001600160e01b031960e084901b1681526001600160a01b039091166004820152602401602060405180830381868061242161659a565b158015612436576000806124336164d4565b50505b505a6124406165e6565b505050505015801561245f573d6000803e3d600061245c6164d4565b50505b505050506040513d602081101561247e5760008061247b6164d4565b50505b81019080805192506124e29150505760405162461bcd60e51b815260206004820181905260248201527f4163636f756e74206e6f74206f70656e20666f72206c69717569646174696f6e6044820152606401604051809103906124df6164d4565b50505b631cd554d160e21b6000908152600660205284906040902060009061250561653f565b906101000a90046001600160a01b03166001600160a01b03166370a08231856040516001600160e01b031960e084901b1681526001600160a01b039091166004820152602401602060405180830381868061255e61659a565b158015612573576000806125706164d4565b50505b505a61257d6165e6565b505050505015801561259c573d6000803e3d60006125996164d4565b50505b505050506040513d60208110156125bb576000806125b86164d4565b50505b810190808051939093101592506126169150505760405162461bcd60e51b815260206004820152600f60248201526e139bdd08195b9bdd59da081cd554d1608a1b6044820152606401604051809103906126136164d4565b50505b6000612620614bd7565b6001600160a01b03166323f5589a6040518163ffffffff1660e01b8152600401602060405180830381868061265361659a565b158015612668576000806126656164d4565b50505b505a6126726165e6565b5050505050158015612691573d6000803e3d600061268e6164d4565b50505b505050506040513d60208110156126b0576000806126ad6164d4565b50505b8101908080519350600092508291508190506126d389631cd554d160e21b6141cf565b9250925092506000806126e4613ec3565b6001600160a01b0316630c71cd23620a69cb60eb1b6040516001600160e01b031960e084901b16815260048101919091526024016040805180830381868061272a61659a565b15801561273f5760008061273c6164d4565b50505b505a6127496165e6565b5050505050158015612768573d6000803e3d60006127656164d4565b50505b505050506040513d6040811015612787576000806127846164d4565b50505b81019080805192919060200180519395509293506127b292508591508190506127ad5750815b614c25565b60006127bd8c6149c7565b905060006127c9614bd7565b6001600160a01b0316630ac045d5886127e28588614c7d565b6040516001600160e01b031960e085901b16815260048101929092526024820152604401602060405180830381868061281961659a565b15801561282e5760008061282b6164d4565b50505b505a6128386165e6565b5050505050158015612857573d6000803e3d60006128546164d4565b50505b505050506040513d6020811015612876576000806128736164d4565b50505b810190808051935050508c8210905061288f578b612891565b805b9850600061289f8a86614c8f565b905061296861295b8a73__$012b109f13094d29c4767dbda215a49cf7$__63907af6c06040518163ffffffff1660e01b815260040160206040518083038186806128e761659a565b1580156128fc576000806128f96164d4565b50505b505a612906616721565b5050505050158015612925573d6000803e3d60006129226164d4565b50505b505050506040513d6020811015612944576000806129416164d4565b50505b8101908080519392505063ffffffff613570169050565b829063ffffffff614ca116565b9a50828b11156129d457829a506129d16129cb6129be8b73__$012b109f13094d29c4767dbda215a49cf7$__63907af6c06040518163ffffffff1660e01b815260040160206040518083038186806128e761659a565b859063ffffffff614ccb16565b86614c7d565b99505b6129e18e8d8c8b8b614cf5565b50818a1415612a81576129f2614bd7565b6001600160a01b031663974e9e7f8f6040516001600160e01b031960e084901b1681526001600160a01b03909116600482015260240160006040518083038160008780612a3d61659a565b158015612a5257600080612a4f6164d4565b50505b505a612a5c6167aa565b505050505050158015612a7c573d6000803e3d6000612a796164d4565b50505b505050505b505050505050505050935093915050565b612a9a6168a9565b60005b600480612aa861653f565b9050811015612af05760048181612abd61653f565b8110612ac557fe5b90600052602060002001612ad761653f565b828260188110612ae357fe5b6020020152600101612a9d565b5090565b600080612b008361496d565b91509150915091565b60006113aa614e35565b612b1b612da7565b610cc0828260006137d0565b60006113aa614455565b6000612b3b6131cf565b6001600160a01b03166323257c2b6524b9b9bab2b960d11b7f636163686564534e584973737565644465627454696d657374616d70000000006040516001600160e01b031960e085901b168152600481019290925260248201526044016020604051808303818680612bab61659a565b158015612bc057600080612bbd6164d4565b50505b505a612bca6165e6565b5050505050158015612be9573d6000803e3d6000612be66164d4565b50505b505050506040513d6020811015612c0857600080612c056164d4565b50505b810190808051925050505a612c1b616764565b03612c24614e35565b10905090565b600061198782614eaf565b60048181612c4161653f565b8110612c4957fe5b90600052602060002001905061119461653f565b612c65612da7565b6113348160006001612e0e565b600080612c7d614ee2565b90506000816001600160a01b0316638b3f8088866040516001600160e01b031960e084901b1681526001600160a01b03909116600482015260240160408051808303818680612cca61659a565b158015612cdf57600080612cdc6164d4565b50505b505a612ce96165e6565b5050505050158015612d08573d6000803e3d6000612d056164d4565b50505b505050506040513d6040811015612d2757600080612d246164d4565b50505b81019080805192919060200180515092935050508115159050612d4f57600092505050611987565b612d5985856141cf565b50909695505050505050565b6000600580612d7261653f565b91505090565b600061198782614f32565b601881565b612d90612da7565b612d9a8282614176565b610cc08260006001612e0e565b612daf614fe0565b6001600160a01b03165a612dc1616863565b6001600160a01b031614612e0c5760405162461bcd60e51b815260040180806020018281038252603b815260200180616942603b913960400191505060405180910390610cc06164d4565b565b600080600080612e1d8761332d565b9350935093509350612e2e81614c25565b84612e885783861115612e835760405162461bcd60e51b815260206004820152601060248201526f416d6f756e7420746f6f206c6172676560801b604482015260640160405180910390612e806164d4565b50505b612e8c565b8395505b612e988787858561502b565b612ea187615563565b631cd554d160e21b6000908152600660205260409020600090612ec261653f565b906101000a90046001600160a01b03166001600160a01b031663867904b488886040516001600160e01b031960e085901b1681526001600160a01b039092166004830152602482015260440160006040518083038160008780612f2361659a565b158015612f3857600080612f356164d4565b50505b505a612f426167aa565b505050505050158015612f62573d6000803e3d6000612f5f6164d4565b50505b50505050612fb0631cd554d160e21b73__$012b109f13094d29c4767dbda215a49cf7$__63907af6c06040518163ffffffff1660e01b815260040160206040518083038186806111f561659a565b611fe487615622565b600080600080612fc7613ec3565b6001600160a01b0316630c71cd23620a69cb60eb1b6040516001600160e01b031960e084901b16815260048101919091526024016040805180830381868061300d61659a565b1580156130225760008061301f6164d4565b50505b505a61302c6165e6565b505050505015801561304b573d6000803e3d60006130486164d4565b50505b505050506040513d604081101561306a576000806130676164d4565b50505b81019080805192919060200180519395509293506000925061309891506130929050876149c7565b84614c7d565b90506130a561295b614455565b94509092505050915091565b6000806130bc61653f565b906101000a90046001600160a01b03166001600160a01b03165a6130de616863565b6001600160a01b031614612e0c5760405162461bcd60e51b815260040180806020018281038252602f81526020018061697d602f913960400191505060405180910390610cc06164d4565b60606001604051908082528060200260200182016040528015613156578160200160208202803883390190505b509050828160008151811061316757fe5b602002602001018181525050606060016040519080825280602002602001820160405280156131a0578160200160208202803883390190505b50905082816000815181106131b157fe5b6020026020010181815250506131c982826000615789565b50505050565b60006113aa6e466c657869626c6553746f7261676560881b60405160408082019052601f81527f4d697373696e6720466c657869626c6553746f726167652061646472657373006020820152615d49565b600061322b83613de4565b9050811515811515146117cc57826001600160a01b0316633f28a6fc6524b9b9bab2b960d11b7f636163686564534e5849737375656444656274496e76616c6964000000000000856040516001600160e01b031960e086901b1681526004810193909352602483019190915215156044820152606401600060405180830381600087806132b661659a565b1580156132cb576000806132c86164d4565b50505b505a6132d56167aa565b5050505050501580156132f5573d6000803e3d60006132f26164d4565b50505b505050508115157f8eebec690c34bbf0fe0d5b93e442beaf16bdaf99052569581de2dcb3e31a53a760405160405180910390a2505050565b60008060008061334485631cd554d160e21b6141cf565b9194509250905060008061335787612fb9565b9150915081955082806133675750805b9250858510613379576000955061338c565b613389868663ffffffff6144dc16565b95505b50509193509193565b6000806133a061653f565b906101000a90046001600160a01b03166001600160a01b03165a6133c2616863565b6001600160a01b031614612e0c576133d8615e12565b6001600160a01b031663086dabd16040518163ffffffff1660e01b8152600401600060405180830381868061340b61659a565b1580156134205760008061341d6164d4565b50505b505a61342a6165e6565b50505050501580156131c9573d6000803e3d60006134466164d4565b505050505050565b6060808261345d576000613460565b60015b60ff1660058061346e61653f565b90500160405190808252806020026020018201604052801561349a578160200160208202803883390190505b50905060005b6005806134ab61653f565b90508110156135385760076000600583816134c461653f565b81106134cc57fe5b906000526020600020016000906134e161653f565b906101000a90046001600160a01b03166001600160a01b03166001600160a01b0316815260200190815260200160002061351961653f565b82828151811061352557fe5b60209081029190910101526001016134a0565b50821561198757620a69cb60eb1b8160058061355261653f565b90508151811061355e57fe5b60200260200101818152505092915050565b6000828201838110156135d25760405162461bcd60e51b815260206004820152601b60248201527f536166654d6174683a206164646974696f6e206f766572666c6f7700000000006044820152606401604051809103906135cf6164d4565b50505b9392505050565b60006135e36131cf565b6001600160a01b03166323257c2b6d53797374656d53657474696e677360901b6f6d696e696d756d5374616b6554696d6560801b6040516001600160e01b031960e085901b16815260048101929092526024820152604401602060405180830381868061364e61659a565b158015613663576000806136606164d4565b50505b505a61366d6165e6565b505050505015801561368c573d6000803e3d60006136896164d4565b50505b505050506040513d60208110156136ab576000806136a86164d4565b50505b810190808051935050505090565b6136c1615e60565b6001600160a01b0316637d3f0ba283836040516001600160e01b031960e085901b1681526001600160a01b03928316600482015291166024820152604401602060405180830381868061371261659a565b158015613727576000806137246164d4565b50505b505a6137316165e6565b5050505050158015613750573d6000803e3d600061374d6164d4565b50505b505050506040513d602081101561376f5760008061376c6164d4565b50505b8101908080519250610cc09150505760405162461bcd60e51b815260206004820152601d60248201527f4e6f7420617070726f76656420746f20616374206f6e20626568616c660000006044820152606401604051809103906131c96164d4565b806139f9576137de83614eaf565b6138375760405162461bcd60e51b815260206004820152601e60248201527f4d696e696d756d207374616b652074696d65206e6f74207265616368656400006044820152606401604051809103906138346164d4565b50505b600080613842614b8c565b6001600160a01b0316631b16802c86631cd554d160e21b6040516001600160e01b031960e085901b1681526001600160a01b03909216600483015260248201526044016060604051808303816000878061389a61659a565b1580156138af576000806138ac6164d4565b50505b505a6138b96167aa565b5050505050501580156138d9573d6000803e3d60006138d66164d4565b50505b505050506040513d60608110156138f8576000806138f56164d4565b50505b8101908080519291906020018051929190602001805193965092945050831592506139f691505057613928614b8c565b6001600160a01b0316634c268fc886631cd554d160e21b87866040516001600160e01b031960e087901b1681526001600160a01b039094166004850152602484019290925260448301526064820152608401602060405180830381868061398d61659a565b1580156139a25760008061399f6164d4565b50505b505a6139ac6165e6565b50505050501580156139cb573d6000803e3d60006139c86164d4565b50505b505050506040513d60208110156139ea576000806139e76164d4565b50505b81019080805196505050505b50505b6000806000613a0f86631cd554d160e21b6141cf565b925092509250600080613a2188612fb9565b91509150613a3583806127ad575081614c25565b60008511613a875760405162461bcd60e51b81526020600482015260126024820152714e6f206465627420746f20666f726769766560701b604482015260640160405180910390613a846164d4565b50505b8515613aa057613a9d858363ffffffff6144dc16565b96505b6000613aaf898a8a8989614cf5565b905082613ac2878363ffffffff6144dc16565b11613b5e57613acf614bd7565b6001600160a01b031663974e9e7f8a6040516001600160e01b031960e084901b1681526001600160a01b03909116600482015260240160006040518083038160008780613b1a61659a565b158015613b2f57600080613b2c6164d4565b50505b505a613b396167aa565b505050505050158015613b59573d6000803e3d6000613b566164d4565b50505b505050505b505050505050505050565b60008060606002604051908082528060200260200182016040528015613b99578160200160208202803883390190505b5090507218d858da195914d396125cdcdd59591119589d606a1b81600081518110613bc057fe5b6020026020010181815250507f636163686564534e584973737565644465627454696d657374616d700000000081600181518110613bfa57fe5b6020026020010181815250506060846001600160a01b031663b67fa7ed6524b9b9bab2b960d11b846040518363ffffffff1660e01b81526004018083815260200180602001828103825283818151815260200191508051906020019060200280838360005b83811015613c77578082015183820152602001613c5f565b5050505090500193505050506000604051808303818680613c9661659a565b158015613cab57600080613ca86164d4565b50505b505a613cb56165e6565b5050505050158015613cd4573d6000803e3d6000613cd16164d4565b50505b505050506040513d6000823e601f3d908101601f191682016040526020811015613d0657600080613d036164d4565b50505b8101908080516040519392919084600160201b821115613d2e57600080613d2b6164d4565b50505b908301906020820185811115613d4c57600080613d496164d4565b50505b82518660208202830111600160201b82111715613d7157600080613d6e6164d4565b50505b825250602001908051906020019060200280838360005b83811015613da0578082015183820152602001613d88565b50505050905001604052505050905080600081518110613dbc57fe5b602002602001015181600181518110613dd157fe5b6020026020010151935093505050915091565b6000816001600160a01b031663d994502d6524b9b9bab2b960d11b7f636163686564534e5849737375656444656274496e76616c69640000000000006040516001600160e01b031960e085901b168152600481019290925260248201526044016020604051808303818680613e5761659a565b158015613e6c57600080613e696164d4565b50505b505a613e766165e6565b5050505050158015613e95573d6000803e3d6000613e926164d4565b50505b505050506040513d6020811015613eb457600080613eb16164d4565b50505b81019080805195945050505050565b60006113aa6c45786368616e6765526174657360981b60405160408082019052601d81527f4d697373696e672045786368616e6765526174657320616464726573730000006020820152615d49565b6060600083519050606081604051908082528060200260200182016040528015613f46578160200160208202803883390190505b50905060005b8281101561416d576000868281518110613f6257fe5b60200260200101516000818152600660205290915060408120600090613f8661653f565b906101000a90046001600160a01b03166001600160a01b03166318160ddd6040518163ffffffff1660e01b81526004016020604051808303818680613fc961659a565b158015613fde57600080613fdb6164d4565b50505b505a613fe86165e6565b5050505050158015614007573d6000803e3d60006140046164d4565b50505b505050506040513d6020811015614026576000806140236164d4565b50505b81019080805193505050631cd554d160e21b83149050808061404e5750630e68aa8960e31b83145b156141275760008161406757614062615e96565b61406f565b61406f615ee7565b90506000816001600160a01b031663ee5f3f5c6040518163ffffffff1660e01b815260040160206040518083038186806140a761659a565b1580156140bc576000806140b96164d4565b50505b505a6140c66165e6565b50505050501580156140e5573d6000803e3d60006140e26164d4565b50505b505050506040513d6020811015614104576000806141016164d4565b50505b8101908080519350614122925086915083905063ffffffff6144dc16565b935050505b61414b88858151811061413657fe5b6020026020010151839063ffffffff615f1f16565b85858151811061415757fe5b6020908102919091010152505050600101613f4c565b50949350505050565b61417e615e60565b6001600160a01b0316630487261783836040516001600160e01b031960e085901b1681526001600160a01b03928316600482015291166024820152604401602060405180830381868061371261659a565b6000806000806141dd614ee2565b9050600080826001600160a01b0316638b3f8088896040516001600160e01b031960e084901b1681526001600160a01b0390911660048201526024016040805180830381868061422b61659a565b1580156142405760008061423d6164d4565b50505b505a61424a6165e6565b5050505050158015614269573d6000803e3d60006142666164d4565b50505b505050506040513d6040811015614288576000806142856164d4565b50505b81019080805192919060200180519395509293506142ad925089915060019050614541565b9095509350816142c457506000945061444e915050565b600061442a8361441e866001600160a01b03166308d95cd5866040516001600160e01b031960e084901b1681526004810191909152602401602060405180830381868061430f61659a565b158015614324576000806143216164d4565b50505b505a61432e6165e6565b505050505015801561434d573d6000803e3d600061434a6164d4565b50505b505050506040513d602081101561436c576000806143696164d4565b50505b810190808051925050506001600160a01b03881663463177126040518163ffffffff1660e01b815260040160206040518083038186806143aa61659a565b1580156143bf576000806143bc6164d4565b50505b505a6143c96165e6565b50505050501580156143e8573d6000803e3d60006143e56164d4565b50505b505050506040513d6020811015614407576000806144046164d4565b50505b8101908080519392505063ffffffff615f34169050565b9063ffffffff615f4d16565b9050600061443b8261441e89615f66565b905061444681615f7c565b975050505050505b9250925092565b600061445f6131cf565b6001600160a01b03166323257c2b6d53797374656d53657474696e677360901b6c69737375616e6365526174696f60981b6040516001600160e01b031960e085901b16815260048101929092526024820152604401602060405180830381868061364e61659a565b60006135d28383670de0b6b3a7640000615f9e565b60008282111561453b5760405162461bcd60e51b815260206004820152601e60248201527f536166654d6174683a207375627472616374696f6e206f766572666c6f7700006044820152606401604051809103906145386164d4565b50505b50900390565b600080600061454e6131cf565b905060008061455c83613b69565b915091506000815a61456c616764565b03614575614e35565b1090508080614588575061458884613de4565b80614591575081155b9450600061459d613ec3565b9050876147f2576146566145af615ee7565b6001600160a01b031663ee5f3f5c6040518163ffffffff1660e01b815260040160206040518083038186806145e261659a565b1580156145f7576000806145f46164d4565b50505b505a6146016165e6565b5050505050158015614620573d6000803e3d600061461d6164d4565b50505b505050506040513d602081101561463f5760008061463c6164d4565b50505b81019080805188935091505063ffffffff61357016565b9350600080826001600160a01b0316630c71cd23630e68aa8960e31b6040516001600160e01b031960e084901b1681526004810191909152602401604080518083038186806146a361659a565b1580156146b8576000806146b56164d4565b50505b505a6146c26165e6565b50505050501580156146e1573d6000803e3d60006146de6164d4565b50505b505050506040513d6040811015614700576000806146fd6164d4565b50505b8101908080519291906020018051939550929350600092506147cf9150849050614728615e96565b6001600160a01b031663ee5f3f5c6040518163ffffffff1660e01b8152600401602060405180830381868061475b61659a565b1580156147705760008061476d6164d4565b50505b505a61477a6165e6565b5050505050158015614799573d6000803e3d60006147966164d4565b50505b505050506040513d60208110156147b8576000806147b56164d4565b50505b8101908080519392505063ffffffff615f1f169050565b90506147e1878263ffffffff61357016565b965088806147ec5750815b98505050505b631cd554d160e21b89141561480e57509194506148ee92505050565b600080826001600160a01b0316630c71cd238c6040516001600160e01b031960e084901b16815260048101919091526024016040805180830381868061485261659a565b158015614867576000806148646164d4565b50505b505a6148716165e6565b5050505050158015614890573d6000803e3d600061488d6164d4565b50505b505050506040513d60408110156148af576000806148ac6164d4565b50505b81019080805192919060200180519395509293506148d9925088915084905063ffffffff6144c716565b88806148e25750815b98509850505050505050505b9250929050565b600081815260066020526040812060009061490e61653f565b906101000a90046001600160a01b03166001600160a01b0316146113345760405162461bcd60e51b815260206004820152600c60248201526b53796e74682065786973747360a01b6044820152606401604051809103906117cc6164d4565b600080600061497b846149c7565b905060008061499086620a69cb60eb1b6141cf565b925050915082600014156149ac576000945092506115e3915050565b6149bc828463ffffffff6144c716565b945092505050915091565b6000806149d2614fe0565b6001600160a01b03166370a08231846040516001600160e01b031960e084901b1681526001600160a01b0390911660048201526024016020604051808303818680614a1b61659a565b158015614a3057600080614a2d6164d4565b50505b505a614a3a6165e6565b5050505050158015614a59573d6000803e3d6000614a566164d4565b50505b505050506040513d6020811015614a7857600080614a756164d4565b50505b810190808051935060009250614a909150615fd69050565b6001600160a01b031614614b6957614b66614aa9615fd6565b6001600160a01b03166370a08231856040516001600160e01b031960e084901b1681526001600160a01b0390911660048201526024016020604051808303818680614af261659a565b158015614b0757600080614b046164d4565b50505b505a614b116165e6565b5050505050158015614b30573d6000803e3d6000614b2d6164d4565b50505b505050506040513d6020811015614b4f57600080614b4c6164d4565b50505b81019080805185935091505063ffffffff61357016565b90505b6000614b73616027565b6001600160a01b031614611987576135d2614aa9616027565b60006113aa6822bc31b430b733b2b960b91b60405160408082019052601981527f4d697373696e672045786368616e6765722061646472657373000000000000006020820152615d49565b60006113aa6b4c69717569646174696f6e7360a01b60405160408082019052601c81527f4d697373696e67204c69717569646174696f6e732061646472657373000000006020820152615d49565b80156113345760405162461bcd60e51b815260206004820152601e60248201527f412073796e7468206f7220534e58207261746520697320696e76616c696400006044820152606401604051809103906117cc6164d4565b60006135d2838363ffffffff615f1f16565b60006135d2838363ffffffff6144c716565b6000670de0b6b3a7640000614cbc848463ffffffff61607516565b81614cc357fe5b049392505050565b60006135d282614ce985670de0b6b3a764000063ffffffff61607516565b9063ffffffff6160d416565b6000838310614d045783614d06565b825b9050614d1486828585616146565b631cd554d160e21b6000908152600660205260409020600090614d3561653f565b906101000a90046001600160a01b03166001600160a01b0316639dc29fac86836040516001600160e01b031960e085901b1681526001600160a01b039092166004830152602482015260440160006040518083038160008780614d9661659a565b158015614dab57600080614da86164d4565b50505b505a614db56167aa565b505050505050158015614dd5573d6000803e3d6000614dd26164d4565b50505b50505050614e23631cd554d160e21b73__$012b109f13094d29c4767dbda215a49cf7$__63907af6c06040518163ffffffff1660e01b815260040160206040518083038186806111f561659a565b614e2c86615622565b95945050505050565b6000614e3f6131cf565b6001600160a01b03166323257c2b6d53797374656d53657474696e677360901b7464656274536e617073686f745374616c6554696d6560581b6040516001600160e01b031960e085901b16815260048101929092526024820152604401602060405180830381868061364e61659a565b6000614ed1614ebc6135d9565b614ec584614f32565b9063ffffffff61357016565b5a614eda616764565b101592915050565b60006113aa6d53796e746865746978537461746560901b60405160408082019052601e81527f4d697373696e672053796e7468657469785374617465206164647265737300006020820152615d49565b6000614f3c6131cf565b6001600160a01b03166323257c2b6524b9b9bab2b960d11b6d1b185cdd125cdcdd59515d995b9d60921b8560405160200180838152602001826001600160a01b03166001600160a01b031660601b815260140192505050604051602081830303815290604052805190602001206040516001600160e01b031960e085901b168152600481019290925260248201526044016020604051808303818680613e5761659a565b60006113aa680a6f2dce8d0cae8d2f60bb1b60405160408082019052601981527f4d697373696e672053796e7468657469782061646472657373000000000000006020820152615d49565b6000615035614ee2565b90506000615049858463ffffffff61357016565b9050600061505d868363ffffffff615f3416565b905060006151188273__$012b109f13094d29c4767dbda215a49cf7$__63d5e5e6e66040518163ffffffff1660e01b815260040160206040518083038186806150a461659a565b1580156150b9576000806150b66164d4565b50505b505a6150c3616721565b50505050501580156150e2573d6000803e3d60006150df6164d4565b50505b505050506040513d6020811015615101576000806150fe6164d4565b50505b8101908080519392505063ffffffff6144dc169050565b905085156151475761514083615134898963ffffffff61357016565b9063ffffffff615f3416565b91506151c1565b836001600160a01b0316631bfba5956040518163ffffffff1660e01b81526004016000604051808303816000878061517d61659a565b1580156151925760008061518f6164d4565b50505b505a61519c6167aa565b5050505050501580156151bc573d6000803e3d60006151b96164d4565b50505b505050505b836001600160a01b031663a764eb4589846040516001600160e01b031960e085901b1681526001600160a01b03909216600483015260248201526044016000604051808303816000878061521361659a565b158015615228576000806152256164d4565b50505b505a6152326167aa565b505050505050158015615252573d6000803e3d600061524f6164d4565b50505b505050506000846001600160a01b031663cd92eba96040518163ffffffff1660e01b8152600401602060405180830381868061528c61659a565b1580156152a15760008061529e6164d4565b50505b505a6152ab6165e6565b50505050501580156152ca573d6000803e3d60006152c76164d4565b50505b505050506040513d60208110156152e9576000806152e66164d4565b50505b8101908080519390931115925061542b915050576001600160a01b038416633d31e97b6153af838363463177126040518163ffffffff1660e01b8152600401602060405180830381868061533b61659a565b1580156153505760008061534d6164d4565b50505b505a61535a6165e6565b5050505050158015615379573d6000803e3d60006153766164d4565b50505b505050506040513d6020811015615398576000806153956164d4565b50505b8101908080519392505063ffffffff615f4d169050565b6040516001600160e01b031960e084901b1681526004810191909152602401600060405180830381600087806153e361659a565b1580156153f8576000806153f56164d4565b50505b505a6154026167aa565b505050505050158015615422573d6000803e3d600061541f6164d4565b50505b50505050615559565b836001600160a01b0316633d31e97b73__$012b109f13094d29c4767dbda215a49cf7$__63d5e5e6e66040518163ffffffff1660e01b8152600401602060405180830381868061547961659a565b15801561548e5760008061548b6164d4565b50505b505a615498616721565b50505050501580156154b7573d6000803e3d60006154b46164d4565b50505b505050506040513d60208110156154d6576000806154d36164d4565b50505b81019080805192506040915050516001600160e01b031960e084901b16815260048101919091526024016000604051808303816000878061551561659a565b15801561552a576000806155276164d4565b50505b505a6155346167aa565b505050505050158015615554573d6000803e3d60006155516164d4565b50505b505050505b5050505050505050565b61556b6131cf565b6001600160a01b0316631d5b277f6524b9b9bab2b960d11b6d1b185cdd125cdcdd59515d995b9d60921b8460405160200180838152602001826001600160a01b03166001600160a01b031660601b815260140192505050604051602081830303815290604052805190602001205a6155e1616764565b6040516001600160e01b031960e086901b16815260048101939093526024830191909152604482015260640160006040518083038160008780611fa861659a565b60008061562d614ee2565b6001600160a01b0316638b3f8088846040516001600160e01b031960e084901b1681526001600160a01b0390911660048201526024016040805180830381868061567561659a565b15801561568a576000806156876164d4565b50505b505a6156946165e6565b50505050501580156156b3573d6000803e3d60006156b06164d4565b50505b505050506040513d60408110156156d2576000806156cf6164d4565b50505b81019080805192919060200180519395509293506156f39250616460915050565b6001600160a01b031663866452748484846040516001600160e01b031960e086901b1681526001600160a01b039093166004840152602483019190915260448201526064016000604051808303816000878061574d61659a565b1580156157625760008061575f6164d4565b50505b505a61576c6167aa565b505050505050158015611fe4573d6000803e3d6000613b5e6164d4565b600083519050825181146157ec5760405162461bcd60e51b815260206004820152601a60248201527f496e707574206172726179206c656e67746873206469666665720000000000006044820152606401604051809103906157e96164d4565b50505b60006157f66131cf565b90506060816001600160a01b031663b67fa7ed6524b9b9bab2b960d11b886040518363ffffffff1660e01b81526004018083815260200180602001828103825283818151815260200191508051906020019060200280838360005b83811015615869578082015183820152602001615851565b505050509050019350505050600060405180830381868061588861659a565b15801561589d5760008061589a6164d4565b50505b505a6158a76165e6565b50505050501580156158c6573d6000803e3d60006158c36164d4565b50505b505050506040513d6000823e601f3d908101601f1916820160405260208110156158f8576000806158f56164d4565b50505b8101908080516040519392919084600160201b8211156159205760008061591d6164d4565b50505b90830190602082018581111561593e5760008061593b6164d4565b50505b82518660208202830111600160201b82111715615963576000806159606164d4565b50505b825250602001908051906020019060200280838360005b8381101561599257808201518382015260200161597a565b50505050905001604052505050905060606159ad8787613f12565b9050826001600160a01b03166303cdc0176524b9b9bab2b960d11b89846040518463ffffffff1660e01b8152600401808481526020018060200180602001838103835285818151815260200191508051906020019060200280838360005b83811015615a23578082015183820152602001615a0b565b50505050905001838103825284818151815260200191508051906020019060200280838360005b83811015615a62578082015183820152602001615a4a565b505050509050019550505050505060006040518083038160008780615a8561659a565b158015615a9a57600080615a976164d4565b50505b505a615aa46167aa565b505050505050158015615ac4573d6000803e3d6000615ac16164d4565b50505b5050505060008060008090505b86811015615b1857615afd858281518110615ae857fe5b6020026020010151849063ffffffff61357016565b9250615b0e84828151811061137557fe5b9150600101615ad1565b50808214615d39576000856001600160a01b03166323257c2b6524b9b9bab2b960d11b7218d858da195914d396125cdcdd59591119589d606a1b6040516001600160e01b031960e085901b168152600481019290925260248201526044016020604051808303818680615b8961659a565b158015615b9e57600080615b9b6164d4565b50505b505a615ba86165e6565b5050505050158015615bc7573d6000803e3d6000615bc46164d4565b50505b505050506040513d6020811015615be657600080615be36164d4565b50505b810190808051935050505080831115615c395760405162461bcd60e51b81526004018080602001828103825260238152602001806169cd6023913960400191505060405180910390615c366164d4565b50505b615c4d82614ec5838663ffffffff6144dc16565b9050856001600160a01b0316631d5b277f6524b9b9bab2b960d11b7218d858da195914d396125cdcdd59591119589d606a1b846040516001600160e01b031960e086901b16815260048101939093526024830191909152604482015260640160006040518083038160008780615cc161659a565b158015615cd657600080615cd36164d4565b50505b505a615ce06167aa565b505050505050158015615d00573d6000803e3d6000615cfd6164d4565b50505b505050507f294a7c394e53042c7d754779562747d93b41db019dd4b970dd9b531db71be5998160405190815260200160405180910390a1505b8615613b5e57613b5e8588613220565b600082815260036020528060408120600090615d6361653f565b6001600160a01b036101009290920a90041690508281611f2b5760405162461bcd60e51b81526004018080602001828103825283818151815260200191508051906020019080838360005b83811015615dc6578082015183820152602001615dae565b50505050905090810190601f168015615df35780820380516001836020036101000a031916815260200191505b509250505060405180910390615e076164d4565b505050905092915050565b60006113aa6b53797374656d53746174757360a01b60405160408082019052601c81527f4d697373696e672053797374656d5374617475732061646472657373000000006020820152615d49565b60006113aa7044656c6567617465417070726f76616c7360781b6040516060810160405260218082526169216020830139615d49565b60006113aa6e115d1a195c90dbdb1b185d195c985b608a1b60405160408082019052601f81527f4d697373696e67204574686572436f6c6c61746572616c2061646472657373006020820152615d49565b60006113aa72115d1a195c90dbdb1b185d195c985b1cd554d1606a1b6040516060810160405260238082526169f06020830139615d49565b60006135d28383670de0b6b3a76400006164a9565b60006135d283836b033b2e3c9fd0803ce8000000615f9e565b60006135d283836b033b2e3c9fd0803ce80000006164a9565b600061198782633b9aca0063ffffffff61607516565b60006305f5e10082046005600a820610615f9457600a015b600a900492915050565b600080615fb884614ce987600a870263ffffffff61607516565b90506005600a825b0610615fca57600a015b600a9004949350505050565b60006113aa6e53796e746865746978457363726f7760881b60405160408082019052601f81527f4d697373696e672053796e746865746978457363726f772061646472657373006020820152615d49565b60006113aa6b526577617264457363726f7760a01b60405160408082019052601c81527f4d697373696e6720526577617264457363726f772061646472657373000000006020820152615d49565b60008261608457506000611987565b8282028284828161609157fe5b04146135d25760405162461bcd60e51b81526004018080602001828103825260218152602001806169ac60219139604001915050604051809103906135cf6164d4565b60008082116161325760405162461bcd60e51b815260206004820152601a60248201527f536166654d6174683a206469766973696f6e206279207a65726f00000000000060448201526064016040518091039061612f6164d4565b50505b600082848161613d57fe5b04949350505050565b6000616150614ee2565b90506000616164838663ffffffff6144dc16565b9050600081156161c9576000616180878463ffffffff615f3416565b90506161c58173__$012b109f13094d29c4767dbda215a49cf7$__63d5e5e6e66040518163ffffffff1660e01b815260040160206040518083038186806128e761659a565b9150505b848614156162e557826001600160a01b031663a764eb458860006040516001600160e01b031960e085901b1681526001600160a01b03909216600483015260248201526044016000604051808303816000878061622461659a565b158015616239576000806162366164d4565b50505b505a6162436167aa565b505050505050158015616263573d6000803e3d60006162606164d4565b50505b50505050826001600160a01b031663ba08f2996040518163ffffffff1660e01b81526004016000604051808303816000878061629d61659a565b1580156162b2576000806162af6164d4565b50505b505a6162bc6167aa565b5050505050501580156162dc573d6000803e3d60006162d96164d4565b50505b505050506163a5565b60006162f7868863ffffffff6144dc16565b9050600061630b828563ffffffff615f3416565b9050846001600160a01b031663a764eb458a836040516001600160e01b031960e085901b1681526001600160a01b03909216600483015260248201526044016000604051808303816000878061635f61659a565b158015616374576000806163716164d4565b50505b505a61637e6167aa565b50505050505015801561639e573d6000803e3d600061639b6164d4565b50505b5050505050505b6001600160a01b038316633d31e97b6163e3838363463177126040518163ffffffff1660e01b8152600401602060405180830381868061533b61659a565b6040516001600160e01b031960e084901b16815260048101919091526024016000604051808303816000878061641761659a565b15801561642c576000806164296164d4565b50505b505a6164366167aa565b505050505050158015616453573d6000803e3d6000613b596164d4565b5050505050505050505050565b60006113aa66119959541bdbdb60ca1b60405160408082019052601781527f4d697373696e6720466565506f6f6c20616464726573730000000000000000006020820152615d49565b600080600a83046164c0868663ffffffff61607516565b816164c757fe5b0490506005600a82615fc0565b632a2a7adb598160e01b8152600481016020815285602082015260005b8681101561650c5780860151828201604001526020016164f1565b506020828760640184336000905af158600e01573d6000803e3d6000fd5b3d6001141558600a015760016000f35b505050565b6303daa959598160e01b8152836004820152602081602483336000905af158600e01573d6000803e3d6000fd5b3d6001141558600a015760016000f35b8051935060005b60408110156117cc57600082820152602001616583565b638435035b598160e01b8152836004820152602081602483336000905af158600e01573d6000803e3d6000fd5b3d6001141558600a015760016000f35b80516000825293506020616583565b638540661f598160e01b8152836004820152846024820152606060448201528660648201526084810160005b8881101561662a578088015182820152602001616612565b50876101040182016060838a6101040185336000905af158600e01573d6000803e3d6000fd5b3d6001141558600a015760016000f35b825160408401513d6000863e8c8c82606088013350600060045af15059855b81811015616693576000815260200161667f565b50919c50505050505050565b6322bd64c0598160e01b8152836004820152846024820152600081604483336000905af158600e01573d6000803e3d6000fd5b3d6001141558600a015760016000f35b600081526020616583565b816166f661653f565b818361670061669f565b5050818111156117cc57818360005260206000206117cc92810191016168c6565b63ffe73914598160e01b8152836004820152846024820152606060448201528660648201526084810160008881101561662a578088015182820152602001616612565b63bdbf8c36598160e01b8152602081600483336000905af158600e01573d6000803e3d6000fd5b3d6001141558600a015760016000f35b80516000825293506020616583565b6385979f76598160e01b8152836004820152846024820152606060448201528760648201526084810160005b898110156167ee5780890151828201526020016167d6565b50886101040182016060838b6101040185336000905af158600e01573d6000803e3d6000fd5b3d6001141558600a015760016000f35b825160408401513d6000863e8d8d82606088013350600060045af15059855b818110156168575760008152602001616843565b50919d50505050505050565b6373509064598160e01b8152602081600483336000905af158600e01573d6000803e3d6000fd5b3d6001141558600a015760016000f35b80516000825293506020616583565b604051610300808201604052601890829080388339509192915050565b6113ad91905b80821115612af057600080826168e061669f565b5050506001016168cc56fe596f75206d757374206265206e6f6d696e61746564206265666f726520796f752063616e20616363657074206f776e6572736869704d697373696e672044656c6567617465417070726f76616c7320616464726573734973737565723a204f6e6c79207468652073796e74686574697820636f6e74726163742063616e20706572666f726d207468697320616374696f6e4f6e6c792074686520636f6e7472616374206f776e6572206d617920706572666f726d207468697320616374696f6e536166654d6174683a206d756c7469706c69636174696f6e206f766572666c6f774361636865642073796e74682073756d206578636565647320746f74616c20646562744d697373696e67204574686572436f6c6c61746572616c735553442061646472657373",
			"opcodes": "PUSH1 0x80 PUSH1 0x40 MSTORE PUSH1 0x40 MLOAD PUSH2 0x1A0 DUP2 ADD PUSH1 0x40 SWAP1 DUP2 MSTORE PUSH9 0xA6F2DCE8D0CAE8D2F PUSH1 0xBB SHL DUP3 MSTORE PUSH9 0x22BC31B430B733B2B9 PUSH1 0xB9 SHL PUSH1 0x20 DUP4 ADD MSTORE PUSH13 0x45786368616E67655261746573 PUSH1 0x98 SHL SWAP1 DUP3 ADD MSTORE PUSH14 0x53796E7468657469785374617465 PUSH1 0x90 SHL PUSH1 0x60 DUP3 ADD MSTORE PUSH7 0x119959541BDBDB PUSH1 0xCA SHL PUSH1 0x80 DUP3 ADD MSTORE PUSH17 0x44656C6567617465417070726F76616C73 PUSH1 0x78 SHL PUSH1 0xA0 DUP3 ADD MSTORE PUSH15 0x115D1A195C90DBDB1B185D195C985B PUSH1 0x8A SHL PUSH1 0xC0 DUP3 ADD MSTORE PUSH32 0x4574686572436F6C6C61746572616C7355534400000000000000000000000000 PUSH1 0xE0 DUP3 ADD MSTORE PUSH12 0x526577617264457363726F77 PUSH1 0xA0 SHL PUSH2 0x100 DUP3 ADD MSTORE PUSH15 0x53796E746865746978457363726F77 PUSH1 0x88 SHL PUSH2 0x120 DUP3 ADD MSTORE PUSH12 0x4C69717569646174696F6E73 PUSH1 0xA0 SHL PUSH2 0x140 DUP3 ADD MSTORE PUSH15 0x466C657869626C6553746F72616765 PUSH1 0x88 SHL PUSH2 0x160 DUP3 ADD MSTORE PUSH12 0x53797374656D537461747573 PUSH1 0xA0 SHL PUSH2 0x180 DUP3 ADD MSTORE PUSH3 0x14A SWAP1 PUSH1 0x8 SWAP1 PUSH1 0xD PUSH3 0x608 JUMP JUMPDEST POP CALLVALUE DUP1 ISZERO PUSH3 0x163 JUMPI PUSH1 0x0 DUP1 PUSH3 0x160 PUSH3 0x656 JUMP JUMPDEST POP POP JUMPDEST POP PUSH1 0x40 MLOAD PUSH3 0x72CE CODESIZE SUB DUP1 PUSH3 0x72CE DUP4 CODECOPY DUP2 DUP2 ADD PUSH1 0x40 MSTORE PUSH1 0x40 DUP2 LT ISZERO PUSH3 0x194 JUMPI PUSH1 0x0 DUP1 PUSH3 0x191 PUSH3 0x656 JUMP JUMPDEST POP POP JUMPDEST DUP2 ADD SWAP1 DUP1 DUP1 MLOAD SWAP3 SWAP2 SWAP1 PUSH1 0x20 ADD DUP1 MLOAD SWAP3 POP DUP4 SWAP2 POP DUP3 SWAP1 POP DUP1 PUSH1 0x8 PUSH1 0x18 PUSH2 0x300 PUSH1 0x40 MLOAD SWAP1 DUP2 ADD PUSH1 0x40 MSTORE SWAP2 SWAP1 PUSH2 0x300 DUP4 ADD DUP3 DUP5 JUMPDEST DUP2 PUSH3 0x1D0 PUSH3 0x6C3 JUMP JUMPDEST DUP2 MSTORE PUSH1 0x20 ADD SWAP1 PUSH1 0x1 ADD SWAP1 DUP1 DUP4 GT PUSH3 0x1C5 JUMPI POP DUP8 SWAP4 POP POP POP POP PUSH1 0x1 PUSH1 0x1 PUSH1 0xA0 SHL SUB DUP2 AND PUSH3 0x24F JUMPI PUSH1 0x40 MLOAD PUSH3 0x461BCD PUSH1 0xE5 SHL DUP2 MSTORE PUSH1 0x20 PUSH1 0x4 DUP3 ADD MSTORE PUSH1 0x19 PUSH1 0x24 DUP3 ADD MSTORE PUSH32 0x4F776E657220616464726573732063616E6E6F74206265203000000000000000 PUSH1 0x44 DUP3 ADD MSTORE PUSH1 0x64 ADD PUSH1 0x40 MLOAD DUP1 SWAP2 SUB SWAP1 PUSH3 0x24C PUSH3 0x656 JUMP JUMPDEST POP POP JUMPDEST DUP1 PUSH1 0x0 PUSH1 0x1 DUP2 PUSH3 0x25F PUSH3 0x6C3 JUMP JUMPDEST DUP2 PUSH1 0x1 PUSH1 0x1 PUSH1 0xA0 SHL SUB MUL NOT AND SWAP1 DUP4 PUSH1 0x1 PUSH1 0x1 PUSH1 0xA0 SHL SUB AND MUL OR SWAP1 PUSH3 0x283 PUSH3 0x725 JUMP JUMPDEST POP POP POP PUSH32 0xB532073B38C83145E3E5135377A08BF9AAB55BC0FD7C1179CD4FB995D2A5159C PUSH1 0x0 DUP3 PUSH1 0x40 MLOAD PUSH1 0x1 PUSH1 0x1 PUSH1 0xA0 SHL SUB SWAP3 DUP4 AND DUP2 MSTORE SWAP2 AND PUSH1 0x20 DUP3 ADD MSTORE PUSH1 0x40 SWAP1 DUP2 ADD SWAP1 MLOAD DUP1 SWAP2 SUB SWAP1 LOG1 POP PUSH1 0x0 DUP1 DUP1 PUSH3 0x2DC PUSH3 0x6C3 JUMP JUMPDEST SWAP1 PUSH2 0x100 EXP SWAP1 DIV PUSH1 0x1 PUSH1 0x1 PUSH1 0xA0 SHL SUB AND PUSH1 0x1 PUSH1 0x1 PUSH1 0xA0 SHL SUB AND EQ ISZERO PUSH3 0x347 JUMPI PUSH1 0x40 MLOAD PUSH3 0x461BCD PUSH1 0xE5 SHL DUP2 MSTORE PUSH1 0x20 PUSH1 0x4 DUP3 ADD MSTORE PUSH1 0x11 PUSH1 0x24 DUP3 ADD MSTORE PUSH17 0x13DDDB995C881B5D5CDD081899481CD95D PUSH1 0x7A SHL PUSH1 0x44 DUP3 ADD MSTORE PUSH1 0x64 ADD PUSH1 0x40 MLOAD DUP1 SWAP2 SUB SWAP1 PUSH3 0x344 PUSH3 0x656 JUMP JUMPDEST POP POP JUMPDEST PUSH1 0x0 JUMPDEST PUSH1 0x18 DUP2 LT ISZERO PUSH3 0x3D7 JUMPI PUSH1 0x0 DUP3 DUP3 PUSH1 0x18 DUP2 LT PUSH3 0x363 JUMPI INVALID JUMPDEST PUSH1 0x20 MUL ADD MLOAD EQ PUSH3 0x3C8 JUMPI PUSH1 0x4 DUP3 DUP3 PUSH1 0x18 DUP2 LT PUSH3 0x37D JUMPI INVALID JUMPDEST PUSH1 0x20 MUL ADD MLOAD SWAP1 DUP1 PUSH1 0x1 DUP2 PUSH3 0x391 PUSH3 0x6C3 JUMP JUMPDEST ADD DUP1 DUP3 PUSH3 0x39E PUSH3 0x725 JUMP JUMPDEST POP POP PUSH1 0x0 SWAP3 DUP4 MSTORE SWAP2 PUSH1 0x0 NOT DUP4 ADD SWAP2 POP PUSH1 0x20 SWAP1 KECCAK256 SWAP2 SWAP3 SWAP2 ADD PUSH3 0x3BF PUSH3 0x725 JUMP JUMPDEST POP POP POP PUSH3 0x3CE JUMP JUMPDEST PUSH3 0x3D7 JUMP JUMPDEST PUSH1 0x1 ADD PUSH3 0x34A JUMP JUMPDEST POP DUP2 PUSH1 0x2 PUSH1 0x1 DUP2 PUSH3 0x3E8 PUSH3 0x6C3 JUMP JUMPDEST DUP2 PUSH1 0x1 PUSH1 0x1 PUSH1 0xA0 SHL SUB MUL NOT AND SWAP1 DUP4 PUSH1 0x1 PUSH1 0x1 PUSH1 0xA0 SHL SUB AND MUL OR SWAP1 PUSH3 0x40C PUSH3 0x725 JUMP JUMPDEST POP POP POP POP POP PUSH3 0x434 PUSH15 0x466C657869626C6553746F72616765 PUSH1 0x88 SHL PUSH3 0x43E PUSH1 0x20 SHL PUSH1 0x20 SHR JUMP JUMPDEST POP POP POP POP PUSH3 0x8AB JUMP JUMPDEST DUP1 PUSH1 0x4 DUP1 PUSH1 0x1 DUP2 PUSH3 0x44F PUSH3 0x6C3 JUMP JUMPDEST ADD DUP1 DUP3 PUSH3 0x45C PUSH3 0x725 JUMP JUMPDEST POP POP PUSH1 0x0 SWAP3 DUP4 MSTORE SWAP2 PUSH1 0x0 NOT DUP4 ADD SWAP2 POP PUSH1 0x20 SWAP1 KECCAK256 SWAP2 SWAP3 SWAP2 ADD PUSH3 0x47D PUSH3 0x725 JUMP JUMPDEST POP POP POP PUSH1 0x18 PUSH1 0x4 DUP1 PUSH3 0x48F PUSH3 0x6C3 JUMP JUMPDEST SWAP1 POP LT PUSH3 0x4EE JUMPI PUSH1 0x40 MLOAD PUSH3 0x461BCD PUSH1 0xE5 SHL DUP2 MSTORE PUSH1 0x20 PUSH1 0x4 DUP3 ADD MSTORE PUSH1 0x1B PUSH1 0x24 DUP3 ADD MSTORE PUSH32 0x4D6178207265736F6C7665722063616368652073697A65206D65740000000000 PUSH1 0x44 DUP3 ADD MSTORE PUSH1 0x64 ADD PUSH1 0x40 MLOAD DUP1 SWAP2 SUB SWAP1 PUSH3 0x4EB PUSH3 0x656 JUMP JUMPDEST POP POP JUMPDEST PUSH1 0x0 PUSH1 0x2 PUSH3 0x4FC PUSH3 0x6C3 JUMP JUMPDEST SWAP1 PUSH2 0x100 EXP SWAP1 DIV PUSH1 0x1 PUSH1 0x1 PUSH1 0xA0 SHL SUB AND PUSH1 0x1 PUSH1 0x1 PUSH1 0xA0 SHL SUB AND PUSH4 0x21F8A721 DUP3 PUSH1 0x40 MLOAD PUSH1 0x1 PUSH1 0x1 PUSH1 0xE0 SHL SUB NOT PUSH1 0xE0 DUP5 SWAP1 SHL AND DUP2 MSTORE PUSH1 0x4 DUP2 ADD SWAP2 SWAP1 SWAP2 MSTORE PUSH1 0x24 ADD PUSH1 0x20 PUSH1 0x40 MLOAD DUP1 DUP4 SUB DUP2 DUP7 DUP1 PUSH3 0x54F PUSH3 0x774 JUMP JUMPDEST ISZERO DUP1 ISZERO PUSH3 0x567 JUMPI PUSH1 0x0 DUP1 PUSH3 0x564 PUSH3 0x656 JUMP JUMPDEST POP POP JUMPDEST POP GAS PUSH3 0x573 PUSH3 0x7C1 JUMP JUMPDEST POP POP POP POP POP ISZERO DUP1 ISZERO PUSH3 0x595 JUMPI RETURNDATASIZE PUSH1 0x0 DUP1 RETURNDATACOPY RETURNDATASIZE PUSH1 0x0 PUSH3 0x592 PUSH3 0x656 JUMP JUMPDEST POP POP JUMPDEST POP POP POP POP PUSH1 0x40 MLOAD RETURNDATASIZE PUSH1 0x20 DUP2 LT ISZERO PUSH3 0x5B7 JUMPI PUSH1 0x0 DUP1 PUSH3 0x5B4 PUSH3 0x656 JUMP JUMPDEST POP POP JUMPDEST DUP2 ADD SWAP1 DUP1 DUP1 MLOAD PUSH1 0x0 DUP6 DUP2 MSTORE PUSH1 0x3 PUSH1 0x20 MSTORE SWAP1 SWAP4 POP PUSH1 0x40 SWAP3 POP SWAP1 POP KECCAK256 PUSH1 0x1 DUP2 PUSH3 0x5DE PUSH3 0x6C3 JUMP JUMPDEST DUP2 PUSH1 0x1 PUSH1 0x1 PUSH1 0xA0 SHL SUB MUL NOT AND SWAP1 DUP4 PUSH1 0x1 PUSH1 0x1 PUSH1 0xA0 SHL SUB AND MUL OR SWAP1 PUSH3 0x602 PUSH3 0x725 JUMP JUMPDEST POP POP POP POP JUMP JUMPDEST DUP3 PUSH1 0x18 DUP2 ADD SWAP3 DUP3 ISZERO PUSH3 0x644 JUMPI SWAP2 PUSH1 0x20 MUL DUP3 ADD JUMPDEST DUP3 DUP2 GT ISZERO PUSH3 0x644 JUMPI DUP3 MLOAD DUP3 PUSH3 0x632 PUSH3 0x725 JUMP JUMPDEST POP POP SWAP2 PUSH1 0x20 ADD SWAP2 SWAP1 PUSH1 0x1 ADD SWAP1 PUSH3 0x61C JUMP JUMPDEST POP PUSH3 0x652 SWAP3 SWAP2 POP PUSH3 0x87E JUMP JUMPDEST POP SWAP1 JUMP JUMPDEST PUSH4 0x2A2A7ADB MSIZE DUP2 PUSH1 0xE0 SHL DUP2 MSTORE PUSH1 0x4 DUP2 ADD PUSH1 0x20 DUP2 MSTORE DUP6 PUSH1 0x20 DUP3 ADD MSTORE PUSH1 0x0 JUMPDEST DUP7 DUP2 LT ISZERO PUSH3 0x690 JUMPI DUP1 DUP7 ADD MLOAD DUP3 DUP3 ADD PUSH1 0x40 ADD MSTORE PUSH1 0x20 ADD PUSH3 0x673 JUMP JUMPDEST POP PUSH1 0x20 DUP3 DUP8 PUSH1 0x64 ADD DUP5 CALLER PUSH1 0x0 SWAP1 GAS CALL PC PUSH1 0xE ADD JUMPI RETURNDATASIZE PUSH1 0x0 DUP1 RETURNDATACOPY RETURNDATASIZE PUSH1 0x0 REVERT JUMPDEST RETURNDATASIZE PUSH1 0x1 EQ ISZERO PC PUSH1 0xA ADD JUMPI PUSH1 0x1 PUSH1 0x0 RETURN JUMPDEST POP POP POP JUMP JUMPDEST PUSH4 0x3DAA959 MSIZE DUP2 PUSH1 0xE0 SHL DUP2 MSTORE DUP4 PUSH1 0x4 DUP3 ADD MSTORE PUSH1 0x20 DUP2 PUSH1 0x24 DUP4 CALLER PUSH1 0x0 SWAP1 GAS CALL PC PUSH1 0xE ADD JUMPI RETURNDATASIZE PUSH1 0x0 DUP1 RETURNDATACOPY RETURNDATASIZE PUSH1 0x0 REVERT JUMPDEST RETURNDATASIZE PUSH1 0x1 EQ ISZERO PC PUSH1 0xA ADD JUMPI PUSH1 0x1 PUSH1 0x0 RETURN JUMPDEST DUP1 MLOAD SWAP4 POP PUSH1 0x0 JUMPDEST PUSH1 0x40 DUP2 LT ISZERO PUSH3 0x720 JUMPI PUSH1 0x0 DUP3 DUP3 ADD MSTORE PUSH1 0x20 ADD PUSH3 0x707 JUMP JUMPDEST POP POP POP JUMP JUMPDEST PUSH4 0x22BD64C0 MSIZE DUP2 PUSH1 0xE0 SHL DUP2 MSTORE DUP4 PUSH1 0x4 DUP3 ADD MSTORE DUP5 PUSH1 0x24 DUP3 ADD MSTORE PUSH1 0x0 DUP2 PUSH1 0x44 DUP4 CALLER PUSH1 0x0 SWAP1 GAS CALL PC PUSH1 0xE ADD JUMPI RETURNDATASIZE PUSH1 0x0 DUP1 RETURNDATACOPY RETURNDATASIZE PUSH1 0x0 REVERT JUMPDEST RETURNDATASIZE PUSH1 0x1 EQ ISZERO PC PUSH1 0xA ADD JUMPI PUSH1 0x1 PUSH1 0x0 RETURN JUMPDEST PUSH1 0x0 DUP2 MSTORE PUSH1 0x20 PUSH3 0x707 JUMP JUMPDEST PUSH4 0x8435035B MSIZE DUP2 PUSH1 0xE0 SHL DUP2 MSTORE DUP4 PUSH1 0x4 DUP3 ADD MSTORE PUSH1 0x20 DUP2 PUSH1 0x24 DUP4 CALLER PUSH1 0x0 SWAP1 GAS CALL PC PUSH1 0xE ADD JUMPI RETURNDATASIZE PUSH1 0x0 DUP1 RETURNDATACOPY RETURNDATASIZE PUSH1 0x0 REVERT JUMPDEST RETURNDATASIZE PUSH1 0x1 EQ ISZERO PC PUSH1 0xA ADD JUMPI PUSH1 0x1 PUSH1 0x0 RETURN JUMPDEST DUP1 MLOAD PUSH1 0x0 DUP3 MSTORE SWAP4 POP PUSH1 0x20 PUSH3 0x707 JUMP JUMPDEST PUSH4 0x8540661F MSIZE DUP2 PUSH1 0xE0 SHL DUP2 MSTORE DUP4 PUSH1 0x4 DUP3 ADD MSTORE DUP5 PUSH1 0x24 DUP3 ADD MSTORE PUSH1 0x60 PUSH1 0x44 DUP3 ADD MSTORE DUP7 PUSH1 0x64 DUP3 ADD MSTORE PUSH1 0x84 DUP2 ADD PUSH1 0x0 JUMPDEST DUP9 DUP2 LT ISZERO PUSH3 0x807 JUMPI DUP1 DUP9 ADD MLOAD DUP3 DUP3 ADD MSTORE PUSH1 0x20 ADD PUSH3 0x7ED JUMP JUMPDEST POP DUP8 PUSH2 0x104 ADD DUP3 ADD PUSH1 0x60 DUP4 DUP11 PUSH2 0x104 ADD DUP6 CALLER PUSH1 0x0 SWAP1 GAS CALL PC PUSH1 0xE ADD JUMPI RETURNDATASIZE PUSH1 0x0 DUP1 RETURNDATACOPY RETURNDATASIZE PUSH1 0x0 REVERT JUMPDEST RETURNDATASIZE PUSH1 0x1 EQ ISZERO PC PUSH1 0xA ADD JUMPI PUSH1 0x1 PUSH1 0x0 RETURN JUMPDEST DUP3 MLOAD PUSH1 0x40 DUP5 ADD MLOAD RETURNDATASIZE PUSH1 0x0 DUP7 RETURNDATACOPY DUP13 DUP13 DUP3 PUSH1 0x60 DUP9 ADD CALLER POP PUSH1 0x0 PUSH1 0x4 GAS CALL POP MSIZE DUP6 JUMPDEST DUP2 DUP2 LT ISZERO PUSH3 0x872 JUMPI PUSH1 0x0 DUP2 MSTORE PUSH1 0x20 ADD PUSH3 0x85C JUMP JUMPDEST POP SWAP2 SWAP13 POP POP POP POP POP POP POP JUMP JUMPDEST PUSH3 0x8A8 SWAP2 SWAP1 JUMPDEST DUP1 DUP3 GT ISZERO PUSH3 0x652 JUMPI PUSH1 0x0 DUP1 DUP3 PUSH3 0x89C PUSH3 0x725 JUMP JUMPDEST POP POP POP PUSH1 0x1 ADD PUSH3 0x885 JUMP JUMPDEST SWAP1 JUMP JUMPDEST PUSH2 0x6A13 DUP1 PUSH3 0x8BB PUSH1 0x0 CODECOPY PUSH1 0x0 RETURN INVALID PUSH1 0x80 PUSH1 0x40 MSTORE CALLVALUE DUP1 ISZERO PUSH2 0x19 JUMPI PUSH1 0x0 DUP1 PUSH2 0x16 PUSH2 0x64D4 JUMP JUMPDEST POP POP JUMPDEST POP PUSH1 0x4 CALLDATASIZE LT PUSH2 0x2DF JUMPI PUSH1 0x0 CALLDATALOAD PUSH1 0xE0 SHR DUP1 PUSH4 0x7B1001B7 GT PUSH2 0x18B JUMPI DUP1 PUSH4 0xAF5355D8 GT PUSH2 0xF2 JUMPI DUP1 PUSH4 0xC8977132 GT PUSH2 0xAB JUMPI DUP1 PUSH4 0xDD3D2B2E GT PUSH2 0x85 JUMPI DUP1 PUSH4 0xDD3D2B2E EQ PUSH2 0xBAC JUMPI DUP1 PUSH4 0xE3235C91 EQ PUSH2 0xBDB JUMPI DUP1 PUSH4 0xFD864CCF EQ PUSH2 0xBE3 JUMPI DUP1 PUSH4 0xFE1D77E7 EQ PUSH2 0xC1A JUMPI PUSH2 0x2DF JUMP JUMPDEST DUP1 PUSH4 0xC8977132 EQ PUSH2 0xB40 JUMPI DUP1 PUSH4 0xD37C4D8B EQ PUSH2 0xB6F JUMPI DUP1 PUSH4 0xDBF63340 EQ PUSH2 0xBA4 JUMPI PUSH2 0x2DF JUMP JUMPDEST DUP1 PUSH4 0xAF5355D8 EQ PUSH2 0xA9E JUMPI DUP1 PUSH4 0xB06E8C65 EQ PUSH2 0xAA6 JUMPI DUP1 PUSH4 0xB410A034 EQ PUSH2 0xADB JUMPI DUP1 PUSH4 0xBE843515 EQ PUSH2 0xAE3 JUMPI DUP1 PUSH4 0xBFF4FDFC EQ PUSH2 0xAEB JUMPI DUP1 PUSH4 0xC6C9D828 EQ PUSH2 0xB1A JUMPI PUSH2 0x2DF JUMP JUMPDEST DUP1 PUSH4 0x9E342F71 GT PUSH2 0x144 JUMPI DUP1 PUSH4 0x9E342F71 EQ PUSH2 0x950 JUMPI DUP1 PUSH4 0xA311C7C2 EQ PUSH2 0x979 JUMPI DUP1 PUSH4 0xA5FDC5DE EQ PUSH2 0x9A8 JUMPI DUP1 PUSH4 0xA63C4DF4 EQ PUSH2 0x9D7 JUMPI DUP1 PUSH4 0xAB49848C EQ PUSH2 0xA2E JUMPI DUP1 PUSH4 0xAE3BBBBB EQ PUSH2 0xA6F JUMPI PUSH2 0x2DF JUMP JUMPDEST DUP1 PUSH4 0x7B1001B7 EQ PUSH2 0x860 JUMPI DUP1 PUSH4 0x7D74E85D EQ PUSH2 0x88E JUMPI DUP1 PUSH4 0x835E119C EQ PUSH2 0x8B4 JUMPI DUP1 PUSH4 0x849CF588 EQ PUSH2 0x8DA JUMPI DUP1 PUSH4 0x8DA5CB5B EQ PUSH2 0x909 JUMPI DUP1 PUSH4 0x9A5154B4 EQ PUSH2 0x911 JUMPI PUSH2 0x2DF JUMP JUMPDEST DUP1 PUSH4 0x364FB765 GT PUSH2 0x24A JUMPI DUP1 PUSH4 0x4E99BDA9 GT PUSH2 0x203 JUMPI DUP1 PUSH4 0x631E1444 GT PUSH2 0x1DD JUMPI DUP1 PUSH4 0x631E1444 EQ PUSH2 0x7EC JUMPI DUP1 PUSH4 0x6BED0415 EQ PUSH2 0x81B JUMPI DUP1 PUSH4 0x72CB051F EQ PUSH2 0x850 JUMPI DUP1 PUSH4 0x79BA5097 EQ PUSH2 0x858 JUMPI PUSH2 0x2DF JUMP JUMPDEST DUP1 PUSH4 0x4E99BDA9 EQ PUSH2 0x7C0 JUMPI DUP1 PUSH4 0x53A47BB7 EQ PUSH2 0x7DC JUMPI DUP1 PUSH4 0x614D08F8 EQ PUSH2 0x7E4 JUMPI PUSH2 0x2DF JUMP JUMPDEST DUP1 PUSH4 0x364FB765 EQ PUSH2 0x4EF JUMPI DUP1 PUSH4 0x3973A2BB EQ PUSH2 0x51D JUMPI DUP1 PUSH4 0x3BE99E6F EQ PUSH2 0x63E JUMPI DUP1 PUSH4 0x44EC6B62 EQ PUSH2 0x66D JUMPI DUP1 PUSH4 0x497D704A EQ PUSH2 0x6AC JUMPI DUP1 PUSH4 0x49E4C7B7 EQ PUSH2 0x6DB JUMPI PUSH2 0x2DF JUMP JUMPDEST DUP1 PUSH4 0x16B2213F GT PUSH2 0x29C JUMPI DUP1 PUSH4 0x16B2213F EQ PUSH2 0x431 JUMPI DUP1 PUSH4 0x172058F7 EQ PUSH2 0x460 JUMPI DUP1 PUSH4 0x21428AA0 EQ PUSH2 0x468 JUMPI DUP1 PUSH4 0x242DF9E1 EQ PUSH2 0x48A JUMPI DUP1 PUSH4 0x2B3F41AA EQ PUSH2 0x492 JUMPI DUP1 PUSH4 0x32608039 EQ PUSH2 0x4C9 JUMPI PUSH2 0x2DF JUMP JUMPDEST DUP1 PUSH4 0x42E0688 EQ PUSH2 0x2ED JUMPI DUP1 PUSH4 0x4F3BCEC EQ PUSH2 0x324 JUMPI DUP1 PUSH4 0x5B3C1C9 EQ PUSH2 0x348 JUMPI DUP1 PUSH4 0xB887DAE EQ PUSH2 0x389 JUMPI DUP1 PUSH4 0x1137AEDF EQ PUSH2 0x3AF JUMPI DUP1 PUSH4 0x1627540C EQ PUSH2 0x402 JUMPI JUMPDEST PUSH1 0x0 DUP1 PUSH2 0x2EA PUSH2 0x64D4 JUMP JUMPDEST POP POP JUMPDEST PUSH2 0x322 PUSH1 0x4 DUP1 CALLDATASIZE SUB PUSH1 0x40 DUP2 LT ISZERO PUSH2 0x30C JUMPI PUSH1 0x0 DUP1 PUSH2 0x309 PUSH2 0x64D4 JUMP JUMPDEST POP POP JUMPDEST POP PUSH1 0x1 PUSH1 0x1 PUSH1 0xA0 SHL SUB DUP2 CALLDATALOAD AND SWAP1 PUSH1 0x20 ADD CALLDATALOAD PUSH2 0xCAC JUMP JUMPDEST STOP JUMPDEST PUSH2 0x32C PUSH2 0xCC4 JUMP JUMPDEST PUSH1 0x40 MLOAD PUSH1 0x1 PUSH1 0x1 PUSH1 0xA0 SHL SUB SWAP1 SWAP2 AND DUP2 MSTORE PUSH1 0x20 ADD PUSH1 0x40 MLOAD DUP1 SWAP2 SUB SWAP1 RETURN JUMPDEST PUSH2 0x377 PUSH1 0x4 DUP1 CALLDATASIZE SUB PUSH1 0x20 DUP2 LT ISZERO PUSH2 0x367 JUMPI PUSH1 0x0 DUP1 PUSH2 0x364 PUSH2 0x64D4 JUMP JUMPDEST POP POP JUMPDEST POP CALLDATALOAD PUSH1 0x1 PUSH1 0x1 PUSH1 0xA0 SHL SUB AND PUSH2 0xCE3 JUMP JUMPDEST PUSH1 0x40 MLOAD SWAP1 DUP2 MSTORE PUSH1 0x20 ADD PUSH1 0x40 MLOAD DUP1 SWAP2 SUB SWAP1 RETURN JUMPDEST PUSH2 0x322 PUSH1 0x4 DUP1 CALLDATASIZE SUB PUSH1 0x20 DUP2 LT ISZERO PUSH2 0x3A8 JUMPI PUSH1 0x0 DUP1 PUSH2 0x3A5 PUSH2 0x64D4 JUMP JUMPDEST POP POP JUMPDEST POP CALLDATALOAD PUSH2 0xCF9 JUMP JUMPDEST PUSH2 0x3DE PUSH1 0x4 DUP1 CALLDATASIZE SUB PUSH1 0x20 DUP2 LT ISZERO PUSH2 0x3CE JUMPI PUSH1 0x0 DUP1 PUSH2 0x3CB PUSH2 0x64D4 JUMP JUMPDEST POP POP JUMPDEST POP CALLDATALOAD PUSH1 0x1 PUSH1 0x1 PUSH1 0xA0 SHL SUB AND PUSH2 0x10E6 JUMP JUMPDEST PUSH1 0x40 MLOAD DUP1 DUP5 DUP2 MSTORE PUSH1 0x20 ADD DUP4 DUP2 MSTORE PUSH1 0x20 ADD DUP3 DUP2 MSTORE PUSH1 0x20 ADD SWAP4 POP POP POP POP PUSH1 0x40 MLOAD DUP1 SWAP2 SUB SWAP1 RETURN JUMPDEST PUSH2 0x322 PUSH1 0x4 DUP1 CALLDATASIZE SUB PUSH1 0x20 DUP2 LT ISZERO PUSH2 0x421 JUMPI PUSH1 0x0 DUP1 PUSH2 0x41E PUSH2 0x64D4 JUMP JUMPDEST POP POP JUMPDEST POP CALLDATALOAD PUSH1 0x1 PUSH1 0x1 PUSH1 0xA0 SHL SUB AND PUSH2 0x1102 JUMP JUMPDEST PUSH2 0x377 PUSH1 0x4 DUP1 CALLDATASIZE SUB PUSH1 0x20 DUP2 LT ISZERO PUSH2 0x450 JUMPI PUSH1 0x0 DUP1 PUSH2 0x44D PUSH2 0x64D4 JUMP JUMPDEST POP POP JUMPDEST POP CALLDATALOAD PUSH1 0x1 PUSH1 0x1 PUSH1 0xA0 SHL SUB AND PUSH2 0x117C JUMP JUMPDEST PUSH2 0x322 PUSH2 0x1197 JUMP JUMPDEST PUSH2 0x470 PUSH2 0x1337 JUMP JUMPDEST PUSH1 0x40 MLOAD SWAP2 DUP3 MSTORE ISZERO ISZERO PUSH1 0x20 DUP3 ADD MSTORE PUSH1 0x40 SWAP1 DUP2 ADD SWAP1 MLOAD DUP1 SWAP2 SUB SWAP1 RETURN JUMPDEST PUSH2 0x377 PUSH2 0x13A0 JUMP JUMPDEST PUSH2 0x322 PUSH1 0x4 DUP1 CALLDATASIZE SUB PUSH1 0x40 DUP2 LT ISZERO PUSH2 0x4B1 JUMPI PUSH1 0x0 DUP1 PUSH2 0x4AE PUSH2 0x64D4 JUMP JUMPDEST POP POP JUMPDEST POP PUSH1 0x1 PUSH1 0x1 PUSH1 0xA0 SHL SUB DUP2 CALLDATALOAD DUP2 AND SWAP2 PUSH1 0x20 ADD CALLDATALOAD AND PUSH2 0x13B0 JUMP JUMPDEST PUSH2 0x32C PUSH1 0x4 DUP1 CALLDATASIZE SUB PUSH1 0x20 DUP2 LT ISZERO PUSH2 0x4E8 JUMPI PUSH1 0x0 DUP1 PUSH2 0x4E5 PUSH2 0x64D4 JUMP JUMPDEST POP POP JUMPDEST POP CALLDATALOAD PUSH2 0x13CF JUMP JUMPDEST PUSH2 0x4F7 PUSH2 0x13E9 JUMP JUMPDEST PUSH1 0x40 MLOAD SWAP3 DUP4 MSTORE PUSH1 0x20 DUP4 ADD SWAP2 SWAP1 SWAP2 MSTORE ISZERO ISZERO PUSH1 0x40 DUP1 DUP4 ADD SWAP2 SWAP1 SWAP2 MSTORE PUSH1 0x60 SWAP1 SWAP2 ADD SWAP1 MLOAD DUP1 SWAP2 SUB SWAP1 RETURN JUMPDEST PUSH2 0x5E2 PUSH1 0x4 DUP1 CALLDATASIZE SUB PUSH1 0x20 DUP2 LT ISZERO PUSH2 0x53C JUMPI PUSH1 0x0 DUP1 PUSH2 0x539 PUSH2 0x64D4 JUMP JUMPDEST POP POP JUMPDEST DUP2 ADD SWAP1 PUSH1 0x20 DUP2 ADD DUP2 CALLDATALOAD PUSH1 0x1 PUSH1 0x20 SHL DUP2 GT ISZERO PUSH2 0x55F JUMPI PUSH1 0x0 DUP1 PUSH2 0x55C PUSH2 0x64D4 JUMP JUMPDEST POP POP JUMPDEST DUP3 ADD DUP4 PUSH1 0x20 DUP3 ADD GT ISZERO PUSH2 0x57A JUMPI PUSH1 0x0 DUP1 PUSH2 0x577 PUSH2 0x64D4 JUMP JUMPDEST POP POP JUMPDEST DUP1 CALLDATALOAD SWAP1 PUSH1 0x20 ADD SWAP2 DUP5 PUSH1 0x20 DUP4 MUL DUP5 ADD GT PUSH1 0x1 PUSH1 0x20 SHL DUP4 GT OR ISZERO PUSH2 0x5A4 JUMPI PUSH1 0x0 DUP1 PUSH2 0x5A1 PUSH2 0x64D4 JUMP JUMPDEST POP POP JUMPDEST SWAP2 SWAP1 DUP1 DUP1 PUSH1 0x20 MUL PUSH1 0x20 ADD PUSH1 0x40 MLOAD SWAP1 DUP2 ADD PUSH1 0x40 MSTORE DUP1 SWAP4 SWAP3 SWAP2 SWAP1 DUP2 DUP2 MSTORE PUSH1 0x20 ADD DUP4 DUP4 PUSH1 0x20 MUL DUP1 DUP3 DUP5 CALLDATACOPY PUSH1 0x0 SWAP3 ADD SWAP2 SWAP1 SWAP2 MSTORE POP SWAP3 SWAP6 POP PUSH2 0x1422 SWAP5 POP POP POP POP POP JUMP JUMPDEST PUSH1 0x40 MLOAD DUP2 ISZERO ISZERO PUSH1 0x20 DUP3 ADD MSTORE PUSH1 0x40 DUP1 DUP3 MSTORE DUP2 SWAP1 DUP2 ADD DUP5 DUP2 DUP2 MLOAD DUP2 MSTORE PUSH1 0x20 ADD SWAP2 POP DUP1 MLOAD SWAP1 PUSH1 0x20 ADD SWAP1 PUSH1 0x20 MUL DUP1 DUP4 DUP4 PUSH1 0x0 JUMPDEST DUP4 DUP2 LT ISZERO PUSH2 0x629 JUMPI DUP1 DUP3 ADD MLOAD DUP4 DUP3 ADD MSTORE PUSH1 0x20 ADD PUSH2 0x611 JUMP JUMPDEST POP POP POP POP SWAP1 POP ADD SWAP4 POP POP POP POP PUSH1 0x40 MLOAD DUP1 SWAP2 SUB SWAP1 RETURN JUMPDEST PUSH2 0x322 PUSH1 0x4 DUP1 CALLDATASIZE SUB PUSH1 0x20 DUP2 LT ISZERO PUSH2 0x65D JUMPI PUSH1 0x0 DUP1 PUSH2 0x65A PUSH2 0x64D4 JUMP JUMPDEST POP POP JUMPDEST POP CALLDATALOAD PUSH1 0x1 PUSH1 0x1 PUSH1 0xA0 SHL SUB AND PUSH2 0x15E8 JUMP JUMPDEST PUSH2 0x322 PUSH1 0x4 DUP1 CALLDATASIZE SUB PUSH1 0x60 DUP2 LT ISZERO PUSH2 0x68C JUMPI PUSH1 0x0 DUP1 PUSH2 0x689 PUSH2 0x64D4 JUMP JUMPDEST POP POP JUMPDEST POP PUSH1 0x1 PUSH1 0x1 PUSH1 0xA0 SHL SUB DUP2 CALLDATALOAD DUP2 AND SWAP2 PUSH1 0x20 DUP2 ADD CALLDATALOAD SWAP1 SWAP2 AND SWAP1 PUSH1 0x40 ADD CALLDATALOAD PUSH2 0x17AE JUMP JUMPDEST PUSH2 0x322 PUSH1 0x4 DUP1 CALLDATASIZE SUB PUSH1 0x20 DUP2 LT ISZERO PUSH2 0x6CB JUMPI PUSH1 0x0 DUP1 PUSH2 0x6C8 PUSH2 0x64D4 JUMP JUMPDEST POP POP JUMPDEST POP CALLDATALOAD PUSH1 0x1 PUSH1 0x1 PUSH1 0xA0 SHL SUB AND PUSH2 0x17D1 JUMP JUMPDEST PUSH2 0x76D PUSH1 0x4 DUP1 CALLDATASIZE SUB PUSH1 0x20 DUP2 LT ISZERO PUSH2 0x6FA JUMPI PUSH1 0x0 DUP1 PUSH2 0x6F7 PUSH2 0x64D4 JUMP JUMPDEST POP POP JUMPDEST DUP2 ADD SWAP1 PUSH1 0x20 DUP2 ADD DUP2 CALLDATALOAD PUSH1 0x1 PUSH1 0x20 SHL DUP2 GT ISZERO PUSH2 0x71D JUMPI PUSH1 0x0 DUP1 PUSH2 0x71A PUSH2 0x64D4 JUMP JUMPDEST POP POP JUMPDEST DUP3 ADD DUP4 PUSH1 0x20 DUP3 ADD GT ISZERO PUSH2 0x738 JUMPI PUSH1 0x0 DUP1 PUSH2 0x735 PUSH2 0x64D4 JUMP JUMPDEST POP POP JUMPDEST DUP1 CALLDATALOAD SWAP1 PUSH1 0x20 ADD SWAP2 DUP5 PUSH1 0x20 DUP4 MUL DUP5 ADD GT PUSH1 0x1 PUSH1 0x20 SHL DUP4 GT OR ISZERO PUSH2 0x762 JUMPI PUSH1 0x0 DUP1 PUSH2 0x75F PUSH2 0x64D4 JUMP JUMPDEST POP POP JUMPDEST POP SWAP1 SWAP3 POP SWAP1 POP PUSH2 0x17E6 JUMP JUMPDEST PUSH1 0x40 MLOAD PUSH1 0x20 DUP1 DUP3 MSTORE DUP2 SWAP1 DUP2 ADD DUP4 DUP2 DUP2 MLOAD DUP2 MSTORE PUSH1 0x20 ADD SWAP2 POP DUP1 MLOAD SWAP1 PUSH1 0x20 ADD SWAP1 PUSH1 0x20 MUL DUP1 DUP4 DUP4 PUSH1 0x0 JUMPDEST DUP4 DUP2 LT ISZERO PUSH2 0x7AC JUMPI DUP1 DUP3 ADD MLOAD DUP4 DUP3 ADD MSTORE PUSH1 0x20 ADD PUSH2 0x794 JUMP JUMPDEST POP POP POP POP SWAP1 POP ADD SWAP3 POP POP POP PUSH1 0x40 MLOAD DUP1 SWAP2 SUB SWAP1 RETURN JUMPDEST PUSH2 0x7C8 PUSH2 0x198D JUMP JUMPDEST PUSH1 0x40 MLOAD SWAP1 ISZERO ISZERO DUP2 MSTORE PUSH1 0x20 ADD PUSH1 0x40 MLOAD DUP1 SWAP2 SUB SWAP1 RETURN JUMPDEST PUSH2 0x32C PUSH2 0x1B3E JUMP JUMPDEST PUSH2 0x377 PUSH2 0x1B4A JUMP JUMPDEST PUSH2 0x7C8 PUSH1 0x4 DUP1 CALLDATASIZE SUB PUSH1 0x20 DUP2 LT ISZERO PUSH2 0x80B JUMPI PUSH1 0x0 DUP1 PUSH2 0x808 PUSH2 0x64D4 JUMP JUMPDEST POP POP JUMPDEST POP CALLDATALOAD PUSH1 0x1 PUSH1 0x1 PUSH1 0xA0 SHL SUB AND PUSH2 0x1B57 JUMP JUMPDEST PUSH2 0x470 PUSH1 0x4 DUP1 CALLDATASIZE SUB PUSH1 0x40 DUP2 LT ISZERO PUSH2 0x83A JUMPI PUSH1 0x0 DUP1 PUSH2 0x837 PUSH2 0x64D4 JUMP JUMPDEST POP POP JUMPDEST POP PUSH1 0x1 PUSH1 0x1 PUSH1 0xA0 SHL SUB DUP2 CALLDATALOAD AND SWAP1 PUSH1 0x20 ADD CALLDATALOAD PUSH2 0x1D31 JUMP JUMPDEST PUSH2 0x76D PUSH2 0x1D95 JUMP JUMPDEST PUSH2 0x322 PUSH2 0x1DA1 JUMP JUMPDEST PUSH2 0x377 PUSH1 0x4 DUP1 CALLDATASIZE SUB PUSH1 0x40 DUP2 LT ISZERO PUSH2 0x87F JUMPI PUSH1 0x0 DUP1 PUSH2 0x87C PUSH2 0x64D4 JUMP JUMPDEST POP POP JUMPDEST POP DUP1 CALLDATALOAD SWAP1 PUSH1 0x20 ADD CALLDATALOAD ISZERO ISZERO PUSH2 0x1F1F JUMP JUMPDEST PUSH2 0x322 PUSH1 0x4 DUP1 CALLDATASIZE SUB PUSH1 0x20 DUP2 LT ISZERO PUSH2 0x8AD JUMPI PUSH1 0x0 DUP1 PUSH2 0x8AA PUSH2 0x64D4 JUMP JUMPDEST POP POP JUMPDEST POP CALLDATALOAD PUSH2 0x1F33 JUMP JUMPDEST PUSH2 0x32C PUSH1 0x4 DUP1 CALLDATASIZE SUB PUSH1 0x20 DUP2 LT ISZERO PUSH2 0x8D3 JUMPI PUSH1 0x0 DUP1 PUSH2 0x8D0 PUSH2 0x64D4 JUMP JUMPDEST POP POP JUMPDEST POP CALLDATALOAD PUSH2 0x1FEE JUMP JUMPDEST PUSH2 0x322 PUSH1 0x4 DUP1 CALLDATASIZE SUB PUSH1 0x20 DUP2 LT ISZERO PUSH2 0x8F9 JUMPI PUSH1 0x0 DUP1 PUSH2 0x8F6 PUSH2 0x64D4 JUMP JUMPDEST POP POP JUMPDEST POP CALLDATALOAD PUSH1 0x1 PUSH1 0x1 PUSH1 0xA0 SHL SUB AND PUSH2 0x2018 JUMP JUMPDEST PUSH2 0x32C PUSH2 0x225F JUMP JUMPDEST PUSH2 0x322 PUSH1 0x4 DUP1 CALLDATASIZE SUB PUSH1 0x60 DUP2 LT ISZERO PUSH2 0x930 JUMPI PUSH1 0x0 DUP1 PUSH2 0x92D PUSH2 0x64D4 JUMP JUMPDEST POP POP JUMPDEST POP PUSH1 0x1 PUSH1 0x1 PUSH1 0xA0 SHL SUB DUP2 CALLDATALOAD DUP2 AND SWAP2 PUSH1 0x20 DUP2 ADD CALLDATALOAD SWAP1 SWAP2 AND SWAP1 PUSH1 0x40 ADD CALLDATALOAD PUSH2 0x226A JUMP JUMPDEST PUSH2 0x322 PUSH1 0x4 DUP1 CALLDATASIZE SUB PUSH1 0x80 DUP2 LT ISZERO PUSH2 0x96F JUMPI PUSH1 0x0 DUP1 PUSH2 0x96C PUSH2 0x64D4 JUMP JUMPDEST POP POP JUMPDEST POP PUSH1 0x40 DUP2 ADD PUSH2 0xCC0 JUMP JUMPDEST PUSH2 0x377 PUSH1 0x4 DUP1 CALLDATASIZE SUB PUSH1 0x20 DUP2 LT ISZERO PUSH2 0x998 JUMPI PUSH1 0x0 DUP1 PUSH2 0x995 PUSH2 0x64D4 JUMP JUMPDEST POP POP JUMPDEST POP CALLDATALOAD PUSH1 0x1 PUSH1 0x1 PUSH1 0xA0 SHL SUB AND PUSH2 0x2288 JUMP JUMPDEST PUSH2 0x377 PUSH1 0x4 DUP1 CALLDATASIZE SUB PUSH1 0x20 DUP2 LT ISZERO PUSH2 0x9C7 JUMPI PUSH1 0x0 DUP1 PUSH2 0x9C4 PUSH2 0x64D4 JUMP JUMPDEST POP POP JUMPDEST POP CALLDATALOAD PUSH1 0x1 PUSH1 0x1 PUSH1 0xA0 SHL SUB AND PUSH2 0x229A JUMP JUMPDEST PUSH2 0xA16 PUSH1 0x4 DUP1 CALLDATASIZE SUB PUSH1 0x60 DUP2 LT ISZERO PUSH2 0x9F6 JUMPI PUSH1 0x0 DUP1 PUSH2 0x9F3 PUSH2 0x64D4 JUMP JUMPDEST POP POP JUMPDEST POP PUSH1 0x1 PUSH1 0x1 PUSH1 0xA0 SHL SUB DUP2 CALLDATALOAD DUP2 AND SWAP2 PUSH1 0x20 DUP2 ADD CALLDATALOAD SWAP2 PUSH1 0x40 SWAP1 SWAP2 ADD CALLDATALOAD AND PUSH2 0x22A5 JUMP JUMPDEST PUSH1 0x40 MLOAD SWAP2 DUP3 MSTORE PUSH1 0x20 DUP3 ADD MSTORE PUSH1 0x40 SWAP1 DUP2 ADD SWAP1 MLOAD DUP1 SWAP2 SUB SWAP1 RETURN JUMPDEST PUSH2 0xA36 PUSH2 0x2A92 JUMP JUMPDEST PUSH1 0x40 MLOAD DUP1 DUP3 PUSH2 0x300 DUP1 DUP4 DUP4 PUSH1 0x0 JUMPDEST DUP4 DUP2 LT ISZERO PUSH2 0xA5C JUMPI DUP1 DUP3 ADD MLOAD DUP4 DUP3 ADD MSTORE PUSH1 0x20 ADD PUSH2 0xA44 JUMP JUMPDEST POP POP POP POP SWAP1 POP ADD SWAP2 POP POP PUSH1 0x40 MLOAD DUP1 SWAP2 SUB SWAP1 RETURN JUMPDEST PUSH2 0x470 PUSH1 0x4 DUP1 CALLDATASIZE SUB PUSH1 0x20 DUP2 LT ISZERO PUSH2 0xA8E JUMPI PUSH1 0x0 DUP1 PUSH2 0xA8B PUSH2 0x64D4 JUMP JUMPDEST POP POP JUMPDEST POP CALLDATALOAD PUSH1 0x1 PUSH1 0x1 PUSH1 0xA0 SHL SUB AND PUSH2 0x2AF4 JUMP JUMPDEST PUSH2 0x377 PUSH2 0x2B09 JUMP JUMPDEST PUSH2 0x322 PUSH1 0x4 DUP1 CALLDATASIZE SUB PUSH1 0x40 DUP2 LT ISZERO PUSH2 0xAC5 JUMPI PUSH1 0x0 DUP1 PUSH2 0xAC2 PUSH2 0x64D4 JUMP JUMPDEST POP POP JUMPDEST POP PUSH1 0x1 PUSH1 0x1 PUSH1 0xA0 SHL SUB DUP2 CALLDATALOAD AND SWAP1 PUSH1 0x20 ADD CALLDATALOAD PUSH2 0x2B13 JUMP JUMPDEST PUSH2 0x377 PUSH2 0x2B27 JUMP JUMPDEST PUSH2 0x7C8 PUSH2 0x2B31 JUMP JUMPDEST PUSH2 0x7C8 PUSH1 0x4 DUP1 CALLDATASIZE SUB PUSH1 0x20 DUP2 LT ISZERO PUSH2 0xB0A JUMPI PUSH1 0x0 DUP1 PUSH2 0xB07 PUSH2 0x64D4 JUMP JUMPDEST POP POP JUMPDEST POP CALLDATALOAD PUSH1 0x1 PUSH1 0x1 PUSH1 0xA0 SHL SUB AND PUSH2 0x2C2A JUMP JUMPDEST PUSH2 0x377 PUSH1 0x4 DUP1 CALLDATASIZE SUB PUSH1 0x20 DUP2 LT ISZERO PUSH2 0xB39 JUMPI PUSH1 0x0 DUP1 PUSH2 0xB36 PUSH2 0x64D4 JUMP JUMPDEST POP POP JUMPDEST POP CALLDATALOAD PUSH2 0x2C35 JUMP JUMPDEST PUSH2 0x322 PUSH1 0x4 DUP1 CALLDATASIZE SUB PUSH1 0x20 DUP2 LT ISZERO PUSH2 0xB5F JUMPI PUSH1 0x0 DUP1 PUSH2 0xB5C PUSH2 0x64D4 JUMP JUMPDEST POP POP JUMPDEST POP CALLDATALOAD PUSH1 0x1 PUSH1 0x1 PUSH1 0xA0 SHL SUB AND PUSH2 0x2C5D JUMP JUMPDEST PUSH2 0x377 PUSH1 0x4 DUP1 CALLDATASIZE SUB PUSH1 0x40 DUP2 LT ISZERO PUSH2 0xB8E JUMPI PUSH1 0x0 DUP1 PUSH2 0xB8B PUSH2 0x64D4 JUMP JUMPDEST POP POP JUMPDEST POP PUSH1 0x1 PUSH1 0x1 PUSH1 0xA0 SHL SUB DUP2 CALLDATALOAD AND SWAP1 PUSH1 0x20 ADD CALLDATALOAD PUSH2 0x2C72 JUMP JUMPDEST PUSH2 0x377 PUSH2 0x2D65 JUMP JUMPDEST PUSH2 0x377 PUSH1 0x4 DUP1 CALLDATASIZE SUB PUSH1 0x20 DUP2 LT ISZERO PUSH2 0xBCB JUMPI PUSH1 0x0 DUP1 PUSH2 0xBC8 PUSH2 0x64D4 JUMP JUMPDEST POP POP JUMPDEST POP CALLDATALOAD PUSH1 0x1 PUSH1 0x1 PUSH1 0xA0 SHL SUB AND PUSH2 0x2D78 JUMP JUMPDEST PUSH2 0x377 PUSH2 0x2D83 JUMP JUMPDEST PUSH2 0x322 PUSH1 0x4 DUP1 CALLDATASIZE SUB PUSH1 0x40 DUP2 LT ISZERO PUSH2 0xC02 JUMPI PUSH1 0x0 DUP1 PUSH2 0xBFF PUSH2 0x64D4 JUMP JUMPDEST POP POP JUMPDEST POP PUSH1 0x1 PUSH1 0x1 PUSH1 0xA0 SHL SUB DUP2 CALLDATALOAD DUP2 AND SWAP2 PUSH1 0x20 ADD CALLDATALOAD AND PUSH2 0x2D88 JUMP JUMPDEST PUSH2 0x322 PUSH1 0x4 DUP1 CALLDATASIZE SUB PUSH1 0x20 DUP2 LT ISZERO PUSH2 0xC39 JUMPI PUSH1 0x0 DUP1 PUSH2 0xC36 PUSH2 0x64D4 JUMP JUMPDEST POP POP JUMPDEST DUP2 ADD SWAP1 PUSH1 0x20 DUP2 ADD DUP2 CALLDATALOAD PUSH1 0x1 PUSH1 0x20 SHL DUP2 GT ISZERO PUSH2 0xC5C JUMPI PUSH1 0x0 DUP1 PUSH2 0xC59 PUSH2 0x64D4 JUMP JUMPDEST POP POP JUMPDEST DUP3 ADD DUP4 PUSH1 0x20 DUP3 ADD GT ISZERO PUSH2 0xC77 JUMPI PUSH1 0x0 DUP1 PUSH2 0xC74 PUSH2 0x64D4 JUMP JUMPDEST POP POP JUMPDEST DUP1 CALLDATALOAD SWAP1 PUSH1 0x20 ADD SWAP2 DUP5 PUSH1 0x20 DUP4 MUL DUP5 ADD GT PUSH1 0x1 PUSH1 0x20 SHL DUP4 GT OR ISZERO PUSH2 0xCA1 JUMPI PUSH1 0x0 DUP1 PUSH2 0xC9E PUSH2 0x64D4 JUMP JUMPDEST POP POP JUMPDEST POP SWAP1 SWAP3 POP SWAP1 POP PUSH2 0xCC0 JUMP JUMPDEST PUSH2 0xCB4 PUSH2 0x2DA7 JUMP JUMPDEST PUSH2 0xCC0 DUP3 DUP3 PUSH1 0x0 PUSH2 0x2E0E JUMP JUMPDEST POP POP JUMP JUMPDEST PUSH1 0x0 PUSH1 0x2 PUSH2 0xCD0 PUSH2 0x653F JUMP JUMPDEST SWAP1 PUSH2 0x100 EXP SWAP1 DIV PUSH1 0x1 PUSH1 0x1 PUSH1 0xA0 SHL SUB AND DUP2 JUMP JUMPDEST PUSH1 0x0 DUP1 PUSH2 0xCEF DUP4 PUSH2 0x2FB9 JUMP JUMPDEST POP SWAP2 POP POP JUMPDEST SWAP2 SWAP1 POP JUMP JUMPDEST PUSH2 0xD01 PUSH2 0x30B1 JUMP JUMPDEST PUSH1 0x0 DUP2 DUP2 MSTORE PUSH1 0x6 PUSH1 0x20 MSTORE PUSH1 0x40 DUP2 KECCAK256 PUSH1 0x0 SWAP1 PUSH2 0xD1A PUSH2 0x653F JUMP JUMPDEST PUSH1 0x1 PUSH1 0x1 PUSH1 0xA0 SHL SUB PUSH2 0x100 SWAP3 SWAP1 SWAP3 EXP SWAP1 DIV AND SWAP1 POP DUP1 PUSH2 0xD7F JUMPI PUSH1 0x40 MLOAD PUSH3 0x461BCD PUSH1 0xE5 SHL DUP2 MSTORE PUSH1 0x20 PUSH1 0x4 DUP3 ADD MSTORE PUSH1 0x14 PUSH1 0x24 DUP3 ADD MSTORE PUSH20 0x14DE5B9D1A08191BD95CC81B9BDD08195E1A5CDD PUSH1 0x62 SHL PUSH1 0x44 DUP3 ADD MSTORE PUSH1 0x64 ADD PUSH1 0x40 MLOAD DUP1 SWAP2 SUB SWAP1 PUSH2 0xD7C PUSH2 0x64D4 JUMP JUMPDEST POP POP JUMPDEST DUP1 PUSH1 0x1 PUSH1 0x1 PUSH1 0xA0 SHL SUB AND PUSH4 0x18160DDD PUSH1 0x40 MLOAD DUP2 PUSH4 0xFFFFFFFF AND PUSH1 0xE0 SHL DUP2 MSTORE PUSH1 0x4 ADD PUSH1 0x20 PUSH1 0x40 MLOAD DUP1 DUP4 SUB DUP2 DUP7 DUP1 PUSH2 0xDB3 PUSH2 0x659A JUMP JUMPDEST ISZERO DUP1 ISZERO PUSH2 0xDC8 JUMPI PUSH1 0x0 DUP1 PUSH2 0xDC5 PUSH2 0x64D4 JUMP JUMPDEST POP POP JUMPDEST POP GAS PUSH2 0xDD2 PUSH2 0x65E6 JUMP JUMPDEST POP POP POP POP POP ISZERO DUP1 ISZERO PUSH2 0xDF1 JUMPI RETURNDATASIZE PUSH1 0x0 DUP1 RETURNDATACOPY RETURNDATASIZE PUSH1 0x0 PUSH2 0xDEE PUSH2 0x64D4 JUMP JUMPDEST POP POP JUMPDEST POP POP POP POP PUSH1 0x40 MLOAD RETURNDATASIZE PUSH1 0x20 DUP2 LT ISZERO PUSH2 0xE10 JUMPI PUSH1 0x0 DUP1 PUSH2 0xE0D PUSH2 0x64D4 JUMP JUMPDEST POP POP JUMPDEST DUP2 ADD SWAP1 DUP1 DUP1 MLOAD ISZERO SWAP3 POP PUSH2 0xE6B SWAP2 POP POP JUMPI PUSH1 0x40 MLOAD PUSH3 0x461BCD PUSH1 0xE5 SHL DUP2 MSTORE PUSH1 0x20 PUSH1 0x4 DUP3 ADD MSTORE PUSH1 0x13 PUSH1 0x24 DUP3 ADD MSTORE PUSH19 0x53796E746820737570706C7920657869737473 PUSH1 0x68 SHL PUSH1 0x44 DUP3 ADD MSTORE PUSH1 0x64 ADD PUSH1 0x40 MLOAD DUP1 SWAP2 SUB SWAP1 PUSH2 0xE68 PUSH2 0x64D4 JUMP JUMPDEST POP POP JUMPDEST PUSH4 0x1CD554D1 PUSH1 0xE2 SHL DUP3 EQ ISZERO PUSH2 0xEC5 JUMPI PUSH1 0x40 MLOAD PUSH3 0x461BCD PUSH1 0xE5 SHL DUP2 MSTORE PUSH1 0x20 PUSH1 0x4 DUP3 ADD MSTORE PUSH1 0x13 PUSH1 0x24 DUP3 ADD MSTORE PUSH19 0x86C2DCDCDEE840E4CADADEECCA40E6F2DCE8D PUSH1 0x6B SHL PUSH1 0x44 DUP3 ADD MSTORE PUSH1 0x64 ADD PUSH1 0x40 MLOAD DUP1 SWAP2 SUB SWAP1 PUSH2 0xEC2 PUSH2 0x64D4 JUMP JUMPDEST POP POP JUMPDEST PUSH2 0xED0 DUP3 PUSH1 0x0 PUSH2 0x3129 JUMP JUMPDEST PUSH2 0xEE2 PUSH2 0xEDB PUSH2 0x31CF JUMP JUMPDEST PUSH1 0x1 PUSH2 0x3220 JUMP JUMPDEST PUSH1 0x0 JUMPDEST PUSH1 0x5 DUP1 PUSH2 0xEF0 PUSH2 0x653F JUMP JUMPDEST SWAP1 POP DUP2 LT ISZERO PUSH2 0x1049 JUMPI DUP2 PUSH1 0x1 PUSH1 0x1 PUSH1 0xA0 SHL SUB AND PUSH1 0x5 DUP3 DUP2 PUSH2 0xF0F PUSH2 0x653F JUMP JUMPDEST DUP2 LT PUSH2 0xF17 JUMPI INVALID JUMPDEST SWAP1 PUSH1 0x0 MSTORE PUSH1 0x20 PUSH1 0x0 KECCAK256 ADD PUSH1 0x0 SWAP1 PUSH2 0xF2C PUSH2 0x653F JUMP JUMPDEST SWAP1 PUSH2 0x100 EXP SWAP1 DIV PUSH1 0x1 PUSH1 0x1 PUSH1 0xA0 SHL SUB AND PUSH1 0x1 PUSH1 0x1 PUSH1 0xA0 SHL SUB AND EQ ISZERO PUSH2 0x1041 JUMPI PUSH1 0x5 DUP2 DUP2 PUSH2 0xF57 PUSH2 0x653F JUMP JUMPDEST DUP2 LT PUSH2 0xF5F JUMPI INVALID JUMPDEST SWAP1 PUSH1 0x0 MSTORE PUSH1 0x20 PUSH1 0x0 KECCAK256 ADD PUSH1 0x1 DUP2 PUSH2 0xF74 PUSH2 0x653F JUMP JUMPDEST SWAP1 PUSH1 0x1 PUSH1 0x1 PUSH1 0xA0 SHL SUB MUL NOT AND SWAP1 PUSH2 0xF89 PUSH2 0x669F JUMP JUMPDEST POP POP PUSH1 0x5 PUSH1 0x1 PUSH1 0x5 DUP1 PUSH2 0xF9A PUSH2 0x653F JUMP JUMPDEST SWAP1 POP SUB DUP2 PUSH2 0xFA6 PUSH2 0x653F JUMP JUMPDEST DUP2 LT PUSH2 0xFAE JUMPI INVALID JUMPDEST SWAP1 PUSH1 0x0 MSTORE PUSH1 0x20 PUSH1 0x0 KECCAK256 ADD PUSH1 0x0 SWAP1 PUSH2 0xFC3 PUSH2 0x653F JUMP JUMPDEST SWAP1 PUSH2 0x100 EXP SWAP1 DIV PUSH1 0x1 PUSH1 0x1 PUSH1 0xA0 SHL SUB AND PUSH1 0x5 DUP3 DUP2 PUSH2 0xFDF PUSH2 0x653F JUMP JUMPDEST DUP2 LT PUSH2 0xFE7 JUMPI INVALID JUMPDEST SWAP1 PUSH1 0x0 MSTORE PUSH1 0x20 PUSH1 0x0 KECCAK256 ADD PUSH1 0x1 DUP2 PUSH2 0xFFC PUSH2 0x653F JUMP JUMPDEST DUP2 PUSH1 0x1 PUSH1 0x1 PUSH1 0xA0 SHL SUB MUL NOT AND SWAP1 DUP4 PUSH1 0x1 PUSH1 0x1 PUSH1 0xA0 SHL SUB AND MUL OR SWAP1 PUSH2 0x101E PUSH2 0x669F JUMP JUMPDEST POP POP POP PUSH1 0x5 DUP1 PUSH2 0x102C PUSH2 0x653F JUMP JUMPDEST SWAP1 PUSH2 0x103B SWAP1 PUSH1 0x0 NOT DUP4 ADD PUSH2 0x66ED JUMP JUMPDEST POP PUSH2 0x1049 JUMP JUMPDEST PUSH1 0x1 ADD PUSH2 0xEE5 JUMP JUMPDEST POP PUSH1 0x1 PUSH1 0x1 PUSH1 0xA0 SHL SUB DUP2 AND PUSH1 0x0 SWAP1 DUP2 MSTORE PUSH1 0x7 PUSH1 0x20 MSTORE PUSH1 0x40 SWAP1 KECCAK256 PUSH1 0x0 SWAP1 PUSH2 0x106D PUSH2 0x669F JUMP JUMPDEST POP POP PUSH1 0x0 DUP3 DUP2 MSTORE PUSH1 0x6 PUSH1 0x20 MSTORE PUSH1 0x40 SWAP1 KECCAK256 PUSH1 0x1 DUP2 PUSH2 0x1088 PUSH2 0x653F JUMP JUMPDEST SWAP1 PUSH1 0x1 PUSH1 0x1 PUSH1 0xA0 SHL SUB MUL NOT AND SWAP1 PUSH2 0x109D PUSH2 0x669F JUMP JUMPDEST POP POP PUSH32 0x6166F5C475CC1CD535C6CDF14A6D5EDB811E34117031FC2863392A136EB655D0 DUP3 DUP3 PUSH1 0x40 MLOAD SWAP2 DUP3 MSTORE PUSH1 0x1 PUSH1 0x1 PUSH1 0xA0 SHL SUB AND PUSH1 0x20 DUP3 ADD MSTORE PUSH1 0x40 SWAP1 DUP2 ADD SWAP1 MLOAD DUP1 SWAP2 SUB SWAP1 LOG1 POP POP JUMP JUMPDEST PUSH1 0x0 DUP1 PUSH1 0x0 PUSH2 0x10F4 DUP5 PUSH2 0x332D JUMP JUMPDEST POP SWAP2 SWAP7 SWAP1 SWAP6 POP SWAP1 SWAP4 POP SWAP2 POP POP JUMP JUMPDEST PUSH2 0x110A PUSH2 0x30B1 JUMP JUMPDEST DUP1 PUSH1 0x1 DUP1 DUP1 PUSH2 0x1117 PUSH2 0x653F JUMP JUMPDEST DUP2 PUSH1 0x1 PUSH1 0x1 PUSH1 0xA0 SHL SUB MUL NOT AND SWAP1 DUP4 PUSH1 0x1 PUSH1 0x1 PUSH1 0xA0 SHL SUB AND MUL OR SWAP1 PUSH2 0x1139 PUSH2 0x669F JUMP JUMPDEST POP POP POP PUSH32 0x906A1C6BD7E3091EA86693DD029A831C19049CE77F1DCE2CE0BAB1CACBABCE22 DUP2 PUSH1 0x40 MLOAD PUSH1 0x1 PUSH1 0x1 PUSH1 0xA0 SHL SUB SWAP1 SWAP2 AND DUP2 MSTORE PUSH1 0x20 ADD PUSH1 0x40 MLOAD DUP1 SWAP2 SUB SWAP1 LOG1 POP JUMP JUMPDEST PUSH1 0x7 PUSH1 0x20 MSTORE DUP1 PUSH1 0x0 MSTORE PUSH1 0x40 PUSH1 0x0 KECCAK256 SWAP1 POP PUSH2 0x1194 PUSH2 0x653F JUMP JUMPDEST DUP2 JUMP JUMPDEST PUSH2 0x119F PUSH2 0x3395 JUMP JUMPDEST PUSH1 0x0 PUSH2 0x11A9 PUSH2 0x31CF JUMP JUMPDEST SWAP1 POP PUSH2 0x1262 PUSH4 0x1CD554D1 PUSH1 0xE2 SHL PUSH20 0x0 PUSH4 0x907AF6C0 PUSH1 0x40 MLOAD DUP2 PUSH4 0xFFFFFFFF AND PUSH1 0xE0 SHL DUP2 MSTORE PUSH1 0x4 ADD PUSH1 0x20 PUSH1 0x40 MLOAD DUP1 DUP4 SUB DUP2 DUP7 DUP1 PUSH2 0x11F5 PUSH2 0x659A JUMP JUMPDEST ISZERO DUP1 ISZERO PUSH2 0x120A JUMPI PUSH1 0x0 DUP1 PUSH2 0x1207 PUSH2 0x64D4 JUMP JUMPDEST POP POP JUMPDEST POP GAS PUSH2 0x1214 PUSH2 0x6721 JUMP JUMPDEST POP POP POP POP POP ISZERO DUP1 ISZERO PUSH2 0x1233 JUMPI RETURNDATASIZE PUSH1 0x0 DUP1 RETURNDATACOPY RETURNDATASIZE PUSH1 0x0 PUSH2 0x1230 PUSH2 0x64D4 JUMP JUMPDEST POP POP JUMPDEST POP POP POP POP PUSH1 0x40 MLOAD RETURNDATASIZE PUSH1 0x20 DUP2 LT ISZERO PUSH2 0x1252 JUMPI PUSH1 0x0 DUP1 PUSH2 0x124F PUSH2 0x64D4 JUMP JUMPDEST POP POP JUMPDEST DUP2 ADD SWAP1 DUP1 DUP1 MLOAD SWAP3 POP PUSH2 0x3129 SWAP2 POP POP JUMP JUMPDEST DUP1 PUSH1 0x1 PUSH1 0x1 PUSH1 0xA0 SHL SUB AND PUSH4 0x1D5B277F PUSH6 0x24B9B9BAB2B9 PUSH1 0xD1 SHL PUSH32 0x636163686564534E584973737565644465627454696D657374616D7000000000 GAS PUSH2 0x12A5 PUSH2 0x6764 JUMP JUMPDEST PUSH1 0x40 MLOAD PUSH1 0x1 PUSH1 0x1 PUSH1 0xE0 SHL SUB NOT PUSH1 0xE0 DUP7 SWAP1 SHL AND DUP2 MSTORE PUSH1 0x4 DUP2 ADD SWAP4 SWAP1 SWAP4 MSTORE PUSH1 0x24 DUP4 ADD SWAP2 SWAP1 SWAP2 MSTORE PUSH1 0x44 DUP3 ADD MSTORE PUSH1 0x64 ADD PUSH1 0x0 PUSH1 0x40 MLOAD DUP1 DUP4 SUB DUP2 PUSH1 0x0 DUP8 DUP1 PUSH2 0x12E6 PUSH2 0x659A JUMP JUMPDEST ISZERO DUP1 ISZERO PUSH2 0x12FB JUMPI PUSH1 0x0 DUP1 PUSH2 0x12F8 PUSH2 0x64D4 JUMP JUMPDEST POP POP JUMPDEST POP GAS PUSH2 0x1305 PUSH2 0x67AA JUMP JUMPDEST POP POP POP POP POP POP ISZERO DUP1 ISZERO PUSH2 0x1325 JUMPI RETURNDATASIZE PUSH1 0x0 DUP1 RETURNDATACOPY RETURNDATASIZE PUSH1 0x0 PUSH2 0x1322 PUSH2 0x64D4 JUMP JUMPDEST POP POP JUMPDEST POP POP POP POP PUSH2 0x1334 DUP2 PUSH1 0x0 PUSH2 0x3220 JUMP JUMPDEST POP JUMP JUMPDEST PUSH1 0x0 DUP1 PUSH1 0x60 PUSH1 0x0 PUSH2 0x1350 PUSH2 0x134B PUSH1 0x0 PUSH2 0x344E JUMP JUMPDEST PUSH2 0x1422 JUMP JUMPDEST SWAP2 POP SWAP2 POP PUSH1 0x0 DUP3 MLOAD SWAP1 POP PUSH1 0x0 DUP1 JUMPDEST DUP3 DUP2 LT ISZERO PUSH2 0x1394 JUMPI PUSH2 0x138A DUP6 DUP3 DUP2 MLOAD DUP2 LT PUSH2 0x1375 JUMPI INVALID JUMPDEST PUSH1 0x20 MUL PUSH1 0x20 ADD ADD MLOAD DUP4 SWAP1 PUSH4 0xFFFFFFFF PUSH2 0x3570 AND JUMP JUMPDEST SWAP2 POP PUSH1 0x1 ADD PUSH2 0x135E JUMP JUMPDEST POP SWAP5 POP SWAP1 SWAP3 POP POP POP SWAP1 SWAP2 JUMP JUMPDEST PUSH1 0x0 PUSH2 0x13AA PUSH2 0x35D9 JUMP JUMPDEST SWAP1 POP JUMPDEST SWAP1 JUMP JUMPDEST PUSH2 0x13B8 PUSH2 0x2DA7 JUMP JUMPDEST PUSH2 0x13C2 DUP3 DUP3 PUSH2 0x36B9 JUMP JUMPDEST PUSH2 0xCC0 DUP3 PUSH1 0x0 PUSH1 0x1 PUSH2 0x37D0 JUMP JUMPDEST PUSH1 0x6 PUSH1 0x20 MSTORE DUP1 PUSH1 0x0 MSTORE PUSH1 0x40 PUSH1 0x0 KECCAK256 PUSH1 0x0 SWAP2 POP PUSH2 0xCD0 PUSH2 0x653F JUMP JUMPDEST PUSH1 0x0 DUP1 PUSH1 0x0 DUP1 PUSH2 0x13F7 PUSH2 0x31CF JUMP JUMPDEST SWAP1 POP PUSH1 0x0 DUP1 PUSH2 0x1405 DUP4 PUSH2 0x3B69 JUMP JUMPDEST SWAP2 POP SWAP2 POP DUP2 DUP2 PUSH2 0x1414 DUP6 PUSH2 0x3DE4 JUMP JUMPDEST SWAP6 POP SWAP6 POP SWAP6 POP POP POP POP SWAP1 SWAP2 SWAP3 JUMP JUMPDEST PUSH1 0x60 PUSH1 0x0 PUSH1 0x60 PUSH1 0x0 PUSH2 0x1432 PUSH2 0x3EC3 JUMP JUMPDEST PUSH1 0x1 PUSH1 0x1 PUSH1 0xA0 SHL SUB AND PUSH4 0xC8E5BBD5 DUP7 PUSH1 0x40 MLOAD DUP3 PUSH4 0xFFFFFFFF AND PUSH1 0xE0 SHL DUP2 MSTORE PUSH1 0x4 ADD DUP1 DUP1 PUSH1 0x20 ADD DUP3 DUP2 SUB DUP3 MSTORE DUP4 DUP2 DUP2 MLOAD DUP2 MSTORE PUSH1 0x20 ADD SWAP2 POP DUP1 MLOAD SWAP1 PUSH1 0x20 ADD SWAP1 PUSH1 0x20 MUL DUP1 DUP4 DUP4 PUSH1 0x0 JUMPDEST DUP4 DUP2 LT ISZERO PUSH2 0x1490 JUMPI DUP1 DUP3 ADD MLOAD DUP4 DUP3 ADD MSTORE PUSH1 0x20 ADD PUSH2 0x1478 JUMP JUMPDEST POP POP POP POP SWAP1 POP ADD SWAP3 POP POP POP PUSH1 0x0 PUSH1 0x40 MLOAD DUP1 DUP4 SUB DUP2 DUP7 DUP1 PUSH2 0x14AE PUSH2 0x659A JUMP JUMPDEST ISZERO DUP1 ISZERO PUSH2 0x14C3 JUMPI PUSH1 0x0 DUP1 PUSH2 0x14C0 PUSH2 0x64D4 JUMP JUMPDEST POP POP JUMPDEST POP GAS PUSH2 0x14CD PUSH2 0x65E6 JUMP JUMPDEST POP POP POP POP POP ISZERO DUP1 ISZERO PUSH2 0x14EC JUMPI RETURNDATASIZE PUSH1 0x0 DUP1 RETURNDATACOPY RETURNDATASIZE PUSH1 0x0 PUSH2 0x14E9 PUSH2 0x64D4 JUMP JUMPDEST POP POP JUMPDEST POP POP POP POP PUSH1 0x40 MLOAD RETURNDATASIZE PUSH1 0x0 DUP3 RETURNDATACOPY PUSH1 0x1F RETURNDATASIZE SWAP1 DUP2 ADD PUSH1 0x1F NOT AND DUP3 ADD PUSH1 0x40 SWAP1 DUP2 MSTORE DUP2 LT ISZERO PUSH2 0x151E JUMPI PUSH1 0x0 DUP1 PUSH2 0x151B PUSH2 0x64D4 JUMP JUMPDEST POP POP JUMPDEST DUP2 ADD SWAP1 DUP1 DUP1 MLOAD PUSH1 0x40 MLOAD SWAP4 SWAP3 SWAP2 SWAP1 DUP5 PUSH1 0x1 PUSH1 0x20 SHL DUP3 GT ISZERO PUSH2 0x1546 JUMPI PUSH1 0x0 DUP1 PUSH2 0x1543 PUSH2 0x64D4 JUMP JUMPDEST POP POP JUMPDEST SWAP1 DUP4 ADD SWAP1 PUSH1 0x20 DUP3 ADD DUP6 DUP2 GT ISZERO PUSH2 0x1564 JUMPI PUSH1 0x0 DUP1 PUSH2 0x1561 PUSH2 0x64D4 JUMP JUMPDEST POP POP JUMPDEST DUP3 MLOAD DUP7 PUSH1 0x20 DUP3 MUL DUP4 ADD GT PUSH1 0x1 PUSH1 0x20 SHL DUP3 GT OR ISZERO PUSH2 0x1589 JUMPI PUSH1 0x0 DUP1 PUSH2 0x1586 PUSH2 0x64D4 JUMP JUMPDEST POP POP JUMPDEST DUP3 MSTORE POP PUSH1 0x20 ADD SWAP1 DUP1 MLOAD SWAP1 PUSH1 0x20 ADD SWAP1 PUSH1 0x20 MUL DUP1 DUP4 DUP4 PUSH1 0x0 JUMPDEST DUP4 DUP2 LT ISZERO PUSH2 0x15B8 JUMPI DUP1 DUP3 ADD MLOAD DUP4 DUP3 ADD MSTORE PUSH1 0x20 ADD PUSH2 0x15A0 JUMP JUMPDEST POP POP POP POP SWAP1 POP ADD PUSH1 0x40 MSTORE PUSH1 0x20 ADD DUP1 MLOAD SWAP4 SWAP6 POP SWAP3 SWAP4 POP PUSH2 0x15DD SWAP3 POP DUP8 SWAP2 POP DUP5 SWAP1 POP PUSH2 0x3F12 JUMP JUMPDEST SWAP4 POP SWAP2 POP POP JUMPDEST SWAP2 POP SWAP2 JUMP JUMPDEST PUSH2 0x15F0 PUSH2 0x30B1 JUMP JUMPDEST DUP1 PUSH1 0x2 PUSH1 0x1 DUP2 PUSH2 0x15FE PUSH2 0x653F JUMP JUMPDEST DUP2 PUSH1 0x1 PUSH1 0x1 PUSH1 0xA0 SHL SUB MUL NOT AND SWAP1 DUP4 PUSH1 0x1 PUSH1 0x1 PUSH1 0xA0 SHL SUB AND MUL OR SWAP1 PUSH2 0x1620 PUSH2 0x669F JUMP JUMPDEST POP PUSH1 0x0 SWAP2 POP POP JUMPDEST PUSH1 0x4 DUP1 PUSH2 0x1632 PUSH2 0x653F JUMP JUMPDEST SWAP1 POP DUP2 LT ISZERO PUSH2 0xCC0 JUMPI PUSH1 0x0 PUSH1 0x4 DUP3 DUP2 PUSH2 0x1649 PUSH2 0x653F JUMP JUMPDEST DUP2 LT PUSH2 0x1651 JUMPI INVALID JUMPDEST SWAP1 PUSH1 0x0 MSTORE PUSH1 0x20 PUSH1 0x0 KECCAK256 ADD PUSH2 0x1663 PUSH2 0x653F JUMP JUMPDEST SWAP1 POP PUSH1 0x0 PUSH1 0x2 PUSH2 0x1671 PUSH2 0x653F JUMP JUMPDEST SWAP1 PUSH2 0x100 EXP SWAP1 DIV PUSH1 0x1 PUSH1 0x1 PUSH1 0xA0 SHL SUB AND PUSH1 0x1 PUSH1 0x1 PUSH1 0xA0 SHL SUB AND PUSH4 0xDACB2D01 DUP3 PUSH1 0x40 MLOAD PUSH1 0x1 PUSH1 0x1 PUSH1 0xE0 SHL SUB NOT PUSH1 0xE0 DUP5 SWAP1 SHL AND DUP2 MSTORE PUSH1 0x4 DUP2 ADD SWAP2 SWAP1 SWAP2 MSTORE PUSH1 0x40 PUSH1 0x24 DUP3 ADD DUP2 SWAP1 MSTORE PUSH1 0x17 PUSH1 0x44 DUP4 ADD MSTORE PUSH32 0x5265736F6C766572206D697373696E6720746172676574000000000000000000 PUSH1 0x64 DUP4 ADD MSTORE PUSH1 0x84 SWAP1 SWAP2 ADD SWAP1 PUSH1 0x20 SWAP1 MLOAD DUP1 DUP4 SUB DUP2 DUP7 DUP1 PUSH2 0x16FA PUSH2 0x659A JUMP JUMPDEST ISZERO DUP1 ISZERO PUSH2 0x170F JUMPI PUSH1 0x0 DUP1 PUSH2 0x170C PUSH2 0x64D4 JUMP JUMPDEST POP POP JUMPDEST POP GAS PUSH2 0x1719 PUSH2 0x65E6 JUMP JUMPDEST POP POP POP POP POP ISZERO DUP1 ISZERO PUSH2 0x1738 JUMPI RETURNDATASIZE PUSH1 0x0 DUP1 RETURNDATACOPY RETURNDATASIZE PUSH1 0x0 PUSH2 0x1735 PUSH2 0x64D4 JUMP JUMPDEST POP POP JUMPDEST POP POP POP POP PUSH1 0x40 MLOAD RETURNDATASIZE PUSH1 0x20 DUP2 LT ISZERO PUSH2 0x1757 JUMPI PUSH1 0x0 DUP1 PUSH2 0x1754 PUSH2 0x64D4 JUMP JUMPDEST POP POP JUMPDEST DUP2 ADD SWAP1 DUP1 DUP1 MLOAD PUSH1 0x0 DUP6 DUP2 MSTORE PUSH1 0x3 PUSH1 0x20 MSTORE SWAP1 SWAP4 POP PUSH1 0x40 SWAP3 POP SWAP1 POP KECCAK256 PUSH1 0x1 DUP2 PUSH2 0x177C PUSH2 0x653F JUMP JUMPDEST DUP2 PUSH1 0x1 PUSH1 0x1 PUSH1 0xA0 SHL SUB MUL NOT AND SWAP1 DUP4 PUSH1 0x1 PUSH1 0x1 PUSH1 0xA0 SHL SUB AND MUL OR SWAP1 PUSH2 0x179E PUSH2 0x669F JUMP JUMPDEST POP POP PUSH1 0x1 SWAP1 SWAP3 ADD SWAP2 POP PUSH2 0x1627 SWAP1 POP JUMP JUMPDEST PUSH2 0x17B6 PUSH2 0x2DA7 JUMP JUMPDEST PUSH2 0x17C0 DUP4 DUP4 PUSH2 0x4176 JUMP JUMPDEST PUSH2 0x17CC DUP4 DUP3 PUSH1 0x0 PUSH2 0x2E0E JUMP JUMPDEST POP POP POP JUMP JUMPDEST PUSH2 0x17D9 PUSH2 0x2DA7 JUMP JUMPDEST PUSH2 0x1334 DUP2 PUSH1 0x0 PUSH1 0x1 PUSH2 0x37D0 JUMP JUMPDEST PUSH1 0x60 PUSH2 0x17F0 PUSH2 0x31CF JUMP JUMPDEST PUSH1 0x1 PUSH1 0x1 PUSH1 0xA0 SHL SUB AND PUSH4 0xB67FA7ED PUSH6 0x24B9B9BAB2B9 PUSH1 0xD1 SHL DUP6 DUP6 PUSH1 0x40 MLOAD DUP5 PUSH4 0xFFFFFFFF AND PUSH1 0xE0 SHL DUP2 MSTORE PUSH1 0x4 ADD DUP1 DUP5 DUP2 MSTORE PUSH1 0x20 ADD DUP1 PUSH1 0x20 ADD DUP3 DUP2 SUB DUP3 MSTORE DUP5 DUP5 DUP3 DUP2 DUP2 MSTORE PUSH1 0x20 ADD SWAP3 POP PUSH1 0x20 MUL DUP1 DUP3 DUP5 CALLDATACOPY PUSH1 0x0 DUP4 DUP3 ADD DUP2 SWAP1 MSTORE PUSH1 0x1F SWAP1 SWAP2 ADD PUSH1 0x1F NOT AND SWAP1 SWAP3 ADD SWAP7 POP SWAP1 SWAP5 POP PUSH1 0x40 SWAP4 POP POP POP POP MLOAD DUP1 DUP4 SUB DUP2 DUP7 DUP1 PUSH2 0x186D PUSH2 0x659A JUMP JUMPDEST ISZERO DUP1 ISZERO PUSH2 0x1882 JUMPI PUSH1 0x0 DUP1 PUSH2 0x187F PUSH2 0x64D4 JUMP JUMPDEST POP POP JUMPDEST POP GAS PUSH2 0x188C PUSH2 0x65E6 JUMP JUMPDEST POP POP POP POP POP ISZERO DUP1 ISZERO PUSH2 0x18AB JUMPI RETURNDATASIZE PUSH1 0x0 DUP1 RETURNDATACOPY RETURNDATASIZE PUSH1 0x0 PUSH2 0x18A8 PUSH2 0x64D4 JUMP JUMPDEST POP POP JUMPDEST POP POP POP POP PUSH1 0x40 MLOAD RETURNDATASIZE PUSH1 0x0 DUP3 RETURNDATACOPY PUSH1 0x1F RETURNDATASIZE SWAP1 DUP2 ADD PUSH1 0x1F NOT AND DUP3 ADD PUSH1 0x40 MSTORE PUSH1 0x20 DUP2 LT ISZERO PUSH2 0x18DD JUMPI PUSH1 0x0 DUP1 PUSH2 0x18DA PUSH2 0x64D4 JUMP JUMPDEST POP POP JUMPDEST DUP2 ADD SWAP1 DUP1 DUP1 MLOAD PUSH1 0x40 MLOAD SWAP4 SWAP3 SWAP2 SWAP1 DUP5 PUSH1 0x1 PUSH1 0x20 SHL DUP3 GT ISZERO PUSH2 0x1905 JUMPI PUSH1 0x0 DUP1 PUSH2 0x1902 PUSH2 0x64D4 JUMP JUMPDEST POP POP JUMPDEST SWAP1 DUP4 ADD SWAP1 PUSH1 0x20 DUP3 ADD DUP6 DUP2 GT ISZERO PUSH2 0x1923 JUMPI PUSH1 0x0 DUP1 PUSH2 0x1920 PUSH2 0x64D4 JUMP JUMPDEST POP POP JUMPDEST DUP3 MLOAD DUP7 PUSH1 0x20 DUP3 MUL DUP4 ADD GT PUSH1 0x1 PUSH1 0x20 SHL DUP3 GT OR ISZERO PUSH2 0x1948 JUMPI PUSH1 0x0 DUP1 PUSH2 0x1945 PUSH2 0x64D4 JUMP JUMPDEST POP POP JUMPDEST DUP3 MSTORE POP PUSH1 0x20 ADD SWAP1 DUP1 MLOAD SWAP1 PUSH1 0x20 ADD SWAP1 PUSH1 0x20 MUL DUP1 DUP4 DUP4 PUSH1 0x0 JUMPDEST DUP4 DUP2 LT ISZERO PUSH2 0x1977 JUMPI DUP1 DUP3 ADD MLOAD DUP4 DUP3 ADD MSTORE PUSH1 0x20 ADD PUSH2 0x195F JUMP JUMPDEST POP POP POP POP SWAP1 POP ADD PUSH1 0x40 MSTORE POP POP POP SWAP1 POP JUMPDEST SWAP3 SWAP2 POP POP JUMP JUMPDEST PUSH1 0x0 PUSH2 0x1997 PUSH2 0x3EC3 JUMP JUMPDEST PUSH1 0x1 PUSH1 0x1 PUSH1 0xA0 SHL SUB AND PUSH4 0xC8E5BBD5 PUSH2 0x19AF PUSH1 0x1 PUSH2 0x344E JUMP JUMPDEST PUSH1 0x40 MLOAD DUP3 PUSH4 0xFFFFFFFF AND PUSH1 0xE0 SHL DUP2 MSTORE PUSH1 0x4 ADD DUP1 DUP1 PUSH1 0x20 ADD DUP3 DUP2 SUB DUP3 MSTORE DUP4 DUP2 DUP2 MLOAD DUP2 MSTORE PUSH1 0x20 ADD SWAP2 POP DUP1 MLOAD SWAP1 PUSH1 0x20 ADD SWAP1 PUSH1 0x20 MUL DUP1 DUP4 DUP4 PUSH1 0x0 JUMPDEST DUP4 DUP2 LT ISZERO PUSH2 0x19FE JUMPI DUP1 DUP3 ADD MLOAD DUP4 DUP3 ADD MSTORE PUSH1 0x20 ADD PUSH2 0x19E6 JUMP JUMPDEST POP POP POP POP SWAP1 POP ADD SWAP3 POP POP POP PUSH1 0x0 PUSH1 0x40 MLOAD DUP1 DUP4 SUB DUP2 DUP7 DUP1 PUSH2 0x1A1C PUSH2 0x659A JUMP JUMPDEST ISZERO DUP1 ISZERO PUSH2 0x1A31 JUMPI PUSH1 0x0 DUP1 PUSH2 0x1A2E PUSH2 0x64D4 JUMP JUMPDEST POP POP JUMPDEST POP GAS PUSH2 0x1A3B PUSH2 0x65E6 JUMP JUMPDEST POP POP POP POP POP ISZERO DUP1 ISZERO PUSH2 0x1A5A JUMPI RETURNDATASIZE PUSH1 0x0 DUP1 RETURNDATACOPY RETURNDATASIZE PUSH1 0x0 PUSH2 0x1A57 PUSH2 0x64D4 JUMP JUMPDEST POP POP JUMPDEST POP POP POP POP PUSH1 0x40 MLOAD RETURNDATASIZE PUSH1 0x0 DUP3 RETURNDATACOPY PUSH1 0x1F RETURNDATASIZE SWAP1 DUP2 ADD PUSH1 0x1F NOT AND DUP3 ADD PUSH1 0x40 SWAP1 DUP2 MSTORE DUP2 LT ISZERO PUSH2 0x1A8C JUMPI PUSH1 0x0 DUP1 PUSH2 0x1A89 PUSH2 0x64D4 JUMP JUMPDEST POP POP JUMPDEST DUP2 ADD SWAP1 DUP1 DUP1 MLOAD PUSH1 0x40 MLOAD SWAP4 SWAP3 SWAP2 SWAP1 DUP5 PUSH1 0x1 PUSH1 0x20 SHL DUP3 GT ISZERO PUSH2 0x1AB4 JUMPI PUSH1 0x0 DUP1 PUSH2 0x1AB1 PUSH2 0x64D4 JUMP JUMPDEST POP POP JUMPDEST SWAP1 DUP4 ADD SWAP1 PUSH1 0x20 DUP3 ADD DUP6 DUP2 GT ISZERO PUSH2 0x1AD2 JUMPI PUSH1 0x0 DUP1 PUSH2 0x1ACF PUSH2 0x64D4 JUMP JUMPDEST POP POP JUMPDEST DUP3 MLOAD DUP7 PUSH1 0x20 DUP3 MUL DUP4 ADD GT PUSH1 0x1 PUSH1 0x20 SHL DUP3 GT OR ISZERO PUSH2 0x1AF7 JUMPI PUSH1 0x0 DUP1 PUSH2 0x1AF4 PUSH2 0x64D4 JUMP JUMPDEST POP POP JUMPDEST DUP3 MSTORE POP PUSH1 0x20 ADD SWAP1 DUP1 MLOAD SWAP1 PUSH1 0x20 ADD SWAP1 PUSH1 0x20 MUL DUP1 DUP4 DUP4 PUSH1 0x0 JUMPDEST DUP4 DUP2 LT ISZERO PUSH2 0x1B26 JUMPI DUP1 DUP3 ADD MLOAD DUP4 DUP3 ADD MSTORE PUSH1 0x20 ADD PUSH2 0x1B0E JUMP JUMPDEST POP POP POP POP SWAP1 POP ADD PUSH1 0x40 MSTORE PUSH1 0x20 ADD DUP1 MLOAD SWAP6 SWAP5 POP POP POP POP POP JUMP JUMPDEST PUSH1 0x0 PUSH1 0x1 PUSH2 0xCD0 PUSH2 0x653F JUMP JUMPDEST PUSH6 0x24B9B9BAB2B9 PUSH1 0xD1 SHL DUP2 JUMP JUMPDEST PUSH1 0x0 PUSH1 0x1 PUSH1 0x1 PUSH1 0xA0 SHL SUB DUP3 AND DUP2 PUSH1 0x2 PUSH2 0x1B6E PUSH2 0x653F JUMP JUMPDEST SWAP1 PUSH2 0x100 EXP SWAP1 DIV PUSH1 0x1 PUSH1 0x1 PUSH1 0xA0 SHL SUB AND PUSH1 0x1 PUSH1 0x1 PUSH1 0xA0 SHL SUB AND EQ PUSH2 0x1B94 JUMPI POP PUSH1 0x0 PUSH2 0xCF4 JUMP JUMPDEST PUSH1 0x0 JUMPDEST PUSH1 0x4 DUP1 PUSH2 0x1BA2 PUSH2 0x653F JUMP JUMPDEST SWAP1 POP DUP2 LT ISZERO PUSH2 0x1D28 JUMPI PUSH1 0x0 PUSH1 0x4 DUP3 DUP2 PUSH2 0x1BB9 PUSH2 0x653F JUMP JUMPDEST DUP2 LT PUSH2 0x1BC1 JUMPI INVALID JUMPDEST SWAP1 PUSH1 0x0 MSTORE PUSH1 0x20 PUSH1 0x0 KECCAK256 ADD PUSH2 0x1BD3 PUSH2 0x653F JUMP JUMPDEST PUSH1 0x0 DUP2 DUP2 MSTORE PUSH1 0x3 PUSH1 0x20 MSTORE SWAP1 SWAP2 POP PUSH1 0x40 SWAP1 KECCAK256 PUSH1 0x0 SWAP1 PUSH2 0x1BEF PUSH2 0x653F JUMP JUMPDEST PUSH1 0x1 PUSH1 0x1 PUSH1 0xA0 SHL SUB PUSH2 0x100 SWAP3 SWAP1 SWAP3 EXP SWAP1 DIV AND PUSH1 0x0 PUSH1 0x2 PUSH2 0x1C0D PUSH2 0x653F JUMP JUMPDEST SWAP1 PUSH2 0x100 EXP SWAP1 DIV PUSH1 0x1 PUSH1 0x1 PUSH1 0xA0 SHL SUB AND PUSH1 0x1 PUSH1 0x1 PUSH1 0xA0 SHL SUB AND PUSH4 0x21F8A721 DUP4 PUSH1 0x40 MLOAD PUSH1 0x1 PUSH1 0x1 PUSH1 0xE0 SHL SUB NOT PUSH1 0xE0 DUP5 SWAP1 SHL AND DUP2 MSTORE PUSH1 0x4 DUP2 ADD SWAP2 SWAP1 SWAP2 MSTORE PUSH1 0x24 ADD PUSH1 0x20 PUSH1 0x40 MLOAD DUP1 DUP4 SUB DUP2 DUP7 DUP1 PUSH2 0x1C5E PUSH2 0x659A JUMP JUMPDEST ISZERO DUP1 ISZERO PUSH2 0x1C73 JUMPI PUSH1 0x0 DUP1 PUSH2 0x1C70 PUSH2 0x64D4 JUMP JUMPDEST POP POP JUMPDEST POP GAS PUSH2 0x1C7D PUSH2 0x65E6 JUMP JUMPDEST POP POP POP POP POP ISZERO DUP1 ISZERO PUSH2 0x1C9C JUMPI RETURNDATASIZE PUSH1 0x0 DUP1 RETURNDATACOPY RETURNDATASIZE PUSH1 0x0 PUSH2 0x1C99 PUSH2 0x64D4 JUMP JUMPDEST POP POP JUMPDEST POP POP POP POP PUSH1 0x40 MLOAD RETURNDATASIZE PUSH1 0x20 DUP2 LT ISZERO PUSH2 0x1CBB JUMPI PUSH1 0x0 DUP1 PUSH2 0x1CB8 PUSH2 0x64D4 JUMP JUMPDEST POP POP JUMPDEST DUP2 ADD SWAP1 DUP1 DUP1 MLOAD PUSH1 0x1 PUSH1 0x1 PUSH1 0xA0 SHL SUB AND SWAP4 SWAP1 SWAP4 EQ ISZERO SWAP3 POP DUP3 SWAP2 POP PUSH2 0x1D0F SWAP1 POP JUMPI POP PUSH1 0x0 DUP2 DUP2 MSTORE PUSH1 0x3 PUSH1 0x20 MSTORE PUSH1 0x40 DUP2 KECCAK256 PUSH1 0x0 SWAP1 PUSH2 0x1CF4 PUSH2 0x653F JUMP JUMPDEST SWAP1 PUSH2 0x100 EXP SWAP1 DIV PUSH1 0x1 PUSH1 0x1 PUSH1 0xA0 SHL SUB AND PUSH1 0x1 PUSH1 0x1 PUSH1 0xA0 SHL SUB AND EQ JUMPDEST ISZERO PUSH2 0x1D1F JUMPI PUSH1 0x0 SWAP3 POP POP POP PUSH2 0xCF4 JUMP JUMPDEST POP PUSH1 0x1 ADD PUSH2 0x1B97 JUMP JUMPDEST POP PUSH1 0x1 SWAP3 SWAP2 POP POP JUMP JUMPDEST PUSH1 0x0 DUP1 PUSH1 0x0 PUSH2 0x1D46 DUP6 PUSH3 0xA69CB PUSH1 0xEB SHL PUSH2 0x41CF JUMP JUMPDEST SWAP4 POP SWAP1 SWAP2 POP PUSH1 0x0 SWAP1 POP PUSH2 0x1D67 PUSH2 0x1D5A PUSH2 0x4455 JUMP JUMPDEST DUP4 SWAP1 PUSH4 0xFFFFFFFF PUSH2 0x44C7 AND JUMP JUMPDEST SWAP1 POP DUP5 DUP2 LT PUSH2 0x1D79 JUMPI PUSH1 0x0 SWAP4 POP PUSH2 0x1D8C JUMP JUMPDEST PUSH2 0x1D89 DUP6 DUP3 PUSH4 0xFFFFFFFF PUSH2 0x44DC AND JUMP JUMPDEST SWAP4 POP JUMPDEST POP POP SWAP3 POP SWAP3 SWAP1 POP JUMP JUMPDEST PUSH1 0x60 PUSH2 0x13AA PUSH1 0x0 PUSH2 0x344E JUMP JUMPDEST PUSH1 0x0 PUSH1 0x1 PUSH2 0x1DAD PUSH2 0x653F JUMP JUMPDEST SWAP1 PUSH2 0x100 EXP SWAP1 DIV PUSH1 0x1 PUSH1 0x1 PUSH1 0xA0 SHL SUB AND PUSH1 0x1 PUSH1 0x1 PUSH1 0xA0 SHL SUB AND GAS PUSH2 0x1DCF PUSH2 0x6863 JUMP JUMPDEST PUSH1 0x1 PUSH1 0x1 PUSH1 0xA0 SHL SUB AND EQ PUSH2 0x1E1D JUMPI PUSH1 0x40 MLOAD PUSH3 0x461BCD PUSH1 0xE5 SHL DUP2 MSTORE PUSH1 0x4 ADD DUP1 DUP1 PUSH1 0x20 ADD DUP3 DUP2 SUB DUP3 MSTORE PUSH1 0x35 DUP2 MSTORE PUSH1 0x20 ADD DUP1 PUSH2 0x68EC PUSH1 0x35 SWAP2 CODECOPY PUSH1 0x40 ADD SWAP2 POP POP PUSH1 0x40 MLOAD DUP1 SWAP2 SUB SWAP1 PUSH2 0x1E1A PUSH2 0x64D4 JUMP JUMPDEST POP POP JUMPDEST PUSH32 0xB532073B38C83145E3E5135377A08BF9AAB55BC0FD7C1179CD4FB995D2A5159C PUSH1 0x0 DUP1 PUSH2 0x1E49 PUSH2 0x653F JUMP JUMPDEST SWAP1 PUSH2 0x100 EXP SWAP1 DIV PUSH1 0x1 PUSH1 0x1 PUSH1 0xA0 SHL SUB AND PUSH1 0x1 PUSH1 0x0 SWAP1 PUSH2 0x1E66 PUSH2 0x653F JUMP JUMPDEST SWAP1 PUSH2 0x100 EXP SWAP1 DIV PUSH1 0x1 PUSH1 0x1 PUSH1 0xA0 SHL SUB AND PUSH1 0x40 MLOAD PUSH1 0x1 PUSH1 0x1 PUSH1 0xA0 SHL SUB SWAP3 DUP4 AND DUP2 MSTORE SWAP2 AND PUSH1 0x20 DUP3 ADD MSTORE PUSH1 0x40 SWAP1 DUP2 ADD SWAP1 MLOAD DUP1 SWAP2 SUB SWAP1 LOG1 PUSH1 0x0 PUSH1 0x1 PUSH2 0x1EA5 PUSH2 0x653F JUMP JUMPDEST SWAP1 PUSH2 0x100 EXP SWAP1 DIV PUSH1 0x1 PUSH1 0x1 PUSH1 0xA0 SHL SUB AND PUSH1 0x0 DUP1 PUSH2 0x100 EXP DUP2 PUSH2 0x1EC5 PUSH2 0x653F JUMP JUMPDEST DUP2 PUSH1 0x1 PUSH1 0x1 PUSH1 0xA0 SHL SUB MUL NOT AND SWAP1 DUP4 PUSH1 0x1 PUSH1 0x1 PUSH1 0xA0 SHL SUB AND MUL OR SWAP1 PUSH2 0x1EE7 PUSH2 0x669F JUMP JUMPDEST POP POP POP PUSH1 0x0 PUSH1 0x1 PUSH1 0x0 PUSH2 0x100 EXP DUP2 PUSH2 0x1EFD PUSH2 0x653F JUMP JUMPDEST DUP2 PUSH1 0x1 PUSH1 0x1 PUSH1 0xA0 SHL SUB MUL NOT AND SWAP1 DUP4 PUSH1 0x1 PUSH1 0x1 PUSH1 0xA0 SHL SUB AND MUL OR SWAP1 PUSH2 0x17CC PUSH2 0x669F JUMP JUMPDEST PUSH1 0x0 PUSH2 0x1F2B DUP4 DUP4 PUSH2 0x4541 JUMP JUMPDEST POP SWAP4 SWAP3 POP POP POP JUMP JUMPDEST PUSH2 0x1F3B PUSH2 0x30B1 JUMP JUMPDEST PUSH2 0x1F44 DUP2 PUSH2 0x48F5 JUMP JUMPDEST PUSH2 0x1F4C PUSH2 0x31CF JUMP JUMPDEST PUSH1 0x1 PUSH1 0x1 PUSH1 0xA0 SHL SUB AND PUSH4 0x1D5B277F PUSH6 0x24B9B9BAB2B9 PUSH1 0xD1 SHL DUP4 PUSH1 0x0 PUSH1 0x40 MLOAD PUSH1 0x1 PUSH1 0x1 PUSH1 0xE0 SHL SUB NOT PUSH1 0xE0 DUP7 SWAP1 SHL AND DUP2 MSTORE PUSH1 0x4 DUP2 ADD SWAP4 SWAP1 SWAP4 MSTORE PUSH1 0x24 DUP4 ADD SWAP2 SWAP1 SWAP2 MSTORE PUSH1 0x44 DUP3 ADD MSTORE PUSH1 0x64 ADD PUSH1 0x0 PUSH1 0x40 MLOAD DUP1 DUP4 SUB DUP2 PUSH1 0x0 DUP8 DUP1 PUSH2 0x1FA8 PUSH2 0x659A JUMP JUMPDEST ISZERO DUP1 ISZERO PUSH2 0x1FBD JUMPI PUSH1 0x0 DUP1 PUSH2 0x1FBA PUSH2 0x64D4 JUMP JUMPDEST POP POP JUMPDEST POP GAS PUSH2 0x1FC7 PUSH2 0x67AA JUMP JUMPDEST POP POP POP POP POP POP ISZERO DUP1 ISZERO PUSH2 0x1FE7 JUMPI RETURNDATASIZE PUSH1 0x0 DUP1 RETURNDATACOPY RETURNDATASIZE PUSH1 0x0 PUSH2 0x1FE4 PUSH2 0x64D4 JUMP JUMPDEST POP POP JUMPDEST POP POP POP POP POP JUMP JUMPDEST PUSH1 0x5 DUP2 DUP2 PUSH2 0x1FFA PUSH2 0x653F JUMP JUMPDEST DUP2 LT PUSH2 0x2002 JUMPI INVALID JUMPDEST SWAP1 PUSH1 0x0 MSTORE PUSH1 0x20 PUSH1 0x0 KECCAK256 ADD PUSH1 0x0 SWAP2 POP PUSH2 0xCD0 PUSH2 0x653F JUMP JUMPDEST PUSH2 0x2020 PUSH2 0x30B1 JUMP JUMPDEST PUSH1 0x0 DUP2 PUSH1 0x1 PUSH1 0x1 PUSH1 0xA0 SHL SUB AND PUSH4 0xDBD06C85 PUSH1 0x40 MLOAD DUP2 PUSH4 0xFFFFFFFF AND PUSH1 0xE0 SHL DUP2 MSTORE PUSH1 0x4 ADD PUSH1 0x20 PUSH1 0x40 MLOAD DUP1 DUP4 SUB DUP2 DUP7 DUP1 PUSH2 0x2056 PUSH2 0x659A JUMP JUMPDEST ISZERO DUP1 ISZERO PUSH2 0x206B JUMPI PUSH1 0x0 DUP1 PUSH2 0x2068 PUSH2 0x64D4 JUMP JUMPDEST POP POP JUMPDEST POP GAS PUSH2 0x2075 PUSH2 0x65E6 JUMP JUMPDEST POP POP POP POP POP ISZERO DUP1 ISZERO PUSH2 0x2094 JUMPI RETURNDATASIZE PUSH1 0x0 DUP1 RETURNDATACOPY RETURNDATASIZE PUSH1 0x0 PUSH2 0x2091 PUSH2 0x64D4 JUMP JUMPDEST POP POP JUMPDEST POP POP POP POP PUSH1 0x40 MLOAD RETURNDATASIZE PUSH1 0x20 DUP2 LT ISZERO PUSH2 0x20B3 JUMPI PUSH1 0x0 DUP1 PUSH2 0x20B0 PUSH2 0x64D4 JUMP JUMPDEST POP POP JUMPDEST DUP2 ADD SWAP1 DUP1 DUP1 MLOAD SWAP4 POP PUSH2 0x20CA SWAP3 POP DUP4 SWAP2 POP PUSH2 0x48F5 SWAP1 POP JUMP JUMPDEST PUSH1 0x1 PUSH1 0x1 PUSH1 0xA0 SHL SUB DUP3 AND PUSH1 0x0 SWAP1 DUP2 MSTORE PUSH1 0x7 PUSH1 0x20 MSTORE PUSH1 0x40 DUP2 KECCAK256 PUSH2 0x20EA PUSH2 0x653F JUMP JUMPDEST EQ PUSH2 0x2144 JUMPI PUSH1 0x40 MLOAD PUSH3 0x461BCD PUSH1 0xE5 SHL DUP2 MSTORE PUSH1 0x20 PUSH1 0x4 DUP3 ADD MSTORE PUSH1 0x1C PUSH1 0x24 DUP3 ADD MSTORE PUSH32 0x53796E7468206164647265737320616C72656164792065786973747300000000 PUSH1 0x44 DUP3 ADD MSTORE PUSH1 0x64 ADD PUSH1 0x40 MLOAD DUP1 SWAP2 SUB SWAP1 PUSH2 0x2141 PUSH2 0x64D4 JUMP JUMPDEST POP POP JUMPDEST PUSH2 0x214F PUSH2 0xEDB PUSH2 0x31CF JUMP JUMPDEST DUP2 PUSH1 0x5 DUP1 PUSH1 0x1 DUP2 PUSH2 0x215E PUSH2 0x653F JUMP JUMPDEST ADD DUP1 DUP3 PUSH2 0x2169 PUSH2 0x669F JUMP JUMPDEST POP POP PUSH1 0x0 SWAP3 DUP4 MSTORE SWAP2 PUSH1 0x0 NOT DUP4 ADD SWAP2 POP PUSH1 0x20 SWAP1 KECCAK256 SWAP2 SWAP3 SWAP2 ADD PUSH1 0x1 DUP2 PUSH2 0x218B PUSH2 0x653F JUMP JUMPDEST DUP2 PUSH1 0x1 PUSH1 0x1 PUSH1 0xA0 SHL SUB MUL NOT AND SWAP1 DUP4 PUSH1 0x1 PUSH1 0x1 PUSH1 0xA0 SHL SUB AND MUL OR SWAP1 PUSH2 0x21AD PUSH2 0x669F JUMP JUMPDEST POP POP POP PUSH1 0x0 DUP3 DUP2 MSTORE PUSH1 0x6 PUSH1 0x20 MSTORE DUP4 SWAP2 POP PUSH1 0x40 SWAP1 KECCAK256 PUSH1 0x1 DUP2 PUSH2 0x21CC PUSH2 0x653F JUMP JUMPDEST DUP2 PUSH1 0x1 PUSH1 0x1 PUSH1 0xA0 SHL SUB MUL NOT AND SWAP1 DUP4 PUSH1 0x1 PUSH1 0x1 PUSH1 0xA0 SHL SUB AND MUL OR SWAP1 PUSH2 0x21EE PUSH2 0x669F JUMP JUMPDEST POP POP POP PUSH1 0x1 PUSH1 0x1 PUSH1 0xA0 SHL SUB DUP3 AND PUSH1 0x0 SWAP1 DUP2 MSTORE PUSH1 0x7 PUSH1 0x20 MSTORE DUP2 SWAP1 PUSH1 0x40 SWAP1 KECCAK256 DUP2 SWAP1 PUSH2 0x2215 PUSH2 0x669F JUMP JUMPDEST POP POP POP PUSH32 0xA2B6EBF143B3E9FCD67E17748AD315174746100C27228468B2C98C302C62884 DUP2 DUP4 PUSH1 0x40 MLOAD SWAP2 DUP3 MSTORE PUSH1 0x1 PUSH1 0x1 PUSH1 0xA0 SHL SUB AND PUSH1 0x20 DUP3 ADD MSTORE PUSH1 0x40 SWAP1 DUP2 ADD SWAP1 MLOAD DUP1 SWAP2 SUB SWAP1 LOG1 POP POP JUMP JUMPDEST PUSH1 0x0 DUP1 PUSH2 0xCD0 PUSH2 0x653F JUMP JUMPDEST PUSH2 0x2272 PUSH2 0x2DA7 JUMP JUMPDEST PUSH2 0x227C DUP4 DUP4 PUSH2 0x36B9 JUMP JUMPDEST PUSH2 0x17CC DUP4 DUP3 PUSH1 0x0 PUSH2 0x37D0 JUMP JUMPDEST PUSH1 0x0 PUSH2 0x2293 DUP3 PUSH2 0x496D JUMP JUMPDEST POP SWAP3 SWAP2 POP POP JUMP JUMPDEST PUSH1 0x0 PUSH2 0x1987 DUP3 PUSH2 0x49C7 JUMP JUMPDEST PUSH1 0x0 DUP1 PUSH2 0x22B0 PUSH2 0x2DA7 JUMP JUMPDEST PUSH2 0x22B8 PUSH2 0x4B8C JUMP JUMPDEST PUSH1 0x1 PUSH1 0x1 PUSH1 0xA0 SHL SUB AND PUSH4 0xD6F32E06 DUP5 PUSH4 0x1CD554D1 PUSH1 0xE2 SHL PUSH1 0x40 MLOAD PUSH1 0x1 PUSH1 0x1 PUSH1 0xE0 SHL SUB NOT PUSH1 0xE0 DUP6 SWAP1 SHL AND DUP2 MSTORE PUSH1 0x1 PUSH1 0x1 PUSH1 0xA0 SHL SUB SWAP1 SWAP3 AND PUSH1 0x4 DUP4 ADD MSTORE PUSH1 0x24 DUP3 ADD MSTORE PUSH1 0x44 ADD PUSH1 0x20 PUSH1 0x40 MLOAD DUP1 DUP4 SUB DUP2 DUP7 DUP1 PUSH2 0x230E PUSH2 0x659A JUMP JUMPDEST ISZERO DUP1 ISZERO PUSH2 0x2323 JUMPI PUSH1 0x0 DUP1 PUSH2 0x2320 PUSH2 0x64D4 JUMP JUMPDEST POP POP JUMPDEST POP GAS PUSH2 0x232D PUSH2 0x65E6 JUMP JUMPDEST POP POP POP POP POP ISZERO DUP1 ISZERO PUSH2 0x234C JUMPI RETURNDATASIZE PUSH1 0x0 DUP1 RETURNDATACOPY RETURNDATASIZE PUSH1 0x0 PUSH2 0x2349 PUSH2 0x64D4 JUMP JUMPDEST POP POP JUMPDEST POP POP POP POP PUSH1 0x40 MLOAD RETURNDATASIZE PUSH1 0x20 DUP2 LT ISZERO PUSH2 0x236B JUMPI PUSH1 0x0 DUP1 PUSH2 0x2368 PUSH2 0x64D4 JUMP JUMPDEST POP POP JUMPDEST DUP2 ADD SWAP1 DUP1 DUP1 MLOAD ISZERO SWAP3 POP PUSH2 0x23D0 SWAP2 POP POP JUMPI PUSH1 0x40 MLOAD PUSH3 0x461BCD PUSH1 0xE5 SHL DUP2 MSTORE PUSH1 0x20 PUSH1 0x4 DUP3 ADD MSTORE PUSH1 0x18 PUSH1 0x24 DUP3 ADD MSTORE PUSH32 0x73555344206E6565647320746F20626520736574746C65640000000000000000 PUSH1 0x44 DUP3 ADD MSTORE PUSH1 0x64 ADD PUSH1 0x40 MLOAD DUP1 SWAP2 SUB SWAP1 PUSH2 0x23CD PUSH2 0x64D4 JUMP JUMPDEST POP POP JUMPDEST PUSH2 0x23D8 PUSH2 0x4BD7 JUMP JUMPDEST PUSH1 0x1 PUSH1 0x1 PUSH1 0xA0 SHL SUB AND PUSH4 0xC49E80A6 DUP7 PUSH1 0x40 MLOAD PUSH1 0x1 PUSH1 0x1 PUSH1 0xE0 SHL SUB NOT PUSH1 0xE0 DUP5 SWAP1 SHL AND DUP2 MSTORE PUSH1 0x1 PUSH1 0x1 PUSH1 0xA0 SHL SUB SWAP1 SWAP2 AND PUSH1 0x4 DUP3 ADD MSTORE PUSH1 0x24 ADD PUSH1 0x20 PUSH1 0x40 MLOAD DUP1 DUP4 SUB DUP2 DUP7 DUP1 PUSH2 0x2421 PUSH2 0x659A JUMP JUMPDEST ISZERO DUP1 ISZERO PUSH2 0x2436 JUMPI PUSH1 0x0 DUP1 PUSH2 0x2433 PUSH2 0x64D4 JUMP JUMPDEST POP POP JUMPDEST POP GAS PUSH2 0x2440 PUSH2 0x65E6 JUMP JUMPDEST POP POP POP POP POP ISZERO DUP1 ISZERO PUSH2 0x245F JUMPI RETURNDATASIZE PUSH1 0x0 DUP1 RETURNDATACOPY RETURNDATASIZE PUSH1 0x0 PUSH2 0x245C PUSH2 0x64D4 JUMP JUMPDEST POP POP JUMPDEST POP POP POP POP PUSH1 0x40 MLOAD RETURNDATASIZE PUSH1 0x20 DUP2 LT ISZERO PUSH2 0x247E JUMPI PUSH1 0x0 DUP1 PUSH2 0x247B PUSH2 0x64D4 JUMP JUMPDEST POP POP JUMPDEST DUP2 ADD SWAP1 DUP1 DUP1 MLOAD SWAP3 POP PUSH2 0x24E2 SWAP2 POP POP JUMPI PUSH1 0x40 MLOAD PUSH3 0x461BCD PUSH1 0xE5 SHL DUP2 MSTORE PUSH1 0x20 PUSH1 0x4 DUP3 ADD DUP2 SWAP1 MSTORE PUSH1 0x24 DUP3 ADD MSTORE PUSH32 0x4163636F756E74206E6F74206F70656E20666F72206C69717569646174696F6E PUSH1 0x44 DUP3 ADD MSTORE PUSH1 0x64 ADD PUSH1 0x40 MLOAD DUP1 SWAP2 SUB SWAP1 PUSH2 0x24DF PUSH2 0x64D4 JUMP JUMPDEST POP POP JUMPDEST PUSH4 0x1CD554D1 PUSH1 0xE2 SHL PUSH1 0x0 SWAP1 DUP2 MSTORE PUSH1 0x6 PUSH1 0x20 MSTORE DUP5 SWAP1 PUSH1 0x40 SWAP1 KECCAK256 PUSH1 0x0 SWAP1 PUSH2 0x2505 PUSH2 0x653F JUMP JUMPDEST SWAP1 PUSH2 0x100 EXP SWAP1 DIV PUSH1 0x1 PUSH1 0x1 PUSH1 0xA0 SHL SUB AND PUSH1 0x1 PUSH1 0x1 PUSH1 0xA0 SHL SUB AND PUSH4 0x70A08231 DUP6 PUSH1 0x40 MLOAD PUSH1 0x1 PUSH1 0x1 PUSH1 0xE0 SHL SUB NOT PUSH1 0xE0 DUP5 SWAP1 SHL AND DUP2 MSTORE PUSH1 0x1 PUSH1 0x1 PUSH1 0xA0 SHL SUB SWAP1 SWAP2 AND PUSH1 0x4 DUP3 ADD MSTORE PUSH1 0x24 ADD PUSH1 0x20 PUSH1 0x40 MLOAD DUP1 DUP4 SUB DUP2 DUP7 DUP1 PUSH2 0x255E PUSH2 0x659A JUMP JUMPDEST ISZERO DUP1 ISZERO PUSH2 0x2573 JUMPI PUSH1 0x0 DUP1 PUSH2 0x2570 PUSH2 0x64D4 JUMP JUMPDEST POP POP JUMPDEST POP GAS PUSH2 0x257D PUSH2 0x65E6 JUMP JUMPDEST POP POP POP POP POP ISZERO DUP1 ISZERO PUSH2 0x259C JUMPI RETURNDATASIZE PUSH1 0x0 DUP1 RETURNDATACOPY RETURNDATASIZE PUSH1 0x0 PUSH2 0x2599 PUSH2 0x64D4 JUMP JUMPDEST POP POP JUMPDEST POP POP POP POP PUSH1 0x40 MLOAD RETURNDATASIZE PUSH1 0x20 DUP2 LT ISZERO PUSH2 0x25BB JUMPI PUSH1 0x0 DUP1 PUSH2 0x25B8 PUSH2 0x64D4 JUMP JUMPDEST POP POP JUMPDEST DUP2 ADD SWAP1 DUP1 DUP1 MLOAD SWAP4 SWAP1 SWAP4 LT ISZERO SWAP3 POP PUSH2 0x2616 SWAP2 POP POP JUMPI PUSH1 0x40 MLOAD PUSH3 0x461BCD PUSH1 0xE5 SHL DUP2 MSTORE PUSH1 0x20 PUSH1 0x4 DUP3 ADD MSTORE PUSH1 0xF PUSH1 0x24 DUP3 ADD MSTORE PUSH15 0x139BDD08195B9BDD59DA081CD554D1 PUSH1 0x8A SHL PUSH1 0x44 DUP3 ADD MSTORE PUSH1 0x64 ADD PUSH1 0x40 MLOAD DUP1 SWAP2 SUB SWAP1 PUSH2 0x2613 PUSH2 0x64D4 JUMP JUMPDEST POP POP JUMPDEST PUSH1 0x0 PUSH2 0x2620 PUSH2 0x4BD7 JUMP JUMPDEST PUSH1 0x1 PUSH1 0x1 PUSH1 0xA0 SHL SUB AND PUSH4 0x23F5589A PUSH1 0x40 MLOAD DUP2 PUSH4 0xFFFFFFFF AND PUSH1 0xE0 SHL DUP2 MSTORE PUSH1 0x4 ADD PUSH1 0x20 PUSH1 0x40 MLOAD DUP1 DUP4 SUB DUP2 DUP7 DUP1 PUSH2 0x2653 PUSH2 0x659A JUMP JUMPDEST ISZERO DUP1 ISZERO PUSH2 0x2668 JUMPI PUSH1 0x0 DUP1 PUSH2 0x2665 PUSH2 0x64D4 JUMP JUMPDEST POP POP JUMPDEST POP GAS PUSH2 0x2672 PUSH2 0x65E6 JUMP JUMPDEST POP POP POP POP POP ISZERO DUP1 ISZERO PUSH2 0x2691 JUMPI RETURNDATASIZE PUSH1 0x0 DUP1 RETURNDATACOPY RETURNDATASIZE PUSH1 0x0 PUSH2 0x268E PUSH2 0x64D4 JUMP JUMPDEST POP POP JUMPDEST POP POP POP POP PUSH1 0x40 MLOAD RETURNDATASIZE PUSH1 0x20 DUP2 LT ISZERO PUSH2 0x26B0 JUMPI PUSH1 0x0 DUP1 PUSH2 0x26AD PUSH2 0x64D4 JUMP JUMPDEST POP POP JUMPDEST DUP2 ADD SWAP1 DUP1 DUP1 MLOAD SWAP4 POP PUSH1 0x0 SWAP3 POP DUP3 SWAP2 POP DUP2 SWAP1 POP PUSH2 0x26D3 DUP10 PUSH4 0x1CD554D1 PUSH1 0xE2 SHL PUSH2 0x41CF JUMP JUMPDEST SWAP3 POP SWAP3 POP SWAP3 POP PUSH1 0x0 DUP1 PUSH2 0x26E4 PUSH2 0x3EC3 JUMP JUMPDEST PUSH1 0x1 PUSH1 0x1 PUSH1 0xA0 SHL SUB AND PUSH4 0xC71CD23 PUSH3 0xA69CB PUSH1 0xEB SHL PUSH1 0x40 MLOAD PUSH1 0x1 PUSH1 0x1 PUSH1 0xE0 SHL SUB NOT PUSH1 0xE0 DUP5 SWAP1 SHL AND DUP2 MSTORE PUSH1 0x4 DUP2 ADD SWAP2 SWAP1 SWAP2 MSTORE PUSH1 0x24 ADD PUSH1 0x40 DUP1 MLOAD DUP1 DUP4 SUB DUP2 DUP7 DUP1 PUSH2 0x272A PUSH2 0x659A JUMP JUMPDEST ISZERO DUP1 ISZERO PUSH2 0x273F JUMPI PUSH1 0x0 DUP1 PUSH2 0x273C PUSH2 0x64D4 JUMP JUMPDEST POP POP JUMPDEST POP GAS PUSH2 0x2749 PUSH2 0x65E6 JUMP JUMPDEST POP POP POP POP POP ISZERO DUP1 ISZERO PUSH2 0x2768 JUMPI RETURNDATASIZE PUSH1 0x0 DUP1 RETURNDATACOPY RETURNDATASIZE PUSH1 0x0 PUSH2 0x2765 PUSH2 0x64D4 JUMP JUMPDEST POP POP JUMPDEST POP POP POP POP PUSH1 0x40 MLOAD RETURNDATASIZE PUSH1 0x40 DUP2 LT ISZERO PUSH2 0x2787 JUMPI PUSH1 0x0 DUP1 PUSH2 0x2784 PUSH2 0x64D4 JUMP JUMPDEST POP POP JUMPDEST DUP2 ADD SWAP1 DUP1 DUP1 MLOAD SWAP3 SWAP2 SWAP1 PUSH1 0x20 ADD DUP1 MLOAD SWAP4 SWAP6 POP SWAP3 SWAP4 POP PUSH2 0x27B2 SWAP3 POP DUP6 SWAP2 POP DUP2 SWAP1 POP PUSH2 0x27AD JUMPI POP DUP2 JUMPDEST PUSH2 0x4C25 JUMP JUMPDEST PUSH1 0x0 PUSH2 0x27BD DUP13 PUSH2 0x49C7 JUMP JUMPDEST SWAP1 POP PUSH1 0x0 PUSH2 0x27C9 PUSH2 0x4BD7 JUMP JUMPDEST PUSH1 0x1 PUSH1 0x1 PUSH1 0xA0 SHL SUB AND PUSH4 0xAC045D5 DUP9 PUSH2 0x27E2 DUP6 DUP9 PUSH2 0x4C7D JUMP JUMPDEST PUSH1 0x40 MLOAD PUSH1 0x1 PUSH1 0x1 PUSH1 0xE0 SHL SUB NOT PUSH1 0xE0 DUP6 SWAP1 SHL AND DUP2 MSTORE PUSH1 0x4 DUP2 ADD SWAP3 SWAP1 SWAP3 MSTORE PUSH1 0x24 DUP3 ADD MSTORE PUSH1 0x44 ADD PUSH1 0x20 PUSH1 0x40 MLOAD DUP1 DUP4 SUB DUP2 DUP7 DUP1 PUSH2 0x2819 PUSH2 0x659A JUMP JUMPDEST ISZERO DUP1 ISZERO PUSH2 0x282E JUMPI PUSH1 0x0 DUP1 PUSH2 0x282B PUSH2 0x64D4 JUMP JUMPDEST POP POP JUMPDEST POP GAS PUSH2 0x2838 PUSH2 0x65E6 JUMP JUMPDEST POP POP POP POP POP ISZERO DUP1 ISZERO PUSH2 0x2857 JUMPI RETURNDATASIZE PUSH1 0x0 DUP1 RETURNDATACOPY RETURNDATASIZE PUSH1 0x0 PUSH2 0x2854 PUSH2 0x64D4 JUMP JUMPDEST POP POP JUMPDEST POP POP POP POP PUSH1 0x40 MLOAD RETURNDATASIZE PUSH1 0x20 DUP2 LT ISZERO PUSH2 0x2876 JUMPI PUSH1 0x0 DUP1 PUSH2 0x2873 PUSH2 0x64D4 JUMP JUMPDEST POP POP JUMPDEST DUP2 ADD SWAP1 DUP1 DUP1 MLOAD SWAP4 POP POP POP DUP13 DUP3 LT SWAP1 POP PUSH2 0x288F JUMPI DUP12 PUSH2 0x2891 JUMP JUMPDEST DUP1 JUMPDEST SWAP9 POP PUSH1 0x0 PUSH2 0x289F DUP11 DUP7 PUSH2 0x4C8F JUMP JUMPDEST SWAP1 POP PUSH2 0x2968 PUSH2 0x295B DUP11 PUSH20 0x0 PUSH4 0x907AF6C0 PUSH1 0x40 MLOAD DUP2 PUSH4 0xFFFFFFFF AND PUSH1 0xE0 SHL DUP2 MSTORE PUSH1 0x4 ADD PUSH1 0x20 PUSH1 0x40 MLOAD DUP1 DUP4 SUB DUP2 DUP7 DUP1 PUSH2 0x28E7 PUSH2 0x659A JUMP JUMPDEST ISZERO DUP1 ISZERO PUSH2 0x28FC JUMPI PUSH1 0x0 DUP1 PUSH2 0x28F9 PUSH2 0x64D4 JUMP JUMPDEST POP POP JUMPDEST POP GAS PUSH2 0x2906 PUSH2 0x6721 JUMP JUMPDEST POP POP POP POP POP ISZERO DUP1 ISZERO PUSH2 0x2925 JUMPI RETURNDATASIZE PUSH1 0x0 DUP1 RETURNDATACOPY RETURNDATASIZE PUSH1 0x0 PUSH2 0x2922 PUSH2 0x64D4 JUMP JUMPDEST POP POP JUMPDEST POP POP POP POP PUSH1 0x40 MLOAD RETURNDATASIZE PUSH1 0x20 DUP2 LT ISZERO PUSH2 0x2944 JUMPI PUSH1 0x0 DUP1 PUSH2 0x2941 PUSH2 0x64D4 JUMP JUMPDEST POP POP JUMPDEST DUP2 ADD SWAP1 DUP1 DUP1 MLOAD SWAP4 SWAP3 POP POP PUSH4 0xFFFFFFFF PUSH2 0x3570 AND SWAP1 POP JUMP JUMPDEST DUP3 SWAP1 PUSH4 0xFFFFFFFF PUSH2 0x4CA1 AND JUMP JUMPDEST SWAP11 POP DUP3 DUP12 GT ISZERO PUSH2 0x29D4 JUMPI DUP3 SWAP11 POP PUSH2 0x29D1 PUSH2 0x29CB PUSH2 0x29BE DUP12 PUSH20 0x0 PUSH4 0x907AF6C0 PUSH1 0x40 MLOAD DUP2 PUSH4 0xFFFFFFFF AND PUSH1 0xE0 SHL DUP2 MSTORE PUSH1 0x4 ADD PUSH1 0x20 PUSH1 0x40 MLOAD DUP1 DUP4 SUB DUP2 DUP7 DUP1 PUSH2 0x28E7 PUSH2 0x659A JUMP JUMPDEST DUP6 SWAP1 PUSH4 0xFFFFFFFF PUSH2 0x4CCB AND JUMP JUMPDEST DUP7 PUSH2 0x4C7D JUMP JUMPDEST SWAP10 POP JUMPDEST PUSH2 0x29E1 DUP15 DUP14 DUP13 DUP12 DUP12 PUSH2 0x4CF5 JUMP JUMPDEST POP DUP2 DUP11 EQ ISZERO PUSH2 0x2A81 JUMPI PUSH2 0x29F2 PUSH2 0x4BD7 JUMP JUMPDEST PUSH1 0x1 PUSH1 0x1 PUSH1 0xA0 SHL SUB AND PUSH4 0x974E9E7F DUP16 PUSH1 0x40 MLOAD PUSH1 0x1 PUSH1 0x1 PUSH1 0xE0 SHL SUB NOT PUSH1 0xE0 DUP5 SWAP1 SHL AND DUP2 MSTORE PUSH1 0x1 PUSH1 0x1 PUSH1 0xA0 SHL SUB SWAP1 SWAP2 AND PUSH1 0x4 DUP3 ADD MSTORE PUSH1 0x24 ADD PUSH1 0x0 PUSH1 0x40 MLOAD DUP1 DUP4 SUB DUP2 PUSH1 0x0 DUP8 DUP1 PUSH2 0x2A3D PUSH2 0x659A JUMP JUMPDEST ISZERO DUP1 ISZERO PUSH2 0x2A52 JUMPI PUSH1 0x0 DUP1 PUSH2 0x2A4F PUSH2 0x64D4 JUMP JUMPDEST POP POP JUMPDEST POP GAS PUSH2 0x2A5C PUSH2 0x67AA JUMP JUMPDEST POP POP POP POP POP POP ISZERO DUP1 ISZERO PUSH2 0x2A7C JUMPI RETURNDATASIZE PUSH1 0x0 DUP1 RETURNDATACOPY RETURNDATASIZE PUSH1 0x0 PUSH2 0x2A79 PUSH2 0x64D4 JUMP JUMPDEST POP POP JUMPDEST POP POP POP POP JUMPDEST POP POP POP POP POP POP POP POP POP SWAP4 POP SWAP4 SWAP2 POP POP JUMP JUMPDEST PUSH2 0x2A9A PUSH2 0x68A9 JUMP JUMPDEST PUSH1 0x0 JUMPDEST PUSH1 0x4 DUP1 PUSH2 0x2AA8 PUSH2 0x653F JUMP JUMPDEST SWAP1 POP DUP2 LT ISZERO PUSH2 0x2AF0 JUMPI PUSH1 0x4 DUP2 DUP2 PUSH2 0x2ABD PUSH2 0x653F JUMP JUMPDEST DUP2 LT PUSH2 0x2AC5 JUMPI INVALID JUMPDEST SWAP1 PUSH1 0x0 MSTORE PUSH1 0x20 PUSH1 0x0 KECCAK256 ADD PUSH2 0x2AD7 PUSH2 0x653F JUMP JUMPDEST DUP3 DUP3 PUSH1 0x18 DUP2 LT PUSH2 0x2AE3 JUMPI INVALID JUMPDEST PUSH1 0x20 MUL ADD MSTORE PUSH1 0x1 ADD PUSH2 0x2A9D JUMP JUMPDEST POP SWAP1 JUMP JUMPDEST PUSH1 0x0 DUP1 PUSH2 0x2B00 DUP4 PUSH2 0x496D JUMP JUMPDEST SWAP2 POP SWAP2 POP SWAP2 POP SWAP2 JUMP JUMPDEST PUSH1 0x0 PUSH2 0x13AA PUSH2 0x4E35 JUMP JUMPDEST PUSH2 0x2B1B PUSH2 0x2DA7 JUMP JUMPDEST PUSH2 0xCC0 DUP3 DUP3 PUSH1 0x0 PUSH2 0x37D0 JUMP JUMPDEST PUSH1 0x0 PUSH2 0x13AA PUSH2 0x4455 JUMP JUMPDEST PUSH1 0x0 PUSH2 0x2B3B PUSH2 0x31CF JUMP JUMPDEST PUSH1 0x1 PUSH1 0x1 PUSH1 0xA0 SHL SUB AND PUSH4 0x23257C2B PUSH6 0x24B9B9BAB2B9 PUSH1 0xD1 SHL PUSH32 0x636163686564534E584973737565644465627454696D657374616D7000000000 PUSH1 0x40 MLOAD PUSH1 0x1 PUSH1 0x1 PUSH1 0xE0 SHL SUB NOT PUSH1 0xE0 DUP6 SWAP1 SHL AND DUP2 MSTORE PUSH1 0x4 DUP2 ADD SWAP3 SWAP1 SWAP3 MSTORE PUSH1 0x24 DUP3 ADD MSTORE PUSH1 0x44 ADD PUSH1 0x20 PUSH1 0x40 MLOAD DUP1 DUP4 SUB DUP2 DUP7 DUP1 PUSH2 0x2BAB PUSH2 0x659A JUMP JUMPDEST ISZERO DUP1 ISZERO PUSH2 0x2BC0 JUMPI PUSH1 0x0 DUP1 PUSH2 0x2BBD PUSH2 0x64D4 JUMP JUMPDEST POP POP JUMPDEST POP GAS PUSH2 0x2BCA PUSH2 0x65E6 JUMP JUMPDEST POP POP POP POP POP ISZERO DUP1 ISZERO PUSH2 0x2BE9 JUMPI RETURNDATASIZE PUSH1 0x0 DUP1 RETURNDATACOPY RETURNDATASIZE PUSH1 0x0 PUSH2 0x2BE6 PUSH2 0x64D4 JUMP JUMPDEST POP POP JUMPDEST POP POP POP POP PUSH1 0x40 MLOAD RETURNDATASIZE PUSH1 0x20 DUP2 LT ISZERO PUSH2 0x2C08 JUMPI PUSH1 0x0 DUP1 PUSH2 0x2C05 PUSH2 0x64D4 JUMP JUMPDEST POP POP JUMPDEST DUP2 ADD SWAP1 DUP1 DUP1 MLOAD SWAP3 POP POP POP GAS PUSH2 0x2C1B PUSH2 0x6764 JUMP JUMPDEST SUB PUSH2 0x2C24 PUSH2 0x4E35 JUMP JUMPDEST LT SWAP1 POP SWAP1 JUMP JUMPDEST PUSH1 0x0 PUSH2 0x1987 DUP3 PUSH2 0x4EAF JUMP JUMPDEST PUSH1 0x4 DUP2 DUP2 PUSH2 0x2C41 PUSH2 0x653F JUMP JUMPDEST DUP2 LT PUSH2 0x2C49 JUMPI INVALID JUMPDEST SWAP1 PUSH1 0x0 MSTORE PUSH1 0x20 PUSH1 0x0 KECCAK256 ADD SWAP1 POP PUSH2 0x1194 PUSH2 0x653F JUMP JUMPDEST PUSH2 0x2C65 PUSH2 0x2DA7 JUMP JUMPDEST PUSH2 0x1334 DUP2 PUSH1 0x0 PUSH1 0x1 PUSH2 0x2E0E JUMP JUMPDEST PUSH1 0x0 DUP1 PUSH2 0x2C7D PUSH2 0x4EE2 JUMP JUMPDEST SWAP1 POP PUSH1 0x0 DUP2 PUSH1 0x1 PUSH1 0x1 PUSH1 0xA0 SHL SUB AND PUSH4 0x8B3F8088 DUP7 PUSH1 0x40 MLOAD PUSH1 0x1 PUSH1 0x1 PUSH1 0xE0 SHL SUB NOT PUSH1 0xE0 DUP5 SWAP1 SHL AND DUP2 MSTORE PUSH1 0x1 PUSH1 0x1 PUSH1 0xA0 SHL SUB SWAP1 SWAP2 AND PUSH1 0x4 DUP3 ADD MSTORE PUSH1 0x24 ADD PUSH1 0x40 DUP1 MLOAD DUP1 DUP4 SUB DUP2 DUP7 DUP1 PUSH2 0x2CCA PUSH2 0x659A JUMP JUMPDEST ISZERO DUP1 ISZERO PUSH2 0x2CDF JUMPI PUSH1 0x0 DUP1 PUSH2 0x2CDC PUSH2 0x64D4 JUMP JUMPDEST POP POP JUMPDEST POP GAS PUSH2 0x2CE9 PUSH2 0x65E6 JUMP JUMPDEST POP POP POP POP POP ISZERO DUP1 ISZERO PUSH2 0x2D08 JUMPI RETURNDATASIZE PUSH1 0x0 DUP1 RETURNDATACOPY RETURNDATASIZE PUSH1 0x0 PUSH2 0x2D05 PUSH2 0x64D4 JUMP JUMPDEST POP POP JUMPDEST POP POP POP POP PUSH1 0x40 MLOAD RETURNDATASIZE PUSH1 0x40 DUP2 LT ISZERO PUSH2 0x2D27 JUMPI PUSH1 0x0 DUP1 PUSH2 0x2D24 PUSH2 0x64D4 JUMP JUMPDEST POP POP JUMPDEST DUP2 ADD SWAP1 DUP1 DUP1 MLOAD SWAP3 SWAP2 SWAP1 PUSH1 0x20 ADD DUP1 MLOAD POP SWAP3 SWAP4 POP POP POP DUP2 ISZERO ISZERO SWAP1 POP PUSH2 0x2D4F JUMPI PUSH1 0x0 SWAP3 POP POP POP PUSH2 0x1987 JUMP JUMPDEST PUSH2 0x2D59 DUP6 DUP6 PUSH2 0x41CF JUMP JUMPDEST POP SWAP1 SWAP7 SWAP6 POP POP POP POP POP POP JUMP JUMPDEST PUSH1 0x0 PUSH1 0x5 DUP1 PUSH2 0x2D72 PUSH2 0x653F JUMP JUMPDEST SWAP2 POP POP SWAP1 JUMP JUMPDEST PUSH1 0x0 PUSH2 0x1987 DUP3 PUSH2 0x4F32 JUMP JUMPDEST PUSH1 0x18 DUP2 JUMP JUMPDEST PUSH2 0x2D90 PUSH2 0x2DA7 JUMP JUMPDEST PUSH2 0x2D9A DUP3 DUP3 PUSH2 0x4176 JUMP JUMPDEST PUSH2 0xCC0 DUP3 PUSH1 0x0 PUSH1 0x1 PUSH2 0x2E0E JUMP JUMPDEST PUSH2 0x2DAF PUSH2 0x4FE0 JUMP JUMPDEST PUSH1 0x1 PUSH1 0x1 PUSH1 0xA0 SHL SUB AND GAS PUSH2 0x2DC1 PUSH2 0x6863 JUMP JUMPDEST PUSH1 0x1 PUSH1 0x1 PUSH1 0xA0 SHL SUB AND EQ PUSH2 0x2E0C JUMPI PUSH1 0x40 MLOAD PUSH3 0x461BCD PUSH1 0xE5 SHL DUP2 MSTORE PUSH1 0x4 ADD DUP1 DUP1 PUSH1 0x20 ADD DUP3 DUP2 SUB DUP3 MSTORE PUSH1 0x3B DUP2 MSTORE PUSH1 0x20 ADD DUP1 PUSH2 0x6942 PUSH1 0x3B SWAP2 CODECOPY PUSH1 0x40 ADD SWAP2 POP POP PUSH1 0x40 MLOAD DUP1 SWAP2 SUB SWAP1 PUSH2 0xCC0 PUSH2 0x64D4 JUMP JUMPDEST JUMP JUMPDEST PUSH1 0x0 DUP1 PUSH1 0x0 DUP1 PUSH2 0x2E1D DUP8 PUSH2 0x332D JUMP JUMPDEST SWAP4 POP SWAP4 POP SWAP4 POP SWAP4 POP PUSH2 0x2E2E DUP2 PUSH2 0x4C25 JUMP JUMPDEST DUP5 PUSH2 0x2E88 JUMPI DUP4 DUP7 GT ISZERO PUSH2 0x2E83 JUMPI PUSH1 0x40 MLOAD PUSH3 0x461BCD PUSH1 0xE5 SHL DUP2 MSTORE PUSH1 0x20 PUSH1 0x4 DUP3 ADD MSTORE PUSH1 0x10 PUSH1 0x24 DUP3 ADD MSTORE PUSH16 0x416D6F756E7420746F6F206C61726765 PUSH1 0x80 SHL PUSH1 0x44 DUP3 ADD MSTORE PUSH1 0x64 ADD PUSH1 0x40 MLOAD DUP1 SWAP2 SUB SWAP1 PUSH2 0x2E80 PUSH2 0x64D4 JUMP JUMPDEST POP POP JUMPDEST PUSH2 0x2E8C JUMP JUMPDEST DUP4 SWAP6 POP JUMPDEST PUSH2 0x2E98 DUP8 DUP8 DUP6 DUP6 PUSH2 0x502B JUMP JUMPDEST PUSH2 0x2EA1 DUP8 PUSH2 0x5563 JUMP JUMPDEST PUSH4 0x1CD554D1 PUSH1 0xE2 SHL PUSH1 0x0 SWAP1 DUP2 MSTORE PUSH1 0x6 PUSH1 0x20 MSTORE PUSH1 0x40 SWAP1 KECCAK256 PUSH1 0x0 SWAP1 PUSH2 0x2EC2 PUSH2 0x653F JUMP JUMPDEST SWAP1 PUSH2 0x100 EXP SWAP1 DIV PUSH1 0x1 PUSH1 0x1 PUSH1 0xA0 SHL SUB AND PUSH1 0x1 PUSH1 0x1 PUSH1 0xA0 SHL SUB AND PUSH4 0x867904B4 DUP9 DUP9 PUSH1 0x40 MLOAD PUSH1 0x1 PUSH1 0x1 PUSH1 0xE0 SHL SUB NOT PUSH1 0xE0 DUP6 SWAP1 SHL AND DUP2 MSTORE PUSH1 0x1 PUSH1 0x1 PUSH1 0xA0 SHL SUB SWAP1 SWAP3 AND PUSH1 0x4 DUP4 ADD MSTORE PUSH1 0x24 DUP3 ADD MSTORE PUSH1 0x44 ADD PUSH1 0x0 PUSH1 0x40 MLOAD DUP1 DUP4 SUB DUP2 PUSH1 0x0 DUP8 DUP1 PUSH2 0x2F23 PUSH2 0x659A JUMP JUMPDEST ISZERO DUP1 ISZERO PUSH2 0x2F38 JUMPI PUSH1 0x0 DUP1 PUSH2 0x2F35 PUSH2 0x64D4 JUMP JUMPDEST POP POP JUMPDEST POP GAS PUSH2 0x2F42 PUSH2 0x67AA JUMP JUMPDEST POP POP POP POP POP POP ISZERO DUP1 ISZERO PUSH2 0x2F62 JUMPI RETURNDATASIZE PUSH1 0x0 DUP1 RETURNDATACOPY RETURNDATASIZE PUSH1 0x0 PUSH2 0x2F5F PUSH2 0x64D4 JUMP JUMPDEST POP POP JUMPDEST POP POP POP POP PUSH2 0x2FB0 PUSH4 0x1CD554D1 PUSH1 0xE2 SHL PUSH20 0x0 PUSH4 0x907AF6C0 PUSH1 0x40 MLOAD DUP2 PUSH4 0xFFFFFFFF AND PUSH1 0xE0 SHL DUP2 MSTORE PUSH1 0x4 ADD PUSH1 0x20 PUSH1 0x40 MLOAD DUP1 DUP4 SUB DUP2 DUP7 DUP1 PUSH2 0x11F5 PUSH2 0x659A JUMP JUMPDEST PUSH2 0x1FE4 DUP8 PUSH2 0x5622 JUMP JUMPDEST PUSH1 0x0 DUP1 PUSH1 0x0 DUP1 PUSH2 0x2FC7 PUSH2 0x3EC3 JUMP JUMPDEST PUSH1 0x1 PUSH1 0x1 PUSH1 0xA0 SHL SUB AND PUSH4 0xC71CD23 PUSH3 0xA69CB PUSH1 0xEB SHL PUSH1 0x40 MLOAD PUSH1 0x1 PUSH1 0x1 PUSH1 0xE0 SHL SUB NOT PUSH1 0xE0 DUP5 SWAP1 SHL AND DUP2 MSTORE PUSH1 0x4 DUP2 ADD SWAP2 SWAP1 SWAP2 MSTORE PUSH1 0x24 ADD PUSH1 0x40 DUP1 MLOAD DUP1 DUP4 SUB DUP2 DUP7 DUP1 PUSH2 0x300D PUSH2 0x659A JUMP JUMPDEST ISZERO DUP1 ISZERO PUSH2 0x3022 JUMPI PUSH1 0x0 DUP1 PUSH2 0x301F PUSH2 0x64D4 JUMP JUMPDEST POP POP JUMPDEST POP GAS PUSH2 0x302C PUSH2 0x65E6 JUMP JUMPDEST POP POP POP POP POP ISZERO DUP1 ISZERO PUSH2 0x304B JUMPI RETURNDATASIZE PUSH1 0x0 DUP1 RETURNDATACOPY RETURNDATASIZE PUSH1 0x0 PUSH2 0x3048 PUSH2 0x64D4 JUMP JUMPDEST POP POP JUMPDEST POP POP POP POP PUSH1 0x40 MLOAD RETURNDATASIZE PUSH1 0x40 DUP2 LT ISZERO PUSH2 0x306A JUMPI PUSH1 0x0 DUP1 PUSH2 0x3067 PUSH2 0x64D4 JUMP JUMPDEST POP POP JUMPDEST DUP2 ADD SWAP1 DUP1 DUP1 MLOAD SWAP3 SWAP2 SWAP1 PUSH1 0x20 ADD DUP1 MLOAD SWAP4 SWAP6 POP SWAP3 SWAP4 POP PUSH1 0x0 SWAP3 POP PUSH2 0x3098 SWAP2 POP PUSH2 0x3092 SWAP1 POP DUP8 PUSH2 0x49C7 JUMP JUMPDEST DUP5 PUSH2 0x4C7D JUMP JUMPDEST SWAP1 POP PUSH2 0x30A5 PUSH2 0x295B PUSH2 0x4455 JUMP JUMPDEST SWAP5 POP SWAP1 SWAP3 POP POP POP SWAP2 POP SWAP2 JUMP JUMPDEST PUSH1 0x0 DUP1 PUSH2 0x30BC PUSH2 0x653F JUMP JUMPDEST SWAP1 PUSH2 0x100 EXP SWAP1 DIV PUSH1 0x1 PUSH1 0x1 PUSH1 0xA0 SHL SUB AND PUSH1 0x1 PUSH1 0x1 PUSH1 0xA0 SHL SUB AND GAS PUSH2 0x30DE PUSH2 0x6863 JUMP JUMPDEST PUSH1 0x1 PUSH1 0x1 PUSH1 0xA0 SHL SUB AND EQ PUSH2 0x2E0C JUMPI PUSH1 0x40 MLOAD PUSH3 0x461BCD PUSH1 0xE5 SHL DUP2 MSTORE PUSH1 0x4 ADD DUP1 DUP1 PUSH1 0x20 ADD DUP3 DUP2 SUB DUP3 MSTORE PUSH1 0x2F DUP2 MSTORE PUSH1 0x20 ADD DUP1 PUSH2 0x697D PUSH1 0x2F SWAP2 CODECOPY PUSH1 0x40 ADD SWAP2 POP POP PUSH1 0x40 MLOAD DUP1 SWAP2 SUB SWAP1 PUSH2 0xCC0 PUSH2 0x64D4 JUMP JUMPDEST PUSH1 0x60 PUSH1 0x1 PUSH1 0x40 MLOAD SWAP1 DUP1 DUP3 MSTORE DUP1 PUSH1 0x20 MUL PUSH1 0x20 ADD DUP3 ADD PUSH1 0x40 MSTORE DUP1 ISZERO PUSH2 0x3156 JUMPI DUP2 PUSH1 0x20 ADD PUSH1 0x20 DUP3 MUL DUP1 CODESIZE DUP4 CODECOPY ADD SWAP1 POP JUMPDEST POP SWAP1 POP DUP3 DUP2 PUSH1 0x0 DUP2 MLOAD DUP2 LT PUSH2 0x3167 JUMPI INVALID JUMPDEST PUSH1 0x20 MUL PUSH1 0x20 ADD ADD DUP2 DUP2 MSTORE POP POP PUSH1 0x60 PUSH1 0x1 PUSH1 0x40 MLOAD SWAP1 DUP1 DUP3 MSTORE DUP1 PUSH1 0x20 MUL PUSH1 0x20 ADD DUP3 ADD PUSH1 0x40 MSTORE DUP1 ISZERO PUSH2 0x31A0 JUMPI DUP2 PUSH1 0x20 ADD PUSH1 0x20 DUP3 MUL DUP1 CODESIZE DUP4 CODECOPY ADD SWAP1 POP JUMPDEST POP SWAP1 POP DUP3 DUP2 PUSH1 0x0 DUP2 MLOAD DUP2 LT PUSH2 0x31B1 JUMPI INVALID JUMPDEST PUSH1 0x20 MUL PUSH1 0x20 ADD ADD DUP2 DUP2 MSTORE POP POP PUSH2 0x31C9 DUP3 DUP3 PUSH1 0x0 PUSH2 0x5789 JUMP JUMPDEST POP POP POP POP JUMP JUMPDEST PUSH1 0x0 PUSH2 0x13AA PUSH15 0x466C657869626C6553746F72616765 PUSH1 0x88 SHL PUSH1 0x40 MLOAD PUSH1 0x40 DUP1 DUP3 ADD SWAP1 MSTORE PUSH1 0x1F DUP2 MSTORE PUSH32 0x4D697373696E6720466C657869626C6553746F72616765206164647265737300 PUSH1 0x20 DUP3 ADD MSTORE PUSH2 0x5D49 JUMP JUMPDEST PUSH1 0x0 PUSH2 0x322B DUP4 PUSH2 0x3DE4 JUMP JUMPDEST SWAP1 POP DUP2 ISZERO ISZERO DUP2 ISZERO ISZERO EQ PUSH2 0x17CC JUMPI DUP3 PUSH1 0x1 PUSH1 0x1 PUSH1 0xA0 SHL SUB AND PUSH4 0x3F28A6FC PUSH6 0x24B9B9BAB2B9 PUSH1 0xD1 SHL PUSH32 0x636163686564534E5849737375656444656274496E76616C6964000000000000 DUP6 PUSH1 0x40 MLOAD PUSH1 0x1 PUSH1 0x1 PUSH1 0xE0 SHL SUB NOT PUSH1 0xE0 DUP7 SWAP1 SHL AND DUP2 MSTORE PUSH1 0x4 DUP2 ADD SWAP4 SWAP1 SWAP4 MSTORE PUSH1 0x24 DUP4 ADD SWAP2 SWAP1 SWAP2 MSTORE ISZERO ISZERO PUSH1 0x44 DUP3 ADD MSTORE PUSH1 0x64 ADD PUSH1 0x0 PUSH1 0x40 MLOAD DUP1 DUP4 SUB DUP2 PUSH1 0x0 DUP8 DUP1 PUSH2 0x32B6 PUSH2 0x659A JUMP JUMPDEST ISZERO DUP1 ISZERO PUSH2 0x32CB JUMPI PUSH1 0x0 DUP1 PUSH2 0x32C8 PUSH2 0x64D4 JUMP JUMPDEST POP POP JUMPDEST POP GAS PUSH2 0x32D5 PUSH2 0x67AA JUMP JUMPDEST POP POP POP POP POP POP ISZERO DUP1 ISZERO PUSH2 0x32F5 JUMPI RETURNDATASIZE PUSH1 0x0 DUP1 RETURNDATACOPY RETURNDATASIZE PUSH1 0x0 PUSH2 0x32F2 PUSH2 0x64D4 JUMP JUMPDEST POP POP JUMPDEST POP POP POP POP DUP2 ISZERO ISZERO PUSH32 0x8EEBEC690C34BBF0FE0D5B93E442BEAF16BDAF99052569581DE2DCB3E31A53A7 PUSH1 0x40 MLOAD PUSH1 0x40 MLOAD DUP1 SWAP2 SUB SWAP1 LOG2 POP POP POP JUMP JUMPDEST PUSH1 0x0 DUP1 PUSH1 0x0 DUP1 PUSH2 0x3344 DUP6 PUSH4 0x1CD554D1 PUSH1 0xE2 SHL PUSH2 0x41CF JUMP JUMPDEST SWAP2 SWAP5 POP SWAP3 POP SWAP1 POP PUSH1 0x0 DUP1 PUSH2 0x3357 DUP8 PUSH2 0x2FB9 JUMP JUMPDEST SWAP2 POP SWAP2 POP DUP2 SWAP6 POP DUP3 DUP1 PUSH2 0x3367 JUMPI POP DUP1 JUMPDEST SWAP3 POP DUP6 DUP6 LT PUSH2 0x3379 JUMPI PUSH1 0x0 SWAP6 POP PUSH2 0x338C JUMP JUMPDEST PUSH2 0x3389 DUP7 DUP7 PUSH4 0xFFFFFFFF PUSH2 0x44DC AND JUMP JUMPDEST SWAP6 POP JUMPDEST POP POP SWAP2 SWAP4 POP SWAP2 SWAP4 JUMP JUMPDEST PUSH1 0x0 DUP1 PUSH2 0x33A0 PUSH2 0x653F JUMP JUMPDEST SWAP1 PUSH2 0x100 EXP SWAP1 DIV PUSH1 0x1 PUSH1 0x1 PUSH1 0xA0 SHL SUB AND PUSH1 0x1 PUSH1 0x1 PUSH1 0xA0 SHL SUB AND GAS PUSH2 0x33C2 PUSH2 0x6863 JUMP JUMPDEST PUSH1 0x1 PUSH1 0x1 PUSH1 0xA0 SHL SUB AND EQ PUSH2 0x2E0C JUMPI PUSH2 0x33D8 PUSH2 0x5E12 JUMP JUMPDEST PUSH1 0x1 PUSH1 0x1 PUSH1 0xA0 SHL SUB AND PUSH4 0x86DABD1 PUSH1 0x40 MLOAD DUP2 PUSH4 0xFFFFFFFF AND PUSH1 0xE0 SHL DUP2 MSTORE PUSH1 0x4 ADD PUSH1 0x0 PUSH1 0x40 MLOAD DUP1 DUP4 SUB DUP2 DUP7 DUP1 PUSH2 0x340B PUSH2 0x659A JUMP JUMPDEST ISZERO DUP1 ISZERO PUSH2 0x3420 JUMPI PUSH1 0x0 DUP1 PUSH2 0x341D PUSH2 0x64D4 JUMP JUMPDEST POP POP JUMPDEST POP GAS PUSH2 0x342A PUSH2 0x65E6 JUMP JUMPDEST POP POP POP POP POP ISZERO DUP1 ISZERO PUSH2 0x31C9 JUMPI RETURNDATASIZE PUSH1 0x0 DUP1 RETURNDATACOPY RETURNDATASIZE PUSH1 0x0 PUSH2 0x3446 PUSH2 0x64D4 JUMP JUMPDEST POP POP POP POP POP POP JUMP JUMPDEST PUSH1 0x60 DUP1 DUP3 PUSH2 0x345D JUMPI PUSH1 0x0 PUSH2 0x3460 JUMP JUMPDEST PUSH1 0x1 JUMPDEST PUSH1 0xFF AND PUSH1 0x5 DUP1 PUSH2 0x346E PUSH2 0x653F JUMP JUMPDEST SWAP1 POP ADD PUSH1 0x40 MLOAD SWAP1 DUP1 DUP3 MSTORE DUP1 PUSH1 0x20 MUL PUSH1 0x20 ADD DUP3 ADD PUSH1 0x40 MSTORE DUP1 ISZERO PUSH2 0x349A JUMPI DUP2 PUSH1 0x20 ADD PUSH1 0x20 DUP3 MUL DUP1 CODESIZE DUP4 CODECOPY ADD SWAP1 POP JUMPDEST POP SWAP1 POP PUSH1 0x0 JUMPDEST PUSH1 0x5 DUP1 PUSH2 0x34AB PUSH2 0x653F JUMP JUMPDEST SWAP1 POP DUP2 LT ISZERO PUSH2 0x3538 JUMPI PUSH1 0x7 PUSH1 0x0 PUSH1 0x5 DUP4 DUP2 PUSH2 0x34C4 PUSH2 0x653F JUMP JUMPDEST DUP2 LT PUSH2 0x34CC JUMPI INVALID JUMPDEST SWAP1 PUSH1 0x0 MSTORE PUSH1 0x20 PUSH1 0x0 KECCAK256 ADD PUSH1 0x0 SWAP1 PUSH2 0x34E1 PUSH2 0x653F JUMP JUMPDEST SWAP1 PUSH2 0x100 EXP SWAP1 DIV PUSH1 0x1 PUSH1 0x1 PUSH1 0xA0 SHL SUB AND PUSH1 0x1 PUSH1 0x1 PUSH1 0xA0 SHL SUB AND PUSH1 0x1 PUSH1 0x1 PUSH1 0xA0 SHL SUB AND DUP2 MSTORE PUSH1 0x20 ADD SWAP1 DUP2 MSTORE PUSH1 0x20 ADD PUSH1 0x0 KECCAK256 PUSH2 0x3519 PUSH2 0x653F JUMP JUMPDEST DUP3 DUP3 DUP2 MLOAD DUP2 LT PUSH2 0x3525 JUMPI INVALID JUMPDEST PUSH1 0x20 SWAP1 DUP2 MUL SWAP2 SWAP1 SWAP2 ADD ADD MSTORE PUSH1 0x1 ADD PUSH2 0x34A0 JUMP JUMPDEST POP DUP3 ISZERO PUSH2 0x1987 JUMPI PUSH3 0xA69CB PUSH1 0xEB SHL DUP2 PUSH1 0x5 DUP1 PUSH2 0x3552 PUSH2 0x653F JUMP JUMPDEST SWAP1 POP DUP2 MLOAD DUP2 LT PUSH2 0x355E JUMPI INVALID JUMPDEST PUSH1 0x20 MUL PUSH1 0x20 ADD ADD DUP2 DUP2 MSTORE POP POP SWAP3 SWAP2 POP POP JUMP JUMPDEST PUSH1 0x0 DUP3 DUP3 ADD DUP4 DUP2 LT ISZERO PUSH2 0x35D2 JUMPI PUSH1 0x40 MLOAD PUSH3 0x461BCD PUSH1 0xE5 SHL DUP2 MSTORE PUSH1 0x20 PUSH1 0x4 DUP3 ADD MSTORE PUSH1 0x1B PUSH1 0x24 DUP3 ADD MSTORE PUSH32 0x536166654D6174683A206164646974696F6E206F766572666C6F770000000000 PUSH1 0x44 DUP3 ADD MSTORE PUSH1 0x64 ADD PUSH1 0x40 MLOAD DUP1 SWAP2 SUB SWAP1 PUSH2 0x35CF PUSH2 0x64D4 JUMP JUMPDEST POP POP JUMPDEST SWAP4 SWAP3 POP POP POP JUMP JUMPDEST PUSH1 0x0 PUSH2 0x35E3 PUSH2 0x31CF JUMP JUMPDEST PUSH1 0x1 PUSH1 0x1 PUSH1 0xA0 SHL SUB AND PUSH4 0x23257C2B PUSH14 0x53797374656D53657474696E6773 PUSH1 0x90 SHL PUSH16 0x6D696E696D756D5374616B6554696D65 PUSH1 0x80 SHL PUSH1 0x40 MLOAD PUSH1 0x1 PUSH1 0x1 PUSH1 0xE0 SHL SUB NOT PUSH1 0xE0 DUP6 SWAP1 SHL AND DUP2 MSTORE PUSH1 0x4 DUP2 ADD SWAP3 SWAP1 SWAP3 MSTORE PUSH1 0x24 DUP3 ADD MSTORE PUSH1 0x44 ADD PUSH1 0x20 PUSH1 0x40 MLOAD DUP1 DUP4 SUB DUP2 DUP7 DUP1 PUSH2 0x364E PUSH2 0x659A JUMP JUMPDEST ISZERO DUP1 ISZERO PUSH2 0x3663 JUMPI PUSH1 0x0 DUP1 PUSH2 0x3660 PUSH2 0x64D4 JUMP JUMPDEST POP POP JUMPDEST POP GAS PUSH2 0x366D PUSH2 0x65E6 JUMP JUMPDEST POP POP POP POP POP ISZERO DUP1 ISZERO PUSH2 0x368C JUMPI RETURNDATASIZE PUSH1 0x0 DUP1 RETURNDATACOPY RETURNDATASIZE PUSH1 0x0 PUSH2 0x3689 PUSH2 0x64D4 JUMP JUMPDEST POP POP JUMPDEST POP POP POP POP PUSH1 0x40 MLOAD RETURNDATASIZE PUSH1 0x20 DUP2 LT ISZERO PUSH2 0x36AB JUMPI PUSH1 0x0 DUP1 PUSH2 0x36A8 PUSH2 0x64D4 JUMP JUMPDEST POP POP JUMPDEST DUP2 ADD SWAP1 DUP1 DUP1 MLOAD SWAP4 POP POP POP POP SWAP1 JUMP JUMPDEST PUSH2 0x36C1 PUSH2 0x5E60 JUMP JUMPDEST PUSH1 0x1 PUSH1 0x1 PUSH1 0xA0 SHL SUB AND PUSH4 0x7D3F0BA2 DUP4 DUP4 PUSH1 0x40 MLOAD PUSH1 0x1 PUSH1 0x1 PUSH1 0xE0 SHL SUB NOT PUSH1 0xE0 DUP6 SWAP1 SHL AND DUP2 MSTORE PUSH1 0x1 PUSH1 0x1 PUSH1 0xA0 SHL SUB SWAP3 DUP4 AND PUSH1 0x4 DUP3 ADD MSTORE SWAP2 AND PUSH1 0x24 DUP3 ADD MSTORE PUSH1 0x44 ADD PUSH1 0x20 PUSH1 0x40 MLOAD DUP1 DUP4 SUB DUP2 DUP7 DUP1 PUSH2 0x3712 PUSH2 0x659A JUMP JUMPDEST ISZERO DUP1 ISZERO PUSH2 0x3727 JUMPI PUSH1 0x0 DUP1 PUSH2 0x3724 PUSH2 0x64D4 JUMP JUMPDEST POP POP JUMPDEST POP GAS PUSH2 0x3731 PUSH2 0x65E6 JUMP JUMPDEST POP POP POP POP POP ISZERO DUP1 ISZERO PUSH2 0x3750 JUMPI RETURNDATASIZE PUSH1 0x0 DUP1 RETURNDATACOPY RETURNDATASIZE PUSH1 0x0 PUSH2 0x374D PUSH2 0x64D4 JUMP JUMPDEST POP POP JUMPDEST POP POP POP POP PUSH1 0x40 MLOAD RETURNDATASIZE PUSH1 0x20 DUP2 LT ISZERO PUSH2 0x376F JUMPI PUSH1 0x0 DUP1 PUSH2 0x376C PUSH2 0x64D4 JUMP JUMPDEST POP POP JUMPDEST DUP2 ADD SWAP1 DUP1 DUP1 MLOAD SWAP3 POP PUSH2 0xCC0 SWAP2 POP POP JUMPI PUSH1 0x40 MLOAD PUSH3 0x461BCD PUSH1 0xE5 SHL DUP2 MSTORE PUSH1 0x20 PUSH1 0x4 DUP3 ADD MSTORE PUSH1 0x1D PUSH1 0x24 DUP3 ADD MSTORE PUSH32 0x4E6F7420617070726F76656420746F20616374206F6E20626568616C66000000 PUSH1 0x44 DUP3 ADD MSTORE PUSH1 0x64 ADD PUSH1 0x40 MLOAD DUP1 SWAP2 SUB SWAP1 PUSH2 0x31C9 PUSH2 0x64D4 JUMP JUMPDEST DUP1 PUSH2 0x39F9 JUMPI PUSH2 0x37DE DUP4 PUSH2 0x4EAF JUMP JUMPDEST PUSH2 0x3837 JUMPI PUSH1 0x40 MLOAD PUSH3 0x461BCD PUSH1 0xE5 SHL DUP2 MSTORE PUSH1 0x20 PUSH1 0x4 DUP3 ADD MSTORE PUSH1 0x1E PUSH1 0x24 DUP3 ADD MSTORE PUSH32 0x4D696E696D756D207374616B652074696D65206E6F7420726561636865640000 PUSH1 0x44 DUP3 ADD MSTORE PUSH1 0x64 ADD PUSH1 0x40 MLOAD DUP1 SWAP2 SUB SWAP1 PUSH2 0x3834 PUSH2 0x64D4 JUMP JUMPDEST POP POP JUMPDEST PUSH1 0x0 DUP1 PUSH2 0x3842 PUSH2 0x4B8C JUMP JUMPDEST PUSH1 0x1 PUSH1 0x1 PUSH1 0xA0 SHL SUB AND PUSH4 0x1B16802C DUP7 PUSH4 0x1CD554D1 PUSH1 0xE2 SHL PUSH1 0x40 MLOAD PUSH1 0x1 PUSH1 0x1 PUSH1 0xE0 SHL SUB NOT PUSH1 0xE0 DUP6 SWAP1 SHL AND DUP2 MSTORE PUSH1 0x1 PUSH1 0x1 PUSH1 0xA0 SHL SUB SWAP1 SWAP3 AND PUSH1 0x4 DUP4 ADD MSTORE PUSH1 0x24 DUP3 ADD MSTORE PUSH1 0x44 ADD PUSH1 0x60 PUSH1 0x40 MLOAD DUP1 DUP4 SUB DUP2 PUSH1 0x0 DUP8 DUP1 PUSH2 0x389A PUSH2 0x659A JUMP JUMPDEST ISZERO DUP1 ISZERO PUSH2 0x38AF JUMPI PUSH1 0x0 DUP1 PUSH2 0x38AC PUSH2 0x64D4 JUMP JUMPDEST POP POP JUMPDEST POP GAS PUSH2 0x38B9 PUSH2 0x67AA JUMP JUMPDEST POP POP POP POP POP POP ISZERO DUP1 ISZERO PUSH2 0x38D9 JUMPI RETURNDATASIZE PUSH1 0x0 DUP1 RETURNDATACOPY RETURNDATASIZE PUSH1 0x0 PUSH2 0x38D6 PUSH2 0x64D4 JUMP JUMPDEST POP POP JUMPDEST POP POP POP POP PUSH1 0x40 MLOAD RETURNDATASIZE PUSH1 0x60 DUP2 LT ISZERO PUSH2 0x38F8 JUMPI PUSH1 0x0 DUP1 PUSH2 0x38F5 PUSH2 0x64D4 JUMP JUMPDEST POP POP JUMPDEST DUP2 ADD SWAP1 DUP1 DUP1 MLOAD SWAP3 SWAP2 SWAP1 PUSH1 0x20 ADD DUP1 MLOAD SWAP3 SWAP2 SWAP1 PUSH1 0x20 ADD DUP1 MLOAD SWAP4 SWAP7 POP SWAP3 SWAP5 POP POP DUP4 ISZERO SWAP3 POP PUSH2 0x39F6 SWAP2 POP POP JUMPI PUSH2 0x3928 PUSH2 0x4B8C JUMP JUMPDEST PUSH1 0x1 PUSH1 0x1 PUSH1 0xA0 SHL SUB AND PUSH4 0x4C268FC8 DUP7 PUSH4 0x1CD554D1 PUSH1 0xE2 SHL DUP8 DUP7 PUSH1 0x40 MLOAD PUSH1 0x1 PUSH1 0x1 PUSH1 0xE0 SHL SUB NOT PUSH1 0xE0 DUP8 SWAP1 SHL AND DUP2 MSTORE PUSH1 0x1 PUSH1 0x1 PUSH1 0xA0 SHL SUB SWAP1 SWAP5 AND PUSH1 0x4 DUP6 ADD MSTORE PUSH1 0x24 DUP5 ADD SWAP3 SWAP1 SWAP3 MSTORE PUSH1 0x44 DUP4 ADD MSTORE PUSH1 0x64 DUP3 ADD MSTORE PUSH1 0x84 ADD PUSH1 0x20 PUSH1 0x40 MLOAD DUP1 DUP4 SUB DUP2 DUP7 DUP1 PUSH2 0x398D PUSH2 0x659A JUMP JUMPDEST ISZERO DUP1 ISZERO PUSH2 0x39A2 JUMPI PUSH1 0x0 DUP1 PUSH2 0x399F PUSH2 0x64D4 JUMP JUMPDEST POP POP JUMPDEST POP GAS PUSH2 0x39AC PUSH2 0x65E6 JUMP JUMPDEST POP POP POP POP POP ISZERO DUP1 ISZERO PUSH2 0x39CB JUMPI RETURNDATASIZE PUSH1 0x0 DUP1 RETURNDATACOPY RETURNDATASIZE PUSH1 0x0 PUSH2 0x39C8 PUSH2 0x64D4 JUMP JUMPDEST POP POP JUMPDEST POP POP POP POP PUSH1 0x40 MLOAD RETURNDATASIZE PUSH1 0x20 DUP2 LT ISZERO PUSH2 0x39EA JUMPI PUSH1 0x0 DUP1 PUSH2 0x39E7 PUSH2 0x64D4 JUMP JUMPDEST POP POP JUMPDEST DUP2 ADD SWAP1 DUP1 DUP1 MLOAD SWAP7 POP POP POP POP JUMPDEST POP POP JUMPDEST PUSH1 0x0 DUP1 PUSH1 0x0 PUSH2 0x3A0F DUP7 PUSH4 0x1CD554D1 PUSH1 0xE2 SHL PUSH2 0x41CF JUMP JUMPDEST SWAP3 POP SWAP3 POP SWAP3 POP PUSH1 0x0 DUP1 PUSH2 0x3A21 DUP9 PUSH2 0x2FB9 JUMP JUMPDEST SWAP2 POP SWAP2 POP PUSH2 0x3A35 DUP4 DUP1 PUSH2 0x27AD JUMPI POP DUP2 PUSH2 0x4C25 JUMP JUMPDEST PUSH1 0x0 DUP6 GT PUSH2 0x3A87 JUMPI PUSH1 0x40 MLOAD PUSH3 0x461BCD PUSH1 0xE5 SHL DUP2 MSTORE PUSH1 0x20 PUSH1 0x4 DUP3 ADD MSTORE PUSH1 0x12 PUSH1 0x24 DUP3 ADD MSTORE PUSH18 0x4E6F206465627420746F20666F7267697665 PUSH1 0x70 SHL PUSH1 0x44 DUP3 ADD MSTORE PUSH1 0x64 ADD PUSH1 0x40 MLOAD DUP1 SWAP2 SUB SWAP1 PUSH2 0x3A84 PUSH2 0x64D4 JUMP JUMPDEST POP POP JUMPDEST DUP6 ISZERO PUSH2 0x3AA0 JUMPI PUSH2 0x3A9D DUP6 DUP4 PUSH4 0xFFFFFFFF PUSH2 0x44DC AND JUMP JUMPDEST SWAP7 POP JUMPDEST PUSH1 0x0 PUSH2 0x3AAF DUP10 DUP11 DUP11 DUP10 DUP10 PUSH2 0x4CF5 JUMP JUMPDEST SWAP1 POP DUP3 PUSH2 0x3AC2 DUP8 DUP4 PUSH4 0xFFFFFFFF PUSH2 0x44DC AND JUMP JUMPDEST GT PUSH2 0x3B5E JUMPI PUSH2 0x3ACF PUSH2 0x4BD7 JUMP JUMPDEST PUSH1 0x1 PUSH1 0x1 PUSH1 0xA0 SHL SUB AND PUSH4 0x974E9E7F DUP11 PUSH1 0x40 MLOAD PUSH1 0x1 PUSH1 0x1 PUSH1 0xE0 SHL SUB NOT PUSH1 0xE0 DUP5 SWAP1 SHL AND DUP2 MSTORE PUSH1 0x1 PUSH1 0x1 PUSH1 0xA0 SHL SUB SWAP1 SWAP2 AND PUSH1 0x4 DUP3 ADD MSTORE PUSH1 0x24 ADD PUSH1 0x0 PUSH1 0x40 MLOAD DUP1 DUP4 SUB DUP2 PUSH1 0x0 DUP8 DUP1 PUSH2 0x3B1A PUSH2 0x659A JUMP JUMPDEST ISZERO DUP1 ISZERO PUSH2 0x3B2F JUMPI PUSH1 0x0 DUP1 PUSH2 0x3B2C PUSH2 0x64D4 JUMP JUMPDEST POP POP JUMPDEST POP GAS PUSH2 0x3B39 PUSH2 0x67AA JUMP JUMPDEST POP POP POP POP POP POP ISZERO DUP1 ISZERO PUSH2 0x3B59 JUMPI RETURNDATASIZE PUSH1 0x0 DUP1 RETURNDATACOPY RETURNDATASIZE PUSH1 0x0 PUSH2 0x3B56 PUSH2 0x64D4 JUMP JUMPDEST POP POP JUMPDEST POP POP POP POP JUMPDEST POP POP POP POP POP POP POP POP POP JUMP JUMPDEST PUSH1 0x0 DUP1 PUSH1 0x60 PUSH1 0x2 PUSH1 0x40 MLOAD SWAP1 DUP1 DUP3 MSTORE DUP1 PUSH1 0x20 MUL PUSH1 0x20 ADD DUP3 ADD PUSH1 0x40 MSTORE DUP1 ISZERO PUSH2 0x3B99 JUMPI DUP2 PUSH1 0x20 ADD PUSH1 0x20 DUP3 MUL DUP1 CODESIZE DUP4 CODECOPY ADD SWAP1 POP JUMPDEST POP SWAP1 POP PUSH19 0x18D858DA195914D396125CDCDD59591119589D PUSH1 0x6A SHL DUP2 PUSH1 0x0 DUP2 MLOAD DUP2 LT PUSH2 0x3BC0 JUMPI INVALID JUMPDEST PUSH1 0x20 MUL PUSH1 0x20 ADD ADD DUP2 DUP2 MSTORE POP POP PUSH32 0x636163686564534E584973737565644465627454696D657374616D7000000000 DUP2 PUSH1 0x1 DUP2 MLOAD DUP2 LT PUSH2 0x3BFA JUMPI INVALID JUMPDEST PUSH1 0x20 MUL PUSH1 0x20 ADD ADD DUP2 DUP2 MSTORE POP POP PUSH1 0x60 DUP5 PUSH1 0x1 PUSH1 0x1 PUSH1 0xA0 SHL SUB AND PUSH4 0xB67FA7ED PUSH6 0x24B9B9BAB2B9 PUSH1 0xD1 SHL DUP5 PUSH1 0x40 MLOAD DUP4 PUSH4 0xFFFFFFFF AND PUSH1 0xE0 SHL DUP2 MSTORE PUSH1 0x4 ADD DUP1 DUP4 DUP2 MSTORE PUSH1 0x20 ADD DUP1 PUSH1 0x20 ADD DUP3 DUP2 SUB DUP3 MSTORE DUP4 DUP2 DUP2 MLOAD DUP2 MSTORE PUSH1 0x20 ADD SWAP2 POP DUP1 MLOAD SWAP1 PUSH1 0x20 ADD SWAP1 PUSH1 0x20 MUL DUP1 DUP4 DUP4 PUSH1 0x0 JUMPDEST DUP4 DUP2 LT ISZERO PUSH2 0x3C77 JUMPI DUP1 DUP3 ADD MLOAD DUP4 DUP3 ADD MSTORE PUSH1 0x20 ADD PUSH2 0x3C5F JUMP JUMPDEST POP POP POP POP SWAP1 POP ADD SWAP4 POP POP POP POP PUSH1 0x0 PUSH1 0x40 MLOAD DUP1 DUP4 SUB DUP2 DUP7 DUP1 PUSH2 0x3C96 PUSH2 0x659A JUMP JUMPDEST ISZERO DUP1 ISZERO PUSH2 0x3CAB JUMPI PUSH1 0x0 DUP1 PUSH2 0x3CA8 PUSH2 0x64D4 JUMP JUMPDEST POP POP JUMPDEST POP GAS PUSH2 0x3CB5 PUSH2 0x65E6 JUMP JUMPDEST POP POP POP POP POP ISZERO DUP1 ISZERO PUSH2 0x3CD4 JUMPI RETURNDATASIZE PUSH1 0x0 DUP1 RETURNDATACOPY RETURNDATASIZE PUSH1 0x0 PUSH2 0x3CD1 PUSH2 0x64D4 JUMP JUMPDEST POP POP JUMPDEST POP POP POP POP PUSH1 0x40 MLOAD RETURNDATASIZE PUSH1 0x0 DUP3 RETURNDATACOPY PUSH1 0x1F RETURNDATASIZE SWAP1 DUP2 ADD PUSH1 0x1F NOT AND DUP3 ADD PUSH1 0x40 MSTORE PUSH1 0x20 DUP2 LT ISZERO PUSH2 0x3D06 JUMPI PUSH1 0x0 DUP1 PUSH2 0x3D03 PUSH2 0x64D4 JUMP JUMPDEST POP POP JUMPDEST DUP2 ADD SWAP1 DUP1 DUP1 MLOAD PUSH1 0x40 MLOAD SWAP4 SWAP3 SWAP2 SWAP1 DUP5 PUSH1 0x1 PUSH1 0x20 SHL DUP3 GT ISZERO PUSH2 0x3D2E JUMPI PUSH1 0x0 DUP1 PUSH2 0x3D2B PUSH2 0x64D4 JUMP JUMPDEST POP POP JUMPDEST SWAP1 DUP4 ADD SWAP1 PUSH1 0x20 DUP3 ADD DUP6 DUP2 GT ISZERO PUSH2 0x3D4C JUMPI PUSH1 0x0 DUP1 PUSH2 0x3D49 PUSH2 0x64D4 JUMP JUMPDEST POP POP JUMPDEST DUP3 MLOAD DUP7 PUSH1 0x20 DUP3 MUL DUP4 ADD GT PUSH1 0x1 PUSH1 0x20 SHL DUP3 GT OR ISZERO PUSH2 0x3D71 JUMPI PUSH1 0x0 DUP1 PUSH2 0x3D6E PUSH2 0x64D4 JUMP JUMPDEST POP POP JUMPDEST DUP3 MSTORE POP PUSH1 0x20 ADD SWAP1 DUP1 MLOAD SWAP1 PUSH1 0x20 ADD SWAP1 PUSH1 0x20 MUL DUP1 DUP4 DUP4 PUSH1 0x0 JUMPDEST DUP4 DUP2 LT ISZERO PUSH2 0x3DA0 JUMPI DUP1 DUP3 ADD MLOAD DUP4 DUP3 ADD MSTORE PUSH1 0x20 ADD PUSH2 0x3D88 JUMP JUMPDEST POP POP POP POP SWAP1 POP ADD PUSH1 0x40 MSTORE POP POP POP SWAP1 POP DUP1 PUSH1 0x0 DUP2 MLOAD DUP2 LT PUSH2 0x3DBC JUMPI INVALID JUMPDEST PUSH1 0x20 MUL PUSH1 0x20 ADD ADD MLOAD DUP2 PUSH1 0x1 DUP2 MLOAD DUP2 LT PUSH2 0x3DD1 JUMPI INVALID JUMPDEST PUSH1 0x20 MUL PUSH1 0x20 ADD ADD MLOAD SWAP4 POP SWAP4 POP POP POP SWAP2 POP SWAP2 JUMP JUMPDEST PUSH1 0x0 DUP2 PUSH1 0x1 PUSH1 0x1 PUSH1 0xA0 SHL SUB AND PUSH4 0xD994502D PUSH6 0x24B9B9BAB2B9 PUSH1 0xD1 SHL PUSH32 0x636163686564534E5849737375656444656274496E76616C6964000000000000 PUSH1 0x40 MLOAD PUSH1 0x1 PUSH1 0x1 PUSH1 0xE0 SHL SUB NOT PUSH1 0xE0 DUP6 SWAP1 SHL AND DUP2 MSTORE PUSH1 0x4 DUP2 ADD SWAP3 SWAP1 SWAP3 MSTORE PUSH1 0x24 DUP3 ADD MSTORE PUSH1 0x44 ADD PUSH1 0x20 PUSH1 0x40 MLOAD DUP1 DUP4 SUB DUP2 DUP7 DUP1 PUSH2 0x3E57 PUSH2 0x659A JUMP JUMPDEST ISZERO DUP1 ISZERO PUSH2 0x3E6C JUMPI PUSH1 0x0 DUP1 PUSH2 0x3E69 PUSH2 0x64D4 JUMP JUMPDEST POP POP JUMPDEST POP GAS PUSH2 0x3E76 PUSH2 0x65E6 JUMP JUMPDEST POP POP POP POP POP ISZERO DUP1 ISZERO PUSH2 0x3E95 JUMPI RETURNDATASIZE PUSH1 0x0 DUP1 RETURNDATACOPY RETURNDATASIZE PUSH1 0x0 PUSH2 0x3E92 PUSH2 0x64D4 JUMP JUMPDEST POP POP JUMPDEST POP POP POP POP PUSH1 0x40 MLOAD RETURNDATASIZE PUSH1 0x20 DUP2 LT ISZERO PUSH2 0x3EB4 JUMPI PUSH1 0x0 DUP1 PUSH2 0x3EB1 PUSH2 0x64D4 JUMP JUMPDEST POP POP JUMPDEST DUP2 ADD SWAP1 DUP1 DUP1 MLOAD SWAP6 SWAP5 POP POP POP POP POP JUMP JUMPDEST PUSH1 0x0 PUSH2 0x13AA PUSH13 0x45786368616E67655261746573 PUSH1 0x98 SHL PUSH1 0x40 MLOAD PUSH1 0x40 DUP1 DUP3 ADD SWAP1 MSTORE PUSH1 0x1D DUP2 MSTORE PUSH32 0x4D697373696E672045786368616E676552617465732061646472657373000000 PUSH1 0x20 DUP3 ADD MSTORE PUSH2 0x5D49 JUMP JUMPDEST PUSH1 0x60 PUSH1 0x0 DUP4 MLOAD SWAP1 POP PUSH1 0x60 DUP2 PUSH1 0x40 MLOAD SWAP1 DUP1 DUP3 MSTORE DUP1 PUSH1 0x20 MUL PUSH1 0x20 ADD DUP3 ADD PUSH1 0x40 MSTORE DUP1 ISZERO PUSH2 0x3F46 JUMPI DUP2 PUSH1 0x20 ADD PUSH1 0x20 DUP3 MUL DUP1 CODESIZE DUP4 CODECOPY ADD SWAP1 POP JUMPDEST POP SWAP1 POP PUSH1 0x0 JUMPDEST DUP3 DUP2 LT ISZERO PUSH2 0x416D JUMPI PUSH1 0x0 DUP7 DUP3 DUP2 MLOAD DUP2 LT PUSH2 0x3F62 JUMPI INVALID JUMPDEST PUSH1 0x20 MUL PUSH1 0x20 ADD ADD MLOAD PUSH1 0x0 DUP2 DUP2 MSTORE PUSH1 0x6 PUSH1 0x20 MSTORE SWAP1 SWAP2 POP PUSH1 0x40 DUP2 KECCAK256 PUSH1 0x0 SWAP1 PUSH2 0x3F86 PUSH2 0x653F JUMP JUMPDEST SWAP1 PUSH2 0x100 EXP SWAP1 DIV PUSH1 0x1 PUSH1 0x1 PUSH1 0xA0 SHL SUB AND PUSH1 0x1 PUSH1 0x1 PUSH1 0xA0 SHL SUB AND PUSH4 0x18160DDD PUSH1 0x40 MLOAD DUP2 PUSH4 0xFFFFFFFF AND PUSH1 0xE0 SHL DUP2 MSTORE PUSH1 0x4 ADD PUSH1 0x20 PUSH1 0x40 MLOAD DUP1 DUP4 SUB DUP2 DUP7 DUP1 PUSH2 0x3FC9 PUSH2 0x659A JUMP JUMPDEST ISZERO DUP1 ISZERO PUSH2 0x3FDE JUMPI PUSH1 0x0 DUP1 PUSH2 0x3FDB PUSH2 0x64D4 JUMP JUMPDEST POP POP JUMPDEST POP GAS PUSH2 0x3FE8 PUSH2 0x65E6 JUMP JUMPDEST POP POP POP POP POP ISZERO DUP1 ISZERO PUSH2 0x4007 JUMPI RETURNDATASIZE PUSH1 0x0 DUP1 RETURNDATACOPY RETURNDATASIZE PUSH1 0x0 PUSH2 0x4004 PUSH2 0x64D4 JUMP JUMPDEST POP POP JUMPDEST POP POP POP POP PUSH1 0x40 MLOAD RETURNDATASIZE PUSH1 0x20 DUP2 LT ISZERO PUSH2 0x4026 JUMPI PUSH1 0x0 DUP1 PUSH2 0x4023 PUSH2 0x64D4 JUMP JUMPDEST POP POP JUMPDEST DUP2 ADD SWAP1 DUP1 DUP1 MLOAD SWAP4 POP POP POP PUSH4 0x1CD554D1 PUSH1 0xE2 SHL DUP4 EQ SWAP1 POP DUP1 DUP1 PUSH2 0x404E JUMPI POP PUSH4 0xE68AA89 PUSH1 0xE3 SHL DUP4 EQ JUMPDEST ISZERO PUSH2 0x4127 JUMPI PUSH1 0x0 DUP2 PUSH2 0x4067 JUMPI PUSH2 0x4062 PUSH2 0x5E96 JUMP JUMPDEST PUSH2 0x406F JUMP JUMPDEST PUSH2 0x406F PUSH2 0x5EE7 JUMP JUMPDEST SWAP1 POP PUSH1 0x0 DUP2 PUSH1 0x1 PUSH1 0x1 PUSH1 0xA0 SHL SUB AND PUSH4 0xEE5F3F5C PUSH1 0x40 MLOAD DUP2 PUSH4 0xFFFFFFFF AND PUSH1 0xE0 SHL DUP2 MSTORE PUSH1 0x4 ADD PUSH1 0x20 PUSH1 0x40 MLOAD DUP1 DUP4 SUB DUP2 DUP7 DUP1 PUSH2 0x40A7 PUSH2 0x659A JUMP JUMPDEST ISZERO DUP1 ISZERO PUSH2 0x40BC JUMPI PUSH1 0x0 DUP1 PUSH2 0x40B9 PUSH2 0x64D4 JUMP JUMPDEST POP POP JUMPDEST POP GAS PUSH2 0x40C6 PUSH2 0x65E6 JUMP JUMPDEST POP POP POP POP POP ISZERO DUP1 ISZERO PUSH2 0x40E5 JUMPI RETURNDATASIZE PUSH1 0x0 DUP1 RETURNDATACOPY RETURNDATASIZE PUSH1 0x0 PUSH2 0x40E2 PUSH2 0x64D4 JUMP JUMPDEST POP POP JUMPDEST POP POP POP POP PUSH1 0x40 MLOAD RETURNDATASIZE PUSH1 0x20 DUP2 LT ISZERO PUSH2 0x4104 JUMPI PUSH1 0x0 DUP1 PUSH2 0x4101 PUSH2 0x64D4 JUMP JUMPDEST POP POP JUMPDEST DUP2 ADD SWAP1 DUP1 DUP1 MLOAD SWAP4 POP PUSH2 0x4122 SWAP3 POP DUP7 SWAP2 POP DUP4 SWAP1 POP PUSH4 0xFFFFFFFF PUSH2 0x44DC AND JUMP JUMPDEST SWAP4 POP POP POP JUMPDEST PUSH2 0x414B DUP9 DUP6 DUP2 MLOAD DUP2 LT PUSH2 0x4136 JUMPI INVALID JUMPDEST PUSH1 0x20 MUL PUSH1 0x20 ADD ADD MLOAD DUP4 SWAP1 PUSH4 0xFFFFFFFF PUSH2 0x5F1F AND JUMP JUMPDEST DUP6 DUP6 DUP2 MLOAD DUP2 LT PUSH2 0x4157 JUMPI INVALID JUMPDEST PUSH1 0x20 SWAP1 DUP2 MUL SWAP2 SWAP1 SWAP2 ADD ADD MSTORE POP POP POP PUSH1 0x1 ADD PUSH2 0x3F4C JUMP JUMPDEST POP SWAP5 SWAP4 POP POP POP POP JUMP JUMPDEST PUSH2 0x417E PUSH2 0x5E60 JUMP JUMPDEST PUSH1 0x1 PUSH1 0x1 PUSH1 0xA0 SHL SUB AND PUSH4 0x4872617 DUP4 DUP4 PUSH1 0x40 MLOAD PUSH1 0x1 PUSH1 0x1 PUSH1 0xE0 SHL SUB NOT PUSH1 0xE0 DUP6 SWAP1 SHL AND DUP2 MSTORE PUSH1 0x1 PUSH1 0x1 PUSH1 0xA0 SHL SUB SWAP3 DUP4 AND PUSH1 0x4 DUP3 ADD MSTORE SWAP2 AND PUSH1 0x24 DUP3 ADD MSTORE PUSH1 0x44 ADD PUSH1 0x20 PUSH1 0x40 MLOAD DUP1 DUP4 SUB DUP2 DUP7 DUP1 PUSH2 0x3712 PUSH2 0x659A JUMP JUMPDEST PUSH1 0x0 DUP1 PUSH1 0x0 DUP1 PUSH2 0x41DD PUSH2 0x4EE2 JUMP JUMPDEST SWAP1 POP PUSH1 0x0 DUP1 DUP3 PUSH1 0x1 PUSH1 0x1 PUSH1 0xA0 SHL SUB AND PUSH4 0x8B3F8088 DUP10 PUSH1 0x40 MLOAD PUSH1 0x1 PUSH1 0x1 PUSH1 0xE0 SHL SUB NOT PUSH1 0xE0 DUP5 SWAP1 SHL AND DUP2 MSTORE PUSH1 0x1 PUSH1 0x1 PUSH1 0xA0 SHL SUB SWAP1 SWAP2 AND PUSH1 0x4 DUP3 ADD MSTORE PUSH1 0x24 ADD PUSH1 0x40 DUP1 MLOAD DUP1 DUP4 SUB DUP2 DUP7 DUP1 PUSH2 0x422B PUSH2 0x659A JUMP JUMPDEST ISZERO DUP1 ISZERO PUSH2 0x4240 JUMPI PUSH1 0x0 DUP1 PUSH2 0x423D PUSH2 0x64D4 JUMP JUMPDEST POP POP JUMPDEST POP GAS PUSH2 0x424A PUSH2 0x65E6 JUMP JUMPDEST POP POP POP POP POP ISZERO DUP1 ISZERO PUSH2 0x4269 JUMPI RETURNDATASIZE PUSH1 0x0 DUP1 RETURNDATACOPY RETURNDATASIZE PUSH1 0x0 PUSH2 0x4266 PUSH2 0x64D4 JUMP JUMPDEST POP POP JUMPDEST POP POP POP POP PUSH1 0x40 MLOAD RETURNDATASIZE PUSH1 0x40 DUP2 LT ISZERO PUSH2 0x4288 JUMPI PUSH1 0x0 DUP1 PUSH2 0x4285 PUSH2 0x64D4 JUMP JUMPDEST POP POP JUMPDEST DUP2 ADD SWAP1 DUP1 DUP1 MLOAD SWAP3 SWAP2 SWAP1 PUSH1 0x20 ADD DUP1 MLOAD SWAP4 SWAP6 POP SWAP3 SWAP4 POP PUSH2 0x42AD SWAP3 POP DUP10 SWAP2 POP PUSH1 0x1 SWAP1 POP PUSH2 0x4541 JUMP JUMPDEST SWAP1 SWAP6 POP SWAP4 POP DUP2 PUSH2 0x42C4 JUMPI POP PUSH1 0x0 SWAP5 POP PUSH2 0x444E SWAP2 POP POP JUMP JUMPDEST PUSH1 0x0 PUSH2 0x442A DUP4 PUSH2 0x441E DUP7 PUSH1 0x1 PUSH1 0x1 PUSH1 0xA0 SHL SUB AND PUSH4 0x8D95CD5 DUP7 PUSH1 0x40 MLOAD PUSH1 0x1 PUSH1 0x1 PUSH1 0xE0 SHL SUB NOT PUSH1 0xE0 DUP5 SWAP1 SHL AND DUP2 MSTORE PUSH1 0x4 DUP2 ADD SWAP2 SWAP1 SWAP2 MSTORE PUSH1 0x24 ADD PUSH1 0x20 PUSH1 0x40 MLOAD DUP1 DUP4 SUB DUP2 DUP7 DUP1 PUSH2 0x430F PUSH2 0x659A JUMP JUMPDEST ISZERO DUP1 ISZERO PUSH2 0x4324 JUMPI PUSH1 0x0 DUP1 PUSH2 0x4321 PUSH2 0x64D4 JUMP JUMPDEST POP POP JUMPDEST POP GAS PUSH2 0x432E PUSH2 0x65E6 JUMP JUMPDEST POP POP POP POP POP ISZERO DUP1 ISZERO PUSH2 0x434D JUMPI RETURNDATASIZE PUSH1 0x0 DUP1 RETURNDATACOPY RETURNDATASIZE PUSH1 0x0 PUSH2 0x434A PUSH2 0x64D4 JUMP JUMPDEST POP POP JUMPDEST POP POP POP POP PUSH1 0x40 MLOAD RETURNDATASIZE PUSH1 0x20 DUP2 LT ISZERO PUSH2 0x436C JUMPI PUSH1 0x0 DUP1 PUSH2 0x4369 PUSH2 0x64D4 JUMP JUMPDEST POP POP JUMPDEST DUP2 ADD SWAP1 DUP1 DUP1 MLOAD SWAP3 POP POP POP PUSH1 0x1 PUSH1 0x1 PUSH1 0xA0 SHL SUB DUP9 AND PUSH4 0x46317712 PUSH1 0x40 MLOAD DUP2 PUSH4 0xFFFFFFFF AND PUSH1 0xE0 SHL DUP2 MSTORE PUSH1 0x4 ADD PUSH1 0x20 PUSH1 0x40 MLOAD DUP1 DUP4 SUB DUP2 DUP7 DUP1 PUSH2 0x43AA PUSH2 0x659A JUMP JUMPDEST ISZERO DUP1 ISZERO PUSH2 0x43BF JUMPI PUSH1 0x0 DUP1 PUSH2 0x43BC PUSH2 0x64D4 JUMP JUMPDEST POP POP JUMPDEST POP GAS PUSH2 0x43C9 PUSH2 0x65E6 JUMP JUMPDEST POP POP POP POP POP ISZERO DUP1 ISZERO PUSH2 0x43E8 JUMPI RETURNDATASIZE PUSH1 0x0 DUP1 RETURNDATACOPY RETURNDATASIZE PUSH1 0x0 PUSH2 0x43E5 PUSH2 0x64D4 JUMP JUMPDEST POP POP JUMPDEST POP POP POP POP PUSH1 0x40 MLOAD RETURNDATASIZE PUSH1 0x20 DUP2 LT ISZERO PUSH2 0x4407 JUMPI PUSH1 0x0 DUP1 PUSH2 0x4404 PUSH2 0x64D4 JUMP JUMPDEST POP POP JUMPDEST DUP2 ADD SWAP1 DUP1 DUP1 MLOAD SWAP4 SWAP3 POP POP PUSH4 0xFFFFFFFF PUSH2 0x5F34 AND SWAP1 POP JUMP JUMPDEST SWAP1 PUSH4 0xFFFFFFFF PUSH2 0x5F4D AND JUMP JUMPDEST SWAP1 POP PUSH1 0x0 PUSH2 0x443B DUP3 PUSH2 0x441E DUP10 PUSH2 0x5F66 JUMP JUMPDEST SWAP1 POP PUSH2 0x4446 DUP2 PUSH2 0x5F7C JUMP JUMPDEST SWAP8 POP POP POP POP POP POP JUMPDEST SWAP3 POP SWAP3 POP SWAP3 JUMP JUMPDEST PUSH1 0x0 PUSH2 0x445F PUSH2 0x31CF JUMP JUMPDEST PUSH1 0x1 PUSH1 0x1 PUSH1 0xA0 SHL SUB AND PUSH4 0x23257C2B PUSH14 0x53797374656D53657474696E6773 PUSH1 0x90 SHL PUSH13 0x69737375616E6365526174696F PUSH1 0x98 SHL PUSH1 0x40 MLOAD PUSH1 0x1 PUSH1 0x1 PUSH1 0xE0 SHL SUB NOT PUSH1 0xE0 DUP6 SWAP1 SHL AND DUP2 MSTORE PUSH1 0x4 DUP2 ADD SWAP3 SWAP1 SWAP3 MSTORE PUSH1 0x24 DUP3 ADD MSTORE PUSH1 0x44 ADD PUSH1 0x20 PUSH1 0x40 MLOAD DUP1 DUP4 SUB DUP2 DUP7 DUP1 PUSH2 0x364E PUSH2 0x659A JUMP JUMPDEST PUSH1 0x0 PUSH2 0x35D2 DUP4 DUP4 PUSH8 0xDE0B6B3A7640000 PUSH2 0x5F9E JUMP JUMPDEST PUSH1 0x0 DUP3 DUP3 GT ISZERO PUSH2 0x453B JUMPI PUSH1 0x40 MLOAD PUSH3 0x461BCD PUSH1 0xE5 SHL DUP2 MSTORE PUSH1 0x20 PUSH1 0x4 DUP3 ADD MSTORE PUSH1 0x1E PUSH1 0x24 DUP3 ADD MSTORE PUSH32 0x536166654D6174683A207375627472616374696F6E206F766572666C6F770000 PUSH1 0x44 DUP3 ADD MSTORE PUSH1 0x64 ADD PUSH1 0x40 MLOAD DUP1 SWAP2 SUB SWAP1 PUSH2 0x4538 PUSH2 0x64D4 JUMP JUMPDEST POP POP JUMPDEST POP SWAP1 SUB SWAP1 JUMP JUMPDEST PUSH1 0x0 DUP1 PUSH1 0x0 PUSH2 0x454E PUSH2 0x31CF JUMP JUMPDEST SWAP1 POP PUSH1 0x0 DUP1 PUSH2 0x455C DUP4 PUSH2 0x3B69 JUMP JUMPDEST SWAP2 POP SWAP2 POP PUSH1 0x0 DUP2 GAS PUSH2 0x456C PUSH2 0x6764 JUMP JUMPDEST SUB PUSH2 0x4575 PUSH2 0x4E35 JUMP JUMPDEST LT SWAP1 POP DUP1 DUP1 PUSH2 0x4588 JUMPI POP PUSH2 0x4588 DUP5 PUSH2 0x3DE4 JUMP JUMPDEST DUP1 PUSH2 0x4591 JUMPI POP DUP2 ISZERO JUMPDEST SWAP5 POP PUSH1 0x0 PUSH2 0x459D PUSH2 0x3EC3 JUMP JUMPDEST SWAP1 POP DUP8 PUSH2 0x47F2 JUMPI PUSH2 0x4656 PUSH2 0x45AF PUSH2 0x5EE7 JUMP JUMPDEST PUSH1 0x1 PUSH1 0x1 PUSH1 0xA0 SHL SUB AND PUSH4 0xEE5F3F5C PUSH1 0x40 MLOAD DUP2 PUSH4 0xFFFFFFFF AND PUSH1 0xE0 SHL DUP2 MSTORE PUSH1 0x4 ADD PUSH1 0x20 PUSH1 0x40 MLOAD DUP1 DUP4 SUB DUP2 DUP7 DUP1 PUSH2 0x45E2 PUSH2 0x659A JUMP JUMPDEST ISZERO DUP1 ISZERO PUSH2 0x45F7 JUMPI PUSH1 0x0 DUP1 PUSH2 0x45F4 PUSH2 0x64D4 JUMP JUMPDEST POP POP JUMPDEST POP GAS PUSH2 0x4601 PUSH2 0x65E6 JUMP JUMPDEST POP POP POP POP POP ISZERO DUP1 ISZERO PUSH2 0x4620 JUMPI RETURNDATASIZE PUSH1 0x0 DUP1 RETURNDATACOPY RETURNDATASIZE PUSH1 0x0 PUSH2 0x461D PUSH2 0x64D4 JUMP JUMPDEST POP POP JUMPDEST POP POP POP POP PUSH1 0x40 MLOAD RETURNDATASIZE PUSH1 0x20 DUP2 LT ISZERO PUSH2 0x463F JUMPI PUSH1 0x0 DUP1 PUSH2 0x463C PUSH2 0x64D4 JUMP JUMPDEST POP POP JUMPDEST DUP2 ADD SWAP1 DUP1 DUP1 MLOAD DUP9 SWAP4 POP SWAP2 POP POP PUSH4 0xFFFFFFFF PUSH2 0x3570 AND JUMP JUMPDEST SWAP4 POP PUSH1 0x0 DUP1 DUP3 PUSH1 0x1 PUSH1 0x1 PUSH1 0xA0 SHL SUB AND PUSH4 0xC71CD23 PUSH4 0xE68AA89 PUSH1 0xE3 SHL PUSH1 0x40 MLOAD PUSH1 0x1 PUSH1 0x1 PUSH1 0xE0 SHL SUB NOT PUSH1 0xE0 DUP5 SWAP1 SHL AND DUP2 MSTORE PUSH1 0x4 DUP2 ADD SWAP2 SWAP1 SWAP2 MSTORE PUSH1 0x24 ADD PUSH1 0x40 DUP1 MLOAD DUP1 DUP4 SUB DUP2 DUP7 DUP1 PUSH2 0x46A3 PUSH2 0x659A JUMP JUMPDEST ISZERO DUP1 ISZERO PUSH2 0x46B8 JUMPI PUSH1 0x0 DUP1 PUSH2 0x46B5 PUSH2 0x64D4 JUMP JUMPDEST POP POP JUMPDEST POP GAS PUSH2 0x46C2 PUSH2 0x65E6 JUMP JUMPDEST POP POP POP POP POP ISZERO DUP1 ISZERO PUSH2 0x46E1 JUMPI RETURNDATASIZE PUSH1 0x0 DUP1 RETURNDATACOPY RETURNDATASIZE PUSH1 0x0 PUSH2 0x46DE PUSH2 0x64D4 JUMP JUMPDEST POP POP JUMPDEST POP POP POP POP PUSH1 0x40 MLOAD RETURNDATASIZE PUSH1 0x40 DUP2 LT ISZERO PUSH2 0x4700 JUMPI PUSH1 0x0 DUP1 PUSH2 0x46FD PUSH2 0x64D4 JUMP JUMPDEST POP POP JUMPDEST DUP2 ADD SWAP1 DUP1 DUP1 MLOAD SWAP3 SWAP2 SWAP1 PUSH1 0x20 ADD DUP1 MLOAD SWAP4 SWAP6 POP SWAP3 SWAP4 POP PUSH1 0x0 SWAP3 POP PUSH2 0x47CF SWAP2 POP DUP5 SWAP1 POP PUSH2 0x4728 PUSH2 0x5E96 JUMP JUMPDEST PUSH1 0x1 PUSH1 0x1 PUSH1 0xA0 SHL SUB AND PUSH4 0xEE5F3F5C PUSH1 0x40 MLOAD DUP2 PUSH4 0xFFFFFFFF AND PUSH1 0xE0 SHL DUP2 MSTORE PUSH1 0x4 ADD PUSH1 0x20 PUSH1 0x40 MLOAD DUP1 DUP4 SUB DUP2 DUP7 DUP1 PUSH2 0x475B PUSH2 0x659A JUMP JUMPDEST ISZERO DUP1 ISZERO PUSH2 0x4770 JUMPI PUSH1 0x0 DUP1 PUSH2 0x476D PUSH2 0x64D4 JUMP JUMPDEST POP POP JUMPDEST POP GAS PUSH2 0x477A PUSH2 0x65E6 JUMP JUMPDEST POP POP POP POP POP ISZERO DUP1 ISZERO PUSH2 0x4799 JUMPI RETURNDATASIZE PUSH1 0x0 DUP1 RETURNDATACOPY RETURNDATASIZE PUSH1 0x0 PUSH2 0x4796 PUSH2 0x64D4 JUMP JUMPDEST POP POP JUMPDEST POP POP POP POP PUSH1 0x40 MLOAD RETURNDATASIZE PUSH1 0x20 DUP2 LT ISZERO PUSH2 0x47B8 JUMPI PUSH1 0x0 DUP1 PUSH2 0x47B5 PUSH2 0x64D4 JUMP JUMPDEST POP POP JUMPDEST DUP2 ADD SWAP1 DUP1 DUP1 MLOAD SWAP4 SWAP3 POP POP PUSH4 0xFFFFFFFF PUSH2 0x5F1F AND SWAP1 POP JUMP JUMPDEST SWAP1 POP PUSH2 0x47E1 DUP8 DUP3 PUSH4 0xFFFFFFFF PUSH2 0x3570 AND JUMP JUMPDEST SWAP7 POP DUP9 DUP1 PUSH2 0x47EC JUMPI POP DUP2 JUMPDEST SWAP9 POP POP POP POP JUMPDEST PUSH4 0x1CD554D1 PUSH1 0xE2 SHL DUP10 EQ ISZERO PUSH2 0x480E JUMPI POP SWAP2 SWAP5 POP PUSH2 0x48EE SWAP3 POP POP POP JUMP JUMPDEST PUSH1 0x0 DUP1 DUP3 PUSH1 0x1 PUSH1 0x1 PUSH1 0xA0 SHL SUB AND PUSH4 0xC71CD23 DUP13 PUSH1 0x40 MLOAD PUSH1 0x1 PUSH1 0x1 PUSH1 0xE0 SHL SUB NOT PUSH1 0xE0 DUP5 SWAP1 SHL AND DUP2 MSTORE PUSH1 0x4 DUP2 ADD SWAP2 SWAP1 SWAP2 MSTORE PUSH1 0x24 ADD PUSH1 0x40 DUP1 MLOAD DUP1 DUP4 SUB DUP2 DUP7 DUP1 PUSH2 0x4852 PUSH2 0x659A JUMP JUMPDEST ISZERO DUP1 ISZERO PUSH2 0x4867 JUMPI PUSH1 0x0 DUP1 PUSH2 0x4864 PUSH2 0x64D4 JUMP JUMPDEST POP POP JUMPDEST POP GAS PUSH2 0x4871 PUSH2 0x65E6 JUMP JUMPDEST POP POP POP POP POP ISZERO DUP1 ISZERO PUSH2 0x4890 JUMPI RETURNDATASIZE PUSH1 0x0 DUP1 RETURNDATACOPY RETURNDATASIZE PUSH1 0x0 PUSH2 0x488D PUSH2 0x64D4 JUMP JUMPDEST POP POP JUMPDEST POP POP POP POP PUSH1 0x40 MLOAD RETURNDATASIZE PUSH1 0x40 DUP2 LT ISZERO PUSH2 0x48AF JUMPI PUSH1 0x0 DUP1 PUSH2 0x48AC PUSH2 0x64D4 JUMP JUMPDEST POP POP JUMPDEST DUP2 ADD SWAP1 DUP1 DUP1 MLOAD SWAP3 SWAP2 SWAP1 PUSH1 0x20 ADD DUP1 MLOAD SWAP4 SWAP6 POP SWAP3 SWAP4 POP PUSH2 0x48D9 SWAP3 POP DUP9 SWAP2 POP DUP5 SWAP1 POP PUSH4 0xFFFFFFFF PUSH2 0x44C7 AND JUMP JUMPDEST DUP9 DUP1 PUSH2 0x48E2 JUMPI POP DUP2 JUMPDEST SWAP9 POP SWAP9 POP POP POP POP POP POP POP POP JUMPDEST SWAP3 POP SWAP3 SWAP1 POP JUMP JUMPDEST PUSH1 0x0 DUP2 DUP2 MSTORE PUSH1 0x6 PUSH1 0x20 MSTORE PUSH1 0x40 DUP2 KECCAK256 PUSH1 0x0 SWAP1 PUSH2 0x490E PUSH2 0x653F JUMP JUMPDEST SWAP1 PUSH2 0x100 EXP SWAP1 DIV PUSH1 0x1 PUSH1 0x1 PUSH1 0xA0 SHL SUB AND PUSH1 0x1 PUSH1 0x1 PUSH1 0xA0 SHL SUB AND EQ PUSH2 0x1334 JUMPI PUSH1 0x40 MLOAD PUSH3 0x461BCD PUSH1 0xE5 SHL DUP2 MSTORE PUSH1 0x20 PUSH1 0x4 DUP3 ADD MSTORE PUSH1 0xC PUSH1 0x24 DUP3 ADD MSTORE PUSH12 0x53796E746820657869737473 PUSH1 0xA0 SHL PUSH1 0x44 DUP3 ADD MSTORE PUSH1 0x64 ADD PUSH1 0x40 MLOAD DUP1 SWAP2 SUB SWAP1 PUSH2 0x17CC PUSH2 0x64D4 JUMP JUMPDEST PUSH1 0x0 DUP1 PUSH1 0x0 PUSH2 0x497B DUP5 PUSH2 0x49C7 JUMP JUMPDEST SWAP1 POP PUSH1 0x0 DUP1 PUSH2 0x4990 DUP7 PUSH3 0xA69CB PUSH1 0xEB SHL PUSH2 0x41CF JUMP JUMPDEST SWAP3 POP POP SWAP2 POP DUP3 PUSH1 0x0 EQ ISZERO PUSH2 0x49AC JUMPI PUSH1 0x0 SWAP5 POP SWAP3 POP PUSH2 0x15E3 SWAP2 POP POP JUMP JUMPDEST PUSH2 0x49BC DUP3 DUP5 PUSH4 0xFFFFFFFF PUSH2 0x44C7 AND JUMP JUMPDEST SWAP5 POP SWAP3 POP POP POP SWAP2 POP SWAP2 JUMP JUMPDEST PUSH1 0x0 DUP1 PUSH2 0x49D2 PUSH2 0x4FE0 JUMP JUMPDEST PUSH1 0x1 PUSH1 0x1 PUSH1 0xA0 SHL SUB AND PUSH4 0x70A08231 DUP5 PUSH1 0x40 MLOAD PUSH1 0x1 PUSH1 0x1 PUSH1 0xE0 SHL SUB NOT PUSH1 0xE0 DUP5 SWAP1 SHL AND DUP2 MSTORE PUSH1 0x1 PUSH1 0x1 PUSH1 0xA0 SHL SUB SWAP1 SWAP2 AND PUSH1 0x4 DUP3 ADD MSTORE PUSH1 0x24 ADD PUSH1 0x20 PUSH1 0x40 MLOAD DUP1 DUP4 SUB DUP2 DUP7 DUP1 PUSH2 0x4A1B PUSH2 0x659A JUMP JUMPDEST ISZERO DUP1 ISZERO PUSH2 0x4A30 JUMPI PUSH1 0x0 DUP1 PUSH2 0x4A2D PUSH2 0x64D4 JUMP JUMPDEST POP POP JUMPDEST POP GAS PUSH2 0x4A3A PUSH2 0x65E6 JUMP JUMPDEST POP POP POP POP POP ISZERO DUP1 ISZERO PUSH2 0x4A59 JUMPI RETURNDATASIZE PUSH1 0x0 DUP1 RETURNDATACOPY RETURNDATASIZE PUSH1 0x0 PUSH2 0x4A56 PUSH2 0x64D4 JUMP JUMPDEST POP POP JUMPDEST POP POP POP POP PUSH1 0x40 MLOAD RETURNDATASIZE PUSH1 0x20 DUP2 LT ISZERO PUSH2 0x4A78 JUMPI PUSH1 0x0 DUP1 PUSH2 0x4A75 PUSH2 0x64D4 JUMP JUMPDEST POP POP JUMPDEST DUP2 ADD SWAP1 DUP1 DUP1 MLOAD SWAP4 POP PUSH1 0x0 SWAP3 POP PUSH2 0x4A90 SWAP2 POP PUSH2 0x5FD6 SWAP1 POP JUMP JUMPDEST PUSH1 0x1 PUSH1 0x1 PUSH1 0xA0 SHL SUB AND EQ PUSH2 0x4B69 JUMPI PUSH2 0x4B66 PUSH2 0x4AA9 PUSH2 0x5FD6 JUMP JUMPDEST PUSH1 0x1 PUSH1 0x1 PUSH1 0xA0 SHL SUB AND PUSH4 0x70A08231 DUP6 PUSH1 0x40 MLOAD PUSH1 0x1 PUSH1 0x1 PUSH1 0xE0 SHL SUB NOT PUSH1 0xE0 DUP5 SWAP1 SHL AND DUP2 MSTORE PUSH1 0x1 PUSH1 0x1 PUSH1 0xA0 SHL SUB SWAP1 SWAP2 AND PUSH1 0x4 DUP3 ADD MSTORE PUSH1 0x24 ADD PUSH1 0x20 PUSH1 0x40 MLOAD DUP1 DUP4 SUB DUP2 DUP7 DUP1 PUSH2 0x4AF2 PUSH2 0x659A JUMP JUMPDEST ISZERO DUP1 ISZERO PUSH2 0x4B07 JUMPI PUSH1 0x0 DUP1 PUSH2 0x4B04 PUSH2 0x64D4 JUMP JUMPDEST POP POP JUMPDEST POP GAS PUSH2 0x4B11 PUSH2 0x65E6 JUMP JUMPDEST POP POP POP POP POP ISZERO DUP1 ISZERO PUSH2 0x4B30 JUMPI RETURNDATASIZE PUSH1 0x0 DUP1 RETURNDATACOPY RETURNDATASIZE PUSH1 0x0 PUSH2 0x4B2D PUSH2 0x64D4 JUMP JUMPDEST POP POP JUMPDEST POP POP POP POP PUSH1 0x40 MLOAD RETURNDATASIZE PUSH1 0x20 DUP2 LT ISZERO PUSH2 0x4B4F JUMPI PUSH1 0x0 DUP1 PUSH2 0x4B4C PUSH2 0x64D4 JUMP JUMPDEST POP POP JUMPDEST DUP2 ADD SWAP1 DUP1 DUP1 MLOAD DUP6 SWAP4 POP SWAP2 POP POP PUSH4 0xFFFFFFFF PUSH2 0x3570 AND JUMP JUMPDEST SWAP1 POP JUMPDEST PUSH1 0x0 PUSH2 0x4B73 PUSH2 0x6027 JUMP JUMPDEST PUSH1 0x1 PUSH1 0x1 PUSH1 0xA0 SHL SUB AND EQ PUSH2 0x1987 JUMPI PUSH2 0x35D2 PUSH2 0x4AA9 PUSH2 0x6027 JUMP JUMPDEST PUSH1 0x0 PUSH2 0x13AA PUSH9 0x22BC31B430B733B2B9 PUSH1 0xB9 SHL PUSH1 0x40 MLOAD PUSH1 0x40 DUP1 DUP3 ADD SWAP1 MSTORE PUSH1 0x19 DUP2 MSTORE PUSH32 0x4D697373696E672045786368616E676572206164647265737300000000000000 PUSH1 0x20 DUP3 ADD MSTORE PUSH2 0x5D49 JUMP JUMPDEST PUSH1 0x0 PUSH2 0x13AA PUSH12 0x4C69717569646174696F6E73 PUSH1 0xA0 SHL PUSH1 0x40 MLOAD PUSH1 0x40 DUP1 DUP3 ADD SWAP1 MSTORE PUSH1 0x1C DUP2 MSTORE PUSH32 0x4D697373696E67204C69717569646174696F6E73206164647265737300000000 PUSH1 0x20 DUP3 ADD MSTORE PUSH2 0x5D49 JUMP JUMPDEST DUP1 ISZERO PUSH2 0x1334 JUMPI PUSH1 0x40 MLOAD PUSH3 0x461BCD PUSH1 0xE5 SHL DUP2 MSTORE PUSH1 0x20 PUSH1 0x4 DUP3 ADD MSTORE PUSH1 0x1E PUSH1 0x24 DUP3 ADD MSTORE PUSH32 0x412073796E7468206F7220534E58207261746520697320696E76616C69640000 PUSH1 0x44 DUP3 ADD MSTORE PUSH1 0x64 ADD PUSH1 0x40 MLOAD DUP1 SWAP2 SUB SWAP1 PUSH2 0x17CC PUSH2 0x64D4 JUMP JUMPDEST PUSH1 0x0 PUSH2 0x35D2 DUP4 DUP4 PUSH4 0xFFFFFFFF PUSH2 0x5F1F AND JUMP JUMPDEST PUSH1 0x0 PUSH2 0x35D2 DUP4 DUP4 PUSH4 0xFFFFFFFF PUSH2 0x44C7 AND JUMP JUMPDEST PUSH1 0x0 PUSH8 0xDE0B6B3A7640000 PUSH2 0x4CBC DUP5 DUP5 PUSH4 0xFFFFFFFF PUSH2 0x6075 AND JUMP JUMPDEST DUP2 PUSH2 0x4CC3 JUMPI INVALID JUMPDEST DIV SWAP4 SWAP3 POP POP POP JUMP JUMPDEST PUSH1 0x0 PUSH2 0x35D2 DUP3 PUSH2 0x4CE9 DUP6 PUSH8 0xDE0B6B3A7640000 PUSH4 0xFFFFFFFF PUSH2 0x6075 AND JUMP JUMPDEST SWAP1 PUSH4 0xFFFFFFFF PUSH2 0x60D4 AND JUMP JUMPDEST PUSH1 0x0 DUP4 DUP4 LT PUSH2 0x4D04 JUMPI DUP4 PUSH2 0x4D06 JUMP JUMPDEST DUP3 JUMPDEST SWAP1 POP PUSH2 0x4D14 DUP7 DUP3 DUP6 DUP6 PUSH2 0x6146 JUMP JUMPDEST PUSH4 0x1CD554D1 PUSH1 0xE2 SHL PUSH1 0x0 SWAP1 DUP2 MSTORE PUSH1 0x6 PUSH1 0x20 MSTORE PUSH1 0x40 SWAP1 KECCAK256 PUSH1 0x0 SWAP1 PUSH2 0x4D35 PUSH2 0x653F JUMP JUMPDEST SWAP1 PUSH2 0x100 EXP SWAP1 DIV PUSH1 0x1 PUSH1 0x1 PUSH1 0xA0 SHL SUB AND PUSH1 0x1 PUSH1 0x1 PUSH1 0xA0 SHL SUB AND PUSH4 0x9DC29FAC DUP7 DUP4 PUSH1 0x40 MLOAD PUSH1 0x1 PUSH1 0x1 PUSH1 0xE0 SHL SUB NOT PUSH1 0xE0 DUP6 SWAP1 SHL AND DUP2 MSTORE PUSH1 0x1 PUSH1 0x1 PUSH1 0xA0 SHL SUB SWAP1 SWAP3 AND PUSH1 0x4 DUP4 ADD MSTORE PUSH1 0x24 DUP3 ADD MSTORE PUSH1 0x44 ADD PUSH1 0x0 PUSH1 0x40 MLOAD DUP1 DUP4 SUB DUP2 PUSH1 0x0 DUP8 DUP1 PUSH2 0x4D96 PUSH2 0x659A JUMP JUMPDEST ISZERO DUP1 ISZERO PUSH2 0x4DAB JUMPI PUSH1 0x0 DUP1 PUSH2 0x4DA8 PUSH2 0x64D4 JUMP JUMPDEST POP POP JUMPDEST POP GAS PUSH2 0x4DB5 PUSH2 0x67AA JUMP JUMPDEST POP POP POP POP POP POP ISZERO DUP1 ISZERO PUSH2 0x4DD5 JUMPI RETURNDATASIZE PUSH1 0x0 DUP1 RETURNDATACOPY RETURNDATASIZE PUSH1 0x0 PUSH2 0x4DD2 PUSH2 0x64D4 JUMP JUMPDEST POP POP JUMPDEST POP POP POP POP PUSH2 0x4E23 PUSH4 0x1CD554D1 PUSH1 0xE2 SHL PUSH20 0x0 PUSH4 0x907AF6C0 PUSH1 0x40 MLOAD DUP2 PUSH4 0xFFFFFFFF AND PUSH1 0xE0 SHL DUP2 MSTORE PUSH1 0x4 ADD PUSH1 0x20 PUSH1 0x40 MLOAD DUP1 DUP4 SUB DUP2 DUP7 DUP1 PUSH2 0x11F5 PUSH2 0x659A JUMP JUMPDEST PUSH2 0x4E2C DUP7 PUSH2 0x5622 JUMP JUMPDEST SWAP6 SWAP5 POP POP POP POP POP JUMP JUMPDEST PUSH1 0x0 PUSH2 0x4E3F PUSH2 0x31CF JUMP JUMPDEST PUSH1 0x1 PUSH1 0x1 PUSH1 0xA0 SHL SUB AND PUSH4 0x23257C2B PUSH14 0x53797374656D53657474696E6773 PUSH1 0x90 SHL PUSH21 0x64656274536E617073686F745374616C6554696D65 PUSH1 0x58 SHL PUSH1 0x40 MLOAD PUSH1 0x1 PUSH1 0x1 PUSH1 0xE0 SHL SUB NOT PUSH1 0xE0 DUP6 SWAP1 SHL AND DUP2 MSTORE PUSH1 0x4 DUP2 ADD SWAP3 SWAP1 SWAP3 MSTORE PUSH1 0x24 DUP3 ADD MSTORE PUSH1 0x44 ADD PUSH1 0x20 PUSH1 0x40 MLOAD DUP1 DUP4 SUB DUP2 DUP7 DUP1 PUSH2 0x364E PUSH2 0x659A JUMP JUMPDEST PUSH1 0x0 PUSH2 0x4ED1 PUSH2 0x4EBC PUSH2 0x35D9 JUMP JUMPDEST PUSH2 0x4EC5 DUP5 PUSH2 0x4F32 JUMP JUMPDEST SWAP1 PUSH4 0xFFFFFFFF PUSH2 0x3570 AND JUMP JUMPDEST GAS PUSH2 0x4EDA PUSH2 0x6764 JUMP JUMPDEST LT ISZERO SWAP3 SWAP2 POP POP JUMP JUMPDEST PUSH1 0x0 PUSH2 0x13AA PUSH14 0x53796E7468657469785374617465 PUSH1 0x90 SHL PUSH1 0x40 MLOAD PUSH1 0x40 DUP1 DUP3 ADD SWAP1 MSTORE PUSH1 0x1E DUP2 MSTORE PUSH32 0x4D697373696E672053796E746865746978537461746520616464726573730000 PUSH1 0x20 DUP3 ADD MSTORE PUSH2 0x5D49 JUMP JUMPDEST PUSH1 0x0 PUSH2 0x4F3C PUSH2 0x31CF JUMP JUMPDEST PUSH1 0x1 PUSH1 0x1 PUSH1 0xA0 SHL SUB AND PUSH4 0x23257C2B PUSH6 0x24B9B9BAB2B9 PUSH1 0xD1 SHL PUSH14 0x1B185CDD125CDCDD59515D995B9D PUSH1 0x92 SHL DUP6 PUSH1 0x40 MLOAD PUSH1 0x20 ADD DUP1 DUP4 DUP2 MSTORE PUSH1 0x20 ADD DUP3 PUSH1 0x1 PUSH1 0x1 PUSH1 0xA0 SHL SUB AND PUSH1 0x1 PUSH1 0x1 PUSH1 0xA0 SHL SUB AND PUSH1 0x60 SHL DUP2 MSTORE PUSH1 0x14 ADD SWAP3 POP POP POP PUSH1 0x40 MLOAD PUSH1 0x20 DUP2 DUP4 SUB SUB DUP2 MSTORE SWAP1 PUSH1 0x40 MSTORE DUP1 MLOAD SWAP1 PUSH1 0x20 ADD KECCAK256 PUSH1 0x40 MLOAD PUSH1 0x1 PUSH1 0x1 PUSH1 0xE0 SHL SUB NOT PUSH1 0xE0 DUP6 SWAP1 SHL AND DUP2 MSTORE PUSH1 0x4 DUP2 ADD SWAP3 SWAP1 SWAP3 MSTORE PUSH1 0x24 DUP3 ADD MSTORE PUSH1 0x44 ADD PUSH1 0x20 PUSH1 0x40 MLOAD DUP1 DUP4 SUB DUP2 DUP7 DUP1 PUSH2 0x3E57 PUSH2 0x659A JUMP JUMPDEST PUSH1 0x0 PUSH2 0x13AA PUSH9 0xA6F2DCE8D0CAE8D2F PUSH1 0xBB SHL PUSH1 0x40 MLOAD PUSH1 0x40 DUP1 DUP3 ADD SWAP1 MSTORE PUSH1 0x19 DUP2 MSTORE PUSH32 0x4D697373696E672053796E746865746978206164647265737300000000000000 PUSH1 0x20 DUP3 ADD MSTORE PUSH2 0x5D49 JUMP JUMPDEST PUSH1 0x0 PUSH2 0x5035 PUSH2 0x4EE2 JUMP JUMPDEST SWAP1 POP PUSH1 0x0 PUSH2 0x5049 DUP6 DUP5 PUSH4 0xFFFFFFFF PUSH2 0x3570 AND JUMP JUMPDEST SWAP1 POP PUSH1 0x0 PUSH2 0x505D DUP7 DUP4 PUSH4 0xFFFFFFFF PUSH2 0x5F34 AND JUMP JUMPDEST SWAP1 POP PUSH1 0x0 PUSH2 0x5118 DUP3 PUSH20 0x0 PUSH4 0xD5E5E6E6 PUSH1 0x40 MLOAD DUP2 PUSH4 0xFFFFFFFF AND PUSH1 0xE0 SHL DUP2 MSTORE PUSH1 0x4 ADD PUSH1 0x20 PUSH1 0x40 MLOAD DUP1 DUP4 SUB DUP2 DUP7 DUP1 PUSH2 0x50A4 PUSH2 0x659A JUMP JUMPDEST ISZERO DUP1 ISZERO PUSH2 0x50B9 JUMPI PUSH1 0x0 DUP1 PUSH2 0x50B6 PUSH2 0x64D4 JUMP JUMPDEST POP POP JUMPDEST POP GAS PUSH2 0x50C3 PUSH2 0x6721 JUMP JUMPDEST POP POP POP POP POP ISZERO DUP1 ISZERO PUSH2 0x50E2 JUMPI RETURNDATASIZE PUSH1 0x0 DUP1 RETURNDATACOPY RETURNDATASIZE PUSH1 0x0 PUSH2 0x50DF PUSH2 0x64D4 JUMP JUMPDEST POP POP JUMPDEST POP POP POP POP PUSH1 0x40 MLOAD RETURNDATASIZE PUSH1 0x20 DUP2 LT ISZERO PUSH2 0x5101 JUMPI PUSH1 0x0 DUP1 PUSH2 0x50FE PUSH2 0x64D4 JUMP JUMPDEST POP POP JUMPDEST DUP2 ADD SWAP1 DUP1 DUP1 MLOAD SWAP4 SWAP3 POP POP PUSH4 0xFFFFFFFF PUSH2 0x44DC AND SWAP1 POP JUMP JUMPDEST SWAP1 POP DUP6 ISZERO PUSH2 0x5147 JUMPI PUSH2 0x5140 DUP4 PUSH2 0x5134 DUP10 DUP10 PUSH4 0xFFFFFFFF PUSH2 0x3570 AND JUMP JUMPDEST SWAP1 PUSH4 0xFFFFFFFF PUSH2 0x5F34 AND JUMP JUMPDEST SWAP2 POP PUSH2 0x51C1 JUMP JUMPDEST DUP4 PUSH1 0x1 PUSH1 0x1 PUSH1 0xA0 SHL SUB AND PUSH4 0x1BFBA595 PUSH1 0x40 MLOAD DUP2 PUSH4 0xFFFFFFFF AND PUSH1 0xE0 SHL DUP2 MSTORE PUSH1 0x4 ADD PUSH1 0x0 PUSH1 0x40 MLOAD DUP1 DUP4 SUB DUP2 PUSH1 0x0 DUP8 DUP1 PUSH2 0x517D PUSH2 0x659A JUMP JUMPDEST ISZERO DUP1 ISZERO PUSH2 0x5192 JUMPI PUSH1 0x0 DUP1 PUSH2 0x518F PUSH2 0x64D4 JUMP JUMPDEST POP POP JUMPDEST POP GAS PUSH2 0x519C PUSH2 0x67AA JUMP JUMPDEST POP POP POP POP POP POP ISZERO DUP1 ISZERO PUSH2 0x51BC JUMPI RETURNDATASIZE PUSH1 0x0 DUP1 RETURNDATACOPY RETURNDATASIZE PUSH1 0x0 PUSH2 0x51B9 PUSH2 0x64D4 JUMP JUMPDEST POP POP JUMPDEST POP POP POP POP JUMPDEST DUP4 PUSH1 0x1 PUSH1 0x1 PUSH1 0xA0 SHL SUB AND PUSH4 0xA764EB45 DUP10 DUP5 PUSH1 0x40 MLOAD PUSH1 0x1 PUSH1 0x1 PUSH1 0xE0 SHL SUB NOT PUSH1 0xE0 DUP6 SWAP1 SHL AND DUP2 MSTORE PUSH1 0x1 PUSH1 0x1 PUSH1 0xA0 SHL SUB SWAP1 SWAP3 AND PUSH1 0x4 DUP4 ADD MSTORE PUSH1 0x24 DUP3 ADD MSTORE PUSH1 0x44 ADD PUSH1 0x0 PUSH1 0x40 MLOAD DUP1 DUP4 SUB DUP2 PUSH1 0x0 DUP8 DUP1 PUSH2 0x5213 PUSH2 0x659A JUMP JUMPDEST ISZERO DUP1 ISZERO PUSH2 0x5228 JUMPI PUSH1 0x0 DUP1 PUSH2 0x5225 PUSH2 0x64D4 JUMP JUMPDEST POP POP JUMPDEST POP GAS PUSH2 0x5232 PUSH2 0x67AA JUMP JUMPDEST POP POP POP POP POP POP ISZERO DUP1 ISZERO PUSH2 0x5252 JUMPI RETURNDATASIZE PUSH1 0x0 DUP1 RETURNDATACOPY RETURNDATASIZE PUSH1 0x0 PUSH2 0x524F PUSH2 0x64D4 JUMP JUMPDEST POP POP JUMPDEST POP POP POP POP PUSH1 0x0 DUP5 PUSH1 0x1 PUSH1 0x1 PUSH1 0xA0 SHL SUB AND PUSH4 0xCD92EBA9 PUSH1 0x40 MLOAD DUP2 PUSH4 0xFFFFFFFF AND PUSH1 0xE0 SHL DUP2 MSTORE PUSH1 0x4 ADD PUSH1 0x20 PUSH1 0x40 MLOAD DUP1 DUP4 SUB DUP2 DUP7 DUP1 PUSH2 0x528C PUSH2 0x659A JUMP JUMPDEST ISZERO DUP1 ISZERO PUSH2 0x52A1 JUMPI PUSH1 0x0 DUP1 PUSH2 0x529E PUSH2 0x64D4 JUMP JUMPDEST POP POP JUMPDEST POP GAS PUSH2 0x52AB PUSH2 0x65E6 JUMP JUMPDEST POP POP POP POP POP ISZERO DUP1 ISZERO PUSH2 0x52CA JUMPI RETURNDATASIZE PUSH1 0x0 DUP1 RETURNDATACOPY RETURNDATASIZE PUSH1 0x0 PUSH2 0x52C7 PUSH2 0x64D4 JUMP JUMPDEST POP POP JUMPDEST POP POP POP POP PUSH1 0x40 MLOAD RETURNDATASIZE PUSH1 0x20 DUP2 LT ISZERO PUSH2 0x52E9 JUMPI PUSH1 0x0 DUP1 PUSH2 0x52E6 PUSH2 0x64D4 JUMP JUMPDEST POP POP JUMPDEST DUP2 ADD SWAP1 DUP1 DUP1 MLOAD SWAP4 SWAP1 SWAP4 GT ISZERO SWAP3 POP PUSH2 0x542B SWAP2 POP POP JUMPI PUSH1 0x1 PUSH1 0x1 PUSH1 0xA0 SHL SUB DUP5 AND PUSH4 0x3D31E97B PUSH2 0x53AF DUP4 DUP4 PUSH4 0x46317712 PUSH1 0x40 MLOAD DUP2 PUSH4 0xFFFFFFFF AND PUSH1 0xE0 SHL DUP2 MSTORE PUSH1 0x4 ADD PUSH1 0x20 PUSH1 0x40 MLOAD DUP1 DUP4 SUB DUP2 DUP7 DUP1 PUSH2 0x533B PUSH2 0x659A JUMP JUMPDEST ISZERO DUP1 ISZERO PUSH2 0x5350 JUMPI PUSH1 0x0 DUP1 PUSH2 0x534D PUSH2 0x64D4 JUMP JUMPDEST POP POP JUMPDEST POP GAS PUSH2 0x535A PUSH2 0x65E6 JUMP JUMPDEST POP POP POP POP POP ISZERO DUP1 ISZERO PUSH2 0x5379 JUMPI RETURNDATASIZE PUSH1 0x0 DUP1 RETURNDATACOPY RETURNDATASIZE PUSH1 0x0 PUSH2 0x5376 PUSH2 0x64D4 JUMP JUMPDEST POP POP JUMPDEST POP POP POP POP PUSH1 0x40 MLOAD RETURNDATASIZE PUSH1 0x20 DUP2 LT ISZERO PUSH2 0x5398 JUMPI PUSH1 0x0 DUP1 PUSH2 0x5395 PUSH2 0x64D4 JUMP JUMPDEST POP POP JUMPDEST DUP2 ADD SWAP1 DUP1 DUP1 MLOAD SWAP4 SWAP3 POP POP PUSH4 0xFFFFFFFF PUSH2 0x5F4D AND SWAP1 POP JUMP JUMPDEST PUSH1 0x40 MLOAD PUSH1 0x1 PUSH1 0x1 PUSH1 0xE0 SHL SUB NOT PUSH1 0xE0 DUP5 SWAP1 SHL AND DUP2 MSTORE PUSH1 0x4 DUP2 ADD SWAP2 SWAP1 SWAP2 MSTORE PUSH1 0x24 ADD PUSH1 0x0 PUSH1 0x40 MLOAD DUP1 DUP4 SUB DUP2 PUSH1 0x0 DUP8 DUP1 PUSH2 0x53E3 PUSH2 0x659A JUMP JUMPDEST ISZERO DUP1 ISZERO PUSH2 0x53F8 JUMPI PUSH1 0x0 DUP1 PUSH2 0x53F5 PUSH2 0x64D4 JUMP JUMPDEST POP POP JUMPDEST POP GAS PUSH2 0x5402 PUSH2 0x67AA JUMP JUMPDEST POP POP POP POP POP POP ISZERO DUP1 ISZERO PUSH2 0x5422 JUMPI RETURNDATASIZE PUSH1 0x0 DUP1 RETURNDATACOPY RETURNDATASIZE PUSH1 0x0 PUSH2 0x541F PUSH2 0x64D4 JUMP JUMPDEST POP POP JUMPDEST POP POP POP POP PUSH2 0x5559 JUMP JUMPDEST DUP4 PUSH1 0x1 PUSH1 0x1 PUSH1 0xA0 SHL SUB AND PUSH4 0x3D31E97B PUSH20 0x0 PUSH4 0xD5E5E6E6 PUSH1 0x40 MLOAD DUP2 PUSH4 0xFFFFFFFF AND PUSH1 0xE0 SHL DUP2 MSTORE PUSH1 0x4 ADD PUSH1 0x20 PUSH1 0x40 MLOAD DUP1 DUP4 SUB DUP2 DUP7 DUP1 PUSH2 0x5479 PUSH2 0x659A JUMP JUMPDEST ISZERO DUP1 ISZERO PUSH2 0x548E JUMPI PUSH1 0x0 DUP1 PUSH2 0x548B PUSH2 0x64D4 JUMP JUMPDEST POP POP JUMPDEST POP GAS PUSH2 0x5498 PUSH2 0x6721 JUMP JUMPDEST POP POP POP POP POP ISZERO DUP1 ISZERO PUSH2 0x54B7 JUMPI RETURNDATASIZE PUSH1 0x0 DUP1 RETURNDATACOPY RETURNDATASIZE PUSH1 0x0 PUSH2 0x54B4 PUSH2 0x64D4 JUMP JUMPDEST POP POP JUMPDEST POP POP POP POP PUSH1 0x40 MLOAD RETURNDATASIZE PUSH1 0x20 DUP2 LT ISZERO PUSH2 0x54D6 JUMPI PUSH1 0x0 DUP1 PUSH2 0x54D3 PUSH2 0x64D4 JUMP JUMPDEST POP POP JUMPDEST DUP2 ADD SWAP1 DUP1 DUP1 MLOAD SWAP3 POP PUSH1 0x40 SWAP2 POP POP MLOAD PUSH1 0x1 PUSH1 0x1 PUSH1 0xE0 SHL SUB NOT PUSH1 0xE0 DUP5 SWAP1 SHL AND DUP2 MSTORE PUSH1 0x4 DUP2 ADD SWAP2 SWAP1 SWAP2 MSTORE PUSH1 0x24 ADD PUSH1 0x0 PUSH1 0x40 MLOAD DUP1 DUP4 SUB DUP2 PUSH1 0x0 DUP8 DUP1 PUSH2 0x5515 PUSH2 0x659A JUMP JUMPDEST ISZERO DUP1 ISZERO PUSH2 0x552A JUMPI PUSH1 0x0 DUP1 PUSH2 0x5527 PUSH2 0x64D4 JUMP JUMPDEST POP POP JUMPDEST POP GAS PUSH2 0x5534 PUSH2 0x67AA JUMP JUMPDEST POP POP POP POP POP POP ISZERO DUP1 ISZERO PUSH2 0x5554 JUMPI RETURNDATASIZE PUSH1 0x0 DUP1 RETURNDATACOPY RETURNDATASIZE PUSH1 0x0 PUSH2 0x5551 PUSH2 0x64D4 JUMP JUMPDEST POP POP JUMPDEST POP POP POP POP JUMPDEST POP POP POP POP POP POP POP POP JUMP JUMPDEST PUSH2 0x556B PUSH2 0x31CF JUMP JUMPDEST PUSH1 0x1 PUSH1 0x1 PUSH1 0xA0 SHL SUB AND PUSH4 0x1D5B277F PUSH6 0x24B9B9BAB2B9 PUSH1 0xD1 SHL PUSH14 0x1B185CDD125CDCDD59515D995B9D PUSH1 0x92 SHL DUP5 PUSH1 0x40 MLOAD PUSH1 0x20 ADD DUP1 DUP4 DUP2 MSTORE PUSH1 0x20 ADD DUP3 PUSH1 0x1 PUSH1 0x1 PUSH1 0xA0 SHL SUB AND PUSH1 0x1 PUSH1 0x1 PUSH1 0xA0 SHL SUB AND PUSH1 0x60 SHL DUP2 MSTORE PUSH1 0x14 ADD SWAP3 POP POP POP PUSH1 0x40 MLOAD PUSH1 0x20 DUP2 DUP4 SUB SUB DUP2 MSTORE SWAP1 PUSH1 0x40 MSTORE DUP1 MLOAD SWAP1 PUSH1 0x20 ADD KECCAK256 GAS PUSH2 0x55E1 PUSH2 0x6764 JUMP JUMPDEST PUSH1 0x40 MLOAD PUSH1 0x1 PUSH1 0x1 PUSH1 0xE0 SHL SUB NOT PUSH1 0xE0 DUP7 SWAP1 SHL AND DUP2 MSTORE PUSH1 0x4 DUP2 ADD SWAP4 SWAP1 SWAP4 MSTORE PUSH1 0x24 DUP4 ADD SWAP2 SWAP1 SWAP2 MSTORE PUSH1 0x44 DUP3 ADD MSTORE PUSH1 0x64 ADD PUSH1 0x0 PUSH1 0x40 MLOAD DUP1 DUP4 SUB DUP2 PUSH1 0x0 DUP8 DUP1 PUSH2 0x1FA8 PUSH2 0x659A JUMP JUMPDEST PUSH1 0x0 DUP1 PUSH2 0x562D PUSH2 0x4EE2 JUMP JUMPDEST PUSH1 0x1 PUSH1 0x1 PUSH1 0xA0 SHL SUB AND PUSH4 0x8B3F8088 DUP5 PUSH1 0x40 MLOAD PUSH1 0x1 PUSH1 0x1 PUSH1 0xE0 SHL SUB NOT PUSH1 0xE0 DUP5 SWAP1 SHL AND DUP2 MSTORE PUSH1 0x1 PUSH1 0x1 PUSH1 0xA0 SHL SUB SWAP1 SWAP2 AND PUSH1 0x4 DUP3 ADD MSTORE PUSH1 0x24 ADD PUSH1 0x40 DUP1 MLOAD DUP1 DUP4 SUB DUP2 DUP7 DUP1 PUSH2 0x5675 PUSH2 0x659A JUMP JUMPDEST ISZERO DUP1 ISZERO PUSH2 0x568A JUMPI PUSH1 0x0 DUP1 PUSH2 0x5687 PUSH2 0x64D4 JUMP JUMPDEST POP POP JUMPDEST POP GAS PUSH2 0x5694 PUSH2 0x65E6 JUMP JUMPDEST POP POP POP POP POP ISZERO DUP1 ISZERO PUSH2 0x56B3 JUMPI RETURNDATASIZE PUSH1 0x0 DUP1 RETURNDATACOPY RETURNDATASIZE PUSH1 0x0 PUSH2 0x56B0 PUSH2 0x64D4 JUMP JUMPDEST POP POP JUMPDEST POP POP POP POP PUSH1 0x40 MLOAD RETURNDATASIZE PUSH1 0x40 DUP2 LT ISZERO PUSH2 0x56D2 JUMPI PUSH1 0x0 DUP1 PUSH2 0x56CF PUSH2 0x64D4 JUMP JUMPDEST POP POP JUMPDEST DUP2 ADD SWAP1 DUP1 DUP1 MLOAD SWAP3 SWAP2 SWAP1 PUSH1 0x20 ADD DUP1 MLOAD SWAP4 SWAP6 POP SWAP3 SWAP4 POP PUSH2 0x56F3 SWAP3 POP PUSH2 0x6460 SWAP2 POP POP JUMP JUMPDEST PUSH1 0x1 PUSH1 0x1 PUSH1 0xA0 SHL SUB AND PUSH4 0x86645274 DUP5 DUP5 DUP5 PUSH1 0x40 MLOAD PUSH1 0x1 PUSH1 0x1 PUSH1 0xE0 SHL SUB NOT PUSH1 0xE0 DUP7 SWAP1 SHL AND DUP2 MSTORE PUSH1 0x1 PUSH1 0x1 PUSH1 0xA0 SHL SUB SWAP1 SWAP4 AND PUSH1 0x4 DUP5 ADD MSTORE PUSH1 0x24 DUP4 ADD SWAP2 SWAP1 SWAP2 MSTORE PUSH1 0x44 DUP3 ADD MSTORE PUSH1 0x64 ADD PUSH1 0x0 PUSH1 0x40 MLOAD DUP1 DUP4 SUB DUP2 PUSH1 0x0 DUP8 DUP1 PUSH2 0x574D PUSH2 0x659A JUMP JUMPDEST ISZERO DUP1 ISZERO PUSH2 0x5762 JUMPI PUSH1 0x0 DUP1 PUSH2 0x575F PUSH2 0x64D4 JUMP JUMPDEST POP POP JUMPDEST POP GAS PUSH2 0x576C PUSH2 0x67AA JUMP JUMPDEST POP POP POP POP POP POP ISZERO DUP1 ISZERO PUSH2 0x1FE4 JUMPI RETURNDATASIZE PUSH1 0x0 DUP1 RETURNDATACOPY RETURNDATASIZE PUSH1 0x0 PUSH2 0x3B5E PUSH2 0x64D4 JUMP JUMPDEST PUSH1 0x0 DUP4 MLOAD SWAP1 POP DUP3 MLOAD DUP2 EQ PUSH2 0x57EC JUMPI PUSH1 0x40 MLOAD PUSH3 0x461BCD PUSH1 0xE5 SHL DUP2 MSTORE PUSH1 0x20 PUSH1 0x4 DUP3 ADD MSTORE PUSH1 0x1A PUSH1 0x24 DUP3 ADD MSTORE PUSH32 0x496E707574206172726179206C656E6774687320646966666572000000000000 PUSH1 0x44 DUP3 ADD MSTORE PUSH1 0x64 ADD PUSH1 0x40 MLOAD DUP1 SWAP2 SUB SWAP1 PUSH2 0x57E9 PUSH2 0x64D4 JUMP JUMPDEST POP POP JUMPDEST PUSH1 0x0 PUSH2 0x57F6 PUSH2 0x31CF JUMP JUMPDEST SWAP1 POP PUSH1 0x60 DUP2 PUSH1 0x1 PUSH1 0x1 PUSH1 0xA0 SHL SUB AND PUSH4 0xB67FA7ED PUSH6 0x24B9B9BAB2B9 PUSH1 0xD1 SHL DUP9 PUSH1 0x40 MLOAD DUP4 PUSH4 0xFFFFFFFF AND PUSH1 0xE0 SHL DUP2 MSTORE PUSH1 0x4 ADD DUP1 DUP4 DUP2 MSTORE PUSH1 0x20 ADD DUP1 PUSH1 0x20 ADD DUP3 DUP2 SUB DUP3 MSTORE DUP4 DUP2 DUP2 MLOAD DUP2 MSTORE PUSH1 0x20 ADD SWAP2 POP DUP1 MLOAD SWAP1 PUSH1 0x20 ADD SWAP1 PUSH1 0x20 MUL DUP1 DUP4 DUP4 PUSH1 0x0 JUMPDEST DUP4 DUP2 LT ISZERO PUSH2 0x5869 JUMPI DUP1 DUP3 ADD MLOAD DUP4 DUP3 ADD MSTORE PUSH1 0x20 ADD PUSH2 0x5851 JUMP JUMPDEST POP POP POP POP SWAP1 POP ADD SWAP4 POP POP POP POP PUSH1 0x0 PUSH1 0x40 MLOAD DUP1 DUP4 SUB DUP2 DUP7 DUP1 PUSH2 0x5888 PUSH2 0x659A JUMP JUMPDEST ISZERO DUP1 ISZERO PUSH2 0x589D JUMPI PUSH1 0x0 DUP1 PUSH2 0x589A PUSH2 0x64D4 JUMP JUMPDEST POP POP JUMPDEST POP GAS PUSH2 0x58A7 PUSH2 0x65E6 JUMP JUMPDEST POP POP POP POP POP ISZERO DUP1 ISZERO PUSH2 0x58C6 JUMPI RETURNDATASIZE PUSH1 0x0 DUP1 RETURNDATACOPY RETURNDATASIZE PUSH1 0x0 PUSH2 0x58C3 PUSH2 0x64D4 JUMP JUMPDEST POP POP JUMPDEST POP POP POP POP PUSH1 0x40 MLOAD RETURNDATASIZE PUSH1 0x0 DUP3 RETURNDATACOPY PUSH1 0x1F RETURNDATASIZE SWAP1 DUP2 ADD PUSH1 0x1F NOT AND DUP3 ADD PUSH1 0x40 MSTORE PUSH1 0x20 DUP2 LT ISZERO PUSH2 0x58F8 JUMPI PUSH1 0x0 DUP1 PUSH2 0x58F5 PUSH2 0x64D4 JUMP JUMPDEST POP POP JUMPDEST DUP2 ADD SWAP1 DUP1 DUP1 MLOAD PUSH1 0x40 MLOAD SWAP4 SWAP3 SWAP2 SWAP1 DUP5 PUSH1 0x1 PUSH1 0x20 SHL DUP3 GT ISZERO PUSH2 0x5920 JUMPI PUSH1 0x0 DUP1 PUSH2 0x591D PUSH2 0x64D4 JUMP JUMPDEST POP POP JUMPDEST SWAP1 DUP4 ADD SWAP1 PUSH1 0x20 DUP3 ADD DUP6 DUP2 GT ISZERO PUSH2 0x593E JUMPI PUSH1 0x0 DUP1 PUSH2 0x593B PUSH2 0x64D4 JUMP JUMPDEST POP POP JUMPDEST DUP3 MLOAD DUP7 PUSH1 0x20 DUP3 MUL DUP4 ADD GT PUSH1 0x1 PUSH1 0x20 SHL DUP3 GT OR ISZERO PUSH2 0x5963 JUMPI PUSH1 0x0 DUP1 PUSH2 0x5960 PUSH2 0x64D4 JUMP JUMPDEST POP POP JUMPDEST DUP3 MSTORE POP PUSH1 0x20 ADD SWAP1 DUP1 MLOAD SWAP1 PUSH1 0x20 ADD SWAP1 PUSH1 0x20 MUL DUP1 DUP4 DUP4 PUSH1 0x0 JUMPDEST DUP4 DUP2 LT ISZERO PUSH2 0x5992 JUMPI DUP1 DUP3 ADD MLOAD DUP4 DUP3 ADD MSTORE PUSH1 0x20 ADD PUSH2 0x597A JUMP JUMPDEST POP POP POP POP SWAP1 POP ADD PUSH1 0x40 MSTORE POP POP POP SWAP1 POP PUSH1 0x60 PUSH2 0x59AD DUP8 DUP8 PUSH2 0x3F12 JUMP JUMPDEST SWAP1 POP DUP3 PUSH1 0x1 PUSH1 0x1 PUSH1 0xA0 SHL SUB AND PUSH4 0x3CDC017 PUSH6 0x24B9B9BAB2B9 PUSH1 0xD1 SHL DUP10 DUP5 PUSH1 0x40 MLOAD DUP5 PUSH4 0xFFFFFFFF AND PUSH1 0xE0 SHL DUP2 MSTORE PUSH1 0x4 ADD DUP1 DUP5 DUP2 MSTORE PUSH1 0x20 ADD DUP1 PUSH1 0x20 ADD DUP1 PUSH1 0x20 ADD DUP4 DUP2 SUB DUP4 MSTORE DUP6 DUP2 DUP2 MLOAD DUP2 MSTORE PUSH1 0x20 ADD SWAP2 POP DUP1 MLOAD SWAP1 PUSH1 0x20 ADD SWAP1 PUSH1 0x20 MUL DUP1 DUP4 DUP4 PUSH1 0x0 JUMPDEST DUP4 DUP2 LT ISZERO PUSH2 0x5A23 JUMPI DUP1 DUP3 ADD MLOAD DUP4 DUP3 ADD MSTORE PUSH1 0x20 ADD PUSH2 0x5A0B JUMP JUMPDEST POP POP POP POP SWAP1 POP ADD DUP4 DUP2 SUB DUP3 MSTORE DUP5 DUP2 DUP2 MLOAD DUP2 MSTORE PUSH1 0x20 ADD SWAP2 POP DUP1 MLOAD SWAP1 PUSH1 0x20 ADD SWAP1 PUSH1 0x20 MUL DUP1 DUP4 DUP4 PUSH1 0x0 JUMPDEST DUP4 DUP2 LT ISZERO PUSH2 0x5A62 JUMPI DUP1 DUP3 ADD MLOAD DUP4 DUP3 ADD MSTORE PUSH1 0x20 ADD PUSH2 0x5A4A JUMP JUMPDEST POP POP POP POP SWAP1 POP ADD SWAP6 POP POP POP POP POP POP PUSH1 0x0 PUSH1 0x40 MLOAD DUP1 DUP4 SUB DUP2 PUSH1 0x0 DUP8 DUP1 PUSH2 0x5A85 PUSH2 0x659A JUMP JUMPDEST ISZERO DUP1 ISZERO PUSH2 0x5A9A JUMPI PUSH1 0x0 DUP1 PUSH2 0x5A97 PUSH2 0x64D4 JUMP JUMPDEST POP POP JUMPDEST POP GAS PUSH2 0x5AA4 PUSH2 0x67AA JUMP JUMPDEST POP POP POP POP POP POP ISZERO DUP1 ISZERO PUSH2 0x5AC4 JUMPI RETURNDATASIZE PUSH1 0x0 DUP1 RETURNDATACOPY RETURNDATASIZE PUSH1 0x0 PUSH2 0x5AC1 PUSH2 0x64D4 JUMP JUMPDEST POP POP JUMPDEST POP POP POP POP PUSH1 0x0 DUP1 PUSH1 0x0 DUP1 SWAP1 POP JUMPDEST DUP7 DUP2 LT ISZERO PUSH2 0x5B18 JUMPI PUSH2 0x5AFD DUP6 DUP3 DUP2 MLOAD DUP2 LT PUSH2 0x5AE8 JUMPI INVALID JUMPDEST PUSH1 0x20 MUL PUSH1 0x20 ADD ADD MLOAD DUP5 SWAP1 PUSH4 0xFFFFFFFF PUSH2 0x3570 AND JUMP JUMPDEST SWAP3 POP PUSH2 0x5B0E DUP5 DUP3 DUP2 MLOAD DUP2 LT PUSH2 0x1375 JUMPI INVALID JUMPDEST SWAP2 POP PUSH1 0x1 ADD PUSH2 0x5AD1 JUMP JUMPDEST POP DUP1 DUP3 EQ PUSH2 0x5D39 JUMPI PUSH1 0x0 DUP6 PUSH1 0x1 PUSH1 0x1 PUSH1 0xA0 SHL SUB AND PUSH4 0x23257C2B PUSH6 0x24B9B9BAB2B9 PUSH1 0xD1 SHL PUSH19 0x18D858DA195914D396125CDCDD59591119589D PUSH1 0x6A SHL PUSH1 0x40 MLOAD PUSH1 0x1 PUSH1 0x1 PUSH1 0xE0 SHL SUB NOT PUSH1 0xE0 DUP6 SWAP1 SHL AND DUP2 MSTORE PUSH1 0x4 DUP2 ADD SWAP3 SWAP1 SWAP3 MSTORE PUSH1 0x24 DUP3 ADD MSTORE PUSH1 0x44 ADD PUSH1 0x20 PUSH1 0x40 MLOAD DUP1 DUP4 SUB DUP2 DUP7 DUP1 PUSH2 0x5B89 PUSH2 0x659A JUMP JUMPDEST ISZERO DUP1 ISZERO PUSH2 0x5B9E JUMPI PUSH1 0x0 DUP1 PUSH2 0x5B9B PUSH2 0x64D4 JUMP JUMPDEST POP POP JUMPDEST POP GAS PUSH2 0x5BA8 PUSH2 0x65E6 JUMP JUMPDEST POP POP POP POP POP ISZERO DUP1 ISZERO PUSH2 0x5BC7 JUMPI RETURNDATASIZE PUSH1 0x0 DUP1 RETURNDATACOPY RETURNDATASIZE PUSH1 0x0 PUSH2 0x5BC4 PUSH2 0x64D4 JUMP JUMPDEST POP POP JUMPDEST POP POP POP POP PUSH1 0x40 MLOAD RETURNDATASIZE PUSH1 0x20 DUP2 LT ISZERO PUSH2 0x5BE6 JUMPI PUSH1 0x0 DUP1 PUSH2 0x5BE3 PUSH2 0x64D4 JUMP JUMPDEST POP POP JUMPDEST DUP2 ADD SWAP1 DUP1 DUP1 MLOAD SWAP4 POP POP POP POP DUP1 DUP4 GT ISZERO PUSH2 0x5C39 JUMPI PUSH1 0x40 MLOAD PUSH3 0x461BCD PUSH1 0xE5 SHL DUP2 MSTORE PUSH1 0x4 ADD DUP1 DUP1 PUSH1 0x20 ADD DUP3 DUP2 SUB DUP3 MSTORE PUSH1 0x23 DUP2 MSTORE PUSH1 0x20 ADD DUP1 PUSH2 0x69CD PUSH1 0x23 SWAP2 CODECOPY PUSH1 0x40 ADD SWAP2 POP POP PUSH1 0x40 MLOAD DUP1 SWAP2 SUB SWAP1 PUSH2 0x5C36 PUSH2 0x64D4 JUMP JUMPDEST POP POP JUMPDEST PUSH2 0x5C4D DUP3 PUSH2 0x4EC5 DUP4 DUP7 PUSH4 0xFFFFFFFF PUSH2 0x44DC AND JUMP JUMPDEST SWAP1 POP DUP6 PUSH1 0x1 PUSH1 0x1 PUSH1 0xA0 SHL SUB AND PUSH4 0x1D5B277F PUSH6 0x24B9B9BAB2B9 PUSH1 0xD1 SHL PUSH19 0x18D858DA195914D396125CDCDD59591119589D PUSH1 0x6A SHL DUP5 PUSH1 0x40 MLOAD PUSH1 0x1 PUSH1 0x1 PUSH1 0xE0 SHL SUB NOT PUSH1 0xE0 DUP7 SWAP1 SHL AND DUP2 MSTORE PUSH1 0x4 DUP2 ADD SWAP4 SWAP1 SWAP4 MSTORE PUSH1 0x24 DUP4 ADD SWAP2 SWAP1 SWAP2 MSTORE PUSH1 0x44 DUP3 ADD MSTORE PUSH1 0x64 ADD PUSH1 0x0 PUSH1 0x40 MLOAD DUP1 DUP4 SUB DUP2 PUSH1 0x0 DUP8 DUP1 PUSH2 0x5CC1 PUSH2 0x659A JUMP JUMPDEST ISZERO DUP1 ISZERO PUSH2 0x5CD6 JUMPI PUSH1 0x0 DUP1 PUSH2 0x5CD3 PUSH2 0x64D4 JUMP JUMPDEST POP POP JUMPDEST POP GAS PUSH2 0x5CE0 PUSH2 0x67AA JUMP JUMPDEST POP POP POP POP POP POP ISZERO DUP1 ISZERO PUSH2 0x5D00 JUMPI RETURNDATASIZE PUSH1 0x0 DUP1 RETURNDATACOPY RETURNDATASIZE PUSH1 0x0 PUSH2 0x5CFD PUSH2 0x64D4 JUMP JUMPDEST POP POP JUMPDEST POP POP POP POP PUSH32 0x294A7C394E53042C7D754779562747D93B41DB019DD4B970DD9B531DB71BE599 DUP2 PUSH1 0x40 MLOAD SWAP1 DUP2 MSTORE PUSH1 0x20 ADD PUSH1 0x40 MLOAD DUP1 SWAP2 SUB SWAP1 LOG1 POP JUMPDEST DUP7 ISZERO PUSH2 0x3B5E JUMPI PUSH2 0x3B5E DUP6 DUP9 PUSH2 0x3220 JUMP JUMPDEST PUSH1 0x0 DUP3 DUP2 MSTORE PUSH1 0x3 PUSH1 0x20 MSTORE DUP1 PUSH1 0x40 DUP2 KECCAK256 PUSH1 0x0 SWAP1 PUSH2 0x5D63 PUSH2 0x653F JUMP JUMPDEST PUSH1 0x1 PUSH1 0x1 PUSH1 0xA0 SHL SUB PUSH2 0x100 SWAP3 SWAP1 SWAP3 EXP SWAP1 DIV AND SWAP1 POP DUP3 DUP2 PUSH2 0x1F2B JUMPI PUSH1 0x40 MLOAD PUSH3 0x461BCD PUSH1 0xE5 SHL DUP2 MSTORE PUSH1 0x4 ADD DUP1 DUP1 PUSH1 0x20 ADD DUP3 DUP2 SUB DUP3 MSTORE DUP4 DUP2 DUP2 MLOAD DUP2 MSTORE PUSH1 0x20 ADD SWAP2 POP DUP1 MLOAD SWAP1 PUSH1 0x20 ADD SWAP1 DUP1 DUP4 DUP4 PUSH1 0x0 JUMPDEST DUP4 DUP2 LT ISZERO PUSH2 0x5DC6 JUMPI DUP1 DUP3 ADD MLOAD DUP4 DUP3 ADD MSTORE PUSH1 0x20 ADD PUSH2 0x5DAE JUMP JUMPDEST POP POP POP POP SWAP1 POP SWAP1 DUP2 ADD SWAP1 PUSH1 0x1F AND DUP1 ISZERO PUSH2 0x5DF3 JUMPI DUP1 DUP3 SUB DUP1 MLOAD PUSH1 0x1 DUP4 PUSH1 0x20 SUB PUSH2 0x100 EXP SUB NOT AND DUP2 MSTORE PUSH1 0x20 ADD SWAP2 POP JUMPDEST POP SWAP3 POP POP POP PUSH1 0x40 MLOAD DUP1 SWAP2 SUB SWAP1 PUSH2 0x5E07 PUSH2 0x64D4 JUMP JUMPDEST POP POP POP SWAP1 POP SWAP3 SWAP2 POP POP JUMP JUMPDEST PUSH1 0x0 PUSH2 0x13AA PUSH12 0x53797374656D537461747573 PUSH1 0xA0 SHL PUSH1 0x40 MLOAD PUSH1 0x40 DUP1 DUP3 ADD SWAP1 MSTORE PUSH1 0x1C DUP2 MSTORE PUSH32 0x4D697373696E672053797374656D537461747573206164647265737300000000 PUSH1 0x20 DUP3 ADD MSTORE PUSH2 0x5D49 JUMP JUMPDEST PUSH1 0x0 PUSH2 0x13AA PUSH17 0x44656C6567617465417070726F76616C73 PUSH1 0x78 SHL PUSH1 0x40 MLOAD PUSH1 0x60 DUP2 ADD PUSH1 0x40 MSTORE PUSH1 0x21 DUP1 DUP3 MSTORE PUSH2 0x6921 PUSH1 0x20 DUP4 ADD CODECOPY PUSH2 0x5D49 JUMP JUMPDEST PUSH1 0x0 PUSH2 0x13AA PUSH15 0x115D1A195C90DBDB1B185D195C985B PUSH1 0x8A SHL PUSH1 0x40 MLOAD PUSH1 0x40 DUP1 DUP3 ADD SWAP1 MSTORE PUSH1 0x1F DUP2 MSTORE PUSH32 0x4D697373696E67204574686572436F6C6C61746572616C206164647265737300 PUSH1 0x20 DUP3 ADD MSTORE PUSH2 0x5D49 JUMP JUMPDEST PUSH1 0x0 PUSH2 0x13AA PUSH19 0x115D1A195C90DBDB1B185D195C985B1CD554D1 PUSH1 0x6A SHL PUSH1 0x40 MLOAD PUSH1 0x60 DUP2 ADD PUSH1 0x40 MSTORE PUSH1 0x23 DUP1 DUP3 MSTORE PUSH2 0x69F0 PUSH1 0x20 DUP4 ADD CODECOPY PUSH2 0x5D49 JUMP JUMPDEST PUSH1 0x0 PUSH2 0x35D2 DUP4 DUP4 PUSH8 0xDE0B6B3A7640000 PUSH2 0x64A9 JUMP JUMPDEST PUSH1 0x0 PUSH2 0x35D2 DUP4 DUP4 PUSH12 0x33B2E3C9FD0803CE8000000 PUSH2 0x5F9E JUMP JUMPDEST PUSH1 0x0 PUSH2 0x35D2 DUP4 DUP4 PUSH12 0x33B2E3C9FD0803CE8000000 PUSH2 0x64A9 JUMP JUMPDEST PUSH1 0x0 PUSH2 0x1987 DUP3 PUSH4 0x3B9ACA00 PUSH4 0xFFFFFFFF PUSH2 0x6075 AND JUMP JUMPDEST PUSH1 0x0 PUSH4 0x5F5E100 DUP3 DIV PUSH1 0x5 PUSH1 0xA DUP3 MOD LT PUSH2 0x5F94 JUMPI PUSH1 0xA ADD JUMPDEST PUSH1 0xA SWAP1 DIV SWAP3 SWAP2 POP POP JUMP JUMPDEST PUSH1 0x0 DUP1 PUSH2 0x5FB8 DUP5 PUSH2 0x4CE9 DUP8 PUSH1 0xA DUP8 MUL PUSH4 0xFFFFFFFF PUSH2 0x6075 AND JUMP JUMPDEST SWAP1 POP PUSH1 0x5 PUSH1 0xA DUP3 JUMPDEST MOD LT PUSH2 0x5FCA JUMPI PUSH1 0xA ADD JUMPDEST PUSH1 0xA SWAP1 DIV SWAP5 SWAP4 POP POP POP POP JUMP JUMPDEST PUSH1 0x0 PUSH2 0x13AA PUSH15 0x53796E746865746978457363726F77 PUSH1 0x88 SHL PUSH1 0x40 MLOAD PUSH1 0x40 DUP1 DUP3 ADD SWAP1 MSTORE PUSH1 0x1F DUP2 MSTORE PUSH32 0x4D697373696E672053796E746865746978457363726F77206164647265737300 PUSH1 0x20 DUP3 ADD MSTORE PUSH2 0x5D49 JUMP JUMPDEST PUSH1 0x0 PUSH2 0x13AA PUSH12 0x526577617264457363726F77 PUSH1 0xA0 SHL PUSH1 0x40 MLOAD PUSH1 0x40 DUP1 DUP3 ADD SWAP1 MSTORE PUSH1 0x1C DUP2 MSTORE PUSH32 0x4D697373696E6720526577617264457363726F77206164647265737300000000 PUSH1 0x20 DUP3 ADD MSTORE PUSH2 0x5D49 JUMP JUMPDEST PUSH1 0x0 DUP3 PUSH2 0x6084 JUMPI POP PUSH1 0x0 PUSH2 0x1987 JUMP JUMPDEST DUP3 DUP3 MUL DUP3 DUP5 DUP3 DUP2 PUSH2 0x6091 JUMPI INVALID JUMPDEST DIV EQ PUSH2 0x35D2 JUMPI PUSH1 0x40 MLOAD PUSH3 0x461BCD PUSH1 0xE5 SHL DUP2 MSTORE PUSH1 0x4 ADD DUP1 DUP1 PUSH1 0x20 ADD DUP3 DUP2 SUB DUP3 MSTORE PUSH1 0x21 DUP2 MSTORE PUSH1 0x20 ADD DUP1 PUSH2 0x69AC PUSH1 0x21 SWAP2 CODECOPY PUSH1 0x40 ADD SWAP2 POP POP PUSH1 0x40 MLOAD DUP1 SWAP2 SUB SWAP1 PUSH2 0x35CF PUSH2 0x64D4 JUMP JUMPDEST PUSH1 0x0 DUP1 DUP3 GT PUSH2 0x6132 JUMPI PUSH1 0x40 MLOAD PUSH3 0x461BCD PUSH1 0xE5 SHL DUP2 MSTORE PUSH1 0x20 PUSH1 0x4 DUP3 ADD MSTORE PUSH1 0x1A PUSH1 0x24 DUP3 ADD MSTORE PUSH32 0x536166654D6174683A206469766973696F6E206279207A65726F000000000000 PUSH1 0x44 DUP3 ADD MSTORE PUSH1 0x64 ADD PUSH1 0x40 MLOAD DUP1 SWAP2 SUB SWAP1 PUSH2 0x612F PUSH2 0x64D4 JUMP JUMPDEST POP POP JUMPDEST PUSH1 0x0 DUP3 DUP5 DUP2 PUSH2 0x613D JUMPI INVALID JUMPDEST DIV SWAP5 SWAP4 POP POP POP POP JUMP JUMPDEST PUSH1 0x0 PUSH2 0x6150 PUSH2 0x4EE2 JUMP JUMPDEST SWAP1 POP PUSH1 0x0 PUSH2 0x6164 DUP4 DUP7 PUSH4 0xFFFFFFFF PUSH2 0x44DC AND JUMP JUMPDEST SWAP1 POP PUSH1 0x0 DUP2 ISZERO PUSH2 0x61C9 JUMPI PUSH1 0x0 PUSH2 0x6180 DUP8 DUP5 PUSH4 0xFFFFFFFF PUSH2 0x5F34 AND JUMP JUMPDEST SWAP1 POP PUSH2 0x61C5 DUP2 PUSH20 0x0 PUSH4 0xD5E5E6E6 PUSH1 0x40 MLOAD DUP2 PUSH4 0xFFFFFFFF AND PUSH1 0xE0 SHL DUP2 MSTORE PUSH1 0x4 ADD PUSH1 0x20 PUSH1 0x40 MLOAD DUP1 DUP4 SUB DUP2 DUP7 DUP1 PUSH2 0x28E7 PUSH2 0x659A JUMP JUMPDEST SWAP2 POP POP JUMPDEST DUP5 DUP7 EQ ISZERO PUSH2 0x62E5 JUMPI DUP3 PUSH1 0x1 PUSH1 0x1 PUSH1 0xA0 SHL SUB AND PUSH4 0xA764EB45 DUP9 PUSH1 0x0 PUSH1 0x40 MLOAD PUSH1 0x1 PUSH1 0x1 PUSH1 0xE0 SHL SUB NOT PUSH1 0xE0 DUP6 SWAP1 SHL AND DUP2 MSTORE PUSH1 0x1 PUSH1 0x1 PUSH1 0xA0 SHL SUB SWAP1 SWAP3 AND PUSH1 0x4 DUP4 ADD MSTORE PUSH1 0x24 DUP3 ADD MSTORE PUSH1 0x44 ADD PUSH1 0x0 PUSH1 0x40 MLOAD DUP1 DUP4 SUB DUP2 PUSH1 0x0 DUP8 DUP1 PUSH2 0x6224 PUSH2 0x659A JUMP JUMPDEST ISZERO DUP1 ISZERO PUSH2 0x6239 JUMPI PUSH1 0x0 DUP1 PUSH2 0x6236 PUSH2 0x64D4 JUMP JUMPDEST POP POP JUMPDEST POP GAS PUSH2 0x6243 PUSH2 0x67AA JUMP JUMPDEST POP POP POP POP POP POP ISZERO DUP1 ISZERO PUSH2 0x6263 JUMPI RETURNDATASIZE PUSH1 0x0 DUP1 RETURNDATACOPY RETURNDATASIZE PUSH1 0x0 PUSH2 0x6260 PUSH2 0x64D4 JUMP JUMPDEST POP POP JUMPDEST POP POP POP POP DUP3 PUSH1 0x1 PUSH1 0x1 PUSH1 0xA0 SHL SUB AND PUSH4 0xBA08F299 PUSH1 0x40 MLOAD DUP2 PUSH4 0xFFFFFFFF AND PUSH1 0xE0 SHL DUP2 MSTORE PUSH1 0x4 ADD PUSH1 0x0 PUSH1 0x40 MLOAD DUP1 DUP4 SUB DUP2 PUSH1 0x0 DUP8 DUP1 PUSH2 0x629D PUSH2 0x659A JUMP JUMPDEST ISZERO DUP1 ISZERO PUSH2 0x62B2 JUMPI PUSH1 0x0 DUP1 PUSH2 0x62AF PUSH2 0x64D4 JUMP JUMPDEST POP POP JUMPDEST POP GAS PUSH2 0x62BC PUSH2 0x67AA JUMP JUMPDEST POP POP POP POP POP POP ISZERO DUP1 ISZERO PUSH2 0x62DC JUMPI RETURNDATASIZE PUSH1 0x0 DUP1 RETURNDATACOPY RETURNDATASIZE PUSH1 0x0 PUSH2 0x62D9 PUSH2 0x64D4 JUMP JUMPDEST POP POP JUMPDEST POP POP POP POP PUSH2 0x63A5 JUMP JUMPDEST PUSH1 0x0 PUSH2 0x62F7 DUP7 DUP9 PUSH4 0xFFFFFFFF PUSH2 0x44DC AND JUMP JUMPDEST SWAP1 POP PUSH1 0x0 PUSH2 0x630B DUP3 DUP6 PUSH4 0xFFFFFFFF PUSH2 0x5F34 AND JUMP JUMPDEST SWAP1 POP DUP5 PUSH1 0x1 PUSH1 0x1 PUSH1 0xA0 SHL SUB AND PUSH4 0xA764EB45 DUP11 DUP4 PUSH1 0x40 MLOAD PUSH1 0x1 PUSH1 0x1 PUSH1 0xE0 SHL SUB NOT PUSH1 0xE0 DUP6 SWAP1 SHL AND DUP2 MSTORE PUSH1 0x1 PUSH1 0x1 PUSH1 0xA0 SHL SUB SWAP1 SWAP3 AND PUSH1 0x4 DUP4 ADD MSTORE PUSH1 0x24 DUP3 ADD MSTORE PUSH1 0x44 ADD PUSH1 0x0 PUSH1 0x40 MLOAD DUP1 DUP4 SUB DUP2 PUSH1 0x0 DUP8 DUP1 PUSH2 0x635F PUSH2 0x659A JUMP JUMPDEST ISZERO DUP1 ISZERO PUSH2 0x6374 JUMPI PUSH1 0x0 DUP1 PUSH2 0x6371 PUSH2 0x64D4 JUMP JUMPDEST POP POP JUMPDEST POP GAS PUSH2 0x637E PUSH2 0x67AA JUMP JUMPDEST POP POP POP POP POP POP ISZERO DUP1 ISZERO PUSH2 0x639E JUMPI RETURNDATASIZE PUSH1 0x0 DUP1 RETURNDATACOPY RETURNDATASIZE PUSH1 0x0 PUSH2 0x639B PUSH2 0x64D4 JUMP JUMPDEST POP POP JUMPDEST POP POP POP POP POP POP JUMPDEST PUSH1 0x1 PUSH1 0x1 PUSH1 0xA0 SHL SUB DUP4 AND PUSH4 0x3D31E97B PUSH2 0x63E3 DUP4 DUP4 PUSH4 0x46317712 PUSH1 0x40 MLOAD DUP2 PUSH4 0xFFFFFFFF AND PUSH1 0xE0 SHL DUP2 MSTORE PUSH1 0x4 ADD PUSH1 0x20 PUSH1 0x40 MLOAD DUP1 DUP4 SUB DUP2 DUP7 DUP1 PUSH2 0x533B PUSH2 0x659A JUMP JUMPDEST PUSH1 0x40 MLOAD PUSH1 0x1 PUSH1 0x1 PUSH1 0xE0 SHL SUB NOT PUSH1 0xE0 DUP5 SWAP1 SHL AND DUP2 MSTORE PUSH1 0x4 DUP2 ADD SWAP2 SWAP1 SWAP2 MSTORE PUSH1 0x24 ADD PUSH1 0x0 PUSH1 0x40 MLOAD DUP1 DUP4 SUB DUP2 PUSH1 0x0 DUP8 DUP1 PUSH2 0x6417 PUSH2 0x659A JUMP JUMPDEST ISZERO DUP1 ISZERO PUSH2 0x642C JUMPI PUSH1 0x0 DUP1 PUSH2 0x6429 PUSH2 0x64D4 JUMP JUMPDEST POP POP JUMPDEST POP GAS PUSH2 0x6436 PUSH2 0x67AA JUMP JUMPDEST POP POP POP POP POP POP ISZERO DUP1 ISZERO PUSH2 0x6453 JUMPI RETURNDATASIZE PUSH1 0x0 DUP1 RETURNDATACOPY RETURNDATASIZE PUSH1 0x0 PUSH2 0x3B59 PUSH2 0x64D4 JUMP JUMPDEST POP POP POP POP POP POP POP POP POP POP POP JUMP JUMPDEST PUSH1 0x0 PUSH2 0x13AA PUSH7 0x119959541BDBDB PUSH1 0xCA SHL PUSH1 0x40 MLOAD PUSH1 0x40 DUP1 DUP3 ADD SWAP1 MSTORE PUSH1 0x17 DUP2 MSTORE PUSH32 0x4D697373696E6720466565506F6F6C2061646472657373000000000000000000 PUSH1 0x20 DUP3 ADD MSTORE PUSH2 0x5D49 JUMP JUMPDEST PUSH1 0x0 DUP1 PUSH1 0xA DUP4 DIV PUSH2 0x64C0 DUP7 DUP7 PUSH4 0xFFFFFFFF PUSH2 0x6075 AND JUMP JUMPDEST DUP2 PUSH2 0x64C7 JUMPI INVALID JUMPDEST DIV SWAP1 POP PUSH1 0x5 PUSH1 0xA DUP3 PUSH2 0x5FC0 JUMP JUMPDEST PUSH4 0x2A2A7ADB MSIZE DUP2 PUSH1 0xE0 SHL DUP2 MSTORE PUSH1 0x4 DUP2 ADD PUSH1 0x20 DUP2 MSTORE DUP6 PUSH1 0x20 DUP3 ADD MSTORE PUSH1 0x0 JUMPDEST DUP7 DUP2 LT ISZERO PUSH2 0x650C JUMPI DUP1 DUP7 ADD MLOAD DUP3 DUP3 ADD PUSH1 0x40 ADD MSTORE PUSH1 0x20 ADD PUSH2 0x64F1 JUMP JUMPDEST POP PUSH1 0x20 DUP3 DUP8 PUSH1 0x64 ADD DUP5 CALLER PUSH1 0x0 SWAP1 GAS CALL PC PUSH1 0xE ADD JUMPI RETURNDATASIZE PUSH1 0x0 DUP1 RETURNDATACOPY RETURNDATASIZE PUSH1 0x0 REVERT JUMPDEST RETURNDATASIZE PUSH1 0x1 EQ ISZERO PC PUSH1 0xA ADD JUMPI PUSH1 0x1 PUSH1 0x0 RETURN JUMPDEST POP POP POP JUMP JUMPDEST PUSH4 0x3DAA959 MSIZE DUP2 PUSH1 0xE0 SHL DUP2 MSTORE DUP4 PUSH1 0x4 DUP3 ADD MSTORE PUSH1 0x20 DUP2 PUSH1 0x24 DUP4 CALLER PUSH1 0x0 SWAP1 GAS CALL PC PUSH1 0xE ADD JUMPI RETURNDATASIZE PUSH1 0x0 DUP1 RETURNDATACOPY RETURNDATASIZE PUSH1 0x0 REVERT JUMPDEST RETURNDATASIZE PUSH1 0x1 EQ ISZERO PC PUSH1 0xA ADD JUMPI PUSH1 0x1 PUSH1 0x0 RETURN JUMPDEST DUP1 MLOAD SWAP4 POP PUSH1 0x0 JUMPDEST PUSH1 0x40 DUP2 LT ISZERO PUSH2 0x17CC JUMPI PUSH1 0x0 DUP3 DUP3 ADD MSTORE PUSH1 0x20 ADD PUSH2 0x6583 JUMP JUMPDEST PUSH4 0x8435035B MSIZE DUP2 PUSH1 0xE0 SHL DUP2 MSTORE DUP4 PUSH1 0x4 DUP3 ADD MSTORE PUSH1 0x20 DUP2 PUSH1 0x24 DUP4 CALLER PUSH1 0x0 SWAP1 GAS CALL PC PUSH1 0xE ADD JUMPI RETURNDATASIZE PUSH1 0x0 DUP1 RETURNDATACOPY RETURNDATASIZE PUSH1 0x0 REVERT JUMPDEST RETURNDATASIZE PUSH1 0x1 EQ ISZERO PC PUSH1 0xA ADD JUMPI PUSH1 0x1 PUSH1 0x0 RETURN JUMPDEST DUP1 MLOAD PUSH1 0x0 DUP3 MSTORE SWAP4 POP PUSH1 0x20 PUSH2 0x6583 JUMP JUMPDEST PUSH4 0x8540661F MSIZE DUP2 PUSH1 0xE0 SHL DUP2 MSTORE DUP4 PUSH1 0x4 DUP3 ADD MSTORE DUP5 PUSH1 0x24 DUP3 ADD MSTORE PUSH1 0x60 PUSH1 0x44 DUP3 ADD MSTORE DUP7 PUSH1 0x64 DUP3 ADD MSTORE PUSH1 0x84 DUP2 ADD PUSH1 0x0 JUMPDEST DUP9 DUP2 LT ISZERO PUSH2 0x662A JUMPI DUP1 DUP9 ADD MLOAD DUP3 DUP3 ADD MSTORE PUSH1 0x20 ADD PUSH2 0x6612 JUMP JUMPDEST POP DUP8 PUSH2 0x104 ADD DUP3 ADD PUSH1 0x60 DUP4 DUP11 PUSH2 0x104 ADD DUP6 CALLER PUSH1 0x0 SWAP1 GAS CALL PC PUSH1 0xE ADD JUMPI RETURNDATASIZE PUSH1 0x0 DUP1 RETURNDATACOPY RETURNDATASIZE PUSH1 0x0 REVERT JUMPDEST RETURNDATASIZE PUSH1 0x1 EQ ISZERO PC PUSH1 0xA ADD JUMPI PUSH1 0x1 PUSH1 0x0 RETURN JUMPDEST DUP3 MLOAD PUSH1 0x40 DUP5 ADD MLOAD RETURNDATASIZE PUSH1 0x0 DUP7 RETURNDATACOPY DUP13 DUP13 DUP3 PUSH1 0x60 DUP9 ADD CALLER POP PUSH1 0x0 PUSH1 0x4 GAS CALL POP MSIZE DUP6 JUMPDEST DUP2 DUP2 LT ISZERO PUSH2 0x6693 JUMPI PUSH1 0x0 DUP2 MSTORE PUSH1 0x20 ADD PUSH2 0x667F JUMP JUMPDEST POP SWAP2 SWAP13 POP POP POP POP POP POP POP JUMP JUMPDEST PUSH4 0x22BD64C0 MSIZE DUP2 PUSH1 0xE0 SHL DUP2 MSTORE DUP4 PUSH1 0x4 DUP3 ADD MSTORE DUP5 PUSH1 0x24 DUP3 ADD MSTORE PUSH1 0x0 DUP2 PUSH1 0x44 DUP4 CALLER PUSH1 0x0 SWAP1 GAS CALL PC PUSH1 0xE ADD JUMPI RETURNDATASIZE PUSH1 0x0 DUP1 RETURNDATACOPY RETURNDATASIZE PUSH1 0x0 REVERT JUMPDEST RETURNDATASIZE PUSH1 0x1 EQ ISZERO PC PUSH1 0xA ADD JUMPI PUSH1 0x1 PUSH1 0x0 RETURN JUMPDEST PUSH1 0x0 DUP2 MSTORE PUSH1 0x20 PUSH2 0x6583 JUMP JUMPDEST DUP2 PUSH2 0x66F6 PUSH2 0x653F JUMP JUMPDEST DUP2 DUP4 PUSH2 0x6700 PUSH2 0x669F JUMP JUMPDEST POP POP DUP2 DUP2 GT ISZERO PUSH2 0x17CC JUMPI DUP2 DUP4 PUSH1 0x0 MSTORE PUSH1 0x20 PUSH1 0x0 KECCAK256 PUSH2 0x17CC SWAP3 DUP2 ADD SWAP2 ADD PUSH2 0x68C6 JUMP JUMPDEST PUSH4 0xFFE73914 MSIZE DUP2 PUSH1 0xE0 SHL DUP2 MSTORE DUP4 PUSH1 0x4 DUP3 ADD MSTORE DUP5 PUSH1 0x24 DUP3 ADD MSTORE PUSH1 0x60 PUSH1 0x44 DUP3 ADD MSTORE DUP7 PUSH1 0x64 DUP3 ADD MSTORE PUSH1 0x84 DUP2 ADD PUSH1 0x0 DUP9 DUP2 LT ISZERO PUSH2 0x662A JUMPI DUP1 DUP9 ADD MLOAD DUP3 DUP3 ADD MSTORE PUSH1 0x20 ADD PUSH2 0x6612 JUMP JUMPDEST PUSH4 0xBDBF8C36 MSIZE DUP2 PUSH1 0xE0 SHL DUP2 MSTORE PUSH1 0x20 DUP2 PUSH1 0x4 DUP4 CALLER PUSH1 0x0 SWAP1 GAS CALL PC PUSH1 0xE ADD JUMPI RETURNDATASIZE PUSH1 0x0 DUP1 RETURNDATACOPY RETURNDATASIZE PUSH1 0x0 REVERT JUMPDEST RETURNDATASIZE PUSH1 0x1 EQ ISZERO PC PUSH1 0xA ADD JUMPI PUSH1 0x1 PUSH1 0x0 RETURN JUMPDEST DUP1 MLOAD PUSH1 0x0 DUP3 MSTORE SWAP4 POP PUSH1 0x20 PUSH2 0x6583 JUMP JUMPDEST PUSH4 0x85979F76 MSIZE DUP2 PUSH1 0xE0 SHL DUP2 MSTORE DUP4 PUSH1 0x4 DUP3 ADD MSTORE DUP5 PUSH1 0x24 DUP3 ADD MSTORE PUSH1 0x60 PUSH1 0x44 DUP3 ADD MSTORE DUP8 PUSH1 0x64 DUP3 ADD MSTORE PUSH1 0x84 DUP2 ADD PUSH1 0x0 JUMPDEST DUP10 DUP2 LT ISZERO PUSH2 0x67EE JUMPI DUP1 DUP10 ADD MLOAD DUP3 DUP3 ADD MSTORE PUSH1 0x20 ADD PUSH2 0x67D6 JUMP JUMPDEST POP DUP9 PUSH2 0x104 ADD DUP3 ADD PUSH1 0x60 DUP4 DUP12 PUSH2 0x104 ADD DUP6 CALLER PUSH1 0x0 SWAP1 GAS CALL PC PUSH1 0xE ADD JUMPI RETURNDATASIZE PUSH1 0x0 DUP1 RETURNDATACOPY RETURNDATASIZE PUSH1 0x0 REVERT JUMPDEST RETURNDATASIZE PUSH1 0x1 EQ ISZERO PC PUSH1 0xA ADD JUMPI PUSH1 0x1 PUSH1 0x0 RETURN JUMPDEST DUP3 MLOAD PUSH1 0x40 DUP5 ADD MLOAD RETURNDATASIZE PUSH1 0x0 DUP7 RETURNDATACOPY DUP14 DUP14 DUP3 PUSH1 0x60 DUP9 ADD CALLER POP PUSH1 0x0 PUSH1 0x4 GAS CALL POP MSIZE DUP6 JUMPDEST DUP2 DUP2 LT ISZERO PUSH2 0x6857 JUMPI PUSH1 0x0 DUP2 MSTORE PUSH1 0x20 ADD PUSH2 0x6843 JUMP JUMPDEST POP SWAP2 SWAP14 POP POP POP POP POP POP POP JUMP JUMPDEST PUSH4 0x73509064 MSIZE DUP2 PUSH1 0xE0 SHL DUP2 MSTORE PUSH1 0x20 DUP2 PUSH1 0x4 DUP4 CALLER PUSH1 0x0 SWAP1 GAS CALL PC PUSH1 0xE ADD JUMPI RETURNDATASIZE PUSH1 0x0 DUP1 RETURNDATACOPY RETURNDATASIZE PUSH1 0x0 REVERT JUMPDEST RETURNDATASIZE PUSH1 0x1 EQ ISZERO PC PUSH1 0xA ADD JUMPI PUSH1 0x1 PUSH1 0x0 RETURN JUMPDEST DUP1 MLOAD PUSH1 0x0 DUP3 MSTORE SWAP4 POP PUSH1 0x20 PUSH2 0x6583 JUMP JUMPDEST PUSH1 0x40 MLOAD PUSH2 0x300 DUP1 DUP3 ADD PUSH1 0x40 MSTORE PUSH1 0x18 SWAP1 DUP3 SWAP1 DUP1 CODESIZE DUP4 CODECOPY POP SWAP2 SWAP3 SWAP2 POP POP JUMP JUMPDEST PUSH2 0x13AD SWAP2 SWAP1 JUMPDEST DUP1 DUP3 GT ISZERO PUSH2 0x2AF0 JUMPI PUSH1 0x0 DUP1 DUP3 PUSH2 0x68E0 PUSH2 0x669F JUMP JUMPDEST POP POP POP PUSH1 0x1 ADD PUSH2 0x68CC JUMP INVALID MSIZE PUSH16 0x75206D757374206265206E6F6D696E61 PUSH21 0x6564206265666F726520796F752063616E20616363 PUSH6 0x7074206F776E PUSH6 0x72736869704D PUSH10 0x7373696E672044656C65 PUSH8 0x617465417070726F PUSH23 0x616C7320616464726573734973737565723A204F6E6C79 KECCAK256 PUSH21 0x68652073796E74686574697820636F6E7472616374 KECCAK256 PUSH4 0x616E2070 PUSH6 0x72666F726D20 PUSH21 0x68697320616374696F6E4F6E6C792074686520636F PUSH15 0x7472616374206F776E6572206D6179 KECCAK256 PUSH17 0x6572666F726D207468697320616374696F PUSH15 0x536166654D6174683A206D756C7469 PUSH17 0x6C69636174696F6E206F766572666C6F77 NUMBER PUSH2 0x6368 PUSH6 0x642073796E74 PUSH9 0x2073756D2065786365 PUSH6 0x647320746F74 PUSH2 0x6C20 PUSH5 0x6562744D69 PUSH20 0x73696E67204574686572436F6C6C61746572616C PUSH20 0x5553442061646472657373000000000000000000 "
		}
	}
}