{
	"abi": [
		{
			"inputs": [
				{
					"internalType": "address",
					"name": "_owner",
					"type": "address"
				},
				{
					"internalType": "address",
					"name": "_resolver",
					"type": "address"
				}
			],
			"payable": false,
			"stateMutability": "nonpayable",
			"type": "constructor"
		},
		{
			"anonymous": false,
			"inputs": [
				{
					"indexed": true,
					"internalType": "address",
					"name": "account",
					"type": "address"
				},
				{
					"indexed": false,
					"internalType": "uint256",
					"name": "deadline",
					"type": "uint256"
				}
			],
			"name": "AccountFlaggedForLiquidation",
			"type": "event"
		},
		{
			"anonymous": false,
			"inputs": [
				{
					"indexed": true,
					"internalType": "address",
					"name": "account",
					"type": "address"
				},
				{
					"indexed": false,
					"internalType": "uint256",
					"name": "time",
					"type": "uint256"
				}
			],
			"name": "AccountRemovedFromLiquidation",
			"type": "event"
		},
		{
			"anonymous": false,
			"inputs": [
				{
					"indexed": false,
					"internalType": "address",
					"name": "oldOwner",
					"type": "address"
				},
				{
					"indexed": false,
					"internalType": "address",
					"name": "newOwner",
					"type": "address"
				}
			],
			"name": "OwnerChanged",
			"type": "event"
		},
		{
			"anonymous": false,
			"inputs": [
				{
					"indexed": false,
					"internalType": "address",
					"name": "newOwner",
					"type": "address"
				}
			],
			"name": "OwnerNominated",
			"type": "event"
		},
		{
			"constant": true,
			"inputs": [],
			"name": "LIQUIDATION_CALLER",
			"outputs": [
				{
					"internalType": "bytes32",
					"name": "",
					"type": "bytes32"
				}
			],
			"payable": false,
			"stateMutability": "view",
			"type": "function"
		},
		{
			"constant": true,
			"inputs": [],
			"name": "LIQUIDATION_DEADLINE",
			"outputs": [
				{
					"internalType": "bytes32",
					"name": "",
					"type": "bytes32"
				}
			],
			"payable": false,
			"stateMutability": "view",
			"type": "function"
		},
		{
			"constant": true,
			"inputs": [],
			"name": "MAX_ADDRESSES_FROM_RESOLVER",
			"outputs": [
				{
					"internalType": "uint256",
					"name": "",
					"type": "uint256"
				}
			],
			"payable": false,
			"stateMutability": "view",
			"type": "function"
		},
		{
			"constant": false,
			"inputs": [],
			"name": "acceptOwnership",
			"outputs": [],
			"payable": false,
			"stateMutability": "nonpayable",
			"type": "function"
		},
		{
			"constant": true,
			"inputs": [
				{
					"internalType": "uint256",
					"name": "debtBalance",
					"type": "uint256"
				},
				{
					"internalType": "uint256",
					"name": "collateral",
					"type": "uint256"
				}
			],
			"name": "calculateAmountToFixCollateral",
			"outputs": [
				{
					"internalType": "uint256",
					"name": "",
					"type": "uint256"
				}
			],
			"payable": false,
			"stateMutability": "view",
			"type": "function"
		},
		{
			"constant": false,
			"inputs": [
				{
					"internalType": "address",
					"name": "account",
					"type": "address"
				}
			],
			"name": "checkAndRemoveAccountInLiquidation",
			"outputs": [],
			"payable": false,
			"stateMutability": "nonpayable",
			"type": "function"
		},
		{
			"constant": false,
			"inputs": [
				{
					"internalType": "address",
					"name": "account",
					"type": "address"
				}
			],
			"name": "flagAccountForLiquidation",
			"outputs": [],
			"payable": false,
			"stateMutability": "nonpayable",
			"type": "function"
		},
		{
			"constant": true,
			"inputs": [
				{
					"internalType": "address",
					"name": "account",
					"type": "address"
				}
			],
			"name": "getLiquidationDeadlineForAccount",
			"outputs": [
				{
					"internalType": "uint256",
					"name": "",
					"type": "uint256"
				}
			],
			"payable": false,
			"stateMutability": "view",
			"type": "function"
		},
		{
			"constant": true,
			"inputs": [],
			"name": "getResolverAddressesRequired",
			"outputs": [
				{
					"internalType": "bytes32[24]",
					"name": "addressesRequired",
					"type": "bytes32[24]"
				}
			],
			"payable": false,
			"stateMutability": "view",
			"type": "function"
		},
		{
			"constant": true,
			"inputs": [
				{
					"internalType": "address",
					"name": "account",
					"type": "address"
				}
			],
			"name": "isLiquidationDeadlinePassed",
			"outputs": [
				{
					"internalType": "bool",
					"name": "",
					"type": "bool"
				}
			],
			"payable": false,
			"stateMutability": "view",
			"type": "function"
		},
		{
			"constant": true,
			"inputs": [
				{
					"internalType": "address",
					"name": "account",
					"type": "address"
				}
			],
			"name": "isOpenForLiquidation",
			"outputs": [
				{
					"internalType": "bool",
					"name": "",
					"type": "bool"
				}
			],
			"payable": false,
			"stateMutability": "view",
			"type": "function"
		},
		{
			"constant": true,
			"inputs": [
				{
					"internalType": "contract AddressResolver",
					"name": "_resolver",
					"type": "address"
				}
			],
			"name": "isResolverCached",
			"outputs": [
				{
					"internalType": "bool",
					"name": "",
					"type": "bool"
				}
			],
			"payable": false,
			"stateMutability": "view",
			"type": "function"
		},
		{
			"constant": true,
			"inputs": [],
			"name": "issuanceRatio",
			"outputs": [
				{
					"internalType": "uint256",
					"name": "",
					"type": "uint256"
				}
			],
			"payable": false,
			"stateMutability": "view",
			"type": "function"
		},
		{
			"constant": true,
			"inputs": [],
			"name": "liquidationCollateralRatio",
			"outputs": [
				{
					"internalType": "uint256",
					"name": "",
					"type": "uint256"
				}
			],
			"payable": false,
			"stateMutability": "view",
			"type": "function"
		},
		{
			"constant": true,
			"inputs": [],
			"name": "liquidationDelay",
			"outputs": [
				{
					"internalType": "uint256",
					"name": "",
					"type": "uint256"
				}
			],
			"payable": false,
			"stateMutability": "view",
			"type": "function"
		},
		{
			"constant": true,
			"inputs": [],
			"name": "liquidationPenalty",
			"outputs": [
				{
					"internalType": "uint256",
					"name": "",
					"type": "uint256"
				}
			],
			"payable": false,
			"stateMutability": "view",
			"type": "function"
		},
		{
			"constant": true,
			"inputs": [],
			"name": "liquidationRatio",
			"outputs": [
				{
					"internalType": "uint256",
					"name": "",
					"type": "uint256"
				}
			],
			"payable": false,
			"stateMutability": "view",
			"type": "function"
		},
		{
			"constant": false,
			"inputs": [
				{
					"internalType": "address",
					"name": "_owner",
					"type": "address"
				}
			],
			"name": "nominateNewOwner",
			"outputs": [],
			"payable": false,
			"stateMutability": "nonpayable",
			"type": "function"
		},
		{
			"constant": true,
			"inputs": [],
			"name": "nominatedOwner",
			"outputs": [
				{
					"internalType": "address",
					"name": "",
					"type": "address"
				}
			],
			"payable": false,
			"stateMutability": "view",
			"type": "function"
		},
		{
			"constant": true,
			"inputs": [],
			"name": "owner",
			"outputs": [
				{
					"internalType": "address",
					"name": "",
					"type": "address"
				}
			],
			"payable": false,
			"stateMutability": "view",
			"type": "function"
		},
		{
			"constant": false,
			"inputs": [
				{
					"internalType": "address",
					"name": "account",
					"type": "address"
				}
			],
			"name": "removeAccountInLiquidation",
			"outputs": [],
			"payable": false,
			"stateMutability": "nonpayable",
			"type": "function"
		},
		{
			"constant": true,
			"inputs": [],
			"name": "resolver",
			"outputs": [
				{
					"internalType": "contract AddressResolver",
					"name": "",
					"type": "address"
				}
			],
			"payable": false,
			"stateMutability": "view",
			"type": "function"
		},
		{
			"constant": true,
			"inputs": [
				{
					"internalType": "uint256",
					"name": "",
					"type": "uint256"
				}
			],
			"name": "resolverAddressesRequired",
			"outputs": [
				{
					"internalType": "bytes32",
					"name": "",
					"type": "bytes32"
				}
			],
			"payable": false,
			"stateMutability": "view",
			"type": "function"
		},
		{
			"constant": false,
			"inputs": [
				{
					"internalType": "contract AddressResolver",
					"name": "_resolver",
					"type": "address"
				}
			],
			"name": "setResolverAndSyncCache",
			"outputs": [],
			"payable": false,
			"stateMutability": "nonpayable",
			"type": "function"
		}
	],
	"evm": {
		"bytecode": {
			"linkReferences": {
				"Liquidations.sol": {
					"SafeDecimalMath": [
						{
							"length": 20,
							"start": 3191
						},
						{
							"length": 20,
							"start": 5097
						}
					]
				}
			},
			"object": "608060405260405160a0810160409081526b53797374656d53746174757360a01b8252680a6f2dce8d0cae8d2f60bb1b60208301527f457465726e616c53746f726167654c69717569646174696f6e73000000000000908201526524b9b9bab2b960d11b60608201526c45786368616e6765526174657360981b60808201526200008d906005908162000547565b50348015620000a657600080620000a362000595565b50505b5060405162002ef338038062002ef383398181016040526040811015620000d757600080620000d462000595565b50505b810190808051929190602001805192508291506005905060186103006040519081016040529190610300830182845b816200011162000602565b815260200190600101908083116200010657508793505050506001600160a01b038116620001905760405162461bcd60e51b815260206004820152601960248201527f4f776e657220616464726573732063616e6e6f742062652030000000000000006044820152606401604051809103906200018d62000595565b50505b806000600181620001a062000602565b816001600160a01b0302191690836001600160a01b0316021790620001c462000664565b5050507fb532073b38c83145e3e5135377a08bf9aab55bc0fd7c1179cd4fb995d2a5159c6000826040516001600160a01b039283168152911660208201526040908101905180910390a150600080806200021d62000602565b906101000a90046001600160a01b03166001600160a01b03161415620002885760405162461bcd60e51b815260206004820152601160248201527013dddb995c881b5d5cdd081899481cd95d607a1b6044820152606401604051809103906200028562000595565b50505b60005b601881101562000318576000828260188110620002a457fe5b60200201511462000309576004828260188110620002be57fe5b60200201519080600181620002d262000602565b018082620002df62000664565b50506000928352916000198301915060209020919291016200030062000664565b5050506200030f565b62000318565b6001016200028b565b508160026001816200032962000602565b816001600160a01b0302191690836001600160a01b03160217906200034d62000664565b5050505050620003756e466c657869626c6553746f7261676560881b6200037d60201b60201c565b5050620007ea565b806004806001816200038e62000602565b0180826200039b62000664565b5050600092835291600019830191506020902091929101620003bc62000664565b5050506018600480620003ce62000602565b9050106200042d5760405162461bcd60e51b815260206004820152601b60248201527f4d6178207265736f6c7665722063616368652073697a65206d657400000000006044820152606401604051809103906200042a62000595565b50505b600060026200043b62000602565b906101000a90046001600160a01b03166001600160a01b03166321f8a721826040516001600160e01b031960e084901b168152600481019190915260240160206040518083038186806200048e620006b3565b158015620004a657600080620004a362000595565b50505b505a620004b262000700565b5050505050158015620004d4573d6000803e3d6000620004d162000595565b50505b505050506040513d6020811015620004f657600080620004f362000595565b50505b81019080805160008581526003602052909350604092509050206001816200051d62000602565b816001600160a01b0302191690836001600160a01b03160217906200054162000664565b50505050565b826018810192821562000583579160200282015b8281111562000583578251826200057162000664565b5050916020019190600101906200055b565b5062000591929150620007bd565b5090565b632a2a7adb598160e01b8152600481016020815285602082015260005b86811015620005cf578086015182820160400152602001620005b2565b506020828760640184336000905af158600e01573d6000803e3d6000fd5b3d6001141558600a015760016000f35b505050565b6303daa959598160e01b8152836004820152602081602483336000905af158600e01573d6000803e3d6000fd5b3d6001141558600a015760016000f35b8051935060005b60408110156200065f5760008282015260200162000646565b505050565b6322bd64c0598160e01b8152836004820152846024820152600081604483336000905af158600e01573d6000803e3d6000fd5b3d6001141558600a015760016000f35b60008152602062000646565b638435035b598160e01b8152836004820152602081602483336000905af158600e01573d6000803e3d6000fd5b3d6001141558600a015760016000f35b8051600082529350602062000646565b638540661f598160e01b8152836004820152846024820152606060448201528660648201526084810160005b88811015620007465780880151828201526020016200072c565b50876101040182016060838a6101040185336000905af158600e01573d6000803e3d6000fd5b3d6001141558600a015760016000f35b825160408401513d6000863e8c8c82606088013350600060045af15059855b81811015620007b157600081526020016200079b565b50919c50505050505050565b620007e791905b80821115620005915760008082620007db62000664565b505050600101620007c4565b90565b6126f980620007fa6000396000f3fe6080604052348015610019576000806100166121da565b50505b50600436106101615760003560e01c8063828afc4b116100cc578063ad2bc2d511610085578063ad2bc2d51461038a578063b410a034146103b9578063c49e80a6146103c1578063c6c9d828146103f0578063d45c0d7e14610416578063e3235c911461044557610161565b8063828afc4b146102d35780638d1bd1be146103025780638da5cb5b1461030a578063974e9e7f14610312578063a0cf745114610341578063ab49848c1461034957610161565b80633be99e6f1161011e5780633be99e6f1461025557806353a47bb714610284578063631e14441461028c5780636a058966146102bb57806374e889c9146102c357806379ba5097146102cb57610161565b806304f3bcec1461016f5780630ac045d5146101935780631627540c146101d15780631775765f1461020257806323f5589a1461020a57806339a9df1b14610212575b60008061016c6121da565b50505b61017761044d565b6040516001600160a01b03909116815260200160405180910390f35b6101bf600480360360408110156101b2576000806101af6121da565b50505b508035906020013561046c565b60405190815260200160405180910390f35b610200600480360360208110156101f0576000806101ed6121da565b50505b50356001600160a01b03166105a2565b005b6101bf61061c565b6101bf61062b565b610241600480360360208110156102315760008061022e6121da565b50505b50356001600160a01b0316610635565b604051901515815260200160405180910390f35b61020060048036036020811015610274576000806102716121da565b50505b50356001600160a01b031661065d565b610177610827565b610241600480360360208110156102ab576000806102a86121da565b50505b50356001600160a01b0316610833565b6101bf610a0d565b6101bf610a25565b610200610a3f565b6101bf600480360360208110156102f2576000806102ef6121da565b50505b50356001600160a01b0316610bc2565b6101bf610be0565b610177610ca0565b610200600480360360208110156103315760008061032e6121da565b50505b50356001600160a01b0316610cab565b6101bf610d39565b610351610d43565b604051808261030080838360005b8381101561037757808201518382015260200161035f565b5050505090500191505060405180910390f35b610200600480360360208110156103a9576000806103a66121da565b50505b50356001600160a01b0316610da5565b6101bf61107f565b610241600480360360208110156103e0576000806103dd6121da565b50505b50356001600160a01b0316611089565b6101bf6004803603602081101561040f5760008061040c6121da565b50505b5035611196565b61020060048036036020811015610435576000806104326121da565b50505b50356001600160a01b03166111c1565b6101bf6115f9565b60006002610459612245565b906101000a90046001600160a01b031681565b6000806104776115fe565b9050600073__$5e636ccdd5f89cd6033a7187b9bf4f76b3$__63907af6c06040518163ffffffff1660e01b815260040160206040518083038186806104ba6122a0565b1580156104cf576000806104cc6121da565b50505b505a6104d96122ec565b50505050501580156104f8573d6000803e3d60006104f56121da565b50505b505050506040513d6020811015610517576000806105146121da565b50505b810190808051935060009250610547915061053a9050868563ffffffff6116db16565b879063ffffffff61170516565b905060006105836105768561056a61055d61176a565b879063ffffffff6117e116565b9063ffffffff6116db16565b849063ffffffff61170516565b9050610595828263ffffffff61184a16565b9450505050505b92915050565b6105aa611874565b80600180806105b7612245565b816001600160a01b0302191690836001600160a01b03160217906105d96123a5565b5050507f906a1c6bd7e3091ea86693dd029a831c19049ce77f1dce2ce0bab1cacbabce22816040516001600160a01b03909116815260200160405180910390a150565b60006106266118ee565b905090565b600061062661176a565b600061063f6123f3565b61064883611963565b90506106548151611a47565b9150505b919050565b610665611874565b806002600181610673612245565b816001600160a01b0302191690836001600160a01b03160217906106956123a5565b5060009150505b6004806106a7612245565b9050811015610823576000600482816106be612245565b81106106c657fe5b906000526020600020016106d8612245565b9050600060026106e6612245565b906101000a90046001600160a01b03166001600160a01b031663dacb2d01826040516001600160e01b031960e084901b1681526004810191909152604060248201819052601760448301527f5265736f6c766572206d697373696e672074617267657400000000000000000060648301526084909101906020905180830381868061076f6122a0565b158015610784576000806107816121da565b50505b505a61078e61240a565b50505050501580156107ad573d6000803e3d60006107aa6121da565b50505b505050506040513d60208110156107cc576000806107c96121da565b50505b81019080805160008581526003602052909350604092509050206001816107f1612245565b816001600160a01b0302191690836001600160a01b03160217906108136123a5565b50506001909201915061069c9050565b5050565b60006001610459612245565b60006001600160a01b03821681600261084a612245565b906101000a90046001600160a01b03166001600160a01b03161461087057506000610658565b60005b60048061087e612245565b9050811015610a0457600060048281610895612245565b811061089d57fe5b906000526020600020016108af612245565b60008181526003602052909150604090206000906108cb612245565b6001600160a01b036101009290920a900416600060026108e9612245565b906101000a90046001600160a01b03166001600160a01b03166321f8a721836040516001600160e01b031960e084901b1681526004810191909152602401602060405180830381868061093a6122a0565b15801561094f5760008061094c6121da565b50505b505a61095961240a565b5050505050158015610978573d6000803e3d60006109756121da565b50505b505050506040513d6020811015610997576000806109946121da565b50505b8101908080516001600160a01b0316939093141592508291506109eb9050575060008181526003602052604081206000906109d0612245565b906101000a90046001600160a01b03166001600160a01b0316145b156109fb57600092505050610658565b50600101610873565b50600192915050565b702634b8bab4b230ba34b7b721b0b63632b960791b81565b724c69717569646174696f6e446561646c696e6560681b81565b60006001610a4b612245565b906101000a90046001600160a01b03166001600160a01b03165a610a6d61244d565b6001600160a01b031614610abb5760405162461bcd60e51b81526004018080602001828103825260358152602001806125b06035913960400191505060405180910390610ab86121da565b50505b7fb532073b38c83145e3e5135377a08bf9aab55bc0fd7c1179cd4fb995d2a5159c600080610ae7612245565b906101000a90046001600160a01b03166001600090610b04612245565b906101000a90046001600160a01b03166040516001600160a01b039283168152911660208201526040908101905180910390a160006001610b43612245565b906101000a90046001600160a01b03166000806101000a81610b63612245565b816001600160a01b0302191690836001600160a01b0316021790610b856123a5565b5050506000600160006101000a81610b9b612245565b816001600160a01b0302191690836001600160a01b0316021790610bbd6123a5565b505050565b6000610bcc6123f3565b610bd583611963565b905080519392505050565b6000610626610bed6118ee565b73__$5e636ccdd5f89cd6033a7187b9bf4f76b3$__63907af6c06040518163ffffffff1660e01b81526004016020604051808303818680610c2c6122a0565b158015610c4157600080610c3e6121da565b50505b505a610c4b6122ec565b5050505050158015610c6a573d6000803e3d6000610c676121da565b50505b505050506040513d6020811015610c8957600080610c866121da565b50505b8101908080519392505063ffffffff611a64169050565b600080610459612245565b610cb3611a79565b6001600160a01b03165a610cc561244d565b6001600160a01b031614610d135760405162461bcd60e51b815260040180806020018281038252603e815260200180612673603e913960400191505060405180910390610d106121da565b50505b610d1b6123f3565b610d2482611963565b90506000815111156108235761082382611aba565b6000610626611c5a565b610d4b612493565b60005b600480610d59612245565b9050811015610da15760048181610d6e612245565b8110610d7657fe5b90600052602060002001610d88612245565b828260188110610d9457fe5b6020020152600101610d4e565b5090565b620a69cb60eb1b610db4611ccf565b6001600160a01b0316632528f0fe826040516001600160e01b031960e084901b16815260048101919091526024016020604051808303818680610df56122a0565b158015610e0a57600080610e076121da565b50505b505a610e1461240a565b5050505050158015610e33573d6000803e3d6000610e306121da565b50505b505050506040513d6020811015610e5257600080610e4f6121da565b50505b810190808051159250610eb79150505760405162461bcd60e51b815260206004820152601b60248201527f5261746520696e76616c6964206f72206e6f7420612073796e74680000000000604482015260640160405180910390610eb46121da565b50505b610ebf611d1e565b6001600160a01b031663086dabd16040518163ffffffff1660e01b81526004016000604051808303818680610ef26122a0565b158015610f0757600080610f046121da565b50505b505a610f1161240a565b5050505050158015610f30573d6000803e3d6000610f2d6121da565b50505b50505050610f3c6123f3565b610f4583611963565b90506000815111610fa55760405162461bcd60e51b815260206004820152601e60248201527f4163636f756e7420686173206e6f206c69717569646174696f6e207365740000604482015260640160405180910390610fa26121da565b50505b6000610faf611d6c565b6001600160a01b031663a311c7c2856040516001600160e01b031960e084901b1681526001600160a01b0390911660048201526024016020604051808303818680610ff86122a0565b15801561100d5760008061100a6121da565b50505b505a61101761240a565b5050505050158015611036573d6000803e3d60006110336121da565b50505b505050506040513d6020811015611055576000806110526121da565b50505b810190808051935061106a92506115fe915050565b81116110795761107984611aba565b50505050565b60006106266115fe565b600080611094611d6c565b6001600160a01b031663a311c7c2846040516001600160e01b031960e084901b1681526001600160a01b03909116600482015260240160206040518083038186806110dd6122a0565b1580156110f2576000806110ef6121da565b50505b505a6110fc61240a565b505050505015801561111b573d6000803e3d60006111186121da565b50505b505050506040513d602081101561113a576000806111376121da565b50505b810190808051935061114f92506115fe915050565b811161115f576000915050610658565b6111676123f3565b61117084611963565b905061117c8151611a47565b1561118c57600192505050610658565b5060009392505050565b600481816111a2612245565b81106111aa57fe5b9060005260206000200190506111be612245565b81565b620a69cb60eb1b6111d0611ccf565b6001600160a01b0316632528f0fe826040516001600160e01b031960e084901b168152600481019190915260240160206040518083038186806112116122a0565b158015611226576000806112236121da565b50505b505a61123061240a565b505050505015801561124f573d6000803e3d600061124c6121da565b50505b505050506040513d602081101561126e5760008061126b6121da565b50505b8101908080511592506112d39150505760405162461bcd60e51b815260206004820152601b60248201527f5261746520696e76616c6964206f72206e6f7420612073796e746800000000006044820152606401604051809103906112d06121da565b50505b6112db611d1e565b6001600160a01b031663086dabd16040518163ffffffff1660e01b8152600401600060405180830381868061130e6122a0565b158015611323576000806113206121da565b50505b505a61132d61240a565b505050505015801561134c573d6000803e3d60006113496121da565b50505b50505050600061135a6118ee565b116113b45760405162461bcd60e51b815260206004820152601960248201527f4c69717569646174696f6e20726174696f206e6f7420736574000000000000006044820152606401604051809103906113b16121da565b50505b60006113be611c5a565b116114185760405162461bcd60e51b815260206004820152601960248201527f4c69717569646174696f6e2064656c6179206e6f7420736574000000000000006044820152606401604051809103906114156121da565b50505b6114206123f3565b61142983611963565b90508051156114725760405162461bcd60e51b81526004018080602001828103825260278152602001806126d2602791396040019150506040518091039061146f6121da565b50505b600061147c611d6c565b6001600160a01b031663a311c7c2856040516001600160e01b031960e084901b1681526001600160a01b03909116600482015260240160206040518083038186806114c56122a0565b1580156114da576000806114d76121da565b50505b505a6114e461240a565b5050505050158015611503573d6000803e3d60006115006121da565b50505b505050506040513d60208110156115225760008061151f6121da565b50505b810190808051935061153792506118ee915050565b81101561157e5760405162461bcd60e51b815260040180806020018281038252603581526020018061260f603591396040019150506040518091039061157b6121da565b50505b60006115a061158b611c5a565b5a6115946124b0565b9063ffffffff6117e116565b90506115b585825a6115b061244d565b611db7565b846001600160a01b03167fc77e4625de0c70adaf3bd1aabb5f22f9eae8f565367c706fc209030c138579968260405190815260200160405180910390a25050505050565b601881565b6000611608611f29565b6001600160a01b03166323257c2b6d53797374656d53657474696e677360901b6c69737375616e6365526174696f60981b6040516001600160e01b031960e085901b1681526004810192909252602482015260440160206040518083038186806116706122a0565b158015611685576000806116826121da565b50505b505a61168f61240a565b50505050501580156116ae573d6000803e3d60006116ab6121da565b50505b505050506040513d60208110156116cd576000806116ca6121da565b50505b810190808051935050505090565b6000670de0b6b3a76400006116f6848463ffffffff611f7a16565b816116fd57fe5b049392505050565b6000828211156117645760405162461bcd60e51b815260206004820152601e60248201527f536166654d6174683a207375627472616374696f6e206f766572666c6f7700006044820152606401604051809103906117616121da565b50505b50900390565b6000611774611f29565b6001600160a01b03166323257c2b6d53797374656d53657474696e677360901b716c69717569646174696f6e50656e616c747960701b6040516001600160e01b031960e085901b1681526004810192909252602482015260440160206040518083038186806116706122a0565b6000828201838110156118435760405162461bcd60e51b815260206004820152601b60248201527f536166654d6174683a206164646974696f6e206f766572666c6f7700000000006044820152606401604051809103906118406121da565b50505b9392505050565b60006118438261186885670de0b6b3a764000063ffffffff611f7a16565b9063ffffffff611fd916565b60008061187f612245565b906101000a90046001600160a01b03166001600160a01b03165a6118a161244d565b6001600160a01b0316146118ec5760405162461bcd60e51b815260040180806020018281038252602f815260200180612644602f9139604001915050604051809103906108236121da565b565b60006118f8611f29565b6001600160a01b03166323257c2b6d53797374656d53657474696e677360901b6f6c69717569646174696f6e526174696f60801b6040516001600160e01b031960e085901b1681526004810192909252602482015260440160206040518083038186806116706122a0565b61196b6123f3565b61197361204b565b6001600160a01b031663bdc963d86119a1724c69717569646174696f6e446561646c696e6560681b8561208d565b6040516001600160e01b031960e084901b168152600481019190915260240160206040518083038186806119d36122a0565b1580156119e8576000806119e56121da565b50505b505a6119f261240a565b5050505050158015611a11573d6000803e3d6000611a0e6121da565b50505b505050506040513d6020811015611a3057600080611a2d6121da565b50505b810190808051845250506000602083015250919050565b6000808211801561059c5750815a611a5d6124b0565b1192915050565b60006118438383670de0b6b3a76400006120da565b60006106266524b9b9bab2b960d11b6040516040808201905260168152754d697373696e6720497373756572206164647265737360501b6020820152612111565b611ac261204b565b6001600160a01b03166393fe4248611af0724c69717569646174696f6e446561646c696e6560681b8461208d565b6040516001600160e01b031960e084901b168152600481019190915260240160006040518083038160008780611b246122a0565b158015611b3957600080611b366121da565b50505b505a611b436124f6565b505050505050158015611b63573d6000803e3d6000611b606121da565b50505b50505050611b6f61204b565b6001600160a01b031663043106c0611b9b702634b8bab4b230ba34b7b721b0b63632b960791b8461208d565b6040516001600160e01b031960e084901b168152600481019190915260240160006040518083038160008780611bcf6122a0565b158015611be457600080611be16121da565b50505b505a611bee6124f6565b505050505050158015611c0e573d6000803e3d6000611c0b6121da565b50505b50505050806001600160a01b03167f9b6ac8997b4f2edd0a27c1beb32f7c14d522e9c16f46e79daa5a144016bd6c875a611c466124b0565b60405190815260200160405180910390a250565b6000611c64611f29565b6001600160a01b03166323257c2b6d53797374656d53657474696e677360901b6f6c69717569646174696f6e44656c617960801b6040516001600160e01b031960e085901b1681526004810192909252602482015260440160206040518083038186806116706122a0565b60006106266c45786368616e6765526174657360981b60405160408082019052601d81527f4d697373696e672045786368616e6765526174657320616464726573730000006020820152612111565b60006106266b53797374656d53746174757360a01b60405160408082019052601c81527f4d697373696e672053797374656d5374617475732061646472657373000000006020820152612111565b6000610626680a6f2dce8d0cae8d2f60bb1b60405160408082019052601981527f4d697373696e672053796e7468657469782061646472657373000000000000006020820152612111565b611dbf61204b565b6001600160a01b0316633562fd20611ded724c69717569646174696f6e446561646c696e6560681b8661208d565b846040516001600160e01b031960e085901b1681526004810192909252602482015260440160006040518083038160008780611e276122a0565b158015611e3c57600080611e396121da565b50505b505a611e466124f6565b505050505050158015611e66573d6000803e3d6000611e636121da565b50505b50505050611e7261204b565b6001600160a01b0316635a2bf25a611e9e702634b8bab4b230ba34b7b721b0b63632b960791b8661208d565b836040516001600160e01b031960e085901b16815260048101929092526001600160a01b0316602482015260440160006040518083038160008780611ee16122a0565b158015611ef657600080611ef36121da565b50505b505a611f006124f6565b505050505050158015611f20573d6000803e3d6000611f1d6121da565b50505b50505050505050565b60006106266e466c657869626c6553746f7261676560881b60405160408082019052601f81527f4d697373696e6720466c657869626c6553746f726167652061646472657373006020820152612111565b600082611f895750600061059c565b82820282848281611f9657fe5b04146118435760405162461bcd60e51b81526004018080602001828103825260218152602001806126b160219139604001915050604051809103906118406121da565b60008082116120375760405162461bcd60e51b815260206004820152601a60248201527f536166654d6174683a206469766973696f6e206279207a65726f0000000000006044820152606401604051809103906120346121da565b50505b600082848161204257fe5b04949350505050565b60006106267f457465726e616c53746f726167654c69717569646174696f6e7300000000000060405160608101604052602a8082526125e56020830139612111565b6000828260405160200180838152602001826001600160a01b03166001600160a01b031660601b815260140192505050604051602081830303815290604052805190602001209392505050565b6000806120f48461186887600a870263ffffffff611f7a16565b90506005600a82061061210557600a015b600a9004949350505050565b60008281526003602052806040812060009061212b612245565b6001600160a01b036101009290920a900416905082816121d25760405162461bcd60e51b81526004018080602001828103825283818151815260200191508051906020019080838360005b8381101561218e578082015183820152602001612176565b50505050905090810190601f1680156121bb5780820380516001836020036101000a031916815260200191505b5092505050604051809103906121cf6121da565b50505b509392505050565b632a2a7adb598160e01b8152600481016020815285602082015260005b868110156122125780860151828201604001526020016121f7565b506020828760640184336000905af158600e01573d6000803e3d6000fd5b3d6001141558600a015760016000f35b505050565b6303daa959598160e01b8152836004820152602081602483336000905af158600e01573d6000803e3d6000fd5b3d6001141558600a015760016000f35b8051935060005b6040811015610bbd57600082820152602001612289565b638435035b598160e01b8152836004820152602081602483336000905af158600e01573d6000803e3d6000fd5b3d6001141558600a015760016000f35b80516000825293506020612289565b63ffe73914598160e01b8152836004820152846024820152606060448201528660648201526084810160005b88811015612330578088015182820152602001612318565b50876101040182016060838a6101040185336000905af158600e01573d6000803e3d6000fd5b3d6001141558600a015760016000f35b825160408401513d6000863e8c8c82606088013350600060045af15059855b818110156123995760008152602001612385565b50919c50505050505050565b6322bd64c0598160e01b8152836004820152846024820152600081604483336000905af158600e01573d6000803e3d6000fd5b3d6001141558600a015760016000f35b600081526020612289565b604051604080820190526000808252602082015290565b638540661f598160e01b81528360048201528460248201526060604482015286606482015260848101600088811015612330578088015182820152602001612318565b6373509064598160e01b8152602081600483336000905af158600e01573d6000803e3d6000fd5b3d6001141558600a015760016000f35b80516000825293506020612289565b604051610300808201604052601890829080388339509192915050565b63bdbf8c36598160e01b8152602081600483336000905af158600e01573d6000803e3d6000fd5b3d6001141558600a015760016000f35b80516000825293506020612289565b6385979f76598160e01b8152836004820152846024820152606060448201528760648201526084810160005b8981101561253a578089015182820152602001612522565b50886101040182016060838b6101040185336000905af158600e01573d6000803e3d6000fd5b3d6001141558600a015760016000f35b825160408401513d6000863e8d8d82606088013350600060045af15059855b818110156125a3576000815260200161258f565b50919d5050505050505056fe596f75206d757374206265206e6f6d696e61746564206265666f726520796f752063616e20616363657074206f776e6572736869704d697373696e6720457465726e616c53746f726167654c69717569646174696f6e7320616464726573734163636f756e742069737375616e636520726174696f206973206c657373207468616e206c69717569646174696f6e20726174696f4f6e6c792074686520636f6e7472616374206f776e6572206d617920706572666f726d207468697320616374696f6e4c69717569646174696f6e733a204f6e6c79207468652049737375657220636f6e74726163742063616e20706572666f726d207468697320616374696f6e536166654d6174683a206d756c7469706c69636174696f6e206f766572666c6f774163636f756e7420616c726561647920666c616767656420666f72206c69717569646174696f6e",
			"opcodes": "PUSH1 0x80 PUSH1 0x40 MSTORE PUSH1 0x40 MLOAD PUSH1 0xA0 DUP2 ADD PUSH1 0x40 SWAP1 DUP2 MSTORE PUSH12 0x53797374656D537461747573 PUSH1 0xA0 SHL DUP3 MSTORE PUSH9 0xA6F2DCE8D0CAE8D2F PUSH1 0xBB SHL PUSH1 0x20 DUP4 ADD MSTORE PUSH32 0x457465726E616C53746F726167654C69717569646174696F6E73000000000000 SWAP1 DUP3 ADD MSTORE PUSH6 0x24B9B9BAB2B9 PUSH1 0xD1 SHL PUSH1 0x60 DUP3 ADD MSTORE PUSH13 0x45786368616E67655261746573 PUSH1 0x98 SHL PUSH1 0x80 DUP3 ADD MSTORE PUSH3 0x8D SWAP1 PUSH1 0x5 SWAP1 DUP2 PUSH3 0x547 JUMP JUMPDEST POP CALLVALUE DUP1 ISZERO PUSH3 0xA6 JUMPI PUSH1 0x0 DUP1 PUSH3 0xA3 PUSH3 0x595 JUMP JUMPDEST POP POP JUMPDEST POP PUSH1 0x40 MLOAD PUSH3 0x2EF3 CODESIZE SUB DUP1 PUSH3 0x2EF3 DUP4 CODECOPY DUP2 DUP2 ADD PUSH1 0x40 MSTORE PUSH1 0x40 DUP2 LT ISZERO PUSH3 0xD7 JUMPI PUSH1 0x0 DUP1 PUSH3 0xD4 PUSH3 0x595 JUMP JUMPDEST POP POP JUMPDEST DUP2 ADD SWAP1 DUP1 DUP1 MLOAD SWAP3 SWAP2 SWAP1 PUSH1 0x20 ADD DUP1 MLOAD SWAP3 POP DUP3 SWAP2 POP PUSH1 0x5 SWAP1 POP PUSH1 0x18 PUSH2 0x300 PUSH1 0x40 MLOAD SWAP1 DUP2 ADD PUSH1 0x40 MSTORE SWAP2 SWAP1 PUSH2 0x300 DUP4 ADD DUP3 DUP5 JUMPDEST DUP2 PUSH3 0x111 PUSH3 0x602 JUMP JUMPDEST DUP2 MSTORE PUSH1 0x20 ADD SWAP1 PUSH1 0x1 ADD SWAP1 DUP1 DUP4 GT PUSH3 0x106 JUMPI POP DUP8 SWAP4 POP POP POP POP PUSH1 0x1 PUSH1 0x1 PUSH1 0xA0 SHL SUB DUP2 AND PUSH3 0x190 JUMPI PUSH1 0x40 MLOAD PUSH3 0x461BCD PUSH1 0xE5 SHL DUP2 MSTORE PUSH1 0x20 PUSH1 0x4 DUP3 ADD MSTORE PUSH1 0x19 PUSH1 0x24 DUP3 ADD MSTORE PUSH32 0x4F776E657220616464726573732063616E6E6F74206265203000000000000000 PUSH1 0x44 DUP3 ADD MSTORE PUSH1 0x64 ADD PUSH1 0x40 MLOAD DUP1 SWAP2 SUB SWAP1 PUSH3 0x18D PUSH3 0x595 JUMP JUMPDEST POP POP JUMPDEST DUP1 PUSH1 0x0 PUSH1 0x1 DUP2 PUSH3 0x1A0 PUSH3 0x602 JUMP JUMPDEST DUP2 PUSH1 0x1 PUSH1 0x1 PUSH1 0xA0 SHL SUB MUL NOT AND SWAP1 DUP4 PUSH1 0x1 PUSH1 0x1 PUSH1 0xA0 SHL SUB AND MUL OR SWAP1 PUSH3 0x1C4 PUSH3 0x664 JUMP JUMPDEST POP POP POP PUSH32 0xB532073B38C83145E3E5135377A08BF9AAB55BC0FD7C1179CD4FB995D2A5159C PUSH1 0x0 DUP3 PUSH1 0x40 MLOAD PUSH1 0x1 PUSH1 0x1 PUSH1 0xA0 SHL SUB SWAP3 DUP4 AND DUP2 MSTORE SWAP2 AND PUSH1 0x20 DUP3 ADD MSTORE PUSH1 0x40 SWAP1 DUP2 ADD SWAP1 MLOAD DUP1 SWAP2 SUB SWAP1 LOG1 POP PUSH1 0x0 DUP1 DUP1 PUSH3 0x21D PUSH3 0x602 JUMP JUMPDEST SWAP1 PUSH2 0x100 EXP SWAP1 DIV PUSH1 0x1 PUSH1 0x1 PUSH1 0xA0 SHL SUB AND PUSH1 0x1 PUSH1 0x1 PUSH1 0xA0 SHL SUB AND EQ ISZERO PUSH3 0x288 JUMPI PUSH1 0x40 MLOAD PUSH3 0x461BCD PUSH1 0xE5 SHL DUP2 MSTORE PUSH1 0x20 PUSH1 0x4 DUP3 ADD MSTORE PUSH1 0x11 PUSH1 0x24 DUP3 ADD MSTORE PUSH17 0x13DDDB995C881B5D5CDD081899481CD95D PUSH1 0x7A SHL PUSH1 0x44 DUP3 ADD MSTORE PUSH1 0x64 ADD PUSH1 0x40 MLOAD DUP1 SWAP2 SUB SWAP1 PUSH3 0x285 PUSH3 0x595 JUMP JUMPDEST POP POP JUMPDEST PUSH1 0x0 JUMPDEST PUSH1 0x18 DUP2 LT ISZERO PUSH3 0x318 JUMPI PUSH1 0x0 DUP3 DUP3 PUSH1 0x18 DUP2 LT PUSH3 0x2A4 JUMPI INVALID JUMPDEST PUSH1 0x20 MUL ADD MLOAD EQ PUSH3 0x309 JUMPI PUSH1 0x4 DUP3 DUP3 PUSH1 0x18 DUP2 LT PUSH3 0x2BE JUMPI INVALID JUMPDEST PUSH1 0x20 MUL ADD MLOAD SWAP1 DUP1 PUSH1 0x1 DUP2 PUSH3 0x2D2 PUSH3 0x602 JUMP JUMPDEST ADD DUP1 DUP3 PUSH3 0x2DF PUSH3 0x664 JUMP JUMPDEST POP POP PUSH1 0x0 SWAP3 DUP4 MSTORE SWAP2 PUSH1 0x0 NOT DUP4 ADD SWAP2 POP PUSH1 0x20 SWAP1 KECCAK256 SWAP2 SWAP3 SWAP2 ADD PUSH3 0x300 PUSH3 0x664 JUMP JUMPDEST POP POP POP PUSH3 0x30F JUMP JUMPDEST PUSH3 0x318 JUMP JUMPDEST PUSH1 0x1 ADD PUSH3 0x28B JUMP JUMPDEST POP DUP2 PUSH1 0x2 PUSH1 0x1 DUP2 PUSH3 0x329 PUSH3 0x602 JUMP JUMPDEST DUP2 PUSH1 0x1 PUSH1 0x1 PUSH1 0xA0 SHL SUB MUL NOT AND SWAP1 DUP4 PUSH1 0x1 PUSH1 0x1 PUSH1 0xA0 SHL SUB AND MUL OR SWAP1 PUSH3 0x34D PUSH3 0x664 JUMP JUMPDEST POP POP POP POP POP PUSH3 0x375 PUSH15 0x466C657869626C6553746F72616765 PUSH1 0x88 SHL PUSH3 0x37D PUSH1 0x20 SHL PUSH1 0x20 SHR JUMP JUMPDEST POP POP PUSH3 0x7EA JUMP JUMPDEST DUP1 PUSH1 0x4 DUP1 PUSH1 0x1 DUP2 PUSH3 0x38E PUSH3 0x602 JUMP JUMPDEST ADD DUP1 DUP3 PUSH3 0x39B PUSH3 0x664 JUMP JUMPDEST POP POP PUSH1 0x0 SWAP3 DUP4 MSTORE SWAP2 PUSH1 0x0 NOT DUP4 ADD SWAP2 POP PUSH1 0x20 SWAP1 KECCAK256 SWAP2 SWAP3 SWAP2 ADD PUSH3 0x3BC PUSH3 0x664 JUMP JUMPDEST POP POP POP PUSH1 0x18 PUSH1 0x4 DUP1 PUSH3 0x3CE PUSH3 0x602 JUMP JUMPDEST SWAP1 POP LT PUSH3 0x42D JUMPI PUSH1 0x40 MLOAD PUSH3 0x461BCD PUSH1 0xE5 SHL DUP2 MSTORE PUSH1 0x20 PUSH1 0x4 DUP3 ADD MSTORE PUSH1 0x1B PUSH1 0x24 DUP3 ADD MSTORE PUSH32 0x4D6178207265736F6C7665722063616368652073697A65206D65740000000000 PUSH1 0x44 DUP3 ADD MSTORE PUSH1 0x64 ADD PUSH1 0x40 MLOAD DUP1 SWAP2 SUB SWAP1 PUSH3 0x42A PUSH3 0x595 JUMP JUMPDEST POP POP JUMPDEST PUSH1 0x0 PUSH1 0x2 PUSH3 0x43B PUSH3 0x602 JUMP JUMPDEST SWAP1 PUSH2 0x100 EXP SWAP1 DIV PUSH1 0x1 PUSH1 0x1 PUSH1 0xA0 SHL SUB AND PUSH1 0x1 PUSH1 0x1 PUSH1 0xA0 SHL SUB AND PUSH4 0x21F8A721 DUP3 PUSH1 0x40 MLOAD PUSH1 0x1 PUSH1 0x1 PUSH1 0xE0 SHL SUB NOT PUSH1 0xE0 DUP5 SWAP1 SHL AND DUP2 MSTORE PUSH1 0x4 DUP2 ADD SWAP2 SWAP1 SWAP2 MSTORE PUSH1 0x24 ADD PUSH1 0x20 PUSH1 0x40 MLOAD DUP1 DUP4 SUB DUP2 DUP7 DUP1 PUSH3 0x48E PUSH3 0x6B3 JUMP JUMPDEST ISZERO DUP1 ISZERO PUSH3 0x4A6 JUMPI PUSH1 0x0 DUP1 PUSH3 0x4A3 PUSH3 0x595 JUMP JUMPDEST POP POP JUMPDEST POP GAS PUSH3 0x4B2 PUSH3 0x700 JUMP JUMPDEST POP POP POP POP POP ISZERO DUP1 ISZERO PUSH3 0x4D4 JUMPI RETURNDATASIZE PUSH1 0x0 DUP1 RETURNDATACOPY RETURNDATASIZE PUSH1 0x0 PUSH3 0x4D1 PUSH3 0x595 JUMP JUMPDEST POP POP JUMPDEST POP POP POP POP PUSH1 0x40 MLOAD RETURNDATASIZE PUSH1 0x20 DUP2 LT ISZERO PUSH3 0x4F6 JUMPI PUSH1 0x0 DUP1 PUSH3 0x4F3 PUSH3 0x595 JUMP JUMPDEST POP POP JUMPDEST DUP2 ADD SWAP1 DUP1 DUP1 MLOAD PUSH1 0x0 DUP6 DUP2 MSTORE PUSH1 0x3 PUSH1 0x20 MSTORE SWAP1 SWAP4 POP PUSH1 0x40 SWAP3 POP SWAP1 POP KECCAK256 PUSH1 0x1 DUP2 PUSH3 0x51D PUSH3 0x602 JUMP JUMPDEST DUP2 PUSH1 0x1 PUSH1 0x1 PUSH1 0xA0 SHL SUB MUL NOT AND SWAP1 DUP4 PUSH1 0x1 PUSH1 0x1 PUSH1 0xA0 SHL SUB AND MUL OR SWAP1 PUSH3 0x541 PUSH3 0x664 JUMP JUMPDEST POP POP POP POP JUMP JUMPDEST DUP3 PUSH1 0x18 DUP2 ADD SWAP3 DUP3 ISZERO PUSH3 0x583 JUMPI SWAP2 PUSH1 0x20 MUL DUP3 ADD JUMPDEST DUP3 DUP2 GT ISZERO PUSH3 0x583 JUMPI DUP3 MLOAD DUP3 PUSH3 0x571 PUSH3 0x664 JUMP JUMPDEST POP POP SWAP2 PUSH1 0x20 ADD SWAP2 SWAP1 PUSH1 0x1 ADD SWAP1 PUSH3 0x55B JUMP JUMPDEST POP PUSH3 0x591 SWAP3 SWAP2 POP PUSH3 0x7BD JUMP JUMPDEST POP SWAP1 JUMP JUMPDEST PUSH4 0x2A2A7ADB MSIZE DUP2 PUSH1 0xE0 SHL DUP2 MSTORE PUSH1 0x4 DUP2 ADD PUSH1 0x20 DUP2 MSTORE DUP6 PUSH1 0x20 DUP3 ADD MSTORE PUSH1 0x0 JUMPDEST DUP7 DUP2 LT ISZERO PUSH3 0x5CF JUMPI DUP1 DUP7 ADD MLOAD DUP3 DUP3 ADD PUSH1 0x40 ADD MSTORE PUSH1 0x20 ADD PUSH3 0x5B2 JUMP JUMPDEST POP PUSH1 0x20 DUP3 DUP8 PUSH1 0x64 ADD DUP5 CALLER PUSH1 0x0 SWAP1 GAS CALL PC PUSH1 0xE ADD JUMPI RETURNDATASIZE PUSH1 0x0 DUP1 RETURNDATACOPY RETURNDATASIZE PUSH1 0x0 REVERT JUMPDEST RETURNDATASIZE PUSH1 0x1 EQ ISZERO PC PUSH1 0xA ADD JUMPI PUSH1 0x1 PUSH1 0x0 RETURN JUMPDEST POP POP POP JUMP JUMPDEST PUSH4 0x3DAA959 MSIZE DUP2 PUSH1 0xE0 SHL DUP2 MSTORE DUP4 PUSH1 0x4 DUP3 ADD MSTORE PUSH1 0x20 DUP2 PUSH1 0x24 DUP4 CALLER PUSH1 0x0 SWAP1 GAS CALL PC PUSH1 0xE ADD JUMPI RETURNDATASIZE PUSH1 0x0 DUP1 RETURNDATACOPY RETURNDATASIZE PUSH1 0x0 REVERT JUMPDEST RETURNDATASIZE PUSH1 0x1 EQ ISZERO PC PUSH1 0xA ADD JUMPI PUSH1 0x1 PUSH1 0x0 RETURN JUMPDEST DUP1 MLOAD SWAP4 POP PUSH1 0x0 JUMPDEST PUSH1 0x40 DUP2 LT ISZERO PUSH3 0x65F JUMPI PUSH1 0x0 DUP3 DUP3 ADD MSTORE PUSH1 0x20 ADD PUSH3 0x646 JUMP JUMPDEST POP POP POP JUMP JUMPDEST PUSH4 0x22BD64C0 MSIZE DUP2 PUSH1 0xE0 SHL DUP2 MSTORE DUP4 PUSH1 0x4 DUP3 ADD MSTORE DUP5 PUSH1 0x24 DUP3 ADD MSTORE PUSH1 0x0 DUP2 PUSH1 0x44 DUP4 CALLER PUSH1 0x0 SWAP1 GAS CALL PC PUSH1 0xE ADD JUMPI RETURNDATASIZE PUSH1 0x0 DUP1 RETURNDATACOPY RETURNDATASIZE PUSH1 0x0 REVERT JUMPDEST RETURNDATASIZE PUSH1 0x1 EQ ISZERO PC PUSH1 0xA ADD JUMPI PUSH1 0x1 PUSH1 0x0 RETURN JUMPDEST PUSH1 0x0 DUP2 MSTORE PUSH1 0x20 PUSH3 0x646 JUMP JUMPDEST PUSH4 0x8435035B MSIZE DUP2 PUSH1 0xE0 SHL DUP2 MSTORE DUP4 PUSH1 0x4 DUP3 ADD MSTORE PUSH1 0x20 DUP2 PUSH1 0x24 DUP4 CALLER PUSH1 0x0 SWAP1 GAS CALL PC PUSH1 0xE ADD JUMPI RETURNDATASIZE PUSH1 0x0 DUP1 RETURNDATACOPY RETURNDATASIZE PUSH1 0x0 REVERT JUMPDEST RETURNDATASIZE PUSH1 0x1 EQ ISZERO PC PUSH1 0xA ADD JUMPI PUSH1 0x1 PUSH1 0x0 RETURN JUMPDEST DUP1 MLOAD PUSH1 0x0 DUP3 MSTORE SWAP4 POP PUSH1 0x20 PUSH3 0x646 JUMP JUMPDEST PUSH4 0x8540661F MSIZE DUP2 PUSH1 0xE0 SHL DUP2 MSTORE DUP4 PUSH1 0x4 DUP3 ADD MSTORE DUP5 PUSH1 0x24 DUP3 ADD MSTORE PUSH1 0x60 PUSH1 0x44 DUP3 ADD MSTORE DUP7 PUSH1 0x64 DUP3 ADD MSTORE PUSH1 0x84 DUP2 ADD PUSH1 0x0 JUMPDEST DUP9 DUP2 LT ISZERO PUSH3 0x746 JUMPI DUP1 DUP9 ADD MLOAD DUP3 DUP3 ADD MSTORE PUSH1 0x20 ADD PUSH3 0x72C JUMP JUMPDEST POP DUP8 PUSH2 0x104 ADD DUP3 ADD PUSH1 0x60 DUP4 DUP11 PUSH2 0x104 ADD DUP6 CALLER PUSH1 0x0 SWAP1 GAS CALL PC PUSH1 0xE ADD JUMPI RETURNDATASIZE PUSH1 0x0 DUP1 RETURNDATACOPY RETURNDATASIZE PUSH1 0x0 REVERT JUMPDEST RETURNDATASIZE PUSH1 0x1 EQ ISZERO PC PUSH1 0xA ADD JUMPI PUSH1 0x1 PUSH1 0x0 RETURN JUMPDEST DUP3 MLOAD PUSH1 0x40 DUP5 ADD MLOAD RETURNDATASIZE PUSH1 0x0 DUP7 RETURNDATACOPY DUP13 DUP13 DUP3 PUSH1 0x60 DUP9 ADD CALLER POP PUSH1 0x0 PUSH1 0x4 GAS CALL POP MSIZE DUP6 JUMPDEST DUP2 DUP2 LT ISZERO PUSH3 0x7B1 JUMPI PUSH1 0x0 DUP2 MSTORE PUSH1 0x20 ADD PUSH3 0x79B JUMP JUMPDEST POP SWAP2 SWAP13 POP POP POP POP POP POP POP JUMP JUMPDEST PUSH3 0x7E7 SWAP2 SWAP1 JUMPDEST DUP1 DUP3 GT ISZERO PUSH3 0x591 JUMPI PUSH1 0x0 DUP1 DUP3 PUSH3 0x7DB PUSH3 0x664 JUMP JUMPDEST POP POP POP PUSH1 0x1 ADD PUSH3 0x7C4 JUMP JUMPDEST SWAP1 JUMP JUMPDEST PUSH2 0x26F9 DUP1 PUSH3 0x7FA PUSH1 0x0 CODECOPY PUSH1 0x0 RETURN INVALID PUSH1 0x80 PUSH1 0x40 MSTORE CALLVALUE DUP1 ISZERO PUSH2 0x19 JUMPI PUSH1 0x0 DUP1 PUSH2 0x16 PUSH2 0x21DA JUMP JUMPDEST POP POP JUMPDEST POP PUSH1 0x4 CALLDATASIZE LT PUSH2 0x161 JUMPI PUSH1 0x0 CALLDATALOAD PUSH1 0xE0 SHR DUP1 PUSH4 0x828AFC4B GT PUSH2 0xCC JUMPI DUP1 PUSH4 0xAD2BC2D5 GT PUSH2 0x85 JUMPI DUP1 PUSH4 0xAD2BC2D5 EQ PUSH2 0x38A JUMPI DUP1 PUSH4 0xB410A034 EQ PUSH2 0x3B9 JUMPI DUP1 PUSH4 0xC49E80A6 EQ PUSH2 0x3C1 JUMPI DUP1 PUSH4 0xC6C9D828 EQ PUSH2 0x3F0 JUMPI DUP1 PUSH4 0xD45C0D7E EQ PUSH2 0x416 JUMPI DUP1 PUSH4 0xE3235C91 EQ PUSH2 0x445 JUMPI PUSH2 0x161 JUMP JUMPDEST DUP1 PUSH4 0x828AFC4B EQ PUSH2 0x2D3 JUMPI DUP1 PUSH4 0x8D1BD1BE EQ PUSH2 0x302 JUMPI DUP1 PUSH4 0x8DA5CB5B EQ PUSH2 0x30A JUMPI DUP1 PUSH4 0x974E9E7F EQ PUSH2 0x312 JUMPI DUP1 PUSH4 0xA0CF7451 EQ PUSH2 0x341 JUMPI DUP1 PUSH4 0xAB49848C EQ PUSH2 0x349 JUMPI PUSH2 0x161 JUMP JUMPDEST DUP1 PUSH4 0x3BE99E6F GT PUSH2 0x11E JUMPI DUP1 PUSH4 0x3BE99E6F EQ PUSH2 0x255 JUMPI DUP1 PUSH4 0x53A47BB7 EQ PUSH2 0x284 JUMPI DUP1 PUSH4 0x631E1444 EQ PUSH2 0x28C JUMPI DUP1 PUSH4 0x6A058966 EQ PUSH2 0x2BB JUMPI DUP1 PUSH4 0x74E889C9 EQ PUSH2 0x2C3 JUMPI DUP1 PUSH4 0x79BA5097 EQ PUSH2 0x2CB JUMPI PUSH2 0x161 JUMP JUMPDEST DUP1 PUSH4 0x4F3BCEC EQ PUSH2 0x16F JUMPI DUP1 PUSH4 0xAC045D5 EQ PUSH2 0x193 JUMPI DUP1 PUSH4 0x1627540C EQ PUSH2 0x1D1 JUMPI DUP1 PUSH4 0x1775765F EQ PUSH2 0x202 JUMPI DUP1 PUSH4 0x23F5589A EQ PUSH2 0x20A JUMPI DUP1 PUSH4 0x39A9DF1B EQ PUSH2 0x212 JUMPI JUMPDEST PUSH1 0x0 DUP1 PUSH2 0x16C PUSH2 0x21DA JUMP JUMPDEST POP POP JUMPDEST PUSH2 0x177 PUSH2 0x44D JUMP JUMPDEST PUSH1 0x40 MLOAD PUSH1 0x1 PUSH1 0x1 PUSH1 0xA0 SHL SUB SWAP1 SWAP2 AND DUP2 MSTORE PUSH1 0x20 ADD PUSH1 0x40 MLOAD DUP1 SWAP2 SUB SWAP1 RETURN JUMPDEST PUSH2 0x1BF PUSH1 0x4 DUP1 CALLDATASIZE SUB PUSH1 0x40 DUP2 LT ISZERO PUSH2 0x1B2 JUMPI PUSH1 0x0 DUP1 PUSH2 0x1AF PUSH2 0x21DA JUMP JUMPDEST POP POP JUMPDEST POP DUP1 CALLDATALOAD SWAP1 PUSH1 0x20 ADD CALLDATALOAD PUSH2 0x46C JUMP JUMPDEST PUSH1 0x40 MLOAD SWAP1 DUP2 MSTORE PUSH1 0x20 ADD PUSH1 0x40 MLOAD DUP1 SWAP2 SUB SWAP1 RETURN JUMPDEST PUSH2 0x200 PUSH1 0x4 DUP1 CALLDATASIZE SUB PUSH1 0x20 DUP2 LT ISZERO PUSH2 0x1F0 JUMPI PUSH1 0x0 DUP1 PUSH2 0x1ED PUSH2 0x21DA JUMP JUMPDEST POP POP JUMPDEST POP CALLDATALOAD PUSH1 0x1 PUSH1 0x1 PUSH1 0xA0 SHL SUB AND PUSH2 0x5A2 JUMP JUMPDEST STOP JUMPDEST PUSH2 0x1BF PUSH2 0x61C JUMP JUMPDEST PUSH2 0x1BF PUSH2 0x62B JUMP JUMPDEST PUSH2 0x241 PUSH1 0x4 DUP1 CALLDATASIZE SUB PUSH1 0x20 DUP2 LT ISZERO PUSH2 0x231 JUMPI PUSH1 0x0 DUP1 PUSH2 0x22E PUSH2 0x21DA JUMP JUMPDEST POP POP JUMPDEST POP CALLDATALOAD PUSH1 0x1 PUSH1 0x1 PUSH1 0xA0 SHL SUB AND PUSH2 0x635 JUMP JUMPDEST PUSH1 0x40 MLOAD SWAP1 ISZERO ISZERO DUP2 MSTORE PUSH1 0x20 ADD PUSH1 0x40 MLOAD DUP1 SWAP2 SUB SWAP1 RETURN JUMPDEST PUSH2 0x200 PUSH1 0x4 DUP1 CALLDATASIZE SUB PUSH1 0x20 DUP2 LT ISZERO PUSH2 0x274 JUMPI PUSH1 0x0 DUP1 PUSH2 0x271 PUSH2 0x21DA JUMP JUMPDEST POP POP JUMPDEST POP CALLDATALOAD PUSH1 0x1 PUSH1 0x1 PUSH1 0xA0 SHL SUB AND PUSH2 0x65D JUMP JUMPDEST PUSH2 0x177 PUSH2 0x827 JUMP JUMPDEST PUSH2 0x241 PUSH1 0x4 DUP1 CALLDATASIZE SUB PUSH1 0x20 DUP2 LT ISZERO PUSH2 0x2AB JUMPI PUSH1 0x0 DUP1 PUSH2 0x2A8 PUSH2 0x21DA JUMP JUMPDEST POP POP JUMPDEST POP CALLDATALOAD PUSH1 0x1 PUSH1 0x1 PUSH1 0xA0 SHL SUB AND PUSH2 0x833 JUMP JUMPDEST PUSH2 0x1BF PUSH2 0xA0D JUMP JUMPDEST PUSH2 0x1BF PUSH2 0xA25 JUMP JUMPDEST PUSH2 0x200 PUSH2 0xA3F JUMP JUMPDEST PUSH2 0x1BF PUSH1 0x4 DUP1 CALLDATASIZE SUB PUSH1 0x20 DUP2 LT ISZERO PUSH2 0x2F2 JUMPI PUSH1 0x0 DUP1 PUSH2 0x2EF PUSH2 0x21DA JUMP JUMPDEST POP POP JUMPDEST POP CALLDATALOAD PUSH1 0x1 PUSH1 0x1 PUSH1 0xA0 SHL SUB AND PUSH2 0xBC2 JUMP JUMPDEST PUSH2 0x1BF PUSH2 0xBE0 JUMP JUMPDEST PUSH2 0x177 PUSH2 0xCA0 JUMP JUMPDEST PUSH2 0x200 PUSH1 0x4 DUP1 CALLDATASIZE SUB PUSH1 0x20 DUP2 LT ISZERO PUSH2 0x331 JUMPI PUSH1 0x0 DUP1 PUSH2 0x32E PUSH2 0x21DA JUMP JUMPDEST POP POP JUMPDEST POP CALLDATALOAD PUSH1 0x1 PUSH1 0x1 PUSH1 0xA0 SHL SUB AND PUSH2 0xCAB JUMP JUMPDEST PUSH2 0x1BF PUSH2 0xD39 JUMP JUMPDEST PUSH2 0x351 PUSH2 0xD43 JUMP JUMPDEST PUSH1 0x40 MLOAD DUP1 DUP3 PUSH2 0x300 DUP1 DUP4 DUP4 PUSH1 0x0 JUMPDEST DUP4 DUP2 LT ISZERO PUSH2 0x377 JUMPI DUP1 DUP3 ADD MLOAD DUP4 DUP3 ADD MSTORE PUSH1 0x20 ADD PUSH2 0x35F JUMP JUMPDEST POP POP POP POP SWAP1 POP ADD SWAP2 POP POP PUSH1 0x40 MLOAD DUP1 SWAP2 SUB SWAP1 RETURN JUMPDEST PUSH2 0x200 PUSH1 0x4 DUP1 CALLDATASIZE SUB PUSH1 0x20 DUP2 LT ISZERO PUSH2 0x3A9 JUMPI PUSH1 0x0 DUP1 PUSH2 0x3A6 PUSH2 0x21DA JUMP JUMPDEST POP POP JUMPDEST POP CALLDATALOAD PUSH1 0x1 PUSH1 0x1 PUSH1 0xA0 SHL SUB AND PUSH2 0xDA5 JUMP JUMPDEST PUSH2 0x1BF PUSH2 0x107F JUMP JUMPDEST PUSH2 0x241 PUSH1 0x4 DUP1 CALLDATASIZE SUB PUSH1 0x20 DUP2 LT ISZERO PUSH2 0x3E0 JUMPI PUSH1 0x0 DUP1 PUSH2 0x3DD PUSH2 0x21DA JUMP JUMPDEST POP POP JUMPDEST POP CALLDATALOAD PUSH1 0x1 PUSH1 0x1 PUSH1 0xA0 SHL SUB AND PUSH2 0x1089 JUMP JUMPDEST PUSH2 0x1BF PUSH1 0x4 DUP1 CALLDATASIZE SUB PUSH1 0x20 DUP2 LT ISZERO PUSH2 0x40F JUMPI PUSH1 0x0 DUP1 PUSH2 0x40C PUSH2 0x21DA JUMP JUMPDEST POP POP JUMPDEST POP CALLDATALOAD PUSH2 0x1196 JUMP JUMPDEST PUSH2 0x200 PUSH1 0x4 DUP1 CALLDATASIZE SUB PUSH1 0x20 DUP2 LT ISZERO PUSH2 0x435 JUMPI PUSH1 0x0 DUP1 PUSH2 0x432 PUSH2 0x21DA JUMP JUMPDEST POP POP JUMPDEST POP CALLDATALOAD PUSH1 0x1 PUSH1 0x1 PUSH1 0xA0 SHL SUB AND PUSH2 0x11C1 JUMP JUMPDEST PUSH2 0x1BF PUSH2 0x15F9 JUMP JUMPDEST PUSH1 0x0 PUSH1 0x2 PUSH2 0x459 PUSH2 0x2245 JUMP JUMPDEST SWAP1 PUSH2 0x100 EXP SWAP1 DIV PUSH1 0x1 PUSH1 0x1 PUSH1 0xA0 SHL SUB AND DUP2 JUMP JUMPDEST PUSH1 0x0 DUP1 PUSH2 0x477 PUSH2 0x15FE JUMP JUMPDEST SWAP1 POP PUSH1 0x0 PUSH20 0x0 PUSH4 0x907AF6C0 PUSH1 0x40 MLOAD DUP2 PUSH4 0xFFFFFFFF AND PUSH1 0xE0 SHL DUP2 MSTORE PUSH1 0x4 ADD PUSH1 0x20 PUSH1 0x40 MLOAD DUP1 DUP4 SUB DUP2 DUP7 DUP1 PUSH2 0x4BA PUSH2 0x22A0 JUMP JUMPDEST ISZERO DUP1 ISZERO PUSH2 0x4CF JUMPI PUSH1 0x0 DUP1 PUSH2 0x4CC PUSH2 0x21DA JUMP JUMPDEST POP POP JUMPDEST POP GAS PUSH2 0x4D9 PUSH2 0x22EC JUMP JUMPDEST POP POP POP POP POP ISZERO DUP1 ISZERO PUSH2 0x4F8 JUMPI RETURNDATASIZE PUSH1 0x0 DUP1 RETURNDATACOPY RETURNDATASIZE PUSH1 0x0 PUSH2 0x4F5 PUSH2 0x21DA JUMP JUMPDEST POP POP JUMPDEST POP POP POP POP PUSH1 0x40 MLOAD RETURNDATASIZE PUSH1 0x20 DUP2 LT ISZERO PUSH2 0x517 JUMPI PUSH1 0x0 DUP1 PUSH2 0x514 PUSH2 0x21DA JUMP JUMPDEST POP POP JUMPDEST DUP2 ADD SWAP1 DUP1 DUP1 MLOAD SWAP4 POP PUSH1 0x0 SWAP3 POP PUSH2 0x547 SWAP2 POP PUSH2 0x53A SWAP1 POP DUP7 DUP6 PUSH4 0xFFFFFFFF PUSH2 0x16DB AND JUMP JUMPDEST DUP8 SWAP1 PUSH4 0xFFFFFFFF PUSH2 0x1705 AND JUMP JUMPDEST SWAP1 POP PUSH1 0x0 PUSH2 0x583 PUSH2 0x576 DUP6 PUSH2 0x56A PUSH2 0x55D PUSH2 0x176A JUMP JUMPDEST DUP8 SWAP1 PUSH4 0xFFFFFFFF PUSH2 0x17E1 AND JUMP JUMPDEST SWAP1 PUSH4 0xFFFFFFFF PUSH2 0x16DB AND JUMP JUMPDEST DUP5 SWAP1 PUSH4 0xFFFFFFFF PUSH2 0x1705 AND JUMP JUMPDEST SWAP1 POP PUSH2 0x595 DUP3 DUP3 PUSH4 0xFFFFFFFF PUSH2 0x184A AND JUMP JUMPDEST SWAP5 POP POP POP POP POP JUMPDEST SWAP3 SWAP2 POP POP JUMP JUMPDEST PUSH2 0x5AA PUSH2 0x1874 JUMP JUMPDEST DUP1 PUSH1 0x1 DUP1 DUP1 PUSH2 0x5B7 PUSH2 0x2245 JUMP JUMPDEST DUP2 PUSH1 0x1 PUSH1 0x1 PUSH1 0xA0 SHL SUB MUL NOT AND SWAP1 DUP4 PUSH1 0x1 PUSH1 0x1 PUSH1 0xA0 SHL SUB AND MUL OR SWAP1 PUSH2 0x5D9 PUSH2 0x23A5 JUMP JUMPDEST POP POP POP PUSH32 0x906A1C6BD7E3091EA86693DD029A831C19049CE77F1DCE2CE0BAB1CACBABCE22 DUP2 PUSH1 0x40 MLOAD PUSH1 0x1 PUSH1 0x1 PUSH1 0xA0 SHL SUB SWAP1 SWAP2 AND DUP2 MSTORE PUSH1 0x20 ADD PUSH1 0x40 MLOAD DUP1 SWAP2 SUB SWAP1 LOG1 POP JUMP JUMPDEST PUSH1 0x0 PUSH2 0x626 PUSH2 0x18EE JUMP JUMPDEST SWAP1 POP SWAP1 JUMP JUMPDEST PUSH1 0x0 PUSH2 0x626 PUSH2 0x176A JUMP JUMPDEST PUSH1 0x0 PUSH2 0x63F PUSH2 0x23F3 JUMP JUMPDEST PUSH2 0x648 DUP4 PUSH2 0x1963 JUMP JUMPDEST SWAP1 POP PUSH2 0x654 DUP2 MLOAD PUSH2 0x1A47 JUMP JUMPDEST SWAP2 POP POP JUMPDEST SWAP2 SWAP1 POP JUMP JUMPDEST PUSH2 0x665 PUSH2 0x1874 JUMP JUMPDEST DUP1 PUSH1 0x2 PUSH1 0x1 DUP2 PUSH2 0x673 PUSH2 0x2245 JUMP JUMPDEST DUP2 PUSH1 0x1 PUSH1 0x1 PUSH1 0xA0 SHL SUB MUL NOT AND SWAP1 DUP4 PUSH1 0x1 PUSH1 0x1 PUSH1 0xA0 SHL SUB AND MUL OR SWAP1 PUSH2 0x695 PUSH2 0x23A5 JUMP JUMPDEST POP PUSH1 0x0 SWAP2 POP POP JUMPDEST PUSH1 0x4 DUP1 PUSH2 0x6A7 PUSH2 0x2245 JUMP JUMPDEST SWAP1 POP DUP2 LT ISZERO PUSH2 0x823 JUMPI PUSH1 0x0 PUSH1 0x4 DUP3 DUP2 PUSH2 0x6BE PUSH2 0x2245 JUMP JUMPDEST DUP2 LT PUSH2 0x6C6 JUMPI INVALID JUMPDEST SWAP1 PUSH1 0x0 MSTORE PUSH1 0x20 PUSH1 0x0 KECCAK256 ADD PUSH2 0x6D8 PUSH2 0x2245 JUMP JUMPDEST SWAP1 POP PUSH1 0x0 PUSH1 0x2 PUSH2 0x6E6 PUSH2 0x2245 JUMP JUMPDEST SWAP1 PUSH2 0x100 EXP SWAP1 DIV PUSH1 0x1 PUSH1 0x1 PUSH1 0xA0 SHL SUB AND PUSH1 0x1 PUSH1 0x1 PUSH1 0xA0 SHL SUB AND PUSH4 0xDACB2D01 DUP3 PUSH1 0x40 MLOAD PUSH1 0x1 PUSH1 0x1 PUSH1 0xE0 SHL SUB NOT PUSH1 0xE0 DUP5 SWAP1 SHL AND DUP2 MSTORE PUSH1 0x4 DUP2 ADD SWAP2 SWAP1 SWAP2 MSTORE PUSH1 0x40 PUSH1 0x24 DUP3 ADD DUP2 SWAP1 MSTORE PUSH1 0x17 PUSH1 0x44 DUP4 ADD MSTORE PUSH32 0x5265736F6C766572206D697373696E6720746172676574000000000000000000 PUSH1 0x64 DUP4 ADD MSTORE PUSH1 0x84 SWAP1 SWAP2 ADD SWAP1 PUSH1 0x20 SWAP1 MLOAD DUP1 DUP4 SUB DUP2 DUP7 DUP1 PUSH2 0x76F PUSH2 0x22A0 JUMP JUMPDEST ISZERO DUP1 ISZERO PUSH2 0x784 JUMPI PUSH1 0x0 DUP1 PUSH2 0x781 PUSH2 0x21DA JUMP JUMPDEST POP POP JUMPDEST POP GAS PUSH2 0x78E PUSH2 0x240A JUMP JUMPDEST POP POP POP POP POP ISZERO DUP1 ISZERO PUSH2 0x7AD JUMPI RETURNDATASIZE PUSH1 0x0 DUP1 RETURNDATACOPY RETURNDATASIZE PUSH1 0x0 PUSH2 0x7AA PUSH2 0x21DA JUMP JUMPDEST POP POP JUMPDEST POP POP POP POP PUSH1 0x40 MLOAD RETURNDATASIZE PUSH1 0x20 DUP2 LT ISZERO PUSH2 0x7CC JUMPI PUSH1 0x0 DUP1 PUSH2 0x7C9 PUSH2 0x21DA JUMP JUMPDEST POP POP JUMPDEST DUP2 ADD SWAP1 DUP1 DUP1 MLOAD PUSH1 0x0 DUP6 DUP2 MSTORE PUSH1 0x3 PUSH1 0x20 MSTORE SWAP1 SWAP4 POP PUSH1 0x40 SWAP3 POP SWAP1 POP KECCAK256 PUSH1 0x1 DUP2 PUSH2 0x7F1 PUSH2 0x2245 JUMP JUMPDEST DUP2 PUSH1 0x1 PUSH1 0x1 PUSH1 0xA0 SHL SUB MUL NOT AND SWAP1 DUP4 PUSH1 0x1 PUSH1 0x1 PUSH1 0xA0 SHL SUB AND MUL OR SWAP1 PUSH2 0x813 PUSH2 0x23A5 JUMP JUMPDEST POP POP PUSH1 0x1 SWAP1 SWAP3 ADD SWAP2 POP PUSH2 0x69C SWAP1 POP JUMP JUMPDEST POP POP JUMP JUMPDEST PUSH1 0x0 PUSH1 0x1 PUSH2 0x459 PUSH2 0x2245 JUMP JUMPDEST PUSH1 0x0 PUSH1 0x1 PUSH1 0x1 PUSH1 0xA0 SHL SUB DUP3 AND DUP2 PUSH1 0x2 PUSH2 0x84A PUSH2 0x2245 JUMP JUMPDEST SWAP1 PUSH2 0x100 EXP SWAP1 DIV PUSH1 0x1 PUSH1 0x1 PUSH1 0xA0 SHL SUB AND PUSH1 0x1 PUSH1 0x1 PUSH1 0xA0 SHL SUB AND EQ PUSH2 0x870 JUMPI POP PUSH1 0x0 PUSH2 0x658 JUMP JUMPDEST PUSH1 0x0 JUMPDEST PUSH1 0x4 DUP1 PUSH2 0x87E PUSH2 0x2245 JUMP JUMPDEST SWAP1 POP DUP2 LT ISZERO PUSH2 0xA04 JUMPI PUSH1 0x0 PUSH1 0x4 DUP3 DUP2 PUSH2 0x895 PUSH2 0x2245 JUMP JUMPDEST DUP2 LT PUSH2 0x89D JUMPI INVALID JUMPDEST SWAP1 PUSH1 0x0 MSTORE PUSH1 0x20 PUSH1 0x0 KECCAK256 ADD PUSH2 0x8AF PUSH2 0x2245 JUMP JUMPDEST PUSH1 0x0 DUP2 DUP2 MSTORE PUSH1 0x3 PUSH1 0x20 MSTORE SWAP1 SWAP2 POP PUSH1 0x40 SWAP1 KECCAK256 PUSH1 0x0 SWAP1 PUSH2 0x8CB PUSH2 0x2245 JUMP JUMPDEST PUSH1 0x1 PUSH1 0x1 PUSH1 0xA0 SHL SUB PUSH2 0x100 SWAP3 SWAP1 SWAP3 EXP SWAP1 DIV AND PUSH1 0x0 PUSH1 0x2 PUSH2 0x8E9 PUSH2 0x2245 JUMP JUMPDEST SWAP1 PUSH2 0x100 EXP SWAP1 DIV PUSH1 0x1 PUSH1 0x1 PUSH1 0xA0 SHL SUB AND PUSH1 0x1 PUSH1 0x1 PUSH1 0xA0 SHL SUB AND PUSH4 0x21F8A721 DUP4 PUSH1 0x40 MLOAD PUSH1 0x1 PUSH1 0x1 PUSH1 0xE0 SHL SUB NOT PUSH1 0xE0 DUP5 SWAP1 SHL AND DUP2 MSTORE PUSH1 0x4 DUP2 ADD SWAP2 SWAP1 SWAP2 MSTORE PUSH1 0x24 ADD PUSH1 0x20 PUSH1 0x40 MLOAD DUP1 DUP4 SUB DUP2 DUP7 DUP1 PUSH2 0x93A PUSH2 0x22A0 JUMP JUMPDEST ISZERO DUP1 ISZERO PUSH2 0x94F JUMPI PUSH1 0x0 DUP1 PUSH2 0x94C PUSH2 0x21DA JUMP JUMPDEST POP POP JUMPDEST POP GAS PUSH2 0x959 PUSH2 0x240A JUMP JUMPDEST POP POP POP POP POP ISZERO DUP1 ISZERO PUSH2 0x978 JUMPI RETURNDATASIZE PUSH1 0x0 DUP1 RETURNDATACOPY RETURNDATASIZE PUSH1 0x0 PUSH2 0x975 PUSH2 0x21DA JUMP JUMPDEST POP POP JUMPDEST POP POP POP POP PUSH1 0x40 MLOAD RETURNDATASIZE PUSH1 0x20 DUP2 LT ISZERO PUSH2 0x997 JUMPI PUSH1 0x0 DUP1 PUSH2 0x994 PUSH2 0x21DA JUMP JUMPDEST POP POP JUMPDEST DUP2 ADD SWAP1 DUP1 DUP1 MLOAD PUSH1 0x1 PUSH1 0x1 PUSH1 0xA0 SHL SUB AND SWAP4 SWAP1 SWAP4 EQ ISZERO SWAP3 POP DUP3 SWAP2 POP PUSH2 0x9EB SWAP1 POP JUMPI POP PUSH1 0x0 DUP2 DUP2 MSTORE PUSH1 0x3 PUSH1 0x20 MSTORE PUSH1 0x40 DUP2 KECCAK256 PUSH1 0x0 SWAP1 PUSH2 0x9D0 PUSH2 0x2245 JUMP JUMPDEST SWAP1 PUSH2 0x100 EXP SWAP1 DIV PUSH1 0x1 PUSH1 0x1 PUSH1 0xA0 SHL SUB AND PUSH1 0x1 PUSH1 0x1 PUSH1 0xA0 SHL SUB AND EQ JUMPDEST ISZERO PUSH2 0x9FB JUMPI PUSH1 0x0 SWAP3 POP POP POP PUSH2 0x658 JUMP JUMPDEST POP PUSH1 0x1 ADD PUSH2 0x873 JUMP JUMPDEST POP PUSH1 0x1 SWAP3 SWAP2 POP POP JUMP JUMPDEST PUSH17 0x2634B8BAB4B230BA34B7B721B0B63632B9 PUSH1 0x79 SHL DUP2 JUMP JUMPDEST PUSH19 0x4C69717569646174696F6E446561646C696E65 PUSH1 0x68 SHL DUP2 JUMP JUMPDEST PUSH1 0x0 PUSH1 0x1 PUSH2 0xA4B PUSH2 0x2245 JUMP JUMPDEST SWAP1 PUSH2 0x100 EXP SWAP1 DIV PUSH1 0x1 PUSH1 0x1 PUSH1 0xA0 SHL SUB AND PUSH1 0x1 PUSH1 0x1 PUSH1 0xA0 SHL SUB AND GAS PUSH2 0xA6D PUSH2 0x244D JUMP JUMPDEST PUSH1 0x1 PUSH1 0x1 PUSH1 0xA0 SHL SUB AND EQ PUSH2 0xABB JUMPI PUSH1 0x40 MLOAD PUSH3 0x461BCD PUSH1 0xE5 SHL DUP2 MSTORE PUSH1 0x4 ADD DUP1 DUP1 PUSH1 0x20 ADD DUP3 DUP2 SUB DUP3 MSTORE PUSH1 0x35 DUP2 MSTORE PUSH1 0x20 ADD DUP1 PUSH2 0x25B0 PUSH1 0x35 SWAP2 CODECOPY PUSH1 0x40 ADD SWAP2 POP POP PUSH1 0x40 MLOAD DUP1 SWAP2 SUB SWAP1 PUSH2 0xAB8 PUSH2 0x21DA JUMP JUMPDEST POP POP JUMPDEST PUSH32 0xB532073B38C83145E3E5135377A08BF9AAB55BC0FD7C1179CD4FB995D2A5159C PUSH1 0x0 DUP1 PUSH2 0xAE7 PUSH2 0x2245 JUMP JUMPDEST SWAP1 PUSH2 0x100 EXP SWAP1 DIV PUSH1 0x1 PUSH1 0x1 PUSH1 0xA0 SHL SUB AND PUSH1 0x1 PUSH1 0x0 SWAP1 PUSH2 0xB04 PUSH2 0x2245 JUMP JUMPDEST SWAP1 PUSH2 0x100 EXP SWAP1 DIV PUSH1 0x1 PUSH1 0x1 PUSH1 0xA0 SHL SUB AND PUSH1 0x40 MLOAD PUSH1 0x1 PUSH1 0x1 PUSH1 0xA0 SHL SUB SWAP3 DUP4 AND DUP2 MSTORE SWAP2 AND PUSH1 0x20 DUP3 ADD MSTORE PUSH1 0x40 SWAP1 DUP2 ADD SWAP1 MLOAD DUP1 SWAP2 SUB SWAP1 LOG1 PUSH1 0x0 PUSH1 0x1 PUSH2 0xB43 PUSH2 0x2245 JUMP JUMPDEST SWAP1 PUSH2 0x100 EXP SWAP1 DIV PUSH1 0x1 PUSH1 0x1 PUSH1 0xA0 SHL SUB AND PUSH1 0x0 DUP1 PUSH2 0x100 EXP DUP2 PUSH2 0xB63 PUSH2 0x2245 JUMP JUMPDEST DUP2 PUSH1 0x1 PUSH1 0x1 PUSH1 0xA0 SHL SUB MUL NOT AND SWAP1 DUP4 PUSH1 0x1 PUSH1 0x1 PUSH1 0xA0 SHL SUB AND MUL OR SWAP1 PUSH2 0xB85 PUSH2 0x23A5 JUMP JUMPDEST POP POP POP PUSH1 0x0 PUSH1 0x1 PUSH1 0x0 PUSH2 0x100 EXP DUP2 PUSH2 0xB9B PUSH2 0x2245 JUMP JUMPDEST DUP2 PUSH1 0x1 PUSH1 0x1 PUSH1 0xA0 SHL SUB MUL NOT AND SWAP1 DUP4 PUSH1 0x1 PUSH1 0x1 PUSH1 0xA0 SHL SUB AND MUL OR SWAP1 PUSH2 0xBBD PUSH2 0x23A5 JUMP JUMPDEST POP POP POP JUMP JUMPDEST PUSH1 0x0 PUSH2 0xBCC PUSH2 0x23F3 JUMP JUMPDEST PUSH2 0xBD5 DUP4 PUSH2 0x1963 JUMP JUMPDEST SWAP1 POP DUP1 MLOAD SWAP4 SWAP3 POP POP POP JUMP JUMPDEST PUSH1 0x0 PUSH2 0x626 PUSH2 0xBED PUSH2 0x18EE JUMP JUMPDEST PUSH20 0x0 PUSH4 0x907AF6C0 PUSH1 0x40 MLOAD DUP2 PUSH4 0xFFFFFFFF AND PUSH1 0xE0 SHL DUP2 MSTORE PUSH1 0x4 ADD PUSH1 0x20 PUSH1 0x40 MLOAD DUP1 DUP4 SUB DUP2 DUP7 DUP1 PUSH2 0xC2C PUSH2 0x22A0 JUMP JUMPDEST ISZERO DUP1 ISZERO PUSH2 0xC41 JUMPI PUSH1 0x0 DUP1 PUSH2 0xC3E PUSH2 0x21DA JUMP JUMPDEST POP POP JUMPDEST POP GAS PUSH2 0xC4B PUSH2 0x22EC JUMP JUMPDEST POP POP POP POP POP ISZERO DUP1 ISZERO PUSH2 0xC6A JUMPI RETURNDATASIZE PUSH1 0x0 DUP1 RETURNDATACOPY RETURNDATASIZE PUSH1 0x0 PUSH2 0xC67 PUSH2 0x21DA JUMP JUMPDEST POP POP JUMPDEST POP POP POP POP PUSH1 0x40 MLOAD RETURNDATASIZE PUSH1 0x20 DUP2 LT ISZERO PUSH2 0xC89 JUMPI PUSH1 0x0 DUP1 PUSH2 0xC86 PUSH2 0x21DA JUMP JUMPDEST POP POP JUMPDEST DUP2 ADD SWAP1 DUP1 DUP1 MLOAD SWAP4 SWAP3 POP POP PUSH4 0xFFFFFFFF PUSH2 0x1A64 AND SWAP1 POP JUMP JUMPDEST PUSH1 0x0 DUP1 PUSH2 0x459 PUSH2 0x2245 JUMP JUMPDEST PUSH2 0xCB3 PUSH2 0x1A79 JUMP JUMPDEST PUSH1 0x1 PUSH1 0x1 PUSH1 0xA0 SHL SUB AND GAS PUSH2 0xCC5 PUSH2 0x244D JUMP JUMPDEST PUSH1 0x1 PUSH1 0x1 PUSH1 0xA0 SHL SUB AND EQ PUSH2 0xD13 JUMPI PUSH1 0x40 MLOAD PUSH3 0x461BCD PUSH1 0xE5 SHL DUP2 MSTORE PUSH1 0x4 ADD DUP1 DUP1 PUSH1 0x20 ADD DUP3 DUP2 SUB DUP3 MSTORE PUSH1 0x3E DUP2 MSTORE PUSH1 0x20 ADD DUP1 PUSH2 0x2673 PUSH1 0x3E SWAP2 CODECOPY PUSH1 0x40 ADD SWAP2 POP POP PUSH1 0x40 MLOAD DUP1 SWAP2 SUB SWAP1 PUSH2 0xD10 PUSH2 0x21DA JUMP JUMPDEST POP POP JUMPDEST PUSH2 0xD1B PUSH2 0x23F3 JUMP JUMPDEST PUSH2 0xD24 DUP3 PUSH2 0x1963 JUMP JUMPDEST SWAP1 POP PUSH1 0x0 DUP2 MLOAD GT ISZERO PUSH2 0x823 JUMPI PUSH2 0x823 DUP3 PUSH2 0x1ABA JUMP JUMPDEST PUSH1 0x0 PUSH2 0x626 PUSH2 0x1C5A JUMP JUMPDEST PUSH2 0xD4B PUSH2 0x2493 JUMP JUMPDEST PUSH1 0x0 JUMPDEST PUSH1 0x4 DUP1 PUSH2 0xD59 PUSH2 0x2245 JUMP JUMPDEST SWAP1 POP DUP2 LT ISZERO PUSH2 0xDA1 JUMPI PUSH1 0x4 DUP2 DUP2 PUSH2 0xD6E PUSH2 0x2245 JUMP JUMPDEST DUP2 LT PUSH2 0xD76 JUMPI INVALID JUMPDEST SWAP1 PUSH1 0x0 MSTORE PUSH1 0x20 PUSH1 0x0 KECCAK256 ADD PUSH2 0xD88 PUSH2 0x2245 JUMP JUMPDEST DUP3 DUP3 PUSH1 0x18 DUP2 LT PUSH2 0xD94 JUMPI INVALID JUMPDEST PUSH1 0x20 MUL ADD MSTORE PUSH1 0x1 ADD PUSH2 0xD4E JUMP JUMPDEST POP SWAP1 JUMP JUMPDEST PUSH3 0xA69CB PUSH1 0xEB SHL PUSH2 0xDB4 PUSH2 0x1CCF JUMP JUMPDEST PUSH1 0x1 PUSH1 0x1 PUSH1 0xA0 SHL SUB AND PUSH4 0x2528F0FE DUP3 PUSH1 0x40 MLOAD PUSH1 0x1 PUSH1 0x1 PUSH1 0xE0 SHL SUB NOT PUSH1 0xE0 DUP5 SWAP1 SHL AND DUP2 MSTORE PUSH1 0x4 DUP2 ADD SWAP2 SWAP1 SWAP2 MSTORE PUSH1 0x24 ADD PUSH1 0x20 PUSH1 0x40 MLOAD DUP1 DUP4 SUB DUP2 DUP7 DUP1 PUSH2 0xDF5 PUSH2 0x22A0 JUMP JUMPDEST ISZERO DUP1 ISZERO PUSH2 0xE0A JUMPI PUSH1 0x0 DUP1 PUSH2 0xE07 PUSH2 0x21DA JUMP JUMPDEST POP POP JUMPDEST POP GAS PUSH2 0xE14 PUSH2 0x240A JUMP JUMPDEST POP POP POP POP POP ISZERO DUP1 ISZERO PUSH2 0xE33 JUMPI RETURNDATASIZE PUSH1 0x0 DUP1 RETURNDATACOPY RETURNDATASIZE PUSH1 0x0 PUSH2 0xE30 PUSH2 0x21DA JUMP JUMPDEST POP POP JUMPDEST POP POP POP POP PUSH1 0x40 MLOAD RETURNDATASIZE PUSH1 0x20 DUP2 LT ISZERO PUSH2 0xE52 JUMPI PUSH1 0x0 DUP1 PUSH2 0xE4F PUSH2 0x21DA JUMP JUMPDEST POP POP JUMPDEST DUP2 ADD SWAP1 DUP1 DUP1 MLOAD ISZERO SWAP3 POP PUSH2 0xEB7 SWAP2 POP POP JUMPI PUSH1 0x40 MLOAD PUSH3 0x461BCD PUSH1 0xE5 SHL DUP2 MSTORE PUSH1 0x20 PUSH1 0x4 DUP3 ADD MSTORE PUSH1 0x1B PUSH1 0x24 DUP3 ADD MSTORE PUSH32 0x5261746520696E76616C6964206F72206E6F7420612073796E74680000000000 PUSH1 0x44 DUP3 ADD MSTORE PUSH1 0x64 ADD PUSH1 0x40 MLOAD DUP1 SWAP2 SUB SWAP1 PUSH2 0xEB4 PUSH2 0x21DA JUMP JUMPDEST POP POP JUMPDEST PUSH2 0xEBF PUSH2 0x1D1E JUMP JUMPDEST PUSH1 0x1 PUSH1 0x1 PUSH1 0xA0 SHL SUB AND PUSH4 0x86DABD1 PUSH1 0x40 MLOAD DUP2 PUSH4 0xFFFFFFFF AND PUSH1 0xE0 SHL DUP2 MSTORE PUSH1 0x4 ADD PUSH1 0x0 PUSH1 0x40 MLOAD DUP1 DUP4 SUB DUP2 DUP7 DUP1 PUSH2 0xEF2 PUSH2 0x22A0 JUMP JUMPDEST ISZERO DUP1 ISZERO PUSH2 0xF07 JUMPI PUSH1 0x0 DUP1 PUSH2 0xF04 PUSH2 0x21DA JUMP JUMPDEST POP POP JUMPDEST POP GAS PUSH2 0xF11 PUSH2 0x240A JUMP JUMPDEST POP POP POP POP POP ISZERO DUP1 ISZERO PUSH2 0xF30 JUMPI RETURNDATASIZE PUSH1 0x0 DUP1 RETURNDATACOPY RETURNDATASIZE PUSH1 0x0 PUSH2 0xF2D PUSH2 0x21DA JUMP JUMPDEST POP POP JUMPDEST POP POP POP POP PUSH2 0xF3C PUSH2 0x23F3 JUMP JUMPDEST PUSH2 0xF45 DUP4 PUSH2 0x1963 JUMP JUMPDEST SWAP1 POP PUSH1 0x0 DUP2 MLOAD GT PUSH2 0xFA5 JUMPI PUSH1 0x40 MLOAD PUSH3 0x461BCD PUSH1 0xE5 SHL DUP2 MSTORE PUSH1 0x20 PUSH1 0x4 DUP3 ADD MSTORE PUSH1 0x1E PUSH1 0x24 DUP3 ADD MSTORE PUSH32 0x4163636F756E7420686173206E6F206C69717569646174696F6E207365740000 PUSH1 0x44 DUP3 ADD MSTORE PUSH1 0x64 ADD PUSH1 0x40 MLOAD DUP1 SWAP2 SUB SWAP1 PUSH2 0xFA2 PUSH2 0x21DA JUMP JUMPDEST POP POP JUMPDEST PUSH1 0x0 PUSH2 0xFAF PUSH2 0x1D6C JUMP JUMPDEST PUSH1 0x1 PUSH1 0x1 PUSH1 0xA0 SHL SUB AND PUSH4 0xA311C7C2 DUP6 PUSH1 0x40 MLOAD PUSH1 0x1 PUSH1 0x1 PUSH1 0xE0 SHL SUB NOT PUSH1 0xE0 DUP5 SWAP1 SHL AND DUP2 MSTORE PUSH1 0x1 PUSH1 0x1 PUSH1 0xA0 SHL SUB SWAP1 SWAP2 AND PUSH1 0x4 DUP3 ADD MSTORE PUSH1 0x24 ADD PUSH1 0x20 PUSH1 0x40 MLOAD DUP1 DUP4 SUB DUP2 DUP7 DUP1 PUSH2 0xFF8 PUSH2 0x22A0 JUMP JUMPDEST ISZERO DUP1 ISZERO PUSH2 0x100D JUMPI PUSH1 0x0 DUP1 PUSH2 0x100A PUSH2 0x21DA JUMP JUMPDEST POP POP JUMPDEST POP GAS PUSH2 0x1017 PUSH2 0x240A JUMP JUMPDEST POP POP POP POP POP ISZERO DUP1 ISZERO PUSH2 0x1036 JUMPI RETURNDATASIZE PUSH1 0x0 DUP1 RETURNDATACOPY RETURNDATASIZE PUSH1 0x0 PUSH2 0x1033 PUSH2 0x21DA JUMP JUMPDEST POP POP JUMPDEST POP POP POP POP PUSH1 0x40 MLOAD RETURNDATASIZE PUSH1 0x20 DUP2 LT ISZERO PUSH2 0x1055 JUMPI PUSH1 0x0 DUP1 PUSH2 0x1052 PUSH2 0x21DA JUMP JUMPDEST POP POP JUMPDEST DUP2 ADD SWAP1 DUP1 DUP1 MLOAD SWAP4 POP PUSH2 0x106A SWAP3 POP PUSH2 0x15FE SWAP2 POP POP JUMP JUMPDEST DUP2 GT PUSH2 0x1079 JUMPI PUSH2 0x1079 DUP5 PUSH2 0x1ABA JUMP JUMPDEST POP POP POP POP JUMP JUMPDEST PUSH1 0x0 PUSH2 0x626 PUSH2 0x15FE JUMP JUMPDEST PUSH1 0x0 DUP1 PUSH2 0x1094 PUSH2 0x1D6C JUMP JUMPDEST PUSH1 0x1 PUSH1 0x1 PUSH1 0xA0 SHL SUB AND PUSH4 0xA311C7C2 DUP5 PUSH1 0x40 MLOAD PUSH1 0x1 PUSH1 0x1 PUSH1 0xE0 SHL SUB NOT PUSH1 0xE0 DUP5 SWAP1 SHL AND DUP2 MSTORE PUSH1 0x1 PUSH1 0x1 PUSH1 0xA0 SHL SUB SWAP1 SWAP2 AND PUSH1 0x4 DUP3 ADD MSTORE PUSH1 0x24 ADD PUSH1 0x20 PUSH1 0x40 MLOAD DUP1 DUP4 SUB DUP2 DUP7 DUP1 PUSH2 0x10DD PUSH2 0x22A0 JUMP JUMPDEST ISZERO DUP1 ISZERO PUSH2 0x10F2 JUMPI PUSH1 0x0 DUP1 PUSH2 0x10EF PUSH2 0x21DA JUMP JUMPDEST POP POP JUMPDEST POP GAS PUSH2 0x10FC PUSH2 0x240A JUMP JUMPDEST POP POP POP POP POP ISZERO DUP1 ISZERO PUSH2 0x111B JUMPI RETURNDATASIZE PUSH1 0x0 DUP1 RETURNDATACOPY RETURNDATASIZE PUSH1 0x0 PUSH2 0x1118 PUSH2 0x21DA JUMP JUMPDEST POP POP JUMPDEST POP POP POP POP PUSH1 0x40 MLOAD RETURNDATASIZE PUSH1 0x20 DUP2 LT ISZERO PUSH2 0x113A JUMPI PUSH1 0x0 DUP1 PUSH2 0x1137 PUSH2 0x21DA JUMP JUMPDEST POP POP JUMPDEST DUP2 ADD SWAP1 DUP1 DUP1 MLOAD SWAP4 POP PUSH2 0x114F SWAP3 POP PUSH2 0x15FE SWAP2 POP POP JUMP JUMPDEST DUP2 GT PUSH2 0x115F JUMPI PUSH1 0x0 SWAP2 POP POP PUSH2 0x658 JUMP JUMPDEST PUSH2 0x1167 PUSH2 0x23F3 JUMP JUMPDEST PUSH2 0x1170 DUP5 PUSH2 0x1963 JUMP JUMPDEST SWAP1 POP PUSH2 0x117C DUP2 MLOAD PUSH2 0x1A47 JUMP JUMPDEST ISZERO PUSH2 0x118C JUMPI PUSH1 0x1 SWAP3 POP POP POP PUSH2 0x658 JUMP JUMPDEST POP PUSH1 0x0 SWAP4 SWAP3 POP POP POP JUMP JUMPDEST PUSH1 0x4 DUP2 DUP2 PUSH2 0x11A2 PUSH2 0x2245 JUMP JUMPDEST DUP2 LT PUSH2 0x11AA JUMPI INVALID JUMPDEST SWAP1 PUSH1 0x0 MSTORE PUSH1 0x20 PUSH1 0x0 KECCAK256 ADD SWAP1 POP PUSH2 0x11BE PUSH2 0x2245 JUMP JUMPDEST DUP2 JUMP JUMPDEST PUSH3 0xA69CB PUSH1 0xEB SHL PUSH2 0x11D0 PUSH2 0x1CCF JUMP JUMPDEST PUSH1 0x1 PUSH1 0x1 PUSH1 0xA0 SHL SUB AND PUSH4 0x2528F0FE DUP3 PUSH1 0x40 MLOAD PUSH1 0x1 PUSH1 0x1 PUSH1 0xE0 SHL SUB NOT PUSH1 0xE0 DUP5 SWAP1 SHL AND DUP2 MSTORE PUSH1 0x4 DUP2 ADD SWAP2 SWAP1 SWAP2 MSTORE PUSH1 0x24 ADD PUSH1 0x20 PUSH1 0x40 MLOAD DUP1 DUP4 SUB DUP2 DUP7 DUP1 PUSH2 0x1211 PUSH2 0x22A0 JUMP JUMPDEST ISZERO DUP1 ISZERO PUSH2 0x1226 JUMPI PUSH1 0x0 DUP1 PUSH2 0x1223 PUSH2 0x21DA JUMP JUMPDEST POP POP JUMPDEST POP GAS PUSH2 0x1230 PUSH2 0x240A JUMP JUMPDEST POP POP POP POP POP ISZERO DUP1 ISZERO PUSH2 0x124F JUMPI RETURNDATASIZE PUSH1 0x0 DUP1 RETURNDATACOPY RETURNDATASIZE PUSH1 0x0 PUSH2 0x124C PUSH2 0x21DA JUMP JUMPDEST POP POP JUMPDEST POP POP POP POP PUSH1 0x40 MLOAD RETURNDATASIZE PUSH1 0x20 DUP2 LT ISZERO PUSH2 0x126E JUMPI PUSH1 0x0 DUP1 PUSH2 0x126B PUSH2 0x21DA JUMP JUMPDEST POP POP JUMPDEST DUP2 ADD SWAP1 DUP1 DUP1 MLOAD ISZERO SWAP3 POP PUSH2 0x12D3 SWAP2 POP POP JUMPI PUSH1 0x40 MLOAD PUSH3 0x461BCD PUSH1 0xE5 SHL DUP2 MSTORE PUSH1 0x20 PUSH1 0x4 DUP3 ADD MSTORE PUSH1 0x1B PUSH1 0x24 DUP3 ADD MSTORE PUSH32 0x5261746520696E76616C6964206F72206E6F7420612073796E74680000000000 PUSH1 0x44 DUP3 ADD MSTORE PUSH1 0x64 ADD PUSH1 0x40 MLOAD DUP1 SWAP2 SUB SWAP1 PUSH2 0x12D0 PUSH2 0x21DA JUMP JUMPDEST POP POP JUMPDEST PUSH2 0x12DB PUSH2 0x1D1E JUMP JUMPDEST PUSH1 0x1 PUSH1 0x1 PUSH1 0xA0 SHL SUB AND PUSH4 0x86DABD1 PUSH1 0x40 MLOAD DUP2 PUSH4 0xFFFFFFFF AND PUSH1 0xE0 SHL DUP2 MSTORE PUSH1 0x4 ADD PUSH1 0x0 PUSH1 0x40 MLOAD DUP1 DUP4 SUB DUP2 DUP7 DUP1 PUSH2 0x130E PUSH2 0x22A0 JUMP JUMPDEST ISZERO DUP1 ISZERO PUSH2 0x1323 JUMPI PUSH1 0x0 DUP1 PUSH2 0x1320 PUSH2 0x21DA JUMP JUMPDEST POP POP JUMPDEST POP GAS PUSH2 0x132D PUSH2 0x240A JUMP JUMPDEST POP POP POP POP POP ISZERO DUP1 ISZERO PUSH2 0x134C JUMPI RETURNDATASIZE PUSH1 0x0 DUP1 RETURNDATACOPY RETURNDATASIZE PUSH1 0x0 PUSH2 0x1349 PUSH2 0x21DA JUMP JUMPDEST POP POP JUMPDEST POP POP POP POP PUSH1 0x0 PUSH2 0x135A PUSH2 0x18EE JUMP JUMPDEST GT PUSH2 0x13B4 JUMPI PUSH1 0x40 MLOAD PUSH3 0x461BCD PUSH1 0xE5 SHL DUP2 MSTORE PUSH1 0x20 PUSH1 0x4 DUP3 ADD MSTORE PUSH1 0x19 PUSH1 0x24 DUP3 ADD MSTORE PUSH32 0x4C69717569646174696F6E20726174696F206E6F742073657400000000000000 PUSH1 0x44 DUP3 ADD MSTORE PUSH1 0x64 ADD PUSH1 0x40 MLOAD DUP1 SWAP2 SUB SWAP1 PUSH2 0x13B1 PUSH2 0x21DA JUMP JUMPDEST POP POP JUMPDEST PUSH1 0x0 PUSH2 0x13BE PUSH2 0x1C5A JUMP JUMPDEST GT PUSH2 0x1418 JUMPI PUSH1 0x40 MLOAD PUSH3 0x461BCD PUSH1 0xE5 SHL DUP2 MSTORE PUSH1 0x20 PUSH1 0x4 DUP3 ADD MSTORE PUSH1 0x19 PUSH1 0x24 DUP3 ADD MSTORE PUSH32 0x4C69717569646174696F6E2064656C6179206E6F742073657400000000000000 PUSH1 0x44 DUP3 ADD MSTORE PUSH1 0x64 ADD PUSH1 0x40 MLOAD DUP1 SWAP2 SUB SWAP1 PUSH2 0x1415 PUSH2 0x21DA JUMP JUMPDEST POP POP JUMPDEST PUSH2 0x1420 PUSH2 0x23F3 JUMP JUMPDEST PUSH2 0x1429 DUP4 PUSH2 0x1963 JUMP JUMPDEST SWAP1 POP DUP1 MLOAD ISZERO PUSH2 0x1472 JUMPI PUSH1 0x40 MLOAD PUSH3 0x461BCD PUSH1 0xE5 SHL DUP2 MSTORE PUSH1 0x4 ADD DUP1 DUP1 PUSH1 0x20 ADD DUP3 DUP2 SUB DUP3 MSTORE PUSH1 0x27 DUP2 MSTORE PUSH1 0x20 ADD DUP1 PUSH2 0x26D2 PUSH1 0x27 SWAP2 CODECOPY PUSH1 0x40 ADD SWAP2 POP POP PUSH1 0x40 MLOAD DUP1 SWAP2 SUB SWAP1 PUSH2 0x146F PUSH2 0x21DA JUMP JUMPDEST POP POP JUMPDEST PUSH1 0x0 PUSH2 0x147C PUSH2 0x1D6C JUMP JUMPDEST PUSH1 0x1 PUSH1 0x1 PUSH1 0xA0 SHL SUB AND PUSH4 0xA311C7C2 DUP6 PUSH1 0x40 MLOAD PUSH1 0x1 PUSH1 0x1 PUSH1 0xE0 SHL SUB NOT PUSH1 0xE0 DUP5 SWAP1 SHL AND DUP2 MSTORE PUSH1 0x1 PUSH1 0x1 PUSH1 0xA0 SHL SUB SWAP1 SWAP2 AND PUSH1 0x4 DUP3 ADD MSTORE PUSH1 0x24 ADD PUSH1 0x20 PUSH1 0x40 MLOAD DUP1 DUP4 SUB DUP2 DUP7 DUP1 PUSH2 0x14C5 PUSH2 0x22A0 JUMP JUMPDEST ISZERO DUP1 ISZERO PUSH2 0x14DA JUMPI PUSH1 0x0 DUP1 PUSH2 0x14D7 PUSH2 0x21DA JUMP JUMPDEST POP POP JUMPDEST POP GAS PUSH2 0x14E4 PUSH2 0x240A JUMP JUMPDEST POP POP POP POP POP ISZERO DUP1 ISZERO PUSH2 0x1503 JUMPI RETURNDATASIZE PUSH1 0x0 DUP1 RETURNDATACOPY RETURNDATASIZE PUSH1 0x0 PUSH2 0x1500 PUSH2 0x21DA JUMP JUMPDEST POP POP JUMPDEST POP POP POP POP PUSH1 0x40 MLOAD RETURNDATASIZE PUSH1 0x20 DUP2 LT ISZERO PUSH2 0x1522 JUMPI PUSH1 0x0 DUP1 PUSH2 0x151F PUSH2 0x21DA JUMP JUMPDEST POP POP JUMPDEST DUP2 ADD SWAP1 DUP1 DUP1 MLOAD SWAP4 POP PUSH2 0x1537 SWAP3 POP PUSH2 0x18EE SWAP2 POP POP JUMP JUMPDEST DUP2 LT ISZERO PUSH2 0x157E JUMPI PUSH1 0x40 MLOAD PUSH3 0x461BCD PUSH1 0xE5 SHL DUP2 MSTORE PUSH1 0x4 ADD DUP1 DUP1 PUSH1 0x20 ADD DUP3 DUP2 SUB DUP3 MSTORE PUSH1 0x35 DUP2 MSTORE PUSH1 0x20 ADD DUP1 PUSH2 0x260F PUSH1 0x35 SWAP2 CODECOPY PUSH1 0x40 ADD SWAP2 POP POP PUSH1 0x40 MLOAD DUP1 SWAP2 SUB SWAP1 PUSH2 0x157B PUSH2 0x21DA JUMP JUMPDEST POP POP JUMPDEST PUSH1 0x0 PUSH2 0x15A0 PUSH2 0x158B PUSH2 0x1C5A JUMP JUMPDEST GAS PUSH2 0x1594 PUSH2 0x24B0 JUMP JUMPDEST SWAP1 PUSH4 0xFFFFFFFF PUSH2 0x17E1 AND JUMP JUMPDEST SWAP1 POP PUSH2 0x15B5 DUP6 DUP3 GAS PUSH2 0x15B0 PUSH2 0x244D JUMP JUMPDEST PUSH2 0x1DB7 JUMP JUMPDEST DUP5 PUSH1 0x1 PUSH1 0x1 PUSH1 0xA0 SHL SUB AND PUSH32 0xC77E4625DE0C70ADAF3BD1AABB5F22F9EAE8F565367C706FC209030C13857996 DUP3 PUSH1 0x40 MLOAD SWAP1 DUP2 MSTORE PUSH1 0x20 ADD PUSH1 0x40 MLOAD DUP1 SWAP2 SUB SWAP1 LOG2 POP POP POP POP POP JUMP JUMPDEST PUSH1 0x18 DUP2 JUMP JUMPDEST PUSH1 0x0 PUSH2 0x1608 PUSH2 0x1F29 JUMP JUMPDEST PUSH1 0x1 PUSH1 0x1 PUSH1 0xA0 SHL SUB AND PUSH4 0x23257C2B PUSH14 0x53797374656D53657474696E6773 PUSH1 0x90 SHL PUSH13 0x69737375616E6365526174696F PUSH1 0x98 SHL PUSH1 0x40 MLOAD PUSH1 0x1 PUSH1 0x1 PUSH1 0xE0 SHL SUB NOT PUSH1 0xE0 DUP6 SWAP1 SHL AND DUP2 MSTORE PUSH1 0x4 DUP2 ADD SWAP3 SWAP1 SWAP3 MSTORE PUSH1 0x24 DUP3 ADD MSTORE PUSH1 0x44 ADD PUSH1 0x20 PUSH1 0x40 MLOAD DUP1 DUP4 SUB DUP2 DUP7 DUP1 PUSH2 0x1670 PUSH2 0x22A0 JUMP JUMPDEST ISZERO DUP1 ISZERO PUSH2 0x1685 JUMPI PUSH1 0x0 DUP1 PUSH2 0x1682 PUSH2 0x21DA JUMP JUMPDEST POP POP JUMPDEST POP GAS PUSH2 0x168F PUSH2 0x240A JUMP JUMPDEST POP POP POP POP POP ISZERO DUP1 ISZERO PUSH2 0x16AE JUMPI RETURNDATASIZE PUSH1 0x0 DUP1 RETURNDATACOPY RETURNDATASIZE PUSH1 0x0 PUSH2 0x16AB PUSH2 0x21DA JUMP JUMPDEST POP POP JUMPDEST POP POP POP POP PUSH1 0x40 MLOAD RETURNDATASIZE PUSH1 0x20 DUP2 LT ISZERO PUSH2 0x16CD JUMPI PUSH1 0x0 DUP1 PUSH2 0x16CA PUSH2 0x21DA JUMP JUMPDEST POP POP JUMPDEST DUP2 ADD SWAP1 DUP1 DUP1 MLOAD SWAP4 POP POP POP POP SWAP1 JUMP JUMPDEST PUSH1 0x0 PUSH8 0xDE0B6B3A7640000 PUSH2 0x16F6 DUP5 DUP5 PUSH4 0xFFFFFFFF PUSH2 0x1F7A AND JUMP JUMPDEST DUP2 PUSH2 0x16FD JUMPI INVALID JUMPDEST DIV SWAP4 SWAP3 POP POP POP JUMP JUMPDEST PUSH1 0x0 DUP3 DUP3 GT ISZERO PUSH2 0x1764 JUMPI PUSH1 0x40 MLOAD PUSH3 0x461BCD PUSH1 0xE5 SHL DUP2 MSTORE PUSH1 0x20 PUSH1 0x4 DUP3 ADD MSTORE PUSH1 0x1E PUSH1 0x24 DUP3 ADD MSTORE PUSH32 0x536166654D6174683A207375627472616374696F6E206F766572666C6F770000 PUSH1 0x44 DUP3 ADD MSTORE PUSH1 0x64 ADD PUSH1 0x40 MLOAD DUP1 SWAP2 SUB SWAP1 PUSH2 0x1761 PUSH2 0x21DA JUMP JUMPDEST POP POP JUMPDEST POP SWAP1 SUB SWAP1 JUMP JUMPDEST PUSH1 0x0 PUSH2 0x1774 PUSH2 0x1F29 JUMP JUMPDEST PUSH1 0x1 PUSH1 0x1 PUSH1 0xA0 SHL SUB AND PUSH4 0x23257C2B PUSH14 0x53797374656D53657474696E6773 PUSH1 0x90 SHL PUSH18 0x6C69717569646174696F6E50656E616C7479 PUSH1 0x70 SHL PUSH1 0x40 MLOAD PUSH1 0x1 PUSH1 0x1 PUSH1 0xE0 SHL SUB NOT PUSH1 0xE0 DUP6 SWAP1 SHL AND DUP2 MSTORE PUSH1 0x4 DUP2 ADD SWAP3 SWAP1 SWAP3 MSTORE PUSH1 0x24 DUP3 ADD MSTORE PUSH1 0x44 ADD PUSH1 0x20 PUSH1 0x40 MLOAD DUP1 DUP4 SUB DUP2 DUP7 DUP1 PUSH2 0x1670 PUSH2 0x22A0 JUMP JUMPDEST PUSH1 0x0 DUP3 DUP3 ADD DUP4 DUP2 LT ISZERO PUSH2 0x1843 JUMPI PUSH1 0x40 MLOAD PUSH3 0x461BCD PUSH1 0xE5 SHL DUP2 MSTORE PUSH1 0x20 PUSH1 0x4 DUP3 ADD MSTORE PUSH1 0x1B PUSH1 0x24 DUP3 ADD MSTORE PUSH32 0x536166654D6174683A206164646974696F6E206F766572666C6F770000000000 PUSH1 0x44 DUP3 ADD MSTORE PUSH1 0x64 ADD PUSH1 0x40 MLOAD DUP1 SWAP2 SUB SWAP1 PUSH2 0x1840 PUSH2 0x21DA JUMP JUMPDEST POP POP JUMPDEST SWAP4 SWAP3 POP POP POP JUMP JUMPDEST PUSH1 0x0 PUSH2 0x1843 DUP3 PUSH2 0x1868 DUP6 PUSH8 0xDE0B6B3A7640000 PUSH4 0xFFFFFFFF PUSH2 0x1F7A AND JUMP JUMPDEST SWAP1 PUSH4 0xFFFFFFFF PUSH2 0x1FD9 AND JUMP JUMPDEST PUSH1 0x0 DUP1 PUSH2 0x187F PUSH2 0x2245 JUMP JUMPDEST SWAP1 PUSH2 0x100 EXP SWAP1 DIV PUSH1 0x1 PUSH1 0x1 PUSH1 0xA0 SHL SUB AND PUSH1 0x1 PUSH1 0x1 PUSH1 0xA0 SHL SUB AND GAS PUSH2 0x18A1 PUSH2 0x244D JUMP JUMPDEST PUSH1 0x1 PUSH1 0x1 PUSH1 0xA0 SHL SUB AND EQ PUSH2 0x18EC JUMPI PUSH1 0x40 MLOAD PUSH3 0x461BCD PUSH1 0xE5 SHL DUP2 MSTORE PUSH1 0x4 ADD DUP1 DUP1 PUSH1 0x20 ADD DUP3 DUP2 SUB DUP3 MSTORE PUSH1 0x2F DUP2 MSTORE PUSH1 0x20 ADD DUP1 PUSH2 0x2644 PUSH1 0x2F SWAP2 CODECOPY PUSH1 0x40 ADD SWAP2 POP POP PUSH1 0x40 MLOAD DUP1 SWAP2 SUB SWAP1 PUSH2 0x823 PUSH2 0x21DA JUMP JUMPDEST JUMP JUMPDEST PUSH1 0x0 PUSH2 0x18F8 PUSH2 0x1F29 JUMP JUMPDEST PUSH1 0x1 PUSH1 0x1 PUSH1 0xA0 SHL SUB AND PUSH4 0x23257C2B PUSH14 0x53797374656D53657474696E6773 PUSH1 0x90 SHL PUSH16 0x6C69717569646174696F6E526174696F PUSH1 0x80 SHL PUSH1 0x40 MLOAD PUSH1 0x1 PUSH1 0x1 PUSH1 0xE0 SHL SUB NOT PUSH1 0xE0 DUP6 SWAP1 SHL AND DUP2 MSTORE PUSH1 0x4 DUP2 ADD SWAP3 SWAP1 SWAP3 MSTORE PUSH1 0x24 DUP3 ADD MSTORE PUSH1 0x44 ADD PUSH1 0x20 PUSH1 0x40 MLOAD DUP1 DUP4 SUB DUP2 DUP7 DUP1 PUSH2 0x1670 PUSH2 0x22A0 JUMP JUMPDEST PUSH2 0x196B PUSH2 0x23F3 JUMP JUMPDEST PUSH2 0x1973 PUSH2 0x204B JUMP JUMPDEST PUSH1 0x1 PUSH1 0x1 PUSH1 0xA0 SHL SUB AND PUSH4 0xBDC963D8 PUSH2 0x19A1 PUSH19 0x4C69717569646174696F6E446561646C696E65 PUSH1 0x68 SHL DUP6 PUSH2 0x208D JUMP JUMPDEST PUSH1 0x40 MLOAD PUSH1 0x1 PUSH1 0x1 PUSH1 0xE0 SHL SUB NOT PUSH1 0xE0 DUP5 SWAP1 SHL AND DUP2 MSTORE PUSH1 0x4 DUP2 ADD SWAP2 SWAP1 SWAP2 MSTORE PUSH1 0x24 ADD PUSH1 0x20 PUSH1 0x40 MLOAD DUP1 DUP4 SUB DUP2 DUP7 DUP1 PUSH2 0x19D3 PUSH2 0x22A0 JUMP JUMPDEST ISZERO DUP1 ISZERO PUSH2 0x19E8 JUMPI PUSH1 0x0 DUP1 PUSH2 0x19E5 PUSH2 0x21DA JUMP JUMPDEST POP POP JUMPDEST POP GAS PUSH2 0x19F2 PUSH2 0x240A JUMP JUMPDEST POP POP POP POP POP ISZERO DUP1 ISZERO PUSH2 0x1A11 JUMPI RETURNDATASIZE PUSH1 0x0 DUP1 RETURNDATACOPY RETURNDATASIZE PUSH1 0x0 PUSH2 0x1A0E PUSH2 0x21DA JUMP JUMPDEST POP POP JUMPDEST POP POP POP POP PUSH1 0x40 MLOAD RETURNDATASIZE PUSH1 0x20 DUP2 LT ISZERO PUSH2 0x1A30 JUMPI PUSH1 0x0 DUP1 PUSH2 0x1A2D PUSH2 0x21DA JUMP JUMPDEST POP POP JUMPDEST DUP2 ADD SWAP1 DUP1 DUP1 MLOAD DUP5 MSTORE POP POP PUSH1 0x0 PUSH1 0x20 DUP4 ADD MSTORE POP SWAP2 SWAP1 POP JUMP JUMPDEST PUSH1 0x0 DUP1 DUP3 GT DUP1 ISZERO PUSH2 0x59C JUMPI POP DUP2 GAS PUSH2 0x1A5D PUSH2 0x24B0 JUMP JUMPDEST GT SWAP3 SWAP2 POP POP JUMP JUMPDEST PUSH1 0x0 PUSH2 0x1843 DUP4 DUP4 PUSH8 0xDE0B6B3A7640000 PUSH2 0x20DA JUMP JUMPDEST PUSH1 0x0 PUSH2 0x626 PUSH6 0x24B9B9BAB2B9 PUSH1 0xD1 SHL PUSH1 0x40 MLOAD PUSH1 0x40 DUP1 DUP3 ADD SWAP1 MSTORE PUSH1 0x16 DUP2 MSTORE PUSH22 0x4D697373696E67204973737565722061646472657373 PUSH1 0x50 SHL PUSH1 0x20 DUP3 ADD MSTORE PUSH2 0x2111 JUMP JUMPDEST PUSH2 0x1AC2 PUSH2 0x204B JUMP JUMPDEST PUSH1 0x1 PUSH1 0x1 PUSH1 0xA0 SHL SUB AND PUSH4 0x93FE4248 PUSH2 0x1AF0 PUSH19 0x4C69717569646174696F6E446561646C696E65 PUSH1 0x68 SHL DUP5 PUSH2 0x208D JUMP JUMPDEST PUSH1 0x40 MLOAD PUSH1 0x1 PUSH1 0x1 PUSH1 0xE0 SHL SUB NOT PUSH1 0xE0 DUP5 SWAP1 SHL AND DUP2 MSTORE PUSH1 0x4 DUP2 ADD SWAP2 SWAP1 SWAP2 MSTORE PUSH1 0x24 ADD PUSH1 0x0 PUSH1 0x40 MLOAD DUP1 DUP4 SUB DUP2 PUSH1 0x0 DUP8 DUP1 PUSH2 0x1B24 PUSH2 0x22A0 JUMP JUMPDEST ISZERO DUP1 ISZERO PUSH2 0x1B39 JUMPI PUSH1 0x0 DUP1 PUSH2 0x1B36 PUSH2 0x21DA JUMP JUMPDEST POP POP JUMPDEST POP GAS PUSH2 0x1B43 PUSH2 0x24F6 JUMP JUMPDEST POP POP POP POP POP POP ISZERO DUP1 ISZERO PUSH2 0x1B63 JUMPI RETURNDATASIZE PUSH1 0x0 DUP1 RETURNDATACOPY RETURNDATASIZE PUSH1 0x0 PUSH2 0x1B60 PUSH2 0x21DA JUMP JUMPDEST POP POP JUMPDEST POP POP POP POP PUSH2 0x1B6F PUSH2 0x204B JUMP JUMPDEST PUSH1 0x1 PUSH1 0x1 PUSH1 0xA0 SHL SUB AND PUSH4 0x43106C0 PUSH2 0x1B9B PUSH17 0x2634B8BAB4B230BA34B7B721B0B63632B9 PUSH1 0x79 SHL DUP5 PUSH2 0x208D JUMP JUMPDEST PUSH1 0x40 MLOAD PUSH1 0x1 PUSH1 0x1 PUSH1 0xE0 SHL SUB NOT PUSH1 0xE0 DUP5 SWAP1 SHL AND DUP2 MSTORE PUSH1 0x4 DUP2 ADD SWAP2 SWAP1 SWAP2 MSTORE PUSH1 0x24 ADD PUSH1 0x0 PUSH1 0x40 MLOAD DUP1 DUP4 SUB DUP2 PUSH1 0x0 DUP8 DUP1 PUSH2 0x1BCF PUSH2 0x22A0 JUMP JUMPDEST ISZERO DUP1 ISZERO PUSH2 0x1BE4 JUMPI PUSH1 0x0 DUP1 PUSH2 0x1BE1 PUSH2 0x21DA JUMP JUMPDEST POP POP JUMPDEST POP GAS PUSH2 0x1BEE PUSH2 0x24F6 JUMP JUMPDEST POP POP POP POP POP POP ISZERO DUP1 ISZERO PUSH2 0x1C0E JUMPI RETURNDATASIZE PUSH1 0x0 DUP1 RETURNDATACOPY RETURNDATASIZE PUSH1 0x0 PUSH2 0x1C0B PUSH2 0x21DA JUMP JUMPDEST POP POP JUMPDEST POP POP POP POP DUP1 PUSH1 0x1 PUSH1 0x1 PUSH1 0xA0 SHL SUB AND PUSH32 0x9B6AC8997B4F2EDD0A27C1BEB32F7C14D522E9C16F46E79DAA5A144016BD6C87 GAS PUSH2 0x1C46 PUSH2 0x24B0 JUMP JUMPDEST PUSH1 0x40 MLOAD SWAP1 DUP2 MSTORE PUSH1 0x20 ADD PUSH1 0x40 MLOAD DUP1 SWAP2 SUB SWAP1 LOG2 POP JUMP JUMPDEST PUSH1 0x0 PUSH2 0x1C64 PUSH2 0x1F29 JUMP JUMPDEST PUSH1 0x1 PUSH1 0x1 PUSH1 0xA0 SHL SUB AND PUSH4 0x23257C2B PUSH14 0x53797374656D53657474696E6773 PUSH1 0x90 SHL PUSH16 0x6C69717569646174696F6E44656C6179 PUSH1 0x80 SHL PUSH1 0x40 MLOAD PUSH1 0x1 PUSH1 0x1 PUSH1 0xE0 SHL SUB NOT PUSH1 0xE0 DUP6 SWAP1 SHL AND DUP2 MSTORE PUSH1 0x4 DUP2 ADD SWAP3 SWAP1 SWAP3 MSTORE PUSH1 0x24 DUP3 ADD MSTORE PUSH1 0x44 ADD PUSH1 0x20 PUSH1 0x40 MLOAD DUP1 DUP4 SUB DUP2 DUP7 DUP1 PUSH2 0x1670 PUSH2 0x22A0 JUMP JUMPDEST PUSH1 0x0 PUSH2 0x626 PUSH13 0x45786368616E67655261746573 PUSH1 0x98 SHL PUSH1 0x40 MLOAD PUSH1 0x40 DUP1 DUP3 ADD SWAP1 MSTORE PUSH1 0x1D DUP2 MSTORE PUSH32 0x4D697373696E672045786368616E676552617465732061646472657373000000 PUSH1 0x20 DUP3 ADD MSTORE PUSH2 0x2111 JUMP JUMPDEST PUSH1 0x0 PUSH2 0x626 PUSH12 0x53797374656D537461747573 PUSH1 0xA0 SHL PUSH1 0x40 MLOAD PUSH1 0x40 DUP1 DUP3 ADD SWAP1 MSTORE PUSH1 0x1C DUP2 MSTORE PUSH32 0x4D697373696E672053797374656D537461747573206164647265737300000000 PUSH1 0x20 DUP3 ADD MSTORE PUSH2 0x2111 JUMP JUMPDEST PUSH1 0x0 PUSH2 0x626 PUSH9 0xA6F2DCE8D0CAE8D2F PUSH1 0xBB SHL PUSH1 0x40 MLOAD PUSH1 0x40 DUP1 DUP3 ADD SWAP1 MSTORE PUSH1 0x19 DUP2 MSTORE PUSH32 0x4D697373696E672053796E746865746978206164647265737300000000000000 PUSH1 0x20 DUP3 ADD MSTORE PUSH2 0x2111 JUMP JUMPDEST PUSH2 0x1DBF PUSH2 0x204B JUMP JUMPDEST PUSH1 0x1 PUSH1 0x1 PUSH1 0xA0 SHL SUB AND PUSH4 0x3562FD20 PUSH2 0x1DED PUSH19 0x4C69717569646174696F6E446561646C696E65 PUSH1 0x68 SHL DUP7 PUSH2 0x208D JUMP JUMPDEST DUP5 PUSH1 0x40 MLOAD PUSH1 0x1 PUSH1 0x1 PUSH1 0xE0 SHL SUB NOT PUSH1 0xE0 DUP6 SWAP1 SHL AND DUP2 MSTORE PUSH1 0x4 DUP2 ADD SWAP3 SWAP1 SWAP3 MSTORE PUSH1 0x24 DUP3 ADD MSTORE PUSH1 0x44 ADD PUSH1 0x0 PUSH1 0x40 MLOAD DUP1 DUP4 SUB DUP2 PUSH1 0x0 DUP8 DUP1 PUSH2 0x1E27 PUSH2 0x22A0 JUMP JUMPDEST ISZERO DUP1 ISZERO PUSH2 0x1E3C JUMPI PUSH1 0x0 DUP1 PUSH2 0x1E39 PUSH2 0x21DA JUMP JUMPDEST POP POP JUMPDEST POP GAS PUSH2 0x1E46 PUSH2 0x24F6 JUMP JUMPDEST POP POP POP POP POP POP ISZERO DUP1 ISZERO PUSH2 0x1E66 JUMPI RETURNDATASIZE PUSH1 0x0 DUP1 RETURNDATACOPY RETURNDATASIZE PUSH1 0x0 PUSH2 0x1E63 PUSH2 0x21DA JUMP JUMPDEST POP POP JUMPDEST POP POP POP POP PUSH2 0x1E72 PUSH2 0x204B JUMP JUMPDEST PUSH1 0x1 PUSH1 0x1 PUSH1 0xA0 SHL SUB AND PUSH4 0x5A2BF25A PUSH2 0x1E9E PUSH17 0x2634B8BAB4B230BA34B7B721B0B63632B9 PUSH1 0x79 SHL DUP7 PUSH2 0x208D JUMP JUMPDEST DUP4 PUSH1 0x40 MLOAD PUSH1 0x1 PUSH1 0x1 PUSH1 0xE0 SHL SUB NOT PUSH1 0xE0 DUP6 SWAP1 SHL AND DUP2 MSTORE PUSH1 0x4 DUP2 ADD SWAP3 SWAP1 SWAP3 MSTORE PUSH1 0x1 PUSH1 0x1 PUSH1 0xA0 SHL SUB AND PUSH1 0x24 DUP3 ADD MSTORE PUSH1 0x44 ADD PUSH1 0x0 PUSH1 0x40 MLOAD DUP1 DUP4 SUB DUP2 PUSH1 0x0 DUP8 DUP1 PUSH2 0x1EE1 PUSH2 0x22A0 JUMP JUMPDEST ISZERO DUP1 ISZERO PUSH2 0x1EF6 JUMPI PUSH1 0x0 DUP1 PUSH2 0x1EF3 PUSH2 0x21DA JUMP JUMPDEST POP POP JUMPDEST POP GAS PUSH2 0x1F00 PUSH2 0x24F6 JUMP JUMPDEST POP POP POP POP POP POP ISZERO DUP1 ISZERO PUSH2 0x1F20 JUMPI RETURNDATASIZE PUSH1 0x0 DUP1 RETURNDATACOPY RETURNDATASIZE PUSH1 0x0 PUSH2 0x1F1D PUSH2 0x21DA JUMP JUMPDEST POP POP JUMPDEST POP POP POP POP POP POP POP JUMP JUMPDEST PUSH1 0x0 PUSH2 0x626 PUSH15 0x466C657869626C6553746F72616765 PUSH1 0x88 SHL PUSH1 0x40 MLOAD PUSH1 0x40 DUP1 DUP3 ADD SWAP1 MSTORE PUSH1 0x1F DUP2 MSTORE PUSH32 0x4D697373696E6720466C657869626C6553746F72616765206164647265737300 PUSH1 0x20 DUP3 ADD MSTORE PUSH2 0x2111 JUMP JUMPDEST PUSH1 0x0 DUP3 PUSH2 0x1F89 JUMPI POP PUSH1 0x0 PUSH2 0x59C JUMP JUMPDEST DUP3 DUP3 MUL DUP3 DUP5 DUP3 DUP2 PUSH2 0x1F96 JUMPI INVALID JUMPDEST DIV EQ PUSH2 0x1843 JUMPI PUSH1 0x40 MLOAD PUSH3 0x461BCD PUSH1 0xE5 SHL DUP2 MSTORE PUSH1 0x4 ADD DUP1 DUP1 PUSH1 0x20 ADD DUP3 DUP2 SUB DUP3 MSTORE PUSH1 0x21 DUP2 MSTORE PUSH1 0x20 ADD DUP1 PUSH2 0x26B1 PUSH1 0x21 SWAP2 CODECOPY PUSH1 0x40 ADD SWAP2 POP POP PUSH1 0x40 MLOAD DUP1 SWAP2 SUB SWAP1 PUSH2 0x1840 PUSH2 0x21DA JUMP JUMPDEST PUSH1 0x0 DUP1 DUP3 GT PUSH2 0x2037 JUMPI PUSH1 0x40 MLOAD PUSH3 0x461BCD PUSH1 0xE5 SHL DUP2 MSTORE PUSH1 0x20 PUSH1 0x4 DUP3 ADD MSTORE PUSH1 0x1A PUSH1 0x24 DUP3 ADD MSTORE PUSH32 0x536166654D6174683A206469766973696F6E206279207A65726F000000000000 PUSH1 0x44 DUP3 ADD MSTORE PUSH1 0x64 ADD PUSH1 0x40 MLOAD DUP1 SWAP2 SUB SWAP1 PUSH2 0x2034 PUSH2 0x21DA JUMP JUMPDEST POP POP JUMPDEST PUSH1 0x0 DUP3 DUP5 DUP2 PUSH2 0x2042 JUMPI INVALID JUMPDEST DIV SWAP5 SWAP4 POP POP POP POP JUMP JUMPDEST PUSH1 0x0 PUSH2 0x626 PUSH32 0x457465726E616C53746F726167654C69717569646174696F6E73000000000000 PUSH1 0x40 MLOAD PUSH1 0x60 DUP2 ADD PUSH1 0x40 MSTORE PUSH1 0x2A DUP1 DUP3 MSTORE PUSH2 0x25E5 PUSH1 0x20 DUP4 ADD CODECOPY PUSH2 0x2111 JUMP JUMPDEST PUSH1 0x0 DUP3 DUP3 PUSH1 0x40 MLOAD PUSH1 0x20 ADD DUP1 DUP4 DUP2 MSTORE PUSH1 0x20 ADD DUP3 PUSH1 0x1 PUSH1 0x1 PUSH1 0xA0 SHL SUB AND PUSH1 0x1 PUSH1 0x1 PUSH1 0xA0 SHL SUB AND PUSH1 0x60 SHL DUP2 MSTORE PUSH1 0x14 ADD SWAP3 POP POP POP PUSH1 0x40 MLOAD PUSH1 0x20 DUP2 DUP4 SUB SUB DUP2 MSTORE SWAP1 PUSH1 0x40 MSTORE DUP1 MLOAD SWAP1 PUSH1 0x20 ADD KECCAK256 SWAP4 SWAP3 POP POP POP JUMP JUMPDEST PUSH1 0x0 DUP1 PUSH2 0x20F4 DUP5 PUSH2 0x1868 DUP8 PUSH1 0xA DUP8 MUL PUSH4 0xFFFFFFFF PUSH2 0x1F7A AND JUMP JUMPDEST SWAP1 POP PUSH1 0x5 PUSH1 0xA DUP3 MOD LT PUSH2 0x2105 JUMPI PUSH1 0xA ADD JUMPDEST PUSH1 0xA SWAP1 DIV SWAP5 SWAP4 POP POP POP POP JUMP JUMPDEST PUSH1 0x0 DUP3 DUP2 MSTORE PUSH1 0x3 PUSH1 0x20 MSTORE DUP1 PUSH1 0x40 DUP2 KECCAK256 PUSH1 0x0 SWAP1 PUSH2 0x212B PUSH2 0x2245 JUMP JUMPDEST PUSH1 0x1 PUSH1 0x1 PUSH1 0xA0 SHL SUB PUSH2 0x100 SWAP3 SWAP1 SWAP3 EXP SWAP1 DIV AND SWAP1 POP DUP3 DUP2 PUSH2 0x21D2 JUMPI PUSH1 0x40 MLOAD PUSH3 0x461BCD PUSH1 0xE5 SHL DUP2 MSTORE PUSH1 0x4 ADD DUP1 DUP1 PUSH1 0x20 ADD DUP3 DUP2 SUB DUP3 MSTORE DUP4 DUP2 DUP2 MLOAD DUP2 MSTORE PUSH1 0x20 ADD SWAP2 POP DUP1 MLOAD SWAP1 PUSH1 0x20 ADD SWAP1 DUP1 DUP4 DUP4 PUSH1 0x0 JUMPDEST DUP4 DUP2 LT ISZERO PUSH2 0x218E JUMPI DUP1 DUP3 ADD MLOAD DUP4 DUP3 ADD MSTORE PUSH1 0x20 ADD PUSH2 0x2176 JUMP JUMPDEST POP POP POP POP SWAP1 POP SWAP1 DUP2 ADD SWAP1 PUSH1 0x1F AND DUP1 ISZERO PUSH2 0x21BB JUMPI DUP1 DUP3 SUB DUP1 MLOAD PUSH1 0x1 DUP4 PUSH1 0x20 SUB PUSH2 0x100 EXP SUB NOT AND DUP2 MSTORE PUSH1 0x20 ADD SWAP2 POP JUMPDEST POP SWAP3 POP POP POP PUSH1 0x40 MLOAD DUP1 SWAP2 SUB SWAP1 PUSH2 0x21CF PUSH2 0x21DA JUMP JUMPDEST POP POP JUMPDEST POP SWAP4 SWAP3 POP POP POP JUMP JUMPDEST PUSH4 0x2A2A7ADB MSIZE DUP2 PUSH1 0xE0 SHL DUP2 MSTORE PUSH1 0x4 DUP2 ADD PUSH1 0x20 DUP2 MSTORE DUP6 PUSH1 0x20 DUP3 ADD MSTORE PUSH1 0x0 JUMPDEST DUP7 DUP2 LT ISZERO PUSH2 0x2212 JUMPI DUP1 DUP7 ADD MLOAD DUP3 DUP3 ADD PUSH1 0x40 ADD MSTORE PUSH1 0x20 ADD PUSH2 0x21F7 JUMP JUMPDEST POP PUSH1 0x20 DUP3 DUP8 PUSH1 0x64 ADD DUP5 CALLER PUSH1 0x0 SWAP1 GAS CALL PC PUSH1 0xE ADD JUMPI RETURNDATASIZE PUSH1 0x0 DUP1 RETURNDATACOPY RETURNDATASIZE PUSH1 0x0 REVERT JUMPDEST RETURNDATASIZE PUSH1 0x1 EQ ISZERO PC PUSH1 0xA ADD JUMPI PUSH1 0x1 PUSH1 0x0 RETURN JUMPDEST POP POP POP JUMP JUMPDEST PUSH4 0x3DAA959 MSIZE DUP2 PUSH1 0xE0 SHL DUP2 MSTORE DUP4 PUSH1 0x4 DUP3 ADD MSTORE PUSH1 0x20 DUP2 PUSH1 0x24 DUP4 CALLER PUSH1 0x0 SWAP1 GAS CALL PC PUSH1 0xE ADD JUMPI RETURNDATASIZE PUSH1 0x0 DUP1 RETURNDATACOPY RETURNDATASIZE PUSH1 0x0 REVERT JUMPDEST RETURNDATASIZE PUSH1 0x1 EQ ISZERO PC PUSH1 0xA ADD JUMPI PUSH1 0x1 PUSH1 0x0 RETURN JUMPDEST DUP1 MLOAD SWAP4 POP PUSH1 0x0 JUMPDEST PUSH1 0x40 DUP2 LT ISZERO PUSH2 0xBBD JUMPI PUSH1 0x0 DUP3 DUP3 ADD MSTORE PUSH1 0x20 ADD PUSH2 0x2289 JUMP JUMPDEST PUSH4 0x8435035B MSIZE DUP2 PUSH1 0xE0 SHL DUP2 MSTORE DUP4 PUSH1 0x4 DUP3 ADD MSTORE PUSH1 0x20 DUP2 PUSH1 0x24 DUP4 CALLER PUSH1 0x0 SWAP1 GAS CALL PC PUSH1 0xE ADD JUMPI RETURNDATASIZE PUSH1 0x0 DUP1 RETURNDATACOPY RETURNDATASIZE PUSH1 0x0 REVERT JUMPDEST RETURNDATASIZE PUSH1 0x1 EQ ISZERO PC PUSH1 0xA ADD JUMPI PUSH1 0x1 PUSH1 0x0 RETURN JUMPDEST DUP1 MLOAD PUSH1 0x0 DUP3 MSTORE SWAP4 POP PUSH1 0x20 PUSH2 0x2289 JUMP JUMPDEST PUSH4 0xFFE73914 MSIZE DUP2 PUSH1 0xE0 SHL DUP2 MSTORE DUP4 PUSH1 0x4 DUP3 ADD MSTORE DUP5 PUSH1 0x24 DUP3 ADD MSTORE PUSH1 0x60 PUSH1 0x44 DUP3 ADD MSTORE DUP7 PUSH1 0x64 DUP3 ADD MSTORE PUSH1 0x84 DUP2 ADD PUSH1 0x0 JUMPDEST DUP9 DUP2 LT ISZERO PUSH2 0x2330 JUMPI DUP1 DUP9 ADD MLOAD DUP3 DUP3 ADD MSTORE PUSH1 0x20 ADD PUSH2 0x2318 JUMP JUMPDEST POP DUP8 PUSH2 0x104 ADD DUP3 ADD PUSH1 0x60 DUP4 DUP11 PUSH2 0x104 ADD DUP6 CALLER PUSH1 0x0 SWAP1 GAS CALL PC PUSH1 0xE ADD JUMPI RETURNDATASIZE PUSH1 0x0 DUP1 RETURNDATACOPY RETURNDATASIZE PUSH1 0x0 REVERT JUMPDEST RETURNDATASIZE PUSH1 0x1 EQ ISZERO PC PUSH1 0xA ADD JUMPI PUSH1 0x1 PUSH1 0x0 RETURN JUMPDEST DUP3 MLOAD PUSH1 0x40 DUP5 ADD MLOAD RETURNDATASIZE PUSH1 0x0 DUP7 RETURNDATACOPY DUP13 DUP13 DUP3 PUSH1 0x60 DUP9 ADD CALLER POP PUSH1 0x0 PUSH1 0x4 GAS CALL POP MSIZE DUP6 JUMPDEST DUP2 DUP2 LT ISZERO PUSH2 0x2399 JUMPI PUSH1 0x0 DUP2 MSTORE PUSH1 0x20 ADD PUSH2 0x2385 JUMP JUMPDEST POP SWAP2 SWAP13 POP POP POP POP POP POP POP JUMP JUMPDEST PUSH4 0x22BD64C0 MSIZE DUP2 PUSH1 0xE0 SHL DUP2 MSTORE DUP4 PUSH1 0x4 DUP3 ADD MSTORE DUP5 PUSH1 0x24 DUP3 ADD MSTORE PUSH1 0x0 DUP2 PUSH1 0x44 DUP4 CALLER PUSH1 0x0 SWAP1 GAS CALL PC PUSH1 0xE ADD JUMPI RETURNDATASIZE PUSH1 0x0 DUP1 RETURNDATACOPY RETURNDATASIZE PUSH1 0x0 REVERT JUMPDEST RETURNDATASIZE PUSH1 0x1 EQ ISZERO PC PUSH1 0xA ADD JUMPI PUSH1 0x1 PUSH1 0x0 RETURN JUMPDEST PUSH1 0x0 DUP2 MSTORE PUSH1 0x20 PUSH2 0x2289 JUMP JUMPDEST PUSH1 0x40 MLOAD PUSH1 0x40 DUP1 DUP3 ADD SWAP1 MSTORE PUSH1 0x0 DUP1 DUP3 MSTORE PUSH1 0x20 DUP3 ADD MSTORE SWAP1 JUMP JUMPDEST PUSH4 0x8540661F MSIZE DUP2 PUSH1 0xE0 SHL DUP2 MSTORE DUP4 PUSH1 0x4 DUP3 ADD MSTORE DUP5 PUSH1 0x24 DUP3 ADD MSTORE PUSH1 0x60 PUSH1 0x44 DUP3 ADD MSTORE DUP7 PUSH1 0x64 DUP3 ADD MSTORE PUSH1 0x84 DUP2 ADD PUSH1 0x0 DUP9 DUP2 LT ISZERO PUSH2 0x2330 JUMPI DUP1 DUP9 ADD MLOAD DUP3 DUP3 ADD MSTORE PUSH1 0x20 ADD PUSH2 0x2318 JUMP JUMPDEST PUSH4 0x73509064 MSIZE DUP2 PUSH1 0xE0 SHL DUP2 MSTORE PUSH1 0x20 DUP2 PUSH1 0x4 DUP4 CALLER PUSH1 0x0 SWAP1 GAS CALL PC PUSH1 0xE ADD JUMPI RETURNDATASIZE PUSH1 0x0 DUP1 RETURNDATACOPY RETURNDATASIZE PUSH1 0x0 REVERT JUMPDEST RETURNDATASIZE PUSH1 0x1 EQ ISZERO PC PUSH1 0xA ADD JUMPI PUSH1 0x1 PUSH1 0x0 RETURN JUMPDEST DUP1 MLOAD PUSH1 0x0 DUP3 MSTORE SWAP4 POP PUSH1 0x20 PUSH2 0x2289 JUMP JUMPDEST PUSH1 0x40 MLOAD PUSH2 0x300 DUP1 DUP3 ADD PUSH1 0x40 MSTORE PUSH1 0x18 SWAP1 DUP3 SWAP1 DUP1 CODESIZE DUP4 CODECOPY POP SWAP2 SWAP3 SWAP2 POP POP JUMP JUMPDEST PUSH4 0xBDBF8C36 MSIZE DUP2 PUSH1 0xE0 SHL DUP2 MSTORE PUSH1 0x20 DUP2 PUSH1 0x4 DUP4 CALLER PUSH1 0x0 SWAP1 GAS CALL PC PUSH1 0xE ADD JUMPI RETURNDATASIZE PUSH1 0x0 DUP1 RETURNDATACOPY RETURNDATASIZE PUSH1 0x0 REVERT JUMPDEST RETURNDATASIZE PUSH1 0x1 EQ ISZERO PC PUSH1 0xA ADD JUMPI PUSH1 0x1 PUSH1 0x0 RETURN JUMPDEST DUP1 MLOAD PUSH1 0x0 DUP3 MSTORE SWAP4 POP PUSH1 0x20 PUSH2 0x2289 JUMP JUMPDEST PUSH4 0x85979F76 MSIZE DUP2 PUSH1 0xE0 SHL DUP2 MSTORE DUP4 PUSH1 0x4 DUP3 ADD MSTORE DUP5 PUSH1 0x24 DUP3 ADD MSTORE PUSH1 0x60 PUSH1 0x44 DUP3 ADD MSTORE DUP8 PUSH1 0x64 DUP3 ADD MSTORE PUSH1 0x84 DUP2 ADD PUSH1 0x0 JUMPDEST DUP10 DUP2 LT ISZERO PUSH2 0x253A JUMPI DUP1 DUP10 ADD MLOAD DUP3 DUP3 ADD MSTORE PUSH1 0x20 ADD PUSH2 0x2522 JUMP JUMPDEST POP DUP9 PUSH2 0x104 ADD DUP3 ADD PUSH1 0x60 DUP4 DUP12 PUSH2 0x104 ADD DUP6 CALLER PUSH1 0x0 SWAP1 GAS CALL PC PUSH1 0xE ADD JUMPI RETURNDATASIZE PUSH1 0x0 DUP1 RETURNDATACOPY RETURNDATASIZE PUSH1 0x0 REVERT JUMPDEST RETURNDATASIZE PUSH1 0x1 EQ ISZERO PC PUSH1 0xA ADD JUMPI PUSH1 0x1 PUSH1 0x0 RETURN JUMPDEST DUP3 MLOAD PUSH1 0x40 DUP5 ADD MLOAD RETURNDATASIZE PUSH1 0x0 DUP7 RETURNDATACOPY DUP14 DUP14 DUP3 PUSH1 0x60 DUP9 ADD CALLER POP PUSH1 0x0 PUSH1 0x4 GAS CALL POP MSIZE DUP6 JUMPDEST DUP2 DUP2 LT ISZERO PUSH2 0x25A3 JUMPI PUSH1 0x0 DUP2 MSTORE PUSH1 0x20 ADD PUSH2 0x258F JUMP JUMPDEST POP SWAP2 SWAP14 POP POP POP POP POP POP POP JUMP INVALID MSIZE PUSH16 0x75206D757374206265206E6F6D696E61 PUSH21 0x6564206265666F726520796F752063616E20616363 PUSH6 0x7074206F776E PUSH6 0x72736869704D PUSH10 0x7373696E672045746572 PUSH15 0x616C53746F726167654C6971756964 PUSH2 0x7469 PUSH16 0x6E7320616464726573734163636F756E PUSH21 0x2069737375616E636520726174696F206973206C65 PUSH20 0x73207468616E206C69717569646174696F6E2072 PUSH2 0x7469 PUSH16 0x4F6E6C792074686520636F6E74726163 PUSH21 0x206F776E6572206D617920706572666F726D207468 PUSH10 0x7320616374696F6E4C69 PUSH18 0x7569646174696F6E733A204F6E6C79207468 PUSH6 0x204973737565 PUSH19 0x20636F6E74726163742063616E20706572666F PUSH19 0x6D207468697320616374696F6E536166654D61 PUSH21 0x683A206D756C7469706C69636174696F6E206F7665 PUSH19 0x666C6F774163636F756E7420616C7265616479 KECCAK256 PUSH7 0x6C616767656420 PUSH7 0x6F72206C697175 PUSH10 0x646174696F6E00000000 "
		}
	}
}