{
	"abi": [
		{
			"inputs": [
				{
					"internalType": "contract ISynthetix",
					"name": "_synthetix",
					"type": "address"
				}
			],
			"payable": false,
			"stateMutability": "nonpayable",
			"type": "constructor"
		},
		{
			"constant": true,
			"inputs": [
				{
					"internalType": "address",
					"name": "",
					"type": "address"
				},
				{
					"internalType": "bytes32",
					"name": "",
					"type": "bytes32"
				}
			],
			"name": "hasWaitingPeriodOrSettlementOwing",
			"outputs": [
				{
					"internalType": "bool",
					"name": "",
					"type": "bool"
				}
			],
			"payable": false,
			"stateMutability": "view",
			"type": "function"
		},
		{
			"constant": true,
			"inputs": [
				{
					"internalType": "address",
					"name": "",
					"type": "address"
				},
				{
					"internalType": "bytes32",
					"name": "",
					"type": "bytes32"
				}
			],
			"name": "maxSecsLeftInWaitingPeriod",
			"outputs": [
				{
					"internalType": "uint256",
					"name": "",
					"type": "uint256"
				}
			],
			"payable": false,
			"stateMutability": "view",
			"type": "function"
		},
		{
			"constant": false,
			"inputs": [
				{
					"internalType": "uint256",
					"name": "_maxSecsLeft",
					"type": "uint256"
				}
			],
			"name": "setMaxSecsLeft",
			"outputs": [],
			"payable": false,
			"stateMutability": "nonpayable",
			"type": "function"
		},
		{
			"constant": false,
			"inputs": [
				{
					"internalType": "uint256",
					"name": "_numEntries",
					"type": "uint256"
				}
			],
			"name": "setNumEntries",
			"outputs": [],
			"payable": false,
			"stateMutability": "nonpayable",
			"type": "function"
		},
		{
			"constant": false,
			"inputs": [
				{
					"internalType": "uint256",
					"name": "_reclaimAmount",
					"type": "uint256"
				}
			],
			"name": "setReclaim",
			"outputs": [],
			"payable": false,
			"stateMutability": "nonpayable",
			"type": "function"
		},
		{
			"constant": false,
			"inputs": [
				{
					"internalType": "uint256",
					"name": "_refundAmount",
					"type": "uint256"
				}
			],
			"name": "setRefund",
			"outputs": [],
			"payable": false,
			"stateMutability": "nonpayable",
			"type": "function"
		},
		{
			"constant": false,
			"inputs": [
				{
					"internalType": "address",
					"name": "from",
					"type": "address"
				},
				{
					"internalType": "bytes32",
					"name": "currencyKey",
					"type": "bytes32"
				}
			],
			"name": "settle",
			"outputs": [
				{
					"internalType": "uint256",
					"name": "reclaimed",
					"type": "uint256"
				},
				{
					"internalType": "uint256",
					"name": "refunded",
					"type": "uint256"
				},
				{
					"internalType": "uint256",
					"name": "numEntriesSettled",
					"type": "uint256"
				}
			],
			"payable": false,
			"stateMutability": "nonpayable",
			"type": "function"
		},
		{
			"constant": true,
			"inputs": [
				{
					"internalType": "address",
					"name": "",
					"type": "address"
				},
				{
					"internalType": "bytes32",
					"name": "",
					"type": "bytes32"
				}
			],
			"name": "settlementOwing",
			"outputs": [
				{
					"internalType": "uint256",
					"name": "",
					"type": "uint256"
				},
				{
					"internalType": "uint256",
					"name": "",
					"type": "uint256"
				},
				{
					"internalType": "uint256",
					"name": "",
					"type": "uint256"
				}
			],
			"payable": false,
			"stateMutability": "view",
			"type": "function"
		},
		{
			"constant": true,
			"inputs": [],
			"name": "synthetix",
			"outputs": [
				{
					"internalType": "contract ISynthetix",
					"name": "",
					"type": "address"
				}
			],
			"payable": false,
			"stateMutability": "view",
			"type": "function"
		}
	],
	"evm": {
		"bytecode": {
			"linkReferences": {},
			"object": "608060405234801561001057600080fd5b506040516105303803806105308339818101604052602081101561003357600080fd5b5051600480546001600160a01b0319166001600160a01b039092169190911790556104cd806100636000396000f3fe608060405234801561001057600080fd5b50600436106100935760003560e01c80636e0a6176116100665780636e0a61761461016b578063759b522514610188578063bf9e3ed7146101ac578063d6f32e06146101c9578063f69b45fc1461020957610093565b8063059c29ec146100985780630cc9df5c146100d657806319d5c665146100f55780631b16802c1461013f575b600080fd5b6100c4600480360360408110156100ae57600080fd5b506001600160a01b038135169060200135610226565b60408051918252519081900360200190f35b6100f3600480360360208110156100ec57600080fd5b5035610230565b005b6101216004803603604081101561010b57600080fd5b506001600160a01b038135169060200135610235565b60408051938452602084019290925282820152519081900360600190f35b6101216004803603604081101561015557600080fd5b506001600160a01b038135169060200135610245565b6100f36004803603602081101561018157600080fd5b503561043f565b610190610444565b604080516001600160a01b039092168252519081900360200190f35b6100f3600480360360208110156101c257600080fd5b5035610453565b6101f5600480360360408110156101df57600080fd5b506001600160a01b038135169060200135610458565b604080519115158252519081900360200190f35b6100f36004803603602081101561021f57600080fd5b5035610493565b6003545b92915050565b600155565b6000546001546002549250925092565b6000806000806000541115610337576004805460408051633260803960e01b8152928301879052516001600160a01b03909116916332608039916024808301926020929190829003018186803b15801561029e57600080fd5b505afa1580156102b2573d6000803e3d6000fd5b505050506040513d60208110156102c857600080fd5b50516000805460408051632770a7eb60e21b81526001600160a01b038a81166004830152602482019390935290519190931692639dc29fac92604480830193919282900301818387803b15801561031e57600080fd5b505af1158015610332573d6000803e3d6000fd5b505050505b60015415610424576004805460408051633260803960e01b8152928301879052516001600160a01b03909116916332608039916024808301926020929190829003018186803b15801561038957600080fd5b505afa15801561039d573d6000803e3d6000fd5b505050506040513d60208110156103b357600080fd5b50516001546040805163219e412d60e21b81526001600160a01b03898116600483015260248201939093529051919092169163867904b491604480830192600092919082900301818387803b15801561040b57600080fd5b505af115801561041f573d6000803e3d6000fd5b505050505b50506000600381905554600154600254919250909250925092565b600255565b6004546001600160a01b031681565b600055565b6003546000901561046b5750600161022a565b60008054118061047d57506000600154115b1561048a5750600161022a565b50600092915050565b60035556fea265627a7a72315820d7dfedae0418d6a3b276d5125e9b56b89b873b74ee29648b72b498b7a1f6725064736f6c63430005100032",
			"opcodes": "PUSH1 0x80 PUSH1 0x40 MSTORE CALLVALUE DUP1 ISZERO PUSH2 0x10 JUMPI PUSH1 0x0 DUP1 REVERT JUMPDEST POP PUSH1 0x40 MLOAD PUSH2 0x530 CODESIZE SUB DUP1 PUSH2 0x530 DUP4 CODECOPY DUP2 DUP2 ADD PUSH1 0x40 MSTORE PUSH1 0x20 DUP2 LT ISZERO PUSH2 0x33 JUMPI PUSH1 0x0 DUP1 REVERT JUMPDEST POP MLOAD PUSH1 0x4 DUP1 SLOAD PUSH1 0x1 PUSH1 0x1 PUSH1 0xA0 SHL SUB NOT AND PUSH1 0x1 PUSH1 0x1 PUSH1 0xA0 SHL SUB SWAP1 SWAP3 AND SWAP2 SWAP1 SWAP2 OR SWAP1 SSTORE PUSH2 0x4CD DUP1 PUSH2 0x63 PUSH1 0x0 CODECOPY PUSH1 0x0 RETURN INVALID PUSH1 0x80 PUSH1 0x40 MSTORE CALLVALUE DUP1 ISZERO PUSH2 0x10 JUMPI PUSH1 0x0 DUP1 REVERT JUMPDEST POP PUSH1 0x4 CALLDATASIZE LT PUSH2 0x93 JUMPI PUSH1 0x0 CALLDATALOAD PUSH1 0xE0 SHR DUP1 PUSH4 0x6E0A6176 GT PUSH2 0x66 JUMPI DUP1 PUSH4 0x6E0A6176 EQ PUSH2 0x16B JUMPI DUP1 PUSH4 0x759B5225 EQ PUSH2 0x188 JUMPI DUP1 PUSH4 0xBF9E3ED7 EQ PUSH2 0x1AC JUMPI DUP1 PUSH4 0xD6F32E06 EQ PUSH2 0x1C9 JUMPI DUP1 PUSH4 0xF69B45FC EQ PUSH2 0x209 JUMPI PUSH2 0x93 JUMP JUMPDEST DUP1 PUSH4 0x59C29EC EQ PUSH2 0x98 JUMPI DUP1 PUSH4 0xCC9DF5C EQ PUSH2 0xD6 JUMPI DUP1 PUSH4 0x19D5C665 EQ PUSH2 0xF5 JUMPI DUP1 PUSH4 0x1B16802C EQ PUSH2 0x13F JUMPI JUMPDEST PUSH1 0x0 DUP1 REVERT JUMPDEST PUSH2 0xC4 PUSH1 0x4 DUP1 CALLDATASIZE SUB PUSH1 0x40 DUP2 LT ISZERO PUSH2 0xAE JUMPI PUSH1 0x0 DUP1 REVERT JUMPDEST POP PUSH1 0x1 PUSH1 0x1 PUSH1 0xA0 SHL SUB DUP2 CALLDATALOAD AND SWAP1 PUSH1 0x20 ADD CALLDATALOAD PUSH2 0x226 JUMP JUMPDEST PUSH1 0x40 DUP1 MLOAD SWAP2 DUP3 MSTORE MLOAD SWAP1 DUP2 SWAP1 SUB PUSH1 0x20 ADD SWAP1 RETURN JUMPDEST PUSH2 0xF3 PUSH1 0x4 DUP1 CALLDATASIZE SUB PUSH1 0x20 DUP2 LT ISZERO PUSH2 0xEC JUMPI PUSH1 0x0 DUP1 REVERT JUMPDEST POP CALLDATALOAD PUSH2 0x230 JUMP JUMPDEST STOP JUMPDEST PUSH2 0x121 PUSH1 0x4 DUP1 CALLDATASIZE SUB PUSH1 0x40 DUP2 LT ISZERO PUSH2 0x10B JUMPI PUSH1 0x0 DUP1 REVERT JUMPDEST POP PUSH1 0x1 PUSH1 0x1 PUSH1 0xA0 SHL SUB DUP2 CALLDATALOAD AND SWAP1 PUSH1 0x20 ADD CALLDATALOAD PUSH2 0x235 JUMP JUMPDEST PUSH1 0x40 DUP1 MLOAD SWAP4 DUP5 MSTORE PUSH1 0x20 DUP5 ADD SWAP3 SWAP1 SWAP3 MSTORE DUP3 DUP3 ADD MSTORE MLOAD SWAP1 DUP2 SWAP1 SUB PUSH1 0x60 ADD SWAP1 RETURN JUMPDEST PUSH2 0x121 PUSH1 0x4 DUP1 CALLDATASIZE SUB PUSH1 0x40 DUP2 LT ISZERO PUSH2 0x155 JUMPI PUSH1 0x0 DUP1 REVERT JUMPDEST POP PUSH1 0x1 PUSH1 0x1 PUSH1 0xA0 SHL SUB DUP2 CALLDATALOAD AND SWAP1 PUSH1 0x20 ADD CALLDATALOAD PUSH2 0x245 JUMP JUMPDEST PUSH2 0xF3 PUSH1 0x4 DUP1 CALLDATASIZE SUB PUSH1 0x20 DUP2 LT ISZERO PUSH2 0x181 JUMPI PUSH1 0x0 DUP1 REVERT JUMPDEST POP CALLDATALOAD PUSH2 0x43F JUMP JUMPDEST PUSH2 0x190 PUSH2 0x444 JUMP JUMPDEST PUSH1 0x40 DUP1 MLOAD PUSH1 0x1 PUSH1 0x1 PUSH1 0xA0 SHL SUB SWAP1 SWAP3 AND DUP3 MSTORE MLOAD SWAP1 DUP2 SWAP1 SUB PUSH1 0x20 ADD SWAP1 RETURN JUMPDEST PUSH2 0xF3 PUSH1 0x4 DUP1 CALLDATASIZE SUB PUSH1 0x20 DUP2 LT ISZERO PUSH2 0x1C2 JUMPI PUSH1 0x0 DUP1 REVERT JUMPDEST POP CALLDATALOAD PUSH2 0x453 JUMP JUMPDEST PUSH2 0x1F5 PUSH1 0x4 DUP1 CALLDATASIZE SUB PUSH1 0x40 DUP2 LT ISZERO PUSH2 0x1DF JUMPI PUSH1 0x0 DUP1 REVERT JUMPDEST POP PUSH1 0x1 PUSH1 0x1 PUSH1 0xA0 SHL SUB DUP2 CALLDATALOAD AND SWAP1 PUSH1 0x20 ADD CALLDATALOAD PUSH2 0x458 JUMP JUMPDEST PUSH1 0x40 DUP1 MLOAD SWAP2 ISZERO ISZERO DUP3 MSTORE MLOAD SWAP1 DUP2 SWAP1 SUB PUSH1 0x20 ADD SWAP1 RETURN JUMPDEST PUSH2 0xF3 PUSH1 0x4 DUP1 CALLDATASIZE SUB PUSH1 0x20 DUP2 LT ISZERO PUSH2 0x21F JUMPI PUSH1 0x0 DUP1 REVERT JUMPDEST POP CALLDATALOAD PUSH2 0x493 JUMP JUMPDEST PUSH1 0x3 SLOAD JUMPDEST SWAP3 SWAP2 POP POP JUMP JUMPDEST PUSH1 0x1 SSTORE JUMP JUMPDEST PUSH1 0x0 SLOAD PUSH1 0x1 SLOAD PUSH1 0x2 SLOAD SWAP3 POP SWAP3 POP SWAP3 JUMP JUMPDEST PUSH1 0x0 DUP1 PUSH1 0x0 DUP1 PUSH1 0x0 SLOAD GT ISZERO PUSH2 0x337 JUMPI PUSH1 0x4 DUP1 SLOAD PUSH1 0x40 DUP1 MLOAD PUSH4 0x32608039 PUSH1 0xE0 SHL DUP2 MSTORE SWAP3 DUP4 ADD DUP8 SWAP1 MSTORE MLOAD PUSH1 0x1 PUSH1 0x1 PUSH1 0xA0 SHL SUB SWAP1 SWAP2 AND SWAP2 PUSH4 0x32608039 SWAP2 PUSH1 0x24 DUP1 DUP4 ADD SWAP3 PUSH1 0x20 SWAP3 SWAP2 SWAP1 DUP3 SWAP1 SUB ADD DUP2 DUP7 DUP1 EXTCODESIZE ISZERO DUP1 ISZERO PUSH2 0x29E JUMPI PUSH1 0x0 DUP1 REVERT JUMPDEST POP GAS STATICCALL ISZERO DUP1 ISZERO PUSH2 0x2B2 JUMPI RETURNDATASIZE PUSH1 0x0 DUP1 RETURNDATACOPY RETURNDATASIZE PUSH1 0x0 REVERT JUMPDEST POP POP POP POP PUSH1 0x40 MLOAD RETURNDATASIZE PUSH1 0x20 DUP2 LT ISZERO PUSH2 0x2C8 JUMPI PUSH1 0x0 DUP1 REVERT JUMPDEST POP MLOAD PUSH1 0x0 DUP1 SLOAD PUSH1 0x40 DUP1 MLOAD PUSH4 0x2770A7EB PUSH1 0xE2 SHL DUP2 MSTORE PUSH1 0x1 PUSH1 0x1 PUSH1 0xA0 SHL SUB DUP11 DUP2 AND PUSH1 0x4 DUP4 ADD MSTORE PUSH1 0x24 DUP3 ADD SWAP4 SWAP1 SWAP4 MSTORE SWAP1 MLOAD SWAP2 SWAP1 SWAP4 AND SWAP3 PUSH4 0x9DC29FAC SWAP3 PUSH1 0x44 DUP1 DUP4 ADD SWAP4 SWAP2 SWAP3 DUP3 SWAP1 SUB ADD DUP2 DUP4 DUP8 DUP1 EXTCODESIZE ISZERO DUP1 ISZERO PUSH2 0x31E JUMPI PUSH1 0x0 DUP1 REVERT JUMPDEST POP GAS CALL ISZERO DUP1 ISZERO PUSH2 0x332 JUMPI RETURNDATASIZE PUSH1 0x0 DUP1 RETURNDATACOPY RETURNDATASIZE PUSH1 0x0 REVERT JUMPDEST POP POP POP POP JUMPDEST PUSH1 0x1 SLOAD ISZERO PUSH2 0x424 JUMPI PUSH1 0x4 DUP1 SLOAD PUSH1 0x40 DUP1 MLOAD PUSH4 0x32608039 PUSH1 0xE0 SHL DUP2 MSTORE SWAP3 DUP4 ADD DUP8 SWAP1 MSTORE MLOAD PUSH1 0x1 PUSH1 0x1 PUSH1 0xA0 SHL SUB SWAP1 SWAP2 AND SWAP2 PUSH4 0x32608039 SWAP2 PUSH1 0x24 DUP1 DUP4 ADD SWAP3 PUSH1 0x20 SWAP3 SWAP2 SWAP1 DUP3 SWAP1 SUB ADD DUP2 DUP7 DUP1 EXTCODESIZE ISZERO DUP1 ISZERO PUSH2 0x389 JUMPI PUSH1 0x0 DUP1 REVERT JUMPDEST POP GAS STATICCALL ISZERO DUP1 ISZERO PUSH2 0x39D JUMPI RETURNDATASIZE PUSH1 0x0 DUP1 RETURNDATACOPY RETURNDATASIZE PUSH1 0x0 REVERT JUMPDEST POP POP POP POP PUSH1 0x40 MLOAD RETURNDATASIZE PUSH1 0x20 DUP2 LT ISZERO PUSH2 0x3B3 JUMPI PUSH1 0x0 DUP1 REVERT JUMPDEST POP MLOAD PUSH1 0x1 SLOAD PUSH1 0x40 DUP1 MLOAD PUSH4 0x219E412D PUSH1 0xE2 SHL DUP2 MSTORE PUSH1 0x1 PUSH1 0x1 PUSH1 0xA0 SHL SUB DUP10 DUP2 AND PUSH1 0x4 DUP4 ADD MSTORE PUSH1 0x24 DUP3 ADD SWAP4 SWAP1 SWAP4 MSTORE SWAP1 MLOAD SWAP2 SWAP1 SWAP3 AND SWAP2 PUSH4 0x867904B4 SWAP2 PUSH1 0x44 DUP1 DUP4 ADD SWAP3 PUSH1 0x0 SWAP3 SWAP2 SWAP1 DUP3 SWAP1 SUB ADD DUP2 DUP4 DUP8 DUP1 EXTCODESIZE ISZERO DUP1 ISZERO PUSH2 0x40B JUMPI PUSH1 0x0 DUP1 REVERT JUMPDEST POP GAS CALL ISZERO DUP1 ISZERO PUSH2 0x41F JUMPI RETURNDATASIZE PUSH1 0x0 DUP1 RETURNDATACOPY RETURNDATASIZE PUSH1 0x0 REVERT JUMPDEST POP POP POP POP JUMPDEST POP POP PUSH1 0x0 PUSH1 0x3 DUP2 SWAP1 SSTORE SLOAD PUSH1 0x1 SLOAD PUSH1 0x2 SLOAD SWAP2 SWAP3 POP SWAP1 SWAP3 POP SWAP3 POP SWAP3 JUMP JUMPDEST PUSH1 0x2 SSTORE JUMP JUMPDEST PUSH1 0x4 SLOAD PUSH1 0x1 PUSH1 0x1 PUSH1 0xA0 SHL SUB AND DUP2 JUMP JUMPDEST PUSH1 0x0 SSTORE JUMP JUMPDEST PUSH1 0x3 SLOAD PUSH1 0x0 SWAP1 ISZERO PUSH2 0x46B JUMPI POP PUSH1 0x1 PUSH2 0x22A JUMP JUMPDEST PUSH1 0x0 DUP1 SLOAD GT DUP1 PUSH2 0x47D JUMPI POP PUSH1 0x0 PUSH1 0x1 SLOAD GT JUMPDEST ISZERO PUSH2 0x48A JUMPI POP PUSH1 0x1 PUSH2 0x22A JUMP JUMPDEST POP PUSH1 0x0 SWAP3 SWAP2 POP POP JUMP JUMPDEST PUSH1 0x3 SSTORE JUMP INVALID LOG2 PUSH6 0x627A7A723158 KECCAK256 0xD7 0xDF 0xED 0xAE DIV XOR 0xD6 LOG3 0xB2 PUSH23 0xD5125E9B56B89B873B74EE29648B72B498B7A1F6725064 PUSH20 0x6F6C634300051000320000000000000000000000 "
		}
	}
}