{
	"abi": [
		{
			"inputs": [],
			"payable": false,
			"stateMutability": "nonpayable",
			"type": "constructor"
		},
		{
			"constant": false,
			"inputs": [
				{
					"internalType": "address",
					"name": "aggregator",
					"type": "address"
				}
			],
			"name": "flagAggregator",
			"outputs": [
				{
					"internalType": "bool",
					"name": "",
					"type": "bool"
				}
			],
			"payable": false,
			"stateMutability": "nonpayable",
			"type": "function"
		},
		{
			"constant": true,
			"inputs": [
				{
					"internalType": "address",
					"name": "",
					"type": "address"
				}
			],
			"name": "flags",
			"outputs": [
				{
					"internalType": "bool",
					"name": "",
					"type": "bool"
				}
			],
			"payable": false,
			"stateMutability": "view",
			"type": "function"
		},
		{
			"constant": true,
			"inputs": [
				{
					"internalType": "address",
					"name": "aggregator",
					"type": "address"
				}
			],
			"name": "getFlag",
			"outputs": [
				{
					"internalType": "bool",
					"name": "",
					"type": "bool"
				}
			],
			"payable": false,
			"stateMutability": "view",
			"type": "function"
		},
		{
			"constant": true,
			"inputs": [
				{
					"internalType": "address[]",
					"name": "aggregators",
					"type": "address[]"
				}
			],
			"name": "getFlags",
			"outputs": [
				{
					"internalType": "bool[]",
					"name": "results",
					"type": "bool[]"
				}
			],
			"payable": false,
			"stateMutability": "view",
			"type": "function"
		}
	],
	"evm": {
		"bytecode": {
			"linkReferences": {},
			"object": "608060405234801561001057600080fd5b506102d6806100206000396000f3fe608060405234801561001057600080fd5b506004361061004c5760003560e01c8063357e47fe146100515780635114d0d91461008b5780637d723cac146100b15780639fef0c0114610171575b600080fd5b6100776004803603602081101561006757600080fd5b50356001600160a01b0316610197565b604080519115158252519081900360200190f35b610077600480360360208110156100a157600080fd5b50356001600160a01b03166101b5565b610121600480360360208110156100c757600080fd5b8101906020810181356401000000008111156100e257600080fd5b8201836020820111156100f457600080fd5b8035906020019184602083028401116401000000008311171561011657600080fd5b5090925090506101da565b60408051602080825283518183015283519192839290830191858101910280838360005b8381101561015d578181015183820152602001610145565b505050509050019250505060405180910390f35b6100776004803603602081101561018757600080fd5b50356001600160a01b031661028c565b6001600160a01b031660009081526020819052604090205460ff1690565b6001600160a01b03166000908152602081905260408120805460ff1916600117905590565b604080518281526020808402820101909152606090828015610206578160200160208202803883390190505b50905060005b828110156102855760008085858481811061022357fe5b905060200201356001600160a01b03166001600160a01b03166001600160a01b0316815260200190815260200160002060009054906101000a900460ff1682828151811061026d57fe5b9115156020928302919091019091015260010161020c565b5092915050565b60006020819052908152604090205460ff168156fea265627a7a72315820fd0fa1fda146e405f0a0dc315746c7e0cb9dd3f20624eeb8a77950ddeea4afe464736f6c63430005100032",
			"opcodes": "PUSH1 0x80 PUSH1 0x40 MSTORE CALLVALUE DUP1 ISZERO PUSH2 0x10 JUMPI PUSH1 0x0 DUP1 REVERT JUMPDEST POP PUSH2 0x2D6 DUP1 PUSH2 0x20 PUSH1 0x0 CODECOPY PUSH1 0x0 RETURN INVALID PUSH1 0x80 PUSH1 0x40 MSTORE CALLVALUE DUP1 ISZERO PUSH2 0x10 JUMPI PUSH1 0x0 DUP1 REVERT JUMPDEST POP PUSH1 0x4 CALLDATASIZE LT PUSH2 0x4C JUMPI PUSH1 0x0 CALLDATALOAD PUSH1 0xE0 SHR DUP1 PUSH4 0x357E47FE EQ PUSH2 0x51 JUMPI DUP1 PUSH4 0x5114D0D9 EQ PUSH2 0x8B JUMPI DUP1 PUSH4 0x7D723CAC EQ PUSH2 0xB1 JUMPI DUP1 PUSH4 0x9FEF0C01 EQ PUSH2 0x171 JUMPI JUMPDEST PUSH1 0x0 DUP1 REVERT JUMPDEST PUSH2 0x77 PUSH1 0x4 DUP1 CALLDATASIZE SUB PUSH1 0x20 DUP2 LT ISZERO PUSH2 0x67 JUMPI PUSH1 0x0 DUP1 REVERT JUMPDEST POP CALLDATALOAD PUSH1 0x1 PUSH1 0x1 PUSH1 0xA0 SHL SUB AND PUSH2 0x197 JUMP JUMPDEST PUSH1 0x40 DUP1 MLOAD SWAP2 ISZERO ISZERO DUP3 MSTORE MLOAD SWAP1 DUP2 SWAP1 SUB PUSH1 0x20 ADD SWAP1 RETURN JUMPDEST PUSH2 0x77 PUSH1 0x4 DUP1 CALLDATASIZE SUB PUSH1 0x20 DUP2 LT ISZERO PUSH2 0xA1 JUMPI PUSH1 0x0 DUP1 REVERT JUMPDEST POP CALLDATALOAD PUSH1 0x1 PUSH1 0x1 PUSH1 0xA0 SHL SUB AND PUSH2 0x1B5 JUMP JUMPDEST PUSH2 0x121 PUSH1 0x4 DUP1 CALLDATASIZE SUB PUSH1 0x20 DUP2 LT ISZERO PUSH2 0xC7 JUMPI PUSH1 0x0 DUP1 REVERT JUMPDEST DUP2 ADD SWAP1 PUSH1 0x20 DUP2 ADD DUP2 CALLDATALOAD PUSH5 0x100000000 DUP2 GT ISZERO PUSH2 0xE2 JUMPI PUSH1 0x0 DUP1 REVERT JUMPDEST DUP3 ADD DUP4 PUSH1 0x20 DUP3 ADD GT ISZERO PUSH2 0xF4 JUMPI PUSH1 0x0 DUP1 REVERT JUMPDEST DUP1 CALLDATALOAD SWAP1 PUSH1 0x20 ADD SWAP2 DUP5 PUSH1 0x20 DUP4 MUL DUP5 ADD GT PUSH5 0x100000000 DUP4 GT OR ISZERO PUSH2 0x116 JUMPI PUSH1 0x0 DUP1 REVERT JUMPDEST POP SWAP1 SWAP3 POP SWAP1 POP PUSH2 0x1DA JUMP JUMPDEST PUSH1 0x40 DUP1 MLOAD PUSH1 0x20 DUP1 DUP3 MSTORE DUP4 MLOAD DUP2 DUP4 ADD MSTORE DUP4 MLOAD SWAP2 SWAP3 DUP4 SWAP3 SWAP1 DUP4 ADD SWAP2 DUP6 DUP2 ADD SWAP2 MUL DUP1 DUP4 DUP4 PUSH1 0x0 JUMPDEST DUP4 DUP2 LT ISZERO PUSH2 0x15D JUMPI DUP2 DUP2 ADD MLOAD DUP4 DUP3 ADD MSTORE PUSH1 0x20 ADD PUSH2 0x145 JUMP JUMPDEST POP POP POP POP SWAP1 POP ADD SWAP3 POP POP POP PUSH1 0x40 MLOAD DUP1 SWAP2 SUB SWAP1 RETURN JUMPDEST PUSH2 0x77 PUSH1 0x4 DUP1 CALLDATASIZE SUB PUSH1 0x20 DUP2 LT ISZERO PUSH2 0x187 JUMPI PUSH1 0x0 DUP1 REVERT JUMPDEST POP CALLDATALOAD PUSH1 0x1 PUSH1 0x1 PUSH1 0xA0 SHL SUB AND PUSH2 0x28C JUMP JUMPDEST PUSH1 0x1 PUSH1 0x1 PUSH1 0xA0 SHL SUB AND PUSH1 0x0 SWAP1 DUP2 MSTORE PUSH1 0x20 DUP2 SWAP1 MSTORE PUSH1 0x40 SWAP1 KECCAK256 SLOAD PUSH1 0xFF AND SWAP1 JUMP JUMPDEST PUSH1 0x1 PUSH1 0x1 PUSH1 0xA0 SHL SUB AND PUSH1 0x0 SWAP1 DUP2 MSTORE PUSH1 0x20 DUP2 SWAP1 MSTORE PUSH1 0x40 DUP2 KECCAK256 DUP1 SLOAD PUSH1 0xFF NOT AND PUSH1 0x1 OR SWAP1 SSTORE SWAP1 JUMP JUMPDEST PUSH1 0x40 DUP1 MLOAD DUP3 DUP2 MSTORE PUSH1 0x20 DUP1 DUP5 MUL DUP3 ADD ADD SWAP1 SWAP2 MSTORE PUSH1 0x60 SWAP1 DUP3 DUP1 ISZERO PUSH2 0x206 JUMPI DUP2 PUSH1 0x20 ADD PUSH1 0x20 DUP3 MUL DUP1 CODESIZE DUP4 CODECOPY ADD SWAP1 POP JUMPDEST POP SWAP1 POP PUSH1 0x0 JUMPDEST DUP3 DUP2 LT ISZERO PUSH2 0x285 JUMPI PUSH1 0x0 DUP1 DUP6 DUP6 DUP5 DUP2 DUP2 LT PUSH2 0x223 JUMPI INVALID JUMPDEST SWAP1 POP PUSH1 0x20 MUL ADD CALLDATALOAD PUSH1 0x1 PUSH1 0x1 PUSH1 0xA0 SHL SUB AND PUSH1 0x1 PUSH1 0x1 PUSH1 0xA0 SHL SUB AND PUSH1 0x1 PUSH1 0x1 PUSH1 0xA0 SHL SUB AND DUP2 MSTORE PUSH1 0x20 ADD SWAP1 DUP2 MSTORE PUSH1 0x20 ADD PUSH1 0x0 KECCAK256 PUSH1 0x0 SWAP1 SLOAD SWAP1 PUSH2 0x100 EXP SWAP1 DIV PUSH1 0xFF AND DUP3 DUP3 DUP2 MLOAD DUP2 LT PUSH2 0x26D JUMPI INVALID JUMPDEST SWAP2 ISZERO ISZERO PUSH1 0x20 SWAP3 DUP4 MUL SWAP2 SWAP1 SWAP2 ADD SWAP1 SWAP2 ADD MSTORE PUSH1 0x1 ADD PUSH2 0x20C JUMP JUMPDEST POP SWAP3 SWAP2 POP POP JUMP JUMPDEST PUSH1 0x0 PUSH1 0x20 DUP2 SWAP1 MSTORE SWAP1 DUP2 MSTORE PUSH1 0x40 SWAP1 KECCAK256 SLOAD PUSH1 0xFF AND DUP2 JUMP INVALID LOG2 PUSH6 0x627A7A723158 KECCAK256 REVERT 0xF LOG1 REVERT LOG1 CHAINID 0xE4 SDIV CREATE LOG0 0xDC BALANCE JUMPI CHAINID 0xC7 0xE0 0xCB SWAP14 0xD3 CALLCODE MOD 0x24 0xEE 0xB8 0xA7 PUSH26 0x50DDEEA4AFE464736F6C63430005100032000000000000000000 "
		}
	}
}