{
	"abi": [
		{
			"inputs": [
				{
					"internalType": "address payable",
					"name": "_proxy",
					"type": "address"
				},
				{
					"internalType": "contract TokenState",
					"name": "_tokenState",
					"type": "address"
				},
				{
					"internalType": "string",
					"name": "_tokenName",
					"type": "string"
				},
				{
					"internalType": "string",
					"name": "_tokenSymbol",
					"type": "string"
				},
				{
					"internalType": "address",
					"name": "_owner",
					"type": "address"
				},
				{
					"internalType": "bytes32",
					"name": "_currencyKey",
					"type": "bytes32"
				},
				{
					"internalType": "uint256",
					"name": "_totalSupply",
					"type": "uint256"
				},
				{
					"internalType": "address",
					"name": "_resolver",
					"type": "address"
				},
				{
					"internalType": "bytes32",
					"name": "_multiCollateralKey",
					"type": "bytes32"
				}
			],
			"payable": false,
			"stateMutability": "nonpayable",
			"type": "constructor"
		},
		{
			"anonymous": false,
			"inputs": [
				{
					"indexed": true,
					"internalType": "address",
					"name": "owner",
					"type": "address"
				},
				{
					"indexed": true,
					"internalType": "address",
					"name": "spender",
					"type": "address"
				},
				{
					"indexed": false,
					"internalType": "uint256",
					"name": "value",
					"type": "uint256"
				}
			],
			"name": "Approval",
			"type": "event"
		},
		{
			"anonymous": false,
			"inputs": [
				{
					"indexed": true,
					"internalType": "address",
					"name": "account",
					"type": "address"
				},
				{
					"indexed": false,
					"internalType": "uint256",
					"name": "value",
					"type": "uint256"
				}
			],
			"name": "Burned",
			"type": "event"
		},
		{
			"anonymous": false,
			"inputs": [
				{
					"indexed": true,
					"internalType": "address",
					"name": "account",
					"type": "address"
				},
				{
					"indexed": false,
					"internalType": "uint256",
					"name": "value",
					"type": "uint256"
				}
			],
			"name": "Issued",
			"type": "event"
		},
		{
			"anonymous": false,
			"inputs": [
				{
					"indexed": false,
					"internalType": "address",
					"name": "oldOwner",
					"type": "address"
				},
				{
					"indexed": false,
					"internalType": "address",
					"name": "newOwner",
					"type": "address"
				}
			],
			"name": "OwnerChanged",
			"type": "event"
		},
		{
			"anonymous": false,
			"inputs": [
				{
					"indexed": false,
					"internalType": "address",
					"name": "newOwner",
					"type": "address"
				}
			],
			"name": "OwnerNominated",
			"type": "event"
		},
		{
			"anonymous": false,
			"inputs": [
				{
					"indexed": false,
					"internalType": "address",
					"name": "proxyAddress",
					"type": "address"
				}
			],
			"name": "ProxyUpdated",
			"type": "event"
		},
		{
			"anonymous": false,
			"inputs": [
				{
					"indexed": false,
					"internalType": "address",
					"name": "newBeneficiary",
					"type": "address"
				}
			],
			"name": "SelfDestructBeneficiaryUpdated",
			"type": "event"
		},
		{
			"anonymous": false,
			"inputs": [
				{
					"indexed": false,
					"internalType": "uint256",
					"name": "selfDestructDelay",
					"type": "uint256"
				}
			],
			"name": "SelfDestructInitiated",
			"type": "event"
		},
		{
			"anonymous": false,
			"inputs": [],
			"name": "SelfDestructTerminated",
			"type": "event"
		},
		{
			"anonymous": false,
			"inputs": [
				{
					"indexed": false,
					"internalType": "address",
					"name": "beneficiary",
					"type": "address"
				}
			],
			"name": "SelfDestructed",
			"type": "event"
		},
		{
			"anonymous": false,
			"inputs": [
				{
					"indexed": false,
					"internalType": "address",
					"name": "newTokenState",
					"type": "address"
				}
			],
			"name": "TokenStateUpdated",
			"type": "event"
		},
		{
			"anonymous": false,
			"inputs": [
				{
					"indexed": true,
					"internalType": "address",
					"name": "from",
					"type": "address"
				},
				{
					"indexed": true,
					"internalType": "address",
					"name": "to",
					"type": "address"
				},
				{
					"indexed": false,
					"internalType": "uint256",
					"name": "value",
					"type": "uint256"
				}
			],
			"name": "Transfer",
			"type": "event"
		},
		{
			"constant": true,
			"inputs": [],
			"name": "DECIMALS",
			"outputs": [
				{
					"internalType": "uint8",
					"name": "",
					"type": "uint8"
				}
			],
			"payable": false,
			"stateMutability": "view",
			"type": "function"
		},
		{
			"constant": true,
			"inputs": [],
			"name": "FEE_ADDRESS",
			"outputs": [
				{
					"internalType": "address",
					"name": "",
					"type": "address"
				}
			],
			"payable": false,
			"stateMutability": "view",
			"type": "function"
		},
		{
			"constant": true,
			"inputs": [],
			"name": "MAX_ADDRESSES_FROM_RESOLVER",
			"outputs": [
				{
					"internalType": "uint256",
					"name": "",
					"type": "uint256"
				}
			],
			"payable": false,
			"stateMutability": "view",
			"type": "function"
		},
		{
			"constant": true,
			"inputs": [],
			"name": "SELFDESTRUCT_DELAY",
			"outputs": [
				{
					"internalType": "uint256",
					"name": "",
					"type": "uint256"
				}
			],
			"payable": false,
			"stateMutability": "view",
			"type": "function"
		},
		{
			"constant": false,
			"inputs": [],
			"name": "acceptOwnership",
			"outputs": [],
			"payable": false,
			"stateMutability": "nonpayable",
			"type": "function"
		},
		{
			"constant": true,
			"inputs": [
				{
					"internalType": "address",
					"name": "owner",
					"type": "address"
				},
				{
					"internalType": "address",
					"name": "spender",
					"type": "address"
				}
			],
			"name": "allowance",
			"outputs": [
				{
					"internalType": "uint256",
					"name": "",
					"type": "uint256"
				}
			],
			"payable": false,
			"stateMutability": "view",
			"type": "function"
		},
		{
			"constant": false,
			"inputs": [
				{
					"internalType": "address",
					"name": "spender",
					"type": "address"
				},
				{
					"internalType": "uint256",
					"name": "value",
					"type": "uint256"
				}
			],
			"name": "approve",
			"outputs": [
				{
					"internalType": "bool",
					"name": "",
					"type": "bool"
				}
			],
			"payable": false,
			"stateMutability": "nonpayable",
			"type": "function"
		},
		{
			"constant": true,
			"inputs": [
				{
					"internalType": "address",
					"name": "account",
					"type": "address"
				}
			],
			"name": "balanceOf",
			"outputs": [
				{
					"internalType": "uint256",
					"name": "",
					"type": "uint256"
				}
			],
			"payable": false,
			"stateMutability": "view",
			"type": "function"
		},
		{
			"constant": false,
			"inputs": [
				{
					"internalType": "address",
					"name": "account",
					"type": "address"
				},
				{
					"internalType": "uint256",
					"name": "amount",
					"type": "uint256"
				}
			],
			"name": "burn",
			"outputs": [],
			"payable": false,
			"stateMutability": "nonpayable",
			"type": "function"
		},
		{
			"constant": true,
			"inputs": [],
			"name": "currencyKey",
			"outputs": [
				{
					"internalType": "bytes32",
					"name": "",
					"type": "bytes32"
				}
			],
			"payable": false,
			"stateMutability": "view",
			"type": "function"
		},
		{
			"constant": true,
			"inputs": [],
			"name": "decimals",
			"outputs": [
				{
					"internalType": "uint8",
					"name": "",
					"type": "uint8"
				}
			],
			"payable": false,
			"stateMutability": "view",
			"type": "function"
		},
		{
			"constant": true,
			"inputs": [],
			"name": "getResolverAddressesRequired",
			"outputs": [
				{
					"internalType": "bytes32[24]",
					"name": "addressesRequired",
					"type": "bytes32[24]"
				}
			],
			"payable": false,
			"stateMutability": "view",
			"type": "function"
		},
		{
			"constant": false,
			"inputs": [],
			"name": "initiateSelfDestruct",
			"outputs": [],
			"payable": false,
			"stateMutability": "nonpayable",
			"type": "function"
		},
		{
			"constant": true,
			"inputs": [],
			"name": "initiationTime",
			"outputs": [
				{
					"internalType": "uint256",
					"name": "",
					"type": "uint256"
				}
			],
			"payable": false,
			"stateMutability": "view",
			"type": "function"
		},
		{
			"constant": true,
			"inputs": [],
			"name": "integrationProxy",
			"outputs": [
				{
					"internalType": "contract Proxy",
					"name": "",
					"type": "address"
				}
			],
			"payable": false,
			"stateMutability": "view",
			"type": "function"
		},
		{
			"constant": true,
			"inputs": [
				{
					"internalType": "contract AddressResolver",
					"name": "_resolver",
					"type": "address"
				}
			],
			"name": "isResolverCached",
			"outputs": [
				{
					"internalType": "bool",
					"name": "",
					"type": "bool"
				}
			],
			"payable": false,
			"stateMutability": "view",
			"type": "function"
		},
		{
			"constant": false,
			"inputs": [
				{
					"internalType": "address",
					"name": "account",
					"type": "address"
				},
				{
					"internalType": "uint256",
					"name": "amount",
					"type": "uint256"
				}
			],
			"name": "issue",
			"outputs": [],
			"payable": false,
			"stateMutability": "nonpayable",
			"type": "function"
		},
		{
			"constant": true,
			"inputs": [],
			"name": "messageSender",
			"outputs": [
				{
					"internalType": "address",
					"name": "",
					"type": "address"
				}
			],
			"payable": false,
			"stateMutability": "view",
			"type": "function"
		},
		{
			"constant": true,
			"inputs": [],
			"name": "multiCollateralKey",
			"outputs": [
				{
					"internalType": "bytes32",
					"name": "",
					"type": "bytes32"
				}
			],
			"payable": false,
			"stateMutability": "view",
			"type": "function"
		},
		{
			"constant": true,
			"inputs": [],
			"name": "name",
			"outputs": [
				{
					"internalType": "string",
					"name": "",
					"type": "string"
				}
			],
			"payable": false,
			"stateMutability": "view",
			"type": "function"
		},
		{
			"constant": false,
			"inputs": [
				{
					"internalType": "address",
					"name": "_owner",
					"type": "address"
				}
			],
			"name": "nominateNewOwner",
			"outputs": [],
			"payable": false,
			"stateMutability": "nonpayable",
			"type": "function"
		},
		{
			"constant": true,
			"inputs": [],
			"name": "nominatedOwner",
			"outputs": [
				{
					"internalType": "address",
					"name": "",
					"type": "address"
				}
			],
			"payable": false,
			"stateMutability": "view",
			"type": "function"
		},
		{
			"constant": true,
			"inputs": [],
			"name": "owner",
			"outputs": [
				{
					"internalType": "address",
					"name": "",
					"type": "address"
				}
			],
			"payable": false,
			"stateMutability": "view",
			"type": "function"
		},
		{
			"constant": true,
			"inputs": [],
			"name": "proxy",
			"outputs": [
				{
					"internalType": "contract Proxy",
					"name": "",
					"type": "address"
				}
			],
			"payable": false,
			"stateMutability": "view",
			"type": "function"
		},
		{
			"constant": true,
			"inputs": [],
			"name": "resolver",
			"outputs": [
				{
					"internalType": "contract AddressResolver",
					"name": "",
					"type": "address"
				}
			],
			"payable": false,
			"stateMutability": "view",
			"type": "function"
		},
		{
			"constant": true,
			"inputs": [
				{
					"internalType": "uint256",
					"name": "",
					"type": "uint256"
				}
			],
			"name": "resolverAddressesRequired",
			"outputs": [
				{
					"internalType": "bytes32",
					"name": "",
					"type": "bytes32"
				}
			],
			"payable": false,
			"stateMutability": "view",
			"type": "function"
		},
		{
			"constant": false,
			"inputs": [],
			"name": "selfDestruct",
			"outputs": [],
			"payable": false,
			"stateMutability": "nonpayable",
			"type": "function"
		},
		{
			"constant": true,
			"inputs": [],
			"name": "selfDestructBeneficiary",
			"outputs": [
				{
					"internalType": "address",
					"name": "",
					"type": "address"
				}
			],
			"payable": false,
			"stateMutability": "view",
			"type": "function"
		},
		{
			"constant": true,
			"inputs": [],
			"name": "selfDestructInitiated",
			"outputs": [
				{
					"internalType": "bool",
					"name": "",
					"type": "bool"
				}
			],
			"payable": false,
			"stateMutability": "view",
			"type": "function"
		},
		{
			"constant": false,
			"inputs": [
				{
					"internalType": "address payable",
					"name": "_integrationProxy",
					"type": "address"
				}
			],
			"name": "setIntegrationProxy",
			"outputs": [],
			"payable": false,
			"stateMutability": "nonpayable",
			"type": "function"
		},
		{
			"constant": false,
			"inputs": [
				{
					"internalType": "address",
					"name": "sender",
					"type": "address"
				}
			],
			"name": "setMessageSender",
			"outputs": [],
			"payable": false,
			"stateMutability": "nonpayable",
			"type": "function"
		},
		{
			"constant": false,
			"inputs": [
				{
					"internalType": "address payable",
					"name": "_proxy",
					"type": "address"
				}
			],
			"name": "setProxy",
			"outputs": [],
			"payable": false,
			"stateMutability": "nonpayable",
			"type": "function"
		},
		{
			"constant": false,
			"inputs": [
				{
					"internalType": "contract AddressResolver",
					"name": "_resolver",
					"type": "address"
				}
			],
			"name": "setResolverAndSyncCache",
			"outputs": [],
			"payable": false,
			"stateMutability": "nonpayable",
			"type": "function"
		},
		{
			"constant": false,
			"inputs": [
				{
					"internalType": "address payable",
					"name": "_beneficiary",
					"type": "address"
				}
			],
			"name": "setSelfDestructBeneficiary",
			"outputs": [],
			"payable": false,
			"stateMutability": "nonpayable",
			"type": "function"
		},
		{
			"constant": false,
			"inputs": [
				{
					"internalType": "contract TokenState",
					"name": "_tokenState",
					"type": "address"
				}
			],
			"name": "setTokenState",
			"outputs": [],
			"payable": false,
			"stateMutability": "nonpayable",
			"type": "function"
		},
		{
			"constant": false,
			"inputs": [
				{
					"internalType": "uint256",
					"name": "amount",
					"type": "uint256"
				}
			],
			"name": "setTotalSupply",
			"outputs": [],
			"payable": false,
			"stateMutability": "nonpayable",
			"type": "function"
		},
		{
			"constant": true,
			"inputs": [],
			"name": "symbol",
			"outputs": [
				{
					"internalType": "string",
					"name": "",
					"type": "string"
				}
			],
			"payable": false,
			"stateMutability": "view",
			"type": "function"
		},
		{
			"constant": false,
			"inputs": [],
			"name": "terminateSelfDestruct",
			"outputs": [],
			"payable": false,
			"stateMutability": "nonpayable",
			"type": "function"
		},
		{
			"constant": true,
			"inputs": [],
			"name": "tokenState",
			"outputs": [
				{
					"internalType": "contract TokenState",
					"name": "",
					"type": "address"
				}
			],
			"payable": false,
			"stateMutability": "view",
			"type": "function"
		},
		{
			"constant": true,
			"inputs": [],
			"name": "totalSupply",
			"outputs": [
				{
					"internalType": "uint256",
					"name": "",
					"type": "uint256"
				}
			],
			"payable": false,
			"stateMutability": "view",
			"type": "function"
		},
		{
			"constant": false,
			"inputs": [
				{
					"internalType": "address",
					"name": "to",
					"type": "address"
				},
				{
					"internalType": "uint256",
					"name": "value",
					"type": "uint256"
				}
			],
			"name": "transfer",
			"outputs": [
				{
					"internalType": "bool",
					"name": "",
					"type": "bool"
				}
			],
			"payable": false,
			"stateMutability": "nonpayable",
			"type": "function"
		},
		{
			"constant": false,
			"inputs": [
				{
					"internalType": "address",
					"name": "to",
					"type": "address"
				},
				{
					"internalType": "uint256",
					"name": "value",
					"type": "uint256"
				}
			],
			"name": "transferAndSettle",
			"outputs": [
				{
					"internalType": "bool",
					"name": "",
					"type": "bool"
				}
			],
			"payable": false,
			"stateMutability": "nonpayable",
			"type": "function"
		},
		{
			"constant": false,
			"inputs": [
				{
					"internalType": "address",
					"name": "from",
					"type": "address"
				},
				{
					"internalType": "address",
					"name": "to",
					"type": "address"
				},
				{
					"internalType": "uint256",
					"name": "value",
					"type": "uint256"
				}
			],
			"name": "transferFrom",
			"outputs": [
				{
					"internalType": "bool",
					"name": "",
					"type": "bool"
				}
			],
			"payable": false,
			"stateMutability": "nonpayable",
			"type": "function"
		},
		{
			"constant": false,
			"inputs": [
				{
					"internalType": "address",
					"name": "from",
					"type": "address"
				},
				{
					"internalType": "address",
					"name": "to",
					"type": "address"
				},
				{
					"internalType": "uint256",
					"name": "value",
					"type": "uint256"
				}
			],
			"name": "transferFromAndSettle",
			"outputs": [
				{
					"internalType": "bool",
					"name": "",
					"type": "bool"
				}
			],
			"payable": false,
			"stateMutability": "nonpayable",
			"type": "function"
		},
		{
			"constant": true,
			"inputs": [
				{
					"internalType": "address",
					"name": "account",
					"type": "address"
				}
			],
			"name": "transferableSynths",
			"outputs": [
				{
					"internalType": "uint256",
					"name": "",
					"type": "uint256"
				}
			],
			"payable": false,
			"stateMutability": "view",
			"type": "function"
		}
	],
	"evm": {
		"bytecode": {
			"linkReferences": {},
			"object": "60806040526040516080810160409081526b53797374656d53746174757360a01b82526822bc31b430b733b2b960b91b60208301526524b9b9bab2b960d11b9082015266119959541bdbdb60ca1b60608201526200006290600f90600462000ab9565b503480156200007b576000806200007862000b07565b50505b5060405162004d0338038062004d038339818101604052610120811015620000ad57600080620000aa62000b07565b50505b810190808051929190602001805192919060200180516040519392919084640100000000821115620000e957600080620000e662000b07565b50505b9083019060208201858111156200010a576000806200010762000b07565b50505b825164010000000081118282018810171562000130576000806200012d62000b07565b50505b825250602001908051906020019080838360005b838110156200015e57808201518382015260200162000144565b50505050905090810190601f1680156200018c5780820380516001836020036101000a031916815260200191505b5060405260200180516040519392919084640100000000821115620001bb57600080620001b862000b07565b50505b908301906020820185811115620001dc57600080620001d962000b07565b50505b82516401000000008111828201881017156200020257600080620001ff62000b07565b50505b825250602001908051906020019080838360005b838110156200023057808201518382015260200162000216565b50505050905090810190601f1680156200025e5780820380516001836020036101000a031916815260200191505b506040526020018051929190602001805192919060200180519291906020018051929190602001805192508a915089905088888888888880600f60186103006040519081016040529190610300830182845b81620002bb62000b74565b81526020019060010190808311620002b0575050505050898989898760128b868160006001600160a01b0316816001600160a01b031614156200034f5760405162461bcd60e51b815260206004820152601960248201527f4f776e657220616464726573732063616e6e6f742062652030000000000000006044820152606401604051809103906200034c62000b07565b50505b8060006001816200035f62000b74565b816001600160a01b0302191690836001600160a01b03160217906200038362000bd6565b5050507fb532073b38c83145e3e5135377a08bf9aab55bc0fd7c1179cd4fb995d2a5159c6000826040516001600160a01b039283168152911660208201526040908101905180910390a15060008080620003dc62000b74565b906101000a90046001600160a01b03166001600160a01b03161415620004475760405162461bcd60e51b815260206004820152601160248201527013dddb995c881b5d5cdd081899481cd95d607a1b6044820152606401604051809103906200044462000b07565b50505b6000806200045462000b74565b906101000a90046001600160a01b0316600360016101000a816200047762000b74565b816001600160a01b0302191690836001600160a01b03160217906200049b62000bd6565b5050507fd5da63a0b864b315bc04128dedbc93888c8529ee6cf47ce664dc204339228c5360008090620004cd62000b74565b906101000a90046001600160a01b03166040516001600160a01b03909116815260200160405180910390a1600080806200050662000b74565b906101000a90046001600160a01b03166001600160a01b03161415620005715760405162461bcd60e51b815260206004820152601160248201527013dddb995c881b5d5cdd081899481cd95d607a1b6044820152606401604051809103906200056e62000b07565b50505b8060046001816200058162000b74565b816001600160a01b0302191690836001600160a01b0316021790620005a562000bd6565b5050507ffc80377ca9c49cc11ae6982f390a42db976d5530af7c43889264b13fbbd7c57e816040516001600160a01b03909116815260200160405180910390a150856007600181620005f662000b74565b816001600160a01b0302191690836001600160a01b03160217906200061a62000bd6565b5050508460089080516200063392916020019062000c25565b5060098480516200064992916020019062000c25565b508280600a6200065862000bd6565b50505081600b60006101000a816200066f62000b74565b8160ff021916908360ff160217906200068762000bd6565b5050505050505050505060006001600160a01b031660008090620006aa62000b74565b906101000a90046001600160a01b03166001600160a01b03161415620007155760405162461bcd60e51b815260206004820152601160248201527013dddb995c881b5d5cdd081899481cd95d607a1b6044820152606401604051809103906200071262000b07565b50505b60005b6018811015620007a55760008282601881106200073157fe5b6020020151146200079657600d8282601881106200074b57fe5b602002015190806001816200075f62000b74565b0180826200076c62000bd6565b50506000928352916000198301915060209020919291016200078d62000bd6565b5050506200079c565b620007a5565b60010162000718565b5081600b61010081620007b762000b74565b816001600160a01b0302191690836001600160a01b0316021790620007db62000bd6565b50505050506001600160a01b0388166200083b5760405162461bcd60e51b815260206004820152601260248201527105f70726f78792063616e6e6f7420626520360741b6044820152606401604051809103906200083862000b07565b50505b6001600160a01b038416620008965760405162461bcd60e51b815260206004820152601260248201527105f6f776e65722063616e6e6f7420626520360741b6044820152606401604051809103906200089362000b07565b50505b8280600e620008a462000bd6565b50505050505050505050508060278190620008be62000bd6565b505050620008e06027620008d162000b74565b6001600160e01b03620008ef16565b50505050505050505062000e31565b80600d806001816200090062000b74565b0180826200090d62000bd6565b50506000928352916000198301915060209020919291016200092e62000bd6565b5050506018600d806200094062000b74565b9050106200099f5760405162461bcd60e51b815260206004820152601b60248201527f4d6178207265736f6c7665722063616368652073697a65206d657400000000006044820152606401604051809103906200099c62000b07565b50505b6001600b620009ad62000b74565b906101000a90046001600160a01b03166001600160a01b03166321f8a721826040516001600160e01b031960e084901b1681526004810191909152602401602060405180830381868062000a0062000cd0565b15801562000a185760008062000a1562000b07565b50505b505a62000a2462000d1d565b505050505015801562000a46573d6000803e3d600062000a4362000b07565b50505b505050506040513d602081101562000a685760008062000a6562000b07565b50505b8101908080516000858152600c6020529093506040925090502060018162000a8f62000b74565b816001600160a01b0302191690836001600160a01b031602179062000ab362000bd6565b50505050565b826018810192821562000af5579160200282015b8281111562000af55782518262000ae362000bd6565b50509160200191906001019062000acd565b5062000b0392915062000dda565b5090565b632a2a7adb598160e01b8152600481016020815285602082015260005b8681101562000b4157808601518282016040015260200162000b24565b506020828760640184336000905af158600e01573d6000803e3d6000fd5b3d6001141558600a015760016000f35b505050565b6303daa959598160e01b8152836004820152602081602483336000905af158600e01573d6000803e3d6000fd5b3d6001141558600a015760016000f35b8051935060005b604081101562000bd15760008282015260200162000bb8565b505050565b6322bd64c0598160e01b8152836004820152846024820152600081604483336000905af158600e01573d6000803e3d6000fd5b3d6001141558600a015760016000f35b60008152602062000bb8565b828062000c3162000b74565b600181600116156101000203166002900490600052602060002090601f016020900481019282601f1062000c7c57805160ff1916838001178562000c7462000bd6565b505062000cc2565b8280016001018562000c8d62000bd6565b5050821562000cc2579182015b8281111562000cc25782518262000cb062000bd6565b50509160200191906001019062000c9a565b5062000b0392915062000e07565b638435035b598160e01b8152836004820152602081602483336000905af158600e01573d6000803e3d6000fd5b3d6001141558600a015760016000f35b8051600082529350602062000bb8565b638540661f598160e01b8152836004820152846024820152606060448201528660648201526084810160005b8881101562000d6357808801518282015260200162000d49565b50876101040182016060838a6101040185336000905af158600e01573d6000803e3d6000fd5b3d6001141558600a015760016000f35b825160408401513d6000863e8c8c82606088013350600060045af15059855b8181101562000dce576000815260200162000db8565b50919c50505050505050565b62000e0491905b8082111562000b03576000808262000df862000bd6565b50505060010162000de1565b90565b62000e0491905b8082111562000b03576000808262000e2562000bd6565b50505060010162000e0e565b613ec28062000e416000396000f3fe6080604052348015610019576000806100166139dd565b50505b50600436106102885760003560e01c80639cbdaeb611610165578063c6c9d828116100d7578063e90dd9e211610090578063e90dd9e2146107d3578063eb1edd61146107db578063ec556889146107e3578063f7ea7a3d146107eb578063fd92ae7714610811578063ffff51d61461081957610288565b8063c6c9d8281461071f578063d67bdd2514610745578063dbd06c851461074d578063dd62ed3e14610755578063e3235c911461078c578063e73cced31461079457610288565b8063ab49848c11610129578063ab49848c14610662578063b014c3a3146106a3578063b8225dec146106d8578063bc67f832146106e0578063bd32aa441461070f578063c58aaae61461071757610288565b80639cbdaeb6146105b95780639dc29fac146105c15780639f769807146105f6578063a461fc8214610625578063a9059cbb1461062d57610288565b80633278c960116101fe57806379ba5097116101c257806379ba509714610535578063867904b41461053d5780638da5cb5b1461057257806395d89b411461057a57806397107d6d146105825780639cb8a26a146105b157610288565b80633278c960146104985780633be99e6f146104a057806353a47bb7146104cf578063631e1444146104d757806370a082311461050657610288565b806317c70de41161025057806317c70de4146103e257806318160ddd146103fc57806320714f881461040457806323b872dd146104335780632e0f262514610472578063313ce5671461049057610288565b806304f3bcec1461029657806306fdde03146102ba578063095ea7b314610339578063131b0ae7146103825780631627540c146103b3575b6000806102936139dd565b50505b61029e610848565b6040516001600160a01b03909116815260200160405180910390f35b6102c2610867565b60405160208082528190810183818151815260200191508051906020019080838360005b838110156102fe5780820151838201526020016102e6565b50505050905090810190601f16801561032b5780820380516001836020036101000a031916815260200191505b509250505060405180910390f35b61036e60048036036040811015610358576000806103556139dd565b50505b506001600160a01b038135169060200135610920565b604051901515815260200160405180910390f35b6103b1600480360360208110156103a15760008061039e6139dd565b50505b50356001600160a01b0316610a1e565b005b6103b1600480360360208110156103d2576000806103cf6139dd565b50505b50356001600160a01b0316610a5c565b6103ea610ad6565b60405190815260200160405180910390f35b6103ea610ae3565b6103b160048036036020811015610423576000806104206139dd565b50505b50356001600160a01b0316610aed565b61036e600480360360608110156104525760008061044f6139dd565b50505b506001600160a01b03813581169160208101359091169060400135610bcc565b61047a610bf3565b60405160ff909116815260200160405180910390f35b61047a610bf8565b6103b1610c11565b6103b1600480360360208110156104bf576000806104bc6139dd565b50505b50356001600160a01b0316610c82565b61029e610e4d565b61036e600480360360208110156104f6576000806104f36139dd565b50505b50356001600160a01b0316610e59565b6103ea60048036036020811015610525576000806105226139dd565b50505b50356001600160a01b0316611036565b6103b1611108565b6103b16004803603604081101561055c576000806105596139dd565b50505b506001600160a01b03813516906020013561128b565b61029e61139a565b6102c26113a5565b6103b1600480360360208110156105a15760008061059e6139dd565b50505b50356001600160a01b0316611447565b6103b16114c2565b61029e611605565b6103b1600480360360408110156105e0576000806105dd6139dd565b50505b506001600160a01b038135169060200135611611565b6103b160048036036020811015610615576000806106126139dd565b50505b50356001600160a01b0316611721565b6103ea611768565b61036e6004803603604081101561064c576000806106496139dd565b50505b506001600160a01b03813516906020013561176f565b61066a611834565b604051808261030080838360005b83811015610690578082015183820152602001610678565b5050505090500191505060405180910390f35b61036e600480360360408110156106c2576000806106bf6139dd565b50505b506001600160a01b038135169060200135611896565b61036e611ac6565b6103b1600480360360208110156106ff576000806106fc6139dd565b50505b50356001600160a01b0316611ad2565b6103b1611ae8565b61029e611b6a565b6103ea6004803603602081101561073e5760008061073b6139dd565b50505b5035611b76565b61029e611b9e565b6103ea611baa565b6103ea60048036036040811015610774576000806107716139dd565b50505b506001600160a01b0381358116916020013516611bb4565b6103ea611c8f565b61036e600480360360608110156107b3576000806107b06139dd565b50505b506001600160a01b03813581169160208101359091169060400135611c94565b61029e611e7c565b61029e611e88565b61029e611ea0565b6103b16004803603602081101561080a576000806108076139dd565b50505b5035611eac565b6103ea611ec0565b6103ea60048036036020811015610838576000806108356139dd565b50505b50356001600160a01b0316611eca565b6001600b610854613a48565b906101000a90046001600160a01b031681565b600880610872613a48565b600181600116156101000203166002900480601f0160208091040260200160405190810160405281815291906020830182806108ac613a48565b600181600116156101000203166002900480156109185780601f106108e65761010080836108d8613a48565b040283529160200191610918565b820191906000526020600020905b816108fd613a48565b815290600101906020018083116108f457829003601f168201915b505050505081565b600061092a6120a6565b6000806006610937613a48565b906101000a90046001600160a01b031690506007600090610956613a48565b906101000a90046001600160a01b03166001600160a01b031663da46098c8286866040516001600160e01b031960e086901b1681526001600160a01b0393841660048201529190921660248201526044810191909152606401600060405180830381600087806109c4613aa3565b1580156109d9576000806109d66139dd565b50505b505a6109e3613aef565b505050505050158015610a03573d6000803e3d6000610a006139dd565b50505b50505050610a1281858561217e565b60019150505b92915050565b610a266122f6565b806005600181610a34613a48565b816001600160a01b0302191690836001600160a01b0316021790610a56613ba8565b50505050565b610a646122f6565b8060018080610a71613a48565b816001600160a01b0302191690836001600160a01b0316021790610a93613ba8565b5050507f906a1c6bd7e3091ea86693dd029a831c19049ce77f1dce2ce0bab1cacbabce22816040516001600160a01b03909116815260200160405180910390a150565b6002610ae0613a48565b81565b600a610ae0613a48565b610af56122f6565b6001600160a01b038116610b585760405162461bcd60e51b815260206004820152601c60248201527f42656e6566696369617279206d757374206e6f74206265207a65726f00000000604482015260640160405180910390610b556139dd565b50505b80600361010081610b67613a48565b816001600160a01b0302191690836001600160a01b0316021790610b89613ba8565b5050507fd5da63a0b864b315bc04128dedbc93888c8529ee6cf47ce664dc204339228c53816040516001600160a01b03909116815260200160405180910390a150565b6000610bd66120a6565b610be0848361236e565b610beb848484612562565b949350505050565b601281565b6000600b610c04613a48565b906101000a900460ff1681565b610c196122f6565b6000806002610c26613ba8565b5050506000600360006101000a81610c3c613a48565b8160ff02191690831515021790610c51613ba8565b5050507f6adcc7125002935e0aa31697538ebbd65cfddf20431eb6ecdcfc3e238bfd082c60405160405180910390a1565b610c8a6122f6565b80600b61010081610c99613a48565b816001600160a01b0302191690836001600160a01b0316021790610cbb613ba8565b5060009150505b600d80610ccd613a48565b9050811015610e49576000600d8281610ce4613a48565b8110610cec57fe5b90600052602060002001610cfe613a48565b90506001600b610d0c613a48565b906101000a90046001600160a01b03166001600160a01b031663dacb2d01826040516001600160e01b031960e084901b1681526004810191909152604060248201819052601760448301527f5265736f6c766572206d697373696e6720746172676574000000000000000000606483015260849091019060209051808303818680610d95613aa3565b158015610daa57600080610da76139dd565b50505b505a610db4613bf6565b5050505050158015610dd3573d6000803e3d6000610dd06139dd565b50505b505050506040513d6020811015610df257600080610def6139dd565b50505b8101908080516000858152600c60205290935060409250905020600181610e17613a48565b816001600160a01b0302191690836001600160a01b0316021790610e39613ba8565b505060019092019150610cc29050565b5050565b60006001610854613a48565b60006001600160a01b0382166001600b610e71613a48565b906101000a90046001600160a01b03166001600160a01b031614610e9757506000611031565b60005b600d80610ea5613a48565b905081101561102b576000600d8281610ebc613a48565b8110610ec457fe5b90600052602060002001610ed6613a48565b6000818152600c60205290915060409020600090610ef2613a48565b6001600160a01b036101009290920a9004166001600b610f10613a48565b906101000a90046001600160a01b03166001600160a01b03166321f8a721836040516001600160e01b031960e084901b16815260048101919091526024016020604051808303818680610f61613aa3565b158015610f7657600080610f736139dd565b50505b505a610f80613bf6565b5050505050158015610f9f573d6000803e3d6000610f9c6139dd565b50505b505050506040513d6020811015610fbe57600080610fbb6139dd565b50505b8101908080516001600160a01b031693909314159250829150611012905057506000818152600c60205260408120600090610ff7613a48565b906101000a90046001600160a01b03166001600160a01b0316145b1561102257600092505050611031565b50600101610e9a565b50600190505b919050565b6000806007611043613a48565b906101000a90046001600160a01b03166001600160a01b03166370a08231836040516001600160e01b031960e084901b1681526001600160a01b039091166004820152602401602060405180830381868061109c613aa3565b1580156110b1576000806110ae6139dd565b50505b505a6110bb613bf6565b50505050501580156110da573d6000803e3d60006110d76139dd565b50505b505050506040513d60208110156110f9576000806110f66139dd565b50505b81019080805195945050505050565b60006001611114613a48565b906101000a90046001600160a01b03166001600160a01b03165a611136613caf565b6001600160a01b0316146111845760405162461bcd60e51b8152600401808060200182810382526035815260200180613d5960359139604001915050604051809103906111816139dd565b50505b7fb532073b38c83145e3e5135377a08bf9aab55bc0fd7c1179cd4fb995d2a5159c6000806111b0613a48565b906101000a90046001600160a01b031660016000906111cd613a48565b906101000a90046001600160a01b03166040516001600160a01b039283168152911660208201526040908101905180910390a16000600161120c613a48565b906101000a90046001600160a01b03166000806101000a8161122c613a48565b816001600160a01b0302191690836001600160a01b031602179061124e613ba8565b5050506000600160006101000a81611264613a48565b816001600160a01b0302191690836001600160a01b0316021790611286613ba8565b505050565b600061129561282d565b6001600160a01b03165a6112a7613caf565b6001600160a01b031614905060006112bd61287b565b6001600160a01b03165a6112cf613caf565b6001600160a01b031614905060006112e56128c6565b6001600160a01b03165a6112f7613caf565b6001600160a01b0316149050600061130d612907565b6001600160a01b03165a61131f613caf565b6001600160a01b031614905083806113345750825b8061133c5750815b806113445750805b6113885760405162461bcd60e51b8152600401808060200182810382526044815260200180613dbd60449139606001915050604051809103906113856139dd565b50505b6113928686612932565b505050505050565b600080610854613a48565b6009806113b0613a48565b600181600116156101000203166002900480601f0160208091040260200160405190810160405281815291906020830182806113ea613a48565b600181600116156101000203166002900480156109185780601f106114165761010080836108d8613a48565b820191906000526020600020905b8161142d613a48565b815290600101906020018083116114245750859350505050565b61144f6122f6565b80600460018161145d613a48565b816001600160a01b0302191690836001600160a01b031602179061147f613ba8565b5050507ffc80377ca9c49cc11ae6982f390a42db976d5530af7c43889264b13fbbd7c57e816040516001600160a01b03909116815260200160405180910390a150565b6114ca6122f6565b600060036114d6613a48565b906101000a900460ff166115395760405162461bcd60e51b815260206004820152601f60248201527f53656c66204465737472756374206e6f742079657420696e69746961746564006044820152606401604051809103906115366139dd565b50505b5a611542613cf5565b6224ea006002611550613a48565b01106115ab5760405162461bcd60e51b815260206004820152601b60248201527f53656c662064657374727563742064656c6179206e6f74206d657400000000006044820152606401604051809103906115a86139dd565b50505b7f8a09e1677ced846cb537dc2b172043bd05a1a81ad7e0033a7ef8ba762df990b7600160036115d8613a48565b906101000a90046001600160a01b03166040516001600160a01b03909116815260200160405180910390a1565b60006005610854613a48565b600061161b61282d565b6001600160a01b03165a61162d613caf565b6001600160a01b0316149050600061164361287b565b6001600160a01b03165a611655613caf565b6001600160a01b0316149050600061166b6128c6565b6001600160a01b03165a61167d613caf565b6001600160a01b03161490506000611693612907565b6001600160a01b03165a6116a5613caf565b6001600160a01b031614905083806116ba5750825b806116c25750815b806116ca5750805b61170e5760405162461bcd60e51b8152600401808060200182810382526044815260200180613dbd604491396060019150506040518091039061170b6139dd565b50505b6117188686612af5565b50505050505050565b611729612c4e565b806007600181611737613a48565b816001600160a01b0302191690836001600160a01b0316021790611759613ba8565b50505061176581612dd9565b50565b6224ea0081565b60006117796120a6565b61179e60006006611788613a48565b906101000a90046001600160a01b03168361236e565b6001600160a01b03831673feefeefeefeefeefeefeefeefeefeefeefeefeef14156117d4576117cd8383612f64565b9050610a18565b6001600160a01b038316611807576117cd600060066117f1613a48565b906101000a90046001600160a01b031683612af5565b61182d60006006611816613a48565b906101000a90046001600160a01b03168484613162565b9392505050565b61183c613d3b565b60005b600d8061184a613a48565b905081101561189257600d818161185f613a48565b811061186757fe5b90600052602060002001611879613a48565b82826018811061188557fe5b602002015260010161183f565b5090565b60006118a06120a6565b60006118aa61287b565b6001600160a01b0316631b16802c600060066118c4613a48565b906101000a90046001600160a01b0316600e6118de613a48565b6040516001600160e01b031960e085901b1681526001600160a01b03909216600483015260248201526044016060604051808303816000878061191f613aa3565b158015611934576000806119316139dd565b50505b505a61193e613aef565b50505050505015801561195e573d6000803e3d600061195b6139dd565b50505b505050506040513d606081101561197d5760008061197a6139dd565b50505b8101908080519291906020018051929190602001805195508794505084159250611a8691505057600060076119b0613a48565b6001600160a01b036101009290920a9004166370a08231600060066119d3613a48565b906101000a90046001600160a01b03166040516001600160e01b031960e084901b1681526001600160a01b0390911660048201526024016020604051808303818680611a1d613aa3565b158015611a3257600080611a2f6139dd565b50505b505a611a3c613bf6565b5050505050158015611a5b573d6000803e3d6000611a586139dd565b50505b505050506040513d6020811015611a7a57600080611a776139dd565b50505b81019080805193505050505b808411611a935783611a95565b805b9350611abd60006006611aa6613a48565b906101000a90046001600160a01b03168686613162565b95945050505050565b60006003610c04613a48565b611ada6134b0565b806006600181610a34613a48565b611af06122f6565b5a611af9613cf5565b806002611b04613ba8565b5050506001600360006101000a81611b1a613a48565b8160ff02191690831515021790611b2f613ba8565b5050507fcbd94ca75b8dc45c9d80c77e851670e78843c0d75180cb81db3e2158228fa9a66224ea0060405190815260200160405180910390a1565b60016003610854613a48565b600d8181611b82613a48565b8110611b8a57fe5b906000526020600020019050610ae0613a48565b60006006610854613a48565b600e610ae0613a48565b6000806007611bc1613a48565b906101000a90046001600160a01b03166001600160a01b031663dd62ed3e84846040516001600160e01b031960e085901b1681526001600160a01b039283166004820152911660248201526044016020604051808303818680611c22613aa3565b158015611c3757600080611c346139dd565b50505b505a611c41613bf6565b5050505050158015611c60573d6000803e3d6000611c5d6139dd565b50505b505050506040513d6020811015611c7f57600080611c7c6139dd565b50505b8101908080519695505050505050565b601881565b6000611c9e6120a6565b6000611ca861287b565b6001600160a01b0316631b16802c86600e611cc1613a48565b6040516001600160e01b031960e085901b1681526001600160a01b039092166004830152602482015260440160606040518083038160008780611d02613aa3565b158015611d1757600080611d146139dd565b50505b505a611d21613aef565b505050505050158015611d41573d6000803e3d6000611d3e6139dd565b50505b505050506040513d6060811015611d6057600080611d5d6139dd565b50505b8101908080519291906020018051929190602001805195508794505084159250611e559150505760006007611d93613a48565b906101000a90046001600160a01b03166001600160a01b03166370a08231876040516001600160e01b031960e084901b1681526001600160a01b0390911660048201526024016020604051808303818680611dec613aa3565b158015611e0157600080611dfe6139dd565b50505b505a611e0b613bf6565b5050505050158015611e2a573d6000803e3d6000611e276139dd565b50505b505050506040513d6020811015611e4957600080611e466139dd565b50505b81019080805193505050505b80841015611e635783611e65565b805b9350611e72868686612562565b9695505050505050565b60006007610854613a48565b73feefeefeefeefeefeefeefeefeefeefeefeefeef81565b60006004610854613a48565b611eb4612c4e565b8080600a610a56613ba8565b6027610ae0613a48565b600080611ed561287b565b6001600160a01b03166319d5c66584600e611eee613a48565b6040516001600160e01b031960e085901b1681526001600160a01b03909216600483015260248201526044016060604051808303818680611f2d613aa3565b158015611f4257600080611f3f6139dd565b50505b505a611f4c613bf6565b5050505050158015611f6b573d6000803e3d6000611f686139dd565b50505b505050506040513d6060811015611f8a57600080611f876139dd565b50505b81019080805192919060200180519291906020018051509394506000935083925060079150611fb99050613a48565b906101000a90046001600160a01b03166001600160a01b03166370a08231856040516001600160e01b031960e084901b1681526001600160a01b0390911660048201526024016020604051808303818680612012613aa3565b158015612027576000806120246139dd565b50505b505a612031613bf6565b5050505050158015612050573d6000803e3d600061204d6139dd565b50505b505050506040513d602081101561206f5760008061206c6139dd565b50505b81019080805193505050508082111561208d57600092505050611031565b61209d818363ffffffff61357d16565b92505050611031565b600060046120b2613a48565b906101000a90046001600160a01b03166001600160a01b03165a6120d4613caf565b6001600160a01b0316141580156121205750600060056120f2613a48565b906101000a90046001600160a01b03166001600160a01b03165a612114613caf565b6001600160a01b031614155b801561216157505a612130613caf565b6001600160a01b031660006006612145613a48565b906101000a90046001600160a01b03166001600160a01b031614155b1561217c575a61216f613caf565b6006600181611264613a48565b565b6000600461218a613a48565b906101000a90046001600160a01b03166001600160a01b031663907dff9782604051602001808281526020019150506040516020818303038152906040526003604051806021613e5b8239602101905060405180910390206121eb886135e2565b6121f4886135e2565b60006040518763ffffffff1660e01b815260040180806020018781526020018681526020018581526020018481526020018360001b8152602001828103825288818151815260200191508051906020019080838360005b8381101561226357808201518382015260200161224b565b50505050905090810190601f1680156122905780820380516001836020036101000a031916815260200191505b50975050505050505050600060405180830381600087806122af613aa3565b1580156122c4576000806122c16139dd565b50505b505a6122ce613aef565b505050505050158015611718573d6000803e3d60006122eb6139dd565b505050505050505050565b600080612301613a48565b906101000a90046001600160a01b03166001600160a01b03165a612323613caf565b6001600160a01b03161461217c5760405162461bcd60e51b815260040180806020018281038252602f815260200180613e2c602f913960400191505060405180910390610e496139dd565b61237661287b565b6001600160a01b031663059c29ec83600e61238f613a48565b6040516001600160e01b031960e085901b1681526001600160a01b039092166004830152602482015260440160206040518083038186806123ce613aa3565b1580156123e3576000806123e06139dd565b50505b505a6123ed613bf6565b505050505015801561240c573d6000803e3d60006124096139dd565b50505b505050506040513d602081101561242b576000806124286139dd565b50505b81019080805115925061247b9150505760405162461bcd60e51b8152600401808060200182810382526025815260200180613e7c60259139604001915050604051809103906124786139dd565b50505b8061248583611eca565b10156124cb5760405162461bcd60e51b815260040180806020018281038252602f815260200180613d8e602f9139604001915050604051809103906124c86139dd565b50505b6124d36135ee565b6001600160a01b03166342a28e21600e6124eb613a48565b6040516001600160e01b031960e084901b1681526004810191909152602401600060405180830381868061251d613aa3565b1580156125325760008061252f6139dd565b50505b505a61253c613bf6565b5050505050158015611392573d6000803e3d60006125586139dd565b5050505050505050565b6000600019816007612572613a48565b6001600160a01b036101009290920a90041663dd62ed3e8660006006612596613a48565b906101000a90046001600160a01b03166040516001600160e01b031960e085901b1681526001600160a01b0392831660048201529116602482015260440160206040518083038186806125e7613aa3565b1580156125fc576000806125f96139dd565b50505b505a612606613bf6565b5050505050158015612625573d6000803e3d60006126226139dd565b50505b505050506040513d6020811015612644576000806126416139dd565b50505b8101908080519390931492506128229150505760006007612663613a48565b6001600160a01b036101009290920a90041663da46098c8560006006612687613a48565b906101000a90046001600160a01b03166127918660076000906126a8613a48565b6001600160a01b036101009290920a90041663dd62ed3e8b600060066126cc613a48565b906101000a90046001600160a01b03166040516001600160e01b031960e085901b1681526001600160a01b03928316600482015291166024820152604401602060405180830381868061271d613aa3565b1580156127325760008061272f6139dd565b50505b505a61273c613bf6565b505050505015801561275b573d6000803e3d60006127586139dd565b50505b505050506040513d602081101561277a576000806127776139dd565b50505b8101908080519392505063ffffffff61357d169050565b6040516001600160e01b031960e086901b1681526001600160a01b0393841660048201529190921660248201526044810191909152606401600060405180830381600087806127de613aa3565b1580156127f3576000806127f06139dd565b50505b505a6127fd613aef565b50505050505015801561281d573d6000803e3d600061281a6139dd565b50505b505050505b610beb848484613162565b600061287666119959541bdbdb60ca1b60405160408082019052601781527f4d697373696e6720466565506f6f6c20616464726573730000000000000000006020820152613638565b905090565b60006128766822bc31b430b733b2b960b91b60405160408082019052601981527f4d697373696e672045786368616e6765722061646472657373000000000000006020820152613638565b60006128766524b9b9bab2b960d11b6040516040808201905260168152754d697373696e6720497373756572206164647265737360501b6020820152613638565b60006128766027612916613a48565b60405160608101604052602b808252613e016020830139613638565b6000600761293e613a48565b6001600160a01b036101009290920a90041663b46310f683612a338460006007612966613a48565b906101000a90046001600160a01b03166001600160a01b03166370a08231886040516001600160e01b031960e084901b1681526001600160a01b03909116600482015260240160206040518083038186806129bf613aa3565b1580156129d4576000806129d16139dd565b50505b505a6129de613bf6565b50505050501580156129fd573d6000803e3d60006129fa6139dd565b50505b505050506040513d6020811015612a1c57600080612a196139dd565b50505b8101908080519392505063ffffffff613701169050565b6040516001600160e01b031960e085901b1681526001600160a01b039092166004830152602482015260440160006040518083038160008780612a74613aa3565b158015612a8957600080612a866139dd565b50505b505a612a93613aef565b505050505050158015612ab3573d6000803e3d6000612ab06139dd565b50505b50505050612ad181600a612ac5613a48565b9063ffffffff61370116565b80600a612adc613ba8565b505050612aeb60008383613769565b610e4982826137d6565b6000806007612b02613a48565b6001600160a01b036101009290920a90041663b46310f684612b838560006007612b2a613a48565b906101000a90046001600160a01b03166001600160a01b03166370a08231896040516001600160e01b031960e084901b1681526001600160a01b039091166004820152602401602060405180830381868061271d613aa3565b6040516001600160e01b031960e085901b1681526001600160a01b039092166004830152602482015260440160006040518083038160008780612bc4613aa3565b158015612bd957600080612bd66139dd565b50505b505a612be3613aef565b505050505050158015612c03573d6000803e3d6000612c006139dd565b50505b50505050612c2182600a612c15613a48565b9063ffffffff61357d16565b80600a612c2c613ba8565b505050612c3b83600084613769565b612c458383613957565b50600192915050565b60006004612c5a613a48565b906101000a90046001600160a01b03166001600160a01b03165a612c7c613caf565b6001600160a01b031614158015612cc8575060006005612c9a613a48565b906101000a90046001600160a01b03166001600160a01b03165a612cbc613caf565b6001600160a01b031614155b8015612d0957505a612cd8613caf565b6001600160a01b031660006006612ced613a48565b906101000a90046001600160a01b03166001600160a01b031614155b15612d4a575a612d17613caf565b6006600181612d24613a48565b816001600160a01b0302191690836001600160a01b0316021790612d46613ba8565b5050505b600080612d55613a48565b6001600160a01b036101009290920a90041660006006612d73613a48565b906101000a90046001600160a01b03166001600160a01b03161461217c5760405162461bcd60e51b815260206004820152601360248201527227bbb732b91037b7363c90333ab731ba34b7b760691b604482015260640160405180910390610e496139dd565b60006004612de5613a48565b906101000a90046001600160a01b03166001600160a01b031663907dff97826040516001600160a01b0390911660208201526040908101905160208183030381529060405260016040517f546f6b656e5374617465557064617465642861646472657373290000000000008152601a01604051809103902060008060006040518763ffffffff1660e01b815260040180806020018781526020018681526020018560001b81526020018460001b81526020018360001b8152602001828103825288818151815260200191508051906020019080838360005b83811015612ed5578082015183820152602001612ebd565b50505050905090810190601f168015612f025780820380516001836020036101000a031916815260200191505b5097505050505050505060006040518083038160008780612f21613aa3565b158015612f3657600080612f336139dd565b50505b505a612f40613aef565b505050505050158015612f5d573d6000803e3d60006117186139dd565b5050505050565b600080600e612f71613a48565b631cd554d160e21b1415612fad575081612fa760006006612f90613a48565b906101000a90046001600160a01b03168585613162565b506130ca565b612fb561287b565b6001600160a01b0316630a1e187d60006006612fcf613a48565b906101000a90046001600160a01b0316600e612fe9613a48565b8673feefeefeefeefeefeefeefeefeefeefeefeefeef6040516001600160e01b031960e087901b1681526001600160a01b03948516600482015260248101939093526044830191909152631cd554d160e21b6064830152909116608482015260a40160206040518083038160008780613060613aa3565b158015613075576000806130726139dd565b50505b505a61307f613aef565b50505050505015801561309f573d6000803e3d600061309c6139dd565b50505b505050506040513d60208110156130be576000806130bb6139dd565b50505b81019080805193505050505b6130d261282d565b6001600160a01b03166322bf55ef826040516001600160e01b031960e084901b168152600481019190915260240160006040518083038160008780613115613aa3565b15801561312a576000806131276139dd565b50505b505a613134613aef565b505050505050158015613154573d6000803e3d60006131516139dd565b50505b506001979650505050505050565b60006001600160a01b038316158015906131e657505a63996d79a5598160e01b8152602081600483336000905af158600e01573d6000803e3d6000fd5b3d6001141558600a015760016000f35b8051925060005b60408110156131cd576000828201526020016131b6565b5050506001600160a01b0316836001600160a01b031614155b801561321f5750600060046131f9613a48565b906101000a90046001600160a01b03166001600160a01b0316836001600160a01b031614155b6132785760405162461bcd60e51b815260206004820152601f60248201527f43616e6e6f74207472616e7366657220746f20746869732061646472657373006044820152606401604051809103906132756139dd565b50505b60006007613284613a48565b6001600160a01b036101009290920a90041663b46310f68561330585600060076132ac613a48565b906101000a90046001600160a01b03166001600160a01b03166370a082318a6040516001600160e01b031960e084901b1681526001600160a01b039091166004820152602401602060405180830381868061271d613aa3565b6040516001600160e01b031960e085901b1681526001600160a01b039092166004830152602482015260440160006040518083038160008780613346613aa3565b15801561335b576000806133586139dd565b50505b505a613365613aef565b505050505050158015613385573d6000803e3d60006133826139dd565b50505b505050506007600090613396613a48565b6001600160a01b036101009290920a90041663b46310f68461341785600060076133be613a48565b906101000a90046001600160a01b03166001600160a01b03166370a08231896040516001600160e01b031960e084901b1681526001600160a01b03909116600482015260240160206040518083038186806129bf613aa3565b6040516001600160e01b031960e085901b1681526001600160a01b039092166004830152602482015260440160006040518083038160008780613458613aa3565b15801561346d5760008061346a6139dd565b50505b505a613477613aef565b505050505050158015613497573d6000803e3d60006134946139dd565b50505b505050506134a6848484613769565b5060019392505050565b600060046134bc613a48565b906101000a90046001600160a01b03166001600160a01b03165a6134de613caf565b6001600160a01b031614806135275750600060056134fa613a48565b906101000a90046001600160a01b03166001600160a01b03165a61351c613caf565b6001600160a01b0316145b61217c5760405162461bcd60e51b815260206004820152601760248201527f4f6e6c79207468652070726f78792063616e2063616c6c000000000000000000604482015260640160405180910390610e496139dd565b6000828211156135dc5760405162461bcd60e51b815260206004820152601e60248201527f536166654d6174683a207375627472616374696f6e206f766572666c6f7700006044820152606401604051809103906135d96139dd565b50505b50900390565b6001600160a01b031690565b60006128766b53797374656d53746174757360a01b60405160408082019052601c81527f4d697373696e672053797374656d53746174757320616464726573730000000060208201525b6000828152600c6020528060408120600090613652613a48565b6001600160a01b036101009290920a900416905082816136f95760405162461bcd60e51b81526004018080602001828103825283818151815260200191508051906020019080838360005b838110156136b557808201518382015260200161369d565b50505050905090810190601f1680156136e25780820380516001836020036101000a031916815260200191505b5092505050604051809103906136f66139dd565b50505b509392505050565b60008282018381101561182d5760405162461bcd60e51b815260206004820152601b60248201527f536166654d6174683a206164646974696f6e206f766572666c6f7700000000006044820152606401604051809103906137606139dd565b50509392505050565b60006004613775613a48565b906101000a90046001600160a01b03166001600160a01b031663907dff9782604051602001808281526020019150506040516020818303038152906040526003604051806021613ea18239602101905060405180910390206121eb886135e2565b600060046137e2613a48565b906101000a90046001600160a01b03166001600160a01b031663907dff97826040516020018082815260200191505060405160208183030381529060405260026040517f49737375656428616464726573732c75696e74323536290000000000000000008152601701604051809103902061385c876135e2565b6000806040518763ffffffff1660e01b815260040180806020018781526020018681526020018581526020018460001b81526020018360001b8152602001828103825288818151815260200191508051906020019080838360005b838110156138cf5780820151838201526020016138b7565b50505050905090810190601f1680156138fc5780820380516001836020036101000a031916815260200191505b509750505050505050506000604051808303816000878061391b613aa3565b1580156139305760008061392d6139dd565b50505b505a61393a613aef565b505050505050158015611392573d6000803e3d60006125586139dd565b60006004613963613a48565b906101000a90046001600160a01b03166001600160a01b031663907dff97826040516020018082815260200191505060405160208183030381529060405260026040517f4275726e656428616464726573732c75696e74323536290000000000000000008152601701604051809103902061385c876135e2565b632a2a7adb598160e01b8152600481016020815285602082015260005b86811015613a155780860151828201604001526020016139fa565b506020828760640184336000905af158600e01573d6000803e3d6000fd5b3d6001141558600a015760016000f35b505050565b6303daa959598160e01b8152836004820152602081602483336000905af158600e01573d6000803e3d6000fd5b3d6001141558600a015760016000f35b8051935060005b604081101561128657600082820152602001613a8c565b638435035b598160e01b8152836004820152602081602483336000905af158600e01573d6000803e3d6000fd5b3d6001141558600a015760016000f35b80516000825293506020613a8c565b6385979f76598160e01b8152836004820152846024820152606060448201528760648201526084810160005b89811015613b33578089015182820152602001613b1b565b50886101040182016060838b6101040185336000905af158600e01573d6000803e3d6000fd5b3d6001141558600a015760016000f35b825160408401513d6000863e8d8d82606088013350600060045af15059855b81811015613b9c5760008152602001613b88565b50919d50505050505050565b6322bd64c0598160e01b8152836004820152846024820152600081604483336000905af158600e01573d6000803e3d6000fd5b3d6001141558600a015760016000f35b600081526020613a8c565b638540661f598160e01b8152836004820152846024820152606060448201528660648201526084810160005b88811015613c3a578088015182820152602001613c22565b50876101040182016060838a6101040185336000905af158600e01573d6000803e3d6000fd5b3d6001141558600a015760016000f35b825160408401513d6000863e8c8c82606088013350600060045af15059855b81811015613ca35760008152602001613c8f565b50919c50505050505050565b6373509064598160e01b8152602081600483336000905af158600e01573d6000803e3d6000fd5b3d6001141558600a015760016000f35b80516000825293506020613a8c565b63bdbf8c36598160e01b8152602081600483336000905af158600e01573d6000803e3d6000fd5b3d6001141558600a015760016000f35b80516000825293506020613a8c565b60405161030080820160405260189082908038833950919291505056fe596f75206d757374206265206e6f6d696e61746564206265666f726520796f752063616e20616363657074206f776e657273686970496e73756666696369656e742062616c616e636520616674657220616e7920736574746c656d656e74206f77696e674f6e6c7920466565506f6f6c2c2045786368616e6765722c20497373756572206f72204d756c7469436f6c6c61746572616c20636f6e74726163747320616c6c6f7765645265736f6c766572206973206d697373696e67206d756c7469436f6c6c61746572616c20616464726573734f6e6c792074686520636f6e7472616374206f776e6572206d617920706572666f726d207468697320616374696f6e417070726f76616c28616464726573732c616464726573732c75696e743235362943616e6e6f74207472616e7366657220647572696e672077616974696e6720706572696f645472616e7366657228616464726573732c616464726573732c75696e7432353629",
			"opcodes": "PUSH1 0x80 PUSH1 0x40 MSTORE PUSH1 0x40 MLOAD PUSH1 0x80 DUP2 ADD PUSH1 0x40 SWAP1 DUP2 MSTORE PUSH12 0x53797374656D537461747573 PUSH1 0xA0 SHL DUP3 MSTORE PUSH9 0x22BC31B430B733B2B9 PUSH1 0xB9 SHL PUSH1 0x20 DUP4 ADD MSTORE PUSH6 0x24B9B9BAB2B9 PUSH1 0xD1 SHL SWAP1 DUP3 ADD MSTORE PUSH7 0x119959541BDBDB PUSH1 0xCA SHL PUSH1 0x60 DUP3 ADD MSTORE PUSH3 0x62 SWAP1 PUSH1 0xF SWAP1 PUSH1 0x4 PUSH3 0xAB9 JUMP JUMPDEST POP CALLVALUE DUP1 ISZERO PUSH3 0x7B JUMPI PUSH1 0x0 DUP1 PUSH3 0x78 PUSH3 0xB07 JUMP JUMPDEST POP POP JUMPDEST POP PUSH1 0x40 MLOAD PUSH3 0x4D03 CODESIZE SUB DUP1 PUSH3 0x4D03 DUP4 CODECOPY DUP2 DUP2 ADD PUSH1 0x40 MSTORE PUSH2 0x120 DUP2 LT ISZERO PUSH3 0xAD JUMPI PUSH1 0x0 DUP1 PUSH3 0xAA PUSH3 0xB07 JUMP JUMPDEST POP POP JUMPDEST DUP2 ADD SWAP1 DUP1 DUP1 MLOAD SWAP3 SWAP2 SWAP1 PUSH1 0x20 ADD DUP1 MLOAD SWAP3 SWAP2 SWAP1 PUSH1 0x20 ADD DUP1 MLOAD PUSH1 0x40 MLOAD SWAP4 SWAP3 SWAP2 SWAP1 DUP5 PUSH5 0x100000000 DUP3 GT ISZERO PUSH3 0xE9 JUMPI PUSH1 0x0 DUP1 PUSH3 0xE6 PUSH3 0xB07 JUMP JUMPDEST POP POP JUMPDEST SWAP1 DUP4 ADD SWAP1 PUSH1 0x20 DUP3 ADD DUP6 DUP2 GT ISZERO PUSH3 0x10A JUMPI PUSH1 0x0 DUP1 PUSH3 0x107 PUSH3 0xB07 JUMP JUMPDEST POP POP JUMPDEST DUP3 MLOAD PUSH5 0x100000000 DUP2 GT DUP3 DUP3 ADD DUP9 LT OR ISZERO PUSH3 0x130 JUMPI PUSH1 0x0 DUP1 PUSH3 0x12D PUSH3 0xB07 JUMP JUMPDEST POP POP JUMPDEST DUP3 MSTORE POP PUSH1 0x20 ADD SWAP1 DUP1 MLOAD SWAP1 PUSH1 0x20 ADD SWAP1 DUP1 DUP4 DUP4 PUSH1 0x0 JUMPDEST DUP4 DUP2 LT ISZERO PUSH3 0x15E JUMPI DUP1 DUP3 ADD MLOAD DUP4 DUP3 ADD MSTORE PUSH1 0x20 ADD PUSH3 0x144 JUMP JUMPDEST POP POP POP POP SWAP1 POP SWAP1 DUP2 ADD SWAP1 PUSH1 0x1F AND DUP1 ISZERO PUSH3 0x18C JUMPI DUP1 DUP3 SUB DUP1 MLOAD PUSH1 0x1 DUP4 PUSH1 0x20 SUB PUSH2 0x100 EXP SUB NOT AND DUP2 MSTORE PUSH1 0x20 ADD SWAP2 POP JUMPDEST POP PUSH1 0x40 MSTORE PUSH1 0x20 ADD DUP1 MLOAD PUSH1 0x40 MLOAD SWAP4 SWAP3 SWAP2 SWAP1 DUP5 PUSH5 0x100000000 DUP3 GT ISZERO PUSH3 0x1BB JUMPI PUSH1 0x0 DUP1 PUSH3 0x1B8 PUSH3 0xB07 JUMP JUMPDEST POP POP JUMPDEST SWAP1 DUP4 ADD SWAP1 PUSH1 0x20 DUP3 ADD DUP6 DUP2 GT ISZERO PUSH3 0x1DC JUMPI PUSH1 0x0 DUP1 PUSH3 0x1D9 PUSH3 0xB07 JUMP JUMPDEST POP POP JUMPDEST DUP3 MLOAD PUSH5 0x100000000 DUP2 GT DUP3 DUP3 ADD DUP9 LT OR ISZERO PUSH3 0x202 JUMPI PUSH1 0x0 DUP1 PUSH3 0x1FF PUSH3 0xB07 JUMP JUMPDEST POP POP JUMPDEST DUP3 MSTORE POP PUSH1 0x20 ADD SWAP1 DUP1 MLOAD SWAP1 PUSH1 0x20 ADD SWAP1 DUP1 DUP4 DUP4 PUSH1 0x0 JUMPDEST DUP4 DUP2 LT ISZERO PUSH3 0x230 JUMPI DUP1 DUP3 ADD MLOAD DUP4 DUP3 ADD MSTORE PUSH1 0x20 ADD PUSH3 0x216 JUMP JUMPDEST POP POP POP POP SWAP1 POP SWAP1 DUP2 ADD SWAP1 PUSH1 0x1F AND DUP1 ISZERO PUSH3 0x25E JUMPI DUP1 DUP3 SUB DUP1 MLOAD PUSH1 0x1 DUP4 PUSH1 0x20 SUB PUSH2 0x100 EXP SUB NOT AND DUP2 MSTORE PUSH1 0x20 ADD SWAP2 POP JUMPDEST POP PUSH1 0x40 MSTORE PUSH1 0x20 ADD DUP1 MLOAD SWAP3 SWAP2 SWAP1 PUSH1 0x20 ADD DUP1 MLOAD SWAP3 SWAP2 SWAP1 PUSH1 0x20 ADD DUP1 MLOAD SWAP3 SWAP2 SWAP1 PUSH1 0x20 ADD DUP1 MLOAD SWAP3 SWAP2 SWAP1 PUSH1 0x20 ADD DUP1 MLOAD SWAP3 POP DUP11 SWAP2 POP DUP10 SWAP1 POP DUP9 DUP9 DUP9 DUP9 DUP9 DUP9 DUP1 PUSH1 0xF PUSH1 0x18 PUSH2 0x300 PUSH1 0x40 MLOAD SWAP1 DUP2 ADD PUSH1 0x40 MSTORE SWAP2 SWAP1 PUSH2 0x300 DUP4 ADD DUP3 DUP5 JUMPDEST DUP2 PUSH3 0x2BB PUSH3 0xB74 JUMP JUMPDEST DUP2 MSTORE PUSH1 0x20 ADD SWAP1 PUSH1 0x1 ADD SWAP1 DUP1 DUP4 GT PUSH3 0x2B0 JUMPI POP POP POP POP POP DUP10 DUP10 DUP10 DUP10 DUP8 PUSH1 0x12 DUP12 DUP7 DUP2 PUSH1 0x0 PUSH1 0x1 PUSH1 0x1 PUSH1 0xA0 SHL SUB AND DUP2 PUSH1 0x1 PUSH1 0x1 PUSH1 0xA0 SHL SUB AND EQ ISZERO PUSH3 0x34F JUMPI PUSH1 0x40 MLOAD PUSH3 0x461BCD PUSH1 0xE5 SHL DUP2 MSTORE PUSH1 0x20 PUSH1 0x4 DUP3 ADD MSTORE PUSH1 0x19 PUSH1 0x24 DUP3 ADD MSTORE PUSH32 0x4F776E657220616464726573732063616E6E6F74206265203000000000000000 PUSH1 0x44 DUP3 ADD MSTORE PUSH1 0x64 ADD PUSH1 0x40 MLOAD DUP1 SWAP2 SUB SWAP1 PUSH3 0x34C PUSH3 0xB07 JUMP JUMPDEST POP POP JUMPDEST DUP1 PUSH1 0x0 PUSH1 0x1 DUP2 PUSH3 0x35F PUSH3 0xB74 JUMP JUMPDEST DUP2 PUSH1 0x1 PUSH1 0x1 PUSH1 0xA0 SHL SUB MUL NOT AND SWAP1 DUP4 PUSH1 0x1 PUSH1 0x1 PUSH1 0xA0 SHL SUB AND MUL OR SWAP1 PUSH3 0x383 PUSH3 0xBD6 JUMP JUMPDEST POP POP POP PUSH32 0xB532073B38C83145E3E5135377A08BF9AAB55BC0FD7C1179CD4FB995D2A5159C PUSH1 0x0 DUP3 PUSH1 0x40 MLOAD PUSH1 0x1 PUSH1 0x1 PUSH1 0xA0 SHL SUB SWAP3 DUP4 AND DUP2 MSTORE SWAP2 AND PUSH1 0x20 DUP3 ADD MSTORE PUSH1 0x40 SWAP1 DUP2 ADD SWAP1 MLOAD DUP1 SWAP2 SUB SWAP1 LOG1 POP PUSH1 0x0 DUP1 DUP1 PUSH3 0x3DC PUSH3 0xB74 JUMP JUMPDEST SWAP1 PUSH2 0x100 EXP SWAP1 DIV PUSH1 0x1 PUSH1 0x1 PUSH1 0xA0 SHL SUB AND PUSH1 0x1 PUSH1 0x1 PUSH1 0xA0 SHL SUB AND EQ ISZERO PUSH3 0x447 JUMPI PUSH1 0x40 MLOAD PUSH3 0x461BCD PUSH1 0xE5 SHL DUP2 MSTORE PUSH1 0x20 PUSH1 0x4 DUP3 ADD MSTORE PUSH1 0x11 PUSH1 0x24 DUP3 ADD MSTORE PUSH17 0x13DDDB995C881B5D5CDD081899481CD95D PUSH1 0x7A SHL PUSH1 0x44 DUP3 ADD MSTORE PUSH1 0x64 ADD PUSH1 0x40 MLOAD DUP1 SWAP2 SUB SWAP1 PUSH3 0x444 PUSH3 0xB07 JUMP JUMPDEST POP POP JUMPDEST PUSH1 0x0 DUP1 PUSH3 0x454 PUSH3 0xB74 JUMP JUMPDEST SWAP1 PUSH2 0x100 EXP SWAP1 DIV PUSH1 0x1 PUSH1 0x1 PUSH1 0xA0 SHL SUB AND PUSH1 0x3 PUSH1 0x1 PUSH2 0x100 EXP DUP2 PUSH3 0x477 PUSH3 0xB74 JUMP JUMPDEST DUP2 PUSH1 0x1 PUSH1 0x1 PUSH1 0xA0 SHL SUB MUL NOT AND SWAP1 DUP4 PUSH1 0x1 PUSH1 0x1 PUSH1 0xA0 SHL SUB AND MUL OR SWAP1 PUSH3 0x49B PUSH3 0xBD6 JUMP JUMPDEST POP POP POP PUSH32 0xD5DA63A0B864B315BC04128DEDBC93888C8529EE6CF47CE664DC204339228C53 PUSH1 0x0 DUP1 SWAP1 PUSH3 0x4CD PUSH3 0xB74 JUMP JUMPDEST SWAP1 PUSH2 0x100 EXP SWAP1 DIV PUSH1 0x1 PUSH1 0x1 PUSH1 0xA0 SHL SUB AND PUSH1 0x40 MLOAD PUSH1 0x1 PUSH1 0x1 PUSH1 0xA0 SHL SUB SWAP1 SWAP2 AND DUP2 MSTORE PUSH1 0x20 ADD PUSH1 0x40 MLOAD DUP1 SWAP2 SUB SWAP1 LOG1 PUSH1 0x0 DUP1 DUP1 PUSH3 0x506 PUSH3 0xB74 JUMP JUMPDEST SWAP1 PUSH2 0x100 EXP SWAP1 DIV PUSH1 0x1 PUSH1 0x1 PUSH1 0xA0 SHL SUB AND PUSH1 0x1 PUSH1 0x1 PUSH1 0xA0 SHL SUB AND EQ ISZERO PUSH3 0x571 JUMPI PUSH1 0x40 MLOAD PUSH3 0x461BCD PUSH1 0xE5 SHL DUP2 MSTORE PUSH1 0x20 PUSH1 0x4 DUP3 ADD MSTORE PUSH1 0x11 PUSH1 0x24 DUP3 ADD MSTORE PUSH17 0x13DDDB995C881B5D5CDD081899481CD95D PUSH1 0x7A SHL PUSH1 0x44 DUP3 ADD MSTORE PUSH1 0x64 ADD PUSH1 0x40 MLOAD DUP1 SWAP2 SUB SWAP1 PUSH3 0x56E PUSH3 0xB07 JUMP JUMPDEST POP POP JUMPDEST DUP1 PUSH1 0x4 PUSH1 0x1 DUP2 PUSH3 0x581 PUSH3 0xB74 JUMP JUMPDEST DUP2 PUSH1 0x1 PUSH1 0x1 PUSH1 0xA0 SHL SUB MUL NOT AND SWAP1 DUP4 PUSH1 0x1 PUSH1 0x1 PUSH1 0xA0 SHL SUB AND MUL OR SWAP1 PUSH3 0x5A5 PUSH3 0xBD6 JUMP JUMPDEST POP POP POP PUSH32 0xFC80377CA9C49CC11AE6982F390A42DB976D5530AF7C43889264B13FBBD7C57E DUP2 PUSH1 0x40 MLOAD PUSH1 0x1 PUSH1 0x1 PUSH1 0xA0 SHL SUB SWAP1 SWAP2 AND DUP2 MSTORE PUSH1 0x20 ADD PUSH1 0x40 MLOAD DUP1 SWAP2 SUB SWAP1 LOG1 POP DUP6 PUSH1 0x7 PUSH1 0x1 DUP2 PUSH3 0x5F6 PUSH3 0xB74 JUMP JUMPDEST DUP2 PUSH1 0x1 PUSH1 0x1 PUSH1 0xA0 SHL SUB MUL NOT AND SWAP1 DUP4 PUSH1 0x1 PUSH1 0x1 PUSH1 0xA0 SHL SUB AND MUL OR SWAP1 PUSH3 0x61A PUSH3 0xBD6 JUMP JUMPDEST POP POP POP DUP5 PUSH1 0x8 SWAP1 DUP1 MLOAD PUSH3 0x633 SWAP3 SWAP2 PUSH1 0x20 ADD SWAP1 PUSH3 0xC25 JUMP JUMPDEST POP PUSH1 0x9 DUP5 DUP1 MLOAD PUSH3 0x649 SWAP3 SWAP2 PUSH1 0x20 ADD SWAP1 PUSH3 0xC25 JUMP JUMPDEST POP DUP3 DUP1 PUSH1 0xA PUSH3 0x658 PUSH3 0xBD6 JUMP JUMPDEST POP POP POP DUP2 PUSH1 0xB PUSH1 0x0 PUSH2 0x100 EXP DUP2 PUSH3 0x66F PUSH3 0xB74 JUMP JUMPDEST DUP2 PUSH1 0xFF MUL NOT AND SWAP1 DUP4 PUSH1 0xFF AND MUL OR SWAP1 PUSH3 0x687 PUSH3 0xBD6 JUMP JUMPDEST POP POP POP POP POP POP POP POP POP POP PUSH1 0x0 PUSH1 0x1 PUSH1 0x1 PUSH1 0xA0 SHL SUB AND PUSH1 0x0 DUP1 SWAP1 PUSH3 0x6AA PUSH3 0xB74 JUMP JUMPDEST SWAP1 PUSH2 0x100 EXP SWAP1 DIV PUSH1 0x1 PUSH1 0x1 PUSH1 0xA0 SHL SUB AND PUSH1 0x1 PUSH1 0x1 PUSH1 0xA0 SHL SUB AND EQ ISZERO PUSH3 0x715 JUMPI PUSH1 0x40 MLOAD PUSH3 0x461BCD PUSH1 0xE5 SHL DUP2 MSTORE PUSH1 0x20 PUSH1 0x4 DUP3 ADD MSTORE PUSH1 0x11 PUSH1 0x24 DUP3 ADD MSTORE PUSH17 0x13DDDB995C881B5D5CDD081899481CD95D PUSH1 0x7A SHL PUSH1 0x44 DUP3 ADD MSTORE PUSH1 0x64 ADD PUSH1 0x40 MLOAD DUP1 SWAP2 SUB SWAP1 PUSH3 0x712 PUSH3 0xB07 JUMP JUMPDEST POP POP JUMPDEST PUSH1 0x0 JUMPDEST PUSH1 0x18 DUP2 LT ISZERO PUSH3 0x7A5 JUMPI PUSH1 0x0 DUP3 DUP3 PUSH1 0x18 DUP2 LT PUSH3 0x731 JUMPI INVALID JUMPDEST PUSH1 0x20 MUL ADD MLOAD EQ PUSH3 0x796 JUMPI PUSH1 0xD DUP3 DUP3 PUSH1 0x18 DUP2 LT PUSH3 0x74B JUMPI INVALID JUMPDEST PUSH1 0x20 MUL ADD MLOAD SWAP1 DUP1 PUSH1 0x1 DUP2 PUSH3 0x75F PUSH3 0xB74 JUMP JUMPDEST ADD DUP1 DUP3 PUSH3 0x76C PUSH3 0xBD6 JUMP JUMPDEST POP POP PUSH1 0x0 SWAP3 DUP4 MSTORE SWAP2 PUSH1 0x0 NOT DUP4 ADD SWAP2 POP PUSH1 0x20 SWAP1 KECCAK256 SWAP2 SWAP3 SWAP2 ADD PUSH3 0x78D PUSH3 0xBD6 JUMP JUMPDEST POP POP POP PUSH3 0x79C JUMP JUMPDEST PUSH3 0x7A5 JUMP JUMPDEST PUSH1 0x1 ADD PUSH3 0x718 JUMP JUMPDEST POP DUP2 PUSH1 0xB PUSH2 0x100 DUP2 PUSH3 0x7B7 PUSH3 0xB74 JUMP JUMPDEST DUP2 PUSH1 0x1 PUSH1 0x1 PUSH1 0xA0 SHL SUB MUL NOT AND SWAP1 DUP4 PUSH1 0x1 PUSH1 0x1 PUSH1 0xA0 SHL SUB AND MUL OR SWAP1 PUSH3 0x7DB PUSH3 0xBD6 JUMP JUMPDEST POP POP POP POP POP PUSH1 0x1 PUSH1 0x1 PUSH1 0xA0 SHL SUB DUP9 AND PUSH3 0x83B JUMPI PUSH1 0x40 MLOAD PUSH3 0x461BCD PUSH1 0xE5 SHL DUP2 MSTORE PUSH1 0x20 PUSH1 0x4 DUP3 ADD MSTORE PUSH1 0x12 PUSH1 0x24 DUP3 ADD MSTORE PUSH18 0x5F70726F78792063616E6E6F74206265203 PUSH1 0x74 SHL PUSH1 0x44 DUP3 ADD MSTORE PUSH1 0x64 ADD PUSH1 0x40 MLOAD DUP1 SWAP2 SUB SWAP1 PUSH3 0x838 PUSH3 0xB07 JUMP JUMPDEST POP POP JUMPDEST PUSH1 0x1 PUSH1 0x1 PUSH1 0xA0 SHL SUB DUP5 AND PUSH3 0x896 JUMPI PUSH1 0x40 MLOAD PUSH3 0x461BCD PUSH1 0xE5 SHL DUP2 MSTORE PUSH1 0x20 PUSH1 0x4 DUP3 ADD MSTORE PUSH1 0x12 PUSH1 0x24 DUP3 ADD MSTORE PUSH18 0x5F6F776E65722063616E6E6F74206265203 PUSH1 0x74 SHL PUSH1 0x44 DUP3 ADD MSTORE PUSH1 0x64 ADD PUSH1 0x40 MLOAD DUP1 SWAP2 SUB SWAP1 PUSH3 0x893 PUSH3 0xB07 JUMP JUMPDEST POP POP JUMPDEST DUP3 DUP1 PUSH1 0xE PUSH3 0x8A4 PUSH3 0xBD6 JUMP JUMPDEST POP POP POP POP POP POP POP POP POP POP POP DUP1 PUSH1 0x27 DUP2 SWAP1 PUSH3 0x8BE PUSH3 0xBD6 JUMP JUMPDEST POP POP POP PUSH3 0x8E0 PUSH1 0x27 PUSH3 0x8D1 PUSH3 0xB74 JUMP JUMPDEST PUSH1 0x1 PUSH1 0x1 PUSH1 0xE0 SHL SUB PUSH3 0x8EF AND JUMP JUMPDEST POP POP POP POP POP POP POP POP POP PUSH3 0xE31 JUMP JUMPDEST DUP1 PUSH1 0xD DUP1 PUSH1 0x1 DUP2 PUSH3 0x900 PUSH3 0xB74 JUMP JUMPDEST ADD DUP1 DUP3 PUSH3 0x90D PUSH3 0xBD6 JUMP JUMPDEST POP POP PUSH1 0x0 SWAP3 DUP4 MSTORE SWAP2 PUSH1 0x0 NOT DUP4 ADD SWAP2 POP PUSH1 0x20 SWAP1 KECCAK256 SWAP2 SWAP3 SWAP2 ADD PUSH3 0x92E PUSH3 0xBD6 JUMP JUMPDEST POP POP POP PUSH1 0x18 PUSH1 0xD DUP1 PUSH3 0x940 PUSH3 0xB74 JUMP JUMPDEST SWAP1 POP LT PUSH3 0x99F JUMPI PUSH1 0x40 MLOAD PUSH3 0x461BCD PUSH1 0xE5 SHL DUP2 MSTORE PUSH1 0x20 PUSH1 0x4 DUP3 ADD MSTORE PUSH1 0x1B PUSH1 0x24 DUP3 ADD MSTORE PUSH32 0x4D6178207265736F6C7665722063616368652073697A65206D65740000000000 PUSH1 0x44 DUP3 ADD MSTORE PUSH1 0x64 ADD PUSH1 0x40 MLOAD DUP1 SWAP2 SUB SWAP1 PUSH3 0x99C PUSH3 0xB07 JUMP JUMPDEST POP POP JUMPDEST PUSH1 0x1 PUSH1 0xB PUSH3 0x9AD PUSH3 0xB74 JUMP JUMPDEST SWAP1 PUSH2 0x100 EXP SWAP1 DIV PUSH1 0x1 PUSH1 0x1 PUSH1 0xA0 SHL SUB AND PUSH1 0x1 PUSH1 0x1 PUSH1 0xA0 SHL SUB AND PUSH4 0x21F8A721 DUP3 PUSH1 0x40 MLOAD PUSH1 0x1 PUSH1 0x1 PUSH1 0xE0 SHL SUB NOT PUSH1 0xE0 DUP5 SWAP1 SHL AND DUP2 MSTORE PUSH1 0x4 DUP2 ADD SWAP2 SWAP1 SWAP2 MSTORE PUSH1 0x24 ADD PUSH1 0x20 PUSH1 0x40 MLOAD DUP1 DUP4 SUB DUP2 DUP7 DUP1 PUSH3 0xA00 PUSH3 0xCD0 JUMP JUMPDEST ISZERO DUP1 ISZERO PUSH3 0xA18 JUMPI PUSH1 0x0 DUP1 PUSH3 0xA15 PUSH3 0xB07 JUMP JUMPDEST POP POP JUMPDEST POP GAS PUSH3 0xA24 PUSH3 0xD1D JUMP JUMPDEST POP POP POP POP POP ISZERO DUP1 ISZERO PUSH3 0xA46 JUMPI RETURNDATASIZE PUSH1 0x0 DUP1 RETURNDATACOPY RETURNDATASIZE PUSH1 0x0 PUSH3 0xA43 PUSH3 0xB07 JUMP JUMPDEST POP POP JUMPDEST POP POP POP POP PUSH1 0x40 MLOAD RETURNDATASIZE PUSH1 0x20 DUP2 LT ISZERO PUSH3 0xA68 JUMPI PUSH1 0x0 DUP1 PUSH3 0xA65 PUSH3 0xB07 JUMP JUMPDEST POP POP JUMPDEST DUP2 ADD SWAP1 DUP1 DUP1 MLOAD PUSH1 0x0 DUP6 DUP2 MSTORE PUSH1 0xC PUSH1 0x20 MSTORE SWAP1 SWAP4 POP PUSH1 0x40 SWAP3 POP SWAP1 POP KECCAK256 PUSH1 0x1 DUP2 PUSH3 0xA8F PUSH3 0xB74 JUMP JUMPDEST DUP2 PUSH1 0x1 PUSH1 0x1 PUSH1 0xA0 SHL SUB MUL NOT AND SWAP1 DUP4 PUSH1 0x1 PUSH1 0x1 PUSH1 0xA0 SHL SUB AND MUL OR SWAP1 PUSH3 0xAB3 PUSH3 0xBD6 JUMP JUMPDEST POP POP POP POP JUMP JUMPDEST DUP3 PUSH1 0x18 DUP2 ADD SWAP3 DUP3 ISZERO PUSH3 0xAF5 JUMPI SWAP2 PUSH1 0x20 MUL DUP3 ADD JUMPDEST DUP3 DUP2 GT ISZERO PUSH3 0xAF5 JUMPI DUP3 MLOAD DUP3 PUSH3 0xAE3 PUSH3 0xBD6 JUMP JUMPDEST POP POP SWAP2 PUSH1 0x20 ADD SWAP2 SWAP1 PUSH1 0x1 ADD SWAP1 PUSH3 0xACD JUMP JUMPDEST POP PUSH3 0xB03 SWAP3 SWAP2 POP PUSH3 0xDDA JUMP JUMPDEST POP SWAP1 JUMP JUMPDEST PUSH4 0x2A2A7ADB MSIZE DUP2 PUSH1 0xE0 SHL DUP2 MSTORE PUSH1 0x4 DUP2 ADD PUSH1 0x20 DUP2 MSTORE DUP6 PUSH1 0x20 DUP3 ADD MSTORE PUSH1 0x0 JUMPDEST DUP7 DUP2 LT ISZERO PUSH3 0xB41 JUMPI DUP1 DUP7 ADD MLOAD DUP3 DUP3 ADD PUSH1 0x40 ADD MSTORE PUSH1 0x20 ADD PUSH3 0xB24 JUMP JUMPDEST POP PUSH1 0x20 DUP3 DUP8 PUSH1 0x64 ADD DUP5 CALLER PUSH1 0x0 SWAP1 GAS CALL PC PUSH1 0xE ADD JUMPI RETURNDATASIZE PUSH1 0x0 DUP1 RETURNDATACOPY RETURNDATASIZE PUSH1 0x0 REVERT JUMPDEST RETURNDATASIZE PUSH1 0x1 EQ ISZERO PC PUSH1 0xA ADD JUMPI PUSH1 0x1 PUSH1 0x0 RETURN JUMPDEST POP POP POP JUMP JUMPDEST PUSH4 0x3DAA959 MSIZE DUP2 PUSH1 0xE0 SHL DUP2 MSTORE DUP4 PUSH1 0x4 DUP3 ADD MSTORE PUSH1 0x20 DUP2 PUSH1 0x24 DUP4 CALLER PUSH1 0x0 SWAP1 GAS CALL PC PUSH1 0xE ADD JUMPI RETURNDATASIZE PUSH1 0x0 DUP1 RETURNDATACOPY RETURNDATASIZE PUSH1 0x0 REVERT JUMPDEST RETURNDATASIZE PUSH1 0x1 EQ ISZERO PC PUSH1 0xA ADD JUMPI PUSH1 0x1 PUSH1 0x0 RETURN JUMPDEST DUP1 MLOAD SWAP4 POP PUSH1 0x0 JUMPDEST PUSH1 0x40 DUP2 LT ISZERO PUSH3 0xBD1 JUMPI PUSH1 0x0 DUP3 DUP3 ADD MSTORE PUSH1 0x20 ADD PUSH3 0xBB8 JUMP JUMPDEST POP POP POP JUMP JUMPDEST PUSH4 0x22BD64C0 MSIZE DUP2 PUSH1 0xE0 SHL DUP2 MSTORE DUP4 PUSH1 0x4 DUP3 ADD MSTORE DUP5 PUSH1 0x24 DUP3 ADD MSTORE PUSH1 0x0 DUP2 PUSH1 0x44 DUP4 CALLER PUSH1 0x0 SWAP1 GAS CALL PC PUSH1 0xE ADD JUMPI RETURNDATASIZE PUSH1 0x0 DUP1 RETURNDATACOPY RETURNDATASIZE PUSH1 0x0 REVERT JUMPDEST RETURNDATASIZE PUSH1 0x1 EQ ISZERO PC PUSH1 0xA ADD JUMPI PUSH1 0x1 PUSH1 0x0 RETURN JUMPDEST PUSH1 0x0 DUP2 MSTORE PUSH1 0x20 PUSH3 0xBB8 JUMP JUMPDEST DUP3 DUP1 PUSH3 0xC31 PUSH3 0xB74 JUMP JUMPDEST PUSH1 0x1 DUP2 PUSH1 0x1 AND ISZERO PUSH2 0x100 MUL SUB AND PUSH1 0x2 SWAP1 DIV SWAP1 PUSH1 0x0 MSTORE PUSH1 0x20 PUSH1 0x0 KECCAK256 SWAP1 PUSH1 0x1F ADD PUSH1 0x20 SWAP1 DIV DUP2 ADD SWAP3 DUP3 PUSH1 0x1F LT PUSH3 0xC7C JUMPI DUP1 MLOAD PUSH1 0xFF NOT AND DUP4 DUP1 ADD OR DUP6 PUSH3 0xC74 PUSH3 0xBD6 JUMP JUMPDEST POP POP PUSH3 0xCC2 JUMP JUMPDEST DUP3 DUP1 ADD PUSH1 0x1 ADD DUP6 PUSH3 0xC8D PUSH3 0xBD6 JUMP JUMPDEST POP POP DUP3 ISZERO PUSH3 0xCC2 JUMPI SWAP2 DUP3 ADD JUMPDEST DUP3 DUP2 GT ISZERO PUSH3 0xCC2 JUMPI DUP3 MLOAD DUP3 PUSH3 0xCB0 PUSH3 0xBD6 JUMP JUMPDEST POP POP SWAP2 PUSH1 0x20 ADD SWAP2 SWAP1 PUSH1 0x1 ADD SWAP1 PUSH3 0xC9A JUMP JUMPDEST POP PUSH3 0xB03 SWAP3 SWAP2 POP PUSH3 0xE07 JUMP JUMPDEST PUSH4 0x8435035B MSIZE DUP2 PUSH1 0xE0 SHL DUP2 MSTORE DUP4 PUSH1 0x4 DUP3 ADD MSTORE PUSH1 0x20 DUP2 PUSH1 0x24 DUP4 CALLER PUSH1 0x0 SWAP1 GAS CALL PC PUSH1 0xE ADD JUMPI RETURNDATASIZE PUSH1 0x0 DUP1 RETURNDATACOPY RETURNDATASIZE PUSH1 0x0 REVERT JUMPDEST RETURNDATASIZE PUSH1 0x1 EQ ISZERO PC PUSH1 0xA ADD JUMPI PUSH1 0x1 PUSH1 0x0 RETURN JUMPDEST DUP1 MLOAD PUSH1 0x0 DUP3 MSTORE SWAP4 POP PUSH1 0x20 PUSH3 0xBB8 JUMP JUMPDEST PUSH4 0x8540661F MSIZE DUP2 PUSH1 0xE0 SHL DUP2 MSTORE DUP4 PUSH1 0x4 DUP3 ADD MSTORE DUP5 PUSH1 0x24 DUP3 ADD MSTORE PUSH1 0x60 PUSH1 0x44 DUP3 ADD MSTORE DUP7 PUSH1 0x64 DUP3 ADD MSTORE PUSH1 0x84 DUP2 ADD PUSH1 0x0 JUMPDEST DUP9 DUP2 LT ISZERO PUSH3 0xD63 JUMPI DUP1 DUP9 ADD MLOAD DUP3 DUP3 ADD MSTORE PUSH1 0x20 ADD PUSH3 0xD49 JUMP JUMPDEST POP DUP8 PUSH2 0x104 ADD DUP3 ADD PUSH1 0x60 DUP4 DUP11 PUSH2 0x104 ADD DUP6 CALLER PUSH1 0x0 SWAP1 GAS CALL PC PUSH1 0xE ADD JUMPI RETURNDATASIZE PUSH1 0x0 DUP1 RETURNDATACOPY RETURNDATASIZE PUSH1 0x0 REVERT JUMPDEST RETURNDATASIZE PUSH1 0x1 EQ ISZERO PC PUSH1 0xA ADD JUMPI PUSH1 0x1 PUSH1 0x0 RETURN JUMPDEST DUP3 MLOAD PUSH1 0x40 DUP5 ADD MLOAD RETURNDATASIZE PUSH1 0x0 DUP7 RETURNDATACOPY DUP13 DUP13 DUP3 PUSH1 0x60 DUP9 ADD CALLER POP PUSH1 0x0 PUSH1 0x4 GAS CALL POP MSIZE DUP6 JUMPDEST DUP2 DUP2 LT ISZERO PUSH3 0xDCE JUMPI PUSH1 0x0 DUP2 MSTORE PUSH1 0x20 ADD PUSH3 0xDB8 JUMP JUMPDEST POP SWAP2 SWAP13 POP POP POP POP POP POP POP JUMP JUMPDEST PUSH3 0xE04 SWAP2 SWAP1 JUMPDEST DUP1 DUP3 GT ISZERO PUSH3 0xB03 JUMPI PUSH1 0x0 DUP1 DUP3 PUSH3 0xDF8 PUSH3 0xBD6 JUMP JUMPDEST POP POP POP PUSH1 0x1 ADD PUSH3 0xDE1 JUMP JUMPDEST SWAP1 JUMP JUMPDEST PUSH3 0xE04 SWAP2 SWAP1 JUMPDEST DUP1 DUP3 GT ISZERO PUSH3 0xB03 JUMPI PUSH1 0x0 DUP1 DUP3 PUSH3 0xE25 PUSH3 0xBD6 JUMP JUMPDEST POP POP POP PUSH1 0x1 ADD PUSH3 0xE0E JUMP JUMPDEST PUSH2 0x3EC2 DUP1 PUSH3 0xE41 PUSH1 0x0 CODECOPY PUSH1 0x0 RETURN INVALID PUSH1 0x80 PUSH1 0x40 MSTORE CALLVALUE DUP1 ISZERO PUSH2 0x19 JUMPI PUSH1 0x0 DUP1 PUSH2 0x16 PUSH2 0x39DD JUMP JUMPDEST POP POP JUMPDEST POP PUSH1 0x4 CALLDATASIZE LT PUSH2 0x288 JUMPI PUSH1 0x0 CALLDATALOAD PUSH1 0xE0 SHR DUP1 PUSH4 0x9CBDAEB6 GT PUSH2 0x165 JUMPI DUP1 PUSH4 0xC6C9D828 GT PUSH2 0xD7 JUMPI DUP1 PUSH4 0xE90DD9E2 GT PUSH2 0x90 JUMPI DUP1 PUSH4 0xE90DD9E2 EQ PUSH2 0x7D3 JUMPI DUP1 PUSH4 0xEB1EDD61 EQ PUSH2 0x7DB JUMPI DUP1 PUSH4 0xEC556889 EQ PUSH2 0x7E3 JUMPI DUP1 PUSH4 0xF7EA7A3D EQ PUSH2 0x7EB JUMPI DUP1 PUSH4 0xFD92AE77 EQ PUSH2 0x811 JUMPI DUP1 PUSH4 0xFFFF51D6 EQ PUSH2 0x819 JUMPI PUSH2 0x288 JUMP JUMPDEST DUP1 PUSH4 0xC6C9D828 EQ PUSH2 0x71F JUMPI DUP1 PUSH4 0xD67BDD25 EQ PUSH2 0x745 JUMPI DUP1 PUSH4 0xDBD06C85 EQ PUSH2 0x74D JUMPI DUP1 PUSH4 0xDD62ED3E EQ PUSH2 0x755 JUMPI DUP1 PUSH4 0xE3235C91 EQ PUSH2 0x78C JUMPI DUP1 PUSH4 0xE73CCED3 EQ PUSH2 0x794 JUMPI PUSH2 0x288 JUMP JUMPDEST DUP1 PUSH4 0xAB49848C GT PUSH2 0x129 JUMPI DUP1 PUSH4 0xAB49848C EQ PUSH2 0x662 JUMPI DUP1 PUSH4 0xB014C3A3 EQ PUSH2 0x6A3 JUMPI DUP1 PUSH4 0xB8225DEC EQ PUSH2 0x6D8 JUMPI DUP1 PUSH4 0xBC67F832 EQ PUSH2 0x6E0 JUMPI DUP1 PUSH4 0xBD32AA44 EQ PUSH2 0x70F JUMPI DUP1 PUSH4 0xC58AAAE6 EQ PUSH2 0x717 JUMPI PUSH2 0x288 JUMP JUMPDEST DUP1 PUSH4 0x9CBDAEB6 EQ PUSH2 0x5B9 JUMPI DUP1 PUSH4 0x9DC29FAC EQ PUSH2 0x5C1 JUMPI DUP1 PUSH4 0x9F769807 EQ PUSH2 0x5F6 JUMPI DUP1 PUSH4 0xA461FC82 EQ PUSH2 0x625 JUMPI DUP1 PUSH4 0xA9059CBB EQ PUSH2 0x62D JUMPI PUSH2 0x288 JUMP JUMPDEST DUP1 PUSH4 0x3278C960 GT PUSH2 0x1FE JUMPI DUP1 PUSH4 0x79BA5097 GT PUSH2 0x1C2 JUMPI DUP1 PUSH4 0x79BA5097 EQ PUSH2 0x535 JUMPI DUP1 PUSH4 0x867904B4 EQ PUSH2 0x53D JUMPI DUP1 PUSH4 0x8DA5CB5B EQ PUSH2 0x572 JUMPI DUP1 PUSH4 0x95D89B41 EQ PUSH2 0x57A JUMPI DUP1 PUSH4 0x97107D6D EQ PUSH2 0x582 JUMPI DUP1 PUSH4 0x9CB8A26A EQ PUSH2 0x5B1 JUMPI PUSH2 0x288 JUMP JUMPDEST DUP1 PUSH4 0x3278C960 EQ PUSH2 0x498 JUMPI DUP1 PUSH4 0x3BE99E6F EQ PUSH2 0x4A0 JUMPI DUP1 PUSH4 0x53A47BB7 EQ PUSH2 0x4CF JUMPI DUP1 PUSH4 0x631E1444 EQ PUSH2 0x4D7 JUMPI DUP1 PUSH4 0x70A08231 EQ PUSH2 0x506 JUMPI PUSH2 0x288 JUMP JUMPDEST DUP1 PUSH4 0x17C70DE4 GT PUSH2 0x250 JUMPI DUP1 PUSH4 0x17C70DE4 EQ PUSH2 0x3E2 JUMPI DUP1 PUSH4 0x18160DDD EQ PUSH2 0x3FC JUMPI DUP1 PUSH4 0x20714F88 EQ PUSH2 0x404 JUMPI DUP1 PUSH4 0x23B872DD EQ PUSH2 0x433 JUMPI DUP1 PUSH4 0x2E0F2625 EQ PUSH2 0x472 JUMPI DUP1 PUSH4 0x313CE567 EQ PUSH2 0x490 JUMPI PUSH2 0x288 JUMP JUMPDEST DUP1 PUSH4 0x4F3BCEC EQ PUSH2 0x296 JUMPI DUP1 PUSH4 0x6FDDE03 EQ PUSH2 0x2BA JUMPI DUP1 PUSH4 0x95EA7B3 EQ PUSH2 0x339 JUMPI DUP1 PUSH4 0x131B0AE7 EQ PUSH2 0x382 JUMPI DUP1 PUSH4 0x1627540C EQ PUSH2 0x3B3 JUMPI JUMPDEST PUSH1 0x0 DUP1 PUSH2 0x293 PUSH2 0x39DD JUMP JUMPDEST POP POP JUMPDEST PUSH2 0x29E PUSH2 0x848 JUMP JUMPDEST PUSH1 0x40 MLOAD PUSH1 0x1 PUSH1 0x1 PUSH1 0xA0 SHL SUB SWAP1 SWAP2 AND DUP2 MSTORE PUSH1 0x20 ADD PUSH1 0x40 MLOAD DUP1 SWAP2 SUB SWAP1 RETURN JUMPDEST PUSH2 0x2C2 PUSH2 0x867 JUMP JUMPDEST PUSH1 0x40 MLOAD PUSH1 0x20 DUP1 DUP3 MSTORE DUP2 SWAP1 DUP2 ADD DUP4 DUP2 DUP2 MLOAD DUP2 MSTORE PUSH1 0x20 ADD SWAP2 POP DUP1 MLOAD SWAP1 PUSH1 0x20 ADD SWAP1 DUP1 DUP4 DUP4 PUSH1 0x0 JUMPDEST DUP4 DUP2 LT ISZERO PUSH2 0x2FE JUMPI DUP1 DUP3 ADD MLOAD DUP4 DUP3 ADD MSTORE PUSH1 0x20 ADD PUSH2 0x2E6 JUMP JUMPDEST POP POP POP POP SWAP1 POP SWAP1 DUP2 ADD SWAP1 PUSH1 0x1F AND DUP1 ISZERO PUSH2 0x32B JUMPI DUP1 DUP3 SUB DUP1 MLOAD PUSH1 0x1 DUP4 PUSH1 0x20 SUB PUSH2 0x100 EXP SUB NOT AND DUP2 MSTORE PUSH1 0x20 ADD SWAP2 POP JUMPDEST POP SWAP3 POP POP POP PUSH1 0x40 MLOAD DUP1 SWAP2 SUB SWAP1 RETURN JUMPDEST PUSH2 0x36E PUSH1 0x4 DUP1 CALLDATASIZE SUB PUSH1 0x40 DUP2 LT ISZERO PUSH2 0x358 JUMPI PUSH1 0x0 DUP1 PUSH2 0x355 PUSH2 0x39DD JUMP JUMPDEST POP POP JUMPDEST POP PUSH1 0x1 PUSH1 0x1 PUSH1 0xA0 SHL SUB DUP2 CALLDATALOAD AND SWAP1 PUSH1 0x20 ADD CALLDATALOAD PUSH2 0x920 JUMP JUMPDEST PUSH1 0x40 MLOAD SWAP1 ISZERO ISZERO DUP2 MSTORE PUSH1 0x20 ADD PUSH1 0x40 MLOAD DUP1 SWAP2 SUB SWAP1 RETURN JUMPDEST PUSH2 0x3B1 PUSH1 0x4 DUP1 CALLDATASIZE SUB PUSH1 0x20 DUP2 LT ISZERO PUSH2 0x3A1 JUMPI PUSH1 0x0 DUP1 PUSH2 0x39E PUSH2 0x39DD JUMP JUMPDEST POP POP JUMPDEST POP CALLDATALOAD PUSH1 0x1 PUSH1 0x1 PUSH1 0xA0 SHL SUB AND PUSH2 0xA1E JUMP JUMPDEST STOP JUMPDEST PUSH2 0x3B1 PUSH1 0x4 DUP1 CALLDATASIZE SUB PUSH1 0x20 DUP2 LT ISZERO PUSH2 0x3D2 JUMPI PUSH1 0x0 DUP1 PUSH2 0x3CF PUSH2 0x39DD JUMP JUMPDEST POP POP JUMPDEST POP CALLDATALOAD PUSH1 0x1 PUSH1 0x1 PUSH1 0xA0 SHL SUB AND PUSH2 0xA5C JUMP JUMPDEST PUSH2 0x3EA PUSH2 0xAD6 JUMP JUMPDEST PUSH1 0x40 MLOAD SWAP1 DUP2 MSTORE PUSH1 0x20 ADD PUSH1 0x40 MLOAD DUP1 SWAP2 SUB SWAP1 RETURN JUMPDEST PUSH2 0x3EA PUSH2 0xAE3 JUMP JUMPDEST PUSH2 0x3B1 PUSH1 0x4 DUP1 CALLDATASIZE SUB PUSH1 0x20 DUP2 LT ISZERO PUSH2 0x423 JUMPI PUSH1 0x0 DUP1 PUSH2 0x420 PUSH2 0x39DD JUMP JUMPDEST POP POP JUMPDEST POP CALLDATALOAD PUSH1 0x1 PUSH1 0x1 PUSH1 0xA0 SHL SUB AND PUSH2 0xAED JUMP JUMPDEST PUSH2 0x36E PUSH1 0x4 DUP1 CALLDATASIZE SUB PUSH1 0x60 DUP2 LT ISZERO PUSH2 0x452 JUMPI PUSH1 0x0 DUP1 PUSH2 0x44F PUSH2 0x39DD JUMP JUMPDEST POP POP JUMPDEST POP PUSH1 0x1 PUSH1 0x1 PUSH1 0xA0 SHL SUB DUP2 CALLDATALOAD DUP2 AND SWAP2 PUSH1 0x20 DUP2 ADD CALLDATALOAD SWAP1 SWAP2 AND SWAP1 PUSH1 0x40 ADD CALLDATALOAD PUSH2 0xBCC JUMP JUMPDEST PUSH2 0x47A PUSH2 0xBF3 JUMP JUMPDEST PUSH1 0x40 MLOAD PUSH1 0xFF SWAP1 SWAP2 AND DUP2 MSTORE PUSH1 0x20 ADD PUSH1 0x40 MLOAD DUP1 SWAP2 SUB SWAP1 RETURN JUMPDEST PUSH2 0x47A PUSH2 0xBF8 JUMP JUMPDEST PUSH2 0x3B1 PUSH2 0xC11 JUMP JUMPDEST PUSH2 0x3B1 PUSH1 0x4 DUP1 CALLDATASIZE SUB PUSH1 0x20 DUP2 LT ISZERO PUSH2 0x4BF JUMPI PUSH1 0x0 DUP1 PUSH2 0x4BC PUSH2 0x39DD JUMP JUMPDEST POP POP JUMPDEST POP CALLDATALOAD PUSH1 0x1 PUSH1 0x1 PUSH1 0xA0 SHL SUB AND PUSH2 0xC82 JUMP JUMPDEST PUSH2 0x29E PUSH2 0xE4D JUMP JUMPDEST PUSH2 0x36E PUSH1 0x4 DUP1 CALLDATASIZE SUB PUSH1 0x20 DUP2 LT ISZERO PUSH2 0x4F6 JUMPI PUSH1 0x0 DUP1 PUSH2 0x4F3 PUSH2 0x39DD JUMP JUMPDEST POP POP JUMPDEST POP CALLDATALOAD PUSH1 0x1 PUSH1 0x1 PUSH1 0xA0 SHL SUB AND PUSH2 0xE59 JUMP JUMPDEST PUSH2 0x3EA PUSH1 0x4 DUP1 CALLDATASIZE SUB PUSH1 0x20 DUP2 LT ISZERO PUSH2 0x525 JUMPI PUSH1 0x0 DUP1 PUSH2 0x522 PUSH2 0x39DD JUMP JUMPDEST POP POP JUMPDEST POP CALLDATALOAD PUSH1 0x1 PUSH1 0x1 PUSH1 0xA0 SHL SUB AND PUSH2 0x1036 JUMP JUMPDEST PUSH2 0x3B1 PUSH2 0x1108 JUMP JUMPDEST PUSH2 0x3B1 PUSH1 0x4 DUP1 CALLDATASIZE SUB PUSH1 0x40 DUP2 LT ISZERO PUSH2 0x55C JUMPI PUSH1 0x0 DUP1 PUSH2 0x559 PUSH2 0x39DD JUMP JUMPDEST POP POP JUMPDEST POP PUSH1 0x1 PUSH1 0x1 PUSH1 0xA0 SHL SUB DUP2 CALLDATALOAD AND SWAP1 PUSH1 0x20 ADD CALLDATALOAD PUSH2 0x128B JUMP JUMPDEST PUSH2 0x29E PUSH2 0x139A JUMP JUMPDEST PUSH2 0x2C2 PUSH2 0x13A5 JUMP JUMPDEST PUSH2 0x3B1 PUSH1 0x4 DUP1 CALLDATASIZE SUB PUSH1 0x20 DUP2 LT ISZERO PUSH2 0x5A1 JUMPI PUSH1 0x0 DUP1 PUSH2 0x59E PUSH2 0x39DD JUMP JUMPDEST POP POP JUMPDEST POP CALLDATALOAD PUSH1 0x1 PUSH1 0x1 PUSH1 0xA0 SHL SUB AND PUSH2 0x1447 JUMP JUMPDEST PUSH2 0x3B1 PUSH2 0x14C2 JUMP JUMPDEST PUSH2 0x29E PUSH2 0x1605 JUMP JUMPDEST PUSH2 0x3B1 PUSH1 0x4 DUP1 CALLDATASIZE SUB PUSH1 0x40 DUP2 LT ISZERO PUSH2 0x5E0 JUMPI PUSH1 0x0 DUP1 PUSH2 0x5DD PUSH2 0x39DD JUMP JUMPDEST POP POP JUMPDEST POP PUSH1 0x1 PUSH1 0x1 PUSH1 0xA0 SHL SUB DUP2 CALLDATALOAD AND SWAP1 PUSH1 0x20 ADD CALLDATALOAD PUSH2 0x1611 JUMP JUMPDEST PUSH2 0x3B1 PUSH1 0x4 DUP1 CALLDATASIZE SUB PUSH1 0x20 DUP2 LT ISZERO PUSH2 0x615 JUMPI PUSH1 0x0 DUP1 PUSH2 0x612 PUSH2 0x39DD JUMP JUMPDEST POP POP JUMPDEST POP CALLDATALOAD PUSH1 0x1 PUSH1 0x1 PUSH1 0xA0 SHL SUB AND PUSH2 0x1721 JUMP JUMPDEST PUSH2 0x3EA PUSH2 0x1768 JUMP JUMPDEST PUSH2 0x36E PUSH1 0x4 DUP1 CALLDATASIZE SUB PUSH1 0x40 DUP2 LT ISZERO PUSH2 0x64C JUMPI PUSH1 0x0 DUP1 PUSH2 0x649 PUSH2 0x39DD JUMP JUMPDEST POP POP JUMPDEST POP PUSH1 0x1 PUSH1 0x1 PUSH1 0xA0 SHL SUB DUP2 CALLDATALOAD AND SWAP1 PUSH1 0x20 ADD CALLDATALOAD PUSH2 0x176F JUMP JUMPDEST PUSH2 0x66A PUSH2 0x1834 JUMP JUMPDEST PUSH1 0x40 MLOAD DUP1 DUP3 PUSH2 0x300 DUP1 DUP4 DUP4 PUSH1 0x0 JUMPDEST DUP4 DUP2 LT ISZERO PUSH2 0x690 JUMPI DUP1 DUP3 ADD MLOAD DUP4 DUP3 ADD MSTORE PUSH1 0x20 ADD PUSH2 0x678 JUMP JUMPDEST POP POP POP POP SWAP1 POP ADD SWAP2 POP POP PUSH1 0x40 MLOAD DUP1 SWAP2 SUB SWAP1 RETURN JUMPDEST PUSH2 0x36E PUSH1 0x4 DUP1 CALLDATASIZE SUB PUSH1 0x40 DUP2 LT ISZERO PUSH2 0x6C2 JUMPI PUSH1 0x0 DUP1 PUSH2 0x6BF PUSH2 0x39DD JUMP JUMPDEST POP POP JUMPDEST POP PUSH1 0x1 PUSH1 0x1 PUSH1 0xA0 SHL SUB DUP2 CALLDATALOAD AND SWAP1 PUSH1 0x20 ADD CALLDATALOAD PUSH2 0x1896 JUMP JUMPDEST PUSH2 0x36E PUSH2 0x1AC6 JUMP JUMPDEST PUSH2 0x3B1 PUSH1 0x4 DUP1 CALLDATASIZE SUB PUSH1 0x20 DUP2 LT ISZERO PUSH2 0x6FF JUMPI PUSH1 0x0 DUP1 PUSH2 0x6FC PUSH2 0x39DD JUMP JUMPDEST POP POP JUMPDEST POP CALLDATALOAD PUSH1 0x1 PUSH1 0x1 PUSH1 0xA0 SHL SUB AND PUSH2 0x1AD2 JUMP JUMPDEST PUSH2 0x3B1 PUSH2 0x1AE8 JUMP JUMPDEST PUSH2 0x29E PUSH2 0x1B6A JUMP JUMPDEST PUSH2 0x3EA PUSH1 0x4 DUP1 CALLDATASIZE SUB PUSH1 0x20 DUP2 LT ISZERO PUSH2 0x73E JUMPI PUSH1 0x0 DUP1 PUSH2 0x73B PUSH2 0x39DD JUMP JUMPDEST POP POP JUMPDEST POP CALLDATALOAD PUSH2 0x1B76 JUMP JUMPDEST PUSH2 0x29E PUSH2 0x1B9E JUMP JUMPDEST PUSH2 0x3EA PUSH2 0x1BAA JUMP JUMPDEST PUSH2 0x3EA PUSH1 0x4 DUP1 CALLDATASIZE SUB PUSH1 0x40 DUP2 LT ISZERO PUSH2 0x774 JUMPI PUSH1 0x0 DUP1 PUSH2 0x771 PUSH2 0x39DD JUMP JUMPDEST POP POP JUMPDEST POP PUSH1 0x1 PUSH1 0x1 PUSH1 0xA0 SHL SUB DUP2 CALLDATALOAD DUP2 AND SWAP2 PUSH1 0x20 ADD CALLDATALOAD AND PUSH2 0x1BB4 JUMP JUMPDEST PUSH2 0x3EA PUSH2 0x1C8F JUMP JUMPDEST PUSH2 0x36E PUSH1 0x4 DUP1 CALLDATASIZE SUB PUSH1 0x60 DUP2 LT ISZERO PUSH2 0x7B3 JUMPI PUSH1 0x0 DUP1 PUSH2 0x7B0 PUSH2 0x39DD JUMP JUMPDEST POP POP JUMPDEST POP PUSH1 0x1 PUSH1 0x1 PUSH1 0xA0 SHL SUB DUP2 CALLDATALOAD DUP2 AND SWAP2 PUSH1 0x20 DUP2 ADD CALLDATALOAD SWAP1 SWAP2 AND SWAP1 PUSH1 0x40 ADD CALLDATALOAD PUSH2 0x1C94 JUMP JUMPDEST PUSH2 0x29E PUSH2 0x1E7C JUMP JUMPDEST PUSH2 0x29E PUSH2 0x1E88 JUMP JUMPDEST PUSH2 0x29E PUSH2 0x1EA0 JUMP JUMPDEST PUSH2 0x3B1 PUSH1 0x4 DUP1 CALLDATASIZE SUB PUSH1 0x20 DUP2 LT ISZERO PUSH2 0x80A JUMPI PUSH1 0x0 DUP1 PUSH2 0x807 PUSH2 0x39DD JUMP JUMPDEST POP POP JUMPDEST POP CALLDATALOAD PUSH2 0x1EAC JUMP JUMPDEST PUSH2 0x3EA PUSH2 0x1EC0 JUMP JUMPDEST PUSH2 0x3EA PUSH1 0x4 DUP1 CALLDATASIZE SUB PUSH1 0x20 DUP2 LT ISZERO PUSH2 0x838 JUMPI PUSH1 0x0 DUP1 PUSH2 0x835 PUSH2 0x39DD JUMP JUMPDEST POP POP JUMPDEST POP CALLDATALOAD PUSH1 0x1 PUSH1 0x1 PUSH1 0xA0 SHL SUB AND PUSH2 0x1ECA JUMP JUMPDEST PUSH1 0x1 PUSH1 0xB PUSH2 0x854 PUSH2 0x3A48 JUMP JUMPDEST SWAP1 PUSH2 0x100 EXP SWAP1 DIV PUSH1 0x1 PUSH1 0x1 PUSH1 0xA0 SHL SUB AND DUP2 JUMP JUMPDEST PUSH1 0x8 DUP1 PUSH2 0x872 PUSH2 0x3A48 JUMP JUMPDEST PUSH1 0x1 DUP2 PUSH1 0x1 AND ISZERO PUSH2 0x100 MUL SUB AND PUSH1 0x2 SWAP1 DIV DUP1 PUSH1 0x1F ADD PUSH1 0x20 DUP1 SWAP2 DIV MUL PUSH1 0x20 ADD PUSH1 0x40 MLOAD SWAP1 DUP2 ADD PUSH1 0x40 MSTORE DUP2 DUP2 MSTORE SWAP2 SWAP1 PUSH1 0x20 DUP4 ADD DUP3 DUP1 PUSH2 0x8AC PUSH2 0x3A48 JUMP JUMPDEST PUSH1 0x1 DUP2 PUSH1 0x1 AND ISZERO PUSH2 0x100 MUL SUB AND PUSH1 0x2 SWAP1 DIV DUP1 ISZERO PUSH2 0x918 JUMPI DUP1 PUSH1 0x1F LT PUSH2 0x8E6 JUMPI PUSH2 0x100 DUP1 DUP4 PUSH2 0x8D8 PUSH2 0x3A48 JUMP JUMPDEST DIV MUL DUP4 MSTORE SWAP2 PUSH1 0x20 ADD SWAP2 PUSH2 0x918 JUMP JUMPDEST DUP3 ADD SWAP2 SWAP1 PUSH1 0x0 MSTORE PUSH1 0x20 PUSH1 0x0 KECCAK256 SWAP1 JUMPDEST DUP2 PUSH2 0x8FD PUSH2 0x3A48 JUMP JUMPDEST DUP2 MSTORE SWAP1 PUSH1 0x1 ADD SWAP1 PUSH1 0x20 ADD DUP1 DUP4 GT PUSH2 0x8F4 JUMPI DUP3 SWAP1 SUB PUSH1 0x1F AND DUP3 ADD SWAP2 JUMPDEST POP POP POP POP POP DUP2 JUMP JUMPDEST PUSH1 0x0 PUSH2 0x92A PUSH2 0x20A6 JUMP JUMPDEST PUSH1 0x0 DUP1 PUSH1 0x6 PUSH2 0x937 PUSH2 0x3A48 JUMP JUMPDEST SWAP1 PUSH2 0x100 EXP SWAP1 DIV PUSH1 0x1 PUSH1 0x1 PUSH1 0xA0 SHL SUB AND SWAP1 POP PUSH1 0x7 PUSH1 0x0 SWAP1 PUSH2 0x956 PUSH2 0x3A48 JUMP JUMPDEST SWAP1 PUSH2 0x100 EXP SWAP1 DIV PUSH1 0x1 PUSH1 0x1 PUSH1 0xA0 SHL SUB AND PUSH1 0x1 PUSH1 0x1 PUSH1 0xA0 SHL SUB AND PUSH4 0xDA46098C DUP3 DUP7 DUP7 PUSH1 0x40 MLOAD PUSH1 0x1 PUSH1 0x1 PUSH1 0xE0 SHL SUB NOT PUSH1 0xE0 DUP7 SWAP1 SHL AND DUP2 MSTORE PUSH1 0x1 PUSH1 0x1 PUSH1 0xA0 SHL SUB SWAP4 DUP5 AND PUSH1 0x4 DUP3 ADD MSTORE SWAP2 SWAP1 SWAP3 AND PUSH1 0x24 DUP3 ADD MSTORE PUSH1 0x44 DUP2 ADD SWAP2 SWAP1 SWAP2 MSTORE PUSH1 0x64 ADD PUSH1 0x0 PUSH1 0x40 MLOAD DUP1 DUP4 SUB DUP2 PUSH1 0x0 DUP8 DUP1 PUSH2 0x9C4 PUSH2 0x3AA3 JUMP JUMPDEST ISZERO DUP1 ISZERO PUSH2 0x9D9 JUMPI PUSH1 0x0 DUP1 PUSH2 0x9D6 PUSH2 0x39DD JUMP JUMPDEST POP POP JUMPDEST POP GAS PUSH2 0x9E3 PUSH2 0x3AEF JUMP JUMPDEST POP POP POP POP POP POP ISZERO DUP1 ISZERO PUSH2 0xA03 JUMPI RETURNDATASIZE PUSH1 0x0 DUP1 RETURNDATACOPY RETURNDATASIZE PUSH1 0x0 PUSH2 0xA00 PUSH2 0x39DD JUMP JUMPDEST POP POP JUMPDEST POP POP POP POP PUSH2 0xA12 DUP2 DUP6 DUP6 PUSH2 0x217E JUMP JUMPDEST PUSH1 0x1 SWAP2 POP POP JUMPDEST SWAP3 SWAP2 POP POP JUMP JUMPDEST PUSH2 0xA26 PUSH2 0x22F6 JUMP JUMPDEST DUP1 PUSH1 0x5 PUSH1 0x1 DUP2 PUSH2 0xA34 PUSH2 0x3A48 JUMP JUMPDEST DUP2 PUSH1 0x1 PUSH1 0x1 PUSH1 0xA0 SHL SUB MUL NOT AND SWAP1 DUP4 PUSH1 0x1 PUSH1 0x1 PUSH1 0xA0 SHL SUB AND MUL OR SWAP1 PUSH2 0xA56 PUSH2 0x3BA8 JUMP JUMPDEST POP POP POP POP JUMP JUMPDEST PUSH2 0xA64 PUSH2 0x22F6 JUMP JUMPDEST DUP1 PUSH1 0x1 DUP1 DUP1 PUSH2 0xA71 PUSH2 0x3A48 JUMP JUMPDEST DUP2 PUSH1 0x1 PUSH1 0x1 PUSH1 0xA0 SHL SUB MUL NOT AND SWAP1 DUP4 PUSH1 0x1 PUSH1 0x1 PUSH1 0xA0 SHL SUB AND MUL OR SWAP1 PUSH2 0xA93 PUSH2 0x3BA8 JUMP JUMPDEST POP POP POP PUSH32 0x906A1C6BD7E3091EA86693DD029A831C19049CE77F1DCE2CE0BAB1CACBABCE22 DUP2 PUSH1 0x40 MLOAD PUSH1 0x1 PUSH1 0x1 PUSH1 0xA0 SHL SUB SWAP1 SWAP2 AND DUP2 MSTORE PUSH1 0x20 ADD PUSH1 0x40 MLOAD DUP1 SWAP2 SUB SWAP1 LOG1 POP JUMP JUMPDEST PUSH1 0x2 PUSH2 0xAE0 PUSH2 0x3A48 JUMP JUMPDEST DUP2 JUMP JUMPDEST PUSH1 0xA PUSH2 0xAE0 PUSH2 0x3A48 JUMP JUMPDEST PUSH2 0xAF5 PUSH2 0x22F6 JUMP JUMPDEST PUSH1 0x1 PUSH1 0x1 PUSH1 0xA0 SHL SUB DUP2 AND PUSH2 0xB58 JUMPI PUSH1 0x40 MLOAD PUSH3 0x461BCD PUSH1 0xE5 SHL DUP2 MSTORE PUSH1 0x20 PUSH1 0x4 DUP3 ADD MSTORE PUSH1 0x1C PUSH1 0x24 DUP3 ADD MSTORE PUSH32 0x42656E6566696369617279206D757374206E6F74206265207A65726F00000000 PUSH1 0x44 DUP3 ADD MSTORE PUSH1 0x64 ADD PUSH1 0x40 MLOAD DUP1 SWAP2 SUB SWAP1 PUSH2 0xB55 PUSH2 0x39DD JUMP JUMPDEST POP POP JUMPDEST DUP1 PUSH1 0x3 PUSH2 0x100 DUP2 PUSH2 0xB67 PUSH2 0x3A48 JUMP JUMPDEST DUP2 PUSH1 0x1 PUSH1 0x1 PUSH1 0xA0 SHL SUB MUL NOT AND SWAP1 DUP4 PUSH1 0x1 PUSH1 0x1 PUSH1 0xA0 SHL SUB AND MUL OR SWAP1 PUSH2 0xB89 PUSH2 0x3BA8 JUMP JUMPDEST POP POP POP PUSH32 0xD5DA63A0B864B315BC04128DEDBC93888C8529EE6CF47CE664DC204339228C53 DUP2 PUSH1 0x40 MLOAD PUSH1 0x1 PUSH1 0x1 PUSH1 0xA0 SHL SUB SWAP1 SWAP2 AND DUP2 MSTORE PUSH1 0x20 ADD PUSH1 0x40 MLOAD DUP1 SWAP2 SUB SWAP1 LOG1 POP JUMP JUMPDEST PUSH1 0x0 PUSH2 0xBD6 PUSH2 0x20A6 JUMP JUMPDEST PUSH2 0xBE0 DUP5 DUP4 PUSH2 0x236E JUMP JUMPDEST PUSH2 0xBEB DUP5 DUP5 DUP5 PUSH2 0x2562 JUMP JUMPDEST SWAP5 SWAP4 POP POP POP POP JUMP JUMPDEST PUSH1 0x12 DUP2 JUMP JUMPDEST PUSH1 0x0 PUSH1 0xB PUSH2 0xC04 PUSH2 0x3A48 JUMP JUMPDEST SWAP1 PUSH2 0x100 EXP SWAP1 DIV PUSH1 0xFF AND DUP2 JUMP JUMPDEST PUSH2 0xC19 PUSH2 0x22F6 JUMP JUMPDEST PUSH1 0x0 DUP1 PUSH1 0x2 PUSH2 0xC26 PUSH2 0x3BA8 JUMP JUMPDEST POP POP POP PUSH1 0x0 PUSH1 0x3 PUSH1 0x0 PUSH2 0x100 EXP DUP2 PUSH2 0xC3C PUSH2 0x3A48 JUMP JUMPDEST DUP2 PUSH1 0xFF MUL NOT AND SWAP1 DUP4 ISZERO ISZERO MUL OR SWAP1 PUSH2 0xC51 PUSH2 0x3BA8 JUMP JUMPDEST POP POP POP PUSH32 0x6ADCC7125002935E0AA31697538EBBD65CFDDF20431EB6ECDCFC3E238BFD082C PUSH1 0x40 MLOAD PUSH1 0x40 MLOAD DUP1 SWAP2 SUB SWAP1 LOG1 JUMP JUMPDEST PUSH2 0xC8A PUSH2 0x22F6 JUMP JUMPDEST DUP1 PUSH1 0xB PUSH2 0x100 DUP2 PUSH2 0xC99 PUSH2 0x3A48 JUMP JUMPDEST DUP2 PUSH1 0x1 PUSH1 0x1 PUSH1 0xA0 SHL SUB MUL NOT AND SWAP1 DUP4 PUSH1 0x1 PUSH1 0x1 PUSH1 0xA0 SHL SUB AND MUL OR SWAP1 PUSH2 0xCBB PUSH2 0x3BA8 JUMP JUMPDEST POP PUSH1 0x0 SWAP2 POP POP JUMPDEST PUSH1 0xD DUP1 PUSH2 0xCCD PUSH2 0x3A48 JUMP JUMPDEST SWAP1 POP DUP2 LT ISZERO PUSH2 0xE49 JUMPI PUSH1 0x0 PUSH1 0xD DUP3 DUP2 PUSH2 0xCE4 PUSH2 0x3A48 JUMP JUMPDEST DUP2 LT PUSH2 0xCEC JUMPI INVALID JUMPDEST SWAP1 PUSH1 0x0 MSTORE PUSH1 0x20 PUSH1 0x0 KECCAK256 ADD PUSH2 0xCFE PUSH2 0x3A48 JUMP JUMPDEST SWAP1 POP PUSH1 0x1 PUSH1 0xB PUSH2 0xD0C PUSH2 0x3A48 JUMP JUMPDEST SWAP1 PUSH2 0x100 EXP SWAP1 DIV PUSH1 0x1 PUSH1 0x1 PUSH1 0xA0 SHL SUB AND PUSH1 0x1 PUSH1 0x1 PUSH1 0xA0 SHL SUB AND PUSH4 0xDACB2D01 DUP3 PUSH1 0x40 MLOAD PUSH1 0x1 PUSH1 0x1 PUSH1 0xE0 SHL SUB NOT PUSH1 0xE0 DUP5 SWAP1 SHL AND DUP2 MSTORE PUSH1 0x4 DUP2 ADD SWAP2 SWAP1 SWAP2 MSTORE PUSH1 0x40 PUSH1 0x24 DUP3 ADD DUP2 SWAP1 MSTORE PUSH1 0x17 PUSH1 0x44 DUP4 ADD MSTORE PUSH32 0x5265736F6C766572206D697373696E6720746172676574000000000000000000 PUSH1 0x64 DUP4 ADD MSTORE PUSH1 0x84 SWAP1 SWAP2 ADD SWAP1 PUSH1 0x20 SWAP1 MLOAD DUP1 DUP4 SUB DUP2 DUP7 DUP1 PUSH2 0xD95 PUSH2 0x3AA3 JUMP JUMPDEST ISZERO DUP1 ISZERO PUSH2 0xDAA JUMPI PUSH1 0x0 DUP1 PUSH2 0xDA7 PUSH2 0x39DD JUMP JUMPDEST POP POP JUMPDEST POP GAS PUSH2 0xDB4 PUSH2 0x3BF6 JUMP JUMPDEST POP POP POP POP POP ISZERO DUP1 ISZERO PUSH2 0xDD3 JUMPI RETURNDATASIZE PUSH1 0x0 DUP1 RETURNDATACOPY RETURNDATASIZE PUSH1 0x0 PUSH2 0xDD0 PUSH2 0x39DD JUMP JUMPDEST POP POP JUMPDEST POP POP POP POP PUSH1 0x40 MLOAD RETURNDATASIZE PUSH1 0x20 DUP2 LT ISZERO PUSH2 0xDF2 JUMPI PUSH1 0x0 DUP1 PUSH2 0xDEF PUSH2 0x39DD JUMP JUMPDEST POP POP JUMPDEST DUP2 ADD SWAP1 DUP1 DUP1 MLOAD PUSH1 0x0 DUP6 DUP2 MSTORE PUSH1 0xC PUSH1 0x20 MSTORE SWAP1 SWAP4 POP PUSH1 0x40 SWAP3 POP SWAP1 POP KECCAK256 PUSH1 0x1 DUP2 PUSH2 0xE17 PUSH2 0x3A48 JUMP JUMPDEST DUP2 PUSH1 0x1 PUSH1 0x1 PUSH1 0xA0 SHL SUB MUL NOT AND SWAP1 DUP4 PUSH1 0x1 PUSH1 0x1 PUSH1 0xA0 SHL SUB AND MUL OR SWAP1 PUSH2 0xE39 PUSH2 0x3BA8 JUMP JUMPDEST POP POP PUSH1 0x1 SWAP1 SWAP3 ADD SWAP2 POP PUSH2 0xCC2 SWAP1 POP JUMP JUMPDEST POP POP JUMP JUMPDEST PUSH1 0x0 PUSH1 0x1 PUSH2 0x854 PUSH2 0x3A48 JUMP JUMPDEST PUSH1 0x0 PUSH1 0x1 PUSH1 0x1 PUSH1 0xA0 SHL SUB DUP3 AND PUSH1 0x1 PUSH1 0xB PUSH2 0xE71 PUSH2 0x3A48 JUMP JUMPDEST SWAP1 PUSH2 0x100 EXP SWAP1 DIV PUSH1 0x1 PUSH1 0x1 PUSH1 0xA0 SHL SUB AND PUSH1 0x1 PUSH1 0x1 PUSH1 0xA0 SHL SUB AND EQ PUSH2 0xE97 JUMPI POP PUSH1 0x0 PUSH2 0x1031 JUMP JUMPDEST PUSH1 0x0 JUMPDEST PUSH1 0xD DUP1 PUSH2 0xEA5 PUSH2 0x3A48 JUMP JUMPDEST SWAP1 POP DUP2 LT ISZERO PUSH2 0x102B JUMPI PUSH1 0x0 PUSH1 0xD DUP3 DUP2 PUSH2 0xEBC PUSH2 0x3A48 JUMP JUMPDEST DUP2 LT PUSH2 0xEC4 JUMPI INVALID JUMPDEST SWAP1 PUSH1 0x0 MSTORE PUSH1 0x20 PUSH1 0x0 KECCAK256 ADD PUSH2 0xED6 PUSH2 0x3A48 JUMP JUMPDEST PUSH1 0x0 DUP2 DUP2 MSTORE PUSH1 0xC PUSH1 0x20 MSTORE SWAP1 SWAP2 POP PUSH1 0x40 SWAP1 KECCAK256 PUSH1 0x0 SWAP1 PUSH2 0xEF2 PUSH2 0x3A48 JUMP JUMPDEST PUSH1 0x1 PUSH1 0x1 PUSH1 0xA0 SHL SUB PUSH2 0x100 SWAP3 SWAP1 SWAP3 EXP SWAP1 DIV AND PUSH1 0x1 PUSH1 0xB PUSH2 0xF10 PUSH2 0x3A48 JUMP JUMPDEST SWAP1 PUSH2 0x100 EXP SWAP1 DIV PUSH1 0x1 PUSH1 0x1 PUSH1 0xA0 SHL SUB AND PUSH1 0x1 PUSH1 0x1 PUSH1 0xA0 SHL SUB AND PUSH4 0x21F8A721 DUP4 PUSH1 0x40 MLOAD PUSH1 0x1 PUSH1 0x1 PUSH1 0xE0 SHL SUB NOT PUSH1 0xE0 DUP5 SWAP1 SHL AND DUP2 MSTORE PUSH1 0x4 DUP2 ADD SWAP2 SWAP1 SWAP2 MSTORE PUSH1 0x24 ADD PUSH1 0x20 PUSH1 0x40 MLOAD DUP1 DUP4 SUB DUP2 DUP7 DUP1 PUSH2 0xF61 PUSH2 0x3AA3 JUMP JUMPDEST ISZERO DUP1 ISZERO PUSH2 0xF76 JUMPI PUSH1 0x0 DUP1 PUSH2 0xF73 PUSH2 0x39DD JUMP JUMPDEST POP POP JUMPDEST POP GAS PUSH2 0xF80 PUSH2 0x3BF6 JUMP JUMPDEST POP POP POP POP POP ISZERO DUP1 ISZERO PUSH2 0xF9F JUMPI RETURNDATASIZE PUSH1 0x0 DUP1 RETURNDATACOPY RETURNDATASIZE PUSH1 0x0 PUSH2 0xF9C PUSH2 0x39DD JUMP JUMPDEST POP POP JUMPDEST POP POP POP POP PUSH1 0x40 MLOAD RETURNDATASIZE PUSH1 0x20 DUP2 LT ISZERO PUSH2 0xFBE JUMPI PUSH1 0x0 DUP1 PUSH2 0xFBB PUSH2 0x39DD JUMP JUMPDEST POP POP JUMPDEST DUP2 ADD SWAP1 DUP1 DUP1 MLOAD PUSH1 0x1 PUSH1 0x1 PUSH1 0xA0 SHL SUB AND SWAP4 SWAP1 SWAP4 EQ ISZERO SWAP3 POP DUP3 SWAP2 POP PUSH2 0x1012 SWAP1 POP JUMPI POP PUSH1 0x0 DUP2 DUP2 MSTORE PUSH1 0xC PUSH1 0x20 MSTORE PUSH1 0x40 DUP2 KECCAK256 PUSH1 0x0 SWAP1 PUSH2 0xFF7 PUSH2 0x3A48 JUMP JUMPDEST SWAP1 PUSH2 0x100 EXP SWAP1 DIV PUSH1 0x1 PUSH1 0x1 PUSH1 0xA0 SHL SUB AND PUSH1 0x1 PUSH1 0x1 PUSH1 0xA0 SHL SUB AND EQ JUMPDEST ISZERO PUSH2 0x1022 JUMPI PUSH1 0x0 SWAP3 POP POP POP PUSH2 0x1031 JUMP JUMPDEST POP PUSH1 0x1 ADD PUSH2 0xE9A JUMP JUMPDEST POP PUSH1 0x1 SWAP1 POP JUMPDEST SWAP2 SWAP1 POP JUMP JUMPDEST PUSH1 0x0 DUP1 PUSH1 0x7 PUSH2 0x1043 PUSH2 0x3A48 JUMP JUMPDEST SWAP1 PUSH2 0x100 EXP SWAP1 DIV PUSH1 0x1 PUSH1 0x1 PUSH1 0xA0 SHL SUB AND PUSH1 0x1 PUSH1 0x1 PUSH1 0xA0 SHL SUB AND PUSH4 0x70A08231 DUP4 PUSH1 0x40 MLOAD PUSH1 0x1 PUSH1 0x1 PUSH1 0xE0 SHL SUB NOT PUSH1 0xE0 DUP5 SWAP1 SHL AND DUP2 MSTORE PUSH1 0x1 PUSH1 0x1 PUSH1 0xA0 SHL SUB SWAP1 SWAP2 AND PUSH1 0x4 DUP3 ADD MSTORE PUSH1 0x24 ADD PUSH1 0x20 PUSH1 0x40 MLOAD DUP1 DUP4 SUB DUP2 DUP7 DUP1 PUSH2 0x109C PUSH2 0x3AA3 JUMP JUMPDEST ISZERO DUP1 ISZERO PUSH2 0x10B1 JUMPI PUSH1 0x0 DUP1 PUSH2 0x10AE PUSH2 0x39DD JUMP JUMPDEST POP POP JUMPDEST POP GAS PUSH2 0x10BB PUSH2 0x3BF6 JUMP JUMPDEST POP POP POP POP POP ISZERO DUP1 ISZERO PUSH2 0x10DA JUMPI RETURNDATASIZE PUSH1 0x0 DUP1 RETURNDATACOPY RETURNDATASIZE PUSH1 0x0 PUSH2 0x10D7 PUSH2 0x39DD JUMP JUMPDEST POP POP JUMPDEST POP POP POP POP PUSH1 0x40 MLOAD RETURNDATASIZE PUSH1 0x20 DUP2 LT ISZERO PUSH2 0x10F9 JUMPI PUSH1 0x0 DUP1 PUSH2 0x10F6 PUSH2 0x39DD JUMP JUMPDEST POP POP JUMPDEST DUP2 ADD SWAP1 DUP1 DUP1 MLOAD SWAP6 SWAP5 POP POP POP POP POP JUMP JUMPDEST PUSH1 0x0 PUSH1 0x1 PUSH2 0x1114 PUSH2 0x3A48 JUMP JUMPDEST SWAP1 PUSH2 0x100 EXP SWAP1 DIV PUSH1 0x1 PUSH1 0x1 PUSH1 0xA0 SHL SUB AND PUSH1 0x1 PUSH1 0x1 PUSH1 0xA0 SHL SUB AND GAS PUSH2 0x1136 PUSH2 0x3CAF JUMP JUMPDEST PUSH1 0x1 PUSH1 0x1 PUSH1 0xA0 SHL SUB AND EQ PUSH2 0x1184 JUMPI PUSH1 0x40 MLOAD PUSH3 0x461BCD PUSH1 0xE5 SHL DUP2 MSTORE PUSH1 0x4 ADD DUP1 DUP1 PUSH1 0x20 ADD DUP3 DUP2 SUB DUP3 MSTORE PUSH1 0x35 DUP2 MSTORE PUSH1 0x20 ADD DUP1 PUSH2 0x3D59 PUSH1 0x35 SWAP2 CODECOPY PUSH1 0x40 ADD SWAP2 POP POP PUSH1 0x40 MLOAD DUP1 SWAP2 SUB SWAP1 PUSH2 0x1181 PUSH2 0x39DD JUMP JUMPDEST POP POP JUMPDEST PUSH32 0xB532073B38C83145E3E5135377A08BF9AAB55BC0FD7C1179CD4FB995D2A5159C PUSH1 0x0 DUP1 PUSH2 0x11B0 PUSH2 0x3A48 JUMP JUMPDEST SWAP1 PUSH2 0x100 EXP SWAP1 DIV PUSH1 0x1 PUSH1 0x1 PUSH1 0xA0 SHL SUB AND PUSH1 0x1 PUSH1 0x0 SWAP1 PUSH2 0x11CD PUSH2 0x3A48 JUMP JUMPDEST SWAP1 PUSH2 0x100 EXP SWAP1 DIV PUSH1 0x1 PUSH1 0x1 PUSH1 0xA0 SHL SUB AND PUSH1 0x40 MLOAD PUSH1 0x1 PUSH1 0x1 PUSH1 0xA0 SHL SUB SWAP3 DUP4 AND DUP2 MSTORE SWAP2 AND PUSH1 0x20 DUP3 ADD MSTORE PUSH1 0x40 SWAP1 DUP2 ADD SWAP1 MLOAD DUP1 SWAP2 SUB SWAP1 LOG1 PUSH1 0x0 PUSH1 0x1 PUSH2 0x120C PUSH2 0x3A48 JUMP JUMPDEST SWAP1 PUSH2 0x100 EXP SWAP1 DIV PUSH1 0x1 PUSH1 0x1 PUSH1 0xA0 SHL SUB AND PUSH1 0x0 DUP1 PUSH2 0x100 EXP DUP2 PUSH2 0x122C PUSH2 0x3A48 JUMP JUMPDEST DUP2 PUSH1 0x1 PUSH1 0x1 PUSH1 0xA0 SHL SUB MUL NOT AND SWAP1 DUP4 PUSH1 0x1 PUSH1 0x1 PUSH1 0xA0 SHL SUB AND MUL OR SWAP1 PUSH2 0x124E PUSH2 0x3BA8 JUMP JUMPDEST POP POP POP PUSH1 0x0 PUSH1 0x1 PUSH1 0x0 PUSH2 0x100 EXP DUP2 PUSH2 0x1264 PUSH2 0x3A48 JUMP JUMPDEST DUP2 PUSH1 0x1 PUSH1 0x1 PUSH1 0xA0 SHL SUB MUL NOT AND SWAP1 DUP4 PUSH1 0x1 PUSH1 0x1 PUSH1 0xA0 SHL SUB AND MUL OR SWAP1 PUSH2 0x1286 PUSH2 0x3BA8 JUMP JUMPDEST POP POP POP JUMP JUMPDEST PUSH1 0x0 PUSH2 0x1295 PUSH2 0x282D JUMP JUMPDEST PUSH1 0x1 PUSH1 0x1 PUSH1 0xA0 SHL SUB AND GAS PUSH2 0x12A7 PUSH2 0x3CAF JUMP JUMPDEST PUSH1 0x1 PUSH1 0x1 PUSH1 0xA0 SHL SUB AND EQ SWAP1 POP PUSH1 0x0 PUSH2 0x12BD PUSH2 0x287B JUMP JUMPDEST PUSH1 0x1 PUSH1 0x1 PUSH1 0xA0 SHL SUB AND GAS PUSH2 0x12CF PUSH2 0x3CAF JUMP JUMPDEST PUSH1 0x1 PUSH1 0x1 PUSH1 0xA0 SHL SUB AND EQ SWAP1 POP PUSH1 0x0 PUSH2 0x12E5 PUSH2 0x28C6 JUMP JUMPDEST PUSH1 0x1 PUSH1 0x1 PUSH1 0xA0 SHL SUB AND GAS PUSH2 0x12F7 PUSH2 0x3CAF JUMP JUMPDEST PUSH1 0x1 PUSH1 0x1 PUSH1 0xA0 SHL SUB AND EQ SWAP1 POP PUSH1 0x0 PUSH2 0x130D PUSH2 0x2907 JUMP JUMPDEST PUSH1 0x1 PUSH1 0x1 PUSH1 0xA0 SHL SUB AND GAS PUSH2 0x131F PUSH2 0x3CAF JUMP JUMPDEST PUSH1 0x1 PUSH1 0x1 PUSH1 0xA0 SHL SUB AND EQ SWAP1 POP DUP4 DUP1 PUSH2 0x1334 JUMPI POP DUP3 JUMPDEST DUP1 PUSH2 0x133C JUMPI POP DUP2 JUMPDEST DUP1 PUSH2 0x1344 JUMPI POP DUP1 JUMPDEST PUSH2 0x1388 JUMPI PUSH1 0x40 MLOAD PUSH3 0x461BCD PUSH1 0xE5 SHL DUP2 MSTORE PUSH1 0x4 ADD DUP1 DUP1 PUSH1 0x20 ADD DUP3 DUP2 SUB DUP3 MSTORE PUSH1 0x44 DUP2 MSTORE PUSH1 0x20 ADD DUP1 PUSH2 0x3DBD PUSH1 0x44 SWAP2 CODECOPY PUSH1 0x60 ADD SWAP2 POP POP PUSH1 0x40 MLOAD DUP1 SWAP2 SUB SWAP1 PUSH2 0x1385 PUSH2 0x39DD JUMP JUMPDEST POP POP JUMPDEST PUSH2 0x1392 DUP7 DUP7 PUSH2 0x2932 JUMP JUMPDEST POP POP POP POP POP POP JUMP JUMPDEST PUSH1 0x0 DUP1 PUSH2 0x854 PUSH2 0x3A48 JUMP JUMPDEST PUSH1 0x9 DUP1 PUSH2 0x13B0 PUSH2 0x3A48 JUMP JUMPDEST PUSH1 0x1 DUP2 PUSH1 0x1 AND ISZERO PUSH2 0x100 MUL SUB AND PUSH1 0x2 SWAP1 DIV DUP1 PUSH1 0x1F ADD PUSH1 0x20 DUP1 SWAP2 DIV MUL PUSH1 0x20 ADD PUSH1 0x40 MLOAD SWAP1 DUP2 ADD PUSH1 0x40 MSTORE DUP2 DUP2 MSTORE SWAP2 SWAP1 PUSH1 0x20 DUP4 ADD DUP3 DUP1 PUSH2 0x13EA PUSH2 0x3A48 JUMP JUMPDEST PUSH1 0x1 DUP2 PUSH1 0x1 AND ISZERO PUSH2 0x100 MUL SUB AND PUSH1 0x2 SWAP1 DIV DUP1 ISZERO PUSH2 0x918 JUMPI DUP1 PUSH1 0x1F LT PUSH2 0x1416 JUMPI PUSH2 0x100 DUP1 DUP4 PUSH2 0x8D8 PUSH2 0x3A48 JUMP JUMPDEST DUP3 ADD SWAP2 SWAP1 PUSH1 0x0 MSTORE PUSH1 0x20 PUSH1 0x0 KECCAK256 SWAP1 JUMPDEST DUP2 PUSH2 0x142D PUSH2 0x3A48 JUMP JUMPDEST DUP2 MSTORE SWAP1 PUSH1 0x1 ADD SWAP1 PUSH1 0x20 ADD DUP1 DUP4 GT PUSH2 0x1424 JUMPI POP DUP6 SWAP4 POP POP POP POP JUMP JUMPDEST PUSH2 0x144F PUSH2 0x22F6 JUMP JUMPDEST DUP1 PUSH1 0x4 PUSH1 0x1 DUP2 PUSH2 0x145D PUSH2 0x3A48 JUMP JUMPDEST DUP2 PUSH1 0x1 PUSH1 0x1 PUSH1 0xA0 SHL SUB MUL NOT AND SWAP1 DUP4 PUSH1 0x1 PUSH1 0x1 PUSH1 0xA0 SHL SUB AND MUL OR SWAP1 PUSH2 0x147F PUSH2 0x3BA8 JUMP JUMPDEST POP POP POP PUSH32 0xFC80377CA9C49CC11AE6982F390A42DB976D5530AF7C43889264B13FBBD7C57E DUP2 PUSH1 0x40 MLOAD PUSH1 0x1 PUSH1 0x1 PUSH1 0xA0 SHL SUB SWAP1 SWAP2 AND DUP2 MSTORE PUSH1 0x20 ADD PUSH1 0x40 MLOAD DUP1 SWAP2 SUB SWAP1 LOG1 POP JUMP JUMPDEST PUSH2 0x14CA PUSH2 0x22F6 JUMP JUMPDEST PUSH1 0x0 PUSH1 0x3 PUSH2 0x14D6 PUSH2 0x3A48 JUMP JUMPDEST SWAP1 PUSH2 0x100 EXP SWAP1 DIV PUSH1 0xFF AND PUSH2 0x1539 JUMPI PUSH1 0x40 MLOAD PUSH3 0x461BCD PUSH1 0xE5 SHL DUP2 MSTORE PUSH1 0x20 PUSH1 0x4 DUP3 ADD MSTORE PUSH1 0x1F PUSH1 0x24 DUP3 ADD MSTORE PUSH32 0x53656C66204465737472756374206E6F742079657420696E6974696174656400 PUSH1 0x44 DUP3 ADD MSTORE PUSH1 0x64 ADD PUSH1 0x40 MLOAD DUP1 SWAP2 SUB SWAP1 PUSH2 0x1536 PUSH2 0x39DD JUMP JUMPDEST POP POP JUMPDEST GAS PUSH2 0x1542 PUSH2 0x3CF5 JUMP JUMPDEST PUSH3 0x24EA00 PUSH1 0x2 PUSH2 0x1550 PUSH2 0x3A48 JUMP JUMPDEST ADD LT PUSH2 0x15AB JUMPI PUSH1 0x40 MLOAD PUSH3 0x461BCD PUSH1 0xE5 SHL DUP2 MSTORE PUSH1 0x20 PUSH1 0x4 DUP3 ADD MSTORE PUSH1 0x1B PUSH1 0x24 DUP3 ADD MSTORE PUSH32 0x53656C662064657374727563742064656C6179206E6F74206D65740000000000 PUSH1 0x44 DUP3 ADD MSTORE PUSH1 0x64 ADD PUSH1 0x40 MLOAD DUP1 SWAP2 SUB SWAP1 PUSH2 0x15A8 PUSH2 0x39DD JUMP JUMPDEST POP POP JUMPDEST PUSH32 0x8A09E1677CED846CB537DC2B172043BD05A1A81AD7E0033A7EF8BA762DF990B7 PUSH1 0x1 PUSH1 0x3 PUSH2 0x15D8 PUSH2 0x3A48 JUMP JUMPDEST SWAP1 PUSH2 0x100 EXP SWAP1 DIV PUSH1 0x1 PUSH1 0x1 PUSH1 0xA0 SHL SUB AND PUSH1 0x40 MLOAD PUSH1 0x1 PUSH1 0x1 PUSH1 0xA0 SHL SUB SWAP1 SWAP2 AND DUP2 MSTORE PUSH1 0x20 ADD PUSH1 0x40 MLOAD DUP1 SWAP2 SUB SWAP1 LOG1 JUMP JUMPDEST PUSH1 0x0 PUSH1 0x5 PUSH2 0x854 PUSH2 0x3A48 JUMP JUMPDEST PUSH1 0x0 PUSH2 0x161B PUSH2 0x282D JUMP JUMPDEST PUSH1 0x1 PUSH1 0x1 PUSH1 0xA0 SHL SUB AND GAS PUSH2 0x162D PUSH2 0x3CAF JUMP JUMPDEST PUSH1 0x1 PUSH1 0x1 PUSH1 0xA0 SHL SUB AND EQ SWAP1 POP PUSH1 0x0 PUSH2 0x1643 PUSH2 0x287B JUMP JUMPDEST PUSH1 0x1 PUSH1 0x1 PUSH1 0xA0 SHL SUB AND GAS PUSH2 0x1655 PUSH2 0x3CAF JUMP JUMPDEST PUSH1 0x1 PUSH1 0x1 PUSH1 0xA0 SHL SUB AND EQ SWAP1 POP PUSH1 0x0 PUSH2 0x166B PUSH2 0x28C6 JUMP JUMPDEST PUSH1 0x1 PUSH1 0x1 PUSH1 0xA0 SHL SUB AND GAS PUSH2 0x167D PUSH2 0x3CAF JUMP JUMPDEST PUSH1 0x1 PUSH1 0x1 PUSH1 0xA0 SHL SUB AND EQ SWAP1 POP PUSH1 0x0 PUSH2 0x1693 PUSH2 0x2907 JUMP JUMPDEST PUSH1 0x1 PUSH1 0x1 PUSH1 0xA0 SHL SUB AND GAS PUSH2 0x16A5 PUSH2 0x3CAF JUMP JUMPDEST PUSH1 0x1 PUSH1 0x1 PUSH1 0xA0 SHL SUB AND EQ SWAP1 POP DUP4 DUP1 PUSH2 0x16BA JUMPI POP DUP3 JUMPDEST DUP1 PUSH2 0x16C2 JUMPI POP DUP2 JUMPDEST DUP1 PUSH2 0x16CA JUMPI POP DUP1 JUMPDEST PUSH2 0x170E JUMPI PUSH1 0x40 MLOAD PUSH3 0x461BCD PUSH1 0xE5 SHL DUP2 MSTORE PUSH1 0x4 ADD DUP1 DUP1 PUSH1 0x20 ADD DUP3 DUP2 SUB DUP3 MSTORE PUSH1 0x44 DUP2 MSTORE PUSH1 0x20 ADD DUP1 PUSH2 0x3DBD PUSH1 0x44 SWAP2 CODECOPY PUSH1 0x60 ADD SWAP2 POP POP PUSH1 0x40 MLOAD DUP1 SWAP2 SUB SWAP1 PUSH2 0x170B PUSH2 0x39DD JUMP JUMPDEST POP POP JUMPDEST PUSH2 0x1718 DUP7 DUP7 PUSH2 0x2AF5 JUMP JUMPDEST POP POP POP POP POP POP POP JUMP JUMPDEST PUSH2 0x1729 PUSH2 0x2C4E JUMP JUMPDEST DUP1 PUSH1 0x7 PUSH1 0x1 DUP2 PUSH2 0x1737 PUSH2 0x3A48 JUMP JUMPDEST DUP2 PUSH1 0x1 PUSH1 0x1 PUSH1 0xA0 SHL SUB MUL NOT AND SWAP1 DUP4 PUSH1 0x1 PUSH1 0x1 PUSH1 0xA0 SHL SUB AND MUL OR SWAP1 PUSH2 0x1759 PUSH2 0x3BA8 JUMP JUMPDEST POP POP POP PUSH2 0x1765 DUP2 PUSH2 0x2DD9 JUMP JUMPDEST POP JUMP JUMPDEST PUSH3 0x24EA00 DUP2 JUMP JUMPDEST PUSH1 0x0 PUSH2 0x1779 PUSH2 0x20A6 JUMP JUMPDEST PUSH2 0x179E PUSH1 0x0 PUSH1 0x6 PUSH2 0x1788 PUSH2 0x3A48 JUMP JUMPDEST SWAP1 PUSH2 0x100 EXP SWAP1 DIV PUSH1 0x1 PUSH1 0x1 PUSH1 0xA0 SHL SUB AND DUP4 PUSH2 0x236E JUMP JUMPDEST PUSH1 0x1 PUSH1 0x1 PUSH1 0xA0 SHL SUB DUP4 AND PUSH20 0xFEEFEEFEEFEEFEEFEEFEEFEEFEEFEEFEEFEEFEEF EQ ISZERO PUSH2 0x17D4 JUMPI PUSH2 0x17CD DUP4 DUP4 PUSH2 0x2F64 JUMP JUMPDEST SWAP1 POP PUSH2 0xA18 JUMP JUMPDEST PUSH1 0x1 PUSH1 0x1 PUSH1 0xA0 SHL SUB DUP4 AND PUSH2 0x1807 JUMPI PUSH2 0x17CD PUSH1 0x0 PUSH1 0x6 PUSH2 0x17F1 PUSH2 0x3A48 JUMP JUMPDEST SWAP1 PUSH2 0x100 EXP SWAP1 DIV PUSH1 0x1 PUSH1 0x1 PUSH1 0xA0 SHL SUB AND DUP4 PUSH2 0x2AF5 JUMP JUMPDEST PUSH2 0x182D PUSH1 0x0 PUSH1 0x6 PUSH2 0x1816 PUSH2 0x3A48 JUMP JUMPDEST SWAP1 PUSH2 0x100 EXP SWAP1 DIV PUSH1 0x1 PUSH1 0x1 PUSH1 0xA0 SHL SUB AND DUP5 DUP5 PUSH2 0x3162 JUMP JUMPDEST SWAP4 SWAP3 POP POP POP JUMP JUMPDEST PUSH2 0x183C PUSH2 0x3D3B JUMP JUMPDEST PUSH1 0x0 JUMPDEST PUSH1 0xD DUP1 PUSH2 0x184A PUSH2 0x3A48 JUMP JUMPDEST SWAP1 POP DUP2 LT ISZERO PUSH2 0x1892 JUMPI PUSH1 0xD DUP2 DUP2 PUSH2 0x185F PUSH2 0x3A48 JUMP JUMPDEST DUP2 LT PUSH2 0x1867 JUMPI INVALID JUMPDEST SWAP1 PUSH1 0x0 MSTORE PUSH1 0x20 PUSH1 0x0 KECCAK256 ADD PUSH2 0x1879 PUSH2 0x3A48 JUMP JUMPDEST DUP3 DUP3 PUSH1 0x18 DUP2 LT PUSH2 0x1885 JUMPI INVALID JUMPDEST PUSH1 0x20 MUL ADD MSTORE PUSH1 0x1 ADD PUSH2 0x183F JUMP JUMPDEST POP SWAP1 JUMP JUMPDEST PUSH1 0x0 PUSH2 0x18A0 PUSH2 0x20A6 JUMP JUMPDEST PUSH1 0x0 PUSH2 0x18AA PUSH2 0x287B JUMP JUMPDEST PUSH1 0x1 PUSH1 0x1 PUSH1 0xA0 SHL SUB AND PUSH4 0x1B16802C PUSH1 0x0 PUSH1 0x6 PUSH2 0x18C4 PUSH2 0x3A48 JUMP JUMPDEST SWAP1 PUSH2 0x100 EXP SWAP1 DIV PUSH1 0x1 PUSH1 0x1 PUSH1 0xA0 SHL SUB AND PUSH1 0xE PUSH2 0x18DE PUSH2 0x3A48 JUMP JUMPDEST PUSH1 0x40 MLOAD PUSH1 0x1 PUSH1 0x1 PUSH1 0xE0 SHL SUB NOT PUSH1 0xE0 DUP6 SWAP1 SHL AND DUP2 MSTORE PUSH1 0x1 PUSH1 0x1 PUSH1 0xA0 SHL SUB SWAP1 SWAP3 AND PUSH1 0x4 DUP4 ADD MSTORE PUSH1 0x24 DUP3 ADD MSTORE PUSH1 0x44 ADD PUSH1 0x60 PUSH1 0x40 MLOAD DUP1 DUP4 SUB DUP2 PUSH1 0x0 DUP8 DUP1 PUSH2 0x191F PUSH2 0x3AA3 JUMP JUMPDEST ISZERO DUP1 ISZERO PUSH2 0x1934 JUMPI PUSH1 0x0 DUP1 PUSH2 0x1931 PUSH2 0x39DD JUMP JUMPDEST POP POP JUMPDEST POP GAS PUSH2 0x193E PUSH2 0x3AEF JUMP JUMPDEST POP POP POP POP POP POP ISZERO DUP1 ISZERO PUSH2 0x195E JUMPI RETURNDATASIZE PUSH1 0x0 DUP1 RETURNDATACOPY RETURNDATASIZE PUSH1 0x0 PUSH2 0x195B PUSH2 0x39DD JUMP JUMPDEST POP POP JUMPDEST POP POP POP POP PUSH1 0x40 MLOAD RETURNDATASIZE PUSH1 0x60 DUP2 LT ISZERO PUSH2 0x197D JUMPI PUSH1 0x0 DUP1 PUSH2 0x197A PUSH2 0x39DD JUMP JUMPDEST POP POP JUMPDEST DUP2 ADD SWAP1 DUP1 DUP1 MLOAD SWAP3 SWAP2 SWAP1 PUSH1 0x20 ADD DUP1 MLOAD SWAP3 SWAP2 SWAP1 PUSH1 0x20 ADD DUP1 MLOAD SWAP6 POP DUP8 SWAP5 POP POP DUP5 ISZERO SWAP3 POP PUSH2 0x1A86 SWAP2 POP POP JUMPI PUSH1 0x0 PUSH1 0x7 PUSH2 0x19B0 PUSH2 0x3A48 JUMP JUMPDEST PUSH1 0x1 PUSH1 0x1 PUSH1 0xA0 SHL SUB PUSH2 0x100 SWAP3 SWAP1 SWAP3 EXP SWAP1 DIV AND PUSH4 0x70A08231 PUSH1 0x0 PUSH1 0x6 PUSH2 0x19D3 PUSH2 0x3A48 JUMP JUMPDEST SWAP1 PUSH2 0x100 EXP SWAP1 DIV PUSH1 0x1 PUSH1 0x1 PUSH1 0xA0 SHL SUB AND PUSH1 0x40 MLOAD PUSH1 0x1 PUSH1 0x1 PUSH1 0xE0 SHL SUB NOT PUSH1 0xE0 DUP5 SWAP1 SHL AND DUP2 MSTORE PUSH1 0x1 PUSH1 0x1 PUSH1 0xA0 SHL SUB SWAP1 SWAP2 AND PUSH1 0x4 DUP3 ADD MSTORE PUSH1 0x24 ADD PUSH1 0x20 PUSH1 0x40 MLOAD DUP1 DUP4 SUB DUP2 DUP7 DUP1 PUSH2 0x1A1D PUSH2 0x3AA3 JUMP JUMPDEST ISZERO DUP1 ISZERO PUSH2 0x1A32 JUMPI PUSH1 0x0 DUP1 PUSH2 0x1A2F PUSH2 0x39DD JUMP JUMPDEST POP POP JUMPDEST POP GAS PUSH2 0x1A3C PUSH2 0x3BF6 JUMP JUMPDEST POP POP POP POP POP ISZERO DUP1 ISZERO PUSH2 0x1A5B JUMPI RETURNDATASIZE PUSH1 0x0 DUP1 RETURNDATACOPY RETURNDATASIZE PUSH1 0x0 PUSH2 0x1A58 PUSH2 0x39DD JUMP JUMPDEST POP POP JUMPDEST POP POP POP POP PUSH1 0x40 MLOAD RETURNDATASIZE PUSH1 0x20 DUP2 LT ISZERO PUSH2 0x1A7A JUMPI PUSH1 0x0 DUP1 PUSH2 0x1A77 PUSH2 0x39DD JUMP JUMPDEST POP POP JUMPDEST DUP2 ADD SWAP1 DUP1 DUP1 MLOAD SWAP4 POP POP POP POP JUMPDEST DUP1 DUP5 GT PUSH2 0x1A93 JUMPI DUP4 PUSH2 0x1A95 JUMP JUMPDEST DUP1 JUMPDEST SWAP4 POP PUSH2 0x1ABD PUSH1 0x0 PUSH1 0x6 PUSH2 0x1AA6 PUSH2 0x3A48 JUMP JUMPDEST SWAP1 PUSH2 0x100 EXP SWAP1 DIV PUSH1 0x1 PUSH1 0x1 PUSH1 0xA0 SHL SUB AND DUP7 DUP7 PUSH2 0x3162 JUMP JUMPDEST SWAP6 SWAP5 POP POP POP POP POP JUMP JUMPDEST PUSH1 0x0 PUSH1 0x3 PUSH2 0xC04 PUSH2 0x3A48 JUMP JUMPDEST PUSH2 0x1ADA PUSH2 0x34B0 JUMP JUMPDEST DUP1 PUSH1 0x6 PUSH1 0x1 DUP2 PUSH2 0xA34 PUSH2 0x3A48 JUMP JUMPDEST PUSH2 0x1AF0 PUSH2 0x22F6 JUMP JUMPDEST GAS PUSH2 0x1AF9 PUSH2 0x3CF5 JUMP JUMPDEST DUP1 PUSH1 0x2 PUSH2 0x1B04 PUSH2 0x3BA8 JUMP JUMPDEST POP POP POP PUSH1 0x1 PUSH1 0x3 PUSH1 0x0 PUSH2 0x100 EXP DUP2 PUSH2 0x1B1A PUSH2 0x3A48 JUMP JUMPDEST DUP2 PUSH1 0xFF MUL NOT AND SWAP1 DUP4 ISZERO ISZERO MUL OR SWAP1 PUSH2 0x1B2F PUSH2 0x3BA8 JUMP JUMPDEST POP POP POP PUSH32 0xCBD94CA75B8DC45C9D80C77E851670E78843C0D75180CB81DB3E2158228FA9A6 PUSH3 0x24EA00 PUSH1 0x40 MLOAD SWAP1 DUP2 MSTORE PUSH1 0x20 ADD PUSH1 0x40 MLOAD DUP1 SWAP2 SUB SWAP1 LOG1 JUMP JUMPDEST PUSH1 0x1 PUSH1 0x3 PUSH2 0x854 PUSH2 0x3A48 JUMP JUMPDEST PUSH1 0xD DUP2 DUP2 PUSH2 0x1B82 PUSH2 0x3A48 JUMP JUMPDEST DUP2 LT PUSH2 0x1B8A JUMPI INVALID JUMPDEST SWAP1 PUSH1 0x0 MSTORE PUSH1 0x20 PUSH1 0x0 KECCAK256 ADD SWAP1 POP PUSH2 0xAE0 PUSH2 0x3A48 JUMP JUMPDEST PUSH1 0x0 PUSH1 0x6 PUSH2 0x854 PUSH2 0x3A48 JUMP JUMPDEST PUSH1 0xE PUSH2 0xAE0 PUSH2 0x3A48 JUMP JUMPDEST PUSH1 0x0 DUP1 PUSH1 0x7 PUSH2 0x1BC1 PUSH2 0x3A48 JUMP JUMPDEST SWAP1 PUSH2 0x100 EXP SWAP1 DIV PUSH1 0x1 PUSH1 0x1 PUSH1 0xA0 SHL SUB AND PUSH1 0x1 PUSH1 0x1 PUSH1 0xA0 SHL SUB AND PUSH4 0xDD62ED3E DUP5 DUP5 PUSH1 0x40 MLOAD PUSH1 0x1 PUSH1 0x1 PUSH1 0xE0 SHL SUB NOT PUSH1 0xE0 DUP6 SWAP1 SHL AND DUP2 MSTORE PUSH1 0x1 PUSH1 0x1 PUSH1 0xA0 SHL SUB SWAP3 DUP4 AND PUSH1 0x4 DUP3 ADD MSTORE SWAP2 AND PUSH1 0x24 DUP3 ADD MSTORE PUSH1 0x44 ADD PUSH1 0x20 PUSH1 0x40 MLOAD DUP1 DUP4 SUB DUP2 DUP7 DUP1 PUSH2 0x1C22 PUSH2 0x3AA3 JUMP JUMPDEST ISZERO DUP1 ISZERO PUSH2 0x1C37 JUMPI PUSH1 0x0 DUP1 PUSH2 0x1C34 PUSH2 0x39DD JUMP JUMPDEST POP POP JUMPDEST POP GAS PUSH2 0x1C41 PUSH2 0x3BF6 JUMP JUMPDEST POP POP POP POP POP ISZERO DUP1 ISZERO PUSH2 0x1C60 JUMPI RETURNDATASIZE PUSH1 0x0 DUP1 RETURNDATACOPY RETURNDATASIZE PUSH1 0x0 PUSH2 0x1C5D PUSH2 0x39DD JUMP JUMPDEST POP POP JUMPDEST POP POP POP POP PUSH1 0x40 MLOAD RETURNDATASIZE PUSH1 0x20 DUP2 LT ISZERO PUSH2 0x1C7F JUMPI PUSH1 0x0 DUP1 PUSH2 0x1C7C PUSH2 0x39DD JUMP JUMPDEST POP POP JUMPDEST DUP2 ADD SWAP1 DUP1 DUP1 MLOAD SWAP7 SWAP6 POP POP POP POP POP POP JUMP JUMPDEST PUSH1 0x18 DUP2 JUMP JUMPDEST PUSH1 0x0 PUSH2 0x1C9E PUSH2 0x20A6 JUMP JUMPDEST PUSH1 0x0 PUSH2 0x1CA8 PUSH2 0x287B JUMP JUMPDEST PUSH1 0x1 PUSH1 0x1 PUSH1 0xA0 SHL SUB AND PUSH4 0x1B16802C DUP7 PUSH1 0xE PUSH2 0x1CC1 PUSH2 0x3A48 JUMP JUMPDEST PUSH1 0x40 MLOAD PUSH1 0x1 PUSH1 0x1 PUSH1 0xE0 SHL SUB NOT PUSH1 0xE0 DUP6 SWAP1 SHL AND DUP2 MSTORE PUSH1 0x1 PUSH1 0x1 PUSH1 0xA0 SHL SUB SWAP1 SWAP3 AND PUSH1 0x4 DUP4 ADD MSTORE PUSH1 0x24 DUP3 ADD MSTORE PUSH1 0x44 ADD PUSH1 0x60 PUSH1 0x40 MLOAD DUP1 DUP4 SUB DUP2 PUSH1 0x0 DUP8 DUP1 PUSH2 0x1D02 PUSH2 0x3AA3 JUMP JUMPDEST ISZERO DUP1 ISZERO PUSH2 0x1D17 JUMPI PUSH1 0x0 DUP1 PUSH2 0x1D14 PUSH2 0x39DD JUMP JUMPDEST POP POP JUMPDEST POP GAS PUSH2 0x1D21 PUSH2 0x3AEF JUMP JUMPDEST POP POP POP POP POP POP ISZERO DUP1 ISZERO PUSH2 0x1D41 JUMPI RETURNDATASIZE PUSH1 0x0 DUP1 RETURNDATACOPY RETURNDATASIZE PUSH1 0x0 PUSH2 0x1D3E PUSH2 0x39DD JUMP JUMPDEST POP POP JUMPDEST POP POP POP POP PUSH1 0x40 MLOAD RETURNDATASIZE PUSH1 0x60 DUP2 LT ISZERO PUSH2 0x1D60 JUMPI PUSH1 0x0 DUP1 PUSH2 0x1D5D PUSH2 0x39DD JUMP JUMPDEST POP POP JUMPDEST DUP2 ADD SWAP1 DUP1 DUP1 MLOAD SWAP3 SWAP2 SWAP1 PUSH1 0x20 ADD DUP1 MLOAD SWAP3 SWAP2 SWAP1 PUSH1 0x20 ADD DUP1 MLOAD SWAP6 POP DUP8 SWAP5 POP POP DUP5 ISZERO SWAP3 POP PUSH2 0x1E55 SWAP2 POP POP JUMPI PUSH1 0x0 PUSH1 0x7 PUSH2 0x1D93 PUSH2 0x3A48 JUMP JUMPDEST SWAP1 PUSH2 0x100 EXP SWAP1 DIV PUSH1 0x1 PUSH1 0x1 PUSH1 0xA0 SHL SUB AND PUSH1 0x1 PUSH1 0x1 PUSH1 0xA0 SHL SUB AND PUSH4 0x70A08231 DUP8 PUSH1 0x40 MLOAD PUSH1 0x1 PUSH1 0x1 PUSH1 0xE0 SHL SUB NOT PUSH1 0xE0 DUP5 SWAP1 SHL AND DUP2 MSTORE PUSH1 0x1 PUSH1 0x1 PUSH1 0xA0 SHL SUB SWAP1 SWAP2 AND PUSH1 0x4 DUP3 ADD MSTORE PUSH1 0x24 ADD PUSH1 0x20 PUSH1 0x40 MLOAD DUP1 DUP4 SUB DUP2 DUP7 DUP1 PUSH2 0x1DEC PUSH2 0x3AA3 JUMP JUMPDEST ISZERO DUP1 ISZERO PUSH2 0x1E01 JUMPI PUSH1 0x0 DUP1 PUSH2 0x1DFE PUSH2 0x39DD JUMP JUMPDEST POP POP JUMPDEST POP GAS PUSH2 0x1E0B PUSH2 0x3BF6 JUMP JUMPDEST POP POP POP POP POP ISZERO DUP1 ISZERO PUSH2 0x1E2A JUMPI RETURNDATASIZE PUSH1 0x0 DUP1 RETURNDATACOPY RETURNDATASIZE PUSH1 0x0 PUSH2 0x1E27 PUSH2 0x39DD JUMP JUMPDEST POP POP JUMPDEST POP POP POP POP PUSH1 0x40 MLOAD RETURNDATASIZE PUSH1 0x20 DUP2 LT ISZERO PUSH2 0x1E49 JUMPI PUSH1 0x0 DUP1 PUSH2 0x1E46 PUSH2 0x39DD JUMP JUMPDEST POP POP JUMPDEST DUP2 ADD SWAP1 DUP1 DUP1 MLOAD SWAP4 POP POP POP POP JUMPDEST DUP1 DUP5 LT ISZERO PUSH2 0x1E63 JUMPI DUP4 PUSH2 0x1E65 JUMP JUMPDEST DUP1 JUMPDEST SWAP4 POP PUSH2 0x1E72 DUP7 DUP7 DUP7 PUSH2 0x2562 JUMP JUMPDEST SWAP7 SWAP6 POP POP POP POP POP POP JUMP JUMPDEST PUSH1 0x0 PUSH1 0x7 PUSH2 0x854 PUSH2 0x3A48 JUMP JUMPDEST PUSH20 0xFEEFEEFEEFEEFEEFEEFEEFEEFEEFEEFEEFEEFEEF DUP2 JUMP JUMPDEST PUSH1 0x0 PUSH1 0x4 PUSH2 0x854 PUSH2 0x3A48 JUMP JUMPDEST PUSH2 0x1EB4 PUSH2 0x2C4E JUMP JUMPDEST DUP1 DUP1 PUSH1 0xA PUSH2 0xA56 PUSH2 0x3BA8 JUMP JUMPDEST PUSH1 0x27 PUSH2 0xAE0 PUSH2 0x3A48 JUMP JUMPDEST PUSH1 0x0 DUP1 PUSH2 0x1ED5 PUSH2 0x287B JUMP JUMPDEST PUSH1 0x1 PUSH1 0x1 PUSH1 0xA0 SHL SUB AND PUSH4 0x19D5C665 DUP5 PUSH1 0xE PUSH2 0x1EEE PUSH2 0x3A48 JUMP JUMPDEST PUSH1 0x40 MLOAD PUSH1 0x1 PUSH1 0x1 PUSH1 0xE0 SHL SUB NOT PUSH1 0xE0 DUP6 SWAP1 SHL AND DUP2 MSTORE PUSH1 0x1 PUSH1 0x1 PUSH1 0xA0 SHL SUB SWAP1 SWAP3 AND PUSH1 0x4 DUP4 ADD MSTORE PUSH1 0x24 DUP3 ADD MSTORE PUSH1 0x44 ADD PUSH1 0x60 PUSH1 0x40 MLOAD DUP1 DUP4 SUB DUP2 DUP7 DUP1 PUSH2 0x1F2D PUSH2 0x3AA3 JUMP JUMPDEST ISZERO DUP1 ISZERO PUSH2 0x1F42 JUMPI PUSH1 0x0 DUP1 PUSH2 0x1F3F PUSH2 0x39DD JUMP JUMPDEST POP POP JUMPDEST POP GAS PUSH2 0x1F4C PUSH2 0x3BF6 JUMP JUMPDEST POP POP POP POP POP ISZERO DUP1 ISZERO PUSH2 0x1F6B JUMPI RETURNDATASIZE PUSH1 0x0 DUP1 RETURNDATACOPY RETURNDATASIZE PUSH1 0x0 PUSH2 0x1F68 PUSH2 0x39DD JUMP JUMPDEST POP POP JUMPDEST POP POP POP POP PUSH1 0x40 MLOAD RETURNDATASIZE PUSH1 0x60 DUP2 LT ISZERO PUSH2 0x1F8A JUMPI PUSH1 0x0 DUP1 PUSH2 0x1F87 PUSH2 0x39DD JUMP JUMPDEST POP POP JUMPDEST DUP2 ADD SWAP1 DUP1 DUP1 MLOAD SWAP3 SWAP2 SWAP1 PUSH1 0x20 ADD DUP1 MLOAD SWAP3 SWAP2 SWAP1 PUSH1 0x20 ADD DUP1 MLOAD POP SWAP4 SWAP5 POP PUSH1 0x0 SWAP4 POP DUP4 SWAP3 POP PUSH1 0x7 SWAP2 POP PUSH2 0x1FB9 SWAP1 POP PUSH2 0x3A48 JUMP JUMPDEST SWAP1 PUSH2 0x100 EXP SWAP1 DIV PUSH1 0x1 PUSH1 0x1 PUSH1 0xA0 SHL SUB AND PUSH1 0x1 PUSH1 0x1 PUSH1 0xA0 SHL SUB AND PUSH4 0x70A08231 DUP6 PUSH1 0x40 MLOAD PUSH1 0x1 PUSH1 0x1 PUSH1 0xE0 SHL SUB NOT PUSH1 0xE0 DUP5 SWAP1 SHL AND DUP2 MSTORE PUSH1 0x1 PUSH1 0x1 PUSH1 0xA0 SHL SUB SWAP1 SWAP2 AND PUSH1 0x4 DUP3 ADD MSTORE PUSH1 0x24 ADD PUSH1 0x20 PUSH1 0x40 MLOAD DUP1 DUP4 SUB DUP2 DUP7 DUP1 PUSH2 0x2012 PUSH2 0x3AA3 JUMP JUMPDEST ISZERO DUP1 ISZERO PUSH2 0x2027 JUMPI PUSH1 0x0 DUP1 PUSH2 0x2024 PUSH2 0x39DD JUMP JUMPDEST POP POP JUMPDEST POP GAS PUSH2 0x2031 PUSH2 0x3BF6 JUMP JUMPDEST POP POP POP POP POP ISZERO DUP1 ISZERO PUSH2 0x2050 JUMPI RETURNDATASIZE PUSH1 0x0 DUP1 RETURNDATACOPY RETURNDATASIZE PUSH1 0x0 PUSH2 0x204D PUSH2 0x39DD JUMP JUMPDEST POP POP JUMPDEST POP POP POP POP PUSH1 0x40 MLOAD RETURNDATASIZE PUSH1 0x20 DUP2 LT ISZERO PUSH2 0x206F JUMPI PUSH1 0x0 DUP1 PUSH2 0x206C PUSH2 0x39DD JUMP JUMPDEST POP POP JUMPDEST DUP2 ADD SWAP1 DUP1 DUP1 MLOAD SWAP4 POP POP POP POP DUP1 DUP3 GT ISZERO PUSH2 0x208D JUMPI PUSH1 0x0 SWAP3 POP POP POP PUSH2 0x1031 JUMP JUMPDEST PUSH2 0x209D DUP2 DUP4 PUSH4 0xFFFFFFFF PUSH2 0x357D AND JUMP JUMPDEST SWAP3 POP POP POP PUSH2 0x1031 JUMP JUMPDEST PUSH1 0x0 PUSH1 0x4 PUSH2 0x20B2 PUSH2 0x3A48 JUMP JUMPDEST SWAP1 PUSH2 0x100 EXP SWAP1 DIV PUSH1 0x1 PUSH1 0x1 PUSH1 0xA0 SHL SUB AND PUSH1 0x1 PUSH1 0x1 PUSH1 0xA0 SHL SUB AND GAS PUSH2 0x20D4 PUSH2 0x3CAF JUMP JUMPDEST PUSH1 0x1 PUSH1 0x1 PUSH1 0xA0 SHL SUB AND EQ ISZERO DUP1 ISZERO PUSH2 0x2120 JUMPI POP PUSH1 0x0 PUSH1 0x5 PUSH2 0x20F2 PUSH2 0x3A48 JUMP JUMPDEST SWAP1 PUSH2 0x100 EXP SWAP1 DIV PUSH1 0x1 PUSH1 0x1 PUSH1 0xA0 SHL SUB AND PUSH1 0x1 PUSH1 0x1 PUSH1 0xA0 SHL SUB AND GAS PUSH2 0x2114 PUSH2 0x3CAF JUMP JUMPDEST PUSH1 0x1 PUSH1 0x1 PUSH1 0xA0 SHL SUB AND EQ ISZERO JUMPDEST DUP1 ISZERO PUSH2 0x2161 JUMPI POP GAS PUSH2 0x2130 PUSH2 0x3CAF JUMP JUMPDEST PUSH1 0x1 PUSH1 0x1 PUSH1 0xA0 SHL SUB AND PUSH1 0x0 PUSH1 0x6 PUSH2 0x2145 PUSH2 0x3A48 JUMP JUMPDEST SWAP1 PUSH2 0x100 EXP SWAP1 DIV PUSH1 0x1 PUSH1 0x1 PUSH1 0xA0 SHL SUB AND PUSH1 0x1 PUSH1 0x1 PUSH1 0xA0 SHL SUB AND EQ ISZERO JUMPDEST ISZERO PUSH2 0x217C JUMPI GAS PUSH2 0x216F PUSH2 0x3CAF JUMP JUMPDEST PUSH1 0x6 PUSH1 0x1 DUP2 PUSH2 0x1264 PUSH2 0x3A48 JUMP JUMPDEST JUMP JUMPDEST PUSH1 0x0 PUSH1 0x4 PUSH2 0x218A PUSH2 0x3A48 JUMP JUMPDEST SWAP1 PUSH2 0x100 EXP SWAP1 DIV PUSH1 0x1 PUSH1 0x1 PUSH1 0xA0 SHL SUB AND PUSH1 0x1 PUSH1 0x1 PUSH1 0xA0 SHL SUB AND PUSH4 0x907DFF97 DUP3 PUSH1 0x40 MLOAD PUSH1 0x20 ADD DUP1 DUP3 DUP2 MSTORE PUSH1 0x20 ADD SWAP2 POP POP PUSH1 0x40 MLOAD PUSH1 0x20 DUP2 DUP4 SUB SUB DUP2 MSTORE SWAP1 PUSH1 0x40 MSTORE PUSH1 0x3 PUSH1 0x40 MLOAD DUP1 PUSH1 0x21 PUSH2 0x3E5B DUP3 CODECOPY PUSH1 0x21 ADD SWAP1 POP PUSH1 0x40 MLOAD DUP1 SWAP2 SUB SWAP1 KECCAK256 PUSH2 0x21EB DUP9 PUSH2 0x35E2 JUMP JUMPDEST PUSH2 0x21F4 DUP9 PUSH2 0x35E2 JUMP JUMPDEST PUSH1 0x0 PUSH1 0x40 MLOAD DUP8 PUSH4 0xFFFFFFFF AND PUSH1 0xE0 SHL DUP2 MSTORE PUSH1 0x4 ADD DUP1 DUP1 PUSH1 0x20 ADD DUP8 DUP2 MSTORE PUSH1 0x20 ADD DUP7 DUP2 MSTORE PUSH1 0x20 ADD DUP6 DUP2 MSTORE PUSH1 0x20 ADD DUP5 DUP2 MSTORE PUSH1 0x20 ADD DUP4 PUSH1 0x0 SHL DUP2 MSTORE PUSH1 0x20 ADD DUP3 DUP2 SUB DUP3 MSTORE DUP9 DUP2 DUP2 MLOAD DUP2 MSTORE PUSH1 0x20 ADD SWAP2 POP DUP1 MLOAD SWAP1 PUSH1 0x20 ADD SWAP1 DUP1 DUP4 DUP4 PUSH1 0x0 JUMPDEST DUP4 DUP2 LT ISZERO PUSH2 0x2263 JUMPI DUP1 DUP3 ADD MLOAD DUP4 DUP3 ADD MSTORE PUSH1 0x20 ADD PUSH2 0x224B JUMP JUMPDEST POP POP POP POP SWAP1 POP SWAP1 DUP2 ADD SWAP1 PUSH1 0x1F AND DUP1 ISZERO PUSH2 0x2290 JUMPI DUP1 DUP3 SUB DUP1 MLOAD PUSH1 0x1 DUP4 PUSH1 0x20 SUB PUSH2 0x100 EXP SUB NOT AND DUP2 MSTORE PUSH1 0x20 ADD SWAP2 POP JUMPDEST POP SWAP8 POP POP POP POP POP POP POP POP PUSH1 0x0 PUSH1 0x40 MLOAD DUP1 DUP4 SUB DUP2 PUSH1 0x0 DUP8 DUP1 PUSH2 0x22AF PUSH2 0x3AA3 JUMP JUMPDEST ISZERO DUP1 ISZERO PUSH2 0x22C4 JUMPI PUSH1 0x0 DUP1 PUSH2 0x22C1 PUSH2 0x39DD JUMP JUMPDEST POP POP JUMPDEST POP GAS PUSH2 0x22CE PUSH2 0x3AEF JUMP JUMPDEST POP POP POP POP POP POP ISZERO DUP1 ISZERO PUSH2 0x1718 JUMPI RETURNDATASIZE PUSH1 0x0 DUP1 RETURNDATACOPY RETURNDATASIZE PUSH1 0x0 PUSH2 0x22EB PUSH2 0x39DD JUMP JUMPDEST POP POP POP POP POP POP POP POP POP JUMP JUMPDEST PUSH1 0x0 DUP1 PUSH2 0x2301 PUSH2 0x3A48 JUMP JUMPDEST SWAP1 PUSH2 0x100 EXP SWAP1 DIV PUSH1 0x1 PUSH1 0x1 PUSH1 0xA0 SHL SUB AND PUSH1 0x1 PUSH1 0x1 PUSH1 0xA0 SHL SUB AND GAS PUSH2 0x2323 PUSH2 0x3CAF JUMP JUMPDEST PUSH1 0x1 PUSH1 0x1 PUSH1 0xA0 SHL SUB AND EQ PUSH2 0x217C JUMPI PUSH1 0x40 MLOAD PUSH3 0x461BCD PUSH1 0xE5 SHL DUP2 MSTORE PUSH1 0x4 ADD DUP1 DUP1 PUSH1 0x20 ADD DUP3 DUP2 SUB DUP3 MSTORE PUSH1 0x2F DUP2 MSTORE PUSH1 0x20 ADD DUP1 PUSH2 0x3E2C PUSH1 0x2F SWAP2 CODECOPY PUSH1 0x40 ADD SWAP2 POP POP PUSH1 0x40 MLOAD DUP1 SWAP2 SUB SWAP1 PUSH2 0xE49 PUSH2 0x39DD JUMP JUMPDEST PUSH2 0x2376 PUSH2 0x287B JUMP JUMPDEST PUSH1 0x1 PUSH1 0x1 PUSH1 0xA0 SHL SUB AND PUSH4 0x59C29EC DUP4 PUSH1 0xE PUSH2 0x238F PUSH2 0x3A48 JUMP JUMPDEST PUSH1 0x40 MLOAD PUSH1 0x1 PUSH1 0x1 PUSH1 0xE0 SHL SUB NOT PUSH1 0xE0 DUP6 SWAP1 SHL AND DUP2 MSTORE PUSH1 0x1 PUSH1 0x1 PUSH1 0xA0 SHL SUB SWAP1 SWAP3 AND PUSH1 0x4 DUP4 ADD MSTORE PUSH1 0x24 DUP3 ADD MSTORE PUSH1 0x44 ADD PUSH1 0x20 PUSH1 0x40 MLOAD DUP1 DUP4 SUB DUP2 DUP7 DUP1 PUSH2 0x23CE PUSH2 0x3AA3 JUMP JUMPDEST ISZERO DUP1 ISZERO PUSH2 0x23E3 JUMPI PUSH1 0x0 DUP1 PUSH2 0x23E0 PUSH2 0x39DD JUMP JUMPDEST POP POP JUMPDEST POP GAS PUSH2 0x23ED PUSH2 0x3BF6 JUMP JUMPDEST POP POP POP POP POP ISZERO DUP1 ISZERO PUSH2 0x240C JUMPI RETURNDATASIZE PUSH1 0x0 DUP1 RETURNDATACOPY RETURNDATASIZE PUSH1 0x0 PUSH2 0x2409 PUSH2 0x39DD JUMP JUMPDEST POP POP JUMPDEST POP POP POP POP PUSH1 0x40 MLOAD RETURNDATASIZE PUSH1 0x20 DUP2 LT ISZERO PUSH2 0x242B JUMPI PUSH1 0x0 DUP1 PUSH2 0x2428 PUSH2 0x39DD JUMP JUMPDEST POP POP JUMPDEST DUP2 ADD SWAP1 DUP1 DUP1 MLOAD ISZERO SWAP3 POP PUSH2 0x247B SWAP2 POP POP JUMPI PUSH1 0x40 MLOAD PUSH3 0x461BCD PUSH1 0xE5 SHL DUP2 MSTORE PUSH1 0x4 ADD DUP1 DUP1 PUSH1 0x20 ADD DUP3 DUP2 SUB DUP3 MSTORE PUSH1 0x25 DUP2 MSTORE PUSH1 0x20 ADD DUP1 PUSH2 0x3E7C PUSH1 0x25 SWAP2 CODECOPY PUSH1 0x40 ADD SWAP2 POP POP PUSH1 0x40 MLOAD DUP1 SWAP2 SUB SWAP1 PUSH2 0x2478 PUSH2 0x39DD JUMP JUMPDEST POP POP JUMPDEST DUP1 PUSH2 0x2485 DUP4 PUSH2 0x1ECA JUMP JUMPDEST LT ISZERO PUSH2 0x24CB JUMPI PUSH1 0x40 MLOAD PUSH3 0x461BCD PUSH1 0xE5 SHL DUP2 MSTORE PUSH1 0x4 ADD DUP1 DUP1 PUSH1 0x20 ADD DUP3 DUP2 SUB DUP3 MSTORE PUSH1 0x2F DUP2 MSTORE PUSH1 0x20 ADD DUP1 PUSH2 0x3D8E PUSH1 0x2F SWAP2 CODECOPY PUSH1 0x40 ADD SWAP2 POP POP PUSH1 0x40 MLOAD DUP1 SWAP2 SUB SWAP1 PUSH2 0x24C8 PUSH2 0x39DD JUMP JUMPDEST POP POP JUMPDEST PUSH2 0x24D3 PUSH2 0x35EE JUMP JUMPDEST PUSH1 0x1 PUSH1 0x1 PUSH1 0xA0 SHL SUB AND PUSH4 0x42A28E21 PUSH1 0xE PUSH2 0x24EB PUSH2 0x3A48 JUMP JUMPDEST PUSH1 0x40 MLOAD PUSH1 0x1 PUSH1 0x1 PUSH1 0xE0 SHL SUB NOT PUSH1 0xE0 DUP5 SWAP1 SHL AND DUP2 MSTORE PUSH1 0x4 DUP2 ADD SWAP2 SWAP1 SWAP2 MSTORE PUSH1 0x24 ADD PUSH1 0x0 PUSH1 0x40 MLOAD DUP1 DUP4 SUB DUP2 DUP7 DUP1 PUSH2 0x251D PUSH2 0x3AA3 JUMP JUMPDEST ISZERO DUP1 ISZERO PUSH2 0x2532 JUMPI PUSH1 0x0 DUP1 PUSH2 0x252F PUSH2 0x39DD JUMP JUMPDEST POP POP JUMPDEST POP GAS PUSH2 0x253C PUSH2 0x3BF6 JUMP JUMPDEST POP POP POP POP POP ISZERO DUP1 ISZERO PUSH2 0x1392 JUMPI RETURNDATASIZE PUSH1 0x0 DUP1 RETURNDATACOPY RETURNDATASIZE PUSH1 0x0 PUSH2 0x2558 PUSH2 0x39DD JUMP JUMPDEST POP POP POP POP POP POP POP POP JUMP JUMPDEST PUSH1 0x0 PUSH1 0x0 NOT DUP2 PUSH1 0x7 PUSH2 0x2572 PUSH2 0x3A48 JUMP JUMPDEST PUSH1 0x1 PUSH1 0x1 PUSH1 0xA0 SHL SUB PUSH2 0x100 SWAP3 SWAP1 SWAP3 EXP SWAP1 DIV AND PUSH4 0xDD62ED3E DUP7 PUSH1 0x0 PUSH1 0x6 PUSH2 0x2596 PUSH2 0x3A48 JUMP JUMPDEST SWAP1 PUSH2 0x100 EXP SWAP1 DIV PUSH1 0x1 PUSH1 0x1 PUSH1 0xA0 SHL SUB AND PUSH1 0x40 MLOAD PUSH1 0x1 PUSH1 0x1 PUSH1 0xE0 SHL SUB NOT PUSH1 0xE0 DUP6 SWAP1 SHL AND DUP2 MSTORE PUSH1 0x1 PUSH1 0x1 PUSH1 0xA0 SHL SUB SWAP3 DUP4 AND PUSH1 0x4 DUP3 ADD MSTORE SWAP2 AND PUSH1 0x24 DUP3 ADD MSTORE PUSH1 0x44 ADD PUSH1 0x20 PUSH1 0x40 MLOAD DUP1 DUP4 SUB DUP2 DUP7 DUP1 PUSH2 0x25E7 PUSH2 0x3AA3 JUMP JUMPDEST ISZERO DUP1 ISZERO PUSH2 0x25FC JUMPI PUSH1 0x0 DUP1 PUSH2 0x25F9 PUSH2 0x39DD JUMP JUMPDEST POP POP JUMPDEST POP GAS PUSH2 0x2606 PUSH2 0x3BF6 JUMP JUMPDEST POP POP POP POP POP ISZERO DUP1 ISZERO PUSH2 0x2625 JUMPI RETURNDATASIZE PUSH1 0x0 DUP1 RETURNDATACOPY RETURNDATASIZE PUSH1 0x0 PUSH2 0x2622 PUSH2 0x39DD JUMP JUMPDEST POP POP JUMPDEST POP POP POP POP PUSH1 0x40 MLOAD RETURNDATASIZE PUSH1 0x20 DUP2 LT ISZERO PUSH2 0x2644 JUMPI PUSH1 0x0 DUP1 PUSH2 0x2641 PUSH2 0x39DD JUMP JUMPDEST POP POP JUMPDEST DUP2 ADD SWAP1 DUP1 DUP1 MLOAD SWAP4 SWAP1 SWAP4 EQ SWAP3 POP PUSH2 0x2822 SWAP2 POP POP JUMPI PUSH1 0x0 PUSH1 0x7 PUSH2 0x2663 PUSH2 0x3A48 JUMP JUMPDEST PUSH1 0x1 PUSH1 0x1 PUSH1 0xA0 SHL SUB PUSH2 0x100 SWAP3 SWAP1 SWAP3 EXP SWAP1 DIV AND PUSH4 0xDA46098C DUP6 PUSH1 0x0 PUSH1 0x6 PUSH2 0x2687 PUSH2 0x3A48 JUMP JUMPDEST SWAP1 PUSH2 0x100 EXP SWAP1 DIV PUSH1 0x1 PUSH1 0x1 PUSH1 0xA0 SHL SUB AND PUSH2 0x2791 DUP7 PUSH1 0x7 PUSH1 0x0 SWAP1 PUSH2 0x26A8 PUSH2 0x3A48 JUMP JUMPDEST PUSH1 0x1 PUSH1 0x1 PUSH1 0xA0 SHL SUB PUSH2 0x100 SWAP3 SWAP1 SWAP3 EXP SWAP1 DIV AND PUSH4 0xDD62ED3E DUP12 PUSH1 0x0 PUSH1 0x6 PUSH2 0x26CC PUSH2 0x3A48 JUMP JUMPDEST SWAP1 PUSH2 0x100 EXP SWAP1 DIV PUSH1 0x1 PUSH1 0x1 PUSH1 0xA0 SHL SUB AND PUSH1 0x40 MLOAD PUSH1 0x1 PUSH1 0x1 PUSH1 0xE0 SHL SUB NOT PUSH1 0xE0 DUP6 SWAP1 SHL AND DUP2 MSTORE PUSH1 0x1 PUSH1 0x1 PUSH1 0xA0 SHL SUB SWAP3 DUP4 AND PUSH1 0x4 DUP3 ADD MSTORE SWAP2 AND PUSH1 0x24 DUP3 ADD MSTORE PUSH1 0x44 ADD PUSH1 0x20 PUSH1 0x40 MLOAD DUP1 DUP4 SUB DUP2 DUP7 DUP1 PUSH2 0x271D PUSH2 0x3AA3 JUMP JUMPDEST ISZERO DUP1 ISZERO PUSH2 0x2732 JUMPI PUSH1 0x0 DUP1 PUSH2 0x272F PUSH2 0x39DD JUMP JUMPDEST POP POP JUMPDEST POP GAS PUSH2 0x273C PUSH2 0x3BF6 JUMP JUMPDEST POP POP POP POP POP ISZERO DUP1 ISZERO PUSH2 0x275B JUMPI RETURNDATASIZE PUSH1 0x0 DUP1 RETURNDATACOPY RETURNDATASIZE PUSH1 0x0 PUSH2 0x2758 PUSH2 0x39DD JUMP JUMPDEST POP POP JUMPDEST POP POP POP POP PUSH1 0x40 MLOAD RETURNDATASIZE PUSH1 0x20 DUP2 LT ISZERO PUSH2 0x277A JUMPI PUSH1 0x0 DUP1 PUSH2 0x2777 PUSH2 0x39DD JUMP JUMPDEST POP POP JUMPDEST DUP2 ADD SWAP1 DUP1 DUP1 MLOAD SWAP4 SWAP3 POP POP PUSH4 0xFFFFFFFF PUSH2 0x357D AND SWAP1 POP JUMP JUMPDEST PUSH1 0x40 MLOAD PUSH1 0x1 PUSH1 0x1 PUSH1 0xE0 SHL SUB NOT PUSH1 0xE0 DUP7 SWAP1 SHL AND DUP2 MSTORE PUSH1 0x1 PUSH1 0x1 PUSH1 0xA0 SHL SUB SWAP4 DUP5 AND PUSH1 0x4 DUP3 ADD MSTORE SWAP2 SWAP1 SWAP3 AND PUSH1 0x24 DUP3 ADD MSTORE PUSH1 0x44 DUP2 ADD SWAP2 SWAP1 SWAP2 MSTORE PUSH1 0x64 ADD PUSH1 0x0 PUSH1 0x40 MLOAD DUP1 DUP4 SUB DUP2 PUSH1 0x0 DUP8 DUP1 PUSH2 0x27DE PUSH2 0x3AA3 JUMP JUMPDEST ISZERO DUP1 ISZERO PUSH2 0x27F3 JUMPI PUSH1 0x0 DUP1 PUSH2 0x27F0 PUSH2 0x39DD JUMP JUMPDEST POP POP JUMPDEST POP GAS PUSH2 0x27FD PUSH2 0x3AEF JUMP JUMPDEST POP POP POP POP POP POP ISZERO DUP1 ISZERO PUSH2 0x281D JUMPI RETURNDATASIZE PUSH1 0x0 DUP1 RETURNDATACOPY RETURNDATASIZE PUSH1 0x0 PUSH2 0x281A PUSH2 0x39DD JUMP JUMPDEST POP POP JUMPDEST POP POP POP POP JUMPDEST PUSH2 0xBEB DUP5 DUP5 DUP5 PUSH2 0x3162 JUMP JUMPDEST PUSH1 0x0 PUSH2 0x2876 PUSH7 0x119959541BDBDB PUSH1 0xCA SHL PUSH1 0x40 MLOAD PUSH1 0x40 DUP1 DUP3 ADD SWAP1 MSTORE PUSH1 0x17 DUP2 MSTORE PUSH32 0x4D697373696E6720466565506F6F6C2061646472657373000000000000000000 PUSH1 0x20 DUP3 ADD MSTORE PUSH2 0x3638 JUMP JUMPDEST SWAP1 POP SWAP1 JUMP JUMPDEST PUSH1 0x0 PUSH2 0x2876 PUSH9 0x22BC31B430B733B2B9 PUSH1 0xB9 SHL PUSH1 0x40 MLOAD PUSH1 0x40 DUP1 DUP3 ADD SWAP1 MSTORE PUSH1 0x19 DUP2 MSTORE PUSH32 0x4D697373696E672045786368616E676572206164647265737300000000000000 PUSH1 0x20 DUP3 ADD MSTORE PUSH2 0x3638 JUMP JUMPDEST PUSH1 0x0 PUSH2 0x2876 PUSH6 0x24B9B9BAB2B9 PUSH1 0xD1 SHL PUSH1 0x40 MLOAD PUSH1 0x40 DUP1 DUP3 ADD SWAP1 MSTORE PUSH1 0x16 DUP2 MSTORE PUSH22 0x4D697373696E67204973737565722061646472657373 PUSH1 0x50 SHL PUSH1 0x20 DUP3 ADD MSTORE PUSH2 0x3638 JUMP JUMPDEST PUSH1 0x0 PUSH2 0x2876 PUSH1 0x27 PUSH2 0x2916 PUSH2 0x3A48 JUMP JUMPDEST PUSH1 0x40 MLOAD PUSH1 0x60 DUP2 ADD PUSH1 0x40 MSTORE PUSH1 0x2B DUP1 DUP3 MSTORE PUSH2 0x3E01 PUSH1 0x20 DUP4 ADD CODECOPY PUSH2 0x3638 JUMP JUMPDEST PUSH1 0x0 PUSH1 0x7 PUSH2 0x293E PUSH2 0x3A48 JUMP JUMPDEST PUSH1 0x1 PUSH1 0x1 PUSH1 0xA0 SHL SUB PUSH2 0x100 SWAP3 SWAP1 SWAP3 EXP SWAP1 DIV AND PUSH4 0xB46310F6 DUP4 PUSH2 0x2A33 DUP5 PUSH1 0x0 PUSH1 0x7 PUSH2 0x2966 PUSH2 0x3A48 JUMP JUMPDEST SWAP1 PUSH2 0x100 EXP SWAP1 DIV PUSH1 0x1 PUSH1 0x1 PUSH1 0xA0 SHL SUB AND PUSH1 0x1 PUSH1 0x1 PUSH1 0xA0 SHL SUB AND PUSH4 0x70A08231 DUP9 PUSH1 0x40 MLOAD PUSH1 0x1 PUSH1 0x1 PUSH1 0xE0 SHL SUB NOT PUSH1 0xE0 DUP5 SWAP1 SHL AND DUP2 MSTORE PUSH1 0x1 PUSH1 0x1 PUSH1 0xA0 SHL SUB SWAP1 SWAP2 AND PUSH1 0x4 DUP3 ADD MSTORE PUSH1 0x24 ADD PUSH1 0x20 PUSH1 0x40 MLOAD DUP1 DUP4 SUB DUP2 DUP7 DUP1 PUSH2 0x29BF PUSH2 0x3AA3 JUMP JUMPDEST ISZERO DUP1 ISZERO PUSH2 0x29D4 JUMPI PUSH1 0x0 DUP1 PUSH2 0x29D1 PUSH2 0x39DD JUMP JUMPDEST POP POP JUMPDEST POP GAS PUSH2 0x29DE PUSH2 0x3BF6 JUMP JUMPDEST POP POP POP POP POP ISZERO DUP1 ISZERO PUSH2 0x29FD JUMPI RETURNDATASIZE PUSH1 0x0 DUP1 RETURNDATACOPY RETURNDATASIZE PUSH1 0x0 PUSH2 0x29FA PUSH2 0x39DD JUMP JUMPDEST POP POP JUMPDEST POP POP POP POP PUSH1 0x40 MLOAD RETURNDATASIZE PUSH1 0x20 DUP2 LT ISZERO PUSH2 0x2A1C JUMPI PUSH1 0x0 DUP1 PUSH2 0x2A19 PUSH2 0x39DD JUMP JUMPDEST POP POP JUMPDEST DUP2 ADD SWAP1 DUP1 DUP1 MLOAD SWAP4 SWAP3 POP POP PUSH4 0xFFFFFFFF PUSH2 0x3701 AND SWAP1 POP JUMP JUMPDEST PUSH1 0x40 MLOAD PUSH1 0x1 PUSH1 0x1 PUSH1 0xE0 SHL SUB NOT PUSH1 0xE0 DUP6 SWAP1 SHL AND DUP2 MSTORE PUSH1 0x1 PUSH1 0x1 PUSH1 0xA0 SHL SUB SWAP1 SWAP3 AND PUSH1 0x4 DUP4 ADD MSTORE PUSH1 0x24 DUP3 ADD MSTORE PUSH1 0x44 ADD PUSH1 0x0 PUSH1 0x40 MLOAD DUP1 DUP4 SUB DUP2 PUSH1 0x0 DUP8 DUP1 PUSH2 0x2A74 PUSH2 0x3AA3 JUMP JUMPDEST ISZERO DUP1 ISZERO PUSH2 0x2A89 JUMPI PUSH1 0x0 DUP1 PUSH2 0x2A86 PUSH2 0x39DD JUMP JUMPDEST POP POP JUMPDEST POP GAS PUSH2 0x2A93 PUSH2 0x3AEF JUMP JUMPDEST POP POP POP POP POP POP ISZERO DUP1 ISZERO PUSH2 0x2AB3 JUMPI RETURNDATASIZE PUSH1 0x0 DUP1 RETURNDATACOPY RETURNDATASIZE PUSH1 0x0 PUSH2 0x2AB0 PUSH2 0x39DD JUMP JUMPDEST POP POP JUMPDEST POP POP POP POP PUSH2 0x2AD1 DUP2 PUSH1 0xA PUSH2 0x2AC5 PUSH2 0x3A48 JUMP JUMPDEST SWAP1 PUSH4 0xFFFFFFFF PUSH2 0x3701 AND JUMP JUMPDEST DUP1 PUSH1 0xA PUSH2 0x2ADC PUSH2 0x3BA8 JUMP JUMPDEST POP POP POP PUSH2 0x2AEB PUSH1 0x0 DUP4 DUP4 PUSH2 0x3769 JUMP JUMPDEST PUSH2 0xE49 DUP3 DUP3 PUSH2 0x37D6 JUMP JUMPDEST PUSH1 0x0 DUP1 PUSH1 0x7 PUSH2 0x2B02 PUSH2 0x3A48 JUMP JUMPDEST PUSH1 0x1 PUSH1 0x1 PUSH1 0xA0 SHL SUB PUSH2 0x100 SWAP3 SWAP1 SWAP3 EXP SWAP1 DIV AND PUSH4 0xB46310F6 DUP5 PUSH2 0x2B83 DUP6 PUSH1 0x0 PUSH1 0x7 PUSH2 0x2B2A PUSH2 0x3A48 JUMP JUMPDEST SWAP1 PUSH2 0x100 EXP SWAP1 DIV PUSH1 0x1 PUSH1 0x1 PUSH1 0xA0 SHL SUB AND PUSH1 0x1 PUSH1 0x1 PUSH1 0xA0 SHL SUB AND PUSH4 0x70A08231 DUP10 PUSH1 0x40 MLOAD PUSH1 0x1 PUSH1 0x1 PUSH1 0xE0 SHL SUB NOT PUSH1 0xE0 DUP5 SWAP1 SHL AND DUP2 MSTORE PUSH1 0x1 PUSH1 0x1 PUSH1 0xA0 SHL SUB SWAP1 SWAP2 AND PUSH1 0x4 DUP3 ADD MSTORE PUSH1 0x24 ADD PUSH1 0x20 PUSH1 0x40 MLOAD DUP1 DUP4 SUB DUP2 DUP7 DUP1 PUSH2 0x271D PUSH2 0x3AA3 JUMP JUMPDEST PUSH1 0x40 MLOAD PUSH1 0x1 PUSH1 0x1 PUSH1 0xE0 SHL SUB NOT PUSH1 0xE0 DUP6 SWAP1 SHL AND DUP2 MSTORE PUSH1 0x1 PUSH1 0x1 PUSH1 0xA0 SHL SUB SWAP1 SWAP3 AND PUSH1 0x4 DUP4 ADD MSTORE PUSH1 0x24 DUP3 ADD MSTORE PUSH1 0x44 ADD PUSH1 0x0 PUSH1 0x40 MLOAD DUP1 DUP4 SUB DUP2 PUSH1 0x0 DUP8 DUP1 PUSH2 0x2BC4 PUSH2 0x3AA3 JUMP JUMPDEST ISZERO DUP1 ISZERO PUSH2 0x2BD9 JUMPI PUSH1 0x0 DUP1 PUSH2 0x2BD6 PUSH2 0x39DD JUMP JUMPDEST POP POP JUMPDEST POP GAS PUSH2 0x2BE3 PUSH2 0x3AEF JUMP JUMPDEST POP POP POP POP POP POP ISZERO DUP1 ISZERO PUSH2 0x2C03 JUMPI RETURNDATASIZE PUSH1 0x0 DUP1 RETURNDATACOPY RETURNDATASIZE PUSH1 0x0 PUSH2 0x2C00 PUSH2 0x39DD JUMP JUMPDEST POP POP JUMPDEST POP POP POP POP PUSH2 0x2C21 DUP3 PUSH1 0xA PUSH2 0x2C15 PUSH2 0x3A48 JUMP JUMPDEST SWAP1 PUSH4 0xFFFFFFFF PUSH2 0x357D AND JUMP JUMPDEST DUP1 PUSH1 0xA PUSH2 0x2C2C PUSH2 0x3BA8 JUMP JUMPDEST POP POP POP PUSH2 0x2C3B DUP4 PUSH1 0x0 DUP5 PUSH2 0x3769 JUMP JUMPDEST PUSH2 0x2C45 DUP4 DUP4 PUSH2 0x3957 JUMP JUMPDEST POP PUSH1 0x1 SWAP3 SWAP2 POP POP JUMP JUMPDEST PUSH1 0x0 PUSH1 0x4 PUSH2 0x2C5A PUSH2 0x3A48 JUMP JUMPDEST SWAP1 PUSH2 0x100 EXP SWAP1 DIV PUSH1 0x1 PUSH1 0x1 PUSH1 0xA0 SHL SUB AND PUSH1 0x1 PUSH1 0x1 PUSH1 0xA0 SHL SUB AND GAS PUSH2 0x2C7C PUSH2 0x3CAF JUMP JUMPDEST PUSH1 0x1 PUSH1 0x1 PUSH1 0xA0 SHL SUB AND EQ ISZERO DUP1 ISZERO PUSH2 0x2CC8 JUMPI POP PUSH1 0x0 PUSH1 0x5 PUSH2 0x2C9A PUSH2 0x3A48 JUMP JUMPDEST SWAP1 PUSH2 0x100 EXP SWAP1 DIV PUSH1 0x1 PUSH1 0x1 PUSH1 0xA0 SHL SUB AND PUSH1 0x1 PUSH1 0x1 PUSH1 0xA0 SHL SUB AND GAS PUSH2 0x2CBC PUSH2 0x3CAF JUMP JUMPDEST PUSH1 0x1 PUSH1 0x1 PUSH1 0xA0 SHL SUB AND EQ ISZERO JUMPDEST DUP1 ISZERO PUSH2 0x2D09 JUMPI POP GAS PUSH2 0x2CD8 PUSH2 0x3CAF JUMP JUMPDEST PUSH1 0x1 PUSH1 0x1 PUSH1 0xA0 SHL SUB AND PUSH1 0x0 PUSH1 0x6 PUSH2 0x2CED PUSH2 0x3A48 JUMP JUMPDEST SWAP1 PUSH2 0x100 EXP SWAP1 DIV PUSH1 0x1 PUSH1 0x1 PUSH1 0xA0 SHL SUB AND PUSH1 0x1 PUSH1 0x1 PUSH1 0xA0 SHL SUB AND EQ ISZERO JUMPDEST ISZERO PUSH2 0x2D4A JUMPI GAS PUSH2 0x2D17 PUSH2 0x3CAF JUMP JUMPDEST PUSH1 0x6 PUSH1 0x1 DUP2 PUSH2 0x2D24 PUSH2 0x3A48 JUMP JUMPDEST DUP2 PUSH1 0x1 PUSH1 0x1 PUSH1 0xA0 SHL SUB MUL NOT AND SWAP1 DUP4 PUSH1 0x1 PUSH1 0x1 PUSH1 0xA0 SHL SUB AND MUL OR SWAP1 PUSH2 0x2D46 PUSH2 0x3BA8 JUMP JUMPDEST POP POP POP JUMPDEST PUSH1 0x0 DUP1 PUSH2 0x2D55 PUSH2 0x3A48 JUMP JUMPDEST PUSH1 0x1 PUSH1 0x1 PUSH1 0xA0 SHL SUB PUSH2 0x100 SWAP3 SWAP1 SWAP3 EXP SWAP1 DIV AND PUSH1 0x0 PUSH1 0x6 PUSH2 0x2D73 PUSH2 0x3A48 JUMP JUMPDEST SWAP1 PUSH2 0x100 EXP SWAP1 DIV PUSH1 0x1 PUSH1 0x1 PUSH1 0xA0 SHL SUB AND PUSH1 0x1 PUSH1 0x1 PUSH1 0xA0 SHL SUB AND EQ PUSH2 0x217C JUMPI PUSH1 0x40 MLOAD PUSH3 0x461BCD PUSH1 0xE5 SHL DUP2 MSTORE PUSH1 0x20 PUSH1 0x4 DUP3 ADD MSTORE PUSH1 0x13 PUSH1 0x24 DUP3 ADD MSTORE PUSH19 0x27BBB732B91037B7363C90333AB731BA34B7B7 PUSH1 0x69 SHL PUSH1 0x44 DUP3 ADD MSTORE PUSH1 0x64 ADD PUSH1 0x40 MLOAD DUP1 SWAP2 SUB SWAP1 PUSH2 0xE49 PUSH2 0x39DD JUMP JUMPDEST PUSH1 0x0 PUSH1 0x4 PUSH2 0x2DE5 PUSH2 0x3A48 JUMP JUMPDEST SWAP1 PUSH2 0x100 EXP SWAP1 DIV PUSH1 0x1 PUSH1 0x1 PUSH1 0xA0 SHL SUB AND PUSH1 0x1 PUSH1 0x1 PUSH1 0xA0 SHL SUB AND PUSH4 0x907DFF97 DUP3 PUSH1 0x40 MLOAD PUSH1 0x1 PUSH1 0x1 PUSH1 0xA0 SHL SUB SWAP1 SWAP2 AND PUSH1 0x20 DUP3 ADD MSTORE PUSH1 0x40 SWAP1 DUP2 ADD SWAP1 MLOAD PUSH1 0x20 DUP2 DUP4 SUB SUB DUP2 MSTORE SWAP1 PUSH1 0x40 MSTORE PUSH1 0x1 PUSH1 0x40 MLOAD PUSH32 0x546F6B656E537461746555706461746564286164647265737329000000000000 DUP2 MSTORE PUSH1 0x1A ADD PUSH1 0x40 MLOAD DUP1 SWAP2 SUB SWAP1 KECCAK256 PUSH1 0x0 DUP1 PUSH1 0x0 PUSH1 0x40 MLOAD DUP8 PUSH4 0xFFFFFFFF AND PUSH1 0xE0 SHL DUP2 MSTORE PUSH1 0x4 ADD DUP1 DUP1 PUSH1 0x20 ADD DUP8 DUP2 MSTORE PUSH1 0x20 ADD DUP7 DUP2 MSTORE PUSH1 0x20 ADD DUP6 PUSH1 0x0 SHL DUP2 MSTORE PUSH1 0x20 ADD DUP5 PUSH1 0x0 SHL DUP2 MSTORE PUSH1 0x20 ADD DUP4 PUSH1 0x0 SHL DUP2 MSTORE PUSH1 0x20 ADD DUP3 DUP2 SUB DUP3 MSTORE DUP9 DUP2 DUP2 MLOAD DUP2 MSTORE PUSH1 0x20 ADD SWAP2 POP DUP1 MLOAD SWAP1 PUSH1 0x20 ADD SWAP1 DUP1 DUP4 DUP4 PUSH1 0x0 JUMPDEST DUP4 DUP2 LT ISZERO PUSH2 0x2ED5 JUMPI DUP1 DUP3 ADD MLOAD DUP4 DUP3 ADD MSTORE PUSH1 0x20 ADD PUSH2 0x2EBD JUMP JUMPDEST POP POP POP POP SWAP1 POP SWAP1 DUP2 ADD SWAP1 PUSH1 0x1F AND DUP1 ISZERO PUSH2 0x2F02 JUMPI DUP1 DUP3 SUB DUP1 MLOAD PUSH1 0x1 DUP4 PUSH1 0x20 SUB PUSH2 0x100 EXP SUB NOT AND DUP2 MSTORE PUSH1 0x20 ADD SWAP2 POP JUMPDEST POP SWAP8 POP POP POP POP POP POP POP POP PUSH1 0x0 PUSH1 0x40 MLOAD DUP1 DUP4 SUB DUP2 PUSH1 0x0 DUP8 DUP1 PUSH2 0x2F21 PUSH2 0x3AA3 JUMP JUMPDEST ISZERO DUP1 ISZERO PUSH2 0x2F36 JUMPI PUSH1 0x0 DUP1 PUSH2 0x2F33 PUSH2 0x39DD JUMP JUMPDEST POP POP JUMPDEST POP GAS PUSH2 0x2F40 PUSH2 0x3AEF JUMP JUMPDEST POP POP POP POP POP POP ISZERO DUP1 ISZERO PUSH2 0x2F5D JUMPI RETURNDATASIZE PUSH1 0x0 DUP1 RETURNDATACOPY RETURNDATASIZE PUSH1 0x0 PUSH2 0x1718 PUSH2 0x39DD JUMP JUMPDEST POP POP POP POP POP JUMP JUMPDEST PUSH1 0x0 DUP1 PUSH1 0xE PUSH2 0x2F71 PUSH2 0x3A48 JUMP JUMPDEST PUSH4 0x1CD554D1 PUSH1 0xE2 SHL EQ ISZERO PUSH2 0x2FAD JUMPI POP DUP2 PUSH2 0x2FA7 PUSH1 0x0 PUSH1 0x6 PUSH2 0x2F90 PUSH2 0x3A48 JUMP JUMPDEST SWAP1 PUSH2 0x100 EXP SWAP1 DIV PUSH1 0x1 PUSH1 0x1 PUSH1 0xA0 SHL SUB AND DUP6 DUP6 PUSH2 0x3162 JUMP JUMPDEST POP PUSH2 0x30CA JUMP JUMPDEST PUSH2 0x2FB5 PUSH2 0x287B JUMP JUMPDEST PUSH1 0x1 PUSH1 0x1 PUSH1 0xA0 SHL SUB AND PUSH4 0xA1E187D PUSH1 0x0 PUSH1 0x6 PUSH2 0x2FCF PUSH2 0x3A48 JUMP JUMPDEST SWAP1 PUSH2 0x100 EXP SWAP1 DIV PUSH1 0x1 PUSH1 0x1 PUSH1 0xA0 SHL SUB AND PUSH1 0xE PUSH2 0x2FE9 PUSH2 0x3A48 JUMP JUMPDEST DUP7 PUSH20 0xFEEFEEFEEFEEFEEFEEFEEFEEFEEFEEFEEFEEFEEF PUSH1 0x40 MLOAD PUSH1 0x1 PUSH1 0x1 PUSH1 0xE0 SHL SUB NOT PUSH1 0xE0 DUP8 SWAP1 SHL AND DUP2 MSTORE PUSH1 0x1 PUSH1 0x1 PUSH1 0xA0 SHL SUB SWAP5 DUP6 AND PUSH1 0x4 DUP3 ADD MSTORE PUSH1 0x24 DUP2 ADD SWAP4 SWAP1 SWAP4 MSTORE PUSH1 0x44 DUP4 ADD SWAP2 SWAP1 SWAP2 MSTORE PUSH4 0x1CD554D1 PUSH1 0xE2 SHL PUSH1 0x64 DUP4 ADD MSTORE SWAP1 SWAP2 AND PUSH1 0x84 DUP3 ADD MSTORE PUSH1 0xA4 ADD PUSH1 0x20 PUSH1 0x40 MLOAD DUP1 DUP4 SUB DUP2 PUSH1 0x0 DUP8 DUP1 PUSH2 0x3060 PUSH2 0x3AA3 JUMP JUMPDEST ISZERO DUP1 ISZERO PUSH2 0x3075 JUMPI PUSH1 0x0 DUP1 PUSH2 0x3072 PUSH2 0x39DD JUMP JUMPDEST POP POP JUMPDEST POP GAS PUSH2 0x307F PUSH2 0x3AEF JUMP JUMPDEST POP POP POP POP POP POP ISZERO DUP1 ISZERO PUSH2 0x309F JUMPI RETURNDATASIZE PUSH1 0x0 DUP1 RETURNDATACOPY RETURNDATASIZE PUSH1 0x0 PUSH2 0x309C PUSH2 0x39DD JUMP JUMPDEST POP POP JUMPDEST POP POP POP POP PUSH1 0x40 MLOAD RETURNDATASIZE PUSH1 0x20 DUP2 LT ISZERO PUSH2 0x30BE JUMPI PUSH1 0x0 DUP1 PUSH2 0x30BB PUSH2 0x39DD JUMP JUMPDEST POP POP JUMPDEST DUP2 ADD SWAP1 DUP1 DUP1 MLOAD SWAP4 POP POP POP POP JUMPDEST PUSH2 0x30D2 PUSH2 0x282D JUMP JUMPDEST PUSH1 0x1 PUSH1 0x1 PUSH1 0xA0 SHL SUB AND PUSH4 0x22BF55EF DUP3 PUSH1 0x40 MLOAD PUSH1 0x1 PUSH1 0x1 PUSH1 0xE0 SHL SUB NOT PUSH1 0xE0 DUP5 SWAP1 SHL AND DUP2 MSTORE PUSH1 0x4 DUP2 ADD SWAP2 SWAP1 SWAP2 MSTORE PUSH1 0x24 ADD PUSH1 0x0 PUSH1 0x40 MLOAD DUP1 DUP4 SUB DUP2 PUSH1 0x0 DUP8 DUP1 PUSH2 0x3115 PUSH2 0x3AA3 JUMP JUMPDEST ISZERO DUP1 ISZERO PUSH2 0x312A JUMPI PUSH1 0x0 DUP1 PUSH2 0x3127 PUSH2 0x39DD JUMP JUMPDEST POP POP JUMPDEST POP GAS PUSH2 0x3134 PUSH2 0x3AEF JUMP JUMPDEST POP POP POP POP POP POP ISZERO DUP1 ISZERO PUSH2 0x3154 JUMPI RETURNDATASIZE PUSH1 0x0 DUP1 RETURNDATACOPY RETURNDATASIZE PUSH1 0x0 PUSH2 0x3151 PUSH2 0x39DD JUMP JUMPDEST POP POP JUMPDEST POP PUSH1 0x1 SWAP8 SWAP7 POP POP POP POP POP POP POP JUMP JUMPDEST PUSH1 0x0 PUSH1 0x1 PUSH1 0x1 PUSH1 0xA0 SHL SUB DUP4 AND ISZERO DUP1 ISZERO SWAP1 PUSH2 0x31E6 JUMPI POP GAS PUSH4 0x996D79A5 MSIZE DUP2 PUSH1 0xE0 SHL DUP2 MSTORE PUSH1 0x20 DUP2 PUSH1 0x4 DUP4 CALLER PUSH1 0x0 SWAP1 GAS CALL PC PUSH1 0xE ADD JUMPI RETURNDATASIZE PUSH1 0x0 DUP1 RETURNDATACOPY RETURNDATASIZE PUSH1 0x0 REVERT JUMPDEST RETURNDATASIZE PUSH1 0x1 EQ ISZERO PC PUSH1 0xA ADD JUMPI PUSH1 0x1 PUSH1 0x0 RETURN JUMPDEST DUP1 MLOAD SWAP3 POP PUSH1 0x0 JUMPDEST PUSH1 0x40 DUP2 LT ISZERO PUSH2 0x31CD JUMPI PUSH1 0x0 DUP3 DUP3 ADD MSTORE PUSH1 0x20 ADD PUSH2 0x31B6 JUMP JUMPDEST POP POP POP PUSH1 0x1 PUSH1 0x1 PUSH1 0xA0 SHL SUB AND DUP4 PUSH1 0x1 PUSH1 0x1 PUSH1 0xA0 SHL SUB AND EQ ISZERO JUMPDEST DUP1 ISZERO PUSH2 0x321F JUMPI POP PUSH1 0x0 PUSH1 0x4 PUSH2 0x31F9 PUSH2 0x3A48 JUMP JUMPDEST SWAP1 PUSH2 0x100 EXP SWAP1 DIV PUSH1 0x1 PUSH1 0x1 PUSH1 0xA0 SHL SUB AND PUSH1 0x1 PUSH1 0x1 PUSH1 0xA0 SHL SUB AND DUP4 PUSH1 0x1 PUSH1 0x1 PUSH1 0xA0 SHL SUB AND EQ ISZERO JUMPDEST PUSH2 0x3278 JUMPI PUSH1 0x40 MLOAD PUSH3 0x461BCD PUSH1 0xE5 SHL DUP2 MSTORE PUSH1 0x20 PUSH1 0x4 DUP3 ADD MSTORE PUSH1 0x1F PUSH1 0x24 DUP3 ADD MSTORE PUSH32 0x43616E6E6F74207472616E7366657220746F2074686973206164647265737300 PUSH1 0x44 DUP3 ADD MSTORE PUSH1 0x64 ADD PUSH1 0x40 MLOAD DUP1 SWAP2 SUB SWAP1 PUSH2 0x3275 PUSH2 0x39DD JUMP JUMPDEST POP POP JUMPDEST PUSH1 0x0 PUSH1 0x7 PUSH2 0x3284 PUSH2 0x3A48 JUMP JUMPDEST PUSH1 0x1 PUSH1 0x1 PUSH1 0xA0 SHL SUB PUSH2 0x100 SWAP3 SWAP1 SWAP3 EXP SWAP1 DIV AND PUSH4 0xB46310F6 DUP6 PUSH2 0x3305 DUP6 PUSH1 0x0 PUSH1 0x7 PUSH2 0x32AC PUSH2 0x3A48 JUMP JUMPDEST SWAP1 PUSH2 0x100 EXP SWAP1 DIV PUSH1 0x1 PUSH1 0x1 PUSH1 0xA0 SHL SUB AND PUSH1 0x1 PUSH1 0x1 PUSH1 0xA0 SHL SUB AND PUSH4 0x70A08231 DUP11 PUSH1 0x40 MLOAD PUSH1 0x1 PUSH1 0x1 PUSH1 0xE0 SHL SUB NOT PUSH1 0xE0 DUP5 SWAP1 SHL AND DUP2 MSTORE PUSH1 0x1 PUSH1 0x1 PUSH1 0xA0 SHL SUB SWAP1 SWAP2 AND PUSH1 0x4 DUP3 ADD MSTORE PUSH1 0x24 ADD PUSH1 0x20 PUSH1 0x40 MLOAD DUP1 DUP4 SUB DUP2 DUP7 DUP1 PUSH2 0x271D PUSH2 0x3AA3 JUMP JUMPDEST PUSH1 0x40 MLOAD PUSH1 0x1 PUSH1 0x1 PUSH1 0xE0 SHL SUB NOT PUSH1 0xE0 DUP6 SWAP1 SHL AND DUP2 MSTORE PUSH1 0x1 PUSH1 0x1 PUSH1 0xA0 SHL SUB SWAP1 SWAP3 AND PUSH1 0x4 DUP4 ADD MSTORE PUSH1 0x24 DUP3 ADD MSTORE PUSH1 0x44 ADD PUSH1 0x0 PUSH1 0x40 MLOAD DUP1 DUP4 SUB DUP2 PUSH1 0x0 DUP8 DUP1 PUSH2 0x3346 PUSH2 0x3AA3 JUMP JUMPDEST ISZERO DUP1 ISZERO PUSH2 0x335B JUMPI PUSH1 0x0 DUP1 PUSH2 0x3358 PUSH2 0x39DD JUMP JUMPDEST POP POP JUMPDEST POP GAS PUSH2 0x3365 PUSH2 0x3AEF JUMP JUMPDEST POP POP POP POP POP POP ISZERO DUP1 ISZERO PUSH2 0x3385 JUMPI RETURNDATASIZE PUSH1 0x0 DUP1 RETURNDATACOPY RETURNDATASIZE PUSH1 0x0 PUSH2 0x3382 PUSH2 0x39DD JUMP JUMPDEST POP POP JUMPDEST POP POP POP POP PUSH1 0x7 PUSH1 0x0 SWAP1 PUSH2 0x3396 PUSH2 0x3A48 JUMP JUMPDEST PUSH1 0x1 PUSH1 0x1 PUSH1 0xA0 SHL SUB PUSH2 0x100 SWAP3 SWAP1 SWAP3 EXP SWAP1 DIV AND PUSH4 0xB46310F6 DUP5 PUSH2 0x3417 DUP6 PUSH1 0x0 PUSH1 0x7 PUSH2 0x33BE PUSH2 0x3A48 JUMP JUMPDEST SWAP1 PUSH2 0x100 EXP SWAP1 DIV PUSH1 0x1 PUSH1 0x1 PUSH1 0xA0 SHL SUB AND PUSH1 0x1 PUSH1 0x1 PUSH1 0xA0 SHL SUB AND PUSH4 0x70A08231 DUP10 PUSH1 0x40 MLOAD PUSH1 0x1 PUSH1 0x1 PUSH1 0xE0 SHL SUB NOT PUSH1 0xE0 DUP5 SWAP1 SHL AND DUP2 MSTORE PUSH1 0x1 PUSH1 0x1 PUSH1 0xA0 SHL SUB SWAP1 SWAP2 AND PUSH1 0x4 DUP3 ADD MSTORE PUSH1 0x24 ADD PUSH1 0x20 PUSH1 0x40 MLOAD DUP1 DUP4 SUB DUP2 DUP7 DUP1 PUSH2 0x29BF PUSH2 0x3AA3 JUMP JUMPDEST PUSH1 0x40 MLOAD PUSH1 0x1 PUSH1 0x1 PUSH1 0xE0 SHL SUB NOT PUSH1 0xE0 DUP6 SWAP1 SHL AND DUP2 MSTORE PUSH1 0x1 PUSH1 0x1 PUSH1 0xA0 SHL SUB SWAP1 SWAP3 AND PUSH1 0x4 DUP4 ADD MSTORE PUSH1 0x24 DUP3 ADD MSTORE PUSH1 0x44 ADD PUSH1 0x0 PUSH1 0x40 MLOAD DUP1 DUP4 SUB DUP2 PUSH1 0x0 DUP8 DUP1 PUSH2 0x3458 PUSH2 0x3AA3 JUMP JUMPDEST ISZERO DUP1 ISZERO PUSH2 0x346D JUMPI PUSH1 0x0 DUP1 PUSH2 0x346A PUSH2 0x39DD JUMP JUMPDEST POP POP JUMPDEST POP GAS PUSH2 0x3477 PUSH2 0x3AEF JUMP JUMPDEST POP POP POP POP POP POP ISZERO DUP1 ISZERO PUSH2 0x3497 JUMPI RETURNDATASIZE PUSH1 0x0 DUP1 RETURNDATACOPY RETURNDATASIZE PUSH1 0x0 PUSH2 0x3494 PUSH2 0x39DD JUMP JUMPDEST POP POP JUMPDEST POP POP POP POP PUSH2 0x34A6 DUP5 DUP5 DUP5 PUSH2 0x3769 JUMP JUMPDEST POP PUSH1 0x1 SWAP4 SWAP3 POP POP POP JUMP JUMPDEST PUSH1 0x0 PUSH1 0x4 PUSH2 0x34BC PUSH2 0x3A48 JUMP JUMPDEST SWAP1 PUSH2 0x100 EXP SWAP1 DIV PUSH1 0x1 PUSH1 0x1 PUSH1 0xA0 SHL SUB AND PUSH1 0x1 PUSH1 0x1 PUSH1 0xA0 SHL SUB AND GAS PUSH2 0x34DE PUSH2 0x3CAF JUMP JUMPDEST PUSH1 0x1 PUSH1 0x1 PUSH1 0xA0 SHL SUB AND EQ DUP1 PUSH2 0x3527 JUMPI POP PUSH1 0x0 PUSH1 0x5 PUSH2 0x34FA PUSH2 0x3A48 JUMP JUMPDEST SWAP1 PUSH2 0x100 EXP SWAP1 DIV PUSH1 0x1 PUSH1 0x1 PUSH1 0xA0 SHL SUB AND PUSH1 0x1 PUSH1 0x1 PUSH1 0xA0 SHL SUB AND GAS PUSH2 0x351C PUSH2 0x3CAF JUMP JUMPDEST PUSH1 0x1 PUSH1 0x1 PUSH1 0xA0 SHL SUB AND EQ JUMPDEST PUSH2 0x217C JUMPI PUSH1 0x40 MLOAD PUSH3 0x461BCD PUSH1 0xE5 SHL DUP2 MSTORE PUSH1 0x20 PUSH1 0x4 DUP3 ADD MSTORE PUSH1 0x17 PUSH1 0x24 DUP3 ADD MSTORE PUSH32 0x4F6E6C79207468652070726F78792063616E2063616C6C000000000000000000 PUSH1 0x44 DUP3 ADD MSTORE PUSH1 0x64 ADD PUSH1 0x40 MLOAD DUP1 SWAP2 SUB SWAP1 PUSH2 0xE49 PUSH2 0x39DD JUMP JUMPDEST PUSH1 0x0 DUP3 DUP3 GT ISZERO PUSH2 0x35DC JUMPI PUSH1 0x40 MLOAD PUSH3 0x461BCD PUSH1 0xE5 SHL DUP2 MSTORE PUSH1 0x20 PUSH1 0x4 DUP3 ADD MSTORE PUSH1 0x1E PUSH1 0x24 DUP3 ADD MSTORE PUSH32 0x536166654D6174683A207375627472616374696F6E206F766572666C6F770000 PUSH1 0x44 DUP3 ADD MSTORE PUSH1 0x64 ADD PUSH1 0x40 MLOAD DUP1 SWAP2 SUB SWAP1 PUSH2 0x35D9 PUSH2 0x39DD JUMP JUMPDEST POP POP JUMPDEST POP SWAP1 SUB SWAP1 JUMP JUMPDEST PUSH1 0x1 PUSH1 0x1 PUSH1 0xA0 SHL SUB AND SWAP1 JUMP JUMPDEST PUSH1 0x0 PUSH2 0x2876 PUSH12 0x53797374656D537461747573 PUSH1 0xA0 SHL PUSH1 0x40 MLOAD PUSH1 0x40 DUP1 DUP3 ADD SWAP1 MSTORE PUSH1 0x1C DUP2 MSTORE PUSH32 0x4D697373696E672053797374656D537461747573206164647265737300000000 PUSH1 0x20 DUP3 ADD MSTORE JUMPDEST PUSH1 0x0 DUP3 DUP2 MSTORE PUSH1 0xC PUSH1 0x20 MSTORE DUP1 PUSH1 0x40 DUP2 KECCAK256 PUSH1 0x0 SWAP1 PUSH2 0x3652 PUSH2 0x3A48 JUMP JUMPDEST PUSH1 0x1 PUSH1 0x1 PUSH1 0xA0 SHL SUB PUSH2 0x100 SWAP3 SWAP1 SWAP3 EXP SWAP1 DIV AND SWAP1 POP DUP3 DUP2 PUSH2 0x36F9 JUMPI PUSH1 0x40 MLOAD PUSH3 0x461BCD PUSH1 0xE5 SHL DUP2 MSTORE PUSH1 0x4 ADD DUP1 DUP1 PUSH1 0x20 ADD DUP3 DUP2 SUB DUP3 MSTORE DUP4 DUP2 DUP2 MLOAD DUP2 MSTORE PUSH1 0x20 ADD SWAP2 POP DUP1 MLOAD SWAP1 PUSH1 0x20 ADD SWAP1 DUP1 DUP4 DUP4 PUSH1 0x0 JUMPDEST DUP4 DUP2 LT ISZERO PUSH2 0x36B5 JUMPI DUP1 DUP3 ADD MLOAD DUP4 DUP3 ADD MSTORE PUSH1 0x20 ADD PUSH2 0x369D JUMP JUMPDEST POP POP POP POP SWAP1 POP SWAP1 DUP2 ADD SWAP1 PUSH1 0x1F AND DUP1 ISZERO PUSH2 0x36E2 JUMPI DUP1 DUP3 SUB DUP1 MLOAD PUSH1 0x1 DUP4 PUSH1 0x20 SUB PUSH2 0x100 EXP SUB NOT AND DUP2 MSTORE PUSH1 0x20 ADD SWAP2 POP JUMPDEST POP SWAP3 POP POP POP PUSH1 0x40 MLOAD DUP1 SWAP2 SUB SWAP1 PUSH2 0x36F6 PUSH2 0x39DD JUMP JUMPDEST POP POP JUMPDEST POP SWAP4 SWAP3 POP POP POP JUMP JUMPDEST PUSH1 0x0 DUP3 DUP3 ADD DUP4 DUP2 LT ISZERO PUSH2 0x182D JUMPI PUSH1 0x40 MLOAD PUSH3 0x461BCD PUSH1 0xE5 SHL DUP2 MSTORE PUSH1 0x20 PUSH1 0x4 DUP3 ADD MSTORE PUSH1 0x1B PUSH1 0x24 DUP3 ADD MSTORE PUSH32 0x536166654D6174683A206164646974696F6E206F766572666C6F770000000000 PUSH1 0x44 DUP3 ADD MSTORE PUSH1 0x64 ADD PUSH1 0x40 MLOAD DUP1 SWAP2 SUB SWAP1 PUSH2 0x3760 PUSH2 0x39DD JUMP JUMPDEST POP POP SWAP4 SWAP3 POP POP POP JUMP JUMPDEST PUSH1 0x0 PUSH1 0x4 PUSH2 0x3775 PUSH2 0x3A48 JUMP JUMPDEST SWAP1 PUSH2 0x100 EXP SWAP1 DIV PUSH1 0x1 PUSH1 0x1 PUSH1 0xA0 SHL SUB AND PUSH1 0x1 PUSH1 0x1 PUSH1 0xA0 SHL SUB AND PUSH4 0x907DFF97 DUP3 PUSH1 0x40 MLOAD PUSH1 0x20 ADD DUP1 DUP3 DUP2 MSTORE PUSH1 0x20 ADD SWAP2 POP POP PUSH1 0x40 MLOAD PUSH1 0x20 DUP2 DUP4 SUB SUB DUP2 MSTORE SWAP1 PUSH1 0x40 MSTORE PUSH1 0x3 PUSH1 0x40 MLOAD DUP1 PUSH1 0x21 PUSH2 0x3EA1 DUP3 CODECOPY PUSH1 0x21 ADD SWAP1 POP PUSH1 0x40 MLOAD DUP1 SWAP2 SUB SWAP1 KECCAK256 PUSH2 0x21EB DUP9 PUSH2 0x35E2 JUMP JUMPDEST PUSH1 0x0 PUSH1 0x4 PUSH2 0x37E2 PUSH2 0x3A48 JUMP JUMPDEST SWAP1 PUSH2 0x100 EXP SWAP1 DIV PUSH1 0x1 PUSH1 0x1 PUSH1 0xA0 SHL SUB AND PUSH1 0x1 PUSH1 0x1 PUSH1 0xA0 SHL SUB AND PUSH4 0x907DFF97 DUP3 PUSH1 0x40 MLOAD PUSH1 0x20 ADD DUP1 DUP3 DUP2 MSTORE PUSH1 0x20 ADD SWAP2 POP POP PUSH1 0x40 MLOAD PUSH1 0x20 DUP2 DUP4 SUB SUB DUP2 MSTORE SWAP1 PUSH1 0x40 MSTORE PUSH1 0x2 PUSH1 0x40 MLOAD PUSH32 0x49737375656428616464726573732C75696E7432353629000000000000000000 DUP2 MSTORE PUSH1 0x17 ADD PUSH1 0x40 MLOAD DUP1 SWAP2 SUB SWAP1 KECCAK256 PUSH2 0x385C DUP8 PUSH2 0x35E2 JUMP JUMPDEST PUSH1 0x0 DUP1 PUSH1 0x40 MLOAD DUP8 PUSH4 0xFFFFFFFF AND PUSH1 0xE0 SHL DUP2 MSTORE PUSH1 0x4 ADD DUP1 DUP1 PUSH1 0x20 ADD DUP8 DUP2 MSTORE PUSH1 0x20 ADD DUP7 DUP2 MSTORE PUSH1 0x20 ADD DUP6 DUP2 MSTORE PUSH1 0x20 ADD DUP5 PUSH1 0x0 SHL DUP2 MSTORE PUSH1 0x20 ADD DUP4 PUSH1 0x0 SHL DUP2 MSTORE PUSH1 0x20 ADD DUP3 DUP2 SUB DUP3 MSTORE DUP9 DUP2 DUP2 MLOAD DUP2 MSTORE PUSH1 0x20 ADD SWAP2 POP DUP1 MLOAD SWAP1 PUSH1 0x20 ADD SWAP1 DUP1 DUP4 DUP4 PUSH1 0x0 JUMPDEST DUP4 DUP2 LT ISZERO PUSH2 0x38CF JUMPI DUP1 DUP3 ADD MLOAD DUP4 DUP3 ADD MSTORE PUSH1 0x20 ADD PUSH2 0x38B7 JUMP JUMPDEST POP POP POP POP SWAP1 POP SWAP1 DUP2 ADD SWAP1 PUSH1 0x1F AND DUP1 ISZERO PUSH2 0x38FC JUMPI DUP1 DUP3 SUB DUP1 MLOAD PUSH1 0x1 DUP4 PUSH1 0x20 SUB PUSH2 0x100 EXP SUB NOT AND DUP2 MSTORE PUSH1 0x20 ADD SWAP2 POP JUMPDEST POP SWAP8 POP POP POP POP POP POP POP POP PUSH1 0x0 PUSH1 0x40 MLOAD DUP1 DUP4 SUB DUP2 PUSH1 0x0 DUP8 DUP1 PUSH2 0x391B PUSH2 0x3AA3 JUMP JUMPDEST ISZERO DUP1 ISZERO PUSH2 0x3930 JUMPI PUSH1 0x0 DUP1 PUSH2 0x392D PUSH2 0x39DD JUMP JUMPDEST POP POP JUMPDEST POP GAS PUSH2 0x393A PUSH2 0x3AEF JUMP JUMPDEST POP POP POP POP POP POP ISZERO DUP1 ISZERO PUSH2 0x1392 JUMPI RETURNDATASIZE PUSH1 0x0 DUP1 RETURNDATACOPY RETURNDATASIZE PUSH1 0x0 PUSH2 0x2558 PUSH2 0x39DD JUMP JUMPDEST PUSH1 0x0 PUSH1 0x4 PUSH2 0x3963 PUSH2 0x3A48 JUMP JUMPDEST SWAP1 PUSH2 0x100 EXP SWAP1 DIV PUSH1 0x1 PUSH1 0x1 PUSH1 0xA0 SHL SUB AND PUSH1 0x1 PUSH1 0x1 PUSH1 0xA0 SHL SUB AND PUSH4 0x907DFF97 DUP3 PUSH1 0x40 MLOAD PUSH1 0x20 ADD DUP1 DUP3 DUP2 MSTORE PUSH1 0x20 ADD SWAP2 POP POP PUSH1 0x40 MLOAD PUSH1 0x20 DUP2 DUP4 SUB SUB DUP2 MSTORE SWAP1 PUSH1 0x40 MSTORE PUSH1 0x2 PUSH1 0x40 MLOAD PUSH32 0x4275726E656428616464726573732C75696E7432353629000000000000000000 DUP2 MSTORE PUSH1 0x17 ADD PUSH1 0x40 MLOAD DUP1 SWAP2 SUB SWAP1 KECCAK256 PUSH2 0x385C DUP8 PUSH2 0x35E2 JUMP JUMPDEST PUSH4 0x2A2A7ADB MSIZE DUP2 PUSH1 0xE0 SHL DUP2 MSTORE PUSH1 0x4 DUP2 ADD PUSH1 0x20 DUP2 MSTORE DUP6 PUSH1 0x20 DUP3 ADD MSTORE PUSH1 0x0 JUMPDEST DUP7 DUP2 LT ISZERO PUSH2 0x3A15 JUMPI DUP1 DUP7 ADD MLOAD DUP3 DUP3 ADD PUSH1 0x40 ADD MSTORE PUSH1 0x20 ADD PUSH2 0x39FA JUMP JUMPDEST POP PUSH1 0x20 DUP3 DUP8 PUSH1 0x64 ADD DUP5 CALLER PUSH1 0x0 SWAP1 GAS CALL PC PUSH1 0xE ADD JUMPI RETURNDATASIZE PUSH1 0x0 DUP1 RETURNDATACOPY RETURNDATASIZE PUSH1 0x0 REVERT JUMPDEST RETURNDATASIZE PUSH1 0x1 EQ ISZERO PC PUSH1 0xA ADD JUMPI PUSH1 0x1 PUSH1 0x0 RETURN JUMPDEST POP POP POP JUMP JUMPDEST PUSH4 0x3DAA959 MSIZE DUP2 PUSH1 0xE0 SHL DUP2 MSTORE DUP4 PUSH1 0x4 DUP3 ADD MSTORE PUSH1 0x20 DUP2 PUSH1 0x24 DUP4 CALLER PUSH1 0x0 SWAP1 GAS CALL PC PUSH1 0xE ADD JUMPI RETURNDATASIZE PUSH1 0x0 DUP1 RETURNDATACOPY RETURNDATASIZE PUSH1 0x0 REVERT JUMPDEST RETURNDATASIZE PUSH1 0x1 EQ ISZERO PC PUSH1 0xA ADD JUMPI PUSH1 0x1 PUSH1 0x0 RETURN JUMPDEST DUP1 MLOAD SWAP4 POP PUSH1 0x0 JUMPDEST PUSH1 0x40 DUP2 LT ISZERO PUSH2 0x1286 JUMPI PUSH1 0x0 DUP3 DUP3 ADD MSTORE PUSH1 0x20 ADD PUSH2 0x3A8C JUMP JUMPDEST PUSH4 0x8435035B MSIZE DUP2 PUSH1 0xE0 SHL DUP2 MSTORE DUP4 PUSH1 0x4 DUP3 ADD MSTORE PUSH1 0x20 DUP2 PUSH1 0x24 DUP4 CALLER PUSH1 0x0 SWAP1 GAS CALL PC PUSH1 0xE ADD JUMPI RETURNDATASIZE PUSH1 0x0 DUP1 RETURNDATACOPY RETURNDATASIZE PUSH1 0x0 REVERT JUMPDEST RETURNDATASIZE PUSH1 0x1 EQ ISZERO PC PUSH1 0xA ADD JUMPI PUSH1 0x1 PUSH1 0x0 RETURN JUMPDEST DUP1 MLOAD PUSH1 0x0 DUP3 MSTORE SWAP4 POP PUSH1 0x20 PUSH2 0x3A8C JUMP JUMPDEST PUSH4 0x85979F76 MSIZE DUP2 PUSH1 0xE0 SHL DUP2 MSTORE DUP4 PUSH1 0x4 DUP3 ADD MSTORE DUP5 PUSH1 0x24 DUP3 ADD MSTORE PUSH1 0x60 PUSH1 0x44 DUP3 ADD MSTORE DUP8 PUSH1 0x64 DUP3 ADD MSTORE PUSH1 0x84 DUP2 ADD PUSH1 0x0 JUMPDEST DUP10 DUP2 LT ISZERO PUSH2 0x3B33 JUMPI DUP1 DUP10 ADD MLOAD DUP3 DUP3 ADD MSTORE PUSH1 0x20 ADD PUSH2 0x3B1B JUMP JUMPDEST POP DUP9 PUSH2 0x104 ADD DUP3 ADD PUSH1 0x60 DUP4 DUP12 PUSH2 0x104 ADD DUP6 CALLER PUSH1 0x0 SWAP1 GAS CALL PC PUSH1 0xE ADD JUMPI RETURNDATASIZE PUSH1 0x0 DUP1 RETURNDATACOPY RETURNDATASIZE PUSH1 0x0 REVERT JUMPDEST RETURNDATASIZE PUSH1 0x1 EQ ISZERO PC PUSH1 0xA ADD JUMPI PUSH1 0x1 PUSH1 0x0 RETURN JUMPDEST DUP3 MLOAD PUSH1 0x40 DUP5 ADD MLOAD RETURNDATASIZE PUSH1 0x0 DUP7 RETURNDATACOPY DUP14 DUP14 DUP3 PUSH1 0x60 DUP9 ADD CALLER POP PUSH1 0x0 PUSH1 0x4 GAS CALL POP MSIZE DUP6 JUMPDEST DUP2 DUP2 LT ISZERO PUSH2 0x3B9C JUMPI PUSH1 0x0 DUP2 MSTORE PUSH1 0x20 ADD PUSH2 0x3B88 JUMP JUMPDEST POP SWAP2 SWAP14 POP POP POP POP POP POP POP JUMP JUMPDEST PUSH4 0x22BD64C0 MSIZE DUP2 PUSH1 0xE0 SHL DUP2 MSTORE DUP4 PUSH1 0x4 DUP3 ADD MSTORE DUP5 PUSH1 0x24 DUP3 ADD MSTORE PUSH1 0x0 DUP2 PUSH1 0x44 DUP4 CALLER PUSH1 0x0 SWAP1 GAS CALL PC PUSH1 0xE ADD JUMPI RETURNDATASIZE PUSH1 0x0 DUP1 RETURNDATACOPY RETURNDATASIZE PUSH1 0x0 REVERT JUMPDEST RETURNDATASIZE PUSH1 0x1 EQ ISZERO PC PUSH1 0xA ADD JUMPI PUSH1 0x1 PUSH1 0x0 RETURN JUMPDEST PUSH1 0x0 DUP2 MSTORE PUSH1 0x20 PUSH2 0x3A8C JUMP JUMPDEST PUSH4 0x8540661F MSIZE DUP2 PUSH1 0xE0 SHL DUP2 MSTORE DUP4 PUSH1 0x4 DUP3 ADD MSTORE DUP5 PUSH1 0x24 DUP3 ADD MSTORE PUSH1 0x60 PUSH1 0x44 DUP3 ADD MSTORE DUP7 PUSH1 0x64 DUP3 ADD MSTORE PUSH1 0x84 DUP2 ADD PUSH1 0x0 JUMPDEST DUP9 DUP2 LT ISZERO PUSH2 0x3C3A JUMPI DUP1 DUP9 ADD MLOAD DUP3 DUP3 ADD MSTORE PUSH1 0x20 ADD PUSH2 0x3C22 JUMP JUMPDEST POP DUP8 PUSH2 0x104 ADD DUP3 ADD PUSH1 0x60 DUP4 DUP11 PUSH2 0x104 ADD DUP6 CALLER PUSH1 0x0 SWAP1 GAS CALL PC PUSH1 0xE ADD JUMPI RETURNDATASIZE PUSH1 0x0 DUP1 RETURNDATACOPY RETURNDATASIZE PUSH1 0x0 REVERT JUMPDEST RETURNDATASIZE PUSH1 0x1 EQ ISZERO PC PUSH1 0xA ADD JUMPI PUSH1 0x1 PUSH1 0x0 RETURN JUMPDEST DUP3 MLOAD PUSH1 0x40 DUP5 ADD MLOAD RETURNDATASIZE PUSH1 0x0 DUP7 RETURNDATACOPY DUP13 DUP13 DUP3 PUSH1 0x60 DUP9 ADD CALLER POP PUSH1 0x0 PUSH1 0x4 GAS CALL POP MSIZE DUP6 JUMPDEST DUP2 DUP2 LT ISZERO PUSH2 0x3CA3 JUMPI PUSH1 0x0 DUP2 MSTORE PUSH1 0x20 ADD PUSH2 0x3C8F JUMP JUMPDEST POP SWAP2 SWAP13 POP POP POP POP POP POP POP JUMP JUMPDEST PUSH4 0x73509064 MSIZE DUP2 PUSH1 0xE0 SHL DUP2 MSTORE PUSH1 0x20 DUP2 PUSH1 0x4 DUP4 CALLER PUSH1 0x0 SWAP1 GAS CALL PC PUSH1 0xE ADD JUMPI RETURNDATASIZE PUSH1 0x0 DUP1 RETURNDATACOPY RETURNDATASIZE PUSH1 0x0 REVERT JUMPDEST RETURNDATASIZE PUSH1 0x1 EQ ISZERO PC PUSH1 0xA ADD JUMPI PUSH1 0x1 PUSH1 0x0 RETURN JUMPDEST DUP1 MLOAD PUSH1 0x0 DUP3 MSTORE SWAP4 POP PUSH1 0x20 PUSH2 0x3A8C JUMP JUMPDEST PUSH4 0xBDBF8C36 MSIZE DUP2 PUSH1 0xE0 SHL DUP2 MSTORE PUSH1 0x20 DUP2 PUSH1 0x4 DUP4 CALLER PUSH1 0x0 SWAP1 GAS CALL PC PUSH1 0xE ADD JUMPI RETURNDATASIZE PUSH1 0x0 DUP1 RETURNDATACOPY RETURNDATASIZE PUSH1 0x0 REVERT JUMPDEST RETURNDATASIZE PUSH1 0x1 EQ ISZERO PC PUSH1 0xA ADD JUMPI PUSH1 0x1 PUSH1 0x0 RETURN JUMPDEST DUP1 MLOAD PUSH1 0x0 DUP3 MSTORE SWAP4 POP PUSH1 0x20 PUSH2 0x3A8C JUMP JUMPDEST PUSH1 0x40 MLOAD PUSH2 0x300 DUP1 DUP3 ADD PUSH1 0x40 MSTORE PUSH1 0x18 SWAP1 DUP3 SWAP1 DUP1 CODESIZE DUP4 CODECOPY POP SWAP2 SWAP3 SWAP2 POP POP JUMP INVALID MSIZE PUSH16 0x75206D757374206265206E6F6D696E61 PUSH21 0x6564206265666F726520796F752063616E20616363 PUSH6 0x7074206F776E PUSH6 0x727368697049 PUSH15 0x73756666696369656E742062616C61 PUSH15 0x636520616674657220616E79207365 PUSH21 0x746C656D656E74206F77696E674F6E6C7920466565 POP PUSH16 0x6F6C2C2045786368616E6765722C2049 PUSH20 0x73756572206F72204D756C7469436F6C6C617465 PUSH19 0x616C20636F6E74726163747320616C6C6F7765 PUSH5 0x5265736F6C PUSH23 0x6572206973206D697373696E67206D756C7469436F6C6C PUSH2 0x7465 PUSH19 0x616C20616464726573734F6E6C792074686520 PUSH4 0x6F6E7472 PUSH2 0x6374 KECCAK256 PUSH16 0x776E6572206D617920706572666F726D KECCAK256 PUSH21 0x68697320616374696F6E417070726F76616C286164 PUSH5 0x726573732C PUSH2 0x6464 PUSH19 0x6573732C75696E743235362943616E6E6F7420 PUSH21 0x72616E7366657220647572696E672077616974696E PUSH8 0x20706572696F6454 PUSH19 0x616E7366657228616464726573732C61646472 PUSH6 0x73732C75696E PUSH21 0x323536290000000000000000000000000000000000 "
		}
	}
}