{
	"abi": [
		{
			"constant": true,
			"inputs": [],
			"name": "publicSetupExpiryTime",
			"outputs": [
				{
					"internalType": "uint256",
					"name": "",
					"type": "uint256"
				}
			],
			"payable": false,
			"stateMutability": "view",
			"type": "function"
		},
		{
			"constant": true,
			"inputs": [],
			"name": "setupExpiryTime",
			"outputs": [
				{
					"internalType": "uint256",
					"name": "",
					"type": "uint256"
				}
			],
			"payable": false,
			"stateMutability": "view",
			"type": "function"
		},
		{
			"constant": true,
			"inputs": [],
			"name": "testFunc",
			"outputs": [
				{
					"internalType": "bool",
					"name": "",
					"type": "bool"
				}
			],
			"payable": false,
			"stateMutability": "view",
			"type": "function"
		}
	],
	"evm": {
		"bytecode": {
			"linkReferences": {},
			"object": "60806040524262093a80016000556101298061001c6000396000f3fe6080604052348015600f57600080fd5b5060043610603c5760003560e01c8063037a417c1460415780631f1d9e4614605b57806346ba2d90146073575b600080fd5b60476079565b604080519115158252519081900360200190f35b606160bf565b60408051918252519081900360200190f35b606160c5565b60008054421060b95760405162461bcd60e51b81526004018080602001828103825260298152602001806100cc6029913960400191505060405180910390fd5b50600190565b60005490565b6000548156fe43616e206f6e6c7920706572666f726d207468697320616374696f6e20647572696e67207365747570a265627a7a72315820c1f298faeefb9ff7c24aca731061797050bed4daae84e5e9201a7c08103fd8a564736f6c63430005100032",
			"opcodes": "PUSH1 0x80 PUSH1 0x40 MSTORE TIMESTAMP PUSH3 0x93A80 ADD PUSH1 0x0 SSTORE PUSH2 0x129 DUP1 PUSH2 0x1C PUSH1 0x0 CODECOPY PUSH1 0x0 RETURN INVALID PUSH1 0x80 PUSH1 0x40 MSTORE CALLVALUE DUP1 ISZERO PUSH1 0xF JUMPI PUSH1 0x0 DUP1 REVERT JUMPDEST POP PUSH1 0x4 CALLDATASIZE LT PUSH1 0x3C JUMPI PUSH1 0x0 CALLDATALOAD PUSH1 0xE0 SHR DUP1 PUSH4 0x37A417C EQ PUSH1 0x41 JUMPI DUP1 PUSH4 0x1F1D9E46 EQ PUSH1 0x5B JUMPI DUP1 PUSH4 0x46BA2D90 EQ PUSH1 0x73 JUMPI JUMPDEST PUSH1 0x0 DUP1 REVERT JUMPDEST PUSH1 0x47 PUSH1 0x79 JUMP JUMPDEST PUSH1 0x40 DUP1 MLOAD SWAP2 ISZERO ISZERO DUP3 MSTORE MLOAD SWAP1 DUP2 SWAP1 SUB PUSH1 0x20 ADD SWAP1 RETURN JUMPDEST PUSH1 0x61 PUSH1 0xBF JUMP JUMPDEST PUSH1 0x40 DUP1 MLOAD SWAP2 DUP3 MSTORE MLOAD SWAP1 DUP2 SWAP1 SUB PUSH1 0x20 ADD SWAP1 RETURN JUMPDEST PUSH1 0x61 PUSH1 0xC5 JUMP JUMPDEST PUSH1 0x0 DUP1 SLOAD TIMESTAMP LT PUSH1 0xB9 JUMPI PUSH1 0x40 MLOAD PUSH3 0x461BCD PUSH1 0xE5 SHL DUP2 MSTORE PUSH1 0x4 ADD DUP1 DUP1 PUSH1 0x20 ADD DUP3 DUP2 SUB DUP3 MSTORE PUSH1 0x29 DUP2 MSTORE PUSH1 0x20 ADD DUP1 PUSH2 0xCC PUSH1 0x29 SWAP2 CODECOPY PUSH1 0x40 ADD SWAP2 POP POP PUSH1 0x40 MLOAD DUP1 SWAP2 SUB SWAP1 REVERT JUMPDEST POP PUSH1 0x1 SWAP1 JUMP JUMPDEST PUSH1 0x0 SLOAD SWAP1 JUMP JUMPDEST PUSH1 0x0 SLOAD DUP2 JUMP INVALID NUMBER PUSH2 0x6E20 PUSH16 0x6E6C7920706572666F726D2074686973 KECCAK256 PUSH2 0x6374 PUSH10 0x6F6E20647572696E6720 PUSH20 0x65747570A265627A7A72315820C1F298FAEEFB9F 0xF7 0xC2 0x4A 0xCA PUSH20 0x1061797050BED4DAAE84E5E9201A7C08103FD8A5 PUSH5 0x736F6C6343 STOP SDIV LT STOP ORIGIN "
		}
	}
}