{
	"abi": [
		{
			"constant": true,
			"inputs": [
				{
					"internalType": "uint256",
					"name": "i",
					"type": "uint256"
				}
			],
			"name": "decimalToPreciseDecimal",
			"outputs": [
				{
					"internalType": "uint256",
					"name": "",
					"type": "uint256"
				}
			],
			"payable": false,
			"stateMutability": "pure",
			"type": "function"
		},
		{
			"constant": true,
			"inputs": [
				{
					"internalType": "uint256",
					"name": "x",
					"type": "uint256"
				},
				{
					"internalType": "uint256",
					"name": "y",
					"type": "uint256"
				}
			],
			"name": "divideDecimal",
			"outputs": [
				{
					"internalType": "uint256",
					"name": "",
					"type": "uint256"
				}
			],
			"payable": false,
			"stateMutability": "pure",
			"type": "function"
		},
		{
			"constant": true,
			"inputs": [
				{
					"internalType": "uint256",
					"name": "x",
					"type": "uint256"
				},
				{
					"internalType": "uint256",
					"name": "y",
					"type": "uint256"
				}
			],
			"name": "divideDecimalRound",
			"outputs": [
				{
					"internalType": "uint256",
					"name": "",
					"type": "uint256"
				}
			],
			"payable": false,
			"stateMutability": "pure",
			"type": "function"
		},
		{
			"constant": true,
			"inputs": [
				{
					"internalType": "uint256",
					"name": "x",
					"type": "uint256"
				},
				{
					"internalType": "uint256",
					"name": "y",
					"type": "uint256"
				}
			],
			"name": "divideDecimalRoundPrecise",
			"outputs": [
				{
					"internalType": "uint256",
					"name": "",
					"type": "uint256"
				}
			],
			"payable": false,
			"stateMutability": "pure",
			"type": "function"
		},
		{
			"constant": true,
			"inputs": [
				{
					"internalType": "uint256",
					"name": "x",
					"type": "uint256"
				},
				{
					"internalType": "uint256",
					"name": "y",
					"type": "uint256"
				}
			],
			"name": "multiplyDecimal",
			"outputs": [
				{
					"internalType": "uint256",
					"name": "",
					"type": "uint256"
				}
			],
			"payable": false,
			"stateMutability": "pure",
			"type": "function"
		},
		{
			"constant": true,
			"inputs": [
				{
					"internalType": "uint256",
					"name": "x",
					"type": "uint256"
				},
				{
					"internalType": "uint256",
					"name": "y",
					"type": "uint256"
				}
			],
			"name": "multiplyDecimalRound",
			"outputs": [
				{
					"internalType": "uint256",
					"name": "",
					"type": "uint256"
				}
			],
			"payable": false,
			"stateMutability": "pure",
			"type": "function"
		},
		{
			"constant": true,
			"inputs": [
				{
					"internalType": "uint256",
					"name": "x",
					"type": "uint256"
				},
				{
					"internalType": "uint256",
					"name": "y",
					"type": "uint256"
				}
			],
			"name": "multiplyDecimalRoundPrecise",
			"outputs": [
				{
					"internalType": "uint256",
					"name": "",
					"type": "uint256"
				}
			],
			"payable": false,
			"stateMutability": "pure",
			"type": "function"
		},
		{
			"constant": true,
			"inputs": [
				{
					"internalType": "uint256",
					"name": "i",
					"type": "uint256"
				}
			],
			"name": "preciseDecimalToDecimal",
			"outputs": [
				{
					"internalType": "uint256",
					"name": "",
					"type": "uint256"
				}
			],
			"payable": false,
			"stateMutability": "pure",
			"type": "function"
		},
		{
			"constant": true,
			"inputs": [],
			"name": "preciseUnit",
			"outputs": [
				{
					"internalType": "uint256",
					"name": "",
					"type": "uint256"
				}
			],
			"payable": false,
			"stateMutability": "pure",
			"type": "function"
		},
		{
			"constant": true,
			"inputs": [],
			"name": "unit",
			"outputs": [
				{
					"internalType": "uint256",
					"name": "",
					"type": "uint256"
				}
			],
			"payable": false,
			"stateMutability": "pure",
			"type": "function"
		}
	],
	"evm": {
		"bytecode": {
			"linkReferences": {
				"test-helpers/PublicSafeDecimalMath.sol": {
					"SafeDecimalMath": [
						{
							"length": 20,
							"start": 575
						},
						{
							"length": 20,
							"start": 723
						}
					]
				}
			},
			"object": "608060405234801561001057600080fd5b50610579806100206000396000f3fe608060405234801561001057600080fd5b506004361061009e5760003560e01c8063bd79a42a11610066578063bd79a42a14610143578063d1abdab814610160578063d5e5e6e614610183578063e4187d021461018b578063f63a5d22146101ae5761009e565b80630fa53db8146100a35780631c933e2f146100d857806333882479146100fb57806353cb26c61461011e578063907af6c01461013b575b600080fd5b6100c6600480360360408110156100b957600080fd5b50803590602001356101d1565b60408051918252519081900360200190f35b6100c6600480360360408110156100ee57600080fd5b50803590602001356101ec565b6100c66004803603604081101561011157600080fd5b50803590602001356101fe565b6100c66004803603602081101561013457600080fd5b5035610210565b6100c661021b565b6100c66004803603602081101561015957600080fd5b5035610292565b6100c66004803603604081101561017657600080fd5b508035906020013561029d565b6100c66102af565b6100c6600480360360408110156101a157600080fd5b50803590602001356102f5565b6100c6600480360360408110156101c457600080fd5b5080359060200135610307565b60006101e3838363ffffffff61031916565b90505b92915050565b60006101e3838363ffffffff61032e16565b60006101e3838363ffffffff61034716565b60006101e68261035c565b600073__$d9d78dc00ba021e43edb69c0685f6db7be$__63907af6c06040518163ffffffff1660e01b815260040160206040518083038186803b15801561026157600080fd5b505af4158015610275573d6000803e3d6000fd5b505050506040513d602081101561028b57600080fd5b5051905090565b60006101e68261037e565b60006101e3838363ffffffff61039416565b600073__$d9d78dc00ba021e43edb69c0685f6db7be$__63d5e5e6e66040518163ffffffff1660e01b815260040160206040518083038186803b15801561026157600080fd5b60006101e3838363ffffffff6103be16565b60006101e3838363ffffffff6103e816565b60006101e38383670de0b6b3a76400006103fd565b60006101e383836b033b2e3c9fd0803ce8000000610435565b60006101e38383670de0b6b3a7640000610435565b60006305f5e10082046005600a82061061037457600a015b600a900492915050565b60006101e682633b9aca0063ffffffff61046016565b60006101e3826103b285670de0b6b3a764000063ffffffff61046016565b9063ffffffff6104b916565b6000670de0b6b3a76400006103d9848463ffffffff61046016565b816103e057fe5b049392505050565b60006101e383836b033b2e3c9fd0803ce80000005b600080610417846103b287600a870263ffffffff61046016565b90506005600a825b061061042957600a015b600a9004949350505050565b600080600a830461044c868663ffffffff61046016565b8161045357fe5b0490506005600a8261041f565b60008261046f575060006101e6565b8282028284828161047c57fe5b04146101e35760405162461bcd60e51b81526004018080602001828103825260218152602001806105246021913960400191505060405180910390fd5b600080821161050f576040805162461bcd60e51b815260206004820152601a60248201527f536166654d6174683a206469766973696f6e206279207a65726f000000000000604482015290519081900360640190fd5b600082848161051a57fe5b0494935050505056fe536166654d6174683a206d756c7469706c69636174696f6e206f766572666c6f77a265627a7a7231582044ebfe4a80f18e9a70520f990edadfac6edb306a167f20983e42c09500e171bf64736f6c63430005100032",
			"opcodes": "PUSH1 0x80 PUSH1 0x40 MSTORE CALLVALUE DUP1 ISZERO PUSH2 0x10 JUMPI PUSH1 0x0 DUP1 REVERT JUMPDEST POP PUSH2 0x579 DUP1 PUSH2 0x20 PUSH1 0x0 CODECOPY PUSH1 0x0 RETURN INVALID PUSH1 0x80 PUSH1 0x40 MSTORE CALLVALUE DUP1 ISZERO PUSH2 0x10 JUMPI PUSH1 0x0 DUP1 REVERT JUMPDEST POP PUSH1 0x4 CALLDATASIZE LT PUSH2 0x9E JUMPI PUSH1 0x0 CALLDATALOAD PUSH1 0xE0 SHR DUP1 PUSH4 0xBD79A42A GT PUSH2 0x66 JUMPI DUP1 PUSH4 0xBD79A42A EQ PUSH2 0x143 JUMPI DUP1 PUSH4 0xD1ABDAB8 EQ PUSH2 0x160 JUMPI DUP1 PUSH4 0xD5E5E6E6 EQ PUSH2 0x183 JUMPI DUP1 PUSH4 0xE4187D02 EQ PUSH2 0x18B JUMPI DUP1 PUSH4 0xF63A5D22 EQ PUSH2 0x1AE JUMPI PUSH2 0x9E JUMP JUMPDEST DUP1 PUSH4 0xFA53DB8 EQ PUSH2 0xA3 JUMPI DUP1 PUSH4 0x1C933E2F EQ PUSH2 0xD8 JUMPI DUP1 PUSH4 0x33882479 EQ PUSH2 0xFB JUMPI DUP1 PUSH4 0x53CB26C6 EQ PUSH2 0x11E JUMPI DUP1 PUSH4 0x907AF6C0 EQ PUSH2 0x13B JUMPI JUMPDEST PUSH1 0x0 DUP1 REVERT JUMPDEST PUSH2 0xC6 PUSH1 0x4 DUP1 CALLDATASIZE SUB PUSH1 0x40 DUP2 LT ISZERO PUSH2 0xB9 JUMPI PUSH1 0x0 DUP1 REVERT JUMPDEST POP DUP1 CALLDATALOAD SWAP1 PUSH1 0x20 ADD CALLDATALOAD PUSH2 0x1D1 JUMP JUMPDEST PUSH1 0x40 DUP1 MLOAD SWAP2 DUP3 MSTORE MLOAD SWAP1 DUP2 SWAP1 SUB PUSH1 0x20 ADD SWAP1 RETURN JUMPDEST PUSH2 0xC6 PUSH1 0x4 DUP1 CALLDATASIZE SUB PUSH1 0x40 DUP2 LT ISZERO PUSH2 0xEE JUMPI PUSH1 0x0 DUP1 REVERT JUMPDEST POP DUP1 CALLDATALOAD SWAP1 PUSH1 0x20 ADD CALLDATALOAD PUSH2 0x1EC JUMP JUMPDEST PUSH2 0xC6 PUSH1 0x4 DUP1 CALLDATASIZE SUB PUSH1 0x40 DUP2 LT ISZERO PUSH2 0x111 JUMPI PUSH1 0x0 DUP1 REVERT JUMPDEST POP DUP1 CALLDATALOAD SWAP1 PUSH1 0x20 ADD CALLDATALOAD PUSH2 0x1FE JUMP JUMPDEST PUSH2 0xC6 PUSH1 0x4 DUP1 CALLDATASIZE SUB PUSH1 0x20 DUP2 LT ISZERO PUSH2 0x134 JUMPI PUSH1 0x0 DUP1 REVERT JUMPDEST POP CALLDATALOAD PUSH2 0x210 JUMP JUMPDEST PUSH2 0xC6 PUSH2 0x21B JUMP JUMPDEST PUSH2 0xC6 PUSH1 0x4 DUP1 CALLDATASIZE SUB PUSH1 0x20 DUP2 LT ISZERO PUSH2 0x159 JUMPI PUSH1 0x0 DUP1 REVERT JUMPDEST POP CALLDATALOAD PUSH2 0x292 JUMP JUMPDEST PUSH2 0xC6 PUSH1 0x4 DUP1 CALLDATASIZE SUB PUSH1 0x40 DUP2 LT ISZERO PUSH2 0x176 JUMPI PUSH1 0x0 DUP1 REVERT JUMPDEST POP DUP1 CALLDATALOAD SWAP1 PUSH1 0x20 ADD CALLDATALOAD PUSH2 0x29D JUMP JUMPDEST PUSH2 0xC6 PUSH2 0x2AF JUMP JUMPDEST PUSH2 0xC6 PUSH1 0x4 DUP1 CALLDATASIZE SUB PUSH1 0x40 DUP2 LT ISZERO PUSH2 0x1A1 JUMPI PUSH1 0x0 DUP1 REVERT JUMPDEST POP DUP1 CALLDATALOAD SWAP1 PUSH1 0x20 ADD CALLDATALOAD PUSH2 0x2F5 JUMP JUMPDEST PUSH2 0xC6 PUSH1 0x4 DUP1 CALLDATASIZE SUB PUSH1 0x40 DUP2 LT ISZERO PUSH2 0x1C4 JUMPI PUSH1 0x0 DUP1 REVERT JUMPDEST POP DUP1 CALLDATALOAD SWAP1 PUSH1 0x20 ADD CALLDATALOAD PUSH2 0x307 JUMP JUMPDEST PUSH1 0x0 PUSH2 0x1E3 DUP4 DUP4 PUSH4 0xFFFFFFFF PUSH2 0x319 AND JUMP JUMPDEST SWAP1 POP JUMPDEST SWAP3 SWAP2 POP POP JUMP JUMPDEST PUSH1 0x0 PUSH2 0x1E3 DUP4 DUP4 PUSH4 0xFFFFFFFF PUSH2 0x32E AND JUMP JUMPDEST PUSH1 0x0 PUSH2 0x1E3 DUP4 DUP4 PUSH4 0xFFFFFFFF PUSH2 0x347 AND JUMP JUMPDEST PUSH1 0x0 PUSH2 0x1E6 DUP3 PUSH2 0x35C JUMP JUMPDEST PUSH1 0x0 PUSH20 0x0 PUSH4 0x907AF6C0 PUSH1 0x40 MLOAD DUP2 PUSH4 0xFFFFFFFF AND PUSH1 0xE0 SHL DUP2 MSTORE PUSH1 0x4 ADD PUSH1 0x20 PUSH1 0x40 MLOAD DUP1 DUP4 SUB DUP2 DUP7 DUP1 EXTCODESIZE ISZERO DUP1 ISZERO PUSH2 0x261 JUMPI PUSH1 0x0 DUP1 REVERT JUMPDEST POP GAS DELEGATECALL ISZERO DUP1 ISZERO PUSH2 0x275 JUMPI RETURNDATASIZE PUSH1 0x0 DUP1 RETURNDATACOPY RETURNDATASIZE PUSH1 0x0 REVERT JUMPDEST POP POP POP POP PUSH1 0x40 MLOAD RETURNDATASIZE PUSH1 0x20 DUP2 LT ISZERO PUSH2 0x28B JUMPI PUSH1 0x0 DUP1 REVERT JUMPDEST POP MLOAD SWAP1 POP SWAP1 JUMP JUMPDEST PUSH1 0x0 PUSH2 0x1E6 DUP3 PUSH2 0x37E JUMP JUMPDEST PUSH1 0x0 PUSH2 0x1E3 DUP4 DUP4 PUSH4 0xFFFFFFFF PUSH2 0x394 AND JUMP JUMPDEST PUSH1 0x0 PUSH20 0x0 PUSH4 0xD5E5E6E6 PUSH1 0x40 MLOAD DUP2 PUSH4 0xFFFFFFFF AND PUSH1 0xE0 SHL DUP2 MSTORE PUSH1 0x4 ADD PUSH1 0x20 PUSH1 0x40 MLOAD DUP1 DUP4 SUB DUP2 DUP7 DUP1 EXTCODESIZE ISZERO DUP1 ISZERO PUSH2 0x261 JUMPI PUSH1 0x0 DUP1 REVERT JUMPDEST PUSH1 0x0 PUSH2 0x1E3 DUP4 DUP4 PUSH4 0xFFFFFFFF PUSH2 0x3BE AND JUMP JUMPDEST PUSH1 0x0 PUSH2 0x1E3 DUP4 DUP4 PUSH4 0xFFFFFFFF PUSH2 0x3E8 AND JUMP JUMPDEST PUSH1 0x0 PUSH2 0x1E3 DUP4 DUP4 PUSH8 0xDE0B6B3A7640000 PUSH2 0x3FD JUMP JUMPDEST PUSH1 0x0 PUSH2 0x1E3 DUP4 DUP4 PUSH12 0x33B2E3C9FD0803CE8000000 PUSH2 0x435 JUMP JUMPDEST PUSH1 0x0 PUSH2 0x1E3 DUP4 DUP4 PUSH8 0xDE0B6B3A7640000 PUSH2 0x435 JUMP JUMPDEST PUSH1 0x0 PUSH4 0x5F5E100 DUP3 DIV PUSH1 0x5 PUSH1 0xA DUP3 MOD LT PUSH2 0x374 JUMPI PUSH1 0xA ADD JUMPDEST PUSH1 0xA SWAP1 DIV SWAP3 SWAP2 POP POP JUMP JUMPDEST PUSH1 0x0 PUSH2 0x1E6 DUP3 PUSH4 0x3B9ACA00 PUSH4 0xFFFFFFFF PUSH2 0x460 AND JUMP JUMPDEST PUSH1 0x0 PUSH2 0x1E3 DUP3 PUSH2 0x3B2 DUP6 PUSH8 0xDE0B6B3A7640000 PUSH4 0xFFFFFFFF PUSH2 0x460 AND JUMP JUMPDEST SWAP1 PUSH4 0xFFFFFFFF PUSH2 0x4B9 AND JUMP JUMPDEST PUSH1 0x0 PUSH8 0xDE0B6B3A7640000 PUSH2 0x3D9 DUP5 DUP5 PUSH4 0xFFFFFFFF PUSH2 0x460 AND JUMP JUMPDEST DUP2 PUSH2 0x3E0 JUMPI INVALID JUMPDEST DIV SWAP4 SWAP3 POP POP POP JUMP JUMPDEST PUSH1 0x0 PUSH2 0x1E3 DUP4 DUP4 PUSH12 0x33B2E3C9FD0803CE8000000 JUMPDEST PUSH1 0x0 DUP1 PUSH2 0x417 DUP5 PUSH2 0x3B2 DUP8 PUSH1 0xA DUP8 MUL PUSH4 0xFFFFFFFF PUSH2 0x460 AND JUMP JUMPDEST SWAP1 POP PUSH1 0x5 PUSH1 0xA DUP3 JUMPDEST MOD LT PUSH2 0x429 JUMPI PUSH1 0xA ADD JUMPDEST PUSH1 0xA SWAP1 DIV SWAP5 SWAP4 POP POP POP POP JUMP JUMPDEST PUSH1 0x0 DUP1 PUSH1 0xA DUP4 DIV PUSH2 0x44C DUP7 DUP7 PUSH4 0xFFFFFFFF PUSH2 0x460 AND JUMP JUMPDEST DUP2 PUSH2 0x453 JUMPI INVALID JUMPDEST DIV SWAP1 POP PUSH1 0x5 PUSH1 0xA DUP3 PUSH2 0x41F JUMP JUMPDEST PUSH1 0x0 DUP3 PUSH2 0x46F JUMPI POP PUSH1 0x0 PUSH2 0x1E6 JUMP JUMPDEST DUP3 DUP3 MUL DUP3 DUP5 DUP3 DUP2 PUSH2 0x47C JUMPI INVALID JUMPDEST DIV EQ PUSH2 0x1E3 JUMPI PUSH1 0x40 MLOAD PUSH3 0x461BCD PUSH1 0xE5 SHL DUP2 MSTORE PUSH1 0x4 ADD DUP1 DUP1 PUSH1 0x20 ADD DUP3 DUP2 SUB DUP3 MSTORE PUSH1 0x21 DUP2 MSTORE PUSH1 0x20 ADD DUP1 PUSH2 0x524 PUSH1 0x21 SWAP2 CODECOPY PUSH1 0x40 ADD SWAP2 POP POP PUSH1 0x40 MLOAD DUP1 SWAP2 SUB SWAP1 REVERT JUMPDEST PUSH1 0x0 DUP1 DUP3 GT PUSH2 0x50F JUMPI PUSH1 0x40 DUP1 MLOAD PUSH3 0x461BCD PUSH1 0xE5 SHL DUP2 MSTORE PUSH1 0x20 PUSH1 0x4 DUP3 ADD MSTORE PUSH1 0x1A PUSH1 0x24 DUP3 ADD MSTORE PUSH32 0x536166654D6174683A206469766973696F6E206279207A65726F000000000000 PUSH1 0x44 DUP3 ADD MSTORE SWAP1 MLOAD SWAP1 DUP2 SWAP1 SUB PUSH1 0x64 ADD SWAP1 REVERT JUMPDEST PUSH1 0x0 DUP3 DUP5 DUP2 PUSH2 0x51A JUMPI INVALID JUMPDEST DIV SWAP5 SWAP4 POP POP POP POP JUMP INVALID MSTORE8 PUSH2 0x6665 0x4D PUSH2 0x7468 GASPRICE KECCAK256 PUSH14 0x756C7469706C69636174696F6E20 PUSH16 0x766572666C6F77A265627A7A72315820 DIFFICULTY 0xEB INVALID 0x4A DUP1 CALL DUP15 SWAP11 PUSH17 0x520F990EDADFAC6EDB306A167F20983E42 0xC0 SWAP6 STOP 0xE1 PUSH18 0xBF64736F6C63430005100032000000000000 "
		}
	}
}