{
	"abi": [
		{
			"constant": true,
			"inputs": [
				{
					"internalType": "uint256",
					"name": "x",
					"type": "uint256"
				},
				{
					"internalType": "uint256",
					"name": "y",
					"type": "uint256"
				}
			],
			"name": "powerDecimal",
			"outputs": [
				{
					"internalType": "uint256",
					"name": "",
					"type": "uint256"
				}
			],
			"payable": false,
			"stateMutability": "pure",
			"type": "function"
		}
	],
	"evm": {
		"bytecode": {
			"linkReferences": {
				"test-helpers/PublicMath.sol": {
					"SafeDecimalMath": [
						{
							"length": 20,
							"start": 165
						}
					]
				}
			},
			"object": "608060405234801561001057600080fd5b5061020e806100206000396000f3fe608060405234801561001057600080fd5b506004361061002b5760003560e01c80634447d1d714610030575b600080fd5b6100536004803603604081101561004657600080fd5b5080359060200135610065565b60408051918252519081900360200190f35b6000610077838363ffffffff61008016565b90505b92915050565b60008073__$9fd0b410cb4b0ee6a8df5363135874551e$__63907af6c06040518163ffffffff1660e01b815260040160206040518083038186803b1580156100c757600080fd5b505af41580156100db573d6000803e3d6000fd5b505050506040513d60208110156100f157600080fd5b505190505b821561007757600283061561011857610115818563ffffffff61013516565b90505b610128848063ffffffff61013516565b93506002830492506100f6565b6000670de0b6b3a7640000610150848463ffffffff61015f16565b8161015757fe5b049392505050565b60008261016e5750600061007a565b8282028284828161017b57fe5b04146100775760405162461bcd60e51b81526004018080602001828103825260218152602001806101b96021913960400191505060405180910390fdfe536166654d6174683a206d756c7469706c69636174696f6e206f766572666c6f77a265627a7a723158205d1e2e49843852c7db4304d659ad236ea1250a5900f23fc739e35ebd5f385dea64736f6c63430005100032",
			"opcodes": "PUSH1 0x80 PUSH1 0x40 MSTORE CALLVALUE DUP1 ISZERO PUSH2 0x10 JUMPI PUSH1 0x0 DUP1 REVERT JUMPDEST POP PUSH2 0x20E DUP1 PUSH2 0x20 PUSH1 0x0 CODECOPY PUSH1 0x0 RETURN INVALID PUSH1 0x80 PUSH1 0x40 MSTORE CALLVALUE DUP1 ISZERO PUSH2 0x10 JUMPI PUSH1 0x0 DUP1 REVERT JUMPDEST POP PUSH1 0x4 CALLDATASIZE LT PUSH2 0x2B JUMPI PUSH1 0x0 CALLDATALOAD PUSH1 0xE0 SHR DUP1 PUSH4 0x4447D1D7 EQ PUSH2 0x30 JUMPI JUMPDEST PUSH1 0x0 DUP1 REVERT JUMPDEST PUSH2 0x53 PUSH1 0x4 DUP1 CALLDATASIZE SUB PUSH1 0x40 DUP2 LT ISZERO PUSH2 0x46 JUMPI PUSH1 0x0 DUP1 REVERT JUMPDEST POP DUP1 CALLDATALOAD SWAP1 PUSH1 0x20 ADD CALLDATALOAD PUSH2 0x65 JUMP JUMPDEST PUSH1 0x40 DUP1 MLOAD SWAP2 DUP3 MSTORE MLOAD SWAP1 DUP2 SWAP1 SUB PUSH1 0x20 ADD SWAP1 RETURN JUMPDEST PUSH1 0x0 PUSH2 0x77 DUP4 DUP4 PUSH4 0xFFFFFFFF PUSH2 0x80 AND JUMP JUMPDEST SWAP1 POP JUMPDEST SWAP3 SWAP2 POP POP JUMP JUMPDEST PUSH1 0x0 DUP1 PUSH20 0x0 PUSH4 0x907AF6C0 PUSH1 0x40 MLOAD DUP2 PUSH4 0xFFFFFFFF AND PUSH1 0xE0 SHL DUP2 MSTORE PUSH1 0x4 ADD PUSH1 0x20 PUSH1 0x40 MLOAD DUP1 DUP4 SUB DUP2 DUP7 DUP1 EXTCODESIZE ISZERO DUP1 ISZERO PUSH2 0xC7 JUMPI PUSH1 0x0 DUP1 REVERT JUMPDEST POP GAS DELEGATECALL ISZERO DUP1 ISZERO PUSH2 0xDB JUMPI RETURNDATASIZE PUSH1 0x0 DUP1 RETURNDATACOPY RETURNDATASIZE PUSH1 0x0 REVERT JUMPDEST POP POP POP POP PUSH1 0x40 MLOAD RETURNDATASIZE PUSH1 0x20 DUP2 LT ISZERO PUSH2 0xF1 JUMPI PUSH1 0x0 DUP1 REVERT JUMPDEST POP MLOAD SWAP1 POP JUMPDEST DUP3 ISZERO PUSH2 0x77 JUMPI PUSH1 0x2 DUP4 MOD ISZERO PUSH2 0x118 JUMPI PUSH2 0x115 DUP2 DUP6 PUSH4 0xFFFFFFFF PUSH2 0x135 AND JUMP JUMPDEST SWAP1 POP JUMPDEST PUSH2 0x128 DUP5 DUP1 PUSH4 0xFFFFFFFF PUSH2 0x135 AND JUMP JUMPDEST SWAP4 POP PUSH1 0x2 DUP4 DIV SWAP3 POP PUSH2 0xF6 JUMP JUMPDEST PUSH1 0x0 PUSH8 0xDE0B6B3A7640000 PUSH2 0x150 DUP5 DUP5 PUSH4 0xFFFFFFFF PUSH2 0x15F AND JUMP JUMPDEST DUP2 PUSH2 0x157 JUMPI INVALID JUMPDEST DIV SWAP4 SWAP3 POP POP POP JUMP JUMPDEST PUSH1 0x0 DUP3 PUSH2 0x16E JUMPI POP PUSH1 0x0 PUSH2 0x7A JUMP JUMPDEST DUP3 DUP3 MUL DUP3 DUP5 DUP3 DUP2 PUSH2 0x17B JUMPI INVALID JUMPDEST DIV EQ PUSH2 0x77 JUMPI PUSH1 0x40 MLOAD PUSH3 0x461BCD PUSH1 0xE5 SHL DUP2 MSTORE PUSH1 0x4 ADD DUP1 DUP1 PUSH1 0x20 ADD DUP3 DUP2 SUB DUP3 MSTORE PUSH1 0x21 DUP2 MSTORE PUSH1 0x20 ADD DUP1 PUSH2 0x1B9 PUSH1 0x21 SWAP2 CODECOPY PUSH1 0x40 ADD SWAP2 POP POP PUSH1 0x40 MLOAD DUP1 SWAP2 SUB SWAP1 REVERT INVALID MSTORE8 PUSH2 0x6665 0x4D PUSH2 0x7468 GASPRICE KECCAK256 PUSH14 0x756C7469706C69636174696F6E20 PUSH16 0x766572666C6F77A265627A7A72315820 0x5D 0x1E 0x2E 0x49 DUP5 CODESIZE MSTORE 0xC7 0xDB NUMBER DIV 0xD6 MSIZE 0xAD 0x23 PUSH15 0xA1250A5900F23FC739E35EBD5F385D 0xEA PUSH5 0x736F6C6343 STOP SDIV LT STOP ORIGIN "
		}
	}
}