{
	"abi": [
		{
			"inputs": [
				{
					"internalType": "address payable",
					"name": "_proxy",
					"type": "address"
				},
				{
					"internalType": "contract TokenState",
					"name": "_tokenState",
					"type": "address"
				},
				{
					"internalType": "string",
					"name": "_tokenName",
					"type": "string"
				},
				{
					"internalType": "string",
					"name": "_tokenSymbol",
					"type": "string"
				},
				{
					"internalType": "address payable",
					"name": "_owner",
					"type": "address"
				},
				{
					"internalType": "bytes32",
					"name": "_currencyKey",
					"type": "bytes32"
				},
				{
					"internalType": "uint256",
					"name": "_totalSupply",
					"type": "uint256"
				},
				{
					"internalType": "address",
					"name": "_resolver",
					"type": "address"
				}
			],
			"payable": false,
			"stateMutability": "nonpayable",
			"type": "constructor"
		},
		{
			"anonymous": false,
			"inputs": [
				{
					"indexed": true,
					"internalType": "address",
					"name": "owner",
					"type": "address"
				},
				{
					"indexed": true,
					"internalType": "address",
					"name": "spender",
					"type": "address"
				},
				{
					"indexed": false,
					"internalType": "uint256",
					"name": "value",
					"type": "uint256"
				}
			],
			"name": "Approval",
			"type": "event"
		},
		{
			"anonymous": false,
			"inputs": [
				{
					"indexed": true,
					"internalType": "address",
					"name": "account",
					"type": "address"
				},
				{
					"indexed": false,
					"internalType": "uint256",
					"name": "value",
					"type": "uint256"
				}
			],
			"name": "Burned",
			"type": "event"
		},
		{
			"anonymous": false,
			"inputs": [
				{
					"indexed": true,
					"internalType": "address",
					"name": "account",
					"type": "address"
				},
				{
					"indexed": false,
					"internalType": "uint256",
					"name": "value",
					"type": "uint256"
				}
			],
			"name": "Issued",
			"type": "event"
		},
		{
			"anonymous": false,
			"inputs": [
				{
					"indexed": false,
					"internalType": "address",
					"name": "oldOwner",
					"type": "address"
				},
				{
					"indexed": false,
					"internalType": "address",
					"name": "newOwner",
					"type": "address"
				}
			],
			"name": "OwnerChanged",
			"type": "event"
		},
		{
			"anonymous": false,
			"inputs": [
				{
					"indexed": false,
					"internalType": "address",
					"name": "newOwner",
					"type": "address"
				}
			],
			"name": "OwnerNominated",
			"type": "event"
		},
		{
			"anonymous": false,
			"inputs": [
				{
					"indexed": false,
					"internalType": "address",
					"name": "proxyAddress",
					"type": "address"
				}
			],
			"name": "ProxyUpdated",
			"type": "event"
		},
		{
			"anonymous": false,
			"inputs": [
				{
					"indexed": true,
					"internalType": "address",
					"name": "account",
					"type": "address"
				},
				{
					"indexed": false,
					"internalType": "uint256",
					"name": "value",
					"type": "uint256"
				}
			],
			"name": "Purged",
			"type": "event"
		},
		{
			"anonymous": false,
			"inputs": [
				{
					"indexed": false,
					"internalType": "address",
					"name": "newBeneficiary",
					"type": "address"
				}
			],
			"name": "SelfDestructBeneficiaryUpdated",
			"type": "event"
		},
		{
			"anonymous": false,
			"inputs": [
				{
					"indexed": false,
					"internalType": "uint256",
					"name": "selfDestructDelay",
					"type": "uint256"
				}
			],
			"name": "SelfDestructInitiated",
			"type": "event"
		},
		{
			"anonymous": false,
			"inputs": [],
			"name": "SelfDestructTerminated",
			"type": "event"
		},
		{
			"anonymous": false,
			"inputs": [
				{
					"indexed": false,
					"internalType": "address",
					"name": "beneficiary",
					"type": "address"
				}
			],
			"name": "SelfDestructed",
			"type": "event"
		},
		{
			"anonymous": false,
			"inputs": [
				{
					"indexed": false,
					"internalType": "address",
					"name": "newTokenState",
					"type": "address"
				}
			],
			"name": "TokenStateUpdated",
			"type": "event"
		},
		{
			"anonymous": false,
			"inputs": [
				{
					"indexed": true,
					"internalType": "address",
					"name": "from",
					"type": "address"
				},
				{
					"indexed": true,
					"internalType": "address",
					"name": "to",
					"type": "address"
				},
				{
					"indexed": false,
					"internalType": "uint256",
					"name": "value",
					"type": "uint256"
				}
			],
			"name": "Transfer",
			"type": "event"
		},
		{
			"constant": true,
			"inputs": [],
			"name": "DECIMALS",
			"outputs": [
				{
					"internalType": "uint8",
					"name": "",
					"type": "uint8"
				}
			],
			"payable": false,
			"stateMutability": "view",
			"type": "function"
		},
		{
			"constant": true,
			"inputs": [],
			"name": "FEE_ADDRESS",
			"outputs": [
				{
					"internalType": "address",
					"name": "",
					"type": "address"
				}
			],
			"payable": false,
			"stateMutability": "view",
			"type": "function"
		},
		{
			"constant": true,
			"inputs": [],
			"name": "MAX_ADDRESSES_FROM_RESOLVER",
			"outputs": [
				{
					"internalType": "uint256",
					"name": "",
					"type": "uint256"
				}
			],
			"payable": false,
			"stateMutability": "view",
			"type": "function"
		},
		{
			"constant": true,
			"inputs": [],
			"name": "SELFDESTRUCT_DELAY",
			"outputs": [
				{
					"internalType": "uint256",
					"name": "",
					"type": "uint256"
				}
			],
			"payable": false,
			"stateMutability": "view",
			"type": "function"
		},
		{
			"constant": false,
			"inputs": [],
			"name": "acceptOwnership",
			"outputs": [],
			"payable": false,
			"stateMutability": "nonpayable",
			"type": "function"
		},
		{
			"constant": true,
			"inputs": [
				{
					"internalType": "address",
					"name": "owner",
					"type": "address"
				},
				{
					"internalType": "address",
					"name": "spender",
					"type": "address"
				}
			],
			"name": "allowance",
			"outputs": [
				{
					"internalType": "uint256",
					"name": "",
					"type": "uint256"
				}
			],
			"payable": false,
			"stateMutability": "view",
			"type": "function"
		},
		{
			"constant": false,
			"inputs": [
				{
					"internalType": "address",
					"name": "spender",
					"type": "address"
				},
				{
					"internalType": "uint256",
					"name": "value",
					"type": "uint256"
				}
			],
			"name": "approve",
			"outputs": [
				{
					"internalType": "bool",
					"name": "",
					"type": "bool"
				}
			],
			"payable": false,
			"stateMutability": "nonpayable",
			"type": "function"
		},
		{
			"constant": true,
			"inputs": [
				{
					"internalType": "address",
					"name": "account",
					"type": "address"
				}
			],
			"name": "balanceOf",
			"outputs": [
				{
					"internalType": "uint256",
					"name": "",
					"type": "uint256"
				}
			],
			"payable": false,
			"stateMutability": "view",
			"type": "function"
		},
		{
			"constant": false,
			"inputs": [
				{
					"internalType": "address",
					"name": "account",
					"type": "address"
				},
				{
					"internalType": "uint256",
					"name": "amount",
					"type": "uint256"
				}
			],
			"name": "burn",
			"outputs": [],
			"payable": false,
			"stateMutability": "nonpayable",
			"type": "function"
		},
		{
			"constant": true,
			"inputs": [],
			"name": "currencyKey",
			"outputs": [
				{
					"internalType": "bytes32",
					"name": "",
					"type": "bytes32"
				}
			],
			"payable": false,
			"stateMutability": "view",
			"type": "function"
		},
		{
			"constant": true,
			"inputs": [],
			"name": "decimals",
			"outputs": [
				{
					"internalType": "uint8",
					"name": "",
					"type": "uint8"
				}
			],
			"payable": false,
			"stateMutability": "view",
			"type": "function"
		},
		{
			"constant": true,
			"inputs": [],
			"name": "getResolverAddressesRequired",
			"outputs": [
				{
					"internalType": "bytes32[24]",
					"name": "addressesRequired",
					"type": "bytes32[24]"
				}
			],
			"payable": false,
			"stateMutability": "view",
			"type": "function"
		},
		{
			"constant": false,
			"inputs": [],
			"name": "initiateSelfDestruct",
			"outputs": [],
			"payable": false,
			"stateMutability": "nonpayable",
			"type": "function"
		},
		{
			"constant": true,
			"inputs": [],
			"name": "initiationTime",
			"outputs": [
				{
					"internalType": "uint256",
					"name": "",
					"type": "uint256"
				}
			],
			"payable": false,
			"stateMutability": "view",
			"type": "function"
		},
		{
			"constant": true,
			"inputs": [],
			"name": "integrationProxy",
			"outputs": [
				{
					"internalType": "contract Proxy",
					"name": "",
					"type": "address"
				}
			],
			"payable": false,
			"stateMutability": "view",
			"type": "function"
		},
		{
			"constant": true,
			"inputs": [
				{
					"internalType": "contract AddressResolver",
					"name": "_resolver",
					"type": "address"
				}
			],
			"name": "isResolverCached",
			"outputs": [
				{
					"internalType": "bool",
					"name": "",
					"type": "bool"
				}
			],
			"payable": false,
			"stateMutability": "view",
			"type": "function"
		},
		{
			"constant": false,
			"inputs": [
				{
					"internalType": "address",
					"name": "account",
					"type": "address"
				},
				{
					"internalType": "uint256",
					"name": "amount",
					"type": "uint256"
				}
			],
			"name": "issue",
			"outputs": [],
			"payable": false,
			"stateMutability": "nonpayable",
			"type": "function"
		},
		{
			"constant": true,
			"inputs": [],
			"name": "maxSupplyToPurgeInUSD",
			"outputs": [
				{
					"internalType": "uint256",
					"name": "",
					"type": "uint256"
				}
			],
			"payable": false,
			"stateMutability": "view",
			"type": "function"
		},
		{
			"constant": true,
			"inputs": [],
			"name": "messageSender",
			"outputs": [
				{
					"internalType": "address",
					"name": "",
					"type": "address"
				}
			],
			"payable": false,
			"stateMutability": "view",
			"type": "function"
		},
		{
			"constant": true,
			"inputs": [],
			"name": "name",
			"outputs": [
				{
					"internalType": "string",
					"name": "",
					"type": "string"
				}
			],
			"payable": false,
			"stateMutability": "view",
			"type": "function"
		},
		{
			"constant": false,
			"inputs": [
				{
					"internalType": "address",
					"name": "_owner",
					"type": "address"
				}
			],
			"name": "nominateNewOwner",
			"outputs": [],
			"payable": false,
			"stateMutability": "nonpayable",
			"type": "function"
		},
		{
			"constant": true,
			"inputs": [],
			"name": "nominatedOwner",
			"outputs": [
				{
					"internalType": "address",
					"name": "",
					"type": "address"
				}
			],
			"payable": false,
			"stateMutability": "view",
			"type": "function"
		},
		{
			"constant": true,
			"inputs": [],
			"name": "owner",
			"outputs": [
				{
					"internalType": "address",
					"name": "",
					"type": "address"
				}
			],
			"payable": false,
			"stateMutability": "view",
			"type": "function"
		},
		{
			"constant": true,
			"inputs": [],
			"name": "proxy",
			"outputs": [
				{
					"internalType": "contract Proxy",
					"name": "",
					"type": "address"
				}
			],
			"payable": false,
			"stateMutability": "view",
			"type": "function"
		},
		{
			"constant": false,
			"inputs": [
				{
					"internalType": "address[]",
					"name": "addresses",
					"type": "address[]"
				}
			],
			"name": "purge",
			"outputs": [],
			"payable": false,
			"stateMutability": "nonpayable",
			"type": "function"
		},
		{
			"constant": true,
			"inputs": [],
			"name": "resolver",
			"outputs": [
				{
					"internalType": "contract AddressResolver",
					"name": "",
					"type": "address"
				}
			],
			"payable": false,
			"stateMutability": "view",
			"type": "function"
		},
		{
			"constant": true,
			"inputs": [
				{
					"internalType": "uint256",
					"name": "",
					"type": "uint256"
				}
			],
			"name": "resolverAddressesRequired",
			"outputs": [
				{
					"internalType": "bytes32",
					"name": "",
					"type": "bytes32"
				}
			],
			"payable": false,
			"stateMutability": "view",
			"type": "function"
		},
		{
			"constant": false,
			"inputs": [],
			"name": "selfDestruct",
			"outputs": [],
			"payable": false,
			"stateMutability": "nonpayable",
			"type": "function"
		},
		{
			"constant": true,
			"inputs": [],
			"name": "selfDestructBeneficiary",
			"outputs": [
				{
					"internalType": "address",
					"name": "",
					"type": "address"
				}
			],
			"payable": false,
			"stateMutability": "view",
			"type": "function"
		},
		{
			"constant": true,
			"inputs": [],
			"name": "selfDestructInitiated",
			"outputs": [
				{
					"internalType": "bool",
					"name": "",
					"type": "bool"
				}
			],
			"payable": false,
			"stateMutability": "view",
			"type": "function"
		},
		{
			"constant": false,
			"inputs": [
				{
					"internalType": "address payable",
					"name": "_integrationProxy",
					"type": "address"
				}
			],
			"name": "setIntegrationProxy",
			"outputs": [],
			"payable": false,
			"stateMutability": "nonpayable",
			"type": "function"
		},
		{
			"constant": false,
			"inputs": [
				{
					"internalType": "address",
					"name": "sender",
					"type": "address"
				}
			],
			"name": "setMessageSender",
			"outputs": [],
			"payable": false,
			"stateMutability": "nonpayable",
			"type": "function"
		},
		{
			"constant": false,
			"inputs": [
				{
					"internalType": "address payable",
					"name": "_proxy",
					"type": "address"
				}
			],
			"name": "setProxy",
			"outputs": [],
			"payable": false,
			"stateMutability": "nonpayable",
			"type": "function"
		},
		{
			"constant": false,
			"inputs": [
				{
					"internalType": "contract AddressResolver",
					"name": "_resolver",
					"type": "address"
				}
			],
			"name": "setResolverAndSyncCache",
			"outputs": [],
			"payable": false,
			"stateMutability": "nonpayable",
			"type": "function"
		},
		{
			"constant": false,
			"inputs": [
				{
					"internalType": "address payable",
					"name": "_beneficiary",
					"type": "address"
				}
			],
			"name": "setSelfDestructBeneficiary",
			"outputs": [],
			"payable": false,
			"stateMutability": "nonpayable",
			"type": "function"
		},
		{
			"constant": false,
			"inputs": [
				{
					"internalType": "contract TokenState",
					"name": "_tokenState",
					"type": "address"
				}
			],
			"name": "setTokenState",
			"outputs": [],
			"payable": false,
			"stateMutability": "nonpayable",
			"type": "function"
		},
		{
			"constant": false,
			"inputs": [
				{
					"internalType": "uint256",
					"name": "amount",
					"type": "uint256"
				}
			],
			"name": "setTotalSupply",
			"outputs": [],
			"payable": false,
			"stateMutability": "nonpayable",
			"type": "function"
		},
		{
			"constant": true,
			"inputs": [],
			"name": "symbol",
			"outputs": [
				{
					"internalType": "string",
					"name": "",
					"type": "string"
				}
			],
			"payable": false,
			"stateMutability": "view",
			"type": "function"
		},
		{
			"constant": false,
			"inputs": [],
			"name": "terminateSelfDestruct",
			"outputs": [],
			"payable": false,
			"stateMutability": "nonpayable",
			"type": "function"
		},
		{
			"constant": true,
			"inputs": [],
			"name": "tokenState",
			"outputs": [
				{
					"internalType": "contract TokenState",
					"name": "",
					"type": "address"
				}
			],
			"payable": false,
			"stateMutability": "view",
			"type": "function"
		},
		{
			"constant": true,
			"inputs": [],
			"name": "totalSupply",
			"outputs": [
				{
					"internalType": "uint256",
					"name": "",
					"type": "uint256"
				}
			],
			"payable": false,
			"stateMutability": "view",
			"type": "function"
		},
		{
			"constant": false,
			"inputs": [
				{
					"internalType": "address",
					"name": "to",
					"type": "address"
				},
				{
					"internalType": "uint256",
					"name": "value",
					"type": "uint256"
				}
			],
			"name": "transfer",
			"outputs": [
				{
					"internalType": "bool",
					"name": "",
					"type": "bool"
				}
			],
			"payable": false,
			"stateMutability": "nonpayable",
			"type": "function"
		},
		{
			"constant": false,
			"inputs": [
				{
					"internalType": "address",
					"name": "to",
					"type": "address"
				},
				{
					"internalType": "uint256",
					"name": "value",
					"type": "uint256"
				}
			],
			"name": "transferAndSettle",
			"outputs": [
				{
					"internalType": "bool",
					"name": "",
					"type": "bool"
				}
			],
			"payable": false,
			"stateMutability": "nonpayable",
			"type": "function"
		},
		{
			"constant": false,
			"inputs": [
				{
					"internalType": "address",
					"name": "from",
					"type": "address"
				},
				{
					"internalType": "address",
					"name": "to",
					"type": "address"
				},
				{
					"internalType": "uint256",
					"name": "value",
					"type": "uint256"
				}
			],
			"name": "transferFrom",
			"outputs": [
				{
					"internalType": "bool",
					"name": "",
					"type": "bool"
				}
			],
			"payable": false,
			"stateMutability": "nonpayable",
			"type": "function"
		},
		{
			"constant": false,
			"inputs": [
				{
					"internalType": "address",
					"name": "from",
					"type": "address"
				},
				{
					"internalType": "address",
					"name": "to",
					"type": "address"
				},
				{
					"internalType": "uint256",
					"name": "value",
					"type": "uint256"
				}
			],
			"name": "transferFromAndSettle",
			"outputs": [
				{
					"internalType": "bool",
					"name": "",
					"type": "bool"
				}
			],
			"payable": false,
			"stateMutability": "nonpayable",
			"type": "function"
		},
		{
			"constant": true,
			"inputs": [
				{
					"internalType": "address",
					"name": "account",
					"type": "address"
				}
			],
			"name": "transferableSynths",
			"outputs": [
				{
					"internalType": "uint256",
					"name": "",
					"type": "uint256"
				}
			],
			"payable": false,
			"stateMutability": "view",
			"type": "function"
		}
	],
	"evm": {
		"bytecode": {
			"linkReferences": {
				"PurgeableSynth.sol": {
					"SafeDecimalMath": [
						{
							"length": 20,
							"start": 101
						}
					]
				}
			},
			"object": "60806040526040516080810160409081526b53797374656d53746174757360a01b82526822bc31b430b733b2b960b91b60208301526524b9b9bab2b960d11b9082015266119959541bdbdb60ca1b60608201526200006290600f90600462000b68565b5073__$3123cc1d66d3bdb6ad1ab810b3f0e3cac5$__63907af6c06040518163ffffffff1660e01b81526004016020604051808303818680620000a462000bb6565b158015620000bc57600080620000b962000c18565b50505b505a620000c862000c85565b5050505050158015620000ea573d6000803e3d6000620000e762000c18565b50505b505050506040513d60208110156200010c576000806200010962000c18565b50505b810190808051620186a00292506027915062000129905062000d42565b505034801562000143576000806200014062000c18565b50505b50604051620052db380380620052db833981810160405261010081101562000175576000806200017262000c18565b50505b810190808051929190602001805192919060200180516040519392919084640100000000821115620001b157600080620001ae62000c18565b50505b908301906020820185811115620001d257600080620001cf62000c18565b50505b8251640100000000811182820188101715620001f857600080620001f562000c18565b50505b825250602001908051906020019080838360005b83811015620002265780820151838201526020016200020c565b50505050905090810190601f168015620002545780820380516001836020036101000a031916815260200191505b506040526020018051604051939291908464010000000082111562000283576000806200028062000c18565b50505b908301906020820185811115620002a457600080620002a162000c18565b50505b8251640100000000811182820188101715620002ca57600080620002c762000c18565b50505b825250602001908051906020019080838360005b83811015620002f8578082015183820152602001620002de565b50505050905090810190601f168015620003265780820380516001836020036101000a031916815260200191505b506040526020018051929190602001805192919060200180519291906020018051925089915088905087878787878780600f60186103006040519081016040529190610300830182845b816200037b62000d91565b8152602001906001019080831162000370575050505050898989898760128b868160006001600160a01b0316816001600160a01b031614156200040f5760405162461bcd60e51b815260206004820152601960248201527f4f776e657220616464726573732063616e6e6f742062652030000000000000006044820152606401604051809103906200040c62000c18565b50505b8060006001816200041f62000d91565b816001600160a01b0302191690836001600160a01b03160217906200044362000d42565b5050507fb532073b38c83145e3e5135377a08bf9aab55bc0fd7c1179cd4fb995d2a5159c6000826040516001600160a01b039283168152911660208201526040908101905180910390a150600080806200049c62000d91565b906101000a90046001600160a01b03166001600160a01b03161415620005075760405162461bcd60e51b815260206004820152601160248201527013dddb995c881b5d5cdd081899481cd95d607a1b6044820152606401604051809103906200050462000c18565b50505b6000806200051462000d91565b906101000a90046001600160a01b0316600360016101000a816200053762000d91565b816001600160a01b0302191690836001600160a01b03160217906200055b62000d42565b5050507fd5da63a0b864b315bc04128dedbc93888c8529ee6cf47ce664dc204339228c53600080906200058d62000d91565b906101000a90046001600160a01b03166040516001600160a01b03909116815260200160405180910390a160008080620005c662000d91565b906101000a90046001600160a01b03166001600160a01b03161415620006315760405162461bcd60e51b815260206004820152601160248201527013dddb995c881b5d5cdd081899481cd95d607a1b6044820152606401604051809103906200062e62000c18565b50505b8060046001816200064162000d91565b816001600160a01b0302191690836001600160a01b03160217906200066562000d42565b5050507ffc80377ca9c49cc11ae6982f390a42db976d5530af7c43889264b13fbbd7c57e816040516001600160a01b03909116815260200160405180910390a150856007600181620006b662000d91565b816001600160a01b0302191690836001600160a01b0316021790620006da62000d42565b505050846008908051620006f392916020019062000dde565b5060098480516200070992916020019062000dde565b508280600a6200071862000d42565b50505081600b60006101000a816200072f62000d91565b8160ff021916908360ff160217906200074762000d42565b5050505050505050505060006001600160a01b0316600080906200076a62000d91565b906101000a90046001600160a01b03166001600160a01b03161415620007d55760405162461bcd60e51b815260206004820152601160248201527013dddb995c881b5d5cdd081899481cd95d607a1b604482015260640160405180910390620007d262000c18565b50505b60005b601881101562000865576000828260188110620007f157fe5b6020020151146200085657600d8282601881106200080b57fe5b602002015190806001816200081f62000d91565b0180826200082c62000d42565b50506000928352916000198301915060209020919291016200084d62000d42565b5050506200085c565b62000865565b600101620007d8565b5081600b610100816200087762000d91565b816001600160a01b0302191690836001600160a01b03160217906200089b62000d42565b50505050506001600160a01b038816620008fb5760405162461bcd60e51b815260206004820152601260248201527105f70726f78792063616e6e6f7420626520360741b604482015260640160405180910390620008f862000c18565b50505b6001600160a01b038416620009565760405162461bcd60e51b815260206004820152601260248201527105f6f776e65722063616e6e6f7420626520360741b6044820152606401604051809103906200095362000c18565b50505b8280600e6200096462000d42565b5050505050505050505050620009906c45786368616e6765526174657360981b6200099e60201b60201c565b505050505050505062000f25565b80600d80600181620009af62000d91565b018082620009bc62000d42565b5050600092835291600019830191506020902091929101620009dd62000d42565b5050506018600d80620009ef62000d91565b90501062000a4e5760405162461bcd60e51b815260206004820152601b60248201527f4d6178207265736f6c7665722063616368652073697a65206d6574000000000060448201526064016040518091039062000a4b62000c18565b50505b6001600b62000a5c62000d91565b906101000a90046001600160a01b03166001600160a01b03166321f8a721826040516001600160e01b031960e084901b1681526004810191909152602401602060405180830381868062000aaf62000bb6565b15801562000ac75760008062000ac462000c18565b50505b505a62000ad362000e89565b505050505015801562000af5573d6000803e3d600062000af262000c18565b50505b505050506040513d602081101562000b175760008062000b1462000c18565b50505b8101908080516000858152600c6020529093506040925090502060018162000b3e62000d91565b816001600160a01b0302191690836001600160a01b031602179062000b6262000d42565b50505050565b826018810192821562000ba4579160200282015b8281111562000ba45782518262000b9262000d42565b50509160200191906001019062000b7c565b5062000bb292915062000ece565b5090565b638435035b598160e01b8152836004820152602081602483336000905af158600e01573d6000803e3d6000fd5b3d6001141558600a015760016000f35b8051935060005b604081101562000c135760008282015260200162000bfa565b505050565b632a2a7adb598160e01b8152600481016020815285602082015260005b8681101562000c5257808601518282016040015260200162000c35565b506020828760640184336000905af158600e01573d6000803e3d6000fd5b3d6001141558600a015760016000f35b505050565b63ffe73914598160e01b8152836004820152846024820152606060448201528660648201526084810160005b8881101562000ccb57808801518282015260200162000cb1565b50876101040182016060838a6101040185336000905af158600e01573d6000803e3d6000fd5b3d6001141558600a015760016000f35b825160408401513d6000863e8c8c82606088013350600060045af15059855b8181101562000d36576000815260200162000d20565b50919c50505050505050565b6322bd64c0598160e01b8152836004820152846024820152600081604483336000905af158600e01573d6000803e3d6000fd5b3d6001141558600a015760016000f35b60008152602062000bfa565b6303daa959598160e01b8152836004820152602081602483336000905af158600e01573d6000803e3d6000fd5b3d6001141558600a015760016000f35b8051600082529350602062000bfa565b828062000dea62000d91565b600181600116156101000203166002900490600052602060002090601f016020900481019282601f1062000e3557805160ff1916838001178562000e2d62000d42565b505062000e7b565b8280016001018562000e4662000d42565b5050821562000e7b579182015b8281111562000e7b5782518262000e6962000d42565b50509160200191906001019062000e53565b5062000bb292915062000efb565b638540661f598160e01b8152836004820152846024820152606060448201528660648201526084810160008881101562000ccb57808801518282015260200162000cb1565b62000ef891905b8082111562000bb2576000808262000eec62000d42565b50505060010162000ed5565b90565b62000ef891905b8082111562000bb2576000808262000f1962000d42565b50505060010162000f02565b6143a68062000f356000396000f3fe608060405234801561001957600080610016613eb6565b50505b50600436106102935760003560e01c80639cbdaeb611610165578063c58aaae6116100d7578063e73cced311610090578063e73cced31461083b578063e90dd9e21461087a578063eb1edd6114610882578063ec5568891461088a578063f7ea7a3d14610892578063ffff51d6146108b857610293565b8063c58aaae6146107be578063c6c9d828146107c6578063d67bdd25146107ec578063dbd06c85146107f4578063dd62ed3e146107fc578063e3235c911461083357610293565b8063ab49848c11610129578063ab49848c14610675578063ab593079146106b6578063b014c3a31461074a578063b8225dec1461077f578063bc67f83214610787578063bd32aa44146107b657610293565b80639cbdaeb6146105cc5780639dc29fac146105d45780639f76980714610609578063a461fc8214610638578063a9059cbb1461064057610293565b80633278c960116102095780637e88ac16116101c25780637e88ac1614610548578063867904b4146105505780638da5cb5b1461058557806395d89b411461058d57806397107d6d146105955780639cb8a26a146105c457610293565b80633278c960146104a35780633be99e6f146104ab57806353a47bb7146104da578063631e1444146104e257806370a082311461051157806379ba50971461054057610293565b806317c70de41161025b57806317c70de4146103ed57806318160ddd1461040757806320714f881461040f57806323b872dd1461043e5780632e0f26251461047d578063313ce5671461049b57610293565b806304f3bcec146102a157806306fdde03146102c5578063095ea7b314610344578063131b0ae71461038d5780631627540c146103be575b60008061029e613eb6565b50505b6102a96108e7565b6040516001600160a01b03909116815260200160405180910390f35b6102cd610906565b60405160208082528190810183818151815260200191508051906020019080838360005b838110156103095780820151838201526020016102f1565b50505050905090810190601f1680156103365780820380516001836020036101000a031916815260200191505b509250505060405180910390f35b6103796004803603604081101561036357600080610360613eb6565b50505b506001600160a01b0381351690602001356109bf565b604051901515815260200160405180910390f35b6103bc600480360360208110156103ac576000806103a9613eb6565b50505b50356001600160a01b0316610abd565b005b6103bc600480360360208110156103dd576000806103da613eb6565b50505b50356001600160a01b0316610afb565b6103f5610b75565b60405190815260200160405180910390f35b6103f5610b82565b6103bc6004803603602081101561042e5760008061042b613eb6565b50505b50356001600160a01b0316610b8c565b6103796004803603606081101561045d5760008061045a613eb6565b50505b506001600160a01b03813581169160208101359091169060400135610c6b565b610485610c92565b60405160ff909116815260200160405180910390f35b610485610c97565b6103bc610cb0565b6103bc600480360360208110156104ca576000806104c7613eb6565b50505b50356001600160a01b0316610d21565b6102a9610eec565b61037960048036036020811015610501576000806104fe613eb6565b50505b50356001600160a01b0316610ef8565b6103f5600480360360208110156105305760008061052d613eb6565b50505b50356001600160a01b03166110d5565b6103bc6111a7565b6103f561132a565b6103bc6004803603604081101561056f5760008061056c613eb6565b50505b506001600160a01b038135169060200135611334565b6102a9611412565b6102cd61141d565b6103bc600480360360208110156105b4576000806105b1613eb6565b50505b50356001600160a01b03166114bf565b6103bc61153a565b6102a961167d565b6103bc600480360360408110156105f3576000806105f0613eb6565b50505b506001600160a01b038135169060200135611689565b6103bc6004803603602081101561062857600080610625613eb6565b50505b50356001600160a01b0316611768565b6103f56117af565b6103796004803603604081101561065f5760008061065c613eb6565b50505b506001600160a01b0381351690602001356117b6565b61067d61187b565b604051808261030080838360005b838110156106a357808201518382015260200161068b565b5050505090500191505060405180910390f35b6103bc600480360360208110156106d5576000806106d2613eb6565b50505b8101906020810181356401000000008111156106f9576000806106f6613eb6565b50505b82018360208201111561071457600080610711613eb6565b50505b8035906020019184602083028401116401000000008311171561073f5760008061073c613eb6565b50505b5090925090506118dd565b6103796004803603604081101561076957600080610766613eb6565b50505b506001600160a01b038135169060200135611cd5565b610379611f05565b6103bc600480360360208110156107a6576000806107a3613eb6565b50505b50356001600160a01b0316611f11565b6103bc611f27565b6102a9611fa9565b6103f5600480360360208110156107e5576000806107e2613eb6565b50505b5035611fb5565b6102a9611fdd565b6103f5611fe9565b6103f56004803603604081101561081b57600080610818613eb6565b50505b506001600160a01b0381358116916020013516611ff3565b6103f56120ce565b6103796004803603606081101561085a57600080610857613eb6565b50505b506001600160a01b038135811691602081013590911690604001356120d3565b6102a96122bb565b6102a96122c7565b6102a96122df565b6103bc600480360360208110156108b1576000806108ae613eb6565b50505b50356122eb565b6103f5600480360360208110156108d7576000806108d4613eb6565b50505b50356001600160a01b03166122ff565b6001600b6108f3613f21565b906101000a90046001600160a01b031681565b600880610911613f21565b600181600116156101000203166002900480601f01602080910402602001604051908101604052818152919060208301828061094b613f21565b600181600116156101000203166002900480156109b75780601f10610985576101008083610977613f21565b0402835291602001916109b7565b820191906000526020600020905b8161099c613f21565b8152906001019060200180831161099357829003601f168201915b505050505081565b60006109c96124db565b60008060066109d6613f21565b906101000a90046001600160a01b0316905060076000906109f5613f21565b906101000a90046001600160a01b03166001600160a01b031663da46098c8286866040516001600160e01b031960e086901b1681526001600160a01b039384166004820152919092166024820152604481019190915260640160006040518083038160008780610a63613f7c565b158015610a7857600080610a75613eb6565b50505b505a610a82613fc8565b505050505050158015610aa2573d6000803e3d6000610a9f613eb6565b50505b50505050610ab18185856125b3565b60019150505b92915050565b610ac561272c565b806005600181610ad3613f21565b816001600160a01b0302191690836001600160a01b0316021790610af5614081565b50505050565b610b0361272c565b8060018080610b10613f21565b816001600160a01b0302191690836001600160a01b0316021790610b32614081565b5050507f906a1c6bd7e3091ea86693dd029a831c19049ce77f1dce2ce0bab1cacbabce22816040516001600160a01b03909116815260200160405180910390a150565b6002610b7f613f21565b81565b600a610b7f613f21565b610b9461272c565b6001600160a01b038116610bf75760405162461bcd60e51b815260206004820152601c60248201527f42656e6566696369617279206d757374206e6f74206265207a65726f00000000604482015260640160405180910390610bf4613eb6565b50505b80600361010081610c06613f21565b816001600160a01b0302191690836001600160a01b0316021790610c28614081565b5050507fd5da63a0b864b315bc04128dedbc93888c8529ee6cf47ce664dc204339228c53816040516001600160a01b03909116815260200160405180910390a150565b6000610c756124db565b610c7f84836127a4565b610c8a848484612998565b949350505050565b601281565b6000600b610ca3613f21565b906101000a900460ff1681565b610cb861272c565b6000806002610cc5614081565b5050506000600360006101000a81610cdb613f21565b8160ff02191690831515021790610cf0614081565b5050507f6adcc7125002935e0aa31697538ebbd65cfddf20431eb6ecdcfc3e238bfd082c60405160405180910390a1565b610d2961272c565b80600b61010081610d38613f21565b816001600160a01b0302191690836001600160a01b0316021790610d5a614081565b5060009150505b600d80610d6c613f21565b9050811015610ee8576000600d8281610d83613f21565b8110610d8b57fe5b90600052602060002001610d9d613f21565b90506001600b610dab613f21565b906101000a90046001600160a01b03166001600160a01b031663dacb2d01826040516001600160e01b031960e084901b1681526004810191909152604060248201819052601760448301527f5265736f6c766572206d697373696e6720746172676574000000000000000000606483015260849091019060209051808303818680610e34613f7c565b158015610e4957600080610e46613eb6565b50505b505a610e536140cf565b5050505050158015610e72573d6000803e3d6000610e6f613eb6565b50505b505050506040513d6020811015610e9157600080610e8e613eb6565b50505b8101908080516000858152600c60205290935060409250905020600181610eb6613f21565b816001600160a01b0302191690836001600160a01b0316021790610ed8614081565b505060019092019150610d619050565b5050565b600060016108f3613f21565b60006001600160a01b0382166001600b610f10613f21565b906101000a90046001600160a01b03166001600160a01b031614610f36575060006110d0565b60005b600d80610f44613f21565b90508110156110ca576000600d8281610f5b613f21565b8110610f6357fe5b90600052602060002001610f75613f21565b6000818152600c60205290915060409020600090610f91613f21565b6001600160a01b036101009290920a9004166001600b610faf613f21565b906101000a90046001600160a01b03166001600160a01b03166321f8a721836040516001600160e01b031960e084901b16815260048101919091526024016020604051808303818680611000613f7c565b15801561101557600080611012613eb6565b50505b505a61101f6140cf565b505050505015801561103e573d6000803e3d600061103b613eb6565b50505b505050506040513d602081101561105d5760008061105a613eb6565b50505b8101908080516001600160a01b0316939093141592508291506110b1905057506000818152600c60205260408120600090611096613f21565b906101000a90046001600160a01b03166001600160a01b0316145b156110c1576000925050506110d0565b50600101610f39565b50600190505b919050565b60008060076110e2613f21565b906101000a90046001600160a01b03166001600160a01b03166370a08231836040516001600160e01b031960e084901b1681526001600160a01b039091166004820152602401602060405180830381868061113b613f7c565b1580156111505760008061114d613eb6565b50505b505a61115a6140cf565b5050505050158015611179573d6000803e3d6000611176613eb6565b50505b505050506040513d602081101561119857600080611195613eb6565b50505b81019080805195945050505050565b600060016111b3613f21565b906101000a90046001600160a01b03166001600160a01b03165a6111d5614188565b6001600160a01b0316146112235760405162461bcd60e51b81526004018080602001828103825260358152602001806142326035913960400191505060405180910390611220613eb6565b50505b7fb532073b38c83145e3e5135377a08bf9aab55bc0fd7c1179cd4fb995d2a5159c60008061124f613f21565b906101000a90046001600160a01b0316600160009061126c613f21565b906101000a90046001600160a01b03166040516001600160a01b039283168152911660208201526040908101905180910390a1600060016112ab613f21565b906101000a90046001600160a01b03166000806101000a816112cb613f21565b816001600160a01b0302191690836001600160a01b03160217906112ed614081565b5050506000600160006101000a81611303613f21565b816001600160a01b0302191690836001600160a01b0316021790611325614081565b505050565b6027610b7f613f21565b600061133e612c63565b6001600160a01b03165a611350614188565b6001600160a01b03161490506000611366612cb1565b6001600160a01b03165a611378614188565b6001600160a01b0316149050600061138e612cfc565b6001600160a01b03165a6113a0614188565b6001600160a01b031614905082806113b55750815b806113bd5750805b6114015760405162461bcd60e51b815260040180806020018281038252603381526020018061429660339139604001915050604051809103906113fe613eb6565b50505b61140b8585612d3d565b5050505050565b6000806108f3613f21565b600980611428613f21565b600181600116156101000203166002900480601f016020809104026020016040519081016040528181529190602083018280611462613f21565b600181600116156101000203166002900480156109b75780601f1061148e576101008083610977613f21565b820191906000526020600020905b816114a5613f21565b8152906001019060200180831161149c5750859350505050565b6114c761272c565b8060046001816114d5613f21565b816001600160a01b0302191690836001600160a01b03160217906114f7614081565b5050507ffc80377ca9c49cc11ae6982f390a42db976d5530af7c43889264b13fbbd7c57e816040516001600160a01b03909116815260200160405180910390a150565b61154261272c565b6000600361154e613f21565b906101000a900460ff166115b15760405162461bcd60e51b815260206004820152601f60248201527f53656c66204465737472756374206e6f742079657420696e69746961746564006044820152606401604051809103906115ae613eb6565b50505b5a6115ba6141ce565b6224ea0060026115c8613f21565b01106116235760405162461bcd60e51b815260206004820152601b60248201527f53656c662064657374727563742064656c6179206e6f74206d65740000000000604482015260640160405180910390611620613eb6565b50505b7f8a09e1677ced846cb537dc2b172043bd05a1a81ad7e0033a7ef8ba762df990b760016003611650613f21565b906101000a90046001600160a01b03166040516001600160a01b03909116815260200160405180910390a1565b600060056108f3613f21565b6000611693612c63565b6001600160a01b03165a6116a5614188565b6001600160a01b031614905060006116bb612cb1565b6001600160a01b03165a6116cd614188565b6001600160a01b031614905060006116e3612cfc565b6001600160a01b03165a6116f5614188565b6001600160a01b0316149050828061170a5750815b806117125750805b6117565760405162461bcd60e51b81526004018080602001828103825260338152602001806142966033913960400191505060405180910390611753613eb6565b50505b6117608585612f00565b505050505050565b611770613059565b80600760018161177e613f21565b816001600160a01b0302191690836001600160a01b03160217906117a0614081565b5050506117ac816131e4565b50565b6224ea0081565b60006117c06124db565b6117e5600060066117cf613f21565b906101000a90046001600160a01b0316836127a4565b6001600160a01b03831673feefeefeefeefeefeefeefeefeefeefeefeefeef141561181b576118148383613368565b9050610ab7565b6001600160a01b03831661184e5761181460006006611838613f21565b906101000a90046001600160a01b031683612f00565b6118746000600661185d613f21565b906101000a90046001600160a01b03168484613566565b9392505050565b611883614214565b60005b600d80611891613f21565b90508110156118d957600d81816118a6613f21565b81106118ae57fe5b906000526020600020016118c0613f21565b8282601881106118cc57fe5b6020020152600101611886565b5090565b6118e5613059565b60006118ef6138b4565b90506000816001600160a01b031663654a60ac602761190c613f21565b600e611916613f21565b6040516001600160e01b031960e085901b168152631cd554d160e21b600482015260248101929092526044820152606401602060405180830381868061195a613f7c565b15801561196f5760008061196c613eb6565b50505b505a6119796140cf565b5050505050158015611998573d6000803e3d6000611995613eb6565b50505b505050506040513d60208110156119b7576000806119b4613eb6565b50505b8101908080519350839250600a91506119d09050613f21565b111580611a8b5750816001600160a01b031663af3aea86600e6119f1613f21565b6040516001600160e01b031960e084901b16815260048101919091526024016020604051808303818680611a23613f7c565b158015611a3857600080611a35613eb6565b50505b505a611a426140cf565b5050505050158015611a61573d6000803e3d6000611a5e613eb6565b50505b505050506040513d6020811015611a8057600080611a7d613eb6565b50505b810190808051925050505b611acf5760405162461bcd60e51b815260040180806020018281038252604781526020018061435f6047913960600191505060405180910390611acc613eb6565b50505b60005b8381101561140b576000858583818110611ae857fe5b905060200201356001600160a01b0316905060006007600090611b09613f21565b906101000a90046001600160a01b03166001600160a01b03166370a08231836040516001600160e01b031960e084901b1681526001600160a01b0390911660048201526024016020604051808303818680611b62613f7c565b158015611b7757600080611b74613eb6565b50505b505a611b816140cf565b5050505050158015611ba0573d6000803e3d6000611b9d613eb6565b50505b505050506040513d6020811015611bbf57600080611bbc613eb6565b50505b81019080805193505082159150611ccb905057611bda612cb1565b6001600160a01b0316630a1e187d83600e611bf3613f21565b84866040516001600160e01b031960e087901b1681526001600160a01b03948516600482015260248101939093526044830191909152631cd554d160e21b6064830152909116608482015260a40160206040518083038160008780611c56613f7c565b158015611c6b57600080611c68613eb6565b50505b505a611c75613fc8565b505050505050158015611c95573d6000803e3d6000611c92613eb6565b50505b505050506040513d6020811015611cb457600080611cb1613eb6565b50505b81019080805150611ccb9250849150839050613903565b5050600101611ad2565b6000611cdf6124db565b6000611ce9612cb1565b6001600160a01b0316631b16802c60006006611d03613f21565b906101000a90046001600160a01b0316600e611d1d613f21565b6040516001600160e01b031960e085901b1681526001600160a01b039092166004830152602482015260440160606040518083038160008780611d5e613f7c565b158015611d7357600080611d70613eb6565b50505b505a611d7d613fc8565b505050505050158015611d9d573d6000803e3d6000611d9a613eb6565b50505b505050506040513d6060811015611dbc57600080611db9613eb6565b50505b8101908080519291906020018051929190602001805195508794505084159250611ec59150505760006007611def613f21565b6001600160a01b036101009290920a9004166370a0823160006006611e12613f21565b906101000a90046001600160a01b03166040516001600160e01b031960e084901b1681526001600160a01b0390911660048201526024016020604051808303818680611e5c613f7c565b158015611e7157600080611e6e613eb6565b50505b505a611e7b6140cf565b5050505050158015611e9a573d6000803e3d6000611e97613eb6565b50505b505050506040513d6020811015611eb957600080611eb6613eb6565b50505b81019080805193505050505b808411611ed25783611ed4565b805b9350611efc60006006611ee5613f21565b906101000a90046001600160a01b03168686613566565b95945050505050565b60006003610ca3613f21565b611f19613a84565b806006600181610ad3613f21565b611f2f61272c565b5a611f386141ce565b806002611f43614081565b5050506001600360006101000a81611f59613f21565b8160ff02191690831515021790611f6e614081565b5050507fcbd94ca75b8dc45c9d80c77e851670e78843c0d75180cb81db3e2158228fa9a66224ea0060405190815260200160405180910390a1565b600160036108f3613f21565b600d8181611fc1613f21565b8110611fc957fe5b906000526020600020019050610b7f613f21565b600060066108f3613f21565b600e610b7f613f21565b6000806007612000613f21565b906101000a90046001600160a01b03166001600160a01b031663dd62ed3e84846040516001600160e01b031960e085901b1681526001600160a01b039283166004820152911660248201526044016020604051808303818680612061613f7c565b15801561207657600080612073613eb6565b50505b505a6120806140cf565b505050505015801561209f573d6000803e3d600061209c613eb6565b50505b505050506040513d60208110156120be576000806120bb613eb6565b50505b8101908080519695505050505050565b601881565b60006120dd6124db565b60006120e7612cb1565b6001600160a01b0316631b16802c86600e612100613f21565b6040516001600160e01b031960e085901b1681526001600160a01b039092166004830152602482015260440160606040518083038160008780612141613f7c565b15801561215657600080612153613eb6565b50505b505a612160613fc8565b505050505050158015612180573d6000803e3d600061217d613eb6565b50505b505050506040513d606081101561219f5760008061219c613eb6565b50505b810190808051929190602001805192919060200180519550879450508415925061229491505057600060076121d2613f21565b906101000a90046001600160a01b03166001600160a01b03166370a08231876040516001600160e01b031960e084901b1681526001600160a01b039091166004820152602401602060405180830381868061222b613f7c565b1580156122405760008061223d613eb6565b50505b505a61224a6140cf565b5050505050158015612269573d6000803e3d6000612266613eb6565b50505b505050506040513d602081101561228857600080612285613eb6565b50505b81019080805193505050505b808410156122a257836122a4565b805b93506122b1868686612998565b9695505050505050565b600060076108f3613f21565b73feefeefeefeefeefeefeefeefeefeefeefeefeef81565b600060046108f3613f21565b6122f3613059565b8080600a610af5614081565b60008061230a612cb1565b6001600160a01b03166319d5c66584600e612323613f21565b6040516001600160e01b031960e085901b1681526001600160a01b03909216600483015260248201526044016060604051808303818680612362613f7c565b15801561237757600080612374613eb6565b50505b505a6123816140cf565b50505050501580156123a0573d6000803e3d600061239d613eb6565b50505b505050506040513d60608110156123bf576000806123bc613eb6565b50505b810190808051929190602001805192919060200180515093945060009350839250600791506123ee9050613f21565b906101000a90046001600160a01b03166001600160a01b03166370a08231856040516001600160e01b031960e084901b1681526001600160a01b0390911660048201526024016020604051808303818680612447613f7c565b15801561245c57600080612459613eb6565b50505b505a6124666140cf565b5050505050158015612485573d6000803e3d6000612482613eb6565b50505b505050506040513d60208110156124a4576000806124a1613eb6565b50505b8101908080519350505050808211156124c2576000925050506110d0565b6124d2818363ffffffff613b5116565b925050506110d0565b600060046124e7613f21565b906101000a90046001600160a01b03166001600160a01b03165a612509614188565b6001600160a01b031614158015612555575060006005612527613f21565b906101000a90046001600160a01b03166001600160a01b03165a612549614188565b6001600160a01b031614155b801561259657505a612565614188565b6001600160a01b03166000600661257a613f21565b906101000a90046001600160a01b03166001600160a01b031614155b156125b1575a6125a4614188565b6006600181611303613f21565b565b600060046125bf613f21565b906101000a90046001600160a01b03166001600160a01b031663907dff97826040516020018082815260200191505060405160208183030381529060405260036040518060216142f882396021019050604051809103902061262088613bb6565b61262988613bb6565b60006040518763ffffffff1660e01b815260040180806020018781526020018681526020018581526020018481526020018360001b8152602001828103825288818151815260200191508051906020019080838360005b83811015612698578082015183820152602001612680565b50505050905090810190601f1680156126c55780820380516001836020036101000a031916815260200191505b50975050505050505050600060405180830381600087806126e4613f7c565b1580156126f9576000806126f6613eb6565b50505b505a612703613fc8565b505050505050158015612723573d6000803e3d6000612720613eb6565b50505b50505050505050565b600080612737613f21565b906101000a90046001600160a01b03166001600160a01b03165a612759614188565b6001600160a01b0316146125b15760405162461bcd60e51b815260040180806020018281038252602f8152602001806142c9602f913960400191505060405180910390610ee8613eb6565b6127ac612cb1565b6001600160a01b031663059c29ec83600e6127c5613f21565b6040516001600160e01b031960e085901b1681526001600160a01b03909216600483015260248201526044016020604051808303818680612804613f7c565b15801561281957600080612816613eb6565b50505b505a6128236140cf565b5050505050158015612842573d6000803e3d600061283f613eb6565b50505b505050506040513d60208110156128615760008061285e613eb6565b50505b8101908080511592506128b19150505760405162461bcd60e51b815260040180806020018281038252602581526020018061431960259139604001915050604051809103906128ae613eb6565b50505b806128bb836122ff565b10156129015760405162461bcd60e51b815260040180806020018281038252602f815260200180614267602f9139604001915050604051809103906128fe613eb6565b50505b612909613bc2565b6001600160a01b03166342a28e21600e612921613f21565b6040516001600160e01b031960e084901b16815260048101919091526024016000604051808303818680612953613f7c565b15801561296857600080612965613eb6565b50505b505a6129726140cf565b5050505050158015611760573d6000803e3d600061298e613eb6565b5050505050505050565b60006000198160076129a8613f21565b6001600160a01b036101009290920a90041663dd62ed3e86600060066129cc613f21565b906101000a90046001600160a01b03166040516001600160e01b031960e085901b1681526001600160a01b039283166004820152911660248201526044016020604051808303818680612a1d613f7c565b158015612a3257600080612a2f613eb6565b50505b505a612a3c6140cf565b5050505050158015612a5b573d6000803e3d6000612a58613eb6565b50505b505050506040513d6020811015612a7a57600080612a77613eb6565b50505b810190808051939093149250612c589150505760006007612a99613f21565b6001600160a01b036101009290920a90041663da46098c8560006006612abd613f21565b906101000a90046001600160a01b0316612bc7866007600090612ade613f21565b6001600160a01b036101009290920a90041663dd62ed3e8b60006006612b02613f21565b906101000a90046001600160a01b03166040516001600160e01b031960e085901b1681526001600160a01b039283166004820152911660248201526044016020604051808303818680612b53613f7c565b158015612b6857600080612b65613eb6565b50505b505a612b726140cf565b5050505050158015612b91573d6000803e3d6000612b8e613eb6565b50505b505050506040513d6020811015612bb057600080612bad613eb6565b50505b8101908080519392505063ffffffff613b51169050565b6040516001600160e01b031960e086901b1681526001600160a01b039384166004820152919092166024820152604481019190915260640160006040518083038160008780612c14613f7c565b158015612c2957600080612c26613eb6565b50505b505a612c33613fc8565b505050505050158015612c53573d6000803e3d6000612c50613eb6565b50505b505050505b610c8a848484613566565b6000612cac66119959541bdbdb60ca1b60405160408082019052601781527f4d697373696e6720466565506f6f6c20616464726573730000000000000000006020820152613c0c565b905090565b6000612cac6822bc31b430b733b2b960b91b60405160408082019052601981527f4d697373696e672045786368616e6765722061646472657373000000000000006020820152613c0c565b6000612cac6524b9b9bab2b960d11b6040516040808201905260168152754d697373696e6720497373756572206164647265737360501b6020820152613c0c565b60006007612d49613f21565b6001600160a01b036101009290920a90041663b46310f683612e3e8460006007612d71613f21565b906101000a90046001600160a01b03166001600160a01b03166370a08231886040516001600160e01b031960e084901b1681526001600160a01b0390911660048201526024016020604051808303818680612dca613f7c565b158015612ddf57600080612ddc613eb6565b50505b505a612de96140cf565b5050505050158015612e08573d6000803e3d6000612e05613eb6565b50505b505050506040513d6020811015612e2757600080612e24613eb6565b50505b8101908080519392505063ffffffff613cd5169050565b6040516001600160e01b031960e085901b1681526001600160a01b039092166004830152602482015260440160006040518083038160008780612e7f613f7c565b158015612e9457600080612e91613eb6565b50505b505a612e9e613fc8565b505050505050158015612ebe573d6000803e3d6000612ebb613eb6565b50505b50505050612edc81600a612ed0613f21565b9063ffffffff613cd516565b80600a612ee7614081565b505050612ef660008383613d3d565b610ee88282613daa565b6000806007612f0d613f21565b6001600160a01b036101009290920a90041663b46310f684612f8e8560006007612f35613f21565b906101000a90046001600160a01b03166001600160a01b03166370a08231896040516001600160e01b031960e084901b1681526001600160a01b0390911660048201526024016020604051808303818680612b53613f7c565b6040516001600160e01b031960e085901b1681526001600160a01b039092166004830152602482015260440160006040518083038160008780612fcf613f7c565b158015612fe457600080612fe1613eb6565b50505b505a612fee613fc8565b50505050505015801561300e573d6000803e3d600061300b613eb6565b50505b5050505061302c82600a613020613f21565b9063ffffffff613b5116565b80600a613037614081565b50505061304683600084613d3d565b6130508383613e30565b50600192915050565b60006004613065613f21565b906101000a90046001600160a01b03166001600160a01b03165a613087614188565b6001600160a01b0316141580156130d35750600060056130a5613f21565b906101000a90046001600160a01b03166001600160a01b03165a6130c7614188565b6001600160a01b031614155b801561311457505a6130e3614188565b6001600160a01b0316600060066130f8613f21565b906101000a90046001600160a01b03166001600160a01b031614155b15613155575a613122614188565b600660018161312f613f21565b816001600160a01b0302191690836001600160a01b0316021790613151614081565b5050505b600080613160613f21565b6001600160a01b036101009290920a9004166000600661317e613f21565b906101000a90046001600160a01b03166001600160a01b0316146125b15760405162461bcd60e51b815260206004820152601360248201527227bbb732b91037b7363c90333ab731ba34b7b760691b604482015260640160405180910390610ee8613eb6565b600060046131f0613f21565b906101000a90046001600160a01b03166001600160a01b031663907dff97826040516001600160a01b0390911660208201526040908101905160208183030381529060405260016040517f546f6b656e5374617465557064617465642861646472657373290000000000008152601a01604051809103902060008060006040518763ffffffff1660e01b815260040180806020018781526020018681526020018560001b81526020018460001b81526020018360001b8152602001828103825288818151815260200191508051906020019080838360005b838110156132e05780820151838201526020016132c8565b50505050905090810190601f16801561330d5780820380516001836020036101000a031916815260200191505b509750505050505050506000604051808303816000878061332c613f7c565b1580156133415760008061333e613eb6565b50505b505a61334b613fc8565b50505050505015801561140b573d6000803e3d6000612723613eb6565b600080600e613375613f21565b631cd554d160e21b14156133b15750816133ab60006006613394613f21565b906101000a90046001600160a01b03168585613566565b506134ce565b6133b9612cb1565b6001600160a01b0316630a1e187d600060066133d3613f21565b906101000a90046001600160a01b0316600e6133ed613f21565b8673feefeefeefeefeefeefeefeefeefeefeefeefeef6040516001600160e01b031960e087901b1681526001600160a01b03948516600482015260248101939093526044830191909152631cd554d160e21b6064830152909116608482015260a40160206040518083038160008780613464613f7c565b15801561347957600080613476613eb6565b50505b505a613483613fc8565b5050505050501580156134a3573d6000803e3d60006134a0613eb6565b50505b505050506040513d60208110156134c2576000806134bf613eb6565b50505b81019080805193505050505b6134d6612c63565b6001600160a01b03166322bf55ef826040516001600160e01b031960e084901b168152600481019190915260240160006040518083038160008780613519613f7c565b15801561352e5760008061352b613eb6565b50505b505a613538613fc8565b505050505050158015613558573d6000803e3d6000613555613eb6565b50505b506001979650505050505050565b60006001600160a01b038316158015906135ea57505a63996d79a5598160e01b8152602081600483336000905af158600e01573d6000803e3d6000fd5b3d6001141558600a015760016000f35b8051925060005b60408110156135d1576000828201526020016135ba565b5050506001600160a01b0316836001600160a01b031614155b80156136235750600060046135fd613f21565b906101000a90046001600160a01b03166001600160a01b0316836001600160a01b031614155b61367c5760405162461bcd60e51b815260206004820152601f60248201527f43616e6e6f74207472616e7366657220746f2074686973206164647265737300604482015260640160405180910390613679613eb6565b50505b60006007613688613f21565b6001600160a01b036101009290920a90041663b46310f68561370985600060076136b0613f21565b906101000a90046001600160a01b03166001600160a01b03166370a082318a6040516001600160e01b031960e084901b1681526001600160a01b0390911660048201526024016020604051808303818680612b53613f7c565b6040516001600160e01b031960e085901b1681526001600160a01b03909216600483015260248201526044016000604051808303816000878061374a613f7c565b15801561375f5760008061375c613eb6565b50505b505a613769613fc8565b505050505050158015613789573d6000803e3d6000613786613eb6565b50505b50505050600760009061379a613f21565b6001600160a01b036101009290920a90041663b46310f68461381b85600060076137c2613f21565b906101000a90046001600160a01b03166001600160a01b03166370a08231896040516001600160e01b031960e084901b1681526001600160a01b0390911660048201526024016020604051808303818680612dca613f7c565b6040516001600160e01b031960e085901b1681526001600160a01b03909216600483015260248201526044016000604051808303816000878061385c613f7c565b1580156138715760008061386e613eb6565b50505b505a61387b613fc8565b50505050505015801561389b573d6000803e3d6000613898613eb6565b50505b505050506138aa848484613d3d565b5060019392505050565b6000612cac6c45786368616e6765526174657360981b60405160408082019052601d81527f4d697373696e672045786368616e6765526174657320616464726573730000006020820152613c0c565b6000600461390f613f21565b906101000a90046001600160a01b03166001600160a01b031663907dff97826040516020018082815260200191505060405160208183030381529060405260026040517f50757267656428616464726573732c75696e74323536290000000000000000008152601701604051809103902061398987613bb6565b6000806040518763ffffffff1660e01b815260040180806020018781526020018681526020018581526020018460001b81526020018360001b8152602001828103825288818151815260200191508051906020019080838360005b838110156139fc5780820151838201526020016139e4565b50505050905090810190601f168015613a295780820380516001836020036101000a031916815260200191505b5097505050505050505060006040518083038160008780613a48613f7c565b158015613a5d57600080613a5a613eb6565b50505b505a613a67613fc8565b505050505050158015611760573d6000803e3d600061298e613eb6565b60006004613a90613f21565b906101000a90046001600160a01b03166001600160a01b03165a613ab2614188565b6001600160a01b03161480613afb575060006005613ace613f21565b906101000a90046001600160a01b03166001600160a01b03165a613af0614188565b6001600160a01b0316145b6125b15760405162461bcd60e51b815260206004820152601760248201527f4f6e6c79207468652070726f78792063616e2063616c6c000000000000000000604482015260640160405180910390610ee8613eb6565b600082821115613bb05760405162461bcd60e51b815260206004820152601e60248201527f536166654d6174683a207375627472616374696f6e206f766572666c6f770000604482015260640160405180910390613bad613eb6565b50505b50900390565b6001600160a01b031690565b6000612cac6b53797374656d53746174757360a01b60405160408082019052601c81527f4d697373696e672053797374656d53746174757320616464726573730000000060208201525b6000828152600c6020528060408120600090613c26613f21565b6001600160a01b036101009290920a90041690508281613ccd5760405162461bcd60e51b81526004018080602001828103825283818151815260200191508051906020019080838360005b83811015613c89578082015183820152602001613c71565b50505050905090810190601f168015613cb65780820380516001836020036101000a031916815260200191505b509250505060405180910390613cca613eb6565b50505b509392505050565b6000828201838110156118745760405162461bcd60e51b815260206004820152601b60248201527f536166654d6174683a206164646974696f6e206f766572666c6f770000000000604482015260640160405180910390613d34613eb6565b50509392505050565b60006004613d49613f21565b906101000a90046001600160a01b03166001600160a01b031663907dff978260405160200180828152602001915050604051602081830303815290604052600360405180602161433e82396021019050604051809103902061262088613bb6565b60006004613db6613f21565b906101000a90046001600160a01b03166001600160a01b031663907dff97826040516020018082815260200191505060405160208183030381529060405260026040517f49737375656428616464726573732c75696e74323536290000000000000000008152601701604051809103902061398987613bb6565b60006004613e3c613f21565b906101000a90046001600160a01b03166001600160a01b031663907dff97826040516020018082815260200191505060405160208183030381529060405260026040517f4275726e656428616464726573732c75696e74323536290000000000000000008152601701604051809103902061398987613bb6565b632a2a7adb598160e01b8152600481016020815285602082015260005b86811015613eee578086015182820160400152602001613ed3565b506020828760640184336000905af158600e01573d6000803e3d6000fd5b3d6001141558600a015760016000f35b505050565b6303daa959598160e01b8152836004820152602081602483336000905af158600e01573d6000803e3d6000fd5b3d6001141558600a015760016000f35b8051935060005b604081101561132557600082820152602001613f65565b638435035b598160e01b8152836004820152602081602483336000905af158600e01573d6000803e3d6000fd5b3d6001141558600a015760016000f35b80516000825293506020613f65565b6385979f76598160e01b8152836004820152846024820152606060448201528760648201526084810160005b8981101561400c578089015182820152602001613ff4565b50886101040182016060838b6101040185336000905af158600e01573d6000803e3d6000fd5b3d6001141558600a015760016000f35b825160408401513d6000863e8d8d82606088013350600060045af15059855b818110156140755760008152602001614061565b50919d50505050505050565b6322bd64c0598160e01b8152836004820152846024820152600081604483336000905af158600e01573d6000803e3d6000fd5b3d6001141558600a015760016000f35b600081526020613f65565b638540661f598160e01b8152836004820152846024820152606060448201528660648201526084810160005b888110156141135780880151828201526020016140fb565b50876101040182016060838a6101040185336000905af158600e01573d6000803e3d6000fd5b3d6001141558600a015760016000f35b825160408401513d6000863e8c8c82606088013350600060045af15059855b8181101561417c5760008152602001614168565b50919c50505050505050565b6373509064598160e01b8152602081600483336000905af158600e01573d6000803e3d6000fd5b3d6001141558600a015760016000f35b80516000825293506020613f65565b63bdbf8c36598160e01b8152602081600483336000905af158600e01573d6000803e3d6000fd5b3d6001141558600a015760016000f35b80516000825293506020613f65565b60405161030080820160405260189082908038833950919291505056fe596f75206d757374206265206e6f6d696e61746564206265666f726520796f752063616e20616363657074206f776e657273686970496e73756666696369656e742062616c616e636520616674657220616e7920736574746c656d656e74206f77696e674f6e6c7920466565506f6f6c2c2045786368616e676572206f722049737375657220636f6e74726163747320616c6c6f7765644f6e6c792074686520636f6e7472616374206f776e6572206d617920706572666f726d207468697320616374696f6e417070726f76616c28616464726573732c616464726573732c75696e743235362943616e6e6f74207472616e7366657220647572696e672077616974696e6720706572696f645472616e7366657228616464726573732c616464726573732c75696e743235362943616e6e6f7420707572676520617320746f74616c20737570706c792069732061626f7665207468726573686f6c6420616e642072617465206973206e6f742066726f7a656e2e",
			"opcodes": "PUSH1 0x80 PUSH1 0x40 MSTORE PUSH1 0x40 MLOAD PUSH1 0x80 DUP2 ADD PUSH1 0x40 SWAP1 DUP2 MSTORE PUSH12 0x53797374656D537461747573 PUSH1 0xA0 SHL DUP3 MSTORE PUSH9 0x22BC31B430B733B2B9 PUSH1 0xB9 SHL PUSH1 0x20 DUP4 ADD MSTORE PUSH6 0x24B9B9BAB2B9 PUSH1 0xD1 SHL SWAP1 DUP3 ADD MSTORE PUSH7 0x119959541BDBDB PUSH1 0xCA SHL PUSH1 0x60 DUP3 ADD MSTORE PUSH3 0x62 SWAP1 PUSH1 0xF SWAP1 PUSH1 0x4 PUSH3 0xB68 JUMP JUMPDEST POP PUSH20 0x0 PUSH4 0x907AF6C0 PUSH1 0x40 MLOAD DUP2 PUSH4 0xFFFFFFFF AND PUSH1 0xE0 SHL DUP2 MSTORE PUSH1 0x4 ADD PUSH1 0x20 PUSH1 0x40 MLOAD DUP1 DUP4 SUB DUP2 DUP7 DUP1 PUSH3 0xA4 PUSH3 0xBB6 JUMP JUMPDEST ISZERO DUP1 ISZERO PUSH3 0xBC JUMPI PUSH1 0x0 DUP1 PUSH3 0xB9 PUSH3 0xC18 JUMP JUMPDEST POP POP JUMPDEST POP GAS PUSH3 0xC8 PUSH3 0xC85 JUMP JUMPDEST POP POP POP POP POP ISZERO DUP1 ISZERO PUSH3 0xEA JUMPI RETURNDATASIZE PUSH1 0x0 DUP1 RETURNDATACOPY RETURNDATASIZE PUSH1 0x0 PUSH3 0xE7 PUSH3 0xC18 JUMP JUMPDEST POP POP JUMPDEST POP POP POP POP PUSH1 0x40 MLOAD RETURNDATASIZE PUSH1 0x20 DUP2 LT ISZERO PUSH3 0x10C JUMPI PUSH1 0x0 DUP1 PUSH3 0x109 PUSH3 0xC18 JUMP JUMPDEST POP POP JUMPDEST DUP2 ADD SWAP1 DUP1 DUP1 MLOAD PUSH3 0x186A0 MUL SWAP3 POP PUSH1 0x27 SWAP2 POP PUSH3 0x129 SWAP1 POP PUSH3 0xD42 JUMP JUMPDEST POP POP CALLVALUE DUP1 ISZERO PUSH3 0x143 JUMPI PUSH1 0x0 DUP1 PUSH3 0x140 PUSH3 0xC18 JUMP JUMPDEST POP POP JUMPDEST POP PUSH1 0x40 MLOAD PUSH3 0x52DB CODESIZE SUB DUP1 PUSH3 0x52DB DUP4 CODECOPY DUP2 DUP2 ADD PUSH1 0x40 MSTORE PUSH2 0x100 DUP2 LT ISZERO PUSH3 0x175 JUMPI PUSH1 0x0 DUP1 PUSH3 0x172 PUSH3 0xC18 JUMP JUMPDEST POP POP JUMPDEST DUP2 ADD SWAP1 DUP1 DUP1 MLOAD SWAP3 SWAP2 SWAP1 PUSH1 0x20 ADD DUP1 MLOAD SWAP3 SWAP2 SWAP1 PUSH1 0x20 ADD DUP1 MLOAD PUSH1 0x40 MLOAD SWAP4 SWAP3 SWAP2 SWAP1 DUP5 PUSH5 0x100000000 DUP3 GT ISZERO PUSH3 0x1B1 JUMPI PUSH1 0x0 DUP1 PUSH3 0x1AE PUSH3 0xC18 JUMP JUMPDEST POP POP JUMPDEST SWAP1 DUP4 ADD SWAP1 PUSH1 0x20 DUP3 ADD DUP6 DUP2 GT ISZERO PUSH3 0x1D2 JUMPI PUSH1 0x0 DUP1 PUSH3 0x1CF PUSH3 0xC18 JUMP JUMPDEST POP POP JUMPDEST DUP3 MLOAD PUSH5 0x100000000 DUP2 GT DUP3 DUP3 ADD DUP9 LT OR ISZERO PUSH3 0x1F8 JUMPI PUSH1 0x0 DUP1 PUSH3 0x1F5 PUSH3 0xC18 JUMP JUMPDEST POP POP JUMPDEST DUP3 MSTORE POP PUSH1 0x20 ADD SWAP1 DUP1 MLOAD SWAP1 PUSH1 0x20 ADD SWAP1 DUP1 DUP4 DUP4 PUSH1 0x0 JUMPDEST DUP4 DUP2 LT ISZERO PUSH3 0x226 JUMPI DUP1 DUP3 ADD MLOAD DUP4 DUP3 ADD MSTORE PUSH1 0x20 ADD PUSH3 0x20C JUMP JUMPDEST POP POP POP POP SWAP1 POP SWAP1 DUP2 ADD SWAP1 PUSH1 0x1F AND DUP1 ISZERO PUSH3 0x254 JUMPI DUP1 DUP3 SUB DUP1 MLOAD PUSH1 0x1 DUP4 PUSH1 0x20 SUB PUSH2 0x100 EXP SUB NOT AND DUP2 MSTORE PUSH1 0x20 ADD SWAP2 POP JUMPDEST POP PUSH1 0x40 MSTORE PUSH1 0x20 ADD DUP1 MLOAD PUSH1 0x40 MLOAD SWAP4 SWAP3 SWAP2 SWAP1 DUP5 PUSH5 0x100000000 DUP3 GT ISZERO PUSH3 0x283 JUMPI PUSH1 0x0 DUP1 PUSH3 0x280 PUSH3 0xC18 JUMP JUMPDEST POP POP JUMPDEST SWAP1 DUP4 ADD SWAP1 PUSH1 0x20 DUP3 ADD DUP6 DUP2 GT ISZERO PUSH3 0x2A4 JUMPI PUSH1 0x0 DUP1 PUSH3 0x2A1 PUSH3 0xC18 JUMP JUMPDEST POP POP JUMPDEST DUP3 MLOAD PUSH5 0x100000000 DUP2 GT DUP3 DUP3 ADD DUP9 LT OR ISZERO PUSH3 0x2CA JUMPI PUSH1 0x0 DUP1 PUSH3 0x2C7 PUSH3 0xC18 JUMP JUMPDEST POP POP JUMPDEST DUP3 MSTORE POP PUSH1 0x20 ADD SWAP1 DUP1 MLOAD SWAP1 PUSH1 0x20 ADD SWAP1 DUP1 DUP4 DUP4 PUSH1 0x0 JUMPDEST DUP4 DUP2 LT ISZERO PUSH3 0x2F8 JUMPI DUP1 DUP3 ADD MLOAD DUP4 DUP3 ADD MSTORE PUSH1 0x20 ADD PUSH3 0x2DE JUMP JUMPDEST POP POP POP POP SWAP1 POP SWAP1 DUP2 ADD SWAP1 PUSH1 0x1F AND DUP1 ISZERO PUSH3 0x326 JUMPI DUP1 DUP3 SUB DUP1 MLOAD PUSH1 0x1 DUP4 PUSH1 0x20 SUB PUSH2 0x100 EXP SUB NOT AND DUP2 MSTORE PUSH1 0x20 ADD SWAP2 POP JUMPDEST POP PUSH1 0x40 MSTORE PUSH1 0x20 ADD DUP1 MLOAD SWAP3 SWAP2 SWAP1 PUSH1 0x20 ADD DUP1 MLOAD SWAP3 SWAP2 SWAP1 PUSH1 0x20 ADD DUP1 MLOAD SWAP3 SWAP2 SWAP1 PUSH1 0x20 ADD DUP1 MLOAD SWAP3 POP DUP10 SWAP2 POP DUP9 SWAP1 POP DUP8 DUP8 DUP8 DUP8 DUP8 DUP8 DUP1 PUSH1 0xF PUSH1 0x18 PUSH2 0x300 PUSH1 0x40 MLOAD SWAP1 DUP2 ADD PUSH1 0x40 MSTORE SWAP2 SWAP1 PUSH2 0x300 DUP4 ADD DUP3 DUP5 JUMPDEST DUP2 PUSH3 0x37B PUSH3 0xD91 JUMP JUMPDEST DUP2 MSTORE PUSH1 0x20 ADD SWAP1 PUSH1 0x1 ADD SWAP1 DUP1 DUP4 GT PUSH3 0x370 JUMPI POP POP POP POP POP DUP10 DUP10 DUP10 DUP10 DUP8 PUSH1 0x12 DUP12 DUP7 DUP2 PUSH1 0x0 PUSH1 0x1 PUSH1 0x1 PUSH1 0xA0 SHL SUB AND DUP2 PUSH1 0x1 PUSH1 0x1 PUSH1 0xA0 SHL SUB AND EQ ISZERO PUSH3 0x40F JUMPI PUSH1 0x40 MLOAD PUSH3 0x461BCD PUSH1 0xE5 SHL DUP2 MSTORE PUSH1 0x20 PUSH1 0x4 DUP3 ADD MSTORE PUSH1 0x19 PUSH1 0x24 DUP3 ADD MSTORE PUSH32 0x4F776E657220616464726573732063616E6E6F74206265203000000000000000 PUSH1 0x44 DUP3 ADD MSTORE PUSH1 0x64 ADD PUSH1 0x40 MLOAD DUP1 SWAP2 SUB SWAP1 PUSH3 0x40C PUSH3 0xC18 JUMP JUMPDEST POP POP JUMPDEST DUP1 PUSH1 0x0 PUSH1 0x1 DUP2 PUSH3 0x41F PUSH3 0xD91 JUMP JUMPDEST DUP2 PUSH1 0x1 PUSH1 0x1 PUSH1 0xA0 SHL SUB MUL NOT AND SWAP1 DUP4 PUSH1 0x1 PUSH1 0x1 PUSH1 0xA0 SHL SUB AND MUL OR SWAP1 PUSH3 0x443 PUSH3 0xD42 JUMP JUMPDEST POP POP POP PUSH32 0xB532073B38C83145E3E5135377A08BF9AAB55BC0FD7C1179CD4FB995D2A5159C PUSH1 0x0 DUP3 PUSH1 0x40 MLOAD PUSH1 0x1 PUSH1 0x1 PUSH1 0xA0 SHL SUB SWAP3 DUP4 AND DUP2 MSTORE SWAP2 AND PUSH1 0x20 DUP3 ADD MSTORE PUSH1 0x40 SWAP1 DUP2 ADD SWAP1 MLOAD DUP1 SWAP2 SUB SWAP1 LOG1 POP PUSH1 0x0 DUP1 DUP1 PUSH3 0x49C PUSH3 0xD91 JUMP JUMPDEST SWAP1 PUSH2 0x100 EXP SWAP1 DIV PUSH1 0x1 PUSH1 0x1 PUSH1 0xA0 SHL SUB AND PUSH1 0x1 PUSH1 0x1 PUSH1 0xA0 SHL SUB AND EQ ISZERO PUSH3 0x507 JUMPI PUSH1 0x40 MLOAD PUSH3 0x461BCD PUSH1 0xE5 SHL DUP2 MSTORE PUSH1 0x20 PUSH1 0x4 DUP3 ADD MSTORE PUSH1 0x11 PUSH1 0x24 DUP3 ADD MSTORE PUSH17 0x13DDDB995C881B5D5CDD081899481CD95D PUSH1 0x7A SHL PUSH1 0x44 DUP3 ADD MSTORE PUSH1 0x64 ADD PUSH1 0x40 MLOAD DUP1 SWAP2 SUB SWAP1 PUSH3 0x504 PUSH3 0xC18 JUMP JUMPDEST POP POP JUMPDEST PUSH1 0x0 DUP1 PUSH3 0x514 PUSH3 0xD91 JUMP JUMPDEST SWAP1 PUSH2 0x100 EXP SWAP1 DIV PUSH1 0x1 PUSH1 0x1 PUSH1 0xA0 SHL SUB AND PUSH1 0x3 PUSH1 0x1 PUSH2 0x100 EXP DUP2 PUSH3 0x537 PUSH3 0xD91 JUMP JUMPDEST DUP2 PUSH1 0x1 PUSH1 0x1 PUSH1 0xA0 SHL SUB MUL NOT AND SWAP1 DUP4 PUSH1 0x1 PUSH1 0x1 PUSH1 0xA0 SHL SUB AND MUL OR SWAP1 PUSH3 0x55B PUSH3 0xD42 JUMP JUMPDEST POP POP POP PUSH32 0xD5DA63A0B864B315BC04128DEDBC93888C8529EE6CF47CE664DC204339228C53 PUSH1 0x0 DUP1 SWAP1 PUSH3 0x58D PUSH3 0xD91 JUMP JUMPDEST SWAP1 PUSH2 0x100 EXP SWAP1 DIV PUSH1 0x1 PUSH1 0x1 PUSH1 0xA0 SHL SUB AND PUSH1 0x40 MLOAD PUSH1 0x1 PUSH1 0x1 PUSH1 0xA0 SHL SUB SWAP1 SWAP2 AND DUP2 MSTORE PUSH1 0x20 ADD PUSH1 0x40 MLOAD DUP1 SWAP2 SUB SWAP1 LOG1 PUSH1 0x0 DUP1 DUP1 PUSH3 0x5C6 PUSH3 0xD91 JUMP JUMPDEST SWAP1 PUSH2 0x100 EXP SWAP1 DIV PUSH1 0x1 PUSH1 0x1 PUSH1 0xA0 SHL SUB AND PUSH1 0x1 PUSH1 0x1 PUSH1 0xA0 SHL SUB AND EQ ISZERO PUSH3 0x631 JUMPI PUSH1 0x40 MLOAD PUSH3 0x461BCD PUSH1 0xE5 SHL DUP2 MSTORE PUSH1 0x20 PUSH1 0x4 DUP3 ADD MSTORE PUSH1 0x11 PUSH1 0x24 DUP3 ADD MSTORE PUSH17 0x13DDDB995C881B5D5CDD081899481CD95D PUSH1 0x7A SHL PUSH1 0x44 DUP3 ADD MSTORE PUSH1 0x64 ADD PUSH1 0x40 MLOAD DUP1 SWAP2 SUB SWAP1 PUSH3 0x62E PUSH3 0xC18 JUMP JUMPDEST POP POP JUMPDEST DUP1 PUSH1 0x4 PUSH1 0x1 DUP2 PUSH3 0x641 PUSH3 0xD91 JUMP JUMPDEST DUP2 PUSH1 0x1 PUSH1 0x1 PUSH1 0xA0 SHL SUB MUL NOT AND SWAP1 DUP4 PUSH1 0x1 PUSH1 0x1 PUSH1 0xA0 SHL SUB AND MUL OR SWAP1 PUSH3 0x665 PUSH3 0xD42 JUMP JUMPDEST POP POP POP PUSH32 0xFC80377CA9C49CC11AE6982F390A42DB976D5530AF7C43889264B13FBBD7C57E DUP2 PUSH1 0x40 MLOAD PUSH1 0x1 PUSH1 0x1 PUSH1 0xA0 SHL SUB SWAP1 SWAP2 AND DUP2 MSTORE PUSH1 0x20 ADD PUSH1 0x40 MLOAD DUP1 SWAP2 SUB SWAP1 LOG1 POP DUP6 PUSH1 0x7 PUSH1 0x1 DUP2 PUSH3 0x6B6 PUSH3 0xD91 JUMP JUMPDEST DUP2 PUSH1 0x1 PUSH1 0x1 PUSH1 0xA0 SHL SUB MUL NOT AND SWAP1 DUP4 PUSH1 0x1 PUSH1 0x1 PUSH1 0xA0 SHL SUB AND MUL OR SWAP1 PUSH3 0x6DA PUSH3 0xD42 JUMP JUMPDEST POP POP POP DUP5 PUSH1 0x8 SWAP1 DUP1 MLOAD PUSH3 0x6F3 SWAP3 SWAP2 PUSH1 0x20 ADD SWAP1 PUSH3 0xDDE JUMP JUMPDEST POP PUSH1 0x9 DUP5 DUP1 MLOAD PUSH3 0x709 SWAP3 SWAP2 PUSH1 0x20 ADD SWAP1 PUSH3 0xDDE JUMP JUMPDEST POP DUP3 DUP1 PUSH1 0xA PUSH3 0x718 PUSH3 0xD42 JUMP JUMPDEST POP POP POP DUP2 PUSH1 0xB PUSH1 0x0 PUSH2 0x100 EXP DUP2 PUSH3 0x72F PUSH3 0xD91 JUMP JUMPDEST DUP2 PUSH1 0xFF MUL NOT AND SWAP1 DUP4 PUSH1 0xFF AND MUL OR SWAP1 PUSH3 0x747 PUSH3 0xD42 JUMP JUMPDEST POP POP POP POP POP POP POP POP POP POP PUSH1 0x0 PUSH1 0x1 PUSH1 0x1 PUSH1 0xA0 SHL SUB AND PUSH1 0x0 DUP1 SWAP1 PUSH3 0x76A PUSH3 0xD91 JUMP JUMPDEST SWAP1 PUSH2 0x100 EXP SWAP1 DIV PUSH1 0x1 PUSH1 0x1 PUSH1 0xA0 SHL SUB AND PUSH1 0x1 PUSH1 0x1 PUSH1 0xA0 SHL SUB AND EQ ISZERO PUSH3 0x7D5 JUMPI PUSH1 0x40 MLOAD PUSH3 0x461BCD PUSH1 0xE5 SHL DUP2 MSTORE PUSH1 0x20 PUSH1 0x4 DUP3 ADD MSTORE PUSH1 0x11 PUSH1 0x24 DUP3 ADD MSTORE PUSH17 0x13DDDB995C881B5D5CDD081899481CD95D PUSH1 0x7A SHL PUSH1 0x44 DUP3 ADD MSTORE PUSH1 0x64 ADD PUSH1 0x40 MLOAD DUP1 SWAP2 SUB SWAP1 PUSH3 0x7D2 PUSH3 0xC18 JUMP JUMPDEST POP POP JUMPDEST PUSH1 0x0 JUMPDEST PUSH1 0x18 DUP2 LT ISZERO PUSH3 0x865 JUMPI PUSH1 0x0 DUP3 DUP3 PUSH1 0x18 DUP2 LT PUSH3 0x7F1 JUMPI INVALID JUMPDEST PUSH1 0x20 MUL ADD MLOAD EQ PUSH3 0x856 JUMPI PUSH1 0xD DUP3 DUP3 PUSH1 0x18 DUP2 LT PUSH3 0x80B JUMPI INVALID JUMPDEST PUSH1 0x20 MUL ADD MLOAD SWAP1 DUP1 PUSH1 0x1 DUP2 PUSH3 0x81F PUSH3 0xD91 JUMP JUMPDEST ADD DUP1 DUP3 PUSH3 0x82C PUSH3 0xD42 JUMP JUMPDEST POP POP PUSH1 0x0 SWAP3 DUP4 MSTORE SWAP2 PUSH1 0x0 NOT DUP4 ADD SWAP2 POP PUSH1 0x20 SWAP1 KECCAK256 SWAP2 SWAP3 SWAP2 ADD PUSH3 0x84D PUSH3 0xD42 JUMP JUMPDEST POP POP POP PUSH3 0x85C JUMP JUMPDEST PUSH3 0x865 JUMP JUMPDEST PUSH1 0x1 ADD PUSH3 0x7D8 JUMP JUMPDEST POP DUP2 PUSH1 0xB PUSH2 0x100 DUP2 PUSH3 0x877 PUSH3 0xD91 JUMP JUMPDEST DUP2 PUSH1 0x1 PUSH1 0x1 PUSH1 0xA0 SHL SUB MUL NOT AND SWAP1 DUP4 PUSH1 0x1 PUSH1 0x1 PUSH1 0xA0 SHL SUB AND MUL OR SWAP1 PUSH3 0x89B PUSH3 0xD42 JUMP JUMPDEST POP POP POP POP POP PUSH1 0x1 PUSH1 0x1 PUSH1 0xA0 SHL SUB DUP9 AND PUSH3 0x8FB JUMPI PUSH1 0x40 MLOAD PUSH3 0x461BCD PUSH1 0xE5 SHL DUP2 MSTORE PUSH1 0x20 PUSH1 0x4 DUP3 ADD MSTORE PUSH1 0x12 PUSH1 0x24 DUP3 ADD MSTORE PUSH18 0x5F70726F78792063616E6E6F74206265203 PUSH1 0x74 SHL PUSH1 0x44 DUP3 ADD MSTORE PUSH1 0x64 ADD PUSH1 0x40 MLOAD DUP1 SWAP2 SUB SWAP1 PUSH3 0x8F8 PUSH3 0xC18 JUMP JUMPDEST POP POP JUMPDEST PUSH1 0x1 PUSH1 0x1 PUSH1 0xA0 SHL SUB DUP5 AND PUSH3 0x956 JUMPI PUSH1 0x40 MLOAD PUSH3 0x461BCD PUSH1 0xE5 SHL DUP2 MSTORE PUSH1 0x20 PUSH1 0x4 DUP3 ADD MSTORE PUSH1 0x12 PUSH1 0x24 DUP3 ADD MSTORE PUSH18 0x5F6F776E65722063616E6E6F74206265203 PUSH1 0x74 SHL PUSH1 0x44 DUP3 ADD MSTORE PUSH1 0x64 ADD PUSH1 0x40 MLOAD DUP1 SWAP2 SUB SWAP1 PUSH3 0x953 PUSH3 0xC18 JUMP JUMPDEST POP POP JUMPDEST DUP3 DUP1 PUSH1 0xE PUSH3 0x964 PUSH3 0xD42 JUMP JUMPDEST POP POP POP POP POP POP POP POP POP POP POP PUSH3 0x990 PUSH13 0x45786368616E67655261746573 PUSH1 0x98 SHL PUSH3 0x99E PUSH1 0x20 SHL PUSH1 0x20 SHR JUMP JUMPDEST POP POP POP POP POP POP POP POP PUSH3 0xF25 JUMP JUMPDEST DUP1 PUSH1 0xD DUP1 PUSH1 0x1 DUP2 PUSH3 0x9AF PUSH3 0xD91 JUMP JUMPDEST ADD DUP1 DUP3 PUSH3 0x9BC PUSH3 0xD42 JUMP JUMPDEST POP POP PUSH1 0x0 SWAP3 DUP4 MSTORE SWAP2 PUSH1 0x0 NOT DUP4 ADD SWAP2 POP PUSH1 0x20 SWAP1 KECCAK256 SWAP2 SWAP3 SWAP2 ADD PUSH3 0x9DD PUSH3 0xD42 JUMP JUMPDEST POP POP POP PUSH1 0x18 PUSH1 0xD DUP1 PUSH3 0x9EF PUSH3 0xD91 JUMP JUMPDEST SWAP1 POP LT PUSH3 0xA4E JUMPI PUSH1 0x40 MLOAD PUSH3 0x461BCD PUSH1 0xE5 SHL DUP2 MSTORE PUSH1 0x20 PUSH1 0x4 DUP3 ADD MSTORE PUSH1 0x1B PUSH1 0x24 DUP3 ADD MSTORE PUSH32 0x4D6178207265736F6C7665722063616368652073697A65206D65740000000000 PUSH1 0x44 DUP3 ADD MSTORE PUSH1 0x64 ADD PUSH1 0x40 MLOAD DUP1 SWAP2 SUB SWAP1 PUSH3 0xA4B PUSH3 0xC18 JUMP JUMPDEST POP POP JUMPDEST PUSH1 0x1 PUSH1 0xB PUSH3 0xA5C PUSH3 0xD91 JUMP JUMPDEST SWAP1 PUSH2 0x100 EXP SWAP1 DIV PUSH1 0x1 PUSH1 0x1 PUSH1 0xA0 SHL SUB AND PUSH1 0x1 PUSH1 0x1 PUSH1 0xA0 SHL SUB AND PUSH4 0x21F8A721 DUP3 PUSH1 0x40 MLOAD PUSH1 0x1 PUSH1 0x1 PUSH1 0xE0 SHL SUB NOT PUSH1 0xE0 DUP5 SWAP1 SHL AND DUP2 MSTORE PUSH1 0x4 DUP2 ADD SWAP2 SWAP1 SWAP2 MSTORE PUSH1 0x24 ADD PUSH1 0x20 PUSH1 0x40 MLOAD DUP1 DUP4 SUB DUP2 DUP7 DUP1 PUSH3 0xAAF PUSH3 0xBB6 JUMP JUMPDEST ISZERO DUP1 ISZERO PUSH3 0xAC7 JUMPI PUSH1 0x0 DUP1 PUSH3 0xAC4 PUSH3 0xC18 JUMP JUMPDEST POP POP JUMPDEST POP GAS PUSH3 0xAD3 PUSH3 0xE89 JUMP JUMPDEST POP POP POP POP POP ISZERO DUP1 ISZERO PUSH3 0xAF5 JUMPI RETURNDATASIZE PUSH1 0x0 DUP1 RETURNDATACOPY RETURNDATASIZE PUSH1 0x0 PUSH3 0xAF2 PUSH3 0xC18 JUMP JUMPDEST POP POP JUMPDEST POP POP POP POP PUSH1 0x40 MLOAD RETURNDATASIZE PUSH1 0x20 DUP2 LT ISZERO PUSH3 0xB17 JUMPI PUSH1 0x0 DUP1 PUSH3 0xB14 PUSH3 0xC18 JUMP JUMPDEST POP POP JUMPDEST DUP2 ADD SWAP1 DUP1 DUP1 MLOAD PUSH1 0x0 DUP6 DUP2 MSTORE PUSH1 0xC PUSH1 0x20 MSTORE SWAP1 SWAP4 POP PUSH1 0x40 SWAP3 POP SWAP1 POP KECCAK256 PUSH1 0x1 DUP2 PUSH3 0xB3E PUSH3 0xD91 JUMP JUMPDEST DUP2 PUSH1 0x1 PUSH1 0x1 PUSH1 0xA0 SHL SUB MUL NOT AND SWAP1 DUP4 PUSH1 0x1 PUSH1 0x1 PUSH1 0xA0 SHL SUB AND MUL OR SWAP1 PUSH3 0xB62 PUSH3 0xD42 JUMP JUMPDEST POP POP POP POP JUMP JUMPDEST DUP3 PUSH1 0x18 DUP2 ADD SWAP3 DUP3 ISZERO PUSH3 0xBA4 JUMPI SWAP2 PUSH1 0x20 MUL DUP3 ADD JUMPDEST DUP3 DUP2 GT ISZERO PUSH3 0xBA4 JUMPI DUP3 MLOAD DUP3 PUSH3 0xB92 PUSH3 0xD42 JUMP JUMPDEST POP POP SWAP2 PUSH1 0x20 ADD SWAP2 SWAP1 PUSH1 0x1 ADD SWAP1 PUSH3 0xB7C JUMP JUMPDEST POP PUSH3 0xBB2 SWAP3 SWAP2 POP PUSH3 0xECE JUMP JUMPDEST POP SWAP1 JUMP JUMPDEST PUSH4 0x8435035B MSIZE DUP2 PUSH1 0xE0 SHL DUP2 MSTORE DUP4 PUSH1 0x4 DUP3 ADD MSTORE PUSH1 0x20 DUP2 PUSH1 0x24 DUP4 CALLER PUSH1 0x0 SWAP1 GAS CALL PC PUSH1 0xE ADD JUMPI RETURNDATASIZE PUSH1 0x0 DUP1 RETURNDATACOPY RETURNDATASIZE PUSH1 0x0 REVERT JUMPDEST RETURNDATASIZE PUSH1 0x1 EQ ISZERO PC PUSH1 0xA ADD JUMPI PUSH1 0x1 PUSH1 0x0 RETURN JUMPDEST DUP1 MLOAD SWAP4 POP PUSH1 0x0 JUMPDEST PUSH1 0x40 DUP2 LT ISZERO PUSH3 0xC13 JUMPI PUSH1 0x0 DUP3 DUP3 ADD MSTORE PUSH1 0x20 ADD PUSH3 0xBFA JUMP JUMPDEST POP POP POP JUMP JUMPDEST PUSH4 0x2A2A7ADB MSIZE DUP2 PUSH1 0xE0 SHL DUP2 MSTORE PUSH1 0x4 DUP2 ADD PUSH1 0x20 DUP2 MSTORE DUP6 PUSH1 0x20 DUP3 ADD MSTORE PUSH1 0x0 JUMPDEST DUP7 DUP2 LT ISZERO PUSH3 0xC52 JUMPI DUP1 DUP7 ADD MLOAD DUP3 DUP3 ADD PUSH1 0x40 ADD MSTORE PUSH1 0x20 ADD PUSH3 0xC35 JUMP JUMPDEST POP PUSH1 0x20 DUP3 DUP8 PUSH1 0x64 ADD DUP5 CALLER PUSH1 0x0 SWAP1 GAS CALL PC PUSH1 0xE ADD JUMPI RETURNDATASIZE PUSH1 0x0 DUP1 RETURNDATACOPY RETURNDATASIZE PUSH1 0x0 REVERT JUMPDEST RETURNDATASIZE PUSH1 0x1 EQ ISZERO PC PUSH1 0xA ADD JUMPI PUSH1 0x1 PUSH1 0x0 RETURN JUMPDEST POP POP POP JUMP JUMPDEST PUSH4 0xFFE73914 MSIZE DUP2 PUSH1 0xE0 SHL DUP2 MSTORE DUP4 PUSH1 0x4 DUP3 ADD MSTORE DUP5 PUSH1 0x24 DUP3 ADD MSTORE PUSH1 0x60 PUSH1 0x44 DUP3 ADD MSTORE DUP7 PUSH1 0x64 DUP3 ADD MSTORE PUSH1 0x84 DUP2 ADD PUSH1 0x0 JUMPDEST DUP9 DUP2 LT ISZERO PUSH3 0xCCB JUMPI DUP1 DUP9 ADD MLOAD DUP3 DUP3 ADD MSTORE PUSH1 0x20 ADD PUSH3 0xCB1 JUMP JUMPDEST POP DUP8 PUSH2 0x104 ADD DUP3 ADD PUSH1 0x60 DUP4 DUP11 PUSH2 0x104 ADD DUP6 CALLER PUSH1 0x0 SWAP1 GAS CALL PC PUSH1 0xE ADD JUMPI RETURNDATASIZE PUSH1 0x0 DUP1 RETURNDATACOPY RETURNDATASIZE PUSH1 0x0 REVERT JUMPDEST RETURNDATASIZE PUSH1 0x1 EQ ISZERO PC PUSH1 0xA ADD JUMPI PUSH1 0x1 PUSH1 0x0 RETURN JUMPDEST DUP3 MLOAD PUSH1 0x40 DUP5 ADD MLOAD RETURNDATASIZE PUSH1 0x0 DUP7 RETURNDATACOPY DUP13 DUP13 DUP3 PUSH1 0x60 DUP9 ADD CALLER POP PUSH1 0x0 PUSH1 0x4 GAS CALL POP MSIZE DUP6 JUMPDEST DUP2 DUP2 LT ISZERO PUSH3 0xD36 JUMPI PUSH1 0x0 DUP2 MSTORE PUSH1 0x20 ADD PUSH3 0xD20 JUMP JUMPDEST POP SWAP2 SWAP13 POP POP POP POP POP POP POP JUMP JUMPDEST PUSH4 0x22BD64C0 MSIZE DUP2 PUSH1 0xE0 SHL DUP2 MSTORE DUP4 PUSH1 0x4 DUP3 ADD MSTORE DUP5 PUSH1 0x24 DUP3 ADD MSTORE PUSH1 0x0 DUP2 PUSH1 0x44 DUP4 CALLER PUSH1 0x0 SWAP1 GAS CALL PC PUSH1 0xE ADD JUMPI RETURNDATASIZE PUSH1 0x0 DUP1 RETURNDATACOPY RETURNDATASIZE PUSH1 0x0 REVERT JUMPDEST RETURNDATASIZE PUSH1 0x1 EQ ISZERO PC PUSH1 0xA ADD JUMPI PUSH1 0x1 PUSH1 0x0 RETURN JUMPDEST PUSH1 0x0 DUP2 MSTORE PUSH1 0x20 PUSH3 0xBFA JUMP JUMPDEST PUSH4 0x3DAA959 MSIZE DUP2 PUSH1 0xE0 SHL DUP2 MSTORE DUP4 PUSH1 0x4 DUP3 ADD MSTORE PUSH1 0x20 DUP2 PUSH1 0x24 DUP4 CALLER PUSH1 0x0 SWAP1 GAS CALL PC PUSH1 0xE ADD JUMPI RETURNDATASIZE PUSH1 0x0 DUP1 RETURNDATACOPY RETURNDATASIZE PUSH1 0x0 REVERT JUMPDEST RETURNDATASIZE PUSH1 0x1 EQ ISZERO PC PUSH1 0xA ADD JUMPI PUSH1 0x1 PUSH1 0x0 RETURN JUMPDEST DUP1 MLOAD PUSH1 0x0 DUP3 MSTORE SWAP4 POP PUSH1 0x20 PUSH3 0xBFA JUMP JUMPDEST DUP3 DUP1 PUSH3 0xDEA PUSH3 0xD91 JUMP JUMPDEST PUSH1 0x1 DUP2 PUSH1 0x1 AND ISZERO PUSH2 0x100 MUL SUB AND PUSH1 0x2 SWAP1 DIV SWAP1 PUSH1 0x0 MSTORE PUSH1 0x20 PUSH1 0x0 KECCAK256 SWAP1 PUSH1 0x1F ADD PUSH1 0x20 SWAP1 DIV DUP2 ADD SWAP3 DUP3 PUSH1 0x1F LT PUSH3 0xE35 JUMPI DUP1 MLOAD PUSH1 0xFF NOT AND DUP4 DUP1 ADD OR DUP6 PUSH3 0xE2D PUSH3 0xD42 JUMP JUMPDEST POP POP PUSH3 0xE7B JUMP JUMPDEST DUP3 DUP1 ADD PUSH1 0x1 ADD DUP6 PUSH3 0xE46 PUSH3 0xD42 JUMP JUMPDEST POP POP DUP3 ISZERO PUSH3 0xE7B JUMPI SWAP2 DUP3 ADD JUMPDEST DUP3 DUP2 GT ISZERO PUSH3 0xE7B JUMPI DUP3 MLOAD DUP3 PUSH3 0xE69 PUSH3 0xD42 JUMP JUMPDEST POP POP SWAP2 PUSH1 0x20 ADD SWAP2 SWAP1 PUSH1 0x1 ADD SWAP1 PUSH3 0xE53 JUMP JUMPDEST POP PUSH3 0xBB2 SWAP3 SWAP2 POP PUSH3 0xEFB JUMP JUMPDEST PUSH4 0x8540661F MSIZE DUP2 PUSH1 0xE0 SHL DUP2 MSTORE DUP4 PUSH1 0x4 DUP3 ADD MSTORE DUP5 PUSH1 0x24 DUP3 ADD MSTORE PUSH1 0x60 PUSH1 0x44 DUP3 ADD MSTORE DUP7 PUSH1 0x64 DUP3 ADD MSTORE PUSH1 0x84 DUP2 ADD PUSH1 0x0 DUP9 DUP2 LT ISZERO PUSH3 0xCCB JUMPI DUP1 DUP9 ADD MLOAD DUP3 DUP3 ADD MSTORE PUSH1 0x20 ADD PUSH3 0xCB1 JUMP JUMPDEST PUSH3 0xEF8 SWAP2 SWAP1 JUMPDEST DUP1 DUP3 GT ISZERO PUSH3 0xBB2 JUMPI PUSH1 0x0 DUP1 DUP3 PUSH3 0xEEC PUSH3 0xD42 JUMP JUMPDEST POP POP POP PUSH1 0x1 ADD PUSH3 0xED5 JUMP JUMPDEST SWAP1 JUMP JUMPDEST PUSH3 0xEF8 SWAP2 SWAP1 JUMPDEST DUP1 DUP3 GT ISZERO PUSH3 0xBB2 JUMPI PUSH1 0x0 DUP1 DUP3 PUSH3 0xF19 PUSH3 0xD42 JUMP JUMPDEST POP POP POP PUSH1 0x1 ADD PUSH3 0xF02 JUMP JUMPDEST PUSH2 0x43A6 DUP1 PUSH3 0xF35 PUSH1 0x0 CODECOPY PUSH1 0x0 RETURN INVALID PUSH1 0x80 PUSH1 0x40 MSTORE CALLVALUE DUP1 ISZERO PUSH2 0x19 JUMPI PUSH1 0x0 DUP1 PUSH2 0x16 PUSH2 0x3EB6 JUMP JUMPDEST POP POP JUMPDEST POP PUSH1 0x4 CALLDATASIZE LT PUSH2 0x293 JUMPI PUSH1 0x0 CALLDATALOAD PUSH1 0xE0 SHR DUP1 PUSH4 0x9CBDAEB6 GT PUSH2 0x165 JUMPI DUP1 PUSH4 0xC58AAAE6 GT PUSH2 0xD7 JUMPI DUP1 PUSH4 0xE73CCED3 GT PUSH2 0x90 JUMPI DUP1 PUSH4 0xE73CCED3 EQ PUSH2 0x83B JUMPI DUP1 PUSH4 0xE90DD9E2 EQ PUSH2 0x87A JUMPI DUP1 PUSH4 0xEB1EDD61 EQ PUSH2 0x882 JUMPI DUP1 PUSH4 0xEC556889 EQ PUSH2 0x88A JUMPI DUP1 PUSH4 0xF7EA7A3D EQ PUSH2 0x892 JUMPI DUP1 PUSH4 0xFFFF51D6 EQ PUSH2 0x8B8 JUMPI PUSH2 0x293 JUMP JUMPDEST DUP1 PUSH4 0xC58AAAE6 EQ PUSH2 0x7BE JUMPI DUP1 PUSH4 0xC6C9D828 EQ PUSH2 0x7C6 JUMPI DUP1 PUSH4 0xD67BDD25 EQ PUSH2 0x7EC JUMPI DUP1 PUSH4 0xDBD06C85 EQ PUSH2 0x7F4 JUMPI DUP1 PUSH4 0xDD62ED3E EQ PUSH2 0x7FC JUMPI DUP1 PUSH4 0xE3235C91 EQ PUSH2 0x833 JUMPI PUSH2 0x293 JUMP JUMPDEST DUP1 PUSH4 0xAB49848C GT PUSH2 0x129 JUMPI DUP1 PUSH4 0xAB49848C EQ PUSH2 0x675 JUMPI DUP1 PUSH4 0xAB593079 EQ PUSH2 0x6B6 JUMPI DUP1 PUSH4 0xB014C3A3 EQ PUSH2 0x74A JUMPI DUP1 PUSH4 0xB8225DEC EQ PUSH2 0x77F JUMPI DUP1 PUSH4 0xBC67F832 EQ PUSH2 0x787 JUMPI DUP1 PUSH4 0xBD32AA44 EQ PUSH2 0x7B6 JUMPI PUSH2 0x293 JUMP JUMPDEST DUP1 PUSH4 0x9CBDAEB6 EQ PUSH2 0x5CC JUMPI DUP1 PUSH4 0x9DC29FAC EQ PUSH2 0x5D4 JUMPI DUP1 PUSH4 0x9F769807 EQ PUSH2 0x609 JUMPI DUP1 PUSH4 0xA461FC82 EQ PUSH2 0x638 JUMPI DUP1 PUSH4 0xA9059CBB EQ PUSH2 0x640 JUMPI PUSH2 0x293 JUMP JUMPDEST DUP1 PUSH4 0x3278C960 GT PUSH2 0x209 JUMPI DUP1 PUSH4 0x7E88AC16 GT PUSH2 0x1C2 JUMPI DUP1 PUSH4 0x7E88AC16 EQ PUSH2 0x548 JUMPI DUP1 PUSH4 0x867904B4 EQ PUSH2 0x550 JUMPI DUP1 PUSH4 0x8DA5CB5B EQ PUSH2 0x585 JUMPI DUP1 PUSH4 0x95D89B41 EQ PUSH2 0x58D JUMPI DUP1 PUSH4 0x97107D6D EQ PUSH2 0x595 JUMPI DUP1 PUSH4 0x9CB8A26A EQ PUSH2 0x5C4 JUMPI PUSH2 0x293 JUMP JUMPDEST DUP1 PUSH4 0x3278C960 EQ PUSH2 0x4A3 JUMPI DUP1 PUSH4 0x3BE99E6F EQ PUSH2 0x4AB JUMPI DUP1 PUSH4 0x53A47BB7 EQ PUSH2 0x4DA JUMPI DUP1 PUSH4 0x631E1444 EQ PUSH2 0x4E2 JUMPI DUP1 PUSH4 0x70A08231 EQ PUSH2 0x511 JUMPI DUP1 PUSH4 0x79BA5097 EQ PUSH2 0x540 JUMPI PUSH2 0x293 JUMP JUMPDEST DUP1 PUSH4 0x17C70DE4 GT PUSH2 0x25B JUMPI DUP1 PUSH4 0x17C70DE4 EQ PUSH2 0x3ED JUMPI DUP1 PUSH4 0x18160DDD EQ PUSH2 0x407 JUMPI DUP1 PUSH4 0x20714F88 EQ PUSH2 0x40F JUMPI DUP1 PUSH4 0x23B872DD EQ PUSH2 0x43E JUMPI DUP1 PUSH4 0x2E0F2625 EQ PUSH2 0x47D JUMPI DUP1 PUSH4 0x313CE567 EQ PUSH2 0x49B JUMPI PUSH2 0x293 JUMP JUMPDEST DUP1 PUSH4 0x4F3BCEC EQ PUSH2 0x2A1 JUMPI DUP1 PUSH4 0x6FDDE03 EQ PUSH2 0x2C5 JUMPI DUP1 PUSH4 0x95EA7B3 EQ PUSH2 0x344 JUMPI DUP1 PUSH4 0x131B0AE7 EQ PUSH2 0x38D JUMPI DUP1 PUSH4 0x1627540C EQ PUSH2 0x3BE JUMPI JUMPDEST PUSH1 0x0 DUP1 PUSH2 0x29E PUSH2 0x3EB6 JUMP JUMPDEST POP POP JUMPDEST PUSH2 0x2A9 PUSH2 0x8E7 JUMP JUMPDEST PUSH1 0x40 MLOAD PUSH1 0x1 PUSH1 0x1 PUSH1 0xA0 SHL SUB SWAP1 SWAP2 AND DUP2 MSTORE PUSH1 0x20 ADD PUSH1 0x40 MLOAD DUP1 SWAP2 SUB SWAP1 RETURN JUMPDEST PUSH2 0x2CD PUSH2 0x906 JUMP JUMPDEST PUSH1 0x40 MLOAD PUSH1 0x20 DUP1 DUP3 MSTORE DUP2 SWAP1 DUP2 ADD DUP4 DUP2 DUP2 MLOAD DUP2 MSTORE PUSH1 0x20 ADD SWAP2 POP DUP1 MLOAD SWAP1 PUSH1 0x20 ADD SWAP1 DUP1 DUP4 DUP4 PUSH1 0x0 JUMPDEST DUP4 DUP2 LT ISZERO PUSH2 0x309 JUMPI DUP1 DUP3 ADD MLOAD DUP4 DUP3 ADD MSTORE PUSH1 0x20 ADD PUSH2 0x2F1 JUMP JUMPDEST POP POP POP POP SWAP1 POP SWAP1 DUP2 ADD SWAP1 PUSH1 0x1F AND DUP1 ISZERO PUSH2 0x336 JUMPI DUP1 DUP3 SUB DUP1 MLOAD PUSH1 0x1 DUP4 PUSH1 0x20 SUB PUSH2 0x100 EXP SUB NOT AND DUP2 MSTORE PUSH1 0x20 ADD SWAP2 POP JUMPDEST POP SWAP3 POP POP POP PUSH1 0x40 MLOAD DUP1 SWAP2 SUB SWAP1 RETURN JUMPDEST PUSH2 0x379 PUSH1 0x4 DUP1 CALLDATASIZE SUB PUSH1 0x40 DUP2 LT ISZERO PUSH2 0x363 JUMPI PUSH1 0x0 DUP1 PUSH2 0x360 PUSH2 0x3EB6 JUMP JUMPDEST POP POP JUMPDEST POP PUSH1 0x1 PUSH1 0x1 PUSH1 0xA0 SHL SUB DUP2 CALLDATALOAD AND SWAP1 PUSH1 0x20 ADD CALLDATALOAD PUSH2 0x9BF JUMP JUMPDEST PUSH1 0x40 MLOAD SWAP1 ISZERO ISZERO DUP2 MSTORE PUSH1 0x20 ADD PUSH1 0x40 MLOAD DUP1 SWAP2 SUB SWAP1 RETURN JUMPDEST PUSH2 0x3BC PUSH1 0x4 DUP1 CALLDATASIZE SUB PUSH1 0x20 DUP2 LT ISZERO PUSH2 0x3AC JUMPI PUSH1 0x0 DUP1 PUSH2 0x3A9 PUSH2 0x3EB6 JUMP JUMPDEST POP POP JUMPDEST POP CALLDATALOAD PUSH1 0x1 PUSH1 0x1 PUSH1 0xA0 SHL SUB AND PUSH2 0xABD JUMP JUMPDEST STOP JUMPDEST PUSH2 0x3BC PUSH1 0x4 DUP1 CALLDATASIZE SUB PUSH1 0x20 DUP2 LT ISZERO PUSH2 0x3DD JUMPI PUSH1 0x0 DUP1 PUSH2 0x3DA PUSH2 0x3EB6 JUMP JUMPDEST POP POP JUMPDEST POP CALLDATALOAD PUSH1 0x1 PUSH1 0x1 PUSH1 0xA0 SHL SUB AND PUSH2 0xAFB JUMP JUMPDEST PUSH2 0x3F5 PUSH2 0xB75 JUMP JUMPDEST PUSH1 0x40 MLOAD SWAP1 DUP2 MSTORE PUSH1 0x20 ADD PUSH1 0x40 MLOAD DUP1 SWAP2 SUB SWAP1 RETURN JUMPDEST PUSH2 0x3F5 PUSH2 0xB82 JUMP JUMPDEST PUSH2 0x3BC PUSH1 0x4 DUP1 CALLDATASIZE SUB PUSH1 0x20 DUP2 LT ISZERO PUSH2 0x42E JUMPI PUSH1 0x0 DUP1 PUSH2 0x42B PUSH2 0x3EB6 JUMP JUMPDEST POP POP JUMPDEST POP CALLDATALOAD PUSH1 0x1 PUSH1 0x1 PUSH1 0xA0 SHL SUB AND PUSH2 0xB8C JUMP JUMPDEST PUSH2 0x379 PUSH1 0x4 DUP1 CALLDATASIZE SUB PUSH1 0x60 DUP2 LT ISZERO PUSH2 0x45D JUMPI PUSH1 0x0 DUP1 PUSH2 0x45A PUSH2 0x3EB6 JUMP JUMPDEST POP POP JUMPDEST POP PUSH1 0x1 PUSH1 0x1 PUSH1 0xA0 SHL SUB DUP2 CALLDATALOAD DUP2 AND SWAP2 PUSH1 0x20 DUP2 ADD CALLDATALOAD SWAP1 SWAP2 AND SWAP1 PUSH1 0x40 ADD CALLDATALOAD PUSH2 0xC6B JUMP JUMPDEST PUSH2 0x485 PUSH2 0xC92 JUMP JUMPDEST PUSH1 0x40 MLOAD PUSH1 0xFF SWAP1 SWAP2 AND DUP2 MSTORE PUSH1 0x20 ADD PUSH1 0x40 MLOAD DUP1 SWAP2 SUB SWAP1 RETURN JUMPDEST PUSH2 0x485 PUSH2 0xC97 JUMP JUMPDEST PUSH2 0x3BC PUSH2 0xCB0 JUMP JUMPDEST PUSH2 0x3BC PUSH1 0x4 DUP1 CALLDATASIZE SUB PUSH1 0x20 DUP2 LT ISZERO PUSH2 0x4CA JUMPI PUSH1 0x0 DUP1 PUSH2 0x4C7 PUSH2 0x3EB6 JUMP JUMPDEST POP POP JUMPDEST POP CALLDATALOAD PUSH1 0x1 PUSH1 0x1 PUSH1 0xA0 SHL SUB AND PUSH2 0xD21 JUMP JUMPDEST PUSH2 0x2A9 PUSH2 0xEEC JUMP JUMPDEST PUSH2 0x379 PUSH1 0x4 DUP1 CALLDATASIZE SUB PUSH1 0x20 DUP2 LT ISZERO PUSH2 0x501 JUMPI PUSH1 0x0 DUP1 PUSH2 0x4FE PUSH2 0x3EB6 JUMP JUMPDEST POP POP JUMPDEST POP CALLDATALOAD PUSH1 0x1 PUSH1 0x1 PUSH1 0xA0 SHL SUB AND PUSH2 0xEF8 JUMP JUMPDEST PUSH2 0x3F5 PUSH1 0x4 DUP1 CALLDATASIZE SUB PUSH1 0x20 DUP2 LT ISZERO PUSH2 0x530 JUMPI PUSH1 0x0 DUP1 PUSH2 0x52D PUSH2 0x3EB6 JUMP JUMPDEST POP POP JUMPDEST POP CALLDATALOAD PUSH1 0x1 PUSH1 0x1 PUSH1 0xA0 SHL SUB AND PUSH2 0x10D5 JUMP JUMPDEST PUSH2 0x3BC PUSH2 0x11A7 JUMP JUMPDEST PUSH2 0x3F5 PUSH2 0x132A JUMP JUMPDEST PUSH2 0x3BC PUSH1 0x4 DUP1 CALLDATASIZE SUB PUSH1 0x40 DUP2 LT ISZERO PUSH2 0x56F JUMPI PUSH1 0x0 DUP1 PUSH2 0x56C PUSH2 0x3EB6 JUMP JUMPDEST POP POP JUMPDEST POP PUSH1 0x1 PUSH1 0x1 PUSH1 0xA0 SHL SUB DUP2 CALLDATALOAD AND SWAP1 PUSH1 0x20 ADD CALLDATALOAD PUSH2 0x1334 JUMP JUMPDEST PUSH2 0x2A9 PUSH2 0x1412 JUMP JUMPDEST PUSH2 0x2CD PUSH2 0x141D JUMP JUMPDEST PUSH2 0x3BC PUSH1 0x4 DUP1 CALLDATASIZE SUB PUSH1 0x20 DUP2 LT ISZERO PUSH2 0x5B4 JUMPI PUSH1 0x0 DUP1 PUSH2 0x5B1 PUSH2 0x3EB6 JUMP JUMPDEST POP POP JUMPDEST POP CALLDATALOAD PUSH1 0x1 PUSH1 0x1 PUSH1 0xA0 SHL SUB AND PUSH2 0x14BF JUMP JUMPDEST PUSH2 0x3BC PUSH2 0x153A JUMP JUMPDEST PUSH2 0x2A9 PUSH2 0x167D JUMP JUMPDEST PUSH2 0x3BC PUSH1 0x4 DUP1 CALLDATASIZE SUB PUSH1 0x40 DUP2 LT ISZERO PUSH2 0x5F3 JUMPI PUSH1 0x0 DUP1 PUSH2 0x5F0 PUSH2 0x3EB6 JUMP JUMPDEST POP POP JUMPDEST POP PUSH1 0x1 PUSH1 0x1 PUSH1 0xA0 SHL SUB DUP2 CALLDATALOAD AND SWAP1 PUSH1 0x20 ADD CALLDATALOAD PUSH2 0x1689 JUMP JUMPDEST PUSH2 0x3BC PUSH1 0x4 DUP1 CALLDATASIZE SUB PUSH1 0x20 DUP2 LT ISZERO PUSH2 0x628 JUMPI PUSH1 0x0 DUP1 PUSH2 0x625 PUSH2 0x3EB6 JUMP JUMPDEST POP POP JUMPDEST POP CALLDATALOAD PUSH1 0x1 PUSH1 0x1 PUSH1 0xA0 SHL SUB AND PUSH2 0x1768 JUMP JUMPDEST PUSH2 0x3F5 PUSH2 0x17AF JUMP JUMPDEST PUSH2 0x379 PUSH1 0x4 DUP1 CALLDATASIZE SUB PUSH1 0x40 DUP2 LT ISZERO PUSH2 0x65F JUMPI PUSH1 0x0 DUP1 PUSH2 0x65C PUSH2 0x3EB6 JUMP JUMPDEST POP POP JUMPDEST POP PUSH1 0x1 PUSH1 0x1 PUSH1 0xA0 SHL SUB DUP2 CALLDATALOAD AND SWAP1 PUSH1 0x20 ADD CALLDATALOAD PUSH2 0x17B6 JUMP JUMPDEST PUSH2 0x67D PUSH2 0x187B JUMP JUMPDEST PUSH1 0x40 MLOAD DUP1 DUP3 PUSH2 0x300 DUP1 DUP4 DUP4 PUSH1 0x0 JUMPDEST DUP4 DUP2 LT ISZERO PUSH2 0x6A3 JUMPI DUP1 DUP3 ADD MLOAD DUP4 DUP3 ADD MSTORE PUSH1 0x20 ADD PUSH2 0x68B JUMP JUMPDEST POP POP POP POP SWAP1 POP ADD SWAP2 POP POP PUSH1 0x40 MLOAD DUP1 SWAP2 SUB SWAP1 RETURN JUMPDEST PUSH2 0x3BC PUSH1 0x4 DUP1 CALLDATASIZE SUB PUSH1 0x20 DUP2 LT ISZERO PUSH2 0x6D5 JUMPI PUSH1 0x0 DUP1 PUSH2 0x6D2 PUSH2 0x3EB6 JUMP JUMPDEST POP POP JUMPDEST DUP2 ADD SWAP1 PUSH1 0x20 DUP2 ADD DUP2 CALLDATALOAD PUSH5 0x100000000 DUP2 GT ISZERO PUSH2 0x6F9 JUMPI PUSH1 0x0 DUP1 PUSH2 0x6F6 PUSH2 0x3EB6 JUMP JUMPDEST POP POP JUMPDEST DUP3 ADD DUP4 PUSH1 0x20 DUP3 ADD GT ISZERO PUSH2 0x714 JUMPI PUSH1 0x0 DUP1 PUSH2 0x711 PUSH2 0x3EB6 JUMP JUMPDEST POP POP JUMPDEST DUP1 CALLDATALOAD SWAP1 PUSH1 0x20 ADD SWAP2 DUP5 PUSH1 0x20 DUP4 MUL DUP5 ADD GT PUSH5 0x100000000 DUP4 GT OR ISZERO PUSH2 0x73F JUMPI PUSH1 0x0 DUP1 PUSH2 0x73C PUSH2 0x3EB6 JUMP JUMPDEST POP POP JUMPDEST POP SWAP1 SWAP3 POP SWAP1 POP PUSH2 0x18DD JUMP JUMPDEST PUSH2 0x379 PUSH1 0x4 DUP1 CALLDATASIZE SUB PUSH1 0x40 DUP2 LT ISZERO PUSH2 0x769 JUMPI PUSH1 0x0 DUP1 PUSH2 0x766 PUSH2 0x3EB6 JUMP JUMPDEST POP POP JUMPDEST POP PUSH1 0x1 PUSH1 0x1 PUSH1 0xA0 SHL SUB DUP2 CALLDATALOAD AND SWAP1 PUSH1 0x20 ADD CALLDATALOAD PUSH2 0x1CD5 JUMP JUMPDEST PUSH2 0x379 PUSH2 0x1F05 JUMP JUMPDEST PUSH2 0x3BC PUSH1 0x4 DUP1 CALLDATASIZE SUB PUSH1 0x20 DUP2 LT ISZERO PUSH2 0x7A6 JUMPI PUSH1 0x0 DUP1 PUSH2 0x7A3 PUSH2 0x3EB6 JUMP JUMPDEST POP POP JUMPDEST POP CALLDATALOAD PUSH1 0x1 PUSH1 0x1 PUSH1 0xA0 SHL SUB AND PUSH2 0x1F11 JUMP JUMPDEST PUSH2 0x3BC PUSH2 0x1F27 JUMP JUMPDEST PUSH2 0x2A9 PUSH2 0x1FA9 JUMP JUMPDEST PUSH2 0x3F5 PUSH1 0x4 DUP1 CALLDATASIZE SUB PUSH1 0x20 DUP2 LT ISZERO PUSH2 0x7E5 JUMPI PUSH1 0x0 DUP1 PUSH2 0x7E2 PUSH2 0x3EB6 JUMP JUMPDEST POP POP JUMPDEST POP CALLDATALOAD PUSH2 0x1FB5 JUMP JUMPDEST PUSH2 0x2A9 PUSH2 0x1FDD JUMP JUMPDEST PUSH2 0x3F5 PUSH2 0x1FE9 JUMP JUMPDEST PUSH2 0x3F5 PUSH1 0x4 DUP1 CALLDATASIZE SUB PUSH1 0x40 DUP2 LT ISZERO PUSH2 0x81B JUMPI PUSH1 0x0 DUP1 PUSH2 0x818 PUSH2 0x3EB6 JUMP JUMPDEST POP POP JUMPDEST POP PUSH1 0x1 PUSH1 0x1 PUSH1 0xA0 SHL SUB DUP2 CALLDATALOAD DUP2 AND SWAP2 PUSH1 0x20 ADD CALLDATALOAD AND PUSH2 0x1FF3 JUMP JUMPDEST PUSH2 0x3F5 PUSH2 0x20CE JUMP JUMPDEST PUSH2 0x379 PUSH1 0x4 DUP1 CALLDATASIZE SUB PUSH1 0x60 DUP2 LT ISZERO PUSH2 0x85A JUMPI PUSH1 0x0 DUP1 PUSH2 0x857 PUSH2 0x3EB6 JUMP JUMPDEST POP POP JUMPDEST POP PUSH1 0x1 PUSH1 0x1 PUSH1 0xA0 SHL SUB DUP2 CALLDATALOAD DUP2 AND SWAP2 PUSH1 0x20 DUP2 ADD CALLDATALOAD SWAP1 SWAP2 AND SWAP1 PUSH1 0x40 ADD CALLDATALOAD PUSH2 0x20D3 JUMP JUMPDEST PUSH2 0x2A9 PUSH2 0x22BB JUMP JUMPDEST PUSH2 0x2A9 PUSH2 0x22C7 JUMP JUMPDEST PUSH2 0x2A9 PUSH2 0x22DF JUMP JUMPDEST PUSH2 0x3BC PUSH1 0x4 DUP1 CALLDATASIZE SUB PUSH1 0x20 DUP2 LT ISZERO PUSH2 0x8B1 JUMPI PUSH1 0x0 DUP1 PUSH2 0x8AE PUSH2 0x3EB6 JUMP JUMPDEST POP POP JUMPDEST POP CALLDATALOAD PUSH2 0x22EB JUMP JUMPDEST PUSH2 0x3F5 PUSH1 0x4 DUP1 CALLDATASIZE SUB PUSH1 0x20 DUP2 LT ISZERO PUSH2 0x8D7 JUMPI PUSH1 0x0 DUP1 PUSH2 0x8D4 PUSH2 0x3EB6 JUMP JUMPDEST POP POP JUMPDEST POP CALLDATALOAD PUSH1 0x1 PUSH1 0x1 PUSH1 0xA0 SHL SUB AND PUSH2 0x22FF JUMP JUMPDEST PUSH1 0x1 PUSH1 0xB PUSH2 0x8F3 PUSH2 0x3F21 JUMP JUMPDEST SWAP1 PUSH2 0x100 EXP SWAP1 DIV PUSH1 0x1 PUSH1 0x1 PUSH1 0xA0 SHL SUB AND DUP2 JUMP JUMPDEST PUSH1 0x8 DUP1 PUSH2 0x911 PUSH2 0x3F21 JUMP JUMPDEST PUSH1 0x1 DUP2 PUSH1 0x1 AND ISZERO PUSH2 0x100 MUL SUB AND PUSH1 0x2 SWAP1 DIV DUP1 PUSH1 0x1F ADD PUSH1 0x20 DUP1 SWAP2 DIV MUL PUSH1 0x20 ADD PUSH1 0x40 MLOAD SWAP1 DUP2 ADD PUSH1 0x40 MSTORE DUP2 DUP2 MSTORE SWAP2 SWAP1 PUSH1 0x20 DUP4 ADD DUP3 DUP1 PUSH2 0x94B PUSH2 0x3F21 JUMP JUMPDEST PUSH1 0x1 DUP2 PUSH1 0x1 AND ISZERO PUSH2 0x100 MUL SUB AND PUSH1 0x2 SWAP1 DIV DUP1 ISZERO PUSH2 0x9B7 JUMPI DUP1 PUSH1 0x1F LT PUSH2 0x985 JUMPI PUSH2 0x100 DUP1 DUP4 PUSH2 0x977 PUSH2 0x3F21 JUMP JUMPDEST DIV MUL DUP4 MSTORE SWAP2 PUSH1 0x20 ADD SWAP2 PUSH2 0x9B7 JUMP JUMPDEST DUP3 ADD SWAP2 SWAP1 PUSH1 0x0 MSTORE PUSH1 0x20 PUSH1 0x0 KECCAK256 SWAP1 JUMPDEST DUP2 PUSH2 0x99C PUSH2 0x3F21 JUMP JUMPDEST DUP2 MSTORE SWAP1 PUSH1 0x1 ADD SWAP1 PUSH1 0x20 ADD DUP1 DUP4 GT PUSH2 0x993 JUMPI DUP3 SWAP1 SUB PUSH1 0x1F AND DUP3 ADD SWAP2 JUMPDEST POP POP POP POP POP DUP2 JUMP JUMPDEST PUSH1 0x0 PUSH2 0x9C9 PUSH2 0x24DB JUMP JUMPDEST PUSH1 0x0 DUP1 PUSH1 0x6 PUSH2 0x9D6 PUSH2 0x3F21 JUMP JUMPDEST SWAP1 PUSH2 0x100 EXP SWAP1 DIV PUSH1 0x1 PUSH1 0x1 PUSH1 0xA0 SHL SUB AND SWAP1 POP PUSH1 0x7 PUSH1 0x0 SWAP1 PUSH2 0x9F5 PUSH2 0x3F21 JUMP JUMPDEST SWAP1 PUSH2 0x100 EXP SWAP1 DIV PUSH1 0x1 PUSH1 0x1 PUSH1 0xA0 SHL SUB AND PUSH1 0x1 PUSH1 0x1 PUSH1 0xA0 SHL SUB AND PUSH4 0xDA46098C DUP3 DUP7 DUP7 PUSH1 0x40 MLOAD PUSH1 0x1 PUSH1 0x1 PUSH1 0xE0 SHL SUB NOT PUSH1 0xE0 DUP7 SWAP1 SHL AND DUP2 MSTORE PUSH1 0x1 PUSH1 0x1 PUSH1 0xA0 SHL SUB SWAP4 DUP5 AND PUSH1 0x4 DUP3 ADD MSTORE SWAP2 SWAP1 SWAP3 AND PUSH1 0x24 DUP3 ADD MSTORE PUSH1 0x44 DUP2 ADD SWAP2 SWAP1 SWAP2 MSTORE PUSH1 0x64 ADD PUSH1 0x0 PUSH1 0x40 MLOAD DUP1 DUP4 SUB DUP2 PUSH1 0x0 DUP8 DUP1 PUSH2 0xA63 PUSH2 0x3F7C JUMP JUMPDEST ISZERO DUP1 ISZERO PUSH2 0xA78 JUMPI PUSH1 0x0 DUP1 PUSH2 0xA75 PUSH2 0x3EB6 JUMP JUMPDEST POP POP JUMPDEST POP GAS PUSH2 0xA82 PUSH2 0x3FC8 JUMP JUMPDEST POP POP POP POP POP POP ISZERO DUP1 ISZERO PUSH2 0xAA2 JUMPI RETURNDATASIZE PUSH1 0x0 DUP1 RETURNDATACOPY RETURNDATASIZE PUSH1 0x0 PUSH2 0xA9F PUSH2 0x3EB6 JUMP JUMPDEST POP POP JUMPDEST POP POP POP POP PUSH2 0xAB1 DUP2 DUP6 DUP6 PUSH2 0x25B3 JUMP JUMPDEST PUSH1 0x1 SWAP2 POP POP JUMPDEST SWAP3 SWAP2 POP POP JUMP JUMPDEST PUSH2 0xAC5 PUSH2 0x272C JUMP JUMPDEST DUP1 PUSH1 0x5 PUSH1 0x1 DUP2 PUSH2 0xAD3 PUSH2 0x3F21 JUMP JUMPDEST DUP2 PUSH1 0x1 PUSH1 0x1 PUSH1 0xA0 SHL SUB MUL NOT AND SWAP1 DUP4 PUSH1 0x1 PUSH1 0x1 PUSH1 0xA0 SHL SUB AND MUL OR SWAP1 PUSH2 0xAF5 PUSH2 0x4081 JUMP JUMPDEST POP POP POP POP JUMP JUMPDEST PUSH2 0xB03 PUSH2 0x272C JUMP JUMPDEST DUP1 PUSH1 0x1 DUP1 DUP1 PUSH2 0xB10 PUSH2 0x3F21 JUMP JUMPDEST DUP2 PUSH1 0x1 PUSH1 0x1 PUSH1 0xA0 SHL SUB MUL NOT AND SWAP1 DUP4 PUSH1 0x1 PUSH1 0x1 PUSH1 0xA0 SHL SUB AND MUL OR SWAP1 PUSH2 0xB32 PUSH2 0x4081 JUMP JUMPDEST POP POP POP PUSH32 0x906A1C6BD7E3091EA86693DD029A831C19049CE77F1DCE2CE0BAB1CACBABCE22 DUP2 PUSH1 0x40 MLOAD PUSH1 0x1 PUSH1 0x1 PUSH1 0xA0 SHL SUB SWAP1 SWAP2 AND DUP2 MSTORE PUSH1 0x20 ADD PUSH1 0x40 MLOAD DUP1 SWAP2 SUB SWAP1 LOG1 POP JUMP JUMPDEST PUSH1 0x2 PUSH2 0xB7F PUSH2 0x3F21 JUMP JUMPDEST DUP2 JUMP JUMPDEST PUSH1 0xA PUSH2 0xB7F PUSH2 0x3F21 JUMP JUMPDEST PUSH2 0xB94 PUSH2 0x272C JUMP JUMPDEST PUSH1 0x1 PUSH1 0x1 PUSH1 0xA0 SHL SUB DUP2 AND PUSH2 0xBF7 JUMPI PUSH1 0x40 MLOAD PUSH3 0x461BCD PUSH1 0xE5 SHL DUP2 MSTORE PUSH1 0x20 PUSH1 0x4 DUP3 ADD MSTORE PUSH1 0x1C PUSH1 0x24 DUP3 ADD MSTORE PUSH32 0x42656E6566696369617279206D757374206E6F74206265207A65726F00000000 PUSH1 0x44 DUP3 ADD MSTORE PUSH1 0x64 ADD PUSH1 0x40 MLOAD DUP1 SWAP2 SUB SWAP1 PUSH2 0xBF4 PUSH2 0x3EB6 JUMP JUMPDEST POP POP JUMPDEST DUP1 PUSH1 0x3 PUSH2 0x100 DUP2 PUSH2 0xC06 PUSH2 0x3F21 JUMP JUMPDEST DUP2 PUSH1 0x1 PUSH1 0x1 PUSH1 0xA0 SHL SUB MUL NOT AND SWAP1 DUP4 PUSH1 0x1 PUSH1 0x1 PUSH1 0xA0 SHL SUB AND MUL OR SWAP1 PUSH2 0xC28 PUSH2 0x4081 JUMP JUMPDEST POP POP POP PUSH32 0xD5DA63A0B864B315BC04128DEDBC93888C8529EE6CF47CE664DC204339228C53 DUP2 PUSH1 0x40 MLOAD PUSH1 0x1 PUSH1 0x1 PUSH1 0xA0 SHL SUB SWAP1 SWAP2 AND DUP2 MSTORE PUSH1 0x20 ADD PUSH1 0x40 MLOAD DUP1 SWAP2 SUB SWAP1 LOG1 POP JUMP JUMPDEST PUSH1 0x0 PUSH2 0xC75 PUSH2 0x24DB JUMP JUMPDEST PUSH2 0xC7F DUP5 DUP4 PUSH2 0x27A4 JUMP JUMPDEST PUSH2 0xC8A DUP5 DUP5 DUP5 PUSH2 0x2998 JUMP JUMPDEST SWAP5 SWAP4 POP POP POP POP JUMP JUMPDEST PUSH1 0x12 DUP2 JUMP JUMPDEST PUSH1 0x0 PUSH1 0xB PUSH2 0xCA3 PUSH2 0x3F21 JUMP JUMPDEST SWAP1 PUSH2 0x100 EXP SWAP1 DIV PUSH1 0xFF AND DUP2 JUMP JUMPDEST PUSH2 0xCB8 PUSH2 0x272C JUMP JUMPDEST PUSH1 0x0 DUP1 PUSH1 0x2 PUSH2 0xCC5 PUSH2 0x4081 JUMP JUMPDEST POP POP POP PUSH1 0x0 PUSH1 0x3 PUSH1 0x0 PUSH2 0x100 EXP DUP2 PUSH2 0xCDB PUSH2 0x3F21 JUMP JUMPDEST DUP2 PUSH1 0xFF MUL NOT AND SWAP1 DUP4 ISZERO ISZERO MUL OR SWAP1 PUSH2 0xCF0 PUSH2 0x4081 JUMP JUMPDEST POP POP POP PUSH32 0x6ADCC7125002935E0AA31697538EBBD65CFDDF20431EB6ECDCFC3E238BFD082C PUSH1 0x40 MLOAD PUSH1 0x40 MLOAD DUP1 SWAP2 SUB SWAP1 LOG1 JUMP JUMPDEST PUSH2 0xD29 PUSH2 0x272C JUMP JUMPDEST DUP1 PUSH1 0xB PUSH2 0x100 DUP2 PUSH2 0xD38 PUSH2 0x3F21 JUMP JUMPDEST DUP2 PUSH1 0x1 PUSH1 0x1 PUSH1 0xA0 SHL SUB MUL NOT AND SWAP1 DUP4 PUSH1 0x1 PUSH1 0x1 PUSH1 0xA0 SHL SUB AND MUL OR SWAP1 PUSH2 0xD5A PUSH2 0x4081 JUMP JUMPDEST POP PUSH1 0x0 SWAP2 POP POP JUMPDEST PUSH1 0xD DUP1 PUSH2 0xD6C PUSH2 0x3F21 JUMP JUMPDEST SWAP1 POP DUP2 LT ISZERO PUSH2 0xEE8 JUMPI PUSH1 0x0 PUSH1 0xD DUP3 DUP2 PUSH2 0xD83 PUSH2 0x3F21 JUMP JUMPDEST DUP2 LT PUSH2 0xD8B JUMPI INVALID JUMPDEST SWAP1 PUSH1 0x0 MSTORE PUSH1 0x20 PUSH1 0x0 KECCAK256 ADD PUSH2 0xD9D PUSH2 0x3F21 JUMP JUMPDEST SWAP1 POP PUSH1 0x1 PUSH1 0xB PUSH2 0xDAB PUSH2 0x3F21 JUMP JUMPDEST SWAP1 PUSH2 0x100 EXP SWAP1 DIV PUSH1 0x1 PUSH1 0x1 PUSH1 0xA0 SHL SUB AND PUSH1 0x1 PUSH1 0x1 PUSH1 0xA0 SHL SUB AND PUSH4 0xDACB2D01 DUP3 PUSH1 0x40 MLOAD PUSH1 0x1 PUSH1 0x1 PUSH1 0xE0 SHL SUB NOT PUSH1 0xE0 DUP5 SWAP1 SHL AND DUP2 MSTORE PUSH1 0x4 DUP2 ADD SWAP2 SWAP1 SWAP2 MSTORE PUSH1 0x40 PUSH1 0x24 DUP3 ADD DUP2 SWAP1 MSTORE PUSH1 0x17 PUSH1 0x44 DUP4 ADD MSTORE PUSH32 0x5265736F6C766572206D697373696E6720746172676574000000000000000000 PUSH1 0x64 DUP4 ADD MSTORE PUSH1 0x84 SWAP1 SWAP2 ADD SWAP1 PUSH1 0x20 SWAP1 MLOAD DUP1 DUP4 SUB DUP2 DUP7 DUP1 PUSH2 0xE34 PUSH2 0x3F7C JUMP JUMPDEST ISZERO DUP1 ISZERO PUSH2 0xE49 JUMPI PUSH1 0x0 DUP1 PUSH2 0xE46 PUSH2 0x3EB6 JUMP JUMPDEST POP POP JUMPDEST POP GAS PUSH2 0xE53 PUSH2 0x40CF JUMP JUMPDEST POP POP POP POP POP ISZERO DUP1 ISZERO PUSH2 0xE72 JUMPI RETURNDATASIZE PUSH1 0x0 DUP1 RETURNDATACOPY RETURNDATASIZE PUSH1 0x0 PUSH2 0xE6F PUSH2 0x3EB6 JUMP JUMPDEST POP POP JUMPDEST POP POP POP POP PUSH1 0x40 MLOAD RETURNDATASIZE PUSH1 0x20 DUP2 LT ISZERO PUSH2 0xE91 JUMPI PUSH1 0x0 DUP1 PUSH2 0xE8E PUSH2 0x3EB6 JUMP JUMPDEST POP POP JUMPDEST DUP2 ADD SWAP1 DUP1 DUP1 MLOAD PUSH1 0x0 DUP6 DUP2 MSTORE PUSH1 0xC PUSH1 0x20 MSTORE SWAP1 SWAP4 POP PUSH1 0x40 SWAP3 POP SWAP1 POP KECCAK256 PUSH1 0x1 DUP2 PUSH2 0xEB6 PUSH2 0x3F21 JUMP JUMPDEST DUP2 PUSH1 0x1 PUSH1 0x1 PUSH1 0xA0 SHL SUB MUL NOT AND SWAP1 DUP4 PUSH1 0x1 PUSH1 0x1 PUSH1 0xA0 SHL SUB AND MUL OR SWAP1 PUSH2 0xED8 PUSH2 0x4081 JUMP JUMPDEST POP POP PUSH1 0x1 SWAP1 SWAP3 ADD SWAP2 POP PUSH2 0xD61 SWAP1 POP JUMP JUMPDEST POP POP JUMP JUMPDEST PUSH1 0x0 PUSH1 0x1 PUSH2 0x8F3 PUSH2 0x3F21 JUMP JUMPDEST PUSH1 0x0 PUSH1 0x1 PUSH1 0x1 PUSH1 0xA0 SHL SUB DUP3 AND PUSH1 0x1 PUSH1 0xB PUSH2 0xF10 PUSH2 0x3F21 JUMP JUMPDEST SWAP1 PUSH2 0x100 EXP SWAP1 DIV PUSH1 0x1 PUSH1 0x1 PUSH1 0xA0 SHL SUB AND PUSH1 0x1 PUSH1 0x1 PUSH1 0xA0 SHL SUB AND EQ PUSH2 0xF36 JUMPI POP PUSH1 0x0 PUSH2 0x10D0 JUMP JUMPDEST PUSH1 0x0 JUMPDEST PUSH1 0xD DUP1 PUSH2 0xF44 PUSH2 0x3F21 JUMP JUMPDEST SWAP1 POP DUP2 LT ISZERO PUSH2 0x10CA JUMPI PUSH1 0x0 PUSH1 0xD DUP3 DUP2 PUSH2 0xF5B PUSH2 0x3F21 JUMP JUMPDEST DUP2 LT PUSH2 0xF63 JUMPI INVALID JUMPDEST SWAP1 PUSH1 0x0 MSTORE PUSH1 0x20 PUSH1 0x0 KECCAK256 ADD PUSH2 0xF75 PUSH2 0x3F21 JUMP JUMPDEST PUSH1 0x0 DUP2 DUP2 MSTORE PUSH1 0xC PUSH1 0x20 MSTORE SWAP1 SWAP2 POP PUSH1 0x40 SWAP1 KECCAK256 PUSH1 0x0 SWAP1 PUSH2 0xF91 PUSH2 0x3F21 JUMP JUMPDEST PUSH1 0x1 PUSH1 0x1 PUSH1 0xA0 SHL SUB PUSH2 0x100 SWAP3 SWAP1 SWAP3 EXP SWAP1 DIV AND PUSH1 0x1 PUSH1 0xB PUSH2 0xFAF PUSH2 0x3F21 JUMP JUMPDEST SWAP1 PUSH2 0x100 EXP SWAP1 DIV PUSH1 0x1 PUSH1 0x1 PUSH1 0xA0 SHL SUB AND PUSH1 0x1 PUSH1 0x1 PUSH1 0xA0 SHL SUB AND PUSH4 0x21F8A721 DUP4 PUSH1 0x40 MLOAD PUSH1 0x1 PUSH1 0x1 PUSH1 0xE0 SHL SUB NOT PUSH1 0xE0 DUP5 SWAP1 SHL AND DUP2 MSTORE PUSH1 0x4 DUP2 ADD SWAP2 SWAP1 SWAP2 MSTORE PUSH1 0x24 ADD PUSH1 0x20 PUSH1 0x40 MLOAD DUP1 DUP4 SUB DUP2 DUP7 DUP1 PUSH2 0x1000 PUSH2 0x3F7C JUMP JUMPDEST ISZERO DUP1 ISZERO PUSH2 0x1015 JUMPI PUSH1 0x0 DUP1 PUSH2 0x1012 PUSH2 0x3EB6 JUMP JUMPDEST POP POP JUMPDEST POP GAS PUSH2 0x101F PUSH2 0x40CF JUMP JUMPDEST POP POP POP POP POP ISZERO DUP1 ISZERO PUSH2 0x103E JUMPI RETURNDATASIZE PUSH1 0x0 DUP1 RETURNDATACOPY RETURNDATASIZE PUSH1 0x0 PUSH2 0x103B PUSH2 0x3EB6 JUMP JUMPDEST POP POP JUMPDEST POP POP POP POP PUSH1 0x40 MLOAD RETURNDATASIZE PUSH1 0x20 DUP2 LT ISZERO PUSH2 0x105D JUMPI PUSH1 0x0 DUP1 PUSH2 0x105A PUSH2 0x3EB6 JUMP JUMPDEST POP POP JUMPDEST DUP2 ADD SWAP1 DUP1 DUP1 MLOAD PUSH1 0x1 PUSH1 0x1 PUSH1 0xA0 SHL SUB AND SWAP4 SWAP1 SWAP4 EQ ISZERO SWAP3 POP DUP3 SWAP2 POP PUSH2 0x10B1 SWAP1 POP JUMPI POP PUSH1 0x0 DUP2 DUP2 MSTORE PUSH1 0xC PUSH1 0x20 MSTORE PUSH1 0x40 DUP2 KECCAK256 PUSH1 0x0 SWAP1 PUSH2 0x1096 PUSH2 0x3F21 JUMP JUMPDEST SWAP1 PUSH2 0x100 EXP SWAP1 DIV PUSH1 0x1 PUSH1 0x1 PUSH1 0xA0 SHL SUB AND PUSH1 0x1 PUSH1 0x1 PUSH1 0xA0 SHL SUB AND EQ JUMPDEST ISZERO PUSH2 0x10C1 JUMPI PUSH1 0x0 SWAP3 POP POP POP PUSH2 0x10D0 JUMP JUMPDEST POP PUSH1 0x1 ADD PUSH2 0xF39 JUMP JUMPDEST POP PUSH1 0x1 SWAP1 POP JUMPDEST SWAP2 SWAP1 POP JUMP JUMPDEST PUSH1 0x0 DUP1 PUSH1 0x7 PUSH2 0x10E2 PUSH2 0x3F21 JUMP JUMPDEST SWAP1 PUSH2 0x100 EXP SWAP1 DIV PUSH1 0x1 PUSH1 0x1 PUSH1 0xA0 SHL SUB AND PUSH1 0x1 PUSH1 0x1 PUSH1 0xA0 SHL SUB AND PUSH4 0x70A08231 DUP4 PUSH1 0x40 MLOAD PUSH1 0x1 PUSH1 0x1 PUSH1 0xE0 SHL SUB NOT PUSH1 0xE0 DUP5 SWAP1 SHL AND DUP2 MSTORE PUSH1 0x1 PUSH1 0x1 PUSH1 0xA0 SHL SUB SWAP1 SWAP2 AND PUSH1 0x4 DUP3 ADD MSTORE PUSH1 0x24 ADD PUSH1 0x20 PUSH1 0x40 MLOAD DUP1 DUP4 SUB DUP2 DUP7 DUP1 PUSH2 0x113B PUSH2 0x3F7C JUMP JUMPDEST ISZERO DUP1 ISZERO PUSH2 0x1150 JUMPI PUSH1 0x0 DUP1 PUSH2 0x114D PUSH2 0x3EB6 JUMP JUMPDEST POP POP JUMPDEST POP GAS PUSH2 0x115A PUSH2 0x40CF JUMP JUMPDEST POP POP POP POP POP ISZERO DUP1 ISZERO PUSH2 0x1179 JUMPI RETURNDATASIZE PUSH1 0x0 DUP1 RETURNDATACOPY RETURNDATASIZE PUSH1 0x0 PUSH2 0x1176 PUSH2 0x3EB6 JUMP JUMPDEST POP POP JUMPDEST POP POP POP POP PUSH1 0x40 MLOAD RETURNDATASIZE PUSH1 0x20 DUP2 LT ISZERO PUSH2 0x1198 JUMPI PUSH1 0x0 DUP1 PUSH2 0x1195 PUSH2 0x3EB6 JUMP JUMPDEST POP POP JUMPDEST DUP2 ADD SWAP1 DUP1 DUP1 MLOAD SWAP6 SWAP5 POP POP POP POP POP JUMP JUMPDEST PUSH1 0x0 PUSH1 0x1 PUSH2 0x11B3 PUSH2 0x3F21 JUMP JUMPDEST SWAP1 PUSH2 0x100 EXP SWAP1 DIV PUSH1 0x1 PUSH1 0x1 PUSH1 0xA0 SHL SUB AND PUSH1 0x1 PUSH1 0x1 PUSH1 0xA0 SHL SUB AND GAS PUSH2 0x11D5 PUSH2 0x4188 JUMP JUMPDEST PUSH1 0x1 PUSH1 0x1 PUSH1 0xA0 SHL SUB AND EQ PUSH2 0x1223 JUMPI PUSH1 0x40 MLOAD PUSH3 0x461BCD PUSH1 0xE5 SHL DUP2 MSTORE PUSH1 0x4 ADD DUP1 DUP1 PUSH1 0x20 ADD DUP3 DUP2 SUB DUP3 MSTORE PUSH1 0x35 DUP2 MSTORE PUSH1 0x20 ADD DUP1 PUSH2 0x4232 PUSH1 0x35 SWAP2 CODECOPY PUSH1 0x40 ADD SWAP2 POP POP PUSH1 0x40 MLOAD DUP1 SWAP2 SUB SWAP1 PUSH2 0x1220 PUSH2 0x3EB6 JUMP JUMPDEST POP POP JUMPDEST PUSH32 0xB532073B38C83145E3E5135377A08BF9AAB55BC0FD7C1179CD4FB995D2A5159C PUSH1 0x0 DUP1 PUSH2 0x124F PUSH2 0x3F21 JUMP JUMPDEST SWAP1 PUSH2 0x100 EXP SWAP1 DIV PUSH1 0x1 PUSH1 0x1 PUSH1 0xA0 SHL SUB AND PUSH1 0x1 PUSH1 0x0 SWAP1 PUSH2 0x126C PUSH2 0x3F21 JUMP JUMPDEST SWAP1 PUSH2 0x100 EXP SWAP1 DIV PUSH1 0x1 PUSH1 0x1 PUSH1 0xA0 SHL SUB AND PUSH1 0x40 MLOAD PUSH1 0x1 PUSH1 0x1 PUSH1 0xA0 SHL SUB SWAP3 DUP4 AND DUP2 MSTORE SWAP2 AND PUSH1 0x20 DUP3 ADD MSTORE PUSH1 0x40 SWAP1 DUP2 ADD SWAP1 MLOAD DUP1 SWAP2 SUB SWAP1 LOG1 PUSH1 0x0 PUSH1 0x1 PUSH2 0x12AB PUSH2 0x3F21 JUMP JUMPDEST SWAP1 PUSH2 0x100 EXP SWAP1 DIV PUSH1 0x1 PUSH1 0x1 PUSH1 0xA0 SHL SUB AND PUSH1 0x0 DUP1 PUSH2 0x100 EXP DUP2 PUSH2 0x12CB PUSH2 0x3F21 JUMP JUMPDEST DUP2 PUSH1 0x1 PUSH1 0x1 PUSH1 0xA0 SHL SUB MUL NOT AND SWAP1 DUP4 PUSH1 0x1 PUSH1 0x1 PUSH1 0xA0 SHL SUB AND MUL OR SWAP1 PUSH2 0x12ED PUSH2 0x4081 JUMP JUMPDEST POP POP POP PUSH1 0x0 PUSH1 0x1 PUSH1 0x0 PUSH2 0x100 EXP DUP2 PUSH2 0x1303 PUSH2 0x3F21 JUMP JUMPDEST DUP2 PUSH1 0x1 PUSH1 0x1 PUSH1 0xA0 SHL SUB MUL NOT AND SWAP1 DUP4 PUSH1 0x1 PUSH1 0x1 PUSH1 0xA0 SHL SUB AND MUL OR SWAP1 PUSH2 0x1325 PUSH2 0x4081 JUMP JUMPDEST POP POP POP JUMP JUMPDEST PUSH1 0x27 PUSH2 0xB7F PUSH2 0x3F21 JUMP JUMPDEST PUSH1 0x0 PUSH2 0x133E PUSH2 0x2C63 JUMP JUMPDEST PUSH1 0x1 PUSH1 0x1 PUSH1 0xA0 SHL SUB AND GAS PUSH2 0x1350 PUSH2 0x4188 JUMP JUMPDEST PUSH1 0x1 PUSH1 0x1 PUSH1 0xA0 SHL SUB AND EQ SWAP1 POP PUSH1 0x0 PUSH2 0x1366 PUSH2 0x2CB1 JUMP JUMPDEST PUSH1 0x1 PUSH1 0x1 PUSH1 0xA0 SHL SUB AND GAS PUSH2 0x1378 PUSH2 0x4188 JUMP JUMPDEST PUSH1 0x1 PUSH1 0x1 PUSH1 0xA0 SHL SUB AND EQ SWAP1 POP PUSH1 0x0 PUSH2 0x138E PUSH2 0x2CFC JUMP JUMPDEST PUSH1 0x1 PUSH1 0x1 PUSH1 0xA0 SHL SUB AND GAS PUSH2 0x13A0 PUSH2 0x4188 JUMP JUMPDEST PUSH1 0x1 PUSH1 0x1 PUSH1 0xA0 SHL SUB AND EQ SWAP1 POP DUP3 DUP1 PUSH2 0x13B5 JUMPI POP DUP2 JUMPDEST DUP1 PUSH2 0x13BD JUMPI POP DUP1 JUMPDEST PUSH2 0x1401 JUMPI PUSH1 0x40 MLOAD PUSH3 0x461BCD PUSH1 0xE5 SHL DUP2 MSTORE PUSH1 0x4 ADD DUP1 DUP1 PUSH1 0x20 ADD DUP3 DUP2 SUB DUP3 MSTORE PUSH1 0x33 DUP2 MSTORE PUSH1 0x20 ADD DUP1 PUSH2 0x4296 PUSH1 0x33 SWAP2 CODECOPY PUSH1 0x40 ADD SWAP2 POP POP PUSH1 0x40 MLOAD DUP1 SWAP2 SUB SWAP1 PUSH2 0x13FE PUSH2 0x3EB6 JUMP JUMPDEST POP POP JUMPDEST PUSH2 0x140B DUP6 DUP6 PUSH2 0x2D3D JUMP JUMPDEST POP POP POP POP POP JUMP JUMPDEST PUSH1 0x0 DUP1 PUSH2 0x8F3 PUSH2 0x3F21 JUMP JUMPDEST PUSH1 0x9 DUP1 PUSH2 0x1428 PUSH2 0x3F21 JUMP JUMPDEST PUSH1 0x1 DUP2 PUSH1 0x1 AND ISZERO PUSH2 0x100 MUL SUB AND PUSH1 0x2 SWAP1 DIV DUP1 PUSH1 0x1F ADD PUSH1 0x20 DUP1 SWAP2 DIV MUL PUSH1 0x20 ADD PUSH1 0x40 MLOAD SWAP1 DUP2 ADD PUSH1 0x40 MSTORE DUP2 DUP2 MSTORE SWAP2 SWAP1 PUSH1 0x20 DUP4 ADD DUP3 DUP1 PUSH2 0x1462 PUSH2 0x3F21 JUMP JUMPDEST PUSH1 0x1 DUP2 PUSH1 0x1 AND ISZERO PUSH2 0x100 MUL SUB AND PUSH1 0x2 SWAP1 DIV DUP1 ISZERO PUSH2 0x9B7 JUMPI DUP1 PUSH1 0x1F LT PUSH2 0x148E JUMPI PUSH2 0x100 DUP1 DUP4 PUSH2 0x977 PUSH2 0x3F21 JUMP JUMPDEST DUP3 ADD SWAP2 SWAP1 PUSH1 0x0 MSTORE PUSH1 0x20 PUSH1 0x0 KECCAK256 SWAP1 JUMPDEST DUP2 PUSH2 0x14A5 PUSH2 0x3F21 JUMP JUMPDEST DUP2 MSTORE SWAP1 PUSH1 0x1 ADD SWAP1 PUSH1 0x20 ADD DUP1 DUP4 GT PUSH2 0x149C JUMPI POP DUP6 SWAP4 POP POP POP POP JUMP JUMPDEST PUSH2 0x14C7 PUSH2 0x272C JUMP JUMPDEST DUP1 PUSH1 0x4 PUSH1 0x1 DUP2 PUSH2 0x14D5 PUSH2 0x3F21 JUMP JUMPDEST DUP2 PUSH1 0x1 PUSH1 0x1 PUSH1 0xA0 SHL SUB MUL NOT AND SWAP1 DUP4 PUSH1 0x1 PUSH1 0x1 PUSH1 0xA0 SHL SUB AND MUL OR SWAP1 PUSH2 0x14F7 PUSH2 0x4081 JUMP JUMPDEST POP POP POP PUSH32 0xFC80377CA9C49CC11AE6982F390A42DB976D5530AF7C43889264B13FBBD7C57E DUP2 PUSH1 0x40 MLOAD PUSH1 0x1 PUSH1 0x1 PUSH1 0xA0 SHL SUB SWAP1 SWAP2 AND DUP2 MSTORE PUSH1 0x20 ADD PUSH1 0x40 MLOAD DUP1 SWAP2 SUB SWAP1 LOG1 POP JUMP JUMPDEST PUSH2 0x1542 PUSH2 0x272C JUMP JUMPDEST PUSH1 0x0 PUSH1 0x3 PUSH2 0x154E PUSH2 0x3F21 JUMP JUMPDEST SWAP1 PUSH2 0x100 EXP SWAP1 DIV PUSH1 0xFF AND PUSH2 0x15B1 JUMPI PUSH1 0x40 MLOAD PUSH3 0x461BCD PUSH1 0xE5 SHL DUP2 MSTORE PUSH1 0x20 PUSH1 0x4 DUP3 ADD MSTORE PUSH1 0x1F PUSH1 0x24 DUP3 ADD MSTORE PUSH32 0x53656C66204465737472756374206E6F742079657420696E6974696174656400 PUSH1 0x44 DUP3 ADD MSTORE PUSH1 0x64 ADD PUSH1 0x40 MLOAD DUP1 SWAP2 SUB SWAP1 PUSH2 0x15AE PUSH2 0x3EB6 JUMP JUMPDEST POP POP JUMPDEST GAS PUSH2 0x15BA PUSH2 0x41CE JUMP JUMPDEST PUSH3 0x24EA00 PUSH1 0x2 PUSH2 0x15C8 PUSH2 0x3F21 JUMP JUMPDEST ADD LT PUSH2 0x1623 JUMPI PUSH1 0x40 MLOAD PUSH3 0x461BCD PUSH1 0xE5 SHL DUP2 MSTORE PUSH1 0x20 PUSH1 0x4 DUP3 ADD MSTORE PUSH1 0x1B PUSH1 0x24 DUP3 ADD MSTORE PUSH32 0x53656C662064657374727563742064656C6179206E6F74206D65740000000000 PUSH1 0x44 DUP3 ADD MSTORE PUSH1 0x64 ADD PUSH1 0x40 MLOAD DUP1 SWAP2 SUB SWAP1 PUSH2 0x1620 PUSH2 0x3EB6 JUMP JUMPDEST POP POP JUMPDEST PUSH32 0x8A09E1677CED846CB537DC2B172043BD05A1A81AD7E0033A7EF8BA762DF990B7 PUSH1 0x1 PUSH1 0x3 PUSH2 0x1650 PUSH2 0x3F21 JUMP JUMPDEST SWAP1 PUSH2 0x100 EXP SWAP1 DIV PUSH1 0x1 PUSH1 0x1 PUSH1 0xA0 SHL SUB AND PUSH1 0x40 MLOAD PUSH1 0x1 PUSH1 0x1 PUSH1 0xA0 SHL SUB SWAP1 SWAP2 AND DUP2 MSTORE PUSH1 0x20 ADD PUSH1 0x40 MLOAD DUP1 SWAP2 SUB SWAP1 LOG1 JUMP JUMPDEST PUSH1 0x0 PUSH1 0x5 PUSH2 0x8F3 PUSH2 0x3F21 JUMP JUMPDEST PUSH1 0x0 PUSH2 0x1693 PUSH2 0x2C63 JUMP JUMPDEST PUSH1 0x1 PUSH1 0x1 PUSH1 0xA0 SHL SUB AND GAS PUSH2 0x16A5 PUSH2 0x4188 JUMP JUMPDEST PUSH1 0x1 PUSH1 0x1 PUSH1 0xA0 SHL SUB AND EQ SWAP1 POP PUSH1 0x0 PUSH2 0x16BB PUSH2 0x2CB1 JUMP JUMPDEST PUSH1 0x1 PUSH1 0x1 PUSH1 0xA0 SHL SUB AND GAS PUSH2 0x16CD PUSH2 0x4188 JUMP JUMPDEST PUSH1 0x1 PUSH1 0x1 PUSH1 0xA0 SHL SUB AND EQ SWAP1 POP PUSH1 0x0 PUSH2 0x16E3 PUSH2 0x2CFC JUMP JUMPDEST PUSH1 0x1 PUSH1 0x1 PUSH1 0xA0 SHL SUB AND GAS PUSH2 0x16F5 PUSH2 0x4188 JUMP JUMPDEST PUSH1 0x1 PUSH1 0x1 PUSH1 0xA0 SHL SUB AND EQ SWAP1 POP DUP3 DUP1 PUSH2 0x170A JUMPI POP DUP2 JUMPDEST DUP1 PUSH2 0x1712 JUMPI POP DUP1 JUMPDEST PUSH2 0x1756 JUMPI PUSH1 0x40 MLOAD PUSH3 0x461BCD PUSH1 0xE5 SHL DUP2 MSTORE PUSH1 0x4 ADD DUP1 DUP1 PUSH1 0x20 ADD DUP3 DUP2 SUB DUP3 MSTORE PUSH1 0x33 DUP2 MSTORE PUSH1 0x20 ADD DUP1 PUSH2 0x4296 PUSH1 0x33 SWAP2 CODECOPY PUSH1 0x40 ADD SWAP2 POP POP PUSH1 0x40 MLOAD DUP1 SWAP2 SUB SWAP1 PUSH2 0x1753 PUSH2 0x3EB6 JUMP JUMPDEST POP POP JUMPDEST PUSH2 0x1760 DUP6 DUP6 PUSH2 0x2F00 JUMP JUMPDEST POP POP POP POP POP POP JUMP JUMPDEST PUSH2 0x1770 PUSH2 0x3059 JUMP JUMPDEST DUP1 PUSH1 0x7 PUSH1 0x1 DUP2 PUSH2 0x177E PUSH2 0x3F21 JUMP JUMPDEST DUP2 PUSH1 0x1 PUSH1 0x1 PUSH1 0xA0 SHL SUB MUL NOT AND SWAP1 DUP4 PUSH1 0x1 PUSH1 0x1 PUSH1 0xA0 SHL SUB AND MUL OR SWAP1 PUSH2 0x17A0 PUSH2 0x4081 JUMP JUMPDEST POP POP POP PUSH2 0x17AC DUP2 PUSH2 0x31E4 JUMP JUMPDEST POP JUMP JUMPDEST PUSH3 0x24EA00 DUP2 JUMP JUMPDEST PUSH1 0x0 PUSH2 0x17C0 PUSH2 0x24DB JUMP JUMPDEST PUSH2 0x17E5 PUSH1 0x0 PUSH1 0x6 PUSH2 0x17CF PUSH2 0x3F21 JUMP JUMPDEST SWAP1 PUSH2 0x100 EXP SWAP1 DIV PUSH1 0x1 PUSH1 0x1 PUSH1 0xA0 SHL SUB AND DUP4 PUSH2 0x27A4 JUMP JUMPDEST PUSH1 0x1 PUSH1 0x1 PUSH1 0xA0 SHL SUB DUP4 AND PUSH20 0xFEEFEEFEEFEEFEEFEEFEEFEEFEEFEEFEEFEEFEEF EQ ISZERO PUSH2 0x181B JUMPI PUSH2 0x1814 DUP4 DUP4 PUSH2 0x3368 JUMP JUMPDEST SWAP1 POP PUSH2 0xAB7 JUMP JUMPDEST PUSH1 0x1 PUSH1 0x1 PUSH1 0xA0 SHL SUB DUP4 AND PUSH2 0x184E JUMPI PUSH2 0x1814 PUSH1 0x0 PUSH1 0x6 PUSH2 0x1838 PUSH2 0x3F21 JUMP JUMPDEST SWAP1 PUSH2 0x100 EXP SWAP1 DIV PUSH1 0x1 PUSH1 0x1 PUSH1 0xA0 SHL SUB AND DUP4 PUSH2 0x2F00 JUMP JUMPDEST PUSH2 0x1874 PUSH1 0x0 PUSH1 0x6 PUSH2 0x185D PUSH2 0x3F21 JUMP JUMPDEST SWAP1 PUSH2 0x100 EXP SWAP1 DIV PUSH1 0x1 PUSH1 0x1 PUSH1 0xA0 SHL SUB AND DUP5 DUP5 PUSH2 0x3566 JUMP JUMPDEST SWAP4 SWAP3 POP POP POP JUMP JUMPDEST PUSH2 0x1883 PUSH2 0x4214 JUMP JUMPDEST PUSH1 0x0 JUMPDEST PUSH1 0xD DUP1 PUSH2 0x1891 PUSH2 0x3F21 JUMP JUMPDEST SWAP1 POP DUP2 LT ISZERO PUSH2 0x18D9 JUMPI PUSH1 0xD DUP2 DUP2 PUSH2 0x18A6 PUSH2 0x3F21 JUMP JUMPDEST DUP2 LT PUSH2 0x18AE JUMPI INVALID JUMPDEST SWAP1 PUSH1 0x0 MSTORE PUSH1 0x20 PUSH1 0x0 KECCAK256 ADD PUSH2 0x18C0 PUSH2 0x3F21 JUMP JUMPDEST DUP3 DUP3 PUSH1 0x18 DUP2 LT PUSH2 0x18CC JUMPI INVALID JUMPDEST PUSH1 0x20 MUL ADD MSTORE PUSH1 0x1 ADD PUSH2 0x1886 JUMP JUMPDEST POP SWAP1 JUMP JUMPDEST PUSH2 0x18E5 PUSH2 0x3059 JUMP JUMPDEST PUSH1 0x0 PUSH2 0x18EF PUSH2 0x38B4 JUMP JUMPDEST SWAP1 POP PUSH1 0x0 DUP2 PUSH1 0x1 PUSH1 0x1 PUSH1 0xA0 SHL SUB AND PUSH4 0x654A60AC PUSH1 0x27 PUSH2 0x190C PUSH2 0x3F21 JUMP JUMPDEST PUSH1 0xE PUSH2 0x1916 PUSH2 0x3F21 JUMP JUMPDEST PUSH1 0x40 MLOAD PUSH1 0x1 PUSH1 0x1 PUSH1 0xE0 SHL SUB NOT PUSH1 0xE0 DUP6 SWAP1 SHL AND DUP2 MSTORE PUSH4 0x1CD554D1 PUSH1 0xE2 SHL PUSH1 0x4 DUP3 ADD MSTORE PUSH1 0x24 DUP2 ADD SWAP3 SWAP1 SWAP3 MSTORE PUSH1 0x44 DUP3 ADD MSTORE PUSH1 0x64 ADD PUSH1 0x20 PUSH1 0x40 MLOAD DUP1 DUP4 SUB DUP2 DUP7 DUP1 PUSH2 0x195A PUSH2 0x3F7C JUMP JUMPDEST ISZERO DUP1 ISZERO PUSH2 0x196F JUMPI PUSH1 0x0 DUP1 PUSH2 0x196C PUSH2 0x3EB6 JUMP JUMPDEST POP POP JUMPDEST POP GAS PUSH2 0x1979 PUSH2 0x40CF JUMP JUMPDEST POP POP POP POP POP ISZERO DUP1 ISZERO PUSH2 0x1998 JUMPI RETURNDATASIZE PUSH1 0x0 DUP1 RETURNDATACOPY RETURNDATASIZE PUSH1 0x0 PUSH2 0x1995 PUSH2 0x3EB6 JUMP JUMPDEST POP POP JUMPDEST POP POP POP POP PUSH1 0x40 MLOAD RETURNDATASIZE PUSH1 0x20 DUP2 LT ISZERO PUSH2 0x19B7 JUMPI PUSH1 0x0 DUP1 PUSH2 0x19B4 PUSH2 0x3EB6 JUMP JUMPDEST POP POP JUMPDEST DUP2 ADD SWAP1 DUP1 DUP1 MLOAD SWAP4 POP DUP4 SWAP3 POP PUSH1 0xA SWAP2 POP PUSH2 0x19D0 SWAP1 POP PUSH2 0x3F21 JUMP JUMPDEST GT ISZERO DUP1 PUSH2 0x1A8B JUMPI POP DUP2 PUSH1 0x1 PUSH1 0x1 PUSH1 0xA0 SHL SUB AND PUSH4 0xAF3AEA86 PUSH1 0xE PUSH2 0x19F1 PUSH2 0x3F21 JUMP JUMPDEST PUSH1 0x40 MLOAD PUSH1 0x1 PUSH1 0x1 PUSH1 0xE0 SHL SUB NOT PUSH1 0xE0 DUP5 SWAP1 SHL AND DUP2 MSTORE PUSH1 0x4 DUP2 ADD SWAP2 SWAP1 SWAP2 MSTORE PUSH1 0x24 ADD PUSH1 0x20 PUSH1 0x40 MLOAD DUP1 DUP4 SUB DUP2 DUP7 DUP1 PUSH2 0x1A23 PUSH2 0x3F7C JUMP JUMPDEST ISZERO DUP1 ISZERO PUSH2 0x1A38 JUMPI PUSH1 0x0 DUP1 PUSH2 0x1A35 PUSH2 0x3EB6 JUMP JUMPDEST POP POP JUMPDEST POP GAS PUSH2 0x1A42 PUSH2 0x40CF JUMP JUMPDEST POP POP POP POP POP ISZERO DUP1 ISZERO PUSH2 0x1A61 JUMPI RETURNDATASIZE PUSH1 0x0 DUP1 RETURNDATACOPY RETURNDATASIZE PUSH1 0x0 PUSH2 0x1A5E PUSH2 0x3EB6 JUMP JUMPDEST POP POP JUMPDEST POP POP POP POP PUSH1 0x40 MLOAD RETURNDATASIZE PUSH1 0x20 DUP2 LT ISZERO PUSH2 0x1A80 JUMPI PUSH1 0x0 DUP1 PUSH2 0x1A7D PUSH2 0x3EB6 JUMP JUMPDEST POP POP JUMPDEST DUP2 ADD SWAP1 DUP1 DUP1 MLOAD SWAP3 POP POP POP JUMPDEST PUSH2 0x1ACF JUMPI PUSH1 0x40 MLOAD PUSH3 0x461BCD PUSH1 0xE5 SHL DUP2 MSTORE PUSH1 0x4 ADD DUP1 DUP1 PUSH1 0x20 ADD DUP3 DUP2 SUB DUP3 MSTORE PUSH1 0x47 DUP2 MSTORE PUSH1 0x20 ADD DUP1 PUSH2 0x435F PUSH1 0x47 SWAP2 CODECOPY PUSH1 0x60 ADD SWAP2 POP POP PUSH1 0x40 MLOAD DUP1 SWAP2 SUB SWAP1 PUSH2 0x1ACC PUSH2 0x3EB6 JUMP JUMPDEST POP POP JUMPDEST PUSH1 0x0 JUMPDEST DUP4 DUP2 LT ISZERO PUSH2 0x140B JUMPI PUSH1 0x0 DUP6 DUP6 DUP4 DUP2 DUP2 LT PUSH2 0x1AE8 JUMPI INVALID JUMPDEST SWAP1 POP PUSH1 0x20 MUL ADD CALLDATALOAD PUSH1 0x1 PUSH1 0x1 PUSH1 0xA0 SHL SUB AND SWAP1 POP PUSH1 0x0 PUSH1 0x7 PUSH1 0x0 SWAP1 PUSH2 0x1B09 PUSH2 0x3F21 JUMP JUMPDEST SWAP1 PUSH2 0x100 EXP SWAP1 DIV PUSH1 0x1 PUSH1 0x1 PUSH1 0xA0 SHL SUB AND PUSH1 0x1 PUSH1 0x1 PUSH1 0xA0 SHL SUB AND PUSH4 0x70A08231 DUP4 PUSH1 0x40 MLOAD PUSH1 0x1 PUSH1 0x1 PUSH1 0xE0 SHL SUB NOT PUSH1 0xE0 DUP5 SWAP1 SHL AND DUP2 MSTORE PUSH1 0x1 PUSH1 0x1 PUSH1 0xA0 SHL SUB SWAP1 SWAP2 AND PUSH1 0x4 DUP3 ADD MSTORE PUSH1 0x24 ADD PUSH1 0x20 PUSH1 0x40 MLOAD DUP1 DUP4 SUB DUP2 DUP7 DUP1 PUSH2 0x1B62 PUSH2 0x3F7C JUMP JUMPDEST ISZERO DUP1 ISZERO PUSH2 0x1B77 JUMPI PUSH1 0x0 DUP1 PUSH2 0x1B74 PUSH2 0x3EB6 JUMP JUMPDEST POP POP JUMPDEST POP GAS PUSH2 0x1B81 PUSH2 0x40CF JUMP JUMPDEST POP POP POP POP POP ISZERO DUP1 ISZERO PUSH2 0x1BA0 JUMPI RETURNDATASIZE PUSH1 0x0 DUP1 RETURNDATACOPY RETURNDATASIZE PUSH1 0x0 PUSH2 0x1B9D PUSH2 0x3EB6 JUMP JUMPDEST POP POP JUMPDEST POP POP POP POP PUSH1 0x40 MLOAD RETURNDATASIZE PUSH1 0x20 DUP2 LT ISZERO PUSH2 0x1BBF JUMPI PUSH1 0x0 DUP1 PUSH2 0x1BBC PUSH2 0x3EB6 JUMP JUMPDEST POP POP JUMPDEST DUP2 ADD SWAP1 DUP1 DUP1 MLOAD SWAP4 POP POP DUP3 ISZERO SWAP2 POP PUSH2 0x1CCB SWAP1 POP JUMPI PUSH2 0x1BDA PUSH2 0x2CB1 JUMP JUMPDEST PUSH1 0x1 PUSH1 0x1 PUSH1 0xA0 SHL SUB AND PUSH4 0xA1E187D DUP4 PUSH1 0xE PUSH2 0x1BF3 PUSH2 0x3F21 JUMP JUMPDEST DUP5 DUP7 PUSH1 0x40 MLOAD PUSH1 0x1 PUSH1 0x1 PUSH1 0xE0 SHL SUB NOT PUSH1 0xE0 DUP8 SWAP1 SHL AND DUP2 MSTORE PUSH1 0x1 PUSH1 0x1 PUSH1 0xA0 SHL SUB SWAP5 DUP6 AND PUSH1 0x4 DUP3 ADD MSTORE PUSH1 0x24 DUP2 ADD SWAP4 SWAP1 SWAP4 MSTORE PUSH1 0x44 DUP4 ADD SWAP2 SWAP1 SWAP2 MSTORE PUSH4 0x1CD554D1 PUSH1 0xE2 SHL PUSH1 0x64 DUP4 ADD MSTORE SWAP1 SWAP2 AND PUSH1 0x84 DUP3 ADD MSTORE PUSH1 0xA4 ADD PUSH1 0x20 PUSH1 0x40 MLOAD DUP1 DUP4 SUB DUP2 PUSH1 0x0 DUP8 DUP1 PUSH2 0x1C56 PUSH2 0x3F7C JUMP JUMPDEST ISZERO DUP1 ISZERO PUSH2 0x1C6B JUMPI PUSH1 0x0 DUP1 PUSH2 0x1C68 PUSH2 0x3EB6 JUMP JUMPDEST POP POP JUMPDEST POP GAS PUSH2 0x1C75 PUSH2 0x3FC8 JUMP JUMPDEST POP POP POP POP POP POP ISZERO DUP1 ISZERO PUSH2 0x1C95 JUMPI RETURNDATASIZE PUSH1 0x0 DUP1 RETURNDATACOPY RETURNDATASIZE PUSH1 0x0 PUSH2 0x1C92 PUSH2 0x3EB6 JUMP JUMPDEST POP POP JUMPDEST POP POP POP POP PUSH1 0x40 MLOAD RETURNDATASIZE PUSH1 0x20 DUP2 LT ISZERO PUSH2 0x1CB4 JUMPI PUSH1 0x0 DUP1 PUSH2 0x1CB1 PUSH2 0x3EB6 JUMP JUMPDEST POP POP JUMPDEST DUP2 ADD SWAP1 DUP1 DUP1 MLOAD POP PUSH2 0x1CCB SWAP3 POP DUP5 SWAP2 POP DUP4 SWAP1 POP PUSH2 0x3903 JUMP JUMPDEST POP POP PUSH1 0x1 ADD PUSH2 0x1AD2 JUMP JUMPDEST PUSH1 0x0 PUSH2 0x1CDF PUSH2 0x24DB JUMP JUMPDEST PUSH1 0x0 PUSH2 0x1CE9 PUSH2 0x2CB1 JUMP JUMPDEST PUSH1 0x1 PUSH1 0x1 PUSH1 0xA0 SHL SUB AND PUSH4 0x1B16802C PUSH1 0x0 PUSH1 0x6 PUSH2 0x1D03 PUSH2 0x3F21 JUMP JUMPDEST SWAP1 PUSH2 0x100 EXP SWAP1 DIV PUSH1 0x1 PUSH1 0x1 PUSH1 0xA0 SHL SUB AND PUSH1 0xE PUSH2 0x1D1D PUSH2 0x3F21 JUMP JUMPDEST PUSH1 0x40 MLOAD PUSH1 0x1 PUSH1 0x1 PUSH1 0xE0 SHL SUB NOT PUSH1 0xE0 DUP6 SWAP1 SHL AND DUP2 MSTORE PUSH1 0x1 PUSH1 0x1 PUSH1 0xA0 SHL SUB SWAP1 SWAP3 AND PUSH1 0x4 DUP4 ADD MSTORE PUSH1 0x24 DUP3 ADD MSTORE PUSH1 0x44 ADD PUSH1 0x60 PUSH1 0x40 MLOAD DUP1 DUP4 SUB DUP2 PUSH1 0x0 DUP8 DUP1 PUSH2 0x1D5E PUSH2 0x3F7C JUMP JUMPDEST ISZERO DUP1 ISZERO PUSH2 0x1D73 JUMPI PUSH1 0x0 DUP1 PUSH2 0x1D70 PUSH2 0x3EB6 JUMP JUMPDEST POP POP JUMPDEST POP GAS PUSH2 0x1D7D PUSH2 0x3FC8 JUMP JUMPDEST POP POP POP POP POP POP ISZERO DUP1 ISZERO PUSH2 0x1D9D JUMPI RETURNDATASIZE PUSH1 0x0 DUP1 RETURNDATACOPY RETURNDATASIZE PUSH1 0x0 PUSH2 0x1D9A PUSH2 0x3EB6 JUMP JUMPDEST POP POP JUMPDEST POP POP POP POP PUSH1 0x40 MLOAD RETURNDATASIZE PUSH1 0x60 DUP2 LT ISZERO PUSH2 0x1DBC JUMPI PUSH1 0x0 DUP1 PUSH2 0x1DB9 PUSH2 0x3EB6 JUMP JUMPDEST POP POP JUMPDEST DUP2 ADD SWAP1 DUP1 DUP1 MLOAD SWAP3 SWAP2 SWAP1 PUSH1 0x20 ADD DUP1 MLOAD SWAP3 SWAP2 SWAP1 PUSH1 0x20 ADD DUP1 MLOAD SWAP6 POP DUP8 SWAP5 POP POP DUP5 ISZERO SWAP3 POP PUSH2 0x1EC5 SWAP2 POP POP JUMPI PUSH1 0x0 PUSH1 0x7 PUSH2 0x1DEF PUSH2 0x3F21 JUMP JUMPDEST PUSH1 0x1 PUSH1 0x1 PUSH1 0xA0 SHL SUB PUSH2 0x100 SWAP3 SWAP1 SWAP3 EXP SWAP1 DIV AND PUSH4 0x70A08231 PUSH1 0x0 PUSH1 0x6 PUSH2 0x1E12 PUSH2 0x3F21 JUMP JUMPDEST SWAP1 PUSH2 0x100 EXP SWAP1 DIV PUSH1 0x1 PUSH1 0x1 PUSH1 0xA0 SHL SUB AND PUSH1 0x40 MLOAD PUSH1 0x1 PUSH1 0x1 PUSH1 0xE0 SHL SUB NOT PUSH1 0xE0 DUP5 SWAP1 SHL AND DUP2 MSTORE PUSH1 0x1 PUSH1 0x1 PUSH1 0xA0 SHL SUB SWAP1 SWAP2 AND PUSH1 0x4 DUP3 ADD MSTORE PUSH1 0x24 ADD PUSH1 0x20 PUSH1 0x40 MLOAD DUP1 DUP4 SUB DUP2 DUP7 DUP1 PUSH2 0x1E5C PUSH2 0x3F7C JUMP JUMPDEST ISZERO DUP1 ISZERO PUSH2 0x1E71 JUMPI PUSH1 0x0 DUP1 PUSH2 0x1E6E PUSH2 0x3EB6 JUMP JUMPDEST POP POP JUMPDEST POP GAS PUSH2 0x1E7B PUSH2 0x40CF JUMP JUMPDEST POP POP POP POP POP ISZERO DUP1 ISZERO PUSH2 0x1E9A JUMPI RETURNDATASIZE PUSH1 0x0 DUP1 RETURNDATACOPY RETURNDATASIZE PUSH1 0x0 PUSH2 0x1E97 PUSH2 0x3EB6 JUMP JUMPDEST POP POP JUMPDEST POP POP POP POP PUSH1 0x40 MLOAD RETURNDATASIZE PUSH1 0x20 DUP2 LT ISZERO PUSH2 0x1EB9 JUMPI PUSH1 0x0 DUP1 PUSH2 0x1EB6 PUSH2 0x3EB6 JUMP JUMPDEST POP POP JUMPDEST DUP2 ADD SWAP1 DUP1 DUP1 MLOAD SWAP4 POP POP POP POP JUMPDEST DUP1 DUP5 GT PUSH2 0x1ED2 JUMPI DUP4 PUSH2 0x1ED4 JUMP JUMPDEST DUP1 JUMPDEST SWAP4 POP PUSH2 0x1EFC PUSH1 0x0 PUSH1 0x6 PUSH2 0x1EE5 PUSH2 0x3F21 JUMP JUMPDEST SWAP1 PUSH2 0x100 EXP SWAP1 DIV PUSH1 0x1 PUSH1 0x1 PUSH1 0xA0 SHL SUB AND DUP7 DUP7 PUSH2 0x3566 JUMP JUMPDEST SWAP6 SWAP5 POP POP POP POP POP JUMP JUMPDEST PUSH1 0x0 PUSH1 0x3 PUSH2 0xCA3 PUSH2 0x3F21 JUMP JUMPDEST PUSH2 0x1F19 PUSH2 0x3A84 JUMP JUMPDEST DUP1 PUSH1 0x6 PUSH1 0x1 DUP2 PUSH2 0xAD3 PUSH2 0x3F21 JUMP JUMPDEST PUSH2 0x1F2F PUSH2 0x272C JUMP JUMPDEST GAS PUSH2 0x1F38 PUSH2 0x41CE JUMP JUMPDEST DUP1 PUSH1 0x2 PUSH2 0x1F43 PUSH2 0x4081 JUMP JUMPDEST POP POP POP PUSH1 0x1 PUSH1 0x3 PUSH1 0x0 PUSH2 0x100 EXP DUP2 PUSH2 0x1F59 PUSH2 0x3F21 JUMP JUMPDEST DUP2 PUSH1 0xFF MUL NOT AND SWAP1 DUP4 ISZERO ISZERO MUL OR SWAP1 PUSH2 0x1F6E PUSH2 0x4081 JUMP JUMPDEST POP POP POP PUSH32 0xCBD94CA75B8DC45C9D80C77E851670E78843C0D75180CB81DB3E2158228FA9A6 PUSH3 0x24EA00 PUSH1 0x40 MLOAD SWAP1 DUP2 MSTORE PUSH1 0x20 ADD PUSH1 0x40 MLOAD DUP1 SWAP2 SUB SWAP1 LOG1 JUMP JUMPDEST PUSH1 0x1 PUSH1 0x3 PUSH2 0x8F3 PUSH2 0x3F21 JUMP JUMPDEST PUSH1 0xD DUP2 DUP2 PUSH2 0x1FC1 PUSH2 0x3F21 JUMP JUMPDEST DUP2 LT PUSH2 0x1FC9 JUMPI INVALID JUMPDEST SWAP1 PUSH1 0x0 MSTORE PUSH1 0x20 PUSH1 0x0 KECCAK256 ADD SWAP1 POP PUSH2 0xB7F PUSH2 0x3F21 JUMP JUMPDEST PUSH1 0x0 PUSH1 0x6 PUSH2 0x8F3 PUSH2 0x3F21 JUMP JUMPDEST PUSH1 0xE PUSH2 0xB7F PUSH2 0x3F21 JUMP JUMPDEST PUSH1 0x0 DUP1 PUSH1 0x7 PUSH2 0x2000 PUSH2 0x3F21 JUMP JUMPDEST SWAP1 PUSH2 0x100 EXP SWAP1 DIV PUSH1 0x1 PUSH1 0x1 PUSH1 0xA0 SHL SUB AND PUSH1 0x1 PUSH1 0x1 PUSH1 0xA0 SHL SUB AND PUSH4 0xDD62ED3E DUP5 DUP5 PUSH1 0x40 MLOAD PUSH1 0x1 PUSH1 0x1 PUSH1 0xE0 SHL SUB NOT PUSH1 0xE0 DUP6 SWAP1 SHL AND DUP2 MSTORE PUSH1 0x1 PUSH1 0x1 PUSH1 0xA0 SHL SUB SWAP3 DUP4 AND PUSH1 0x4 DUP3 ADD MSTORE SWAP2 AND PUSH1 0x24 DUP3 ADD MSTORE PUSH1 0x44 ADD PUSH1 0x20 PUSH1 0x40 MLOAD DUP1 DUP4 SUB DUP2 DUP7 DUP1 PUSH2 0x2061 PUSH2 0x3F7C JUMP JUMPDEST ISZERO DUP1 ISZERO PUSH2 0x2076 JUMPI PUSH1 0x0 DUP1 PUSH2 0x2073 PUSH2 0x3EB6 JUMP JUMPDEST POP POP JUMPDEST POP GAS PUSH2 0x2080 PUSH2 0x40CF JUMP JUMPDEST POP POP POP POP POP ISZERO DUP1 ISZERO PUSH2 0x209F JUMPI RETURNDATASIZE PUSH1 0x0 DUP1 RETURNDATACOPY RETURNDATASIZE PUSH1 0x0 PUSH2 0x209C PUSH2 0x3EB6 JUMP JUMPDEST POP POP JUMPDEST POP POP POP POP PUSH1 0x40 MLOAD RETURNDATASIZE PUSH1 0x20 DUP2 LT ISZERO PUSH2 0x20BE JUMPI PUSH1 0x0 DUP1 PUSH2 0x20BB PUSH2 0x3EB6 JUMP JUMPDEST POP POP JUMPDEST DUP2 ADD SWAP1 DUP1 DUP1 MLOAD SWAP7 SWAP6 POP POP POP POP POP POP JUMP JUMPDEST PUSH1 0x18 DUP2 JUMP JUMPDEST PUSH1 0x0 PUSH2 0x20DD PUSH2 0x24DB JUMP JUMPDEST PUSH1 0x0 PUSH2 0x20E7 PUSH2 0x2CB1 JUMP JUMPDEST PUSH1 0x1 PUSH1 0x1 PUSH1 0xA0 SHL SUB AND PUSH4 0x1B16802C DUP7 PUSH1 0xE PUSH2 0x2100 PUSH2 0x3F21 JUMP JUMPDEST PUSH1 0x40 MLOAD PUSH1 0x1 PUSH1 0x1 PUSH1 0xE0 SHL SUB NOT PUSH1 0xE0 DUP6 SWAP1 SHL AND DUP2 MSTORE PUSH1 0x1 PUSH1 0x1 PUSH1 0xA0 SHL SUB SWAP1 SWAP3 AND PUSH1 0x4 DUP4 ADD MSTORE PUSH1 0x24 DUP3 ADD MSTORE PUSH1 0x44 ADD PUSH1 0x60 PUSH1 0x40 MLOAD DUP1 DUP4 SUB DUP2 PUSH1 0x0 DUP8 DUP1 PUSH2 0x2141 PUSH2 0x3F7C JUMP JUMPDEST ISZERO DUP1 ISZERO PUSH2 0x2156 JUMPI PUSH1 0x0 DUP1 PUSH2 0x2153 PUSH2 0x3EB6 JUMP JUMPDEST POP POP JUMPDEST POP GAS PUSH2 0x2160 PUSH2 0x3FC8 JUMP JUMPDEST POP POP POP POP POP POP ISZERO DUP1 ISZERO PUSH2 0x2180 JUMPI RETURNDATASIZE PUSH1 0x0 DUP1 RETURNDATACOPY RETURNDATASIZE PUSH1 0x0 PUSH2 0x217D PUSH2 0x3EB6 JUMP JUMPDEST POP POP JUMPDEST POP POP POP POP PUSH1 0x40 MLOAD RETURNDATASIZE PUSH1 0x60 DUP2 LT ISZERO PUSH2 0x219F JUMPI PUSH1 0x0 DUP1 PUSH2 0x219C PUSH2 0x3EB6 JUMP JUMPDEST POP POP JUMPDEST DUP2 ADD SWAP1 DUP1 DUP1 MLOAD SWAP3 SWAP2 SWAP1 PUSH1 0x20 ADD DUP1 MLOAD SWAP3 SWAP2 SWAP1 PUSH1 0x20 ADD DUP1 MLOAD SWAP6 POP DUP8 SWAP5 POP POP DUP5 ISZERO SWAP3 POP PUSH2 0x2294 SWAP2 POP POP JUMPI PUSH1 0x0 PUSH1 0x7 PUSH2 0x21D2 PUSH2 0x3F21 JUMP JUMPDEST SWAP1 PUSH2 0x100 EXP SWAP1 DIV PUSH1 0x1 PUSH1 0x1 PUSH1 0xA0 SHL SUB AND PUSH1 0x1 PUSH1 0x1 PUSH1 0xA0 SHL SUB AND PUSH4 0x70A08231 DUP8 PUSH1 0x40 MLOAD PUSH1 0x1 PUSH1 0x1 PUSH1 0xE0 SHL SUB NOT PUSH1 0xE0 DUP5 SWAP1 SHL AND DUP2 MSTORE PUSH1 0x1 PUSH1 0x1 PUSH1 0xA0 SHL SUB SWAP1 SWAP2 AND PUSH1 0x4 DUP3 ADD MSTORE PUSH1 0x24 ADD PUSH1 0x20 PUSH1 0x40 MLOAD DUP1 DUP4 SUB DUP2 DUP7 DUP1 PUSH2 0x222B PUSH2 0x3F7C JUMP JUMPDEST ISZERO DUP1 ISZERO PUSH2 0x2240 JUMPI PUSH1 0x0 DUP1 PUSH2 0x223D PUSH2 0x3EB6 JUMP JUMPDEST POP POP JUMPDEST POP GAS PUSH2 0x224A PUSH2 0x40CF JUMP JUMPDEST POP POP POP POP POP ISZERO DUP1 ISZERO PUSH2 0x2269 JUMPI RETURNDATASIZE PUSH1 0x0 DUP1 RETURNDATACOPY RETURNDATASIZE PUSH1 0x0 PUSH2 0x2266 PUSH2 0x3EB6 JUMP JUMPDEST POP POP JUMPDEST POP POP POP POP PUSH1 0x40 MLOAD RETURNDATASIZE PUSH1 0x20 DUP2 LT ISZERO PUSH2 0x2288 JUMPI PUSH1 0x0 DUP1 PUSH2 0x2285 PUSH2 0x3EB6 JUMP JUMPDEST POP POP JUMPDEST DUP2 ADD SWAP1 DUP1 DUP1 MLOAD SWAP4 POP POP POP POP JUMPDEST DUP1 DUP5 LT ISZERO PUSH2 0x22A2 JUMPI DUP4 PUSH2 0x22A4 JUMP JUMPDEST DUP1 JUMPDEST SWAP4 POP PUSH2 0x22B1 DUP7 DUP7 DUP7 PUSH2 0x2998 JUMP JUMPDEST SWAP7 SWAP6 POP POP POP POP POP POP JUMP JUMPDEST PUSH1 0x0 PUSH1 0x7 PUSH2 0x8F3 PUSH2 0x3F21 JUMP JUMPDEST PUSH20 0xFEEFEEFEEFEEFEEFEEFEEFEEFEEFEEFEEFEEFEEF DUP2 JUMP JUMPDEST PUSH1 0x0 PUSH1 0x4 PUSH2 0x8F3 PUSH2 0x3F21 JUMP JUMPDEST PUSH2 0x22F3 PUSH2 0x3059 JUMP JUMPDEST DUP1 DUP1 PUSH1 0xA PUSH2 0xAF5 PUSH2 0x4081 JUMP JUMPDEST PUSH1 0x0 DUP1 PUSH2 0x230A PUSH2 0x2CB1 JUMP JUMPDEST PUSH1 0x1 PUSH1 0x1 PUSH1 0xA0 SHL SUB AND PUSH4 0x19D5C665 DUP5 PUSH1 0xE PUSH2 0x2323 PUSH2 0x3F21 JUMP JUMPDEST PUSH1 0x40 MLOAD PUSH1 0x1 PUSH1 0x1 PUSH1 0xE0 SHL SUB NOT PUSH1 0xE0 DUP6 SWAP1 SHL AND DUP2 MSTORE PUSH1 0x1 PUSH1 0x1 PUSH1 0xA0 SHL SUB SWAP1 SWAP3 AND PUSH1 0x4 DUP4 ADD MSTORE PUSH1 0x24 DUP3 ADD MSTORE PUSH1 0x44 ADD PUSH1 0x60 PUSH1 0x40 MLOAD DUP1 DUP4 SUB DUP2 DUP7 DUP1 PUSH2 0x2362 PUSH2 0x3F7C JUMP JUMPDEST ISZERO DUP1 ISZERO PUSH2 0x2377 JUMPI PUSH1 0x0 DUP1 PUSH2 0x2374 PUSH2 0x3EB6 JUMP JUMPDEST POP POP JUMPDEST POP GAS PUSH2 0x2381 PUSH2 0x40CF JUMP JUMPDEST POP POP POP POP POP ISZERO DUP1 ISZERO PUSH2 0x23A0 JUMPI RETURNDATASIZE PUSH1 0x0 DUP1 RETURNDATACOPY RETURNDATASIZE PUSH1 0x0 PUSH2 0x239D PUSH2 0x3EB6 JUMP JUMPDEST POP POP JUMPDEST POP POP POP POP PUSH1 0x40 MLOAD RETURNDATASIZE PUSH1 0x60 DUP2 LT ISZERO PUSH2 0x23BF JUMPI PUSH1 0x0 DUP1 PUSH2 0x23BC PUSH2 0x3EB6 JUMP JUMPDEST POP POP JUMPDEST DUP2 ADD SWAP1 DUP1 DUP1 MLOAD SWAP3 SWAP2 SWAP1 PUSH1 0x20 ADD DUP1 MLOAD SWAP3 SWAP2 SWAP1 PUSH1 0x20 ADD DUP1 MLOAD POP SWAP4 SWAP5 POP PUSH1 0x0 SWAP4 POP DUP4 SWAP3 POP PUSH1 0x7 SWAP2 POP PUSH2 0x23EE SWAP1 POP PUSH2 0x3F21 JUMP JUMPDEST SWAP1 PUSH2 0x100 EXP SWAP1 DIV PUSH1 0x1 PUSH1 0x1 PUSH1 0xA0 SHL SUB AND PUSH1 0x1 PUSH1 0x1 PUSH1 0xA0 SHL SUB AND PUSH4 0x70A08231 DUP6 PUSH1 0x40 MLOAD PUSH1 0x1 PUSH1 0x1 PUSH1 0xE0 SHL SUB NOT PUSH1 0xE0 DUP5 SWAP1 SHL AND DUP2 MSTORE PUSH1 0x1 PUSH1 0x1 PUSH1 0xA0 SHL SUB SWAP1 SWAP2 AND PUSH1 0x4 DUP3 ADD MSTORE PUSH1 0x24 ADD PUSH1 0x20 PUSH1 0x40 MLOAD DUP1 DUP4 SUB DUP2 DUP7 DUP1 PUSH2 0x2447 PUSH2 0x3F7C JUMP JUMPDEST ISZERO DUP1 ISZERO PUSH2 0x245C JUMPI PUSH1 0x0 DUP1 PUSH2 0x2459 PUSH2 0x3EB6 JUMP JUMPDEST POP POP JUMPDEST POP GAS PUSH2 0x2466 PUSH2 0x40CF JUMP JUMPDEST POP POP POP POP POP ISZERO DUP1 ISZERO PUSH2 0x2485 JUMPI RETURNDATASIZE PUSH1 0x0 DUP1 RETURNDATACOPY RETURNDATASIZE PUSH1 0x0 PUSH2 0x2482 PUSH2 0x3EB6 JUMP JUMPDEST POP POP JUMPDEST POP POP POP POP PUSH1 0x40 MLOAD RETURNDATASIZE PUSH1 0x20 DUP2 LT ISZERO PUSH2 0x24A4 JUMPI PUSH1 0x0 DUP1 PUSH2 0x24A1 PUSH2 0x3EB6 JUMP JUMPDEST POP POP JUMPDEST DUP2 ADD SWAP1 DUP1 DUP1 MLOAD SWAP4 POP POP POP POP DUP1 DUP3 GT ISZERO PUSH2 0x24C2 JUMPI PUSH1 0x0 SWAP3 POP POP POP PUSH2 0x10D0 JUMP JUMPDEST PUSH2 0x24D2 DUP2 DUP4 PUSH4 0xFFFFFFFF PUSH2 0x3B51 AND JUMP JUMPDEST SWAP3 POP POP POP PUSH2 0x10D0 JUMP JUMPDEST PUSH1 0x0 PUSH1 0x4 PUSH2 0x24E7 PUSH2 0x3F21 JUMP JUMPDEST SWAP1 PUSH2 0x100 EXP SWAP1 DIV PUSH1 0x1 PUSH1 0x1 PUSH1 0xA0 SHL SUB AND PUSH1 0x1 PUSH1 0x1 PUSH1 0xA0 SHL SUB AND GAS PUSH2 0x2509 PUSH2 0x4188 JUMP JUMPDEST PUSH1 0x1 PUSH1 0x1 PUSH1 0xA0 SHL SUB AND EQ ISZERO DUP1 ISZERO PUSH2 0x2555 JUMPI POP PUSH1 0x0 PUSH1 0x5 PUSH2 0x2527 PUSH2 0x3F21 JUMP JUMPDEST SWAP1 PUSH2 0x100 EXP SWAP1 DIV PUSH1 0x1 PUSH1 0x1 PUSH1 0xA0 SHL SUB AND PUSH1 0x1 PUSH1 0x1 PUSH1 0xA0 SHL SUB AND GAS PUSH2 0x2549 PUSH2 0x4188 JUMP JUMPDEST PUSH1 0x1 PUSH1 0x1 PUSH1 0xA0 SHL SUB AND EQ ISZERO JUMPDEST DUP1 ISZERO PUSH2 0x2596 JUMPI POP GAS PUSH2 0x2565 PUSH2 0x4188 JUMP JUMPDEST PUSH1 0x1 PUSH1 0x1 PUSH1 0xA0 SHL SUB AND PUSH1 0x0 PUSH1 0x6 PUSH2 0x257A PUSH2 0x3F21 JUMP JUMPDEST SWAP1 PUSH2 0x100 EXP SWAP1 DIV PUSH1 0x1 PUSH1 0x1 PUSH1 0xA0 SHL SUB AND PUSH1 0x1 PUSH1 0x1 PUSH1 0xA0 SHL SUB AND EQ ISZERO JUMPDEST ISZERO PUSH2 0x25B1 JUMPI GAS PUSH2 0x25A4 PUSH2 0x4188 JUMP JUMPDEST PUSH1 0x6 PUSH1 0x1 DUP2 PUSH2 0x1303 PUSH2 0x3F21 JUMP JUMPDEST JUMP JUMPDEST PUSH1 0x0 PUSH1 0x4 PUSH2 0x25BF PUSH2 0x3F21 JUMP JUMPDEST SWAP1 PUSH2 0x100 EXP SWAP1 DIV PUSH1 0x1 PUSH1 0x1 PUSH1 0xA0 SHL SUB AND PUSH1 0x1 PUSH1 0x1 PUSH1 0xA0 SHL SUB AND PUSH4 0x907DFF97 DUP3 PUSH1 0x40 MLOAD PUSH1 0x20 ADD DUP1 DUP3 DUP2 MSTORE PUSH1 0x20 ADD SWAP2 POP POP PUSH1 0x40 MLOAD PUSH1 0x20 DUP2 DUP4 SUB SUB DUP2 MSTORE SWAP1 PUSH1 0x40 MSTORE PUSH1 0x3 PUSH1 0x40 MLOAD DUP1 PUSH1 0x21 PUSH2 0x42F8 DUP3 CODECOPY PUSH1 0x21 ADD SWAP1 POP PUSH1 0x40 MLOAD DUP1 SWAP2 SUB SWAP1 KECCAK256 PUSH2 0x2620 DUP9 PUSH2 0x3BB6 JUMP JUMPDEST PUSH2 0x2629 DUP9 PUSH2 0x3BB6 JUMP JUMPDEST PUSH1 0x0 PUSH1 0x40 MLOAD DUP8 PUSH4 0xFFFFFFFF AND PUSH1 0xE0 SHL DUP2 MSTORE PUSH1 0x4 ADD DUP1 DUP1 PUSH1 0x20 ADD DUP8 DUP2 MSTORE PUSH1 0x20 ADD DUP7 DUP2 MSTORE PUSH1 0x20 ADD DUP6 DUP2 MSTORE PUSH1 0x20 ADD DUP5 DUP2 MSTORE PUSH1 0x20 ADD DUP4 PUSH1 0x0 SHL DUP2 MSTORE PUSH1 0x20 ADD DUP3 DUP2 SUB DUP3 MSTORE DUP9 DUP2 DUP2 MLOAD DUP2 MSTORE PUSH1 0x20 ADD SWAP2 POP DUP1 MLOAD SWAP1 PUSH1 0x20 ADD SWAP1 DUP1 DUP4 DUP4 PUSH1 0x0 JUMPDEST DUP4 DUP2 LT ISZERO PUSH2 0x2698 JUMPI DUP1 DUP3 ADD MLOAD DUP4 DUP3 ADD MSTORE PUSH1 0x20 ADD PUSH2 0x2680 JUMP JUMPDEST POP POP POP POP SWAP1 POP SWAP1 DUP2 ADD SWAP1 PUSH1 0x1F AND DUP1 ISZERO PUSH2 0x26C5 JUMPI DUP1 DUP3 SUB DUP1 MLOAD PUSH1 0x1 DUP4 PUSH1 0x20 SUB PUSH2 0x100 EXP SUB NOT AND DUP2 MSTORE PUSH1 0x20 ADD SWAP2 POP JUMPDEST POP SWAP8 POP POP POP POP POP POP POP POP PUSH1 0x0 PUSH1 0x40 MLOAD DUP1 DUP4 SUB DUP2 PUSH1 0x0 DUP8 DUP1 PUSH2 0x26E4 PUSH2 0x3F7C JUMP JUMPDEST ISZERO DUP1 ISZERO PUSH2 0x26F9 JUMPI PUSH1 0x0 DUP1 PUSH2 0x26F6 PUSH2 0x3EB6 JUMP JUMPDEST POP POP JUMPDEST POP GAS PUSH2 0x2703 PUSH2 0x3FC8 JUMP JUMPDEST POP POP POP POP POP POP ISZERO DUP1 ISZERO PUSH2 0x2723 JUMPI RETURNDATASIZE PUSH1 0x0 DUP1 RETURNDATACOPY RETURNDATASIZE PUSH1 0x0 PUSH2 0x2720 PUSH2 0x3EB6 JUMP JUMPDEST POP POP JUMPDEST POP POP POP POP POP POP POP JUMP JUMPDEST PUSH1 0x0 DUP1 PUSH2 0x2737 PUSH2 0x3F21 JUMP JUMPDEST SWAP1 PUSH2 0x100 EXP SWAP1 DIV PUSH1 0x1 PUSH1 0x1 PUSH1 0xA0 SHL SUB AND PUSH1 0x1 PUSH1 0x1 PUSH1 0xA0 SHL SUB AND GAS PUSH2 0x2759 PUSH2 0x4188 JUMP JUMPDEST PUSH1 0x1 PUSH1 0x1 PUSH1 0xA0 SHL SUB AND EQ PUSH2 0x25B1 JUMPI PUSH1 0x40 MLOAD PUSH3 0x461BCD PUSH1 0xE5 SHL DUP2 MSTORE PUSH1 0x4 ADD DUP1 DUP1 PUSH1 0x20 ADD DUP3 DUP2 SUB DUP3 MSTORE PUSH1 0x2F DUP2 MSTORE PUSH1 0x20 ADD DUP1 PUSH2 0x42C9 PUSH1 0x2F SWAP2 CODECOPY PUSH1 0x40 ADD SWAP2 POP POP PUSH1 0x40 MLOAD DUP1 SWAP2 SUB SWAP1 PUSH2 0xEE8 PUSH2 0x3EB6 JUMP JUMPDEST PUSH2 0x27AC PUSH2 0x2CB1 JUMP JUMPDEST PUSH1 0x1 PUSH1 0x1 PUSH1 0xA0 SHL SUB AND PUSH4 0x59C29EC DUP4 PUSH1 0xE PUSH2 0x27C5 PUSH2 0x3F21 JUMP JUMPDEST PUSH1 0x40 MLOAD PUSH1 0x1 PUSH1 0x1 PUSH1 0xE0 SHL SUB NOT PUSH1 0xE0 DUP6 SWAP1 SHL AND DUP2 MSTORE PUSH1 0x1 PUSH1 0x1 PUSH1 0xA0 SHL SUB SWAP1 SWAP3 AND PUSH1 0x4 DUP4 ADD MSTORE PUSH1 0x24 DUP3 ADD MSTORE PUSH1 0x44 ADD PUSH1 0x20 PUSH1 0x40 MLOAD DUP1 DUP4 SUB DUP2 DUP7 DUP1 PUSH2 0x2804 PUSH2 0x3F7C JUMP JUMPDEST ISZERO DUP1 ISZERO PUSH2 0x2819 JUMPI PUSH1 0x0 DUP1 PUSH2 0x2816 PUSH2 0x3EB6 JUMP JUMPDEST POP POP JUMPDEST POP GAS PUSH2 0x2823 PUSH2 0x40CF JUMP JUMPDEST POP POP POP POP POP ISZERO DUP1 ISZERO PUSH2 0x2842 JUMPI RETURNDATASIZE PUSH1 0x0 DUP1 RETURNDATACOPY RETURNDATASIZE PUSH1 0x0 PUSH2 0x283F PUSH2 0x3EB6 JUMP JUMPDEST POP POP JUMPDEST POP POP POP POP PUSH1 0x40 MLOAD RETURNDATASIZE PUSH1 0x20 DUP2 LT ISZERO PUSH2 0x2861 JUMPI PUSH1 0x0 DUP1 PUSH2 0x285E PUSH2 0x3EB6 JUMP JUMPDEST POP POP JUMPDEST DUP2 ADD SWAP1 DUP1 DUP1 MLOAD ISZERO SWAP3 POP PUSH2 0x28B1 SWAP2 POP POP JUMPI PUSH1 0x40 MLOAD PUSH3 0x461BCD PUSH1 0xE5 SHL DUP2 MSTORE PUSH1 0x4 ADD DUP1 DUP1 PUSH1 0x20 ADD DUP3 DUP2 SUB DUP3 MSTORE PUSH1 0x25 DUP2 MSTORE PUSH1 0x20 ADD DUP1 PUSH2 0x4319 PUSH1 0x25 SWAP2 CODECOPY PUSH1 0x40 ADD SWAP2 POP POP PUSH1 0x40 MLOAD DUP1 SWAP2 SUB SWAP1 PUSH2 0x28AE PUSH2 0x3EB6 JUMP JUMPDEST POP POP JUMPDEST DUP1 PUSH2 0x28BB DUP4 PUSH2 0x22FF JUMP JUMPDEST LT ISZERO PUSH2 0x2901 JUMPI PUSH1 0x40 MLOAD PUSH3 0x461BCD PUSH1 0xE5 SHL DUP2 MSTORE PUSH1 0x4 ADD DUP1 DUP1 PUSH1 0x20 ADD DUP3 DUP2 SUB DUP3 MSTORE PUSH1 0x2F DUP2 MSTORE PUSH1 0x20 ADD DUP1 PUSH2 0x4267 PUSH1 0x2F SWAP2 CODECOPY PUSH1 0x40 ADD SWAP2 POP POP PUSH1 0x40 MLOAD DUP1 SWAP2 SUB SWAP1 PUSH2 0x28FE PUSH2 0x3EB6 JUMP JUMPDEST POP POP JUMPDEST PUSH2 0x2909 PUSH2 0x3BC2 JUMP JUMPDEST PUSH1 0x1 PUSH1 0x1 PUSH1 0xA0 SHL SUB AND PUSH4 0x42A28E21 PUSH1 0xE PUSH2 0x2921 PUSH2 0x3F21 JUMP JUMPDEST PUSH1 0x40 MLOAD PUSH1 0x1 PUSH1 0x1 PUSH1 0xE0 SHL SUB NOT PUSH1 0xE0 DUP5 SWAP1 SHL AND DUP2 MSTORE PUSH1 0x4 DUP2 ADD SWAP2 SWAP1 SWAP2 MSTORE PUSH1 0x24 ADD PUSH1 0x0 PUSH1 0x40 MLOAD DUP1 DUP4 SUB DUP2 DUP7 DUP1 PUSH2 0x2953 PUSH2 0x3F7C JUMP JUMPDEST ISZERO DUP1 ISZERO PUSH2 0x2968 JUMPI PUSH1 0x0 DUP1 PUSH2 0x2965 PUSH2 0x3EB6 JUMP JUMPDEST POP POP JUMPDEST POP GAS PUSH2 0x2972 PUSH2 0x40CF JUMP JUMPDEST POP POP POP POP POP ISZERO DUP1 ISZERO PUSH2 0x1760 JUMPI RETURNDATASIZE PUSH1 0x0 DUP1 RETURNDATACOPY RETURNDATASIZE PUSH1 0x0 PUSH2 0x298E PUSH2 0x3EB6 JUMP JUMPDEST POP POP POP POP POP POP POP POP JUMP JUMPDEST PUSH1 0x0 PUSH1 0x0 NOT DUP2 PUSH1 0x7 PUSH2 0x29A8 PUSH2 0x3F21 JUMP JUMPDEST PUSH1 0x1 PUSH1 0x1 PUSH1 0xA0 SHL SUB PUSH2 0x100 SWAP3 SWAP1 SWAP3 EXP SWAP1 DIV AND PUSH4 0xDD62ED3E DUP7 PUSH1 0x0 PUSH1 0x6 PUSH2 0x29CC PUSH2 0x3F21 JUMP JUMPDEST SWAP1 PUSH2 0x100 EXP SWAP1 DIV PUSH1 0x1 PUSH1 0x1 PUSH1 0xA0 SHL SUB AND PUSH1 0x40 MLOAD PUSH1 0x1 PUSH1 0x1 PUSH1 0xE0 SHL SUB NOT PUSH1 0xE0 DUP6 SWAP1 SHL AND DUP2 MSTORE PUSH1 0x1 PUSH1 0x1 PUSH1 0xA0 SHL SUB SWAP3 DUP4 AND PUSH1 0x4 DUP3 ADD MSTORE SWAP2 AND PUSH1 0x24 DUP3 ADD MSTORE PUSH1 0x44 ADD PUSH1 0x20 PUSH1 0x40 MLOAD DUP1 DUP4 SUB DUP2 DUP7 DUP1 PUSH2 0x2A1D PUSH2 0x3F7C JUMP JUMPDEST ISZERO DUP1 ISZERO PUSH2 0x2A32 JUMPI PUSH1 0x0 DUP1 PUSH2 0x2A2F PUSH2 0x3EB6 JUMP JUMPDEST POP POP JUMPDEST POP GAS PUSH2 0x2A3C PUSH2 0x40CF JUMP JUMPDEST POP POP POP POP POP ISZERO DUP1 ISZERO PUSH2 0x2A5B JUMPI RETURNDATASIZE PUSH1 0x0 DUP1 RETURNDATACOPY RETURNDATASIZE PUSH1 0x0 PUSH2 0x2A58 PUSH2 0x3EB6 JUMP JUMPDEST POP POP JUMPDEST POP POP POP POP PUSH1 0x40 MLOAD RETURNDATASIZE PUSH1 0x20 DUP2 LT ISZERO PUSH2 0x2A7A JUMPI PUSH1 0x0 DUP1 PUSH2 0x2A77 PUSH2 0x3EB6 JUMP JUMPDEST POP POP JUMPDEST DUP2 ADD SWAP1 DUP1 DUP1 MLOAD SWAP4 SWAP1 SWAP4 EQ SWAP3 POP PUSH2 0x2C58 SWAP2 POP POP JUMPI PUSH1 0x0 PUSH1 0x7 PUSH2 0x2A99 PUSH2 0x3F21 JUMP JUMPDEST PUSH1 0x1 PUSH1 0x1 PUSH1 0xA0 SHL SUB PUSH2 0x100 SWAP3 SWAP1 SWAP3 EXP SWAP1 DIV AND PUSH4 0xDA46098C DUP6 PUSH1 0x0 PUSH1 0x6 PUSH2 0x2ABD PUSH2 0x3F21 JUMP JUMPDEST SWAP1 PUSH2 0x100 EXP SWAP1 DIV PUSH1 0x1 PUSH1 0x1 PUSH1 0xA0 SHL SUB AND PUSH2 0x2BC7 DUP7 PUSH1 0x7 PUSH1 0x0 SWAP1 PUSH2 0x2ADE PUSH2 0x3F21 JUMP JUMPDEST PUSH1 0x1 PUSH1 0x1 PUSH1 0xA0 SHL SUB PUSH2 0x100 SWAP3 SWAP1 SWAP3 EXP SWAP1 DIV AND PUSH4 0xDD62ED3E DUP12 PUSH1 0x0 PUSH1 0x6 PUSH2 0x2B02 PUSH2 0x3F21 JUMP JUMPDEST SWAP1 PUSH2 0x100 EXP SWAP1 DIV PUSH1 0x1 PUSH1 0x1 PUSH1 0xA0 SHL SUB AND PUSH1 0x40 MLOAD PUSH1 0x1 PUSH1 0x1 PUSH1 0xE0 SHL SUB NOT PUSH1 0xE0 DUP6 SWAP1 SHL AND DUP2 MSTORE PUSH1 0x1 PUSH1 0x1 PUSH1 0xA0 SHL SUB SWAP3 DUP4 AND PUSH1 0x4 DUP3 ADD MSTORE SWAP2 AND PUSH1 0x24 DUP3 ADD MSTORE PUSH1 0x44 ADD PUSH1 0x20 PUSH1 0x40 MLOAD DUP1 DUP4 SUB DUP2 DUP7 DUP1 PUSH2 0x2B53 PUSH2 0x3F7C JUMP JUMPDEST ISZERO DUP1 ISZERO PUSH2 0x2B68 JUMPI PUSH1 0x0 DUP1 PUSH2 0x2B65 PUSH2 0x3EB6 JUMP JUMPDEST POP POP JUMPDEST POP GAS PUSH2 0x2B72 PUSH2 0x40CF JUMP JUMPDEST POP POP POP POP POP ISZERO DUP1 ISZERO PUSH2 0x2B91 JUMPI RETURNDATASIZE PUSH1 0x0 DUP1 RETURNDATACOPY RETURNDATASIZE PUSH1 0x0 PUSH2 0x2B8E PUSH2 0x3EB6 JUMP JUMPDEST POP POP JUMPDEST POP POP POP POP PUSH1 0x40 MLOAD RETURNDATASIZE PUSH1 0x20 DUP2 LT ISZERO PUSH2 0x2BB0 JUMPI PUSH1 0x0 DUP1 PUSH2 0x2BAD PUSH2 0x3EB6 JUMP JUMPDEST POP POP JUMPDEST DUP2 ADD SWAP1 DUP1 DUP1 MLOAD SWAP4 SWAP3 POP POP PUSH4 0xFFFFFFFF PUSH2 0x3B51 AND SWAP1 POP JUMP JUMPDEST PUSH1 0x40 MLOAD PUSH1 0x1 PUSH1 0x1 PUSH1 0xE0 SHL SUB NOT PUSH1 0xE0 DUP7 SWAP1 SHL AND DUP2 MSTORE PUSH1 0x1 PUSH1 0x1 PUSH1 0xA0 SHL SUB SWAP4 DUP5 AND PUSH1 0x4 DUP3 ADD MSTORE SWAP2 SWAP1 SWAP3 AND PUSH1 0x24 DUP3 ADD MSTORE PUSH1 0x44 DUP2 ADD SWAP2 SWAP1 SWAP2 MSTORE PUSH1 0x64 ADD PUSH1 0x0 PUSH1 0x40 MLOAD DUP1 DUP4 SUB DUP2 PUSH1 0x0 DUP8 DUP1 PUSH2 0x2C14 PUSH2 0x3F7C JUMP JUMPDEST ISZERO DUP1 ISZERO PUSH2 0x2C29 JUMPI PUSH1 0x0 DUP1 PUSH2 0x2C26 PUSH2 0x3EB6 JUMP JUMPDEST POP POP JUMPDEST POP GAS PUSH2 0x2C33 PUSH2 0x3FC8 JUMP JUMPDEST POP POP POP POP POP POP ISZERO DUP1 ISZERO PUSH2 0x2C53 JUMPI RETURNDATASIZE PUSH1 0x0 DUP1 RETURNDATACOPY RETURNDATASIZE PUSH1 0x0 PUSH2 0x2C50 PUSH2 0x3EB6 JUMP JUMPDEST POP POP JUMPDEST POP POP POP POP JUMPDEST PUSH2 0xC8A DUP5 DUP5 DUP5 PUSH2 0x3566 JUMP JUMPDEST PUSH1 0x0 PUSH2 0x2CAC PUSH7 0x119959541BDBDB PUSH1 0xCA SHL PUSH1 0x40 MLOAD PUSH1 0x40 DUP1 DUP3 ADD SWAP1 MSTORE PUSH1 0x17 DUP2 MSTORE PUSH32 0x4D697373696E6720466565506F6F6C2061646472657373000000000000000000 PUSH1 0x20 DUP3 ADD MSTORE PUSH2 0x3C0C JUMP JUMPDEST SWAP1 POP SWAP1 JUMP JUMPDEST PUSH1 0x0 PUSH2 0x2CAC PUSH9 0x22BC31B430B733B2B9 PUSH1 0xB9 SHL PUSH1 0x40 MLOAD PUSH1 0x40 DUP1 DUP3 ADD SWAP1 MSTORE PUSH1 0x19 DUP2 MSTORE PUSH32 0x4D697373696E672045786368616E676572206164647265737300000000000000 PUSH1 0x20 DUP3 ADD MSTORE PUSH2 0x3C0C JUMP JUMPDEST PUSH1 0x0 PUSH2 0x2CAC PUSH6 0x24B9B9BAB2B9 PUSH1 0xD1 SHL PUSH1 0x40 MLOAD PUSH1 0x40 DUP1 DUP3 ADD SWAP1 MSTORE PUSH1 0x16 DUP2 MSTORE PUSH22 0x4D697373696E67204973737565722061646472657373 PUSH1 0x50 SHL PUSH1 0x20 DUP3 ADD MSTORE PUSH2 0x3C0C JUMP JUMPDEST PUSH1 0x0 PUSH1 0x7 PUSH2 0x2D49 PUSH2 0x3F21 JUMP JUMPDEST PUSH1 0x1 PUSH1 0x1 PUSH1 0xA0 SHL SUB PUSH2 0x100 SWAP3 SWAP1 SWAP3 EXP SWAP1 DIV AND PUSH4 0xB46310F6 DUP4 PUSH2 0x2E3E DUP5 PUSH1 0x0 PUSH1 0x7 PUSH2 0x2D71 PUSH2 0x3F21 JUMP JUMPDEST SWAP1 PUSH2 0x100 EXP SWAP1 DIV PUSH1 0x1 PUSH1 0x1 PUSH1 0xA0 SHL SUB AND PUSH1 0x1 PUSH1 0x1 PUSH1 0xA0 SHL SUB AND PUSH4 0x70A08231 DUP9 PUSH1 0x40 MLOAD PUSH1 0x1 PUSH1 0x1 PUSH1 0xE0 SHL SUB NOT PUSH1 0xE0 DUP5 SWAP1 SHL AND DUP2 MSTORE PUSH1 0x1 PUSH1 0x1 PUSH1 0xA0 SHL SUB SWAP1 SWAP2 AND PUSH1 0x4 DUP3 ADD MSTORE PUSH1 0x24 ADD PUSH1 0x20 PUSH1 0x40 MLOAD DUP1 DUP4 SUB DUP2 DUP7 DUP1 PUSH2 0x2DCA PUSH2 0x3F7C JUMP JUMPDEST ISZERO DUP1 ISZERO PUSH2 0x2DDF JUMPI PUSH1 0x0 DUP1 PUSH2 0x2DDC PUSH2 0x3EB6 JUMP JUMPDEST POP POP JUMPDEST POP GAS PUSH2 0x2DE9 PUSH2 0x40CF JUMP JUMPDEST POP POP POP POP POP ISZERO DUP1 ISZERO PUSH2 0x2E08 JUMPI RETURNDATASIZE PUSH1 0x0 DUP1 RETURNDATACOPY RETURNDATASIZE PUSH1 0x0 PUSH2 0x2E05 PUSH2 0x3EB6 JUMP JUMPDEST POP POP JUMPDEST POP POP POP POP PUSH1 0x40 MLOAD RETURNDATASIZE PUSH1 0x20 DUP2 LT ISZERO PUSH2 0x2E27 JUMPI PUSH1 0x0 DUP1 PUSH2 0x2E24 PUSH2 0x3EB6 JUMP JUMPDEST POP POP JUMPDEST DUP2 ADD SWAP1 DUP1 DUP1 MLOAD SWAP4 SWAP3 POP POP PUSH4 0xFFFFFFFF PUSH2 0x3CD5 AND SWAP1 POP JUMP JUMPDEST PUSH1 0x40 MLOAD PUSH1 0x1 PUSH1 0x1 PUSH1 0xE0 SHL SUB NOT PUSH1 0xE0 DUP6 SWAP1 SHL AND DUP2 MSTORE PUSH1 0x1 PUSH1 0x1 PUSH1 0xA0 SHL SUB SWAP1 SWAP3 AND PUSH1 0x4 DUP4 ADD MSTORE PUSH1 0x24 DUP3 ADD MSTORE PUSH1 0x44 ADD PUSH1 0x0 PUSH1 0x40 MLOAD DUP1 DUP4 SUB DUP2 PUSH1 0x0 DUP8 DUP1 PUSH2 0x2E7F PUSH2 0x3F7C JUMP JUMPDEST ISZERO DUP1 ISZERO PUSH2 0x2E94 JUMPI PUSH1 0x0 DUP1 PUSH2 0x2E91 PUSH2 0x3EB6 JUMP JUMPDEST POP POP JUMPDEST POP GAS PUSH2 0x2E9E PUSH2 0x3FC8 JUMP JUMPDEST POP POP POP POP POP POP ISZERO DUP1 ISZERO PUSH2 0x2EBE JUMPI RETURNDATASIZE PUSH1 0x0 DUP1 RETURNDATACOPY RETURNDATASIZE PUSH1 0x0 PUSH2 0x2EBB PUSH2 0x3EB6 JUMP JUMPDEST POP POP JUMPDEST POP POP POP POP PUSH2 0x2EDC DUP2 PUSH1 0xA PUSH2 0x2ED0 PUSH2 0x3F21 JUMP JUMPDEST SWAP1 PUSH4 0xFFFFFFFF PUSH2 0x3CD5 AND JUMP JUMPDEST DUP1 PUSH1 0xA PUSH2 0x2EE7 PUSH2 0x4081 JUMP JUMPDEST POP POP POP PUSH2 0x2EF6 PUSH1 0x0 DUP4 DUP4 PUSH2 0x3D3D JUMP JUMPDEST PUSH2 0xEE8 DUP3 DUP3 PUSH2 0x3DAA JUMP JUMPDEST PUSH1 0x0 DUP1 PUSH1 0x7 PUSH2 0x2F0D PUSH2 0x3F21 JUMP JUMPDEST PUSH1 0x1 PUSH1 0x1 PUSH1 0xA0 SHL SUB PUSH2 0x100 SWAP3 SWAP1 SWAP3 EXP SWAP1 DIV AND PUSH4 0xB46310F6 DUP5 PUSH2 0x2F8E DUP6 PUSH1 0x0 PUSH1 0x7 PUSH2 0x2F35 PUSH2 0x3F21 JUMP JUMPDEST SWAP1 PUSH2 0x100 EXP SWAP1 DIV PUSH1 0x1 PUSH1 0x1 PUSH1 0xA0 SHL SUB AND PUSH1 0x1 PUSH1 0x1 PUSH1 0xA0 SHL SUB AND PUSH4 0x70A08231 DUP10 PUSH1 0x40 MLOAD PUSH1 0x1 PUSH1 0x1 PUSH1 0xE0 SHL SUB NOT PUSH1 0xE0 DUP5 SWAP1 SHL AND DUP2 MSTORE PUSH1 0x1 PUSH1 0x1 PUSH1 0xA0 SHL SUB SWAP1 SWAP2 AND PUSH1 0x4 DUP3 ADD MSTORE PUSH1 0x24 ADD PUSH1 0x20 PUSH1 0x40 MLOAD DUP1 DUP4 SUB DUP2 DUP7 DUP1 PUSH2 0x2B53 PUSH2 0x3F7C JUMP JUMPDEST PUSH1 0x40 MLOAD PUSH1 0x1 PUSH1 0x1 PUSH1 0xE0 SHL SUB NOT PUSH1 0xE0 DUP6 SWAP1 SHL AND DUP2 MSTORE PUSH1 0x1 PUSH1 0x1 PUSH1 0xA0 SHL SUB SWAP1 SWAP3 AND PUSH1 0x4 DUP4 ADD MSTORE PUSH1 0x24 DUP3 ADD MSTORE PUSH1 0x44 ADD PUSH1 0x0 PUSH1 0x40 MLOAD DUP1 DUP4 SUB DUP2 PUSH1 0x0 DUP8 DUP1 PUSH2 0x2FCF PUSH2 0x3F7C JUMP JUMPDEST ISZERO DUP1 ISZERO PUSH2 0x2FE4 JUMPI PUSH1 0x0 DUP1 PUSH2 0x2FE1 PUSH2 0x3EB6 JUMP JUMPDEST POP POP JUMPDEST POP GAS PUSH2 0x2FEE PUSH2 0x3FC8 JUMP JUMPDEST POP POP POP POP POP POP ISZERO DUP1 ISZERO PUSH2 0x300E JUMPI RETURNDATASIZE PUSH1 0x0 DUP1 RETURNDATACOPY RETURNDATASIZE PUSH1 0x0 PUSH2 0x300B PUSH2 0x3EB6 JUMP JUMPDEST POP POP JUMPDEST POP POP POP POP PUSH2 0x302C DUP3 PUSH1 0xA PUSH2 0x3020 PUSH2 0x3F21 JUMP JUMPDEST SWAP1 PUSH4 0xFFFFFFFF PUSH2 0x3B51 AND JUMP JUMPDEST DUP1 PUSH1 0xA PUSH2 0x3037 PUSH2 0x4081 JUMP JUMPDEST POP POP POP PUSH2 0x3046 DUP4 PUSH1 0x0 DUP5 PUSH2 0x3D3D JUMP JUMPDEST PUSH2 0x3050 DUP4 DUP4 PUSH2 0x3E30 JUMP JUMPDEST POP PUSH1 0x1 SWAP3 SWAP2 POP POP JUMP JUMPDEST PUSH1 0x0 PUSH1 0x4 PUSH2 0x3065 PUSH2 0x3F21 JUMP JUMPDEST SWAP1 PUSH2 0x100 EXP SWAP1 DIV PUSH1 0x1 PUSH1 0x1 PUSH1 0xA0 SHL SUB AND PUSH1 0x1 PUSH1 0x1 PUSH1 0xA0 SHL SUB AND GAS PUSH2 0x3087 PUSH2 0x4188 JUMP JUMPDEST PUSH1 0x1 PUSH1 0x1 PUSH1 0xA0 SHL SUB AND EQ ISZERO DUP1 ISZERO PUSH2 0x30D3 JUMPI POP PUSH1 0x0 PUSH1 0x5 PUSH2 0x30A5 PUSH2 0x3F21 JUMP JUMPDEST SWAP1 PUSH2 0x100 EXP SWAP1 DIV PUSH1 0x1 PUSH1 0x1 PUSH1 0xA0 SHL SUB AND PUSH1 0x1 PUSH1 0x1 PUSH1 0xA0 SHL SUB AND GAS PUSH2 0x30C7 PUSH2 0x4188 JUMP JUMPDEST PUSH1 0x1 PUSH1 0x1 PUSH1 0xA0 SHL SUB AND EQ ISZERO JUMPDEST DUP1 ISZERO PUSH2 0x3114 JUMPI POP GAS PUSH2 0x30E3 PUSH2 0x4188 JUMP JUMPDEST PUSH1 0x1 PUSH1 0x1 PUSH1 0xA0 SHL SUB AND PUSH1 0x0 PUSH1 0x6 PUSH2 0x30F8 PUSH2 0x3F21 JUMP JUMPDEST SWAP1 PUSH2 0x100 EXP SWAP1 DIV PUSH1 0x1 PUSH1 0x1 PUSH1 0xA0 SHL SUB AND PUSH1 0x1 PUSH1 0x1 PUSH1 0xA0 SHL SUB AND EQ ISZERO JUMPDEST ISZERO PUSH2 0x3155 JUMPI GAS PUSH2 0x3122 PUSH2 0x4188 JUMP JUMPDEST PUSH1 0x6 PUSH1 0x1 DUP2 PUSH2 0x312F PUSH2 0x3F21 JUMP JUMPDEST DUP2 PUSH1 0x1 PUSH1 0x1 PUSH1 0xA0 SHL SUB MUL NOT AND SWAP1 DUP4 PUSH1 0x1 PUSH1 0x1 PUSH1 0xA0 SHL SUB AND MUL OR SWAP1 PUSH2 0x3151 PUSH2 0x4081 JUMP JUMPDEST POP POP POP JUMPDEST PUSH1 0x0 DUP1 PUSH2 0x3160 PUSH2 0x3F21 JUMP JUMPDEST PUSH1 0x1 PUSH1 0x1 PUSH1 0xA0 SHL SUB PUSH2 0x100 SWAP3 SWAP1 SWAP3 EXP SWAP1 DIV AND PUSH1 0x0 PUSH1 0x6 PUSH2 0x317E PUSH2 0x3F21 JUMP JUMPDEST SWAP1 PUSH2 0x100 EXP SWAP1 DIV PUSH1 0x1 PUSH1 0x1 PUSH1 0xA0 SHL SUB AND PUSH1 0x1 PUSH1 0x1 PUSH1 0xA0 SHL SUB AND EQ PUSH2 0x25B1 JUMPI PUSH1 0x40 MLOAD PUSH3 0x461BCD PUSH1 0xE5 SHL DUP2 MSTORE PUSH1 0x20 PUSH1 0x4 DUP3 ADD MSTORE PUSH1 0x13 PUSH1 0x24 DUP3 ADD MSTORE PUSH19 0x27BBB732B91037B7363C90333AB731BA34B7B7 PUSH1 0x69 SHL PUSH1 0x44 DUP3 ADD MSTORE PUSH1 0x64 ADD PUSH1 0x40 MLOAD DUP1 SWAP2 SUB SWAP1 PUSH2 0xEE8 PUSH2 0x3EB6 JUMP JUMPDEST PUSH1 0x0 PUSH1 0x4 PUSH2 0x31F0 PUSH2 0x3F21 JUMP JUMPDEST SWAP1 PUSH2 0x100 EXP SWAP1 DIV PUSH1 0x1 PUSH1 0x1 PUSH1 0xA0 SHL SUB AND PUSH1 0x1 PUSH1 0x1 PUSH1 0xA0 SHL SUB AND PUSH4 0x907DFF97 DUP3 PUSH1 0x40 MLOAD PUSH1 0x1 PUSH1 0x1 PUSH1 0xA0 SHL SUB SWAP1 SWAP2 AND PUSH1 0x20 DUP3 ADD MSTORE PUSH1 0x40 SWAP1 DUP2 ADD SWAP1 MLOAD PUSH1 0x20 DUP2 DUP4 SUB SUB DUP2 MSTORE SWAP1 PUSH1 0x40 MSTORE PUSH1 0x1 PUSH1 0x40 MLOAD PUSH32 0x546F6B656E537461746555706461746564286164647265737329000000000000 DUP2 MSTORE PUSH1 0x1A ADD PUSH1 0x40 MLOAD DUP1 SWAP2 SUB SWAP1 KECCAK256 PUSH1 0x0 DUP1 PUSH1 0x0 PUSH1 0x40 MLOAD DUP8 PUSH4 0xFFFFFFFF AND PUSH1 0xE0 SHL DUP2 MSTORE PUSH1 0x4 ADD DUP1 DUP1 PUSH1 0x20 ADD DUP8 DUP2 MSTORE PUSH1 0x20 ADD DUP7 DUP2 MSTORE PUSH1 0x20 ADD DUP6 PUSH1 0x0 SHL DUP2 MSTORE PUSH1 0x20 ADD DUP5 PUSH1 0x0 SHL DUP2 MSTORE PUSH1 0x20 ADD DUP4 PUSH1 0x0 SHL DUP2 MSTORE PUSH1 0x20 ADD DUP3 DUP2 SUB DUP3 MSTORE DUP9 DUP2 DUP2 MLOAD DUP2 MSTORE PUSH1 0x20 ADD SWAP2 POP DUP1 MLOAD SWAP1 PUSH1 0x20 ADD SWAP1 DUP1 DUP4 DUP4 PUSH1 0x0 JUMPDEST DUP4 DUP2 LT ISZERO PUSH2 0x32E0 JUMPI DUP1 DUP3 ADD MLOAD DUP4 DUP3 ADD MSTORE PUSH1 0x20 ADD PUSH2 0x32C8 JUMP JUMPDEST POP POP POP POP SWAP1 POP SWAP1 DUP2 ADD SWAP1 PUSH1 0x1F AND DUP1 ISZERO PUSH2 0x330D JUMPI DUP1 DUP3 SUB DUP1 MLOAD PUSH1 0x1 DUP4 PUSH1 0x20 SUB PUSH2 0x100 EXP SUB NOT AND DUP2 MSTORE PUSH1 0x20 ADD SWAP2 POP JUMPDEST POP SWAP8 POP POP POP POP POP POP POP POP PUSH1 0x0 PUSH1 0x40 MLOAD DUP1 DUP4 SUB DUP2 PUSH1 0x0 DUP8 DUP1 PUSH2 0x332C PUSH2 0x3F7C JUMP JUMPDEST ISZERO DUP1 ISZERO PUSH2 0x3341 JUMPI PUSH1 0x0 DUP1 PUSH2 0x333E PUSH2 0x3EB6 JUMP JUMPDEST POP POP JUMPDEST POP GAS PUSH2 0x334B PUSH2 0x3FC8 JUMP JUMPDEST POP POP POP POP POP POP ISZERO DUP1 ISZERO PUSH2 0x140B JUMPI RETURNDATASIZE PUSH1 0x0 DUP1 RETURNDATACOPY RETURNDATASIZE PUSH1 0x0 PUSH2 0x2723 PUSH2 0x3EB6 JUMP JUMPDEST PUSH1 0x0 DUP1 PUSH1 0xE PUSH2 0x3375 PUSH2 0x3F21 JUMP JUMPDEST PUSH4 0x1CD554D1 PUSH1 0xE2 SHL EQ ISZERO PUSH2 0x33B1 JUMPI POP DUP2 PUSH2 0x33AB PUSH1 0x0 PUSH1 0x6 PUSH2 0x3394 PUSH2 0x3F21 JUMP JUMPDEST SWAP1 PUSH2 0x100 EXP SWAP1 DIV PUSH1 0x1 PUSH1 0x1 PUSH1 0xA0 SHL SUB AND DUP6 DUP6 PUSH2 0x3566 JUMP JUMPDEST POP PUSH2 0x34CE JUMP JUMPDEST PUSH2 0x33B9 PUSH2 0x2CB1 JUMP JUMPDEST PUSH1 0x1 PUSH1 0x1 PUSH1 0xA0 SHL SUB AND PUSH4 0xA1E187D PUSH1 0x0 PUSH1 0x6 PUSH2 0x33D3 PUSH2 0x3F21 JUMP JUMPDEST SWAP1 PUSH2 0x100 EXP SWAP1 DIV PUSH1 0x1 PUSH1 0x1 PUSH1 0xA0 SHL SUB AND PUSH1 0xE PUSH2 0x33ED PUSH2 0x3F21 JUMP JUMPDEST DUP7 PUSH20 0xFEEFEEFEEFEEFEEFEEFEEFEEFEEFEEFEEFEEFEEF PUSH1 0x40 MLOAD PUSH1 0x1 PUSH1 0x1 PUSH1 0xE0 SHL SUB NOT PUSH1 0xE0 DUP8 SWAP1 SHL AND DUP2 MSTORE PUSH1 0x1 PUSH1 0x1 PUSH1 0xA0 SHL SUB SWAP5 DUP6 AND PUSH1 0x4 DUP3 ADD MSTORE PUSH1 0x24 DUP2 ADD SWAP4 SWAP1 SWAP4 MSTORE PUSH1 0x44 DUP4 ADD SWAP2 SWAP1 SWAP2 MSTORE PUSH4 0x1CD554D1 PUSH1 0xE2 SHL PUSH1 0x64 DUP4 ADD MSTORE SWAP1 SWAP2 AND PUSH1 0x84 DUP3 ADD MSTORE PUSH1 0xA4 ADD PUSH1 0x20 PUSH1 0x40 MLOAD DUP1 DUP4 SUB DUP2 PUSH1 0x0 DUP8 DUP1 PUSH2 0x3464 PUSH2 0x3F7C JUMP JUMPDEST ISZERO DUP1 ISZERO PUSH2 0x3479 JUMPI PUSH1 0x0 DUP1 PUSH2 0x3476 PUSH2 0x3EB6 JUMP JUMPDEST POP POP JUMPDEST POP GAS PUSH2 0x3483 PUSH2 0x3FC8 JUMP JUMPDEST POP POP POP POP POP POP ISZERO DUP1 ISZERO PUSH2 0x34A3 JUMPI RETURNDATASIZE PUSH1 0x0 DUP1 RETURNDATACOPY RETURNDATASIZE PUSH1 0x0 PUSH2 0x34A0 PUSH2 0x3EB6 JUMP JUMPDEST POP POP JUMPDEST POP POP POP POP PUSH1 0x40 MLOAD RETURNDATASIZE PUSH1 0x20 DUP2 LT ISZERO PUSH2 0x34C2 JUMPI PUSH1 0x0 DUP1 PUSH2 0x34BF PUSH2 0x3EB6 JUMP JUMPDEST POP POP JUMPDEST DUP2 ADD SWAP1 DUP1 DUP1 MLOAD SWAP4 POP POP POP POP JUMPDEST PUSH2 0x34D6 PUSH2 0x2C63 JUMP JUMPDEST PUSH1 0x1 PUSH1 0x1 PUSH1 0xA0 SHL SUB AND PUSH4 0x22BF55EF DUP3 PUSH1 0x40 MLOAD PUSH1 0x1 PUSH1 0x1 PUSH1 0xE0 SHL SUB NOT PUSH1 0xE0 DUP5 SWAP1 SHL AND DUP2 MSTORE PUSH1 0x4 DUP2 ADD SWAP2 SWAP1 SWAP2 MSTORE PUSH1 0x24 ADD PUSH1 0x0 PUSH1 0x40 MLOAD DUP1 DUP4 SUB DUP2 PUSH1 0x0 DUP8 DUP1 PUSH2 0x3519 PUSH2 0x3F7C JUMP JUMPDEST ISZERO DUP1 ISZERO PUSH2 0x352E JUMPI PUSH1 0x0 DUP1 PUSH2 0x352B PUSH2 0x3EB6 JUMP JUMPDEST POP POP JUMPDEST POP GAS PUSH2 0x3538 PUSH2 0x3FC8 JUMP JUMPDEST POP POP POP POP POP POP ISZERO DUP1 ISZERO PUSH2 0x3558 JUMPI RETURNDATASIZE PUSH1 0x0 DUP1 RETURNDATACOPY RETURNDATASIZE PUSH1 0x0 PUSH2 0x3555 PUSH2 0x3EB6 JUMP JUMPDEST POP POP JUMPDEST POP PUSH1 0x1 SWAP8 SWAP7 POP POP POP POP POP POP POP JUMP JUMPDEST PUSH1 0x0 PUSH1 0x1 PUSH1 0x1 PUSH1 0xA0 SHL SUB DUP4 AND ISZERO DUP1 ISZERO SWAP1 PUSH2 0x35EA JUMPI POP GAS PUSH4 0x996D79A5 MSIZE DUP2 PUSH1 0xE0 SHL DUP2 MSTORE PUSH1 0x20 DUP2 PUSH1 0x4 DUP4 CALLER PUSH1 0x0 SWAP1 GAS CALL PC PUSH1 0xE ADD JUMPI RETURNDATASIZE PUSH1 0x0 DUP1 RETURNDATACOPY RETURNDATASIZE PUSH1 0x0 REVERT JUMPDEST RETURNDATASIZE PUSH1 0x1 EQ ISZERO PC PUSH1 0xA ADD JUMPI PUSH1 0x1 PUSH1 0x0 RETURN JUMPDEST DUP1 MLOAD SWAP3 POP PUSH1 0x0 JUMPDEST PUSH1 0x40 DUP2 LT ISZERO PUSH2 0x35D1 JUMPI PUSH1 0x0 DUP3 DUP3 ADD MSTORE PUSH1 0x20 ADD PUSH2 0x35BA JUMP JUMPDEST POP POP POP PUSH1 0x1 PUSH1 0x1 PUSH1 0xA0 SHL SUB AND DUP4 PUSH1 0x1 PUSH1 0x1 PUSH1 0xA0 SHL SUB AND EQ ISZERO JUMPDEST DUP1 ISZERO PUSH2 0x3623 JUMPI POP PUSH1 0x0 PUSH1 0x4 PUSH2 0x35FD PUSH2 0x3F21 JUMP JUMPDEST SWAP1 PUSH2 0x100 EXP SWAP1 DIV PUSH1 0x1 PUSH1 0x1 PUSH1 0xA0 SHL SUB AND PUSH1 0x1 PUSH1 0x1 PUSH1 0xA0 SHL SUB AND DUP4 PUSH1 0x1 PUSH1 0x1 PUSH1 0xA0 SHL SUB AND EQ ISZERO JUMPDEST PUSH2 0x367C JUMPI PUSH1 0x40 MLOAD PUSH3 0x461BCD PUSH1 0xE5 SHL DUP2 MSTORE PUSH1 0x20 PUSH1 0x4 DUP3 ADD MSTORE PUSH1 0x1F PUSH1 0x24 DUP3 ADD MSTORE PUSH32 0x43616E6E6F74207472616E7366657220746F2074686973206164647265737300 PUSH1 0x44 DUP3 ADD MSTORE PUSH1 0x64 ADD PUSH1 0x40 MLOAD DUP1 SWAP2 SUB SWAP1 PUSH2 0x3679 PUSH2 0x3EB6 JUMP JUMPDEST POP POP JUMPDEST PUSH1 0x0 PUSH1 0x7 PUSH2 0x3688 PUSH2 0x3F21 JUMP JUMPDEST PUSH1 0x1 PUSH1 0x1 PUSH1 0xA0 SHL SUB PUSH2 0x100 SWAP3 SWAP1 SWAP3 EXP SWAP1 DIV AND PUSH4 0xB46310F6 DUP6 PUSH2 0x3709 DUP6 PUSH1 0x0 PUSH1 0x7 PUSH2 0x36B0 PUSH2 0x3F21 JUMP JUMPDEST SWAP1 PUSH2 0x100 EXP SWAP1 DIV PUSH1 0x1 PUSH1 0x1 PUSH1 0xA0 SHL SUB AND PUSH1 0x1 PUSH1 0x1 PUSH1 0xA0 SHL SUB AND PUSH4 0x70A08231 DUP11 PUSH1 0x40 MLOAD PUSH1 0x1 PUSH1 0x1 PUSH1 0xE0 SHL SUB NOT PUSH1 0xE0 DUP5 SWAP1 SHL AND DUP2 MSTORE PUSH1 0x1 PUSH1 0x1 PUSH1 0xA0 SHL SUB SWAP1 SWAP2 AND PUSH1 0x4 DUP3 ADD MSTORE PUSH1 0x24 ADD PUSH1 0x20 PUSH1 0x40 MLOAD DUP1 DUP4 SUB DUP2 DUP7 DUP1 PUSH2 0x2B53 PUSH2 0x3F7C JUMP JUMPDEST PUSH1 0x40 MLOAD PUSH1 0x1 PUSH1 0x1 PUSH1 0xE0 SHL SUB NOT PUSH1 0xE0 DUP6 SWAP1 SHL AND DUP2 MSTORE PUSH1 0x1 PUSH1 0x1 PUSH1 0xA0 SHL SUB SWAP1 SWAP3 AND PUSH1 0x4 DUP4 ADD MSTORE PUSH1 0x24 DUP3 ADD MSTORE PUSH1 0x44 ADD PUSH1 0x0 PUSH1 0x40 MLOAD DUP1 DUP4 SUB DUP2 PUSH1 0x0 DUP8 DUP1 PUSH2 0x374A PUSH2 0x3F7C JUMP JUMPDEST ISZERO DUP1 ISZERO PUSH2 0x375F JUMPI PUSH1 0x0 DUP1 PUSH2 0x375C PUSH2 0x3EB6 JUMP JUMPDEST POP POP JUMPDEST POP GAS PUSH2 0x3769 PUSH2 0x3FC8 JUMP JUMPDEST POP POP POP POP POP POP ISZERO DUP1 ISZERO PUSH2 0x3789 JUMPI RETURNDATASIZE PUSH1 0x0 DUP1 RETURNDATACOPY RETURNDATASIZE PUSH1 0x0 PUSH2 0x3786 PUSH2 0x3EB6 JUMP JUMPDEST POP POP JUMPDEST POP POP POP POP PUSH1 0x7 PUSH1 0x0 SWAP1 PUSH2 0x379A PUSH2 0x3F21 JUMP JUMPDEST PUSH1 0x1 PUSH1 0x1 PUSH1 0xA0 SHL SUB PUSH2 0x100 SWAP3 SWAP1 SWAP3 EXP SWAP1 DIV AND PUSH4 0xB46310F6 DUP5 PUSH2 0x381B DUP6 PUSH1 0x0 PUSH1 0x7 PUSH2 0x37C2 PUSH2 0x3F21 JUMP JUMPDEST SWAP1 PUSH2 0x100 EXP SWAP1 DIV PUSH1 0x1 PUSH1 0x1 PUSH1 0xA0 SHL SUB AND PUSH1 0x1 PUSH1 0x1 PUSH1 0xA0 SHL SUB AND PUSH4 0x70A08231 DUP10 PUSH1 0x40 MLOAD PUSH1 0x1 PUSH1 0x1 PUSH1 0xE0 SHL SUB NOT PUSH1 0xE0 DUP5 SWAP1 SHL AND DUP2 MSTORE PUSH1 0x1 PUSH1 0x1 PUSH1 0xA0 SHL SUB SWAP1 SWAP2 AND PUSH1 0x4 DUP3 ADD MSTORE PUSH1 0x24 ADD PUSH1 0x20 PUSH1 0x40 MLOAD DUP1 DUP4 SUB DUP2 DUP7 DUP1 PUSH2 0x2DCA PUSH2 0x3F7C JUMP JUMPDEST PUSH1 0x40 MLOAD PUSH1 0x1 PUSH1 0x1 PUSH1 0xE0 SHL SUB NOT PUSH1 0xE0 DUP6 SWAP1 SHL AND DUP2 MSTORE PUSH1 0x1 PUSH1 0x1 PUSH1 0xA0 SHL SUB SWAP1 SWAP3 AND PUSH1 0x4 DUP4 ADD MSTORE PUSH1 0x24 DUP3 ADD MSTORE PUSH1 0x44 ADD PUSH1 0x0 PUSH1 0x40 MLOAD DUP1 DUP4 SUB DUP2 PUSH1 0x0 DUP8 DUP1 PUSH2 0x385C PUSH2 0x3F7C JUMP JUMPDEST ISZERO DUP1 ISZERO PUSH2 0x3871 JUMPI PUSH1 0x0 DUP1 PUSH2 0x386E PUSH2 0x3EB6 JUMP JUMPDEST POP POP JUMPDEST POP GAS PUSH2 0x387B PUSH2 0x3FC8 JUMP JUMPDEST POP POP POP POP POP POP ISZERO DUP1 ISZERO PUSH2 0x389B JUMPI RETURNDATASIZE PUSH1 0x0 DUP1 RETURNDATACOPY RETURNDATASIZE PUSH1 0x0 PUSH2 0x3898 PUSH2 0x3EB6 JUMP JUMPDEST POP POP JUMPDEST POP POP POP POP PUSH2 0x38AA DUP5 DUP5 DUP5 PUSH2 0x3D3D JUMP JUMPDEST POP PUSH1 0x1 SWAP4 SWAP3 POP POP POP JUMP JUMPDEST PUSH1 0x0 PUSH2 0x2CAC PUSH13 0x45786368616E67655261746573 PUSH1 0x98 SHL PUSH1 0x40 MLOAD PUSH1 0x40 DUP1 DUP3 ADD SWAP1 MSTORE PUSH1 0x1D DUP2 MSTORE PUSH32 0x4D697373696E672045786368616E676552617465732061646472657373000000 PUSH1 0x20 DUP3 ADD MSTORE PUSH2 0x3C0C JUMP JUMPDEST PUSH1 0x0 PUSH1 0x4 PUSH2 0x390F PUSH2 0x3F21 JUMP JUMPDEST SWAP1 PUSH2 0x100 EXP SWAP1 DIV PUSH1 0x1 PUSH1 0x1 PUSH1 0xA0 SHL SUB AND PUSH1 0x1 PUSH1 0x1 PUSH1 0xA0 SHL SUB AND PUSH4 0x907DFF97 DUP3 PUSH1 0x40 MLOAD PUSH1 0x20 ADD DUP1 DUP3 DUP2 MSTORE PUSH1 0x20 ADD SWAP2 POP POP PUSH1 0x40 MLOAD PUSH1 0x20 DUP2 DUP4 SUB SUB DUP2 MSTORE SWAP1 PUSH1 0x40 MSTORE PUSH1 0x2 PUSH1 0x40 MLOAD PUSH32 0x50757267656428616464726573732C75696E7432353629000000000000000000 DUP2 MSTORE PUSH1 0x17 ADD PUSH1 0x40 MLOAD DUP1 SWAP2 SUB SWAP1 KECCAK256 PUSH2 0x3989 DUP8 PUSH2 0x3BB6 JUMP JUMPDEST PUSH1 0x0 DUP1 PUSH1 0x40 MLOAD DUP8 PUSH4 0xFFFFFFFF AND PUSH1 0xE0 SHL DUP2 MSTORE PUSH1 0x4 ADD DUP1 DUP1 PUSH1 0x20 ADD DUP8 DUP2 MSTORE PUSH1 0x20 ADD DUP7 DUP2 MSTORE PUSH1 0x20 ADD DUP6 DUP2 MSTORE PUSH1 0x20 ADD DUP5 PUSH1 0x0 SHL DUP2 MSTORE PUSH1 0x20 ADD DUP4 PUSH1 0x0 SHL DUP2 MSTORE PUSH1 0x20 ADD DUP3 DUP2 SUB DUP3 MSTORE DUP9 DUP2 DUP2 MLOAD DUP2 MSTORE PUSH1 0x20 ADD SWAP2 POP DUP1 MLOAD SWAP1 PUSH1 0x20 ADD SWAP1 DUP1 DUP4 DUP4 PUSH1 0x0 JUMPDEST DUP4 DUP2 LT ISZERO PUSH2 0x39FC JUMPI DUP1 DUP3 ADD MLOAD DUP4 DUP3 ADD MSTORE PUSH1 0x20 ADD PUSH2 0x39E4 JUMP JUMPDEST POP POP POP POP SWAP1 POP SWAP1 DUP2 ADD SWAP1 PUSH1 0x1F AND DUP1 ISZERO PUSH2 0x3A29 JUMPI DUP1 DUP3 SUB DUP1 MLOAD PUSH1 0x1 DUP4 PUSH1 0x20 SUB PUSH2 0x100 EXP SUB NOT AND DUP2 MSTORE PUSH1 0x20 ADD SWAP2 POP JUMPDEST POP SWAP8 POP POP POP POP POP POP POP POP PUSH1 0x0 PUSH1 0x40 MLOAD DUP1 DUP4 SUB DUP2 PUSH1 0x0 DUP8 DUP1 PUSH2 0x3A48 PUSH2 0x3F7C JUMP JUMPDEST ISZERO DUP1 ISZERO PUSH2 0x3A5D JUMPI PUSH1 0x0 DUP1 PUSH2 0x3A5A PUSH2 0x3EB6 JUMP JUMPDEST POP POP JUMPDEST POP GAS PUSH2 0x3A67 PUSH2 0x3FC8 JUMP JUMPDEST POP POP POP POP POP POP ISZERO DUP1 ISZERO PUSH2 0x1760 JUMPI RETURNDATASIZE PUSH1 0x0 DUP1 RETURNDATACOPY RETURNDATASIZE PUSH1 0x0 PUSH2 0x298E PUSH2 0x3EB6 JUMP JUMPDEST PUSH1 0x0 PUSH1 0x4 PUSH2 0x3A90 PUSH2 0x3F21 JUMP JUMPDEST SWAP1 PUSH2 0x100 EXP SWAP1 DIV PUSH1 0x1 PUSH1 0x1 PUSH1 0xA0 SHL SUB AND PUSH1 0x1 PUSH1 0x1 PUSH1 0xA0 SHL SUB AND GAS PUSH2 0x3AB2 PUSH2 0x4188 JUMP JUMPDEST PUSH1 0x1 PUSH1 0x1 PUSH1 0xA0 SHL SUB AND EQ DUP1 PUSH2 0x3AFB JUMPI POP PUSH1 0x0 PUSH1 0x5 PUSH2 0x3ACE PUSH2 0x3F21 JUMP JUMPDEST SWAP1 PUSH2 0x100 EXP SWAP1 DIV PUSH1 0x1 PUSH1 0x1 PUSH1 0xA0 SHL SUB AND PUSH1 0x1 PUSH1 0x1 PUSH1 0xA0 SHL SUB AND GAS PUSH2 0x3AF0 PUSH2 0x4188 JUMP JUMPDEST PUSH1 0x1 PUSH1 0x1 PUSH1 0xA0 SHL SUB AND EQ JUMPDEST PUSH2 0x25B1 JUMPI PUSH1 0x40 MLOAD PUSH3 0x461BCD PUSH1 0xE5 SHL DUP2 MSTORE PUSH1 0x20 PUSH1 0x4 DUP3 ADD MSTORE PUSH1 0x17 PUSH1 0x24 DUP3 ADD MSTORE PUSH32 0x4F6E6C79207468652070726F78792063616E2063616C6C000000000000000000 PUSH1 0x44 DUP3 ADD MSTORE PUSH1 0x64 ADD PUSH1 0x40 MLOAD DUP1 SWAP2 SUB SWAP1 PUSH2 0xEE8 PUSH2 0x3EB6 JUMP JUMPDEST PUSH1 0x0 DUP3 DUP3 GT ISZERO PUSH2 0x3BB0 JUMPI PUSH1 0x40 MLOAD PUSH3 0x461BCD PUSH1 0xE5 SHL DUP2 MSTORE PUSH1 0x20 PUSH1 0x4 DUP3 ADD MSTORE PUSH1 0x1E PUSH1 0x24 DUP3 ADD MSTORE PUSH32 0x536166654D6174683A207375627472616374696F6E206F766572666C6F770000 PUSH1 0x44 DUP3 ADD MSTORE PUSH1 0x64 ADD PUSH1 0x40 MLOAD DUP1 SWAP2 SUB SWAP1 PUSH2 0x3BAD PUSH2 0x3EB6 JUMP JUMPDEST POP POP JUMPDEST POP SWAP1 SUB SWAP1 JUMP JUMPDEST PUSH1 0x1 PUSH1 0x1 PUSH1 0xA0 SHL SUB AND SWAP1 JUMP JUMPDEST PUSH1 0x0 PUSH2 0x2CAC PUSH12 0x53797374656D537461747573 PUSH1 0xA0 SHL PUSH1 0x40 MLOAD PUSH1 0x40 DUP1 DUP3 ADD SWAP1 MSTORE PUSH1 0x1C DUP2 MSTORE PUSH32 0x4D697373696E672053797374656D537461747573206164647265737300000000 PUSH1 0x20 DUP3 ADD MSTORE JUMPDEST PUSH1 0x0 DUP3 DUP2 MSTORE PUSH1 0xC PUSH1 0x20 MSTORE DUP1 PUSH1 0x40 DUP2 KECCAK256 PUSH1 0x0 SWAP1 PUSH2 0x3C26 PUSH2 0x3F21 JUMP JUMPDEST PUSH1 0x1 PUSH1 0x1 PUSH1 0xA0 SHL SUB PUSH2 0x100 SWAP3 SWAP1 SWAP3 EXP SWAP1 DIV AND SWAP1 POP DUP3 DUP2 PUSH2 0x3CCD JUMPI PUSH1 0x40 MLOAD PUSH3 0x461BCD PUSH1 0xE5 SHL DUP2 MSTORE PUSH1 0x4 ADD DUP1 DUP1 PUSH1 0x20 ADD DUP3 DUP2 SUB DUP3 MSTORE DUP4 DUP2 DUP2 MLOAD DUP2 MSTORE PUSH1 0x20 ADD SWAP2 POP DUP1 MLOAD SWAP1 PUSH1 0x20 ADD SWAP1 DUP1 DUP4 DUP4 PUSH1 0x0 JUMPDEST DUP4 DUP2 LT ISZERO PUSH2 0x3C89 JUMPI DUP1 DUP3 ADD MLOAD DUP4 DUP3 ADD MSTORE PUSH1 0x20 ADD PUSH2 0x3C71 JUMP JUMPDEST POP POP POP POP SWAP1 POP SWAP1 DUP2 ADD SWAP1 PUSH1 0x1F AND DUP1 ISZERO PUSH2 0x3CB6 JUMPI DUP1 DUP3 SUB DUP1 MLOAD PUSH1 0x1 DUP4 PUSH1 0x20 SUB PUSH2 0x100 EXP SUB NOT AND DUP2 MSTORE PUSH1 0x20 ADD SWAP2 POP JUMPDEST POP SWAP3 POP POP POP PUSH1 0x40 MLOAD DUP1 SWAP2 SUB SWAP1 PUSH2 0x3CCA PUSH2 0x3EB6 JUMP JUMPDEST POP POP JUMPDEST POP SWAP4 SWAP3 POP POP POP JUMP JUMPDEST PUSH1 0x0 DUP3 DUP3 ADD DUP4 DUP2 LT ISZERO PUSH2 0x1874 JUMPI PUSH1 0x40 MLOAD PUSH3 0x461BCD PUSH1 0xE5 SHL DUP2 MSTORE PUSH1 0x20 PUSH1 0x4 DUP3 ADD MSTORE PUSH1 0x1B PUSH1 0x24 DUP3 ADD MSTORE PUSH32 0x536166654D6174683A206164646974696F6E206F766572666C6F770000000000 PUSH1 0x44 DUP3 ADD MSTORE PUSH1 0x64 ADD PUSH1 0x40 MLOAD DUP1 SWAP2 SUB SWAP1 PUSH2 0x3D34 PUSH2 0x3EB6 JUMP JUMPDEST POP POP SWAP4 SWAP3 POP POP POP JUMP JUMPDEST PUSH1 0x0 PUSH1 0x4 PUSH2 0x3D49 PUSH2 0x3F21 JUMP JUMPDEST SWAP1 PUSH2 0x100 EXP SWAP1 DIV PUSH1 0x1 PUSH1 0x1 PUSH1 0xA0 SHL SUB AND PUSH1 0x1 PUSH1 0x1 PUSH1 0xA0 SHL SUB AND PUSH4 0x907DFF97 DUP3 PUSH1 0x40 MLOAD PUSH1 0x20 ADD DUP1 DUP3 DUP2 MSTORE PUSH1 0x20 ADD SWAP2 POP POP PUSH1 0x40 MLOAD PUSH1 0x20 DUP2 DUP4 SUB SUB DUP2 MSTORE SWAP1 PUSH1 0x40 MSTORE PUSH1 0x3 PUSH1 0x40 MLOAD DUP1 PUSH1 0x21 PUSH2 0x433E DUP3 CODECOPY PUSH1 0x21 ADD SWAP1 POP PUSH1 0x40 MLOAD DUP1 SWAP2 SUB SWAP1 KECCAK256 PUSH2 0x2620 DUP9 PUSH2 0x3BB6 JUMP JUMPDEST PUSH1 0x0 PUSH1 0x4 PUSH2 0x3DB6 PUSH2 0x3F21 JUMP JUMPDEST SWAP1 PUSH2 0x100 EXP SWAP1 DIV PUSH1 0x1 PUSH1 0x1 PUSH1 0xA0 SHL SUB AND PUSH1 0x1 PUSH1 0x1 PUSH1 0xA0 SHL SUB AND PUSH4 0x907DFF97 DUP3 PUSH1 0x40 MLOAD PUSH1 0x20 ADD DUP1 DUP3 DUP2 MSTORE PUSH1 0x20 ADD SWAP2 POP POP PUSH1 0x40 MLOAD PUSH1 0x20 DUP2 DUP4 SUB SUB DUP2 MSTORE SWAP1 PUSH1 0x40 MSTORE PUSH1 0x2 PUSH1 0x40 MLOAD PUSH32 0x49737375656428616464726573732C75696E7432353629000000000000000000 DUP2 MSTORE PUSH1 0x17 ADD PUSH1 0x40 MLOAD DUP1 SWAP2 SUB SWAP1 KECCAK256 PUSH2 0x3989 DUP8 PUSH2 0x3BB6 JUMP JUMPDEST PUSH1 0x0 PUSH1 0x4 PUSH2 0x3E3C PUSH2 0x3F21 JUMP JUMPDEST SWAP1 PUSH2 0x100 EXP SWAP1 DIV PUSH1 0x1 PUSH1 0x1 PUSH1 0xA0 SHL SUB AND PUSH1 0x1 PUSH1 0x1 PUSH1 0xA0 SHL SUB AND PUSH4 0x907DFF97 DUP3 PUSH1 0x40 MLOAD PUSH1 0x20 ADD DUP1 DUP3 DUP2 MSTORE PUSH1 0x20 ADD SWAP2 POP POP PUSH1 0x40 MLOAD PUSH1 0x20 DUP2 DUP4 SUB SUB DUP2 MSTORE SWAP1 PUSH1 0x40 MSTORE PUSH1 0x2 PUSH1 0x40 MLOAD PUSH32 0x4275726E656428616464726573732C75696E7432353629000000000000000000 DUP2 MSTORE PUSH1 0x17 ADD PUSH1 0x40 MLOAD DUP1 SWAP2 SUB SWAP1 KECCAK256 PUSH2 0x3989 DUP8 PUSH2 0x3BB6 JUMP JUMPDEST PUSH4 0x2A2A7ADB MSIZE DUP2 PUSH1 0xE0 SHL DUP2 MSTORE PUSH1 0x4 DUP2 ADD PUSH1 0x20 DUP2 MSTORE DUP6 PUSH1 0x20 DUP3 ADD MSTORE PUSH1 0x0 JUMPDEST DUP7 DUP2 LT ISZERO PUSH2 0x3EEE JUMPI DUP1 DUP7 ADD MLOAD DUP3 DUP3 ADD PUSH1 0x40 ADD MSTORE PUSH1 0x20 ADD PUSH2 0x3ED3 JUMP JUMPDEST POP PUSH1 0x20 DUP3 DUP8 PUSH1 0x64 ADD DUP5 CALLER PUSH1 0x0 SWAP1 GAS CALL PC PUSH1 0xE ADD JUMPI RETURNDATASIZE PUSH1 0x0 DUP1 RETURNDATACOPY RETURNDATASIZE PUSH1 0x0 REVERT JUMPDEST RETURNDATASIZE PUSH1 0x1 EQ ISZERO PC PUSH1 0xA ADD JUMPI PUSH1 0x1 PUSH1 0x0 RETURN JUMPDEST POP POP POP JUMP JUMPDEST PUSH4 0x3DAA959 MSIZE DUP2 PUSH1 0xE0 SHL DUP2 MSTORE DUP4 PUSH1 0x4 DUP3 ADD MSTORE PUSH1 0x20 DUP2 PUSH1 0x24 DUP4 CALLER PUSH1 0x0 SWAP1 GAS CALL PC PUSH1 0xE ADD JUMPI RETURNDATASIZE PUSH1 0x0 DUP1 RETURNDATACOPY RETURNDATASIZE PUSH1 0x0 REVERT JUMPDEST RETURNDATASIZE PUSH1 0x1 EQ ISZERO PC PUSH1 0xA ADD JUMPI PUSH1 0x1 PUSH1 0x0 RETURN JUMPDEST DUP1 MLOAD SWAP4 POP PUSH1 0x0 JUMPDEST PUSH1 0x40 DUP2 LT ISZERO PUSH2 0x1325 JUMPI PUSH1 0x0 DUP3 DUP3 ADD MSTORE PUSH1 0x20 ADD PUSH2 0x3F65 JUMP JUMPDEST PUSH4 0x8435035B MSIZE DUP2 PUSH1 0xE0 SHL DUP2 MSTORE DUP4 PUSH1 0x4 DUP3 ADD MSTORE PUSH1 0x20 DUP2 PUSH1 0x24 DUP4 CALLER PUSH1 0x0 SWAP1 GAS CALL PC PUSH1 0xE ADD JUMPI RETURNDATASIZE PUSH1 0x0 DUP1 RETURNDATACOPY RETURNDATASIZE PUSH1 0x0 REVERT JUMPDEST RETURNDATASIZE PUSH1 0x1 EQ ISZERO PC PUSH1 0xA ADD JUMPI PUSH1 0x1 PUSH1 0x0 RETURN JUMPDEST DUP1 MLOAD PUSH1 0x0 DUP3 MSTORE SWAP4 POP PUSH1 0x20 PUSH2 0x3F65 JUMP JUMPDEST PUSH4 0x85979F76 MSIZE DUP2 PUSH1 0xE0 SHL DUP2 MSTORE DUP4 PUSH1 0x4 DUP3 ADD MSTORE DUP5 PUSH1 0x24 DUP3 ADD MSTORE PUSH1 0x60 PUSH1 0x44 DUP3 ADD MSTORE DUP8 PUSH1 0x64 DUP3 ADD MSTORE PUSH1 0x84 DUP2 ADD PUSH1 0x0 JUMPDEST DUP10 DUP2 LT ISZERO PUSH2 0x400C JUMPI DUP1 DUP10 ADD MLOAD DUP3 DUP3 ADD MSTORE PUSH1 0x20 ADD PUSH2 0x3FF4 JUMP JUMPDEST POP DUP9 PUSH2 0x104 ADD DUP3 ADD PUSH1 0x60 DUP4 DUP12 PUSH2 0x104 ADD DUP6 CALLER PUSH1 0x0 SWAP1 GAS CALL PC PUSH1 0xE ADD JUMPI RETURNDATASIZE PUSH1 0x0 DUP1 RETURNDATACOPY RETURNDATASIZE PUSH1 0x0 REVERT JUMPDEST RETURNDATASIZE PUSH1 0x1 EQ ISZERO PC PUSH1 0xA ADD JUMPI PUSH1 0x1 PUSH1 0x0 RETURN JUMPDEST DUP3 MLOAD PUSH1 0x40 DUP5 ADD MLOAD RETURNDATASIZE PUSH1 0x0 DUP7 RETURNDATACOPY DUP14 DUP14 DUP3 PUSH1 0x60 DUP9 ADD CALLER POP PUSH1 0x0 PUSH1 0x4 GAS CALL POP MSIZE DUP6 JUMPDEST DUP2 DUP2 LT ISZERO PUSH2 0x4075 JUMPI PUSH1 0x0 DUP2 MSTORE PUSH1 0x20 ADD PUSH2 0x4061 JUMP JUMPDEST POP SWAP2 SWAP14 POP POP POP POP POP POP POP JUMP JUMPDEST PUSH4 0x22BD64C0 MSIZE DUP2 PUSH1 0xE0 SHL DUP2 MSTORE DUP4 PUSH1 0x4 DUP3 ADD MSTORE DUP5 PUSH1 0x24 DUP3 ADD MSTORE PUSH1 0x0 DUP2 PUSH1 0x44 DUP4 CALLER PUSH1 0x0 SWAP1 GAS CALL PC PUSH1 0xE ADD JUMPI RETURNDATASIZE PUSH1 0x0 DUP1 RETURNDATACOPY RETURNDATASIZE PUSH1 0x0 REVERT JUMPDEST RETURNDATASIZE PUSH1 0x1 EQ ISZERO PC PUSH1 0xA ADD JUMPI PUSH1 0x1 PUSH1 0x0 RETURN JUMPDEST PUSH1 0x0 DUP2 MSTORE PUSH1 0x20 PUSH2 0x3F65 JUMP JUMPDEST PUSH4 0x8540661F MSIZE DUP2 PUSH1 0xE0 SHL DUP2 MSTORE DUP4 PUSH1 0x4 DUP3 ADD MSTORE DUP5 PUSH1 0x24 DUP3 ADD MSTORE PUSH1 0x60 PUSH1 0x44 DUP3 ADD MSTORE DUP7 PUSH1 0x64 DUP3 ADD MSTORE PUSH1 0x84 DUP2 ADD PUSH1 0x0 JUMPDEST DUP9 DUP2 LT ISZERO PUSH2 0x4113 JUMPI DUP1 DUP9 ADD MLOAD DUP3 DUP3 ADD MSTORE PUSH1 0x20 ADD PUSH2 0x40FB JUMP JUMPDEST POP DUP8 PUSH2 0x104 ADD DUP3 ADD PUSH1 0x60 DUP4 DUP11 PUSH2 0x104 ADD DUP6 CALLER PUSH1 0x0 SWAP1 GAS CALL PC PUSH1 0xE ADD JUMPI RETURNDATASIZE PUSH1 0x0 DUP1 RETURNDATACOPY RETURNDATASIZE PUSH1 0x0 REVERT JUMPDEST RETURNDATASIZE PUSH1 0x1 EQ ISZERO PC PUSH1 0xA ADD JUMPI PUSH1 0x1 PUSH1 0x0 RETURN JUMPDEST DUP3 MLOAD PUSH1 0x40 DUP5 ADD MLOAD RETURNDATASIZE PUSH1 0x0 DUP7 RETURNDATACOPY DUP13 DUP13 DUP3 PUSH1 0x60 DUP9 ADD CALLER POP PUSH1 0x0 PUSH1 0x4 GAS CALL POP MSIZE DUP6 JUMPDEST DUP2 DUP2 LT ISZERO PUSH2 0x417C JUMPI PUSH1 0x0 DUP2 MSTORE PUSH1 0x20 ADD PUSH2 0x4168 JUMP JUMPDEST POP SWAP2 SWAP13 POP POP POP POP POP POP POP JUMP JUMPDEST PUSH4 0x73509064 MSIZE DUP2 PUSH1 0xE0 SHL DUP2 MSTORE PUSH1 0x20 DUP2 PUSH1 0x4 DUP4 CALLER PUSH1 0x0 SWAP1 GAS CALL PC PUSH1 0xE ADD JUMPI RETURNDATASIZE PUSH1 0x0 DUP1 RETURNDATACOPY RETURNDATASIZE PUSH1 0x0 REVERT JUMPDEST RETURNDATASIZE PUSH1 0x1 EQ ISZERO PC PUSH1 0xA ADD JUMPI PUSH1 0x1 PUSH1 0x0 RETURN JUMPDEST DUP1 MLOAD PUSH1 0x0 DUP3 MSTORE SWAP4 POP PUSH1 0x20 PUSH2 0x3F65 JUMP JUMPDEST PUSH4 0xBDBF8C36 MSIZE DUP2 PUSH1 0xE0 SHL DUP2 MSTORE PUSH1 0x20 DUP2 PUSH1 0x4 DUP4 CALLER PUSH1 0x0 SWAP1 GAS CALL PC PUSH1 0xE ADD JUMPI RETURNDATASIZE PUSH1 0x0 DUP1 RETURNDATACOPY RETURNDATASIZE PUSH1 0x0 REVERT JUMPDEST RETURNDATASIZE PUSH1 0x1 EQ ISZERO PC PUSH1 0xA ADD JUMPI PUSH1 0x1 PUSH1 0x0 RETURN JUMPDEST DUP1 MLOAD PUSH1 0x0 DUP3 MSTORE SWAP4 POP PUSH1 0x20 PUSH2 0x3F65 JUMP JUMPDEST PUSH1 0x40 MLOAD PUSH2 0x300 DUP1 DUP3 ADD PUSH1 0x40 MSTORE PUSH1 0x18 SWAP1 DUP3 SWAP1 DUP1 CODESIZE DUP4 CODECOPY POP SWAP2 SWAP3 SWAP2 POP POP JUMP INVALID MSIZE PUSH16 0x75206D757374206265206E6F6D696E61 PUSH21 0x6564206265666F726520796F752063616E20616363 PUSH6 0x7074206F776E PUSH6 0x727368697049 PUSH15 0x73756666696369656E742062616C61 PUSH15 0x636520616674657220616E79207365 PUSH21 0x746C656D656E74206F77696E674F6E6C7920466565 POP PUSH16 0x6F6C2C2045786368616E676572206F72 KECCAK256 0x49 PUSH20 0x7375657220636F6E74726163747320616C6C6F77 PUSH6 0x644F6E6C7920 PUSH21 0x686520636F6E7472616374206F776E6572206D6179 KECCAK256 PUSH17 0x6572666F726D207468697320616374696F PUSH15 0x417070726F76616C28616464726573 PUSH20 0x2C616464726573732C75696E743235362943616E PUSH15 0x6F74207472616E7366657220647572 PUSH10 0x6E672077616974696E67 KECCAK256 PUSH17 0x6572696F645472616E7366657228616464 PUSH19 0x6573732C616464726573732C75696E74323536 0x29 NUMBER PUSH2 0x6E6E PUSH16 0x7420707572676520617320746F74616C KECCAK256 PUSH20 0x7570706C792069732061626F7665207468726573 PUSH9 0x6F6C6420616E642072 PUSH2 0x7465 KECCAK256 PUSH10 0x73206E6F742066726F7A PUSH6 0x6E2E00000000 "
		}
	}
}