{
	"abi": [
		{
			"inputs": [
				{
					"internalType": "address",
					"name": "_owner",
					"type": "address"
				},
				{
					"internalType": "contract ISynthetix",
					"name": "_synthetix",
					"type": "address"
				},
				{
					"internalType": "contract IFeePool",
					"name": "_feePool",
					"type": "address"
				}
			],
			"payable": false,
			"stateMutability": "nonpayable",
			"type": "constructor"
		},
		{
			"anonymous": false,
			"inputs": [
				{
					"indexed": false,
					"internalType": "address",
					"name": "newFeePool",
					"type": "address"
				}
			],
			"name": "FeePoolUpdated",
			"type": "event"
		},
		{
			"anonymous": false,
			"inputs": [
				{
					"indexed": false,
					"internalType": "address",
					"name": "oldOwner",
					"type": "address"
				},
				{
					"indexed": false,
					"internalType": "address",
					"name": "newOwner",
					"type": "address"
				}
			],
			"name": "OwnerChanged",
			"type": "event"
		},
		{
			"anonymous": false,
			"inputs": [
				{
					"indexed": false,
					"internalType": "address",
					"name": "newOwner",
					"type": "address"
				}
			],
			"name": "OwnerNominated",
			"type": "event"
		},
		{
			"anonymous": false,
			"inputs": [
				{
					"indexed": false,
					"internalType": "address",
					"name": "newSynthetix",
					"type": "address"
				}
			],
			"name": "SynthetixUpdated",
			"type": "event"
		},
		{
			"anonymous": false,
			"inputs": [
				{
					"indexed": true,
					"internalType": "address",
					"name": "beneficiary",
					"type": "address"
				},
				{
					"indexed": false,
					"internalType": "uint256",
					"name": "time",
					"type": "uint256"
				},
				{
					"indexed": false,
					"internalType": "uint256",
					"name": "value",
					"type": "uint256"
				}
			],
			"name": "Vested",
			"type": "event"
		},
		{
			"anonymous": false,
			"inputs": [
				{
					"indexed": true,
					"internalType": "address",
					"name": "beneficiary",
					"type": "address"
				},
				{
					"indexed": false,
					"internalType": "uint256",
					"name": "time",
					"type": "uint256"
				},
				{
					"indexed": false,
					"internalType": "uint256",
					"name": "value",
					"type": "uint256"
				}
			],
			"name": "VestingEntryCreated",
			"type": "event"
		},
		{
			"constant": true,
			"inputs": [],
			"name": "MAX_VESTING_ENTRIES",
			"outputs": [
				{
					"internalType": "uint256",
					"name": "",
					"type": "uint256"
				}
			],
			"payable": false,
			"stateMutability": "view",
			"type": "function"
		},
		{
			"constant": false,
			"inputs": [],
			"name": "acceptOwnership",
			"outputs": [],
			"payable": false,
			"stateMutability": "nonpayable",
			"type": "function"
		},
		{
			"constant": false,
			"inputs": [
				{
					"internalType": "address",
					"name": "account",
					"type": "address"
				},
				{
					"internalType": "uint256",
					"name": "quantity",
					"type": "uint256"
				}
			],
			"name": "appendVestingEntry",
			"outputs": [],
			"payable": false,
			"stateMutability": "nonpayable",
			"type": "function"
		},
		{
			"constant": true,
			"inputs": [
				{
					"internalType": "address",
					"name": "account",
					"type": "address"
				}
			],
			"name": "balanceOf",
			"outputs": [
				{
					"internalType": "uint256",
					"name": "",
					"type": "uint256"
				}
			],
			"payable": false,
			"stateMutability": "view",
			"type": "function"
		},
		{
			"constant": true,
			"inputs": [
				{
					"internalType": "address",
					"name": "account",
					"type": "address"
				}
			],
			"name": "checkAccountSchedule",
			"outputs": [
				{
					"internalType": "uint256[520]",
					"name": "",
					"type": "uint256[520]"
				}
			],
			"payable": false,
			"stateMutability": "view",
			"type": "function"
		},
		{
			"constant": true,
			"inputs": [],
			"name": "feePool",
			"outputs": [
				{
					"internalType": "contract IFeePool",
					"name": "",
					"type": "address"
				}
			],
			"payable": false,
			"stateMutability": "view",
			"type": "function"
		},
		{
			"constant": true,
			"inputs": [
				{
					"internalType": "address",
					"name": "account",
					"type": "address"
				}
			],
			"name": "getNextVestingEntry",
			"outputs": [
				{
					"internalType": "uint256[2]",
					"name": "",
					"type": "uint256[2]"
				}
			],
			"payable": false,
			"stateMutability": "view",
			"type": "function"
		},
		{
			"constant": true,
			"inputs": [
				{
					"internalType": "address",
					"name": "account",
					"type": "address"
				}
			],
			"name": "getNextVestingIndex",
			"outputs": [
				{
					"internalType": "uint256",
					"name": "",
					"type": "uint256"
				}
			],
			"payable": false,
			"stateMutability": "view",
			"type": "function"
		},
		{
			"constant": true,
			"inputs": [
				{
					"internalType": "address",
					"name": "account",
					"type": "address"
				}
			],
			"name": "getNextVestingQuantity",
			"outputs": [
				{
					"internalType": "uint256",
					"name": "",
					"type": "uint256"
				}
			],
			"payable": false,
			"stateMutability": "view",
			"type": "function"
		},
		{
			"constant": true,
			"inputs": [
				{
					"internalType": "address",
					"name": "account",
					"type": "address"
				}
			],
			"name": "getNextVestingTime",
			"outputs": [
				{
					"internalType": "uint256",
					"name": "",
					"type": "uint256"
				}
			],
			"payable": false,
			"stateMutability": "view",
			"type": "function"
		},
		{
			"constant": true,
			"inputs": [
				{
					"internalType": "address",
					"name": "account",
					"type": "address"
				},
				{
					"internalType": "uint256",
					"name": "index",
					"type": "uint256"
				}
			],
			"name": "getVestingQuantity",
			"outputs": [
				{
					"internalType": "uint256",
					"name": "",
					"type": "uint256"
				}
			],
			"payable": false,
			"stateMutability": "view",
			"type": "function"
		},
		{
			"constant": true,
			"inputs": [
				{
					"internalType": "address",
					"name": "account",
					"type": "address"
				},
				{
					"internalType": "uint256",
					"name": "index",
					"type": "uint256"
				}
			],
			"name": "getVestingScheduleEntry",
			"outputs": [
				{
					"internalType": "uint256[2]",
					"name": "",
					"type": "uint256[2]"
				}
			],
			"payable": false,
			"stateMutability": "view",
			"type": "function"
		},
		{
			"constant": true,
			"inputs": [
				{
					"internalType": "address",
					"name": "account",
					"type": "address"
				},
				{
					"internalType": "uint256",
					"name": "index",
					"type": "uint256"
				}
			],
			"name": "getVestingTime",
			"outputs": [
				{
					"internalType": "uint256",
					"name": "",
					"type": "uint256"
				}
			],
			"payable": false,
			"stateMutability": "view",
			"type": "function"
		},
		{
			"constant": false,
			"inputs": [
				{
					"internalType": "address",
					"name": "_owner",
					"type": "address"
				}
			],
			"name": "nominateNewOwner",
			"outputs": [],
			"payable": false,
			"stateMutability": "nonpayable",
			"type": "function"
		},
		{
			"constant": true,
			"inputs": [],
			"name": "nominatedOwner",
			"outputs": [
				{
					"internalType": "address",
					"name": "",
					"type": "address"
				}
			],
			"payable": false,
			"stateMutability": "view",
			"type": "function"
		},
		{
			"constant": true,
			"inputs": [
				{
					"internalType": "address",
					"name": "account",
					"type": "address"
				}
			],
			"name": "numVestingEntries",
			"outputs": [
				{
					"internalType": "uint256",
					"name": "",
					"type": "uint256"
				}
			],
			"payable": false,
			"stateMutability": "view",
			"type": "function"
		},
		{
			"constant": true,
			"inputs": [],
			"name": "owner",
			"outputs": [
				{
					"internalType": "address",
					"name": "",
					"type": "address"
				}
			],
			"payable": false,
			"stateMutability": "view",
			"type": "function"
		},
		{
			"constant": false,
			"inputs": [
				{
					"internalType": "contract IFeePool",
					"name": "_feePool",
					"type": "address"
				}
			],
			"name": "setFeePool",
			"outputs": [],
			"payable": false,
			"stateMutability": "nonpayable",
			"type": "function"
		},
		{
			"constant": false,
			"inputs": [
				{
					"internalType": "contract ISynthetix",
					"name": "_synthetix",
					"type": "address"
				}
			],
			"name": "setSynthetix",
			"outputs": [],
			"payable": false,
			"stateMutability": "nonpayable",
			"type": "function"
		},
		{
			"constant": true,
			"inputs": [],
			"name": "synthetix",
			"outputs": [
				{
					"internalType": "contract ISynthetix",
					"name": "",
					"type": "address"
				}
			],
			"payable": false,
			"stateMutability": "view",
			"type": "function"
		},
		{
			"constant": true,
			"inputs": [
				{
					"internalType": "address",
					"name": "",
					"type": "address"
				}
			],
			"name": "totalEscrowedAccountBalance",
			"outputs": [
				{
					"internalType": "uint256",
					"name": "",
					"type": "uint256"
				}
			],
			"payable": false,
			"stateMutability": "view",
			"type": "function"
		},
		{
			"constant": true,
			"inputs": [],
			"name": "totalEscrowedBalance",
			"outputs": [
				{
					"internalType": "uint256",
					"name": "",
					"type": "uint256"
				}
			],
			"payable": false,
			"stateMutability": "view",
			"type": "function"
		},
		{
			"constant": true,
			"inputs": [
				{
					"internalType": "address",
					"name": "",
					"type": "address"
				}
			],
			"name": "totalVestedAccountBalance",
			"outputs": [
				{
					"internalType": "uint256",
					"name": "",
					"type": "uint256"
				}
			],
			"payable": false,
			"stateMutability": "view",
			"type": "function"
		},
		{
			"constant": false,
			"inputs": [],
			"name": "vest",
			"outputs": [],
			"payable": false,
			"stateMutability": "nonpayable",
			"type": "function"
		},
		{
			"constant": true,
			"inputs": [
				{
					"internalType": "address",
					"name": "",
					"type": "address"
				},
				{
					"internalType": "uint256",
					"name": "",
					"type": "uint256"
				},
				{
					"internalType": "uint256",
					"name": "",
					"type": "uint256"
				}
			],
			"name": "vestingSchedules",
			"outputs": [
				{
					"internalType": "uint256",
					"name": "",
					"type": "uint256"
				}
			],
			"payable": false,
			"stateMutability": "view",
			"type": "function"
		}
	],
	"evm": {
		"bytecode": {
			"linkReferences": {},
			"object": "60806040523480156200001c5760008062000019620001c9565b50505b5060405162001d0938038062001d09833981810160405260608110156200004d576000806200004a620001c9565b50505b810190808051929190602001805192919060200180519250849150506001600160a01b038116620000cf5760405162461bcd60e51b815260206004820152601960248201527f4f776e657220616464726573732063616e6e6f74206265203000000000000000604482015260640160405180910390620000cc620001c9565b50505b806000600181620000df62000236565b816001600160a01b0302191690836001600160a01b03160217906200010362000298565b5050507fb532073b38c83145e3e5135377a08bf9aab55bc0fd7c1179cd4fb995d2a5159c6000826040516001600160a01b039283168152911660208201526040908101905180910390a1508160026001816200015e62000236565b816001600160a01b0302191690836001600160a01b03160217906200018262000298565b50505080600360006101000a816200019962000236565b816001600160a01b0302191690836001600160a01b0316021790620001bd62000298565b505050505050620002e7565b632a2a7adb598160e01b8152600481016020815285602082015260005b8681101562000203578086015182820160400152602001620001e6565b506020828760640184336000905af158600e01573d6000803e3d6000fd5b3d6001141558600a015760016000f35b505050565b6303daa959598160e01b8152836004820152602081602483336000905af158600e01573d6000803e3d6000fd5b3d6001141558600a015760016000f35b8051935060005b604081101562000293576000828201526020016200027a565b505050565b6322bd64c0598160e01b8152836004820152846024820152600081604483336000905af158600e01573d6000803e3d6000fd5b3d6001141558600a015760016000f35b6000815260206200027a565b611a1280620002f76000396000f3fe6080604052348015610019576000806100166114bd565b50505b506004361061017c5760003560e01c806370a08231116100e75780639b217f90116100a0578063d0cc82e31161007a578063d0cc82e3146104ef578063da7bd3e9146104f7578063ee1d036c1461052c578063fec9f9da146105615761017c565b80639b217f901461047d578063ae2e933b146104b2578063b5ddb9c7146104ba5761017c565b806370a08231146103ff57806371e780f31461042e578063759b52251461043657806379ba50971461043e5780638da5cb5b1461044657806397f465271461044e5761017c565b8063326a3cfb11610139578063326a3cfb146102f0578063449d0eb11461031f578063458efde31461036957806345e5441f1461037157806353a47bb7146103ac5780636b3905c4146103d05761017c565b80631627540c1461018a57806319db2228146101bb57806319e740c0146101ea578063204b676a1461022b578063227d517a1461025a5780632f5bb66114610289575b6000806101876114bd565b50505b6101b9600480360360208110156101a9576000806101a66114bd565b50505b50356001600160a01b0316610590565b005b6101b9600480360360208110156101da576000806101d76114bd565b50505b50356001600160a01b031661060a565b61021960048036036020811015610209576000806102066114bd565b50505b50356001600160a01b0316610685565b60405190815260200160405180910390f35b6102196004803603602081101561024a576000806102476114bd565b50505b50356001600160a01b03166106c7565b61021960048036036020811015610279576000806102766114bd565b50505b50356001600160a01b03166106ef565b6102b8600480360360208110156102a8576000806102a56114bd565b50505b50356001600160a01b031661070a565b6040518082604080838360005b838110156102dd5780820151838201526020016102c5565b5050505090500191505060405180910390f35b6102196004803603602081101561030f5760008061030c6114bd565b50505b50356001600160a01b0316610758565b61034e6004803603602081101561033e5760008061033b6114bd565b50505b50356001600160a01b0316610770565b604051808261410080838360008151838201526020016102c5565b6101b96107f5565b610219600480360360608110156103905760008061038d6114bd565b50505b506001600160a01b038135169060208101359060400135610b44565b6103b4610b8c565b6040516001600160a01b03909116815260200160405180910390f35b610219600480360360208110156103ef576000806103ec6114bd565b50505b50356001600160a01b0316610bab565b6102196004803603602081101561041e5760008061041b6114bd565b50505b50356001600160a01b0316610bc4565b610219610bea565b6103b4610bf4565b6101b9610c00565b6103b4610d83565b6102196004803603602081101561046d5760008061046a6114bd565b50505b50356001600160a01b0316610d8e565b6102196004803603604081101561049c576000806104996114bd565b50505b506001600160a01b038135169060200135610da0565b6103b4610dbb565b6101b9600480360360408110156104d9576000806104d66114bd565b50505b506001600160a01b038135169060200135610dc7565b610219610e51565b6102b860048036036040811015610516576000806105136114bd565b50505b506001600160a01b038135169060200135610e57565b6102196004803603604081101561054b576000806105486114bd565b50505b506001600160a01b038135169060200135610ed7565b6101b9600480360360208110156105805760008061057d6114bd565b50505b50356001600160a01b0316610eea565b610598610f65565b80600180806105a5611528565b816001600160a01b0302191690836001600160a01b03160217906105c7611583565b5050507f906a1c6bd7e3091ea86693dd029a831c19049ce77f1dce2ce0bab1cacbabce22816040516001600160a01b03909116815260200160405180910390a150565b610612610f65565b806003600181610620611528565b816001600160a01b0302191690836001600160a01b0316021790610642611583565b5050507f6d1d088acfe4f30d6014f6f693c61c16258f9784a6ed8439b2c59213eecb6295816040516001600160a01b03909116815260200160405180910390a150565b600080610691836106c7565b905060005b818110156106be576106a88482610da0565b156106b65791506106c29050565b600101610696565b5090505b919050565b6001600160a01b0381166000908152600460205260408120806106e8611528565b9392505050565b60066020528060005260406000209050610707611528565b81565b6107126115d1565b600061071d83610685565b9050610728836106c7565b81141561074e5760405180604001604052806000815260200160008152509150506106c2565b6106e88382610e57565b60056020528060005260406000209050610707611528565b6107786115ec565b6107806115ec565b600061078b846106c7565b905060005b818110156107ec576107a06115d1565b6107aa8683610e57565b90508051848360020261020881106107be57fe5b60200201528060016020020151848360020260010161020881106107de57fe5b602002015250600101610790565b50909392505050565b60006108085a61080361160a565b6106c7565b90506000805b828110156108ec57600061082a5a61082461160a565b83610da0565b90505a610835611650565b81111561084257506108ec565b60006108565a61085061160a565b84610ed7565b905080156108e257604051604080820190526000808252602082018190526004905a61088061160a565b6001600160a01b03166001600160a01b0316815260200190815260200160002084816108aa611528565b81106108b257fe5b90600052602060002090600202019060026108ce929190611696565b506108df848263ffffffff610fdf16565b93505b505060010161080e565b508015610b405761090d816007610901611528565b9063ffffffff61104716565b806007610918611583565b50505061095481600560005a61092c61160a565b6001600160a01b03166001600160a01b03168152602001908152602001600020610901611528565b600560005a61096161160a565b6001600160a01b03166001600160a01b03168152602001908152602001600020819061098b611583565b5050506109d381600660005a61099f61160a565b6001600160a01b03166001600160a01b031681526020019081526020016000206109c7611528565b9063ffffffff610fdf16565b600660005a6109e061160a565b6001600160a01b03166001600160a01b031681526020019081526020016000208190610a0a611583565b5050506002600090610a1a611528565b906101000a90046001600160a01b03166001600160a01b031663a9059cbb5a610a4161160a565b836040516001600160e01b031960e085901b1681526001600160a01b039092166004830152602482015260440160206040518083038160008780610a836116e0565b158015610a9857600080610a956114bd565b50505b505a610aa261172c565b505050505050158015610ac2573d6000803e3d6000610abf6114bd565b50505b505050506040513d6020811015610ae157600080610ade6114bd565b50505b810190808051505050505a610af461160a565b6001600160a01b03167ffbeff59d2bfda0d79ea8a29f8c57c66d48c7a13eabbdb90908d9115ec41c9dc65a610b27611650565b8360405191825260208201526040908101905180910390a25b5050565b60046020528260005260406000208281610b5c611528565b8110610b6457fe5b90600052602060002090600202018160028110610b7d57fe5b01925061070791506115289050565b60006001610b98611528565b906101000a90046001600160a01b031681565b6000610bb68261070a565b60005b602002015192915050565b6001600160a01b0381166000908152600560205260408120610be4611528565b92915050565b6007610707611528565b60006002610b98611528565b60006001610c0c611528565b906101000a90046001600160a01b03166001600160a01b03165a610c2e61160a565b6001600160a01b031614610c7c5760405162461bcd60e51b81526004018080602001828103825260358152602001806118fe6035913960400191505060405180910390610c796114bd565b50505b7fb532073b38c83145e3e5135377a08bf9aab55bc0fd7c1179cd4fb995d2a5159c600080610ca8611528565b906101000a90046001600160a01b03166001600090610cc5611528565b906101000a90046001600160a01b03166040516001600160a01b039283168152911660208201526040908101905180910390a160006001610d04611528565b906101000a90046001600160a01b03166000806101000a81610d24611528565b816001600160a01b0302191690836001600160a01b0316021790610d46611583565b5050506000600160006101000a81610d5c611528565b816001600160a01b0302191690836001600160a01b0316021790610d7e611583565b505050565b600080610b98611528565b6000610d998261070a565b6001610bb9565b6000610dac8383610e57565b60005b60200201519392505050565b60006003610b98611528565b6000806003610dd4611528565b906101000a90046001600160a01b03166001600160a01b03165a610df661160a565b6001600160a01b031614905080610e475760405162461bcd60e51b81526004018080602001828103825260328152602001806119e06032913960400191505060405180910390610e446114bd565b50505b610d7e83836110ac565b61010481565b610e5f6115d1565b6001600160a01b03831660009081526004602052604090208281610e81611528565b8110610e8957fe5b90600052602060002060029182020190604080519081016040529190828260026020028201915b81610eb9611528565b81526020019060010190808311610eb0575050505050905092915050565b6000610ee38383610e57565b6001610daf565b610ef2610f65565b806002600181610f00611528565b816001600160a01b0302191690836001600160a01b0316021790610f22611583565b5050507f46e9c68bd7831071bdd478f1ae4c4a52463961a9d620383a0a121dbfc0e0f06d816040516001600160a01b03909116815260200160405180910390a150565b600080610f70611528565b906101000a90046001600160a01b03166001600160a01b03165a610f9261160a565b6001600160a01b031614610fdd5760405162461bcd60e51b815260040180806020018281038252602f8152602001806119b1602f913960400191505060405180910390610b406114bd565b565b6000828201838110156106e85760405162461bcd60e51b815260206004820152601b60248201527f536166654d6174683a206164646974696f6e206f766572666c6f77000000000060448201526064016040518091039061103e6114bd565b50509392505050565b6000828211156110a65760405162461bcd60e51b815260206004820152601e60248201527f536166654d6174683a207375627472616374696f6e206f766572666c6f7700006044820152606401604051809103906110a36114bd565b50505b50900390565b806111065760405162461bcd60e51b815260206004820152601760248201527f5175616e746974792063616e6e6f74206265207a65726f0000000000000000006044820152606401604051809103906111036114bd565b50505b6111148160076109c7611528565b80600761111f611583565b505050600260009061112f611528565b906101000a90046001600160a01b03166001600160a01b03166370a082315a63996d79a5598160e01b8152602081600483336000905af158600e01573d6000803e3d6000fd5b3d6001141558600a015760016000f35b8051925060005b60408110156111a35760008282015260200161118c565b5050506040516001600160e01b031960e084901b1681526001600160a01b03909116600482015260240160206040518083038186806111e06116e0565b1580156111f5576000806111f26114bd565b50505b505a6111ff6117e5565b505050505015801561121e573d6000803e3d600061121b6114bd565b50505b505050506040513d602081101561123d5760008061123a6114bd565b50505b8101908080519250600791506112539050611528565b11156112995760405162461bcd60e51b815260040180806020018281038252604781526020018061196a60479139606001915050604051809103906112966114bd565b50505b6001600160a01b0382166000908152600460205260408120806112ba611528565b91505061010481111561131c5760405162461bcd60e51b815260206004820152601c60248201527f56657374696e67207363686564756c6520697320746f6f206c6f6e67000000006044820152606401604051809103906113196114bd565b50505b60005a611327611650565b6301dfe20001905081611360576001600160a01b038416600090815260056020528390604090208190611358611583565b5050506113ff565b8061136e8560018503610da0565b106113b35760405162461bcd60e51b815260040180806020018281038252603781526020018061193360379139604001915050604051809103906113b06114bd565b50505b6001600160a01b038416600090815260056020526113d9908490604090206109c7611528565b6001600160a01b038516600090815260056020526040902081906113fb611583565b5050505b6001600160a01b03841660009081526004602052604090206040518060400160405280838152602001858152509080600181611439611528565b018082611444611583565b505060009283529160001983019150602090209192611469926002928302019161189e565b5050836001600160a01b03167fedd34dc5a5ea12bd847909801d0660781b50e26c7f4cec3c7b308f1ea410635c5a61149f611650565b8560405191825260208201526040908101905180910390a250505050565b632a2a7adb598160e01b8152600481016020815285602082015260005b868110156114f55780860151828201604001526020016114da565b506020828760640184336000905af158600e01573d6000803e3d6000fd5b3d6001141558600a015760016000f35b505050565b6303daa959598160e01b8152836004820152602081602483336000905af158600e01573d6000803e3d6000fd5b3d6001141558600a015760016000f35b8051935060005b6040811015610d7e5760008282015260200161156c565b6322bd64c0598160e01b8152836004820152846024820152600081604483336000905af158600e01573d6000803e3d6000fd5b3d6001141558600a015760016000f35b60008152602061156c565b60405160408082018152600290829080388339509192915050565b60405161410080820160405261020890829080388339509192915050565b6373509064598160e01b8152602081600483336000905af158600e01573d6000803e3d6000fd5b3d6001141558600a015760016000f35b8051600082529350602061156c565b63bdbf8c36598160e01b8152602081600483336000905af158600e01573d6000803e3d6000fd5b3d6001141558600a015760016000f35b8051600082529350602061156c565b82600281019282156116d0579160200282015b828111156116d057825160ff16826116bf611583565b5050916020019190600101906116a9565b506116dc9291506118d5565b5090565b638435035b598160e01b8152836004820152602081602483336000905af158600e01573d6000803e3d6000fd5b3d6001141558600a015760016000f35b8051600082529350602061156c565b6385979f76598160e01b8152836004820152846024820152606060448201528760648201526084810160005b89811015611770578089015182820152602001611758565b50886101040182016060838b6101040185336000905af158600e01573d6000803e3d6000fd5b3d6001141558600a015760016000f35b825160408401513d6000863e8d8d82606088013350600060045af15059855b818110156117d957600081526020016117c5565b50919d50505050505050565b638540661f598160e01b8152836004820152846024820152606060448201528660648201526084810160005b88811015611829578088015182820152602001611811565b50876101040182016060838a6101040185336000905af158600e01573d6000803e3d6000fd5b3d6001141558600a015760016000f35b825160408401513d6000863e8c8c82606088013350600060045af15059855b81811015611892576000815260200161187e565b50919c50505050505050565b82600281019282156116d0579160200282015b828111156116d0578251826118c4611583565b5050916020019190600101906118b1565b6118fa91905b808211156116dc57600080826118ef611583565b5050506001016118db565b9056fe596f75206d757374206265206e6f6d696e61746564206265666f726520796f752063616e20616363657074206f776e65727368697043616e6e6f7420616464206e65772076657374656420656e7472696573206561726c696572207468616e20746865206c617374206f6e654d75737420626520656e6f7567682062616c616e636520696e2074686520636f6e747261637420746f2070726f7669646520666f72207468652076657374696e6720656e7472794f6e6c792074686520636f6e7472616374206f776e6572206d617920706572666f726d207468697320616374696f6e4f6e6c792074686520466565506f6f6c20636f6e7472616374732063616e20706572666f726d207468697320616374696f6e",
			"opcodes": "PUSH1 0x80 PUSH1 0x40 MSTORE CALLVALUE DUP1 ISZERO PUSH3 0x1C JUMPI PUSH1 0x0 DUP1 PUSH3 0x19 PUSH3 0x1C9 JUMP JUMPDEST POP POP JUMPDEST POP PUSH1 0x40 MLOAD PUSH3 0x1D09 CODESIZE SUB DUP1 PUSH3 0x1D09 DUP4 CODECOPY DUP2 DUP2 ADD PUSH1 0x40 MSTORE PUSH1 0x60 DUP2 LT ISZERO PUSH3 0x4D JUMPI PUSH1 0x0 DUP1 PUSH3 0x4A PUSH3 0x1C9 JUMP JUMPDEST POP POP JUMPDEST DUP2 ADD SWAP1 DUP1 DUP1 MLOAD SWAP3 SWAP2 SWAP1 PUSH1 0x20 ADD DUP1 MLOAD SWAP3 SWAP2 SWAP1 PUSH1 0x20 ADD DUP1 MLOAD SWAP3 POP DUP5 SWAP2 POP POP PUSH1 0x1 PUSH1 0x1 PUSH1 0xA0 SHL SUB DUP2 AND PUSH3 0xCF JUMPI PUSH1 0x40 MLOAD PUSH3 0x461BCD PUSH1 0xE5 SHL DUP2 MSTORE PUSH1 0x20 PUSH1 0x4 DUP3 ADD MSTORE PUSH1 0x19 PUSH1 0x24 DUP3 ADD MSTORE PUSH32 0x4F776E657220616464726573732063616E6E6F74206265203000000000000000 PUSH1 0x44 DUP3 ADD MSTORE PUSH1 0x64 ADD PUSH1 0x40 MLOAD DUP1 SWAP2 SUB SWAP1 PUSH3 0xCC PUSH3 0x1C9 JUMP JUMPDEST POP POP JUMPDEST DUP1 PUSH1 0x0 PUSH1 0x1 DUP2 PUSH3 0xDF PUSH3 0x236 JUMP JUMPDEST DUP2 PUSH1 0x1 PUSH1 0x1 PUSH1 0xA0 SHL SUB MUL NOT AND SWAP1 DUP4 PUSH1 0x1 PUSH1 0x1 PUSH1 0xA0 SHL SUB AND MUL OR SWAP1 PUSH3 0x103 PUSH3 0x298 JUMP JUMPDEST POP POP POP PUSH32 0xB532073B38C83145E3E5135377A08BF9AAB55BC0FD7C1179CD4FB995D2A5159C PUSH1 0x0 DUP3 PUSH1 0x40 MLOAD PUSH1 0x1 PUSH1 0x1 PUSH1 0xA0 SHL SUB SWAP3 DUP4 AND DUP2 MSTORE SWAP2 AND PUSH1 0x20 DUP3 ADD MSTORE PUSH1 0x40 SWAP1 DUP2 ADD SWAP1 MLOAD DUP1 SWAP2 SUB SWAP1 LOG1 POP DUP2 PUSH1 0x2 PUSH1 0x1 DUP2 PUSH3 0x15E PUSH3 0x236 JUMP JUMPDEST DUP2 PUSH1 0x1 PUSH1 0x1 PUSH1 0xA0 SHL SUB MUL NOT AND SWAP1 DUP4 PUSH1 0x1 PUSH1 0x1 PUSH1 0xA0 SHL SUB AND MUL OR SWAP1 PUSH3 0x182 PUSH3 0x298 JUMP JUMPDEST POP POP POP DUP1 PUSH1 0x3 PUSH1 0x0 PUSH2 0x100 EXP DUP2 PUSH3 0x199 PUSH3 0x236 JUMP JUMPDEST DUP2 PUSH1 0x1 PUSH1 0x1 PUSH1 0xA0 SHL SUB MUL NOT AND SWAP1 DUP4 PUSH1 0x1 PUSH1 0x1 PUSH1 0xA0 SHL SUB AND MUL OR SWAP1 PUSH3 0x1BD PUSH3 0x298 JUMP JUMPDEST POP POP POP POP POP POP PUSH3 0x2E7 JUMP JUMPDEST PUSH4 0x2A2A7ADB MSIZE DUP2 PUSH1 0xE0 SHL DUP2 MSTORE PUSH1 0x4 DUP2 ADD PUSH1 0x20 DUP2 MSTORE DUP6 PUSH1 0x20 DUP3 ADD MSTORE PUSH1 0x0 JUMPDEST DUP7 DUP2 LT ISZERO PUSH3 0x203 JUMPI DUP1 DUP7 ADD MLOAD DUP3 DUP3 ADD PUSH1 0x40 ADD MSTORE PUSH1 0x20 ADD PUSH3 0x1E6 JUMP JUMPDEST POP PUSH1 0x20 DUP3 DUP8 PUSH1 0x64 ADD DUP5 CALLER PUSH1 0x0 SWAP1 GAS CALL PC PUSH1 0xE ADD JUMPI RETURNDATASIZE PUSH1 0x0 DUP1 RETURNDATACOPY RETURNDATASIZE PUSH1 0x0 REVERT JUMPDEST RETURNDATASIZE PUSH1 0x1 EQ ISZERO PC PUSH1 0xA ADD JUMPI PUSH1 0x1 PUSH1 0x0 RETURN JUMPDEST POP POP POP JUMP JUMPDEST PUSH4 0x3DAA959 MSIZE DUP2 PUSH1 0xE0 SHL DUP2 MSTORE DUP4 PUSH1 0x4 DUP3 ADD MSTORE PUSH1 0x20 DUP2 PUSH1 0x24 DUP4 CALLER PUSH1 0x0 SWAP1 GAS CALL PC PUSH1 0xE ADD JUMPI RETURNDATASIZE PUSH1 0x0 DUP1 RETURNDATACOPY RETURNDATASIZE PUSH1 0x0 REVERT JUMPDEST RETURNDATASIZE PUSH1 0x1 EQ ISZERO PC PUSH1 0xA ADD JUMPI PUSH1 0x1 PUSH1 0x0 RETURN JUMPDEST DUP1 MLOAD SWAP4 POP PUSH1 0x0 JUMPDEST PUSH1 0x40 DUP2 LT ISZERO PUSH3 0x293 JUMPI PUSH1 0x0 DUP3 DUP3 ADD MSTORE PUSH1 0x20 ADD PUSH3 0x27A JUMP JUMPDEST POP POP POP JUMP JUMPDEST PUSH4 0x22BD64C0 MSIZE DUP2 PUSH1 0xE0 SHL DUP2 MSTORE DUP4 PUSH1 0x4 DUP3 ADD MSTORE DUP5 PUSH1 0x24 DUP3 ADD MSTORE PUSH1 0x0 DUP2 PUSH1 0x44 DUP4 CALLER PUSH1 0x0 SWAP1 GAS CALL PC PUSH1 0xE ADD JUMPI RETURNDATASIZE PUSH1 0x0 DUP1 RETURNDATACOPY RETURNDATASIZE PUSH1 0x0 REVERT JUMPDEST RETURNDATASIZE PUSH1 0x1 EQ ISZERO PC PUSH1 0xA ADD JUMPI PUSH1 0x1 PUSH1 0x0 RETURN JUMPDEST PUSH1 0x0 DUP2 MSTORE PUSH1 0x20 PUSH3 0x27A JUMP JUMPDEST PUSH2 0x1A12 DUP1 PUSH3 0x2F7 PUSH1 0x0 CODECOPY PUSH1 0x0 RETURN INVALID PUSH1 0x80 PUSH1 0x40 MSTORE CALLVALUE DUP1 ISZERO PUSH2 0x19 JUMPI PUSH1 0x0 DUP1 PUSH2 0x16 PUSH2 0x14BD JUMP JUMPDEST POP POP JUMPDEST POP PUSH1 0x4 CALLDATASIZE LT PUSH2 0x17C JUMPI PUSH1 0x0 CALLDATALOAD PUSH1 0xE0 SHR DUP1 PUSH4 0x70A08231 GT PUSH2 0xE7 JUMPI DUP1 PUSH4 0x9B217F90 GT PUSH2 0xA0 JUMPI DUP1 PUSH4 0xD0CC82E3 GT PUSH2 0x7A JUMPI DUP1 PUSH4 0xD0CC82E3 EQ PUSH2 0x4EF JUMPI DUP1 PUSH4 0xDA7BD3E9 EQ PUSH2 0x4F7 JUMPI DUP1 PUSH4 0xEE1D036C EQ PUSH2 0x52C JUMPI DUP1 PUSH4 0xFEC9F9DA EQ PUSH2 0x561 JUMPI PUSH2 0x17C JUMP JUMPDEST DUP1 PUSH4 0x9B217F90 EQ PUSH2 0x47D JUMPI DUP1 PUSH4 0xAE2E933B EQ PUSH2 0x4B2 JUMPI DUP1 PUSH4 0xB5DDB9C7 EQ PUSH2 0x4BA JUMPI PUSH2 0x17C JUMP JUMPDEST DUP1 PUSH4 0x70A08231 EQ PUSH2 0x3FF JUMPI DUP1 PUSH4 0x71E780F3 EQ PUSH2 0x42E JUMPI DUP1 PUSH4 0x759B5225 EQ PUSH2 0x436 JUMPI DUP1 PUSH4 0x79BA5097 EQ PUSH2 0x43E JUMPI DUP1 PUSH4 0x8DA5CB5B EQ PUSH2 0x446 JUMPI DUP1 PUSH4 0x97F46527 EQ PUSH2 0x44E JUMPI PUSH2 0x17C JUMP JUMPDEST DUP1 PUSH4 0x326A3CFB GT PUSH2 0x139 JUMPI DUP1 PUSH4 0x326A3CFB EQ PUSH2 0x2F0 JUMPI DUP1 PUSH4 0x449D0EB1 EQ PUSH2 0x31F JUMPI DUP1 PUSH4 0x458EFDE3 EQ PUSH2 0x369 JUMPI DUP1 PUSH4 0x45E5441F EQ PUSH2 0x371 JUMPI DUP1 PUSH4 0x53A47BB7 EQ PUSH2 0x3AC JUMPI DUP1 PUSH4 0x6B3905C4 EQ PUSH2 0x3D0 JUMPI PUSH2 0x17C JUMP JUMPDEST DUP1 PUSH4 0x1627540C EQ PUSH2 0x18A JUMPI DUP1 PUSH4 0x19DB2228 EQ PUSH2 0x1BB JUMPI DUP1 PUSH4 0x19E740C0 EQ PUSH2 0x1EA JUMPI DUP1 PUSH4 0x204B676A EQ PUSH2 0x22B JUMPI DUP1 PUSH4 0x227D517A EQ PUSH2 0x25A JUMPI DUP1 PUSH4 0x2F5BB661 EQ PUSH2 0x289 JUMPI JUMPDEST PUSH1 0x0 DUP1 PUSH2 0x187 PUSH2 0x14BD JUMP JUMPDEST POP POP JUMPDEST PUSH2 0x1B9 PUSH1 0x4 DUP1 CALLDATASIZE SUB PUSH1 0x20 DUP2 LT ISZERO PUSH2 0x1A9 JUMPI PUSH1 0x0 DUP1 PUSH2 0x1A6 PUSH2 0x14BD JUMP JUMPDEST POP POP JUMPDEST POP CALLDATALOAD PUSH1 0x1 PUSH1 0x1 PUSH1 0xA0 SHL SUB AND PUSH2 0x590 JUMP JUMPDEST STOP JUMPDEST PUSH2 0x1B9 PUSH1 0x4 DUP1 CALLDATASIZE SUB PUSH1 0x20 DUP2 LT ISZERO PUSH2 0x1DA JUMPI PUSH1 0x0 DUP1 PUSH2 0x1D7 PUSH2 0x14BD JUMP JUMPDEST POP POP JUMPDEST POP CALLDATALOAD PUSH1 0x1 PUSH1 0x1 PUSH1 0xA0 SHL SUB AND PUSH2 0x60A JUMP JUMPDEST PUSH2 0x219 PUSH1 0x4 DUP1 CALLDATASIZE SUB PUSH1 0x20 DUP2 LT ISZERO PUSH2 0x209 JUMPI PUSH1 0x0 DUP1 PUSH2 0x206 PUSH2 0x14BD JUMP JUMPDEST POP POP JUMPDEST POP CALLDATALOAD PUSH1 0x1 PUSH1 0x1 PUSH1 0xA0 SHL SUB AND PUSH2 0x685 JUMP JUMPDEST PUSH1 0x40 MLOAD SWAP1 DUP2 MSTORE PUSH1 0x20 ADD PUSH1 0x40 MLOAD DUP1 SWAP2 SUB SWAP1 RETURN JUMPDEST PUSH2 0x219 PUSH1 0x4 DUP1 CALLDATASIZE SUB PUSH1 0x20 DUP2 LT ISZERO PUSH2 0x24A JUMPI PUSH1 0x0 DUP1 PUSH2 0x247 PUSH2 0x14BD JUMP JUMPDEST POP POP JUMPDEST POP CALLDATALOAD PUSH1 0x1 PUSH1 0x1 PUSH1 0xA0 SHL SUB AND PUSH2 0x6C7 JUMP JUMPDEST PUSH2 0x219 PUSH1 0x4 DUP1 CALLDATASIZE SUB PUSH1 0x20 DUP2 LT ISZERO PUSH2 0x279 JUMPI PUSH1 0x0 DUP1 PUSH2 0x276 PUSH2 0x14BD JUMP JUMPDEST POP POP JUMPDEST POP CALLDATALOAD PUSH1 0x1 PUSH1 0x1 PUSH1 0xA0 SHL SUB AND PUSH2 0x6EF JUMP JUMPDEST PUSH2 0x2B8 PUSH1 0x4 DUP1 CALLDATASIZE SUB PUSH1 0x20 DUP2 LT ISZERO PUSH2 0x2A8 JUMPI PUSH1 0x0 DUP1 PUSH2 0x2A5 PUSH2 0x14BD JUMP JUMPDEST POP POP JUMPDEST POP CALLDATALOAD PUSH1 0x1 PUSH1 0x1 PUSH1 0xA0 SHL SUB AND PUSH2 0x70A JUMP JUMPDEST PUSH1 0x40 MLOAD DUP1 DUP3 PUSH1 0x40 DUP1 DUP4 DUP4 PUSH1 0x0 JUMPDEST DUP4 DUP2 LT ISZERO PUSH2 0x2DD JUMPI DUP1 DUP3 ADD MLOAD DUP4 DUP3 ADD MSTORE PUSH1 0x20 ADD PUSH2 0x2C5 JUMP JUMPDEST POP POP POP POP SWAP1 POP ADD SWAP2 POP POP PUSH1 0x40 MLOAD DUP1 SWAP2 SUB SWAP1 RETURN JUMPDEST PUSH2 0x219 PUSH1 0x4 DUP1 CALLDATASIZE SUB PUSH1 0x20 DUP2 LT ISZERO PUSH2 0x30F JUMPI PUSH1 0x0 DUP1 PUSH2 0x30C PUSH2 0x14BD JUMP JUMPDEST POP POP JUMPDEST POP CALLDATALOAD PUSH1 0x1 PUSH1 0x1 PUSH1 0xA0 SHL SUB AND PUSH2 0x758 JUMP JUMPDEST PUSH2 0x34E PUSH1 0x4 DUP1 CALLDATASIZE SUB PUSH1 0x20 DUP2 LT ISZERO PUSH2 0x33E JUMPI PUSH1 0x0 DUP1 PUSH2 0x33B PUSH2 0x14BD JUMP JUMPDEST POP POP JUMPDEST POP CALLDATALOAD PUSH1 0x1 PUSH1 0x1 PUSH1 0xA0 SHL SUB AND PUSH2 0x770 JUMP JUMPDEST PUSH1 0x40 MLOAD DUP1 DUP3 PUSH2 0x4100 DUP1 DUP4 DUP4 PUSH1 0x0 DUP2 MLOAD DUP4 DUP3 ADD MSTORE PUSH1 0x20 ADD PUSH2 0x2C5 JUMP JUMPDEST PUSH2 0x1B9 PUSH2 0x7F5 JUMP JUMPDEST PUSH2 0x219 PUSH1 0x4 DUP1 CALLDATASIZE SUB PUSH1 0x60 DUP2 LT ISZERO PUSH2 0x390 JUMPI PUSH1 0x0 DUP1 PUSH2 0x38D PUSH2 0x14BD JUMP JUMPDEST POP POP JUMPDEST POP PUSH1 0x1 PUSH1 0x1 PUSH1 0xA0 SHL SUB DUP2 CALLDATALOAD AND SWAP1 PUSH1 0x20 DUP2 ADD CALLDATALOAD SWAP1 PUSH1 0x40 ADD CALLDATALOAD PUSH2 0xB44 JUMP JUMPDEST PUSH2 0x3B4 PUSH2 0xB8C JUMP JUMPDEST PUSH1 0x40 MLOAD PUSH1 0x1 PUSH1 0x1 PUSH1 0xA0 SHL SUB SWAP1 SWAP2 AND DUP2 MSTORE PUSH1 0x20 ADD PUSH1 0x40 MLOAD DUP1 SWAP2 SUB SWAP1 RETURN JUMPDEST PUSH2 0x219 PUSH1 0x4 DUP1 CALLDATASIZE SUB PUSH1 0x20 DUP2 LT ISZERO PUSH2 0x3EF JUMPI PUSH1 0x0 DUP1 PUSH2 0x3EC PUSH2 0x14BD JUMP JUMPDEST POP POP JUMPDEST POP CALLDATALOAD PUSH1 0x1 PUSH1 0x1 PUSH1 0xA0 SHL SUB AND PUSH2 0xBAB JUMP JUMPDEST PUSH2 0x219 PUSH1 0x4 DUP1 CALLDATASIZE SUB PUSH1 0x20 DUP2 LT ISZERO PUSH2 0x41E JUMPI PUSH1 0x0 DUP1 PUSH2 0x41B PUSH2 0x14BD JUMP JUMPDEST POP POP JUMPDEST POP CALLDATALOAD PUSH1 0x1 PUSH1 0x1 PUSH1 0xA0 SHL SUB AND PUSH2 0xBC4 JUMP JUMPDEST PUSH2 0x219 PUSH2 0xBEA JUMP JUMPDEST PUSH2 0x3B4 PUSH2 0xBF4 JUMP JUMPDEST PUSH2 0x1B9 PUSH2 0xC00 JUMP JUMPDEST PUSH2 0x3B4 PUSH2 0xD83 JUMP JUMPDEST PUSH2 0x219 PUSH1 0x4 DUP1 CALLDATASIZE SUB PUSH1 0x20 DUP2 LT ISZERO PUSH2 0x46D JUMPI PUSH1 0x0 DUP1 PUSH2 0x46A PUSH2 0x14BD JUMP JUMPDEST POP POP JUMPDEST POP CALLDATALOAD PUSH1 0x1 PUSH1 0x1 PUSH1 0xA0 SHL SUB AND PUSH2 0xD8E JUMP JUMPDEST PUSH2 0x219 PUSH1 0x4 DUP1 CALLDATASIZE SUB PUSH1 0x40 DUP2 LT ISZERO PUSH2 0x49C JUMPI PUSH1 0x0 DUP1 PUSH2 0x499 PUSH2 0x14BD JUMP JUMPDEST POP POP JUMPDEST POP PUSH1 0x1 PUSH1 0x1 PUSH1 0xA0 SHL SUB DUP2 CALLDATALOAD AND SWAP1 PUSH1 0x20 ADD CALLDATALOAD PUSH2 0xDA0 JUMP JUMPDEST PUSH2 0x3B4 PUSH2 0xDBB JUMP JUMPDEST PUSH2 0x1B9 PUSH1 0x4 DUP1 CALLDATASIZE SUB PUSH1 0x40 DUP2 LT ISZERO PUSH2 0x4D9 JUMPI PUSH1 0x0 DUP1 PUSH2 0x4D6 PUSH2 0x14BD JUMP JUMPDEST POP POP JUMPDEST POP PUSH1 0x1 PUSH1 0x1 PUSH1 0xA0 SHL SUB DUP2 CALLDATALOAD AND SWAP1 PUSH1 0x20 ADD CALLDATALOAD PUSH2 0xDC7 JUMP JUMPDEST PUSH2 0x219 PUSH2 0xE51 JUMP JUMPDEST PUSH2 0x2B8 PUSH1 0x4 DUP1 CALLDATASIZE SUB PUSH1 0x40 DUP2 LT ISZERO PUSH2 0x516 JUMPI PUSH1 0x0 DUP1 PUSH2 0x513 PUSH2 0x14BD JUMP JUMPDEST POP POP JUMPDEST POP PUSH1 0x1 PUSH1 0x1 PUSH1 0xA0 SHL SUB DUP2 CALLDATALOAD AND SWAP1 PUSH1 0x20 ADD CALLDATALOAD PUSH2 0xE57 JUMP JUMPDEST PUSH2 0x219 PUSH1 0x4 DUP1 CALLDATASIZE SUB PUSH1 0x40 DUP2 LT ISZERO PUSH2 0x54B JUMPI PUSH1 0x0 DUP1 PUSH2 0x548 PUSH2 0x14BD JUMP JUMPDEST POP POP JUMPDEST POP PUSH1 0x1 PUSH1 0x1 PUSH1 0xA0 SHL SUB DUP2 CALLDATALOAD AND SWAP1 PUSH1 0x20 ADD CALLDATALOAD PUSH2 0xED7 JUMP JUMPDEST PUSH2 0x1B9 PUSH1 0x4 DUP1 CALLDATASIZE SUB PUSH1 0x20 DUP2 LT ISZERO PUSH2 0x580 JUMPI PUSH1 0x0 DUP1 PUSH2 0x57D PUSH2 0x14BD JUMP JUMPDEST POP POP JUMPDEST POP CALLDATALOAD PUSH1 0x1 PUSH1 0x1 PUSH1 0xA0 SHL SUB AND PUSH2 0xEEA JUMP JUMPDEST PUSH2 0x598 PUSH2 0xF65 JUMP JUMPDEST DUP1 PUSH1 0x1 DUP1 DUP1 PUSH2 0x5A5 PUSH2 0x1528 JUMP JUMPDEST DUP2 PUSH1 0x1 PUSH1 0x1 PUSH1 0xA0 SHL SUB MUL NOT AND SWAP1 DUP4 PUSH1 0x1 PUSH1 0x1 PUSH1 0xA0 SHL SUB AND MUL OR SWAP1 PUSH2 0x5C7 PUSH2 0x1583 JUMP JUMPDEST POP POP POP PUSH32 0x906A1C6BD7E3091EA86693DD029A831C19049CE77F1DCE2CE0BAB1CACBABCE22 DUP2 PUSH1 0x40 MLOAD PUSH1 0x1 PUSH1 0x1 PUSH1 0xA0 SHL SUB SWAP1 SWAP2 AND DUP2 MSTORE PUSH1 0x20 ADD PUSH1 0x40 MLOAD DUP1 SWAP2 SUB SWAP1 LOG1 POP JUMP JUMPDEST PUSH2 0x612 PUSH2 0xF65 JUMP JUMPDEST DUP1 PUSH1 0x3 PUSH1 0x1 DUP2 PUSH2 0x620 PUSH2 0x1528 JUMP JUMPDEST DUP2 PUSH1 0x1 PUSH1 0x1 PUSH1 0xA0 SHL SUB MUL NOT AND SWAP1 DUP4 PUSH1 0x1 PUSH1 0x1 PUSH1 0xA0 SHL SUB AND MUL OR SWAP1 PUSH2 0x642 PUSH2 0x1583 JUMP JUMPDEST POP POP POP PUSH32 0x6D1D088ACFE4F30D6014F6F693C61C16258F9784A6ED8439B2C59213EECB6295 DUP2 PUSH1 0x40 MLOAD PUSH1 0x1 PUSH1 0x1 PUSH1 0xA0 SHL SUB SWAP1 SWAP2 AND DUP2 MSTORE PUSH1 0x20 ADD PUSH1 0x40 MLOAD DUP1 SWAP2 SUB SWAP1 LOG1 POP JUMP JUMPDEST PUSH1 0x0 DUP1 PUSH2 0x691 DUP4 PUSH2 0x6C7 JUMP JUMPDEST SWAP1 POP PUSH1 0x0 JUMPDEST DUP2 DUP2 LT ISZERO PUSH2 0x6BE JUMPI PUSH2 0x6A8 DUP5 DUP3 PUSH2 0xDA0 JUMP JUMPDEST ISZERO PUSH2 0x6B6 JUMPI SWAP2 POP PUSH2 0x6C2 SWAP1 POP JUMP JUMPDEST PUSH1 0x1 ADD PUSH2 0x696 JUMP JUMPDEST POP SWAP1 POP JUMPDEST SWAP2 SWAP1 POP JUMP JUMPDEST PUSH1 0x1 PUSH1 0x1 PUSH1 0xA0 SHL SUB DUP2 AND PUSH1 0x0 SWAP1 DUP2 MSTORE PUSH1 0x4 PUSH1 0x20 MSTORE PUSH1 0x40 DUP2 KECCAK256 DUP1 PUSH2 0x6E8 PUSH2 0x1528 JUMP JUMPDEST SWAP4 SWAP3 POP POP POP JUMP JUMPDEST PUSH1 0x6 PUSH1 0x20 MSTORE DUP1 PUSH1 0x0 MSTORE PUSH1 0x40 PUSH1 0x0 KECCAK256 SWAP1 POP PUSH2 0x707 PUSH2 0x1528 JUMP JUMPDEST DUP2 JUMP JUMPDEST PUSH2 0x712 PUSH2 0x15D1 JUMP JUMPDEST PUSH1 0x0 PUSH2 0x71D DUP4 PUSH2 0x685 JUMP JUMPDEST SWAP1 POP PUSH2 0x728 DUP4 PUSH2 0x6C7 JUMP JUMPDEST DUP2 EQ ISZERO PUSH2 0x74E JUMPI PUSH1 0x40 MLOAD DUP1 PUSH1 0x40 ADD PUSH1 0x40 MSTORE DUP1 PUSH1 0x0 DUP2 MSTORE PUSH1 0x20 ADD PUSH1 0x0 DUP2 MSTORE POP SWAP2 POP POP PUSH2 0x6C2 JUMP JUMPDEST PUSH2 0x6E8 DUP4 DUP3 PUSH2 0xE57 JUMP JUMPDEST PUSH1 0x5 PUSH1 0x20 MSTORE DUP1 PUSH1 0x0 MSTORE PUSH1 0x40 PUSH1 0x0 KECCAK256 SWAP1 POP PUSH2 0x707 PUSH2 0x1528 JUMP JUMPDEST PUSH2 0x778 PUSH2 0x15EC JUMP JUMPDEST PUSH2 0x780 PUSH2 0x15EC JUMP JUMPDEST PUSH1 0x0 PUSH2 0x78B DUP5 PUSH2 0x6C7 JUMP JUMPDEST SWAP1 POP PUSH1 0x0 JUMPDEST DUP2 DUP2 LT ISZERO PUSH2 0x7EC JUMPI PUSH2 0x7A0 PUSH2 0x15D1 JUMP JUMPDEST PUSH2 0x7AA DUP7 DUP4 PUSH2 0xE57 JUMP JUMPDEST SWAP1 POP DUP1 MLOAD DUP5 DUP4 PUSH1 0x2 MUL PUSH2 0x208 DUP2 LT PUSH2 0x7BE JUMPI INVALID JUMPDEST PUSH1 0x20 MUL ADD MSTORE DUP1 PUSH1 0x1 PUSH1 0x20 MUL ADD MLOAD DUP5 DUP4 PUSH1 0x2 MUL PUSH1 0x1 ADD PUSH2 0x208 DUP2 LT PUSH2 0x7DE JUMPI INVALID JUMPDEST PUSH1 0x20 MUL ADD MSTORE POP PUSH1 0x1 ADD PUSH2 0x790 JUMP JUMPDEST POP SWAP1 SWAP4 SWAP3 POP POP POP JUMP JUMPDEST PUSH1 0x0 PUSH2 0x808 GAS PUSH2 0x803 PUSH2 0x160A JUMP JUMPDEST PUSH2 0x6C7 JUMP JUMPDEST SWAP1 POP PUSH1 0x0 DUP1 JUMPDEST DUP3 DUP2 LT ISZERO PUSH2 0x8EC JUMPI PUSH1 0x0 PUSH2 0x82A GAS PUSH2 0x824 PUSH2 0x160A JUMP JUMPDEST DUP4 PUSH2 0xDA0 JUMP JUMPDEST SWAP1 POP GAS PUSH2 0x835 PUSH2 0x1650 JUMP JUMPDEST DUP2 GT ISZERO PUSH2 0x842 JUMPI POP PUSH2 0x8EC JUMP JUMPDEST PUSH1 0x0 PUSH2 0x856 GAS PUSH2 0x850 PUSH2 0x160A JUMP JUMPDEST DUP5 PUSH2 0xED7 JUMP JUMPDEST SWAP1 POP DUP1 ISZERO PUSH2 0x8E2 JUMPI PUSH1 0x40 MLOAD PUSH1 0x40 DUP1 DUP3 ADD SWAP1 MSTORE PUSH1 0x0 DUP1 DUP3 MSTORE PUSH1 0x20 DUP3 ADD DUP2 SWAP1 MSTORE PUSH1 0x4 SWAP1 GAS PUSH2 0x880 PUSH2 0x160A JUMP JUMPDEST PUSH1 0x1 PUSH1 0x1 PUSH1 0xA0 SHL SUB AND PUSH1 0x1 PUSH1 0x1 PUSH1 0xA0 SHL SUB AND DUP2 MSTORE PUSH1 0x20 ADD SWAP1 DUP2 MSTORE PUSH1 0x20 ADD PUSH1 0x0 KECCAK256 DUP5 DUP2 PUSH2 0x8AA PUSH2 0x1528 JUMP JUMPDEST DUP2 LT PUSH2 0x8B2 JUMPI INVALID JUMPDEST SWAP1 PUSH1 0x0 MSTORE PUSH1 0x20 PUSH1 0x0 KECCAK256 SWAP1 PUSH1 0x2 MUL ADD SWAP1 PUSH1 0x2 PUSH2 0x8CE SWAP3 SWAP2 SWAP1 PUSH2 0x1696 JUMP JUMPDEST POP PUSH2 0x8DF DUP5 DUP3 PUSH4 0xFFFFFFFF PUSH2 0xFDF AND JUMP JUMPDEST SWAP4 POP JUMPDEST POP POP PUSH1 0x1 ADD PUSH2 0x80E JUMP JUMPDEST POP DUP1 ISZERO PUSH2 0xB40 JUMPI PUSH2 0x90D DUP2 PUSH1 0x7 PUSH2 0x901 PUSH2 0x1528 JUMP JUMPDEST SWAP1 PUSH4 0xFFFFFFFF PUSH2 0x1047 AND JUMP JUMPDEST DUP1 PUSH1 0x7 PUSH2 0x918 PUSH2 0x1583 JUMP JUMPDEST POP POP POP PUSH2 0x954 DUP2 PUSH1 0x5 PUSH1 0x0 GAS PUSH2 0x92C PUSH2 0x160A JUMP JUMPDEST PUSH1 0x1 PUSH1 0x1 PUSH1 0xA0 SHL SUB AND PUSH1 0x1 PUSH1 0x1 PUSH1 0xA0 SHL SUB AND DUP2 MSTORE PUSH1 0x20 ADD SWAP1 DUP2 MSTORE PUSH1 0x20 ADD PUSH1 0x0 KECCAK256 PUSH2 0x901 PUSH2 0x1528 JUMP JUMPDEST PUSH1 0x5 PUSH1 0x0 GAS PUSH2 0x961 PUSH2 0x160A JUMP JUMPDEST PUSH1 0x1 PUSH1 0x1 PUSH1 0xA0 SHL SUB AND PUSH1 0x1 PUSH1 0x1 PUSH1 0xA0 SHL SUB AND DUP2 MSTORE PUSH1 0x20 ADD SWAP1 DUP2 MSTORE PUSH1 0x20 ADD PUSH1 0x0 KECCAK256 DUP2 SWAP1 PUSH2 0x98B PUSH2 0x1583 JUMP JUMPDEST POP POP POP PUSH2 0x9D3 DUP2 PUSH1 0x6 PUSH1 0x0 GAS PUSH2 0x99F PUSH2 0x160A JUMP JUMPDEST PUSH1 0x1 PUSH1 0x1 PUSH1 0xA0 SHL SUB AND PUSH1 0x1 PUSH1 0x1 PUSH1 0xA0 SHL SUB AND DUP2 MSTORE PUSH1 0x20 ADD SWAP1 DUP2 MSTORE PUSH1 0x20 ADD PUSH1 0x0 KECCAK256 PUSH2 0x9C7 PUSH2 0x1528 JUMP JUMPDEST SWAP1 PUSH4 0xFFFFFFFF PUSH2 0xFDF AND JUMP JUMPDEST PUSH1 0x6 PUSH1 0x0 GAS PUSH2 0x9E0 PUSH2 0x160A JUMP JUMPDEST PUSH1 0x1 PUSH1 0x1 PUSH1 0xA0 SHL SUB AND PUSH1 0x1 PUSH1 0x1 PUSH1 0xA0 SHL SUB AND DUP2 MSTORE PUSH1 0x20 ADD SWAP1 DUP2 MSTORE PUSH1 0x20 ADD PUSH1 0x0 KECCAK256 DUP2 SWAP1 PUSH2 0xA0A PUSH2 0x1583 JUMP JUMPDEST POP POP POP PUSH1 0x2 PUSH1 0x0 SWAP1 PUSH2 0xA1A PUSH2 0x1528 JUMP JUMPDEST SWAP1 PUSH2 0x100 EXP SWAP1 DIV PUSH1 0x1 PUSH1 0x1 PUSH1 0xA0 SHL SUB AND PUSH1 0x1 PUSH1 0x1 PUSH1 0xA0 SHL SUB AND PUSH4 0xA9059CBB GAS PUSH2 0xA41 PUSH2 0x160A JUMP JUMPDEST DUP4 PUSH1 0x40 MLOAD PUSH1 0x1 PUSH1 0x1 PUSH1 0xE0 SHL SUB NOT PUSH1 0xE0 DUP6 SWAP1 SHL AND DUP2 MSTORE PUSH1 0x1 PUSH1 0x1 PUSH1 0xA0 SHL SUB SWAP1 SWAP3 AND PUSH1 0x4 DUP4 ADD MSTORE PUSH1 0x24 DUP3 ADD MSTORE PUSH1 0x44 ADD PUSH1 0x20 PUSH1 0x40 MLOAD DUP1 DUP4 SUB DUP2 PUSH1 0x0 DUP8 DUP1 PUSH2 0xA83 PUSH2 0x16E0 JUMP JUMPDEST ISZERO DUP1 ISZERO PUSH2 0xA98 JUMPI PUSH1 0x0 DUP1 PUSH2 0xA95 PUSH2 0x14BD JUMP JUMPDEST POP POP JUMPDEST POP GAS PUSH2 0xAA2 PUSH2 0x172C JUMP JUMPDEST POP POP POP POP POP POP ISZERO DUP1 ISZERO PUSH2 0xAC2 JUMPI RETURNDATASIZE PUSH1 0x0 DUP1 RETURNDATACOPY RETURNDATASIZE PUSH1 0x0 PUSH2 0xABF PUSH2 0x14BD JUMP JUMPDEST POP POP JUMPDEST POP POP POP POP PUSH1 0x40 MLOAD RETURNDATASIZE PUSH1 0x20 DUP2 LT ISZERO PUSH2 0xAE1 JUMPI PUSH1 0x0 DUP1 PUSH2 0xADE PUSH2 0x14BD JUMP JUMPDEST POP POP JUMPDEST DUP2 ADD SWAP1 DUP1 DUP1 MLOAD POP POP POP POP GAS PUSH2 0xAF4 PUSH2 0x160A JUMP JUMPDEST PUSH1 0x1 PUSH1 0x1 PUSH1 0xA0 SHL SUB AND PUSH32 0xFBEFF59D2BFDA0D79EA8A29F8C57C66D48C7A13EABBDB90908D9115EC41C9DC6 GAS PUSH2 0xB27 PUSH2 0x1650 JUMP JUMPDEST DUP4 PUSH1 0x40 MLOAD SWAP2 DUP3 MSTORE PUSH1 0x20 DUP3 ADD MSTORE PUSH1 0x40 SWAP1 DUP2 ADD SWAP1 MLOAD DUP1 SWAP2 SUB SWAP1 LOG2 JUMPDEST POP POP JUMP JUMPDEST PUSH1 0x4 PUSH1 0x20 MSTORE DUP3 PUSH1 0x0 MSTORE PUSH1 0x40 PUSH1 0x0 KECCAK256 DUP3 DUP2 PUSH2 0xB5C PUSH2 0x1528 JUMP JUMPDEST DUP2 LT PUSH2 0xB64 JUMPI INVALID JUMPDEST SWAP1 PUSH1 0x0 MSTORE PUSH1 0x20 PUSH1 0x0 KECCAK256 SWAP1 PUSH1 0x2 MUL ADD DUP2 PUSH1 0x2 DUP2 LT PUSH2 0xB7D JUMPI INVALID JUMPDEST ADD SWAP3 POP PUSH2 0x707 SWAP2 POP PUSH2 0x1528 SWAP1 POP JUMP JUMPDEST PUSH1 0x0 PUSH1 0x1 PUSH2 0xB98 PUSH2 0x1528 JUMP JUMPDEST SWAP1 PUSH2 0x100 EXP SWAP1 DIV PUSH1 0x1 PUSH1 0x1 PUSH1 0xA0 SHL SUB AND DUP2 JUMP JUMPDEST PUSH1 0x0 PUSH2 0xBB6 DUP3 PUSH2 0x70A JUMP JUMPDEST PUSH1 0x0 JUMPDEST PUSH1 0x20 MUL ADD MLOAD SWAP3 SWAP2 POP POP JUMP JUMPDEST PUSH1 0x1 PUSH1 0x1 PUSH1 0xA0 SHL SUB DUP2 AND PUSH1 0x0 SWAP1 DUP2 MSTORE PUSH1 0x5 PUSH1 0x20 MSTORE PUSH1 0x40 DUP2 KECCAK256 PUSH2 0xBE4 PUSH2 0x1528 JUMP JUMPDEST SWAP3 SWAP2 POP POP JUMP JUMPDEST PUSH1 0x7 PUSH2 0x707 PUSH2 0x1528 JUMP JUMPDEST PUSH1 0x0 PUSH1 0x2 PUSH2 0xB98 PUSH2 0x1528 JUMP JUMPDEST PUSH1 0x0 PUSH1 0x1 PUSH2 0xC0C PUSH2 0x1528 JUMP JUMPDEST SWAP1 PUSH2 0x100 EXP SWAP1 DIV PUSH1 0x1 PUSH1 0x1 PUSH1 0xA0 SHL SUB AND PUSH1 0x1 PUSH1 0x1 PUSH1 0xA0 SHL SUB AND GAS PUSH2 0xC2E PUSH2 0x160A JUMP JUMPDEST PUSH1 0x1 PUSH1 0x1 PUSH1 0xA0 SHL SUB AND EQ PUSH2 0xC7C JUMPI PUSH1 0x40 MLOAD PUSH3 0x461BCD PUSH1 0xE5 SHL DUP2 MSTORE PUSH1 0x4 ADD DUP1 DUP1 PUSH1 0x20 ADD DUP3 DUP2 SUB DUP3 MSTORE PUSH1 0x35 DUP2 MSTORE PUSH1 0x20 ADD DUP1 PUSH2 0x18FE PUSH1 0x35 SWAP2 CODECOPY PUSH1 0x40 ADD SWAP2 POP POP PUSH1 0x40 MLOAD DUP1 SWAP2 SUB SWAP1 PUSH2 0xC79 PUSH2 0x14BD JUMP JUMPDEST POP POP JUMPDEST PUSH32 0xB532073B38C83145E3E5135377A08BF9AAB55BC0FD7C1179CD4FB995D2A5159C PUSH1 0x0 DUP1 PUSH2 0xCA8 PUSH2 0x1528 JUMP JUMPDEST SWAP1 PUSH2 0x100 EXP SWAP1 DIV PUSH1 0x1 PUSH1 0x1 PUSH1 0xA0 SHL SUB AND PUSH1 0x1 PUSH1 0x0 SWAP1 PUSH2 0xCC5 PUSH2 0x1528 JUMP JUMPDEST SWAP1 PUSH2 0x100 EXP SWAP1 DIV PUSH1 0x1 PUSH1 0x1 PUSH1 0xA0 SHL SUB AND PUSH1 0x40 MLOAD PUSH1 0x1 PUSH1 0x1 PUSH1 0xA0 SHL SUB SWAP3 DUP4 AND DUP2 MSTORE SWAP2 AND PUSH1 0x20 DUP3 ADD MSTORE PUSH1 0x40 SWAP1 DUP2 ADD SWAP1 MLOAD DUP1 SWAP2 SUB SWAP1 LOG1 PUSH1 0x0 PUSH1 0x1 PUSH2 0xD04 PUSH2 0x1528 JUMP JUMPDEST SWAP1 PUSH2 0x100 EXP SWAP1 DIV PUSH1 0x1 PUSH1 0x1 PUSH1 0xA0 SHL SUB AND PUSH1 0x0 DUP1 PUSH2 0x100 EXP DUP2 PUSH2 0xD24 PUSH2 0x1528 JUMP JUMPDEST DUP2 PUSH1 0x1 PUSH1 0x1 PUSH1 0xA0 SHL SUB MUL NOT AND SWAP1 DUP4 PUSH1 0x1 PUSH1 0x1 PUSH1 0xA0 SHL SUB AND MUL OR SWAP1 PUSH2 0xD46 PUSH2 0x1583 JUMP JUMPDEST POP POP POP PUSH1 0x0 PUSH1 0x1 PUSH1 0x0 PUSH2 0x100 EXP DUP2 PUSH2 0xD5C PUSH2 0x1528 JUMP JUMPDEST DUP2 PUSH1 0x1 PUSH1 0x1 PUSH1 0xA0 SHL SUB MUL NOT AND SWAP1 DUP4 PUSH1 0x1 PUSH1 0x1 PUSH1 0xA0 SHL SUB AND MUL OR SWAP1 PUSH2 0xD7E PUSH2 0x1583 JUMP JUMPDEST POP POP POP JUMP JUMPDEST PUSH1 0x0 DUP1 PUSH2 0xB98 PUSH2 0x1528 JUMP JUMPDEST PUSH1 0x0 PUSH2 0xD99 DUP3 PUSH2 0x70A JUMP JUMPDEST PUSH1 0x1 PUSH2 0xBB9 JUMP JUMPDEST PUSH1 0x0 PUSH2 0xDAC DUP4 DUP4 PUSH2 0xE57 JUMP JUMPDEST PUSH1 0x0 JUMPDEST PUSH1 0x20 MUL ADD MLOAD SWAP4 SWAP3 POP POP POP JUMP JUMPDEST PUSH1 0x0 PUSH1 0x3 PUSH2 0xB98 PUSH2 0x1528 JUMP JUMPDEST PUSH1 0x0 DUP1 PUSH1 0x3 PUSH2 0xDD4 PUSH2 0x1528 JUMP JUMPDEST SWAP1 PUSH2 0x100 EXP SWAP1 DIV PUSH1 0x1 PUSH1 0x1 PUSH1 0xA0 SHL SUB AND PUSH1 0x1 PUSH1 0x1 PUSH1 0xA0 SHL SUB AND GAS PUSH2 0xDF6 PUSH2 0x160A JUMP JUMPDEST PUSH1 0x1 PUSH1 0x1 PUSH1 0xA0 SHL SUB AND EQ SWAP1 POP DUP1 PUSH2 0xE47 JUMPI PUSH1 0x40 MLOAD PUSH3 0x461BCD PUSH1 0xE5 SHL DUP2 MSTORE PUSH1 0x4 ADD DUP1 DUP1 PUSH1 0x20 ADD DUP3 DUP2 SUB DUP3 MSTORE PUSH1 0x32 DUP2 MSTORE PUSH1 0x20 ADD DUP1 PUSH2 0x19E0 PUSH1 0x32 SWAP2 CODECOPY PUSH1 0x40 ADD SWAP2 POP POP PUSH1 0x40 MLOAD DUP1 SWAP2 SUB SWAP1 PUSH2 0xE44 PUSH2 0x14BD JUMP JUMPDEST POP POP JUMPDEST PUSH2 0xD7E DUP4 DUP4 PUSH2 0x10AC JUMP JUMPDEST PUSH2 0x104 DUP2 JUMP JUMPDEST PUSH2 0xE5F PUSH2 0x15D1 JUMP JUMPDEST PUSH1 0x1 PUSH1 0x1 PUSH1 0xA0 SHL SUB DUP4 AND PUSH1 0x0 SWAP1 DUP2 MSTORE PUSH1 0x4 PUSH1 0x20 MSTORE PUSH1 0x40 SWAP1 KECCAK256 DUP3 DUP2 PUSH2 0xE81 PUSH2 0x1528 JUMP JUMPDEST DUP2 LT PUSH2 0xE89 JUMPI INVALID JUMPDEST SWAP1 PUSH1 0x0 MSTORE PUSH1 0x20 PUSH1 0x0 KECCAK256 PUSH1 0x2 SWAP2 DUP3 MUL ADD SWAP1 PUSH1 0x40 DUP1 MLOAD SWAP1 DUP2 ADD PUSH1 0x40 MSTORE SWAP2 SWAP1 DUP3 DUP3 PUSH1 0x2 PUSH1 0x20 MUL DUP3 ADD SWAP2 JUMPDEST DUP2 PUSH2 0xEB9 PUSH2 0x1528 JUMP JUMPDEST DUP2 MSTORE PUSH1 0x20 ADD SWAP1 PUSH1 0x1 ADD SWAP1 DUP1 DUP4 GT PUSH2 0xEB0 JUMPI POP POP POP POP POP SWAP1 POP SWAP3 SWAP2 POP POP JUMP JUMPDEST PUSH1 0x0 PUSH2 0xEE3 DUP4 DUP4 PUSH2 0xE57 JUMP JUMPDEST PUSH1 0x1 PUSH2 0xDAF JUMP JUMPDEST PUSH2 0xEF2 PUSH2 0xF65 JUMP JUMPDEST DUP1 PUSH1 0x2 PUSH1 0x1 DUP2 PUSH2 0xF00 PUSH2 0x1528 JUMP JUMPDEST DUP2 PUSH1 0x1 PUSH1 0x1 PUSH1 0xA0 SHL SUB MUL NOT AND SWAP1 DUP4 PUSH1 0x1 PUSH1 0x1 PUSH1 0xA0 SHL SUB AND MUL OR SWAP1 PUSH2 0xF22 PUSH2 0x1583 JUMP JUMPDEST POP POP POP PUSH32 0x46E9C68BD7831071BDD478F1AE4C4A52463961A9D620383A0A121DBFC0E0F06D DUP2 PUSH1 0x40 MLOAD PUSH1 0x1 PUSH1 0x1 PUSH1 0xA0 SHL SUB SWAP1 SWAP2 AND DUP2 MSTORE PUSH1 0x20 ADD PUSH1 0x40 MLOAD DUP1 SWAP2 SUB SWAP1 LOG1 POP JUMP JUMPDEST PUSH1 0x0 DUP1 PUSH2 0xF70 PUSH2 0x1528 JUMP JUMPDEST SWAP1 PUSH2 0x100 EXP SWAP1 DIV PUSH1 0x1 PUSH1 0x1 PUSH1 0xA0 SHL SUB AND PUSH1 0x1 PUSH1 0x1 PUSH1 0xA0 SHL SUB AND GAS PUSH2 0xF92 PUSH2 0x160A JUMP JUMPDEST PUSH1 0x1 PUSH1 0x1 PUSH1 0xA0 SHL SUB AND EQ PUSH2 0xFDD JUMPI PUSH1 0x40 MLOAD PUSH3 0x461BCD PUSH1 0xE5 SHL DUP2 MSTORE PUSH1 0x4 ADD DUP1 DUP1 PUSH1 0x20 ADD DUP3 DUP2 SUB DUP3 MSTORE PUSH1 0x2F DUP2 MSTORE PUSH1 0x20 ADD DUP1 PUSH2 0x19B1 PUSH1 0x2F SWAP2 CODECOPY PUSH1 0x40 ADD SWAP2 POP POP PUSH1 0x40 MLOAD DUP1 SWAP2 SUB SWAP1 PUSH2 0xB40 PUSH2 0x14BD JUMP JUMPDEST JUMP JUMPDEST PUSH1 0x0 DUP3 DUP3 ADD DUP4 DUP2 LT ISZERO PUSH2 0x6E8 JUMPI PUSH1 0x40 MLOAD PUSH3 0x461BCD PUSH1 0xE5 SHL DUP2 MSTORE PUSH1 0x20 PUSH1 0x4 DUP3 ADD MSTORE PUSH1 0x1B PUSH1 0x24 DUP3 ADD MSTORE PUSH32 0x536166654D6174683A206164646974696F6E206F766572666C6F770000000000 PUSH1 0x44 DUP3 ADD MSTORE PUSH1 0x64 ADD PUSH1 0x40 MLOAD DUP1 SWAP2 SUB SWAP1 PUSH2 0x103E PUSH2 0x14BD JUMP JUMPDEST POP POP SWAP4 SWAP3 POP POP POP JUMP JUMPDEST PUSH1 0x0 DUP3 DUP3 GT ISZERO PUSH2 0x10A6 JUMPI PUSH1 0x40 MLOAD PUSH3 0x461BCD PUSH1 0xE5 SHL DUP2 MSTORE PUSH1 0x20 PUSH1 0x4 DUP3 ADD MSTORE PUSH1 0x1E PUSH1 0x24 DUP3 ADD MSTORE PUSH32 0x536166654D6174683A207375627472616374696F6E206F766572666C6F770000 PUSH1 0x44 DUP3 ADD MSTORE PUSH1 0x64 ADD PUSH1 0x40 MLOAD DUP1 SWAP2 SUB SWAP1 PUSH2 0x10A3 PUSH2 0x14BD JUMP JUMPDEST POP POP JUMPDEST POP SWAP1 SUB SWAP1 JUMP JUMPDEST DUP1 PUSH2 0x1106 JUMPI PUSH1 0x40 MLOAD PUSH3 0x461BCD PUSH1 0xE5 SHL DUP2 MSTORE PUSH1 0x20 PUSH1 0x4 DUP3 ADD MSTORE PUSH1 0x17 PUSH1 0x24 DUP3 ADD MSTORE PUSH32 0x5175616E746974792063616E6E6F74206265207A65726F000000000000000000 PUSH1 0x44 DUP3 ADD MSTORE PUSH1 0x64 ADD PUSH1 0x40 MLOAD DUP1 SWAP2 SUB SWAP1 PUSH2 0x1103 PUSH2 0x14BD JUMP JUMPDEST POP POP JUMPDEST PUSH2 0x1114 DUP2 PUSH1 0x7 PUSH2 0x9C7 PUSH2 0x1528 JUMP JUMPDEST DUP1 PUSH1 0x7 PUSH2 0x111F PUSH2 0x1583 JUMP JUMPDEST POP POP POP PUSH1 0x2 PUSH1 0x0 SWAP1 PUSH2 0x112F PUSH2 0x1528 JUMP JUMPDEST SWAP1 PUSH2 0x100 EXP SWAP1 DIV PUSH1 0x1 PUSH1 0x1 PUSH1 0xA0 SHL SUB AND PUSH1 0x1 PUSH1 0x1 PUSH1 0xA0 SHL SUB AND PUSH4 0x70A08231 GAS PUSH4 0x996D79A5 MSIZE DUP2 PUSH1 0xE0 SHL DUP2 MSTORE PUSH1 0x20 DUP2 PUSH1 0x4 DUP4 CALLER PUSH1 0x0 SWAP1 GAS CALL PC PUSH1 0xE ADD JUMPI RETURNDATASIZE PUSH1 0x0 DUP1 RETURNDATACOPY RETURNDATASIZE PUSH1 0x0 REVERT JUMPDEST RETURNDATASIZE PUSH1 0x1 EQ ISZERO PC PUSH1 0xA ADD JUMPI PUSH1 0x1 PUSH1 0x0 RETURN JUMPDEST DUP1 MLOAD SWAP3 POP PUSH1 0x0 JUMPDEST PUSH1 0x40 DUP2 LT ISZERO PUSH2 0x11A3 JUMPI PUSH1 0x0 DUP3 DUP3 ADD MSTORE PUSH1 0x20 ADD PUSH2 0x118C JUMP JUMPDEST POP POP POP PUSH1 0x40 MLOAD PUSH1 0x1 PUSH1 0x1 PUSH1 0xE0 SHL SUB NOT PUSH1 0xE0 DUP5 SWAP1 SHL AND DUP2 MSTORE PUSH1 0x1 PUSH1 0x1 PUSH1 0xA0 SHL SUB SWAP1 SWAP2 AND PUSH1 0x4 DUP3 ADD MSTORE PUSH1 0x24 ADD PUSH1 0x20 PUSH1 0x40 MLOAD DUP1 DUP4 SUB DUP2 DUP7 DUP1 PUSH2 0x11E0 PUSH2 0x16E0 JUMP JUMPDEST ISZERO DUP1 ISZERO PUSH2 0x11F5 JUMPI PUSH1 0x0 DUP1 PUSH2 0x11F2 PUSH2 0x14BD JUMP JUMPDEST POP POP JUMPDEST POP GAS PUSH2 0x11FF PUSH2 0x17E5 JUMP JUMPDEST POP POP POP POP POP ISZERO DUP1 ISZERO PUSH2 0x121E JUMPI RETURNDATASIZE PUSH1 0x0 DUP1 RETURNDATACOPY RETURNDATASIZE PUSH1 0x0 PUSH2 0x121B PUSH2 0x14BD JUMP JUMPDEST POP POP JUMPDEST POP POP POP POP PUSH1 0x40 MLOAD RETURNDATASIZE PUSH1 0x20 DUP2 LT ISZERO PUSH2 0x123D JUMPI PUSH1 0x0 DUP1 PUSH2 0x123A PUSH2 0x14BD JUMP JUMPDEST POP POP JUMPDEST DUP2 ADD SWAP1 DUP1 DUP1 MLOAD SWAP3 POP PUSH1 0x7 SWAP2 POP PUSH2 0x1253 SWAP1 POP PUSH2 0x1528 JUMP JUMPDEST GT ISZERO PUSH2 0x1299 JUMPI PUSH1 0x40 MLOAD PUSH3 0x461BCD PUSH1 0xE5 SHL DUP2 MSTORE PUSH1 0x4 ADD DUP1 DUP1 PUSH1 0x20 ADD DUP3 DUP2 SUB DUP3 MSTORE PUSH1 0x47 DUP2 MSTORE PUSH1 0x20 ADD DUP1 PUSH2 0x196A PUSH1 0x47 SWAP2 CODECOPY PUSH1 0x60 ADD SWAP2 POP POP PUSH1 0x40 MLOAD DUP1 SWAP2 SUB SWAP1 PUSH2 0x1296 PUSH2 0x14BD JUMP JUMPDEST POP POP JUMPDEST PUSH1 0x1 PUSH1 0x1 PUSH1 0xA0 SHL SUB DUP3 AND PUSH1 0x0 SWAP1 DUP2 MSTORE PUSH1 0x4 PUSH1 0x20 MSTORE PUSH1 0x40 DUP2 KECCAK256 DUP1 PUSH2 0x12BA PUSH2 0x1528 JUMP JUMPDEST SWAP2 POP POP PUSH2 0x104 DUP2 GT ISZERO PUSH2 0x131C JUMPI PUSH1 0x40 MLOAD PUSH3 0x461BCD PUSH1 0xE5 SHL DUP2 MSTORE PUSH1 0x20 PUSH1 0x4 DUP3 ADD MSTORE PUSH1 0x1C PUSH1 0x24 DUP3 ADD MSTORE PUSH32 0x56657374696E67207363686564756C6520697320746F6F206C6F6E6700000000 PUSH1 0x44 DUP3 ADD MSTORE PUSH1 0x64 ADD PUSH1 0x40 MLOAD DUP1 SWAP2 SUB SWAP1 PUSH2 0x1319 PUSH2 0x14BD JUMP JUMPDEST POP POP JUMPDEST PUSH1 0x0 GAS PUSH2 0x1327 PUSH2 0x1650 JUMP JUMPDEST PUSH4 0x1DFE200 ADD SWAP1 POP DUP2 PUSH2 0x1360 JUMPI PUSH1 0x1 PUSH1 0x1 PUSH1 0xA0 SHL SUB DUP5 AND PUSH1 0x0 SWAP1 DUP2 MSTORE PUSH1 0x5 PUSH1 0x20 MSTORE DUP4 SWAP1 PUSH1 0x40 SWAP1 KECCAK256 DUP2 SWAP1 PUSH2 0x1358 PUSH2 0x1583 JUMP JUMPDEST POP POP POP PUSH2 0x13FF JUMP JUMPDEST DUP1 PUSH2 0x136E DUP6 PUSH1 0x1 DUP6 SUB PUSH2 0xDA0 JUMP JUMPDEST LT PUSH2 0x13B3 JUMPI PUSH1 0x40 MLOAD PUSH3 0x461BCD PUSH1 0xE5 SHL DUP2 MSTORE PUSH1 0x4 ADD DUP1 DUP1 PUSH1 0x20 ADD DUP3 DUP2 SUB DUP3 MSTORE PUSH1 0x37 DUP2 MSTORE PUSH1 0x20 ADD DUP1 PUSH2 0x1933 PUSH1 0x37 SWAP2 CODECOPY PUSH1 0x40 ADD SWAP2 POP POP PUSH1 0x40 MLOAD DUP1 SWAP2 SUB SWAP1 PUSH2 0x13B0 PUSH2 0x14BD JUMP JUMPDEST POP POP JUMPDEST PUSH1 0x1 PUSH1 0x1 PUSH1 0xA0 SHL SUB DUP5 AND PUSH1 0x0 SWAP1 DUP2 MSTORE PUSH1 0x5 PUSH1 0x20 MSTORE PUSH2 0x13D9 SWAP1 DUP5 SWAP1 PUSH1 0x40 SWAP1 KECCAK256 PUSH2 0x9C7 PUSH2 0x1528 JUMP JUMPDEST PUSH1 0x1 PUSH1 0x1 PUSH1 0xA0 SHL SUB DUP6 AND PUSH1 0x0 SWAP1 DUP2 MSTORE PUSH1 0x5 PUSH1 0x20 MSTORE PUSH1 0x40 SWAP1 KECCAK256 DUP2 SWAP1 PUSH2 0x13FB PUSH2 0x1583 JUMP JUMPDEST POP POP POP JUMPDEST PUSH1 0x1 PUSH1 0x1 PUSH1 0xA0 SHL SUB DUP5 AND PUSH1 0x0 SWAP1 DUP2 MSTORE PUSH1 0x4 PUSH1 0x20 MSTORE PUSH1 0x40 SWAP1 KECCAK256 PUSH1 0x40 MLOAD DUP1 PUSH1 0x40 ADD PUSH1 0x40 MSTORE DUP1 DUP4 DUP2 MSTORE PUSH1 0x20 ADD DUP6 DUP2 MSTORE POP SWAP1 DUP1 PUSH1 0x1 DUP2 PUSH2 0x1439 PUSH2 0x1528 JUMP JUMPDEST ADD DUP1 DUP3 PUSH2 0x1444 PUSH2 0x1583 JUMP JUMPDEST POP POP PUSH1 0x0 SWAP3 DUP4 MSTORE SWAP2 PUSH1 0x0 NOT DUP4 ADD SWAP2 POP PUSH1 0x20 SWAP1 KECCAK256 SWAP2 SWAP3 PUSH2 0x1469 SWAP3 PUSH1 0x2 SWAP3 DUP4 MUL ADD SWAP2 PUSH2 0x189E JUMP JUMPDEST POP POP DUP4 PUSH1 0x1 PUSH1 0x1 PUSH1 0xA0 SHL SUB AND PUSH32 0xEDD34DC5A5EA12BD847909801D0660781B50E26C7F4CEC3C7B308F1EA410635C GAS PUSH2 0x149F PUSH2 0x1650 JUMP JUMPDEST DUP6 PUSH1 0x40 MLOAD SWAP2 DUP3 MSTORE PUSH1 0x20 DUP3 ADD MSTORE PUSH1 0x40 SWAP1 DUP2 ADD SWAP1 MLOAD DUP1 SWAP2 SUB SWAP1 LOG2 POP POP POP POP JUMP JUMPDEST PUSH4 0x2A2A7ADB MSIZE DUP2 PUSH1 0xE0 SHL DUP2 MSTORE PUSH1 0x4 DUP2 ADD PUSH1 0x20 DUP2 MSTORE DUP6 PUSH1 0x20 DUP3 ADD MSTORE PUSH1 0x0 JUMPDEST DUP7 DUP2 LT ISZERO PUSH2 0x14F5 JUMPI DUP1 DUP7 ADD MLOAD DUP3 DUP3 ADD PUSH1 0x40 ADD MSTORE PUSH1 0x20 ADD PUSH2 0x14DA JUMP JUMPDEST POP PUSH1 0x20 DUP3 DUP8 PUSH1 0x64 ADD DUP5 CALLER PUSH1 0x0 SWAP1 GAS CALL PC PUSH1 0xE ADD JUMPI RETURNDATASIZE PUSH1 0x0 DUP1 RETURNDATACOPY RETURNDATASIZE PUSH1 0x0 REVERT JUMPDEST RETURNDATASIZE PUSH1 0x1 EQ ISZERO PC PUSH1 0xA ADD JUMPI PUSH1 0x1 PUSH1 0x0 RETURN JUMPDEST POP POP POP JUMP JUMPDEST PUSH4 0x3DAA959 MSIZE DUP2 PUSH1 0xE0 SHL DUP2 MSTORE DUP4 PUSH1 0x4 DUP3 ADD MSTORE PUSH1 0x20 DUP2 PUSH1 0x24 DUP4 CALLER PUSH1 0x0 SWAP1 GAS CALL PC PUSH1 0xE ADD JUMPI RETURNDATASIZE PUSH1 0x0 DUP1 RETURNDATACOPY RETURNDATASIZE PUSH1 0x0 REVERT JUMPDEST RETURNDATASIZE PUSH1 0x1 EQ ISZERO PC PUSH1 0xA ADD JUMPI PUSH1 0x1 PUSH1 0x0 RETURN JUMPDEST DUP1 MLOAD SWAP4 POP PUSH1 0x0 JUMPDEST PUSH1 0x40 DUP2 LT ISZERO PUSH2 0xD7E JUMPI PUSH1 0x0 DUP3 DUP3 ADD MSTORE PUSH1 0x20 ADD PUSH2 0x156C JUMP JUMPDEST PUSH4 0x22BD64C0 MSIZE DUP2 PUSH1 0xE0 SHL DUP2 MSTORE DUP4 PUSH1 0x4 DUP3 ADD MSTORE DUP5 PUSH1 0x24 DUP3 ADD MSTORE PUSH1 0x0 DUP2 PUSH1 0x44 DUP4 CALLER PUSH1 0x0 SWAP1 GAS CALL PC PUSH1 0xE ADD JUMPI RETURNDATASIZE PUSH1 0x0 DUP1 RETURNDATACOPY RETURNDATASIZE PUSH1 0x0 REVERT JUMPDEST RETURNDATASIZE PUSH1 0x1 EQ ISZERO PC PUSH1 0xA ADD JUMPI PUSH1 0x1 PUSH1 0x0 RETURN JUMPDEST PUSH1 0x0 DUP2 MSTORE PUSH1 0x20 PUSH2 0x156C JUMP JUMPDEST PUSH1 0x40 MLOAD PUSH1 0x40 DUP1 DUP3 ADD DUP2 MSTORE PUSH1 0x2 SWAP1 DUP3 SWAP1 DUP1 CODESIZE DUP4 CODECOPY POP SWAP2 SWAP3 SWAP2 POP POP JUMP JUMPDEST PUSH1 0x40 MLOAD PUSH2 0x4100 DUP1 DUP3 ADD PUSH1 0x40 MSTORE PUSH2 0x208 SWAP1 DUP3 SWAP1 DUP1 CODESIZE DUP4 CODECOPY POP SWAP2 SWAP3 SWAP2 POP POP JUMP JUMPDEST PUSH4 0x73509064 MSIZE DUP2 PUSH1 0xE0 SHL DUP2 MSTORE PUSH1 0x20 DUP2 PUSH1 0x4 DUP4 CALLER PUSH1 0x0 SWAP1 GAS CALL PC PUSH1 0xE ADD JUMPI RETURNDATASIZE PUSH1 0x0 DUP1 RETURNDATACOPY RETURNDATASIZE PUSH1 0x0 REVERT JUMPDEST RETURNDATASIZE PUSH1 0x1 EQ ISZERO PC PUSH1 0xA ADD JUMPI PUSH1 0x1 PUSH1 0x0 RETURN JUMPDEST DUP1 MLOAD PUSH1 0x0 DUP3 MSTORE SWAP4 POP PUSH1 0x20 PUSH2 0x156C JUMP JUMPDEST PUSH4 0xBDBF8C36 MSIZE DUP2 PUSH1 0xE0 SHL DUP2 MSTORE PUSH1 0x20 DUP2 PUSH1 0x4 DUP4 CALLER PUSH1 0x0 SWAP1 GAS CALL PC PUSH1 0xE ADD JUMPI RETURNDATASIZE PUSH1 0x0 DUP1 RETURNDATACOPY RETURNDATASIZE PUSH1 0x0 REVERT JUMPDEST RETURNDATASIZE PUSH1 0x1 EQ ISZERO PC PUSH1 0xA ADD JUMPI PUSH1 0x1 PUSH1 0x0 RETURN JUMPDEST DUP1 MLOAD PUSH1 0x0 DUP3 MSTORE SWAP4 POP PUSH1 0x20 PUSH2 0x156C JUMP JUMPDEST DUP3 PUSH1 0x2 DUP2 ADD SWAP3 DUP3 ISZERO PUSH2 0x16D0 JUMPI SWAP2 PUSH1 0x20 MUL DUP3 ADD JUMPDEST DUP3 DUP2 GT ISZERO PUSH2 0x16D0 JUMPI DUP3 MLOAD PUSH1 0xFF AND DUP3 PUSH2 0x16BF PUSH2 0x1583 JUMP JUMPDEST POP POP SWAP2 PUSH1 0x20 ADD SWAP2 SWAP1 PUSH1 0x1 ADD SWAP1 PUSH2 0x16A9 JUMP JUMPDEST POP PUSH2 0x16DC SWAP3 SWAP2 POP PUSH2 0x18D5 JUMP JUMPDEST POP SWAP1 JUMP JUMPDEST PUSH4 0x8435035B MSIZE DUP2 PUSH1 0xE0 SHL DUP2 MSTORE DUP4 PUSH1 0x4 DUP3 ADD MSTORE PUSH1 0x20 DUP2 PUSH1 0x24 DUP4 CALLER PUSH1 0x0 SWAP1 GAS CALL PC PUSH1 0xE ADD JUMPI RETURNDATASIZE PUSH1 0x0 DUP1 RETURNDATACOPY RETURNDATASIZE PUSH1 0x0 REVERT JUMPDEST RETURNDATASIZE PUSH1 0x1 EQ ISZERO PC PUSH1 0xA ADD JUMPI PUSH1 0x1 PUSH1 0x0 RETURN JUMPDEST DUP1 MLOAD PUSH1 0x0 DUP3 MSTORE SWAP4 POP PUSH1 0x20 PUSH2 0x156C JUMP JUMPDEST PUSH4 0x85979F76 MSIZE DUP2 PUSH1 0xE0 SHL DUP2 MSTORE DUP4 PUSH1 0x4 DUP3 ADD MSTORE DUP5 PUSH1 0x24 DUP3 ADD MSTORE PUSH1 0x60 PUSH1 0x44 DUP3 ADD MSTORE DUP8 PUSH1 0x64 DUP3 ADD MSTORE PUSH1 0x84 DUP2 ADD PUSH1 0x0 JUMPDEST DUP10 DUP2 LT ISZERO PUSH2 0x1770 JUMPI DUP1 DUP10 ADD MLOAD DUP3 DUP3 ADD MSTORE PUSH1 0x20 ADD PUSH2 0x1758 JUMP JUMPDEST POP DUP9 PUSH2 0x104 ADD DUP3 ADD PUSH1 0x60 DUP4 DUP12 PUSH2 0x104 ADD DUP6 CALLER PUSH1 0x0 SWAP1 GAS CALL PC PUSH1 0xE ADD JUMPI RETURNDATASIZE PUSH1 0x0 DUP1 RETURNDATACOPY RETURNDATASIZE PUSH1 0x0 REVERT JUMPDEST RETURNDATASIZE PUSH1 0x1 EQ ISZERO PC PUSH1 0xA ADD JUMPI PUSH1 0x1 PUSH1 0x0 RETURN JUMPDEST DUP3 MLOAD PUSH1 0x40 DUP5 ADD MLOAD RETURNDATASIZE PUSH1 0x0 DUP7 RETURNDATACOPY DUP14 DUP14 DUP3 PUSH1 0x60 DUP9 ADD CALLER POP PUSH1 0x0 PUSH1 0x4 GAS CALL POP MSIZE DUP6 JUMPDEST DUP2 DUP2 LT ISZERO PUSH2 0x17D9 JUMPI PUSH1 0x0 DUP2 MSTORE PUSH1 0x20 ADD PUSH2 0x17C5 JUMP JUMPDEST POP SWAP2 SWAP14 POP POP POP POP POP POP POP JUMP JUMPDEST PUSH4 0x8540661F MSIZE DUP2 PUSH1 0xE0 SHL DUP2 MSTORE DUP4 PUSH1 0x4 DUP3 ADD MSTORE DUP5 PUSH1 0x24 DUP3 ADD MSTORE PUSH1 0x60 PUSH1 0x44 DUP3 ADD MSTORE DUP7 PUSH1 0x64 DUP3 ADD MSTORE PUSH1 0x84 DUP2 ADD PUSH1 0x0 JUMPDEST DUP9 DUP2 LT ISZERO PUSH2 0x1829 JUMPI DUP1 DUP9 ADD MLOAD DUP3 DUP3 ADD MSTORE PUSH1 0x20 ADD PUSH2 0x1811 JUMP JUMPDEST POP DUP8 PUSH2 0x104 ADD DUP3 ADD PUSH1 0x60 DUP4 DUP11 PUSH2 0x104 ADD DUP6 CALLER PUSH1 0x0 SWAP1 GAS CALL PC PUSH1 0xE ADD JUMPI RETURNDATASIZE PUSH1 0x0 DUP1 RETURNDATACOPY RETURNDATASIZE PUSH1 0x0 REVERT JUMPDEST RETURNDATASIZE PUSH1 0x1 EQ ISZERO PC PUSH1 0xA ADD JUMPI PUSH1 0x1 PUSH1 0x0 RETURN JUMPDEST DUP3 MLOAD PUSH1 0x40 DUP5 ADD MLOAD RETURNDATASIZE PUSH1 0x0 DUP7 RETURNDATACOPY DUP13 DUP13 DUP3 PUSH1 0x60 DUP9 ADD CALLER POP PUSH1 0x0 PUSH1 0x4 GAS CALL POP MSIZE DUP6 JUMPDEST DUP2 DUP2 LT ISZERO PUSH2 0x1892 JUMPI PUSH1 0x0 DUP2 MSTORE PUSH1 0x20 ADD PUSH2 0x187E JUMP JUMPDEST POP SWAP2 SWAP13 POP POP POP POP POP POP POP JUMP JUMPDEST DUP3 PUSH1 0x2 DUP2 ADD SWAP3 DUP3 ISZERO PUSH2 0x16D0 JUMPI SWAP2 PUSH1 0x20 MUL DUP3 ADD JUMPDEST DUP3 DUP2 GT ISZERO PUSH2 0x16D0 JUMPI DUP3 MLOAD DUP3 PUSH2 0x18C4 PUSH2 0x1583 JUMP JUMPDEST POP POP SWAP2 PUSH1 0x20 ADD SWAP2 SWAP1 PUSH1 0x1 ADD SWAP1 PUSH2 0x18B1 JUMP JUMPDEST PUSH2 0x18FA SWAP2 SWAP1 JUMPDEST DUP1 DUP3 GT ISZERO PUSH2 0x16DC JUMPI PUSH1 0x0 DUP1 DUP3 PUSH2 0x18EF PUSH2 0x1583 JUMP JUMPDEST POP POP POP PUSH1 0x1 ADD PUSH2 0x18DB JUMP JUMPDEST SWAP1 JUMP INVALID MSIZE PUSH16 0x75206D757374206265206E6F6D696E61 PUSH21 0x6564206265666F726520796F752063616E20616363 PUSH6 0x7074206F776E PUSH6 0x727368697043 PUSH2 0x6E6E PUSH16 0x7420616464206E657720766573746564 KECCAK256 PUSH6 0x6E7472696573 KECCAK256 PUSH6 0x61726C696572 KECCAK256 PUSH21 0x68616E20746865206C617374206F6E654D75737420 PUSH3 0x652065 PUSH15 0x6F7567682062616C616E636520696E KECCAK256 PUSH21 0x686520636F6E747261637420746F2070726F766964 PUSH6 0x20666F722074 PUSH9 0x652076657374696E67 KECCAK256 PUSH6 0x6E7472794F6E PUSH13 0x792074686520636F6E74726163 PUSH21 0x206F776E6572206D617920706572666F726D207468 PUSH10 0x7320616374696F6E4F6E PUSH13 0x792074686520466565506F6F6C KECCAK256 PUSH4 0x6F6E7472 PUSH2 0x6374 PUSH20 0x2063616E20706572666F726D2074686973206163 PUSH21 0x696F6E000000000000000000000000000000000000 "
		}
	}
}