{
	"abi": [
		{
			"inputs": [
				{
					"internalType": "address",
					"name": "_owner",
					"type": "address"
				},
				{
					"internalType": "address",
					"name": "_authority",
					"type": "address"
				},
				{
					"internalType": "address",
					"name": "_synthetixProxy",
					"type": "address"
				},
				{
					"internalType": "address",
					"name": "_rewardEscrow",
					"type": "address"
				},
				{
					"internalType": "address",
					"name": "_feePoolProxy",
					"type": "address"
				}
			],
			"payable": false,
			"stateMutability": "nonpayable",
			"type": "constructor"
		},
		{
			"anonymous": false,
			"inputs": [
				{
					"indexed": false,
					"internalType": "address",
					"name": "oldOwner",
					"type": "address"
				},
				{
					"indexed": false,
					"internalType": "address",
					"name": "newOwner",
					"type": "address"
				}
			],
			"name": "OwnerChanged",
			"type": "event"
		},
		{
			"anonymous": false,
			"inputs": [
				{
					"indexed": false,
					"internalType": "address",
					"name": "newOwner",
					"type": "address"
				}
			],
			"name": "OwnerNominated",
			"type": "event"
		},
		{
			"anonymous": false,
			"inputs": [
				{
					"indexed": false,
					"internalType": "uint256",
					"name": "index",
					"type": "uint256"
				},
				{
					"indexed": false,
					"internalType": "address",
					"name": "destination",
					"type": "address"
				},
				{
					"indexed": false,
					"internalType": "uint256",
					"name": "amount",
					"type": "uint256"
				}
			],
			"name": "RewardDistributionAdded",
			"type": "event"
		},
		{
			"anonymous": false,
			"inputs": [
				{
					"indexed": false,
					"internalType": "uint256",
					"name": "amount",
					"type": "uint256"
				}
			],
			"name": "RewardsDistributed",
			"type": "event"
		},
		{
			"constant": false,
			"inputs": [],
			"name": "acceptOwnership",
			"outputs": [],
			"payable": false,
			"stateMutability": "nonpayable",
			"type": "function"
		},
		{
			"constant": false,
			"inputs": [
				{
					"internalType": "address",
					"name": "destination",
					"type": "address"
				},
				{
					"internalType": "uint256",
					"name": "amount",
					"type": "uint256"
				}
			],
			"name": "addRewardDistribution",
			"outputs": [
				{
					"internalType": "bool",
					"name": "",
					"type": "bool"
				}
			],
			"payable": false,
			"stateMutability": "nonpayable",
			"type": "function"
		},
		{
			"constant": true,
			"inputs": [],
			"name": "authority",
			"outputs": [
				{
					"internalType": "address",
					"name": "",
					"type": "address"
				}
			],
			"payable": false,
			"stateMutability": "view",
			"type": "function"
		},
		{
			"constant": false,
			"inputs": [
				{
					"internalType": "uint256",
					"name": "amount",
					"type": "uint256"
				}
			],
			"name": "distributeRewards",
			"outputs": [
				{
					"internalType": "bool",
					"name": "",
					"type": "bool"
				}
			],
			"payable": false,
			"stateMutability": "nonpayable",
			"type": "function"
		},
		{
			"constant": true,
			"inputs": [
				{
					"internalType": "uint256",
					"name": "",
					"type": "uint256"
				}
			],
			"name": "distributions",
			"outputs": [
				{
					"internalType": "address",
					"name": "destination",
					"type": "address"
				},
				{
					"internalType": "uint256",
					"name": "amount",
					"type": "uint256"
				}
			],
			"payable": false,
			"stateMutability": "view",
			"type": "function"
		},
		{
			"constant": true,
			"inputs": [],
			"name": "distributionsLength",
			"outputs": [
				{
					"internalType": "uint256",
					"name": "",
					"type": "uint256"
				}
			],
			"payable": false,
			"stateMutability": "view",
			"type": "function"
		},
		{
			"constant": false,
			"inputs": [
				{
					"internalType": "uint256",
					"name": "index",
					"type": "uint256"
				},
				{
					"internalType": "address",
					"name": "destination",
					"type": "address"
				},
				{
					"internalType": "uint256",
					"name": "amount",
					"type": "uint256"
				}
			],
			"name": "editRewardDistribution",
			"outputs": [
				{
					"internalType": "bool",
					"name": "",
					"type": "bool"
				}
			],
			"payable": false,
			"stateMutability": "nonpayable",
			"type": "function"
		},
		{
			"constant": true,
			"inputs": [],
			"name": "feePoolProxy",
			"outputs": [
				{
					"internalType": "address",
					"name": "",
					"type": "address"
				}
			],
			"payable": false,
			"stateMutability": "view",
			"type": "function"
		},
		{
			"constant": false,
			"inputs": [
				{
					"internalType": "address",
					"name": "_owner",
					"type": "address"
				}
			],
			"name": "nominateNewOwner",
			"outputs": [],
			"payable": false,
			"stateMutability": "nonpayable",
			"type": "function"
		},
		{
			"constant": true,
			"inputs": [],
			"name": "nominatedOwner",
			"outputs": [
				{
					"internalType": "address",
					"name": "",
					"type": "address"
				}
			],
			"payable": false,
			"stateMutability": "view",
			"type": "function"
		},
		{
			"constant": true,
			"inputs": [],
			"name": "owner",
			"outputs": [
				{
					"internalType": "address",
					"name": "",
					"type": "address"
				}
			],
			"payable": false,
			"stateMutability": "view",
			"type": "function"
		},
		{
			"constant": false,
			"inputs": [
				{
					"internalType": "uint256",
					"name": "index",
					"type": "uint256"
				}
			],
			"name": "removeRewardDistribution",
			"outputs": [],
			"payable": false,
			"stateMutability": "nonpayable",
			"type": "function"
		},
		{
			"constant": true,
			"inputs": [],
			"name": "rewardEscrow",
			"outputs": [
				{
					"internalType": "address",
					"name": "",
					"type": "address"
				}
			],
			"payable": false,
			"stateMutability": "view",
			"type": "function"
		},
		{
			"constant": false,
			"inputs": [
				{
					"internalType": "address",
					"name": "_authority",
					"type": "address"
				}
			],
			"name": "setAuthority",
			"outputs": [],
			"payable": false,
			"stateMutability": "nonpayable",
			"type": "function"
		},
		{
			"constant": false,
			"inputs": [
				{
					"internalType": "address",
					"name": "_feePoolProxy",
					"type": "address"
				}
			],
			"name": "setFeePoolProxy",
			"outputs": [],
			"payable": false,
			"stateMutability": "nonpayable",
			"type": "function"
		},
		{
			"constant": false,
			"inputs": [
				{
					"internalType": "address",
					"name": "_rewardEscrow",
					"type": "address"
				}
			],
			"name": "setRewardEscrow",
			"outputs": [],
			"payable": false,
			"stateMutability": "nonpayable",
			"type": "function"
		},
		{
			"constant": false,
			"inputs": [
				{
					"internalType": "address",
					"name": "_synthetixProxy",
					"type": "address"
				}
			],
			"name": "setSynthetixProxy",
			"outputs": [],
			"payable": false,
			"stateMutability": "nonpayable",
			"type": "function"
		},
		{
			"constant": true,
			"inputs": [],
			"name": "synthetixProxy",
			"outputs": [
				{
					"internalType": "address",
					"name": "",
					"type": "address"
				}
			],
			"payable": false,
			"stateMutability": "view",
			"type": "function"
		}
	],
	"evm": {
		"bytecode": {
			"linkReferences": {},
			"object": "60806040523480156200001c576000806200001962000251565b50505b5060405162001cea38038062001cea833981810160405260a08110156200004d576000806200004a62000251565b50505b81019080805192919060200180519291906020018051929190602001805192919060200180519250869150506001600160a01b038116620000df5760405162461bcd60e51b815260206004820152601960248201527f4f776e657220616464726573732063616e6e6f74206265203000000000000000604482015260640160405180910390620000dc62000251565b50505b806000600181620000ef620002be565b816001600160a01b0302191690836001600160a01b03160217906200011362000320565b5050507fb532073b38c83145e3e5135377a08bf9aab55bc0fd7c1179cd4fb995d2a5159c6000826040516001600160a01b039283168152911660208201526040908101905180910390a1508360026001816200016e620002be565b816001600160a01b0302191690836001600160a01b03160217906200019262000320565b50505082600360006101000a81620001a9620002be565b816001600160a01b0302191690836001600160a01b0316021790620001cd62000320565b50505081600460006101000a81620001e4620002be565b816001600160a01b0302191690836001600160a01b03160217906200020862000320565b50505080600560006101000a816200021f620002be565b816001600160a01b0302191690836001600160a01b03160217906200024362000320565b50505050505050506200036f565b632a2a7adb598160e01b8152600481016020815285602082015260005b868110156200028b5780860151828201604001526020016200026e565b506020828760640184336000905af158600e01573d6000803e3d6000fd5b3d6001141558600a015760016000f35b505050565b6303daa959598160e01b8152836004820152602081602483336000905af158600e01573d6000803e3d6000fd5b3d6001141558600a015760016000f35b8051935060005b60408110156200031b5760008282015260200162000302565b505050565b6322bd64c0598160e01b8152836004820152846024820152600081604483336000905af158600e01573d6000803e3d6000fd5b3d6001141558600a015760016000f35b60008152602062000302565b61196b806200037f6000396000f3fe60806040523480156100195760008061001661150b565b50505b506004361061011f5760003560e01c8063817a6951116100ab578063bdd124821161007a578063bdd124821461031e578063bf7e214f14610326578063c9e9cc4d1461032e578063d8297e4414610336578063e54c1671146103655761011f565b8063817a6951146102b95780638da5cb5b146102df57806395896b76146102e7578063a430be6c146103165761011f565b806359974e38116100f257806359974e38146101e45780635de399341461021e57806360eb3ff21461024d57806379ba5097146102825780637a9e5e4b1461028a5761011f565b8063060ca2501461012d5780631627540c146101475780634487d3df1461017857806353a47bb7146101c0575b60008061012a61150b565b50505b6101356103a0565b60405190815260200160405180910390f35b610176600480360360208110156101665760008061016361150b565b50505b50356001600160a01b03166103b4565b005b61019e600480360360208110156101975760008061019461150b565b50505b503561042e565b6040516001600160a01b03909216825260208201526040908101905180910390f35b6101c8610480565b6040516001600160a01b03909116815260200160405180910390f35b61020a600480360360208110156102035760008061020061150b565b50505b503561049f565b604051901515815260200160405180910390f35b6101766004803603602081101561023d5760008061023a61150b565b50505b50356001600160a01b0316610dc3565b61020a6004803603604081101561026c5760008061026961150b565b50505b506001600160a01b038135169060200135610e01565b610176610fcf565b610176600480360360208110156102a9576000806102a661150b565b50505b50356001600160a01b0316611152565b610176600480360360208110156102d8576000806102d561150b565b50505b5035611168565b6101c86112c8565b610176600480360360208110156103065760008061030361150b565b50505b50356001600160a01b03166112d3565b6101c86112e9565b6101c86112f5565b6101c8611301565b6101c861130d565b610176600480360360208110156103555760008061035261150b565b50505b50356001600160a01b0316611319565b61020a600480360360608110156103845760008061038161150b565b50505b508035906001600160a01b03602082013516906040013561132f565b60006006806103ad611576565b9150505b90565b6103bc61142c565b80600180806103c9611576565b816001600160a01b0302191690836001600160a01b03160217906103eb6115d1565b5050507f906a1c6bd7e3091ea86693dd029a831c19049ce77f1dce2ce0bab1cacbabce22816040516001600160a01b03909116815260200160405180910390a150565b6006818161043a611576565b811061044257fe5b906000526020600020600290910201905060008161045e611576565b906101000a90046001600160a01b0316908060010161047b611576565b905082565b6000600161048c611576565b906101000a90046001600160a01b031681565b60008082116104f55760405162461bcd60e51b81526020600482015260156024820152744e6f7468696e6720746f206469737472696275746560581b6044820152606401604051809103906104f261150b565b50505b60006002610501611576565b906101000a90046001600160a01b03166001600160a01b03165a61052361161f565b6001600160a01b0316146105865760405162461bcd60e51b815260206004820152601860248201527f43616c6c6572206973206e6f7420617574686f7269736564000000000000000060448201526064016040518091039061058361150b565b50505b6000806004610593611576565b906101000a90046001600160a01b03166001600160a01b031614156106075760405162461bcd60e51b815260206004820152601760248201527f526577617264457363726f77206973206e6f742073657400000000000000000060448201526064016040518091039061060461150b565b50505b6000806003610614611576565b906101000a90046001600160a01b03166001600160a01b031614156106885760405162461bcd60e51b815260206004820152601960248201527f53796e74686574697850726f7879206973206e6f74207365740000000000000060448201526064016040518091039061068561150b565b50505b6000806005610695611576565b906101000a90046001600160a01b03166001600160a01b031614156107095760405162461bcd60e51b815260206004820152601760248201527f466565506f6f6c50726f7879206973206e6f742073657400000000000000000060448201526064016040518091039061070661150b565b50505b8160006003610716611576565b906101000a90046001600160a01b03166001600160a01b03166370a082315a63996d79a5598160e01b8152602081600483336000905af158600e01573d6000803e3d6000fd5b3d6001141558600a015760016000f35b8051925060005b604081101561078a57600082820152602001610773565b5050506040516001600160e01b031960e084901b1681526001600160a01b03909116600482015260240160206040518083038186806107c7611665565b1580156107dc576000806107d961150b565b50505b505a6107e66116b1565b5050505050158015610805573d6000803e3d600061080261150b565b50505b505050506040513d60208110156108245760008061082161150b565b50505b810190808051939093101592506108789150505760405162461bcd60e51b81526004018080602001828103825260468152602001806118f6604691396060019150506040518091039061087561150b565b50505b8160005b600680610887611576565b9050811015610bf85760006006828161089e611576565b81106108a657fe5b906000526020600020600091600202016108be611576565b906101000a90046001600160a01b03166001600160a01b031614158061090f5750600681816108eb611576565b81106108f357fe5b906000526020600020906002020160010161090c611576565b15155b15610bf05761095160068281610923611576565b811061092b57fe5b9060005260206000209060020201600101610944611576565b839063ffffffff6114a616565b91506000600361095f611576565b906101000a90046001600160a01b03166001600160a01b031663a9059cbb60068381610989611576565b811061099157fe5b906000526020600020600091600202016109a9611576565b906101000a90046001600160a01b0316600684816109c5611576565b81106109cd57fe5b90600052602060002090600202016001016109e6611576565b6040516001600160e01b031960e085901b1681526001600160a01b039092166004830152602482015260440160206040518083038160008780610a27611665565b158015610a3c57600080610a3961150b565b50505b505a610a4661176a565b505050505050158015610a66573d6000803e3d6000610a6361150b565b50505b505050506040513d6020811015610a8557600080610a8261150b565b50505b81019080805150606092506006915083905081610aa0611576565b8110610aa857fe5b9060005260206000209060020201600101610ac1611576565b6040516024810191909152604401604051601f19818303018152604091909152633c6b16ab60e01b6020820180516001600160e01b031690911790529050600060068381610b0d611576565b8110610b1557fe5b90600052602060002060009160020201610b2d611576565b906101000a90046001600160a01b03166001600160a01b0316826040518082805190602001908083835b60208310610b765780518252601f199092019160209182019101610b57565b6001836020036101000a0380198251168184511680821785525050505050509050019150506000604051808303816000865a610bb061176a565b5050505050509150503d8060008114610be5576040513d603f01601f191681016040523d815291503d6000602084013e610bea565b606091505b50505050505b60010161087c565b5060006003610c05611576565b6001600160a01b036101009290920a90041663a9059cbb60006004610c28611576565b906101000a90046001600160a01b0316836040516001600160e01b031960e085901b1681526001600160a01b039092166004830152602482015260440160206040518083038160008780610c7a611665565b158015610c8f57600080610c8c61150b565b50505b505a610c9961176a565b505050505050158015610cb9573d6000803e3d6000610cb661150b565b50505b505050506040513d6020811015610cd857600080610cd561150b565b50505b810190808051506000925060059150610cf19050611576565b906101000a90046001600160a01b03166001600160a01b031663fd1f498d826040516001600160e01b031960e084901b168152600481019190915260240160006040518083038160008780610d44611665565b158015610d5957600080610d5661150b565b50505b505a610d6361176a565b505050505050158015610d83573d6000803e3d6000610d8061150b565b50505b505050507f6d1c76d614228b523baa4dcd9539e2c713b54ff4ab3ff2d1627e7f6cd32be4428360405190815260200160405180910390a150600192915050565b610dcb61142c565b806004600181610dd9611576565b816001600160a01b0302191690836001600160a01b0316021790610dfb6115d1565b50505050565b6000610e0b61142c565b6001600160a01b038316610e6e5760405162461bcd60e51b815260206004820152601760248201527f43616e74206164642061207a65726f2061646472657373000000000000000000604482015260640160405180910390610e6b61150b565b50505b81610ec15760405162461bcd60e51b815260206004820152601660248201527510d85b9d081859190818481e995c9bc8185b5bdd5b9d60521b604482015260640160405180910390610ebe61150b565b50505b610ec9611823565b604051604080820190526001600160a01b038516815260208101849052905080600680600181610ef7611576565b018082610f026115d1565b50506000928352916000198301915060209020919291600290910201815181600181610f2c611576565b816001600160a01b0302191690836001600160a01b0316021790610f4e6115d1565b505050602082015181600101610f626115d1565b50505050507f08fff3cb767a84a8039ea0f84053799c5cdca0e8efb031eeb6b05b9c174aa2086001600680610f95611576565b90500385856040519283526001600160a01b0390911660208301526040808301919091526060909101905180910390a15060019392505050565b60006001610fdb611576565b906101000a90046001600160a01b03166001600160a01b03165a610ffd61161f565b6001600160a01b03161461104b5760405162461bcd60e51b81526004018080602001828103825260358152602001806118c1603591396040019150506040518091039061104861150b565b50505b7fb532073b38c83145e3e5135377a08bf9aab55bc0fd7c1179cd4fb995d2a5159c600080611077611576565b906101000a90046001600160a01b03166001600090611094611576565b906101000a90046001600160a01b03166040516001600160a01b039283168152911660208201526040908101905180910390a1600060016110d3611576565b906101000a90046001600160a01b03166000806101000a816110f3611576565b816001600160a01b0302191690836001600160a01b03160217906111156115d1565b5050506000600160006101000a8161112b611576565b816001600160a01b0302191690836001600160a01b031602179061114d6115d1565b505050565b61115a61142c565b806002600181610dd9611576565b61117061142c565b600160068061117d611576565b9050038111156111d25760405162461bcd60e51b8152602060048201526013602482015272696e646578206f7574206f6620626f756e647360681b6044820152606401604051809103906111cf61150b565b50505b805b60016006806111e1611576565b9050038110156112a957600681600101816111fa611576565b811061120257fe5b90600052602060002090600202016006828161121c611576565b811061122457fe5b90600052602060002060029091020160008261123e611576565b6001600160a01b036101009290920a9004168160018161125c611576565b816001600160a01b0302191690836001600160a01b031602179061127e6115d1565b5050506001820161128d611576565b816001016112996115d1565b5050600190920191506111d49050565b506006806112b5611576565b906112c490600019830161183a565b5050565b60008061048c611576565b6112db61142c565b806003600181610dd9611576565b6000600461048c611576565b6000600361048c611576565b6000600261048c611576565b6000600561048c611576565b61132161142c565b806005600181610dd9611576565b600061133961142c565b6001600680611346611576565b90500384111561139b5760405162461bcd60e51b8152602060048201526013602482015272696e646578206f7574206f6620626f756e647360681b60448201526064016040518091039061139861150b565b50505b82600685816113a8611576565b81106113b057fe5b9060005260206000206002909102016001816113ca611576565b816001600160a01b0302191690836001600160a01b03160217906113ec6115d1565b50505081600685816113fc611576565b811061140457fe5b9060005260206000209060020201600101819061141f6115d1565b5060019695505050505050565b600080611437611576565b906101000a90046001600160a01b03166001600160a01b03165a61145961161f565b6001600160a01b0316146114a45760405162461bcd60e51b815260040180806020018281038252602f81526020018061193c602f9139604001915050604051809103906112c461150b565b565b6000828211156115055760405162461bcd60e51b815260206004820152601e60248201527f536166654d6174683a207375627472616374696f6e206f766572666c6f77000060448201526064016040518091039061150261150b565b50505b50900390565b632a2a7adb598160e01b8152600481016020815285602082015260005b86811015611543578086015182820160400152602001611528565b506020828760640184336000905af158600e01573d6000803e3d6000fd5b3d6001141558600a015760016000f35b505050565b6303daa959598160e01b8152836004820152602081602483336000905af158600e01573d6000803e3d6000fd5b3d6001141558600a015760016000f35b8051935060005b604081101561114d576000828201526020016115ba565b6322bd64c0598160e01b8152836004820152846024820152600081604483336000905af158600e01573d6000803e3d6000fd5b3d6001141558600a015760016000f35b6000815260206115ba565b6373509064598160e01b8152602081600483336000905af158600e01573d6000803e3d6000fd5b3d6001141558600a015760016000f35b805160008252935060206115ba565b638435035b598160e01b8152836004820152602081602483336000905af158600e01573d6000803e3d6000fd5b3d6001141558600a015760016000f35b805160008252935060206115ba565b638540661f598160e01b8152836004820152846024820152606060448201528660648201526084810160005b888110156116f55780880151828201526020016116dd565b50876101040182016060838a6101040185336000905af158600e01573d6000803e3d6000fd5b3d6001141558600a015760016000f35b825160408401513d6000863e8c8c82606088013350600060045af15059855b8181101561175e576000815260200161174a565b50919c50505050505050565b6385979f76598160e01b8152836004820152846024820152606060448201528760648201526084810160005b898110156117ae578089015182820152602001611796565b50886101040182016060838b6101040185336000905af158600e01573d6000803e3d6000fd5b3d6001141558600a015760016000f35b825160408401513d6000863e8d8d82606088013350600060045af15059855b818110156118175760008152602001611803565b50919d50505050505050565b604051604080820190526000808252602082015290565b81611843611576565b818361184d6115d1565b50508181111561114d576002028160020283600052602060002061114d92810191016103b191905b808211156118bc5760008160018161188b611576565b906001600160a01b03021916906118a06115d1565b5050600182016000906118b16115d1565b505050600201611875565b509056fe596f75206d757374206265206e6f6d696e61746564206265666f726520796f752063616e20616363657074206f776e65727368697052657761726473446973747269627574696f6e20636f6e747261637420646f6573206e6f74206861766520656e6f75676820746f6b656e7320746f20646973747269627574654f6e6c792074686520636f6e7472616374206f776e6572206d617920706572666f726d207468697320616374696f6e",
			"opcodes": "PUSH1 0x80 PUSH1 0x40 MSTORE CALLVALUE DUP1 ISZERO PUSH3 0x1C JUMPI PUSH1 0x0 DUP1 PUSH3 0x19 PUSH3 0x251 JUMP JUMPDEST POP POP JUMPDEST POP PUSH1 0x40 MLOAD PUSH3 0x1CEA CODESIZE SUB DUP1 PUSH3 0x1CEA DUP4 CODECOPY DUP2 DUP2 ADD PUSH1 0x40 MSTORE PUSH1 0xA0 DUP2 LT ISZERO PUSH3 0x4D JUMPI PUSH1 0x0 DUP1 PUSH3 0x4A PUSH3 0x251 JUMP JUMPDEST POP POP JUMPDEST DUP2 ADD SWAP1 DUP1 DUP1 MLOAD SWAP3 SWAP2 SWAP1 PUSH1 0x20 ADD DUP1 MLOAD SWAP3 SWAP2 SWAP1 PUSH1 0x20 ADD DUP1 MLOAD SWAP3 SWAP2 SWAP1 PUSH1 0x20 ADD DUP1 MLOAD SWAP3 SWAP2 SWAP1 PUSH1 0x20 ADD DUP1 MLOAD SWAP3 POP DUP7 SWAP2 POP POP PUSH1 0x1 PUSH1 0x1 PUSH1 0xA0 SHL SUB DUP2 AND PUSH3 0xDF JUMPI PUSH1 0x40 MLOAD PUSH3 0x461BCD PUSH1 0xE5 SHL DUP2 MSTORE PUSH1 0x20 PUSH1 0x4 DUP3 ADD MSTORE PUSH1 0x19 PUSH1 0x24 DUP3 ADD MSTORE PUSH32 0x4F776E657220616464726573732063616E6E6F74206265203000000000000000 PUSH1 0x44 DUP3 ADD MSTORE PUSH1 0x64 ADD PUSH1 0x40 MLOAD DUP1 SWAP2 SUB SWAP1 PUSH3 0xDC PUSH3 0x251 JUMP JUMPDEST POP POP JUMPDEST DUP1 PUSH1 0x0 PUSH1 0x1 DUP2 PUSH3 0xEF PUSH3 0x2BE JUMP JUMPDEST DUP2 PUSH1 0x1 PUSH1 0x1 PUSH1 0xA0 SHL SUB MUL NOT AND SWAP1 DUP4 PUSH1 0x1 PUSH1 0x1 PUSH1 0xA0 SHL SUB AND MUL OR SWAP1 PUSH3 0x113 PUSH3 0x320 JUMP JUMPDEST POP POP POP PUSH32 0xB532073B38C83145E3E5135377A08BF9AAB55BC0FD7C1179CD4FB995D2A5159C PUSH1 0x0 DUP3 PUSH1 0x40 MLOAD PUSH1 0x1 PUSH1 0x1 PUSH1 0xA0 SHL SUB SWAP3 DUP4 AND DUP2 MSTORE SWAP2 AND PUSH1 0x20 DUP3 ADD MSTORE PUSH1 0x40 SWAP1 DUP2 ADD SWAP1 MLOAD DUP1 SWAP2 SUB SWAP1 LOG1 POP DUP4 PUSH1 0x2 PUSH1 0x1 DUP2 PUSH3 0x16E PUSH3 0x2BE JUMP JUMPDEST DUP2 PUSH1 0x1 PUSH1 0x1 PUSH1 0xA0 SHL SUB MUL NOT AND SWAP1 DUP4 PUSH1 0x1 PUSH1 0x1 PUSH1 0xA0 SHL SUB AND MUL OR SWAP1 PUSH3 0x192 PUSH3 0x320 JUMP JUMPDEST POP POP POP DUP3 PUSH1 0x3 PUSH1 0x0 PUSH2 0x100 EXP DUP2 PUSH3 0x1A9 PUSH3 0x2BE JUMP JUMPDEST DUP2 PUSH1 0x1 PUSH1 0x1 PUSH1 0xA0 SHL SUB MUL NOT AND SWAP1 DUP4 PUSH1 0x1 PUSH1 0x1 PUSH1 0xA0 SHL SUB AND MUL OR SWAP1 PUSH3 0x1CD PUSH3 0x320 JUMP JUMPDEST POP POP POP DUP2 PUSH1 0x4 PUSH1 0x0 PUSH2 0x100 EXP DUP2 PUSH3 0x1E4 PUSH3 0x2BE JUMP JUMPDEST DUP2 PUSH1 0x1 PUSH1 0x1 PUSH1 0xA0 SHL SUB MUL NOT AND SWAP1 DUP4 PUSH1 0x1 PUSH1 0x1 PUSH1 0xA0 SHL SUB AND MUL OR SWAP1 PUSH3 0x208 PUSH3 0x320 JUMP JUMPDEST POP POP POP DUP1 PUSH1 0x5 PUSH1 0x0 PUSH2 0x100 EXP DUP2 PUSH3 0x21F PUSH3 0x2BE JUMP JUMPDEST DUP2 PUSH1 0x1 PUSH1 0x1 PUSH1 0xA0 SHL SUB MUL NOT AND SWAP1 DUP4 PUSH1 0x1 PUSH1 0x1 PUSH1 0xA0 SHL SUB AND MUL OR SWAP1 PUSH3 0x243 PUSH3 0x320 JUMP JUMPDEST POP POP POP POP POP POP POP POP PUSH3 0x36F JUMP JUMPDEST PUSH4 0x2A2A7ADB MSIZE DUP2 PUSH1 0xE0 SHL DUP2 MSTORE PUSH1 0x4 DUP2 ADD PUSH1 0x20 DUP2 MSTORE DUP6 PUSH1 0x20 DUP3 ADD MSTORE PUSH1 0x0 JUMPDEST DUP7 DUP2 LT ISZERO PUSH3 0x28B JUMPI DUP1 DUP7 ADD MLOAD DUP3 DUP3 ADD PUSH1 0x40 ADD MSTORE PUSH1 0x20 ADD PUSH3 0x26E JUMP JUMPDEST POP PUSH1 0x20 DUP3 DUP8 PUSH1 0x64 ADD DUP5 CALLER PUSH1 0x0 SWAP1 GAS CALL PC PUSH1 0xE ADD JUMPI RETURNDATASIZE PUSH1 0x0 DUP1 RETURNDATACOPY RETURNDATASIZE PUSH1 0x0 REVERT JUMPDEST RETURNDATASIZE PUSH1 0x1 EQ ISZERO PC PUSH1 0xA ADD JUMPI PUSH1 0x1 PUSH1 0x0 RETURN JUMPDEST POP POP POP JUMP JUMPDEST PUSH4 0x3DAA959 MSIZE DUP2 PUSH1 0xE0 SHL DUP2 MSTORE DUP4 PUSH1 0x4 DUP3 ADD MSTORE PUSH1 0x20 DUP2 PUSH1 0x24 DUP4 CALLER PUSH1 0x0 SWAP1 GAS CALL PC PUSH1 0xE ADD JUMPI RETURNDATASIZE PUSH1 0x0 DUP1 RETURNDATACOPY RETURNDATASIZE PUSH1 0x0 REVERT JUMPDEST RETURNDATASIZE PUSH1 0x1 EQ ISZERO PC PUSH1 0xA ADD JUMPI PUSH1 0x1 PUSH1 0x0 RETURN JUMPDEST DUP1 MLOAD SWAP4 POP PUSH1 0x0 JUMPDEST PUSH1 0x40 DUP2 LT ISZERO PUSH3 0x31B JUMPI PUSH1 0x0 DUP3 DUP3 ADD MSTORE PUSH1 0x20 ADD PUSH3 0x302 JUMP JUMPDEST POP POP POP JUMP JUMPDEST PUSH4 0x22BD64C0 MSIZE DUP2 PUSH1 0xE0 SHL DUP2 MSTORE DUP4 PUSH1 0x4 DUP3 ADD MSTORE DUP5 PUSH1 0x24 DUP3 ADD MSTORE PUSH1 0x0 DUP2 PUSH1 0x44 DUP4 CALLER PUSH1 0x0 SWAP1 GAS CALL PC PUSH1 0xE ADD JUMPI RETURNDATASIZE PUSH1 0x0 DUP1 RETURNDATACOPY RETURNDATASIZE PUSH1 0x0 REVERT JUMPDEST RETURNDATASIZE PUSH1 0x1 EQ ISZERO PC PUSH1 0xA ADD JUMPI PUSH1 0x1 PUSH1 0x0 RETURN JUMPDEST PUSH1 0x0 DUP2 MSTORE PUSH1 0x20 PUSH3 0x302 JUMP JUMPDEST PUSH2 0x196B DUP1 PUSH3 0x37F PUSH1 0x0 CODECOPY PUSH1 0x0 RETURN INVALID PUSH1 0x80 PUSH1 0x40 MSTORE CALLVALUE DUP1 ISZERO PUSH2 0x19 JUMPI PUSH1 0x0 DUP1 PUSH2 0x16 PUSH2 0x150B JUMP JUMPDEST POP POP JUMPDEST POP PUSH1 0x4 CALLDATASIZE LT PUSH2 0x11F JUMPI PUSH1 0x0 CALLDATALOAD PUSH1 0xE0 SHR DUP1 PUSH4 0x817A6951 GT PUSH2 0xAB JUMPI DUP1 PUSH4 0xBDD12482 GT PUSH2 0x7A JUMPI DUP1 PUSH4 0xBDD12482 EQ PUSH2 0x31E JUMPI DUP1 PUSH4 0xBF7E214F EQ PUSH2 0x326 JUMPI DUP1 PUSH4 0xC9E9CC4D EQ PUSH2 0x32E JUMPI DUP1 PUSH4 0xD8297E44 EQ PUSH2 0x336 JUMPI DUP1 PUSH4 0xE54C1671 EQ PUSH2 0x365 JUMPI PUSH2 0x11F JUMP JUMPDEST DUP1 PUSH4 0x817A6951 EQ PUSH2 0x2B9 JUMPI DUP1 PUSH4 0x8DA5CB5B EQ PUSH2 0x2DF JUMPI DUP1 PUSH4 0x95896B76 EQ PUSH2 0x2E7 JUMPI DUP1 PUSH4 0xA430BE6C EQ PUSH2 0x316 JUMPI PUSH2 0x11F JUMP JUMPDEST DUP1 PUSH4 0x59974E38 GT PUSH2 0xF2 JUMPI DUP1 PUSH4 0x59974E38 EQ PUSH2 0x1E4 JUMPI DUP1 PUSH4 0x5DE39934 EQ PUSH2 0x21E JUMPI DUP1 PUSH4 0x60EB3FF2 EQ PUSH2 0x24D JUMPI DUP1 PUSH4 0x79BA5097 EQ PUSH2 0x282 JUMPI DUP1 PUSH4 0x7A9E5E4B EQ PUSH2 0x28A JUMPI PUSH2 0x11F JUMP JUMPDEST DUP1 PUSH4 0x60CA250 EQ PUSH2 0x12D JUMPI DUP1 PUSH4 0x1627540C EQ PUSH2 0x147 JUMPI DUP1 PUSH4 0x4487D3DF EQ PUSH2 0x178 JUMPI DUP1 PUSH4 0x53A47BB7 EQ PUSH2 0x1C0 JUMPI JUMPDEST PUSH1 0x0 DUP1 PUSH2 0x12A PUSH2 0x150B JUMP JUMPDEST POP POP JUMPDEST PUSH2 0x135 PUSH2 0x3A0 JUMP JUMPDEST PUSH1 0x40 MLOAD SWAP1 DUP2 MSTORE PUSH1 0x20 ADD PUSH1 0x40 MLOAD DUP1 SWAP2 SUB SWAP1 RETURN JUMPDEST PUSH2 0x176 PUSH1 0x4 DUP1 CALLDATASIZE SUB PUSH1 0x20 DUP2 LT ISZERO PUSH2 0x166 JUMPI PUSH1 0x0 DUP1 PUSH2 0x163 PUSH2 0x150B JUMP JUMPDEST POP POP JUMPDEST POP CALLDATALOAD PUSH1 0x1 PUSH1 0x1 PUSH1 0xA0 SHL SUB AND PUSH2 0x3B4 JUMP JUMPDEST STOP JUMPDEST PUSH2 0x19E PUSH1 0x4 DUP1 CALLDATASIZE SUB PUSH1 0x20 DUP2 LT ISZERO PUSH2 0x197 JUMPI PUSH1 0x0 DUP1 PUSH2 0x194 PUSH2 0x150B JUMP JUMPDEST POP POP JUMPDEST POP CALLDATALOAD PUSH2 0x42E JUMP JUMPDEST PUSH1 0x40 MLOAD PUSH1 0x1 PUSH1 0x1 PUSH1 0xA0 SHL SUB SWAP1 SWAP3 AND DUP3 MSTORE PUSH1 0x20 DUP3 ADD MSTORE PUSH1 0x40 SWAP1 DUP2 ADD SWAP1 MLOAD DUP1 SWAP2 SUB SWAP1 RETURN JUMPDEST PUSH2 0x1C8 PUSH2 0x480 JUMP JUMPDEST PUSH1 0x40 MLOAD PUSH1 0x1 PUSH1 0x1 PUSH1 0xA0 SHL SUB SWAP1 SWAP2 AND DUP2 MSTORE PUSH1 0x20 ADD PUSH1 0x40 MLOAD DUP1 SWAP2 SUB SWAP1 RETURN JUMPDEST PUSH2 0x20A PUSH1 0x4 DUP1 CALLDATASIZE SUB PUSH1 0x20 DUP2 LT ISZERO PUSH2 0x203 JUMPI PUSH1 0x0 DUP1 PUSH2 0x200 PUSH2 0x150B JUMP JUMPDEST POP POP JUMPDEST POP CALLDATALOAD PUSH2 0x49F JUMP JUMPDEST PUSH1 0x40 MLOAD SWAP1 ISZERO ISZERO DUP2 MSTORE PUSH1 0x20 ADD PUSH1 0x40 MLOAD DUP1 SWAP2 SUB SWAP1 RETURN JUMPDEST PUSH2 0x176 PUSH1 0x4 DUP1 CALLDATASIZE SUB PUSH1 0x20 DUP2 LT ISZERO PUSH2 0x23D JUMPI PUSH1 0x0 DUP1 PUSH2 0x23A PUSH2 0x150B JUMP JUMPDEST POP POP JUMPDEST POP CALLDATALOAD PUSH1 0x1 PUSH1 0x1 PUSH1 0xA0 SHL SUB AND PUSH2 0xDC3 JUMP JUMPDEST PUSH2 0x20A PUSH1 0x4 DUP1 CALLDATASIZE SUB PUSH1 0x40 DUP2 LT ISZERO PUSH2 0x26C JUMPI PUSH1 0x0 DUP1 PUSH2 0x269 PUSH2 0x150B JUMP JUMPDEST POP POP JUMPDEST POP PUSH1 0x1 PUSH1 0x1 PUSH1 0xA0 SHL SUB DUP2 CALLDATALOAD AND SWAP1 PUSH1 0x20 ADD CALLDATALOAD PUSH2 0xE01 JUMP JUMPDEST PUSH2 0x176 PUSH2 0xFCF JUMP JUMPDEST PUSH2 0x176 PUSH1 0x4 DUP1 CALLDATASIZE SUB PUSH1 0x20 DUP2 LT ISZERO PUSH2 0x2A9 JUMPI PUSH1 0x0 DUP1 PUSH2 0x2A6 PUSH2 0x150B JUMP JUMPDEST POP POP JUMPDEST POP CALLDATALOAD PUSH1 0x1 PUSH1 0x1 PUSH1 0xA0 SHL SUB AND PUSH2 0x1152 JUMP JUMPDEST PUSH2 0x176 PUSH1 0x4 DUP1 CALLDATASIZE SUB PUSH1 0x20 DUP2 LT ISZERO PUSH2 0x2D8 JUMPI PUSH1 0x0 DUP1 PUSH2 0x2D5 PUSH2 0x150B JUMP JUMPDEST POP POP JUMPDEST POP CALLDATALOAD PUSH2 0x1168 JUMP JUMPDEST PUSH2 0x1C8 PUSH2 0x12C8 JUMP JUMPDEST PUSH2 0x176 PUSH1 0x4 DUP1 CALLDATASIZE SUB PUSH1 0x20 DUP2 LT ISZERO PUSH2 0x306 JUMPI PUSH1 0x0 DUP1 PUSH2 0x303 PUSH2 0x150B JUMP JUMPDEST POP POP JUMPDEST POP CALLDATALOAD PUSH1 0x1 PUSH1 0x1 PUSH1 0xA0 SHL SUB AND PUSH2 0x12D3 JUMP JUMPDEST PUSH2 0x1C8 PUSH2 0x12E9 JUMP JUMPDEST PUSH2 0x1C8 PUSH2 0x12F5 JUMP JUMPDEST PUSH2 0x1C8 PUSH2 0x1301 JUMP JUMPDEST PUSH2 0x1C8 PUSH2 0x130D JUMP JUMPDEST PUSH2 0x176 PUSH1 0x4 DUP1 CALLDATASIZE SUB PUSH1 0x20 DUP2 LT ISZERO PUSH2 0x355 JUMPI PUSH1 0x0 DUP1 PUSH2 0x352 PUSH2 0x150B JUMP JUMPDEST POP POP JUMPDEST POP CALLDATALOAD PUSH1 0x1 PUSH1 0x1 PUSH1 0xA0 SHL SUB AND PUSH2 0x1319 JUMP JUMPDEST PUSH2 0x20A PUSH1 0x4 DUP1 CALLDATASIZE SUB PUSH1 0x60 DUP2 LT ISZERO PUSH2 0x384 JUMPI PUSH1 0x0 DUP1 PUSH2 0x381 PUSH2 0x150B JUMP JUMPDEST POP POP JUMPDEST POP DUP1 CALLDATALOAD SWAP1 PUSH1 0x1 PUSH1 0x1 PUSH1 0xA0 SHL SUB PUSH1 0x20 DUP3 ADD CALLDATALOAD AND SWAP1 PUSH1 0x40 ADD CALLDATALOAD PUSH2 0x132F JUMP JUMPDEST PUSH1 0x0 PUSH1 0x6 DUP1 PUSH2 0x3AD PUSH2 0x1576 JUMP JUMPDEST SWAP2 POP POP JUMPDEST SWAP1 JUMP JUMPDEST PUSH2 0x3BC PUSH2 0x142C JUMP JUMPDEST DUP1 PUSH1 0x1 DUP1 DUP1 PUSH2 0x3C9 PUSH2 0x1576 JUMP JUMPDEST DUP2 PUSH1 0x1 PUSH1 0x1 PUSH1 0xA0 SHL SUB MUL NOT AND SWAP1 DUP4 PUSH1 0x1 PUSH1 0x1 PUSH1 0xA0 SHL SUB AND MUL OR SWAP1 PUSH2 0x3EB PUSH2 0x15D1 JUMP JUMPDEST POP POP POP PUSH32 0x906A1C6BD7E3091EA86693DD029A831C19049CE77F1DCE2CE0BAB1CACBABCE22 DUP2 PUSH1 0x40 MLOAD PUSH1 0x1 PUSH1 0x1 PUSH1 0xA0 SHL SUB SWAP1 SWAP2 AND DUP2 MSTORE PUSH1 0x20 ADD PUSH1 0x40 MLOAD DUP1 SWAP2 SUB SWAP1 LOG1 POP JUMP JUMPDEST PUSH1 0x6 DUP2 DUP2 PUSH2 0x43A PUSH2 0x1576 JUMP JUMPDEST DUP2 LT PUSH2 0x442 JUMPI INVALID JUMPDEST SWAP1 PUSH1 0x0 MSTORE PUSH1 0x20 PUSH1 0x0 KECCAK256 PUSH1 0x2 SWAP1 SWAP2 MUL ADD SWAP1 POP PUSH1 0x0 DUP2 PUSH2 0x45E PUSH2 0x1576 JUMP JUMPDEST SWAP1 PUSH2 0x100 EXP SWAP1 DIV PUSH1 0x1 PUSH1 0x1 PUSH1 0xA0 SHL SUB AND SWAP1 DUP1 PUSH1 0x1 ADD PUSH2 0x47B PUSH2 0x1576 JUMP JUMPDEST SWAP1 POP DUP3 JUMP JUMPDEST PUSH1 0x0 PUSH1 0x1 PUSH2 0x48C PUSH2 0x1576 JUMP JUMPDEST SWAP1 PUSH2 0x100 EXP SWAP1 DIV PUSH1 0x1 PUSH1 0x1 PUSH1 0xA0 SHL SUB AND DUP2 JUMP JUMPDEST PUSH1 0x0 DUP1 DUP3 GT PUSH2 0x4F5 JUMPI PUSH1 0x40 MLOAD PUSH3 0x461BCD PUSH1 0xE5 SHL DUP2 MSTORE PUSH1 0x20 PUSH1 0x4 DUP3 ADD MSTORE PUSH1 0x15 PUSH1 0x24 DUP3 ADD MSTORE PUSH21 0x4E6F7468696E6720746F2064697374726962757465 PUSH1 0x58 SHL PUSH1 0x44 DUP3 ADD MSTORE PUSH1 0x64 ADD PUSH1 0x40 MLOAD DUP1 SWAP2 SUB SWAP1 PUSH2 0x4F2 PUSH2 0x150B JUMP JUMPDEST POP POP JUMPDEST PUSH1 0x0 PUSH1 0x2 PUSH2 0x501 PUSH2 0x1576 JUMP JUMPDEST SWAP1 PUSH2 0x100 EXP SWAP1 DIV PUSH1 0x1 PUSH1 0x1 PUSH1 0xA0 SHL SUB AND PUSH1 0x1 PUSH1 0x1 PUSH1 0xA0 SHL SUB AND GAS PUSH2 0x523 PUSH2 0x161F JUMP JUMPDEST PUSH1 0x1 PUSH1 0x1 PUSH1 0xA0 SHL SUB AND EQ PUSH2 0x586 JUMPI PUSH1 0x40 MLOAD PUSH3 0x461BCD PUSH1 0xE5 SHL DUP2 MSTORE PUSH1 0x20 PUSH1 0x4 DUP3 ADD MSTORE PUSH1 0x18 PUSH1 0x24 DUP3 ADD MSTORE PUSH32 0x43616C6C6572206973206E6F7420617574686F72697365640000000000000000 PUSH1 0x44 DUP3 ADD MSTORE PUSH1 0x64 ADD PUSH1 0x40 MLOAD DUP1 SWAP2 SUB SWAP1 PUSH2 0x583 PUSH2 0x150B JUMP JUMPDEST POP POP JUMPDEST PUSH1 0x0 DUP1 PUSH1 0x4 PUSH2 0x593 PUSH2 0x1576 JUMP JUMPDEST SWAP1 PUSH2 0x100 EXP SWAP1 DIV PUSH1 0x1 PUSH1 0x1 PUSH1 0xA0 SHL SUB AND PUSH1 0x1 PUSH1 0x1 PUSH1 0xA0 SHL SUB AND EQ ISZERO PUSH2 0x607 JUMPI PUSH1 0x40 MLOAD PUSH3 0x461BCD PUSH1 0xE5 SHL DUP2 MSTORE PUSH1 0x20 PUSH1 0x4 DUP3 ADD MSTORE PUSH1 0x17 PUSH1 0x24 DUP3 ADD MSTORE PUSH32 0x526577617264457363726F77206973206E6F7420736574000000000000000000 PUSH1 0x44 DUP3 ADD MSTORE PUSH1 0x64 ADD PUSH1 0x40 MLOAD DUP1 SWAP2 SUB SWAP1 PUSH2 0x604 PUSH2 0x150B JUMP JUMPDEST POP POP JUMPDEST PUSH1 0x0 DUP1 PUSH1 0x3 PUSH2 0x614 PUSH2 0x1576 JUMP JUMPDEST SWAP1 PUSH2 0x100 EXP SWAP1 DIV PUSH1 0x1 PUSH1 0x1 PUSH1 0xA0 SHL SUB AND PUSH1 0x1 PUSH1 0x1 PUSH1 0xA0 SHL SUB AND EQ ISZERO PUSH2 0x688 JUMPI PUSH1 0x40 MLOAD PUSH3 0x461BCD PUSH1 0xE5 SHL DUP2 MSTORE PUSH1 0x20 PUSH1 0x4 DUP3 ADD MSTORE PUSH1 0x19 PUSH1 0x24 DUP3 ADD MSTORE PUSH32 0x53796E74686574697850726F7879206973206E6F742073657400000000000000 PUSH1 0x44 DUP3 ADD MSTORE PUSH1 0x64 ADD PUSH1 0x40 MLOAD DUP1 SWAP2 SUB SWAP1 PUSH2 0x685 PUSH2 0x150B JUMP JUMPDEST POP POP JUMPDEST PUSH1 0x0 DUP1 PUSH1 0x5 PUSH2 0x695 PUSH2 0x1576 JUMP JUMPDEST SWAP1 PUSH2 0x100 EXP SWAP1 DIV PUSH1 0x1 PUSH1 0x1 PUSH1 0xA0 SHL SUB AND PUSH1 0x1 PUSH1 0x1 PUSH1 0xA0 SHL SUB AND EQ ISZERO PUSH2 0x709 JUMPI PUSH1 0x40 MLOAD PUSH3 0x461BCD PUSH1 0xE5 SHL DUP2 MSTORE PUSH1 0x20 PUSH1 0x4 DUP3 ADD MSTORE PUSH1 0x17 PUSH1 0x24 DUP3 ADD MSTORE PUSH32 0x466565506F6F6C50726F7879206973206E6F7420736574000000000000000000 PUSH1 0x44 DUP3 ADD MSTORE PUSH1 0x64 ADD PUSH1 0x40 MLOAD DUP1 SWAP2 SUB SWAP1 PUSH2 0x706 PUSH2 0x150B JUMP JUMPDEST POP POP JUMPDEST DUP2 PUSH1 0x0 PUSH1 0x3 PUSH2 0x716 PUSH2 0x1576 JUMP JUMPDEST SWAP1 PUSH2 0x100 EXP SWAP1 DIV PUSH1 0x1 PUSH1 0x1 PUSH1 0xA0 SHL SUB AND PUSH1 0x1 PUSH1 0x1 PUSH1 0xA0 SHL SUB AND PUSH4 0x70A08231 GAS PUSH4 0x996D79A5 MSIZE DUP2 PUSH1 0xE0 SHL DUP2 MSTORE PUSH1 0x20 DUP2 PUSH1 0x4 DUP4 CALLER PUSH1 0x0 SWAP1 GAS CALL PC PUSH1 0xE ADD JUMPI RETURNDATASIZE PUSH1 0x0 DUP1 RETURNDATACOPY RETURNDATASIZE PUSH1 0x0 REVERT JUMPDEST RETURNDATASIZE PUSH1 0x1 EQ ISZERO PC PUSH1 0xA ADD JUMPI PUSH1 0x1 PUSH1 0x0 RETURN JUMPDEST DUP1 MLOAD SWAP3 POP PUSH1 0x0 JUMPDEST PUSH1 0x40 DUP2 LT ISZERO PUSH2 0x78A JUMPI PUSH1 0x0 DUP3 DUP3 ADD MSTORE PUSH1 0x20 ADD PUSH2 0x773 JUMP JUMPDEST POP POP POP PUSH1 0x40 MLOAD PUSH1 0x1 PUSH1 0x1 PUSH1 0xE0 SHL SUB NOT PUSH1 0xE0 DUP5 SWAP1 SHL AND DUP2 MSTORE PUSH1 0x1 PUSH1 0x1 PUSH1 0xA0 SHL SUB SWAP1 SWAP2 AND PUSH1 0x4 DUP3 ADD MSTORE PUSH1 0x24 ADD PUSH1 0x20 PUSH1 0x40 MLOAD DUP1 DUP4 SUB DUP2 DUP7 DUP1 PUSH2 0x7C7 PUSH2 0x1665 JUMP JUMPDEST ISZERO DUP1 ISZERO PUSH2 0x7DC JUMPI PUSH1 0x0 DUP1 PUSH2 0x7D9 PUSH2 0x150B JUMP JUMPDEST POP POP JUMPDEST POP GAS PUSH2 0x7E6 PUSH2 0x16B1 JUMP JUMPDEST POP POP POP POP POP ISZERO DUP1 ISZERO PUSH2 0x805 JUMPI RETURNDATASIZE PUSH1 0x0 DUP1 RETURNDATACOPY RETURNDATASIZE PUSH1 0x0 PUSH2 0x802 PUSH2 0x150B JUMP JUMPDEST POP POP JUMPDEST POP POP POP POP PUSH1 0x40 MLOAD RETURNDATASIZE PUSH1 0x20 DUP2 LT ISZERO PUSH2 0x824 JUMPI PUSH1 0x0 DUP1 PUSH2 0x821 PUSH2 0x150B JUMP JUMPDEST POP POP JUMPDEST DUP2 ADD SWAP1 DUP1 DUP1 MLOAD SWAP4 SWAP1 SWAP4 LT ISZERO SWAP3 POP PUSH2 0x878 SWAP2 POP POP JUMPI PUSH1 0x40 MLOAD PUSH3 0x461BCD PUSH1 0xE5 SHL DUP2 MSTORE PUSH1 0x4 ADD DUP1 DUP1 PUSH1 0x20 ADD DUP3 DUP2 SUB DUP3 MSTORE PUSH1 0x46 DUP2 MSTORE PUSH1 0x20 ADD DUP1 PUSH2 0x18F6 PUSH1 0x46 SWAP2 CODECOPY PUSH1 0x60 ADD SWAP2 POP POP PUSH1 0x40 MLOAD DUP1 SWAP2 SUB SWAP1 PUSH2 0x875 PUSH2 0x150B JUMP JUMPDEST POP POP JUMPDEST DUP2 PUSH1 0x0 JUMPDEST PUSH1 0x6 DUP1 PUSH2 0x887 PUSH2 0x1576 JUMP JUMPDEST SWAP1 POP DUP2 LT ISZERO PUSH2 0xBF8 JUMPI PUSH1 0x0 PUSH1 0x6 DUP3 DUP2 PUSH2 0x89E PUSH2 0x1576 JUMP JUMPDEST DUP2 LT PUSH2 0x8A6 JUMPI INVALID JUMPDEST SWAP1 PUSH1 0x0 MSTORE PUSH1 0x20 PUSH1 0x0 KECCAK256 PUSH1 0x0 SWAP2 PUSH1 0x2 MUL ADD PUSH2 0x8BE PUSH2 0x1576 JUMP JUMPDEST SWAP1 PUSH2 0x100 EXP SWAP1 DIV PUSH1 0x1 PUSH1 0x1 PUSH1 0xA0 SHL SUB AND PUSH1 0x1 PUSH1 0x1 PUSH1 0xA0 SHL SUB AND EQ ISZERO DUP1 PUSH2 0x90F JUMPI POP PUSH1 0x6 DUP2 DUP2 PUSH2 0x8EB PUSH2 0x1576 JUMP JUMPDEST DUP2 LT PUSH2 0x8F3 JUMPI INVALID JUMPDEST SWAP1 PUSH1 0x0 MSTORE PUSH1 0x20 PUSH1 0x0 KECCAK256 SWAP1 PUSH1 0x2 MUL ADD PUSH1 0x1 ADD PUSH2 0x90C PUSH2 0x1576 JUMP JUMPDEST ISZERO ISZERO JUMPDEST ISZERO PUSH2 0xBF0 JUMPI PUSH2 0x951 PUSH1 0x6 DUP3 DUP2 PUSH2 0x923 PUSH2 0x1576 JUMP JUMPDEST DUP2 LT PUSH2 0x92B JUMPI INVALID JUMPDEST SWAP1 PUSH1 0x0 MSTORE PUSH1 0x20 PUSH1 0x0 KECCAK256 SWAP1 PUSH1 0x2 MUL ADD PUSH1 0x1 ADD PUSH2 0x944 PUSH2 0x1576 JUMP JUMPDEST DUP4 SWAP1 PUSH4 0xFFFFFFFF PUSH2 0x14A6 AND JUMP JUMPDEST SWAP2 POP PUSH1 0x0 PUSH1 0x3 PUSH2 0x95F PUSH2 0x1576 JUMP JUMPDEST SWAP1 PUSH2 0x100 EXP SWAP1 DIV PUSH1 0x1 PUSH1 0x1 PUSH1 0xA0 SHL SUB AND PUSH1 0x1 PUSH1 0x1 PUSH1 0xA0 SHL SUB AND PUSH4 0xA9059CBB PUSH1 0x6 DUP4 DUP2 PUSH2 0x989 PUSH2 0x1576 JUMP JUMPDEST DUP2 LT PUSH2 0x991 JUMPI INVALID JUMPDEST SWAP1 PUSH1 0x0 MSTORE PUSH1 0x20 PUSH1 0x0 KECCAK256 PUSH1 0x0 SWAP2 PUSH1 0x2 MUL ADD PUSH2 0x9A9 PUSH2 0x1576 JUMP JUMPDEST SWAP1 PUSH2 0x100 EXP SWAP1 DIV PUSH1 0x1 PUSH1 0x1 PUSH1 0xA0 SHL SUB AND PUSH1 0x6 DUP5 DUP2 PUSH2 0x9C5 PUSH2 0x1576 JUMP JUMPDEST DUP2 LT PUSH2 0x9CD JUMPI INVALID JUMPDEST SWAP1 PUSH1 0x0 MSTORE PUSH1 0x20 PUSH1 0x0 KECCAK256 SWAP1 PUSH1 0x2 MUL ADD PUSH1 0x1 ADD PUSH2 0x9E6 PUSH2 0x1576 JUMP JUMPDEST PUSH1 0x40 MLOAD PUSH1 0x1 PUSH1 0x1 PUSH1 0xE0 SHL SUB NOT PUSH1 0xE0 DUP6 SWAP1 SHL AND DUP2 MSTORE PUSH1 0x1 PUSH1 0x1 PUSH1 0xA0 SHL SUB SWAP1 SWAP3 AND PUSH1 0x4 DUP4 ADD MSTORE PUSH1 0x24 DUP3 ADD MSTORE PUSH1 0x44 ADD PUSH1 0x20 PUSH1 0x40 MLOAD DUP1 DUP4 SUB DUP2 PUSH1 0x0 DUP8 DUP1 PUSH2 0xA27 PUSH2 0x1665 JUMP JUMPDEST ISZERO DUP1 ISZERO PUSH2 0xA3C JUMPI PUSH1 0x0 DUP1 PUSH2 0xA39 PUSH2 0x150B JUMP JUMPDEST POP POP JUMPDEST POP GAS PUSH2 0xA46 PUSH2 0x176A JUMP JUMPDEST POP POP POP POP POP POP ISZERO DUP1 ISZERO PUSH2 0xA66 JUMPI RETURNDATASIZE PUSH1 0x0 DUP1 RETURNDATACOPY RETURNDATASIZE PUSH1 0x0 PUSH2 0xA63 PUSH2 0x150B JUMP JUMPDEST POP POP JUMPDEST POP POP POP POP PUSH1 0x40 MLOAD RETURNDATASIZE PUSH1 0x20 DUP2 LT ISZERO PUSH2 0xA85 JUMPI PUSH1 0x0 DUP1 PUSH2 0xA82 PUSH2 0x150B JUMP JUMPDEST POP POP JUMPDEST DUP2 ADD SWAP1 DUP1 DUP1 MLOAD POP PUSH1 0x60 SWAP3 POP PUSH1 0x6 SWAP2 POP DUP4 SWAP1 POP DUP2 PUSH2 0xAA0 PUSH2 0x1576 JUMP JUMPDEST DUP2 LT PUSH2 0xAA8 JUMPI INVALID JUMPDEST SWAP1 PUSH1 0x0 MSTORE PUSH1 0x20 PUSH1 0x0 KECCAK256 SWAP1 PUSH1 0x2 MUL ADD PUSH1 0x1 ADD PUSH2 0xAC1 PUSH2 0x1576 JUMP JUMPDEST PUSH1 0x40 MLOAD PUSH1 0x24 DUP2 ADD SWAP2 SWAP1 SWAP2 MSTORE PUSH1 0x44 ADD PUSH1 0x40 MLOAD PUSH1 0x1F NOT DUP2 DUP4 SUB ADD DUP2 MSTORE PUSH1 0x40 SWAP2 SWAP1 SWAP2 MSTORE PUSH4 0x3C6B16AB PUSH1 0xE0 SHL PUSH1 0x20 DUP3 ADD DUP1 MLOAD PUSH1 0x1 PUSH1 0x1 PUSH1 0xE0 SHL SUB AND SWAP1 SWAP2 OR SWAP1 MSTORE SWAP1 POP PUSH1 0x0 PUSH1 0x6 DUP4 DUP2 PUSH2 0xB0D PUSH2 0x1576 JUMP JUMPDEST DUP2 LT PUSH2 0xB15 JUMPI INVALID JUMPDEST SWAP1 PUSH1 0x0 MSTORE PUSH1 0x20 PUSH1 0x0 KECCAK256 PUSH1 0x0 SWAP2 PUSH1 0x2 MUL ADD PUSH2 0xB2D PUSH2 0x1576 JUMP JUMPDEST SWAP1 PUSH2 0x100 EXP SWAP1 DIV PUSH1 0x1 PUSH1 0x1 PUSH1 0xA0 SHL SUB AND PUSH1 0x1 PUSH1 0x1 PUSH1 0xA0 SHL SUB AND DUP3 PUSH1 0x40 MLOAD DUP1 DUP3 DUP1 MLOAD SWAP1 PUSH1 0x20 ADD SWAP1 DUP1 DUP4 DUP4 JUMPDEST PUSH1 0x20 DUP4 LT PUSH2 0xB76 JUMPI DUP1 MLOAD DUP3 MSTORE PUSH1 0x1F NOT SWAP1 SWAP3 ADD SWAP2 PUSH1 0x20 SWAP2 DUP3 ADD SWAP2 ADD PUSH2 0xB57 JUMP JUMPDEST PUSH1 0x1 DUP4 PUSH1 0x20 SUB PUSH2 0x100 EXP SUB DUP1 NOT DUP3 MLOAD AND DUP2 DUP5 MLOAD AND DUP1 DUP3 OR DUP6 MSTORE POP POP POP POP POP POP SWAP1 POP ADD SWAP2 POP POP PUSH1 0x0 PUSH1 0x40 MLOAD DUP1 DUP4 SUB DUP2 PUSH1 0x0 DUP7 GAS PUSH2 0xBB0 PUSH2 0x176A JUMP JUMPDEST POP POP POP POP POP POP SWAP2 POP POP RETURNDATASIZE DUP1 PUSH1 0x0 DUP2 EQ PUSH2 0xBE5 JUMPI PUSH1 0x40 MLOAD RETURNDATASIZE PUSH1 0x3F ADD PUSH1 0x1F NOT AND DUP2 ADD PUSH1 0x40 MSTORE RETURNDATASIZE DUP2 MSTORE SWAP2 POP RETURNDATASIZE PUSH1 0x0 PUSH1 0x20 DUP5 ADD RETURNDATACOPY PUSH2 0xBEA JUMP JUMPDEST PUSH1 0x60 SWAP2 POP JUMPDEST POP POP POP POP POP JUMPDEST PUSH1 0x1 ADD PUSH2 0x87C JUMP JUMPDEST POP PUSH1 0x0 PUSH1 0x3 PUSH2 0xC05 PUSH2 0x1576 JUMP JUMPDEST PUSH1 0x1 PUSH1 0x1 PUSH1 0xA0 SHL SUB PUSH2 0x100 SWAP3 SWAP1 SWAP3 EXP SWAP1 DIV AND PUSH4 0xA9059CBB PUSH1 0x0 PUSH1 0x4 PUSH2 0xC28 PUSH2 0x1576 JUMP JUMPDEST SWAP1 PUSH2 0x100 EXP SWAP1 DIV PUSH1 0x1 PUSH1 0x1 PUSH1 0xA0 SHL SUB AND DUP4 PUSH1 0x40 MLOAD PUSH1 0x1 PUSH1 0x1 PUSH1 0xE0 SHL SUB NOT PUSH1 0xE0 DUP6 SWAP1 SHL AND DUP2 MSTORE PUSH1 0x1 PUSH1 0x1 PUSH1 0xA0 SHL SUB SWAP1 SWAP3 AND PUSH1 0x4 DUP4 ADD MSTORE PUSH1 0x24 DUP3 ADD MSTORE PUSH1 0x44 ADD PUSH1 0x20 PUSH1 0x40 MLOAD DUP1 DUP4 SUB DUP2 PUSH1 0x0 DUP8 DUP1 PUSH2 0xC7A PUSH2 0x1665 JUMP JUMPDEST ISZERO DUP1 ISZERO PUSH2 0xC8F JUMPI PUSH1 0x0 DUP1 PUSH2 0xC8C PUSH2 0x150B JUMP JUMPDEST POP POP JUMPDEST POP GAS PUSH2 0xC99 PUSH2 0x176A JUMP JUMPDEST POP POP POP POP POP POP ISZERO DUP1 ISZERO PUSH2 0xCB9 JUMPI RETURNDATASIZE PUSH1 0x0 DUP1 RETURNDATACOPY RETURNDATASIZE PUSH1 0x0 PUSH2 0xCB6 PUSH2 0x150B JUMP JUMPDEST POP POP JUMPDEST POP POP POP POP PUSH1 0x40 MLOAD RETURNDATASIZE PUSH1 0x20 DUP2 LT ISZERO PUSH2 0xCD8 JUMPI PUSH1 0x0 DUP1 PUSH2 0xCD5 PUSH2 0x150B JUMP JUMPDEST POP POP JUMPDEST DUP2 ADD SWAP1 DUP1 DUP1 MLOAD POP PUSH1 0x0 SWAP3 POP PUSH1 0x5 SWAP2 POP PUSH2 0xCF1 SWAP1 POP PUSH2 0x1576 JUMP JUMPDEST SWAP1 PUSH2 0x100 EXP SWAP1 DIV PUSH1 0x1 PUSH1 0x1 PUSH1 0xA0 SHL SUB AND PUSH1 0x1 PUSH1 0x1 PUSH1 0xA0 SHL SUB AND PUSH4 0xFD1F498D DUP3 PUSH1 0x40 MLOAD PUSH1 0x1 PUSH1 0x1 PUSH1 0xE0 SHL SUB NOT PUSH1 0xE0 DUP5 SWAP1 SHL AND DUP2 MSTORE PUSH1 0x4 DUP2 ADD SWAP2 SWAP1 SWAP2 MSTORE PUSH1 0x24 ADD PUSH1 0x0 PUSH1 0x40 MLOAD DUP1 DUP4 SUB DUP2 PUSH1 0x0 DUP8 DUP1 PUSH2 0xD44 PUSH2 0x1665 JUMP JUMPDEST ISZERO DUP1 ISZERO PUSH2 0xD59 JUMPI PUSH1 0x0 DUP1 PUSH2 0xD56 PUSH2 0x150B JUMP JUMPDEST POP POP JUMPDEST POP GAS PUSH2 0xD63 PUSH2 0x176A JUMP JUMPDEST POP POP POP POP POP POP ISZERO DUP1 ISZERO PUSH2 0xD83 JUMPI RETURNDATASIZE PUSH1 0x0 DUP1 RETURNDATACOPY RETURNDATASIZE PUSH1 0x0 PUSH2 0xD80 PUSH2 0x150B JUMP JUMPDEST POP POP JUMPDEST POP POP POP POP PUSH32 0x6D1C76D614228B523BAA4DCD9539E2C713B54FF4AB3FF2D1627E7F6CD32BE442 DUP4 PUSH1 0x40 MLOAD SWAP1 DUP2 MSTORE PUSH1 0x20 ADD PUSH1 0x40 MLOAD DUP1 SWAP2 SUB SWAP1 LOG1 POP PUSH1 0x1 SWAP3 SWAP2 POP POP JUMP JUMPDEST PUSH2 0xDCB PUSH2 0x142C JUMP JUMPDEST DUP1 PUSH1 0x4 PUSH1 0x1 DUP2 PUSH2 0xDD9 PUSH2 0x1576 JUMP JUMPDEST DUP2 PUSH1 0x1 PUSH1 0x1 PUSH1 0xA0 SHL SUB MUL NOT AND SWAP1 DUP4 PUSH1 0x1 PUSH1 0x1 PUSH1 0xA0 SHL SUB AND MUL OR SWAP1 PUSH2 0xDFB PUSH2 0x15D1 JUMP JUMPDEST POP POP POP POP JUMP JUMPDEST PUSH1 0x0 PUSH2 0xE0B PUSH2 0x142C JUMP JUMPDEST PUSH1 0x1 PUSH1 0x1 PUSH1 0xA0 SHL SUB DUP4 AND PUSH2 0xE6E JUMPI PUSH1 0x40 MLOAD PUSH3 0x461BCD PUSH1 0xE5 SHL DUP2 MSTORE PUSH1 0x20 PUSH1 0x4 DUP3 ADD MSTORE PUSH1 0x17 PUSH1 0x24 DUP3 ADD MSTORE PUSH32 0x43616E74206164642061207A65726F2061646472657373000000000000000000 PUSH1 0x44 DUP3 ADD MSTORE PUSH1 0x64 ADD PUSH1 0x40 MLOAD DUP1 SWAP2 SUB SWAP1 PUSH2 0xE6B PUSH2 0x150B JUMP JUMPDEST POP POP JUMPDEST DUP2 PUSH2 0xEC1 JUMPI PUSH1 0x40 MLOAD PUSH3 0x461BCD PUSH1 0xE5 SHL DUP2 MSTORE PUSH1 0x20 PUSH1 0x4 DUP3 ADD MSTORE PUSH1 0x16 PUSH1 0x24 DUP3 ADD MSTORE PUSH22 0x10D85B9D081859190818481E995C9BC8185B5BDD5B9D PUSH1 0x52 SHL PUSH1 0x44 DUP3 ADD MSTORE PUSH1 0x64 ADD PUSH1 0x40 MLOAD DUP1 SWAP2 SUB SWAP1 PUSH2 0xEBE PUSH2 0x150B JUMP JUMPDEST POP POP JUMPDEST PUSH2 0xEC9 PUSH2 0x1823 JUMP JUMPDEST PUSH1 0x40 MLOAD PUSH1 0x40 DUP1 DUP3 ADD SWAP1 MSTORE PUSH1 0x1 PUSH1 0x1 PUSH1 0xA0 SHL SUB DUP6 AND DUP2 MSTORE PUSH1 0x20 DUP2 ADD DUP5 SWAP1 MSTORE SWAP1 POP DUP1 PUSH1 0x6 DUP1 PUSH1 0x1 DUP2 PUSH2 0xEF7 PUSH2 0x1576 JUMP JUMPDEST ADD DUP1 DUP3 PUSH2 0xF02 PUSH2 0x15D1 JUMP JUMPDEST POP POP PUSH1 0x0 SWAP3 DUP4 MSTORE SWAP2 PUSH1 0x0 NOT DUP4 ADD SWAP2 POP PUSH1 0x20 SWAP1 KECCAK256 SWAP2 SWAP3 SWAP2 PUSH1 0x2 SWAP1 SWAP2 MUL ADD DUP2 MLOAD DUP2 PUSH1 0x1 DUP2 PUSH2 0xF2C PUSH2 0x1576 JUMP JUMPDEST DUP2 PUSH1 0x1 PUSH1 0x1 PUSH1 0xA0 SHL SUB MUL NOT AND SWAP1 DUP4 PUSH1 0x1 PUSH1 0x1 PUSH1 0xA0 SHL SUB AND MUL OR SWAP1 PUSH2 0xF4E PUSH2 0x15D1 JUMP JUMPDEST POP POP POP PUSH1 0x20 DUP3 ADD MLOAD DUP2 PUSH1 0x1 ADD PUSH2 0xF62 PUSH2 0x15D1 JUMP JUMPDEST POP POP POP POP POP PUSH32 0x8FFF3CB767A84A8039EA0F84053799C5CDCA0E8EFB031EEB6B05B9C174AA208 PUSH1 0x1 PUSH1 0x6 DUP1 PUSH2 0xF95 PUSH2 0x1576 JUMP JUMPDEST SWAP1 POP SUB DUP6 DUP6 PUSH1 0x40 MLOAD SWAP3 DUP4 MSTORE PUSH1 0x1 PUSH1 0x1 PUSH1 0xA0 SHL SUB SWAP1 SWAP2 AND PUSH1 0x20 DUP4 ADD MSTORE PUSH1 0x40 DUP1 DUP4 ADD SWAP2 SWAP1 SWAP2 MSTORE PUSH1 0x60 SWAP1 SWAP2 ADD SWAP1 MLOAD DUP1 SWAP2 SUB SWAP1 LOG1 POP PUSH1 0x1 SWAP4 SWAP3 POP POP POP JUMP JUMPDEST PUSH1 0x0 PUSH1 0x1 PUSH2 0xFDB PUSH2 0x1576 JUMP JUMPDEST SWAP1 PUSH2 0x100 EXP SWAP1 DIV PUSH1 0x1 PUSH1 0x1 PUSH1 0xA0 SHL SUB AND PUSH1 0x1 PUSH1 0x1 PUSH1 0xA0 SHL SUB AND GAS PUSH2 0xFFD PUSH2 0x161F JUMP JUMPDEST PUSH1 0x1 PUSH1 0x1 PUSH1 0xA0 SHL SUB AND EQ PUSH2 0x104B JUMPI PUSH1 0x40 MLOAD PUSH3 0x461BCD PUSH1 0xE5 SHL DUP2 MSTORE PUSH1 0x4 ADD DUP1 DUP1 PUSH1 0x20 ADD DUP3 DUP2 SUB DUP3 MSTORE PUSH1 0x35 DUP2 MSTORE PUSH1 0x20 ADD DUP1 PUSH2 0x18C1 PUSH1 0x35 SWAP2 CODECOPY PUSH1 0x40 ADD SWAP2 POP POP PUSH1 0x40 MLOAD DUP1 SWAP2 SUB SWAP1 PUSH2 0x1048 PUSH2 0x150B JUMP JUMPDEST POP POP JUMPDEST PUSH32 0xB532073B38C83145E3E5135377A08BF9AAB55BC0FD7C1179CD4FB995D2A5159C PUSH1 0x0 DUP1 PUSH2 0x1077 PUSH2 0x1576 JUMP JUMPDEST SWAP1 PUSH2 0x100 EXP SWAP1 DIV PUSH1 0x1 PUSH1 0x1 PUSH1 0xA0 SHL SUB AND PUSH1 0x1 PUSH1 0x0 SWAP1 PUSH2 0x1094 PUSH2 0x1576 JUMP JUMPDEST SWAP1 PUSH2 0x100 EXP SWAP1 DIV PUSH1 0x1 PUSH1 0x1 PUSH1 0xA0 SHL SUB AND PUSH1 0x40 MLOAD PUSH1 0x1 PUSH1 0x1 PUSH1 0xA0 SHL SUB SWAP3 DUP4 AND DUP2 MSTORE SWAP2 AND PUSH1 0x20 DUP3 ADD MSTORE PUSH1 0x40 SWAP1 DUP2 ADD SWAP1 MLOAD DUP1 SWAP2 SUB SWAP1 LOG1 PUSH1 0x0 PUSH1 0x1 PUSH2 0x10D3 PUSH2 0x1576 JUMP JUMPDEST SWAP1 PUSH2 0x100 EXP SWAP1 DIV PUSH1 0x1 PUSH1 0x1 PUSH1 0xA0 SHL SUB AND PUSH1 0x0 DUP1 PUSH2 0x100 EXP DUP2 PUSH2 0x10F3 PUSH2 0x1576 JUMP JUMPDEST DUP2 PUSH1 0x1 PUSH1 0x1 PUSH1 0xA0 SHL SUB MUL NOT AND SWAP1 DUP4 PUSH1 0x1 PUSH1 0x1 PUSH1 0xA0 SHL SUB AND MUL OR SWAP1 PUSH2 0x1115 PUSH2 0x15D1 JUMP JUMPDEST POP POP POP PUSH1 0x0 PUSH1 0x1 PUSH1 0x0 PUSH2 0x100 EXP DUP2 PUSH2 0x112B PUSH2 0x1576 JUMP JUMPDEST DUP2 PUSH1 0x1 PUSH1 0x1 PUSH1 0xA0 SHL SUB MUL NOT AND SWAP1 DUP4 PUSH1 0x1 PUSH1 0x1 PUSH1 0xA0 SHL SUB AND MUL OR SWAP1 PUSH2 0x114D PUSH2 0x15D1 JUMP JUMPDEST POP POP POP JUMP JUMPDEST PUSH2 0x115A PUSH2 0x142C JUMP JUMPDEST DUP1 PUSH1 0x2 PUSH1 0x1 DUP2 PUSH2 0xDD9 PUSH2 0x1576 JUMP JUMPDEST PUSH2 0x1170 PUSH2 0x142C JUMP JUMPDEST PUSH1 0x1 PUSH1 0x6 DUP1 PUSH2 0x117D PUSH2 0x1576 JUMP JUMPDEST SWAP1 POP SUB DUP2 GT ISZERO PUSH2 0x11D2 JUMPI PUSH1 0x40 MLOAD PUSH3 0x461BCD PUSH1 0xE5 SHL DUP2 MSTORE PUSH1 0x20 PUSH1 0x4 DUP3 ADD MSTORE PUSH1 0x13 PUSH1 0x24 DUP3 ADD MSTORE PUSH19 0x696E646578206F7574206F6620626F756E6473 PUSH1 0x68 SHL PUSH1 0x44 DUP3 ADD MSTORE PUSH1 0x64 ADD PUSH1 0x40 MLOAD DUP1 SWAP2 SUB SWAP1 PUSH2 0x11CF PUSH2 0x150B JUMP JUMPDEST POP POP JUMPDEST DUP1 JUMPDEST PUSH1 0x1 PUSH1 0x6 DUP1 PUSH2 0x11E1 PUSH2 0x1576 JUMP JUMPDEST SWAP1 POP SUB DUP2 LT ISZERO PUSH2 0x12A9 JUMPI PUSH1 0x6 DUP2 PUSH1 0x1 ADD DUP2 PUSH2 0x11FA PUSH2 0x1576 JUMP JUMPDEST DUP2 LT PUSH2 0x1202 JUMPI INVALID JUMPDEST SWAP1 PUSH1 0x0 MSTORE PUSH1 0x20 PUSH1 0x0 KECCAK256 SWAP1 PUSH1 0x2 MUL ADD PUSH1 0x6 DUP3 DUP2 PUSH2 0x121C PUSH2 0x1576 JUMP JUMPDEST DUP2 LT PUSH2 0x1224 JUMPI INVALID JUMPDEST SWAP1 PUSH1 0x0 MSTORE PUSH1 0x20 PUSH1 0x0 KECCAK256 PUSH1 0x2 SWAP1 SWAP2 MUL ADD PUSH1 0x0 DUP3 PUSH2 0x123E PUSH2 0x1576 JUMP JUMPDEST PUSH1 0x1 PUSH1 0x1 PUSH1 0xA0 SHL SUB PUSH2 0x100 SWAP3 SWAP1 SWAP3 EXP SWAP1 DIV AND DUP2 PUSH1 0x1 DUP2 PUSH2 0x125C PUSH2 0x1576 JUMP JUMPDEST DUP2 PUSH1 0x1 PUSH1 0x1 PUSH1 0xA0 SHL SUB MUL NOT AND SWAP1 DUP4 PUSH1 0x1 PUSH1 0x1 PUSH1 0xA0 SHL SUB AND MUL OR SWAP1 PUSH2 0x127E PUSH2 0x15D1 JUMP JUMPDEST POP POP POP PUSH1 0x1 DUP3 ADD PUSH2 0x128D PUSH2 0x1576 JUMP JUMPDEST DUP2 PUSH1 0x1 ADD PUSH2 0x1299 PUSH2 0x15D1 JUMP JUMPDEST POP POP PUSH1 0x1 SWAP1 SWAP3 ADD SWAP2 POP PUSH2 0x11D4 SWAP1 POP JUMP JUMPDEST POP PUSH1 0x6 DUP1 PUSH2 0x12B5 PUSH2 0x1576 JUMP JUMPDEST SWAP1 PUSH2 0x12C4 SWAP1 PUSH1 0x0 NOT DUP4 ADD PUSH2 0x183A JUMP JUMPDEST POP POP JUMP JUMPDEST PUSH1 0x0 DUP1 PUSH2 0x48C PUSH2 0x1576 JUMP JUMPDEST PUSH2 0x12DB PUSH2 0x142C JUMP JUMPDEST DUP1 PUSH1 0x3 PUSH1 0x1 DUP2 PUSH2 0xDD9 PUSH2 0x1576 JUMP JUMPDEST PUSH1 0x0 PUSH1 0x4 PUSH2 0x48C PUSH2 0x1576 JUMP JUMPDEST PUSH1 0x0 PUSH1 0x3 PUSH2 0x48C PUSH2 0x1576 JUMP JUMPDEST PUSH1 0x0 PUSH1 0x2 PUSH2 0x48C PUSH2 0x1576 JUMP JUMPDEST PUSH1 0x0 PUSH1 0x5 PUSH2 0x48C PUSH2 0x1576 JUMP JUMPDEST PUSH2 0x1321 PUSH2 0x142C JUMP JUMPDEST DUP1 PUSH1 0x5 PUSH1 0x1 DUP2 PUSH2 0xDD9 PUSH2 0x1576 JUMP JUMPDEST PUSH1 0x0 PUSH2 0x1339 PUSH2 0x142C JUMP JUMPDEST PUSH1 0x1 PUSH1 0x6 DUP1 PUSH2 0x1346 PUSH2 0x1576 JUMP JUMPDEST SWAP1 POP SUB DUP5 GT ISZERO PUSH2 0x139B JUMPI PUSH1 0x40 MLOAD PUSH3 0x461BCD PUSH1 0xE5 SHL DUP2 MSTORE PUSH1 0x20 PUSH1 0x4 DUP3 ADD MSTORE PUSH1 0x13 PUSH1 0x24 DUP3 ADD MSTORE PUSH19 0x696E646578206F7574206F6620626F756E6473 PUSH1 0x68 SHL PUSH1 0x44 DUP3 ADD MSTORE PUSH1 0x64 ADD PUSH1 0x40 MLOAD DUP1 SWAP2 SUB SWAP1 PUSH2 0x1398 PUSH2 0x150B JUMP JUMPDEST POP POP JUMPDEST DUP3 PUSH1 0x6 DUP6 DUP2 PUSH2 0x13A8 PUSH2 0x1576 JUMP JUMPDEST DUP2 LT PUSH2 0x13B0 JUMPI INVALID JUMPDEST SWAP1 PUSH1 0x0 MSTORE PUSH1 0x20 PUSH1 0x0 KECCAK256 PUSH1 0x2 SWAP1 SWAP2 MUL ADD PUSH1 0x1 DUP2 PUSH2 0x13CA PUSH2 0x1576 JUMP JUMPDEST DUP2 PUSH1 0x1 PUSH1 0x1 PUSH1 0xA0 SHL SUB MUL NOT AND SWAP1 DUP4 PUSH1 0x1 PUSH1 0x1 PUSH1 0xA0 SHL SUB AND MUL OR SWAP1 PUSH2 0x13EC PUSH2 0x15D1 JUMP JUMPDEST POP POP POP DUP2 PUSH1 0x6 DUP6 DUP2 PUSH2 0x13FC PUSH2 0x1576 JUMP JUMPDEST DUP2 LT PUSH2 0x1404 JUMPI INVALID JUMPDEST SWAP1 PUSH1 0x0 MSTORE PUSH1 0x20 PUSH1 0x0 KECCAK256 SWAP1 PUSH1 0x2 MUL ADD PUSH1 0x1 ADD DUP2 SWAP1 PUSH2 0x141F PUSH2 0x15D1 JUMP JUMPDEST POP PUSH1 0x1 SWAP7 SWAP6 POP POP POP POP POP POP JUMP JUMPDEST PUSH1 0x0 DUP1 PUSH2 0x1437 PUSH2 0x1576 JUMP JUMPDEST SWAP1 PUSH2 0x100 EXP SWAP1 DIV PUSH1 0x1 PUSH1 0x1 PUSH1 0xA0 SHL SUB AND PUSH1 0x1 PUSH1 0x1 PUSH1 0xA0 SHL SUB AND GAS PUSH2 0x1459 PUSH2 0x161F JUMP JUMPDEST PUSH1 0x1 PUSH1 0x1 PUSH1 0xA0 SHL SUB AND EQ PUSH2 0x14A4 JUMPI PUSH1 0x40 MLOAD PUSH3 0x461BCD PUSH1 0xE5 SHL DUP2 MSTORE PUSH1 0x4 ADD DUP1 DUP1 PUSH1 0x20 ADD DUP3 DUP2 SUB DUP3 MSTORE PUSH1 0x2F DUP2 MSTORE PUSH1 0x20 ADD DUP1 PUSH2 0x193C PUSH1 0x2F SWAP2 CODECOPY PUSH1 0x40 ADD SWAP2 POP POP PUSH1 0x40 MLOAD DUP1 SWAP2 SUB SWAP1 PUSH2 0x12C4 PUSH2 0x150B JUMP JUMPDEST JUMP JUMPDEST PUSH1 0x0 DUP3 DUP3 GT ISZERO PUSH2 0x1505 JUMPI PUSH1 0x40 MLOAD PUSH3 0x461BCD PUSH1 0xE5 SHL DUP2 MSTORE PUSH1 0x20 PUSH1 0x4 DUP3 ADD MSTORE PUSH1 0x1E PUSH1 0x24 DUP3 ADD MSTORE PUSH32 0x536166654D6174683A207375627472616374696F6E206F766572666C6F770000 PUSH1 0x44 DUP3 ADD MSTORE PUSH1 0x64 ADD PUSH1 0x40 MLOAD DUP1 SWAP2 SUB SWAP1 PUSH2 0x1502 PUSH2 0x150B JUMP JUMPDEST POP POP JUMPDEST POP SWAP1 SUB SWAP1 JUMP JUMPDEST PUSH4 0x2A2A7ADB MSIZE DUP2 PUSH1 0xE0 SHL DUP2 MSTORE PUSH1 0x4 DUP2 ADD PUSH1 0x20 DUP2 MSTORE DUP6 PUSH1 0x20 DUP3 ADD MSTORE PUSH1 0x0 JUMPDEST DUP7 DUP2 LT ISZERO PUSH2 0x1543 JUMPI DUP1 DUP7 ADD MLOAD DUP3 DUP3 ADD PUSH1 0x40 ADD MSTORE PUSH1 0x20 ADD PUSH2 0x1528 JUMP JUMPDEST POP PUSH1 0x20 DUP3 DUP8 PUSH1 0x64 ADD DUP5 CALLER PUSH1 0x0 SWAP1 GAS CALL PC PUSH1 0xE ADD JUMPI RETURNDATASIZE PUSH1 0x0 DUP1 RETURNDATACOPY RETURNDATASIZE PUSH1 0x0 REVERT JUMPDEST RETURNDATASIZE PUSH1 0x1 EQ ISZERO PC PUSH1 0xA ADD JUMPI PUSH1 0x1 PUSH1 0x0 RETURN JUMPDEST POP POP POP JUMP JUMPDEST PUSH4 0x3DAA959 MSIZE DUP2 PUSH1 0xE0 SHL DUP2 MSTORE DUP4 PUSH1 0x4 DUP3 ADD MSTORE PUSH1 0x20 DUP2 PUSH1 0x24 DUP4 CALLER PUSH1 0x0 SWAP1 GAS CALL PC PUSH1 0xE ADD JUMPI RETURNDATASIZE PUSH1 0x0 DUP1 RETURNDATACOPY RETURNDATASIZE PUSH1 0x0 REVERT JUMPDEST RETURNDATASIZE PUSH1 0x1 EQ ISZERO PC PUSH1 0xA ADD JUMPI PUSH1 0x1 PUSH1 0x0 RETURN JUMPDEST DUP1 MLOAD SWAP4 POP PUSH1 0x0 JUMPDEST PUSH1 0x40 DUP2 LT ISZERO PUSH2 0x114D JUMPI PUSH1 0x0 DUP3 DUP3 ADD MSTORE PUSH1 0x20 ADD PUSH2 0x15BA JUMP JUMPDEST PUSH4 0x22BD64C0 MSIZE DUP2 PUSH1 0xE0 SHL DUP2 MSTORE DUP4 PUSH1 0x4 DUP3 ADD MSTORE DUP5 PUSH1 0x24 DUP3 ADD MSTORE PUSH1 0x0 DUP2 PUSH1 0x44 DUP4 CALLER PUSH1 0x0 SWAP1 GAS CALL PC PUSH1 0xE ADD JUMPI RETURNDATASIZE PUSH1 0x0 DUP1 RETURNDATACOPY RETURNDATASIZE PUSH1 0x0 REVERT JUMPDEST RETURNDATASIZE PUSH1 0x1 EQ ISZERO PC PUSH1 0xA ADD JUMPI PUSH1 0x1 PUSH1 0x0 RETURN JUMPDEST PUSH1 0x0 DUP2 MSTORE PUSH1 0x20 PUSH2 0x15BA JUMP JUMPDEST PUSH4 0x73509064 MSIZE DUP2 PUSH1 0xE0 SHL DUP2 MSTORE PUSH1 0x20 DUP2 PUSH1 0x4 DUP4 CALLER PUSH1 0x0 SWAP1 GAS CALL PC PUSH1 0xE ADD JUMPI RETURNDATASIZE PUSH1 0x0 DUP1 RETURNDATACOPY RETURNDATASIZE PUSH1 0x0 REVERT JUMPDEST RETURNDATASIZE PUSH1 0x1 EQ ISZERO PC PUSH1 0xA ADD JUMPI PUSH1 0x1 PUSH1 0x0 RETURN JUMPDEST DUP1 MLOAD PUSH1 0x0 DUP3 MSTORE SWAP4 POP PUSH1 0x20 PUSH2 0x15BA JUMP JUMPDEST PUSH4 0x8435035B MSIZE DUP2 PUSH1 0xE0 SHL DUP2 MSTORE DUP4 PUSH1 0x4 DUP3 ADD MSTORE PUSH1 0x20 DUP2 PUSH1 0x24 DUP4 CALLER PUSH1 0x0 SWAP1 GAS CALL PC PUSH1 0xE ADD JUMPI RETURNDATASIZE PUSH1 0x0 DUP1 RETURNDATACOPY RETURNDATASIZE PUSH1 0x0 REVERT JUMPDEST RETURNDATASIZE PUSH1 0x1 EQ ISZERO PC PUSH1 0xA ADD JUMPI PUSH1 0x1 PUSH1 0x0 RETURN JUMPDEST DUP1 MLOAD PUSH1 0x0 DUP3 MSTORE SWAP4 POP PUSH1 0x20 PUSH2 0x15BA JUMP JUMPDEST PUSH4 0x8540661F MSIZE DUP2 PUSH1 0xE0 SHL DUP2 MSTORE DUP4 PUSH1 0x4 DUP3 ADD MSTORE DUP5 PUSH1 0x24 DUP3 ADD MSTORE PUSH1 0x60 PUSH1 0x44 DUP3 ADD MSTORE DUP7 PUSH1 0x64 DUP3 ADD MSTORE PUSH1 0x84 DUP2 ADD PUSH1 0x0 JUMPDEST DUP9 DUP2 LT ISZERO PUSH2 0x16F5 JUMPI DUP1 DUP9 ADD MLOAD DUP3 DUP3 ADD MSTORE PUSH1 0x20 ADD PUSH2 0x16DD JUMP JUMPDEST POP DUP8 PUSH2 0x104 ADD DUP3 ADD PUSH1 0x60 DUP4 DUP11 PUSH2 0x104 ADD DUP6 CALLER PUSH1 0x0 SWAP1 GAS CALL PC PUSH1 0xE ADD JUMPI RETURNDATASIZE PUSH1 0x0 DUP1 RETURNDATACOPY RETURNDATASIZE PUSH1 0x0 REVERT JUMPDEST RETURNDATASIZE PUSH1 0x1 EQ ISZERO PC PUSH1 0xA ADD JUMPI PUSH1 0x1 PUSH1 0x0 RETURN JUMPDEST DUP3 MLOAD PUSH1 0x40 DUP5 ADD MLOAD RETURNDATASIZE PUSH1 0x0 DUP7 RETURNDATACOPY DUP13 DUP13 DUP3 PUSH1 0x60 DUP9 ADD CALLER POP PUSH1 0x0 PUSH1 0x4 GAS CALL POP MSIZE DUP6 JUMPDEST DUP2 DUP2 LT ISZERO PUSH2 0x175E JUMPI PUSH1 0x0 DUP2 MSTORE PUSH1 0x20 ADD PUSH2 0x174A JUMP JUMPDEST POP SWAP2 SWAP13 POP POP POP POP POP POP POP JUMP JUMPDEST PUSH4 0x85979F76 MSIZE DUP2 PUSH1 0xE0 SHL DUP2 MSTORE DUP4 PUSH1 0x4 DUP3 ADD MSTORE DUP5 PUSH1 0x24 DUP3 ADD MSTORE PUSH1 0x60 PUSH1 0x44 DUP3 ADD MSTORE DUP8 PUSH1 0x64 DUP3 ADD MSTORE PUSH1 0x84 DUP2 ADD PUSH1 0x0 JUMPDEST DUP10 DUP2 LT ISZERO PUSH2 0x17AE JUMPI DUP1 DUP10 ADD MLOAD DUP3 DUP3 ADD MSTORE PUSH1 0x20 ADD PUSH2 0x1796 JUMP JUMPDEST POP DUP9 PUSH2 0x104 ADD DUP3 ADD PUSH1 0x60 DUP4 DUP12 PUSH2 0x104 ADD DUP6 CALLER PUSH1 0x0 SWAP1 GAS CALL PC PUSH1 0xE ADD JUMPI RETURNDATASIZE PUSH1 0x0 DUP1 RETURNDATACOPY RETURNDATASIZE PUSH1 0x0 REVERT JUMPDEST RETURNDATASIZE PUSH1 0x1 EQ ISZERO PC PUSH1 0xA ADD JUMPI PUSH1 0x1 PUSH1 0x0 RETURN JUMPDEST DUP3 MLOAD PUSH1 0x40 DUP5 ADD MLOAD RETURNDATASIZE PUSH1 0x0 DUP7 RETURNDATACOPY DUP14 DUP14 DUP3 PUSH1 0x60 DUP9 ADD CALLER POP PUSH1 0x0 PUSH1 0x4 GAS CALL POP MSIZE DUP6 JUMPDEST DUP2 DUP2 LT ISZERO PUSH2 0x1817 JUMPI PUSH1 0x0 DUP2 MSTORE PUSH1 0x20 ADD PUSH2 0x1803 JUMP JUMPDEST POP SWAP2 SWAP14 POP POP POP POP POP POP POP JUMP JUMPDEST PUSH1 0x40 MLOAD PUSH1 0x40 DUP1 DUP3 ADD SWAP1 MSTORE PUSH1 0x0 DUP1 DUP3 MSTORE PUSH1 0x20 DUP3 ADD MSTORE SWAP1 JUMP JUMPDEST DUP2 PUSH2 0x1843 PUSH2 0x1576 JUMP JUMPDEST DUP2 DUP4 PUSH2 0x184D PUSH2 0x15D1 JUMP JUMPDEST POP POP DUP2 DUP2 GT ISZERO PUSH2 0x114D JUMPI PUSH1 0x2 MUL DUP2 PUSH1 0x2 MUL DUP4 PUSH1 0x0 MSTORE PUSH1 0x20 PUSH1 0x0 KECCAK256 PUSH2 0x114D SWAP3 DUP2 ADD SWAP2 ADD PUSH2 0x3B1 SWAP2 SWAP1 JUMPDEST DUP1 DUP3 GT ISZERO PUSH2 0x18BC JUMPI PUSH1 0x0 DUP2 PUSH1 0x1 DUP2 PUSH2 0x188B PUSH2 0x1576 JUMP JUMPDEST SWAP1 PUSH1 0x1 PUSH1 0x1 PUSH1 0xA0 SHL SUB MUL NOT AND SWAP1 PUSH2 0x18A0 PUSH2 0x15D1 JUMP JUMPDEST POP POP PUSH1 0x1 DUP3 ADD PUSH1 0x0 SWAP1 PUSH2 0x18B1 PUSH2 0x15D1 JUMP JUMPDEST POP POP POP PUSH1 0x2 ADD PUSH2 0x1875 JUMP JUMPDEST POP SWAP1 JUMP INVALID MSIZE PUSH16 0x75206D757374206265206E6F6D696E61 PUSH21 0x6564206265666F726520796F752063616E20616363 PUSH6 0x7074206F776E PUSH6 0x727368697052 PUSH6 0x776172647344 PUSH10 0x73747269627574696F6E KECCAK256 PUSH4 0x6F6E7472 PUSH2 0x6374 KECCAK256 PUSH5 0x6F6573206E PUSH16 0x74206861766520656E6F75676820746F PUSH12 0x656E7320746F206469737472 PUSH10 0x627574654F6E6C792074 PUSH9 0x6520636F6E74726163 PUSH21 0x206F776E6572206D617920706572666F726D207468 PUSH10 0x7320616374696F6E0000 "
		},
		"deployedBytecode": {
			"linkReferences": {},
			"object": "60806040523480156100195760008061001661150b565b50505b506004361061011f5760003560e01c8063817a6951116100ab578063bdd124821161007a578063bdd124821461031e578063bf7e214f14610326578063c9e9cc4d1461032e578063d8297e4414610336578063e54c1671146103655761011f565b8063817a6951146102b95780638da5cb5b146102df57806395896b76146102e7578063a430be6c146103165761011f565b806359974e38116100f257806359974e38146101e45780635de399341461021e57806360eb3ff21461024d57806379ba5097146102825780637a9e5e4b1461028a5761011f565b8063060ca2501461012d5780631627540c146101475780634487d3df1461017857806353a47bb7146101c0575b60008061012a61150b565b50505b6101356103a0565b60405190815260200160405180910390f35b610176600480360360208110156101665760008061016361150b565b50505b50356001600160a01b03166103b4565b005b61019e600480360360208110156101975760008061019461150b565b50505b503561042e565b6040516001600160a01b03909216825260208201526040908101905180910390f35b6101c8610480565b6040516001600160a01b03909116815260200160405180910390f35b61020a600480360360208110156102035760008061020061150b565b50505b503561049f565b604051901515815260200160405180910390f35b6101766004803603602081101561023d5760008061023a61150b565b50505b50356001600160a01b0316610dc3565b61020a6004803603604081101561026c5760008061026961150b565b50505b506001600160a01b038135169060200135610e01565b610176610fcf565b610176600480360360208110156102a9576000806102a661150b565b50505b50356001600160a01b0316611152565b610176600480360360208110156102d8576000806102d561150b565b50505b5035611168565b6101c86112c8565b610176600480360360208110156103065760008061030361150b565b50505b50356001600160a01b03166112d3565b6101c86112e9565b6101c86112f5565b6101c8611301565b6101c861130d565b610176600480360360208110156103555760008061035261150b565b50505b50356001600160a01b0316611319565b61020a600480360360608110156103845760008061038161150b565b50505b508035906001600160a01b03602082013516906040013561132f565b60006006806103ad611576565b9150505b90565b6103bc61142c565b80600180806103c9611576565b816001600160a01b0302191690836001600160a01b03160217906103eb6115d1565b5050507f906a1c6bd7e3091ea86693dd029a831c19049ce77f1dce2ce0bab1cacbabce22816040516001600160a01b03909116815260200160405180910390a150565b6006818161043a611576565b811061044257fe5b906000526020600020600290910201905060008161045e611576565b906101000a90046001600160a01b0316908060010161047b611576565b905082565b6000600161048c611576565b906101000a90046001600160a01b031681565b60008082116104f55760405162461bcd60e51b81526020600482015260156024820152744e6f7468696e6720746f206469737472696275746560581b6044820152606401604051809103906104f261150b565b50505b60006002610501611576565b906101000a90046001600160a01b03166001600160a01b03165a61052361161f565b6001600160a01b0316146105865760405162461bcd60e51b815260206004820152601860248201527f43616c6c6572206973206e6f7420617574686f7269736564000000000000000060448201526064016040518091039061058361150b565b50505b6000806004610593611576565b906101000a90046001600160a01b03166001600160a01b031614156106075760405162461bcd60e51b815260206004820152601760248201527f526577617264457363726f77206973206e6f742073657400000000000000000060448201526064016040518091039061060461150b565b50505b6000806003610614611576565b906101000a90046001600160a01b03166001600160a01b031614156106885760405162461bcd60e51b815260206004820152601960248201527f53796e74686574697850726f7879206973206e6f74207365740000000000000060448201526064016040518091039061068561150b565b50505b6000806005610695611576565b906101000a90046001600160a01b03166001600160a01b031614156107095760405162461bcd60e51b815260206004820152601760248201527f466565506f6f6c50726f7879206973206e6f742073657400000000000000000060448201526064016040518091039061070661150b565b50505b8160006003610716611576565b906101000a90046001600160a01b03166001600160a01b03166370a082315a63996d79a5598160e01b8152602081600483336000905af158601d01573d60011458600c01573d6000803e3d621234565260ea61109c528051925060005b604081101561078a57600082820152602001610773565b5050506040516001600160e01b031960e084901b1681526001600160a01b03909116600482015260240160206040518083038186806107c7611665565b1580156107dc576000806107d961150b565b50505b505a6107e66116b1565b5050505050158015610805573d6000803e3d600061080261150b565b50505b505050506040513d60208110156108245760008061082161150b565b50505b810190808051939093101592506108789150505760405162461bcd60e51b81526004018080602001828103825260468152602001806118f6604691396060019150506040518091039061087561150b565b50505b8160005b600680610887611576565b9050811015610bf85760006006828161089e611576565b81106108a657fe5b906000526020600020600091600202016108be611576565b906101000a90046001600160a01b03166001600160a01b031614158061090f5750600681816108eb611576565b81106108f357fe5b906000526020600020906002020160010161090c611576565b15155b15610bf05761095160068281610923611576565b811061092b57fe5b9060005260206000209060020201600101610944611576565b839063ffffffff6114a616565b91506000600361095f611576565b906101000a90046001600160a01b03166001600160a01b031663a9059cbb60068381610989611576565b811061099157fe5b906000526020600020600091600202016109a9611576565b906101000a90046001600160a01b0316600684816109c5611576565b81106109cd57fe5b90600052602060002090600202016001016109e6611576565b6040516001600160e01b031960e085901b1681526001600160a01b039092166004830152602482015260440160206040518083038160008780610a27611665565b158015610a3c57600080610a3961150b565b50505b505a610a4661176a565b505050505050158015610a66573d6000803e3d6000610a6361150b565b50505b505050506040513d6020811015610a8557600080610a8261150b565b50505b81019080805150606092506006915083905081610aa0611576565b8110610aa857fe5b9060005260206000209060020201600101610ac1611576565b6040516024810191909152604401604051601f19818303018152604091909152633c6b16ab60e01b6020820180516001600160e01b031690911790529050600060068381610b0d611576565b8110610b1557fe5b90600052602060002060009160020201610b2d611576565b906101000a90046001600160a01b03166001600160a01b0316826040518082805190602001908083835b60208310610b765780518252601f199092019160209182019101610b57565b6001836020036101000a0380198251168184511680821785525050505050509050019150506000604051808303816000865a610bb061176a565b5050505050509150503d8060008114610be5576040513d603f01601f191681016040523d815291503d6000602084013e610bea565b606091505b50505050505b60010161087c565b5060006003610c05611576565b6001600160a01b036101009290920a90041663a9059cbb60006004610c28611576565b906101000a90046001600160a01b0316836040516001600160e01b031960e085901b1681526001600160a01b039092166004830152602482015260440160206040518083038160008780610c7a611665565b158015610c8f57600080610c8c61150b565b50505b505a610c9961176a565b505050505050158015610cb9573d6000803e3d6000610cb661150b565b50505b505050506040513d6020811015610cd857600080610cd561150b565b50505b810190808051506000925060059150610cf19050611576565b906101000a90046001600160a01b03166001600160a01b031663fd1f498d826040516001600160e01b031960e084901b168152600481019190915260240160006040518083038160008780610d44611665565b158015610d5957600080610d5661150b565b50505b505a610d6361176a565b505050505050158015610d83573d6000803e3d6000610d8061150b565b50505b505050507f6d1c76d614228b523baa4dcd9539e2c713b54ff4ab3ff2d1627e7f6cd32be4428360405190815260200160405180910390a150600192915050565b610dcb61142c565b806004600181610dd9611576565b816001600160a01b0302191690836001600160a01b0316021790610dfb6115d1565b50505050565b6000610e0b61142c565b6001600160a01b038316610e6e5760405162461bcd60e51b815260206004820152601760248201527f43616e74206164642061207a65726f2061646472657373000000000000000000604482015260640160405180910390610e6b61150b565b50505b81610ec15760405162461bcd60e51b815260206004820152601660248201527510d85b9d081859190818481e995c9bc8185b5bdd5b9d60521b604482015260640160405180910390610ebe61150b565b50505b610ec9611823565b604051604080820190526001600160a01b038516815260208101849052905080600680600181610ef7611576565b018082610f026115d1565b50506000928352916000198301915060209020919291600290910201815181600181610f2c611576565b816001600160a01b0302191690836001600160a01b0316021790610f4e6115d1565b505050602082015181600101610f626115d1565b50505050507f08fff3cb767a84a8039ea0f84053799c5cdca0e8efb031eeb6b05b9c174aa2086001600680610f95611576565b90500385856040519283526001600160a01b0390911660208301526040808301919091526060909101905180910390a15060019392505050565b60006001610fdb611576565b906101000a90046001600160a01b03166001600160a01b03165a610ffd61161f565b6001600160a01b03161461104b5760405162461bcd60e51b81526004018080602001828103825260358152602001806118c1603591396040019150506040518091039061104861150b565b50505b7fb532073b38c83145e3e5135377a08bf9aab55bc0fd7c1179cd4fb995d2a5159c600080611077611576565b906101000a90046001600160a01b03166001600090611094611576565b906101000a90046001600160a01b03166040516001600160a01b039283168152911660208201526040908101905180910390a1600060016110d3611576565b906101000a90046001600160a01b03166000806101000a816110f3611576565b816001600160a01b0302191690836001600160a01b03160217906111156115d1565b5050506000600160006101000a8161112b611576565b816001600160a01b0302191690836001600160a01b031602179061114d6115d1565b505050565b61115a61142c565b806002600181610dd9611576565b61117061142c565b600160068061117d611576565b9050038111156111d25760405162461bcd60e51b8152602060048201526013602482015272696e646578206f7574206f6620626f756e647360681b6044820152606401604051809103906111cf61150b565b50505b805b60016006806111e1611576565b9050038110156112a957600681600101816111fa611576565b811061120257fe5b90600052602060002090600202016006828161121c611576565b811061122457fe5b90600052602060002060029091020160008261123e611576565b6001600160a01b036101009290920a9004168160018161125c611576565b816001600160a01b0302191690836001600160a01b031602179061127e6115d1565b5050506001820161128d611576565b816001016112996115d1565b5050600190920191506111d49050565b506006806112b5611576565b906112c490600019830161183a565b5050565b60008061048c611576565b6112db61142c565b806003600181610dd9611576565b6000600461048c611576565b6000600361048c611576565b6000600261048c611576565b6000600561048c611576565b61132161142c565b806005600181610dd9611576565b600061133961142c565b6001600680611346611576565b90500384111561139b5760405162461bcd60e51b8152602060048201526013602482015272696e646578206f7574206f6620626f756e647360681b60448201526064016040518091039061139861150b565b50505b82600685816113a8611576565b81106113b057fe5b9060005260206000206002909102016001816113ca611576565b816001600160a01b0302191690836001600160a01b03160217906113ec6115d1565b50505081600685816113fc611576565b811061140457fe5b9060005260206000209060020201600101819061141f6115d1565b5060019695505050505050565b600080611437611576565b906101000a90046001600160a01b03166001600160a01b03165a61145961161f565b6001600160a01b0316146114a45760405162461bcd60e51b815260040180806020018281038252602f81526020018061193c602f9139604001915050604051809103906112c461150b565b565b6000828211156115055760405162461bcd60e51b815260206004820152601e60248201527f536166654d6174683a207375627472616374696f6e206f766572666c6f77000060448201526064016040518091039061150261150b565b50505b50900390565b632a2a7adb598160e01b8152600481016020815285602082015260005b86811015611543578086015182820160400152602001611528565b506020828760640184336000905af158601d01573d60011458600c01573d6000803e3d621234565260ea61109c52505050565b6303daa959598160e01b8152836004820152602081602483336000905af158601d01573d60011458600c01573d6000803e3d621234565260ea61109c528051935060005b604081101561114d576000828201526020016115ba565b6322bd64c0598160e01b8152836004820152846024820152600081604483336000905af158601d01573d60011458600c01573d6000803e3d621234565260ea61109c526000815260206115ba565b6373509064598160e01b8152602081600483336000905af158601d01573d60011458600c01573d6000803e3d621234565260ea61109c52805160008252935060206115ba565b638435035b598160e01b8152836004820152602081602483336000905af158601d01573d60011458600c01573d6000803e3d621234565260ea61109c52805160008252935060206115ba565b638540661f598160e01b8152836004820152846024820152606060448201528660648201526084810160005b888110156116f55780880151828201526020016116dd565b50876101040182016060838a6101040185336000905af158601d01573d60011458600c01573d6000803e3d621234565260ea61109c52825160408401513d6000863e8c8c82606088013350600060045af15059855b8181101561175e576000815260200161174a565b50919c50505050505050565b6385979f76598160e01b8152836004820152846024820152606060448201528760648201526084810160005b898110156117ae578089015182820152602001611796565b50886101040182016060838b6101040185336000905af158601d01573d60011458600c01573d6000803e3d621234565260ea61109c52825160408401513d6000863e8d8d82606088013350600060045af15059855b818110156118175760008152602001611803565b50919d50505050505050565b604051604080820190526000808252602082015290565b81611843611576565b818361184d6115d1565b50508181111561114d576002028160020283600052602060002061114d92810191016103b191905b808211156118bc5760008160018161188b611576565b906001600160a01b03021916906118a06115d1565b5050600182016000906118b16115d1565b505050600201611875565b509056fe596f75206d757374206265206e6f6d696e61746564206265666f726520796f752063616e20616363657074206f776e65727368697052657761726473446973747269627574696f6e20636f6e747261637420646f6573206e6f74206861766520656e6f75676820746f6b656e7320746f20646973747269627574654f6e6c792074686520636f6e7472616374206f776e6572206d617920706572666f726d207468697320616374696f6e",
			"opcodes": "PUSH1 0x80 PUSH1 0x40 MSTORE CALLVALUE DUP1 ISZERO PUSH2 0x19 JUMPI PUSH1 0x0 DUP1 PUSH2 0x16 PUSH2 0x150B JUMP JUMPDEST POP POP JUMPDEST POP PUSH1 0x4 CALLDATASIZE LT PUSH2 0x11F JUMPI PUSH1 0x0 CALLDATALOAD PUSH1 0xE0 SHR DUP1 PUSH4 0x817A6951 GT PUSH2 0xAB JUMPI DUP1 PUSH4 0xBDD12482 GT PUSH2 0x7A JUMPI DUP1 PUSH4 0xBDD12482 EQ PUSH2 0x31E JUMPI DUP1 PUSH4 0xBF7E214F EQ PUSH2 0x326 JUMPI DUP1 PUSH4 0xC9E9CC4D EQ PUSH2 0x32E JUMPI DUP1 PUSH4 0xD8297E44 EQ PUSH2 0x336 JUMPI DUP1 PUSH4 0xE54C1671 EQ PUSH2 0x365 JUMPI PUSH2 0x11F JUMP JUMPDEST DUP1 PUSH4 0x817A6951 EQ PUSH2 0x2B9 JUMPI DUP1 PUSH4 0x8DA5CB5B EQ PUSH2 0x2DF JUMPI DUP1 PUSH4 0x95896B76 EQ PUSH2 0x2E7 JUMPI DUP1 PUSH4 0xA430BE6C EQ PUSH2 0x316 JUMPI PUSH2 0x11F JUMP JUMPDEST DUP1 PUSH4 0x59974E38 GT PUSH2 0xF2 JUMPI DUP1 PUSH4 0x59974E38 EQ PUSH2 0x1E4 JUMPI DUP1 PUSH4 0x5DE39934 EQ PUSH2 0x21E JUMPI DUP1 PUSH4 0x60EB3FF2 EQ PUSH2 0x24D JUMPI DUP1 PUSH4 0x79BA5097 EQ PUSH2 0x282 JUMPI DUP1 PUSH4 0x7A9E5E4B EQ PUSH2 0x28A JUMPI PUSH2 0x11F JUMP JUMPDEST DUP1 PUSH4 0x60CA250 EQ PUSH2 0x12D JUMPI DUP1 PUSH4 0x1627540C EQ PUSH2 0x147 JUMPI DUP1 PUSH4 0x4487D3DF EQ PUSH2 0x178 JUMPI DUP1 PUSH4 0x53A47BB7 EQ PUSH2 0x1C0 JUMPI JUMPDEST PUSH1 0x0 DUP1 PUSH2 0x12A PUSH2 0x150B JUMP JUMPDEST POP POP JUMPDEST PUSH2 0x135 PUSH2 0x3A0 JUMP JUMPDEST PUSH1 0x40 MLOAD SWAP1 DUP2 MSTORE PUSH1 0x20 ADD PUSH1 0x40 MLOAD DUP1 SWAP2 SUB SWAP1 RETURN JUMPDEST PUSH2 0x176 PUSH1 0x4 DUP1 CALLDATASIZE SUB PUSH1 0x20 DUP2 LT ISZERO PUSH2 0x166 JUMPI PUSH1 0x0 DUP1 PUSH2 0x163 PUSH2 0x150B JUMP JUMPDEST POP POP JUMPDEST POP CALLDATALOAD PUSH1 0x1 PUSH1 0x1 PUSH1 0xA0 SHL SUB AND PUSH2 0x3B4 JUMP JUMPDEST STOP JUMPDEST PUSH2 0x19E PUSH1 0x4 DUP1 CALLDATASIZE SUB PUSH1 0x20 DUP2 LT ISZERO PUSH2 0x197 JUMPI PUSH1 0x0 DUP1 PUSH2 0x194 PUSH2 0x150B JUMP JUMPDEST POP POP JUMPDEST POP CALLDATALOAD PUSH2 0x42E JUMP JUMPDEST PUSH1 0x40 MLOAD PUSH1 0x1 PUSH1 0x1 PUSH1 0xA0 SHL SUB SWAP1 SWAP3 AND DUP3 MSTORE PUSH1 0x20 DUP3 ADD MSTORE PUSH1 0x40 SWAP1 DUP2 ADD SWAP1 MLOAD DUP1 SWAP2 SUB SWAP1 RETURN JUMPDEST PUSH2 0x1C8 PUSH2 0x480 JUMP JUMPDEST PUSH1 0x40 MLOAD PUSH1 0x1 PUSH1 0x1 PUSH1 0xA0 SHL SUB SWAP1 SWAP2 AND DUP2 MSTORE PUSH1 0x20 ADD PUSH1 0x40 MLOAD DUP1 SWAP2 SUB SWAP1 RETURN JUMPDEST PUSH2 0x20A PUSH1 0x4 DUP1 CALLDATASIZE SUB PUSH1 0x20 DUP2 LT ISZERO PUSH2 0x203 JUMPI PUSH1 0x0 DUP1 PUSH2 0x200 PUSH2 0x150B JUMP JUMPDEST POP POP JUMPDEST POP CALLDATALOAD PUSH2 0x49F JUMP JUMPDEST PUSH1 0x40 MLOAD SWAP1 ISZERO ISZERO DUP2 MSTORE PUSH1 0x20 ADD PUSH1 0x40 MLOAD DUP1 SWAP2 SUB SWAP1 RETURN JUMPDEST PUSH2 0x176 PUSH1 0x4 DUP1 CALLDATASIZE SUB PUSH1 0x20 DUP2 LT ISZERO PUSH2 0x23D JUMPI PUSH1 0x0 DUP1 PUSH2 0x23A PUSH2 0x150B JUMP JUMPDEST POP POP JUMPDEST POP CALLDATALOAD PUSH1 0x1 PUSH1 0x1 PUSH1 0xA0 SHL SUB AND PUSH2 0xDC3 JUMP JUMPDEST PUSH2 0x20A PUSH1 0x4 DUP1 CALLDATASIZE SUB PUSH1 0x40 DUP2 LT ISZERO PUSH2 0x26C JUMPI PUSH1 0x0 DUP1 PUSH2 0x269 PUSH2 0x150B JUMP JUMPDEST POP POP JUMPDEST POP PUSH1 0x1 PUSH1 0x1 PUSH1 0xA0 SHL SUB DUP2 CALLDATALOAD AND SWAP1 PUSH1 0x20 ADD CALLDATALOAD PUSH2 0xE01 JUMP JUMPDEST PUSH2 0x176 PUSH2 0xFCF JUMP JUMPDEST PUSH2 0x176 PUSH1 0x4 DUP1 CALLDATASIZE SUB PUSH1 0x20 DUP2 LT ISZERO PUSH2 0x2A9 JUMPI PUSH1 0x0 DUP1 PUSH2 0x2A6 PUSH2 0x150B JUMP JUMPDEST POP POP JUMPDEST POP CALLDATALOAD PUSH1 0x1 PUSH1 0x1 PUSH1 0xA0 SHL SUB AND PUSH2 0x1152 JUMP JUMPDEST PUSH2 0x176 PUSH1 0x4 DUP1 CALLDATASIZE SUB PUSH1 0x20 DUP2 LT ISZERO PUSH2 0x2D8 JUMPI PUSH1 0x0 DUP1 PUSH2 0x2D5 PUSH2 0x150B JUMP JUMPDEST POP POP JUMPDEST POP CALLDATALOAD PUSH2 0x1168 JUMP JUMPDEST PUSH2 0x1C8 PUSH2 0x12C8 JUMP JUMPDEST PUSH2 0x176 PUSH1 0x4 DUP1 CALLDATASIZE SUB PUSH1 0x20 DUP2 LT ISZERO PUSH2 0x306 JUMPI PUSH1 0x0 DUP1 PUSH2 0x303 PUSH2 0x150B JUMP JUMPDEST POP POP JUMPDEST POP CALLDATALOAD PUSH1 0x1 PUSH1 0x1 PUSH1 0xA0 SHL SUB AND PUSH2 0x12D3 JUMP JUMPDEST PUSH2 0x1C8 PUSH2 0x12E9 JUMP JUMPDEST PUSH2 0x1C8 PUSH2 0x12F5 JUMP JUMPDEST PUSH2 0x1C8 PUSH2 0x1301 JUMP JUMPDEST PUSH2 0x1C8 PUSH2 0x130D JUMP JUMPDEST PUSH2 0x176 PUSH1 0x4 DUP1 CALLDATASIZE SUB PUSH1 0x20 DUP2 LT ISZERO PUSH2 0x355 JUMPI PUSH1 0x0 DUP1 PUSH2 0x352 PUSH2 0x150B JUMP JUMPDEST POP POP JUMPDEST POP CALLDATALOAD PUSH1 0x1 PUSH1 0x1 PUSH1 0xA0 SHL SUB AND PUSH2 0x1319 JUMP JUMPDEST PUSH2 0x20A PUSH1 0x4 DUP1 CALLDATASIZE SUB PUSH1 0x60 DUP2 LT ISZERO PUSH2 0x384 JUMPI PUSH1 0x0 DUP1 PUSH2 0x381 PUSH2 0x150B JUMP JUMPDEST POP POP JUMPDEST POP DUP1 CALLDATALOAD SWAP1 PUSH1 0x1 PUSH1 0x1 PUSH1 0xA0 SHL SUB PUSH1 0x20 DUP3 ADD CALLDATALOAD AND SWAP1 PUSH1 0x40 ADD CALLDATALOAD PUSH2 0x132F JUMP JUMPDEST PUSH1 0x0 PUSH1 0x6 DUP1 PUSH2 0x3AD PUSH2 0x1576 JUMP JUMPDEST SWAP2 POP POP JUMPDEST SWAP1 JUMP JUMPDEST PUSH2 0x3BC PUSH2 0x142C JUMP JUMPDEST DUP1 PUSH1 0x1 DUP1 DUP1 PUSH2 0x3C9 PUSH2 0x1576 JUMP JUMPDEST DUP2 PUSH1 0x1 PUSH1 0x1 PUSH1 0xA0 SHL SUB MUL NOT AND SWAP1 DUP4 PUSH1 0x1 PUSH1 0x1 PUSH1 0xA0 SHL SUB AND MUL OR SWAP1 PUSH2 0x3EB PUSH2 0x15D1 JUMP JUMPDEST POP POP POP PUSH32 0x906A1C6BD7E3091EA86693DD029A831C19049CE77F1DCE2CE0BAB1CACBABCE22 DUP2 PUSH1 0x40 MLOAD PUSH1 0x1 PUSH1 0x1 PUSH1 0xA0 SHL SUB SWAP1 SWAP2 AND DUP2 MSTORE PUSH1 0x20 ADD PUSH1 0x40 MLOAD DUP1 SWAP2 SUB SWAP1 LOG1 POP JUMP JUMPDEST PUSH1 0x6 DUP2 DUP2 PUSH2 0x43A PUSH2 0x1576 JUMP JUMPDEST DUP2 LT PUSH2 0x442 JUMPI INVALID JUMPDEST SWAP1 PUSH1 0x0 MSTORE PUSH1 0x20 PUSH1 0x0 KECCAK256 PUSH1 0x2 SWAP1 SWAP2 MUL ADD SWAP1 POP PUSH1 0x0 DUP2 PUSH2 0x45E PUSH2 0x1576 JUMP JUMPDEST SWAP1 PUSH2 0x100 EXP SWAP1 DIV PUSH1 0x1 PUSH1 0x1 PUSH1 0xA0 SHL SUB AND SWAP1 DUP1 PUSH1 0x1 ADD PUSH2 0x47B PUSH2 0x1576 JUMP JUMPDEST SWAP1 POP DUP3 JUMP JUMPDEST PUSH1 0x0 PUSH1 0x1 PUSH2 0x48C PUSH2 0x1576 JUMP JUMPDEST SWAP1 PUSH2 0x100 EXP SWAP1 DIV PUSH1 0x1 PUSH1 0x1 PUSH1 0xA0 SHL SUB AND DUP2 JUMP JUMPDEST PUSH1 0x0 DUP1 DUP3 GT PUSH2 0x4F5 JUMPI PUSH1 0x40 MLOAD PUSH3 0x461BCD PUSH1 0xE5 SHL DUP2 MSTORE PUSH1 0x20 PUSH1 0x4 DUP3 ADD MSTORE PUSH1 0x15 PUSH1 0x24 DUP3 ADD MSTORE PUSH21 0x4E6F7468696E6720746F2064697374726962757465 PUSH1 0x58 SHL PUSH1 0x44 DUP3 ADD MSTORE PUSH1 0x64 ADD PUSH1 0x40 MLOAD DUP1 SWAP2 SUB SWAP1 PUSH2 0x4F2 PUSH2 0x150B JUMP JUMPDEST POP POP JUMPDEST PUSH1 0x0 PUSH1 0x2 PUSH2 0x501 PUSH2 0x1576 JUMP JUMPDEST SWAP1 PUSH2 0x100 EXP SWAP1 DIV PUSH1 0x1 PUSH1 0x1 PUSH1 0xA0 SHL SUB AND PUSH1 0x1 PUSH1 0x1 PUSH1 0xA0 SHL SUB AND GAS PUSH2 0x523 PUSH2 0x161F JUMP JUMPDEST PUSH1 0x1 PUSH1 0x1 PUSH1 0xA0 SHL SUB AND EQ PUSH2 0x586 JUMPI PUSH1 0x40 MLOAD PUSH3 0x461BCD PUSH1 0xE5 SHL DUP2 MSTORE PUSH1 0x20 PUSH1 0x4 DUP3 ADD MSTORE PUSH1 0x18 PUSH1 0x24 DUP3 ADD MSTORE PUSH32 0x43616C6C6572206973206E6F7420617574686F72697365640000000000000000 PUSH1 0x44 DUP3 ADD MSTORE PUSH1 0x64 ADD PUSH1 0x40 MLOAD DUP1 SWAP2 SUB SWAP1 PUSH2 0x583 PUSH2 0x150B JUMP JUMPDEST POP POP JUMPDEST PUSH1 0x0 DUP1 PUSH1 0x4 PUSH2 0x593 PUSH2 0x1576 JUMP JUMPDEST SWAP1 PUSH2 0x100 EXP SWAP1 DIV PUSH1 0x1 PUSH1 0x1 PUSH1 0xA0 SHL SUB AND PUSH1 0x1 PUSH1 0x1 PUSH1 0xA0 SHL SUB AND EQ ISZERO PUSH2 0x607 JUMPI PUSH1 0x40 MLOAD PUSH3 0x461BCD PUSH1 0xE5 SHL DUP2 MSTORE PUSH1 0x20 PUSH1 0x4 DUP3 ADD MSTORE PUSH1 0x17 PUSH1 0x24 DUP3 ADD MSTORE PUSH32 0x526577617264457363726F77206973206E6F7420736574000000000000000000 PUSH1 0x44 DUP3 ADD MSTORE PUSH1 0x64 ADD PUSH1 0x40 MLOAD DUP1 SWAP2 SUB SWAP1 PUSH2 0x604 PUSH2 0x150B JUMP JUMPDEST POP POP JUMPDEST PUSH1 0x0 DUP1 PUSH1 0x3 PUSH2 0x614 PUSH2 0x1576 JUMP JUMPDEST SWAP1 PUSH2 0x100 EXP SWAP1 DIV PUSH1 0x1 PUSH1 0x1 PUSH1 0xA0 SHL SUB AND PUSH1 0x1 PUSH1 0x1 PUSH1 0xA0 SHL SUB AND EQ ISZERO PUSH2 0x688 JUMPI PUSH1 0x40 MLOAD PUSH3 0x461BCD PUSH1 0xE5 SHL DUP2 MSTORE PUSH1 0x20 PUSH1 0x4 DUP3 ADD MSTORE PUSH1 0x19 PUSH1 0x24 DUP3 ADD MSTORE PUSH32 0x53796E74686574697850726F7879206973206E6F742073657400000000000000 PUSH1 0x44 DUP3 ADD MSTORE PUSH1 0x64 ADD PUSH1 0x40 MLOAD DUP1 SWAP2 SUB SWAP1 PUSH2 0x685 PUSH2 0x150B JUMP JUMPDEST POP POP JUMPDEST PUSH1 0x0 DUP1 PUSH1 0x5 PUSH2 0x695 PUSH2 0x1576 JUMP JUMPDEST SWAP1 PUSH2 0x100 EXP SWAP1 DIV PUSH1 0x1 PUSH1 0x1 PUSH1 0xA0 SHL SUB AND PUSH1 0x1 PUSH1 0x1 PUSH1 0xA0 SHL SUB AND EQ ISZERO PUSH2 0x709 JUMPI PUSH1 0x40 MLOAD PUSH3 0x461BCD PUSH1 0xE5 SHL DUP2 MSTORE PUSH1 0x20 PUSH1 0x4 DUP3 ADD MSTORE PUSH1 0x17 PUSH1 0x24 DUP3 ADD MSTORE PUSH32 0x466565506F6F6C50726F7879206973206E6F7420736574000000000000000000 PUSH1 0x44 DUP3 ADD MSTORE PUSH1 0x64 ADD PUSH1 0x40 MLOAD DUP1 SWAP2 SUB SWAP1 PUSH2 0x706 PUSH2 0x150B JUMP JUMPDEST POP POP JUMPDEST DUP2 PUSH1 0x0 PUSH1 0x3 PUSH2 0x716 PUSH2 0x1576 JUMP JUMPDEST SWAP1 PUSH2 0x100 EXP SWAP1 DIV PUSH1 0x1 PUSH1 0x1 PUSH1 0xA0 SHL SUB AND PUSH1 0x1 PUSH1 0x1 PUSH1 0xA0 SHL SUB AND PUSH4 0x70A08231 GAS PUSH4 0x996D79A5 MSIZE DUP2 PUSH1 0xE0 SHL DUP2 MSTORE PUSH1 0x20 DUP2 PUSH1 0x4 DUP4 CALLER PUSH1 0x0 SWAP1 GAS CALL PC PUSH1 0x1D ADD JUMPI RETURNDATASIZE PUSH1 0x1 EQ PC PUSH1 0xC ADD JUMPI RETURNDATASIZE PUSH1 0x0 DUP1 RETURNDATACOPY RETURNDATASIZE PUSH3 0x123456 MSTORE PUSH1 0xEA PUSH2 0x109C MSTORE DUP1 MLOAD SWAP3 POP PUSH1 0x0 JUMPDEST PUSH1 0x40 DUP2 LT ISZERO PUSH2 0x78A JUMPI PUSH1 0x0 DUP3 DUP3 ADD MSTORE PUSH1 0x20 ADD PUSH2 0x773 JUMP JUMPDEST POP POP POP PUSH1 0x40 MLOAD PUSH1 0x1 PUSH1 0x1 PUSH1 0xE0 SHL SUB NOT PUSH1 0xE0 DUP5 SWAP1 SHL AND DUP2 MSTORE PUSH1 0x1 PUSH1 0x1 PUSH1 0xA0 SHL SUB SWAP1 SWAP2 AND PUSH1 0x4 DUP3 ADD MSTORE PUSH1 0x24 ADD PUSH1 0x20 PUSH1 0x40 MLOAD DUP1 DUP4 SUB DUP2 DUP7 DUP1 PUSH2 0x7C7 PUSH2 0x1665 JUMP JUMPDEST ISZERO DUP1 ISZERO PUSH2 0x7DC JUMPI PUSH1 0x0 DUP1 PUSH2 0x7D9 PUSH2 0x150B JUMP JUMPDEST POP POP JUMPDEST POP GAS PUSH2 0x7E6 PUSH2 0x16B1 JUMP JUMPDEST POP POP POP POP POP ISZERO DUP1 ISZERO PUSH2 0x805 JUMPI RETURNDATASIZE PUSH1 0x0 DUP1 RETURNDATACOPY RETURNDATASIZE PUSH1 0x0 PUSH2 0x802 PUSH2 0x150B JUMP JUMPDEST POP POP JUMPDEST POP POP POP POP PUSH1 0x40 MLOAD RETURNDATASIZE PUSH1 0x20 DUP2 LT ISZERO PUSH2 0x824 JUMPI PUSH1 0x0 DUP1 PUSH2 0x821 PUSH2 0x150B JUMP JUMPDEST POP POP JUMPDEST DUP2 ADD SWAP1 DUP1 DUP1 MLOAD SWAP4 SWAP1 SWAP4 LT ISZERO SWAP3 POP PUSH2 0x878 SWAP2 POP POP JUMPI PUSH1 0x40 MLOAD PUSH3 0x461BCD PUSH1 0xE5 SHL DUP2 MSTORE PUSH1 0x4 ADD DUP1 DUP1 PUSH1 0x20 ADD DUP3 DUP2 SUB DUP3 MSTORE PUSH1 0x46 DUP2 MSTORE PUSH1 0x20 ADD DUP1 PUSH2 0x18F6 PUSH1 0x46 SWAP2 CODECOPY PUSH1 0x60 ADD SWAP2 POP POP PUSH1 0x40 MLOAD DUP1 SWAP2 SUB SWAP1 PUSH2 0x875 PUSH2 0x150B JUMP JUMPDEST POP POP JUMPDEST DUP2 PUSH1 0x0 JUMPDEST PUSH1 0x6 DUP1 PUSH2 0x887 PUSH2 0x1576 JUMP JUMPDEST SWAP1 POP DUP2 LT ISZERO PUSH2 0xBF8 JUMPI PUSH1 0x0 PUSH1 0x6 DUP3 DUP2 PUSH2 0x89E PUSH2 0x1576 JUMP JUMPDEST DUP2 LT PUSH2 0x8A6 JUMPI INVALID JUMPDEST SWAP1 PUSH1 0x0 MSTORE PUSH1 0x20 PUSH1 0x0 KECCAK256 PUSH1 0x0 SWAP2 PUSH1 0x2 MUL ADD PUSH2 0x8BE PUSH2 0x1576 JUMP JUMPDEST SWAP1 PUSH2 0x100 EXP SWAP1 DIV PUSH1 0x1 PUSH1 0x1 PUSH1 0xA0 SHL SUB AND PUSH1 0x1 PUSH1 0x1 PUSH1 0xA0 SHL SUB AND EQ ISZERO DUP1 PUSH2 0x90F JUMPI POP PUSH1 0x6 DUP2 DUP2 PUSH2 0x8EB PUSH2 0x1576 JUMP JUMPDEST DUP2 LT PUSH2 0x8F3 JUMPI INVALID JUMPDEST SWAP1 PUSH1 0x0 MSTORE PUSH1 0x20 PUSH1 0x0 KECCAK256 SWAP1 PUSH1 0x2 MUL ADD PUSH1 0x1 ADD PUSH2 0x90C PUSH2 0x1576 JUMP JUMPDEST ISZERO ISZERO JUMPDEST ISZERO PUSH2 0xBF0 JUMPI PUSH2 0x951 PUSH1 0x6 DUP3 DUP2 PUSH2 0x923 PUSH2 0x1576 JUMP JUMPDEST DUP2 LT PUSH2 0x92B JUMPI INVALID JUMPDEST SWAP1 PUSH1 0x0 MSTORE PUSH1 0x20 PUSH1 0x0 KECCAK256 SWAP1 PUSH1 0x2 MUL ADD PUSH1 0x1 ADD PUSH2 0x944 PUSH2 0x1576 JUMP JUMPDEST DUP4 SWAP1 PUSH4 0xFFFFFFFF PUSH2 0x14A6 AND JUMP JUMPDEST SWAP2 POP PUSH1 0x0 PUSH1 0x3 PUSH2 0x95F PUSH2 0x1576 JUMP JUMPDEST SWAP1 PUSH2 0x100 EXP SWAP1 DIV PUSH1 0x1 PUSH1 0x1 PUSH1 0xA0 SHL SUB AND PUSH1 0x1 PUSH1 0x1 PUSH1 0xA0 SHL SUB AND PUSH4 0xA9059CBB PUSH1 0x6 DUP4 DUP2 PUSH2 0x989 PUSH2 0x1576 JUMP JUMPDEST DUP2 LT PUSH2 0x991 JUMPI INVALID JUMPDEST SWAP1 PUSH1 0x0 MSTORE PUSH1 0x20 PUSH1 0x0 KECCAK256 PUSH1 0x0 SWAP2 PUSH1 0x2 MUL ADD PUSH2 0x9A9 PUSH2 0x1576 JUMP JUMPDEST SWAP1 PUSH2 0x100 EXP SWAP1 DIV PUSH1 0x1 PUSH1 0x1 PUSH1 0xA0 SHL SUB AND PUSH1 0x6 DUP5 DUP2 PUSH2 0x9C5 PUSH2 0x1576 JUMP JUMPDEST DUP2 LT PUSH2 0x9CD JUMPI INVALID JUMPDEST SWAP1 PUSH1 0x0 MSTORE PUSH1 0x20 PUSH1 0x0 KECCAK256 SWAP1 PUSH1 0x2 MUL ADD PUSH1 0x1 ADD PUSH2 0x9E6 PUSH2 0x1576 JUMP JUMPDEST PUSH1 0x40 MLOAD PUSH1 0x1 PUSH1 0x1 PUSH1 0xE0 SHL SUB NOT PUSH1 0xE0 DUP6 SWAP1 SHL AND DUP2 MSTORE PUSH1 0x1 PUSH1 0x1 PUSH1 0xA0 SHL SUB SWAP1 SWAP3 AND PUSH1 0x4 DUP4 ADD MSTORE PUSH1 0x24 DUP3 ADD MSTORE PUSH1 0x44 ADD PUSH1 0x20 PUSH1 0x40 MLOAD DUP1 DUP4 SUB DUP2 PUSH1 0x0 DUP8 DUP1 PUSH2 0xA27 PUSH2 0x1665 JUMP JUMPDEST ISZERO DUP1 ISZERO PUSH2 0xA3C JUMPI PUSH1 0x0 DUP1 PUSH2 0xA39 PUSH2 0x150B JUMP JUMPDEST POP POP JUMPDEST POP GAS PUSH2 0xA46 PUSH2 0x176A JUMP JUMPDEST POP POP POP POP POP POP ISZERO DUP1 ISZERO PUSH2 0xA66 JUMPI RETURNDATASIZE PUSH1 0x0 DUP1 RETURNDATACOPY RETURNDATASIZE PUSH1 0x0 PUSH2 0xA63 PUSH2 0x150B JUMP JUMPDEST POP POP JUMPDEST POP POP POP POP PUSH1 0x40 MLOAD RETURNDATASIZE PUSH1 0x20 DUP2 LT ISZERO PUSH2 0xA85 JUMPI PUSH1 0x0 DUP1 PUSH2 0xA82 PUSH2 0x150B JUMP JUMPDEST POP POP JUMPDEST DUP2 ADD SWAP1 DUP1 DUP1 MLOAD POP PUSH1 0x60 SWAP3 POP PUSH1 0x6 SWAP2 POP DUP4 SWAP1 POP DUP2 PUSH2 0xAA0 PUSH2 0x1576 JUMP JUMPDEST DUP2 LT PUSH2 0xAA8 JUMPI INVALID JUMPDEST SWAP1 PUSH1 0x0 MSTORE PUSH1 0x20 PUSH1 0x0 KECCAK256 SWAP1 PUSH1 0x2 MUL ADD PUSH1 0x1 ADD PUSH2 0xAC1 PUSH2 0x1576 JUMP JUMPDEST PUSH1 0x40 MLOAD PUSH1 0x24 DUP2 ADD SWAP2 SWAP1 SWAP2 MSTORE PUSH1 0x44 ADD PUSH1 0x40 MLOAD PUSH1 0x1F NOT DUP2 DUP4 SUB ADD DUP2 MSTORE PUSH1 0x40 SWAP2 SWAP1 SWAP2 MSTORE PUSH4 0x3C6B16AB PUSH1 0xE0 SHL PUSH1 0x20 DUP3 ADD DUP1 MLOAD PUSH1 0x1 PUSH1 0x1 PUSH1 0xE0 SHL SUB AND SWAP1 SWAP2 OR SWAP1 MSTORE SWAP1 POP PUSH1 0x0 PUSH1 0x6 DUP4 DUP2 PUSH2 0xB0D PUSH2 0x1576 JUMP JUMPDEST DUP2 LT PUSH2 0xB15 JUMPI INVALID JUMPDEST SWAP1 PUSH1 0x0 MSTORE PUSH1 0x20 PUSH1 0x0 KECCAK256 PUSH1 0x0 SWAP2 PUSH1 0x2 MUL ADD PUSH2 0xB2D PUSH2 0x1576 JUMP JUMPDEST SWAP1 PUSH2 0x100 EXP SWAP1 DIV PUSH1 0x1 PUSH1 0x1 PUSH1 0xA0 SHL SUB AND PUSH1 0x1 PUSH1 0x1 PUSH1 0xA0 SHL SUB AND DUP3 PUSH1 0x40 MLOAD DUP1 DUP3 DUP1 MLOAD SWAP1 PUSH1 0x20 ADD SWAP1 DUP1 DUP4 DUP4 JUMPDEST PUSH1 0x20 DUP4 LT PUSH2 0xB76 JUMPI DUP1 MLOAD DUP3 MSTORE PUSH1 0x1F NOT SWAP1 SWAP3 ADD SWAP2 PUSH1 0x20 SWAP2 DUP3 ADD SWAP2 ADD PUSH2 0xB57 JUMP JUMPDEST PUSH1 0x1 DUP4 PUSH1 0x20 SUB PUSH2 0x100 EXP SUB DUP1 NOT DUP3 MLOAD AND DUP2 DUP5 MLOAD AND DUP1 DUP3 OR DUP6 MSTORE POP POP POP POP POP POP SWAP1 POP ADD SWAP2 POP POP PUSH1 0x0 PUSH1 0x40 MLOAD DUP1 DUP4 SUB DUP2 PUSH1 0x0 DUP7 GAS PUSH2 0xBB0 PUSH2 0x176A JUMP JUMPDEST POP POP POP POP POP POP SWAP2 POP POP RETURNDATASIZE DUP1 PUSH1 0x0 DUP2 EQ PUSH2 0xBE5 JUMPI PUSH1 0x40 MLOAD RETURNDATASIZE PUSH1 0x3F ADD PUSH1 0x1F NOT AND DUP2 ADD PUSH1 0x40 MSTORE RETURNDATASIZE DUP2 MSTORE SWAP2 POP RETURNDATASIZE PUSH1 0x0 PUSH1 0x20 DUP5 ADD RETURNDATACOPY PUSH2 0xBEA JUMP JUMPDEST PUSH1 0x60 SWAP2 POP JUMPDEST POP POP POP POP POP JUMPDEST PUSH1 0x1 ADD PUSH2 0x87C JUMP JUMPDEST POP PUSH1 0x0 PUSH1 0x3 PUSH2 0xC05 PUSH2 0x1576 JUMP JUMPDEST PUSH1 0x1 PUSH1 0x1 PUSH1 0xA0 SHL SUB PUSH2 0x100 SWAP3 SWAP1 SWAP3 EXP SWAP1 DIV AND PUSH4 0xA9059CBB PUSH1 0x0 PUSH1 0x4 PUSH2 0xC28 PUSH2 0x1576 JUMP JUMPDEST SWAP1 PUSH2 0x100 EXP SWAP1 DIV PUSH1 0x1 PUSH1 0x1 PUSH1 0xA0 SHL SUB AND DUP4 PUSH1 0x40 MLOAD PUSH1 0x1 PUSH1 0x1 PUSH1 0xE0 SHL SUB NOT PUSH1 0xE0 DUP6 SWAP1 SHL AND DUP2 MSTORE PUSH1 0x1 PUSH1 0x1 PUSH1 0xA0 SHL SUB SWAP1 SWAP3 AND PUSH1 0x4 DUP4 ADD MSTORE PUSH1 0x24 DUP3 ADD MSTORE PUSH1 0x44 ADD PUSH1 0x20 PUSH1 0x40 MLOAD DUP1 DUP4 SUB DUP2 PUSH1 0x0 DUP8 DUP1 PUSH2 0xC7A PUSH2 0x1665 JUMP JUMPDEST ISZERO DUP1 ISZERO PUSH2 0xC8F JUMPI PUSH1 0x0 DUP1 PUSH2 0xC8C PUSH2 0x150B JUMP JUMPDEST POP POP JUMPDEST POP GAS PUSH2 0xC99 PUSH2 0x176A JUMP JUMPDEST POP POP POP POP POP POP ISZERO DUP1 ISZERO PUSH2 0xCB9 JUMPI RETURNDATASIZE PUSH1 0x0 DUP1 RETURNDATACOPY RETURNDATASIZE PUSH1 0x0 PUSH2 0xCB6 PUSH2 0x150B JUMP JUMPDEST POP POP JUMPDEST POP POP POP POP PUSH1 0x40 MLOAD RETURNDATASIZE PUSH1 0x20 DUP2 LT ISZERO PUSH2 0xCD8 JUMPI PUSH1 0x0 DUP1 PUSH2 0xCD5 PUSH2 0x150B JUMP JUMPDEST POP POP JUMPDEST DUP2 ADD SWAP1 DUP1 DUP1 MLOAD POP PUSH1 0x0 SWAP3 POP PUSH1 0x5 SWAP2 POP PUSH2 0xCF1 SWAP1 POP PUSH2 0x1576 JUMP JUMPDEST SWAP1 PUSH2 0x100 EXP SWAP1 DIV PUSH1 0x1 PUSH1 0x1 PUSH1 0xA0 SHL SUB AND PUSH1 0x1 PUSH1 0x1 PUSH1 0xA0 SHL SUB AND PUSH4 0xFD1F498D DUP3 PUSH1 0x40 MLOAD PUSH1 0x1 PUSH1 0x1 PUSH1 0xE0 SHL SUB NOT PUSH1 0xE0 DUP5 SWAP1 SHL AND DUP2 MSTORE PUSH1 0x4 DUP2 ADD SWAP2 SWAP1 SWAP2 MSTORE PUSH1 0x24 ADD PUSH1 0x0 PUSH1 0x40 MLOAD DUP1 DUP4 SUB DUP2 PUSH1 0x0 DUP8 DUP1 PUSH2 0xD44 PUSH2 0x1665 JUMP JUMPDEST ISZERO DUP1 ISZERO PUSH2 0xD59 JUMPI PUSH1 0x0 DUP1 PUSH2 0xD56 PUSH2 0x150B JUMP JUMPDEST POP POP JUMPDEST POP GAS PUSH2 0xD63 PUSH2 0x176A JUMP JUMPDEST POP POP POP POP POP POP ISZERO DUP1 ISZERO PUSH2 0xD83 JUMPI RETURNDATASIZE PUSH1 0x0 DUP1 RETURNDATACOPY RETURNDATASIZE PUSH1 0x0 PUSH2 0xD80 PUSH2 0x150B JUMP JUMPDEST POP POP JUMPDEST POP POP POP POP PUSH32 0x6D1C76D614228B523BAA4DCD9539E2C713B54FF4AB3FF2D1627E7F6CD32BE442 DUP4 PUSH1 0x40 MLOAD SWAP1 DUP2 MSTORE PUSH1 0x20 ADD PUSH1 0x40 MLOAD DUP1 SWAP2 SUB SWAP1 LOG1 POP PUSH1 0x1 SWAP3 SWAP2 POP POP JUMP JUMPDEST PUSH2 0xDCB PUSH2 0x142C JUMP JUMPDEST DUP1 PUSH1 0x4 PUSH1 0x1 DUP2 PUSH2 0xDD9 PUSH2 0x1576 JUMP JUMPDEST DUP2 PUSH1 0x1 PUSH1 0x1 PUSH1 0xA0 SHL SUB MUL NOT AND SWAP1 DUP4 PUSH1 0x1 PUSH1 0x1 PUSH1 0xA0 SHL SUB AND MUL OR SWAP1 PUSH2 0xDFB PUSH2 0x15D1 JUMP JUMPDEST POP POP POP POP JUMP JUMPDEST PUSH1 0x0 PUSH2 0xE0B PUSH2 0x142C JUMP JUMPDEST PUSH1 0x1 PUSH1 0x1 PUSH1 0xA0 SHL SUB DUP4 AND PUSH2 0xE6E JUMPI PUSH1 0x40 MLOAD PUSH3 0x461BCD PUSH1 0xE5 SHL DUP2 MSTORE PUSH1 0x20 PUSH1 0x4 DUP3 ADD MSTORE PUSH1 0x17 PUSH1 0x24 DUP3 ADD MSTORE PUSH32 0x43616E74206164642061207A65726F2061646472657373000000000000000000 PUSH1 0x44 DUP3 ADD MSTORE PUSH1 0x64 ADD PUSH1 0x40 MLOAD DUP1 SWAP2 SUB SWAP1 PUSH2 0xE6B PUSH2 0x150B JUMP JUMPDEST POP POP JUMPDEST DUP2 PUSH2 0xEC1 JUMPI PUSH1 0x40 MLOAD PUSH3 0x461BCD PUSH1 0xE5 SHL DUP2 MSTORE PUSH1 0x20 PUSH1 0x4 DUP3 ADD MSTORE PUSH1 0x16 PUSH1 0x24 DUP3 ADD MSTORE PUSH22 0x10D85B9D081859190818481E995C9BC8185B5BDD5B9D PUSH1 0x52 SHL PUSH1 0x44 DUP3 ADD MSTORE PUSH1 0x64 ADD PUSH1 0x40 MLOAD DUP1 SWAP2 SUB SWAP1 PUSH2 0xEBE PUSH2 0x150B JUMP JUMPDEST POP POP JUMPDEST PUSH2 0xEC9 PUSH2 0x1823 JUMP JUMPDEST PUSH1 0x40 MLOAD PUSH1 0x40 DUP1 DUP3 ADD SWAP1 MSTORE PUSH1 0x1 PUSH1 0x1 PUSH1 0xA0 SHL SUB DUP6 AND DUP2 MSTORE PUSH1 0x20 DUP2 ADD DUP5 SWAP1 MSTORE SWAP1 POP DUP1 PUSH1 0x6 DUP1 PUSH1 0x1 DUP2 PUSH2 0xEF7 PUSH2 0x1576 JUMP JUMPDEST ADD DUP1 DUP3 PUSH2 0xF02 PUSH2 0x15D1 JUMP JUMPDEST POP POP PUSH1 0x0 SWAP3 DUP4 MSTORE SWAP2 PUSH1 0x0 NOT DUP4 ADD SWAP2 POP PUSH1 0x20 SWAP1 KECCAK256 SWAP2 SWAP3 SWAP2 PUSH1 0x2 SWAP1 SWAP2 MUL ADD DUP2 MLOAD DUP2 PUSH1 0x1 DUP2 PUSH2 0xF2C PUSH2 0x1576 JUMP JUMPDEST DUP2 PUSH1 0x1 PUSH1 0x1 PUSH1 0xA0 SHL SUB MUL NOT AND SWAP1 DUP4 PUSH1 0x1 PUSH1 0x1 PUSH1 0xA0 SHL SUB AND MUL OR SWAP1 PUSH2 0xF4E PUSH2 0x15D1 JUMP JUMPDEST POP POP POP PUSH1 0x20 DUP3 ADD MLOAD DUP2 PUSH1 0x1 ADD PUSH2 0xF62 PUSH2 0x15D1 JUMP JUMPDEST POP POP POP POP POP PUSH32 0x8FFF3CB767A84A8039EA0F84053799C5CDCA0E8EFB031EEB6B05B9C174AA208 PUSH1 0x1 PUSH1 0x6 DUP1 PUSH2 0xF95 PUSH2 0x1576 JUMP JUMPDEST SWAP1 POP SUB DUP6 DUP6 PUSH1 0x40 MLOAD SWAP3 DUP4 MSTORE PUSH1 0x1 PUSH1 0x1 PUSH1 0xA0 SHL SUB SWAP1 SWAP2 AND PUSH1 0x20 DUP4 ADD MSTORE PUSH1 0x40 DUP1 DUP4 ADD SWAP2 SWAP1 SWAP2 MSTORE PUSH1 0x60 SWAP1 SWAP2 ADD SWAP1 MLOAD DUP1 SWAP2 SUB SWAP1 LOG1 POP PUSH1 0x1 SWAP4 SWAP3 POP POP POP JUMP JUMPDEST PUSH1 0x0 PUSH1 0x1 PUSH2 0xFDB PUSH2 0x1576 JUMP JUMPDEST SWAP1 PUSH2 0x100 EXP SWAP1 DIV PUSH1 0x1 PUSH1 0x1 PUSH1 0xA0 SHL SUB AND PUSH1 0x1 PUSH1 0x1 PUSH1 0xA0 SHL SUB AND GAS PUSH2 0xFFD PUSH2 0x161F JUMP JUMPDEST PUSH1 0x1 PUSH1 0x1 PUSH1 0xA0 SHL SUB AND EQ PUSH2 0x104B JUMPI PUSH1 0x40 MLOAD PUSH3 0x461BCD PUSH1 0xE5 SHL DUP2 MSTORE PUSH1 0x4 ADD DUP1 DUP1 PUSH1 0x20 ADD DUP3 DUP2 SUB DUP3 MSTORE PUSH1 0x35 DUP2 MSTORE PUSH1 0x20 ADD DUP1 PUSH2 0x18C1 PUSH1 0x35 SWAP2 CODECOPY PUSH1 0x40 ADD SWAP2 POP POP PUSH1 0x40 MLOAD DUP1 SWAP2 SUB SWAP1 PUSH2 0x1048 PUSH2 0x150B JUMP JUMPDEST POP POP JUMPDEST PUSH32 0xB532073B38C83145E3E5135377A08BF9AAB55BC0FD7C1179CD4FB995D2A5159C PUSH1 0x0 DUP1 PUSH2 0x1077 PUSH2 0x1576 JUMP JUMPDEST SWAP1 PUSH2 0x100 EXP SWAP1 DIV PUSH1 0x1 PUSH1 0x1 PUSH1 0xA0 SHL SUB AND PUSH1 0x1 PUSH1 0x0 SWAP1 PUSH2 0x1094 PUSH2 0x1576 JUMP JUMPDEST SWAP1 PUSH2 0x100 EXP SWAP1 DIV PUSH1 0x1 PUSH1 0x1 PUSH1 0xA0 SHL SUB AND PUSH1 0x40 MLOAD PUSH1 0x1 PUSH1 0x1 PUSH1 0xA0 SHL SUB SWAP3 DUP4 AND DUP2 MSTORE SWAP2 AND PUSH1 0x20 DUP3 ADD MSTORE PUSH1 0x40 SWAP1 DUP2 ADD SWAP1 MLOAD DUP1 SWAP2 SUB SWAP1 LOG1 PUSH1 0x0 PUSH1 0x1 PUSH2 0x10D3 PUSH2 0x1576 JUMP JUMPDEST SWAP1 PUSH2 0x100 EXP SWAP1 DIV PUSH1 0x1 PUSH1 0x1 PUSH1 0xA0 SHL SUB AND PUSH1 0x0 DUP1 PUSH2 0x100 EXP DUP2 PUSH2 0x10F3 PUSH2 0x1576 JUMP JUMPDEST DUP2 PUSH1 0x1 PUSH1 0x1 PUSH1 0xA0 SHL SUB MUL NOT AND SWAP1 DUP4 PUSH1 0x1 PUSH1 0x1 PUSH1 0xA0 SHL SUB AND MUL OR SWAP1 PUSH2 0x1115 PUSH2 0x15D1 JUMP JUMPDEST POP POP POP PUSH1 0x0 PUSH1 0x1 PUSH1 0x0 PUSH2 0x100 EXP DUP2 PUSH2 0x112B PUSH2 0x1576 JUMP JUMPDEST DUP2 PUSH1 0x1 PUSH1 0x1 PUSH1 0xA0 SHL SUB MUL NOT AND SWAP1 DUP4 PUSH1 0x1 PUSH1 0x1 PUSH1 0xA0 SHL SUB AND MUL OR SWAP1 PUSH2 0x114D PUSH2 0x15D1 JUMP JUMPDEST POP POP POP JUMP JUMPDEST PUSH2 0x115A PUSH2 0x142C JUMP JUMPDEST DUP1 PUSH1 0x2 PUSH1 0x1 DUP2 PUSH2 0xDD9 PUSH2 0x1576 JUMP JUMPDEST PUSH2 0x1170 PUSH2 0x142C JUMP JUMPDEST PUSH1 0x1 PUSH1 0x6 DUP1 PUSH2 0x117D PUSH2 0x1576 JUMP JUMPDEST SWAP1 POP SUB DUP2 GT ISZERO PUSH2 0x11D2 JUMPI PUSH1 0x40 MLOAD PUSH3 0x461BCD PUSH1 0xE5 SHL DUP2 MSTORE PUSH1 0x20 PUSH1 0x4 DUP3 ADD MSTORE PUSH1 0x13 PUSH1 0x24 DUP3 ADD MSTORE PUSH19 0x696E646578206F7574206F6620626F756E6473 PUSH1 0x68 SHL PUSH1 0x44 DUP3 ADD MSTORE PUSH1 0x64 ADD PUSH1 0x40 MLOAD DUP1 SWAP2 SUB SWAP1 PUSH2 0x11CF PUSH2 0x150B JUMP JUMPDEST POP POP JUMPDEST DUP1 JUMPDEST PUSH1 0x1 PUSH1 0x6 DUP1 PUSH2 0x11E1 PUSH2 0x1576 JUMP JUMPDEST SWAP1 POP SUB DUP2 LT ISZERO PUSH2 0x12A9 JUMPI PUSH1 0x6 DUP2 PUSH1 0x1 ADD DUP2 PUSH2 0x11FA PUSH2 0x1576 JUMP JUMPDEST DUP2 LT PUSH2 0x1202 JUMPI INVALID JUMPDEST SWAP1 PUSH1 0x0 MSTORE PUSH1 0x20 PUSH1 0x0 KECCAK256 SWAP1 PUSH1 0x2 MUL ADD PUSH1 0x6 DUP3 DUP2 PUSH2 0x121C PUSH2 0x1576 JUMP JUMPDEST DUP2 LT PUSH2 0x1224 JUMPI INVALID JUMPDEST SWAP1 PUSH1 0x0 MSTORE PUSH1 0x20 PUSH1 0x0 KECCAK256 PUSH1 0x2 SWAP1 SWAP2 MUL ADD PUSH1 0x0 DUP3 PUSH2 0x123E PUSH2 0x1576 JUMP JUMPDEST PUSH1 0x1 PUSH1 0x1 PUSH1 0xA0 SHL SUB PUSH2 0x100 SWAP3 SWAP1 SWAP3 EXP SWAP1 DIV AND DUP2 PUSH1 0x1 DUP2 PUSH2 0x125C PUSH2 0x1576 JUMP JUMPDEST DUP2 PUSH1 0x1 PUSH1 0x1 PUSH1 0xA0 SHL SUB MUL NOT AND SWAP1 DUP4 PUSH1 0x1 PUSH1 0x1 PUSH1 0xA0 SHL SUB AND MUL OR SWAP1 PUSH2 0x127E PUSH2 0x15D1 JUMP JUMPDEST POP POP POP PUSH1 0x1 DUP3 ADD PUSH2 0x128D PUSH2 0x1576 JUMP JUMPDEST DUP2 PUSH1 0x1 ADD PUSH2 0x1299 PUSH2 0x15D1 JUMP JUMPDEST POP POP PUSH1 0x1 SWAP1 SWAP3 ADD SWAP2 POP PUSH2 0x11D4 SWAP1 POP JUMP JUMPDEST POP PUSH1 0x6 DUP1 PUSH2 0x12B5 PUSH2 0x1576 JUMP JUMPDEST SWAP1 PUSH2 0x12C4 SWAP1 PUSH1 0x0 NOT DUP4 ADD PUSH2 0x183A JUMP JUMPDEST POP POP JUMP JUMPDEST PUSH1 0x0 DUP1 PUSH2 0x48C PUSH2 0x1576 JUMP JUMPDEST PUSH2 0x12DB PUSH2 0x142C JUMP JUMPDEST DUP1 PUSH1 0x3 PUSH1 0x1 DUP2 PUSH2 0xDD9 PUSH2 0x1576 JUMP JUMPDEST PUSH1 0x0 PUSH1 0x4 PUSH2 0x48C PUSH2 0x1576 JUMP JUMPDEST PUSH1 0x0 PUSH1 0x3 PUSH2 0x48C PUSH2 0x1576 JUMP JUMPDEST PUSH1 0x0 PUSH1 0x2 PUSH2 0x48C PUSH2 0x1576 JUMP JUMPDEST PUSH1 0x0 PUSH1 0x5 PUSH2 0x48C PUSH2 0x1576 JUMP JUMPDEST PUSH2 0x1321 PUSH2 0x142C JUMP JUMPDEST DUP1 PUSH1 0x5 PUSH1 0x1 DUP2 PUSH2 0xDD9 PUSH2 0x1576 JUMP JUMPDEST PUSH1 0x0 PUSH2 0x1339 PUSH2 0x142C JUMP JUMPDEST PUSH1 0x1 PUSH1 0x6 DUP1 PUSH2 0x1346 PUSH2 0x1576 JUMP JUMPDEST SWAP1 POP SUB DUP5 GT ISZERO PUSH2 0x139B JUMPI PUSH1 0x40 MLOAD PUSH3 0x461BCD PUSH1 0xE5 SHL DUP2 MSTORE PUSH1 0x20 PUSH1 0x4 DUP3 ADD MSTORE PUSH1 0x13 PUSH1 0x24 DUP3 ADD MSTORE PUSH19 0x696E646578206F7574206F6620626F756E6473 PUSH1 0x68 SHL PUSH1 0x44 DUP3 ADD MSTORE PUSH1 0x64 ADD PUSH1 0x40 MLOAD DUP1 SWAP2 SUB SWAP1 PUSH2 0x1398 PUSH2 0x150B JUMP JUMPDEST POP POP JUMPDEST DUP3 PUSH1 0x6 DUP6 DUP2 PUSH2 0x13A8 PUSH2 0x1576 JUMP JUMPDEST DUP2 LT PUSH2 0x13B0 JUMPI INVALID JUMPDEST SWAP1 PUSH1 0x0 MSTORE PUSH1 0x20 PUSH1 0x0 KECCAK256 PUSH1 0x2 SWAP1 SWAP2 MUL ADD PUSH1 0x1 DUP2 PUSH2 0x13CA PUSH2 0x1576 JUMP JUMPDEST DUP2 PUSH1 0x1 PUSH1 0x1 PUSH1 0xA0 SHL SUB MUL NOT AND SWAP1 DUP4 PUSH1 0x1 PUSH1 0x1 PUSH1 0xA0 SHL SUB AND MUL OR SWAP1 PUSH2 0x13EC PUSH2 0x15D1 JUMP JUMPDEST POP POP POP DUP2 PUSH1 0x6 DUP6 DUP2 PUSH2 0x13FC PUSH2 0x1576 JUMP JUMPDEST DUP2 LT PUSH2 0x1404 JUMPI INVALID JUMPDEST SWAP1 PUSH1 0x0 MSTORE PUSH1 0x20 PUSH1 0x0 KECCAK256 SWAP1 PUSH1 0x2 MUL ADD PUSH1 0x1 ADD DUP2 SWAP1 PUSH2 0x141F PUSH2 0x15D1 JUMP JUMPDEST POP PUSH1 0x1 SWAP7 SWAP6 POP POP POP POP POP POP JUMP JUMPDEST PUSH1 0x0 DUP1 PUSH2 0x1437 PUSH2 0x1576 JUMP JUMPDEST SWAP1 PUSH2 0x100 EXP SWAP1 DIV PUSH1 0x1 PUSH1 0x1 PUSH1 0xA0 SHL SUB AND PUSH1 0x1 PUSH1 0x1 PUSH1 0xA0 SHL SUB AND GAS PUSH2 0x1459 PUSH2 0x161F JUMP JUMPDEST PUSH1 0x1 PUSH1 0x1 PUSH1 0xA0 SHL SUB AND EQ PUSH2 0x14A4 JUMPI PUSH1 0x40 MLOAD PUSH3 0x461BCD PUSH1 0xE5 SHL DUP2 MSTORE PUSH1 0x4 ADD DUP1 DUP1 PUSH1 0x20 ADD DUP3 DUP2 SUB DUP3 MSTORE PUSH1 0x2F DUP2 MSTORE PUSH1 0x20 ADD DUP1 PUSH2 0x193C PUSH1 0x2F SWAP2 CODECOPY PUSH1 0x40 ADD SWAP2 POP POP PUSH1 0x40 MLOAD DUP1 SWAP2 SUB SWAP1 PUSH2 0x12C4 PUSH2 0x150B JUMP JUMPDEST JUMP JUMPDEST PUSH1 0x0 DUP3 DUP3 GT ISZERO PUSH2 0x1505 JUMPI PUSH1 0x40 MLOAD PUSH3 0x461BCD PUSH1 0xE5 SHL DUP2 MSTORE PUSH1 0x20 PUSH1 0x4 DUP3 ADD MSTORE PUSH1 0x1E PUSH1 0x24 DUP3 ADD MSTORE PUSH32 0x536166654D6174683A207375627472616374696F6E206F766572666C6F770000 PUSH1 0x44 DUP3 ADD MSTORE PUSH1 0x64 ADD PUSH1 0x40 MLOAD DUP1 SWAP2 SUB SWAP1 PUSH2 0x1502 PUSH2 0x150B JUMP JUMPDEST POP POP JUMPDEST POP SWAP1 SUB SWAP1 JUMP JUMPDEST PUSH4 0x2A2A7ADB MSIZE DUP2 PUSH1 0xE0 SHL DUP2 MSTORE PUSH1 0x4 DUP2 ADD PUSH1 0x20 DUP2 MSTORE DUP6 PUSH1 0x20 DUP3 ADD MSTORE PUSH1 0x0 JUMPDEST DUP7 DUP2 LT ISZERO PUSH2 0x1543 JUMPI DUP1 DUP7 ADD MLOAD DUP3 DUP3 ADD PUSH1 0x40 ADD MSTORE PUSH1 0x20 ADD PUSH2 0x1528 JUMP JUMPDEST POP PUSH1 0x20 DUP3 DUP8 PUSH1 0x64 ADD DUP5 CALLER PUSH1 0x0 SWAP1 GAS CALL PC PUSH1 0x1D ADD JUMPI RETURNDATASIZE PUSH1 0x1 EQ PC PUSH1 0xC ADD JUMPI RETURNDATASIZE PUSH1 0x0 DUP1 RETURNDATACOPY RETURNDATASIZE PUSH3 0x123456 MSTORE PUSH1 0xEA PUSH2 0x109C MSTORE POP POP POP JUMP JUMPDEST PUSH4 0x3DAA959 MSIZE DUP2 PUSH1 0xE0 SHL DUP2 MSTORE DUP4 PUSH1 0x4 DUP3 ADD MSTORE PUSH1 0x20 DUP2 PUSH1 0x24 DUP4 CALLER PUSH1 0x0 SWAP1 GAS CALL PC PUSH1 0x1D ADD JUMPI RETURNDATASIZE PUSH1 0x1 EQ PC PUSH1 0xC ADD JUMPI RETURNDATASIZE PUSH1 0x0 DUP1 RETURNDATACOPY RETURNDATASIZE PUSH3 0x123456 MSTORE PUSH1 0xEA PUSH2 0x109C MSTORE DUP1 MLOAD SWAP4 POP PUSH1 0x0 JUMPDEST PUSH1 0x40 DUP2 LT ISZERO PUSH2 0x114D JUMPI PUSH1 0x0 DUP3 DUP3 ADD MSTORE PUSH1 0x20 ADD PUSH2 0x15BA JUMP JUMPDEST PUSH4 0x22BD64C0 MSIZE DUP2 PUSH1 0xE0 SHL DUP2 MSTORE DUP4 PUSH1 0x4 DUP3 ADD MSTORE DUP5 PUSH1 0x24 DUP3 ADD MSTORE PUSH1 0x0 DUP2 PUSH1 0x44 DUP4 CALLER PUSH1 0x0 SWAP1 GAS CALL PC PUSH1 0x1D ADD JUMPI RETURNDATASIZE PUSH1 0x1 EQ PC PUSH1 0xC ADD JUMPI RETURNDATASIZE PUSH1 0x0 DUP1 RETURNDATACOPY RETURNDATASIZE PUSH3 0x123456 MSTORE PUSH1 0xEA PUSH2 0x109C MSTORE PUSH1 0x0 DUP2 MSTORE PUSH1 0x20 PUSH2 0x15BA JUMP JUMPDEST PUSH4 0x73509064 MSIZE DUP2 PUSH1 0xE0 SHL DUP2 MSTORE PUSH1 0x20 DUP2 PUSH1 0x4 DUP4 CALLER PUSH1 0x0 SWAP1 GAS CALL PC PUSH1 0x1D ADD JUMPI RETURNDATASIZE PUSH1 0x1 EQ PC PUSH1 0xC ADD JUMPI RETURNDATASIZE PUSH1 0x0 DUP1 RETURNDATACOPY RETURNDATASIZE PUSH3 0x123456 MSTORE PUSH1 0xEA PUSH2 0x109C MSTORE DUP1 MLOAD PUSH1 0x0 DUP3 MSTORE SWAP4 POP PUSH1 0x20 PUSH2 0x15BA JUMP JUMPDEST PUSH4 0x8435035B MSIZE DUP2 PUSH1 0xE0 SHL DUP2 MSTORE DUP4 PUSH1 0x4 DUP3 ADD MSTORE PUSH1 0x20 DUP2 PUSH1 0x24 DUP4 CALLER PUSH1 0x0 SWAP1 GAS CALL PC PUSH1 0x1D ADD JUMPI RETURNDATASIZE PUSH1 0x1 EQ PC PUSH1 0xC ADD JUMPI RETURNDATASIZE PUSH1 0x0 DUP1 RETURNDATACOPY RETURNDATASIZE PUSH3 0x123456 MSTORE PUSH1 0xEA PUSH2 0x109C MSTORE DUP1 MLOAD PUSH1 0x0 DUP3 MSTORE SWAP4 POP PUSH1 0x20 PUSH2 0x15BA JUMP JUMPDEST PUSH4 0x8540661F MSIZE DUP2 PUSH1 0xE0 SHL DUP2 MSTORE DUP4 PUSH1 0x4 DUP3 ADD MSTORE DUP5 PUSH1 0x24 DUP3 ADD MSTORE PUSH1 0x60 PUSH1 0x44 DUP3 ADD MSTORE DUP7 PUSH1 0x64 DUP3 ADD MSTORE PUSH1 0x84 DUP2 ADD PUSH1 0x0 JUMPDEST DUP9 DUP2 LT ISZERO PUSH2 0x16F5 JUMPI DUP1 DUP9 ADD MLOAD DUP3 DUP3 ADD MSTORE PUSH1 0x20 ADD PUSH2 0x16DD JUMP JUMPDEST POP DUP8 PUSH2 0x104 ADD DUP3 ADD PUSH1 0x60 DUP4 DUP11 PUSH2 0x104 ADD DUP6 CALLER PUSH1 0x0 SWAP1 GAS CALL PC PUSH1 0x1D ADD JUMPI RETURNDATASIZE PUSH1 0x1 EQ PC PUSH1 0xC ADD JUMPI RETURNDATASIZE PUSH1 0x0 DUP1 RETURNDATACOPY RETURNDATASIZE PUSH3 0x123456 MSTORE PUSH1 0xEA PUSH2 0x109C MSTORE DUP3 MLOAD PUSH1 0x40 DUP5 ADD MLOAD RETURNDATASIZE PUSH1 0x0 DUP7 RETURNDATACOPY DUP13 DUP13 DUP3 PUSH1 0x60 DUP9 ADD CALLER POP PUSH1 0x0 PUSH1 0x4 GAS CALL POP MSIZE DUP6 JUMPDEST DUP2 DUP2 LT ISZERO PUSH2 0x175E JUMPI PUSH1 0x0 DUP2 MSTORE PUSH1 0x20 ADD PUSH2 0x174A JUMP JUMPDEST POP SWAP2 SWAP13 POP POP POP POP POP POP POP JUMP JUMPDEST PUSH4 0x85979F76 MSIZE DUP2 PUSH1 0xE0 SHL DUP2 MSTORE DUP4 PUSH1 0x4 DUP3 ADD MSTORE DUP5 PUSH1 0x24 DUP3 ADD MSTORE PUSH1 0x60 PUSH1 0x44 DUP3 ADD MSTORE DUP8 PUSH1 0x64 DUP3 ADD MSTORE PUSH1 0x84 DUP2 ADD PUSH1 0x0 JUMPDEST DUP10 DUP2 LT ISZERO PUSH2 0x17AE JUMPI DUP1 DUP10 ADD MLOAD DUP3 DUP3 ADD MSTORE PUSH1 0x20 ADD PUSH2 0x1796 JUMP JUMPDEST POP DUP9 PUSH2 0x104 ADD DUP3 ADD PUSH1 0x60 DUP4 DUP12 PUSH2 0x104 ADD DUP6 CALLER PUSH1 0x0 SWAP1 GAS CALL PC PUSH1 0x1D ADD JUMPI RETURNDATASIZE PUSH1 0x1 EQ PC PUSH1 0xC ADD JUMPI RETURNDATASIZE PUSH1 0x0 DUP1 RETURNDATACOPY RETURNDATASIZE PUSH3 0x123456 MSTORE PUSH1 0xEA PUSH2 0x109C MSTORE DUP3 MLOAD PUSH1 0x40 DUP5 ADD MLOAD RETURNDATASIZE PUSH1 0x0 DUP7 RETURNDATACOPY DUP14 DUP14 DUP3 PUSH1 0x60 DUP9 ADD CALLER POP PUSH1 0x0 PUSH1 0x4 GAS CALL POP MSIZE DUP6 JUMPDEST DUP2 DUP2 LT ISZERO PUSH2 0x1817 JUMPI PUSH1 0x0 DUP2 MSTORE PUSH1 0x20 ADD PUSH2 0x1803 JUMP JUMPDEST POP SWAP2 SWAP14 POP POP POP POP POP POP POP JUMP JUMPDEST PUSH1 0x40 MLOAD PUSH1 0x40 DUP1 DUP3 ADD SWAP1 MSTORE PUSH1 0x0 DUP1 DUP3 MSTORE PUSH1 0x20 DUP3 ADD MSTORE SWAP1 JUMP JUMPDEST DUP2 PUSH2 0x1843 PUSH2 0x1576 JUMP JUMPDEST DUP2 DUP4 PUSH2 0x184D PUSH2 0x15D1 JUMP JUMPDEST POP POP DUP2 DUP2 GT ISZERO PUSH2 0x114D JUMPI PUSH1 0x2 MUL DUP2 PUSH1 0x2 MUL DUP4 PUSH1 0x0 MSTORE PUSH1 0x20 PUSH1 0x0 KECCAK256 PUSH2 0x114D SWAP3 DUP2 ADD SWAP2 ADD PUSH2 0x3B1 SWAP2 SWAP1 JUMPDEST DUP1 DUP3 GT ISZERO PUSH2 0x18BC JUMPI PUSH1 0x0 DUP2 PUSH1 0x1 DUP2 PUSH2 0x188B PUSH2 0x1576 JUMP JUMPDEST SWAP1 PUSH1 0x1 PUSH1 0x1 PUSH1 0xA0 SHL SUB MUL NOT AND SWAP1 PUSH2 0x18A0 PUSH2 0x15D1 JUMP JUMPDEST POP POP PUSH1 0x1 DUP3 ADD PUSH1 0x0 SWAP1 PUSH2 0x18B1 PUSH2 0x15D1 JUMP JUMPDEST POP POP POP PUSH1 0x2 ADD PUSH2 0x1875 JUMP JUMPDEST POP SWAP1 JUMP INVALID MSIZE PUSH16 0x75206D757374206265206E6F6D696E61 PUSH21 0x6564206265666F726520796F752063616E20616363 PUSH6 0x7074206F776E PUSH6 0x727368697052 PUSH6 0x776172647344 PUSH10 0x73747269627574696F6E KECCAK256 PUSH4 0x6F6E7472 PUSH2 0x6374 KECCAK256 PUSH5 0x6F6573206E PUSH16 0x74206861766520656E6F75676820746F PUSH12 0x656E7320746F206469737472 PUSH10 0x627574654F6E6C792074 PUSH9 0x6520636F6E74726163 PUSH21 0x206F776E6572206D617920706572666F726D207468 PUSH10 0x7320616374696F6E0000 "
		}
	}
}