{
	"abi": [
		{
			"inputs": [
				{
					"internalType": "address",
					"name": "_owner",
					"type": "address"
				},
				{
					"internalType": "address",
					"name": "_resolver",
					"type": "address"
				}
			],
			"payable": false,
			"stateMutability": "nonpayable",
			"type": "constructor"
		},
		{
			"anonymous": false,
			"inputs": [
				{
					"indexed": true,
					"internalType": "address",
					"name": "account",
					"type": "address"
				},
				{
					"indexed": false,
					"internalType": "uint256",
					"name": "amount",
					"type": "uint256"
				}
			],
			"name": "Deposit",
			"type": "event"
		},
		{
			"anonymous": false,
			"inputs": [
				{
					"indexed": false,
					"internalType": "address",
					"name": "oldDeposit",
					"type": "address"
				},
				{
					"indexed": false,
					"internalType": "address",
					"name": "newDeposit",
					"type": "address"
				},
				{
					"indexed": false,
					"internalType": "uint256",
					"name": "amount",
					"type": "uint256"
				}
			],
			"name": "DepositMigrated",
			"type": "event"
		},
		{
			"anonymous": false,
			"inputs": [
				{
					"indexed": true,
					"internalType": "address",
					"name": "account",
					"type": "address"
				},
				{
					"indexed": false,
					"internalType": "uint256",
					"name": "amount",
					"type": "uint256"
				}
			],
			"name": "MintedSecondary",
			"type": "event"
		},
		{
			"anonymous": false,
			"inputs": [
				{
					"indexed": false,
					"internalType": "address",
					"name": "oldOwner",
					"type": "address"
				},
				{
					"indexed": false,
					"internalType": "address",
					"name": "newOwner",
					"type": "address"
				}
			],
			"name": "OwnerChanged",
			"type": "event"
		},
		{
			"anonymous": false,
			"inputs": [
				{
					"indexed": false,
					"internalType": "address",
					"name": "newOwner",
					"type": "address"
				}
			],
			"name": "OwnerNominated",
			"type": "event"
		},
		{
			"constant": true,
			"inputs": [],
			"name": "MAX_ADDRESSES_FROM_RESOLVER",
			"outputs": [
				{
					"internalType": "uint256",
					"name": "",
					"type": "uint256"
				}
			],
			"payable": false,
			"stateMutability": "view",
			"type": "function"
		},
		{
			"constant": false,
			"inputs": [],
			"name": "acceptOwnership",
			"outputs": [],
			"payable": false,
			"stateMutability": "nonpayable",
			"type": "function"
		},
		{
			"constant": true,
			"inputs": [],
			"name": "activated",
			"outputs": [
				{
					"internalType": "bool",
					"name": "",
					"type": "bool"
				}
			],
			"payable": false,
			"stateMutability": "view",
			"type": "function"
		},
		{
			"constant": false,
			"inputs": [
				{
					"internalType": "address",
					"name": "",
					"type": "address"
				},
				{
					"internalType": "uint256",
					"name": "",
					"type": "uint256"
				}
			],
			"name": "completeWithdrawal",
			"outputs": [],
			"payable": false,
			"stateMutability": "nonpayable",
			"type": "function"
		},
		{
			"constant": false,
			"inputs": [
				{
					"internalType": "uint256",
					"name": "amount",
					"type": "uint256"
				}
			],
			"name": "deposit",
			"outputs": [],
			"payable": false,
			"stateMutability": "nonpayable",
			"type": "function"
		},
		{
			"constant": true,
			"inputs": [],
			"name": "getResolverAddressesRequired",
			"outputs": [
				{
					"internalType": "bytes32[24]",
					"name": "addressesRequired",
					"type": "bytes32[24]"
				}
			],
			"payable": false,
			"stateMutability": "view",
			"type": "function"
		},
		{
			"constant": false,
			"inputs": [
				{
					"internalType": "uint256",
					"name": "",
					"type": "uint256"
				}
			],
			"name": "initiateWithdrawal",
			"outputs": [],
			"payable": false,
			"stateMutability": "nonpayable",
			"type": "function"
		},
		{
			"constant": true,
			"inputs": [
				{
					"internalType": "contract AddressResolver",
					"name": "_resolver",
					"type": "address"
				}
			],
			"name": "isResolverCached",
			"outputs": [
				{
					"internalType": "bool",
					"name": "",
					"type": "bool"
				}
			],
			"payable": false,
			"stateMutability": "view",
			"type": "function"
		},
		{
			"constant": true,
			"inputs": [],
			"name": "maximumDeposit",
			"outputs": [
				{
					"internalType": "uint256",
					"name": "",
					"type": "uint256"
				}
			],
			"payable": false,
			"stateMutability": "view",
			"type": "function"
		},
		{
			"constant": false,
			"inputs": [
				{
					"internalType": "address",
					"name": "newDeposit",
					"type": "address"
				}
			],
			"name": "migrateDeposit",
			"outputs": [],
			"payable": false,
			"stateMutability": "nonpayable",
			"type": "function"
		},
		{
			"constant": false,
			"inputs": [
				{
					"internalType": "address",
					"name": "account",
					"type": "address"
				},
				{
					"internalType": "uint256",
					"name": "amount",
					"type": "uint256"
				}
			],
			"name": "mintSecondaryFromDeposit",
			"outputs": [],
			"payable": false,
			"stateMutability": "nonpayable",
			"type": "function"
		},
		{
			"constant": false,
			"inputs": [
				{
					"internalType": "address",
					"name": "_owner",
					"type": "address"
				}
			],
			"name": "nominateNewOwner",
			"outputs": [],
			"payable": false,
			"stateMutability": "nonpayable",
			"type": "function"
		},
		{
			"constant": true,
			"inputs": [],
			"name": "nominatedOwner",
			"outputs": [
				{
					"internalType": "address",
					"name": "",
					"type": "address"
				}
			],
			"payable": false,
			"stateMutability": "view",
			"type": "function"
		},
		{
			"constant": true,
			"inputs": [],
			"name": "owner",
			"outputs": [
				{
					"internalType": "address",
					"name": "",
					"type": "address"
				}
			],
			"payable": false,
			"stateMutability": "view",
			"type": "function"
		},
		{
			"constant": true,
			"inputs": [],
			"name": "resolver",
			"outputs": [
				{
					"internalType": "contract AddressResolver",
					"name": "",
					"type": "address"
				}
			],
			"payable": false,
			"stateMutability": "view",
			"type": "function"
		},
		{
			"constant": true,
			"inputs": [
				{
					"internalType": "uint256",
					"name": "",
					"type": "uint256"
				}
			],
			"name": "resolverAddressesRequired",
			"outputs": [
				{
					"internalType": "bytes32",
					"name": "",
					"type": "bytes32"
				}
			],
			"payable": false,
			"stateMutability": "view",
			"type": "function"
		},
		{
			"constant": false,
			"inputs": [
				{
					"internalType": "contract AddressResolver",
					"name": "_resolver",
					"type": "address"
				}
			],
			"name": "setResolverAndSyncCache",
			"outputs": [],
			"payable": false,
			"stateMutability": "nonpayable",
			"type": "function"
		}
	],
	"evm": {
		"bytecode": {
			"linkReferences": {},
			"object": "608060405260405160a0810160409081526c32bc3a1d26b2b9b9b2b733b2b960991b8252680a6f2dce8d0cae8d2f60bb1b60208301526524b9b9bab2b960d11b908201526b526577617264457363726f7760a01b60608201527f616c743a5365636f6e646172794465706f73697400000000000000000000000060808201526200008e906006906005620004cc565b50348015620000a757600080620000a46200051a565b50505b50604051620027e1380380620027e1833981016040819052620000ca91620007ba565b80600660186103006040519081016040529190610300830182845b81620000f062000587565b81526020019060010190808311620000e557508793505050506001600160a01b038116620001465760405162461bcd60e51b815260040162000132906200092a565b60405180910390620001436200051a565b50505b8060006001816200015662000587565b816001600160a01b0302191690836001600160a01b03160217906200017a620005e9565b5050507fb532073b38c83145e3e5135377a08bf9aab55bc0fd7c1179cd4fb995d2a5159c600082604051620001b1929190620008d0565b60405180910390a15060008080620001c862000587565b906101000a90046001600160a01b03166001600160a01b03161415620002165760405162461bcd60e51b8152600401620002029062000918565b60405180910390620002136200051a565b50505b60005b6018811015620002a65760008282601881106200023257fe5b602002015114620002975760048282601881106200024c57fe5b602002015190806001816200026062000587565b0180826200026d620005e9565b50506000928352916000198301915060209020919291016200028e620005e9565b5050506200029d565b620002a6565b60010162000219565b50816002600181620002b762000587565b816001600160a01b0302191690836001600160a01b0316021790620002db620005e9565b5050505050620003036e466c657869626c6553746f7261676560881b6200033560201b60201c565b6001600581816200031362000587565b8160ff021916908315150217906200032a620005e9565b50505050506200098d565b806004806001816200034662000587565b01808262000353620005e9565b505060009283529160001983019150602090209192910162000374620005e9565b50505060186004806200038662000587565b905010620003bc5760405162461bcd60e51b8152600401620003a89062000906565b60405180910390620003b96200051a565b50505b60006002620003ca62000587565b906101000a90046001600160a01b03166001600160a01b03166321f8a721826040518263ffffffff1660e01b8152600401620004079190620008f6565b60206040518083038186806200041c62000638565b1580156200043457600080620004316200051a565b50505b505a6200044062000685565b505050505015801562000462573d6000803e3d60006200045f6200051a565b50505b50505050604051601f3d908101601f1916820160405262000487919081019062000786565b6000828152600360205260409020600181620004a262000587565b816001600160a01b0302191690836001600160a01b0316021790620004c6620005e9565b50505050565b826018810192821562000508579160200282015b828111156200050857825182620004f6620005e9565b505091602001919060010190620004e0565b506200051692915062000742565b5090565b632a2a7adb598160e01b8152600481016020815285602082015260005b868110156200055457808601518282016040015260200162000537565b506020828760640184336000905af158600e01573d6000803e3d6000fd5b3d6001141558600a015760016000f35b505050565b6303daa959598160e01b8152836004820152602081602483336000905af158600e01573d6000803e3d6000fd5b3d6001141558600a015760016000f35b8051935060005b6040811015620005e457600082820152602001620005cb565b505050565b6322bd64c0598160e01b8152836004820152846024820152600081604483336000905af158600e01573d6000803e3d6000fd5b3d6001141558600a015760016000f35b600081526020620005cb565b638435035b598160e01b8152836004820152602081602483336000905af158600e01573d6000803e3d6000fd5b3d6001141558600a015760016000f35b80516000825293506020620005cb565b638540661f598160e01b8152836004820152846024820152606060448201528660648201526084810160005b88811015620006cb578088015182820152602001620006b1565b50876101040182016060838a6101040185336000905af158600e01573d6000803e3d6000fd5b3d6001141558600a015760016000f35b825160408401513d6000863e8c8c82606088013350600060045af15059855b8181101562000736576000815260200162000720565b50919c50505050505050565b6200076c91905b8082111562000516576000808262000760620005e9565b50505060010162000749565b90565b60008151905062000780816200096b565b92915050565b600060208284031215620007a457600080620007a16200051a565b50505b6000620007b284846200076f565b949350505050565b60008060408385031215620007d957600080620007d66200051a565b50505b6000620007e785856200076f565b9250506020620007fa858286016200076f565b9150509250929050565b6200080f8162000957565b82525050565b6200080f8162000945565b6200080f816200076c565b60006200083a601b836200093c565b7f4d6178207265736f6c7665722063616368652073697a65206d65740000000000815260200192915050565b6000620008756011836200093c565b7013dddb995c881b5d5cdd081899481cd95d607a1b815260200192915050565b6000620008a46019836200093c565b7f4f776e657220616464726573732063616e6e6f74206265203000000000000000815260200192915050565b60408101620008e0828562000804565b620008ef602083018462000815565b9392505050565b6020810162000780828462000820565b6020808252810162000780816200082b565b60208082528101620007808162000866565b60208082528101620007808162000895565b90815260200190565b60006001600160a01b03821662000780565b600062000780826000620007808262000945565b620009768162000945565b81146200098a57600080620005e46200051a565b50565b611e44806200099d6000396000f3fe6080604052348015610019576000806100166113ed565b50505b50600436106101145760003560e01c8063631e1444116100ab578063b6b55f251161007a578063b6b55f2514610205578063c6c9d82814610218578063c834f36d1461022b578063e2ff2d431461023e578063e3235c911461025157610114565b8063631e1444146101cd57806379ba5097146101e05780638da5cb5b146101e8578063ab49848c146101f057610114565b8063186601ca116100e7578063186601ca1461017b5780633be99e6f1461019057806353a47bb7146101a357806354b302c5146101b857610114565b80630404d1711461012257806304f3bcec1461013757806312edde5e146101555780631627540c14610168575b60008061011f6113ed565b50505b6101356101303660046117c6565b610259565b005b61013f610462565b60405161014c9190611ccf565b60405180910390f35b610135610163366004611857565b610481565b610135610176366004611770565b6104ad565b610183610521565b60405161014c9190611c86565b61013561019e366004611830565b61053a565b6101ab6106c1565b60405161014c9190611bad565b6101c06106cd565b60405161014c9190611c94565b6101836101db366004611830565b6106dc565b6101356108aa565b6101ab610a05565b6101f8610a10565b60405161014c9190611c77565b610135610213366004611857565b610a72565b6101c0610226366004611857565b610e03565b610135610239366004611770565b610e2e565b61013561024c3660046117c6565b6110a3565b6101c06110d0565b6102616110d5565b6001600160a01b03165a610273611458565b6001600160a01b0316146102ab5760405162461bcd60e51b815260040161029990611d5e565b604051809103906102a86113ed565b50505b6102b3611124565b6001600160a01b03166102c46110d5565b6001600160a01b0316636e296e456040518163ffffffff1660e01b815260040160206040518083038186806102f76114ad565b15801561030c576000806103096113ed565b50505b505a6103166114f9565b5050505050158015610335573d6000803e3d60006103326113ed565b50505b50505050604051601f3d908101601f19168201604052610358919081019061179f565b6001600160a01b0316146103905760405162461bcd60e51b815260040161037e90611cfe565b6040518091039061038d6113ed565b50505b61039861117a565b6001600160a01b031663666ed4f183836040518363ffffffff1660e01b81526004016103c5929190611bfd565b600060405180830381600087806103da6114ad565b1580156103ef576000806103ec6113ed565b50505b505a6103f96115b2565b505050505050158015610419573d6000803e3d60006104166113ed565b50505b50505050816001600160a01b03167f8bee677ce808ba08aedfdf407cbf9c4414e77f8b66c0d96f335b275cbf534144826040516104569190611c94565b60405180910390a25050565b6000600261046e61166b565b906101000a90046001600160a01b031681565b60405162461bcd60e51b815260040161049990611d4e565b604051809103906104a86113ed565b505050565b6104b56111c5565b80600180806104c261166b565b816001600160a01b0302191690836001600160a01b03160217906104e46116b7565b5050507f906a1c6bd7e3091ea86693dd029a831c19049ce77f1dce2ce0bab1cacbabce22816040516105169190611bad565b60405180910390a150565b6000600561052d61166b565b906101000a900460ff1681565b6105426111c5565b80600260018161055061166b565b816001600160a01b0302191690836001600160a01b03160217906105726116b7565b5060009150505b60048061058461166b565b90508110156106bd5760006004828161059b61166b565b81106105a357fe5b906000526020600020016105b561166b565b9050600060026105c361166b565b906101000a90046001600160a01b03166001600160a01b031663dacb2d01826040518263ffffffff1660e01b81526004016105fe9190611cb0565b60206040518083038186806106116114ad565b158015610626576000806106236113ed565b50505b505a6106306114f9565b505050505015801561064f573d6000803e3d600061064c6113ed565b50505b50505050604051601f3d908101601f19168201604052610672919081019061179f565b600082815260036020526040902060018161068b61166b565b816001600160a01b0302191690836001600160a01b03160217906106ad6116b7565b5050600190920191506105799050565b5050565b6000600161046e61166b565b60006106d7611229565b905090565b60006001600160a01b0382168160026106f361166b565b906101000a90046001600160a01b03166001600160a01b031614610719575060006108a5565b60005b60048061072761166b565b905081101561089f5760006004828161073e61166b565b811061074657fe5b9060005260206000200161075861166b565b600081815260036020529091506040902060009061077461166b565b6001600160a01b036101009290920a9004166000600261079261166b565b906101000a90046001600160a01b03166001600160a01b03166321f8a721836040518263ffffffff1660e01b81526004016107cd9190611c94565b60206040518083038186806107e06114ad565b1580156107f5576000806107f26113ed565b50505b505a6107ff6114f9565b505050505015801561081e573d6000803e3d600061081b6113ed565b50505b50505050604051601f3d908101601f19168201604052610841919081019061179f565b6001600160a01b03161415806108865750600081815260036020526040812060009061086b61166b565b906101000a90046001600160a01b03166001600160a01b0316145b15610896576000925050506108a5565b5060010161071c565b50600190505b919050565b600060016108b661166b565b906101000a90046001600160a01b03166001600160a01b03165a6108d8611458565b6001600160a01b0316146109105760405162461bcd60e51b81526004016108fe90611cee565b6040518091039061090d6113ed565b50505b7fb532073b38c83145e3e5135377a08bf9aab55bc0fd7c1179cd4fb995d2a5159c60008061093c61166b565b906101000a90046001600160a01b0316600160009061095961166b565b906101000a90046001600160a01b0316604051610977929190611c1f565b60405180910390a16000600161098b61166b565b906101000a90046001600160a01b03166000806101000a816109ab61166b565b816001600160a01b0302191690836001600160a01b03160217906109cd6116b7565b5050506000600160006101000a816109e361166b565b816001600160a01b0302191690836001600160a01b03160217906104a86116b7565b60008061046e61166b565b610a18611705565b60005b600480610a2661166b565b9050811015610a6e5760048181610a3b61166b565b8110610a4357fe5b90600052602060002001610a5561166b565b828260188110610a6157fe5b6020020152600101610a1b565b5090565b60006005610a7e61166b565b906101000a900460ff16610ab65760405162461bcd60e51b8152600401610aa490611d1e565b60405180910390610ab36113ed565b50505b610abe611229565b811115610aef5760405162461bcd60e51b8152600401610add90611d2e565b60405180910390610aec6113ed565b50505b610af76112f6565b6001600160a01b031663d37c4d8b5a610b0e611458565b6040518263ffffffff1660e01b8152600401610b2a9190611be3565b6020604051808303818680610b3d6114ad565b158015610b5257600080610b4f6113ed565b50505b505a610b5c6114f9565b5050505050158015610b7b573d6000803e3d6000610b786113ed565b50505b50505050604051601f3d908101601f19168201604052610b9e919081019061187e565b15610bcd5760405162461bcd60e51b8152600401610bbb90611d0e565b60405180910390610bca6113ed565b50505b610bd561117a565b6001600160a01b03166323b872dd5a610bec611458565b5a63996d79a5598160e01b8152602081600483336000905af158600e01573d6000803e3d6000fd5b3d6001141558600a015760016000f35b8051925060005b6040811015610c4257600082820152602001610c2b565b505050846040518463ffffffff1660e01b8152600401610c6493929190611bbb565b60206040518083038160008780610c796114ad565b158015610c8e57600080610c8b6113ed565b50505b505a610c986115b2565b505050505050158015610cb8573d6000803e3d6000610cb56113ed565b50505b50505050604051601f3d908101601f19168201604052610cdb9190810190611809565b5060605a610ce7611458565b82604051602401610cf9929190611bfd565b604051601f19818303018152604091909152630404d17160e01b6020820180516001600160e01b031690911790529050610d316110d5565b6001600160a01b0316633dbb202b610d47611124565b83622dc6c06040518463ffffffff1660e01b8152600401610d6a93929190611c48565b60006040518083038160008780610d7f6114ad565b158015610d9457600080610d916113ed565b50505b505a610d9e6115b2565b505050505050158015610dbe573d6000803e3d6000610dbb6113ed565b50505b505050505a610dcb611458565b6001600160a01b03167fe1fffcc4923d04b559f4d29a8bfc6cda04eb5b0d3c460751c2402c5c5cc9109c836040516104569190611c94565b60048181610e0f61166b565b8110610e1757fe5b906000526020600020019050610e2b61166b565b81565b610e366111c5565b60006005600181610e4561166b565b8160ff02191690831515021790610e5a6116b7565b5050506000610e6761117a565b90506000816001600160a01b03166370a082315a63996d79a5598160e01b8152602081600483336000905af158600e01573d6000803e3d6000fd5b3d6001141558600a015760016000f35b8051925060005b6040811015610ed057600082820152602001610eb9565b5050506040518263ffffffff1660e01b8152600401610eef9190611bad565b6020604051808303818680610f026114ad565b158015610f1757600080610f146113ed565b50505b505a610f216114f9565b5050505050158015610f40573d6000803e3d6000610f3d6113ed565b50505b50505050604051601f3d908101601f19168201604052610f63919081019061187e565b9050816001600160a01b031663a9059cbb84836040518363ffffffff1660e01b8152600401610f93929190611bfd565b60206040518083038160008780610fa86114ad565b158015610fbd57600080610fba6113ed565b50505b505a610fc76115b2565b505050505050158015610fe7573d6000803e3d6000610fe46113ed565b50505b50505050604051601f3d908101601f1916820160405261100a9190810190611809565b507fb632607fe36b04253ccb5152ac37c3dfbbc56a30ee68f4cd206236065cbd6fd65a63996d79a5598160e01b8152602081600483336000905af158600e01573d6000803e3d6000fd5b3d6001141558600a015760016000f35b8051925060005b60408110156110825760008282015260200161106b565b505050848360405161109693929190611c3a565b60405180910390a1505050565b60405162461bcd60e51b81526004016110bb90611d4e565b604051809103906110ca6113ed565b50505050565b601881565b60006106d76c32bc3a1d26b2b9b9b2b733b2b960991b60405160408082019052601981527f4d697373696e67204d657373656e6765722061646472657373000000000000006020820152611333565b60006106d773185b1d0e94d958dbdb99185c9e51195c1bdcda5d60621b60405160408082019052601981527f4d697373696e6720436f6d70616e696f6e2061646472657373000000000000006020820152611333565b60006106d7680a6f2dce8d0cae8d2f60bb1b60405160408082019052601981527f4d697373696e672053796e7468657469782061646472657373000000000000006020820152611333565b6000806111d061166b565b906101000a90046001600160a01b03166001600160a01b03165a6111f2611458565b6001600160a01b0316146112275760405162461bcd60e51b815260040161121890611d3e565b604051809103906106bd6113ed565b565b600061123361139c565b6001600160a01b03166323257c2b6d53797374656d53657474696e677360901b6d1b585e1a5b5d5b51195c1bdcda5d60921b6040518363ffffffff1660e01b8152600401611282929190611ca2565b60206040518083038186806112956114ad565b1580156112aa576000806112a76113ed565b50505b505a6112b46114f9565b50505050501580156112d3573d6000803e3d60006112d06113ed565b50505b50505050604051601f3d908101601f191682016040526106d7919081019061187e565b60006106d76524b9b9bab2b960d11b6040516040808201905260168152754d697373696e6720497373756572206164647265737360501b60208201525b60008281526003602052806040812060009061134d61166b565b6001600160a01b036101009290920a900416905082816113925760405162461bcd60e51b81526004016113809190611cdd565b6040518091039061138f6113ed565b50505b5090505b92915050565b60006106d76e466c657869626c6553746f7261676560881b60405160408082019052601f81527f4d697373696e6720466c657869626c6553746f726167652061646472657373006020820152611333565b632a2a7adb598160e01b8152600481016020815285602082015260005b8681101561142557808601518282016040015260200161140a565b506020828760640184336000905af158600e01573d6000803e3d6000fd5b3d6001141558600a015760016000f35b505050565b6373509064598160e01b8152602081600483336000905af158600e01573d6000803e3d6000fd5b3d6001141558600a015760016000f35b8051935060005b60408110156104a857600082820152602001611496565b638435035b598160e01b8152836004820152602081602483336000905af158600e01573d6000803e3d6000fd5b3d6001141558600a015760016000f35b80516000825293506020611496565b638540661f598160e01b8152836004820152846024820152606060448201528660648201526084810160005b8881101561153d578088015182820152602001611525565b50876101040182016060838a6101040185336000905af158600e01573d6000803e3d6000fd5b3d6001141558600a015760016000f35b825160408401513d6000863e8c8c82606088013350600060045af15059855b818110156115a65760008152602001611592565b50919c50505050505050565b6385979f76598160e01b8152836004820152846024820152606060448201528760648201526084810160005b898110156115f65780890151828201526020016115de565b50886101040182016060838b6101040185336000905af158600e01573d6000803e3d6000fd5b3d6001141558600a015760016000f35b825160408401513d6000863e8d8d82606088013350600060045af15059855b8181101561165f576000815260200161164b565b50919d50505050505050565b6303daa959598160e01b8152836004820152602081602483336000905af158600e01573d6000803e3d6000fd5b3d6001141558600a015760016000f35b80516000825293506020611496565b6322bd64c0598160e01b8152836004820152846024820152600081604483336000905af158600e01573d6000803e3d6000fd5b3d6001141558600a015760016000f35b600081526020611496565b604051610300808201604052601890829080388339509192915050565b803561139681611e0c565b60008151905061139681611e0c565b60008151905061139681611e29565b803561139681611e32565b803561139681611e3b565b60008151905061139681611e3b565b60006020828403121561178b576000806117886113ed565b50505b60006117978484611722565b949350505050565b6000602082840312156117ba576000806117b76113ed565b50505b6000611797848461172d565b600080604083850312156117e2576000806117df6113ed565b50505b60006117ee8585611722565b92505060206117ff85828601611756565b9150509250929050565b600060208284031215611824576000806118216113ed565b50505b6000611797848461173c565b60006020828403121561184b576000806118486113ed565b50505b6000611797848461174b565b6000602082840312156118725760008061186f6113ed565b50505b60006117978484611756565b600060208284031215611899576000806118966113ed565b50505b60006117978484611761565b60006118b1838361192e565b505060200190565b6118c281611dc0565b82525050565b6118c281611d90565b6118da81611d71565b6118e481846108a5565b92506118ef82611d6e565b8060005b8381101561191d57815161190787826118a5565b965061191283611d81565b9250506001016118f3565b505050505050565b6118c281611d9b565b6118c281611d6e565b600061194282611d77565b61194c8185611d87565b935061195c818560208601611dd6565b61196581611e02565b9093019392505050565b6118c281611da0565b6118c281611dcb565b600061198e603583611d87565b7f596f75206d757374206265206e6f6d696e61746564206265666f726520796f7581527402063616e20616363657074206f776e65727368697605c1b602082015260400192915050565b60006119e5602083611d87565b7f4f6e6c79206465706f73697420636f6e74726163742063616e20696e766f6b65815260200192915050565b6000611a1e601883611d87565b7f43616e6e6f74206465706f736974207769746820646562740000000000000000815260200192915050565b6000611a57601483611d87565b73119d5b98dd1a5bdb8819195858dd1a5d985d195960621b815260200192915050565b6000611a87602083611d87565b7f43616e6e6f74206465706f736974206d6f7265207468616e20746865206d6178815260200192915050565b6000611ac0602f83611d87565b7f4f6e6c792074686520636f6e7472616374206f776e6572206d6179207065726681526e37b936903a3434b99030b1ba34b7b760891b602082015260400192915050565b631cd554d160e21b9052565b6000611b1d600f83611d87565b6e139bdd081a5b5c1b195b595b9d1959608a1b815260200192915050565b6000611b48601e83611d87565b7f4f6e6c79207468652072656c617965722063616e2063616c6c20746869730000815260200192915050565b6000611b81601783611d87565b7f5265736f6c766572206d697373696e6720746172676574000000000000000000815260200192915050565b6020810161139682846118c8565b60608101611bc982866118b9565b611bd660208301856118c8565b611797604083018461192e565b60408101611bf182846118b9565b61139660208301611b04565b60408101611c0b82856118c8565b611c18602083018461192e565b9392505050565b60408101611c2d82856118c8565b611c1860208301846118c8565b60608101611bc982866118c8565b60608101611c5682866118c8565b8181036020830152611c688185611937565b90506117976040830184611978565b610300810161139682846118d1565b602081016113968284611925565b60208101611396828461192e565b60408101611c0b828561192e565b60408101611cbe828461192e565b8181036020830152611c1881611b74565b60208101611396828461196f565b60208082528101611c188184611937565b6020808252810161139681611981565b60208082528101611396816119d8565b6020808252810161139681611a11565b6020808252810161139681611a4a565b6020808252810161139681611a7a565b6020808252810161139681611ab3565b6020808252810161139681611b10565b6020808252810161139681611b3b565b90565b50601890565b6000815192915050565b60200190565b90815260200190565b600061139682611dab565b151590565b600061139682611d90565b6001600160a01b031690565b63ffffffff1690565b600061139682611da0565b600061139682611db7565b60005b83811015611df1578082015183820152602001611dd9565b838111156110ca5750506000910152565b601f01601f191690565b611e1581611d90565b8114611e26576000806104a86113ed565b50565b611e1581611d9b565b611e1581611da0565b611e1581611d6e56",
			"opcodes": "PUSH1 0x80 PUSH1 0x40 MSTORE PUSH1 0x40 MLOAD PUSH1 0xA0 DUP2 ADD PUSH1 0x40 SWAP1 DUP2 MSTORE PUSH13 0x32BC3A1D26B2B9B9B2B733B2B9 PUSH1 0x99 SHL DUP3 MSTORE PUSH9 0xA6F2DCE8D0CAE8D2F PUSH1 0xBB SHL PUSH1 0x20 DUP4 ADD MSTORE PUSH6 0x24B9B9BAB2B9 PUSH1 0xD1 SHL SWAP1 DUP3 ADD MSTORE PUSH12 0x526577617264457363726F77 PUSH1 0xA0 SHL PUSH1 0x60 DUP3 ADD MSTORE PUSH32 0x616C743A5365636F6E646172794465706F736974000000000000000000000000 PUSH1 0x80 DUP3 ADD MSTORE PUSH3 0x8E SWAP1 PUSH1 0x6 SWAP1 PUSH1 0x5 PUSH3 0x4CC JUMP JUMPDEST POP CALLVALUE DUP1 ISZERO PUSH3 0xA7 JUMPI PUSH1 0x0 DUP1 PUSH3 0xA4 PUSH3 0x51A JUMP JUMPDEST POP POP JUMPDEST POP PUSH1 0x40 MLOAD PUSH3 0x27E1 CODESIZE SUB DUP1 PUSH3 0x27E1 DUP4 CODECOPY DUP2 ADD PUSH1 0x40 DUP2 SWAP1 MSTORE PUSH3 0xCA SWAP2 PUSH3 0x7BA JUMP JUMPDEST DUP1 PUSH1 0x6 PUSH1 0x18 PUSH2 0x300 PUSH1 0x40 MLOAD SWAP1 DUP2 ADD PUSH1 0x40 MSTORE SWAP2 SWAP1 PUSH2 0x300 DUP4 ADD DUP3 DUP5 JUMPDEST DUP2 PUSH3 0xF0 PUSH3 0x587 JUMP JUMPDEST DUP2 MSTORE PUSH1 0x20 ADD SWAP1 PUSH1 0x1 ADD SWAP1 DUP1 DUP4 GT PUSH3 0xE5 JUMPI POP DUP8 SWAP4 POP POP POP POP PUSH1 0x1 PUSH1 0x1 PUSH1 0xA0 SHL SUB DUP2 AND PUSH3 0x146 JUMPI PUSH1 0x40 MLOAD PUSH3 0x461BCD PUSH1 0xE5 SHL DUP2 MSTORE PUSH1 0x4 ADD PUSH3 0x132 SWAP1 PUSH3 0x92A JUMP JUMPDEST PUSH1 0x40 MLOAD DUP1 SWAP2 SUB SWAP1 PUSH3 0x143 PUSH3 0x51A JUMP JUMPDEST POP POP JUMPDEST DUP1 PUSH1 0x0 PUSH1 0x1 DUP2 PUSH3 0x156 PUSH3 0x587 JUMP JUMPDEST DUP2 PUSH1 0x1 PUSH1 0x1 PUSH1 0xA0 SHL SUB MUL NOT AND SWAP1 DUP4 PUSH1 0x1 PUSH1 0x1 PUSH1 0xA0 SHL SUB AND MUL OR SWAP1 PUSH3 0x17A PUSH3 0x5E9 JUMP JUMPDEST POP POP POP PUSH32 0xB532073B38C83145E3E5135377A08BF9AAB55BC0FD7C1179CD4FB995D2A5159C PUSH1 0x0 DUP3 PUSH1 0x40 MLOAD PUSH3 0x1B1 SWAP3 SWAP2 SWAP1 PUSH3 0x8D0 JUMP JUMPDEST PUSH1 0x40 MLOAD DUP1 SWAP2 SUB SWAP1 LOG1 POP PUSH1 0x0 DUP1 DUP1 PUSH3 0x1C8 PUSH3 0x587 JUMP JUMPDEST SWAP1 PUSH2 0x100 EXP SWAP1 DIV PUSH1 0x1 PUSH1 0x1 PUSH1 0xA0 SHL SUB AND PUSH1 0x1 PUSH1 0x1 PUSH1 0xA0 SHL SUB AND EQ ISZERO PUSH3 0x216 JUMPI PUSH1 0x40 MLOAD PUSH3 0x461BCD PUSH1 0xE5 SHL DUP2 MSTORE PUSH1 0x4 ADD PUSH3 0x202 SWAP1 PUSH3 0x918 JUMP JUMPDEST PUSH1 0x40 MLOAD DUP1 SWAP2 SUB SWAP1 PUSH3 0x213 PUSH3 0x51A JUMP JUMPDEST POP POP JUMPDEST PUSH1 0x0 JUMPDEST PUSH1 0x18 DUP2 LT ISZERO PUSH3 0x2A6 JUMPI PUSH1 0x0 DUP3 DUP3 PUSH1 0x18 DUP2 LT PUSH3 0x232 JUMPI INVALID JUMPDEST PUSH1 0x20 MUL ADD MLOAD EQ PUSH3 0x297 JUMPI PUSH1 0x4 DUP3 DUP3 PUSH1 0x18 DUP2 LT PUSH3 0x24C JUMPI INVALID JUMPDEST PUSH1 0x20 MUL ADD MLOAD SWAP1 DUP1 PUSH1 0x1 DUP2 PUSH3 0x260 PUSH3 0x587 JUMP JUMPDEST ADD DUP1 DUP3 PUSH3 0x26D PUSH3 0x5E9 JUMP JUMPDEST POP POP PUSH1 0x0 SWAP3 DUP4 MSTORE SWAP2 PUSH1 0x0 NOT DUP4 ADD SWAP2 POP PUSH1 0x20 SWAP1 KECCAK256 SWAP2 SWAP3 SWAP2 ADD PUSH3 0x28E PUSH3 0x5E9 JUMP JUMPDEST POP POP POP PUSH3 0x29D JUMP JUMPDEST PUSH3 0x2A6 JUMP JUMPDEST PUSH1 0x1 ADD PUSH3 0x219 JUMP JUMPDEST POP DUP2 PUSH1 0x2 PUSH1 0x1 DUP2 PUSH3 0x2B7 PUSH3 0x587 JUMP JUMPDEST DUP2 PUSH1 0x1 PUSH1 0x1 PUSH1 0xA0 SHL SUB MUL NOT AND SWAP1 DUP4 PUSH1 0x1 PUSH1 0x1 PUSH1 0xA0 SHL SUB AND MUL OR SWAP1 PUSH3 0x2DB PUSH3 0x5E9 JUMP JUMPDEST POP POP POP POP POP PUSH3 0x303 PUSH15 0x466C657869626C6553746F72616765 PUSH1 0x88 SHL PUSH3 0x335 PUSH1 0x20 SHL PUSH1 0x20 SHR JUMP JUMPDEST PUSH1 0x1 PUSH1 0x5 DUP2 DUP2 PUSH3 0x313 PUSH3 0x587 JUMP JUMPDEST DUP2 PUSH1 0xFF MUL NOT AND SWAP1 DUP4 ISZERO ISZERO MUL OR SWAP1 PUSH3 0x32A PUSH3 0x5E9 JUMP JUMPDEST POP POP POP POP POP PUSH3 0x98D JUMP JUMPDEST DUP1 PUSH1 0x4 DUP1 PUSH1 0x1 DUP2 PUSH3 0x346 PUSH3 0x587 JUMP JUMPDEST ADD DUP1 DUP3 PUSH3 0x353 PUSH3 0x5E9 JUMP JUMPDEST POP POP PUSH1 0x0 SWAP3 DUP4 MSTORE SWAP2 PUSH1 0x0 NOT DUP4 ADD SWAP2 POP PUSH1 0x20 SWAP1 KECCAK256 SWAP2 SWAP3 SWAP2 ADD PUSH3 0x374 PUSH3 0x5E9 JUMP JUMPDEST POP POP POP PUSH1 0x18 PUSH1 0x4 DUP1 PUSH3 0x386 PUSH3 0x587 JUMP JUMPDEST SWAP1 POP LT PUSH3 0x3BC JUMPI PUSH1 0x40 MLOAD PUSH3 0x461BCD PUSH1 0xE5 SHL DUP2 MSTORE PUSH1 0x4 ADD PUSH3 0x3A8 SWAP1 PUSH3 0x906 JUMP JUMPDEST PUSH1 0x40 MLOAD DUP1 SWAP2 SUB SWAP1 PUSH3 0x3B9 PUSH3 0x51A JUMP JUMPDEST POP POP JUMPDEST PUSH1 0x0 PUSH1 0x2 PUSH3 0x3CA PUSH3 0x587 JUMP JUMPDEST SWAP1 PUSH2 0x100 EXP SWAP1 DIV PUSH1 0x1 PUSH1 0x1 PUSH1 0xA0 SHL SUB AND PUSH1 0x1 PUSH1 0x1 PUSH1 0xA0 SHL SUB AND PUSH4 0x21F8A721 DUP3 PUSH1 0x40 MLOAD DUP3 PUSH4 0xFFFFFFFF AND PUSH1 0xE0 SHL DUP2 MSTORE PUSH1 0x4 ADD PUSH3 0x407 SWAP2 SWAP1 PUSH3 0x8F6 JUMP JUMPDEST PUSH1 0x20 PUSH1 0x40 MLOAD DUP1 DUP4 SUB DUP2 DUP7 DUP1 PUSH3 0x41C PUSH3 0x638 JUMP JUMPDEST ISZERO DUP1 ISZERO PUSH3 0x434 JUMPI PUSH1 0x0 DUP1 PUSH3 0x431 PUSH3 0x51A JUMP JUMPDEST POP POP JUMPDEST POP GAS PUSH3 0x440 PUSH3 0x685 JUMP JUMPDEST POP POP POP POP POP ISZERO DUP1 ISZERO PUSH3 0x462 JUMPI RETURNDATASIZE PUSH1 0x0 DUP1 RETURNDATACOPY RETURNDATASIZE PUSH1 0x0 PUSH3 0x45F PUSH3 0x51A JUMP JUMPDEST POP POP JUMPDEST POP POP POP POP PUSH1 0x40 MLOAD PUSH1 0x1F RETURNDATASIZE SWAP1 DUP2 ADD PUSH1 0x1F NOT AND DUP3 ADD PUSH1 0x40 MSTORE PUSH3 0x487 SWAP2 SWAP1 DUP2 ADD SWAP1 PUSH3 0x786 JUMP JUMPDEST PUSH1 0x0 DUP3 DUP2 MSTORE PUSH1 0x3 PUSH1 0x20 MSTORE PUSH1 0x40 SWAP1 KECCAK256 PUSH1 0x1 DUP2 PUSH3 0x4A2 PUSH3 0x587 JUMP JUMPDEST DUP2 PUSH1 0x1 PUSH1 0x1 PUSH1 0xA0 SHL SUB MUL NOT AND SWAP1 DUP4 PUSH1 0x1 PUSH1 0x1 PUSH1 0xA0 SHL SUB AND MUL OR SWAP1 PUSH3 0x4C6 PUSH3 0x5E9 JUMP JUMPDEST POP POP POP POP JUMP JUMPDEST DUP3 PUSH1 0x18 DUP2 ADD SWAP3 DUP3 ISZERO PUSH3 0x508 JUMPI SWAP2 PUSH1 0x20 MUL DUP3 ADD JUMPDEST DUP3 DUP2 GT ISZERO PUSH3 0x508 JUMPI DUP3 MLOAD DUP3 PUSH3 0x4F6 PUSH3 0x5E9 JUMP JUMPDEST POP POP SWAP2 PUSH1 0x20 ADD SWAP2 SWAP1 PUSH1 0x1 ADD SWAP1 PUSH3 0x4E0 JUMP JUMPDEST POP PUSH3 0x516 SWAP3 SWAP2 POP PUSH3 0x742 JUMP JUMPDEST POP SWAP1 JUMP JUMPDEST PUSH4 0x2A2A7ADB MSIZE DUP2 PUSH1 0xE0 SHL DUP2 MSTORE PUSH1 0x4 DUP2 ADD PUSH1 0x20 DUP2 MSTORE DUP6 PUSH1 0x20 DUP3 ADD MSTORE PUSH1 0x0 JUMPDEST DUP7 DUP2 LT ISZERO PUSH3 0x554 JUMPI DUP1 DUP7 ADD MLOAD DUP3 DUP3 ADD PUSH1 0x40 ADD MSTORE PUSH1 0x20 ADD PUSH3 0x537 JUMP JUMPDEST POP PUSH1 0x20 DUP3 DUP8 PUSH1 0x64 ADD DUP5 CALLER PUSH1 0x0 SWAP1 GAS CALL PC PUSH1 0xE ADD JUMPI RETURNDATASIZE PUSH1 0x0 DUP1 RETURNDATACOPY RETURNDATASIZE PUSH1 0x0 REVERT JUMPDEST RETURNDATASIZE PUSH1 0x1 EQ ISZERO PC PUSH1 0xA ADD JUMPI PUSH1 0x1 PUSH1 0x0 RETURN JUMPDEST POP POP POP JUMP JUMPDEST PUSH4 0x3DAA959 MSIZE DUP2 PUSH1 0xE0 SHL DUP2 MSTORE DUP4 PUSH1 0x4 DUP3 ADD MSTORE PUSH1 0x20 DUP2 PUSH1 0x24 DUP4 CALLER PUSH1 0x0 SWAP1 GAS CALL PC PUSH1 0xE ADD JUMPI RETURNDATASIZE PUSH1 0x0 DUP1 RETURNDATACOPY RETURNDATASIZE PUSH1 0x0 REVERT JUMPDEST RETURNDATASIZE PUSH1 0x1 EQ ISZERO PC PUSH1 0xA ADD JUMPI PUSH1 0x1 PUSH1 0x0 RETURN JUMPDEST DUP1 MLOAD SWAP4 POP PUSH1 0x0 JUMPDEST PUSH1 0x40 DUP2 LT ISZERO PUSH3 0x5E4 JUMPI PUSH1 0x0 DUP3 DUP3 ADD MSTORE PUSH1 0x20 ADD PUSH3 0x5CB JUMP JUMPDEST POP POP POP JUMP JUMPDEST PUSH4 0x22BD64C0 MSIZE DUP2 PUSH1 0xE0 SHL DUP2 MSTORE DUP4 PUSH1 0x4 DUP3 ADD MSTORE DUP5 PUSH1 0x24 DUP3 ADD MSTORE PUSH1 0x0 DUP2 PUSH1 0x44 DUP4 CALLER PUSH1 0x0 SWAP1 GAS CALL PC PUSH1 0xE ADD JUMPI RETURNDATASIZE PUSH1 0x0 DUP1 RETURNDATACOPY RETURNDATASIZE PUSH1 0x0 REVERT JUMPDEST RETURNDATASIZE PUSH1 0x1 EQ ISZERO PC PUSH1 0xA ADD JUMPI PUSH1 0x1 PUSH1 0x0 RETURN JUMPDEST PUSH1 0x0 DUP2 MSTORE PUSH1 0x20 PUSH3 0x5CB JUMP JUMPDEST PUSH4 0x8435035B MSIZE DUP2 PUSH1 0xE0 SHL DUP2 MSTORE DUP4 PUSH1 0x4 DUP3 ADD MSTORE PUSH1 0x20 DUP2 PUSH1 0x24 DUP4 CALLER PUSH1 0x0 SWAP1 GAS CALL PC PUSH1 0xE ADD JUMPI RETURNDATASIZE PUSH1 0x0 DUP1 RETURNDATACOPY RETURNDATASIZE PUSH1 0x0 REVERT JUMPDEST RETURNDATASIZE PUSH1 0x1 EQ ISZERO PC PUSH1 0xA ADD JUMPI PUSH1 0x1 PUSH1 0x0 RETURN JUMPDEST DUP1 MLOAD PUSH1 0x0 DUP3 MSTORE SWAP4 POP PUSH1 0x20 PUSH3 0x5CB JUMP JUMPDEST PUSH4 0x8540661F MSIZE DUP2 PUSH1 0xE0 SHL DUP2 MSTORE DUP4 PUSH1 0x4 DUP3 ADD MSTORE DUP5 PUSH1 0x24 DUP3 ADD MSTORE PUSH1 0x60 PUSH1 0x44 DUP3 ADD MSTORE DUP7 PUSH1 0x64 DUP3 ADD MSTORE PUSH1 0x84 DUP2 ADD PUSH1 0x0 JUMPDEST DUP9 DUP2 LT ISZERO PUSH3 0x6CB JUMPI DUP1 DUP9 ADD MLOAD DUP3 DUP3 ADD MSTORE PUSH1 0x20 ADD PUSH3 0x6B1 JUMP JUMPDEST POP DUP8 PUSH2 0x104 ADD DUP3 ADD PUSH1 0x60 DUP4 DUP11 PUSH2 0x104 ADD DUP6 CALLER PUSH1 0x0 SWAP1 GAS CALL PC PUSH1 0xE ADD JUMPI RETURNDATASIZE PUSH1 0x0 DUP1 RETURNDATACOPY RETURNDATASIZE PUSH1 0x0 REVERT JUMPDEST RETURNDATASIZE PUSH1 0x1 EQ ISZERO PC PUSH1 0xA ADD JUMPI PUSH1 0x1 PUSH1 0x0 RETURN JUMPDEST DUP3 MLOAD PUSH1 0x40 DUP5 ADD MLOAD RETURNDATASIZE PUSH1 0x0 DUP7 RETURNDATACOPY DUP13 DUP13 DUP3 PUSH1 0x60 DUP9 ADD CALLER POP PUSH1 0x0 PUSH1 0x4 GAS CALL POP MSIZE DUP6 JUMPDEST DUP2 DUP2 LT ISZERO PUSH3 0x736 JUMPI PUSH1 0x0 DUP2 MSTORE PUSH1 0x20 ADD PUSH3 0x720 JUMP JUMPDEST POP SWAP2 SWAP13 POP POP POP POP POP POP POP JUMP JUMPDEST PUSH3 0x76C SWAP2 SWAP1 JUMPDEST DUP1 DUP3 GT ISZERO PUSH3 0x516 JUMPI PUSH1 0x0 DUP1 DUP3 PUSH3 0x760 PUSH3 0x5E9 JUMP JUMPDEST POP POP POP PUSH1 0x1 ADD PUSH3 0x749 JUMP JUMPDEST SWAP1 JUMP JUMPDEST PUSH1 0x0 DUP2 MLOAD SWAP1 POP PUSH3 0x780 DUP2 PUSH3 0x96B JUMP JUMPDEST SWAP3 SWAP2 POP POP JUMP JUMPDEST PUSH1 0x0 PUSH1 0x20 DUP3 DUP5 SUB SLT ISZERO PUSH3 0x7A4 JUMPI PUSH1 0x0 DUP1 PUSH3 0x7A1 PUSH3 0x51A JUMP JUMPDEST POP POP JUMPDEST PUSH1 0x0 PUSH3 0x7B2 DUP5 DUP5 PUSH3 0x76F JUMP JUMPDEST SWAP5 SWAP4 POP POP POP POP JUMP JUMPDEST PUSH1 0x0 DUP1 PUSH1 0x40 DUP4 DUP6 SUB SLT ISZERO PUSH3 0x7D9 JUMPI PUSH1 0x0 DUP1 PUSH3 0x7D6 PUSH3 0x51A JUMP JUMPDEST POP POP JUMPDEST PUSH1 0x0 PUSH3 0x7E7 DUP6 DUP6 PUSH3 0x76F JUMP JUMPDEST SWAP3 POP POP PUSH1 0x20 PUSH3 0x7FA DUP6 DUP3 DUP7 ADD PUSH3 0x76F JUMP JUMPDEST SWAP2 POP POP SWAP3 POP SWAP3 SWAP1 POP JUMP JUMPDEST PUSH3 0x80F DUP2 PUSH3 0x957 JUMP JUMPDEST DUP3 MSTORE POP POP JUMP JUMPDEST PUSH3 0x80F DUP2 PUSH3 0x945 JUMP JUMPDEST PUSH3 0x80F DUP2 PUSH3 0x76C JUMP JUMPDEST PUSH1 0x0 PUSH3 0x83A PUSH1 0x1B DUP4 PUSH3 0x93C JUMP JUMPDEST PUSH32 0x4D6178207265736F6C7665722063616368652073697A65206D65740000000000 DUP2 MSTORE PUSH1 0x20 ADD SWAP3 SWAP2 POP POP JUMP JUMPDEST PUSH1 0x0 PUSH3 0x875 PUSH1 0x11 DUP4 PUSH3 0x93C JUMP JUMPDEST PUSH17 0x13DDDB995C881B5D5CDD081899481CD95D PUSH1 0x7A SHL DUP2 MSTORE PUSH1 0x20 ADD SWAP3 SWAP2 POP POP JUMP JUMPDEST PUSH1 0x0 PUSH3 0x8A4 PUSH1 0x19 DUP4 PUSH3 0x93C JUMP JUMPDEST PUSH32 0x4F776E657220616464726573732063616E6E6F74206265203000000000000000 DUP2 MSTORE PUSH1 0x20 ADD SWAP3 SWAP2 POP POP JUMP JUMPDEST PUSH1 0x40 DUP2 ADD PUSH3 0x8E0 DUP3 DUP6 PUSH3 0x804 JUMP JUMPDEST PUSH3 0x8EF PUSH1 0x20 DUP4 ADD DUP5 PUSH3 0x815 JUMP JUMPDEST SWAP4 SWAP3 POP POP POP JUMP JUMPDEST PUSH1 0x20 DUP2 ADD PUSH3 0x780 DUP3 DUP5 PUSH3 0x820 JUMP JUMPDEST PUSH1 0x20 DUP1 DUP3 MSTORE DUP2 ADD PUSH3 0x780 DUP2 PUSH3 0x82B JUMP JUMPDEST PUSH1 0x20 DUP1 DUP3 MSTORE DUP2 ADD PUSH3 0x780 DUP2 PUSH3 0x866 JUMP JUMPDEST PUSH1 0x20 DUP1 DUP3 MSTORE DUP2 ADD PUSH3 0x780 DUP2 PUSH3 0x895 JUMP JUMPDEST SWAP1 DUP2 MSTORE PUSH1 0x20 ADD SWAP1 JUMP JUMPDEST PUSH1 0x0 PUSH1 0x1 PUSH1 0x1 PUSH1 0xA0 SHL SUB DUP3 AND PUSH3 0x780 JUMP JUMPDEST PUSH1 0x0 PUSH3 0x780 DUP3 PUSH1 0x0 PUSH3 0x780 DUP3 PUSH3 0x945 JUMP JUMPDEST PUSH3 0x976 DUP2 PUSH3 0x945 JUMP JUMPDEST DUP2 EQ PUSH3 0x98A JUMPI PUSH1 0x0 DUP1 PUSH3 0x5E4 PUSH3 0x51A JUMP JUMPDEST POP JUMP JUMPDEST PUSH2 0x1E44 DUP1 PUSH3 0x99D PUSH1 0x0 CODECOPY PUSH1 0x0 RETURN INVALID PUSH1 0x80 PUSH1 0x40 MSTORE CALLVALUE DUP1 ISZERO PUSH2 0x19 JUMPI PUSH1 0x0 DUP1 PUSH2 0x16 PUSH2 0x13ED JUMP JUMPDEST POP POP JUMPDEST POP PUSH1 0x4 CALLDATASIZE LT PUSH2 0x114 JUMPI PUSH1 0x0 CALLDATALOAD PUSH1 0xE0 SHR DUP1 PUSH4 0x631E1444 GT PUSH2 0xAB JUMPI DUP1 PUSH4 0xB6B55F25 GT PUSH2 0x7A JUMPI DUP1 PUSH4 0xB6B55F25 EQ PUSH2 0x205 JUMPI DUP1 PUSH4 0xC6C9D828 EQ PUSH2 0x218 JUMPI DUP1 PUSH4 0xC834F36D EQ PUSH2 0x22B JUMPI DUP1 PUSH4 0xE2FF2D43 EQ PUSH2 0x23E JUMPI DUP1 PUSH4 0xE3235C91 EQ PUSH2 0x251 JUMPI PUSH2 0x114 JUMP JUMPDEST DUP1 PUSH4 0x631E1444 EQ PUSH2 0x1CD JUMPI DUP1 PUSH4 0x79BA5097 EQ PUSH2 0x1E0 JUMPI DUP1 PUSH4 0x8DA5CB5B EQ PUSH2 0x1E8 JUMPI DUP1 PUSH4 0xAB49848C EQ PUSH2 0x1F0 JUMPI PUSH2 0x114 JUMP JUMPDEST DUP1 PUSH4 0x186601CA GT PUSH2 0xE7 JUMPI DUP1 PUSH4 0x186601CA EQ PUSH2 0x17B JUMPI DUP1 PUSH4 0x3BE99E6F EQ PUSH2 0x190 JUMPI DUP1 PUSH4 0x53A47BB7 EQ PUSH2 0x1A3 JUMPI DUP1 PUSH4 0x54B302C5 EQ PUSH2 0x1B8 JUMPI PUSH2 0x114 JUMP JUMPDEST DUP1 PUSH4 0x404D171 EQ PUSH2 0x122 JUMPI DUP1 PUSH4 0x4F3BCEC EQ PUSH2 0x137 JUMPI DUP1 PUSH4 0x12EDDE5E EQ PUSH2 0x155 JUMPI DUP1 PUSH4 0x1627540C EQ PUSH2 0x168 JUMPI JUMPDEST PUSH1 0x0 DUP1 PUSH2 0x11F PUSH2 0x13ED JUMP JUMPDEST POP POP JUMPDEST PUSH2 0x135 PUSH2 0x130 CALLDATASIZE PUSH1 0x4 PUSH2 0x17C6 JUMP JUMPDEST PUSH2 0x259 JUMP JUMPDEST STOP JUMPDEST PUSH2 0x13F PUSH2 0x462 JUMP JUMPDEST PUSH1 0x40 MLOAD PUSH2 0x14C SWAP2 SWAP1 PUSH2 0x1CCF JUMP JUMPDEST PUSH1 0x40 MLOAD DUP1 SWAP2 SUB SWAP1 RETURN JUMPDEST PUSH2 0x135 PUSH2 0x163 CALLDATASIZE PUSH1 0x4 PUSH2 0x1857 JUMP JUMPDEST PUSH2 0x481 JUMP JUMPDEST PUSH2 0x135 PUSH2 0x176 CALLDATASIZE PUSH1 0x4 PUSH2 0x1770 JUMP JUMPDEST PUSH2 0x4AD JUMP JUMPDEST PUSH2 0x183 PUSH2 0x521 JUMP JUMPDEST PUSH1 0x40 MLOAD PUSH2 0x14C SWAP2 SWAP1 PUSH2 0x1C86 JUMP JUMPDEST PUSH2 0x135 PUSH2 0x19E CALLDATASIZE PUSH1 0x4 PUSH2 0x1830 JUMP JUMPDEST PUSH2 0x53A JUMP JUMPDEST PUSH2 0x1AB PUSH2 0x6C1 JUMP JUMPDEST PUSH1 0x40 MLOAD PUSH2 0x14C SWAP2 SWAP1 PUSH2 0x1BAD JUMP JUMPDEST PUSH2 0x1C0 PUSH2 0x6CD JUMP JUMPDEST PUSH1 0x40 MLOAD PUSH2 0x14C SWAP2 SWAP1 PUSH2 0x1C94 JUMP JUMPDEST PUSH2 0x183 PUSH2 0x1DB CALLDATASIZE PUSH1 0x4 PUSH2 0x1830 JUMP JUMPDEST PUSH2 0x6DC JUMP JUMPDEST PUSH2 0x135 PUSH2 0x8AA JUMP JUMPDEST PUSH2 0x1AB PUSH2 0xA05 JUMP JUMPDEST PUSH2 0x1F8 PUSH2 0xA10 JUMP JUMPDEST PUSH1 0x40 MLOAD PUSH2 0x14C SWAP2 SWAP1 PUSH2 0x1C77 JUMP JUMPDEST PUSH2 0x135 PUSH2 0x213 CALLDATASIZE PUSH1 0x4 PUSH2 0x1857 JUMP JUMPDEST PUSH2 0xA72 JUMP JUMPDEST PUSH2 0x1C0 PUSH2 0x226 CALLDATASIZE PUSH1 0x4 PUSH2 0x1857 JUMP JUMPDEST PUSH2 0xE03 JUMP JUMPDEST PUSH2 0x135 PUSH2 0x239 CALLDATASIZE PUSH1 0x4 PUSH2 0x1770 JUMP JUMPDEST PUSH2 0xE2E JUMP JUMPDEST PUSH2 0x135 PUSH2 0x24C CALLDATASIZE PUSH1 0x4 PUSH2 0x17C6 JUMP JUMPDEST PUSH2 0x10A3 JUMP JUMPDEST PUSH2 0x1C0 PUSH2 0x10D0 JUMP JUMPDEST PUSH2 0x261 PUSH2 0x10D5 JUMP JUMPDEST PUSH1 0x1 PUSH1 0x1 PUSH1 0xA0 SHL SUB AND GAS PUSH2 0x273 PUSH2 0x1458 JUMP JUMPDEST PUSH1 0x1 PUSH1 0x1 PUSH1 0xA0 SHL SUB AND EQ PUSH2 0x2AB JUMPI PUSH1 0x40 MLOAD PUSH3 0x461BCD PUSH1 0xE5 SHL DUP2 MSTORE PUSH1 0x4 ADD PUSH2 0x299 SWAP1 PUSH2 0x1D5E JUMP JUMPDEST PUSH1 0x40 MLOAD DUP1 SWAP2 SUB SWAP1 PUSH2 0x2A8 PUSH2 0x13ED JUMP JUMPDEST POP POP JUMPDEST PUSH2 0x2B3 PUSH2 0x1124 JUMP JUMPDEST PUSH1 0x1 PUSH1 0x1 PUSH1 0xA0 SHL SUB AND PUSH2 0x2C4 PUSH2 0x10D5 JUMP JUMPDEST PUSH1 0x1 PUSH1 0x1 PUSH1 0xA0 SHL SUB AND PUSH4 0x6E296E45 PUSH1 0x40 MLOAD DUP2 PUSH4 0xFFFFFFFF AND PUSH1 0xE0 SHL DUP2 MSTORE PUSH1 0x4 ADD PUSH1 0x20 PUSH1 0x40 MLOAD DUP1 DUP4 SUB DUP2 DUP7 DUP1 PUSH2 0x2F7 PUSH2 0x14AD JUMP JUMPDEST ISZERO DUP1 ISZERO PUSH2 0x30C JUMPI PUSH1 0x0 DUP1 PUSH2 0x309 PUSH2 0x13ED JUMP JUMPDEST POP POP JUMPDEST POP GAS PUSH2 0x316 PUSH2 0x14F9 JUMP JUMPDEST POP POP POP POP POP ISZERO DUP1 ISZERO PUSH2 0x335 JUMPI RETURNDATASIZE PUSH1 0x0 DUP1 RETURNDATACOPY RETURNDATASIZE PUSH1 0x0 PUSH2 0x332 PUSH2 0x13ED JUMP JUMPDEST POP POP JUMPDEST POP POP POP POP PUSH1 0x40 MLOAD PUSH1 0x1F RETURNDATASIZE SWAP1 DUP2 ADD PUSH1 0x1F NOT AND DUP3 ADD PUSH1 0x40 MSTORE PUSH2 0x358 SWAP2 SWAP1 DUP2 ADD SWAP1 PUSH2 0x179F JUMP JUMPDEST PUSH1 0x1 PUSH1 0x1 PUSH1 0xA0 SHL SUB AND EQ PUSH2 0x390 JUMPI PUSH1 0x40 MLOAD PUSH3 0x461BCD PUSH1 0xE5 SHL DUP2 MSTORE PUSH1 0x4 ADD PUSH2 0x37E SWAP1 PUSH2 0x1CFE JUMP JUMPDEST PUSH1 0x40 MLOAD DUP1 SWAP2 SUB SWAP1 PUSH2 0x38D PUSH2 0x13ED JUMP JUMPDEST POP POP JUMPDEST PUSH2 0x398 PUSH2 0x117A JUMP JUMPDEST PUSH1 0x1 PUSH1 0x1 PUSH1 0xA0 SHL SUB AND PUSH4 0x666ED4F1 DUP4 DUP4 PUSH1 0x40 MLOAD DUP4 PUSH4 0xFFFFFFFF AND PUSH1 0xE0 SHL DUP2 MSTORE PUSH1 0x4 ADD PUSH2 0x3C5 SWAP3 SWAP2 SWAP1 PUSH2 0x1BFD JUMP JUMPDEST PUSH1 0x0 PUSH1 0x40 MLOAD DUP1 DUP4 SUB DUP2 PUSH1 0x0 DUP8 DUP1 PUSH2 0x3DA PUSH2 0x14AD JUMP JUMPDEST ISZERO DUP1 ISZERO PUSH2 0x3EF JUMPI PUSH1 0x0 DUP1 PUSH2 0x3EC PUSH2 0x13ED JUMP JUMPDEST POP POP JUMPDEST POP GAS PUSH2 0x3F9 PUSH2 0x15B2 JUMP JUMPDEST POP POP POP POP POP POP ISZERO DUP1 ISZERO PUSH2 0x419 JUMPI RETURNDATASIZE PUSH1 0x0 DUP1 RETURNDATACOPY RETURNDATASIZE PUSH1 0x0 PUSH2 0x416 PUSH2 0x13ED JUMP JUMPDEST POP POP JUMPDEST POP POP POP POP DUP2 PUSH1 0x1 PUSH1 0x1 PUSH1 0xA0 SHL SUB AND PUSH32 0x8BEE677CE808BA08AEDFDF407CBF9C4414E77F8B66C0D96F335B275CBF534144 DUP3 PUSH1 0x40 MLOAD PUSH2 0x456 SWAP2 SWAP1 PUSH2 0x1C94 JUMP JUMPDEST PUSH1 0x40 MLOAD DUP1 SWAP2 SUB SWAP1 LOG2 POP POP JUMP JUMPDEST PUSH1 0x0 PUSH1 0x2 PUSH2 0x46E PUSH2 0x166B JUMP JUMPDEST SWAP1 PUSH2 0x100 EXP SWAP1 DIV PUSH1 0x1 PUSH1 0x1 PUSH1 0xA0 SHL SUB AND DUP2 JUMP JUMPDEST PUSH1 0x40 MLOAD PUSH3 0x461BCD PUSH1 0xE5 SHL DUP2 MSTORE PUSH1 0x4 ADD PUSH2 0x499 SWAP1 PUSH2 0x1D4E JUMP JUMPDEST PUSH1 0x40 MLOAD DUP1 SWAP2 SUB SWAP1 PUSH2 0x4A8 PUSH2 0x13ED JUMP JUMPDEST POP POP POP JUMP JUMPDEST PUSH2 0x4B5 PUSH2 0x11C5 JUMP JUMPDEST DUP1 PUSH1 0x1 DUP1 DUP1 PUSH2 0x4C2 PUSH2 0x166B JUMP JUMPDEST DUP2 PUSH1 0x1 PUSH1 0x1 PUSH1 0xA0 SHL SUB MUL NOT AND SWAP1 DUP4 PUSH1 0x1 PUSH1 0x1 PUSH1 0xA0 SHL SUB AND MUL OR SWAP1 PUSH2 0x4E4 PUSH2 0x16B7 JUMP JUMPDEST POP POP POP PUSH32 0x906A1C6BD7E3091EA86693DD029A831C19049CE77F1DCE2CE0BAB1CACBABCE22 DUP2 PUSH1 0x40 MLOAD PUSH2 0x516 SWAP2 SWAP1 PUSH2 0x1BAD JUMP JUMPDEST PUSH1 0x40 MLOAD DUP1 SWAP2 SUB SWAP1 LOG1 POP JUMP JUMPDEST PUSH1 0x0 PUSH1 0x5 PUSH2 0x52D PUSH2 0x166B JUMP JUMPDEST SWAP1 PUSH2 0x100 EXP SWAP1 DIV PUSH1 0xFF AND DUP2 JUMP JUMPDEST PUSH2 0x542 PUSH2 0x11C5 JUMP JUMPDEST DUP1 PUSH1 0x2 PUSH1 0x1 DUP2 PUSH2 0x550 PUSH2 0x166B JUMP JUMPDEST DUP2 PUSH1 0x1 PUSH1 0x1 PUSH1 0xA0 SHL SUB MUL NOT AND SWAP1 DUP4 PUSH1 0x1 PUSH1 0x1 PUSH1 0xA0 SHL SUB AND MUL OR SWAP1 PUSH2 0x572 PUSH2 0x16B7 JUMP JUMPDEST POP PUSH1 0x0 SWAP2 POP POP JUMPDEST PUSH1 0x4 DUP1 PUSH2 0x584 PUSH2 0x166B JUMP JUMPDEST SWAP1 POP DUP2 LT ISZERO PUSH2 0x6BD JUMPI PUSH1 0x0 PUSH1 0x4 DUP3 DUP2 PUSH2 0x59B PUSH2 0x166B JUMP JUMPDEST DUP2 LT PUSH2 0x5A3 JUMPI INVALID JUMPDEST SWAP1 PUSH1 0x0 MSTORE PUSH1 0x20 PUSH1 0x0 KECCAK256 ADD PUSH2 0x5B5 PUSH2 0x166B JUMP JUMPDEST SWAP1 POP PUSH1 0x0 PUSH1 0x2 PUSH2 0x5C3 PUSH2 0x166B JUMP JUMPDEST SWAP1 PUSH2 0x100 EXP SWAP1 DIV PUSH1 0x1 PUSH1 0x1 PUSH1 0xA0 SHL SUB AND PUSH1 0x1 PUSH1 0x1 PUSH1 0xA0 SHL SUB AND PUSH4 0xDACB2D01 DUP3 PUSH1 0x40 MLOAD DUP3 PUSH4 0xFFFFFFFF AND PUSH1 0xE0 SHL DUP2 MSTORE PUSH1 0x4 ADD PUSH2 0x5FE SWAP2 SWAP1 PUSH2 0x1CB0 JUMP JUMPDEST PUSH1 0x20 PUSH1 0x40 MLOAD DUP1 DUP4 SUB DUP2 DUP7 DUP1 PUSH2 0x611 PUSH2 0x14AD JUMP JUMPDEST ISZERO DUP1 ISZERO PUSH2 0x626 JUMPI PUSH1 0x0 DUP1 PUSH2 0x623 PUSH2 0x13ED JUMP JUMPDEST POP POP JUMPDEST POP GAS PUSH2 0x630 PUSH2 0x14F9 JUMP JUMPDEST POP POP POP POP POP ISZERO DUP1 ISZERO PUSH2 0x64F JUMPI RETURNDATASIZE PUSH1 0x0 DUP1 RETURNDATACOPY RETURNDATASIZE PUSH1 0x0 PUSH2 0x64C PUSH2 0x13ED JUMP JUMPDEST POP POP JUMPDEST POP POP POP POP PUSH1 0x40 MLOAD PUSH1 0x1F RETURNDATASIZE SWAP1 DUP2 ADD PUSH1 0x1F NOT AND DUP3 ADD PUSH1 0x40 MSTORE PUSH2 0x672 SWAP2 SWAP1 DUP2 ADD SWAP1 PUSH2 0x179F JUMP JUMPDEST PUSH1 0x0 DUP3 DUP2 MSTORE PUSH1 0x3 PUSH1 0x20 MSTORE PUSH1 0x40 SWAP1 KECCAK256 PUSH1 0x1 DUP2 PUSH2 0x68B PUSH2 0x166B JUMP JUMPDEST DUP2 PUSH1 0x1 PUSH1 0x1 PUSH1 0xA0 SHL SUB MUL NOT AND SWAP1 DUP4 PUSH1 0x1 PUSH1 0x1 PUSH1 0xA0 SHL SUB AND MUL OR SWAP1 PUSH2 0x6AD PUSH2 0x16B7 JUMP JUMPDEST POP POP PUSH1 0x1 SWAP1 SWAP3 ADD SWAP2 POP PUSH2 0x579 SWAP1 POP JUMP JUMPDEST POP POP JUMP JUMPDEST PUSH1 0x0 PUSH1 0x1 PUSH2 0x46E PUSH2 0x166B JUMP JUMPDEST PUSH1 0x0 PUSH2 0x6D7 PUSH2 0x1229 JUMP JUMPDEST SWAP1 POP SWAP1 JUMP JUMPDEST PUSH1 0x0 PUSH1 0x1 PUSH1 0x1 PUSH1 0xA0 SHL SUB DUP3 AND DUP2 PUSH1 0x2 PUSH2 0x6F3 PUSH2 0x166B JUMP JUMPDEST SWAP1 PUSH2 0x100 EXP SWAP1 DIV PUSH1 0x1 PUSH1 0x1 PUSH1 0xA0 SHL SUB AND PUSH1 0x1 PUSH1 0x1 PUSH1 0xA0 SHL SUB AND EQ PUSH2 0x719 JUMPI POP PUSH1 0x0 PUSH2 0x8A5 JUMP JUMPDEST PUSH1 0x0 JUMPDEST PUSH1 0x4 DUP1 PUSH2 0x727 PUSH2 0x166B JUMP JUMPDEST SWAP1 POP DUP2 LT ISZERO PUSH2 0x89F JUMPI PUSH1 0x0 PUSH1 0x4 DUP3 DUP2 PUSH2 0x73E PUSH2 0x166B JUMP JUMPDEST DUP2 LT PUSH2 0x746 JUMPI INVALID JUMPDEST SWAP1 PUSH1 0x0 MSTORE PUSH1 0x20 PUSH1 0x0 KECCAK256 ADD PUSH2 0x758 PUSH2 0x166B JUMP JUMPDEST PUSH1 0x0 DUP2 DUP2 MSTORE PUSH1 0x3 PUSH1 0x20 MSTORE SWAP1 SWAP2 POP PUSH1 0x40 SWAP1 KECCAK256 PUSH1 0x0 SWAP1 PUSH2 0x774 PUSH2 0x166B JUMP JUMPDEST PUSH1 0x1 PUSH1 0x1 PUSH1 0xA0 SHL SUB PUSH2 0x100 SWAP3 SWAP1 SWAP3 EXP SWAP1 DIV AND PUSH1 0x0 PUSH1 0x2 PUSH2 0x792 PUSH2 0x166B JUMP JUMPDEST SWAP1 PUSH2 0x100 EXP SWAP1 DIV PUSH1 0x1 PUSH1 0x1 PUSH1 0xA0 SHL SUB AND PUSH1 0x1 PUSH1 0x1 PUSH1 0xA0 SHL SUB AND PUSH4 0x21F8A721 DUP4 PUSH1 0x40 MLOAD DUP3 PUSH4 0xFFFFFFFF AND PUSH1 0xE0 SHL DUP2 MSTORE PUSH1 0x4 ADD PUSH2 0x7CD SWAP2 SWAP1 PUSH2 0x1C94 JUMP JUMPDEST PUSH1 0x20 PUSH1 0x40 MLOAD DUP1 DUP4 SUB DUP2 DUP7 DUP1 PUSH2 0x7E0 PUSH2 0x14AD JUMP JUMPDEST ISZERO DUP1 ISZERO PUSH2 0x7F5 JUMPI PUSH1 0x0 DUP1 PUSH2 0x7F2 PUSH2 0x13ED JUMP JUMPDEST POP POP JUMPDEST POP GAS PUSH2 0x7FF PUSH2 0x14F9 JUMP JUMPDEST POP POP POP POP POP ISZERO DUP1 ISZERO PUSH2 0x81E JUMPI RETURNDATASIZE PUSH1 0x0 DUP1 RETURNDATACOPY RETURNDATASIZE PUSH1 0x0 PUSH2 0x81B PUSH2 0x13ED JUMP JUMPDEST POP POP JUMPDEST POP POP POP POP PUSH1 0x40 MLOAD PUSH1 0x1F RETURNDATASIZE SWAP1 DUP2 ADD PUSH1 0x1F NOT AND DUP3 ADD PUSH1 0x40 MSTORE PUSH2 0x841 SWAP2 SWAP1 DUP2 ADD SWAP1 PUSH2 0x179F JUMP JUMPDEST PUSH1 0x1 PUSH1 0x1 PUSH1 0xA0 SHL SUB AND EQ ISZERO DUP1 PUSH2 0x886 JUMPI POP PUSH1 0x0 DUP2 DUP2 MSTORE PUSH1 0x3 PUSH1 0x20 MSTORE PUSH1 0x40 DUP2 KECCAK256 PUSH1 0x0 SWAP1 PUSH2 0x86B PUSH2 0x166B JUMP JUMPDEST SWAP1 PUSH2 0x100 EXP SWAP1 DIV PUSH1 0x1 PUSH1 0x1 PUSH1 0xA0 SHL SUB AND PUSH1 0x1 PUSH1 0x1 PUSH1 0xA0 SHL SUB AND EQ JUMPDEST ISZERO PUSH2 0x896 JUMPI PUSH1 0x0 SWAP3 POP POP POP PUSH2 0x8A5 JUMP JUMPDEST POP PUSH1 0x1 ADD PUSH2 0x71C JUMP JUMPDEST POP PUSH1 0x1 SWAP1 POP JUMPDEST SWAP2 SWAP1 POP JUMP JUMPDEST PUSH1 0x0 PUSH1 0x1 PUSH2 0x8B6 PUSH2 0x166B JUMP JUMPDEST SWAP1 PUSH2 0x100 EXP SWAP1 DIV PUSH1 0x1 PUSH1 0x1 PUSH1 0xA0 SHL SUB AND PUSH1 0x1 PUSH1 0x1 PUSH1 0xA0 SHL SUB AND GAS PUSH2 0x8D8 PUSH2 0x1458 JUMP JUMPDEST PUSH1 0x1 PUSH1 0x1 PUSH1 0xA0 SHL SUB AND EQ PUSH2 0x910 JUMPI PUSH1 0x40 MLOAD PUSH3 0x461BCD PUSH1 0xE5 SHL DUP2 MSTORE PUSH1 0x4 ADD PUSH2 0x8FE SWAP1 PUSH2 0x1CEE JUMP JUMPDEST PUSH1 0x40 MLOAD DUP1 SWAP2 SUB SWAP1 PUSH2 0x90D PUSH2 0x13ED JUMP JUMPDEST POP POP JUMPDEST PUSH32 0xB532073B38C83145E3E5135377A08BF9AAB55BC0FD7C1179CD4FB995D2A5159C PUSH1 0x0 DUP1 PUSH2 0x93C PUSH2 0x166B JUMP JUMPDEST SWAP1 PUSH2 0x100 EXP SWAP1 DIV PUSH1 0x1 PUSH1 0x1 PUSH1 0xA0 SHL SUB AND PUSH1 0x1 PUSH1 0x0 SWAP1 PUSH2 0x959 PUSH2 0x166B JUMP JUMPDEST SWAP1 PUSH2 0x100 EXP SWAP1 DIV PUSH1 0x1 PUSH1 0x1 PUSH1 0xA0 SHL SUB AND PUSH1 0x40 MLOAD PUSH2 0x977 SWAP3 SWAP2 SWAP1 PUSH2 0x1C1F JUMP JUMPDEST PUSH1 0x40 MLOAD DUP1 SWAP2 SUB SWAP1 LOG1 PUSH1 0x0 PUSH1 0x1 PUSH2 0x98B PUSH2 0x166B JUMP JUMPDEST SWAP1 PUSH2 0x100 EXP SWAP1 DIV PUSH1 0x1 PUSH1 0x1 PUSH1 0xA0 SHL SUB AND PUSH1 0x0 DUP1 PUSH2 0x100 EXP DUP2 PUSH2 0x9AB PUSH2 0x166B JUMP JUMPDEST DUP2 PUSH1 0x1 PUSH1 0x1 PUSH1 0xA0 SHL SUB MUL NOT AND SWAP1 DUP4 PUSH1 0x1 PUSH1 0x1 PUSH1 0xA0 SHL SUB AND MUL OR SWAP1 PUSH2 0x9CD PUSH2 0x16B7 JUMP JUMPDEST POP POP POP PUSH1 0x0 PUSH1 0x1 PUSH1 0x0 PUSH2 0x100 EXP DUP2 PUSH2 0x9E3 PUSH2 0x166B JUMP JUMPDEST DUP2 PUSH1 0x1 PUSH1 0x1 PUSH1 0xA0 SHL SUB MUL NOT AND SWAP1 DUP4 PUSH1 0x1 PUSH1 0x1 PUSH1 0xA0 SHL SUB AND MUL OR SWAP1 PUSH2 0x4A8 PUSH2 0x16B7 JUMP JUMPDEST PUSH1 0x0 DUP1 PUSH2 0x46E PUSH2 0x166B JUMP JUMPDEST PUSH2 0xA18 PUSH2 0x1705 JUMP JUMPDEST PUSH1 0x0 JUMPDEST PUSH1 0x4 DUP1 PUSH2 0xA26 PUSH2 0x166B JUMP JUMPDEST SWAP1 POP DUP2 LT ISZERO PUSH2 0xA6E JUMPI PUSH1 0x4 DUP2 DUP2 PUSH2 0xA3B PUSH2 0x166B JUMP JUMPDEST DUP2 LT PUSH2 0xA43 JUMPI INVALID JUMPDEST SWAP1 PUSH1 0x0 MSTORE PUSH1 0x20 PUSH1 0x0 KECCAK256 ADD PUSH2 0xA55 PUSH2 0x166B JUMP JUMPDEST DUP3 DUP3 PUSH1 0x18 DUP2 LT PUSH2 0xA61 JUMPI INVALID JUMPDEST PUSH1 0x20 MUL ADD MSTORE PUSH1 0x1 ADD PUSH2 0xA1B JUMP JUMPDEST POP SWAP1 JUMP JUMPDEST PUSH1 0x0 PUSH1 0x5 PUSH2 0xA7E PUSH2 0x166B JUMP JUMPDEST SWAP1 PUSH2 0x100 EXP SWAP1 DIV PUSH1 0xFF AND PUSH2 0xAB6 JUMPI PUSH1 0x40 MLOAD PUSH3 0x461BCD PUSH1 0xE5 SHL DUP2 MSTORE PUSH1 0x4 ADD PUSH2 0xAA4 SWAP1 PUSH2 0x1D1E JUMP JUMPDEST PUSH1 0x40 MLOAD DUP1 SWAP2 SUB SWAP1 PUSH2 0xAB3 PUSH2 0x13ED JUMP JUMPDEST POP POP JUMPDEST PUSH2 0xABE PUSH2 0x1229 JUMP JUMPDEST DUP2 GT ISZERO PUSH2 0xAEF JUMPI PUSH1 0x40 MLOAD PUSH3 0x461BCD PUSH1 0xE5 SHL DUP2 MSTORE PUSH1 0x4 ADD PUSH2 0xADD SWAP1 PUSH2 0x1D2E JUMP JUMPDEST PUSH1 0x40 MLOAD DUP1 SWAP2 SUB SWAP1 PUSH2 0xAEC PUSH2 0x13ED JUMP JUMPDEST POP POP JUMPDEST PUSH2 0xAF7 PUSH2 0x12F6 JUMP JUMPDEST PUSH1 0x1 PUSH1 0x1 PUSH1 0xA0 SHL SUB AND PUSH4 0xD37C4D8B GAS PUSH2 0xB0E PUSH2 0x1458 JUMP JUMPDEST PUSH1 0x40 MLOAD DUP3 PUSH4 0xFFFFFFFF AND PUSH1 0xE0 SHL DUP2 MSTORE PUSH1 0x4 ADD PUSH2 0xB2A SWAP2 SWAP1 PUSH2 0x1BE3 JUMP JUMPDEST PUSH1 0x20 PUSH1 0x40 MLOAD DUP1 DUP4 SUB DUP2 DUP7 DUP1 PUSH2 0xB3D PUSH2 0x14AD JUMP JUMPDEST ISZERO DUP1 ISZERO PUSH2 0xB52 JUMPI PUSH1 0x0 DUP1 PUSH2 0xB4F PUSH2 0x13ED JUMP JUMPDEST POP POP JUMPDEST POP GAS PUSH2 0xB5C PUSH2 0x14F9 JUMP JUMPDEST POP POP POP POP POP ISZERO DUP1 ISZERO PUSH2 0xB7B JUMPI RETURNDATASIZE PUSH1 0x0 DUP1 RETURNDATACOPY RETURNDATASIZE PUSH1 0x0 PUSH2 0xB78 PUSH2 0x13ED JUMP JUMPDEST POP POP JUMPDEST POP POP POP POP PUSH1 0x40 MLOAD PUSH1 0x1F RETURNDATASIZE SWAP1 DUP2 ADD PUSH1 0x1F NOT AND DUP3 ADD PUSH1 0x40 MSTORE PUSH2 0xB9E SWAP2 SWAP1 DUP2 ADD SWAP1 PUSH2 0x187E JUMP JUMPDEST ISZERO PUSH2 0xBCD JUMPI PUSH1 0x40 MLOAD PUSH3 0x461BCD PUSH1 0xE5 SHL DUP2 MSTORE PUSH1 0x4 ADD PUSH2 0xBBB SWAP1 PUSH2 0x1D0E JUMP JUMPDEST PUSH1 0x40 MLOAD DUP1 SWAP2 SUB SWAP1 PUSH2 0xBCA PUSH2 0x13ED JUMP JUMPDEST POP POP JUMPDEST PUSH2 0xBD5 PUSH2 0x117A JUMP JUMPDEST PUSH1 0x1 PUSH1 0x1 PUSH1 0xA0 SHL SUB AND PUSH4 0x23B872DD GAS PUSH2 0xBEC PUSH2 0x1458 JUMP JUMPDEST GAS PUSH4 0x996D79A5 MSIZE DUP2 PUSH1 0xE0 SHL DUP2 MSTORE PUSH1 0x20 DUP2 PUSH1 0x4 DUP4 CALLER PUSH1 0x0 SWAP1 GAS CALL PC PUSH1 0xE ADD JUMPI RETURNDATASIZE PUSH1 0x0 DUP1 RETURNDATACOPY RETURNDATASIZE PUSH1 0x0 REVERT JUMPDEST RETURNDATASIZE PUSH1 0x1 EQ ISZERO PC PUSH1 0xA ADD JUMPI PUSH1 0x1 PUSH1 0x0 RETURN JUMPDEST DUP1 MLOAD SWAP3 POP PUSH1 0x0 JUMPDEST PUSH1 0x40 DUP2 LT ISZERO PUSH2 0xC42 JUMPI PUSH1 0x0 DUP3 DUP3 ADD MSTORE PUSH1 0x20 ADD PUSH2 0xC2B JUMP JUMPDEST POP POP POP DUP5 PUSH1 0x40 MLOAD DUP5 PUSH4 0xFFFFFFFF AND PUSH1 0xE0 SHL DUP2 MSTORE PUSH1 0x4 ADD PUSH2 0xC64 SWAP4 SWAP3 SWAP2 SWAP1 PUSH2 0x1BBB JUMP JUMPDEST PUSH1 0x20 PUSH1 0x40 MLOAD DUP1 DUP4 SUB DUP2 PUSH1 0x0 DUP8 DUP1 PUSH2 0xC79 PUSH2 0x14AD JUMP JUMPDEST ISZERO DUP1 ISZERO PUSH2 0xC8E JUMPI PUSH1 0x0 DUP1 PUSH2 0xC8B PUSH2 0x13ED JUMP JUMPDEST POP POP JUMPDEST POP GAS PUSH2 0xC98 PUSH2 0x15B2 JUMP JUMPDEST POP POP POP POP POP POP ISZERO DUP1 ISZERO PUSH2 0xCB8 JUMPI RETURNDATASIZE PUSH1 0x0 DUP1 RETURNDATACOPY RETURNDATASIZE PUSH1 0x0 PUSH2 0xCB5 PUSH2 0x13ED JUMP JUMPDEST POP POP JUMPDEST POP POP POP POP PUSH1 0x40 MLOAD PUSH1 0x1F RETURNDATASIZE SWAP1 DUP2 ADD PUSH1 0x1F NOT AND DUP3 ADD PUSH1 0x40 MSTORE PUSH2 0xCDB SWAP2 SWAP1 DUP2 ADD SWAP1 PUSH2 0x1809 JUMP JUMPDEST POP PUSH1 0x60 GAS PUSH2 0xCE7 PUSH2 0x1458 JUMP JUMPDEST DUP3 PUSH1 0x40 MLOAD PUSH1 0x24 ADD PUSH2 0xCF9 SWAP3 SWAP2 SWAP1 PUSH2 0x1BFD JUMP JUMPDEST PUSH1 0x40 MLOAD PUSH1 0x1F NOT DUP2 DUP4 SUB ADD DUP2 MSTORE PUSH1 0x40 SWAP2 SWAP1 SWAP2 MSTORE PUSH4 0x404D171 PUSH1 0xE0 SHL PUSH1 0x20 DUP3 ADD DUP1 MLOAD PUSH1 0x1 PUSH1 0x1 PUSH1 0xE0 SHL SUB AND SWAP1 SWAP2 OR SWAP1 MSTORE SWAP1 POP PUSH2 0xD31 PUSH2 0x10D5 JUMP JUMPDEST PUSH1 0x1 PUSH1 0x1 PUSH1 0xA0 SHL SUB AND PUSH4 0x3DBB202B PUSH2 0xD47 PUSH2 0x1124 JUMP JUMPDEST DUP4 PUSH3 0x2DC6C0 PUSH1 0x40 MLOAD DUP5 PUSH4 0xFFFFFFFF AND PUSH1 0xE0 SHL DUP2 MSTORE PUSH1 0x4 ADD PUSH2 0xD6A SWAP4 SWAP3 SWAP2 SWAP1 PUSH2 0x1C48 JUMP JUMPDEST PUSH1 0x0 PUSH1 0x40 MLOAD DUP1 DUP4 SUB DUP2 PUSH1 0x0 DUP8 DUP1 PUSH2 0xD7F PUSH2 0x14AD JUMP JUMPDEST ISZERO DUP1 ISZERO PUSH2 0xD94 JUMPI PUSH1 0x0 DUP1 PUSH2 0xD91 PUSH2 0x13ED JUMP JUMPDEST POP POP JUMPDEST POP GAS PUSH2 0xD9E PUSH2 0x15B2 JUMP JUMPDEST POP POP POP POP POP POP ISZERO DUP1 ISZERO PUSH2 0xDBE JUMPI RETURNDATASIZE PUSH1 0x0 DUP1 RETURNDATACOPY RETURNDATASIZE PUSH1 0x0 PUSH2 0xDBB PUSH2 0x13ED JUMP JUMPDEST POP POP JUMPDEST POP POP POP POP GAS PUSH2 0xDCB PUSH2 0x1458 JUMP JUMPDEST PUSH1 0x1 PUSH1 0x1 PUSH1 0xA0 SHL SUB AND PUSH32 0xE1FFFCC4923D04B559F4D29A8BFC6CDA04EB5B0D3C460751C2402C5C5CC9109C DUP4 PUSH1 0x40 MLOAD PUSH2 0x456 SWAP2 SWAP1 PUSH2 0x1C94 JUMP JUMPDEST PUSH1 0x4 DUP2 DUP2 PUSH2 0xE0F PUSH2 0x166B JUMP JUMPDEST DUP2 LT PUSH2 0xE17 JUMPI INVALID JUMPDEST SWAP1 PUSH1 0x0 MSTORE PUSH1 0x20 PUSH1 0x0 KECCAK256 ADD SWAP1 POP PUSH2 0xE2B PUSH2 0x166B JUMP JUMPDEST DUP2 JUMP JUMPDEST PUSH2 0xE36 PUSH2 0x11C5 JUMP JUMPDEST PUSH1 0x0 PUSH1 0x5 PUSH1 0x1 DUP2 PUSH2 0xE45 PUSH2 0x166B JUMP JUMPDEST DUP2 PUSH1 0xFF MUL NOT AND SWAP1 DUP4 ISZERO ISZERO MUL OR SWAP1 PUSH2 0xE5A PUSH2 0x16B7 JUMP JUMPDEST POP POP POP PUSH1 0x0 PUSH2 0xE67 PUSH2 0x117A JUMP JUMPDEST SWAP1 POP PUSH1 0x0 DUP2 PUSH1 0x1 PUSH1 0x1 PUSH1 0xA0 SHL SUB AND PUSH4 0x70A08231 GAS PUSH4 0x996D79A5 MSIZE DUP2 PUSH1 0xE0 SHL DUP2 MSTORE PUSH1 0x20 DUP2 PUSH1 0x4 DUP4 CALLER PUSH1 0x0 SWAP1 GAS CALL PC PUSH1 0xE ADD JUMPI RETURNDATASIZE PUSH1 0x0 DUP1 RETURNDATACOPY RETURNDATASIZE PUSH1 0x0 REVERT JUMPDEST RETURNDATASIZE PUSH1 0x1 EQ ISZERO PC PUSH1 0xA ADD JUMPI PUSH1 0x1 PUSH1 0x0 RETURN JUMPDEST DUP1 MLOAD SWAP3 POP PUSH1 0x0 JUMPDEST PUSH1 0x40 DUP2 LT ISZERO PUSH2 0xED0 JUMPI PUSH1 0x0 DUP3 DUP3 ADD MSTORE PUSH1 0x20 ADD PUSH2 0xEB9 JUMP JUMPDEST POP POP POP PUSH1 0x40 MLOAD DUP3 PUSH4 0xFFFFFFFF AND PUSH1 0xE0 SHL DUP2 MSTORE PUSH1 0x4 ADD PUSH2 0xEEF SWAP2 SWAP1 PUSH2 0x1BAD JUMP JUMPDEST PUSH1 0x20 PUSH1 0x40 MLOAD DUP1 DUP4 SUB DUP2 DUP7 DUP1 PUSH2 0xF02 PUSH2 0x14AD JUMP JUMPDEST ISZERO DUP1 ISZERO PUSH2 0xF17 JUMPI PUSH1 0x0 DUP1 PUSH2 0xF14 PUSH2 0x13ED JUMP JUMPDEST POP POP JUMPDEST POP GAS PUSH2 0xF21 PUSH2 0x14F9 JUMP JUMPDEST POP POP POP POP POP ISZERO DUP1 ISZERO PUSH2 0xF40 JUMPI RETURNDATASIZE PUSH1 0x0 DUP1 RETURNDATACOPY RETURNDATASIZE PUSH1 0x0 PUSH2 0xF3D PUSH2 0x13ED JUMP JUMPDEST POP POP JUMPDEST POP POP POP POP PUSH1 0x40 MLOAD PUSH1 0x1F RETURNDATASIZE SWAP1 DUP2 ADD PUSH1 0x1F NOT AND DUP3 ADD PUSH1 0x40 MSTORE PUSH2 0xF63 SWAP2 SWAP1 DUP2 ADD SWAP1 PUSH2 0x187E JUMP JUMPDEST SWAP1 POP DUP2 PUSH1 0x1 PUSH1 0x1 PUSH1 0xA0 SHL SUB AND PUSH4 0xA9059CBB DUP5 DUP4 PUSH1 0x40 MLOAD DUP4 PUSH4 0xFFFFFFFF AND PUSH1 0xE0 SHL DUP2 MSTORE PUSH1 0x4 ADD PUSH2 0xF93 SWAP3 SWAP2 SWAP1 PUSH2 0x1BFD JUMP JUMPDEST PUSH1 0x20 PUSH1 0x40 MLOAD DUP1 DUP4 SUB DUP2 PUSH1 0x0 DUP8 DUP1 PUSH2 0xFA8 PUSH2 0x14AD JUMP JUMPDEST ISZERO DUP1 ISZERO PUSH2 0xFBD JUMPI PUSH1 0x0 DUP1 PUSH2 0xFBA PUSH2 0x13ED JUMP JUMPDEST POP POP JUMPDEST POP GAS PUSH2 0xFC7 PUSH2 0x15B2 JUMP JUMPDEST POP POP POP POP POP POP ISZERO DUP1 ISZERO PUSH2 0xFE7 JUMPI RETURNDATASIZE PUSH1 0x0 DUP1 RETURNDATACOPY RETURNDATASIZE PUSH1 0x0 PUSH2 0xFE4 PUSH2 0x13ED JUMP JUMPDEST POP POP JUMPDEST POP POP POP POP PUSH1 0x40 MLOAD PUSH1 0x1F RETURNDATASIZE SWAP1 DUP2 ADD PUSH1 0x1F NOT AND DUP3 ADD PUSH1 0x40 MSTORE PUSH2 0x100A SWAP2 SWAP1 DUP2 ADD SWAP1 PUSH2 0x1809 JUMP JUMPDEST POP PUSH32 0xB632607FE36B04253CCB5152AC37C3DFBBC56A30EE68F4CD206236065CBD6FD6 GAS PUSH4 0x996D79A5 MSIZE DUP2 PUSH1 0xE0 SHL DUP2 MSTORE PUSH1 0x20 DUP2 PUSH1 0x4 DUP4 CALLER PUSH1 0x0 SWAP1 GAS CALL PC PUSH1 0xE ADD JUMPI RETURNDATASIZE PUSH1 0x0 DUP1 RETURNDATACOPY RETURNDATASIZE PUSH1 0x0 REVERT JUMPDEST RETURNDATASIZE PUSH1 0x1 EQ ISZERO PC PUSH1 0xA ADD JUMPI PUSH1 0x1 PUSH1 0x0 RETURN JUMPDEST DUP1 MLOAD SWAP3 POP PUSH1 0x0 JUMPDEST PUSH1 0x40 DUP2 LT ISZERO PUSH2 0x1082 JUMPI PUSH1 0x0 DUP3 DUP3 ADD MSTORE PUSH1 0x20 ADD PUSH2 0x106B JUMP JUMPDEST POP POP POP DUP5 DUP4 PUSH1 0x40 MLOAD PUSH2 0x1096 SWAP4 SWAP3 SWAP2 SWAP1 PUSH2 0x1C3A JUMP JUMPDEST PUSH1 0x40 MLOAD DUP1 SWAP2 SUB SWAP1 LOG1 POP POP POP JUMP JUMPDEST PUSH1 0x40 MLOAD PUSH3 0x461BCD PUSH1 0xE5 SHL DUP2 MSTORE PUSH1 0x4 ADD PUSH2 0x10BB SWAP1 PUSH2 0x1D4E JUMP JUMPDEST PUSH1 0x40 MLOAD DUP1 SWAP2 SUB SWAP1 PUSH2 0x10CA PUSH2 0x13ED JUMP JUMPDEST POP POP POP POP JUMP JUMPDEST PUSH1 0x18 DUP2 JUMP JUMPDEST PUSH1 0x0 PUSH2 0x6D7 PUSH13 0x32BC3A1D26B2B9B9B2B733B2B9 PUSH1 0x99 SHL PUSH1 0x40 MLOAD PUSH1 0x40 DUP1 DUP3 ADD SWAP1 MSTORE PUSH1 0x19 DUP2 MSTORE PUSH32 0x4D697373696E67204D657373656E676572206164647265737300000000000000 PUSH1 0x20 DUP3 ADD MSTORE PUSH2 0x1333 JUMP JUMPDEST PUSH1 0x0 PUSH2 0x6D7 PUSH20 0x185B1D0E94D958DBDB99185C9E51195C1BDCDA5D PUSH1 0x62 SHL PUSH1 0x40 MLOAD PUSH1 0x40 DUP1 DUP3 ADD SWAP1 MSTORE PUSH1 0x19 DUP2 MSTORE PUSH32 0x4D697373696E6720436F6D70616E696F6E206164647265737300000000000000 PUSH1 0x20 DUP3 ADD MSTORE PUSH2 0x1333 JUMP JUMPDEST PUSH1 0x0 PUSH2 0x6D7 PUSH9 0xA6F2DCE8D0CAE8D2F PUSH1 0xBB SHL PUSH1 0x40 MLOAD PUSH1 0x40 DUP1 DUP3 ADD SWAP1 MSTORE PUSH1 0x19 DUP2 MSTORE PUSH32 0x4D697373696E672053796E746865746978206164647265737300000000000000 PUSH1 0x20 DUP3 ADD MSTORE PUSH2 0x1333 JUMP JUMPDEST PUSH1 0x0 DUP1 PUSH2 0x11D0 PUSH2 0x166B JUMP JUMPDEST SWAP1 PUSH2 0x100 EXP SWAP1 DIV PUSH1 0x1 PUSH1 0x1 PUSH1 0xA0 SHL SUB AND PUSH1 0x1 PUSH1 0x1 PUSH1 0xA0 SHL SUB AND GAS PUSH2 0x11F2 PUSH2 0x1458 JUMP JUMPDEST PUSH1 0x1 PUSH1 0x1 PUSH1 0xA0 SHL SUB AND EQ PUSH2 0x1227 JUMPI PUSH1 0x40 MLOAD PUSH3 0x461BCD PUSH1 0xE5 SHL DUP2 MSTORE PUSH1 0x4 ADD PUSH2 0x1218 SWAP1 PUSH2 0x1D3E JUMP JUMPDEST PUSH1 0x40 MLOAD DUP1 SWAP2 SUB SWAP1 PUSH2 0x6BD PUSH2 0x13ED JUMP JUMPDEST JUMP JUMPDEST PUSH1 0x0 PUSH2 0x1233 PUSH2 0x139C JUMP JUMPDEST PUSH1 0x1 PUSH1 0x1 PUSH1 0xA0 SHL SUB AND PUSH4 0x23257C2B PUSH14 0x53797374656D53657474696E6773 PUSH1 0x90 SHL PUSH14 0x1B585E1A5B5D5B51195C1BDCDA5D PUSH1 0x92 SHL PUSH1 0x40 MLOAD DUP4 PUSH4 0xFFFFFFFF AND PUSH1 0xE0 SHL DUP2 MSTORE PUSH1 0x4 ADD PUSH2 0x1282 SWAP3 SWAP2 SWAP1 PUSH2 0x1CA2 JUMP JUMPDEST PUSH1 0x20 PUSH1 0x40 MLOAD DUP1 DUP4 SUB DUP2 DUP7 DUP1 PUSH2 0x1295 PUSH2 0x14AD JUMP JUMPDEST ISZERO DUP1 ISZERO PUSH2 0x12AA JUMPI PUSH1 0x0 DUP1 PUSH2 0x12A7 PUSH2 0x13ED JUMP JUMPDEST POP POP JUMPDEST POP GAS PUSH2 0x12B4 PUSH2 0x14F9 JUMP JUMPDEST POP POP POP POP POP ISZERO DUP1 ISZERO PUSH2 0x12D3 JUMPI RETURNDATASIZE PUSH1 0x0 DUP1 RETURNDATACOPY RETURNDATASIZE PUSH1 0x0 PUSH2 0x12D0 PUSH2 0x13ED JUMP JUMPDEST POP POP JUMPDEST POP POP POP POP PUSH1 0x40 MLOAD PUSH1 0x1F RETURNDATASIZE SWAP1 DUP2 ADD PUSH1 0x1F NOT AND DUP3 ADD PUSH1 0x40 MSTORE PUSH2 0x6D7 SWAP2 SWAP1 DUP2 ADD SWAP1 PUSH2 0x187E JUMP JUMPDEST PUSH1 0x0 PUSH2 0x6D7 PUSH6 0x24B9B9BAB2B9 PUSH1 0xD1 SHL PUSH1 0x40 MLOAD PUSH1 0x40 DUP1 DUP3 ADD SWAP1 MSTORE PUSH1 0x16 DUP2 MSTORE PUSH22 0x4D697373696E67204973737565722061646472657373 PUSH1 0x50 SHL PUSH1 0x20 DUP3 ADD MSTORE JUMPDEST PUSH1 0x0 DUP3 DUP2 MSTORE PUSH1 0x3 PUSH1 0x20 MSTORE DUP1 PUSH1 0x40 DUP2 KECCAK256 PUSH1 0x0 SWAP1 PUSH2 0x134D PUSH2 0x166B JUMP JUMPDEST PUSH1 0x1 PUSH1 0x1 PUSH1 0xA0 SHL SUB PUSH2 0x100 SWAP3 SWAP1 SWAP3 EXP SWAP1 DIV AND SWAP1 POP DUP3 DUP2 PUSH2 0x1392 JUMPI PUSH1 0x40 MLOAD PUSH3 0x461BCD PUSH1 0xE5 SHL DUP2 MSTORE PUSH1 0x4 ADD PUSH2 0x1380 SWAP2 SWAP1 PUSH2 0x1CDD JUMP JUMPDEST PUSH1 0x40 MLOAD DUP1 SWAP2 SUB SWAP1 PUSH2 0x138F PUSH2 0x13ED JUMP JUMPDEST POP POP JUMPDEST POP SWAP1 POP JUMPDEST SWAP3 SWAP2 POP POP JUMP JUMPDEST PUSH1 0x0 PUSH2 0x6D7 PUSH15 0x466C657869626C6553746F72616765 PUSH1 0x88 SHL PUSH1 0x40 MLOAD PUSH1 0x40 DUP1 DUP3 ADD SWAP1 MSTORE PUSH1 0x1F DUP2 MSTORE PUSH32 0x4D697373696E6720466C657869626C6553746F72616765206164647265737300 PUSH1 0x20 DUP3 ADD MSTORE PUSH2 0x1333 JUMP JUMPDEST PUSH4 0x2A2A7ADB MSIZE DUP2 PUSH1 0xE0 SHL DUP2 MSTORE PUSH1 0x4 DUP2 ADD PUSH1 0x20 DUP2 MSTORE DUP6 PUSH1 0x20 DUP3 ADD MSTORE PUSH1 0x0 JUMPDEST DUP7 DUP2 LT ISZERO PUSH2 0x1425 JUMPI DUP1 DUP7 ADD MLOAD DUP3 DUP3 ADD PUSH1 0x40 ADD MSTORE PUSH1 0x20 ADD PUSH2 0x140A JUMP JUMPDEST POP PUSH1 0x20 DUP3 DUP8 PUSH1 0x64 ADD DUP5 CALLER PUSH1 0x0 SWAP1 GAS CALL PC PUSH1 0xE ADD JUMPI RETURNDATASIZE PUSH1 0x0 DUP1 RETURNDATACOPY RETURNDATASIZE PUSH1 0x0 REVERT JUMPDEST RETURNDATASIZE PUSH1 0x1 EQ ISZERO PC PUSH1 0xA ADD JUMPI PUSH1 0x1 PUSH1 0x0 RETURN JUMPDEST POP POP POP JUMP JUMPDEST PUSH4 0x73509064 MSIZE DUP2 PUSH1 0xE0 SHL DUP2 MSTORE PUSH1 0x20 DUP2 PUSH1 0x4 DUP4 CALLER PUSH1 0x0 SWAP1 GAS CALL PC PUSH1 0xE ADD JUMPI RETURNDATASIZE PUSH1 0x0 DUP1 RETURNDATACOPY RETURNDATASIZE PUSH1 0x0 REVERT JUMPDEST RETURNDATASIZE PUSH1 0x1 EQ ISZERO PC PUSH1 0xA ADD JUMPI PUSH1 0x1 PUSH1 0x0 RETURN JUMPDEST DUP1 MLOAD SWAP4 POP PUSH1 0x0 JUMPDEST PUSH1 0x40 DUP2 LT ISZERO PUSH2 0x4A8 JUMPI PUSH1 0x0 DUP3 DUP3 ADD MSTORE PUSH1 0x20 ADD PUSH2 0x1496 JUMP JUMPDEST PUSH4 0x8435035B MSIZE DUP2 PUSH1 0xE0 SHL DUP2 MSTORE DUP4 PUSH1 0x4 DUP3 ADD MSTORE PUSH1 0x20 DUP2 PUSH1 0x24 DUP4 CALLER PUSH1 0x0 SWAP1 GAS CALL PC PUSH1 0xE ADD JUMPI RETURNDATASIZE PUSH1 0x0 DUP1 RETURNDATACOPY RETURNDATASIZE PUSH1 0x0 REVERT JUMPDEST RETURNDATASIZE PUSH1 0x1 EQ ISZERO PC PUSH1 0xA ADD JUMPI PUSH1 0x1 PUSH1 0x0 RETURN JUMPDEST DUP1 MLOAD PUSH1 0x0 DUP3 MSTORE SWAP4 POP PUSH1 0x20 PUSH2 0x1496 JUMP JUMPDEST PUSH4 0x8540661F MSIZE DUP2 PUSH1 0xE0 SHL DUP2 MSTORE DUP4 PUSH1 0x4 DUP3 ADD MSTORE DUP5 PUSH1 0x24 DUP3 ADD MSTORE PUSH1 0x60 PUSH1 0x44 DUP3 ADD MSTORE DUP7 PUSH1 0x64 DUP3 ADD MSTORE PUSH1 0x84 DUP2 ADD PUSH1 0x0 JUMPDEST DUP9 DUP2 LT ISZERO PUSH2 0x153D JUMPI DUP1 DUP9 ADD MLOAD DUP3 DUP3 ADD MSTORE PUSH1 0x20 ADD PUSH2 0x1525 JUMP JUMPDEST POP DUP8 PUSH2 0x104 ADD DUP3 ADD PUSH1 0x60 DUP4 DUP11 PUSH2 0x104 ADD DUP6 CALLER PUSH1 0x0 SWAP1 GAS CALL PC PUSH1 0xE ADD JUMPI RETURNDATASIZE PUSH1 0x0 DUP1 RETURNDATACOPY RETURNDATASIZE PUSH1 0x0 REVERT JUMPDEST RETURNDATASIZE PUSH1 0x1 EQ ISZERO PC PUSH1 0xA ADD JUMPI PUSH1 0x1 PUSH1 0x0 RETURN JUMPDEST DUP3 MLOAD PUSH1 0x40 DUP5 ADD MLOAD RETURNDATASIZE PUSH1 0x0 DUP7 RETURNDATACOPY DUP13 DUP13 DUP3 PUSH1 0x60 DUP9 ADD CALLER POP PUSH1 0x0 PUSH1 0x4 GAS CALL POP MSIZE DUP6 JUMPDEST DUP2 DUP2 LT ISZERO PUSH2 0x15A6 JUMPI PUSH1 0x0 DUP2 MSTORE PUSH1 0x20 ADD PUSH2 0x1592 JUMP JUMPDEST POP SWAP2 SWAP13 POP POP POP POP POP POP POP JUMP JUMPDEST PUSH4 0x85979F76 MSIZE DUP2 PUSH1 0xE0 SHL DUP2 MSTORE DUP4 PUSH1 0x4 DUP3 ADD MSTORE DUP5 PUSH1 0x24 DUP3 ADD MSTORE PUSH1 0x60 PUSH1 0x44 DUP3 ADD MSTORE DUP8 PUSH1 0x64 DUP3 ADD MSTORE PUSH1 0x84 DUP2 ADD PUSH1 0x0 JUMPDEST DUP10 DUP2 LT ISZERO PUSH2 0x15F6 JUMPI DUP1 DUP10 ADD MLOAD DUP3 DUP3 ADD MSTORE PUSH1 0x20 ADD PUSH2 0x15DE JUMP JUMPDEST POP DUP9 PUSH2 0x104 ADD DUP3 ADD PUSH1 0x60 DUP4 DUP12 PUSH2 0x104 ADD DUP6 CALLER PUSH1 0x0 SWAP1 GAS CALL PC PUSH1 0xE ADD JUMPI RETURNDATASIZE PUSH1 0x0 DUP1 RETURNDATACOPY RETURNDATASIZE PUSH1 0x0 REVERT JUMPDEST RETURNDATASIZE PUSH1 0x1 EQ ISZERO PC PUSH1 0xA ADD JUMPI PUSH1 0x1 PUSH1 0x0 RETURN JUMPDEST DUP3 MLOAD PUSH1 0x40 DUP5 ADD MLOAD RETURNDATASIZE PUSH1 0x0 DUP7 RETURNDATACOPY DUP14 DUP14 DUP3 PUSH1 0x60 DUP9 ADD CALLER POP PUSH1 0x0 PUSH1 0x4 GAS CALL POP MSIZE DUP6 JUMPDEST DUP2 DUP2 LT ISZERO PUSH2 0x165F JUMPI PUSH1 0x0 DUP2 MSTORE PUSH1 0x20 ADD PUSH2 0x164B JUMP JUMPDEST POP SWAP2 SWAP14 POP POP POP POP POP POP POP JUMP JUMPDEST PUSH4 0x3DAA959 MSIZE DUP2 PUSH1 0xE0 SHL DUP2 MSTORE DUP4 PUSH1 0x4 DUP3 ADD MSTORE PUSH1 0x20 DUP2 PUSH1 0x24 DUP4 CALLER PUSH1 0x0 SWAP1 GAS CALL PC PUSH1 0xE ADD JUMPI RETURNDATASIZE PUSH1 0x0 DUP1 RETURNDATACOPY RETURNDATASIZE PUSH1 0x0 REVERT JUMPDEST RETURNDATASIZE PUSH1 0x1 EQ ISZERO PC PUSH1 0xA ADD JUMPI PUSH1 0x1 PUSH1 0x0 RETURN JUMPDEST DUP1 MLOAD PUSH1 0x0 DUP3 MSTORE SWAP4 POP PUSH1 0x20 PUSH2 0x1496 JUMP JUMPDEST PUSH4 0x22BD64C0 MSIZE DUP2 PUSH1 0xE0 SHL DUP2 MSTORE DUP4 PUSH1 0x4 DUP3 ADD MSTORE DUP5 PUSH1 0x24 DUP3 ADD MSTORE PUSH1 0x0 DUP2 PUSH1 0x44 DUP4 CALLER PUSH1 0x0 SWAP1 GAS CALL PC PUSH1 0xE ADD JUMPI RETURNDATASIZE PUSH1 0x0 DUP1 RETURNDATACOPY RETURNDATASIZE PUSH1 0x0 REVERT JUMPDEST RETURNDATASIZE PUSH1 0x1 EQ ISZERO PC PUSH1 0xA ADD JUMPI PUSH1 0x1 PUSH1 0x0 RETURN JUMPDEST PUSH1 0x0 DUP2 MSTORE PUSH1 0x20 PUSH2 0x1496 JUMP JUMPDEST PUSH1 0x40 MLOAD PUSH2 0x300 DUP1 DUP3 ADD PUSH1 0x40 MSTORE PUSH1 0x18 SWAP1 DUP3 SWAP1 DUP1 CODESIZE DUP4 CODECOPY POP SWAP2 SWAP3 SWAP2 POP POP JUMP JUMPDEST DUP1 CALLDATALOAD PUSH2 0x1396 DUP2 PUSH2 0x1E0C JUMP JUMPDEST PUSH1 0x0 DUP2 MLOAD SWAP1 POP PUSH2 0x1396 DUP2 PUSH2 0x1E0C JUMP JUMPDEST PUSH1 0x0 DUP2 MLOAD SWAP1 POP PUSH2 0x1396 DUP2 PUSH2 0x1E29 JUMP JUMPDEST DUP1 CALLDATALOAD PUSH2 0x1396 DUP2 PUSH2 0x1E32 JUMP JUMPDEST DUP1 CALLDATALOAD PUSH2 0x1396 DUP2 PUSH2 0x1E3B JUMP JUMPDEST PUSH1 0x0 DUP2 MLOAD SWAP1 POP PUSH2 0x1396 DUP2 PUSH2 0x1E3B JUMP JUMPDEST PUSH1 0x0 PUSH1 0x20 DUP3 DUP5 SUB SLT ISZERO PUSH2 0x178B JUMPI PUSH1 0x0 DUP1 PUSH2 0x1788 PUSH2 0x13ED JUMP JUMPDEST POP POP JUMPDEST PUSH1 0x0 PUSH2 0x1797 DUP5 DUP5 PUSH2 0x1722 JUMP JUMPDEST SWAP5 SWAP4 POP POP POP POP JUMP JUMPDEST PUSH1 0x0 PUSH1 0x20 DUP3 DUP5 SUB SLT ISZERO PUSH2 0x17BA JUMPI PUSH1 0x0 DUP1 PUSH2 0x17B7 PUSH2 0x13ED JUMP JUMPDEST POP POP JUMPDEST PUSH1 0x0 PUSH2 0x1797 DUP5 DUP5 PUSH2 0x172D JUMP JUMPDEST PUSH1 0x0 DUP1 PUSH1 0x40 DUP4 DUP6 SUB SLT ISZERO PUSH2 0x17E2 JUMPI PUSH1 0x0 DUP1 PUSH2 0x17DF PUSH2 0x13ED JUMP JUMPDEST POP POP JUMPDEST PUSH1 0x0 PUSH2 0x17EE DUP6 DUP6 PUSH2 0x1722 JUMP JUMPDEST SWAP3 POP POP PUSH1 0x20 PUSH2 0x17FF DUP6 DUP3 DUP7 ADD PUSH2 0x1756 JUMP JUMPDEST SWAP2 POP POP SWAP3 POP SWAP3 SWAP1 POP JUMP JUMPDEST PUSH1 0x0 PUSH1 0x20 DUP3 DUP5 SUB SLT ISZERO PUSH2 0x1824 JUMPI PUSH1 0x0 DUP1 PUSH2 0x1821 PUSH2 0x13ED JUMP JUMPDEST POP POP JUMPDEST PUSH1 0x0 PUSH2 0x1797 DUP5 DUP5 PUSH2 0x173C JUMP JUMPDEST PUSH1 0x0 PUSH1 0x20 DUP3 DUP5 SUB SLT ISZERO PUSH2 0x184B JUMPI PUSH1 0x0 DUP1 PUSH2 0x1848 PUSH2 0x13ED JUMP JUMPDEST POP POP JUMPDEST PUSH1 0x0 PUSH2 0x1797 DUP5 DUP5 PUSH2 0x174B JUMP JUMPDEST PUSH1 0x0 PUSH1 0x20 DUP3 DUP5 SUB SLT ISZERO PUSH2 0x1872 JUMPI PUSH1 0x0 DUP1 PUSH2 0x186F PUSH2 0x13ED JUMP JUMPDEST POP POP JUMPDEST PUSH1 0x0 PUSH2 0x1797 DUP5 DUP5 PUSH2 0x1756 JUMP JUMPDEST PUSH1 0x0 PUSH1 0x20 DUP3 DUP5 SUB SLT ISZERO PUSH2 0x1899 JUMPI PUSH1 0x0 DUP1 PUSH2 0x1896 PUSH2 0x13ED JUMP JUMPDEST POP POP JUMPDEST PUSH1 0x0 PUSH2 0x1797 DUP5 DUP5 PUSH2 0x1761 JUMP JUMPDEST PUSH1 0x0 PUSH2 0x18B1 DUP4 DUP4 PUSH2 0x192E JUMP JUMPDEST POP POP PUSH1 0x20 ADD SWAP1 JUMP JUMPDEST PUSH2 0x18C2 DUP2 PUSH2 0x1DC0 JUMP JUMPDEST DUP3 MSTORE POP POP JUMP JUMPDEST PUSH2 0x18C2 DUP2 PUSH2 0x1D90 JUMP JUMPDEST PUSH2 0x18DA DUP2 PUSH2 0x1D71 JUMP JUMPDEST PUSH2 0x18E4 DUP2 DUP5 PUSH2 0x8A5 JUMP JUMPDEST SWAP3 POP PUSH2 0x18EF DUP3 PUSH2 0x1D6E JUMP JUMPDEST DUP1 PUSH1 0x0 JUMPDEST DUP4 DUP2 LT ISZERO PUSH2 0x191D JUMPI DUP2 MLOAD PUSH2 0x1907 DUP8 DUP3 PUSH2 0x18A5 JUMP JUMPDEST SWAP7 POP PUSH2 0x1912 DUP4 PUSH2 0x1D81 JUMP JUMPDEST SWAP3 POP POP PUSH1 0x1 ADD PUSH2 0x18F3 JUMP JUMPDEST POP POP POP POP POP POP JUMP JUMPDEST PUSH2 0x18C2 DUP2 PUSH2 0x1D9B JUMP JUMPDEST PUSH2 0x18C2 DUP2 PUSH2 0x1D6E JUMP JUMPDEST PUSH1 0x0 PUSH2 0x1942 DUP3 PUSH2 0x1D77 JUMP JUMPDEST PUSH2 0x194C DUP2 DUP6 PUSH2 0x1D87 JUMP JUMPDEST SWAP4 POP PUSH2 0x195C DUP2 DUP6 PUSH1 0x20 DUP7 ADD PUSH2 0x1DD6 JUMP JUMPDEST PUSH2 0x1965 DUP2 PUSH2 0x1E02 JUMP JUMPDEST SWAP1 SWAP4 ADD SWAP4 SWAP3 POP POP POP JUMP JUMPDEST PUSH2 0x18C2 DUP2 PUSH2 0x1DA0 JUMP JUMPDEST PUSH2 0x18C2 DUP2 PUSH2 0x1DCB JUMP JUMPDEST PUSH1 0x0 PUSH2 0x198E PUSH1 0x35 DUP4 PUSH2 0x1D87 JUMP JUMPDEST PUSH32 0x596F75206D757374206265206E6F6D696E61746564206265666F726520796F75 DUP2 MSTORE PUSH21 0x2063616E20616363657074206F776E65727368697 PUSH1 0x5C SHL PUSH1 0x20 DUP3 ADD MSTORE PUSH1 0x40 ADD SWAP3 SWAP2 POP POP JUMP JUMPDEST PUSH1 0x0 PUSH2 0x19E5 PUSH1 0x20 DUP4 PUSH2 0x1D87 JUMP JUMPDEST PUSH32 0x4F6E6C79206465706F73697420636F6E74726163742063616E20696E766F6B65 DUP2 MSTORE PUSH1 0x20 ADD SWAP3 SWAP2 POP POP JUMP JUMPDEST PUSH1 0x0 PUSH2 0x1A1E PUSH1 0x18 DUP4 PUSH2 0x1D87 JUMP JUMPDEST PUSH32 0x43616E6E6F74206465706F736974207769746820646562740000000000000000 DUP2 MSTORE PUSH1 0x20 ADD SWAP3 SWAP2 POP POP JUMP JUMPDEST PUSH1 0x0 PUSH2 0x1A57 PUSH1 0x14 DUP4 PUSH2 0x1D87 JUMP JUMPDEST PUSH20 0x119D5B98DD1A5BDB8819195858DD1A5D985D1959 PUSH1 0x62 SHL DUP2 MSTORE PUSH1 0x20 ADD SWAP3 SWAP2 POP POP JUMP JUMPDEST PUSH1 0x0 PUSH2 0x1A87 PUSH1 0x20 DUP4 PUSH2 0x1D87 JUMP JUMPDEST PUSH32 0x43616E6E6F74206465706F736974206D6F7265207468616E20746865206D6178 DUP2 MSTORE PUSH1 0x20 ADD SWAP3 SWAP2 POP POP JUMP JUMPDEST PUSH1 0x0 PUSH2 0x1AC0 PUSH1 0x2F DUP4 PUSH2 0x1D87 JUMP JUMPDEST PUSH32 0x4F6E6C792074686520636F6E7472616374206F776E6572206D61792070657266 DUP2 MSTORE PUSH15 0x37B936903A3434B99030B1BA34B7B7 PUSH1 0x89 SHL PUSH1 0x20 DUP3 ADD MSTORE PUSH1 0x40 ADD SWAP3 SWAP2 POP POP JUMP JUMPDEST PUSH4 0x1CD554D1 PUSH1 0xE2 SHL SWAP1 MSTORE JUMP JUMPDEST PUSH1 0x0 PUSH2 0x1B1D PUSH1 0xF DUP4 PUSH2 0x1D87 JUMP JUMPDEST PUSH15 0x139BDD081A5B5C1B195B595B9D1959 PUSH1 0x8A SHL DUP2 MSTORE PUSH1 0x20 ADD SWAP3 SWAP2 POP POP JUMP JUMPDEST PUSH1 0x0 PUSH2 0x1B48 PUSH1 0x1E DUP4 PUSH2 0x1D87 JUMP JUMPDEST PUSH32 0x4F6E6C79207468652072656C617965722063616E2063616C6C20746869730000 DUP2 MSTORE PUSH1 0x20 ADD SWAP3 SWAP2 POP POP JUMP JUMPDEST PUSH1 0x0 PUSH2 0x1B81 PUSH1 0x17 DUP4 PUSH2 0x1D87 JUMP JUMPDEST PUSH32 0x5265736F6C766572206D697373696E6720746172676574000000000000000000 DUP2 MSTORE PUSH1 0x20 ADD SWAP3 SWAP2 POP POP JUMP JUMPDEST PUSH1 0x20 DUP2 ADD PUSH2 0x1396 DUP3 DUP5 PUSH2 0x18C8 JUMP JUMPDEST PUSH1 0x60 DUP2 ADD PUSH2 0x1BC9 DUP3 DUP7 PUSH2 0x18B9 JUMP JUMPDEST PUSH2 0x1BD6 PUSH1 0x20 DUP4 ADD DUP6 PUSH2 0x18C8 JUMP JUMPDEST PUSH2 0x1797 PUSH1 0x40 DUP4 ADD DUP5 PUSH2 0x192E JUMP JUMPDEST PUSH1 0x40 DUP2 ADD PUSH2 0x1BF1 DUP3 DUP5 PUSH2 0x18B9 JUMP JUMPDEST PUSH2 0x1396 PUSH1 0x20 DUP4 ADD PUSH2 0x1B04 JUMP JUMPDEST PUSH1 0x40 DUP2 ADD PUSH2 0x1C0B DUP3 DUP6 PUSH2 0x18C8 JUMP JUMPDEST PUSH2 0x1C18 PUSH1 0x20 DUP4 ADD DUP5 PUSH2 0x192E JUMP JUMPDEST SWAP4 SWAP3 POP POP POP JUMP JUMPDEST PUSH1 0x40 DUP2 ADD PUSH2 0x1C2D DUP3 DUP6 PUSH2 0x18C8 JUMP JUMPDEST PUSH2 0x1C18 PUSH1 0x20 DUP4 ADD DUP5 PUSH2 0x18C8 JUMP JUMPDEST PUSH1 0x60 DUP2 ADD PUSH2 0x1BC9 DUP3 DUP7 PUSH2 0x18C8 JUMP JUMPDEST PUSH1 0x60 DUP2 ADD PUSH2 0x1C56 DUP3 DUP7 PUSH2 0x18C8 JUMP JUMPDEST DUP2 DUP2 SUB PUSH1 0x20 DUP4 ADD MSTORE PUSH2 0x1C68 DUP2 DUP6 PUSH2 0x1937 JUMP JUMPDEST SWAP1 POP PUSH2 0x1797 PUSH1 0x40 DUP4 ADD DUP5 PUSH2 0x1978 JUMP JUMPDEST PUSH2 0x300 DUP2 ADD PUSH2 0x1396 DUP3 DUP5 PUSH2 0x18D1 JUMP JUMPDEST PUSH1 0x20 DUP2 ADD PUSH2 0x1396 DUP3 DUP5 PUSH2 0x1925 JUMP JUMPDEST PUSH1 0x20 DUP2 ADD PUSH2 0x1396 DUP3 DUP5 PUSH2 0x192E JUMP JUMPDEST PUSH1 0x40 DUP2 ADD PUSH2 0x1C0B DUP3 DUP6 PUSH2 0x192E JUMP JUMPDEST PUSH1 0x40 DUP2 ADD PUSH2 0x1CBE DUP3 DUP5 PUSH2 0x192E JUMP JUMPDEST DUP2 DUP2 SUB PUSH1 0x20 DUP4 ADD MSTORE PUSH2 0x1C18 DUP2 PUSH2 0x1B74 JUMP JUMPDEST PUSH1 0x20 DUP2 ADD PUSH2 0x1396 DUP3 DUP5 PUSH2 0x196F JUMP JUMPDEST PUSH1 0x20 DUP1 DUP3 MSTORE DUP2 ADD PUSH2 0x1C18 DUP2 DUP5 PUSH2 0x1937 JUMP JUMPDEST PUSH1 0x20 DUP1 DUP3 MSTORE DUP2 ADD PUSH2 0x1396 DUP2 PUSH2 0x1981 JUMP JUMPDEST PUSH1 0x20 DUP1 DUP3 MSTORE DUP2 ADD PUSH2 0x1396 DUP2 PUSH2 0x19D8 JUMP JUMPDEST PUSH1 0x20 DUP1 DUP3 MSTORE DUP2 ADD PUSH2 0x1396 DUP2 PUSH2 0x1A11 JUMP JUMPDEST PUSH1 0x20 DUP1 DUP3 MSTORE DUP2 ADD PUSH2 0x1396 DUP2 PUSH2 0x1A4A JUMP JUMPDEST PUSH1 0x20 DUP1 DUP3 MSTORE DUP2 ADD PUSH2 0x1396 DUP2 PUSH2 0x1A7A JUMP JUMPDEST PUSH1 0x20 DUP1 DUP3 MSTORE DUP2 ADD PUSH2 0x1396 DUP2 PUSH2 0x1AB3 JUMP JUMPDEST PUSH1 0x20 DUP1 DUP3 MSTORE DUP2 ADD PUSH2 0x1396 DUP2 PUSH2 0x1B10 JUMP JUMPDEST PUSH1 0x20 DUP1 DUP3 MSTORE DUP2 ADD PUSH2 0x1396 DUP2 PUSH2 0x1B3B JUMP JUMPDEST SWAP1 JUMP JUMPDEST POP PUSH1 0x18 SWAP1 JUMP JUMPDEST PUSH1 0x0 DUP2 MLOAD SWAP3 SWAP2 POP POP JUMP JUMPDEST PUSH1 0x20 ADD SWAP1 JUMP JUMPDEST SWAP1 DUP2 MSTORE PUSH1 0x20 ADD SWAP1 JUMP JUMPDEST PUSH1 0x0 PUSH2 0x1396 DUP3 PUSH2 0x1DAB JUMP JUMPDEST ISZERO ISZERO SWAP1 JUMP JUMPDEST PUSH1 0x0 PUSH2 0x1396 DUP3 PUSH2 0x1D90 JUMP JUMPDEST PUSH1 0x1 PUSH1 0x1 PUSH1 0xA0 SHL SUB AND SWAP1 JUMP JUMPDEST PUSH4 0xFFFFFFFF AND SWAP1 JUMP JUMPDEST PUSH1 0x0 PUSH2 0x1396 DUP3 PUSH2 0x1DA0 JUMP JUMPDEST PUSH1 0x0 PUSH2 0x1396 DUP3 PUSH2 0x1DB7 JUMP JUMPDEST PUSH1 0x0 JUMPDEST DUP4 DUP2 LT ISZERO PUSH2 0x1DF1 JUMPI DUP1 DUP3 ADD MLOAD DUP4 DUP3 ADD MSTORE PUSH1 0x20 ADD PUSH2 0x1DD9 JUMP JUMPDEST DUP4 DUP2 GT ISZERO PUSH2 0x10CA JUMPI POP POP PUSH1 0x0 SWAP2 ADD MSTORE JUMP JUMPDEST PUSH1 0x1F ADD PUSH1 0x1F NOT AND SWAP1 JUMP JUMPDEST PUSH2 0x1E15 DUP2 PUSH2 0x1D90 JUMP JUMPDEST DUP2 EQ PUSH2 0x1E26 JUMPI PUSH1 0x0 DUP1 PUSH2 0x4A8 PUSH2 0x13ED JUMP JUMPDEST POP JUMP JUMPDEST PUSH2 0x1E15 DUP2 PUSH2 0x1D9B JUMP JUMPDEST PUSH2 0x1E15 DUP2 PUSH2 0x1DA0 JUMP JUMPDEST PUSH2 0x1E15 DUP2 PUSH2 0x1D6E JUMP "
		}
	}
}