{
	"abi": [
		{
			"inputs": [
				{
					"internalType": "address",
					"name": "_owner",
					"type": "address"
				},
				{
					"internalType": "uint256",
					"name": "_lastMintEvent",
					"type": "uint256"
				},
				{
					"internalType": "uint256",
					"name": "_currentWeek",
					"type": "uint256"
				}
			],
			"payable": false,
			"stateMutability": "nonpayable",
			"type": "constructor"
		},
		{
			"anonymous": false,
			"inputs": [
				{
					"indexed": false,
					"internalType": "uint256",
					"name": "newRewardAmount",
					"type": "uint256"
				}
			],
			"name": "MinterRewardUpdated",
			"type": "event"
		},
		{
			"anonymous": false,
			"inputs": [
				{
					"indexed": false,
					"internalType": "address",
					"name": "oldOwner",
					"type": "address"
				},
				{
					"indexed": false,
					"internalType": "address",
					"name": "newOwner",
					"type": "address"
				}
			],
			"name": "OwnerChanged",
			"type": "event"
		},
		{
			"anonymous": false,
			"inputs": [
				{
					"indexed": false,
					"internalType": "address",
					"name": "newOwner",
					"type": "address"
				}
			],
			"name": "OwnerNominated",
			"type": "event"
		},
		{
			"anonymous": false,
			"inputs": [
				{
					"indexed": false,
					"internalType": "uint256",
					"name": "supplyMinted",
					"type": "uint256"
				},
				{
					"indexed": false,
					"internalType": "uint256",
					"name": "numberOfWeeksIssued",
					"type": "uint256"
				},
				{
					"indexed": false,
					"internalType": "uint256",
					"name": "lastMintEvent",
					"type": "uint256"
				},
				{
					"indexed": false,
					"internalType": "uint256",
					"name": "timestamp",
					"type": "uint256"
				}
			],
			"name": "SupplyMinted",
			"type": "event"
		},
		{
			"anonymous": false,
			"inputs": [
				{
					"indexed": false,
					"internalType": "address",
					"name": "newAddress",
					"type": "address"
				}
			],
			"name": "SynthetixProxyUpdated",
			"type": "event"
		},
		{
			"constant": true,
			"inputs": [],
			"name": "DECAY_RATE",
			"outputs": [
				{
					"internalType": "uint256",
					"name": "",
					"type": "uint256"
				}
			],
			"payable": false,
			"stateMutability": "view",
			"type": "function"
		},
		{
			"constant": true,
			"inputs": [],
			"name": "INFLATION_START_DATE",
			"outputs": [
				{
					"internalType": "uint256",
					"name": "",
					"type": "uint256"
				}
			],
			"payable": false,
			"stateMutability": "view",
			"type": "function"
		},
		{
			"constant": true,
			"inputs": [],
			"name": "INITIAL_WEEKLY_SUPPLY",
			"outputs": [
				{
					"internalType": "uint256",
					"name": "",
					"type": "uint256"
				}
			],
			"payable": false,
			"stateMutability": "view",
			"type": "function"
		},
		{
			"constant": true,
			"inputs": [],
			"name": "MAX_MINTER_REWARD",
			"outputs": [
				{
					"internalType": "uint256",
					"name": "",
					"type": "uint256"
				}
			],
			"payable": false,
			"stateMutability": "view",
			"type": "function"
		},
		{
			"constant": true,
			"inputs": [],
			"name": "MINT_BUFFER",
			"outputs": [
				{
					"internalType": "uint256",
					"name": "",
					"type": "uint256"
				}
			],
			"payable": false,
			"stateMutability": "view",
			"type": "function"
		},
		{
			"constant": true,
			"inputs": [],
			"name": "MINT_PERIOD_DURATION",
			"outputs": [
				{
					"internalType": "uint256",
					"name": "",
					"type": "uint256"
				}
			],
			"payable": false,
			"stateMutability": "view",
			"type": "function"
		},
		{
			"constant": true,
			"inputs": [],
			"name": "SUPPLY_DECAY_END",
			"outputs": [
				{
					"internalType": "uint8",
					"name": "",
					"type": "uint8"
				}
			],
			"payable": false,
			"stateMutability": "view",
			"type": "function"
		},
		{
			"constant": true,
			"inputs": [],
			"name": "SUPPLY_DECAY_START",
			"outputs": [
				{
					"internalType": "uint8",
					"name": "",
					"type": "uint8"
				}
			],
			"payable": false,
			"stateMutability": "view",
			"type": "function"
		},
		{
			"constant": true,
			"inputs": [],
			"name": "TERMINAL_SUPPLY_RATE_ANNUAL",
			"outputs": [
				{
					"internalType": "uint256",
					"name": "",
					"type": "uint256"
				}
			],
			"payable": false,
			"stateMutability": "view",
			"type": "function"
		},
		{
			"constant": false,
			"inputs": [],
			"name": "acceptOwnership",
			"outputs": [],
			"payable": false,
			"stateMutability": "nonpayable",
			"type": "function"
		},
		{
			"constant": true,
			"inputs": [],
			"name": "isMintable",
			"outputs": [
				{
					"internalType": "bool",
					"name": "",
					"type": "bool"
				}
			],
			"payable": false,
			"stateMutability": "view",
			"type": "function"
		},
		{
			"constant": true,
			"inputs": [],
			"name": "lastMintEvent",
			"outputs": [
				{
					"internalType": "uint256",
					"name": "",
					"type": "uint256"
				}
			],
			"payable": false,
			"stateMutability": "view",
			"type": "function"
		},
		{
			"constant": true,
			"inputs": [],
			"name": "mintableSupply",
			"outputs": [
				{
					"internalType": "uint256",
					"name": "",
					"type": "uint256"
				}
			],
			"payable": false,
			"stateMutability": "view",
			"type": "function"
		},
		{
			"constant": true,
			"inputs": [],
			"name": "minterReward",
			"outputs": [
				{
					"internalType": "uint256",
					"name": "",
					"type": "uint256"
				}
			],
			"payable": false,
			"stateMutability": "view",
			"type": "function"
		},
		{
			"constant": false,
			"inputs": [
				{
					"internalType": "address",
					"name": "_owner",
					"type": "address"
				}
			],
			"name": "nominateNewOwner",
			"outputs": [],
			"payable": false,
			"stateMutability": "nonpayable",
			"type": "function"
		},
		{
			"constant": true,
			"inputs": [],
			"name": "nominatedOwner",
			"outputs": [
				{
					"internalType": "address",
					"name": "",
					"type": "address"
				}
			],
			"payable": false,
			"stateMutability": "view",
			"type": "function"
		},
		{
			"constant": true,
			"inputs": [],
			"name": "owner",
			"outputs": [
				{
					"internalType": "address",
					"name": "",
					"type": "address"
				}
			],
			"payable": false,
			"stateMutability": "view",
			"type": "function"
		},
		{
			"constant": false,
			"inputs": [
				{
					"internalType": "uint256",
					"name": "supplyMinted",
					"type": "uint256"
				}
			],
			"name": "recordMintEvent",
			"outputs": [
				{
					"internalType": "bool",
					"name": "",
					"type": "bool"
				}
			],
			"payable": false,
			"stateMutability": "nonpayable",
			"type": "function"
		},
		{
			"constant": false,
			"inputs": [
				{
					"internalType": "uint256",
					"name": "amount",
					"type": "uint256"
				}
			],
			"name": "setMinterReward",
			"outputs": [],
			"payable": false,
			"stateMutability": "nonpayable",
			"type": "function"
		},
		{
			"constant": false,
			"inputs": [
				{
					"internalType": "contract ISynthetix",
					"name": "_synthetixProxy",
					"type": "address"
				}
			],
			"name": "setSynthetixProxy",
			"outputs": [],
			"payable": false,
			"stateMutability": "nonpayable",
			"type": "function"
		},
		{
			"constant": true,
			"inputs": [],
			"name": "synthetixProxy",
			"outputs": [
				{
					"internalType": "address payable",
					"name": "",
					"type": "address"
				}
			],
			"payable": false,
			"stateMutability": "view",
			"type": "function"
		},
		{
			"constant": true,
			"inputs": [
				{
					"internalType": "uint256",
					"name": "totalSupply",
					"type": "uint256"
				},
				{
					"internalType": "uint256",
					"name": "numOfWeeks",
					"type": "uint256"
				}
			],
			"name": "terminalInflationSupply",
			"outputs": [
				{
					"internalType": "uint256",
					"name": "",
					"type": "uint256"
				}
			],
			"payable": false,
			"stateMutability": "pure",
			"type": "function"
		},
		{
			"constant": true,
			"inputs": [
				{
					"internalType": "uint256",
					"name": "counter",
					"type": "uint256"
				}
			],
			"name": "tokenDecaySupplyForWeek",
			"outputs": [
				{
					"internalType": "uint256",
					"name": "",
					"type": "uint256"
				}
			],
			"payable": false,
			"stateMutability": "pure",
			"type": "function"
		},
		{
			"constant": true,
			"inputs": [],
			"name": "weekCounter",
			"outputs": [
				{
					"internalType": "uint256",
					"name": "",
					"type": "uint256"
				}
			],
			"payable": false,
			"stateMutability": "view",
			"type": "function"
		},
		{
			"constant": true,
			"inputs": [],
			"name": "weeksSinceLastIssuance",
			"outputs": [
				{
					"internalType": "uint256",
					"name": "",
					"type": "uint256"
				}
			],
			"payable": false,
			"stateMutability": "view",
			"type": "function"
		}
	],
	"evm": {
		"bytecode": {
			"linkReferences": {
				"SupplySchedule.sol": {
					"SafeDecimalMath": [
						{
							"length": 20,
							"start": 6
						},
						{
							"length": 20,
							"start": 2435
						},
						{
							"length": 20,
							"start": 3900
						},
						{
							"length": 20,
							"start": 4087
						},
						{
							"length": 20,
							"start": 5107
						}
					]
				}
			},
			"object": "608060405273__$4162ccbd5d91574b6bbbe632a759499ba8$__63907af6c06040518163ffffffff1660e01b815260040160206040518083038186806200004562000240565b1580156200005d576000806200005a620002a2565b50505b505a620000696200030f565b50505050501580156200008b573d6000803e3d600062000088620002a2565b50505b505050506040513d6020811015620000ad57600080620000aa620002a2565b50505b81019080805160c802925060049150620000c89050620003cc565b5050348015620000e257600080620000df620002a2565b50505b5060405162001a0a38038062001a0a83398181016040526060811015620001135760008062000110620002a2565b50505b810190808051929190602001805192919060200180519250849150506001600160a01b038116620001955760405162461bcd60e51b815260206004820152601960248201527f4f776e657220616464726573732063616e6e6f7420626520300000000000000060448201526064016040518091039062000192620002a2565b50505b806000600181620001a56200041b565b816001600160a01b0302191690836001600160a01b0316021790620001c9620003cc565b5050507fb532073b38c83145e3e5135377a08bf9aab55bc0fd7c1179cd4fb995d2a5159c6000826040516001600160a01b039283168152911660208201526040908101905180910390a1508180600262000222620003cc565b505050806003819062000234620003cc565b50505050505062000468565b638435035b598160e01b8152836004820152602081602483336000905af158600e01573d6000803e3d6000fd5b3d6001141558600a015760016000f35b8051935060005b60408110156200029d5760008282015260200162000284565b505050565b632a2a7adb598160e01b8152600481016020815285602082015260005b86811015620002dc578086015182820160400152602001620002bf565b506020828760640184336000905af158600e01573d6000803e3d6000fd5b3d6001141558600a015760016000f35b505050565b63ffe73914598160e01b8152836004820152846024820152606060448201528660648201526084810160005b88811015620003555780880151828201526020016200033b565b50876101040182016060838a6101040185336000905af158600e01573d6000803e3d6000fd5b3d6001141558600a015760016000f35b825160408401513d6000863e8c8c82606088013350600060045af15059855b81811015620003c05760008152602001620003aa565b50919c50505050505050565b6322bd64c0598160e01b8152836004820152846024820152600081604483336000905af158600e01573d6000803e3d6000fd5b3d6001141558600a015760016000f35b60008152602062000284565b6303daa959598160e01b8152836004820152602081602483336000905af158600e01573d6000803e3d6000fd5b3d6001141558600a015760016000f35b8051600082529350602062000284565b61159280620004786000396000f3fe6080604052348015610019576000806100166111cb565b50505b506004361061017c5760003560e01c80637e1b823f116100e7578063badef30a116100a0578063cc5c095c1161007a578063cc5c095c14610358578063d3bd4bde14610360578063dbd3a6a714610368578063df5a9fc1146103705761017c565b8063badef30a14610340578063bdd1248214610348578063be801f01146103505761017c565b80637e1b823f146102a75780637e7961d7146102af5780638da5cb5b146102d557806395896b76146102dd5780639bdd7ac71461030c578063b3b2bcc0146103145761017c565b806346b45af71161013957806346b45af71461020b5780634ae26521146102275780634e070f501461024d57806353a47bb71461027357806379ba5097146102975780637c0605571461029f5761017c565b80631627540c1461018a5780631de40e49146101bb57806322af2bab146101d5578063251330f1146101dd57806325542064146101fb57806346872a2314610203575b6000806101876111cb565b50505b6101b9600480360360208110156101a9576000806101a66111cb565b50505b50356001600160a01b0316610378565b005b6101c36103f2565b60405190815260200160405180910390f35b6101c36103fd565b6101e561040a565b60405160ff909116815260200160405180910390f35b6101c361040f565b6101c361041a565b610213610421565b604051901515815260200160405180910390f35b6101b960048036036020811015610246576000806102436111cb565b50505b5035610450565b6101c36004803603602081101561026c576000806102696111cb565b50505b50356104f7565b61027b6105ef565b6040516001600160a01b03909116815260200160405180910390f35b6101b961060e565b6101e5610791565b6101c3610796565b610213600480360360208110156102ce576000806102cb6111cb565b50505b503561079e565b61027b610998565b6101b9600480360360208110156102fc576000806102f96111cb565b50505b50356001600160a01b03166109a3565b6101c3610a93565b6101c360048036036040811015610333576000806103306111cb565b50505b5080359060200135610aa0565b6101c3610c47565b61027b610c56565b6101c3610c62565b6101c3610c6c565b6101c3610e1c565b6101c3610e26565b6101c3610e8d565b610380610e94565b806001808061038d611236565b816001600160a01b0302191690836001600160a01b03160217906103af611291565b5050507f906a1c6bd7e3091ea86693dd029a831c19049ce77f1dce2ce0bab1cacbabce22816040516001600160a01b03909116815260200160405180910390a150565b662c68af0bb1400081565b680ad78ebc5ac620000081565b602881565b6658d15e1762800081565b6201518081565b600062093a806002610431611236565b5a61043a6112df565b0311156104495750600161044d565b5060005b90565b610458610e94565b680ad78ebc5ac62000008111156104a95760405162461bcd60e51b815260040180806020018281038252602681526020018061156c60269139604001915050604051809103906104a66111cb565b50505b808060046104b5611291565b5050507f036e0c635f8b7d9314bb6f2a577046108ef0f8b5e3869fbd29fd5a448ed99d3060046104e3611236565b60405190815260200160405180910390a150565b6000806105c8836105bc662c68af0bb1400073__$4162ccbd5d91574b6bbbe632a759499ba8$__63907af6c06040518163ffffffff1660e01b81526004016020604051808303818680610548611325565b15801561055d5760008061055a6111cb565b50505b505a610567611371565b5050505050158015610586573d6000803e3d60006105836111cb565b50505b505050506040513d60208110156105a5576000806105a26111cb565b50505b8101908080519392505063ffffffff610f11169050565b9063ffffffff610f7616565b905060006105e76a01316ba81b802f59713b138363ffffffff61106716565b949350505050565b600060016105fb611236565b906101000a90046001600160a01b031681565b6000600161061a611236565b906101000a90046001600160a01b03166001600160a01b03165a61063c61142a565b6001600160a01b03161461068a5760405162461bcd60e51b81526004018080602001828103825260358152602001806114b460359139604001915050604051809103906106876111cb565b50505b7fb532073b38c83145e3e5135377a08bf9aab55bc0fd7c1179cd4fb995d2a5159c6000806106b6611236565b906101000a90046001600160a01b031660016000906106d3611236565b906101000a90046001600160a01b03166040516001600160a01b039283168152911660208201526040908101905180910390a160006001610712611236565b906101000a90046001600160a01b03166000806101000a81610732611236565b816001600160a01b0302191690836001600160a01b0316021790610754611291565b5050506000600160006101000a8161076a611236565b816001600160a01b0302191690836001600160a01b031602179061078c611291565b505050565b60ea81565b635c7f0d8081565b60008060056107ab611236565b906101000a90046001600160a01b03166001600160a01b031663d4b839926040518163ffffffff1660e01b815260040160206040518083038186806107ee611325565b158015610803576000806108006111cb565b50505b505a61080d611470565b505050505015801561082c573d6000803e3d60006108296111cb565b50505b505050506040513d602081101561084b576000806108486111cb565b50505b8101908080516001600160a01b0316925050505a61086761142a565b6001600160a01b0316146108b55760405162461bcd60e51b815260040180806020018281038252603381526020018061153960339139604001915050604051809103906108b26111cb565b50505b60006108bf610e26565b90506108db8160036108cf611236565b9063ffffffff61109116565b8060036108e6611291565b505050610921620151806108cf61091062093a806003610904611236565b9063ffffffff6110fa16565b635c7f0d809063ffffffff61109116565b80600261092c611291565b5050507f601e517d4811033fed8290c79b7823ce1ab70258da45400fe2391a3c7432edab8382600261095c611236565b5a6109656112df565b6040518085815260200184815260200183815260200182815260200194505050505060405180910390a150600192915050565b6000806105fb611236565b6109ab610e94565b6001600160a01b038116610a045760405162461bcd60e51b81526020600482015260136024820152720416464726573732063616e6e6f74206265203606c1b604482015260640160405180910390610a016111cb565b50505b806005600181610a12611236565b816001600160a01b0302191690836001600160a01b0316021790610a34611291565b5050507ff8df0556b7fde3c4b8394eae329aedfa59c6ffd8b532d572a1efcfa3424ca5fc6005600090610a65611236565b906101000a90046001600160a01b03166040516001600160a01b03909116815260200160405180910390a150565b6004610a9d611236565b81565b600080610b75836105bc610ac26658d15e17628000603463ffffffff61115916565b73__$4162ccbd5d91574b6bbbe632a759499ba8$__63907af6c06040518163ffffffff1660e01b81526004016020604051808303818680610b01611325565b158015610b1657600080610b136111cb565b50505b505a610b20611371565b5050505050158015610b3f573d6000803e3d6000610b3c6111cb565b50505b505050506040513d6020811015610b5e57600080610b5b6111cb565b50505b8101908080519392505063ffffffff611091169050565b9050610c3d610c3073__$4162ccbd5d91574b6bbbe632a759499ba8$__63907af6c06040518163ffffffff1660e01b81526004016020604051808303818680610bbc611325565b158015610bd157600080610bce6111cb565b50505b505a610bdb611371565b5050505050158015610bfa573d6000803e3d6000610bf76111cb565b50505b505050506040513d6020811015610c1957600080610c166111cb565b50505b81019080805186935091505063ffffffff610f1116565b859063ffffffff61106716565b9150505b92915050565b6a01316ba81b802f59713b1381565b600060056105fb611236565b6002610a9d611236565b600080610c77610421565b610c8257905061044d565b6000610c8c610e26565b905060006003610c9a611236565b90505b8115610e14576001016028811015610cd857610cca836a01316ba81b802f59713b1363ffffffff61109116565b925060001990910190610e0f565b60ea8111610d1d576000610cf382602763ffffffff610f1116565b9050610d0e610d01826104f7565b859063ffffffff61109116565b93505060001990910190610e0f565b6000806005610d2a611236565b906101000a90046001600160a01b03166001600160a01b03166318160ddd6040518163ffffffff1660e01b81526004016020604051808303818680610d6d611325565b158015610d8257600080610d7f6111cb565b50505b505a610d8c611470565b5050505050158015610dab573d6000803e3d6000610da86111cb565b50505b505050506040513d6020811015610dca57600080610dc76111cb565b50505b810190808051935060009250610dea91508390508663ffffffff61109116565b9050610e06610df98286610aa0565b869063ffffffff61109116565b94506000935050505b610c9d565b509091505090565b6003610a9d611236565b60008060006002610e35611236565b11610e5c57610e57635c7f0d805a610e4b6112df565b9063ffffffff610f1116565b610e72565b610e726002610e69611236565b5a610e4b6112df565b9050610e878162093a8063ffffffff61115916565b91505090565b62093a8081565b600080610e9f611236565b906101000a90046001600160a01b03166001600160a01b03165a610ec161142a565b6001600160a01b031614610f0f5760405162461bcd60e51b815260040180806020018281038252602f8152602001806114e9602f913960400191505060405180910390610f0c6111cb565b50505b565b600082821115610f705760405162461bcd60e51b815260206004820152601e60248201527f536166654d6174683a207375627472616374696f6e206f766572666c6f770000604482015260640160405180910390610f6d6111cb565b50505b50900390565b60008073__$4162ccbd5d91574b6bbbe632a759499ba8$__63907af6c06040518163ffffffff1660e01b81526004016020604051808303818680610fb8611325565b158015610fcd57600080610fca6111cb565b50505b505a610fd7611371565b5050505050158015610ff6573d6000803e3d6000610ff36111cb565b50505b505050506040513d6020811015611015576000806110126111cb565b50505b81019080805193505050505b821561106057600283061561104357611040818563ffffffff61106716565b90505b611053848063ffffffff61106716565b9350600283049250611021565b9392505050565b6000670de0b6b3a7640000611082848463ffffffff6110fa16565b8161108957fe5b049392505050565b6000828201838110156110605760405162461bcd60e51b815260206004820152601b60248201527f536166654d6174683a206164646974696f6e206f766572666c6f7700000000006044820152606401604051809103906110f06111cb565b5050905092915050565b60008261110957506000610c41565b8282028284828161111657fe5b04146110605760405162461bcd60e51b815260040180806020018281038252602181526020018061151860219139604001915050604051809103906110f06111cb565b60008082116111b75760405162461bcd60e51b815260206004820152601a60248201527f536166654d6174683a206469766973696f6e206279207a65726f0000000000006044820152606401604051809103906111b46111cb565b50505b60008284816111c257fe5b04949350505050565b632a2a7adb598160e01b8152600481016020815285602082015260005b868110156112035780860151828201604001526020016111e8565b506020828760640184336000905af158600e01573d6000803e3d6000fd5b3d6001141558600a015760016000f35b505050565b6303daa959598160e01b8152836004820152602081602483336000905af158600e01573d6000803e3d6000fd5b3d6001141558600a015760016000f35b8051935060005b604081101561078c5760008282015260200161127a565b6322bd64c0598160e01b8152836004820152846024820152600081604483336000905af158600e01573d6000803e3d6000fd5b3d6001141558600a015760016000f35b60008152602061127a565b63bdbf8c36598160e01b8152602081600483336000905af158600e01573d6000803e3d6000fd5b3d6001141558600a015760016000f35b8051600082529350602061127a565b638435035b598160e01b8152836004820152602081602483336000905af158600e01573d6000803e3d6000fd5b3d6001141558600a015760016000f35b8051600082529350602061127a565b63ffe73914598160e01b8152836004820152846024820152606060448201528660648201526084810160005b888110156113b557808801518282015260200161139d565b50876101040182016060838a6101040185336000905af158600e01573d6000803e3d6000fd5b3d6001141558600a015760016000f35b825160408401513d6000863e8c8c82606088013350600060045af15059855b8181101561141e576000815260200161140a565b50919c50505050505050565b6373509064598160e01b8152602081600483336000905af158600e01573d6000803e3d6000fd5b3d6001141558600a015760016000f35b8051600082529350602061127a565b638540661f598160e01b815283600482015284602482015260606044820152866064820152608481016000888110156113b557808801518282015260200161139d56fe596f75206d757374206265206e6f6d696e61746564206265666f726520796f752063616e20616363657074206f776e6572736869704f6e6c792074686520636f6e7472616374206f776e6572206d617920706572666f726d207468697320616374696f6e536166654d6174683a206d756c7469706c69636174696f6e206f766572666c6f774f6e6c79207468652073796e74686574697820636f6e74726163742063616e20706572666f726d207468697320616374696f6e5265776172642063616e6e6f7420657863656564206d6178206d696e74657220726577617264",
			"opcodes": "PUSH1 0x80 PUSH1 0x40 MSTORE PUSH20 0x0 PUSH4 0x907AF6C0 PUSH1 0x40 MLOAD DUP2 PUSH4 0xFFFFFFFF AND PUSH1 0xE0 SHL DUP2 MSTORE PUSH1 0x4 ADD PUSH1 0x20 PUSH1 0x40 MLOAD DUP1 DUP4 SUB DUP2 DUP7 DUP1 PUSH3 0x45 PUSH3 0x240 JUMP JUMPDEST ISZERO DUP1 ISZERO PUSH3 0x5D JUMPI PUSH1 0x0 DUP1 PUSH3 0x5A PUSH3 0x2A2 JUMP JUMPDEST POP POP JUMPDEST POP GAS PUSH3 0x69 PUSH3 0x30F JUMP JUMPDEST POP POP POP POP POP ISZERO DUP1 ISZERO PUSH3 0x8B JUMPI RETURNDATASIZE PUSH1 0x0 DUP1 RETURNDATACOPY RETURNDATASIZE PUSH1 0x0 PUSH3 0x88 PUSH3 0x2A2 JUMP JUMPDEST POP POP JUMPDEST POP POP POP POP PUSH1 0x40 MLOAD RETURNDATASIZE PUSH1 0x20 DUP2 LT ISZERO PUSH3 0xAD JUMPI PUSH1 0x0 DUP1 PUSH3 0xAA PUSH3 0x2A2 JUMP JUMPDEST POP POP JUMPDEST DUP2 ADD SWAP1 DUP1 DUP1 MLOAD PUSH1 0xC8 MUL SWAP3 POP PUSH1 0x4 SWAP2 POP PUSH3 0xC8 SWAP1 POP PUSH3 0x3CC JUMP JUMPDEST POP POP CALLVALUE DUP1 ISZERO PUSH3 0xE2 JUMPI PUSH1 0x0 DUP1 PUSH3 0xDF PUSH3 0x2A2 JUMP JUMPDEST POP POP JUMPDEST POP PUSH1 0x40 MLOAD PUSH3 0x1A0A CODESIZE SUB DUP1 PUSH3 0x1A0A DUP4 CODECOPY DUP2 DUP2 ADD PUSH1 0x40 MSTORE PUSH1 0x60 DUP2 LT ISZERO PUSH3 0x113 JUMPI PUSH1 0x0 DUP1 PUSH3 0x110 PUSH3 0x2A2 JUMP JUMPDEST POP POP JUMPDEST DUP2 ADD SWAP1 DUP1 DUP1 MLOAD SWAP3 SWAP2 SWAP1 PUSH1 0x20 ADD DUP1 MLOAD SWAP3 SWAP2 SWAP1 PUSH1 0x20 ADD DUP1 MLOAD SWAP3 POP DUP5 SWAP2 POP POP PUSH1 0x1 PUSH1 0x1 PUSH1 0xA0 SHL SUB DUP2 AND PUSH3 0x195 JUMPI PUSH1 0x40 MLOAD PUSH3 0x461BCD PUSH1 0xE5 SHL DUP2 MSTORE PUSH1 0x20 PUSH1 0x4 DUP3 ADD MSTORE PUSH1 0x19 PUSH1 0x24 DUP3 ADD MSTORE PUSH32 0x4F776E657220616464726573732063616E6E6F74206265203000000000000000 PUSH1 0x44 DUP3 ADD MSTORE PUSH1 0x64 ADD PUSH1 0x40 MLOAD DUP1 SWAP2 SUB SWAP1 PUSH3 0x192 PUSH3 0x2A2 JUMP JUMPDEST POP POP JUMPDEST DUP1 PUSH1 0x0 PUSH1 0x1 DUP2 PUSH3 0x1A5 PUSH3 0x41B JUMP JUMPDEST DUP2 PUSH1 0x1 PUSH1 0x1 PUSH1 0xA0 SHL SUB MUL NOT AND SWAP1 DUP4 PUSH1 0x1 PUSH1 0x1 PUSH1 0xA0 SHL SUB AND MUL OR SWAP1 PUSH3 0x1C9 PUSH3 0x3CC JUMP JUMPDEST POP POP POP PUSH32 0xB532073B38C83145E3E5135377A08BF9AAB55BC0FD7C1179CD4FB995D2A5159C PUSH1 0x0 DUP3 PUSH1 0x40 MLOAD PUSH1 0x1 PUSH1 0x1 PUSH1 0xA0 SHL SUB SWAP3 DUP4 AND DUP2 MSTORE SWAP2 AND PUSH1 0x20 DUP3 ADD MSTORE PUSH1 0x40 SWAP1 DUP2 ADD SWAP1 MLOAD DUP1 SWAP2 SUB SWAP1 LOG1 POP DUP2 DUP1 PUSH1 0x2 PUSH3 0x222 PUSH3 0x3CC JUMP JUMPDEST POP POP POP DUP1 PUSH1 0x3 DUP2 SWAP1 PUSH3 0x234 PUSH3 0x3CC JUMP JUMPDEST POP POP POP POP POP POP PUSH3 0x468 JUMP JUMPDEST PUSH4 0x8435035B MSIZE DUP2 PUSH1 0xE0 SHL DUP2 MSTORE DUP4 PUSH1 0x4 DUP3 ADD MSTORE PUSH1 0x20 DUP2 PUSH1 0x24 DUP4 CALLER PUSH1 0x0 SWAP1 GAS CALL PC PUSH1 0xE ADD JUMPI RETURNDATASIZE PUSH1 0x0 DUP1 RETURNDATACOPY RETURNDATASIZE PUSH1 0x0 REVERT JUMPDEST RETURNDATASIZE PUSH1 0x1 EQ ISZERO PC PUSH1 0xA ADD JUMPI PUSH1 0x1 PUSH1 0x0 RETURN JUMPDEST DUP1 MLOAD SWAP4 POP PUSH1 0x0 JUMPDEST PUSH1 0x40 DUP2 LT ISZERO PUSH3 0x29D JUMPI PUSH1 0x0 DUP3 DUP3 ADD MSTORE PUSH1 0x20 ADD PUSH3 0x284 JUMP JUMPDEST POP POP POP JUMP JUMPDEST PUSH4 0x2A2A7ADB MSIZE DUP2 PUSH1 0xE0 SHL DUP2 MSTORE PUSH1 0x4 DUP2 ADD PUSH1 0x20 DUP2 MSTORE DUP6 PUSH1 0x20 DUP3 ADD MSTORE PUSH1 0x0 JUMPDEST DUP7 DUP2 LT ISZERO PUSH3 0x2DC JUMPI DUP1 DUP7 ADD MLOAD DUP3 DUP3 ADD PUSH1 0x40 ADD MSTORE PUSH1 0x20 ADD PUSH3 0x2BF JUMP JUMPDEST POP PUSH1 0x20 DUP3 DUP8 PUSH1 0x64 ADD DUP5 CALLER PUSH1 0x0 SWAP1 GAS CALL PC PUSH1 0xE ADD JUMPI RETURNDATASIZE PUSH1 0x0 DUP1 RETURNDATACOPY RETURNDATASIZE PUSH1 0x0 REVERT JUMPDEST RETURNDATASIZE PUSH1 0x1 EQ ISZERO PC PUSH1 0xA ADD JUMPI PUSH1 0x1 PUSH1 0x0 RETURN JUMPDEST POP POP POP JUMP JUMPDEST PUSH4 0xFFE73914 MSIZE DUP2 PUSH1 0xE0 SHL DUP2 MSTORE DUP4 PUSH1 0x4 DUP3 ADD MSTORE DUP5 PUSH1 0x24 DUP3 ADD MSTORE PUSH1 0x60 PUSH1 0x44 DUP3 ADD MSTORE DUP7 PUSH1 0x64 DUP3 ADD MSTORE PUSH1 0x84 DUP2 ADD PUSH1 0x0 JUMPDEST DUP9 DUP2 LT ISZERO PUSH3 0x355 JUMPI DUP1 DUP9 ADD MLOAD DUP3 DUP3 ADD MSTORE PUSH1 0x20 ADD PUSH3 0x33B JUMP JUMPDEST POP DUP8 PUSH2 0x104 ADD DUP3 ADD PUSH1 0x60 DUP4 DUP11 PUSH2 0x104 ADD DUP6 CALLER PUSH1 0x0 SWAP1 GAS CALL PC PUSH1 0xE ADD JUMPI RETURNDATASIZE PUSH1 0x0 DUP1 RETURNDATACOPY RETURNDATASIZE PUSH1 0x0 REVERT JUMPDEST RETURNDATASIZE PUSH1 0x1 EQ ISZERO PC PUSH1 0xA ADD JUMPI PUSH1 0x1 PUSH1 0x0 RETURN JUMPDEST DUP3 MLOAD PUSH1 0x40 DUP5 ADD MLOAD RETURNDATASIZE PUSH1 0x0 DUP7 RETURNDATACOPY DUP13 DUP13 DUP3 PUSH1 0x60 DUP9 ADD CALLER POP PUSH1 0x0 PUSH1 0x4 GAS CALL POP MSIZE DUP6 JUMPDEST DUP2 DUP2 LT ISZERO PUSH3 0x3C0 JUMPI PUSH1 0x0 DUP2 MSTORE PUSH1 0x20 ADD PUSH3 0x3AA JUMP JUMPDEST POP SWAP2 SWAP13 POP POP POP POP POP POP POP JUMP JUMPDEST PUSH4 0x22BD64C0 MSIZE DUP2 PUSH1 0xE0 SHL DUP2 MSTORE DUP4 PUSH1 0x4 DUP3 ADD MSTORE DUP5 PUSH1 0x24 DUP3 ADD MSTORE PUSH1 0x0 DUP2 PUSH1 0x44 DUP4 CALLER PUSH1 0x0 SWAP1 GAS CALL PC PUSH1 0xE ADD JUMPI RETURNDATASIZE PUSH1 0x0 DUP1 RETURNDATACOPY RETURNDATASIZE PUSH1 0x0 REVERT JUMPDEST RETURNDATASIZE PUSH1 0x1 EQ ISZERO PC PUSH1 0xA ADD JUMPI PUSH1 0x1 PUSH1 0x0 RETURN JUMPDEST PUSH1 0x0 DUP2 MSTORE PUSH1 0x20 PUSH3 0x284 JUMP JUMPDEST PUSH4 0x3DAA959 MSIZE DUP2 PUSH1 0xE0 SHL DUP2 MSTORE DUP4 PUSH1 0x4 DUP3 ADD MSTORE PUSH1 0x20 DUP2 PUSH1 0x24 DUP4 CALLER PUSH1 0x0 SWAP1 GAS CALL PC PUSH1 0xE ADD JUMPI RETURNDATASIZE PUSH1 0x0 DUP1 RETURNDATACOPY RETURNDATASIZE PUSH1 0x0 REVERT JUMPDEST RETURNDATASIZE PUSH1 0x1 EQ ISZERO PC PUSH1 0xA ADD JUMPI PUSH1 0x1 PUSH1 0x0 RETURN JUMPDEST DUP1 MLOAD PUSH1 0x0 DUP3 MSTORE SWAP4 POP PUSH1 0x20 PUSH3 0x284 JUMP JUMPDEST PUSH2 0x1592 DUP1 PUSH3 0x478 PUSH1 0x0 CODECOPY PUSH1 0x0 RETURN INVALID PUSH1 0x80 PUSH1 0x40 MSTORE CALLVALUE DUP1 ISZERO PUSH2 0x19 JUMPI PUSH1 0x0 DUP1 PUSH2 0x16 PUSH2 0x11CB JUMP JUMPDEST POP POP JUMPDEST POP PUSH1 0x4 CALLDATASIZE LT PUSH2 0x17C JUMPI PUSH1 0x0 CALLDATALOAD PUSH1 0xE0 SHR DUP1 PUSH4 0x7E1B823F GT PUSH2 0xE7 JUMPI DUP1 PUSH4 0xBADEF30A GT PUSH2 0xA0 JUMPI DUP1 PUSH4 0xCC5C095C GT PUSH2 0x7A JUMPI DUP1 PUSH4 0xCC5C095C EQ PUSH2 0x358 JUMPI DUP1 PUSH4 0xD3BD4BDE EQ PUSH2 0x360 JUMPI DUP1 PUSH4 0xDBD3A6A7 EQ PUSH2 0x368 JUMPI DUP1 PUSH4 0xDF5A9FC1 EQ PUSH2 0x370 JUMPI PUSH2 0x17C JUMP JUMPDEST DUP1 PUSH4 0xBADEF30A EQ PUSH2 0x340 JUMPI DUP1 PUSH4 0xBDD12482 EQ PUSH2 0x348 JUMPI DUP1 PUSH4 0xBE801F01 EQ PUSH2 0x350 JUMPI PUSH2 0x17C JUMP JUMPDEST DUP1 PUSH4 0x7E1B823F EQ PUSH2 0x2A7 JUMPI DUP1 PUSH4 0x7E7961D7 EQ PUSH2 0x2AF JUMPI DUP1 PUSH4 0x8DA5CB5B EQ PUSH2 0x2D5 JUMPI DUP1 PUSH4 0x95896B76 EQ PUSH2 0x2DD JUMPI DUP1 PUSH4 0x9BDD7AC7 EQ PUSH2 0x30C JUMPI DUP1 PUSH4 0xB3B2BCC0 EQ PUSH2 0x314 JUMPI PUSH2 0x17C JUMP JUMPDEST DUP1 PUSH4 0x46B45AF7 GT PUSH2 0x139 JUMPI DUP1 PUSH4 0x46B45AF7 EQ PUSH2 0x20B JUMPI DUP1 PUSH4 0x4AE26521 EQ PUSH2 0x227 JUMPI DUP1 PUSH4 0x4E070F50 EQ PUSH2 0x24D JUMPI DUP1 PUSH4 0x53A47BB7 EQ PUSH2 0x273 JUMPI DUP1 PUSH4 0x79BA5097 EQ PUSH2 0x297 JUMPI DUP1 PUSH4 0x7C060557 EQ PUSH2 0x29F JUMPI PUSH2 0x17C JUMP JUMPDEST DUP1 PUSH4 0x1627540C EQ PUSH2 0x18A JUMPI DUP1 PUSH4 0x1DE40E49 EQ PUSH2 0x1BB JUMPI DUP1 PUSH4 0x22AF2BAB EQ PUSH2 0x1D5 JUMPI DUP1 PUSH4 0x251330F1 EQ PUSH2 0x1DD JUMPI DUP1 PUSH4 0x25542064 EQ PUSH2 0x1FB JUMPI DUP1 PUSH4 0x46872A23 EQ PUSH2 0x203 JUMPI JUMPDEST PUSH1 0x0 DUP1 PUSH2 0x187 PUSH2 0x11CB JUMP JUMPDEST POP POP JUMPDEST PUSH2 0x1B9 PUSH1 0x4 DUP1 CALLDATASIZE SUB PUSH1 0x20 DUP2 LT ISZERO PUSH2 0x1A9 JUMPI PUSH1 0x0 DUP1 PUSH2 0x1A6 PUSH2 0x11CB JUMP JUMPDEST POP POP JUMPDEST POP CALLDATALOAD PUSH1 0x1 PUSH1 0x1 PUSH1 0xA0 SHL SUB AND PUSH2 0x378 JUMP JUMPDEST STOP JUMPDEST PUSH2 0x1C3 PUSH2 0x3F2 JUMP JUMPDEST PUSH1 0x40 MLOAD SWAP1 DUP2 MSTORE PUSH1 0x20 ADD PUSH1 0x40 MLOAD DUP1 SWAP2 SUB SWAP1 RETURN JUMPDEST PUSH2 0x1C3 PUSH2 0x3FD JUMP JUMPDEST PUSH2 0x1E5 PUSH2 0x40A JUMP JUMPDEST PUSH1 0x40 MLOAD PUSH1 0xFF SWAP1 SWAP2 AND DUP2 MSTORE PUSH1 0x20 ADD PUSH1 0x40 MLOAD DUP1 SWAP2 SUB SWAP1 RETURN JUMPDEST PUSH2 0x1C3 PUSH2 0x40F JUMP JUMPDEST PUSH2 0x1C3 PUSH2 0x41A JUMP JUMPDEST PUSH2 0x213 PUSH2 0x421 JUMP JUMPDEST PUSH1 0x40 MLOAD SWAP1 ISZERO ISZERO DUP2 MSTORE PUSH1 0x20 ADD PUSH1 0x40 MLOAD DUP1 SWAP2 SUB SWAP1 RETURN JUMPDEST PUSH2 0x1B9 PUSH1 0x4 DUP1 CALLDATASIZE SUB PUSH1 0x20 DUP2 LT ISZERO PUSH2 0x246 JUMPI PUSH1 0x0 DUP1 PUSH2 0x243 PUSH2 0x11CB JUMP JUMPDEST POP POP JUMPDEST POP CALLDATALOAD PUSH2 0x450 JUMP JUMPDEST PUSH2 0x1C3 PUSH1 0x4 DUP1 CALLDATASIZE SUB PUSH1 0x20 DUP2 LT ISZERO PUSH2 0x26C JUMPI PUSH1 0x0 DUP1 PUSH2 0x269 PUSH2 0x11CB JUMP JUMPDEST POP POP JUMPDEST POP CALLDATALOAD PUSH2 0x4F7 JUMP JUMPDEST PUSH2 0x27B PUSH2 0x5EF JUMP JUMPDEST PUSH1 0x40 MLOAD PUSH1 0x1 PUSH1 0x1 PUSH1 0xA0 SHL SUB SWAP1 SWAP2 AND DUP2 MSTORE PUSH1 0x20 ADD PUSH1 0x40 MLOAD DUP1 SWAP2 SUB SWAP1 RETURN JUMPDEST PUSH2 0x1B9 PUSH2 0x60E JUMP JUMPDEST PUSH2 0x1E5 PUSH2 0x791 JUMP JUMPDEST PUSH2 0x1C3 PUSH2 0x796 JUMP JUMPDEST PUSH2 0x213 PUSH1 0x4 DUP1 CALLDATASIZE SUB PUSH1 0x20 DUP2 LT ISZERO PUSH2 0x2CE JUMPI PUSH1 0x0 DUP1 PUSH2 0x2CB PUSH2 0x11CB JUMP JUMPDEST POP POP JUMPDEST POP CALLDATALOAD PUSH2 0x79E JUMP JUMPDEST PUSH2 0x27B PUSH2 0x998 JUMP JUMPDEST PUSH2 0x1B9 PUSH1 0x4 DUP1 CALLDATASIZE SUB PUSH1 0x20 DUP2 LT ISZERO PUSH2 0x2FC JUMPI PUSH1 0x0 DUP1 PUSH2 0x2F9 PUSH2 0x11CB JUMP JUMPDEST POP POP JUMPDEST POP CALLDATALOAD PUSH1 0x1 PUSH1 0x1 PUSH1 0xA0 SHL SUB AND PUSH2 0x9A3 JUMP JUMPDEST PUSH2 0x1C3 PUSH2 0xA93 JUMP JUMPDEST PUSH2 0x1C3 PUSH1 0x4 DUP1 CALLDATASIZE SUB PUSH1 0x40 DUP2 LT ISZERO PUSH2 0x333 JUMPI PUSH1 0x0 DUP1 PUSH2 0x330 PUSH2 0x11CB JUMP JUMPDEST POP POP JUMPDEST POP DUP1 CALLDATALOAD SWAP1 PUSH1 0x20 ADD CALLDATALOAD PUSH2 0xAA0 JUMP JUMPDEST PUSH2 0x1C3 PUSH2 0xC47 JUMP JUMPDEST PUSH2 0x27B PUSH2 0xC56 JUMP JUMPDEST PUSH2 0x1C3 PUSH2 0xC62 JUMP JUMPDEST PUSH2 0x1C3 PUSH2 0xC6C JUMP JUMPDEST PUSH2 0x1C3 PUSH2 0xE1C JUMP JUMPDEST PUSH2 0x1C3 PUSH2 0xE26 JUMP JUMPDEST PUSH2 0x1C3 PUSH2 0xE8D JUMP JUMPDEST PUSH2 0x380 PUSH2 0xE94 JUMP JUMPDEST DUP1 PUSH1 0x1 DUP1 DUP1 PUSH2 0x38D PUSH2 0x1236 JUMP JUMPDEST DUP2 PUSH1 0x1 PUSH1 0x1 PUSH1 0xA0 SHL SUB MUL NOT AND SWAP1 DUP4 PUSH1 0x1 PUSH1 0x1 PUSH1 0xA0 SHL SUB AND MUL OR SWAP1 PUSH2 0x3AF PUSH2 0x1291 JUMP JUMPDEST POP POP POP PUSH32 0x906A1C6BD7E3091EA86693DD029A831C19049CE77F1DCE2CE0BAB1CACBABCE22 DUP2 PUSH1 0x40 MLOAD PUSH1 0x1 PUSH1 0x1 PUSH1 0xA0 SHL SUB SWAP1 SWAP2 AND DUP2 MSTORE PUSH1 0x20 ADD PUSH1 0x40 MLOAD DUP1 SWAP2 SUB SWAP1 LOG1 POP JUMP JUMPDEST PUSH7 0x2C68AF0BB14000 DUP2 JUMP JUMPDEST PUSH9 0xAD78EBC5AC6200000 DUP2 JUMP JUMPDEST PUSH1 0x28 DUP2 JUMP JUMPDEST PUSH7 0x58D15E17628000 DUP2 JUMP JUMPDEST PUSH3 0x15180 DUP2 JUMP JUMPDEST PUSH1 0x0 PUSH3 0x93A80 PUSH1 0x2 PUSH2 0x431 PUSH2 0x1236 JUMP JUMPDEST GAS PUSH2 0x43A PUSH2 0x12DF JUMP JUMPDEST SUB GT ISZERO PUSH2 0x449 JUMPI POP PUSH1 0x1 PUSH2 0x44D JUMP JUMPDEST POP PUSH1 0x0 JUMPDEST SWAP1 JUMP JUMPDEST PUSH2 0x458 PUSH2 0xE94 JUMP JUMPDEST PUSH9 0xAD78EBC5AC6200000 DUP2 GT ISZERO PUSH2 0x4A9 JUMPI PUSH1 0x40 MLOAD PUSH3 0x461BCD PUSH1 0xE5 SHL DUP2 MSTORE PUSH1 0x4 ADD DUP1 DUP1 PUSH1 0x20 ADD DUP3 DUP2 SUB DUP3 MSTORE PUSH1 0x26 DUP2 MSTORE PUSH1 0x20 ADD DUP1 PUSH2 0x156C PUSH1 0x26 SWAP2 CODECOPY PUSH1 0x40 ADD SWAP2 POP POP PUSH1 0x40 MLOAD DUP1 SWAP2 SUB SWAP1 PUSH2 0x4A6 PUSH2 0x11CB JUMP JUMPDEST POP POP JUMPDEST DUP1 DUP1 PUSH1 0x4 PUSH2 0x4B5 PUSH2 0x1291 JUMP JUMPDEST POP POP POP PUSH32 0x36E0C635F8B7D9314BB6F2A577046108EF0F8B5E3869FBD29FD5A448ED99D30 PUSH1 0x4 PUSH2 0x4E3 PUSH2 0x1236 JUMP JUMPDEST PUSH1 0x40 MLOAD SWAP1 DUP2 MSTORE PUSH1 0x20 ADD PUSH1 0x40 MLOAD DUP1 SWAP2 SUB SWAP1 LOG1 POP JUMP JUMPDEST PUSH1 0x0 DUP1 PUSH2 0x5C8 DUP4 PUSH2 0x5BC PUSH7 0x2C68AF0BB14000 PUSH20 0x0 PUSH4 0x907AF6C0 PUSH1 0x40 MLOAD DUP2 PUSH4 0xFFFFFFFF AND PUSH1 0xE0 SHL DUP2 MSTORE PUSH1 0x4 ADD PUSH1 0x20 PUSH1 0x40 MLOAD DUP1 DUP4 SUB DUP2 DUP7 DUP1 PUSH2 0x548 PUSH2 0x1325 JUMP JUMPDEST ISZERO DUP1 ISZERO PUSH2 0x55D JUMPI PUSH1 0x0 DUP1 PUSH2 0x55A PUSH2 0x11CB JUMP JUMPDEST POP POP JUMPDEST POP GAS PUSH2 0x567 PUSH2 0x1371 JUMP JUMPDEST POP POP POP POP POP ISZERO DUP1 ISZERO PUSH2 0x586 JUMPI RETURNDATASIZE PUSH1 0x0 DUP1 RETURNDATACOPY RETURNDATASIZE PUSH1 0x0 PUSH2 0x583 PUSH2 0x11CB JUMP JUMPDEST POP POP JUMPDEST POP POP POP POP PUSH1 0x40 MLOAD RETURNDATASIZE PUSH1 0x20 DUP2 LT ISZERO PUSH2 0x5A5 JUMPI PUSH1 0x0 DUP1 PUSH2 0x5A2 PUSH2 0x11CB JUMP JUMPDEST POP POP JUMPDEST DUP2 ADD SWAP1 DUP1 DUP1 MLOAD SWAP4 SWAP3 POP POP PUSH4 0xFFFFFFFF PUSH2 0xF11 AND SWAP1 POP JUMP JUMPDEST SWAP1 PUSH4 0xFFFFFFFF PUSH2 0xF76 AND JUMP JUMPDEST SWAP1 POP PUSH1 0x0 PUSH2 0x5E7 PUSH11 0x1316BA81B802F59713B13 DUP4 PUSH4 0xFFFFFFFF PUSH2 0x1067 AND JUMP JUMPDEST SWAP5 SWAP4 POP POP POP POP JUMP JUMPDEST PUSH1 0x0 PUSH1 0x1 PUSH2 0x5FB PUSH2 0x1236 JUMP JUMPDEST SWAP1 PUSH2 0x100 EXP SWAP1 DIV PUSH1 0x1 PUSH1 0x1 PUSH1 0xA0 SHL SUB AND DUP2 JUMP JUMPDEST PUSH1 0x0 PUSH1 0x1 PUSH2 0x61A PUSH2 0x1236 JUMP JUMPDEST SWAP1 PUSH2 0x100 EXP SWAP1 DIV PUSH1 0x1 PUSH1 0x1 PUSH1 0xA0 SHL SUB AND PUSH1 0x1 PUSH1 0x1 PUSH1 0xA0 SHL SUB AND GAS PUSH2 0x63C PUSH2 0x142A JUMP JUMPDEST PUSH1 0x1 PUSH1 0x1 PUSH1 0xA0 SHL SUB AND EQ PUSH2 0x68A JUMPI PUSH1 0x40 MLOAD PUSH3 0x461BCD PUSH1 0xE5 SHL DUP2 MSTORE PUSH1 0x4 ADD DUP1 DUP1 PUSH1 0x20 ADD DUP3 DUP2 SUB DUP3 MSTORE PUSH1 0x35 DUP2 MSTORE PUSH1 0x20 ADD DUP1 PUSH2 0x14B4 PUSH1 0x35 SWAP2 CODECOPY PUSH1 0x40 ADD SWAP2 POP POP PUSH1 0x40 MLOAD DUP1 SWAP2 SUB SWAP1 PUSH2 0x687 PUSH2 0x11CB JUMP JUMPDEST POP POP JUMPDEST PUSH32 0xB532073B38C83145E3E5135377A08BF9AAB55BC0FD7C1179CD4FB995D2A5159C PUSH1 0x0 DUP1 PUSH2 0x6B6 PUSH2 0x1236 JUMP JUMPDEST SWAP1 PUSH2 0x100 EXP SWAP1 DIV PUSH1 0x1 PUSH1 0x1 PUSH1 0xA0 SHL SUB AND PUSH1 0x1 PUSH1 0x0 SWAP1 PUSH2 0x6D3 PUSH2 0x1236 JUMP JUMPDEST SWAP1 PUSH2 0x100 EXP SWAP1 DIV PUSH1 0x1 PUSH1 0x1 PUSH1 0xA0 SHL SUB AND PUSH1 0x40 MLOAD PUSH1 0x1 PUSH1 0x1 PUSH1 0xA0 SHL SUB SWAP3 DUP4 AND DUP2 MSTORE SWAP2 AND PUSH1 0x20 DUP3 ADD MSTORE PUSH1 0x40 SWAP1 DUP2 ADD SWAP1 MLOAD DUP1 SWAP2 SUB SWAP1 LOG1 PUSH1 0x0 PUSH1 0x1 PUSH2 0x712 PUSH2 0x1236 JUMP JUMPDEST SWAP1 PUSH2 0x100 EXP SWAP1 DIV PUSH1 0x1 PUSH1 0x1 PUSH1 0xA0 SHL SUB AND PUSH1 0x0 DUP1 PUSH2 0x100 EXP DUP2 PUSH2 0x732 PUSH2 0x1236 JUMP JUMPDEST DUP2 PUSH1 0x1 PUSH1 0x1 PUSH1 0xA0 SHL SUB MUL NOT AND SWAP1 DUP4 PUSH1 0x1 PUSH1 0x1 PUSH1 0xA0 SHL SUB AND MUL OR SWAP1 PUSH2 0x754 PUSH2 0x1291 JUMP JUMPDEST POP POP POP PUSH1 0x0 PUSH1 0x1 PUSH1 0x0 PUSH2 0x100 EXP DUP2 PUSH2 0x76A PUSH2 0x1236 JUMP JUMPDEST DUP2 PUSH1 0x1 PUSH1 0x1 PUSH1 0xA0 SHL SUB MUL NOT AND SWAP1 DUP4 PUSH1 0x1 PUSH1 0x1 PUSH1 0xA0 SHL SUB AND MUL OR SWAP1 PUSH2 0x78C PUSH2 0x1291 JUMP JUMPDEST POP POP POP JUMP JUMPDEST PUSH1 0xEA DUP2 JUMP JUMPDEST PUSH4 0x5C7F0D80 DUP2 JUMP JUMPDEST PUSH1 0x0 DUP1 PUSH1 0x5 PUSH2 0x7AB PUSH2 0x1236 JUMP JUMPDEST SWAP1 PUSH2 0x100 EXP SWAP1 DIV PUSH1 0x1 PUSH1 0x1 PUSH1 0xA0 SHL SUB AND PUSH1 0x1 PUSH1 0x1 PUSH1 0xA0 SHL SUB AND PUSH4 0xD4B83992 PUSH1 0x40 MLOAD DUP2 PUSH4 0xFFFFFFFF AND PUSH1 0xE0 SHL DUP2 MSTORE PUSH1 0x4 ADD PUSH1 0x20 PUSH1 0x40 MLOAD DUP1 DUP4 SUB DUP2 DUP7 DUP1 PUSH2 0x7EE PUSH2 0x1325 JUMP JUMPDEST ISZERO DUP1 ISZERO PUSH2 0x803 JUMPI PUSH1 0x0 DUP1 PUSH2 0x800 PUSH2 0x11CB JUMP JUMPDEST POP POP JUMPDEST POP GAS PUSH2 0x80D PUSH2 0x1470 JUMP JUMPDEST POP POP POP POP POP ISZERO DUP1 ISZERO PUSH2 0x82C JUMPI RETURNDATASIZE PUSH1 0x0 DUP1 RETURNDATACOPY RETURNDATASIZE PUSH1 0x0 PUSH2 0x829 PUSH2 0x11CB JUMP JUMPDEST POP POP JUMPDEST POP POP POP POP PUSH1 0x40 MLOAD RETURNDATASIZE PUSH1 0x20 DUP2 LT ISZERO PUSH2 0x84B JUMPI PUSH1 0x0 DUP1 PUSH2 0x848 PUSH2 0x11CB JUMP JUMPDEST POP POP JUMPDEST DUP2 ADD SWAP1 DUP1 DUP1 MLOAD PUSH1 0x1 PUSH1 0x1 PUSH1 0xA0 SHL SUB AND SWAP3 POP POP POP GAS PUSH2 0x867 PUSH2 0x142A JUMP JUMPDEST PUSH1 0x1 PUSH1 0x1 PUSH1 0xA0 SHL SUB AND EQ PUSH2 0x8B5 JUMPI PUSH1 0x40 MLOAD PUSH3 0x461BCD PUSH1 0xE5 SHL DUP2 MSTORE PUSH1 0x4 ADD DUP1 DUP1 PUSH1 0x20 ADD DUP3 DUP2 SUB DUP3 MSTORE PUSH1 0x33 DUP2 MSTORE PUSH1 0x20 ADD DUP1 PUSH2 0x1539 PUSH1 0x33 SWAP2 CODECOPY PUSH1 0x40 ADD SWAP2 POP POP PUSH1 0x40 MLOAD DUP1 SWAP2 SUB SWAP1 PUSH2 0x8B2 PUSH2 0x11CB JUMP JUMPDEST POP POP JUMPDEST PUSH1 0x0 PUSH2 0x8BF PUSH2 0xE26 JUMP JUMPDEST SWAP1 POP PUSH2 0x8DB DUP2 PUSH1 0x3 PUSH2 0x8CF PUSH2 0x1236 JUMP JUMPDEST SWAP1 PUSH4 0xFFFFFFFF PUSH2 0x1091 AND JUMP JUMPDEST DUP1 PUSH1 0x3 PUSH2 0x8E6 PUSH2 0x1291 JUMP JUMPDEST POP POP POP PUSH2 0x921 PUSH3 0x15180 PUSH2 0x8CF PUSH2 0x910 PUSH3 0x93A80 PUSH1 0x3 PUSH2 0x904 PUSH2 0x1236 JUMP JUMPDEST SWAP1 PUSH4 0xFFFFFFFF PUSH2 0x10FA AND JUMP JUMPDEST PUSH4 0x5C7F0D80 SWAP1 PUSH4 0xFFFFFFFF PUSH2 0x1091 AND JUMP JUMPDEST DUP1 PUSH1 0x2 PUSH2 0x92C PUSH2 0x1291 JUMP JUMPDEST POP POP POP PUSH32 0x601E517D4811033FED8290C79B7823CE1AB70258DA45400FE2391A3C7432EDAB DUP4 DUP3 PUSH1 0x2 PUSH2 0x95C PUSH2 0x1236 JUMP JUMPDEST GAS PUSH2 0x965 PUSH2 0x12DF JUMP JUMPDEST PUSH1 0x40 MLOAD DUP1 DUP6 DUP2 MSTORE PUSH1 0x20 ADD DUP5 DUP2 MSTORE PUSH1 0x20 ADD DUP4 DUP2 MSTORE PUSH1 0x20 ADD DUP3 DUP2 MSTORE PUSH1 0x20 ADD SWAP5 POP POP POP POP POP PUSH1 0x40 MLOAD DUP1 SWAP2 SUB SWAP1 LOG1 POP PUSH1 0x1 SWAP3 SWAP2 POP POP JUMP JUMPDEST PUSH1 0x0 DUP1 PUSH2 0x5FB PUSH2 0x1236 JUMP JUMPDEST PUSH2 0x9AB PUSH2 0xE94 JUMP JUMPDEST PUSH1 0x1 PUSH1 0x1 PUSH1 0xA0 SHL SUB DUP2 AND PUSH2 0xA04 JUMPI PUSH1 0x40 MLOAD PUSH3 0x461BCD PUSH1 0xE5 SHL DUP2 MSTORE PUSH1 0x20 PUSH1 0x4 DUP3 ADD MSTORE PUSH1 0x13 PUSH1 0x24 DUP3 ADD MSTORE PUSH19 0x416464726573732063616E6E6F74206265203 PUSH1 0x6C SHL PUSH1 0x44 DUP3 ADD MSTORE PUSH1 0x64 ADD PUSH1 0x40 MLOAD DUP1 SWAP2 SUB SWAP1 PUSH2 0xA01 PUSH2 0x11CB JUMP JUMPDEST POP POP JUMPDEST DUP1 PUSH1 0x5 PUSH1 0x1 DUP2 PUSH2 0xA12 PUSH2 0x1236 JUMP JUMPDEST DUP2 PUSH1 0x1 PUSH1 0x1 PUSH1 0xA0 SHL SUB MUL NOT AND SWAP1 DUP4 PUSH1 0x1 PUSH1 0x1 PUSH1 0xA0 SHL SUB AND MUL OR SWAP1 PUSH2 0xA34 PUSH2 0x1291 JUMP JUMPDEST POP POP POP PUSH32 0xF8DF0556B7FDE3C4B8394EAE329AEDFA59C6FFD8B532D572A1EFCFA3424CA5FC PUSH1 0x5 PUSH1 0x0 SWAP1 PUSH2 0xA65 PUSH2 0x1236 JUMP JUMPDEST SWAP1 PUSH2 0x100 EXP SWAP1 DIV PUSH1 0x1 PUSH1 0x1 PUSH1 0xA0 SHL SUB AND PUSH1 0x40 MLOAD PUSH1 0x1 PUSH1 0x1 PUSH1 0xA0 SHL SUB SWAP1 SWAP2 AND DUP2 MSTORE PUSH1 0x20 ADD PUSH1 0x40 MLOAD DUP1 SWAP2 SUB SWAP1 LOG1 POP JUMP JUMPDEST PUSH1 0x4 PUSH2 0xA9D PUSH2 0x1236 JUMP JUMPDEST DUP2 JUMP JUMPDEST PUSH1 0x0 DUP1 PUSH2 0xB75 DUP4 PUSH2 0x5BC PUSH2 0xAC2 PUSH7 0x58D15E17628000 PUSH1 0x34 PUSH4 0xFFFFFFFF PUSH2 0x1159 AND JUMP JUMPDEST PUSH20 0x0 PUSH4 0x907AF6C0 PUSH1 0x40 MLOAD DUP2 PUSH4 0xFFFFFFFF AND PUSH1 0xE0 SHL DUP2 MSTORE PUSH1 0x4 ADD PUSH1 0x20 PUSH1 0x40 MLOAD DUP1 DUP4 SUB DUP2 DUP7 DUP1 PUSH2 0xB01 PUSH2 0x1325 JUMP JUMPDEST ISZERO DUP1 ISZERO PUSH2 0xB16 JUMPI PUSH1 0x0 DUP1 PUSH2 0xB13 PUSH2 0x11CB JUMP JUMPDEST POP POP JUMPDEST POP GAS PUSH2 0xB20 PUSH2 0x1371 JUMP JUMPDEST POP POP POP POP POP ISZERO DUP1 ISZERO PUSH2 0xB3F JUMPI RETURNDATASIZE PUSH1 0x0 DUP1 RETURNDATACOPY RETURNDATASIZE PUSH1 0x0 PUSH2 0xB3C PUSH2 0x11CB JUMP JUMPDEST POP POP JUMPDEST POP POP POP POP PUSH1 0x40 MLOAD RETURNDATASIZE PUSH1 0x20 DUP2 LT ISZERO PUSH2 0xB5E JUMPI PUSH1 0x0 DUP1 PUSH2 0xB5B PUSH2 0x11CB JUMP JUMPDEST POP POP JUMPDEST DUP2 ADD SWAP1 DUP1 DUP1 MLOAD SWAP4 SWAP3 POP POP PUSH4 0xFFFFFFFF PUSH2 0x1091 AND SWAP1 POP JUMP JUMPDEST SWAP1 POP PUSH2 0xC3D PUSH2 0xC30 PUSH20 0x0 PUSH4 0x907AF6C0 PUSH1 0x40 MLOAD DUP2 PUSH4 0xFFFFFFFF AND PUSH1 0xE0 SHL DUP2 MSTORE PUSH1 0x4 ADD PUSH1 0x20 PUSH1 0x40 MLOAD DUP1 DUP4 SUB DUP2 DUP7 DUP1 PUSH2 0xBBC PUSH2 0x1325 JUMP JUMPDEST ISZERO DUP1 ISZERO PUSH2 0xBD1 JUMPI PUSH1 0x0 DUP1 PUSH2 0xBCE PUSH2 0x11CB JUMP JUMPDEST POP POP JUMPDEST POP GAS PUSH2 0xBDB PUSH2 0x1371 JUMP JUMPDEST POP POP POP POP POP ISZERO DUP1 ISZERO PUSH2 0xBFA JUMPI RETURNDATASIZE PUSH1 0x0 DUP1 RETURNDATACOPY RETURNDATASIZE PUSH1 0x0 PUSH2 0xBF7 PUSH2 0x11CB JUMP JUMPDEST POP POP JUMPDEST POP POP POP POP PUSH1 0x40 MLOAD RETURNDATASIZE PUSH1 0x20 DUP2 LT ISZERO PUSH2 0xC19 JUMPI PUSH1 0x0 DUP1 PUSH2 0xC16 PUSH2 0x11CB JUMP JUMPDEST POP POP JUMPDEST DUP2 ADD SWAP1 DUP1 DUP1 MLOAD DUP7 SWAP4 POP SWAP2 POP POP PUSH4 0xFFFFFFFF PUSH2 0xF11 AND JUMP JUMPDEST DUP6 SWAP1 PUSH4 0xFFFFFFFF PUSH2 0x1067 AND JUMP JUMPDEST SWAP2 POP POP JUMPDEST SWAP3 SWAP2 POP POP JUMP JUMPDEST PUSH11 0x1316BA81B802F59713B13 DUP2 JUMP JUMPDEST PUSH1 0x0 PUSH1 0x5 PUSH2 0x5FB PUSH2 0x1236 JUMP JUMPDEST PUSH1 0x2 PUSH2 0xA9D PUSH2 0x1236 JUMP JUMPDEST PUSH1 0x0 DUP1 PUSH2 0xC77 PUSH2 0x421 JUMP JUMPDEST PUSH2 0xC82 JUMPI SWAP1 POP PUSH2 0x44D JUMP JUMPDEST PUSH1 0x0 PUSH2 0xC8C PUSH2 0xE26 JUMP JUMPDEST SWAP1 POP PUSH1 0x0 PUSH1 0x3 PUSH2 0xC9A PUSH2 0x1236 JUMP JUMPDEST SWAP1 POP JUMPDEST DUP2 ISZERO PUSH2 0xE14 JUMPI PUSH1 0x1 ADD PUSH1 0x28 DUP2 LT ISZERO PUSH2 0xCD8 JUMPI PUSH2 0xCCA DUP4 PUSH11 0x1316BA81B802F59713B13 PUSH4 0xFFFFFFFF PUSH2 0x1091 AND JUMP JUMPDEST SWAP3 POP PUSH1 0x0 NOT SWAP1 SWAP2 ADD SWAP1 PUSH2 0xE0F JUMP JUMPDEST PUSH1 0xEA DUP2 GT PUSH2 0xD1D JUMPI PUSH1 0x0 PUSH2 0xCF3 DUP3 PUSH1 0x27 PUSH4 0xFFFFFFFF PUSH2 0xF11 AND JUMP JUMPDEST SWAP1 POP PUSH2 0xD0E PUSH2 0xD01 DUP3 PUSH2 0x4F7 JUMP JUMPDEST DUP6 SWAP1 PUSH4 0xFFFFFFFF PUSH2 0x1091 AND JUMP JUMPDEST SWAP4 POP POP PUSH1 0x0 NOT SWAP1 SWAP2 ADD SWAP1 PUSH2 0xE0F JUMP JUMPDEST PUSH1 0x0 DUP1 PUSH1 0x5 PUSH2 0xD2A PUSH2 0x1236 JUMP JUMPDEST SWAP1 PUSH2 0x100 EXP SWAP1 DIV PUSH1 0x1 PUSH1 0x1 PUSH1 0xA0 SHL SUB AND PUSH1 0x1 PUSH1 0x1 PUSH1 0xA0 SHL SUB AND PUSH4 0x18160DDD PUSH1 0x40 MLOAD DUP2 PUSH4 0xFFFFFFFF AND PUSH1 0xE0 SHL DUP2 MSTORE PUSH1 0x4 ADD PUSH1 0x20 PUSH1 0x40 MLOAD DUP1 DUP4 SUB DUP2 DUP7 DUP1 PUSH2 0xD6D PUSH2 0x1325 JUMP JUMPDEST ISZERO DUP1 ISZERO PUSH2 0xD82 JUMPI PUSH1 0x0 DUP1 PUSH2 0xD7F PUSH2 0x11CB JUMP JUMPDEST POP POP JUMPDEST POP GAS PUSH2 0xD8C PUSH2 0x1470 JUMP JUMPDEST POP POP POP POP POP ISZERO DUP1 ISZERO PUSH2 0xDAB JUMPI RETURNDATASIZE PUSH1 0x0 DUP1 RETURNDATACOPY RETURNDATASIZE PUSH1 0x0 PUSH2 0xDA8 PUSH2 0x11CB JUMP JUMPDEST POP POP JUMPDEST POP POP POP POP PUSH1 0x40 MLOAD RETURNDATASIZE PUSH1 0x20 DUP2 LT ISZERO PUSH2 0xDCA JUMPI PUSH1 0x0 DUP1 PUSH2 0xDC7 PUSH2 0x11CB JUMP JUMPDEST POP POP JUMPDEST DUP2 ADD SWAP1 DUP1 DUP1 MLOAD SWAP4 POP PUSH1 0x0 SWAP3 POP PUSH2 0xDEA SWAP2 POP DUP4 SWAP1 POP DUP7 PUSH4 0xFFFFFFFF PUSH2 0x1091 AND JUMP JUMPDEST SWAP1 POP PUSH2 0xE06 PUSH2 0xDF9 DUP3 DUP7 PUSH2 0xAA0 JUMP JUMPDEST DUP7 SWAP1 PUSH4 0xFFFFFFFF PUSH2 0x1091 AND JUMP JUMPDEST SWAP5 POP PUSH1 0x0 SWAP4 POP POP POP JUMPDEST PUSH2 0xC9D JUMP JUMPDEST POP SWAP1 SWAP2 POP POP SWAP1 JUMP JUMPDEST PUSH1 0x3 PUSH2 0xA9D PUSH2 0x1236 JUMP JUMPDEST PUSH1 0x0 DUP1 PUSH1 0x0 PUSH1 0x2 PUSH2 0xE35 PUSH2 0x1236 JUMP JUMPDEST GT PUSH2 0xE5C JUMPI PUSH2 0xE57 PUSH4 0x5C7F0D80 GAS PUSH2 0xE4B PUSH2 0x12DF JUMP JUMPDEST SWAP1 PUSH4 0xFFFFFFFF PUSH2 0xF11 AND JUMP JUMPDEST PUSH2 0xE72 JUMP JUMPDEST PUSH2 0xE72 PUSH1 0x2 PUSH2 0xE69 PUSH2 0x1236 JUMP JUMPDEST GAS PUSH2 0xE4B PUSH2 0x12DF JUMP JUMPDEST SWAP1 POP PUSH2 0xE87 DUP2 PUSH3 0x93A80 PUSH4 0xFFFFFFFF PUSH2 0x1159 AND JUMP JUMPDEST SWAP2 POP POP SWAP1 JUMP JUMPDEST PUSH3 0x93A80 DUP2 JUMP JUMPDEST PUSH1 0x0 DUP1 PUSH2 0xE9F PUSH2 0x1236 JUMP JUMPDEST SWAP1 PUSH2 0x100 EXP SWAP1 DIV PUSH1 0x1 PUSH1 0x1 PUSH1 0xA0 SHL SUB AND PUSH1 0x1 PUSH1 0x1 PUSH1 0xA0 SHL SUB AND GAS PUSH2 0xEC1 PUSH2 0x142A JUMP JUMPDEST PUSH1 0x1 PUSH1 0x1 PUSH1 0xA0 SHL SUB AND EQ PUSH2 0xF0F JUMPI PUSH1 0x40 MLOAD PUSH3 0x461BCD PUSH1 0xE5 SHL DUP2 MSTORE PUSH1 0x4 ADD DUP1 DUP1 PUSH1 0x20 ADD DUP3 DUP2 SUB DUP3 MSTORE PUSH1 0x2F DUP2 MSTORE PUSH1 0x20 ADD DUP1 PUSH2 0x14E9 PUSH1 0x2F SWAP2 CODECOPY PUSH1 0x40 ADD SWAP2 POP POP PUSH1 0x40 MLOAD DUP1 SWAP2 SUB SWAP1 PUSH2 0xF0C PUSH2 0x11CB JUMP JUMPDEST POP POP JUMPDEST JUMP JUMPDEST PUSH1 0x0 DUP3 DUP3 GT ISZERO PUSH2 0xF70 JUMPI PUSH1 0x40 MLOAD PUSH3 0x461BCD PUSH1 0xE5 SHL DUP2 MSTORE PUSH1 0x20 PUSH1 0x4 DUP3 ADD MSTORE PUSH1 0x1E PUSH1 0x24 DUP3 ADD MSTORE PUSH32 0x536166654D6174683A207375627472616374696F6E206F766572666C6F770000 PUSH1 0x44 DUP3 ADD MSTORE PUSH1 0x64 ADD PUSH1 0x40 MLOAD DUP1 SWAP2 SUB SWAP1 PUSH2 0xF6D PUSH2 0x11CB JUMP JUMPDEST POP POP JUMPDEST POP SWAP1 SUB SWAP1 JUMP JUMPDEST PUSH1 0x0 DUP1 PUSH20 0x0 PUSH4 0x907AF6C0 PUSH1 0x40 MLOAD DUP2 PUSH4 0xFFFFFFFF AND PUSH1 0xE0 SHL DUP2 MSTORE PUSH1 0x4 ADD PUSH1 0x20 PUSH1 0x40 MLOAD DUP1 DUP4 SUB DUP2 DUP7 DUP1 PUSH2 0xFB8 PUSH2 0x1325 JUMP JUMPDEST ISZERO DUP1 ISZERO PUSH2 0xFCD JUMPI PUSH1 0x0 DUP1 PUSH2 0xFCA PUSH2 0x11CB JUMP JUMPDEST POP POP JUMPDEST POP GAS PUSH2 0xFD7 PUSH2 0x1371 JUMP JUMPDEST POP POP POP POP POP ISZERO DUP1 ISZERO PUSH2 0xFF6 JUMPI RETURNDATASIZE PUSH1 0x0 DUP1 RETURNDATACOPY RETURNDATASIZE PUSH1 0x0 PUSH2 0xFF3 PUSH2 0x11CB JUMP JUMPDEST POP POP JUMPDEST POP POP POP POP PUSH1 0x40 MLOAD RETURNDATASIZE PUSH1 0x20 DUP2 LT ISZERO PUSH2 0x1015 JUMPI PUSH1 0x0 DUP1 PUSH2 0x1012 PUSH2 0x11CB JUMP JUMPDEST POP POP JUMPDEST DUP2 ADD SWAP1 DUP1 DUP1 MLOAD SWAP4 POP POP POP POP JUMPDEST DUP3 ISZERO PUSH2 0x1060 JUMPI PUSH1 0x2 DUP4 MOD ISZERO PUSH2 0x1043 JUMPI PUSH2 0x1040 DUP2 DUP6 PUSH4 0xFFFFFFFF PUSH2 0x1067 AND JUMP JUMPDEST SWAP1 POP JUMPDEST PUSH2 0x1053 DUP5 DUP1 PUSH4 0xFFFFFFFF PUSH2 0x1067 AND JUMP JUMPDEST SWAP4 POP PUSH1 0x2 DUP4 DIV SWAP3 POP PUSH2 0x1021 JUMP JUMPDEST SWAP4 SWAP3 POP POP POP JUMP JUMPDEST PUSH1 0x0 PUSH8 0xDE0B6B3A7640000 PUSH2 0x1082 DUP5 DUP5 PUSH4 0xFFFFFFFF PUSH2 0x10FA AND JUMP JUMPDEST DUP2 PUSH2 0x1089 JUMPI INVALID JUMPDEST DIV SWAP4 SWAP3 POP POP POP JUMP JUMPDEST PUSH1 0x0 DUP3 DUP3 ADD DUP4 DUP2 LT ISZERO PUSH2 0x1060 JUMPI PUSH1 0x40 MLOAD PUSH3 0x461BCD PUSH1 0xE5 SHL DUP2 MSTORE PUSH1 0x20 PUSH1 0x4 DUP3 ADD MSTORE PUSH1 0x1B PUSH1 0x24 DUP3 ADD MSTORE PUSH32 0x536166654D6174683A206164646974696F6E206F766572666C6F770000000000 PUSH1 0x44 DUP3 ADD MSTORE PUSH1 0x64 ADD PUSH1 0x40 MLOAD DUP1 SWAP2 SUB SWAP1 PUSH2 0x10F0 PUSH2 0x11CB JUMP JUMPDEST POP POP SWAP1 POP SWAP3 SWAP2 POP POP JUMP JUMPDEST PUSH1 0x0 DUP3 PUSH2 0x1109 JUMPI POP PUSH1 0x0 PUSH2 0xC41 JUMP JUMPDEST DUP3 DUP3 MUL DUP3 DUP5 DUP3 DUP2 PUSH2 0x1116 JUMPI INVALID JUMPDEST DIV EQ PUSH2 0x1060 JUMPI PUSH1 0x40 MLOAD PUSH3 0x461BCD PUSH1 0xE5 SHL DUP2 MSTORE PUSH1 0x4 ADD DUP1 DUP1 PUSH1 0x20 ADD DUP3 DUP2 SUB DUP3 MSTORE PUSH1 0x21 DUP2 MSTORE PUSH1 0x20 ADD DUP1 PUSH2 0x1518 PUSH1 0x21 SWAP2 CODECOPY PUSH1 0x40 ADD SWAP2 POP POP PUSH1 0x40 MLOAD DUP1 SWAP2 SUB SWAP1 PUSH2 0x10F0 PUSH2 0x11CB JUMP JUMPDEST PUSH1 0x0 DUP1 DUP3 GT PUSH2 0x11B7 JUMPI PUSH1 0x40 MLOAD PUSH3 0x461BCD PUSH1 0xE5 SHL DUP2 MSTORE PUSH1 0x20 PUSH1 0x4 DUP3 ADD MSTORE PUSH1 0x1A PUSH1 0x24 DUP3 ADD MSTORE PUSH32 0x536166654D6174683A206469766973696F6E206279207A65726F000000000000 PUSH1 0x44 DUP3 ADD MSTORE PUSH1 0x64 ADD PUSH1 0x40 MLOAD DUP1 SWAP2 SUB SWAP1 PUSH2 0x11B4 PUSH2 0x11CB JUMP JUMPDEST POP POP JUMPDEST PUSH1 0x0 DUP3 DUP5 DUP2 PUSH2 0x11C2 JUMPI INVALID JUMPDEST DIV SWAP5 SWAP4 POP POP POP POP JUMP JUMPDEST PUSH4 0x2A2A7ADB MSIZE DUP2 PUSH1 0xE0 SHL DUP2 MSTORE PUSH1 0x4 DUP2 ADD PUSH1 0x20 DUP2 MSTORE DUP6 PUSH1 0x20 DUP3 ADD MSTORE PUSH1 0x0 JUMPDEST DUP7 DUP2 LT ISZERO PUSH2 0x1203 JUMPI DUP1 DUP7 ADD MLOAD DUP3 DUP3 ADD PUSH1 0x40 ADD MSTORE PUSH1 0x20 ADD PUSH2 0x11E8 JUMP JUMPDEST POP PUSH1 0x20 DUP3 DUP8 PUSH1 0x64 ADD DUP5 CALLER PUSH1 0x0 SWAP1 GAS CALL PC PUSH1 0xE ADD JUMPI RETURNDATASIZE PUSH1 0x0 DUP1 RETURNDATACOPY RETURNDATASIZE PUSH1 0x0 REVERT JUMPDEST RETURNDATASIZE PUSH1 0x1 EQ ISZERO PC PUSH1 0xA ADD JUMPI PUSH1 0x1 PUSH1 0x0 RETURN JUMPDEST POP POP POP JUMP JUMPDEST PUSH4 0x3DAA959 MSIZE DUP2 PUSH1 0xE0 SHL DUP2 MSTORE DUP4 PUSH1 0x4 DUP3 ADD MSTORE PUSH1 0x20 DUP2 PUSH1 0x24 DUP4 CALLER PUSH1 0x0 SWAP1 GAS CALL PC PUSH1 0xE ADD JUMPI RETURNDATASIZE PUSH1 0x0 DUP1 RETURNDATACOPY RETURNDATASIZE PUSH1 0x0 REVERT JUMPDEST RETURNDATASIZE PUSH1 0x1 EQ ISZERO PC PUSH1 0xA ADD JUMPI PUSH1 0x1 PUSH1 0x0 RETURN JUMPDEST DUP1 MLOAD SWAP4 POP PUSH1 0x0 JUMPDEST PUSH1 0x40 DUP2 LT ISZERO PUSH2 0x78C JUMPI PUSH1 0x0 DUP3 DUP3 ADD MSTORE PUSH1 0x20 ADD PUSH2 0x127A JUMP JUMPDEST PUSH4 0x22BD64C0 MSIZE DUP2 PUSH1 0xE0 SHL DUP2 MSTORE DUP4 PUSH1 0x4 DUP3 ADD MSTORE DUP5 PUSH1 0x24 DUP3 ADD MSTORE PUSH1 0x0 DUP2 PUSH1 0x44 DUP4 CALLER PUSH1 0x0 SWAP1 GAS CALL PC PUSH1 0xE ADD JUMPI RETURNDATASIZE PUSH1 0x0 DUP1 RETURNDATACOPY RETURNDATASIZE PUSH1 0x0 REVERT JUMPDEST RETURNDATASIZE PUSH1 0x1 EQ ISZERO PC PUSH1 0xA ADD JUMPI PUSH1 0x1 PUSH1 0x0 RETURN JUMPDEST PUSH1 0x0 DUP2 MSTORE PUSH1 0x20 PUSH2 0x127A JUMP JUMPDEST PUSH4 0xBDBF8C36 MSIZE DUP2 PUSH1 0xE0 SHL DUP2 MSTORE PUSH1 0x20 DUP2 PUSH1 0x4 DUP4 CALLER PUSH1 0x0 SWAP1 GAS CALL PC PUSH1 0xE ADD JUMPI RETURNDATASIZE PUSH1 0x0 DUP1 RETURNDATACOPY RETURNDATASIZE PUSH1 0x0 REVERT JUMPDEST RETURNDATASIZE PUSH1 0x1 EQ ISZERO PC PUSH1 0xA ADD JUMPI PUSH1 0x1 PUSH1 0x0 RETURN JUMPDEST DUP1 MLOAD PUSH1 0x0 DUP3 MSTORE SWAP4 POP PUSH1 0x20 PUSH2 0x127A JUMP JUMPDEST PUSH4 0x8435035B MSIZE DUP2 PUSH1 0xE0 SHL DUP2 MSTORE DUP4 PUSH1 0x4 DUP3 ADD MSTORE PUSH1 0x20 DUP2 PUSH1 0x24 DUP4 CALLER PUSH1 0x0 SWAP1 GAS CALL PC PUSH1 0xE ADD JUMPI RETURNDATASIZE PUSH1 0x0 DUP1 RETURNDATACOPY RETURNDATASIZE PUSH1 0x0 REVERT JUMPDEST RETURNDATASIZE PUSH1 0x1 EQ ISZERO PC PUSH1 0xA ADD JUMPI PUSH1 0x1 PUSH1 0x0 RETURN JUMPDEST DUP1 MLOAD PUSH1 0x0 DUP3 MSTORE SWAP4 POP PUSH1 0x20 PUSH2 0x127A JUMP JUMPDEST PUSH4 0xFFE73914 MSIZE DUP2 PUSH1 0xE0 SHL DUP2 MSTORE DUP4 PUSH1 0x4 DUP3 ADD MSTORE DUP5 PUSH1 0x24 DUP3 ADD MSTORE PUSH1 0x60 PUSH1 0x44 DUP3 ADD MSTORE DUP7 PUSH1 0x64 DUP3 ADD MSTORE PUSH1 0x84 DUP2 ADD PUSH1 0x0 JUMPDEST DUP9 DUP2 LT ISZERO PUSH2 0x13B5 JUMPI DUP1 DUP9 ADD MLOAD DUP3 DUP3 ADD MSTORE PUSH1 0x20 ADD PUSH2 0x139D JUMP JUMPDEST POP DUP8 PUSH2 0x104 ADD DUP3 ADD PUSH1 0x60 DUP4 DUP11 PUSH2 0x104 ADD DUP6 CALLER PUSH1 0x0 SWAP1 GAS CALL PC PUSH1 0xE ADD JUMPI RETURNDATASIZE PUSH1 0x0 DUP1 RETURNDATACOPY RETURNDATASIZE PUSH1 0x0 REVERT JUMPDEST RETURNDATASIZE PUSH1 0x1 EQ ISZERO PC PUSH1 0xA ADD JUMPI PUSH1 0x1 PUSH1 0x0 RETURN JUMPDEST DUP3 MLOAD PUSH1 0x40 DUP5 ADD MLOAD RETURNDATASIZE PUSH1 0x0 DUP7 RETURNDATACOPY DUP13 DUP13 DUP3 PUSH1 0x60 DUP9 ADD CALLER POP PUSH1 0x0 PUSH1 0x4 GAS CALL POP MSIZE DUP6 JUMPDEST DUP2 DUP2 LT ISZERO PUSH2 0x141E JUMPI PUSH1 0x0 DUP2 MSTORE PUSH1 0x20 ADD PUSH2 0x140A JUMP JUMPDEST POP SWAP2 SWAP13 POP POP POP POP POP POP POP JUMP JUMPDEST PUSH4 0x73509064 MSIZE DUP2 PUSH1 0xE0 SHL DUP2 MSTORE PUSH1 0x20 DUP2 PUSH1 0x4 DUP4 CALLER PUSH1 0x0 SWAP1 GAS CALL PC PUSH1 0xE ADD JUMPI RETURNDATASIZE PUSH1 0x0 DUP1 RETURNDATACOPY RETURNDATASIZE PUSH1 0x0 REVERT JUMPDEST RETURNDATASIZE PUSH1 0x1 EQ ISZERO PC PUSH1 0xA ADD JUMPI PUSH1 0x1 PUSH1 0x0 RETURN JUMPDEST DUP1 MLOAD PUSH1 0x0 DUP3 MSTORE SWAP4 POP PUSH1 0x20 PUSH2 0x127A JUMP JUMPDEST PUSH4 0x8540661F MSIZE DUP2 PUSH1 0xE0 SHL DUP2 MSTORE DUP4 PUSH1 0x4 DUP3 ADD MSTORE DUP5 PUSH1 0x24 DUP3 ADD MSTORE PUSH1 0x60 PUSH1 0x44 DUP3 ADD MSTORE DUP7 PUSH1 0x64 DUP3 ADD MSTORE PUSH1 0x84 DUP2 ADD PUSH1 0x0 DUP9 DUP2 LT ISZERO PUSH2 0x13B5 JUMPI DUP1 DUP9 ADD MLOAD DUP3 DUP3 ADD MSTORE PUSH1 0x20 ADD PUSH2 0x139D JUMP INVALID MSIZE PUSH16 0x75206D757374206265206E6F6D696E61 PUSH21 0x6564206265666F726520796F752063616E20616363 PUSH6 0x7074206F776E PUSH6 0x72736869704F PUSH15 0x6C792074686520636F6E7472616374 KECCAK256 PUSH16 0x776E6572206D617920706572666F726D KECCAK256 PUSH21 0x68697320616374696F6E536166654D6174683A206D PUSH22 0x6C7469706C69636174696F6E206F766572666C6F774F PUSH15 0x6C79207468652073796E7468657469 PUSH25 0x20636F6E74726163742063616E20706572666F726D20746869 PUSH20 0x20616374696F6E5265776172642063616E6E6F74 KECCAK256 PUSH6 0x786365656420 PUSH14 0x6178206D696E7465722072657761 PUSH19 0x64000000000000000000000000000000000000 "
		},
		"deployedBytecode": {
			"linkReferences": {
				"SupplySchedule.sol": {
					"SafeDecimalMath": [
						{
							"length": 20,
							"start": 1291
						},
						{
							"length": 20,
							"start": 2756
						},
						{
							"length": 20,
							"start": 2943
						},
						{
							"length": 20,
							"start": 3963
						}
					]
				}
			},
			"object": "6080604052348015610019576000806100166111cb565b50505b506004361061017c5760003560e01c80637e1b823f116100e7578063badef30a116100a0578063cc5c095c1161007a578063cc5c095c14610358578063d3bd4bde14610360578063dbd3a6a714610368578063df5a9fc1146103705761017c565b8063badef30a14610340578063bdd1248214610348578063be801f01146103505761017c565b80637e1b823f146102a75780637e7961d7146102af5780638da5cb5b146102d557806395896b76146102dd5780639bdd7ac71461030c578063b3b2bcc0146103145761017c565b806346b45af71161013957806346b45af71461020b5780634ae26521146102275780634e070f501461024d57806353a47bb71461027357806379ba5097146102975780637c0605571461029f5761017c565b80631627540c1461018a5780631de40e49146101bb57806322af2bab146101d5578063251330f1146101dd57806325542064146101fb57806346872a2314610203575b6000806101876111cb565b50505b6101b9600480360360208110156101a9576000806101a66111cb565b50505b50356001600160a01b0316610378565b005b6101c36103f2565b60405190815260200160405180910390f35b6101c36103fd565b6101e561040a565b60405160ff909116815260200160405180910390f35b6101c361040f565b6101c361041a565b610213610421565b604051901515815260200160405180910390f35b6101b960048036036020811015610246576000806102436111cb565b50505b5035610450565b6101c36004803603602081101561026c576000806102696111cb565b50505b50356104f7565b61027b6105ef565b6040516001600160a01b03909116815260200160405180910390f35b6101b961060e565b6101e5610791565b6101c3610796565b610213600480360360208110156102ce576000806102cb6111cb565b50505b503561079e565b61027b610998565b6101b9600480360360208110156102fc576000806102f96111cb565b50505b50356001600160a01b03166109a3565b6101c3610a93565b6101c360048036036040811015610333576000806103306111cb565b50505b5080359060200135610aa0565b6101c3610c47565b61027b610c56565b6101c3610c62565b6101c3610c6c565b6101c3610e1c565b6101c3610e26565b6101c3610e8d565b610380610e94565b806001808061038d611236565b816001600160a01b0302191690836001600160a01b03160217906103af611291565b5050507f906a1c6bd7e3091ea86693dd029a831c19049ce77f1dce2ce0bab1cacbabce22816040516001600160a01b03909116815260200160405180910390a150565b662c68af0bb1400081565b680ad78ebc5ac620000081565b602881565b6658d15e1762800081565b6201518081565b600062093a806002610431611236565b5a61043a6112df565b0311156104495750600161044d565b5060005b90565b610458610e94565b680ad78ebc5ac62000008111156104a95760405162461bcd60e51b815260040180806020018281038252602681526020018061156c60269139604001915050604051809103906104a66111cb565b50505b808060046104b5611291565b5050507f036e0c635f8b7d9314bb6f2a577046108ef0f8b5e3869fbd29fd5a448ed99d3060046104e3611236565b60405190815260200160405180910390a150565b6000806105c8836105bc662c68af0bb1400073__$4162ccbd5d91574b6bbbe632a759499ba8$__63907af6c06040518163ffffffff1660e01b81526004016020604051808303818680610548611325565b15801561055d5760008061055a6111cb565b50505b505a610567611371565b5050505050158015610586573d6000803e3d60006105836111cb565b50505b505050506040513d60208110156105a5576000806105a26111cb565b50505b8101908080519392505063ffffffff610f11169050565b9063ffffffff610f7616565b905060006105e76a01316ba81b802f59713b138363ffffffff61106716565b949350505050565b600060016105fb611236565b906101000a90046001600160a01b031681565b6000600161061a611236565b906101000a90046001600160a01b03166001600160a01b03165a61063c61142a565b6001600160a01b03161461068a5760405162461bcd60e51b81526004018080602001828103825260358152602001806114b460359139604001915050604051809103906106876111cb565b50505b7fb532073b38c83145e3e5135377a08bf9aab55bc0fd7c1179cd4fb995d2a5159c6000806106b6611236565b906101000a90046001600160a01b031660016000906106d3611236565b906101000a90046001600160a01b03166040516001600160a01b039283168152911660208201526040908101905180910390a160006001610712611236565b906101000a90046001600160a01b03166000806101000a81610732611236565b816001600160a01b0302191690836001600160a01b0316021790610754611291565b5050506000600160006101000a8161076a611236565b816001600160a01b0302191690836001600160a01b031602179061078c611291565b505050565b60ea81565b635c7f0d8081565b60008060056107ab611236565b906101000a90046001600160a01b03166001600160a01b031663d4b839926040518163ffffffff1660e01b815260040160206040518083038186806107ee611325565b158015610803576000806108006111cb565b50505b505a61080d611470565b505050505015801561082c573d6000803e3d60006108296111cb565b50505b505050506040513d602081101561084b576000806108486111cb565b50505b8101908080516001600160a01b0316925050505a61086761142a565b6001600160a01b0316146108b55760405162461bcd60e51b815260040180806020018281038252603381526020018061153960339139604001915050604051809103906108b26111cb565b50505b60006108bf610e26565b90506108db8160036108cf611236565b9063ffffffff61109116565b8060036108e6611291565b505050610921620151806108cf61091062093a806003610904611236565b9063ffffffff6110fa16565b635c7f0d809063ffffffff61109116565b80600261092c611291565b5050507f601e517d4811033fed8290c79b7823ce1ab70258da45400fe2391a3c7432edab8382600261095c611236565b5a6109656112df565b6040518085815260200184815260200183815260200182815260200194505050505060405180910390a150600192915050565b6000806105fb611236565b6109ab610e94565b6001600160a01b038116610a045760405162461bcd60e51b81526020600482015260136024820152720416464726573732063616e6e6f74206265203606c1b604482015260640160405180910390610a016111cb565b50505b806005600181610a12611236565b816001600160a01b0302191690836001600160a01b0316021790610a34611291565b5050507ff8df0556b7fde3c4b8394eae329aedfa59c6ffd8b532d572a1efcfa3424ca5fc6005600090610a65611236565b906101000a90046001600160a01b03166040516001600160a01b03909116815260200160405180910390a150565b6004610a9d611236565b81565b600080610b75836105bc610ac26658d15e17628000603463ffffffff61115916565b73__$4162ccbd5d91574b6bbbe632a759499ba8$__63907af6c06040518163ffffffff1660e01b81526004016020604051808303818680610b01611325565b158015610b1657600080610b136111cb565b50505b505a610b20611371565b5050505050158015610b3f573d6000803e3d6000610b3c6111cb565b50505b505050506040513d6020811015610b5e57600080610b5b6111cb565b50505b8101908080519392505063ffffffff611091169050565b9050610c3d610c3073__$4162ccbd5d91574b6bbbe632a759499ba8$__63907af6c06040518163ffffffff1660e01b81526004016020604051808303818680610bbc611325565b158015610bd157600080610bce6111cb565b50505b505a610bdb611371565b5050505050158015610bfa573d6000803e3d6000610bf76111cb565b50505b505050506040513d6020811015610c1957600080610c166111cb565b50505b81019080805186935091505063ffffffff610f1116565b859063ffffffff61106716565b9150505b92915050565b6a01316ba81b802f59713b1381565b600060056105fb611236565b6002610a9d611236565b600080610c77610421565b610c8257905061044d565b6000610c8c610e26565b905060006003610c9a611236565b90505b8115610e14576001016028811015610cd857610cca836a01316ba81b802f59713b1363ffffffff61109116565b925060001990910190610e0f565b60ea8111610d1d576000610cf382602763ffffffff610f1116565b9050610d0e610d01826104f7565b859063ffffffff61109116565b93505060001990910190610e0f565b6000806005610d2a611236565b906101000a90046001600160a01b03166001600160a01b03166318160ddd6040518163ffffffff1660e01b81526004016020604051808303818680610d6d611325565b158015610d8257600080610d7f6111cb565b50505b505a610d8c611470565b5050505050158015610dab573d6000803e3d6000610da86111cb565b50505b505050506040513d6020811015610dca57600080610dc76111cb565b50505b810190808051935060009250610dea91508390508663ffffffff61109116565b9050610e06610df98286610aa0565b869063ffffffff61109116565b94506000935050505b610c9d565b509091505090565b6003610a9d611236565b60008060006002610e35611236565b11610e5c57610e57635c7f0d805a610e4b6112df565b9063ffffffff610f1116565b610e72565b610e726002610e69611236565b5a610e4b6112df565b9050610e878162093a8063ffffffff61115916565b91505090565b62093a8081565b600080610e9f611236565b906101000a90046001600160a01b03166001600160a01b03165a610ec161142a565b6001600160a01b031614610f0f5760405162461bcd60e51b815260040180806020018281038252602f8152602001806114e9602f913960400191505060405180910390610f0c6111cb565b50505b565b600082821115610f705760405162461bcd60e51b815260206004820152601e60248201527f536166654d6174683a207375627472616374696f6e206f766572666c6f770000604482015260640160405180910390610f6d6111cb565b50505b50900390565b60008073__$4162ccbd5d91574b6bbbe632a759499ba8$__63907af6c06040518163ffffffff1660e01b81526004016020604051808303818680610fb8611325565b158015610fcd57600080610fca6111cb565b50505b505a610fd7611371565b5050505050158015610ff6573d6000803e3d6000610ff36111cb565b50505b505050506040513d6020811015611015576000806110126111cb565b50505b81019080805193505050505b821561106057600283061561104357611040818563ffffffff61106716565b90505b611053848063ffffffff61106716565b9350600283049250611021565b9392505050565b6000670de0b6b3a7640000611082848463ffffffff6110fa16565b8161108957fe5b049392505050565b6000828201838110156110605760405162461bcd60e51b815260206004820152601b60248201527f536166654d6174683a206164646974696f6e206f766572666c6f7700000000006044820152606401604051809103906110f06111cb565b5050905092915050565b60008261110957506000610c41565b8282028284828161111657fe5b04146110605760405162461bcd60e51b815260040180806020018281038252602181526020018061151860219139604001915050604051809103906110f06111cb565b60008082116111b75760405162461bcd60e51b815260206004820152601a60248201527f536166654d6174683a206469766973696f6e206279207a65726f0000000000006044820152606401604051809103906111b46111cb565b50505b60008284816111c257fe5b04949350505050565b632a2a7adb598160e01b8152600481016020815285602082015260005b868110156112035780860151828201604001526020016111e8565b506020828760640184336000905af158601d01573d60011458600c01573d6000803e3d621234565260ea61109c52505050565b6303daa959598160e01b8152836004820152602081602483336000905af158601d01573d60011458600c01573d6000803e3d621234565260ea61109c528051935060005b604081101561078c5760008282015260200161127a565b6322bd64c0598160e01b8152836004820152846024820152600081604483336000905af158601d01573d60011458600c01573d6000803e3d621234565260ea61109c5260008152602061127a565b63bdbf8c36598160e01b8152602081600483336000905af158601d01573d60011458600c01573d6000803e3d621234565260ea61109c528051600082529350602061127a565b638435035b598160e01b8152836004820152602081602483336000905af158601d01573d60011458600c01573d6000803e3d621234565260ea61109c528051600082529350602061127a565b63ffe73914598160e01b8152836004820152846024820152606060448201528660648201526084810160005b888110156113b557808801518282015260200161139d565b50876101040182016060838a6101040185336000905af158601d01573d60011458600c01573d6000803e3d621234565260ea61109c52825160408401513d6000863e8c8c82606088013350600060045af15059855b8181101561141e576000815260200161140a565b50919c50505050505050565b6373509064598160e01b8152602081600483336000905af158601d01573d60011458600c01573d6000803e3d621234565260ea61109c528051600082529350602061127a565b638540661f598160e01b815283600482015284602482015260606044820152866064820152608481016000888110156113b557808801518282015260200161139d56fe596f75206d757374206265206e6f6d696e61746564206265666f726520796f752063616e20616363657074206f776e6572736869704f6e6c792074686520636f6e7472616374206f776e6572206d617920706572666f726d207468697320616374696f6e536166654d6174683a206d756c7469706c69636174696f6e206f766572666c6f774f6e6c79207468652073796e74686574697820636f6e74726163742063616e20706572666f726d207468697320616374696f6e5265776172642063616e6e6f7420657863656564206d6178206d696e74657220726577617264",
			"opcodes": "PUSH1 0x80 PUSH1 0x40 MSTORE CALLVALUE DUP1 ISZERO PUSH2 0x19 JUMPI PUSH1 0x0 DUP1 PUSH2 0x16 PUSH2 0x11CB JUMP JUMPDEST POP POP JUMPDEST POP PUSH1 0x4 CALLDATASIZE LT PUSH2 0x17C JUMPI PUSH1 0x0 CALLDATALOAD PUSH1 0xE0 SHR DUP1 PUSH4 0x7E1B823F GT PUSH2 0xE7 JUMPI DUP1 PUSH4 0xBADEF30A GT PUSH2 0xA0 JUMPI DUP1 PUSH4 0xCC5C095C GT PUSH2 0x7A JUMPI DUP1 PUSH4 0xCC5C095C EQ PUSH2 0x358 JUMPI DUP1 PUSH4 0xD3BD4BDE EQ PUSH2 0x360 JUMPI DUP1 PUSH4 0xDBD3A6A7 EQ PUSH2 0x368 JUMPI DUP1 PUSH4 0xDF5A9FC1 EQ PUSH2 0x370 JUMPI PUSH2 0x17C JUMP JUMPDEST DUP1 PUSH4 0xBADEF30A EQ PUSH2 0x340 JUMPI DUP1 PUSH4 0xBDD12482 EQ PUSH2 0x348 JUMPI DUP1 PUSH4 0xBE801F01 EQ PUSH2 0x350 JUMPI PUSH2 0x17C JUMP JUMPDEST DUP1 PUSH4 0x7E1B823F EQ PUSH2 0x2A7 JUMPI DUP1 PUSH4 0x7E7961D7 EQ PUSH2 0x2AF JUMPI DUP1 PUSH4 0x8DA5CB5B EQ PUSH2 0x2D5 JUMPI DUP1 PUSH4 0x95896B76 EQ PUSH2 0x2DD JUMPI DUP1 PUSH4 0x9BDD7AC7 EQ PUSH2 0x30C JUMPI DUP1 PUSH4 0xB3B2BCC0 EQ PUSH2 0x314 JUMPI PUSH2 0x17C JUMP JUMPDEST DUP1 PUSH4 0x46B45AF7 GT PUSH2 0x139 JUMPI DUP1 PUSH4 0x46B45AF7 EQ PUSH2 0x20B JUMPI DUP1 PUSH4 0x4AE26521 EQ PUSH2 0x227 JUMPI DUP1 PUSH4 0x4E070F50 EQ PUSH2 0x24D JUMPI DUP1 PUSH4 0x53A47BB7 EQ PUSH2 0x273 JUMPI DUP1 PUSH4 0x79BA5097 EQ PUSH2 0x297 JUMPI DUP1 PUSH4 0x7C060557 EQ PUSH2 0x29F JUMPI PUSH2 0x17C JUMP JUMPDEST DUP1 PUSH4 0x1627540C EQ PUSH2 0x18A JUMPI DUP1 PUSH4 0x1DE40E49 EQ PUSH2 0x1BB JUMPI DUP1 PUSH4 0x22AF2BAB EQ PUSH2 0x1D5 JUMPI DUP1 PUSH4 0x251330F1 EQ PUSH2 0x1DD JUMPI DUP1 PUSH4 0x25542064 EQ PUSH2 0x1FB JUMPI DUP1 PUSH4 0x46872A23 EQ PUSH2 0x203 JUMPI JUMPDEST PUSH1 0x0 DUP1 PUSH2 0x187 PUSH2 0x11CB JUMP JUMPDEST POP POP JUMPDEST PUSH2 0x1B9 PUSH1 0x4 DUP1 CALLDATASIZE SUB PUSH1 0x20 DUP2 LT ISZERO PUSH2 0x1A9 JUMPI PUSH1 0x0 DUP1 PUSH2 0x1A6 PUSH2 0x11CB JUMP JUMPDEST POP POP JUMPDEST POP CALLDATALOAD PUSH1 0x1 PUSH1 0x1 PUSH1 0xA0 SHL SUB AND PUSH2 0x378 JUMP JUMPDEST STOP JUMPDEST PUSH2 0x1C3 PUSH2 0x3F2 JUMP JUMPDEST PUSH1 0x40 MLOAD SWAP1 DUP2 MSTORE PUSH1 0x20 ADD PUSH1 0x40 MLOAD DUP1 SWAP2 SUB SWAP1 RETURN JUMPDEST PUSH2 0x1C3 PUSH2 0x3FD JUMP JUMPDEST PUSH2 0x1E5 PUSH2 0x40A JUMP JUMPDEST PUSH1 0x40 MLOAD PUSH1 0xFF SWAP1 SWAP2 AND DUP2 MSTORE PUSH1 0x20 ADD PUSH1 0x40 MLOAD DUP1 SWAP2 SUB SWAP1 RETURN JUMPDEST PUSH2 0x1C3 PUSH2 0x40F JUMP JUMPDEST PUSH2 0x1C3 PUSH2 0x41A JUMP JUMPDEST PUSH2 0x213 PUSH2 0x421 JUMP JUMPDEST PUSH1 0x40 MLOAD SWAP1 ISZERO ISZERO DUP2 MSTORE PUSH1 0x20 ADD PUSH1 0x40 MLOAD DUP1 SWAP2 SUB SWAP1 RETURN JUMPDEST PUSH2 0x1B9 PUSH1 0x4 DUP1 CALLDATASIZE SUB PUSH1 0x20 DUP2 LT ISZERO PUSH2 0x246 JUMPI PUSH1 0x0 DUP1 PUSH2 0x243 PUSH2 0x11CB JUMP JUMPDEST POP POP JUMPDEST POP CALLDATALOAD PUSH2 0x450 JUMP JUMPDEST PUSH2 0x1C3 PUSH1 0x4 DUP1 CALLDATASIZE SUB PUSH1 0x20 DUP2 LT ISZERO PUSH2 0x26C JUMPI PUSH1 0x0 DUP1 PUSH2 0x269 PUSH2 0x11CB JUMP JUMPDEST POP POP JUMPDEST POP CALLDATALOAD PUSH2 0x4F7 JUMP JUMPDEST PUSH2 0x27B PUSH2 0x5EF JUMP JUMPDEST PUSH1 0x40 MLOAD PUSH1 0x1 PUSH1 0x1 PUSH1 0xA0 SHL SUB SWAP1 SWAP2 AND DUP2 MSTORE PUSH1 0x20 ADD PUSH1 0x40 MLOAD DUP1 SWAP2 SUB SWAP1 RETURN JUMPDEST PUSH2 0x1B9 PUSH2 0x60E JUMP JUMPDEST PUSH2 0x1E5 PUSH2 0x791 JUMP JUMPDEST PUSH2 0x1C3 PUSH2 0x796 JUMP JUMPDEST PUSH2 0x213 PUSH1 0x4 DUP1 CALLDATASIZE SUB PUSH1 0x20 DUP2 LT ISZERO PUSH2 0x2CE JUMPI PUSH1 0x0 DUP1 PUSH2 0x2CB PUSH2 0x11CB JUMP JUMPDEST POP POP JUMPDEST POP CALLDATALOAD PUSH2 0x79E JUMP JUMPDEST PUSH2 0x27B PUSH2 0x998 JUMP JUMPDEST PUSH2 0x1B9 PUSH1 0x4 DUP1 CALLDATASIZE SUB PUSH1 0x20 DUP2 LT ISZERO PUSH2 0x2FC JUMPI PUSH1 0x0 DUP1 PUSH2 0x2F9 PUSH2 0x11CB JUMP JUMPDEST POP POP JUMPDEST POP CALLDATALOAD PUSH1 0x1 PUSH1 0x1 PUSH1 0xA0 SHL SUB AND PUSH2 0x9A3 JUMP JUMPDEST PUSH2 0x1C3 PUSH2 0xA93 JUMP JUMPDEST PUSH2 0x1C3 PUSH1 0x4 DUP1 CALLDATASIZE SUB PUSH1 0x40 DUP2 LT ISZERO PUSH2 0x333 JUMPI PUSH1 0x0 DUP1 PUSH2 0x330 PUSH2 0x11CB JUMP JUMPDEST POP POP JUMPDEST POP DUP1 CALLDATALOAD SWAP1 PUSH1 0x20 ADD CALLDATALOAD PUSH2 0xAA0 JUMP JUMPDEST PUSH2 0x1C3 PUSH2 0xC47 JUMP JUMPDEST PUSH2 0x27B PUSH2 0xC56 JUMP JUMPDEST PUSH2 0x1C3 PUSH2 0xC62 JUMP JUMPDEST PUSH2 0x1C3 PUSH2 0xC6C JUMP JUMPDEST PUSH2 0x1C3 PUSH2 0xE1C JUMP JUMPDEST PUSH2 0x1C3 PUSH2 0xE26 JUMP JUMPDEST PUSH2 0x1C3 PUSH2 0xE8D JUMP JUMPDEST PUSH2 0x380 PUSH2 0xE94 JUMP JUMPDEST DUP1 PUSH1 0x1 DUP1 DUP1 PUSH2 0x38D PUSH2 0x1236 JUMP JUMPDEST DUP2 PUSH1 0x1 PUSH1 0x1 PUSH1 0xA0 SHL SUB MUL NOT AND SWAP1 DUP4 PUSH1 0x1 PUSH1 0x1 PUSH1 0xA0 SHL SUB AND MUL OR SWAP1 PUSH2 0x3AF PUSH2 0x1291 JUMP JUMPDEST POP POP POP PUSH32 0x906A1C6BD7E3091EA86693DD029A831C19049CE77F1DCE2CE0BAB1CACBABCE22 DUP2 PUSH1 0x40 MLOAD PUSH1 0x1 PUSH1 0x1 PUSH1 0xA0 SHL SUB SWAP1 SWAP2 AND DUP2 MSTORE PUSH1 0x20 ADD PUSH1 0x40 MLOAD DUP1 SWAP2 SUB SWAP1 LOG1 POP JUMP JUMPDEST PUSH7 0x2C68AF0BB14000 DUP2 JUMP JUMPDEST PUSH9 0xAD78EBC5AC6200000 DUP2 JUMP JUMPDEST PUSH1 0x28 DUP2 JUMP JUMPDEST PUSH7 0x58D15E17628000 DUP2 JUMP JUMPDEST PUSH3 0x15180 DUP2 JUMP JUMPDEST PUSH1 0x0 PUSH3 0x93A80 PUSH1 0x2 PUSH2 0x431 PUSH2 0x1236 JUMP JUMPDEST GAS PUSH2 0x43A PUSH2 0x12DF JUMP JUMPDEST SUB GT ISZERO PUSH2 0x449 JUMPI POP PUSH1 0x1 PUSH2 0x44D JUMP JUMPDEST POP PUSH1 0x0 JUMPDEST SWAP1 JUMP JUMPDEST PUSH2 0x458 PUSH2 0xE94 JUMP JUMPDEST PUSH9 0xAD78EBC5AC6200000 DUP2 GT ISZERO PUSH2 0x4A9 JUMPI PUSH1 0x40 MLOAD PUSH3 0x461BCD PUSH1 0xE5 SHL DUP2 MSTORE PUSH1 0x4 ADD DUP1 DUP1 PUSH1 0x20 ADD DUP3 DUP2 SUB DUP3 MSTORE PUSH1 0x26 DUP2 MSTORE PUSH1 0x20 ADD DUP1 PUSH2 0x156C PUSH1 0x26 SWAP2 CODECOPY PUSH1 0x40 ADD SWAP2 POP POP PUSH1 0x40 MLOAD DUP1 SWAP2 SUB SWAP1 PUSH2 0x4A6 PUSH2 0x11CB JUMP JUMPDEST POP POP JUMPDEST DUP1 DUP1 PUSH1 0x4 PUSH2 0x4B5 PUSH2 0x1291 JUMP JUMPDEST POP POP POP PUSH32 0x36E0C635F8B7D9314BB6F2A577046108EF0F8B5E3869FBD29FD5A448ED99D30 PUSH1 0x4 PUSH2 0x4E3 PUSH2 0x1236 JUMP JUMPDEST PUSH1 0x40 MLOAD SWAP1 DUP2 MSTORE PUSH1 0x20 ADD PUSH1 0x40 MLOAD DUP1 SWAP2 SUB SWAP1 LOG1 POP JUMP JUMPDEST PUSH1 0x0 DUP1 PUSH2 0x5C8 DUP4 PUSH2 0x5BC PUSH7 0x2C68AF0BB14000 PUSH20 0x0 PUSH4 0x907AF6C0 PUSH1 0x40 MLOAD DUP2 PUSH4 0xFFFFFFFF AND PUSH1 0xE0 SHL DUP2 MSTORE PUSH1 0x4 ADD PUSH1 0x20 PUSH1 0x40 MLOAD DUP1 DUP4 SUB DUP2 DUP7 DUP1 PUSH2 0x548 PUSH2 0x1325 JUMP JUMPDEST ISZERO DUP1 ISZERO PUSH2 0x55D JUMPI PUSH1 0x0 DUP1 PUSH2 0x55A PUSH2 0x11CB JUMP JUMPDEST POP POP JUMPDEST POP GAS PUSH2 0x567 PUSH2 0x1371 JUMP JUMPDEST POP POP POP POP POP ISZERO DUP1 ISZERO PUSH2 0x586 JUMPI RETURNDATASIZE PUSH1 0x0 DUP1 RETURNDATACOPY RETURNDATASIZE PUSH1 0x0 PUSH2 0x583 PUSH2 0x11CB JUMP JUMPDEST POP POP JUMPDEST POP POP POP POP PUSH1 0x40 MLOAD RETURNDATASIZE PUSH1 0x20 DUP2 LT ISZERO PUSH2 0x5A5 JUMPI PUSH1 0x0 DUP1 PUSH2 0x5A2 PUSH2 0x11CB JUMP JUMPDEST POP POP JUMPDEST DUP2 ADD SWAP1 DUP1 DUP1 MLOAD SWAP4 SWAP3 POP POP PUSH4 0xFFFFFFFF PUSH2 0xF11 AND SWAP1 POP JUMP JUMPDEST SWAP1 PUSH4 0xFFFFFFFF PUSH2 0xF76 AND JUMP JUMPDEST SWAP1 POP PUSH1 0x0 PUSH2 0x5E7 PUSH11 0x1316BA81B802F59713B13 DUP4 PUSH4 0xFFFFFFFF PUSH2 0x1067 AND JUMP JUMPDEST SWAP5 SWAP4 POP POP POP POP JUMP JUMPDEST PUSH1 0x0 PUSH1 0x1 PUSH2 0x5FB PUSH2 0x1236 JUMP JUMPDEST SWAP1 PUSH2 0x100 EXP SWAP1 DIV PUSH1 0x1 PUSH1 0x1 PUSH1 0xA0 SHL SUB AND DUP2 JUMP JUMPDEST PUSH1 0x0 PUSH1 0x1 PUSH2 0x61A PUSH2 0x1236 JUMP JUMPDEST SWAP1 PUSH2 0x100 EXP SWAP1 DIV PUSH1 0x1 PUSH1 0x1 PUSH1 0xA0 SHL SUB AND PUSH1 0x1 PUSH1 0x1 PUSH1 0xA0 SHL SUB AND GAS PUSH2 0x63C PUSH2 0x142A JUMP JUMPDEST PUSH1 0x1 PUSH1 0x1 PUSH1 0xA0 SHL SUB AND EQ PUSH2 0x68A JUMPI PUSH1 0x40 MLOAD PUSH3 0x461BCD PUSH1 0xE5 SHL DUP2 MSTORE PUSH1 0x4 ADD DUP1 DUP1 PUSH1 0x20 ADD DUP3 DUP2 SUB DUP3 MSTORE PUSH1 0x35 DUP2 MSTORE PUSH1 0x20 ADD DUP1 PUSH2 0x14B4 PUSH1 0x35 SWAP2 CODECOPY PUSH1 0x40 ADD SWAP2 POP POP PUSH1 0x40 MLOAD DUP1 SWAP2 SUB SWAP1 PUSH2 0x687 PUSH2 0x11CB JUMP JUMPDEST POP POP JUMPDEST PUSH32 0xB532073B38C83145E3E5135377A08BF9AAB55BC0FD7C1179CD4FB995D2A5159C PUSH1 0x0 DUP1 PUSH2 0x6B6 PUSH2 0x1236 JUMP JUMPDEST SWAP1 PUSH2 0x100 EXP SWAP1 DIV PUSH1 0x1 PUSH1 0x1 PUSH1 0xA0 SHL SUB AND PUSH1 0x1 PUSH1 0x0 SWAP1 PUSH2 0x6D3 PUSH2 0x1236 JUMP JUMPDEST SWAP1 PUSH2 0x100 EXP SWAP1 DIV PUSH1 0x1 PUSH1 0x1 PUSH1 0xA0 SHL SUB AND PUSH1 0x40 MLOAD PUSH1 0x1 PUSH1 0x1 PUSH1 0xA0 SHL SUB SWAP3 DUP4 AND DUP2 MSTORE SWAP2 AND PUSH1 0x20 DUP3 ADD MSTORE PUSH1 0x40 SWAP1 DUP2 ADD SWAP1 MLOAD DUP1 SWAP2 SUB SWAP1 LOG1 PUSH1 0x0 PUSH1 0x1 PUSH2 0x712 PUSH2 0x1236 JUMP JUMPDEST SWAP1 PUSH2 0x100 EXP SWAP1 DIV PUSH1 0x1 PUSH1 0x1 PUSH1 0xA0 SHL SUB AND PUSH1 0x0 DUP1 PUSH2 0x100 EXP DUP2 PUSH2 0x732 PUSH2 0x1236 JUMP JUMPDEST DUP2 PUSH1 0x1 PUSH1 0x1 PUSH1 0xA0 SHL SUB MUL NOT AND SWAP1 DUP4 PUSH1 0x1 PUSH1 0x1 PUSH1 0xA0 SHL SUB AND MUL OR SWAP1 PUSH2 0x754 PUSH2 0x1291 JUMP JUMPDEST POP POP POP PUSH1 0x0 PUSH1 0x1 PUSH1 0x0 PUSH2 0x100 EXP DUP2 PUSH2 0x76A PUSH2 0x1236 JUMP JUMPDEST DUP2 PUSH1 0x1 PUSH1 0x1 PUSH1 0xA0 SHL SUB MUL NOT AND SWAP1 DUP4 PUSH1 0x1 PUSH1 0x1 PUSH1 0xA0 SHL SUB AND MUL OR SWAP1 PUSH2 0x78C PUSH2 0x1291 JUMP JUMPDEST POP POP POP JUMP JUMPDEST PUSH1 0xEA DUP2 JUMP JUMPDEST PUSH4 0x5C7F0D80 DUP2 JUMP JUMPDEST PUSH1 0x0 DUP1 PUSH1 0x5 PUSH2 0x7AB PUSH2 0x1236 JUMP JUMPDEST SWAP1 PUSH2 0x100 EXP SWAP1 DIV PUSH1 0x1 PUSH1 0x1 PUSH1 0xA0 SHL SUB AND PUSH1 0x1 PUSH1 0x1 PUSH1 0xA0 SHL SUB AND PUSH4 0xD4B83992 PUSH1 0x40 MLOAD DUP2 PUSH4 0xFFFFFFFF AND PUSH1 0xE0 SHL DUP2 MSTORE PUSH1 0x4 ADD PUSH1 0x20 PUSH1 0x40 MLOAD DUP1 DUP4 SUB DUP2 DUP7 DUP1 PUSH2 0x7EE PUSH2 0x1325 JUMP JUMPDEST ISZERO DUP1 ISZERO PUSH2 0x803 JUMPI PUSH1 0x0 DUP1 PUSH2 0x800 PUSH2 0x11CB JUMP JUMPDEST POP POP JUMPDEST POP GAS PUSH2 0x80D PUSH2 0x1470 JUMP JUMPDEST POP POP POP POP POP ISZERO DUP1 ISZERO PUSH2 0x82C JUMPI RETURNDATASIZE PUSH1 0x0 DUP1 RETURNDATACOPY RETURNDATASIZE PUSH1 0x0 PUSH2 0x829 PUSH2 0x11CB JUMP JUMPDEST POP POP JUMPDEST POP POP POP POP PUSH1 0x40 MLOAD RETURNDATASIZE PUSH1 0x20 DUP2 LT ISZERO PUSH2 0x84B JUMPI PUSH1 0x0 DUP1 PUSH2 0x848 PUSH2 0x11CB JUMP JUMPDEST POP POP JUMPDEST DUP2 ADD SWAP1 DUP1 DUP1 MLOAD PUSH1 0x1 PUSH1 0x1 PUSH1 0xA0 SHL SUB AND SWAP3 POP POP POP GAS PUSH2 0x867 PUSH2 0x142A JUMP JUMPDEST PUSH1 0x1 PUSH1 0x1 PUSH1 0xA0 SHL SUB AND EQ PUSH2 0x8B5 JUMPI PUSH1 0x40 MLOAD PUSH3 0x461BCD PUSH1 0xE5 SHL DUP2 MSTORE PUSH1 0x4 ADD DUP1 DUP1 PUSH1 0x20 ADD DUP3 DUP2 SUB DUP3 MSTORE PUSH1 0x33 DUP2 MSTORE PUSH1 0x20 ADD DUP1 PUSH2 0x1539 PUSH1 0x33 SWAP2 CODECOPY PUSH1 0x40 ADD SWAP2 POP POP PUSH1 0x40 MLOAD DUP1 SWAP2 SUB SWAP1 PUSH2 0x8B2 PUSH2 0x11CB JUMP JUMPDEST POP POP JUMPDEST PUSH1 0x0 PUSH2 0x8BF PUSH2 0xE26 JUMP JUMPDEST SWAP1 POP PUSH2 0x8DB DUP2 PUSH1 0x3 PUSH2 0x8CF PUSH2 0x1236 JUMP JUMPDEST SWAP1 PUSH4 0xFFFFFFFF PUSH2 0x1091 AND JUMP JUMPDEST DUP1 PUSH1 0x3 PUSH2 0x8E6 PUSH2 0x1291 JUMP JUMPDEST POP POP POP PUSH2 0x921 PUSH3 0x15180 PUSH2 0x8CF PUSH2 0x910 PUSH3 0x93A80 PUSH1 0x3 PUSH2 0x904 PUSH2 0x1236 JUMP JUMPDEST SWAP1 PUSH4 0xFFFFFFFF PUSH2 0x10FA AND JUMP JUMPDEST PUSH4 0x5C7F0D80 SWAP1 PUSH4 0xFFFFFFFF PUSH2 0x1091 AND JUMP JUMPDEST DUP1 PUSH1 0x2 PUSH2 0x92C PUSH2 0x1291 JUMP JUMPDEST POP POP POP PUSH32 0x601E517D4811033FED8290C79B7823CE1AB70258DA45400FE2391A3C7432EDAB DUP4 DUP3 PUSH1 0x2 PUSH2 0x95C PUSH2 0x1236 JUMP JUMPDEST GAS PUSH2 0x965 PUSH2 0x12DF JUMP JUMPDEST PUSH1 0x40 MLOAD DUP1 DUP6 DUP2 MSTORE PUSH1 0x20 ADD DUP5 DUP2 MSTORE PUSH1 0x20 ADD DUP4 DUP2 MSTORE PUSH1 0x20 ADD DUP3 DUP2 MSTORE PUSH1 0x20 ADD SWAP5 POP POP POP POP POP PUSH1 0x40 MLOAD DUP1 SWAP2 SUB SWAP1 LOG1 POP PUSH1 0x1 SWAP3 SWAP2 POP POP JUMP JUMPDEST PUSH1 0x0 DUP1 PUSH2 0x5FB PUSH2 0x1236 JUMP JUMPDEST PUSH2 0x9AB PUSH2 0xE94 JUMP JUMPDEST PUSH1 0x1 PUSH1 0x1 PUSH1 0xA0 SHL SUB DUP2 AND PUSH2 0xA04 JUMPI PUSH1 0x40 MLOAD PUSH3 0x461BCD PUSH1 0xE5 SHL DUP2 MSTORE PUSH1 0x20 PUSH1 0x4 DUP3 ADD MSTORE PUSH1 0x13 PUSH1 0x24 DUP3 ADD MSTORE PUSH19 0x416464726573732063616E6E6F74206265203 PUSH1 0x6C SHL PUSH1 0x44 DUP3 ADD MSTORE PUSH1 0x64 ADD PUSH1 0x40 MLOAD DUP1 SWAP2 SUB SWAP1 PUSH2 0xA01 PUSH2 0x11CB JUMP JUMPDEST POP POP JUMPDEST DUP1 PUSH1 0x5 PUSH1 0x1 DUP2 PUSH2 0xA12 PUSH2 0x1236 JUMP JUMPDEST DUP2 PUSH1 0x1 PUSH1 0x1 PUSH1 0xA0 SHL SUB MUL NOT AND SWAP1 DUP4 PUSH1 0x1 PUSH1 0x1 PUSH1 0xA0 SHL SUB AND MUL OR SWAP1 PUSH2 0xA34 PUSH2 0x1291 JUMP JUMPDEST POP POP POP PUSH32 0xF8DF0556B7FDE3C4B8394EAE329AEDFA59C6FFD8B532D572A1EFCFA3424CA5FC PUSH1 0x5 PUSH1 0x0 SWAP1 PUSH2 0xA65 PUSH2 0x1236 JUMP JUMPDEST SWAP1 PUSH2 0x100 EXP SWAP1 DIV PUSH1 0x1 PUSH1 0x1 PUSH1 0xA0 SHL SUB AND PUSH1 0x40 MLOAD PUSH1 0x1 PUSH1 0x1 PUSH1 0xA0 SHL SUB SWAP1 SWAP2 AND DUP2 MSTORE PUSH1 0x20 ADD PUSH1 0x40 MLOAD DUP1 SWAP2 SUB SWAP1 LOG1 POP JUMP JUMPDEST PUSH1 0x4 PUSH2 0xA9D PUSH2 0x1236 JUMP JUMPDEST DUP2 JUMP JUMPDEST PUSH1 0x0 DUP1 PUSH2 0xB75 DUP4 PUSH2 0x5BC PUSH2 0xAC2 PUSH7 0x58D15E17628000 PUSH1 0x34 PUSH4 0xFFFFFFFF PUSH2 0x1159 AND JUMP JUMPDEST PUSH20 0x0 PUSH4 0x907AF6C0 PUSH1 0x40 MLOAD DUP2 PUSH4 0xFFFFFFFF AND PUSH1 0xE0 SHL DUP2 MSTORE PUSH1 0x4 ADD PUSH1 0x20 PUSH1 0x40 MLOAD DUP1 DUP4 SUB DUP2 DUP7 DUP1 PUSH2 0xB01 PUSH2 0x1325 JUMP JUMPDEST ISZERO DUP1 ISZERO PUSH2 0xB16 JUMPI PUSH1 0x0 DUP1 PUSH2 0xB13 PUSH2 0x11CB JUMP JUMPDEST POP POP JUMPDEST POP GAS PUSH2 0xB20 PUSH2 0x1371 JUMP JUMPDEST POP POP POP POP POP ISZERO DUP1 ISZERO PUSH2 0xB3F JUMPI RETURNDATASIZE PUSH1 0x0 DUP1 RETURNDATACOPY RETURNDATASIZE PUSH1 0x0 PUSH2 0xB3C PUSH2 0x11CB JUMP JUMPDEST POP POP JUMPDEST POP POP POP POP PUSH1 0x40 MLOAD RETURNDATASIZE PUSH1 0x20 DUP2 LT ISZERO PUSH2 0xB5E JUMPI PUSH1 0x0 DUP1 PUSH2 0xB5B PUSH2 0x11CB JUMP JUMPDEST POP POP JUMPDEST DUP2 ADD SWAP1 DUP1 DUP1 MLOAD SWAP4 SWAP3 POP POP PUSH4 0xFFFFFFFF PUSH2 0x1091 AND SWAP1 POP JUMP JUMPDEST SWAP1 POP PUSH2 0xC3D PUSH2 0xC30 PUSH20 0x0 PUSH4 0x907AF6C0 PUSH1 0x40 MLOAD DUP2 PUSH4 0xFFFFFFFF AND PUSH1 0xE0 SHL DUP2 MSTORE PUSH1 0x4 ADD PUSH1 0x20 PUSH1 0x40 MLOAD DUP1 DUP4 SUB DUP2 DUP7 DUP1 PUSH2 0xBBC PUSH2 0x1325 JUMP JUMPDEST ISZERO DUP1 ISZERO PUSH2 0xBD1 JUMPI PUSH1 0x0 DUP1 PUSH2 0xBCE PUSH2 0x11CB JUMP JUMPDEST POP POP JUMPDEST POP GAS PUSH2 0xBDB PUSH2 0x1371 JUMP JUMPDEST POP POP POP POP POP ISZERO DUP1 ISZERO PUSH2 0xBFA JUMPI RETURNDATASIZE PUSH1 0x0 DUP1 RETURNDATACOPY RETURNDATASIZE PUSH1 0x0 PUSH2 0xBF7 PUSH2 0x11CB JUMP JUMPDEST POP POP JUMPDEST POP POP POP POP PUSH1 0x40 MLOAD RETURNDATASIZE PUSH1 0x20 DUP2 LT ISZERO PUSH2 0xC19 JUMPI PUSH1 0x0 DUP1 PUSH2 0xC16 PUSH2 0x11CB JUMP JUMPDEST POP POP JUMPDEST DUP2 ADD SWAP1 DUP1 DUP1 MLOAD DUP7 SWAP4 POP SWAP2 POP POP PUSH4 0xFFFFFFFF PUSH2 0xF11 AND JUMP JUMPDEST DUP6 SWAP1 PUSH4 0xFFFFFFFF PUSH2 0x1067 AND JUMP JUMPDEST SWAP2 POP POP JUMPDEST SWAP3 SWAP2 POP POP JUMP JUMPDEST PUSH11 0x1316BA81B802F59713B13 DUP2 JUMP JUMPDEST PUSH1 0x0 PUSH1 0x5 PUSH2 0x5FB PUSH2 0x1236 JUMP JUMPDEST PUSH1 0x2 PUSH2 0xA9D PUSH2 0x1236 JUMP JUMPDEST PUSH1 0x0 DUP1 PUSH2 0xC77 PUSH2 0x421 JUMP JUMPDEST PUSH2 0xC82 JUMPI SWAP1 POP PUSH2 0x44D JUMP JUMPDEST PUSH1 0x0 PUSH2 0xC8C PUSH2 0xE26 JUMP JUMPDEST SWAP1 POP PUSH1 0x0 PUSH1 0x3 PUSH2 0xC9A PUSH2 0x1236 JUMP JUMPDEST SWAP1 POP JUMPDEST DUP2 ISZERO PUSH2 0xE14 JUMPI PUSH1 0x1 ADD PUSH1 0x28 DUP2 LT ISZERO PUSH2 0xCD8 JUMPI PUSH2 0xCCA DUP4 PUSH11 0x1316BA81B802F59713B13 PUSH4 0xFFFFFFFF PUSH2 0x1091 AND JUMP JUMPDEST SWAP3 POP PUSH1 0x0 NOT SWAP1 SWAP2 ADD SWAP1 PUSH2 0xE0F JUMP JUMPDEST PUSH1 0xEA DUP2 GT PUSH2 0xD1D JUMPI PUSH1 0x0 PUSH2 0xCF3 DUP3 PUSH1 0x27 PUSH4 0xFFFFFFFF PUSH2 0xF11 AND JUMP JUMPDEST SWAP1 POP PUSH2 0xD0E PUSH2 0xD01 DUP3 PUSH2 0x4F7 JUMP JUMPDEST DUP6 SWAP1 PUSH4 0xFFFFFFFF PUSH2 0x1091 AND JUMP JUMPDEST SWAP4 POP POP PUSH1 0x0 NOT SWAP1 SWAP2 ADD SWAP1 PUSH2 0xE0F JUMP JUMPDEST PUSH1 0x0 DUP1 PUSH1 0x5 PUSH2 0xD2A PUSH2 0x1236 JUMP JUMPDEST SWAP1 PUSH2 0x100 EXP SWAP1 DIV PUSH1 0x1 PUSH1 0x1 PUSH1 0xA0 SHL SUB AND PUSH1 0x1 PUSH1 0x1 PUSH1 0xA0 SHL SUB AND PUSH4 0x18160DDD PUSH1 0x40 MLOAD DUP2 PUSH4 0xFFFFFFFF AND PUSH1 0xE0 SHL DUP2 MSTORE PUSH1 0x4 ADD PUSH1 0x20 PUSH1 0x40 MLOAD DUP1 DUP4 SUB DUP2 DUP7 DUP1 PUSH2 0xD6D PUSH2 0x1325 JUMP JUMPDEST ISZERO DUP1 ISZERO PUSH2 0xD82 JUMPI PUSH1 0x0 DUP1 PUSH2 0xD7F PUSH2 0x11CB JUMP JUMPDEST POP POP JUMPDEST POP GAS PUSH2 0xD8C PUSH2 0x1470 JUMP JUMPDEST POP POP POP POP POP ISZERO DUP1 ISZERO PUSH2 0xDAB JUMPI RETURNDATASIZE PUSH1 0x0 DUP1 RETURNDATACOPY RETURNDATASIZE PUSH1 0x0 PUSH2 0xDA8 PUSH2 0x11CB JUMP JUMPDEST POP POP JUMPDEST POP POP POP POP PUSH1 0x40 MLOAD RETURNDATASIZE PUSH1 0x20 DUP2 LT ISZERO PUSH2 0xDCA JUMPI PUSH1 0x0 DUP1 PUSH2 0xDC7 PUSH2 0x11CB JUMP JUMPDEST POP POP JUMPDEST DUP2 ADD SWAP1 DUP1 DUP1 MLOAD SWAP4 POP PUSH1 0x0 SWAP3 POP PUSH2 0xDEA SWAP2 POP DUP4 SWAP1 POP DUP7 PUSH4 0xFFFFFFFF PUSH2 0x1091 AND JUMP JUMPDEST SWAP1 POP PUSH2 0xE06 PUSH2 0xDF9 DUP3 DUP7 PUSH2 0xAA0 JUMP JUMPDEST DUP7 SWAP1 PUSH4 0xFFFFFFFF PUSH2 0x1091 AND JUMP JUMPDEST SWAP5 POP PUSH1 0x0 SWAP4 POP POP POP JUMPDEST PUSH2 0xC9D JUMP JUMPDEST POP SWAP1 SWAP2 POP POP SWAP1 JUMP JUMPDEST PUSH1 0x3 PUSH2 0xA9D PUSH2 0x1236 JUMP JUMPDEST PUSH1 0x0 DUP1 PUSH1 0x0 PUSH1 0x2 PUSH2 0xE35 PUSH2 0x1236 JUMP JUMPDEST GT PUSH2 0xE5C JUMPI PUSH2 0xE57 PUSH4 0x5C7F0D80 GAS PUSH2 0xE4B PUSH2 0x12DF JUMP JUMPDEST SWAP1 PUSH4 0xFFFFFFFF PUSH2 0xF11 AND JUMP JUMPDEST PUSH2 0xE72 JUMP JUMPDEST PUSH2 0xE72 PUSH1 0x2 PUSH2 0xE69 PUSH2 0x1236 JUMP JUMPDEST GAS PUSH2 0xE4B PUSH2 0x12DF JUMP JUMPDEST SWAP1 POP PUSH2 0xE87 DUP2 PUSH3 0x93A80 PUSH4 0xFFFFFFFF PUSH2 0x1159 AND JUMP JUMPDEST SWAP2 POP POP SWAP1 JUMP JUMPDEST PUSH3 0x93A80 DUP2 JUMP JUMPDEST PUSH1 0x0 DUP1 PUSH2 0xE9F PUSH2 0x1236 JUMP JUMPDEST SWAP1 PUSH2 0x100 EXP SWAP1 DIV PUSH1 0x1 PUSH1 0x1 PUSH1 0xA0 SHL SUB AND PUSH1 0x1 PUSH1 0x1 PUSH1 0xA0 SHL SUB AND GAS PUSH2 0xEC1 PUSH2 0x142A JUMP JUMPDEST PUSH1 0x1 PUSH1 0x1 PUSH1 0xA0 SHL SUB AND EQ PUSH2 0xF0F JUMPI PUSH1 0x40 MLOAD PUSH3 0x461BCD PUSH1 0xE5 SHL DUP2 MSTORE PUSH1 0x4 ADD DUP1 DUP1 PUSH1 0x20 ADD DUP3 DUP2 SUB DUP3 MSTORE PUSH1 0x2F DUP2 MSTORE PUSH1 0x20 ADD DUP1 PUSH2 0x14E9 PUSH1 0x2F SWAP2 CODECOPY PUSH1 0x40 ADD SWAP2 POP POP PUSH1 0x40 MLOAD DUP1 SWAP2 SUB SWAP1 PUSH2 0xF0C PUSH2 0x11CB JUMP JUMPDEST POP POP JUMPDEST JUMP JUMPDEST PUSH1 0x0 DUP3 DUP3 GT ISZERO PUSH2 0xF70 JUMPI PUSH1 0x40 MLOAD PUSH3 0x461BCD PUSH1 0xE5 SHL DUP2 MSTORE PUSH1 0x20 PUSH1 0x4 DUP3 ADD MSTORE PUSH1 0x1E PUSH1 0x24 DUP3 ADD MSTORE PUSH32 0x536166654D6174683A207375627472616374696F6E206F766572666C6F770000 PUSH1 0x44 DUP3 ADD MSTORE PUSH1 0x64 ADD PUSH1 0x40 MLOAD DUP1 SWAP2 SUB SWAP1 PUSH2 0xF6D PUSH2 0x11CB JUMP JUMPDEST POP POP JUMPDEST POP SWAP1 SUB SWAP1 JUMP JUMPDEST PUSH1 0x0 DUP1 PUSH20 0x0 PUSH4 0x907AF6C0 PUSH1 0x40 MLOAD DUP2 PUSH4 0xFFFFFFFF AND PUSH1 0xE0 SHL DUP2 MSTORE PUSH1 0x4 ADD PUSH1 0x20 PUSH1 0x40 MLOAD DUP1 DUP4 SUB DUP2 DUP7 DUP1 PUSH2 0xFB8 PUSH2 0x1325 JUMP JUMPDEST ISZERO DUP1 ISZERO PUSH2 0xFCD JUMPI PUSH1 0x0 DUP1 PUSH2 0xFCA PUSH2 0x11CB JUMP JUMPDEST POP POP JUMPDEST POP GAS PUSH2 0xFD7 PUSH2 0x1371 JUMP JUMPDEST POP POP POP POP POP ISZERO DUP1 ISZERO PUSH2 0xFF6 JUMPI RETURNDATASIZE PUSH1 0x0 DUP1 RETURNDATACOPY RETURNDATASIZE PUSH1 0x0 PUSH2 0xFF3 PUSH2 0x11CB JUMP JUMPDEST POP POP JUMPDEST POP POP POP POP PUSH1 0x40 MLOAD RETURNDATASIZE PUSH1 0x20 DUP2 LT ISZERO PUSH2 0x1015 JUMPI PUSH1 0x0 DUP1 PUSH2 0x1012 PUSH2 0x11CB JUMP JUMPDEST POP POP JUMPDEST DUP2 ADD SWAP1 DUP1 DUP1 MLOAD SWAP4 POP POP POP POP JUMPDEST DUP3 ISZERO PUSH2 0x1060 JUMPI PUSH1 0x2 DUP4 MOD ISZERO PUSH2 0x1043 JUMPI PUSH2 0x1040 DUP2 DUP6 PUSH4 0xFFFFFFFF PUSH2 0x1067 AND JUMP JUMPDEST SWAP1 POP JUMPDEST PUSH2 0x1053 DUP5 DUP1 PUSH4 0xFFFFFFFF PUSH2 0x1067 AND JUMP JUMPDEST SWAP4 POP PUSH1 0x2 DUP4 DIV SWAP3 POP PUSH2 0x1021 JUMP JUMPDEST SWAP4 SWAP3 POP POP POP JUMP JUMPDEST PUSH1 0x0 PUSH8 0xDE0B6B3A7640000 PUSH2 0x1082 DUP5 DUP5 PUSH4 0xFFFFFFFF PUSH2 0x10FA AND JUMP JUMPDEST DUP2 PUSH2 0x1089 JUMPI INVALID JUMPDEST DIV SWAP4 SWAP3 POP POP POP JUMP JUMPDEST PUSH1 0x0 DUP3 DUP3 ADD DUP4 DUP2 LT ISZERO PUSH2 0x1060 JUMPI PUSH1 0x40 MLOAD PUSH3 0x461BCD PUSH1 0xE5 SHL DUP2 MSTORE PUSH1 0x20 PUSH1 0x4 DUP3 ADD MSTORE PUSH1 0x1B PUSH1 0x24 DUP3 ADD MSTORE PUSH32 0x536166654D6174683A206164646974696F6E206F766572666C6F770000000000 PUSH1 0x44 DUP3 ADD MSTORE PUSH1 0x64 ADD PUSH1 0x40 MLOAD DUP1 SWAP2 SUB SWAP1 PUSH2 0x10F0 PUSH2 0x11CB JUMP JUMPDEST POP POP SWAP1 POP SWAP3 SWAP2 POP POP JUMP JUMPDEST PUSH1 0x0 DUP3 PUSH2 0x1109 JUMPI POP PUSH1 0x0 PUSH2 0xC41 JUMP JUMPDEST DUP3 DUP3 MUL DUP3 DUP5 DUP3 DUP2 PUSH2 0x1116 JUMPI INVALID JUMPDEST DIV EQ PUSH2 0x1060 JUMPI PUSH1 0x40 MLOAD PUSH3 0x461BCD PUSH1 0xE5 SHL DUP2 MSTORE PUSH1 0x4 ADD DUP1 DUP1 PUSH1 0x20 ADD DUP3 DUP2 SUB DUP3 MSTORE PUSH1 0x21 DUP2 MSTORE PUSH1 0x20 ADD DUP1 PUSH2 0x1518 PUSH1 0x21 SWAP2 CODECOPY PUSH1 0x40 ADD SWAP2 POP POP PUSH1 0x40 MLOAD DUP1 SWAP2 SUB SWAP1 PUSH2 0x10F0 PUSH2 0x11CB JUMP JUMPDEST PUSH1 0x0 DUP1 DUP3 GT PUSH2 0x11B7 JUMPI PUSH1 0x40 MLOAD PUSH3 0x461BCD PUSH1 0xE5 SHL DUP2 MSTORE PUSH1 0x20 PUSH1 0x4 DUP3 ADD MSTORE PUSH1 0x1A PUSH1 0x24 DUP3 ADD MSTORE PUSH32 0x536166654D6174683A206469766973696F6E206279207A65726F000000000000 PUSH1 0x44 DUP3 ADD MSTORE PUSH1 0x64 ADD PUSH1 0x40 MLOAD DUP1 SWAP2 SUB SWAP1 PUSH2 0x11B4 PUSH2 0x11CB JUMP JUMPDEST POP POP JUMPDEST PUSH1 0x0 DUP3 DUP5 DUP2 PUSH2 0x11C2 JUMPI INVALID JUMPDEST DIV SWAP5 SWAP4 POP POP POP POP JUMP JUMPDEST PUSH4 0x2A2A7ADB MSIZE DUP2 PUSH1 0xE0 SHL DUP2 MSTORE PUSH1 0x4 DUP2 ADD PUSH1 0x20 DUP2 MSTORE DUP6 PUSH1 0x20 DUP3 ADD MSTORE PUSH1 0x0 JUMPDEST DUP7 DUP2 LT ISZERO PUSH2 0x1203 JUMPI DUP1 DUP7 ADD MLOAD DUP3 DUP3 ADD PUSH1 0x40 ADD MSTORE PUSH1 0x20 ADD PUSH2 0x11E8 JUMP JUMPDEST POP PUSH1 0x20 DUP3 DUP8 PUSH1 0x64 ADD DUP5 CALLER PUSH1 0x0 SWAP1 GAS CALL PC PUSH1 0x1D ADD JUMPI RETURNDATASIZE PUSH1 0x1 EQ PC PUSH1 0xC ADD JUMPI RETURNDATASIZE PUSH1 0x0 DUP1 RETURNDATACOPY RETURNDATASIZE PUSH3 0x123456 MSTORE PUSH1 0xEA PUSH2 0x109C MSTORE POP POP POP JUMP JUMPDEST PUSH4 0x3DAA959 MSIZE DUP2 PUSH1 0xE0 SHL DUP2 MSTORE DUP4 PUSH1 0x4 DUP3 ADD MSTORE PUSH1 0x20 DUP2 PUSH1 0x24 DUP4 CALLER PUSH1 0x0 SWAP1 GAS CALL PC PUSH1 0x1D ADD JUMPI RETURNDATASIZE PUSH1 0x1 EQ PC PUSH1 0xC ADD JUMPI RETURNDATASIZE PUSH1 0x0 DUP1 RETURNDATACOPY RETURNDATASIZE PUSH3 0x123456 MSTORE PUSH1 0xEA PUSH2 0x109C MSTORE DUP1 MLOAD SWAP4 POP PUSH1 0x0 JUMPDEST PUSH1 0x40 DUP2 LT ISZERO PUSH2 0x78C JUMPI PUSH1 0x0 DUP3 DUP3 ADD MSTORE PUSH1 0x20 ADD PUSH2 0x127A JUMP JUMPDEST PUSH4 0x22BD64C0 MSIZE DUP2 PUSH1 0xE0 SHL DUP2 MSTORE DUP4 PUSH1 0x4 DUP3 ADD MSTORE DUP5 PUSH1 0x24 DUP3 ADD MSTORE PUSH1 0x0 DUP2 PUSH1 0x44 DUP4 CALLER PUSH1 0x0 SWAP1 GAS CALL PC PUSH1 0x1D ADD JUMPI RETURNDATASIZE PUSH1 0x1 EQ PC PUSH1 0xC ADD JUMPI RETURNDATASIZE PUSH1 0x0 DUP1 RETURNDATACOPY RETURNDATASIZE PUSH3 0x123456 MSTORE PUSH1 0xEA PUSH2 0x109C MSTORE PUSH1 0x0 DUP2 MSTORE PUSH1 0x20 PUSH2 0x127A JUMP JUMPDEST PUSH4 0xBDBF8C36 MSIZE DUP2 PUSH1 0xE0 SHL DUP2 MSTORE PUSH1 0x20 DUP2 PUSH1 0x4 DUP4 CALLER PUSH1 0x0 SWAP1 GAS CALL PC PUSH1 0x1D ADD JUMPI RETURNDATASIZE PUSH1 0x1 EQ PC PUSH1 0xC ADD JUMPI RETURNDATASIZE PUSH1 0x0 DUP1 RETURNDATACOPY RETURNDATASIZE PUSH3 0x123456 MSTORE PUSH1 0xEA PUSH2 0x109C MSTORE DUP1 MLOAD PUSH1 0x0 DUP3 MSTORE SWAP4 POP PUSH1 0x20 PUSH2 0x127A JUMP JUMPDEST PUSH4 0x8435035B MSIZE DUP2 PUSH1 0xE0 SHL DUP2 MSTORE DUP4 PUSH1 0x4 DUP3 ADD MSTORE PUSH1 0x20 DUP2 PUSH1 0x24 DUP4 CALLER PUSH1 0x0 SWAP1 GAS CALL PC PUSH1 0x1D ADD JUMPI RETURNDATASIZE PUSH1 0x1 EQ PC PUSH1 0xC ADD JUMPI RETURNDATASIZE PUSH1 0x0 DUP1 RETURNDATACOPY RETURNDATASIZE PUSH3 0x123456 MSTORE PUSH1 0xEA PUSH2 0x109C MSTORE DUP1 MLOAD PUSH1 0x0 DUP3 MSTORE SWAP4 POP PUSH1 0x20 PUSH2 0x127A JUMP JUMPDEST PUSH4 0xFFE73914 MSIZE DUP2 PUSH1 0xE0 SHL DUP2 MSTORE DUP4 PUSH1 0x4 DUP3 ADD MSTORE DUP5 PUSH1 0x24 DUP3 ADD MSTORE PUSH1 0x60 PUSH1 0x44 DUP3 ADD MSTORE DUP7 PUSH1 0x64 DUP3 ADD MSTORE PUSH1 0x84 DUP2 ADD PUSH1 0x0 JUMPDEST DUP9 DUP2 LT ISZERO PUSH2 0x13B5 JUMPI DUP1 DUP9 ADD MLOAD DUP3 DUP3 ADD MSTORE PUSH1 0x20 ADD PUSH2 0x139D JUMP JUMPDEST POP DUP8 PUSH2 0x104 ADD DUP3 ADD PUSH1 0x60 DUP4 DUP11 PUSH2 0x104 ADD DUP6 CALLER PUSH1 0x0 SWAP1 GAS CALL PC PUSH1 0x1D ADD JUMPI RETURNDATASIZE PUSH1 0x1 EQ PC PUSH1 0xC ADD JUMPI RETURNDATASIZE PUSH1 0x0 DUP1 RETURNDATACOPY RETURNDATASIZE PUSH3 0x123456 MSTORE PUSH1 0xEA PUSH2 0x109C MSTORE DUP3 MLOAD PUSH1 0x40 DUP5 ADD MLOAD RETURNDATASIZE PUSH1 0x0 DUP7 RETURNDATACOPY DUP13 DUP13 DUP3 PUSH1 0x60 DUP9 ADD CALLER POP PUSH1 0x0 PUSH1 0x4 GAS CALL POP MSIZE DUP6 JUMPDEST DUP2 DUP2 LT ISZERO PUSH2 0x141E JUMPI PUSH1 0x0 DUP2 MSTORE PUSH1 0x20 ADD PUSH2 0x140A JUMP JUMPDEST POP SWAP2 SWAP13 POP POP POP POP POP POP POP JUMP JUMPDEST PUSH4 0x73509064 MSIZE DUP2 PUSH1 0xE0 SHL DUP2 MSTORE PUSH1 0x20 DUP2 PUSH1 0x4 DUP4 CALLER PUSH1 0x0 SWAP1 GAS CALL PC PUSH1 0x1D ADD JUMPI RETURNDATASIZE PUSH1 0x1 EQ PC PUSH1 0xC ADD JUMPI RETURNDATASIZE PUSH1 0x0 DUP1 RETURNDATACOPY RETURNDATASIZE PUSH3 0x123456 MSTORE PUSH1 0xEA PUSH2 0x109C MSTORE DUP1 MLOAD PUSH1 0x0 DUP3 MSTORE SWAP4 POP PUSH1 0x20 PUSH2 0x127A JUMP JUMPDEST PUSH4 0x8540661F MSIZE DUP2 PUSH1 0xE0 SHL DUP2 MSTORE DUP4 PUSH1 0x4 DUP3 ADD MSTORE DUP5 PUSH1 0x24 DUP3 ADD MSTORE PUSH1 0x60 PUSH1 0x44 DUP3 ADD MSTORE DUP7 PUSH1 0x64 DUP3 ADD MSTORE PUSH1 0x84 DUP2 ADD PUSH1 0x0 DUP9 DUP2 LT ISZERO PUSH2 0x13B5 JUMPI DUP1 DUP9 ADD MLOAD DUP3 DUP3 ADD MSTORE PUSH1 0x20 ADD PUSH2 0x139D JUMP INVALID MSIZE PUSH16 0x75206D757374206265206E6F6D696E61 PUSH21 0x6564206265666F726520796F752063616E20616363 PUSH6 0x7074206F776E PUSH6 0x72736869704F PUSH15 0x6C792074686520636F6E7472616374 KECCAK256 PUSH16 0x776E6572206D617920706572666F726D KECCAK256 PUSH21 0x68697320616374696F6E536166654D6174683A206D PUSH22 0x6C7469706C69636174696F6E206F766572666C6F774F PUSH15 0x6C79207468652073796E7468657469 PUSH25 0x20636F6E74726163742063616E20706572666F726D20746869 PUSH20 0x20616374696F6E5265776172642063616E6E6F74 KECCAK256 PUSH6 0x786365656420 PUSH14 0x6178206D696E7465722072657761 PUSH19 0x64000000000000000000000000000000000000 "
		}
	}
}