{
	"abi": [
		{
			"inputs": [
				{
					"internalType": "address payable",
					"name": "_proxy",
					"type": "address"
				},
				{
					"internalType": "contract TokenState",
					"name": "_tokenState",
					"type": "address"
				},
				{
					"internalType": "address",
					"name": "_owner",
					"type": "address"
				},
				{
					"internalType": "uint256",
					"name": "_totalSupply",
					"type": "uint256"
				},
				{
					"internalType": "address",
					"name": "_resolver",
					"type": "address"
				}
			],
			"payable": false,
			"stateMutability": "nonpayable",
			"type": "constructor"
		},
		{
			"anonymous": false,
			"inputs": [
				{
					"indexed": true,
					"internalType": "address",
					"name": "account",
					"type": "address"
				},
				{
					"indexed": false,
					"internalType": "uint256",
					"name": "snxRedeemed",
					"type": "uint256"
				},
				{
					"indexed": false,
					"internalType": "uint256",
					"name": "amountLiquidated",
					"type": "uint256"
				},
				{
					"indexed": false,
					"internalType": "address",
					"name": "liquidator",
					"type": "address"
				}
			],
			"name": "AccountLiquidated",
			"type": "event"
		},
		{
			"anonymous": false,
			"inputs": [
				{
					"indexed": true,
					"internalType": "address",
					"name": "owner",
					"type": "address"
				},
				{
					"indexed": true,
					"internalType": "address",
					"name": "spender",
					"type": "address"
				},
				{
					"indexed": false,
					"internalType": "uint256",
					"name": "value",
					"type": "uint256"
				}
			],
			"name": "Approval",
			"type": "event"
		},
		{
			"anonymous": false,
			"inputs": [
				{
					"indexed": true,
					"internalType": "address",
					"name": "account",
					"type": "address"
				},
				{
					"indexed": false,
					"internalType": "bytes32",
					"name": "currencyKey",
					"type": "bytes32"
				},
				{
					"indexed": false,
					"internalType": "uint256",
					"name": "amount",
					"type": "uint256"
				}
			],
			"name": "ExchangeRebate",
			"type": "event"
		},
		{
			"anonymous": false,
			"inputs": [
				{
					"indexed": true,
					"internalType": "address",
					"name": "account",
					"type": "address"
				},
				{
					"indexed": false,
					"internalType": "bytes32",
					"name": "currencyKey",
					"type": "bytes32"
				},
				{
					"indexed": false,
					"internalType": "uint256",
					"name": "amount",
					"type": "uint256"
				}
			],
			"name": "ExchangeReclaim",
			"type": "event"
		},
		{
			"anonymous": false,
			"inputs": [
				{
					"indexed": true,
					"internalType": "bytes32",
					"name": "trackingCode",
					"type": "bytes32"
				},
				{
					"indexed": false,
					"internalType": "bytes32",
					"name": "toCurrencyKey",
					"type": "bytes32"
				},
				{
					"indexed": false,
					"internalType": "uint256",
					"name": "toAmount",
					"type": "uint256"
				}
			],
			"name": "ExchangeTracking",
			"type": "event"
		},
		{
			"anonymous": false,
			"inputs": [
				{
					"indexed": false,
					"internalType": "address",
					"name": "oldOwner",
					"type": "address"
				},
				{
					"indexed": false,
					"internalType": "address",
					"name": "newOwner",
					"type": "address"
				}
			],
			"name": "OwnerChanged",
			"type": "event"
		},
		{
			"anonymous": false,
			"inputs": [
				{
					"indexed": false,
					"internalType": "address",
					"name": "newOwner",
					"type": "address"
				}
			],
			"name": "OwnerNominated",
			"type": "event"
		},
		{
			"anonymous": false,
			"inputs": [
				{
					"indexed": false,
					"internalType": "address",
					"name": "proxyAddress",
					"type": "address"
				}
			],
			"name": "ProxyUpdated",
			"type": "event"
		},
		{
			"anonymous": false,
			"inputs": [
				{
					"indexed": false,
					"internalType": "address",
					"name": "newBeneficiary",
					"type": "address"
				}
			],
			"name": "SelfDestructBeneficiaryUpdated",
			"type": "event"
		},
		{
			"anonymous": false,
			"inputs": [
				{
					"indexed": false,
					"internalType": "uint256",
					"name": "selfDestructDelay",
					"type": "uint256"
				}
			],
			"name": "SelfDestructInitiated",
			"type": "event"
		},
		{
			"anonymous": false,
			"inputs": [],
			"name": "SelfDestructTerminated",
			"type": "event"
		},
		{
			"anonymous": false,
			"inputs": [
				{
					"indexed": false,
					"internalType": "address",
					"name": "beneficiary",
					"type": "address"
				}
			],
			"name": "SelfDestructed",
			"type": "event"
		},
		{
			"anonymous": false,
			"inputs": [
				{
					"indexed": true,
					"internalType": "address",
					"name": "account",
					"type": "address"
				},
				{
					"indexed": false,
					"internalType": "bytes32",
					"name": "fromCurrencyKey",
					"type": "bytes32"
				},
				{
					"indexed": false,
					"internalType": "uint256",
					"name": "fromAmount",
					"type": "uint256"
				},
				{
					"indexed": false,
					"internalType": "bytes32",
					"name": "toCurrencyKey",
					"type": "bytes32"
				},
				{
					"indexed": false,
					"internalType": "uint256",
					"name": "toAmount",
					"type": "uint256"
				},
				{
					"indexed": false,
					"internalType": "address",
					"name": "toAddress",
					"type": "address"
				}
			],
			"name": "SynthExchange",
			"type": "event"
		},
		{
			"anonymous": false,
			"inputs": [
				{
					"indexed": false,
					"internalType": "address",
					"name": "newTokenState",
					"type": "address"
				}
			],
			"name": "TokenStateUpdated",
			"type": "event"
		},
		{
			"anonymous": false,
			"inputs": [
				{
					"indexed": true,
					"internalType": "address",
					"name": "from",
					"type": "address"
				},
				{
					"indexed": true,
					"internalType": "address",
					"name": "to",
					"type": "address"
				},
				{
					"indexed": false,
					"internalType": "uint256",
					"name": "value",
					"type": "uint256"
				}
			],
			"name": "Transfer",
			"type": "event"
		},
		{
			"constant": true,
			"inputs": [],
			"name": "DECIMALS",
			"outputs": [
				{
					"internalType": "uint8",
					"name": "",
					"type": "uint8"
				}
			],
			"payable": false,
			"stateMutability": "view",
			"type": "function"
		},
		{
			"constant": true,
			"inputs": [],
			"name": "MAX_ADDRESSES_FROM_RESOLVER",
			"outputs": [
				{
					"internalType": "uint256",
					"name": "",
					"type": "uint256"
				}
			],
			"payable": false,
			"stateMutability": "view",
			"type": "function"
		},
		{
			"constant": true,
			"inputs": [],
			"name": "SELFDESTRUCT_DELAY",
			"outputs": [
				{
					"internalType": "uint256",
					"name": "",
					"type": "uint256"
				}
			],
			"payable": false,
			"stateMutability": "view",
			"type": "function"
		},
		{
			"constant": true,
			"inputs": [],
			"name": "TOKEN_NAME",
			"outputs": [
				{
					"internalType": "string",
					"name": "",
					"type": "string"
				}
			],
			"payable": false,
			"stateMutability": "view",
			"type": "function"
		},
		{
			"constant": true,
			"inputs": [],
			"name": "TOKEN_SYMBOL",
			"outputs": [
				{
					"internalType": "string",
					"name": "",
					"type": "string"
				}
			],
			"payable": false,
			"stateMutability": "view",
			"type": "function"
		},
		{
			"constant": false,
			"inputs": [],
			"name": "acceptOwnership",
			"outputs": [],
			"payable": false,
			"stateMutability": "nonpayable",
			"type": "function"
		},
		{
			"constant": true,
			"inputs": [
				{
					"internalType": "address",
					"name": "owner",
					"type": "address"
				},
				{
					"internalType": "address",
					"name": "spender",
					"type": "address"
				}
			],
			"name": "allowance",
			"outputs": [
				{
					"internalType": "uint256",
					"name": "",
					"type": "uint256"
				}
			],
			"payable": false,
			"stateMutability": "view",
			"type": "function"
		},
		{
			"constant": true,
			"inputs": [],
			"name": "anySynthOrSNXRateIsInvalid",
			"outputs": [
				{
					"internalType": "bool",
					"name": "anyRateInvalid",
					"type": "bool"
				}
			],
			"payable": false,
			"stateMutability": "view",
			"type": "function"
		},
		{
			"constant": false,
			"inputs": [
				{
					"internalType": "address",
					"name": "spender",
					"type": "address"
				},
				{
					"internalType": "uint256",
					"name": "value",
					"type": "uint256"
				}
			],
			"name": "approve",
			"outputs": [
				{
					"internalType": "bool",
					"name": "",
					"type": "bool"
				}
			],
			"payable": false,
			"stateMutability": "nonpayable",
			"type": "function"
		},
		{
			"constant": true,
			"inputs": [],
			"name": "availableCurrencyKeys",
			"outputs": [
				{
					"internalType": "bytes32[]",
					"name": "",
					"type": "bytes32[]"
				}
			],
			"payable": false,
			"stateMutability": "view",
			"type": "function"
		},
		{
			"constant": true,
			"inputs": [],
			"name": "availableSynthCount",
			"outputs": [
				{
					"internalType": "uint256",
					"name": "",
					"type": "uint256"
				}
			],
			"payable": false,
			"stateMutability": "view",
			"type": "function"
		},
		{
			"constant": true,
			"inputs": [
				{
					"internalType": "uint256",
					"name": "index",
					"type": "uint256"
				}
			],
			"name": "availableSynths",
			"outputs": [
				{
					"internalType": "contract ISynth",
					"name": "",
					"type": "address"
				}
			],
			"payable": false,
			"stateMutability": "view",
			"type": "function"
		},
		{
			"constant": true,
			"inputs": [
				{
					"internalType": "address",
					"name": "account",
					"type": "address"
				}
			],
			"name": "balanceOf",
			"outputs": [
				{
					"internalType": "uint256",
					"name": "",
					"type": "uint256"
				}
			],
			"payable": false,
			"stateMutability": "view",
			"type": "function"
		},
		{
			"constant": false,
			"inputs": [
				{
					"internalType": "address",
					"name": "",
					"type": "address"
				},
				{
					"internalType": "uint256",
					"name": "",
					"type": "uint256"
				}
			],
			"name": "burnSecondary",
			"outputs": [],
			"payable": false,
			"stateMutability": "nonpayable",
			"type": "function"
		},
		{
			"constant": false,
			"inputs": [
				{
					"internalType": "uint256",
					"name": "amount",
					"type": "uint256"
				}
			],
			"name": "burnSynths",
			"outputs": [],
			"payable": false,
			"stateMutability": "nonpayable",
			"type": "function"
		},
		{
			"constant": false,
			"inputs": [
				{
					"internalType": "address",
					"name": "burnForAddress",
					"type": "address"
				},
				{
					"internalType": "uint256",
					"name": "amount",
					"type": "uint256"
				}
			],
			"name": "burnSynthsOnBehalf",
			"outputs": [],
			"payable": false,
			"stateMutability": "nonpayable",
			"type": "function"
		},
		{
			"constant": false,
			"inputs": [],
			"name": "burnSynthsToTarget",
			"outputs": [],
			"payable": false,
			"stateMutability": "nonpayable",
			"type": "function"
		},
		{
			"constant": false,
			"inputs": [
				{
					"internalType": "address",
					"name": "burnForAddress",
					"type": "address"
				}
			],
			"name": "burnSynthsToTargetOnBehalf",
			"outputs": [],
			"payable": false,
			"stateMutability": "nonpayable",
			"type": "function"
		},
		{
			"constant": true,
			"inputs": [
				{
					"internalType": "address",
					"name": "account",
					"type": "address"
				}
			],
			"name": "collateral",
			"outputs": [
				{
					"internalType": "uint256",
					"name": "",
					"type": "uint256"
				}
			],
			"payable": false,
			"stateMutability": "view",
			"type": "function"
		},
		{
			"constant": true,
			"inputs": [
				{
					"internalType": "address",
					"name": "_issuer",
					"type": "address"
				}
			],
			"name": "collateralisationRatio",
			"outputs": [
				{
					"internalType": "uint256",
					"name": "",
					"type": "uint256"
				}
			],
			"payable": false,
			"stateMutability": "view",
			"type": "function"
		},
		{
			"constant": true,
			"inputs": [
				{
					"internalType": "address",
					"name": "account",
					"type": "address"
				},
				{
					"internalType": "bytes32",
					"name": "currencyKey",
					"type": "bytes32"
				}
			],
			"name": "debtBalanceOf",
			"outputs": [
				{
					"internalType": "uint256",
					"name": "",
					"type": "uint256"
				}
			],
			"payable": false,
			"stateMutability": "view",
			"type": "function"
		},
		{
			"constant": true,
			"inputs": [],
			"name": "decimals",
			"outputs": [
				{
					"internalType": "uint8",
					"name": "",
					"type": "uint8"
				}
			],
			"payable": false,
			"stateMutability": "view",
			"type": "function"
		},
		{
			"constant": false,
			"inputs": [
				{
					"internalType": "address",
					"name": "account",
					"type": "address"
				},
				{
					"internalType": "bytes32",
					"name": "currencyKey",
					"type": "bytes32"
				},
				{
					"internalType": "uint256",
					"name": "amount",
					"type": "uint256"
				}
			],
			"name": "emitExchangeRebate",
			"outputs": [],
			"payable": false,
			"stateMutability": "nonpayable",
			"type": "function"
		},
		{
			"constant": false,
			"inputs": [
				{
					"internalType": "address",
					"name": "account",
					"type": "address"
				},
				{
					"internalType": "bytes32",
					"name": "currencyKey",
					"type": "bytes32"
				},
				{
					"internalType": "uint256",
					"name": "amount",
					"type": "uint256"
				}
			],
			"name": "emitExchangeReclaim",
			"outputs": [],
			"payable": false,
			"stateMutability": "nonpayable",
			"type": "function"
		},
		{
			"constant": false,
			"inputs": [
				{
					"internalType": "bytes32",
					"name": "trackingCode",
					"type": "bytes32"
				},
				{
					"internalType": "bytes32",
					"name": "toCurrencyKey",
					"type": "bytes32"
				},
				{
					"internalType": "uint256",
					"name": "toAmount",
					"type": "uint256"
				}
			],
			"name": "emitExchangeTracking",
			"outputs": [],
			"payable": false,
			"stateMutability": "nonpayable",
			"type": "function"
		},
		{
			"constant": false,
			"inputs": [
				{
					"internalType": "address",
					"name": "account",
					"type": "address"
				},
				{
					"internalType": "bytes32",
					"name": "fromCurrencyKey",
					"type": "bytes32"
				},
				{
					"internalType": "uint256",
					"name": "fromAmount",
					"type": "uint256"
				},
				{
					"internalType": "bytes32",
					"name": "toCurrencyKey",
					"type": "bytes32"
				},
				{
					"internalType": "uint256",
					"name": "toAmount",
					"type": "uint256"
				},
				{
					"internalType": "address",
					"name": "toAddress",
					"type": "address"
				}
			],
			"name": "emitSynthExchange",
			"outputs": [],
			"payable": false,
			"stateMutability": "nonpayable",
			"type": "function"
		},
		{
			"constant": false,
			"inputs": [
				{
					"internalType": "bytes32",
					"name": "sourceCurrencyKey",
					"type": "bytes32"
				},
				{
					"internalType": "uint256",
					"name": "sourceAmount",
					"type": "uint256"
				},
				{
					"internalType": "bytes32",
					"name": "destinationCurrencyKey",
					"type": "bytes32"
				}
			],
			"name": "exchange",
			"outputs": [
				{
					"internalType": "uint256",
					"name": "amountReceived",
					"type": "uint256"
				}
			],
			"payable": false,
			"stateMutability": "nonpayable",
			"type": "function"
		},
		{
			"constant": false,
			"inputs": [
				{
					"internalType": "address",
					"name": "exchangeForAddress",
					"type": "address"
				},
				{
					"internalType": "bytes32",
					"name": "sourceCurrencyKey",
					"type": "bytes32"
				},
				{
					"internalType": "uint256",
					"name": "sourceAmount",
					"type": "uint256"
				},
				{
					"internalType": "bytes32",
					"name": "destinationCurrencyKey",
					"type": "bytes32"
				}
			],
			"name": "exchangeOnBehalf",
			"outputs": [
				{
					"internalType": "uint256",
					"name": "amountReceived",
					"type": "uint256"
				}
			],
			"payable": false,
			"stateMutability": "nonpayable",
			"type": "function"
		},
		{
			"constant": false,
			"inputs": [
				{
					"internalType": "address",
					"name": "exchangeForAddress",
					"type": "address"
				},
				{
					"internalType": "bytes32",
					"name": "sourceCurrencyKey",
					"type": "bytes32"
				},
				{
					"internalType": "uint256",
					"name": "sourceAmount",
					"type": "uint256"
				},
				{
					"internalType": "bytes32",
					"name": "destinationCurrencyKey",
					"type": "bytes32"
				},
				{
					"internalType": "address",
					"name": "originator",
					"type": "address"
				},
				{
					"internalType": "bytes32",
					"name": "trackingCode",
					"type": "bytes32"
				}
			],
			"name": "exchangeOnBehalfWithTracking",
			"outputs": [
				{
					"internalType": "uint256",
					"name": "amountReceived",
					"type": "uint256"
				}
			],
			"payable": false,
			"stateMutability": "nonpayable",
			"type": "function"
		},
		{
			"constant": false,
			"inputs": [
				{
					"internalType": "bytes32",
					"name": "sourceCurrencyKey",
					"type": "bytes32"
				},
				{
					"internalType": "uint256",
					"name": "sourceAmount",
					"type": "uint256"
				},
				{
					"internalType": "bytes32",
					"name": "destinationCurrencyKey",
					"type": "bytes32"
				},
				{
					"internalType": "address",
					"name": "originator",
					"type": "address"
				},
				{
					"internalType": "bytes32",
					"name": "trackingCode",
					"type": "bytes32"
				}
			],
			"name": "exchangeWithTracking",
			"outputs": [
				{
					"internalType": "uint256",
					"name": "amountReceived",
					"type": "uint256"
				}
			],
			"payable": false,
			"stateMutability": "nonpayable",
			"type": "function"
		},
		{
			"constant": true,
			"inputs": [],
			"name": "getResolverAddressesRequired",
			"outputs": [
				{
					"internalType": "bytes32[24]",
					"name": "addressesRequired",
					"type": "bytes32[24]"
				}
			],
			"payable": false,
			"stateMutability": "view",
			"type": "function"
		},
		{
			"constant": false,
			"inputs": [],
			"name": "initiateSelfDestruct",
			"outputs": [],
			"payable": false,
			"stateMutability": "nonpayable",
			"type": "function"
		},
		{
			"constant": true,
			"inputs": [],
			"name": "initiationTime",
			"outputs": [
				{
					"internalType": "uint256",
					"name": "",
					"type": "uint256"
				}
			],
			"payable": false,
			"stateMutability": "view",
			"type": "function"
		},
		{
			"constant": true,
			"inputs": [],
			"name": "integrationProxy",
			"outputs": [
				{
					"internalType": "contract Proxy",
					"name": "",
					"type": "address"
				}
			],
			"payable": false,
			"stateMutability": "view",
			"type": "function"
		},
		{
			"constant": true,
			"inputs": [
				{
					"internalType": "contract AddressResolver",
					"name": "_resolver",
					"type": "address"
				}
			],
			"name": "isResolverCached",
			"outputs": [
				{
					"internalType": "bool",
					"name": "",
					"type": "bool"
				}
			],
			"payable": false,
			"stateMutability": "view",
			"type": "function"
		},
		{
			"constant": true,
			"inputs": [
				{
					"internalType": "bytes32",
					"name": "currencyKey",
					"type": "bytes32"
				}
			],
			"name": "isWaitingPeriod",
			"outputs": [
				{
					"internalType": "bool",
					"name": "",
					"type": "bool"
				}
			],
			"payable": false,
			"stateMutability": "view",
			"type": "function"
		},
		{
			"constant": false,
			"inputs": [],
			"name": "issueMaxSynths",
			"outputs": [],
			"payable": false,
			"stateMutability": "nonpayable",
			"type": "function"
		},
		{
			"constant": false,
			"inputs": [
				{
					"internalType": "address",
					"name": "issueForAddress",
					"type": "address"
				}
			],
			"name": "issueMaxSynthsOnBehalf",
			"outputs": [],
			"payable": false,
			"stateMutability": "nonpayable",
			"type": "function"
		},
		{
			"constant": false,
			"inputs": [
				{
					"internalType": "uint256",
					"name": "amount",
					"type": "uint256"
				}
			],
			"name": "issueSynths",
			"outputs": [],
			"payable": false,
			"stateMutability": "nonpayable",
			"type": "function"
		},
		{
			"constant": false,
			"inputs": [
				{
					"internalType": "address",
					"name": "issueForAddress",
					"type": "address"
				},
				{
					"internalType": "uint256",
					"name": "amount",
					"type": "uint256"
				}
			],
			"name": "issueSynthsOnBehalf",
			"outputs": [],
			"payable": false,
			"stateMutability": "nonpayable",
			"type": "function"
		},
		{
			"constant": false,
			"inputs": [
				{
					"internalType": "address",
					"name": "account",
					"type": "address"
				},
				{
					"internalType": "uint256",
					"name": "susdAmount",
					"type": "uint256"
				}
			],
			"name": "liquidateDelinquentAccount",
			"outputs": [
				{
					"internalType": "bool",
					"name": "",
					"type": "bool"
				}
			],
			"payable": false,
			"stateMutability": "nonpayable",
			"type": "function"
		},
		{
			"constant": true,
			"inputs": [
				{
					"internalType": "address",
					"name": "account",
					"type": "address"
				}
			],
			"name": "maxIssuableSynths",
			"outputs": [
				{
					"internalType": "uint256",
					"name": "maxIssuable",
					"type": "uint256"
				}
			],
			"payable": false,
			"stateMutability": "view",
			"type": "function"
		},
		{
			"constant": true,
			"inputs": [],
			"name": "messageSender",
			"outputs": [
				{
					"internalType": "address",
					"name": "",
					"type": "address"
				}
			],
			"payable": false,
			"stateMutability": "view",
			"type": "function"
		},
		{
			"constant": false,
			"inputs": [],
			"name": "mint",
			"outputs": [
				{
					"internalType": "bool",
					"name": "",
					"type": "bool"
				}
			],
			"payable": false,
			"stateMutability": "nonpayable",
			"type": "function"
		},
		{
			"constant": false,
			"inputs": [
				{
					"internalType": "address",
					"name": "",
					"type": "address"
				},
				{
					"internalType": "uint256",
					"name": "",
					"type": "uint256"
				}
			],
			"name": "mintSecondary",
			"outputs": [],
			"payable": false,
			"stateMutability": "nonpayable",
			"type": "function"
		},
		{
			"constant": true,
			"inputs": [],
			"name": "name",
			"outputs": [
				{
					"internalType": "string",
					"name": "",
					"type": "string"
				}
			],
			"payable": false,
			"stateMutability": "view",
			"type": "function"
		},
		{
			"constant": false,
			"inputs": [
				{
					"internalType": "address",
					"name": "_owner",
					"type": "address"
				}
			],
			"name": "nominateNewOwner",
			"outputs": [],
			"payable": false,
			"stateMutability": "nonpayable",
			"type": "function"
		},
		{
			"constant": true,
			"inputs": [],
			"name": "nominatedOwner",
			"outputs": [
				{
					"internalType": "address",
					"name": "",
					"type": "address"
				}
			],
			"payable": false,
			"stateMutability": "view",
			"type": "function"
		},
		{
			"constant": true,
			"inputs": [],
			"name": "owner",
			"outputs": [
				{
					"internalType": "address",
					"name": "",
					"type": "address"
				}
			],
			"payable": false,
			"stateMutability": "view",
			"type": "function"
		},
		{
			"constant": true,
			"inputs": [],
			"name": "proxy",
			"outputs": [
				{
					"internalType": "contract Proxy",
					"name": "",
					"type": "address"
				}
			],
			"payable": false,
			"stateMutability": "view",
			"type": "function"
		},
		{
			"constant": true,
			"inputs": [
				{
					"internalType": "address",
					"name": "account",
					"type": "address"
				}
			],
			"name": "remainingIssuableSynths",
			"outputs": [
				{
					"internalType": "uint256",
					"name": "maxIssuable",
					"type": "uint256"
				},
				{
					"internalType": "uint256",
					"name": "alreadyIssued",
					"type": "uint256"
				},
				{
					"internalType": "uint256",
					"name": "totalSystemDebt",
					"type": "uint256"
				}
			],
			"payable": false,
			"stateMutability": "view",
			"type": "function"
		},
		{
			"constant": true,
			"inputs": [],
			"name": "resolver",
			"outputs": [
				{
					"internalType": "contract AddressResolver",
					"name": "",
					"type": "address"
				}
			],
			"payable": false,
			"stateMutability": "view",
			"type": "function"
		},
		{
			"constant": true,
			"inputs": [
				{
					"internalType": "uint256",
					"name": "",
					"type": "uint256"
				}
			],
			"name": "resolverAddressesRequired",
			"outputs": [
				{
					"internalType": "bytes32",
					"name": "",
					"type": "bytes32"
				}
			],
			"payable": false,
			"stateMutability": "view",
			"type": "function"
		},
		{
			"constant": true,
			"inputs": [],
			"name": "sUSD",
			"outputs": [
				{
					"internalType": "bytes32",
					"name": "",
					"type": "bytes32"
				}
			],
			"payable": false,
			"stateMutability": "view",
			"type": "function"
		},
		{
			"constant": false,
			"inputs": [],
			"name": "selfDestruct",
			"outputs": [],
			"payable": false,
			"stateMutability": "nonpayable",
			"type": "function"
		},
		{
			"constant": true,
			"inputs": [],
			"name": "selfDestructBeneficiary",
			"outputs": [
				{
					"internalType": "address",
					"name": "",
					"type": "address"
				}
			],
			"payable": false,
			"stateMutability": "view",
			"type": "function"
		},
		{
			"constant": true,
			"inputs": [],
			"name": "selfDestructInitiated",
			"outputs": [
				{
					"internalType": "bool",
					"name": "",
					"type": "bool"
				}
			],
			"payable": false,
			"stateMutability": "view",
			"type": "function"
		},
		{
			"constant": false,
			"inputs": [
				{
					"internalType": "address payable",
					"name": "_integrationProxy",
					"type": "address"
				}
			],
			"name": "setIntegrationProxy",
			"outputs": [],
			"payable": false,
			"stateMutability": "nonpayable",
			"type": "function"
		},
		{
			"constant": false,
			"inputs": [
				{
					"internalType": "address",
					"name": "sender",
					"type": "address"
				}
			],
			"name": "setMessageSender",
			"outputs": [],
			"payable": false,
			"stateMutability": "nonpayable",
			"type": "function"
		},
		{
			"constant": false,
			"inputs": [
				{
					"internalType": "address payable",
					"name": "_proxy",
					"type": "address"
				}
			],
			"name": "setProxy",
			"outputs": [],
			"payable": false,
			"stateMutability": "nonpayable",
			"type": "function"
		},
		{
			"constant": false,
			"inputs": [
				{
					"internalType": "contract AddressResolver",
					"name": "_resolver",
					"type": "address"
				}
			],
			"name": "setResolverAndSyncCache",
			"outputs": [],
			"payable": false,
			"stateMutability": "nonpayable",
			"type": "function"
		},
		{
			"constant": false,
			"inputs": [
				{
					"internalType": "address payable",
					"name": "_beneficiary",
					"type": "address"
				}
			],
			"name": "setSelfDestructBeneficiary",
			"outputs": [],
			"payable": false,
			"stateMutability": "nonpayable",
			"type": "function"
		},
		{
			"constant": false,
			"inputs": [
				{
					"internalType": "contract TokenState",
					"name": "_tokenState",
					"type": "address"
				}
			],
			"name": "setTokenState",
			"outputs": [],
			"payable": false,
			"stateMutability": "nonpayable",
			"type": "function"
		},
		{
			"constant": false,
			"inputs": [
				{
					"internalType": "bytes32",
					"name": "currencyKey",
					"type": "bytes32"
				}
			],
			"name": "settle",
			"outputs": [
				{
					"internalType": "uint256",
					"name": "reclaimed",
					"type": "uint256"
				},
				{
					"internalType": "uint256",
					"name": "refunded",
					"type": "uint256"
				},
				{
					"internalType": "uint256",
					"name": "numEntriesSettled",
					"type": "uint256"
				}
			],
			"payable": false,
			"stateMutability": "nonpayable",
			"type": "function"
		},
		{
			"constant": true,
			"inputs": [],
			"name": "symbol",
			"outputs": [
				{
					"internalType": "string",
					"name": "",
					"type": "string"
				}
			],
			"payable": false,
			"stateMutability": "view",
			"type": "function"
		},
		{
			"constant": true,
			"inputs": [
				{
					"internalType": "bytes32",
					"name": "currencyKey",
					"type": "bytes32"
				}
			],
			"name": "synths",
			"outputs": [
				{
					"internalType": "contract ISynth",
					"name": "",
					"type": "address"
				}
			],
			"payable": false,
			"stateMutability": "view",
			"type": "function"
		},
		{
			"constant": true,
			"inputs": [
				{
					"internalType": "address",
					"name": "synthAddress",
					"type": "address"
				}
			],
			"name": "synthsByAddress",
			"outputs": [
				{
					"internalType": "bytes32",
					"name": "",
					"type": "bytes32"
				}
			],
			"payable": false,
			"stateMutability": "view",
			"type": "function"
		},
		{
			"constant": false,
			"inputs": [],
			"name": "terminateSelfDestruct",
			"outputs": [],
			"payable": false,
			"stateMutability": "nonpayable",
			"type": "function"
		},
		{
			"constant": true,
			"inputs": [],
			"name": "tokenState",
			"outputs": [
				{
					"internalType": "contract TokenState",
					"name": "",
					"type": "address"
				}
			],
			"payable": false,
			"stateMutability": "view",
			"type": "function"
		},
		{
			"constant": true,
			"inputs": [
				{
					"internalType": "bytes32",
					"name": "currencyKey",
					"type": "bytes32"
				}
			],
			"name": "totalIssuedSynths",
			"outputs": [
				{
					"internalType": "uint256",
					"name": "",
					"type": "uint256"
				}
			],
			"payable": false,
			"stateMutability": "view",
			"type": "function"
		},
		{
			"constant": true,
			"inputs": [
				{
					"internalType": "bytes32",
					"name": "currencyKey",
					"type": "bytes32"
				}
			],
			"name": "totalIssuedSynthsExcludeEtherCollateral",
			"outputs": [
				{
					"internalType": "uint256",
					"name": "",
					"type": "uint256"
				}
			],
			"payable": false,
			"stateMutability": "view",
			"type": "function"
		},
		{
			"constant": true,
			"inputs": [],
			"name": "totalSupply",
			"outputs": [
				{
					"internalType": "uint256",
					"name": "",
					"type": "uint256"
				}
			],
			"payable": false,
			"stateMutability": "view",
			"type": "function"
		},
		{
			"constant": false,
			"inputs": [
				{
					"internalType": "address",
					"name": "to",
					"type": "address"
				},
				{
					"internalType": "uint256",
					"name": "value",
					"type": "uint256"
				}
			],
			"name": "transfer",
			"outputs": [
				{
					"internalType": "bool",
					"name": "",
					"type": "bool"
				}
			],
			"payable": false,
			"stateMutability": "nonpayable",
			"type": "function"
		},
		{
			"constant": false,
			"inputs": [
				{
					"internalType": "address",
					"name": "from",
					"type": "address"
				},
				{
					"internalType": "address",
					"name": "to",
					"type": "address"
				},
				{
					"internalType": "uint256",
					"name": "value",
					"type": "uint256"
				}
			],
			"name": "transferFrom",
			"outputs": [
				{
					"internalType": "bool",
					"name": "",
					"type": "bool"
				}
			],
			"payable": false,
			"stateMutability": "nonpayable",
			"type": "function"
		},
		{
			"constant": true,
			"inputs": [
				{
					"internalType": "address",
					"name": "account",
					"type": "address"
				}
			],
			"name": "transferableSynthetix",
			"outputs": [
				{
					"internalType": "uint256",
					"name": "transferable",
					"type": "uint256"
				}
			],
			"payable": false,
			"stateMutability": "view",
			"type": "function"
		}
	],
	"evm": {
		"bytecode": {
			"linkReferences": {},
			"object": "608060405260405160c0810160409081526b53797374656d53746174757360a01b82526822bc31b430b733b2b960b91b60208301526524b9b9bab2b960d11b908201526d537570706c795363686564756c6560901b60608201527f52657761726473446973747269627574696f6e0000000000000000000000000060808201526d53796e746865746978537461746560901b60a0820152620000a690600e906006620006af565b50348015620000bf57600080620000bc620006fd565b50505b5060405162006b6e38038062006b6e833981810160405260a0811015620000f057600080620000ed620006fd565b50505b81019080805192919060200180519291906020018051929190602001805192919060200180519250829150600e905060186103006040519081016040529190610300830182845b81620001426200076a565b8152602001906001019080831162000137575050505050868660405160408082018152601782527f53796e746865746978204e6574776f726b20546f6b656e0000000000000000006020830152516040808201905260038152620a69cb60eb1b60208201528760128a86816001600160a01b038116620002135760405162461bcd60e51b815260206004820152601960248201527f4f776e657220616464726573732063616e6e6f7420626520300000000000000060448201526064016040518091039062000210620006fd565b50505b806000600181620002236200076a565b816001600160a01b0302191690836001600160a01b031602179062000247620007cc565b5050507fb532073b38c83145e3e5135377a08bf9aab55bc0fd7c1179cd4fb995d2a5159c6000826040516001600160a01b039283168152911660208201526040908101905180910390a15060008080620002a06200076a565b906101000a90046001600160a01b03166001600160a01b031614156200030b5760405162461bcd60e51b815260206004820152601160248201527013dddb995c881b5d5cdd081899481cd95d607a1b60448201526064016040518091039062000308620006fd565b50505b600080620003186200076a565b906101000a90046001600160a01b0316600360016101000a816200033b6200076a565b816001600160a01b0302191690836001600160a01b03160217906200035f620007cc565b5050507fd5da63a0b864b315bc04128dedbc93888c8529ee6cf47ce664dc204339228c5360008090620003916200076a565b906101000a90046001600160a01b03166040516001600160a01b03909116815260200160405180910390a160008080620003ca6200076a565b906101000a90046001600160a01b03166001600160a01b03161415620004355760405162461bcd60e51b815260206004820152601160248201527013dddb995c881b5d5cdd081899481cd95d607a1b60448201526064016040518091039062000432620006fd565b50505b806004600181620004456200076a565b816001600160a01b0302191690836001600160a01b031602179062000469620007cc565b5050507ffc80377ca9c49cc11ae6982f390a42db976d5530af7c43889264b13fbbd7c57e816040516001600160a01b03909116815260200160405180910390a150856007600181620004ba6200076a565b816001600160a01b0302191690836001600160a01b0316021790620004de620007cc565b505050846008908051620004f79291602001906200081b565b5060098480516200050d9291602001906200081b565b508280600a6200051c620007cc565b50505081600b60006101000a81620005336200076a565b8160ff021916908360ff160217906200054b620007cc565b5050505050505050505060006001600160a01b0316600080906200056e6200076a565b906101000a90046001600160a01b03166001600160a01b03161415620005d95760405162461bcd60e51b815260206004820152601160248201527013dddb995c881b5d5cdd081899481cd95d607a1b604482015260640160405180910390620005d6620006fd565b50505b60005b601881101562000669576000828260188110620005f557fe5b6020020151146200065a57600d8282601881106200060f57fe5b60200201519080600181620006236200076a565b01808262000630620007cc565b505060009283529160001983019150602090209192910162000651620007cc565b50505062000660565b62000669565b600101620005dc565b5081600b610100816200067b6200076a565b816001600160a01b0302191690836001600160a01b03160217906200069f620007cc565b505050505050505050506200091d565b8260188101928215620006eb579160200282015b82811115620006eb57825182620006d9620007cc565b505091602001919060010190620006c3565b50620006f9929150620008c6565b5090565b632a2a7adb598160e01b8152600481016020815285602082015260005b86811015620007375780860151828201604001526020016200071a565b506020828760640184336000905af158600e01573d6000803e3d6000fd5b3d6001141558600a015760016000f35b505050565b6303daa959598160e01b8152836004820152602081602483336000905af158600e01573d6000803e3d6000fd5b3d6001141558600a015760016000f35b8051935060005b6040811015620007c757600082820152602001620007ae565b505050565b6322bd64c0598160e01b8152836004820152846024820152600081604483336000905af158600e01573d6000803e3d6000fd5b3d6001141558600a015760016000f35b600081526020620007ae565b8280620008276200076a565b600181600116156101000203166002900490600052602060002090601f016020900481019282601f106200087257805160ff191683800117856200086a620007cc565b5050620008b8565b8280016001018562000883620007cc565b50508215620008b8579182015b82811115620008b857825182620008a6620007cc565b50509160200191906001019062000890565b50620006f9929150620008f3565b620008f091905b80821115620006f95760008082620008e4620007cc565b505050600101620008cd565b90565b620008f091905b80821115620006f9576000808262000911620007cc565b505050600101620008fa565b616241806200092d6000396000f3fe608060405234801561001957600080610016615cce565b50505b50600436106104525760003560e01c80638a2900141161024a578063bc67f83211610144578063dbf63340116100cc578063e8e09b8b11610090578063e8e09b8b14610ec0578063e90dd9e214610ef5578063ec55688914610efd578063edef719a146108b8578063ee52a2f314610f0557610452565b8063dbf6334014610e12578063dd62ed3e14610e1a578063ddd03a3f14610e51578063e3235c9114610e83578063e6203ed114610e8b57610452565b8063c6c9d82811610113578063c6c9d82814610d48578063c836fa0a14610d6e578063d37c4d8b14610daf578063d60888e414610de4578063d67bdd2514610e0a57610452565b8063bc67f83214610cd4578063bd32aa4414610d03578063c2bf388014610d0b578063c58aaae614610d4057610452565b80639cbdaeb6116101d2578063a9059cbb11610196578063a9059cbb14610c13578063ab49848c14610c48578063ace88afd14610c89578063af086c7e14610cc4578063b8225dec14610ccc57610452565b80639cbdaeb614610b765780639f76980714610b7e578063a311c7c214610bad578063a461fc8214610bdc578063a5fdc5de14610be457610452565b806395d89b411161021957806395d89b4114610b0957806397107d6d14610b115780639741fb2214610b40578063987757dd14610b485780639cb8a26a14610b6e57610452565b80638a29001414610a845780638da5cb5b14610aaa57806391e56b6814610ab25780639324cac714610b0157610452565b80632e0f26251161035b578063631e1444116102e357806370a08231116102a757806370a08231146109a657806372cb051f146109d557806379ba509714610a30578063835e119c14610a3857806383d625d414610a5e57610452565b8063631e144414610889578063666ed4f1146108b85780636ac0bf9c146108ed5780636c00f3101461091c5780636f01a9861461096b57610452565b8063326080391161032a578063326080391461081c5780633278c960146108425780633be99e6f1461084a5780634e99bda91461087957806353a47bb71461088157610452565b80632e0f26251461078057806330ead7601461079e578063313ce567146107e5578063320223db146107ed57610452565b806317c70de4116103de57806320714f88116103ad57806320714f88146106b557806323b872dd146106e4578063295da87d146107235780632a905318146107495780632c955fa71461075157610452565b806317c70de41461067757806318160ddd1461067f57806318821400146106875780631fce304d1461068f57610452565b80631137aedf116104255780631137aedf1461058d5780631249c58b146105e0578063131b0ae7146105e85780631627540c1461061957806316b2213f1461064857610452565b806304f3bcec1461046057806305b3c1c91461048457806306fdde03146104c5578063095ea7b314610544575b60008061045d615cce565b50505b610468610f37565b6040516001600160a01b03909116815260200160405180910390f35b6104b3600480360360208110156104a3576000806104a0615cce565b50505b50356001600160a01b0316610f56565b60405190815260200160405180910390f35b6104cd611017565b60405160208082528190810183818151815260200191508051906020019080838360005b838110156105095780820151838201526020016104f1565b50505050905090810190601f1680156105365780820380516001836020036101000a031916815260200191505b509250505060405180910390f35b6105796004803603604081101561056357600080610560615cce565b50505b506001600160a01b0381351690602001356110d0565b604051901515815260200160405180910390f35b6105bc600480360360208110156105ac576000806105a9615cce565b50505b50356001600160a01b03166111cc565b60405180848152602001838152602001828152602001935050505060405180910390f35b6105796112a6565b6106176004803603602081101561060757600080610604615cce565b50505b50356001600160a01b0316611a67565b005b6106176004803603602081101561063857600080610635615cce565b50505b50356001600160a01b0316611aa5565b6104b36004803603602081101561066757600080610664615cce565b50505b50356001600160a01b0316611b1f565b6104b3611b72565b6104b3611b7f565b6104cd611b89565b610579600480360360208110156106ae576000806106ab615cce565b50505b5035611bc0565b610617600480360360208110156106d4576000806106d1615cce565b50505b50356001600160a01b0316611ca5565b6105796004803603606081101561070357600080610700615cce565b50505b506001600160a01b03813581169160208101359091169060400135611d84565b610617600480360360208110156107425760008061073f615cce565b50505b5035611e45565b6104cd611f85565b610617600480360360208110156107705760008061076d615cce565b50505b50356001600160a01b0316611fa2565b61078861209d565b60405160ff909116815260200160405180910390f35b6104b3600480360360a08110156107bd576000806107ba615cce565b50505b508035906020810135906040810135906001600160a01b0360608201351690608001356120a2565b6107886122ee565b6106176004803603602081101561080c57600080610809615cce565b50505b50356001600160a01b0316612307565b6104686004803603602081101561083b57600080610838615cce565b50505b50356123af565b6106176123fa565b6106176004803603602081101561086957600080610866615cce565b50505b50356001600160a01b031661246b565b610579612636565b6104686126de565b610579600480360360208110156108a8576000806108a5615cce565b50505b50356001600160a01b03166126ea565b610617600480360360408110156108d7576000806108d4615cce565b50505b506001600160a01b0381351690602001356128c5565b6104b36004803603602081101561090c57600080610909615cce565b50505b50356001600160a01b0316612917565b610617600480360360c081101561093b57600080610938615cce565b50505b506001600160a01b03813581169160208101359160408201359160608101359160808201359160a0013516612ab1565b6106176004803603606081101561098a57600080610987615cce565b50505b506001600160a01b038135169060208101359060400135612cba565b6104b3600480360360208110156109c5576000806109c2615cce565b50505b50356001600160a01b0316612ea0565b6109dd612f06565b60405160208082528190810183818151815260200191508051906020019060200280838360005b83811015610a1c578082015183820152602001610a04565b505050509050019250505060405180910390f35b610617613061565b61046860048036036020811015610a5757600080610a54615cce565b50505b50356131e4565b6104b360048036036020811015610a7d57600080610a7a615cce565b50505b503561322f565b61061760048036036020811015610aa357600080610aa0615cce565b50505b5035613283565b61046861332a565b6104b3600480360360c0811015610ad157600080610ace615cce565b50505b506001600160a01b0381358116916020810135916040820135916060810135916080820135169060a00135613335565b6104b3613564565b6104cd61356f565b61061760048036036020811015610b3057600080610b2d615cce565b50505b50356001600160a01b0316613611565b61061761368c565b6105bc60048036036020811015610b6757600080610b64615cce565b50505b50356137c4565b610617613881565b6104686139c4565b61061760048036036020811015610b9d57600080610b9a615cce565b50505b50356001600160a01b03166139d0565b6104b360048036036020811015610bcc57600080610bc9615cce565b50505b50356001600160a01b0316613a14565b6104b3613a67565b6104b360048036036020811015610c0357600080610c00615cce565b50505b50356001600160a01b0316613a6e565b61057960048036036040811015610c3257600080610c2f615cce565b50505b506001600160a01b038135169060200135613ac1565b610c50613b95565b604051808261030080838360005b83811015610c76578082015183820152602001610c5e565b5050505090500191505060405180910390f35b61061760048036036060811015610ca857600080610ca5615cce565b50505b506001600160a01b038135169060208101359060400135613bf7565b610617613cd7565b610579613d7e565b61061760048036036020811015610cf357600080610cf0615cce565b50505b50356001600160a01b0316613d8a565b610617613da0565b61061760048036036040811015610d2a57600080610d27615cce565b50505b506001600160a01b038135169060200135613e22565b610468613f6e565b6104b360048036036020811015610d6757600080610d64615cce565b50505b5035613f7a565b6104b360048036036080811015610d8d57600080610d8a615cce565b50505b506001600160a01b038135169060208101359060408101359060600135613fa2565b6104b360048036036040811015610dce57600080610dcb615cce565b50505b506001600160a01b0381351690602001356141be565b6104b360048036036020811015610e0357600080610e00615cce565b50505b5035614284565b6104686142d8565b6104b36142e4565b6104b360048036036040811015610e3957600080610e36615cce565b50505b506001600160a01b0381358116916020013516614321565b61061760048036036060811015610e7057600080610e6d615cce565b50505b508035906020810135906040013561438f565b6104b36144d8565b61057960048036036040811015610eaa57600080610ea7615cce565b50505b506001600160a01b0381351690602001356144dd565b61061760048036036040811015610edf57600080610edc615cce565b50505b506001600160a01b0381351690602001356146b4565b61046861475c565b610468614768565b6104b360048036036060811015610f2457600080610f21615cce565b50505b5080359060208101359060400135614774565b6001600b610f43615d39565b906101000a90046001600160a01b031681565b6000610f606149aa565b6001600160a01b03166305b3c1c9836040516001600160e01b031960e084901b1681526001600160a01b0390911660048201526024016020604051808303818680610fa9615d94565b158015610fbe57600080610fbb615cce565b50505b505a610fc8615de0565b5050505050158015610fe7573d6000803e3d6000610fe4615cce565b50505b505050506040513d602081101561100657600080611003615cce565b50505b81019080805193505050505b919050565b600880611022615d39565b600181600116156101000203166002900480601f01602080910402602001604051908101604052818152919060208301828061105c615d39565b600181600116156101000203166002900480156110c85780601f10611096576101008083611088615d39565b0402835291602001916110c8565b820191906000526020600020905b816110ad615d39565b815290600101906020018083116110a457829003601f168201915b505050505081565b60006110da6149f0565b60008060066110e7615d39565b906101000a90046001600160a01b031690506007600090611106615d39565b906101000a90046001600160a01b03166001600160a01b031663da46098c8286866040516001600160e01b031960e086901b1681526001600160a01b039384166004820152919092166024820152604481019190915260640160006040518083038160008780611174615d94565b15801561118957600080611186615cce565b50505b505a611193615e99565b5050505050501580156111b3573d6000803e3d60006111b0615cce565b50505b505050506111c2818585614ac6565b5060019392505050565b60008060006111d96149aa565b6001600160a01b0316631137aedf856040516001600160e01b031960e084901b1681526001600160a01b0390911660048201526024016060604051808303818680611222615d94565b15801561123757600080611234615cce565b50505b505a611241615de0565b5050505050158015611260573d6000803e3d600061125d615cce565b50505b505050506040513d606081101561127f5760008061127c615cce565b50505b81019080805192919060200180519291906020018051949993985093965091945050505050565b60006112b0614ba9565b6001600160a01b0316637c3125416040518163ffffffff1660e01b815260040160006040518083038186806112e3615d94565b1580156112f8576000806112f5615cce565b50505b505a611302615de0565b5050505050158015611321573d6000803e3d600061131e615cce565b50505b5050505060006001600160a01b0316611338614bf7565b6001600160a01b0316141561139c5760405162461bcd60e51b815260206004820152601b60248201527f52657761726473446973747269627574696f6e206e6f74207365740000000000604482015260640160405180910390611399615cce565b50505b60006113a6614c2f565b905060006113b2614bf7565b90506000826001600160a01b031663cc5c095c6040518163ffffffff1660e01b815260040160206040518083038186806113ea615d94565b1580156113ff576000806113fc615cce565b50505b505a611409615de0565b5050505050158015611428573d6000803e3d6000611425615cce565b50505b505050506040513d602081101561144757600080611444615cce565b50505b8101908080519350505081151590506114a75760405162461bcd60e51b81526020600482015260156024820152744e6f20737570706c79206973206d696e7461626c6560581b6044820152606401604051809103906114a4615cce565b50505b826001600160a01b0316637e7961d7826040516001600160e01b031960e084901b1681526004810191909152602401602060405180830381600087806114eb615d94565b158015611500576000806114fd615cce565b50505b505a61150a615e99565b50505050505015801561152a573d6000803e3d6000611527615cce565b50505b505050506040513d602081101561154957600080611546615cce565b50505b810190808051506000925050506001600160a01b038416639bdd7ac76040518163ffffffff1660e01b8152600401602060405180830381868061158a615d94565b15801561159f5760008061159c615cce565b50505b505a6115a9615de0565b50505050501580156115c8573d6000803e3d60006115c5615cce565b50505b505050506040513d60208110156115e7576000806115e4615cce565b50505b81019080805193506000925061160791508490508363ffffffff614c7f16565b905060006007611615615d39565b6001600160a01b036101009290920a90041663b46310f68561170a846000600761163d615d39565b906101000a90046001600160a01b03166001600160a01b03166370a082318a6040516001600160e01b031960e084901b1681526001600160a01b0390911660048201526024016020604051808303818680611696615d94565b1580156116ab576000806116a8615cce565b50505b505a6116b5615de0565b50505050501580156116d4573d6000803e3d60006116d1615cce565b50505b505050506040513d60208110156116f3576000806116f0615cce565b50505b8101908080519392505063ffffffff614ce4169050565b6040516001600160e01b031960e085901b1681526001600160a01b03909216600483015260248201526044016000604051808303816000878061174b615d94565b1580156117605760008061175d615cce565b50505b505a61176a615e99565b50505050505015801561178a573d6000803e3d6000611787615cce565b50505b505050506117f15a63996d79a5598160e01b8152602081600483336000905af158600e01573d6000803e3d6000fd5b3d6001141558600a015760016000f35b8051925060005b60408110156117e7576000828201526020016117d0565b5050508583614d4d565b836001600160a01b03166359974e38826040516001600160e01b031960e084901b168152600481019190915260240160206040518083038160008780611835615d94565b15801561184a57600080611847615cce565b50505b505a611854615e99565b505050505050158015611874573d6000803e3d6000611871615cce565b50505b505050506040513d602081101561189357600080611890615cce565b50505b8101908080515060009250600791506118ac9050615d39565b906101000a90046001600160a01b03166001600160a01b031663b46310f65a6118d3615f52565b61194485600060076118e3615d39565b906101000a90046001600160a01b03166001600160a01b03166370a082315a61190a615f52565b6040516001600160e01b031960e084901b1681526001600160a01b0390911660048201526024016020604051808303818680611696615d94565b6040516001600160e01b031960e085901b1681526001600160a01b039092166004830152602482015260440160006040518083038160008780611985615d94565b15801561199a57600080611997615cce565b50505b505a6119a4615e99565b5050505050501580156119c4573d6000803e3d60006119c1615cce565b50505b50505050611a335a63996d79a5598160e01b8152602081600483336000905af158600e01573d6000803e3d6000fd5b3d6001141558600a015760016000f35b8051925060005b6040811015611a2157600082820152602001611a0a565b5050505a611a2d615f52565b84614d4d565b611a4d83600a611a41615d39565b9063ffffffff614ce416565b80600a611a58615f98565b50505060019550505050505090565b611a6f614dba565b806005600181611a7d615d39565b816001600160a01b0302191690836001600160a01b0316021790611a9f615f98565b50505050565b611aad614dba565b8060018080611aba615d39565b816001600160a01b0302191690836001600160a01b0316021790611adc615f98565b5050507f906a1c6bd7e3091ea86693dd029a831c19049ce77f1dce2ce0bab1cacbabce22816040516001600160a01b03909116815260200160405180910390a150565b6000611b296149aa565b6001600160a01b03166316b2213f836040516001600160e01b031960e084901b1681526001600160a01b0390911660048201526024016020604051808303818680610fa9615d94565b6002611b7c615d39565b81565b600a611b7c615d39565b60405160408082019052601781527f53796e746865746978204e6574776f726b20546f6b656e000000000000000000602082015281565b600080611bcb614e32565b6001600160a01b031663059c29ec60006006611be5615d39565b906101000a90046001600160a01b0316856040516001600160e01b031960e085901b1681526001600160a01b03909216600483015260248201526044016020604051808303818680611c35615d94565b158015611c4a57600080611c47615cce565b50505b505a611c54615de0565b5050505050158015611c73573d6000803e3d6000611c70615cce565b50505b505050506040513d6020811015611c9257600080611c8f615cce565b50505b8101908080519390931195945050505050565b611cad614dba565b6001600160a01b038116611d105760405162461bcd60e51b815260206004820152601c60248201527f42656e6566696369617279206d757374206e6f74206265207a65726f00000000604482015260640160405180910390611d0d615cce565b50505b80600361010081611d1f615d39565b816001600160a01b0302191690836001600160a01b0316021790611d41615f98565b5050507fd5da63a0b864b315bc04128dedbc93888c8529ee6cf47ce664dc204339228c53816040516001600160a01b03909116815260200160405180910390a150565b6000611d8e6149f0565b611d96614ba9565b6001600160a01b031663086dabd16040518163ffffffff1660e01b81526004016000604051808303818680611dc9615d94565b158015611dde57600080611ddb615cce565b50505b505a611de8615de0565b5050505050158015611e07573d6000803e3d6000611e04615cce565b50505b50505050611e158483614e7d565b50611e3d60006006611e25615d39565b906101000a90046001600160a01b0316858585615192565b949350505050565b611e4d614ba9565b6001600160a01b0316637c3125416040518163ffffffff1660e01b81526004016000604051808303818680611e80615d94565b158015611e9557600080611e92615cce565b50505b505a611e9f615de0565b5050505050158015611ebe573d6000803e3d6000611ebb615cce565b50505b50505050611eca6149f0565b611ed26149aa565b6001600160a01b031663b06e8c6560006006611eec615d39565b906101000a90046001600160a01b0316836040516001600160e01b031960e085901b1681526001600160a01b039092166004830152602482015260440160006040518083038160008780611f3e615d94565b158015611f5357600080611f50615cce565b50505b505a611f5d615e99565b505050505050158015611f7d573d6000803e3d6000611f7a615cce565b50505b505050505b50565b6040516040808201905260038152620a69cb60eb1b602082015281565b611faa614ba9565b6001600160a01b0316637c3125416040518163ffffffff1660e01b81526004016000604051808303818680611fdd615d94565b158015611ff257600080611fef615cce565b50505b505a611ffc615de0565b505050505015801561201b573d6000803e3d6000612018615cce565b50505b505050506120276149f0565b61202f6149aa565b6001600160a01b0316632b3f41aa826000600661204a615d39565b906101000a90046001600160a01b03166040516001600160e01b031960e085901b1681526001600160a01b0392831660048201529116602482015260440160006040518083038160008780611f3e615d94565b601281565b600085846120ae614ba9565b6001600160a01b0316637118d4316040518163ffffffff1660e01b815260040160006040518083038186806120e1615d94565b1580156120f6576000806120f3615cce565b50505b505a612100615de0565b505050505015801561211f573d6000803e3d600061211c615cce565b50505b5050505061212b614ba9565b6001600160a01b0316636132eba483836040516001600160e01b031960e085901b168152600481019290925260248201526044016000604051808303818680612172615d94565b15801561218757600080612184615cce565b50505b505a612191615de0565b50505050501580156121b0573d6000803e3d60006121ad615cce565b50505b505050506121bc6149f0565b6121c4614e32565b6001600160a01b03166386baa45c600060066121de615d39565b906101000a90046001600160a01b03168a8a8a60066000906121fe615d39565b906101000a90046001600160a01b03168b8b6040516001600160e01b031960e08a901b1681526001600160a01b0397881660048201526024810196909652604486019490945260648501929092528416608484015290921660a482015260c481019190915260e4016020604051808303816000878061227b615d94565b1580156122905760008061228d615cce565b50505b505a61229a615e99565b5050505050501580156122ba573d6000803e3d60006122b7615cce565b50505b505050506040513d60208110156122d9576000806122d6615cce565b50505b8101908080519b9a5050505050505050505050565b6000600b6122fa615d39565b906101000a900460ff1681565b61230f614ba9565b6001600160a01b0316637c3125416040518163ffffffff1660e01b81526004016000604051808303818680612342615d94565b15801561235757600080612354615cce565b50505b505a612361615de0565b5050505050158015612380573d6000803e3d600061237d615cce565b50505b5050505061238c6149f0565b6123946149aa565b6001600160a01b031663fd864ccf826000600661204a615d39565b60006123b96149aa565b6001600160a01b03166332608039836040516001600160e01b031960e084901b16815260048101919091526024016020604051808303818680610fa9615d94565b612402614dba565b600080600261240f615f98565b5050506000600360006101000a81612425615d39565b8160ff0219169083151502179061243a615f98565b5050507f6adcc7125002935e0aa31697538ebbd65cfddf20431eb6ecdcfc3e238bfd082c60405160405180910390a1565b612473614dba565b80600b61010081612482615d39565b816001600160a01b0302191690836001600160a01b03160217906124a4615f98565b5060009150505b600d806124b6615d39565b9050811015612632576000600d82816124cd615d39565b81106124d557fe5b906000526020600020016124e7615d39565b90506001600b6124f5615d39565b906101000a90046001600160a01b03166001600160a01b031663dacb2d01826040516001600160e01b031960e084901b1681526004810191909152604060248201819052601760448301527f5265736f6c766572206d697373696e672074617267657400000000000000000060648301526084909101906020905180830381868061257e615d94565b15801561259357600080612590615cce565b50505b505a61259d615de0565b50505050501580156125bc573d6000803e3d60006125b9615cce565b50505b505050506040513d60208110156125db576000806125d8615cce565b50505b8101908080516000858152600c60205290935060409250905020600181612600615d39565b816001600160a01b0302191690836001600160a01b0316021790612622615f98565b5050600190920191506124ab9050565b5050565b60006126406149aa565b6001600160a01b0316634e99bda96040518163ffffffff1660e01b81526004016020604051808303818680612673615d94565b15801561268857600080612685615cce565b50505b505a612692615de0565b50505050501580156126b1573d6000803e3d60006126ae615cce565b50505b505050506040513d60208110156126d0576000806126cd615cce565b50505b810190808051935050505090565b60006001610f43615d39565b60006001600160a01b0382166001600b612702615d39565b906101000a90046001600160a01b03166001600160a01b03161461272857506000611012565b60005b600d80612736615d39565b90508110156128bc576000600d828161274d615d39565b811061275557fe5b90600052602060002001612767615d39565b6000818152600c60205290915060409020600090612783615d39565b6001600160a01b036101009290920a9004166001600b6127a1615d39565b906101000a90046001600160a01b03166001600160a01b03166321f8a721836040516001600160e01b031960e084901b168152600481019190915260240160206040518083038186806127f2615d94565b15801561280757600080612804615cce565b50505b505a612811615de0565b5050505050158015612830573d6000803e3d600061282d615cce565b50505b505050506040513d602081101561284f5760008061284c615cce565b50505b8101908080516001600160a01b0316939093141592508291506128a3905057506000818152600c60205260408120600090612888615d39565b906101000a90046001600160a01b03166001600160a01b0316145b156128b357600092505050611012565b5060010161272b565b50600192915050565b60405162461bcd60e51b815260206004820152601b60248201527f43616e6e6f742062652072756e206f6e2074686973206c617965720000000000604482015260640160405180910390611a9f615cce565b60006129216149aa565b6001600160a01b0316636bed0415836000600761293c615d39565b906101000a90046001600160a01b03166001600160a01b03166370a08231866040516001600160e01b031960e084901b1681526001600160a01b0390911660048201526024016020604051808303818680612995615d94565b1580156129aa576000806129a7615cce565b50505b505a6129b4615de0565b50505050501580156129d3573d6000803e3d60006129d0615cce565b50505b505050506040513d60208110156129f2576000806129ef615cce565b50505b81019080805192506040915050516001600160e01b031960e085901b1681526001600160a01b039092166004830152602482015260440160408051808303818680612a3b615d94565b158015612a5057600080612a4d615cce565b50505b505a612a5a615de0565b5050505050158015612a79573d6000803e3d6000612a76615cce565b50505b505050506040513d6040811015612a9857600080612a95615cce565b50505b8101908080519291906020018051509295945050505050565b612ab9614e32565b6001600160a01b03165a612acb615f52565b6001600160a01b031614612b1c5760405162461bcd60e51b815260206004820152601e60248201526000805160206160a7833981519152604482015260640160405180910390612b19615cce565b50505b60006004612b28615d39565b906101000a90046001600160a01b03166001600160a01b031663907dff9786868686866040516020810195909552604080860194909452606085019290925260808401526001600160a01b031660a083015260c09091019051602081830303815290604052600260405180603e6160c78239603e0190506040518091039020612bb08b615338565b6000806040518763ffffffff1660e01b815260040180806020018781526020018681526020018581526020018460001b81526020018360001b8152602001828103825288818151815260200191508051906020019080838360005b83811015612c23578082015183820152602001612c0b565b50505050905090810190601f168015612c505780820380516001836020036101000a031916815260200191505b5097505050505050505060006040518083038160008780612c6f615d94565b158015612c8457600080612c81615cce565b50505b505a612c8e615e99565b505050505050158015612cae573d6000803e3d6000612cab615cce565b50505b50505050505050505050565b612cc2614e32565b6001600160a01b03165a612cd4615f52565b6001600160a01b031614612d255760405162461bcd60e51b815260206004820152601e60248201526000805160206160a7833981519152604482015260640160405180910390612d22615cce565b50505b60006004612d31615d39565b906101000a90046001600160a01b03166001600160a01b031663907dff9783836040516020018083815260200182815260200192505050604051602081830303815290604052600260405180602761619e823960270190506040518091039020612d9a88615338565b6000806040518763ffffffff1660e01b815260040180806020018781526020018681526020018581526020018460001b81526020018360001b8152602001828103825288818151815260200191508051906020019080838360005b83811015612e0d578082015183820152602001612df5565b50505050905090810190601f168015612e3a5780820380516001836020036101000a031916815260200191505b5097505050505050505060006040518083038160008780612e59615d94565b158015612e6e57600080612e6b615cce565b50505b505a612e78615e99565b505050505050158015611f7a573d6000803e3d6000612e95615cce565b505050505050505050565b6000806007612ead615d39565b906101000a90046001600160a01b03166001600160a01b03166370a08231836040516001600160e01b031960e084901b1681526001600160a01b0390911660048201526024016020604051808303818680610fa9615d94565b6060612f106149aa565b6001600160a01b03166372cb051f6040518163ffffffff1660e01b81526004016000604051808303818680612f43615d94565b158015612f5857600080612f55615cce565b50505b505a612f62615de0565b5050505050158015612f81573d6000803e3d6000612f7e615cce565b50505b505050506040513d6000823e601f3d908101601f191682016040526020811015612fb357600080612fb0615cce565b50505b8101908080516040519392919084640100000000821115612fdc57600080612fd9615cce565b50505b908301906020820185811115612ffa57600080612ff7615cce565b50505b82518660208202830111640100000000821117156130205760008061301d615cce565b50505b825250602001908051906020019060200280838360005b8381101561304f578082015183820152602001613037565b50505050905001604052505050905090565b6000600161306d615d39565b906101000a90046001600160a01b03166001600160a01b03165a61308f615f52565b6001600160a01b0316146130dd5760405162461bcd60e51b815260040180806020018281038252603581526020018061604a60359139604001915050604051809103906130da615cce565b50505b7fb532073b38c83145e3e5135377a08bf9aab55bc0fd7c1179cd4fb995d2a5159c600080613109615d39565b906101000a90046001600160a01b03166001600090613126615d39565b906101000a90046001600160a01b03166040516001600160a01b039283168152911660208201526040908101905180910390a160006001613165615d39565b906101000a90046001600160a01b03166000806101000a81613185615d39565b816001600160a01b0302191690836001600160a01b03160217906131a7615f98565b5050506000600160006101000a816131bd615d39565b816001600160a01b0302191690836001600160a01b03160217906131df615f98565b505050565b60006131ee6149aa565b6001600160a01b031663835e119c836040516001600160e01b031960e084901b16815260048101919091526024016020604051808303818680610fa9615d94565b60006132396149aa565b6001600160a01b0316637b1001b78360006040516001600160e01b031960e085901b1681526004810192909252151560248201526044016020604051808303818680610fa9615d94565b61328b614ba9565b6001600160a01b0316637c3125416040518163ffffffff1660e01b815260040160006040518083038186806132be615d94565b1580156132d3576000806132d0615cce565b50505b505a6132dd615de0565b50505050501580156132fc573d6000803e3d60006132f9615cce565b50505b505050506133086149f0565b6133106149aa565b6001600160a01b031663042e068860006006611eec615d39565b600080610f43615d39565b60008584613341614ba9565b6001600160a01b0316637118d4316040518163ffffffff1660e01b81526004016000604051808303818680613374615d94565b15801561338957600080613386615cce565b50505b505a613393615de0565b50505050501580156133b2573d6000803e3d60006133af615cce565b50505b505050506133be614ba9565b6001600160a01b0316636132eba483836040516001600160e01b031960e085901b168152600481019290925260248201526044016000604051808303818680613405615d94565b15801561341a57600080613417615cce565b50505b505a613424615de0565b5050505050158015613443573d6000803e3d6000613440615cce565b50505b5050505061344f6149f0565b613457614e32565b6001600160a01b031663dfffca768a60006006613472615d39565b906101000a90046001600160a01b03168b8b8b8b8b6040516001600160e01b031960e08a901b1681526001600160a01b039788166004820152958716602487015260448601949094526064850192909252608484015290921660a482015260c481019190915260e401602060405180830381600087806134f0615d94565b15801561350557600080613502615cce565b50505b505a61350f615e99565b50505050505015801561352f573d6000803e3d600061352c615cce565b50505b505050506040513d602081101561354e5760008061354b615cce565b50505b8101908080519c9b505050505050505050505050565b631cd554d160e21b81565b60098061357a615d39565b600181600116156101000203166002900480601f0160208091040260200160405190810160405281815291906020830182806135b4615d39565b600181600116156101000203166002900480156110c85780601f106135e0576101008083611088615d39565b820191906000526020600020905b816135f7615d39565b815290600101906020018083116135ee5750859350505050565b613619614dba565b806004600181613627615d39565b816001600160a01b0302191690836001600160a01b0316021790613649615f98565b5050507ffc80377ca9c49cc11ae6982f390a42db976d5530af7c43889264b13fbbd7c57e816040516001600160a01b03909116815260200160405180910390a150565b613694614ba9565b6001600160a01b0316637c3125416040518163ffffffff1660e01b815260040160006040518083038186806136c7615d94565b1580156136dc576000806136d9615cce565b50505b505a6136e6615de0565b5050505050158015613705573d6000803e3d6000613702615cce565b50505b505050506137116149f0565b6137196149aa565b6001600160a01b031663497d704a60006006613733615d39565b906101000a90046001600160a01b03166040516001600160e01b031960e084901b1681526001600160a01b0390911660048201526024016000604051808303816000878061377f615d94565b15801561379457600080613791615cce565b50505b505a61379e615e99565b505050505050158015611a9f573d6000803e3d60006137bb615cce565b5050505050505b565b60008060006137d16149f0565b6137d9614e32565b6001600160a01b0316631b16802c600060066137f3615d39565b906101000a90046001600160a01b0316866040516001600160e01b031960e085901b1681526001600160a01b039092166004830152602482015260440160606040518083038160008780613845615d94565b15801561385a57600080613857615cce565b50505b505a613864615e99565b505050505050158015611260573d6000803e3d600061125d615cce565b613889614dba565b60006003613895615d39565b906101000a900460ff166138f85760405162461bcd60e51b815260206004820152601f60248201527f53656c66204465737472756374206e6f742079657420696e69746961746564006044820152606401604051809103906138f5615cce565b50505b5a613901615fe6565b6224ea00600261390f615d39565b011061396a5760405162461bcd60e51b815260206004820152601b60248201527f53656c662064657374727563742064656c6179206e6f74206d65740000000000604482015260640160405180910390613967615cce565b50505b7f8a09e1677ced846cb537dc2b172043bd05a1a81ad7e0033a7ef8ba762df990b760016003613997615d39565b906101000a90046001600160a01b03166040516001600160a01b03909116815260200160405180910390a1565b60006005610f43615d39565b6139d8615344565b8060076001816139e6615d39565b816001600160a01b0302191690836001600160a01b0316021790613a08615f98565b505050611f82816154cf565b6000613a1e6149aa565b6001600160a01b031663a311c7c2836040516001600160e01b031960e084901b1681526001600160a01b0390911660048201526024016020604051808303818680610fa9615d94565b6224ea0081565b6000613a786149aa565b6001600160a01b031663a5fdc5de836040516001600160e01b031960e084901b1681526001600160a01b0390911660048201526024016020604051808303818680610fa9615d94565b6000613acb6149f0565b613ad3614ba9565b6001600160a01b031663086dabd16040518163ffffffff1660e01b81526004016000604051808303818680613b06615d94565b158015613b1b57600080613b18615cce565b50505b505a613b25615de0565b5050505050158015613b44573d6000803e3d6000613b41615cce565b50505b50505050613b6e6006600090613b58615d39565b906101000a90046001600160a01b031683614e7d565b506111c260006006613b7e615d39565b906101000a90046001600160a01b03168484615617565b613b9d61602c565b60005b600d80613bab615d39565b9050811015613bf357600d8181613bc0615d39565b8110613bc857fe5b90600052602060002001613bda615d39565b828260188110613be657fe5b6020020152600101613ba0565b5090565b613bff614e32565b6001600160a01b03165a613c11615f52565b6001600160a01b031614613c625760405162461bcd60e51b815260206004820152601e60248201526000805160206160a7833981519152604482015260640160405180910390613c5f615cce565b50505b60006004613c6e615d39565b906101000a90046001600160a01b03166001600160a01b031663907dff9783836040516020018083815260200182815260200192505050604051602081830303815290604052600260405180602861607f823960280190506040518091039020612d9a88615338565b613cdf614ba9565b6001600160a01b0316637c3125416040518163ffffffff1660e01b81526004016000604051808303818680613d12615d94565b158015613d2757600080613d24615cce565b50505b505a613d31615de0565b5050505050158015613d50573d6000803e3d6000613d4d615cce565b50505b50505050613d5c6149f0565b613d646149aa565b6001600160a01b031663c897713260006006613733615d39565b600060036122fa615d39565b613d92615624565b806006600181611a7d615d39565b613da8614dba565b5a613db1615fe6565b806002613dbc615f98565b5050506001600360006101000a81613dd2615d39565b8160ff02191690831515021790613de7615f98565b5050507fcbd94ca75b8dc45c9d80c77e851670e78843c0d75180cb81db3e2158228fa9a66224ea0060405190815260200160405180910390a1565b613e2a614ba9565b6001600160a01b0316637c3125416040518163ffffffff1660e01b81526004016000604051808303818680613e5d615d94565b158015613e7257600080613e6f615cce565b50505b505a613e7c615de0565b5050505050158015613e9b573d6000803e3d6000613e98615cce565b50505b50505050613ea76149f0565b613eaf6149aa565b6001600160a01b0316639a5154b48360006006613eca615d39565b906101000a90046001600160a01b0316846040516001600160e01b031960e086901b1681526001600160a01b039384166004820152919092166024820152604481019190915260640160006040518083038160008780613f28615d94565b158015613f3d57600080613f3a615cce565b50505b505a613f47615e99565b5050505050501580156137bb573d6000803e3d6000613f64615cce565b5050505050505050565b60016003610f43615d39565b600d8181613f86615d39565b8110613f8e57fe5b906000526020600020019050611b7c615d39565b60008382613fae614ba9565b6001600160a01b0316637118d4316040518163ffffffff1660e01b81526004016000604051808303818680613fe1615d94565b158015613ff657600080613ff3615cce565b50505b505a614000615de0565b505050505015801561401f573d6000803e3d600061401c615cce565b50505b5050505061402b614ba9565b6001600160a01b0316636132eba483836040516001600160e01b031960e085901b168152600481019290925260248201526044016000604051808303818680614072615d94565b15801561408757600080614084615cce565b50505b505a614091615de0565b50505050501580156140b0573d6000803e3d60006140ad615cce565b50505b505050506140bc6149f0565b6140c4614e32565b6001600160a01b0316636a1c475888600060066140df615d39565b906101000a90046001600160a01b03168989896040516001600160e01b031960e088901b1681526001600160a01b03958616600482015293909416602484015260448301919091526064820152608481019190915260a4016020604051808303816000878061414c615d94565b1580156141615760008061415e615cce565b50505b505a61416b615e99565b50505050505015801561418b573d6000803e3d6000614188615cce565b50505b505050506040513d60208110156141aa576000806141a7615cce565b50505b8101908080519a9950505050505050505050565b60006141c86149aa565b6001600160a01b031663d37c4d8b84846040516001600160e01b031960e085901b1681526001600160a01b03909216600483015260248201526044016020604051808303818680614217615d94565b15801561422c57600080614229615cce565b50505b505a614236615de0565b5050505050158015614255573d6000803e3d6000614252615cce565b50505b505050506040513d602081101561427457600080614271615cce565b50505b8101908080519695505050505050565b600061428e6149aa565b6001600160a01b0316637b1001b78360016040516001600160e01b031960e085901b1681526004810192909252151560248201526044016020604051808303818680610fa9615d94565b60006006610f43615d39565b60006142ee6149aa565b6001600160a01b031663dbf633406040518163ffffffff1660e01b81526004016020604051808303818680612673615d94565b600080600761432e615d39565b906101000a90046001600160a01b03166001600160a01b031663dd62ed3e84846040516001600160e01b031960e085901b1681526001600160a01b039283166004820152911660248201526044016020604051808303818680614217615d94565b614397614e32565b6001600160a01b03165a6143a9615f52565b6001600160a01b0316146143fa5760405162461bcd60e51b815260206004820152601e60248201526000805160206160a78339815191526044820152606401604051809103906143f7615cce565b50505b60006004614406615d39565b906101000a90046001600160a01b03166001600160a01b031663907dff978383604051602001808381526020018281526020019250505060405160208183030381529060405260026040518060296161c5823960290190506040518091039020876000806040518763ffffffff1660e01b815260040180806020018781526020018681526020018581526020018460001b81526020018360001b815260200182810382528881815181526020019150805160209091019080838360008315612e0d578082015183820152602001612df5565b601881565b60006144e7614ba9565b6001600160a01b031663086dabd16040518163ffffffff1660e01b8152600401600060405180830381868061451a615d94565b15801561452f5760008061452c615cce565b50505b505a614539615de0565b5050505050158015614558573d6000803e3d6000614555615cce565b50505b505050506145646149f0565b60008061456f6149aa565b6001600160a01b031663a63c4df486866000600661458b615d39565b906101000a90046001600160a01b03166040516001600160e01b031960e086901b1681526001600160a01b039384166004820152602481019290925290911660448201526064016040805180830381600087806145e6615d94565b1580156145fb576000806145f8615cce565b50505b505a614605615e99565b505050505050158015614625573d6000803e3d6000614622615cce565b50505b505050506040513d604081101561464457600080614641615cce565b50505b810190808051929190602001805193955092935061468592508791508490508360006006614670615d39565b906101000a90046001600160a01b03166156f1565b6146ab8560006006614695615d39565b906101000a90046001600160a01b031684615617565b95945050505050565b6146bc614ba9565b6001600160a01b0316637c3125416040518163ffffffff1660e01b815260040160006040518083038186806146ef615d94565b15801561470457600080614701615cce565b50505b505a61470e615de0565b505050505015801561472d573d6000803e3d600061472a615cce565b50505b505050506147396149f0565b6147416149aa565b6001600160a01b03166344ec6b628360006006613eca615d39565b60006007610f43615d39565b60006004610f43615d39565b60008382614780614ba9565b6001600160a01b0316637118d4316040518163ffffffff1660e01b815260040160006040518083038186806147b3615d94565b1580156147c8576000806147c5615cce565b50505b505a6147d2615de0565b50505050501580156147f1573d6000803e3d60006147ee615cce565b50505b505050506147fd614ba9565b6001600160a01b0316636132eba483836040516001600160e01b031960e085901b168152600481019290925260248201526044016000604051808303818680614844615d94565b15801561485957600080614856615cce565b50505b505a614863615de0565b5050505050158015614882573d6000803e3d600061487f615cce565b50505b5050505061488e6149f0565b614896614e32565b6001600160a01b0316630a1e187d600060066148b0615d39565b906101000a90046001600160a01b031688888860066000906148d0615d39565b906101000a90046001600160a01b03166040516001600160e01b031960e088901b1681526001600160a01b039586166004820152602481019490945260448401929092526064830152909116608482015260a40160206040518083038160008780614939615d94565b15801561494e5760008061494b615cce565b50505b505a614958615e99565b505050505050158015614978573d6000803e3d6000614975615cce565b50505b505050506040513d602081101561499757600080614994615cce565b50505b8101908080519998505050505050505050565b60006149eb6524b9b9bab2b960d11b6040516040808201905260168152754d697373696e6720497373756572206164647265737360501b6020820152615871565b905090565b600060046149fc615d39565b906101000a90046001600160a01b03166001600160a01b03165a614a1e615f52565b6001600160a01b031614158015614a6a575060006005614a3c615d39565b906101000a90046001600160a01b03166001600160a01b03165a614a5e615f52565b6001600160a01b031614155b8015614aab57505a614a7a615f52565b6001600160a01b031660006006614a8f615d39565b906101000a90046001600160a01b03166001600160a01b031614155b156137c2575a614ab9615f52565b60066001816131bd615d39565b60006004614ad2615d39565b906101000a90046001600160a01b03166001600160a01b031663907dff978260405160200180828152602001915050604051602081830303815290604052600360405180602161615a823960210190506040518091039020614b3388615338565b614b3c88615338565b60006040518763ffffffff1660e01b815260040180806020018781526020018681526020018581526020018481526020018360001b815260200182810382528881815181526020019150805160209091019080838360008315612e0d578082015183820152602001612df5565b60006149eb6b53797374656d53746174757360a01b60405160408082019052601c81527f4d697373696e672053797374656d5374617475732061646472657373000000006020820152615871565b60006149eb722932bbb0b93239a234b9ba3934b13aba34b7b760691b60405160608101604052602380825261617b6020830139615871565b60006149eb6d537570706c795363686564756c6560901b60405160408082019052601e81527f4d697373696e6720537570706c795363686564756c65206164647265737300006020820152615871565b600082821115614cde5760405162461bcd60e51b815260206004820152601e60248201527f536166654d6174683a207375627472616374696f6e206f766572666c6f770000604482015260640160405180910390614cdb615cce565b50505b50900390565b600082820183811015614d465760405162461bcd60e51b815260206004820152601b60248201527f536166654d6174683a206164646974696f6e206f766572666c6f770000000000604482015260640160405180910390614d43615cce565b50505b9392505050565b60006004614d59615d39565b906101000a90046001600160a01b03166001600160a01b031663907dff9782604051602001808281526020019150506040516020818303038152906040526003604051806021616220823960210190506040518091039020614b3388615338565b600080614dc5615d39565b906101000a90046001600160a01b03166001600160a01b03165a614de7615f52565b6001600160a01b0316146137c25760405162461bcd60e51b815260040180806020018281038252602f81526020018061612b602f913960400191505060405180910390612632615cce565b60006149eb6822bc31b430b733b2b960b91b60405160408082019052601981527f4d697373696e672045786368616e6765722061646472657373000000000000006020820152615871565b600080614e8861593a565b6001600160a01b0316638b3f8088856040516001600160e01b031960e084901b1681526001600160a01b03909116600482015260240160408051808303818680614ed0615d94565b158015614ee557600080614ee2615cce565b50505b505a614eef615de0565b5050505050158015614f0e573d6000803e3d6000614f0b615cce565b50505b505050506040513d6040811015614f2d57600080614f2a615cce565b50505b81019080805192919060200180515092935050821591506111c2905057600080614f556149aa565b6001600160a01b0316636bed04158760006007614f70615d39565b906101000a90046001600160a01b03166001600160a01b03166370a082318a6040516001600160e01b031960e084901b1681526001600160a01b0390911660048201526024016020604051808303818680614fc9615d94565b158015614fde57600080614fdb615cce565b50505b505a614fe8615de0565b5050505050158015615007573d6000803e3d6000615004615cce565b50505b505050506040513d602081101561502657600080615023615cce565b50505b81019080805192506040915050516001600160e01b031960e085901b1681526001600160a01b03909216600483015260248201526044016040805180830381868061506f615d94565b15801561508457600080615081615cce565b50505b505a61508e615de0565b50505050501580156150ad573d6000803e3d60006150aa615cce565b50505b505050506040513d60408110156150cc576000806150c9615cce565b50505b81019080805192919060200180519395509293505050508185111561512b5760405162461bcd60e51b81526004018080602001828103825260268152602001806161056026913960400191505060405180910390615128615cce565b50505b80156151865760405162461bcd60e51b815260206004820152601e60248201527f412073796e7468206f7220534e58207261746520697320696e76616c69640000604482015260640160405180910390615183615cce565b50505b50600195945050505050565b600080600761519f615d39565b6001600160a01b036101009290920a90041663da46098c858761529d86600060076151c8615d39565b906101000a90046001600160a01b03166001600160a01b031663dd62ed3e8b8d6040516001600160e01b031960e085901b1681526001600160a01b039283166004820152911660248201526044016020604051808303818680615229615d94565b15801561523e5760008061523b615cce565b50505b505a615248615de0565b5050505050158015615267573d6000803e3d6000615264615cce565b50505b505050506040513d602081101561528657600080615283615cce565b50505b8101908080519392505063ffffffff614c7f169050565b6040516001600160e01b031960e086901b1681526001600160a01b0393841660048201529190921660248201526044810191909152606401600060405180830381600087806152ea615d94565b1580156152ff576000806152fc615cce565b50505b505a615309615e99565b505050505050158015615329573d6000803e3d6000615326615cce565b50505b505050506146ab84848461598a565b6001600160a01b031690565b60006004615350615d39565b906101000a90046001600160a01b03166001600160a01b03165a615372615f52565b6001600160a01b0316141580156153be575060006005615390615d39565b906101000a90046001600160a01b03166001600160a01b03165a6153b2615f52565b6001600160a01b031614155b80156153ff57505a6153ce615f52565b6001600160a01b0316600060066153e3615d39565b906101000a90046001600160a01b03166001600160a01b031614155b15615440575a61540d615f52565b600660018161541a615d39565b816001600160a01b0302191690836001600160a01b031602179061543c615f98565b5050505b60008061544b615d39565b6001600160a01b036101009290920a90041660006006615469615d39565b906101000a90046001600160a01b03166001600160a01b0316146137c25760405162461bcd60e51b815260206004820152601360248201527227bbb732b91037b7363c90333ab731ba34b7b760691b604482015260640160405180910390612632615cce565b600060046154db615d39565b906101000a90046001600160a01b03166001600160a01b031663907dff97826040516001600160a01b0390911660208201526040908101905160208183030381529060405260016040517f546f6b656e5374617465557064617465642861646472657373290000000000008152601a01604051809103902060008060006040518763ffffffff1660e01b815260040180806020018781526020018681526020018560001b81526020018460001b81526020018360001b8152602001828103825288818151815260200191508051906020019080838360005b838110156155cb5780820151838201526020016155b3565b50505050905090810190601f1680156155f85780820380516001836020036101000a031916815260200191505b5097505050505050505060006040518083038160008780611f3e615d94565b6000611e3d84848461598a565b60006004615630615d39565b906101000a90046001600160a01b03166001600160a01b03165a615652615f52565b6001600160a01b0316148061569b57506000600561566e615d39565b906101000a90046001600160a01b03166001600160a01b03165a615690615f52565b6001600160a01b0316145b6137c25760405162461bcd60e51b815260206004820152601760248201527f4f6e6c79207468652070726f78792063616e2063616c6c000000000000000000604482015260640160405180910390612632615cce565b600060046156fd615d39565b906101000a90046001600160a01b03166001600160a01b031663907dff9784848460405160208101939093526040808401929092526001600160a01b031660608301526080909101905160208183030381529060405260026040518060326161ee82396032019050604051809103902061577689615338565b6000806040518763ffffffff1660e01b815260040180806020018781526020018681526020018581526020018460001b81526020018360001b8152602001828103825288818151815260200191508051906020019080838360005b838110156157e95780820151838201526020016157d1565b50505050905090810190601f1680156158165780820380516001836020036101000a031916815260200191505b5097505050505050505060006040518083038160008780615835615d94565b15801561584a57600080615847615cce565b50505b505a615854615e99565b505050505050158015613f64573d6000803e3d6000612cae615cce565b6000828152600c602052806040812060009061588b615d39565b6001600160a01b036101009290920a900416905082816159325760405162461bcd60e51b81526004018080602001828103825283818151815260200191508051906020019080838360005b838110156158ee5780820151838201526020016158d6565b50505050905090810190601f16801561591b5780820380516001836020036101000a031916815260200191505b50925050506040518091039061592f615cce565b50505b509392505050565b60006149eb6d53796e746865746978537461746560901b60405160408082019052601e81527f4d697373696e672053796e7468657469785374617465206164647265737300006020820152615871565b60006001600160a01b03831615801590615a0e57505a63996d79a5598160e01b8152602081600483336000905af158600e01573d6000803e3d6000fd5b3d6001141558600a015760016000f35b8051925060005b60408110156159f5576000828201526020016159de565b5050506001600160a01b0316836001600160a01b031614155b8015615a47575060006004615a21615d39565b906101000a90046001600160a01b03166001600160a01b0316836001600160a01b031614155b615aa05760405162461bcd60e51b815260206004820152601f60248201527f43616e6e6f74207472616e7366657220746f2074686973206164647265737300604482015260640160405180910390615a9d615cce565b50505b60006007615aac615d39565b6001600160a01b036101009290920a90041663b46310f685615b2d8560006007615ad4615d39565b906101000a90046001600160a01b03166001600160a01b03166370a082318a6040516001600160e01b031960e084901b1681526001600160a01b0390911660048201526024016020604051808303818680615229615d94565b6040516001600160e01b031960e085901b1681526001600160a01b039092166004830152602482015260440160006040518083038160008780615b6e615d94565b158015615b8357600080615b80615cce565b50505b505a615b8d615e99565b505050505050158015615bad573d6000803e3d6000615baa615cce565b50505b505050506007600090615bbe615d39565b6001600160a01b036101009290920a90041663b46310f684615c3f8560006007615be6615d39565b906101000a90046001600160a01b03166001600160a01b03166370a08231896040516001600160e01b031960e084901b1681526001600160a01b0390911660048201526024016020604051808303818680611696615d94565b6040516001600160e01b031960e085901b1681526001600160a01b039092166004830152602482015260440160006040518083038160008780615c80615d94565b158015615c9557600080615c92615cce565b50505b505a615c9f615e99565b505050505050158015615cbf573d6000803e3d6000615cbc615cce565b50505b505050506111c2848484614d4d565b632a2a7adb598160e01b8152600481016020815285602082015260005b86811015615d06578086015182820160400152602001615ceb565b506020828760640184336000905af158600e01573d6000803e3d6000fd5b3d6001141558600a015760016000f35b505050565b6303daa959598160e01b8152836004820152602081602483336000905af158600e01573d6000803e3d6000fd5b3d6001141558600a015760016000f35b8051935060005b60408110156131df57600082820152602001615d7d565b638435035b598160e01b8152836004820152602081602483336000905af158600e01573d6000803e3d6000fd5b3d6001141558600a015760016000f35b80516000825293506020615d7d565b638540661f598160e01b8152836004820152846024820152606060448201528660648201526084810160005b88811015615e24578088015182820152602001615e0c565b50876101040182016060838a6101040185336000905af158600e01573d6000803e3d6000fd5b3d6001141558600a015760016000f35b825160408401513d6000863e8c8c82606088013350600060045af15059855b81811015615e8d5760008152602001615e79565b50919c50505050505050565b6385979f76598160e01b8152836004820152846024820152606060448201528760648201526084810160005b89811015615edd578089015182820152602001615ec5565b50886101040182016060838b6101040185336000905af158600e01573d6000803e3d6000fd5b3d6001141558600a015760016000f35b825160408401513d6000863e8d8d82606088013350600060045af15059855b81811015615f465760008152602001615f32565b50919d50505050505050565b6373509064598160e01b8152602081600483336000905af158600e01573d6000803e3d6000fd5b3d6001141558600a015760016000f35b80516000825293506020615d7d565b6322bd64c0598160e01b8152836004820152846024820152600081604483336000905af158600e01573d6000803e3d6000fd5b3d6001141558600a015760016000f35b600081526020615d7d565b63bdbf8c36598160e01b8152602081600483336000905af158600e01573d6000803e3d6000fd5b3d6001141558600a015760016000f35b80516000825293506020615d7d565b60405161030080820160405260189082908038833950919291505056fe596f75206d757374206265206e6f6d696e61746564206265666f726520796f752063616e20616363657074206f776e65727368697045786368616e67655265636c61696d28616464726573732c627974657333322c75696e74323536294f6e6c792045786368616e6765722063616e20696e766f6b652074686973000053796e746845786368616e676528616464726573732c627974657333322c75696e743235362c627974657333322c75696e743235362c616464726573732943616e6e6f74207472616e73666572207374616b6564206f7220657363726f77656420534e584f6e6c792074686520636f6e7472616374206f776e6572206d617920706572666f726d207468697320616374696f6e417070726f76616c28616464726573732c616464726573732c75696e74323536294d697373696e672052657761726473446973747269627574696f6e206164647265737345786368616e676552656261746528616464726573732c627974657333322c75696e743235362945786368616e6765547261636b696e6728627974657333322c627974657333322c75696e74323536294163636f756e744c69717569646174656428616464726573732c75696e743235362c75696e743235362c61646472657373295472616e7366657228616464726573732c616464726573732c75696e7432353629",
			"opcodes": "PUSH1 0x80 PUSH1 0x40 MSTORE PUSH1 0x40 MLOAD PUSH1 0xC0 DUP2 ADD PUSH1 0x40 SWAP1 DUP2 MSTORE PUSH12 0x53797374656D537461747573 PUSH1 0xA0 SHL DUP3 MSTORE PUSH9 0x22BC31B430B733B2B9 PUSH1 0xB9 SHL PUSH1 0x20 DUP4 ADD MSTORE PUSH6 0x24B9B9BAB2B9 PUSH1 0xD1 SHL SWAP1 DUP3 ADD MSTORE PUSH14 0x537570706C795363686564756C65 PUSH1 0x90 SHL PUSH1 0x60 DUP3 ADD MSTORE PUSH32 0x52657761726473446973747269627574696F6E00000000000000000000000000 PUSH1 0x80 DUP3 ADD MSTORE PUSH14 0x53796E7468657469785374617465 PUSH1 0x90 SHL PUSH1 0xA0 DUP3 ADD MSTORE PUSH3 0xA6 SWAP1 PUSH1 0xE SWAP1 PUSH1 0x6 PUSH3 0x6AF JUMP JUMPDEST POP CALLVALUE DUP1 ISZERO PUSH3 0xBF JUMPI PUSH1 0x0 DUP1 PUSH3 0xBC PUSH3 0x6FD JUMP JUMPDEST POP POP JUMPDEST POP PUSH1 0x40 MLOAD PUSH3 0x6B6E CODESIZE SUB DUP1 PUSH3 0x6B6E DUP4 CODECOPY DUP2 DUP2 ADD PUSH1 0x40 MSTORE PUSH1 0xA0 DUP2 LT ISZERO PUSH3 0xF0 JUMPI PUSH1 0x0 DUP1 PUSH3 0xED PUSH3 0x6FD JUMP JUMPDEST POP POP JUMPDEST DUP2 ADD SWAP1 DUP1 DUP1 MLOAD SWAP3 SWAP2 SWAP1 PUSH1 0x20 ADD DUP1 MLOAD SWAP3 SWAP2 SWAP1 PUSH1 0x20 ADD DUP1 MLOAD SWAP3 SWAP2 SWAP1 PUSH1 0x20 ADD DUP1 MLOAD SWAP3 SWAP2 SWAP1 PUSH1 0x20 ADD DUP1 MLOAD SWAP3 POP DUP3 SWAP2 POP PUSH1 0xE SWAP1 POP PUSH1 0x18 PUSH2 0x300 PUSH1 0x40 MLOAD SWAP1 DUP2 ADD PUSH1 0x40 MSTORE SWAP2 SWAP1 PUSH2 0x300 DUP4 ADD DUP3 DUP5 JUMPDEST DUP2 PUSH3 0x142 PUSH3 0x76A JUMP JUMPDEST DUP2 MSTORE PUSH1 0x20 ADD SWAP1 PUSH1 0x1 ADD SWAP1 DUP1 DUP4 GT PUSH3 0x137 JUMPI POP POP POP POP POP DUP7 DUP7 PUSH1 0x40 MLOAD PUSH1 0x40 DUP1 DUP3 ADD DUP2 MSTORE PUSH1 0x17 DUP3 MSTORE PUSH32 0x53796E746865746978204E6574776F726B20546F6B656E000000000000000000 PUSH1 0x20 DUP4 ADD MSTORE MLOAD PUSH1 0x40 DUP1 DUP3 ADD SWAP1 MSTORE PUSH1 0x3 DUP2 MSTORE PUSH3 0xA69CB PUSH1 0xEB SHL PUSH1 0x20 DUP3 ADD MSTORE DUP8 PUSH1 0x12 DUP11 DUP7 DUP2 PUSH1 0x1 PUSH1 0x1 PUSH1 0xA0 SHL SUB DUP2 AND PUSH3 0x213 JUMPI PUSH1 0x40 MLOAD PUSH3 0x461BCD PUSH1 0xE5 SHL DUP2 MSTORE PUSH1 0x20 PUSH1 0x4 DUP3 ADD MSTORE PUSH1 0x19 PUSH1 0x24 DUP3 ADD MSTORE PUSH32 0x4F776E657220616464726573732063616E6E6F74206265203000000000000000 PUSH1 0x44 DUP3 ADD MSTORE PUSH1 0x64 ADD PUSH1 0x40 MLOAD DUP1 SWAP2 SUB SWAP1 PUSH3 0x210 PUSH3 0x6FD JUMP JUMPDEST POP POP JUMPDEST DUP1 PUSH1 0x0 PUSH1 0x1 DUP2 PUSH3 0x223 PUSH3 0x76A JUMP JUMPDEST DUP2 PUSH1 0x1 PUSH1 0x1 PUSH1 0xA0 SHL SUB MUL NOT AND SWAP1 DUP4 PUSH1 0x1 PUSH1 0x1 PUSH1 0xA0 SHL SUB AND MUL OR SWAP1 PUSH3 0x247 PUSH3 0x7CC JUMP JUMPDEST POP POP POP PUSH32 0xB532073B38C83145E3E5135377A08BF9AAB55BC0FD7C1179CD4FB995D2A5159C PUSH1 0x0 DUP3 PUSH1 0x40 MLOAD PUSH1 0x1 PUSH1 0x1 PUSH1 0xA0 SHL SUB SWAP3 DUP4 AND DUP2 MSTORE SWAP2 AND PUSH1 0x20 DUP3 ADD MSTORE PUSH1 0x40 SWAP1 DUP2 ADD SWAP1 MLOAD DUP1 SWAP2 SUB SWAP1 LOG1 POP PUSH1 0x0 DUP1 DUP1 PUSH3 0x2A0 PUSH3 0x76A JUMP JUMPDEST SWAP1 PUSH2 0x100 EXP SWAP1 DIV PUSH1 0x1 PUSH1 0x1 PUSH1 0xA0 SHL SUB AND PUSH1 0x1 PUSH1 0x1 PUSH1 0xA0 SHL SUB AND EQ ISZERO PUSH3 0x30B JUMPI PUSH1 0x40 MLOAD PUSH3 0x461BCD PUSH1 0xE5 SHL DUP2 MSTORE PUSH1 0x20 PUSH1 0x4 DUP3 ADD MSTORE PUSH1 0x11 PUSH1 0x24 DUP3 ADD MSTORE PUSH17 0x13DDDB995C881B5D5CDD081899481CD95D PUSH1 0x7A SHL PUSH1 0x44 DUP3 ADD MSTORE PUSH1 0x64 ADD PUSH1 0x40 MLOAD DUP1 SWAP2 SUB SWAP1 PUSH3 0x308 PUSH3 0x6FD JUMP JUMPDEST POP POP JUMPDEST PUSH1 0x0 DUP1 PUSH3 0x318 PUSH3 0x76A JUMP JUMPDEST SWAP1 PUSH2 0x100 EXP SWAP1 DIV PUSH1 0x1 PUSH1 0x1 PUSH1 0xA0 SHL SUB AND PUSH1 0x3 PUSH1 0x1 PUSH2 0x100 EXP DUP2 PUSH3 0x33B PUSH3 0x76A JUMP JUMPDEST DUP2 PUSH1 0x1 PUSH1 0x1 PUSH1 0xA0 SHL SUB MUL NOT AND SWAP1 DUP4 PUSH1 0x1 PUSH1 0x1 PUSH1 0xA0 SHL SUB AND MUL OR SWAP1 PUSH3 0x35F PUSH3 0x7CC JUMP JUMPDEST POP POP POP PUSH32 0xD5DA63A0B864B315BC04128DEDBC93888C8529EE6CF47CE664DC204339228C53 PUSH1 0x0 DUP1 SWAP1 PUSH3 0x391 PUSH3 0x76A JUMP JUMPDEST SWAP1 PUSH2 0x100 EXP SWAP1 DIV PUSH1 0x1 PUSH1 0x1 PUSH1 0xA0 SHL SUB AND PUSH1 0x40 MLOAD PUSH1 0x1 PUSH1 0x1 PUSH1 0xA0 SHL SUB SWAP1 SWAP2 AND DUP2 MSTORE PUSH1 0x20 ADD PUSH1 0x40 MLOAD DUP1 SWAP2 SUB SWAP1 LOG1 PUSH1 0x0 DUP1 DUP1 PUSH3 0x3CA PUSH3 0x76A JUMP JUMPDEST SWAP1 PUSH2 0x100 EXP SWAP1 DIV PUSH1 0x1 PUSH1 0x1 PUSH1 0xA0 SHL SUB AND PUSH1 0x1 PUSH1 0x1 PUSH1 0xA0 SHL SUB AND EQ ISZERO PUSH3 0x435 JUMPI PUSH1 0x40 MLOAD PUSH3 0x461BCD PUSH1 0xE5 SHL DUP2 MSTORE PUSH1 0x20 PUSH1 0x4 DUP3 ADD MSTORE PUSH1 0x11 PUSH1 0x24 DUP3 ADD MSTORE PUSH17 0x13DDDB995C881B5D5CDD081899481CD95D PUSH1 0x7A SHL PUSH1 0x44 DUP3 ADD MSTORE PUSH1 0x64 ADD PUSH1 0x40 MLOAD DUP1 SWAP2 SUB SWAP1 PUSH3 0x432 PUSH3 0x6FD JUMP JUMPDEST POP POP JUMPDEST DUP1 PUSH1 0x4 PUSH1 0x1 DUP2 PUSH3 0x445 PUSH3 0x76A JUMP JUMPDEST DUP2 PUSH1 0x1 PUSH1 0x1 PUSH1 0xA0 SHL SUB MUL NOT AND SWAP1 DUP4 PUSH1 0x1 PUSH1 0x1 PUSH1 0xA0 SHL SUB AND MUL OR SWAP1 PUSH3 0x469 PUSH3 0x7CC JUMP JUMPDEST POP POP POP PUSH32 0xFC80377CA9C49CC11AE6982F390A42DB976D5530AF7C43889264B13FBBD7C57E DUP2 PUSH1 0x40 MLOAD PUSH1 0x1 PUSH1 0x1 PUSH1 0xA0 SHL SUB SWAP1 SWAP2 AND DUP2 MSTORE PUSH1 0x20 ADD PUSH1 0x40 MLOAD DUP1 SWAP2 SUB SWAP1 LOG1 POP DUP6 PUSH1 0x7 PUSH1 0x1 DUP2 PUSH3 0x4BA PUSH3 0x76A JUMP JUMPDEST DUP2 PUSH1 0x1 PUSH1 0x1 PUSH1 0xA0 SHL SUB MUL NOT AND SWAP1 DUP4 PUSH1 0x1 PUSH1 0x1 PUSH1 0xA0 SHL SUB AND MUL OR SWAP1 PUSH3 0x4DE PUSH3 0x7CC JUMP JUMPDEST POP POP POP DUP5 PUSH1 0x8 SWAP1 DUP1 MLOAD PUSH3 0x4F7 SWAP3 SWAP2 PUSH1 0x20 ADD SWAP1 PUSH3 0x81B JUMP JUMPDEST POP PUSH1 0x9 DUP5 DUP1 MLOAD PUSH3 0x50D SWAP3 SWAP2 PUSH1 0x20 ADD SWAP1 PUSH3 0x81B JUMP JUMPDEST POP DUP3 DUP1 PUSH1 0xA PUSH3 0x51C PUSH3 0x7CC JUMP JUMPDEST POP POP POP DUP2 PUSH1 0xB PUSH1 0x0 PUSH2 0x100 EXP DUP2 PUSH3 0x533 PUSH3 0x76A JUMP JUMPDEST DUP2 PUSH1 0xFF MUL NOT AND SWAP1 DUP4 PUSH1 0xFF AND MUL OR SWAP1 PUSH3 0x54B PUSH3 0x7CC JUMP JUMPDEST POP POP POP POP POP POP POP POP POP POP PUSH1 0x0 PUSH1 0x1 PUSH1 0x1 PUSH1 0xA0 SHL SUB AND PUSH1 0x0 DUP1 SWAP1 PUSH3 0x56E PUSH3 0x76A JUMP JUMPDEST SWAP1 PUSH2 0x100 EXP SWAP1 DIV PUSH1 0x1 PUSH1 0x1 PUSH1 0xA0 SHL SUB AND PUSH1 0x1 PUSH1 0x1 PUSH1 0xA0 SHL SUB AND EQ ISZERO PUSH3 0x5D9 JUMPI PUSH1 0x40 MLOAD PUSH3 0x461BCD PUSH1 0xE5 SHL DUP2 MSTORE PUSH1 0x20 PUSH1 0x4 DUP3 ADD MSTORE PUSH1 0x11 PUSH1 0x24 DUP3 ADD MSTORE PUSH17 0x13DDDB995C881B5D5CDD081899481CD95D PUSH1 0x7A SHL PUSH1 0x44 DUP3 ADD MSTORE PUSH1 0x64 ADD PUSH1 0x40 MLOAD DUP1 SWAP2 SUB SWAP1 PUSH3 0x5D6 PUSH3 0x6FD JUMP JUMPDEST POP POP JUMPDEST PUSH1 0x0 JUMPDEST PUSH1 0x18 DUP2 LT ISZERO PUSH3 0x669 JUMPI PUSH1 0x0 DUP3 DUP3 PUSH1 0x18 DUP2 LT PUSH3 0x5F5 JUMPI INVALID JUMPDEST PUSH1 0x20 MUL ADD MLOAD EQ PUSH3 0x65A JUMPI PUSH1 0xD DUP3 DUP3 PUSH1 0x18 DUP2 LT PUSH3 0x60F JUMPI INVALID JUMPDEST PUSH1 0x20 MUL ADD MLOAD SWAP1 DUP1 PUSH1 0x1 DUP2 PUSH3 0x623 PUSH3 0x76A JUMP JUMPDEST ADD DUP1 DUP3 PUSH3 0x630 PUSH3 0x7CC JUMP JUMPDEST POP POP PUSH1 0x0 SWAP3 DUP4 MSTORE SWAP2 PUSH1 0x0 NOT DUP4 ADD SWAP2 POP PUSH1 0x20 SWAP1 KECCAK256 SWAP2 SWAP3 SWAP2 ADD PUSH3 0x651 PUSH3 0x7CC JUMP JUMPDEST POP POP POP PUSH3 0x660 JUMP JUMPDEST PUSH3 0x669 JUMP JUMPDEST PUSH1 0x1 ADD PUSH3 0x5DC JUMP JUMPDEST POP DUP2 PUSH1 0xB PUSH2 0x100 DUP2 PUSH3 0x67B PUSH3 0x76A JUMP JUMPDEST DUP2 PUSH1 0x1 PUSH1 0x1 PUSH1 0xA0 SHL SUB MUL NOT AND SWAP1 DUP4 PUSH1 0x1 PUSH1 0x1 PUSH1 0xA0 SHL SUB AND MUL OR SWAP1 PUSH3 0x69F PUSH3 0x7CC JUMP JUMPDEST POP POP POP POP POP POP POP POP POP POP PUSH3 0x91D JUMP JUMPDEST DUP3 PUSH1 0x18 DUP2 ADD SWAP3 DUP3 ISZERO PUSH3 0x6EB JUMPI SWAP2 PUSH1 0x20 MUL DUP3 ADD JUMPDEST DUP3 DUP2 GT ISZERO PUSH3 0x6EB JUMPI DUP3 MLOAD DUP3 PUSH3 0x6D9 PUSH3 0x7CC JUMP JUMPDEST POP POP SWAP2 PUSH1 0x20 ADD SWAP2 SWAP1 PUSH1 0x1 ADD SWAP1 PUSH3 0x6C3 JUMP JUMPDEST POP PUSH3 0x6F9 SWAP3 SWAP2 POP PUSH3 0x8C6 JUMP JUMPDEST POP SWAP1 JUMP JUMPDEST PUSH4 0x2A2A7ADB MSIZE DUP2 PUSH1 0xE0 SHL DUP2 MSTORE PUSH1 0x4 DUP2 ADD PUSH1 0x20 DUP2 MSTORE DUP6 PUSH1 0x20 DUP3 ADD MSTORE PUSH1 0x0 JUMPDEST DUP7 DUP2 LT ISZERO PUSH3 0x737 JUMPI DUP1 DUP7 ADD MLOAD DUP3 DUP3 ADD PUSH1 0x40 ADD MSTORE PUSH1 0x20 ADD PUSH3 0x71A JUMP JUMPDEST POP PUSH1 0x20 DUP3 DUP8 PUSH1 0x64 ADD DUP5 CALLER PUSH1 0x0 SWAP1 GAS CALL PC PUSH1 0xE ADD JUMPI RETURNDATASIZE PUSH1 0x0 DUP1 RETURNDATACOPY RETURNDATASIZE PUSH1 0x0 REVERT JUMPDEST RETURNDATASIZE PUSH1 0x1 EQ ISZERO PC PUSH1 0xA ADD JUMPI PUSH1 0x1 PUSH1 0x0 RETURN JUMPDEST POP POP POP JUMP JUMPDEST PUSH4 0x3DAA959 MSIZE DUP2 PUSH1 0xE0 SHL DUP2 MSTORE DUP4 PUSH1 0x4 DUP3 ADD MSTORE PUSH1 0x20 DUP2 PUSH1 0x24 DUP4 CALLER PUSH1 0x0 SWAP1 GAS CALL PC PUSH1 0xE ADD JUMPI RETURNDATASIZE PUSH1 0x0 DUP1 RETURNDATACOPY RETURNDATASIZE PUSH1 0x0 REVERT JUMPDEST RETURNDATASIZE PUSH1 0x1 EQ ISZERO PC PUSH1 0xA ADD JUMPI PUSH1 0x1 PUSH1 0x0 RETURN JUMPDEST DUP1 MLOAD SWAP4 POP PUSH1 0x0 JUMPDEST PUSH1 0x40 DUP2 LT ISZERO PUSH3 0x7C7 JUMPI PUSH1 0x0 DUP3 DUP3 ADD MSTORE PUSH1 0x20 ADD PUSH3 0x7AE JUMP JUMPDEST POP POP POP JUMP JUMPDEST PUSH4 0x22BD64C0 MSIZE DUP2 PUSH1 0xE0 SHL DUP2 MSTORE DUP4 PUSH1 0x4 DUP3 ADD MSTORE DUP5 PUSH1 0x24 DUP3 ADD MSTORE PUSH1 0x0 DUP2 PUSH1 0x44 DUP4 CALLER PUSH1 0x0 SWAP1 GAS CALL PC PUSH1 0xE ADD JUMPI RETURNDATASIZE PUSH1 0x0 DUP1 RETURNDATACOPY RETURNDATASIZE PUSH1 0x0 REVERT JUMPDEST RETURNDATASIZE PUSH1 0x1 EQ ISZERO PC PUSH1 0xA ADD JUMPI PUSH1 0x1 PUSH1 0x0 RETURN JUMPDEST PUSH1 0x0 DUP2 MSTORE PUSH1 0x20 PUSH3 0x7AE JUMP JUMPDEST DUP3 DUP1 PUSH3 0x827 PUSH3 0x76A JUMP JUMPDEST PUSH1 0x1 DUP2 PUSH1 0x1 AND ISZERO PUSH2 0x100 MUL SUB AND PUSH1 0x2 SWAP1 DIV SWAP1 PUSH1 0x0 MSTORE PUSH1 0x20 PUSH1 0x0 KECCAK256 SWAP1 PUSH1 0x1F ADD PUSH1 0x20 SWAP1 DIV DUP2 ADD SWAP3 DUP3 PUSH1 0x1F LT PUSH3 0x872 JUMPI DUP1 MLOAD PUSH1 0xFF NOT AND DUP4 DUP1 ADD OR DUP6 PUSH3 0x86A PUSH3 0x7CC JUMP JUMPDEST POP POP PUSH3 0x8B8 JUMP JUMPDEST DUP3 DUP1 ADD PUSH1 0x1 ADD DUP6 PUSH3 0x883 PUSH3 0x7CC JUMP JUMPDEST POP POP DUP3 ISZERO PUSH3 0x8B8 JUMPI SWAP2 DUP3 ADD JUMPDEST DUP3 DUP2 GT ISZERO PUSH3 0x8B8 JUMPI DUP3 MLOAD DUP3 PUSH3 0x8A6 PUSH3 0x7CC JUMP JUMPDEST POP POP SWAP2 PUSH1 0x20 ADD SWAP2 SWAP1 PUSH1 0x1 ADD SWAP1 PUSH3 0x890 JUMP JUMPDEST POP PUSH3 0x6F9 SWAP3 SWAP2 POP PUSH3 0x8F3 JUMP JUMPDEST PUSH3 0x8F0 SWAP2 SWAP1 JUMPDEST DUP1 DUP3 GT ISZERO PUSH3 0x6F9 JUMPI PUSH1 0x0 DUP1 DUP3 PUSH3 0x8E4 PUSH3 0x7CC JUMP JUMPDEST POP POP POP PUSH1 0x1 ADD PUSH3 0x8CD JUMP JUMPDEST SWAP1 JUMP JUMPDEST PUSH3 0x8F0 SWAP2 SWAP1 JUMPDEST DUP1 DUP3 GT ISZERO PUSH3 0x6F9 JUMPI PUSH1 0x0 DUP1 DUP3 PUSH3 0x911 PUSH3 0x7CC JUMP JUMPDEST POP POP POP PUSH1 0x1 ADD PUSH3 0x8FA JUMP JUMPDEST PUSH2 0x6241 DUP1 PUSH3 0x92D PUSH1 0x0 CODECOPY PUSH1 0x0 RETURN INVALID PUSH1 0x80 PUSH1 0x40 MSTORE CALLVALUE DUP1 ISZERO PUSH2 0x19 JUMPI PUSH1 0x0 DUP1 PUSH2 0x16 PUSH2 0x5CCE JUMP JUMPDEST POP POP JUMPDEST POP PUSH1 0x4 CALLDATASIZE LT PUSH2 0x452 JUMPI PUSH1 0x0 CALLDATALOAD PUSH1 0xE0 SHR DUP1 PUSH4 0x8A290014 GT PUSH2 0x24A JUMPI DUP1 PUSH4 0xBC67F832 GT PUSH2 0x144 JUMPI DUP1 PUSH4 0xDBF63340 GT PUSH2 0xCC JUMPI DUP1 PUSH4 0xE8E09B8B GT PUSH2 0x90 JUMPI DUP1 PUSH4 0xE8E09B8B EQ PUSH2 0xEC0 JUMPI DUP1 PUSH4 0xE90DD9E2 EQ PUSH2 0xEF5 JUMPI DUP1 PUSH4 0xEC556889 EQ PUSH2 0xEFD JUMPI DUP1 PUSH4 0xEDEF719A EQ PUSH2 0x8B8 JUMPI DUP1 PUSH4 0xEE52A2F3 EQ PUSH2 0xF05 JUMPI PUSH2 0x452 JUMP JUMPDEST DUP1 PUSH4 0xDBF63340 EQ PUSH2 0xE12 JUMPI DUP1 PUSH4 0xDD62ED3E EQ PUSH2 0xE1A JUMPI DUP1 PUSH4 0xDDD03A3F EQ PUSH2 0xE51 JUMPI DUP1 PUSH4 0xE3235C91 EQ PUSH2 0xE83 JUMPI DUP1 PUSH4 0xE6203ED1 EQ PUSH2 0xE8B JUMPI PUSH2 0x452 JUMP JUMPDEST DUP1 PUSH4 0xC6C9D828 GT PUSH2 0x113 JUMPI DUP1 PUSH4 0xC6C9D828 EQ PUSH2 0xD48 JUMPI DUP1 PUSH4 0xC836FA0A EQ PUSH2 0xD6E JUMPI DUP1 PUSH4 0xD37C4D8B EQ PUSH2 0xDAF JUMPI DUP1 PUSH4 0xD60888E4 EQ PUSH2 0xDE4 JUMPI DUP1 PUSH4 0xD67BDD25 EQ PUSH2 0xE0A JUMPI PUSH2 0x452 JUMP JUMPDEST DUP1 PUSH4 0xBC67F832 EQ PUSH2 0xCD4 JUMPI DUP1 PUSH4 0xBD32AA44 EQ PUSH2 0xD03 JUMPI DUP1 PUSH4 0xC2BF3880 EQ PUSH2 0xD0B JUMPI DUP1 PUSH4 0xC58AAAE6 EQ PUSH2 0xD40 JUMPI PUSH2 0x452 JUMP JUMPDEST DUP1 PUSH4 0x9CBDAEB6 GT PUSH2 0x1D2 JUMPI DUP1 PUSH4 0xA9059CBB GT PUSH2 0x196 JUMPI DUP1 PUSH4 0xA9059CBB EQ PUSH2 0xC13 JUMPI DUP1 PUSH4 0xAB49848C EQ PUSH2 0xC48 JUMPI DUP1 PUSH4 0xACE88AFD EQ PUSH2 0xC89 JUMPI DUP1 PUSH4 0xAF086C7E EQ PUSH2 0xCC4 JUMPI DUP1 PUSH4 0xB8225DEC EQ PUSH2 0xCCC JUMPI PUSH2 0x452 JUMP JUMPDEST DUP1 PUSH4 0x9CBDAEB6 EQ PUSH2 0xB76 JUMPI DUP1 PUSH4 0x9F769807 EQ PUSH2 0xB7E JUMPI DUP1 PUSH4 0xA311C7C2 EQ PUSH2 0xBAD JUMPI DUP1 PUSH4 0xA461FC82 EQ PUSH2 0xBDC JUMPI DUP1 PUSH4 0xA5FDC5DE EQ PUSH2 0xBE4 JUMPI PUSH2 0x452 JUMP JUMPDEST DUP1 PUSH4 0x95D89B41 GT PUSH2 0x219 JUMPI DUP1 PUSH4 0x95D89B41 EQ PUSH2 0xB09 JUMPI DUP1 PUSH4 0x97107D6D EQ PUSH2 0xB11 JUMPI DUP1 PUSH4 0x9741FB22 EQ PUSH2 0xB40 JUMPI DUP1 PUSH4 0x987757DD EQ PUSH2 0xB48 JUMPI DUP1 PUSH4 0x9CB8A26A EQ PUSH2 0xB6E JUMPI PUSH2 0x452 JUMP JUMPDEST DUP1 PUSH4 0x8A290014 EQ PUSH2 0xA84 JUMPI DUP1 PUSH4 0x8DA5CB5B EQ PUSH2 0xAAA JUMPI DUP1 PUSH4 0x91E56B68 EQ PUSH2 0xAB2 JUMPI DUP1 PUSH4 0x9324CAC7 EQ PUSH2 0xB01 JUMPI PUSH2 0x452 JUMP JUMPDEST DUP1 PUSH4 0x2E0F2625 GT PUSH2 0x35B JUMPI DUP1 PUSH4 0x631E1444 GT PUSH2 0x2E3 JUMPI DUP1 PUSH4 0x70A08231 GT PUSH2 0x2A7 JUMPI DUP1 PUSH4 0x70A08231 EQ PUSH2 0x9A6 JUMPI DUP1 PUSH4 0x72CB051F EQ PUSH2 0x9D5 JUMPI DUP1 PUSH4 0x79BA5097 EQ PUSH2 0xA30 JUMPI DUP1 PUSH4 0x835E119C EQ PUSH2 0xA38 JUMPI DUP1 PUSH4 0x83D625D4 EQ PUSH2 0xA5E JUMPI PUSH2 0x452 JUMP JUMPDEST DUP1 PUSH4 0x631E1444 EQ PUSH2 0x889 JUMPI DUP1 PUSH4 0x666ED4F1 EQ PUSH2 0x8B8 JUMPI DUP1 PUSH4 0x6AC0BF9C EQ PUSH2 0x8ED JUMPI DUP1 PUSH4 0x6C00F310 EQ PUSH2 0x91C JUMPI DUP1 PUSH4 0x6F01A986 EQ PUSH2 0x96B JUMPI PUSH2 0x452 JUMP JUMPDEST DUP1 PUSH4 0x32608039 GT PUSH2 0x32A JUMPI DUP1 PUSH4 0x32608039 EQ PUSH2 0x81C JUMPI DUP1 PUSH4 0x3278C960 EQ PUSH2 0x842 JUMPI DUP1 PUSH4 0x3BE99E6F EQ PUSH2 0x84A JUMPI DUP1 PUSH4 0x4E99BDA9 EQ PUSH2 0x879 JUMPI DUP1 PUSH4 0x53A47BB7 EQ PUSH2 0x881 JUMPI PUSH2 0x452 JUMP JUMPDEST DUP1 PUSH4 0x2E0F2625 EQ PUSH2 0x780 JUMPI DUP1 PUSH4 0x30EAD760 EQ PUSH2 0x79E JUMPI DUP1 PUSH4 0x313CE567 EQ PUSH2 0x7E5 JUMPI DUP1 PUSH4 0x320223DB EQ PUSH2 0x7ED JUMPI PUSH2 0x452 JUMP JUMPDEST DUP1 PUSH4 0x17C70DE4 GT PUSH2 0x3DE JUMPI DUP1 PUSH4 0x20714F88 GT PUSH2 0x3AD JUMPI DUP1 PUSH4 0x20714F88 EQ PUSH2 0x6B5 JUMPI DUP1 PUSH4 0x23B872DD EQ PUSH2 0x6E4 JUMPI DUP1 PUSH4 0x295DA87D EQ PUSH2 0x723 JUMPI DUP1 PUSH4 0x2A905318 EQ PUSH2 0x749 JUMPI DUP1 PUSH4 0x2C955FA7 EQ PUSH2 0x751 JUMPI PUSH2 0x452 JUMP JUMPDEST DUP1 PUSH4 0x17C70DE4 EQ PUSH2 0x677 JUMPI DUP1 PUSH4 0x18160DDD EQ PUSH2 0x67F JUMPI DUP1 PUSH4 0x18821400 EQ PUSH2 0x687 JUMPI DUP1 PUSH4 0x1FCE304D EQ PUSH2 0x68F JUMPI PUSH2 0x452 JUMP JUMPDEST DUP1 PUSH4 0x1137AEDF GT PUSH2 0x425 JUMPI DUP1 PUSH4 0x1137AEDF EQ PUSH2 0x58D JUMPI DUP1 PUSH4 0x1249C58B EQ PUSH2 0x5E0 JUMPI DUP1 PUSH4 0x131B0AE7 EQ PUSH2 0x5E8 JUMPI DUP1 PUSH4 0x1627540C EQ PUSH2 0x619 JUMPI DUP1 PUSH4 0x16B2213F EQ PUSH2 0x648 JUMPI PUSH2 0x452 JUMP JUMPDEST DUP1 PUSH4 0x4F3BCEC EQ PUSH2 0x460 JUMPI DUP1 PUSH4 0x5B3C1C9 EQ PUSH2 0x484 JUMPI DUP1 PUSH4 0x6FDDE03 EQ PUSH2 0x4C5 JUMPI DUP1 PUSH4 0x95EA7B3 EQ PUSH2 0x544 JUMPI JUMPDEST PUSH1 0x0 DUP1 PUSH2 0x45D PUSH2 0x5CCE JUMP JUMPDEST POP POP JUMPDEST PUSH2 0x468 PUSH2 0xF37 JUMP JUMPDEST PUSH1 0x40 MLOAD PUSH1 0x1 PUSH1 0x1 PUSH1 0xA0 SHL SUB SWAP1 SWAP2 AND DUP2 MSTORE PUSH1 0x20 ADD PUSH1 0x40 MLOAD DUP1 SWAP2 SUB SWAP1 RETURN JUMPDEST PUSH2 0x4B3 PUSH1 0x4 DUP1 CALLDATASIZE SUB PUSH1 0x20 DUP2 LT ISZERO PUSH2 0x4A3 JUMPI PUSH1 0x0 DUP1 PUSH2 0x4A0 PUSH2 0x5CCE JUMP JUMPDEST POP POP JUMPDEST POP CALLDATALOAD PUSH1 0x1 PUSH1 0x1 PUSH1 0xA0 SHL SUB AND PUSH2 0xF56 JUMP JUMPDEST PUSH1 0x40 MLOAD SWAP1 DUP2 MSTORE PUSH1 0x20 ADD PUSH1 0x40 MLOAD DUP1 SWAP2 SUB SWAP1 RETURN JUMPDEST PUSH2 0x4CD PUSH2 0x1017 JUMP JUMPDEST PUSH1 0x40 MLOAD PUSH1 0x20 DUP1 DUP3 MSTORE DUP2 SWAP1 DUP2 ADD DUP4 DUP2 DUP2 MLOAD DUP2 MSTORE PUSH1 0x20 ADD SWAP2 POP DUP1 MLOAD SWAP1 PUSH1 0x20 ADD SWAP1 DUP1 DUP4 DUP4 PUSH1 0x0 JUMPDEST DUP4 DUP2 LT ISZERO PUSH2 0x509 JUMPI DUP1 DUP3 ADD MLOAD DUP4 DUP3 ADD MSTORE PUSH1 0x20 ADD PUSH2 0x4F1 JUMP JUMPDEST POP POP POP POP SWAP1 POP SWAP1 DUP2 ADD SWAP1 PUSH1 0x1F AND DUP1 ISZERO PUSH2 0x536 JUMPI DUP1 DUP3 SUB DUP1 MLOAD PUSH1 0x1 DUP4 PUSH1 0x20 SUB PUSH2 0x100 EXP SUB NOT AND DUP2 MSTORE PUSH1 0x20 ADD SWAP2 POP JUMPDEST POP SWAP3 POP POP POP PUSH1 0x40 MLOAD DUP1 SWAP2 SUB SWAP1 RETURN JUMPDEST PUSH2 0x579 PUSH1 0x4 DUP1 CALLDATASIZE SUB PUSH1 0x40 DUP2 LT ISZERO PUSH2 0x563 JUMPI PUSH1 0x0 DUP1 PUSH2 0x560 PUSH2 0x5CCE JUMP JUMPDEST POP POP JUMPDEST POP PUSH1 0x1 PUSH1 0x1 PUSH1 0xA0 SHL SUB DUP2 CALLDATALOAD AND SWAP1 PUSH1 0x20 ADD CALLDATALOAD PUSH2 0x10D0 JUMP JUMPDEST PUSH1 0x40 MLOAD SWAP1 ISZERO ISZERO DUP2 MSTORE PUSH1 0x20 ADD PUSH1 0x40 MLOAD DUP1 SWAP2 SUB SWAP1 RETURN JUMPDEST PUSH2 0x5BC PUSH1 0x4 DUP1 CALLDATASIZE SUB PUSH1 0x20 DUP2 LT ISZERO PUSH2 0x5AC JUMPI PUSH1 0x0 DUP1 PUSH2 0x5A9 PUSH2 0x5CCE JUMP JUMPDEST POP POP JUMPDEST POP CALLDATALOAD PUSH1 0x1 PUSH1 0x1 PUSH1 0xA0 SHL SUB AND PUSH2 0x11CC JUMP JUMPDEST PUSH1 0x40 MLOAD DUP1 DUP5 DUP2 MSTORE PUSH1 0x20 ADD DUP4 DUP2 MSTORE PUSH1 0x20 ADD DUP3 DUP2 MSTORE PUSH1 0x20 ADD SWAP4 POP POP POP POP PUSH1 0x40 MLOAD DUP1 SWAP2 SUB SWAP1 RETURN JUMPDEST PUSH2 0x579 PUSH2 0x12A6 JUMP JUMPDEST PUSH2 0x617 PUSH1 0x4 DUP1 CALLDATASIZE SUB PUSH1 0x20 DUP2 LT ISZERO PUSH2 0x607 JUMPI PUSH1 0x0 DUP1 PUSH2 0x604 PUSH2 0x5CCE JUMP JUMPDEST POP POP JUMPDEST POP CALLDATALOAD PUSH1 0x1 PUSH1 0x1 PUSH1 0xA0 SHL SUB AND PUSH2 0x1A67 JUMP JUMPDEST STOP JUMPDEST PUSH2 0x617 PUSH1 0x4 DUP1 CALLDATASIZE SUB PUSH1 0x20 DUP2 LT ISZERO PUSH2 0x638 JUMPI PUSH1 0x0 DUP1 PUSH2 0x635 PUSH2 0x5CCE JUMP JUMPDEST POP POP JUMPDEST POP CALLDATALOAD PUSH1 0x1 PUSH1 0x1 PUSH1 0xA0 SHL SUB AND PUSH2 0x1AA5 JUMP JUMPDEST PUSH2 0x4B3 PUSH1 0x4 DUP1 CALLDATASIZE SUB PUSH1 0x20 DUP2 LT ISZERO PUSH2 0x667 JUMPI PUSH1 0x0 DUP1 PUSH2 0x664 PUSH2 0x5CCE JUMP JUMPDEST POP POP JUMPDEST POP CALLDATALOAD PUSH1 0x1 PUSH1 0x1 PUSH1 0xA0 SHL SUB AND PUSH2 0x1B1F JUMP JUMPDEST PUSH2 0x4B3 PUSH2 0x1B72 JUMP JUMPDEST PUSH2 0x4B3 PUSH2 0x1B7F JUMP JUMPDEST PUSH2 0x4CD PUSH2 0x1B89 JUMP JUMPDEST PUSH2 0x579 PUSH1 0x4 DUP1 CALLDATASIZE SUB PUSH1 0x20 DUP2 LT ISZERO PUSH2 0x6AE JUMPI PUSH1 0x0 DUP1 PUSH2 0x6AB PUSH2 0x5CCE JUMP JUMPDEST POP POP JUMPDEST POP CALLDATALOAD PUSH2 0x1BC0 JUMP JUMPDEST PUSH2 0x617 PUSH1 0x4 DUP1 CALLDATASIZE SUB PUSH1 0x20 DUP2 LT ISZERO PUSH2 0x6D4 JUMPI PUSH1 0x0 DUP1 PUSH2 0x6D1 PUSH2 0x5CCE JUMP JUMPDEST POP POP JUMPDEST POP CALLDATALOAD PUSH1 0x1 PUSH1 0x1 PUSH1 0xA0 SHL SUB AND PUSH2 0x1CA5 JUMP JUMPDEST PUSH2 0x579 PUSH1 0x4 DUP1 CALLDATASIZE SUB PUSH1 0x60 DUP2 LT ISZERO PUSH2 0x703 JUMPI PUSH1 0x0 DUP1 PUSH2 0x700 PUSH2 0x5CCE JUMP JUMPDEST POP POP JUMPDEST POP PUSH1 0x1 PUSH1 0x1 PUSH1 0xA0 SHL SUB DUP2 CALLDATALOAD DUP2 AND SWAP2 PUSH1 0x20 DUP2 ADD CALLDATALOAD SWAP1 SWAP2 AND SWAP1 PUSH1 0x40 ADD CALLDATALOAD PUSH2 0x1D84 JUMP JUMPDEST PUSH2 0x617 PUSH1 0x4 DUP1 CALLDATASIZE SUB PUSH1 0x20 DUP2 LT ISZERO PUSH2 0x742 JUMPI PUSH1 0x0 DUP1 PUSH2 0x73F PUSH2 0x5CCE JUMP JUMPDEST POP POP JUMPDEST POP CALLDATALOAD PUSH2 0x1E45 JUMP JUMPDEST PUSH2 0x4CD PUSH2 0x1F85 JUMP JUMPDEST PUSH2 0x617 PUSH1 0x4 DUP1 CALLDATASIZE SUB PUSH1 0x20 DUP2 LT ISZERO PUSH2 0x770 JUMPI PUSH1 0x0 DUP1 PUSH2 0x76D PUSH2 0x5CCE JUMP JUMPDEST POP POP JUMPDEST POP CALLDATALOAD PUSH1 0x1 PUSH1 0x1 PUSH1 0xA0 SHL SUB AND PUSH2 0x1FA2 JUMP JUMPDEST PUSH2 0x788 PUSH2 0x209D JUMP JUMPDEST PUSH1 0x40 MLOAD PUSH1 0xFF SWAP1 SWAP2 AND DUP2 MSTORE PUSH1 0x20 ADD PUSH1 0x40 MLOAD DUP1 SWAP2 SUB SWAP1 RETURN JUMPDEST PUSH2 0x4B3 PUSH1 0x4 DUP1 CALLDATASIZE SUB PUSH1 0xA0 DUP2 LT ISZERO PUSH2 0x7BD JUMPI PUSH1 0x0 DUP1 PUSH2 0x7BA PUSH2 0x5CCE JUMP JUMPDEST POP POP JUMPDEST POP DUP1 CALLDATALOAD SWAP1 PUSH1 0x20 DUP2 ADD CALLDATALOAD SWAP1 PUSH1 0x40 DUP2 ADD CALLDATALOAD SWAP1 PUSH1 0x1 PUSH1 0x1 PUSH1 0xA0 SHL SUB PUSH1 0x60 DUP3 ADD CALLDATALOAD AND SWAP1 PUSH1 0x80 ADD CALLDATALOAD PUSH2 0x20A2 JUMP JUMPDEST PUSH2 0x788 PUSH2 0x22EE JUMP JUMPDEST PUSH2 0x617 PUSH1 0x4 DUP1 CALLDATASIZE SUB PUSH1 0x20 DUP2 LT ISZERO PUSH2 0x80C JUMPI PUSH1 0x0 DUP1 PUSH2 0x809 PUSH2 0x5CCE JUMP JUMPDEST POP POP JUMPDEST POP CALLDATALOAD PUSH1 0x1 PUSH1 0x1 PUSH1 0xA0 SHL SUB AND PUSH2 0x2307 JUMP JUMPDEST PUSH2 0x468 PUSH1 0x4 DUP1 CALLDATASIZE SUB PUSH1 0x20 DUP2 LT ISZERO PUSH2 0x83B JUMPI PUSH1 0x0 DUP1 PUSH2 0x838 PUSH2 0x5CCE JUMP JUMPDEST POP POP JUMPDEST POP CALLDATALOAD PUSH2 0x23AF JUMP JUMPDEST PUSH2 0x617 PUSH2 0x23FA JUMP JUMPDEST PUSH2 0x617 PUSH1 0x4 DUP1 CALLDATASIZE SUB PUSH1 0x20 DUP2 LT ISZERO PUSH2 0x869 JUMPI PUSH1 0x0 DUP1 PUSH2 0x866 PUSH2 0x5CCE JUMP JUMPDEST POP POP JUMPDEST POP CALLDATALOAD PUSH1 0x1 PUSH1 0x1 PUSH1 0xA0 SHL SUB AND PUSH2 0x246B JUMP JUMPDEST PUSH2 0x579 PUSH2 0x2636 JUMP JUMPDEST PUSH2 0x468 PUSH2 0x26DE JUMP JUMPDEST PUSH2 0x579 PUSH1 0x4 DUP1 CALLDATASIZE SUB PUSH1 0x20 DUP2 LT ISZERO PUSH2 0x8A8 JUMPI PUSH1 0x0 DUP1 PUSH2 0x8A5 PUSH2 0x5CCE JUMP JUMPDEST POP POP JUMPDEST POP CALLDATALOAD PUSH1 0x1 PUSH1 0x1 PUSH1 0xA0 SHL SUB AND PUSH2 0x26EA JUMP JUMPDEST PUSH2 0x617 PUSH1 0x4 DUP1 CALLDATASIZE SUB PUSH1 0x40 DUP2 LT ISZERO PUSH2 0x8D7 JUMPI PUSH1 0x0 DUP1 PUSH2 0x8D4 PUSH2 0x5CCE JUMP JUMPDEST POP POP JUMPDEST POP PUSH1 0x1 PUSH1 0x1 PUSH1 0xA0 SHL SUB DUP2 CALLDATALOAD AND SWAP1 PUSH1 0x20 ADD CALLDATALOAD PUSH2 0x28C5 JUMP JUMPDEST PUSH2 0x4B3 PUSH1 0x4 DUP1 CALLDATASIZE SUB PUSH1 0x20 DUP2 LT ISZERO PUSH2 0x90C JUMPI PUSH1 0x0 DUP1 PUSH2 0x909 PUSH2 0x5CCE JUMP JUMPDEST POP POP JUMPDEST POP CALLDATALOAD PUSH1 0x1 PUSH1 0x1 PUSH1 0xA0 SHL SUB AND PUSH2 0x2917 JUMP JUMPDEST PUSH2 0x617 PUSH1 0x4 DUP1 CALLDATASIZE SUB PUSH1 0xC0 DUP2 LT ISZERO PUSH2 0x93B JUMPI PUSH1 0x0 DUP1 PUSH2 0x938 PUSH2 0x5CCE JUMP JUMPDEST POP POP JUMPDEST POP PUSH1 0x1 PUSH1 0x1 PUSH1 0xA0 SHL SUB DUP2 CALLDATALOAD DUP2 AND SWAP2 PUSH1 0x20 DUP2 ADD CALLDATALOAD SWAP2 PUSH1 0x40 DUP3 ADD CALLDATALOAD SWAP2 PUSH1 0x60 DUP2 ADD CALLDATALOAD SWAP2 PUSH1 0x80 DUP3 ADD CALLDATALOAD SWAP2 PUSH1 0xA0 ADD CALLDATALOAD AND PUSH2 0x2AB1 JUMP JUMPDEST PUSH2 0x617 PUSH1 0x4 DUP1 CALLDATASIZE SUB PUSH1 0x60 DUP2 LT ISZERO PUSH2 0x98A JUMPI PUSH1 0x0 DUP1 PUSH2 0x987 PUSH2 0x5CCE JUMP JUMPDEST POP POP JUMPDEST POP PUSH1 0x1 PUSH1 0x1 PUSH1 0xA0 SHL SUB DUP2 CALLDATALOAD AND SWAP1 PUSH1 0x20 DUP2 ADD CALLDATALOAD SWAP1 PUSH1 0x40 ADD CALLDATALOAD PUSH2 0x2CBA JUMP JUMPDEST PUSH2 0x4B3 PUSH1 0x4 DUP1 CALLDATASIZE SUB PUSH1 0x20 DUP2 LT ISZERO PUSH2 0x9C5 JUMPI PUSH1 0x0 DUP1 PUSH2 0x9C2 PUSH2 0x5CCE JUMP JUMPDEST POP POP JUMPDEST POP CALLDATALOAD PUSH1 0x1 PUSH1 0x1 PUSH1 0xA0 SHL SUB AND PUSH2 0x2EA0 JUMP JUMPDEST PUSH2 0x9DD PUSH2 0x2F06 JUMP JUMPDEST PUSH1 0x40 MLOAD PUSH1 0x20 DUP1 DUP3 MSTORE DUP2 SWAP1 DUP2 ADD DUP4 DUP2 DUP2 MLOAD DUP2 MSTORE PUSH1 0x20 ADD SWAP2 POP DUP1 MLOAD SWAP1 PUSH1 0x20 ADD SWAP1 PUSH1 0x20 MUL DUP1 DUP4 DUP4 PUSH1 0x0 JUMPDEST DUP4 DUP2 LT ISZERO PUSH2 0xA1C JUMPI DUP1 DUP3 ADD MLOAD DUP4 DUP3 ADD MSTORE PUSH1 0x20 ADD PUSH2 0xA04 JUMP JUMPDEST POP POP POP POP SWAP1 POP ADD SWAP3 POP POP POP PUSH1 0x40 MLOAD DUP1 SWAP2 SUB SWAP1 RETURN JUMPDEST PUSH2 0x617 PUSH2 0x3061 JUMP JUMPDEST PUSH2 0x468 PUSH1 0x4 DUP1 CALLDATASIZE SUB PUSH1 0x20 DUP2 LT ISZERO PUSH2 0xA57 JUMPI PUSH1 0x0 DUP1 PUSH2 0xA54 PUSH2 0x5CCE JUMP JUMPDEST POP POP JUMPDEST POP CALLDATALOAD PUSH2 0x31E4 JUMP JUMPDEST PUSH2 0x4B3 PUSH1 0x4 DUP1 CALLDATASIZE SUB PUSH1 0x20 DUP2 LT ISZERO PUSH2 0xA7D JUMPI PUSH1 0x0 DUP1 PUSH2 0xA7A PUSH2 0x5CCE JUMP JUMPDEST POP POP JUMPDEST POP CALLDATALOAD PUSH2 0x322F JUMP JUMPDEST PUSH2 0x617 PUSH1 0x4 DUP1 CALLDATASIZE SUB PUSH1 0x20 DUP2 LT ISZERO PUSH2 0xAA3 JUMPI PUSH1 0x0 DUP1 PUSH2 0xAA0 PUSH2 0x5CCE JUMP JUMPDEST POP POP JUMPDEST POP CALLDATALOAD PUSH2 0x3283 JUMP JUMPDEST PUSH2 0x468 PUSH2 0x332A JUMP JUMPDEST PUSH2 0x4B3 PUSH1 0x4 DUP1 CALLDATASIZE SUB PUSH1 0xC0 DUP2 LT ISZERO PUSH2 0xAD1 JUMPI PUSH1 0x0 DUP1 PUSH2 0xACE PUSH2 0x5CCE JUMP JUMPDEST POP POP JUMPDEST POP PUSH1 0x1 PUSH1 0x1 PUSH1 0xA0 SHL SUB DUP2 CALLDATALOAD DUP2 AND SWAP2 PUSH1 0x20 DUP2 ADD CALLDATALOAD SWAP2 PUSH1 0x40 DUP3 ADD CALLDATALOAD SWAP2 PUSH1 0x60 DUP2 ADD CALLDATALOAD SWAP2 PUSH1 0x80 DUP3 ADD CALLDATALOAD AND SWAP1 PUSH1 0xA0 ADD CALLDATALOAD PUSH2 0x3335 JUMP JUMPDEST PUSH2 0x4B3 PUSH2 0x3564 JUMP JUMPDEST PUSH2 0x4CD PUSH2 0x356F JUMP JUMPDEST PUSH2 0x617 PUSH1 0x4 DUP1 CALLDATASIZE SUB PUSH1 0x20 DUP2 LT ISZERO PUSH2 0xB30 JUMPI PUSH1 0x0 DUP1 PUSH2 0xB2D PUSH2 0x5CCE JUMP JUMPDEST POP POP JUMPDEST POP CALLDATALOAD PUSH1 0x1 PUSH1 0x1 PUSH1 0xA0 SHL SUB AND PUSH2 0x3611 JUMP JUMPDEST PUSH2 0x617 PUSH2 0x368C JUMP JUMPDEST PUSH2 0x5BC PUSH1 0x4 DUP1 CALLDATASIZE SUB PUSH1 0x20 DUP2 LT ISZERO PUSH2 0xB67 JUMPI PUSH1 0x0 DUP1 PUSH2 0xB64 PUSH2 0x5CCE JUMP JUMPDEST POP POP JUMPDEST POP CALLDATALOAD PUSH2 0x37C4 JUMP JUMPDEST PUSH2 0x617 PUSH2 0x3881 JUMP JUMPDEST PUSH2 0x468 PUSH2 0x39C4 JUMP JUMPDEST PUSH2 0x617 PUSH1 0x4 DUP1 CALLDATASIZE SUB PUSH1 0x20 DUP2 LT ISZERO PUSH2 0xB9D JUMPI PUSH1 0x0 DUP1 PUSH2 0xB9A PUSH2 0x5CCE JUMP JUMPDEST POP POP JUMPDEST POP CALLDATALOAD PUSH1 0x1 PUSH1 0x1 PUSH1 0xA0 SHL SUB AND PUSH2 0x39D0 JUMP JUMPDEST PUSH2 0x4B3 PUSH1 0x4 DUP1 CALLDATASIZE SUB PUSH1 0x20 DUP2 LT ISZERO PUSH2 0xBCC JUMPI PUSH1 0x0 DUP1 PUSH2 0xBC9 PUSH2 0x5CCE JUMP JUMPDEST POP POP JUMPDEST POP CALLDATALOAD PUSH1 0x1 PUSH1 0x1 PUSH1 0xA0 SHL SUB AND PUSH2 0x3A14 JUMP JUMPDEST PUSH2 0x4B3 PUSH2 0x3A67 JUMP JUMPDEST PUSH2 0x4B3 PUSH1 0x4 DUP1 CALLDATASIZE SUB PUSH1 0x20 DUP2 LT ISZERO PUSH2 0xC03 JUMPI PUSH1 0x0 DUP1 PUSH2 0xC00 PUSH2 0x5CCE JUMP JUMPDEST POP POP JUMPDEST POP CALLDATALOAD PUSH1 0x1 PUSH1 0x1 PUSH1 0xA0 SHL SUB AND PUSH2 0x3A6E JUMP JUMPDEST PUSH2 0x579 PUSH1 0x4 DUP1 CALLDATASIZE SUB PUSH1 0x40 DUP2 LT ISZERO PUSH2 0xC32 JUMPI PUSH1 0x0 DUP1 PUSH2 0xC2F PUSH2 0x5CCE JUMP JUMPDEST POP POP JUMPDEST POP PUSH1 0x1 PUSH1 0x1 PUSH1 0xA0 SHL SUB DUP2 CALLDATALOAD AND SWAP1 PUSH1 0x20 ADD CALLDATALOAD PUSH2 0x3AC1 JUMP JUMPDEST PUSH2 0xC50 PUSH2 0x3B95 JUMP JUMPDEST PUSH1 0x40 MLOAD DUP1 DUP3 PUSH2 0x300 DUP1 DUP4 DUP4 PUSH1 0x0 JUMPDEST DUP4 DUP2 LT ISZERO PUSH2 0xC76 JUMPI DUP1 DUP3 ADD MLOAD DUP4 DUP3 ADD MSTORE PUSH1 0x20 ADD PUSH2 0xC5E JUMP JUMPDEST POP POP POP POP SWAP1 POP ADD SWAP2 POP POP PUSH1 0x40 MLOAD DUP1 SWAP2 SUB SWAP1 RETURN JUMPDEST PUSH2 0x617 PUSH1 0x4 DUP1 CALLDATASIZE SUB PUSH1 0x60 DUP2 LT ISZERO PUSH2 0xCA8 JUMPI PUSH1 0x0 DUP1 PUSH2 0xCA5 PUSH2 0x5CCE JUMP JUMPDEST POP POP JUMPDEST POP PUSH1 0x1 PUSH1 0x1 PUSH1 0xA0 SHL SUB DUP2 CALLDATALOAD AND SWAP1 PUSH1 0x20 DUP2 ADD CALLDATALOAD SWAP1 PUSH1 0x40 ADD CALLDATALOAD PUSH2 0x3BF7 JUMP JUMPDEST PUSH2 0x617 PUSH2 0x3CD7 JUMP JUMPDEST PUSH2 0x579 PUSH2 0x3D7E JUMP JUMPDEST PUSH2 0x617 PUSH1 0x4 DUP1 CALLDATASIZE SUB PUSH1 0x20 DUP2 LT ISZERO PUSH2 0xCF3 JUMPI PUSH1 0x0 DUP1 PUSH2 0xCF0 PUSH2 0x5CCE JUMP JUMPDEST POP POP JUMPDEST POP CALLDATALOAD PUSH1 0x1 PUSH1 0x1 PUSH1 0xA0 SHL SUB AND PUSH2 0x3D8A JUMP JUMPDEST PUSH2 0x617 PUSH2 0x3DA0 JUMP JUMPDEST PUSH2 0x617 PUSH1 0x4 DUP1 CALLDATASIZE SUB PUSH1 0x40 DUP2 LT ISZERO PUSH2 0xD2A JUMPI PUSH1 0x0 DUP1 PUSH2 0xD27 PUSH2 0x5CCE JUMP JUMPDEST POP POP JUMPDEST POP PUSH1 0x1 PUSH1 0x1 PUSH1 0xA0 SHL SUB DUP2 CALLDATALOAD AND SWAP1 PUSH1 0x20 ADD CALLDATALOAD PUSH2 0x3E22 JUMP JUMPDEST PUSH2 0x468 PUSH2 0x3F6E JUMP JUMPDEST PUSH2 0x4B3 PUSH1 0x4 DUP1 CALLDATASIZE SUB PUSH1 0x20 DUP2 LT ISZERO PUSH2 0xD67 JUMPI PUSH1 0x0 DUP1 PUSH2 0xD64 PUSH2 0x5CCE JUMP JUMPDEST POP POP JUMPDEST POP CALLDATALOAD PUSH2 0x3F7A JUMP JUMPDEST PUSH2 0x4B3 PUSH1 0x4 DUP1 CALLDATASIZE SUB PUSH1 0x80 DUP2 LT ISZERO PUSH2 0xD8D JUMPI PUSH1 0x0 DUP1 PUSH2 0xD8A PUSH2 0x5CCE JUMP JUMPDEST POP POP JUMPDEST POP PUSH1 0x1 PUSH1 0x1 PUSH1 0xA0 SHL SUB DUP2 CALLDATALOAD AND SWAP1 PUSH1 0x20 DUP2 ADD CALLDATALOAD SWAP1 PUSH1 0x40 DUP2 ADD CALLDATALOAD SWAP1 PUSH1 0x60 ADD CALLDATALOAD PUSH2 0x3FA2 JUMP JUMPDEST PUSH2 0x4B3 PUSH1 0x4 DUP1 CALLDATASIZE SUB PUSH1 0x40 DUP2 LT ISZERO PUSH2 0xDCE JUMPI PUSH1 0x0 DUP1 PUSH2 0xDCB PUSH2 0x5CCE JUMP JUMPDEST POP POP JUMPDEST POP PUSH1 0x1 PUSH1 0x1 PUSH1 0xA0 SHL SUB DUP2 CALLDATALOAD AND SWAP1 PUSH1 0x20 ADD CALLDATALOAD PUSH2 0x41BE JUMP JUMPDEST PUSH2 0x4B3 PUSH1 0x4 DUP1 CALLDATASIZE SUB PUSH1 0x20 DUP2 LT ISZERO PUSH2 0xE03 JUMPI PUSH1 0x0 DUP1 PUSH2 0xE00 PUSH2 0x5CCE JUMP JUMPDEST POP POP JUMPDEST POP CALLDATALOAD PUSH2 0x4284 JUMP JUMPDEST PUSH2 0x468 PUSH2 0x42D8 JUMP JUMPDEST PUSH2 0x4B3 PUSH2 0x42E4 JUMP JUMPDEST PUSH2 0x4B3 PUSH1 0x4 DUP1 CALLDATASIZE SUB PUSH1 0x40 DUP2 LT ISZERO PUSH2 0xE39 JUMPI PUSH1 0x0 DUP1 PUSH2 0xE36 PUSH2 0x5CCE JUMP JUMPDEST POP POP JUMPDEST POP PUSH1 0x1 PUSH1 0x1 PUSH1 0xA0 SHL SUB DUP2 CALLDATALOAD DUP2 AND SWAP2 PUSH1 0x20 ADD CALLDATALOAD AND PUSH2 0x4321 JUMP JUMPDEST PUSH2 0x617 PUSH1 0x4 DUP1 CALLDATASIZE SUB PUSH1 0x60 DUP2 LT ISZERO PUSH2 0xE70 JUMPI PUSH1 0x0 DUP1 PUSH2 0xE6D PUSH2 0x5CCE JUMP JUMPDEST POP POP JUMPDEST POP DUP1 CALLDATALOAD SWAP1 PUSH1 0x20 DUP2 ADD CALLDATALOAD SWAP1 PUSH1 0x40 ADD CALLDATALOAD PUSH2 0x438F JUMP JUMPDEST PUSH2 0x4B3 PUSH2 0x44D8 JUMP JUMPDEST PUSH2 0x579 PUSH1 0x4 DUP1 CALLDATASIZE SUB PUSH1 0x40 DUP2 LT ISZERO PUSH2 0xEAA JUMPI PUSH1 0x0 DUP1 PUSH2 0xEA7 PUSH2 0x5CCE JUMP JUMPDEST POP POP JUMPDEST POP PUSH1 0x1 PUSH1 0x1 PUSH1 0xA0 SHL SUB DUP2 CALLDATALOAD AND SWAP1 PUSH1 0x20 ADD CALLDATALOAD PUSH2 0x44DD JUMP JUMPDEST PUSH2 0x617 PUSH1 0x4 DUP1 CALLDATASIZE SUB PUSH1 0x40 DUP2 LT ISZERO PUSH2 0xEDF JUMPI PUSH1 0x0 DUP1 PUSH2 0xEDC PUSH2 0x5CCE JUMP JUMPDEST POP POP JUMPDEST POP PUSH1 0x1 PUSH1 0x1 PUSH1 0xA0 SHL SUB DUP2 CALLDATALOAD AND SWAP1 PUSH1 0x20 ADD CALLDATALOAD PUSH2 0x46B4 JUMP JUMPDEST PUSH2 0x468 PUSH2 0x475C JUMP JUMPDEST PUSH2 0x468 PUSH2 0x4768 JUMP JUMPDEST PUSH2 0x4B3 PUSH1 0x4 DUP1 CALLDATASIZE SUB PUSH1 0x60 DUP2 LT ISZERO PUSH2 0xF24 JUMPI PUSH1 0x0 DUP1 PUSH2 0xF21 PUSH2 0x5CCE JUMP JUMPDEST POP POP JUMPDEST POP DUP1 CALLDATALOAD SWAP1 PUSH1 0x20 DUP2 ADD CALLDATALOAD SWAP1 PUSH1 0x40 ADD CALLDATALOAD PUSH2 0x4774 JUMP JUMPDEST PUSH1 0x1 PUSH1 0xB PUSH2 0xF43 PUSH2 0x5D39 JUMP JUMPDEST SWAP1 PUSH2 0x100 EXP SWAP1 DIV PUSH1 0x1 PUSH1 0x1 PUSH1 0xA0 SHL SUB AND DUP2 JUMP JUMPDEST PUSH1 0x0 PUSH2 0xF60 PUSH2 0x49AA JUMP JUMPDEST PUSH1 0x1 PUSH1 0x1 PUSH1 0xA0 SHL SUB AND PUSH4 0x5B3C1C9 DUP4 PUSH1 0x40 MLOAD PUSH1 0x1 PUSH1 0x1 PUSH1 0xE0 SHL SUB NOT PUSH1 0xE0 DUP5 SWAP1 SHL AND DUP2 MSTORE PUSH1 0x1 PUSH1 0x1 PUSH1 0xA0 SHL SUB SWAP1 SWAP2 AND PUSH1 0x4 DUP3 ADD MSTORE PUSH1 0x24 ADD PUSH1 0x20 PUSH1 0x40 MLOAD DUP1 DUP4 SUB DUP2 DUP7 DUP1 PUSH2 0xFA9 PUSH2 0x5D94 JUMP JUMPDEST ISZERO DUP1 ISZERO PUSH2 0xFBE JUMPI PUSH1 0x0 DUP1 PUSH2 0xFBB PUSH2 0x5CCE JUMP JUMPDEST POP POP JUMPDEST POP GAS PUSH2 0xFC8 PUSH2 0x5DE0 JUMP JUMPDEST POP POP POP POP POP ISZERO DUP1 ISZERO PUSH2 0xFE7 JUMPI RETURNDATASIZE PUSH1 0x0 DUP1 RETURNDATACOPY RETURNDATASIZE PUSH1 0x0 PUSH2 0xFE4 PUSH2 0x5CCE JUMP JUMPDEST POP POP JUMPDEST POP POP POP POP PUSH1 0x40 MLOAD RETURNDATASIZE PUSH1 0x20 DUP2 LT ISZERO PUSH2 0x1006 JUMPI PUSH1 0x0 DUP1 PUSH2 0x1003 PUSH2 0x5CCE JUMP JUMPDEST POP POP JUMPDEST DUP2 ADD SWAP1 DUP1 DUP1 MLOAD SWAP4 POP POP POP POP JUMPDEST SWAP2 SWAP1 POP JUMP JUMPDEST PUSH1 0x8 DUP1 PUSH2 0x1022 PUSH2 0x5D39 JUMP JUMPDEST PUSH1 0x1 DUP2 PUSH1 0x1 AND ISZERO PUSH2 0x100 MUL SUB AND PUSH1 0x2 SWAP1 DIV DUP1 PUSH1 0x1F ADD PUSH1 0x20 DUP1 SWAP2 DIV MUL PUSH1 0x20 ADD PUSH1 0x40 MLOAD SWAP1 DUP2 ADD PUSH1 0x40 MSTORE DUP2 DUP2 MSTORE SWAP2 SWAP1 PUSH1 0x20 DUP4 ADD DUP3 DUP1 PUSH2 0x105C PUSH2 0x5D39 JUMP JUMPDEST PUSH1 0x1 DUP2 PUSH1 0x1 AND ISZERO PUSH2 0x100 MUL SUB AND PUSH1 0x2 SWAP1 DIV DUP1 ISZERO PUSH2 0x10C8 JUMPI DUP1 PUSH1 0x1F LT PUSH2 0x1096 JUMPI PUSH2 0x100 DUP1 DUP4 PUSH2 0x1088 PUSH2 0x5D39 JUMP JUMPDEST DIV MUL DUP4 MSTORE SWAP2 PUSH1 0x20 ADD SWAP2 PUSH2 0x10C8 JUMP JUMPDEST DUP3 ADD SWAP2 SWAP1 PUSH1 0x0 MSTORE PUSH1 0x20 PUSH1 0x0 KECCAK256 SWAP1 JUMPDEST DUP2 PUSH2 0x10AD PUSH2 0x5D39 JUMP JUMPDEST DUP2 MSTORE SWAP1 PUSH1 0x1 ADD SWAP1 PUSH1 0x20 ADD DUP1 DUP4 GT PUSH2 0x10A4 JUMPI DUP3 SWAP1 SUB PUSH1 0x1F AND DUP3 ADD SWAP2 JUMPDEST POP POP POP POP POP DUP2 JUMP JUMPDEST PUSH1 0x0 PUSH2 0x10DA PUSH2 0x49F0 JUMP JUMPDEST PUSH1 0x0 DUP1 PUSH1 0x6 PUSH2 0x10E7 PUSH2 0x5D39 JUMP JUMPDEST SWAP1 PUSH2 0x100 EXP SWAP1 DIV PUSH1 0x1 PUSH1 0x1 PUSH1 0xA0 SHL SUB AND SWAP1 POP PUSH1 0x7 PUSH1 0x0 SWAP1 PUSH2 0x1106 PUSH2 0x5D39 JUMP JUMPDEST SWAP1 PUSH2 0x100 EXP SWAP1 DIV PUSH1 0x1 PUSH1 0x1 PUSH1 0xA0 SHL SUB AND PUSH1 0x1 PUSH1 0x1 PUSH1 0xA0 SHL SUB AND PUSH4 0xDA46098C DUP3 DUP7 DUP7 PUSH1 0x40 MLOAD PUSH1 0x1 PUSH1 0x1 PUSH1 0xE0 SHL SUB NOT PUSH1 0xE0 DUP7 SWAP1 SHL AND DUP2 MSTORE PUSH1 0x1 PUSH1 0x1 PUSH1 0xA0 SHL SUB SWAP4 DUP5 AND PUSH1 0x4 DUP3 ADD MSTORE SWAP2 SWAP1 SWAP3 AND PUSH1 0x24 DUP3 ADD MSTORE PUSH1 0x44 DUP2 ADD SWAP2 SWAP1 SWAP2 MSTORE PUSH1 0x64 ADD PUSH1 0x0 PUSH1 0x40 MLOAD DUP1 DUP4 SUB DUP2 PUSH1 0x0 DUP8 DUP1 PUSH2 0x1174 PUSH2 0x5D94 JUMP JUMPDEST ISZERO DUP1 ISZERO PUSH2 0x1189 JUMPI PUSH1 0x0 DUP1 PUSH2 0x1186 PUSH2 0x5CCE JUMP JUMPDEST POP POP JUMPDEST POP GAS PUSH2 0x1193 PUSH2 0x5E99 JUMP JUMPDEST POP POP POP POP POP POP ISZERO DUP1 ISZERO PUSH2 0x11B3 JUMPI RETURNDATASIZE PUSH1 0x0 DUP1 RETURNDATACOPY RETURNDATASIZE PUSH1 0x0 PUSH2 0x11B0 PUSH2 0x5CCE JUMP JUMPDEST POP POP JUMPDEST POP POP POP POP PUSH2 0x11C2 DUP2 DUP6 DUP6 PUSH2 0x4AC6 JUMP JUMPDEST POP PUSH1 0x1 SWAP4 SWAP3 POP POP POP JUMP JUMPDEST PUSH1 0x0 DUP1 PUSH1 0x0 PUSH2 0x11D9 PUSH2 0x49AA JUMP JUMPDEST PUSH1 0x1 PUSH1 0x1 PUSH1 0xA0 SHL SUB AND PUSH4 0x1137AEDF DUP6 PUSH1 0x40 MLOAD PUSH1 0x1 PUSH1 0x1 PUSH1 0xE0 SHL SUB NOT PUSH1 0xE0 DUP5 SWAP1 SHL AND DUP2 MSTORE PUSH1 0x1 PUSH1 0x1 PUSH1 0xA0 SHL SUB SWAP1 SWAP2 AND PUSH1 0x4 DUP3 ADD MSTORE PUSH1 0x24 ADD PUSH1 0x60 PUSH1 0x40 MLOAD DUP1 DUP4 SUB DUP2 DUP7 DUP1 PUSH2 0x1222 PUSH2 0x5D94 JUMP JUMPDEST ISZERO DUP1 ISZERO PUSH2 0x1237 JUMPI PUSH1 0x0 DUP1 PUSH2 0x1234 PUSH2 0x5CCE JUMP JUMPDEST POP POP JUMPDEST POP GAS PUSH2 0x1241 PUSH2 0x5DE0 JUMP JUMPDEST POP POP POP POP POP ISZERO DUP1 ISZERO PUSH2 0x1260 JUMPI RETURNDATASIZE PUSH1 0x0 DUP1 RETURNDATACOPY RETURNDATASIZE PUSH1 0x0 PUSH2 0x125D PUSH2 0x5CCE JUMP JUMPDEST POP POP JUMPDEST POP POP POP POP PUSH1 0x40 MLOAD RETURNDATASIZE PUSH1 0x60 DUP2 LT ISZERO PUSH2 0x127F JUMPI PUSH1 0x0 DUP1 PUSH2 0x127C PUSH2 0x5CCE JUMP JUMPDEST POP POP JUMPDEST DUP2 ADD SWAP1 DUP1 DUP1 MLOAD SWAP3 SWAP2 SWAP1 PUSH1 0x20 ADD DUP1 MLOAD SWAP3 SWAP2 SWAP1 PUSH1 0x20 ADD DUP1 MLOAD SWAP5 SWAP10 SWAP4 SWAP9 POP SWAP4 SWAP7 POP SWAP2 SWAP5 POP POP POP POP POP JUMP JUMPDEST PUSH1 0x0 PUSH2 0x12B0 PUSH2 0x4BA9 JUMP JUMPDEST PUSH1 0x1 PUSH1 0x1 PUSH1 0xA0 SHL SUB AND PUSH4 0x7C312541 PUSH1 0x40 MLOAD DUP2 PUSH4 0xFFFFFFFF AND PUSH1 0xE0 SHL DUP2 MSTORE PUSH1 0x4 ADD PUSH1 0x0 PUSH1 0x40 MLOAD DUP1 DUP4 SUB DUP2 DUP7 DUP1 PUSH2 0x12E3 PUSH2 0x5D94 JUMP JUMPDEST ISZERO DUP1 ISZERO PUSH2 0x12F8 JUMPI PUSH1 0x0 DUP1 PUSH2 0x12F5 PUSH2 0x5CCE JUMP JUMPDEST POP POP JUMPDEST POP GAS PUSH2 0x1302 PUSH2 0x5DE0 JUMP JUMPDEST POP POP POP POP POP ISZERO DUP1 ISZERO PUSH2 0x1321 JUMPI RETURNDATASIZE PUSH1 0x0 DUP1 RETURNDATACOPY RETURNDATASIZE PUSH1 0x0 PUSH2 0x131E PUSH2 0x5CCE JUMP JUMPDEST POP POP JUMPDEST POP POP POP POP PUSH1 0x0 PUSH1 0x1 PUSH1 0x1 PUSH1 0xA0 SHL SUB AND PUSH2 0x1338 PUSH2 0x4BF7 JUMP JUMPDEST PUSH1 0x1 PUSH1 0x1 PUSH1 0xA0 SHL SUB AND EQ ISZERO PUSH2 0x139C JUMPI PUSH1 0x40 MLOAD PUSH3 0x461BCD PUSH1 0xE5 SHL DUP2 MSTORE PUSH1 0x20 PUSH1 0x4 DUP3 ADD MSTORE PUSH1 0x1B PUSH1 0x24 DUP3 ADD MSTORE PUSH32 0x52657761726473446973747269627574696F6E206E6F74207365740000000000 PUSH1 0x44 DUP3 ADD MSTORE PUSH1 0x64 ADD PUSH1 0x40 MLOAD DUP1 SWAP2 SUB SWAP1 PUSH2 0x1399 PUSH2 0x5CCE JUMP JUMPDEST POP POP JUMPDEST PUSH1 0x0 PUSH2 0x13A6 PUSH2 0x4C2F JUMP JUMPDEST SWAP1 POP PUSH1 0x0 PUSH2 0x13B2 PUSH2 0x4BF7 JUMP JUMPDEST SWAP1 POP PUSH1 0x0 DUP3 PUSH1 0x1 PUSH1 0x1 PUSH1 0xA0 SHL SUB AND PUSH4 0xCC5C095C PUSH1 0x40 MLOAD DUP2 PUSH4 0xFFFFFFFF AND PUSH1 0xE0 SHL DUP2 MSTORE PUSH1 0x4 ADD PUSH1 0x20 PUSH1 0x40 MLOAD DUP1 DUP4 SUB DUP2 DUP7 DUP1 PUSH2 0x13EA PUSH2 0x5D94 JUMP JUMPDEST ISZERO DUP1 ISZERO PUSH2 0x13FF JUMPI PUSH1 0x0 DUP1 PUSH2 0x13FC PUSH2 0x5CCE JUMP JUMPDEST POP POP JUMPDEST POP GAS PUSH2 0x1409 PUSH2 0x5DE0 JUMP JUMPDEST POP POP POP POP POP ISZERO DUP1 ISZERO PUSH2 0x1428 JUMPI RETURNDATASIZE PUSH1 0x0 DUP1 RETURNDATACOPY RETURNDATASIZE PUSH1 0x0 PUSH2 0x1425 PUSH2 0x5CCE JUMP JUMPDEST POP POP JUMPDEST POP POP POP POP PUSH1 0x40 MLOAD RETURNDATASIZE PUSH1 0x20 DUP2 LT ISZERO PUSH2 0x1447 JUMPI PUSH1 0x0 DUP1 PUSH2 0x1444 PUSH2 0x5CCE JUMP JUMPDEST POP POP JUMPDEST DUP2 ADD SWAP1 DUP1 DUP1 MLOAD SWAP4 POP POP POP DUP2 ISZERO ISZERO SWAP1 POP PUSH2 0x14A7 JUMPI PUSH1 0x40 MLOAD PUSH3 0x461BCD PUSH1 0xE5 SHL DUP2 MSTORE PUSH1 0x20 PUSH1 0x4 DUP3 ADD MSTORE PUSH1 0x15 PUSH1 0x24 DUP3 ADD MSTORE PUSH21 0x4E6F20737570706C79206973206D696E7461626C65 PUSH1 0x58 SHL PUSH1 0x44 DUP3 ADD MSTORE PUSH1 0x64 ADD PUSH1 0x40 MLOAD DUP1 SWAP2 SUB SWAP1 PUSH2 0x14A4 PUSH2 0x5CCE JUMP JUMPDEST POP POP JUMPDEST DUP3 PUSH1 0x1 PUSH1 0x1 PUSH1 0xA0 SHL SUB AND PUSH4 0x7E7961D7 DUP3 PUSH1 0x40 MLOAD PUSH1 0x1 PUSH1 0x1 PUSH1 0xE0 SHL SUB NOT PUSH1 0xE0 DUP5 SWAP1 SHL AND DUP2 MSTORE PUSH1 0x4 DUP2 ADD SWAP2 SWAP1 SWAP2 MSTORE PUSH1 0x24 ADD PUSH1 0x20 PUSH1 0x40 MLOAD DUP1 DUP4 SUB DUP2 PUSH1 0x0 DUP8 DUP1 PUSH2 0x14EB PUSH2 0x5D94 JUMP JUMPDEST ISZERO DUP1 ISZERO PUSH2 0x1500 JUMPI PUSH1 0x0 DUP1 PUSH2 0x14FD PUSH2 0x5CCE JUMP JUMPDEST POP POP JUMPDEST POP GAS PUSH2 0x150A PUSH2 0x5E99 JUMP JUMPDEST POP POP POP POP POP POP ISZERO DUP1 ISZERO PUSH2 0x152A JUMPI RETURNDATASIZE PUSH1 0x0 DUP1 RETURNDATACOPY RETURNDATASIZE PUSH1 0x0 PUSH2 0x1527 PUSH2 0x5CCE JUMP JUMPDEST POP POP JUMPDEST POP POP POP POP PUSH1 0x40 MLOAD RETURNDATASIZE PUSH1 0x20 DUP2 LT ISZERO PUSH2 0x1549 JUMPI PUSH1 0x0 DUP1 PUSH2 0x1546 PUSH2 0x5CCE JUMP JUMPDEST POP POP JUMPDEST DUP2 ADD SWAP1 DUP1 DUP1 MLOAD POP PUSH1 0x0 SWAP3 POP POP POP PUSH1 0x1 PUSH1 0x1 PUSH1 0xA0 SHL SUB DUP5 AND PUSH4 0x9BDD7AC7 PUSH1 0x40 MLOAD DUP2 PUSH4 0xFFFFFFFF AND PUSH1 0xE0 SHL DUP2 MSTORE PUSH1 0x4 ADD PUSH1 0x20 PUSH1 0x40 MLOAD DUP1 DUP4 SUB DUP2 DUP7 DUP1 PUSH2 0x158A PUSH2 0x5D94 JUMP JUMPDEST ISZERO DUP1 ISZERO PUSH2 0x159F JUMPI PUSH1 0x0 DUP1 PUSH2 0x159C PUSH2 0x5CCE JUMP JUMPDEST POP POP JUMPDEST POP GAS PUSH2 0x15A9 PUSH2 0x5DE0 JUMP JUMPDEST POP POP POP POP POP ISZERO DUP1 ISZERO PUSH2 0x15C8 JUMPI RETURNDATASIZE PUSH1 0x0 DUP1 RETURNDATACOPY RETURNDATASIZE PUSH1 0x0 PUSH2 0x15C5 PUSH2 0x5CCE JUMP JUMPDEST POP POP JUMPDEST POP POP POP POP PUSH1 0x40 MLOAD RETURNDATASIZE PUSH1 0x20 DUP2 LT ISZERO PUSH2 0x15E7 JUMPI PUSH1 0x0 DUP1 PUSH2 0x15E4 PUSH2 0x5CCE JUMP JUMPDEST POP POP JUMPDEST DUP2 ADD SWAP1 DUP1 DUP1 MLOAD SWAP4 POP PUSH1 0x0 SWAP3 POP PUSH2 0x1607 SWAP2 POP DUP5 SWAP1 POP DUP4 PUSH4 0xFFFFFFFF PUSH2 0x4C7F AND JUMP JUMPDEST SWAP1 POP PUSH1 0x0 PUSH1 0x7 PUSH2 0x1615 PUSH2 0x5D39 JUMP JUMPDEST PUSH1 0x1 PUSH1 0x1 PUSH1 0xA0 SHL SUB PUSH2 0x100 SWAP3 SWAP1 SWAP3 EXP SWAP1 DIV AND PUSH4 0xB46310F6 DUP6 PUSH2 0x170A DUP5 PUSH1 0x0 PUSH1 0x7 PUSH2 0x163D PUSH2 0x5D39 JUMP JUMPDEST SWAP1 PUSH2 0x100 EXP SWAP1 DIV PUSH1 0x1 PUSH1 0x1 PUSH1 0xA0 SHL SUB AND PUSH1 0x1 PUSH1 0x1 PUSH1 0xA0 SHL SUB AND PUSH4 0x70A08231 DUP11 PUSH1 0x40 MLOAD PUSH1 0x1 PUSH1 0x1 PUSH1 0xE0 SHL SUB NOT PUSH1 0xE0 DUP5 SWAP1 SHL AND DUP2 MSTORE PUSH1 0x1 PUSH1 0x1 PUSH1 0xA0 SHL SUB SWAP1 SWAP2 AND PUSH1 0x4 DUP3 ADD MSTORE PUSH1 0x24 ADD PUSH1 0x20 PUSH1 0x40 MLOAD DUP1 DUP4 SUB DUP2 DUP7 DUP1 PUSH2 0x1696 PUSH2 0x5D94 JUMP JUMPDEST ISZERO DUP1 ISZERO PUSH2 0x16AB JUMPI PUSH1 0x0 DUP1 PUSH2 0x16A8 PUSH2 0x5CCE JUMP JUMPDEST POP POP JUMPDEST POP GAS PUSH2 0x16B5 PUSH2 0x5DE0 JUMP JUMPDEST POP POP POP POP POP ISZERO DUP1 ISZERO PUSH2 0x16D4 JUMPI RETURNDATASIZE PUSH1 0x0 DUP1 RETURNDATACOPY RETURNDATASIZE PUSH1 0x0 PUSH2 0x16D1 PUSH2 0x5CCE JUMP JUMPDEST POP POP JUMPDEST POP POP POP POP PUSH1 0x40 MLOAD RETURNDATASIZE PUSH1 0x20 DUP2 LT ISZERO PUSH2 0x16F3 JUMPI PUSH1 0x0 DUP1 PUSH2 0x16F0 PUSH2 0x5CCE JUMP JUMPDEST POP POP JUMPDEST DUP2 ADD SWAP1 DUP1 DUP1 MLOAD SWAP4 SWAP3 POP POP PUSH4 0xFFFFFFFF PUSH2 0x4CE4 AND SWAP1 POP JUMP JUMPDEST PUSH1 0x40 MLOAD PUSH1 0x1 PUSH1 0x1 PUSH1 0xE0 SHL SUB NOT PUSH1 0xE0 DUP6 SWAP1 SHL AND DUP2 MSTORE PUSH1 0x1 PUSH1 0x1 PUSH1 0xA0 SHL SUB SWAP1 SWAP3 AND PUSH1 0x4 DUP4 ADD MSTORE PUSH1 0x24 DUP3 ADD MSTORE PUSH1 0x44 ADD PUSH1 0x0 PUSH1 0x40 MLOAD DUP1 DUP4 SUB DUP2 PUSH1 0x0 DUP8 DUP1 PUSH2 0x174B PUSH2 0x5D94 JUMP JUMPDEST ISZERO DUP1 ISZERO PUSH2 0x1760 JUMPI PUSH1 0x0 DUP1 PUSH2 0x175D PUSH2 0x5CCE JUMP JUMPDEST POP POP JUMPDEST POP GAS PUSH2 0x176A PUSH2 0x5E99 JUMP JUMPDEST POP POP POP POP POP POP ISZERO DUP1 ISZERO PUSH2 0x178A JUMPI RETURNDATASIZE PUSH1 0x0 DUP1 RETURNDATACOPY RETURNDATASIZE PUSH1 0x0 PUSH2 0x1787 PUSH2 0x5CCE JUMP JUMPDEST POP POP JUMPDEST POP POP POP POP PUSH2 0x17F1 GAS PUSH4 0x996D79A5 MSIZE DUP2 PUSH1 0xE0 SHL DUP2 MSTORE PUSH1 0x20 DUP2 PUSH1 0x4 DUP4 CALLER PUSH1 0x0 SWAP1 GAS CALL PC PUSH1 0xE ADD JUMPI RETURNDATASIZE PUSH1 0x0 DUP1 RETURNDATACOPY RETURNDATASIZE PUSH1 0x0 REVERT JUMPDEST RETURNDATASIZE PUSH1 0x1 EQ ISZERO PC PUSH1 0xA ADD JUMPI PUSH1 0x1 PUSH1 0x0 RETURN JUMPDEST DUP1 MLOAD SWAP3 POP PUSH1 0x0 JUMPDEST PUSH1 0x40 DUP2 LT ISZERO PUSH2 0x17E7 JUMPI PUSH1 0x0 DUP3 DUP3 ADD MSTORE PUSH1 0x20 ADD PUSH2 0x17D0 JUMP JUMPDEST POP POP POP DUP6 DUP4 PUSH2 0x4D4D JUMP JUMPDEST DUP4 PUSH1 0x1 PUSH1 0x1 PUSH1 0xA0 SHL SUB AND PUSH4 0x59974E38 DUP3 PUSH1 0x40 MLOAD PUSH1 0x1 PUSH1 0x1 PUSH1 0xE0 SHL SUB NOT PUSH1 0xE0 DUP5 SWAP1 SHL AND DUP2 MSTORE PUSH1 0x4 DUP2 ADD SWAP2 SWAP1 SWAP2 MSTORE PUSH1 0x24 ADD PUSH1 0x20 PUSH1 0x40 MLOAD DUP1 DUP4 SUB DUP2 PUSH1 0x0 DUP8 DUP1 PUSH2 0x1835 PUSH2 0x5D94 JUMP JUMPDEST ISZERO DUP1 ISZERO PUSH2 0x184A JUMPI PUSH1 0x0 DUP1 PUSH2 0x1847 PUSH2 0x5CCE JUMP JUMPDEST POP POP JUMPDEST POP GAS PUSH2 0x1854 PUSH2 0x5E99 JUMP JUMPDEST POP POP POP POP POP POP ISZERO DUP1 ISZERO PUSH2 0x1874 JUMPI RETURNDATASIZE PUSH1 0x0 DUP1 RETURNDATACOPY RETURNDATASIZE PUSH1 0x0 PUSH2 0x1871 PUSH2 0x5CCE JUMP JUMPDEST POP POP JUMPDEST POP POP POP POP PUSH1 0x40 MLOAD RETURNDATASIZE PUSH1 0x20 DUP2 LT ISZERO PUSH2 0x1893 JUMPI PUSH1 0x0 DUP1 PUSH2 0x1890 PUSH2 0x5CCE JUMP JUMPDEST POP POP JUMPDEST DUP2 ADD SWAP1 DUP1 DUP1 MLOAD POP PUSH1 0x0 SWAP3 POP PUSH1 0x7 SWAP2 POP PUSH2 0x18AC SWAP1 POP PUSH2 0x5D39 JUMP JUMPDEST SWAP1 PUSH2 0x100 EXP SWAP1 DIV PUSH1 0x1 PUSH1 0x1 PUSH1 0xA0 SHL SUB AND PUSH1 0x1 PUSH1 0x1 PUSH1 0xA0 SHL SUB AND PUSH4 0xB46310F6 GAS PUSH2 0x18D3 PUSH2 0x5F52 JUMP JUMPDEST PUSH2 0x1944 DUP6 PUSH1 0x0 PUSH1 0x7 PUSH2 0x18E3 PUSH2 0x5D39 JUMP JUMPDEST SWAP1 PUSH2 0x100 EXP SWAP1 DIV PUSH1 0x1 PUSH1 0x1 PUSH1 0xA0 SHL SUB AND PUSH1 0x1 PUSH1 0x1 PUSH1 0xA0 SHL SUB AND PUSH4 0x70A08231 GAS PUSH2 0x190A PUSH2 0x5F52 JUMP JUMPDEST PUSH1 0x40 MLOAD PUSH1 0x1 PUSH1 0x1 PUSH1 0xE0 SHL SUB NOT PUSH1 0xE0 DUP5 SWAP1 SHL AND DUP2 MSTORE PUSH1 0x1 PUSH1 0x1 PUSH1 0xA0 SHL SUB SWAP1 SWAP2 AND PUSH1 0x4 DUP3 ADD MSTORE PUSH1 0x24 ADD PUSH1 0x20 PUSH1 0x40 MLOAD DUP1 DUP4 SUB DUP2 DUP7 DUP1 PUSH2 0x1696 PUSH2 0x5D94 JUMP JUMPDEST PUSH1 0x40 MLOAD PUSH1 0x1 PUSH1 0x1 PUSH1 0xE0 SHL SUB NOT PUSH1 0xE0 DUP6 SWAP1 SHL AND DUP2 MSTORE PUSH1 0x1 PUSH1 0x1 PUSH1 0xA0 SHL SUB SWAP1 SWAP3 AND PUSH1 0x4 DUP4 ADD MSTORE PUSH1 0x24 DUP3 ADD MSTORE PUSH1 0x44 ADD PUSH1 0x0 PUSH1 0x40 MLOAD DUP1 DUP4 SUB DUP2 PUSH1 0x0 DUP8 DUP1 PUSH2 0x1985 PUSH2 0x5D94 JUMP JUMPDEST ISZERO DUP1 ISZERO PUSH2 0x199A JUMPI PUSH1 0x0 DUP1 PUSH2 0x1997 PUSH2 0x5CCE JUMP JUMPDEST POP POP JUMPDEST POP GAS PUSH2 0x19A4 PUSH2 0x5E99 JUMP JUMPDEST POP POP POP POP POP POP ISZERO DUP1 ISZERO PUSH2 0x19C4 JUMPI RETURNDATASIZE PUSH1 0x0 DUP1 RETURNDATACOPY RETURNDATASIZE PUSH1 0x0 PUSH2 0x19C1 PUSH2 0x5CCE JUMP JUMPDEST POP POP JUMPDEST POP POP POP POP PUSH2 0x1A33 GAS PUSH4 0x996D79A5 MSIZE DUP2 PUSH1 0xE0 SHL DUP2 MSTORE PUSH1 0x20 DUP2 PUSH1 0x4 DUP4 CALLER PUSH1 0x0 SWAP1 GAS CALL PC PUSH1 0xE ADD JUMPI RETURNDATASIZE PUSH1 0x0 DUP1 RETURNDATACOPY RETURNDATASIZE PUSH1 0x0 REVERT JUMPDEST RETURNDATASIZE PUSH1 0x1 EQ ISZERO PC PUSH1 0xA ADD JUMPI PUSH1 0x1 PUSH1 0x0 RETURN JUMPDEST DUP1 MLOAD SWAP3 POP PUSH1 0x0 JUMPDEST PUSH1 0x40 DUP2 LT ISZERO PUSH2 0x1A21 JUMPI PUSH1 0x0 DUP3 DUP3 ADD MSTORE PUSH1 0x20 ADD PUSH2 0x1A0A JUMP JUMPDEST POP POP POP GAS PUSH2 0x1A2D PUSH2 0x5F52 JUMP JUMPDEST DUP5 PUSH2 0x4D4D JUMP JUMPDEST PUSH2 0x1A4D DUP4 PUSH1 0xA PUSH2 0x1A41 PUSH2 0x5D39 JUMP JUMPDEST SWAP1 PUSH4 0xFFFFFFFF PUSH2 0x4CE4 AND JUMP JUMPDEST DUP1 PUSH1 0xA PUSH2 0x1A58 PUSH2 0x5F98 JUMP JUMPDEST POP POP POP PUSH1 0x1 SWAP6 POP POP POP POP POP POP SWAP1 JUMP JUMPDEST PUSH2 0x1A6F PUSH2 0x4DBA JUMP JUMPDEST DUP1 PUSH1 0x5 PUSH1 0x1 DUP2 PUSH2 0x1A7D PUSH2 0x5D39 JUMP JUMPDEST DUP2 PUSH1 0x1 PUSH1 0x1 PUSH1 0xA0 SHL SUB MUL NOT AND SWAP1 DUP4 PUSH1 0x1 PUSH1 0x1 PUSH1 0xA0 SHL SUB AND MUL OR SWAP1 PUSH2 0x1A9F PUSH2 0x5F98 JUMP JUMPDEST POP POP POP POP JUMP JUMPDEST PUSH2 0x1AAD PUSH2 0x4DBA JUMP JUMPDEST DUP1 PUSH1 0x1 DUP1 DUP1 PUSH2 0x1ABA PUSH2 0x5D39 JUMP JUMPDEST DUP2 PUSH1 0x1 PUSH1 0x1 PUSH1 0xA0 SHL SUB MUL NOT AND SWAP1 DUP4 PUSH1 0x1 PUSH1 0x1 PUSH1 0xA0 SHL SUB AND MUL OR SWAP1 PUSH2 0x1ADC PUSH2 0x5F98 JUMP JUMPDEST POP POP POP PUSH32 0x906A1C6BD7E3091EA86693DD029A831C19049CE77F1DCE2CE0BAB1CACBABCE22 DUP2 PUSH1 0x40 MLOAD PUSH1 0x1 PUSH1 0x1 PUSH1 0xA0 SHL SUB SWAP1 SWAP2 AND DUP2 MSTORE PUSH1 0x20 ADD PUSH1 0x40 MLOAD DUP1 SWAP2 SUB SWAP1 LOG1 POP JUMP JUMPDEST PUSH1 0x0 PUSH2 0x1B29 PUSH2 0x49AA JUMP JUMPDEST PUSH1 0x1 PUSH1 0x1 PUSH1 0xA0 SHL SUB AND PUSH4 0x16B2213F DUP4 PUSH1 0x40 MLOAD PUSH1 0x1 PUSH1 0x1 PUSH1 0xE0 SHL SUB NOT PUSH1 0xE0 DUP5 SWAP1 SHL AND DUP2 MSTORE PUSH1 0x1 PUSH1 0x1 PUSH1 0xA0 SHL SUB SWAP1 SWAP2 AND PUSH1 0x4 DUP3 ADD MSTORE PUSH1 0x24 ADD PUSH1 0x20 PUSH1 0x40 MLOAD DUP1 DUP4 SUB DUP2 DUP7 DUP1 PUSH2 0xFA9 PUSH2 0x5D94 JUMP JUMPDEST PUSH1 0x2 PUSH2 0x1B7C PUSH2 0x5D39 JUMP JUMPDEST DUP2 JUMP JUMPDEST PUSH1 0xA PUSH2 0x1B7C PUSH2 0x5D39 JUMP JUMPDEST PUSH1 0x40 MLOAD PUSH1 0x40 DUP1 DUP3 ADD SWAP1 MSTORE PUSH1 0x17 DUP2 MSTORE PUSH32 0x53796E746865746978204E6574776F726B20546F6B656E000000000000000000 PUSH1 0x20 DUP3 ADD MSTORE DUP2 JUMP JUMPDEST PUSH1 0x0 DUP1 PUSH2 0x1BCB PUSH2 0x4E32 JUMP JUMPDEST PUSH1 0x1 PUSH1 0x1 PUSH1 0xA0 SHL SUB AND PUSH4 0x59C29EC PUSH1 0x0 PUSH1 0x6 PUSH2 0x1BE5 PUSH2 0x5D39 JUMP JUMPDEST SWAP1 PUSH2 0x100 EXP SWAP1 DIV PUSH1 0x1 PUSH1 0x1 PUSH1 0xA0 SHL SUB AND DUP6 PUSH1 0x40 MLOAD PUSH1 0x1 PUSH1 0x1 PUSH1 0xE0 SHL SUB NOT PUSH1 0xE0 DUP6 SWAP1 SHL AND DUP2 MSTORE PUSH1 0x1 PUSH1 0x1 PUSH1 0xA0 SHL SUB SWAP1 SWAP3 AND PUSH1 0x4 DUP4 ADD MSTORE PUSH1 0x24 DUP3 ADD MSTORE PUSH1 0x44 ADD PUSH1 0x20 PUSH1 0x40 MLOAD DUP1 DUP4 SUB DUP2 DUP7 DUP1 PUSH2 0x1C35 PUSH2 0x5D94 JUMP JUMPDEST ISZERO DUP1 ISZERO PUSH2 0x1C4A JUMPI PUSH1 0x0 DUP1 PUSH2 0x1C47 PUSH2 0x5CCE JUMP JUMPDEST POP POP JUMPDEST POP GAS PUSH2 0x1C54 PUSH2 0x5DE0 JUMP JUMPDEST POP POP POP POP POP ISZERO DUP1 ISZERO PUSH2 0x1C73 JUMPI RETURNDATASIZE PUSH1 0x0 DUP1 RETURNDATACOPY RETURNDATASIZE PUSH1 0x0 PUSH2 0x1C70 PUSH2 0x5CCE JUMP JUMPDEST POP POP JUMPDEST POP POP POP POP PUSH1 0x40 MLOAD RETURNDATASIZE PUSH1 0x20 DUP2 LT ISZERO PUSH2 0x1C92 JUMPI PUSH1 0x0 DUP1 PUSH2 0x1C8F PUSH2 0x5CCE JUMP JUMPDEST POP POP JUMPDEST DUP2 ADD SWAP1 DUP1 DUP1 MLOAD SWAP4 SWAP1 SWAP4 GT SWAP6 SWAP5 POP POP POP POP POP JUMP JUMPDEST PUSH2 0x1CAD PUSH2 0x4DBA JUMP JUMPDEST PUSH1 0x1 PUSH1 0x1 PUSH1 0xA0 SHL SUB DUP2 AND PUSH2 0x1D10 JUMPI PUSH1 0x40 MLOAD PUSH3 0x461BCD PUSH1 0xE5 SHL DUP2 MSTORE PUSH1 0x20 PUSH1 0x4 DUP3 ADD MSTORE PUSH1 0x1C PUSH1 0x24 DUP3 ADD MSTORE PUSH32 0x42656E6566696369617279206D757374206E6F74206265207A65726F00000000 PUSH1 0x44 DUP3 ADD MSTORE PUSH1 0x64 ADD PUSH1 0x40 MLOAD DUP1 SWAP2 SUB SWAP1 PUSH2 0x1D0D PUSH2 0x5CCE JUMP JUMPDEST POP POP JUMPDEST DUP1 PUSH1 0x3 PUSH2 0x100 DUP2 PUSH2 0x1D1F PUSH2 0x5D39 JUMP JUMPDEST DUP2 PUSH1 0x1 PUSH1 0x1 PUSH1 0xA0 SHL SUB MUL NOT AND SWAP1 DUP4 PUSH1 0x1 PUSH1 0x1 PUSH1 0xA0 SHL SUB AND MUL OR SWAP1 PUSH2 0x1D41 PUSH2 0x5F98 JUMP JUMPDEST POP POP POP PUSH32 0xD5DA63A0B864B315BC04128DEDBC93888C8529EE6CF47CE664DC204339228C53 DUP2 PUSH1 0x40 MLOAD PUSH1 0x1 PUSH1 0x1 PUSH1 0xA0 SHL SUB SWAP1 SWAP2 AND DUP2 MSTORE PUSH1 0x20 ADD PUSH1 0x40 MLOAD DUP1 SWAP2 SUB SWAP1 LOG1 POP JUMP JUMPDEST PUSH1 0x0 PUSH2 0x1D8E PUSH2 0x49F0 JUMP JUMPDEST PUSH2 0x1D96 PUSH2 0x4BA9 JUMP JUMPDEST PUSH1 0x1 PUSH1 0x1 PUSH1 0xA0 SHL SUB AND PUSH4 0x86DABD1 PUSH1 0x40 MLOAD DUP2 PUSH4 0xFFFFFFFF AND PUSH1 0xE0 SHL DUP2 MSTORE PUSH1 0x4 ADD PUSH1 0x0 PUSH1 0x40 MLOAD DUP1 DUP4 SUB DUP2 DUP7 DUP1 PUSH2 0x1DC9 PUSH2 0x5D94 JUMP JUMPDEST ISZERO DUP1 ISZERO PUSH2 0x1DDE JUMPI PUSH1 0x0 DUP1 PUSH2 0x1DDB PUSH2 0x5CCE JUMP JUMPDEST POP POP JUMPDEST POP GAS PUSH2 0x1DE8 PUSH2 0x5DE0 JUMP JUMPDEST POP POP POP POP POP ISZERO DUP1 ISZERO PUSH2 0x1E07 JUMPI RETURNDATASIZE PUSH1 0x0 DUP1 RETURNDATACOPY RETURNDATASIZE PUSH1 0x0 PUSH2 0x1E04 PUSH2 0x5CCE JUMP JUMPDEST POP POP JUMPDEST POP POP POP POP PUSH2 0x1E15 DUP5 DUP4 PUSH2 0x4E7D JUMP JUMPDEST POP PUSH2 0x1E3D PUSH1 0x0 PUSH1 0x6 PUSH2 0x1E25 PUSH2 0x5D39 JUMP JUMPDEST SWAP1 PUSH2 0x100 EXP SWAP1 DIV PUSH1 0x1 PUSH1 0x1 PUSH1 0xA0 SHL SUB AND DUP6 DUP6 DUP6 PUSH2 0x5192 JUMP JUMPDEST SWAP5 SWAP4 POP POP POP POP JUMP JUMPDEST PUSH2 0x1E4D PUSH2 0x4BA9 JUMP JUMPDEST PUSH1 0x1 PUSH1 0x1 PUSH1 0xA0 SHL SUB AND PUSH4 0x7C312541 PUSH1 0x40 MLOAD DUP2 PUSH4 0xFFFFFFFF AND PUSH1 0xE0 SHL DUP2 MSTORE PUSH1 0x4 ADD PUSH1 0x0 PUSH1 0x40 MLOAD DUP1 DUP4 SUB DUP2 DUP7 DUP1 PUSH2 0x1E80 PUSH2 0x5D94 JUMP JUMPDEST ISZERO DUP1 ISZERO PUSH2 0x1E95 JUMPI PUSH1 0x0 DUP1 PUSH2 0x1E92 PUSH2 0x5CCE JUMP JUMPDEST POP POP JUMPDEST POP GAS PUSH2 0x1E9F PUSH2 0x5DE0 JUMP JUMPDEST POP POP POP POP POP ISZERO DUP1 ISZERO PUSH2 0x1EBE JUMPI RETURNDATASIZE PUSH1 0x0 DUP1 RETURNDATACOPY RETURNDATASIZE PUSH1 0x0 PUSH2 0x1EBB PUSH2 0x5CCE JUMP JUMPDEST POP POP JUMPDEST POP POP POP POP PUSH2 0x1ECA PUSH2 0x49F0 JUMP JUMPDEST PUSH2 0x1ED2 PUSH2 0x49AA JUMP JUMPDEST PUSH1 0x1 PUSH1 0x1 PUSH1 0xA0 SHL SUB AND PUSH4 0xB06E8C65 PUSH1 0x0 PUSH1 0x6 PUSH2 0x1EEC PUSH2 0x5D39 JUMP JUMPDEST SWAP1 PUSH2 0x100 EXP SWAP1 DIV PUSH1 0x1 PUSH1 0x1 PUSH1 0xA0 SHL SUB AND DUP4 PUSH1 0x40 MLOAD PUSH1 0x1 PUSH1 0x1 PUSH1 0xE0 SHL SUB NOT PUSH1 0xE0 DUP6 SWAP1 SHL AND DUP2 MSTORE PUSH1 0x1 PUSH1 0x1 PUSH1 0xA0 SHL SUB SWAP1 SWAP3 AND PUSH1 0x4 DUP4 ADD MSTORE PUSH1 0x24 DUP3 ADD MSTORE PUSH1 0x44 ADD PUSH1 0x0 PUSH1 0x40 MLOAD DUP1 DUP4 SUB DUP2 PUSH1 0x0 DUP8 DUP1 PUSH2 0x1F3E PUSH2 0x5D94 JUMP JUMPDEST ISZERO DUP1 ISZERO PUSH2 0x1F53 JUMPI PUSH1 0x0 DUP1 PUSH2 0x1F50 PUSH2 0x5CCE JUMP JUMPDEST POP POP JUMPDEST POP GAS PUSH2 0x1F5D PUSH2 0x5E99 JUMP JUMPDEST POP POP POP POP POP POP ISZERO DUP1 ISZERO PUSH2 0x1F7D JUMPI RETURNDATASIZE PUSH1 0x0 DUP1 RETURNDATACOPY RETURNDATASIZE PUSH1 0x0 PUSH2 0x1F7A PUSH2 0x5CCE JUMP JUMPDEST POP POP JUMPDEST POP POP POP POP JUMPDEST POP JUMP JUMPDEST PUSH1 0x40 MLOAD PUSH1 0x40 DUP1 DUP3 ADD SWAP1 MSTORE PUSH1 0x3 DUP2 MSTORE PUSH3 0xA69CB PUSH1 0xEB SHL PUSH1 0x20 DUP3 ADD MSTORE DUP2 JUMP JUMPDEST PUSH2 0x1FAA PUSH2 0x4BA9 JUMP JUMPDEST PUSH1 0x1 PUSH1 0x1 PUSH1 0xA0 SHL SUB AND PUSH4 0x7C312541 PUSH1 0x40 MLOAD DUP2 PUSH4 0xFFFFFFFF AND PUSH1 0xE0 SHL DUP2 MSTORE PUSH1 0x4 ADD PUSH1 0x0 PUSH1 0x40 MLOAD DUP1 DUP4 SUB DUP2 DUP7 DUP1 PUSH2 0x1FDD PUSH2 0x5D94 JUMP JUMPDEST ISZERO DUP1 ISZERO PUSH2 0x1FF2 JUMPI PUSH1 0x0 DUP1 PUSH2 0x1FEF PUSH2 0x5CCE JUMP JUMPDEST POP POP JUMPDEST POP GAS PUSH2 0x1FFC PUSH2 0x5DE0 JUMP JUMPDEST POP POP POP POP POP ISZERO DUP1 ISZERO PUSH2 0x201B JUMPI RETURNDATASIZE PUSH1 0x0 DUP1 RETURNDATACOPY RETURNDATASIZE PUSH1 0x0 PUSH2 0x2018 PUSH2 0x5CCE JUMP JUMPDEST POP POP JUMPDEST POP POP POP POP PUSH2 0x2027 PUSH2 0x49F0 JUMP JUMPDEST PUSH2 0x202F PUSH2 0x49AA JUMP JUMPDEST PUSH1 0x1 PUSH1 0x1 PUSH1 0xA0 SHL SUB AND PUSH4 0x2B3F41AA DUP3 PUSH1 0x0 PUSH1 0x6 PUSH2 0x204A PUSH2 0x5D39 JUMP JUMPDEST SWAP1 PUSH2 0x100 EXP SWAP1 DIV PUSH1 0x1 PUSH1 0x1 PUSH1 0xA0 SHL SUB AND PUSH1 0x40 MLOAD PUSH1 0x1 PUSH1 0x1 PUSH1 0xE0 SHL SUB NOT PUSH1 0xE0 DUP6 SWAP1 SHL AND DUP2 MSTORE PUSH1 0x1 PUSH1 0x1 PUSH1 0xA0 SHL SUB SWAP3 DUP4 AND PUSH1 0x4 DUP3 ADD MSTORE SWAP2 AND PUSH1 0x24 DUP3 ADD MSTORE PUSH1 0x44 ADD PUSH1 0x0 PUSH1 0x40 MLOAD DUP1 DUP4 SUB DUP2 PUSH1 0x0 DUP8 DUP1 PUSH2 0x1F3E PUSH2 0x5D94 JUMP JUMPDEST PUSH1 0x12 DUP2 JUMP JUMPDEST PUSH1 0x0 DUP6 DUP5 PUSH2 0x20AE PUSH2 0x4BA9 JUMP JUMPDEST PUSH1 0x1 PUSH1 0x1 PUSH1 0xA0 SHL SUB AND PUSH4 0x7118D431 PUSH1 0x40 MLOAD DUP2 PUSH4 0xFFFFFFFF AND PUSH1 0xE0 SHL DUP2 MSTORE PUSH1 0x4 ADD PUSH1 0x0 PUSH1 0x40 MLOAD DUP1 DUP4 SUB DUP2 DUP7 DUP1 PUSH2 0x20E1 PUSH2 0x5D94 JUMP JUMPDEST ISZERO DUP1 ISZERO PUSH2 0x20F6 JUMPI PUSH1 0x0 DUP1 PUSH2 0x20F3 PUSH2 0x5CCE JUMP JUMPDEST POP POP JUMPDEST POP GAS PUSH2 0x2100 PUSH2 0x5DE0 JUMP JUMPDEST POP POP POP POP POP ISZERO DUP1 ISZERO PUSH2 0x211F JUMPI RETURNDATASIZE PUSH1 0x0 DUP1 RETURNDATACOPY RETURNDATASIZE PUSH1 0x0 PUSH2 0x211C PUSH2 0x5CCE JUMP JUMPDEST POP POP JUMPDEST POP POP POP POP PUSH2 0x212B PUSH2 0x4BA9 JUMP JUMPDEST PUSH1 0x1 PUSH1 0x1 PUSH1 0xA0 SHL SUB AND PUSH4 0x6132EBA4 DUP4 DUP4 PUSH1 0x40 MLOAD PUSH1 0x1 PUSH1 0x1 PUSH1 0xE0 SHL SUB NOT PUSH1 0xE0 DUP6 SWAP1 SHL AND DUP2 MSTORE PUSH1 0x4 DUP2 ADD SWAP3 SWAP1 SWAP3 MSTORE PUSH1 0x24 DUP3 ADD MSTORE PUSH1 0x44 ADD PUSH1 0x0 PUSH1 0x40 MLOAD DUP1 DUP4 SUB DUP2 DUP7 DUP1 PUSH2 0x2172 PUSH2 0x5D94 JUMP JUMPDEST ISZERO DUP1 ISZERO PUSH2 0x2187 JUMPI PUSH1 0x0 DUP1 PUSH2 0x2184 PUSH2 0x5CCE JUMP JUMPDEST POP POP JUMPDEST POP GAS PUSH2 0x2191 PUSH2 0x5DE0 JUMP JUMPDEST POP POP POP POP POP ISZERO DUP1 ISZERO PUSH2 0x21B0 JUMPI RETURNDATASIZE PUSH1 0x0 DUP1 RETURNDATACOPY RETURNDATASIZE PUSH1 0x0 PUSH2 0x21AD PUSH2 0x5CCE JUMP JUMPDEST POP POP JUMPDEST POP POP POP POP PUSH2 0x21BC PUSH2 0x49F0 JUMP JUMPDEST PUSH2 0x21C4 PUSH2 0x4E32 JUMP JUMPDEST PUSH1 0x1 PUSH1 0x1 PUSH1 0xA0 SHL SUB AND PUSH4 0x86BAA45C PUSH1 0x0 PUSH1 0x6 PUSH2 0x21DE PUSH2 0x5D39 JUMP JUMPDEST SWAP1 PUSH2 0x100 EXP SWAP1 DIV PUSH1 0x1 PUSH1 0x1 PUSH1 0xA0 SHL SUB AND DUP11 DUP11 DUP11 PUSH1 0x6 PUSH1 0x0 SWAP1 PUSH2 0x21FE PUSH2 0x5D39 JUMP JUMPDEST SWAP1 PUSH2 0x100 EXP SWAP1 DIV PUSH1 0x1 PUSH1 0x1 PUSH1 0xA0 SHL SUB AND DUP12 DUP12 PUSH1 0x40 MLOAD PUSH1 0x1 PUSH1 0x1 PUSH1 0xE0 SHL SUB NOT PUSH1 0xE0 DUP11 SWAP1 SHL AND DUP2 MSTORE PUSH1 0x1 PUSH1 0x1 PUSH1 0xA0 SHL SUB SWAP8 DUP9 AND PUSH1 0x4 DUP3 ADD MSTORE PUSH1 0x24 DUP2 ADD SWAP7 SWAP1 SWAP7 MSTORE PUSH1 0x44 DUP7 ADD SWAP5 SWAP1 SWAP5 MSTORE PUSH1 0x64 DUP6 ADD SWAP3 SWAP1 SWAP3 MSTORE DUP5 AND PUSH1 0x84 DUP5 ADD MSTORE SWAP1 SWAP3 AND PUSH1 0xA4 DUP3 ADD MSTORE PUSH1 0xC4 DUP2 ADD SWAP2 SWAP1 SWAP2 MSTORE PUSH1 0xE4 ADD PUSH1 0x20 PUSH1 0x40 MLOAD DUP1 DUP4 SUB DUP2 PUSH1 0x0 DUP8 DUP1 PUSH2 0x227B PUSH2 0x5D94 JUMP JUMPDEST ISZERO DUP1 ISZERO PUSH2 0x2290 JUMPI PUSH1 0x0 DUP1 PUSH2 0x228D PUSH2 0x5CCE JUMP JUMPDEST POP POP JUMPDEST POP GAS PUSH2 0x229A PUSH2 0x5E99 JUMP JUMPDEST POP POP POP POP POP POP ISZERO DUP1 ISZERO PUSH2 0x22BA JUMPI RETURNDATASIZE PUSH1 0x0 DUP1 RETURNDATACOPY RETURNDATASIZE PUSH1 0x0 PUSH2 0x22B7 PUSH2 0x5CCE JUMP JUMPDEST POP POP JUMPDEST POP POP POP POP PUSH1 0x40 MLOAD RETURNDATASIZE PUSH1 0x20 DUP2 LT ISZERO PUSH2 0x22D9 JUMPI PUSH1 0x0 DUP1 PUSH2 0x22D6 PUSH2 0x5CCE JUMP JUMPDEST POP POP JUMPDEST DUP2 ADD SWAP1 DUP1 DUP1 MLOAD SWAP12 SWAP11 POP POP POP POP POP POP POP POP POP POP POP JUMP JUMPDEST PUSH1 0x0 PUSH1 0xB PUSH2 0x22FA PUSH2 0x5D39 JUMP JUMPDEST SWAP1 PUSH2 0x100 EXP SWAP1 DIV PUSH1 0xFF AND DUP2 JUMP JUMPDEST PUSH2 0x230F PUSH2 0x4BA9 JUMP JUMPDEST PUSH1 0x1 PUSH1 0x1 PUSH1 0xA0 SHL SUB AND PUSH4 0x7C312541 PUSH1 0x40 MLOAD DUP2 PUSH4 0xFFFFFFFF AND PUSH1 0xE0 SHL DUP2 MSTORE PUSH1 0x4 ADD PUSH1 0x0 PUSH1 0x40 MLOAD DUP1 DUP4 SUB DUP2 DUP7 DUP1 PUSH2 0x2342 PUSH2 0x5D94 JUMP JUMPDEST ISZERO DUP1 ISZERO PUSH2 0x2357 JUMPI PUSH1 0x0 DUP1 PUSH2 0x2354 PUSH2 0x5CCE JUMP JUMPDEST POP POP JUMPDEST POP GAS PUSH2 0x2361 PUSH2 0x5DE0 JUMP JUMPDEST POP POP POP POP POP ISZERO DUP1 ISZERO PUSH2 0x2380 JUMPI RETURNDATASIZE PUSH1 0x0 DUP1 RETURNDATACOPY RETURNDATASIZE PUSH1 0x0 PUSH2 0x237D PUSH2 0x5CCE JUMP JUMPDEST POP POP JUMPDEST POP POP POP POP PUSH2 0x238C PUSH2 0x49F0 JUMP JUMPDEST PUSH2 0x2394 PUSH2 0x49AA JUMP JUMPDEST PUSH1 0x1 PUSH1 0x1 PUSH1 0xA0 SHL SUB AND PUSH4 0xFD864CCF DUP3 PUSH1 0x0 PUSH1 0x6 PUSH2 0x204A PUSH2 0x5D39 JUMP JUMPDEST PUSH1 0x0 PUSH2 0x23B9 PUSH2 0x49AA JUMP JUMPDEST PUSH1 0x1 PUSH1 0x1 PUSH1 0xA0 SHL SUB AND PUSH4 0x32608039 DUP4 PUSH1 0x40 MLOAD PUSH1 0x1 PUSH1 0x1 PUSH1 0xE0 SHL SUB NOT PUSH1 0xE0 DUP5 SWAP1 SHL AND DUP2 MSTORE PUSH1 0x4 DUP2 ADD SWAP2 SWAP1 SWAP2 MSTORE PUSH1 0x24 ADD PUSH1 0x20 PUSH1 0x40 MLOAD DUP1 DUP4 SUB DUP2 DUP7 DUP1 PUSH2 0xFA9 PUSH2 0x5D94 JUMP JUMPDEST PUSH2 0x2402 PUSH2 0x4DBA JUMP JUMPDEST PUSH1 0x0 DUP1 PUSH1 0x2 PUSH2 0x240F PUSH2 0x5F98 JUMP JUMPDEST POP POP POP PUSH1 0x0 PUSH1 0x3 PUSH1 0x0 PUSH2 0x100 EXP DUP2 PUSH2 0x2425 PUSH2 0x5D39 JUMP JUMPDEST DUP2 PUSH1 0xFF MUL NOT AND SWAP1 DUP4 ISZERO ISZERO MUL OR SWAP1 PUSH2 0x243A PUSH2 0x5F98 JUMP JUMPDEST POP POP POP PUSH32 0x6ADCC7125002935E0AA31697538EBBD65CFDDF20431EB6ECDCFC3E238BFD082C PUSH1 0x40 MLOAD PUSH1 0x40 MLOAD DUP1 SWAP2 SUB SWAP1 LOG1 JUMP JUMPDEST PUSH2 0x2473 PUSH2 0x4DBA JUMP JUMPDEST DUP1 PUSH1 0xB PUSH2 0x100 DUP2 PUSH2 0x2482 PUSH2 0x5D39 JUMP JUMPDEST DUP2 PUSH1 0x1 PUSH1 0x1 PUSH1 0xA0 SHL SUB MUL NOT AND SWAP1 DUP4 PUSH1 0x1 PUSH1 0x1 PUSH1 0xA0 SHL SUB AND MUL OR SWAP1 PUSH2 0x24A4 PUSH2 0x5F98 JUMP JUMPDEST POP PUSH1 0x0 SWAP2 POP POP JUMPDEST PUSH1 0xD DUP1 PUSH2 0x24B6 PUSH2 0x5D39 JUMP JUMPDEST SWAP1 POP DUP2 LT ISZERO PUSH2 0x2632 JUMPI PUSH1 0x0 PUSH1 0xD DUP3 DUP2 PUSH2 0x24CD PUSH2 0x5D39 JUMP JUMPDEST DUP2 LT PUSH2 0x24D5 JUMPI INVALID JUMPDEST SWAP1 PUSH1 0x0 MSTORE PUSH1 0x20 PUSH1 0x0 KECCAK256 ADD PUSH2 0x24E7 PUSH2 0x5D39 JUMP JUMPDEST SWAP1 POP PUSH1 0x1 PUSH1 0xB PUSH2 0x24F5 PUSH2 0x5D39 JUMP JUMPDEST SWAP1 PUSH2 0x100 EXP SWAP1 DIV PUSH1 0x1 PUSH1 0x1 PUSH1 0xA0 SHL SUB AND PUSH1 0x1 PUSH1 0x1 PUSH1 0xA0 SHL SUB AND PUSH4 0xDACB2D01 DUP3 PUSH1 0x40 MLOAD PUSH1 0x1 PUSH1 0x1 PUSH1 0xE0 SHL SUB NOT PUSH1 0xE0 DUP5 SWAP1 SHL AND DUP2 MSTORE PUSH1 0x4 DUP2 ADD SWAP2 SWAP1 SWAP2 MSTORE PUSH1 0x40 PUSH1 0x24 DUP3 ADD DUP2 SWAP1 MSTORE PUSH1 0x17 PUSH1 0x44 DUP4 ADD MSTORE PUSH32 0x5265736F6C766572206D697373696E6720746172676574000000000000000000 PUSH1 0x64 DUP4 ADD MSTORE PUSH1 0x84 SWAP1 SWAP2 ADD SWAP1 PUSH1 0x20 SWAP1 MLOAD DUP1 DUP4 SUB DUP2 DUP7 DUP1 PUSH2 0x257E PUSH2 0x5D94 JUMP JUMPDEST ISZERO DUP1 ISZERO PUSH2 0x2593 JUMPI PUSH1 0x0 DUP1 PUSH2 0x2590 PUSH2 0x5CCE JUMP JUMPDEST POP POP JUMPDEST POP GAS PUSH2 0x259D PUSH2 0x5DE0 JUMP JUMPDEST POP POP POP POP POP ISZERO DUP1 ISZERO PUSH2 0x25BC JUMPI RETURNDATASIZE PUSH1 0x0 DUP1 RETURNDATACOPY RETURNDATASIZE PUSH1 0x0 PUSH2 0x25B9 PUSH2 0x5CCE JUMP JUMPDEST POP POP JUMPDEST POP POP POP POP PUSH1 0x40 MLOAD RETURNDATASIZE PUSH1 0x20 DUP2 LT ISZERO PUSH2 0x25DB JUMPI PUSH1 0x0 DUP1 PUSH2 0x25D8 PUSH2 0x5CCE JUMP JUMPDEST POP POP JUMPDEST DUP2 ADD SWAP1 DUP1 DUP1 MLOAD PUSH1 0x0 DUP6 DUP2 MSTORE PUSH1 0xC PUSH1 0x20 MSTORE SWAP1 SWAP4 POP PUSH1 0x40 SWAP3 POP SWAP1 POP KECCAK256 PUSH1 0x1 DUP2 PUSH2 0x2600 PUSH2 0x5D39 JUMP JUMPDEST DUP2 PUSH1 0x1 PUSH1 0x1 PUSH1 0xA0 SHL SUB MUL NOT AND SWAP1 DUP4 PUSH1 0x1 PUSH1 0x1 PUSH1 0xA0 SHL SUB AND MUL OR SWAP1 PUSH2 0x2622 PUSH2 0x5F98 JUMP JUMPDEST POP POP PUSH1 0x1 SWAP1 SWAP3 ADD SWAP2 POP PUSH2 0x24AB SWAP1 POP JUMP JUMPDEST POP POP JUMP JUMPDEST PUSH1 0x0 PUSH2 0x2640 PUSH2 0x49AA JUMP JUMPDEST PUSH1 0x1 PUSH1 0x1 PUSH1 0xA0 SHL SUB AND PUSH4 0x4E99BDA9 PUSH1 0x40 MLOAD DUP2 PUSH4 0xFFFFFFFF AND PUSH1 0xE0 SHL DUP2 MSTORE PUSH1 0x4 ADD PUSH1 0x20 PUSH1 0x40 MLOAD DUP1 DUP4 SUB DUP2 DUP7 DUP1 PUSH2 0x2673 PUSH2 0x5D94 JUMP JUMPDEST ISZERO DUP1 ISZERO PUSH2 0x2688 JUMPI PUSH1 0x0 DUP1 PUSH2 0x2685 PUSH2 0x5CCE JUMP JUMPDEST POP POP JUMPDEST POP GAS PUSH2 0x2692 PUSH2 0x5DE0 JUMP JUMPDEST POP POP POP POP POP ISZERO DUP1 ISZERO PUSH2 0x26B1 JUMPI RETURNDATASIZE PUSH1 0x0 DUP1 RETURNDATACOPY RETURNDATASIZE PUSH1 0x0 PUSH2 0x26AE PUSH2 0x5CCE JUMP JUMPDEST POP POP JUMPDEST POP POP POP POP PUSH1 0x40 MLOAD RETURNDATASIZE PUSH1 0x20 DUP2 LT ISZERO PUSH2 0x26D0 JUMPI PUSH1 0x0 DUP1 PUSH2 0x26CD PUSH2 0x5CCE JUMP JUMPDEST POP POP JUMPDEST DUP2 ADD SWAP1 DUP1 DUP1 MLOAD SWAP4 POP POP POP POP SWAP1 JUMP JUMPDEST PUSH1 0x0 PUSH1 0x1 PUSH2 0xF43 PUSH2 0x5D39 JUMP JUMPDEST PUSH1 0x0 PUSH1 0x1 PUSH1 0x1 PUSH1 0xA0 SHL SUB DUP3 AND PUSH1 0x1 PUSH1 0xB PUSH2 0x2702 PUSH2 0x5D39 JUMP JUMPDEST SWAP1 PUSH2 0x100 EXP SWAP1 DIV PUSH1 0x1 PUSH1 0x1 PUSH1 0xA0 SHL SUB AND PUSH1 0x1 PUSH1 0x1 PUSH1 0xA0 SHL SUB AND EQ PUSH2 0x2728 JUMPI POP PUSH1 0x0 PUSH2 0x1012 JUMP JUMPDEST PUSH1 0x0 JUMPDEST PUSH1 0xD DUP1 PUSH2 0x2736 PUSH2 0x5D39 JUMP JUMPDEST SWAP1 POP DUP2 LT ISZERO PUSH2 0x28BC JUMPI PUSH1 0x0 PUSH1 0xD DUP3 DUP2 PUSH2 0x274D PUSH2 0x5D39 JUMP JUMPDEST DUP2 LT PUSH2 0x2755 JUMPI INVALID JUMPDEST SWAP1 PUSH1 0x0 MSTORE PUSH1 0x20 PUSH1 0x0 KECCAK256 ADD PUSH2 0x2767 PUSH2 0x5D39 JUMP JUMPDEST PUSH1 0x0 DUP2 DUP2 MSTORE PUSH1 0xC PUSH1 0x20 MSTORE SWAP1 SWAP2 POP PUSH1 0x40 SWAP1 KECCAK256 PUSH1 0x0 SWAP1 PUSH2 0x2783 PUSH2 0x5D39 JUMP JUMPDEST PUSH1 0x1 PUSH1 0x1 PUSH1 0xA0 SHL SUB PUSH2 0x100 SWAP3 SWAP1 SWAP3 EXP SWAP1 DIV AND PUSH1 0x1 PUSH1 0xB PUSH2 0x27A1 PUSH2 0x5D39 JUMP JUMPDEST SWAP1 PUSH2 0x100 EXP SWAP1 DIV PUSH1 0x1 PUSH1 0x1 PUSH1 0xA0 SHL SUB AND PUSH1 0x1 PUSH1 0x1 PUSH1 0xA0 SHL SUB AND PUSH4 0x21F8A721 DUP4 PUSH1 0x40 MLOAD PUSH1 0x1 PUSH1 0x1 PUSH1 0xE0 SHL SUB NOT PUSH1 0xE0 DUP5 SWAP1 SHL AND DUP2 MSTORE PUSH1 0x4 DUP2 ADD SWAP2 SWAP1 SWAP2 MSTORE PUSH1 0x24 ADD PUSH1 0x20 PUSH1 0x40 MLOAD DUP1 DUP4 SUB DUP2 DUP7 DUP1 PUSH2 0x27F2 PUSH2 0x5D94 JUMP JUMPDEST ISZERO DUP1 ISZERO PUSH2 0x2807 JUMPI PUSH1 0x0 DUP1 PUSH2 0x2804 PUSH2 0x5CCE JUMP JUMPDEST POP POP JUMPDEST POP GAS PUSH2 0x2811 PUSH2 0x5DE0 JUMP JUMPDEST POP POP POP POP POP ISZERO DUP1 ISZERO PUSH2 0x2830 JUMPI RETURNDATASIZE PUSH1 0x0 DUP1 RETURNDATACOPY RETURNDATASIZE PUSH1 0x0 PUSH2 0x282D PUSH2 0x5CCE JUMP JUMPDEST POP POP JUMPDEST POP POP POP POP PUSH1 0x40 MLOAD RETURNDATASIZE PUSH1 0x20 DUP2 LT ISZERO PUSH2 0x284F JUMPI PUSH1 0x0 DUP1 PUSH2 0x284C PUSH2 0x5CCE JUMP JUMPDEST POP POP JUMPDEST DUP2 ADD SWAP1 DUP1 DUP1 MLOAD PUSH1 0x1 PUSH1 0x1 PUSH1 0xA0 SHL SUB AND SWAP4 SWAP1 SWAP4 EQ ISZERO SWAP3 POP DUP3 SWAP2 POP PUSH2 0x28A3 SWAP1 POP JUMPI POP PUSH1 0x0 DUP2 DUP2 MSTORE PUSH1 0xC PUSH1 0x20 MSTORE PUSH1 0x40 DUP2 KECCAK256 PUSH1 0x0 SWAP1 PUSH2 0x2888 PUSH2 0x5D39 JUMP JUMPDEST SWAP1 PUSH2 0x100 EXP SWAP1 DIV PUSH1 0x1 PUSH1 0x1 PUSH1 0xA0 SHL SUB AND PUSH1 0x1 PUSH1 0x1 PUSH1 0xA0 SHL SUB AND EQ JUMPDEST ISZERO PUSH2 0x28B3 JUMPI PUSH1 0x0 SWAP3 POP POP POP PUSH2 0x1012 JUMP JUMPDEST POP PUSH1 0x1 ADD PUSH2 0x272B JUMP JUMPDEST POP PUSH1 0x1 SWAP3 SWAP2 POP POP JUMP JUMPDEST PUSH1 0x40 MLOAD PUSH3 0x461BCD PUSH1 0xE5 SHL DUP2 MSTORE PUSH1 0x20 PUSH1 0x4 DUP3 ADD MSTORE PUSH1 0x1B PUSH1 0x24 DUP3 ADD MSTORE PUSH32 0x43616E6E6F742062652072756E206F6E2074686973206C617965720000000000 PUSH1 0x44 DUP3 ADD MSTORE PUSH1 0x64 ADD PUSH1 0x40 MLOAD DUP1 SWAP2 SUB SWAP1 PUSH2 0x1A9F PUSH2 0x5CCE JUMP JUMPDEST PUSH1 0x0 PUSH2 0x2921 PUSH2 0x49AA JUMP JUMPDEST PUSH1 0x1 PUSH1 0x1 PUSH1 0xA0 SHL SUB AND PUSH4 0x6BED0415 DUP4 PUSH1 0x0 PUSH1 0x7 PUSH2 0x293C PUSH2 0x5D39 JUMP JUMPDEST SWAP1 PUSH2 0x100 EXP SWAP1 DIV PUSH1 0x1 PUSH1 0x1 PUSH1 0xA0 SHL SUB AND PUSH1 0x1 PUSH1 0x1 PUSH1 0xA0 SHL SUB AND PUSH4 0x70A08231 DUP7 PUSH1 0x40 MLOAD PUSH1 0x1 PUSH1 0x1 PUSH1 0xE0 SHL SUB NOT PUSH1 0xE0 DUP5 SWAP1 SHL AND DUP2 MSTORE PUSH1 0x1 PUSH1 0x1 PUSH1 0xA0 SHL SUB SWAP1 SWAP2 AND PUSH1 0x4 DUP3 ADD MSTORE PUSH1 0x24 ADD PUSH1 0x20 PUSH1 0x40 MLOAD DUP1 DUP4 SUB DUP2 DUP7 DUP1 PUSH2 0x2995 PUSH2 0x5D94 JUMP JUMPDEST ISZERO DUP1 ISZERO PUSH2 0x29AA JUMPI PUSH1 0x0 DUP1 PUSH2 0x29A7 PUSH2 0x5CCE JUMP JUMPDEST POP POP JUMPDEST POP GAS PUSH2 0x29B4 PUSH2 0x5DE0 JUMP JUMPDEST POP POP POP POP POP ISZERO DUP1 ISZERO PUSH2 0x29D3 JUMPI RETURNDATASIZE PUSH1 0x0 DUP1 RETURNDATACOPY RETURNDATASIZE PUSH1 0x0 PUSH2 0x29D0 PUSH2 0x5CCE JUMP JUMPDEST POP POP JUMPDEST POP POP POP POP PUSH1 0x40 MLOAD RETURNDATASIZE PUSH1 0x20 DUP2 LT ISZERO PUSH2 0x29F2 JUMPI PUSH1 0x0 DUP1 PUSH2 0x29EF PUSH2 0x5CCE JUMP JUMPDEST POP POP JUMPDEST DUP2 ADD SWAP1 DUP1 DUP1 MLOAD SWAP3 POP PUSH1 0x40 SWAP2 POP POP MLOAD PUSH1 0x1 PUSH1 0x1 PUSH1 0xE0 SHL SUB NOT PUSH1 0xE0 DUP6 SWAP1 SHL AND DUP2 MSTORE PUSH1 0x1 PUSH1 0x1 PUSH1 0xA0 SHL SUB SWAP1 SWAP3 AND PUSH1 0x4 DUP4 ADD MSTORE PUSH1 0x24 DUP3 ADD MSTORE PUSH1 0x44 ADD PUSH1 0x40 DUP1 MLOAD DUP1 DUP4 SUB DUP2 DUP7 DUP1 PUSH2 0x2A3B PUSH2 0x5D94 JUMP JUMPDEST ISZERO DUP1 ISZERO PUSH2 0x2A50 JUMPI PUSH1 0x0 DUP1 PUSH2 0x2A4D PUSH2 0x5CCE JUMP JUMPDEST POP POP JUMPDEST POP GAS PUSH2 0x2A5A PUSH2 0x5DE0 JUMP JUMPDEST POP POP POP POP POP ISZERO DUP1 ISZERO PUSH2 0x2A79 JUMPI RETURNDATASIZE PUSH1 0x0 DUP1 RETURNDATACOPY RETURNDATASIZE PUSH1 0x0 PUSH2 0x2A76 PUSH2 0x5CCE JUMP JUMPDEST POP POP JUMPDEST POP POP POP POP PUSH1 0x40 MLOAD RETURNDATASIZE PUSH1 0x40 DUP2 LT ISZERO PUSH2 0x2A98 JUMPI PUSH1 0x0 DUP1 PUSH2 0x2A95 PUSH2 0x5CCE JUMP JUMPDEST POP POP JUMPDEST DUP2 ADD SWAP1 DUP1 DUP1 MLOAD SWAP3 SWAP2 SWAP1 PUSH1 0x20 ADD DUP1 MLOAD POP SWAP3 SWAP6 SWAP5 POP POP POP POP POP JUMP JUMPDEST PUSH2 0x2AB9 PUSH2 0x4E32 JUMP JUMPDEST PUSH1 0x1 PUSH1 0x1 PUSH1 0xA0 SHL SUB AND GAS PUSH2 0x2ACB PUSH2 0x5F52 JUMP JUMPDEST PUSH1 0x1 PUSH1 0x1 PUSH1 0xA0 SHL SUB AND EQ PUSH2 0x2B1C JUMPI PUSH1 0x40 MLOAD PUSH3 0x461BCD PUSH1 0xE5 SHL DUP2 MSTORE PUSH1 0x20 PUSH1 0x4 DUP3 ADD MSTORE PUSH1 0x1E PUSH1 0x24 DUP3 ADD MSTORE PUSH1 0x0 DUP1 MLOAD PUSH1 0x20 PUSH2 0x60A7 DUP4 CODECOPY DUP2 MLOAD SWAP2 MSTORE PUSH1 0x44 DUP3 ADD MSTORE PUSH1 0x64 ADD PUSH1 0x40 MLOAD DUP1 SWAP2 SUB SWAP1 PUSH2 0x2B19 PUSH2 0x5CCE JUMP JUMPDEST POP POP JUMPDEST PUSH1 0x0 PUSH1 0x4 PUSH2 0x2B28 PUSH2 0x5D39 JUMP JUMPDEST SWAP1 PUSH2 0x100 EXP SWAP1 DIV PUSH1 0x1 PUSH1 0x1 PUSH1 0xA0 SHL SUB AND PUSH1 0x1 PUSH1 0x1 PUSH1 0xA0 SHL SUB AND PUSH4 0x907DFF97 DUP7 DUP7 DUP7 DUP7 DUP7 PUSH1 0x40 MLOAD PUSH1 0x20 DUP2 ADD SWAP6 SWAP1 SWAP6 MSTORE PUSH1 0x40 DUP1 DUP7 ADD SWAP5 SWAP1 SWAP5 MSTORE PUSH1 0x60 DUP6 ADD SWAP3 SWAP1 SWAP3 MSTORE PUSH1 0x80 DUP5 ADD MSTORE PUSH1 0x1 PUSH1 0x1 PUSH1 0xA0 SHL SUB AND PUSH1 0xA0 DUP4 ADD MSTORE PUSH1 0xC0 SWAP1 SWAP2 ADD SWAP1 MLOAD PUSH1 0x20 DUP2 DUP4 SUB SUB DUP2 MSTORE SWAP1 PUSH1 0x40 MSTORE PUSH1 0x2 PUSH1 0x40 MLOAD DUP1 PUSH1 0x3E PUSH2 0x60C7 DUP3 CODECOPY PUSH1 0x3E ADD SWAP1 POP PUSH1 0x40 MLOAD DUP1 SWAP2 SUB SWAP1 KECCAK256 PUSH2 0x2BB0 DUP12 PUSH2 0x5338 JUMP JUMPDEST PUSH1 0x0 DUP1 PUSH1 0x40 MLOAD DUP8 PUSH4 0xFFFFFFFF AND PUSH1 0xE0 SHL DUP2 MSTORE PUSH1 0x4 ADD DUP1 DUP1 PUSH1 0x20 ADD DUP8 DUP2 MSTORE PUSH1 0x20 ADD DUP7 DUP2 MSTORE PUSH1 0x20 ADD DUP6 DUP2 MSTORE PUSH1 0x20 ADD DUP5 PUSH1 0x0 SHL DUP2 MSTORE PUSH1 0x20 ADD DUP4 PUSH1 0x0 SHL DUP2 MSTORE PUSH1 0x20 ADD DUP3 DUP2 SUB DUP3 MSTORE DUP9 DUP2 DUP2 MLOAD DUP2 MSTORE PUSH1 0x20 ADD SWAP2 POP DUP1 MLOAD SWAP1 PUSH1 0x20 ADD SWAP1 DUP1 DUP4 DUP4 PUSH1 0x0 JUMPDEST DUP4 DUP2 LT ISZERO PUSH2 0x2C23 JUMPI DUP1 DUP3 ADD MLOAD DUP4 DUP3 ADD MSTORE PUSH1 0x20 ADD PUSH2 0x2C0B JUMP JUMPDEST POP POP POP POP SWAP1 POP SWAP1 DUP2 ADD SWAP1 PUSH1 0x1F AND DUP1 ISZERO PUSH2 0x2C50 JUMPI DUP1 DUP3 SUB DUP1 MLOAD PUSH1 0x1 DUP4 PUSH1 0x20 SUB PUSH2 0x100 EXP SUB NOT AND DUP2 MSTORE PUSH1 0x20 ADD SWAP2 POP JUMPDEST POP SWAP8 POP POP POP POP POP POP POP POP PUSH1 0x0 PUSH1 0x40 MLOAD DUP1 DUP4 SUB DUP2 PUSH1 0x0 DUP8 DUP1 PUSH2 0x2C6F PUSH2 0x5D94 JUMP JUMPDEST ISZERO DUP1 ISZERO PUSH2 0x2C84 JUMPI PUSH1 0x0 DUP1 PUSH2 0x2C81 PUSH2 0x5CCE JUMP JUMPDEST POP POP JUMPDEST POP GAS PUSH2 0x2C8E PUSH2 0x5E99 JUMP JUMPDEST POP POP POP POP POP POP ISZERO DUP1 ISZERO PUSH2 0x2CAE JUMPI RETURNDATASIZE PUSH1 0x0 DUP1 RETURNDATACOPY RETURNDATASIZE PUSH1 0x0 PUSH2 0x2CAB PUSH2 0x5CCE JUMP JUMPDEST POP POP JUMPDEST POP POP POP POP POP POP POP POP POP POP JUMP JUMPDEST PUSH2 0x2CC2 PUSH2 0x4E32 JUMP JUMPDEST PUSH1 0x1 PUSH1 0x1 PUSH1 0xA0 SHL SUB AND GAS PUSH2 0x2CD4 PUSH2 0x5F52 JUMP JUMPDEST PUSH1 0x1 PUSH1 0x1 PUSH1 0xA0 SHL SUB AND EQ PUSH2 0x2D25 JUMPI PUSH1 0x40 MLOAD PUSH3 0x461BCD PUSH1 0xE5 SHL DUP2 MSTORE PUSH1 0x20 PUSH1 0x4 DUP3 ADD MSTORE PUSH1 0x1E PUSH1 0x24 DUP3 ADD MSTORE PUSH1 0x0 DUP1 MLOAD PUSH1 0x20 PUSH2 0x60A7 DUP4 CODECOPY DUP2 MLOAD SWAP2 MSTORE PUSH1 0x44 DUP3 ADD MSTORE PUSH1 0x64 ADD PUSH1 0x40 MLOAD DUP1 SWAP2 SUB SWAP1 PUSH2 0x2D22 PUSH2 0x5CCE JUMP JUMPDEST POP POP JUMPDEST PUSH1 0x0 PUSH1 0x4 PUSH2 0x2D31 PUSH2 0x5D39 JUMP JUMPDEST SWAP1 PUSH2 0x100 EXP SWAP1 DIV PUSH1 0x1 PUSH1 0x1 PUSH1 0xA0 SHL SUB AND PUSH1 0x1 PUSH1 0x1 PUSH1 0xA0 SHL SUB AND PUSH4 0x907DFF97 DUP4 DUP4 PUSH1 0x40 MLOAD PUSH1 0x20 ADD DUP1 DUP4 DUP2 MSTORE PUSH1 0x20 ADD DUP3 DUP2 MSTORE PUSH1 0x20 ADD SWAP3 POP POP POP PUSH1 0x40 MLOAD PUSH1 0x20 DUP2 DUP4 SUB SUB DUP2 MSTORE SWAP1 PUSH1 0x40 MSTORE PUSH1 0x2 PUSH1 0x40 MLOAD DUP1 PUSH1 0x27 PUSH2 0x619E DUP3 CODECOPY PUSH1 0x27 ADD SWAP1 POP PUSH1 0x40 MLOAD DUP1 SWAP2 SUB SWAP1 KECCAK256 PUSH2 0x2D9A DUP9 PUSH2 0x5338 JUMP JUMPDEST PUSH1 0x0 DUP1 PUSH1 0x40 MLOAD DUP8 PUSH4 0xFFFFFFFF AND PUSH1 0xE0 SHL DUP2 MSTORE PUSH1 0x4 ADD DUP1 DUP1 PUSH1 0x20 ADD DUP8 DUP2 MSTORE PUSH1 0x20 ADD DUP7 DUP2 MSTORE PUSH1 0x20 ADD DUP6 DUP2 MSTORE PUSH1 0x20 ADD DUP5 PUSH1 0x0 SHL DUP2 MSTORE PUSH1 0x20 ADD DUP4 PUSH1 0x0 SHL DUP2 MSTORE PUSH1 0x20 ADD DUP3 DUP2 SUB DUP3 MSTORE DUP9 DUP2 DUP2 MLOAD DUP2 MSTORE PUSH1 0x20 ADD SWAP2 POP DUP1 MLOAD SWAP1 PUSH1 0x20 ADD SWAP1 DUP1 DUP4 DUP4 PUSH1 0x0 JUMPDEST DUP4 DUP2 LT ISZERO PUSH2 0x2E0D JUMPI DUP1 DUP3 ADD MLOAD DUP4 DUP3 ADD MSTORE PUSH1 0x20 ADD PUSH2 0x2DF5 JUMP JUMPDEST POP POP POP POP SWAP1 POP SWAP1 DUP2 ADD SWAP1 PUSH1 0x1F AND DUP1 ISZERO PUSH2 0x2E3A JUMPI DUP1 DUP3 SUB DUP1 MLOAD PUSH1 0x1 DUP4 PUSH1 0x20 SUB PUSH2 0x100 EXP SUB NOT AND DUP2 MSTORE PUSH1 0x20 ADD SWAP2 POP JUMPDEST POP SWAP8 POP POP POP POP POP POP POP POP PUSH1 0x0 PUSH1 0x40 MLOAD DUP1 DUP4 SUB DUP2 PUSH1 0x0 DUP8 DUP1 PUSH2 0x2E59 PUSH2 0x5D94 JUMP JUMPDEST ISZERO DUP1 ISZERO PUSH2 0x2E6E JUMPI PUSH1 0x0 DUP1 PUSH2 0x2E6B PUSH2 0x5CCE JUMP JUMPDEST POP POP JUMPDEST POP GAS PUSH2 0x2E78 PUSH2 0x5E99 JUMP JUMPDEST POP POP POP POP POP POP ISZERO DUP1 ISZERO PUSH2 0x1F7A JUMPI RETURNDATASIZE PUSH1 0x0 DUP1 RETURNDATACOPY RETURNDATASIZE PUSH1 0x0 PUSH2 0x2E95 PUSH2 0x5CCE JUMP JUMPDEST POP POP POP POP POP POP POP POP POP JUMP JUMPDEST PUSH1 0x0 DUP1 PUSH1 0x7 PUSH2 0x2EAD PUSH2 0x5D39 JUMP JUMPDEST SWAP1 PUSH2 0x100 EXP SWAP1 DIV PUSH1 0x1 PUSH1 0x1 PUSH1 0xA0 SHL SUB AND PUSH1 0x1 PUSH1 0x1 PUSH1 0xA0 SHL SUB AND PUSH4 0x70A08231 DUP4 PUSH1 0x40 MLOAD PUSH1 0x1 PUSH1 0x1 PUSH1 0xE0 SHL SUB NOT PUSH1 0xE0 DUP5 SWAP1 SHL AND DUP2 MSTORE PUSH1 0x1 PUSH1 0x1 PUSH1 0xA0 SHL SUB SWAP1 SWAP2 AND PUSH1 0x4 DUP3 ADD MSTORE PUSH1 0x24 ADD PUSH1 0x20 PUSH1 0x40 MLOAD DUP1 DUP4 SUB DUP2 DUP7 DUP1 PUSH2 0xFA9 PUSH2 0x5D94 JUMP JUMPDEST PUSH1 0x60 PUSH2 0x2F10 PUSH2 0x49AA JUMP JUMPDEST PUSH1 0x1 PUSH1 0x1 PUSH1 0xA0 SHL SUB AND PUSH4 0x72CB051F PUSH1 0x40 MLOAD DUP2 PUSH4 0xFFFFFFFF AND PUSH1 0xE0 SHL DUP2 MSTORE PUSH1 0x4 ADD PUSH1 0x0 PUSH1 0x40 MLOAD DUP1 DUP4 SUB DUP2 DUP7 DUP1 PUSH2 0x2F43 PUSH2 0x5D94 JUMP JUMPDEST ISZERO DUP1 ISZERO PUSH2 0x2F58 JUMPI PUSH1 0x0 DUP1 PUSH2 0x2F55 PUSH2 0x5CCE JUMP JUMPDEST POP POP JUMPDEST POP GAS PUSH2 0x2F62 PUSH2 0x5DE0 JUMP JUMPDEST POP POP POP POP POP ISZERO DUP1 ISZERO PUSH2 0x2F81 JUMPI RETURNDATASIZE PUSH1 0x0 DUP1 RETURNDATACOPY RETURNDATASIZE PUSH1 0x0 PUSH2 0x2F7E PUSH2 0x5CCE JUMP JUMPDEST POP POP JUMPDEST POP POP POP POP PUSH1 0x40 MLOAD RETURNDATASIZE PUSH1 0x0 DUP3 RETURNDATACOPY PUSH1 0x1F RETURNDATASIZE SWAP1 DUP2 ADD PUSH1 0x1F NOT AND DUP3 ADD PUSH1 0x40 MSTORE PUSH1 0x20 DUP2 LT ISZERO PUSH2 0x2FB3 JUMPI PUSH1 0x0 DUP1 PUSH2 0x2FB0 PUSH2 0x5CCE JUMP JUMPDEST POP POP JUMPDEST DUP2 ADD SWAP1 DUP1 DUP1 MLOAD PUSH1 0x40 MLOAD SWAP4 SWAP3 SWAP2 SWAP1 DUP5 PUSH5 0x100000000 DUP3 GT ISZERO PUSH2 0x2FDC JUMPI PUSH1 0x0 DUP1 PUSH2 0x2FD9 PUSH2 0x5CCE JUMP JUMPDEST POP POP JUMPDEST SWAP1 DUP4 ADD SWAP1 PUSH1 0x20 DUP3 ADD DUP6 DUP2 GT ISZERO PUSH2 0x2FFA JUMPI PUSH1 0x0 DUP1 PUSH2 0x2FF7 PUSH2 0x5CCE JUMP JUMPDEST POP POP JUMPDEST DUP3 MLOAD DUP7 PUSH1 0x20 DUP3 MUL DUP4 ADD GT PUSH5 0x100000000 DUP3 GT OR ISZERO PUSH2 0x3020 JUMPI PUSH1 0x0 DUP1 PUSH2 0x301D PUSH2 0x5CCE JUMP JUMPDEST POP POP JUMPDEST DUP3 MSTORE POP PUSH1 0x20 ADD SWAP1 DUP1 MLOAD SWAP1 PUSH1 0x20 ADD SWAP1 PUSH1 0x20 MUL DUP1 DUP4 DUP4 PUSH1 0x0 JUMPDEST DUP4 DUP2 LT ISZERO PUSH2 0x304F JUMPI DUP1 DUP3 ADD MLOAD DUP4 DUP3 ADD MSTORE PUSH1 0x20 ADD PUSH2 0x3037 JUMP JUMPDEST POP POP POP POP SWAP1 POP ADD PUSH1 0x40 MSTORE POP POP POP SWAP1 POP SWAP1 JUMP JUMPDEST PUSH1 0x0 PUSH1 0x1 PUSH2 0x306D PUSH2 0x5D39 JUMP JUMPDEST SWAP1 PUSH2 0x100 EXP SWAP1 DIV PUSH1 0x1 PUSH1 0x1 PUSH1 0xA0 SHL SUB AND PUSH1 0x1 PUSH1 0x1 PUSH1 0xA0 SHL SUB AND GAS PUSH2 0x308F PUSH2 0x5F52 JUMP JUMPDEST PUSH1 0x1 PUSH1 0x1 PUSH1 0xA0 SHL SUB AND EQ PUSH2 0x30DD JUMPI PUSH1 0x40 MLOAD PUSH3 0x461BCD PUSH1 0xE5 SHL DUP2 MSTORE PUSH1 0x4 ADD DUP1 DUP1 PUSH1 0x20 ADD DUP3 DUP2 SUB DUP3 MSTORE PUSH1 0x35 DUP2 MSTORE PUSH1 0x20 ADD DUP1 PUSH2 0x604A PUSH1 0x35 SWAP2 CODECOPY PUSH1 0x40 ADD SWAP2 POP POP PUSH1 0x40 MLOAD DUP1 SWAP2 SUB SWAP1 PUSH2 0x30DA PUSH2 0x5CCE JUMP JUMPDEST POP POP JUMPDEST PUSH32 0xB532073B38C83145E3E5135377A08BF9AAB55BC0FD7C1179CD4FB995D2A5159C PUSH1 0x0 DUP1 PUSH2 0x3109 PUSH2 0x5D39 JUMP JUMPDEST SWAP1 PUSH2 0x100 EXP SWAP1 DIV PUSH1 0x1 PUSH1 0x1 PUSH1 0xA0 SHL SUB AND PUSH1 0x1 PUSH1 0x0 SWAP1 PUSH2 0x3126 PUSH2 0x5D39 JUMP JUMPDEST SWAP1 PUSH2 0x100 EXP SWAP1 DIV PUSH1 0x1 PUSH1 0x1 PUSH1 0xA0 SHL SUB AND PUSH1 0x40 MLOAD PUSH1 0x1 PUSH1 0x1 PUSH1 0xA0 SHL SUB SWAP3 DUP4 AND DUP2 MSTORE SWAP2 AND PUSH1 0x20 DUP3 ADD MSTORE PUSH1 0x40 SWAP1 DUP2 ADD SWAP1 MLOAD DUP1 SWAP2 SUB SWAP1 LOG1 PUSH1 0x0 PUSH1 0x1 PUSH2 0x3165 PUSH2 0x5D39 JUMP JUMPDEST SWAP1 PUSH2 0x100 EXP SWAP1 DIV PUSH1 0x1 PUSH1 0x1 PUSH1 0xA0 SHL SUB AND PUSH1 0x0 DUP1 PUSH2 0x100 EXP DUP2 PUSH2 0x3185 PUSH2 0x5D39 JUMP JUMPDEST DUP2 PUSH1 0x1 PUSH1 0x1 PUSH1 0xA0 SHL SUB MUL NOT AND SWAP1 DUP4 PUSH1 0x1 PUSH1 0x1 PUSH1 0xA0 SHL SUB AND MUL OR SWAP1 PUSH2 0x31A7 PUSH2 0x5F98 JUMP JUMPDEST POP POP POP PUSH1 0x0 PUSH1 0x1 PUSH1 0x0 PUSH2 0x100 EXP DUP2 PUSH2 0x31BD PUSH2 0x5D39 JUMP JUMPDEST DUP2 PUSH1 0x1 PUSH1 0x1 PUSH1 0xA0 SHL SUB MUL NOT AND SWAP1 DUP4 PUSH1 0x1 PUSH1 0x1 PUSH1 0xA0 SHL SUB AND MUL OR SWAP1 PUSH2 0x31DF PUSH2 0x5F98 JUMP JUMPDEST POP POP POP JUMP JUMPDEST PUSH1 0x0 PUSH2 0x31EE PUSH2 0x49AA JUMP JUMPDEST PUSH1 0x1 PUSH1 0x1 PUSH1 0xA0 SHL SUB AND PUSH4 0x835E119C DUP4 PUSH1 0x40 MLOAD PUSH1 0x1 PUSH1 0x1 PUSH1 0xE0 SHL SUB NOT PUSH1 0xE0 DUP5 SWAP1 SHL AND DUP2 MSTORE PUSH1 0x4 DUP2 ADD SWAP2 SWAP1 SWAP2 MSTORE PUSH1 0x24 ADD PUSH1 0x20 PUSH1 0x40 MLOAD DUP1 DUP4 SUB DUP2 DUP7 DUP1 PUSH2 0xFA9 PUSH2 0x5D94 JUMP JUMPDEST PUSH1 0x0 PUSH2 0x3239 PUSH2 0x49AA JUMP JUMPDEST PUSH1 0x1 PUSH1 0x1 PUSH1 0xA0 SHL SUB AND PUSH4 0x7B1001B7 DUP4 PUSH1 0x0 PUSH1 0x40 MLOAD PUSH1 0x1 PUSH1 0x1 PUSH1 0xE0 SHL SUB NOT PUSH1 0xE0 DUP6 SWAP1 SHL AND DUP2 MSTORE PUSH1 0x4 DUP2 ADD SWAP3 SWAP1 SWAP3 MSTORE ISZERO ISZERO PUSH1 0x24 DUP3 ADD MSTORE PUSH1 0x44 ADD PUSH1 0x20 PUSH1 0x40 MLOAD DUP1 DUP4 SUB DUP2 DUP7 DUP1 PUSH2 0xFA9 PUSH2 0x5D94 JUMP JUMPDEST PUSH2 0x328B PUSH2 0x4BA9 JUMP JUMPDEST PUSH1 0x1 PUSH1 0x1 PUSH1 0xA0 SHL SUB AND PUSH4 0x7C312541 PUSH1 0x40 MLOAD DUP2 PUSH4 0xFFFFFFFF AND PUSH1 0xE0 SHL DUP2 MSTORE PUSH1 0x4 ADD PUSH1 0x0 PUSH1 0x40 MLOAD DUP1 DUP4 SUB DUP2 DUP7 DUP1 PUSH2 0x32BE PUSH2 0x5D94 JUMP JUMPDEST ISZERO DUP1 ISZERO PUSH2 0x32D3 JUMPI PUSH1 0x0 DUP1 PUSH2 0x32D0 PUSH2 0x5CCE JUMP JUMPDEST POP POP JUMPDEST POP GAS PUSH2 0x32DD PUSH2 0x5DE0 JUMP JUMPDEST POP POP POP POP POP ISZERO DUP1 ISZERO PUSH2 0x32FC JUMPI RETURNDATASIZE PUSH1 0x0 DUP1 RETURNDATACOPY RETURNDATASIZE PUSH1 0x0 PUSH2 0x32F9 PUSH2 0x5CCE JUMP JUMPDEST POP POP JUMPDEST POP POP POP POP PUSH2 0x3308 PUSH2 0x49F0 JUMP JUMPDEST PUSH2 0x3310 PUSH2 0x49AA JUMP JUMPDEST PUSH1 0x1 PUSH1 0x1 PUSH1 0xA0 SHL SUB AND PUSH4 0x42E0688 PUSH1 0x0 PUSH1 0x6 PUSH2 0x1EEC PUSH2 0x5D39 JUMP JUMPDEST PUSH1 0x0 DUP1 PUSH2 0xF43 PUSH2 0x5D39 JUMP JUMPDEST PUSH1 0x0 DUP6 DUP5 PUSH2 0x3341 PUSH2 0x4BA9 JUMP JUMPDEST PUSH1 0x1 PUSH1 0x1 PUSH1 0xA0 SHL SUB AND PUSH4 0x7118D431 PUSH1 0x40 MLOAD DUP2 PUSH4 0xFFFFFFFF AND PUSH1 0xE0 SHL DUP2 MSTORE PUSH1 0x4 ADD PUSH1 0x0 PUSH1 0x40 MLOAD DUP1 DUP4 SUB DUP2 DUP7 DUP1 PUSH2 0x3374 PUSH2 0x5D94 JUMP JUMPDEST ISZERO DUP1 ISZERO PUSH2 0x3389 JUMPI PUSH1 0x0 DUP1 PUSH2 0x3386 PUSH2 0x5CCE JUMP JUMPDEST POP POP JUMPDEST POP GAS PUSH2 0x3393 PUSH2 0x5DE0 JUMP JUMPDEST POP POP POP POP POP ISZERO DUP1 ISZERO PUSH2 0x33B2 JUMPI RETURNDATASIZE PUSH1 0x0 DUP1 RETURNDATACOPY RETURNDATASIZE PUSH1 0x0 PUSH2 0x33AF PUSH2 0x5CCE JUMP JUMPDEST POP POP JUMPDEST POP POP POP POP PUSH2 0x33BE PUSH2 0x4BA9 JUMP JUMPDEST PUSH1 0x1 PUSH1 0x1 PUSH1 0xA0 SHL SUB AND PUSH4 0x6132EBA4 DUP4 DUP4 PUSH1 0x40 MLOAD PUSH1 0x1 PUSH1 0x1 PUSH1 0xE0 SHL SUB NOT PUSH1 0xE0 DUP6 SWAP1 SHL AND DUP2 MSTORE PUSH1 0x4 DUP2 ADD SWAP3 SWAP1 SWAP3 MSTORE PUSH1 0x24 DUP3 ADD MSTORE PUSH1 0x44 ADD PUSH1 0x0 PUSH1 0x40 MLOAD DUP1 DUP4 SUB DUP2 DUP7 DUP1 PUSH2 0x3405 PUSH2 0x5D94 JUMP JUMPDEST ISZERO DUP1 ISZERO PUSH2 0x341A JUMPI PUSH1 0x0 DUP1 PUSH2 0x3417 PUSH2 0x5CCE JUMP JUMPDEST POP POP JUMPDEST POP GAS PUSH2 0x3424 PUSH2 0x5DE0 JUMP JUMPDEST POP POP POP POP POP ISZERO DUP1 ISZERO PUSH2 0x3443 JUMPI RETURNDATASIZE PUSH1 0x0 DUP1 RETURNDATACOPY RETURNDATASIZE PUSH1 0x0 PUSH2 0x3440 PUSH2 0x5CCE JUMP JUMPDEST POP POP JUMPDEST POP POP POP POP PUSH2 0x344F PUSH2 0x49F0 JUMP JUMPDEST PUSH2 0x3457 PUSH2 0x4E32 JUMP JUMPDEST PUSH1 0x1 PUSH1 0x1 PUSH1 0xA0 SHL SUB AND PUSH4 0xDFFFCA76 DUP11 PUSH1 0x0 PUSH1 0x6 PUSH2 0x3472 PUSH2 0x5D39 JUMP JUMPDEST SWAP1 PUSH2 0x100 EXP SWAP1 DIV PUSH1 0x1 PUSH1 0x1 PUSH1 0xA0 SHL SUB AND DUP12 DUP12 DUP12 DUP12 DUP12 PUSH1 0x40 MLOAD PUSH1 0x1 PUSH1 0x1 PUSH1 0xE0 SHL SUB NOT PUSH1 0xE0 DUP11 SWAP1 SHL AND DUP2 MSTORE PUSH1 0x1 PUSH1 0x1 PUSH1 0xA0 SHL SUB SWAP8 DUP9 AND PUSH1 0x4 DUP3 ADD MSTORE SWAP6 DUP8 AND PUSH1 0x24 DUP8 ADD MSTORE PUSH1 0x44 DUP7 ADD SWAP5 SWAP1 SWAP5 MSTORE PUSH1 0x64 DUP6 ADD SWAP3 SWAP1 SWAP3 MSTORE PUSH1 0x84 DUP5 ADD MSTORE SWAP1 SWAP3 AND PUSH1 0xA4 DUP3 ADD MSTORE PUSH1 0xC4 DUP2 ADD SWAP2 SWAP1 SWAP2 MSTORE PUSH1 0xE4 ADD PUSH1 0x20 PUSH1 0x40 MLOAD DUP1 DUP4 SUB DUP2 PUSH1 0x0 DUP8 DUP1 PUSH2 0x34F0 PUSH2 0x5D94 JUMP JUMPDEST ISZERO DUP1 ISZERO PUSH2 0x3505 JUMPI PUSH1 0x0 DUP1 PUSH2 0x3502 PUSH2 0x5CCE JUMP JUMPDEST POP POP JUMPDEST POP GAS PUSH2 0x350F PUSH2 0x5E99 JUMP JUMPDEST POP POP POP POP POP POP ISZERO DUP1 ISZERO PUSH2 0x352F JUMPI RETURNDATASIZE PUSH1 0x0 DUP1 RETURNDATACOPY RETURNDATASIZE PUSH1 0x0 PUSH2 0x352C PUSH2 0x5CCE JUMP JUMPDEST POP POP JUMPDEST POP POP POP POP PUSH1 0x40 MLOAD RETURNDATASIZE PUSH1 0x20 DUP2 LT ISZERO PUSH2 0x354E JUMPI PUSH1 0x0 DUP1 PUSH2 0x354B PUSH2 0x5CCE JUMP JUMPDEST POP POP JUMPDEST DUP2 ADD SWAP1 DUP1 DUP1 MLOAD SWAP13 SWAP12 POP POP POP POP POP POP POP POP POP POP POP POP JUMP JUMPDEST PUSH4 0x1CD554D1 PUSH1 0xE2 SHL DUP2 JUMP JUMPDEST PUSH1 0x9 DUP1 PUSH2 0x357A PUSH2 0x5D39 JUMP JUMPDEST PUSH1 0x1 DUP2 PUSH1 0x1 AND ISZERO PUSH2 0x100 MUL SUB AND PUSH1 0x2 SWAP1 DIV DUP1 PUSH1 0x1F ADD PUSH1 0x20 DUP1 SWAP2 DIV MUL PUSH1 0x20 ADD PUSH1 0x40 MLOAD SWAP1 DUP2 ADD PUSH1 0x40 MSTORE DUP2 DUP2 MSTORE SWAP2 SWAP1 PUSH1 0x20 DUP4 ADD DUP3 DUP1 PUSH2 0x35B4 PUSH2 0x5D39 JUMP JUMPDEST PUSH1 0x1 DUP2 PUSH1 0x1 AND ISZERO PUSH2 0x100 MUL SUB AND PUSH1 0x2 SWAP1 DIV DUP1 ISZERO PUSH2 0x10C8 JUMPI DUP1 PUSH1 0x1F LT PUSH2 0x35E0 JUMPI PUSH2 0x100 DUP1 DUP4 PUSH2 0x1088 PUSH2 0x5D39 JUMP JUMPDEST DUP3 ADD SWAP2 SWAP1 PUSH1 0x0 MSTORE PUSH1 0x20 PUSH1 0x0 KECCAK256 SWAP1 JUMPDEST DUP2 PUSH2 0x35F7 PUSH2 0x5D39 JUMP JUMPDEST DUP2 MSTORE SWAP1 PUSH1 0x1 ADD SWAP1 PUSH1 0x20 ADD DUP1 DUP4 GT PUSH2 0x35EE JUMPI POP DUP6 SWAP4 POP POP POP POP JUMP JUMPDEST PUSH2 0x3619 PUSH2 0x4DBA JUMP JUMPDEST DUP1 PUSH1 0x4 PUSH1 0x1 DUP2 PUSH2 0x3627 PUSH2 0x5D39 JUMP JUMPDEST DUP2 PUSH1 0x1 PUSH1 0x1 PUSH1 0xA0 SHL SUB MUL NOT AND SWAP1 DUP4 PUSH1 0x1 PUSH1 0x1 PUSH1 0xA0 SHL SUB AND MUL OR SWAP1 PUSH2 0x3649 PUSH2 0x5F98 JUMP JUMPDEST POP POP POP PUSH32 0xFC80377CA9C49CC11AE6982F390A42DB976D5530AF7C43889264B13FBBD7C57E DUP2 PUSH1 0x40 MLOAD PUSH1 0x1 PUSH1 0x1 PUSH1 0xA0 SHL SUB SWAP1 SWAP2 AND DUP2 MSTORE PUSH1 0x20 ADD PUSH1 0x40 MLOAD DUP1 SWAP2 SUB SWAP1 LOG1 POP JUMP JUMPDEST PUSH2 0x3694 PUSH2 0x4BA9 JUMP JUMPDEST PUSH1 0x1 PUSH1 0x1 PUSH1 0xA0 SHL SUB AND PUSH4 0x7C312541 PUSH1 0x40 MLOAD DUP2 PUSH4 0xFFFFFFFF AND PUSH1 0xE0 SHL DUP2 MSTORE PUSH1 0x4 ADD PUSH1 0x0 PUSH1 0x40 MLOAD DUP1 DUP4 SUB DUP2 DUP7 DUP1 PUSH2 0x36C7 PUSH2 0x5D94 JUMP JUMPDEST ISZERO DUP1 ISZERO PUSH2 0x36DC JUMPI PUSH1 0x0 DUP1 PUSH2 0x36D9 PUSH2 0x5CCE JUMP JUMPDEST POP POP JUMPDEST POP GAS PUSH2 0x36E6 PUSH2 0x5DE0 JUMP JUMPDEST POP POP POP POP POP ISZERO DUP1 ISZERO PUSH2 0x3705 JUMPI RETURNDATASIZE PUSH1 0x0 DUP1 RETURNDATACOPY RETURNDATASIZE PUSH1 0x0 PUSH2 0x3702 PUSH2 0x5CCE JUMP JUMPDEST POP POP JUMPDEST POP POP POP POP PUSH2 0x3711 PUSH2 0x49F0 JUMP JUMPDEST PUSH2 0x3719 PUSH2 0x49AA JUMP JUMPDEST PUSH1 0x1 PUSH1 0x1 PUSH1 0xA0 SHL SUB AND PUSH4 0x497D704A PUSH1 0x0 PUSH1 0x6 PUSH2 0x3733 PUSH2 0x5D39 JUMP JUMPDEST SWAP1 PUSH2 0x100 EXP SWAP1 DIV PUSH1 0x1 PUSH1 0x1 PUSH1 0xA0 SHL SUB AND PUSH1 0x40 MLOAD PUSH1 0x1 PUSH1 0x1 PUSH1 0xE0 SHL SUB NOT PUSH1 0xE0 DUP5 SWAP1 SHL AND DUP2 MSTORE PUSH1 0x1 PUSH1 0x1 PUSH1 0xA0 SHL SUB SWAP1 SWAP2 AND PUSH1 0x4 DUP3 ADD MSTORE PUSH1 0x24 ADD PUSH1 0x0 PUSH1 0x40 MLOAD DUP1 DUP4 SUB DUP2 PUSH1 0x0 DUP8 DUP1 PUSH2 0x377F PUSH2 0x5D94 JUMP JUMPDEST ISZERO DUP1 ISZERO PUSH2 0x3794 JUMPI PUSH1 0x0 DUP1 PUSH2 0x3791 PUSH2 0x5CCE JUMP JUMPDEST POP POP JUMPDEST POP GAS PUSH2 0x379E PUSH2 0x5E99 JUMP JUMPDEST POP POP POP POP POP POP ISZERO DUP1 ISZERO PUSH2 0x1A9F JUMPI RETURNDATASIZE PUSH1 0x0 DUP1 RETURNDATACOPY RETURNDATASIZE PUSH1 0x0 PUSH2 0x37BB PUSH2 0x5CCE JUMP JUMPDEST POP POP POP POP POP POP JUMPDEST JUMP JUMPDEST PUSH1 0x0 DUP1 PUSH1 0x0 PUSH2 0x37D1 PUSH2 0x49F0 JUMP JUMPDEST PUSH2 0x37D9 PUSH2 0x4E32 JUMP JUMPDEST PUSH1 0x1 PUSH1 0x1 PUSH1 0xA0 SHL SUB AND PUSH4 0x1B16802C PUSH1 0x0 PUSH1 0x6 PUSH2 0x37F3 PUSH2 0x5D39 JUMP JUMPDEST SWAP1 PUSH2 0x100 EXP SWAP1 DIV PUSH1 0x1 PUSH1 0x1 PUSH1 0xA0 SHL SUB AND DUP7 PUSH1 0x40 MLOAD PUSH1 0x1 PUSH1 0x1 PUSH1 0xE0 SHL SUB NOT PUSH1 0xE0 DUP6 SWAP1 SHL AND DUP2 MSTORE PUSH1 0x1 PUSH1 0x1 PUSH1 0xA0 SHL SUB SWAP1 SWAP3 AND PUSH1 0x4 DUP4 ADD MSTORE PUSH1 0x24 DUP3 ADD MSTORE PUSH1 0x44 ADD PUSH1 0x60 PUSH1 0x40 MLOAD DUP1 DUP4 SUB DUP2 PUSH1 0x0 DUP8 DUP1 PUSH2 0x3845 PUSH2 0x5D94 JUMP JUMPDEST ISZERO DUP1 ISZERO PUSH2 0x385A JUMPI PUSH1 0x0 DUP1 PUSH2 0x3857 PUSH2 0x5CCE JUMP JUMPDEST POP POP JUMPDEST POP GAS PUSH2 0x3864 PUSH2 0x5E99 JUMP JUMPDEST POP POP POP POP POP POP ISZERO DUP1 ISZERO PUSH2 0x1260 JUMPI RETURNDATASIZE PUSH1 0x0 DUP1 RETURNDATACOPY RETURNDATASIZE PUSH1 0x0 PUSH2 0x125D PUSH2 0x5CCE JUMP JUMPDEST PUSH2 0x3889 PUSH2 0x4DBA JUMP JUMPDEST PUSH1 0x0 PUSH1 0x3 PUSH2 0x3895 PUSH2 0x5D39 JUMP JUMPDEST SWAP1 PUSH2 0x100 EXP SWAP1 DIV PUSH1 0xFF AND PUSH2 0x38F8 JUMPI PUSH1 0x40 MLOAD PUSH3 0x461BCD PUSH1 0xE5 SHL DUP2 MSTORE PUSH1 0x20 PUSH1 0x4 DUP3 ADD MSTORE PUSH1 0x1F PUSH1 0x24 DUP3 ADD MSTORE PUSH32 0x53656C66204465737472756374206E6F742079657420696E6974696174656400 PUSH1 0x44 DUP3 ADD MSTORE PUSH1 0x64 ADD PUSH1 0x40 MLOAD DUP1 SWAP2 SUB SWAP1 PUSH2 0x38F5 PUSH2 0x5CCE JUMP JUMPDEST POP POP JUMPDEST GAS PUSH2 0x3901 PUSH2 0x5FE6 JUMP JUMPDEST PUSH3 0x24EA00 PUSH1 0x2 PUSH2 0x390F PUSH2 0x5D39 JUMP JUMPDEST ADD LT PUSH2 0x396A JUMPI PUSH1 0x40 MLOAD PUSH3 0x461BCD PUSH1 0xE5 SHL DUP2 MSTORE PUSH1 0x20 PUSH1 0x4 DUP3 ADD MSTORE PUSH1 0x1B PUSH1 0x24 DUP3 ADD MSTORE PUSH32 0x53656C662064657374727563742064656C6179206E6F74206D65740000000000 PUSH1 0x44 DUP3 ADD MSTORE PUSH1 0x64 ADD PUSH1 0x40 MLOAD DUP1 SWAP2 SUB SWAP1 PUSH2 0x3967 PUSH2 0x5CCE JUMP JUMPDEST POP POP JUMPDEST PUSH32 0x8A09E1677CED846CB537DC2B172043BD05A1A81AD7E0033A7EF8BA762DF990B7 PUSH1 0x1 PUSH1 0x3 PUSH2 0x3997 PUSH2 0x5D39 JUMP JUMPDEST SWAP1 PUSH2 0x100 EXP SWAP1 DIV PUSH1 0x1 PUSH1 0x1 PUSH1 0xA0 SHL SUB AND PUSH1 0x40 MLOAD PUSH1 0x1 PUSH1 0x1 PUSH1 0xA0 SHL SUB SWAP1 SWAP2 AND DUP2 MSTORE PUSH1 0x20 ADD PUSH1 0x40 MLOAD DUP1 SWAP2 SUB SWAP1 LOG1 JUMP JUMPDEST PUSH1 0x0 PUSH1 0x5 PUSH2 0xF43 PUSH2 0x5D39 JUMP JUMPDEST PUSH2 0x39D8 PUSH2 0x5344 JUMP JUMPDEST DUP1 PUSH1 0x7 PUSH1 0x1 DUP2 PUSH2 0x39E6 PUSH2 0x5D39 JUMP JUMPDEST DUP2 PUSH1 0x1 PUSH1 0x1 PUSH1 0xA0 SHL SUB MUL NOT AND SWAP1 DUP4 PUSH1 0x1 PUSH1 0x1 PUSH1 0xA0 SHL SUB AND MUL OR SWAP1 PUSH2 0x3A08 PUSH2 0x5F98 JUMP JUMPDEST POP POP POP PUSH2 0x1F82 DUP2 PUSH2 0x54CF JUMP JUMPDEST PUSH1 0x0 PUSH2 0x3A1E PUSH2 0x49AA JUMP JUMPDEST PUSH1 0x1 PUSH1 0x1 PUSH1 0xA0 SHL SUB AND PUSH4 0xA311C7C2 DUP4 PUSH1 0x40 MLOAD PUSH1 0x1 PUSH1 0x1 PUSH1 0xE0 SHL SUB NOT PUSH1 0xE0 DUP5 SWAP1 SHL AND DUP2 MSTORE PUSH1 0x1 PUSH1 0x1 PUSH1 0xA0 SHL SUB SWAP1 SWAP2 AND PUSH1 0x4 DUP3 ADD MSTORE PUSH1 0x24 ADD PUSH1 0x20 PUSH1 0x40 MLOAD DUP1 DUP4 SUB DUP2 DUP7 DUP1 PUSH2 0xFA9 PUSH2 0x5D94 JUMP JUMPDEST PUSH3 0x24EA00 DUP2 JUMP JUMPDEST PUSH1 0x0 PUSH2 0x3A78 PUSH2 0x49AA JUMP JUMPDEST PUSH1 0x1 PUSH1 0x1 PUSH1 0xA0 SHL SUB AND PUSH4 0xA5FDC5DE DUP4 PUSH1 0x40 MLOAD PUSH1 0x1 PUSH1 0x1 PUSH1 0xE0 SHL SUB NOT PUSH1 0xE0 DUP5 SWAP1 SHL AND DUP2 MSTORE PUSH1 0x1 PUSH1 0x1 PUSH1 0xA0 SHL SUB SWAP1 SWAP2 AND PUSH1 0x4 DUP3 ADD MSTORE PUSH1 0x24 ADD PUSH1 0x20 PUSH1 0x40 MLOAD DUP1 DUP4 SUB DUP2 DUP7 DUP1 PUSH2 0xFA9 PUSH2 0x5D94 JUMP JUMPDEST PUSH1 0x0 PUSH2 0x3ACB PUSH2 0x49F0 JUMP JUMPDEST PUSH2 0x3AD3 PUSH2 0x4BA9 JUMP JUMPDEST PUSH1 0x1 PUSH1 0x1 PUSH1 0xA0 SHL SUB AND PUSH4 0x86DABD1 PUSH1 0x40 MLOAD DUP2 PUSH4 0xFFFFFFFF AND PUSH1 0xE0 SHL DUP2 MSTORE PUSH1 0x4 ADD PUSH1 0x0 PUSH1 0x40 MLOAD DUP1 DUP4 SUB DUP2 DUP7 DUP1 PUSH2 0x3B06 PUSH2 0x5D94 JUMP JUMPDEST ISZERO DUP1 ISZERO PUSH2 0x3B1B JUMPI PUSH1 0x0 DUP1 PUSH2 0x3B18 PUSH2 0x5CCE JUMP JUMPDEST POP POP JUMPDEST POP GAS PUSH2 0x3B25 PUSH2 0x5DE0 JUMP JUMPDEST POP POP POP POP POP ISZERO DUP1 ISZERO PUSH2 0x3B44 JUMPI RETURNDATASIZE PUSH1 0x0 DUP1 RETURNDATACOPY RETURNDATASIZE PUSH1 0x0 PUSH2 0x3B41 PUSH2 0x5CCE JUMP JUMPDEST POP POP JUMPDEST POP POP POP POP PUSH2 0x3B6E PUSH1 0x6 PUSH1 0x0 SWAP1 PUSH2 0x3B58 PUSH2 0x5D39 JUMP JUMPDEST SWAP1 PUSH2 0x100 EXP SWAP1 DIV PUSH1 0x1 PUSH1 0x1 PUSH1 0xA0 SHL SUB AND DUP4 PUSH2 0x4E7D JUMP JUMPDEST POP PUSH2 0x11C2 PUSH1 0x0 PUSH1 0x6 PUSH2 0x3B7E PUSH2 0x5D39 JUMP JUMPDEST SWAP1 PUSH2 0x100 EXP SWAP1 DIV PUSH1 0x1 PUSH1 0x1 PUSH1 0xA0 SHL SUB AND DUP5 DUP5 PUSH2 0x5617 JUMP JUMPDEST PUSH2 0x3B9D PUSH2 0x602C JUMP JUMPDEST PUSH1 0x0 JUMPDEST PUSH1 0xD DUP1 PUSH2 0x3BAB PUSH2 0x5D39 JUMP JUMPDEST SWAP1 POP DUP2 LT ISZERO PUSH2 0x3BF3 JUMPI PUSH1 0xD DUP2 DUP2 PUSH2 0x3BC0 PUSH2 0x5D39 JUMP JUMPDEST DUP2 LT PUSH2 0x3BC8 JUMPI INVALID JUMPDEST SWAP1 PUSH1 0x0 MSTORE PUSH1 0x20 PUSH1 0x0 KECCAK256 ADD PUSH2 0x3BDA PUSH2 0x5D39 JUMP JUMPDEST DUP3 DUP3 PUSH1 0x18 DUP2 LT PUSH2 0x3BE6 JUMPI INVALID JUMPDEST PUSH1 0x20 MUL ADD MSTORE PUSH1 0x1 ADD PUSH2 0x3BA0 JUMP JUMPDEST POP SWAP1 JUMP JUMPDEST PUSH2 0x3BFF PUSH2 0x4E32 JUMP JUMPDEST PUSH1 0x1 PUSH1 0x1 PUSH1 0xA0 SHL SUB AND GAS PUSH2 0x3C11 PUSH2 0x5F52 JUMP JUMPDEST PUSH1 0x1 PUSH1 0x1 PUSH1 0xA0 SHL SUB AND EQ PUSH2 0x3C62 JUMPI PUSH1 0x40 MLOAD PUSH3 0x461BCD PUSH1 0xE5 SHL DUP2 MSTORE PUSH1 0x20 PUSH1 0x4 DUP3 ADD MSTORE PUSH1 0x1E PUSH1 0x24 DUP3 ADD MSTORE PUSH1 0x0 DUP1 MLOAD PUSH1 0x20 PUSH2 0x60A7 DUP4 CODECOPY DUP2 MLOAD SWAP2 MSTORE PUSH1 0x44 DUP3 ADD MSTORE PUSH1 0x64 ADD PUSH1 0x40 MLOAD DUP1 SWAP2 SUB SWAP1 PUSH2 0x3C5F PUSH2 0x5CCE JUMP JUMPDEST POP POP JUMPDEST PUSH1 0x0 PUSH1 0x4 PUSH2 0x3C6E PUSH2 0x5D39 JUMP JUMPDEST SWAP1 PUSH2 0x100 EXP SWAP1 DIV PUSH1 0x1 PUSH1 0x1 PUSH1 0xA0 SHL SUB AND PUSH1 0x1 PUSH1 0x1 PUSH1 0xA0 SHL SUB AND PUSH4 0x907DFF97 DUP4 DUP4 PUSH1 0x40 MLOAD PUSH1 0x20 ADD DUP1 DUP4 DUP2 MSTORE PUSH1 0x20 ADD DUP3 DUP2 MSTORE PUSH1 0x20 ADD SWAP3 POP POP POP PUSH1 0x40 MLOAD PUSH1 0x20 DUP2 DUP4 SUB SUB DUP2 MSTORE SWAP1 PUSH1 0x40 MSTORE PUSH1 0x2 PUSH1 0x40 MLOAD DUP1 PUSH1 0x28 PUSH2 0x607F DUP3 CODECOPY PUSH1 0x28 ADD SWAP1 POP PUSH1 0x40 MLOAD DUP1 SWAP2 SUB SWAP1 KECCAK256 PUSH2 0x2D9A DUP9 PUSH2 0x5338 JUMP JUMPDEST PUSH2 0x3CDF PUSH2 0x4BA9 JUMP JUMPDEST PUSH1 0x1 PUSH1 0x1 PUSH1 0xA0 SHL SUB AND PUSH4 0x7C312541 PUSH1 0x40 MLOAD DUP2 PUSH4 0xFFFFFFFF AND PUSH1 0xE0 SHL DUP2 MSTORE PUSH1 0x4 ADD PUSH1 0x0 PUSH1 0x40 MLOAD DUP1 DUP4 SUB DUP2 DUP7 DUP1 PUSH2 0x3D12 PUSH2 0x5D94 JUMP JUMPDEST ISZERO DUP1 ISZERO PUSH2 0x3D27 JUMPI PUSH1 0x0 DUP1 PUSH2 0x3D24 PUSH2 0x5CCE JUMP JUMPDEST POP POP JUMPDEST POP GAS PUSH2 0x3D31 PUSH2 0x5DE0 JUMP JUMPDEST POP POP POP POP POP ISZERO DUP1 ISZERO PUSH2 0x3D50 JUMPI RETURNDATASIZE PUSH1 0x0 DUP1 RETURNDATACOPY RETURNDATASIZE PUSH1 0x0 PUSH2 0x3D4D PUSH2 0x5CCE JUMP JUMPDEST POP POP JUMPDEST POP POP POP POP PUSH2 0x3D5C PUSH2 0x49F0 JUMP JUMPDEST PUSH2 0x3D64 PUSH2 0x49AA JUMP JUMPDEST PUSH1 0x1 PUSH1 0x1 PUSH1 0xA0 SHL SUB AND PUSH4 0xC8977132 PUSH1 0x0 PUSH1 0x6 PUSH2 0x3733 PUSH2 0x5D39 JUMP JUMPDEST PUSH1 0x0 PUSH1 0x3 PUSH2 0x22FA PUSH2 0x5D39 JUMP JUMPDEST PUSH2 0x3D92 PUSH2 0x5624 JUMP JUMPDEST DUP1 PUSH1 0x6 PUSH1 0x1 DUP2 PUSH2 0x1A7D PUSH2 0x5D39 JUMP JUMPDEST PUSH2 0x3DA8 PUSH2 0x4DBA JUMP JUMPDEST GAS PUSH2 0x3DB1 PUSH2 0x5FE6 JUMP JUMPDEST DUP1 PUSH1 0x2 PUSH2 0x3DBC PUSH2 0x5F98 JUMP JUMPDEST POP POP POP PUSH1 0x1 PUSH1 0x3 PUSH1 0x0 PUSH2 0x100 EXP DUP2 PUSH2 0x3DD2 PUSH2 0x5D39 JUMP JUMPDEST DUP2 PUSH1 0xFF MUL NOT AND SWAP1 DUP4 ISZERO ISZERO MUL OR SWAP1 PUSH2 0x3DE7 PUSH2 0x5F98 JUMP JUMPDEST POP POP POP PUSH32 0xCBD94CA75B8DC45C9D80C77E851670E78843C0D75180CB81DB3E2158228FA9A6 PUSH3 0x24EA00 PUSH1 0x40 MLOAD SWAP1 DUP2 MSTORE PUSH1 0x20 ADD PUSH1 0x40 MLOAD DUP1 SWAP2 SUB SWAP1 LOG1 JUMP JUMPDEST PUSH2 0x3E2A PUSH2 0x4BA9 JUMP JUMPDEST PUSH1 0x1 PUSH1 0x1 PUSH1 0xA0 SHL SUB AND PUSH4 0x7C312541 PUSH1 0x40 MLOAD DUP2 PUSH4 0xFFFFFFFF AND PUSH1 0xE0 SHL DUP2 MSTORE PUSH1 0x4 ADD PUSH1 0x0 PUSH1 0x40 MLOAD DUP1 DUP4 SUB DUP2 DUP7 DUP1 PUSH2 0x3E5D PUSH2 0x5D94 JUMP JUMPDEST ISZERO DUP1 ISZERO PUSH2 0x3E72 JUMPI PUSH1 0x0 DUP1 PUSH2 0x3E6F PUSH2 0x5CCE JUMP JUMPDEST POP POP JUMPDEST POP GAS PUSH2 0x3E7C PUSH2 0x5DE0 JUMP JUMPDEST POP POP POP POP POP ISZERO DUP1 ISZERO PUSH2 0x3E9B JUMPI RETURNDATASIZE PUSH1 0x0 DUP1 RETURNDATACOPY RETURNDATASIZE PUSH1 0x0 PUSH2 0x3E98 PUSH2 0x5CCE JUMP JUMPDEST POP POP JUMPDEST POP POP POP POP PUSH2 0x3EA7 PUSH2 0x49F0 JUMP JUMPDEST PUSH2 0x3EAF PUSH2 0x49AA JUMP JUMPDEST PUSH1 0x1 PUSH1 0x1 PUSH1 0xA0 SHL SUB AND PUSH4 0x9A5154B4 DUP4 PUSH1 0x0 PUSH1 0x6 PUSH2 0x3ECA PUSH2 0x5D39 JUMP JUMPDEST SWAP1 PUSH2 0x100 EXP SWAP1 DIV PUSH1 0x1 PUSH1 0x1 PUSH1 0xA0 SHL SUB AND DUP5 PUSH1 0x40 MLOAD PUSH1 0x1 PUSH1 0x1 PUSH1 0xE0 SHL SUB NOT PUSH1 0xE0 DUP7 SWAP1 SHL AND DUP2 MSTORE PUSH1 0x1 PUSH1 0x1 PUSH1 0xA0 SHL SUB SWAP4 DUP5 AND PUSH1 0x4 DUP3 ADD MSTORE SWAP2 SWAP1 SWAP3 AND PUSH1 0x24 DUP3 ADD MSTORE PUSH1 0x44 DUP2 ADD SWAP2 SWAP1 SWAP2 MSTORE PUSH1 0x64 ADD PUSH1 0x0 PUSH1 0x40 MLOAD DUP1 DUP4 SUB DUP2 PUSH1 0x0 DUP8 DUP1 PUSH2 0x3F28 PUSH2 0x5D94 JUMP JUMPDEST ISZERO DUP1 ISZERO PUSH2 0x3F3D JUMPI PUSH1 0x0 DUP1 PUSH2 0x3F3A PUSH2 0x5CCE JUMP JUMPDEST POP POP JUMPDEST POP GAS PUSH2 0x3F47 PUSH2 0x5E99 JUMP JUMPDEST POP POP POP POP POP POP ISZERO DUP1 ISZERO PUSH2 0x37BB JUMPI RETURNDATASIZE PUSH1 0x0 DUP1 RETURNDATACOPY RETURNDATASIZE PUSH1 0x0 PUSH2 0x3F64 PUSH2 0x5CCE JUMP JUMPDEST POP POP POP POP POP POP POP POP JUMP JUMPDEST PUSH1 0x1 PUSH1 0x3 PUSH2 0xF43 PUSH2 0x5D39 JUMP JUMPDEST PUSH1 0xD DUP2 DUP2 PUSH2 0x3F86 PUSH2 0x5D39 JUMP JUMPDEST DUP2 LT PUSH2 0x3F8E JUMPI INVALID JUMPDEST SWAP1 PUSH1 0x0 MSTORE PUSH1 0x20 PUSH1 0x0 KECCAK256 ADD SWAP1 POP PUSH2 0x1B7C PUSH2 0x5D39 JUMP JUMPDEST PUSH1 0x0 DUP4 DUP3 PUSH2 0x3FAE PUSH2 0x4BA9 JUMP JUMPDEST PUSH1 0x1 PUSH1 0x1 PUSH1 0xA0 SHL SUB AND PUSH4 0x7118D431 PUSH1 0x40 MLOAD DUP2 PUSH4 0xFFFFFFFF AND PUSH1 0xE0 SHL DUP2 MSTORE PUSH1 0x4 ADD PUSH1 0x0 PUSH1 0x40 MLOAD DUP1 DUP4 SUB DUP2 DUP7 DUP1 PUSH2 0x3FE1 PUSH2 0x5D94 JUMP JUMPDEST ISZERO DUP1 ISZERO PUSH2 0x3FF6 JUMPI PUSH1 0x0 DUP1 PUSH2 0x3FF3 PUSH2 0x5CCE JUMP JUMPDEST POP POP JUMPDEST POP GAS PUSH2 0x4000 PUSH2 0x5DE0 JUMP JUMPDEST POP POP POP POP POP ISZERO DUP1 ISZERO PUSH2 0x401F JUMPI RETURNDATASIZE PUSH1 0x0 DUP1 RETURNDATACOPY RETURNDATASIZE PUSH1 0x0 PUSH2 0x401C PUSH2 0x5CCE JUMP JUMPDEST POP POP JUMPDEST POP POP POP POP PUSH2 0x402B PUSH2 0x4BA9 JUMP JUMPDEST PUSH1 0x1 PUSH1 0x1 PUSH1 0xA0 SHL SUB AND PUSH4 0x6132EBA4 DUP4 DUP4 PUSH1 0x40 MLOAD PUSH1 0x1 PUSH1 0x1 PUSH1 0xE0 SHL SUB NOT PUSH1 0xE0 DUP6 SWAP1 SHL AND DUP2 MSTORE PUSH1 0x4 DUP2 ADD SWAP3 SWAP1 SWAP3 MSTORE PUSH1 0x24 DUP3 ADD MSTORE PUSH1 0x44 ADD PUSH1 0x0 PUSH1 0x40 MLOAD DUP1 DUP4 SUB DUP2 DUP7 DUP1 PUSH2 0x4072 PUSH2 0x5D94 JUMP JUMPDEST ISZERO DUP1 ISZERO PUSH2 0x4087 JUMPI PUSH1 0x0 DUP1 PUSH2 0x4084 PUSH2 0x5CCE JUMP JUMPDEST POP POP JUMPDEST POP GAS PUSH2 0x4091 PUSH2 0x5DE0 JUMP JUMPDEST POP POP POP POP POP ISZERO DUP1 ISZERO PUSH2 0x40B0 JUMPI RETURNDATASIZE PUSH1 0x0 DUP1 RETURNDATACOPY RETURNDATASIZE PUSH1 0x0 PUSH2 0x40AD PUSH2 0x5CCE JUMP JUMPDEST POP POP JUMPDEST POP POP POP POP PUSH2 0x40BC PUSH2 0x49F0 JUMP JUMPDEST PUSH2 0x40C4 PUSH2 0x4E32 JUMP JUMPDEST PUSH1 0x1 PUSH1 0x1 PUSH1 0xA0 SHL SUB AND PUSH4 0x6A1C4758 DUP9 PUSH1 0x0 PUSH1 0x6 PUSH2 0x40DF PUSH2 0x5D39 JUMP JUMPDEST SWAP1 PUSH2 0x100 EXP SWAP1 DIV PUSH1 0x1 PUSH1 0x1 PUSH1 0xA0 SHL SUB AND DUP10 DUP10 DUP10 PUSH1 0x40 MLOAD PUSH1 0x1 PUSH1 0x1 PUSH1 0xE0 SHL SUB NOT PUSH1 0xE0 DUP9 SWAP1 SHL AND DUP2 MSTORE PUSH1 0x1 PUSH1 0x1 PUSH1 0xA0 SHL SUB SWAP6 DUP7 AND PUSH1 0x4 DUP3 ADD MSTORE SWAP4 SWAP1 SWAP5 AND PUSH1 0x24 DUP5 ADD MSTORE PUSH1 0x44 DUP4 ADD SWAP2 SWAP1 SWAP2 MSTORE PUSH1 0x64 DUP3 ADD MSTORE PUSH1 0x84 DUP2 ADD SWAP2 SWAP1 SWAP2 MSTORE PUSH1 0xA4 ADD PUSH1 0x20 PUSH1 0x40 MLOAD DUP1 DUP4 SUB DUP2 PUSH1 0x0 DUP8 DUP1 PUSH2 0x414C PUSH2 0x5D94 JUMP JUMPDEST ISZERO DUP1 ISZERO PUSH2 0x4161 JUMPI PUSH1 0x0 DUP1 PUSH2 0x415E PUSH2 0x5CCE JUMP JUMPDEST POP POP JUMPDEST POP GAS PUSH2 0x416B PUSH2 0x5E99 JUMP JUMPDEST POP POP POP POP POP POP ISZERO DUP1 ISZERO PUSH2 0x418B JUMPI RETURNDATASIZE PUSH1 0x0 DUP1 RETURNDATACOPY RETURNDATASIZE PUSH1 0x0 PUSH2 0x4188 PUSH2 0x5CCE JUMP JUMPDEST POP POP JUMPDEST POP POP POP POP PUSH1 0x40 MLOAD RETURNDATASIZE PUSH1 0x20 DUP2 LT ISZERO PUSH2 0x41AA JUMPI PUSH1 0x0 DUP1 PUSH2 0x41A7 PUSH2 0x5CCE JUMP JUMPDEST POP POP JUMPDEST DUP2 ADD SWAP1 DUP1 DUP1 MLOAD SWAP11 SWAP10 POP POP POP POP POP POP POP POP POP POP JUMP JUMPDEST PUSH1 0x0 PUSH2 0x41C8 PUSH2 0x49AA JUMP JUMPDEST PUSH1 0x1 PUSH1 0x1 PUSH1 0xA0 SHL SUB AND PUSH4 0xD37C4D8B DUP5 DUP5 PUSH1 0x40 MLOAD PUSH1 0x1 PUSH1 0x1 PUSH1 0xE0 SHL SUB NOT PUSH1 0xE0 DUP6 SWAP1 SHL AND DUP2 MSTORE PUSH1 0x1 PUSH1 0x1 PUSH1 0xA0 SHL SUB SWAP1 SWAP3 AND PUSH1 0x4 DUP4 ADD MSTORE PUSH1 0x24 DUP3 ADD MSTORE PUSH1 0x44 ADD PUSH1 0x20 PUSH1 0x40 MLOAD DUP1 DUP4 SUB DUP2 DUP7 DUP1 PUSH2 0x4217 PUSH2 0x5D94 JUMP JUMPDEST ISZERO DUP1 ISZERO PUSH2 0x422C JUMPI PUSH1 0x0 DUP1 PUSH2 0x4229 PUSH2 0x5CCE JUMP JUMPDEST POP POP JUMPDEST POP GAS PUSH2 0x4236 PUSH2 0x5DE0 JUMP JUMPDEST POP POP POP POP POP ISZERO DUP1 ISZERO PUSH2 0x4255 JUMPI RETURNDATASIZE PUSH1 0x0 DUP1 RETURNDATACOPY RETURNDATASIZE PUSH1 0x0 PUSH2 0x4252 PUSH2 0x5CCE JUMP JUMPDEST POP POP JUMPDEST POP POP POP POP PUSH1 0x40 MLOAD RETURNDATASIZE PUSH1 0x20 DUP2 LT ISZERO PUSH2 0x4274 JUMPI PUSH1 0x0 DUP1 PUSH2 0x4271 PUSH2 0x5CCE JUMP JUMPDEST POP POP JUMPDEST DUP2 ADD SWAP1 DUP1 DUP1 MLOAD SWAP7 SWAP6 POP POP POP POP POP POP JUMP JUMPDEST PUSH1 0x0 PUSH2 0x428E PUSH2 0x49AA JUMP JUMPDEST PUSH1 0x1 PUSH1 0x1 PUSH1 0xA0 SHL SUB AND PUSH4 0x7B1001B7 DUP4 PUSH1 0x1 PUSH1 0x40 MLOAD PUSH1 0x1 PUSH1 0x1 PUSH1 0xE0 SHL SUB NOT PUSH1 0xE0 DUP6 SWAP1 SHL AND DUP2 MSTORE PUSH1 0x4 DUP2 ADD SWAP3 SWAP1 SWAP3 MSTORE ISZERO ISZERO PUSH1 0x24 DUP3 ADD MSTORE PUSH1 0x44 ADD PUSH1 0x20 PUSH1 0x40 MLOAD DUP1 DUP4 SUB DUP2 DUP7 DUP1 PUSH2 0xFA9 PUSH2 0x5D94 JUMP JUMPDEST PUSH1 0x0 PUSH1 0x6 PUSH2 0xF43 PUSH2 0x5D39 JUMP JUMPDEST PUSH1 0x0 PUSH2 0x42EE PUSH2 0x49AA JUMP JUMPDEST PUSH1 0x1 PUSH1 0x1 PUSH1 0xA0 SHL SUB AND PUSH4 0xDBF63340 PUSH1 0x40 MLOAD DUP2 PUSH4 0xFFFFFFFF AND PUSH1 0xE0 SHL DUP2 MSTORE PUSH1 0x4 ADD PUSH1 0x20 PUSH1 0x40 MLOAD DUP1 DUP4 SUB DUP2 DUP7 DUP1 PUSH2 0x2673 PUSH2 0x5D94 JUMP JUMPDEST PUSH1 0x0 DUP1 PUSH1 0x7 PUSH2 0x432E PUSH2 0x5D39 JUMP JUMPDEST SWAP1 PUSH2 0x100 EXP SWAP1 DIV PUSH1 0x1 PUSH1 0x1 PUSH1 0xA0 SHL SUB AND PUSH1 0x1 PUSH1 0x1 PUSH1 0xA0 SHL SUB AND PUSH4 0xDD62ED3E DUP5 DUP5 PUSH1 0x40 MLOAD PUSH1 0x1 PUSH1 0x1 PUSH1 0xE0 SHL SUB NOT PUSH1 0xE0 DUP6 SWAP1 SHL AND DUP2 MSTORE PUSH1 0x1 PUSH1 0x1 PUSH1 0xA0 SHL SUB SWAP3 DUP4 AND PUSH1 0x4 DUP3 ADD MSTORE SWAP2 AND PUSH1 0x24 DUP3 ADD MSTORE PUSH1 0x44 ADD PUSH1 0x20 PUSH1 0x40 MLOAD DUP1 DUP4 SUB DUP2 DUP7 DUP1 PUSH2 0x4217 PUSH2 0x5D94 JUMP JUMPDEST PUSH2 0x4397 PUSH2 0x4E32 JUMP JUMPDEST PUSH1 0x1 PUSH1 0x1 PUSH1 0xA0 SHL SUB AND GAS PUSH2 0x43A9 PUSH2 0x5F52 JUMP JUMPDEST PUSH1 0x1 PUSH1 0x1 PUSH1 0xA0 SHL SUB AND EQ PUSH2 0x43FA JUMPI PUSH1 0x40 MLOAD PUSH3 0x461BCD PUSH1 0xE5 SHL DUP2 MSTORE PUSH1 0x20 PUSH1 0x4 DUP3 ADD MSTORE PUSH1 0x1E PUSH1 0x24 DUP3 ADD MSTORE PUSH1 0x0 DUP1 MLOAD PUSH1 0x20 PUSH2 0x60A7 DUP4 CODECOPY DUP2 MLOAD SWAP2 MSTORE PUSH1 0x44 DUP3 ADD MSTORE PUSH1 0x64 ADD PUSH1 0x40 MLOAD DUP1 SWAP2 SUB SWAP1 PUSH2 0x43F7 PUSH2 0x5CCE JUMP JUMPDEST POP POP JUMPDEST PUSH1 0x0 PUSH1 0x4 PUSH2 0x4406 PUSH2 0x5D39 JUMP JUMPDEST SWAP1 PUSH2 0x100 EXP SWAP1 DIV PUSH1 0x1 PUSH1 0x1 PUSH1 0xA0 SHL SUB AND PUSH1 0x1 PUSH1 0x1 PUSH1 0xA0 SHL SUB AND PUSH4 0x907DFF97 DUP4 DUP4 PUSH1 0x40 MLOAD PUSH1 0x20 ADD DUP1 DUP4 DUP2 MSTORE PUSH1 0x20 ADD DUP3 DUP2 MSTORE PUSH1 0x20 ADD SWAP3 POP POP POP PUSH1 0x40 MLOAD PUSH1 0x20 DUP2 DUP4 SUB SUB DUP2 MSTORE SWAP1 PUSH1 0x40 MSTORE PUSH1 0x2 PUSH1 0x40 MLOAD DUP1 PUSH1 0x29 PUSH2 0x61C5 DUP3 CODECOPY PUSH1 0x29 ADD SWAP1 POP PUSH1 0x40 MLOAD DUP1 SWAP2 SUB SWAP1 KECCAK256 DUP8 PUSH1 0x0 DUP1 PUSH1 0x40 MLOAD DUP8 PUSH4 0xFFFFFFFF AND PUSH1 0xE0 SHL DUP2 MSTORE PUSH1 0x4 ADD DUP1 DUP1 PUSH1 0x20 ADD DUP8 DUP2 MSTORE PUSH1 0x20 ADD DUP7 DUP2 MSTORE PUSH1 0x20 ADD DUP6 DUP2 MSTORE PUSH1 0x20 ADD DUP5 PUSH1 0x0 SHL DUP2 MSTORE PUSH1 0x20 ADD DUP4 PUSH1 0x0 SHL DUP2 MSTORE PUSH1 0x20 ADD DUP3 DUP2 SUB DUP3 MSTORE DUP9 DUP2 DUP2 MLOAD DUP2 MSTORE PUSH1 0x20 ADD SWAP2 POP DUP1 MLOAD PUSH1 0x20 SWAP1 SWAP2 ADD SWAP1 DUP1 DUP4 DUP4 PUSH1 0x0 DUP4 ISZERO PUSH2 0x2E0D JUMPI DUP1 DUP3 ADD MLOAD DUP4 DUP3 ADD MSTORE PUSH1 0x20 ADD PUSH2 0x2DF5 JUMP JUMPDEST PUSH1 0x18 DUP2 JUMP JUMPDEST PUSH1 0x0 PUSH2 0x44E7 PUSH2 0x4BA9 JUMP JUMPDEST PUSH1 0x1 PUSH1 0x1 PUSH1 0xA0 SHL SUB AND PUSH4 0x86DABD1 PUSH1 0x40 MLOAD DUP2 PUSH4 0xFFFFFFFF AND PUSH1 0xE0 SHL DUP2 MSTORE PUSH1 0x4 ADD PUSH1 0x0 PUSH1 0x40 MLOAD DUP1 DUP4 SUB DUP2 DUP7 DUP1 PUSH2 0x451A PUSH2 0x5D94 JUMP JUMPDEST ISZERO DUP1 ISZERO PUSH2 0x452F JUMPI PUSH1 0x0 DUP1 PUSH2 0x452C PUSH2 0x5CCE JUMP JUMPDEST POP POP JUMPDEST POP GAS PUSH2 0x4539 PUSH2 0x5DE0 JUMP JUMPDEST POP POP POP POP POP ISZERO DUP1 ISZERO PUSH2 0x4558 JUMPI RETURNDATASIZE PUSH1 0x0 DUP1 RETURNDATACOPY RETURNDATASIZE PUSH1 0x0 PUSH2 0x4555 PUSH2 0x5CCE JUMP JUMPDEST POP POP JUMPDEST POP POP POP POP PUSH2 0x4564 PUSH2 0x49F0 JUMP JUMPDEST PUSH1 0x0 DUP1 PUSH2 0x456F PUSH2 0x49AA JUMP JUMPDEST PUSH1 0x1 PUSH1 0x1 PUSH1 0xA0 SHL SUB AND PUSH4 0xA63C4DF4 DUP7 DUP7 PUSH1 0x0 PUSH1 0x6 PUSH2 0x458B PUSH2 0x5D39 JUMP JUMPDEST SWAP1 PUSH2 0x100 EXP SWAP1 DIV PUSH1 0x1 PUSH1 0x1 PUSH1 0xA0 SHL SUB AND PUSH1 0x40 MLOAD PUSH1 0x1 PUSH1 0x1 PUSH1 0xE0 SHL SUB NOT PUSH1 0xE0 DUP7 SWAP1 SHL AND DUP2 MSTORE PUSH1 0x1 PUSH1 0x1 PUSH1 0xA0 SHL SUB SWAP4 DUP5 AND PUSH1 0x4 DUP3 ADD MSTORE PUSH1 0x24 DUP2 ADD SWAP3 SWAP1 SWAP3 MSTORE SWAP1 SWAP2 AND PUSH1 0x44 DUP3 ADD MSTORE PUSH1 0x64 ADD PUSH1 0x40 DUP1 MLOAD DUP1 DUP4 SUB DUP2 PUSH1 0x0 DUP8 DUP1 PUSH2 0x45E6 PUSH2 0x5D94 JUMP JUMPDEST ISZERO DUP1 ISZERO PUSH2 0x45FB JUMPI PUSH1 0x0 DUP1 PUSH2 0x45F8 PUSH2 0x5CCE JUMP JUMPDEST POP POP JUMPDEST POP GAS PUSH2 0x4605 PUSH2 0x5E99 JUMP JUMPDEST POP POP POP POP POP POP ISZERO DUP1 ISZERO PUSH2 0x4625 JUMPI RETURNDATASIZE PUSH1 0x0 DUP1 RETURNDATACOPY RETURNDATASIZE PUSH1 0x0 PUSH2 0x4622 PUSH2 0x5CCE JUMP JUMPDEST POP POP JUMPDEST POP POP POP POP PUSH1 0x40 MLOAD RETURNDATASIZE PUSH1 0x40 DUP2 LT ISZERO PUSH2 0x4644 JUMPI PUSH1 0x0 DUP1 PUSH2 0x4641 PUSH2 0x5CCE JUMP JUMPDEST POP POP JUMPDEST DUP2 ADD SWAP1 DUP1 DUP1 MLOAD SWAP3 SWAP2 SWAP1 PUSH1 0x20 ADD DUP1 MLOAD SWAP4 SWAP6 POP SWAP3 SWAP4 POP PUSH2 0x4685 SWAP3 POP DUP8 SWAP2 POP DUP5 SWAP1 POP DUP4 PUSH1 0x0 PUSH1 0x6 PUSH2 0x4670 PUSH2 0x5D39 JUMP JUMPDEST SWAP1 PUSH2 0x100 EXP SWAP1 DIV PUSH1 0x1 PUSH1 0x1 PUSH1 0xA0 SHL SUB AND PUSH2 0x56F1 JUMP JUMPDEST PUSH2 0x46AB DUP6 PUSH1 0x0 PUSH1 0x6 PUSH2 0x4695 PUSH2 0x5D39 JUMP JUMPDEST SWAP1 PUSH2 0x100 EXP SWAP1 DIV PUSH1 0x1 PUSH1 0x1 PUSH1 0xA0 SHL SUB AND DUP5 PUSH2 0x5617 JUMP JUMPDEST SWAP6 SWAP5 POP POP POP POP POP JUMP JUMPDEST PUSH2 0x46BC PUSH2 0x4BA9 JUMP JUMPDEST PUSH1 0x1 PUSH1 0x1 PUSH1 0xA0 SHL SUB AND PUSH4 0x7C312541 PUSH1 0x40 MLOAD DUP2 PUSH4 0xFFFFFFFF AND PUSH1 0xE0 SHL DUP2 MSTORE PUSH1 0x4 ADD PUSH1 0x0 PUSH1 0x40 MLOAD DUP1 DUP4 SUB DUP2 DUP7 DUP1 PUSH2 0x46EF PUSH2 0x5D94 JUMP JUMPDEST ISZERO DUP1 ISZERO PUSH2 0x4704 JUMPI PUSH1 0x0 DUP1 PUSH2 0x4701 PUSH2 0x5CCE JUMP JUMPDEST POP POP JUMPDEST POP GAS PUSH2 0x470E PUSH2 0x5DE0 JUMP JUMPDEST POP POP POP POP POP ISZERO DUP1 ISZERO PUSH2 0x472D JUMPI RETURNDATASIZE PUSH1 0x0 DUP1 RETURNDATACOPY RETURNDATASIZE PUSH1 0x0 PUSH2 0x472A PUSH2 0x5CCE JUMP JUMPDEST POP POP JUMPDEST POP POP POP POP PUSH2 0x4739 PUSH2 0x49F0 JUMP JUMPDEST PUSH2 0x4741 PUSH2 0x49AA JUMP JUMPDEST PUSH1 0x1 PUSH1 0x1 PUSH1 0xA0 SHL SUB AND PUSH4 0x44EC6B62 DUP4 PUSH1 0x0 PUSH1 0x6 PUSH2 0x3ECA PUSH2 0x5D39 JUMP JUMPDEST PUSH1 0x0 PUSH1 0x7 PUSH2 0xF43 PUSH2 0x5D39 JUMP JUMPDEST PUSH1 0x0 PUSH1 0x4 PUSH2 0xF43 PUSH2 0x5D39 JUMP JUMPDEST PUSH1 0x0 DUP4 DUP3 PUSH2 0x4780 PUSH2 0x4BA9 JUMP JUMPDEST PUSH1 0x1 PUSH1 0x1 PUSH1 0xA0 SHL SUB AND PUSH4 0x7118D431 PUSH1 0x40 MLOAD DUP2 PUSH4 0xFFFFFFFF AND PUSH1 0xE0 SHL DUP2 MSTORE PUSH1 0x4 ADD PUSH1 0x0 PUSH1 0x40 MLOAD DUP1 DUP4 SUB DUP2 DUP7 DUP1 PUSH2 0x47B3 PUSH2 0x5D94 JUMP JUMPDEST ISZERO DUP1 ISZERO PUSH2 0x47C8 JUMPI PUSH1 0x0 DUP1 PUSH2 0x47C5 PUSH2 0x5CCE JUMP JUMPDEST POP POP JUMPDEST POP GAS PUSH2 0x47D2 PUSH2 0x5DE0 JUMP JUMPDEST POP POP POP POP POP ISZERO DUP1 ISZERO PUSH2 0x47F1 JUMPI RETURNDATASIZE PUSH1 0x0 DUP1 RETURNDATACOPY RETURNDATASIZE PUSH1 0x0 PUSH2 0x47EE PUSH2 0x5CCE JUMP JUMPDEST POP POP JUMPDEST POP POP POP POP PUSH2 0x47FD PUSH2 0x4BA9 JUMP JUMPDEST PUSH1 0x1 PUSH1 0x1 PUSH1 0xA0 SHL SUB AND PUSH4 0x6132EBA4 DUP4 DUP4 PUSH1 0x40 MLOAD PUSH1 0x1 PUSH1 0x1 PUSH1 0xE0 SHL SUB NOT PUSH1 0xE0 DUP6 SWAP1 SHL AND DUP2 MSTORE PUSH1 0x4 DUP2 ADD SWAP3 SWAP1 SWAP3 MSTORE PUSH1 0x24 DUP3 ADD MSTORE PUSH1 0x44 ADD PUSH1 0x0 PUSH1 0x40 MLOAD DUP1 DUP4 SUB DUP2 DUP7 DUP1 PUSH2 0x4844 PUSH2 0x5D94 JUMP JUMPDEST ISZERO DUP1 ISZERO PUSH2 0x4859 JUMPI PUSH1 0x0 DUP1 PUSH2 0x4856 PUSH2 0x5CCE JUMP JUMPDEST POP POP JUMPDEST POP GAS PUSH2 0x4863 PUSH2 0x5DE0 JUMP JUMPDEST POP POP POP POP POP ISZERO DUP1 ISZERO PUSH2 0x4882 JUMPI RETURNDATASIZE PUSH1 0x0 DUP1 RETURNDATACOPY RETURNDATASIZE PUSH1 0x0 PUSH2 0x487F PUSH2 0x5CCE JUMP JUMPDEST POP POP JUMPDEST POP POP POP POP PUSH2 0x488E PUSH2 0x49F0 JUMP JUMPDEST PUSH2 0x4896 PUSH2 0x4E32 JUMP JUMPDEST PUSH1 0x1 PUSH1 0x1 PUSH1 0xA0 SHL SUB AND PUSH4 0xA1E187D PUSH1 0x0 PUSH1 0x6 PUSH2 0x48B0 PUSH2 0x5D39 JUMP JUMPDEST SWAP1 PUSH2 0x100 EXP SWAP1 DIV PUSH1 0x1 PUSH1 0x1 PUSH1 0xA0 SHL SUB AND DUP9 DUP9 DUP9 PUSH1 0x6 PUSH1 0x0 SWAP1 PUSH2 0x48D0 PUSH2 0x5D39 JUMP JUMPDEST SWAP1 PUSH2 0x100 EXP SWAP1 DIV PUSH1 0x1 PUSH1 0x1 PUSH1 0xA0 SHL SUB AND PUSH1 0x40 MLOAD PUSH1 0x1 PUSH1 0x1 PUSH1 0xE0 SHL SUB NOT PUSH1 0xE0 DUP9 SWAP1 SHL AND DUP2 MSTORE PUSH1 0x1 PUSH1 0x1 PUSH1 0xA0 SHL SUB SWAP6 DUP7 AND PUSH1 0x4 DUP3 ADD MSTORE PUSH1 0x24 DUP2 ADD SWAP5 SWAP1 SWAP5 MSTORE PUSH1 0x44 DUP5 ADD SWAP3 SWAP1 SWAP3 MSTORE PUSH1 0x64 DUP4 ADD MSTORE SWAP1 SWAP2 AND PUSH1 0x84 DUP3 ADD MSTORE PUSH1 0xA4 ADD PUSH1 0x20 PUSH1 0x40 MLOAD DUP1 DUP4 SUB DUP2 PUSH1 0x0 DUP8 DUP1 PUSH2 0x4939 PUSH2 0x5D94 JUMP JUMPDEST ISZERO DUP1 ISZERO PUSH2 0x494E JUMPI PUSH1 0x0 DUP1 PUSH2 0x494B PUSH2 0x5CCE JUMP JUMPDEST POP POP JUMPDEST POP GAS PUSH2 0x4958 PUSH2 0x5E99 JUMP JUMPDEST POP POP POP POP POP POP ISZERO DUP1 ISZERO PUSH2 0x4978 JUMPI RETURNDATASIZE PUSH1 0x0 DUP1 RETURNDATACOPY RETURNDATASIZE PUSH1 0x0 PUSH2 0x4975 PUSH2 0x5CCE JUMP JUMPDEST POP POP JUMPDEST POP POP POP POP PUSH1 0x40 MLOAD RETURNDATASIZE PUSH1 0x20 DUP2 LT ISZERO PUSH2 0x4997 JUMPI PUSH1 0x0 DUP1 PUSH2 0x4994 PUSH2 0x5CCE JUMP JUMPDEST POP POP JUMPDEST DUP2 ADD SWAP1 DUP1 DUP1 MLOAD SWAP10 SWAP9 POP POP POP POP POP POP POP POP POP JUMP JUMPDEST PUSH1 0x0 PUSH2 0x49EB PUSH6 0x24B9B9BAB2B9 PUSH1 0xD1 SHL PUSH1 0x40 MLOAD PUSH1 0x40 DUP1 DUP3 ADD SWAP1 MSTORE PUSH1 0x16 DUP2 MSTORE PUSH22 0x4D697373696E67204973737565722061646472657373 PUSH1 0x50 SHL PUSH1 0x20 DUP3 ADD MSTORE PUSH2 0x5871 JUMP JUMPDEST SWAP1 POP SWAP1 JUMP JUMPDEST PUSH1 0x0 PUSH1 0x4 PUSH2 0x49FC PUSH2 0x5D39 JUMP JUMPDEST SWAP1 PUSH2 0x100 EXP SWAP1 DIV PUSH1 0x1 PUSH1 0x1 PUSH1 0xA0 SHL SUB AND PUSH1 0x1 PUSH1 0x1 PUSH1 0xA0 SHL SUB AND GAS PUSH2 0x4A1E PUSH2 0x5F52 JUMP JUMPDEST PUSH1 0x1 PUSH1 0x1 PUSH1 0xA0 SHL SUB AND EQ ISZERO DUP1 ISZERO PUSH2 0x4A6A JUMPI POP PUSH1 0x0 PUSH1 0x5 PUSH2 0x4A3C PUSH2 0x5D39 JUMP JUMPDEST SWAP1 PUSH2 0x100 EXP SWAP1 DIV PUSH1 0x1 PUSH1 0x1 PUSH1 0xA0 SHL SUB AND PUSH1 0x1 PUSH1 0x1 PUSH1 0xA0 SHL SUB AND GAS PUSH2 0x4A5E PUSH2 0x5F52 JUMP JUMPDEST PUSH1 0x1 PUSH1 0x1 PUSH1 0xA0 SHL SUB AND EQ ISZERO JUMPDEST DUP1 ISZERO PUSH2 0x4AAB JUMPI POP GAS PUSH2 0x4A7A PUSH2 0x5F52 JUMP JUMPDEST PUSH1 0x1 PUSH1 0x1 PUSH1 0xA0 SHL SUB AND PUSH1 0x0 PUSH1 0x6 PUSH2 0x4A8F PUSH2 0x5D39 JUMP JUMPDEST SWAP1 PUSH2 0x100 EXP SWAP1 DIV PUSH1 0x1 PUSH1 0x1 PUSH1 0xA0 SHL SUB AND PUSH1 0x1 PUSH1 0x1 PUSH1 0xA0 SHL SUB AND EQ ISZERO JUMPDEST ISZERO PUSH2 0x37C2 JUMPI GAS PUSH2 0x4AB9 PUSH2 0x5F52 JUMP JUMPDEST PUSH1 0x6 PUSH1 0x1 DUP2 PUSH2 0x31BD PUSH2 0x5D39 JUMP JUMPDEST PUSH1 0x0 PUSH1 0x4 PUSH2 0x4AD2 PUSH2 0x5D39 JUMP JUMPDEST SWAP1 PUSH2 0x100 EXP SWAP1 DIV PUSH1 0x1 PUSH1 0x1 PUSH1 0xA0 SHL SUB AND PUSH1 0x1 PUSH1 0x1 PUSH1 0xA0 SHL SUB AND PUSH4 0x907DFF97 DUP3 PUSH1 0x40 MLOAD PUSH1 0x20 ADD DUP1 DUP3 DUP2 MSTORE PUSH1 0x20 ADD SWAP2 POP POP PUSH1 0x40 MLOAD PUSH1 0x20 DUP2 DUP4 SUB SUB DUP2 MSTORE SWAP1 PUSH1 0x40 MSTORE PUSH1 0x3 PUSH1 0x40 MLOAD DUP1 PUSH1 0x21 PUSH2 0x615A DUP3 CODECOPY PUSH1 0x21 ADD SWAP1 POP PUSH1 0x40 MLOAD DUP1 SWAP2 SUB SWAP1 KECCAK256 PUSH2 0x4B33 DUP9 PUSH2 0x5338 JUMP JUMPDEST PUSH2 0x4B3C DUP9 PUSH2 0x5338 JUMP JUMPDEST PUSH1 0x0 PUSH1 0x40 MLOAD DUP8 PUSH4 0xFFFFFFFF AND PUSH1 0xE0 SHL DUP2 MSTORE PUSH1 0x4 ADD DUP1 DUP1 PUSH1 0x20 ADD DUP8 DUP2 MSTORE PUSH1 0x20 ADD DUP7 DUP2 MSTORE PUSH1 0x20 ADD DUP6 DUP2 MSTORE PUSH1 0x20 ADD DUP5 DUP2 MSTORE PUSH1 0x20 ADD DUP4 PUSH1 0x0 SHL DUP2 MSTORE PUSH1 0x20 ADD DUP3 DUP2 SUB DUP3 MSTORE DUP9 DUP2 DUP2 MLOAD DUP2 MSTORE PUSH1 0x20 ADD SWAP2 POP DUP1 MLOAD PUSH1 0x20 SWAP1 SWAP2 ADD SWAP1 DUP1 DUP4 DUP4 PUSH1 0x0 DUP4 ISZERO PUSH2 0x2E0D JUMPI DUP1 DUP3 ADD MLOAD DUP4 DUP3 ADD MSTORE PUSH1 0x20 ADD PUSH2 0x2DF5 JUMP JUMPDEST PUSH1 0x0 PUSH2 0x49EB PUSH12 0x53797374656D537461747573 PUSH1 0xA0 SHL PUSH1 0x40 MLOAD PUSH1 0x40 DUP1 DUP3 ADD SWAP1 MSTORE PUSH1 0x1C DUP2 MSTORE PUSH32 0x4D697373696E672053797374656D537461747573206164647265737300000000 PUSH1 0x20 DUP3 ADD MSTORE PUSH2 0x5871 JUMP JUMPDEST PUSH1 0x0 PUSH2 0x49EB PUSH19 0x2932BBB0B93239A234B9BA3934B13ABA34B7B7 PUSH1 0x69 SHL PUSH1 0x40 MLOAD PUSH1 0x60 DUP2 ADD PUSH1 0x40 MSTORE PUSH1 0x23 DUP1 DUP3 MSTORE PUSH2 0x617B PUSH1 0x20 DUP4 ADD CODECOPY PUSH2 0x5871 JUMP JUMPDEST PUSH1 0x0 PUSH2 0x49EB PUSH14 0x537570706C795363686564756C65 PUSH1 0x90 SHL PUSH1 0x40 MLOAD PUSH1 0x40 DUP1 DUP3 ADD SWAP1 MSTORE PUSH1 0x1E DUP2 MSTORE PUSH32 0x4D697373696E6720537570706C795363686564756C6520616464726573730000 PUSH1 0x20 DUP3 ADD MSTORE PUSH2 0x5871 JUMP JUMPDEST PUSH1 0x0 DUP3 DUP3 GT ISZERO PUSH2 0x4CDE JUMPI PUSH1 0x40 MLOAD PUSH3 0x461BCD PUSH1 0xE5 SHL DUP2 MSTORE PUSH1 0x20 PUSH1 0x4 DUP3 ADD MSTORE PUSH1 0x1E PUSH1 0x24 DUP3 ADD MSTORE PUSH32 0x536166654D6174683A207375627472616374696F6E206F766572666C6F770000 PUSH1 0x44 DUP3 ADD MSTORE PUSH1 0x64 ADD PUSH1 0x40 MLOAD DUP1 SWAP2 SUB SWAP1 PUSH2 0x4CDB PUSH2 0x5CCE JUMP JUMPDEST POP POP JUMPDEST POP SWAP1 SUB SWAP1 JUMP JUMPDEST PUSH1 0x0 DUP3 DUP3 ADD DUP4 DUP2 LT ISZERO PUSH2 0x4D46 JUMPI PUSH1 0x40 MLOAD PUSH3 0x461BCD PUSH1 0xE5 SHL DUP2 MSTORE PUSH1 0x20 PUSH1 0x4 DUP3 ADD MSTORE PUSH1 0x1B PUSH1 0x24 DUP3 ADD MSTORE PUSH32 0x536166654D6174683A206164646974696F6E206F766572666C6F770000000000 PUSH1 0x44 DUP3 ADD MSTORE PUSH1 0x64 ADD PUSH1 0x40 MLOAD DUP1 SWAP2 SUB SWAP1 PUSH2 0x4D43 PUSH2 0x5CCE JUMP JUMPDEST POP POP JUMPDEST SWAP4 SWAP3 POP POP POP JUMP JUMPDEST PUSH1 0x0 PUSH1 0x4 PUSH2 0x4D59 PUSH2 0x5D39 JUMP JUMPDEST SWAP1 PUSH2 0x100 EXP SWAP1 DIV PUSH1 0x1 PUSH1 0x1 PUSH1 0xA0 SHL SUB AND PUSH1 0x1 PUSH1 0x1 PUSH1 0xA0 SHL SUB AND PUSH4 0x907DFF97 DUP3 PUSH1 0x40 MLOAD PUSH1 0x20 ADD DUP1 DUP3 DUP2 MSTORE PUSH1 0x20 ADD SWAP2 POP POP PUSH1 0x40 MLOAD PUSH1 0x20 DUP2 DUP4 SUB SUB DUP2 MSTORE SWAP1 PUSH1 0x40 MSTORE PUSH1 0x3 PUSH1 0x40 MLOAD DUP1 PUSH1 0x21 PUSH2 0x6220 DUP3 CODECOPY PUSH1 0x21 ADD SWAP1 POP PUSH1 0x40 MLOAD DUP1 SWAP2 SUB SWAP1 KECCAK256 PUSH2 0x4B33 DUP9 PUSH2 0x5338 JUMP JUMPDEST PUSH1 0x0 DUP1 PUSH2 0x4DC5 PUSH2 0x5D39 JUMP JUMPDEST SWAP1 PUSH2 0x100 EXP SWAP1 DIV PUSH1 0x1 PUSH1 0x1 PUSH1 0xA0 SHL SUB AND PUSH1 0x1 PUSH1 0x1 PUSH1 0xA0 SHL SUB AND GAS PUSH2 0x4DE7 PUSH2 0x5F52 JUMP JUMPDEST PUSH1 0x1 PUSH1 0x1 PUSH1 0xA0 SHL SUB AND EQ PUSH2 0x37C2 JUMPI PUSH1 0x40 MLOAD PUSH3 0x461BCD PUSH1 0xE5 SHL DUP2 MSTORE PUSH1 0x4 ADD DUP1 DUP1 PUSH1 0x20 ADD DUP3 DUP2 SUB DUP3 MSTORE PUSH1 0x2F DUP2 MSTORE PUSH1 0x20 ADD DUP1 PUSH2 0x612B PUSH1 0x2F SWAP2 CODECOPY PUSH1 0x40 ADD SWAP2 POP POP PUSH1 0x40 MLOAD DUP1 SWAP2 SUB SWAP1 PUSH2 0x2632 PUSH2 0x5CCE JUMP JUMPDEST PUSH1 0x0 PUSH2 0x49EB PUSH9 0x22BC31B430B733B2B9 PUSH1 0xB9 SHL PUSH1 0x40 MLOAD PUSH1 0x40 DUP1 DUP3 ADD SWAP1 MSTORE PUSH1 0x19 DUP2 MSTORE PUSH32 0x4D697373696E672045786368616E676572206164647265737300000000000000 PUSH1 0x20 DUP3 ADD MSTORE PUSH2 0x5871 JUMP JUMPDEST PUSH1 0x0 DUP1 PUSH2 0x4E88 PUSH2 0x593A JUMP JUMPDEST PUSH1 0x1 PUSH1 0x1 PUSH1 0xA0 SHL SUB AND PUSH4 0x8B3F8088 DUP6 PUSH1 0x40 MLOAD PUSH1 0x1 PUSH1 0x1 PUSH1 0xE0 SHL SUB NOT PUSH1 0xE0 DUP5 SWAP1 SHL AND DUP2 MSTORE PUSH1 0x1 PUSH1 0x1 PUSH1 0xA0 SHL SUB SWAP1 SWAP2 AND PUSH1 0x4 DUP3 ADD MSTORE PUSH1 0x24 ADD PUSH1 0x40 DUP1 MLOAD DUP1 DUP4 SUB DUP2 DUP7 DUP1 PUSH2 0x4ED0 PUSH2 0x5D94 JUMP JUMPDEST ISZERO DUP1 ISZERO PUSH2 0x4EE5 JUMPI PUSH1 0x0 DUP1 PUSH2 0x4EE2 PUSH2 0x5CCE JUMP JUMPDEST POP POP JUMPDEST POP GAS PUSH2 0x4EEF PUSH2 0x5DE0 JUMP JUMPDEST POP POP POP POP POP ISZERO DUP1 ISZERO PUSH2 0x4F0E JUMPI RETURNDATASIZE PUSH1 0x0 DUP1 RETURNDATACOPY RETURNDATASIZE PUSH1 0x0 PUSH2 0x4F0B PUSH2 0x5CCE JUMP JUMPDEST POP POP JUMPDEST POP POP POP POP PUSH1 0x40 MLOAD RETURNDATASIZE PUSH1 0x40 DUP2 LT ISZERO PUSH2 0x4F2D JUMPI PUSH1 0x0 DUP1 PUSH2 0x4F2A PUSH2 0x5CCE JUMP JUMPDEST POP POP JUMPDEST DUP2 ADD SWAP1 DUP1 DUP1 MLOAD SWAP3 SWAP2 SWAP1 PUSH1 0x20 ADD DUP1 MLOAD POP SWAP3 SWAP4 POP POP DUP3 ISZERO SWAP2 POP PUSH2 0x11C2 SWAP1 POP JUMPI PUSH1 0x0 DUP1 PUSH2 0x4F55 PUSH2 0x49AA JUMP JUMPDEST PUSH1 0x1 PUSH1 0x1 PUSH1 0xA0 SHL SUB AND PUSH4 0x6BED0415 DUP8 PUSH1 0x0 PUSH1 0x7 PUSH2 0x4F70 PUSH2 0x5D39 JUMP JUMPDEST SWAP1 PUSH2 0x100 EXP SWAP1 DIV PUSH1 0x1 PUSH1 0x1 PUSH1 0xA0 SHL SUB AND PUSH1 0x1 PUSH1 0x1 PUSH1 0xA0 SHL SUB AND PUSH4 0x70A08231 DUP11 PUSH1 0x40 MLOAD PUSH1 0x1 PUSH1 0x1 PUSH1 0xE0 SHL SUB NOT PUSH1 0xE0 DUP5 SWAP1 SHL AND DUP2 MSTORE PUSH1 0x1 PUSH1 0x1 PUSH1 0xA0 SHL SUB SWAP1 SWAP2 AND PUSH1 0x4 DUP3 ADD MSTORE PUSH1 0x24 ADD PUSH1 0x20 PUSH1 0x40 MLOAD DUP1 DUP4 SUB DUP2 DUP7 DUP1 PUSH2 0x4FC9 PUSH2 0x5D94 JUMP JUMPDEST ISZERO DUP1 ISZERO PUSH2 0x4FDE JUMPI PUSH1 0x0 DUP1 PUSH2 0x4FDB PUSH2 0x5CCE JUMP JUMPDEST POP POP JUMPDEST POP GAS PUSH2 0x4FE8 PUSH2 0x5DE0 JUMP JUMPDEST POP POP POP POP POP ISZERO DUP1 ISZERO PUSH2 0x5007 JUMPI RETURNDATASIZE PUSH1 0x0 DUP1 RETURNDATACOPY RETURNDATASIZE PUSH1 0x0 PUSH2 0x5004 PUSH2 0x5CCE JUMP JUMPDEST POP POP JUMPDEST POP POP POP POP PUSH1 0x40 MLOAD RETURNDATASIZE PUSH1 0x20 DUP2 LT ISZERO PUSH2 0x5026 JUMPI PUSH1 0x0 DUP1 PUSH2 0x5023 PUSH2 0x5CCE JUMP JUMPDEST POP POP JUMPDEST DUP2 ADD SWAP1 DUP1 DUP1 MLOAD SWAP3 POP PUSH1 0x40 SWAP2 POP POP MLOAD PUSH1 0x1 PUSH1 0x1 PUSH1 0xE0 SHL SUB NOT PUSH1 0xE0 DUP6 SWAP1 SHL AND DUP2 MSTORE PUSH1 0x1 PUSH1 0x1 PUSH1 0xA0 SHL SUB SWAP1 SWAP3 AND PUSH1 0x4 DUP4 ADD MSTORE PUSH1 0x24 DUP3 ADD MSTORE PUSH1 0x44 ADD PUSH1 0x40 DUP1 MLOAD DUP1 DUP4 SUB DUP2 DUP7 DUP1 PUSH2 0x506F PUSH2 0x5D94 JUMP JUMPDEST ISZERO DUP1 ISZERO PUSH2 0x5084 JUMPI PUSH1 0x0 DUP1 PUSH2 0x5081 PUSH2 0x5CCE JUMP JUMPDEST POP POP JUMPDEST POP GAS PUSH2 0x508E PUSH2 0x5DE0 JUMP JUMPDEST POP POP POP POP POP ISZERO DUP1 ISZERO PUSH2 0x50AD JUMPI RETURNDATASIZE PUSH1 0x0 DUP1 RETURNDATACOPY RETURNDATASIZE PUSH1 0x0 PUSH2 0x50AA PUSH2 0x5CCE JUMP JUMPDEST POP POP JUMPDEST POP POP POP POP PUSH1 0x40 MLOAD RETURNDATASIZE PUSH1 0x40 DUP2 LT ISZERO PUSH2 0x50CC JUMPI PUSH1 0x0 DUP1 PUSH2 0x50C9 PUSH2 0x5CCE JUMP JUMPDEST POP POP JUMPDEST DUP2 ADD SWAP1 DUP1 DUP1 MLOAD SWAP3 SWAP2 SWAP1 PUSH1 0x20 ADD DUP1 MLOAD SWAP4 SWAP6 POP SWAP3 SWAP4 POP POP POP POP DUP2 DUP6 GT ISZERO PUSH2 0x512B JUMPI PUSH1 0x40 MLOAD PUSH3 0x461BCD PUSH1 0xE5 SHL DUP2 MSTORE PUSH1 0x4 ADD DUP1 DUP1 PUSH1 0x20 ADD DUP3 DUP2 SUB DUP3 MSTORE PUSH1 0x26 DUP2 MSTORE PUSH1 0x20 ADD DUP1 PUSH2 0x6105 PUSH1 0x26 SWAP2 CODECOPY PUSH1 0x40 ADD SWAP2 POP POP PUSH1 0x40 MLOAD DUP1 SWAP2 SUB SWAP1 PUSH2 0x5128 PUSH2 0x5CCE JUMP JUMPDEST POP POP JUMPDEST DUP1 ISZERO PUSH2 0x5186 JUMPI PUSH1 0x40 MLOAD PUSH3 0x461BCD PUSH1 0xE5 SHL DUP2 MSTORE PUSH1 0x20 PUSH1 0x4 DUP3 ADD MSTORE PUSH1 0x1E PUSH1 0x24 DUP3 ADD MSTORE PUSH32 0x412073796E7468206F7220534E58207261746520697320696E76616C69640000 PUSH1 0x44 DUP3 ADD MSTORE PUSH1 0x64 ADD PUSH1 0x40 MLOAD DUP1 SWAP2 SUB SWAP1 PUSH2 0x5183 PUSH2 0x5CCE JUMP JUMPDEST POP POP JUMPDEST POP PUSH1 0x1 SWAP6 SWAP5 POP POP POP POP POP JUMP JUMPDEST PUSH1 0x0 DUP1 PUSH1 0x7 PUSH2 0x519F PUSH2 0x5D39 JUMP JUMPDEST PUSH1 0x1 PUSH1 0x1 PUSH1 0xA0 SHL SUB PUSH2 0x100 SWAP3 SWAP1 SWAP3 EXP SWAP1 DIV AND PUSH4 0xDA46098C DUP6 DUP8 PUSH2 0x529D DUP7 PUSH1 0x0 PUSH1 0x7 PUSH2 0x51C8 PUSH2 0x5D39 JUMP JUMPDEST SWAP1 PUSH2 0x100 EXP SWAP1 DIV PUSH1 0x1 PUSH1 0x1 PUSH1 0xA0 SHL SUB AND PUSH1 0x1 PUSH1 0x1 PUSH1 0xA0 SHL SUB AND PUSH4 0xDD62ED3E DUP12 DUP14 PUSH1 0x40 MLOAD PUSH1 0x1 PUSH1 0x1 PUSH1 0xE0 SHL SUB NOT PUSH1 0xE0 DUP6 SWAP1 SHL AND DUP2 MSTORE PUSH1 0x1 PUSH1 0x1 PUSH1 0xA0 SHL SUB SWAP3 DUP4 AND PUSH1 0x4 DUP3 ADD MSTORE SWAP2 AND PUSH1 0x24 DUP3 ADD MSTORE PUSH1 0x44 ADD PUSH1 0x20 PUSH1 0x40 MLOAD DUP1 DUP4 SUB DUP2 DUP7 DUP1 PUSH2 0x5229 PUSH2 0x5D94 JUMP JUMPDEST ISZERO DUP1 ISZERO PUSH2 0x523E JUMPI PUSH1 0x0 DUP1 PUSH2 0x523B PUSH2 0x5CCE JUMP JUMPDEST POP POP JUMPDEST POP GAS PUSH2 0x5248 PUSH2 0x5DE0 JUMP JUMPDEST POP POP POP POP POP ISZERO DUP1 ISZERO PUSH2 0x5267 JUMPI RETURNDATASIZE PUSH1 0x0 DUP1 RETURNDATACOPY RETURNDATASIZE PUSH1 0x0 PUSH2 0x5264 PUSH2 0x5CCE JUMP JUMPDEST POP POP JUMPDEST POP POP POP POP PUSH1 0x40 MLOAD RETURNDATASIZE PUSH1 0x20 DUP2 LT ISZERO PUSH2 0x5286 JUMPI PUSH1 0x0 DUP1 PUSH2 0x5283 PUSH2 0x5CCE JUMP JUMPDEST POP POP JUMPDEST DUP2 ADD SWAP1 DUP1 DUP1 MLOAD SWAP4 SWAP3 POP POP PUSH4 0xFFFFFFFF PUSH2 0x4C7F AND SWAP1 POP JUMP JUMPDEST PUSH1 0x40 MLOAD PUSH1 0x1 PUSH1 0x1 PUSH1 0xE0 SHL SUB NOT PUSH1 0xE0 DUP7 SWAP1 SHL AND DUP2 MSTORE PUSH1 0x1 PUSH1 0x1 PUSH1 0xA0 SHL SUB SWAP4 DUP5 AND PUSH1 0x4 DUP3 ADD MSTORE SWAP2 SWAP1 SWAP3 AND PUSH1 0x24 DUP3 ADD MSTORE PUSH1 0x44 DUP2 ADD SWAP2 SWAP1 SWAP2 MSTORE PUSH1 0x64 ADD PUSH1 0x0 PUSH1 0x40 MLOAD DUP1 DUP4 SUB DUP2 PUSH1 0x0 DUP8 DUP1 PUSH2 0x52EA PUSH2 0x5D94 JUMP JUMPDEST ISZERO DUP1 ISZERO PUSH2 0x52FF JUMPI PUSH1 0x0 DUP1 PUSH2 0x52FC PUSH2 0x5CCE JUMP JUMPDEST POP POP JUMPDEST POP GAS PUSH2 0x5309 PUSH2 0x5E99 JUMP JUMPDEST POP POP POP POP POP POP ISZERO DUP1 ISZERO PUSH2 0x5329 JUMPI RETURNDATASIZE PUSH1 0x0 DUP1 RETURNDATACOPY RETURNDATASIZE PUSH1 0x0 PUSH2 0x5326 PUSH2 0x5CCE JUMP JUMPDEST POP POP JUMPDEST POP POP POP POP PUSH2 0x46AB DUP5 DUP5 DUP5 PUSH2 0x598A JUMP JUMPDEST PUSH1 0x1 PUSH1 0x1 PUSH1 0xA0 SHL SUB AND SWAP1 JUMP JUMPDEST PUSH1 0x0 PUSH1 0x4 PUSH2 0x5350 PUSH2 0x5D39 JUMP JUMPDEST SWAP1 PUSH2 0x100 EXP SWAP1 DIV PUSH1 0x1 PUSH1 0x1 PUSH1 0xA0 SHL SUB AND PUSH1 0x1 PUSH1 0x1 PUSH1 0xA0 SHL SUB AND GAS PUSH2 0x5372 PUSH2 0x5F52 JUMP JUMPDEST PUSH1 0x1 PUSH1 0x1 PUSH1 0xA0 SHL SUB AND EQ ISZERO DUP1 ISZERO PUSH2 0x53BE JUMPI POP PUSH1 0x0 PUSH1 0x5 PUSH2 0x5390 PUSH2 0x5D39 JUMP JUMPDEST SWAP1 PUSH2 0x100 EXP SWAP1 DIV PUSH1 0x1 PUSH1 0x1 PUSH1 0xA0 SHL SUB AND PUSH1 0x1 PUSH1 0x1 PUSH1 0xA0 SHL SUB AND GAS PUSH2 0x53B2 PUSH2 0x5F52 JUMP JUMPDEST PUSH1 0x1 PUSH1 0x1 PUSH1 0xA0 SHL SUB AND EQ ISZERO JUMPDEST DUP1 ISZERO PUSH2 0x53FF JUMPI POP GAS PUSH2 0x53CE PUSH2 0x5F52 JUMP JUMPDEST PUSH1 0x1 PUSH1 0x1 PUSH1 0xA0 SHL SUB AND PUSH1 0x0 PUSH1 0x6 PUSH2 0x53E3 PUSH2 0x5D39 JUMP JUMPDEST SWAP1 PUSH2 0x100 EXP SWAP1 DIV PUSH1 0x1 PUSH1 0x1 PUSH1 0xA0 SHL SUB AND PUSH1 0x1 PUSH1 0x1 PUSH1 0xA0 SHL SUB AND EQ ISZERO JUMPDEST ISZERO PUSH2 0x5440 JUMPI GAS PUSH2 0x540D PUSH2 0x5F52 JUMP JUMPDEST PUSH1 0x6 PUSH1 0x1 DUP2 PUSH2 0x541A PUSH2 0x5D39 JUMP JUMPDEST DUP2 PUSH1 0x1 PUSH1 0x1 PUSH1 0xA0 SHL SUB MUL NOT AND SWAP1 DUP4 PUSH1 0x1 PUSH1 0x1 PUSH1 0xA0 SHL SUB AND MUL OR SWAP1 PUSH2 0x543C PUSH2 0x5F98 JUMP JUMPDEST POP POP POP JUMPDEST PUSH1 0x0 DUP1 PUSH2 0x544B PUSH2 0x5D39 JUMP JUMPDEST PUSH1 0x1 PUSH1 0x1 PUSH1 0xA0 SHL SUB PUSH2 0x100 SWAP3 SWAP1 SWAP3 EXP SWAP1 DIV AND PUSH1 0x0 PUSH1 0x6 PUSH2 0x5469 PUSH2 0x5D39 JUMP JUMPDEST SWAP1 PUSH2 0x100 EXP SWAP1 DIV PUSH1 0x1 PUSH1 0x1 PUSH1 0xA0 SHL SUB AND PUSH1 0x1 PUSH1 0x1 PUSH1 0xA0 SHL SUB AND EQ PUSH2 0x37C2 JUMPI PUSH1 0x40 MLOAD PUSH3 0x461BCD PUSH1 0xE5 SHL DUP2 MSTORE PUSH1 0x20 PUSH1 0x4 DUP3 ADD MSTORE PUSH1 0x13 PUSH1 0x24 DUP3 ADD MSTORE PUSH19 0x27BBB732B91037B7363C90333AB731BA34B7B7 PUSH1 0x69 SHL PUSH1 0x44 DUP3 ADD MSTORE PUSH1 0x64 ADD PUSH1 0x40 MLOAD DUP1 SWAP2 SUB SWAP1 PUSH2 0x2632 PUSH2 0x5CCE JUMP JUMPDEST PUSH1 0x0 PUSH1 0x4 PUSH2 0x54DB PUSH2 0x5D39 JUMP JUMPDEST SWAP1 PUSH2 0x100 EXP SWAP1 DIV PUSH1 0x1 PUSH1 0x1 PUSH1 0xA0 SHL SUB AND PUSH1 0x1 PUSH1 0x1 PUSH1 0xA0 SHL SUB AND PUSH4 0x907DFF97 DUP3 PUSH1 0x40 MLOAD PUSH1 0x1 PUSH1 0x1 PUSH1 0xA0 SHL SUB SWAP1 SWAP2 AND PUSH1 0x20 DUP3 ADD MSTORE PUSH1 0x40 SWAP1 DUP2 ADD SWAP1 MLOAD PUSH1 0x20 DUP2 DUP4 SUB SUB DUP2 MSTORE SWAP1 PUSH1 0x40 MSTORE PUSH1 0x1 PUSH1 0x40 MLOAD PUSH32 0x546F6B656E537461746555706461746564286164647265737329000000000000 DUP2 MSTORE PUSH1 0x1A ADD PUSH1 0x40 MLOAD DUP1 SWAP2 SUB SWAP1 KECCAK256 PUSH1 0x0 DUP1 PUSH1 0x0 PUSH1 0x40 MLOAD DUP8 PUSH4 0xFFFFFFFF AND PUSH1 0xE0 SHL DUP2 MSTORE PUSH1 0x4 ADD DUP1 DUP1 PUSH1 0x20 ADD DUP8 DUP2 MSTORE PUSH1 0x20 ADD DUP7 DUP2 MSTORE PUSH1 0x20 ADD DUP6 PUSH1 0x0 SHL DUP2 MSTORE PUSH1 0x20 ADD DUP5 PUSH1 0x0 SHL DUP2 MSTORE PUSH1 0x20 ADD DUP4 PUSH1 0x0 SHL DUP2 MSTORE PUSH1 0x20 ADD DUP3 DUP2 SUB DUP3 MSTORE DUP9 DUP2 DUP2 MLOAD DUP2 MSTORE PUSH1 0x20 ADD SWAP2 POP DUP1 MLOAD SWAP1 PUSH1 0x20 ADD SWAP1 DUP1 DUP4 DUP4 PUSH1 0x0 JUMPDEST DUP4 DUP2 LT ISZERO PUSH2 0x55CB JUMPI DUP1 DUP3 ADD MLOAD DUP4 DUP3 ADD MSTORE PUSH1 0x20 ADD PUSH2 0x55B3 JUMP JUMPDEST POP POP POP POP SWAP1 POP SWAP1 DUP2 ADD SWAP1 PUSH1 0x1F AND DUP1 ISZERO PUSH2 0x55F8 JUMPI DUP1 DUP3 SUB DUP1 MLOAD PUSH1 0x1 DUP4 PUSH1 0x20 SUB PUSH2 0x100 EXP SUB NOT AND DUP2 MSTORE PUSH1 0x20 ADD SWAP2 POP JUMPDEST POP SWAP8 POP POP POP POP POP POP POP POP PUSH1 0x0 PUSH1 0x40 MLOAD DUP1 DUP4 SUB DUP2 PUSH1 0x0 DUP8 DUP1 PUSH2 0x1F3E PUSH2 0x5D94 JUMP JUMPDEST PUSH1 0x0 PUSH2 0x1E3D DUP5 DUP5 DUP5 PUSH2 0x598A JUMP JUMPDEST PUSH1 0x0 PUSH1 0x4 PUSH2 0x5630 PUSH2 0x5D39 JUMP JUMPDEST SWAP1 PUSH2 0x100 EXP SWAP1 DIV PUSH1 0x1 PUSH1 0x1 PUSH1 0xA0 SHL SUB AND PUSH1 0x1 PUSH1 0x1 PUSH1 0xA0 SHL SUB AND GAS PUSH2 0x5652 PUSH2 0x5F52 JUMP JUMPDEST PUSH1 0x1 PUSH1 0x1 PUSH1 0xA0 SHL SUB AND EQ DUP1 PUSH2 0x569B JUMPI POP PUSH1 0x0 PUSH1 0x5 PUSH2 0x566E PUSH2 0x5D39 JUMP JUMPDEST SWAP1 PUSH2 0x100 EXP SWAP1 DIV PUSH1 0x1 PUSH1 0x1 PUSH1 0xA0 SHL SUB AND PUSH1 0x1 PUSH1 0x1 PUSH1 0xA0 SHL SUB AND GAS PUSH2 0x5690 PUSH2 0x5F52 JUMP JUMPDEST PUSH1 0x1 PUSH1 0x1 PUSH1 0xA0 SHL SUB AND EQ JUMPDEST PUSH2 0x37C2 JUMPI PUSH1 0x40 MLOAD PUSH3 0x461BCD PUSH1 0xE5 SHL DUP2 MSTORE PUSH1 0x20 PUSH1 0x4 DUP3 ADD MSTORE PUSH1 0x17 PUSH1 0x24 DUP3 ADD MSTORE PUSH32 0x4F6E6C79207468652070726F78792063616E2063616C6C000000000000000000 PUSH1 0x44 DUP3 ADD MSTORE PUSH1 0x64 ADD PUSH1 0x40 MLOAD DUP1 SWAP2 SUB SWAP1 PUSH2 0x2632 PUSH2 0x5CCE JUMP JUMPDEST PUSH1 0x0 PUSH1 0x4 PUSH2 0x56FD PUSH2 0x5D39 JUMP JUMPDEST SWAP1 PUSH2 0x100 EXP SWAP1 DIV PUSH1 0x1 PUSH1 0x1 PUSH1 0xA0 SHL SUB AND PUSH1 0x1 PUSH1 0x1 PUSH1 0xA0 SHL SUB AND PUSH4 0x907DFF97 DUP5 DUP5 DUP5 PUSH1 0x40 MLOAD PUSH1 0x20 DUP2 ADD SWAP4 SWAP1 SWAP4 MSTORE PUSH1 0x40 DUP1 DUP5 ADD SWAP3 SWAP1 SWAP3 MSTORE PUSH1 0x1 PUSH1 0x1 PUSH1 0xA0 SHL SUB AND PUSH1 0x60 DUP4 ADD MSTORE PUSH1 0x80 SWAP1 SWAP2 ADD SWAP1 MLOAD PUSH1 0x20 DUP2 DUP4 SUB SUB DUP2 MSTORE SWAP1 PUSH1 0x40 MSTORE PUSH1 0x2 PUSH1 0x40 MLOAD DUP1 PUSH1 0x32 PUSH2 0x61EE DUP3 CODECOPY PUSH1 0x32 ADD SWAP1 POP PUSH1 0x40 MLOAD DUP1 SWAP2 SUB SWAP1 KECCAK256 PUSH2 0x5776 DUP10 PUSH2 0x5338 JUMP JUMPDEST PUSH1 0x0 DUP1 PUSH1 0x40 MLOAD DUP8 PUSH4 0xFFFFFFFF AND PUSH1 0xE0 SHL DUP2 MSTORE PUSH1 0x4 ADD DUP1 DUP1 PUSH1 0x20 ADD DUP8 DUP2 MSTORE PUSH1 0x20 ADD DUP7 DUP2 MSTORE PUSH1 0x20 ADD DUP6 DUP2 MSTORE PUSH1 0x20 ADD DUP5 PUSH1 0x0 SHL DUP2 MSTORE PUSH1 0x20 ADD DUP4 PUSH1 0x0 SHL DUP2 MSTORE PUSH1 0x20 ADD DUP3 DUP2 SUB DUP3 MSTORE DUP9 DUP2 DUP2 MLOAD DUP2 MSTORE PUSH1 0x20 ADD SWAP2 POP DUP1 MLOAD SWAP1 PUSH1 0x20 ADD SWAP1 DUP1 DUP4 DUP4 PUSH1 0x0 JUMPDEST DUP4 DUP2 LT ISZERO PUSH2 0x57E9 JUMPI DUP1 DUP3 ADD MLOAD DUP4 DUP3 ADD MSTORE PUSH1 0x20 ADD PUSH2 0x57D1 JUMP JUMPDEST POP POP POP POP SWAP1 POP SWAP1 DUP2 ADD SWAP1 PUSH1 0x1F AND DUP1 ISZERO PUSH2 0x5816 JUMPI DUP1 DUP3 SUB DUP1 MLOAD PUSH1 0x1 DUP4 PUSH1 0x20 SUB PUSH2 0x100 EXP SUB NOT AND DUP2 MSTORE PUSH1 0x20 ADD SWAP2 POP JUMPDEST POP SWAP8 POP POP POP POP POP POP POP POP PUSH1 0x0 PUSH1 0x40 MLOAD DUP1 DUP4 SUB DUP2 PUSH1 0x0 DUP8 DUP1 PUSH2 0x5835 PUSH2 0x5D94 JUMP JUMPDEST ISZERO DUP1 ISZERO PUSH2 0x584A JUMPI PUSH1 0x0 DUP1 PUSH2 0x5847 PUSH2 0x5CCE JUMP JUMPDEST POP POP JUMPDEST POP GAS PUSH2 0x5854 PUSH2 0x5E99 JUMP JUMPDEST POP POP POP POP POP POP ISZERO DUP1 ISZERO PUSH2 0x3F64 JUMPI RETURNDATASIZE PUSH1 0x0 DUP1 RETURNDATACOPY RETURNDATASIZE PUSH1 0x0 PUSH2 0x2CAE PUSH2 0x5CCE JUMP JUMPDEST PUSH1 0x0 DUP3 DUP2 MSTORE PUSH1 0xC PUSH1 0x20 MSTORE DUP1 PUSH1 0x40 DUP2 KECCAK256 PUSH1 0x0 SWAP1 PUSH2 0x588B PUSH2 0x5D39 JUMP JUMPDEST PUSH1 0x1 PUSH1 0x1 PUSH1 0xA0 SHL SUB PUSH2 0x100 SWAP3 SWAP1 SWAP3 EXP SWAP1 DIV AND SWAP1 POP DUP3 DUP2 PUSH2 0x5932 JUMPI PUSH1 0x40 MLOAD PUSH3 0x461BCD PUSH1 0xE5 SHL DUP2 MSTORE PUSH1 0x4 ADD DUP1 DUP1 PUSH1 0x20 ADD DUP3 DUP2 SUB DUP3 MSTORE DUP4 DUP2 DUP2 MLOAD DUP2 MSTORE PUSH1 0x20 ADD SWAP2 POP DUP1 MLOAD SWAP1 PUSH1 0x20 ADD SWAP1 DUP1 DUP4 DUP4 PUSH1 0x0 JUMPDEST DUP4 DUP2 LT ISZERO PUSH2 0x58EE JUMPI DUP1 DUP3 ADD MLOAD DUP4 DUP3 ADD MSTORE PUSH1 0x20 ADD PUSH2 0x58D6 JUMP JUMPDEST POP POP POP POP SWAP1 POP SWAP1 DUP2 ADD SWAP1 PUSH1 0x1F AND DUP1 ISZERO PUSH2 0x591B JUMPI DUP1 DUP3 SUB DUP1 MLOAD PUSH1 0x1 DUP4 PUSH1 0x20 SUB PUSH2 0x100 EXP SUB NOT AND DUP2 MSTORE PUSH1 0x20 ADD SWAP2 POP JUMPDEST POP SWAP3 POP POP POP PUSH1 0x40 MLOAD DUP1 SWAP2 SUB SWAP1 PUSH2 0x592F PUSH2 0x5CCE JUMP JUMPDEST POP POP JUMPDEST POP SWAP4 SWAP3 POP POP POP JUMP JUMPDEST PUSH1 0x0 PUSH2 0x49EB PUSH14 0x53796E7468657469785374617465 PUSH1 0x90 SHL PUSH1 0x40 MLOAD PUSH1 0x40 DUP1 DUP3 ADD SWAP1 MSTORE PUSH1 0x1E DUP2 MSTORE PUSH32 0x4D697373696E672053796E746865746978537461746520616464726573730000 PUSH1 0x20 DUP3 ADD MSTORE PUSH2 0x5871 JUMP JUMPDEST PUSH1 0x0 PUSH1 0x1 PUSH1 0x1 PUSH1 0xA0 SHL SUB DUP4 AND ISZERO DUP1 ISZERO SWAP1 PUSH2 0x5A0E JUMPI POP GAS PUSH4 0x996D79A5 MSIZE DUP2 PUSH1 0xE0 SHL DUP2 MSTORE PUSH1 0x20 DUP2 PUSH1 0x4 DUP4 CALLER PUSH1 0x0 SWAP1 GAS CALL PC PUSH1 0xE ADD JUMPI RETURNDATASIZE PUSH1 0x0 DUP1 RETURNDATACOPY RETURNDATASIZE PUSH1 0x0 REVERT JUMPDEST RETURNDATASIZE PUSH1 0x1 EQ ISZERO PC PUSH1 0xA ADD JUMPI PUSH1 0x1 PUSH1 0x0 RETURN JUMPDEST DUP1 MLOAD SWAP3 POP PUSH1 0x0 JUMPDEST PUSH1 0x40 DUP2 LT ISZERO PUSH2 0x59F5 JUMPI PUSH1 0x0 DUP3 DUP3 ADD MSTORE PUSH1 0x20 ADD PUSH2 0x59DE JUMP JUMPDEST POP POP POP PUSH1 0x1 PUSH1 0x1 PUSH1 0xA0 SHL SUB AND DUP4 PUSH1 0x1 PUSH1 0x1 PUSH1 0xA0 SHL SUB AND EQ ISZERO JUMPDEST DUP1 ISZERO PUSH2 0x5A47 JUMPI POP PUSH1 0x0 PUSH1 0x4 PUSH2 0x5A21 PUSH2 0x5D39 JUMP JUMPDEST SWAP1 PUSH2 0x100 EXP SWAP1 DIV PUSH1 0x1 PUSH1 0x1 PUSH1 0xA0 SHL SUB AND PUSH1 0x1 PUSH1 0x1 PUSH1 0xA0 SHL SUB AND DUP4 PUSH1 0x1 PUSH1 0x1 PUSH1 0xA0 SHL SUB AND EQ ISZERO JUMPDEST PUSH2 0x5AA0 JUMPI PUSH1 0x40 MLOAD PUSH3 0x461BCD PUSH1 0xE5 SHL DUP2 MSTORE PUSH1 0x20 PUSH1 0x4 DUP3 ADD MSTORE PUSH1 0x1F PUSH1 0x24 DUP3 ADD MSTORE PUSH32 0x43616E6E6F74207472616E7366657220746F2074686973206164647265737300 PUSH1 0x44 DUP3 ADD MSTORE PUSH1 0x64 ADD PUSH1 0x40 MLOAD DUP1 SWAP2 SUB SWAP1 PUSH2 0x5A9D PUSH2 0x5CCE JUMP JUMPDEST POP POP JUMPDEST PUSH1 0x0 PUSH1 0x7 PUSH2 0x5AAC PUSH2 0x5D39 JUMP JUMPDEST PUSH1 0x1 PUSH1 0x1 PUSH1 0xA0 SHL SUB PUSH2 0x100 SWAP3 SWAP1 SWAP3 EXP SWAP1 DIV AND PUSH4 0xB46310F6 DUP6 PUSH2 0x5B2D DUP6 PUSH1 0x0 PUSH1 0x7 PUSH2 0x5AD4 PUSH2 0x5D39 JUMP JUMPDEST SWAP1 PUSH2 0x100 EXP SWAP1 DIV PUSH1 0x1 PUSH1 0x1 PUSH1 0xA0 SHL SUB AND PUSH1 0x1 PUSH1 0x1 PUSH1 0xA0 SHL SUB AND PUSH4 0x70A08231 DUP11 PUSH1 0x40 MLOAD PUSH1 0x1 PUSH1 0x1 PUSH1 0xE0 SHL SUB NOT PUSH1 0xE0 DUP5 SWAP1 SHL AND DUP2 MSTORE PUSH1 0x1 PUSH1 0x1 PUSH1 0xA0 SHL SUB SWAP1 SWAP2 AND PUSH1 0x4 DUP3 ADD MSTORE PUSH1 0x24 ADD PUSH1 0x20 PUSH1 0x40 MLOAD DUP1 DUP4 SUB DUP2 DUP7 DUP1 PUSH2 0x5229 PUSH2 0x5D94 JUMP JUMPDEST PUSH1 0x40 MLOAD PUSH1 0x1 PUSH1 0x1 PUSH1 0xE0 SHL SUB NOT PUSH1 0xE0 DUP6 SWAP1 SHL AND DUP2 MSTORE PUSH1 0x1 PUSH1 0x1 PUSH1 0xA0 SHL SUB SWAP1 SWAP3 AND PUSH1 0x4 DUP4 ADD MSTORE PUSH1 0x24 DUP3 ADD MSTORE PUSH1 0x44 ADD PUSH1 0x0 PUSH1 0x40 MLOAD DUP1 DUP4 SUB DUP2 PUSH1 0x0 DUP8 DUP1 PUSH2 0x5B6E PUSH2 0x5D94 JUMP JUMPDEST ISZERO DUP1 ISZERO PUSH2 0x5B83 JUMPI PUSH1 0x0 DUP1 PUSH2 0x5B80 PUSH2 0x5CCE JUMP JUMPDEST POP POP JUMPDEST POP GAS PUSH2 0x5B8D PUSH2 0x5E99 JUMP JUMPDEST POP POP POP POP POP POP ISZERO DUP1 ISZERO PUSH2 0x5BAD JUMPI RETURNDATASIZE PUSH1 0x0 DUP1 RETURNDATACOPY RETURNDATASIZE PUSH1 0x0 PUSH2 0x5BAA PUSH2 0x5CCE JUMP JUMPDEST POP POP JUMPDEST POP POP POP POP PUSH1 0x7 PUSH1 0x0 SWAP1 PUSH2 0x5BBE PUSH2 0x5D39 JUMP JUMPDEST PUSH1 0x1 PUSH1 0x1 PUSH1 0xA0 SHL SUB PUSH2 0x100 SWAP3 SWAP1 SWAP3 EXP SWAP1 DIV AND PUSH4 0xB46310F6 DUP5 PUSH2 0x5C3F DUP6 PUSH1 0x0 PUSH1 0x7 PUSH2 0x5BE6 PUSH2 0x5D39 JUMP JUMPDEST SWAP1 PUSH2 0x100 EXP SWAP1 DIV PUSH1 0x1 PUSH1 0x1 PUSH1 0xA0 SHL SUB AND PUSH1 0x1 PUSH1 0x1 PUSH1 0xA0 SHL SUB AND PUSH4 0x70A08231 DUP10 PUSH1 0x40 MLOAD PUSH1 0x1 PUSH1 0x1 PUSH1 0xE0 SHL SUB NOT PUSH1 0xE0 DUP5 SWAP1 SHL AND DUP2 MSTORE PUSH1 0x1 PUSH1 0x1 PUSH1 0xA0 SHL SUB SWAP1 SWAP2 AND PUSH1 0x4 DUP3 ADD MSTORE PUSH1 0x24 ADD PUSH1 0x20 PUSH1 0x40 MLOAD DUP1 DUP4 SUB DUP2 DUP7 DUP1 PUSH2 0x1696 PUSH2 0x5D94 JUMP JUMPDEST PUSH1 0x40 MLOAD PUSH1 0x1 PUSH1 0x1 PUSH1 0xE0 SHL SUB NOT PUSH1 0xE0 DUP6 SWAP1 SHL AND DUP2 MSTORE PUSH1 0x1 PUSH1 0x1 PUSH1 0xA0 SHL SUB SWAP1 SWAP3 AND PUSH1 0x4 DUP4 ADD MSTORE PUSH1 0x24 DUP3 ADD MSTORE PUSH1 0x44 ADD PUSH1 0x0 PUSH1 0x40 MLOAD DUP1 DUP4 SUB DUP2 PUSH1 0x0 DUP8 DUP1 PUSH2 0x5C80 PUSH2 0x5D94 JUMP JUMPDEST ISZERO DUP1 ISZERO PUSH2 0x5C95 JUMPI PUSH1 0x0 DUP1 PUSH2 0x5C92 PUSH2 0x5CCE JUMP JUMPDEST POP POP JUMPDEST POP GAS PUSH2 0x5C9F PUSH2 0x5E99 JUMP JUMPDEST POP POP POP POP POP POP ISZERO DUP1 ISZERO PUSH2 0x5CBF JUMPI RETURNDATASIZE PUSH1 0x0 DUP1 RETURNDATACOPY RETURNDATASIZE PUSH1 0x0 PUSH2 0x5CBC PUSH2 0x5CCE JUMP JUMPDEST POP POP JUMPDEST POP POP POP POP PUSH2 0x11C2 DUP5 DUP5 DUP5 PUSH2 0x4D4D JUMP JUMPDEST PUSH4 0x2A2A7ADB MSIZE DUP2 PUSH1 0xE0 SHL DUP2 MSTORE PUSH1 0x4 DUP2 ADD PUSH1 0x20 DUP2 MSTORE DUP6 PUSH1 0x20 DUP3 ADD MSTORE PUSH1 0x0 JUMPDEST DUP7 DUP2 LT ISZERO PUSH2 0x5D06 JUMPI DUP1 DUP7 ADD MLOAD DUP3 DUP3 ADD PUSH1 0x40 ADD MSTORE PUSH1 0x20 ADD PUSH2 0x5CEB JUMP JUMPDEST POP PUSH1 0x20 DUP3 DUP8 PUSH1 0x64 ADD DUP5 CALLER PUSH1 0x0 SWAP1 GAS CALL PC PUSH1 0xE ADD JUMPI RETURNDATASIZE PUSH1 0x0 DUP1 RETURNDATACOPY RETURNDATASIZE PUSH1 0x0 REVERT JUMPDEST RETURNDATASIZE PUSH1 0x1 EQ ISZERO PC PUSH1 0xA ADD JUMPI PUSH1 0x1 PUSH1 0x0 RETURN JUMPDEST POP POP POP JUMP JUMPDEST PUSH4 0x3DAA959 MSIZE DUP2 PUSH1 0xE0 SHL DUP2 MSTORE DUP4 PUSH1 0x4 DUP3 ADD MSTORE PUSH1 0x20 DUP2 PUSH1 0x24 DUP4 CALLER PUSH1 0x0 SWAP1 GAS CALL PC PUSH1 0xE ADD JUMPI RETURNDATASIZE PUSH1 0x0 DUP1 RETURNDATACOPY RETURNDATASIZE PUSH1 0x0 REVERT JUMPDEST RETURNDATASIZE PUSH1 0x1 EQ ISZERO PC PUSH1 0xA ADD JUMPI PUSH1 0x1 PUSH1 0x0 RETURN JUMPDEST DUP1 MLOAD SWAP4 POP PUSH1 0x0 JUMPDEST PUSH1 0x40 DUP2 LT ISZERO PUSH2 0x31DF JUMPI PUSH1 0x0 DUP3 DUP3 ADD MSTORE PUSH1 0x20 ADD PUSH2 0x5D7D JUMP JUMPDEST PUSH4 0x8435035B MSIZE DUP2 PUSH1 0xE0 SHL DUP2 MSTORE DUP4 PUSH1 0x4 DUP3 ADD MSTORE PUSH1 0x20 DUP2 PUSH1 0x24 DUP4 CALLER PUSH1 0x0 SWAP1 GAS CALL PC PUSH1 0xE ADD JUMPI RETURNDATASIZE PUSH1 0x0 DUP1 RETURNDATACOPY RETURNDATASIZE PUSH1 0x0 REVERT JUMPDEST RETURNDATASIZE PUSH1 0x1 EQ ISZERO PC PUSH1 0xA ADD JUMPI PUSH1 0x1 PUSH1 0x0 RETURN JUMPDEST DUP1 MLOAD PUSH1 0x0 DUP3 MSTORE SWAP4 POP PUSH1 0x20 PUSH2 0x5D7D JUMP JUMPDEST PUSH4 0x8540661F MSIZE DUP2 PUSH1 0xE0 SHL DUP2 MSTORE DUP4 PUSH1 0x4 DUP3 ADD MSTORE DUP5 PUSH1 0x24 DUP3 ADD MSTORE PUSH1 0x60 PUSH1 0x44 DUP3 ADD MSTORE DUP7 PUSH1 0x64 DUP3 ADD MSTORE PUSH1 0x84 DUP2 ADD PUSH1 0x0 JUMPDEST DUP9 DUP2 LT ISZERO PUSH2 0x5E24 JUMPI DUP1 DUP9 ADD MLOAD DUP3 DUP3 ADD MSTORE PUSH1 0x20 ADD PUSH2 0x5E0C JUMP JUMPDEST POP DUP8 PUSH2 0x104 ADD DUP3 ADD PUSH1 0x60 DUP4 DUP11 PUSH2 0x104 ADD DUP6 CALLER PUSH1 0x0 SWAP1 GAS CALL PC PUSH1 0xE ADD JUMPI RETURNDATASIZE PUSH1 0x0 DUP1 RETURNDATACOPY RETURNDATASIZE PUSH1 0x0 REVERT JUMPDEST RETURNDATASIZE PUSH1 0x1 EQ ISZERO PC PUSH1 0xA ADD JUMPI PUSH1 0x1 PUSH1 0x0 RETURN JUMPDEST DUP3 MLOAD PUSH1 0x40 DUP5 ADD MLOAD RETURNDATASIZE PUSH1 0x0 DUP7 RETURNDATACOPY DUP13 DUP13 DUP3 PUSH1 0x60 DUP9 ADD CALLER POP PUSH1 0x0 PUSH1 0x4 GAS CALL POP MSIZE DUP6 JUMPDEST DUP2 DUP2 LT ISZERO PUSH2 0x5E8D JUMPI PUSH1 0x0 DUP2 MSTORE PUSH1 0x20 ADD PUSH2 0x5E79 JUMP JUMPDEST POP SWAP2 SWAP13 POP POP POP POP POP POP POP JUMP JUMPDEST PUSH4 0x85979F76 MSIZE DUP2 PUSH1 0xE0 SHL DUP2 MSTORE DUP4 PUSH1 0x4 DUP3 ADD MSTORE DUP5 PUSH1 0x24 DUP3 ADD MSTORE PUSH1 0x60 PUSH1 0x44 DUP3 ADD MSTORE DUP8 PUSH1 0x64 DUP3 ADD MSTORE PUSH1 0x84 DUP2 ADD PUSH1 0x0 JUMPDEST DUP10 DUP2 LT ISZERO PUSH2 0x5EDD JUMPI DUP1 DUP10 ADD MLOAD DUP3 DUP3 ADD MSTORE PUSH1 0x20 ADD PUSH2 0x5EC5 JUMP JUMPDEST POP DUP9 PUSH2 0x104 ADD DUP3 ADD PUSH1 0x60 DUP4 DUP12 PUSH2 0x104 ADD DUP6 CALLER PUSH1 0x0 SWAP1 GAS CALL PC PUSH1 0xE ADD JUMPI RETURNDATASIZE PUSH1 0x0 DUP1 RETURNDATACOPY RETURNDATASIZE PUSH1 0x0 REVERT JUMPDEST RETURNDATASIZE PUSH1 0x1 EQ ISZERO PC PUSH1 0xA ADD JUMPI PUSH1 0x1 PUSH1 0x0 RETURN JUMPDEST DUP3 MLOAD PUSH1 0x40 DUP5 ADD MLOAD RETURNDATASIZE PUSH1 0x0 DUP7 RETURNDATACOPY DUP14 DUP14 DUP3 PUSH1 0x60 DUP9 ADD CALLER POP PUSH1 0x0 PUSH1 0x4 GAS CALL POP MSIZE DUP6 JUMPDEST DUP2 DUP2 LT ISZERO PUSH2 0x5F46 JUMPI PUSH1 0x0 DUP2 MSTORE PUSH1 0x20 ADD PUSH2 0x5F32 JUMP JUMPDEST POP SWAP2 SWAP14 POP POP POP POP POP POP POP JUMP JUMPDEST PUSH4 0x73509064 MSIZE DUP2 PUSH1 0xE0 SHL DUP2 MSTORE PUSH1 0x20 DUP2 PUSH1 0x4 DUP4 CALLER PUSH1 0x0 SWAP1 GAS CALL PC PUSH1 0xE ADD JUMPI RETURNDATASIZE PUSH1 0x0 DUP1 RETURNDATACOPY RETURNDATASIZE PUSH1 0x0 REVERT JUMPDEST RETURNDATASIZE PUSH1 0x1 EQ ISZERO PC PUSH1 0xA ADD JUMPI PUSH1 0x1 PUSH1 0x0 RETURN JUMPDEST DUP1 MLOAD PUSH1 0x0 DUP3 MSTORE SWAP4 POP PUSH1 0x20 PUSH2 0x5D7D JUMP JUMPDEST PUSH4 0x22BD64C0 MSIZE DUP2 PUSH1 0xE0 SHL DUP2 MSTORE DUP4 PUSH1 0x4 DUP3 ADD MSTORE DUP5 PUSH1 0x24 DUP3 ADD MSTORE PUSH1 0x0 DUP2 PUSH1 0x44 DUP4 CALLER PUSH1 0x0 SWAP1 GAS CALL PC PUSH1 0xE ADD JUMPI RETURNDATASIZE PUSH1 0x0 DUP1 RETURNDATACOPY RETURNDATASIZE PUSH1 0x0 REVERT JUMPDEST RETURNDATASIZE PUSH1 0x1 EQ ISZERO PC PUSH1 0xA ADD JUMPI PUSH1 0x1 PUSH1 0x0 RETURN JUMPDEST PUSH1 0x0 DUP2 MSTORE PUSH1 0x20 PUSH2 0x5D7D JUMP JUMPDEST PUSH4 0xBDBF8C36 MSIZE DUP2 PUSH1 0xE0 SHL DUP2 MSTORE PUSH1 0x20 DUP2 PUSH1 0x4 DUP4 CALLER PUSH1 0x0 SWAP1 GAS CALL PC PUSH1 0xE ADD JUMPI RETURNDATASIZE PUSH1 0x0 DUP1 RETURNDATACOPY RETURNDATASIZE PUSH1 0x0 REVERT JUMPDEST RETURNDATASIZE PUSH1 0x1 EQ ISZERO PC PUSH1 0xA ADD JUMPI PUSH1 0x1 PUSH1 0x0 RETURN JUMPDEST DUP1 MLOAD PUSH1 0x0 DUP3 MSTORE SWAP4 POP PUSH1 0x20 PUSH2 0x5D7D JUMP JUMPDEST PUSH1 0x40 MLOAD PUSH2 0x300 DUP1 DUP3 ADD PUSH1 0x40 MSTORE PUSH1 0x18 SWAP1 DUP3 SWAP1 DUP1 CODESIZE DUP4 CODECOPY POP SWAP2 SWAP3 SWAP2 POP POP JUMP INVALID MSIZE PUSH16 0x75206D757374206265206E6F6D696E61 PUSH21 0x6564206265666F726520796F752063616E20616363 PUSH6 0x7074206F776E PUSH6 0x727368697045 PUSH25 0x6368616E67655265636C61696D28616464726573732C627974 PUSH6 0x7333322C7569 PUSH15 0x74323536294F6E6C79204578636861 PUSH15 0x6765722063616E20696E766F6B6520 PUSH21 0x686973000053796E746845786368616E6765286164 PUSH5 0x726573732C PUSH3 0x797465 PUSH20 0x33322C75696E743235362C627974657333322C75 PUSH10 0x6E743235362C61646472 PUSH6 0x73732943616E PUSH15 0x6F74207472616E7366657220737461 PUSH12 0x6564206F7220657363726F77 PUSH6 0x6420534E584F PUSH15 0x6C792074686520636F6E7472616374 KECCAK256 PUSH16 0x776E6572206D617920706572666F726D KECCAK256 PUSH21 0x68697320616374696F6E417070726F76616C286164 PUSH5 0x726573732C PUSH2 0x6464 PUSH19 0x6573732C75696E74323536294D697373696E67 KECCAK256 MSTORE PUSH6 0x776172647344 PUSH10 0x73747269627574696F6E KECCAK256 PUSH2 0x6464 PUSH19 0x65737345786368616E67655265626174652861 PUSH5 0x6472657373 0x2C PUSH3 0x797465 PUSH20 0x33322C75696E743235362945786368616E676554 PUSH19 0x61636B696E6728627974657333322C62797465 PUSH20 0x33322C75696E74323536294163636F756E744C69 PUSH18 0x7569646174656428616464726573732C7569 PUSH15 0x743235362C75696E743235362C6164 PUSH5 0x7265737329 SLOAD PUSH19 0x616E7366657228616464726573732C61646472 PUSH6 0x73732C75696E PUSH21 0x323536290000000000000000000000000000000000 "
		}
	}
}