{
	"abi": [
		{
			"inputs": [
				{
					"internalType": "address",
					"name": "_owner",
					"type": "address"
				},
				{
					"internalType": "address",
					"name": "_resolver",
					"type": "address"
				}
			],
			"payable": false,
			"stateMutability": "nonpayable",
			"type": "constructor"
		},
		{
			"anonymous": false,
			"inputs": [
				{
					"indexed": true,
					"internalType": "address",
					"name": "account",
					"type": "address"
				},
				{
					"indexed": false,
					"internalType": "uint256",
					"name": "amount",
					"type": "uint256"
				}
			],
			"name": "MintedSecondary",
			"type": "event"
		},
		{
			"anonymous": false,
			"inputs": [
				{
					"indexed": false,
					"internalType": "uint256",
					"name": "amount",
					"type": "uint256"
				}
			],
			"name": "MintedSecondaryRewards",
			"type": "event"
		},
		{
			"anonymous": false,
			"inputs": [
				{
					"indexed": false,
					"internalType": "address",
					"name": "oldOwner",
					"type": "address"
				},
				{
					"indexed": false,
					"internalType": "address",
					"name": "newOwner",
					"type": "address"
				}
			],
			"name": "OwnerChanged",
			"type": "event"
		},
		{
			"anonymous": false,
			"inputs": [
				{
					"indexed": false,
					"internalType": "address",
					"name": "newOwner",
					"type": "address"
				}
			],
			"name": "OwnerNominated",
			"type": "event"
		},
		{
			"anonymous": false,
			"inputs": [
				{
					"indexed": true,
					"internalType": "address",
					"name": "account",
					"type": "address"
				},
				{
					"indexed": false,
					"internalType": "uint256",
					"name": "amount",
					"type": "uint256"
				}
			],
			"name": "WithdrawalInitiated",
			"type": "event"
		},
		{
			"constant": true,
			"inputs": [],
			"name": "MAX_ADDRESSES_FROM_RESOLVER",
			"outputs": [
				{
					"internalType": "uint256",
					"name": "",
					"type": "uint256"
				}
			],
			"payable": false,
			"stateMutability": "view",
			"type": "function"
		},
		{
			"constant": false,
			"inputs": [],
			"name": "acceptOwnership",
			"outputs": [],
			"payable": false,
			"stateMutability": "nonpayable",
			"type": "function"
		},
		{
			"constant": true,
			"inputs": [],
			"name": "getResolverAddressesRequired",
			"outputs": [
				{
					"internalType": "bytes32[24]",
					"name": "addressesRequired",
					"type": "bytes32[24]"
				}
			],
			"payable": false,
			"stateMutability": "view",
			"type": "function"
		},
		{
			"constant": false,
			"inputs": [
				{
					"internalType": "uint256",
					"name": "amount",
					"type": "uint256"
				}
			],
			"name": "initiateWithdrawal",
			"outputs": [],
			"payable": false,
			"stateMutability": "nonpayable",
			"type": "function"
		},
		{
			"constant": true,
			"inputs": [
				{
					"internalType": "contract AddressResolver",
					"name": "_resolver",
					"type": "address"
				}
			],
			"name": "isResolverCached",
			"outputs": [
				{
					"internalType": "bool",
					"name": "",
					"type": "bool"
				}
			],
			"payable": false,
			"stateMutability": "view",
			"type": "function"
		},
		{
			"constant": false,
			"inputs": [
				{
					"internalType": "address",
					"name": "account",
					"type": "address"
				},
				{
					"internalType": "uint256",
					"name": "amount",
					"type": "uint256"
				}
			],
			"name": "mintSecondaryFromDeposit",
			"outputs": [],
			"payable": false,
			"stateMutability": "nonpayable",
			"type": "function"
		},
		{
			"constant": false,
			"inputs": [
				{
					"internalType": "uint256",
					"name": "amount",
					"type": "uint256"
				}
			],
			"name": "mintSecondaryFromDepositForRewards",
			"outputs": [],
			"payable": false,
			"stateMutability": "nonpayable",
			"type": "function"
		},
		{
			"constant": false,
			"inputs": [
				{
					"internalType": "address",
					"name": "_owner",
					"type": "address"
				}
			],
			"name": "nominateNewOwner",
			"outputs": [],
			"payable": false,
			"stateMutability": "nonpayable",
			"type": "function"
		},
		{
			"constant": true,
			"inputs": [],
			"name": "nominatedOwner",
			"outputs": [
				{
					"internalType": "address",
					"name": "",
					"type": "address"
				}
			],
			"payable": false,
			"stateMutability": "view",
			"type": "function"
		},
		{
			"constant": true,
			"inputs": [],
			"name": "owner",
			"outputs": [
				{
					"internalType": "address",
					"name": "",
					"type": "address"
				}
			],
			"payable": false,
			"stateMutability": "view",
			"type": "function"
		},
		{
			"constant": true,
			"inputs": [],
			"name": "resolver",
			"outputs": [
				{
					"internalType": "contract AddressResolver",
					"name": "",
					"type": "address"
				}
			],
			"payable": false,
			"stateMutability": "view",
			"type": "function"
		},
		{
			"constant": true,
			"inputs": [
				{
					"internalType": "uint256",
					"name": "",
					"type": "uint256"
				}
			],
			"name": "resolverAddressesRequired",
			"outputs": [
				{
					"internalType": "bytes32",
					"name": "",
					"type": "bytes32"
				}
			],
			"payable": false,
			"stateMutability": "view",
			"type": "function"
		},
		{
			"constant": false,
			"inputs": [
				{
					"internalType": "contract AddressResolver",
					"name": "_resolver",
					"type": "address"
				}
			],
			"name": "setResolverAndSyncCache",
			"outputs": [],
			"payable": false,
			"stateMutability": "nonpayable",
			"type": "function"
		}
	],
	"evm": {
		"bytecode": {
			"linkReferences": {},
			"object": "60e06040526c32bc3a1d26b2b9b9b2b733b2b960991b6080908152680a6f2dce8d0cae8d2f60bb1b60a0527f626173653a53796e746865746978427269646765546f4f7074696d69736d000060c0526200005e90600590600362000208565b503480156200006c57600080fd5b50604051620013d4380380620013d48339810160408190526200008f916200027e565b60408051610300810191829052829160059060189082845b815481526020019060010190808311620000a757508793505050506001600160a01b038116620000f45760405162461bcd60e51b8152600401620000eb906200037b565b60405180910390fd5b600080546001600160a01b0319166001600160a01b0383161781556040517fb532073b38c83145e3e5135377a08bf9aab55bc0fd7c1179cd4fb995d2a5159c916200014191849062000343565b60405180910390a1506000546001600160a01b0316620001755760405162461bcd60e51b8152600401620000eb9062000369565b60005b6018811015620001dd5760008282601881106200019157fe5b602002015114620001ce576004828260188110620001ab57fe5b6020908102919091015182546001810184556000938452919092200155620001d4565b620001dd565b60010162000178565b5050600280546001600160a01b0319166001600160a01b039290921691909117905550620003d69050565b826018810192821562000239579160200282015b82811115620002395782518255916020019190600101906200021c565b50620002479291506200024b565b5090565b6200026891905b8082111562000247576000815560010162000252565b90565b80516200027881620003bc565b92915050565b600080604083850312156200029257600080fd5b6000620002a085856200026b565b9250506020620002b3858286016200026b565b9150509250929050565b620002c881620003a8565b82525050565b620002c88162000396565b6000620002e86011836200038d565b7013dddb995c881b5d5cdd081899481cd95d607a1b815260200192915050565b6000620003176019836200038d565b7f4f776e657220616464726573732063616e6e6f74206265203000000000000000815260200192915050565b60408101620003538285620002bd565b620003626020830184620002ce565b9392505050565b602080825281016200027881620002d9565b60208082528101620002788162000308565b90815260200190565b60006001600160a01b03821662000278565b600062000278826000620002788262000396565b620003c78162000396565b8114620003d357600080fd5b50565b610fee80620003e66000396000f3fe608060405234801561001057600080fd5b50600436106100cf5760003560e01c8063631e14441161008c578063a6b96f5711610066578063a6b96f5714610185578063ab49848c14610198578063c6c9d828146101ad578063e3235c91146101cd576100cf565b8063631e14441461015557806379ba5097146101755780638da5cb5b1461017d576100cf565b80630404d171146100d457806304f3bcec146100e957806312edde5e146101075780631627540c1461011a5780633be99e6f1461012d57806353a47bb714610140575b600080fd5b6100e76100e2366004610b1e565b6101d5565b005b6100f1610289565b6040516100fe9190610e95565b60405180910390f35b6100e7610115366004610b76565b610298565b6100e7610128366004610ada565b6103ec565b6100e761013b366004610b58565b61044a565b61014861054e565b6040516100fe9190610dc3565b610168610163366004610b58565b61055d565b6040516100fe9190610e5a565b6100e7610689565b61014861072e565b6100e7610193366004610b76565b61073d565b6101a06107d9565b6040516100fe9190610e4b565b6101c06101bb366004610b76565b610823565b6040516100fe9190610e68565b6101c0610841565b6101dd610846565b6101e5610925565b6001600160a01b031663666ed4f183836040518363ffffffff1660e01b8152600401610212929190610dd1565b600060405180830381600087803b15801561022c57600080fd5b505af1158015610240573d6000803e3d6000fd5b50505050816001600160a01b03167f8bee677ce808ba08aedfdf407cbf9c4414e77f8b66c0d96f335b275cbf5341448260405161027d9190610e68565b60405180910390a25050565b6002546001600160a01b031681565b6102a0610925565b6001600160a01b031663edef719a33836040518363ffffffff1660e01b81526004016102cd929190610df3565b600060405180830381600087803b1580156102e757600080fd5b505af11580156102fb573d6000803e3d6000fd5b5050505060603382604051602401610314929190610dd1565b60408051601f198184030181529190526020810180516001600160e01b031663e2ff2d4360e01b1790529050610348610977565b6001600160a01b0316633dbb202b61035e6109c8565b83622dc6c06040518463ffffffff1660e01b815260040161038193929190610e1c565b600060405180830381600087803b15801561039b57600080fd5b505af11580156103af573d6000803e3d6000fd5b50505050336001600160a01b03167f6d92f7d3303f995bf21956bb0c51b388bae348eaf45c23debd2cfa3fcd9ec6468360405161027d9190610e68565b6103f4610a22565b600180546001600160a01b0319166001600160a01b0383161790556040517f906a1c6bd7e3091ea86693dd029a831c19049ce77f1dce2ce0bab1cacbabce229061043f908390610dc3565b60405180910390a150565b610452610a22565b600280546001600160a01b0319166001600160a01b03831617905560005b60045481101561054a5760006004828154811061048957fe5b60009182526020909120015460025460405163dacb2d0160e01b81529192506001600160a01b03169063dacb2d01906104c6908490600401610e76565b60206040518083038186803b1580156104de57600080fd5b505afa1580156104f2573d6000803e3d6000fd5b505050506040513d601f19601f820116820180604052506105169190810190610b00565b60009182526003602052604090912080546001600160a01b0319166001600160a01b03909216919091179055600101610470565b5050565b6001546001600160a01b031681565b6002546000906001600160a01b0383811691161461057d57506000610684565b60005b60045481101561067e5760006004828154811061059957fe5b600091825260208083209091015480835260039091526040918290205460025492516321f8a72160e01b81529193506001600160a01b039081169216906321f8a721906105ea908590600401610e68565b60206040518083038186803b15801561060257600080fd5b505afa158015610616573d6000803e3d6000fd5b505050506040513d601f19601f8201168201806040525061063a9190810190610b00565b6001600160a01b031614158061066557506000818152600360205260409020546001600160a01b0316155b1561067557600092505050610684565b50600101610580565b50600190505b919050565b6001546001600160a01b031633146106bc5760405162461bcd60e51b81526004016106b390610eb4565b60405180910390fd5b6000546001546040517fb532073b38c83145e3e5135377a08bf9aab55bc0fd7c1179cd4fb995d2a5159c926106ff926001600160a01b0391821692911690610e01565b60405180910390a160018054600080546001600160a01b03199081166001600160a01b03841617909155169055565b6000546001600160a01b031681565b610745610846565b61074d610925565b6001600160a01b031663d8a1f76f826040518263ffffffff1660e01b81526004016107789190610e68565b600060405180830381600087803b15801561079257600080fd5b505af11580156107a6573d6000803e3d6000fd5b505050507f4c867b72baae24147e49f29f47f17923bea3b5d1a076dff11e0bac8c180a84c18160405161043f9190610e68565b6107e1610a8f565b60005b60045481101561081f57600481815481106107fb57fe5b906000526020600020015482826018811061081257fe5b60200201526001016107e4565b5090565b6004818154811061083057fe5b600091825260209091200154905081565b601881565b6000610850610977565b9050336001600160a01b0382161461087a5760405162461bcd60e51b81526004016106b390610ed4565b6108826109c8565b6001600160a01b0316816001600160a01b0316636e296e456040518163ffffffff1660e01b815260040160206040518083038186803b1580156108c457600080fd5b505afa1580156108d8573d6000803e3d6000fd5b505050506040513d601f19601f820116820180604052506108fc9190810190610b00565b6001600160a01b0316146109225760405162461bcd60e51b81526004016106b390610ee4565b50565b6000610972680a6f2dce8d0cae8d2f60bb1b6040518060400160405280601981526020017f4d697373696e672053796e746865746978206164647265737300000000000000815250610a4e565b905090565b60006109726c32bc3a1d26b2b9b9b2b733b2b960991b6040518060400160405280601981526020017f4d697373696e67204d657373656e676572206164647265737300000000000000815250610a4e565b60006109727f626173653a53796e746865746978427269646765546f4f7074696d69736d0000604051806040016040528060168152602001754d697373696e6720427269646765206164647265737360501b815250610a4e565b6000546001600160a01b03163314610a4c5760405162461bcd60e51b81526004016106b390610ec4565b565b6000828152600360205260408120546001600160a01b03168281610a855760405162461bcd60e51b81526004016106b39190610ea3565b5090505b92915050565b6040518061030001604052806018906020820280388339509192915050565b8035610a8981610f85565b8051610a8981610f85565b8035610a8981610f99565b8035610a8981610fa2565b600060208284031215610aec57600080fd5b6000610af88484610aae565b949350505050565b600060208284031215610b1257600080fd5b6000610af88484610ab9565b60008060408385031215610b3157600080fd5b6000610b3d8585610aae565b9250506020610b4e85828601610acf565b9150509250929050565b600060208284031215610b6a57600080fd5b6000610af88484610ac4565b600060208284031215610b8857600080fd5b6000610af88484610acf565b6000610ba08383610c1d565b505060200190565b610bb181610f40565b82525050565b610bb181610f10565b610bc981610ef7565b610bd38184610684565b9250610bde82610ef4565b8060005b83811015610c0c578151610bf68782610b94565b9650610c0183610f01565b925050600101610be2565b505050505050565b610bb181610f1b565b610bb181610ef4565b6000610c3182610efd565b610c3b8185610f07565b9350610c4b818560208601610f4b565b610c5481610f7b565b9093019392505050565b610bb181610f20565b6000610c74603583610f07565b7f596f75206d757374206265206e6f6d696e61746564206265666f726520796f7581527402063616e20616363657074206f776e65727368697605c1b602082015260400192915050565b6000610ccb602f83610f07565b7f4f6e6c792074686520636f6e7472616374206f776e6572206d6179207065726681526e37b936903a3434b99030b1ba34b7b760891b602082015260400192915050565b6000610d1c601e83610f07565b7f4f6e6c79207468652072656c617965722063616e2063616c6c20746869730000815260200192915050565b6000610d55601d83610f07565b7f4f6e6c7920746865204c31206272696467652063616e20696e766f6b65000000815260200192915050565b6000610d8e601783610f07565b7f5265736f6c766572206d697373696e6720746172676574000000000000000000815260200192915050565b610bb181610f37565b60208101610a898284610bb7565b60408101610ddf8285610bb7565b610dec6020830184610c1d565b9392505050565b60408101610ddf8285610ba8565b60408101610e0f8285610bb7565b610dec6020830184610bb7565b60608101610e2a8286610bb7565b8181036020830152610e3c8185610c26565b9050610af86040830184610dba565b6103008101610a898284610bc0565b60208101610a898284610c14565b60208101610a898284610c1d565b60408101610e848284610c1d565b8181036020830152610dec81610d81565b60208101610a898284610c5e565b60208082528101610dec8184610c26565b60208082528101610a8981610c67565b60208082528101610a8981610cbe565b60208082528101610a8981610d0f565b60208082528101610a8981610d48565b90565b50601890565b5190565b60200190565b90815260200190565b6000610a8982610f2b565b151590565b6000610a8982610f10565b6001600160a01b031690565b63ffffffff1690565b6000610a8982610f20565b60005b83811015610f66578181015183820152602001610f4e565b83811115610f75576000848401525b50505050565b601f01601f191690565b610f8e81610f10565b811461092257600080fd5b610f8e81610f20565b610f8e81610ef456fea365627a7a7231582056006ebf1afc51f5a94925545d13c167d470f3b71a964ff68f0538035c6d9f3e6c6578706572696d656e74616cf564736f6c63430005100040",
			"opcodes": "PUSH1 0xE0 PUSH1 0x40 MSTORE PUSH13 0x32BC3A1D26B2B9B9B2B733B2B9 PUSH1 0x99 SHL PUSH1 0x80 SWAP1 DUP2 MSTORE PUSH9 0xA6F2DCE8D0CAE8D2F PUSH1 0xBB SHL PUSH1 0xA0 MSTORE PUSH32 0x626173653A53796E746865746978427269646765546F4F7074696D69736D0000 PUSH1 0xC0 MSTORE PUSH3 0x5E SWAP1 PUSH1 0x5 SWAP1 PUSH1 0x3 PUSH3 0x208 JUMP JUMPDEST POP CALLVALUE DUP1 ISZERO PUSH3 0x6C JUMPI PUSH1 0x0 DUP1 REVERT JUMPDEST POP PUSH1 0x40 MLOAD PUSH3 0x13D4 CODESIZE SUB DUP1 PUSH3 0x13D4 DUP4 CODECOPY DUP2 ADD PUSH1 0x40 DUP2 SWAP1 MSTORE PUSH3 0x8F SWAP2 PUSH3 0x27E JUMP JUMPDEST PUSH1 0x40 DUP1 MLOAD PUSH2 0x300 DUP2 ADD SWAP2 DUP3 SWAP1 MSTORE DUP3 SWAP2 PUSH1 0x5 SWAP1 PUSH1 0x18 SWAP1 DUP3 DUP5 JUMPDEST DUP2 SLOAD DUP2 MSTORE PUSH1 0x20 ADD SWAP1 PUSH1 0x1 ADD SWAP1 DUP1 DUP4 GT PUSH3 0xA7 JUMPI POP DUP8 SWAP4 POP POP POP POP PUSH1 0x1 PUSH1 0x1 PUSH1 0xA0 SHL SUB DUP2 AND PUSH3 0xF4 JUMPI PUSH1 0x40 MLOAD PUSH3 0x461BCD PUSH1 0xE5 SHL DUP2 MSTORE PUSH1 0x4 ADD PUSH3 0xEB SWAP1 PUSH3 0x37B JUMP JUMPDEST PUSH1 0x40 MLOAD DUP1 SWAP2 SUB SWAP1 REVERT JUMPDEST PUSH1 0x0 DUP1 SLOAD PUSH1 0x1 PUSH1 0x1 PUSH1 0xA0 SHL SUB NOT AND PUSH1 0x1 PUSH1 0x1 PUSH1 0xA0 SHL SUB DUP4 AND OR DUP2 SSTORE PUSH1 0x40 MLOAD PUSH32 0xB532073B38C83145E3E5135377A08BF9AAB55BC0FD7C1179CD4FB995D2A5159C SWAP2 PUSH3 0x141 SWAP2 DUP5 SWAP1 PUSH3 0x343 JUMP JUMPDEST PUSH1 0x40 MLOAD DUP1 SWAP2 SUB SWAP1 LOG1 POP PUSH1 0x0 SLOAD PUSH1 0x1 PUSH1 0x1 PUSH1 0xA0 SHL SUB AND PUSH3 0x175 JUMPI PUSH1 0x40 MLOAD PUSH3 0x461BCD PUSH1 0xE5 SHL DUP2 MSTORE PUSH1 0x4 ADD PUSH3 0xEB SWAP1 PUSH3 0x369 JUMP JUMPDEST PUSH1 0x0 JUMPDEST PUSH1 0x18 DUP2 LT ISZERO PUSH3 0x1DD JUMPI PUSH1 0x0 DUP3 DUP3 PUSH1 0x18 DUP2 LT PUSH3 0x191 JUMPI INVALID JUMPDEST PUSH1 0x20 MUL ADD MLOAD EQ PUSH3 0x1CE JUMPI PUSH1 0x4 DUP3 DUP3 PUSH1 0x18 DUP2 LT PUSH3 0x1AB JUMPI INVALID JUMPDEST PUSH1 0x20 SWAP1 DUP2 MUL SWAP2 SWAP1 SWAP2 ADD MLOAD DUP3 SLOAD PUSH1 0x1 DUP2 ADD DUP5 SSTORE PUSH1 0x0 SWAP4 DUP5 MSTORE SWAP2 SWAP1 SWAP3 KECCAK256 ADD SSTORE PUSH3 0x1D4 JUMP JUMPDEST PUSH3 0x1DD JUMP JUMPDEST PUSH1 0x1 ADD PUSH3 0x178 JUMP JUMPDEST POP POP PUSH1 0x2 DUP1 SLOAD PUSH1 0x1 PUSH1 0x1 PUSH1 0xA0 SHL SUB NOT AND PUSH1 0x1 PUSH1 0x1 PUSH1 0xA0 SHL SUB SWAP3 SWAP1 SWAP3 AND SWAP2 SWAP1 SWAP2 OR SWAP1 SSTORE POP PUSH3 0x3D6 SWAP1 POP JUMP JUMPDEST DUP3 PUSH1 0x18 DUP2 ADD SWAP3 DUP3 ISZERO PUSH3 0x239 JUMPI SWAP2 PUSH1 0x20 MUL DUP3 ADD JUMPDEST DUP3 DUP2 GT ISZERO PUSH3 0x239 JUMPI DUP3 MLOAD DUP3 SSTORE SWAP2 PUSH1 0x20 ADD SWAP2 SWAP1 PUSH1 0x1 ADD SWAP1 PUSH3 0x21C JUMP JUMPDEST POP PUSH3 0x247 SWAP3 SWAP2 POP PUSH3 0x24B JUMP JUMPDEST POP SWAP1 JUMP JUMPDEST PUSH3 0x268 SWAP2 SWAP1 JUMPDEST DUP1 DUP3 GT ISZERO PUSH3 0x247 JUMPI PUSH1 0x0 DUP2 SSTORE PUSH1 0x1 ADD PUSH3 0x252 JUMP JUMPDEST SWAP1 JUMP JUMPDEST DUP1 MLOAD PUSH3 0x278 DUP2 PUSH3 0x3BC JUMP JUMPDEST SWAP3 SWAP2 POP POP JUMP JUMPDEST PUSH1 0x0 DUP1 PUSH1 0x40 DUP4 DUP6 SUB SLT ISZERO PUSH3 0x292 JUMPI PUSH1 0x0 DUP1 REVERT JUMPDEST PUSH1 0x0 PUSH3 0x2A0 DUP6 DUP6 PUSH3 0x26B JUMP JUMPDEST SWAP3 POP POP PUSH1 0x20 PUSH3 0x2B3 DUP6 DUP3 DUP7 ADD PUSH3 0x26B JUMP JUMPDEST SWAP2 POP POP SWAP3 POP SWAP3 SWAP1 POP JUMP JUMPDEST PUSH3 0x2C8 DUP2 PUSH3 0x3A8 JUMP JUMPDEST DUP3 MSTORE POP POP JUMP JUMPDEST PUSH3 0x2C8 DUP2 PUSH3 0x396 JUMP JUMPDEST PUSH1 0x0 PUSH3 0x2E8 PUSH1 0x11 DUP4 PUSH3 0x38D JUMP JUMPDEST PUSH17 0x13DDDB995C881B5D5CDD081899481CD95D PUSH1 0x7A SHL DUP2 MSTORE PUSH1 0x20 ADD SWAP3 SWAP2 POP POP JUMP JUMPDEST PUSH1 0x0 PUSH3 0x317 PUSH1 0x19 DUP4 PUSH3 0x38D JUMP JUMPDEST PUSH32 0x4F776E657220616464726573732063616E6E6F74206265203000000000000000 DUP2 MSTORE PUSH1 0x20 ADD SWAP3 SWAP2 POP POP JUMP JUMPDEST PUSH1 0x40 DUP2 ADD PUSH3 0x353 DUP3 DUP6 PUSH3 0x2BD JUMP JUMPDEST PUSH3 0x362 PUSH1 0x20 DUP4 ADD DUP5 PUSH3 0x2CE JUMP JUMPDEST SWAP4 SWAP3 POP POP POP JUMP JUMPDEST PUSH1 0x20 DUP1 DUP3 MSTORE DUP2 ADD PUSH3 0x278 DUP2 PUSH3 0x2D9 JUMP JUMPDEST PUSH1 0x20 DUP1 DUP3 MSTORE DUP2 ADD PUSH3 0x278 DUP2 PUSH3 0x308 JUMP JUMPDEST SWAP1 DUP2 MSTORE PUSH1 0x20 ADD SWAP1 JUMP JUMPDEST PUSH1 0x0 PUSH1 0x1 PUSH1 0x1 PUSH1 0xA0 SHL SUB DUP3 AND PUSH3 0x278 JUMP JUMPDEST PUSH1 0x0 PUSH3 0x278 DUP3 PUSH1 0x0 PUSH3 0x278 DUP3 PUSH3 0x396 JUMP JUMPDEST PUSH3 0x3C7 DUP2 PUSH3 0x396 JUMP JUMPDEST DUP2 EQ PUSH3 0x3D3 JUMPI PUSH1 0x0 DUP1 REVERT JUMPDEST POP JUMP JUMPDEST PUSH2 0xFEE DUP1 PUSH3 0x3E6 PUSH1 0x0 CODECOPY PUSH1 0x0 RETURN INVALID PUSH1 0x80 PUSH1 0x40 MSTORE CALLVALUE DUP1 ISZERO PUSH2 0x10 JUMPI PUSH1 0x0 DUP1 REVERT JUMPDEST POP PUSH1 0x4 CALLDATASIZE LT PUSH2 0xCF JUMPI PUSH1 0x0 CALLDATALOAD PUSH1 0xE0 SHR DUP1 PUSH4 0x631E1444 GT PUSH2 0x8C JUMPI DUP1 PUSH4 0xA6B96F57 GT PUSH2 0x66 JUMPI DUP1 PUSH4 0xA6B96F57 EQ PUSH2 0x185 JUMPI DUP1 PUSH4 0xAB49848C EQ PUSH2 0x198 JUMPI DUP1 PUSH4 0xC6C9D828 EQ PUSH2 0x1AD JUMPI DUP1 PUSH4 0xE3235C91 EQ PUSH2 0x1CD JUMPI PUSH2 0xCF JUMP JUMPDEST DUP1 PUSH4 0x631E1444 EQ PUSH2 0x155 JUMPI DUP1 PUSH4 0x79BA5097 EQ PUSH2 0x175 JUMPI DUP1 PUSH4 0x8DA5CB5B EQ PUSH2 0x17D JUMPI PUSH2 0xCF JUMP JUMPDEST DUP1 PUSH4 0x404D171 EQ PUSH2 0xD4 JUMPI DUP1 PUSH4 0x4F3BCEC EQ PUSH2 0xE9 JUMPI DUP1 PUSH4 0x12EDDE5E EQ PUSH2 0x107 JUMPI DUP1 PUSH4 0x1627540C EQ PUSH2 0x11A JUMPI DUP1 PUSH4 0x3BE99E6F EQ PUSH2 0x12D JUMPI DUP1 PUSH4 0x53A47BB7 EQ PUSH2 0x140 JUMPI JUMPDEST PUSH1 0x0 DUP1 REVERT JUMPDEST PUSH2 0xE7 PUSH2 0xE2 CALLDATASIZE PUSH1 0x4 PUSH2 0xB1E JUMP JUMPDEST PUSH2 0x1D5 JUMP JUMPDEST STOP JUMPDEST PUSH2 0xF1 PUSH2 0x289 JUMP JUMPDEST PUSH1 0x40 MLOAD PUSH2 0xFE SWAP2 SWAP1 PUSH2 0xE95 JUMP JUMPDEST PUSH1 0x40 MLOAD DUP1 SWAP2 SUB SWAP1 RETURN JUMPDEST PUSH2 0xE7 PUSH2 0x115 CALLDATASIZE PUSH1 0x4 PUSH2 0xB76 JUMP JUMPDEST PUSH2 0x298 JUMP JUMPDEST PUSH2 0xE7 PUSH2 0x128 CALLDATASIZE PUSH1 0x4 PUSH2 0xADA JUMP JUMPDEST PUSH2 0x3EC JUMP JUMPDEST PUSH2 0xE7 PUSH2 0x13B CALLDATASIZE PUSH1 0x4 PUSH2 0xB58 JUMP JUMPDEST PUSH2 0x44A JUMP JUMPDEST PUSH2 0x148 PUSH2 0x54E JUMP JUMPDEST PUSH1 0x40 MLOAD PUSH2 0xFE SWAP2 SWAP1 PUSH2 0xDC3 JUMP JUMPDEST PUSH2 0x168 PUSH2 0x163 CALLDATASIZE PUSH1 0x4 PUSH2 0xB58 JUMP JUMPDEST PUSH2 0x55D JUMP JUMPDEST PUSH1 0x40 MLOAD PUSH2 0xFE SWAP2 SWAP1 PUSH2 0xE5A JUMP JUMPDEST PUSH2 0xE7 PUSH2 0x689 JUMP JUMPDEST PUSH2 0x148 PUSH2 0x72E JUMP JUMPDEST PUSH2 0xE7 PUSH2 0x193 CALLDATASIZE PUSH1 0x4 PUSH2 0xB76 JUMP JUMPDEST PUSH2 0x73D JUMP JUMPDEST PUSH2 0x1A0 PUSH2 0x7D9 JUMP JUMPDEST PUSH1 0x40 MLOAD PUSH2 0xFE SWAP2 SWAP1 PUSH2 0xE4B JUMP JUMPDEST PUSH2 0x1C0 PUSH2 0x1BB CALLDATASIZE PUSH1 0x4 PUSH2 0xB76 JUMP JUMPDEST PUSH2 0x823 JUMP JUMPDEST PUSH1 0x40 MLOAD PUSH2 0xFE SWAP2 SWAP1 PUSH2 0xE68 JUMP JUMPDEST PUSH2 0x1C0 PUSH2 0x841 JUMP JUMPDEST PUSH2 0x1DD PUSH2 0x846 JUMP JUMPDEST PUSH2 0x1E5 PUSH2 0x925 JUMP JUMPDEST PUSH1 0x1 PUSH1 0x1 PUSH1 0xA0 SHL SUB AND PUSH4 0x666ED4F1 DUP4 DUP4 PUSH1 0x40 MLOAD DUP4 PUSH4 0xFFFFFFFF AND PUSH1 0xE0 SHL DUP2 MSTORE PUSH1 0x4 ADD PUSH2 0x212 SWAP3 SWAP2 SWAP1 PUSH2 0xDD1 JUMP JUMPDEST PUSH1 0x0 PUSH1 0x40 MLOAD DUP1 DUP4 SUB DUP2 PUSH1 0x0 DUP8 DUP1 EXTCODESIZE ISZERO DUP1 ISZERO PUSH2 0x22C JUMPI PUSH1 0x0 DUP1 REVERT JUMPDEST POP GAS CALL ISZERO DUP1 ISZERO PUSH2 0x240 JUMPI RETURNDATASIZE PUSH1 0x0 DUP1 RETURNDATACOPY RETURNDATASIZE PUSH1 0x0 REVERT JUMPDEST POP POP POP POP DUP2 PUSH1 0x1 PUSH1 0x1 PUSH1 0xA0 SHL SUB AND PUSH32 0x8BEE677CE808BA08AEDFDF407CBF9C4414E77F8B66C0D96F335B275CBF534144 DUP3 PUSH1 0x40 MLOAD PUSH2 0x27D SWAP2 SWAP1 PUSH2 0xE68 JUMP JUMPDEST PUSH1 0x40 MLOAD DUP1 SWAP2 SUB SWAP1 LOG2 POP POP JUMP JUMPDEST PUSH1 0x2 SLOAD PUSH1 0x1 PUSH1 0x1 PUSH1 0xA0 SHL SUB AND DUP2 JUMP JUMPDEST PUSH2 0x2A0 PUSH2 0x925 JUMP JUMPDEST PUSH1 0x1 PUSH1 0x1 PUSH1 0xA0 SHL SUB AND PUSH4 0xEDEF719A CALLER DUP4 PUSH1 0x40 MLOAD DUP4 PUSH4 0xFFFFFFFF AND PUSH1 0xE0 SHL DUP2 MSTORE PUSH1 0x4 ADD PUSH2 0x2CD SWAP3 SWAP2 SWAP1 PUSH2 0xDF3 JUMP JUMPDEST PUSH1 0x0 PUSH1 0x40 MLOAD DUP1 DUP4 SUB DUP2 PUSH1 0x0 DUP8 DUP1 EXTCODESIZE ISZERO DUP1 ISZERO PUSH2 0x2E7 JUMPI PUSH1 0x0 DUP1 REVERT JUMPDEST POP GAS CALL ISZERO DUP1 ISZERO PUSH2 0x2FB JUMPI RETURNDATASIZE PUSH1 0x0 DUP1 RETURNDATACOPY RETURNDATASIZE PUSH1 0x0 REVERT JUMPDEST POP POP POP POP PUSH1 0x60 CALLER DUP3 PUSH1 0x40 MLOAD PUSH1 0x24 ADD PUSH2 0x314 SWAP3 SWAP2 SWAP1 PUSH2 0xDD1 JUMP JUMPDEST PUSH1 0x40 DUP1 MLOAD PUSH1 0x1F NOT DUP2 DUP5 SUB ADD DUP2 MSTORE SWAP2 SWAP1 MSTORE PUSH1 0x20 DUP2 ADD DUP1 MLOAD PUSH1 0x1 PUSH1 0x1 PUSH1 0xE0 SHL SUB AND PUSH4 0xE2FF2D43 PUSH1 0xE0 SHL OR SWAP1 MSTORE SWAP1 POP PUSH2 0x348 PUSH2 0x977 JUMP JUMPDEST PUSH1 0x1 PUSH1 0x1 PUSH1 0xA0 SHL SUB AND PUSH4 0x3DBB202B PUSH2 0x35E PUSH2 0x9C8 JUMP JUMPDEST DUP4 PUSH3 0x2DC6C0 PUSH1 0x40 MLOAD DUP5 PUSH4 0xFFFFFFFF AND PUSH1 0xE0 SHL DUP2 MSTORE PUSH1 0x4 ADD PUSH2 0x381 SWAP4 SWAP3 SWAP2 SWAP1 PUSH2 0xE1C JUMP JUMPDEST PUSH1 0x0 PUSH1 0x40 MLOAD DUP1 DUP4 SUB DUP2 PUSH1 0x0 DUP8 DUP1 EXTCODESIZE ISZERO DUP1 ISZERO PUSH2 0x39B JUMPI PUSH1 0x0 DUP1 REVERT JUMPDEST POP GAS CALL ISZERO DUP1 ISZERO PUSH2 0x3AF JUMPI RETURNDATASIZE PUSH1 0x0 DUP1 RETURNDATACOPY RETURNDATASIZE PUSH1 0x0 REVERT JUMPDEST POP POP POP POP CALLER PUSH1 0x1 PUSH1 0x1 PUSH1 0xA0 SHL SUB AND PUSH32 0x6D92F7D3303F995BF21956BB0C51B388BAE348EAF45C23DEBD2CFA3FCD9EC646 DUP4 PUSH1 0x40 MLOAD PUSH2 0x27D SWAP2 SWAP1 PUSH2 0xE68 JUMP JUMPDEST PUSH2 0x3F4 PUSH2 0xA22 JUMP JUMPDEST PUSH1 0x1 DUP1 SLOAD PUSH1 0x1 PUSH1 0x1 PUSH1 0xA0 SHL SUB NOT AND PUSH1 0x1 PUSH1 0x1 PUSH1 0xA0 SHL SUB DUP4 AND OR SWAP1 SSTORE PUSH1 0x40 MLOAD PUSH32 0x906A1C6BD7E3091EA86693DD029A831C19049CE77F1DCE2CE0BAB1CACBABCE22 SWAP1 PUSH2 0x43F SWAP1 DUP4 SWAP1 PUSH2 0xDC3 JUMP JUMPDEST PUSH1 0x40 MLOAD DUP1 SWAP2 SUB SWAP1 LOG1 POP JUMP JUMPDEST PUSH2 0x452 PUSH2 0xA22 JUMP JUMPDEST PUSH1 0x2 DUP1 SLOAD PUSH1 0x1 PUSH1 0x1 PUSH1 0xA0 SHL SUB NOT AND PUSH1 0x1 PUSH1 0x1 PUSH1 0xA0 SHL SUB DUP4 AND OR SWAP1 SSTORE PUSH1 0x0 JUMPDEST PUSH1 0x4 SLOAD DUP2 LT ISZERO PUSH2 0x54A JUMPI PUSH1 0x0 PUSH1 0x4 DUP3 DUP2 SLOAD DUP2 LT PUSH2 0x489 JUMPI INVALID JUMPDEST PUSH1 0x0 SWAP2 DUP3 MSTORE PUSH1 0x20 SWAP1 SWAP2 KECCAK256 ADD SLOAD PUSH1 0x2 SLOAD PUSH1 0x40 MLOAD PUSH4 0xDACB2D01 PUSH1 0xE0 SHL DUP2 MSTORE SWAP2 SWAP3 POP PUSH1 0x1 PUSH1 0x1 PUSH1 0xA0 SHL SUB AND SWAP1 PUSH4 0xDACB2D01 SWAP1 PUSH2 0x4C6 SWAP1 DUP5 SWAP1 PUSH1 0x4 ADD PUSH2 0xE76 JUMP JUMPDEST PUSH1 0x20 PUSH1 0x40 MLOAD DUP1 DUP4 SUB DUP2 DUP7 DUP1 EXTCODESIZE ISZERO DUP1 ISZERO PUSH2 0x4DE JUMPI PUSH1 0x0 DUP1 REVERT JUMPDEST POP GAS STATICCALL ISZERO DUP1 ISZERO PUSH2 0x4F2 JUMPI RETURNDATASIZE PUSH1 0x0 DUP1 RETURNDATACOPY RETURNDATASIZE PUSH1 0x0 REVERT JUMPDEST POP POP POP POP PUSH1 0x40 MLOAD RETURNDATASIZE PUSH1 0x1F NOT PUSH1 0x1F DUP3 ADD AND DUP3 ADD DUP1 PUSH1 0x40 MSTORE POP PUSH2 0x516 SWAP2 SWAP1 DUP2 ADD SWAP1 PUSH2 0xB00 JUMP JUMPDEST PUSH1 0x0 SWAP2 DUP3 MSTORE PUSH1 0x3 PUSH1 0x20 MSTORE PUSH1 0x40 SWAP1 SWAP2 KECCAK256 DUP1 SLOAD PUSH1 0x1 PUSH1 0x1 PUSH1 0xA0 SHL SUB NOT AND PUSH1 0x1 PUSH1 0x1 PUSH1 0xA0 SHL SUB SWAP1 SWAP3 AND SWAP2 SWAP1 SWAP2 OR SWAP1 SSTORE PUSH1 0x1 ADD PUSH2 0x470 JUMP JUMPDEST POP POP JUMP JUMPDEST PUSH1 0x1 SLOAD PUSH1 0x1 PUSH1 0x1 PUSH1 0xA0 SHL SUB AND DUP2 JUMP JUMPDEST PUSH1 0x2 SLOAD PUSH1 0x0 SWAP1 PUSH1 0x1 PUSH1 0x1 PUSH1 0xA0 SHL SUB DUP4 DUP2 AND SWAP2 AND EQ PUSH2 0x57D JUMPI POP PUSH1 0x0 PUSH2 0x684 JUMP JUMPDEST PUSH1 0x0 JUMPDEST PUSH1 0x4 SLOAD DUP2 LT ISZERO PUSH2 0x67E JUMPI PUSH1 0x0 PUSH1 0x4 DUP3 DUP2 SLOAD DUP2 LT PUSH2 0x599 JUMPI INVALID JUMPDEST PUSH1 0x0 SWAP2 DUP3 MSTORE PUSH1 0x20 DUP1 DUP4 KECCAK256 SWAP1 SWAP2 ADD SLOAD DUP1 DUP4 MSTORE PUSH1 0x3 SWAP1 SWAP2 MSTORE PUSH1 0x40 SWAP2 DUP3 SWAP1 KECCAK256 SLOAD PUSH1 0x2 SLOAD SWAP3 MLOAD PUSH4 0x21F8A721 PUSH1 0xE0 SHL DUP2 MSTORE SWAP2 SWAP4 POP PUSH1 0x1 PUSH1 0x1 PUSH1 0xA0 SHL SUB SWAP1 DUP2 AND SWAP3 AND SWAP1 PUSH4 0x21F8A721 SWAP1 PUSH2 0x5EA SWAP1 DUP6 SWAP1 PUSH1 0x4 ADD PUSH2 0xE68 JUMP JUMPDEST PUSH1 0x20 PUSH1 0x40 MLOAD DUP1 DUP4 SUB DUP2 DUP7 DUP1 EXTCODESIZE ISZERO DUP1 ISZERO PUSH2 0x602 JUMPI PUSH1 0x0 DUP1 REVERT JUMPDEST POP GAS STATICCALL ISZERO DUP1 ISZERO PUSH2 0x616 JUMPI RETURNDATASIZE PUSH1 0x0 DUP1 RETURNDATACOPY RETURNDATASIZE PUSH1 0x0 REVERT JUMPDEST POP POP POP POP PUSH1 0x40 MLOAD RETURNDATASIZE PUSH1 0x1F NOT PUSH1 0x1F DUP3 ADD AND DUP3 ADD DUP1 PUSH1 0x40 MSTORE POP PUSH2 0x63A SWAP2 SWAP1 DUP2 ADD SWAP1 PUSH2 0xB00 JUMP JUMPDEST PUSH1 0x1 PUSH1 0x1 PUSH1 0xA0 SHL SUB AND EQ ISZERO DUP1 PUSH2 0x665 JUMPI POP PUSH1 0x0 DUP2 DUP2 MSTORE PUSH1 0x3 PUSH1 0x20 MSTORE PUSH1 0x40 SWAP1 KECCAK256 SLOAD PUSH1 0x1 PUSH1 0x1 PUSH1 0xA0 SHL SUB AND ISZERO JUMPDEST ISZERO PUSH2 0x675 JUMPI PUSH1 0x0 SWAP3 POP POP POP PUSH2 0x684 JUMP JUMPDEST POP PUSH1 0x1 ADD PUSH2 0x580 JUMP JUMPDEST POP PUSH1 0x1 SWAP1 POP JUMPDEST SWAP2 SWAP1 POP JUMP JUMPDEST PUSH1 0x1 SLOAD PUSH1 0x1 PUSH1 0x1 PUSH1 0xA0 SHL SUB AND CALLER EQ PUSH2 0x6BC JUMPI PUSH1 0x40 MLOAD PUSH3 0x461BCD PUSH1 0xE5 SHL DUP2 MSTORE PUSH1 0x4 ADD PUSH2 0x6B3 SWAP1 PUSH2 0xEB4 JUMP JUMPDEST PUSH1 0x40 MLOAD DUP1 SWAP2 SUB SWAP1 REVERT JUMPDEST PUSH1 0x0 SLOAD PUSH1 0x1 SLOAD PUSH1 0x40 MLOAD PUSH32 0xB532073B38C83145E3E5135377A08BF9AAB55BC0FD7C1179CD4FB995D2A5159C SWAP3 PUSH2 0x6FF SWAP3 PUSH1 0x1 PUSH1 0x1 PUSH1 0xA0 SHL SUB SWAP2 DUP3 AND SWAP3 SWAP2 AND SWAP1 PUSH2 0xE01 JUMP JUMPDEST PUSH1 0x40 MLOAD DUP1 SWAP2 SUB SWAP1 LOG1 PUSH1 0x1 DUP1 SLOAD PUSH1 0x0 DUP1 SLOAD PUSH1 0x1 PUSH1 0x1 PUSH1 0xA0 SHL SUB NOT SWAP1 DUP2 AND PUSH1 0x1 PUSH1 0x1 PUSH1 0xA0 SHL SUB DUP5 AND OR SWAP1 SWAP2 SSTORE AND SWAP1 SSTORE JUMP JUMPDEST PUSH1 0x0 SLOAD PUSH1 0x1 PUSH1 0x1 PUSH1 0xA0 SHL SUB AND DUP2 JUMP JUMPDEST PUSH2 0x745 PUSH2 0x846 JUMP JUMPDEST PUSH2 0x74D PUSH2 0x925 JUMP JUMPDEST PUSH1 0x1 PUSH1 0x1 PUSH1 0xA0 SHL SUB AND PUSH4 0xD8A1F76F DUP3 PUSH1 0x40 MLOAD DUP3 PUSH4 0xFFFFFFFF AND PUSH1 0xE0 SHL DUP2 MSTORE PUSH1 0x4 ADD PUSH2 0x778 SWAP2 SWAP1 PUSH2 0xE68 JUMP JUMPDEST PUSH1 0x0 PUSH1 0x40 MLOAD DUP1 DUP4 SUB DUP2 PUSH1 0x0 DUP8 DUP1 EXTCODESIZE ISZERO DUP1 ISZERO PUSH2 0x792 JUMPI PUSH1 0x0 DUP1 REVERT JUMPDEST POP GAS CALL ISZERO DUP1 ISZERO PUSH2 0x7A6 JUMPI RETURNDATASIZE PUSH1 0x0 DUP1 RETURNDATACOPY RETURNDATASIZE PUSH1 0x0 REVERT JUMPDEST POP POP POP POP PUSH32 0x4C867B72BAAE24147E49F29F47F17923BEA3B5D1A076DFF11E0BAC8C180A84C1 DUP2 PUSH1 0x40 MLOAD PUSH2 0x43F SWAP2 SWAP1 PUSH2 0xE68 JUMP JUMPDEST PUSH2 0x7E1 PUSH2 0xA8F JUMP JUMPDEST PUSH1 0x0 JUMPDEST PUSH1 0x4 SLOAD DUP2 LT ISZERO PUSH2 0x81F JUMPI PUSH1 0x4 DUP2 DUP2 SLOAD DUP2 LT PUSH2 0x7FB JUMPI INVALID JUMPDEST SWAP1 PUSH1 0x0 MSTORE PUSH1 0x20 PUSH1 0x0 KECCAK256 ADD SLOAD DUP3 DUP3 PUSH1 0x18 DUP2 LT PUSH2 0x812 JUMPI INVALID JUMPDEST PUSH1 0x20 MUL ADD MSTORE PUSH1 0x1 ADD PUSH2 0x7E4 JUMP JUMPDEST POP SWAP1 JUMP JUMPDEST PUSH1 0x4 DUP2 DUP2 SLOAD DUP2 LT PUSH2 0x830 JUMPI INVALID JUMPDEST PUSH1 0x0 SWAP2 DUP3 MSTORE PUSH1 0x20 SWAP1 SWAP2 KECCAK256 ADD SLOAD SWAP1 POP DUP2 JUMP JUMPDEST PUSH1 0x18 DUP2 JUMP JUMPDEST PUSH1 0x0 PUSH2 0x850 PUSH2 0x977 JUMP JUMPDEST SWAP1 POP CALLER PUSH1 0x1 PUSH1 0x1 PUSH1 0xA0 SHL SUB DUP3 AND EQ PUSH2 0x87A JUMPI PUSH1 0x40 MLOAD PUSH3 0x461BCD PUSH1 0xE5 SHL DUP2 MSTORE PUSH1 0x4 ADD PUSH2 0x6B3 SWAP1 PUSH2 0xED4 JUMP JUMPDEST PUSH2 0x882 PUSH2 0x9C8 JUMP JUMPDEST PUSH1 0x1 PUSH1 0x1 PUSH1 0xA0 SHL SUB AND DUP2 PUSH1 0x1 PUSH1 0x1 PUSH1 0xA0 SHL SUB AND PUSH4 0x6E296E45 PUSH1 0x40 MLOAD DUP2 PUSH4 0xFFFFFFFF AND PUSH1 0xE0 SHL DUP2 MSTORE PUSH1 0x4 ADD PUSH1 0x20 PUSH1 0x40 MLOAD DUP1 DUP4 SUB DUP2 DUP7 DUP1 EXTCODESIZE ISZERO DUP1 ISZERO PUSH2 0x8C4 JUMPI PUSH1 0x0 DUP1 REVERT JUMPDEST POP GAS STATICCALL ISZERO DUP1 ISZERO PUSH2 0x8D8 JUMPI RETURNDATASIZE PUSH1 0x0 DUP1 RETURNDATACOPY RETURNDATASIZE PUSH1 0x0 REVERT JUMPDEST POP POP POP POP PUSH1 0x40 MLOAD RETURNDATASIZE PUSH1 0x1F NOT PUSH1 0x1F DUP3 ADD AND DUP3 ADD DUP1 PUSH1 0x40 MSTORE POP PUSH2 0x8FC SWAP2 SWAP1 DUP2 ADD SWAP1 PUSH2 0xB00 JUMP JUMPDEST PUSH1 0x1 PUSH1 0x1 PUSH1 0xA0 SHL SUB AND EQ PUSH2 0x922 JUMPI PUSH1 0x40 MLOAD PUSH3 0x461BCD PUSH1 0xE5 SHL DUP2 MSTORE PUSH1 0x4 ADD PUSH2 0x6B3 SWAP1 PUSH2 0xEE4 JUMP JUMPDEST POP JUMP JUMPDEST PUSH1 0x0 PUSH2 0x972 PUSH9 0xA6F2DCE8D0CAE8D2F PUSH1 0xBB SHL PUSH1 0x40 MLOAD DUP1 PUSH1 0x40 ADD PUSH1 0x40 MSTORE DUP1 PUSH1 0x19 DUP2 MSTORE PUSH1 0x20 ADD PUSH32 0x4D697373696E672053796E746865746978206164647265737300000000000000 DUP2 MSTORE POP PUSH2 0xA4E JUMP JUMPDEST SWAP1 POP SWAP1 JUMP JUMPDEST PUSH1 0x0 PUSH2 0x972 PUSH13 0x32BC3A1D26B2B9B9B2B733B2B9 PUSH1 0x99 SHL PUSH1 0x40 MLOAD DUP1 PUSH1 0x40 ADD PUSH1 0x40 MSTORE DUP1 PUSH1 0x19 DUP2 MSTORE PUSH1 0x20 ADD PUSH32 0x4D697373696E67204D657373656E676572206164647265737300000000000000 DUP2 MSTORE POP PUSH2 0xA4E JUMP JUMPDEST PUSH1 0x0 PUSH2 0x972 PUSH32 0x626173653A53796E746865746978427269646765546F4F7074696D69736D0000 PUSH1 0x40 MLOAD DUP1 PUSH1 0x40 ADD PUSH1 0x40 MSTORE DUP1 PUSH1 0x16 DUP2 MSTORE PUSH1 0x20 ADD PUSH22 0x4D697373696E67204272696467652061646472657373 PUSH1 0x50 SHL DUP2 MSTORE POP PUSH2 0xA4E JUMP JUMPDEST PUSH1 0x0 SLOAD PUSH1 0x1 PUSH1 0x1 PUSH1 0xA0 SHL SUB AND CALLER EQ PUSH2 0xA4C JUMPI PUSH1 0x40 MLOAD PUSH3 0x461BCD PUSH1 0xE5 SHL DUP2 MSTORE PUSH1 0x4 ADD PUSH2 0x6B3 SWAP1 PUSH2 0xEC4 JUMP JUMPDEST JUMP JUMPDEST PUSH1 0x0 DUP3 DUP2 MSTORE PUSH1 0x3 PUSH1 0x20 MSTORE PUSH1 0x40 DUP2 KECCAK256 SLOAD PUSH1 0x1 PUSH1 0x1 PUSH1 0xA0 SHL SUB AND DUP3 DUP2 PUSH2 0xA85 JUMPI PUSH1 0x40 MLOAD PUSH3 0x461BCD PUSH1 0xE5 SHL DUP2 MSTORE PUSH1 0x4 ADD PUSH2 0x6B3 SWAP2 SWAP1 PUSH2 0xEA3 JUMP JUMPDEST POP SWAP1 POP JUMPDEST SWAP3 SWAP2 POP POP JUMP JUMPDEST PUSH1 0x40 MLOAD DUP1 PUSH2 0x300 ADD PUSH1 0x40 MSTORE DUP1 PUSH1 0x18 SWAP1 PUSH1 0x20 DUP3 MUL DUP1 CODESIZE DUP4 CODECOPY POP SWAP2 SWAP3 SWAP2 POP POP JUMP JUMPDEST DUP1 CALLDATALOAD PUSH2 0xA89 DUP2 PUSH2 0xF85 JUMP JUMPDEST DUP1 MLOAD PUSH2 0xA89 DUP2 PUSH2 0xF85 JUMP JUMPDEST DUP1 CALLDATALOAD PUSH2 0xA89 DUP2 PUSH2 0xF99 JUMP JUMPDEST DUP1 CALLDATALOAD PUSH2 0xA89 DUP2 PUSH2 0xFA2 JUMP JUMPDEST PUSH1 0x0 PUSH1 0x20 DUP3 DUP5 SUB SLT ISZERO PUSH2 0xAEC JUMPI PUSH1 0x0 DUP1 REVERT JUMPDEST PUSH1 0x0 PUSH2 0xAF8 DUP5 DUP5 PUSH2 0xAAE JUMP JUMPDEST SWAP5 SWAP4 POP POP POP POP JUMP JUMPDEST PUSH1 0x0 PUSH1 0x20 DUP3 DUP5 SUB SLT ISZERO PUSH2 0xB12 JUMPI PUSH1 0x0 DUP1 REVERT JUMPDEST PUSH1 0x0 PUSH2 0xAF8 DUP5 DUP5 PUSH2 0xAB9 JUMP JUMPDEST PUSH1 0x0 DUP1 PUSH1 0x40 DUP4 DUP6 SUB SLT ISZERO PUSH2 0xB31 JUMPI PUSH1 0x0 DUP1 REVERT JUMPDEST PUSH1 0x0 PUSH2 0xB3D DUP6 DUP6 PUSH2 0xAAE JUMP JUMPDEST SWAP3 POP POP PUSH1 0x20 PUSH2 0xB4E DUP6 DUP3 DUP7 ADD PUSH2 0xACF JUMP JUMPDEST SWAP2 POP POP SWAP3 POP SWAP3 SWAP1 POP JUMP JUMPDEST PUSH1 0x0 PUSH1 0x20 DUP3 DUP5 SUB SLT ISZERO PUSH2 0xB6A JUMPI PUSH1 0x0 DUP1 REVERT JUMPDEST PUSH1 0x0 PUSH2 0xAF8 DUP5 DUP5 PUSH2 0xAC4 JUMP JUMPDEST PUSH1 0x0 PUSH1 0x20 DUP3 DUP5 SUB SLT ISZERO PUSH2 0xB88 JUMPI PUSH1 0x0 DUP1 REVERT JUMPDEST PUSH1 0x0 PUSH2 0xAF8 DUP5 DUP5 PUSH2 0xACF JUMP JUMPDEST PUSH1 0x0 PUSH2 0xBA0 DUP4 DUP4 PUSH2 0xC1D JUMP JUMPDEST POP POP PUSH1 0x20 ADD SWAP1 JUMP JUMPDEST PUSH2 0xBB1 DUP2 PUSH2 0xF40 JUMP JUMPDEST DUP3 MSTORE POP POP JUMP JUMPDEST PUSH2 0xBB1 DUP2 PUSH2 0xF10 JUMP JUMPDEST PUSH2 0xBC9 DUP2 PUSH2 0xEF7 JUMP JUMPDEST PUSH2 0xBD3 DUP2 DUP5 PUSH2 0x684 JUMP JUMPDEST SWAP3 POP PUSH2 0xBDE DUP3 PUSH2 0xEF4 JUMP JUMPDEST DUP1 PUSH1 0x0 JUMPDEST DUP4 DUP2 LT ISZERO PUSH2 0xC0C JUMPI DUP2 MLOAD PUSH2 0xBF6 DUP8 DUP3 PUSH2 0xB94 JUMP JUMPDEST SWAP7 POP PUSH2 0xC01 DUP4 PUSH2 0xF01 JUMP JUMPDEST SWAP3 POP POP PUSH1 0x1 ADD PUSH2 0xBE2 JUMP JUMPDEST POP POP POP POP POP POP JUMP JUMPDEST PUSH2 0xBB1 DUP2 PUSH2 0xF1B JUMP JUMPDEST PUSH2 0xBB1 DUP2 PUSH2 0xEF4 JUMP JUMPDEST PUSH1 0x0 PUSH2 0xC31 DUP3 PUSH2 0xEFD JUMP JUMPDEST PUSH2 0xC3B DUP2 DUP6 PUSH2 0xF07 JUMP JUMPDEST SWAP4 POP PUSH2 0xC4B DUP2 DUP6 PUSH1 0x20 DUP7 ADD PUSH2 0xF4B JUMP JUMPDEST PUSH2 0xC54 DUP2 PUSH2 0xF7B JUMP JUMPDEST SWAP1 SWAP4 ADD SWAP4 SWAP3 POP POP POP JUMP JUMPDEST PUSH2 0xBB1 DUP2 PUSH2 0xF20 JUMP JUMPDEST PUSH1 0x0 PUSH2 0xC74 PUSH1 0x35 DUP4 PUSH2 0xF07 JUMP JUMPDEST PUSH32 0x596F75206D757374206265206E6F6D696E61746564206265666F726520796F75 DUP2 MSTORE PUSH21 0x2063616E20616363657074206F776E65727368697 PUSH1 0x5C SHL PUSH1 0x20 DUP3 ADD MSTORE PUSH1 0x40 ADD SWAP3 SWAP2 POP POP JUMP JUMPDEST PUSH1 0x0 PUSH2 0xCCB PUSH1 0x2F DUP4 PUSH2 0xF07 JUMP JUMPDEST PUSH32 0x4F6E6C792074686520636F6E7472616374206F776E6572206D61792070657266 DUP2 MSTORE PUSH15 0x37B936903A3434B99030B1BA34B7B7 PUSH1 0x89 SHL PUSH1 0x20 DUP3 ADD MSTORE PUSH1 0x40 ADD SWAP3 SWAP2 POP POP JUMP JUMPDEST PUSH1 0x0 PUSH2 0xD1C PUSH1 0x1E DUP4 PUSH2 0xF07 JUMP JUMPDEST PUSH32 0x4F6E6C79207468652072656C617965722063616E2063616C6C20746869730000 DUP2 MSTORE PUSH1 0x20 ADD SWAP3 SWAP2 POP POP JUMP JUMPDEST PUSH1 0x0 PUSH2 0xD55 PUSH1 0x1D DUP4 PUSH2 0xF07 JUMP JUMPDEST PUSH32 0x4F6E6C7920746865204C31206272696467652063616E20696E766F6B65000000 DUP2 MSTORE PUSH1 0x20 ADD SWAP3 SWAP2 POP POP JUMP JUMPDEST PUSH1 0x0 PUSH2 0xD8E PUSH1 0x17 DUP4 PUSH2 0xF07 JUMP JUMPDEST PUSH32 0x5265736F6C766572206D697373696E6720746172676574000000000000000000 DUP2 MSTORE PUSH1 0x20 ADD SWAP3 SWAP2 POP POP JUMP JUMPDEST PUSH2 0xBB1 DUP2 PUSH2 0xF37 JUMP JUMPDEST PUSH1 0x20 DUP2 ADD PUSH2 0xA89 DUP3 DUP5 PUSH2 0xBB7 JUMP JUMPDEST PUSH1 0x40 DUP2 ADD PUSH2 0xDDF DUP3 DUP6 PUSH2 0xBB7 JUMP JUMPDEST PUSH2 0xDEC PUSH1 0x20 DUP4 ADD DUP5 PUSH2 0xC1D JUMP JUMPDEST SWAP4 SWAP3 POP POP POP JUMP JUMPDEST PUSH1 0x40 DUP2 ADD PUSH2 0xDDF DUP3 DUP6 PUSH2 0xBA8 JUMP JUMPDEST PUSH1 0x40 DUP2 ADD PUSH2 0xE0F DUP3 DUP6 PUSH2 0xBB7 JUMP JUMPDEST PUSH2 0xDEC PUSH1 0x20 DUP4 ADD DUP5 PUSH2 0xBB7 JUMP JUMPDEST PUSH1 0x60 DUP2 ADD PUSH2 0xE2A DUP3 DUP7 PUSH2 0xBB7 JUMP JUMPDEST DUP2 DUP2 SUB PUSH1 0x20 DUP4 ADD MSTORE PUSH2 0xE3C DUP2 DUP6 PUSH2 0xC26 JUMP JUMPDEST SWAP1 POP PUSH2 0xAF8 PUSH1 0x40 DUP4 ADD DUP5 PUSH2 0xDBA JUMP JUMPDEST PUSH2 0x300 DUP2 ADD PUSH2 0xA89 DUP3 DUP5 PUSH2 0xBC0 JUMP JUMPDEST PUSH1 0x20 DUP2 ADD PUSH2 0xA89 DUP3 DUP5 PUSH2 0xC14 JUMP JUMPDEST PUSH1 0x20 DUP2 ADD PUSH2 0xA89 DUP3 DUP5 PUSH2 0xC1D JUMP JUMPDEST PUSH1 0x40 DUP2 ADD PUSH2 0xE84 DUP3 DUP5 PUSH2 0xC1D JUMP JUMPDEST DUP2 DUP2 SUB PUSH1 0x20 DUP4 ADD MSTORE PUSH2 0xDEC DUP2 PUSH2 0xD81 JUMP JUMPDEST PUSH1 0x20 DUP2 ADD PUSH2 0xA89 DUP3 DUP5 PUSH2 0xC5E JUMP JUMPDEST PUSH1 0x20 DUP1 DUP3 MSTORE DUP2 ADD PUSH2 0xDEC DUP2 DUP5 PUSH2 0xC26 JUMP JUMPDEST PUSH1 0x20 DUP1 DUP3 MSTORE DUP2 ADD PUSH2 0xA89 DUP2 PUSH2 0xC67 JUMP JUMPDEST PUSH1 0x20 DUP1 DUP3 MSTORE DUP2 ADD PUSH2 0xA89 DUP2 PUSH2 0xCBE JUMP JUMPDEST PUSH1 0x20 DUP1 DUP3 MSTORE DUP2 ADD PUSH2 0xA89 DUP2 PUSH2 0xD0F JUMP JUMPDEST PUSH1 0x20 DUP1 DUP3 MSTORE DUP2 ADD PUSH2 0xA89 DUP2 PUSH2 0xD48 JUMP JUMPDEST SWAP1 JUMP JUMPDEST POP PUSH1 0x18 SWAP1 JUMP JUMPDEST MLOAD SWAP1 JUMP JUMPDEST PUSH1 0x20 ADD SWAP1 JUMP JUMPDEST SWAP1 DUP2 MSTORE PUSH1 0x20 ADD SWAP1 JUMP JUMPDEST PUSH1 0x0 PUSH2 0xA89 DUP3 PUSH2 0xF2B JUMP JUMPDEST ISZERO ISZERO SWAP1 JUMP JUMPDEST PUSH1 0x0 PUSH2 0xA89 DUP3 PUSH2 0xF10 JUMP JUMPDEST PUSH1 0x1 PUSH1 0x1 PUSH1 0xA0 SHL SUB AND SWAP1 JUMP JUMPDEST PUSH4 0xFFFFFFFF AND SWAP1 JUMP JUMPDEST PUSH1 0x0 PUSH2 0xA89 DUP3 PUSH2 0xF20 JUMP JUMPDEST PUSH1 0x0 JUMPDEST DUP4 DUP2 LT ISZERO PUSH2 0xF66 JUMPI DUP2 DUP2 ADD MLOAD DUP4 DUP3 ADD MSTORE PUSH1 0x20 ADD PUSH2 0xF4E JUMP JUMPDEST DUP4 DUP2 GT ISZERO PUSH2 0xF75 JUMPI PUSH1 0x0 DUP5 DUP5 ADD MSTORE JUMPDEST POP POP POP POP JUMP JUMPDEST PUSH1 0x1F ADD PUSH1 0x1F NOT AND SWAP1 JUMP JUMPDEST PUSH2 0xF8E DUP2 PUSH2 0xF10 JUMP JUMPDEST DUP2 EQ PUSH2 0x922 JUMPI PUSH1 0x0 DUP1 REVERT JUMPDEST PUSH2 0xF8E DUP2 PUSH2 0xF20 JUMP JUMPDEST PUSH2 0xF8E DUP2 PUSH2 0xEF4 JUMP INVALID LOG3 PUSH6 0x627A7A723158 KECCAK256 JUMP STOP PUSH15 0xBF1AFC51F5A94925545D13C167D470 RETURN 0xB7 BYTE SWAP7 0x4F 0xF6 DUP16 SDIV CODESIZE SUB 0x5C PUSH14 0x9F3E6C6578706572696D656E7461 PUSH13 0xF564736F6C6343000510004000 "
		}
	}
}