{
	"abi": [
		{
			"inputs": [
				{
					"internalType": "address payable",
					"name": "_proxy",
					"type": "address"
				},
				{
					"internalType": "contract TokenState",
					"name": "_tokenState",
					"type": "address"
				},
				{
					"internalType": "string",
					"name": "_tokenName",
					"type": "string"
				},
				{
					"internalType": "string",
					"name": "_tokenSymbol",
					"type": "string"
				},
				{
					"internalType": "address",
					"name": "_owner",
					"type": "address"
				},
				{
					"internalType": "bytes32",
					"name": "_currencyKey",
					"type": "bytes32"
				},
				{
					"internalType": "uint256",
					"name": "_totalSupply",
					"type": "uint256"
				},
				{
					"internalType": "address",
					"name": "_resolver",
					"type": "address"
				}
			],
			"payable": false,
			"stateMutability": "nonpayable",
			"type": "constructor"
		},
		{
			"anonymous": false,
			"inputs": [
				{
					"indexed": true,
					"internalType": "address",
					"name": "owner",
					"type": "address"
				},
				{
					"indexed": true,
					"internalType": "address",
					"name": "spender",
					"type": "address"
				},
				{
					"indexed": false,
					"internalType": "uint256",
					"name": "value",
					"type": "uint256"
				}
			],
			"name": "Approval",
			"type": "event"
		},
		{
			"anonymous": false,
			"inputs": [
				{
					"indexed": true,
					"internalType": "address",
					"name": "account",
					"type": "address"
				},
				{
					"indexed": false,
					"internalType": "uint256",
					"name": "value",
					"type": "uint256"
				}
			],
			"name": "Burned",
			"type": "event"
		},
		{
			"anonymous": false,
			"inputs": [
				{
					"indexed": true,
					"internalType": "address",
					"name": "account",
					"type": "address"
				},
				{
					"indexed": false,
					"internalType": "uint256",
					"name": "value",
					"type": "uint256"
				}
			],
			"name": "Issued",
			"type": "event"
		},
		{
			"anonymous": false,
			"inputs": [
				{
					"indexed": false,
					"internalType": "address",
					"name": "oldOwner",
					"type": "address"
				},
				{
					"indexed": false,
					"internalType": "address",
					"name": "newOwner",
					"type": "address"
				}
			],
			"name": "OwnerChanged",
			"type": "event"
		},
		{
			"anonymous": false,
			"inputs": [
				{
					"indexed": false,
					"internalType": "address",
					"name": "newOwner",
					"type": "address"
				}
			],
			"name": "OwnerNominated",
			"type": "event"
		},
		{
			"anonymous": false,
			"inputs": [
				{
					"indexed": false,
					"internalType": "address",
					"name": "proxyAddress",
					"type": "address"
				}
			],
			"name": "ProxyUpdated",
			"type": "event"
		},
		{
			"anonymous": false,
			"inputs": [
				{
					"indexed": false,
					"internalType": "address",
					"name": "newBeneficiary",
					"type": "address"
				}
			],
			"name": "SelfDestructBeneficiaryUpdated",
			"type": "event"
		},
		{
			"anonymous": false,
			"inputs": [
				{
					"indexed": false,
					"internalType": "uint256",
					"name": "selfDestructDelay",
					"type": "uint256"
				}
			],
			"name": "SelfDestructInitiated",
			"type": "event"
		},
		{
			"anonymous": false,
			"inputs": [],
			"name": "SelfDestructTerminated",
			"type": "event"
		},
		{
			"anonymous": false,
			"inputs": [
				{
					"indexed": false,
					"internalType": "address",
					"name": "beneficiary",
					"type": "address"
				}
			],
			"name": "SelfDestructed",
			"type": "event"
		},
		{
			"anonymous": false,
			"inputs": [
				{
					"indexed": false,
					"internalType": "address",
					"name": "newTokenState",
					"type": "address"
				}
			],
			"name": "TokenStateUpdated",
			"type": "event"
		},
		{
			"anonymous": false,
			"inputs": [
				{
					"indexed": true,
					"internalType": "address",
					"name": "from",
					"type": "address"
				},
				{
					"indexed": true,
					"internalType": "address",
					"name": "to",
					"type": "address"
				},
				{
					"indexed": false,
					"internalType": "uint256",
					"name": "value",
					"type": "uint256"
				}
			],
			"name": "Transfer",
			"type": "event"
		},
		{
			"constant": true,
			"inputs": [],
			"name": "DECIMALS",
			"outputs": [
				{
					"internalType": "uint8",
					"name": "",
					"type": "uint8"
				}
			],
			"payable": false,
			"stateMutability": "view",
			"type": "function"
		},
		{
			"constant": true,
			"inputs": [],
			"name": "FEE_ADDRESS",
			"outputs": [
				{
					"internalType": "address",
					"name": "",
					"type": "address"
				}
			],
			"payable": false,
			"stateMutability": "view",
			"type": "function"
		},
		{
			"constant": true,
			"inputs": [],
			"name": "MAX_ADDRESSES_FROM_RESOLVER",
			"outputs": [
				{
					"internalType": "uint256",
					"name": "",
					"type": "uint256"
				}
			],
			"payable": false,
			"stateMutability": "view",
			"type": "function"
		},
		{
			"constant": true,
			"inputs": [],
			"name": "SELFDESTRUCT_DELAY",
			"outputs": [
				{
					"internalType": "uint256",
					"name": "",
					"type": "uint256"
				}
			],
			"payable": false,
			"stateMutability": "view",
			"type": "function"
		},
		{
			"constant": false,
			"inputs": [],
			"name": "acceptOwnership",
			"outputs": [],
			"payable": false,
			"stateMutability": "nonpayable",
			"type": "function"
		},
		{
			"constant": true,
			"inputs": [
				{
					"internalType": "address",
					"name": "owner",
					"type": "address"
				},
				{
					"internalType": "address",
					"name": "spender",
					"type": "address"
				}
			],
			"name": "allowance",
			"outputs": [
				{
					"internalType": "uint256",
					"name": "",
					"type": "uint256"
				}
			],
			"payable": false,
			"stateMutability": "view",
			"type": "function"
		},
		{
			"constant": false,
			"inputs": [
				{
					"internalType": "address",
					"name": "spender",
					"type": "address"
				},
				{
					"internalType": "uint256",
					"name": "value",
					"type": "uint256"
				}
			],
			"name": "approve",
			"outputs": [
				{
					"internalType": "bool",
					"name": "",
					"type": "bool"
				}
			],
			"payable": false,
			"stateMutability": "nonpayable",
			"type": "function"
		},
		{
			"constant": true,
			"inputs": [
				{
					"internalType": "address",
					"name": "account",
					"type": "address"
				}
			],
			"name": "balanceOf",
			"outputs": [
				{
					"internalType": "uint256",
					"name": "",
					"type": "uint256"
				}
			],
			"payable": false,
			"stateMutability": "view",
			"type": "function"
		},
		{
			"constant": false,
			"inputs": [
				{
					"internalType": "address",
					"name": "account",
					"type": "address"
				},
				{
					"internalType": "uint256",
					"name": "amount",
					"type": "uint256"
				}
			],
			"name": "burn",
			"outputs": [],
			"payable": false,
			"stateMutability": "nonpayable",
			"type": "function"
		},
		{
			"constant": true,
			"inputs": [],
			"name": "currencyKey",
			"outputs": [
				{
					"internalType": "bytes32",
					"name": "",
					"type": "bytes32"
				}
			],
			"payable": false,
			"stateMutability": "view",
			"type": "function"
		},
		{
			"constant": true,
			"inputs": [],
			"name": "decimals",
			"outputs": [
				{
					"internalType": "uint8",
					"name": "",
					"type": "uint8"
				}
			],
			"payable": false,
			"stateMutability": "view",
			"type": "function"
		},
		{
			"constant": true,
			"inputs": [],
			"name": "getResolverAddressesRequired",
			"outputs": [
				{
					"internalType": "bytes32[24]",
					"name": "addressesRequired",
					"type": "bytes32[24]"
				}
			],
			"payable": false,
			"stateMutability": "view",
			"type": "function"
		},
		{
			"constant": false,
			"inputs": [],
			"name": "initiateSelfDestruct",
			"outputs": [],
			"payable": false,
			"stateMutability": "nonpayable",
			"type": "function"
		},
		{
			"constant": true,
			"inputs": [],
			"name": "initiationTime",
			"outputs": [
				{
					"internalType": "uint256",
					"name": "",
					"type": "uint256"
				}
			],
			"payable": false,
			"stateMutability": "view",
			"type": "function"
		},
		{
			"constant": true,
			"inputs": [],
			"name": "integrationProxy",
			"outputs": [
				{
					"internalType": "contract Proxy",
					"name": "",
					"type": "address"
				}
			],
			"payable": false,
			"stateMutability": "view",
			"type": "function"
		},
		{
			"constant": true,
			"inputs": [
				{
					"internalType": "contract AddressResolver",
					"name": "_resolver",
					"type": "address"
				}
			],
			"name": "isResolverCached",
			"outputs": [
				{
					"internalType": "bool",
					"name": "",
					"type": "bool"
				}
			],
			"payable": false,
			"stateMutability": "view",
			"type": "function"
		},
		{
			"constant": false,
			"inputs": [
				{
					"internalType": "address",
					"name": "account",
					"type": "address"
				},
				{
					"internalType": "uint256",
					"name": "amount",
					"type": "uint256"
				}
			],
			"name": "issue",
			"outputs": [],
			"payable": false,
			"stateMutability": "nonpayable",
			"type": "function"
		},
		{
			"constant": true,
			"inputs": [],
			"name": "messageSender",
			"outputs": [
				{
					"internalType": "address",
					"name": "",
					"type": "address"
				}
			],
			"payable": false,
			"stateMutability": "view",
			"type": "function"
		},
		{
			"constant": true,
			"inputs": [],
			"name": "name",
			"outputs": [
				{
					"internalType": "string",
					"name": "",
					"type": "string"
				}
			],
			"payable": false,
			"stateMutability": "view",
			"type": "function"
		},
		{
			"constant": false,
			"inputs": [
				{
					"internalType": "address",
					"name": "_owner",
					"type": "address"
				}
			],
			"name": "nominateNewOwner",
			"outputs": [],
			"payable": false,
			"stateMutability": "nonpayable",
			"type": "function"
		},
		{
			"constant": true,
			"inputs": [],
			"name": "nominatedOwner",
			"outputs": [
				{
					"internalType": "address",
					"name": "",
					"type": "address"
				}
			],
			"payable": false,
			"stateMutability": "view",
			"type": "function"
		},
		{
			"constant": true,
			"inputs": [],
			"name": "owner",
			"outputs": [
				{
					"internalType": "address",
					"name": "",
					"type": "address"
				}
			],
			"payable": false,
			"stateMutability": "view",
			"type": "function"
		},
		{
			"constant": true,
			"inputs": [],
			"name": "proxy",
			"outputs": [
				{
					"internalType": "contract Proxy",
					"name": "",
					"type": "address"
				}
			],
			"payable": false,
			"stateMutability": "view",
			"type": "function"
		},
		{
			"constant": true,
			"inputs": [],
			"name": "resolver",
			"outputs": [
				{
					"internalType": "contract AddressResolver",
					"name": "",
					"type": "address"
				}
			],
			"payable": false,
			"stateMutability": "view",
			"type": "function"
		},
		{
			"constant": true,
			"inputs": [
				{
					"internalType": "uint256",
					"name": "",
					"type": "uint256"
				}
			],
			"name": "resolverAddressesRequired",
			"outputs": [
				{
					"internalType": "bytes32",
					"name": "",
					"type": "bytes32"
				}
			],
			"payable": false,
			"stateMutability": "view",
			"type": "function"
		},
		{
			"constant": false,
			"inputs": [],
			"name": "selfDestruct",
			"outputs": [],
			"payable": false,
			"stateMutability": "nonpayable",
			"type": "function"
		},
		{
			"constant": true,
			"inputs": [],
			"name": "selfDestructBeneficiary",
			"outputs": [
				{
					"internalType": "address",
					"name": "",
					"type": "address"
				}
			],
			"payable": false,
			"stateMutability": "view",
			"type": "function"
		},
		{
			"constant": true,
			"inputs": [],
			"name": "selfDestructInitiated",
			"outputs": [
				{
					"internalType": "bool",
					"name": "",
					"type": "bool"
				}
			],
			"payable": false,
			"stateMutability": "view",
			"type": "function"
		},
		{
			"constant": false,
			"inputs": [
				{
					"internalType": "address payable",
					"name": "_integrationProxy",
					"type": "address"
				}
			],
			"name": "setIntegrationProxy",
			"outputs": [],
			"payable": false,
			"stateMutability": "nonpayable",
			"type": "function"
		},
		{
			"constant": false,
			"inputs": [
				{
					"internalType": "address",
					"name": "sender",
					"type": "address"
				}
			],
			"name": "setMessageSender",
			"outputs": [],
			"payable": false,
			"stateMutability": "nonpayable",
			"type": "function"
		},
		{
			"constant": false,
			"inputs": [
				{
					"internalType": "address payable",
					"name": "_proxy",
					"type": "address"
				}
			],
			"name": "setProxy",
			"outputs": [],
			"payable": false,
			"stateMutability": "nonpayable",
			"type": "function"
		},
		{
			"constant": false,
			"inputs": [
				{
					"internalType": "contract AddressResolver",
					"name": "_resolver",
					"type": "address"
				}
			],
			"name": "setResolverAndSyncCache",
			"outputs": [],
			"payable": false,
			"stateMutability": "nonpayable",
			"type": "function"
		},
		{
			"constant": false,
			"inputs": [
				{
					"internalType": "address payable",
					"name": "_beneficiary",
					"type": "address"
				}
			],
			"name": "setSelfDestructBeneficiary",
			"outputs": [],
			"payable": false,
			"stateMutability": "nonpayable",
			"type": "function"
		},
		{
			"constant": false,
			"inputs": [
				{
					"internalType": "contract TokenState",
					"name": "_tokenState",
					"type": "address"
				}
			],
			"name": "setTokenState",
			"outputs": [],
			"payable": false,
			"stateMutability": "nonpayable",
			"type": "function"
		},
		{
			"constant": false,
			"inputs": [
				{
					"internalType": "uint256",
					"name": "amount",
					"type": "uint256"
				}
			],
			"name": "setTotalSupply",
			"outputs": [],
			"payable": false,
			"stateMutability": "nonpayable",
			"type": "function"
		},
		{
			"constant": true,
			"inputs": [],
			"name": "symbol",
			"outputs": [
				{
					"internalType": "string",
					"name": "",
					"type": "string"
				}
			],
			"payable": false,
			"stateMutability": "view",
			"type": "function"
		},
		{
			"constant": false,
			"inputs": [],
			"name": "terminateSelfDestruct",
			"outputs": [],
			"payable": false,
			"stateMutability": "nonpayable",
			"type": "function"
		},
		{
			"constant": true,
			"inputs": [],
			"name": "tokenState",
			"outputs": [
				{
					"internalType": "contract TokenState",
					"name": "",
					"type": "address"
				}
			],
			"payable": false,
			"stateMutability": "view",
			"type": "function"
		},
		{
			"constant": true,
			"inputs": [],
			"name": "totalSupply",
			"outputs": [
				{
					"internalType": "uint256",
					"name": "",
					"type": "uint256"
				}
			],
			"payable": false,
			"stateMutability": "view",
			"type": "function"
		},
		{
			"constant": false,
			"inputs": [
				{
					"internalType": "address",
					"name": "to",
					"type": "address"
				},
				{
					"internalType": "uint256",
					"name": "value",
					"type": "uint256"
				}
			],
			"name": "transfer",
			"outputs": [
				{
					"internalType": "bool",
					"name": "",
					"type": "bool"
				}
			],
			"payable": false,
			"stateMutability": "nonpayable",
			"type": "function"
		},
		{
			"constant": false,
			"inputs": [
				{
					"internalType": "address",
					"name": "to",
					"type": "address"
				},
				{
					"internalType": "uint256",
					"name": "value",
					"type": "uint256"
				}
			],
			"name": "transferAndSettle",
			"outputs": [
				{
					"internalType": "bool",
					"name": "",
					"type": "bool"
				}
			],
			"payable": false,
			"stateMutability": "nonpayable",
			"type": "function"
		},
		{
			"constant": false,
			"inputs": [
				{
					"internalType": "address",
					"name": "from",
					"type": "address"
				},
				{
					"internalType": "address",
					"name": "to",
					"type": "address"
				},
				{
					"internalType": "uint256",
					"name": "value",
					"type": "uint256"
				}
			],
			"name": "transferFrom",
			"outputs": [
				{
					"internalType": "bool",
					"name": "",
					"type": "bool"
				}
			],
			"payable": false,
			"stateMutability": "nonpayable",
			"type": "function"
		},
		{
			"constant": false,
			"inputs": [
				{
					"internalType": "address",
					"name": "from",
					"type": "address"
				},
				{
					"internalType": "address",
					"name": "to",
					"type": "address"
				},
				{
					"internalType": "uint256",
					"name": "value",
					"type": "uint256"
				}
			],
			"name": "transferFromAndSettle",
			"outputs": [
				{
					"internalType": "bool",
					"name": "",
					"type": "bool"
				}
			],
			"payable": false,
			"stateMutability": "nonpayable",
			"type": "function"
		},
		{
			"constant": true,
			"inputs": [
				{
					"internalType": "address",
					"name": "account",
					"type": "address"
				}
			],
			"name": "transferableSynths",
			"outputs": [
				{
					"internalType": "uint256",
					"name": "",
					"type": "uint256"
				}
			],
			"payable": false,
			"stateMutability": "view",
			"type": "function"
		}
	],
	"evm": {
		"bytecode": {
			"linkReferences": {},
			"object": "60806040526040516080810160409081526b53797374656d53746174757360a01b82526822bc31b430b733b2b960b91b60208301526524b9b9bab2b960d11b9082015266119959541bdbdb60ca1b60608201526200006290600f906004620008a5565b503480156200007b5760008062000078620008f3565b50505b50604051620048f9380380620048f98339818101604052610100811015620000ad57600080620000aa620008f3565b50505b810190808051929190602001805192919060200180516040519392919084640100000000821115620000e957600080620000e6620008f3565b50505b9083019060208201858111156200010a5760008062000107620008f3565b50505b825164010000000081118282018810171562000130576000806200012d620008f3565b50505b825250602001908051906020019080838360005b838110156200015e57808201518382015260200162000144565b50505050905090810190601f1680156200018c5780820380516001836020036101000a031916815260200191505b5060405260200180516040519392919084640100000000821115620001bb57600080620001b8620008f3565b50505b908301906020820185811115620001dc57600080620001d9620008f3565b50505b82516401000000008111828201881017156200020257600080620001ff620008f3565b50505b825250602001908051906020019080838360005b838110156200023057808201518382015260200162000216565b50505050905090810190601f1680156200025e5780820380516001836020036101000a031916815260200191505b5060405260200180519291906020018051929190602001805192919060200180519250829150600f905060186103006040519081016040529190610300830182845b81620002ab62000960565b81526020019060010190808311620002a0575050505050898989898760128b868160006001600160a01b0316816001600160a01b031614156200033f5760405162461bcd60e51b815260206004820152601960248201527f4f776e657220616464726573732063616e6e6f742062652030000000000000006044820152606401604051809103906200033c620008f3565b50505b8060006001816200034f62000960565b816001600160a01b0302191690836001600160a01b031602179062000373620009c2565b5050507fb532073b38c83145e3e5135377a08bf9aab55bc0fd7c1179cd4fb995d2a5159c6000826040516001600160a01b039283168152911660208201526040908101905180910390a15060008080620003cc62000960565b906101000a90046001600160a01b03166001600160a01b03161415620004375760405162461bcd60e51b815260206004820152601160248201527013dddb995c881b5d5cdd081899481cd95d607a1b60448201526064016040518091039062000434620008f3565b50505b6000806200044462000960565b906101000a90046001600160a01b0316600360016101000a816200046762000960565b816001600160a01b0302191690836001600160a01b03160217906200048b620009c2565b5050507fd5da63a0b864b315bc04128dedbc93888c8529ee6cf47ce664dc204339228c5360008090620004bd62000960565b906101000a90046001600160a01b03166040516001600160a01b03909116815260200160405180910390a160008080620004f662000960565b906101000a90046001600160a01b03166001600160a01b03161415620005615760405162461bcd60e51b815260206004820152601160248201527013dddb995c881b5d5cdd081899481cd95d607a1b6044820152606401604051809103906200055e620008f3565b50505b8060046001816200057162000960565b816001600160a01b0302191690836001600160a01b031602179062000595620009c2565b5050507ffc80377ca9c49cc11ae6982f390a42db976d5530af7c43889264b13fbbd7c57e816040516001600160a01b03909116815260200160405180910390a150856007600181620005e662000960565b816001600160a01b0302191690836001600160a01b03160217906200060a620009c2565b5050508460089080516200062392916020019062000a11565b5060098480516200063992916020019062000a11565b508280600a62000648620009c2565b50505081600b60006101000a816200065f62000960565b8160ff021916908360ff1602179062000677620009c2565b5050505050505050505060006001600160a01b0316600080906200069a62000960565b906101000a90046001600160a01b03166001600160a01b03161415620007055760405162461bcd60e51b815260206004820152601160248201527013dddb995c881b5d5cdd081899481cd95d607a1b60448201526064016040518091039062000702620008f3565b50505b60005b6018811015620007955760008282601881106200072157fe5b6020020151146200078657600d8282601881106200073b57fe5b602002015190806001816200074f62000960565b0180826200075c620009c2565b50506000928352916000198301915060209020919291016200077d620009c2565b5050506200078c565b62000795565b60010162000708565b5081600b61010081620007a762000960565b816001600160a01b0302191690836001600160a01b0316021790620007cb620009c2565b50505050506001600160a01b0388166200082b5760405162461bcd60e51b815260206004820152601260248201527105f70726f78792063616e6e6f7420626520360741b60448201526064016040518091039062000828620008f3565b50505b6001600160a01b038416620008865760405162461bcd60e51b815260206004820152601260248201527105f6f776e65722063616e6e6f7420626520360741b60448201526064016040518091039062000883620008f3565b50505b8280600e62000894620009c2565b505050505050505050505062000b13565b8260188101928215620008e1579160200282015b82811115620008e157825182620008cf620009c2565b505091602001919060010190620008b9565b50620008ef92915062000abc565b5090565b632a2a7adb598160e01b8152600481016020815285602082015260005b868110156200092d57808601518282016040015260200162000910565b506020828760640184336000905af158600e01573d6000803e3d6000fd5b3d6001141558600a015760016000f35b505050565b6303daa959598160e01b8152836004820152602081602483336000905af158600e01573d6000803e3d6000fd5b3d6001141558600a015760016000f35b8051935060005b6040811015620009bd57600082820152602001620009a4565b505050565b6322bd64c0598160e01b8152836004820152846024820152600081604483336000905af158600e01573d6000803e3d6000fd5b3d6001141558600a015760016000f35b600081526020620009a4565b828062000a1d62000960565b600181600116156101000203166002900490600052602060002090601f016020900481019282601f1062000a6857805160ff1916838001178562000a60620009c2565b505062000aae565b8280016001018562000a79620009c2565b5050821562000aae579182015b8281111562000aae5782518262000a9c620009c2565b50509160200191906001019062000a86565b50620008ef92915062000ae9565b62000ae691905b80821115620008ef576000808262000ada620009c2565b50505060010162000ac3565b90565b62000ae691905b80821115620008ef576000808262000b07620009c2565b50505060010162000af0565b613dd68062000b236000396000f3fe60806040523480156100195760008061001661392d565b50505b506004361061027d5760003560e01c80639cbdaeb61161015a578063c6c9d828116100cc578063e73cced311610090578063e73cced314610789578063e90dd9e2146107c8578063eb1edd61146107d0578063ec556889146107d8578063f7ea7a3d146107e0578063ffff51d6146108065761027d565b8063c6c9d82814610714578063d67bdd251461073a578063dbd06c8514610742578063dd62ed3e1461074a578063e3235c91146107815761027d565b8063ab49848c1161011e578063ab49848c14610657578063b014c3a314610698578063b8225dec146106cd578063bc67f832146106d5578063bd32aa4414610704578063c58aaae61461070c5761027d565b80639cbdaeb6146105ae5780639dc29fac146105b65780639f769807146105eb578063a461fc821461061a578063a9059cbb146106225761027d565b80633278c960116101f357806379ba5097116101b757806379ba50971461052a578063867904b4146105325780638da5cb5b1461056757806395d89b411461056f57806397107d6d146105775780639cb8a26a146105a65761027d565b80633278c9601461048d5780633be99e6f1461049557806353a47bb7146104c4578063631e1444146104cc57806370a08231146104fb5761027d565b806317c70de41161024557806317c70de4146103d757806318160ddd146103f157806320714f88146103f957806323b872dd146104285780632e0f262514610467578063313ce567146104855761027d565b806304f3bcec1461028b57806306fdde03146102af578063095ea7b31461032e578063131b0ae7146103775780631627540c146103a8575b60008061028861392d565b50505b610293610835565b6040516001600160a01b03909116815260200160405180910390f35b6102b7610854565b60405160208082528190810183818151815260200191508051906020019080838360005b838110156102f35780820151838201526020016102db565b50505050905090810190601f1680156103205780820380516001836020036101000a031916815260200191505b509250505060405180910390f35b6103636004803603604081101561034d5760008061034a61392d565b50505b506001600160a01b03813516906020013561090d565b604051901515815260200160405180910390f35b6103a6600480360360208110156103965760008061039361392d565b50505b50356001600160a01b0316610a0b565b005b6103a6600480360360208110156103c7576000806103c461392d565b50505b50356001600160a01b0316610a49565b6103df610ac3565b60405190815260200160405180910390f35b6103df610ad0565b6103a6600480360360208110156104185760008061041561392d565b50505b50356001600160a01b0316610ada565b610363600480360360608110156104475760008061044461392d565b50505b506001600160a01b03813581169160208101359091169060400135610bb9565b61046f610be0565b60405160ff909116815260200160405180910390f35b61046f610be5565b6103a6610bfe565b6103a6600480360360208110156104b4576000806104b161392d565b50505b50356001600160a01b0316610c6f565b610293610e3a565b610363600480360360208110156104eb576000806104e861392d565b50505b50356001600160a01b0316610e46565b6103df6004803603602081101561051a5760008061051761392d565b50505b50356001600160a01b0316611023565b6103a66110f5565b6103a6600480360360408110156105515760008061054e61392d565b50505b506001600160a01b038135169060200135611278565b610293611356565b6102b7611361565b6103a6600480360360208110156105965760008061059361392d565b50505b50356001600160a01b0316611403565b6103a661147e565b6102936115c1565b6103a6600480360360408110156105d5576000806105d261392d565b50505b506001600160a01b0381351690602001356115cd565b6103a66004803603602081101561060a5760008061060761392d565b50505b50356001600160a01b03166116ac565b6103df6116f3565b610363600480360360408110156106415760008061063e61392d565b50505b506001600160a01b0381351690602001356116fa565b61065f6117bf565b604051808261030080838360005b8381101561068557808201518382015260200161066d565b5050505090500191505060405180910390f35b610363600480360360408110156106b7576000806106b461392d565b50505b506001600160a01b038135169060200135611821565b610363611a51565b6103a6600480360360208110156106f4576000806106f161392d565b50505b50356001600160a01b0316611a5d565b6103a6611a73565b610293611af5565b6103df600480360360208110156107335760008061073061392d565b50505b5035611b01565b610293611b29565b6103df611b35565b6103df600480360360408110156107695760008061076661392d565b50505b506001600160a01b0381358116916020013516611b3f565b6103df611c1a565b610363600480360360608110156107a8576000806107a561392d565b50505b506001600160a01b03813581169160208101359091169060400135611c1f565b610293611e07565b610293611e13565b610293611e2b565b6103a6600480360360208110156107ff576000806107fc61392d565b50505b5035611e37565b6103df600480360360208110156108255760008061082261392d565b50505b50356001600160a01b0316611e4b565b6001600b610841613998565b906101000a90046001600160a01b031681565b60088061085f613998565b600181600116156101000203166002900480601f016020809104026020016040519081016040528181529190602083018280610899613998565b600181600116156101000203166002900480156109055780601f106108d35761010080836108c5613998565b040283529160200191610905565b820191906000526020600020905b816108ea613998565b815290600101906020018083116108e157829003601f168201915b505050505081565b6000610917612027565b6000806006610924613998565b906101000a90046001600160a01b031690506007600090610943613998565b906101000a90046001600160a01b03166001600160a01b031663da46098c8286866040516001600160e01b031960e086901b1681526001600160a01b0393841660048201529190921660248201526044810191909152606401600060405180830381600087806109b16139f3565b1580156109c6576000806109c361392d565b50505b505a6109d0613a3f565b5050505050501580156109f0573d6000803e3d60006109ed61392d565b50505b505050506109ff8185856120ff565b60019150505b92915050565b610a13612278565b806005600181610a21613998565b816001600160a01b0302191690836001600160a01b0316021790610a43613af8565b50505050565b610a51612278565b8060018080610a5e613998565b816001600160a01b0302191690836001600160a01b0316021790610a80613af8565b5050507f906a1c6bd7e3091ea86693dd029a831c19049ce77f1dce2ce0bab1cacbabce22816040516001600160a01b03909116815260200160405180910390a150565b6002610acd613998565b81565b600a610acd613998565b610ae2612278565b6001600160a01b038116610b455760405162461bcd60e51b815260206004820152601c60248201527f42656e6566696369617279206d757374206e6f74206265207a65726f00000000604482015260640160405180910390610b4261392d565b50505b80600361010081610b54613998565b816001600160a01b0302191690836001600160a01b0316021790610b76613af8565b5050507fd5da63a0b864b315bc04128dedbc93888c8529ee6cf47ce664dc204339228c53816040516001600160a01b03909116815260200160405180910390a150565b6000610bc3612027565b610bcd84836122f0565b610bd88484846124e4565b949350505050565b601281565b6000600b610bf1613998565b906101000a900460ff1681565b610c06612278565b6000806002610c13613af8565b5050506000600360006101000a81610c29613998565b8160ff02191690831515021790610c3e613af8565b5050507f6adcc7125002935e0aa31697538ebbd65cfddf20431eb6ecdcfc3e238bfd082c60405160405180910390a1565b610c77612278565b80600b61010081610c86613998565b816001600160a01b0302191690836001600160a01b0316021790610ca8613af8565b5060009150505b600d80610cba613998565b9050811015610e36576000600d8281610cd1613998565b8110610cd957fe5b90600052602060002001610ceb613998565b90506001600b610cf9613998565b906101000a90046001600160a01b03166001600160a01b031663dacb2d01826040516001600160e01b031960e084901b1681526004810191909152604060248201819052601760448301527f5265736f6c766572206d697373696e6720746172676574000000000000000000606483015260849091019060209051808303818680610d826139f3565b158015610d9757600080610d9461392d565b50505b505a610da1613b46565b5050505050158015610dc0573d6000803e3d6000610dbd61392d565b50505b505050506040513d6020811015610ddf57600080610ddc61392d565b50505b8101908080516000858152600c60205290935060409250905020600181610e04613998565b816001600160a01b0302191690836001600160a01b0316021790610e26613af8565b505060019092019150610caf9050565b5050565b60006001610841613998565b60006001600160a01b0382166001600b610e5e613998565b906101000a90046001600160a01b03166001600160a01b031614610e845750600061101e565b60005b600d80610e92613998565b9050811015611018576000600d8281610ea9613998565b8110610eb157fe5b90600052602060002001610ec3613998565b6000818152600c60205290915060409020600090610edf613998565b6001600160a01b036101009290920a9004166001600b610efd613998565b906101000a90046001600160a01b03166001600160a01b03166321f8a721836040516001600160e01b031960e084901b16815260048101919091526024016020604051808303818680610f4e6139f3565b158015610f6357600080610f6061392d565b50505b505a610f6d613b46565b5050505050158015610f8c573d6000803e3d6000610f8961392d565b50505b505050506040513d6020811015610fab57600080610fa861392d565b50505b8101908080516001600160a01b031693909314159250829150610fff905057506000818152600c60205260408120600090610fe4613998565b906101000a90046001600160a01b03166001600160a01b0316145b1561100f5760009250505061101e565b50600101610e87565b50600190505b919050565b6000806007611030613998565b906101000a90046001600160a01b03166001600160a01b03166370a08231836040516001600160e01b031960e084901b1681526001600160a01b03909116600482015260240160206040518083038186806110896139f3565b15801561109e5760008061109b61392d565b50505b505a6110a8613b46565b50505050501580156110c7573d6000803e3d60006110c461392d565b50505b505050506040513d60208110156110e6576000806110e361392d565b50505b81019080805195945050505050565b60006001611101613998565b906101000a90046001600160a01b03166001600160a01b03165a611123613bff565b6001600160a01b0316146111715760405162461bcd60e51b8152600401808060200182810382526035815260200180613ca9603591396040019150506040518091039061116e61392d565b50505b7fb532073b38c83145e3e5135377a08bf9aab55bc0fd7c1179cd4fb995d2a5159c60008061119d613998565b906101000a90046001600160a01b031660016000906111ba613998565b906101000a90046001600160a01b03166040516001600160a01b039283168152911660208201526040908101905180910390a1600060016111f9613998565b906101000a90046001600160a01b03166000806101000a81611219613998565b816001600160a01b0302191690836001600160a01b031602179061123b613af8565b5050506000600160006101000a81611251613998565b816001600160a01b0302191690836001600160a01b0316021790611273613af8565b505050565b60006112826127af565b6001600160a01b03165a611294613bff565b6001600160a01b031614905060006112aa6127fd565b6001600160a01b03165a6112bc613bff565b6001600160a01b031614905060006112d2612848565b6001600160a01b03165a6112e4613bff565b6001600160a01b031614905082806112f95750815b806113015750805b6113455760405162461bcd60e51b8152600401808060200182810382526033815260200180613d0d603391396040019150506040518091039061134261392d565b50505b61134f8585612889565b5050505050565b600080610841613998565b60098061136c613998565b600181600116156101000203166002900480601f0160208091040260200160405190810160405281815291906020830182806113a6613998565b600181600116156101000203166002900480156109055780601f106113d25761010080836108c5613998565b820191906000526020600020905b816113e9613998565b815290600101906020018083116113e05750859350505050565b61140b612278565b806004600181611419613998565b816001600160a01b0302191690836001600160a01b031602179061143b613af8565b5050507ffc80377ca9c49cc11ae6982f390a42db976d5530af7c43889264b13fbbd7c57e816040516001600160a01b03909116815260200160405180910390a150565b611486612278565b60006003611492613998565b906101000a900460ff166114f55760405162461bcd60e51b815260206004820152601f60248201527f53656c66204465737472756374206e6f742079657420696e69746961746564006044820152606401604051809103906114f261392d565b50505b5a6114fe613c45565b6224ea00600261150c613998565b01106115675760405162461bcd60e51b815260206004820152601b60248201527f53656c662064657374727563742064656c6179206e6f74206d6574000000000060448201526064016040518091039061156461392d565b50505b7f8a09e1677ced846cb537dc2b172043bd05a1a81ad7e0033a7ef8ba762df990b760016003611594613998565b906101000a90046001600160a01b03166040516001600160a01b03909116815260200160405180910390a1565b60006005610841613998565b60006115d76127af565b6001600160a01b03165a6115e9613bff565b6001600160a01b031614905060006115ff6127fd565b6001600160a01b03165a611611613bff565b6001600160a01b03161490506000611627612848565b6001600160a01b03165a611639613bff565b6001600160a01b0316149050828061164e5750815b806116565750805b61169a5760405162461bcd60e51b8152600401808060200182810382526033815260200180613d0d603391396040019150506040518091039061169761392d565b50505b6116a48585612a4c565b505050505050565b6116b4612ba5565b8060076001816116c2613998565b816001600160a01b0302191690836001600160a01b03160217906116e4613af8565b5050506116f081612d30565b50565b6224ea0081565b6000611704612027565b61172960006006611713613998565b906101000a90046001600160a01b0316836122f0565b6001600160a01b03831673feefeefeefeefeefeefeefeefeefeefeefeefeef141561175f576117588383612eb4565b9050610a05565b6001600160a01b038316611792576117586000600661177c613998565b906101000a90046001600160a01b031683612a4c565b6117b8600060066117a1613998565b906101000a90046001600160a01b031684846130b2565b9392505050565b6117c7613c8b565b60005b600d806117d5613998565b905081101561181d57600d81816117ea613998565b81106117f257fe5b90600052602060002001611804613998565b82826018811061181057fe5b60200201526001016117ca565b5090565b600061182b612027565b60006118356127fd565b6001600160a01b0316631b16802c6000600661184f613998565b906101000a90046001600160a01b0316600e611869613998565b6040516001600160e01b031960e085901b1681526001600160a01b0390921660048301526024820152604401606060405180830381600087806118aa6139f3565b1580156118bf576000806118bc61392d565b50505b505a6118c9613a3f565b5050505050501580156118e9573d6000803e3d60006118e661392d565b50505b505050506040513d60608110156119085760008061190561392d565b50505b8101908080519291906020018051929190602001805195508794505084159250611a11915050576000600761193b613998565b6001600160a01b036101009290920a9004166370a082316000600661195e613998565b906101000a90046001600160a01b03166040516001600160e01b031960e084901b1681526001600160a01b03909116600482015260240160206040518083038186806119a86139f3565b1580156119bd576000806119ba61392d565b50505b505a6119c7613b46565b50505050501580156119e6573d6000803e3d60006119e361392d565b50505b505050506040513d6020811015611a0557600080611a0261392d565b50505b81019080805193505050505b808411611a1e5783611a20565b805b9350611a4860006006611a31613998565b906101000a90046001600160a01b031686866130b2565b95945050505050565b60006003610bf1613998565b611a65613400565b806006600181610a21613998565b611a7b612278565b5a611a84613c45565b806002611a8f613af8565b5050506001600360006101000a81611aa5613998565b8160ff02191690831515021790611aba613af8565b5050507fcbd94ca75b8dc45c9d80c77e851670e78843c0d75180cb81db3e2158228fa9a66224ea0060405190815260200160405180910390a1565b60016003610841613998565b600d8181611b0d613998565b8110611b1557fe5b906000526020600020019050610acd613998565b60006006610841613998565b600e610acd613998565b6000806007611b4c613998565b906101000a90046001600160a01b03166001600160a01b031663dd62ed3e84846040516001600160e01b031960e085901b1681526001600160a01b039283166004820152911660248201526044016020604051808303818680611bad6139f3565b158015611bc257600080611bbf61392d565b50505b505a611bcc613b46565b5050505050158015611beb573d6000803e3d6000611be861392d565b50505b505050506040513d6020811015611c0a57600080611c0761392d565b50505b8101908080519695505050505050565b601881565b6000611c29612027565b6000611c336127fd565b6001600160a01b0316631b16802c86600e611c4c613998565b6040516001600160e01b031960e085901b1681526001600160a01b039092166004830152602482015260440160606040518083038160008780611c8d6139f3565b158015611ca257600080611c9f61392d565b50505b505a611cac613a3f565b505050505050158015611ccc573d6000803e3d6000611cc961392d565b50505b505050506040513d6060811015611ceb57600080611ce861392d565b50505b8101908080519291906020018051929190602001805195508794505084159250611de09150505760006007611d1e613998565b906101000a90046001600160a01b03166001600160a01b03166370a08231876040516001600160e01b031960e084901b1681526001600160a01b0390911660048201526024016020604051808303818680611d776139f3565b158015611d8c57600080611d8961392d565b50505b505a611d96613b46565b5050505050158015611db5573d6000803e3d6000611db261392d565b50505b505050506040513d6020811015611dd457600080611dd161392d565b50505b81019080805193505050505b80841015611dee5783611df0565b805b9350611dfd8686866124e4565b9695505050505050565b60006007610841613998565b73feefeefeefeefeefeefeefeefeefeefeefeefeef81565b60006004610841613998565b611e3f612ba5565b8080600a610a43613af8565b600080611e566127fd565b6001600160a01b03166319d5c66584600e611e6f613998565b6040516001600160e01b031960e085901b1681526001600160a01b03909216600483015260248201526044016060604051808303818680611eae6139f3565b158015611ec357600080611ec061392d565b50505b505a611ecd613b46565b5050505050158015611eec573d6000803e3d6000611ee961392d565b50505b505050506040513d6060811015611f0b57600080611f0861392d565b50505b81019080805192919060200180519291906020018051509394506000935083925060079150611f3a9050613998565b906101000a90046001600160a01b03166001600160a01b03166370a08231856040516001600160e01b031960e084901b1681526001600160a01b0390911660048201526024016020604051808303818680611f936139f3565b158015611fa857600080611fa561392d565b50505b505a611fb2613b46565b5050505050158015611fd1573d6000803e3d6000611fce61392d565b50505b505050506040513d6020811015611ff057600080611fed61392d565b50505b81019080805193505050508082111561200e5760009250505061101e565b61201e818363ffffffff6134cd16565b9250505061101e565b60006004612033613998565b906101000a90046001600160a01b03166001600160a01b03165a612055613bff565b6001600160a01b0316141580156120a1575060006005612073613998565b906101000a90046001600160a01b03166001600160a01b03165a612095613bff565b6001600160a01b031614155b80156120e257505a6120b1613bff565b6001600160a01b0316600060066120c6613998565b906101000a90046001600160a01b03166001600160a01b031614155b156120fd575a6120f0613bff565b6006600181611251613998565b565b6000600461210b613998565b906101000a90046001600160a01b03166001600160a01b031663907dff9782604051602001808281526020019150506040516020818303038152906040526003604051806021613d6f82396021019050604051809103902061216c88613532565b61217588613532565b60006040518763ffffffff1660e01b815260040180806020018781526020018681526020018581526020018481526020018360001b8152602001828103825288818151815260200191508051906020019080838360005b838110156121e45780820151838201526020016121cc565b50505050905090810190601f1680156122115780820380516001836020036101000a031916815260200191505b50975050505050505050600060405180830381600087806122306139f3565b1580156122455760008061224261392d565b50505b505a61224f613a3f565b50505050505015801561226f573d6000803e3d600061226c61392d565b50505b50505050505050565b600080612283613998565b906101000a90046001600160a01b03166001600160a01b03165a6122a5613bff565b6001600160a01b0316146120fd5760405162461bcd60e51b815260040180806020018281038252602f815260200180613d40602f913960400191505060405180910390610e3661392d565b6122f86127fd565b6001600160a01b031663059c29ec83600e612311613998565b6040516001600160e01b031960e085901b1681526001600160a01b039092166004830152602482015260440160206040518083038186806123506139f3565b1580156123655760008061236261392d565b50505b505a61236f613b46565b505050505015801561238e573d6000803e3d600061238b61392d565b50505b505050506040513d60208110156123ad576000806123aa61392d565b50505b8101908080511592506123fd9150505760405162461bcd60e51b8152600401808060200182810382526025815260200180613d9060259139604001915050604051809103906123fa61392d565b50505b8061240783611e4b565b101561244d5760405162461bcd60e51b815260040180806020018281038252602f815260200180613cde602f91396040019150506040518091039061244a61392d565b50505b61245561353e565b6001600160a01b03166342a28e21600e61246d613998565b6040516001600160e01b031960e084901b1681526004810191909152602401600060405180830381868061249f6139f3565b1580156124b4576000806124b161392d565b50505b505a6124be613b46565b50505050501580156116a4573d6000803e3d60006124da61392d565b5050505050505050565b60006000198160076124f4613998565b6001600160a01b036101009290920a90041663dd62ed3e8660006006612518613998565b906101000a90046001600160a01b03166040516001600160e01b031960e085901b1681526001600160a01b0392831660048201529116602482015260440160206040518083038186806125696139f3565b15801561257e5760008061257b61392d565b50505b505a612588613b46565b50505050501580156125a7573d6000803e3d60006125a461392d565b50505b505050506040513d60208110156125c6576000806125c361392d565b50505b8101908080519390931492506127a491505057600060076125e5613998565b6001600160a01b036101009290920a90041663da46098c8560006006612609613998565b906101000a90046001600160a01b031661271386600760009061262a613998565b6001600160a01b036101009290920a90041663dd62ed3e8b6000600661264e613998565b906101000a90046001600160a01b03166040516001600160e01b031960e085901b1681526001600160a01b03928316600482015291166024820152604401602060405180830381868061269f6139f3565b1580156126b4576000806126b161392d565b50505b505a6126be613b46565b50505050501580156126dd573d6000803e3d60006126da61392d565b50505b505050506040513d60208110156126fc576000806126f961392d565b50505b8101908080519392505063ffffffff6134cd169050565b6040516001600160e01b031960e086901b1681526001600160a01b0393841660048201529190921660248201526044810191909152606401600060405180830381600087806127606139f3565b1580156127755760008061277261392d565b50505b505a61277f613a3f565b50505050505015801561279f573d6000803e3d600061279c61392d565b50505b505050505b610bd88484846130b2565b60006127f866119959541bdbdb60ca1b60405160408082019052601781527f4d697373696e6720466565506f6f6c20616464726573730000000000000000006020820152613588565b905090565b60006127f86822bc31b430b733b2b960b91b60405160408082019052601981527f4d697373696e672045786368616e6765722061646472657373000000000000006020820152613588565b60006127f86524b9b9bab2b960d11b6040516040808201905260168152754d697373696e6720497373756572206164647265737360501b6020820152613588565b60006007612895613998565b6001600160a01b036101009290920a90041663b46310f68361298a84600060076128bd613998565b906101000a90046001600160a01b03166001600160a01b03166370a08231886040516001600160e01b031960e084901b1681526001600160a01b03909116600482015260240160206040518083038186806129166139f3565b15801561292b5760008061292861392d565b50505b505a612935613b46565b5050505050158015612954573d6000803e3d600061295161392d565b50505b505050506040513d60208110156129735760008061297061392d565b50505b8101908080519392505063ffffffff613651169050565b6040516001600160e01b031960e085901b1681526001600160a01b0390921660048301526024820152604401600060405180830381600087806129cb6139f3565b1580156129e0576000806129dd61392d565b50505b505a6129ea613a3f565b505050505050158015612a0a573d6000803e3d6000612a0761392d565b50505b50505050612a2881600a612a1c613998565b9063ffffffff61365116565b80600a612a33613af8565b505050612a42600083836136b9565b610e368282613726565b6000806007612a59613998565b6001600160a01b036101009290920a90041663b46310f684612ada8560006007612a81613998565b906101000a90046001600160a01b03166001600160a01b03166370a08231896040516001600160e01b031960e084901b1681526001600160a01b039091166004820152602401602060405180830381868061269f6139f3565b6040516001600160e01b031960e085901b1681526001600160a01b039092166004830152602482015260440160006040518083038160008780612b1b6139f3565b158015612b3057600080612b2d61392d565b50505b505a612b3a613a3f565b505050505050158015612b5a573d6000803e3d6000612b5761392d565b50505b50505050612b7882600a612b6c613998565b9063ffffffff6134cd16565b80600a612b83613af8565b505050612b92836000846136b9565b612b9c83836138a7565b50600192915050565b60006004612bb1613998565b906101000a90046001600160a01b03166001600160a01b03165a612bd3613bff565b6001600160a01b031614158015612c1f575060006005612bf1613998565b906101000a90046001600160a01b03166001600160a01b03165a612c13613bff565b6001600160a01b031614155b8015612c6057505a612c2f613bff565b6001600160a01b031660006006612c44613998565b906101000a90046001600160a01b03166001600160a01b031614155b15612ca1575a612c6e613bff565b6006600181612c7b613998565b816001600160a01b0302191690836001600160a01b0316021790612c9d613af8565b5050505b600080612cac613998565b6001600160a01b036101009290920a90041660006006612cca613998565b906101000a90046001600160a01b03166001600160a01b0316146120fd5760405162461bcd60e51b815260206004820152601360248201527227bbb732b91037b7363c90333ab731ba34b7b760691b604482015260640160405180910390610e3661392d565b60006004612d3c613998565b906101000a90046001600160a01b03166001600160a01b031663907dff97826040516001600160a01b0390911660208201526040908101905160208183030381529060405260016040517f546f6b656e5374617465557064617465642861646472657373290000000000008152601a01604051809103902060008060006040518763ffffffff1660e01b815260040180806020018781526020018681526020018560001b81526020018460001b81526020018360001b8152602001828103825288818151815260200191508051906020019080838360005b83811015612e2c578082015183820152602001612e14565b50505050905090810190601f168015612e595780820380516001836020036101000a031916815260200191505b5097505050505050505060006040518083038160008780612e786139f3565b158015612e8d57600080612e8a61392d565b50505b505a612e97613a3f565b50505050505015801561134f573d6000803e3d600061226f61392d565b600080600e612ec1613998565b631cd554d160e21b1415612efd575081612ef760006006612ee0613998565b906101000a90046001600160a01b031685856130b2565b5061301a565b612f056127fd565b6001600160a01b0316630a1e187d60006006612f1f613998565b906101000a90046001600160a01b0316600e612f39613998565b8673feefeefeefeefeefeefeefeefeefeefeefeefeef6040516001600160e01b031960e087901b1681526001600160a01b03948516600482015260248101939093526044830191909152631cd554d160e21b6064830152909116608482015260a40160206040518083038160008780612fb06139f3565b158015612fc557600080612fc261392d565b50505b505a612fcf613a3f565b505050505050158015612fef573d6000803e3d6000612fec61392d565b50505b505050506040513d602081101561300e5760008061300b61392d565b50505b81019080805193505050505b6130226127af565b6001600160a01b03166322bf55ef826040516001600160e01b031960e084901b1681526004810191909152602401600060405180830381600087806130656139f3565b15801561307a5760008061307761392d565b50505b505a613084613a3f565b5050505050501580156130a4573d6000803e3d60006130a161392d565b50505b506001979650505050505050565b60006001600160a01b0383161580159061313657505a63996d79a5598160e01b8152602081600483336000905af158600e01573d6000803e3d6000fd5b3d6001141558600a015760016000f35b8051925060005b604081101561311d57600082820152602001613106565b5050506001600160a01b0316836001600160a01b031614155b801561316f575060006004613149613998565b906101000a90046001600160a01b03166001600160a01b0316836001600160a01b031614155b6131c85760405162461bcd60e51b815260206004820152601f60248201527f43616e6e6f74207472616e7366657220746f20746869732061646472657373006044820152606401604051809103906131c561392d565b50505b600060076131d4613998565b6001600160a01b036101009290920a90041663b46310f68561325585600060076131fc613998565b906101000a90046001600160a01b03166001600160a01b03166370a082318a6040516001600160e01b031960e084901b1681526001600160a01b039091166004820152602401602060405180830381868061269f6139f3565b6040516001600160e01b031960e085901b1681526001600160a01b0390921660048301526024820152604401600060405180830381600087806132966139f3565b1580156132ab576000806132a861392d565b50505b505a6132b5613a3f565b5050505050501580156132d5573d6000803e3d60006132d261392d565b50505b5050505060076000906132e6613998565b6001600160a01b036101009290920a90041663b46310f684613367856000600761330e613998565b906101000a90046001600160a01b03166001600160a01b03166370a08231896040516001600160e01b031960e084901b1681526001600160a01b03909116600482015260240160206040518083038186806129166139f3565b6040516001600160e01b031960e085901b1681526001600160a01b0390921660048301526024820152604401600060405180830381600087806133a86139f3565b1580156133bd576000806133ba61392d565b50505b505a6133c7613a3f565b5050505050501580156133e7573d6000803e3d60006133e461392d565b50505b505050506133f68484846136b9565b5060019392505050565b6000600461340c613998565b906101000a90046001600160a01b03166001600160a01b03165a61342e613bff565b6001600160a01b0316148061347757506000600561344a613998565b906101000a90046001600160a01b03166001600160a01b03165a61346c613bff565b6001600160a01b0316145b6120fd5760405162461bcd60e51b815260206004820152601760248201527f4f6e6c79207468652070726f78792063616e2063616c6c000000000000000000604482015260640160405180910390610e3661392d565b60008282111561352c5760405162461bcd60e51b815260206004820152601e60248201527f536166654d6174683a207375627472616374696f6e206f766572666c6f77000060448201526064016040518091039061352961392d565b50505b50900390565b6001600160a01b031690565b60006127f86b53797374656d53746174757360a01b60405160408082019052601c81527f4d697373696e672053797374656d53746174757320616464726573730000000060208201525b6000828152600c60205280604081206000906135a2613998565b6001600160a01b036101009290920a900416905082816136495760405162461bcd60e51b81526004018080602001828103825283818151815260200191508051906020019080838360005b838110156136055780820151838201526020016135ed565b50505050905090810190601f1680156136325780820380516001836020036101000a031916815260200191505b50925050506040518091039061364661392d565b50505b509392505050565b6000828201838110156117b85760405162461bcd60e51b815260206004820152601b60248201527f536166654d6174683a206164646974696f6e206f766572666c6f7700000000006044820152606401604051809103906136b061392d565b50509392505050565b600060046136c5613998565b906101000a90046001600160a01b03166001600160a01b031663907dff9782604051602001808281526020019150506040516020818303038152906040526003604051806021613db582396021019050604051809103902061216c88613532565b60006004613732613998565b906101000a90046001600160a01b03166001600160a01b031663907dff97826040516020018082815260200191505060405160208183030381529060405260026040517f49737375656428616464726573732c75696e7432353629000000000000000000815260170160405180910390206137ac87613532565b6000806040518763ffffffff1660e01b815260040180806020018781526020018681526020018581526020018460001b81526020018360001b8152602001828103825288818151815260200191508051906020019080838360005b8381101561381f578082015183820152602001613807565b50505050905090810190601f16801561384c5780820380516001836020036101000a031916815260200191505b509750505050505050506000604051808303816000878061386b6139f3565b1580156138805760008061387d61392d565b50505b505a61388a613a3f565b5050505050501580156116a4573d6000803e3d60006124da61392d565b600060046138b3613998565b906101000a90046001600160a01b03166001600160a01b031663907dff97826040516020018082815260200191505060405160208183030381529060405260026040517f4275726e656428616464726573732c75696e7432353629000000000000000000815260170160405180910390206137ac87613532565b632a2a7adb598160e01b8152600481016020815285602082015260005b8681101561396557808601518282016040015260200161394a565b506020828760640184336000905af158600e01573d6000803e3d6000fd5b3d6001141558600a015760016000f35b505050565b6303daa959598160e01b8152836004820152602081602483336000905af158600e01573d6000803e3d6000fd5b3d6001141558600a015760016000f35b8051935060005b6040811015611273576000828201526020016139dc565b638435035b598160e01b8152836004820152602081602483336000905af158600e01573d6000803e3d6000fd5b3d6001141558600a015760016000f35b805160008252935060206139dc565b6385979f76598160e01b8152836004820152846024820152606060448201528760648201526084810160005b89811015613a83578089015182820152602001613a6b565b50886101040182016060838b6101040185336000905af158600e01573d6000803e3d6000fd5b3d6001141558600a015760016000f35b825160408401513d6000863e8d8d82606088013350600060045af15059855b81811015613aec5760008152602001613ad8565b50919d50505050505050565b6322bd64c0598160e01b8152836004820152846024820152600081604483336000905af158600e01573d6000803e3d6000fd5b3d6001141558600a015760016000f35b6000815260206139dc565b638540661f598160e01b8152836004820152846024820152606060448201528660648201526084810160005b88811015613b8a578088015182820152602001613b72565b50876101040182016060838a6101040185336000905af158600e01573d6000803e3d6000fd5b3d6001141558600a015760016000f35b825160408401513d6000863e8c8c82606088013350600060045af15059855b81811015613bf35760008152602001613bdf565b50919c50505050505050565b6373509064598160e01b8152602081600483336000905af158600e01573d6000803e3d6000fd5b3d6001141558600a015760016000f35b805160008252935060206139dc565b63bdbf8c36598160e01b8152602081600483336000905af158600e01573d6000803e3d6000fd5b3d6001141558600a015760016000f35b805160008252935060206139dc565b60405161030080820160405260189082908038833950919291505056fe596f75206d757374206265206e6f6d696e61746564206265666f726520796f752063616e20616363657074206f776e657273686970496e73756666696369656e742062616c616e636520616674657220616e7920736574746c656d656e74206f77696e674f6e6c7920466565506f6f6c2c2045786368616e676572206f722049737375657220636f6e74726163747320616c6c6f7765644f6e6c792074686520636f6e7472616374206f776e6572206d617920706572666f726d207468697320616374696f6e417070726f76616c28616464726573732c616464726573732c75696e743235362943616e6e6f74207472616e7366657220647572696e672077616974696e6720706572696f645472616e7366657228616464726573732c616464726573732c75696e7432353629",
			"opcodes": "PUSH1 0x80 PUSH1 0x40 MSTORE PUSH1 0x40 MLOAD PUSH1 0x80 DUP2 ADD PUSH1 0x40 SWAP1 DUP2 MSTORE PUSH12 0x53797374656D537461747573 PUSH1 0xA0 SHL DUP3 MSTORE PUSH9 0x22BC31B430B733B2B9 PUSH1 0xB9 SHL PUSH1 0x20 DUP4 ADD MSTORE PUSH6 0x24B9B9BAB2B9 PUSH1 0xD1 SHL SWAP1 DUP3 ADD MSTORE PUSH7 0x119959541BDBDB PUSH1 0xCA SHL PUSH1 0x60 DUP3 ADD MSTORE PUSH3 0x62 SWAP1 PUSH1 0xF SWAP1 PUSH1 0x4 PUSH3 0x8A5 JUMP JUMPDEST POP CALLVALUE DUP1 ISZERO PUSH3 0x7B JUMPI PUSH1 0x0 DUP1 PUSH3 0x78 PUSH3 0x8F3 JUMP JUMPDEST POP POP JUMPDEST POP PUSH1 0x40 MLOAD PUSH3 0x48F9 CODESIZE SUB DUP1 PUSH3 0x48F9 DUP4 CODECOPY DUP2 DUP2 ADD PUSH1 0x40 MSTORE PUSH2 0x100 DUP2 LT ISZERO PUSH3 0xAD JUMPI PUSH1 0x0 DUP1 PUSH3 0xAA PUSH3 0x8F3 JUMP JUMPDEST POP POP JUMPDEST DUP2 ADD SWAP1 DUP1 DUP1 MLOAD SWAP3 SWAP2 SWAP1 PUSH1 0x20 ADD DUP1 MLOAD SWAP3 SWAP2 SWAP1 PUSH1 0x20 ADD DUP1 MLOAD PUSH1 0x40 MLOAD SWAP4 SWAP3 SWAP2 SWAP1 DUP5 PUSH5 0x100000000 DUP3 GT ISZERO PUSH3 0xE9 JUMPI PUSH1 0x0 DUP1 PUSH3 0xE6 PUSH3 0x8F3 JUMP JUMPDEST POP POP JUMPDEST SWAP1 DUP4 ADD SWAP1 PUSH1 0x20 DUP3 ADD DUP6 DUP2 GT ISZERO PUSH3 0x10A JUMPI PUSH1 0x0 DUP1 PUSH3 0x107 PUSH3 0x8F3 JUMP JUMPDEST POP POP JUMPDEST DUP3 MLOAD PUSH5 0x100000000 DUP2 GT DUP3 DUP3 ADD DUP9 LT OR ISZERO PUSH3 0x130 JUMPI PUSH1 0x0 DUP1 PUSH3 0x12D PUSH3 0x8F3 JUMP JUMPDEST POP POP JUMPDEST DUP3 MSTORE POP PUSH1 0x20 ADD SWAP1 DUP1 MLOAD SWAP1 PUSH1 0x20 ADD SWAP1 DUP1 DUP4 DUP4 PUSH1 0x0 JUMPDEST DUP4 DUP2 LT ISZERO PUSH3 0x15E JUMPI DUP1 DUP3 ADD MLOAD DUP4 DUP3 ADD MSTORE PUSH1 0x20 ADD PUSH3 0x144 JUMP JUMPDEST POP POP POP POP SWAP1 POP SWAP1 DUP2 ADD SWAP1 PUSH1 0x1F AND DUP1 ISZERO PUSH3 0x18C JUMPI DUP1 DUP3 SUB DUP1 MLOAD PUSH1 0x1 DUP4 PUSH1 0x20 SUB PUSH2 0x100 EXP SUB NOT AND DUP2 MSTORE PUSH1 0x20 ADD SWAP2 POP JUMPDEST POP PUSH1 0x40 MSTORE PUSH1 0x20 ADD DUP1 MLOAD PUSH1 0x40 MLOAD SWAP4 SWAP3 SWAP2 SWAP1 DUP5 PUSH5 0x100000000 DUP3 GT ISZERO PUSH3 0x1BB JUMPI PUSH1 0x0 DUP1 PUSH3 0x1B8 PUSH3 0x8F3 JUMP JUMPDEST POP POP JUMPDEST SWAP1 DUP4 ADD SWAP1 PUSH1 0x20 DUP3 ADD DUP6 DUP2 GT ISZERO PUSH3 0x1DC JUMPI PUSH1 0x0 DUP1 PUSH3 0x1D9 PUSH3 0x8F3 JUMP JUMPDEST POP POP JUMPDEST DUP3 MLOAD PUSH5 0x100000000 DUP2 GT DUP3 DUP3 ADD DUP9 LT OR ISZERO PUSH3 0x202 JUMPI PUSH1 0x0 DUP1 PUSH3 0x1FF PUSH3 0x8F3 JUMP JUMPDEST POP POP JUMPDEST DUP3 MSTORE POP PUSH1 0x20 ADD SWAP1 DUP1 MLOAD SWAP1 PUSH1 0x20 ADD SWAP1 DUP1 DUP4 DUP4 PUSH1 0x0 JUMPDEST DUP4 DUP2 LT ISZERO PUSH3 0x230 JUMPI DUP1 DUP3 ADD MLOAD DUP4 DUP3 ADD MSTORE PUSH1 0x20 ADD PUSH3 0x216 JUMP JUMPDEST POP POP POP POP SWAP1 POP SWAP1 DUP2 ADD SWAP1 PUSH1 0x1F AND DUP1 ISZERO PUSH3 0x25E JUMPI DUP1 DUP3 SUB DUP1 MLOAD PUSH1 0x1 DUP4 PUSH1 0x20 SUB PUSH2 0x100 EXP SUB NOT AND DUP2 MSTORE PUSH1 0x20 ADD SWAP2 POP JUMPDEST POP PUSH1 0x40 MSTORE PUSH1 0x20 ADD DUP1 MLOAD SWAP3 SWAP2 SWAP1 PUSH1 0x20 ADD DUP1 MLOAD SWAP3 SWAP2 SWAP1 PUSH1 0x20 ADD DUP1 MLOAD SWAP3 SWAP2 SWAP1 PUSH1 0x20 ADD DUP1 MLOAD SWAP3 POP DUP3 SWAP2 POP PUSH1 0xF SWAP1 POP PUSH1 0x18 PUSH2 0x300 PUSH1 0x40 MLOAD SWAP1 DUP2 ADD PUSH1 0x40 MSTORE SWAP2 SWAP1 PUSH2 0x300 DUP4 ADD DUP3 DUP5 JUMPDEST DUP2 PUSH3 0x2AB PUSH3 0x960 JUMP JUMPDEST DUP2 MSTORE PUSH1 0x20 ADD SWAP1 PUSH1 0x1 ADD SWAP1 DUP1 DUP4 GT PUSH3 0x2A0 JUMPI POP POP POP POP POP DUP10 DUP10 DUP10 DUP10 DUP8 PUSH1 0x12 DUP12 DUP7 DUP2 PUSH1 0x0 PUSH1 0x1 PUSH1 0x1 PUSH1 0xA0 SHL SUB AND DUP2 PUSH1 0x1 PUSH1 0x1 PUSH1 0xA0 SHL SUB AND EQ ISZERO PUSH3 0x33F JUMPI PUSH1 0x40 MLOAD PUSH3 0x461BCD PUSH1 0xE5 SHL DUP2 MSTORE PUSH1 0x20 PUSH1 0x4 DUP3 ADD MSTORE PUSH1 0x19 PUSH1 0x24 DUP3 ADD MSTORE PUSH32 0x4F776E657220616464726573732063616E6E6F74206265203000000000000000 PUSH1 0x44 DUP3 ADD MSTORE PUSH1 0x64 ADD PUSH1 0x40 MLOAD DUP1 SWAP2 SUB SWAP1 PUSH3 0x33C PUSH3 0x8F3 JUMP JUMPDEST POP POP JUMPDEST DUP1 PUSH1 0x0 PUSH1 0x1 DUP2 PUSH3 0x34F PUSH3 0x960 JUMP JUMPDEST DUP2 PUSH1 0x1 PUSH1 0x1 PUSH1 0xA0 SHL SUB MUL NOT AND SWAP1 DUP4 PUSH1 0x1 PUSH1 0x1 PUSH1 0xA0 SHL SUB AND MUL OR SWAP1 PUSH3 0x373 PUSH3 0x9C2 JUMP JUMPDEST POP POP POP PUSH32 0xB532073B38C83145E3E5135377A08BF9AAB55BC0FD7C1179CD4FB995D2A5159C PUSH1 0x0 DUP3 PUSH1 0x40 MLOAD PUSH1 0x1 PUSH1 0x1 PUSH1 0xA0 SHL SUB SWAP3 DUP4 AND DUP2 MSTORE SWAP2 AND PUSH1 0x20 DUP3 ADD MSTORE PUSH1 0x40 SWAP1 DUP2 ADD SWAP1 MLOAD DUP1 SWAP2 SUB SWAP1 LOG1 POP PUSH1 0x0 DUP1 DUP1 PUSH3 0x3CC PUSH3 0x960 JUMP JUMPDEST SWAP1 PUSH2 0x100 EXP SWAP1 DIV PUSH1 0x1 PUSH1 0x1 PUSH1 0xA0 SHL SUB AND PUSH1 0x1 PUSH1 0x1 PUSH1 0xA0 SHL SUB AND EQ ISZERO PUSH3 0x437 JUMPI PUSH1 0x40 MLOAD PUSH3 0x461BCD PUSH1 0xE5 SHL DUP2 MSTORE PUSH1 0x20 PUSH1 0x4 DUP3 ADD MSTORE PUSH1 0x11 PUSH1 0x24 DUP3 ADD MSTORE PUSH17 0x13DDDB995C881B5D5CDD081899481CD95D PUSH1 0x7A SHL PUSH1 0x44 DUP3 ADD MSTORE PUSH1 0x64 ADD PUSH1 0x40 MLOAD DUP1 SWAP2 SUB SWAP1 PUSH3 0x434 PUSH3 0x8F3 JUMP JUMPDEST POP POP JUMPDEST PUSH1 0x0 DUP1 PUSH3 0x444 PUSH3 0x960 JUMP JUMPDEST SWAP1 PUSH2 0x100 EXP SWAP1 DIV PUSH1 0x1 PUSH1 0x1 PUSH1 0xA0 SHL SUB AND PUSH1 0x3 PUSH1 0x1 PUSH2 0x100 EXP DUP2 PUSH3 0x467 PUSH3 0x960 JUMP JUMPDEST DUP2 PUSH1 0x1 PUSH1 0x1 PUSH1 0xA0 SHL SUB MUL NOT AND SWAP1 DUP4 PUSH1 0x1 PUSH1 0x1 PUSH1 0xA0 SHL SUB AND MUL OR SWAP1 PUSH3 0x48B PUSH3 0x9C2 JUMP JUMPDEST POP POP POP PUSH32 0xD5DA63A0B864B315BC04128DEDBC93888C8529EE6CF47CE664DC204339228C53 PUSH1 0x0 DUP1 SWAP1 PUSH3 0x4BD PUSH3 0x960 JUMP JUMPDEST SWAP1 PUSH2 0x100 EXP SWAP1 DIV PUSH1 0x1 PUSH1 0x1 PUSH1 0xA0 SHL SUB AND PUSH1 0x40 MLOAD PUSH1 0x1 PUSH1 0x1 PUSH1 0xA0 SHL SUB SWAP1 SWAP2 AND DUP2 MSTORE PUSH1 0x20 ADD PUSH1 0x40 MLOAD DUP1 SWAP2 SUB SWAP1 LOG1 PUSH1 0x0 DUP1 DUP1 PUSH3 0x4F6 PUSH3 0x960 JUMP JUMPDEST SWAP1 PUSH2 0x100 EXP SWAP1 DIV PUSH1 0x1 PUSH1 0x1 PUSH1 0xA0 SHL SUB AND PUSH1 0x1 PUSH1 0x1 PUSH1 0xA0 SHL SUB AND EQ ISZERO PUSH3 0x561 JUMPI PUSH1 0x40 MLOAD PUSH3 0x461BCD PUSH1 0xE5 SHL DUP2 MSTORE PUSH1 0x20 PUSH1 0x4 DUP3 ADD MSTORE PUSH1 0x11 PUSH1 0x24 DUP3 ADD MSTORE PUSH17 0x13DDDB995C881B5D5CDD081899481CD95D PUSH1 0x7A SHL PUSH1 0x44 DUP3 ADD MSTORE PUSH1 0x64 ADD PUSH1 0x40 MLOAD DUP1 SWAP2 SUB SWAP1 PUSH3 0x55E PUSH3 0x8F3 JUMP JUMPDEST POP POP JUMPDEST DUP1 PUSH1 0x4 PUSH1 0x1 DUP2 PUSH3 0x571 PUSH3 0x960 JUMP JUMPDEST DUP2 PUSH1 0x1 PUSH1 0x1 PUSH1 0xA0 SHL SUB MUL NOT AND SWAP1 DUP4 PUSH1 0x1 PUSH1 0x1 PUSH1 0xA0 SHL SUB AND MUL OR SWAP1 PUSH3 0x595 PUSH3 0x9C2 JUMP JUMPDEST POP POP POP PUSH32 0xFC80377CA9C49CC11AE6982F390A42DB976D5530AF7C43889264B13FBBD7C57E DUP2 PUSH1 0x40 MLOAD PUSH1 0x1 PUSH1 0x1 PUSH1 0xA0 SHL SUB SWAP1 SWAP2 AND DUP2 MSTORE PUSH1 0x20 ADD PUSH1 0x40 MLOAD DUP1 SWAP2 SUB SWAP1 LOG1 POP DUP6 PUSH1 0x7 PUSH1 0x1 DUP2 PUSH3 0x5E6 PUSH3 0x960 JUMP JUMPDEST DUP2 PUSH1 0x1 PUSH1 0x1 PUSH1 0xA0 SHL SUB MUL NOT AND SWAP1 DUP4 PUSH1 0x1 PUSH1 0x1 PUSH1 0xA0 SHL SUB AND MUL OR SWAP1 PUSH3 0x60A PUSH3 0x9C2 JUMP JUMPDEST POP POP POP DUP5 PUSH1 0x8 SWAP1 DUP1 MLOAD PUSH3 0x623 SWAP3 SWAP2 PUSH1 0x20 ADD SWAP1 PUSH3 0xA11 JUMP JUMPDEST POP PUSH1 0x9 DUP5 DUP1 MLOAD PUSH3 0x639 SWAP3 SWAP2 PUSH1 0x20 ADD SWAP1 PUSH3 0xA11 JUMP JUMPDEST POP DUP3 DUP1 PUSH1 0xA PUSH3 0x648 PUSH3 0x9C2 JUMP JUMPDEST POP POP POP DUP2 PUSH1 0xB PUSH1 0x0 PUSH2 0x100 EXP DUP2 PUSH3 0x65F PUSH3 0x960 JUMP JUMPDEST DUP2 PUSH1 0xFF MUL NOT AND SWAP1 DUP4 PUSH1 0xFF AND MUL OR SWAP1 PUSH3 0x677 PUSH3 0x9C2 JUMP JUMPDEST POP POP POP POP POP POP POP POP POP POP PUSH1 0x0 PUSH1 0x1 PUSH1 0x1 PUSH1 0xA0 SHL SUB AND PUSH1 0x0 DUP1 SWAP1 PUSH3 0x69A PUSH3 0x960 JUMP JUMPDEST SWAP1 PUSH2 0x100 EXP SWAP1 DIV PUSH1 0x1 PUSH1 0x1 PUSH1 0xA0 SHL SUB AND PUSH1 0x1 PUSH1 0x1 PUSH1 0xA0 SHL SUB AND EQ ISZERO PUSH3 0x705 JUMPI PUSH1 0x40 MLOAD PUSH3 0x461BCD PUSH1 0xE5 SHL DUP2 MSTORE PUSH1 0x20 PUSH1 0x4 DUP3 ADD MSTORE PUSH1 0x11 PUSH1 0x24 DUP3 ADD MSTORE PUSH17 0x13DDDB995C881B5D5CDD081899481CD95D PUSH1 0x7A SHL PUSH1 0x44 DUP3 ADD MSTORE PUSH1 0x64 ADD PUSH1 0x40 MLOAD DUP1 SWAP2 SUB SWAP1 PUSH3 0x702 PUSH3 0x8F3 JUMP JUMPDEST POP POP JUMPDEST PUSH1 0x0 JUMPDEST PUSH1 0x18 DUP2 LT ISZERO PUSH3 0x795 JUMPI PUSH1 0x0 DUP3 DUP3 PUSH1 0x18 DUP2 LT PUSH3 0x721 JUMPI INVALID JUMPDEST PUSH1 0x20 MUL ADD MLOAD EQ PUSH3 0x786 JUMPI PUSH1 0xD DUP3 DUP3 PUSH1 0x18 DUP2 LT PUSH3 0x73B JUMPI INVALID JUMPDEST PUSH1 0x20 MUL ADD MLOAD SWAP1 DUP1 PUSH1 0x1 DUP2 PUSH3 0x74F PUSH3 0x960 JUMP JUMPDEST ADD DUP1 DUP3 PUSH3 0x75C PUSH3 0x9C2 JUMP JUMPDEST POP POP PUSH1 0x0 SWAP3 DUP4 MSTORE SWAP2 PUSH1 0x0 NOT DUP4 ADD SWAP2 POP PUSH1 0x20 SWAP1 KECCAK256 SWAP2 SWAP3 SWAP2 ADD PUSH3 0x77D PUSH3 0x9C2 JUMP JUMPDEST POP POP POP PUSH3 0x78C JUMP JUMPDEST PUSH3 0x795 JUMP JUMPDEST PUSH1 0x1 ADD PUSH3 0x708 JUMP JUMPDEST POP DUP2 PUSH1 0xB PUSH2 0x100 DUP2 PUSH3 0x7A7 PUSH3 0x960 JUMP JUMPDEST DUP2 PUSH1 0x1 PUSH1 0x1 PUSH1 0xA0 SHL SUB MUL NOT AND SWAP1 DUP4 PUSH1 0x1 PUSH1 0x1 PUSH1 0xA0 SHL SUB AND MUL OR SWAP1 PUSH3 0x7CB PUSH3 0x9C2 JUMP JUMPDEST POP POP POP POP POP PUSH1 0x1 PUSH1 0x1 PUSH1 0xA0 SHL SUB DUP9 AND PUSH3 0x82B JUMPI PUSH1 0x40 MLOAD PUSH3 0x461BCD PUSH1 0xE5 SHL DUP2 MSTORE PUSH1 0x20 PUSH1 0x4 DUP3 ADD MSTORE PUSH1 0x12 PUSH1 0x24 DUP3 ADD MSTORE PUSH18 0x5F70726F78792063616E6E6F74206265203 PUSH1 0x74 SHL PUSH1 0x44 DUP3 ADD MSTORE PUSH1 0x64 ADD PUSH1 0x40 MLOAD DUP1 SWAP2 SUB SWAP1 PUSH3 0x828 PUSH3 0x8F3 JUMP JUMPDEST POP POP JUMPDEST PUSH1 0x1 PUSH1 0x1 PUSH1 0xA0 SHL SUB DUP5 AND PUSH3 0x886 JUMPI PUSH1 0x40 MLOAD PUSH3 0x461BCD PUSH1 0xE5 SHL DUP2 MSTORE PUSH1 0x20 PUSH1 0x4 DUP3 ADD MSTORE PUSH1 0x12 PUSH1 0x24 DUP3 ADD MSTORE PUSH18 0x5F6F776E65722063616E6E6F74206265203 PUSH1 0x74 SHL PUSH1 0x44 DUP3 ADD MSTORE PUSH1 0x64 ADD PUSH1 0x40 MLOAD DUP1 SWAP2 SUB SWAP1 PUSH3 0x883 PUSH3 0x8F3 JUMP JUMPDEST POP POP JUMPDEST DUP3 DUP1 PUSH1 0xE PUSH3 0x894 PUSH3 0x9C2 JUMP JUMPDEST POP POP POP POP POP POP POP POP POP POP POP PUSH3 0xB13 JUMP JUMPDEST DUP3 PUSH1 0x18 DUP2 ADD SWAP3 DUP3 ISZERO PUSH3 0x8E1 JUMPI SWAP2 PUSH1 0x20 MUL DUP3 ADD JUMPDEST DUP3 DUP2 GT ISZERO PUSH3 0x8E1 JUMPI DUP3 MLOAD DUP3 PUSH3 0x8CF PUSH3 0x9C2 JUMP JUMPDEST POP POP SWAP2 PUSH1 0x20 ADD SWAP2 SWAP1 PUSH1 0x1 ADD SWAP1 PUSH3 0x8B9 JUMP JUMPDEST POP PUSH3 0x8EF SWAP3 SWAP2 POP PUSH3 0xABC JUMP JUMPDEST POP SWAP1 JUMP JUMPDEST PUSH4 0x2A2A7ADB MSIZE DUP2 PUSH1 0xE0 SHL DUP2 MSTORE PUSH1 0x4 DUP2 ADD PUSH1 0x20 DUP2 MSTORE DUP6 PUSH1 0x20 DUP3 ADD MSTORE PUSH1 0x0 JUMPDEST DUP7 DUP2 LT ISZERO PUSH3 0x92D JUMPI DUP1 DUP7 ADD MLOAD DUP3 DUP3 ADD PUSH1 0x40 ADD MSTORE PUSH1 0x20 ADD PUSH3 0x910 JUMP JUMPDEST POP PUSH1 0x20 DUP3 DUP8 PUSH1 0x64 ADD DUP5 CALLER PUSH1 0x0 SWAP1 GAS CALL PC PUSH1 0xE ADD JUMPI RETURNDATASIZE PUSH1 0x0 DUP1 RETURNDATACOPY RETURNDATASIZE PUSH1 0x0 REVERT JUMPDEST RETURNDATASIZE PUSH1 0x1 EQ ISZERO PC PUSH1 0xA ADD JUMPI PUSH1 0x1 PUSH1 0x0 RETURN JUMPDEST POP POP POP JUMP JUMPDEST PUSH4 0x3DAA959 MSIZE DUP2 PUSH1 0xE0 SHL DUP2 MSTORE DUP4 PUSH1 0x4 DUP3 ADD MSTORE PUSH1 0x20 DUP2 PUSH1 0x24 DUP4 CALLER PUSH1 0x0 SWAP1 GAS CALL PC PUSH1 0xE ADD JUMPI RETURNDATASIZE PUSH1 0x0 DUP1 RETURNDATACOPY RETURNDATASIZE PUSH1 0x0 REVERT JUMPDEST RETURNDATASIZE PUSH1 0x1 EQ ISZERO PC PUSH1 0xA ADD JUMPI PUSH1 0x1 PUSH1 0x0 RETURN JUMPDEST DUP1 MLOAD SWAP4 POP PUSH1 0x0 JUMPDEST PUSH1 0x40 DUP2 LT ISZERO PUSH3 0x9BD JUMPI PUSH1 0x0 DUP3 DUP3 ADD MSTORE PUSH1 0x20 ADD PUSH3 0x9A4 JUMP JUMPDEST POP POP POP JUMP JUMPDEST PUSH4 0x22BD64C0 MSIZE DUP2 PUSH1 0xE0 SHL DUP2 MSTORE DUP4 PUSH1 0x4 DUP3 ADD MSTORE DUP5 PUSH1 0x24 DUP3 ADD MSTORE PUSH1 0x0 DUP2 PUSH1 0x44 DUP4 CALLER PUSH1 0x0 SWAP1 GAS CALL PC PUSH1 0xE ADD JUMPI RETURNDATASIZE PUSH1 0x0 DUP1 RETURNDATACOPY RETURNDATASIZE PUSH1 0x0 REVERT JUMPDEST RETURNDATASIZE PUSH1 0x1 EQ ISZERO PC PUSH1 0xA ADD JUMPI PUSH1 0x1 PUSH1 0x0 RETURN JUMPDEST PUSH1 0x0 DUP2 MSTORE PUSH1 0x20 PUSH3 0x9A4 JUMP JUMPDEST DUP3 DUP1 PUSH3 0xA1D PUSH3 0x960 JUMP JUMPDEST PUSH1 0x1 DUP2 PUSH1 0x1 AND ISZERO PUSH2 0x100 MUL SUB AND PUSH1 0x2 SWAP1 DIV SWAP1 PUSH1 0x0 MSTORE PUSH1 0x20 PUSH1 0x0 KECCAK256 SWAP1 PUSH1 0x1F ADD PUSH1 0x20 SWAP1 DIV DUP2 ADD SWAP3 DUP3 PUSH1 0x1F LT PUSH3 0xA68 JUMPI DUP1 MLOAD PUSH1 0xFF NOT AND DUP4 DUP1 ADD OR DUP6 PUSH3 0xA60 PUSH3 0x9C2 JUMP JUMPDEST POP POP PUSH3 0xAAE JUMP JUMPDEST DUP3 DUP1 ADD PUSH1 0x1 ADD DUP6 PUSH3 0xA79 PUSH3 0x9C2 JUMP JUMPDEST POP POP DUP3 ISZERO PUSH3 0xAAE JUMPI SWAP2 DUP3 ADD JUMPDEST DUP3 DUP2 GT ISZERO PUSH3 0xAAE JUMPI DUP3 MLOAD DUP3 PUSH3 0xA9C PUSH3 0x9C2 JUMP JUMPDEST POP POP SWAP2 PUSH1 0x20 ADD SWAP2 SWAP1 PUSH1 0x1 ADD SWAP1 PUSH3 0xA86 JUMP JUMPDEST POP PUSH3 0x8EF SWAP3 SWAP2 POP PUSH3 0xAE9 JUMP JUMPDEST PUSH3 0xAE6 SWAP2 SWAP1 JUMPDEST DUP1 DUP3 GT ISZERO PUSH3 0x8EF JUMPI PUSH1 0x0 DUP1 DUP3 PUSH3 0xADA PUSH3 0x9C2 JUMP JUMPDEST POP POP POP PUSH1 0x1 ADD PUSH3 0xAC3 JUMP JUMPDEST SWAP1 JUMP JUMPDEST PUSH3 0xAE6 SWAP2 SWAP1 JUMPDEST DUP1 DUP3 GT ISZERO PUSH3 0x8EF JUMPI PUSH1 0x0 DUP1 DUP3 PUSH3 0xB07 PUSH3 0x9C2 JUMP JUMPDEST POP POP POP PUSH1 0x1 ADD PUSH3 0xAF0 JUMP JUMPDEST PUSH2 0x3DD6 DUP1 PUSH3 0xB23 PUSH1 0x0 CODECOPY PUSH1 0x0 RETURN INVALID PUSH1 0x80 PUSH1 0x40 MSTORE CALLVALUE DUP1 ISZERO PUSH2 0x19 JUMPI PUSH1 0x0 DUP1 PUSH2 0x16 PUSH2 0x392D JUMP JUMPDEST POP POP JUMPDEST POP PUSH1 0x4 CALLDATASIZE LT PUSH2 0x27D JUMPI PUSH1 0x0 CALLDATALOAD PUSH1 0xE0 SHR DUP1 PUSH4 0x9CBDAEB6 GT PUSH2 0x15A JUMPI DUP1 PUSH4 0xC6C9D828 GT PUSH2 0xCC JUMPI DUP1 PUSH4 0xE73CCED3 GT PUSH2 0x90 JUMPI DUP1 PUSH4 0xE73CCED3 EQ PUSH2 0x789 JUMPI DUP1 PUSH4 0xE90DD9E2 EQ PUSH2 0x7C8 JUMPI DUP1 PUSH4 0xEB1EDD61 EQ PUSH2 0x7D0 JUMPI DUP1 PUSH4 0xEC556889 EQ PUSH2 0x7D8 JUMPI DUP1 PUSH4 0xF7EA7A3D EQ PUSH2 0x7E0 JUMPI DUP1 PUSH4 0xFFFF51D6 EQ PUSH2 0x806 JUMPI PUSH2 0x27D JUMP JUMPDEST DUP1 PUSH4 0xC6C9D828 EQ PUSH2 0x714 JUMPI DUP1 PUSH4 0xD67BDD25 EQ PUSH2 0x73A JUMPI DUP1 PUSH4 0xDBD06C85 EQ PUSH2 0x742 JUMPI DUP1 PUSH4 0xDD62ED3E EQ PUSH2 0x74A JUMPI DUP1 PUSH4 0xE3235C91 EQ PUSH2 0x781 JUMPI PUSH2 0x27D JUMP JUMPDEST DUP1 PUSH4 0xAB49848C GT PUSH2 0x11E JUMPI DUP1 PUSH4 0xAB49848C EQ PUSH2 0x657 JUMPI DUP1 PUSH4 0xB014C3A3 EQ PUSH2 0x698 JUMPI DUP1 PUSH4 0xB8225DEC EQ PUSH2 0x6CD JUMPI DUP1 PUSH4 0xBC67F832 EQ PUSH2 0x6D5 JUMPI DUP1 PUSH4 0xBD32AA44 EQ PUSH2 0x704 JUMPI DUP1 PUSH4 0xC58AAAE6 EQ PUSH2 0x70C JUMPI PUSH2 0x27D JUMP JUMPDEST DUP1 PUSH4 0x9CBDAEB6 EQ PUSH2 0x5AE JUMPI DUP1 PUSH4 0x9DC29FAC EQ PUSH2 0x5B6 JUMPI DUP1 PUSH4 0x9F769807 EQ PUSH2 0x5EB JUMPI DUP1 PUSH4 0xA461FC82 EQ PUSH2 0x61A JUMPI DUP1 PUSH4 0xA9059CBB EQ PUSH2 0x622 JUMPI PUSH2 0x27D JUMP JUMPDEST DUP1 PUSH4 0x3278C960 GT PUSH2 0x1F3 JUMPI DUP1 PUSH4 0x79BA5097 GT PUSH2 0x1B7 JUMPI DUP1 PUSH4 0x79BA5097 EQ PUSH2 0x52A JUMPI DUP1 PUSH4 0x867904B4 EQ PUSH2 0x532 JUMPI DUP1 PUSH4 0x8DA5CB5B EQ PUSH2 0x567 JUMPI DUP1 PUSH4 0x95D89B41 EQ PUSH2 0x56F JUMPI DUP1 PUSH4 0x97107D6D EQ PUSH2 0x577 JUMPI DUP1 PUSH4 0x9CB8A26A EQ PUSH2 0x5A6 JUMPI PUSH2 0x27D JUMP JUMPDEST DUP1 PUSH4 0x3278C960 EQ PUSH2 0x48D JUMPI DUP1 PUSH4 0x3BE99E6F EQ PUSH2 0x495 JUMPI DUP1 PUSH4 0x53A47BB7 EQ PUSH2 0x4C4 JUMPI DUP1 PUSH4 0x631E1444 EQ PUSH2 0x4CC JUMPI DUP1 PUSH4 0x70A08231 EQ PUSH2 0x4FB JUMPI PUSH2 0x27D JUMP JUMPDEST DUP1 PUSH4 0x17C70DE4 GT PUSH2 0x245 JUMPI DUP1 PUSH4 0x17C70DE4 EQ PUSH2 0x3D7 JUMPI DUP1 PUSH4 0x18160DDD EQ PUSH2 0x3F1 JUMPI DUP1 PUSH4 0x20714F88 EQ PUSH2 0x3F9 JUMPI DUP1 PUSH4 0x23B872DD EQ PUSH2 0x428 JUMPI DUP1 PUSH4 0x2E0F2625 EQ PUSH2 0x467 JUMPI DUP1 PUSH4 0x313CE567 EQ PUSH2 0x485 JUMPI PUSH2 0x27D JUMP JUMPDEST DUP1 PUSH4 0x4F3BCEC EQ PUSH2 0x28B JUMPI DUP1 PUSH4 0x6FDDE03 EQ PUSH2 0x2AF JUMPI DUP1 PUSH4 0x95EA7B3 EQ PUSH2 0x32E JUMPI DUP1 PUSH4 0x131B0AE7 EQ PUSH2 0x377 JUMPI DUP1 PUSH4 0x1627540C EQ PUSH2 0x3A8 JUMPI JUMPDEST PUSH1 0x0 DUP1 PUSH2 0x288 PUSH2 0x392D JUMP JUMPDEST POP POP JUMPDEST PUSH2 0x293 PUSH2 0x835 JUMP JUMPDEST PUSH1 0x40 MLOAD PUSH1 0x1 PUSH1 0x1 PUSH1 0xA0 SHL SUB SWAP1 SWAP2 AND DUP2 MSTORE PUSH1 0x20 ADD PUSH1 0x40 MLOAD DUP1 SWAP2 SUB SWAP1 RETURN JUMPDEST PUSH2 0x2B7 PUSH2 0x854 JUMP JUMPDEST PUSH1 0x40 MLOAD PUSH1 0x20 DUP1 DUP3 MSTORE DUP2 SWAP1 DUP2 ADD DUP4 DUP2 DUP2 MLOAD DUP2 MSTORE PUSH1 0x20 ADD SWAP2 POP DUP1 MLOAD SWAP1 PUSH1 0x20 ADD SWAP1 DUP1 DUP4 DUP4 PUSH1 0x0 JUMPDEST DUP4 DUP2 LT ISZERO PUSH2 0x2F3 JUMPI DUP1 DUP3 ADD MLOAD DUP4 DUP3 ADD MSTORE PUSH1 0x20 ADD PUSH2 0x2DB JUMP JUMPDEST POP POP POP POP SWAP1 POP SWAP1 DUP2 ADD SWAP1 PUSH1 0x1F AND DUP1 ISZERO PUSH2 0x320 JUMPI DUP1 DUP3 SUB DUP1 MLOAD PUSH1 0x1 DUP4 PUSH1 0x20 SUB PUSH2 0x100 EXP SUB NOT AND DUP2 MSTORE PUSH1 0x20 ADD SWAP2 POP JUMPDEST POP SWAP3 POP POP POP PUSH1 0x40 MLOAD DUP1 SWAP2 SUB SWAP1 RETURN JUMPDEST PUSH2 0x363 PUSH1 0x4 DUP1 CALLDATASIZE SUB PUSH1 0x40 DUP2 LT ISZERO PUSH2 0x34D JUMPI PUSH1 0x0 DUP1 PUSH2 0x34A PUSH2 0x392D JUMP JUMPDEST POP POP JUMPDEST POP PUSH1 0x1 PUSH1 0x1 PUSH1 0xA0 SHL SUB DUP2 CALLDATALOAD AND SWAP1 PUSH1 0x20 ADD CALLDATALOAD PUSH2 0x90D JUMP JUMPDEST PUSH1 0x40 MLOAD SWAP1 ISZERO ISZERO DUP2 MSTORE PUSH1 0x20 ADD PUSH1 0x40 MLOAD DUP1 SWAP2 SUB SWAP1 RETURN JUMPDEST PUSH2 0x3A6 PUSH1 0x4 DUP1 CALLDATASIZE SUB PUSH1 0x20 DUP2 LT ISZERO PUSH2 0x396 JUMPI PUSH1 0x0 DUP1 PUSH2 0x393 PUSH2 0x392D JUMP JUMPDEST POP POP JUMPDEST POP CALLDATALOAD PUSH1 0x1 PUSH1 0x1 PUSH1 0xA0 SHL SUB AND PUSH2 0xA0B JUMP JUMPDEST STOP JUMPDEST PUSH2 0x3A6 PUSH1 0x4 DUP1 CALLDATASIZE SUB PUSH1 0x20 DUP2 LT ISZERO PUSH2 0x3C7 JUMPI PUSH1 0x0 DUP1 PUSH2 0x3C4 PUSH2 0x392D JUMP JUMPDEST POP POP JUMPDEST POP CALLDATALOAD PUSH1 0x1 PUSH1 0x1 PUSH1 0xA0 SHL SUB AND PUSH2 0xA49 JUMP JUMPDEST PUSH2 0x3DF PUSH2 0xAC3 JUMP JUMPDEST PUSH1 0x40 MLOAD SWAP1 DUP2 MSTORE PUSH1 0x20 ADD PUSH1 0x40 MLOAD DUP1 SWAP2 SUB SWAP1 RETURN JUMPDEST PUSH2 0x3DF PUSH2 0xAD0 JUMP JUMPDEST PUSH2 0x3A6 PUSH1 0x4 DUP1 CALLDATASIZE SUB PUSH1 0x20 DUP2 LT ISZERO PUSH2 0x418 JUMPI PUSH1 0x0 DUP1 PUSH2 0x415 PUSH2 0x392D JUMP JUMPDEST POP POP JUMPDEST POP CALLDATALOAD PUSH1 0x1 PUSH1 0x1 PUSH1 0xA0 SHL SUB AND PUSH2 0xADA JUMP JUMPDEST PUSH2 0x363 PUSH1 0x4 DUP1 CALLDATASIZE SUB PUSH1 0x60 DUP2 LT ISZERO PUSH2 0x447 JUMPI PUSH1 0x0 DUP1 PUSH2 0x444 PUSH2 0x392D JUMP JUMPDEST POP POP JUMPDEST POP PUSH1 0x1 PUSH1 0x1 PUSH1 0xA0 SHL SUB DUP2 CALLDATALOAD DUP2 AND SWAP2 PUSH1 0x20 DUP2 ADD CALLDATALOAD SWAP1 SWAP2 AND SWAP1 PUSH1 0x40 ADD CALLDATALOAD PUSH2 0xBB9 JUMP JUMPDEST PUSH2 0x46F PUSH2 0xBE0 JUMP JUMPDEST PUSH1 0x40 MLOAD PUSH1 0xFF SWAP1 SWAP2 AND DUP2 MSTORE PUSH1 0x20 ADD PUSH1 0x40 MLOAD DUP1 SWAP2 SUB SWAP1 RETURN JUMPDEST PUSH2 0x46F PUSH2 0xBE5 JUMP JUMPDEST PUSH2 0x3A6 PUSH2 0xBFE JUMP JUMPDEST PUSH2 0x3A6 PUSH1 0x4 DUP1 CALLDATASIZE SUB PUSH1 0x20 DUP2 LT ISZERO PUSH2 0x4B4 JUMPI PUSH1 0x0 DUP1 PUSH2 0x4B1 PUSH2 0x392D JUMP JUMPDEST POP POP JUMPDEST POP CALLDATALOAD PUSH1 0x1 PUSH1 0x1 PUSH1 0xA0 SHL SUB AND PUSH2 0xC6F JUMP JUMPDEST PUSH2 0x293 PUSH2 0xE3A JUMP JUMPDEST PUSH2 0x363 PUSH1 0x4 DUP1 CALLDATASIZE SUB PUSH1 0x20 DUP2 LT ISZERO PUSH2 0x4EB JUMPI PUSH1 0x0 DUP1 PUSH2 0x4E8 PUSH2 0x392D JUMP JUMPDEST POP POP JUMPDEST POP CALLDATALOAD PUSH1 0x1 PUSH1 0x1 PUSH1 0xA0 SHL SUB AND PUSH2 0xE46 JUMP JUMPDEST PUSH2 0x3DF PUSH1 0x4 DUP1 CALLDATASIZE SUB PUSH1 0x20 DUP2 LT ISZERO PUSH2 0x51A JUMPI PUSH1 0x0 DUP1 PUSH2 0x517 PUSH2 0x392D JUMP JUMPDEST POP POP JUMPDEST POP CALLDATALOAD PUSH1 0x1 PUSH1 0x1 PUSH1 0xA0 SHL SUB AND PUSH2 0x1023 JUMP JUMPDEST PUSH2 0x3A6 PUSH2 0x10F5 JUMP JUMPDEST PUSH2 0x3A6 PUSH1 0x4 DUP1 CALLDATASIZE SUB PUSH1 0x40 DUP2 LT ISZERO PUSH2 0x551 JUMPI PUSH1 0x0 DUP1 PUSH2 0x54E PUSH2 0x392D JUMP JUMPDEST POP POP JUMPDEST POP PUSH1 0x1 PUSH1 0x1 PUSH1 0xA0 SHL SUB DUP2 CALLDATALOAD AND SWAP1 PUSH1 0x20 ADD CALLDATALOAD PUSH2 0x1278 JUMP JUMPDEST PUSH2 0x293 PUSH2 0x1356 JUMP JUMPDEST PUSH2 0x2B7 PUSH2 0x1361 JUMP JUMPDEST PUSH2 0x3A6 PUSH1 0x4 DUP1 CALLDATASIZE SUB PUSH1 0x20 DUP2 LT ISZERO PUSH2 0x596 JUMPI PUSH1 0x0 DUP1 PUSH2 0x593 PUSH2 0x392D JUMP JUMPDEST POP POP JUMPDEST POP CALLDATALOAD PUSH1 0x1 PUSH1 0x1 PUSH1 0xA0 SHL SUB AND PUSH2 0x1403 JUMP JUMPDEST PUSH2 0x3A6 PUSH2 0x147E JUMP JUMPDEST PUSH2 0x293 PUSH2 0x15C1 JUMP JUMPDEST PUSH2 0x3A6 PUSH1 0x4 DUP1 CALLDATASIZE SUB PUSH1 0x40 DUP2 LT ISZERO PUSH2 0x5D5 JUMPI PUSH1 0x0 DUP1 PUSH2 0x5D2 PUSH2 0x392D JUMP JUMPDEST POP POP JUMPDEST POP PUSH1 0x1 PUSH1 0x1 PUSH1 0xA0 SHL SUB DUP2 CALLDATALOAD AND SWAP1 PUSH1 0x20 ADD CALLDATALOAD PUSH2 0x15CD JUMP JUMPDEST PUSH2 0x3A6 PUSH1 0x4 DUP1 CALLDATASIZE SUB PUSH1 0x20 DUP2 LT ISZERO PUSH2 0x60A JUMPI PUSH1 0x0 DUP1 PUSH2 0x607 PUSH2 0x392D JUMP JUMPDEST POP POP JUMPDEST POP CALLDATALOAD PUSH1 0x1 PUSH1 0x1 PUSH1 0xA0 SHL SUB AND PUSH2 0x16AC JUMP JUMPDEST PUSH2 0x3DF PUSH2 0x16F3 JUMP JUMPDEST PUSH2 0x363 PUSH1 0x4 DUP1 CALLDATASIZE SUB PUSH1 0x40 DUP2 LT ISZERO PUSH2 0x641 JUMPI PUSH1 0x0 DUP1 PUSH2 0x63E PUSH2 0x392D JUMP JUMPDEST POP POP JUMPDEST POP PUSH1 0x1 PUSH1 0x1 PUSH1 0xA0 SHL SUB DUP2 CALLDATALOAD AND SWAP1 PUSH1 0x20 ADD CALLDATALOAD PUSH2 0x16FA JUMP JUMPDEST PUSH2 0x65F PUSH2 0x17BF JUMP JUMPDEST PUSH1 0x40 MLOAD DUP1 DUP3 PUSH2 0x300 DUP1 DUP4 DUP4 PUSH1 0x0 JUMPDEST DUP4 DUP2 LT ISZERO PUSH2 0x685 JUMPI DUP1 DUP3 ADD MLOAD DUP4 DUP3 ADD MSTORE PUSH1 0x20 ADD PUSH2 0x66D JUMP JUMPDEST POP POP POP POP SWAP1 POP ADD SWAP2 POP POP PUSH1 0x40 MLOAD DUP1 SWAP2 SUB SWAP1 RETURN JUMPDEST PUSH2 0x363 PUSH1 0x4 DUP1 CALLDATASIZE SUB PUSH1 0x40 DUP2 LT ISZERO PUSH2 0x6B7 JUMPI PUSH1 0x0 DUP1 PUSH2 0x6B4 PUSH2 0x392D JUMP JUMPDEST POP POP JUMPDEST POP PUSH1 0x1 PUSH1 0x1 PUSH1 0xA0 SHL SUB DUP2 CALLDATALOAD AND SWAP1 PUSH1 0x20 ADD CALLDATALOAD PUSH2 0x1821 JUMP JUMPDEST PUSH2 0x363 PUSH2 0x1A51 JUMP JUMPDEST PUSH2 0x3A6 PUSH1 0x4 DUP1 CALLDATASIZE SUB PUSH1 0x20 DUP2 LT ISZERO PUSH2 0x6F4 JUMPI PUSH1 0x0 DUP1 PUSH2 0x6F1 PUSH2 0x392D JUMP JUMPDEST POP POP JUMPDEST POP CALLDATALOAD PUSH1 0x1 PUSH1 0x1 PUSH1 0xA0 SHL SUB AND PUSH2 0x1A5D JUMP JUMPDEST PUSH2 0x3A6 PUSH2 0x1A73 JUMP JUMPDEST PUSH2 0x293 PUSH2 0x1AF5 JUMP JUMPDEST PUSH2 0x3DF PUSH1 0x4 DUP1 CALLDATASIZE SUB PUSH1 0x20 DUP2 LT ISZERO PUSH2 0x733 JUMPI PUSH1 0x0 DUP1 PUSH2 0x730 PUSH2 0x392D JUMP JUMPDEST POP POP JUMPDEST POP CALLDATALOAD PUSH2 0x1B01 JUMP JUMPDEST PUSH2 0x293 PUSH2 0x1B29 JUMP JUMPDEST PUSH2 0x3DF PUSH2 0x1B35 JUMP JUMPDEST PUSH2 0x3DF PUSH1 0x4 DUP1 CALLDATASIZE SUB PUSH1 0x40 DUP2 LT ISZERO PUSH2 0x769 JUMPI PUSH1 0x0 DUP1 PUSH2 0x766 PUSH2 0x392D JUMP JUMPDEST POP POP JUMPDEST POP PUSH1 0x1 PUSH1 0x1 PUSH1 0xA0 SHL SUB DUP2 CALLDATALOAD DUP2 AND SWAP2 PUSH1 0x20 ADD CALLDATALOAD AND PUSH2 0x1B3F JUMP JUMPDEST PUSH2 0x3DF PUSH2 0x1C1A JUMP JUMPDEST PUSH2 0x363 PUSH1 0x4 DUP1 CALLDATASIZE SUB PUSH1 0x60 DUP2 LT ISZERO PUSH2 0x7A8 JUMPI PUSH1 0x0 DUP1 PUSH2 0x7A5 PUSH2 0x392D JUMP JUMPDEST POP POP JUMPDEST POP PUSH1 0x1 PUSH1 0x1 PUSH1 0xA0 SHL SUB DUP2 CALLDATALOAD DUP2 AND SWAP2 PUSH1 0x20 DUP2 ADD CALLDATALOAD SWAP1 SWAP2 AND SWAP1 PUSH1 0x40 ADD CALLDATALOAD PUSH2 0x1C1F JUMP JUMPDEST PUSH2 0x293 PUSH2 0x1E07 JUMP JUMPDEST PUSH2 0x293 PUSH2 0x1E13 JUMP JUMPDEST PUSH2 0x293 PUSH2 0x1E2B JUMP JUMPDEST PUSH2 0x3A6 PUSH1 0x4 DUP1 CALLDATASIZE SUB PUSH1 0x20 DUP2 LT ISZERO PUSH2 0x7FF JUMPI PUSH1 0x0 DUP1 PUSH2 0x7FC PUSH2 0x392D JUMP JUMPDEST POP POP JUMPDEST POP CALLDATALOAD PUSH2 0x1E37 JUMP JUMPDEST PUSH2 0x3DF PUSH1 0x4 DUP1 CALLDATASIZE SUB PUSH1 0x20 DUP2 LT ISZERO PUSH2 0x825 JUMPI PUSH1 0x0 DUP1 PUSH2 0x822 PUSH2 0x392D JUMP JUMPDEST POP POP JUMPDEST POP CALLDATALOAD PUSH1 0x1 PUSH1 0x1 PUSH1 0xA0 SHL SUB AND PUSH2 0x1E4B JUMP JUMPDEST PUSH1 0x1 PUSH1 0xB PUSH2 0x841 PUSH2 0x3998 JUMP JUMPDEST SWAP1 PUSH2 0x100 EXP SWAP1 DIV PUSH1 0x1 PUSH1 0x1 PUSH1 0xA0 SHL SUB AND DUP2 JUMP JUMPDEST PUSH1 0x8 DUP1 PUSH2 0x85F PUSH2 0x3998 JUMP JUMPDEST PUSH1 0x1 DUP2 PUSH1 0x1 AND ISZERO PUSH2 0x100 MUL SUB AND PUSH1 0x2 SWAP1 DIV DUP1 PUSH1 0x1F ADD PUSH1 0x20 DUP1 SWAP2 DIV MUL PUSH1 0x20 ADD PUSH1 0x40 MLOAD SWAP1 DUP2 ADD PUSH1 0x40 MSTORE DUP2 DUP2 MSTORE SWAP2 SWAP1 PUSH1 0x20 DUP4 ADD DUP3 DUP1 PUSH2 0x899 PUSH2 0x3998 JUMP JUMPDEST PUSH1 0x1 DUP2 PUSH1 0x1 AND ISZERO PUSH2 0x100 MUL SUB AND PUSH1 0x2 SWAP1 DIV DUP1 ISZERO PUSH2 0x905 JUMPI DUP1 PUSH1 0x1F LT PUSH2 0x8D3 JUMPI PUSH2 0x100 DUP1 DUP4 PUSH2 0x8C5 PUSH2 0x3998 JUMP JUMPDEST DIV MUL DUP4 MSTORE SWAP2 PUSH1 0x20 ADD SWAP2 PUSH2 0x905 JUMP JUMPDEST DUP3 ADD SWAP2 SWAP1 PUSH1 0x0 MSTORE PUSH1 0x20 PUSH1 0x0 KECCAK256 SWAP1 JUMPDEST DUP2 PUSH2 0x8EA PUSH2 0x3998 JUMP JUMPDEST DUP2 MSTORE SWAP1 PUSH1 0x1 ADD SWAP1 PUSH1 0x20 ADD DUP1 DUP4 GT PUSH2 0x8E1 JUMPI DUP3 SWAP1 SUB PUSH1 0x1F AND DUP3 ADD SWAP2 JUMPDEST POP POP POP POP POP DUP2 JUMP JUMPDEST PUSH1 0x0 PUSH2 0x917 PUSH2 0x2027 JUMP JUMPDEST PUSH1 0x0 DUP1 PUSH1 0x6 PUSH2 0x924 PUSH2 0x3998 JUMP JUMPDEST SWAP1 PUSH2 0x100 EXP SWAP1 DIV PUSH1 0x1 PUSH1 0x1 PUSH1 0xA0 SHL SUB AND SWAP1 POP PUSH1 0x7 PUSH1 0x0 SWAP1 PUSH2 0x943 PUSH2 0x3998 JUMP JUMPDEST SWAP1 PUSH2 0x100 EXP SWAP1 DIV PUSH1 0x1 PUSH1 0x1 PUSH1 0xA0 SHL SUB AND PUSH1 0x1 PUSH1 0x1 PUSH1 0xA0 SHL SUB AND PUSH4 0xDA46098C DUP3 DUP7 DUP7 PUSH1 0x40 MLOAD PUSH1 0x1 PUSH1 0x1 PUSH1 0xE0 SHL SUB NOT PUSH1 0xE0 DUP7 SWAP1 SHL AND DUP2 MSTORE PUSH1 0x1 PUSH1 0x1 PUSH1 0xA0 SHL SUB SWAP4 DUP5 AND PUSH1 0x4 DUP3 ADD MSTORE SWAP2 SWAP1 SWAP3 AND PUSH1 0x24 DUP3 ADD MSTORE PUSH1 0x44 DUP2 ADD SWAP2 SWAP1 SWAP2 MSTORE PUSH1 0x64 ADD PUSH1 0x0 PUSH1 0x40 MLOAD DUP1 DUP4 SUB DUP2 PUSH1 0x0 DUP8 DUP1 PUSH2 0x9B1 PUSH2 0x39F3 JUMP JUMPDEST ISZERO DUP1 ISZERO PUSH2 0x9C6 JUMPI PUSH1 0x0 DUP1 PUSH2 0x9C3 PUSH2 0x392D JUMP JUMPDEST POP POP JUMPDEST POP GAS PUSH2 0x9D0 PUSH2 0x3A3F JUMP JUMPDEST POP POP POP POP POP POP ISZERO DUP1 ISZERO PUSH2 0x9F0 JUMPI RETURNDATASIZE PUSH1 0x0 DUP1 RETURNDATACOPY RETURNDATASIZE PUSH1 0x0 PUSH2 0x9ED PUSH2 0x392D JUMP JUMPDEST POP POP JUMPDEST POP POP POP POP PUSH2 0x9FF DUP2 DUP6 DUP6 PUSH2 0x20FF JUMP JUMPDEST PUSH1 0x1 SWAP2 POP POP JUMPDEST SWAP3 SWAP2 POP POP JUMP JUMPDEST PUSH2 0xA13 PUSH2 0x2278 JUMP JUMPDEST DUP1 PUSH1 0x5 PUSH1 0x1 DUP2 PUSH2 0xA21 PUSH2 0x3998 JUMP JUMPDEST DUP2 PUSH1 0x1 PUSH1 0x1 PUSH1 0xA0 SHL SUB MUL NOT AND SWAP1 DUP4 PUSH1 0x1 PUSH1 0x1 PUSH1 0xA0 SHL SUB AND MUL OR SWAP1 PUSH2 0xA43 PUSH2 0x3AF8 JUMP JUMPDEST POP POP POP POP JUMP JUMPDEST PUSH2 0xA51 PUSH2 0x2278 JUMP JUMPDEST DUP1 PUSH1 0x1 DUP1 DUP1 PUSH2 0xA5E PUSH2 0x3998 JUMP JUMPDEST DUP2 PUSH1 0x1 PUSH1 0x1 PUSH1 0xA0 SHL SUB MUL NOT AND SWAP1 DUP4 PUSH1 0x1 PUSH1 0x1 PUSH1 0xA0 SHL SUB AND MUL OR SWAP1 PUSH2 0xA80 PUSH2 0x3AF8 JUMP JUMPDEST POP POP POP PUSH32 0x906A1C6BD7E3091EA86693DD029A831C19049CE77F1DCE2CE0BAB1CACBABCE22 DUP2 PUSH1 0x40 MLOAD PUSH1 0x1 PUSH1 0x1 PUSH1 0xA0 SHL SUB SWAP1 SWAP2 AND DUP2 MSTORE PUSH1 0x20 ADD PUSH1 0x40 MLOAD DUP1 SWAP2 SUB SWAP1 LOG1 POP JUMP JUMPDEST PUSH1 0x2 PUSH2 0xACD PUSH2 0x3998 JUMP JUMPDEST DUP2 JUMP JUMPDEST PUSH1 0xA PUSH2 0xACD PUSH2 0x3998 JUMP JUMPDEST PUSH2 0xAE2 PUSH2 0x2278 JUMP JUMPDEST PUSH1 0x1 PUSH1 0x1 PUSH1 0xA0 SHL SUB DUP2 AND PUSH2 0xB45 JUMPI PUSH1 0x40 MLOAD PUSH3 0x461BCD PUSH1 0xE5 SHL DUP2 MSTORE PUSH1 0x20 PUSH1 0x4 DUP3 ADD MSTORE PUSH1 0x1C PUSH1 0x24 DUP3 ADD MSTORE PUSH32 0x42656E6566696369617279206D757374206E6F74206265207A65726F00000000 PUSH1 0x44 DUP3 ADD MSTORE PUSH1 0x64 ADD PUSH1 0x40 MLOAD DUP1 SWAP2 SUB SWAP1 PUSH2 0xB42 PUSH2 0x392D JUMP JUMPDEST POP POP JUMPDEST DUP1 PUSH1 0x3 PUSH2 0x100 DUP2 PUSH2 0xB54 PUSH2 0x3998 JUMP JUMPDEST DUP2 PUSH1 0x1 PUSH1 0x1 PUSH1 0xA0 SHL SUB MUL NOT AND SWAP1 DUP4 PUSH1 0x1 PUSH1 0x1 PUSH1 0xA0 SHL SUB AND MUL OR SWAP1 PUSH2 0xB76 PUSH2 0x3AF8 JUMP JUMPDEST POP POP POP PUSH32 0xD5DA63A0B864B315BC04128DEDBC93888C8529EE6CF47CE664DC204339228C53 DUP2 PUSH1 0x40 MLOAD PUSH1 0x1 PUSH1 0x1 PUSH1 0xA0 SHL SUB SWAP1 SWAP2 AND DUP2 MSTORE PUSH1 0x20 ADD PUSH1 0x40 MLOAD DUP1 SWAP2 SUB SWAP1 LOG1 POP JUMP JUMPDEST PUSH1 0x0 PUSH2 0xBC3 PUSH2 0x2027 JUMP JUMPDEST PUSH2 0xBCD DUP5 DUP4 PUSH2 0x22F0 JUMP JUMPDEST PUSH2 0xBD8 DUP5 DUP5 DUP5 PUSH2 0x24E4 JUMP JUMPDEST SWAP5 SWAP4 POP POP POP POP JUMP JUMPDEST PUSH1 0x12 DUP2 JUMP JUMPDEST PUSH1 0x0 PUSH1 0xB PUSH2 0xBF1 PUSH2 0x3998 JUMP JUMPDEST SWAP1 PUSH2 0x100 EXP SWAP1 DIV PUSH1 0xFF AND DUP2 JUMP JUMPDEST PUSH2 0xC06 PUSH2 0x2278 JUMP JUMPDEST PUSH1 0x0 DUP1 PUSH1 0x2 PUSH2 0xC13 PUSH2 0x3AF8 JUMP JUMPDEST POP POP POP PUSH1 0x0 PUSH1 0x3 PUSH1 0x0 PUSH2 0x100 EXP DUP2 PUSH2 0xC29 PUSH2 0x3998 JUMP JUMPDEST DUP2 PUSH1 0xFF MUL NOT AND SWAP1 DUP4 ISZERO ISZERO MUL OR SWAP1 PUSH2 0xC3E PUSH2 0x3AF8 JUMP JUMPDEST POP POP POP PUSH32 0x6ADCC7125002935E0AA31697538EBBD65CFDDF20431EB6ECDCFC3E238BFD082C PUSH1 0x40 MLOAD PUSH1 0x40 MLOAD DUP1 SWAP2 SUB SWAP1 LOG1 JUMP JUMPDEST PUSH2 0xC77 PUSH2 0x2278 JUMP JUMPDEST DUP1 PUSH1 0xB PUSH2 0x100 DUP2 PUSH2 0xC86 PUSH2 0x3998 JUMP JUMPDEST DUP2 PUSH1 0x1 PUSH1 0x1 PUSH1 0xA0 SHL SUB MUL NOT AND SWAP1 DUP4 PUSH1 0x1 PUSH1 0x1 PUSH1 0xA0 SHL SUB AND MUL OR SWAP1 PUSH2 0xCA8 PUSH2 0x3AF8 JUMP JUMPDEST POP PUSH1 0x0 SWAP2 POP POP JUMPDEST PUSH1 0xD DUP1 PUSH2 0xCBA PUSH2 0x3998 JUMP JUMPDEST SWAP1 POP DUP2 LT ISZERO PUSH2 0xE36 JUMPI PUSH1 0x0 PUSH1 0xD DUP3 DUP2 PUSH2 0xCD1 PUSH2 0x3998 JUMP JUMPDEST DUP2 LT PUSH2 0xCD9 JUMPI INVALID JUMPDEST SWAP1 PUSH1 0x0 MSTORE PUSH1 0x20 PUSH1 0x0 KECCAK256 ADD PUSH2 0xCEB PUSH2 0x3998 JUMP JUMPDEST SWAP1 POP PUSH1 0x1 PUSH1 0xB PUSH2 0xCF9 PUSH2 0x3998 JUMP JUMPDEST SWAP1 PUSH2 0x100 EXP SWAP1 DIV PUSH1 0x1 PUSH1 0x1 PUSH1 0xA0 SHL SUB AND PUSH1 0x1 PUSH1 0x1 PUSH1 0xA0 SHL SUB AND PUSH4 0xDACB2D01 DUP3 PUSH1 0x40 MLOAD PUSH1 0x1 PUSH1 0x1 PUSH1 0xE0 SHL SUB NOT PUSH1 0xE0 DUP5 SWAP1 SHL AND DUP2 MSTORE PUSH1 0x4 DUP2 ADD SWAP2 SWAP1 SWAP2 MSTORE PUSH1 0x40 PUSH1 0x24 DUP3 ADD DUP2 SWAP1 MSTORE PUSH1 0x17 PUSH1 0x44 DUP4 ADD MSTORE PUSH32 0x5265736F6C766572206D697373696E6720746172676574000000000000000000 PUSH1 0x64 DUP4 ADD MSTORE PUSH1 0x84 SWAP1 SWAP2 ADD SWAP1 PUSH1 0x20 SWAP1 MLOAD DUP1 DUP4 SUB DUP2 DUP7 DUP1 PUSH2 0xD82 PUSH2 0x39F3 JUMP JUMPDEST ISZERO DUP1 ISZERO PUSH2 0xD97 JUMPI PUSH1 0x0 DUP1 PUSH2 0xD94 PUSH2 0x392D JUMP JUMPDEST POP POP JUMPDEST POP GAS PUSH2 0xDA1 PUSH2 0x3B46 JUMP JUMPDEST POP POP POP POP POP ISZERO DUP1 ISZERO PUSH2 0xDC0 JUMPI RETURNDATASIZE PUSH1 0x0 DUP1 RETURNDATACOPY RETURNDATASIZE PUSH1 0x0 PUSH2 0xDBD PUSH2 0x392D JUMP JUMPDEST POP POP JUMPDEST POP POP POP POP PUSH1 0x40 MLOAD RETURNDATASIZE PUSH1 0x20 DUP2 LT ISZERO PUSH2 0xDDF JUMPI PUSH1 0x0 DUP1 PUSH2 0xDDC PUSH2 0x392D JUMP JUMPDEST POP POP JUMPDEST DUP2 ADD SWAP1 DUP1 DUP1 MLOAD PUSH1 0x0 DUP6 DUP2 MSTORE PUSH1 0xC PUSH1 0x20 MSTORE SWAP1 SWAP4 POP PUSH1 0x40 SWAP3 POP SWAP1 POP KECCAK256 PUSH1 0x1 DUP2 PUSH2 0xE04 PUSH2 0x3998 JUMP JUMPDEST DUP2 PUSH1 0x1 PUSH1 0x1 PUSH1 0xA0 SHL SUB MUL NOT AND SWAP1 DUP4 PUSH1 0x1 PUSH1 0x1 PUSH1 0xA0 SHL SUB AND MUL OR SWAP1 PUSH2 0xE26 PUSH2 0x3AF8 JUMP JUMPDEST POP POP PUSH1 0x1 SWAP1 SWAP3 ADD SWAP2 POP PUSH2 0xCAF SWAP1 POP JUMP JUMPDEST POP POP JUMP JUMPDEST PUSH1 0x0 PUSH1 0x1 PUSH2 0x841 PUSH2 0x3998 JUMP JUMPDEST PUSH1 0x0 PUSH1 0x1 PUSH1 0x1 PUSH1 0xA0 SHL SUB DUP3 AND PUSH1 0x1 PUSH1 0xB PUSH2 0xE5E PUSH2 0x3998 JUMP JUMPDEST SWAP1 PUSH2 0x100 EXP SWAP1 DIV PUSH1 0x1 PUSH1 0x1 PUSH1 0xA0 SHL SUB AND PUSH1 0x1 PUSH1 0x1 PUSH1 0xA0 SHL SUB AND EQ PUSH2 0xE84 JUMPI POP PUSH1 0x0 PUSH2 0x101E JUMP JUMPDEST PUSH1 0x0 JUMPDEST PUSH1 0xD DUP1 PUSH2 0xE92 PUSH2 0x3998 JUMP JUMPDEST SWAP1 POP DUP2 LT ISZERO PUSH2 0x1018 JUMPI PUSH1 0x0 PUSH1 0xD DUP3 DUP2 PUSH2 0xEA9 PUSH2 0x3998 JUMP JUMPDEST DUP2 LT PUSH2 0xEB1 JUMPI INVALID JUMPDEST SWAP1 PUSH1 0x0 MSTORE PUSH1 0x20 PUSH1 0x0 KECCAK256 ADD PUSH2 0xEC3 PUSH2 0x3998 JUMP JUMPDEST PUSH1 0x0 DUP2 DUP2 MSTORE PUSH1 0xC PUSH1 0x20 MSTORE SWAP1 SWAP2 POP PUSH1 0x40 SWAP1 KECCAK256 PUSH1 0x0 SWAP1 PUSH2 0xEDF PUSH2 0x3998 JUMP JUMPDEST PUSH1 0x1 PUSH1 0x1 PUSH1 0xA0 SHL SUB PUSH2 0x100 SWAP3 SWAP1 SWAP3 EXP SWAP1 DIV AND PUSH1 0x1 PUSH1 0xB PUSH2 0xEFD PUSH2 0x3998 JUMP JUMPDEST SWAP1 PUSH2 0x100 EXP SWAP1 DIV PUSH1 0x1 PUSH1 0x1 PUSH1 0xA0 SHL SUB AND PUSH1 0x1 PUSH1 0x1 PUSH1 0xA0 SHL SUB AND PUSH4 0x21F8A721 DUP4 PUSH1 0x40 MLOAD PUSH1 0x1 PUSH1 0x1 PUSH1 0xE0 SHL SUB NOT PUSH1 0xE0 DUP5 SWAP1 SHL AND DUP2 MSTORE PUSH1 0x4 DUP2 ADD SWAP2 SWAP1 SWAP2 MSTORE PUSH1 0x24 ADD PUSH1 0x20 PUSH1 0x40 MLOAD DUP1 DUP4 SUB DUP2 DUP7 DUP1 PUSH2 0xF4E PUSH2 0x39F3 JUMP JUMPDEST ISZERO DUP1 ISZERO PUSH2 0xF63 JUMPI PUSH1 0x0 DUP1 PUSH2 0xF60 PUSH2 0x392D JUMP JUMPDEST POP POP JUMPDEST POP GAS PUSH2 0xF6D PUSH2 0x3B46 JUMP JUMPDEST POP POP POP POP POP ISZERO DUP1 ISZERO PUSH2 0xF8C JUMPI RETURNDATASIZE PUSH1 0x0 DUP1 RETURNDATACOPY RETURNDATASIZE PUSH1 0x0 PUSH2 0xF89 PUSH2 0x392D JUMP JUMPDEST POP POP JUMPDEST POP POP POP POP PUSH1 0x40 MLOAD RETURNDATASIZE PUSH1 0x20 DUP2 LT ISZERO PUSH2 0xFAB JUMPI PUSH1 0x0 DUP1 PUSH2 0xFA8 PUSH2 0x392D JUMP JUMPDEST POP POP JUMPDEST DUP2 ADD SWAP1 DUP1 DUP1 MLOAD PUSH1 0x1 PUSH1 0x1 PUSH1 0xA0 SHL SUB AND SWAP4 SWAP1 SWAP4 EQ ISZERO SWAP3 POP DUP3 SWAP2 POP PUSH2 0xFFF SWAP1 POP JUMPI POP PUSH1 0x0 DUP2 DUP2 MSTORE PUSH1 0xC PUSH1 0x20 MSTORE PUSH1 0x40 DUP2 KECCAK256 PUSH1 0x0 SWAP1 PUSH2 0xFE4 PUSH2 0x3998 JUMP JUMPDEST SWAP1 PUSH2 0x100 EXP SWAP1 DIV PUSH1 0x1 PUSH1 0x1 PUSH1 0xA0 SHL SUB AND PUSH1 0x1 PUSH1 0x1 PUSH1 0xA0 SHL SUB AND EQ JUMPDEST ISZERO PUSH2 0x100F JUMPI PUSH1 0x0 SWAP3 POP POP POP PUSH2 0x101E JUMP JUMPDEST POP PUSH1 0x1 ADD PUSH2 0xE87 JUMP JUMPDEST POP PUSH1 0x1 SWAP1 POP JUMPDEST SWAP2 SWAP1 POP JUMP JUMPDEST PUSH1 0x0 DUP1 PUSH1 0x7 PUSH2 0x1030 PUSH2 0x3998 JUMP JUMPDEST SWAP1 PUSH2 0x100 EXP SWAP1 DIV PUSH1 0x1 PUSH1 0x1 PUSH1 0xA0 SHL SUB AND PUSH1 0x1 PUSH1 0x1 PUSH1 0xA0 SHL SUB AND PUSH4 0x70A08231 DUP4 PUSH1 0x40 MLOAD PUSH1 0x1 PUSH1 0x1 PUSH1 0xE0 SHL SUB NOT PUSH1 0xE0 DUP5 SWAP1 SHL AND DUP2 MSTORE PUSH1 0x1 PUSH1 0x1 PUSH1 0xA0 SHL SUB SWAP1 SWAP2 AND PUSH1 0x4 DUP3 ADD MSTORE PUSH1 0x24 ADD PUSH1 0x20 PUSH1 0x40 MLOAD DUP1 DUP4 SUB DUP2 DUP7 DUP1 PUSH2 0x1089 PUSH2 0x39F3 JUMP JUMPDEST ISZERO DUP1 ISZERO PUSH2 0x109E JUMPI PUSH1 0x0 DUP1 PUSH2 0x109B PUSH2 0x392D JUMP JUMPDEST POP POP JUMPDEST POP GAS PUSH2 0x10A8 PUSH2 0x3B46 JUMP JUMPDEST POP POP POP POP POP ISZERO DUP1 ISZERO PUSH2 0x10C7 JUMPI RETURNDATASIZE PUSH1 0x0 DUP1 RETURNDATACOPY RETURNDATASIZE PUSH1 0x0 PUSH2 0x10C4 PUSH2 0x392D JUMP JUMPDEST POP POP JUMPDEST POP POP POP POP PUSH1 0x40 MLOAD RETURNDATASIZE PUSH1 0x20 DUP2 LT ISZERO PUSH2 0x10E6 JUMPI PUSH1 0x0 DUP1 PUSH2 0x10E3 PUSH2 0x392D JUMP JUMPDEST POP POP JUMPDEST DUP2 ADD SWAP1 DUP1 DUP1 MLOAD SWAP6 SWAP5 POP POP POP POP POP JUMP JUMPDEST PUSH1 0x0 PUSH1 0x1 PUSH2 0x1101 PUSH2 0x3998 JUMP JUMPDEST SWAP1 PUSH2 0x100 EXP SWAP1 DIV PUSH1 0x1 PUSH1 0x1 PUSH1 0xA0 SHL SUB AND PUSH1 0x1 PUSH1 0x1 PUSH1 0xA0 SHL SUB AND GAS PUSH2 0x1123 PUSH2 0x3BFF JUMP JUMPDEST PUSH1 0x1 PUSH1 0x1 PUSH1 0xA0 SHL SUB AND EQ PUSH2 0x1171 JUMPI PUSH1 0x40 MLOAD PUSH3 0x461BCD PUSH1 0xE5 SHL DUP2 MSTORE PUSH1 0x4 ADD DUP1 DUP1 PUSH1 0x20 ADD DUP3 DUP2 SUB DUP3 MSTORE PUSH1 0x35 DUP2 MSTORE PUSH1 0x20 ADD DUP1 PUSH2 0x3CA9 PUSH1 0x35 SWAP2 CODECOPY PUSH1 0x40 ADD SWAP2 POP POP PUSH1 0x40 MLOAD DUP1 SWAP2 SUB SWAP1 PUSH2 0x116E PUSH2 0x392D JUMP JUMPDEST POP POP JUMPDEST PUSH32 0xB532073B38C83145E3E5135377A08BF9AAB55BC0FD7C1179CD4FB995D2A5159C PUSH1 0x0 DUP1 PUSH2 0x119D PUSH2 0x3998 JUMP JUMPDEST SWAP1 PUSH2 0x100 EXP SWAP1 DIV PUSH1 0x1 PUSH1 0x1 PUSH1 0xA0 SHL SUB AND PUSH1 0x1 PUSH1 0x0 SWAP1 PUSH2 0x11BA PUSH2 0x3998 JUMP JUMPDEST SWAP1 PUSH2 0x100 EXP SWAP1 DIV PUSH1 0x1 PUSH1 0x1 PUSH1 0xA0 SHL SUB AND PUSH1 0x40 MLOAD PUSH1 0x1 PUSH1 0x1 PUSH1 0xA0 SHL SUB SWAP3 DUP4 AND DUP2 MSTORE SWAP2 AND PUSH1 0x20 DUP3 ADD MSTORE PUSH1 0x40 SWAP1 DUP2 ADD SWAP1 MLOAD DUP1 SWAP2 SUB SWAP1 LOG1 PUSH1 0x0 PUSH1 0x1 PUSH2 0x11F9 PUSH2 0x3998 JUMP JUMPDEST SWAP1 PUSH2 0x100 EXP SWAP1 DIV PUSH1 0x1 PUSH1 0x1 PUSH1 0xA0 SHL SUB AND PUSH1 0x0 DUP1 PUSH2 0x100 EXP DUP2 PUSH2 0x1219 PUSH2 0x3998 JUMP JUMPDEST DUP2 PUSH1 0x1 PUSH1 0x1 PUSH1 0xA0 SHL SUB MUL NOT AND SWAP1 DUP4 PUSH1 0x1 PUSH1 0x1 PUSH1 0xA0 SHL SUB AND MUL OR SWAP1 PUSH2 0x123B PUSH2 0x3AF8 JUMP JUMPDEST POP POP POP PUSH1 0x0 PUSH1 0x1 PUSH1 0x0 PUSH2 0x100 EXP DUP2 PUSH2 0x1251 PUSH2 0x3998 JUMP JUMPDEST DUP2 PUSH1 0x1 PUSH1 0x1 PUSH1 0xA0 SHL SUB MUL NOT AND SWAP1 DUP4 PUSH1 0x1 PUSH1 0x1 PUSH1 0xA0 SHL SUB AND MUL OR SWAP1 PUSH2 0x1273 PUSH2 0x3AF8 JUMP JUMPDEST POP POP POP JUMP JUMPDEST PUSH1 0x0 PUSH2 0x1282 PUSH2 0x27AF JUMP JUMPDEST PUSH1 0x1 PUSH1 0x1 PUSH1 0xA0 SHL SUB AND GAS PUSH2 0x1294 PUSH2 0x3BFF JUMP JUMPDEST PUSH1 0x1 PUSH1 0x1 PUSH1 0xA0 SHL SUB AND EQ SWAP1 POP PUSH1 0x0 PUSH2 0x12AA PUSH2 0x27FD JUMP JUMPDEST PUSH1 0x1 PUSH1 0x1 PUSH1 0xA0 SHL SUB AND GAS PUSH2 0x12BC PUSH2 0x3BFF JUMP JUMPDEST PUSH1 0x1 PUSH1 0x1 PUSH1 0xA0 SHL SUB AND EQ SWAP1 POP PUSH1 0x0 PUSH2 0x12D2 PUSH2 0x2848 JUMP JUMPDEST PUSH1 0x1 PUSH1 0x1 PUSH1 0xA0 SHL SUB AND GAS PUSH2 0x12E4 PUSH2 0x3BFF JUMP JUMPDEST PUSH1 0x1 PUSH1 0x1 PUSH1 0xA0 SHL SUB AND EQ SWAP1 POP DUP3 DUP1 PUSH2 0x12F9 JUMPI POP DUP2 JUMPDEST DUP1 PUSH2 0x1301 JUMPI POP DUP1 JUMPDEST PUSH2 0x1345 JUMPI PUSH1 0x40 MLOAD PUSH3 0x461BCD PUSH1 0xE5 SHL DUP2 MSTORE PUSH1 0x4 ADD DUP1 DUP1 PUSH1 0x20 ADD DUP3 DUP2 SUB DUP3 MSTORE PUSH1 0x33 DUP2 MSTORE PUSH1 0x20 ADD DUP1 PUSH2 0x3D0D PUSH1 0x33 SWAP2 CODECOPY PUSH1 0x40 ADD SWAP2 POP POP PUSH1 0x40 MLOAD DUP1 SWAP2 SUB SWAP1 PUSH2 0x1342 PUSH2 0x392D JUMP JUMPDEST POP POP JUMPDEST PUSH2 0x134F DUP6 DUP6 PUSH2 0x2889 JUMP JUMPDEST POP POP POP POP POP JUMP JUMPDEST PUSH1 0x0 DUP1 PUSH2 0x841 PUSH2 0x3998 JUMP JUMPDEST PUSH1 0x9 DUP1 PUSH2 0x136C PUSH2 0x3998 JUMP JUMPDEST PUSH1 0x1 DUP2 PUSH1 0x1 AND ISZERO PUSH2 0x100 MUL SUB AND PUSH1 0x2 SWAP1 DIV DUP1 PUSH1 0x1F ADD PUSH1 0x20 DUP1 SWAP2 DIV MUL PUSH1 0x20 ADD PUSH1 0x40 MLOAD SWAP1 DUP2 ADD PUSH1 0x40 MSTORE DUP2 DUP2 MSTORE SWAP2 SWAP1 PUSH1 0x20 DUP4 ADD DUP3 DUP1 PUSH2 0x13A6 PUSH2 0x3998 JUMP JUMPDEST PUSH1 0x1 DUP2 PUSH1 0x1 AND ISZERO PUSH2 0x100 MUL SUB AND PUSH1 0x2 SWAP1 DIV DUP1 ISZERO PUSH2 0x905 JUMPI DUP1 PUSH1 0x1F LT PUSH2 0x13D2 JUMPI PUSH2 0x100 DUP1 DUP4 PUSH2 0x8C5 PUSH2 0x3998 JUMP JUMPDEST DUP3 ADD SWAP2 SWAP1 PUSH1 0x0 MSTORE PUSH1 0x20 PUSH1 0x0 KECCAK256 SWAP1 JUMPDEST DUP2 PUSH2 0x13E9 PUSH2 0x3998 JUMP JUMPDEST DUP2 MSTORE SWAP1 PUSH1 0x1 ADD SWAP1 PUSH1 0x20 ADD DUP1 DUP4 GT PUSH2 0x13E0 JUMPI POP DUP6 SWAP4 POP POP POP POP JUMP JUMPDEST PUSH2 0x140B PUSH2 0x2278 JUMP JUMPDEST DUP1 PUSH1 0x4 PUSH1 0x1 DUP2 PUSH2 0x1419 PUSH2 0x3998 JUMP JUMPDEST DUP2 PUSH1 0x1 PUSH1 0x1 PUSH1 0xA0 SHL SUB MUL NOT AND SWAP1 DUP4 PUSH1 0x1 PUSH1 0x1 PUSH1 0xA0 SHL SUB AND MUL OR SWAP1 PUSH2 0x143B PUSH2 0x3AF8 JUMP JUMPDEST POP POP POP PUSH32 0xFC80377CA9C49CC11AE6982F390A42DB976D5530AF7C43889264B13FBBD7C57E DUP2 PUSH1 0x40 MLOAD PUSH1 0x1 PUSH1 0x1 PUSH1 0xA0 SHL SUB SWAP1 SWAP2 AND DUP2 MSTORE PUSH1 0x20 ADD PUSH1 0x40 MLOAD DUP1 SWAP2 SUB SWAP1 LOG1 POP JUMP JUMPDEST PUSH2 0x1486 PUSH2 0x2278 JUMP JUMPDEST PUSH1 0x0 PUSH1 0x3 PUSH2 0x1492 PUSH2 0x3998 JUMP JUMPDEST SWAP1 PUSH2 0x100 EXP SWAP1 DIV PUSH1 0xFF AND PUSH2 0x14F5 JUMPI PUSH1 0x40 MLOAD PUSH3 0x461BCD PUSH1 0xE5 SHL DUP2 MSTORE PUSH1 0x20 PUSH1 0x4 DUP3 ADD MSTORE PUSH1 0x1F PUSH1 0x24 DUP3 ADD MSTORE PUSH32 0x53656C66204465737472756374206E6F742079657420696E6974696174656400 PUSH1 0x44 DUP3 ADD MSTORE PUSH1 0x64 ADD PUSH1 0x40 MLOAD DUP1 SWAP2 SUB SWAP1 PUSH2 0x14F2 PUSH2 0x392D JUMP JUMPDEST POP POP JUMPDEST GAS PUSH2 0x14FE PUSH2 0x3C45 JUMP JUMPDEST PUSH3 0x24EA00 PUSH1 0x2 PUSH2 0x150C PUSH2 0x3998 JUMP JUMPDEST ADD LT PUSH2 0x1567 JUMPI PUSH1 0x40 MLOAD PUSH3 0x461BCD PUSH1 0xE5 SHL DUP2 MSTORE PUSH1 0x20 PUSH1 0x4 DUP3 ADD MSTORE PUSH1 0x1B PUSH1 0x24 DUP3 ADD MSTORE PUSH32 0x53656C662064657374727563742064656C6179206E6F74206D65740000000000 PUSH1 0x44 DUP3 ADD MSTORE PUSH1 0x64 ADD PUSH1 0x40 MLOAD DUP1 SWAP2 SUB SWAP1 PUSH2 0x1564 PUSH2 0x392D JUMP JUMPDEST POP POP JUMPDEST PUSH32 0x8A09E1677CED846CB537DC2B172043BD05A1A81AD7E0033A7EF8BA762DF990B7 PUSH1 0x1 PUSH1 0x3 PUSH2 0x1594 PUSH2 0x3998 JUMP JUMPDEST SWAP1 PUSH2 0x100 EXP SWAP1 DIV PUSH1 0x1 PUSH1 0x1 PUSH1 0xA0 SHL SUB AND PUSH1 0x40 MLOAD PUSH1 0x1 PUSH1 0x1 PUSH1 0xA0 SHL SUB SWAP1 SWAP2 AND DUP2 MSTORE PUSH1 0x20 ADD PUSH1 0x40 MLOAD DUP1 SWAP2 SUB SWAP1 LOG1 JUMP JUMPDEST PUSH1 0x0 PUSH1 0x5 PUSH2 0x841 PUSH2 0x3998 JUMP JUMPDEST PUSH1 0x0 PUSH2 0x15D7 PUSH2 0x27AF JUMP JUMPDEST PUSH1 0x1 PUSH1 0x1 PUSH1 0xA0 SHL SUB AND GAS PUSH2 0x15E9 PUSH2 0x3BFF JUMP JUMPDEST PUSH1 0x1 PUSH1 0x1 PUSH1 0xA0 SHL SUB AND EQ SWAP1 POP PUSH1 0x0 PUSH2 0x15FF PUSH2 0x27FD JUMP JUMPDEST PUSH1 0x1 PUSH1 0x1 PUSH1 0xA0 SHL SUB AND GAS PUSH2 0x1611 PUSH2 0x3BFF JUMP JUMPDEST PUSH1 0x1 PUSH1 0x1 PUSH1 0xA0 SHL SUB AND EQ SWAP1 POP PUSH1 0x0 PUSH2 0x1627 PUSH2 0x2848 JUMP JUMPDEST PUSH1 0x1 PUSH1 0x1 PUSH1 0xA0 SHL SUB AND GAS PUSH2 0x1639 PUSH2 0x3BFF JUMP JUMPDEST PUSH1 0x1 PUSH1 0x1 PUSH1 0xA0 SHL SUB AND EQ SWAP1 POP DUP3 DUP1 PUSH2 0x164E JUMPI POP DUP2 JUMPDEST DUP1 PUSH2 0x1656 JUMPI POP DUP1 JUMPDEST PUSH2 0x169A JUMPI PUSH1 0x40 MLOAD PUSH3 0x461BCD PUSH1 0xE5 SHL DUP2 MSTORE PUSH1 0x4 ADD DUP1 DUP1 PUSH1 0x20 ADD DUP3 DUP2 SUB DUP3 MSTORE PUSH1 0x33 DUP2 MSTORE PUSH1 0x20 ADD DUP1 PUSH2 0x3D0D PUSH1 0x33 SWAP2 CODECOPY PUSH1 0x40 ADD SWAP2 POP POP PUSH1 0x40 MLOAD DUP1 SWAP2 SUB SWAP1 PUSH2 0x1697 PUSH2 0x392D JUMP JUMPDEST POP POP JUMPDEST PUSH2 0x16A4 DUP6 DUP6 PUSH2 0x2A4C JUMP JUMPDEST POP POP POP POP POP POP JUMP JUMPDEST PUSH2 0x16B4 PUSH2 0x2BA5 JUMP JUMPDEST DUP1 PUSH1 0x7 PUSH1 0x1 DUP2 PUSH2 0x16C2 PUSH2 0x3998 JUMP JUMPDEST DUP2 PUSH1 0x1 PUSH1 0x1 PUSH1 0xA0 SHL SUB MUL NOT AND SWAP1 DUP4 PUSH1 0x1 PUSH1 0x1 PUSH1 0xA0 SHL SUB AND MUL OR SWAP1 PUSH2 0x16E4 PUSH2 0x3AF8 JUMP JUMPDEST POP POP POP PUSH2 0x16F0 DUP2 PUSH2 0x2D30 JUMP JUMPDEST POP JUMP JUMPDEST PUSH3 0x24EA00 DUP2 JUMP JUMPDEST PUSH1 0x0 PUSH2 0x1704 PUSH2 0x2027 JUMP JUMPDEST PUSH2 0x1729 PUSH1 0x0 PUSH1 0x6 PUSH2 0x1713 PUSH2 0x3998 JUMP JUMPDEST SWAP1 PUSH2 0x100 EXP SWAP1 DIV PUSH1 0x1 PUSH1 0x1 PUSH1 0xA0 SHL SUB AND DUP4 PUSH2 0x22F0 JUMP JUMPDEST PUSH1 0x1 PUSH1 0x1 PUSH1 0xA0 SHL SUB DUP4 AND PUSH20 0xFEEFEEFEEFEEFEEFEEFEEFEEFEEFEEFEEFEEFEEF EQ ISZERO PUSH2 0x175F JUMPI PUSH2 0x1758 DUP4 DUP4 PUSH2 0x2EB4 JUMP JUMPDEST SWAP1 POP PUSH2 0xA05 JUMP JUMPDEST PUSH1 0x1 PUSH1 0x1 PUSH1 0xA0 SHL SUB DUP4 AND PUSH2 0x1792 JUMPI PUSH2 0x1758 PUSH1 0x0 PUSH1 0x6 PUSH2 0x177C PUSH2 0x3998 JUMP JUMPDEST SWAP1 PUSH2 0x100 EXP SWAP1 DIV PUSH1 0x1 PUSH1 0x1 PUSH1 0xA0 SHL SUB AND DUP4 PUSH2 0x2A4C JUMP JUMPDEST PUSH2 0x17B8 PUSH1 0x0 PUSH1 0x6 PUSH2 0x17A1 PUSH2 0x3998 JUMP JUMPDEST SWAP1 PUSH2 0x100 EXP SWAP1 DIV PUSH1 0x1 PUSH1 0x1 PUSH1 0xA0 SHL SUB AND DUP5 DUP5 PUSH2 0x30B2 JUMP JUMPDEST SWAP4 SWAP3 POP POP POP JUMP JUMPDEST PUSH2 0x17C7 PUSH2 0x3C8B JUMP JUMPDEST PUSH1 0x0 JUMPDEST PUSH1 0xD DUP1 PUSH2 0x17D5 PUSH2 0x3998 JUMP JUMPDEST SWAP1 POP DUP2 LT ISZERO PUSH2 0x181D JUMPI PUSH1 0xD DUP2 DUP2 PUSH2 0x17EA PUSH2 0x3998 JUMP JUMPDEST DUP2 LT PUSH2 0x17F2 JUMPI INVALID JUMPDEST SWAP1 PUSH1 0x0 MSTORE PUSH1 0x20 PUSH1 0x0 KECCAK256 ADD PUSH2 0x1804 PUSH2 0x3998 JUMP JUMPDEST DUP3 DUP3 PUSH1 0x18 DUP2 LT PUSH2 0x1810 JUMPI INVALID JUMPDEST PUSH1 0x20 MUL ADD MSTORE PUSH1 0x1 ADD PUSH2 0x17CA JUMP JUMPDEST POP SWAP1 JUMP JUMPDEST PUSH1 0x0 PUSH2 0x182B PUSH2 0x2027 JUMP JUMPDEST PUSH1 0x0 PUSH2 0x1835 PUSH2 0x27FD JUMP JUMPDEST PUSH1 0x1 PUSH1 0x1 PUSH1 0xA0 SHL SUB AND PUSH4 0x1B16802C PUSH1 0x0 PUSH1 0x6 PUSH2 0x184F PUSH2 0x3998 JUMP JUMPDEST SWAP1 PUSH2 0x100 EXP SWAP1 DIV PUSH1 0x1 PUSH1 0x1 PUSH1 0xA0 SHL SUB AND PUSH1 0xE PUSH2 0x1869 PUSH2 0x3998 JUMP JUMPDEST PUSH1 0x40 MLOAD PUSH1 0x1 PUSH1 0x1 PUSH1 0xE0 SHL SUB NOT PUSH1 0xE0 DUP6 SWAP1 SHL AND DUP2 MSTORE PUSH1 0x1 PUSH1 0x1 PUSH1 0xA0 SHL SUB SWAP1 SWAP3 AND PUSH1 0x4 DUP4 ADD MSTORE PUSH1 0x24 DUP3 ADD MSTORE PUSH1 0x44 ADD PUSH1 0x60 PUSH1 0x40 MLOAD DUP1 DUP4 SUB DUP2 PUSH1 0x0 DUP8 DUP1 PUSH2 0x18AA PUSH2 0x39F3 JUMP JUMPDEST ISZERO DUP1 ISZERO PUSH2 0x18BF JUMPI PUSH1 0x0 DUP1 PUSH2 0x18BC PUSH2 0x392D JUMP JUMPDEST POP POP JUMPDEST POP GAS PUSH2 0x18C9 PUSH2 0x3A3F JUMP JUMPDEST POP POP POP POP POP POP ISZERO DUP1 ISZERO PUSH2 0x18E9 JUMPI RETURNDATASIZE PUSH1 0x0 DUP1 RETURNDATACOPY RETURNDATASIZE PUSH1 0x0 PUSH2 0x18E6 PUSH2 0x392D JUMP JUMPDEST POP POP JUMPDEST POP POP POP POP PUSH1 0x40 MLOAD RETURNDATASIZE PUSH1 0x60 DUP2 LT ISZERO PUSH2 0x1908 JUMPI PUSH1 0x0 DUP1 PUSH2 0x1905 PUSH2 0x392D JUMP JUMPDEST POP POP JUMPDEST DUP2 ADD SWAP1 DUP1 DUP1 MLOAD SWAP3 SWAP2 SWAP1 PUSH1 0x20 ADD DUP1 MLOAD SWAP3 SWAP2 SWAP1 PUSH1 0x20 ADD DUP1 MLOAD SWAP6 POP DUP8 SWAP5 POP POP DUP5 ISZERO SWAP3 POP PUSH2 0x1A11 SWAP2 POP POP JUMPI PUSH1 0x0 PUSH1 0x7 PUSH2 0x193B PUSH2 0x3998 JUMP JUMPDEST PUSH1 0x1 PUSH1 0x1 PUSH1 0xA0 SHL SUB PUSH2 0x100 SWAP3 SWAP1 SWAP3 EXP SWAP1 DIV AND PUSH4 0x70A08231 PUSH1 0x0 PUSH1 0x6 PUSH2 0x195E PUSH2 0x3998 JUMP JUMPDEST SWAP1 PUSH2 0x100 EXP SWAP1 DIV PUSH1 0x1 PUSH1 0x1 PUSH1 0xA0 SHL SUB AND PUSH1 0x40 MLOAD PUSH1 0x1 PUSH1 0x1 PUSH1 0xE0 SHL SUB NOT PUSH1 0xE0 DUP5 SWAP1 SHL AND DUP2 MSTORE PUSH1 0x1 PUSH1 0x1 PUSH1 0xA0 SHL SUB SWAP1 SWAP2 AND PUSH1 0x4 DUP3 ADD MSTORE PUSH1 0x24 ADD PUSH1 0x20 PUSH1 0x40 MLOAD DUP1 DUP4 SUB DUP2 DUP7 DUP1 PUSH2 0x19A8 PUSH2 0x39F3 JUMP JUMPDEST ISZERO DUP1 ISZERO PUSH2 0x19BD JUMPI PUSH1 0x0 DUP1 PUSH2 0x19BA PUSH2 0x392D JUMP JUMPDEST POP POP JUMPDEST POP GAS PUSH2 0x19C7 PUSH2 0x3B46 JUMP JUMPDEST POP POP POP POP POP ISZERO DUP1 ISZERO PUSH2 0x19E6 JUMPI RETURNDATASIZE PUSH1 0x0 DUP1 RETURNDATACOPY RETURNDATASIZE PUSH1 0x0 PUSH2 0x19E3 PUSH2 0x392D JUMP JUMPDEST POP POP JUMPDEST POP POP POP POP PUSH1 0x40 MLOAD RETURNDATASIZE PUSH1 0x20 DUP2 LT ISZERO PUSH2 0x1A05 JUMPI PUSH1 0x0 DUP1 PUSH2 0x1A02 PUSH2 0x392D JUMP JUMPDEST POP POP JUMPDEST DUP2 ADD SWAP1 DUP1 DUP1 MLOAD SWAP4 POP POP POP POP JUMPDEST DUP1 DUP5 GT PUSH2 0x1A1E JUMPI DUP4 PUSH2 0x1A20 JUMP JUMPDEST DUP1 JUMPDEST SWAP4 POP PUSH2 0x1A48 PUSH1 0x0 PUSH1 0x6 PUSH2 0x1A31 PUSH2 0x3998 JUMP JUMPDEST SWAP1 PUSH2 0x100 EXP SWAP1 DIV PUSH1 0x1 PUSH1 0x1 PUSH1 0xA0 SHL SUB AND DUP7 DUP7 PUSH2 0x30B2 JUMP JUMPDEST SWAP6 SWAP5 POP POP POP POP POP JUMP JUMPDEST PUSH1 0x0 PUSH1 0x3 PUSH2 0xBF1 PUSH2 0x3998 JUMP JUMPDEST PUSH2 0x1A65 PUSH2 0x3400 JUMP JUMPDEST DUP1 PUSH1 0x6 PUSH1 0x1 DUP2 PUSH2 0xA21 PUSH2 0x3998 JUMP JUMPDEST PUSH2 0x1A7B PUSH2 0x2278 JUMP JUMPDEST GAS PUSH2 0x1A84 PUSH2 0x3C45 JUMP JUMPDEST DUP1 PUSH1 0x2 PUSH2 0x1A8F PUSH2 0x3AF8 JUMP JUMPDEST POP POP POP PUSH1 0x1 PUSH1 0x3 PUSH1 0x0 PUSH2 0x100 EXP DUP2 PUSH2 0x1AA5 PUSH2 0x3998 JUMP JUMPDEST DUP2 PUSH1 0xFF MUL NOT AND SWAP1 DUP4 ISZERO ISZERO MUL OR SWAP1 PUSH2 0x1ABA PUSH2 0x3AF8 JUMP JUMPDEST POP POP POP PUSH32 0xCBD94CA75B8DC45C9D80C77E851670E78843C0D75180CB81DB3E2158228FA9A6 PUSH3 0x24EA00 PUSH1 0x40 MLOAD SWAP1 DUP2 MSTORE PUSH1 0x20 ADD PUSH1 0x40 MLOAD DUP1 SWAP2 SUB SWAP1 LOG1 JUMP JUMPDEST PUSH1 0x1 PUSH1 0x3 PUSH2 0x841 PUSH2 0x3998 JUMP JUMPDEST PUSH1 0xD DUP2 DUP2 PUSH2 0x1B0D PUSH2 0x3998 JUMP JUMPDEST DUP2 LT PUSH2 0x1B15 JUMPI INVALID JUMPDEST SWAP1 PUSH1 0x0 MSTORE PUSH1 0x20 PUSH1 0x0 KECCAK256 ADD SWAP1 POP PUSH2 0xACD PUSH2 0x3998 JUMP JUMPDEST PUSH1 0x0 PUSH1 0x6 PUSH2 0x841 PUSH2 0x3998 JUMP JUMPDEST PUSH1 0xE PUSH2 0xACD PUSH2 0x3998 JUMP JUMPDEST PUSH1 0x0 DUP1 PUSH1 0x7 PUSH2 0x1B4C PUSH2 0x3998 JUMP JUMPDEST SWAP1 PUSH2 0x100 EXP SWAP1 DIV PUSH1 0x1 PUSH1 0x1 PUSH1 0xA0 SHL SUB AND PUSH1 0x1 PUSH1 0x1 PUSH1 0xA0 SHL SUB AND PUSH4 0xDD62ED3E DUP5 DUP5 PUSH1 0x40 MLOAD PUSH1 0x1 PUSH1 0x1 PUSH1 0xE0 SHL SUB NOT PUSH1 0xE0 DUP6 SWAP1 SHL AND DUP2 MSTORE PUSH1 0x1 PUSH1 0x1 PUSH1 0xA0 SHL SUB SWAP3 DUP4 AND PUSH1 0x4 DUP3 ADD MSTORE SWAP2 AND PUSH1 0x24 DUP3 ADD MSTORE PUSH1 0x44 ADD PUSH1 0x20 PUSH1 0x40 MLOAD DUP1 DUP4 SUB DUP2 DUP7 DUP1 PUSH2 0x1BAD PUSH2 0x39F3 JUMP JUMPDEST ISZERO DUP1 ISZERO PUSH2 0x1BC2 JUMPI PUSH1 0x0 DUP1 PUSH2 0x1BBF PUSH2 0x392D JUMP JUMPDEST POP POP JUMPDEST POP GAS PUSH2 0x1BCC PUSH2 0x3B46 JUMP JUMPDEST POP POP POP POP POP ISZERO DUP1 ISZERO PUSH2 0x1BEB JUMPI RETURNDATASIZE PUSH1 0x0 DUP1 RETURNDATACOPY RETURNDATASIZE PUSH1 0x0 PUSH2 0x1BE8 PUSH2 0x392D JUMP JUMPDEST POP POP JUMPDEST POP POP POP POP PUSH1 0x40 MLOAD RETURNDATASIZE PUSH1 0x20 DUP2 LT ISZERO PUSH2 0x1C0A JUMPI PUSH1 0x0 DUP1 PUSH2 0x1C07 PUSH2 0x392D JUMP JUMPDEST POP POP JUMPDEST DUP2 ADD SWAP1 DUP1 DUP1 MLOAD SWAP7 SWAP6 POP POP POP POP POP POP JUMP JUMPDEST PUSH1 0x18 DUP2 JUMP JUMPDEST PUSH1 0x0 PUSH2 0x1C29 PUSH2 0x2027 JUMP JUMPDEST PUSH1 0x0 PUSH2 0x1C33 PUSH2 0x27FD JUMP JUMPDEST PUSH1 0x1 PUSH1 0x1 PUSH1 0xA0 SHL SUB AND PUSH4 0x1B16802C DUP7 PUSH1 0xE PUSH2 0x1C4C PUSH2 0x3998 JUMP JUMPDEST PUSH1 0x40 MLOAD PUSH1 0x1 PUSH1 0x1 PUSH1 0xE0 SHL SUB NOT PUSH1 0xE0 DUP6 SWAP1 SHL AND DUP2 MSTORE PUSH1 0x1 PUSH1 0x1 PUSH1 0xA0 SHL SUB SWAP1 SWAP3 AND PUSH1 0x4 DUP4 ADD MSTORE PUSH1 0x24 DUP3 ADD MSTORE PUSH1 0x44 ADD PUSH1 0x60 PUSH1 0x40 MLOAD DUP1 DUP4 SUB DUP2 PUSH1 0x0 DUP8 DUP1 PUSH2 0x1C8D PUSH2 0x39F3 JUMP JUMPDEST ISZERO DUP1 ISZERO PUSH2 0x1CA2 JUMPI PUSH1 0x0 DUP1 PUSH2 0x1C9F PUSH2 0x392D JUMP JUMPDEST POP POP JUMPDEST POP GAS PUSH2 0x1CAC PUSH2 0x3A3F JUMP JUMPDEST POP POP POP POP POP POP ISZERO DUP1 ISZERO PUSH2 0x1CCC JUMPI RETURNDATASIZE PUSH1 0x0 DUP1 RETURNDATACOPY RETURNDATASIZE PUSH1 0x0 PUSH2 0x1CC9 PUSH2 0x392D JUMP JUMPDEST POP POP JUMPDEST POP POP POP POP PUSH1 0x40 MLOAD RETURNDATASIZE PUSH1 0x60 DUP2 LT ISZERO PUSH2 0x1CEB JUMPI PUSH1 0x0 DUP1 PUSH2 0x1CE8 PUSH2 0x392D JUMP JUMPDEST POP POP JUMPDEST DUP2 ADD SWAP1 DUP1 DUP1 MLOAD SWAP3 SWAP2 SWAP1 PUSH1 0x20 ADD DUP1 MLOAD SWAP3 SWAP2 SWAP1 PUSH1 0x20 ADD DUP1 MLOAD SWAP6 POP DUP8 SWAP5 POP POP DUP5 ISZERO SWAP3 POP PUSH2 0x1DE0 SWAP2 POP POP JUMPI PUSH1 0x0 PUSH1 0x7 PUSH2 0x1D1E PUSH2 0x3998 JUMP JUMPDEST SWAP1 PUSH2 0x100 EXP SWAP1 DIV PUSH1 0x1 PUSH1 0x1 PUSH1 0xA0 SHL SUB AND PUSH1 0x1 PUSH1 0x1 PUSH1 0xA0 SHL SUB AND PUSH4 0x70A08231 DUP8 PUSH1 0x40 MLOAD PUSH1 0x1 PUSH1 0x1 PUSH1 0xE0 SHL SUB NOT PUSH1 0xE0 DUP5 SWAP1 SHL AND DUP2 MSTORE PUSH1 0x1 PUSH1 0x1 PUSH1 0xA0 SHL SUB SWAP1 SWAP2 AND PUSH1 0x4 DUP3 ADD MSTORE PUSH1 0x24 ADD PUSH1 0x20 PUSH1 0x40 MLOAD DUP1 DUP4 SUB DUP2 DUP7 DUP1 PUSH2 0x1D77 PUSH2 0x39F3 JUMP JUMPDEST ISZERO DUP1 ISZERO PUSH2 0x1D8C JUMPI PUSH1 0x0 DUP1 PUSH2 0x1D89 PUSH2 0x392D JUMP JUMPDEST POP POP JUMPDEST POP GAS PUSH2 0x1D96 PUSH2 0x3B46 JUMP JUMPDEST POP POP POP POP POP ISZERO DUP1 ISZERO PUSH2 0x1DB5 JUMPI RETURNDATASIZE PUSH1 0x0 DUP1 RETURNDATACOPY RETURNDATASIZE PUSH1 0x0 PUSH2 0x1DB2 PUSH2 0x392D JUMP JUMPDEST POP POP JUMPDEST POP POP POP POP PUSH1 0x40 MLOAD RETURNDATASIZE PUSH1 0x20 DUP2 LT ISZERO PUSH2 0x1DD4 JUMPI PUSH1 0x0 DUP1 PUSH2 0x1DD1 PUSH2 0x392D JUMP JUMPDEST POP POP JUMPDEST DUP2 ADD SWAP1 DUP1 DUP1 MLOAD SWAP4 POP POP POP POP JUMPDEST DUP1 DUP5 LT ISZERO PUSH2 0x1DEE JUMPI DUP4 PUSH2 0x1DF0 JUMP JUMPDEST DUP1 JUMPDEST SWAP4 POP PUSH2 0x1DFD DUP7 DUP7 DUP7 PUSH2 0x24E4 JUMP JUMPDEST SWAP7 SWAP6 POP POP POP POP POP POP JUMP JUMPDEST PUSH1 0x0 PUSH1 0x7 PUSH2 0x841 PUSH2 0x3998 JUMP JUMPDEST PUSH20 0xFEEFEEFEEFEEFEEFEEFEEFEEFEEFEEFEEFEEFEEF DUP2 JUMP JUMPDEST PUSH1 0x0 PUSH1 0x4 PUSH2 0x841 PUSH2 0x3998 JUMP JUMPDEST PUSH2 0x1E3F PUSH2 0x2BA5 JUMP JUMPDEST DUP1 DUP1 PUSH1 0xA PUSH2 0xA43 PUSH2 0x3AF8 JUMP JUMPDEST PUSH1 0x0 DUP1 PUSH2 0x1E56 PUSH2 0x27FD JUMP JUMPDEST PUSH1 0x1 PUSH1 0x1 PUSH1 0xA0 SHL SUB AND PUSH4 0x19D5C665 DUP5 PUSH1 0xE PUSH2 0x1E6F PUSH2 0x3998 JUMP JUMPDEST PUSH1 0x40 MLOAD PUSH1 0x1 PUSH1 0x1 PUSH1 0xE0 SHL SUB NOT PUSH1 0xE0 DUP6 SWAP1 SHL AND DUP2 MSTORE PUSH1 0x1 PUSH1 0x1 PUSH1 0xA0 SHL SUB SWAP1 SWAP3 AND PUSH1 0x4 DUP4 ADD MSTORE PUSH1 0x24 DUP3 ADD MSTORE PUSH1 0x44 ADD PUSH1 0x60 PUSH1 0x40 MLOAD DUP1 DUP4 SUB DUP2 DUP7 DUP1 PUSH2 0x1EAE PUSH2 0x39F3 JUMP JUMPDEST ISZERO DUP1 ISZERO PUSH2 0x1EC3 JUMPI PUSH1 0x0 DUP1 PUSH2 0x1EC0 PUSH2 0x392D JUMP JUMPDEST POP POP JUMPDEST POP GAS PUSH2 0x1ECD PUSH2 0x3B46 JUMP JUMPDEST POP POP POP POP POP ISZERO DUP1 ISZERO PUSH2 0x1EEC JUMPI RETURNDATASIZE PUSH1 0x0 DUP1 RETURNDATACOPY RETURNDATASIZE PUSH1 0x0 PUSH2 0x1EE9 PUSH2 0x392D JUMP JUMPDEST POP POP JUMPDEST POP POP POP POP PUSH1 0x40 MLOAD RETURNDATASIZE PUSH1 0x60 DUP2 LT ISZERO PUSH2 0x1F0B JUMPI PUSH1 0x0 DUP1 PUSH2 0x1F08 PUSH2 0x392D JUMP JUMPDEST POP POP JUMPDEST DUP2 ADD SWAP1 DUP1 DUP1 MLOAD SWAP3 SWAP2 SWAP1 PUSH1 0x20 ADD DUP1 MLOAD SWAP3 SWAP2 SWAP1 PUSH1 0x20 ADD DUP1 MLOAD POP SWAP4 SWAP5 POP PUSH1 0x0 SWAP4 POP DUP4 SWAP3 POP PUSH1 0x7 SWAP2 POP PUSH2 0x1F3A SWAP1 POP PUSH2 0x3998 JUMP JUMPDEST SWAP1 PUSH2 0x100 EXP SWAP1 DIV PUSH1 0x1 PUSH1 0x1 PUSH1 0xA0 SHL SUB AND PUSH1 0x1 PUSH1 0x1 PUSH1 0xA0 SHL SUB AND PUSH4 0x70A08231 DUP6 PUSH1 0x40 MLOAD PUSH1 0x1 PUSH1 0x1 PUSH1 0xE0 SHL SUB NOT PUSH1 0xE0 DUP5 SWAP1 SHL AND DUP2 MSTORE PUSH1 0x1 PUSH1 0x1 PUSH1 0xA0 SHL SUB SWAP1 SWAP2 AND PUSH1 0x4 DUP3 ADD MSTORE PUSH1 0x24 ADD PUSH1 0x20 PUSH1 0x40 MLOAD DUP1 DUP4 SUB DUP2 DUP7 DUP1 PUSH2 0x1F93 PUSH2 0x39F3 JUMP JUMPDEST ISZERO DUP1 ISZERO PUSH2 0x1FA8 JUMPI PUSH1 0x0 DUP1 PUSH2 0x1FA5 PUSH2 0x392D JUMP JUMPDEST POP POP JUMPDEST POP GAS PUSH2 0x1FB2 PUSH2 0x3B46 JUMP JUMPDEST POP POP POP POP POP ISZERO DUP1 ISZERO PUSH2 0x1FD1 JUMPI RETURNDATASIZE PUSH1 0x0 DUP1 RETURNDATACOPY RETURNDATASIZE PUSH1 0x0 PUSH2 0x1FCE PUSH2 0x392D JUMP JUMPDEST POP POP JUMPDEST POP POP POP POP PUSH1 0x40 MLOAD RETURNDATASIZE PUSH1 0x20 DUP2 LT ISZERO PUSH2 0x1FF0 JUMPI PUSH1 0x0 DUP1 PUSH2 0x1FED PUSH2 0x392D JUMP JUMPDEST POP POP JUMPDEST DUP2 ADD SWAP1 DUP1 DUP1 MLOAD SWAP4 POP POP POP POP DUP1 DUP3 GT ISZERO PUSH2 0x200E JUMPI PUSH1 0x0 SWAP3 POP POP POP PUSH2 0x101E JUMP JUMPDEST PUSH2 0x201E DUP2 DUP4 PUSH4 0xFFFFFFFF PUSH2 0x34CD AND JUMP JUMPDEST SWAP3 POP POP POP PUSH2 0x101E JUMP JUMPDEST PUSH1 0x0 PUSH1 0x4 PUSH2 0x2033 PUSH2 0x3998 JUMP JUMPDEST SWAP1 PUSH2 0x100 EXP SWAP1 DIV PUSH1 0x1 PUSH1 0x1 PUSH1 0xA0 SHL SUB AND PUSH1 0x1 PUSH1 0x1 PUSH1 0xA0 SHL SUB AND GAS PUSH2 0x2055 PUSH2 0x3BFF JUMP JUMPDEST PUSH1 0x1 PUSH1 0x1 PUSH1 0xA0 SHL SUB AND EQ ISZERO DUP1 ISZERO PUSH2 0x20A1 JUMPI POP PUSH1 0x0 PUSH1 0x5 PUSH2 0x2073 PUSH2 0x3998 JUMP JUMPDEST SWAP1 PUSH2 0x100 EXP SWAP1 DIV PUSH1 0x1 PUSH1 0x1 PUSH1 0xA0 SHL SUB AND PUSH1 0x1 PUSH1 0x1 PUSH1 0xA0 SHL SUB AND GAS PUSH2 0x2095 PUSH2 0x3BFF JUMP JUMPDEST PUSH1 0x1 PUSH1 0x1 PUSH1 0xA0 SHL SUB AND EQ ISZERO JUMPDEST DUP1 ISZERO PUSH2 0x20E2 JUMPI POP GAS PUSH2 0x20B1 PUSH2 0x3BFF JUMP JUMPDEST PUSH1 0x1 PUSH1 0x1 PUSH1 0xA0 SHL SUB AND PUSH1 0x0 PUSH1 0x6 PUSH2 0x20C6 PUSH2 0x3998 JUMP JUMPDEST SWAP1 PUSH2 0x100 EXP SWAP1 DIV PUSH1 0x1 PUSH1 0x1 PUSH1 0xA0 SHL SUB AND PUSH1 0x1 PUSH1 0x1 PUSH1 0xA0 SHL SUB AND EQ ISZERO JUMPDEST ISZERO PUSH2 0x20FD JUMPI GAS PUSH2 0x20F0 PUSH2 0x3BFF JUMP JUMPDEST PUSH1 0x6 PUSH1 0x1 DUP2 PUSH2 0x1251 PUSH2 0x3998 JUMP JUMPDEST JUMP JUMPDEST PUSH1 0x0 PUSH1 0x4 PUSH2 0x210B PUSH2 0x3998 JUMP JUMPDEST SWAP1 PUSH2 0x100 EXP SWAP1 DIV PUSH1 0x1 PUSH1 0x1 PUSH1 0xA0 SHL SUB AND PUSH1 0x1 PUSH1 0x1 PUSH1 0xA0 SHL SUB AND PUSH4 0x907DFF97 DUP3 PUSH1 0x40 MLOAD PUSH1 0x20 ADD DUP1 DUP3 DUP2 MSTORE PUSH1 0x20 ADD SWAP2 POP POP PUSH1 0x40 MLOAD PUSH1 0x20 DUP2 DUP4 SUB SUB DUP2 MSTORE SWAP1 PUSH1 0x40 MSTORE PUSH1 0x3 PUSH1 0x40 MLOAD DUP1 PUSH1 0x21 PUSH2 0x3D6F DUP3 CODECOPY PUSH1 0x21 ADD SWAP1 POP PUSH1 0x40 MLOAD DUP1 SWAP2 SUB SWAP1 KECCAK256 PUSH2 0x216C DUP9 PUSH2 0x3532 JUMP JUMPDEST PUSH2 0x2175 DUP9 PUSH2 0x3532 JUMP JUMPDEST PUSH1 0x0 PUSH1 0x40 MLOAD DUP8 PUSH4 0xFFFFFFFF AND PUSH1 0xE0 SHL DUP2 MSTORE PUSH1 0x4 ADD DUP1 DUP1 PUSH1 0x20 ADD DUP8 DUP2 MSTORE PUSH1 0x20 ADD DUP7 DUP2 MSTORE PUSH1 0x20 ADD DUP6 DUP2 MSTORE PUSH1 0x20 ADD DUP5 DUP2 MSTORE PUSH1 0x20 ADD DUP4 PUSH1 0x0 SHL DUP2 MSTORE PUSH1 0x20 ADD DUP3 DUP2 SUB DUP3 MSTORE DUP9 DUP2 DUP2 MLOAD DUP2 MSTORE PUSH1 0x20 ADD SWAP2 POP DUP1 MLOAD SWAP1 PUSH1 0x20 ADD SWAP1 DUP1 DUP4 DUP4 PUSH1 0x0 JUMPDEST DUP4 DUP2 LT ISZERO PUSH2 0x21E4 JUMPI DUP1 DUP3 ADD MLOAD DUP4 DUP3 ADD MSTORE PUSH1 0x20 ADD PUSH2 0x21CC JUMP JUMPDEST POP POP POP POP SWAP1 POP SWAP1 DUP2 ADD SWAP1 PUSH1 0x1F AND DUP1 ISZERO PUSH2 0x2211 JUMPI DUP1 DUP3 SUB DUP1 MLOAD PUSH1 0x1 DUP4 PUSH1 0x20 SUB PUSH2 0x100 EXP SUB NOT AND DUP2 MSTORE PUSH1 0x20 ADD SWAP2 POP JUMPDEST POP SWAP8 POP POP POP POP POP POP POP POP PUSH1 0x0 PUSH1 0x40 MLOAD DUP1 DUP4 SUB DUP2 PUSH1 0x0 DUP8 DUP1 PUSH2 0x2230 PUSH2 0x39F3 JUMP JUMPDEST ISZERO DUP1 ISZERO PUSH2 0x2245 JUMPI PUSH1 0x0 DUP1 PUSH2 0x2242 PUSH2 0x392D JUMP JUMPDEST POP POP JUMPDEST POP GAS PUSH2 0x224F PUSH2 0x3A3F JUMP JUMPDEST POP POP POP POP POP POP ISZERO DUP1 ISZERO PUSH2 0x226F JUMPI RETURNDATASIZE PUSH1 0x0 DUP1 RETURNDATACOPY RETURNDATASIZE PUSH1 0x0 PUSH2 0x226C PUSH2 0x392D JUMP JUMPDEST POP POP JUMPDEST POP POP POP POP POP POP POP JUMP JUMPDEST PUSH1 0x0 DUP1 PUSH2 0x2283 PUSH2 0x3998 JUMP JUMPDEST SWAP1 PUSH2 0x100 EXP SWAP1 DIV PUSH1 0x1 PUSH1 0x1 PUSH1 0xA0 SHL SUB AND PUSH1 0x1 PUSH1 0x1 PUSH1 0xA0 SHL SUB AND GAS PUSH2 0x22A5 PUSH2 0x3BFF JUMP JUMPDEST PUSH1 0x1 PUSH1 0x1 PUSH1 0xA0 SHL SUB AND EQ PUSH2 0x20FD JUMPI PUSH1 0x40 MLOAD PUSH3 0x461BCD PUSH1 0xE5 SHL DUP2 MSTORE PUSH1 0x4 ADD DUP1 DUP1 PUSH1 0x20 ADD DUP3 DUP2 SUB DUP3 MSTORE PUSH1 0x2F DUP2 MSTORE PUSH1 0x20 ADD DUP1 PUSH2 0x3D40 PUSH1 0x2F SWAP2 CODECOPY PUSH1 0x40 ADD SWAP2 POP POP PUSH1 0x40 MLOAD DUP1 SWAP2 SUB SWAP1 PUSH2 0xE36 PUSH2 0x392D JUMP JUMPDEST PUSH2 0x22F8 PUSH2 0x27FD JUMP JUMPDEST PUSH1 0x1 PUSH1 0x1 PUSH1 0xA0 SHL SUB AND PUSH4 0x59C29EC DUP4 PUSH1 0xE PUSH2 0x2311 PUSH2 0x3998 JUMP JUMPDEST PUSH1 0x40 MLOAD PUSH1 0x1 PUSH1 0x1 PUSH1 0xE0 SHL SUB NOT PUSH1 0xE0 DUP6 SWAP1 SHL AND DUP2 MSTORE PUSH1 0x1 PUSH1 0x1 PUSH1 0xA0 SHL SUB SWAP1 SWAP3 AND PUSH1 0x4 DUP4 ADD MSTORE PUSH1 0x24 DUP3 ADD MSTORE PUSH1 0x44 ADD PUSH1 0x20 PUSH1 0x40 MLOAD DUP1 DUP4 SUB DUP2 DUP7 DUP1 PUSH2 0x2350 PUSH2 0x39F3 JUMP JUMPDEST ISZERO DUP1 ISZERO PUSH2 0x2365 JUMPI PUSH1 0x0 DUP1 PUSH2 0x2362 PUSH2 0x392D JUMP JUMPDEST POP POP JUMPDEST POP GAS PUSH2 0x236F PUSH2 0x3B46 JUMP JUMPDEST POP POP POP POP POP ISZERO DUP1 ISZERO PUSH2 0x238E JUMPI RETURNDATASIZE PUSH1 0x0 DUP1 RETURNDATACOPY RETURNDATASIZE PUSH1 0x0 PUSH2 0x238B PUSH2 0x392D JUMP JUMPDEST POP POP JUMPDEST POP POP POP POP PUSH1 0x40 MLOAD RETURNDATASIZE PUSH1 0x20 DUP2 LT ISZERO PUSH2 0x23AD JUMPI PUSH1 0x0 DUP1 PUSH2 0x23AA PUSH2 0x392D JUMP JUMPDEST POP POP JUMPDEST DUP2 ADD SWAP1 DUP1 DUP1 MLOAD ISZERO SWAP3 POP PUSH2 0x23FD SWAP2 POP POP JUMPI PUSH1 0x40 MLOAD PUSH3 0x461BCD PUSH1 0xE5 SHL DUP2 MSTORE PUSH1 0x4 ADD DUP1 DUP1 PUSH1 0x20 ADD DUP3 DUP2 SUB DUP3 MSTORE PUSH1 0x25 DUP2 MSTORE PUSH1 0x20 ADD DUP1 PUSH2 0x3D90 PUSH1 0x25 SWAP2 CODECOPY PUSH1 0x40 ADD SWAP2 POP POP PUSH1 0x40 MLOAD DUP1 SWAP2 SUB SWAP1 PUSH2 0x23FA PUSH2 0x392D JUMP JUMPDEST POP POP JUMPDEST DUP1 PUSH2 0x2407 DUP4 PUSH2 0x1E4B JUMP JUMPDEST LT ISZERO PUSH2 0x244D JUMPI PUSH1 0x40 MLOAD PUSH3 0x461BCD PUSH1 0xE5 SHL DUP2 MSTORE PUSH1 0x4 ADD DUP1 DUP1 PUSH1 0x20 ADD DUP3 DUP2 SUB DUP3 MSTORE PUSH1 0x2F DUP2 MSTORE PUSH1 0x20 ADD DUP1 PUSH2 0x3CDE PUSH1 0x2F SWAP2 CODECOPY PUSH1 0x40 ADD SWAP2 POP POP PUSH1 0x40 MLOAD DUP1 SWAP2 SUB SWAP1 PUSH2 0x244A PUSH2 0x392D JUMP JUMPDEST POP POP JUMPDEST PUSH2 0x2455 PUSH2 0x353E JUMP JUMPDEST PUSH1 0x1 PUSH1 0x1 PUSH1 0xA0 SHL SUB AND PUSH4 0x42A28E21 PUSH1 0xE PUSH2 0x246D PUSH2 0x3998 JUMP JUMPDEST PUSH1 0x40 MLOAD PUSH1 0x1 PUSH1 0x1 PUSH1 0xE0 SHL SUB NOT PUSH1 0xE0 DUP5 SWAP1 SHL AND DUP2 MSTORE PUSH1 0x4 DUP2 ADD SWAP2 SWAP1 SWAP2 MSTORE PUSH1 0x24 ADD PUSH1 0x0 PUSH1 0x40 MLOAD DUP1 DUP4 SUB DUP2 DUP7 DUP1 PUSH2 0x249F PUSH2 0x39F3 JUMP JUMPDEST ISZERO DUP1 ISZERO PUSH2 0x24B4 JUMPI PUSH1 0x0 DUP1 PUSH2 0x24B1 PUSH2 0x392D JUMP JUMPDEST POP POP JUMPDEST POP GAS PUSH2 0x24BE PUSH2 0x3B46 JUMP JUMPDEST POP POP POP POP POP ISZERO DUP1 ISZERO PUSH2 0x16A4 JUMPI RETURNDATASIZE PUSH1 0x0 DUP1 RETURNDATACOPY RETURNDATASIZE PUSH1 0x0 PUSH2 0x24DA PUSH2 0x392D JUMP JUMPDEST POP POP POP POP POP POP POP POP JUMP JUMPDEST PUSH1 0x0 PUSH1 0x0 NOT DUP2 PUSH1 0x7 PUSH2 0x24F4 PUSH2 0x3998 JUMP JUMPDEST PUSH1 0x1 PUSH1 0x1 PUSH1 0xA0 SHL SUB PUSH2 0x100 SWAP3 SWAP1 SWAP3 EXP SWAP1 DIV AND PUSH4 0xDD62ED3E DUP7 PUSH1 0x0 PUSH1 0x6 PUSH2 0x2518 PUSH2 0x3998 JUMP JUMPDEST SWAP1 PUSH2 0x100 EXP SWAP1 DIV PUSH1 0x1 PUSH1 0x1 PUSH1 0xA0 SHL SUB AND PUSH1 0x40 MLOAD PUSH1 0x1 PUSH1 0x1 PUSH1 0xE0 SHL SUB NOT PUSH1 0xE0 DUP6 SWAP1 SHL AND DUP2 MSTORE PUSH1 0x1 PUSH1 0x1 PUSH1 0xA0 SHL SUB SWAP3 DUP4 AND PUSH1 0x4 DUP3 ADD MSTORE SWAP2 AND PUSH1 0x24 DUP3 ADD MSTORE PUSH1 0x44 ADD PUSH1 0x20 PUSH1 0x40 MLOAD DUP1 DUP4 SUB DUP2 DUP7 DUP1 PUSH2 0x2569 PUSH2 0x39F3 JUMP JUMPDEST ISZERO DUP1 ISZERO PUSH2 0x257E JUMPI PUSH1 0x0 DUP1 PUSH2 0x257B PUSH2 0x392D JUMP JUMPDEST POP POP JUMPDEST POP GAS PUSH2 0x2588 PUSH2 0x3B46 JUMP JUMPDEST POP POP POP POP POP ISZERO DUP1 ISZERO PUSH2 0x25A7 JUMPI RETURNDATASIZE PUSH1 0x0 DUP1 RETURNDATACOPY RETURNDATASIZE PUSH1 0x0 PUSH2 0x25A4 PUSH2 0x392D JUMP JUMPDEST POP POP JUMPDEST POP POP POP POP PUSH1 0x40 MLOAD RETURNDATASIZE PUSH1 0x20 DUP2 LT ISZERO PUSH2 0x25C6 JUMPI PUSH1 0x0 DUP1 PUSH2 0x25C3 PUSH2 0x392D JUMP JUMPDEST POP POP JUMPDEST DUP2 ADD SWAP1 DUP1 DUP1 MLOAD SWAP4 SWAP1 SWAP4 EQ SWAP3 POP PUSH2 0x27A4 SWAP2 POP POP JUMPI PUSH1 0x0 PUSH1 0x7 PUSH2 0x25E5 PUSH2 0x3998 JUMP JUMPDEST PUSH1 0x1 PUSH1 0x1 PUSH1 0xA0 SHL SUB PUSH2 0x100 SWAP3 SWAP1 SWAP3 EXP SWAP1 DIV AND PUSH4 0xDA46098C DUP6 PUSH1 0x0 PUSH1 0x6 PUSH2 0x2609 PUSH2 0x3998 JUMP JUMPDEST SWAP1 PUSH2 0x100 EXP SWAP1 DIV PUSH1 0x1 PUSH1 0x1 PUSH1 0xA0 SHL SUB AND PUSH2 0x2713 DUP7 PUSH1 0x7 PUSH1 0x0 SWAP1 PUSH2 0x262A PUSH2 0x3998 JUMP JUMPDEST PUSH1 0x1 PUSH1 0x1 PUSH1 0xA0 SHL SUB PUSH2 0x100 SWAP3 SWAP1 SWAP3 EXP SWAP1 DIV AND PUSH4 0xDD62ED3E DUP12 PUSH1 0x0 PUSH1 0x6 PUSH2 0x264E PUSH2 0x3998 JUMP JUMPDEST SWAP1 PUSH2 0x100 EXP SWAP1 DIV PUSH1 0x1 PUSH1 0x1 PUSH1 0xA0 SHL SUB AND PUSH1 0x40 MLOAD PUSH1 0x1 PUSH1 0x1 PUSH1 0xE0 SHL SUB NOT PUSH1 0xE0 DUP6 SWAP1 SHL AND DUP2 MSTORE PUSH1 0x1 PUSH1 0x1 PUSH1 0xA0 SHL SUB SWAP3 DUP4 AND PUSH1 0x4 DUP3 ADD MSTORE SWAP2 AND PUSH1 0x24 DUP3 ADD MSTORE PUSH1 0x44 ADD PUSH1 0x20 PUSH1 0x40 MLOAD DUP1 DUP4 SUB DUP2 DUP7 DUP1 PUSH2 0x269F PUSH2 0x39F3 JUMP JUMPDEST ISZERO DUP1 ISZERO PUSH2 0x26B4 JUMPI PUSH1 0x0 DUP1 PUSH2 0x26B1 PUSH2 0x392D JUMP JUMPDEST POP POP JUMPDEST POP GAS PUSH2 0x26BE PUSH2 0x3B46 JUMP JUMPDEST POP POP POP POP POP ISZERO DUP1 ISZERO PUSH2 0x26DD JUMPI RETURNDATASIZE PUSH1 0x0 DUP1 RETURNDATACOPY RETURNDATASIZE PUSH1 0x0 PUSH2 0x26DA PUSH2 0x392D JUMP JUMPDEST POP POP JUMPDEST POP POP POP POP PUSH1 0x40 MLOAD RETURNDATASIZE PUSH1 0x20 DUP2 LT ISZERO PUSH2 0x26FC JUMPI PUSH1 0x0 DUP1 PUSH2 0x26F9 PUSH2 0x392D JUMP JUMPDEST POP POP JUMPDEST DUP2 ADD SWAP1 DUP1 DUP1 MLOAD SWAP4 SWAP3 POP POP PUSH4 0xFFFFFFFF PUSH2 0x34CD AND SWAP1 POP JUMP JUMPDEST PUSH1 0x40 MLOAD PUSH1 0x1 PUSH1 0x1 PUSH1 0xE0 SHL SUB NOT PUSH1 0xE0 DUP7 SWAP1 SHL AND DUP2 MSTORE PUSH1 0x1 PUSH1 0x1 PUSH1 0xA0 SHL SUB SWAP4 DUP5 AND PUSH1 0x4 DUP3 ADD MSTORE SWAP2 SWAP1 SWAP3 AND PUSH1 0x24 DUP3 ADD MSTORE PUSH1 0x44 DUP2 ADD SWAP2 SWAP1 SWAP2 MSTORE PUSH1 0x64 ADD PUSH1 0x0 PUSH1 0x40 MLOAD DUP1 DUP4 SUB DUP2 PUSH1 0x0 DUP8 DUP1 PUSH2 0x2760 PUSH2 0x39F3 JUMP JUMPDEST ISZERO DUP1 ISZERO PUSH2 0x2775 JUMPI PUSH1 0x0 DUP1 PUSH2 0x2772 PUSH2 0x392D JUMP JUMPDEST POP POP JUMPDEST POP GAS PUSH2 0x277F PUSH2 0x3A3F JUMP JUMPDEST POP POP POP POP POP POP ISZERO DUP1 ISZERO PUSH2 0x279F JUMPI RETURNDATASIZE PUSH1 0x0 DUP1 RETURNDATACOPY RETURNDATASIZE PUSH1 0x0 PUSH2 0x279C PUSH2 0x392D JUMP JUMPDEST POP POP JUMPDEST POP POP POP POP JUMPDEST PUSH2 0xBD8 DUP5 DUP5 DUP5 PUSH2 0x30B2 JUMP JUMPDEST PUSH1 0x0 PUSH2 0x27F8 PUSH7 0x119959541BDBDB PUSH1 0xCA SHL PUSH1 0x40 MLOAD PUSH1 0x40 DUP1 DUP3 ADD SWAP1 MSTORE PUSH1 0x17 DUP2 MSTORE PUSH32 0x4D697373696E6720466565506F6F6C2061646472657373000000000000000000 PUSH1 0x20 DUP3 ADD MSTORE PUSH2 0x3588 JUMP JUMPDEST SWAP1 POP SWAP1 JUMP JUMPDEST PUSH1 0x0 PUSH2 0x27F8 PUSH9 0x22BC31B430B733B2B9 PUSH1 0xB9 SHL PUSH1 0x40 MLOAD PUSH1 0x40 DUP1 DUP3 ADD SWAP1 MSTORE PUSH1 0x19 DUP2 MSTORE PUSH32 0x4D697373696E672045786368616E676572206164647265737300000000000000 PUSH1 0x20 DUP3 ADD MSTORE PUSH2 0x3588 JUMP JUMPDEST PUSH1 0x0 PUSH2 0x27F8 PUSH6 0x24B9B9BAB2B9 PUSH1 0xD1 SHL PUSH1 0x40 MLOAD PUSH1 0x40 DUP1 DUP3 ADD SWAP1 MSTORE PUSH1 0x16 DUP2 MSTORE PUSH22 0x4D697373696E67204973737565722061646472657373 PUSH1 0x50 SHL PUSH1 0x20 DUP3 ADD MSTORE PUSH2 0x3588 JUMP JUMPDEST PUSH1 0x0 PUSH1 0x7 PUSH2 0x2895 PUSH2 0x3998 JUMP JUMPDEST PUSH1 0x1 PUSH1 0x1 PUSH1 0xA0 SHL SUB PUSH2 0x100 SWAP3 SWAP1 SWAP3 EXP SWAP1 DIV AND PUSH4 0xB46310F6 DUP4 PUSH2 0x298A DUP5 PUSH1 0x0 PUSH1 0x7 PUSH2 0x28BD PUSH2 0x3998 JUMP JUMPDEST SWAP1 PUSH2 0x100 EXP SWAP1 DIV PUSH1 0x1 PUSH1 0x1 PUSH1 0xA0 SHL SUB AND PUSH1 0x1 PUSH1 0x1 PUSH1 0xA0 SHL SUB AND PUSH4 0x70A08231 DUP9 PUSH1 0x40 MLOAD PUSH1 0x1 PUSH1 0x1 PUSH1 0xE0 SHL SUB NOT PUSH1 0xE0 DUP5 SWAP1 SHL AND DUP2 MSTORE PUSH1 0x1 PUSH1 0x1 PUSH1 0xA0 SHL SUB SWAP1 SWAP2 AND PUSH1 0x4 DUP3 ADD MSTORE PUSH1 0x24 ADD PUSH1 0x20 PUSH1 0x40 MLOAD DUP1 DUP4 SUB DUP2 DUP7 DUP1 PUSH2 0x2916 PUSH2 0x39F3 JUMP JUMPDEST ISZERO DUP1 ISZERO PUSH2 0x292B JUMPI PUSH1 0x0 DUP1 PUSH2 0x2928 PUSH2 0x392D JUMP JUMPDEST POP POP JUMPDEST POP GAS PUSH2 0x2935 PUSH2 0x3B46 JUMP JUMPDEST POP POP POP POP POP ISZERO DUP1 ISZERO PUSH2 0x2954 JUMPI RETURNDATASIZE PUSH1 0x0 DUP1 RETURNDATACOPY RETURNDATASIZE PUSH1 0x0 PUSH2 0x2951 PUSH2 0x392D JUMP JUMPDEST POP POP JUMPDEST POP POP POP POP PUSH1 0x40 MLOAD RETURNDATASIZE PUSH1 0x20 DUP2 LT ISZERO PUSH2 0x2973 JUMPI PUSH1 0x0 DUP1 PUSH2 0x2970 PUSH2 0x392D JUMP JUMPDEST POP POP JUMPDEST DUP2 ADD SWAP1 DUP1 DUP1 MLOAD SWAP4 SWAP3 POP POP PUSH4 0xFFFFFFFF PUSH2 0x3651 AND SWAP1 POP JUMP JUMPDEST PUSH1 0x40 MLOAD PUSH1 0x1 PUSH1 0x1 PUSH1 0xE0 SHL SUB NOT PUSH1 0xE0 DUP6 SWAP1 SHL AND DUP2 MSTORE PUSH1 0x1 PUSH1 0x1 PUSH1 0xA0 SHL SUB SWAP1 SWAP3 AND PUSH1 0x4 DUP4 ADD MSTORE PUSH1 0x24 DUP3 ADD MSTORE PUSH1 0x44 ADD PUSH1 0x0 PUSH1 0x40 MLOAD DUP1 DUP4 SUB DUP2 PUSH1 0x0 DUP8 DUP1 PUSH2 0x29CB PUSH2 0x39F3 JUMP JUMPDEST ISZERO DUP1 ISZERO PUSH2 0x29E0 JUMPI PUSH1 0x0 DUP1 PUSH2 0x29DD PUSH2 0x392D JUMP JUMPDEST POP POP JUMPDEST POP GAS PUSH2 0x29EA PUSH2 0x3A3F JUMP JUMPDEST POP POP POP POP POP POP ISZERO DUP1 ISZERO PUSH2 0x2A0A JUMPI RETURNDATASIZE PUSH1 0x0 DUP1 RETURNDATACOPY RETURNDATASIZE PUSH1 0x0 PUSH2 0x2A07 PUSH2 0x392D JUMP JUMPDEST POP POP JUMPDEST POP POP POP POP PUSH2 0x2A28 DUP2 PUSH1 0xA PUSH2 0x2A1C PUSH2 0x3998 JUMP JUMPDEST SWAP1 PUSH4 0xFFFFFFFF PUSH2 0x3651 AND JUMP JUMPDEST DUP1 PUSH1 0xA PUSH2 0x2A33 PUSH2 0x3AF8 JUMP JUMPDEST POP POP POP PUSH2 0x2A42 PUSH1 0x0 DUP4 DUP4 PUSH2 0x36B9 JUMP JUMPDEST PUSH2 0xE36 DUP3 DUP3 PUSH2 0x3726 JUMP JUMPDEST PUSH1 0x0 DUP1 PUSH1 0x7 PUSH2 0x2A59 PUSH2 0x3998 JUMP JUMPDEST PUSH1 0x1 PUSH1 0x1 PUSH1 0xA0 SHL SUB PUSH2 0x100 SWAP3 SWAP1 SWAP3 EXP SWAP1 DIV AND PUSH4 0xB46310F6 DUP5 PUSH2 0x2ADA DUP6 PUSH1 0x0 PUSH1 0x7 PUSH2 0x2A81 PUSH2 0x3998 JUMP JUMPDEST SWAP1 PUSH2 0x100 EXP SWAP1 DIV PUSH1 0x1 PUSH1 0x1 PUSH1 0xA0 SHL SUB AND PUSH1 0x1 PUSH1 0x1 PUSH1 0xA0 SHL SUB AND PUSH4 0x70A08231 DUP10 PUSH1 0x40 MLOAD PUSH1 0x1 PUSH1 0x1 PUSH1 0xE0 SHL SUB NOT PUSH1 0xE0 DUP5 SWAP1 SHL AND DUP2 MSTORE PUSH1 0x1 PUSH1 0x1 PUSH1 0xA0 SHL SUB SWAP1 SWAP2 AND PUSH1 0x4 DUP3 ADD MSTORE PUSH1 0x24 ADD PUSH1 0x20 PUSH1 0x40 MLOAD DUP1 DUP4 SUB DUP2 DUP7 DUP1 PUSH2 0x269F PUSH2 0x39F3 JUMP JUMPDEST PUSH1 0x40 MLOAD PUSH1 0x1 PUSH1 0x1 PUSH1 0xE0 SHL SUB NOT PUSH1 0xE0 DUP6 SWAP1 SHL AND DUP2 MSTORE PUSH1 0x1 PUSH1 0x1 PUSH1 0xA0 SHL SUB SWAP1 SWAP3 AND PUSH1 0x4 DUP4 ADD MSTORE PUSH1 0x24 DUP3 ADD MSTORE PUSH1 0x44 ADD PUSH1 0x0 PUSH1 0x40 MLOAD DUP1 DUP4 SUB DUP2 PUSH1 0x0 DUP8 DUP1 PUSH2 0x2B1B PUSH2 0x39F3 JUMP JUMPDEST ISZERO DUP1 ISZERO PUSH2 0x2B30 JUMPI PUSH1 0x0 DUP1 PUSH2 0x2B2D PUSH2 0x392D JUMP JUMPDEST POP POP JUMPDEST POP GAS PUSH2 0x2B3A PUSH2 0x3A3F JUMP JUMPDEST POP POP POP POP POP POP ISZERO DUP1 ISZERO PUSH2 0x2B5A JUMPI RETURNDATASIZE PUSH1 0x0 DUP1 RETURNDATACOPY RETURNDATASIZE PUSH1 0x0 PUSH2 0x2B57 PUSH2 0x392D JUMP JUMPDEST POP POP JUMPDEST POP POP POP POP PUSH2 0x2B78 DUP3 PUSH1 0xA PUSH2 0x2B6C PUSH2 0x3998 JUMP JUMPDEST SWAP1 PUSH4 0xFFFFFFFF PUSH2 0x34CD AND JUMP JUMPDEST DUP1 PUSH1 0xA PUSH2 0x2B83 PUSH2 0x3AF8 JUMP JUMPDEST POP POP POP PUSH2 0x2B92 DUP4 PUSH1 0x0 DUP5 PUSH2 0x36B9 JUMP JUMPDEST PUSH2 0x2B9C DUP4 DUP4 PUSH2 0x38A7 JUMP JUMPDEST POP PUSH1 0x1 SWAP3 SWAP2 POP POP JUMP JUMPDEST PUSH1 0x0 PUSH1 0x4 PUSH2 0x2BB1 PUSH2 0x3998 JUMP JUMPDEST SWAP1 PUSH2 0x100 EXP SWAP1 DIV PUSH1 0x1 PUSH1 0x1 PUSH1 0xA0 SHL SUB AND PUSH1 0x1 PUSH1 0x1 PUSH1 0xA0 SHL SUB AND GAS PUSH2 0x2BD3 PUSH2 0x3BFF JUMP JUMPDEST PUSH1 0x1 PUSH1 0x1 PUSH1 0xA0 SHL SUB AND EQ ISZERO DUP1 ISZERO PUSH2 0x2C1F JUMPI POP PUSH1 0x0 PUSH1 0x5 PUSH2 0x2BF1 PUSH2 0x3998 JUMP JUMPDEST SWAP1 PUSH2 0x100 EXP SWAP1 DIV PUSH1 0x1 PUSH1 0x1 PUSH1 0xA0 SHL SUB AND PUSH1 0x1 PUSH1 0x1 PUSH1 0xA0 SHL SUB AND GAS PUSH2 0x2C13 PUSH2 0x3BFF JUMP JUMPDEST PUSH1 0x1 PUSH1 0x1 PUSH1 0xA0 SHL SUB AND EQ ISZERO JUMPDEST DUP1 ISZERO PUSH2 0x2C60 JUMPI POP GAS PUSH2 0x2C2F PUSH2 0x3BFF JUMP JUMPDEST PUSH1 0x1 PUSH1 0x1 PUSH1 0xA0 SHL SUB AND PUSH1 0x0 PUSH1 0x6 PUSH2 0x2C44 PUSH2 0x3998 JUMP JUMPDEST SWAP1 PUSH2 0x100 EXP SWAP1 DIV PUSH1 0x1 PUSH1 0x1 PUSH1 0xA0 SHL SUB AND PUSH1 0x1 PUSH1 0x1 PUSH1 0xA0 SHL SUB AND EQ ISZERO JUMPDEST ISZERO PUSH2 0x2CA1 JUMPI GAS PUSH2 0x2C6E PUSH2 0x3BFF JUMP JUMPDEST PUSH1 0x6 PUSH1 0x1 DUP2 PUSH2 0x2C7B PUSH2 0x3998 JUMP JUMPDEST DUP2 PUSH1 0x1 PUSH1 0x1 PUSH1 0xA0 SHL SUB MUL NOT AND SWAP1 DUP4 PUSH1 0x1 PUSH1 0x1 PUSH1 0xA0 SHL SUB AND MUL OR SWAP1 PUSH2 0x2C9D PUSH2 0x3AF8 JUMP JUMPDEST POP POP POP JUMPDEST PUSH1 0x0 DUP1 PUSH2 0x2CAC PUSH2 0x3998 JUMP JUMPDEST PUSH1 0x1 PUSH1 0x1 PUSH1 0xA0 SHL SUB PUSH2 0x100 SWAP3 SWAP1 SWAP3 EXP SWAP1 DIV AND PUSH1 0x0 PUSH1 0x6 PUSH2 0x2CCA PUSH2 0x3998 JUMP JUMPDEST SWAP1 PUSH2 0x100 EXP SWAP1 DIV PUSH1 0x1 PUSH1 0x1 PUSH1 0xA0 SHL SUB AND PUSH1 0x1 PUSH1 0x1 PUSH1 0xA0 SHL SUB AND EQ PUSH2 0x20FD JUMPI PUSH1 0x40 MLOAD PUSH3 0x461BCD PUSH1 0xE5 SHL DUP2 MSTORE PUSH1 0x20 PUSH1 0x4 DUP3 ADD MSTORE PUSH1 0x13 PUSH1 0x24 DUP3 ADD MSTORE PUSH19 0x27BBB732B91037B7363C90333AB731BA34B7B7 PUSH1 0x69 SHL PUSH1 0x44 DUP3 ADD MSTORE PUSH1 0x64 ADD PUSH1 0x40 MLOAD DUP1 SWAP2 SUB SWAP1 PUSH2 0xE36 PUSH2 0x392D JUMP JUMPDEST PUSH1 0x0 PUSH1 0x4 PUSH2 0x2D3C PUSH2 0x3998 JUMP JUMPDEST SWAP1 PUSH2 0x100 EXP SWAP1 DIV PUSH1 0x1 PUSH1 0x1 PUSH1 0xA0 SHL SUB AND PUSH1 0x1 PUSH1 0x1 PUSH1 0xA0 SHL SUB AND PUSH4 0x907DFF97 DUP3 PUSH1 0x40 MLOAD PUSH1 0x1 PUSH1 0x1 PUSH1 0xA0 SHL SUB SWAP1 SWAP2 AND PUSH1 0x20 DUP3 ADD MSTORE PUSH1 0x40 SWAP1 DUP2 ADD SWAP1 MLOAD PUSH1 0x20 DUP2 DUP4 SUB SUB DUP2 MSTORE SWAP1 PUSH1 0x40 MSTORE PUSH1 0x1 PUSH1 0x40 MLOAD PUSH32 0x546F6B656E537461746555706461746564286164647265737329000000000000 DUP2 MSTORE PUSH1 0x1A ADD PUSH1 0x40 MLOAD DUP1 SWAP2 SUB SWAP1 KECCAK256 PUSH1 0x0 DUP1 PUSH1 0x0 PUSH1 0x40 MLOAD DUP8 PUSH4 0xFFFFFFFF AND PUSH1 0xE0 SHL DUP2 MSTORE PUSH1 0x4 ADD DUP1 DUP1 PUSH1 0x20 ADD DUP8 DUP2 MSTORE PUSH1 0x20 ADD DUP7 DUP2 MSTORE PUSH1 0x20 ADD DUP6 PUSH1 0x0 SHL DUP2 MSTORE PUSH1 0x20 ADD DUP5 PUSH1 0x0 SHL DUP2 MSTORE PUSH1 0x20 ADD DUP4 PUSH1 0x0 SHL DUP2 MSTORE PUSH1 0x20 ADD DUP3 DUP2 SUB DUP3 MSTORE DUP9 DUP2 DUP2 MLOAD DUP2 MSTORE PUSH1 0x20 ADD SWAP2 POP DUP1 MLOAD SWAP1 PUSH1 0x20 ADD SWAP1 DUP1 DUP4 DUP4 PUSH1 0x0 JUMPDEST DUP4 DUP2 LT ISZERO PUSH2 0x2E2C JUMPI DUP1 DUP3 ADD MLOAD DUP4 DUP3 ADD MSTORE PUSH1 0x20 ADD PUSH2 0x2E14 JUMP JUMPDEST POP POP POP POP SWAP1 POP SWAP1 DUP2 ADD SWAP1 PUSH1 0x1F AND DUP1 ISZERO PUSH2 0x2E59 JUMPI DUP1 DUP3 SUB DUP1 MLOAD PUSH1 0x1 DUP4 PUSH1 0x20 SUB PUSH2 0x100 EXP SUB NOT AND DUP2 MSTORE PUSH1 0x20 ADD SWAP2 POP JUMPDEST POP SWAP8 POP POP POP POP POP POP POP POP PUSH1 0x0 PUSH1 0x40 MLOAD DUP1 DUP4 SUB DUP2 PUSH1 0x0 DUP8 DUP1 PUSH2 0x2E78 PUSH2 0x39F3 JUMP JUMPDEST ISZERO DUP1 ISZERO PUSH2 0x2E8D JUMPI PUSH1 0x0 DUP1 PUSH2 0x2E8A PUSH2 0x392D JUMP JUMPDEST POP POP JUMPDEST POP GAS PUSH2 0x2E97 PUSH2 0x3A3F JUMP JUMPDEST POP POP POP POP POP POP ISZERO DUP1 ISZERO PUSH2 0x134F JUMPI RETURNDATASIZE PUSH1 0x0 DUP1 RETURNDATACOPY RETURNDATASIZE PUSH1 0x0 PUSH2 0x226F PUSH2 0x392D JUMP JUMPDEST PUSH1 0x0 DUP1 PUSH1 0xE PUSH2 0x2EC1 PUSH2 0x3998 JUMP JUMPDEST PUSH4 0x1CD554D1 PUSH1 0xE2 SHL EQ ISZERO PUSH2 0x2EFD JUMPI POP DUP2 PUSH2 0x2EF7 PUSH1 0x0 PUSH1 0x6 PUSH2 0x2EE0 PUSH2 0x3998 JUMP JUMPDEST SWAP1 PUSH2 0x100 EXP SWAP1 DIV PUSH1 0x1 PUSH1 0x1 PUSH1 0xA0 SHL SUB AND DUP6 DUP6 PUSH2 0x30B2 JUMP JUMPDEST POP PUSH2 0x301A JUMP JUMPDEST PUSH2 0x2F05 PUSH2 0x27FD JUMP JUMPDEST PUSH1 0x1 PUSH1 0x1 PUSH1 0xA0 SHL SUB AND PUSH4 0xA1E187D PUSH1 0x0 PUSH1 0x6 PUSH2 0x2F1F PUSH2 0x3998 JUMP JUMPDEST SWAP1 PUSH2 0x100 EXP SWAP1 DIV PUSH1 0x1 PUSH1 0x1 PUSH1 0xA0 SHL SUB AND PUSH1 0xE PUSH2 0x2F39 PUSH2 0x3998 JUMP JUMPDEST DUP7 PUSH20 0xFEEFEEFEEFEEFEEFEEFEEFEEFEEFEEFEEFEEFEEF PUSH1 0x40 MLOAD PUSH1 0x1 PUSH1 0x1 PUSH1 0xE0 SHL SUB NOT PUSH1 0xE0 DUP8 SWAP1 SHL AND DUP2 MSTORE PUSH1 0x1 PUSH1 0x1 PUSH1 0xA0 SHL SUB SWAP5 DUP6 AND PUSH1 0x4 DUP3 ADD MSTORE PUSH1 0x24 DUP2 ADD SWAP4 SWAP1 SWAP4 MSTORE PUSH1 0x44 DUP4 ADD SWAP2 SWAP1 SWAP2 MSTORE PUSH4 0x1CD554D1 PUSH1 0xE2 SHL PUSH1 0x64 DUP4 ADD MSTORE SWAP1 SWAP2 AND PUSH1 0x84 DUP3 ADD MSTORE PUSH1 0xA4 ADD PUSH1 0x20 PUSH1 0x40 MLOAD DUP1 DUP4 SUB DUP2 PUSH1 0x0 DUP8 DUP1 PUSH2 0x2FB0 PUSH2 0x39F3 JUMP JUMPDEST ISZERO DUP1 ISZERO PUSH2 0x2FC5 JUMPI PUSH1 0x0 DUP1 PUSH2 0x2FC2 PUSH2 0x392D JUMP JUMPDEST POP POP JUMPDEST POP GAS PUSH2 0x2FCF PUSH2 0x3A3F JUMP JUMPDEST POP POP POP POP POP POP ISZERO DUP1 ISZERO PUSH2 0x2FEF JUMPI RETURNDATASIZE PUSH1 0x0 DUP1 RETURNDATACOPY RETURNDATASIZE PUSH1 0x0 PUSH2 0x2FEC PUSH2 0x392D JUMP JUMPDEST POP POP JUMPDEST POP POP POP POP PUSH1 0x40 MLOAD RETURNDATASIZE PUSH1 0x20 DUP2 LT ISZERO PUSH2 0x300E JUMPI PUSH1 0x0 DUP1 PUSH2 0x300B PUSH2 0x392D JUMP JUMPDEST POP POP JUMPDEST DUP2 ADD SWAP1 DUP1 DUP1 MLOAD SWAP4 POP POP POP POP JUMPDEST PUSH2 0x3022 PUSH2 0x27AF JUMP JUMPDEST PUSH1 0x1 PUSH1 0x1 PUSH1 0xA0 SHL SUB AND PUSH4 0x22BF55EF DUP3 PUSH1 0x40 MLOAD PUSH1 0x1 PUSH1 0x1 PUSH1 0xE0 SHL SUB NOT PUSH1 0xE0 DUP5 SWAP1 SHL AND DUP2 MSTORE PUSH1 0x4 DUP2 ADD SWAP2 SWAP1 SWAP2 MSTORE PUSH1 0x24 ADD PUSH1 0x0 PUSH1 0x40 MLOAD DUP1 DUP4 SUB DUP2 PUSH1 0x0 DUP8 DUP1 PUSH2 0x3065 PUSH2 0x39F3 JUMP JUMPDEST ISZERO DUP1 ISZERO PUSH2 0x307A JUMPI PUSH1 0x0 DUP1 PUSH2 0x3077 PUSH2 0x392D JUMP JUMPDEST POP POP JUMPDEST POP GAS PUSH2 0x3084 PUSH2 0x3A3F JUMP JUMPDEST POP POP POP POP POP POP ISZERO DUP1 ISZERO PUSH2 0x30A4 JUMPI RETURNDATASIZE PUSH1 0x0 DUP1 RETURNDATACOPY RETURNDATASIZE PUSH1 0x0 PUSH2 0x30A1 PUSH2 0x392D JUMP JUMPDEST POP POP JUMPDEST POP PUSH1 0x1 SWAP8 SWAP7 POP POP POP POP POP POP POP JUMP JUMPDEST PUSH1 0x0 PUSH1 0x1 PUSH1 0x1 PUSH1 0xA0 SHL SUB DUP4 AND ISZERO DUP1 ISZERO SWAP1 PUSH2 0x3136 JUMPI POP GAS PUSH4 0x996D79A5 MSIZE DUP2 PUSH1 0xE0 SHL DUP2 MSTORE PUSH1 0x20 DUP2 PUSH1 0x4 DUP4 CALLER PUSH1 0x0 SWAP1 GAS CALL PC PUSH1 0xE ADD JUMPI RETURNDATASIZE PUSH1 0x0 DUP1 RETURNDATACOPY RETURNDATASIZE PUSH1 0x0 REVERT JUMPDEST RETURNDATASIZE PUSH1 0x1 EQ ISZERO PC PUSH1 0xA ADD JUMPI PUSH1 0x1 PUSH1 0x0 RETURN JUMPDEST DUP1 MLOAD SWAP3 POP PUSH1 0x0 JUMPDEST PUSH1 0x40 DUP2 LT ISZERO PUSH2 0x311D JUMPI PUSH1 0x0 DUP3 DUP3 ADD MSTORE PUSH1 0x20 ADD PUSH2 0x3106 JUMP JUMPDEST POP POP POP PUSH1 0x1 PUSH1 0x1 PUSH1 0xA0 SHL SUB AND DUP4 PUSH1 0x1 PUSH1 0x1 PUSH1 0xA0 SHL SUB AND EQ ISZERO JUMPDEST DUP1 ISZERO PUSH2 0x316F JUMPI POP PUSH1 0x0 PUSH1 0x4 PUSH2 0x3149 PUSH2 0x3998 JUMP JUMPDEST SWAP1 PUSH2 0x100 EXP SWAP1 DIV PUSH1 0x1 PUSH1 0x1 PUSH1 0xA0 SHL SUB AND PUSH1 0x1 PUSH1 0x1 PUSH1 0xA0 SHL SUB AND DUP4 PUSH1 0x1 PUSH1 0x1 PUSH1 0xA0 SHL SUB AND EQ ISZERO JUMPDEST PUSH2 0x31C8 JUMPI PUSH1 0x40 MLOAD PUSH3 0x461BCD PUSH1 0xE5 SHL DUP2 MSTORE PUSH1 0x20 PUSH1 0x4 DUP3 ADD MSTORE PUSH1 0x1F PUSH1 0x24 DUP3 ADD MSTORE PUSH32 0x43616E6E6F74207472616E7366657220746F2074686973206164647265737300 PUSH1 0x44 DUP3 ADD MSTORE PUSH1 0x64 ADD PUSH1 0x40 MLOAD DUP1 SWAP2 SUB SWAP1 PUSH2 0x31C5 PUSH2 0x392D JUMP JUMPDEST POP POP JUMPDEST PUSH1 0x0 PUSH1 0x7 PUSH2 0x31D4 PUSH2 0x3998 JUMP JUMPDEST PUSH1 0x1 PUSH1 0x1 PUSH1 0xA0 SHL SUB PUSH2 0x100 SWAP3 SWAP1 SWAP3 EXP SWAP1 DIV AND PUSH4 0xB46310F6 DUP6 PUSH2 0x3255 DUP6 PUSH1 0x0 PUSH1 0x7 PUSH2 0x31FC PUSH2 0x3998 JUMP JUMPDEST SWAP1 PUSH2 0x100 EXP SWAP1 DIV PUSH1 0x1 PUSH1 0x1 PUSH1 0xA0 SHL SUB AND PUSH1 0x1 PUSH1 0x1 PUSH1 0xA0 SHL SUB AND PUSH4 0x70A08231 DUP11 PUSH1 0x40 MLOAD PUSH1 0x1 PUSH1 0x1 PUSH1 0xE0 SHL SUB NOT PUSH1 0xE0 DUP5 SWAP1 SHL AND DUP2 MSTORE PUSH1 0x1 PUSH1 0x1 PUSH1 0xA0 SHL SUB SWAP1 SWAP2 AND PUSH1 0x4 DUP3 ADD MSTORE PUSH1 0x24 ADD PUSH1 0x20 PUSH1 0x40 MLOAD DUP1 DUP4 SUB DUP2 DUP7 DUP1 PUSH2 0x269F PUSH2 0x39F3 JUMP JUMPDEST PUSH1 0x40 MLOAD PUSH1 0x1 PUSH1 0x1 PUSH1 0xE0 SHL SUB NOT PUSH1 0xE0 DUP6 SWAP1 SHL AND DUP2 MSTORE PUSH1 0x1 PUSH1 0x1 PUSH1 0xA0 SHL SUB SWAP1 SWAP3 AND PUSH1 0x4 DUP4 ADD MSTORE PUSH1 0x24 DUP3 ADD MSTORE PUSH1 0x44 ADD PUSH1 0x0 PUSH1 0x40 MLOAD DUP1 DUP4 SUB DUP2 PUSH1 0x0 DUP8 DUP1 PUSH2 0x3296 PUSH2 0x39F3 JUMP JUMPDEST ISZERO DUP1 ISZERO PUSH2 0x32AB JUMPI PUSH1 0x0 DUP1 PUSH2 0x32A8 PUSH2 0x392D JUMP JUMPDEST POP POP JUMPDEST POP GAS PUSH2 0x32B5 PUSH2 0x3A3F JUMP JUMPDEST POP POP POP POP POP POP ISZERO DUP1 ISZERO PUSH2 0x32D5 JUMPI RETURNDATASIZE PUSH1 0x0 DUP1 RETURNDATACOPY RETURNDATASIZE PUSH1 0x0 PUSH2 0x32D2 PUSH2 0x392D JUMP JUMPDEST POP POP JUMPDEST POP POP POP POP PUSH1 0x7 PUSH1 0x0 SWAP1 PUSH2 0x32E6 PUSH2 0x3998 JUMP JUMPDEST PUSH1 0x1 PUSH1 0x1 PUSH1 0xA0 SHL SUB PUSH2 0x100 SWAP3 SWAP1 SWAP3 EXP SWAP1 DIV AND PUSH4 0xB46310F6 DUP5 PUSH2 0x3367 DUP6 PUSH1 0x0 PUSH1 0x7 PUSH2 0x330E PUSH2 0x3998 JUMP JUMPDEST SWAP1 PUSH2 0x100 EXP SWAP1 DIV PUSH1 0x1 PUSH1 0x1 PUSH1 0xA0 SHL SUB AND PUSH1 0x1 PUSH1 0x1 PUSH1 0xA0 SHL SUB AND PUSH4 0x70A08231 DUP10 PUSH1 0x40 MLOAD PUSH1 0x1 PUSH1 0x1 PUSH1 0xE0 SHL SUB NOT PUSH1 0xE0 DUP5 SWAP1 SHL AND DUP2 MSTORE PUSH1 0x1 PUSH1 0x1 PUSH1 0xA0 SHL SUB SWAP1 SWAP2 AND PUSH1 0x4 DUP3 ADD MSTORE PUSH1 0x24 ADD PUSH1 0x20 PUSH1 0x40 MLOAD DUP1 DUP4 SUB DUP2 DUP7 DUP1 PUSH2 0x2916 PUSH2 0x39F3 JUMP JUMPDEST PUSH1 0x40 MLOAD PUSH1 0x1 PUSH1 0x1 PUSH1 0xE0 SHL SUB NOT PUSH1 0xE0 DUP6 SWAP1 SHL AND DUP2 MSTORE PUSH1 0x1 PUSH1 0x1 PUSH1 0xA0 SHL SUB SWAP1 SWAP3 AND PUSH1 0x4 DUP4 ADD MSTORE PUSH1 0x24 DUP3 ADD MSTORE PUSH1 0x44 ADD PUSH1 0x0 PUSH1 0x40 MLOAD DUP1 DUP4 SUB DUP2 PUSH1 0x0 DUP8 DUP1 PUSH2 0x33A8 PUSH2 0x39F3 JUMP JUMPDEST ISZERO DUP1 ISZERO PUSH2 0x33BD JUMPI PUSH1 0x0 DUP1 PUSH2 0x33BA PUSH2 0x392D JUMP JUMPDEST POP POP JUMPDEST POP GAS PUSH2 0x33C7 PUSH2 0x3A3F JUMP JUMPDEST POP POP POP POP POP POP ISZERO DUP1 ISZERO PUSH2 0x33E7 JUMPI RETURNDATASIZE PUSH1 0x0 DUP1 RETURNDATACOPY RETURNDATASIZE PUSH1 0x0 PUSH2 0x33E4 PUSH2 0x392D JUMP JUMPDEST POP POP JUMPDEST POP POP POP POP PUSH2 0x33F6 DUP5 DUP5 DUP5 PUSH2 0x36B9 JUMP JUMPDEST POP PUSH1 0x1 SWAP4 SWAP3 POP POP POP JUMP JUMPDEST PUSH1 0x0 PUSH1 0x4 PUSH2 0x340C PUSH2 0x3998 JUMP JUMPDEST SWAP1 PUSH2 0x100 EXP SWAP1 DIV PUSH1 0x1 PUSH1 0x1 PUSH1 0xA0 SHL SUB AND PUSH1 0x1 PUSH1 0x1 PUSH1 0xA0 SHL SUB AND GAS PUSH2 0x342E PUSH2 0x3BFF JUMP JUMPDEST PUSH1 0x1 PUSH1 0x1 PUSH1 0xA0 SHL SUB AND EQ DUP1 PUSH2 0x3477 JUMPI POP PUSH1 0x0 PUSH1 0x5 PUSH2 0x344A PUSH2 0x3998 JUMP JUMPDEST SWAP1 PUSH2 0x100 EXP SWAP1 DIV PUSH1 0x1 PUSH1 0x1 PUSH1 0xA0 SHL SUB AND PUSH1 0x1 PUSH1 0x1 PUSH1 0xA0 SHL SUB AND GAS PUSH2 0x346C PUSH2 0x3BFF JUMP JUMPDEST PUSH1 0x1 PUSH1 0x1 PUSH1 0xA0 SHL SUB AND EQ JUMPDEST PUSH2 0x20FD JUMPI PUSH1 0x40 MLOAD PUSH3 0x461BCD PUSH1 0xE5 SHL DUP2 MSTORE PUSH1 0x20 PUSH1 0x4 DUP3 ADD MSTORE PUSH1 0x17 PUSH1 0x24 DUP3 ADD MSTORE PUSH32 0x4F6E6C79207468652070726F78792063616E2063616C6C000000000000000000 PUSH1 0x44 DUP3 ADD MSTORE PUSH1 0x64 ADD PUSH1 0x40 MLOAD DUP1 SWAP2 SUB SWAP1 PUSH2 0xE36 PUSH2 0x392D JUMP JUMPDEST PUSH1 0x0 DUP3 DUP3 GT ISZERO PUSH2 0x352C JUMPI PUSH1 0x40 MLOAD PUSH3 0x461BCD PUSH1 0xE5 SHL DUP2 MSTORE PUSH1 0x20 PUSH1 0x4 DUP3 ADD MSTORE PUSH1 0x1E PUSH1 0x24 DUP3 ADD MSTORE PUSH32 0x536166654D6174683A207375627472616374696F6E206F766572666C6F770000 PUSH1 0x44 DUP3 ADD MSTORE PUSH1 0x64 ADD PUSH1 0x40 MLOAD DUP1 SWAP2 SUB SWAP1 PUSH2 0x3529 PUSH2 0x392D JUMP JUMPDEST POP POP JUMPDEST POP SWAP1 SUB SWAP1 JUMP JUMPDEST PUSH1 0x1 PUSH1 0x1 PUSH1 0xA0 SHL SUB AND SWAP1 JUMP JUMPDEST PUSH1 0x0 PUSH2 0x27F8 PUSH12 0x53797374656D537461747573 PUSH1 0xA0 SHL PUSH1 0x40 MLOAD PUSH1 0x40 DUP1 DUP3 ADD SWAP1 MSTORE PUSH1 0x1C DUP2 MSTORE PUSH32 0x4D697373696E672053797374656D537461747573206164647265737300000000 PUSH1 0x20 DUP3 ADD MSTORE JUMPDEST PUSH1 0x0 DUP3 DUP2 MSTORE PUSH1 0xC PUSH1 0x20 MSTORE DUP1 PUSH1 0x40 DUP2 KECCAK256 PUSH1 0x0 SWAP1 PUSH2 0x35A2 PUSH2 0x3998 JUMP JUMPDEST PUSH1 0x1 PUSH1 0x1 PUSH1 0xA0 SHL SUB PUSH2 0x100 SWAP3 SWAP1 SWAP3 EXP SWAP1 DIV AND SWAP1 POP DUP3 DUP2 PUSH2 0x3649 JUMPI PUSH1 0x40 MLOAD PUSH3 0x461BCD PUSH1 0xE5 SHL DUP2 MSTORE PUSH1 0x4 ADD DUP1 DUP1 PUSH1 0x20 ADD DUP3 DUP2 SUB DUP3 MSTORE DUP4 DUP2 DUP2 MLOAD DUP2 MSTORE PUSH1 0x20 ADD SWAP2 POP DUP1 MLOAD SWAP1 PUSH1 0x20 ADD SWAP1 DUP1 DUP4 DUP4 PUSH1 0x0 JUMPDEST DUP4 DUP2 LT ISZERO PUSH2 0x3605 JUMPI DUP1 DUP3 ADD MLOAD DUP4 DUP3 ADD MSTORE PUSH1 0x20 ADD PUSH2 0x35ED JUMP JUMPDEST POP POP POP POP SWAP1 POP SWAP1 DUP2 ADD SWAP1 PUSH1 0x1F AND DUP1 ISZERO PUSH2 0x3632 JUMPI DUP1 DUP3 SUB DUP1 MLOAD PUSH1 0x1 DUP4 PUSH1 0x20 SUB PUSH2 0x100 EXP SUB NOT AND DUP2 MSTORE PUSH1 0x20 ADD SWAP2 POP JUMPDEST POP SWAP3 POP POP POP PUSH1 0x40 MLOAD DUP1 SWAP2 SUB SWAP1 PUSH2 0x3646 PUSH2 0x392D JUMP JUMPDEST POP POP JUMPDEST POP SWAP4 SWAP3 POP POP POP JUMP JUMPDEST PUSH1 0x0 DUP3 DUP3 ADD DUP4 DUP2 LT ISZERO PUSH2 0x17B8 JUMPI PUSH1 0x40 MLOAD PUSH3 0x461BCD PUSH1 0xE5 SHL DUP2 MSTORE PUSH1 0x20 PUSH1 0x4 DUP3 ADD MSTORE PUSH1 0x1B PUSH1 0x24 DUP3 ADD MSTORE PUSH32 0x536166654D6174683A206164646974696F6E206F766572666C6F770000000000 PUSH1 0x44 DUP3 ADD MSTORE PUSH1 0x64 ADD PUSH1 0x40 MLOAD DUP1 SWAP2 SUB SWAP1 PUSH2 0x36B0 PUSH2 0x392D JUMP JUMPDEST POP POP SWAP4 SWAP3 POP POP POP JUMP JUMPDEST PUSH1 0x0 PUSH1 0x4 PUSH2 0x36C5 PUSH2 0x3998 JUMP JUMPDEST SWAP1 PUSH2 0x100 EXP SWAP1 DIV PUSH1 0x1 PUSH1 0x1 PUSH1 0xA0 SHL SUB AND PUSH1 0x1 PUSH1 0x1 PUSH1 0xA0 SHL SUB AND PUSH4 0x907DFF97 DUP3 PUSH1 0x40 MLOAD PUSH1 0x20 ADD DUP1 DUP3 DUP2 MSTORE PUSH1 0x20 ADD SWAP2 POP POP PUSH1 0x40 MLOAD PUSH1 0x20 DUP2 DUP4 SUB SUB DUP2 MSTORE SWAP1 PUSH1 0x40 MSTORE PUSH1 0x3 PUSH1 0x40 MLOAD DUP1 PUSH1 0x21 PUSH2 0x3DB5 DUP3 CODECOPY PUSH1 0x21 ADD SWAP1 POP PUSH1 0x40 MLOAD DUP1 SWAP2 SUB SWAP1 KECCAK256 PUSH2 0x216C DUP9 PUSH2 0x3532 JUMP JUMPDEST PUSH1 0x0 PUSH1 0x4 PUSH2 0x3732 PUSH2 0x3998 JUMP JUMPDEST SWAP1 PUSH2 0x100 EXP SWAP1 DIV PUSH1 0x1 PUSH1 0x1 PUSH1 0xA0 SHL SUB AND PUSH1 0x1 PUSH1 0x1 PUSH1 0xA0 SHL SUB AND PUSH4 0x907DFF97 DUP3 PUSH1 0x40 MLOAD PUSH1 0x20 ADD DUP1 DUP3 DUP2 MSTORE PUSH1 0x20 ADD SWAP2 POP POP PUSH1 0x40 MLOAD PUSH1 0x20 DUP2 DUP4 SUB SUB DUP2 MSTORE SWAP1 PUSH1 0x40 MSTORE PUSH1 0x2 PUSH1 0x40 MLOAD PUSH32 0x49737375656428616464726573732C75696E7432353629000000000000000000 DUP2 MSTORE PUSH1 0x17 ADD PUSH1 0x40 MLOAD DUP1 SWAP2 SUB SWAP1 KECCAK256 PUSH2 0x37AC DUP8 PUSH2 0x3532 JUMP JUMPDEST PUSH1 0x0 DUP1 PUSH1 0x40 MLOAD DUP8 PUSH4 0xFFFFFFFF AND PUSH1 0xE0 SHL DUP2 MSTORE PUSH1 0x4 ADD DUP1 DUP1 PUSH1 0x20 ADD DUP8 DUP2 MSTORE PUSH1 0x20 ADD DUP7 DUP2 MSTORE PUSH1 0x20 ADD DUP6 DUP2 MSTORE PUSH1 0x20 ADD DUP5 PUSH1 0x0 SHL DUP2 MSTORE PUSH1 0x20 ADD DUP4 PUSH1 0x0 SHL DUP2 MSTORE PUSH1 0x20 ADD DUP3 DUP2 SUB DUP3 MSTORE DUP9 DUP2 DUP2 MLOAD DUP2 MSTORE PUSH1 0x20 ADD SWAP2 POP DUP1 MLOAD SWAP1 PUSH1 0x20 ADD SWAP1 DUP1 DUP4 DUP4 PUSH1 0x0 JUMPDEST DUP4 DUP2 LT ISZERO PUSH2 0x381F JUMPI DUP1 DUP3 ADD MLOAD DUP4 DUP3 ADD MSTORE PUSH1 0x20 ADD PUSH2 0x3807 JUMP JUMPDEST POP POP POP POP SWAP1 POP SWAP1 DUP2 ADD SWAP1 PUSH1 0x1F AND DUP1 ISZERO PUSH2 0x384C JUMPI DUP1 DUP3 SUB DUP1 MLOAD PUSH1 0x1 DUP4 PUSH1 0x20 SUB PUSH2 0x100 EXP SUB NOT AND DUP2 MSTORE PUSH1 0x20 ADD SWAP2 POP JUMPDEST POP SWAP8 POP POP POP POP POP POP POP POP PUSH1 0x0 PUSH1 0x40 MLOAD DUP1 DUP4 SUB DUP2 PUSH1 0x0 DUP8 DUP1 PUSH2 0x386B PUSH2 0x39F3 JUMP JUMPDEST ISZERO DUP1 ISZERO PUSH2 0x3880 JUMPI PUSH1 0x0 DUP1 PUSH2 0x387D PUSH2 0x392D JUMP JUMPDEST POP POP JUMPDEST POP GAS PUSH2 0x388A PUSH2 0x3A3F JUMP JUMPDEST POP POP POP POP POP POP ISZERO DUP1 ISZERO PUSH2 0x16A4 JUMPI RETURNDATASIZE PUSH1 0x0 DUP1 RETURNDATACOPY RETURNDATASIZE PUSH1 0x0 PUSH2 0x24DA PUSH2 0x392D JUMP JUMPDEST PUSH1 0x0 PUSH1 0x4 PUSH2 0x38B3 PUSH2 0x3998 JUMP JUMPDEST SWAP1 PUSH2 0x100 EXP SWAP1 DIV PUSH1 0x1 PUSH1 0x1 PUSH1 0xA0 SHL SUB AND PUSH1 0x1 PUSH1 0x1 PUSH1 0xA0 SHL SUB AND PUSH4 0x907DFF97 DUP3 PUSH1 0x40 MLOAD PUSH1 0x20 ADD DUP1 DUP3 DUP2 MSTORE PUSH1 0x20 ADD SWAP2 POP POP PUSH1 0x40 MLOAD PUSH1 0x20 DUP2 DUP4 SUB SUB DUP2 MSTORE SWAP1 PUSH1 0x40 MSTORE PUSH1 0x2 PUSH1 0x40 MLOAD PUSH32 0x4275726E656428616464726573732C75696E7432353629000000000000000000 DUP2 MSTORE PUSH1 0x17 ADD PUSH1 0x40 MLOAD DUP1 SWAP2 SUB SWAP1 KECCAK256 PUSH2 0x37AC DUP8 PUSH2 0x3532 JUMP JUMPDEST PUSH4 0x2A2A7ADB MSIZE DUP2 PUSH1 0xE0 SHL DUP2 MSTORE PUSH1 0x4 DUP2 ADD PUSH1 0x20 DUP2 MSTORE DUP6 PUSH1 0x20 DUP3 ADD MSTORE PUSH1 0x0 JUMPDEST DUP7 DUP2 LT ISZERO PUSH2 0x3965 JUMPI DUP1 DUP7 ADD MLOAD DUP3 DUP3 ADD PUSH1 0x40 ADD MSTORE PUSH1 0x20 ADD PUSH2 0x394A JUMP JUMPDEST POP PUSH1 0x20 DUP3 DUP8 PUSH1 0x64 ADD DUP5 CALLER PUSH1 0x0 SWAP1 GAS CALL PC PUSH1 0xE ADD JUMPI RETURNDATASIZE PUSH1 0x0 DUP1 RETURNDATACOPY RETURNDATASIZE PUSH1 0x0 REVERT JUMPDEST RETURNDATASIZE PUSH1 0x1 EQ ISZERO PC PUSH1 0xA ADD JUMPI PUSH1 0x1 PUSH1 0x0 RETURN JUMPDEST POP POP POP JUMP JUMPDEST PUSH4 0x3DAA959 MSIZE DUP2 PUSH1 0xE0 SHL DUP2 MSTORE DUP4 PUSH1 0x4 DUP3 ADD MSTORE PUSH1 0x20 DUP2 PUSH1 0x24 DUP4 CALLER PUSH1 0x0 SWAP1 GAS CALL PC PUSH1 0xE ADD JUMPI RETURNDATASIZE PUSH1 0x0 DUP1 RETURNDATACOPY RETURNDATASIZE PUSH1 0x0 REVERT JUMPDEST RETURNDATASIZE PUSH1 0x1 EQ ISZERO PC PUSH1 0xA ADD JUMPI PUSH1 0x1 PUSH1 0x0 RETURN JUMPDEST DUP1 MLOAD SWAP4 POP PUSH1 0x0 JUMPDEST PUSH1 0x40 DUP2 LT ISZERO PUSH2 0x1273 JUMPI PUSH1 0x0 DUP3 DUP3 ADD MSTORE PUSH1 0x20 ADD PUSH2 0x39DC JUMP JUMPDEST PUSH4 0x8435035B MSIZE DUP2 PUSH1 0xE0 SHL DUP2 MSTORE DUP4 PUSH1 0x4 DUP3 ADD MSTORE PUSH1 0x20 DUP2 PUSH1 0x24 DUP4 CALLER PUSH1 0x0 SWAP1 GAS CALL PC PUSH1 0xE ADD JUMPI RETURNDATASIZE PUSH1 0x0 DUP1 RETURNDATACOPY RETURNDATASIZE PUSH1 0x0 REVERT JUMPDEST RETURNDATASIZE PUSH1 0x1 EQ ISZERO PC PUSH1 0xA ADD JUMPI PUSH1 0x1 PUSH1 0x0 RETURN JUMPDEST DUP1 MLOAD PUSH1 0x0 DUP3 MSTORE SWAP4 POP PUSH1 0x20 PUSH2 0x39DC JUMP JUMPDEST PUSH4 0x85979F76 MSIZE DUP2 PUSH1 0xE0 SHL DUP2 MSTORE DUP4 PUSH1 0x4 DUP3 ADD MSTORE DUP5 PUSH1 0x24 DUP3 ADD MSTORE PUSH1 0x60 PUSH1 0x44 DUP3 ADD MSTORE DUP8 PUSH1 0x64 DUP3 ADD MSTORE PUSH1 0x84 DUP2 ADD PUSH1 0x0 JUMPDEST DUP10 DUP2 LT ISZERO PUSH2 0x3A83 JUMPI DUP1 DUP10 ADD MLOAD DUP3 DUP3 ADD MSTORE PUSH1 0x20 ADD PUSH2 0x3A6B JUMP JUMPDEST POP DUP9 PUSH2 0x104 ADD DUP3 ADD PUSH1 0x60 DUP4 DUP12 PUSH2 0x104 ADD DUP6 CALLER PUSH1 0x0 SWAP1 GAS CALL PC PUSH1 0xE ADD JUMPI RETURNDATASIZE PUSH1 0x0 DUP1 RETURNDATACOPY RETURNDATASIZE PUSH1 0x0 REVERT JUMPDEST RETURNDATASIZE PUSH1 0x1 EQ ISZERO PC PUSH1 0xA ADD JUMPI PUSH1 0x1 PUSH1 0x0 RETURN JUMPDEST DUP3 MLOAD PUSH1 0x40 DUP5 ADD MLOAD RETURNDATASIZE PUSH1 0x0 DUP7 RETURNDATACOPY DUP14 DUP14 DUP3 PUSH1 0x60 DUP9 ADD CALLER POP PUSH1 0x0 PUSH1 0x4 GAS CALL POP MSIZE DUP6 JUMPDEST DUP2 DUP2 LT ISZERO PUSH2 0x3AEC JUMPI PUSH1 0x0 DUP2 MSTORE PUSH1 0x20 ADD PUSH2 0x3AD8 JUMP JUMPDEST POP SWAP2 SWAP14 POP POP POP POP POP POP POP JUMP JUMPDEST PUSH4 0x22BD64C0 MSIZE DUP2 PUSH1 0xE0 SHL DUP2 MSTORE DUP4 PUSH1 0x4 DUP3 ADD MSTORE DUP5 PUSH1 0x24 DUP3 ADD MSTORE PUSH1 0x0 DUP2 PUSH1 0x44 DUP4 CALLER PUSH1 0x0 SWAP1 GAS CALL PC PUSH1 0xE ADD JUMPI RETURNDATASIZE PUSH1 0x0 DUP1 RETURNDATACOPY RETURNDATASIZE PUSH1 0x0 REVERT JUMPDEST RETURNDATASIZE PUSH1 0x1 EQ ISZERO PC PUSH1 0xA ADD JUMPI PUSH1 0x1 PUSH1 0x0 RETURN JUMPDEST PUSH1 0x0 DUP2 MSTORE PUSH1 0x20 PUSH2 0x39DC JUMP JUMPDEST PUSH4 0x8540661F MSIZE DUP2 PUSH1 0xE0 SHL DUP2 MSTORE DUP4 PUSH1 0x4 DUP3 ADD MSTORE DUP5 PUSH1 0x24 DUP3 ADD MSTORE PUSH1 0x60 PUSH1 0x44 DUP3 ADD MSTORE DUP7 PUSH1 0x64 DUP3 ADD MSTORE PUSH1 0x84 DUP2 ADD PUSH1 0x0 JUMPDEST DUP9 DUP2 LT ISZERO PUSH2 0x3B8A JUMPI DUP1 DUP9 ADD MLOAD DUP3 DUP3 ADD MSTORE PUSH1 0x20 ADD PUSH2 0x3B72 JUMP JUMPDEST POP DUP8 PUSH2 0x104 ADD DUP3 ADD PUSH1 0x60 DUP4 DUP11 PUSH2 0x104 ADD DUP6 CALLER PUSH1 0x0 SWAP1 GAS CALL PC PUSH1 0xE ADD JUMPI RETURNDATASIZE PUSH1 0x0 DUP1 RETURNDATACOPY RETURNDATASIZE PUSH1 0x0 REVERT JUMPDEST RETURNDATASIZE PUSH1 0x1 EQ ISZERO PC PUSH1 0xA ADD JUMPI PUSH1 0x1 PUSH1 0x0 RETURN JUMPDEST DUP3 MLOAD PUSH1 0x40 DUP5 ADD MLOAD RETURNDATASIZE PUSH1 0x0 DUP7 RETURNDATACOPY DUP13 DUP13 DUP3 PUSH1 0x60 DUP9 ADD CALLER POP PUSH1 0x0 PUSH1 0x4 GAS CALL POP MSIZE DUP6 JUMPDEST DUP2 DUP2 LT ISZERO PUSH2 0x3BF3 JUMPI PUSH1 0x0 DUP2 MSTORE PUSH1 0x20 ADD PUSH2 0x3BDF JUMP JUMPDEST POP SWAP2 SWAP13 POP POP POP POP POP POP POP JUMP JUMPDEST PUSH4 0x73509064 MSIZE DUP2 PUSH1 0xE0 SHL DUP2 MSTORE PUSH1 0x20 DUP2 PUSH1 0x4 DUP4 CALLER PUSH1 0x0 SWAP1 GAS CALL PC PUSH1 0xE ADD JUMPI RETURNDATASIZE PUSH1 0x0 DUP1 RETURNDATACOPY RETURNDATASIZE PUSH1 0x0 REVERT JUMPDEST RETURNDATASIZE PUSH1 0x1 EQ ISZERO PC PUSH1 0xA ADD JUMPI PUSH1 0x1 PUSH1 0x0 RETURN JUMPDEST DUP1 MLOAD PUSH1 0x0 DUP3 MSTORE SWAP4 POP PUSH1 0x20 PUSH2 0x39DC JUMP JUMPDEST PUSH4 0xBDBF8C36 MSIZE DUP2 PUSH1 0xE0 SHL DUP2 MSTORE PUSH1 0x20 DUP2 PUSH1 0x4 DUP4 CALLER PUSH1 0x0 SWAP1 GAS CALL PC PUSH1 0xE ADD JUMPI RETURNDATASIZE PUSH1 0x0 DUP1 RETURNDATACOPY RETURNDATASIZE PUSH1 0x0 REVERT JUMPDEST RETURNDATASIZE PUSH1 0x1 EQ ISZERO PC PUSH1 0xA ADD JUMPI PUSH1 0x1 PUSH1 0x0 RETURN JUMPDEST DUP1 MLOAD PUSH1 0x0 DUP3 MSTORE SWAP4 POP PUSH1 0x20 PUSH2 0x39DC JUMP JUMPDEST PUSH1 0x40 MLOAD PUSH2 0x300 DUP1 DUP3 ADD PUSH1 0x40 MSTORE PUSH1 0x18 SWAP1 DUP3 SWAP1 DUP1 CODESIZE DUP4 CODECOPY POP SWAP2 SWAP3 SWAP2 POP POP JUMP INVALID MSIZE PUSH16 0x75206D757374206265206E6F6D696E61 PUSH21 0x6564206265666F726520796F752063616E20616363 PUSH6 0x7074206F776E PUSH6 0x727368697049 PUSH15 0x73756666696369656E742062616C61 PUSH15 0x636520616674657220616E79207365 PUSH21 0x746C656D656E74206F77696E674F6E6C7920466565 POP PUSH16 0x6F6C2C2045786368616E676572206F72 KECCAK256 0x49 PUSH20 0x7375657220636F6E74726163747320616C6C6F77 PUSH6 0x644F6E6C7920 PUSH21 0x686520636F6E7472616374206F776E6572206D6179 KECCAK256 PUSH17 0x6572666F726D207468697320616374696F PUSH15 0x417070726F76616C28616464726573 PUSH20 0x2C616464726573732C75696E743235362943616E PUSH15 0x6F74207472616E7366657220647572 PUSH10 0x6E672077616974696E67 KECCAK256 PUSH17 0x6572696F645472616E7366657228616464 PUSH19 0x6573732C616464726573732C75696E74323536 0x29 "
		},
		"deployedBytecode": {
			"linkReferences": {},
			"object": "60806040523480156100195760008061001661392d565b50505b506004361061027d5760003560e01c80639cbdaeb61161015a578063c6c9d828116100cc578063e73cced311610090578063e73cced314610789578063e90dd9e2146107c8578063eb1edd61146107d0578063ec556889146107d8578063f7ea7a3d146107e0578063ffff51d6146108065761027d565b8063c6c9d82814610714578063d67bdd251461073a578063dbd06c8514610742578063dd62ed3e1461074a578063e3235c91146107815761027d565b8063ab49848c1161011e578063ab49848c14610657578063b014c3a314610698578063b8225dec146106cd578063bc67f832146106d5578063bd32aa4414610704578063c58aaae61461070c5761027d565b80639cbdaeb6146105ae5780639dc29fac146105b65780639f769807146105eb578063a461fc821461061a578063a9059cbb146106225761027d565b80633278c960116101f357806379ba5097116101b757806379ba50971461052a578063867904b4146105325780638da5cb5b1461056757806395d89b411461056f57806397107d6d146105775780639cb8a26a146105a65761027d565b80633278c9601461048d5780633be99e6f1461049557806353a47bb7146104c4578063631e1444146104cc57806370a08231146104fb5761027d565b806317c70de41161024557806317c70de4146103d757806318160ddd146103f157806320714f88146103f957806323b872dd146104285780632e0f262514610467578063313ce567146104855761027d565b806304f3bcec1461028b57806306fdde03146102af578063095ea7b31461032e578063131b0ae7146103775780631627540c146103a8575b60008061028861392d565b50505b610293610835565b6040516001600160a01b03909116815260200160405180910390f35b6102b7610854565b60405160208082528190810183818151815260200191508051906020019080838360005b838110156102f35780820151838201526020016102db565b50505050905090810190601f1680156103205780820380516001836020036101000a031916815260200191505b509250505060405180910390f35b6103636004803603604081101561034d5760008061034a61392d565b50505b506001600160a01b03813516906020013561090d565b604051901515815260200160405180910390f35b6103a6600480360360208110156103965760008061039361392d565b50505b50356001600160a01b0316610a0b565b005b6103a6600480360360208110156103c7576000806103c461392d565b50505b50356001600160a01b0316610a49565b6103df610ac3565b60405190815260200160405180910390f35b6103df610ad0565b6103a6600480360360208110156104185760008061041561392d565b50505b50356001600160a01b0316610ada565b610363600480360360608110156104475760008061044461392d565b50505b506001600160a01b03813581169160208101359091169060400135610bb9565b61046f610be0565b60405160ff909116815260200160405180910390f35b61046f610be5565b6103a6610bfe565b6103a6600480360360208110156104b4576000806104b161392d565b50505b50356001600160a01b0316610c6f565b610293610e3a565b610363600480360360208110156104eb576000806104e861392d565b50505b50356001600160a01b0316610e46565b6103df6004803603602081101561051a5760008061051761392d565b50505b50356001600160a01b0316611023565b6103a66110f5565b6103a6600480360360408110156105515760008061054e61392d565b50505b506001600160a01b038135169060200135611278565b610293611356565b6102b7611361565b6103a6600480360360208110156105965760008061059361392d565b50505b50356001600160a01b0316611403565b6103a661147e565b6102936115c1565b6103a6600480360360408110156105d5576000806105d261392d565b50505b506001600160a01b0381351690602001356115cd565b6103a66004803603602081101561060a5760008061060761392d565b50505b50356001600160a01b03166116ac565b6103df6116f3565b610363600480360360408110156106415760008061063e61392d565b50505b506001600160a01b0381351690602001356116fa565b61065f6117bf565b604051808261030080838360005b8381101561068557808201518382015260200161066d565b5050505090500191505060405180910390f35b610363600480360360408110156106b7576000806106b461392d565b50505b506001600160a01b038135169060200135611821565b610363611a51565b6103a6600480360360208110156106f4576000806106f161392d565b50505b50356001600160a01b0316611a5d565b6103a6611a73565b610293611af5565b6103df600480360360208110156107335760008061073061392d565b50505b5035611b01565b610293611b29565b6103df611b35565b6103df600480360360408110156107695760008061076661392d565b50505b506001600160a01b0381358116916020013516611b3f565b6103df611c1a565b610363600480360360608110156107a8576000806107a561392d565b50505b506001600160a01b03813581169160208101359091169060400135611c1f565b610293611e07565b610293611e13565b610293611e2b565b6103a6600480360360208110156107ff576000806107fc61392d565b50505b5035611e37565b6103df600480360360208110156108255760008061082261392d565b50505b50356001600160a01b0316611e4b565b6001600b610841613998565b906101000a90046001600160a01b031681565b60088061085f613998565b600181600116156101000203166002900480601f016020809104026020016040519081016040528181529190602083018280610899613998565b600181600116156101000203166002900480156109055780601f106108d35761010080836108c5613998565b040283529160200191610905565b820191906000526020600020905b816108ea613998565b815290600101906020018083116108e157829003601f168201915b505050505081565b6000610917612027565b6000806006610924613998565b906101000a90046001600160a01b031690506007600090610943613998565b906101000a90046001600160a01b03166001600160a01b031663da46098c8286866040516001600160e01b031960e086901b1681526001600160a01b0393841660048201529190921660248201526044810191909152606401600060405180830381600087806109b16139f3565b1580156109c6576000806109c361392d565b50505b505a6109d0613a3f565b5050505050501580156109f0573d6000803e3d60006109ed61392d565b50505b505050506109ff8185856120ff565b60019150505b92915050565b610a13612278565b806005600181610a21613998565b816001600160a01b0302191690836001600160a01b0316021790610a43613af8565b50505050565b610a51612278565b8060018080610a5e613998565b816001600160a01b0302191690836001600160a01b0316021790610a80613af8565b5050507f906a1c6bd7e3091ea86693dd029a831c19049ce77f1dce2ce0bab1cacbabce22816040516001600160a01b03909116815260200160405180910390a150565b6002610acd613998565b81565b600a610acd613998565b610ae2612278565b6001600160a01b038116610b455760405162461bcd60e51b815260206004820152601c60248201527f42656e6566696369617279206d757374206e6f74206265207a65726f00000000604482015260640160405180910390610b4261392d565b50505b80600361010081610b54613998565b816001600160a01b0302191690836001600160a01b0316021790610b76613af8565b5050507fd5da63a0b864b315bc04128dedbc93888c8529ee6cf47ce664dc204339228c53816040516001600160a01b03909116815260200160405180910390a150565b6000610bc3612027565b610bcd84836122f0565b610bd88484846124e4565b949350505050565b601281565b6000600b610bf1613998565b906101000a900460ff1681565b610c06612278565b6000806002610c13613af8565b5050506000600360006101000a81610c29613998565b8160ff02191690831515021790610c3e613af8565b5050507f6adcc7125002935e0aa31697538ebbd65cfddf20431eb6ecdcfc3e238bfd082c60405160405180910390a1565b610c77612278565b80600b61010081610c86613998565b816001600160a01b0302191690836001600160a01b0316021790610ca8613af8565b5060009150505b600d80610cba613998565b9050811015610e36576000600d8281610cd1613998565b8110610cd957fe5b90600052602060002001610ceb613998565b90506001600b610cf9613998565b906101000a90046001600160a01b03166001600160a01b031663dacb2d01826040516001600160e01b031960e084901b1681526004810191909152604060248201819052601760448301527f5265736f6c766572206d697373696e6720746172676574000000000000000000606483015260849091019060209051808303818680610d826139f3565b158015610d9757600080610d9461392d565b50505b505a610da1613b46565b5050505050158015610dc0573d6000803e3d6000610dbd61392d565b50505b505050506040513d6020811015610ddf57600080610ddc61392d565b50505b8101908080516000858152600c60205290935060409250905020600181610e04613998565b816001600160a01b0302191690836001600160a01b0316021790610e26613af8565b505060019092019150610caf9050565b5050565b60006001610841613998565b60006001600160a01b0382166001600b610e5e613998565b906101000a90046001600160a01b03166001600160a01b031614610e845750600061101e565b60005b600d80610e92613998565b9050811015611018576000600d8281610ea9613998565b8110610eb157fe5b90600052602060002001610ec3613998565b6000818152600c60205290915060409020600090610edf613998565b6001600160a01b036101009290920a9004166001600b610efd613998565b906101000a90046001600160a01b03166001600160a01b03166321f8a721836040516001600160e01b031960e084901b16815260048101919091526024016020604051808303818680610f4e6139f3565b158015610f6357600080610f6061392d565b50505b505a610f6d613b46565b5050505050158015610f8c573d6000803e3d6000610f8961392d565b50505b505050506040513d6020811015610fab57600080610fa861392d565b50505b8101908080516001600160a01b031693909314159250829150610fff905057506000818152600c60205260408120600090610fe4613998565b906101000a90046001600160a01b03166001600160a01b0316145b1561100f5760009250505061101e565b50600101610e87565b50600190505b919050565b6000806007611030613998565b906101000a90046001600160a01b03166001600160a01b03166370a08231836040516001600160e01b031960e084901b1681526001600160a01b03909116600482015260240160206040518083038186806110896139f3565b15801561109e5760008061109b61392d565b50505b505a6110a8613b46565b50505050501580156110c7573d6000803e3d60006110c461392d565b50505b505050506040513d60208110156110e6576000806110e361392d565b50505b81019080805195945050505050565b60006001611101613998565b906101000a90046001600160a01b03166001600160a01b03165a611123613bff565b6001600160a01b0316146111715760405162461bcd60e51b8152600401808060200182810382526035815260200180613ca9603591396040019150506040518091039061116e61392d565b50505b7fb532073b38c83145e3e5135377a08bf9aab55bc0fd7c1179cd4fb995d2a5159c60008061119d613998565b906101000a90046001600160a01b031660016000906111ba613998565b906101000a90046001600160a01b03166040516001600160a01b039283168152911660208201526040908101905180910390a1600060016111f9613998565b906101000a90046001600160a01b03166000806101000a81611219613998565b816001600160a01b0302191690836001600160a01b031602179061123b613af8565b5050506000600160006101000a81611251613998565b816001600160a01b0302191690836001600160a01b0316021790611273613af8565b505050565b60006112826127af565b6001600160a01b03165a611294613bff565b6001600160a01b031614905060006112aa6127fd565b6001600160a01b03165a6112bc613bff565b6001600160a01b031614905060006112d2612848565b6001600160a01b03165a6112e4613bff565b6001600160a01b031614905082806112f95750815b806113015750805b6113455760405162461bcd60e51b8152600401808060200182810382526033815260200180613d0d603391396040019150506040518091039061134261392d565b50505b61134f8585612889565b5050505050565b600080610841613998565b60098061136c613998565b600181600116156101000203166002900480601f0160208091040260200160405190810160405281815291906020830182806113a6613998565b600181600116156101000203166002900480156109055780601f106113d25761010080836108c5613998565b820191906000526020600020905b816113e9613998565b815290600101906020018083116113e05750859350505050565b61140b612278565b806004600181611419613998565b816001600160a01b0302191690836001600160a01b031602179061143b613af8565b5050507ffc80377ca9c49cc11ae6982f390a42db976d5530af7c43889264b13fbbd7c57e816040516001600160a01b03909116815260200160405180910390a150565b611486612278565b60006003611492613998565b906101000a900460ff166114f55760405162461bcd60e51b815260206004820152601f60248201527f53656c66204465737472756374206e6f742079657420696e69746961746564006044820152606401604051809103906114f261392d565b50505b5a6114fe613c45565b6224ea00600261150c613998565b01106115675760405162461bcd60e51b815260206004820152601b60248201527f53656c662064657374727563742064656c6179206e6f74206d6574000000000060448201526064016040518091039061156461392d565b50505b7f8a09e1677ced846cb537dc2b172043bd05a1a81ad7e0033a7ef8ba762df990b760016003611594613998565b906101000a90046001600160a01b03166040516001600160a01b03909116815260200160405180910390a1565b60006005610841613998565b60006115d76127af565b6001600160a01b03165a6115e9613bff565b6001600160a01b031614905060006115ff6127fd565b6001600160a01b03165a611611613bff565b6001600160a01b03161490506000611627612848565b6001600160a01b03165a611639613bff565b6001600160a01b0316149050828061164e5750815b806116565750805b61169a5760405162461bcd60e51b8152600401808060200182810382526033815260200180613d0d603391396040019150506040518091039061169761392d565b50505b6116a48585612a4c565b505050505050565b6116b4612ba5565b8060076001816116c2613998565b816001600160a01b0302191690836001600160a01b03160217906116e4613af8565b5050506116f081612d30565b50565b6224ea0081565b6000611704612027565b61172960006006611713613998565b906101000a90046001600160a01b0316836122f0565b6001600160a01b03831673feefeefeefeefeefeefeefeefeefeefeefeefeef141561175f576117588383612eb4565b9050610a05565b6001600160a01b038316611792576117586000600661177c613998565b906101000a90046001600160a01b031683612a4c565b6117b8600060066117a1613998565b906101000a90046001600160a01b031684846130b2565b9392505050565b6117c7613c8b565b60005b600d806117d5613998565b905081101561181d57600d81816117ea613998565b81106117f257fe5b90600052602060002001611804613998565b82826018811061181057fe5b60200201526001016117ca565b5090565b600061182b612027565b60006118356127fd565b6001600160a01b0316631b16802c6000600661184f613998565b906101000a90046001600160a01b0316600e611869613998565b6040516001600160e01b031960e085901b1681526001600160a01b0390921660048301526024820152604401606060405180830381600087806118aa6139f3565b1580156118bf576000806118bc61392d565b50505b505a6118c9613a3f565b5050505050501580156118e9573d6000803e3d60006118e661392d565b50505b505050506040513d60608110156119085760008061190561392d565b50505b8101908080519291906020018051929190602001805195508794505084159250611a11915050576000600761193b613998565b6001600160a01b036101009290920a9004166370a082316000600661195e613998565b906101000a90046001600160a01b03166040516001600160e01b031960e084901b1681526001600160a01b03909116600482015260240160206040518083038186806119a86139f3565b1580156119bd576000806119ba61392d565b50505b505a6119c7613b46565b50505050501580156119e6573d6000803e3d60006119e361392d565b50505b505050506040513d6020811015611a0557600080611a0261392d565b50505b81019080805193505050505b808411611a1e5783611a20565b805b9350611a4860006006611a31613998565b906101000a90046001600160a01b031686866130b2565b95945050505050565b60006003610bf1613998565b611a65613400565b806006600181610a21613998565b611a7b612278565b5a611a84613c45565b806002611a8f613af8565b5050506001600360006101000a81611aa5613998565b8160ff02191690831515021790611aba613af8565b5050507fcbd94ca75b8dc45c9d80c77e851670e78843c0d75180cb81db3e2158228fa9a66224ea0060405190815260200160405180910390a1565b60016003610841613998565b600d8181611b0d613998565b8110611b1557fe5b906000526020600020019050610acd613998565b60006006610841613998565b600e610acd613998565b6000806007611b4c613998565b906101000a90046001600160a01b03166001600160a01b031663dd62ed3e84846040516001600160e01b031960e085901b1681526001600160a01b039283166004820152911660248201526044016020604051808303818680611bad6139f3565b158015611bc257600080611bbf61392d565b50505b505a611bcc613b46565b5050505050158015611beb573d6000803e3d6000611be861392d565b50505b505050506040513d6020811015611c0a57600080611c0761392d565b50505b8101908080519695505050505050565b601881565b6000611c29612027565b6000611c336127fd565b6001600160a01b0316631b16802c86600e611c4c613998565b6040516001600160e01b031960e085901b1681526001600160a01b039092166004830152602482015260440160606040518083038160008780611c8d6139f3565b158015611ca257600080611c9f61392d565b50505b505a611cac613a3f565b505050505050158015611ccc573d6000803e3d6000611cc961392d565b50505b505050506040513d6060811015611ceb57600080611ce861392d565b50505b8101908080519291906020018051929190602001805195508794505084159250611de09150505760006007611d1e613998565b906101000a90046001600160a01b03166001600160a01b03166370a08231876040516001600160e01b031960e084901b1681526001600160a01b0390911660048201526024016020604051808303818680611d776139f3565b158015611d8c57600080611d8961392d565b50505b505a611d96613b46565b5050505050158015611db5573d6000803e3d6000611db261392d565b50505b505050506040513d6020811015611dd457600080611dd161392d565b50505b81019080805193505050505b80841015611dee5783611df0565b805b9350611dfd8686866124e4565b9695505050505050565b60006007610841613998565b73feefeefeefeefeefeefeefeefeefeefeefeefeef81565b60006004610841613998565b611e3f612ba5565b8080600a610a43613af8565b600080611e566127fd565b6001600160a01b03166319d5c66584600e611e6f613998565b6040516001600160e01b031960e085901b1681526001600160a01b03909216600483015260248201526044016060604051808303818680611eae6139f3565b158015611ec357600080611ec061392d565b50505b505a611ecd613b46565b5050505050158015611eec573d6000803e3d6000611ee961392d565b50505b505050506040513d6060811015611f0b57600080611f0861392d565b50505b81019080805192919060200180519291906020018051509394506000935083925060079150611f3a9050613998565b906101000a90046001600160a01b03166001600160a01b03166370a08231856040516001600160e01b031960e084901b1681526001600160a01b0390911660048201526024016020604051808303818680611f936139f3565b158015611fa857600080611fa561392d565b50505b505a611fb2613b46565b5050505050158015611fd1573d6000803e3d6000611fce61392d565b50505b505050506040513d6020811015611ff057600080611fed61392d565b50505b81019080805193505050508082111561200e5760009250505061101e565b61201e818363ffffffff6134cd16565b9250505061101e565b60006004612033613998565b906101000a90046001600160a01b03166001600160a01b03165a612055613bff565b6001600160a01b0316141580156120a1575060006005612073613998565b906101000a90046001600160a01b03166001600160a01b03165a612095613bff565b6001600160a01b031614155b80156120e257505a6120b1613bff565b6001600160a01b0316600060066120c6613998565b906101000a90046001600160a01b03166001600160a01b031614155b156120fd575a6120f0613bff565b6006600181611251613998565b565b6000600461210b613998565b906101000a90046001600160a01b03166001600160a01b031663907dff9782604051602001808281526020019150506040516020818303038152906040526003604051806021613d6f82396021019050604051809103902061216c88613532565b61217588613532565b60006040518763ffffffff1660e01b815260040180806020018781526020018681526020018581526020018481526020018360001b8152602001828103825288818151815260200191508051906020019080838360005b838110156121e45780820151838201526020016121cc565b50505050905090810190601f1680156122115780820380516001836020036101000a031916815260200191505b50975050505050505050600060405180830381600087806122306139f3565b1580156122455760008061224261392d565b50505b505a61224f613a3f565b50505050505015801561226f573d6000803e3d600061226c61392d565b50505b50505050505050565b600080612283613998565b906101000a90046001600160a01b03166001600160a01b03165a6122a5613bff565b6001600160a01b0316146120fd5760405162461bcd60e51b815260040180806020018281038252602f815260200180613d40602f913960400191505060405180910390610e3661392d565b6122f86127fd565b6001600160a01b031663059c29ec83600e612311613998565b6040516001600160e01b031960e085901b1681526001600160a01b039092166004830152602482015260440160206040518083038186806123506139f3565b1580156123655760008061236261392d565b50505b505a61236f613b46565b505050505015801561238e573d6000803e3d600061238b61392d565b50505b505050506040513d60208110156123ad576000806123aa61392d565b50505b8101908080511592506123fd9150505760405162461bcd60e51b8152600401808060200182810382526025815260200180613d9060259139604001915050604051809103906123fa61392d565b50505b8061240783611e4b565b101561244d5760405162461bcd60e51b815260040180806020018281038252602f815260200180613cde602f91396040019150506040518091039061244a61392d565b50505b61245561353e565b6001600160a01b03166342a28e21600e61246d613998565b6040516001600160e01b031960e084901b1681526004810191909152602401600060405180830381868061249f6139f3565b1580156124b4576000806124b161392d565b50505b505a6124be613b46565b50505050501580156116a4573d6000803e3d60006124da61392d565b5050505050505050565b60006000198160076124f4613998565b6001600160a01b036101009290920a90041663dd62ed3e8660006006612518613998565b906101000a90046001600160a01b03166040516001600160e01b031960e085901b1681526001600160a01b0392831660048201529116602482015260440160206040518083038186806125696139f3565b15801561257e5760008061257b61392d565b50505b505a612588613b46565b50505050501580156125a7573d6000803e3d60006125a461392d565b50505b505050506040513d60208110156125c6576000806125c361392d565b50505b8101908080519390931492506127a491505057600060076125e5613998565b6001600160a01b036101009290920a90041663da46098c8560006006612609613998565b906101000a90046001600160a01b031661271386600760009061262a613998565b6001600160a01b036101009290920a90041663dd62ed3e8b6000600661264e613998565b906101000a90046001600160a01b03166040516001600160e01b031960e085901b1681526001600160a01b03928316600482015291166024820152604401602060405180830381868061269f6139f3565b1580156126b4576000806126b161392d565b50505b505a6126be613b46565b50505050501580156126dd573d6000803e3d60006126da61392d565b50505b505050506040513d60208110156126fc576000806126f961392d565b50505b8101908080519392505063ffffffff6134cd169050565b6040516001600160e01b031960e086901b1681526001600160a01b0393841660048201529190921660248201526044810191909152606401600060405180830381600087806127606139f3565b1580156127755760008061277261392d565b50505b505a61277f613a3f565b50505050505015801561279f573d6000803e3d600061279c61392d565b50505b505050505b610bd88484846130b2565b60006127f866119959541bdbdb60ca1b60405160408082019052601781527f4d697373696e6720466565506f6f6c20616464726573730000000000000000006020820152613588565b905090565b60006127f86822bc31b430b733b2b960b91b60405160408082019052601981527f4d697373696e672045786368616e6765722061646472657373000000000000006020820152613588565b60006127f86524b9b9bab2b960d11b6040516040808201905260168152754d697373696e6720497373756572206164647265737360501b6020820152613588565b60006007612895613998565b6001600160a01b036101009290920a90041663b46310f68361298a84600060076128bd613998565b906101000a90046001600160a01b03166001600160a01b03166370a08231886040516001600160e01b031960e084901b1681526001600160a01b03909116600482015260240160206040518083038186806129166139f3565b15801561292b5760008061292861392d565b50505b505a612935613b46565b5050505050158015612954573d6000803e3d600061295161392d565b50505b505050506040513d60208110156129735760008061297061392d565b50505b8101908080519392505063ffffffff613651169050565b6040516001600160e01b031960e085901b1681526001600160a01b0390921660048301526024820152604401600060405180830381600087806129cb6139f3565b1580156129e0576000806129dd61392d565b50505b505a6129ea613a3f565b505050505050158015612a0a573d6000803e3d6000612a0761392d565b50505b50505050612a2881600a612a1c613998565b9063ffffffff61365116565b80600a612a33613af8565b505050612a42600083836136b9565b610e368282613726565b6000806007612a59613998565b6001600160a01b036101009290920a90041663b46310f684612ada8560006007612a81613998565b906101000a90046001600160a01b03166001600160a01b03166370a08231896040516001600160e01b031960e084901b1681526001600160a01b039091166004820152602401602060405180830381868061269f6139f3565b6040516001600160e01b031960e085901b1681526001600160a01b039092166004830152602482015260440160006040518083038160008780612b1b6139f3565b158015612b3057600080612b2d61392d565b50505b505a612b3a613a3f565b505050505050158015612b5a573d6000803e3d6000612b5761392d565b50505b50505050612b7882600a612b6c613998565b9063ffffffff6134cd16565b80600a612b83613af8565b505050612b92836000846136b9565b612b9c83836138a7565b50600192915050565b60006004612bb1613998565b906101000a90046001600160a01b03166001600160a01b03165a612bd3613bff565b6001600160a01b031614158015612c1f575060006005612bf1613998565b906101000a90046001600160a01b03166001600160a01b03165a612c13613bff565b6001600160a01b031614155b8015612c6057505a612c2f613bff565b6001600160a01b031660006006612c44613998565b906101000a90046001600160a01b03166001600160a01b031614155b15612ca1575a612c6e613bff565b6006600181612c7b613998565b816001600160a01b0302191690836001600160a01b0316021790612c9d613af8565b5050505b600080612cac613998565b6001600160a01b036101009290920a90041660006006612cca613998565b906101000a90046001600160a01b03166001600160a01b0316146120fd5760405162461bcd60e51b815260206004820152601360248201527227bbb732b91037b7363c90333ab731ba34b7b760691b604482015260640160405180910390610e3661392d565b60006004612d3c613998565b906101000a90046001600160a01b03166001600160a01b031663907dff97826040516001600160a01b0390911660208201526040908101905160208183030381529060405260016040517f546f6b656e5374617465557064617465642861646472657373290000000000008152601a01604051809103902060008060006040518763ffffffff1660e01b815260040180806020018781526020018681526020018560001b81526020018460001b81526020018360001b8152602001828103825288818151815260200191508051906020019080838360005b83811015612e2c578082015183820152602001612e14565b50505050905090810190601f168015612e595780820380516001836020036101000a031916815260200191505b5097505050505050505060006040518083038160008780612e786139f3565b158015612e8d57600080612e8a61392d565b50505b505a612e97613a3f565b50505050505015801561134f573d6000803e3d600061226f61392d565b600080600e612ec1613998565b631cd554d160e21b1415612efd575081612ef760006006612ee0613998565b906101000a90046001600160a01b031685856130b2565b5061301a565b612f056127fd565b6001600160a01b0316630a1e187d60006006612f1f613998565b906101000a90046001600160a01b0316600e612f39613998565b8673feefeefeefeefeefeefeefeefeefeefeefeefeef6040516001600160e01b031960e087901b1681526001600160a01b03948516600482015260248101939093526044830191909152631cd554d160e21b6064830152909116608482015260a40160206040518083038160008780612fb06139f3565b158015612fc557600080612fc261392d565b50505b505a612fcf613a3f565b505050505050158015612fef573d6000803e3d6000612fec61392d565b50505b505050506040513d602081101561300e5760008061300b61392d565b50505b81019080805193505050505b6130226127af565b6001600160a01b03166322bf55ef826040516001600160e01b031960e084901b1681526004810191909152602401600060405180830381600087806130656139f3565b15801561307a5760008061307761392d565b50505b505a613084613a3f565b5050505050501580156130a4573d6000803e3d60006130a161392d565b50505b506001979650505050505050565b60006001600160a01b0383161580159061313657505a63996d79a5598160e01b8152602081600483336000905af158601d01573d60011458600c01573d6000803e3d621234565260ea61109c528051925060005b604081101561311d57600082820152602001613106565b5050506001600160a01b0316836001600160a01b031614155b801561316f575060006004613149613998565b906101000a90046001600160a01b03166001600160a01b0316836001600160a01b031614155b6131c85760405162461bcd60e51b815260206004820152601f60248201527f43616e6e6f74207472616e7366657220746f20746869732061646472657373006044820152606401604051809103906131c561392d565b50505b600060076131d4613998565b6001600160a01b036101009290920a90041663b46310f68561325585600060076131fc613998565b906101000a90046001600160a01b03166001600160a01b03166370a082318a6040516001600160e01b031960e084901b1681526001600160a01b039091166004820152602401602060405180830381868061269f6139f3565b6040516001600160e01b031960e085901b1681526001600160a01b0390921660048301526024820152604401600060405180830381600087806132966139f3565b1580156132ab576000806132a861392d565b50505b505a6132b5613a3f565b5050505050501580156132d5573d6000803e3d60006132d261392d565b50505b5050505060076000906132e6613998565b6001600160a01b036101009290920a90041663b46310f684613367856000600761330e613998565b906101000a90046001600160a01b03166001600160a01b03166370a08231896040516001600160e01b031960e084901b1681526001600160a01b03909116600482015260240160206040518083038186806129166139f3565b6040516001600160e01b031960e085901b1681526001600160a01b0390921660048301526024820152604401600060405180830381600087806133a86139f3565b1580156133bd576000806133ba61392d565b50505b505a6133c7613a3f565b5050505050501580156133e7573d6000803e3d60006133e461392d565b50505b505050506133f68484846136b9565b5060019392505050565b6000600461340c613998565b906101000a90046001600160a01b03166001600160a01b03165a61342e613bff565b6001600160a01b0316148061347757506000600561344a613998565b906101000a90046001600160a01b03166001600160a01b03165a61346c613bff565b6001600160a01b0316145b6120fd5760405162461bcd60e51b815260206004820152601760248201527f4f6e6c79207468652070726f78792063616e2063616c6c000000000000000000604482015260640160405180910390610e3661392d565b60008282111561352c5760405162461bcd60e51b815260206004820152601e60248201527f536166654d6174683a207375627472616374696f6e206f766572666c6f77000060448201526064016040518091039061352961392d565b50505b50900390565b6001600160a01b031690565b60006127f86b53797374656d53746174757360a01b60405160408082019052601c81527f4d697373696e672053797374656d53746174757320616464726573730000000060208201525b6000828152600c60205280604081206000906135a2613998565b6001600160a01b036101009290920a900416905082816136495760405162461bcd60e51b81526004018080602001828103825283818151815260200191508051906020019080838360005b838110156136055780820151838201526020016135ed565b50505050905090810190601f1680156136325780820380516001836020036101000a031916815260200191505b50925050506040518091039061364661392d565b50505b509392505050565b6000828201838110156117b85760405162461bcd60e51b815260206004820152601b60248201527f536166654d6174683a206164646974696f6e206f766572666c6f7700000000006044820152606401604051809103906136b061392d565b50509392505050565b600060046136c5613998565b906101000a90046001600160a01b03166001600160a01b031663907dff9782604051602001808281526020019150506040516020818303038152906040526003604051806021613db582396021019050604051809103902061216c88613532565b60006004613732613998565b906101000a90046001600160a01b03166001600160a01b031663907dff97826040516020018082815260200191505060405160208183030381529060405260026040517f49737375656428616464726573732c75696e7432353629000000000000000000815260170160405180910390206137ac87613532565b6000806040518763ffffffff1660e01b815260040180806020018781526020018681526020018581526020018460001b81526020018360001b8152602001828103825288818151815260200191508051906020019080838360005b8381101561381f578082015183820152602001613807565b50505050905090810190601f16801561384c5780820380516001836020036101000a031916815260200191505b509750505050505050506000604051808303816000878061386b6139f3565b1580156138805760008061387d61392d565b50505b505a61388a613a3f565b5050505050501580156116a4573d6000803e3d60006124da61392d565b600060046138b3613998565b906101000a90046001600160a01b03166001600160a01b031663907dff97826040516020018082815260200191505060405160208183030381529060405260026040517f4275726e656428616464726573732c75696e7432353629000000000000000000815260170160405180910390206137ac87613532565b632a2a7adb598160e01b8152600481016020815285602082015260005b8681101561396557808601518282016040015260200161394a565b506020828760640184336000905af158601d01573d60011458600c01573d6000803e3d621234565260ea61109c52505050565b6303daa959598160e01b8152836004820152602081602483336000905af158601d01573d60011458600c01573d6000803e3d621234565260ea61109c528051935060005b6040811015611273576000828201526020016139dc565b638435035b598160e01b8152836004820152602081602483336000905af158601d01573d60011458600c01573d6000803e3d621234565260ea61109c52805160008252935060206139dc565b6385979f76598160e01b8152836004820152846024820152606060448201528760648201526084810160005b89811015613a83578089015182820152602001613a6b565b50886101040182016060838b6101040185336000905af158601d01573d60011458600c01573d6000803e3d621234565260ea61109c52825160408401513d6000863e8d8d82606088013350600060045af15059855b81811015613aec5760008152602001613ad8565b50919d50505050505050565b6322bd64c0598160e01b8152836004820152846024820152600081604483336000905af158601d01573d60011458600c01573d6000803e3d621234565260ea61109c526000815260206139dc565b638540661f598160e01b8152836004820152846024820152606060448201528660648201526084810160005b88811015613b8a578088015182820152602001613b72565b50876101040182016060838a6101040185336000905af158601d01573d60011458600c01573d6000803e3d621234565260ea61109c52825160408401513d6000863e8c8c82606088013350600060045af15059855b81811015613bf35760008152602001613bdf565b50919c50505050505050565b6373509064598160e01b8152602081600483336000905af158601d01573d60011458600c01573d6000803e3d621234565260ea61109c52805160008252935060206139dc565b63bdbf8c36598160e01b8152602081600483336000905af158601d01573d60011458600c01573d6000803e3d621234565260ea61109c52805160008252935060206139dc565b60405161030080820160405260189082908038833950919291505056fe596f75206d757374206265206e6f6d696e61746564206265666f726520796f752063616e20616363657074206f776e657273686970496e73756666696369656e742062616c616e636520616674657220616e7920736574746c656d656e74206f77696e674f6e6c7920466565506f6f6c2c2045786368616e676572206f722049737375657220636f6e74726163747320616c6c6f7765644f6e6c792074686520636f6e7472616374206f776e6572206d617920706572666f726d207468697320616374696f6e417070726f76616c28616464726573732c616464726573732c75696e743235362943616e6e6f74207472616e7366657220647572696e672077616974696e6720706572696f645472616e7366657228616464726573732c616464726573732c75696e7432353629",
			"opcodes": "PUSH1 0x80 PUSH1 0x40 MSTORE CALLVALUE DUP1 ISZERO PUSH2 0x19 JUMPI PUSH1 0x0 DUP1 PUSH2 0x16 PUSH2 0x392D JUMP JUMPDEST POP POP JUMPDEST POP PUSH1 0x4 CALLDATASIZE LT PUSH2 0x27D JUMPI PUSH1 0x0 CALLDATALOAD PUSH1 0xE0 SHR DUP1 PUSH4 0x9CBDAEB6 GT PUSH2 0x15A JUMPI DUP1 PUSH4 0xC6C9D828 GT PUSH2 0xCC JUMPI DUP1 PUSH4 0xE73CCED3 GT PUSH2 0x90 JUMPI DUP1 PUSH4 0xE73CCED3 EQ PUSH2 0x789 JUMPI DUP1 PUSH4 0xE90DD9E2 EQ PUSH2 0x7C8 JUMPI DUP1 PUSH4 0xEB1EDD61 EQ PUSH2 0x7D0 JUMPI DUP1 PUSH4 0xEC556889 EQ PUSH2 0x7D8 JUMPI DUP1 PUSH4 0xF7EA7A3D EQ PUSH2 0x7E0 JUMPI DUP1 PUSH4 0xFFFF51D6 EQ PUSH2 0x806 JUMPI PUSH2 0x27D JUMP JUMPDEST DUP1 PUSH4 0xC6C9D828 EQ PUSH2 0x714 JUMPI DUP1 PUSH4 0xD67BDD25 EQ PUSH2 0x73A JUMPI DUP1 PUSH4 0xDBD06C85 EQ PUSH2 0x742 JUMPI DUP1 PUSH4 0xDD62ED3E EQ PUSH2 0x74A JUMPI DUP1 PUSH4 0xE3235C91 EQ PUSH2 0x781 JUMPI PUSH2 0x27D JUMP JUMPDEST DUP1 PUSH4 0xAB49848C GT PUSH2 0x11E JUMPI DUP1 PUSH4 0xAB49848C EQ PUSH2 0x657 JUMPI DUP1 PUSH4 0xB014C3A3 EQ PUSH2 0x698 JUMPI DUP1 PUSH4 0xB8225DEC EQ PUSH2 0x6CD JUMPI DUP1 PUSH4 0xBC67F832 EQ PUSH2 0x6D5 JUMPI DUP1 PUSH4 0xBD32AA44 EQ PUSH2 0x704 JUMPI DUP1 PUSH4 0xC58AAAE6 EQ PUSH2 0x70C JUMPI PUSH2 0x27D JUMP JUMPDEST DUP1 PUSH4 0x9CBDAEB6 EQ PUSH2 0x5AE JUMPI DUP1 PUSH4 0x9DC29FAC EQ PUSH2 0x5B6 JUMPI DUP1 PUSH4 0x9F769807 EQ PUSH2 0x5EB JUMPI DUP1 PUSH4 0xA461FC82 EQ PUSH2 0x61A JUMPI DUP1 PUSH4 0xA9059CBB EQ PUSH2 0x622 JUMPI PUSH2 0x27D JUMP JUMPDEST DUP1 PUSH4 0x3278C960 GT PUSH2 0x1F3 JUMPI DUP1 PUSH4 0x79BA5097 GT PUSH2 0x1B7 JUMPI DUP1 PUSH4 0x79BA5097 EQ PUSH2 0x52A JUMPI DUP1 PUSH4 0x867904B4 EQ PUSH2 0x532 JUMPI DUP1 PUSH4 0x8DA5CB5B EQ PUSH2 0x567 JUMPI DUP1 PUSH4 0x95D89B41 EQ PUSH2 0x56F JUMPI DUP1 PUSH4 0x97107D6D EQ PUSH2 0x577 JUMPI DUP1 PUSH4 0x9CB8A26A EQ PUSH2 0x5A6 JUMPI PUSH2 0x27D JUMP JUMPDEST DUP1 PUSH4 0x3278C960 EQ PUSH2 0x48D JUMPI DUP1 PUSH4 0x3BE99E6F EQ PUSH2 0x495 JUMPI DUP1 PUSH4 0x53A47BB7 EQ PUSH2 0x4C4 JUMPI DUP1 PUSH4 0x631E1444 EQ PUSH2 0x4CC JUMPI DUP1 PUSH4 0x70A08231 EQ PUSH2 0x4FB JUMPI PUSH2 0x27D JUMP JUMPDEST DUP1 PUSH4 0x17C70DE4 GT PUSH2 0x245 JUMPI DUP1 PUSH4 0x17C70DE4 EQ PUSH2 0x3D7 JUMPI DUP1 PUSH4 0x18160DDD EQ PUSH2 0x3F1 JUMPI DUP1 PUSH4 0x20714F88 EQ PUSH2 0x3F9 JUMPI DUP1 PUSH4 0x23B872DD EQ PUSH2 0x428 JUMPI DUP1 PUSH4 0x2E0F2625 EQ PUSH2 0x467 JUMPI DUP1 PUSH4 0x313CE567 EQ PUSH2 0x485 JUMPI PUSH2 0x27D JUMP JUMPDEST DUP1 PUSH4 0x4F3BCEC EQ PUSH2 0x28B JUMPI DUP1 PUSH4 0x6FDDE03 EQ PUSH2 0x2AF JUMPI DUP1 PUSH4 0x95EA7B3 EQ PUSH2 0x32E JUMPI DUP1 PUSH4 0x131B0AE7 EQ PUSH2 0x377 JUMPI DUP1 PUSH4 0x1627540C EQ PUSH2 0x3A8 JUMPI JUMPDEST PUSH1 0x0 DUP1 PUSH2 0x288 PUSH2 0x392D JUMP JUMPDEST POP POP JUMPDEST PUSH2 0x293 PUSH2 0x835 JUMP JUMPDEST PUSH1 0x40 MLOAD PUSH1 0x1 PUSH1 0x1 PUSH1 0xA0 SHL SUB SWAP1 SWAP2 AND DUP2 MSTORE PUSH1 0x20 ADD PUSH1 0x40 MLOAD DUP1 SWAP2 SUB SWAP1 RETURN JUMPDEST PUSH2 0x2B7 PUSH2 0x854 JUMP JUMPDEST PUSH1 0x40 MLOAD PUSH1 0x20 DUP1 DUP3 MSTORE DUP2 SWAP1 DUP2 ADD DUP4 DUP2 DUP2 MLOAD DUP2 MSTORE PUSH1 0x20 ADD SWAP2 POP DUP1 MLOAD SWAP1 PUSH1 0x20 ADD SWAP1 DUP1 DUP4 DUP4 PUSH1 0x0 JUMPDEST DUP4 DUP2 LT ISZERO PUSH2 0x2F3 JUMPI DUP1 DUP3 ADD MLOAD DUP4 DUP3 ADD MSTORE PUSH1 0x20 ADD PUSH2 0x2DB JUMP JUMPDEST POP POP POP POP SWAP1 POP SWAP1 DUP2 ADD SWAP1 PUSH1 0x1F AND DUP1 ISZERO PUSH2 0x320 JUMPI DUP1 DUP3 SUB DUP1 MLOAD PUSH1 0x1 DUP4 PUSH1 0x20 SUB PUSH2 0x100 EXP SUB NOT AND DUP2 MSTORE PUSH1 0x20 ADD SWAP2 POP JUMPDEST POP SWAP3 POP POP POP PUSH1 0x40 MLOAD DUP1 SWAP2 SUB SWAP1 RETURN JUMPDEST PUSH2 0x363 PUSH1 0x4 DUP1 CALLDATASIZE SUB PUSH1 0x40 DUP2 LT ISZERO PUSH2 0x34D JUMPI PUSH1 0x0 DUP1 PUSH2 0x34A PUSH2 0x392D JUMP JUMPDEST POP POP JUMPDEST POP PUSH1 0x1 PUSH1 0x1 PUSH1 0xA0 SHL SUB DUP2 CALLDATALOAD AND SWAP1 PUSH1 0x20 ADD CALLDATALOAD PUSH2 0x90D JUMP JUMPDEST PUSH1 0x40 MLOAD SWAP1 ISZERO ISZERO DUP2 MSTORE PUSH1 0x20 ADD PUSH1 0x40 MLOAD DUP1 SWAP2 SUB SWAP1 RETURN JUMPDEST PUSH2 0x3A6 PUSH1 0x4 DUP1 CALLDATASIZE SUB PUSH1 0x20 DUP2 LT ISZERO PUSH2 0x396 JUMPI PUSH1 0x0 DUP1 PUSH2 0x393 PUSH2 0x392D JUMP JUMPDEST POP POP JUMPDEST POP CALLDATALOAD PUSH1 0x1 PUSH1 0x1 PUSH1 0xA0 SHL SUB AND PUSH2 0xA0B JUMP JUMPDEST STOP JUMPDEST PUSH2 0x3A6 PUSH1 0x4 DUP1 CALLDATASIZE SUB PUSH1 0x20 DUP2 LT ISZERO PUSH2 0x3C7 JUMPI PUSH1 0x0 DUP1 PUSH2 0x3C4 PUSH2 0x392D JUMP JUMPDEST POP POP JUMPDEST POP CALLDATALOAD PUSH1 0x1 PUSH1 0x1 PUSH1 0xA0 SHL SUB AND PUSH2 0xA49 JUMP JUMPDEST PUSH2 0x3DF PUSH2 0xAC3 JUMP JUMPDEST PUSH1 0x40 MLOAD SWAP1 DUP2 MSTORE PUSH1 0x20 ADD PUSH1 0x40 MLOAD DUP1 SWAP2 SUB SWAP1 RETURN JUMPDEST PUSH2 0x3DF PUSH2 0xAD0 JUMP JUMPDEST PUSH2 0x3A6 PUSH1 0x4 DUP1 CALLDATASIZE SUB PUSH1 0x20 DUP2 LT ISZERO PUSH2 0x418 JUMPI PUSH1 0x0 DUP1 PUSH2 0x415 PUSH2 0x392D JUMP JUMPDEST POP POP JUMPDEST POP CALLDATALOAD PUSH1 0x1 PUSH1 0x1 PUSH1 0xA0 SHL SUB AND PUSH2 0xADA JUMP JUMPDEST PUSH2 0x363 PUSH1 0x4 DUP1 CALLDATASIZE SUB PUSH1 0x60 DUP2 LT ISZERO PUSH2 0x447 JUMPI PUSH1 0x0 DUP1 PUSH2 0x444 PUSH2 0x392D JUMP JUMPDEST POP POP JUMPDEST POP PUSH1 0x1 PUSH1 0x1 PUSH1 0xA0 SHL SUB DUP2 CALLDATALOAD DUP2 AND SWAP2 PUSH1 0x20 DUP2 ADD CALLDATALOAD SWAP1 SWAP2 AND SWAP1 PUSH1 0x40 ADD CALLDATALOAD PUSH2 0xBB9 JUMP JUMPDEST PUSH2 0x46F PUSH2 0xBE0 JUMP JUMPDEST PUSH1 0x40 MLOAD PUSH1 0xFF SWAP1 SWAP2 AND DUP2 MSTORE PUSH1 0x20 ADD PUSH1 0x40 MLOAD DUP1 SWAP2 SUB SWAP1 RETURN JUMPDEST PUSH2 0x46F PUSH2 0xBE5 JUMP JUMPDEST PUSH2 0x3A6 PUSH2 0xBFE JUMP JUMPDEST PUSH2 0x3A6 PUSH1 0x4 DUP1 CALLDATASIZE SUB PUSH1 0x20 DUP2 LT ISZERO PUSH2 0x4B4 JUMPI PUSH1 0x0 DUP1 PUSH2 0x4B1 PUSH2 0x392D JUMP JUMPDEST POP POP JUMPDEST POP CALLDATALOAD PUSH1 0x1 PUSH1 0x1 PUSH1 0xA0 SHL SUB AND PUSH2 0xC6F JUMP JUMPDEST PUSH2 0x293 PUSH2 0xE3A JUMP JUMPDEST PUSH2 0x363 PUSH1 0x4 DUP1 CALLDATASIZE SUB PUSH1 0x20 DUP2 LT ISZERO PUSH2 0x4EB JUMPI PUSH1 0x0 DUP1 PUSH2 0x4E8 PUSH2 0x392D JUMP JUMPDEST POP POP JUMPDEST POP CALLDATALOAD PUSH1 0x1 PUSH1 0x1 PUSH1 0xA0 SHL SUB AND PUSH2 0xE46 JUMP JUMPDEST PUSH2 0x3DF PUSH1 0x4 DUP1 CALLDATASIZE SUB PUSH1 0x20 DUP2 LT ISZERO PUSH2 0x51A JUMPI PUSH1 0x0 DUP1 PUSH2 0x517 PUSH2 0x392D JUMP JUMPDEST POP POP JUMPDEST POP CALLDATALOAD PUSH1 0x1 PUSH1 0x1 PUSH1 0xA0 SHL SUB AND PUSH2 0x1023 JUMP JUMPDEST PUSH2 0x3A6 PUSH2 0x10F5 JUMP JUMPDEST PUSH2 0x3A6 PUSH1 0x4 DUP1 CALLDATASIZE SUB PUSH1 0x40 DUP2 LT ISZERO PUSH2 0x551 JUMPI PUSH1 0x0 DUP1 PUSH2 0x54E PUSH2 0x392D JUMP JUMPDEST POP POP JUMPDEST POP PUSH1 0x1 PUSH1 0x1 PUSH1 0xA0 SHL SUB DUP2 CALLDATALOAD AND SWAP1 PUSH1 0x20 ADD CALLDATALOAD PUSH2 0x1278 JUMP JUMPDEST PUSH2 0x293 PUSH2 0x1356 JUMP JUMPDEST PUSH2 0x2B7 PUSH2 0x1361 JUMP JUMPDEST PUSH2 0x3A6 PUSH1 0x4 DUP1 CALLDATASIZE SUB PUSH1 0x20 DUP2 LT ISZERO PUSH2 0x596 JUMPI PUSH1 0x0 DUP1 PUSH2 0x593 PUSH2 0x392D JUMP JUMPDEST POP POP JUMPDEST POP CALLDATALOAD PUSH1 0x1 PUSH1 0x1 PUSH1 0xA0 SHL SUB AND PUSH2 0x1403 JUMP JUMPDEST PUSH2 0x3A6 PUSH2 0x147E JUMP JUMPDEST PUSH2 0x293 PUSH2 0x15C1 JUMP JUMPDEST PUSH2 0x3A6 PUSH1 0x4 DUP1 CALLDATASIZE SUB PUSH1 0x40 DUP2 LT ISZERO PUSH2 0x5D5 JUMPI PUSH1 0x0 DUP1 PUSH2 0x5D2 PUSH2 0x392D JUMP JUMPDEST POP POP JUMPDEST POP PUSH1 0x1 PUSH1 0x1 PUSH1 0xA0 SHL SUB DUP2 CALLDATALOAD AND SWAP1 PUSH1 0x20 ADD CALLDATALOAD PUSH2 0x15CD JUMP JUMPDEST PUSH2 0x3A6 PUSH1 0x4 DUP1 CALLDATASIZE SUB PUSH1 0x20 DUP2 LT ISZERO PUSH2 0x60A JUMPI PUSH1 0x0 DUP1 PUSH2 0x607 PUSH2 0x392D JUMP JUMPDEST POP POP JUMPDEST POP CALLDATALOAD PUSH1 0x1 PUSH1 0x1 PUSH1 0xA0 SHL SUB AND PUSH2 0x16AC JUMP JUMPDEST PUSH2 0x3DF PUSH2 0x16F3 JUMP JUMPDEST PUSH2 0x363 PUSH1 0x4 DUP1 CALLDATASIZE SUB PUSH1 0x40 DUP2 LT ISZERO PUSH2 0x641 JUMPI PUSH1 0x0 DUP1 PUSH2 0x63E PUSH2 0x392D JUMP JUMPDEST POP POP JUMPDEST POP PUSH1 0x1 PUSH1 0x1 PUSH1 0xA0 SHL SUB DUP2 CALLDATALOAD AND SWAP1 PUSH1 0x20 ADD CALLDATALOAD PUSH2 0x16FA JUMP JUMPDEST PUSH2 0x65F PUSH2 0x17BF JUMP JUMPDEST PUSH1 0x40 MLOAD DUP1 DUP3 PUSH2 0x300 DUP1 DUP4 DUP4 PUSH1 0x0 JUMPDEST DUP4 DUP2 LT ISZERO PUSH2 0x685 JUMPI DUP1 DUP3 ADD MLOAD DUP4 DUP3 ADD MSTORE PUSH1 0x20 ADD PUSH2 0x66D JUMP JUMPDEST POP POP POP POP SWAP1 POP ADD SWAP2 POP POP PUSH1 0x40 MLOAD DUP1 SWAP2 SUB SWAP1 RETURN JUMPDEST PUSH2 0x363 PUSH1 0x4 DUP1 CALLDATASIZE SUB PUSH1 0x40 DUP2 LT ISZERO PUSH2 0x6B7 JUMPI PUSH1 0x0 DUP1 PUSH2 0x6B4 PUSH2 0x392D JUMP JUMPDEST POP POP JUMPDEST POP PUSH1 0x1 PUSH1 0x1 PUSH1 0xA0 SHL SUB DUP2 CALLDATALOAD AND SWAP1 PUSH1 0x20 ADD CALLDATALOAD PUSH2 0x1821 JUMP JUMPDEST PUSH2 0x363 PUSH2 0x1A51 JUMP JUMPDEST PUSH2 0x3A6 PUSH1 0x4 DUP1 CALLDATASIZE SUB PUSH1 0x20 DUP2 LT ISZERO PUSH2 0x6F4 JUMPI PUSH1 0x0 DUP1 PUSH2 0x6F1 PUSH2 0x392D JUMP JUMPDEST POP POP JUMPDEST POP CALLDATALOAD PUSH1 0x1 PUSH1 0x1 PUSH1 0xA0 SHL SUB AND PUSH2 0x1A5D JUMP JUMPDEST PUSH2 0x3A6 PUSH2 0x1A73 JUMP JUMPDEST PUSH2 0x293 PUSH2 0x1AF5 JUMP JUMPDEST PUSH2 0x3DF PUSH1 0x4 DUP1 CALLDATASIZE SUB PUSH1 0x20 DUP2 LT ISZERO PUSH2 0x733 JUMPI PUSH1 0x0 DUP1 PUSH2 0x730 PUSH2 0x392D JUMP JUMPDEST POP POP JUMPDEST POP CALLDATALOAD PUSH2 0x1B01 JUMP JUMPDEST PUSH2 0x293 PUSH2 0x1B29 JUMP JUMPDEST PUSH2 0x3DF PUSH2 0x1B35 JUMP JUMPDEST PUSH2 0x3DF PUSH1 0x4 DUP1 CALLDATASIZE SUB PUSH1 0x40 DUP2 LT ISZERO PUSH2 0x769 JUMPI PUSH1 0x0 DUP1 PUSH2 0x766 PUSH2 0x392D JUMP JUMPDEST POP POP JUMPDEST POP PUSH1 0x1 PUSH1 0x1 PUSH1 0xA0 SHL SUB DUP2 CALLDATALOAD DUP2 AND SWAP2 PUSH1 0x20 ADD CALLDATALOAD AND PUSH2 0x1B3F JUMP JUMPDEST PUSH2 0x3DF PUSH2 0x1C1A JUMP JUMPDEST PUSH2 0x363 PUSH1 0x4 DUP1 CALLDATASIZE SUB PUSH1 0x60 DUP2 LT ISZERO PUSH2 0x7A8 JUMPI PUSH1 0x0 DUP1 PUSH2 0x7A5 PUSH2 0x392D JUMP JUMPDEST POP POP JUMPDEST POP PUSH1 0x1 PUSH1 0x1 PUSH1 0xA0 SHL SUB DUP2 CALLDATALOAD DUP2 AND SWAP2 PUSH1 0x20 DUP2 ADD CALLDATALOAD SWAP1 SWAP2 AND SWAP1 PUSH1 0x40 ADD CALLDATALOAD PUSH2 0x1C1F JUMP JUMPDEST PUSH2 0x293 PUSH2 0x1E07 JUMP JUMPDEST PUSH2 0x293 PUSH2 0x1E13 JUMP JUMPDEST PUSH2 0x293 PUSH2 0x1E2B JUMP JUMPDEST PUSH2 0x3A6 PUSH1 0x4 DUP1 CALLDATASIZE SUB PUSH1 0x20 DUP2 LT ISZERO PUSH2 0x7FF JUMPI PUSH1 0x0 DUP1 PUSH2 0x7FC PUSH2 0x392D JUMP JUMPDEST POP POP JUMPDEST POP CALLDATALOAD PUSH2 0x1E37 JUMP JUMPDEST PUSH2 0x3DF PUSH1 0x4 DUP1 CALLDATASIZE SUB PUSH1 0x20 DUP2 LT ISZERO PUSH2 0x825 JUMPI PUSH1 0x0 DUP1 PUSH2 0x822 PUSH2 0x392D JUMP JUMPDEST POP POP JUMPDEST POP CALLDATALOAD PUSH1 0x1 PUSH1 0x1 PUSH1 0xA0 SHL SUB AND PUSH2 0x1E4B JUMP JUMPDEST PUSH1 0x1 PUSH1 0xB PUSH2 0x841 PUSH2 0x3998 JUMP JUMPDEST SWAP1 PUSH2 0x100 EXP SWAP1 DIV PUSH1 0x1 PUSH1 0x1 PUSH1 0xA0 SHL SUB AND DUP2 JUMP JUMPDEST PUSH1 0x8 DUP1 PUSH2 0x85F PUSH2 0x3998 JUMP JUMPDEST PUSH1 0x1 DUP2 PUSH1 0x1 AND ISZERO PUSH2 0x100 MUL SUB AND PUSH1 0x2 SWAP1 DIV DUP1 PUSH1 0x1F ADD PUSH1 0x20 DUP1 SWAP2 DIV MUL PUSH1 0x20 ADD PUSH1 0x40 MLOAD SWAP1 DUP2 ADD PUSH1 0x40 MSTORE DUP2 DUP2 MSTORE SWAP2 SWAP1 PUSH1 0x20 DUP4 ADD DUP3 DUP1 PUSH2 0x899 PUSH2 0x3998 JUMP JUMPDEST PUSH1 0x1 DUP2 PUSH1 0x1 AND ISZERO PUSH2 0x100 MUL SUB AND PUSH1 0x2 SWAP1 DIV DUP1 ISZERO PUSH2 0x905 JUMPI DUP1 PUSH1 0x1F LT PUSH2 0x8D3 JUMPI PUSH2 0x100 DUP1 DUP4 PUSH2 0x8C5 PUSH2 0x3998 JUMP JUMPDEST DIV MUL DUP4 MSTORE SWAP2 PUSH1 0x20 ADD SWAP2 PUSH2 0x905 JUMP JUMPDEST DUP3 ADD SWAP2 SWAP1 PUSH1 0x0 MSTORE PUSH1 0x20 PUSH1 0x0 KECCAK256 SWAP1 JUMPDEST DUP2 PUSH2 0x8EA PUSH2 0x3998 JUMP JUMPDEST DUP2 MSTORE SWAP1 PUSH1 0x1 ADD SWAP1 PUSH1 0x20 ADD DUP1 DUP4 GT PUSH2 0x8E1 JUMPI DUP3 SWAP1 SUB PUSH1 0x1F AND DUP3 ADD SWAP2 JUMPDEST POP POP POP POP POP DUP2 JUMP JUMPDEST PUSH1 0x0 PUSH2 0x917 PUSH2 0x2027 JUMP JUMPDEST PUSH1 0x0 DUP1 PUSH1 0x6 PUSH2 0x924 PUSH2 0x3998 JUMP JUMPDEST SWAP1 PUSH2 0x100 EXP SWAP1 DIV PUSH1 0x1 PUSH1 0x1 PUSH1 0xA0 SHL SUB AND SWAP1 POP PUSH1 0x7 PUSH1 0x0 SWAP1 PUSH2 0x943 PUSH2 0x3998 JUMP JUMPDEST SWAP1 PUSH2 0x100 EXP SWAP1 DIV PUSH1 0x1 PUSH1 0x1 PUSH1 0xA0 SHL SUB AND PUSH1 0x1 PUSH1 0x1 PUSH1 0xA0 SHL SUB AND PUSH4 0xDA46098C DUP3 DUP7 DUP7 PUSH1 0x40 MLOAD PUSH1 0x1 PUSH1 0x1 PUSH1 0xE0 SHL SUB NOT PUSH1 0xE0 DUP7 SWAP1 SHL AND DUP2 MSTORE PUSH1 0x1 PUSH1 0x1 PUSH1 0xA0 SHL SUB SWAP4 DUP5 AND PUSH1 0x4 DUP3 ADD MSTORE SWAP2 SWAP1 SWAP3 AND PUSH1 0x24 DUP3 ADD MSTORE PUSH1 0x44 DUP2 ADD SWAP2 SWAP1 SWAP2 MSTORE PUSH1 0x64 ADD PUSH1 0x0 PUSH1 0x40 MLOAD DUP1 DUP4 SUB DUP2 PUSH1 0x0 DUP8 DUP1 PUSH2 0x9B1 PUSH2 0x39F3 JUMP JUMPDEST ISZERO DUP1 ISZERO PUSH2 0x9C6 JUMPI PUSH1 0x0 DUP1 PUSH2 0x9C3 PUSH2 0x392D JUMP JUMPDEST POP POP JUMPDEST POP GAS PUSH2 0x9D0 PUSH2 0x3A3F JUMP JUMPDEST POP POP POP POP POP POP ISZERO DUP1 ISZERO PUSH2 0x9F0 JUMPI RETURNDATASIZE PUSH1 0x0 DUP1 RETURNDATACOPY RETURNDATASIZE PUSH1 0x0 PUSH2 0x9ED PUSH2 0x392D JUMP JUMPDEST POP POP JUMPDEST POP POP POP POP PUSH2 0x9FF DUP2 DUP6 DUP6 PUSH2 0x20FF JUMP JUMPDEST PUSH1 0x1 SWAP2 POP POP JUMPDEST SWAP3 SWAP2 POP POP JUMP JUMPDEST PUSH2 0xA13 PUSH2 0x2278 JUMP JUMPDEST DUP1 PUSH1 0x5 PUSH1 0x1 DUP2 PUSH2 0xA21 PUSH2 0x3998 JUMP JUMPDEST DUP2 PUSH1 0x1 PUSH1 0x1 PUSH1 0xA0 SHL SUB MUL NOT AND SWAP1 DUP4 PUSH1 0x1 PUSH1 0x1 PUSH1 0xA0 SHL SUB AND MUL OR SWAP1 PUSH2 0xA43 PUSH2 0x3AF8 JUMP JUMPDEST POP POP POP POP JUMP JUMPDEST PUSH2 0xA51 PUSH2 0x2278 JUMP JUMPDEST DUP1 PUSH1 0x1 DUP1 DUP1 PUSH2 0xA5E PUSH2 0x3998 JUMP JUMPDEST DUP2 PUSH1 0x1 PUSH1 0x1 PUSH1 0xA0 SHL SUB MUL NOT AND SWAP1 DUP4 PUSH1 0x1 PUSH1 0x1 PUSH1 0xA0 SHL SUB AND MUL OR SWAP1 PUSH2 0xA80 PUSH2 0x3AF8 JUMP JUMPDEST POP POP POP PUSH32 0x906A1C6BD7E3091EA86693DD029A831C19049CE77F1DCE2CE0BAB1CACBABCE22 DUP2 PUSH1 0x40 MLOAD PUSH1 0x1 PUSH1 0x1 PUSH1 0xA0 SHL SUB SWAP1 SWAP2 AND DUP2 MSTORE PUSH1 0x20 ADD PUSH1 0x40 MLOAD DUP1 SWAP2 SUB SWAP1 LOG1 POP JUMP JUMPDEST PUSH1 0x2 PUSH2 0xACD PUSH2 0x3998 JUMP JUMPDEST DUP2 JUMP JUMPDEST PUSH1 0xA PUSH2 0xACD PUSH2 0x3998 JUMP JUMPDEST PUSH2 0xAE2 PUSH2 0x2278 JUMP JUMPDEST PUSH1 0x1 PUSH1 0x1 PUSH1 0xA0 SHL SUB DUP2 AND PUSH2 0xB45 JUMPI PUSH1 0x40 MLOAD PUSH3 0x461BCD PUSH1 0xE5 SHL DUP2 MSTORE PUSH1 0x20 PUSH1 0x4 DUP3 ADD MSTORE PUSH1 0x1C PUSH1 0x24 DUP3 ADD MSTORE PUSH32 0x42656E6566696369617279206D757374206E6F74206265207A65726F00000000 PUSH1 0x44 DUP3 ADD MSTORE PUSH1 0x64 ADD PUSH1 0x40 MLOAD DUP1 SWAP2 SUB SWAP1 PUSH2 0xB42 PUSH2 0x392D JUMP JUMPDEST POP POP JUMPDEST DUP1 PUSH1 0x3 PUSH2 0x100 DUP2 PUSH2 0xB54 PUSH2 0x3998 JUMP JUMPDEST DUP2 PUSH1 0x1 PUSH1 0x1 PUSH1 0xA0 SHL SUB MUL NOT AND SWAP1 DUP4 PUSH1 0x1 PUSH1 0x1 PUSH1 0xA0 SHL SUB AND MUL OR SWAP1 PUSH2 0xB76 PUSH2 0x3AF8 JUMP JUMPDEST POP POP POP PUSH32 0xD5DA63A0B864B315BC04128DEDBC93888C8529EE6CF47CE664DC204339228C53 DUP2 PUSH1 0x40 MLOAD PUSH1 0x1 PUSH1 0x1 PUSH1 0xA0 SHL SUB SWAP1 SWAP2 AND DUP2 MSTORE PUSH1 0x20 ADD PUSH1 0x40 MLOAD DUP1 SWAP2 SUB SWAP1 LOG1 POP JUMP JUMPDEST PUSH1 0x0 PUSH2 0xBC3 PUSH2 0x2027 JUMP JUMPDEST PUSH2 0xBCD DUP5 DUP4 PUSH2 0x22F0 JUMP JUMPDEST PUSH2 0xBD8 DUP5 DUP5 DUP5 PUSH2 0x24E4 JUMP JUMPDEST SWAP5 SWAP4 POP POP POP POP JUMP JUMPDEST PUSH1 0x12 DUP2 JUMP JUMPDEST PUSH1 0x0 PUSH1 0xB PUSH2 0xBF1 PUSH2 0x3998 JUMP JUMPDEST SWAP1 PUSH2 0x100 EXP SWAP1 DIV PUSH1 0xFF AND DUP2 JUMP JUMPDEST PUSH2 0xC06 PUSH2 0x2278 JUMP JUMPDEST PUSH1 0x0 DUP1 PUSH1 0x2 PUSH2 0xC13 PUSH2 0x3AF8 JUMP JUMPDEST POP POP POP PUSH1 0x0 PUSH1 0x3 PUSH1 0x0 PUSH2 0x100 EXP DUP2 PUSH2 0xC29 PUSH2 0x3998 JUMP JUMPDEST DUP2 PUSH1 0xFF MUL NOT AND SWAP1 DUP4 ISZERO ISZERO MUL OR SWAP1 PUSH2 0xC3E PUSH2 0x3AF8 JUMP JUMPDEST POP POP POP PUSH32 0x6ADCC7125002935E0AA31697538EBBD65CFDDF20431EB6ECDCFC3E238BFD082C PUSH1 0x40 MLOAD PUSH1 0x40 MLOAD DUP1 SWAP2 SUB SWAP1 LOG1 JUMP JUMPDEST PUSH2 0xC77 PUSH2 0x2278 JUMP JUMPDEST DUP1 PUSH1 0xB PUSH2 0x100 DUP2 PUSH2 0xC86 PUSH2 0x3998 JUMP JUMPDEST DUP2 PUSH1 0x1 PUSH1 0x1 PUSH1 0xA0 SHL SUB MUL NOT AND SWAP1 DUP4 PUSH1 0x1 PUSH1 0x1 PUSH1 0xA0 SHL SUB AND MUL OR SWAP1 PUSH2 0xCA8 PUSH2 0x3AF8 JUMP JUMPDEST POP PUSH1 0x0 SWAP2 POP POP JUMPDEST PUSH1 0xD DUP1 PUSH2 0xCBA PUSH2 0x3998 JUMP JUMPDEST SWAP1 POP DUP2 LT ISZERO PUSH2 0xE36 JUMPI PUSH1 0x0 PUSH1 0xD DUP3 DUP2 PUSH2 0xCD1 PUSH2 0x3998 JUMP JUMPDEST DUP2 LT PUSH2 0xCD9 JUMPI INVALID JUMPDEST SWAP1 PUSH1 0x0 MSTORE PUSH1 0x20 PUSH1 0x0 KECCAK256 ADD PUSH2 0xCEB PUSH2 0x3998 JUMP JUMPDEST SWAP1 POP PUSH1 0x1 PUSH1 0xB PUSH2 0xCF9 PUSH2 0x3998 JUMP JUMPDEST SWAP1 PUSH2 0x100 EXP SWAP1 DIV PUSH1 0x1 PUSH1 0x1 PUSH1 0xA0 SHL SUB AND PUSH1 0x1 PUSH1 0x1 PUSH1 0xA0 SHL SUB AND PUSH4 0xDACB2D01 DUP3 PUSH1 0x40 MLOAD PUSH1 0x1 PUSH1 0x1 PUSH1 0xE0 SHL SUB NOT PUSH1 0xE0 DUP5 SWAP1 SHL AND DUP2 MSTORE PUSH1 0x4 DUP2 ADD SWAP2 SWAP1 SWAP2 MSTORE PUSH1 0x40 PUSH1 0x24 DUP3 ADD DUP2 SWAP1 MSTORE PUSH1 0x17 PUSH1 0x44 DUP4 ADD MSTORE PUSH32 0x5265736F6C766572206D697373696E6720746172676574000000000000000000 PUSH1 0x64 DUP4 ADD MSTORE PUSH1 0x84 SWAP1 SWAP2 ADD SWAP1 PUSH1 0x20 SWAP1 MLOAD DUP1 DUP4 SUB DUP2 DUP7 DUP1 PUSH2 0xD82 PUSH2 0x39F3 JUMP JUMPDEST ISZERO DUP1 ISZERO PUSH2 0xD97 JUMPI PUSH1 0x0 DUP1 PUSH2 0xD94 PUSH2 0x392D JUMP JUMPDEST POP POP JUMPDEST POP GAS PUSH2 0xDA1 PUSH2 0x3B46 JUMP JUMPDEST POP POP POP POP POP ISZERO DUP1 ISZERO PUSH2 0xDC0 JUMPI RETURNDATASIZE PUSH1 0x0 DUP1 RETURNDATACOPY RETURNDATASIZE PUSH1 0x0 PUSH2 0xDBD PUSH2 0x392D JUMP JUMPDEST POP POP JUMPDEST POP POP POP POP PUSH1 0x40 MLOAD RETURNDATASIZE PUSH1 0x20 DUP2 LT ISZERO PUSH2 0xDDF JUMPI PUSH1 0x0 DUP1 PUSH2 0xDDC PUSH2 0x392D JUMP JUMPDEST POP POP JUMPDEST DUP2 ADD SWAP1 DUP1 DUP1 MLOAD PUSH1 0x0 DUP6 DUP2 MSTORE PUSH1 0xC PUSH1 0x20 MSTORE SWAP1 SWAP4 POP PUSH1 0x40 SWAP3 POP SWAP1 POP KECCAK256 PUSH1 0x1 DUP2 PUSH2 0xE04 PUSH2 0x3998 JUMP JUMPDEST DUP2 PUSH1 0x1 PUSH1 0x1 PUSH1 0xA0 SHL SUB MUL NOT AND SWAP1 DUP4 PUSH1 0x1 PUSH1 0x1 PUSH1 0xA0 SHL SUB AND MUL OR SWAP1 PUSH2 0xE26 PUSH2 0x3AF8 JUMP JUMPDEST POP POP PUSH1 0x1 SWAP1 SWAP3 ADD SWAP2 POP PUSH2 0xCAF SWAP1 POP JUMP JUMPDEST POP POP JUMP JUMPDEST PUSH1 0x0 PUSH1 0x1 PUSH2 0x841 PUSH2 0x3998 JUMP JUMPDEST PUSH1 0x0 PUSH1 0x1 PUSH1 0x1 PUSH1 0xA0 SHL SUB DUP3 AND PUSH1 0x1 PUSH1 0xB PUSH2 0xE5E PUSH2 0x3998 JUMP JUMPDEST SWAP1 PUSH2 0x100 EXP SWAP1 DIV PUSH1 0x1 PUSH1 0x1 PUSH1 0xA0 SHL SUB AND PUSH1 0x1 PUSH1 0x1 PUSH1 0xA0 SHL SUB AND EQ PUSH2 0xE84 JUMPI POP PUSH1 0x0 PUSH2 0x101E JUMP JUMPDEST PUSH1 0x0 JUMPDEST PUSH1 0xD DUP1 PUSH2 0xE92 PUSH2 0x3998 JUMP JUMPDEST SWAP1 POP DUP2 LT ISZERO PUSH2 0x1018 JUMPI PUSH1 0x0 PUSH1 0xD DUP3 DUP2 PUSH2 0xEA9 PUSH2 0x3998 JUMP JUMPDEST DUP2 LT PUSH2 0xEB1 JUMPI INVALID JUMPDEST SWAP1 PUSH1 0x0 MSTORE PUSH1 0x20 PUSH1 0x0 KECCAK256 ADD PUSH2 0xEC3 PUSH2 0x3998 JUMP JUMPDEST PUSH1 0x0 DUP2 DUP2 MSTORE PUSH1 0xC PUSH1 0x20 MSTORE SWAP1 SWAP2 POP PUSH1 0x40 SWAP1 KECCAK256 PUSH1 0x0 SWAP1 PUSH2 0xEDF PUSH2 0x3998 JUMP JUMPDEST PUSH1 0x1 PUSH1 0x1 PUSH1 0xA0 SHL SUB PUSH2 0x100 SWAP3 SWAP1 SWAP3 EXP SWAP1 DIV AND PUSH1 0x1 PUSH1 0xB PUSH2 0xEFD PUSH2 0x3998 JUMP JUMPDEST SWAP1 PUSH2 0x100 EXP SWAP1 DIV PUSH1 0x1 PUSH1 0x1 PUSH1 0xA0 SHL SUB AND PUSH1 0x1 PUSH1 0x1 PUSH1 0xA0 SHL SUB AND PUSH4 0x21F8A721 DUP4 PUSH1 0x40 MLOAD PUSH1 0x1 PUSH1 0x1 PUSH1 0xE0 SHL SUB NOT PUSH1 0xE0 DUP5 SWAP1 SHL AND DUP2 MSTORE PUSH1 0x4 DUP2 ADD SWAP2 SWAP1 SWAP2 MSTORE PUSH1 0x24 ADD PUSH1 0x20 PUSH1 0x40 MLOAD DUP1 DUP4 SUB DUP2 DUP7 DUP1 PUSH2 0xF4E PUSH2 0x39F3 JUMP JUMPDEST ISZERO DUP1 ISZERO PUSH2 0xF63 JUMPI PUSH1 0x0 DUP1 PUSH2 0xF60 PUSH2 0x392D JUMP JUMPDEST POP POP JUMPDEST POP GAS PUSH2 0xF6D PUSH2 0x3B46 JUMP JUMPDEST POP POP POP POP POP ISZERO DUP1 ISZERO PUSH2 0xF8C JUMPI RETURNDATASIZE PUSH1 0x0 DUP1 RETURNDATACOPY RETURNDATASIZE PUSH1 0x0 PUSH2 0xF89 PUSH2 0x392D JUMP JUMPDEST POP POP JUMPDEST POP POP POP POP PUSH1 0x40 MLOAD RETURNDATASIZE PUSH1 0x20 DUP2 LT ISZERO PUSH2 0xFAB JUMPI PUSH1 0x0 DUP1 PUSH2 0xFA8 PUSH2 0x392D JUMP JUMPDEST POP POP JUMPDEST DUP2 ADD SWAP1 DUP1 DUP1 MLOAD PUSH1 0x1 PUSH1 0x1 PUSH1 0xA0 SHL SUB AND SWAP4 SWAP1 SWAP4 EQ ISZERO SWAP3 POP DUP3 SWAP2 POP PUSH2 0xFFF SWAP1 POP JUMPI POP PUSH1 0x0 DUP2 DUP2 MSTORE PUSH1 0xC PUSH1 0x20 MSTORE PUSH1 0x40 DUP2 KECCAK256 PUSH1 0x0 SWAP1 PUSH2 0xFE4 PUSH2 0x3998 JUMP JUMPDEST SWAP1 PUSH2 0x100 EXP SWAP1 DIV PUSH1 0x1 PUSH1 0x1 PUSH1 0xA0 SHL SUB AND PUSH1 0x1 PUSH1 0x1 PUSH1 0xA0 SHL SUB AND EQ JUMPDEST ISZERO PUSH2 0x100F JUMPI PUSH1 0x0 SWAP3 POP POP POP PUSH2 0x101E JUMP JUMPDEST POP PUSH1 0x1 ADD PUSH2 0xE87 JUMP JUMPDEST POP PUSH1 0x1 SWAP1 POP JUMPDEST SWAP2 SWAP1 POP JUMP JUMPDEST PUSH1 0x0 DUP1 PUSH1 0x7 PUSH2 0x1030 PUSH2 0x3998 JUMP JUMPDEST SWAP1 PUSH2 0x100 EXP SWAP1 DIV PUSH1 0x1 PUSH1 0x1 PUSH1 0xA0 SHL SUB AND PUSH1 0x1 PUSH1 0x1 PUSH1 0xA0 SHL SUB AND PUSH4 0x70A08231 DUP4 PUSH1 0x40 MLOAD PUSH1 0x1 PUSH1 0x1 PUSH1 0xE0 SHL SUB NOT PUSH1 0xE0 DUP5 SWAP1 SHL AND DUP2 MSTORE PUSH1 0x1 PUSH1 0x1 PUSH1 0xA0 SHL SUB SWAP1 SWAP2 AND PUSH1 0x4 DUP3 ADD MSTORE PUSH1 0x24 ADD PUSH1 0x20 PUSH1 0x40 MLOAD DUP1 DUP4 SUB DUP2 DUP7 DUP1 PUSH2 0x1089 PUSH2 0x39F3 JUMP JUMPDEST ISZERO DUP1 ISZERO PUSH2 0x109E JUMPI PUSH1 0x0 DUP1 PUSH2 0x109B PUSH2 0x392D JUMP JUMPDEST POP POP JUMPDEST POP GAS PUSH2 0x10A8 PUSH2 0x3B46 JUMP JUMPDEST POP POP POP POP POP ISZERO DUP1 ISZERO PUSH2 0x10C7 JUMPI RETURNDATASIZE PUSH1 0x0 DUP1 RETURNDATACOPY RETURNDATASIZE PUSH1 0x0 PUSH2 0x10C4 PUSH2 0x392D JUMP JUMPDEST POP POP JUMPDEST POP POP POP POP PUSH1 0x40 MLOAD RETURNDATASIZE PUSH1 0x20 DUP2 LT ISZERO PUSH2 0x10E6 JUMPI PUSH1 0x0 DUP1 PUSH2 0x10E3 PUSH2 0x392D JUMP JUMPDEST POP POP JUMPDEST DUP2 ADD SWAP1 DUP1 DUP1 MLOAD SWAP6 SWAP5 POP POP POP POP POP JUMP JUMPDEST PUSH1 0x0 PUSH1 0x1 PUSH2 0x1101 PUSH2 0x3998 JUMP JUMPDEST SWAP1 PUSH2 0x100 EXP SWAP1 DIV PUSH1 0x1 PUSH1 0x1 PUSH1 0xA0 SHL SUB AND PUSH1 0x1 PUSH1 0x1 PUSH1 0xA0 SHL SUB AND GAS PUSH2 0x1123 PUSH2 0x3BFF JUMP JUMPDEST PUSH1 0x1 PUSH1 0x1 PUSH1 0xA0 SHL SUB AND EQ PUSH2 0x1171 JUMPI PUSH1 0x40 MLOAD PUSH3 0x461BCD PUSH1 0xE5 SHL DUP2 MSTORE PUSH1 0x4 ADD DUP1 DUP1 PUSH1 0x20 ADD DUP3 DUP2 SUB DUP3 MSTORE PUSH1 0x35 DUP2 MSTORE PUSH1 0x20 ADD DUP1 PUSH2 0x3CA9 PUSH1 0x35 SWAP2 CODECOPY PUSH1 0x40 ADD SWAP2 POP POP PUSH1 0x40 MLOAD DUP1 SWAP2 SUB SWAP1 PUSH2 0x116E PUSH2 0x392D JUMP JUMPDEST POP POP JUMPDEST PUSH32 0xB532073B38C83145E3E5135377A08BF9AAB55BC0FD7C1179CD4FB995D2A5159C PUSH1 0x0 DUP1 PUSH2 0x119D PUSH2 0x3998 JUMP JUMPDEST SWAP1 PUSH2 0x100 EXP SWAP1 DIV PUSH1 0x1 PUSH1 0x1 PUSH1 0xA0 SHL SUB AND PUSH1 0x1 PUSH1 0x0 SWAP1 PUSH2 0x11BA PUSH2 0x3998 JUMP JUMPDEST SWAP1 PUSH2 0x100 EXP SWAP1 DIV PUSH1 0x1 PUSH1 0x1 PUSH1 0xA0 SHL SUB AND PUSH1 0x40 MLOAD PUSH1 0x1 PUSH1 0x1 PUSH1 0xA0 SHL SUB SWAP3 DUP4 AND DUP2 MSTORE SWAP2 AND PUSH1 0x20 DUP3 ADD MSTORE PUSH1 0x40 SWAP1 DUP2 ADD SWAP1 MLOAD DUP1 SWAP2 SUB SWAP1 LOG1 PUSH1 0x0 PUSH1 0x1 PUSH2 0x11F9 PUSH2 0x3998 JUMP JUMPDEST SWAP1 PUSH2 0x100 EXP SWAP1 DIV PUSH1 0x1 PUSH1 0x1 PUSH1 0xA0 SHL SUB AND PUSH1 0x0 DUP1 PUSH2 0x100 EXP DUP2 PUSH2 0x1219 PUSH2 0x3998 JUMP JUMPDEST DUP2 PUSH1 0x1 PUSH1 0x1 PUSH1 0xA0 SHL SUB MUL NOT AND SWAP1 DUP4 PUSH1 0x1 PUSH1 0x1 PUSH1 0xA0 SHL SUB AND MUL OR SWAP1 PUSH2 0x123B PUSH2 0x3AF8 JUMP JUMPDEST POP POP POP PUSH1 0x0 PUSH1 0x1 PUSH1 0x0 PUSH2 0x100 EXP DUP2 PUSH2 0x1251 PUSH2 0x3998 JUMP JUMPDEST DUP2 PUSH1 0x1 PUSH1 0x1 PUSH1 0xA0 SHL SUB MUL NOT AND SWAP1 DUP4 PUSH1 0x1 PUSH1 0x1 PUSH1 0xA0 SHL SUB AND MUL OR SWAP1 PUSH2 0x1273 PUSH2 0x3AF8 JUMP JUMPDEST POP POP POP JUMP JUMPDEST PUSH1 0x0 PUSH2 0x1282 PUSH2 0x27AF JUMP JUMPDEST PUSH1 0x1 PUSH1 0x1 PUSH1 0xA0 SHL SUB AND GAS PUSH2 0x1294 PUSH2 0x3BFF JUMP JUMPDEST PUSH1 0x1 PUSH1 0x1 PUSH1 0xA0 SHL SUB AND EQ SWAP1 POP PUSH1 0x0 PUSH2 0x12AA PUSH2 0x27FD JUMP JUMPDEST PUSH1 0x1 PUSH1 0x1 PUSH1 0xA0 SHL SUB AND GAS PUSH2 0x12BC PUSH2 0x3BFF JUMP JUMPDEST PUSH1 0x1 PUSH1 0x1 PUSH1 0xA0 SHL SUB AND EQ SWAP1 POP PUSH1 0x0 PUSH2 0x12D2 PUSH2 0x2848 JUMP JUMPDEST PUSH1 0x1 PUSH1 0x1 PUSH1 0xA0 SHL SUB AND GAS PUSH2 0x12E4 PUSH2 0x3BFF JUMP JUMPDEST PUSH1 0x1 PUSH1 0x1 PUSH1 0xA0 SHL SUB AND EQ SWAP1 POP DUP3 DUP1 PUSH2 0x12F9 JUMPI POP DUP2 JUMPDEST DUP1 PUSH2 0x1301 JUMPI POP DUP1 JUMPDEST PUSH2 0x1345 JUMPI PUSH1 0x40 MLOAD PUSH3 0x461BCD PUSH1 0xE5 SHL DUP2 MSTORE PUSH1 0x4 ADD DUP1 DUP1 PUSH1 0x20 ADD DUP3 DUP2 SUB DUP3 MSTORE PUSH1 0x33 DUP2 MSTORE PUSH1 0x20 ADD DUP1 PUSH2 0x3D0D PUSH1 0x33 SWAP2 CODECOPY PUSH1 0x40 ADD SWAP2 POP POP PUSH1 0x40 MLOAD DUP1 SWAP2 SUB SWAP1 PUSH2 0x1342 PUSH2 0x392D JUMP JUMPDEST POP POP JUMPDEST PUSH2 0x134F DUP6 DUP6 PUSH2 0x2889 JUMP JUMPDEST POP POP POP POP POP JUMP JUMPDEST PUSH1 0x0 DUP1 PUSH2 0x841 PUSH2 0x3998 JUMP JUMPDEST PUSH1 0x9 DUP1 PUSH2 0x136C PUSH2 0x3998 JUMP JUMPDEST PUSH1 0x1 DUP2 PUSH1 0x1 AND ISZERO PUSH2 0x100 MUL SUB AND PUSH1 0x2 SWAP1 DIV DUP1 PUSH1 0x1F ADD PUSH1 0x20 DUP1 SWAP2 DIV MUL PUSH1 0x20 ADD PUSH1 0x40 MLOAD SWAP1 DUP2 ADD PUSH1 0x40 MSTORE DUP2 DUP2 MSTORE SWAP2 SWAP1 PUSH1 0x20 DUP4 ADD DUP3 DUP1 PUSH2 0x13A6 PUSH2 0x3998 JUMP JUMPDEST PUSH1 0x1 DUP2 PUSH1 0x1 AND ISZERO PUSH2 0x100 MUL SUB AND PUSH1 0x2 SWAP1 DIV DUP1 ISZERO PUSH2 0x905 JUMPI DUP1 PUSH1 0x1F LT PUSH2 0x13D2 JUMPI PUSH2 0x100 DUP1 DUP4 PUSH2 0x8C5 PUSH2 0x3998 JUMP JUMPDEST DUP3 ADD SWAP2 SWAP1 PUSH1 0x0 MSTORE PUSH1 0x20 PUSH1 0x0 KECCAK256 SWAP1 JUMPDEST DUP2 PUSH2 0x13E9 PUSH2 0x3998 JUMP JUMPDEST DUP2 MSTORE SWAP1 PUSH1 0x1 ADD SWAP1 PUSH1 0x20 ADD DUP1 DUP4 GT PUSH2 0x13E0 JUMPI POP DUP6 SWAP4 POP POP POP POP JUMP JUMPDEST PUSH2 0x140B PUSH2 0x2278 JUMP JUMPDEST DUP1 PUSH1 0x4 PUSH1 0x1 DUP2 PUSH2 0x1419 PUSH2 0x3998 JUMP JUMPDEST DUP2 PUSH1 0x1 PUSH1 0x1 PUSH1 0xA0 SHL SUB MUL NOT AND SWAP1 DUP4 PUSH1 0x1 PUSH1 0x1 PUSH1 0xA0 SHL SUB AND MUL OR SWAP1 PUSH2 0x143B PUSH2 0x3AF8 JUMP JUMPDEST POP POP POP PUSH32 0xFC80377CA9C49CC11AE6982F390A42DB976D5530AF7C43889264B13FBBD7C57E DUP2 PUSH1 0x40 MLOAD PUSH1 0x1 PUSH1 0x1 PUSH1 0xA0 SHL SUB SWAP1 SWAP2 AND DUP2 MSTORE PUSH1 0x20 ADD PUSH1 0x40 MLOAD DUP1 SWAP2 SUB SWAP1 LOG1 POP JUMP JUMPDEST PUSH2 0x1486 PUSH2 0x2278 JUMP JUMPDEST PUSH1 0x0 PUSH1 0x3 PUSH2 0x1492 PUSH2 0x3998 JUMP JUMPDEST SWAP1 PUSH2 0x100 EXP SWAP1 DIV PUSH1 0xFF AND PUSH2 0x14F5 JUMPI PUSH1 0x40 MLOAD PUSH3 0x461BCD PUSH1 0xE5 SHL DUP2 MSTORE PUSH1 0x20 PUSH1 0x4 DUP3 ADD MSTORE PUSH1 0x1F PUSH1 0x24 DUP3 ADD MSTORE PUSH32 0x53656C66204465737472756374206E6F742079657420696E6974696174656400 PUSH1 0x44 DUP3 ADD MSTORE PUSH1 0x64 ADD PUSH1 0x40 MLOAD DUP1 SWAP2 SUB SWAP1 PUSH2 0x14F2 PUSH2 0x392D JUMP JUMPDEST POP POP JUMPDEST GAS PUSH2 0x14FE PUSH2 0x3C45 JUMP JUMPDEST PUSH3 0x24EA00 PUSH1 0x2 PUSH2 0x150C PUSH2 0x3998 JUMP JUMPDEST ADD LT PUSH2 0x1567 JUMPI PUSH1 0x40 MLOAD PUSH3 0x461BCD PUSH1 0xE5 SHL DUP2 MSTORE PUSH1 0x20 PUSH1 0x4 DUP3 ADD MSTORE PUSH1 0x1B PUSH1 0x24 DUP3 ADD MSTORE PUSH32 0x53656C662064657374727563742064656C6179206E6F74206D65740000000000 PUSH1 0x44 DUP3 ADD MSTORE PUSH1 0x64 ADD PUSH1 0x40 MLOAD DUP1 SWAP2 SUB SWAP1 PUSH2 0x1564 PUSH2 0x392D JUMP JUMPDEST POP POP JUMPDEST PUSH32 0x8A09E1677CED846CB537DC2B172043BD05A1A81AD7E0033A7EF8BA762DF990B7 PUSH1 0x1 PUSH1 0x3 PUSH2 0x1594 PUSH2 0x3998 JUMP JUMPDEST SWAP1 PUSH2 0x100 EXP SWAP1 DIV PUSH1 0x1 PUSH1 0x1 PUSH1 0xA0 SHL SUB AND PUSH1 0x40 MLOAD PUSH1 0x1 PUSH1 0x1 PUSH1 0xA0 SHL SUB SWAP1 SWAP2 AND DUP2 MSTORE PUSH1 0x20 ADD PUSH1 0x40 MLOAD DUP1 SWAP2 SUB SWAP1 LOG1 JUMP JUMPDEST PUSH1 0x0 PUSH1 0x5 PUSH2 0x841 PUSH2 0x3998 JUMP JUMPDEST PUSH1 0x0 PUSH2 0x15D7 PUSH2 0x27AF JUMP JUMPDEST PUSH1 0x1 PUSH1 0x1 PUSH1 0xA0 SHL SUB AND GAS PUSH2 0x15E9 PUSH2 0x3BFF JUMP JUMPDEST PUSH1 0x1 PUSH1 0x1 PUSH1 0xA0 SHL SUB AND EQ SWAP1 POP PUSH1 0x0 PUSH2 0x15FF PUSH2 0x27FD JUMP JUMPDEST PUSH1 0x1 PUSH1 0x1 PUSH1 0xA0 SHL SUB AND GAS PUSH2 0x1611 PUSH2 0x3BFF JUMP JUMPDEST PUSH1 0x1 PUSH1 0x1 PUSH1 0xA0 SHL SUB AND EQ SWAP1 POP PUSH1 0x0 PUSH2 0x1627 PUSH2 0x2848 JUMP JUMPDEST PUSH1 0x1 PUSH1 0x1 PUSH1 0xA0 SHL SUB AND GAS PUSH2 0x1639 PUSH2 0x3BFF JUMP JUMPDEST PUSH1 0x1 PUSH1 0x1 PUSH1 0xA0 SHL SUB AND EQ SWAP1 POP DUP3 DUP1 PUSH2 0x164E JUMPI POP DUP2 JUMPDEST DUP1 PUSH2 0x1656 JUMPI POP DUP1 JUMPDEST PUSH2 0x169A JUMPI PUSH1 0x40 MLOAD PUSH3 0x461BCD PUSH1 0xE5 SHL DUP2 MSTORE PUSH1 0x4 ADD DUP1 DUP1 PUSH1 0x20 ADD DUP3 DUP2 SUB DUP3 MSTORE PUSH1 0x33 DUP2 MSTORE PUSH1 0x20 ADD DUP1 PUSH2 0x3D0D PUSH1 0x33 SWAP2 CODECOPY PUSH1 0x40 ADD SWAP2 POP POP PUSH1 0x40 MLOAD DUP1 SWAP2 SUB SWAP1 PUSH2 0x1697 PUSH2 0x392D JUMP JUMPDEST POP POP JUMPDEST PUSH2 0x16A4 DUP6 DUP6 PUSH2 0x2A4C JUMP JUMPDEST POP POP POP POP POP POP JUMP JUMPDEST PUSH2 0x16B4 PUSH2 0x2BA5 JUMP JUMPDEST DUP1 PUSH1 0x7 PUSH1 0x1 DUP2 PUSH2 0x16C2 PUSH2 0x3998 JUMP JUMPDEST DUP2 PUSH1 0x1 PUSH1 0x1 PUSH1 0xA0 SHL SUB MUL NOT AND SWAP1 DUP4 PUSH1 0x1 PUSH1 0x1 PUSH1 0xA0 SHL SUB AND MUL OR SWAP1 PUSH2 0x16E4 PUSH2 0x3AF8 JUMP JUMPDEST POP POP POP PUSH2 0x16F0 DUP2 PUSH2 0x2D30 JUMP JUMPDEST POP JUMP JUMPDEST PUSH3 0x24EA00 DUP2 JUMP JUMPDEST PUSH1 0x0 PUSH2 0x1704 PUSH2 0x2027 JUMP JUMPDEST PUSH2 0x1729 PUSH1 0x0 PUSH1 0x6 PUSH2 0x1713 PUSH2 0x3998 JUMP JUMPDEST SWAP1 PUSH2 0x100 EXP SWAP1 DIV PUSH1 0x1 PUSH1 0x1 PUSH1 0xA0 SHL SUB AND DUP4 PUSH2 0x22F0 JUMP JUMPDEST PUSH1 0x1 PUSH1 0x1 PUSH1 0xA0 SHL SUB DUP4 AND PUSH20 0xFEEFEEFEEFEEFEEFEEFEEFEEFEEFEEFEEFEEFEEF EQ ISZERO PUSH2 0x175F JUMPI PUSH2 0x1758 DUP4 DUP4 PUSH2 0x2EB4 JUMP JUMPDEST SWAP1 POP PUSH2 0xA05 JUMP JUMPDEST PUSH1 0x1 PUSH1 0x1 PUSH1 0xA0 SHL SUB DUP4 AND PUSH2 0x1792 JUMPI PUSH2 0x1758 PUSH1 0x0 PUSH1 0x6 PUSH2 0x177C PUSH2 0x3998 JUMP JUMPDEST SWAP1 PUSH2 0x100 EXP SWAP1 DIV PUSH1 0x1 PUSH1 0x1 PUSH1 0xA0 SHL SUB AND DUP4 PUSH2 0x2A4C JUMP JUMPDEST PUSH2 0x17B8 PUSH1 0x0 PUSH1 0x6 PUSH2 0x17A1 PUSH2 0x3998 JUMP JUMPDEST SWAP1 PUSH2 0x100 EXP SWAP1 DIV PUSH1 0x1 PUSH1 0x1 PUSH1 0xA0 SHL SUB AND DUP5 DUP5 PUSH2 0x30B2 JUMP JUMPDEST SWAP4 SWAP3 POP POP POP JUMP JUMPDEST PUSH2 0x17C7 PUSH2 0x3C8B JUMP JUMPDEST PUSH1 0x0 JUMPDEST PUSH1 0xD DUP1 PUSH2 0x17D5 PUSH2 0x3998 JUMP JUMPDEST SWAP1 POP DUP2 LT ISZERO PUSH2 0x181D JUMPI PUSH1 0xD DUP2 DUP2 PUSH2 0x17EA PUSH2 0x3998 JUMP JUMPDEST DUP2 LT PUSH2 0x17F2 JUMPI INVALID JUMPDEST SWAP1 PUSH1 0x0 MSTORE PUSH1 0x20 PUSH1 0x0 KECCAK256 ADD PUSH2 0x1804 PUSH2 0x3998 JUMP JUMPDEST DUP3 DUP3 PUSH1 0x18 DUP2 LT PUSH2 0x1810 JUMPI INVALID JUMPDEST PUSH1 0x20 MUL ADD MSTORE PUSH1 0x1 ADD PUSH2 0x17CA JUMP JUMPDEST POP SWAP1 JUMP JUMPDEST PUSH1 0x0 PUSH2 0x182B PUSH2 0x2027 JUMP JUMPDEST PUSH1 0x0 PUSH2 0x1835 PUSH2 0x27FD JUMP JUMPDEST PUSH1 0x1 PUSH1 0x1 PUSH1 0xA0 SHL SUB AND PUSH4 0x1B16802C PUSH1 0x0 PUSH1 0x6 PUSH2 0x184F PUSH2 0x3998 JUMP JUMPDEST SWAP1 PUSH2 0x100 EXP SWAP1 DIV PUSH1 0x1 PUSH1 0x1 PUSH1 0xA0 SHL SUB AND PUSH1 0xE PUSH2 0x1869 PUSH2 0x3998 JUMP JUMPDEST PUSH1 0x40 MLOAD PUSH1 0x1 PUSH1 0x1 PUSH1 0xE0 SHL SUB NOT PUSH1 0xE0 DUP6 SWAP1 SHL AND DUP2 MSTORE PUSH1 0x1 PUSH1 0x1 PUSH1 0xA0 SHL SUB SWAP1 SWAP3 AND PUSH1 0x4 DUP4 ADD MSTORE PUSH1 0x24 DUP3 ADD MSTORE PUSH1 0x44 ADD PUSH1 0x60 PUSH1 0x40 MLOAD DUP1 DUP4 SUB DUP2 PUSH1 0x0 DUP8 DUP1 PUSH2 0x18AA PUSH2 0x39F3 JUMP JUMPDEST ISZERO DUP1 ISZERO PUSH2 0x18BF JUMPI PUSH1 0x0 DUP1 PUSH2 0x18BC PUSH2 0x392D JUMP JUMPDEST POP POP JUMPDEST POP GAS PUSH2 0x18C9 PUSH2 0x3A3F JUMP JUMPDEST POP POP POP POP POP POP ISZERO DUP1 ISZERO PUSH2 0x18E9 JUMPI RETURNDATASIZE PUSH1 0x0 DUP1 RETURNDATACOPY RETURNDATASIZE PUSH1 0x0 PUSH2 0x18E6 PUSH2 0x392D JUMP JUMPDEST POP POP JUMPDEST POP POP POP POP PUSH1 0x40 MLOAD RETURNDATASIZE PUSH1 0x60 DUP2 LT ISZERO PUSH2 0x1908 JUMPI PUSH1 0x0 DUP1 PUSH2 0x1905 PUSH2 0x392D JUMP JUMPDEST POP POP JUMPDEST DUP2 ADD SWAP1 DUP1 DUP1 MLOAD SWAP3 SWAP2 SWAP1 PUSH1 0x20 ADD DUP1 MLOAD SWAP3 SWAP2 SWAP1 PUSH1 0x20 ADD DUP1 MLOAD SWAP6 POP DUP8 SWAP5 POP POP DUP5 ISZERO SWAP3 POP PUSH2 0x1A11 SWAP2 POP POP JUMPI PUSH1 0x0 PUSH1 0x7 PUSH2 0x193B PUSH2 0x3998 JUMP JUMPDEST PUSH1 0x1 PUSH1 0x1 PUSH1 0xA0 SHL SUB PUSH2 0x100 SWAP3 SWAP1 SWAP3 EXP SWAP1 DIV AND PUSH4 0x70A08231 PUSH1 0x0 PUSH1 0x6 PUSH2 0x195E PUSH2 0x3998 JUMP JUMPDEST SWAP1 PUSH2 0x100 EXP SWAP1 DIV PUSH1 0x1 PUSH1 0x1 PUSH1 0xA0 SHL SUB AND PUSH1 0x40 MLOAD PUSH1 0x1 PUSH1 0x1 PUSH1 0xE0 SHL SUB NOT PUSH1 0xE0 DUP5 SWAP1 SHL AND DUP2 MSTORE PUSH1 0x1 PUSH1 0x1 PUSH1 0xA0 SHL SUB SWAP1 SWAP2 AND PUSH1 0x4 DUP3 ADD MSTORE PUSH1 0x24 ADD PUSH1 0x20 PUSH1 0x40 MLOAD DUP1 DUP4 SUB DUP2 DUP7 DUP1 PUSH2 0x19A8 PUSH2 0x39F3 JUMP JUMPDEST ISZERO DUP1 ISZERO PUSH2 0x19BD JUMPI PUSH1 0x0 DUP1 PUSH2 0x19BA PUSH2 0x392D JUMP JUMPDEST POP POP JUMPDEST POP GAS PUSH2 0x19C7 PUSH2 0x3B46 JUMP JUMPDEST POP POP POP POP POP ISZERO DUP1 ISZERO PUSH2 0x19E6 JUMPI RETURNDATASIZE PUSH1 0x0 DUP1 RETURNDATACOPY RETURNDATASIZE PUSH1 0x0 PUSH2 0x19E3 PUSH2 0x392D JUMP JUMPDEST POP POP JUMPDEST POP POP POP POP PUSH1 0x40 MLOAD RETURNDATASIZE PUSH1 0x20 DUP2 LT ISZERO PUSH2 0x1A05 JUMPI PUSH1 0x0 DUP1 PUSH2 0x1A02 PUSH2 0x392D JUMP JUMPDEST POP POP JUMPDEST DUP2 ADD SWAP1 DUP1 DUP1 MLOAD SWAP4 POP POP POP POP JUMPDEST DUP1 DUP5 GT PUSH2 0x1A1E JUMPI DUP4 PUSH2 0x1A20 JUMP JUMPDEST DUP1 JUMPDEST SWAP4 POP PUSH2 0x1A48 PUSH1 0x0 PUSH1 0x6 PUSH2 0x1A31 PUSH2 0x3998 JUMP JUMPDEST SWAP1 PUSH2 0x100 EXP SWAP1 DIV PUSH1 0x1 PUSH1 0x1 PUSH1 0xA0 SHL SUB AND DUP7 DUP7 PUSH2 0x30B2 JUMP JUMPDEST SWAP6 SWAP5 POP POP POP POP POP JUMP JUMPDEST PUSH1 0x0 PUSH1 0x3 PUSH2 0xBF1 PUSH2 0x3998 JUMP JUMPDEST PUSH2 0x1A65 PUSH2 0x3400 JUMP JUMPDEST DUP1 PUSH1 0x6 PUSH1 0x1 DUP2 PUSH2 0xA21 PUSH2 0x3998 JUMP JUMPDEST PUSH2 0x1A7B PUSH2 0x2278 JUMP JUMPDEST GAS PUSH2 0x1A84 PUSH2 0x3C45 JUMP JUMPDEST DUP1 PUSH1 0x2 PUSH2 0x1A8F PUSH2 0x3AF8 JUMP JUMPDEST POP POP POP PUSH1 0x1 PUSH1 0x3 PUSH1 0x0 PUSH2 0x100 EXP DUP2 PUSH2 0x1AA5 PUSH2 0x3998 JUMP JUMPDEST DUP2 PUSH1 0xFF MUL NOT AND SWAP1 DUP4 ISZERO ISZERO MUL OR SWAP1 PUSH2 0x1ABA PUSH2 0x3AF8 JUMP JUMPDEST POP POP POP PUSH32 0xCBD94CA75B8DC45C9D80C77E851670E78843C0D75180CB81DB3E2158228FA9A6 PUSH3 0x24EA00 PUSH1 0x40 MLOAD SWAP1 DUP2 MSTORE PUSH1 0x20 ADD PUSH1 0x40 MLOAD DUP1 SWAP2 SUB SWAP1 LOG1 JUMP JUMPDEST PUSH1 0x1 PUSH1 0x3 PUSH2 0x841 PUSH2 0x3998 JUMP JUMPDEST PUSH1 0xD DUP2 DUP2 PUSH2 0x1B0D PUSH2 0x3998 JUMP JUMPDEST DUP2 LT PUSH2 0x1B15 JUMPI INVALID JUMPDEST SWAP1 PUSH1 0x0 MSTORE PUSH1 0x20 PUSH1 0x0 KECCAK256 ADD SWAP1 POP PUSH2 0xACD PUSH2 0x3998 JUMP JUMPDEST PUSH1 0x0 PUSH1 0x6 PUSH2 0x841 PUSH2 0x3998 JUMP JUMPDEST PUSH1 0xE PUSH2 0xACD PUSH2 0x3998 JUMP JUMPDEST PUSH1 0x0 DUP1 PUSH1 0x7 PUSH2 0x1B4C PUSH2 0x3998 JUMP JUMPDEST SWAP1 PUSH2 0x100 EXP SWAP1 DIV PUSH1 0x1 PUSH1 0x1 PUSH1 0xA0 SHL SUB AND PUSH1 0x1 PUSH1 0x1 PUSH1 0xA0 SHL SUB AND PUSH4 0xDD62ED3E DUP5 DUP5 PUSH1 0x40 MLOAD PUSH1 0x1 PUSH1 0x1 PUSH1 0xE0 SHL SUB NOT PUSH1 0xE0 DUP6 SWAP1 SHL AND DUP2 MSTORE PUSH1 0x1 PUSH1 0x1 PUSH1 0xA0 SHL SUB SWAP3 DUP4 AND PUSH1 0x4 DUP3 ADD MSTORE SWAP2 AND PUSH1 0x24 DUP3 ADD MSTORE PUSH1 0x44 ADD PUSH1 0x20 PUSH1 0x40 MLOAD DUP1 DUP4 SUB DUP2 DUP7 DUP1 PUSH2 0x1BAD PUSH2 0x39F3 JUMP JUMPDEST ISZERO DUP1 ISZERO PUSH2 0x1BC2 JUMPI PUSH1 0x0 DUP1 PUSH2 0x1BBF PUSH2 0x392D JUMP JUMPDEST POP POP JUMPDEST POP GAS PUSH2 0x1BCC PUSH2 0x3B46 JUMP JUMPDEST POP POP POP POP POP ISZERO DUP1 ISZERO PUSH2 0x1BEB JUMPI RETURNDATASIZE PUSH1 0x0 DUP1 RETURNDATACOPY RETURNDATASIZE PUSH1 0x0 PUSH2 0x1BE8 PUSH2 0x392D JUMP JUMPDEST POP POP JUMPDEST POP POP POP POP PUSH1 0x40 MLOAD RETURNDATASIZE PUSH1 0x20 DUP2 LT ISZERO PUSH2 0x1C0A JUMPI PUSH1 0x0 DUP1 PUSH2 0x1C07 PUSH2 0x392D JUMP JUMPDEST POP POP JUMPDEST DUP2 ADD SWAP1 DUP1 DUP1 MLOAD SWAP7 SWAP6 POP POP POP POP POP POP JUMP JUMPDEST PUSH1 0x18 DUP2 JUMP JUMPDEST PUSH1 0x0 PUSH2 0x1C29 PUSH2 0x2027 JUMP JUMPDEST PUSH1 0x0 PUSH2 0x1C33 PUSH2 0x27FD JUMP JUMPDEST PUSH1 0x1 PUSH1 0x1 PUSH1 0xA0 SHL SUB AND PUSH4 0x1B16802C DUP7 PUSH1 0xE PUSH2 0x1C4C PUSH2 0x3998 JUMP JUMPDEST PUSH1 0x40 MLOAD PUSH1 0x1 PUSH1 0x1 PUSH1 0xE0 SHL SUB NOT PUSH1 0xE0 DUP6 SWAP1 SHL AND DUP2 MSTORE PUSH1 0x1 PUSH1 0x1 PUSH1 0xA0 SHL SUB SWAP1 SWAP3 AND PUSH1 0x4 DUP4 ADD MSTORE PUSH1 0x24 DUP3 ADD MSTORE PUSH1 0x44 ADD PUSH1 0x60 PUSH1 0x40 MLOAD DUP1 DUP4 SUB DUP2 PUSH1 0x0 DUP8 DUP1 PUSH2 0x1C8D PUSH2 0x39F3 JUMP JUMPDEST ISZERO DUP1 ISZERO PUSH2 0x1CA2 JUMPI PUSH1 0x0 DUP1 PUSH2 0x1C9F PUSH2 0x392D JUMP JUMPDEST POP POP JUMPDEST POP GAS PUSH2 0x1CAC PUSH2 0x3A3F JUMP JUMPDEST POP POP POP POP POP POP ISZERO DUP1 ISZERO PUSH2 0x1CCC JUMPI RETURNDATASIZE PUSH1 0x0 DUP1 RETURNDATACOPY RETURNDATASIZE PUSH1 0x0 PUSH2 0x1CC9 PUSH2 0x392D JUMP JUMPDEST POP POP JUMPDEST POP POP POP POP PUSH1 0x40 MLOAD RETURNDATASIZE PUSH1 0x60 DUP2 LT ISZERO PUSH2 0x1CEB JUMPI PUSH1 0x0 DUP1 PUSH2 0x1CE8 PUSH2 0x392D JUMP JUMPDEST POP POP JUMPDEST DUP2 ADD SWAP1 DUP1 DUP1 MLOAD SWAP3 SWAP2 SWAP1 PUSH1 0x20 ADD DUP1 MLOAD SWAP3 SWAP2 SWAP1 PUSH1 0x20 ADD DUP1 MLOAD SWAP6 POP DUP8 SWAP5 POP POP DUP5 ISZERO SWAP3 POP PUSH2 0x1DE0 SWAP2 POP POP JUMPI PUSH1 0x0 PUSH1 0x7 PUSH2 0x1D1E PUSH2 0x3998 JUMP JUMPDEST SWAP1 PUSH2 0x100 EXP SWAP1 DIV PUSH1 0x1 PUSH1 0x1 PUSH1 0xA0 SHL SUB AND PUSH1 0x1 PUSH1 0x1 PUSH1 0xA0 SHL SUB AND PUSH4 0x70A08231 DUP8 PUSH1 0x40 MLOAD PUSH1 0x1 PUSH1 0x1 PUSH1 0xE0 SHL SUB NOT PUSH1 0xE0 DUP5 SWAP1 SHL AND DUP2 MSTORE PUSH1 0x1 PUSH1 0x1 PUSH1 0xA0 SHL SUB SWAP1 SWAP2 AND PUSH1 0x4 DUP3 ADD MSTORE PUSH1 0x24 ADD PUSH1 0x20 PUSH1 0x40 MLOAD DUP1 DUP4 SUB DUP2 DUP7 DUP1 PUSH2 0x1D77 PUSH2 0x39F3 JUMP JUMPDEST ISZERO DUP1 ISZERO PUSH2 0x1D8C JUMPI PUSH1 0x0 DUP1 PUSH2 0x1D89 PUSH2 0x392D JUMP JUMPDEST POP POP JUMPDEST POP GAS PUSH2 0x1D96 PUSH2 0x3B46 JUMP JUMPDEST POP POP POP POP POP ISZERO DUP1 ISZERO PUSH2 0x1DB5 JUMPI RETURNDATASIZE PUSH1 0x0 DUP1 RETURNDATACOPY RETURNDATASIZE PUSH1 0x0 PUSH2 0x1DB2 PUSH2 0x392D JUMP JUMPDEST POP POP JUMPDEST POP POP POP POP PUSH1 0x40 MLOAD RETURNDATASIZE PUSH1 0x20 DUP2 LT ISZERO PUSH2 0x1DD4 JUMPI PUSH1 0x0 DUP1 PUSH2 0x1DD1 PUSH2 0x392D JUMP JUMPDEST POP POP JUMPDEST DUP2 ADD SWAP1 DUP1 DUP1 MLOAD SWAP4 POP POP POP POP JUMPDEST DUP1 DUP5 LT ISZERO PUSH2 0x1DEE JUMPI DUP4 PUSH2 0x1DF0 JUMP JUMPDEST DUP1 JUMPDEST SWAP4 POP PUSH2 0x1DFD DUP7 DUP7 DUP7 PUSH2 0x24E4 JUMP JUMPDEST SWAP7 SWAP6 POP POP POP POP POP POP JUMP JUMPDEST PUSH1 0x0 PUSH1 0x7 PUSH2 0x841 PUSH2 0x3998 JUMP JUMPDEST PUSH20 0xFEEFEEFEEFEEFEEFEEFEEFEEFEEFEEFEEFEEFEEF DUP2 JUMP JUMPDEST PUSH1 0x0 PUSH1 0x4 PUSH2 0x841 PUSH2 0x3998 JUMP JUMPDEST PUSH2 0x1E3F PUSH2 0x2BA5 JUMP JUMPDEST DUP1 DUP1 PUSH1 0xA PUSH2 0xA43 PUSH2 0x3AF8 JUMP JUMPDEST PUSH1 0x0 DUP1 PUSH2 0x1E56 PUSH2 0x27FD JUMP JUMPDEST PUSH1 0x1 PUSH1 0x1 PUSH1 0xA0 SHL SUB AND PUSH4 0x19D5C665 DUP5 PUSH1 0xE PUSH2 0x1E6F PUSH2 0x3998 JUMP JUMPDEST PUSH1 0x40 MLOAD PUSH1 0x1 PUSH1 0x1 PUSH1 0xE0 SHL SUB NOT PUSH1 0xE0 DUP6 SWAP1 SHL AND DUP2 MSTORE PUSH1 0x1 PUSH1 0x1 PUSH1 0xA0 SHL SUB SWAP1 SWAP3 AND PUSH1 0x4 DUP4 ADD MSTORE PUSH1 0x24 DUP3 ADD MSTORE PUSH1 0x44 ADD PUSH1 0x60 PUSH1 0x40 MLOAD DUP1 DUP4 SUB DUP2 DUP7 DUP1 PUSH2 0x1EAE PUSH2 0x39F3 JUMP JUMPDEST ISZERO DUP1 ISZERO PUSH2 0x1EC3 JUMPI PUSH1 0x0 DUP1 PUSH2 0x1EC0 PUSH2 0x392D JUMP JUMPDEST POP POP JUMPDEST POP GAS PUSH2 0x1ECD PUSH2 0x3B46 JUMP JUMPDEST POP POP POP POP POP ISZERO DUP1 ISZERO PUSH2 0x1EEC JUMPI RETURNDATASIZE PUSH1 0x0 DUP1 RETURNDATACOPY RETURNDATASIZE PUSH1 0x0 PUSH2 0x1EE9 PUSH2 0x392D JUMP JUMPDEST POP POP JUMPDEST POP POP POP POP PUSH1 0x40 MLOAD RETURNDATASIZE PUSH1 0x60 DUP2 LT ISZERO PUSH2 0x1F0B JUMPI PUSH1 0x0 DUP1 PUSH2 0x1F08 PUSH2 0x392D JUMP JUMPDEST POP POP JUMPDEST DUP2 ADD SWAP1 DUP1 DUP1 MLOAD SWAP3 SWAP2 SWAP1 PUSH1 0x20 ADD DUP1 MLOAD SWAP3 SWAP2 SWAP1 PUSH1 0x20 ADD DUP1 MLOAD POP SWAP4 SWAP5 POP PUSH1 0x0 SWAP4 POP DUP4 SWAP3 POP PUSH1 0x7 SWAP2 POP PUSH2 0x1F3A SWAP1 POP PUSH2 0x3998 JUMP JUMPDEST SWAP1 PUSH2 0x100 EXP SWAP1 DIV PUSH1 0x1 PUSH1 0x1 PUSH1 0xA0 SHL SUB AND PUSH1 0x1 PUSH1 0x1 PUSH1 0xA0 SHL SUB AND PUSH4 0x70A08231 DUP6 PUSH1 0x40 MLOAD PUSH1 0x1 PUSH1 0x1 PUSH1 0xE0 SHL SUB NOT PUSH1 0xE0 DUP5 SWAP1 SHL AND DUP2 MSTORE PUSH1 0x1 PUSH1 0x1 PUSH1 0xA0 SHL SUB SWAP1 SWAP2 AND PUSH1 0x4 DUP3 ADD MSTORE PUSH1 0x24 ADD PUSH1 0x20 PUSH1 0x40 MLOAD DUP1 DUP4 SUB DUP2 DUP7 DUP1 PUSH2 0x1F93 PUSH2 0x39F3 JUMP JUMPDEST ISZERO DUP1 ISZERO PUSH2 0x1FA8 JUMPI PUSH1 0x0 DUP1 PUSH2 0x1FA5 PUSH2 0x392D JUMP JUMPDEST POP POP JUMPDEST POP GAS PUSH2 0x1FB2 PUSH2 0x3B46 JUMP JUMPDEST POP POP POP POP POP ISZERO DUP1 ISZERO PUSH2 0x1FD1 JUMPI RETURNDATASIZE PUSH1 0x0 DUP1 RETURNDATACOPY RETURNDATASIZE PUSH1 0x0 PUSH2 0x1FCE PUSH2 0x392D JUMP JUMPDEST POP POP JUMPDEST POP POP POP POP PUSH1 0x40 MLOAD RETURNDATASIZE PUSH1 0x20 DUP2 LT ISZERO PUSH2 0x1FF0 JUMPI PUSH1 0x0 DUP1 PUSH2 0x1FED PUSH2 0x392D JUMP JUMPDEST POP POP JUMPDEST DUP2 ADD SWAP1 DUP1 DUP1 MLOAD SWAP4 POP POP POP POP DUP1 DUP3 GT ISZERO PUSH2 0x200E JUMPI PUSH1 0x0 SWAP3 POP POP POP PUSH2 0x101E JUMP JUMPDEST PUSH2 0x201E DUP2 DUP4 PUSH4 0xFFFFFFFF PUSH2 0x34CD AND JUMP JUMPDEST SWAP3 POP POP POP PUSH2 0x101E JUMP JUMPDEST PUSH1 0x0 PUSH1 0x4 PUSH2 0x2033 PUSH2 0x3998 JUMP JUMPDEST SWAP1 PUSH2 0x100 EXP SWAP1 DIV PUSH1 0x1 PUSH1 0x1 PUSH1 0xA0 SHL SUB AND PUSH1 0x1 PUSH1 0x1 PUSH1 0xA0 SHL SUB AND GAS PUSH2 0x2055 PUSH2 0x3BFF JUMP JUMPDEST PUSH1 0x1 PUSH1 0x1 PUSH1 0xA0 SHL SUB AND EQ ISZERO DUP1 ISZERO PUSH2 0x20A1 JUMPI POP PUSH1 0x0 PUSH1 0x5 PUSH2 0x2073 PUSH2 0x3998 JUMP JUMPDEST SWAP1 PUSH2 0x100 EXP SWAP1 DIV PUSH1 0x1 PUSH1 0x1 PUSH1 0xA0 SHL SUB AND PUSH1 0x1 PUSH1 0x1 PUSH1 0xA0 SHL SUB AND GAS PUSH2 0x2095 PUSH2 0x3BFF JUMP JUMPDEST PUSH1 0x1 PUSH1 0x1 PUSH1 0xA0 SHL SUB AND EQ ISZERO JUMPDEST DUP1 ISZERO PUSH2 0x20E2 JUMPI POP GAS PUSH2 0x20B1 PUSH2 0x3BFF JUMP JUMPDEST PUSH1 0x1 PUSH1 0x1 PUSH1 0xA0 SHL SUB AND PUSH1 0x0 PUSH1 0x6 PUSH2 0x20C6 PUSH2 0x3998 JUMP JUMPDEST SWAP1 PUSH2 0x100 EXP SWAP1 DIV PUSH1 0x1 PUSH1 0x1 PUSH1 0xA0 SHL SUB AND PUSH1 0x1 PUSH1 0x1 PUSH1 0xA0 SHL SUB AND EQ ISZERO JUMPDEST ISZERO PUSH2 0x20FD JUMPI GAS PUSH2 0x20F0 PUSH2 0x3BFF JUMP JUMPDEST PUSH1 0x6 PUSH1 0x1 DUP2 PUSH2 0x1251 PUSH2 0x3998 JUMP JUMPDEST JUMP JUMPDEST PUSH1 0x0 PUSH1 0x4 PUSH2 0x210B PUSH2 0x3998 JUMP JUMPDEST SWAP1 PUSH2 0x100 EXP SWAP1 DIV PUSH1 0x1 PUSH1 0x1 PUSH1 0xA0 SHL SUB AND PUSH1 0x1 PUSH1 0x1 PUSH1 0xA0 SHL SUB AND PUSH4 0x907DFF97 DUP3 PUSH1 0x40 MLOAD PUSH1 0x20 ADD DUP1 DUP3 DUP2 MSTORE PUSH1 0x20 ADD SWAP2 POP POP PUSH1 0x40 MLOAD PUSH1 0x20 DUP2 DUP4 SUB SUB DUP2 MSTORE SWAP1 PUSH1 0x40 MSTORE PUSH1 0x3 PUSH1 0x40 MLOAD DUP1 PUSH1 0x21 PUSH2 0x3D6F DUP3 CODECOPY PUSH1 0x21 ADD SWAP1 POP PUSH1 0x40 MLOAD DUP1 SWAP2 SUB SWAP1 KECCAK256 PUSH2 0x216C DUP9 PUSH2 0x3532 JUMP JUMPDEST PUSH2 0x2175 DUP9 PUSH2 0x3532 JUMP JUMPDEST PUSH1 0x0 PUSH1 0x40 MLOAD DUP8 PUSH4 0xFFFFFFFF AND PUSH1 0xE0 SHL DUP2 MSTORE PUSH1 0x4 ADD DUP1 DUP1 PUSH1 0x20 ADD DUP8 DUP2 MSTORE PUSH1 0x20 ADD DUP7 DUP2 MSTORE PUSH1 0x20 ADD DUP6 DUP2 MSTORE PUSH1 0x20 ADD DUP5 DUP2 MSTORE PUSH1 0x20 ADD DUP4 PUSH1 0x0 SHL DUP2 MSTORE PUSH1 0x20 ADD DUP3 DUP2 SUB DUP3 MSTORE DUP9 DUP2 DUP2 MLOAD DUP2 MSTORE PUSH1 0x20 ADD SWAP2 POP DUP1 MLOAD SWAP1 PUSH1 0x20 ADD SWAP1 DUP1 DUP4 DUP4 PUSH1 0x0 JUMPDEST DUP4 DUP2 LT ISZERO PUSH2 0x21E4 JUMPI DUP1 DUP3 ADD MLOAD DUP4 DUP3 ADD MSTORE PUSH1 0x20 ADD PUSH2 0x21CC JUMP JUMPDEST POP POP POP POP SWAP1 POP SWAP1 DUP2 ADD SWAP1 PUSH1 0x1F AND DUP1 ISZERO PUSH2 0x2211 JUMPI DUP1 DUP3 SUB DUP1 MLOAD PUSH1 0x1 DUP4 PUSH1 0x20 SUB PUSH2 0x100 EXP SUB NOT AND DUP2 MSTORE PUSH1 0x20 ADD SWAP2 POP JUMPDEST POP SWAP8 POP POP POP POP POP POP POP POP PUSH1 0x0 PUSH1 0x40 MLOAD DUP1 DUP4 SUB DUP2 PUSH1 0x0 DUP8 DUP1 PUSH2 0x2230 PUSH2 0x39F3 JUMP JUMPDEST ISZERO DUP1 ISZERO PUSH2 0x2245 JUMPI PUSH1 0x0 DUP1 PUSH2 0x2242 PUSH2 0x392D JUMP JUMPDEST POP POP JUMPDEST POP GAS PUSH2 0x224F PUSH2 0x3A3F JUMP JUMPDEST POP POP POP POP POP POP ISZERO DUP1 ISZERO PUSH2 0x226F JUMPI RETURNDATASIZE PUSH1 0x0 DUP1 RETURNDATACOPY RETURNDATASIZE PUSH1 0x0 PUSH2 0x226C PUSH2 0x392D JUMP JUMPDEST POP POP JUMPDEST POP POP POP POP POP POP POP JUMP JUMPDEST PUSH1 0x0 DUP1 PUSH2 0x2283 PUSH2 0x3998 JUMP JUMPDEST SWAP1 PUSH2 0x100 EXP SWAP1 DIV PUSH1 0x1 PUSH1 0x1 PUSH1 0xA0 SHL SUB AND PUSH1 0x1 PUSH1 0x1 PUSH1 0xA0 SHL SUB AND GAS PUSH2 0x22A5 PUSH2 0x3BFF JUMP JUMPDEST PUSH1 0x1 PUSH1 0x1 PUSH1 0xA0 SHL SUB AND EQ PUSH2 0x20FD JUMPI PUSH1 0x40 MLOAD PUSH3 0x461BCD PUSH1 0xE5 SHL DUP2 MSTORE PUSH1 0x4 ADD DUP1 DUP1 PUSH1 0x20 ADD DUP3 DUP2 SUB DUP3 MSTORE PUSH1 0x2F DUP2 MSTORE PUSH1 0x20 ADD DUP1 PUSH2 0x3D40 PUSH1 0x2F SWAP2 CODECOPY PUSH1 0x40 ADD SWAP2 POP POP PUSH1 0x40 MLOAD DUP1 SWAP2 SUB SWAP1 PUSH2 0xE36 PUSH2 0x392D JUMP JUMPDEST PUSH2 0x22F8 PUSH2 0x27FD JUMP JUMPDEST PUSH1 0x1 PUSH1 0x1 PUSH1 0xA0 SHL SUB AND PUSH4 0x59C29EC DUP4 PUSH1 0xE PUSH2 0x2311 PUSH2 0x3998 JUMP JUMPDEST PUSH1 0x40 MLOAD PUSH1 0x1 PUSH1 0x1 PUSH1 0xE0 SHL SUB NOT PUSH1 0xE0 DUP6 SWAP1 SHL AND DUP2 MSTORE PUSH1 0x1 PUSH1 0x1 PUSH1 0xA0 SHL SUB SWAP1 SWAP3 AND PUSH1 0x4 DUP4 ADD MSTORE PUSH1 0x24 DUP3 ADD MSTORE PUSH1 0x44 ADD PUSH1 0x20 PUSH1 0x40 MLOAD DUP1 DUP4 SUB DUP2 DUP7 DUP1 PUSH2 0x2350 PUSH2 0x39F3 JUMP JUMPDEST ISZERO DUP1 ISZERO PUSH2 0x2365 JUMPI PUSH1 0x0 DUP1 PUSH2 0x2362 PUSH2 0x392D JUMP JUMPDEST POP POP JUMPDEST POP GAS PUSH2 0x236F PUSH2 0x3B46 JUMP JUMPDEST POP POP POP POP POP ISZERO DUP1 ISZERO PUSH2 0x238E JUMPI RETURNDATASIZE PUSH1 0x0 DUP1 RETURNDATACOPY RETURNDATASIZE PUSH1 0x0 PUSH2 0x238B PUSH2 0x392D JUMP JUMPDEST POP POP JUMPDEST POP POP POP POP PUSH1 0x40 MLOAD RETURNDATASIZE PUSH1 0x20 DUP2 LT ISZERO PUSH2 0x23AD JUMPI PUSH1 0x0 DUP1 PUSH2 0x23AA PUSH2 0x392D JUMP JUMPDEST POP POP JUMPDEST DUP2 ADD SWAP1 DUP1 DUP1 MLOAD ISZERO SWAP3 POP PUSH2 0x23FD SWAP2 POP POP JUMPI PUSH1 0x40 MLOAD PUSH3 0x461BCD PUSH1 0xE5 SHL DUP2 MSTORE PUSH1 0x4 ADD DUP1 DUP1 PUSH1 0x20 ADD DUP3 DUP2 SUB DUP3 MSTORE PUSH1 0x25 DUP2 MSTORE PUSH1 0x20 ADD DUP1 PUSH2 0x3D90 PUSH1 0x25 SWAP2 CODECOPY PUSH1 0x40 ADD SWAP2 POP POP PUSH1 0x40 MLOAD DUP1 SWAP2 SUB SWAP1 PUSH2 0x23FA PUSH2 0x392D JUMP JUMPDEST POP POP JUMPDEST DUP1 PUSH2 0x2407 DUP4 PUSH2 0x1E4B JUMP JUMPDEST LT ISZERO PUSH2 0x244D JUMPI PUSH1 0x40 MLOAD PUSH3 0x461BCD PUSH1 0xE5 SHL DUP2 MSTORE PUSH1 0x4 ADD DUP1 DUP1 PUSH1 0x20 ADD DUP3 DUP2 SUB DUP3 MSTORE PUSH1 0x2F DUP2 MSTORE PUSH1 0x20 ADD DUP1 PUSH2 0x3CDE PUSH1 0x2F SWAP2 CODECOPY PUSH1 0x40 ADD SWAP2 POP POP PUSH1 0x40 MLOAD DUP1 SWAP2 SUB SWAP1 PUSH2 0x244A PUSH2 0x392D JUMP JUMPDEST POP POP JUMPDEST PUSH2 0x2455 PUSH2 0x353E JUMP JUMPDEST PUSH1 0x1 PUSH1 0x1 PUSH1 0xA0 SHL SUB AND PUSH4 0x42A28E21 PUSH1 0xE PUSH2 0x246D PUSH2 0x3998 JUMP JUMPDEST PUSH1 0x40 MLOAD PUSH1 0x1 PUSH1 0x1 PUSH1 0xE0 SHL SUB NOT PUSH1 0xE0 DUP5 SWAP1 SHL AND DUP2 MSTORE PUSH1 0x4 DUP2 ADD SWAP2 SWAP1 SWAP2 MSTORE PUSH1 0x24 ADD PUSH1 0x0 PUSH1 0x40 MLOAD DUP1 DUP4 SUB DUP2 DUP7 DUP1 PUSH2 0x249F PUSH2 0x39F3 JUMP JUMPDEST ISZERO DUP1 ISZERO PUSH2 0x24B4 JUMPI PUSH1 0x0 DUP1 PUSH2 0x24B1 PUSH2 0x392D JUMP JUMPDEST POP POP JUMPDEST POP GAS PUSH2 0x24BE PUSH2 0x3B46 JUMP JUMPDEST POP POP POP POP POP ISZERO DUP1 ISZERO PUSH2 0x16A4 JUMPI RETURNDATASIZE PUSH1 0x0 DUP1 RETURNDATACOPY RETURNDATASIZE PUSH1 0x0 PUSH2 0x24DA PUSH2 0x392D JUMP JUMPDEST POP POP POP POP POP POP POP POP JUMP JUMPDEST PUSH1 0x0 PUSH1 0x0 NOT DUP2 PUSH1 0x7 PUSH2 0x24F4 PUSH2 0x3998 JUMP JUMPDEST PUSH1 0x1 PUSH1 0x1 PUSH1 0xA0 SHL SUB PUSH2 0x100 SWAP3 SWAP1 SWAP3 EXP SWAP1 DIV AND PUSH4 0xDD62ED3E DUP7 PUSH1 0x0 PUSH1 0x6 PUSH2 0x2518 PUSH2 0x3998 JUMP JUMPDEST SWAP1 PUSH2 0x100 EXP SWAP1 DIV PUSH1 0x1 PUSH1 0x1 PUSH1 0xA0 SHL SUB AND PUSH1 0x40 MLOAD PUSH1 0x1 PUSH1 0x1 PUSH1 0xE0 SHL SUB NOT PUSH1 0xE0 DUP6 SWAP1 SHL AND DUP2 MSTORE PUSH1 0x1 PUSH1 0x1 PUSH1 0xA0 SHL SUB SWAP3 DUP4 AND PUSH1 0x4 DUP3 ADD MSTORE SWAP2 AND PUSH1 0x24 DUP3 ADD MSTORE PUSH1 0x44 ADD PUSH1 0x20 PUSH1 0x40 MLOAD DUP1 DUP4 SUB DUP2 DUP7 DUP1 PUSH2 0x2569 PUSH2 0x39F3 JUMP JUMPDEST ISZERO DUP1 ISZERO PUSH2 0x257E JUMPI PUSH1 0x0 DUP1 PUSH2 0x257B PUSH2 0x392D JUMP JUMPDEST POP POP JUMPDEST POP GAS PUSH2 0x2588 PUSH2 0x3B46 JUMP JUMPDEST POP POP POP POP POP ISZERO DUP1 ISZERO PUSH2 0x25A7 JUMPI RETURNDATASIZE PUSH1 0x0 DUP1 RETURNDATACOPY RETURNDATASIZE PUSH1 0x0 PUSH2 0x25A4 PUSH2 0x392D JUMP JUMPDEST POP POP JUMPDEST POP POP POP POP PUSH1 0x40 MLOAD RETURNDATASIZE PUSH1 0x20 DUP2 LT ISZERO PUSH2 0x25C6 JUMPI PUSH1 0x0 DUP1 PUSH2 0x25C3 PUSH2 0x392D JUMP JUMPDEST POP POP JUMPDEST DUP2 ADD SWAP1 DUP1 DUP1 MLOAD SWAP4 SWAP1 SWAP4 EQ SWAP3 POP PUSH2 0x27A4 SWAP2 POP POP JUMPI PUSH1 0x0 PUSH1 0x7 PUSH2 0x25E5 PUSH2 0x3998 JUMP JUMPDEST PUSH1 0x1 PUSH1 0x1 PUSH1 0xA0 SHL SUB PUSH2 0x100 SWAP3 SWAP1 SWAP3 EXP SWAP1 DIV AND PUSH4 0xDA46098C DUP6 PUSH1 0x0 PUSH1 0x6 PUSH2 0x2609 PUSH2 0x3998 JUMP JUMPDEST SWAP1 PUSH2 0x100 EXP SWAP1 DIV PUSH1 0x1 PUSH1 0x1 PUSH1 0xA0 SHL SUB AND PUSH2 0x2713 DUP7 PUSH1 0x7 PUSH1 0x0 SWAP1 PUSH2 0x262A PUSH2 0x3998 JUMP JUMPDEST PUSH1 0x1 PUSH1 0x1 PUSH1 0xA0 SHL SUB PUSH2 0x100 SWAP3 SWAP1 SWAP3 EXP SWAP1 DIV AND PUSH4 0xDD62ED3E DUP12 PUSH1 0x0 PUSH1 0x6 PUSH2 0x264E PUSH2 0x3998 JUMP JUMPDEST SWAP1 PUSH2 0x100 EXP SWAP1 DIV PUSH1 0x1 PUSH1 0x1 PUSH1 0xA0 SHL SUB AND PUSH1 0x40 MLOAD PUSH1 0x1 PUSH1 0x1 PUSH1 0xE0 SHL SUB NOT PUSH1 0xE0 DUP6 SWAP1 SHL AND DUP2 MSTORE PUSH1 0x1 PUSH1 0x1 PUSH1 0xA0 SHL SUB SWAP3 DUP4 AND PUSH1 0x4 DUP3 ADD MSTORE SWAP2 AND PUSH1 0x24 DUP3 ADD MSTORE PUSH1 0x44 ADD PUSH1 0x20 PUSH1 0x40 MLOAD DUP1 DUP4 SUB DUP2 DUP7 DUP1 PUSH2 0x269F PUSH2 0x39F3 JUMP JUMPDEST ISZERO DUP1 ISZERO PUSH2 0x26B4 JUMPI PUSH1 0x0 DUP1 PUSH2 0x26B1 PUSH2 0x392D JUMP JUMPDEST POP POP JUMPDEST POP GAS PUSH2 0x26BE PUSH2 0x3B46 JUMP JUMPDEST POP POP POP POP POP ISZERO DUP1 ISZERO PUSH2 0x26DD JUMPI RETURNDATASIZE PUSH1 0x0 DUP1 RETURNDATACOPY RETURNDATASIZE PUSH1 0x0 PUSH2 0x26DA PUSH2 0x392D JUMP JUMPDEST POP POP JUMPDEST POP POP POP POP PUSH1 0x40 MLOAD RETURNDATASIZE PUSH1 0x20 DUP2 LT ISZERO PUSH2 0x26FC JUMPI PUSH1 0x0 DUP1 PUSH2 0x26F9 PUSH2 0x392D JUMP JUMPDEST POP POP JUMPDEST DUP2 ADD SWAP1 DUP1 DUP1 MLOAD SWAP4 SWAP3 POP POP PUSH4 0xFFFFFFFF PUSH2 0x34CD AND SWAP1 POP JUMP JUMPDEST PUSH1 0x40 MLOAD PUSH1 0x1 PUSH1 0x1 PUSH1 0xE0 SHL SUB NOT PUSH1 0xE0 DUP7 SWAP1 SHL AND DUP2 MSTORE PUSH1 0x1 PUSH1 0x1 PUSH1 0xA0 SHL SUB SWAP4 DUP5 AND PUSH1 0x4 DUP3 ADD MSTORE SWAP2 SWAP1 SWAP3 AND PUSH1 0x24 DUP3 ADD MSTORE PUSH1 0x44 DUP2 ADD SWAP2 SWAP1 SWAP2 MSTORE PUSH1 0x64 ADD PUSH1 0x0 PUSH1 0x40 MLOAD DUP1 DUP4 SUB DUP2 PUSH1 0x0 DUP8 DUP1 PUSH2 0x2760 PUSH2 0x39F3 JUMP JUMPDEST ISZERO DUP1 ISZERO PUSH2 0x2775 JUMPI PUSH1 0x0 DUP1 PUSH2 0x2772 PUSH2 0x392D JUMP JUMPDEST POP POP JUMPDEST POP GAS PUSH2 0x277F PUSH2 0x3A3F JUMP JUMPDEST POP POP POP POP POP POP ISZERO DUP1 ISZERO PUSH2 0x279F JUMPI RETURNDATASIZE PUSH1 0x0 DUP1 RETURNDATACOPY RETURNDATASIZE PUSH1 0x0 PUSH2 0x279C PUSH2 0x392D JUMP JUMPDEST POP POP JUMPDEST POP POP POP POP JUMPDEST PUSH2 0xBD8 DUP5 DUP5 DUP5 PUSH2 0x30B2 JUMP JUMPDEST PUSH1 0x0 PUSH2 0x27F8 PUSH7 0x119959541BDBDB PUSH1 0xCA SHL PUSH1 0x40 MLOAD PUSH1 0x40 DUP1 DUP3 ADD SWAP1 MSTORE PUSH1 0x17 DUP2 MSTORE PUSH32 0x4D697373696E6720466565506F6F6C2061646472657373000000000000000000 PUSH1 0x20 DUP3 ADD MSTORE PUSH2 0x3588 JUMP JUMPDEST SWAP1 POP SWAP1 JUMP JUMPDEST PUSH1 0x0 PUSH2 0x27F8 PUSH9 0x22BC31B430B733B2B9 PUSH1 0xB9 SHL PUSH1 0x40 MLOAD PUSH1 0x40 DUP1 DUP3 ADD SWAP1 MSTORE PUSH1 0x19 DUP2 MSTORE PUSH32 0x4D697373696E672045786368616E676572206164647265737300000000000000 PUSH1 0x20 DUP3 ADD MSTORE PUSH2 0x3588 JUMP JUMPDEST PUSH1 0x0 PUSH2 0x27F8 PUSH6 0x24B9B9BAB2B9 PUSH1 0xD1 SHL PUSH1 0x40 MLOAD PUSH1 0x40 DUP1 DUP3 ADD SWAP1 MSTORE PUSH1 0x16 DUP2 MSTORE PUSH22 0x4D697373696E67204973737565722061646472657373 PUSH1 0x50 SHL PUSH1 0x20 DUP3 ADD MSTORE PUSH2 0x3588 JUMP JUMPDEST PUSH1 0x0 PUSH1 0x7 PUSH2 0x2895 PUSH2 0x3998 JUMP JUMPDEST PUSH1 0x1 PUSH1 0x1 PUSH1 0xA0 SHL SUB PUSH2 0x100 SWAP3 SWAP1 SWAP3 EXP SWAP1 DIV AND PUSH4 0xB46310F6 DUP4 PUSH2 0x298A DUP5 PUSH1 0x0 PUSH1 0x7 PUSH2 0x28BD PUSH2 0x3998 JUMP JUMPDEST SWAP1 PUSH2 0x100 EXP SWAP1 DIV PUSH1 0x1 PUSH1 0x1 PUSH1 0xA0 SHL SUB AND PUSH1 0x1 PUSH1 0x1 PUSH1 0xA0 SHL SUB AND PUSH4 0x70A08231 DUP9 PUSH1 0x40 MLOAD PUSH1 0x1 PUSH1 0x1 PUSH1 0xE0 SHL SUB NOT PUSH1 0xE0 DUP5 SWAP1 SHL AND DUP2 MSTORE PUSH1 0x1 PUSH1 0x1 PUSH1 0xA0 SHL SUB SWAP1 SWAP2 AND PUSH1 0x4 DUP3 ADD MSTORE PUSH1 0x24 ADD PUSH1 0x20 PUSH1 0x40 MLOAD DUP1 DUP4 SUB DUP2 DUP7 DUP1 PUSH2 0x2916 PUSH2 0x39F3 JUMP JUMPDEST ISZERO DUP1 ISZERO PUSH2 0x292B JUMPI PUSH1 0x0 DUP1 PUSH2 0x2928 PUSH2 0x392D JUMP JUMPDEST POP POP JUMPDEST POP GAS PUSH2 0x2935 PUSH2 0x3B46 JUMP JUMPDEST POP POP POP POP POP ISZERO DUP1 ISZERO PUSH2 0x2954 JUMPI RETURNDATASIZE PUSH1 0x0 DUP1 RETURNDATACOPY RETURNDATASIZE PUSH1 0x0 PUSH2 0x2951 PUSH2 0x392D JUMP JUMPDEST POP POP JUMPDEST POP POP POP POP PUSH1 0x40 MLOAD RETURNDATASIZE PUSH1 0x20 DUP2 LT ISZERO PUSH2 0x2973 JUMPI PUSH1 0x0 DUP1 PUSH2 0x2970 PUSH2 0x392D JUMP JUMPDEST POP POP JUMPDEST DUP2 ADD SWAP1 DUP1 DUP1 MLOAD SWAP4 SWAP3 POP POP PUSH4 0xFFFFFFFF PUSH2 0x3651 AND SWAP1 POP JUMP JUMPDEST PUSH1 0x40 MLOAD PUSH1 0x1 PUSH1 0x1 PUSH1 0xE0 SHL SUB NOT PUSH1 0xE0 DUP6 SWAP1 SHL AND DUP2 MSTORE PUSH1 0x1 PUSH1 0x1 PUSH1 0xA0 SHL SUB SWAP1 SWAP3 AND PUSH1 0x4 DUP4 ADD MSTORE PUSH1 0x24 DUP3 ADD MSTORE PUSH1 0x44 ADD PUSH1 0x0 PUSH1 0x40 MLOAD DUP1 DUP4 SUB DUP2 PUSH1 0x0 DUP8 DUP1 PUSH2 0x29CB PUSH2 0x39F3 JUMP JUMPDEST ISZERO DUP1 ISZERO PUSH2 0x29E0 JUMPI PUSH1 0x0 DUP1 PUSH2 0x29DD PUSH2 0x392D JUMP JUMPDEST POP POP JUMPDEST POP GAS PUSH2 0x29EA PUSH2 0x3A3F JUMP JUMPDEST POP POP POP POP POP POP ISZERO DUP1 ISZERO PUSH2 0x2A0A JUMPI RETURNDATASIZE PUSH1 0x0 DUP1 RETURNDATACOPY RETURNDATASIZE PUSH1 0x0 PUSH2 0x2A07 PUSH2 0x392D JUMP JUMPDEST POP POP JUMPDEST POP POP POP POP PUSH2 0x2A28 DUP2 PUSH1 0xA PUSH2 0x2A1C PUSH2 0x3998 JUMP JUMPDEST SWAP1 PUSH4 0xFFFFFFFF PUSH2 0x3651 AND JUMP JUMPDEST DUP1 PUSH1 0xA PUSH2 0x2A33 PUSH2 0x3AF8 JUMP JUMPDEST POP POP POP PUSH2 0x2A42 PUSH1 0x0 DUP4 DUP4 PUSH2 0x36B9 JUMP JUMPDEST PUSH2 0xE36 DUP3 DUP3 PUSH2 0x3726 JUMP JUMPDEST PUSH1 0x0 DUP1 PUSH1 0x7 PUSH2 0x2A59 PUSH2 0x3998 JUMP JUMPDEST PUSH1 0x1 PUSH1 0x1 PUSH1 0xA0 SHL SUB PUSH2 0x100 SWAP3 SWAP1 SWAP3 EXP SWAP1 DIV AND PUSH4 0xB46310F6 DUP5 PUSH2 0x2ADA DUP6 PUSH1 0x0 PUSH1 0x7 PUSH2 0x2A81 PUSH2 0x3998 JUMP JUMPDEST SWAP1 PUSH2 0x100 EXP SWAP1 DIV PUSH1 0x1 PUSH1 0x1 PUSH1 0xA0 SHL SUB AND PUSH1 0x1 PUSH1 0x1 PUSH1 0xA0 SHL SUB AND PUSH4 0x70A08231 DUP10 PUSH1 0x40 MLOAD PUSH1 0x1 PUSH1 0x1 PUSH1 0xE0 SHL SUB NOT PUSH1 0xE0 DUP5 SWAP1 SHL AND DUP2 MSTORE PUSH1 0x1 PUSH1 0x1 PUSH1 0xA0 SHL SUB SWAP1 SWAP2 AND PUSH1 0x4 DUP3 ADD MSTORE PUSH1 0x24 ADD PUSH1 0x20 PUSH1 0x40 MLOAD DUP1 DUP4 SUB DUP2 DUP7 DUP1 PUSH2 0x269F PUSH2 0x39F3 JUMP JUMPDEST PUSH1 0x40 MLOAD PUSH1 0x1 PUSH1 0x1 PUSH1 0xE0 SHL SUB NOT PUSH1 0xE0 DUP6 SWAP1 SHL AND DUP2 MSTORE PUSH1 0x1 PUSH1 0x1 PUSH1 0xA0 SHL SUB SWAP1 SWAP3 AND PUSH1 0x4 DUP4 ADD MSTORE PUSH1 0x24 DUP3 ADD MSTORE PUSH1 0x44 ADD PUSH1 0x0 PUSH1 0x40 MLOAD DUP1 DUP4 SUB DUP2 PUSH1 0x0 DUP8 DUP1 PUSH2 0x2B1B PUSH2 0x39F3 JUMP JUMPDEST ISZERO DUP1 ISZERO PUSH2 0x2B30 JUMPI PUSH1 0x0 DUP1 PUSH2 0x2B2D PUSH2 0x392D JUMP JUMPDEST POP POP JUMPDEST POP GAS PUSH2 0x2B3A PUSH2 0x3A3F JUMP JUMPDEST POP POP POP POP POP POP ISZERO DUP1 ISZERO PUSH2 0x2B5A JUMPI RETURNDATASIZE PUSH1 0x0 DUP1 RETURNDATACOPY RETURNDATASIZE PUSH1 0x0 PUSH2 0x2B57 PUSH2 0x392D JUMP JUMPDEST POP POP JUMPDEST POP POP POP POP PUSH2 0x2B78 DUP3 PUSH1 0xA PUSH2 0x2B6C PUSH2 0x3998 JUMP JUMPDEST SWAP1 PUSH4 0xFFFFFFFF PUSH2 0x34CD AND JUMP JUMPDEST DUP1 PUSH1 0xA PUSH2 0x2B83 PUSH2 0x3AF8 JUMP JUMPDEST POP POP POP PUSH2 0x2B92 DUP4 PUSH1 0x0 DUP5 PUSH2 0x36B9 JUMP JUMPDEST PUSH2 0x2B9C DUP4 DUP4 PUSH2 0x38A7 JUMP JUMPDEST POP PUSH1 0x1 SWAP3 SWAP2 POP POP JUMP JUMPDEST PUSH1 0x0 PUSH1 0x4 PUSH2 0x2BB1 PUSH2 0x3998 JUMP JUMPDEST SWAP1 PUSH2 0x100 EXP SWAP1 DIV PUSH1 0x1 PUSH1 0x1 PUSH1 0xA0 SHL SUB AND PUSH1 0x1 PUSH1 0x1 PUSH1 0xA0 SHL SUB AND GAS PUSH2 0x2BD3 PUSH2 0x3BFF JUMP JUMPDEST PUSH1 0x1 PUSH1 0x1 PUSH1 0xA0 SHL SUB AND EQ ISZERO DUP1 ISZERO PUSH2 0x2C1F JUMPI POP PUSH1 0x0 PUSH1 0x5 PUSH2 0x2BF1 PUSH2 0x3998 JUMP JUMPDEST SWAP1 PUSH2 0x100 EXP SWAP1 DIV PUSH1 0x1 PUSH1 0x1 PUSH1 0xA0 SHL SUB AND PUSH1 0x1 PUSH1 0x1 PUSH1 0xA0 SHL SUB AND GAS PUSH2 0x2C13 PUSH2 0x3BFF JUMP JUMPDEST PUSH1 0x1 PUSH1 0x1 PUSH1 0xA0 SHL SUB AND EQ ISZERO JUMPDEST DUP1 ISZERO PUSH2 0x2C60 JUMPI POP GAS PUSH2 0x2C2F PUSH2 0x3BFF JUMP JUMPDEST PUSH1 0x1 PUSH1 0x1 PUSH1 0xA0 SHL SUB AND PUSH1 0x0 PUSH1 0x6 PUSH2 0x2C44 PUSH2 0x3998 JUMP JUMPDEST SWAP1 PUSH2 0x100 EXP SWAP1 DIV PUSH1 0x1 PUSH1 0x1 PUSH1 0xA0 SHL SUB AND PUSH1 0x1 PUSH1 0x1 PUSH1 0xA0 SHL SUB AND EQ ISZERO JUMPDEST ISZERO PUSH2 0x2CA1 JUMPI GAS PUSH2 0x2C6E PUSH2 0x3BFF JUMP JUMPDEST PUSH1 0x6 PUSH1 0x1 DUP2 PUSH2 0x2C7B PUSH2 0x3998 JUMP JUMPDEST DUP2 PUSH1 0x1 PUSH1 0x1 PUSH1 0xA0 SHL SUB MUL NOT AND SWAP1 DUP4 PUSH1 0x1 PUSH1 0x1 PUSH1 0xA0 SHL SUB AND MUL OR SWAP1 PUSH2 0x2C9D PUSH2 0x3AF8 JUMP JUMPDEST POP POP POP JUMPDEST PUSH1 0x0 DUP1 PUSH2 0x2CAC PUSH2 0x3998 JUMP JUMPDEST PUSH1 0x1 PUSH1 0x1 PUSH1 0xA0 SHL SUB PUSH2 0x100 SWAP3 SWAP1 SWAP3 EXP SWAP1 DIV AND PUSH1 0x0 PUSH1 0x6 PUSH2 0x2CCA PUSH2 0x3998 JUMP JUMPDEST SWAP1 PUSH2 0x100 EXP SWAP1 DIV PUSH1 0x1 PUSH1 0x1 PUSH1 0xA0 SHL SUB AND PUSH1 0x1 PUSH1 0x1 PUSH1 0xA0 SHL SUB AND EQ PUSH2 0x20FD JUMPI PUSH1 0x40 MLOAD PUSH3 0x461BCD PUSH1 0xE5 SHL DUP2 MSTORE PUSH1 0x20 PUSH1 0x4 DUP3 ADD MSTORE PUSH1 0x13 PUSH1 0x24 DUP3 ADD MSTORE PUSH19 0x27BBB732B91037B7363C90333AB731BA34B7B7 PUSH1 0x69 SHL PUSH1 0x44 DUP3 ADD MSTORE PUSH1 0x64 ADD PUSH1 0x40 MLOAD DUP1 SWAP2 SUB SWAP1 PUSH2 0xE36 PUSH2 0x392D JUMP JUMPDEST PUSH1 0x0 PUSH1 0x4 PUSH2 0x2D3C PUSH2 0x3998 JUMP JUMPDEST SWAP1 PUSH2 0x100 EXP SWAP1 DIV PUSH1 0x1 PUSH1 0x1 PUSH1 0xA0 SHL SUB AND PUSH1 0x1 PUSH1 0x1 PUSH1 0xA0 SHL SUB AND PUSH4 0x907DFF97 DUP3 PUSH1 0x40 MLOAD PUSH1 0x1 PUSH1 0x1 PUSH1 0xA0 SHL SUB SWAP1 SWAP2 AND PUSH1 0x20 DUP3 ADD MSTORE PUSH1 0x40 SWAP1 DUP2 ADD SWAP1 MLOAD PUSH1 0x20 DUP2 DUP4 SUB SUB DUP2 MSTORE SWAP1 PUSH1 0x40 MSTORE PUSH1 0x1 PUSH1 0x40 MLOAD PUSH32 0x546F6B656E537461746555706461746564286164647265737329000000000000 DUP2 MSTORE PUSH1 0x1A ADD PUSH1 0x40 MLOAD DUP1 SWAP2 SUB SWAP1 KECCAK256 PUSH1 0x0 DUP1 PUSH1 0x0 PUSH1 0x40 MLOAD DUP8 PUSH4 0xFFFFFFFF AND PUSH1 0xE0 SHL DUP2 MSTORE PUSH1 0x4 ADD DUP1 DUP1 PUSH1 0x20 ADD DUP8 DUP2 MSTORE PUSH1 0x20 ADD DUP7 DUP2 MSTORE PUSH1 0x20 ADD DUP6 PUSH1 0x0 SHL DUP2 MSTORE PUSH1 0x20 ADD DUP5 PUSH1 0x0 SHL DUP2 MSTORE PUSH1 0x20 ADD DUP4 PUSH1 0x0 SHL DUP2 MSTORE PUSH1 0x20 ADD DUP3 DUP2 SUB DUP3 MSTORE DUP9 DUP2 DUP2 MLOAD DUP2 MSTORE PUSH1 0x20 ADD SWAP2 POP DUP1 MLOAD SWAP1 PUSH1 0x20 ADD SWAP1 DUP1 DUP4 DUP4 PUSH1 0x0 JUMPDEST DUP4 DUP2 LT ISZERO PUSH2 0x2E2C JUMPI DUP1 DUP3 ADD MLOAD DUP4 DUP3 ADD MSTORE PUSH1 0x20 ADD PUSH2 0x2E14 JUMP JUMPDEST POP POP POP POP SWAP1 POP SWAP1 DUP2 ADD SWAP1 PUSH1 0x1F AND DUP1 ISZERO PUSH2 0x2E59 JUMPI DUP1 DUP3 SUB DUP1 MLOAD PUSH1 0x1 DUP4 PUSH1 0x20 SUB PUSH2 0x100 EXP SUB NOT AND DUP2 MSTORE PUSH1 0x20 ADD SWAP2 POP JUMPDEST POP SWAP8 POP POP POP POP POP POP POP POP PUSH1 0x0 PUSH1 0x40 MLOAD DUP1 DUP4 SUB DUP2 PUSH1 0x0 DUP8 DUP1 PUSH2 0x2E78 PUSH2 0x39F3 JUMP JUMPDEST ISZERO DUP1 ISZERO PUSH2 0x2E8D JUMPI PUSH1 0x0 DUP1 PUSH2 0x2E8A PUSH2 0x392D JUMP JUMPDEST POP POP JUMPDEST POP GAS PUSH2 0x2E97 PUSH2 0x3A3F JUMP JUMPDEST POP POP POP POP POP POP ISZERO DUP1 ISZERO PUSH2 0x134F JUMPI RETURNDATASIZE PUSH1 0x0 DUP1 RETURNDATACOPY RETURNDATASIZE PUSH1 0x0 PUSH2 0x226F PUSH2 0x392D JUMP JUMPDEST PUSH1 0x0 DUP1 PUSH1 0xE PUSH2 0x2EC1 PUSH2 0x3998 JUMP JUMPDEST PUSH4 0x1CD554D1 PUSH1 0xE2 SHL EQ ISZERO PUSH2 0x2EFD JUMPI POP DUP2 PUSH2 0x2EF7 PUSH1 0x0 PUSH1 0x6 PUSH2 0x2EE0 PUSH2 0x3998 JUMP JUMPDEST SWAP1 PUSH2 0x100 EXP SWAP1 DIV PUSH1 0x1 PUSH1 0x1 PUSH1 0xA0 SHL SUB AND DUP6 DUP6 PUSH2 0x30B2 JUMP JUMPDEST POP PUSH2 0x301A JUMP JUMPDEST PUSH2 0x2F05 PUSH2 0x27FD JUMP JUMPDEST PUSH1 0x1 PUSH1 0x1 PUSH1 0xA0 SHL SUB AND PUSH4 0xA1E187D PUSH1 0x0 PUSH1 0x6 PUSH2 0x2F1F PUSH2 0x3998 JUMP JUMPDEST SWAP1 PUSH2 0x100 EXP SWAP1 DIV PUSH1 0x1 PUSH1 0x1 PUSH1 0xA0 SHL SUB AND PUSH1 0xE PUSH2 0x2F39 PUSH2 0x3998 JUMP JUMPDEST DUP7 PUSH20 0xFEEFEEFEEFEEFEEFEEFEEFEEFEEFEEFEEFEEFEEF PUSH1 0x40 MLOAD PUSH1 0x1 PUSH1 0x1 PUSH1 0xE0 SHL SUB NOT PUSH1 0xE0 DUP8 SWAP1 SHL AND DUP2 MSTORE PUSH1 0x1 PUSH1 0x1 PUSH1 0xA0 SHL SUB SWAP5 DUP6 AND PUSH1 0x4 DUP3 ADD MSTORE PUSH1 0x24 DUP2 ADD SWAP4 SWAP1 SWAP4 MSTORE PUSH1 0x44 DUP4 ADD SWAP2 SWAP1 SWAP2 MSTORE PUSH4 0x1CD554D1 PUSH1 0xE2 SHL PUSH1 0x64 DUP4 ADD MSTORE SWAP1 SWAP2 AND PUSH1 0x84 DUP3 ADD MSTORE PUSH1 0xA4 ADD PUSH1 0x20 PUSH1 0x40 MLOAD DUP1 DUP4 SUB DUP2 PUSH1 0x0 DUP8 DUP1 PUSH2 0x2FB0 PUSH2 0x39F3 JUMP JUMPDEST ISZERO DUP1 ISZERO PUSH2 0x2FC5 JUMPI PUSH1 0x0 DUP1 PUSH2 0x2FC2 PUSH2 0x392D JUMP JUMPDEST POP POP JUMPDEST POP GAS PUSH2 0x2FCF PUSH2 0x3A3F JUMP JUMPDEST POP POP POP POP POP POP ISZERO DUP1 ISZERO PUSH2 0x2FEF JUMPI RETURNDATASIZE PUSH1 0x0 DUP1 RETURNDATACOPY RETURNDATASIZE PUSH1 0x0 PUSH2 0x2FEC PUSH2 0x392D JUMP JUMPDEST POP POP JUMPDEST POP POP POP POP PUSH1 0x40 MLOAD RETURNDATASIZE PUSH1 0x20 DUP2 LT ISZERO PUSH2 0x300E JUMPI PUSH1 0x0 DUP1 PUSH2 0x300B PUSH2 0x392D JUMP JUMPDEST POP POP JUMPDEST DUP2 ADD SWAP1 DUP1 DUP1 MLOAD SWAP4 POP POP POP POP JUMPDEST PUSH2 0x3022 PUSH2 0x27AF JUMP JUMPDEST PUSH1 0x1 PUSH1 0x1 PUSH1 0xA0 SHL SUB AND PUSH4 0x22BF55EF DUP3 PUSH1 0x40 MLOAD PUSH1 0x1 PUSH1 0x1 PUSH1 0xE0 SHL SUB NOT PUSH1 0xE0 DUP5 SWAP1 SHL AND DUP2 MSTORE PUSH1 0x4 DUP2 ADD SWAP2 SWAP1 SWAP2 MSTORE PUSH1 0x24 ADD PUSH1 0x0 PUSH1 0x40 MLOAD DUP1 DUP4 SUB DUP2 PUSH1 0x0 DUP8 DUP1 PUSH2 0x3065 PUSH2 0x39F3 JUMP JUMPDEST ISZERO DUP1 ISZERO PUSH2 0x307A JUMPI PUSH1 0x0 DUP1 PUSH2 0x3077 PUSH2 0x392D JUMP JUMPDEST POP POP JUMPDEST POP GAS PUSH2 0x3084 PUSH2 0x3A3F JUMP JUMPDEST POP POP POP POP POP POP ISZERO DUP1 ISZERO PUSH2 0x30A4 JUMPI RETURNDATASIZE PUSH1 0x0 DUP1 RETURNDATACOPY RETURNDATASIZE PUSH1 0x0 PUSH2 0x30A1 PUSH2 0x392D JUMP JUMPDEST POP POP JUMPDEST POP PUSH1 0x1 SWAP8 SWAP7 POP POP POP POP POP POP POP JUMP JUMPDEST PUSH1 0x0 PUSH1 0x1 PUSH1 0x1 PUSH1 0xA0 SHL SUB DUP4 AND ISZERO DUP1 ISZERO SWAP1 PUSH2 0x3136 JUMPI POP GAS PUSH4 0x996D79A5 MSIZE DUP2 PUSH1 0xE0 SHL DUP2 MSTORE PUSH1 0x20 DUP2 PUSH1 0x4 DUP4 CALLER PUSH1 0x0 SWAP1 GAS CALL PC PUSH1 0x1D ADD JUMPI RETURNDATASIZE PUSH1 0x1 EQ PC PUSH1 0xC ADD JUMPI RETURNDATASIZE PUSH1 0x0 DUP1 RETURNDATACOPY RETURNDATASIZE PUSH3 0x123456 MSTORE PUSH1 0xEA PUSH2 0x109C MSTORE DUP1 MLOAD SWAP3 POP PUSH1 0x0 JUMPDEST PUSH1 0x40 DUP2 LT ISZERO PUSH2 0x311D JUMPI PUSH1 0x0 DUP3 DUP3 ADD MSTORE PUSH1 0x20 ADD PUSH2 0x3106 JUMP JUMPDEST POP POP POP PUSH1 0x1 PUSH1 0x1 PUSH1 0xA0 SHL SUB AND DUP4 PUSH1 0x1 PUSH1 0x1 PUSH1 0xA0 SHL SUB AND EQ ISZERO JUMPDEST DUP1 ISZERO PUSH2 0x316F JUMPI POP PUSH1 0x0 PUSH1 0x4 PUSH2 0x3149 PUSH2 0x3998 JUMP JUMPDEST SWAP1 PUSH2 0x100 EXP SWAP1 DIV PUSH1 0x1 PUSH1 0x1 PUSH1 0xA0 SHL SUB AND PUSH1 0x1 PUSH1 0x1 PUSH1 0xA0 SHL SUB AND DUP4 PUSH1 0x1 PUSH1 0x1 PUSH1 0xA0 SHL SUB AND EQ ISZERO JUMPDEST PUSH2 0x31C8 JUMPI PUSH1 0x40 MLOAD PUSH3 0x461BCD PUSH1 0xE5 SHL DUP2 MSTORE PUSH1 0x20 PUSH1 0x4 DUP3 ADD MSTORE PUSH1 0x1F PUSH1 0x24 DUP3 ADD MSTORE PUSH32 0x43616E6E6F74207472616E7366657220746F2074686973206164647265737300 PUSH1 0x44 DUP3 ADD MSTORE PUSH1 0x64 ADD PUSH1 0x40 MLOAD DUP1 SWAP2 SUB SWAP1 PUSH2 0x31C5 PUSH2 0x392D JUMP JUMPDEST POP POP JUMPDEST PUSH1 0x0 PUSH1 0x7 PUSH2 0x31D4 PUSH2 0x3998 JUMP JUMPDEST PUSH1 0x1 PUSH1 0x1 PUSH1 0xA0 SHL SUB PUSH2 0x100 SWAP3 SWAP1 SWAP3 EXP SWAP1 DIV AND PUSH4 0xB46310F6 DUP6 PUSH2 0x3255 DUP6 PUSH1 0x0 PUSH1 0x7 PUSH2 0x31FC PUSH2 0x3998 JUMP JUMPDEST SWAP1 PUSH2 0x100 EXP SWAP1 DIV PUSH1 0x1 PUSH1 0x1 PUSH1 0xA0 SHL SUB AND PUSH1 0x1 PUSH1 0x1 PUSH1 0xA0 SHL SUB AND PUSH4 0x70A08231 DUP11 PUSH1 0x40 MLOAD PUSH1 0x1 PUSH1 0x1 PUSH1 0xE0 SHL SUB NOT PUSH1 0xE0 DUP5 SWAP1 SHL AND DUP2 MSTORE PUSH1 0x1 PUSH1 0x1 PUSH1 0xA0 SHL SUB SWAP1 SWAP2 AND PUSH1 0x4 DUP3 ADD MSTORE PUSH1 0x24 ADD PUSH1 0x20 PUSH1 0x40 MLOAD DUP1 DUP4 SUB DUP2 DUP7 DUP1 PUSH2 0x269F PUSH2 0x39F3 JUMP JUMPDEST PUSH1 0x40 MLOAD PUSH1 0x1 PUSH1 0x1 PUSH1 0xE0 SHL SUB NOT PUSH1 0xE0 DUP6 SWAP1 SHL AND DUP2 MSTORE PUSH1 0x1 PUSH1 0x1 PUSH1 0xA0 SHL SUB SWAP1 SWAP3 AND PUSH1 0x4 DUP4 ADD MSTORE PUSH1 0x24 DUP3 ADD MSTORE PUSH1 0x44 ADD PUSH1 0x0 PUSH1 0x40 MLOAD DUP1 DUP4 SUB DUP2 PUSH1 0x0 DUP8 DUP1 PUSH2 0x3296 PUSH2 0x39F3 JUMP JUMPDEST ISZERO DUP1 ISZERO PUSH2 0x32AB JUMPI PUSH1 0x0 DUP1 PUSH2 0x32A8 PUSH2 0x392D JUMP JUMPDEST POP POP JUMPDEST POP GAS PUSH2 0x32B5 PUSH2 0x3A3F JUMP JUMPDEST POP POP POP POP POP POP ISZERO DUP1 ISZERO PUSH2 0x32D5 JUMPI RETURNDATASIZE PUSH1 0x0 DUP1 RETURNDATACOPY RETURNDATASIZE PUSH1 0x0 PUSH2 0x32D2 PUSH2 0x392D JUMP JUMPDEST POP POP JUMPDEST POP POP POP POP PUSH1 0x7 PUSH1 0x0 SWAP1 PUSH2 0x32E6 PUSH2 0x3998 JUMP JUMPDEST PUSH1 0x1 PUSH1 0x1 PUSH1 0xA0 SHL SUB PUSH2 0x100 SWAP3 SWAP1 SWAP3 EXP SWAP1 DIV AND PUSH4 0xB46310F6 DUP5 PUSH2 0x3367 DUP6 PUSH1 0x0 PUSH1 0x7 PUSH2 0x330E PUSH2 0x3998 JUMP JUMPDEST SWAP1 PUSH2 0x100 EXP SWAP1 DIV PUSH1 0x1 PUSH1 0x1 PUSH1 0xA0 SHL SUB AND PUSH1 0x1 PUSH1 0x1 PUSH1 0xA0 SHL SUB AND PUSH4 0x70A08231 DUP10 PUSH1 0x40 MLOAD PUSH1 0x1 PUSH1 0x1 PUSH1 0xE0 SHL SUB NOT PUSH1 0xE0 DUP5 SWAP1 SHL AND DUP2 MSTORE PUSH1 0x1 PUSH1 0x1 PUSH1 0xA0 SHL SUB SWAP1 SWAP2 AND PUSH1 0x4 DUP3 ADD MSTORE PUSH1 0x24 ADD PUSH1 0x20 PUSH1 0x40 MLOAD DUP1 DUP4 SUB DUP2 DUP7 DUP1 PUSH2 0x2916 PUSH2 0x39F3 JUMP JUMPDEST PUSH1 0x40 MLOAD PUSH1 0x1 PUSH1 0x1 PUSH1 0xE0 SHL SUB NOT PUSH1 0xE0 DUP6 SWAP1 SHL AND DUP2 MSTORE PUSH1 0x1 PUSH1 0x1 PUSH1 0xA0 SHL SUB SWAP1 SWAP3 AND PUSH1 0x4 DUP4 ADD MSTORE PUSH1 0x24 DUP3 ADD MSTORE PUSH1 0x44 ADD PUSH1 0x0 PUSH1 0x40 MLOAD DUP1 DUP4 SUB DUP2 PUSH1 0x0 DUP8 DUP1 PUSH2 0x33A8 PUSH2 0x39F3 JUMP JUMPDEST ISZERO DUP1 ISZERO PUSH2 0x33BD JUMPI PUSH1 0x0 DUP1 PUSH2 0x33BA PUSH2 0x392D JUMP JUMPDEST POP POP JUMPDEST POP GAS PUSH2 0x33C7 PUSH2 0x3A3F JUMP JUMPDEST POP POP POP POP POP POP ISZERO DUP1 ISZERO PUSH2 0x33E7 JUMPI RETURNDATASIZE PUSH1 0x0 DUP1 RETURNDATACOPY RETURNDATASIZE PUSH1 0x0 PUSH2 0x33E4 PUSH2 0x392D JUMP JUMPDEST POP POP JUMPDEST POP POP POP POP PUSH2 0x33F6 DUP5 DUP5 DUP5 PUSH2 0x36B9 JUMP JUMPDEST POP PUSH1 0x1 SWAP4 SWAP3 POP POP POP JUMP JUMPDEST PUSH1 0x0 PUSH1 0x4 PUSH2 0x340C PUSH2 0x3998 JUMP JUMPDEST SWAP1 PUSH2 0x100 EXP SWAP1 DIV PUSH1 0x1 PUSH1 0x1 PUSH1 0xA0 SHL SUB AND PUSH1 0x1 PUSH1 0x1 PUSH1 0xA0 SHL SUB AND GAS PUSH2 0x342E PUSH2 0x3BFF JUMP JUMPDEST PUSH1 0x1 PUSH1 0x1 PUSH1 0xA0 SHL SUB AND EQ DUP1 PUSH2 0x3477 JUMPI POP PUSH1 0x0 PUSH1 0x5 PUSH2 0x344A PUSH2 0x3998 JUMP JUMPDEST SWAP1 PUSH2 0x100 EXP SWAP1 DIV PUSH1 0x1 PUSH1 0x1 PUSH1 0xA0 SHL SUB AND PUSH1 0x1 PUSH1 0x1 PUSH1 0xA0 SHL SUB AND GAS PUSH2 0x346C PUSH2 0x3BFF JUMP JUMPDEST PUSH1 0x1 PUSH1 0x1 PUSH1 0xA0 SHL SUB AND EQ JUMPDEST PUSH2 0x20FD JUMPI PUSH1 0x40 MLOAD PUSH3 0x461BCD PUSH1 0xE5 SHL DUP2 MSTORE PUSH1 0x20 PUSH1 0x4 DUP3 ADD MSTORE PUSH1 0x17 PUSH1 0x24 DUP3 ADD MSTORE PUSH32 0x4F6E6C79207468652070726F78792063616E2063616C6C000000000000000000 PUSH1 0x44 DUP3 ADD MSTORE PUSH1 0x64 ADD PUSH1 0x40 MLOAD DUP1 SWAP2 SUB SWAP1 PUSH2 0xE36 PUSH2 0x392D JUMP JUMPDEST PUSH1 0x0 DUP3 DUP3 GT ISZERO PUSH2 0x352C JUMPI PUSH1 0x40 MLOAD PUSH3 0x461BCD PUSH1 0xE5 SHL DUP2 MSTORE PUSH1 0x20 PUSH1 0x4 DUP3 ADD MSTORE PUSH1 0x1E PUSH1 0x24 DUP3 ADD MSTORE PUSH32 0x536166654D6174683A207375627472616374696F6E206F766572666C6F770000 PUSH1 0x44 DUP3 ADD MSTORE PUSH1 0x64 ADD PUSH1 0x40 MLOAD DUP1 SWAP2 SUB SWAP1 PUSH2 0x3529 PUSH2 0x392D JUMP JUMPDEST POP POP JUMPDEST POP SWAP1 SUB SWAP1 JUMP JUMPDEST PUSH1 0x1 PUSH1 0x1 PUSH1 0xA0 SHL SUB AND SWAP1 JUMP JUMPDEST PUSH1 0x0 PUSH2 0x27F8 PUSH12 0x53797374656D537461747573 PUSH1 0xA0 SHL PUSH1 0x40 MLOAD PUSH1 0x40 DUP1 DUP3 ADD SWAP1 MSTORE PUSH1 0x1C DUP2 MSTORE PUSH32 0x4D697373696E672053797374656D537461747573206164647265737300000000 PUSH1 0x20 DUP3 ADD MSTORE JUMPDEST PUSH1 0x0 DUP3 DUP2 MSTORE PUSH1 0xC PUSH1 0x20 MSTORE DUP1 PUSH1 0x40 DUP2 KECCAK256 PUSH1 0x0 SWAP1 PUSH2 0x35A2 PUSH2 0x3998 JUMP JUMPDEST PUSH1 0x1 PUSH1 0x1 PUSH1 0xA0 SHL SUB PUSH2 0x100 SWAP3 SWAP1 SWAP3 EXP SWAP1 DIV AND SWAP1 POP DUP3 DUP2 PUSH2 0x3649 JUMPI PUSH1 0x40 MLOAD PUSH3 0x461BCD PUSH1 0xE5 SHL DUP2 MSTORE PUSH1 0x4 ADD DUP1 DUP1 PUSH1 0x20 ADD DUP3 DUP2 SUB DUP3 MSTORE DUP4 DUP2 DUP2 MLOAD DUP2 MSTORE PUSH1 0x20 ADD SWAP2 POP DUP1 MLOAD SWAP1 PUSH1 0x20 ADD SWAP1 DUP1 DUP4 DUP4 PUSH1 0x0 JUMPDEST DUP4 DUP2 LT ISZERO PUSH2 0x3605 JUMPI DUP1 DUP3 ADD MLOAD DUP4 DUP3 ADD MSTORE PUSH1 0x20 ADD PUSH2 0x35ED JUMP JUMPDEST POP POP POP POP SWAP1 POP SWAP1 DUP2 ADD SWAP1 PUSH1 0x1F AND DUP1 ISZERO PUSH2 0x3632 JUMPI DUP1 DUP3 SUB DUP1 MLOAD PUSH1 0x1 DUP4 PUSH1 0x20 SUB PUSH2 0x100 EXP SUB NOT AND DUP2 MSTORE PUSH1 0x20 ADD SWAP2 POP JUMPDEST POP SWAP3 POP POP POP PUSH1 0x40 MLOAD DUP1 SWAP2 SUB SWAP1 PUSH2 0x3646 PUSH2 0x392D JUMP JUMPDEST POP POP JUMPDEST POP SWAP4 SWAP3 POP POP POP JUMP JUMPDEST PUSH1 0x0 DUP3 DUP3 ADD DUP4 DUP2 LT ISZERO PUSH2 0x17B8 JUMPI PUSH1 0x40 MLOAD PUSH3 0x461BCD PUSH1 0xE5 SHL DUP2 MSTORE PUSH1 0x20 PUSH1 0x4 DUP3 ADD MSTORE PUSH1 0x1B PUSH1 0x24 DUP3 ADD MSTORE PUSH32 0x536166654D6174683A206164646974696F6E206F766572666C6F770000000000 PUSH1 0x44 DUP3 ADD MSTORE PUSH1 0x64 ADD PUSH1 0x40 MLOAD DUP1 SWAP2 SUB SWAP1 PUSH2 0x36B0 PUSH2 0x392D JUMP JUMPDEST POP POP SWAP4 SWAP3 POP POP POP JUMP JUMPDEST PUSH1 0x0 PUSH1 0x4 PUSH2 0x36C5 PUSH2 0x3998 JUMP JUMPDEST SWAP1 PUSH2 0x100 EXP SWAP1 DIV PUSH1 0x1 PUSH1 0x1 PUSH1 0xA0 SHL SUB AND PUSH1 0x1 PUSH1 0x1 PUSH1 0xA0 SHL SUB AND PUSH4 0x907DFF97 DUP3 PUSH1 0x40 MLOAD PUSH1 0x20 ADD DUP1 DUP3 DUP2 MSTORE PUSH1 0x20 ADD SWAP2 POP POP PUSH1 0x40 MLOAD PUSH1 0x20 DUP2 DUP4 SUB SUB DUP2 MSTORE SWAP1 PUSH1 0x40 MSTORE PUSH1 0x3 PUSH1 0x40 MLOAD DUP1 PUSH1 0x21 PUSH2 0x3DB5 DUP3 CODECOPY PUSH1 0x21 ADD SWAP1 POP PUSH1 0x40 MLOAD DUP1 SWAP2 SUB SWAP1 KECCAK256 PUSH2 0x216C DUP9 PUSH2 0x3532 JUMP JUMPDEST PUSH1 0x0 PUSH1 0x4 PUSH2 0x3732 PUSH2 0x3998 JUMP JUMPDEST SWAP1 PUSH2 0x100 EXP SWAP1 DIV PUSH1 0x1 PUSH1 0x1 PUSH1 0xA0 SHL SUB AND PUSH1 0x1 PUSH1 0x1 PUSH1 0xA0 SHL SUB AND PUSH4 0x907DFF97 DUP3 PUSH1 0x40 MLOAD PUSH1 0x20 ADD DUP1 DUP3 DUP2 MSTORE PUSH1 0x20 ADD SWAP2 POP POP PUSH1 0x40 MLOAD PUSH1 0x20 DUP2 DUP4 SUB SUB DUP2 MSTORE SWAP1 PUSH1 0x40 MSTORE PUSH1 0x2 PUSH1 0x40 MLOAD PUSH32 0x49737375656428616464726573732C75696E7432353629000000000000000000 DUP2 MSTORE PUSH1 0x17 ADD PUSH1 0x40 MLOAD DUP1 SWAP2 SUB SWAP1 KECCAK256 PUSH2 0x37AC DUP8 PUSH2 0x3532 JUMP JUMPDEST PUSH1 0x0 DUP1 PUSH1 0x40 MLOAD DUP8 PUSH4 0xFFFFFFFF AND PUSH1 0xE0 SHL DUP2 MSTORE PUSH1 0x4 ADD DUP1 DUP1 PUSH1 0x20 ADD DUP8 DUP2 MSTORE PUSH1 0x20 ADD DUP7 DUP2 MSTORE PUSH1 0x20 ADD DUP6 DUP2 MSTORE PUSH1 0x20 ADD DUP5 PUSH1 0x0 SHL DUP2 MSTORE PUSH1 0x20 ADD DUP4 PUSH1 0x0 SHL DUP2 MSTORE PUSH1 0x20 ADD DUP3 DUP2 SUB DUP3 MSTORE DUP9 DUP2 DUP2 MLOAD DUP2 MSTORE PUSH1 0x20 ADD SWAP2 POP DUP1 MLOAD SWAP1 PUSH1 0x20 ADD SWAP1 DUP1 DUP4 DUP4 PUSH1 0x0 JUMPDEST DUP4 DUP2 LT ISZERO PUSH2 0x381F JUMPI DUP1 DUP3 ADD MLOAD DUP4 DUP3 ADD MSTORE PUSH1 0x20 ADD PUSH2 0x3807 JUMP JUMPDEST POP POP POP POP SWAP1 POP SWAP1 DUP2 ADD SWAP1 PUSH1 0x1F AND DUP1 ISZERO PUSH2 0x384C JUMPI DUP1 DUP3 SUB DUP1 MLOAD PUSH1 0x1 DUP4 PUSH1 0x20 SUB PUSH2 0x100 EXP SUB NOT AND DUP2 MSTORE PUSH1 0x20 ADD SWAP2 POP JUMPDEST POP SWAP8 POP POP POP POP POP POP POP POP PUSH1 0x0 PUSH1 0x40 MLOAD DUP1 DUP4 SUB DUP2 PUSH1 0x0 DUP8 DUP1 PUSH2 0x386B PUSH2 0x39F3 JUMP JUMPDEST ISZERO DUP1 ISZERO PUSH2 0x3880 JUMPI PUSH1 0x0 DUP1 PUSH2 0x387D PUSH2 0x392D JUMP JUMPDEST POP POP JUMPDEST POP GAS PUSH2 0x388A PUSH2 0x3A3F JUMP JUMPDEST POP POP POP POP POP POP ISZERO DUP1 ISZERO PUSH2 0x16A4 JUMPI RETURNDATASIZE PUSH1 0x0 DUP1 RETURNDATACOPY RETURNDATASIZE PUSH1 0x0 PUSH2 0x24DA PUSH2 0x392D JUMP JUMPDEST PUSH1 0x0 PUSH1 0x4 PUSH2 0x38B3 PUSH2 0x3998 JUMP JUMPDEST SWAP1 PUSH2 0x100 EXP SWAP1 DIV PUSH1 0x1 PUSH1 0x1 PUSH1 0xA0 SHL SUB AND PUSH1 0x1 PUSH1 0x1 PUSH1 0xA0 SHL SUB AND PUSH4 0x907DFF97 DUP3 PUSH1 0x40 MLOAD PUSH1 0x20 ADD DUP1 DUP3 DUP2 MSTORE PUSH1 0x20 ADD SWAP2 POP POP PUSH1 0x40 MLOAD PUSH1 0x20 DUP2 DUP4 SUB SUB DUP2 MSTORE SWAP1 PUSH1 0x40 MSTORE PUSH1 0x2 PUSH1 0x40 MLOAD PUSH32 0x4275726E656428616464726573732C75696E7432353629000000000000000000 DUP2 MSTORE PUSH1 0x17 ADD PUSH1 0x40 MLOAD DUP1 SWAP2 SUB SWAP1 KECCAK256 PUSH2 0x37AC DUP8 PUSH2 0x3532 JUMP JUMPDEST PUSH4 0x2A2A7ADB MSIZE DUP2 PUSH1 0xE0 SHL DUP2 MSTORE PUSH1 0x4 DUP2 ADD PUSH1 0x20 DUP2 MSTORE DUP6 PUSH1 0x20 DUP3 ADD MSTORE PUSH1 0x0 JUMPDEST DUP7 DUP2 LT ISZERO PUSH2 0x3965 JUMPI DUP1 DUP7 ADD MLOAD DUP3 DUP3 ADD PUSH1 0x40 ADD MSTORE PUSH1 0x20 ADD PUSH2 0x394A JUMP JUMPDEST POP PUSH1 0x20 DUP3 DUP8 PUSH1 0x64 ADD DUP5 CALLER PUSH1 0x0 SWAP1 GAS CALL PC PUSH1 0x1D ADD JUMPI RETURNDATASIZE PUSH1 0x1 EQ PC PUSH1 0xC ADD JUMPI RETURNDATASIZE PUSH1 0x0 DUP1 RETURNDATACOPY RETURNDATASIZE PUSH3 0x123456 MSTORE PUSH1 0xEA PUSH2 0x109C MSTORE POP POP POP JUMP JUMPDEST PUSH4 0x3DAA959 MSIZE DUP2 PUSH1 0xE0 SHL DUP2 MSTORE DUP4 PUSH1 0x4 DUP3 ADD MSTORE PUSH1 0x20 DUP2 PUSH1 0x24 DUP4 CALLER PUSH1 0x0 SWAP1 GAS CALL PC PUSH1 0x1D ADD JUMPI RETURNDATASIZE PUSH1 0x1 EQ PC PUSH1 0xC ADD JUMPI RETURNDATASIZE PUSH1 0x0 DUP1 RETURNDATACOPY RETURNDATASIZE PUSH3 0x123456 MSTORE PUSH1 0xEA PUSH2 0x109C MSTORE DUP1 MLOAD SWAP4 POP PUSH1 0x0 JUMPDEST PUSH1 0x40 DUP2 LT ISZERO PUSH2 0x1273 JUMPI PUSH1 0x0 DUP3 DUP3 ADD MSTORE PUSH1 0x20 ADD PUSH2 0x39DC JUMP JUMPDEST PUSH4 0x8435035B MSIZE DUP2 PUSH1 0xE0 SHL DUP2 MSTORE DUP4 PUSH1 0x4 DUP3 ADD MSTORE PUSH1 0x20 DUP2 PUSH1 0x24 DUP4 CALLER PUSH1 0x0 SWAP1 GAS CALL PC PUSH1 0x1D ADD JUMPI RETURNDATASIZE PUSH1 0x1 EQ PC PUSH1 0xC ADD JUMPI RETURNDATASIZE PUSH1 0x0 DUP1 RETURNDATACOPY RETURNDATASIZE PUSH3 0x123456 MSTORE PUSH1 0xEA PUSH2 0x109C MSTORE DUP1 MLOAD PUSH1 0x0 DUP3 MSTORE SWAP4 POP PUSH1 0x20 PUSH2 0x39DC JUMP JUMPDEST PUSH4 0x85979F76 MSIZE DUP2 PUSH1 0xE0 SHL DUP2 MSTORE DUP4 PUSH1 0x4 DUP3 ADD MSTORE DUP5 PUSH1 0x24 DUP3 ADD MSTORE PUSH1 0x60 PUSH1 0x44 DUP3 ADD MSTORE DUP8 PUSH1 0x64 DUP3 ADD MSTORE PUSH1 0x84 DUP2 ADD PUSH1 0x0 JUMPDEST DUP10 DUP2 LT ISZERO PUSH2 0x3A83 JUMPI DUP1 DUP10 ADD MLOAD DUP3 DUP3 ADD MSTORE PUSH1 0x20 ADD PUSH2 0x3A6B JUMP JUMPDEST POP DUP9 PUSH2 0x104 ADD DUP3 ADD PUSH1 0x60 DUP4 DUP12 PUSH2 0x104 ADD DUP6 CALLER PUSH1 0x0 SWAP1 GAS CALL PC PUSH1 0x1D ADD JUMPI RETURNDATASIZE PUSH1 0x1 EQ PC PUSH1 0xC ADD JUMPI RETURNDATASIZE PUSH1 0x0 DUP1 RETURNDATACOPY RETURNDATASIZE PUSH3 0x123456 MSTORE PUSH1 0xEA PUSH2 0x109C MSTORE DUP3 MLOAD PUSH1 0x40 DUP5 ADD MLOAD RETURNDATASIZE PUSH1 0x0 DUP7 RETURNDATACOPY DUP14 DUP14 DUP3 PUSH1 0x60 DUP9 ADD CALLER POP PUSH1 0x0 PUSH1 0x4 GAS CALL POP MSIZE DUP6 JUMPDEST DUP2 DUP2 LT ISZERO PUSH2 0x3AEC JUMPI PUSH1 0x0 DUP2 MSTORE PUSH1 0x20 ADD PUSH2 0x3AD8 JUMP JUMPDEST POP SWAP2 SWAP14 POP POP POP POP POP POP POP JUMP JUMPDEST PUSH4 0x22BD64C0 MSIZE DUP2 PUSH1 0xE0 SHL DUP2 MSTORE DUP4 PUSH1 0x4 DUP3 ADD MSTORE DUP5 PUSH1 0x24 DUP3 ADD MSTORE PUSH1 0x0 DUP2 PUSH1 0x44 DUP4 CALLER PUSH1 0x0 SWAP1 GAS CALL PC PUSH1 0x1D ADD JUMPI RETURNDATASIZE PUSH1 0x1 EQ PC PUSH1 0xC ADD JUMPI RETURNDATASIZE PUSH1 0x0 DUP1 RETURNDATACOPY RETURNDATASIZE PUSH3 0x123456 MSTORE PUSH1 0xEA PUSH2 0x109C MSTORE PUSH1 0x0 DUP2 MSTORE PUSH1 0x20 PUSH2 0x39DC JUMP JUMPDEST PUSH4 0x8540661F MSIZE DUP2 PUSH1 0xE0 SHL DUP2 MSTORE DUP4 PUSH1 0x4 DUP3 ADD MSTORE DUP5 PUSH1 0x24 DUP3 ADD MSTORE PUSH1 0x60 PUSH1 0x44 DUP3 ADD MSTORE DUP7 PUSH1 0x64 DUP3 ADD MSTORE PUSH1 0x84 DUP2 ADD PUSH1 0x0 JUMPDEST DUP9 DUP2 LT ISZERO PUSH2 0x3B8A JUMPI DUP1 DUP9 ADD MLOAD DUP3 DUP3 ADD MSTORE PUSH1 0x20 ADD PUSH2 0x3B72 JUMP JUMPDEST POP DUP8 PUSH2 0x104 ADD DUP3 ADD PUSH1 0x60 DUP4 DUP11 PUSH2 0x104 ADD DUP6 CALLER PUSH1 0x0 SWAP1 GAS CALL PC PUSH1 0x1D ADD JUMPI RETURNDATASIZE PUSH1 0x1 EQ PC PUSH1 0xC ADD JUMPI RETURNDATASIZE PUSH1 0x0 DUP1 RETURNDATACOPY RETURNDATASIZE PUSH3 0x123456 MSTORE PUSH1 0xEA PUSH2 0x109C MSTORE DUP3 MLOAD PUSH1 0x40 DUP5 ADD MLOAD RETURNDATASIZE PUSH1 0x0 DUP7 RETURNDATACOPY DUP13 DUP13 DUP3 PUSH1 0x60 DUP9 ADD CALLER POP PUSH1 0x0 PUSH1 0x4 GAS CALL POP MSIZE DUP6 JUMPDEST DUP2 DUP2 LT ISZERO PUSH2 0x3BF3 JUMPI PUSH1 0x0 DUP2 MSTORE PUSH1 0x20 ADD PUSH2 0x3BDF JUMP JUMPDEST POP SWAP2 SWAP13 POP POP POP POP POP POP POP JUMP JUMPDEST PUSH4 0x73509064 MSIZE DUP2 PUSH1 0xE0 SHL DUP2 MSTORE PUSH1 0x20 DUP2 PUSH1 0x4 DUP4 CALLER PUSH1 0x0 SWAP1 GAS CALL PC PUSH1 0x1D ADD JUMPI RETURNDATASIZE PUSH1 0x1 EQ PC PUSH1 0xC ADD JUMPI RETURNDATASIZE PUSH1 0x0 DUP1 RETURNDATACOPY RETURNDATASIZE PUSH3 0x123456 MSTORE PUSH1 0xEA PUSH2 0x109C MSTORE DUP1 MLOAD PUSH1 0x0 DUP3 MSTORE SWAP4 POP PUSH1 0x20 PUSH2 0x39DC JUMP JUMPDEST PUSH4 0xBDBF8C36 MSIZE DUP2 PUSH1 0xE0 SHL DUP2 MSTORE PUSH1 0x20 DUP2 PUSH1 0x4 DUP4 CALLER PUSH1 0x0 SWAP1 GAS CALL PC PUSH1 0x1D ADD JUMPI RETURNDATASIZE PUSH1 0x1 EQ PC PUSH1 0xC ADD JUMPI RETURNDATASIZE PUSH1 0x0 DUP1 RETURNDATACOPY RETURNDATASIZE PUSH3 0x123456 MSTORE PUSH1 0xEA PUSH2 0x109C MSTORE DUP1 MLOAD PUSH1 0x0 DUP3 MSTORE SWAP4 POP PUSH1 0x20 PUSH2 0x39DC JUMP JUMPDEST PUSH1 0x40 MLOAD PUSH2 0x300 DUP1 DUP3 ADD PUSH1 0x40 MSTORE PUSH1 0x18 SWAP1 DUP3 SWAP1 DUP1 CODESIZE DUP4 CODECOPY POP SWAP2 SWAP3 SWAP2 POP POP JUMP INVALID MSIZE PUSH16 0x75206D757374206265206E6F6D696E61 PUSH21 0x6564206265666F726520796F752063616E20616363 PUSH6 0x7074206F776E PUSH6 0x727368697049 PUSH15 0x73756666696369656E742062616C61 PUSH15 0x636520616674657220616E79207365 PUSH21 0x746C656D656E74206F77696E674F6E6C7920466565 POP PUSH16 0x6F6C2C2045786368616E676572206F72 KECCAK256 0x49 PUSH20 0x7375657220636F6E74726163747320616C6C6F77 PUSH6 0x644F6E6C7920 PUSH21 0x686520636F6E7472616374206F776E6572206D6179 KECCAK256 PUSH17 0x6572666F726D207468697320616374696F PUSH15 0x417070726F76616C28616464726573 PUSH20 0x2C616464726573732C75696E743235362943616E PUSH15 0x6F74207472616E7366657220647572 PUSH10 0x6E672077616974696E67 KECCAK256 PUSH17 0x6572696F645472616E7366657228616464 PUSH19 0x6573732C616464726573732C75696E74323536 0x29 "
		}
	}
}