{
	"abi": [
		{
			"inputs": [
				{
					"internalType": "address",
					"name": "_owner",
					"type": "address"
				},
				{
					"internalType": "contract ISynthetix",
					"name": "_synthetix",
					"type": "address"
				}
			],
			"payable": false,
			"stateMutability": "nonpayable",
			"type": "constructor"
		},
		{
			"anonymous": false,
			"inputs": [
				{
					"indexed": false,
					"internalType": "address",
					"name": "oldOwner",
					"type": "address"
				},
				{
					"indexed": false,
					"internalType": "address",
					"name": "newOwner",
					"type": "address"
				}
			],
			"name": "OwnerChanged",
			"type": "event"
		},
		{
			"anonymous": false,
			"inputs": [
				{
					"indexed": false,
					"internalType": "address",
					"name": "newOwner",
					"type": "address"
				}
			],
			"name": "OwnerNominated",
			"type": "event"
		},
		{
			"anonymous": false,
			"inputs": [
				{
					"indexed": false,
					"internalType": "address",
					"name": "newSynthetix",
					"type": "address"
				}
			],
			"name": "SynthetixUpdated",
			"type": "event"
		},
		{
			"anonymous": false,
			"inputs": [
				{
					"indexed": true,
					"internalType": "address",
					"name": "beneficiary",
					"type": "address"
				},
				{
					"indexed": false,
					"internalType": "uint256",
					"name": "time",
					"type": "uint256"
				},
				{
					"indexed": false,
					"internalType": "uint256",
					"name": "value",
					"type": "uint256"
				}
			],
			"name": "Vested",
			"type": "event"
		},
		{
			"constant": true,
			"inputs": [],
			"name": "MAX_VESTING_ENTRIES",
			"outputs": [
				{
					"internalType": "uint256",
					"name": "",
					"type": "uint256"
				}
			],
			"payable": false,
			"stateMutability": "view",
			"type": "function"
		},
		{
			"constant": true,
			"inputs": [],
			"name": "QUANTITY_INDEX",
			"outputs": [
				{
					"internalType": "uint256",
					"name": "",
					"type": "uint256"
				}
			],
			"payable": false,
			"stateMutability": "view",
			"type": "function"
		},
		{
			"constant": true,
			"inputs": [],
			"name": "TIME_INDEX",
			"outputs": [
				{
					"internalType": "uint256",
					"name": "",
					"type": "uint256"
				}
			],
			"payable": false,
			"stateMutability": "view",
			"type": "function"
		},
		{
			"constant": false,
			"inputs": [],
			"name": "acceptOwnership",
			"outputs": [],
			"payable": false,
			"stateMutability": "nonpayable",
			"type": "function"
		},
		{
			"constant": false,
			"inputs": [
				{
					"internalType": "address",
					"name": "account",
					"type": "address"
				},
				{
					"internalType": "uint256[]",
					"name": "times",
					"type": "uint256[]"
				},
				{
					"internalType": "uint256[]",
					"name": "quantities",
					"type": "uint256[]"
				}
			],
			"name": "addVestingSchedule",
			"outputs": [],
			"payable": false,
			"stateMutability": "nonpayable",
			"type": "function"
		},
		{
			"constant": false,
			"inputs": [
				{
					"internalType": "address",
					"name": "account",
					"type": "address"
				},
				{
					"internalType": "uint256",
					"name": "time",
					"type": "uint256"
				},
				{
					"internalType": "uint256",
					"name": "quantity",
					"type": "uint256"
				}
			],
			"name": "appendVestingEntry",
			"outputs": [],
			"payable": false,
			"stateMutability": "nonpayable",
			"type": "function"
		},
		{
			"constant": true,
			"inputs": [
				{
					"internalType": "address",
					"name": "account",
					"type": "address"
				}
			],
			"name": "balanceOf",
			"outputs": [
				{
					"internalType": "uint256",
					"name": "",
					"type": "uint256"
				}
			],
			"payable": false,
			"stateMutability": "view",
			"type": "function"
		},
		{
			"constant": true,
			"inputs": [
				{
					"internalType": "address",
					"name": "account",
					"type": "address"
				}
			],
			"name": "getNextVestingEntry",
			"outputs": [
				{
					"internalType": "uint256[2]",
					"name": "",
					"type": "uint256[2]"
				}
			],
			"payable": false,
			"stateMutability": "view",
			"type": "function"
		},
		{
			"constant": true,
			"inputs": [
				{
					"internalType": "address",
					"name": "account",
					"type": "address"
				}
			],
			"name": "getNextVestingIndex",
			"outputs": [
				{
					"internalType": "uint256",
					"name": "",
					"type": "uint256"
				}
			],
			"payable": false,
			"stateMutability": "view",
			"type": "function"
		},
		{
			"constant": true,
			"inputs": [
				{
					"internalType": "address",
					"name": "account",
					"type": "address"
				}
			],
			"name": "getNextVestingQuantity",
			"outputs": [
				{
					"internalType": "uint256",
					"name": "",
					"type": "uint256"
				}
			],
			"payable": false,
			"stateMutability": "view",
			"type": "function"
		},
		{
			"constant": true,
			"inputs": [
				{
					"internalType": "address",
					"name": "account",
					"type": "address"
				}
			],
			"name": "getNextVestingTime",
			"outputs": [
				{
					"internalType": "uint256",
					"name": "",
					"type": "uint256"
				}
			],
			"payable": false,
			"stateMutability": "view",
			"type": "function"
		},
		{
			"constant": true,
			"inputs": [
				{
					"internalType": "address",
					"name": "account",
					"type": "address"
				},
				{
					"internalType": "uint256",
					"name": "index",
					"type": "uint256"
				}
			],
			"name": "getVestingQuantity",
			"outputs": [
				{
					"internalType": "uint256",
					"name": "",
					"type": "uint256"
				}
			],
			"payable": false,
			"stateMutability": "view",
			"type": "function"
		},
		{
			"constant": true,
			"inputs": [
				{
					"internalType": "address",
					"name": "account",
					"type": "address"
				},
				{
					"internalType": "uint256",
					"name": "index",
					"type": "uint256"
				}
			],
			"name": "getVestingScheduleEntry",
			"outputs": [
				{
					"internalType": "uint256[2]",
					"name": "",
					"type": "uint256[2]"
				}
			],
			"payable": false,
			"stateMutability": "view",
			"type": "function"
		},
		{
			"constant": true,
			"inputs": [
				{
					"internalType": "address",
					"name": "account",
					"type": "address"
				},
				{
					"internalType": "uint256",
					"name": "index",
					"type": "uint256"
				}
			],
			"name": "getVestingTime",
			"outputs": [
				{
					"internalType": "uint256",
					"name": "",
					"type": "uint256"
				}
			],
			"payable": false,
			"stateMutability": "view",
			"type": "function"
		},
		{
			"constant": false,
			"inputs": [
				{
					"internalType": "address",
					"name": "_owner",
					"type": "address"
				}
			],
			"name": "nominateNewOwner",
			"outputs": [],
			"payable": false,
			"stateMutability": "nonpayable",
			"type": "function"
		},
		{
			"constant": true,
			"inputs": [],
			"name": "nominatedOwner",
			"outputs": [
				{
					"internalType": "address",
					"name": "",
					"type": "address"
				}
			],
			"payable": false,
			"stateMutability": "view",
			"type": "function"
		},
		{
			"constant": true,
			"inputs": [
				{
					"internalType": "address",
					"name": "account",
					"type": "address"
				}
			],
			"name": "numVestingEntries",
			"outputs": [
				{
					"internalType": "uint256",
					"name": "",
					"type": "uint256"
				}
			],
			"payable": false,
			"stateMutability": "view",
			"type": "function"
		},
		{
			"constant": true,
			"inputs": [],
			"name": "owner",
			"outputs": [
				{
					"internalType": "address",
					"name": "",
					"type": "address"
				}
			],
			"payable": false,
			"stateMutability": "view",
			"type": "function"
		},
		{
			"constant": false,
			"inputs": [
				{
					"internalType": "address",
					"name": "account",
					"type": "address"
				}
			],
			"name": "purgeAccount",
			"outputs": [],
			"payable": false,
			"stateMutability": "nonpayable",
			"type": "function"
		},
		{
			"constant": false,
			"inputs": [
				{
					"internalType": "contract ISynthetix",
					"name": "_synthetix",
					"type": "address"
				}
			],
			"name": "setSynthetix",
			"outputs": [],
			"payable": false,
			"stateMutability": "nonpayable",
			"type": "function"
		},
		{
			"constant": true,
			"inputs": [],
			"name": "setupExpiryTime",
			"outputs": [
				{
					"internalType": "uint256",
					"name": "",
					"type": "uint256"
				}
			],
			"payable": false,
			"stateMutability": "view",
			"type": "function"
		},
		{
			"constant": true,
			"inputs": [],
			"name": "synthetix",
			"outputs": [
				{
					"internalType": "contract ISynthetix",
					"name": "",
					"type": "address"
				}
			],
			"payable": false,
			"stateMutability": "view",
			"type": "function"
		},
		{
			"constant": true,
			"inputs": [
				{
					"internalType": "address",
					"name": "",
					"type": "address"
				}
			],
			"name": "totalVestedAccountBalance",
			"outputs": [
				{
					"internalType": "uint256",
					"name": "",
					"type": "uint256"
				}
			],
			"payable": false,
			"stateMutability": "view",
			"type": "function"
		},
		{
			"constant": true,
			"inputs": [],
			"name": "totalVestedBalance",
			"outputs": [
				{
					"internalType": "uint256",
					"name": "",
					"type": "uint256"
				}
			],
			"payable": false,
			"stateMutability": "view",
			"type": "function"
		},
		{
			"constant": false,
			"inputs": [],
			"name": "vest",
			"outputs": [],
			"payable": false,
			"stateMutability": "nonpayable",
			"type": "function"
		},
		{
			"constant": true,
			"inputs": [
				{
					"internalType": "address",
					"name": "",
					"type": "address"
				},
				{
					"internalType": "uint256",
					"name": "",
					"type": "uint256"
				},
				{
					"internalType": "uint256",
					"name": "",
					"type": "uint256"
				}
			],
			"name": "vestingSchedules",
			"outputs": [
				{
					"internalType": "uint256",
					"name": "",
					"type": "uint256"
				}
			],
			"payable": false,
			"stateMutability": "view",
			"type": "function"
		}
	],
	"evm": {
		"bytecode": {
			"linkReferences": {},
			"object": "60806040523480156200001c5760008062000019620001ac565b50505b5060405162001e2838038062001e28833981810160405260408110156200004d576000806200004a620001ac565b50505b810190808051929190602001805192506249d40091508390506001600160a01b038116620000cc5760405162461bcd60e51b815260206004820152601960248201527f4f776e657220616464726573732063616e6e6f74206265203000000000000000604482015260640160405180910390620000c9620001ac565b50505b806000600181620000dc62000219565b816001600160a01b0302191690836001600160a01b0316021790620001006200027b565b5050507fb532073b38c83145e3e5135377a08bf9aab55bc0fd7c1179cd4fb995d2a5159c6000826040516001600160a01b039283168152911660208201526040908101905180910390a150805a62000157620002ca565b01806002620001656200027b565b5050505080600360006101000a816200017d62000219565b816001600160a01b0302191690836001600160a01b0316021790620001a16200027b565b505050505062000311565b632a2a7adb598160e01b8152600481016020815285602082015260005b86811015620001e6578086015182820160400152602001620001c9565b506020828760640184336000905af158600e01573d6000803e3d6000fd5b3d6001141558600a015760016000f35b505050565b6303daa959598160e01b8152836004820152602081602483336000905af158600e01573d6000803e3d6000fd5b3d6001141558600a015760016000f35b8051935060005b604081101562000276576000828201526020016200025d565b505050565b6322bd64c0598160e01b8152836004820152846024820152600081604483336000905af158600e01573d6000803e3d6000fd5b3d6001141558600a015760016000f35b6000815260206200025d565b63bdbf8c36598160e01b8152602081600483336000905af158600e01573d6000803e3d6000fd5b3d6001141558600a015760016000f35b805160008252935060206200025d565b611b0780620003216000396000f3fe608060405234801561001957600080610016611568565b50505b50600436106101975760003560e01c806370a08231116100e75780639b217f90116100a0578063d0cc82e31161007a578063d0cc82e3146105b8578063da7bd3e9146105c0578063ee1d036c146105f5578063fec9f9da1461062a57610197565b80639b217f901461046a578063a15d59ce1461049f578063bb2a7d0c146104a757610197565b806370a08231146103ec578063759b52251461041b57806379ba5097146104235780638ad587771461042b5780638da5cb5b1461043357806397f465271461043b57610197565b80632f5bb6611161015457806346ba2d901161012e57806346ba2d901461038957806353a47bb71461039157806363667eb7146103b55780636b3905c4146103bd57610197565b80632f5bb661146102df578063458efde31461034657806345e5441f1461034e57610197565b8063135c0701146101a55780631627540c146101d657806319e740c0146102055780631bb47b4414610246578063204b676a14610281578063227d517a146102b0575b6000806101a2611568565b50505b6101d4600480360360208110156101c4576000806101c1611568565b50505b50356001600160a01b0316610659565b005b6101d4600480360360208110156101f5576000806101f2611568565b50505b50356001600160a01b031661074c565b6102346004803603602081101561022457600080610221611568565b50505b50356001600160a01b03166107c6565b60405190815260200160405180910390f35b6101d46004803603606081101561026557600080610262611568565b50505b506001600160a01b038135169060208101359060400135610808565b610234600480360360208110156102a05760008061029d611568565b50505b50356001600160a01b0316610c91565b610234600480360360208110156102cf576000806102cc611568565b50505b50356001600160a01b0316610cb9565b61030e600480360360208110156102fe576000806102fb611568565b50505b50356001600160a01b0316610cd4565b6040518082604080838360005b8381101561033357808201518382015260200161031b565b5050505090500191505060405180910390f35b6101d4610d22565b6102346004803603606081101561036d5760008061036a611568565b50505b506001600160a01b038135169060208101359060400135610fe6565b61023461102e565b610399611038565b6040516001600160a01b03909116815260200160405180910390f35b610234611057565b610234600480360360208110156103dc576000806103d9611568565b50505b50356001600160a01b031661105c565b6102346004803603602081101561040b57600080610408611568565b50505b50356001600160a01b0316611075565b61039961109b565b6101d46110a7565b610234611225565b61039961122a565b6102346004803603602081101561045a57600080610457611568565b50505b50356001600160a01b0316611235565b6102346004803603604081101561048957600080610486611568565b50505b506001600160a01b038135169060200135611247565b610234611262565b6101d4600480360360608110156104c6576000806104c3611568565b50505b6001600160a01b0382351691908101906040810160208201356401000000008111156104fa576000806104f7611568565b50505b82018360208201111561051557600080610512611568565b50505b803590602001918460208302840111640100000000831117156105405760008061053d611568565b50505b91939092909160208101903564010000000081111561056757600080610564611568565b50505b8201836020820111156105825760008061057f611568565b50505b803590602001918460208302840111640100000000831117156105ad576000806105aa611568565b50505b50909250905061126c565b61023461130e565b61030e600480360360408110156105df576000806105dc611568565b50505b506001600160a01b038135169060200135611313565b6102346004803603604081101561061457600080610611611568565b50505b506001600160a01b038135169060200135611393565b6101d46004803603602081101561064957600080610646611568565b50505b50356001600160a01b03166113a6565b610661611421565b600261066b6115d3565b5a61067461162e565b106106b95760405162461bcd60e51b8152600401808060200182810382526029815260200180611ade60299139604001915050604051809103906106b6611568565b50505b6001600160a01b03811660009081526004602052604090206106dc906000611674565b6001600160a01b0381166000908152600560205261071690604090206107006115d3565b600661070a6115d3565b9063ffffffff61149b16565b8060066107216116a6565b5050506001600160a01b03811660009081526005602052604090206000906107476116a6565b505050565b610754611421565b80600180806107616115d3565b816001600160a01b0302191690836001600160a01b03160217906107836116a6565b5050507f906a1c6bd7e3091ea86693dd029a831c19049ce77f1dce2ce0bab1cacbabce22816040516001600160a01b03909116815260200160405180910390a150565b6000806107d283610c91565b905060005b818110156107ff576107e98482611247565b156107f75791506108039050565b6001016107d7565b5090505b919050565b610810611421565b600261081a6115d3565b5a61082361162e565b106108685760405162461bcd60e51b8152600401808060200182810382526029815260200180611ade6029913960400191505060405180910390610865611568565b50505b815a61087261162e565b106108cc5760405162461bcd60e51b815260206004820152601a60248201527f54696d65206d75737420626520696e20746865206675747572650000000000006044820152606401604051809103906108c9611568565b50505b806109265760405162461bcd60e51b815260206004820152601760248201527f5175616e746974792063616e6e6f74206265207a65726f000000000000000000604482015260640160405180910390610923611568565b50505b6109408160066109346115d3565b9063ffffffff61150016565b80600661094b6116a6565b505050600360009061095b6115d3565b906101000a90046001600160a01b03166001600160a01b03166370a082315a63996d79a5598160e01b8152602081600483336000905af158600e01573d6000803e3d6000fd5b3d6001141558600a015760016000f35b8051925060005b60408110156109cf576000828201526020016109b8565b5050506040516001600160e01b031960e084901b1681526001600160a01b0390911660048201526024016020604051808303818680610a0c6116f4565b158015610a2157600080610a1e611568565b50505b505a610a2b611740565b5050505050158015610a4a573d6000803e3d6000610a47611568565b50505b505050506040513d6020811015610a6957600080610a66611568565b50505b810190808051925060069150610a7f90506115d3565b1115610ac55760405162461bcd60e51b8152600401808060200182810382526047815260200180611a686047913960600191505060405180910390610ac2611568565b50505b6001600160a01b038316600090815260046020526040812080610ae66115d3565b9150506014811115610b475760405162461bcd60e51b815260206004820152601c60248201527f56657374696e67207363686564756c6520697320746f6f206c6f6e6700000000604482015260640160405180910390610b44611568565b50505b80610b78576001600160a01b038416600090815260056020528290604090208190610b706116a6565b505050610c1f565b82610b8e856001610b8888610c91565b03611247565b10610bd35760405162461bcd60e51b8152600401808060200182810382526037815260200180611a316037913960400191505060405180910390610bd0611568565b50505b6001600160a01b03841660009081526005602052610bf9908390604090206109346115d3565b6001600160a01b03851660009081526005602052604090208190610c1b6116a6565b5050505b6001600160a01b03841660009081526004602052604090206040518060400160405280858152602001848152509080600181610c596115d3565b018082610c646116a6565b505060009283529160001983019150602090209192610c8992600292830201916117f9565b505050505050565b6001600160a01b038116600090815260046020526040812080610cb26115d3565b9392505050565b60056020528060005260406000209050610cd16115d3565b81565b610cdc611840565b6000610ce7836107c6565b9050610cf283610c91565b811415610d18576040518060400160405280600081526020016000815250915050610803565b610cb28382611313565b6000610d355a610d3061185b565b610c91565b90506000805b82811015610e19576000610d575a610d5161185b565b83611247565b90505a610d6261162e565b811115610d6f5750610e19565b6000610d835a610d7d61185b565b84611393565b90508015610e0f57604051604080820190526000808252602082018190526004905a610dad61185b565b6001600160a01b03166001600160a01b031681526020019081526020016000208481610dd76115d3565b8110610ddf57fe5b9060005260206000209060020201906002610dfb9291906118a1565b50610e0c848263ffffffff61150016565b93505b5050600101610d3b565b508015610fe257610e2e81600661070a6115d3565b806006610e396116a6565b505050610e7581600560005a610e4d61185b565b6001600160a01b03166001600160a01b0316815260200190815260200160002061070a6115d3565b600560005a610e8261185b565b6001600160a01b03166001600160a01b031681526020019081526020016000208190610eac6116a6565b5050506003600090610ebc6115d3565b906101000a90046001600160a01b03166001600160a01b031663a9059cbb5a610ee361185b565b836040516001600160e01b031960e085901b1681526001600160a01b039092166004830152602482015260440160206040518083038160008780610f256116f4565b158015610f3a57600080610f37611568565b50505b505a610f446118db565b505050505050158015610f64573d6000803e3d6000610f61611568565b50505b505050506040513d6020811015610f8357600080610f80611568565b50505b810190808051505050505a610f9661185b565b6001600160a01b03167ffbeff59d2bfda0d79ea8a29f8c57c66d48c7a13eabbdb90908d9115ec41c9dc65a610fc961162e565b8360405191825260208201526040908101905180910390a25b5050565b60046020528260005260406000208281610ffe6115d3565b811061100657fe5b9060005260206000209060020201816002811061101f57fe5b019250610cd191506115d39050565b6002610cd16115d3565b600060016110446115d3565b906101000a90046001600160a01b031681565b600081565b600061106782610cd4565b60005b602002015192915050565b6001600160a01b03811660009081526005602052604081206110956115d3565b92915050565b600060036110446115d3565b600060016110b36115d3565b906101000a90046001600160a01b03166001600160a01b03165a6110d561185b565b6001600160a01b0316146111235760405162461bcd60e51b81526004018080602001828103825260358152602001806119fc6035913960400191505060405180910390611120611568565b50505b7fb532073b38c83145e3e5135377a08bf9aab55bc0fd7c1179cd4fb995d2a5159c60008061114f6115d3565b906101000a90046001600160a01b0316600160009061116c6115d3565b906101000a90046001600160a01b03166040516001600160a01b039283168152911660208201526040908101905180910390a1600060016111ab6115d3565b906101000a90046001600160a01b03166000806101000a816111cb6115d3565b816001600160a01b0302191690836001600160a01b03160217906111ed6116a6565b5050506000600160006101000a816112036115d3565b816001600160a01b0302191690836001600160a01b03160217906107476116a6565b600181565b6000806110446115d3565b600061124082610cd4565b600161106a565b60006112538383611313565b60005b60200201519392505050565b6006610cd16115d3565b611274611421565b600261127e6115d3565b5a61128761162e565b106112cc5760405162461bcd60e51b8152600401808060200182810382526029815260200180611ade60299139604001915050604051809103906112c9611568565b50505b60005b83811015610c8957611306868686848181106112e757fe5b905060200201358585858181106112fa57fe5b90506020020135610808565b6001016112cf565b601481565b61131b611840565b6001600160a01b0383166000908152600460205260409020828161133d6115d3565b811061134557fe5b90600052602060002060029182020190604080519081016040529190828260026020028201915b816113756115d3565b8152602001906001019080831161136c575050505050905092915050565b600061139f8383611313565b6001611256565b6113ae611421565b8060036001816113bc6115d3565b816001600160a01b0302191690836001600160a01b03160217906113de6116a6565b5050507f46e9c68bd7831071bdd478f1ae4c4a52463961a9d620383a0a121dbfc0e0f06d816040516001600160a01b03909116815260200160405180910390a150565b60008061142c6115d3565b906101000a90046001600160a01b03166001600160a01b03165a61144e61185b565b6001600160a01b0316146114995760405162461bcd60e51b815260040180806020018281038252602f815260200180611aaf602f913960400191505060405180910390610fe2611568565b565b6000828211156114fa5760405162461bcd60e51b815260206004820152601e60248201527f536166654d6174683a207375627472616374696f6e206f766572666c6f7700006044820152606401604051809103906114f7611568565b50505b50900390565b600082820183811015610cb25760405162461bcd60e51b815260206004820152601b60248201527f536166654d6174683a206164646974696f6e206f766572666c6f77000000000060448201526064016040518091039061155f611568565b50509392505050565b632a2a7adb598160e01b8152600481016020815285602082015260005b868110156115a0578086015182820160400152602001611585565b506020828760640184336000905af158600e01573d6000803e3d6000fd5b3d6001141558600a015760016000f35b505050565b6303daa959598160e01b8152836004820152602081602483336000905af158600e01573d6000803e3d6000fd5b3d6001141558600a015760016000f35b8051935060005b604081101561074757600082820152602001611617565b63bdbf8c36598160e01b8152602081600483336000905af158600e01573d6000803e3d6000fd5b3d6001141558600a015760016000f35b80516000825293506020611617565b508061167e6115d3565b6000826116896116a6565b50506002029060005260206000206116a391810190611994565b50565b6322bd64c0598160e01b8152836004820152846024820152600081604483336000905af158600e01573d6000803e3d6000fd5b3d6001141558600a015760016000f35b600081526020611617565b638435035b598160e01b8152836004820152602081602483336000905af158600e01573d6000803e3d6000fd5b3d6001141558600a015760016000f35b80516000825293506020611617565b638540661f598160e01b8152836004820152846024820152606060448201528660648201526084810160005b8881101561178457808801518282015260200161176c565b50876101040182016060838a6101040185336000905af158600e01573d6000803e3d6000fd5b3d6001141558600a015760016000f35b825160408401513d6000863e8c8c82606088013350600060045af15059855b818110156117ed57600081526020016117d9565b50919c50505050505050565b8260028101928215611830579160200282015b828111156118305782518261181f6116a6565b50509160200191906001019061180c565b5061183c9291506119ba565b5090565b60405160408082018152600290829080388339509192915050565b6373509064598160e01b8152602081600483336000905af158600e01573d6000803e3d6000fd5b3d6001141558600a015760016000f35b80516000825293506020611617565b8260028101928215611830579160200282015b8281111561183057825160ff16826118ca6116a6565b5050916020019190600101906118b4565b6385979f76598160e01b8152836004820152846024820152606060448201528760648201526084810160005b8981101561191f578089015182820152602001611907565b50886101040182016060838b6101040185336000905af158600e01573d6000803e3d6000fd5b3d6001141558600a015760016000f35b825160408401513d6000863e8d8d82606088013350600060045af15059855b818110156119885760008152602001611974565b50919d50505050505050565b6119b791905b8082111561183c5760006119ae82826119df565b5060020161199a565b90565b6119b791905b8082111561183c57600080826119d46116a6565b5050506001016119c0565b506000816119eb6116a6565b5050600101600090610fe26116a656fe596f75206d757374206265206e6f6d696e61746564206265666f726520796f752063616e20616363657074206f776e65727368697043616e6e6f7420616464206e65772076657374656420656e7472696573206561726c696572207468616e20746865206c617374206f6e654d75737420626520656e6f7567682062616c616e636520696e2074686520636f6e747261637420746f2070726f7669646520666f72207468652076657374696e6720656e7472794f6e6c792074686520636f6e7472616374206f776e6572206d617920706572666f726d207468697320616374696f6e43616e206f6e6c7920706572666f726d207468697320616374696f6e20647572696e67207365747570",
			"opcodes": "PUSH1 0x80 PUSH1 0x40 MSTORE CALLVALUE DUP1 ISZERO PUSH3 0x1C JUMPI PUSH1 0x0 DUP1 PUSH3 0x19 PUSH3 0x1AC JUMP JUMPDEST POP POP JUMPDEST POP PUSH1 0x40 MLOAD PUSH3 0x1E28 CODESIZE SUB DUP1 PUSH3 0x1E28 DUP4 CODECOPY DUP2 DUP2 ADD PUSH1 0x40 MSTORE PUSH1 0x40 DUP2 LT ISZERO PUSH3 0x4D JUMPI PUSH1 0x0 DUP1 PUSH3 0x4A PUSH3 0x1AC JUMP JUMPDEST POP POP JUMPDEST DUP2 ADD SWAP1 DUP1 DUP1 MLOAD SWAP3 SWAP2 SWAP1 PUSH1 0x20 ADD DUP1 MLOAD SWAP3 POP PUSH3 0x49D400 SWAP2 POP DUP4 SWAP1 POP PUSH1 0x1 PUSH1 0x1 PUSH1 0xA0 SHL SUB DUP2 AND PUSH3 0xCC JUMPI PUSH1 0x40 MLOAD PUSH3 0x461BCD PUSH1 0xE5 SHL DUP2 MSTORE PUSH1 0x20 PUSH1 0x4 DUP3 ADD MSTORE PUSH1 0x19 PUSH1 0x24 DUP3 ADD MSTORE PUSH32 0x4F776E657220616464726573732063616E6E6F74206265203000000000000000 PUSH1 0x44 DUP3 ADD MSTORE PUSH1 0x64 ADD PUSH1 0x40 MLOAD DUP1 SWAP2 SUB SWAP1 PUSH3 0xC9 PUSH3 0x1AC JUMP JUMPDEST POP POP JUMPDEST DUP1 PUSH1 0x0 PUSH1 0x1 DUP2 PUSH3 0xDC PUSH3 0x219 JUMP JUMPDEST DUP2 PUSH1 0x1 PUSH1 0x1 PUSH1 0xA0 SHL SUB MUL NOT AND SWAP1 DUP4 PUSH1 0x1 PUSH1 0x1 PUSH1 0xA0 SHL SUB AND MUL OR SWAP1 PUSH3 0x100 PUSH3 0x27B JUMP JUMPDEST POP POP POP PUSH32 0xB532073B38C83145E3E5135377A08BF9AAB55BC0FD7C1179CD4FB995D2A5159C PUSH1 0x0 DUP3 PUSH1 0x40 MLOAD PUSH1 0x1 PUSH1 0x1 PUSH1 0xA0 SHL SUB SWAP3 DUP4 AND DUP2 MSTORE SWAP2 AND PUSH1 0x20 DUP3 ADD MSTORE PUSH1 0x40 SWAP1 DUP2 ADD SWAP1 MLOAD DUP1 SWAP2 SUB SWAP1 LOG1 POP DUP1 GAS PUSH3 0x157 PUSH3 0x2CA JUMP JUMPDEST ADD DUP1 PUSH1 0x2 PUSH3 0x165 PUSH3 0x27B JUMP JUMPDEST POP POP POP POP DUP1 PUSH1 0x3 PUSH1 0x0 PUSH2 0x100 EXP DUP2 PUSH3 0x17D PUSH3 0x219 JUMP JUMPDEST DUP2 PUSH1 0x1 PUSH1 0x1 PUSH1 0xA0 SHL SUB MUL NOT AND SWAP1 DUP4 PUSH1 0x1 PUSH1 0x1 PUSH1 0xA0 SHL SUB AND MUL OR SWAP1 PUSH3 0x1A1 PUSH3 0x27B JUMP JUMPDEST POP POP POP POP POP PUSH3 0x311 JUMP JUMPDEST PUSH4 0x2A2A7ADB MSIZE DUP2 PUSH1 0xE0 SHL DUP2 MSTORE PUSH1 0x4 DUP2 ADD PUSH1 0x20 DUP2 MSTORE DUP6 PUSH1 0x20 DUP3 ADD MSTORE PUSH1 0x0 JUMPDEST DUP7 DUP2 LT ISZERO PUSH3 0x1E6 JUMPI DUP1 DUP7 ADD MLOAD DUP3 DUP3 ADD PUSH1 0x40 ADD MSTORE PUSH1 0x20 ADD PUSH3 0x1C9 JUMP JUMPDEST POP PUSH1 0x20 DUP3 DUP8 PUSH1 0x64 ADD DUP5 CALLER PUSH1 0x0 SWAP1 GAS CALL PC PUSH1 0xE ADD JUMPI RETURNDATASIZE PUSH1 0x0 DUP1 RETURNDATACOPY RETURNDATASIZE PUSH1 0x0 REVERT JUMPDEST RETURNDATASIZE PUSH1 0x1 EQ ISZERO PC PUSH1 0xA ADD JUMPI PUSH1 0x1 PUSH1 0x0 RETURN JUMPDEST POP POP POP JUMP JUMPDEST PUSH4 0x3DAA959 MSIZE DUP2 PUSH1 0xE0 SHL DUP2 MSTORE DUP4 PUSH1 0x4 DUP3 ADD MSTORE PUSH1 0x20 DUP2 PUSH1 0x24 DUP4 CALLER PUSH1 0x0 SWAP1 GAS CALL PC PUSH1 0xE ADD JUMPI RETURNDATASIZE PUSH1 0x0 DUP1 RETURNDATACOPY RETURNDATASIZE PUSH1 0x0 REVERT JUMPDEST RETURNDATASIZE PUSH1 0x1 EQ ISZERO PC PUSH1 0xA ADD JUMPI PUSH1 0x1 PUSH1 0x0 RETURN JUMPDEST DUP1 MLOAD SWAP4 POP PUSH1 0x0 JUMPDEST PUSH1 0x40 DUP2 LT ISZERO PUSH3 0x276 JUMPI PUSH1 0x0 DUP3 DUP3 ADD MSTORE PUSH1 0x20 ADD PUSH3 0x25D JUMP JUMPDEST POP POP POP JUMP JUMPDEST PUSH4 0x22BD64C0 MSIZE DUP2 PUSH1 0xE0 SHL DUP2 MSTORE DUP4 PUSH1 0x4 DUP3 ADD MSTORE DUP5 PUSH1 0x24 DUP3 ADD MSTORE PUSH1 0x0 DUP2 PUSH1 0x44 DUP4 CALLER PUSH1 0x0 SWAP1 GAS CALL PC PUSH1 0xE ADD JUMPI RETURNDATASIZE PUSH1 0x0 DUP1 RETURNDATACOPY RETURNDATASIZE PUSH1 0x0 REVERT JUMPDEST RETURNDATASIZE PUSH1 0x1 EQ ISZERO PC PUSH1 0xA ADD JUMPI PUSH1 0x1 PUSH1 0x0 RETURN JUMPDEST PUSH1 0x0 DUP2 MSTORE PUSH1 0x20 PUSH3 0x25D JUMP JUMPDEST PUSH4 0xBDBF8C36 MSIZE DUP2 PUSH1 0xE0 SHL DUP2 MSTORE PUSH1 0x20 DUP2 PUSH1 0x4 DUP4 CALLER PUSH1 0x0 SWAP1 GAS CALL PC PUSH1 0xE ADD JUMPI RETURNDATASIZE PUSH1 0x0 DUP1 RETURNDATACOPY RETURNDATASIZE PUSH1 0x0 REVERT JUMPDEST RETURNDATASIZE PUSH1 0x1 EQ ISZERO PC PUSH1 0xA ADD JUMPI PUSH1 0x1 PUSH1 0x0 RETURN JUMPDEST DUP1 MLOAD PUSH1 0x0 DUP3 MSTORE SWAP4 POP PUSH1 0x20 PUSH3 0x25D JUMP JUMPDEST PUSH2 0x1B07 DUP1 PUSH3 0x321 PUSH1 0x0 CODECOPY PUSH1 0x0 RETURN INVALID PUSH1 0x80 PUSH1 0x40 MSTORE CALLVALUE DUP1 ISZERO PUSH2 0x19 JUMPI PUSH1 0x0 DUP1 PUSH2 0x16 PUSH2 0x1568 JUMP JUMPDEST POP POP JUMPDEST POP PUSH1 0x4 CALLDATASIZE LT PUSH2 0x197 JUMPI PUSH1 0x0 CALLDATALOAD PUSH1 0xE0 SHR DUP1 PUSH4 0x70A08231 GT PUSH2 0xE7 JUMPI DUP1 PUSH4 0x9B217F90 GT PUSH2 0xA0 JUMPI DUP1 PUSH4 0xD0CC82E3 GT PUSH2 0x7A JUMPI DUP1 PUSH4 0xD0CC82E3 EQ PUSH2 0x5B8 JUMPI DUP1 PUSH4 0xDA7BD3E9 EQ PUSH2 0x5C0 JUMPI DUP1 PUSH4 0xEE1D036C EQ PUSH2 0x5F5 JUMPI DUP1 PUSH4 0xFEC9F9DA EQ PUSH2 0x62A JUMPI PUSH2 0x197 JUMP JUMPDEST DUP1 PUSH4 0x9B217F90 EQ PUSH2 0x46A JUMPI DUP1 PUSH4 0xA15D59CE EQ PUSH2 0x49F JUMPI DUP1 PUSH4 0xBB2A7D0C EQ PUSH2 0x4A7 JUMPI PUSH2 0x197 JUMP JUMPDEST DUP1 PUSH4 0x70A08231 EQ PUSH2 0x3EC JUMPI DUP1 PUSH4 0x759B5225 EQ PUSH2 0x41B JUMPI DUP1 PUSH4 0x79BA5097 EQ PUSH2 0x423 JUMPI DUP1 PUSH4 0x8AD58777 EQ PUSH2 0x42B JUMPI DUP1 PUSH4 0x8DA5CB5B EQ PUSH2 0x433 JUMPI DUP1 PUSH4 0x97F46527 EQ PUSH2 0x43B JUMPI PUSH2 0x197 JUMP JUMPDEST DUP1 PUSH4 0x2F5BB661 GT PUSH2 0x154 JUMPI DUP1 PUSH4 0x46BA2D90 GT PUSH2 0x12E JUMPI DUP1 PUSH4 0x46BA2D90 EQ PUSH2 0x389 JUMPI DUP1 PUSH4 0x53A47BB7 EQ PUSH2 0x391 JUMPI DUP1 PUSH4 0x63667EB7 EQ PUSH2 0x3B5 JUMPI DUP1 PUSH4 0x6B3905C4 EQ PUSH2 0x3BD JUMPI PUSH2 0x197 JUMP JUMPDEST DUP1 PUSH4 0x2F5BB661 EQ PUSH2 0x2DF JUMPI DUP1 PUSH4 0x458EFDE3 EQ PUSH2 0x346 JUMPI DUP1 PUSH4 0x45E5441F EQ PUSH2 0x34E JUMPI PUSH2 0x197 JUMP JUMPDEST DUP1 PUSH4 0x135C0701 EQ PUSH2 0x1A5 JUMPI DUP1 PUSH4 0x1627540C EQ PUSH2 0x1D6 JUMPI DUP1 PUSH4 0x19E740C0 EQ PUSH2 0x205 JUMPI DUP1 PUSH4 0x1BB47B44 EQ PUSH2 0x246 JUMPI DUP1 PUSH4 0x204B676A EQ PUSH2 0x281 JUMPI DUP1 PUSH4 0x227D517A EQ PUSH2 0x2B0 JUMPI JUMPDEST PUSH1 0x0 DUP1 PUSH2 0x1A2 PUSH2 0x1568 JUMP JUMPDEST POP POP JUMPDEST PUSH2 0x1D4 PUSH1 0x4 DUP1 CALLDATASIZE SUB PUSH1 0x20 DUP2 LT ISZERO PUSH2 0x1C4 JUMPI PUSH1 0x0 DUP1 PUSH2 0x1C1 PUSH2 0x1568 JUMP JUMPDEST POP POP JUMPDEST POP CALLDATALOAD PUSH1 0x1 PUSH1 0x1 PUSH1 0xA0 SHL SUB AND PUSH2 0x659 JUMP JUMPDEST STOP JUMPDEST PUSH2 0x1D4 PUSH1 0x4 DUP1 CALLDATASIZE SUB PUSH1 0x20 DUP2 LT ISZERO PUSH2 0x1F5 JUMPI PUSH1 0x0 DUP1 PUSH2 0x1F2 PUSH2 0x1568 JUMP JUMPDEST POP POP JUMPDEST POP CALLDATALOAD PUSH1 0x1 PUSH1 0x1 PUSH1 0xA0 SHL SUB AND PUSH2 0x74C JUMP JUMPDEST PUSH2 0x234 PUSH1 0x4 DUP1 CALLDATASIZE SUB PUSH1 0x20 DUP2 LT ISZERO PUSH2 0x224 JUMPI PUSH1 0x0 DUP1 PUSH2 0x221 PUSH2 0x1568 JUMP JUMPDEST POP POP JUMPDEST POP CALLDATALOAD PUSH1 0x1 PUSH1 0x1 PUSH1 0xA0 SHL SUB AND PUSH2 0x7C6 JUMP JUMPDEST PUSH1 0x40 MLOAD SWAP1 DUP2 MSTORE PUSH1 0x20 ADD PUSH1 0x40 MLOAD DUP1 SWAP2 SUB SWAP1 RETURN JUMPDEST PUSH2 0x1D4 PUSH1 0x4 DUP1 CALLDATASIZE SUB PUSH1 0x60 DUP2 LT ISZERO PUSH2 0x265 JUMPI PUSH1 0x0 DUP1 PUSH2 0x262 PUSH2 0x1568 JUMP JUMPDEST POP POP JUMPDEST POP PUSH1 0x1 PUSH1 0x1 PUSH1 0xA0 SHL SUB DUP2 CALLDATALOAD AND SWAP1 PUSH1 0x20 DUP2 ADD CALLDATALOAD SWAP1 PUSH1 0x40 ADD CALLDATALOAD PUSH2 0x808 JUMP JUMPDEST PUSH2 0x234 PUSH1 0x4 DUP1 CALLDATASIZE SUB PUSH1 0x20 DUP2 LT ISZERO PUSH2 0x2A0 JUMPI PUSH1 0x0 DUP1 PUSH2 0x29D PUSH2 0x1568 JUMP JUMPDEST POP POP JUMPDEST POP CALLDATALOAD PUSH1 0x1 PUSH1 0x1 PUSH1 0xA0 SHL SUB AND PUSH2 0xC91 JUMP JUMPDEST PUSH2 0x234 PUSH1 0x4 DUP1 CALLDATASIZE SUB PUSH1 0x20 DUP2 LT ISZERO PUSH2 0x2CF JUMPI PUSH1 0x0 DUP1 PUSH2 0x2CC PUSH2 0x1568 JUMP JUMPDEST POP POP JUMPDEST POP CALLDATALOAD PUSH1 0x1 PUSH1 0x1 PUSH1 0xA0 SHL SUB AND PUSH2 0xCB9 JUMP JUMPDEST PUSH2 0x30E PUSH1 0x4 DUP1 CALLDATASIZE SUB PUSH1 0x20 DUP2 LT ISZERO PUSH2 0x2FE JUMPI PUSH1 0x0 DUP1 PUSH2 0x2FB PUSH2 0x1568 JUMP JUMPDEST POP POP JUMPDEST POP CALLDATALOAD PUSH1 0x1 PUSH1 0x1 PUSH1 0xA0 SHL SUB AND PUSH2 0xCD4 JUMP JUMPDEST PUSH1 0x40 MLOAD DUP1 DUP3 PUSH1 0x40 DUP1 DUP4 DUP4 PUSH1 0x0 JUMPDEST DUP4 DUP2 LT ISZERO PUSH2 0x333 JUMPI DUP1 DUP3 ADD MLOAD DUP4 DUP3 ADD MSTORE PUSH1 0x20 ADD PUSH2 0x31B JUMP JUMPDEST POP POP POP POP SWAP1 POP ADD SWAP2 POP POP PUSH1 0x40 MLOAD DUP1 SWAP2 SUB SWAP1 RETURN JUMPDEST PUSH2 0x1D4 PUSH2 0xD22 JUMP JUMPDEST PUSH2 0x234 PUSH1 0x4 DUP1 CALLDATASIZE SUB PUSH1 0x60 DUP2 LT ISZERO PUSH2 0x36D JUMPI PUSH1 0x0 DUP1 PUSH2 0x36A PUSH2 0x1568 JUMP JUMPDEST POP POP JUMPDEST POP PUSH1 0x1 PUSH1 0x1 PUSH1 0xA0 SHL SUB DUP2 CALLDATALOAD AND SWAP1 PUSH1 0x20 DUP2 ADD CALLDATALOAD SWAP1 PUSH1 0x40 ADD CALLDATALOAD PUSH2 0xFE6 JUMP JUMPDEST PUSH2 0x234 PUSH2 0x102E JUMP JUMPDEST PUSH2 0x399 PUSH2 0x1038 JUMP JUMPDEST PUSH1 0x40 MLOAD PUSH1 0x1 PUSH1 0x1 PUSH1 0xA0 SHL SUB SWAP1 SWAP2 AND DUP2 MSTORE PUSH1 0x20 ADD PUSH1 0x40 MLOAD DUP1 SWAP2 SUB SWAP1 RETURN JUMPDEST PUSH2 0x234 PUSH2 0x1057 JUMP JUMPDEST PUSH2 0x234 PUSH1 0x4 DUP1 CALLDATASIZE SUB PUSH1 0x20 DUP2 LT ISZERO PUSH2 0x3DC JUMPI PUSH1 0x0 DUP1 PUSH2 0x3D9 PUSH2 0x1568 JUMP JUMPDEST POP POP JUMPDEST POP CALLDATALOAD PUSH1 0x1 PUSH1 0x1 PUSH1 0xA0 SHL SUB AND PUSH2 0x105C JUMP JUMPDEST PUSH2 0x234 PUSH1 0x4 DUP1 CALLDATASIZE SUB PUSH1 0x20 DUP2 LT ISZERO PUSH2 0x40B JUMPI PUSH1 0x0 DUP1 PUSH2 0x408 PUSH2 0x1568 JUMP JUMPDEST POP POP JUMPDEST POP CALLDATALOAD PUSH1 0x1 PUSH1 0x1 PUSH1 0xA0 SHL SUB AND PUSH2 0x1075 JUMP JUMPDEST PUSH2 0x399 PUSH2 0x109B JUMP JUMPDEST PUSH2 0x1D4 PUSH2 0x10A7 JUMP JUMPDEST PUSH2 0x234 PUSH2 0x1225 JUMP JUMPDEST PUSH2 0x399 PUSH2 0x122A JUMP JUMPDEST PUSH2 0x234 PUSH1 0x4 DUP1 CALLDATASIZE SUB PUSH1 0x20 DUP2 LT ISZERO PUSH2 0x45A JUMPI PUSH1 0x0 DUP1 PUSH2 0x457 PUSH2 0x1568 JUMP JUMPDEST POP POP JUMPDEST POP CALLDATALOAD PUSH1 0x1 PUSH1 0x1 PUSH1 0xA0 SHL SUB AND PUSH2 0x1235 JUMP JUMPDEST PUSH2 0x234 PUSH1 0x4 DUP1 CALLDATASIZE SUB PUSH1 0x40 DUP2 LT ISZERO PUSH2 0x489 JUMPI PUSH1 0x0 DUP1 PUSH2 0x486 PUSH2 0x1568 JUMP JUMPDEST POP POP JUMPDEST POP PUSH1 0x1 PUSH1 0x1 PUSH1 0xA0 SHL SUB DUP2 CALLDATALOAD AND SWAP1 PUSH1 0x20 ADD CALLDATALOAD PUSH2 0x1247 JUMP JUMPDEST PUSH2 0x234 PUSH2 0x1262 JUMP JUMPDEST PUSH2 0x1D4 PUSH1 0x4 DUP1 CALLDATASIZE SUB PUSH1 0x60 DUP2 LT ISZERO PUSH2 0x4C6 JUMPI PUSH1 0x0 DUP1 PUSH2 0x4C3 PUSH2 0x1568 JUMP JUMPDEST POP POP JUMPDEST PUSH1 0x1 PUSH1 0x1 PUSH1 0xA0 SHL SUB DUP3 CALLDATALOAD AND SWAP2 SWAP1 DUP2 ADD SWAP1 PUSH1 0x40 DUP2 ADD PUSH1 0x20 DUP3 ADD CALLDATALOAD PUSH5 0x100000000 DUP2 GT ISZERO PUSH2 0x4FA JUMPI PUSH1 0x0 DUP1 PUSH2 0x4F7 PUSH2 0x1568 JUMP JUMPDEST POP POP JUMPDEST DUP3 ADD DUP4 PUSH1 0x20 DUP3 ADD GT ISZERO PUSH2 0x515 JUMPI PUSH1 0x0 DUP1 PUSH2 0x512 PUSH2 0x1568 JUMP JUMPDEST POP POP JUMPDEST DUP1 CALLDATALOAD SWAP1 PUSH1 0x20 ADD SWAP2 DUP5 PUSH1 0x20 DUP4 MUL DUP5 ADD GT PUSH5 0x100000000 DUP4 GT OR ISZERO PUSH2 0x540 JUMPI PUSH1 0x0 DUP1 PUSH2 0x53D PUSH2 0x1568 JUMP JUMPDEST POP POP JUMPDEST SWAP2 SWAP4 SWAP1 SWAP3 SWAP1 SWAP2 PUSH1 0x20 DUP2 ADD SWAP1 CALLDATALOAD PUSH5 0x100000000 DUP2 GT ISZERO PUSH2 0x567 JUMPI PUSH1 0x0 DUP1 PUSH2 0x564 PUSH2 0x1568 JUMP JUMPDEST POP POP JUMPDEST DUP3 ADD DUP4 PUSH1 0x20 DUP3 ADD GT ISZERO PUSH2 0x582 JUMPI PUSH1 0x0 DUP1 PUSH2 0x57F PUSH2 0x1568 JUMP JUMPDEST POP POP JUMPDEST DUP1 CALLDATALOAD SWAP1 PUSH1 0x20 ADD SWAP2 DUP5 PUSH1 0x20 DUP4 MUL DUP5 ADD GT PUSH5 0x100000000 DUP4 GT OR ISZERO PUSH2 0x5AD JUMPI PUSH1 0x0 DUP1 PUSH2 0x5AA PUSH2 0x1568 JUMP JUMPDEST POP POP JUMPDEST POP SWAP1 SWAP3 POP SWAP1 POP PUSH2 0x126C JUMP JUMPDEST PUSH2 0x234 PUSH2 0x130E JUMP JUMPDEST PUSH2 0x30E PUSH1 0x4 DUP1 CALLDATASIZE SUB PUSH1 0x40 DUP2 LT ISZERO PUSH2 0x5DF JUMPI PUSH1 0x0 DUP1 PUSH2 0x5DC PUSH2 0x1568 JUMP JUMPDEST POP POP JUMPDEST POP PUSH1 0x1 PUSH1 0x1 PUSH1 0xA0 SHL SUB DUP2 CALLDATALOAD AND SWAP1 PUSH1 0x20 ADD CALLDATALOAD PUSH2 0x1313 JUMP JUMPDEST PUSH2 0x234 PUSH1 0x4 DUP1 CALLDATASIZE SUB PUSH1 0x40 DUP2 LT ISZERO PUSH2 0x614 JUMPI PUSH1 0x0 DUP1 PUSH2 0x611 PUSH2 0x1568 JUMP JUMPDEST POP POP JUMPDEST POP PUSH1 0x1 PUSH1 0x1 PUSH1 0xA0 SHL SUB DUP2 CALLDATALOAD AND SWAP1 PUSH1 0x20 ADD CALLDATALOAD PUSH2 0x1393 JUMP JUMPDEST PUSH2 0x1D4 PUSH1 0x4 DUP1 CALLDATASIZE SUB PUSH1 0x20 DUP2 LT ISZERO PUSH2 0x649 JUMPI PUSH1 0x0 DUP1 PUSH2 0x646 PUSH2 0x1568 JUMP JUMPDEST POP POP JUMPDEST POP CALLDATALOAD PUSH1 0x1 PUSH1 0x1 PUSH1 0xA0 SHL SUB AND PUSH2 0x13A6 JUMP JUMPDEST PUSH2 0x661 PUSH2 0x1421 JUMP JUMPDEST PUSH1 0x2 PUSH2 0x66B PUSH2 0x15D3 JUMP JUMPDEST GAS PUSH2 0x674 PUSH2 0x162E JUMP JUMPDEST LT PUSH2 0x6B9 JUMPI PUSH1 0x40 MLOAD PUSH3 0x461BCD PUSH1 0xE5 SHL DUP2 MSTORE PUSH1 0x4 ADD DUP1 DUP1 PUSH1 0x20 ADD DUP3 DUP2 SUB DUP3 MSTORE PUSH1 0x29 DUP2 MSTORE PUSH1 0x20 ADD DUP1 PUSH2 0x1ADE PUSH1 0x29 SWAP2 CODECOPY PUSH1 0x40 ADD SWAP2 POP POP PUSH1 0x40 MLOAD DUP1 SWAP2 SUB SWAP1 PUSH2 0x6B6 PUSH2 0x1568 JUMP JUMPDEST POP POP JUMPDEST PUSH1 0x1 PUSH1 0x1 PUSH1 0xA0 SHL SUB DUP2 AND PUSH1 0x0 SWAP1 DUP2 MSTORE PUSH1 0x4 PUSH1 0x20 MSTORE PUSH1 0x40 SWAP1 KECCAK256 PUSH2 0x6DC SWAP1 PUSH1 0x0 PUSH2 0x1674 JUMP JUMPDEST PUSH1 0x1 PUSH1 0x1 PUSH1 0xA0 SHL SUB DUP2 AND PUSH1 0x0 SWAP1 DUP2 MSTORE PUSH1 0x5 PUSH1 0x20 MSTORE PUSH2 0x716 SWAP1 PUSH1 0x40 SWAP1 KECCAK256 PUSH2 0x700 PUSH2 0x15D3 JUMP JUMPDEST PUSH1 0x6 PUSH2 0x70A PUSH2 0x15D3 JUMP JUMPDEST SWAP1 PUSH4 0xFFFFFFFF PUSH2 0x149B AND JUMP JUMPDEST DUP1 PUSH1 0x6 PUSH2 0x721 PUSH2 0x16A6 JUMP JUMPDEST POP POP POP PUSH1 0x1 PUSH1 0x1 PUSH1 0xA0 SHL SUB DUP2 AND PUSH1 0x0 SWAP1 DUP2 MSTORE PUSH1 0x5 PUSH1 0x20 MSTORE PUSH1 0x40 SWAP1 KECCAK256 PUSH1 0x0 SWAP1 PUSH2 0x747 PUSH2 0x16A6 JUMP JUMPDEST POP POP POP JUMP JUMPDEST PUSH2 0x754 PUSH2 0x1421 JUMP JUMPDEST DUP1 PUSH1 0x1 DUP1 DUP1 PUSH2 0x761 PUSH2 0x15D3 JUMP JUMPDEST DUP2 PUSH1 0x1 PUSH1 0x1 PUSH1 0xA0 SHL SUB MUL NOT AND SWAP1 DUP4 PUSH1 0x1 PUSH1 0x1 PUSH1 0xA0 SHL SUB AND MUL OR SWAP1 PUSH2 0x783 PUSH2 0x16A6 JUMP JUMPDEST POP POP POP PUSH32 0x906A1C6BD7E3091EA86693DD029A831C19049CE77F1DCE2CE0BAB1CACBABCE22 DUP2 PUSH1 0x40 MLOAD PUSH1 0x1 PUSH1 0x1 PUSH1 0xA0 SHL SUB SWAP1 SWAP2 AND DUP2 MSTORE PUSH1 0x20 ADD PUSH1 0x40 MLOAD DUP1 SWAP2 SUB SWAP1 LOG1 POP JUMP JUMPDEST PUSH1 0x0 DUP1 PUSH2 0x7D2 DUP4 PUSH2 0xC91 JUMP JUMPDEST SWAP1 POP PUSH1 0x0 JUMPDEST DUP2 DUP2 LT ISZERO PUSH2 0x7FF JUMPI PUSH2 0x7E9 DUP5 DUP3 PUSH2 0x1247 JUMP JUMPDEST ISZERO PUSH2 0x7F7 JUMPI SWAP2 POP PUSH2 0x803 SWAP1 POP JUMP JUMPDEST PUSH1 0x1 ADD PUSH2 0x7D7 JUMP JUMPDEST POP SWAP1 POP JUMPDEST SWAP2 SWAP1 POP JUMP JUMPDEST PUSH2 0x810 PUSH2 0x1421 JUMP JUMPDEST PUSH1 0x2 PUSH2 0x81A PUSH2 0x15D3 JUMP JUMPDEST GAS PUSH2 0x823 PUSH2 0x162E JUMP JUMPDEST LT PUSH2 0x868 JUMPI PUSH1 0x40 MLOAD PUSH3 0x461BCD PUSH1 0xE5 SHL DUP2 MSTORE PUSH1 0x4 ADD DUP1 DUP1 PUSH1 0x20 ADD DUP3 DUP2 SUB DUP3 MSTORE PUSH1 0x29 DUP2 MSTORE PUSH1 0x20 ADD DUP1 PUSH2 0x1ADE PUSH1 0x29 SWAP2 CODECOPY PUSH1 0x40 ADD SWAP2 POP POP PUSH1 0x40 MLOAD DUP1 SWAP2 SUB SWAP1 PUSH2 0x865 PUSH2 0x1568 JUMP JUMPDEST POP POP JUMPDEST DUP2 GAS PUSH2 0x872 PUSH2 0x162E JUMP JUMPDEST LT PUSH2 0x8CC JUMPI PUSH1 0x40 MLOAD PUSH3 0x461BCD PUSH1 0xE5 SHL DUP2 MSTORE PUSH1 0x20 PUSH1 0x4 DUP3 ADD MSTORE PUSH1 0x1A PUSH1 0x24 DUP3 ADD MSTORE PUSH32 0x54696D65206D75737420626520696E2074686520667574757265000000000000 PUSH1 0x44 DUP3 ADD MSTORE PUSH1 0x64 ADD PUSH1 0x40 MLOAD DUP1 SWAP2 SUB SWAP1 PUSH2 0x8C9 PUSH2 0x1568 JUMP JUMPDEST POP POP JUMPDEST DUP1 PUSH2 0x926 JUMPI PUSH1 0x40 MLOAD PUSH3 0x461BCD PUSH1 0xE5 SHL DUP2 MSTORE PUSH1 0x20 PUSH1 0x4 DUP3 ADD MSTORE PUSH1 0x17 PUSH1 0x24 DUP3 ADD MSTORE PUSH32 0x5175616E746974792063616E6E6F74206265207A65726F000000000000000000 PUSH1 0x44 DUP3 ADD MSTORE PUSH1 0x64 ADD PUSH1 0x40 MLOAD DUP1 SWAP2 SUB SWAP1 PUSH2 0x923 PUSH2 0x1568 JUMP JUMPDEST POP POP JUMPDEST PUSH2 0x940 DUP2 PUSH1 0x6 PUSH2 0x934 PUSH2 0x15D3 JUMP JUMPDEST SWAP1 PUSH4 0xFFFFFFFF PUSH2 0x1500 AND JUMP JUMPDEST DUP1 PUSH1 0x6 PUSH2 0x94B PUSH2 0x16A6 JUMP JUMPDEST POP POP POP PUSH1 0x3 PUSH1 0x0 SWAP1 PUSH2 0x95B PUSH2 0x15D3 JUMP JUMPDEST SWAP1 PUSH2 0x100 EXP SWAP1 DIV PUSH1 0x1 PUSH1 0x1 PUSH1 0xA0 SHL SUB AND PUSH1 0x1 PUSH1 0x1 PUSH1 0xA0 SHL SUB AND PUSH4 0x70A08231 GAS PUSH4 0x996D79A5 MSIZE DUP2 PUSH1 0xE0 SHL DUP2 MSTORE PUSH1 0x20 DUP2 PUSH1 0x4 DUP4 CALLER PUSH1 0x0 SWAP1 GAS CALL PC PUSH1 0xE ADD JUMPI RETURNDATASIZE PUSH1 0x0 DUP1 RETURNDATACOPY RETURNDATASIZE PUSH1 0x0 REVERT JUMPDEST RETURNDATASIZE PUSH1 0x1 EQ ISZERO PC PUSH1 0xA ADD JUMPI PUSH1 0x1 PUSH1 0x0 RETURN JUMPDEST DUP1 MLOAD SWAP3 POP PUSH1 0x0 JUMPDEST PUSH1 0x40 DUP2 LT ISZERO PUSH2 0x9CF JUMPI PUSH1 0x0 DUP3 DUP3 ADD MSTORE PUSH1 0x20 ADD PUSH2 0x9B8 JUMP JUMPDEST POP POP POP PUSH1 0x40 MLOAD PUSH1 0x1 PUSH1 0x1 PUSH1 0xE0 SHL SUB NOT PUSH1 0xE0 DUP5 SWAP1 SHL AND DUP2 MSTORE PUSH1 0x1 PUSH1 0x1 PUSH1 0xA0 SHL SUB SWAP1 SWAP2 AND PUSH1 0x4 DUP3 ADD MSTORE PUSH1 0x24 ADD PUSH1 0x20 PUSH1 0x40 MLOAD DUP1 DUP4 SUB DUP2 DUP7 DUP1 PUSH2 0xA0C PUSH2 0x16F4 JUMP JUMPDEST ISZERO DUP1 ISZERO PUSH2 0xA21 JUMPI PUSH1 0x0 DUP1 PUSH2 0xA1E PUSH2 0x1568 JUMP JUMPDEST POP POP JUMPDEST POP GAS PUSH2 0xA2B PUSH2 0x1740 JUMP JUMPDEST POP POP POP POP POP ISZERO DUP1 ISZERO PUSH2 0xA4A JUMPI RETURNDATASIZE PUSH1 0x0 DUP1 RETURNDATACOPY RETURNDATASIZE PUSH1 0x0 PUSH2 0xA47 PUSH2 0x1568 JUMP JUMPDEST POP POP JUMPDEST POP POP POP POP PUSH1 0x40 MLOAD RETURNDATASIZE PUSH1 0x20 DUP2 LT ISZERO PUSH2 0xA69 JUMPI PUSH1 0x0 DUP1 PUSH2 0xA66 PUSH2 0x1568 JUMP JUMPDEST POP POP JUMPDEST DUP2 ADD SWAP1 DUP1 DUP1 MLOAD SWAP3 POP PUSH1 0x6 SWAP2 POP PUSH2 0xA7F SWAP1 POP PUSH2 0x15D3 JUMP JUMPDEST GT ISZERO PUSH2 0xAC5 JUMPI PUSH1 0x40 MLOAD PUSH3 0x461BCD PUSH1 0xE5 SHL DUP2 MSTORE PUSH1 0x4 ADD DUP1 DUP1 PUSH1 0x20 ADD DUP3 DUP2 SUB DUP3 MSTORE PUSH1 0x47 DUP2 MSTORE PUSH1 0x20 ADD DUP1 PUSH2 0x1A68 PUSH1 0x47 SWAP2 CODECOPY PUSH1 0x60 ADD SWAP2 POP POP PUSH1 0x40 MLOAD DUP1 SWAP2 SUB SWAP1 PUSH2 0xAC2 PUSH2 0x1568 JUMP JUMPDEST POP POP JUMPDEST PUSH1 0x1 PUSH1 0x1 PUSH1 0xA0 SHL SUB DUP4 AND PUSH1 0x0 SWAP1 DUP2 MSTORE PUSH1 0x4 PUSH1 0x20 MSTORE PUSH1 0x40 DUP2 KECCAK256 DUP1 PUSH2 0xAE6 PUSH2 0x15D3 JUMP JUMPDEST SWAP2 POP POP PUSH1 0x14 DUP2 GT ISZERO PUSH2 0xB47 JUMPI PUSH1 0x40 MLOAD PUSH3 0x461BCD PUSH1 0xE5 SHL DUP2 MSTORE PUSH1 0x20 PUSH1 0x4 DUP3 ADD MSTORE PUSH1 0x1C PUSH1 0x24 DUP3 ADD MSTORE PUSH32 0x56657374696E67207363686564756C6520697320746F6F206C6F6E6700000000 PUSH1 0x44 DUP3 ADD MSTORE PUSH1 0x64 ADD PUSH1 0x40 MLOAD DUP1 SWAP2 SUB SWAP1 PUSH2 0xB44 PUSH2 0x1568 JUMP JUMPDEST POP POP JUMPDEST DUP1 PUSH2 0xB78 JUMPI PUSH1 0x1 PUSH1 0x1 PUSH1 0xA0 SHL SUB DUP5 AND PUSH1 0x0 SWAP1 DUP2 MSTORE PUSH1 0x5 PUSH1 0x20 MSTORE DUP3 SWAP1 PUSH1 0x40 SWAP1 KECCAK256 DUP2 SWAP1 PUSH2 0xB70 PUSH2 0x16A6 JUMP JUMPDEST POP POP POP PUSH2 0xC1F JUMP JUMPDEST DUP3 PUSH2 0xB8E DUP6 PUSH1 0x1 PUSH2 0xB88 DUP9 PUSH2 0xC91 JUMP JUMPDEST SUB PUSH2 0x1247 JUMP JUMPDEST LT PUSH2 0xBD3 JUMPI PUSH1 0x40 MLOAD PUSH3 0x461BCD PUSH1 0xE5 SHL DUP2 MSTORE PUSH1 0x4 ADD DUP1 DUP1 PUSH1 0x20 ADD DUP3 DUP2 SUB DUP3 MSTORE PUSH1 0x37 DUP2 MSTORE PUSH1 0x20 ADD DUP1 PUSH2 0x1A31 PUSH1 0x37 SWAP2 CODECOPY PUSH1 0x40 ADD SWAP2 POP POP PUSH1 0x40 MLOAD DUP1 SWAP2 SUB SWAP1 PUSH2 0xBD0 PUSH2 0x1568 JUMP JUMPDEST POP POP JUMPDEST PUSH1 0x1 PUSH1 0x1 PUSH1 0xA0 SHL SUB DUP5 AND PUSH1 0x0 SWAP1 DUP2 MSTORE PUSH1 0x5 PUSH1 0x20 MSTORE PUSH2 0xBF9 SWAP1 DUP4 SWAP1 PUSH1 0x40 SWAP1 KECCAK256 PUSH2 0x934 PUSH2 0x15D3 JUMP JUMPDEST PUSH1 0x1 PUSH1 0x1 PUSH1 0xA0 SHL SUB DUP6 AND PUSH1 0x0 SWAP1 DUP2 MSTORE PUSH1 0x5 PUSH1 0x20 MSTORE PUSH1 0x40 SWAP1 KECCAK256 DUP2 SWAP1 PUSH2 0xC1B PUSH2 0x16A6 JUMP JUMPDEST POP POP POP JUMPDEST PUSH1 0x1 PUSH1 0x1 PUSH1 0xA0 SHL SUB DUP5 AND PUSH1 0x0 SWAP1 DUP2 MSTORE PUSH1 0x4 PUSH1 0x20 MSTORE PUSH1 0x40 SWAP1 KECCAK256 PUSH1 0x40 MLOAD DUP1 PUSH1 0x40 ADD PUSH1 0x40 MSTORE DUP1 DUP6 DUP2 MSTORE PUSH1 0x20 ADD DUP5 DUP2 MSTORE POP SWAP1 DUP1 PUSH1 0x1 DUP2 PUSH2 0xC59 PUSH2 0x15D3 JUMP JUMPDEST ADD DUP1 DUP3 PUSH2 0xC64 PUSH2 0x16A6 JUMP JUMPDEST POP POP PUSH1 0x0 SWAP3 DUP4 MSTORE SWAP2 PUSH1 0x0 NOT DUP4 ADD SWAP2 POP PUSH1 0x20 SWAP1 KECCAK256 SWAP2 SWAP3 PUSH2 0xC89 SWAP3 PUSH1 0x2 SWAP3 DUP4 MUL ADD SWAP2 PUSH2 0x17F9 JUMP JUMPDEST POP POP POP POP POP POP JUMP JUMPDEST PUSH1 0x1 PUSH1 0x1 PUSH1 0xA0 SHL SUB DUP2 AND PUSH1 0x0 SWAP1 DUP2 MSTORE PUSH1 0x4 PUSH1 0x20 MSTORE PUSH1 0x40 DUP2 KECCAK256 DUP1 PUSH2 0xCB2 PUSH2 0x15D3 JUMP JUMPDEST SWAP4 SWAP3 POP POP POP JUMP JUMPDEST PUSH1 0x5 PUSH1 0x20 MSTORE DUP1 PUSH1 0x0 MSTORE PUSH1 0x40 PUSH1 0x0 KECCAK256 SWAP1 POP PUSH2 0xCD1 PUSH2 0x15D3 JUMP JUMPDEST DUP2 JUMP JUMPDEST PUSH2 0xCDC PUSH2 0x1840 JUMP JUMPDEST PUSH1 0x0 PUSH2 0xCE7 DUP4 PUSH2 0x7C6 JUMP JUMPDEST SWAP1 POP PUSH2 0xCF2 DUP4 PUSH2 0xC91 JUMP JUMPDEST DUP2 EQ ISZERO PUSH2 0xD18 JUMPI PUSH1 0x40 MLOAD DUP1 PUSH1 0x40 ADD PUSH1 0x40 MSTORE DUP1 PUSH1 0x0 DUP2 MSTORE PUSH1 0x20 ADD PUSH1 0x0 DUP2 MSTORE POP SWAP2 POP POP PUSH2 0x803 JUMP JUMPDEST PUSH2 0xCB2 DUP4 DUP3 PUSH2 0x1313 JUMP JUMPDEST PUSH1 0x0 PUSH2 0xD35 GAS PUSH2 0xD30 PUSH2 0x185B JUMP JUMPDEST PUSH2 0xC91 JUMP JUMPDEST SWAP1 POP PUSH1 0x0 DUP1 JUMPDEST DUP3 DUP2 LT ISZERO PUSH2 0xE19 JUMPI PUSH1 0x0 PUSH2 0xD57 GAS PUSH2 0xD51 PUSH2 0x185B JUMP JUMPDEST DUP4 PUSH2 0x1247 JUMP JUMPDEST SWAP1 POP GAS PUSH2 0xD62 PUSH2 0x162E JUMP JUMPDEST DUP2 GT ISZERO PUSH2 0xD6F JUMPI POP PUSH2 0xE19 JUMP JUMPDEST PUSH1 0x0 PUSH2 0xD83 GAS PUSH2 0xD7D PUSH2 0x185B JUMP JUMPDEST DUP5 PUSH2 0x1393 JUMP JUMPDEST SWAP1 POP DUP1 ISZERO PUSH2 0xE0F JUMPI PUSH1 0x40 MLOAD PUSH1 0x40 DUP1 DUP3 ADD SWAP1 MSTORE PUSH1 0x0 DUP1 DUP3 MSTORE PUSH1 0x20 DUP3 ADD DUP2 SWAP1 MSTORE PUSH1 0x4 SWAP1 GAS PUSH2 0xDAD PUSH2 0x185B JUMP JUMPDEST PUSH1 0x1 PUSH1 0x1 PUSH1 0xA0 SHL SUB AND PUSH1 0x1 PUSH1 0x1 PUSH1 0xA0 SHL SUB AND DUP2 MSTORE PUSH1 0x20 ADD SWAP1 DUP2 MSTORE PUSH1 0x20 ADD PUSH1 0x0 KECCAK256 DUP5 DUP2 PUSH2 0xDD7 PUSH2 0x15D3 JUMP JUMPDEST DUP2 LT PUSH2 0xDDF JUMPI INVALID JUMPDEST SWAP1 PUSH1 0x0 MSTORE PUSH1 0x20 PUSH1 0x0 KECCAK256 SWAP1 PUSH1 0x2 MUL ADD SWAP1 PUSH1 0x2 PUSH2 0xDFB SWAP3 SWAP2 SWAP1 PUSH2 0x18A1 JUMP JUMPDEST POP PUSH2 0xE0C DUP5 DUP3 PUSH4 0xFFFFFFFF PUSH2 0x1500 AND JUMP JUMPDEST SWAP4 POP JUMPDEST POP POP PUSH1 0x1 ADD PUSH2 0xD3B JUMP JUMPDEST POP DUP1 ISZERO PUSH2 0xFE2 JUMPI PUSH2 0xE2E DUP2 PUSH1 0x6 PUSH2 0x70A PUSH2 0x15D3 JUMP JUMPDEST DUP1 PUSH1 0x6 PUSH2 0xE39 PUSH2 0x16A6 JUMP JUMPDEST POP POP POP PUSH2 0xE75 DUP2 PUSH1 0x5 PUSH1 0x0 GAS PUSH2 0xE4D PUSH2 0x185B JUMP JUMPDEST PUSH1 0x1 PUSH1 0x1 PUSH1 0xA0 SHL SUB AND PUSH1 0x1 PUSH1 0x1 PUSH1 0xA0 SHL SUB AND DUP2 MSTORE PUSH1 0x20 ADD SWAP1 DUP2 MSTORE PUSH1 0x20 ADD PUSH1 0x0 KECCAK256 PUSH2 0x70A PUSH2 0x15D3 JUMP JUMPDEST PUSH1 0x5 PUSH1 0x0 GAS PUSH2 0xE82 PUSH2 0x185B JUMP JUMPDEST PUSH1 0x1 PUSH1 0x1 PUSH1 0xA0 SHL SUB AND PUSH1 0x1 PUSH1 0x1 PUSH1 0xA0 SHL SUB AND DUP2 MSTORE PUSH1 0x20 ADD SWAP1 DUP2 MSTORE PUSH1 0x20 ADD PUSH1 0x0 KECCAK256 DUP2 SWAP1 PUSH2 0xEAC PUSH2 0x16A6 JUMP JUMPDEST POP POP POP PUSH1 0x3 PUSH1 0x0 SWAP1 PUSH2 0xEBC PUSH2 0x15D3 JUMP JUMPDEST SWAP1 PUSH2 0x100 EXP SWAP1 DIV PUSH1 0x1 PUSH1 0x1 PUSH1 0xA0 SHL SUB AND PUSH1 0x1 PUSH1 0x1 PUSH1 0xA0 SHL SUB AND PUSH4 0xA9059CBB GAS PUSH2 0xEE3 PUSH2 0x185B JUMP JUMPDEST DUP4 PUSH1 0x40 MLOAD PUSH1 0x1 PUSH1 0x1 PUSH1 0xE0 SHL SUB NOT PUSH1 0xE0 DUP6 SWAP1 SHL AND DUP2 MSTORE PUSH1 0x1 PUSH1 0x1 PUSH1 0xA0 SHL SUB SWAP1 SWAP3 AND PUSH1 0x4 DUP4 ADD MSTORE PUSH1 0x24 DUP3 ADD MSTORE PUSH1 0x44 ADD PUSH1 0x20 PUSH1 0x40 MLOAD DUP1 DUP4 SUB DUP2 PUSH1 0x0 DUP8 DUP1 PUSH2 0xF25 PUSH2 0x16F4 JUMP JUMPDEST ISZERO DUP1 ISZERO PUSH2 0xF3A JUMPI PUSH1 0x0 DUP1 PUSH2 0xF37 PUSH2 0x1568 JUMP JUMPDEST POP POP JUMPDEST POP GAS PUSH2 0xF44 PUSH2 0x18DB JUMP JUMPDEST POP POP POP POP POP POP ISZERO DUP1 ISZERO PUSH2 0xF64 JUMPI RETURNDATASIZE PUSH1 0x0 DUP1 RETURNDATACOPY RETURNDATASIZE PUSH1 0x0 PUSH2 0xF61 PUSH2 0x1568 JUMP JUMPDEST POP POP JUMPDEST POP POP POP POP PUSH1 0x40 MLOAD RETURNDATASIZE PUSH1 0x20 DUP2 LT ISZERO PUSH2 0xF83 JUMPI PUSH1 0x0 DUP1 PUSH2 0xF80 PUSH2 0x1568 JUMP JUMPDEST POP POP JUMPDEST DUP2 ADD SWAP1 DUP1 DUP1 MLOAD POP POP POP POP GAS PUSH2 0xF96 PUSH2 0x185B JUMP JUMPDEST PUSH1 0x1 PUSH1 0x1 PUSH1 0xA0 SHL SUB AND PUSH32 0xFBEFF59D2BFDA0D79EA8A29F8C57C66D48C7A13EABBDB90908D9115EC41C9DC6 GAS PUSH2 0xFC9 PUSH2 0x162E JUMP JUMPDEST DUP4 PUSH1 0x40 MLOAD SWAP2 DUP3 MSTORE PUSH1 0x20 DUP3 ADD MSTORE PUSH1 0x40 SWAP1 DUP2 ADD SWAP1 MLOAD DUP1 SWAP2 SUB SWAP1 LOG2 JUMPDEST POP POP JUMP JUMPDEST PUSH1 0x4 PUSH1 0x20 MSTORE DUP3 PUSH1 0x0 MSTORE PUSH1 0x40 PUSH1 0x0 KECCAK256 DUP3 DUP2 PUSH2 0xFFE PUSH2 0x15D3 JUMP JUMPDEST DUP2 LT PUSH2 0x1006 JUMPI INVALID JUMPDEST SWAP1 PUSH1 0x0 MSTORE PUSH1 0x20 PUSH1 0x0 KECCAK256 SWAP1 PUSH1 0x2 MUL ADD DUP2 PUSH1 0x2 DUP2 LT PUSH2 0x101F JUMPI INVALID JUMPDEST ADD SWAP3 POP PUSH2 0xCD1 SWAP2 POP PUSH2 0x15D3 SWAP1 POP JUMP JUMPDEST PUSH1 0x2 PUSH2 0xCD1 PUSH2 0x15D3 JUMP JUMPDEST PUSH1 0x0 PUSH1 0x1 PUSH2 0x1044 PUSH2 0x15D3 JUMP JUMPDEST SWAP1 PUSH2 0x100 EXP SWAP1 DIV PUSH1 0x1 PUSH1 0x1 PUSH1 0xA0 SHL SUB AND DUP2 JUMP JUMPDEST PUSH1 0x0 DUP2 JUMP JUMPDEST PUSH1 0x0 PUSH2 0x1067 DUP3 PUSH2 0xCD4 JUMP JUMPDEST PUSH1 0x0 JUMPDEST PUSH1 0x20 MUL ADD MLOAD SWAP3 SWAP2 POP POP JUMP JUMPDEST PUSH1 0x1 PUSH1 0x1 PUSH1 0xA0 SHL SUB DUP2 AND PUSH1 0x0 SWAP1 DUP2 MSTORE PUSH1 0x5 PUSH1 0x20 MSTORE PUSH1 0x40 DUP2 KECCAK256 PUSH2 0x1095 PUSH2 0x15D3 JUMP JUMPDEST SWAP3 SWAP2 POP POP JUMP JUMPDEST PUSH1 0x0 PUSH1 0x3 PUSH2 0x1044 PUSH2 0x15D3 JUMP JUMPDEST PUSH1 0x0 PUSH1 0x1 PUSH2 0x10B3 PUSH2 0x15D3 JUMP JUMPDEST SWAP1 PUSH2 0x100 EXP SWAP1 DIV PUSH1 0x1 PUSH1 0x1 PUSH1 0xA0 SHL SUB AND PUSH1 0x1 PUSH1 0x1 PUSH1 0xA0 SHL SUB AND GAS PUSH2 0x10D5 PUSH2 0x185B JUMP JUMPDEST PUSH1 0x1 PUSH1 0x1 PUSH1 0xA0 SHL SUB AND EQ PUSH2 0x1123 JUMPI PUSH1 0x40 MLOAD PUSH3 0x461BCD PUSH1 0xE5 SHL DUP2 MSTORE PUSH1 0x4 ADD DUP1 DUP1 PUSH1 0x20 ADD DUP3 DUP2 SUB DUP3 MSTORE PUSH1 0x35 DUP2 MSTORE PUSH1 0x20 ADD DUP1 PUSH2 0x19FC PUSH1 0x35 SWAP2 CODECOPY PUSH1 0x40 ADD SWAP2 POP POP PUSH1 0x40 MLOAD DUP1 SWAP2 SUB SWAP1 PUSH2 0x1120 PUSH2 0x1568 JUMP JUMPDEST POP POP JUMPDEST PUSH32 0xB532073B38C83145E3E5135377A08BF9AAB55BC0FD7C1179CD4FB995D2A5159C PUSH1 0x0 DUP1 PUSH2 0x114F PUSH2 0x15D3 JUMP JUMPDEST SWAP1 PUSH2 0x100 EXP SWAP1 DIV PUSH1 0x1 PUSH1 0x1 PUSH1 0xA0 SHL SUB AND PUSH1 0x1 PUSH1 0x0 SWAP1 PUSH2 0x116C PUSH2 0x15D3 JUMP JUMPDEST SWAP1 PUSH2 0x100 EXP SWAP1 DIV PUSH1 0x1 PUSH1 0x1 PUSH1 0xA0 SHL SUB AND PUSH1 0x40 MLOAD PUSH1 0x1 PUSH1 0x1 PUSH1 0xA0 SHL SUB SWAP3 DUP4 AND DUP2 MSTORE SWAP2 AND PUSH1 0x20 DUP3 ADD MSTORE PUSH1 0x40 SWAP1 DUP2 ADD SWAP1 MLOAD DUP1 SWAP2 SUB SWAP1 LOG1 PUSH1 0x0 PUSH1 0x1 PUSH2 0x11AB PUSH2 0x15D3 JUMP JUMPDEST SWAP1 PUSH2 0x100 EXP SWAP1 DIV PUSH1 0x1 PUSH1 0x1 PUSH1 0xA0 SHL SUB AND PUSH1 0x0 DUP1 PUSH2 0x100 EXP DUP2 PUSH2 0x11CB PUSH2 0x15D3 JUMP JUMPDEST DUP2 PUSH1 0x1 PUSH1 0x1 PUSH1 0xA0 SHL SUB MUL NOT AND SWAP1 DUP4 PUSH1 0x1 PUSH1 0x1 PUSH1 0xA0 SHL SUB AND MUL OR SWAP1 PUSH2 0x11ED PUSH2 0x16A6 JUMP JUMPDEST POP POP POP PUSH1 0x0 PUSH1 0x1 PUSH1 0x0 PUSH2 0x100 EXP DUP2 PUSH2 0x1203 PUSH2 0x15D3 JUMP JUMPDEST DUP2 PUSH1 0x1 PUSH1 0x1 PUSH1 0xA0 SHL SUB MUL NOT AND SWAP1 DUP4 PUSH1 0x1 PUSH1 0x1 PUSH1 0xA0 SHL SUB AND MUL OR SWAP1 PUSH2 0x747 PUSH2 0x16A6 JUMP JUMPDEST PUSH1 0x1 DUP2 JUMP JUMPDEST PUSH1 0x0 DUP1 PUSH2 0x1044 PUSH2 0x15D3 JUMP JUMPDEST PUSH1 0x0 PUSH2 0x1240 DUP3 PUSH2 0xCD4 JUMP JUMPDEST PUSH1 0x1 PUSH2 0x106A JUMP JUMPDEST PUSH1 0x0 PUSH2 0x1253 DUP4 DUP4 PUSH2 0x1313 JUMP JUMPDEST PUSH1 0x0 JUMPDEST PUSH1 0x20 MUL ADD MLOAD SWAP4 SWAP3 POP POP POP JUMP JUMPDEST PUSH1 0x6 PUSH2 0xCD1 PUSH2 0x15D3 JUMP JUMPDEST PUSH2 0x1274 PUSH2 0x1421 JUMP JUMPDEST PUSH1 0x2 PUSH2 0x127E PUSH2 0x15D3 JUMP JUMPDEST GAS PUSH2 0x1287 PUSH2 0x162E JUMP JUMPDEST LT PUSH2 0x12CC JUMPI PUSH1 0x40 MLOAD PUSH3 0x461BCD PUSH1 0xE5 SHL DUP2 MSTORE PUSH1 0x4 ADD DUP1 DUP1 PUSH1 0x20 ADD DUP3 DUP2 SUB DUP3 MSTORE PUSH1 0x29 DUP2 MSTORE PUSH1 0x20 ADD DUP1 PUSH2 0x1ADE PUSH1 0x29 SWAP2 CODECOPY PUSH1 0x40 ADD SWAP2 POP POP PUSH1 0x40 MLOAD DUP1 SWAP2 SUB SWAP1 PUSH2 0x12C9 PUSH2 0x1568 JUMP JUMPDEST POP POP JUMPDEST PUSH1 0x0 JUMPDEST DUP4 DUP2 LT ISZERO PUSH2 0xC89 JUMPI PUSH2 0x1306 DUP7 DUP7 DUP7 DUP5 DUP2 DUP2 LT PUSH2 0x12E7 JUMPI INVALID JUMPDEST SWAP1 POP PUSH1 0x20 MUL ADD CALLDATALOAD DUP6 DUP6 DUP6 DUP2 DUP2 LT PUSH2 0x12FA JUMPI INVALID JUMPDEST SWAP1 POP PUSH1 0x20 MUL ADD CALLDATALOAD PUSH2 0x808 JUMP JUMPDEST PUSH1 0x1 ADD PUSH2 0x12CF JUMP JUMPDEST PUSH1 0x14 DUP2 JUMP JUMPDEST PUSH2 0x131B PUSH2 0x1840 JUMP JUMPDEST PUSH1 0x1 PUSH1 0x1 PUSH1 0xA0 SHL SUB DUP4 AND PUSH1 0x0 SWAP1 DUP2 MSTORE PUSH1 0x4 PUSH1 0x20 MSTORE PUSH1 0x40 SWAP1 KECCAK256 DUP3 DUP2 PUSH2 0x133D PUSH2 0x15D3 JUMP JUMPDEST DUP2 LT PUSH2 0x1345 JUMPI INVALID JUMPDEST SWAP1 PUSH1 0x0 MSTORE PUSH1 0x20 PUSH1 0x0 KECCAK256 PUSH1 0x2 SWAP2 DUP3 MUL ADD SWAP1 PUSH1 0x40 DUP1 MLOAD SWAP1 DUP2 ADD PUSH1 0x40 MSTORE SWAP2 SWAP1 DUP3 DUP3 PUSH1 0x2 PUSH1 0x20 MUL DUP3 ADD SWAP2 JUMPDEST DUP2 PUSH2 0x1375 PUSH2 0x15D3 JUMP JUMPDEST DUP2 MSTORE PUSH1 0x20 ADD SWAP1 PUSH1 0x1 ADD SWAP1 DUP1 DUP4 GT PUSH2 0x136C JUMPI POP POP POP POP POP SWAP1 POP SWAP3 SWAP2 POP POP JUMP JUMPDEST PUSH1 0x0 PUSH2 0x139F DUP4 DUP4 PUSH2 0x1313 JUMP JUMPDEST PUSH1 0x1 PUSH2 0x1256 JUMP JUMPDEST PUSH2 0x13AE PUSH2 0x1421 JUMP JUMPDEST DUP1 PUSH1 0x3 PUSH1 0x1 DUP2 PUSH2 0x13BC PUSH2 0x15D3 JUMP JUMPDEST DUP2 PUSH1 0x1 PUSH1 0x1 PUSH1 0xA0 SHL SUB MUL NOT AND SWAP1 DUP4 PUSH1 0x1 PUSH1 0x1 PUSH1 0xA0 SHL SUB AND MUL OR SWAP1 PUSH2 0x13DE PUSH2 0x16A6 JUMP JUMPDEST POP POP POP PUSH32 0x46E9C68BD7831071BDD478F1AE4C4A52463961A9D620383A0A121DBFC0E0F06D DUP2 PUSH1 0x40 MLOAD PUSH1 0x1 PUSH1 0x1 PUSH1 0xA0 SHL SUB SWAP1 SWAP2 AND DUP2 MSTORE PUSH1 0x20 ADD PUSH1 0x40 MLOAD DUP1 SWAP2 SUB SWAP1 LOG1 POP JUMP JUMPDEST PUSH1 0x0 DUP1 PUSH2 0x142C PUSH2 0x15D3 JUMP JUMPDEST SWAP1 PUSH2 0x100 EXP SWAP1 DIV PUSH1 0x1 PUSH1 0x1 PUSH1 0xA0 SHL SUB AND PUSH1 0x1 PUSH1 0x1 PUSH1 0xA0 SHL SUB AND GAS PUSH2 0x144E PUSH2 0x185B JUMP JUMPDEST PUSH1 0x1 PUSH1 0x1 PUSH1 0xA0 SHL SUB AND EQ PUSH2 0x1499 JUMPI PUSH1 0x40 MLOAD PUSH3 0x461BCD PUSH1 0xE5 SHL DUP2 MSTORE PUSH1 0x4 ADD DUP1 DUP1 PUSH1 0x20 ADD DUP3 DUP2 SUB DUP3 MSTORE PUSH1 0x2F DUP2 MSTORE PUSH1 0x20 ADD DUP1 PUSH2 0x1AAF PUSH1 0x2F SWAP2 CODECOPY PUSH1 0x40 ADD SWAP2 POP POP PUSH1 0x40 MLOAD DUP1 SWAP2 SUB SWAP1 PUSH2 0xFE2 PUSH2 0x1568 JUMP JUMPDEST JUMP JUMPDEST PUSH1 0x0 DUP3 DUP3 GT ISZERO PUSH2 0x14FA JUMPI PUSH1 0x40 MLOAD PUSH3 0x461BCD PUSH1 0xE5 SHL DUP2 MSTORE PUSH1 0x20 PUSH1 0x4 DUP3 ADD MSTORE PUSH1 0x1E PUSH1 0x24 DUP3 ADD MSTORE PUSH32 0x536166654D6174683A207375627472616374696F6E206F766572666C6F770000 PUSH1 0x44 DUP3 ADD MSTORE PUSH1 0x64 ADD PUSH1 0x40 MLOAD DUP1 SWAP2 SUB SWAP1 PUSH2 0x14F7 PUSH2 0x1568 JUMP JUMPDEST POP POP JUMPDEST POP SWAP1 SUB SWAP1 JUMP JUMPDEST PUSH1 0x0 DUP3 DUP3 ADD DUP4 DUP2 LT ISZERO PUSH2 0xCB2 JUMPI PUSH1 0x40 MLOAD PUSH3 0x461BCD PUSH1 0xE5 SHL DUP2 MSTORE PUSH1 0x20 PUSH1 0x4 DUP3 ADD MSTORE PUSH1 0x1B PUSH1 0x24 DUP3 ADD MSTORE PUSH32 0x536166654D6174683A206164646974696F6E206F766572666C6F770000000000 PUSH1 0x44 DUP3 ADD MSTORE PUSH1 0x64 ADD PUSH1 0x40 MLOAD DUP1 SWAP2 SUB SWAP1 PUSH2 0x155F PUSH2 0x1568 JUMP JUMPDEST POP POP SWAP4 SWAP3 POP POP POP JUMP JUMPDEST PUSH4 0x2A2A7ADB MSIZE DUP2 PUSH1 0xE0 SHL DUP2 MSTORE PUSH1 0x4 DUP2 ADD PUSH1 0x20 DUP2 MSTORE DUP6 PUSH1 0x20 DUP3 ADD MSTORE PUSH1 0x0 JUMPDEST DUP7 DUP2 LT ISZERO PUSH2 0x15A0 JUMPI DUP1 DUP7 ADD MLOAD DUP3 DUP3 ADD PUSH1 0x40 ADD MSTORE PUSH1 0x20 ADD PUSH2 0x1585 JUMP JUMPDEST POP PUSH1 0x20 DUP3 DUP8 PUSH1 0x64 ADD DUP5 CALLER PUSH1 0x0 SWAP1 GAS CALL PC PUSH1 0xE ADD JUMPI RETURNDATASIZE PUSH1 0x0 DUP1 RETURNDATACOPY RETURNDATASIZE PUSH1 0x0 REVERT JUMPDEST RETURNDATASIZE PUSH1 0x1 EQ ISZERO PC PUSH1 0xA ADD JUMPI PUSH1 0x1 PUSH1 0x0 RETURN JUMPDEST POP POP POP JUMP JUMPDEST PUSH4 0x3DAA959 MSIZE DUP2 PUSH1 0xE0 SHL DUP2 MSTORE DUP4 PUSH1 0x4 DUP3 ADD MSTORE PUSH1 0x20 DUP2 PUSH1 0x24 DUP4 CALLER PUSH1 0x0 SWAP1 GAS CALL PC PUSH1 0xE ADD JUMPI RETURNDATASIZE PUSH1 0x0 DUP1 RETURNDATACOPY RETURNDATASIZE PUSH1 0x0 REVERT JUMPDEST RETURNDATASIZE PUSH1 0x1 EQ ISZERO PC PUSH1 0xA ADD JUMPI PUSH1 0x1 PUSH1 0x0 RETURN JUMPDEST DUP1 MLOAD SWAP4 POP PUSH1 0x0 JUMPDEST PUSH1 0x40 DUP2 LT ISZERO PUSH2 0x747 JUMPI PUSH1 0x0 DUP3 DUP3 ADD MSTORE PUSH1 0x20 ADD PUSH2 0x1617 JUMP JUMPDEST PUSH4 0xBDBF8C36 MSIZE DUP2 PUSH1 0xE0 SHL DUP2 MSTORE PUSH1 0x20 DUP2 PUSH1 0x4 DUP4 CALLER PUSH1 0x0 SWAP1 GAS CALL PC PUSH1 0xE ADD JUMPI RETURNDATASIZE PUSH1 0x0 DUP1 RETURNDATACOPY RETURNDATASIZE PUSH1 0x0 REVERT JUMPDEST RETURNDATASIZE PUSH1 0x1 EQ ISZERO PC PUSH1 0xA ADD JUMPI PUSH1 0x1 PUSH1 0x0 RETURN JUMPDEST DUP1 MLOAD PUSH1 0x0 DUP3 MSTORE SWAP4 POP PUSH1 0x20 PUSH2 0x1617 JUMP JUMPDEST POP DUP1 PUSH2 0x167E PUSH2 0x15D3 JUMP JUMPDEST PUSH1 0x0 DUP3 PUSH2 0x1689 PUSH2 0x16A6 JUMP JUMPDEST POP POP PUSH1 0x2 MUL SWAP1 PUSH1 0x0 MSTORE PUSH1 0x20 PUSH1 0x0 KECCAK256 PUSH2 0x16A3 SWAP2 DUP2 ADD SWAP1 PUSH2 0x1994 JUMP JUMPDEST POP JUMP JUMPDEST PUSH4 0x22BD64C0 MSIZE DUP2 PUSH1 0xE0 SHL DUP2 MSTORE DUP4 PUSH1 0x4 DUP3 ADD MSTORE DUP5 PUSH1 0x24 DUP3 ADD MSTORE PUSH1 0x0 DUP2 PUSH1 0x44 DUP4 CALLER PUSH1 0x0 SWAP1 GAS CALL PC PUSH1 0xE ADD JUMPI RETURNDATASIZE PUSH1 0x0 DUP1 RETURNDATACOPY RETURNDATASIZE PUSH1 0x0 REVERT JUMPDEST RETURNDATASIZE PUSH1 0x1 EQ ISZERO PC PUSH1 0xA ADD JUMPI PUSH1 0x1 PUSH1 0x0 RETURN JUMPDEST PUSH1 0x0 DUP2 MSTORE PUSH1 0x20 PUSH2 0x1617 JUMP JUMPDEST PUSH4 0x8435035B MSIZE DUP2 PUSH1 0xE0 SHL DUP2 MSTORE DUP4 PUSH1 0x4 DUP3 ADD MSTORE PUSH1 0x20 DUP2 PUSH1 0x24 DUP4 CALLER PUSH1 0x0 SWAP1 GAS CALL PC PUSH1 0xE ADD JUMPI RETURNDATASIZE PUSH1 0x0 DUP1 RETURNDATACOPY RETURNDATASIZE PUSH1 0x0 REVERT JUMPDEST RETURNDATASIZE PUSH1 0x1 EQ ISZERO PC PUSH1 0xA ADD JUMPI PUSH1 0x1 PUSH1 0x0 RETURN JUMPDEST DUP1 MLOAD PUSH1 0x0 DUP3 MSTORE SWAP4 POP PUSH1 0x20 PUSH2 0x1617 JUMP JUMPDEST PUSH4 0x8540661F MSIZE DUP2 PUSH1 0xE0 SHL DUP2 MSTORE DUP4 PUSH1 0x4 DUP3 ADD MSTORE DUP5 PUSH1 0x24 DUP3 ADD MSTORE PUSH1 0x60 PUSH1 0x44 DUP3 ADD MSTORE DUP7 PUSH1 0x64 DUP3 ADD MSTORE PUSH1 0x84 DUP2 ADD PUSH1 0x0 JUMPDEST DUP9 DUP2 LT ISZERO PUSH2 0x1784 JUMPI DUP1 DUP9 ADD MLOAD DUP3 DUP3 ADD MSTORE PUSH1 0x20 ADD PUSH2 0x176C JUMP JUMPDEST POP DUP8 PUSH2 0x104 ADD DUP3 ADD PUSH1 0x60 DUP4 DUP11 PUSH2 0x104 ADD DUP6 CALLER PUSH1 0x0 SWAP1 GAS CALL PC PUSH1 0xE ADD JUMPI RETURNDATASIZE PUSH1 0x0 DUP1 RETURNDATACOPY RETURNDATASIZE PUSH1 0x0 REVERT JUMPDEST RETURNDATASIZE PUSH1 0x1 EQ ISZERO PC PUSH1 0xA ADD JUMPI PUSH1 0x1 PUSH1 0x0 RETURN JUMPDEST DUP3 MLOAD PUSH1 0x40 DUP5 ADD MLOAD RETURNDATASIZE PUSH1 0x0 DUP7 RETURNDATACOPY DUP13 DUP13 DUP3 PUSH1 0x60 DUP9 ADD CALLER POP PUSH1 0x0 PUSH1 0x4 GAS CALL POP MSIZE DUP6 JUMPDEST DUP2 DUP2 LT ISZERO PUSH2 0x17ED JUMPI PUSH1 0x0 DUP2 MSTORE PUSH1 0x20 ADD PUSH2 0x17D9 JUMP JUMPDEST POP SWAP2 SWAP13 POP POP POP POP POP POP POP JUMP JUMPDEST DUP3 PUSH1 0x2 DUP2 ADD SWAP3 DUP3 ISZERO PUSH2 0x1830 JUMPI SWAP2 PUSH1 0x20 MUL DUP3 ADD JUMPDEST DUP3 DUP2 GT ISZERO PUSH2 0x1830 JUMPI DUP3 MLOAD DUP3 PUSH2 0x181F PUSH2 0x16A6 JUMP JUMPDEST POP POP SWAP2 PUSH1 0x20 ADD SWAP2 SWAP1 PUSH1 0x1 ADD SWAP1 PUSH2 0x180C JUMP JUMPDEST POP PUSH2 0x183C SWAP3 SWAP2 POP PUSH2 0x19BA JUMP JUMPDEST POP SWAP1 JUMP JUMPDEST PUSH1 0x40 MLOAD PUSH1 0x40 DUP1 DUP3 ADD DUP2 MSTORE PUSH1 0x2 SWAP1 DUP3 SWAP1 DUP1 CODESIZE DUP4 CODECOPY POP SWAP2 SWAP3 SWAP2 POP POP JUMP JUMPDEST PUSH4 0x73509064 MSIZE DUP2 PUSH1 0xE0 SHL DUP2 MSTORE PUSH1 0x20 DUP2 PUSH1 0x4 DUP4 CALLER PUSH1 0x0 SWAP1 GAS CALL PC PUSH1 0xE ADD JUMPI RETURNDATASIZE PUSH1 0x0 DUP1 RETURNDATACOPY RETURNDATASIZE PUSH1 0x0 REVERT JUMPDEST RETURNDATASIZE PUSH1 0x1 EQ ISZERO PC PUSH1 0xA ADD JUMPI PUSH1 0x1 PUSH1 0x0 RETURN JUMPDEST DUP1 MLOAD PUSH1 0x0 DUP3 MSTORE SWAP4 POP PUSH1 0x20 PUSH2 0x1617 JUMP JUMPDEST DUP3 PUSH1 0x2 DUP2 ADD SWAP3 DUP3 ISZERO PUSH2 0x1830 JUMPI SWAP2 PUSH1 0x20 MUL DUP3 ADD JUMPDEST DUP3 DUP2 GT ISZERO PUSH2 0x1830 JUMPI DUP3 MLOAD PUSH1 0xFF AND DUP3 PUSH2 0x18CA PUSH2 0x16A6 JUMP JUMPDEST POP POP SWAP2 PUSH1 0x20 ADD SWAP2 SWAP1 PUSH1 0x1 ADD SWAP1 PUSH2 0x18B4 JUMP JUMPDEST PUSH4 0x85979F76 MSIZE DUP2 PUSH1 0xE0 SHL DUP2 MSTORE DUP4 PUSH1 0x4 DUP3 ADD MSTORE DUP5 PUSH1 0x24 DUP3 ADD MSTORE PUSH1 0x60 PUSH1 0x44 DUP3 ADD MSTORE DUP8 PUSH1 0x64 DUP3 ADD MSTORE PUSH1 0x84 DUP2 ADD PUSH1 0x0 JUMPDEST DUP10 DUP2 LT ISZERO PUSH2 0x191F JUMPI DUP1 DUP10 ADD MLOAD DUP3 DUP3 ADD MSTORE PUSH1 0x20 ADD PUSH2 0x1907 JUMP JUMPDEST POP DUP9 PUSH2 0x104 ADD DUP3 ADD PUSH1 0x60 DUP4 DUP12 PUSH2 0x104 ADD DUP6 CALLER PUSH1 0x0 SWAP1 GAS CALL PC PUSH1 0xE ADD JUMPI RETURNDATASIZE PUSH1 0x0 DUP1 RETURNDATACOPY RETURNDATASIZE PUSH1 0x0 REVERT JUMPDEST RETURNDATASIZE PUSH1 0x1 EQ ISZERO PC PUSH1 0xA ADD JUMPI PUSH1 0x1 PUSH1 0x0 RETURN JUMPDEST DUP3 MLOAD PUSH1 0x40 DUP5 ADD MLOAD RETURNDATASIZE PUSH1 0x0 DUP7 RETURNDATACOPY DUP14 DUP14 DUP3 PUSH1 0x60 DUP9 ADD CALLER POP PUSH1 0x0 PUSH1 0x4 GAS CALL POP MSIZE DUP6 JUMPDEST DUP2 DUP2 LT ISZERO PUSH2 0x1988 JUMPI PUSH1 0x0 DUP2 MSTORE PUSH1 0x20 ADD PUSH2 0x1974 JUMP JUMPDEST POP SWAP2 SWAP14 POP POP POP POP POP POP POP JUMP JUMPDEST PUSH2 0x19B7 SWAP2 SWAP1 JUMPDEST DUP1 DUP3 GT ISZERO PUSH2 0x183C JUMPI PUSH1 0x0 PUSH2 0x19AE DUP3 DUP3 PUSH2 0x19DF JUMP JUMPDEST POP PUSH1 0x2 ADD PUSH2 0x199A JUMP JUMPDEST SWAP1 JUMP JUMPDEST PUSH2 0x19B7 SWAP2 SWAP1 JUMPDEST DUP1 DUP3 GT ISZERO PUSH2 0x183C JUMPI PUSH1 0x0 DUP1 DUP3 PUSH2 0x19D4 PUSH2 0x16A6 JUMP JUMPDEST POP POP POP PUSH1 0x1 ADD PUSH2 0x19C0 JUMP JUMPDEST POP PUSH1 0x0 DUP2 PUSH2 0x19EB PUSH2 0x16A6 JUMP JUMPDEST POP POP PUSH1 0x1 ADD PUSH1 0x0 SWAP1 PUSH2 0xFE2 PUSH2 0x16A6 JUMP INVALID MSIZE PUSH16 0x75206D757374206265206E6F6D696E61 PUSH21 0x6564206265666F726520796F752063616E20616363 PUSH6 0x7074206F776E PUSH6 0x727368697043 PUSH2 0x6E6E PUSH16 0x7420616464206E657720766573746564 KECCAK256 PUSH6 0x6E7472696573 KECCAK256 PUSH6 0x61726C696572 KECCAK256 PUSH21 0x68616E20746865206C617374206F6E654D75737420 PUSH3 0x652065 PUSH15 0x6F7567682062616C616E636520696E KECCAK256 PUSH21 0x686520636F6E747261637420746F2070726F766964 PUSH6 0x20666F722074 PUSH9 0x652076657374696E67 KECCAK256 PUSH6 0x6E7472794F6E PUSH13 0x792074686520636F6E74726163 PUSH21 0x206F776E6572206D617920706572666F726D207468 PUSH10 0x7320616374696F6E4361 PUSH15 0x206F6E6C7920706572666F726D2074 PUSH9 0x697320616374696F6E KECCAK256 PUSH5 0x7572696E67 KECCAK256 PUSH20 0x6574757000000000000000000000000000000000 "
		}
	}
}