{
	"abi": [
		{
			"inputs": [
				{
					"internalType": "address",
					"name": "_owner",
					"type": "address"
				},
				{
					"internalType": "address",
					"name": "_resolver",
					"type": "address"
				}
			],
			"payable": false,
			"stateMutability": "nonpayable",
			"type": "constructor"
		},
		{
			"anonymous": false,
			"inputs": [
				{
					"indexed": false,
					"internalType": "address",
					"name": "oldBridge",
					"type": "address"
				},
				{
					"indexed": false,
					"internalType": "address",
					"name": "newBridge",
					"type": "address"
				},
				{
					"indexed": false,
					"internalType": "uint256",
					"name": "amount",
					"type": "uint256"
				}
			],
			"name": "BridgeMigrated",
			"type": "event"
		},
		{
			"anonymous": false,
			"inputs": [
				{
					"indexed": true,
					"internalType": "address",
					"name": "account",
					"type": "address"
				},
				{
					"indexed": false,
					"internalType": "uint256",
					"name": "amount",
					"type": "uint256"
				}
			],
			"name": "Deposit",
			"type": "event"
		},
		{
			"anonymous": false,
			"inputs": [
				{
					"indexed": false,
					"internalType": "address",
					"name": "oldOwner",
					"type": "address"
				},
				{
					"indexed": false,
					"internalType": "address",
					"name": "newOwner",
					"type": "address"
				}
			],
			"name": "OwnerChanged",
			"type": "event"
		},
		{
			"anonymous": false,
			"inputs": [
				{
					"indexed": false,
					"internalType": "address",
					"name": "newOwner",
					"type": "address"
				}
			],
			"name": "OwnerNominated",
			"type": "event"
		},
		{
			"anonymous": false,
			"inputs": [
				{
					"indexed": true,
					"internalType": "address",
					"name": "account",
					"type": "address"
				},
				{
					"indexed": false,
					"internalType": "uint256",
					"name": "amount",
					"type": "uint256"
				}
			],
			"name": "RewardDeposit",
			"type": "event"
		},
		{
			"anonymous": false,
			"inputs": [
				{
					"indexed": true,
					"internalType": "address",
					"name": "account",
					"type": "address"
				},
				{
					"indexed": false,
					"internalType": "uint256",
					"name": "amount",
					"type": "uint256"
				}
			],
			"name": "WithdrawalCompleted",
			"type": "event"
		},
		{
			"constant": true,
			"inputs": [],
			"name": "MAX_ADDRESSES_FROM_RESOLVER",
			"outputs": [
				{
					"internalType": "uint256",
					"name": "",
					"type": "uint256"
				}
			],
			"payable": false,
			"stateMutability": "view",
			"type": "function"
		},
		{
			"constant": false,
			"inputs": [],
			"name": "acceptOwnership",
			"outputs": [],
			"payable": false,
			"stateMutability": "nonpayable",
			"type": "function"
		},
		{
			"constant": true,
			"inputs": [],
			"name": "activated",
			"outputs": [
				{
					"internalType": "bool",
					"name": "",
					"type": "bool"
				}
			],
			"payable": false,
			"stateMutability": "view",
			"type": "function"
		},
		{
			"constant": false,
			"inputs": [
				{
					"internalType": "address",
					"name": "account",
					"type": "address"
				},
				{
					"internalType": "uint256",
					"name": "amount",
					"type": "uint256"
				}
			],
			"name": "completeWithdrawal",
			"outputs": [],
			"payable": false,
			"stateMutability": "nonpayable",
			"type": "function"
		},
		{
			"constant": false,
			"inputs": [
				{
					"internalType": "uint256",
					"name": "amount",
					"type": "uint256"
				}
			],
			"name": "deposit",
			"outputs": [],
			"payable": false,
			"stateMutability": "nonpayable",
			"type": "function"
		},
		{
			"constant": true,
			"inputs": [],
			"name": "getResolverAddressesRequired",
			"outputs": [
				{
					"internalType": "bytes32[24]",
					"name": "addressesRequired",
					"type": "bytes32[24]"
				}
			],
			"payable": false,
			"stateMutability": "view",
			"type": "function"
		},
		{
			"constant": true,
			"inputs": [
				{
					"internalType": "contract AddressResolver",
					"name": "_resolver",
					"type": "address"
				}
			],
			"name": "isResolverCached",
			"outputs": [
				{
					"internalType": "bool",
					"name": "",
					"type": "bool"
				}
			],
			"payable": false,
			"stateMutability": "view",
			"type": "function"
		},
		{
			"constant": false,
			"inputs": [
				{
					"internalType": "address",
					"name": "newBridge",
					"type": "address"
				}
			],
			"name": "migrateBridge",
			"outputs": [],
			"payable": false,
			"stateMutability": "nonpayable",
			"type": "function"
		},
		{
			"constant": false,
			"inputs": [
				{
					"internalType": "address",
					"name": "_owner",
					"type": "address"
				}
			],
			"name": "nominateNewOwner",
			"outputs": [],
			"payable": false,
			"stateMutability": "nonpayable",
			"type": "function"
		},
		{
			"constant": true,
			"inputs": [],
			"name": "nominatedOwner",
			"outputs": [
				{
					"internalType": "address",
					"name": "",
					"type": "address"
				}
			],
			"payable": false,
			"stateMutability": "view",
			"type": "function"
		},
		{
			"constant": false,
			"inputs": [
				{
					"internalType": "uint256",
					"name": "amount",
					"type": "uint256"
				}
			],
			"name": "notifyRewardAmount",
			"outputs": [],
			"payable": false,
			"stateMutability": "nonpayable",
			"type": "function"
		},
		{
			"constant": true,
			"inputs": [],
			"name": "owner",
			"outputs": [
				{
					"internalType": "address",
					"name": "",
					"type": "address"
				}
			],
			"payable": false,
			"stateMutability": "view",
			"type": "function"
		},
		{
			"constant": true,
			"inputs": [],
			"name": "resolver",
			"outputs": [
				{
					"internalType": "contract AddressResolver",
					"name": "",
					"type": "address"
				}
			],
			"payable": false,
			"stateMutability": "view",
			"type": "function"
		},
		{
			"constant": true,
			"inputs": [
				{
					"internalType": "uint256",
					"name": "",
					"type": "uint256"
				}
			],
			"name": "resolverAddressesRequired",
			"outputs": [
				{
					"internalType": "bytes32",
					"name": "",
					"type": "bytes32"
				}
			],
			"payable": false,
			"stateMutability": "view",
			"type": "function"
		},
		{
			"constant": false,
			"inputs": [
				{
					"internalType": "uint256",
					"name": "amount",
					"type": "uint256"
				}
			],
			"name": "rewardDeposit",
			"outputs": [],
			"payable": false,
			"stateMutability": "nonpayable",
			"type": "function"
		},
		{
			"constant": false,
			"inputs": [
				{
					"internalType": "contract AddressResolver",
					"name": "_resolver",
					"type": "address"
				}
			],
			"name": "setResolverAndSyncCache",
			"outputs": [],
			"payable": false,
			"stateMutability": "nonpayable",
			"type": "function"
		}
	],
	"evm": {
		"bytecode": {
			"linkReferences": {},
			"object": "6101206040526c32bc3a1d26b2b9b9b2b733b2b960991b6080908152680a6f2dce8d0cae8d2f60bb1b60a0526524b9b9bab2b960d11b60c0527f52657761726473446973747269627574696f6e0000000000000000000000000060e0527f6f766d3a53796e746865746978427269646765546f42617365000000000000006101005262000090906005908162000246565b503480156200009e57600080fd5b5060405162001ac738038062001ac7833981016040819052620000c191620002bc565b60408051610300810191829052829160059060189082845b815481526020019060010190808311620000d957508793505050506001600160a01b038116620001265760405162461bcd60e51b81526004016200011d90620003b9565b60405180910390fd5b600080546001600160a01b0319166001600160a01b0383161781556040517fb532073b38c83145e3e5135377a08bf9aab55bc0fd7c1179cd4fb995d2a5159c916200017391849062000381565b60405180910390a1506000546001600160a01b0316620001a75760405162461bcd60e51b81526004016200011d90620003a7565b60005b60188110156200020f576000828260188110620001c357fe5b60200201511462000200576004828260188110620001dd57fe5b602090810291909101518254600181018455600093845291909220015562000206565b6200020f565b600101620001aa565b5050600280546001600160a01b0319166001600160a01b03929092169190911790555050601d805460ff1916600117905562000414565b826018810192821562000277579160200282015b82811115620002775782518255916020019190600101906200025a565b506200028592915062000289565b5090565b620002a691905b8082111562000285576000815560010162000290565b90565b8051620002b681620003fa565b92915050565b60008060408385031215620002d057600080fd5b6000620002de8585620002a9565b9250506020620002f185828601620002a9565b9150509250929050565b6200030681620003e6565b82525050565b6200030681620003d4565b600062000326601183620003cb565b7013dddb995c881b5d5cdd081899481cd95d607a1b815260200192915050565b600062000355601983620003cb565b7f4f776e657220616464726573732063616e6e6f74206265203000000000000000815260200192915050565b60408101620003918285620002fb565b620003a060208301846200030c565b9392505050565b60208082528101620002b68162000317565b60208082528101620002b68162000346565b90815260200190565b60006001600160a01b038216620002b6565b6000620002b6826000620002b682620003d4565b6200040581620003d4565b81146200041157600080fd5b50565b6116a380620004246000396000f3fe608060405234801561001057600080fd5b50600436106101005760003560e01c80638da5cb5b11610097578063c6c9d82811610066578063c6c9d828146101e6578063d7f5b35914610206578063e2ff2d4314610219578063e3235c911461022c57610100565b80638da5cb5b146101a3578063ab49848c146101ab578063b512105f146101c0578063b6b55f25146101d357610100565b80633c6b16ab116100d35780633c6b16ab1461016057806353a47bb714610173578063631e14441461018857806379ba50971461019b57610100565b806304f3bcec146101055780631627540c14610123578063186601ca146101385780633be99e6f1461014d575b600080fd5b61010d610234565b60405161011a91906114de565b60405180910390f35b610136610131366004610fab565b610243565b005b6101406102a1565b60405161011a91906114a3565b61013661015b366004611047565b6102aa565b61013661016e366004611065565b6103ae565b61017b610403565b60405161011a91906113ca565b610140610196366004611047565b610412565b61013661053e565b61017b6105da565b6101b36105e9565b60405161011a9190611494565b6101366101ce366004611065565b610633565b6101366101e1366004611065565b6106ce565b6101f96101f4366004611065565b6108f9565b60405161011a91906114b1565b610136610214366004610fab565b610917565b610136610227366004610fef565b610aa5565b6101f9610c55565b6002546001600160a01b031681565b61024b610c5a565b600180546001600160a01b0319166001600160a01b0383161790556040517f906a1c6bd7e3091ea86693dd029a831c19049ce77f1dce2ce0bab1cacbabce22906102969083906113ca565b60405180910390a150565b601d5460ff1681565b6102b2610c5a565b600280546001600160a01b0319166001600160a01b03831617905560005b6004548110156103aa576000600482815481106102e957fe5b60009182526020909120015460025460405163dacb2d0160e01b81529192506001600160a01b03169063dacb2d01906103269084906004016114bf565b60206040518083038186803b15801561033e57600080fd5b505afa158015610352573d6000803e3d6000fd5b505050506040513d601f19601f820116820180604052506103769190810190610fd1565b60009182526003602052604090912080546001600160a01b0319166001600160a01b039092169190911790556001016102d0565b5050565b6103b6610c86565b6103be610ca8565b6001600160a01b0316336001600160a01b0316146103f75760405162461bcd60e51b81526004016103ee9061155d565b60405180910390fd5b61040081610ce7565b50565b6001546001600160a01b031681565b6002546000906001600160a01b0383811691161461043257506000610539565b60005b6004548110156105335760006004828154811061044e57fe5b600091825260208083209091015480835260039091526040918290205460025492516321f8a72160e01b81529193506001600160a01b039081169216906321f8a7219061049f9085906004016114b1565b60206040518083038186803b1580156104b757600080fd5b505afa1580156104cb573d6000803e3d6000fd5b505050506040513d601f19601f820116820180604052506104ef9190810190610fd1565b6001600160a01b031614158061051a57506000818152600360205260409020546001600160a01b0316155b1561052a57600092505050610539565b50600101610435565b50600190505b919050565b6001546001600160a01b031633146105685760405162461bcd60e51b81526004016103ee906114fd565b6000546001546040517fb532073b38c83145e3e5135377a08bf9aab55bc0fd7c1179cd4fb995d2a5159c926105ab926001600160a01b039182169291169061143c565b60405180910390a160018054600080546001600160a01b03199081166001600160a01b03841617909155169055565b6000546001600160a01b031681565b6105f1610f4a565b60005b60045481101561062f576004818154811061060b57fe5b906000526020600020015482826018811061062257fe5b60200201526001016105f4565b5090565b61063b610c86565b610643610dd2565b6001600160a01b03166323b872dd3330846040518463ffffffff1660e01b8152600401610672939291906113d8565b602060405180830381600087803b15801561068c57600080fd5b505af11580156106a0573d6000803e3d6000fd5b505050506040513d601f19601f820116820180604052506106c49190810190611029565b5061040081610ce7565b6106d6610c86565b6106de610e1f565b6001600160a01b031663d37c4d8b336040518263ffffffff1660e01b81526004016107099190611400565b60206040518083038186803b15801561072157600080fd5b505afa158015610735573d6000803e3d6000fd5b505050506040513d601f19601f820116820180604052506107599190810190611083565b156107765760405162461bcd60e51b81526004016103ee9061151d565b61077e610dd2565b6001600160a01b03166323b872dd3330846040518463ffffffff1660e01b81526004016107ad939291906113d8565b602060405180830381600087803b1580156107c757600080fd5b505af11580156107db573d6000803e3d6000fd5b505050506040513d601f19601f820116820180604052506107ff9190810190611029565b506060338260405160240161081592919061141a565b60408051601f198184030181529190526020810180516001600160e01b0316630404d17160e01b1790529050610849610e62565b6001600160a01b0316633dbb202b61085f610eb3565b83622dc6c06040518463ffffffff1660e01b815260040161088293929190611465565b600060405180830381600087803b15801561089c57600080fd5b505af11580156108b0573d6000803e3d6000fd5b50505050336001600160a01b03167fe1fffcc4923d04b559f4d29a8bfc6cda04eb5b0d3c460751c2402c5c5cc9109c836040516108ed91906114b1565b60405180910390a25050565b6004818154811061090657fe5b600091825260209091200154905081565b61091f610c5a565b610927610c86565b6001600160a01b03811661094d5760405162461bcd60e51b81526004016103ee9061156d565b601d805460ff191690556000610961610dd2565b90506000816001600160a01b03166370a08231306040518263ffffffff1660e01b815260040161099191906113ca565b60206040518083038186803b1580156109a957600080fd5b505afa1580156109bd573d6000803e3d6000fd5b505050506040513d601f19601f820116820180604052506109e19190810190611083565b60405163a9059cbb60e01b81529091506001600160a01b0383169063a9059cbb90610a12908690859060040161141a565b602060405180830381600087803b158015610a2c57600080fd5b505af1158015610a40573d6000803e3d6000fd5b505050506040513d601f19601f82011682018060405250610a649190810190611029565b507fa1bbeeb6860c5db529c582b6bdbc57a2e9862ef771e5bed3a082f7d9da54904a308483604051610a9893929190611457565b60405180910390a1505050565b610aad610c86565b610ab5610e62565b6001600160a01b0316336001600160a01b031614610ae55760405162461bcd60e51b81526004016103ee9061154d565b610aed610eb3565b6001600160a01b0316610afe610e62565b6001600160a01b0316636e296e456040518163ffffffff1660e01b815260040160206040518083038186803b158015610b3657600080fd5b505afa158015610b4a573d6000803e3d6000fd5b505050506040513d601f19601f82011682018060405250610b6e9190810190610fd1565b6001600160a01b031614610b945760405162461bcd60e51b81526004016103ee9061150d565b610b9c610dd2565b6001600160a01b031663a9059cbb83836040518363ffffffff1660e01b8152600401610bc992919061141a565b602060405180830381600087803b158015610be357600080fd5b505af1158015610bf7573d6000803e3d6000fd5b505050506040513d601f19601f82011682018060405250610c1b9190810190611029565b50816001600160a01b03167f1a39b9c5044b9f0ff56c5951e30c1ebe24911353aafcceb9250e83a24fe158c4826040516108ed91906114b1565b601881565b6000546001600160a01b03163314610c845760405162461bcd60e51b81526004016103ee9061153d565b565b601d5460ff16610c845760405162461bcd60e51b81526004016103ee9061152d565b6000610ce2722932bbb0b93239a234b9ba3934b13aba34b7b760691b60405180606001604052806023815260200161163e60239139610f09565b905090565b606081604051602401610cfa91906114b1565b60408051601f198184030181529190526020810180516001600160e01b031663a6b96f5760e01b1790529050610d2e610e62565b6001600160a01b0316633dbb202b610d44610eb3565b83622dc6c06040518463ffffffff1660e01b8152600401610d6793929190611465565b600060405180830381600087803b158015610d8157600080fd5b505af1158015610d95573d6000803e3d6000fd5b50505050336001600160a01b03167f95bf5847357310d24f8d03d8bad76c8ee329dfd3a3cb200df21c7bd1619e93bd836040516108ed91906114b1565b6000610ce2680a6f2dce8d0cae8d2f60bb1b6040518060400160405280601981526020017f4d697373696e672053796e746865746978206164647265737300000000000000815250610f09565b6000610ce26524b9b9bab2b960d11b604051806040016040528060168152602001754d697373696e6720497373756572206164647265737360501b815250610f09565b6000610ce26c32bc3a1d26b2b9b9b2b733b2b960991b6040518060400160405280601981526020017f4d697373696e67204d657373656e676572206164647265737300000000000000815250610f09565b6000610ce27f6f766d3a53796e746865746978427269646765546f4261736500000000000000604051806040016040528060168152602001754d697373696e6720427269646765206164647265737360501b8152505b6000828152600360205260408120546001600160a01b03168281610f405760405162461bcd60e51b81526004016103ee91906114ec565b5090505b92915050565b6040518061030001604052806018906020820280388339509192915050565b8035610f448161160e565b8051610f448161160e565b8051610f4481611622565b8035610f448161162b565b8035610f4481611634565b8051610f4481611634565b600060208284031215610fbd57600080fd5b6000610fc98484610f69565b949350505050565b600060208284031215610fe357600080fd5b6000610fc98484610f74565b6000806040838503121561100257600080fd5b600061100e8585610f69565b925050602061101f85828601610f95565b9150509250929050565b60006020828403121561103b57600080fd5b6000610fc98484610f7f565b60006020828403121561105957600080fd5b6000610fc98484610f8a565b60006020828403121561107757600080fd5b6000610fc98484610f95565b60006020828403121561109557600080fd5b6000610fc98484610fa0565b60006110ad838361112a565b505060200190565b6110be816115c9565b82525050565b6110be81611599565b6110d681611580565b6110e08184610539565b92506110eb8261157d565b8060005b8381101561111957815161110387826110a1565b965061110e8361158a565b9250506001016110ef565b505050505050565b6110be816115a4565b6110be8161157d565b600061113e82611586565b6111488185611590565b93506111588185602086016115d4565b61116181611604565b9093019392505050565b6110be816115a9565b6000611181603583611590565b7f596f75206d757374206265206e6f6d696e61746564206265666f726520796f7581527402063616e20616363657074206f776e65727368697605c1b602082015260400192915050565b60006111d8601d83611590565b7f4f6e6c7920746865204c32206272696467652063616e20696e766f6b65000000815260200192915050565b6000611211601883611590565b7f43616e6e6f74206465706f736974207769746820646562740000000000000000815260200192915050565b600061124a601483611590565b73119d5b98dd1a5bdb8819195858dd1a5d985d195960621b815260200192915050565b600061127a602f83611590565b7f4f6e6c792074686520636f6e7472616374206f776e6572206d6179207065726681526e37b936903a3434b99030b1ba34b7b760891b602082015260400192915050565b631cd554d160e21b9052565b60006112d7601e83611590565b7f4f6e6c79207468652072656c617965722063616e2063616c6c20746869730000815260200192915050565b6000611310602a83611590565b7f43616c6c6572206973206e6f742052657761726473446973747269627574696f8152691b8818dbdb9d1c9858dd60b21b602082015260400192915050565b600061135c601b83611590565b7f43616e6e6f74206d69677261746520746f206164647265737320300000000000815260200192915050565b6000611395601783611590565b7f5265736f6c766572206d697373696e6720746172676574000000000000000000815260200192915050565b6110be816115c0565b60208101610f4482846110c4565b606081016113e682866110b5565b6113f360208301856110c4565b610fc9604083018461112a565b6040810161140e82846110b5565b610f44602083016112be565b6040810161142882856110c4565b611435602083018461112a565b9392505050565b6040810161144a82856110c4565b61143560208301846110c4565b606081016113e682866110c4565b6060810161147382866110c4565b81810360208301526114858185611133565b9050610fc960408301846113c1565b6103008101610f4482846110cd565b60208101610f448284611121565b60208101610f44828461112a565b604081016114cd828461112a565b818103602083015261143581611388565b60208101610f44828461116b565b602080825281016114358184611133565b60208082528101610f4481611174565b60208082528101610f44816111cb565b60208082528101610f4481611204565b60208082528101610f448161123d565b60208082528101610f448161126d565b60208082528101610f44816112ca565b60208082528101610f4481611303565b60208082528101610f448161134f565b90565b50601890565b5190565b60200190565b90815260200190565b6000610f44826115b4565b151590565b6000610f4482611599565b6001600160a01b031690565b63ffffffff1690565b6000610f44826115a9565b60005b838110156115ef5781810151838201526020016115d7565b838111156115fe576000848401525b50505050565b601f01601f191690565b61161781611599565b811461040057600080fd5b611617816115a4565b611617816115a9565b6116178161157d56fe4d697373696e672052657761726473446973747269627574696f6e2061646472657373a365627a7a7231582063cb1f8c7ea75bdaed54d299f379aecb3928111fa807216509848cacc3c019a26c6578706572696d656e74616cf564736f6c63430005100040",
			"opcodes": "PUSH2 0x120 PUSH1 0x40 MSTORE PUSH13 0x32BC3A1D26B2B9B9B2B733B2B9 PUSH1 0x99 SHL PUSH1 0x80 SWAP1 DUP2 MSTORE PUSH9 0xA6F2DCE8D0CAE8D2F PUSH1 0xBB SHL PUSH1 0xA0 MSTORE PUSH6 0x24B9B9BAB2B9 PUSH1 0xD1 SHL PUSH1 0xC0 MSTORE PUSH32 0x52657761726473446973747269627574696F6E00000000000000000000000000 PUSH1 0xE0 MSTORE PUSH32 0x6F766D3A53796E746865746978427269646765546F4261736500000000000000 PUSH2 0x100 MSTORE PUSH3 0x90 SWAP1 PUSH1 0x5 SWAP1 DUP2 PUSH3 0x246 JUMP JUMPDEST POP CALLVALUE DUP1 ISZERO PUSH3 0x9E JUMPI PUSH1 0x0 DUP1 REVERT JUMPDEST POP PUSH1 0x40 MLOAD PUSH3 0x1AC7 CODESIZE SUB DUP1 PUSH3 0x1AC7 DUP4 CODECOPY DUP2 ADD PUSH1 0x40 DUP2 SWAP1 MSTORE PUSH3 0xC1 SWAP2 PUSH3 0x2BC JUMP JUMPDEST PUSH1 0x40 DUP1 MLOAD PUSH2 0x300 DUP2 ADD SWAP2 DUP3 SWAP1 MSTORE DUP3 SWAP2 PUSH1 0x5 SWAP1 PUSH1 0x18 SWAP1 DUP3 DUP5 JUMPDEST DUP2 SLOAD DUP2 MSTORE PUSH1 0x20 ADD SWAP1 PUSH1 0x1 ADD SWAP1 DUP1 DUP4 GT PUSH3 0xD9 JUMPI POP DUP8 SWAP4 POP POP POP POP PUSH1 0x1 PUSH1 0x1 PUSH1 0xA0 SHL SUB DUP2 AND PUSH3 0x126 JUMPI PUSH1 0x40 MLOAD PUSH3 0x461BCD PUSH1 0xE5 SHL DUP2 MSTORE PUSH1 0x4 ADD PUSH3 0x11D SWAP1 PUSH3 0x3B9 JUMP JUMPDEST PUSH1 0x40 MLOAD DUP1 SWAP2 SUB SWAP1 REVERT JUMPDEST PUSH1 0x0 DUP1 SLOAD PUSH1 0x1 PUSH1 0x1 PUSH1 0xA0 SHL SUB NOT AND PUSH1 0x1 PUSH1 0x1 PUSH1 0xA0 SHL SUB DUP4 AND OR DUP2 SSTORE PUSH1 0x40 MLOAD PUSH32 0xB532073B38C83145E3E5135377A08BF9AAB55BC0FD7C1179CD4FB995D2A5159C SWAP2 PUSH3 0x173 SWAP2 DUP5 SWAP1 PUSH3 0x381 JUMP JUMPDEST PUSH1 0x40 MLOAD DUP1 SWAP2 SUB SWAP1 LOG1 POP PUSH1 0x0 SLOAD PUSH1 0x1 PUSH1 0x1 PUSH1 0xA0 SHL SUB AND PUSH3 0x1A7 JUMPI PUSH1 0x40 MLOAD PUSH3 0x461BCD PUSH1 0xE5 SHL DUP2 MSTORE PUSH1 0x4 ADD PUSH3 0x11D SWAP1 PUSH3 0x3A7 JUMP JUMPDEST PUSH1 0x0 JUMPDEST PUSH1 0x18 DUP2 LT ISZERO PUSH3 0x20F JUMPI PUSH1 0x0 DUP3 DUP3 PUSH1 0x18 DUP2 LT PUSH3 0x1C3 JUMPI INVALID JUMPDEST PUSH1 0x20 MUL ADD MLOAD EQ PUSH3 0x200 JUMPI PUSH1 0x4 DUP3 DUP3 PUSH1 0x18 DUP2 LT PUSH3 0x1DD JUMPI INVALID JUMPDEST PUSH1 0x20 SWAP1 DUP2 MUL SWAP2 SWAP1 SWAP2 ADD MLOAD DUP3 SLOAD PUSH1 0x1 DUP2 ADD DUP5 SSTORE PUSH1 0x0 SWAP4 DUP5 MSTORE SWAP2 SWAP1 SWAP3 KECCAK256 ADD SSTORE PUSH3 0x206 JUMP JUMPDEST PUSH3 0x20F JUMP JUMPDEST PUSH1 0x1 ADD PUSH3 0x1AA JUMP JUMPDEST POP POP PUSH1 0x2 DUP1 SLOAD PUSH1 0x1 PUSH1 0x1 PUSH1 0xA0 SHL SUB NOT AND PUSH1 0x1 PUSH1 0x1 PUSH1 0xA0 SHL SUB SWAP3 SWAP1 SWAP3 AND SWAP2 SWAP1 SWAP2 OR SWAP1 SSTORE POP POP PUSH1 0x1D DUP1 SLOAD PUSH1 0xFF NOT AND PUSH1 0x1 OR SWAP1 SSTORE PUSH3 0x414 JUMP JUMPDEST DUP3 PUSH1 0x18 DUP2 ADD SWAP3 DUP3 ISZERO PUSH3 0x277 JUMPI SWAP2 PUSH1 0x20 MUL DUP3 ADD JUMPDEST DUP3 DUP2 GT ISZERO PUSH3 0x277 JUMPI DUP3 MLOAD DUP3 SSTORE SWAP2 PUSH1 0x20 ADD SWAP2 SWAP1 PUSH1 0x1 ADD SWAP1 PUSH3 0x25A JUMP JUMPDEST POP PUSH3 0x285 SWAP3 SWAP2 POP PUSH3 0x289 JUMP JUMPDEST POP SWAP1 JUMP JUMPDEST PUSH3 0x2A6 SWAP2 SWAP1 JUMPDEST DUP1 DUP3 GT ISZERO PUSH3 0x285 JUMPI PUSH1 0x0 DUP2 SSTORE PUSH1 0x1 ADD PUSH3 0x290 JUMP JUMPDEST SWAP1 JUMP JUMPDEST DUP1 MLOAD PUSH3 0x2B6 DUP2 PUSH3 0x3FA JUMP JUMPDEST SWAP3 SWAP2 POP POP JUMP JUMPDEST PUSH1 0x0 DUP1 PUSH1 0x40 DUP4 DUP6 SUB SLT ISZERO PUSH3 0x2D0 JUMPI PUSH1 0x0 DUP1 REVERT JUMPDEST PUSH1 0x0 PUSH3 0x2DE DUP6 DUP6 PUSH3 0x2A9 JUMP JUMPDEST SWAP3 POP POP PUSH1 0x20 PUSH3 0x2F1 DUP6 DUP3 DUP7 ADD PUSH3 0x2A9 JUMP JUMPDEST SWAP2 POP POP SWAP3 POP SWAP3 SWAP1 POP JUMP JUMPDEST PUSH3 0x306 DUP2 PUSH3 0x3E6 JUMP JUMPDEST DUP3 MSTORE POP POP JUMP JUMPDEST PUSH3 0x306 DUP2 PUSH3 0x3D4 JUMP JUMPDEST PUSH1 0x0 PUSH3 0x326 PUSH1 0x11 DUP4 PUSH3 0x3CB JUMP JUMPDEST PUSH17 0x13DDDB995C881B5D5CDD081899481CD95D PUSH1 0x7A SHL DUP2 MSTORE PUSH1 0x20 ADD SWAP3 SWAP2 POP POP JUMP JUMPDEST PUSH1 0x0 PUSH3 0x355 PUSH1 0x19 DUP4 PUSH3 0x3CB JUMP JUMPDEST PUSH32 0x4F776E657220616464726573732063616E6E6F74206265203000000000000000 DUP2 MSTORE PUSH1 0x20 ADD SWAP3 SWAP2 POP POP JUMP JUMPDEST PUSH1 0x40 DUP2 ADD PUSH3 0x391 DUP3 DUP6 PUSH3 0x2FB JUMP JUMPDEST PUSH3 0x3A0 PUSH1 0x20 DUP4 ADD DUP5 PUSH3 0x30C JUMP JUMPDEST SWAP4 SWAP3 POP POP POP JUMP JUMPDEST PUSH1 0x20 DUP1 DUP3 MSTORE DUP2 ADD PUSH3 0x2B6 DUP2 PUSH3 0x317 JUMP JUMPDEST PUSH1 0x20 DUP1 DUP3 MSTORE DUP2 ADD PUSH3 0x2B6 DUP2 PUSH3 0x346 JUMP JUMPDEST SWAP1 DUP2 MSTORE PUSH1 0x20 ADD SWAP1 JUMP JUMPDEST PUSH1 0x0 PUSH1 0x1 PUSH1 0x1 PUSH1 0xA0 SHL SUB DUP3 AND PUSH3 0x2B6 JUMP JUMPDEST PUSH1 0x0 PUSH3 0x2B6 DUP3 PUSH1 0x0 PUSH3 0x2B6 DUP3 PUSH3 0x3D4 JUMP JUMPDEST PUSH3 0x405 DUP2 PUSH3 0x3D4 JUMP JUMPDEST DUP2 EQ PUSH3 0x411 JUMPI PUSH1 0x0 DUP1 REVERT JUMPDEST POP JUMP JUMPDEST PUSH2 0x16A3 DUP1 PUSH3 0x424 PUSH1 0x0 CODECOPY PUSH1 0x0 RETURN INVALID PUSH1 0x80 PUSH1 0x40 MSTORE CALLVALUE DUP1 ISZERO PUSH2 0x10 JUMPI PUSH1 0x0 DUP1 REVERT JUMPDEST POP PUSH1 0x4 CALLDATASIZE LT PUSH2 0x100 JUMPI PUSH1 0x0 CALLDATALOAD PUSH1 0xE0 SHR DUP1 PUSH4 0x8DA5CB5B GT PUSH2 0x97 JUMPI DUP1 PUSH4 0xC6C9D828 GT PUSH2 0x66 JUMPI DUP1 PUSH4 0xC6C9D828 EQ PUSH2 0x1E6 JUMPI DUP1 PUSH4 0xD7F5B359 EQ PUSH2 0x206 JUMPI DUP1 PUSH4 0xE2FF2D43 EQ PUSH2 0x219 JUMPI DUP1 PUSH4 0xE3235C91 EQ PUSH2 0x22C JUMPI PUSH2 0x100 JUMP JUMPDEST DUP1 PUSH4 0x8DA5CB5B EQ PUSH2 0x1A3 JUMPI DUP1 PUSH4 0xAB49848C EQ PUSH2 0x1AB JUMPI DUP1 PUSH4 0xB512105F EQ PUSH2 0x1C0 JUMPI DUP1 PUSH4 0xB6B55F25 EQ PUSH2 0x1D3 JUMPI PUSH2 0x100 JUMP JUMPDEST DUP1 PUSH4 0x3C6B16AB GT PUSH2 0xD3 JUMPI DUP1 PUSH4 0x3C6B16AB EQ PUSH2 0x160 JUMPI DUP1 PUSH4 0x53A47BB7 EQ PUSH2 0x173 JUMPI DUP1 PUSH4 0x631E1444 EQ PUSH2 0x188 JUMPI DUP1 PUSH4 0x79BA5097 EQ PUSH2 0x19B JUMPI PUSH2 0x100 JUMP JUMPDEST DUP1 PUSH4 0x4F3BCEC EQ PUSH2 0x105 JUMPI DUP1 PUSH4 0x1627540C EQ PUSH2 0x123 JUMPI DUP1 PUSH4 0x186601CA EQ PUSH2 0x138 JUMPI DUP1 PUSH4 0x3BE99E6F EQ PUSH2 0x14D JUMPI JUMPDEST PUSH1 0x0 DUP1 REVERT JUMPDEST PUSH2 0x10D PUSH2 0x234 JUMP JUMPDEST PUSH1 0x40 MLOAD PUSH2 0x11A SWAP2 SWAP1 PUSH2 0x14DE JUMP JUMPDEST PUSH1 0x40 MLOAD DUP1 SWAP2 SUB SWAP1 RETURN JUMPDEST PUSH2 0x136 PUSH2 0x131 CALLDATASIZE PUSH1 0x4 PUSH2 0xFAB JUMP JUMPDEST PUSH2 0x243 JUMP JUMPDEST STOP JUMPDEST PUSH2 0x140 PUSH2 0x2A1 JUMP JUMPDEST PUSH1 0x40 MLOAD PUSH2 0x11A SWAP2 SWAP1 PUSH2 0x14A3 JUMP JUMPDEST PUSH2 0x136 PUSH2 0x15B CALLDATASIZE PUSH1 0x4 PUSH2 0x1047 JUMP JUMPDEST PUSH2 0x2AA JUMP JUMPDEST PUSH2 0x136 PUSH2 0x16E CALLDATASIZE PUSH1 0x4 PUSH2 0x1065 JUMP JUMPDEST PUSH2 0x3AE JUMP JUMPDEST PUSH2 0x17B PUSH2 0x403 JUMP JUMPDEST PUSH1 0x40 MLOAD PUSH2 0x11A SWAP2 SWAP1 PUSH2 0x13CA JUMP JUMPDEST PUSH2 0x140 PUSH2 0x196 CALLDATASIZE PUSH1 0x4 PUSH2 0x1047 JUMP JUMPDEST PUSH2 0x412 JUMP JUMPDEST PUSH2 0x136 PUSH2 0x53E JUMP JUMPDEST PUSH2 0x17B PUSH2 0x5DA JUMP JUMPDEST PUSH2 0x1B3 PUSH2 0x5E9 JUMP JUMPDEST PUSH1 0x40 MLOAD PUSH2 0x11A SWAP2 SWAP1 PUSH2 0x1494 JUMP JUMPDEST PUSH2 0x136 PUSH2 0x1CE CALLDATASIZE PUSH1 0x4 PUSH2 0x1065 JUMP JUMPDEST PUSH2 0x633 JUMP JUMPDEST PUSH2 0x136 PUSH2 0x1E1 CALLDATASIZE PUSH1 0x4 PUSH2 0x1065 JUMP JUMPDEST PUSH2 0x6CE JUMP JUMPDEST PUSH2 0x1F9 PUSH2 0x1F4 CALLDATASIZE PUSH1 0x4 PUSH2 0x1065 JUMP JUMPDEST PUSH2 0x8F9 JUMP JUMPDEST PUSH1 0x40 MLOAD PUSH2 0x11A SWAP2 SWAP1 PUSH2 0x14B1 JUMP JUMPDEST PUSH2 0x136 PUSH2 0x214 CALLDATASIZE PUSH1 0x4 PUSH2 0xFAB JUMP JUMPDEST PUSH2 0x917 JUMP JUMPDEST PUSH2 0x136 PUSH2 0x227 CALLDATASIZE PUSH1 0x4 PUSH2 0xFEF JUMP JUMPDEST PUSH2 0xAA5 JUMP JUMPDEST PUSH2 0x1F9 PUSH2 0xC55 JUMP JUMPDEST PUSH1 0x2 SLOAD PUSH1 0x1 PUSH1 0x1 PUSH1 0xA0 SHL SUB AND DUP2 JUMP JUMPDEST PUSH2 0x24B PUSH2 0xC5A JUMP JUMPDEST PUSH1 0x1 DUP1 SLOAD PUSH1 0x1 PUSH1 0x1 PUSH1 0xA0 SHL SUB NOT AND PUSH1 0x1 PUSH1 0x1 PUSH1 0xA0 SHL SUB DUP4 AND OR SWAP1 SSTORE PUSH1 0x40 MLOAD PUSH32 0x906A1C6BD7E3091EA86693DD029A831C19049CE77F1DCE2CE0BAB1CACBABCE22 SWAP1 PUSH2 0x296 SWAP1 DUP4 SWAP1 PUSH2 0x13CA JUMP JUMPDEST PUSH1 0x40 MLOAD DUP1 SWAP2 SUB SWAP1 LOG1 POP JUMP JUMPDEST PUSH1 0x1D SLOAD PUSH1 0xFF AND DUP2 JUMP JUMPDEST PUSH2 0x2B2 PUSH2 0xC5A JUMP JUMPDEST PUSH1 0x2 DUP1 SLOAD PUSH1 0x1 PUSH1 0x1 PUSH1 0xA0 SHL SUB NOT AND PUSH1 0x1 PUSH1 0x1 PUSH1 0xA0 SHL SUB DUP4 AND OR SWAP1 SSTORE PUSH1 0x0 JUMPDEST PUSH1 0x4 SLOAD DUP2 LT ISZERO PUSH2 0x3AA JUMPI PUSH1 0x0 PUSH1 0x4 DUP3 DUP2 SLOAD DUP2 LT PUSH2 0x2E9 JUMPI INVALID JUMPDEST PUSH1 0x0 SWAP2 DUP3 MSTORE PUSH1 0x20 SWAP1 SWAP2 KECCAK256 ADD SLOAD PUSH1 0x2 SLOAD PUSH1 0x40 MLOAD PUSH4 0xDACB2D01 PUSH1 0xE0 SHL DUP2 MSTORE SWAP2 SWAP3 POP PUSH1 0x1 PUSH1 0x1 PUSH1 0xA0 SHL SUB AND SWAP1 PUSH4 0xDACB2D01 SWAP1 PUSH2 0x326 SWAP1 DUP5 SWAP1 PUSH1 0x4 ADD PUSH2 0x14BF JUMP JUMPDEST PUSH1 0x20 PUSH1 0x40 MLOAD DUP1 DUP4 SUB DUP2 DUP7 DUP1 EXTCODESIZE ISZERO DUP1 ISZERO PUSH2 0x33E JUMPI PUSH1 0x0 DUP1 REVERT JUMPDEST POP GAS STATICCALL ISZERO DUP1 ISZERO PUSH2 0x352 JUMPI RETURNDATASIZE PUSH1 0x0 DUP1 RETURNDATACOPY RETURNDATASIZE PUSH1 0x0 REVERT JUMPDEST POP POP POP POP PUSH1 0x40 MLOAD RETURNDATASIZE PUSH1 0x1F NOT PUSH1 0x1F DUP3 ADD AND DUP3 ADD DUP1 PUSH1 0x40 MSTORE POP PUSH2 0x376 SWAP2 SWAP1 DUP2 ADD SWAP1 PUSH2 0xFD1 JUMP JUMPDEST PUSH1 0x0 SWAP2 DUP3 MSTORE PUSH1 0x3 PUSH1 0x20 MSTORE PUSH1 0x40 SWAP1 SWAP2 KECCAK256 DUP1 SLOAD PUSH1 0x1 PUSH1 0x1 PUSH1 0xA0 SHL SUB NOT AND PUSH1 0x1 PUSH1 0x1 PUSH1 0xA0 SHL SUB SWAP1 SWAP3 AND SWAP2 SWAP1 SWAP2 OR SWAP1 SSTORE PUSH1 0x1 ADD PUSH2 0x2D0 JUMP JUMPDEST POP POP JUMP JUMPDEST PUSH2 0x3B6 PUSH2 0xC86 JUMP JUMPDEST PUSH2 0x3BE PUSH2 0xCA8 JUMP JUMPDEST PUSH1 0x1 PUSH1 0x1 PUSH1 0xA0 SHL SUB AND CALLER PUSH1 0x1 PUSH1 0x1 PUSH1 0xA0 SHL SUB AND EQ PUSH2 0x3F7 JUMPI PUSH1 0x40 MLOAD PUSH3 0x461BCD PUSH1 0xE5 SHL DUP2 MSTORE PUSH1 0x4 ADD PUSH2 0x3EE SWAP1 PUSH2 0x155D JUMP JUMPDEST PUSH1 0x40 MLOAD DUP1 SWAP2 SUB SWAP1 REVERT JUMPDEST PUSH2 0x400 DUP2 PUSH2 0xCE7 JUMP JUMPDEST POP JUMP JUMPDEST PUSH1 0x1 SLOAD PUSH1 0x1 PUSH1 0x1 PUSH1 0xA0 SHL SUB AND DUP2 JUMP JUMPDEST PUSH1 0x2 SLOAD PUSH1 0x0 SWAP1 PUSH1 0x1 PUSH1 0x1 PUSH1 0xA0 SHL SUB DUP4 DUP2 AND SWAP2 AND EQ PUSH2 0x432 JUMPI POP PUSH1 0x0 PUSH2 0x539 JUMP JUMPDEST PUSH1 0x0 JUMPDEST PUSH1 0x4 SLOAD DUP2 LT ISZERO PUSH2 0x533 JUMPI PUSH1 0x0 PUSH1 0x4 DUP3 DUP2 SLOAD DUP2 LT PUSH2 0x44E JUMPI INVALID JUMPDEST PUSH1 0x0 SWAP2 DUP3 MSTORE PUSH1 0x20 DUP1 DUP4 KECCAK256 SWAP1 SWAP2 ADD SLOAD DUP1 DUP4 MSTORE PUSH1 0x3 SWAP1 SWAP2 MSTORE PUSH1 0x40 SWAP2 DUP3 SWAP1 KECCAK256 SLOAD PUSH1 0x2 SLOAD SWAP3 MLOAD PUSH4 0x21F8A721 PUSH1 0xE0 SHL DUP2 MSTORE SWAP2 SWAP4 POP PUSH1 0x1 PUSH1 0x1 PUSH1 0xA0 SHL SUB SWAP1 DUP2 AND SWAP3 AND SWAP1 PUSH4 0x21F8A721 SWAP1 PUSH2 0x49F SWAP1 DUP6 SWAP1 PUSH1 0x4 ADD PUSH2 0x14B1 JUMP JUMPDEST PUSH1 0x20 PUSH1 0x40 MLOAD DUP1 DUP4 SUB DUP2 DUP7 DUP1 EXTCODESIZE ISZERO DUP1 ISZERO PUSH2 0x4B7 JUMPI PUSH1 0x0 DUP1 REVERT JUMPDEST POP GAS STATICCALL ISZERO DUP1 ISZERO PUSH2 0x4CB JUMPI RETURNDATASIZE PUSH1 0x0 DUP1 RETURNDATACOPY RETURNDATASIZE PUSH1 0x0 REVERT JUMPDEST POP POP POP POP PUSH1 0x40 MLOAD RETURNDATASIZE PUSH1 0x1F NOT PUSH1 0x1F DUP3 ADD AND DUP3 ADD DUP1 PUSH1 0x40 MSTORE POP PUSH2 0x4EF SWAP2 SWAP1 DUP2 ADD SWAP1 PUSH2 0xFD1 JUMP JUMPDEST PUSH1 0x1 PUSH1 0x1 PUSH1 0xA0 SHL SUB AND EQ ISZERO DUP1 PUSH2 0x51A JUMPI POP PUSH1 0x0 DUP2 DUP2 MSTORE PUSH1 0x3 PUSH1 0x20 MSTORE PUSH1 0x40 SWAP1 KECCAK256 SLOAD PUSH1 0x1 PUSH1 0x1 PUSH1 0xA0 SHL SUB AND ISZERO JUMPDEST ISZERO PUSH2 0x52A JUMPI PUSH1 0x0 SWAP3 POP POP POP PUSH2 0x539 JUMP JUMPDEST POP PUSH1 0x1 ADD PUSH2 0x435 JUMP JUMPDEST POP PUSH1 0x1 SWAP1 POP JUMPDEST SWAP2 SWAP1 POP JUMP JUMPDEST PUSH1 0x1 SLOAD PUSH1 0x1 PUSH1 0x1 PUSH1 0xA0 SHL SUB AND CALLER EQ PUSH2 0x568 JUMPI PUSH1 0x40 MLOAD PUSH3 0x461BCD PUSH1 0xE5 SHL DUP2 MSTORE PUSH1 0x4 ADD PUSH2 0x3EE SWAP1 PUSH2 0x14FD JUMP JUMPDEST PUSH1 0x0 SLOAD PUSH1 0x1 SLOAD PUSH1 0x40 MLOAD PUSH32 0xB532073B38C83145E3E5135377A08BF9AAB55BC0FD7C1179CD4FB995D2A5159C SWAP3 PUSH2 0x5AB SWAP3 PUSH1 0x1 PUSH1 0x1 PUSH1 0xA0 SHL SUB SWAP2 DUP3 AND SWAP3 SWAP2 AND SWAP1 PUSH2 0x143C JUMP JUMPDEST PUSH1 0x40 MLOAD DUP1 SWAP2 SUB SWAP1 LOG1 PUSH1 0x1 DUP1 SLOAD PUSH1 0x0 DUP1 SLOAD PUSH1 0x1 PUSH1 0x1 PUSH1 0xA0 SHL SUB NOT SWAP1 DUP2 AND PUSH1 0x1 PUSH1 0x1 PUSH1 0xA0 SHL SUB DUP5 AND OR SWAP1 SWAP2 SSTORE AND SWAP1 SSTORE JUMP JUMPDEST PUSH1 0x0 SLOAD PUSH1 0x1 PUSH1 0x1 PUSH1 0xA0 SHL SUB AND DUP2 JUMP JUMPDEST PUSH2 0x5F1 PUSH2 0xF4A JUMP JUMPDEST PUSH1 0x0 JUMPDEST PUSH1 0x4 SLOAD DUP2 LT ISZERO PUSH2 0x62F JUMPI PUSH1 0x4 DUP2 DUP2 SLOAD DUP2 LT PUSH2 0x60B JUMPI INVALID JUMPDEST SWAP1 PUSH1 0x0 MSTORE PUSH1 0x20 PUSH1 0x0 KECCAK256 ADD SLOAD DUP3 DUP3 PUSH1 0x18 DUP2 LT PUSH2 0x622 JUMPI INVALID JUMPDEST PUSH1 0x20 MUL ADD MSTORE PUSH1 0x1 ADD PUSH2 0x5F4 JUMP JUMPDEST POP SWAP1 JUMP JUMPDEST PUSH2 0x63B PUSH2 0xC86 JUMP JUMPDEST PUSH2 0x643 PUSH2 0xDD2 JUMP JUMPDEST PUSH1 0x1 PUSH1 0x1 PUSH1 0xA0 SHL SUB AND PUSH4 0x23B872DD CALLER ADDRESS DUP5 PUSH1 0x40 MLOAD DUP5 PUSH4 0xFFFFFFFF AND PUSH1 0xE0 SHL DUP2 MSTORE PUSH1 0x4 ADD PUSH2 0x672 SWAP4 SWAP3 SWAP2 SWAP1 PUSH2 0x13D8 JUMP JUMPDEST PUSH1 0x20 PUSH1 0x40 MLOAD DUP1 DUP4 SUB DUP2 PUSH1 0x0 DUP8 DUP1 EXTCODESIZE ISZERO DUP1 ISZERO PUSH2 0x68C JUMPI PUSH1 0x0 DUP1 REVERT JUMPDEST POP GAS CALL ISZERO DUP1 ISZERO PUSH2 0x6A0 JUMPI RETURNDATASIZE PUSH1 0x0 DUP1 RETURNDATACOPY RETURNDATASIZE PUSH1 0x0 REVERT JUMPDEST POP POP POP POP PUSH1 0x40 MLOAD RETURNDATASIZE PUSH1 0x1F NOT PUSH1 0x1F DUP3 ADD AND DUP3 ADD DUP1 PUSH1 0x40 MSTORE POP PUSH2 0x6C4 SWAP2 SWAP1 DUP2 ADD SWAP1 PUSH2 0x1029 JUMP JUMPDEST POP PUSH2 0x400 DUP2 PUSH2 0xCE7 JUMP JUMPDEST PUSH2 0x6D6 PUSH2 0xC86 JUMP JUMPDEST PUSH2 0x6DE PUSH2 0xE1F JUMP JUMPDEST PUSH1 0x1 PUSH1 0x1 PUSH1 0xA0 SHL SUB AND PUSH4 0xD37C4D8B CALLER PUSH1 0x40 MLOAD DUP3 PUSH4 0xFFFFFFFF AND PUSH1 0xE0 SHL DUP2 MSTORE PUSH1 0x4 ADD PUSH2 0x709 SWAP2 SWAP1 PUSH2 0x1400 JUMP JUMPDEST PUSH1 0x20 PUSH1 0x40 MLOAD DUP1 DUP4 SUB DUP2 DUP7 DUP1 EXTCODESIZE ISZERO DUP1 ISZERO PUSH2 0x721 JUMPI PUSH1 0x0 DUP1 REVERT JUMPDEST POP GAS STATICCALL ISZERO DUP1 ISZERO PUSH2 0x735 JUMPI RETURNDATASIZE PUSH1 0x0 DUP1 RETURNDATACOPY RETURNDATASIZE PUSH1 0x0 REVERT JUMPDEST POP POP POP POP PUSH1 0x40 MLOAD RETURNDATASIZE PUSH1 0x1F NOT PUSH1 0x1F DUP3 ADD AND DUP3 ADD DUP1 PUSH1 0x40 MSTORE POP PUSH2 0x759 SWAP2 SWAP1 DUP2 ADD SWAP1 PUSH2 0x1083 JUMP JUMPDEST ISZERO PUSH2 0x776 JUMPI PUSH1 0x40 MLOAD PUSH3 0x461BCD PUSH1 0xE5 SHL DUP2 MSTORE PUSH1 0x4 ADD PUSH2 0x3EE SWAP1 PUSH2 0x151D JUMP JUMPDEST PUSH2 0x77E PUSH2 0xDD2 JUMP JUMPDEST PUSH1 0x1 PUSH1 0x1 PUSH1 0xA0 SHL SUB AND PUSH4 0x23B872DD CALLER ADDRESS DUP5 PUSH1 0x40 MLOAD DUP5 PUSH4 0xFFFFFFFF AND PUSH1 0xE0 SHL DUP2 MSTORE PUSH1 0x4 ADD PUSH2 0x7AD SWAP4 SWAP3 SWAP2 SWAP1 PUSH2 0x13D8 JUMP JUMPDEST PUSH1 0x20 PUSH1 0x40 MLOAD DUP1 DUP4 SUB DUP2 PUSH1 0x0 DUP8 DUP1 EXTCODESIZE ISZERO DUP1 ISZERO PUSH2 0x7C7 JUMPI PUSH1 0x0 DUP1 REVERT JUMPDEST POP GAS CALL ISZERO DUP1 ISZERO PUSH2 0x7DB JUMPI RETURNDATASIZE PUSH1 0x0 DUP1 RETURNDATACOPY RETURNDATASIZE PUSH1 0x0 REVERT JUMPDEST POP POP POP POP PUSH1 0x40 MLOAD RETURNDATASIZE PUSH1 0x1F NOT PUSH1 0x1F DUP3 ADD AND DUP3 ADD DUP1 PUSH1 0x40 MSTORE POP PUSH2 0x7FF SWAP2 SWAP1 DUP2 ADD SWAP1 PUSH2 0x1029 JUMP JUMPDEST POP PUSH1 0x60 CALLER DUP3 PUSH1 0x40 MLOAD PUSH1 0x24 ADD PUSH2 0x815 SWAP3 SWAP2 SWAP1 PUSH2 0x141A JUMP JUMPDEST PUSH1 0x40 DUP1 MLOAD PUSH1 0x1F NOT DUP2 DUP5 SUB ADD DUP2 MSTORE SWAP2 SWAP1 MSTORE PUSH1 0x20 DUP2 ADD DUP1 MLOAD PUSH1 0x1 PUSH1 0x1 PUSH1 0xE0 SHL SUB AND PUSH4 0x404D171 PUSH1 0xE0 SHL OR SWAP1 MSTORE SWAP1 POP PUSH2 0x849 PUSH2 0xE62 JUMP JUMPDEST PUSH1 0x1 PUSH1 0x1 PUSH1 0xA0 SHL SUB AND PUSH4 0x3DBB202B PUSH2 0x85F PUSH2 0xEB3 JUMP JUMPDEST DUP4 PUSH3 0x2DC6C0 PUSH1 0x40 MLOAD DUP5 PUSH4 0xFFFFFFFF AND PUSH1 0xE0 SHL DUP2 MSTORE PUSH1 0x4 ADD PUSH2 0x882 SWAP4 SWAP3 SWAP2 SWAP1 PUSH2 0x1465 JUMP JUMPDEST PUSH1 0x0 PUSH1 0x40 MLOAD DUP1 DUP4 SUB DUP2 PUSH1 0x0 DUP8 DUP1 EXTCODESIZE ISZERO DUP1 ISZERO PUSH2 0x89C JUMPI PUSH1 0x0 DUP1 REVERT JUMPDEST POP GAS CALL ISZERO DUP1 ISZERO PUSH2 0x8B0 JUMPI RETURNDATASIZE PUSH1 0x0 DUP1 RETURNDATACOPY RETURNDATASIZE PUSH1 0x0 REVERT JUMPDEST POP POP POP POP CALLER PUSH1 0x1 PUSH1 0x1 PUSH1 0xA0 SHL SUB AND PUSH32 0xE1FFFCC4923D04B559F4D29A8BFC6CDA04EB5B0D3C460751C2402C5C5CC9109C DUP4 PUSH1 0x40 MLOAD PUSH2 0x8ED SWAP2 SWAP1 PUSH2 0x14B1 JUMP JUMPDEST PUSH1 0x40 MLOAD DUP1 SWAP2 SUB SWAP1 LOG2 POP POP JUMP JUMPDEST PUSH1 0x4 DUP2 DUP2 SLOAD DUP2 LT PUSH2 0x906 JUMPI INVALID JUMPDEST PUSH1 0x0 SWAP2 DUP3 MSTORE PUSH1 0x20 SWAP1 SWAP2 KECCAK256 ADD SLOAD SWAP1 POP DUP2 JUMP JUMPDEST PUSH2 0x91F PUSH2 0xC5A JUMP JUMPDEST PUSH2 0x927 PUSH2 0xC86 JUMP JUMPDEST PUSH1 0x1 PUSH1 0x1 PUSH1 0xA0 SHL SUB DUP2 AND PUSH2 0x94D JUMPI PUSH1 0x40 MLOAD PUSH3 0x461BCD PUSH1 0xE5 SHL DUP2 MSTORE PUSH1 0x4 ADD PUSH2 0x3EE SWAP1 PUSH2 0x156D JUMP JUMPDEST PUSH1 0x1D DUP1 SLOAD PUSH1 0xFF NOT AND SWAP1 SSTORE PUSH1 0x0 PUSH2 0x961 PUSH2 0xDD2 JUMP JUMPDEST SWAP1 POP PUSH1 0x0 DUP2 PUSH1 0x1 PUSH1 0x1 PUSH1 0xA0 SHL SUB AND PUSH4 0x70A08231 ADDRESS PUSH1 0x40 MLOAD DUP3 PUSH4 0xFFFFFFFF AND PUSH1 0xE0 SHL DUP2 MSTORE PUSH1 0x4 ADD PUSH2 0x991 SWAP2 SWAP1 PUSH2 0x13CA JUMP JUMPDEST PUSH1 0x20 PUSH1 0x40 MLOAD DUP1 DUP4 SUB DUP2 DUP7 DUP1 EXTCODESIZE ISZERO DUP1 ISZERO PUSH2 0x9A9 JUMPI PUSH1 0x0 DUP1 REVERT JUMPDEST POP GAS STATICCALL ISZERO DUP1 ISZERO PUSH2 0x9BD JUMPI RETURNDATASIZE PUSH1 0x0 DUP1 RETURNDATACOPY RETURNDATASIZE PUSH1 0x0 REVERT JUMPDEST POP POP POP POP PUSH1 0x40 MLOAD RETURNDATASIZE PUSH1 0x1F NOT PUSH1 0x1F DUP3 ADD AND DUP3 ADD DUP1 PUSH1 0x40 MSTORE POP PUSH2 0x9E1 SWAP2 SWAP1 DUP2 ADD SWAP1 PUSH2 0x1083 JUMP JUMPDEST PUSH1 0x40 MLOAD PUSH4 0xA9059CBB PUSH1 0xE0 SHL DUP2 MSTORE SWAP1 SWAP2 POP PUSH1 0x1 PUSH1 0x1 PUSH1 0xA0 SHL SUB DUP4 AND SWAP1 PUSH4 0xA9059CBB SWAP1 PUSH2 0xA12 SWAP1 DUP7 SWAP1 DUP6 SWAP1 PUSH1 0x4 ADD PUSH2 0x141A JUMP JUMPDEST PUSH1 0x20 PUSH1 0x40 MLOAD DUP1 DUP4 SUB DUP2 PUSH1 0x0 DUP8 DUP1 EXTCODESIZE ISZERO DUP1 ISZERO PUSH2 0xA2C JUMPI PUSH1 0x0 DUP1 REVERT JUMPDEST POP GAS CALL ISZERO DUP1 ISZERO PUSH2 0xA40 JUMPI RETURNDATASIZE PUSH1 0x0 DUP1 RETURNDATACOPY RETURNDATASIZE PUSH1 0x0 REVERT JUMPDEST POP POP POP POP PUSH1 0x40 MLOAD RETURNDATASIZE PUSH1 0x1F NOT PUSH1 0x1F DUP3 ADD AND DUP3 ADD DUP1 PUSH1 0x40 MSTORE POP PUSH2 0xA64 SWAP2 SWAP1 DUP2 ADD SWAP1 PUSH2 0x1029 JUMP JUMPDEST POP PUSH32 0xA1BBEEB6860C5DB529C582B6BDBC57A2E9862EF771E5BED3A082F7D9DA54904A ADDRESS DUP5 DUP4 PUSH1 0x40 MLOAD PUSH2 0xA98 SWAP4 SWAP3 SWAP2 SWAP1 PUSH2 0x1457 JUMP JUMPDEST PUSH1 0x40 MLOAD DUP1 SWAP2 SUB SWAP1 LOG1 POP POP POP JUMP JUMPDEST PUSH2 0xAAD PUSH2 0xC86 JUMP JUMPDEST PUSH2 0xAB5 PUSH2 0xE62 JUMP JUMPDEST PUSH1 0x1 PUSH1 0x1 PUSH1 0xA0 SHL SUB AND CALLER PUSH1 0x1 PUSH1 0x1 PUSH1 0xA0 SHL SUB AND EQ PUSH2 0xAE5 JUMPI PUSH1 0x40 MLOAD PUSH3 0x461BCD PUSH1 0xE5 SHL DUP2 MSTORE PUSH1 0x4 ADD PUSH2 0x3EE SWAP1 PUSH2 0x154D JUMP JUMPDEST PUSH2 0xAED PUSH2 0xEB3 JUMP JUMPDEST PUSH1 0x1 PUSH1 0x1 PUSH1 0xA0 SHL SUB AND PUSH2 0xAFE PUSH2 0xE62 JUMP JUMPDEST PUSH1 0x1 PUSH1 0x1 PUSH1 0xA0 SHL SUB AND PUSH4 0x6E296E45 PUSH1 0x40 MLOAD DUP2 PUSH4 0xFFFFFFFF AND PUSH1 0xE0 SHL DUP2 MSTORE PUSH1 0x4 ADD PUSH1 0x20 PUSH1 0x40 MLOAD DUP1 DUP4 SUB DUP2 DUP7 DUP1 EXTCODESIZE ISZERO DUP1 ISZERO PUSH2 0xB36 JUMPI PUSH1 0x0 DUP1 REVERT JUMPDEST POP GAS STATICCALL ISZERO DUP1 ISZERO PUSH2 0xB4A JUMPI RETURNDATASIZE PUSH1 0x0 DUP1 RETURNDATACOPY RETURNDATASIZE PUSH1 0x0 REVERT JUMPDEST POP POP POP POP PUSH1 0x40 MLOAD RETURNDATASIZE PUSH1 0x1F NOT PUSH1 0x1F DUP3 ADD AND DUP3 ADD DUP1 PUSH1 0x40 MSTORE POP PUSH2 0xB6E SWAP2 SWAP1 DUP2 ADD SWAP1 PUSH2 0xFD1 JUMP JUMPDEST PUSH1 0x1 PUSH1 0x1 PUSH1 0xA0 SHL SUB AND EQ PUSH2 0xB94 JUMPI PUSH1 0x40 MLOAD PUSH3 0x461BCD PUSH1 0xE5 SHL DUP2 MSTORE PUSH1 0x4 ADD PUSH2 0x3EE SWAP1 PUSH2 0x150D JUMP JUMPDEST PUSH2 0xB9C PUSH2 0xDD2 JUMP JUMPDEST PUSH1 0x1 PUSH1 0x1 PUSH1 0xA0 SHL SUB AND PUSH4 0xA9059CBB DUP4 DUP4 PUSH1 0x40 MLOAD DUP4 PUSH4 0xFFFFFFFF AND PUSH1 0xE0 SHL DUP2 MSTORE PUSH1 0x4 ADD PUSH2 0xBC9 SWAP3 SWAP2 SWAP1 PUSH2 0x141A JUMP JUMPDEST PUSH1 0x20 PUSH1 0x40 MLOAD DUP1 DUP4 SUB DUP2 PUSH1 0x0 DUP8 DUP1 EXTCODESIZE ISZERO DUP1 ISZERO PUSH2 0xBE3 JUMPI PUSH1 0x0 DUP1 REVERT JUMPDEST POP GAS CALL ISZERO DUP1 ISZERO PUSH2 0xBF7 JUMPI RETURNDATASIZE PUSH1 0x0 DUP1 RETURNDATACOPY RETURNDATASIZE PUSH1 0x0 REVERT JUMPDEST POP POP POP POP PUSH1 0x40 MLOAD RETURNDATASIZE PUSH1 0x1F NOT PUSH1 0x1F DUP3 ADD AND DUP3 ADD DUP1 PUSH1 0x40 MSTORE POP PUSH2 0xC1B SWAP2 SWAP1 DUP2 ADD SWAP1 PUSH2 0x1029 JUMP JUMPDEST POP DUP2 PUSH1 0x1 PUSH1 0x1 PUSH1 0xA0 SHL SUB AND PUSH32 0x1A39B9C5044B9F0FF56C5951E30C1EBE24911353AAFCCEB9250E83A24FE158C4 DUP3 PUSH1 0x40 MLOAD PUSH2 0x8ED SWAP2 SWAP1 PUSH2 0x14B1 JUMP JUMPDEST PUSH1 0x18 DUP2 JUMP JUMPDEST PUSH1 0x0 SLOAD PUSH1 0x1 PUSH1 0x1 PUSH1 0xA0 SHL SUB AND CALLER EQ PUSH2 0xC84 JUMPI PUSH1 0x40 MLOAD PUSH3 0x461BCD PUSH1 0xE5 SHL DUP2 MSTORE PUSH1 0x4 ADD PUSH2 0x3EE SWAP1 PUSH2 0x153D JUMP JUMPDEST JUMP JUMPDEST PUSH1 0x1D SLOAD PUSH1 0xFF AND PUSH2 0xC84 JUMPI PUSH1 0x40 MLOAD PUSH3 0x461BCD PUSH1 0xE5 SHL DUP2 MSTORE PUSH1 0x4 ADD PUSH2 0x3EE SWAP1 PUSH2 0x152D JUMP JUMPDEST PUSH1 0x0 PUSH2 0xCE2 PUSH19 0x2932BBB0B93239A234B9BA3934B13ABA34B7B7 PUSH1 0x69 SHL PUSH1 0x40 MLOAD DUP1 PUSH1 0x60 ADD PUSH1 0x40 MSTORE DUP1 PUSH1 0x23 DUP2 MSTORE PUSH1 0x20 ADD PUSH2 0x163E PUSH1 0x23 SWAP2 CODECOPY PUSH2 0xF09 JUMP JUMPDEST SWAP1 POP SWAP1 JUMP JUMPDEST PUSH1 0x60 DUP2 PUSH1 0x40 MLOAD PUSH1 0x24 ADD PUSH2 0xCFA SWAP2 SWAP1 PUSH2 0x14B1 JUMP JUMPDEST PUSH1 0x40 DUP1 MLOAD PUSH1 0x1F NOT DUP2 DUP5 SUB ADD DUP2 MSTORE SWAP2 SWAP1 MSTORE PUSH1 0x20 DUP2 ADD DUP1 MLOAD PUSH1 0x1 PUSH1 0x1 PUSH1 0xE0 SHL SUB AND PUSH4 0xA6B96F57 PUSH1 0xE0 SHL OR SWAP1 MSTORE SWAP1 POP PUSH2 0xD2E PUSH2 0xE62 JUMP JUMPDEST PUSH1 0x1 PUSH1 0x1 PUSH1 0xA0 SHL SUB AND PUSH4 0x3DBB202B PUSH2 0xD44 PUSH2 0xEB3 JUMP JUMPDEST DUP4 PUSH3 0x2DC6C0 PUSH1 0x40 MLOAD DUP5 PUSH4 0xFFFFFFFF AND PUSH1 0xE0 SHL DUP2 MSTORE PUSH1 0x4 ADD PUSH2 0xD67 SWAP4 SWAP3 SWAP2 SWAP1 PUSH2 0x1465 JUMP JUMPDEST PUSH1 0x0 PUSH1 0x40 MLOAD DUP1 DUP4 SUB DUP2 PUSH1 0x0 DUP8 DUP1 EXTCODESIZE ISZERO DUP1 ISZERO PUSH2 0xD81 JUMPI PUSH1 0x0 DUP1 REVERT JUMPDEST POP GAS CALL ISZERO DUP1 ISZERO PUSH2 0xD95 JUMPI RETURNDATASIZE PUSH1 0x0 DUP1 RETURNDATACOPY RETURNDATASIZE PUSH1 0x0 REVERT JUMPDEST POP POP POP POP CALLER PUSH1 0x1 PUSH1 0x1 PUSH1 0xA0 SHL SUB AND PUSH32 0x95BF5847357310D24F8D03D8BAD76C8EE329DFD3A3CB200DF21C7BD1619E93BD DUP4 PUSH1 0x40 MLOAD PUSH2 0x8ED SWAP2 SWAP1 PUSH2 0x14B1 JUMP JUMPDEST PUSH1 0x0 PUSH2 0xCE2 PUSH9 0xA6F2DCE8D0CAE8D2F PUSH1 0xBB SHL PUSH1 0x40 MLOAD DUP1 PUSH1 0x40 ADD PUSH1 0x40 MSTORE DUP1 PUSH1 0x19 DUP2 MSTORE PUSH1 0x20 ADD PUSH32 0x4D697373696E672053796E746865746978206164647265737300000000000000 DUP2 MSTORE POP PUSH2 0xF09 JUMP JUMPDEST PUSH1 0x0 PUSH2 0xCE2 PUSH6 0x24B9B9BAB2B9 PUSH1 0xD1 SHL PUSH1 0x40 MLOAD DUP1 PUSH1 0x40 ADD PUSH1 0x40 MSTORE DUP1 PUSH1 0x16 DUP2 MSTORE PUSH1 0x20 ADD PUSH22 0x4D697373696E67204973737565722061646472657373 PUSH1 0x50 SHL DUP2 MSTORE POP PUSH2 0xF09 JUMP JUMPDEST PUSH1 0x0 PUSH2 0xCE2 PUSH13 0x32BC3A1D26B2B9B9B2B733B2B9 PUSH1 0x99 SHL PUSH1 0x40 MLOAD DUP1 PUSH1 0x40 ADD PUSH1 0x40 MSTORE DUP1 PUSH1 0x19 DUP2 MSTORE PUSH1 0x20 ADD PUSH32 0x4D697373696E67204D657373656E676572206164647265737300000000000000 DUP2 MSTORE POP PUSH2 0xF09 JUMP JUMPDEST PUSH1 0x0 PUSH2 0xCE2 PUSH32 0x6F766D3A53796E746865746978427269646765546F4261736500000000000000 PUSH1 0x40 MLOAD DUP1 PUSH1 0x40 ADD PUSH1 0x40 MSTORE DUP1 PUSH1 0x16 DUP2 MSTORE PUSH1 0x20 ADD PUSH22 0x4D697373696E67204272696467652061646472657373 PUSH1 0x50 SHL DUP2 MSTORE POP JUMPDEST PUSH1 0x0 DUP3 DUP2 MSTORE PUSH1 0x3 PUSH1 0x20 MSTORE PUSH1 0x40 DUP2 KECCAK256 SLOAD PUSH1 0x1 PUSH1 0x1 PUSH1 0xA0 SHL SUB AND DUP3 DUP2 PUSH2 0xF40 JUMPI PUSH1 0x40 MLOAD PUSH3 0x461BCD PUSH1 0xE5 SHL DUP2 MSTORE PUSH1 0x4 ADD PUSH2 0x3EE SWAP2 SWAP1 PUSH2 0x14EC JUMP JUMPDEST POP SWAP1 POP JUMPDEST SWAP3 SWAP2 POP POP JUMP JUMPDEST PUSH1 0x40 MLOAD DUP1 PUSH2 0x300 ADD PUSH1 0x40 MSTORE DUP1 PUSH1 0x18 SWAP1 PUSH1 0x20 DUP3 MUL DUP1 CODESIZE DUP4 CODECOPY POP SWAP2 SWAP3 SWAP2 POP POP JUMP JUMPDEST DUP1 CALLDATALOAD PUSH2 0xF44 DUP2 PUSH2 0x160E JUMP JUMPDEST DUP1 MLOAD PUSH2 0xF44 DUP2 PUSH2 0x160E JUMP JUMPDEST DUP1 MLOAD PUSH2 0xF44 DUP2 PUSH2 0x1622 JUMP JUMPDEST DUP1 CALLDATALOAD PUSH2 0xF44 DUP2 PUSH2 0x162B JUMP JUMPDEST DUP1 CALLDATALOAD PUSH2 0xF44 DUP2 PUSH2 0x1634 JUMP JUMPDEST DUP1 MLOAD PUSH2 0xF44 DUP2 PUSH2 0x1634 JUMP JUMPDEST PUSH1 0x0 PUSH1 0x20 DUP3 DUP5 SUB SLT ISZERO PUSH2 0xFBD JUMPI PUSH1 0x0 DUP1 REVERT JUMPDEST PUSH1 0x0 PUSH2 0xFC9 DUP5 DUP5 PUSH2 0xF69 JUMP JUMPDEST SWAP5 SWAP4 POP POP POP POP JUMP JUMPDEST PUSH1 0x0 PUSH1 0x20 DUP3 DUP5 SUB SLT ISZERO PUSH2 0xFE3 JUMPI PUSH1 0x0 DUP1 REVERT JUMPDEST PUSH1 0x0 PUSH2 0xFC9 DUP5 DUP5 PUSH2 0xF74 JUMP JUMPDEST PUSH1 0x0 DUP1 PUSH1 0x40 DUP4 DUP6 SUB SLT ISZERO PUSH2 0x1002 JUMPI PUSH1 0x0 DUP1 REVERT JUMPDEST PUSH1 0x0 PUSH2 0x100E DUP6 DUP6 PUSH2 0xF69 JUMP JUMPDEST SWAP3 POP POP PUSH1 0x20 PUSH2 0x101F DUP6 DUP3 DUP7 ADD PUSH2 0xF95 JUMP JUMPDEST SWAP2 POP POP SWAP3 POP SWAP3 SWAP1 POP JUMP JUMPDEST PUSH1 0x0 PUSH1 0x20 DUP3 DUP5 SUB SLT ISZERO PUSH2 0x103B JUMPI PUSH1 0x0 DUP1 REVERT JUMPDEST PUSH1 0x0 PUSH2 0xFC9 DUP5 DUP5 PUSH2 0xF7F JUMP JUMPDEST PUSH1 0x0 PUSH1 0x20 DUP3 DUP5 SUB SLT ISZERO PUSH2 0x1059 JUMPI PUSH1 0x0 DUP1 REVERT JUMPDEST PUSH1 0x0 PUSH2 0xFC9 DUP5 DUP5 PUSH2 0xF8A JUMP JUMPDEST PUSH1 0x0 PUSH1 0x20 DUP3 DUP5 SUB SLT ISZERO PUSH2 0x1077 JUMPI PUSH1 0x0 DUP1 REVERT JUMPDEST PUSH1 0x0 PUSH2 0xFC9 DUP5 DUP5 PUSH2 0xF95 JUMP JUMPDEST PUSH1 0x0 PUSH1 0x20 DUP3 DUP5 SUB SLT ISZERO PUSH2 0x1095 JUMPI PUSH1 0x0 DUP1 REVERT JUMPDEST PUSH1 0x0 PUSH2 0xFC9 DUP5 DUP5 PUSH2 0xFA0 JUMP JUMPDEST PUSH1 0x0 PUSH2 0x10AD DUP4 DUP4 PUSH2 0x112A JUMP JUMPDEST POP POP PUSH1 0x20 ADD SWAP1 JUMP JUMPDEST PUSH2 0x10BE DUP2 PUSH2 0x15C9 JUMP JUMPDEST DUP3 MSTORE POP POP JUMP JUMPDEST PUSH2 0x10BE DUP2 PUSH2 0x1599 JUMP JUMPDEST PUSH2 0x10D6 DUP2 PUSH2 0x1580 JUMP JUMPDEST PUSH2 0x10E0 DUP2 DUP5 PUSH2 0x539 JUMP JUMPDEST SWAP3 POP PUSH2 0x10EB DUP3 PUSH2 0x157D JUMP JUMPDEST DUP1 PUSH1 0x0 JUMPDEST DUP4 DUP2 LT ISZERO PUSH2 0x1119 JUMPI DUP2 MLOAD PUSH2 0x1103 DUP8 DUP3 PUSH2 0x10A1 JUMP JUMPDEST SWAP7 POP PUSH2 0x110E DUP4 PUSH2 0x158A JUMP JUMPDEST SWAP3 POP POP PUSH1 0x1 ADD PUSH2 0x10EF JUMP JUMPDEST POP POP POP POP POP POP JUMP JUMPDEST PUSH2 0x10BE DUP2 PUSH2 0x15A4 JUMP JUMPDEST PUSH2 0x10BE DUP2 PUSH2 0x157D JUMP JUMPDEST PUSH1 0x0 PUSH2 0x113E DUP3 PUSH2 0x1586 JUMP JUMPDEST PUSH2 0x1148 DUP2 DUP6 PUSH2 0x1590 JUMP JUMPDEST SWAP4 POP PUSH2 0x1158 DUP2 DUP6 PUSH1 0x20 DUP7 ADD PUSH2 0x15D4 JUMP JUMPDEST PUSH2 0x1161 DUP2 PUSH2 0x1604 JUMP JUMPDEST SWAP1 SWAP4 ADD SWAP4 SWAP3 POP POP POP JUMP JUMPDEST PUSH2 0x10BE DUP2 PUSH2 0x15A9 JUMP JUMPDEST PUSH1 0x0 PUSH2 0x1181 PUSH1 0x35 DUP4 PUSH2 0x1590 JUMP JUMPDEST PUSH32 0x596F75206D757374206265206E6F6D696E61746564206265666F726520796F75 DUP2 MSTORE PUSH21 0x2063616E20616363657074206F776E65727368697 PUSH1 0x5C SHL PUSH1 0x20 DUP3 ADD MSTORE PUSH1 0x40 ADD SWAP3 SWAP2 POP POP JUMP JUMPDEST PUSH1 0x0 PUSH2 0x11D8 PUSH1 0x1D DUP4 PUSH2 0x1590 JUMP JUMPDEST PUSH32 0x4F6E6C7920746865204C32206272696467652063616E20696E766F6B65000000 DUP2 MSTORE PUSH1 0x20 ADD SWAP3 SWAP2 POP POP JUMP JUMPDEST PUSH1 0x0 PUSH2 0x1211 PUSH1 0x18 DUP4 PUSH2 0x1590 JUMP JUMPDEST PUSH32 0x43616E6E6F74206465706F736974207769746820646562740000000000000000 DUP2 MSTORE PUSH1 0x20 ADD SWAP3 SWAP2 POP POP JUMP JUMPDEST PUSH1 0x0 PUSH2 0x124A PUSH1 0x14 DUP4 PUSH2 0x1590 JUMP JUMPDEST PUSH20 0x119D5B98DD1A5BDB8819195858DD1A5D985D1959 PUSH1 0x62 SHL DUP2 MSTORE PUSH1 0x20 ADD SWAP3 SWAP2 POP POP JUMP JUMPDEST PUSH1 0x0 PUSH2 0x127A PUSH1 0x2F DUP4 PUSH2 0x1590 JUMP JUMPDEST PUSH32 0x4F6E6C792074686520636F6E7472616374206F776E6572206D61792070657266 DUP2 MSTORE PUSH15 0x37B936903A3434B99030B1BA34B7B7 PUSH1 0x89 SHL PUSH1 0x20 DUP3 ADD MSTORE PUSH1 0x40 ADD SWAP3 SWAP2 POP POP JUMP JUMPDEST PUSH4 0x1CD554D1 PUSH1 0xE2 SHL SWAP1 MSTORE JUMP JUMPDEST PUSH1 0x0 PUSH2 0x12D7 PUSH1 0x1E DUP4 PUSH2 0x1590 JUMP JUMPDEST PUSH32 0x4F6E6C79207468652072656C617965722063616E2063616C6C20746869730000 DUP2 MSTORE PUSH1 0x20 ADD SWAP3 SWAP2 POP POP JUMP JUMPDEST PUSH1 0x0 PUSH2 0x1310 PUSH1 0x2A DUP4 PUSH2 0x1590 JUMP JUMPDEST PUSH32 0x43616C6C6572206973206E6F742052657761726473446973747269627574696F DUP2 MSTORE PUSH10 0x1B8818DBDB9D1C9858DD PUSH1 0xB2 SHL PUSH1 0x20 DUP3 ADD MSTORE PUSH1 0x40 ADD SWAP3 SWAP2 POP POP JUMP JUMPDEST PUSH1 0x0 PUSH2 0x135C PUSH1 0x1B DUP4 PUSH2 0x1590 JUMP JUMPDEST PUSH32 0x43616E6E6F74206D69677261746520746F206164647265737320300000000000 DUP2 MSTORE PUSH1 0x20 ADD SWAP3 SWAP2 POP POP JUMP JUMPDEST PUSH1 0x0 PUSH2 0x1395 PUSH1 0x17 DUP4 PUSH2 0x1590 JUMP JUMPDEST PUSH32 0x5265736F6C766572206D697373696E6720746172676574000000000000000000 DUP2 MSTORE PUSH1 0x20 ADD SWAP3 SWAP2 POP POP JUMP JUMPDEST PUSH2 0x10BE DUP2 PUSH2 0x15C0 JUMP JUMPDEST PUSH1 0x20 DUP2 ADD PUSH2 0xF44 DUP3 DUP5 PUSH2 0x10C4 JUMP JUMPDEST PUSH1 0x60 DUP2 ADD PUSH2 0x13E6 DUP3 DUP7 PUSH2 0x10B5 JUMP JUMPDEST PUSH2 0x13F3 PUSH1 0x20 DUP4 ADD DUP6 PUSH2 0x10C4 JUMP JUMPDEST PUSH2 0xFC9 PUSH1 0x40 DUP4 ADD DUP5 PUSH2 0x112A JUMP JUMPDEST PUSH1 0x40 DUP2 ADD PUSH2 0x140E DUP3 DUP5 PUSH2 0x10B5 JUMP JUMPDEST PUSH2 0xF44 PUSH1 0x20 DUP4 ADD PUSH2 0x12BE JUMP JUMPDEST PUSH1 0x40 DUP2 ADD PUSH2 0x1428 DUP3 DUP6 PUSH2 0x10C4 JUMP JUMPDEST PUSH2 0x1435 PUSH1 0x20 DUP4 ADD DUP5 PUSH2 0x112A JUMP JUMPDEST SWAP4 SWAP3 POP POP POP JUMP JUMPDEST PUSH1 0x40 DUP2 ADD PUSH2 0x144A DUP3 DUP6 PUSH2 0x10C4 JUMP JUMPDEST PUSH2 0x1435 PUSH1 0x20 DUP4 ADD DUP5 PUSH2 0x10C4 JUMP JUMPDEST PUSH1 0x60 DUP2 ADD PUSH2 0x13E6 DUP3 DUP7 PUSH2 0x10C4 JUMP JUMPDEST PUSH1 0x60 DUP2 ADD PUSH2 0x1473 DUP3 DUP7 PUSH2 0x10C4 JUMP JUMPDEST DUP2 DUP2 SUB PUSH1 0x20 DUP4 ADD MSTORE PUSH2 0x1485 DUP2 DUP6 PUSH2 0x1133 JUMP JUMPDEST SWAP1 POP PUSH2 0xFC9 PUSH1 0x40 DUP4 ADD DUP5 PUSH2 0x13C1 JUMP JUMPDEST PUSH2 0x300 DUP2 ADD PUSH2 0xF44 DUP3 DUP5 PUSH2 0x10CD JUMP JUMPDEST PUSH1 0x20 DUP2 ADD PUSH2 0xF44 DUP3 DUP5 PUSH2 0x1121 JUMP JUMPDEST PUSH1 0x20 DUP2 ADD PUSH2 0xF44 DUP3 DUP5 PUSH2 0x112A JUMP JUMPDEST PUSH1 0x40 DUP2 ADD PUSH2 0x14CD DUP3 DUP5 PUSH2 0x112A JUMP JUMPDEST DUP2 DUP2 SUB PUSH1 0x20 DUP4 ADD MSTORE PUSH2 0x1435 DUP2 PUSH2 0x1388 JUMP JUMPDEST PUSH1 0x20 DUP2 ADD PUSH2 0xF44 DUP3 DUP5 PUSH2 0x116B JUMP JUMPDEST PUSH1 0x20 DUP1 DUP3 MSTORE DUP2 ADD PUSH2 0x1435 DUP2 DUP5 PUSH2 0x1133 JUMP JUMPDEST PUSH1 0x20 DUP1 DUP3 MSTORE DUP2 ADD PUSH2 0xF44 DUP2 PUSH2 0x1174 JUMP JUMPDEST PUSH1 0x20 DUP1 DUP3 MSTORE DUP2 ADD PUSH2 0xF44 DUP2 PUSH2 0x11CB JUMP JUMPDEST PUSH1 0x20 DUP1 DUP3 MSTORE DUP2 ADD PUSH2 0xF44 DUP2 PUSH2 0x1204 JUMP JUMPDEST PUSH1 0x20 DUP1 DUP3 MSTORE DUP2 ADD PUSH2 0xF44 DUP2 PUSH2 0x123D JUMP JUMPDEST PUSH1 0x20 DUP1 DUP3 MSTORE DUP2 ADD PUSH2 0xF44 DUP2 PUSH2 0x126D JUMP JUMPDEST PUSH1 0x20 DUP1 DUP3 MSTORE DUP2 ADD PUSH2 0xF44 DUP2 PUSH2 0x12CA JUMP JUMPDEST PUSH1 0x20 DUP1 DUP3 MSTORE DUP2 ADD PUSH2 0xF44 DUP2 PUSH2 0x1303 JUMP JUMPDEST PUSH1 0x20 DUP1 DUP3 MSTORE DUP2 ADD PUSH2 0xF44 DUP2 PUSH2 0x134F JUMP JUMPDEST SWAP1 JUMP JUMPDEST POP PUSH1 0x18 SWAP1 JUMP JUMPDEST MLOAD SWAP1 JUMP JUMPDEST PUSH1 0x20 ADD SWAP1 JUMP JUMPDEST SWAP1 DUP2 MSTORE PUSH1 0x20 ADD SWAP1 JUMP JUMPDEST PUSH1 0x0 PUSH2 0xF44 DUP3 PUSH2 0x15B4 JUMP JUMPDEST ISZERO ISZERO SWAP1 JUMP JUMPDEST PUSH1 0x0 PUSH2 0xF44 DUP3 PUSH2 0x1599 JUMP JUMPDEST PUSH1 0x1 PUSH1 0x1 PUSH1 0xA0 SHL SUB AND SWAP1 JUMP JUMPDEST PUSH4 0xFFFFFFFF AND SWAP1 JUMP JUMPDEST PUSH1 0x0 PUSH2 0xF44 DUP3 PUSH2 0x15A9 JUMP JUMPDEST PUSH1 0x0 JUMPDEST DUP4 DUP2 LT ISZERO PUSH2 0x15EF JUMPI DUP2 DUP2 ADD MLOAD DUP4 DUP3 ADD MSTORE PUSH1 0x20 ADD PUSH2 0x15D7 JUMP JUMPDEST DUP4 DUP2 GT ISZERO PUSH2 0x15FE JUMPI PUSH1 0x0 DUP5 DUP5 ADD MSTORE JUMPDEST POP POP POP POP JUMP JUMPDEST PUSH1 0x1F ADD PUSH1 0x1F NOT AND SWAP1 JUMP JUMPDEST PUSH2 0x1617 DUP2 PUSH2 0x1599 JUMP JUMPDEST DUP2 EQ PUSH2 0x400 JUMPI PUSH1 0x0 DUP1 REVERT JUMPDEST PUSH2 0x1617 DUP2 PUSH2 0x15A4 JUMP JUMPDEST PUSH2 0x1617 DUP2 PUSH2 0x15A9 JUMP JUMPDEST PUSH2 0x1617 DUP2 PUSH2 0x157D JUMP INVALID 0x4D PUSH10 0x7373696E672052657761 PUSH19 0x6473446973747269627574696F6E2061646472 PUSH6 0x7373A365627A PUSH27 0x7231582063CB1F8C7EA75BDAED54D299F379AECB3928111FA80721 PUSH6 0x9848CACC3C0 NOT LOG2 PUSH13 0x6578706572696D656E74616CF5 PUSH5 0x736F6C6343 STOP SDIV LT STOP BLOCKHASH "
		}
	}
}