{
	"abi": [
		{
			"inputs": [
				{
					"internalType": "address",
					"name": "_owner",
					"type": "address"
				}
			],
			"payable": false,
			"stateMutability": "nonpayable",
			"type": "constructor"
		},
		{
			"anonymous": false,
			"inputs": [
				{
					"indexed": true,
					"internalType": "bytes32",
					"name": "section",
					"type": "bytes32"
				},
				{
					"indexed": true,
					"internalType": "address",
					"name": "account",
					"type": "address"
				},
				{
					"indexed": false,
					"internalType": "bool",
					"name": "canSuspend",
					"type": "bool"
				},
				{
					"indexed": false,
					"internalType": "bool",
					"name": "canResume",
					"type": "bool"
				}
			],
			"name": "AccessControlUpdated",
			"type": "event"
		},
		{
			"anonymous": false,
			"inputs": [
				{
					"indexed": false,
					"internalType": "uint256",
					"name": "reason",
					"type": "uint256"
				}
			],
			"name": "ExchangeResumed",
			"type": "event"
		},
		{
			"anonymous": false,
			"inputs": [
				{
					"indexed": false,
					"internalType": "uint256",
					"name": "reason",
					"type": "uint256"
				}
			],
			"name": "ExchangeSuspended",
			"type": "event"
		},
		{
			"anonymous": false,
			"inputs": [
				{
					"indexed": false,
					"internalType": "uint256",
					"name": "reason",
					"type": "uint256"
				}
			],
			"name": "IssuanceResumed",
			"type": "event"
		},
		{
			"anonymous": false,
			"inputs": [
				{
					"indexed": false,
					"internalType": "uint256",
					"name": "reason",
					"type": "uint256"
				}
			],
			"name": "IssuanceSuspended",
			"type": "event"
		},
		{
			"anonymous": false,
			"inputs": [
				{
					"indexed": false,
					"internalType": "address",
					"name": "oldOwner",
					"type": "address"
				},
				{
					"indexed": false,
					"internalType": "address",
					"name": "newOwner",
					"type": "address"
				}
			],
			"name": "OwnerChanged",
			"type": "event"
		},
		{
			"anonymous": false,
			"inputs": [
				{
					"indexed": false,
					"internalType": "address",
					"name": "newOwner",
					"type": "address"
				}
			],
			"name": "OwnerNominated",
			"type": "event"
		},
		{
			"anonymous": false,
			"inputs": [
				{
					"indexed": false,
					"internalType": "bytes32",
					"name": "currencyKey",
					"type": "bytes32"
				},
				{
					"indexed": false,
					"internalType": "uint256",
					"name": "reason",
					"type": "uint256"
				}
			],
			"name": "SynthResumed",
			"type": "event"
		},
		{
			"anonymous": false,
			"inputs": [
				{
					"indexed": false,
					"internalType": "bytes32",
					"name": "currencyKey",
					"type": "bytes32"
				},
				{
					"indexed": false,
					"internalType": "uint256",
					"name": "reason",
					"type": "uint256"
				}
			],
			"name": "SynthSuspended",
			"type": "event"
		},
		{
			"anonymous": false,
			"inputs": [
				{
					"indexed": false,
					"internalType": "uint256",
					"name": "reason",
					"type": "uint256"
				}
			],
			"name": "SystemResumed",
			"type": "event"
		},
		{
			"anonymous": false,
			"inputs": [
				{
					"indexed": false,
					"internalType": "uint256",
					"name": "reason",
					"type": "uint256"
				}
			],
			"name": "SystemSuspended",
			"type": "event"
		},
		{
			"constant": true,
			"inputs": [],
			"name": "SECTION_EXCHANGE",
			"outputs": [
				{
					"internalType": "bytes32",
					"name": "",
					"type": "bytes32"
				}
			],
			"payable": false,
			"stateMutability": "view",
			"type": "function"
		},
		{
			"constant": true,
			"inputs": [],
			"name": "SECTION_ISSUANCE",
			"outputs": [
				{
					"internalType": "bytes32",
					"name": "",
					"type": "bytes32"
				}
			],
			"payable": false,
			"stateMutability": "view",
			"type": "function"
		},
		{
			"constant": true,
			"inputs": [],
			"name": "SECTION_SYNTH",
			"outputs": [
				{
					"internalType": "bytes32",
					"name": "",
					"type": "bytes32"
				}
			],
			"payable": false,
			"stateMutability": "view",
			"type": "function"
		},
		{
			"constant": true,
			"inputs": [],
			"name": "SECTION_SYSTEM",
			"outputs": [
				{
					"internalType": "bytes32",
					"name": "",
					"type": "bytes32"
				}
			],
			"payable": false,
			"stateMutability": "view",
			"type": "function"
		},
		{
			"constant": true,
			"inputs": [],
			"name": "SUSPENSION_REASON_UPGRADE",
			"outputs": [
				{
					"internalType": "uint248",
					"name": "",
					"type": "uint248"
				}
			],
			"payable": false,
			"stateMutability": "view",
			"type": "function"
		},
		{
			"constant": false,
			"inputs": [],
			"name": "acceptOwnership",
			"outputs": [],
			"payable": false,
			"stateMutability": "nonpayable",
			"type": "function"
		},
		{
			"constant": true,
			"inputs": [
				{
					"internalType": "bytes32",
					"name": "",
					"type": "bytes32"
				},
				{
					"internalType": "address",
					"name": "",
					"type": "address"
				}
			],
			"name": "accessControl",
			"outputs": [
				{
					"internalType": "bool",
					"name": "canSuspend",
					"type": "bool"
				},
				{
					"internalType": "bool",
					"name": "canResume",
					"type": "bool"
				}
			],
			"payable": false,
			"stateMutability": "view",
			"type": "function"
		},
		{
			"constant": true,
			"inputs": [],
			"name": "exchangeSuspension",
			"outputs": [
				{
					"internalType": "bool",
					"name": "suspended",
					"type": "bool"
				},
				{
					"internalType": "uint248",
					"name": "reason",
					"type": "uint248"
				}
			],
			"payable": false,
			"stateMutability": "view",
			"type": "function"
		},
		{
			"constant": true,
			"inputs": [
				{
					"internalType": "bytes32[]",
					"name": "synths",
					"type": "bytes32[]"
				}
			],
			"name": "getSynthSuspensions",
			"outputs": [
				{
					"internalType": "bool[]",
					"name": "suspensions",
					"type": "bool[]"
				},
				{
					"internalType": "uint256[]",
					"name": "reasons",
					"type": "uint256[]"
				}
			],
			"payable": false,
			"stateMutability": "view",
			"type": "function"
		},
		{
			"constant": true,
			"inputs": [],
			"name": "isSystemUpgrading",
			"outputs": [
				{
					"internalType": "bool",
					"name": "",
					"type": "bool"
				}
			],
			"payable": false,
			"stateMutability": "view",
			"type": "function"
		},
		{
			"constant": true,
			"inputs": [],
			"name": "issuanceSuspension",
			"outputs": [
				{
					"internalType": "bool",
					"name": "suspended",
					"type": "bool"
				},
				{
					"internalType": "uint248",
					"name": "reason",
					"type": "uint248"
				}
			],
			"payable": false,
			"stateMutability": "view",
			"type": "function"
		},
		{
			"constant": false,
			"inputs": [
				{
					"internalType": "address",
					"name": "_owner",
					"type": "address"
				}
			],
			"name": "nominateNewOwner",
			"outputs": [],
			"payable": false,
			"stateMutability": "nonpayable",
			"type": "function"
		},
		{
			"constant": true,
			"inputs": [],
			"name": "nominatedOwner",
			"outputs": [
				{
					"internalType": "address",
					"name": "",
					"type": "address"
				}
			],
			"payable": false,
			"stateMutability": "view",
			"type": "function"
		},
		{
			"constant": true,
			"inputs": [],
			"name": "owner",
			"outputs": [
				{
					"internalType": "address",
					"name": "",
					"type": "address"
				}
			],
			"payable": false,
			"stateMutability": "view",
			"type": "function"
		},
		{
			"constant": true,
			"inputs": [],
			"name": "requireExchangeActive",
			"outputs": [],
			"payable": false,
			"stateMutability": "view",
			"type": "function"
		},
		{
			"constant": true,
			"inputs": [],
			"name": "requireIssuanceActive",
			"outputs": [],
			"payable": false,
			"stateMutability": "view",
			"type": "function"
		},
		{
			"constant": true,
			"inputs": [
				{
					"internalType": "bytes32",
					"name": "currencyKey",
					"type": "bytes32"
				}
			],
			"name": "requireSynthActive",
			"outputs": [],
			"payable": false,
			"stateMutability": "view",
			"type": "function"
		},
		{
			"constant": true,
			"inputs": [
				{
					"internalType": "bytes32",
					"name": "sourceCurrencyKey",
					"type": "bytes32"
				},
				{
					"internalType": "bytes32",
					"name": "destinationCurrencyKey",
					"type": "bytes32"
				}
			],
			"name": "requireSynthsActive",
			"outputs": [],
			"payable": false,
			"stateMutability": "view",
			"type": "function"
		},
		{
			"constant": true,
			"inputs": [],
			"name": "requireSystemActive",
			"outputs": [],
			"payable": false,
			"stateMutability": "view",
			"type": "function"
		},
		{
			"constant": false,
			"inputs": [],
			"name": "resumeExchange",
			"outputs": [],
			"payable": false,
			"stateMutability": "nonpayable",
			"type": "function"
		},
		{
			"constant": false,
			"inputs": [],
			"name": "resumeIssuance",
			"outputs": [],
			"payable": false,
			"stateMutability": "nonpayable",
			"type": "function"
		},
		{
			"constant": false,
			"inputs": [
				{
					"internalType": "bytes32",
					"name": "currencyKey",
					"type": "bytes32"
				}
			],
			"name": "resumeSynth",
			"outputs": [],
			"payable": false,
			"stateMutability": "nonpayable",
			"type": "function"
		},
		{
			"constant": false,
			"inputs": [],
			"name": "resumeSystem",
			"outputs": [],
			"payable": false,
			"stateMutability": "nonpayable",
			"type": "function"
		},
		{
			"constant": false,
			"inputs": [
				{
					"internalType": "uint256",
					"name": "reason",
					"type": "uint256"
				}
			],
			"name": "suspendExchange",
			"outputs": [],
			"payable": false,
			"stateMutability": "nonpayable",
			"type": "function"
		},
		{
			"constant": false,
			"inputs": [
				{
					"internalType": "uint256",
					"name": "reason",
					"type": "uint256"
				}
			],
			"name": "suspendIssuance",
			"outputs": [],
			"payable": false,
			"stateMutability": "nonpayable",
			"type": "function"
		},
		{
			"constant": false,
			"inputs": [
				{
					"internalType": "bytes32",
					"name": "currencyKey",
					"type": "bytes32"
				},
				{
					"internalType": "uint256",
					"name": "reason",
					"type": "uint256"
				}
			],
			"name": "suspendSynth",
			"outputs": [],
			"payable": false,
			"stateMutability": "nonpayable",
			"type": "function"
		},
		{
			"constant": false,
			"inputs": [
				{
					"internalType": "uint256",
					"name": "reason",
					"type": "uint256"
				}
			],
			"name": "suspendSystem",
			"outputs": [],
			"payable": false,
			"stateMutability": "nonpayable",
			"type": "function"
		},
		{
			"constant": true,
			"inputs": [
				{
					"internalType": "bytes32",
					"name": "",
					"type": "bytes32"
				}
			],
			"name": "synthSuspension",
			"outputs": [
				{
					"internalType": "bool",
					"name": "suspended",
					"type": "bool"
				},
				{
					"internalType": "uint248",
					"name": "reason",
					"type": "uint248"
				}
			],
			"payable": false,
			"stateMutability": "view",
			"type": "function"
		},
		{
			"constant": true,
			"inputs": [],
			"name": "systemSuspension",
			"outputs": [
				{
					"internalType": "bool",
					"name": "suspended",
					"type": "bool"
				},
				{
					"internalType": "uint248",
					"name": "reason",
					"type": "uint248"
				}
			],
			"payable": false,
			"stateMutability": "view",
			"type": "function"
		},
		{
			"constant": false,
			"inputs": [
				{
					"internalType": "bytes32",
					"name": "section",
					"type": "bytes32"
				},
				{
					"internalType": "address",
					"name": "account",
					"type": "address"
				},
				{
					"internalType": "bool",
					"name": "canSuspend",
					"type": "bool"
				},
				{
					"internalType": "bool",
					"name": "canResume",
					"type": "bool"
				}
			],
			"name": "updateAccessControl",
			"outputs": [],
			"payable": false,
			"stateMutability": "nonpayable",
			"type": "function"
		}
	],
	"evm": {
		"bytecode": {
			"linkReferences": {},
			"object": "60806040523480156200001c576000806200001962000363565b50505b5060405162001de438038062001de4833981810160405260208110156200004d576000806200004a62000363565b50505b8101908080519250829150506001600160a01b038116620000bf5760405162461bcd60e51b815260206004820152601960248201527f4f776e657220616464726573732063616e6e6f74206265203000000000000000604482015260640160405180910390620000bc62000363565b50505b806000600181620000cf620003d0565b816001600160a01b0302191690836001600160a01b0316021790620000f362000432565b5050507fb532073b38c83145e3e5135377a08bf9aab55bc0fd7c1179cd4fb995d2a5159c6000826040516001600160a01b039283168152911660208201526040908101905180910390a1506200015f6553797374656d60d01b826001806001600160e01b03620001cc16565b620001826749737375616e636560c01b826001806001600160e01b03620001cc16565b620001a56745786368616e676560c01b826001806001600160e01b03620001cc16565b620001c5640a6f2dce8d60db1b826001806001600160e01b03620001cc16565b5062000481565b6553797374656d60d01b841480620001ee57506749737375616e636560c01b84145b806200020457506745786368616e676560c01b84145b80620002175750640a6f2dce8d60db1b84145b620002735760405162461bcd60e51b815260206004820152601860248201527f496e76616c69642073656374696f6e20737570706c69656400000000000000006044820152606401604051809103906200027062000363565b50505b600084815260026020528290604090206001600160a01b038516600090815260209190915260409020600181620002a9620003d0565b8160ff02191690831515021790620002c062000432565b505050600084815260026020528190604090206001600160a01b03851660009081526020919091526040902061010081620002fa620003d0565b8160ff021916908315150217906200031162000432565b505050826001600160a01b0316847f95bad30f8fe717e4a02906d7b05a6f90698c7135cd053e5b6d5239146b4c40d184846040519115158252151560208201526040908101905180910390a350505050565b632a2a7adb598160e01b8152600481016020815285602082015260005b868110156200039d57808601518282016040015260200162000380565b506020828760640184336000905af158600e01573d6000803e3d6000fd5b3d6001141558600a015760016000f35b505050565b6303daa959598160e01b8152836004820152602081602483336000905af158600e01573d6000803e3d6000fd5b3d6001141558600a015760016000f35b8051935060005b60408110156200042d5760008282015260200162000414565b505050565b6322bd64c0598160e01b8152836004820152846024820152600081604483336000905af158600e01573d6000803e3d6000fd5b3d6001141558600a015760016000f35b60008152602062000414565b61195380620004916000396000f3fe608060405234801561001957600080610016611655565b50505b50600436106101e35760003560e01c806367a280b21161010d5780639f8a95ba116100ab578063f16162071161007a578063f161620714610612578063f405f65a1461061a578063f44d1e0b14610622578063f8b4b0841461062a576101e3565b80639f8a95ba1461046f578063abc0bb6e14610493578063b9a49869146104bf578063e470df58146105ec576101e3565b806379ba5097116100e757806379ba5097146104315780637c312541146104395780638da5cb5b1461044157806394c79f7414610449576101e3565b806367a280b2146103fb5780637118d431146104035780637243bc2c1461040b576101e3565b80632dd8afdb1161018557806348bf19711161015457806348bf19711461035e5780634abdb44d146103a357806353a47bb7146103ab5780636132eba4146103cf576101e3565b80632dd8afdb146102ee5780632e8d0b9e146102f6578063396e258e1461031257806342a28e2114610338576101e3565b80631588e817116101c15780631588e8171461021d5780631627540c1461024357806320f2bf00146102725780632366245e146102c3576101e3565b8063086dabd1146101f157806312bde514146101fb578063157c51d314610215575b6000806101ee611655565b50505b6101f9610632565b005b61020361063c565b60405190815260200160405180910390f35b6101f9610649565b6101f96004803603602081101561023c57600080610239611655565b50505b5035610712565b6101f9600480360360208110156102625760008061025f611655565b50505b50356001600160a01b03166107b8565b6102a7600480360360408110156102915760008061028e611655565b50505b50803590602001356001600160a01b0316610832565b6040519115158252151560208201526040908101905180910390f35b6102cb610882565b60405191151582526001600160f81b031660208201526040908101905180910390f35b6102cb6108bc565b6102fe6108c9565b604051901515815260200160405180910390f35b6101f9600480360360208110156103315760008061032e611655565b50505b5035610914565b6101f96004803603602081101561035757600080610354611655565b50505b50356109ba565b6101f96004803603608081101561037d5760008061037a611655565b50505b508035906001600160a01b03602082013516906040810135151590606001351515610a2a565b610203610a44565b6103b3610a53565b6040516001600160a01b03909116815260200160405180910390f35b6101f9600480360360408110156103ee576000806103eb611655565b50505b5080359060200135610a72565b6101f9610b0f565b6101f9610bb3565b6102cb6004803603602081101561042a57600080610427611655565b50505b5035610c13565b6101f9610c2e565b6101f9610dac565b6103b3610e0c565b6101f96004803603602081101561046857600080610465611655565b50505b5035610e17565b610477610eec565b6040516001600160f81b03909116815260200160405180910390f35b6101f9600480360360408110156104b2576000806104af611655565b50505b5080359060200135610ef1565b610553600480360360208110156104de576000806104db611655565b50505b810190602081018135640100000000811115610502576000806104ff611655565b50505b82018360208201111561051d5760008061051a611655565b50505b8035906020019184602083028401116401000000008311171561054857600080610545611655565b50505b509092509050610fb5565b604051808060200180602001838103835285818151815260200191508051906020019060200280838360005b8381101561059757808201518382015260200161057f565b50505050905001838103825284818151815260200191508051906020019060200280838360005b838110156105d65780820151838201526020016105be565b5050505090500194505050505060405180910390f35b6101f96004803603602081101561060b57600080610608611655565b50505b50356110e3565b6102036111ae565b6101f96111bd565b610203611261565b6102cb61126d565b61063a61127a565b565b6553797374656d60d01b81565b61065b6553797374656d60d01b611381565b6000600360018161066a6116c0565b8160ff0219169083151502179061067f61171b565b507fb392a95118344e8edff8eff56183afb4bb0240310c406a0fc1217d2755c66d8f91506001905060036106b16116c0565b906101000a90046001600160f81b03166001600160f81b031660405190815260200160405180910390a160006003610100816106eb6116c0565b816001600160f81b0302191690836001600160f81b031602179061070d61171b565b505050565b6107266745786368616e676560c01b611410565b6001600581816107346116c0565b8160ff0219169083151502179061074961171b565b50829150600590506101008161075d6116c0565b816001600160f81b0302191690836001600160f81b031602179061077f61171b565b5050507f078773069a9216cdb6acaa7b184785f12f62048c7ce8b7ede1bad6785de16b228160405190815260200160405180910390a150565b6107c0611454565b80600180806107cd6116c0565b816001600160a01b0302191690836001600160a01b03160217906107ef61171b565b5050507f906a1c6bd7e3091ea86693dd029a831c19049ce77f1dce2ce0bab1cacbabce22816040516001600160a01b03909116815260200160405180910390a150565b60026020528160005260406000206020528060005260406000209150600090508161085b6116c0565b60ff6101009290920a900416906001816108736116c0565b906101000a900460ff16905082565b600460008161088f6116c0565b60ff6101009290920a900416906001816108a76116c0565b906101000a90046001600160f81b0316905082565b600360008161088f6116c0565b60008060036108d66116c0565b906101000a900460ff16801561090f575060018060036108f46116c0565b906101000a90046001600160f81b03166001600160f81b0316145b905090565b6109286749737375616e636560c01b611410565b6001600481816109366116c0565b8160ff0219169083151502179061094b61171b565b50829150600490506101008161095f6116c0565b816001600160f81b0302191690836001600160f81b031602179061098161171b565b5050507fee8bf45d6e3141aa521ae4f0d05dfefe0327a3f23a9fbae6a64680458b34ebb88160405190815260200160405180910390a150565b6109c261127a565b60008181526006602052604090206000906109db6116c0565b906101000a900460ff1615610a275760405162461bcd60e51b815260040180806020018281038252602881526020018061192b602891396040019150506040518091039061070d611655565b50565b610a32611454565b610a3e848484846114cc565b50505050565b6749737375616e636560c01b81565b60006001610a5f6116c0565b906101000a90046001600160a01b031681565b610a7a61127a565b6000828152600660205260409020600090610a936116c0565b906101000a900460ff16158015610aca57506000818152600660205260409020600090610abe6116c0565b906101000a900460ff16155b610b0b5760405162461bcd60e51b81526004018080602001828103825260368152602001806117e56036913960400191505060405180910390610a3e611655565b5050565b610b236749737375616e636560c01b611381565b60006004600181610b326116c0565b8160ff02191690831515021790610b4761171b565b507f0f1a80395faba9a11017f830db5f90ad6525a1621dbfb2cbc2b6679ba57168379150600190506004610b796116c0565b906101000a90046001600160f81b03166001600160f81b031660405190815260200160405180910390a160006004610100816106eb6116c0565b610bbb61127a565b60006005610bc76116c0565b906101000a900460ff161561063a5760405162461bcd60e51b815260040180806020018281038252602b815260200180611875602b913960400191505060405180910390610b0b611655565b6006602052806000526040600020905060008161088f6116c0565b60006001610c3a6116c0565b906101000a90046001600160a01b03166001600160a01b03165a610c5c611769565b6001600160a01b031614610caa5760405162461bcd60e51b81526004018080602001828103825260358152602001806117b06035913960400191505060405180910390610ca7611655565b50505b7fb532073b38c83145e3e5135377a08bf9aab55bc0fd7c1179cd4fb995d2a5159c600080610cd66116c0565b906101000a90046001600160a01b03166001600090610cf36116c0565b906101000a90046001600160a01b03166040516001600160a01b039283168152911660208201526040908101905180910390a160006001610d326116c0565b906101000a90046001600160a01b03166000806101000a81610d526116c0565b816001600160a01b0302191690836001600160a01b0316021790610d7461171b565b5050506000600160006101000a81610d8a6116c0565b816001600160a01b0302191690836001600160a01b031602179061070d61171b565b610db461127a565b60006004610dc06116c0565b906101000a900460ff161561063a5760405162461bcd60e51b815260040180806020018281038252602b81526020018061181b602b913960400191505060405180910390610b0b611655565b600080610a5f6116c0565b610e28640a6f2dce8d60db1b611381565b600081815260066020527f691b6c9654fa1f01847f7e98a061557ca10378bb9670782b60ed13891703d22090829060409020600190610e656116c0565b906101000a90046001600160f81b03166001600160f81b031660405191825260208201526040908101905180910390a16000818152600660205260409020600081600181610eb16116c0565b9060ff02191690610ec061171b565b5082905061010081610ed06116c0565b906001600160f81b0302191690610ee561171b565b5050505050565b600181565b610f02640a6f2dce8d60db1b611410565b6000828152600660205260019060409020600181610f1e6116c0565b8160ff02191690831515021790610f3361171b565b5050506000828152600660205281906040902061010081610f526116c0565b816001600160f81b0302191690836001600160f81b0316021790610f7461171b565b5050507f9cca506f9028bbcc0d976db0eaf80dfe6a6d7cadd99024edd88f690e1eda5541828260405191825260208201526040908101905180910390a15050565b60608082604051908082528060200260200182016040528015610fe2578160200160208202803883390190505b5091508260405190808252806020026020018201604052801561100f578160200160208202803883390190505b50905060005b838110156110db576006600086868481811061102d57fe5b90506020020135815260200190815260200160002060009061104d6116c0565b906101000a900460ff1683828151811061106357fe5b911515602092830291909101909101526006600086868481811061108357fe5b9050602002013581526020019081526020016000206001906110a36116c0565b906101000a90046001600160f81b03166001600160f81b03168282815181106110c857fe5b6020908102919091010152600101611015565b509250929050565b6110f56553797374656d60d01b611410565b6001600381816111036116c0565b8160ff0219169083151502179061111861171b565b50829150600390506101008161112c6116c0565b816001600160f81b0302191690836001600160f81b031602179061114e61171b565b507f86b7ed06c3a2c3763514d475ced33f9ac8b1bb8f028ded18de0100b7678f3c4f91506001905060036111806116c0565b906101000a90046001600160f81b03166040516001600160f81b03909116815260200160405180910390a150565b6745786368616e676560c01b81565b6111d16745786368616e676560c01b611381565b600060056001816111e06116c0565b8160ff021916908315150217906111f561171b565b507f07966fe79d35c7abf1f3b2ad9970ea24cae0f11406e283e848e3e6608ae3c21491506001905060056112276116c0565b906101000a90046001600160f81b03166001600160f81b031660405190815260200160405180910390a160006005610100816106eb6116c0565b640a6f2dce8d60db1b81565b600560008161088f6116c0565b600060036112866116c0565b60ff6101009290920a9004161560018060036112a06116c0565b906101000a90046001600160f81b03166001600160f81b0316146112da5760405160608101604052602c8082526118c160208301396112f2565b60405160608101604052603e8082526118ed60208301395b90610a275760405162461bcd60e51b81526004018080602001828103825283818151815260200191508051906020019080838360005b83811015611340578082015183820152602001611328565b50505050905090810190601f16801561136d5780820380516001836020036101000a031916815260200191505b50925050506040518091039061070d611655565b600081815260026020526040902060005a61139a611769565b6001600160a01b03166001600160a01b031681526020019081526020016000206001906113c56116c0565b906101000a900460ff16610a275760405162461bcd60e51b81526004018080602001828103825260218152602001806118a0602191396040019150506040518091039061070d611655565b600081815260026020526040902060005a611429611769565b6001600160a01b03166001600160a01b031681526020019081526020016000206000906113c56116c0565b60008061145f6116c0565b906101000a90046001600160a01b03166001600160a01b03165a611481611769565b6001600160a01b03161461063a5760405162461bcd60e51b815260040180806020018281038252602f815260200180611846602f913960400191505060405180910390610b0b611655565b6553797374656d60d01b8414806114ed57506749737375616e636560c01b84145b8061150257506745786368616e676560c01b84145b806115145750640a6f2dce8d60db1b84145b61156d5760405162461bcd60e51b815260206004820152601860248201527f496e76616c69642073656374696f6e20737570706c696564000000000000000060448201526064016040518091039061156a611655565b50505b600084815260026020528290604090206001600160a01b0385166000908152602091909152604090206001816115a16116c0565b8160ff021916908315150217906115b661171b565b505050600084815260026020528190604090206001600160a01b038516600090815260209190915260409020610100816115ee6116c0565b8160ff0219169083151502179061160361171b565b505050826001600160a01b0316847f95bad30f8fe717e4a02906d7b05a6f90698c7135cd053e5b6d5239146b4c40d184846040519115158252151560208201526040908101905180910390a350505050565b632a2a7adb598160e01b8152600481016020815285602082015260005b8681101561168d578086015182820160400152602001611672565b506020828760640184336000905af158600e01573d6000803e3d6000fd5b3d6001141558600a015760016000f35b505050565b6303daa959598160e01b8152836004820152602081602483336000905af158600e01573d6000803e3d6000fd5b3d6001141558600a015760016000f35b8051935060005b604081101561070d57600082820152602001611704565b6322bd64c0598160e01b8152836004820152846024820152600081604483336000905af158600e01573d6000803e3d6000fd5b3d6001141558600a015760016000f35b600081526020611704565b6373509064598160e01b8152602081600483336000905af158600e01573d6000803e3d6000fd5b3d6001141558600a015760016000f35b8051600082529350602061170456fe596f75206d757374206265206e6f6d696e61746564206265666f726520796f752063616e20616363657074206f776e6572736869704f6e65206f72206d6f72652073796e746873206172652073757370656e6465642e204f7065726174696f6e2070726f6869626974656449737375616e63652069732073757370656e6465642e204f7065726174696f6e2070726f686962697465644f6e6c792074686520636f6e7472616374206f776e6572206d617920706572666f726d207468697320616374696f6e45786368616e67652069732073757370656e6465642e204f7065726174696f6e2070726f686962697465645265737472696374656420746f2061636365737320636f6e74726f6c206c69737453796e7468657469782069732073757370656e6465642e204f7065726174696f6e2070726f6869626974656453796e7468657469782069732073757370656e6465642c207570677261646520696e2070726f67726573732e2e2e20706c65617365207374616e6420627953796e74682069732073757370656e6465642e204f7065726174696f6e2070726f68696269746564",
			"opcodes": "PUSH1 0x80 PUSH1 0x40 MSTORE CALLVALUE DUP1 ISZERO PUSH3 0x1C JUMPI PUSH1 0x0 DUP1 PUSH3 0x19 PUSH3 0x363 JUMP JUMPDEST POP POP JUMPDEST POP PUSH1 0x40 MLOAD PUSH3 0x1DE4 CODESIZE SUB DUP1 PUSH3 0x1DE4 DUP4 CODECOPY DUP2 DUP2 ADD PUSH1 0x40 MSTORE PUSH1 0x20 DUP2 LT ISZERO PUSH3 0x4D JUMPI PUSH1 0x0 DUP1 PUSH3 0x4A PUSH3 0x363 JUMP JUMPDEST POP POP JUMPDEST DUP2 ADD SWAP1 DUP1 DUP1 MLOAD SWAP3 POP DUP3 SWAP2 POP POP PUSH1 0x1 PUSH1 0x1 PUSH1 0xA0 SHL SUB DUP2 AND PUSH3 0xBF JUMPI PUSH1 0x40 MLOAD PUSH3 0x461BCD PUSH1 0xE5 SHL DUP2 MSTORE PUSH1 0x20 PUSH1 0x4 DUP3 ADD MSTORE PUSH1 0x19 PUSH1 0x24 DUP3 ADD MSTORE PUSH32 0x4F776E657220616464726573732063616E6E6F74206265203000000000000000 PUSH1 0x44 DUP3 ADD MSTORE PUSH1 0x64 ADD PUSH1 0x40 MLOAD DUP1 SWAP2 SUB SWAP1 PUSH3 0xBC PUSH3 0x363 JUMP JUMPDEST POP POP JUMPDEST DUP1 PUSH1 0x0 PUSH1 0x1 DUP2 PUSH3 0xCF PUSH3 0x3D0 JUMP JUMPDEST DUP2 PUSH1 0x1 PUSH1 0x1 PUSH1 0xA0 SHL SUB MUL NOT AND SWAP1 DUP4 PUSH1 0x1 PUSH1 0x1 PUSH1 0xA0 SHL SUB AND MUL OR SWAP1 PUSH3 0xF3 PUSH3 0x432 JUMP JUMPDEST POP POP POP PUSH32 0xB532073B38C83145E3E5135377A08BF9AAB55BC0FD7C1179CD4FB995D2A5159C PUSH1 0x0 DUP3 PUSH1 0x40 MLOAD PUSH1 0x1 PUSH1 0x1 PUSH1 0xA0 SHL SUB SWAP3 DUP4 AND DUP2 MSTORE SWAP2 AND PUSH1 0x20 DUP3 ADD MSTORE PUSH1 0x40 SWAP1 DUP2 ADD SWAP1 MLOAD DUP1 SWAP2 SUB SWAP1 LOG1 POP PUSH3 0x15F PUSH6 0x53797374656D PUSH1 0xD0 SHL DUP3 PUSH1 0x1 DUP1 PUSH1 0x1 PUSH1 0x1 PUSH1 0xE0 SHL SUB PUSH3 0x1CC AND JUMP JUMPDEST PUSH3 0x182 PUSH8 0x49737375616E6365 PUSH1 0xC0 SHL DUP3 PUSH1 0x1 DUP1 PUSH1 0x1 PUSH1 0x1 PUSH1 0xE0 SHL SUB PUSH3 0x1CC AND JUMP JUMPDEST PUSH3 0x1A5 PUSH8 0x45786368616E6765 PUSH1 0xC0 SHL DUP3 PUSH1 0x1 DUP1 PUSH1 0x1 PUSH1 0x1 PUSH1 0xE0 SHL SUB PUSH3 0x1CC AND JUMP JUMPDEST PUSH3 0x1C5 PUSH5 0xA6F2DCE8D PUSH1 0xDB SHL DUP3 PUSH1 0x1 DUP1 PUSH1 0x1 PUSH1 0x1 PUSH1 0xE0 SHL SUB PUSH3 0x1CC AND JUMP JUMPDEST POP PUSH3 0x481 JUMP JUMPDEST PUSH6 0x53797374656D PUSH1 0xD0 SHL DUP5 EQ DUP1 PUSH3 0x1EE JUMPI POP PUSH8 0x49737375616E6365 PUSH1 0xC0 SHL DUP5 EQ JUMPDEST DUP1 PUSH3 0x204 JUMPI POP PUSH8 0x45786368616E6765 PUSH1 0xC0 SHL DUP5 EQ JUMPDEST DUP1 PUSH3 0x217 JUMPI POP PUSH5 0xA6F2DCE8D PUSH1 0xDB SHL DUP5 EQ JUMPDEST PUSH3 0x273 JUMPI PUSH1 0x40 MLOAD PUSH3 0x461BCD PUSH1 0xE5 SHL DUP2 MSTORE PUSH1 0x20 PUSH1 0x4 DUP3 ADD MSTORE PUSH1 0x18 PUSH1 0x24 DUP3 ADD MSTORE PUSH32 0x496E76616C69642073656374696F6E20737570706C6965640000000000000000 PUSH1 0x44 DUP3 ADD MSTORE PUSH1 0x64 ADD PUSH1 0x40 MLOAD DUP1 SWAP2 SUB SWAP1 PUSH3 0x270 PUSH3 0x363 JUMP JUMPDEST POP POP JUMPDEST PUSH1 0x0 DUP5 DUP2 MSTORE PUSH1 0x2 PUSH1 0x20 MSTORE DUP3 SWAP1 PUSH1 0x40 SWAP1 KECCAK256 PUSH1 0x1 PUSH1 0x1 PUSH1 0xA0 SHL SUB DUP6 AND PUSH1 0x0 SWAP1 DUP2 MSTORE PUSH1 0x20 SWAP2 SWAP1 SWAP2 MSTORE PUSH1 0x40 SWAP1 KECCAK256 PUSH1 0x1 DUP2 PUSH3 0x2A9 PUSH3 0x3D0 JUMP JUMPDEST DUP2 PUSH1 0xFF MUL NOT AND SWAP1 DUP4 ISZERO ISZERO MUL OR SWAP1 PUSH3 0x2C0 PUSH3 0x432 JUMP JUMPDEST POP POP POP PUSH1 0x0 DUP5 DUP2 MSTORE PUSH1 0x2 PUSH1 0x20 MSTORE DUP2 SWAP1 PUSH1 0x40 SWAP1 KECCAK256 PUSH1 0x1 PUSH1 0x1 PUSH1 0xA0 SHL SUB DUP6 AND PUSH1 0x0 SWAP1 DUP2 MSTORE PUSH1 0x20 SWAP2 SWAP1 SWAP2 MSTORE PUSH1 0x40 SWAP1 KECCAK256 PUSH2 0x100 DUP2 PUSH3 0x2FA PUSH3 0x3D0 JUMP JUMPDEST DUP2 PUSH1 0xFF MUL NOT AND SWAP1 DUP4 ISZERO ISZERO MUL OR SWAP1 PUSH3 0x311 PUSH3 0x432 JUMP JUMPDEST POP POP POP DUP3 PUSH1 0x1 PUSH1 0x1 PUSH1 0xA0 SHL SUB AND DUP5 PUSH32 0x95BAD30F8FE717E4A02906D7B05A6F90698C7135CD053E5B6D5239146B4C40D1 DUP5 DUP5 PUSH1 0x40 MLOAD SWAP2 ISZERO ISZERO DUP3 MSTORE ISZERO ISZERO PUSH1 0x20 DUP3 ADD MSTORE PUSH1 0x40 SWAP1 DUP2 ADD SWAP1 MLOAD DUP1 SWAP2 SUB SWAP1 LOG3 POP POP POP POP JUMP JUMPDEST PUSH4 0x2A2A7ADB MSIZE DUP2 PUSH1 0xE0 SHL DUP2 MSTORE PUSH1 0x4 DUP2 ADD PUSH1 0x20 DUP2 MSTORE DUP6 PUSH1 0x20 DUP3 ADD MSTORE PUSH1 0x0 JUMPDEST DUP7 DUP2 LT ISZERO PUSH3 0x39D JUMPI DUP1 DUP7 ADD MLOAD DUP3 DUP3 ADD PUSH1 0x40 ADD MSTORE PUSH1 0x20 ADD PUSH3 0x380 JUMP JUMPDEST POP PUSH1 0x20 DUP3 DUP8 PUSH1 0x64 ADD DUP5 CALLER PUSH1 0x0 SWAP1 GAS CALL PC PUSH1 0xE ADD JUMPI RETURNDATASIZE PUSH1 0x0 DUP1 RETURNDATACOPY RETURNDATASIZE PUSH1 0x0 REVERT JUMPDEST RETURNDATASIZE PUSH1 0x1 EQ ISZERO PC PUSH1 0xA ADD JUMPI PUSH1 0x1 PUSH1 0x0 RETURN JUMPDEST POP POP POP JUMP JUMPDEST PUSH4 0x3DAA959 MSIZE DUP2 PUSH1 0xE0 SHL DUP2 MSTORE DUP4 PUSH1 0x4 DUP3 ADD MSTORE PUSH1 0x20 DUP2 PUSH1 0x24 DUP4 CALLER PUSH1 0x0 SWAP1 GAS CALL PC PUSH1 0xE ADD JUMPI RETURNDATASIZE PUSH1 0x0 DUP1 RETURNDATACOPY RETURNDATASIZE PUSH1 0x0 REVERT JUMPDEST RETURNDATASIZE PUSH1 0x1 EQ ISZERO PC PUSH1 0xA ADD JUMPI PUSH1 0x1 PUSH1 0x0 RETURN JUMPDEST DUP1 MLOAD SWAP4 POP PUSH1 0x0 JUMPDEST PUSH1 0x40 DUP2 LT ISZERO PUSH3 0x42D JUMPI PUSH1 0x0 DUP3 DUP3 ADD MSTORE PUSH1 0x20 ADD PUSH3 0x414 JUMP JUMPDEST POP POP POP JUMP JUMPDEST PUSH4 0x22BD64C0 MSIZE DUP2 PUSH1 0xE0 SHL DUP2 MSTORE DUP4 PUSH1 0x4 DUP3 ADD MSTORE DUP5 PUSH1 0x24 DUP3 ADD MSTORE PUSH1 0x0 DUP2 PUSH1 0x44 DUP4 CALLER PUSH1 0x0 SWAP1 GAS CALL PC PUSH1 0xE ADD JUMPI RETURNDATASIZE PUSH1 0x0 DUP1 RETURNDATACOPY RETURNDATASIZE PUSH1 0x0 REVERT JUMPDEST RETURNDATASIZE PUSH1 0x1 EQ ISZERO PC PUSH1 0xA ADD JUMPI PUSH1 0x1 PUSH1 0x0 RETURN JUMPDEST PUSH1 0x0 DUP2 MSTORE PUSH1 0x20 PUSH3 0x414 JUMP JUMPDEST PUSH2 0x1953 DUP1 PUSH3 0x491 PUSH1 0x0 CODECOPY PUSH1 0x0 RETURN INVALID PUSH1 0x80 PUSH1 0x40 MSTORE CALLVALUE DUP1 ISZERO PUSH2 0x19 JUMPI PUSH1 0x0 DUP1 PUSH2 0x16 PUSH2 0x1655 JUMP JUMPDEST POP POP JUMPDEST POP PUSH1 0x4 CALLDATASIZE LT PUSH2 0x1E3 JUMPI PUSH1 0x0 CALLDATALOAD PUSH1 0xE0 SHR DUP1 PUSH4 0x67A280B2 GT PUSH2 0x10D JUMPI DUP1 PUSH4 0x9F8A95BA GT PUSH2 0xAB JUMPI DUP1 PUSH4 0xF1616207 GT PUSH2 0x7A JUMPI DUP1 PUSH4 0xF1616207 EQ PUSH2 0x612 JUMPI DUP1 PUSH4 0xF405F65A EQ PUSH2 0x61A JUMPI DUP1 PUSH4 0xF44D1E0B EQ PUSH2 0x622 JUMPI DUP1 PUSH4 0xF8B4B084 EQ PUSH2 0x62A JUMPI PUSH2 0x1E3 JUMP JUMPDEST DUP1 PUSH4 0x9F8A95BA EQ PUSH2 0x46F JUMPI DUP1 PUSH4 0xABC0BB6E EQ PUSH2 0x493 JUMPI DUP1 PUSH4 0xB9A49869 EQ PUSH2 0x4BF JUMPI DUP1 PUSH4 0xE470DF58 EQ PUSH2 0x5EC JUMPI PUSH2 0x1E3 JUMP JUMPDEST DUP1 PUSH4 0x79BA5097 GT PUSH2 0xE7 JUMPI DUP1 PUSH4 0x79BA5097 EQ PUSH2 0x431 JUMPI DUP1 PUSH4 0x7C312541 EQ PUSH2 0x439 JUMPI DUP1 PUSH4 0x8DA5CB5B EQ PUSH2 0x441 JUMPI DUP1 PUSH4 0x94C79F74 EQ PUSH2 0x449 JUMPI PUSH2 0x1E3 JUMP JUMPDEST DUP1 PUSH4 0x67A280B2 EQ PUSH2 0x3FB JUMPI DUP1 PUSH4 0x7118D431 EQ PUSH2 0x403 JUMPI DUP1 PUSH4 0x7243BC2C EQ PUSH2 0x40B JUMPI PUSH2 0x1E3 JUMP JUMPDEST DUP1 PUSH4 0x2DD8AFDB GT PUSH2 0x185 JUMPI DUP1 PUSH4 0x48BF1971 GT PUSH2 0x154 JUMPI DUP1 PUSH4 0x48BF1971 EQ PUSH2 0x35E JUMPI DUP1 PUSH4 0x4ABDB44D EQ PUSH2 0x3A3 JUMPI DUP1 PUSH4 0x53A47BB7 EQ PUSH2 0x3AB JUMPI DUP1 PUSH4 0x6132EBA4 EQ PUSH2 0x3CF JUMPI PUSH2 0x1E3 JUMP JUMPDEST DUP1 PUSH4 0x2DD8AFDB EQ PUSH2 0x2EE JUMPI DUP1 PUSH4 0x2E8D0B9E EQ PUSH2 0x2F6 JUMPI DUP1 PUSH4 0x396E258E EQ PUSH2 0x312 JUMPI DUP1 PUSH4 0x42A28E21 EQ PUSH2 0x338 JUMPI PUSH2 0x1E3 JUMP JUMPDEST DUP1 PUSH4 0x1588E817 GT PUSH2 0x1C1 JUMPI DUP1 PUSH4 0x1588E817 EQ PUSH2 0x21D JUMPI DUP1 PUSH4 0x1627540C EQ PUSH2 0x243 JUMPI DUP1 PUSH4 0x20F2BF00 EQ PUSH2 0x272 JUMPI DUP1 PUSH4 0x2366245E EQ PUSH2 0x2C3 JUMPI PUSH2 0x1E3 JUMP JUMPDEST DUP1 PUSH4 0x86DABD1 EQ PUSH2 0x1F1 JUMPI DUP1 PUSH4 0x12BDE514 EQ PUSH2 0x1FB JUMPI DUP1 PUSH4 0x157C51D3 EQ PUSH2 0x215 JUMPI JUMPDEST PUSH1 0x0 DUP1 PUSH2 0x1EE PUSH2 0x1655 JUMP JUMPDEST POP POP JUMPDEST PUSH2 0x1F9 PUSH2 0x632 JUMP JUMPDEST STOP JUMPDEST PUSH2 0x203 PUSH2 0x63C JUMP JUMPDEST PUSH1 0x40 MLOAD SWAP1 DUP2 MSTORE PUSH1 0x20 ADD PUSH1 0x40 MLOAD DUP1 SWAP2 SUB SWAP1 RETURN JUMPDEST PUSH2 0x1F9 PUSH2 0x649 JUMP JUMPDEST PUSH2 0x1F9 PUSH1 0x4 DUP1 CALLDATASIZE SUB PUSH1 0x20 DUP2 LT ISZERO PUSH2 0x23C JUMPI PUSH1 0x0 DUP1 PUSH2 0x239 PUSH2 0x1655 JUMP JUMPDEST POP POP JUMPDEST POP CALLDATALOAD PUSH2 0x712 JUMP JUMPDEST PUSH2 0x1F9 PUSH1 0x4 DUP1 CALLDATASIZE SUB PUSH1 0x20 DUP2 LT ISZERO PUSH2 0x262 JUMPI PUSH1 0x0 DUP1 PUSH2 0x25F PUSH2 0x1655 JUMP JUMPDEST POP POP JUMPDEST POP CALLDATALOAD PUSH1 0x1 PUSH1 0x1 PUSH1 0xA0 SHL SUB AND PUSH2 0x7B8 JUMP JUMPDEST PUSH2 0x2A7 PUSH1 0x4 DUP1 CALLDATASIZE SUB PUSH1 0x40 DUP2 LT ISZERO PUSH2 0x291 JUMPI PUSH1 0x0 DUP1 PUSH2 0x28E PUSH2 0x1655 JUMP JUMPDEST POP POP JUMPDEST POP DUP1 CALLDATALOAD SWAP1 PUSH1 0x20 ADD CALLDATALOAD PUSH1 0x1 PUSH1 0x1 PUSH1 0xA0 SHL SUB AND PUSH2 0x832 JUMP JUMPDEST PUSH1 0x40 MLOAD SWAP2 ISZERO ISZERO DUP3 MSTORE ISZERO ISZERO PUSH1 0x20 DUP3 ADD MSTORE PUSH1 0x40 SWAP1 DUP2 ADD SWAP1 MLOAD DUP1 SWAP2 SUB SWAP1 RETURN JUMPDEST PUSH2 0x2CB PUSH2 0x882 JUMP JUMPDEST PUSH1 0x40 MLOAD SWAP2 ISZERO ISZERO DUP3 MSTORE PUSH1 0x1 PUSH1 0x1 PUSH1 0xF8 SHL SUB AND PUSH1 0x20 DUP3 ADD MSTORE PUSH1 0x40 SWAP1 DUP2 ADD SWAP1 MLOAD DUP1 SWAP2 SUB SWAP1 RETURN JUMPDEST PUSH2 0x2CB PUSH2 0x8BC JUMP JUMPDEST PUSH2 0x2FE PUSH2 0x8C9 JUMP JUMPDEST PUSH1 0x40 MLOAD SWAP1 ISZERO ISZERO DUP2 MSTORE PUSH1 0x20 ADD PUSH1 0x40 MLOAD DUP1 SWAP2 SUB SWAP1 RETURN JUMPDEST PUSH2 0x1F9 PUSH1 0x4 DUP1 CALLDATASIZE SUB PUSH1 0x20 DUP2 LT ISZERO PUSH2 0x331 JUMPI PUSH1 0x0 DUP1 PUSH2 0x32E PUSH2 0x1655 JUMP JUMPDEST POP POP JUMPDEST POP CALLDATALOAD PUSH2 0x914 JUMP JUMPDEST PUSH2 0x1F9 PUSH1 0x4 DUP1 CALLDATASIZE SUB PUSH1 0x20 DUP2 LT ISZERO PUSH2 0x357 JUMPI PUSH1 0x0 DUP1 PUSH2 0x354 PUSH2 0x1655 JUMP JUMPDEST POP POP JUMPDEST POP CALLDATALOAD PUSH2 0x9BA JUMP JUMPDEST PUSH2 0x1F9 PUSH1 0x4 DUP1 CALLDATASIZE SUB PUSH1 0x80 DUP2 LT ISZERO PUSH2 0x37D JUMPI PUSH1 0x0 DUP1 PUSH2 0x37A PUSH2 0x1655 JUMP JUMPDEST POP POP JUMPDEST POP DUP1 CALLDATALOAD SWAP1 PUSH1 0x1 PUSH1 0x1 PUSH1 0xA0 SHL SUB PUSH1 0x20 DUP3 ADD CALLDATALOAD AND SWAP1 PUSH1 0x40 DUP2 ADD CALLDATALOAD ISZERO ISZERO SWAP1 PUSH1 0x60 ADD CALLDATALOAD ISZERO ISZERO PUSH2 0xA2A JUMP JUMPDEST PUSH2 0x203 PUSH2 0xA44 JUMP JUMPDEST PUSH2 0x3B3 PUSH2 0xA53 JUMP JUMPDEST PUSH1 0x40 MLOAD PUSH1 0x1 PUSH1 0x1 PUSH1 0xA0 SHL SUB SWAP1 SWAP2 AND DUP2 MSTORE PUSH1 0x20 ADD PUSH1 0x40 MLOAD DUP1 SWAP2 SUB SWAP1 RETURN JUMPDEST PUSH2 0x1F9 PUSH1 0x4 DUP1 CALLDATASIZE SUB PUSH1 0x40 DUP2 LT ISZERO PUSH2 0x3EE JUMPI PUSH1 0x0 DUP1 PUSH2 0x3EB PUSH2 0x1655 JUMP JUMPDEST POP POP JUMPDEST POP DUP1 CALLDATALOAD SWAP1 PUSH1 0x20 ADD CALLDATALOAD PUSH2 0xA72 JUMP JUMPDEST PUSH2 0x1F9 PUSH2 0xB0F JUMP JUMPDEST PUSH2 0x1F9 PUSH2 0xBB3 JUMP JUMPDEST PUSH2 0x2CB PUSH1 0x4 DUP1 CALLDATASIZE SUB PUSH1 0x20 DUP2 LT ISZERO PUSH2 0x42A JUMPI PUSH1 0x0 DUP1 PUSH2 0x427 PUSH2 0x1655 JUMP JUMPDEST POP POP JUMPDEST POP CALLDATALOAD PUSH2 0xC13 JUMP JUMPDEST PUSH2 0x1F9 PUSH2 0xC2E JUMP JUMPDEST PUSH2 0x1F9 PUSH2 0xDAC JUMP JUMPDEST PUSH2 0x3B3 PUSH2 0xE0C JUMP JUMPDEST PUSH2 0x1F9 PUSH1 0x4 DUP1 CALLDATASIZE SUB PUSH1 0x20 DUP2 LT ISZERO PUSH2 0x468 JUMPI PUSH1 0x0 DUP1 PUSH2 0x465 PUSH2 0x1655 JUMP JUMPDEST POP POP JUMPDEST POP CALLDATALOAD PUSH2 0xE17 JUMP JUMPDEST PUSH2 0x477 PUSH2 0xEEC JUMP JUMPDEST PUSH1 0x40 MLOAD PUSH1 0x1 PUSH1 0x1 PUSH1 0xF8 SHL SUB SWAP1 SWAP2 AND DUP2 MSTORE PUSH1 0x20 ADD PUSH1 0x40 MLOAD DUP1 SWAP2 SUB SWAP1 RETURN JUMPDEST PUSH2 0x1F9 PUSH1 0x4 DUP1 CALLDATASIZE SUB PUSH1 0x40 DUP2 LT ISZERO PUSH2 0x4B2 JUMPI PUSH1 0x0 DUP1 PUSH2 0x4AF PUSH2 0x1655 JUMP JUMPDEST POP POP JUMPDEST POP DUP1 CALLDATALOAD SWAP1 PUSH1 0x20 ADD CALLDATALOAD PUSH2 0xEF1 JUMP JUMPDEST PUSH2 0x553 PUSH1 0x4 DUP1 CALLDATASIZE SUB PUSH1 0x20 DUP2 LT ISZERO PUSH2 0x4DE JUMPI PUSH1 0x0 DUP1 PUSH2 0x4DB PUSH2 0x1655 JUMP JUMPDEST POP POP JUMPDEST DUP2 ADD SWAP1 PUSH1 0x20 DUP2 ADD DUP2 CALLDATALOAD PUSH5 0x100000000 DUP2 GT ISZERO PUSH2 0x502 JUMPI PUSH1 0x0 DUP1 PUSH2 0x4FF PUSH2 0x1655 JUMP JUMPDEST POP POP JUMPDEST DUP3 ADD DUP4 PUSH1 0x20 DUP3 ADD GT ISZERO PUSH2 0x51D JUMPI PUSH1 0x0 DUP1 PUSH2 0x51A PUSH2 0x1655 JUMP JUMPDEST POP POP JUMPDEST DUP1 CALLDATALOAD SWAP1 PUSH1 0x20 ADD SWAP2 DUP5 PUSH1 0x20 DUP4 MUL DUP5 ADD GT PUSH5 0x100000000 DUP4 GT OR ISZERO PUSH2 0x548 JUMPI PUSH1 0x0 DUP1 PUSH2 0x545 PUSH2 0x1655 JUMP JUMPDEST POP POP JUMPDEST POP SWAP1 SWAP3 POP SWAP1 POP PUSH2 0xFB5 JUMP JUMPDEST PUSH1 0x40 MLOAD DUP1 DUP1 PUSH1 0x20 ADD DUP1 PUSH1 0x20 ADD DUP4 DUP2 SUB DUP4 MSTORE DUP6 DUP2 DUP2 MLOAD DUP2 MSTORE PUSH1 0x20 ADD SWAP2 POP DUP1 MLOAD SWAP1 PUSH1 0x20 ADD SWAP1 PUSH1 0x20 MUL DUP1 DUP4 DUP4 PUSH1 0x0 JUMPDEST DUP4 DUP2 LT ISZERO PUSH2 0x597 JUMPI DUP1 DUP3 ADD MLOAD DUP4 DUP3 ADD MSTORE PUSH1 0x20 ADD PUSH2 0x57F JUMP JUMPDEST POP POP POP POP SWAP1 POP ADD DUP4 DUP2 SUB DUP3 MSTORE DUP5 DUP2 DUP2 MLOAD DUP2 MSTORE PUSH1 0x20 ADD SWAP2 POP DUP1 MLOAD SWAP1 PUSH1 0x20 ADD SWAP1 PUSH1 0x20 MUL DUP1 DUP4 DUP4 PUSH1 0x0 JUMPDEST DUP4 DUP2 LT ISZERO PUSH2 0x5D6 JUMPI DUP1 DUP3 ADD MLOAD DUP4 DUP3 ADD MSTORE PUSH1 0x20 ADD PUSH2 0x5BE JUMP JUMPDEST POP POP POP POP SWAP1 POP ADD SWAP5 POP POP POP POP POP PUSH1 0x40 MLOAD DUP1 SWAP2 SUB SWAP1 RETURN JUMPDEST PUSH2 0x1F9 PUSH1 0x4 DUP1 CALLDATASIZE SUB PUSH1 0x20 DUP2 LT ISZERO PUSH2 0x60B JUMPI PUSH1 0x0 DUP1 PUSH2 0x608 PUSH2 0x1655 JUMP JUMPDEST POP POP JUMPDEST POP CALLDATALOAD PUSH2 0x10E3 JUMP JUMPDEST PUSH2 0x203 PUSH2 0x11AE JUMP JUMPDEST PUSH2 0x1F9 PUSH2 0x11BD JUMP JUMPDEST PUSH2 0x203 PUSH2 0x1261 JUMP JUMPDEST PUSH2 0x2CB PUSH2 0x126D JUMP JUMPDEST PUSH2 0x63A PUSH2 0x127A JUMP JUMPDEST JUMP JUMPDEST PUSH6 0x53797374656D PUSH1 0xD0 SHL DUP2 JUMP JUMPDEST PUSH2 0x65B PUSH6 0x53797374656D PUSH1 0xD0 SHL PUSH2 0x1381 JUMP JUMPDEST PUSH1 0x0 PUSH1 0x3 PUSH1 0x1 DUP2 PUSH2 0x66A PUSH2 0x16C0 JUMP JUMPDEST DUP2 PUSH1 0xFF MUL NOT AND SWAP1 DUP4 ISZERO ISZERO MUL OR SWAP1 PUSH2 0x67F PUSH2 0x171B JUMP JUMPDEST POP PUSH32 0xB392A95118344E8EDFF8EFF56183AFB4BB0240310C406A0FC1217D2755C66D8F SWAP2 POP PUSH1 0x1 SWAP1 POP PUSH1 0x3 PUSH2 0x6B1 PUSH2 0x16C0 JUMP JUMPDEST SWAP1 PUSH2 0x100 EXP SWAP1 DIV PUSH1 0x1 PUSH1 0x1 PUSH1 0xF8 SHL SUB AND PUSH1 0x1 PUSH1 0x1 PUSH1 0xF8 SHL SUB AND PUSH1 0x40 MLOAD SWAP1 DUP2 MSTORE PUSH1 0x20 ADD PUSH1 0x40 MLOAD DUP1 SWAP2 SUB SWAP1 LOG1 PUSH1 0x0 PUSH1 0x3 PUSH2 0x100 DUP2 PUSH2 0x6EB PUSH2 0x16C0 JUMP JUMPDEST DUP2 PUSH1 0x1 PUSH1 0x1 PUSH1 0xF8 SHL SUB MUL NOT AND SWAP1 DUP4 PUSH1 0x1 PUSH1 0x1 PUSH1 0xF8 SHL SUB AND MUL OR SWAP1 PUSH2 0x70D PUSH2 0x171B JUMP JUMPDEST POP POP POP JUMP JUMPDEST PUSH2 0x726 PUSH8 0x45786368616E6765 PUSH1 0xC0 SHL PUSH2 0x1410 JUMP JUMPDEST PUSH1 0x1 PUSH1 0x5 DUP2 DUP2 PUSH2 0x734 PUSH2 0x16C0 JUMP JUMPDEST DUP2 PUSH1 0xFF MUL NOT AND SWAP1 DUP4 ISZERO ISZERO MUL OR SWAP1 PUSH2 0x749 PUSH2 0x171B JUMP JUMPDEST POP DUP3 SWAP2 POP PUSH1 0x5 SWAP1 POP PUSH2 0x100 DUP2 PUSH2 0x75D PUSH2 0x16C0 JUMP JUMPDEST DUP2 PUSH1 0x1 PUSH1 0x1 PUSH1 0xF8 SHL SUB MUL NOT AND SWAP1 DUP4 PUSH1 0x1 PUSH1 0x1 PUSH1 0xF8 SHL SUB AND MUL OR SWAP1 PUSH2 0x77F PUSH2 0x171B JUMP JUMPDEST POP POP POP PUSH32 0x78773069A9216CDB6ACAA7B184785F12F62048C7CE8B7EDE1BAD6785DE16B22 DUP2 PUSH1 0x40 MLOAD SWAP1 DUP2 MSTORE PUSH1 0x20 ADD PUSH1 0x40 MLOAD DUP1 SWAP2 SUB SWAP1 LOG1 POP JUMP JUMPDEST PUSH2 0x7C0 PUSH2 0x1454 JUMP JUMPDEST DUP1 PUSH1 0x1 DUP1 DUP1 PUSH2 0x7CD PUSH2 0x16C0 JUMP JUMPDEST DUP2 PUSH1 0x1 PUSH1 0x1 PUSH1 0xA0 SHL SUB MUL NOT AND SWAP1 DUP4 PUSH1 0x1 PUSH1 0x1 PUSH1 0xA0 SHL SUB AND MUL OR SWAP1 PUSH2 0x7EF PUSH2 0x171B JUMP JUMPDEST POP POP POP PUSH32 0x906A1C6BD7E3091EA86693DD029A831C19049CE77F1DCE2CE0BAB1CACBABCE22 DUP2 PUSH1 0x40 MLOAD PUSH1 0x1 PUSH1 0x1 PUSH1 0xA0 SHL SUB SWAP1 SWAP2 AND DUP2 MSTORE PUSH1 0x20 ADD PUSH1 0x40 MLOAD DUP1 SWAP2 SUB SWAP1 LOG1 POP JUMP JUMPDEST PUSH1 0x2 PUSH1 0x20 MSTORE DUP2 PUSH1 0x0 MSTORE PUSH1 0x40 PUSH1 0x0 KECCAK256 PUSH1 0x20 MSTORE DUP1 PUSH1 0x0 MSTORE PUSH1 0x40 PUSH1 0x0 KECCAK256 SWAP2 POP PUSH1 0x0 SWAP1 POP DUP2 PUSH2 0x85B PUSH2 0x16C0 JUMP JUMPDEST PUSH1 0xFF PUSH2 0x100 SWAP3 SWAP1 SWAP3 EXP SWAP1 DIV AND SWAP1 PUSH1 0x1 DUP2 PUSH2 0x873 PUSH2 0x16C0 JUMP JUMPDEST SWAP1 PUSH2 0x100 EXP SWAP1 DIV PUSH1 0xFF AND SWAP1 POP DUP3 JUMP JUMPDEST PUSH1 0x4 PUSH1 0x0 DUP2 PUSH2 0x88F PUSH2 0x16C0 JUMP JUMPDEST PUSH1 0xFF PUSH2 0x100 SWAP3 SWAP1 SWAP3 EXP SWAP1 DIV AND SWAP1 PUSH1 0x1 DUP2 PUSH2 0x8A7 PUSH2 0x16C0 JUMP JUMPDEST SWAP1 PUSH2 0x100 EXP SWAP1 DIV PUSH1 0x1 PUSH1 0x1 PUSH1 0xF8 SHL SUB AND SWAP1 POP DUP3 JUMP JUMPDEST PUSH1 0x3 PUSH1 0x0 DUP2 PUSH2 0x88F PUSH2 0x16C0 JUMP JUMPDEST PUSH1 0x0 DUP1 PUSH1 0x3 PUSH2 0x8D6 PUSH2 0x16C0 JUMP JUMPDEST SWAP1 PUSH2 0x100 EXP SWAP1 DIV PUSH1 0xFF AND DUP1 ISZERO PUSH2 0x90F JUMPI POP PUSH1 0x1 DUP1 PUSH1 0x3 PUSH2 0x8F4 PUSH2 0x16C0 JUMP JUMPDEST SWAP1 PUSH2 0x100 EXP SWAP1 DIV PUSH1 0x1 PUSH1 0x1 PUSH1 0xF8 SHL SUB AND PUSH1 0x1 PUSH1 0x1 PUSH1 0xF8 SHL SUB AND EQ JUMPDEST SWAP1 POP SWAP1 JUMP JUMPDEST PUSH2 0x928 PUSH8 0x49737375616E6365 PUSH1 0xC0 SHL PUSH2 0x1410 JUMP JUMPDEST PUSH1 0x1 PUSH1 0x4 DUP2 DUP2 PUSH2 0x936 PUSH2 0x16C0 JUMP JUMPDEST DUP2 PUSH1 0xFF MUL NOT AND SWAP1 DUP4 ISZERO ISZERO MUL OR SWAP1 PUSH2 0x94B PUSH2 0x171B JUMP JUMPDEST POP DUP3 SWAP2 POP PUSH1 0x4 SWAP1 POP PUSH2 0x100 DUP2 PUSH2 0x95F PUSH2 0x16C0 JUMP JUMPDEST DUP2 PUSH1 0x1 PUSH1 0x1 PUSH1 0xF8 SHL SUB MUL NOT AND SWAP1 DUP4 PUSH1 0x1 PUSH1 0x1 PUSH1 0xF8 SHL SUB AND MUL OR SWAP1 PUSH2 0x981 PUSH2 0x171B JUMP JUMPDEST POP POP POP PUSH32 0xEE8BF45D6E3141AA521AE4F0D05DFEFE0327A3F23A9FBAE6A64680458B34EBB8 DUP2 PUSH1 0x40 MLOAD SWAP1 DUP2 MSTORE PUSH1 0x20 ADD PUSH1 0x40 MLOAD DUP1 SWAP2 SUB SWAP1 LOG1 POP JUMP JUMPDEST PUSH2 0x9C2 PUSH2 0x127A JUMP JUMPDEST PUSH1 0x0 DUP2 DUP2 MSTORE PUSH1 0x6 PUSH1 0x20 MSTORE PUSH1 0x40 SWAP1 KECCAK256 PUSH1 0x0 SWAP1 PUSH2 0x9DB PUSH2 0x16C0 JUMP JUMPDEST SWAP1 PUSH2 0x100 EXP SWAP1 DIV PUSH1 0xFF AND ISZERO PUSH2 0xA27 JUMPI PUSH1 0x40 MLOAD PUSH3 0x461BCD PUSH1 0xE5 SHL DUP2 MSTORE PUSH1 0x4 ADD DUP1 DUP1 PUSH1 0x20 ADD DUP3 DUP2 SUB DUP3 MSTORE PUSH1 0x28 DUP2 MSTORE PUSH1 0x20 ADD DUP1 PUSH2 0x192B PUSH1 0x28 SWAP2 CODECOPY PUSH1 0x40 ADD SWAP2 POP POP PUSH1 0x40 MLOAD DUP1 SWAP2 SUB SWAP1 PUSH2 0x70D PUSH2 0x1655 JUMP JUMPDEST POP JUMP JUMPDEST PUSH2 0xA32 PUSH2 0x1454 JUMP JUMPDEST PUSH2 0xA3E DUP5 DUP5 DUP5 DUP5 PUSH2 0x14CC JUMP JUMPDEST POP POP POP POP JUMP JUMPDEST PUSH8 0x49737375616E6365 PUSH1 0xC0 SHL DUP2 JUMP JUMPDEST PUSH1 0x0 PUSH1 0x1 PUSH2 0xA5F PUSH2 0x16C0 JUMP JUMPDEST SWAP1 PUSH2 0x100 EXP SWAP1 DIV PUSH1 0x1 PUSH1 0x1 PUSH1 0xA0 SHL SUB AND DUP2 JUMP JUMPDEST PUSH2 0xA7A PUSH2 0x127A JUMP JUMPDEST PUSH1 0x0 DUP3 DUP2 MSTORE PUSH1 0x6 PUSH1 0x20 MSTORE PUSH1 0x40 SWAP1 KECCAK256 PUSH1 0x0 SWAP1 PUSH2 0xA93 PUSH2 0x16C0 JUMP JUMPDEST SWAP1 PUSH2 0x100 EXP SWAP1 DIV PUSH1 0xFF AND ISZERO DUP1 ISZERO PUSH2 0xACA JUMPI POP PUSH1 0x0 DUP2 DUP2 MSTORE PUSH1 0x6 PUSH1 0x20 MSTORE PUSH1 0x40 SWAP1 KECCAK256 PUSH1 0x0 SWAP1 PUSH2 0xABE PUSH2 0x16C0 JUMP JUMPDEST SWAP1 PUSH2 0x100 EXP SWAP1 DIV PUSH1 0xFF AND ISZERO JUMPDEST PUSH2 0xB0B JUMPI PUSH1 0x40 MLOAD PUSH3 0x461BCD PUSH1 0xE5 SHL DUP2 MSTORE PUSH1 0x4 ADD DUP1 DUP1 PUSH1 0x20 ADD DUP3 DUP2 SUB DUP3 MSTORE PUSH1 0x36 DUP2 MSTORE PUSH1 0x20 ADD DUP1 PUSH2 0x17E5 PUSH1 0x36 SWAP2 CODECOPY PUSH1 0x40 ADD SWAP2 POP POP PUSH1 0x40 MLOAD DUP1 SWAP2 SUB SWAP1 PUSH2 0xA3E PUSH2 0x1655 JUMP JUMPDEST POP POP JUMP JUMPDEST PUSH2 0xB23 PUSH8 0x49737375616E6365 PUSH1 0xC0 SHL PUSH2 0x1381 JUMP JUMPDEST PUSH1 0x0 PUSH1 0x4 PUSH1 0x1 DUP2 PUSH2 0xB32 PUSH2 0x16C0 JUMP JUMPDEST DUP2 PUSH1 0xFF MUL NOT AND SWAP1 DUP4 ISZERO ISZERO MUL OR SWAP1 PUSH2 0xB47 PUSH2 0x171B JUMP JUMPDEST POP PUSH32 0xF1A80395FABA9A11017F830DB5F90AD6525A1621DBFB2CBC2B6679BA5716837 SWAP2 POP PUSH1 0x1 SWAP1 POP PUSH1 0x4 PUSH2 0xB79 PUSH2 0x16C0 JUMP JUMPDEST SWAP1 PUSH2 0x100 EXP SWAP1 DIV PUSH1 0x1 PUSH1 0x1 PUSH1 0xF8 SHL SUB AND PUSH1 0x1 PUSH1 0x1 PUSH1 0xF8 SHL SUB AND PUSH1 0x40 MLOAD SWAP1 DUP2 MSTORE PUSH1 0x20 ADD PUSH1 0x40 MLOAD DUP1 SWAP2 SUB SWAP1 LOG1 PUSH1 0x0 PUSH1 0x4 PUSH2 0x100 DUP2 PUSH2 0x6EB PUSH2 0x16C0 JUMP JUMPDEST PUSH2 0xBBB PUSH2 0x127A JUMP JUMPDEST PUSH1 0x0 PUSH1 0x5 PUSH2 0xBC7 PUSH2 0x16C0 JUMP JUMPDEST SWAP1 PUSH2 0x100 EXP SWAP1 DIV PUSH1 0xFF AND ISZERO PUSH2 0x63A JUMPI PUSH1 0x40 MLOAD PUSH3 0x461BCD PUSH1 0xE5 SHL DUP2 MSTORE PUSH1 0x4 ADD DUP1 DUP1 PUSH1 0x20 ADD DUP3 DUP2 SUB DUP3 MSTORE PUSH1 0x2B DUP2 MSTORE PUSH1 0x20 ADD DUP1 PUSH2 0x1875 PUSH1 0x2B SWAP2 CODECOPY PUSH1 0x40 ADD SWAP2 POP POP PUSH1 0x40 MLOAD DUP1 SWAP2 SUB SWAP1 PUSH2 0xB0B PUSH2 0x1655 JUMP JUMPDEST PUSH1 0x6 PUSH1 0x20 MSTORE DUP1 PUSH1 0x0 MSTORE PUSH1 0x40 PUSH1 0x0 KECCAK256 SWAP1 POP PUSH1 0x0 DUP2 PUSH2 0x88F PUSH2 0x16C0 JUMP JUMPDEST PUSH1 0x0 PUSH1 0x1 PUSH2 0xC3A PUSH2 0x16C0 JUMP JUMPDEST SWAP1 PUSH2 0x100 EXP SWAP1 DIV PUSH1 0x1 PUSH1 0x1 PUSH1 0xA0 SHL SUB AND PUSH1 0x1 PUSH1 0x1 PUSH1 0xA0 SHL SUB AND GAS PUSH2 0xC5C PUSH2 0x1769 JUMP JUMPDEST PUSH1 0x1 PUSH1 0x1 PUSH1 0xA0 SHL SUB AND EQ PUSH2 0xCAA JUMPI PUSH1 0x40 MLOAD PUSH3 0x461BCD PUSH1 0xE5 SHL DUP2 MSTORE PUSH1 0x4 ADD DUP1 DUP1 PUSH1 0x20 ADD DUP3 DUP2 SUB DUP3 MSTORE PUSH1 0x35 DUP2 MSTORE PUSH1 0x20 ADD DUP1 PUSH2 0x17B0 PUSH1 0x35 SWAP2 CODECOPY PUSH1 0x40 ADD SWAP2 POP POP PUSH1 0x40 MLOAD DUP1 SWAP2 SUB SWAP1 PUSH2 0xCA7 PUSH2 0x1655 JUMP JUMPDEST POP POP JUMPDEST PUSH32 0xB532073B38C83145E3E5135377A08BF9AAB55BC0FD7C1179CD4FB995D2A5159C PUSH1 0x0 DUP1 PUSH2 0xCD6 PUSH2 0x16C0 JUMP JUMPDEST SWAP1 PUSH2 0x100 EXP SWAP1 DIV PUSH1 0x1 PUSH1 0x1 PUSH1 0xA0 SHL SUB AND PUSH1 0x1 PUSH1 0x0 SWAP1 PUSH2 0xCF3 PUSH2 0x16C0 JUMP JUMPDEST SWAP1 PUSH2 0x100 EXP SWAP1 DIV PUSH1 0x1 PUSH1 0x1 PUSH1 0xA0 SHL SUB AND PUSH1 0x40 MLOAD PUSH1 0x1 PUSH1 0x1 PUSH1 0xA0 SHL SUB SWAP3 DUP4 AND DUP2 MSTORE SWAP2 AND PUSH1 0x20 DUP3 ADD MSTORE PUSH1 0x40 SWAP1 DUP2 ADD SWAP1 MLOAD DUP1 SWAP2 SUB SWAP1 LOG1 PUSH1 0x0 PUSH1 0x1 PUSH2 0xD32 PUSH2 0x16C0 JUMP JUMPDEST SWAP1 PUSH2 0x100 EXP SWAP1 DIV PUSH1 0x1 PUSH1 0x1 PUSH1 0xA0 SHL SUB AND PUSH1 0x0 DUP1 PUSH2 0x100 EXP DUP2 PUSH2 0xD52 PUSH2 0x16C0 JUMP JUMPDEST DUP2 PUSH1 0x1 PUSH1 0x1 PUSH1 0xA0 SHL SUB MUL NOT AND SWAP1 DUP4 PUSH1 0x1 PUSH1 0x1 PUSH1 0xA0 SHL SUB AND MUL OR SWAP1 PUSH2 0xD74 PUSH2 0x171B JUMP JUMPDEST POP POP POP PUSH1 0x0 PUSH1 0x1 PUSH1 0x0 PUSH2 0x100 EXP DUP2 PUSH2 0xD8A PUSH2 0x16C0 JUMP JUMPDEST DUP2 PUSH1 0x1 PUSH1 0x1 PUSH1 0xA0 SHL SUB MUL NOT AND SWAP1 DUP4 PUSH1 0x1 PUSH1 0x1 PUSH1 0xA0 SHL SUB AND MUL OR SWAP1 PUSH2 0x70D PUSH2 0x171B JUMP JUMPDEST PUSH2 0xDB4 PUSH2 0x127A JUMP JUMPDEST PUSH1 0x0 PUSH1 0x4 PUSH2 0xDC0 PUSH2 0x16C0 JUMP JUMPDEST SWAP1 PUSH2 0x100 EXP SWAP1 DIV PUSH1 0xFF AND ISZERO PUSH2 0x63A JUMPI PUSH1 0x40 MLOAD PUSH3 0x461BCD PUSH1 0xE5 SHL DUP2 MSTORE PUSH1 0x4 ADD DUP1 DUP1 PUSH1 0x20 ADD DUP3 DUP2 SUB DUP3 MSTORE PUSH1 0x2B DUP2 MSTORE PUSH1 0x20 ADD DUP1 PUSH2 0x181B PUSH1 0x2B SWAP2 CODECOPY PUSH1 0x40 ADD SWAP2 POP POP PUSH1 0x40 MLOAD DUP1 SWAP2 SUB SWAP1 PUSH2 0xB0B PUSH2 0x1655 JUMP JUMPDEST PUSH1 0x0 DUP1 PUSH2 0xA5F PUSH2 0x16C0 JUMP JUMPDEST PUSH2 0xE28 PUSH5 0xA6F2DCE8D PUSH1 0xDB SHL PUSH2 0x1381 JUMP JUMPDEST PUSH1 0x0 DUP2 DUP2 MSTORE PUSH1 0x6 PUSH1 0x20 MSTORE PUSH32 0x691B6C9654FA1F01847F7E98A061557CA10378BB9670782B60ED13891703D220 SWAP1 DUP3 SWAP1 PUSH1 0x40 SWAP1 KECCAK256 PUSH1 0x1 SWAP1 PUSH2 0xE65 PUSH2 0x16C0 JUMP JUMPDEST SWAP1 PUSH2 0x100 EXP SWAP1 DIV PUSH1 0x1 PUSH1 0x1 PUSH1 0xF8 SHL SUB AND PUSH1 0x1 PUSH1 0x1 PUSH1 0xF8 SHL SUB AND PUSH1 0x40 MLOAD SWAP2 DUP3 MSTORE PUSH1 0x20 DUP3 ADD MSTORE PUSH1 0x40 SWAP1 DUP2 ADD SWAP1 MLOAD DUP1 SWAP2 SUB SWAP1 LOG1 PUSH1 0x0 DUP2 DUP2 MSTORE PUSH1 0x6 PUSH1 0x20 MSTORE PUSH1 0x40 SWAP1 KECCAK256 PUSH1 0x0 DUP2 PUSH1 0x1 DUP2 PUSH2 0xEB1 PUSH2 0x16C0 JUMP JUMPDEST SWAP1 PUSH1 0xFF MUL NOT AND SWAP1 PUSH2 0xEC0 PUSH2 0x171B JUMP JUMPDEST POP DUP3 SWAP1 POP PUSH2 0x100 DUP2 PUSH2 0xED0 PUSH2 0x16C0 JUMP JUMPDEST SWAP1 PUSH1 0x1 PUSH1 0x1 PUSH1 0xF8 SHL SUB MUL NOT AND SWAP1 PUSH2 0xEE5 PUSH2 0x171B JUMP JUMPDEST POP POP POP POP POP JUMP JUMPDEST PUSH1 0x1 DUP2 JUMP JUMPDEST PUSH2 0xF02 PUSH5 0xA6F2DCE8D PUSH1 0xDB SHL PUSH2 0x1410 JUMP JUMPDEST PUSH1 0x0 DUP3 DUP2 MSTORE PUSH1 0x6 PUSH1 0x20 MSTORE PUSH1 0x1 SWAP1 PUSH1 0x40 SWAP1 KECCAK256 PUSH1 0x1 DUP2 PUSH2 0xF1E PUSH2 0x16C0 JUMP JUMPDEST DUP2 PUSH1 0xFF MUL NOT AND SWAP1 DUP4 ISZERO ISZERO MUL OR SWAP1 PUSH2 0xF33 PUSH2 0x171B JUMP JUMPDEST POP POP POP PUSH1 0x0 DUP3 DUP2 MSTORE PUSH1 0x6 PUSH1 0x20 MSTORE DUP2 SWAP1 PUSH1 0x40 SWAP1 KECCAK256 PUSH2 0x100 DUP2 PUSH2 0xF52 PUSH2 0x16C0 JUMP JUMPDEST DUP2 PUSH1 0x1 PUSH1 0x1 PUSH1 0xF8 SHL SUB MUL NOT AND SWAP1 DUP4 PUSH1 0x1 PUSH1 0x1 PUSH1 0xF8 SHL SUB AND MUL OR SWAP1 PUSH2 0xF74 PUSH2 0x171B JUMP JUMPDEST POP POP POP PUSH32 0x9CCA506F9028BBCC0D976DB0EAF80DFE6A6D7CADD99024EDD88F690E1EDA5541 DUP3 DUP3 PUSH1 0x40 MLOAD SWAP2 DUP3 MSTORE PUSH1 0x20 DUP3 ADD MSTORE PUSH1 0x40 SWAP1 DUP2 ADD SWAP1 MLOAD DUP1 SWAP2 SUB SWAP1 LOG1 POP POP JUMP JUMPDEST PUSH1 0x60 DUP1 DUP3 PUSH1 0x40 MLOAD SWAP1 DUP1 DUP3 MSTORE DUP1 PUSH1 0x20 MUL PUSH1 0x20 ADD DUP3 ADD PUSH1 0x40 MSTORE DUP1 ISZERO PUSH2 0xFE2 JUMPI DUP2 PUSH1 0x20 ADD PUSH1 0x20 DUP3 MUL DUP1 CODESIZE DUP4 CODECOPY ADD SWAP1 POP JUMPDEST POP SWAP2 POP DUP3 PUSH1 0x40 MLOAD SWAP1 DUP1 DUP3 MSTORE DUP1 PUSH1 0x20 MUL PUSH1 0x20 ADD DUP3 ADD PUSH1 0x40 MSTORE DUP1 ISZERO PUSH2 0x100F JUMPI DUP2 PUSH1 0x20 ADD PUSH1 0x20 DUP3 MUL DUP1 CODESIZE DUP4 CODECOPY ADD SWAP1 POP JUMPDEST POP SWAP1 POP PUSH1 0x0 JUMPDEST DUP4 DUP2 LT ISZERO PUSH2 0x10DB JUMPI PUSH1 0x6 PUSH1 0x0 DUP7 DUP7 DUP5 DUP2 DUP2 LT PUSH2 0x102D JUMPI INVALID JUMPDEST SWAP1 POP PUSH1 0x20 MUL ADD CALLDATALOAD DUP2 MSTORE PUSH1 0x20 ADD SWAP1 DUP2 MSTORE PUSH1 0x20 ADD PUSH1 0x0 KECCAK256 PUSH1 0x0 SWAP1 PUSH2 0x104D PUSH2 0x16C0 JUMP JUMPDEST SWAP1 PUSH2 0x100 EXP SWAP1 DIV PUSH1 0xFF AND DUP4 DUP3 DUP2 MLOAD DUP2 LT PUSH2 0x1063 JUMPI INVALID JUMPDEST SWAP2 ISZERO ISZERO PUSH1 0x20 SWAP3 DUP4 MUL SWAP2 SWAP1 SWAP2 ADD SWAP1 SWAP2 ADD MSTORE PUSH1 0x6 PUSH1 0x0 DUP7 DUP7 DUP5 DUP2 DUP2 LT PUSH2 0x1083 JUMPI INVALID JUMPDEST SWAP1 POP PUSH1 0x20 MUL ADD CALLDATALOAD DUP2 MSTORE PUSH1 0x20 ADD SWAP1 DUP2 MSTORE PUSH1 0x20 ADD PUSH1 0x0 KECCAK256 PUSH1 0x1 SWAP1 PUSH2 0x10A3 PUSH2 0x16C0 JUMP JUMPDEST SWAP1 PUSH2 0x100 EXP SWAP1 DIV PUSH1 0x1 PUSH1 0x1 PUSH1 0xF8 SHL SUB AND PUSH1 0x1 PUSH1 0x1 PUSH1 0xF8 SHL SUB AND DUP3 DUP3 DUP2 MLOAD DUP2 LT PUSH2 0x10C8 JUMPI INVALID JUMPDEST PUSH1 0x20 SWAP1 DUP2 MUL SWAP2 SWAP1 SWAP2 ADD ADD MSTORE PUSH1 0x1 ADD PUSH2 0x1015 JUMP JUMPDEST POP SWAP3 POP SWAP3 SWAP1 POP JUMP JUMPDEST PUSH2 0x10F5 PUSH6 0x53797374656D PUSH1 0xD0 SHL PUSH2 0x1410 JUMP JUMPDEST PUSH1 0x1 PUSH1 0x3 DUP2 DUP2 PUSH2 0x1103 PUSH2 0x16C0 JUMP JUMPDEST DUP2 PUSH1 0xFF MUL NOT AND SWAP1 DUP4 ISZERO ISZERO MUL OR SWAP1 PUSH2 0x1118 PUSH2 0x171B JUMP JUMPDEST POP DUP3 SWAP2 POP PUSH1 0x3 SWAP1 POP PUSH2 0x100 DUP2 PUSH2 0x112C PUSH2 0x16C0 JUMP JUMPDEST DUP2 PUSH1 0x1 PUSH1 0x1 PUSH1 0xF8 SHL SUB MUL NOT AND SWAP1 DUP4 PUSH1 0x1 PUSH1 0x1 PUSH1 0xF8 SHL SUB AND MUL OR SWAP1 PUSH2 0x114E PUSH2 0x171B JUMP JUMPDEST POP PUSH32 0x86B7ED06C3A2C3763514D475CED33F9AC8B1BB8F028DED18DE0100B7678F3C4F SWAP2 POP PUSH1 0x1 SWAP1 POP PUSH1 0x3 PUSH2 0x1180 PUSH2 0x16C0 JUMP JUMPDEST SWAP1 PUSH2 0x100 EXP SWAP1 DIV PUSH1 0x1 PUSH1 0x1 PUSH1 0xF8 SHL SUB AND PUSH1 0x40 MLOAD PUSH1 0x1 PUSH1 0x1 PUSH1 0xF8 SHL SUB SWAP1 SWAP2 AND DUP2 MSTORE PUSH1 0x20 ADD PUSH1 0x40 MLOAD DUP1 SWAP2 SUB SWAP1 LOG1 POP JUMP JUMPDEST PUSH8 0x45786368616E6765 PUSH1 0xC0 SHL DUP2 JUMP JUMPDEST PUSH2 0x11D1 PUSH8 0x45786368616E6765 PUSH1 0xC0 SHL PUSH2 0x1381 JUMP JUMPDEST PUSH1 0x0 PUSH1 0x5 PUSH1 0x1 DUP2 PUSH2 0x11E0 PUSH2 0x16C0 JUMP JUMPDEST DUP2 PUSH1 0xFF MUL NOT AND SWAP1 DUP4 ISZERO ISZERO MUL OR SWAP1 PUSH2 0x11F5 PUSH2 0x171B JUMP JUMPDEST POP PUSH32 0x7966FE79D35C7ABF1F3B2AD9970EA24CAE0F11406E283E848E3E6608AE3C214 SWAP2 POP PUSH1 0x1 SWAP1 POP PUSH1 0x5 PUSH2 0x1227 PUSH2 0x16C0 JUMP JUMPDEST SWAP1 PUSH2 0x100 EXP SWAP1 DIV PUSH1 0x1 PUSH1 0x1 PUSH1 0xF8 SHL SUB AND PUSH1 0x1 PUSH1 0x1 PUSH1 0xF8 SHL SUB AND PUSH1 0x40 MLOAD SWAP1 DUP2 MSTORE PUSH1 0x20 ADD PUSH1 0x40 MLOAD DUP1 SWAP2 SUB SWAP1 LOG1 PUSH1 0x0 PUSH1 0x5 PUSH2 0x100 DUP2 PUSH2 0x6EB PUSH2 0x16C0 JUMP JUMPDEST PUSH5 0xA6F2DCE8D PUSH1 0xDB SHL DUP2 JUMP JUMPDEST PUSH1 0x5 PUSH1 0x0 DUP2 PUSH2 0x88F PUSH2 0x16C0 JUMP JUMPDEST PUSH1 0x0 PUSH1 0x3 PUSH2 0x1286 PUSH2 0x16C0 JUMP JUMPDEST PUSH1 0xFF PUSH2 0x100 SWAP3 SWAP1 SWAP3 EXP SWAP1 DIV AND ISZERO PUSH1 0x1 DUP1 PUSH1 0x3 PUSH2 0x12A0 PUSH2 0x16C0 JUMP JUMPDEST SWAP1 PUSH2 0x100 EXP SWAP1 DIV PUSH1 0x1 PUSH1 0x1 PUSH1 0xF8 SHL SUB AND PUSH1 0x1 PUSH1 0x1 PUSH1 0xF8 SHL SUB AND EQ PUSH2 0x12DA JUMPI PUSH1 0x40 MLOAD PUSH1 0x60 DUP2 ADD PUSH1 0x40 MSTORE PUSH1 0x2C DUP1 DUP3 MSTORE PUSH2 0x18C1 PUSH1 0x20 DUP4 ADD CODECOPY PUSH2 0x12F2 JUMP JUMPDEST PUSH1 0x40 MLOAD PUSH1 0x60 DUP2 ADD PUSH1 0x40 MSTORE PUSH1 0x3E DUP1 DUP3 MSTORE PUSH2 0x18ED PUSH1 0x20 DUP4 ADD CODECOPY JUMPDEST SWAP1 PUSH2 0xA27 JUMPI PUSH1 0x40 MLOAD PUSH3 0x461BCD PUSH1 0xE5 SHL DUP2 MSTORE PUSH1 0x4 ADD DUP1 DUP1 PUSH1 0x20 ADD DUP3 DUP2 SUB DUP3 MSTORE DUP4 DUP2 DUP2 MLOAD DUP2 MSTORE PUSH1 0x20 ADD SWAP2 POP DUP1 MLOAD SWAP1 PUSH1 0x20 ADD SWAP1 DUP1 DUP4 DUP4 PUSH1 0x0 JUMPDEST DUP4 DUP2 LT ISZERO PUSH2 0x1340 JUMPI DUP1 DUP3 ADD MLOAD DUP4 DUP3 ADD MSTORE PUSH1 0x20 ADD PUSH2 0x1328 JUMP JUMPDEST POP POP POP POP SWAP1 POP SWAP1 DUP2 ADD SWAP1 PUSH1 0x1F AND DUP1 ISZERO PUSH2 0x136D JUMPI DUP1 DUP3 SUB DUP1 MLOAD PUSH1 0x1 DUP4 PUSH1 0x20 SUB PUSH2 0x100 EXP SUB NOT AND DUP2 MSTORE PUSH1 0x20 ADD SWAP2 POP JUMPDEST POP SWAP3 POP POP POP PUSH1 0x40 MLOAD DUP1 SWAP2 SUB SWAP1 PUSH2 0x70D PUSH2 0x1655 JUMP JUMPDEST PUSH1 0x0 DUP2 DUP2 MSTORE PUSH1 0x2 PUSH1 0x20 MSTORE PUSH1 0x40 SWAP1 KECCAK256 PUSH1 0x0 GAS PUSH2 0x139A PUSH2 0x1769 JUMP JUMPDEST PUSH1 0x1 PUSH1 0x1 PUSH1 0xA0 SHL SUB AND PUSH1 0x1 PUSH1 0x1 PUSH1 0xA0 SHL SUB AND DUP2 MSTORE PUSH1 0x20 ADD SWAP1 DUP2 MSTORE PUSH1 0x20 ADD PUSH1 0x0 KECCAK256 PUSH1 0x1 SWAP1 PUSH2 0x13C5 PUSH2 0x16C0 JUMP JUMPDEST SWAP1 PUSH2 0x100 EXP SWAP1 DIV PUSH1 0xFF AND PUSH2 0xA27 JUMPI PUSH1 0x40 MLOAD PUSH3 0x461BCD PUSH1 0xE5 SHL DUP2 MSTORE PUSH1 0x4 ADD DUP1 DUP1 PUSH1 0x20 ADD DUP3 DUP2 SUB DUP3 MSTORE PUSH1 0x21 DUP2 MSTORE PUSH1 0x20 ADD DUP1 PUSH2 0x18A0 PUSH1 0x21 SWAP2 CODECOPY PUSH1 0x40 ADD SWAP2 POP POP PUSH1 0x40 MLOAD DUP1 SWAP2 SUB SWAP1 PUSH2 0x70D PUSH2 0x1655 JUMP JUMPDEST PUSH1 0x0 DUP2 DUP2 MSTORE PUSH1 0x2 PUSH1 0x20 MSTORE PUSH1 0x40 SWAP1 KECCAK256 PUSH1 0x0 GAS PUSH2 0x1429 PUSH2 0x1769 JUMP JUMPDEST PUSH1 0x1 PUSH1 0x1 PUSH1 0xA0 SHL SUB AND PUSH1 0x1 PUSH1 0x1 PUSH1 0xA0 SHL SUB AND DUP2 MSTORE PUSH1 0x20 ADD SWAP1 DUP2 MSTORE PUSH1 0x20 ADD PUSH1 0x0 KECCAK256 PUSH1 0x0 SWAP1 PUSH2 0x13C5 PUSH2 0x16C0 JUMP JUMPDEST PUSH1 0x0 DUP1 PUSH2 0x145F PUSH2 0x16C0 JUMP JUMPDEST SWAP1 PUSH2 0x100 EXP SWAP1 DIV PUSH1 0x1 PUSH1 0x1 PUSH1 0xA0 SHL SUB AND PUSH1 0x1 PUSH1 0x1 PUSH1 0xA0 SHL SUB AND GAS PUSH2 0x1481 PUSH2 0x1769 JUMP JUMPDEST PUSH1 0x1 PUSH1 0x1 PUSH1 0xA0 SHL SUB AND EQ PUSH2 0x63A JUMPI PUSH1 0x40 MLOAD PUSH3 0x461BCD PUSH1 0xE5 SHL DUP2 MSTORE PUSH1 0x4 ADD DUP1 DUP1 PUSH1 0x20 ADD DUP3 DUP2 SUB DUP3 MSTORE PUSH1 0x2F DUP2 MSTORE PUSH1 0x20 ADD DUP1 PUSH2 0x1846 PUSH1 0x2F SWAP2 CODECOPY PUSH1 0x40 ADD SWAP2 POP POP PUSH1 0x40 MLOAD DUP1 SWAP2 SUB SWAP1 PUSH2 0xB0B PUSH2 0x1655 JUMP JUMPDEST PUSH6 0x53797374656D PUSH1 0xD0 SHL DUP5 EQ DUP1 PUSH2 0x14ED JUMPI POP PUSH8 0x49737375616E6365 PUSH1 0xC0 SHL DUP5 EQ JUMPDEST DUP1 PUSH2 0x1502 JUMPI POP PUSH8 0x45786368616E6765 PUSH1 0xC0 SHL DUP5 EQ JUMPDEST DUP1 PUSH2 0x1514 JUMPI POP PUSH5 0xA6F2DCE8D PUSH1 0xDB SHL DUP5 EQ JUMPDEST PUSH2 0x156D JUMPI PUSH1 0x40 MLOAD PUSH3 0x461BCD PUSH1 0xE5 SHL DUP2 MSTORE PUSH1 0x20 PUSH1 0x4 DUP3 ADD MSTORE PUSH1 0x18 PUSH1 0x24 DUP3 ADD MSTORE PUSH32 0x496E76616C69642073656374696F6E20737570706C6965640000000000000000 PUSH1 0x44 DUP3 ADD MSTORE PUSH1 0x64 ADD PUSH1 0x40 MLOAD DUP1 SWAP2 SUB SWAP1 PUSH2 0x156A PUSH2 0x1655 JUMP JUMPDEST POP POP JUMPDEST PUSH1 0x0 DUP5 DUP2 MSTORE PUSH1 0x2 PUSH1 0x20 MSTORE DUP3 SWAP1 PUSH1 0x40 SWAP1 KECCAK256 PUSH1 0x1 PUSH1 0x1 PUSH1 0xA0 SHL SUB DUP6 AND PUSH1 0x0 SWAP1 DUP2 MSTORE PUSH1 0x20 SWAP2 SWAP1 SWAP2 MSTORE PUSH1 0x40 SWAP1 KECCAK256 PUSH1 0x1 DUP2 PUSH2 0x15A1 PUSH2 0x16C0 JUMP JUMPDEST DUP2 PUSH1 0xFF MUL NOT AND SWAP1 DUP4 ISZERO ISZERO MUL OR SWAP1 PUSH2 0x15B6 PUSH2 0x171B JUMP JUMPDEST POP POP POP PUSH1 0x0 DUP5 DUP2 MSTORE PUSH1 0x2 PUSH1 0x20 MSTORE DUP2 SWAP1 PUSH1 0x40 SWAP1 KECCAK256 PUSH1 0x1 PUSH1 0x1 PUSH1 0xA0 SHL SUB DUP6 AND PUSH1 0x0 SWAP1 DUP2 MSTORE PUSH1 0x20 SWAP2 SWAP1 SWAP2 MSTORE PUSH1 0x40 SWAP1 KECCAK256 PUSH2 0x100 DUP2 PUSH2 0x15EE PUSH2 0x16C0 JUMP JUMPDEST DUP2 PUSH1 0xFF MUL NOT AND SWAP1 DUP4 ISZERO ISZERO MUL OR SWAP1 PUSH2 0x1603 PUSH2 0x171B JUMP JUMPDEST POP POP POP DUP3 PUSH1 0x1 PUSH1 0x1 PUSH1 0xA0 SHL SUB AND DUP5 PUSH32 0x95BAD30F8FE717E4A02906D7B05A6F90698C7135CD053E5B6D5239146B4C40D1 DUP5 DUP5 PUSH1 0x40 MLOAD SWAP2 ISZERO ISZERO DUP3 MSTORE ISZERO ISZERO PUSH1 0x20 DUP3 ADD MSTORE PUSH1 0x40 SWAP1 DUP2 ADD SWAP1 MLOAD DUP1 SWAP2 SUB SWAP1 LOG3 POP POP POP POP JUMP JUMPDEST PUSH4 0x2A2A7ADB MSIZE DUP2 PUSH1 0xE0 SHL DUP2 MSTORE PUSH1 0x4 DUP2 ADD PUSH1 0x20 DUP2 MSTORE DUP6 PUSH1 0x20 DUP3 ADD MSTORE PUSH1 0x0 JUMPDEST DUP7 DUP2 LT ISZERO PUSH2 0x168D JUMPI DUP1 DUP7 ADD MLOAD DUP3 DUP3 ADD PUSH1 0x40 ADD MSTORE PUSH1 0x20 ADD PUSH2 0x1672 JUMP JUMPDEST POP PUSH1 0x20 DUP3 DUP8 PUSH1 0x64 ADD DUP5 CALLER PUSH1 0x0 SWAP1 GAS CALL PC PUSH1 0xE ADD JUMPI RETURNDATASIZE PUSH1 0x0 DUP1 RETURNDATACOPY RETURNDATASIZE PUSH1 0x0 REVERT JUMPDEST RETURNDATASIZE PUSH1 0x1 EQ ISZERO PC PUSH1 0xA ADD JUMPI PUSH1 0x1 PUSH1 0x0 RETURN JUMPDEST POP POP POP JUMP JUMPDEST PUSH4 0x3DAA959 MSIZE DUP2 PUSH1 0xE0 SHL DUP2 MSTORE DUP4 PUSH1 0x4 DUP3 ADD MSTORE PUSH1 0x20 DUP2 PUSH1 0x24 DUP4 CALLER PUSH1 0x0 SWAP1 GAS CALL PC PUSH1 0xE ADD JUMPI RETURNDATASIZE PUSH1 0x0 DUP1 RETURNDATACOPY RETURNDATASIZE PUSH1 0x0 REVERT JUMPDEST RETURNDATASIZE PUSH1 0x1 EQ ISZERO PC PUSH1 0xA ADD JUMPI PUSH1 0x1 PUSH1 0x0 RETURN JUMPDEST DUP1 MLOAD SWAP4 POP PUSH1 0x0 JUMPDEST PUSH1 0x40 DUP2 LT ISZERO PUSH2 0x70D JUMPI PUSH1 0x0 DUP3 DUP3 ADD MSTORE PUSH1 0x20 ADD PUSH2 0x1704 JUMP JUMPDEST PUSH4 0x22BD64C0 MSIZE DUP2 PUSH1 0xE0 SHL DUP2 MSTORE DUP4 PUSH1 0x4 DUP3 ADD MSTORE DUP5 PUSH1 0x24 DUP3 ADD MSTORE PUSH1 0x0 DUP2 PUSH1 0x44 DUP4 CALLER PUSH1 0x0 SWAP1 GAS CALL PC PUSH1 0xE ADD JUMPI RETURNDATASIZE PUSH1 0x0 DUP1 RETURNDATACOPY RETURNDATASIZE PUSH1 0x0 REVERT JUMPDEST RETURNDATASIZE PUSH1 0x1 EQ ISZERO PC PUSH1 0xA ADD JUMPI PUSH1 0x1 PUSH1 0x0 RETURN JUMPDEST PUSH1 0x0 DUP2 MSTORE PUSH1 0x20 PUSH2 0x1704 JUMP JUMPDEST PUSH4 0x73509064 MSIZE DUP2 PUSH1 0xE0 SHL DUP2 MSTORE PUSH1 0x20 DUP2 PUSH1 0x4 DUP4 CALLER PUSH1 0x0 SWAP1 GAS CALL PC PUSH1 0xE ADD JUMPI RETURNDATASIZE PUSH1 0x0 DUP1 RETURNDATACOPY RETURNDATASIZE PUSH1 0x0 REVERT JUMPDEST RETURNDATASIZE PUSH1 0x1 EQ ISZERO PC PUSH1 0xA ADD JUMPI PUSH1 0x1 PUSH1 0x0 RETURN JUMPDEST DUP1 MLOAD PUSH1 0x0 DUP3 MSTORE SWAP4 POP PUSH1 0x20 PUSH2 0x1704 JUMP INVALID MSIZE PUSH16 0x75206D757374206265206E6F6D696E61 PUSH21 0x6564206265666F726520796F752063616E20616363 PUSH6 0x7074206F776E PUSH6 0x72736869704F PUSH15 0x65206F72206D6F72652073796E7468 PUSH20 0x206172652073757370656E6465642E204F706572 PUSH2 0x7469 PUSH16 0x6E2070726F6869626974656449737375 PUSH2 0x6E63 PUSH6 0x206973207375 PUSH20 0x70656E6465642E204F7065726174696F6E207072 PUSH16 0x686962697465644F6E6C792074686520 PUSH4 0x6F6E7472 PUSH2 0x6374 KECCAK256 PUSH16 0x776E6572206D617920706572666F726D KECCAK256 PUSH21 0x68697320616374696F6E45786368616E6765206973 KECCAK256 PUSH20 0x757370656E6465642E204F7065726174696F6E20 PUSH17 0x726F686962697465645265737472696374 PUSH6 0x6420746F2061 PUSH4 0x63657373 KECCAK256 PUSH4 0x6F6E7472 PUSH16 0x6C206C69737453796E74686574697820 PUSH10 0x732073757370656E6465 PUSH5 0x2E204F7065 PUSH19 0x6174696F6E2070726F6869626974656453796E PUSH21 0x68657469782069732073757370656E6465642C2075 PUSH17 0x677261646520696E2070726F6772657373 0x2E 0x2E 0x2E KECCAK256 PUSH17 0x6C65617365207374616E6420627953796E PUSH21 0x682069732073757370656E6465642E204F70657261 PUSH21 0x696F6E2070726F6869626974656400000000000000 "
		}
	}
}