{
	"abi": [
		{
			"inputs": [
				{
					"internalType": "address",
					"name": "_owner",
					"type": "address"
				},
				{
					"internalType": "address",
					"name": "_resolver",
					"type": "address"
				}
			],
			"payable": false,
			"stateMutability": "nonpayable",
			"type": "constructor"
		},
		{
			"anonymous": false,
			"inputs": [
				{
					"indexed": false,
					"internalType": "address",
					"name": "flags",
					"type": "address"
				}
			],
			"name": "AggregatorWarningFlagsUpdated",
			"type": "event"
		},
		{
			"anonymous": false,
			"inputs": [
				{
					"indexed": false,
					"internalType": "uint256",
					"name": "debtSnapshotStaleTime",
					"type": "uint256"
				}
			],
			"name": "DebtSnapshotStaleTimeUpdated",
			"type": "event"
		},
		{
			"anonymous": false,
			"inputs": [
				{
					"indexed": false,
					"internalType": "bytes32",
					"name": "synthKey",
					"type": "bytes32"
				},
				{
					"indexed": false,
					"internalType": "uint256",
					"name": "newExchangeFeeRate",
					"type": "uint256"
				}
			],
			"name": "ExchangeFeeUpdated",
			"type": "event"
		},
		{
			"anonymous": false,
			"inputs": [
				{
					"indexed": false,
					"internalType": "uint256",
					"name": "newFeePeriodDuration",
					"type": "uint256"
				}
			],
			"name": "FeePeriodDurationUpdated",
			"type": "event"
		},
		{
			"anonymous": false,
			"inputs": [
				{
					"indexed": false,
					"internalType": "uint256",
					"name": "newRatio",
					"type": "uint256"
				}
			],
			"name": "IssuanceRatioUpdated",
			"type": "event"
		},
		{
			"anonymous": false,
			"inputs": [
				{
					"indexed": false,
					"internalType": "uint256",
					"name": "newDelay",
					"type": "uint256"
				}
			],
			"name": "LiquidationDelayUpdated",
			"type": "event"
		},
		{
			"anonymous": false,
			"inputs": [
				{
					"indexed": false,
					"internalType": "uint256",
					"name": "newPenalty",
					"type": "uint256"
				}
			],
			"name": "LiquidationPenaltyUpdated",
			"type": "event"
		},
		{
			"anonymous": false,
			"inputs": [
				{
					"indexed": false,
					"internalType": "uint256",
					"name": "newRatio",
					"type": "uint256"
				}
			],
			"name": "LiquidationRatioUpdated",
			"type": "event"
		},
		{
			"anonymous": false,
			"inputs": [
				{
					"indexed": false,
					"internalType": "uint256",
					"name": "maxDeposit",
					"type": "uint256"
				}
			],
			"name": "MaximumDepositUpdated",
			"type": "event"
		},
		{
			"anonymous": false,
			"inputs": [
				{
					"indexed": false,
					"internalType": "uint256",
					"name": "minimumStakeTime",
					"type": "uint256"
				}
			],
			"name": "MinimumStakeTimeUpdated",
			"type": "event"
		},
		{
			"anonymous": false,
			"inputs": [
				{
					"indexed": false,
					"internalType": "address",
					"name": "oldOwner",
					"type": "address"
				},
				{
					"indexed": false,
					"internalType": "address",
					"name": "newOwner",
					"type": "address"
				}
			],
			"name": "OwnerChanged",
			"type": "event"
		},
		{
			"anonymous": false,
			"inputs": [
				{
					"indexed": false,
					"internalType": "address",
					"name": "newOwner",
					"type": "address"
				}
			],
			"name": "OwnerNominated",
			"type": "event"
		},
		{
			"anonymous": false,
			"inputs": [
				{
					"indexed": false,
					"internalType": "uint256",
					"name": "threshold",
					"type": "uint256"
				}
			],
			"name": "PriceDeviationThresholdUpdated",
			"type": "event"
		},
		{
			"anonymous": false,
			"inputs": [
				{
					"indexed": false,
					"internalType": "uint256",
					"name": "rateStalePeriod",
					"type": "uint256"
				}
			],
			"name": "RateStalePeriodUpdated",
			"type": "event"
		},
		{
			"anonymous": false,
			"inputs": [
				{
					"indexed": false,
					"internalType": "uint256",
					"name": "newTargetThreshold",
					"type": "uint256"
				}
			],
			"name": "TargetThresholdUpdated",
			"type": "event"
		},
		{
			"anonymous": false,
			"inputs": [
				{
					"indexed": false,
					"internalType": "bool",
					"name": "enabled",
					"type": "bool"
				}
			],
			"name": "TradingRewardsEnabled",
			"type": "event"
		},
		{
			"anonymous": false,
			"inputs": [
				{
					"indexed": false,
					"internalType": "uint256",
					"name": "waitingPeriodSecs",
					"type": "uint256"
				}
			],
			"name": "WaitingPeriodSecsUpdated",
			"type": "event"
		},
		{
			"constant": true,
			"inputs": [],
			"name": "MAX_ADDRESSES_FROM_RESOLVER",
			"outputs": [
				{
					"internalType": "uint256",
					"name": "",
					"type": "uint256"
				}
			],
			"payable": false,
			"stateMutability": "view",
			"type": "function"
		},
		{
			"constant": true,
			"inputs": [],
			"name": "MAX_EXCHANGE_FEE_RATE",
			"outputs": [
				{
					"internalType": "uint256",
					"name": "",
					"type": "uint256"
				}
			],
			"payable": false,
			"stateMutability": "view",
			"type": "function"
		},
		{
			"constant": true,
			"inputs": [],
			"name": "MAX_FEE_PERIOD_DURATION",
			"outputs": [
				{
					"internalType": "uint256",
					"name": "",
					"type": "uint256"
				}
			],
			"payable": false,
			"stateMutability": "view",
			"type": "function"
		},
		{
			"constant": true,
			"inputs": [],
			"name": "MAX_ISSUANCE_RATIO",
			"outputs": [
				{
					"internalType": "uint256",
					"name": "",
					"type": "uint256"
				}
			],
			"payable": false,
			"stateMutability": "view",
			"type": "function"
		},
		{
			"constant": true,
			"inputs": [],
			"name": "MAX_LIQUIDATION_DELAY",
			"outputs": [
				{
					"internalType": "uint256",
					"name": "",
					"type": "uint256"
				}
			],
			"payable": false,
			"stateMutability": "view",
			"type": "function"
		},
		{
			"constant": true,
			"inputs": [],
			"name": "MAX_LIQUIDATION_PENALTY",
			"outputs": [
				{
					"internalType": "uint256",
					"name": "",
					"type": "uint256"
				}
			],
			"payable": false,
			"stateMutability": "view",
			"type": "function"
		},
		{
			"constant": true,
			"inputs": [],
			"name": "MAX_LIQUIDATION_RATIO",
			"outputs": [
				{
					"internalType": "uint256",
					"name": "",
					"type": "uint256"
				}
			],
			"payable": false,
			"stateMutability": "view",
			"type": "function"
		},
		{
			"constant": true,
			"inputs": [],
			"name": "MAX_MINIMUM_STAKE_TIME",
			"outputs": [
				{
					"internalType": "uint256",
					"name": "",
					"type": "uint256"
				}
			],
			"payable": false,
			"stateMutability": "view",
			"type": "function"
		},
		{
			"constant": true,
			"inputs": [],
			"name": "MAX_TARGET_THRESHOLD",
			"outputs": [
				{
					"internalType": "uint256",
					"name": "",
					"type": "uint256"
				}
			],
			"payable": false,
			"stateMutability": "view",
			"type": "function"
		},
		{
			"constant": true,
			"inputs": [],
			"name": "MIN_FEE_PERIOD_DURATION",
			"outputs": [
				{
					"internalType": "uint256",
					"name": "",
					"type": "uint256"
				}
			],
			"payable": false,
			"stateMutability": "view",
			"type": "function"
		},
		{
			"constant": true,
			"inputs": [],
			"name": "MIN_LIQUIDATION_DELAY",
			"outputs": [
				{
					"internalType": "uint256",
					"name": "",
					"type": "uint256"
				}
			],
			"payable": false,
			"stateMutability": "view",
			"type": "function"
		},
		{
			"constant": true,
			"inputs": [],
			"name": "RATIO_FROM_TARGET_BUFFER",
			"outputs": [
				{
					"internalType": "uint256",
					"name": "",
					"type": "uint256"
				}
			],
			"payable": false,
			"stateMutability": "view",
			"type": "function"
		},
		{
			"constant": false,
			"inputs": [],
			"name": "acceptOwnership",
			"outputs": [],
			"payable": false,
			"stateMutability": "nonpayable",
			"type": "function"
		},
		{
			"constant": true,
			"inputs": [],
			"name": "aggregatorWarningFlags",
			"outputs": [
				{
					"internalType": "address",
					"name": "",
					"type": "address"
				}
			],
			"payable": false,
			"stateMutability": "view",
			"type": "function"
		},
		{
			"constant": true,
			"inputs": [],
			"name": "debtSnapshotStaleTime",
			"outputs": [
				{
					"internalType": "uint256",
					"name": "",
					"type": "uint256"
				}
			],
			"payable": false,
			"stateMutability": "view",
			"type": "function"
		},
		{
			"constant": true,
			"inputs": [
				{
					"internalType": "bytes32",
					"name": "currencyKey",
					"type": "bytes32"
				}
			],
			"name": "exchangeFeeRate",
			"outputs": [
				{
					"internalType": "uint256",
					"name": "",
					"type": "uint256"
				}
			],
			"payable": false,
			"stateMutability": "view",
			"type": "function"
		},
		{
			"constant": true,
			"inputs": [],
			"name": "feePeriodDuration",
			"outputs": [
				{
					"internalType": "uint256",
					"name": "",
					"type": "uint256"
				}
			],
			"payable": false,
			"stateMutability": "view",
			"type": "function"
		},
		{
			"constant": true,
			"inputs": [],
			"name": "getResolverAddressesRequired",
			"outputs": [
				{
					"internalType": "bytes32[24]",
					"name": "addressesRequired",
					"type": "bytes32[24]"
				}
			],
			"payable": false,
			"stateMutability": "view",
			"type": "function"
		},
		{
			"constant": true,
			"inputs": [
				{
					"internalType": "contract AddressResolver",
					"name": "_resolver",
					"type": "address"
				}
			],
			"name": "isResolverCached",
			"outputs": [
				{
					"internalType": "bool",
					"name": "",
					"type": "bool"
				}
			],
			"payable": false,
			"stateMutability": "view",
			"type": "function"
		},
		{
			"constant": true,
			"inputs": [],
			"name": "issuanceRatio",
			"outputs": [
				{
					"internalType": "uint256",
					"name": "",
					"type": "uint256"
				}
			],
			"payable": false,
			"stateMutability": "view",
			"type": "function"
		},
		{
			"constant": true,
			"inputs": [],
			"name": "liquidationDelay",
			"outputs": [
				{
					"internalType": "uint256",
					"name": "",
					"type": "uint256"
				}
			],
			"payable": false,
			"stateMutability": "view",
			"type": "function"
		},
		{
			"constant": true,
			"inputs": [],
			"name": "liquidationPenalty",
			"outputs": [
				{
					"internalType": "uint256",
					"name": "",
					"type": "uint256"
				}
			],
			"payable": false,
			"stateMutability": "view",
			"type": "function"
		},
		{
			"constant": true,
			"inputs": [],
			"name": "liquidationRatio",
			"outputs": [
				{
					"internalType": "uint256",
					"name": "",
					"type": "uint256"
				}
			],
			"payable": false,
			"stateMutability": "view",
			"type": "function"
		},
		{
			"constant": true,
			"inputs": [],
			"name": "maximumDeposit",
			"outputs": [
				{
					"internalType": "uint256",
					"name": "",
					"type": "uint256"
				}
			],
			"payable": false,
			"stateMutability": "view",
			"type": "function"
		},
		{
			"constant": true,
			"inputs": [],
			"name": "minimumStakeTime",
			"outputs": [
				{
					"internalType": "uint256",
					"name": "",
					"type": "uint256"
				}
			],
			"payable": false,
			"stateMutability": "view",
			"type": "function"
		},
		{
			"constant": false,
			"inputs": [
				{
					"internalType": "address",
					"name": "_owner",
					"type": "address"
				}
			],
			"name": "nominateNewOwner",
			"outputs": [],
			"payable": false,
			"stateMutability": "nonpayable",
			"type": "function"
		},
		{
			"constant": true,
			"inputs": [],
			"name": "nominatedOwner",
			"outputs": [
				{
					"internalType": "address",
					"name": "",
					"type": "address"
				}
			],
			"payable": false,
			"stateMutability": "view",
			"type": "function"
		},
		{
			"constant": true,
			"inputs": [],
			"name": "owner",
			"outputs": [
				{
					"internalType": "address",
					"name": "",
					"type": "address"
				}
			],
			"payable": false,
			"stateMutability": "view",
			"type": "function"
		},
		{
			"constant": true,
			"inputs": [],
			"name": "priceDeviationThresholdFactor",
			"outputs": [
				{
					"internalType": "uint256",
					"name": "",
					"type": "uint256"
				}
			],
			"payable": false,
			"stateMutability": "view",
			"type": "function"
		},
		{
			"constant": true,
			"inputs": [],
			"name": "rateStalePeriod",
			"outputs": [
				{
					"internalType": "uint256",
					"name": "",
					"type": "uint256"
				}
			],
			"payable": false,
			"stateMutability": "view",
			"type": "function"
		},
		{
			"constant": true,
			"inputs": [],
			"name": "resolver",
			"outputs": [
				{
					"internalType": "contract AddressResolver",
					"name": "",
					"type": "address"
				}
			],
			"payable": false,
			"stateMutability": "view",
			"type": "function"
		},
		{
			"constant": true,
			"inputs": [
				{
					"internalType": "uint256",
					"name": "",
					"type": "uint256"
				}
			],
			"name": "resolverAddressesRequired",
			"outputs": [
				{
					"internalType": "bytes32",
					"name": "",
					"type": "bytes32"
				}
			],
			"payable": false,
			"stateMutability": "view",
			"type": "function"
		},
		{
			"constant": false,
			"inputs": [
				{
					"internalType": "address",
					"name": "_flags",
					"type": "address"
				}
			],
			"name": "setAggregatorWarningFlags",
			"outputs": [],
			"payable": false,
			"stateMutability": "nonpayable",
			"type": "function"
		},
		{
			"constant": false,
			"inputs": [
				{
					"internalType": "uint256",
					"name": "_seconds",
					"type": "uint256"
				}
			],
			"name": "setDebtSnapshotStaleTime",
			"outputs": [],
			"payable": false,
			"stateMutability": "nonpayable",
			"type": "function"
		},
		{
			"constant": false,
			"inputs": [
				{
					"internalType": "bytes32[]",
					"name": "synthKeys",
					"type": "bytes32[]"
				},
				{
					"internalType": "uint256[]",
					"name": "exchangeFeeRates",
					"type": "uint256[]"
				}
			],
			"name": "setExchangeFeeRateForSynths",
			"outputs": [],
			"payable": false,
			"stateMutability": "nonpayable",
			"type": "function"
		},
		{
			"constant": false,
			"inputs": [
				{
					"internalType": "uint256",
					"name": "_feePeriodDuration",
					"type": "uint256"
				}
			],
			"name": "setFeePeriodDuration",
			"outputs": [],
			"payable": false,
			"stateMutability": "nonpayable",
			"type": "function"
		},
		{
			"constant": false,
			"inputs": [
				{
					"internalType": "uint256",
					"name": "_issuanceRatio",
					"type": "uint256"
				}
			],
			"name": "setIssuanceRatio",
			"outputs": [],
			"payable": false,
			"stateMutability": "nonpayable",
			"type": "function"
		},
		{
			"constant": false,
			"inputs": [
				{
					"internalType": "uint256",
					"name": "time",
					"type": "uint256"
				}
			],
			"name": "setLiquidationDelay",
			"outputs": [],
			"payable": false,
			"stateMutability": "nonpayable",
			"type": "function"
		},
		{
			"constant": false,
			"inputs": [
				{
					"internalType": "uint256",
					"name": "penalty",
					"type": "uint256"
				}
			],
			"name": "setLiquidationPenalty",
			"outputs": [],
			"payable": false,
			"stateMutability": "nonpayable",
			"type": "function"
		},
		{
			"constant": false,
			"inputs": [
				{
					"internalType": "uint256",
					"name": "_liquidationRatio",
					"type": "uint256"
				}
			],
			"name": "setLiquidationRatio",
			"outputs": [],
			"payable": false,
			"stateMutability": "nonpayable",
			"type": "function"
		},
		{
			"constant": false,
			"inputs": [
				{
					"internalType": "uint256",
					"name": "_maxDeposit",
					"type": "uint256"
				}
			],
			"name": "setMaximumDeposit",
			"outputs": [],
			"payable": false,
			"stateMutability": "nonpayable",
			"type": "function"
		},
		{
			"constant": false,
			"inputs": [
				{
					"internalType": "uint256",
					"name": "_seconds",
					"type": "uint256"
				}
			],
			"name": "setMinimumStakeTime",
			"outputs": [],
			"payable": false,
			"stateMutability": "nonpayable",
			"type": "function"
		},
		{
			"constant": false,
			"inputs": [
				{
					"internalType": "uint256",
					"name": "_priceDeviationThresholdFactor",
					"type": "uint256"
				}
			],
			"name": "setPriceDeviationThresholdFactor",
			"outputs": [],
			"payable": false,
			"stateMutability": "nonpayable",
			"type": "function"
		},
		{
			"constant": false,
			"inputs": [
				{
					"internalType": "uint256",
					"name": "period",
					"type": "uint256"
				}
			],
			"name": "setRateStalePeriod",
			"outputs": [],
			"payable": false,
			"stateMutability": "nonpayable",
			"type": "function"
		},
		{
			"constant": false,
			"inputs": [
				{
					"internalType": "contract AddressResolver",
					"name": "_resolver",
					"type": "address"
				}
			],
			"name": "setResolverAndSyncCache",
			"outputs": [],
			"payable": false,
			"stateMutability": "nonpayable",
			"type": "function"
		},
		{
			"constant": false,
			"inputs": [
				{
					"internalType": "uint256",
					"name": "_percent",
					"type": "uint256"
				}
			],
			"name": "setTargetThreshold",
			"outputs": [],
			"payable": false,
			"stateMutability": "nonpayable",
			"type": "function"
		},
		{
			"constant": false,
			"inputs": [
				{
					"internalType": "bool",
					"name": "_tradingRewardsEnabled",
					"type": "bool"
				}
			],
			"name": "setTradingRewardsEnabled",
			"outputs": [],
			"payable": false,
			"stateMutability": "nonpayable",
			"type": "function"
		},
		{
			"constant": false,
			"inputs": [
				{
					"internalType": "uint256",
					"name": "_waitingPeriodSecs",
					"type": "uint256"
				}
			],
			"name": "setWaitingPeriodSecs",
			"outputs": [],
			"payable": false,
			"stateMutability": "nonpayable",
			"type": "function"
		},
		{
			"constant": true,
			"inputs": [],
			"name": "targetThreshold",
			"outputs": [
				{
					"internalType": "uint256",
					"name": "",
					"type": "uint256"
				}
			],
			"payable": false,
			"stateMutability": "view",
			"type": "function"
		},
		{
			"constant": true,
			"inputs": [],
			"name": "tradingRewardsEnabled",
			"outputs": [
				{
					"internalType": "bool",
					"name": "",
					"type": "bool"
				}
			],
			"payable": false,
			"stateMutability": "view",
			"type": "function"
		},
		{
			"constant": true,
			"inputs": [],
			"name": "waitingPeriodSecs",
			"outputs": [
				{
					"internalType": "uint256",
					"name": "",
					"type": "uint256"
				}
			],
			"payable": false,
			"stateMutability": "view",
			"type": "function"
		}
	],
	"evm": {
		"bytecode": {
			"linkReferences": {
				"SystemSettings.sol": {
					"SafeDecimalMath": [
						{
							"length": 20,
							"start": 6391
						},
						{
							"length": 20,
							"start": 10345
						}
					]
				}
			},
			"object": "6080604052604051602081016040526000815262000022906005906001620004dc565b503480156200003b57600080620000386200052a565b50505b5060405162003cee38038062003cee833981810160405260408110156200006c57600080620000696200052a565b50505b810190808051929190602001805192508291506005905060186103006040519081016040529190610300830182845b81620000a662000597565b815260200190600101908083116200009b57508793505050506001600160a01b038116620001255760405162461bcd60e51b815260206004820152601960248201527f4f776e657220616464726573732063616e6e6f74206265203000000000000000604482015260640160405180910390620001226200052a565b50505b8060006001816200013562000597565b816001600160a01b0302191690836001600160a01b031602179062000159620005f9565b5050507fb532073b38c83145e3e5135377a08bf9aab55bc0fd7c1179cd4fb995d2a5159c6000826040516001600160a01b039283168152911660208201526040908101905180910390a15060008080620001b262000597565b906101000a90046001600160a01b03166001600160a01b031614156200021d5760405162461bcd60e51b815260206004820152601160248201527013dddb995c881b5d5cdd081899481cd95d607a1b6044820152606401604051809103906200021a6200052a565b50505b60005b6018811015620002ad5760008282601881106200023957fe5b6020020151146200029e5760048282601881106200025357fe5b602002015190806001816200026762000597565b01808262000274620005f9565b505060009283529160001983019150602090209192910162000295620005f9565b505050620002a4565b620002ad565b60010162000220565b50816002600181620002be62000597565b816001600160a01b0302191690836001600160a01b0316021790620002e2620005f9565b50505050506200030a6e466c657869626c6553746f7261676560881b6200031260201b60201c565b50506200077f565b806004806001816200032362000597565b01808262000330620005f9565b505060009283529160001983019150602090209192910162000351620005f9565b50505060186004806200036362000597565b905010620003c25760405162461bcd60e51b815260206004820152601b60248201527f4d6178207265736f6c7665722063616368652073697a65206d65740000000000604482015260640160405180910390620003bf6200052a565b50505b60006002620003d062000597565b906101000a90046001600160a01b03166001600160a01b03166321f8a721826040516001600160e01b031960e084901b168152600481019190915260240160206040518083038186806200042362000648565b1580156200043b57600080620004386200052a565b50505b505a6200044762000695565b505050505015801562000469573d6000803e3d6000620004666200052a565b50505b505050506040513d60208110156200048b57600080620004886200052a565b50505b8101908080516000858152600360205290935060409250905020600181620004b262000597565b816001600160a01b0302191690836001600160a01b0316021790620004d6620005f9565b50505050565b826018810192821562000518579160200282015b82811115620005185782518262000506620005f9565b505091602001919060010190620004f0565b506200052692915062000752565b5090565b632a2a7adb598160e01b8152600481016020815285602082015260005b868110156200056457808601518282016040015260200162000547565b506020828760640184336000905af158600e01573d6000803e3d6000fd5b3d6001141558600a015760016000f35b505050565b6303daa959598160e01b8152836004820152602081602483336000905af158600e01573d6000803e3d6000fd5b3d6001141558600a015760016000f35b8051935060005b6040811015620005f457600082820152602001620005db565b505050565b6322bd64c0598160e01b8152836004820152846024820152600081604483336000905af158600e01573d6000803e3d6000fd5b3d6001141558600a015760016000f35b600081526020620005db565b638435035b598160e01b8152836004820152602081602483336000905af158600e01573d6000803e3d6000fd5b3d6001141558600a015760016000f35b80516000825293506020620005db565b638540661f598160e01b8152836004820152846024820152606060448201528660648201526084810160005b88811015620006db578088015182820152602001620006c1565b50876101040182016060838a6101040185336000905af158600e01573d6000803e3d6000fd5b3d6001141558600a015760016000f35b825160408401513d6000863e8c8c82606088013350600060045af15059855b8181101562000746576000815260200162000730565b50919c50505050505050565b6200077c91905b8082111562000526576000808262000770620005f9565b50505060010162000759565b90565b61355f806200078f6000396000f3fe60806040523480156100195760008061001661308d565b50505b50600436106102fa5760003560e01c8063635a3872116101a6578063af5355d8116100f2578063d62ae399116100ab578063e942204611610085578063e942204614610828578063f1076b251461084e578063f344da6714610856578063fb1b4c7e1461085e576102fa565b8063d62ae399146107ca578063e0e6393d14610818578063e3235c9114610820576102fa565b8063af5355d8146107d2578063af8bc660146107da578063b2ea7054146106b8578063b410a034146107e2578063c193f0d8146107ea578063c6c9d828146107f2576102fa565b80638da5cb5b1161015f578063a0cf745111610139578063a0cf745114610779578063a4ce5b7114610781578063ab49848c14610789578063add0989d146107ca576102fa565b80638da5cb5b14610725578063946ce8cd1461072d578063967706e914610753576102fa565b8063635a387214610692578063657c6dc7146106b857806379ba5097146106c057806379cb657a146106c85780637bf82305146106ee578063892571171461071d576102fa565b806328a1170d1161026557806353a47bb71161021e578063580a975c116101f8578063580a975c146105fb5780635e0117d6146106035780636190dd7a14610629578063631e14441461064f576102fa565b806353a47bb7146105c557806354b302c5146105cd57806357b154d5146105d5576102fa565b806328a1170d146104375780632cce0e5414610538578063372a395a1461055e5780633be99e6f146105665780634641ab66146105955780634c36b837146105bd576102fa565b80631775765f116102b75780631775765f146103cb5780631e6e2190146103d357806322425fa4146103f957806323f5589a14610401578063242df9e1146104095780632806a74314610411576102fa565b806304c49f2c1461030857806304f3bcec14610330578063054be0b714610354578063085f95cd1461037a5780630ee4951b146103945780631627540c1461039c575b60008061030561308d565b50505b61032e600480360360208110156103275760008061032461308d565b50505b5035610866565b005b610338610a23565b6040516001600160a01b03909116815260200160405180910390f35b61032e600480360360208110156103735760008061037061308d565b50505b5035610a42565b610382610b8b565b60405190815260200160405180910390f35b610382610b97565b61032e600480360360208110156103bb576000806103b861308d565b50505b50356001600160a01b0316610ba6565b610382610c20565b61032e600480360360208110156103f2576000806103ef61308d565b50505b5035610c2a565b610382610d33565b610382610d3d565b610382610d47565b61032e600480360360208110156104305760008061042d61308d565b50505b5035610d51565b61032e600480360360408110156104565760008061045361308d565b50505b81019060208101813564010000000081111561047a5760008061047761308d565b50505b8201836020820111156104955760008061049261308d565b50505b803590602001918460208302840111640100000000831117156104c0576000806104bd61308d565b50505b9193909290916020810190356401000000008111156104e7576000806104e461308d565b50505b820183602082011115610502576000806104ff61308d565b50505b8035906020019184602083028401116401000000008311171561052d5760008061052a61308d565b50505b509092509050610e9f565b61032e600480360360208110156105575760008061055461308d565b50505b5035611101565b61038261131b565b61032e600480360360208110156105855760008061058261308d565b50505b50356001600160a01b0316611325565b61032e600480360360208110156105b4576000806105b161308d565b50505b503515156114ef565b6103386115f4565b6103386115fe565b61038261160a565b61032e600480360360208110156105f4576000806105f161308d565b50505b5035611614565b61038261170e565b61032e600480360360208110156106225760008061061f61308d565b50505b5035611715565b61032e600480360360208110156106485760008061064561308d565b50505b50356118d1565b61067e6004803603602081101561066e5760008061066b61308d565b50505b50356001600160a01b03166119d2565b604051901515815260200160405180910390f35b61032e600480360360208110156106b1576000806106ae61308d565b50505b5035611bae565b610382611cab565b61032e611cb7565b61032e600480360360208110156106e7576000806106e461308d565b50505b5035611e3a565b61032e6004803603602081101561070d5760008061070a61308d565b50505b50356001600160a01b0316611f35565b6103826120ad565b6103386120b7565b61032e6004803603602081101561074c5760008061074961308d565b50505b50356120c2565b610382600480360360208110156107725760008061076f61308d565b50505b5035612348565b610382612359565b610382612363565b61079161236f565b604051808261030080838360005b838110156107b757808201518382015260200161079f565b5050505090500191505060405180910390f35b6103826123d1565b6103826123d8565b6103826123e2565b6103826123e7565b61067e6123f1565b610382600480360360208110156108115760008061080e61308d565b50505b50356123fb565b610382612426565b610382612430565b61032e600480360360208110156108475760008061084461308d565b50505b5035612435565b610382612591565b610382612598565b61038261259f565b61086e6125ab565b620151808110156108ce5760405162461bcd60e51b815260206004820152601f60248201527f76616c7565203c204d494e5f4645455f504552494f445f4455524154494f4e006044820152606401604051809103906108cb61308d565b50505b624f1a0081111561092e5760405162461bcd60e51b815260206004820152601f60248201527f76616c7565203e204d41585f4645455f504552494f445f4455524154494f4e0060448201526064016040518091039061092b61308d565b50505b610936612625565b6001600160a01b0316631d5b277f6000805160206134e4833981519152703332b2a832b934b7b2223ab930ba34b7b760791b846040516001600160e01b031960e086901b168152600481019390935260248301919091526044820152606401600060405180830381600087806109aa6130f8565b1580156109bf576000806109bc61308d565b50505b505a6109c9613153565b5050505050501580156109e9573d6000803e3d60006109e661308d565b50505b505050507f791bd58dd9719b5eb5ccdd6ec4d5c459b0ab8efcf59b723cf477693c0889eacd8160405190815260200160405180910390a150565b60006002610a2f61320c565b906101000a90046001600160a01b031681565b610a4a6125ab565b670de0b6b3a7640000811115610a9a5760405162461bcd60e51b81526004018080602001828103825260338152602001806135046033913960400191505060405180910390610a9761308d565b50505b610aa2612625565b6001600160a01b0316631d5b277f6000805160206134e48339815191526c69737375616e6365526174696f60981b846040516001600160e01b031960e086901b16815260048101939093526024830191909152604482015260640160006040518083038160008780610b126130f8565b158015610b2757600080610b2461308d565b50505b505a610b31613153565b505050505050158015610b51573d6000803e3d6000610b4e61308d565b50505b505050507f63b22e09cc3a33e847c063e35f887bd4ea96bc8c0f93f1f8c311e4fa6d8854528160405190815260200160405180910390a150565b6703782dace9d9000081565b6000610ba1612676565b905090565b610bae6125ab565b8060018080610bbb61320c565b816001600160a01b0302191690836001600160a01b0316021790610bdd613258565b5050507f906a1c6bd7e3091ea86693dd029a831c19049ce77f1dce2ce0bab1cacbabce22816040516001600160a01b03909116815260200160405180910390a150565b6000610ba1612752565b610c326125ab565b610c3a612625565b6001600160a01b0316631d5b277f6000805160206134e48339815191527f7072696365446576696174696f6e5468726573686f6c64466163746f72000000846040516001600160e01b031960e086901b16815260048101939093526024830191909152604482015260640160006040518083038160008780610cba6130f8565b158015610ccf57600080610ccc61308d565b50505b505a610cd9613153565b505050505050158015610cf9573d6000803e3d6000610cf661308d565b50505b505050507f6e65c7d32a9129ebc4e4e6d755e2a9668753c046f4b128ac8aeb4f3e5446a1e58160405190815260200160405180910390a150565b6000610ba16127c4565b6000610ba1612837565b6000610ba16128ab565b610d596125ab565b6703782dace9d90000811115610da95760405162461bcd60e51b81526004018080602001828103825260218152602001806134066021913960400191505060405180910390610da661308d565b50505b610db1612625565b6001600160a01b0316631d5b277f6000805160206134e4833981519152716c69717569646174696f6e50656e616c747960701b846040516001600160e01b031960e086901b16815260048101939093526024830191909152604482015260640160006040518083038160008780610e266130f8565b158015610e3b57600080610e3861308d565b50505b505a610e45613153565b505050505050158015610e65573d6000803e3d6000610e6261308d565b50505b505050507fbfb22c07314f4682bba789860ceb851eb8cea2d867920332b2a42cf56be5b2e98160405190815260200160405180910390a150565b610ea76125ab565b828114610f035760405162461bcd60e51b815260206004820152601860248201527f4172726179206c656e6774687320646f6e74206d617463680000000000000000604482015260640160405180910390610f0061308d565b50505b60005b838110156110fa5767016345785d8a0000838383818110610f2357fe5b905060200201351115610f855760405162461bcd60e51b815260206004820152601e60248201527f4d41585f45584348414e47455f4645455f524154452065786365656465640000604482015260640160405180910390610f8261308d565b50505b610f8d612625565b6001600160a01b0316631d5b277f6000805160206134e48339815191526e65786368616e67654665655261746560881b888886818110610fc957fe5b9050602002013560405160200180838152602001828152602001925050506040516020818303038152906040528051906020012086868681811061100957fe5b905060200201356040516001600160e01b031960e086901b168152600481019390935260248301919091526044820152606401600060405180830381600087806110516130f8565b1580156110665760008061106361308d565b50505b505a611070613153565b505050505050158015611090573d6000803e3d600061108d61308d565b50505b505050507fbbdab54f0da6d720d21f53e4d6f5bbe83e5a2f74c1354175140ea74f8e90c77e8585838181106110c157fe5b905060200201358484848181106110d457fe5b9050602002013560405191825260208201526040908101905180910390a1600101610f06565b5050505050565b6111096125ab565b603281111561115c5760405162461bcd60e51b81526020600482015260126024820152710a8d0e4cae6d0ded8c840e8dede40d0d2ced60731b60448201526064016040518091039061115961308d565b50505b6000611225606461121973__$097ed3f4c0ba5795cc943bc8e15177373c$__63907af6c06040518163ffffffff1660e01b815260040160206040518083038186806111a56130f8565b1580156111ba576000806111b761308d565b50505b505a6111c46132a6565b50505050501580156111e3573d6000803e3d60006111e061308d565b50505b505050506040513d6020811015611202576000806111ff61308d565b50505b81019080805188935091505063ffffffff61291d16565b9063ffffffff61298616565b905061122f612625565b6001600160a01b0316631d5b277f6000805160206134e48339815191526e1d185c99d95d151a1c995cda1bdb19608a1b846040516001600160e01b031960e086901b168152600481019390935260248301919091526044820152606401600060405180830381600087806112a16130f8565b1580156112b6576000806112b361308d565b50505b505a6112c0613153565b5050505050501580156112e0573d6000803e3d60006112dd61308d565b50505b505050507fb2b3a840c101d8e7f0cf8d80d3868976968714347038fe89b36c5031f94dab128160405190815260200160405180910390a15050565b6000610ba16129f8565b61132d6125ab565b80600260018161133b61320c565b816001600160a01b0302191690836001600160a01b031602179061135d613258565b5060009150505b60048061136f61320c565b90508110156114eb5760006004828161138661320c565b811061138e57fe5b906000526020600020016113a061320c565b9050600060026113ae61320c565b906101000a90046001600160a01b03166001600160a01b031663dacb2d01826040516001600160e01b031960e084901b1681526004810191909152604060248201819052601760448301527f5265736f6c766572206d697373696e67207461726765740000000000000000006064830152608490910190602090518083038186806114376130f8565b15801561144c5760008061144961308d565b50505b505a61145661335f565b5050505050158015611475573d6000803e3d600061147261308d565b50505b505050506040513d60208110156114945760008061149161308d565b50505b81019080805160008581526003602052909350604092509050206001816114b961320c565b816001600160a01b0302191690836001600160a01b03160217906114db613258565b5050600190920191506113649050565b5050565b6114f76125ab565b6114ff612625565b6001600160a01b0316633f28a6fc6000805160206134e4833981519152741d1c98591a5b99d4995dd85c991cd15b98589b1959605a1b846040516001600160e01b031960e086901b1681526004810193909352602483019190915215156044820152606401600060405180830381600087806115796130f8565b15801561158e5760008061158b61308d565b50505b505a611598613153565b5050505050501580156115b8573d6000803e3d60006115b561308d565b50505b505050507fe11c1893b6f97decd3ac13637137734a4b75d159e899e5a8abb48470ab0bc4fd81604051901515815260200160405180910390a150565b6000610ba1612a77565b60006001610a2f61320c565b6000610ba1612aef565b61161c6125ab565b611624612625565b6001600160a01b0316631d5b277f6000805160206134e48339815191526d1b585e1a5b5d5b51195c1bdcda5d60921b846040516001600160e01b031960e086901b168152600481019390935260248301919091526044820152606401600060405180830381600087806116956130f8565b1580156116aa576000806116a761308d565b50505b505a6116b4613153565b5050505050501580156116d4573d6000803e3d60006116d161308d565b50505b505050507f1e80a107fd5ba086e2a723ceec9a9263bdfaed7997f66db919c1e9d1cf64817f8160405190815260200160405180910390a150565b62093a8081565b61171d6125ab565b62278d0081111561177d5760405162461bcd60e51b815260206004820152601960248201527f4d757374206265206c657373207468616e20333020646179730000000000000060448201526064016040518091039061177a61308d565b50505b620151808110156117dd5760405162461bcd60e51b815260206004820152601a60248201527f4d7573742062652067726561746572207468616e2031206461790000000000006044820152606401604051809103906117da61308d565b50505b6117e5612625565b6001600160a01b0316631d5b277f6000805160206134e48339815191526f6c69717569646174696f6e44656c617960801b846040516001600160e01b031960e086901b168152600481019390935260248301919091526044820152606401600060405180830381600087806118586130f8565b15801561186d5760008061186a61308d565b50505b505a611877613153565b505050505050158015611897573d6000803e3d600061189461308d565b50505b505050507f9917e32433edcb65f8982c1b2c26c3469468308456f93cf34b98c1b0459c53988160405190815260200160405180910390a150565b6118d96125ab565b6118e1612625565b6001600160a01b0316631d5b277f6000805160206134e48339815191527464656274536e617073686f745374616c6554696d6560581b846040516001600160e01b031960e086901b168152600481019390935260248301919091526044820152606401600060405180830381600087806119596130f8565b15801561196e5760008061196b61308d565b50505b505a611978613153565b505050505050158015611998573d6000803e3d600061199561308d565b50505b505050507f9795be9f1478ed09e9e47e67318b8aa7a0c0213170403191099bf7dd435fb4d78160405190815260200160405180910390a150565b60006001600160a01b0382168160026119e961320c565b906101000a90046001600160a01b03166001600160a01b031614611a0f57506000611ba9565b60005b600480611a1d61320c565b9050811015611ba357600060048281611a3461320c565b8110611a3c57fe5b90600052602060002001611a4e61320c565b6000818152600360205290915060409020600090611a6a61320c565b6001600160a01b036101009290920a90041660006002611a8861320c565b906101000a90046001600160a01b03166001600160a01b03166321f8a721836040516001600160e01b031960e084901b16815260048101919091526024016020604051808303818680611ad96130f8565b158015611aee57600080611aeb61308d565b50505b505a611af861335f565b5050505050158015611b17573d6000803e3d6000611b1461308d565b50505b505050506040513d6020811015611b3657600080611b3361308d565b50505b8101908080516001600160a01b031693909314159250829150611b8a905057506000818152600360205260408120600090611b6f61320c565b906101000a90046001600160a01b03166001600160a01b0316145b15611b9a57600092505050611ba9565b50600101611a12565b50600190505b919050565b611bb66125ab565b611bbe612625565b6001600160a01b0316631d5b277f6000805160206134e48339815191527077616974696e67506572696f645365637360781b846040516001600160e01b031960e086901b16815260048101939093526024830191909152604482015260640160006040518083038160008780611c326130f8565b158015611c4757600080611c4461308d565b50505b505a611c51613153565b505050505050158015611c71573d6000803e3d6000611c6e61308d565b50505b505050507fc32c92cac11e29883e0fb2d9e38230cc510e3bda48abc270b780de60bb8465f88160405190815260200160405180910390a150565b670de0b6b3a764000081565b60006001611cc361320c565b906101000a90046001600160a01b03166001600160a01b03165a611ce56133a2565b6001600160a01b031614611d335760405162461bcd60e51b81526004018080602001828103825260358152602001806134276035913960400191505060405180910390611d3061308d565b50505b7fb532073b38c83145e3e5135377a08bf9aab55bc0fd7c1179cd4fb995d2a5159c600080611d5f61320c565b906101000a90046001600160a01b03166001600090611d7c61320c565b906101000a90046001600160a01b03166040516001600160a01b039283168152911660208201526040908101905180910390a160006001611dbb61320c565b906101000a90046001600160a01b03166000806101000a81611ddb61320c565b816001600160a01b0302191690836001600160a01b0316021790611dfd613258565b5050506000600160006101000a81611e1361320c565b816001600160a01b0302191690836001600160a01b0316021790611e35613258565b505050565b611e426125ab565b611e4a612625565b6001600160a01b0316631d5b277f6000805160206134e48339815191526e1c985d1954dd185b1954195c9a5bd9608a1b846040516001600160e01b031960e086901b16815260048101939093526024830191909152604482015260640160006040518083038160008780611ebc6130f8565b158015611ed157600080611ece61308d565b50505b505a611edb613153565b505050505050158015611efb573d6000803e3d6000611ef861308d565b50505b505050507f16529d8c407b08938da67de7fa4319199baffce4f5d1971f812cc770b0237e668160405190815260200160405180910390a150565b611f3d6125ab565b6001600160a01b038116611fa05760405162461bcd60e51b815260206004820152601b60248201527f56616c69642061646472657373206d75737420626520676976656e0000000000604482015260640160405180910390611f9d61308d565b50505b611fa8612625565b6001600160a01b0316634dca09786000805160206134e48339815191527561676772656761746f725761726e696e67466c61677360501b846040516001600160e01b031960e086901b168152600481019390935260248301919091526001600160a01b031660448201526064016000604051808303816000878061202a6130f8565b15801561203f5760008061203c61308d565b50505b505a612049613153565b505050505050158015612069573d6000803e3d600061206661308d565b50505b505050507f0f4cbdee769ea02d5757b91905563555cc648fe42fc3ef201e28d97d2bbde965816040516001600160a01b03909116815260200160405180910390a150565b6000610ba1612b5f565b600080610a2f61320c565b6120ca6125ab565b6121a061218b6120d8612837565b73__$097ed3f4c0ba5795cc943bc8e15177373c$__63907af6c06040518163ffffffff1660e01b815260040160206040518083038186806121176130f8565b15801561212c5760008061212961308d565b50505b505a6121366132a6565b5050505050158015612155573d6000803e3d600061215261308d565b50505b505050506040513d60208110156121745760008061217161308d565b50505b8101908080519392505063ffffffff612bd2169050565b670de0b6b3a76400009063ffffffff612c3116565b8111156121e75760405162461bcd60e51b815260040180806020018281038252603881526020018061345c60389139604001915050604051809103906121e461308d565b50505b6000612209671bc16d674ec800006121fd612c4f565b9063ffffffff612cbe16565b9050808210156122535760405162461bcd60e51b8152600401808060200182810382526028815260200180613537602891396040019150506040518091039061225061308d565b50505b61225b612625565b6001600160a01b0316631d5b277f6000805160206134e48339815191526f6c69717569646174696f6e526174696f60801b856040516001600160e01b031960e086901b168152600481019390935260248301919091526044820152606401600060405180830381600087806122ce6130f8565b1580156122e3576000806122e061308d565b50505b505a6122ed613153565b50505050505015801561230d573d6000803e3d600061230a61308d565b50505b505050507f5568be83e5cf7405adf8fb39305e2cdf49c43336606d23c3e0d3fe54e205150a8260405190815260200160405180910390a15050565b600061235382612ce8565b92915050565b6000610ba1612df3565b671bc16d674ec8000081565b6123776133e8565b60005b60048061238561320c565b90508110156123cd576004818161239a61320c565b81106123a257fe5b906000526020600020016123b461320c565b8282601881106123c057fe5b602002015260010161237a565b5090565b6201518081565b6000610ba1612e65565b603281565b6000610ba1612c4f565b6000610ba1612edc565b6004818161240761320c565b811061240f57fe5b90600052602060002001905061242361320c565b81565b6000610ba1612f53565b601881565b61243d6125ab565b62093a8081111561249d5760405162461bcd60e51b815260206004820181905260248201527f7374616b652074696d6520657863656564206d6178696d756d2031207765656b60448201526064016040518091039061249a61308d565b50505b6124a5612625565b6001600160a01b0316631d5b277f6000805160206134e48339815191526f6d696e696d756d5374616b6554696d6560801b846040516001600160e01b031960e086901b168152600481019390935260248301919091526044820152606401600060405180830381600087806125186130f8565b15801561252d5760008061252a61308d565b50505b505a612537613153565b505050505050158015612557573d6000803e3d600061255461308d565b50505b505050507f2b0fa66d155c9598699cb6569577f27b95729bbf580268eed39db6bc4e8144778160405190815260200160405180910390a150565b62278d0081565b624f1a0081565b67016345785d8a000081565b6000806125b661320c565b906101000a90046001600160a01b03166001600160a01b03165a6125d86133a2565b6001600160a01b0316146126235760405162461bcd60e51b815260040180806020018281038252602f815260200180613494602f9139604001915050604051809103906114eb61308d565b565b6000610ba16e466c657869626c6553746f7261676560881b60405160408082019052601f81527f4d697373696e6720466c657869626c6553746f726167652061646472657373006020820152612fc4565b6000612680612625565b6001600160a01b03166323257c2b6000805160206134e48339815191526e1c985d1954dd185b1954195c9a5bd9608a1b6040516001600160e01b031960e085901b1681526004810192909252602482015260440160206040518083038186806126e76130f8565b1580156126fc576000806126f961308d565b50505b505a61270661335f565b5050505050158015612725573d6000803e3d600061272261308d565b50505b505050506040513d60208110156127445760008061274161308d565b50505b810190808051935050505090565b600061275c612625565b6001600160a01b03166323257c2b6000805160206134e48339815191526f6c69717569646174696f6e526174696f60801b6040516001600160e01b031960e085901b1681526004810192909252602482015260440160206040518083038186806126e76130f8565b60006127ce612625565b6001600160a01b03166323257c2b6000805160206134e4833981519152703332b2a832b934b7b2223ab930ba34b7b760791b6040516001600160e01b031960e085901b1681526004810192909252602482015260440160206040518083038186806126e76130f8565b6000612841612625565b6001600160a01b03166323257c2b6000805160206134e4833981519152716c69717569646174696f6e50656e616c747960701b6040516001600160e01b031960e085901b1681526004810192909252602482015260440160206040518083038186806126e76130f8565b60006128b5612625565b6001600160a01b03166323257c2b6000805160206134e48339815191526f6d696e696d756d5374616b6554696d6560801b6040516001600160e01b031960e085901b1681526004810192909252602482015260440160206040518083038186806126e76130f8565b60008261292c57506000612353565b8282028284828161293957fe5b041461297f5760405162461bcd60e51b81526004018080602001828103825260218152602001806134c3602191396040019150506040518091039061297c61308d565b50505b9392505050565b60008082116129e45760405162461bcd60e51b815260206004820152601a60248201527f536166654d6174683a206469766973696f6e206279207a65726f0000000000006044820152606401604051809103906129e161308d565b50505b60008284816129ef57fe5b04949350505050565b6000612a02612625565b6001600160a01b03166323257c2b6000805160206134e48339815191527f7072696365446576696174696f6e5468726573686f6c64466163746f720000006040516001600160e01b031960e085901b1681526004810192909252602482015260440160206040518083038186806126e76130f8565b6000612a81612625565b6001600160a01b0316639ee5955a6000805160206134e48339815191527561676772656761746f725761726e696e67466c61677360501b6040516001600160e01b031960e085901b1681526004810192909252602482015260440160206040518083038186806126e76130f8565b6000612af9612625565b6001600160a01b03166323257c2b6000805160206134e48339815191526d1b585e1a5b5d5b51195c1bdcda5d60921b6040516001600160e01b031960e085901b1681526004810192909252602482015260440160206040518083038186806126e76130f8565b6000612b69612625565b6001600160a01b03166323257c2b6000805160206134e48339815191527077616974696e67506572696f645365637360781b6040516001600160e01b031960e085901b1681526004810192909252602482015260440160206040518083038186806126e76130f8565b60008282018381101561297f5760405162461bcd60e51b815260206004820152601b60248201527f536166654d6174683a206164646974696f6e206f766572666c6f77000000000060448201526064016040518091039061297c61308d565b600061297f8261121985670de0b6b3a764000063ffffffff61291d16565b6000612c59612625565b6001600160a01b03166323257c2b6000805160206134e48339815191526c69737375616e6365526174696f60981b6040516001600160e01b031960e085901b1681526004810192909252602482015260440160206040518083038186806126e76130f8565b6000670de0b6b3a7640000612cd9848463ffffffff61291d16565b81612ce057fe5b049392505050565b6000612cf2612625565b6001600160a01b03166323257c2b6000805160206134e48339815191526e65786368616e67654665655261746560881b856040516020018083815260200182815260200192505050604051602081830303815290604052805190602001206040516001600160e01b031960e085901b168152600481019290925260248201526044016020604051808303818680612d876130f8565b158015612d9c57600080612d9961308d565b50505b505a612da661335f565b5050505050158015612dc5573d6000803e3d6000612dc261308d565b50505b505050506040513d6020811015612de457600080612de161308d565b50505b81019080805195945050505050565b6000612dfd612625565b6001600160a01b03166323257c2b6000805160206134e48339815191526f6c69717569646174696f6e44656c617960801b6040516001600160e01b031960e085901b1681526004810192909252602482015260440160206040518083038186806126e76130f8565b6000612e6f612625565b6001600160a01b03166323257c2b6000805160206134e48339815191527464656274536e617073686f745374616c6554696d6560581b6040516001600160e01b031960e085901b1681526004810192909252602482015260440160206040518083038186806126e76130f8565b6000612ee6612625565b6001600160a01b031663d994502d6000805160206134e4833981519152741d1c98591a5b99d4995dd85c991cd15b98589b1959605a1b6040516001600160e01b031960e085901b1681526004810192909252602482015260440160206040518083038186806126e76130f8565b6000612f5d612625565b6001600160a01b03166323257c2b6000805160206134e48339815191526e1d185c99d95d151a1c995cda1bdb19608a1b6040516001600160e01b031960e085901b1681526004810192909252602482015260440160206040518083038186806126e76130f8565b600082815260036020528060408120600090612fde61320c565b6001600160a01b036101009290920a900416905082816130855760405162461bcd60e51b81526004018080602001828103825283818151815260200191508051906020019080838360005b83811015613041578082015183820152602001613029565b50505050905090810190601f16801561306e5780820380516001836020036101000a031916815260200191505b50925050506040518091039061308261308d565b50505b509392505050565b632a2a7adb598160e01b8152600481016020815285602082015260005b868110156130c55780860151828201604001526020016130aa565b506020828760640184336000905af158600e01573d6000803e3d6000fd5b3d6001141558600a015760016000f35b505050565b638435035b598160e01b8152836004820152602081602483336000905af158600e01573d6000803e3d6000fd5b3d6001141558600a015760016000f35b8051935060005b6040811015611e355760008282015260200161313c565b6385979f76598160e01b8152836004820152846024820152606060448201528760648201526084810160005b8981101561319757808901518282015260200161317f565b50886101040182016060838b6101040185336000905af158600e01573d6000803e3d6000fd5b3d6001141558600a015760016000f35b825160408401513d6000863e8d8d82606088013350600060045af15059855b8181101561320057600081526020016131ec565b50919d50505050505050565b6303daa959598160e01b8152836004820152602081602483336000905af158600e01573d6000803e3d6000fd5b3d6001141558600a015760016000f35b8051600082529350602061313c565b6322bd64c0598160e01b8152836004820152846024820152600081604483336000905af158600e01573d6000803e3d6000fd5b3d6001141558600a015760016000f35b60008152602061313c565b63ffe73914598160e01b8152836004820152846024820152606060448201528660648201526084810160005b888110156132ea5780880151828201526020016132d2565b50876101040182016060838a6101040185336000905af158600e01573d6000803e3d6000fd5b3d6001141558600a015760016000f35b825160408401513d6000863e8c8c82606088013350600060045af15059855b81811015613353576000815260200161333f565b50919c50505050505050565b638540661f598160e01b815283600482015284602482015260606044820152866064820152608481016000888110156132ea5780880151828201526020016132d2565b6373509064598160e01b8152602081600483336000905af158600e01573d6000803e3d6000fd5b3d6001141558600a015760016000f35b8051600082529350602061313c565b60405161030080820160405260189082908038833950919291505056fe70656e616c7479203e204d41585f4c49515549444154494f4e5f50454e414c5459596f75206d757374206265206e6f6d696e61746564206265666f726520796f752063616e20616363657074206f776e6572736869706c69717569646174696f6e526174696f203e204d41585f4c49515549444154494f4e5f524154494f202f202831202b2070656e616c7479294f6e6c792074686520636f6e7472616374206f776e6572206d617920706572666f726d207468697320616374696f6e536166654d6174683a206d756c7469706c69636174696f6e206f766572666c6f7753797374656d53657474696e67730000000000000000000000000000000000004e65772069737375616e636520726174696f2063616e6e6f7420657863656564204d41585f49535355414e43455f524154494f6c69717569646174696f6e526174696f203c204d494e5f4c49515549444154494f4e5f524154494f",
			"opcodes": "PUSH1 0x80 PUSH1 0x40 MSTORE PUSH1 0x40 MLOAD PUSH1 0x20 DUP2 ADD PUSH1 0x40 MSTORE PUSH1 0x0 DUP2 MSTORE PUSH3 0x22 SWAP1 PUSH1 0x5 SWAP1 PUSH1 0x1 PUSH3 0x4DC JUMP JUMPDEST POP CALLVALUE DUP1 ISZERO PUSH3 0x3B JUMPI PUSH1 0x0 DUP1 PUSH3 0x38 PUSH3 0x52A JUMP JUMPDEST POP POP JUMPDEST POP PUSH1 0x40 MLOAD PUSH3 0x3CEE CODESIZE SUB DUP1 PUSH3 0x3CEE DUP4 CODECOPY DUP2 DUP2 ADD PUSH1 0x40 MSTORE PUSH1 0x40 DUP2 LT ISZERO PUSH3 0x6C JUMPI PUSH1 0x0 DUP1 PUSH3 0x69 PUSH3 0x52A JUMP JUMPDEST POP POP JUMPDEST DUP2 ADD SWAP1 DUP1 DUP1 MLOAD SWAP3 SWAP2 SWAP1 PUSH1 0x20 ADD DUP1 MLOAD SWAP3 POP DUP3 SWAP2 POP PUSH1 0x5 SWAP1 POP PUSH1 0x18 PUSH2 0x300 PUSH1 0x40 MLOAD SWAP1 DUP2 ADD PUSH1 0x40 MSTORE SWAP2 SWAP1 PUSH2 0x300 DUP4 ADD DUP3 DUP5 JUMPDEST DUP2 PUSH3 0xA6 PUSH3 0x597 JUMP JUMPDEST DUP2 MSTORE PUSH1 0x20 ADD SWAP1 PUSH1 0x1 ADD SWAP1 DUP1 DUP4 GT PUSH3 0x9B JUMPI POP DUP8 SWAP4 POP POP POP POP PUSH1 0x1 PUSH1 0x1 PUSH1 0xA0 SHL SUB DUP2 AND PUSH3 0x125 JUMPI PUSH1 0x40 MLOAD PUSH3 0x461BCD PUSH1 0xE5 SHL DUP2 MSTORE PUSH1 0x20 PUSH1 0x4 DUP3 ADD MSTORE PUSH1 0x19 PUSH1 0x24 DUP3 ADD MSTORE PUSH32 0x4F776E657220616464726573732063616E6E6F74206265203000000000000000 PUSH1 0x44 DUP3 ADD MSTORE PUSH1 0x64 ADD PUSH1 0x40 MLOAD DUP1 SWAP2 SUB SWAP1 PUSH3 0x122 PUSH3 0x52A JUMP JUMPDEST POP POP JUMPDEST DUP1 PUSH1 0x0 PUSH1 0x1 DUP2 PUSH3 0x135 PUSH3 0x597 JUMP JUMPDEST DUP2 PUSH1 0x1 PUSH1 0x1 PUSH1 0xA0 SHL SUB MUL NOT AND SWAP1 DUP4 PUSH1 0x1 PUSH1 0x1 PUSH1 0xA0 SHL SUB AND MUL OR SWAP1 PUSH3 0x159 PUSH3 0x5F9 JUMP JUMPDEST POP POP POP PUSH32 0xB532073B38C83145E3E5135377A08BF9AAB55BC0FD7C1179CD4FB995D2A5159C PUSH1 0x0 DUP3 PUSH1 0x40 MLOAD PUSH1 0x1 PUSH1 0x1 PUSH1 0xA0 SHL SUB SWAP3 DUP4 AND DUP2 MSTORE SWAP2 AND PUSH1 0x20 DUP3 ADD MSTORE PUSH1 0x40 SWAP1 DUP2 ADD SWAP1 MLOAD DUP1 SWAP2 SUB SWAP1 LOG1 POP PUSH1 0x0 DUP1 DUP1 PUSH3 0x1B2 PUSH3 0x597 JUMP JUMPDEST SWAP1 PUSH2 0x100 EXP SWAP1 DIV PUSH1 0x1 PUSH1 0x1 PUSH1 0xA0 SHL SUB AND PUSH1 0x1 PUSH1 0x1 PUSH1 0xA0 SHL SUB AND EQ ISZERO PUSH3 0x21D JUMPI PUSH1 0x40 MLOAD PUSH3 0x461BCD PUSH1 0xE5 SHL DUP2 MSTORE PUSH1 0x20 PUSH1 0x4 DUP3 ADD MSTORE PUSH1 0x11 PUSH1 0x24 DUP3 ADD MSTORE PUSH17 0x13DDDB995C881B5D5CDD081899481CD95D PUSH1 0x7A SHL PUSH1 0x44 DUP3 ADD MSTORE PUSH1 0x64 ADD PUSH1 0x40 MLOAD DUP1 SWAP2 SUB SWAP1 PUSH3 0x21A PUSH3 0x52A JUMP JUMPDEST POP POP JUMPDEST PUSH1 0x0 JUMPDEST PUSH1 0x18 DUP2 LT ISZERO PUSH3 0x2AD JUMPI PUSH1 0x0 DUP3 DUP3 PUSH1 0x18 DUP2 LT PUSH3 0x239 JUMPI INVALID JUMPDEST PUSH1 0x20 MUL ADD MLOAD EQ PUSH3 0x29E JUMPI PUSH1 0x4 DUP3 DUP3 PUSH1 0x18 DUP2 LT PUSH3 0x253 JUMPI INVALID JUMPDEST PUSH1 0x20 MUL ADD MLOAD SWAP1 DUP1 PUSH1 0x1 DUP2 PUSH3 0x267 PUSH3 0x597 JUMP JUMPDEST ADD DUP1 DUP3 PUSH3 0x274 PUSH3 0x5F9 JUMP JUMPDEST POP POP PUSH1 0x0 SWAP3 DUP4 MSTORE SWAP2 PUSH1 0x0 NOT DUP4 ADD SWAP2 POP PUSH1 0x20 SWAP1 KECCAK256 SWAP2 SWAP3 SWAP2 ADD PUSH3 0x295 PUSH3 0x5F9 JUMP JUMPDEST POP POP POP PUSH3 0x2A4 JUMP JUMPDEST PUSH3 0x2AD JUMP JUMPDEST PUSH1 0x1 ADD PUSH3 0x220 JUMP JUMPDEST POP DUP2 PUSH1 0x2 PUSH1 0x1 DUP2 PUSH3 0x2BE PUSH3 0x597 JUMP JUMPDEST DUP2 PUSH1 0x1 PUSH1 0x1 PUSH1 0xA0 SHL SUB MUL NOT AND SWAP1 DUP4 PUSH1 0x1 PUSH1 0x1 PUSH1 0xA0 SHL SUB AND MUL OR SWAP1 PUSH3 0x2E2 PUSH3 0x5F9 JUMP JUMPDEST POP POP POP POP POP PUSH3 0x30A PUSH15 0x466C657869626C6553746F72616765 PUSH1 0x88 SHL PUSH3 0x312 PUSH1 0x20 SHL PUSH1 0x20 SHR JUMP JUMPDEST POP POP PUSH3 0x77F JUMP JUMPDEST DUP1 PUSH1 0x4 DUP1 PUSH1 0x1 DUP2 PUSH3 0x323 PUSH3 0x597 JUMP JUMPDEST ADD DUP1 DUP3 PUSH3 0x330 PUSH3 0x5F9 JUMP JUMPDEST POP POP PUSH1 0x0 SWAP3 DUP4 MSTORE SWAP2 PUSH1 0x0 NOT DUP4 ADD SWAP2 POP PUSH1 0x20 SWAP1 KECCAK256 SWAP2 SWAP3 SWAP2 ADD PUSH3 0x351 PUSH3 0x5F9 JUMP JUMPDEST POP POP POP PUSH1 0x18 PUSH1 0x4 DUP1 PUSH3 0x363 PUSH3 0x597 JUMP JUMPDEST SWAP1 POP LT PUSH3 0x3C2 JUMPI PUSH1 0x40 MLOAD PUSH3 0x461BCD PUSH1 0xE5 SHL DUP2 MSTORE PUSH1 0x20 PUSH1 0x4 DUP3 ADD MSTORE PUSH1 0x1B PUSH1 0x24 DUP3 ADD MSTORE PUSH32 0x4D6178207265736F6C7665722063616368652073697A65206D65740000000000 PUSH1 0x44 DUP3 ADD MSTORE PUSH1 0x64 ADD PUSH1 0x40 MLOAD DUP1 SWAP2 SUB SWAP1 PUSH3 0x3BF PUSH3 0x52A JUMP JUMPDEST POP POP JUMPDEST PUSH1 0x0 PUSH1 0x2 PUSH3 0x3D0 PUSH3 0x597 JUMP JUMPDEST SWAP1 PUSH2 0x100 EXP SWAP1 DIV PUSH1 0x1 PUSH1 0x1 PUSH1 0xA0 SHL SUB AND PUSH1 0x1 PUSH1 0x1 PUSH1 0xA0 SHL SUB AND PUSH4 0x21F8A721 DUP3 PUSH1 0x40 MLOAD PUSH1 0x1 PUSH1 0x1 PUSH1 0xE0 SHL SUB NOT PUSH1 0xE0 DUP5 SWAP1 SHL AND DUP2 MSTORE PUSH1 0x4 DUP2 ADD SWAP2 SWAP1 SWAP2 MSTORE PUSH1 0x24 ADD PUSH1 0x20 PUSH1 0x40 MLOAD DUP1 DUP4 SUB DUP2 DUP7 DUP1 PUSH3 0x423 PUSH3 0x648 JUMP JUMPDEST ISZERO DUP1 ISZERO PUSH3 0x43B JUMPI PUSH1 0x0 DUP1 PUSH3 0x438 PUSH3 0x52A JUMP JUMPDEST POP POP JUMPDEST POP GAS PUSH3 0x447 PUSH3 0x695 JUMP JUMPDEST POP POP POP POP POP ISZERO DUP1 ISZERO PUSH3 0x469 JUMPI RETURNDATASIZE PUSH1 0x0 DUP1 RETURNDATACOPY RETURNDATASIZE PUSH1 0x0 PUSH3 0x466 PUSH3 0x52A JUMP JUMPDEST POP POP JUMPDEST POP POP POP POP PUSH1 0x40 MLOAD RETURNDATASIZE PUSH1 0x20 DUP2 LT ISZERO PUSH3 0x48B JUMPI PUSH1 0x0 DUP1 PUSH3 0x488 PUSH3 0x52A JUMP JUMPDEST POP POP JUMPDEST DUP2 ADD SWAP1 DUP1 DUP1 MLOAD PUSH1 0x0 DUP6 DUP2 MSTORE PUSH1 0x3 PUSH1 0x20 MSTORE SWAP1 SWAP4 POP PUSH1 0x40 SWAP3 POP SWAP1 POP KECCAK256 PUSH1 0x1 DUP2 PUSH3 0x4B2 PUSH3 0x597 JUMP JUMPDEST DUP2 PUSH1 0x1 PUSH1 0x1 PUSH1 0xA0 SHL SUB MUL NOT AND SWAP1 DUP4 PUSH1 0x1 PUSH1 0x1 PUSH1 0xA0 SHL SUB AND MUL OR SWAP1 PUSH3 0x4D6 PUSH3 0x5F9 JUMP JUMPDEST POP POP POP POP JUMP JUMPDEST DUP3 PUSH1 0x18 DUP2 ADD SWAP3 DUP3 ISZERO PUSH3 0x518 JUMPI SWAP2 PUSH1 0x20 MUL DUP3 ADD JUMPDEST DUP3 DUP2 GT ISZERO PUSH3 0x518 JUMPI DUP3 MLOAD DUP3 PUSH3 0x506 PUSH3 0x5F9 JUMP JUMPDEST POP POP SWAP2 PUSH1 0x20 ADD SWAP2 SWAP1 PUSH1 0x1 ADD SWAP1 PUSH3 0x4F0 JUMP JUMPDEST POP PUSH3 0x526 SWAP3 SWAP2 POP PUSH3 0x752 JUMP JUMPDEST POP SWAP1 JUMP JUMPDEST PUSH4 0x2A2A7ADB MSIZE DUP2 PUSH1 0xE0 SHL DUP2 MSTORE PUSH1 0x4 DUP2 ADD PUSH1 0x20 DUP2 MSTORE DUP6 PUSH1 0x20 DUP3 ADD MSTORE PUSH1 0x0 JUMPDEST DUP7 DUP2 LT ISZERO PUSH3 0x564 JUMPI DUP1 DUP7 ADD MLOAD DUP3 DUP3 ADD PUSH1 0x40 ADD MSTORE PUSH1 0x20 ADD PUSH3 0x547 JUMP JUMPDEST POP PUSH1 0x20 DUP3 DUP8 PUSH1 0x64 ADD DUP5 CALLER PUSH1 0x0 SWAP1 GAS CALL PC PUSH1 0xE ADD JUMPI RETURNDATASIZE PUSH1 0x0 DUP1 RETURNDATACOPY RETURNDATASIZE PUSH1 0x0 REVERT JUMPDEST RETURNDATASIZE PUSH1 0x1 EQ ISZERO PC PUSH1 0xA ADD JUMPI PUSH1 0x1 PUSH1 0x0 RETURN JUMPDEST POP POP POP JUMP JUMPDEST PUSH4 0x3DAA959 MSIZE DUP2 PUSH1 0xE0 SHL DUP2 MSTORE DUP4 PUSH1 0x4 DUP3 ADD MSTORE PUSH1 0x20 DUP2 PUSH1 0x24 DUP4 CALLER PUSH1 0x0 SWAP1 GAS CALL PC PUSH1 0xE ADD JUMPI RETURNDATASIZE PUSH1 0x0 DUP1 RETURNDATACOPY RETURNDATASIZE PUSH1 0x0 REVERT JUMPDEST RETURNDATASIZE PUSH1 0x1 EQ ISZERO PC PUSH1 0xA ADD JUMPI PUSH1 0x1 PUSH1 0x0 RETURN JUMPDEST DUP1 MLOAD SWAP4 POP PUSH1 0x0 JUMPDEST PUSH1 0x40 DUP2 LT ISZERO PUSH3 0x5F4 JUMPI PUSH1 0x0 DUP3 DUP3 ADD MSTORE PUSH1 0x20 ADD PUSH3 0x5DB JUMP JUMPDEST POP POP POP JUMP JUMPDEST PUSH4 0x22BD64C0 MSIZE DUP2 PUSH1 0xE0 SHL DUP2 MSTORE DUP4 PUSH1 0x4 DUP3 ADD MSTORE DUP5 PUSH1 0x24 DUP3 ADD MSTORE PUSH1 0x0 DUP2 PUSH1 0x44 DUP4 CALLER PUSH1 0x0 SWAP1 GAS CALL PC PUSH1 0xE ADD JUMPI RETURNDATASIZE PUSH1 0x0 DUP1 RETURNDATACOPY RETURNDATASIZE PUSH1 0x0 REVERT JUMPDEST RETURNDATASIZE PUSH1 0x1 EQ ISZERO PC PUSH1 0xA ADD JUMPI PUSH1 0x1 PUSH1 0x0 RETURN JUMPDEST PUSH1 0x0 DUP2 MSTORE PUSH1 0x20 PUSH3 0x5DB JUMP JUMPDEST PUSH4 0x8435035B MSIZE DUP2 PUSH1 0xE0 SHL DUP2 MSTORE DUP4 PUSH1 0x4 DUP3 ADD MSTORE PUSH1 0x20 DUP2 PUSH1 0x24 DUP4 CALLER PUSH1 0x0 SWAP1 GAS CALL PC PUSH1 0xE ADD JUMPI RETURNDATASIZE PUSH1 0x0 DUP1 RETURNDATACOPY RETURNDATASIZE PUSH1 0x0 REVERT JUMPDEST RETURNDATASIZE PUSH1 0x1 EQ ISZERO PC PUSH1 0xA ADD JUMPI PUSH1 0x1 PUSH1 0x0 RETURN JUMPDEST DUP1 MLOAD PUSH1 0x0 DUP3 MSTORE SWAP4 POP PUSH1 0x20 PUSH3 0x5DB JUMP JUMPDEST PUSH4 0x8540661F MSIZE DUP2 PUSH1 0xE0 SHL DUP2 MSTORE DUP4 PUSH1 0x4 DUP3 ADD MSTORE DUP5 PUSH1 0x24 DUP3 ADD MSTORE PUSH1 0x60 PUSH1 0x44 DUP3 ADD MSTORE DUP7 PUSH1 0x64 DUP3 ADD MSTORE PUSH1 0x84 DUP2 ADD PUSH1 0x0 JUMPDEST DUP9 DUP2 LT ISZERO PUSH3 0x6DB JUMPI DUP1 DUP9 ADD MLOAD DUP3 DUP3 ADD MSTORE PUSH1 0x20 ADD PUSH3 0x6C1 JUMP JUMPDEST POP DUP8 PUSH2 0x104 ADD DUP3 ADD PUSH1 0x60 DUP4 DUP11 PUSH2 0x104 ADD DUP6 CALLER PUSH1 0x0 SWAP1 GAS CALL PC PUSH1 0xE ADD JUMPI RETURNDATASIZE PUSH1 0x0 DUP1 RETURNDATACOPY RETURNDATASIZE PUSH1 0x0 REVERT JUMPDEST RETURNDATASIZE PUSH1 0x1 EQ ISZERO PC PUSH1 0xA ADD JUMPI PUSH1 0x1 PUSH1 0x0 RETURN JUMPDEST DUP3 MLOAD PUSH1 0x40 DUP5 ADD MLOAD RETURNDATASIZE PUSH1 0x0 DUP7 RETURNDATACOPY DUP13 DUP13 DUP3 PUSH1 0x60 DUP9 ADD CALLER POP PUSH1 0x0 PUSH1 0x4 GAS CALL POP MSIZE DUP6 JUMPDEST DUP2 DUP2 LT ISZERO PUSH3 0x746 JUMPI PUSH1 0x0 DUP2 MSTORE PUSH1 0x20 ADD PUSH3 0x730 JUMP JUMPDEST POP SWAP2 SWAP13 POP POP POP POP POP POP POP JUMP JUMPDEST PUSH3 0x77C SWAP2 SWAP1 JUMPDEST DUP1 DUP3 GT ISZERO PUSH3 0x526 JUMPI PUSH1 0x0 DUP1 DUP3 PUSH3 0x770 PUSH3 0x5F9 JUMP JUMPDEST POP POP POP PUSH1 0x1 ADD PUSH3 0x759 JUMP JUMPDEST SWAP1 JUMP JUMPDEST PUSH2 0x355F DUP1 PUSH3 0x78F PUSH1 0x0 CODECOPY PUSH1 0x0 RETURN INVALID PUSH1 0x80 PUSH1 0x40 MSTORE CALLVALUE DUP1 ISZERO PUSH2 0x19 JUMPI PUSH1 0x0 DUP1 PUSH2 0x16 PUSH2 0x308D JUMP JUMPDEST POP POP JUMPDEST POP PUSH1 0x4 CALLDATASIZE LT PUSH2 0x2FA JUMPI PUSH1 0x0 CALLDATALOAD PUSH1 0xE0 SHR DUP1 PUSH4 0x635A3872 GT PUSH2 0x1A6 JUMPI DUP1 PUSH4 0xAF5355D8 GT PUSH2 0xF2 JUMPI DUP1 PUSH4 0xD62AE399 GT PUSH2 0xAB JUMPI DUP1 PUSH4 0xE9422046 GT PUSH2 0x85 JUMPI DUP1 PUSH4 0xE9422046 EQ PUSH2 0x828 JUMPI DUP1 PUSH4 0xF1076B25 EQ PUSH2 0x84E JUMPI DUP1 PUSH4 0xF344DA67 EQ PUSH2 0x856 JUMPI DUP1 PUSH4 0xFB1B4C7E EQ PUSH2 0x85E JUMPI PUSH2 0x2FA JUMP JUMPDEST DUP1 PUSH4 0xD62AE399 EQ PUSH2 0x7CA JUMPI DUP1 PUSH4 0xE0E6393D EQ PUSH2 0x818 JUMPI DUP1 PUSH4 0xE3235C91 EQ PUSH2 0x820 JUMPI PUSH2 0x2FA JUMP JUMPDEST DUP1 PUSH4 0xAF5355D8 EQ PUSH2 0x7D2 JUMPI DUP1 PUSH4 0xAF8BC660 EQ PUSH2 0x7DA JUMPI DUP1 PUSH4 0xB2EA7054 EQ PUSH2 0x6B8 JUMPI DUP1 PUSH4 0xB410A034 EQ PUSH2 0x7E2 JUMPI DUP1 PUSH4 0xC193F0D8 EQ PUSH2 0x7EA JUMPI DUP1 PUSH4 0xC6C9D828 EQ PUSH2 0x7F2 JUMPI PUSH2 0x2FA JUMP JUMPDEST DUP1 PUSH4 0x8DA5CB5B GT PUSH2 0x15F JUMPI DUP1 PUSH4 0xA0CF7451 GT PUSH2 0x139 JUMPI DUP1 PUSH4 0xA0CF7451 EQ PUSH2 0x779 JUMPI DUP1 PUSH4 0xA4CE5B71 EQ PUSH2 0x781 JUMPI DUP1 PUSH4 0xAB49848C EQ PUSH2 0x789 JUMPI DUP1 PUSH4 0xADD0989D EQ PUSH2 0x7CA JUMPI PUSH2 0x2FA JUMP JUMPDEST DUP1 PUSH4 0x8DA5CB5B EQ PUSH2 0x725 JUMPI DUP1 PUSH4 0x946CE8CD EQ PUSH2 0x72D JUMPI DUP1 PUSH4 0x967706E9 EQ PUSH2 0x753 JUMPI PUSH2 0x2FA JUMP JUMPDEST DUP1 PUSH4 0x635A3872 EQ PUSH2 0x692 JUMPI DUP1 PUSH4 0x657C6DC7 EQ PUSH2 0x6B8 JUMPI DUP1 PUSH4 0x79BA5097 EQ PUSH2 0x6C0 JUMPI DUP1 PUSH4 0x79CB657A EQ PUSH2 0x6C8 JUMPI DUP1 PUSH4 0x7BF82305 EQ PUSH2 0x6EE JUMPI DUP1 PUSH4 0x89257117 EQ PUSH2 0x71D JUMPI PUSH2 0x2FA JUMP JUMPDEST DUP1 PUSH4 0x28A1170D GT PUSH2 0x265 JUMPI DUP1 PUSH4 0x53A47BB7 GT PUSH2 0x21E JUMPI DUP1 PUSH4 0x580A975C GT PUSH2 0x1F8 JUMPI DUP1 PUSH4 0x580A975C EQ PUSH2 0x5FB JUMPI DUP1 PUSH4 0x5E0117D6 EQ PUSH2 0x603 JUMPI DUP1 PUSH4 0x6190DD7A EQ PUSH2 0x629 JUMPI DUP1 PUSH4 0x631E1444 EQ PUSH2 0x64F JUMPI PUSH2 0x2FA JUMP JUMPDEST DUP1 PUSH4 0x53A47BB7 EQ PUSH2 0x5C5 JUMPI DUP1 PUSH4 0x54B302C5 EQ PUSH2 0x5CD JUMPI DUP1 PUSH4 0x57B154D5 EQ PUSH2 0x5D5 JUMPI PUSH2 0x2FA JUMP JUMPDEST DUP1 PUSH4 0x28A1170D EQ PUSH2 0x437 JUMPI DUP1 PUSH4 0x2CCE0E54 EQ PUSH2 0x538 JUMPI DUP1 PUSH4 0x372A395A EQ PUSH2 0x55E JUMPI DUP1 PUSH4 0x3BE99E6F EQ PUSH2 0x566 JUMPI DUP1 PUSH4 0x4641AB66 EQ PUSH2 0x595 JUMPI DUP1 PUSH4 0x4C36B837 EQ PUSH2 0x5BD JUMPI PUSH2 0x2FA JUMP JUMPDEST DUP1 PUSH4 0x1775765F GT PUSH2 0x2B7 JUMPI DUP1 PUSH4 0x1775765F EQ PUSH2 0x3CB JUMPI DUP1 PUSH4 0x1E6E2190 EQ PUSH2 0x3D3 JUMPI DUP1 PUSH4 0x22425FA4 EQ PUSH2 0x3F9 JUMPI DUP1 PUSH4 0x23F5589A EQ PUSH2 0x401 JUMPI DUP1 PUSH4 0x242DF9E1 EQ PUSH2 0x409 JUMPI DUP1 PUSH4 0x2806A743 EQ PUSH2 0x411 JUMPI PUSH2 0x2FA JUMP JUMPDEST DUP1 PUSH4 0x4C49F2C EQ PUSH2 0x308 JUMPI DUP1 PUSH4 0x4F3BCEC EQ PUSH2 0x330 JUMPI DUP1 PUSH4 0x54BE0B7 EQ PUSH2 0x354 JUMPI DUP1 PUSH4 0x85F95CD EQ PUSH2 0x37A JUMPI DUP1 PUSH4 0xEE4951B EQ PUSH2 0x394 JUMPI DUP1 PUSH4 0x1627540C EQ PUSH2 0x39C JUMPI JUMPDEST PUSH1 0x0 DUP1 PUSH2 0x305 PUSH2 0x308D JUMP JUMPDEST POP POP JUMPDEST PUSH2 0x32E PUSH1 0x4 DUP1 CALLDATASIZE SUB PUSH1 0x20 DUP2 LT ISZERO PUSH2 0x327 JUMPI PUSH1 0x0 DUP1 PUSH2 0x324 PUSH2 0x308D JUMP JUMPDEST POP POP JUMPDEST POP CALLDATALOAD PUSH2 0x866 JUMP JUMPDEST STOP JUMPDEST PUSH2 0x338 PUSH2 0xA23 JUMP JUMPDEST PUSH1 0x40 MLOAD PUSH1 0x1 PUSH1 0x1 PUSH1 0xA0 SHL SUB SWAP1 SWAP2 AND DUP2 MSTORE PUSH1 0x20 ADD PUSH1 0x40 MLOAD DUP1 SWAP2 SUB SWAP1 RETURN JUMPDEST PUSH2 0x32E PUSH1 0x4 DUP1 CALLDATASIZE SUB PUSH1 0x20 DUP2 LT ISZERO PUSH2 0x373 JUMPI PUSH1 0x0 DUP1 PUSH2 0x370 PUSH2 0x308D JUMP JUMPDEST POP POP JUMPDEST POP CALLDATALOAD PUSH2 0xA42 JUMP JUMPDEST PUSH2 0x382 PUSH2 0xB8B JUMP JUMPDEST PUSH1 0x40 MLOAD SWAP1 DUP2 MSTORE PUSH1 0x20 ADD PUSH1 0x40 MLOAD DUP1 SWAP2 SUB SWAP1 RETURN JUMPDEST PUSH2 0x382 PUSH2 0xB97 JUMP JUMPDEST PUSH2 0x32E PUSH1 0x4 DUP1 CALLDATASIZE SUB PUSH1 0x20 DUP2 LT ISZERO PUSH2 0x3BB JUMPI PUSH1 0x0 DUP1 PUSH2 0x3B8 PUSH2 0x308D JUMP JUMPDEST POP POP JUMPDEST POP CALLDATALOAD PUSH1 0x1 PUSH1 0x1 PUSH1 0xA0 SHL SUB AND PUSH2 0xBA6 JUMP JUMPDEST PUSH2 0x382 PUSH2 0xC20 JUMP JUMPDEST PUSH2 0x32E PUSH1 0x4 DUP1 CALLDATASIZE SUB PUSH1 0x20 DUP2 LT ISZERO PUSH2 0x3F2 JUMPI PUSH1 0x0 DUP1 PUSH2 0x3EF PUSH2 0x308D JUMP JUMPDEST POP POP JUMPDEST POP CALLDATALOAD PUSH2 0xC2A JUMP JUMPDEST PUSH2 0x382 PUSH2 0xD33 JUMP JUMPDEST PUSH2 0x382 PUSH2 0xD3D JUMP JUMPDEST PUSH2 0x382 PUSH2 0xD47 JUMP JUMPDEST PUSH2 0x32E PUSH1 0x4 DUP1 CALLDATASIZE SUB PUSH1 0x20 DUP2 LT ISZERO PUSH2 0x430 JUMPI PUSH1 0x0 DUP1 PUSH2 0x42D PUSH2 0x308D JUMP JUMPDEST POP POP JUMPDEST POP CALLDATALOAD PUSH2 0xD51 JUMP JUMPDEST PUSH2 0x32E PUSH1 0x4 DUP1 CALLDATASIZE SUB PUSH1 0x40 DUP2 LT ISZERO PUSH2 0x456 JUMPI PUSH1 0x0 DUP1 PUSH2 0x453 PUSH2 0x308D JUMP JUMPDEST POP POP JUMPDEST DUP2 ADD SWAP1 PUSH1 0x20 DUP2 ADD DUP2 CALLDATALOAD PUSH5 0x100000000 DUP2 GT ISZERO PUSH2 0x47A JUMPI PUSH1 0x0 DUP1 PUSH2 0x477 PUSH2 0x308D JUMP JUMPDEST POP POP JUMPDEST DUP3 ADD DUP4 PUSH1 0x20 DUP3 ADD GT ISZERO PUSH2 0x495 JUMPI PUSH1 0x0 DUP1 PUSH2 0x492 PUSH2 0x308D JUMP JUMPDEST POP POP JUMPDEST DUP1 CALLDATALOAD SWAP1 PUSH1 0x20 ADD SWAP2 DUP5 PUSH1 0x20 DUP4 MUL DUP5 ADD GT PUSH5 0x100000000 DUP4 GT OR ISZERO PUSH2 0x4C0 JUMPI PUSH1 0x0 DUP1 PUSH2 0x4BD PUSH2 0x308D JUMP JUMPDEST POP POP JUMPDEST SWAP2 SWAP4 SWAP1 SWAP3 SWAP1 SWAP2 PUSH1 0x20 DUP2 ADD SWAP1 CALLDATALOAD PUSH5 0x100000000 DUP2 GT ISZERO PUSH2 0x4E7 JUMPI PUSH1 0x0 DUP1 PUSH2 0x4E4 PUSH2 0x308D JUMP JUMPDEST POP POP JUMPDEST DUP3 ADD DUP4 PUSH1 0x20 DUP3 ADD GT ISZERO PUSH2 0x502 JUMPI PUSH1 0x0 DUP1 PUSH2 0x4FF PUSH2 0x308D JUMP JUMPDEST POP POP JUMPDEST DUP1 CALLDATALOAD SWAP1 PUSH1 0x20 ADD SWAP2 DUP5 PUSH1 0x20 DUP4 MUL DUP5 ADD GT PUSH5 0x100000000 DUP4 GT OR ISZERO PUSH2 0x52D JUMPI PUSH1 0x0 DUP1 PUSH2 0x52A PUSH2 0x308D JUMP JUMPDEST POP POP JUMPDEST POP SWAP1 SWAP3 POP SWAP1 POP PUSH2 0xE9F JUMP JUMPDEST PUSH2 0x32E PUSH1 0x4 DUP1 CALLDATASIZE SUB PUSH1 0x20 DUP2 LT ISZERO PUSH2 0x557 JUMPI PUSH1 0x0 DUP1 PUSH2 0x554 PUSH2 0x308D JUMP JUMPDEST POP POP JUMPDEST POP CALLDATALOAD PUSH2 0x1101 JUMP JUMPDEST PUSH2 0x382 PUSH2 0x131B JUMP JUMPDEST PUSH2 0x32E PUSH1 0x4 DUP1 CALLDATASIZE SUB PUSH1 0x20 DUP2 LT ISZERO PUSH2 0x585 JUMPI PUSH1 0x0 DUP1 PUSH2 0x582 PUSH2 0x308D JUMP JUMPDEST POP POP JUMPDEST POP CALLDATALOAD PUSH1 0x1 PUSH1 0x1 PUSH1 0xA0 SHL SUB AND PUSH2 0x1325 JUMP JUMPDEST PUSH2 0x32E PUSH1 0x4 DUP1 CALLDATASIZE SUB PUSH1 0x20 DUP2 LT ISZERO PUSH2 0x5B4 JUMPI PUSH1 0x0 DUP1 PUSH2 0x5B1 PUSH2 0x308D JUMP JUMPDEST POP POP JUMPDEST POP CALLDATALOAD ISZERO ISZERO PUSH2 0x14EF JUMP JUMPDEST PUSH2 0x338 PUSH2 0x15F4 JUMP JUMPDEST PUSH2 0x338 PUSH2 0x15FE JUMP JUMPDEST PUSH2 0x382 PUSH2 0x160A JUMP JUMPDEST PUSH2 0x32E PUSH1 0x4 DUP1 CALLDATASIZE SUB PUSH1 0x20 DUP2 LT ISZERO PUSH2 0x5F4 JUMPI PUSH1 0x0 DUP1 PUSH2 0x5F1 PUSH2 0x308D JUMP JUMPDEST POP POP JUMPDEST POP CALLDATALOAD PUSH2 0x1614 JUMP JUMPDEST PUSH2 0x382 PUSH2 0x170E JUMP JUMPDEST PUSH2 0x32E PUSH1 0x4 DUP1 CALLDATASIZE SUB PUSH1 0x20 DUP2 LT ISZERO PUSH2 0x622 JUMPI PUSH1 0x0 DUP1 PUSH2 0x61F PUSH2 0x308D JUMP JUMPDEST POP POP JUMPDEST POP CALLDATALOAD PUSH2 0x1715 JUMP JUMPDEST PUSH2 0x32E PUSH1 0x4 DUP1 CALLDATASIZE SUB PUSH1 0x20 DUP2 LT ISZERO PUSH2 0x648 JUMPI PUSH1 0x0 DUP1 PUSH2 0x645 PUSH2 0x308D JUMP JUMPDEST POP POP JUMPDEST POP CALLDATALOAD PUSH2 0x18D1 JUMP JUMPDEST PUSH2 0x67E PUSH1 0x4 DUP1 CALLDATASIZE SUB PUSH1 0x20 DUP2 LT ISZERO PUSH2 0x66E JUMPI PUSH1 0x0 DUP1 PUSH2 0x66B PUSH2 0x308D JUMP JUMPDEST POP POP JUMPDEST POP CALLDATALOAD PUSH1 0x1 PUSH1 0x1 PUSH1 0xA0 SHL SUB AND PUSH2 0x19D2 JUMP JUMPDEST PUSH1 0x40 MLOAD SWAP1 ISZERO ISZERO DUP2 MSTORE PUSH1 0x20 ADD PUSH1 0x40 MLOAD DUP1 SWAP2 SUB SWAP1 RETURN JUMPDEST PUSH2 0x32E PUSH1 0x4 DUP1 CALLDATASIZE SUB PUSH1 0x20 DUP2 LT ISZERO PUSH2 0x6B1 JUMPI PUSH1 0x0 DUP1 PUSH2 0x6AE PUSH2 0x308D JUMP JUMPDEST POP POP JUMPDEST POP CALLDATALOAD PUSH2 0x1BAE JUMP JUMPDEST PUSH2 0x382 PUSH2 0x1CAB JUMP JUMPDEST PUSH2 0x32E PUSH2 0x1CB7 JUMP JUMPDEST PUSH2 0x32E PUSH1 0x4 DUP1 CALLDATASIZE SUB PUSH1 0x20 DUP2 LT ISZERO PUSH2 0x6E7 JUMPI PUSH1 0x0 DUP1 PUSH2 0x6E4 PUSH2 0x308D JUMP JUMPDEST POP POP JUMPDEST POP CALLDATALOAD PUSH2 0x1E3A JUMP JUMPDEST PUSH2 0x32E PUSH1 0x4 DUP1 CALLDATASIZE SUB PUSH1 0x20 DUP2 LT ISZERO PUSH2 0x70D JUMPI PUSH1 0x0 DUP1 PUSH2 0x70A PUSH2 0x308D JUMP JUMPDEST POP POP JUMPDEST POP CALLDATALOAD PUSH1 0x1 PUSH1 0x1 PUSH1 0xA0 SHL SUB AND PUSH2 0x1F35 JUMP JUMPDEST PUSH2 0x382 PUSH2 0x20AD JUMP JUMPDEST PUSH2 0x338 PUSH2 0x20B7 JUMP JUMPDEST PUSH2 0x32E PUSH1 0x4 DUP1 CALLDATASIZE SUB PUSH1 0x20 DUP2 LT ISZERO PUSH2 0x74C JUMPI PUSH1 0x0 DUP1 PUSH2 0x749 PUSH2 0x308D JUMP JUMPDEST POP POP JUMPDEST POP CALLDATALOAD PUSH2 0x20C2 JUMP JUMPDEST PUSH2 0x382 PUSH1 0x4 DUP1 CALLDATASIZE SUB PUSH1 0x20 DUP2 LT ISZERO PUSH2 0x772 JUMPI PUSH1 0x0 DUP1 PUSH2 0x76F PUSH2 0x308D JUMP JUMPDEST POP POP JUMPDEST POP CALLDATALOAD PUSH2 0x2348 JUMP JUMPDEST PUSH2 0x382 PUSH2 0x2359 JUMP JUMPDEST PUSH2 0x382 PUSH2 0x2363 JUMP JUMPDEST PUSH2 0x791 PUSH2 0x236F JUMP JUMPDEST PUSH1 0x40 MLOAD DUP1 DUP3 PUSH2 0x300 DUP1 DUP4 DUP4 PUSH1 0x0 JUMPDEST DUP4 DUP2 LT ISZERO PUSH2 0x7B7 JUMPI DUP1 DUP3 ADD MLOAD DUP4 DUP3 ADD MSTORE PUSH1 0x20 ADD PUSH2 0x79F JUMP JUMPDEST POP POP POP POP SWAP1 POP ADD SWAP2 POP POP PUSH1 0x40 MLOAD DUP1 SWAP2 SUB SWAP1 RETURN JUMPDEST PUSH2 0x382 PUSH2 0x23D1 JUMP JUMPDEST PUSH2 0x382 PUSH2 0x23D8 JUMP JUMPDEST PUSH2 0x382 PUSH2 0x23E2 JUMP JUMPDEST PUSH2 0x382 PUSH2 0x23E7 JUMP JUMPDEST PUSH2 0x67E PUSH2 0x23F1 JUMP JUMPDEST PUSH2 0x382 PUSH1 0x4 DUP1 CALLDATASIZE SUB PUSH1 0x20 DUP2 LT ISZERO PUSH2 0x811 JUMPI PUSH1 0x0 DUP1 PUSH2 0x80E PUSH2 0x308D JUMP JUMPDEST POP POP JUMPDEST POP CALLDATALOAD PUSH2 0x23FB JUMP JUMPDEST PUSH2 0x382 PUSH2 0x2426 JUMP JUMPDEST PUSH2 0x382 PUSH2 0x2430 JUMP JUMPDEST PUSH2 0x32E PUSH1 0x4 DUP1 CALLDATASIZE SUB PUSH1 0x20 DUP2 LT ISZERO PUSH2 0x847 JUMPI PUSH1 0x0 DUP1 PUSH2 0x844 PUSH2 0x308D JUMP JUMPDEST POP POP JUMPDEST POP CALLDATALOAD PUSH2 0x2435 JUMP JUMPDEST PUSH2 0x382 PUSH2 0x2591 JUMP JUMPDEST PUSH2 0x382 PUSH2 0x2598 JUMP JUMPDEST PUSH2 0x382 PUSH2 0x259F JUMP JUMPDEST PUSH2 0x86E PUSH2 0x25AB JUMP JUMPDEST PUSH3 0x15180 DUP2 LT ISZERO PUSH2 0x8CE JUMPI PUSH1 0x40 MLOAD PUSH3 0x461BCD PUSH1 0xE5 SHL DUP2 MSTORE PUSH1 0x20 PUSH1 0x4 DUP3 ADD MSTORE PUSH1 0x1F PUSH1 0x24 DUP3 ADD MSTORE PUSH32 0x76616C7565203C204D494E5F4645455F504552494F445F4455524154494F4E00 PUSH1 0x44 DUP3 ADD MSTORE PUSH1 0x64 ADD PUSH1 0x40 MLOAD DUP1 SWAP2 SUB SWAP1 PUSH2 0x8CB PUSH2 0x308D JUMP JUMPDEST POP POP JUMPDEST PUSH3 0x4F1A00 DUP2 GT ISZERO PUSH2 0x92E JUMPI PUSH1 0x40 MLOAD PUSH3 0x461BCD PUSH1 0xE5 SHL DUP2 MSTORE PUSH1 0x20 PUSH1 0x4 DUP3 ADD MSTORE PUSH1 0x1F PUSH1 0x24 DUP3 ADD MSTORE PUSH32 0x76616C7565203E204D41585F4645455F504552494F445F4455524154494F4E00 PUSH1 0x44 DUP3 ADD MSTORE PUSH1 0x64 ADD PUSH1 0x40 MLOAD DUP1 SWAP2 SUB SWAP1 PUSH2 0x92B PUSH2 0x308D JUMP JUMPDEST POP POP JUMPDEST PUSH2 0x936 PUSH2 0x2625 JUMP JUMPDEST PUSH1 0x1 PUSH1 0x1 PUSH1 0xA0 SHL SUB AND PUSH4 0x1D5B277F PUSH1 0x0 DUP1 MLOAD PUSH1 0x20 PUSH2 0x34E4 DUP4 CODECOPY DUP2 MLOAD SWAP2 MSTORE PUSH17 0x3332B2A832B934B7B2223AB930BA34B7B7 PUSH1 0x79 SHL DUP5 PUSH1 0x40 MLOAD PUSH1 0x1 PUSH1 0x1 PUSH1 0xE0 SHL SUB NOT PUSH1 0xE0 DUP7 SWAP1 SHL AND DUP2 MSTORE PUSH1 0x4 DUP2 ADD SWAP4 SWAP1 SWAP4 MSTORE PUSH1 0x24 DUP4 ADD SWAP2 SWAP1 SWAP2 MSTORE PUSH1 0x44 DUP3 ADD MSTORE PUSH1 0x64 ADD PUSH1 0x0 PUSH1 0x40 MLOAD DUP1 DUP4 SUB DUP2 PUSH1 0x0 DUP8 DUP1 PUSH2 0x9AA PUSH2 0x30F8 JUMP JUMPDEST ISZERO DUP1 ISZERO PUSH2 0x9BF JUMPI PUSH1 0x0 DUP1 PUSH2 0x9BC PUSH2 0x308D JUMP JUMPDEST POP POP JUMPDEST POP GAS PUSH2 0x9C9 PUSH2 0x3153 JUMP JUMPDEST POP POP POP POP POP POP ISZERO DUP1 ISZERO PUSH2 0x9E9 JUMPI RETURNDATASIZE PUSH1 0x0 DUP1 RETURNDATACOPY RETURNDATASIZE PUSH1 0x0 PUSH2 0x9E6 PUSH2 0x308D JUMP JUMPDEST POP POP JUMPDEST POP POP POP POP PUSH32 0x791BD58DD9719B5EB5CCDD6EC4D5C459B0AB8EFCF59B723CF477693C0889EACD DUP2 PUSH1 0x40 MLOAD SWAP1 DUP2 MSTORE PUSH1 0x20 ADD PUSH1 0x40 MLOAD DUP1 SWAP2 SUB SWAP1 LOG1 POP JUMP JUMPDEST PUSH1 0x0 PUSH1 0x2 PUSH2 0xA2F PUSH2 0x320C JUMP JUMPDEST SWAP1 PUSH2 0x100 EXP SWAP1 DIV PUSH1 0x1 PUSH1 0x1 PUSH1 0xA0 SHL SUB AND DUP2 JUMP JUMPDEST PUSH2 0xA4A PUSH2 0x25AB JUMP JUMPDEST PUSH8 0xDE0B6B3A7640000 DUP2 GT ISZERO PUSH2 0xA9A JUMPI PUSH1 0x40 MLOAD PUSH3 0x461BCD PUSH1 0xE5 SHL DUP2 MSTORE PUSH1 0x4 ADD DUP1 DUP1 PUSH1 0x20 ADD DUP3 DUP2 SUB DUP3 MSTORE PUSH1 0x33 DUP2 MSTORE PUSH1 0x20 ADD DUP1 PUSH2 0x3504 PUSH1 0x33 SWAP2 CODECOPY PUSH1 0x40 ADD SWAP2 POP POP PUSH1 0x40 MLOAD DUP1 SWAP2 SUB SWAP1 PUSH2 0xA97 PUSH2 0x308D JUMP JUMPDEST POP POP JUMPDEST PUSH2 0xAA2 PUSH2 0x2625 JUMP JUMPDEST PUSH1 0x1 PUSH1 0x1 PUSH1 0xA0 SHL SUB AND PUSH4 0x1D5B277F PUSH1 0x0 DUP1 MLOAD PUSH1 0x20 PUSH2 0x34E4 DUP4 CODECOPY DUP2 MLOAD SWAP2 MSTORE PUSH13 0x69737375616E6365526174696F PUSH1 0x98 SHL DUP5 PUSH1 0x40 MLOAD PUSH1 0x1 PUSH1 0x1 PUSH1 0xE0 SHL SUB NOT PUSH1 0xE0 DUP7 SWAP1 SHL AND DUP2 MSTORE PUSH1 0x4 DUP2 ADD SWAP4 SWAP1 SWAP4 MSTORE PUSH1 0x24 DUP4 ADD SWAP2 SWAP1 SWAP2 MSTORE PUSH1 0x44 DUP3 ADD MSTORE PUSH1 0x64 ADD PUSH1 0x0 PUSH1 0x40 MLOAD DUP1 DUP4 SUB DUP2 PUSH1 0x0 DUP8 DUP1 PUSH2 0xB12 PUSH2 0x30F8 JUMP JUMPDEST ISZERO DUP1 ISZERO PUSH2 0xB27 JUMPI PUSH1 0x0 DUP1 PUSH2 0xB24 PUSH2 0x308D JUMP JUMPDEST POP POP JUMPDEST POP GAS PUSH2 0xB31 PUSH2 0x3153 JUMP JUMPDEST POP POP POP POP POP POP ISZERO DUP1 ISZERO PUSH2 0xB51 JUMPI RETURNDATASIZE PUSH1 0x0 DUP1 RETURNDATACOPY RETURNDATASIZE PUSH1 0x0 PUSH2 0xB4E PUSH2 0x308D JUMP JUMPDEST POP POP JUMPDEST POP POP POP POP PUSH32 0x63B22E09CC3A33E847C063E35F887BD4EA96BC8C0F93F1F8C311E4FA6D885452 DUP2 PUSH1 0x40 MLOAD SWAP1 DUP2 MSTORE PUSH1 0x20 ADD PUSH1 0x40 MLOAD DUP1 SWAP2 SUB SWAP1 LOG1 POP JUMP JUMPDEST PUSH8 0x3782DACE9D90000 DUP2 JUMP JUMPDEST PUSH1 0x0 PUSH2 0xBA1 PUSH2 0x2676 JUMP JUMPDEST SWAP1 POP SWAP1 JUMP JUMPDEST PUSH2 0xBAE PUSH2 0x25AB JUMP JUMPDEST DUP1 PUSH1 0x1 DUP1 DUP1 PUSH2 0xBBB PUSH2 0x320C JUMP JUMPDEST DUP2 PUSH1 0x1 PUSH1 0x1 PUSH1 0xA0 SHL SUB MUL NOT AND SWAP1 DUP4 PUSH1 0x1 PUSH1 0x1 PUSH1 0xA0 SHL SUB AND MUL OR SWAP1 PUSH2 0xBDD PUSH2 0x3258 JUMP JUMPDEST POP POP POP PUSH32 0x906A1C6BD7E3091EA86693DD029A831C19049CE77F1DCE2CE0BAB1CACBABCE22 DUP2 PUSH1 0x40 MLOAD PUSH1 0x1 PUSH1 0x1 PUSH1 0xA0 SHL SUB SWAP1 SWAP2 AND DUP2 MSTORE PUSH1 0x20 ADD PUSH1 0x40 MLOAD DUP1 SWAP2 SUB SWAP1 LOG1 POP JUMP JUMPDEST PUSH1 0x0 PUSH2 0xBA1 PUSH2 0x2752 JUMP JUMPDEST PUSH2 0xC32 PUSH2 0x25AB JUMP JUMPDEST PUSH2 0xC3A PUSH2 0x2625 JUMP JUMPDEST PUSH1 0x1 PUSH1 0x1 PUSH1 0xA0 SHL SUB AND PUSH4 0x1D5B277F PUSH1 0x0 DUP1 MLOAD PUSH1 0x20 PUSH2 0x34E4 DUP4 CODECOPY DUP2 MLOAD SWAP2 MSTORE PUSH32 0x7072696365446576696174696F6E5468726573686F6C64466163746F72000000 DUP5 PUSH1 0x40 MLOAD PUSH1 0x1 PUSH1 0x1 PUSH1 0xE0 SHL SUB NOT PUSH1 0xE0 DUP7 SWAP1 SHL AND DUP2 MSTORE PUSH1 0x4 DUP2 ADD SWAP4 SWAP1 SWAP4 MSTORE PUSH1 0x24 DUP4 ADD SWAP2 SWAP1 SWAP2 MSTORE PUSH1 0x44 DUP3 ADD MSTORE PUSH1 0x64 ADD PUSH1 0x0 PUSH1 0x40 MLOAD DUP1 DUP4 SUB DUP2 PUSH1 0x0 DUP8 DUP1 PUSH2 0xCBA PUSH2 0x30F8 JUMP JUMPDEST ISZERO DUP1 ISZERO PUSH2 0xCCF JUMPI PUSH1 0x0 DUP1 PUSH2 0xCCC PUSH2 0x308D JUMP JUMPDEST POP POP JUMPDEST POP GAS PUSH2 0xCD9 PUSH2 0x3153 JUMP JUMPDEST POP POP POP POP POP POP ISZERO DUP1 ISZERO PUSH2 0xCF9 JUMPI RETURNDATASIZE PUSH1 0x0 DUP1 RETURNDATACOPY RETURNDATASIZE PUSH1 0x0 PUSH2 0xCF6 PUSH2 0x308D JUMP JUMPDEST POP POP JUMPDEST POP POP POP POP PUSH32 0x6E65C7D32A9129EBC4E4E6D755E2A9668753C046F4B128AC8AEB4F3E5446A1E5 DUP2 PUSH1 0x40 MLOAD SWAP1 DUP2 MSTORE PUSH1 0x20 ADD PUSH1 0x40 MLOAD DUP1 SWAP2 SUB SWAP1 LOG1 POP JUMP JUMPDEST PUSH1 0x0 PUSH2 0xBA1 PUSH2 0x27C4 JUMP JUMPDEST PUSH1 0x0 PUSH2 0xBA1 PUSH2 0x2837 JUMP JUMPDEST PUSH1 0x0 PUSH2 0xBA1 PUSH2 0x28AB JUMP JUMPDEST PUSH2 0xD59 PUSH2 0x25AB JUMP JUMPDEST PUSH8 0x3782DACE9D90000 DUP2 GT ISZERO PUSH2 0xDA9 JUMPI PUSH1 0x40 MLOAD PUSH3 0x461BCD PUSH1 0xE5 SHL DUP2 MSTORE PUSH1 0x4 ADD DUP1 DUP1 PUSH1 0x20 ADD DUP3 DUP2 SUB DUP3 MSTORE PUSH1 0x21 DUP2 MSTORE PUSH1 0x20 ADD DUP1 PUSH2 0x3406 PUSH1 0x21 SWAP2 CODECOPY PUSH1 0x40 ADD SWAP2 POP POP PUSH1 0x40 MLOAD DUP1 SWAP2 SUB SWAP1 PUSH2 0xDA6 PUSH2 0x308D JUMP JUMPDEST POP POP JUMPDEST PUSH2 0xDB1 PUSH2 0x2625 JUMP JUMPDEST PUSH1 0x1 PUSH1 0x1 PUSH1 0xA0 SHL SUB AND PUSH4 0x1D5B277F PUSH1 0x0 DUP1 MLOAD PUSH1 0x20 PUSH2 0x34E4 DUP4 CODECOPY DUP2 MLOAD SWAP2 MSTORE PUSH18 0x6C69717569646174696F6E50656E616C7479 PUSH1 0x70 SHL DUP5 PUSH1 0x40 MLOAD PUSH1 0x1 PUSH1 0x1 PUSH1 0xE0 SHL SUB NOT PUSH1 0xE0 DUP7 SWAP1 SHL AND DUP2 MSTORE PUSH1 0x4 DUP2 ADD SWAP4 SWAP1 SWAP4 MSTORE PUSH1 0x24 DUP4 ADD SWAP2 SWAP1 SWAP2 MSTORE PUSH1 0x44 DUP3 ADD MSTORE PUSH1 0x64 ADD PUSH1 0x0 PUSH1 0x40 MLOAD DUP1 DUP4 SUB DUP2 PUSH1 0x0 DUP8 DUP1 PUSH2 0xE26 PUSH2 0x30F8 JUMP JUMPDEST ISZERO DUP1 ISZERO PUSH2 0xE3B JUMPI PUSH1 0x0 DUP1 PUSH2 0xE38 PUSH2 0x308D JUMP JUMPDEST POP POP JUMPDEST POP GAS PUSH2 0xE45 PUSH2 0x3153 JUMP JUMPDEST POP POP POP POP POP POP ISZERO DUP1 ISZERO PUSH2 0xE65 JUMPI RETURNDATASIZE PUSH1 0x0 DUP1 RETURNDATACOPY RETURNDATASIZE PUSH1 0x0 PUSH2 0xE62 PUSH2 0x308D JUMP JUMPDEST POP POP JUMPDEST POP POP POP POP PUSH32 0xBFB22C07314F4682BBA789860CEB851EB8CEA2D867920332B2A42CF56BE5B2E9 DUP2 PUSH1 0x40 MLOAD SWAP1 DUP2 MSTORE PUSH1 0x20 ADD PUSH1 0x40 MLOAD DUP1 SWAP2 SUB SWAP1 LOG1 POP JUMP JUMPDEST PUSH2 0xEA7 PUSH2 0x25AB JUMP JUMPDEST DUP3 DUP2 EQ PUSH2 0xF03 JUMPI PUSH1 0x40 MLOAD PUSH3 0x461BCD PUSH1 0xE5 SHL DUP2 MSTORE PUSH1 0x20 PUSH1 0x4 DUP3 ADD MSTORE PUSH1 0x18 PUSH1 0x24 DUP3 ADD MSTORE PUSH32 0x4172726179206C656E6774687320646F6E74206D617463680000000000000000 PUSH1 0x44 DUP3 ADD MSTORE PUSH1 0x64 ADD PUSH1 0x40 MLOAD DUP1 SWAP2 SUB SWAP1 PUSH2 0xF00 PUSH2 0x308D JUMP JUMPDEST POP POP JUMPDEST PUSH1 0x0 JUMPDEST DUP4 DUP2 LT ISZERO PUSH2 0x10FA JUMPI PUSH8 0x16345785D8A0000 DUP4 DUP4 DUP4 DUP2 DUP2 LT PUSH2 0xF23 JUMPI INVALID JUMPDEST SWAP1 POP PUSH1 0x20 MUL ADD CALLDATALOAD GT ISZERO PUSH2 0xF85 JUMPI PUSH1 0x40 MLOAD PUSH3 0x461BCD PUSH1 0xE5 SHL DUP2 MSTORE PUSH1 0x20 PUSH1 0x4 DUP3 ADD MSTORE PUSH1 0x1E PUSH1 0x24 DUP3 ADD MSTORE PUSH32 0x4D41585F45584348414E47455F4645455F524154452065786365656465640000 PUSH1 0x44 DUP3 ADD MSTORE PUSH1 0x64 ADD PUSH1 0x40 MLOAD DUP1 SWAP2 SUB SWAP1 PUSH2 0xF82 PUSH2 0x308D JUMP JUMPDEST POP POP JUMPDEST PUSH2 0xF8D PUSH2 0x2625 JUMP JUMPDEST PUSH1 0x1 PUSH1 0x1 PUSH1 0xA0 SHL SUB AND PUSH4 0x1D5B277F PUSH1 0x0 DUP1 MLOAD PUSH1 0x20 PUSH2 0x34E4 DUP4 CODECOPY DUP2 MLOAD SWAP2 MSTORE PUSH15 0x65786368616E676546656552617465 PUSH1 0x88 SHL DUP9 DUP9 DUP7 DUP2 DUP2 LT PUSH2 0xFC9 JUMPI INVALID JUMPDEST SWAP1 POP PUSH1 0x20 MUL ADD CALLDATALOAD PUSH1 0x40 MLOAD PUSH1 0x20 ADD DUP1 DUP4 DUP2 MSTORE PUSH1 0x20 ADD DUP3 DUP2 MSTORE PUSH1 0x20 ADD SWAP3 POP POP POP PUSH1 0x40 MLOAD PUSH1 0x20 DUP2 DUP4 SUB SUB DUP2 MSTORE SWAP1 PUSH1 0x40 MSTORE DUP1 MLOAD SWAP1 PUSH1 0x20 ADD KECCAK256 DUP7 DUP7 DUP7 DUP2 DUP2 LT PUSH2 0x1009 JUMPI INVALID JUMPDEST SWAP1 POP PUSH1 0x20 MUL ADD CALLDATALOAD PUSH1 0x40 MLOAD PUSH1 0x1 PUSH1 0x1 PUSH1 0xE0 SHL SUB NOT PUSH1 0xE0 DUP7 SWAP1 SHL AND DUP2 MSTORE PUSH1 0x4 DUP2 ADD SWAP4 SWAP1 SWAP4 MSTORE PUSH1 0x24 DUP4 ADD SWAP2 SWAP1 SWAP2 MSTORE PUSH1 0x44 DUP3 ADD MSTORE PUSH1 0x64 ADD PUSH1 0x0 PUSH1 0x40 MLOAD DUP1 DUP4 SUB DUP2 PUSH1 0x0 DUP8 DUP1 PUSH2 0x1051 PUSH2 0x30F8 JUMP JUMPDEST ISZERO DUP1 ISZERO PUSH2 0x1066 JUMPI PUSH1 0x0 DUP1 PUSH2 0x1063 PUSH2 0x308D JUMP JUMPDEST POP POP JUMPDEST POP GAS PUSH2 0x1070 PUSH2 0x3153 JUMP JUMPDEST POP POP POP POP POP POP ISZERO DUP1 ISZERO PUSH2 0x1090 JUMPI RETURNDATASIZE PUSH1 0x0 DUP1 RETURNDATACOPY RETURNDATASIZE PUSH1 0x0 PUSH2 0x108D PUSH2 0x308D JUMP JUMPDEST POP POP JUMPDEST POP POP POP POP PUSH32 0xBBDAB54F0DA6D720D21F53E4D6F5BBE83E5A2F74C1354175140EA74F8E90C77E DUP6 DUP6 DUP4 DUP2 DUP2 LT PUSH2 0x10C1 JUMPI INVALID JUMPDEST SWAP1 POP PUSH1 0x20 MUL ADD CALLDATALOAD DUP5 DUP5 DUP5 DUP2 DUP2 LT PUSH2 0x10D4 JUMPI INVALID JUMPDEST SWAP1 POP PUSH1 0x20 MUL ADD CALLDATALOAD PUSH1 0x40 MLOAD SWAP2 DUP3 MSTORE PUSH1 0x20 DUP3 ADD MSTORE PUSH1 0x40 SWAP1 DUP2 ADD SWAP1 MLOAD DUP1 SWAP2 SUB SWAP1 LOG1 PUSH1 0x1 ADD PUSH2 0xF06 JUMP JUMPDEST POP POP POP POP POP JUMP JUMPDEST PUSH2 0x1109 PUSH2 0x25AB JUMP JUMPDEST PUSH1 0x32 DUP2 GT ISZERO PUSH2 0x115C JUMPI PUSH1 0x40 MLOAD PUSH3 0x461BCD PUSH1 0xE5 SHL DUP2 MSTORE PUSH1 0x20 PUSH1 0x4 DUP3 ADD MSTORE PUSH1 0x12 PUSH1 0x24 DUP3 ADD MSTORE PUSH18 0xA8D0E4CAE6D0DED8C840E8DEDE40D0D2CED PUSH1 0x73 SHL PUSH1 0x44 DUP3 ADD MSTORE PUSH1 0x64 ADD PUSH1 0x40 MLOAD DUP1 SWAP2 SUB SWAP1 PUSH2 0x1159 PUSH2 0x308D JUMP JUMPDEST POP POP JUMPDEST PUSH1 0x0 PUSH2 0x1225 PUSH1 0x64 PUSH2 0x1219 PUSH20 0x0 PUSH4 0x907AF6C0 PUSH1 0x40 MLOAD DUP2 PUSH4 0xFFFFFFFF AND PUSH1 0xE0 SHL DUP2 MSTORE PUSH1 0x4 ADD PUSH1 0x20 PUSH1 0x40 MLOAD DUP1 DUP4 SUB DUP2 DUP7 DUP1 PUSH2 0x11A5 PUSH2 0x30F8 JUMP JUMPDEST ISZERO DUP1 ISZERO PUSH2 0x11BA JUMPI PUSH1 0x0 DUP1 PUSH2 0x11B7 PUSH2 0x308D JUMP JUMPDEST POP POP JUMPDEST POP GAS PUSH2 0x11C4 PUSH2 0x32A6 JUMP JUMPDEST POP POP POP POP POP ISZERO DUP1 ISZERO PUSH2 0x11E3 JUMPI RETURNDATASIZE PUSH1 0x0 DUP1 RETURNDATACOPY RETURNDATASIZE PUSH1 0x0 PUSH2 0x11E0 PUSH2 0x308D JUMP JUMPDEST POP POP JUMPDEST POP POP POP POP PUSH1 0x40 MLOAD RETURNDATASIZE PUSH1 0x20 DUP2 LT ISZERO PUSH2 0x1202 JUMPI PUSH1 0x0 DUP1 PUSH2 0x11FF PUSH2 0x308D JUMP JUMPDEST POP POP JUMPDEST DUP2 ADD SWAP1 DUP1 DUP1 MLOAD DUP9 SWAP4 POP SWAP2 POP POP PUSH4 0xFFFFFFFF PUSH2 0x291D AND JUMP JUMPDEST SWAP1 PUSH4 0xFFFFFFFF PUSH2 0x2986 AND JUMP JUMPDEST SWAP1 POP PUSH2 0x122F PUSH2 0x2625 JUMP JUMPDEST PUSH1 0x1 PUSH1 0x1 PUSH1 0xA0 SHL SUB AND PUSH4 0x1D5B277F PUSH1 0x0 DUP1 MLOAD PUSH1 0x20 PUSH2 0x34E4 DUP4 CODECOPY DUP2 MLOAD SWAP2 MSTORE PUSH15 0x1D185C99D95D151A1C995CDA1BDB19 PUSH1 0x8A SHL DUP5 PUSH1 0x40 MLOAD PUSH1 0x1 PUSH1 0x1 PUSH1 0xE0 SHL SUB NOT PUSH1 0xE0 DUP7 SWAP1 SHL AND DUP2 MSTORE PUSH1 0x4 DUP2 ADD SWAP4 SWAP1 SWAP4 MSTORE PUSH1 0x24 DUP4 ADD SWAP2 SWAP1 SWAP2 MSTORE PUSH1 0x44 DUP3 ADD MSTORE PUSH1 0x64 ADD PUSH1 0x0 PUSH1 0x40 MLOAD DUP1 DUP4 SUB DUP2 PUSH1 0x0 DUP8 DUP1 PUSH2 0x12A1 PUSH2 0x30F8 JUMP JUMPDEST ISZERO DUP1 ISZERO PUSH2 0x12B6 JUMPI PUSH1 0x0 DUP1 PUSH2 0x12B3 PUSH2 0x308D JUMP JUMPDEST POP POP JUMPDEST POP GAS PUSH2 0x12C0 PUSH2 0x3153 JUMP JUMPDEST POP POP POP POP POP POP ISZERO DUP1 ISZERO PUSH2 0x12E0 JUMPI RETURNDATASIZE PUSH1 0x0 DUP1 RETURNDATACOPY RETURNDATASIZE PUSH1 0x0 PUSH2 0x12DD PUSH2 0x308D JUMP JUMPDEST POP POP JUMPDEST POP POP POP POP PUSH32 0xB2B3A840C101D8E7F0CF8D80D3868976968714347038FE89B36C5031F94DAB12 DUP2 PUSH1 0x40 MLOAD SWAP1 DUP2 MSTORE PUSH1 0x20 ADD PUSH1 0x40 MLOAD DUP1 SWAP2 SUB SWAP1 LOG1 POP POP JUMP JUMPDEST PUSH1 0x0 PUSH2 0xBA1 PUSH2 0x29F8 JUMP JUMPDEST PUSH2 0x132D PUSH2 0x25AB JUMP JUMPDEST DUP1 PUSH1 0x2 PUSH1 0x1 DUP2 PUSH2 0x133B PUSH2 0x320C JUMP JUMPDEST DUP2 PUSH1 0x1 PUSH1 0x1 PUSH1 0xA0 SHL SUB MUL NOT AND SWAP1 DUP4 PUSH1 0x1 PUSH1 0x1 PUSH1 0xA0 SHL SUB AND MUL OR SWAP1 PUSH2 0x135D PUSH2 0x3258 JUMP JUMPDEST POP PUSH1 0x0 SWAP2 POP POP JUMPDEST PUSH1 0x4 DUP1 PUSH2 0x136F PUSH2 0x320C JUMP JUMPDEST SWAP1 POP DUP2 LT ISZERO PUSH2 0x14EB JUMPI PUSH1 0x0 PUSH1 0x4 DUP3 DUP2 PUSH2 0x1386 PUSH2 0x320C JUMP JUMPDEST DUP2 LT PUSH2 0x138E JUMPI INVALID JUMPDEST SWAP1 PUSH1 0x0 MSTORE PUSH1 0x20 PUSH1 0x0 KECCAK256 ADD PUSH2 0x13A0 PUSH2 0x320C JUMP JUMPDEST SWAP1 POP PUSH1 0x0 PUSH1 0x2 PUSH2 0x13AE PUSH2 0x320C JUMP JUMPDEST SWAP1 PUSH2 0x100 EXP SWAP1 DIV PUSH1 0x1 PUSH1 0x1 PUSH1 0xA0 SHL SUB AND PUSH1 0x1 PUSH1 0x1 PUSH1 0xA0 SHL SUB AND PUSH4 0xDACB2D01 DUP3 PUSH1 0x40 MLOAD PUSH1 0x1 PUSH1 0x1 PUSH1 0xE0 SHL SUB NOT PUSH1 0xE0 DUP5 SWAP1 SHL AND DUP2 MSTORE PUSH1 0x4 DUP2 ADD SWAP2 SWAP1 SWAP2 MSTORE PUSH1 0x40 PUSH1 0x24 DUP3 ADD DUP2 SWAP1 MSTORE PUSH1 0x17 PUSH1 0x44 DUP4 ADD MSTORE PUSH32 0x5265736F6C766572206D697373696E6720746172676574000000000000000000 PUSH1 0x64 DUP4 ADD MSTORE PUSH1 0x84 SWAP1 SWAP2 ADD SWAP1 PUSH1 0x20 SWAP1 MLOAD DUP1 DUP4 SUB DUP2 DUP7 DUP1 PUSH2 0x1437 PUSH2 0x30F8 JUMP JUMPDEST ISZERO DUP1 ISZERO PUSH2 0x144C JUMPI PUSH1 0x0 DUP1 PUSH2 0x1449 PUSH2 0x308D JUMP JUMPDEST POP POP JUMPDEST POP GAS PUSH2 0x1456 PUSH2 0x335F JUMP JUMPDEST POP POP POP POP POP ISZERO DUP1 ISZERO PUSH2 0x1475 JUMPI RETURNDATASIZE PUSH1 0x0 DUP1 RETURNDATACOPY RETURNDATASIZE PUSH1 0x0 PUSH2 0x1472 PUSH2 0x308D JUMP JUMPDEST POP POP JUMPDEST POP POP POP POP PUSH1 0x40 MLOAD RETURNDATASIZE PUSH1 0x20 DUP2 LT ISZERO PUSH2 0x1494 JUMPI PUSH1 0x0 DUP1 PUSH2 0x1491 PUSH2 0x308D JUMP JUMPDEST POP POP JUMPDEST DUP2 ADD SWAP1 DUP1 DUP1 MLOAD PUSH1 0x0 DUP6 DUP2 MSTORE PUSH1 0x3 PUSH1 0x20 MSTORE SWAP1 SWAP4 POP PUSH1 0x40 SWAP3 POP SWAP1 POP KECCAK256 PUSH1 0x1 DUP2 PUSH2 0x14B9 PUSH2 0x320C JUMP JUMPDEST DUP2 PUSH1 0x1 PUSH1 0x1 PUSH1 0xA0 SHL SUB MUL NOT AND SWAP1 DUP4 PUSH1 0x1 PUSH1 0x1 PUSH1 0xA0 SHL SUB AND MUL OR SWAP1 PUSH2 0x14DB PUSH2 0x3258 JUMP JUMPDEST POP POP PUSH1 0x1 SWAP1 SWAP3 ADD SWAP2 POP PUSH2 0x1364 SWAP1 POP JUMP JUMPDEST POP POP JUMP JUMPDEST PUSH2 0x14F7 PUSH2 0x25AB JUMP JUMPDEST PUSH2 0x14FF PUSH2 0x2625 JUMP JUMPDEST PUSH1 0x1 PUSH1 0x1 PUSH1 0xA0 SHL SUB AND PUSH4 0x3F28A6FC PUSH1 0x0 DUP1 MLOAD PUSH1 0x20 PUSH2 0x34E4 DUP4 CODECOPY DUP2 MLOAD SWAP2 MSTORE PUSH21 0x1D1C98591A5B99D4995DD85C991CD15B98589B1959 PUSH1 0x5A SHL DUP5 PUSH1 0x40 MLOAD PUSH1 0x1 PUSH1 0x1 PUSH1 0xE0 SHL SUB NOT PUSH1 0xE0 DUP7 SWAP1 SHL AND DUP2 MSTORE PUSH1 0x4 DUP2 ADD SWAP4 SWAP1 SWAP4 MSTORE PUSH1 0x24 DUP4 ADD SWAP2 SWAP1 SWAP2 MSTORE ISZERO ISZERO PUSH1 0x44 DUP3 ADD MSTORE PUSH1 0x64 ADD PUSH1 0x0 PUSH1 0x40 MLOAD DUP1 DUP4 SUB DUP2 PUSH1 0x0 DUP8 DUP1 PUSH2 0x1579 PUSH2 0x30F8 JUMP JUMPDEST ISZERO DUP1 ISZERO PUSH2 0x158E JUMPI PUSH1 0x0 DUP1 PUSH2 0x158B PUSH2 0x308D JUMP JUMPDEST POP POP JUMPDEST POP GAS PUSH2 0x1598 PUSH2 0x3153 JUMP JUMPDEST POP POP POP POP POP POP ISZERO DUP1 ISZERO PUSH2 0x15B8 JUMPI RETURNDATASIZE PUSH1 0x0 DUP1 RETURNDATACOPY RETURNDATASIZE PUSH1 0x0 PUSH2 0x15B5 PUSH2 0x308D JUMP JUMPDEST POP POP JUMPDEST POP POP POP POP PUSH32 0xE11C1893B6F97DECD3AC13637137734A4B75D159E899E5A8ABB48470AB0BC4FD DUP2 PUSH1 0x40 MLOAD SWAP1 ISZERO ISZERO DUP2 MSTORE PUSH1 0x20 ADD PUSH1 0x40 MLOAD DUP1 SWAP2 SUB SWAP1 LOG1 POP JUMP JUMPDEST PUSH1 0x0 PUSH2 0xBA1 PUSH2 0x2A77 JUMP JUMPDEST PUSH1 0x0 PUSH1 0x1 PUSH2 0xA2F PUSH2 0x320C JUMP JUMPDEST PUSH1 0x0 PUSH2 0xBA1 PUSH2 0x2AEF JUMP JUMPDEST PUSH2 0x161C PUSH2 0x25AB JUMP JUMPDEST PUSH2 0x1624 PUSH2 0x2625 JUMP JUMPDEST PUSH1 0x1 PUSH1 0x1 PUSH1 0xA0 SHL SUB AND PUSH4 0x1D5B277F PUSH1 0x0 DUP1 MLOAD PUSH1 0x20 PUSH2 0x34E4 DUP4 CODECOPY DUP2 MLOAD SWAP2 MSTORE PUSH14 0x1B585E1A5B5D5B51195C1BDCDA5D PUSH1 0x92 SHL DUP5 PUSH1 0x40 MLOAD PUSH1 0x1 PUSH1 0x1 PUSH1 0xE0 SHL SUB NOT PUSH1 0xE0 DUP7 SWAP1 SHL AND DUP2 MSTORE PUSH1 0x4 DUP2 ADD SWAP4 SWAP1 SWAP4 MSTORE PUSH1 0x24 DUP4 ADD SWAP2 SWAP1 SWAP2 MSTORE PUSH1 0x44 DUP3 ADD MSTORE PUSH1 0x64 ADD PUSH1 0x0 PUSH1 0x40 MLOAD DUP1 DUP4 SUB DUP2 PUSH1 0x0 DUP8 DUP1 PUSH2 0x1695 PUSH2 0x30F8 JUMP JUMPDEST ISZERO DUP1 ISZERO PUSH2 0x16AA JUMPI PUSH1 0x0 DUP1 PUSH2 0x16A7 PUSH2 0x308D JUMP JUMPDEST POP POP JUMPDEST POP GAS PUSH2 0x16B4 PUSH2 0x3153 JUMP JUMPDEST POP POP POP POP POP POP ISZERO DUP1 ISZERO PUSH2 0x16D4 JUMPI RETURNDATASIZE PUSH1 0x0 DUP1 RETURNDATACOPY RETURNDATASIZE PUSH1 0x0 PUSH2 0x16D1 PUSH2 0x308D JUMP JUMPDEST POP POP JUMPDEST POP POP POP POP PUSH32 0x1E80A107FD5BA086E2A723CEEC9A9263BDFAED7997F66DB919C1E9D1CF64817F DUP2 PUSH1 0x40 MLOAD SWAP1 DUP2 MSTORE PUSH1 0x20 ADD PUSH1 0x40 MLOAD DUP1 SWAP2 SUB SWAP1 LOG1 POP JUMP JUMPDEST PUSH3 0x93A80 DUP2 JUMP JUMPDEST PUSH2 0x171D PUSH2 0x25AB JUMP JUMPDEST PUSH3 0x278D00 DUP2 GT ISZERO PUSH2 0x177D JUMPI PUSH1 0x40 MLOAD PUSH3 0x461BCD PUSH1 0xE5 SHL DUP2 MSTORE PUSH1 0x20 PUSH1 0x4 DUP3 ADD MSTORE PUSH1 0x19 PUSH1 0x24 DUP3 ADD MSTORE PUSH32 0x4D757374206265206C657373207468616E203330206461797300000000000000 PUSH1 0x44 DUP3 ADD MSTORE PUSH1 0x64 ADD PUSH1 0x40 MLOAD DUP1 SWAP2 SUB SWAP1 PUSH2 0x177A PUSH2 0x308D JUMP JUMPDEST POP POP JUMPDEST PUSH3 0x15180 DUP2 LT ISZERO PUSH2 0x17DD JUMPI PUSH1 0x40 MLOAD PUSH3 0x461BCD PUSH1 0xE5 SHL DUP2 MSTORE PUSH1 0x20 PUSH1 0x4 DUP3 ADD MSTORE PUSH1 0x1A PUSH1 0x24 DUP3 ADD MSTORE PUSH32 0x4D7573742062652067726561746572207468616E203120646179000000000000 PUSH1 0x44 DUP3 ADD MSTORE PUSH1 0x64 ADD PUSH1 0x40 MLOAD DUP1 SWAP2 SUB SWAP1 PUSH2 0x17DA PUSH2 0x308D JUMP JUMPDEST POP POP JUMPDEST PUSH2 0x17E5 PUSH2 0x2625 JUMP JUMPDEST PUSH1 0x1 PUSH1 0x1 PUSH1 0xA0 SHL SUB AND PUSH4 0x1D5B277F PUSH1 0x0 DUP1 MLOAD PUSH1 0x20 PUSH2 0x34E4 DUP4 CODECOPY DUP2 MLOAD SWAP2 MSTORE PUSH16 0x6C69717569646174696F6E44656C6179 PUSH1 0x80 SHL DUP5 PUSH1 0x40 MLOAD PUSH1 0x1 PUSH1 0x1 PUSH1 0xE0 SHL SUB NOT PUSH1 0xE0 DUP7 SWAP1 SHL AND DUP2 MSTORE PUSH1 0x4 DUP2 ADD SWAP4 SWAP1 SWAP4 MSTORE PUSH1 0x24 DUP4 ADD SWAP2 SWAP1 SWAP2 MSTORE PUSH1 0x44 DUP3 ADD MSTORE PUSH1 0x64 ADD PUSH1 0x0 PUSH1 0x40 MLOAD DUP1 DUP4 SUB DUP2 PUSH1 0x0 DUP8 DUP1 PUSH2 0x1858 PUSH2 0x30F8 JUMP JUMPDEST ISZERO DUP1 ISZERO PUSH2 0x186D JUMPI PUSH1 0x0 DUP1 PUSH2 0x186A PUSH2 0x308D JUMP JUMPDEST POP POP JUMPDEST POP GAS PUSH2 0x1877 PUSH2 0x3153 JUMP JUMPDEST POP POP POP POP POP POP ISZERO DUP1 ISZERO PUSH2 0x1897 JUMPI RETURNDATASIZE PUSH1 0x0 DUP1 RETURNDATACOPY RETURNDATASIZE PUSH1 0x0 PUSH2 0x1894 PUSH2 0x308D JUMP JUMPDEST POP POP JUMPDEST POP POP POP POP PUSH32 0x9917E32433EDCB65F8982C1B2C26C3469468308456F93CF34B98C1B0459C5398 DUP2 PUSH1 0x40 MLOAD SWAP1 DUP2 MSTORE PUSH1 0x20 ADD PUSH1 0x40 MLOAD DUP1 SWAP2 SUB SWAP1 LOG1 POP JUMP JUMPDEST PUSH2 0x18D9 PUSH2 0x25AB JUMP JUMPDEST PUSH2 0x18E1 PUSH2 0x2625 JUMP JUMPDEST PUSH1 0x1 PUSH1 0x1 PUSH1 0xA0 SHL SUB AND PUSH4 0x1D5B277F PUSH1 0x0 DUP1 MLOAD PUSH1 0x20 PUSH2 0x34E4 DUP4 CODECOPY DUP2 MLOAD SWAP2 MSTORE PUSH21 0x64656274536E617073686F745374616C6554696D65 PUSH1 0x58 SHL DUP5 PUSH1 0x40 MLOAD PUSH1 0x1 PUSH1 0x1 PUSH1 0xE0 SHL SUB NOT PUSH1 0xE0 DUP7 SWAP1 SHL AND DUP2 MSTORE PUSH1 0x4 DUP2 ADD SWAP4 SWAP1 SWAP4 MSTORE PUSH1 0x24 DUP4 ADD SWAP2 SWAP1 SWAP2 MSTORE PUSH1 0x44 DUP3 ADD MSTORE PUSH1 0x64 ADD PUSH1 0x0 PUSH1 0x40 MLOAD DUP1 DUP4 SUB DUP2 PUSH1 0x0 DUP8 DUP1 PUSH2 0x1959 PUSH2 0x30F8 JUMP JUMPDEST ISZERO DUP1 ISZERO PUSH2 0x196E JUMPI PUSH1 0x0 DUP1 PUSH2 0x196B PUSH2 0x308D JUMP JUMPDEST POP POP JUMPDEST POP GAS PUSH2 0x1978 PUSH2 0x3153 JUMP JUMPDEST POP POP POP POP POP POP ISZERO DUP1 ISZERO PUSH2 0x1998 JUMPI RETURNDATASIZE PUSH1 0x0 DUP1 RETURNDATACOPY RETURNDATASIZE PUSH1 0x0 PUSH2 0x1995 PUSH2 0x308D JUMP JUMPDEST POP POP JUMPDEST POP POP POP POP PUSH32 0x9795BE9F1478ED09E9E47E67318B8AA7A0C0213170403191099BF7DD435FB4D7 DUP2 PUSH1 0x40 MLOAD SWAP1 DUP2 MSTORE PUSH1 0x20 ADD PUSH1 0x40 MLOAD DUP1 SWAP2 SUB SWAP1 LOG1 POP JUMP JUMPDEST PUSH1 0x0 PUSH1 0x1 PUSH1 0x1 PUSH1 0xA0 SHL SUB DUP3 AND DUP2 PUSH1 0x2 PUSH2 0x19E9 PUSH2 0x320C JUMP JUMPDEST SWAP1 PUSH2 0x100 EXP SWAP1 DIV PUSH1 0x1 PUSH1 0x1 PUSH1 0xA0 SHL SUB AND PUSH1 0x1 PUSH1 0x1 PUSH1 0xA0 SHL SUB AND EQ PUSH2 0x1A0F JUMPI POP PUSH1 0x0 PUSH2 0x1BA9 JUMP JUMPDEST PUSH1 0x0 JUMPDEST PUSH1 0x4 DUP1 PUSH2 0x1A1D PUSH2 0x320C JUMP JUMPDEST SWAP1 POP DUP2 LT ISZERO PUSH2 0x1BA3 JUMPI PUSH1 0x0 PUSH1 0x4 DUP3 DUP2 PUSH2 0x1A34 PUSH2 0x320C JUMP JUMPDEST DUP2 LT PUSH2 0x1A3C JUMPI INVALID JUMPDEST SWAP1 PUSH1 0x0 MSTORE PUSH1 0x20 PUSH1 0x0 KECCAK256 ADD PUSH2 0x1A4E PUSH2 0x320C JUMP JUMPDEST PUSH1 0x0 DUP2 DUP2 MSTORE PUSH1 0x3 PUSH1 0x20 MSTORE SWAP1 SWAP2 POP PUSH1 0x40 SWAP1 KECCAK256 PUSH1 0x0 SWAP1 PUSH2 0x1A6A PUSH2 0x320C JUMP JUMPDEST PUSH1 0x1 PUSH1 0x1 PUSH1 0xA0 SHL SUB PUSH2 0x100 SWAP3 SWAP1 SWAP3 EXP SWAP1 DIV AND PUSH1 0x0 PUSH1 0x2 PUSH2 0x1A88 PUSH2 0x320C JUMP JUMPDEST SWAP1 PUSH2 0x100 EXP SWAP1 DIV PUSH1 0x1 PUSH1 0x1 PUSH1 0xA0 SHL SUB AND PUSH1 0x1 PUSH1 0x1 PUSH1 0xA0 SHL SUB AND PUSH4 0x21F8A721 DUP4 PUSH1 0x40 MLOAD PUSH1 0x1 PUSH1 0x1 PUSH1 0xE0 SHL SUB NOT PUSH1 0xE0 DUP5 SWAP1 SHL AND DUP2 MSTORE PUSH1 0x4 DUP2 ADD SWAP2 SWAP1 SWAP2 MSTORE PUSH1 0x24 ADD PUSH1 0x20 PUSH1 0x40 MLOAD DUP1 DUP4 SUB DUP2 DUP7 DUP1 PUSH2 0x1AD9 PUSH2 0x30F8 JUMP JUMPDEST ISZERO DUP1 ISZERO PUSH2 0x1AEE JUMPI PUSH1 0x0 DUP1 PUSH2 0x1AEB PUSH2 0x308D JUMP JUMPDEST POP POP JUMPDEST POP GAS PUSH2 0x1AF8 PUSH2 0x335F JUMP JUMPDEST POP POP POP POP POP ISZERO DUP1 ISZERO PUSH2 0x1B17 JUMPI RETURNDATASIZE PUSH1 0x0 DUP1 RETURNDATACOPY RETURNDATASIZE PUSH1 0x0 PUSH2 0x1B14 PUSH2 0x308D JUMP JUMPDEST POP POP JUMPDEST POP POP POP POP PUSH1 0x40 MLOAD RETURNDATASIZE PUSH1 0x20 DUP2 LT ISZERO PUSH2 0x1B36 JUMPI PUSH1 0x0 DUP1 PUSH2 0x1B33 PUSH2 0x308D JUMP JUMPDEST POP POP JUMPDEST DUP2 ADD SWAP1 DUP1 DUP1 MLOAD PUSH1 0x1 PUSH1 0x1 PUSH1 0xA0 SHL SUB AND SWAP4 SWAP1 SWAP4 EQ ISZERO SWAP3 POP DUP3 SWAP2 POP PUSH2 0x1B8A SWAP1 POP JUMPI POP PUSH1 0x0 DUP2 DUP2 MSTORE PUSH1 0x3 PUSH1 0x20 MSTORE PUSH1 0x40 DUP2 KECCAK256 PUSH1 0x0 SWAP1 PUSH2 0x1B6F PUSH2 0x320C JUMP JUMPDEST SWAP1 PUSH2 0x100 EXP SWAP1 DIV PUSH1 0x1 PUSH1 0x1 PUSH1 0xA0 SHL SUB AND PUSH1 0x1 PUSH1 0x1 PUSH1 0xA0 SHL SUB AND EQ JUMPDEST ISZERO PUSH2 0x1B9A JUMPI PUSH1 0x0 SWAP3 POP POP POP PUSH2 0x1BA9 JUMP JUMPDEST POP PUSH1 0x1 ADD PUSH2 0x1A12 JUMP JUMPDEST POP PUSH1 0x1 SWAP1 POP JUMPDEST SWAP2 SWAP1 POP JUMP JUMPDEST PUSH2 0x1BB6 PUSH2 0x25AB JUMP JUMPDEST PUSH2 0x1BBE PUSH2 0x2625 JUMP JUMPDEST PUSH1 0x1 PUSH1 0x1 PUSH1 0xA0 SHL SUB AND PUSH4 0x1D5B277F PUSH1 0x0 DUP1 MLOAD PUSH1 0x20 PUSH2 0x34E4 DUP4 CODECOPY DUP2 MLOAD SWAP2 MSTORE PUSH17 0x77616974696E67506572696F6453656373 PUSH1 0x78 SHL DUP5 PUSH1 0x40 MLOAD PUSH1 0x1 PUSH1 0x1 PUSH1 0xE0 SHL SUB NOT PUSH1 0xE0 DUP7 SWAP1 SHL AND DUP2 MSTORE PUSH1 0x4 DUP2 ADD SWAP4 SWAP1 SWAP4 MSTORE PUSH1 0x24 DUP4 ADD SWAP2 SWAP1 SWAP2 MSTORE PUSH1 0x44 DUP3 ADD MSTORE PUSH1 0x64 ADD PUSH1 0x0 PUSH1 0x40 MLOAD DUP1 DUP4 SUB DUP2 PUSH1 0x0 DUP8 DUP1 PUSH2 0x1C32 PUSH2 0x30F8 JUMP JUMPDEST ISZERO DUP1 ISZERO PUSH2 0x1C47 JUMPI PUSH1 0x0 DUP1 PUSH2 0x1C44 PUSH2 0x308D JUMP JUMPDEST POP POP JUMPDEST POP GAS PUSH2 0x1C51 PUSH2 0x3153 JUMP JUMPDEST POP POP POP POP POP POP ISZERO DUP1 ISZERO PUSH2 0x1C71 JUMPI RETURNDATASIZE PUSH1 0x0 DUP1 RETURNDATACOPY RETURNDATASIZE PUSH1 0x0 PUSH2 0x1C6E PUSH2 0x308D JUMP JUMPDEST POP POP JUMPDEST POP POP POP POP PUSH32 0xC32C92CAC11E29883E0FB2D9E38230CC510E3BDA48ABC270B780DE60BB8465F8 DUP2 PUSH1 0x40 MLOAD SWAP1 DUP2 MSTORE PUSH1 0x20 ADD PUSH1 0x40 MLOAD DUP1 SWAP2 SUB SWAP1 LOG1 POP JUMP JUMPDEST PUSH8 0xDE0B6B3A7640000 DUP2 JUMP JUMPDEST PUSH1 0x0 PUSH1 0x1 PUSH2 0x1CC3 PUSH2 0x320C JUMP JUMPDEST SWAP1 PUSH2 0x100 EXP SWAP1 DIV PUSH1 0x1 PUSH1 0x1 PUSH1 0xA0 SHL SUB AND PUSH1 0x1 PUSH1 0x1 PUSH1 0xA0 SHL SUB AND GAS PUSH2 0x1CE5 PUSH2 0x33A2 JUMP JUMPDEST PUSH1 0x1 PUSH1 0x1 PUSH1 0xA0 SHL SUB AND EQ PUSH2 0x1D33 JUMPI PUSH1 0x40 MLOAD PUSH3 0x461BCD PUSH1 0xE5 SHL DUP2 MSTORE PUSH1 0x4 ADD DUP1 DUP1 PUSH1 0x20 ADD DUP3 DUP2 SUB DUP3 MSTORE PUSH1 0x35 DUP2 MSTORE PUSH1 0x20 ADD DUP1 PUSH2 0x3427 PUSH1 0x35 SWAP2 CODECOPY PUSH1 0x40 ADD SWAP2 POP POP PUSH1 0x40 MLOAD DUP1 SWAP2 SUB SWAP1 PUSH2 0x1D30 PUSH2 0x308D JUMP JUMPDEST POP POP JUMPDEST PUSH32 0xB532073B38C83145E3E5135377A08BF9AAB55BC0FD7C1179CD4FB995D2A5159C PUSH1 0x0 DUP1 PUSH2 0x1D5F PUSH2 0x320C JUMP JUMPDEST SWAP1 PUSH2 0x100 EXP SWAP1 DIV PUSH1 0x1 PUSH1 0x1 PUSH1 0xA0 SHL SUB AND PUSH1 0x1 PUSH1 0x0 SWAP1 PUSH2 0x1D7C PUSH2 0x320C JUMP JUMPDEST SWAP1 PUSH2 0x100 EXP SWAP1 DIV PUSH1 0x1 PUSH1 0x1 PUSH1 0xA0 SHL SUB AND PUSH1 0x40 MLOAD PUSH1 0x1 PUSH1 0x1 PUSH1 0xA0 SHL SUB SWAP3 DUP4 AND DUP2 MSTORE SWAP2 AND PUSH1 0x20 DUP3 ADD MSTORE PUSH1 0x40 SWAP1 DUP2 ADD SWAP1 MLOAD DUP1 SWAP2 SUB SWAP1 LOG1 PUSH1 0x0 PUSH1 0x1 PUSH2 0x1DBB PUSH2 0x320C JUMP JUMPDEST SWAP1 PUSH2 0x100 EXP SWAP1 DIV PUSH1 0x1 PUSH1 0x1 PUSH1 0xA0 SHL SUB AND PUSH1 0x0 DUP1 PUSH2 0x100 EXP DUP2 PUSH2 0x1DDB PUSH2 0x320C JUMP JUMPDEST DUP2 PUSH1 0x1 PUSH1 0x1 PUSH1 0xA0 SHL SUB MUL NOT AND SWAP1 DUP4 PUSH1 0x1 PUSH1 0x1 PUSH1 0xA0 SHL SUB AND MUL OR SWAP1 PUSH2 0x1DFD PUSH2 0x3258 JUMP JUMPDEST POP POP POP PUSH1 0x0 PUSH1 0x1 PUSH1 0x0 PUSH2 0x100 EXP DUP2 PUSH2 0x1E13 PUSH2 0x320C JUMP JUMPDEST DUP2 PUSH1 0x1 PUSH1 0x1 PUSH1 0xA0 SHL SUB MUL NOT AND SWAP1 DUP4 PUSH1 0x1 PUSH1 0x1 PUSH1 0xA0 SHL SUB AND MUL OR SWAP1 PUSH2 0x1E35 PUSH2 0x3258 JUMP JUMPDEST POP POP POP JUMP JUMPDEST PUSH2 0x1E42 PUSH2 0x25AB JUMP JUMPDEST PUSH2 0x1E4A PUSH2 0x2625 JUMP JUMPDEST PUSH1 0x1 PUSH1 0x1 PUSH1 0xA0 SHL SUB AND PUSH4 0x1D5B277F PUSH1 0x0 DUP1 MLOAD PUSH1 0x20 PUSH2 0x34E4 DUP4 CODECOPY DUP2 MLOAD SWAP2 MSTORE PUSH15 0x1C985D1954DD185B1954195C9A5BD9 PUSH1 0x8A SHL DUP5 PUSH1 0x40 MLOAD PUSH1 0x1 PUSH1 0x1 PUSH1 0xE0 SHL SUB NOT PUSH1 0xE0 DUP7 SWAP1 SHL AND DUP2 MSTORE PUSH1 0x4 DUP2 ADD SWAP4 SWAP1 SWAP4 MSTORE PUSH1 0x24 DUP4 ADD SWAP2 SWAP1 SWAP2 MSTORE PUSH1 0x44 DUP3 ADD MSTORE PUSH1 0x64 ADD PUSH1 0x0 PUSH1 0x40 MLOAD DUP1 DUP4 SUB DUP2 PUSH1 0x0 DUP8 DUP1 PUSH2 0x1EBC PUSH2 0x30F8 JUMP JUMPDEST ISZERO DUP1 ISZERO PUSH2 0x1ED1 JUMPI PUSH1 0x0 DUP1 PUSH2 0x1ECE PUSH2 0x308D JUMP JUMPDEST POP POP JUMPDEST POP GAS PUSH2 0x1EDB PUSH2 0x3153 JUMP JUMPDEST POP POP POP POP POP POP ISZERO DUP1 ISZERO PUSH2 0x1EFB JUMPI RETURNDATASIZE PUSH1 0x0 DUP1 RETURNDATACOPY RETURNDATASIZE PUSH1 0x0 PUSH2 0x1EF8 PUSH2 0x308D JUMP JUMPDEST POP POP JUMPDEST POP POP POP POP PUSH32 0x16529D8C407B08938DA67DE7FA4319199BAFFCE4F5D1971F812CC770B0237E66 DUP2 PUSH1 0x40 MLOAD SWAP1 DUP2 MSTORE PUSH1 0x20 ADD PUSH1 0x40 MLOAD DUP1 SWAP2 SUB SWAP1 LOG1 POP JUMP JUMPDEST PUSH2 0x1F3D PUSH2 0x25AB JUMP JUMPDEST PUSH1 0x1 PUSH1 0x1 PUSH1 0xA0 SHL SUB DUP2 AND PUSH2 0x1FA0 JUMPI PUSH1 0x40 MLOAD PUSH3 0x461BCD PUSH1 0xE5 SHL DUP2 MSTORE PUSH1 0x20 PUSH1 0x4 DUP3 ADD MSTORE PUSH1 0x1B PUSH1 0x24 DUP3 ADD MSTORE PUSH32 0x56616C69642061646472657373206D75737420626520676976656E0000000000 PUSH1 0x44 DUP3 ADD MSTORE PUSH1 0x64 ADD PUSH1 0x40 MLOAD DUP1 SWAP2 SUB SWAP1 PUSH2 0x1F9D PUSH2 0x308D JUMP JUMPDEST POP POP JUMPDEST PUSH2 0x1FA8 PUSH2 0x2625 JUMP JUMPDEST PUSH1 0x1 PUSH1 0x1 PUSH1 0xA0 SHL SUB AND PUSH4 0x4DCA0978 PUSH1 0x0 DUP1 MLOAD PUSH1 0x20 PUSH2 0x34E4 DUP4 CODECOPY DUP2 MLOAD SWAP2 MSTORE PUSH22 0x61676772656761746F725761726E696E67466C616773 PUSH1 0x50 SHL DUP5 PUSH1 0x40 MLOAD PUSH1 0x1 PUSH1 0x1 PUSH1 0xE0 SHL SUB NOT PUSH1 0xE0 DUP7 SWAP1 SHL AND DUP2 MSTORE PUSH1 0x4 DUP2 ADD SWAP4 SWAP1 SWAP4 MSTORE PUSH1 0x24 DUP4 ADD SWAP2 SWAP1 SWAP2 MSTORE PUSH1 0x1 PUSH1 0x1 PUSH1 0xA0 SHL SUB AND PUSH1 0x44 DUP3 ADD MSTORE PUSH1 0x64 ADD PUSH1 0x0 PUSH1 0x40 MLOAD DUP1 DUP4 SUB DUP2 PUSH1 0x0 DUP8 DUP1 PUSH2 0x202A PUSH2 0x30F8 JUMP JUMPDEST ISZERO DUP1 ISZERO PUSH2 0x203F JUMPI PUSH1 0x0 DUP1 PUSH2 0x203C PUSH2 0x308D JUMP JUMPDEST POP POP JUMPDEST POP GAS PUSH2 0x2049 PUSH2 0x3153 JUMP JUMPDEST POP POP POP POP POP POP ISZERO DUP1 ISZERO PUSH2 0x2069 JUMPI RETURNDATASIZE PUSH1 0x0 DUP1 RETURNDATACOPY RETURNDATASIZE PUSH1 0x0 PUSH2 0x2066 PUSH2 0x308D JUMP JUMPDEST POP POP JUMPDEST POP POP POP POP PUSH32 0xF4CBDEE769EA02D5757B91905563555CC648FE42FC3EF201E28D97D2BBDE965 DUP2 PUSH1 0x40 MLOAD PUSH1 0x1 PUSH1 0x1 PUSH1 0xA0 SHL SUB SWAP1 SWAP2 AND DUP2 MSTORE PUSH1 0x20 ADD PUSH1 0x40 MLOAD DUP1 SWAP2 SUB SWAP1 LOG1 POP JUMP JUMPDEST PUSH1 0x0 PUSH2 0xBA1 PUSH2 0x2B5F JUMP JUMPDEST PUSH1 0x0 DUP1 PUSH2 0xA2F PUSH2 0x320C JUMP JUMPDEST PUSH2 0x20CA PUSH2 0x25AB JUMP JUMPDEST PUSH2 0x21A0 PUSH2 0x218B PUSH2 0x20D8 PUSH2 0x2837 JUMP JUMPDEST PUSH20 0x0 PUSH4 0x907AF6C0 PUSH1 0x40 MLOAD DUP2 PUSH4 0xFFFFFFFF AND PUSH1 0xE0 SHL DUP2 MSTORE PUSH1 0x4 ADD PUSH1 0x20 PUSH1 0x40 MLOAD DUP1 DUP4 SUB DUP2 DUP7 DUP1 PUSH2 0x2117 PUSH2 0x30F8 JUMP JUMPDEST ISZERO DUP1 ISZERO PUSH2 0x212C JUMPI PUSH1 0x0 DUP1 PUSH2 0x2129 PUSH2 0x308D JUMP JUMPDEST POP POP JUMPDEST POP GAS PUSH2 0x2136 PUSH2 0x32A6 JUMP JUMPDEST POP POP POP POP POP ISZERO DUP1 ISZERO PUSH2 0x2155 JUMPI RETURNDATASIZE PUSH1 0x0 DUP1 RETURNDATACOPY RETURNDATASIZE PUSH1 0x0 PUSH2 0x2152 PUSH2 0x308D JUMP JUMPDEST POP POP JUMPDEST POP POP POP POP PUSH1 0x40 MLOAD RETURNDATASIZE PUSH1 0x20 DUP2 LT ISZERO PUSH2 0x2174 JUMPI PUSH1 0x0 DUP1 PUSH2 0x2171 PUSH2 0x308D JUMP JUMPDEST POP POP JUMPDEST DUP2 ADD SWAP1 DUP1 DUP1 MLOAD SWAP4 SWAP3 POP POP PUSH4 0xFFFFFFFF PUSH2 0x2BD2 AND SWAP1 POP JUMP JUMPDEST PUSH8 0xDE0B6B3A7640000 SWAP1 PUSH4 0xFFFFFFFF PUSH2 0x2C31 AND JUMP JUMPDEST DUP2 GT ISZERO PUSH2 0x21E7 JUMPI PUSH1 0x40 MLOAD PUSH3 0x461BCD PUSH1 0xE5 SHL DUP2 MSTORE PUSH1 0x4 ADD DUP1 DUP1 PUSH1 0x20 ADD DUP3 DUP2 SUB DUP3 MSTORE PUSH1 0x38 DUP2 MSTORE PUSH1 0x20 ADD DUP1 PUSH2 0x345C PUSH1 0x38 SWAP2 CODECOPY PUSH1 0x40 ADD SWAP2 POP POP PUSH1 0x40 MLOAD DUP1 SWAP2 SUB SWAP1 PUSH2 0x21E4 PUSH2 0x308D JUMP JUMPDEST POP POP JUMPDEST PUSH1 0x0 PUSH2 0x2209 PUSH8 0x1BC16D674EC80000 PUSH2 0x21FD PUSH2 0x2C4F JUMP JUMPDEST SWAP1 PUSH4 0xFFFFFFFF PUSH2 0x2CBE AND JUMP JUMPDEST SWAP1 POP DUP1 DUP3 LT ISZERO PUSH2 0x2253 JUMPI PUSH1 0x40 MLOAD PUSH3 0x461BCD PUSH1 0xE5 SHL DUP2 MSTORE PUSH1 0x4 ADD DUP1 DUP1 PUSH1 0x20 ADD DUP3 DUP2 SUB DUP3 MSTORE PUSH1 0x28 DUP2 MSTORE PUSH1 0x20 ADD DUP1 PUSH2 0x3537 PUSH1 0x28 SWAP2 CODECOPY PUSH1 0x40 ADD SWAP2 POP POP PUSH1 0x40 MLOAD DUP1 SWAP2 SUB SWAP1 PUSH2 0x2250 PUSH2 0x308D JUMP JUMPDEST POP POP JUMPDEST PUSH2 0x225B PUSH2 0x2625 JUMP JUMPDEST PUSH1 0x1 PUSH1 0x1 PUSH1 0xA0 SHL SUB AND PUSH4 0x1D5B277F PUSH1 0x0 DUP1 MLOAD PUSH1 0x20 PUSH2 0x34E4 DUP4 CODECOPY DUP2 MLOAD SWAP2 MSTORE PUSH16 0x6C69717569646174696F6E526174696F PUSH1 0x80 SHL DUP6 PUSH1 0x40 MLOAD PUSH1 0x1 PUSH1 0x1 PUSH1 0xE0 SHL SUB NOT PUSH1 0xE0 DUP7 SWAP1 SHL AND DUP2 MSTORE PUSH1 0x4 DUP2 ADD SWAP4 SWAP1 SWAP4 MSTORE PUSH1 0x24 DUP4 ADD SWAP2 SWAP1 SWAP2 MSTORE PUSH1 0x44 DUP3 ADD MSTORE PUSH1 0x64 ADD PUSH1 0x0 PUSH1 0x40 MLOAD DUP1 DUP4 SUB DUP2 PUSH1 0x0 DUP8 DUP1 PUSH2 0x22CE PUSH2 0x30F8 JUMP JUMPDEST ISZERO DUP1 ISZERO PUSH2 0x22E3 JUMPI PUSH1 0x0 DUP1 PUSH2 0x22E0 PUSH2 0x308D JUMP JUMPDEST POP POP JUMPDEST POP GAS PUSH2 0x22ED PUSH2 0x3153 JUMP JUMPDEST POP POP POP POP POP POP ISZERO DUP1 ISZERO PUSH2 0x230D JUMPI RETURNDATASIZE PUSH1 0x0 DUP1 RETURNDATACOPY RETURNDATASIZE PUSH1 0x0 PUSH2 0x230A PUSH2 0x308D JUMP JUMPDEST POP POP JUMPDEST POP POP POP POP PUSH32 0x5568BE83E5CF7405ADF8FB39305E2CDF49C43336606D23C3E0D3FE54E205150A DUP3 PUSH1 0x40 MLOAD SWAP1 DUP2 MSTORE PUSH1 0x20 ADD PUSH1 0x40 MLOAD DUP1 SWAP2 SUB SWAP1 LOG1 POP POP JUMP JUMPDEST PUSH1 0x0 PUSH2 0x2353 DUP3 PUSH2 0x2CE8 JUMP JUMPDEST SWAP3 SWAP2 POP POP JUMP JUMPDEST PUSH1 0x0 PUSH2 0xBA1 PUSH2 0x2DF3 JUMP JUMPDEST PUSH8 0x1BC16D674EC80000 DUP2 JUMP JUMPDEST PUSH2 0x2377 PUSH2 0x33E8 JUMP JUMPDEST PUSH1 0x0 JUMPDEST PUSH1 0x4 DUP1 PUSH2 0x2385 PUSH2 0x320C JUMP JUMPDEST SWAP1 POP DUP2 LT ISZERO PUSH2 0x23CD JUMPI PUSH1 0x4 DUP2 DUP2 PUSH2 0x239A PUSH2 0x320C JUMP JUMPDEST DUP2 LT PUSH2 0x23A2 JUMPI INVALID JUMPDEST SWAP1 PUSH1 0x0 MSTORE PUSH1 0x20 PUSH1 0x0 KECCAK256 ADD PUSH2 0x23B4 PUSH2 0x320C JUMP JUMPDEST DUP3 DUP3 PUSH1 0x18 DUP2 LT PUSH2 0x23C0 JUMPI INVALID JUMPDEST PUSH1 0x20 MUL ADD MSTORE PUSH1 0x1 ADD PUSH2 0x237A JUMP JUMPDEST POP SWAP1 JUMP JUMPDEST PUSH3 0x15180 DUP2 JUMP JUMPDEST PUSH1 0x0 PUSH2 0xBA1 PUSH2 0x2E65 JUMP JUMPDEST PUSH1 0x32 DUP2 JUMP JUMPDEST PUSH1 0x0 PUSH2 0xBA1 PUSH2 0x2C4F JUMP JUMPDEST PUSH1 0x0 PUSH2 0xBA1 PUSH2 0x2EDC JUMP JUMPDEST PUSH1 0x4 DUP2 DUP2 PUSH2 0x2407 PUSH2 0x320C JUMP JUMPDEST DUP2 LT PUSH2 0x240F JUMPI INVALID JUMPDEST SWAP1 PUSH1 0x0 MSTORE PUSH1 0x20 PUSH1 0x0 KECCAK256 ADD SWAP1 POP PUSH2 0x2423 PUSH2 0x320C JUMP JUMPDEST DUP2 JUMP JUMPDEST PUSH1 0x0 PUSH2 0xBA1 PUSH2 0x2F53 JUMP JUMPDEST PUSH1 0x18 DUP2 JUMP JUMPDEST PUSH2 0x243D PUSH2 0x25AB JUMP JUMPDEST PUSH3 0x93A80 DUP2 GT ISZERO PUSH2 0x249D JUMPI PUSH1 0x40 MLOAD PUSH3 0x461BCD PUSH1 0xE5 SHL DUP2 MSTORE PUSH1 0x20 PUSH1 0x4 DUP3 ADD DUP2 SWAP1 MSTORE PUSH1 0x24 DUP3 ADD MSTORE PUSH32 0x7374616B652074696D6520657863656564206D6178696D756D2031207765656B PUSH1 0x44 DUP3 ADD MSTORE PUSH1 0x64 ADD PUSH1 0x40 MLOAD DUP1 SWAP2 SUB SWAP1 PUSH2 0x249A PUSH2 0x308D JUMP JUMPDEST POP POP JUMPDEST PUSH2 0x24A5 PUSH2 0x2625 JUMP JUMPDEST PUSH1 0x1 PUSH1 0x1 PUSH1 0xA0 SHL SUB AND PUSH4 0x1D5B277F PUSH1 0x0 DUP1 MLOAD PUSH1 0x20 PUSH2 0x34E4 DUP4 CODECOPY DUP2 MLOAD SWAP2 MSTORE PUSH16 0x6D696E696D756D5374616B6554696D65 PUSH1 0x80 SHL DUP5 PUSH1 0x40 MLOAD PUSH1 0x1 PUSH1 0x1 PUSH1 0xE0 SHL SUB NOT PUSH1 0xE0 DUP7 SWAP1 SHL AND DUP2 MSTORE PUSH1 0x4 DUP2 ADD SWAP4 SWAP1 SWAP4 MSTORE PUSH1 0x24 DUP4 ADD SWAP2 SWAP1 SWAP2 MSTORE PUSH1 0x44 DUP3 ADD MSTORE PUSH1 0x64 ADD PUSH1 0x0 PUSH1 0x40 MLOAD DUP1 DUP4 SUB DUP2 PUSH1 0x0 DUP8 DUP1 PUSH2 0x2518 PUSH2 0x30F8 JUMP JUMPDEST ISZERO DUP1 ISZERO PUSH2 0x252D JUMPI PUSH1 0x0 DUP1 PUSH2 0x252A PUSH2 0x308D JUMP JUMPDEST POP POP JUMPDEST POP GAS PUSH2 0x2537 PUSH2 0x3153 JUMP JUMPDEST POP POP POP POP POP POP ISZERO DUP1 ISZERO PUSH2 0x2557 JUMPI RETURNDATASIZE PUSH1 0x0 DUP1 RETURNDATACOPY RETURNDATASIZE PUSH1 0x0 PUSH2 0x2554 PUSH2 0x308D JUMP JUMPDEST POP POP JUMPDEST POP POP POP POP PUSH32 0x2B0FA66D155C9598699CB6569577F27B95729BBF580268EED39DB6BC4E814477 DUP2 PUSH1 0x40 MLOAD SWAP1 DUP2 MSTORE PUSH1 0x20 ADD PUSH1 0x40 MLOAD DUP1 SWAP2 SUB SWAP1 LOG1 POP JUMP JUMPDEST PUSH3 0x278D00 DUP2 JUMP JUMPDEST PUSH3 0x4F1A00 DUP2 JUMP JUMPDEST PUSH8 0x16345785D8A0000 DUP2 JUMP JUMPDEST PUSH1 0x0 DUP1 PUSH2 0x25B6 PUSH2 0x320C JUMP JUMPDEST SWAP1 PUSH2 0x100 EXP SWAP1 DIV PUSH1 0x1 PUSH1 0x1 PUSH1 0xA0 SHL SUB AND PUSH1 0x1 PUSH1 0x1 PUSH1 0xA0 SHL SUB AND GAS PUSH2 0x25D8 PUSH2 0x33A2 JUMP JUMPDEST PUSH1 0x1 PUSH1 0x1 PUSH1 0xA0 SHL SUB AND EQ PUSH2 0x2623 JUMPI PUSH1 0x40 MLOAD PUSH3 0x461BCD PUSH1 0xE5 SHL DUP2 MSTORE PUSH1 0x4 ADD DUP1 DUP1 PUSH1 0x20 ADD DUP3 DUP2 SUB DUP3 MSTORE PUSH1 0x2F DUP2 MSTORE PUSH1 0x20 ADD DUP1 PUSH2 0x3494 PUSH1 0x2F SWAP2 CODECOPY PUSH1 0x40 ADD SWAP2 POP POP PUSH1 0x40 MLOAD DUP1 SWAP2 SUB SWAP1 PUSH2 0x14EB PUSH2 0x308D JUMP JUMPDEST JUMP JUMPDEST PUSH1 0x0 PUSH2 0xBA1 PUSH15 0x466C657869626C6553746F72616765 PUSH1 0x88 SHL PUSH1 0x40 MLOAD PUSH1 0x40 DUP1 DUP3 ADD SWAP1 MSTORE PUSH1 0x1F DUP2 MSTORE PUSH32 0x4D697373696E6720466C657869626C6553746F72616765206164647265737300 PUSH1 0x20 DUP3 ADD MSTORE PUSH2 0x2FC4 JUMP JUMPDEST PUSH1 0x0 PUSH2 0x2680 PUSH2 0x2625 JUMP JUMPDEST PUSH1 0x1 PUSH1 0x1 PUSH1 0xA0 SHL SUB AND PUSH4 0x23257C2B PUSH1 0x0 DUP1 MLOAD PUSH1 0x20 PUSH2 0x34E4 DUP4 CODECOPY DUP2 MLOAD SWAP2 MSTORE PUSH15 0x1C985D1954DD185B1954195C9A5BD9 PUSH1 0x8A SHL PUSH1 0x40 MLOAD PUSH1 0x1 PUSH1 0x1 PUSH1 0xE0 SHL SUB NOT PUSH1 0xE0 DUP6 SWAP1 SHL AND DUP2 MSTORE PUSH1 0x4 DUP2 ADD SWAP3 SWAP1 SWAP3 MSTORE PUSH1 0x24 DUP3 ADD MSTORE PUSH1 0x44 ADD PUSH1 0x20 PUSH1 0x40 MLOAD DUP1 DUP4 SUB DUP2 DUP7 DUP1 PUSH2 0x26E7 PUSH2 0x30F8 JUMP JUMPDEST ISZERO DUP1 ISZERO PUSH2 0x26FC JUMPI PUSH1 0x0 DUP1 PUSH2 0x26F9 PUSH2 0x308D JUMP JUMPDEST POP POP JUMPDEST POP GAS PUSH2 0x2706 PUSH2 0x335F JUMP JUMPDEST POP POP POP POP POP ISZERO DUP1 ISZERO PUSH2 0x2725 JUMPI RETURNDATASIZE PUSH1 0x0 DUP1 RETURNDATACOPY RETURNDATASIZE PUSH1 0x0 PUSH2 0x2722 PUSH2 0x308D JUMP JUMPDEST POP POP JUMPDEST POP POP POP POP PUSH1 0x40 MLOAD RETURNDATASIZE PUSH1 0x20 DUP2 LT ISZERO PUSH2 0x2744 JUMPI PUSH1 0x0 DUP1 PUSH2 0x2741 PUSH2 0x308D JUMP JUMPDEST POP POP JUMPDEST DUP2 ADD SWAP1 DUP1 DUP1 MLOAD SWAP4 POP POP POP POP SWAP1 JUMP JUMPDEST PUSH1 0x0 PUSH2 0x275C PUSH2 0x2625 JUMP JUMPDEST PUSH1 0x1 PUSH1 0x1 PUSH1 0xA0 SHL SUB AND PUSH4 0x23257C2B PUSH1 0x0 DUP1 MLOAD PUSH1 0x20 PUSH2 0x34E4 DUP4 CODECOPY DUP2 MLOAD SWAP2 MSTORE PUSH16 0x6C69717569646174696F6E526174696F PUSH1 0x80 SHL PUSH1 0x40 MLOAD PUSH1 0x1 PUSH1 0x1 PUSH1 0xE0 SHL SUB NOT PUSH1 0xE0 DUP6 SWAP1 SHL AND DUP2 MSTORE PUSH1 0x4 DUP2 ADD SWAP3 SWAP1 SWAP3 MSTORE PUSH1 0x24 DUP3 ADD MSTORE PUSH1 0x44 ADD PUSH1 0x20 PUSH1 0x40 MLOAD DUP1 DUP4 SUB DUP2 DUP7 DUP1 PUSH2 0x26E7 PUSH2 0x30F8 JUMP JUMPDEST PUSH1 0x0 PUSH2 0x27CE PUSH2 0x2625 JUMP JUMPDEST PUSH1 0x1 PUSH1 0x1 PUSH1 0xA0 SHL SUB AND PUSH4 0x23257C2B PUSH1 0x0 DUP1 MLOAD PUSH1 0x20 PUSH2 0x34E4 DUP4 CODECOPY DUP2 MLOAD SWAP2 MSTORE PUSH17 0x3332B2A832B934B7B2223AB930BA34B7B7 PUSH1 0x79 SHL PUSH1 0x40 MLOAD PUSH1 0x1 PUSH1 0x1 PUSH1 0xE0 SHL SUB NOT PUSH1 0xE0 DUP6 SWAP1 SHL AND DUP2 MSTORE PUSH1 0x4 DUP2 ADD SWAP3 SWAP1 SWAP3 MSTORE PUSH1 0x24 DUP3 ADD MSTORE PUSH1 0x44 ADD PUSH1 0x20 PUSH1 0x40 MLOAD DUP1 DUP4 SUB DUP2 DUP7 DUP1 PUSH2 0x26E7 PUSH2 0x30F8 JUMP JUMPDEST PUSH1 0x0 PUSH2 0x2841 PUSH2 0x2625 JUMP JUMPDEST PUSH1 0x1 PUSH1 0x1 PUSH1 0xA0 SHL SUB AND PUSH4 0x23257C2B PUSH1 0x0 DUP1 MLOAD PUSH1 0x20 PUSH2 0x34E4 DUP4 CODECOPY DUP2 MLOAD SWAP2 MSTORE PUSH18 0x6C69717569646174696F6E50656E616C7479 PUSH1 0x70 SHL PUSH1 0x40 MLOAD PUSH1 0x1 PUSH1 0x1 PUSH1 0xE0 SHL SUB NOT PUSH1 0xE0 DUP6 SWAP1 SHL AND DUP2 MSTORE PUSH1 0x4 DUP2 ADD SWAP3 SWAP1 SWAP3 MSTORE PUSH1 0x24 DUP3 ADD MSTORE PUSH1 0x44 ADD PUSH1 0x20 PUSH1 0x40 MLOAD DUP1 DUP4 SUB DUP2 DUP7 DUP1 PUSH2 0x26E7 PUSH2 0x30F8 JUMP JUMPDEST PUSH1 0x0 PUSH2 0x28B5 PUSH2 0x2625 JUMP JUMPDEST PUSH1 0x1 PUSH1 0x1 PUSH1 0xA0 SHL SUB AND PUSH4 0x23257C2B PUSH1 0x0 DUP1 MLOAD PUSH1 0x20 PUSH2 0x34E4 DUP4 CODECOPY DUP2 MLOAD SWAP2 MSTORE PUSH16 0x6D696E696D756D5374616B6554696D65 PUSH1 0x80 SHL PUSH1 0x40 MLOAD PUSH1 0x1 PUSH1 0x1 PUSH1 0xE0 SHL SUB NOT PUSH1 0xE0 DUP6 SWAP1 SHL AND DUP2 MSTORE PUSH1 0x4 DUP2 ADD SWAP3 SWAP1 SWAP3 MSTORE PUSH1 0x24 DUP3 ADD MSTORE PUSH1 0x44 ADD PUSH1 0x20 PUSH1 0x40 MLOAD DUP1 DUP4 SUB DUP2 DUP7 DUP1 PUSH2 0x26E7 PUSH2 0x30F8 JUMP JUMPDEST PUSH1 0x0 DUP3 PUSH2 0x292C JUMPI POP PUSH1 0x0 PUSH2 0x2353 JUMP JUMPDEST DUP3 DUP3 MUL DUP3 DUP5 DUP3 DUP2 PUSH2 0x2939 JUMPI INVALID JUMPDEST DIV EQ PUSH2 0x297F JUMPI PUSH1 0x40 MLOAD PUSH3 0x461BCD PUSH1 0xE5 SHL DUP2 MSTORE PUSH1 0x4 ADD DUP1 DUP1 PUSH1 0x20 ADD DUP3 DUP2 SUB DUP3 MSTORE PUSH1 0x21 DUP2 MSTORE PUSH1 0x20 ADD DUP1 PUSH2 0x34C3 PUSH1 0x21 SWAP2 CODECOPY PUSH1 0x40 ADD SWAP2 POP POP PUSH1 0x40 MLOAD DUP1 SWAP2 SUB SWAP1 PUSH2 0x297C PUSH2 0x308D JUMP JUMPDEST POP POP JUMPDEST SWAP4 SWAP3 POP POP POP JUMP JUMPDEST PUSH1 0x0 DUP1 DUP3 GT PUSH2 0x29E4 JUMPI PUSH1 0x40 MLOAD PUSH3 0x461BCD PUSH1 0xE5 SHL DUP2 MSTORE PUSH1 0x20 PUSH1 0x4 DUP3 ADD MSTORE PUSH1 0x1A PUSH1 0x24 DUP3 ADD MSTORE PUSH32 0x536166654D6174683A206469766973696F6E206279207A65726F000000000000 PUSH1 0x44 DUP3 ADD MSTORE PUSH1 0x64 ADD PUSH1 0x40 MLOAD DUP1 SWAP2 SUB SWAP1 PUSH2 0x29E1 PUSH2 0x308D JUMP JUMPDEST POP POP JUMPDEST PUSH1 0x0 DUP3 DUP5 DUP2 PUSH2 0x29EF JUMPI INVALID JUMPDEST DIV SWAP5 SWAP4 POP POP POP POP JUMP JUMPDEST PUSH1 0x0 PUSH2 0x2A02 PUSH2 0x2625 JUMP JUMPDEST PUSH1 0x1 PUSH1 0x1 PUSH1 0xA0 SHL SUB AND PUSH4 0x23257C2B PUSH1 0x0 DUP1 MLOAD PUSH1 0x20 PUSH2 0x34E4 DUP4 CODECOPY DUP2 MLOAD SWAP2 MSTORE PUSH32 0x7072696365446576696174696F6E5468726573686F6C64466163746F72000000 PUSH1 0x40 MLOAD PUSH1 0x1 PUSH1 0x1 PUSH1 0xE0 SHL SUB NOT PUSH1 0xE0 DUP6 SWAP1 SHL AND DUP2 MSTORE PUSH1 0x4 DUP2 ADD SWAP3 SWAP1 SWAP3 MSTORE PUSH1 0x24 DUP3 ADD MSTORE PUSH1 0x44 ADD PUSH1 0x20 PUSH1 0x40 MLOAD DUP1 DUP4 SUB DUP2 DUP7 DUP1 PUSH2 0x26E7 PUSH2 0x30F8 JUMP JUMPDEST PUSH1 0x0 PUSH2 0x2A81 PUSH2 0x2625 JUMP JUMPDEST PUSH1 0x1 PUSH1 0x1 PUSH1 0xA0 SHL SUB AND PUSH4 0x9EE5955A PUSH1 0x0 DUP1 MLOAD PUSH1 0x20 PUSH2 0x34E4 DUP4 CODECOPY DUP2 MLOAD SWAP2 MSTORE PUSH22 0x61676772656761746F725761726E696E67466C616773 PUSH1 0x50 SHL PUSH1 0x40 MLOAD PUSH1 0x1 PUSH1 0x1 PUSH1 0xE0 SHL SUB NOT PUSH1 0xE0 DUP6 SWAP1 SHL AND DUP2 MSTORE PUSH1 0x4 DUP2 ADD SWAP3 SWAP1 SWAP3 MSTORE PUSH1 0x24 DUP3 ADD MSTORE PUSH1 0x44 ADD PUSH1 0x20 PUSH1 0x40 MLOAD DUP1 DUP4 SUB DUP2 DUP7 DUP1 PUSH2 0x26E7 PUSH2 0x30F8 JUMP JUMPDEST PUSH1 0x0 PUSH2 0x2AF9 PUSH2 0x2625 JUMP JUMPDEST PUSH1 0x1 PUSH1 0x1 PUSH1 0xA0 SHL SUB AND PUSH4 0x23257C2B PUSH1 0x0 DUP1 MLOAD PUSH1 0x20 PUSH2 0x34E4 DUP4 CODECOPY DUP2 MLOAD SWAP2 MSTORE PUSH14 0x1B585E1A5B5D5B51195C1BDCDA5D PUSH1 0x92 SHL PUSH1 0x40 MLOAD PUSH1 0x1 PUSH1 0x1 PUSH1 0xE0 SHL SUB NOT PUSH1 0xE0 DUP6 SWAP1 SHL AND DUP2 MSTORE PUSH1 0x4 DUP2 ADD SWAP3 SWAP1 SWAP3 MSTORE PUSH1 0x24 DUP3 ADD MSTORE PUSH1 0x44 ADD PUSH1 0x20 PUSH1 0x40 MLOAD DUP1 DUP4 SUB DUP2 DUP7 DUP1 PUSH2 0x26E7 PUSH2 0x30F8 JUMP JUMPDEST PUSH1 0x0 PUSH2 0x2B69 PUSH2 0x2625 JUMP JUMPDEST PUSH1 0x1 PUSH1 0x1 PUSH1 0xA0 SHL SUB AND PUSH4 0x23257C2B PUSH1 0x0 DUP1 MLOAD PUSH1 0x20 PUSH2 0x34E4 DUP4 CODECOPY DUP2 MLOAD SWAP2 MSTORE PUSH17 0x77616974696E67506572696F6453656373 PUSH1 0x78 SHL PUSH1 0x40 MLOAD PUSH1 0x1 PUSH1 0x1 PUSH1 0xE0 SHL SUB NOT PUSH1 0xE0 DUP6 SWAP1 SHL AND DUP2 MSTORE PUSH1 0x4 DUP2 ADD SWAP3 SWAP1 SWAP3 MSTORE PUSH1 0x24 DUP3 ADD MSTORE PUSH1 0x44 ADD PUSH1 0x20 PUSH1 0x40 MLOAD DUP1 DUP4 SUB DUP2 DUP7 DUP1 PUSH2 0x26E7 PUSH2 0x30F8 JUMP JUMPDEST PUSH1 0x0 DUP3 DUP3 ADD DUP4 DUP2 LT ISZERO PUSH2 0x297F JUMPI PUSH1 0x40 MLOAD PUSH3 0x461BCD PUSH1 0xE5 SHL DUP2 MSTORE PUSH1 0x20 PUSH1 0x4 DUP3 ADD MSTORE PUSH1 0x1B PUSH1 0x24 DUP3 ADD MSTORE PUSH32 0x536166654D6174683A206164646974696F6E206F766572666C6F770000000000 PUSH1 0x44 DUP3 ADD MSTORE PUSH1 0x64 ADD PUSH1 0x40 MLOAD DUP1 SWAP2 SUB SWAP1 PUSH2 0x297C PUSH2 0x308D JUMP JUMPDEST PUSH1 0x0 PUSH2 0x297F DUP3 PUSH2 0x1219 DUP6 PUSH8 0xDE0B6B3A7640000 PUSH4 0xFFFFFFFF PUSH2 0x291D AND JUMP JUMPDEST PUSH1 0x0 PUSH2 0x2C59 PUSH2 0x2625 JUMP JUMPDEST PUSH1 0x1 PUSH1 0x1 PUSH1 0xA0 SHL SUB AND PUSH4 0x23257C2B PUSH1 0x0 DUP1 MLOAD PUSH1 0x20 PUSH2 0x34E4 DUP4 CODECOPY DUP2 MLOAD SWAP2 MSTORE PUSH13 0x69737375616E6365526174696F PUSH1 0x98 SHL PUSH1 0x40 MLOAD PUSH1 0x1 PUSH1 0x1 PUSH1 0xE0 SHL SUB NOT PUSH1 0xE0 DUP6 SWAP1 SHL AND DUP2 MSTORE PUSH1 0x4 DUP2 ADD SWAP3 SWAP1 SWAP3 MSTORE PUSH1 0x24 DUP3 ADD MSTORE PUSH1 0x44 ADD PUSH1 0x20 PUSH1 0x40 MLOAD DUP1 DUP4 SUB DUP2 DUP7 DUP1 PUSH2 0x26E7 PUSH2 0x30F8 JUMP JUMPDEST PUSH1 0x0 PUSH8 0xDE0B6B3A7640000 PUSH2 0x2CD9 DUP5 DUP5 PUSH4 0xFFFFFFFF PUSH2 0x291D AND JUMP JUMPDEST DUP2 PUSH2 0x2CE0 JUMPI INVALID JUMPDEST DIV SWAP4 SWAP3 POP POP POP JUMP JUMPDEST PUSH1 0x0 PUSH2 0x2CF2 PUSH2 0x2625 JUMP JUMPDEST PUSH1 0x1 PUSH1 0x1 PUSH1 0xA0 SHL SUB AND PUSH4 0x23257C2B PUSH1 0x0 DUP1 MLOAD PUSH1 0x20 PUSH2 0x34E4 DUP4 CODECOPY DUP2 MLOAD SWAP2 MSTORE PUSH15 0x65786368616E676546656552617465 PUSH1 0x88 SHL DUP6 PUSH1 0x40 MLOAD PUSH1 0x20 ADD DUP1 DUP4 DUP2 MSTORE PUSH1 0x20 ADD DUP3 DUP2 MSTORE PUSH1 0x20 ADD SWAP3 POP POP POP PUSH1 0x40 MLOAD PUSH1 0x20 DUP2 DUP4 SUB SUB DUP2 MSTORE SWAP1 PUSH1 0x40 MSTORE DUP1 MLOAD SWAP1 PUSH1 0x20 ADD KECCAK256 PUSH1 0x40 MLOAD PUSH1 0x1 PUSH1 0x1 PUSH1 0xE0 SHL SUB NOT PUSH1 0xE0 DUP6 SWAP1 SHL AND DUP2 MSTORE PUSH1 0x4 DUP2 ADD SWAP3 SWAP1 SWAP3 MSTORE PUSH1 0x24 DUP3 ADD MSTORE PUSH1 0x44 ADD PUSH1 0x20 PUSH1 0x40 MLOAD DUP1 DUP4 SUB DUP2 DUP7 DUP1 PUSH2 0x2D87 PUSH2 0x30F8 JUMP JUMPDEST ISZERO DUP1 ISZERO PUSH2 0x2D9C JUMPI PUSH1 0x0 DUP1 PUSH2 0x2D99 PUSH2 0x308D JUMP JUMPDEST POP POP JUMPDEST POP GAS PUSH2 0x2DA6 PUSH2 0x335F JUMP JUMPDEST POP POP POP POP POP ISZERO DUP1 ISZERO PUSH2 0x2DC5 JUMPI RETURNDATASIZE PUSH1 0x0 DUP1 RETURNDATACOPY RETURNDATASIZE PUSH1 0x0 PUSH2 0x2DC2 PUSH2 0x308D JUMP JUMPDEST POP POP JUMPDEST POP POP POP POP PUSH1 0x40 MLOAD RETURNDATASIZE PUSH1 0x20 DUP2 LT ISZERO PUSH2 0x2DE4 JUMPI PUSH1 0x0 DUP1 PUSH2 0x2DE1 PUSH2 0x308D JUMP JUMPDEST POP POP JUMPDEST DUP2 ADD SWAP1 DUP1 DUP1 MLOAD SWAP6 SWAP5 POP POP POP POP POP JUMP JUMPDEST PUSH1 0x0 PUSH2 0x2DFD PUSH2 0x2625 JUMP JUMPDEST PUSH1 0x1 PUSH1 0x1 PUSH1 0xA0 SHL SUB AND PUSH4 0x23257C2B PUSH1 0x0 DUP1 MLOAD PUSH1 0x20 PUSH2 0x34E4 DUP4 CODECOPY DUP2 MLOAD SWAP2 MSTORE PUSH16 0x6C69717569646174696F6E44656C6179 PUSH1 0x80 SHL PUSH1 0x40 MLOAD PUSH1 0x1 PUSH1 0x1 PUSH1 0xE0 SHL SUB NOT PUSH1 0xE0 DUP6 SWAP1 SHL AND DUP2 MSTORE PUSH1 0x4 DUP2 ADD SWAP3 SWAP1 SWAP3 MSTORE PUSH1 0x24 DUP3 ADD MSTORE PUSH1 0x44 ADD PUSH1 0x20 PUSH1 0x40 MLOAD DUP1 DUP4 SUB DUP2 DUP7 DUP1 PUSH2 0x26E7 PUSH2 0x30F8 JUMP JUMPDEST PUSH1 0x0 PUSH2 0x2E6F PUSH2 0x2625 JUMP JUMPDEST PUSH1 0x1 PUSH1 0x1 PUSH1 0xA0 SHL SUB AND PUSH4 0x23257C2B PUSH1 0x0 DUP1 MLOAD PUSH1 0x20 PUSH2 0x34E4 DUP4 CODECOPY DUP2 MLOAD SWAP2 MSTORE PUSH21 0x64656274536E617073686F745374616C6554696D65 PUSH1 0x58 SHL PUSH1 0x40 MLOAD PUSH1 0x1 PUSH1 0x1 PUSH1 0xE0 SHL SUB NOT PUSH1 0xE0 DUP6 SWAP1 SHL AND DUP2 MSTORE PUSH1 0x4 DUP2 ADD SWAP3 SWAP1 SWAP3 MSTORE PUSH1 0x24 DUP3 ADD MSTORE PUSH1 0x44 ADD PUSH1 0x20 PUSH1 0x40 MLOAD DUP1 DUP4 SUB DUP2 DUP7 DUP1 PUSH2 0x26E7 PUSH2 0x30F8 JUMP JUMPDEST PUSH1 0x0 PUSH2 0x2EE6 PUSH2 0x2625 JUMP JUMPDEST PUSH1 0x1 PUSH1 0x1 PUSH1 0xA0 SHL SUB AND PUSH4 0xD994502D PUSH1 0x0 DUP1 MLOAD PUSH1 0x20 PUSH2 0x34E4 DUP4 CODECOPY DUP2 MLOAD SWAP2 MSTORE PUSH21 0x1D1C98591A5B99D4995DD85C991CD15B98589B1959 PUSH1 0x5A SHL PUSH1 0x40 MLOAD PUSH1 0x1 PUSH1 0x1 PUSH1 0xE0 SHL SUB NOT PUSH1 0xE0 DUP6 SWAP1 SHL AND DUP2 MSTORE PUSH1 0x4 DUP2 ADD SWAP3 SWAP1 SWAP3 MSTORE PUSH1 0x24 DUP3 ADD MSTORE PUSH1 0x44 ADD PUSH1 0x20 PUSH1 0x40 MLOAD DUP1 DUP4 SUB DUP2 DUP7 DUP1 PUSH2 0x26E7 PUSH2 0x30F8 JUMP JUMPDEST PUSH1 0x0 PUSH2 0x2F5D PUSH2 0x2625 JUMP JUMPDEST PUSH1 0x1 PUSH1 0x1 PUSH1 0xA0 SHL SUB AND PUSH4 0x23257C2B PUSH1 0x0 DUP1 MLOAD PUSH1 0x20 PUSH2 0x34E4 DUP4 CODECOPY DUP2 MLOAD SWAP2 MSTORE PUSH15 0x1D185C99D95D151A1C995CDA1BDB19 PUSH1 0x8A SHL PUSH1 0x40 MLOAD PUSH1 0x1 PUSH1 0x1 PUSH1 0xE0 SHL SUB NOT PUSH1 0xE0 DUP6 SWAP1 SHL AND DUP2 MSTORE PUSH1 0x4 DUP2 ADD SWAP3 SWAP1 SWAP3 MSTORE PUSH1 0x24 DUP3 ADD MSTORE PUSH1 0x44 ADD PUSH1 0x20 PUSH1 0x40 MLOAD DUP1 DUP4 SUB DUP2 DUP7 DUP1 PUSH2 0x26E7 PUSH2 0x30F8 JUMP JUMPDEST PUSH1 0x0 DUP3 DUP2 MSTORE PUSH1 0x3 PUSH1 0x20 MSTORE DUP1 PUSH1 0x40 DUP2 KECCAK256 PUSH1 0x0 SWAP1 PUSH2 0x2FDE PUSH2 0x320C JUMP JUMPDEST PUSH1 0x1 PUSH1 0x1 PUSH1 0xA0 SHL SUB PUSH2 0x100 SWAP3 SWAP1 SWAP3 EXP SWAP1 DIV AND SWAP1 POP DUP3 DUP2 PUSH2 0x3085 JUMPI PUSH1 0x40 MLOAD PUSH3 0x461BCD PUSH1 0xE5 SHL DUP2 MSTORE PUSH1 0x4 ADD DUP1 DUP1 PUSH1 0x20 ADD DUP3 DUP2 SUB DUP3 MSTORE DUP4 DUP2 DUP2 MLOAD DUP2 MSTORE PUSH1 0x20 ADD SWAP2 POP DUP1 MLOAD SWAP1 PUSH1 0x20 ADD SWAP1 DUP1 DUP4 DUP4 PUSH1 0x0 JUMPDEST DUP4 DUP2 LT ISZERO PUSH2 0x3041 JUMPI DUP1 DUP3 ADD MLOAD DUP4 DUP3 ADD MSTORE PUSH1 0x20 ADD PUSH2 0x3029 JUMP JUMPDEST POP POP POP POP SWAP1 POP SWAP1 DUP2 ADD SWAP1 PUSH1 0x1F AND DUP1 ISZERO PUSH2 0x306E JUMPI DUP1 DUP3 SUB DUP1 MLOAD PUSH1 0x1 DUP4 PUSH1 0x20 SUB PUSH2 0x100 EXP SUB NOT AND DUP2 MSTORE PUSH1 0x20 ADD SWAP2 POP JUMPDEST POP SWAP3 POP POP POP PUSH1 0x40 MLOAD DUP1 SWAP2 SUB SWAP1 PUSH2 0x3082 PUSH2 0x308D JUMP JUMPDEST POP POP JUMPDEST POP SWAP4 SWAP3 POP POP POP JUMP JUMPDEST PUSH4 0x2A2A7ADB MSIZE DUP2 PUSH1 0xE0 SHL DUP2 MSTORE PUSH1 0x4 DUP2 ADD PUSH1 0x20 DUP2 MSTORE DUP6 PUSH1 0x20 DUP3 ADD MSTORE PUSH1 0x0 JUMPDEST DUP7 DUP2 LT ISZERO PUSH2 0x30C5 JUMPI DUP1 DUP7 ADD MLOAD DUP3 DUP3 ADD PUSH1 0x40 ADD MSTORE PUSH1 0x20 ADD PUSH2 0x30AA JUMP JUMPDEST POP PUSH1 0x20 DUP3 DUP8 PUSH1 0x64 ADD DUP5 CALLER PUSH1 0x0 SWAP1 GAS CALL PC PUSH1 0xE ADD JUMPI RETURNDATASIZE PUSH1 0x0 DUP1 RETURNDATACOPY RETURNDATASIZE PUSH1 0x0 REVERT JUMPDEST RETURNDATASIZE PUSH1 0x1 EQ ISZERO PC PUSH1 0xA ADD JUMPI PUSH1 0x1 PUSH1 0x0 RETURN JUMPDEST POP POP POP JUMP JUMPDEST PUSH4 0x8435035B MSIZE DUP2 PUSH1 0xE0 SHL DUP2 MSTORE DUP4 PUSH1 0x4 DUP3 ADD MSTORE PUSH1 0x20 DUP2 PUSH1 0x24 DUP4 CALLER PUSH1 0x0 SWAP1 GAS CALL PC PUSH1 0xE ADD JUMPI RETURNDATASIZE PUSH1 0x0 DUP1 RETURNDATACOPY RETURNDATASIZE PUSH1 0x0 REVERT JUMPDEST RETURNDATASIZE PUSH1 0x1 EQ ISZERO PC PUSH1 0xA ADD JUMPI PUSH1 0x1 PUSH1 0x0 RETURN JUMPDEST DUP1 MLOAD SWAP4 POP PUSH1 0x0 JUMPDEST PUSH1 0x40 DUP2 LT ISZERO PUSH2 0x1E35 JUMPI PUSH1 0x0 DUP3 DUP3 ADD MSTORE PUSH1 0x20 ADD PUSH2 0x313C JUMP JUMPDEST PUSH4 0x85979F76 MSIZE DUP2 PUSH1 0xE0 SHL DUP2 MSTORE DUP4 PUSH1 0x4 DUP3 ADD MSTORE DUP5 PUSH1 0x24 DUP3 ADD MSTORE PUSH1 0x60 PUSH1 0x44 DUP3 ADD MSTORE DUP8 PUSH1 0x64 DUP3 ADD MSTORE PUSH1 0x84 DUP2 ADD PUSH1 0x0 JUMPDEST DUP10 DUP2 LT ISZERO PUSH2 0x3197 JUMPI DUP1 DUP10 ADD MLOAD DUP3 DUP3 ADD MSTORE PUSH1 0x20 ADD PUSH2 0x317F JUMP JUMPDEST POP DUP9 PUSH2 0x104 ADD DUP3 ADD PUSH1 0x60 DUP4 DUP12 PUSH2 0x104 ADD DUP6 CALLER PUSH1 0x0 SWAP1 GAS CALL PC PUSH1 0xE ADD JUMPI RETURNDATASIZE PUSH1 0x0 DUP1 RETURNDATACOPY RETURNDATASIZE PUSH1 0x0 REVERT JUMPDEST RETURNDATASIZE PUSH1 0x1 EQ ISZERO PC PUSH1 0xA ADD JUMPI PUSH1 0x1 PUSH1 0x0 RETURN JUMPDEST DUP3 MLOAD PUSH1 0x40 DUP5 ADD MLOAD RETURNDATASIZE PUSH1 0x0 DUP7 RETURNDATACOPY DUP14 DUP14 DUP3 PUSH1 0x60 DUP9 ADD CALLER POP PUSH1 0x0 PUSH1 0x4 GAS CALL POP MSIZE DUP6 JUMPDEST DUP2 DUP2 LT ISZERO PUSH2 0x3200 JUMPI PUSH1 0x0 DUP2 MSTORE PUSH1 0x20 ADD PUSH2 0x31EC JUMP JUMPDEST POP SWAP2 SWAP14 POP POP POP POP POP POP POP JUMP JUMPDEST PUSH4 0x3DAA959 MSIZE DUP2 PUSH1 0xE0 SHL DUP2 MSTORE DUP4 PUSH1 0x4 DUP3 ADD MSTORE PUSH1 0x20 DUP2 PUSH1 0x24 DUP4 CALLER PUSH1 0x0 SWAP1 GAS CALL PC PUSH1 0xE ADD JUMPI RETURNDATASIZE PUSH1 0x0 DUP1 RETURNDATACOPY RETURNDATASIZE PUSH1 0x0 REVERT JUMPDEST RETURNDATASIZE PUSH1 0x1 EQ ISZERO PC PUSH1 0xA ADD JUMPI PUSH1 0x1 PUSH1 0x0 RETURN JUMPDEST DUP1 MLOAD PUSH1 0x0 DUP3 MSTORE SWAP4 POP PUSH1 0x20 PUSH2 0x313C JUMP JUMPDEST PUSH4 0x22BD64C0 MSIZE DUP2 PUSH1 0xE0 SHL DUP2 MSTORE DUP4 PUSH1 0x4 DUP3 ADD MSTORE DUP5 PUSH1 0x24 DUP3 ADD MSTORE PUSH1 0x0 DUP2 PUSH1 0x44 DUP4 CALLER PUSH1 0x0 SWAP1 GAS CALL PC PUSH1 0xE ADD JUMPI RETURNDATASIZE PUSH1 0x0 DUP1 RETURNDATACOPY RETURNDATASIZE PUSH1 0x0 REVERT JUMPDEST RETURNDATASIZE PUSH1 0x1 EQ ISZERO PC PUSH1 0xA ADD JUMPI PUSH1 0x1 PUSH1 0x0 RETURN JUMPDEST PUSH1 0x0 DUP2 MSTORE PUSH1 0x20 PUSH2 0x313C JUMP JUMPDEST PUSH4 0xFFE73914 MSIZE DUP2 PUSH1 0xE0 SHL DUP2 MSTORE DUP4 PUSH1 0x4 DUP3 ADD MSTORE DUP5 PUSH1 0x24 DUP3 ADD MSTORE PUSH1 0x60 PUSH1 0x44 DUP3 ADD MSTORE DUP7 PUSH1 0x64 DUP3 ADD MSTORE PUSH1 0x84 DUP2 ADD PUSH1 0x0 JUMPDEST DUP9 DUP2 LT ISZERO PUSH2 0x32EA JUMPI DUP1 DUP9 ADD MLOAD DUP3 DUP3 ADD MSTORE PUSH1 0x20 ADD PUSH2 0x32D2 JUMP JUMPDEST POP DUP8 PUSH2 0x104 ADD DUP3 ADD PUSH1 0x60 DUP4 DUP11 PUSH2 0x104 ADD DUP6 CALLER PUSH1 0x0 SWAP1 GAS CALL PC PUSH1 0xE ADD JUMPI RETURNDATASIZE PUSH1 0x0 DUP1 RETURNDATACOPY RETURNDATASIZE PUSH1 0x0 REVERT JUMPDEST RETURNDATASIZE PUSH1 0x1 EQ ISZERO PC PUSH1 0xA ADD JUMPI PUSH1 0x1 PUSH1 0x0 RETURN JUMPDEST DUP3 MLOAD PUSH1 0x40 DUP5 ADD MLOAD RETURNDATASIZE PUSH1 0x0 DUP7 RETURNDATACOPY DUP13 DUP13 DUP3 PUSH1 0x60 DUP9 ADD CALLER POP PUSH1 0x0 PUSH1 0x4 GAS CALL POP MSIZE DUP6 JUMPDEST DUP2 DUP2 LT ISZERO PUSH2 0x3353 JUMPI PUSH1 0x0 DUP2 MSTORE PUSH1 0x20 ADD PUSH2 0x333F JUMP JUMPDEST POP SWAP2 SWAP13 POP POP POP POP POP POP POP JUMP JUMPDEST PUSH4 0x8540661F MSIZE DUP2 PUSH1 0xE0 SHL DUP2 MSTORE DUP4 PUSH1 0x4 DUP3 ADD MSTORE DUP5 PUSH1 0x24 DUP3 ADD MSTORE PUSH1 0x60 PUSH1 0x44 DUP3 ADD MSTORE DUP7 PUSH1 0x64 DUP3 ADD MSTORE PUSH1 0x84 DUP2 ADD PUSH1 0x0 DUP9 DUP2 LT ISZERO PUSH2 0x32EA JUMPI DUP1 DUP9 ADD MLOAD DUP3 DUP3 ADD MSTORE PUSH1 0x20 ADD PUSH2 0x32D2 JUMP JUMPDEST PUSH4 0x73509064 MSIZE DUP2 PUSH1 0xE0 SHL DUP2 MSTORE PUSH1 0x20 DUP2 PUSH1 0x4 DUP4 CALLER PUSH1 0x0 SWAP1 GAS CALL PC PUSH1 0xE ADD JUMPI RETURNDATASIZE PUSH1 0x0 DUP1 RETURNDATACOPY RETURNDATASIZE PUSH1 0x0 REVERT JUMPDEST RETURNDATASIZE PUSH1 0x1 EQ ISZERO PC PUSH1 0xA ADD JUMPI PUSH1 0x1 PUSH1 0x0 RETURN JUMPDEST DUP1 MLOAD PUSH1 0x0 DUP3 MSTORE SWAP4 POP PUSH1 0x20 PUSH2 0x313C JUMP JUMPDEST PUSH1 0x40 MLOAD PUSH2 0x300 DUP1 DUP3 ADD PUSH1 0x40 MSTORE PUSH1 0x18 SWAP1 DUP3 SWAP1 DUP1 CODESIZE DUP4 CODECOPY POP SWAP2 SWAP3 SWAP2 POP POP JUMP INVALID PUSH17 0x656E616C7479203E204D41585F4C495155 0x49 DIFFICULTY COINBASE SLOAD 0x49 0x4F 0x4E 0x5F POP GASLIMIT 0x4E COINBASE 0x4C SLOAD MSIZE MSIZE PUSH16 0x75206D757374206265206E6F6D696E61 PUSH21 0x6564206265666F726520796F752063616E20616363 PUSH6 0x7074206F776E PUSH6 0x72736869706C PUSH10 0x717569646174696F6E52 PUSH2 0x7469 PUSH16 0x203E204D41585F4C4951554944415449 0x4F 0x4E 0x5F MSTORE COINBASE SLOAD 0x49 0x4F KECCAK256 0x2F KECCAK256 0x28 BALANCE KECCAK256 0x2B KECCAK256 PUSH17 0x656E616C7479294F6E6C79207468652063 PUSH16 0x6E7472616374206F776E6572206D6179 KECCAK256 PUSH17 0x6572666F726D207468697320616374696F PUSH15 0x536166654D6174683A206D756C7469 PUSH17 0x6C69636174696F6E206F766572666C6F77 MSTORE8 PUSH26 0x7374656D53657474696E67730000000000000000000000000000 STOP STOP STOP STOP 0x4E PUSH6 0x772069737375 PUSH2 0x6E63 PUSH6 0x20726174696F KECCAK256 PUSH4 0x616E6E6F PUSH21 0x20657863656564204D41585F49535355414E43455F MSTORE COINBASE SLOAD 0x49 0x4F PUSH13 0x69717569646174696F6E526174 PUSH10 0x6F203C204D494E5F4C49 MLOAD SSTORE 0x49 DIFFICULTY COINBASE SLOAD 0x49 0x4F 0x4E 0x5F MSTORE COINBASE SLOAD 0x49 0x4F "
		}
	}
}