{
	"abi": [
		{
			"inputs": [
				{
					"internalType": "address",
					"name": "owner",
					"type": "address"
				},
				{
					"internalType": "address",
					"name": "periodController",
					"type": "address"
				},
				{
					"internalType": "address",
					"name": "resolver",
					"type": "address"
				}
			],
			"payable": false,
			"stateMutability": "nonpayable",
			"type": "constructor"
		},
		{
			"anonymous": false,
			"inputs": [
				{
					"indexed": false,
					"internalType": "address",
					"name": "recoverAddress",
					"type": "address"
				},
				{
					"indexed": false,
					"internalType": "uint256",
					"name": "amount",
					"type": "uint256"
				},
				{
					"indexed": false,
					"internalType": "uint256",
					"name": "periodID",
					"type": "uint256"
				}
			],
			"name": "AssignedRewardTokensRecovered",
			"type": "event"
		},
		{
			"anonymous": false,
			"inputs": [
				{
					"indexed": false,
					"internalType": "address",
					"name": "recoverAddress",
					"type": "address"
				},
				{
					"indexed": false,
					"internalType": "uint256",
					"name": "amount",
					"type": "uint256"
				}
			],
			"name": "EtherRecovered",
			"type": "event"
		},
		{
			"anonymous": false,
			"inputs": [
				{
					"indexed": true,
					"internalType": "address",
					"name": "account",
					"type": "address"
				},
				{
					"indexed": false,
					"internalType": "uint256",
					"name": "amount",
					"type": "uint256"
				},
				{
					"indexed": false,
					"internalType": "uint256",
					"name": "periodID",
					"type": "uint256"
				}
			],
			"name": "ExchangeFeeRecorded",
			"type": "event"
		},
		{
			"anonymous": false,
			"inputs": [
				{
					"indexed": false,
					"internalType": "uint256",
					"name": "periodID",
					"type": "uint256"
				}
			],
			"name": "NewPeriodStarted",
			"type": "event"
		},
		{
			"anonymous": false,
			"inputs": [
				{
					"indexed": false,
					"internalType": "address",
					"name": "oldOwner",
					"type": "address"
				},
				{
					"indexed": false,
					"internalType": "address",
					"name": "newOwner",
					"type": "address"
				}
			],
			"name": "OwnerChanged",
			"type": "event"
		},
		{
			"anonymous": false,
			"inputs": [
				{
					"indexed": false,
					"internalType": "address",
					"name": "newOwner",
					"type": "address"
				}
			],
			"name": "OwnerNominated",
			"type": "event"
		},
		{
			"anonymous": false,
			"inputs": [
				{
					"indexed": false,
					"internalType": "bool",
					"name": "isPaused",
					"type": "bool"
				}
			],
			"name": "PauseChanged",
			"type": "event"
		},
		{
			"anonymous": false,
			"inputs": [
				{
					"indexed": false,
					"internalType": "address",
					"name": "newPeriodController",
					"type": "address"
				}
			],
			"name": "PeriodControllerChanged",
			"type": "event"
		},
		{
			"anonymous": false,
			"inputs": [
				{
					"indexed": false,
					"internalType": "uint256",
					"name": "periodID",
					"type": "uint256"
				},
				{
					"indexed": false,
					"internalType": "uint256",
					"name": "rewards",
					"type": "uint256"
				}
			],
			"name": "PeriodFinalizedWithRewards",
			"type": "event"
		},
		{
			"anonymous": false,
			"inputs": [
				{
					"indexed": true,
					"internalType": "address",
					"name": "account",
					"type": "address"
				},
				{
					"indexed": false,
					"internalType": "uint256",
					"name": "amount",
					"type": "uint256"
				},
				{
					"indexed": false,
					"internalType": "uint256",
					"name": "periodID",
					"type": "uint256"
				}
			],
			"name": "RewardsClaimed",
			"type": "event"
		},
		{
			"anonymous": false,
			"inputs": [
				{
					"indexed": false,
					"internalType": "address",
					"name": "tokenAddress",
					"type": "address"
				},
				{
					"indexed": false,
					"internalType": "address",
					"name": "recoverAddress",
					"type": "address"
				},
				{
					"indexed": false,
					"internalType": "uint256",
					"name": "amount",
					"type": "uint256"
				}
			],
			"name": "TokensRecovered",
			"type": "event"
		},
		{
			"anonymous": false,
			"inputs": [
				{
					"indexed": false,
					"internalType": "address",
					"name": "recoverAddress",
					"type": "address"
				},
				{
					"indexed": false,
					"internalType": "uint256",
					"name": "amount",
					"type": "uint256"
				}
			],
			"name": "UnassignedRewardTokensRecovered",
			"type": "event"
		},
		{
			"constant": true,
			"inputs": [],
			"name": "MAX_ADDRESSES_FROM_RESOLVER",
			"outputs": [
				{
					"internalType": "uint256",
					"name": "",
					"type": "uint256"
				}
			],
			"payable": false,
			"stateMutability": "view",
			"type": "function"
		},
		{
			"constant": false,
			"inputs": [],
			"name": "acceptOwnership",
			"outputs": [],
			"payable": false,
			"stateMutability": "nonpayable",
			"type": "function"
		},
		{
			"constant": false,
			"inputs": [
				{
					"internalType": "uint256",
					"name": "periodID",
					"type": "uint256"
				}
			],
			"name": "claimRewardsForPeriod",
			"outputs": [],
			"payable": false,
			"stateMutability": "nonpayable",
			"type": "function"
		},
		{
			"constant": false,
			"inputs": [
				{
					"internalType": "uint256[]",
					"name": "periodIDs",
					"type": "uint256[]"
				}
			],
			"name": "claimRewardsForPeriods",
			"outputs": [],
			"payable": false,
			"stateMutability": "nonpayable",
			"type": "function"
		},
		{
			"constant": false,
			"inputs": [
				{
					"internalType": "uint256",
					"name": "rewards",
					"type": "uint256"
				}
			],
			"name": "closeCurrentPeriodWithRewards",
			"outputs": [],
			"payable": false,
			"stateMutability": "nonpayable",
			"type": "function"
		},
		{
			"constant": true,
			"inputs": [],
			"name": "getAvailableRewards",
			"outputs": [
				{
					"internalType": "uint256",
					"name": "",
					"type": "uint256"
				}
			],
			"payable": false,
			"stateMutability": "view",
			"type": "function"
		},
		{
			"constant": true,
			"inputs": [
				{
					"internalType": "address",
					"name": "account",
					"type": "address"
				},
				{
					"internalType": "uint256",
					"name": "periodID",
					"type": "uint256"
				}
			],
			"name": "getAvailableRewardsForAccountForPeriod",
			"outputs": [
				{
					"internalType": "uint256",
					"name": "",
					"type": "uint256"
				}
			],
			"payable": false,
			"stateMutability": "view",
			"type": "function"
		},
		{
			"constant": true,
			"inputs": [
				{
					"internalType": "address",
					"name": "account",
					"type": "address"
				},
				{
					"internalType": "uint256[]",
					"name": "periodIDs",
					"type": "uint256[]"
				}
			],
			"name": "getAvailableRewardsForAccountForPeriods",
			"outputs": [
				{
					"internalType": "uint256",
					"name": "totalRewards",
					"type": "uint256"
				}
			],
			"payable": false,
			"stateMutability": "view",
			"type": "function"
		},
		{
			"constant": true,
			"inputs": [],
			"name": "getCurrentPeriod",
			"outputs": [
				{
					"internalType": "uint256",
					"name": "",
					"type": "uint256"
				}
			],
			"payable": false,
			"stateMutability": "view",
			"type": "function"
		},
		{
			"constant": true,
			"inputs": [
				{
					"internalType": "uint256",
					"name": "periodID",
					"type": "uint256"
				}
			],
			"name": "getPeriodAvailableRewards",
			"outputs": [
				{
					"internalType": "uint256",
					"name": "",
					"type": "uint256"
				}
			],
			"payable": false,
			"stateMutability": "view",
			"type": "function"
		},
		{
			"constant": true,
			"inputs": [],
			"name": "getPeriodController",
			"outputs": [
				{
					"internalType": "address",
					"name": "",
					"type": "address"
				}
			],
			"payable": false,
			"stateMutability": "view",
			"type": "function"
		},
		{
			"constant": true,
			"inputs": [
				{
					"internalType": "uint256",
					"name": "periodID",
					"type": "uint256"
				}
			],
			"name": "getPeriodIsClaimable",
			"outputs": [
				{
					"internalType": "bool",
					"name": "",
					"type": "bool"
				}
			],
			"payable": false,
			"stateMutability": "view",
			"type": "function"
		},
		{
			"constant": true,
			"inputs": [
				{
					"internalType": "uint256",
					"name": "periodID",
					"type": "uint256"
				}
			],
			"name": "getPeriodIsFinalized",
			"outputs": [
				{
					"internalType": "bool",
					"name": "",
					"type": "bool"
				}
			],
			"payable": false,
			"stateMutability": "view",
			"type": "function"
		},
		{
			"constant": true,
			"inputs": [
				{
					"internalType": "uint256",
					"name": "periodID",
					"type": "uint256"
				}
			],
			"name": "getPeriodRecordedFees",
			"outputs": [
				{
					"internalType": "uint256",
					"name": "",
					"type": "uint256"
				}
			],
			"payable": false,
			"stateMutability": "view",
			"type": "function"
		},
		{
			"constant": true,
			"inputs": [
				{
					"internalType": "uint256",
					"name": "periodID",
					"type": "uint256"
				}
			],
			"name": "getPeriodTotalRewards",
			"outputs": [
				{
					"internalType": "uint256",
					"name": "",
					"type": "uint256"
				}
			],
			"payable": false,
			"stateMutability": "view",
			"type": "function"
		},
		{
			"constant": true,
			"inputs": [],
			"name": "getResolverAddressesRequired",
			"outputs": [
				{
					"internalType": "bytes32[24]",
					"name": "addressesRequired",
					"type": "bytes32[24]"
				}
			],
			"payable": false,
			"stateMutability": "view",
			"type": "function"
		},
		{
			"constant": true,
			"inputs": [],
			"name": "getRewardsToken",
			"outputs": [
				{
					"internalType": "address",
					"name": "",
					"type": "address"
				}
			],
			"payable": false,
			"stateMutability": "view",
			"type": "function"
		},
		{
			"constant": true,
			"inputs": [
				{
					"internalType": "address",
					"name": "account",
					"type": "address"
				},
				{
					"internalType": "uint256",
					"name": "periodID",
					"type": "uint256"
				}
			],
			"name": "getUnaccountedFeesForAccountForPeriod",
			"outputs": [
				{
					"internalType": "uint256",
					"name": "",
					"type": "uint256"
				}
			],
			"payable": false,
			"stateMutability": "view",
			"type": "function"
		},
		{
			"constant": true,
			"inputs": [],
			"name": "getUnassignedRewards",
			"outputs": [
				{
					"internalType": "uint256",
					"name": "",
					"type": "uint256"
				}
			],
			"payable": false,
			"stateMutability": "view",
			"type": "function"
		},
		{
			"constant": true,
			"inputs": [
				{
					"internalType": "contract AddressResolver",
					"name": "_resolver",
					"type": "address"
				}
			],
			"name": "isResolverCached",
			"outputs": [
				{
					"internalType": "bool",
					"name": "",
					"type": "bool"
				}
			],
			"payable": false,
			"stateMutability": "view",
			"type": "function"
		},
		{
			"constant": true,
			"inputs": [],
			"name": "lastPauseTime",
			"outputs": [
				{
					"internalType": "uint256",
					"name": "",
					"type": "uint256"
				}
			],
			"payable": false,
			"stateMutability": "view",
			"type": "function"
		},
		{
			"constant": false,
			"inputs": [
				{
					"internalType": "address",
					"name": "_owner",
					"type": "address"
				}
			],
			"name": "nominateNewOwner",
			"outputs": [],
			"payable": false,
			"stateMutability": "nonpayable",
			"type": "function"
		},
		{
			"constant": true,
			"inputs": [],
			"name": "nominatedOwner",
			"outputs": [
				{
					"internalType": "address",
					"name": "",
					"type": "address"
				}
			],
			"payable": false,
			"stateMutability": "view",
			"type": "function"
		},
		{
			"constant": true,
			"inputs": [],
			"name": "owner",
			"outputs": [
				{
					"internalType": "address",
					"name": "",
					"type": "address"
				}
			],
			"payable": false,
			"stateMutability": "view",
			"type": "function"
		},
		{
			"constant": true,
			"inputs": [],
			"name": "paused",
			"outputs": [
				{
					"internalType": "bool",
					"name": "",
					"type": "bool"
				}
			],
			"payable": false,
			"stateMutability": "view",
			"type": "function"
		},
		{
			"constant": false,
			"inputs": [
				{
					"internalType": "uint256",
					"name": "usdFeeAmount",
					"type": "uint256"
				},
				{
					"internalType": "address",
					"name": "account",
					"type": "address"
				}
			],
			"name": "recordExchangeFeeForAccount",
			"outputs": [],
			"payable": false,
			"stateMutability": "nonpayable",
			"type": "function"
		},
		{
			"constant": false,
			"inputs": [
				{
					"internalType": "address",
					"name": "recoverAddress",
					"type": "address"
				},
				{
					"internalType": "uint256",
					"name": "periodID",
					"type": "uint256"
				}
			],
			"name": "recoverAssignedRewardTokensAndDestroyPeriod",
			"outputs": [],
			"payable": false,
			"stateMutability": "nonpayable",
			"type": "function"
		},
		{
			"constant": false,
			"inputs": [
				{
					"internalType": "address payable",
					"name": "recoverAddress",
					"type": "address"
				}
			],
			"name": "recoverEther",
			"outputs": [],
			"payable": false,
			"stateMutability": "nonpayable",
			"type": "function"
		},
		{
			"constant": false,
			"inputs": [
				{
					"internalType": "address",
					"name": "tokenAddress",
					"type": "address"
				},
				{
					"internalType": "address",
					"name": "recoverAddress",
					"type": "address"
				}
			],
			"name": "recoverTokens",
			"outputs": [],
			"payable": false,
			"stateMutability": "nonpayable",
			"type": "function"
		},
		{
			"constant": false,
			"inputs": [
				{
					"internalType": "address",
					"name": "recoverAddress",
					"type": "address"
				}
			],
			"name": "recoverUnassignedRewardTokens",
			"outputs": [],
			"payable": false,
			"stateMutability": "nonpayable",
			"type": "function"
		},
		{
			"constant": true,
			"inputs": [],
			"name": "resolver",
			"outputs": [
				{
					"internalType": "contract AddressResolver",
					"name": "",
					"type": "address"
				}
			],
			"payable": false,
			"stateMutability": "view",
			"type": "function"
		},
		{
			"constant": true,
			"inputs": [
				{
					"internalType": "uint256",
					"name": "",
					"type": "uint256"
				}
			],
			"name": "resolverAddressesRequired",
			"outputs": [
				{
					"internalType": "bytes32",
					"name": "",
					"type": "bytes32"
				}
			],
			"payable": false,
			"stateMutability": "view",
			"type": "function"
		},
		{
			"constant": false,
			"inputs": [
				{
					"internalType": "bool",
					"name": "_paused",
					"type": "bool"
				}
			],
			"name": "setPaused",
			"outputs": [],
			"payable": false,
			"stateMutability": "nonpayable",
			"type": "function"
		},
		{
			"constant": false,
			"inputs": [
				{
					"internalType": "address",
					"name": "newPeriodController",
					"type": "address"
				}
			],
			"name": "setPeriodController",
			"outputs": [],
			"payable": false,
			"stateMutability": "nonpayable",
			"type": "function"
		},
		{
			"constant": false,
			"inputs": [
				{
					"internalType": "contract AddressResolver",
					"name": "_resolver",
					"type": "address"
				}
			],
			"name": "setResolverAndSyncCache",
			"outputs": [],
			"payable": false,
			"stateMutability": "nonpayable",
			"type": "function"
		}
	],
	"evm": {
		"bytecode": {
			"linkReferences": {},
			"object": "6080604052604051604080820190526822bc31b430b733b2b960b91b8152680a6f2dce8d0cae8d2f60bb1b60208201526200003f90600b9060026200043f565b503480156200005857600080620000556200048d565b50505b506040516200345338038062003453833981810160405260608110156200008957600080620000866200048d565b50505b810190808051929190602001805192919060200180519250829150600b905060186103006040519081016040529190610300830182845b81620000cb620004fa565b81526020019060010190808311620000c057505050505084600160008190620000f36200055c565b5050506001600160a01b0381166200015c5760405162461bcd60e51b815260206004820152601960248201527f4f776e657220616464726573732063616e6e6f74206265203000000000000000604482015260640160405180910390620001596200048d565b50505b80600180806200016b620004fa565b816001600160a01b0302191690836001600160a01b03160217906200018f6200055c565b5050507fb532073b38c83145e3e5135377a08bf9aab55bc0fd7c1179cd4fb995d2a5159c6000826040516001600160a01b039283168152911660208201526040908101905180910390a1506000806001620001e9620004fa565b906101000a90046001600160a01b03166001600160a01b03161415620002545760405162461bcd60e51b815260206004820152601160248201527013dddb995c881b5d5cdd081899481cd95d607a1b604482015260640160405180910390620002516200048d565b50505b600080600162000263620004fa565b906101000a90046001600160a01b03166001600160a01b03161415620002ce5760405162461bcd60e51b815260206004820152601160248201527013dddb995c881b5d5cdd081899481cd95d607a1b604482015260640160405180910390620002cb6200048d565b50505b60005b60188110156200035e576000828260188110620002ea57fe5b6020020151146200034f5760068282601881106200030457fe5b6020020151908060018162000318620004fa565b018082620003256200055c565b5050600092835291600019830191506020902091929101620003466200055c565b50505062000355565b6200035e565b600101620002d1565b508160046101008162000370620004fa565b816001600160a01b0302191690836001600160a01b0316021790620003946200055c565b50505050506001600160a01b038216620003ff5760405162461bcd60e51b815260206004820152601960248201527f496e76616c696420706572696f6420636f6e74726f6c6c657200000000000000604482015260640160405180910390620003fc6200048d565b50505b81600a6001816200040f620004fa565b816001600160a01b0302191690836001600160a01b0316021790620004336200055c565b505050505050620005d8565b82601881019282156200047b579160200282015b828111156200047b57825182620004696200055c565b50509160200191906001019062000453565b5062000489929150620005ab565b5090565b632a2a7adb598160e01b8152600481016020815285602082015260005b86811015620004c7578086015182820160400152602001620004aa565b506020828760640184336000905af158600e01573d6000803e3d6000fd5b3d6001141558600a015760016000f35b505050565b6303daa959598160e01b8152836004820152602081602483336000905af158600e01573d6000803e3d6000fd5b3d6001141558600a015760016000f35b8051935060005b604081101562000557576000828201526020016200053e565b505050565b6322bd64c0598160e01b8152836004820152846024820152600081604483336000905af158600e01573d6000803e3d6000fd5b3d6001141558600a015760016000f35b6000815260206200053e565b620005d591905b80821115620004895760008082620005c96200055c565b505050600101620005b2565b90565b612e6b80620005e86000396000f3fe608060405234801561001957600080610016612a04565b50505b506004361061021a5760003560e01c8063706848d21161012e578063c6c9d828116100b6578063e3235c9111610085578063e3235c911461061f578063f32ffd6914610627578063f61f5df6146106bb578063f6b58479146106f0578063fc9c99ac146107945761021a565b8063c6c9d828146105bc578063ccb6e0431461031c578063ce7fccba146105e2578063dea021a5146106175761021a565b8063937ffb8f116100fd578063937ffb8f146104f25780639865fdb714610518578063ab49848c14610520578063ae934a7a14610561578063b225dbaa146105965761021a565b8063706848d2146104b457806379ba5097146104da5780638da5cb5b146104e257806391b4ded9146104ea5761021a565b806338dfa8cf116101b157806353a47bb71161018057806353a47bb71461044757806355aa41bf1461044f5780635c975abb14610475578063631e14441461047d5780636fe4136b146104ac5761021a565b806338dfa8cf1461038b5780633be99e6f146103ba5780633dbf12fa146103e957806352d5999f146104185761021a565b806316841952116101ed57806316841952146102ce57806316c38b3c146102f4578063175c51891461031c57806321cad774146103565761021a565b806304f3bcec14610228578063056097ac1461024c578063086146d2146102855780631627540c1461029f575b600080610225612a04565b50505b61023061079c565b6040516001600160a01b03909116815260200160405180910390f35b6102836004803603604081101561026b57600080610268612a04565b50505b506001600160a01b03813581169160200135166107bb565b005b61028d610a13565b60405190815260200160405180910390f35b610283600480360360208110156102be576000806102bb612a04565b50505b50356001600160a01b0316610a24565b610283600480360360208110156102ed576000806102ea612a04565b50505b5035610a9f565b6102836004803603602081101561031357600080610310612a04565b50505b50351515610df5565b6103426004803603602081101561033b57600080610338612a04565b50505b5035610ecb565b604051901515815260200160405180910390f35b6102836004803603604081101561037557600080610372612a04565b50505b50803590602001356001600160a01b0316610ef6565b610283600480360360208110156103aa576000806103a7612a04565b50505b50356001600160a01b0316611055565b610283600480360360208110156103d9576000806103d6612a04565b50505b50356001600160a01b031661129e565b6102836004803603602081101561040857600080610405612a04565b50505b50356001600160a01b0316611469565b6102836004803603602081101561043757600080610434612a04565b50505b50356001600160a01b0316611547565b6102306115ed565b61028d6004803603602081101561046e5760008061046b612a04565b50505b50356115f9565b610342611618565b6103426004803603602081101561049c57600080610499612a04565b50505b50356001600160a01b0316611631565b61023061180c565b61028d600480360360208110156104d3576000806104d0612a04565b50505b5035611816565b61028361182f565b6102306119b4565b61028d6119c0565b61028d600480360360208110156105115760008061050e612a04565b50505b50356119cd565b61028d6119e6565b610528611b12565b604051808261030080838360005b8381101561054e578082015183820152602001610536565b5050505090500191505060405180910390f35b610283600480360360408110156105805760008061057d612a04565b50505b506001600160a01b038135169060200135611b74565b610283600480360360208110156105b5576000806105b2612a04565b50505b5035611d68565b61028d600480360360208110156105db576000806105d8612a04565b50505b5035611e6a565b61028d60048036036040811015610601576000806105fe612a04565b50505b506001600160a01b038135169060200135611e92565b610230611ea5565b61028d611ec7565b6102836004803603602081101561064657600080610643612a04565b50505b81019060208101813564010000000081111561066a57600080610667612a04565b50505b82018360208201111561068557600080610682612a04565b50505b803590602001918460208302840111640100000000831117156106b0576000806106ad612a04565b50505b509092509050611ecc565b61028d600480360360408110156106da576000806106d7612a04565b50505b506001600160a01b038135169060200135611ffb565b61028d6004803603604081101561070f5760008061070c612a04565b50505b6001600160a01b03823516919081019060408101602082013564010000000081111561074357600080610740612a04565b50505b82018360208201111561075e5760008061075b612a04565b50505b8035906020019184602083028401116401000000008311171561078957600080610786612a04565b50505b50909250905061202d565b61028d61207d565b600160046107a8612a6f565b906101000a90046001600160a01b031681565b6107c3612089565b6107cc81612104565b6107d46121da565b6001600160a01b0316826001600160a01b031614156108425760405162461bcd60e51b815260206004820152601960248201527f4d7573742075736520616e6f746865722066756e6374696f6e0000000000000060448201526064016040518091039061083f612a04565b50505b8160006001600160a01b0382166370a082315a63996d79a5598160e01b8152602081600483336000905af158600e01573d6000803e3d6000fd5b3d6001141558600a015760016000f35b8051925060005b60408110156108aa57600082820152602001610893565b5050506040516001600160e01b031960e084901b1681526001600160a01b03909116600482015260240160206040518083038186806108e7612aca565b1580156108fc576000806108f9612a04565b50505b505a610906612b16565b5050505050158015610925573d6000803e3d6000610922612a04565b50505b505050506040513d602081101561094457600080610941612a04565b50505b8101908080519350505081151590506109a35760405162461bcd60e51b81526020600482015260146024820152732737903a37b5b2b739903a37903932b1b7bb32b960611b6044820152606401604051809103906109a0612a04565b50505b6109bd6001600160a01b038316848363ffffffff61222516565b7f401f439d865a766757ec78675925bd67198d5e78805aa41691b34b5d6a6cbbe68484836040516001600160a01b039384168152919092166020820152604080820192909252606001905180910390a150505050565b60006007610a1f612a6f565b905090565b610a2c612089565b806002600181610a3a612a6f565b816001600160a01b0302191690836001600160a01b0316021790610a5c612bcf565b5050507f906a1c6bd7e3091ea86693dd029a831c19049ce77f1dce2ce0bab1cacbabce22816040516001600160a01b03909116815260200160405180910390a150565b6000600a610aab612a6f565b906101000a90046001600160a01b03166001600160a01b03165a610acd612c1d565b6001600160a01b031614610b305760405162461bcd60e51b815260206004820152601c60248201527f43616c6c6572206e6f7420706572696f6420636f6e74726f6c6c657200000000604482015260640160405180910390610b2d612a04565b50505b6000610b3a6121da565b6001600160a01b03166370a082315a63996d79a5598160e01b8152602081600483336000905af158600e01573d6000803e3d6000fd5b3d6001141558600a015760016000f35b8051925060005b6040811015610b9e57600082820152602001610b87565b5050506040516001600160e01b031960e084901b1681526001600160a01b0390911660048201526024016020604051808303818680610bdb612aca565b158015610bf057600080610bed612a04565b50505b505a610bfa612b16565b5050505050158015610c19573d6000803e3d6000610c16612a04565b50505b505050506040513d6020811015610c3857600080610c35612a04565b50505b810190808051935060009250610c62915060089050610c55612a6f565b839063ffffffff61228116565b905080831115610cc15760405162461bcd60e51b815260206004820152601960248201527f496e73756666696369656e742066726565207265776172647300000000000000604482015260640160405180910390610cbe612a04565b50505b6000600960006007610cd1612a6f565b81526020019081526020016000209050838060028301610cef612bcf565b50505083816003018190610d01612bcf565b50600191508290508181610d13612a6f565b8160ff02191690831515021790610d28612bcf565b505050610d45846008610d39612a6f565b9063ffffffff6122e616565b806008610d50612bcf565b5050507ffa0492b63d7120c62ccb8708eb597813e6968a23d09adac98d54dd0085cb264f6007610d7e612a6f565b8560405191825260208201526040908101905180910390a1610da560016007610d39612a6f565b806007610db0612bcf565b5050507f4368a9298adc0e57eceb11d0ef07022051a2feb5985d832be0764cde9a2307326007610dde612a6f565b60405190815260200160405180910390a150505050565b610dfd612089565b60006004610e09612a6f565b906101000a900460ff1615158115151415610e2357610ec8565b806004600181610e31612a6f565b8160ff02191690831515021790610e46612bcf565b5050506004600090610e56612a6f565b906101000a900460ff1615610e7d575a610e6e612c63565b806003610e79612bcf565b5050505b7f8fb6c181ee25a520cf3dd6565006ef91229fcfe5a989566c2a3b8c115570cec560006004610eaa612a6f565b906101000a900460ff16604051901515815260200160405180910390a15b50565b6000818152600960205260408120600090610ee4612a6f565b906101000a900460ff1690505b919050565b610efe61234e565b6001600160a01b03165a610f10612c1d565b6001600160a01b031614610f735760405162461bcd60e51b815260206004820152601e60248201527f4f6e6c792045786368616e6765722063616e20696e766f6b6520746869730000604482015260640160405180910390610f70612a04565b50505b6000600960006007610f83612a6f565b81526020019081526020016000206001600160a01b038316600090815260048201602052909150610fbc90849060409020610d39612a6f565b6001600160a01b038316600090815260048301602052604090208190610fe0612bcf565b505050610ff38382600101610d39612a6f565b8060018301611000612bcf565b505050816001600160a01b03167f927be3e95451b16be3f4586524834dfffa10e6f9ee4c1e26fe3c46140fbbf866846007611039612a6f565b60405191825260208201526040908101905180910390a2505050565b61105d612089565b61106681612104565b60006110706121da565b6001600160a01b03166370a082315a63996d79a5598160e01b8152602081600483336000905af158600e01573d6000803e3d6000fd5b3d6001141558600a015760016000f35b8051925060005b60408110156110d4576000828201526020016110bd565b5050506040516001600160e01b031960e084901b1681526001600160a01b0390911660048201526024016020604051808303818680611111612aca565b15801561112657600080611123612a04565b50505b505a611130612b16565b505050505015801561114f573d6000803e3d600061114c612a04565b50505b505050506040513d602081101561116e5760008061116b612a04565b50505b8101908080519350505081151590506111cd5760405162461bcd60e51b81526020600482015260146024820152732737903a37b5b2b739903a37903932b1b7bb32b960611b6044820152606401604051809103906111ca612a04565b50505b60006111dc6008610c55612a6f565b9050600081116112325760405162461bcd60e51b81526020600482015260146024820152732737903a37b5b2b739903a37903932b1b7bb32b960611b60448201526064016040518091039061122f612a04565b50505b611255838261123f6121da565b6001600160a01b0316919063ffffffff61222516565b7f14e7312259d4851b8b6742ace55ac44b31d7929a6b2998b35ba22445859e5ee383826040516001600160a01b03909216825260208201526040908101905180910390a1505050565b6112a6612089565b806004610100816112b5612a6f565b816001600160a01b0302191690836001600160a01b03160217906112d7612bcf565b5060009150505b6006806112e9612a6f565b905081101561146557600060068281611300612a6f565b811061130857fe5b9060005260206000200161131a612a6f565b905060016004611328612a6f565b906101000a90046001600160a01b03166001600160a01b031663dacb2d01826040516001600160e01b031960e084901b1681526004810191909152604060248201819052601760448301527f5265736f6c766572206d697373696e67207461726765740000000000000000006064830152608490910190602090518083038186806113b1612aca565b1580156113c6576000806113c3612a04565b50505b505a6113d0612b16565b50505050501580156113ef573d6000803e3d60006113ec612a04565b50505b505050506040513d602081101561140e5760008061140b612a04565b50505b8101908080516000858152600560205290935060409250905020600181611433612a6f565b816001600160a01b0302191690836001600160a01b0316021790611455612bcf565b5050600190920191506112de9050565b5050565b611471612089565b6001600160a01b0381166114d45760405162461bcd60e51b815260206004820152601960248201527f496e76616c696420706572696f6420636f6e74726f6c6c6572000000000000006044820152606401604051809103906114d1612a04565b50505b80600a6001816114e2612a6f565b816001600160a01b0302191690836001600160a01b0316021790611504612bcf565b5050507fb81e5409e39d3d3d85951a2af3563e484cfe2e7b4af2500a0ecbe14035a9bddc816040516001600160a01b03909116815260200160405180910390a150565b61154f612089565b61155881612104565b60006001600160a01b0382166108fc8260405160006040518083038185888861157f612ca9565b50505050505093505050501580156115a4573d6000803e3d60006115a1612a04565b50505b507f8e274e42262a7f013b700b35c2b4629ccce1702f8fe83f8dfb7eacbb26a4382c82826040516001600160a01b03909216825260208201526040908101905180910390a15050565b600060026107a8612a6f565b6000818152600960205260408120600101611612612a6f565b92915050565b60006004611624612a6f565b906101000a900460ff1681565b60006001600160a01b03821660016004611649612a6f565b906101000a90046001600160a01b03166001600160a01b03161461166f57506000610ef1565b60005b60068061167d612a6f565b905081101561180357600060068281611694612a6f565b811061169c57fe5b906000526020600020016116ae612a6f565b60008181526005602052909150604090206000906116ca612a6f565b6001600160a01b036101009290920a900416600160046116e8612a6f565b906101000a90046001600160a01b03166001600160a01b03166321f8a721836040516001600160e01b031960e084901b16815260048101919091526024016020604051808303818680611739612aca565b15801561174e5760008061174b612a04565b50505b505a611758612b16565b5050505050158015611777573d6000803e3d6000611774612a04565b50505b505050506040513d602081101561179657600080611793612a04565b50505b8101908080516001600160a01b0316939093141592508291506117ea9050575060008181526005602052604081206000906117cf612a6f565b906101000a90046001600160a01b03166001600160a01b0316145b156117fa57600092505050610ef1565b50600101611672565b50600192915050565b6000610a1f6121da565b6000818152600960205260408120600301611612612a6f565b6000600261183b612a6f565b906101000a90046001600160a01b03166001600160a01b03165a61185d612c1d565b6001600160a01b0316146118ab5760405162461bcd60e51b8152600401808060200182810382526035815260200180612d8060359139604001915050604051809103906118a8612a04565b50505b7fb532073b38c83145e3e5135377a08bf9aab55bc0fd7c1179cd4fb995d2a5159c600060016118d8612a6f565b906101000a90046001600160a01b031660026000906118f5612a6f565b906101000a90046001600160a01b03166040516001600160a01b039283168152911660208201526040908101905180910390a160006002611934612a6f565b906101000a90046001600160a01b0316600160006101000a81611955612a6f565b816001600160a01b0302191690836001600160a01b0316021790611977612bcf565b5050506000600260006101000a8161198d612a6f565b816001600160a01b0302191690836001600160a01b03160217906119af612bcf565b505050565b600060016107a8612a6f565b60036119ca612a6f565b81565b6000818152600960205260408120600201611612612a6f565b6000610a1f60086119f5612a6f565b6119fd6121da565b6001600160a01b03166370a082315a63996d79a5598160e01b8152602081600483336000905af158600e01573d6000803e3d6000fd5b3d6001141558600a015760016000f35b8051925060005b6040811015611a6157600082820152602001611a4a565b5050506040516001600160e01b031960e084901b1681526001600160a01b0390911660048201526024016020604051808303818680611a9e612aca565b158015611ab357600080611ab0612a04565b50505b505a611abd612b16565b5050505050158015611adc573d6000803e3d6000611ad9612a04565b50505b505050506040513d6020811015611afb57600080611af8612a04565b50505b8101908080519392505063ffffffff612281169050565b611b1a612d62565b60005b600680611b28612a6f565b9050811015611b705760068181611b3d612a6f565b8110611b4557fe5b90600052602060002001611b57612a6f565b828260188110611b6357fe5b6020020152600101611b1d565b5090565b611b7c612089565b611b8582612104565b6007611b8f612a6f565b8110611bea5760405162461bcd60e51b815260206004820152601a60248201527f43616e6e6f74207265636f7665722066726f6d20616374697665000000000000604482015260640160405180910390611be7612a04565b50505b60008181526009602052604081209050600081600301611c08612a6f565b11611c625760405162461bcd60e51b815260206004820152601f60248201527f4e6f207265776172647320617661696c61626c6520746f207265636f76657200604482015260640160405180910390611c5f612a04565b50505b600081600301611c70612a6f565b9050611c7f848261123f6121da565b611c99816008611c8d612a6f565b9063ffffffff61228116565b806008611ca4612bcf565b5050506000838152600960205260409020600081600181611cc3612a6f565b9060ff02191690611cd2612bcf565b505060018201600090611ce3612bcf565b505060028201600090611cf4612bcf565b505060038201600090611d05612bcf565b505050507f60f2caebb6d06055322fce1f0db429f6bc0a48534c8c9ba42359a80f36bb7f0c84828560405180846001600160a01b03166001600160a01b03168152602001838152602001828152602001935050505060405180910390a150505050565b60016000808282611d77612a6f565b019250508190611d85612bcf565b505050600080611d93612a6f565b905060006004611da1612a6f565b906101000a900460ff1615611df05760405162461bcd60e51b815260040180806020018281038252603c815260200180612e05603c913960400191505060405180910390611ded612a04565b50505b611e025a611dfc612c1d565b83612399565b6000611e0c612a6f565b81146114655760405162461bcd60e51b815260206004820152601f60248201527f5265656e7472616e637947756172643a207265656e7472616e742063616c6c00604482015260640160405180910390611e64612a04565b50505050565b60068181611e76612a6f565b8110611e7e57fe5b9060005260206000200190506119ca612a6f565b6000611e9e8383612533565b9392505050565b600080600a611eb2612a6f565b906101000a90046001600160a01b0316905090565b601881565b60016000808282611edb612a6f565b019250508190611ee9612bcf565b505050600080611ef7612a6f565b905060006004611f05612a6f565b906101000a900460ff1615611f545760405162461bcd60e51b815260040180806020018281038252603c815260200180612e05603c913960400191505060405180910390611f51612a04565b50505b60005b82811015611f91576000848483818110611f6d57fe5b905060200201359050611f885a611f82612c1d565b82612399565b50600101611f57565b506000611f9c612a6f565b81146119af5760405162461bcd60e51b815260206004820152601f60248201527f5265656e7472616e637947756172643a207265656e7472616e742063616c6c00604482015260640160405180910390611ff4612a04565b5050505050565b60008181526009602052604081206001600160a01b038416600090815260049190910160205260409020611e9e612a6f565b6000805b8281101561207557600084848381811061204757fe5b90506020020135905061206a61205d8783612533565b849063ffffffff6122e616565b925050600101612031565b509392505050565b60006008610a1f612a6f565b60006001612095612a6f565b906101000a90046001600160a01b03166001600160a01b03165a6120b7612c1d565b6001600160a01b0316146121025760405162461bcd60e51b815260040180806020018281038252602f815260200180612db5602f913960400191505060405180910390611465612a04565b565b6001600160a01b038116158061218357505a63996d79a5598160e01b8152602081600483336000905af158600e01573d6000803e3d6000fd5b3d6001141558600a015760016000f35b8051925060005b604081101561216b57600082820152602001612154565b5050506001600160a01b0316816001600160a01b0316145b15610ec85760405162461bcd60e51b815260206004820152601760248201527f496e76616c6964207265636f76657220616464726573730000000000000000006044820152606401604051809103906119af612a04565b6000610a1f680a6f2dce8d0cae8d2f60bb1b60405160408082019052601981527f4d697373696e672053796e746865746978206164647265737300000000000000602082015261260b565b6119af8363a9059cbb60e01b84846040516001600160a01b0390921660248301526044820152606401604051602081830303815290604052906001600160e01b0319166020820180516001600160e01b031690911790526126d3565b6000828211156122e05760405162461bcd60e51b815260206004820152601e60248201527f536166654d6174683a207375627472616374696f6e206f766572666c6f7700006044820152606401604051809103906122dd612a04565b50505b50900390565b600082820183811015611e9e5760405162461bcd60e51b815260206004820152601b60248201527f536166654d6174683a206164646974696f6e206f766572666c6f770000000000604482015260640160405180910390612345612a04565b50509392505050565b6000610a1f6822bc31b430b733b2b960b91b60405160408082019052601981527f4d697373696e672045786368616e676572206164647265737300000000000000602082015261260b565b600081815260096020526040812090506000816123b4612a6f565b906101000a900460ff166124175760405162461bcd60e51b815260206004820152601760248201527f506572696f64206973206e6f742066696e616c697a6564000000000000000000604482015260640160405180910390612414612a04565b50505b60006124238484612533565b9050600081116124795760405162461bcd60e51b81526020600482015260146024820152734e6f207265776172647320617661696c61626c6560601b604482015260640160405180910390612476612a04565b50505b6001600160a01b03841660009081526004830160205260408120819061249d612bcf565b5050506124b08183600301611c8d612a6f565b80600384016124bd612bcf565b5050506124ce816008611c8d612a6f565b8060086124d9612bcf565b5050506124e9848261123f6121da565b836001600160a01b03167fdacbdde355ba930696a362ea6738feb9f8bd52dfb3d81947558fd3217e23e325828560405191825260208201526040908101905180910390a250505050565b600081815260096020528060408120905080600301612550612a6f565b1580612565575080600101612563612a6f565b155b806125825750600081612576612a6f565b906101000a900460ff16155b15612591576000915050611612565b6001600160a01b038416600090815260048201602052604081206125b3612a6f565b9050806125c557600092505050611612565b60006125e3836001016125d6612a6f565b839063ffffffff6128ca16565b9050612601836002016125f4612a6f565b829063ffffffff6128f416565b9695505050505050565b600082815260056020528060408120600090612625612a6f565b6001600160a01b036101009290920a900416905082816120755760405162461bcd60e51b81526004018080602001828103825283818151815260200191508051906020019080838360005b83811015612688578082015183820152602001612670565b50505050905090810190601f1680156126b55780820380516001836020036101000a031916815260200191505b5092505050604051809103906126c9612a04565b5050509392505050565b6126e5826001600160a01b031661291e565b61273e5760405162461bcd60e51b815260206004820152601f60248201527f5361666545524332303a2063616c6c20746f206e6f6e2d636f6e74726163740060448201526064016040518091039061273b612a04565b50505b60006060836001600160a01b0316836040518082805190602001908083835b6020831061277c5780518252601f19909201916020918201910161275d565b6001836020036101000a0380198251168184511680821785525050505050509050019150506000604051808303816000865a6127b6612ca9565b5050505050509150503d80600081146127eb576040513d603f01601f191681016040523d815291503d6000602084013e6127f0565b606091505b50915091508161284f5760405162461bcd60e51b815260206004820181905260248201527f5361666545524332303a206c6f772d6c6576656c2063616c6c206661696c656460448201526064016040518091039061284c612a04565b50505b600081511115611e6457602081018151602081101561287657600080612873612a04565b50505b8101908080519250611e649150505760405162461bcd60e51b815260040180806020018281038252602a815260200180612e41602a9139604001915050604051809103906128c2612a04565b505050505050565b6000611e9e826128e885670de0b6b3a764000063ffffffff61293316565b9063ffffffff61299216565b6000670de0b6b3a764000061290f848463ffffffff61293316565b8161291657fe5b049392505050565b6000808261292a612aca565b15159392505050565b60008261294257506000611612565b8282028284828161294f57fe5b0414611e9e5760405162461bcd60e51b8152600401808060200182810382526021815260200180612de46021913960400191505060405180910390612345612a04565b60008082116129f05760405162461bcd60e51b815260206004820152601a60248201527f536166654d6174683a206469766973696f6e206279207a65726f0000000000006044820152606401604051809103906129ed612a04565b50505b60008284816129fb57fe5b04949350505050565b632a2a7adb598160e01b8152600481016020815285602082015260005b86811015612a3c578086015182820160400152602001612a21565b506020828760640184336000905af158600e01573d6000803e3d6000fd5b3d6001141558600a015760016000f35b505050565b6303daa959598160e01b8152836004820152602081602483336000905af158600e01573d6000803e3d6000fd5b3d6001141558600a015760016000f35b8051935060005b60408110156119af57600082820152602001612ab3565b638435035b598160e01b8152836004820152602081602483336000905af158600e01573d6000803e3d6000fd5b3d6001141558600a015760016000f35b80516000825293506020612ab3565b638540661f598160e01b8152836004820152846024820152606060448201528660648201526084810160005b88811015612b5a578088015182820152602001612b42565b50876101040182016060838a6101040185336000905af158600e01573d6000803e3d6000fd5b3d6001141558600a015760016000f35b825160408401513d6000863e8c8c82606088013350600060045af15059855b81811015612bc35760008152602001612baf565b50919c50505050505050565b6322bd64c0598160e01b8152836004820152846024820152600081604483336000905af158600e01573d6000803e3d6000fd5b3d6001141558600a015760016000f35b600081526020612ab3565b6373509064598160e01b8152602081600483336000905af158600e01573d6000803e3d6000fd5b3d6001141558600a015760016000f35b80516000825293506020612ab3565b63bdbf8c36598160e01b8152602081600483336000905af158600e01573d6000803e3d6000fd5b3d6001141558600a015760016000f35b80516000825293506020612ab3565b6385979f76598160e01b8152836004820152846024820152606060448201528760648201526084810160005b89811015612ced578089015182820152602001612cd5565b50886101040182016060838b6101040185336000905af158600e01573d6000803e3d6000fd5b3d6001141558600a015760016000f35b825160408401513d6000863e8d8d82606088013350600060045af15059855b81811015612d565760008152602001612d42565b50919d50505050505050565b60405161030080820160405260189082908038833950919291505056fe596f75206d757374206265206e6f6d696e61746564206265666f726520796f752063616e20616363657074206f776e6572736869704f6e6c792074686520636f6e7472616374206f776e6572206d617920706572666f726d207468697320616374696f6e536166654d6174683a206d756c7469706c69636174696f6e206f766572666c6f775468697320616374696f6e2063616e6e6f7420626520706572666f726d6564207768696c652074686520636f6e7472616374206973207061757365645361666545524332303a204552433230206f7065726174696f6e20646964206e6f742073756363656564",
			"opcodes": "PUSH1 0x80 PUSH1 0x40 MSTORE PUSH1 0x40 MLOAD PUSH1 0x40 DUP1 DUP3 ADD SWAP1 MSTORE PUSH9 0x22BC31B430B733B2B9 PUSH1 0xB9 SHL DUP2 MSTORE PUSH9 0xA6F2DCE8D0CAE8D2F PUSH1 0xBB SHL PUSH1 0x20 DUP3 ADD MSTORE PUSH3 0x3F SWAP1 PUSH1 0xB SWAP1 PUSH1 0x2 PUSH3 0x43F JUMP JUMPDEST POP CALLVALUE DUP1 ISZERO PUSH3 0x58 JUMPI PUSH1 0x0 DUP1 PUSH3 0x55 PUSH3 0x48D JUMP JUMPDEST POP POP JUMPDEST POP PUSH1 0x40 MLOAD PUSH3 0x3453 CODESIZE SUB DUP1 PUSH3 0x3453 DUP4 CODECOPY DUP2 DUP2 ADD PUSH1 0x40 MSTORE PUSH1 0x60 DUP2 LT ISZERO PUSH3 0x89 JUMPI PUSH1 0x0 DUP1 PUSH3 0x86 PUSH3 0x48D JUMP JUMPDEST POP POP JUMPDEST DUP2 ADD SWAP1 DUP1 DUP1 MLOAD SWAP3 SWAP2 SWAP1 PUSH1 0x20 ADD DUP1 MLOAD SWAP3 SWAP2 SWAP1 PUSH1 0x20 ADD DUP1 MLOAD SWAP3 POP DUP3 SWAP2 POP PUSH1 0xB SWAP1 POP PUSH1 0x18 PUSH2 0x300 PUSH1 0x40 MLOAD SWAP1 DUP2 ADD PUSH1 0x40 MSTORE SWAP2 SWAP1 PUSH2 0x300 DUP4 ADD DUP3 DUP5 JUMPDEST DUP2 PUSH3 0xCB PUSH3 0x4FA JUMP JUMPDEST DUP2 MSTORE PUSH1 0x20 ADD SWAP1 PUSH1 0x1 ADD SWAP1 DUP1 DUP4 GT PUSH3 0xC0 JUMPI POP POP POP POP POP DUP5 PUSH1 0x1 PUSH1 0x0 DUP2 SWAP1 PUSH3 0xF3 PUSH3 0x55C JUMP JUMPDEST POP POP POP PUSH1 0x1 PUSH1 0x1 PUSH1 0xA0 SHL SUB DUP2 AND PUSH3 0x15C JUMPI PUSH1 0x40 MLOAD PUSH3 0x461BCD PUSH1 0xE5 SHL DUP2 MSTORE PUSH1 0x20 PUSH1 0x4 DUP3 ADD MSTORE PUSH1 0x19 PUSH1 0x24 DUP3 ADD MSTORE PUSH32 0x4F776E657220616464726573732063616E6E6F74206265203000000000000000 PUSH1 0x44 DUP3 ADD MSTORE PUSH1 0x64 ADD PUSH1 0x40 MLOAD DUP1 SWAP2 SUB SWAP1 PUSH3 0x159 PUSH3 0x48D JUMP JUMPDEST POP POP JUMPDEST DUP1 PUSH1 0x1 DUP1 DUP1 PUSH3 0x16B PUSH3 0x4FA JUMP JUMPDEST DUP2 PUSH1 0x1 PUSH1 0x1 PUSH1 0xA0 SHL SUB MUL NOT AND SWAP1 DUP4 PUSH1 0x1 PUSH1 0x1 PUSH1 0xA0 SHL SUB AND MUL OR SWAP1 PUSH3 0x18F PUSH3 0x55C JUMP JUMPDEST POP POP POP PUSH32 0xB532073B38C83145E3E5135377A08BF9AAB55BC0FD7C1179CD4FB995D2A5159C PUSH1 0x0 DUP3 PUSH1 0x40 MLOAD PUSH1 0x1 PUSH1 0x1 PUSH1 0xA0 SHL SUB SWAP3 DUP4 AND DUP2 MSTORE SWAP2 AND PUSH1 0x20 DUP3 ADD MSTORE PUSH1 0x40 SWAP1 DUP2 ADD SWAP1 MLOAD DUP1 SWAP2 SUB SWAP1 LOG1 POP PUSH1 0x0 DUP1 PUSH1 0x1 PUSH3 0x1E9 PUSH3 0x4FA JUMP JUMPDEST SWAP1 PUSH2 0x100 EXP SWAP1 DIV PUSH1 0x1 PUSH1 0x1 PUSH1 0xA0 SHL SUB AND PUSH1 0x1 PUSH1 0x1 PUSH1 0xA0 SHL SUB AND EQ ISZERO PUSH3 0x254 JUMPI PUSH1 0x40 MLOAD PUSH3 0x461BCD PUSH1 0xE5 SHL DUP2 MSTORE PUSH1 0x20 PUSH1 0x4 DUP3 ADD MSTORE PUSH1 0x11 PUSH1 0x24 DUP3 ADD MSTORE PUSH17 0x13DDDB995C881B5D5CDD081899481CD95D PUSH1 0x7A SHL PUSH1 0x44 DUP3 ADD MSTORE PUSH1 0x64 ADD PUSH1 0x40 MLOAD DUP1 SWAP2 SUB SWAP1 PUSH3 0x251 PUSH3 0x48D JUMP JUMPDEST POP POP JUMPDEST PUSH1 0x0 DUP1 PUSH1 0x1 PUSH3 0x263 PUSH3 0x4FA JUMP JUMPDEST SWAP1 PUSH2 0x100 EXP SWAP1 DIV PUSH1 0x1 PUSH1 0x1 PUSH1 0xA0 SHL SUB AND PUSH1 0x1 PUSH1 0x1 PUSH1 0xA0 SHL SUB AND EQ ISZERO PUSH3 0x2CE JUMPI PUSH1 0x40 MLOAD PUSH3 0x461BCD PUSH1 0xE5 SHL DUP2 MSTORE PUSH1 0x20 PUSH1 0x4 DUP3 ADD MSTORE PUSH1 0x11 PUSH1 0x24 DUP3 ADD MSTORE PUSH17 0x13DDDB995C881B5D5CDD081899481CD95D PUSH1 0x7A SHL PUSH1 0x44 DUP3 ADD MSTORE PUSH1 0x64 ADD PUSH1 0x40 MLOAD DUP1 SWAP2 SUB SWAP1 PUSH3 0x2CB PUSH3 0x48D JUMP JUMPDEST POP POP JUMPDEST PUSH1 0x0 JUMPDEST PUSH1 0x18 DUP2 LT ISZERO PUSH3 0x35E JUMPI PUSH1 0x0 DUP3 DUP3 PUSH1 0x18 DUP2 LT PUSH3 0x2EA JUMPI INVALID JUMPDEST PUSH1 0x20 MUL ADD MLOAD EQ PUSH3 0x34F JUMPI PUSH1 0x6 DUP3 DUP3 PUSH1 0x18 DUP2 LT PUSH3 0x304 JUMPI INVALID JUMPDEST PUSH1 0x20 MUL ADD MLOAD SWAP1 DUP1 PUSH1 0x1 DUP2 PUSH3 0x318 PUSH3 0x4FA JUMP JUMPDEST ADD DUP1 DUP3 PUSH3 0x325 PUSH3 0x55C JUMP JUMPDEST POP POP PUSH1 0x0 SWAP3 DUP4 MSTORE SWAP2 PUSH1 0x0 NOT DUP4 ADD SWAP2 POP PUSH1 0x20 SWAP1 KECCAK256 SWAP2 SWAP3 SWAP2 ADD PUSH3 0x346 PUSH3 0x55C JUMP JUMPDEST POP POP POP PUSH3 0x355 JUMP JUMPDEST PUSH3 0x35E JUMP JUMPDEST PUSH1 0x1 ADD PUSH3 0x2D1 JUMP JUMPDEST POP DUP2 PUSH1 0x4 PUSH2 0x100 DUP2 PUSH3 0x370 PUSH3 0x4FA JUMP JUMPDEST DUP2 PUSH1 0x1 PUSH1 0x1 PUSH1 0xA0 SHL SUB MUL NOT AND SWAP1 DUP4 PUSH1 0x1 PUSH1 0x1 PUSH1 0xA0 SHL SUB AND MUL OR SWAP1 PUSH3 0x394 PUSH3 0x55C JUMP JUMPDEST POP POP POP POP POP PUSH1 0x1 PUSH1 0x1 PUSH1 0xA0 SHL SUB DUP3 AND PUSH3 0x3FF JUMPI PUSH1 0x40 MLOAD PUSH3 0x461BCD PUSH1 0xE5 SHL DUP2 MSTORE PUSH1 0x20 PUSH1 0x4 DUP3 ADD MSTORE PUSH1 0x19 PUSH1 0x24 DUP3 ADD MSTORE PUSH32 0x496E76616C696420706572696F6420636F6E74726F6C6C657200000000000000 PUSH1 0x44 DUP3 ADD MSTORE PUSH1 0x64 ADD PUSH1 0x40 MLOAD DUP1 SWAP2 SUB SWAP1 PUSH3 0x3FC PUSH3 0x48D JUMP JUMPDEST POP POP JUMPDEST DUP2 PUSH1 0xA PUSH1 0x1 DUP2 PUSH3 0x40F PUSH3 0x4FA JUMP JUMPDEST DUP2 PUSH1 0x1 PUSH1 0x1 PUSH1 0xA0 SHL SUB MUL NOT AND SWAP1 DUP4 PUSH1 0x1 PUSH1 0x1 PUSH1 0xA0 SHL SUB AND MUL OR SWAP1 PUSH3 0x433 PUSH3 0x55C JUMP JUMPDEST POP POP POP POP POP POP PUSH3 0x5D8 JUMP JUMPDEST DUP3 PUSH1 0x18 DUP2 ADD SWAP3 DUP3 ISZERO PUSH3 0x47B JUMPI SWAP2 PUSH1 0x20 MUL DUP3 ADD JUMPDEST DUP3 DUP2 GT ISZERO PUSH3 0x47B JUMPI DUP3 MLOAD DUP3 PUSH3 0x469 PUSH3 0x55C JUMP JUMPDEST POP POP SWAP2 PUSH1 0x20 ADD SWAP2 SWAP1 PUSH1 0x1 ADD SWAP1 PUSH3 0x453 JUMP JUMPDEST POP PUSH3 0x489 SWAP3 SWAP2 POP PUSH3 0x5AB JUMP JUMPDEST POP SWAP1 JUMP JUMPDEST PUSH4 0x2A2A7ADB MSIZE DUP2 PUSH1 0xE0 SHL DUP2 MSTORE PUSH1 0x4 DUP2 ADD PUSH1 0x20 DUP2 MSTORE DUP6 PUSH1 0x20 DUP3 ADD MSTORE PUSH1 0x0 JUMPDEST DUP7 DUP2 LT ISZERO PUSH3 0x4C7 JUMPI DUP1 DUP7 ADD MLOAD DUP3 DUP3 ADD PUSH1 0x40 ADD MSTORE PUSH1 0x20 ADD PUSH3 0x4AA JUMP JUMPDEST POP PUSH1 0x20 DUP3 DUP8 PUSH1 0x64 ADD DUP5 CALLER PUSH1 0x0 SWAP1 GAS CALL PC PUSH1 0xE ADD JUMPI RETURNDATASIZE PUSH1 0x0 DUP1 RETURNDATACOPY RETURNDATASIZE PUSH1 0x0 REVERT JUMPDEST RETURNDATASIZE PUSH1 0x1 EQ ISZERO PC PUSH1 0xA ADD JUMPI PUSH1 0x1 PUSH1 0x0 RETURN JUMPDEST POP POP POP JUMP JUMPDEST PUSH4 0x3DAA959 MSIZE DUP2 PUSH1 0xE0 SHL DUP2 MSTORE DUP4 PUSH1 0x4 DUP3 ADD MSTORE PUSH1 0x20 DUP2 PUSH1 0x24 DUP4 CALLER PUSH1 0x0 SWAP1 GAS CALL PC PUSH1 0xE ADD JUMPI RETURNDATASIZE PUSH1 0x0 DUP1 RETURNDATACOPY RETURNDATASIZE PUSH1 0x0 REVERT JUMPDEST RETURNDATASIZE PUSH1 0x1 EQ ISZERO PC PUSH1 0xA ADD JUMPI PUSH1 0x1 PUSH1 0x0 RETURN JUMPDEST DUP1 MLOAD SWAP4 POP PUSH1 0x0 JUMPDEST PUSH1 0x40 DUP2 LT ISZERO PUSH3 0x557 JUMPI PUSH1 0x0 DUP3 DUP3 ADD MSTORE PUSH1 0x20 ADD PUSH3 0x53E JUMP JUMPDEST POP POP POP JUMP JUMPDEST PUSH4 0x22BD64C0 MSIZE DUP2 PUSH1 0xE0 SHL DUP2 MSTORE DUP4 PUSH1 0x4 DUP3 ADD MSTORE DUP5 PUSH1 0x24 DUP3 ADD MSTORE PUSH1 0x0 DUP2 PUSH1 0x44 DUP4 CALLER PUSH1 0x0 SWAP1 GAS CALL PC PUSH1 0xE ADD JUMPI RETURNDATASIZE PUSH1 0x0 DUP1 RETURNDATACOPY RETURNDATASIZE PUSH1 0x0 REVERT JUMPDEST RETURNDATASIZE PUSH1 0x1 EQ ISZERO PC PUSH1 0xA ADD JUMPI PUSH1 0x1 PUSH1 0x0 RETURN JUMPDEST PUSH1 0x0 DUP2 MSTORE PUSH1 0x20 PUSH3 0x53E JUMP JUMPDEST PUSH3 0x5D5 SWAP2 SWAP1 JUMPDEST DUP1 DUP3 GT ISZERO PUSH3 0x489 JUMPI PUSH1 0x0 DUP1 DUP3 PUSH3 0x5C9 PUSH3 0x55C JUMP JUMPDEST POP POP POP PUSH1 0x1 ADD PUSH3 0x5B2 JUMP JUMPDEST SWAP1 JUMP JUMPDEST PUSH2 0x2E6B DUP1 PUSH3 0x5E8 PUSH1 0x0 CODECOPY PUSH1 0x0 RETURN INVALID PUSH1 0x80 PUSH1 0x40 MSTORE CALLVALUE DUP1 ISZERO PUSH2 0x19 JUMPI PUSH1 0x0 DUP1 PUSH2 0x16 PUSH2 0x2A04 JUMP JUMPDEST POP POP JUMPDEST POP PUSH1 0x4 CALLDATASIZE LT PUSH2 0x21A JUMPI PUSH1 0x0 CALLDATALOAD PUSH1 0xE0 SHR DUP1 PUSH4 0x706848D2 GT PUSH2 0x12E JUMPI DUP1 PUSH4 0xC6C9D828 GT PUSH2 0xB6 JUMPI DUP1 PUSH4 0xE3235C91 GT PUSH2 0x85 JUMPI DUP1 PUSH4 0xE3235C91 EQ PUSH2 0x61F JUMPI DUP1 PUSH4 0xF32FFD69 EQ PUSH2 0x627 JUMPI DUP1 PUSH4 0xF61F5DF6 EQ PUSH2 0x6BB JUMPI DUP1 PUSH4 0xF6B58479 EQ PUSH2 0x6F0 JUMPI DUP1 PUSH4 0xFC9C99AC EQ PUSH2 0x794 JUMPI PUSH2 0x21A JUMP JUMPDEST DUP1 PUSH4 0xC6C9D828 EQ PUSH2 0x5BC JUMPI DUP1 PUSH4 0xCCB6E043 EQ PUSH2 0x31C JUMPI DUP1 PUSH4 0xCE7FCCBA EQ PUSH2 0x5E2 JUMPI DUP1 PUSH4 0xDEA021A5 EQ PUSH2 0x617 JUMPI PUSH2 0x21A JUMP JUMPDEST DUP1 PUSH4 0x937FFB8F GT PUSH2 0xFD JUMPI DUP1 PUSH4 0x937FFB8F EQ PUSH2 0x4F2 JUMPI DUP1 PUSH4 0x9865FDB7 EQ PUSH2 0x518 JUMPI DUP1 PUSH4 0xAB49848C EQ PUSH2 0x520 JUMPI DUP1 PUSH4 0xAE934A7A EQ PUSH2 0x561 JUMPI DUP1 PUSH4 0xB225DBAA EQ PUSH2 0x596 JUMPI PUSH2 0x21A JUMP JUMPDEST DUP1 PUSH4 0x706848D2 EQ PUSH2 0x4B4 JUMPI DUP1 PUSH4 0x79BA5097 EQ PUSH2 0x4DA JUMPI DUP1 PUSH4 0x8DA5CB5B EQ PUSH2 0x4E2 JUMPI DUP1 PUSH4 0x91B4DED9 EQ PUSH2 0x4EA JUMPI PUSH2 0x21A JUMP JUMPDEST DUP1 PUSH4 0x38DFA8CF GT PUSH2 0x1B1 JUMPI DUP1 PUSH4 0x53A47BB7 GT PUSH2 0x180 JUMPI DUP1 PUSH4 0x53A47BB7 EQ PUSH2 0x447 JUMPI DUP1 PUSH4 0x55AA41BF EQ PUSH2 0x44F JUMPI DUP1 PUSH4 0x5C975ABB EQ PUSH2 0x475 JUMPI DUP1 PUSH4 0x631E1444 EQ PUSH2 0x47D JUMPI DUP1 PUSH4 0x6FE4136B EQ PUSH2 0x4AC JUMPI PUSH2 0x21A JUMP JUMPDEST DUP1 PUSH4 0x38DFA8CF EQ PUSH2 0x38B JUMPI DUP1 PUSH4 0x3BE99E6F EQ PUSH2 0x3BA JUMPI DUP1 PUSH4 0x3DBF12FA EQ PUSH2 0x3E9 JUMPI DUP1 PUSH4 0x52D5999F EQ PUSH2 0x418 JUMPI PUSH2 0x21A JUMP JUMPDEST DUP1 PUSH4 0x16841952 GT PUSH2 0x1ED JUMPI DUP1 PUSH4 0x16841952 EQ PUSH2 0x2CE JUMPI DUP1 PUSH4 0x16C38B3C EQ PUSH2 0x2F4 JUMPI DUP1 PUSH4 0x175C5189 EQ PUSH2 0x31C JUMPI DUP1 PUSH4 0x21CAD774 EQ PUSH2 0x356 JUMPI PUSH2 0x21A JUMP JUMPDEST DUP1 PUSH4 0x4F3BCEC EQ PUSH2 0x228 JUMPI DUP1 PUSH4 0x56097AC EQ PUSH2 0x24C JUMPI DUP1 PUSH4 0x86146D2 EQ PUSH2 0x285 JUMPI DUP1 PUSH4 0x1627540C EQ PUSH2 0x29F JUMPI JUMPDEST PUSH1 0x0 DUP1 PUSH2 0x225 PUSH2 0x2A04 JUMP JUMPDEST POP POP JUMPDEST PUSH2 0x230 PUSH2 0x79C JUMP JUMPDEST PUSH1 0x40 MLOAD PUSH1 0x1 PUSH1 0x1 PUSH1 0xA0 SHL SUB SWAP1 SWAP2 AND DUP2 MSTORE PUSH1 0x20 ADD PUSH1 0x40 MLOAD DUP1 SWAP2 SUB SWAP1 RETURN JUMPDEST PUSH2 0x283 PUSH1 0x4 DUP1 CALLDATASIZE SUB PUSH1 0x40 DUP2 LT ISZERO PUSH2 0x26B JUMPI PUSH1 0x0 DUP1 PUSH2 0x268 PUSH2 0x2A04 JUMP JUMPDEST POP POP JUMPDEST POP PUSH1 0x1 PUSH1 0x1 PUSH1 0xA0 SHL SUB DUP2 CALLDATALOAD DUP2 AND SWAP2 PUSH1 0x20 ADD CALLDATALOAD AND PUSH2 0x7BB JUMP JUMPDEST STOP JUMPDEST PUSH2 0x28D PUSH2 0xA13 JUMP JUMPDEST PUSH1 0x40 MLOAD SWAP1 DUP2 MSTORE PUSH1 0x20 ADD PUSH1 0x40 MLOAD DUP1 SWAP2 SUB SWAP1 RETURN JUMPDEST PUSH2 0x283 PUSH1 0x4 DUP1 CALLDATASIZE SUB PUSH1 0x20 DUP2 LT ISZERO PUSH2 0x2BE JUMPI PUSH1 0x0 DUP1 PUSH2 0x2BB PUSH2 0x2A04 JUMP JUMPDEST POP POP JUMPDEST POP CALLDATALOAD PUSH1 0x1 PUSH1 0x1 PUSH1 0xA0 SHL SUB AND PUSH2 0xA24 JUMP JUMPDEST PUSH2 0x283 PUSH1 0x4 DUP1 CALLDATASIZE SUB PUSH1 0x20 DUP2 LT ISZERO PUSH2 0x2ED JUMPI PUSH1 0x0 DUP1 PUSH2 0x2EA PUSH2 0x2A04 JUMP JUMPDEST POP POP JUMPDEST POP CALLDATALOAD PUSH2 0xA9F JUMP JUMPDEST PUSH2 0x283 PUSH1 0x4 DUP1 CALLDATASIZE SUB PUSH1 0x20 DUP2 LT ISZERO PUSH2 0x313 JUMPI PUSH1 0x0 DUP1 PUSH2 0x310 PUSH2 0x2A04 JUMP JUMPDEST POP POP JUMPDEST POP CALLDATALOAD ISZERO ISZERO PUSH2 0xDF5 JUMP JUMPDEST PUSH2 0x342 PUSH1 0x4 DUP1 CALLDATASIZE SUB PUSH1 0x20 DUP2 LT ISZERO PUSH2 0x33B JUMPI PUSH1 0x0 DUP1 PUSH2 0x338 PUSH2 0x2A04 JUMP JUMPDEST POP POP JUMPDEST POP CALLDATALOAD PUSH2 0xECB JUMP JUMPDEST PUSH1 0x40 MLOAD SWAP1 ISZERO ISZERO DUP2 MSTORE PUSH1 0x20 ADD PUSH1 0x40 MLOAD DUP1 SWAP2 SUB SWAP1 RETURN JUMPDEST PUSH2 0x283 PUSH1 0x4 DUP1 CALLDATASIZE SUB PUSH1 0x40 DUP2 LT ISZERO PUSH2 0x375 JUMPI PUSH1 0x0 DUP1 PUSH2 0x372 PUSH2 0x2A04 JUMP JUMPDEST POP POP JUMPDEST POP DUP1 CALLDATALOAD SWAP1 PUSH1 0x20 ADD CALLDATALOAD PUSH1 0x1 PUSH1 0x1 PUSH1 0xA0 SHL SUB AND PUSH2 0xEF6 JUMP JUMPDEST PUSH2 0x283 PUSH1 0x4 DUP1 CALLDATASIZE SUB PUSH1 0x20 DUP2 LT ISZERO PUSH2 0x3AA JUMPI PUSH1 0x0 DUP1 PUSH2 0x3A7 PUSH2 0x2A04 JUMP JUMPDEST POP POP JUMPDEST POP CALLDATALOAD PUSH1 0x1 PUSH1 0x1 PUSH1 0xA0 SHL SUB AND PUSH2 0x1055 JUMP JUMPDEST PUSH2 0x283 PUSH1 0x4 DUP1 CALLDATASIZE SUB PUSH1 0x20 DUP2 LT ISZERO PUSH2 0x3D9 JUMPI PUSH1 0x0 DUP1 PUSH2 0x3D6 PUSH2 0x2A04 JUMP JUMPDEST POP POP JUMPDEST POP CALLDATALOAD PUSH1 0x1 PUSH1 0x1 PUSH1 0xA0 SHL SUB AND PUSH2 0x129E JUMP JUMPDEST PUSH2 0x283 PUSH1 0x4 DUP1 CALLDATASIZE SUB PUSH1 0x20 DUP2 LT ISZERO PUSH2 0x408 JUMPI PUSH1 0x0 DUP1 PUSH2 0x405 PUSH2 0x2A04 JUMP JUMPDEST POP POP JUMPDEST POP CALLDATALOAD PUSH1 0x1 PUSH1 0x1 PUSH1 0xA0 SHL SUB AND PUSH2 0x1469 JUMP JUMPDEST PUSH2 0x283 PUSH1 0x4 DUP1 CALLDATASIZE SUB PUSH1 0x20 DUP2 LT ISZERO PUSH2 0x437 JUMPI PUSH1 0x0 DUP1 PUSH2 0x434 PUSH2 0x2A04 JUMP JUMPDEST POP POP JUMPDEST POP CALLDATALOAD PUSH1 0x1 PUSH1 0x1 PUSH1 0xA0 SHL SUB AND PUSH2 0x1547 JUMP JUMPDEST PUSH2 0x230 PUSH2 0x15ED JUMP JUMPDEST PUSH2 0x28D PUSH1 0x4 DUP1 CALLDATASIZE SUB PUSH1 0x20 DUP2 LT ISZERO PUSH2 0x46E JUMPI PUSH1 0x0 DUP1 PUSH2 0x46B PUSH2 0x2A04 JUMP JUMPDEST POP POP JUMPDEST POP CALLDATALOAD PUSH2 0x15F9 JUMP JUMPDEST PUSH2 0x342 PUSH2 0x1618 JUMP JUMPDEST PUSH2 0x342 PUSH1 0x4 DUP1 CALLDATASIZE SUB PUSH1 0x20 DUP2 LT ISZERO PUSH2 0x49C JUMPI PUSH1 0x0 DUP1 PUSH2 0x499 PUSH2 0x2A04 JUMP JUMPDEST POP POP JUMPDEST POP CALLDATALOAD PUSH1 0x1 PUSH1 0x1 PUSH1 0xA0 SHL SUB AND PUSH2 0x1631 JUMP JUMPDEST PUSH2 0x230 PUSH2 0x180C JUMP JUMPDEST PUSH2 0x28D PUSH1 0x4 DUP1 CALLDATASIZE SUB PUSH1 0x20 DUP2 LT ISZERO PUSH2 0x4D3 JUMPI PUSH1 0x0 DUP1 PUSH2 0x4D0 PUSH2 0x2A04 JUMP JUMPDEST POP POP JUMPDEST POP CALLDATALOAD PUSH2 0x1816 JUMP JUMPDEST PUSH2 0x283 PUSH2 0x182F JUMP JUMPDEST PUSH2 0x230 PUSH2 0x19B4 JUMP JUMPDEST PUSH2 0x28D PUSH2 0x19C0 JUMP JUMPDEST PUSH2 0x28D PUSH1 0x4 DUP1 CALLDATASIZE SUB PUSH1 0x20 DUP2 LT ISZERO PUSH2 0x511 JUMPI PUSH1 0x0 DUP1 PUSH2 0x50E PUSH2 0x2A04 JUMP JUMPDEST POP POP JUMPDEST POP CALLDATALOAD PUSH2 0x19CD JUMP JUMPDEST PUSH2 0x28D PUSH2 0x19E6 JUMP JUMPDEST PUSH2 0x528 PUSH2 0x1B12 JUMP JUMPDEST PUSH1 0x40 MLOAD DUP1 DUP3 PUSH2 0x300 DUP1 DUP4 DUP4 PUSH1 0x0 JUMPDEST DUP4 DUP2 LT ISZERO PUSH2 0x54E JUMPI DUP1 DUP3 ADD MLOAD DUP4 DUP3 ADD MSTORE PUSH1 0x20 ADD PUSH2 0x536 JUMP JUMPDEST POP POP POP POP SWAP1 POP ADD SWAP2 POP POP PUSH1 0x40 MLOAD DUP1 SWAP2 SUB SWAP1 RETURN JUMPDEST PUSH2 0x283 PUSH1 0x4 DUP1 CALLDATASIZE SUB PUSH1 0x40 DUP2 LT ISZERO PUSH2 0x580 JUMPI PUSH1 0x0 DUP1 PUSH2 0x57D PUSH2 0x2A04 JUMP JUMPDEST POP POP JUMPDEST POP PUSH1 0x1 PUSH1 0x1 PUSH1 0xA0 SHL SUB DUP2 CALLDATALOAD AND SWAP1 PUSH1 0x20 ADD CALLDATALOAD PUSH2 0x1B74 JUMP JUMPDEST PUSH2 0x283 PUSH1 0x4 DUP1 CALLDATASIZE SUB PUSH1 0x20 DUP2 LT ISZERO PUSH2 0x5B5 JUMPI PUSH1 0x0 DUP1 PUSH2 0x5B2 PUSH2 0x2A04 JUMP JUMPDEST POP POP JUMPDEST POP CALLDATALOAD PUSH2 0x1D68 JUMP JUMPDEST PUSH2 0x28D PUSH1 0x4 DUP1 CALLDATASIZE SUB PUSH1 0x20 DUP2 LT ISZERO PUSH2 0x5DB JUMPI PUSH1 0x0 DUP1 PUSH2 0x5D8 PUSH2 0x2A04 JUMP JUMPDEST POP POP JUMPDEST POP CALLDATALOAD PUSH2 0x1E6A JUMP JUMPDEST PUSH2 0x28D PUSH1 0x4 DUP1 CALLDATASIZE SUB PUSH1 0x40 DUP2 LT ISZERO PUSH2 0x601 JUMPI PUSH1 0x0 DUP1 PUSH2 0x5FE PUSH2 0x2A04 JUMP JUMPDEST POP POP JUMPDEST POP PUSH1 0x1 PUSH1 0x1 PUSH1 0xA0 SHL SUB DUP2 CALLDATALOAD AND SWAP1 PUSH1 0x20 ADD CALLDATALOAD PUSH2 0x1E92 JUMP JUMPDEST PUSH2 0x230 PUSH2 0x1EA5 JUMP JUMPDEST PUSH2 0x28D PUSH2 0x1EC7 JUMP JUMPDEST PUSH2 0x283 PUSH1 0x4 DUP1 CALLDATASIZE SUB PUSH1 0x20 DUP2 LT ISZERO PUSH2 0x646 JUMPI PUSH1 0x0 DUP1 PUSH2 0x643 PUSH2 0x2A04 JUMP JUMPDEST POP POP JUMPDEST DUP2 ADD SWAP1 PUSH1 0x20 DUP2 ADD DUP2 CALLDATALOAD PUSH5 0x100000000 DUP2 GT ISZERO PUSH2 0x66A JUMPI PUSH1 0x0 DUP1 PUSH2 0x667 PUSH2 0x2A04 JUMP JUMPDEST POP POP JUMPDEST DUP3 ADD DUP4 PUSH1 0x20 DUP3 ADD GT ISZERO PUSH2 0x685 JUMPI PUSH1 0x0 DUP1 PUSH2 0x682 PUSH2 0x2A04 JUMP JUMPDEST POP POP JUMPDEST DUP1 CALLDATALOAD SWAP1 PUSH1 0x20 ADD SWAP2 DUP5 PUSH1 0x20 DUP4 MUL DUP5 ADD GT PUSH5 0x100000000 DUP4 GT OR ISZERO PUSH2 0x6B0 JUMPI PUSH1 0x0 DUP1 PUSH2 0x6AD PUSH2 0x2A04 JUMP JUMPDEST POP POP JUMPDEST POP SWAP1 SWAP3 POP SWAP1 POP PUSH2 0x1ECC JUMP JUMPDEST PUSH2 0x28D PUSH1 0x4 DUP1 CALLDATASIZE SUB PUSH1 0x40 DUP2 LT ISZERO PUSH2 0x6DA JUMPI PUSH1 0x0 DUP1 PUSH2 0x6D7 PUSH2 0x2A04 JUMP JUMPDEST POP POP JUMPDEST POP PUSH1 0x1 PUSH1 0x1 PUSH1 0xA0 SHL SUB DUP2 CALLDATALOAD AND SWAP1 PUSH1 0x20 ADD CALLDATALOAD PUSH2 0x1FFB JUMP JUMPDEST PUSH2 0x28D PUSH1 0x4 DUP1 CALLDATASIZE SUB PUSH1 0x40 DUP2 LT ISZERO PUSH2 0x70F JUMPI PUSH1 0x0 DUP1 PUSH2 0x70C PUSH2 0x2A04 JUMP JUMPDEST POP POP JUMPDEST PUSH1 0x1 PUSH1 0x1 PUSH1 0xA0 SHL SUB DUP3 CALLDATALOAD AND SWAP2 SWAP1 DUP2 ADD SWAP1 PUSH1 0x40 DUP2 ADD PUSH1 0x20 DUP3 ADD CALLDATALOAD PUSH5 0x100000000 DUP2 GT ISZERO PUSH2 0x743 JUMPI PUSH1 0x0 DUP1 PUSH2 0x740 PUSH2 0x2A04 JUMP JUMPDEST POP POP JUMPDEST DUP3 ADD DUP4 PUSH1 0x20 DUP3 ADD GT ISZERO PUSH2 0x75E JUMPI PUSH1 0x0 DUP1 PUSH2 0x75B PUSH2 0x2A04 JUMP JUMPDEST POP POP JUMPDEST DUP1 CALLDATALOAD SWAP1 PUSH1 0x20 ADD SWAP2 DUP5 PUSH1 0x20 DUP4 MUL DUP5 ADD GT PUSH5 0x100000000 DUP4 GT OR ISZERO PUSH2 0x789 JUMPI PUSH1 0x0 DUP1 PUSH2 0x786 PUSH2 0x2A04 JUMP JUMPDEST POP POP JUMPDEST POP SWAP1 SWAP3 POP SWAP1 POP PUSH2 0x202D JUMP JUMPDEST PUSH2 0x28D PUSH2 0x207D JUMP JUMPDEST PUSH1 0x1 PUSH1 0x4 PUSH2 0x7A8 PUSH2 0x2A6F JUMP JUMPDEST SWAP1 PUSH2 0x100 EXP SWAP1 DIV PUSH1 0x1 PUSH1 0x1 PUSH1 0xA0 SHL SUB AND DUP2 JUMP JUMPDEST PUSH2 0x7C3 PUSH2 0x2089 JUMP JUMPDEST PUSH2 0x7CC DUP2 PUSH2 0x2104 JUMP JUMPDEST PUSH2 0x7D4 PUSH2 0x21DA JUMP JUMPDEST PUSH1 0x1 PUSH1 0x1 PUSH1 0xA0 SHL SUB AND DUP3 PUSH1 0x1 PUSH1 0x1 PUSH1 0xA0 SHL SUB AND EQ ISZERO PUSH2 0x842 JUMPI PUSH1 0x40 MLOAD PUSH3 0x461BCD PUSH1 0xE5 SHL DUP2 MSTORE PUSH1 0x20 PUSH1 0x4 DUP3 ADD MSTORE PUSH1 0x19 PUSH1 0x24 DUP3 ADD MSTORE PUSH32 0x4D7573742075736520616E6F746865722066756E6374696F6E00000000000000 PUSH1 0x44 DUP3 ADD MSTORE PUSH1 0x64 ADD PUSH1 0x40 MLOAD DUP1 SWAP2 SUB SWAP1 PUSH2 0x83F PUSH2 0x2A04 JUMP JUMPDEST POP POP JUMPDEST DUP2 PUSH1 0x0 PUSH1 0x1 PUSH1 0x1 PUSH1 0xA0 SHL SUB DUP3 AND PUSH4 0x70A08231 GAS PUSH4 0x996D79A5 MSIZE DUP2 PUSH1 0xE0 SHL DUP2 MSTORE PUSH1 0x20 DUP2 PUSH1 0x4 DUP4 CALLER PUSH1 0x0 SWAP1 GAS CALL PC PUSH1 0xE ADD JUMPI RETURNDATASIZE PUSH1 0x0 DUP1 RETURNDATACOPY RETURNDATASIZE PUSH1 0x0 REVERT JUMPDEST RETURNDATASIZE PUSH1 0x1 EQ ISZERO PC PUSH1 0xA ADD JUMPI PUSH1 0x1 PUSH1 0x0 RETURN JUMPDEST DUP1 MLOAD SWAP3 POP PUSH1 0x0 JUMPDEST PUSH1 0x40 DUP2 LT ISZERO PUSH2 0x8AA JUMPI PUSH1 0x0 DUP3 DUP3 ADD MSTORE PUSH1 0x20 ADD PUSH2 0x893 JUMP JUMPDEST POP POP POP PUSH1 0x40 MLOAD PUSH1 0x1 PUSH1 0x1 PUSH1 0xE0 SHL SUB NOT PUSH1 0xE0 DUP5 SWAP1 SHL AND DUP2 MSTORE PUSH1 0x1 PUSH1 0x1 PUSH1 0xA0 SHL SUB SWAP1 SWAP2 AND PUSH1 0x4 DUP3 ADD MSTORE PUSH1 0x24 ADD PUSH1 0x20 PUSH1 0x40 MLOAD DUP1 DUP4 SUB DUP2 DUP7 DUP1 PUSH2 0x8E7 PUSH2 0x2ACA JUMP JUMPDEST ISZERO DUP1 ISZERO PUSH2 0x8FC JUMPI PUSH1 0x0 DUP1 PUSH2 0x8F9 PUSH2 0x2A04 JUMP JUMPDEST POP POP JUMPDEST POP GAS PUSH2 0x906 PUSH2 0x2B16 JUMP JUMPDEST POP POP POP POP POP ISZERO DUP1 ISZERO PUSH2 0x925 JUMPI RETURNDATASIZE PUSH1 0x0 DUP1 RETURNDATACOPY RETURNDATASIZE PUSH1 0x0 PUSH2 0x922 PUSH2 0x2A04 JUMP JUMPDEST POP POP JUMPDEST POP POP POP POP PUSH1 0x40 MLOAD RETURNDATASIZE PUSH1 0x20 DUP2 LT ISZERO PUSH2 0x944 JUMPI PUSH1 0x0 DUP1 PUSH2 0x941 PUSH2 0x2A04 JUMP JUMPDEST POP POP JUMPDEST DUP2 ADD SWAP1 DUP1 DUP1 MLOAD SWAP4 POP POP POP DUP2 ISZERO ISZERO SWAP1 POP PUSH2 0x9A3 JUMPI PUSH1 0x40 MLOAD PUSH3 0x461BCD PUSH1 0xE5 SHL DUP2 MSTORE PUSH1 0x20 PUSH1 0x4 DUP3 ADD MSTORE PUSH1 0x14 PUSH1 0x24 DUP3 ADD MSTORE PUSH20 0x2737903A37B5B2B739903A37903932B1B7BB32B9 PUSH1 0x61 SHL PUSH1 0x44 DUP3 ADD MSTORE PUSH1 0x64 ADD PUSH1 0x40 MLOAD DUP1 SWAP2 SUB SWAP1 PUSH2 0x9A0 PUSH2 0x2A04 JUMP JUMPDEST POP POP JUMPDEST PUSH2 0x9BD PUSH1 0x1 PUSH1 0x1 PUSH1 0xA0 SHL SUB DUP4 AND DUP5 DUP4 PUSH4 0xFFFFFFFF PUSH2 0x2225 AND JUMP JUMPDEST PUSH32 0x401F439D865A766757EC78675925BD67198D5E78805AA41691B34B5D6A6CBBE6 DUP5 DUP5 DUP4 PUSH1 0x40 MLOAD PUSH1 0x1 PUSH1 0x1 PUSH1 0xA0 SHL SUB SWAP4 DUP5 AND DUP2 MSTORE SWAP2 SWAP1 SWAP3 AND PUSH1 0x20 DUP3 ADD MSTORE PUSH1 0x40 DUP1 DUP3 ADD SWAP3 SWAP1 SWAP3 MSTORE PUSH1 0x60 ADD SWAP1 MLOAD DUP1 SWAP2 SUB SWAP1 LOG1 POP POP POP POP JUMP JUMPDEST PUSH1 0x0 PUSH1 0x7 PUSH2 0xA1F PUSH2 0x2A6F JUMP JUMPDEST SWAP1 POP SWAP1 JUMP JUMPDEST PUSH2 0xA2C PUSH2 0x2089 JUMP JUMPDEST DUP1 PUSH1 0x2 PUSH1 0x1 DUP2 PUSH2 0xA3A PUSH2 0x2A6F JUMP JUMPDEST DUP2 PUSH1 0x1 PUSH1 0x1 PUSH1 0xA0 SHL SUB MUL NOT AND SWAP1 DUP4 PUSH1 0x1 PUSH1 0x1 PUSH1 0xA0 SHL SUB AND MUL OR SWAP1 PUSH2 0xA5C PUSH2 0x2BCF JUMP JUMPDEST POP POP POP PUSH32 0x906A1C6BD7E3091EA86693DD029A831C19049CE77F1DCE2CE0BAB1CACBABCE22 DUP2 PUSH1 0x40 MLOAD PUSH1 0x1 PUSH1 0x1 PUSH1 0xA0 SHL SUB SWAP1 SWAP2 AND DUP2 MSTORE PUSH1 0x20 ADD PUSH1 0x40 MLOAD DUP1 SWAP2 SUB SWAP1 LOG1 POP JUMP JUMPDEST PUSH1 0x0 PUSH1 0xA PUSH2 0xAAB PUSH2 0x2A6F JUMP JUMPDEST SWAP1 PUSH2 0x100 EXP SWAP1 DIV PUSH1 0x1 PUSH1 0x1 PUSH1 0xA0 SHL SUB AND PUSH1 0x1 PUSH1 0x1 PUSH1 0xA0 SHL SUB AND GAS PUSH2 0xACD PUSH2 0x2C1D JUMP JUMPDEST PUSH1 0x1 PUSH1 0x1 PUSH1 0xA0 SHL SUB AND EQ PUSH2 0xB30 JUMPI PUSH1 0x40 MLOAD PUSH3 0x461BCD PUSH1 0xE5 SHL DUP2 MSTORE PUSH1 0x20 PUSH1 0x4 DUP3 ADD MSTORE PUSH1 0x1C PUSH1 0x24 DUP3 ADD MSTORE PUSH32 0x43616C6C6572206E6F7420706572696F6420636F6E74726F6C6C657200000000 PUSH1 0x44 DUP3 ADD MSTORE PUSH1 0x64 ADD PUSH1 0x40 MLOAD DUP1 SWAP2 SUB SWAP1 PUSH2 0xB2D PUSH2 0x2A04 JUMP JUMPDEST POP POP JUMPDEST PUSH1 0x0 PUSH2 0xB3A PUSH2 0x21DA JUMP JUMPDEST PUSH1 0x1 PUSH1 0x1 PUSH1 0xA0 SHL SUB AND PUSH4 0x70A08231 GAS PUSH4 0x996D79A5 MSIZE DUP2 PUSH1 0xE0 SHL DUP2 MSTORE PUSH1 0x20 DUP2 PUSH1 0x4 DUP4 CALLER PUSH1 0x0 SWAP1 GAS CALL PC PUSH1 0xE ADD JUMPI RETURNDATASIZE PUSH1 0x0 DUP1 RETURNDATACOPY RETURNDATASIZE PUSH1 0x0 REVERT JUMPDEST RETURNDATASIZE PUSH1 0x1 EQ ISZERO PC PUSH1 0xA ADD JUMPI PUSH1 0x1 PUSH1 0x0 RETURN JUMPDEST DUP1 MLOAD SWAP3 POP PUSH1 0x0 JUMPDEST PUSH1 0x40 DUP2 LT ISZERO PUSH2 0xB9E JUMPI PUSH1 0x0 DUP3 DUP3 ADD MSTORE PUSH1 0x20 ADD PUSH2 0xB87 JUMP JUMPDEST POP POP POP PUSH1 0x40 MLOAD PUSH1 0x1 PUSH1 0x1 PUSH1 0xE0 SHL SUB NOT PUSH1 0xE0 DUP5 SWAP1 SHL AND DUP2 MSTORE PUSH1 0x1 PUSH1 0x1 PUSH1 0xA0 SHL SUB SWAP1 SWAP2 AND PUSH1 0x4 DUP3 ADD MSTORE PUSH1 0x24 ADD PUSH1 0x20 PUSH1 0x40 MLOAD DUP1 DUP4 SUB DUP2 DUP7 DUP1 PUSH2 0xBDB PUSH2 0x2ACA JUMP JUMPDEST ISZERO DUP1 ISZERO PUSH2 0xBF0 JUMPI PUSH1 0x0 DUP1 PUSH2 0xBED PUSH2 0x2A04 JUMP JUMPDEST POP POP JUMPDEST POP GAS PUSH2 0xBFA PUSH2 0x2B16 JUMP JUMPDEST POP POP POP POP POP ISZERO DUP1 ISZERO PUSH2 0xC19 JUMPI RETURNDATASIZE PUSH1 0x0 DUP1 RETURNDATACOPY RETURNDATASIZE PUSH1 0x0 PUSH2 0xC16 PUSH2 0x2A04 JUMP JUMPDEST POP POP JUMPDEST POP POP POP POP PUSH1 0x40 MLOAD RETURNDATASIZE PUSH1 0x20 DUP2 LT ISZERO PUSH2 0xC38 JUMPI PUSH1 0x0 DUP1 PUSH2 0xC35 PUSH2 0x2A04 JUMP JUMPDEST POP POP JUMPDEST DUP2 ADD SWAP1 DUP1 DUP1 MLOAD SWAP4 POP PUSH1 0x0 SWAP3 POP PUSH2 0xC62 SWAP2 POP PUSH1 0x8 SWAP1 POP PUSH2 0xC55 PUSH2 0x2A6F JUMP JUMPDEST DUP4 SWAP1 PUSH4 0xFFFFFFFF PUSH2 0x2281 AND JUMP JUMPDEST SWAP1 POP DUP1 DUP4 GT ISZERO PUSH2 0xCC1 JUMPI PUSH1 0x40 MLOAD PUSH3 0x461BCD PUSH1 0xE5 SHL DUP2 MSTORE PUSH1 0x20 PUSH1 0x4 DUP3 ADD MSTORE PUSH1 0x19 PUSH1 0x24 DUP3 ADD MSTORE PUSH32 0x496E73756666696369656E742066726565207265776172647300000000000000 PUSH1 0x44 DUP3 ADD MSTORE PUSH1 0x64 ADD PUSH1 0x40 MLOAD DUP1 SWAP2 SUB SWAP1 PUSH2 0xCBE PUSH2 0x2A04 JUMP JUMPDEST POP POP JUMPDEST PUSH1 0x0 PUSH1 0x9 PUSH1 0x0 PUSH1 0x7 PUSH2 0xCD1 PUSH2 0x2A6F JUMP JUMPDEST DUP2 MSTORE PUSH1 0x20 ADD SWAP1 DUP2 MSTORE PUSH1 0x20 ADD PUSH1 0x0 KECCAK256 SWAP1 POP DUP4 DUP1 PUSH1 0x2 DUP4 ADD PUSH2 0xCEF PUSH2 0x2BCF JUMP JUMPDEST POP POP POP DUP4 DUP2 PUSH1 0x3 ADD DUP2 SWAP1 PUSH2 0xD01 PUSH2 0x2BCF JUMP JUMPDEST POP PUSH1 0x1 SWAP2 POP DUP3 SWAP1 POP DUP2 DUP2 PUSH2 0xD13 PUSH2 0x2A6F JUMP JUMPDEST DUP2 PUSH1 0xFF MUL NOT AND SWAP1 DUP4 ISZERO ISZERO MUL OR SWAP1 PUSH2 0xD28 PUSH2 0x2BCF JUMP JUMPDEST POP POP POP PUSH2 0xD45 DUP5 PUSH1 0x8 PUSH2 0xD39 PUSH2 0x2A6F JUMP JUMPDEST SWAP1 PUSH4 0xFFFFFFFF PUSH2 0x22E6 AND JUMP JUMPDEST DUP1 PUSH1 0x8 PUSH2 0xD50 PUSH2 0x2BCF JUMP JUMPDEST POP POP POP PUSH32 0xFA0492B63D7120C62CCB8708EB597813E6968A23D09ADAC98D54DD0085CB264F PUSH1 0x7 PUSH2 0xD7E PUSH2 0x2A6F JUMP JUMPDEST DUP6 PUSH1 0x40 MLOAD SWAP2 DUP3 MSTORE PUSH1 0x20 DUP3 ADD MSTORE PUSH1 0x40 SWAP1 DUP2 ADD SWAP1 MLOAD DUP1 SWAP2 SUB SWAP1 LOG1 PUSH2 0xDA5 PUSH1 0x1 PUSH1 0x7 PUSH2 0xD39 PUSH2 0x2A6F JUMP JUMPDEST DUP1 PUSH1 0x7 PUSH2 0xDB0 PUSH2 0x2BCF JUMP JUMPDEST POP POP POP PUSH32 0x4368A9298ADC0E57ECEB11D0EF07022051A2FEB5985D832BE0764CDE9A230732 PUSH1 0x7 PUSH2 0xDDE PUSH2 0x2A6F JUMP JUMPDEST PUSH1 0x40 MLOAD SWAP1 DUP2 MSTORE PUSH1 0x20 ADD PUSH1 0x40 MLOAD DUP1 SWAP2 SUB SWAP1 LOG1 POP POP POP POP JUMP JUMPDEST PUSH2 0xDFD PUSH2 0x2089 JUMP JUMPDEST PUSH1 0x0 PUSH1 0x4 PUSH2 0xE09 PUSH2 0x2A6F JUMP JUMPDEST SWAP1 PUSH2 0x100 EXP SWAP1 DIV PUSH1 0xFF AND ISZERO ISZERO DUP2 ISZERO ISZERO EQ ISZERO PUSH2 0xE23 JUMPI PUSH2 0xEC8 JUMP JUMPDEST DUP1 PUSH1 0x4 PUSH1 0x1 DUP2 PUSH2 0xE31 PUSH2 0x2A6F JUMP JUMPDEST DUP2 PUSH1 0xFF MUL NOT AND SWAP1 DUP4 ISZERO ISZERO MUL OR SWAP1 PUSH2 0xE46 PUSH2 0x2BCF JUMP JUMPDEST POP POP POP PUSH1 0x4 PUSH1 0x0 SWAP1 PUSH2 0xE56 PUSH2 0x2A6F JUMP JUMPDEST SWAP1 PUSH2 0x100 EXP SWAP1 DIV PUSH1 0xFF AND ISZERO PUSH2 0xE7D JUMPI GAS PUSH2 0xE6E PUSH2 0x2C63 JUMP JUMPDEST DUP1 PUSH1 0x3 PUSH2 0xE79 PUSH2 0x2BCF JUMP JUMPDEST POP POP POP JUMPDEST PUSH32 0x8FB6C181EE25A520CF3DD6565006EF91229FCFE5A989566C2A3B8C115570CEC5 PUSH1 0x0 PUSH1 0x4 PUSH2 0xEAA PUSH2 0x2A6F JUMP JUMPDEST SWAP1 PUSH2 0x100 EXP SWAP1 DIV PUSH1 0xFF AND PUSH1 0x40 MLOAD SWAP1 ISZERO ISZERO DUP2 MSTORE PUSH1 0x20 ADD PUSH1 0x40 MLOAD DUP1 SWAP2 SUB SWAP1 LOG1 JUMPDEST POP JUMP JUMPDEST PUSH1 0x0 DUP2 DUP2 MSTORE PUSH1 0x9 PUSH1 0x20 MSTORE PUSH1 0x40 DUP2 KECCAK256 PUSH1 0x0 SWAP1 PUSH2 0xEE4 PUSH2 0x2A6F JUMP JUMPDEST SWAP1 PUSH2 0x100 EXP SWAP1 DIV PUSH1 0xFF AND SWAP1 POP JUMPDEST SWAP2 SWAP1 POP JUMP JUMPDEST PUSH2 0xEFE PUSH2 0x234E JUMP JUMPDEST PUSH1 0x1 PUSH1 0x1 PUSH1 0xA0 SHL SUB AND GAS PUSH2 0xF10 PUSH2 0x2C1D JUMP JUMPDEST PUSH1 0x1 PUSH1 0x1 PUSH1 0xA0 SHL SUB AND EQ PUSH2 0xF73 JUMPI PUSH1 0x40 MLOAD PUSH3 0x461BCD PUSH1 0xE5 SHL DUP2 MSTORE PUSH1 0x20 PUSH1 0x4 DUP3 ADD MSTORE PUSH1 0x1E PUSH1 0x24 DUP3 ADD MSTORE PUSH32 0x4F6E6C792045786368616E6765722063616E20696E766F6B6520746869730000 PUSH1 0x44 DUP3 ADD MSTORE PUSH1 0x64 ADD PUSH1 0x40 MLOAD DUP1 SWAP2 SUB SWAP1 PUSH2 0xF70 PUSH2 0x2A04 JUMP JUMPDEST POP POP JUMPDEST PUSH1 0x0 PUSH1 0x9 PUSH1 0x0 PUSH1 0x7 PUSH2 0xF83 PUSH2 0x2A6F JUMP JUMPDEST DUP2 MSTORE PUSH1 0x20 ADD SWAP1 DUP2 MSTORE PUSH1 0x20 ADD PUSH1 0x0 KECCAK256 PUSH1 0x1 PUSH1 0x1 PUSH1 0xA0 SHL SUB DUP4 AND PUSH1 0x0 SWAP1 DUP2 MSTORE PUSH1 0x4 DUP3 ADD PUSH1 0x20 MSTORE SWAP1 SWAP2 POP PUSH2 0xFBC SWAP1 DUP5 SWAP1 PUSH1 0x40 SWAP1 KECCAK256 PUSH2 0xD39 PUSH2 0x2A6F JUMP JUMPDEST PUSH1 0x1 PUSH1 0x1 PUSH1 0xA0 SHL SUB DUP4 AND PUSH1 0x0 SWAP1 DUP2 MSTORE PUSH1 0x4 DUP4 ADD PUSH1 0x20 MSTORE PUSH1 0x40 SWAP1 KECCAK256 DUP2 SWAP1 PUSH2 0xFE0 PUSH2 0x2BCF JUMP JUMPDEST POP POP POP PUSH2 0xFF3 DUP4 DUP3 PUSH1 0x1 ADD PUSH2 0xD39 PUSH2 0x2A6F JUMP JUMPDEST DUP1 PUSH1 0x1 DUP4 ADD PUSH2 0x1000 PUSH2 0x2BCF JUMP JUMPDEST POP POP POP DUP2 PUSH1 0x1 PUSH1 0x1 PUSH1 0xA0 SHL SUB AND PUSH32 0x927BE3E95451B16BE3F4586524834DFFFA10E6F9EE4C1E26FE3C46140FBBF866 DUP5 PUSH1 0x7 PUSH2 0x1039 PUSH2 0x2A6F JUMP JUMPDEST PUSH1 0x40 MLOAD SWAP2 DUP3 MSTORE PUSH1 0x20 DUP3 ADD MSTORE PUSH1 0x40 SWAP1 DUP2 ADD SWAP1 MLOAD DUP1 SWAP2 SUB SWAP1 LOG2 POP POP POP JUMP JUMPDEST PUSH2 0x105D PUSH2 0x2089 JUMP JUMPDEST PUSH2 0x1066 DUP2 PUSH2 0x2104 JUMP JUMPDEST PUSH1 0x0 PUSH2 0x1070 PUSH2 0x21DA JUMP JUMPDEST PUSH1 0x1 PUSH1 0x1 PUSH1 0xA0 SHL SUB AND PUSH4 0x70A08231 GAS PUSH4 0x996D79A5 MSIZE DUP2 PUSH1 0xE0 SHL DUP2 MSTORE PUSH1 0x20 DUP2 PUSH1 0x4 DUP4 CALLER PUSH1 0x0 SWAP1 GAS CALL PC PUSH1 0xE ADD JUMPI RETURNDATASIZE PUSH1 0x0 DUP1 RETURNDATACOPY RETURNDATASIZE PUSH1 0x0 REVERT JUMPDEST RETURNDATASIZE PUSH1 0x1 EQ ISZERO PC PUSH1 0xA ADD JUMPI PUSH1 0x1 PUSH1 0x0 RETURN JUMPDEST DUP1 MLOAD SWAP3 POP PUSH1 0x0 JUMPDEST PUSH1 0x40 DUP2 LT ISZERO PUSH2 0x10D4 JUMPI PUSH1 0x0 DUP3 DUP3 ADD MSTORE PUSH1 0x20 ADD PUSH2 0x10BD JUMP JUMPDEST POP POP POP PUSH1 0x40 MLOAD PUSH1 0x1 PUSH1 0x1 PUSH1 0xE0 SHL SUB NOT PUSH1 0xE0 DUP5 SWAP1 SHL AND DUP2 MSTORE PUSH1 0x1 PUSH1 0x1 PUSH1 0xA0 SHL SUB SWAP1 SWAP2 AND PUSH1 0x4 DUP3 ADD MSTORE PUSH1 0x24 ADD PUSH1 0x20 PUSH1 0x40 MLOAD DUP1 DUP4 SUB DUP2 DUP7 DUP1 PUSH2 0x1111 PUSH2 0x2ACA JUMP JUMPDEST ISZERO DUP1 ISZERO PUSH2 0x1126 JUMPI PUSH1 0x0 DUP1 PUSH2 0x1123 PUSH2 0x2A04 JUMP JUMPDEST POP POP JUMPDEST POP GAS PUSH2 0x1130 PUSH2 0x2B16 JUMP JUMPDEST POP POP POP POP POP ISZERO DUP1 ISZERO PUSH2 0x114F JUMPI RETURNDATASIZE PUSH1 0x0 DUP1 RETURNDATACOPY RETURNDATASIZE PUSH1 0x0 PUSH2 0x114C PUSH2 0x2A04 JUMP JUMPDEST POP POP JUMPDEST POP POP POP POP PUSH1 0x40 MLOAD RETURNDATASIZE PUSH1 0x20 DUP2 LT ISZERO PUSH2 0x116E JUMPI PUSH1 0x0 DUP1 PUSH2 0x116B PUSH2 0x2A04 JUMP JUMPDEST POP POP JUMPDEST DUP2 ADD SWAP1 DUP1 DUP1 MLOAD SWAP4 POP POP POP DUP2 ISZERO ISZERO SWAP1 POP PUSH2 0x11CD JUMPI PUSH1 0x40 MLOAD PUSH3 0x461BCD PUSH1 0xE5 SHL DUP2 MSTORE PUSH1 0x20 PUSH1 0x4 DUP3 ADD MSTORE PUSH1 0x14 PUSH1 0x24 DUP3 ADD MSTORE PUSH20 0x2737903A37B5B2B739903A37903932B1B7BB32B9 PUSH1 0x61 SHL PUSH1 0x44 DUP3 ADD MSTORE PUSH1 0x64 ADD PUSH1 0x40 MLOAD DUP1 SWAP2 SUB SWAP1 PUSH2 0x11CA PUSH2 0x2A04 JUMP JUMPDEST POP POP JUMPDEST PUSH1 0x0 PUSH2 0x11DC PUSH1 0x8 PUSH2 0xC55 PUSH2 0x2A6F JUMP JUMPDEST SWAP1 POP PUSH1 0x0 DUP2 GT PUSH2 0x1232 JUMPI PUSH1 0x40 MLOAD PUSH3 0x461BCD PUSH1 0xE5 SHL DUP2 MSTORE PUSH1 0x20 PUSH1 0x4 DUP3 ADD MSTORE PUSH1 0x14 PUSH1 0x24 DUP3 ADD MSTORE PUSH20 0x2737903A37B5B2B739903A37903932B1B7BB32B9 PUSH1 0x61 SHL PUSH1 0x44 DUP3 ADD MSTORE PUSH1 0x64 ADD PUSH1 0x40 MLOAD DUP1 SWAP2 SUB SWAP1 PUSH2 0x122F PUSH2 0x2A04 JUMP JUMPDEST POP POP JUMPDEST PUSH2 0x1255 DUP4 DUP3 PUSH2 0x123F PUSH2 0x21DA JUMP JUMPDEST PUSH1 0x1 PUSH1 0x1 PUSH1 0xA0 SHL SUB AND SWAP2 SWAP1 PUSH4 0xFFFFFFFF PUSH2 0x2225 AND JUMP JUMPDEST PUSH32 0x14E7312259D4851B8B6742ACE55AC44B31D7929A6B2998B35BA22445859E5EE3 DUP4 DUP3 PUSH1 0x40 MLOAD PUSH1 0x1 PUSH1 0x1 PUSH1 0xA0 SHL SUB SWAP1 SWAP3 AND DUP3 MSTORE PUSH1 0x20 DUP3 ADD MSTORE PUSH1 0x40 SWAP1 DUP2 ADD SWAP1 MLOAD DUP1 SWAP2 SUB SWAP1 LOG1 POP POP POP JUMP JUMPDEST PUSH2 0x12A6 PUSH2 0x2089 JUMP JUMPDEST DUP1 PUSH1 0x4 PUSH2 0x100 DUP2 PUSH2 0x12B5 PUSH2 0x2A6F JUMP JUMPDEST DUP2 PUSH1 0x1 PUSH1 0x1 PUSH1 0xA0 SHL SUB MUL NOT AND SWAP1 DUP4 PUSH1 0x1 PUSH1 0x1 PUSH1 0xA0 SHL SUB AND MUL OR SWAP1 PUSH2 0x12D7 PUSH2 0x2BCF JUMP JUMPDEST POP PUSH1 0x0 SWAP2 POP POP JUMPDEST PUSH1 0x6 DUP1 PUSH2 0x12E9 PUSH2 0x2A6F JUMP JUMPDEST SWAP1 POP DUP2 LT ISZERO PUSH2 0x1465 JUMPI PUSH1 0x0 PUSH1 0x6 DUP3 DUP2 PUSH2 0x1300 PUSH2 0x2A6F JUMP JUMPDEST DUP2 LT PUSH2 0x1308 JUMPI INVALID JUMPDEST SWAP1 PUSH1 0x0 MSTORE PUSH1 0x20 PUSH1 0x0 KECCAK256 ADD PUSH2 0x131A PUSH2 0x2A6F JUMP JUMPDEST SWAP1 POP PUSH1 0x1 PUSH1 0x4 PUSH2 0x1328 PUSH2 0x2A6F JUMP JUMPDEST SWAP1 PUSH2 0x100 EXP SWAP1 DIV PUSH1 0x1 PUSH1 0x1 PUSH1 0xA0 SHL SUB AND PUSH1 0x1 PUSH1 0x1 PUSH1 0xA0 SHL SUB AND PUSH4 0xDACB2D01 DUP3 PUSH1 0x40 MLOAD PUSH1 0x1 PUSH1 0x1 PUSH1 0xE0 SHL SUB NOT PUSH1 0xE0 DUP5 SWAP1 SHL AND DUP2 MSTORE PUSH1 0x4 DUP2 ADD SWAP2 SWAP1 SWAP2 MSTORE PUSH1 0x40 PUSH1 0x24 DUP3 ADD DUP2 SWAP1 MSTORE PUSH1 0x17 PUSH1 0x44 DUP4 ADD MSTORE PUSH32 0x5265736F6C766572206D697373696E6720746172676574000000000000000000 PUSH1 0x64 DUP4 ADD MSTORE PUSH1 0x84 SWAP1 SWAP2 ADD SWAP1 PUSH1 0x20 SWAP1 MLOAD DUP1 DUP4 SUB DUP2 DUP7 DUP1 PUSH2 0x13B1 PUSH2 0x2ACA JUMP JUMPDEST ISZERO DUP1 ISZERO PUSH2 0x13C6 JUMPI PUSH1 0x0 DUP1 PUSH2 0x13C3 PUSH2 0x2A04 JUMP JUMPDEST POP POP JUMPDEST POP GAS PUSH2 0x13D0 PUSH2 0x2B16 JUMP JUMPDEST POP POP POP POP POP ISZERO DUP1 ISZERO PUSH2 0x13EF JUMPI RETURNDATASIZE PUSH1 0x0 DUP1 RETURNDATACOPY RETURNDATASIZE PUSH1 0x0 PUSH2 0x13EC PUSH2 0x2A04 JUMP JUMPDEST POP POP JUMPDEST POP POP POP POP PUSH1 0x40 MLOAD RETURNDATASIZE PUSH1 0x20 DUP2 LT ISZERO PUSH2 0x140E JUMPI PUSH1 0x0 DUP1 PUSH2 0x140B PUSH2 0x2A04 JUMP JUMPDEST POP POP JUMPDEST DUP2 ADD SWAP1 DUP1 DUP1 MLOAD PUSH1 0x0 DUP6 DUP2 MSTORE PUSH1 0x5 PUSH1 0x20 MSTORE SWAP1 SWAP4 POP PUSH1 0x40 SWAP3 POP SWAP1 POP KECCAK256 PUSH1 0x1 DUP2 PUSH2 0x1433 PUSH2 0x2A6F JUMP JUMPDEST DUP2 PUSH1 0x1 PUSH1 0x1 PUSH1 0xA0 SHL SUB MUL NOT AND SWAP1 DUP4 PUSH1 0x1 PUSH1 0x1 PUSH1 0xA0 SHL SUB AND MUL OR SWAP1 PUSH2 0x1455 PUSH2 0x2BCF JUMP JUMPDEST POP POP PUSH1 0x1 SWAP1 SWAP3 ADD SWAP2 POP PUSH2 0x12DE SWAP1 POP JUMP JUMPDEST POP POP JUMP JUMPDEST PUSH2 0x1471 PUSH2 0x2089 JUMP JUMPDEST PUSH1 0x1 PUSH1 0x1 PUSH1 0xA0 SHL SUB DUP2 AND PUSH2 0x14D4 JUMPI PUSH1 0x40 MLOAD PUSH3 0x461BCD PUSH1 0xE5 SHL DUP2 MSTORE PUSH1 0x20 PUSH1 0x4 DUP3 ADD MSTORE PUSH1 0x19 PUSH1 0x24 DUP3 ADD MSTORE PUSH32 0x496E76616C696420706572696F6420636F6E74726F6C6C657200000000000000 PUSH1 0x44 DUP3 ADD MSTORE PUSH1 0x64 ADD PUSH1 0x40 MLOAD DUP1 SWAP2 SUB SWAP1 PUSH2 0x14D1 PUSH2 0x2A04 JUMP JUMPDEST POP POP JUMPDEST DUP1 PUSH1 0xA PUSH1 0x1 DUP2 PUSH2 0x14E2 PUSH2 0x2A6F JUMP JUMPDEST DUP2 PUSH1 0x1 PUSH1 0x1 PUSH1 0xA0 SHL SUB MUL NOT AND SWAP1 DUP4 PUSH1 0x1 PUSH1 0x1 PUSH1 0xA0 SHL SUB AND MUL OR SWAP1 PUSH2 0x1504 PUSH2 0x2BCF JUMP JUMPDEST POP POP POP PUSH32 0xB81E5409E39D3D3D85951A2AF3563E484CFE2E7B4AF2500A0ECBE14035A9BDDC DUP2 PUSH1 0x40 MLOAD PUSH1 0x1 PUSH1 0x1 PUSH1 0xA0 SHL SUB SWAP1 SWAP2 AND DUP2 MSTORE PUSH1 0x20 ADD PUSH1 0x40 MLOAD DUP1 SWAP2 SUB SWAP1 LOG1 POP JUMP JUMPDEST PUSH2 0x154F PUSH2 0x2089 JUMP JUMPDEST PUSH2 0x1558 DUP2 PUSH2 0x2104 JUMP JUMPDEST PUSH1 0x0 PUSH1 0x1 PUSH1 0x1 PUSH1 0xA0 SHL SUB DUP3 AND PUSH2 0x8FC DUP3 PUSH1 0x40 MLOAD PUSH1 0x0 PUSH1 0x40 MLOAD DUP1 DUP4 SUB DUP2 DUP6 DUP9 DUP9 PUSH2 0x157F PUSH2 0x2CA9 JUMP JUMPDEST POP POP POP POP POP POP SWAP4 POP POP POP POP ISZERO DUP1 ISZERO PUSH2 0x15A4 JUMPI RETURNDATASIZE PUSH1 0x0 DUP1 RETURNDATACOPY RETURNDATASIZE PUSH1 0x0 PUSH2 0x15A1 PUSH2 0x2A04 JUMP JUMPDEST POP POP JUMPDEST POP PUSH32 0x8E274E42262A7F013B700B35C2B4629CCCE1702F8FE83F8DFB7EACBB26A4382C DUP3 DUP3 PUSH1 0x40 MLOAD PUSH1 0x1 PUSH1 0x1 PUSH1 0xA0 SHL SUB SWAP1 SWAP3 AND DUP3 MSTORE PUSH1 0x20 DUP3 ADD MSTORE PUSH1 0x40 SWAP1 DUP2 ADD SWAP1 MLOAD DUP1 SWAP2 SUB SWAP1 LOG1 POP POP JUMP JUMPDEST PUSH1 0x0 PUSH1 0x2 PUSH2 0x7A8 PUSH2 0x2A6F JUMP JUMPDEST PUSH1 0x0 DUP2 DUP2 MSTORE PUSH1 0x9 PUSH1 0x20 MSTORE PUSH1 0x40 DUP2 KECCAK256 PUSH1 0x1 ADD PUSH2 0x1612 PUSH2 0x2A6F JUMP JUMPDEST SWAP3 SWAP2 POP POP JUMP JUMPDEST PUSH1 0x0 PUSH1 0x4 PUSH2 0x1624 PUSH2 0x2A6F JUMP JUMPDEST SWAP1 PUSH2 0x100 EXP SWAP1 DIV PUSH1 0xFF AND DUP2 JUMP JUMPDEST PUSH1 0x0 PUSH1 0x1 PUSH1 0x1 PUSH1 0xA0 SHL SUB DUP3 AND PUSH1 0x1 PUSH1 0x4 PUSH2 0x1649 PUSH2 0x2A6F JUMP JUMPDEST SWAP1 PUSH2 0x100 EXP SWAP1 DIV PUSH1 0x1 PUSH1 0x1 PUSH1 0xA0 SHL SUB AND PUSH1 0x1 PUSH1 0x1 PUSH1 0xA0 SHL SUB AND EQ PUSH2 0x166F JUMPI POP PUSH1 0x0 PUSH2 0xEF1 JUMP JUMPDEST PUSH1 0x0 JUMPDEST PUSH1 0x6 DUP1 PUSH2 0x167D PUSH2 0x2A6F JUMP JUMPDEST SWAP1 POP DUP2 LT ISZERO PUSH2 0x1803 JUMPI PUSH1 0x0 PUSH1 0x6 DUP3 DUP2 PUSH2 0x1694 PUSH2 0x2A6F JUMP JUMPDEST DUP2 LT PUSH2 0x169C JUMPI INVALID JUMPDEST SWAP1 PUSH1 0x0 MSTORE PUSH1 0x20 PUSH1 0x0 KECCAK256 ADD PUSH2 0x16AE PUSH2 0x2A6F JUMP JUMPDEST PUSH1 0x0 DUP2 DUP2 MSTORE PUSH1 0x5 PUSH1 0x20 MSTORE SWAP1 SWAP2 POP PUSH1 0x40 SWAP1 KECCAK256 PUSH1 0x0 SWAP1 PUSH2 0x16CA PUSH2 0x2A6F JUMP JUMPDEST PUSH1 0x1 PUSH1 0x1 PUSH1 0xA0 SHL SUB PUSH2 0x100 SWAP3 SWAP1 SWAP3 EXP SWAP1 DIV AND PUSH1 0x1 PUSH1 0x4 PUSH2 0x16E8 PUSH2 0x2A6F JUMP JUMPDEST SWAP1 PUSH2 0x100 EXP SWAP1 DIV PUSH1 0x1 PUSH1 0x1 PUSH1 0xA0 SHL SUB AND PUSH1 0x1 PUSH1 0x1 PUSH1 0xA0 SHL SUB AND PUSH4 0x21F8A721 DUP4 PUSH1 0x40 MLOAD PUSH1 0x1 PUSH1 0x1 PUSH1 0xE0 SHL SUB NOT PUSH1 0xE0 DUP5 SWAP1 SHL AND DUP2 MSTORE PUSH1 0x4 DUP2 ADD SWAP2 SWAP1 SWAP2 MSTORE PUSH1 0x24 ADD PUSH1 0x20 PUSH1 0x40 MLOAD DUP1 DUP4 SUB DUP2 DUP7 DUP1 PUSH2 0x1739 PUSH2 0x2ACA JUMP JUMPDEST ISZERO DUP1 ISZERO PUSH2 0x174E JUMPI PUSH1 0x0 DUP1 PUSH2 0x174B PUSH2 0x2A04 JUMP JUMPDEST POP POP JUMPDEST POP GAS PUSH2 0x1758 PUSH2 0x2B16 JUMP JUMPDEST POP POP POP POP POP ISZERO DUP1 ISZERO PUSH2 0x1777 JUMPI RETURNDATASIZE PUSH1 0x0 DUP1 RETURNDATACOPY RETURNDATASIZE PUSH1 0x0 PUSH2 0x1774 PUSH2 0x2A04 JUMP JUMPDEST POP POP JUMPDEST POP POP POP POP PUSH1 0x40 MLOAD RETURNDATASIZE PUSH1 0x20 DUP2 LT ISZERO PUSH2 0x1796 JUMPI PUSH1 0x0 DUP1 PUSH2 0x1793 PUSH2 0x2A04 JUMP JUMPDEST POP POP JUMPDEST DUP2 ADD SWAP1 DUP1 DUP1 MLOAD PUSH1 0x1 PUSH1 0x1 PUSH1 0xA0 SHL SUB AND SWAP4 SWAP1 SWAP4 EQ ISZERO SWAP3 POP DUP3 SWAP2 POP PUSH2 0x17EA SWAP1 POP JUMPI POP PUSH1 0x0 DUP2 DUP2 MSTORE PUSH1 0x5 PUSH1 0x20 MSTORE PUSH1 0x40 DUP2 KECCAK256 PUSH1 0x0 SWAP1 PUSH2 0x17CF PUSH2 0x2A6F JUMP JUMPDEST SWAP1 PUSH2 0x100 EXP SWAP1 DIV PUSH1 0x1 PUSH1 0x1 PUSH1 0xA0 SHL SUB AND PUSH1 0x1 PUSH1 0x1 PUSH1 0xA0 SHL SUB AND EQ JUMPDEST ISZERO PUSH2 0x17FA JUMPI PUSH1 0x0 SWAP3 POP POP POP PUSH2 0xEF1 JUMP JUMPDEST POP PUSH1 0x1 ADD PUSH2 0x1672 JUMP JUMPDEST POP PUSH1 0x1 SWAP3 SWAP2 POP POP JUMP JUMPDEST PUSH1 0x0 PUSH2 0xA1F PUSH2 0x21DA JUMP JUMPDEST PUSH1 0x0 DUP2 DUP2 MSTORE PUSH1 0x9 PUSH1 0x20 MSTORE PUSH1 0x40 DUP2 KECCAK256 PUSH1 0x3 ADD PUSH2 0x1612 PUSH2 0x2A6F JUMP JUMPDEST PUSH1 0x0 PUSH1 0x2 PUSH2 0x183B PUSH2 0x2A6F JUMP JUMPDEST SWAP1 PUSH2 0x100 EXP SWAP1 DIV PUSH1 0x1 PUSH1 0x1 PUSH1 0xA0 SHL SUB AND PUSH1 0x1 PUSH1 0x1 PUSH1 0xA0 SHL SUB AND GAS PUSH2 0x185D PUSH2 0x2C1D JUMP JUMPDEST PUSH1 0x1 PUSH1 0x1 PUSH1 0xA0 SHL SUB AND EQ PUSH2 0x18AB JUMPI PUSH1 0x40 MLOAD PUSH3 0x461BCD PUSH1 0xE5 SHL DUP2 MSTORE PUSH1 0x4 ADD DUP1 DUP1 PUSH1 0x20 ADD DUP3 DUP2 SUB DUP3 MSTORE PUSH1 0x35 DUP2 MSTORE PUSH1 0x20 ADD DUP1 PUSH2 0x2D80 PUSH1 0x35 SWAP2 CODECOPY PUSH1 0x40 ADD SWAP2 POP POP PUSH1 0x40 MLOAD DUP1 SWAP2 SUB SWAP1 PUSH2 0x18A8 PUSH2 0x2A04 JUMP JUMPDEST POP POP JUMPDEST PUSH32 0xB532073B38C83145E3E5135377A08BF9AAB55BC0FD7C1179CD4FB995D2A5159C PUSH1 0x0 PUSH1 0x1 PUSH2 0x18D8 PUSH2 0x2A6F JUMP JUMPDEST SWAP1 PUSH2 0x100 EXP SWAP1 DIV PUSH1 0x1 PUSH1 0x1 PUSH1 0xA0 SHL SUB AND PUSH1 0x2 PUSH1 0x0 SWAP1 PUSH2 0x18F5 PUSH2 0x2A6F JUMP JUMPDEST SWAP1 PUSH2 0x100 EXP SWAP1 DIV PUSH1 0x1 PUSH1 0x1 PUSH1 0xA0 SHL SUB AND PUSH1 0x40 MLOAD PUSH1 0x1 PUSH1 0x1 PUSH1 0xA0 SHL SUB SWAP3 DUP4 AND DUP2 MSTORE SWAP2 AND PUSH1 0x20 DUP3 ADD MSTORE PUSH1 0x40 SWAP1 DUP2 ADD SWAP1 MLOAD DUP1 SWAP2 SUB SWAP1 LOG1 PUSH1 0x0 PUSH1 0x2 PUSH2 0x1934 PUSH2 0x2A6F JUMP JUMPDEST SWAP1 PUSH2 0x100 EXP SWAP1 DIV PUSH1 0x1 PUSH1 0x1 PUSH1 0xA0 SHL SUB AND PUSH1 0x1 PUSH1 0x0 PUSH2 0x100 EXP DUP2 PUSH2 0x1955 PUSH2 0x2A6F JUMP JUMPDEST DUP2 PUSH1 0x1 PUSH1 0x1 PUSH1 0xA0 SHL SUB MUL NOT AND SWAP1 DUP4 PUSH1 0x1 PUSH1 0x1 PUSH1 0xA0 SHL SUB AND MUL OR SWAP1 PUSH2 0x1977 PUSH2 0x2BCF JUMP JUMPDEST POP POP POP PUSH1 0x0 PUSH1 0x2 PUSH1 0x0 PUSH2 0x100 EXP DUP2 PUSH2 0x198D PUSH2 0x2A6F JUMP JUMPDEST DUP2 PUSH1 0x1 PUSH1 0x1 PUSH1 0xA0 SHL SUB MUL NOT AND SWAP1 DUP4 PUSH1 0x1 PUSH1 0x1 PUSH1 0xA0 SHL SUB AND MUL OR SWAP1 PUSH2 0x19AF PUSH2 0x2BCF JUMP JUMPDEST POP POP POP JUMP JUMPDEST PUSH1 0x0 PUSH1 0x1 PUSH2 0x7A8 PUSH2 0x2A6F JUMP JUMPDEST PUSH1 0x3 PUSH2 0x19CA PUSH2 0x2A6F JUMP JUMPDEST DUP2 JUMP JUMPDEST PUSH1 0x0 DUP2 DUP2 MSTORE PUSH1 0x9 PUSH1 0x20 MSTORE PUSH1 0x40 DUP2 KECCAK256 PUSH1 0x2 ADD PUSH2 0x1612 PUSH2 0x2A6F JUMP JUMPDEST PUSH1 0x0 PUSH2 0xA1F PUSH1 0x8 PUSH2 0x19F5 PUSH2 0x2A6F JUMP JUMPDEST PUSH2 0x19FD PUSH2 0x21DA JUMP JUMPDEST PUSH1 0x1 PUSH1 0x1 PUSH1 0xA0 SHL SUB AND PUSH4 0x70A08231 GAS PUSH4 0x996D79A5 MSIZE DUP2 PUSH1 0xE0 SHL DUP2 MSTORE PUSH1 0x20 DUP2 PUSH1 0x4 DUP4 CALLER PUSH1 0x0 SWAP1 GAS CALL PC PUSH1 0xE ADD JUMPI RETURNDATASIZE PUSH1 0x0 DUP1 RETURNDATACOPY RETURNDATASIZE PUSH1 0x0 REVERT JUMPDEST RETURNDATASIZE PUSH1 0x1 EQ ISZERO PC PUSH1 0xA ADD JUMPI PUSH1 0x1 PUSH1 0x0 RETURN JUMPDEST DUP1 MLOAD SWAP3 POP PUSH1 0x0 JUMPDEST PUSH1 0x40 DUP2 LT ISZERO PUSH2 0x1A61 JUMPI PUSH1 0x0 DUP3 DUP3 ADD MSTORE PUSH1 0x20 ADD PUSH2 0x1A4A JUMP JUMPDEST POP POP POP PUSH1 0x40 MLOAD PUSH1 0x1 PUSH1 0x1 PUSH1 0xE0 SHL SUB NOT PUSH1 0xE0 DUP5 SWAP1 SHL AND DUP2 MSTORE PUSH1 0x1 PUSH1 0x1 PUSH1 0xA0 SHL SUB SWAP1 SWAP2 AND PUSH1 0x4 DUP3 ADD MSTORE PUSH1 0x24 ADD PUSH1 0x20 PUSH1 0x40 MLOAD DUP1 DUP4 SUB DUP2 DUP7 DUP1 PUSH2 0x1A9E PUSH2 0x2ACA JUMP JUMPDEST ISZERO DUP1 ISZERO PUSH2 0x1AB3 JUMPI PUSH1 0x0 DUP1 PUSH2 0x1AB0 PUSH2 0x2A04 JUMP JUMPDEST POP POP JUMPDEST POP GAS PUSH2 0x1ABD PUSH2 0x2B16 JUMP JUMPDEST POP POP POP POP POP ISZERO DUP1 ISZERO PUSH2 0x1ADC JUMPI RETURNDATASIZE PUSH1 0x0 DUP1 RETURNDATACOPY RETURNDATASIZE PUSH1 0x0 PUSH2 0x1AD9 PUSH2 0x2A04 JUMP JUMPDEST POP POP JUMPDEST POP POP POP POP PUSH1 0x40 MLOAD RETURNDATASIZE PUSH1 0x20 DUP2 LT ISZERO PUSH2 0x1AFB JUMPI PUSH1 0x0 DUP1 PUSH2 0x1AF8 PUSH2 0x2A04 JUMP JUMPDEST POP POP JUMPDEST DUP2 ADD SWAP1 DUP1 DUP1 MLOAD SWAP4 SWAP3 POP POP PUSH4 0xFFFFFFFF PUSH2 0x2281 AND SWAP1 POP JUMP JUMPDEST PUSH2 0x1B1A PUSH2 0x2D62 JUMP JUMPDEST PUSH1 0x0 JUMPDEST PUSH1 0x6 DUP1 PUSH2 0x1B28 PUSH2 0x2A6F JUMP JUMPDEST SWAP1 POP DUP2 LT ISZERO PUSH2 0x1B70 JUMPI PUSH1 0x6 DUP2 DUP2 PUSH2 0x1B3D PUSH2 0x2A6F JUMP JUMPDEST DUP2 LT PUSH2 0x1B45 JUMPI INVALID JUMPDEST SWAP1 PUSH1 0x0 MSTORE PUSH1 0x20 PUSH1 0x0 KECCAK256 ADD PUSH2 0x1B57 PUSH2 0x2A6F JUMP JUMPDEST DUP3 DUP3 PUSH1 0x18 DUP2 LT PUSH2 0x1B63 JUMPI INVALID JUMPDEST PUSH1 0x20 MUL ADD MSTORE PUSH1 0x1 ADD PUSH2 0x1B1D JUMP JUMPDEST POP SWAP1 JUMP JUMPDEST PUSH2 0x1B7C PUSH2 0x2089 JUMP JUMPDEST PUSH2 0x1B85 DUP3 PUSH2 0x2104 JUMP JUMPDEST PUSH1 0x7 PUSH2 0x1B8F PUSH2 0x2A6F JUMP JUMPDEST DUP2 LT PUSH2 0x1BEA JUMPI PUSH1 0x40 MLOAD PUSH3 0x461BCD PUSH1 0xE5 SHL DUP2 MSTORE PUSH1 0x20 PUSH1 0x4 DUP3 ADD MSTORE PUSH1 0x1A PUSH1 0x24 DUP3 ADD MSTORE PUSH32 0x43616E6E6F74207265636F7665722066726F6D20616374697665000000000000 PUSH1 0x44 DUP3 ADD MSTORE PUSH1 0x64 ADD PUSH1 0x40 MLOAD DUP1 SWAP2 SUB SWAP1 PUSH2 0x1BE7 PUSH2 0x2A04 JUMP JUMPDEST POP POP JUMPDEST PUSH1 0x0 DUP2 DUP2 MSTORE PUSH1 0x9 PUSH1 0x20 MSTORE PUSH1 0x40 DUP2 KECCAK256 SWAP1 POP PUSH1 0x0 DUP2 PUSH1 0x3 ADD PUSH2 0x1C08 PUSH2 0x2A6F JUMP JUMPDEST GT PUSH2 0x1C62 JUMPI PUSH1 0x40 MLOAD PUSH3 0x461BCD PUSH1 0xE5 SHL DUP2 MSTORE PUSH1 0x20 PUSH1 0x4 DUP3 ADD MSTORE PUSH1 0x1F PUSH1 0x24 DUP3 ADD MSTORE PUSH32 0x4E6F207265776172647320617661696C61626C6520746F207265636F76657200 PUSH1 0x44 DUP3 ADD MSTORE PUSH1 0x64 ADD PUSH1 0x40 MLOAD DUP1 SWAP2 SUB SWAP1 PUSH2 0x1C5F PUSH2 0x2A04 JUMP JUMPDEST POP POP JUMPDEST PUSH1 0x0 DUP2 PUSH1 0x3 ADD PUSH2 0x1C70 PUSH2 0x2A6F JUMP JUMPDEST SWAP1 POP PUSH2 0x1C7F DUP5 DUP3 PUSH2 0x123F PUSH2 0x21DA JUMP JUMPDEST PUSH2 0x1C99 DUP2 PUSH1 0x8 PUSH2 0x1C8D PUSH2 0x2A6F JUMP JUMPDEST SWAP1 PUSH4 0xFFFFFFFF PUSH2 0x2281 AND JUMP JUMPDEST DUP1 PUSH1 0x8 PUSH2 0x1CA4 PUSH2 0x2BCF JUMP JUMPDEST POP POP POP PUSH1 0x0 DUP4 DUP2 MSTORE PUSH1 0x9 PUSH1 0x20 MSTORE PUSH1 0x40 SWAP1 KECCAK256 PUSH1 0x0 DUP2 PUSH1 0x1 DUP2 PUSH2 0x1CC3 PUSH2 0x2A6F JUMP JUMPDEST SWAP1 PUSH1 0xFF MUL NOT AND SWAP1 PUSH2 0x1CD2 PUSH2 0x2BCF JUMP JUMPDEST POP POP PUSH1 0x1 DUP3 ADD PUSH1 0x0 SWAP1 PUSH2 0x1CE3 PUSH2 0x2BCF JUMP JUMPDEST POP POP PUSH1 0x2 DUP3 ADD PUSH1 0x0 SWAP1 PUSH2 0x1CF4 PUSH2 0x2BCF JUMP JUMPDEST POP POP PUSH1 0x3 DUP3 ADD PUSH1 0x0 SWAP1 PUSH2 0x1D05 PUSH2 0x2BCF JUMP JUMPDEST POP POP POP POP PUSH32 0x60F2CAEBB6D06055322FCE1F0DB429F6BC0A48534C8C9BA42359A80F36BB7F0C DUP5 DUP3 DUP6 PUSH1 0x40 MLOAD DUP1 DUP5 PUSH1 0x1 PUSH1 0x1 PUSH1 0xA0 SHL SUB AND PUSH1 0x1 PUSH1 0x1 PUSH1 0xA0 SHL SUB AND DUP2 MSTORE PUSH1 0x20 ADD DUP4 DUP2 MSTORE PUSH1 0x20 ADD DUP3 DUP2 MSTORE PUSH1 0x20 ADD SWAP4 POP POP POP POP PUSH1 0x40 MLOAD DUP1 SWAP2 SUB SWAP1 LOG1 POP POP POP POP JUMP JUMPDEST PUSH1 0x1 PUSH1 0x0 DUP1 DUP3 DUP3 PUSH2 0x1D77 PUSH2 0x2A6F JUMP JUMPDEST ADD SWAP3 POP POP DUP2 SWAP1 PUSH2 0x1D85 PUSH2 0x2BCF JUMP JUMPDEST POP POP POP PUSH1 0x0 DUP1 PUSH2 0x1D93 PUSH2 0x2A6F JUMP JUMPDEST SWAP1 POP PUSH1 0x0 PUSH1 0x4 PUSH2 0x1DA1 PUSH2 0x2A6F JUMP JUMPDEST SWAP1 PUSH2 0x100 EXP SWAP1 DIV PUSH1 0xFF AND ISZERO PUSH2 0x1DF0 JUMPI PUSH1 0x40 MLOAD PUSH3 0x461BCD PUSH1 0xE5 SHL DUP2 MSTORE PUSH1 0x4 ADD DUP1 DUP1 PUSH1 0x20 ADD DUP3 DUP2 SUB DUP3 MSTORE PUSH1 0x3C DUP2 MSTORE PUSH1 0x20 ADD DUP1 PUSH2 0x2E05 PUSH1 0x3C SWAP2 CODECOPY PUSH1 0x40 ADD SWAP2 POP POP PUSH1 0x40 MLOAD DUP1 SWAP2 SUB SWAP1 PUSH2 0x1DED PUSH2 0x2A04 JUMP JUMPDEST POP POP JUMPDEST PUSH2 0x1E02 GAS PUSH2 0x1DFC PUSH2 0x2C1D JUMP JUMPDEST DUP4 PUSH2 0x2399 JUMP JUMPDEST PUSH1 0x0 PUSH2 0x1E0C PUSH2 0x2A6F JUMP JUMPDEST DUP2 EQ PUSH2 0x1465 JUMPI PUSH1 0x40 MLOAD PUSH3 0x461BCD PUSH1 0xE5 SHL DUP2 MSTORE PUSH1 0x20 PUSH1 0x4 DUP3 ADD MSTORE PUSH1 0x1F PUSH1 0x24 DUP3 ADD MSTORE PUSH32 0x5265656E7472616E637947756172643A207265656E7472616E742063616C6C00 PUSH1 0x44 DUP3 ADD MSTORE PUSH1 0x64 ADD PUSH1 0x40 MLOAD DUP1 SWAP2 SUB SWAP1 PUSH2 0x1E64 PUSH2 0x2A04 JUMP JUMPDEST POP POP POP POP JUMP JUMPDEST PUSH1 0x6 DUP2 DUP2 PUSH2 0x1E76 PUSH2 0x2A6F JUMP JUMPDEST DUP2 LT PUSH2 0x1E7E JUMPI INVALID JUMPDEST SWAP1 PUSH1 0x0 MSTORE PUSH1 0x20 PUSH1 0x0 KECCAK256 ADD SWAP1 POP PUSH2 0x19CA PUSH2 0x2A6F JUMP JUMPDEST PUSH1 0x0 PUSH2 0x1E9E DUP4 DUP4 PUSH2 0x2533 JUMP JUMPDEST SWAP4 SWAP3 POP POP POP JUMP JUMPDEST PUSH1 0x0 DUP1 PUSH1 0xA PUSH2 0x1EB2 PUSH2 0x2A6F JUMP JUMPDEST SWAP1 PUSH2 0x100 EXP SWAP1 DIV PUSH1 0x1 PUSH1 0x1 PUSH1 0xA0 SHL SUB AND SWAP1 POP SWAP1 JUMP JUMPDEST PUSH1 0x18 DUP2 JUMP JUMPDEST PUSH1 0x1 PUSH1 0x0 DUP1 DUP3 DUP3 PUSH2 0x1EDB PUSH2 0x2A6F JUMP JUMPDEST ADD SWAP3 POP POP DUP2 SWAP1 PUSH2 0x1EE9 PUSH2 0x2BCF JUMP JUMPDEST POP POP POP PUSH1 0x0 DUP1 PUSH2 0x1EF7 PUSH2 0x2A6F JUMP JUMPDEST SWAP1 POP PUSH1 0x0 PUSH1 0x4 PUSH2 0x1F05 PUSH2 0x2A6F JUMP JUMPDEST SWAP1 PUSH2 0x100 EXP SWAP1 DIV PUSH1 0xFF AND ISZERO PUSH2 0x1F54 JUMPI PUSH1 0x40 MLOAD PUSH3 0x461BCD PUSH1 0xE5 SHL DUP2 MSTORE PUSH1 0x4 ADD DUP1 DUP1 PUSH1 0x20 ADD DUP3 DUP2 SUB DUP3 MSTORE PUSH1 0x3C DUP2 MSTORE PUSH1 0x20 ADD DUP1 PUSH2 0x2E05 PUSH1 0x3C SWAP2 CODECOPY PUSH1 0x40 ADD SWAP2 POP POP PUSH1 0x40 MLOAD DUP1 SWAP2 SUB SWAP1 PUSH2 0x1F51 PUSH2 0x2A04 JUMP JUMPDEST POP POP JUMPDEST PUSH1 0x0 JUMPDEST DUP3 DUP2 LT ISZERO PUSH2 0x1F91 JUMPI PUSH1 0x0 DUP5 DUP5 DUP4 DUP2 DUP2 LT PUSH2 0x1F6D JUMPI INVALID JUMPDEST SWAP1 POP PUSH1 0x20 MUL ADD CALLDATALOAD SWAP1 POP PUSH2 0x1F88 GAS PUSH2 0x1F82 PUSH2 0x2C1D JUMP JUMPDEST DUP3 PUSH2 0x2399 JUMP JUMPDEST POP PUSH1 0x1 ADD PUSH2 0x1F57 JUMP JUMPDEST POP PUSH1 0x0 PUSH2 0x1F9C PUSH2 0x2A6F JUMP JUMPDEST DUP2 EQ PUSH2 0x19AF JUMPI PUSH1 0x40 MLOAD PUSH3 0x461BCD PUSH1 0xE5 SHL DUP2 MSTORE PUSH1 0x20 PUSH1 0x4 DUP3 ADD MSTORE PUSH1 0x1F PUSH1 0x24 DUP3 ADD MSTORE PUSH32 0x5265656E7472616E637947756172643A207265656E7472616E742063616C6C00 PUSH1 0x44 DUP3 ADD MSTORE PUSH1 0x64 ADD PUSH1 0x40 MLOAD DUP1 SWAP2 SUB SWAP1 PUSH2 0x1FF4 PUSH2 0x2A04 JUMP JUMPDEST POP POP POP POP POP JUMP JUMPDEST PUSH1 0x0 DUP2 DUP2 MSTORE PUSH1 0x9 PUSH1 0x20 MSTORE PUSH1 0x40 DUP2 KECCAK256 PUSH1 0x1 PUSH1 0x1 PUSH1 0xA0 SHL SUB DUP5 AND PUSH1 0x0 SWAP1 DUP2 MSTORE PUSH1 0x4 SWAP2 SWAP1 SWAP2 ADD PUSH1 0x20 MSTORE PUSH1 0x40 SWAP1 KECCAK256 PUSH2 0x1E9E PUSH2 0x2A6F JUMP JUMPDEST PUSH1 0x0 DUP1 JUMPDEST DUP3 DUP2 LT ISZERO PUSH2 0x2075 JUMPI PUSH1 0x0 DUP5 DUP5 DUP4 DUP2 DUP2 LT PUSH2 0x2047 JUMPI INVALID JUMPDEST SWAP1 POP PUSH1 0x20 MUL ADD CALLDATALOAD SWAP1 POP PUSH2 0x206A PUSH2 0x205D DUP8 DUP4 PUSH2 0x2533 JUMP JUMPDEST DUP5 SWAP1 PUSH4 0xFFFFFFFF PUSH2 0x22E6 AND JUMP JUMPDEST SWAP3 POP POP PUSH1 0x1 ADD PUSH2 0x2031 JUMP JUMPDEST POP SWAP4 SWAP3 POP POP POP JUMP JUMPDEST PUSH1 0x0 PUSH1 0x8 PUSH2 0xA1F PUSH2 0x2A6F JUMP JUMPDEST PUSH1 0x0 PUSH1 0x1 PUSH2 0x2095 PUSH2 0x2A6F JUMP JUMPDEST SWAP1 PUSH2 0x100 EXP SWAP1 DIV PUSH1 0x1 PUSH1 0x1 PUSH1 0xA0 SHL SUB AND PUSH1 0x1 PUSH1 0x1 PUSH1 0xA0 SHL SUB AND GAS PUSH2 0x20B7 PUSH2 0x2C1D JUMP JUMPDEST PUSH1 0x1 PUSH1 0x1 PUSH1 0xA0 SHL SUB AND EQ PUSH2 0x2102 JUMPI PUSH1 0x40 MLOAD PUSH3 0x461BCD PUSH1 0xE5 SHL DUP2 MSTORE PUSH1 0x4 ADD DUP1 DUP1 PUSH1 0x20 ADD DUP3 DUP2 SUB DUP3 MSTORE PUSH1 0x2F DUP2 MSTORE PUSH1 0x20 ADD DUP1 PUSH2 0x2DB5 PUSH1 0x2F SWAP2 CODECOPY PUSH1 0x40 ADD SWAP2 POP POP PUSH1 0x40 MLOAD DUP1 SWAP2 SUB SWAP1 PUSH2 0x1465 PUSH2 0x2A04 JUMP JUMPDEST JUMP JUMPDEST PUSH1 0x1 PUSH1 0x1 PUSH1 0xA0 SHL SUB DUP2 AND ISZERO DUP1 PUSH2 0x2183 JUMPI POP GAS PUSH4 0x996D79A5 MSIZE DUP2 PUSH1 0xE0 SHL DUP2 MSTORE PUSH1 0x20 DUP2 PUSH1 0x4 DUP4 CALLER PUSH1 0x0 SWAP1 GAS CALL PC PUSH1 0xE ADD JUMPI RETURNDATASIZE PUSH1 0x0 DUP1 RETURNDATACOPY RETURNDATASIZE PUSH1 0x0 REVERT JUMPDEST RETURNDATASIZE PUSH1 0x1 EQ ISZERO PC PUSH1 0xA ADD JUMPI PUSH1 0x1 PUSH1 0x0 RETURN JUMPDEST DUP1 MLOAD SWAP3 POP PUSH1 0x0 JUMPDEST PUSH1 0x40 DUP2 LT ISZERO PUSH2 0x216B JUMPI PUSH1 0x0 DUP3 DUP3 ADD MSTORE PUSH1 0x20 ADD PUSH2 0x2154 JUMP JUMPDEST POP POP POP PUSH1 0x1 PUSH1 0x1 PUSH1 0xA0 SHL SUB AND DUP2 PUSH1 0x1 PUSH1 0x1 PUSH1 0xA0 SHL SUB AND EQ JUMPDEST ISZERO PUSH2 0xEC8 JUMPI PUSH1 0x40 MLOAD PUSH3 0x461BCD PUSH1 0xE5 SHL DUP2 MSTORE PUSH1 0x20 PUSH1 0x4 DUP3 ADD MSTORE PUSH1 0x17 PUSH1 0x24 DUP3 ADD MSTORE PUSH32 0x496E76616C6964207265636F7665722061646472657373000000000000000000 PUSH1 0x44 DUP3 ADD MSTORE PUSH1 0x64 ADD PUSH1 0x40 MLOAD DUP1 SWAP2 SUB SWAP1 PUSH2 0x19AF PUSH2 0x2A04 JUMP JUMPDEST PUSH1 0x0 PUSH2 0xA1F PUSH9 0xA6F2DCE8D0CAE8D2F PUSH1 0xBB SHL PUSH1 0x40 MLOAD PUSH1 0x40 DUP1 DUP3 ADD SWAP1 MSTORE PUSH1 0x19 DUP2 MSTORE PUSH32 0x4D697373696E672053796E746865746978206164647265737300000000000000 PUSH1 0x20 DUP3 ADD MSTORE PUSH2 0x260B JUMP JUMPDEST PUSH2 0x19AF DUP4 PUSH4 0xA9059CBB PUSH1 0xE0 SHL DUP5 DUP5 PUSH1 0x40 MLOAD PUSH1 0x1 PUSH1 0x1 PUSH1 0xA0 SHL SUB SWAP1 SWAP3 AND PUSH1 0x24 DUP4 ADD MSTORE PUSH1 0x44 DUP3 ADD MSTORE PUSH1 0x64 ADD PUSH1 0x40 MLOAD PUSH1 0x20 DUP2 DUP4 SUB SUB DUP2 MSTORE SWAP1 PUSH1 0x40 MSTORE SWAP1 PUSH1 0x1 PUSH1 0x1 PUSH1 0xE0 SHL SUB NOT AND PUSH1 0x20 DUP3 ADD DUP1 MLOAD PUSH1 0x1 PUSH1 0x1 PUSH1 0xE0 SHL SUB AND SWAP1 SWAP2 OR SWAP1 MSTORE PUSH2 0x26D3 JUMP JUMPDEST PUSH1 0x0 DUP3 DUP3 GT ISZERO PUSH2 0x22E0 JUMPI PUSH1 0x40 MLOAD PUSH3 0x461BCD PUSH1 0xE5 SHL DUP2 MSTORE PUSH1 0x20 PUSH1 0x4 DUP3 ADD MSTORE PUSH1 0x1E PUSH1 0x24 DUP3 ADD MSTORE PUSH32 0x536166654D6174683A207375627472616374696F6E206F766572666C6F770000 PUSH1 0x44 DUP3 ADD MSTORE PUSH1 0x64 ADD PUSH1 0x40 MLOAD DUP1 SWAP2 SUB SWAP1 PUSH2 0x22DD PUSH2 0x2A04 JUMP JUMPDEST POP POP JUMPDEST POP SWAP1 SUB SWAP1 JUMP JUMPDEST PUSH1 0x0 DUP3 DUP3 ADD DUP4 DUP2 LT ISZERO PUSH2 0x1E9E JUMPI PUSH1 0x40 MLOAD PUSH3 0x461BCD PUSH1 0xE5 SHL DUP2 MSTORE PUSH1 0x20 PUSH1 0x4 DUP3 ADD MSTORE PUSH1 0x1B PUSH1 0x24 DUP3 ADD MSTORE PUSH32 0x536166654D6174683A206164646974696F6E206F766572666C6F770000000000 PUSH1 0x44 DUP3 ADD MSTORE PUSH1 0x64 ADD PUSH1 0x40 MLOAD DUP1 SWAP2 SUB SWAP1 PUSH2 0x2345 PUSH2 0x2A04 JUMP JUMPDEST POP POP SWAP4 SWAP3 POP POP POP JUMP JUMPDEST PUSH1 0x0 PUSH2 0xA1F PUSH9 0x22BC31B430B733B2B9 PUSH1 0xB9 SHL PUSH1 0x40 MLOAD PUSH1 0x40 DUP1 DUP3 ADD SWAP1 MSTORE PUSH1 0x19 DUP2 MSTORE PUSH32 0x4D697373696E672045786368616E676572206164647265737300000000000000 PUSH1 0x20 DUP3 ADD MSTORE PUSH2 0x260B JUMP JUMPDEST PUSH1 0x0 DUP2 DUP2 MSTORE PUSH1 0x9 PUSH1 0x20 MSTORE PUSH1 0x40 DUP2 KECCAK256 SWAP1 POP PUSH1 0x0 DUP2 PUSH2 0x23B4 PUSH2 0x2A6F JUMP JUMPDEST SWAP1 PUSH2 0x100 EXP SWAP1 DIV PUSH1 0xFF AND PUSH2 0x2417 JUMPI PUSH1 0x40 MLOAD PUSH3 0x461BCD PUSH1 0xE5 SHL DUP2 MSTORE PUSH1 0x20 PUSH1 0x4 DUP3 ADD MSTORE PUSH1 0x17 PUSH1 0x24 DUP3 ADD MSTORE PUSH32 0x506572696F64206973206E6F742066696E616C697A6564000000000000000000 PUSH1 0x44 DUP3 ADD MSTORE PUSH1 0x64 ADD PUSH1 0x40 MLOAD DUP1 SWAP2 SUB SWAP1 PUSH2 0x2414 PUSH2 0x2A04 JUMP JUMPDEST POP POP JUMPDEST PUSH1 0x0 PUSH2 0x2423 DUP5 DUP5 PUSH2 0x2533 JUMP JUMPDEST SWAP1 POP PUSH1 0x0 DUP2 GT PUSH2 0x2479 JUMPI PUSH1 0x40 MLOAD PUSH3 0x461BCD PUSH1 0xE5 SHL DUP2 MSTORE PUSH1 0x20 PUSH1 0x4 DUP3 ADD MSTORE PUSH1 0x14 PUSH1 0x24 DUP3 ADD MSTORE PUSH20 0x4E6F207265776172647320617661696C61626C65 PUSH1 0x60 SHL PUSH1 0x44 DUP3 ADD MSTORE PUSH1 0x64 ADD PUSH1 0x40 MLOAD DUP1 SWAP2 SUB SWAP1 PUSH2 0x2476 PUSH2 0x2A04 JUMP JUMPDEST POP POP JUMPDEST PUSH1 0x1 PUSH1 0x1 PUSH1 0xA0 SHL SUB DUP5 AND PUSH1 0x0 SWAP1 DUP2 MSTORE PUSH1 0x4 DUP4 ADD PUSH1 0x20 MSTORE PUSH1 0x40 DUP2 KECCAK256 DUP2 SWAP1 PUSH2 0x249D PUSH2 0x2BCF JUMP JUMPDEST POP POP POP PUSH2 0x24B0 DUP2 DUP4 PUSH1 0x3 ADD PUSH2 0x1C8D PUSH2 0x2A6F JUMP JUMPDEST DUP1 PUSH1 0x3 DUP5 ADD PUSH2 0x24BD PUSH2 0x2BCF JUMP JUMPDEST POP POP POP PUSH2 0x24CE DUP2 PUSH1 0x8 PUSH2 0x1C8D PUSH2 0x2A6F JUMP JUMPDEST DUP1 PUSH1 0x8 PUSH2 0x24D9 PUSH2 0x2BCF JUMP JUMPDEST POP POP POP PUSH2 0x24E9 DUP5 DUP3 PUSH2 0x123F PUSH2 0x21DA JUMP JUMPDEST DUP4 PUSH1 0x1 PUSH1 0x1 PUSH1 0xA0 SHL SUB AND PUSH32 0xDACBDDE355BA930696A362EA6738FEB9F8BD52DFB3D81947558FD3217E23E325 DUP3 DUP6 PUSH1 0x40 MLOAD SWAP2 DUP3 MSTORE PUSH1 0x20 DUP3 ADD MSTORE PUSH1 0x40 SWAP1 DUP2 ADD SWAP1 MLOAD DUP1 SWAP2 SUB SWAP1 LOG2 POP POP POP POP JUMP JUMPDEST PUSH1 0x0 DUP2 DUP2 MSTORE PUSH1 0x9 PUSH1 0x20 MSTORE DUP1 PUSH1 0x40 DUP2 KECCAK256 SWAP1 POP DUP1 PUSH1 0x3 ADD PUSH2 0x2550 PUSH2 0x2A6F JUMP JUMPDEST ISZERO DUP1 PUSH2 0x2565 JUMPI POP DUP1 PUSH1 0x1 ADD PUSH2 0x2563 PUSH2 0x2A6F JUMP JUMPDEST ISZERO JUMPDEST DUP1 PUSH2 0x2582 JUMPI POP PUSH1 0x0 DUP2 PUSH2 0x2576 PUSH2 0x2A6F JUMP JUMPDEST SWAP1 PUSH2 0x100 EXP SWAP1 DIV PUSH1 0xFF AND ISZERO JUMPDEST ISZERO PUSH2 0x2591 JUMPI PUSH1 0x0 SWAP2 POP POP PUSH2 0x1612 JUMP JUMPDEST PUSH1 0x1 PUSH1 0x1 PUSH1 0xA0 SHL SUB DUP5 AND PUSH1 0x0 SWAP1 DUP2 MSTORE PUSH1 0x4 DUP3 ADD PUSH1 0x20 MSTORE PUSH1 0x40 DUP2 KECCAK256 PUSH2 0x25B3 PUSH2 0x2A6F JUMP JUMPDEST SWAP1 POP DUP1 PUSH2 0x25C5 JUMPI PUSH1 0x0 SWAP3 POP POP POP PUSH2 0x1612 JUMP JUMPDEST PUSH1 0x0 PUSH2 0x25E3 DUP4 PUSH1 0x1 ADD PUSH2 0x25D6 PUSH2 0x2A6F JUMP JUMPDEST DUP4 SWAP1 PUSH4 0xFFFFFFFF PUSH2 0x28CA AND JUMP JUMPDEST SWAP1 POP PUSH2 0x2601 DUP4 PUSH1 0x2 ADD PUSH2 0x25F4 PUSH2 0x2A6F JUMP JUMPDEST DUP3 SWAP1 PUSH4 0xFFFFFFFF PUSH2 0x28F4 AND JUMP JUMPDEST SWAP7 SWAP6 POP POP POP POP POP POP JUMP JUMPDEST PUSH1 0x0 DUP3 DUP2 MSTORE PUSH1 0x5 PUSH1 0x20 MSTORE DUP1 PUSH1 0x40 DUP2 KECCAK256 PUSH1 0x0 SWAP1 PUSH2 0x2625 PUSH2 0x2A6F JUMP JUMPDEST PUSH1 0x1 PUSH1 0x1 PUSH1 0xA0 SHL SUB PUSH2 0x100 SWAP3 SWAP1 SWAP3 EXP SWAP1 DIV AND SWAP1 POP DUP3 DUP2 PUSH2 0x2075 JUMPI PUSH1 0x40 MLOAD PUSH3 0x461BCD PUSH1 0xE5 SHL DUP2 MSTORE PUSH1 0x4 ADD DUP1 DUP1 PUSH1 0x20 ADD DUP3 DUP2 SUB DUP3 MSTORE DUP4 DUP2 DUP2 MLOAD DUP2 MSTORE PUSH1 0x20 ADD SWAP2 POP DUP1 MLOAD SWAP1 PUSH1 0x20 ADD SWAP1 DUP1 DUP4 DUP4 PUSH1 0x0 JUMPDEST DUP4 DUP2 LT ISZERO PUSH2 0x2688 JUMPI DUP1 DUP3 ADD MLOAD DUP4 DUP3 ADD MSTORE PUSH1 0x20 ADD PUSH2 0x2670 JUMP JUMPDEST POP POP POP POP SWAP1 POP SWAP1 DUP2 ADD SWAP1 PUSH1 0x1F AND DUP1 ISZERO PUSH2 0x26B5 JUMPI DUP1 DUP3 SUB DUP1 MLOAD PUSH1 0x1 DUP4 PUSH1 0x20 SUB PUSH2 0x100 EXP SUB NOT AND DUP2 MSTORE PUSH1 0x20 ADD SWAP2 POP JUMPDEST POP SWAP3 POP POP POP PUSH1 0x40 MLOAD DUP1 SWAP2 SUB SWAP1 PUSH2 0x26C9 PUSH2 0x2A04 JUMP JUMPDEST POP POP POP SWAP4 SWAP3 POP POP POP JUMP JUMPDEST PUSH2 0x26E5 DUP3 PUSH1 0x1 PUSH1 0x1 PUSH1 0xA0 SHL SUB AND PUSH2 0x291E JUMP JUMPDEST PUSH2 0x273E JUMPI PUSH1 0x40 MLOAD PUSH3 0x461BCD PUSH1 0xE5 SHL DUP2 MSTORE PUSH1 0x20 PUSH1 0x4 DUP3 ADD MSTORE PUSH1 0x1F PUSH1 0x24 DUP3 ADD MSTORE PUSH32 0x5361666545524332303A2063616C6C20746F206E6F6E2D636F6E747261637400 PUSH1 0x44 DUP3 ADD MSTORE PUSH1 0x64 ADD PUSH1 0x40 MLOAD DUP1 SWAP2 SUB SWAP1 PUSH2 0x273B PUSH2 0x2A04 JUMP JUMPDEST POP POP JUMPDEST PUSH1 0x0 PUSH1 0x60 DUP4 PUSH1 0x1 PUSH1 0x1 PUSH1 0xA0 SHL SUB AND DUP4 PUSH1 0x40 MLOAD DUP1 DUP3 DUP1 MLOAD SWAP1 PUSH1 0x20 ADD SWAP1 DUP1 DUP4 DUP4 JUMPDEST PUSH1 0x20 DUP4 LT PUSH2 0x277C JUMPI DUP1 MLOAD DUP3 MSTORE PUSH1 0x1F NOT SWAP1 SWAP3 ADD SWAP2 PUSH1 0x20 SWAP2 DUP3 ADD SWAP2 ADD PUSH2 0x275D JUMP JUMPDEST PUSH1 0x1 DUP4 PUSH1 0x20 SUB PUSH2 0x100 EXP SUB DUP1 NOT DUP3 MLOAD AND DUP2 DUP5 MLOAD AND DUP1 DUP3 OR DUP6 MSTORE POP POP POP POP POP POP SWAP1 POP ADD SWAP2 POP POP PUSH1 0x0 PUSH1 0x40 MLOAD DUP1 DUP4 SUB DUP2 PUSH1 0x0 DUP7 GAS PUSH2 0x27B6 PUSH2 0x2CA9 JUMP JUMPDEST POP POP POP POP POP POP SWAP2 POP POP RETURNDATASIZE DUP1 PUSH1 0x0 DUP2 EQ PUSH2 0x27EB JUMPI PUSH1 0x40 MLOAD RETURNDATASIZE PUSH1 0x3F ADD PUSH1 0x1F NOT AND DUP2 ADD PUSH1 0x40 MSTORE RETURNDATASIZE DUP2 MSTORE SWAP2 POP RETURNDATASIZE PUSH1 0x0 PUSH1 0x20 DUP5 ADD RETURNDATACOPY PUSH2 0x27F0 JUMP JUMPDEST PUSH1 0x60 SWAP2 POP JUMPDEST POP SWAP2 POP SWAP2 POP DUP2 PUSH2 0x284F JUMPI PUSH1 0x40 MLOAD PUSH3 0x461BCD PUSH1 0xE5 SHL DUP2 MSTORE PUSH1 0x20 PUSH1 0x4 DUP3 ADD DUP2 SWAP1 MSTORE PUSH1 0x24 DUP3 ADD MSTORE PUSH32 0x5361666545524332303A206C6F772D6C6576656C2063616C6C206661696C6564 PUSH1 0x44 DUP3 ADD MSTORE PUSH1 0x64 ADD PUSH1 0x40 MLOAD DUP1 SWAP2 SUB SWAP1 PUSH2 0x284C PUSH2 0x2A04 JUMP JUMPDEST POP POP JUMPDEST PUSH1 0x0 DUP2 MLOAD GT ISZERO PUSH2 0x1E64 JUMPI PUSH1 0x20 DUP2 ADD DUP2 MLOAD PUSH1 0x20 DUP2 LT ISZERO PUSH2 0x2876 JUMPI PUSH1 0x0 DUP1 PUSH2 0x2873 PUSH2 0x2A04 JUMP JUMPDEST POP POP JUMPDEST DUP2 ADD SWAP1 DUP1 DUP1 MLOAD SWAP3 POP PUSH2 0x1E64 SWAP2 POP POP JUMPI PUSH1 0x40 MLOAD PUSH3 0x461BCD PUSH1 0xE5 SHL DUP2 MSTORE PUSH1 0x4 ADD DUP1 DUP1 PUSH1 0x20 ADD DUP3 DUP2 SUB DUP3 MSTORE PUSH1 0x2A DUP2 MSTORE PUSH1 0x20 ADD DUP1 PUSH2 0x2E41 PUSH1 0x2A SWAP2 CODECOPY PUSH1 0x40 ADD SWAP2 POP POP PUSH1 0x40 MLOAD DUP1 SWAP2 SUB SWAP1 PUSH2 0x28C2 PUSH2 0x2A04 JUMP JUMPDEST POP POP POP POP POP POP JUMP JUMPDEST PUSH1 0x0 PUSH2 0x1E9E DUP3 PUSH2 0x28E8 DUP6 PUSH8 0xDE0B6B3A7640000 PUSH4 0xFFFFFFFF PUSH2 0x2933 AND JUMP JUMPDEST SWAP1 PUSH4 0xFFFFFFFF PUSH2 0x2992 AND JUMP JUMPDEST PUSH1 0x0 PUSH8 0xDE0B6B3A7640000 PUSH2 0x290F DUP5 DUP5 PUSH4 0xFFFFFFFF PUSH2 0x2933 AND JUMP JUMPDEST DUP2 PUSH2 0x2916 JUMPI INVALID JUMPDEST DIV SWAP4 SWAP3 POP POP POP JUMP JUMPDEST PUSH1 0x0 DUP1 DUP3 PUSH2 0x292A PUSH2 0x2ACA JUMP JUMPDEST ISZERO ISZERO SWAP4 SWAP3 POP POP POP JUMP JUMPDEST PUSH1 0x0 DUP3 PUSH2 0x2942 JUMPI POP PUSH1 0x0 PUSH2 0x1612 JUMP JUMPDEST DUP3 DUP3 MUL DUP3 DUP5 DUP3 DUP2 PUSH2 0x294F JUMPI INVALID JUMPDEST DIV EQ PUSH2 0x1E9E JUMPI PUSH1 0x40 MLOAD PUSH3 0x461BCD PUSH1 0xE5 SHL DUP2 MSTORE PUSH1 0x4 ADD DUP1 DUP1 PUSH1 0x20 ADD DUP3 DUP2 SUB DUP3 MSTORE PUSH1 0x21 DUP2 MSTORE PUSH1 0x20 ADD DUP1 PUSH2 0x2DE4 PUSH1 0x21 SWAP2 CODECOPY PUSH1 0x40 ADD SWAP2 POP POP PUSH1 0x40 MLOAD DUP1 SWAP2 SUB SWAP1 PUSH2 0x2345 PUSH2 0x2A04 JUMP JUMPDEST PUSH1 0x0 DUP1 DUP3 GT PUSH2 0x29F0 JUMPI PUSH1 0x40 MLOAD PUSH3 0x461BCD PUSH1 0xE5 SHL DUP2 MSTORE PUSH1 0x20 PUSH1 0x4 DUP3 ADD MSTORE PUSH1 0x1A PUSH1 0x24 DUP3 ADD MSTORE PUSH32 0x536166654D6174683A206469766973696F6E206279207A65726F000000000000 PUSH1 0x44 DUP3 ADD MSTORE PUSH1 0x64 ADD PUSH1 0x40 MLOAD DUP1 SWAP2 SUB SWAP1 PUSH2 0x29ED PUSH2 0x2A04 JUMP JUMPDEST POP POP JUMPDEST PUSH1 0x0 DUP3 DUP5 DUP2 PUSH2 0x29FB JUMPI INVALID JUMPDEST DIV SWAP5 SWAP4 POP POP POP POP JUMP JUMPDEST PUSH4 0x2A2A7ADB MSIZE DUP2 PUSH1 0xE0 SHL DUP2 MSTORE PUSH1 0x4 DUP2 ADD PUSH1 0x20 DUP2 MSTORE DUP6 PUSH1 0x20 DUP3 ADD MSTORE PUSH1 0x0 JUMPDEST DUP7 DUP2 LT ISZERO PUSH2 0x2A3C JUMPI DUP1 DUP7 ADD MLOAD DUP3 DUP3 ADD PUSH1 0x40 ADD MSTORE PUSH1 0x20 ADD PUSH2 0x2A21 JUMP JUMPDEST POP PUSH1 0x20 DUP3 DUP8 PUSH1 0x64 ADD DUP5 CALLER PUSH1 0x0 SWAP1 GAS CALL PC PUSH1 0xE ADD JUMPI RETURNDATASIZE PUSH1 0x0 DUP1 RETURNDATACOPY RETURNDATASIZE PUSH1 0x0 REVERT JUMPDEST RETURNDATASIZE PUSH1 0x1 EQ ISZERO PC PUSH1 0xA ADD JUMPI PUSH1 0x1 PUSH1 0x0 RETURN JUMPDEST POP POP POP JUMP JUMPDEST PUSH4 0x3DAA959 MSIZE DUP2 PUSH1 0xE0 SHL DUP2 MSTORE DUP4 PUSH1 0x4 DUP3 ADD MSTORE PUSH1 0x20 DUP2 PUSH1 0x24 DUP4 CALLER PUSH1 0x0 SWAP1 GAS CALL PC PUSH1 0xE ADD JUMPI RETURNDATASIZE PUSH1 0x0 DUP1 RETURNDATACOPY RETURNDATASIZE PUSH1 0x0 REVERT JUMPDEST RETURNDATASIZE PUSH1 0x1 EQ ISZERO PC PUSH1 0xA ADD JUMPI PUSH1 0x1 PUSH1 0x0 RETURN JUMPDEST DUP1 MLOAD SWAP4 POP PUSH1 0x0 JUMPDEST PUSH1 0x40 DUP2 LT ISZERO PUSH2 0x19AF JUMPI PUSH1 0x0 DUP3 DUP3 ADD MSTORE PUSH1 0x20 ADD PUSH2 0x2AB3 JUMP JUMPDEST PUSH4 0x8435035B MSIZE DUP2 PUSH1 0xE0 SHL DUP2 MSTORE DUP4 PUSH1 0x4 DUP3 ADD MSTORE PUSH1 0x20 DUP2 PUSH1 0x24 DUP4 CALLER PUSH1 0x0 SWAP1 GAS CALL PC PUSH1 0xE ADD JUMPI RETURNDATASIZE PUSH1 0x0 DUP1 RETURNDATACOPY RETURNDATASIZE PUSH1 0x0 REVERT JUMPDEST RETURNDATASIZE PUSH1 0x1 EQ ISZERO PC PUSH1 0xA ADD JUMPI PUSH1 0x1 PUSH1 0x0 RETURN JUMPDEST DUP1 MLOAD PUSH1 0x0 DUP3 MSTORE SWAP4 POP PUSH1 0x20 PUSH2 0x2AB3 JUMP JUMPDEST PUSH4 0x8540661F MSIZE DUP2 PUSH1 0xE0 SHL DUP2 MSTORE DUP4 PUSH1 0x4 DUP3 ADD MSTORE DUP5 PUSH1 0x24 DUP3 ADD MSTORE PUSH1 0x60 PUSH1 0x44 DUP3 ADD MSTORE DUP7 PUSH1 0x64 DUP3 ADD MSTORE PUSH1 0x84 DUP2 ADD PUSH1 0x0 JUMPDEST DUP9 DUP2 LT ISZERO PUSH2 0x2B5A JUMPI DUP1 DUP9 ADD MLOAD DUP3 DUP3 ADD MSTORE PUSH1 0x20 ADD PUSH2 0x2B42 JUMP JUMPDEST POP DUP8 PUSH2 0x104 ADD DUP3 ADD PUSH1 0x60 DUP4 DUP11 PUSH2 0x104 ADD DUP6 CALLER PUSH1 0x0 SWAP1 GAS CALL PC PUSH1 0xE ADD JUMPI RETURNDATASIZE PUSH1 0x0 DUP1 RETURNDATACOPY RETURNDATASIZE PUSH1 0x0 REVERT JUMPDEST RETURNDATASIZE PUSH1 0x1 EQ ISZERO PC PUSH1 0xA ADD JUMPI PUSH1 0x1 PUSH1 0x0 RETURN JUMPDEST DUP3 MLOAD PUSH1 0x40 DUP5 ADD MLOAD RETURNDATASIZE PUSH1 0x0 DUP7 RETURNDATACOPY DUP13 DUP13 DUP3 PUSH1 0x60 DUP9 ADD CALLER POP PUSH1 0x0 PUSH1 0x4 GAS CALL POP MSIZE DUP6 JUMPDEST DUP2 DUP2 LT ISZERO PUSH2 0x2BC3 JUMPI PUSH1 0x0 DUP2 MSTORE PUSH1 0x20 ADD PUSH2 0x2BAF JUMP JUMPDEST POP SWAP2 SWAP13 POP POP POP POP POP POP POP JUMP JUMPDEST PUSH4 0x22BD64C0 MSIZE DUP2 PUSH1 0xE0 SHL DUP2 MSTORE DUP4 PUSH1 0x4 DUP3 ADD MSTORE DUP5 PUSH1 0x24 DUP3 ADD MSTORE PUSH1 0x0 DUP2 PUSH1 0x44 DUP4 CALLER PUSH1 0x0 SWAP1 GAS CALL PC PUSH1 0xE ADD JUMPI RETURNDATASIZE PUSH1 0x0 DUP1 RETURNDATACOPY RETURNDATASIZE PUSH1 0x0 REVERT JUMPDEST RETURNDATASIZE PUSH1 0x1 EQ ISZERO PC PUSH1 0xA ADD JUMPI PUSH1 0x1 PUSH1 0x0 RETURN JUMPDEST PUSH1 0x0 DUP2 MSTORE PUSH1 0x20 PUSH2 0x2AB3 JUMP JUMPDEST PUSH4 0x73509064 MSIZE DUP2 PUSH1 0xE0 SHL DUP2 MSTORE PUSH1 0x20 DUP2 PUSH1 0x4 DUP4 CALLER PUSH1 0x0 SWAP1 GAS CALL PC PUSH1 0xE ADD JUMPI RETURNDATASIZE PUSH1 0x0 DUP1 RETURNDATACOPY RETURNDATASIZE PUSH1 0x0 REVERT JUMPDEST RETURNDATASIZE PUSH1 0x1 EQ ISZERO PC PUSH1 0xA ADD JUMPI PUSH1 0x1 PUSH1 0x0 RETURN JUMPDEST DUP1 MLOAD PUSH1 0x0 DUP3 MSTORE SWAP4 POP PUSH1 0x20 PUSH2 0x2AB3 JUMP JUMPDEST PUSH4 0xBDBF8C36 MSIZE DUP2 PUSH1 0xE0 SHL DUP2 MSTORE PUSH1 0x20 DUP2 PUSH1 0x4 DUP4 CALLER PUSH1 0x0 SWAP1 GAS CALL PC PUSH1 0xE ADD JUMPI RETURNDATASIZE PUSH1 0x0 DUP1 RETURNDATACOPY RETURNDATASIZE PUSH1 0x0 REVERT JUMPDEST RETURNDATASIZE PUSH1 0x1 EQ ISZERO PC PUSH1 0xA ADD JUMPI PUSH1 0x1 PUSH1 0x0 RETURN JUMPDEST DUP1 MLOAD PUSH1 0x0 DUP3 MSTORE SWAP4 POP PUSH1 0x20 PUSH2 0x2AB3 JUMP JUMPDEST PUSH4 0x85979F76 MSIZE DUP2 PUSH1 0xE0 SHL DUP2 MSTORE DUP4 PUSH1 0x4 DUP3 ADD MSTORE DUP5 PUSH1 0x24 DUP3 ADD MSTORE PUSH1 0x60 PUSH1 0x44 DUP3 ADD MSTORE DUP8 PUSH1 0x64 DUP3 ADD MSTORE PUSH1 0x84 DUP2 ADD PUSH1 0x0 JUMPDEST DUP10 DUP2 LT ISZERO PUSH2 0x2CED JUMPI DUP1 DUP10 ADD MLOAD DUP3 DUP3 ADD MSTORE PUSH1 0x20 ADD PUSH2 0x2CD5 JUMP JUMPDEST POP DUP9 PUSH2 0x104 ADD DUP3 ADD PUSH1 0x60 DUP4 DUP12 PUSH2 0x104 ADD DUP6 CALLER PUSH1 0x0 SWAP1 GAS CALL PC PUSH1 0xE ADD JUMPI RETURNDATASIZE PUSH1 0x0 DUP1 RETURNDATACOPY RETURNDATASIZE PUSH1 0x0 REVERT JUMPDEST RETURNDATASIZE PUSH1 0x1 EQ ISZERO PC PUSH1 0xA ADD JUMPI PUSH1 0x1 PUSH1 0x0 RETURN JUMPDEST DUP3 MLOAD PUSH1 0x40 DUP5 ADD MLOAD RETURNDATASIZE PUSH1 0x0 DUP7 RETURNDATACOPY DUP14 DUP14 DUP3 PUSH1 0x60 DUP9 ADD CALLER POP PUSH1 0x0 PUSH1 0x4 GAS CALL POP MSIZE DUP6 JUMPDEST DUP2 DUP2 LT ISZERO PUSH2 0x2D56 JUMPI PUSH1 0x0 DUP2 MSTORE PUSH1 0x20 ADD PUSH2 0x2D42 JUMP JUMPDEST POP SWAP2 SWAP14 POP POP POP POP POP POP POP JUMP JUMPDEST PUSH1 0x40 MLOAD PUSH2 0x300 DUP1 DUP3 ADD PUSH1 0x40 MSTORE PUSH1 0x18 SWAP1 DUP3 SWAP1 DUP1 CODESIZE DUP4 CODECOPY POP SWAP2 SWAP3 SWAP2 POP POP JUMP INVALID MSIZE PUSH16 0x75206D757374206265206E6F6D696E61 PUSH21 0x6564206265666F726520796F752063616E20616363 PUSH6 0x7074206F776E PUSH6 0x72736869704F PUSH15 0x6C792074686520636F6E7472616374 KECCAK256 PUSH16 0x776E6572206D617920706572666F726D KECCAK256 PUSH21 0x68697320616374696F6E536166654D6174683A206D PUSH22 0x6C7469706C69636174696F6E206F766572666C6F7754 PUSH9 0x697320616374696F6E KECCAK256 PUSH4 0x616E6E6F PUSH21 0x20626520706572666F726D6564207768696C652074 PUSH9 0x6520636F6E74726163 PUSH21 0x206973207061757365645361666545524332303A20 GASLIMIT MSTORE NUMBER ORIGIN ADDRESS KECCAK256 PUSH16 0x7065726174696F6E20646964206E6F74 KECCAK256 PUSH20 0x7563636565640000000000000000000000000000 "
		}
	}
}