{
	"abi": [
		{
			"constant": true,
			"inputs": [
				{
					"internalType": "contract BinaryOptionMarket",
					"name": "market",
					"type": "address"
				},
				{
					"internalType": "address",
					"name": "account",
					"type": "address"
				}
			],
			"name": "getAccountMarketData",
			"outputs": [
				{
					"components": [
						{
							"components": [
								{
									"internalType": "uint256",
									"name": "long",
									"type": "uint256"
								},
								{
									"internalType": "uint256",
									"name": "short",
									"type": "uint256"
								}
							],
							"internalType": "struct BinaryOptionMarketData.OptionValues",
							"name": "bids",
							"type": "tuple"
						},
						{
							"components": [
								{
									"internalType": "uint256",
									"name": "long",
									"type": "uint256"
								},
								{
									"internalType": "uint256",
									"name": "short",
									"type": "uint256"
								}
							],
							"internalType": "struct BinaryOptionMarketData.OptionValues",
							"name": "claimable",
							"type": "tuple"
						},
						{
							"components": [
								{
									"internalType": "uint256",
									"name": "long",
									"type": "uint256"
								},
								{
									"internalType": "uint256",
									"name": "short",
									"type": "uint256"
								}
							],
							"internalType": "struct BinaryOptionMarketData.OptionValues",
							"name": "balances",
							"type": "tuple"
						}
					],
					"internalType": "struct BinaryOptionMarketData.AccountData",
					"name": "",
					"type": "tuple"
				}
			],
			"payable": false,
			"stateMutability": "view",
			"type": "function"
		},
		{
			"constant": true,
			"inputs": [
				{
					"internalType": "contract BinaryOptionMarket",
					"name": "market",
					"type": "address"
				}
			],
			"name": "getMarketData",
			"outputs": [
				{
					"components": [
						{
							"components": [
								{
									"internalType": "uint256",
									"name": "price",
									"type": "uint256"
								},
								{
									"internalType": "uint256",
									"name": "updatedAt",
									"type": "uint256"
								}
							],
							"internalType": "struct BinaryOptionMarketData.OraclePriceAndTimestamp",
							"name": "oraclePriceAndTimestamp",
							"type": "tuple"
						},
						{
							"components": [
								{
									"internalType": "uint256",
									"name": "long",
									"type": "uint256"
								},
								{
									"internalType": "uint256",
									"name": "short",
									"type": "uint256"
								}
							],
							"internalType": "struct BinaryOptionMarket.Prices",
							"name": "prices",
							"type": "tuple"
						},
						{
							"components": [
								{
									"internalType": "uint256",
									"name": "deposited",
									"type": "uint256"
								},
								{
									"internalType": "uint256",
									"name": "exercisableDeposits",
									"type": "uint256"
								}
							],
							"internalType": "struct BinaryOptionMarketData.Deposits",
							"name": "deposits",
							"type": "tuple"
						},
						{
							"components": [
								{
									"internalType": "bool",
									"name": "resolved",
									"type": "bool"
								},
								{
									"internalType": "bool",
									"name": "canResolve",
									"type": "bool"
								}
							],
							"internalType": "struct BinaryOptionMarketData.Resolution",
							"name": "resolution",
							"type": "tuple"
						},
						{
							"internalType": "enum IBinaryOptionMarket.Phase",
							"name": "phase",
							"type": "uint8"
						},
						{
							"internalType": "enum IBinaryOptionMarket.Side",
							"name": "result",
							"type": "uint8"
						},
						{
							"components": [
								{
									"internalType": "uint256",
									"name": "long",
									"type": "uint256"
								},
								{
									"internalType": "uint256",
									"name": "short",
									"type": "uint256"
								}
							],
							"internalType": "struct BinaryOptionMarketData.OptionValues",
							"name": "totalBids",
							"type": "tuple"
						},
						{
							"components": [
								{
									"internalType": "uint256",
									"name": "long",
									"type": "uint256"
								},
								{
									"internalType": "uint256",
									"name": "short",
									"type": "uint256"
								}
							],
							"internalType": "struct BinaryOptionMarketData.OptionValues",
							"name": "totalClaimableSupplies",
							"type": "tuple"
						},
						{
							"components": [
								{
									"internalType": "uint256",
									"name": "long",
									"type": "uint256"
								},
								{
									"internalType": "uint256",
									"name": "short",
									"type": "uint256"
								}
							],
							"internalType": "struct BinaryOptionMarketData.OptionValues",
							"name": "totalSupplies",
							"type": "tuple"
						}
					],
					"internalType": "struct BinaryOptionMarketData.MarketData",
					"name": "",
					"type": "tuple"
				}
			],
			"payable": false,
			"stateMutability": "view",
			"type": "function"
		},
		{
			"constant": true,
			"inputs": [
				{
					"internalType": "contract BinaryOptionMarket",
					"name": "market",
					"type": "address"
				}
			],
			"name": "getMarketParameters",
			"outputs": [
				{
					"components": [
						{
							"internalType": "address",
							"name": "creator",
							"type": "address"
						},
						{
							"components": [
								{
									"internalType": "contract BinaryOption",
									"name": "long",
									"type": "address"
								},
								{
									"internalType": "contract BinaryOption",
									"name": "short",
									"type": "address"
								}
							],
							"internalType": "struct BinaryOptionMarket.Options",
							"name": "options",
							"type": "tuple"
						},
						{
							"components": [
								{
									"internalType": "uint256",
									"name": "biddingEnd",
									"type": "uint256"
								},
								{
									"internalType": "uint256",
									"name": "maturity",
									"type": "uint256"
								},
								{
									"internalType": "uint256",
									"name": "expiry",
									"type": "uint256"
								}
							],
							"internalType": "struct BinaryOptionMarket.Times",
							"name": "times",
							"type": "tuple"
						},
						{
							"components": [
								{
									"internalType": "bytes32",
									"name": "key",
									"type": "bytes32"
								},
								{
									"internalType": "uint256",
									"name": "strikePrice",
									"type": "uint256"
								},
								{
									"internalType": "uint256",
									"name": "finalPrice",
									"type": "uint256"
								}
							],
							"internalType": "struct BinaryOptionMarket.OracleDetails",
							"name": "oracleDetails",
							"type": "tuple"
						},
						{
							"components": [
								{
									"internalType": "uint256",
									"name": "poolFee",
									"type": "uint256"
								},
								{
									"internalType": "uint256",
									"name": "creatorFee",
									"type": "uint256"
								},
								{
									"internalType": "uint256",
									"name": "refundFee",
									"type": "uint256"
								}
							],
							"internalType": "struct BinaryOptionMarketManager.Fees",
							"name": "fees",
							"type": "tuple"
						},
						{
							"components": [
								{
									"internalType": "uint256",
									"name": "capitalRequirement",
									"type": "uint256"
								},
								{
									"internalType": "uint256",
									"name": "skewLimit",
									"type": "uint256"
								}
							],
							"internalType": "struct BinaryOptionMarketManager.CreatorLimits",
							"name": "creatorLimits",
							"type": "tuple"
						}
					],
					"internalType": "struct BinaryOptionMarketData.MarketParameters",
					"name": "",
					"type": "tuple"
				}
			],
			"payable": false,
			"stateMutability": "view",
			"type": "function"
		}
	],
	"evm": {
		"bytecode": {
			"linkReferences": {},
			"object": "60806040523480156100195760008061001661001f565b50505b5061008a565b632a2a7adb598160e01b8152600481016020815285602082015260005b8681101561005757808601518282016040015260200161003c565b506020828760640184336000905af158600e01573d6000803e3d6000fd5b3d6001141558600a015760016000f35b505050565b611786806100996000396000f3fe608060405234801561001957600080610016610f41565b50505b506004361061004a5760003560e01c80631216fc7b14610058578063a30c302d14610081578063dca5f5c3146100a1575b600080610055610f41565b50505b61006b6100663660046112fd565b6100c1565b60405161007891906116b1565b60405180910390f35b61009461008f3660046112fd565b610567565b60405161007891906116a2565b6100b46100af366004611324565b610ce3565b6040516100789190611694565b6100c9610fac565b600080836001600160a01b0316631069143a6040518163ffffffff1660e01b8152600401604080518083038186806100ff610fff565b15801561011457600080610111610f41565b50505b505a61011e61105f565b505050505015801561013d573d6000803e3d600061013a610f41565b50505b50505050604051601f3d908101601f191682016040526101609190810190611367565b915091506000806000866001600160a01b0316639e3b34bf6040518163ffffffff1660e01b8152600401606060405180830381868061019d610fff565b1580156101b2576000806101af610f41565b50505b505a6101bc61105f565b50505050501580156101db573d6000803e3d60006101d8610f41565b50505b50505050604051601f3d908101601f191682016040526101fe91908101906112a7565b9250925092506000806000896001600160a01b03166398508ecd6040518163ffffffff1660e01b8152600401606060405180830381868061023d610fff565b1580156102525760008061024f610f41565b50505b505a61025c61105f565b505050505015801561027b573d6000803e3d6000610278610f41565b50505b50505050604051601f3d908101601f1916820160405261029e91908101906112a7565b92509250925060008060008c6001600160a01b0316639af1d35a6040518163ffffffff1660e01b815260040160606040518083038186806102dd610fff565b1580156102f2576000806102ef610f41565b50505b505a6102fc61105f565b505050505015801561031b573d6000803e3d6000610318610f41565b50505b50505050604051601f3d908101601f1916820160405261033e91908101906112a7565b92509250925061034c610fac565b6040518060c001604052808f6001600160a01b03166302d05d3f6040518163ffffffff1660e01b8152600401602060405180830381868061038b610fff565b1580156103a05760008061039d610f41565b50505b505a6103aa61105f565b50505050501580156103c9573d6000803e3d60006103c6610f41565b50505b50505050604051601f3d908101601f191682016040526103ec9190810190611251565b6001600160a01b0316815260200160405180604001604052808f6001600160a01b031681526020018e6001600160a01b0316815250815260200160405180606001604052808d81526020018c81526020018b815250815260200160405180606001604052808a81526020018981526020018881525081526020016040518060600160405280878152602001868152602001858152508152602001604051806040016040528060008152602001600081525081525090506000808f6001600160a01b031663be5af9fe6040518163ffffffff1660e01b8152600401604080518083038186806104d8610fff565b1580156104ed576000806104ea610f41565b50505b505a6104f761105f565b5050505050158015610516573d6000803e3d6000610513610f41565b50505b50505050604051601f3d908101601f191682016040526105399190810190611415565b9150915060405160408082019052918252602082015260a08201529b5050505050505050505050505b919050565b61056f611118565b600080836001600160a01b031663c7a5bdc86040518163ffffffff1660e01b8152600401604080518083038186806105a5610fff565b1580156105ba576000806105b7610f41565b50505b505a6105c461105f565b50505050501580156105e3573d6000803e3d60006105e0610f41565b50505b50505050604051601f3d908101601f191682016040526106069190810190611415565b91509150600080856001600160a01b0316633d7a783b6040518163ffffffff1660e01b815260040160408051808303818680610640610fff565b15801561065557600080610652610f41565b50505b505a61065f61105f565b505050505015801561067e573d6000803e3d600061067b610f41565b50505b50505050604051601f3d908101601f191682016040526106a19190810190611415565b91509150600080876001600160a01b031663d068cdc56040518163ffffffff1660e01b8152600401604080518083038186806106db610fff565b1580156106f0576000806106ed610f41565b50505b505a6106fa61105f565b5050505050158015610719573d6000803e3d6000610716610f41565b50505b50505050604051601f3d908101601f1916820160405261073c9190810190611415565b91509150600080896001600160a01b0316638b0341366040518163ffffffff1660e01b815260040160408051808303818680610776610fff565b15801561078b57600080610788610f41565b50505b505a61079561105f565b50505050501580156107b4573d6000803e3d60006107b1610f41565b50505b50505050604051601f3d908101601f191682016040526107d79190810190611415565b915091506000808b6001600160a01b031663d3419bf36040518163ffffffff1660e01b815260040160408051808303818680610811610fff565b15801561082657600080610823610f41565b50505b505a61083061105f565b505050505015801561084f573d6000803e3d600061084c610f41565b50505b50505050604051601f3d908101601f191682016040526108729190810190611415565b9150915060405180610120016040528060405180604001604052808d81526020018c8152508152602001604051806040016040528085815260200184815250815260200160405180604001604052808f6001600160a01b031663eef49ee36040518163ffffffff1660e01b815260040160206040518083038186806108f5610fff565b15801561090a57600080610907610f41565b50505b505a61091461105f565b5050505050158015610933573d6000803e3d6000610930610f41565b50505b50505050604051601f3d908101601f1916820160405261095691908101906113ee565b81526020018f6001600160a01b0316632115e3036040518163ffffffff1660e01b8152600401602060405180830381868061098f610fff565b1580156109a4576000806109a1610f41565b50505b505a6109ae61105f565b50505050501580156109cd573d6000803e3d60006109ca610f41565b50505b50505050604051601f3d908101601f191682016040526109f091908101906113ee565b9052815260200160405180604001604052808f6001600160a01b0316633f6fa6556040518163ffffffff1660e01b81526004016020604051808303818680610a36610fff565b158015610a4b57600080610a48610f41565b50505b505a610a5561105f565b5050505050158015610a74573d6000803e3d6000610a71610f41565b50505b50505050604051601f3d908101601f19168201604052610a979190810190611280565b151581526020018f6001600160a01b031663ac3791e36040518163ffffffff1660e01b81526004016020604051808303818680610ad2610fff565b158015610ae757600080610ae4610f41565b50505b505a610af161105f565b5050505050158015610b10573d6000803e3d6000610b0d610f41565b50505b50505050604051601f3d908101601f19168201604052610b339190810190611280565b1515905281526020016001600160a01b038e1663b1c9fe6e6040518163ffffffff1660e01b81526004016020604051808303818680610b70610fff565b158015610b8557600080610b82610f41565b50505b505a610b8f61105f565b5050505050158015610bae573d6000803e3d6000610bab610f41565b50505b50505050604051601f3d908101601f19168201604052610bd191908101906113a0565b6003811115610bdc57fe5b81526020018d6001600160a01b031663653721476040518163ffffffff1660e01b81526004016020604051808303818680610c15610fff565b158015610c2a57600080610c27610f41565b50505b505a610c3461105f565b5050505050158015610c53573d6000803e3d6000610c50610f41565b50505b50505050604051601f3d908101601f19168201604052610c7691908101906113c7565b6001811115610c8157fe5b8152602001604051806040016040528087815260200186815250815260200160405180604001604052808b81526020018a81525081526020016040518060400160405280898152602001888152508152509a5050505050505050505050919050565b610ceb61117b565b600080846001600160a01b03166329e77b5d856040518263ffffffff1660e01b8152600401610d1a9190611686565b60408051808303818680610d2c610fff565b158015610d4157600080610d3e610f41565b50505b505a610d4b61105f565b5050505050158015610d6a573d6000803e3d6000610d67610f41565b50505b50505050604051601f3d908101601f19168201604052610d8d9190810190611415565b91509150600080866001600160a01b031663408e82af876040518263ffffffff1660e01b8152600401610dc09190611686565b60408051808303818680610dd2610fff565b158015610de757600080610de4610f41565b50505b505a610df161105f565b5050505050158015610e10573d6000803e3d6000610e0d610f41565b50505b50505050604051601f3d908101601f19168201604052610e339190810190611415565b91509150600080886001600160a01b0316636392a51f896040518263ffffffff1660e01b8152600401610e669190611686565b60408051808303818680610e78610fff565b158015610e8d57600080610e8a610f41565b50505b505a610e9761105f565b5050505050158015610eb6573d6000803e3d6000610eb3610f41565b50505b50505050604051601f3d908101601f19168201604052610ed99190810190611415565b915091506040518060600160405280604051806040016040528089815260200188815250815260200160405180604001604052808781526020018681525081526020016040516040808201905293845260208401929092529190529450505050505b92915050565b632a2a7adb598160e01b8152600481016020815285602082015260005b86811015610f79578086015182820160400152602001610f5e565b506020828760640184336000905af158600e01573d6000803e3d6000fd5b3d6001141558600a015760016000f35b505050565b60405160c081016040526000815260208101610fc661118a565b8152602001610fd36111a1565b8152602001610fe06111c2565b8152602001610fed6111a1565b8152602001610ffa61118a565b905290565b638435035b598160e01b8152836004820152602081602483336000905af158600e01573d6000803e3d6000fd5b3d6001141558600a015760016000f35b8051935060005b604081101561105a57600082820152602001611043565b505050565b638540661f598160e01b8152836004820152846024820152606060448201528660648201526084810160005b888110156110a357808801518282015260200161108b565b50876101040182016060838a6101040185336000905af158600e01573d6000803e3d6000fd5b3d6001141558600a015760016000f35b825160408401513d6000863e8c8c82606088013350600060045af15059855b8181101561110c57600081526020016110f8565b50919c50505050505050565b60405180610120016040528061112c61118a565b815260200161113961118a565b815260200161114661118a565b815260200161115361118a565b8152602001600081526020016000815260200161116e61118a565b8152602001610fed61118a565b604051806060016040528061116e5b604051604080820190526000808252602082015290565b60405180606001604052806000815260200160008152602001600081525090565b6040516060810160409081526000808352602083018190529082015290565b8035610f3b8161172b565b600081519050610f3b8161172b565b600081519050610f3b81611745565b600081519050610f3b8161174e565b8035610f3b81611757565b600081519050610f3b81611757565b600081519050610f3b81611760565b600081519050610f3b81611773565b60006020828403121561126c57600080611269610f41565b50505b600061127884846111ec565b949350505050565b60006020828403121561129b57600080611298610f41565b50505b600061127884846111fb565b6000806000606084860312156112c5576000806112c2610f41565b50505b60006112d1868661120a565b93505060206112e28682870161120a565b92505060406112f38682870161120a565b9150509250925092565b60006020828403121561131857600080611315610f41565b50505b60006112788484611219565b600080604083850312156113405760008061133d610f41565b50505b600061134c8585611219565b925050602061135d858286016111e1565b9150509250929050565b6000806040838503121561138357600080611380610f41565b50505b600061138f8585611224565b925050602061135d85828601611224565b6000602082840312156113bb576000806113b8610f41565b50505b60006112788484611233565b6000602082840312156113e2576000806113df610f41565b50505b60006112788484611242565b60006020828403121561140957600080611406610f41565b50505b6000611278848461120a565b600080604083850312156114315760008061142e610f41565b50505b600061143d858561120a565b925050602061135d8582860161120a565b611457816116c0565b82525050565b611457816116cb565b611457816116d0565b611457816116d3565b611457816116fe565b61145781611709565b60c08201815161149a84826114c6565b5060208201516114ad60408501826114c6565b5060408201516114c060808501826114c6565b50505050565b6040820181516114d68482611466565b5060208201516114c06020850182611466565b6060820181516114f98482611466565b50602082015161150c6020850182611466565b5060408201516114c06040850182611466565b6102008201815161153084826114c6565b50602082015161154360408501826114c6565b50604082015161155660808501826114c6565b50606082015161156960c0850182611663565b50608082015161157d610100850182611478565b5060a0820151611591610120850182611481565b5060c08201516115a56101408501826114c6565b5060e08201516115b96101808501826114c6565b506101008201516114c06101c08501826114c6565b6101c0820181516115df848261144e565b5060208201516115f26020850182611640565b50604082015161160560608501826114e9565b50606082015161161860c08501826114e9565b50608082015161162c6101208501826114e9565b5060a08201516114c06101808501826114c6565b604082018151611650848261146f565b5060208201516114c0602085018261146f565b604082018151611673848261145d565b5060208201516114c0602085018261145d565b60208101610f3b828461144e565b60c08101610f3b828461148a565b6102008101610f3b828461151f565b6101c08101610f3b82846115ce565b6000610f3b826116f2565b151590565b90565b6000610f3b826116c0565b8061056281611714565b8061056281611721565b6001600160a01b031690565b6000610f3b826116de565b6000610f3b826116e8565b6004811061171e57fe5b50565b6002811061171e57fe5b611734816116c0565b811461171e5760008061105a610f41565b611734816116cb565b611734816116d0565b611734816116d3565b6004811061171e5760008061105a610f41565b6002811061171e5760008061105a610f4156",
			"opcodes": "PUSH1 0x80 PUSH1 0x40 MSTORE CALLVALUE DUP1 ISZERO PUSH2 0x19 JUMPI PUSH1 0x0 DUP1 PUSH2 0x16 PUSH2 0x1F JUMP JUMPDEST POP POP JUMPDEST POP PUSH2 0x8A JUMP JUMPDEST PUSH4 0x2A2A7ADB MSIZE DUP2 PUSH1 0xE0 SHL DUP2 MSTORE PUSH1 0x4 DUP2 ADD PUSH1 0x20 DUP2 MSTORE DUP6 PUSH1 0x20 DUP3 ADD MSTORE PUSH1 0x0 JUMPDEST DUP7 DUP2 LT ISZERO PUSH2 0x57 JUMPI DUP1 DUP7 ADD MLOAD DUP3 DUP3 ADD PUSH1 0x40 ADD MSTORE PUSH1 0x20 ADD PUSH2 0x3C JUMP JUMPDEST POP PUSH1 0x20 DUP3 DUP8 PUSH1 0x64 ADD DUP5 CALLER PUSH1 0x0 SWAP1 GAS CALL PC PUSH1 0xE ADD JUMPI RETURNDATASIZE PUSH1 0x0 DUP1 RETURNDATACOPY RETURNDATASIZE PUSH1 0x0 REVERT JUMPDEST RETURNDATASIZE PUSH1 0x1 EQ ISZERO PC PUSH1 0xA ADD JUMPI PUSH1 0x1 PUSH1 0x0 RETURN JUMPDEST POP POP POP JUMP JUMPDEST PUSH2 0x1786 DUP1 PUSH2 0x99 PUSH1 0x0 CODECOPY PUSH1 0x0 RETURN INVALID PUSH1 0x80 PUSH1 0x40 MSTORE CALLVALUE DUP1 ISZERO PUSH2 0x19 JUMPI PUSH1 0x0 DUP1 PUSH2 0x16 PUSH2 0xF41 JUMP JUMPDEST POP POP JUMPDEST POP PUSH1 0x4 CALLDATASIZE LT PUSH2 0x4A JUMPI PUSH1 0x0 CALLDATALOAD PUSH1 0xE0 SHR DUP1 PUSH4 0x1216FC7B EQ PUSH2 0x58 JUMPI DUP1 PUSH4 0xA30C302D EQ PUSH2 0x81 JUMPI DUP1 PUSH4 0xDCA5F5C3 EQ PUSH2 0xA1 JUMPI JUMPDEST PUSH1 0x0 DUP1 PUSH2 0x55 PUSH2 0xF41 JUMP JUMPDEST POP POP JUMPDEST PUSH2 0x6B PUSH2 0x66 CALLDATASIZE PUSH1 0x4 PUSH2 0x12FD JUMP JUMPDEST PUSH2 0xC1 JUMP JUMPDEST PUSH1 0x40 MLOAD PUSH2 0x78 SWAP2 SWAP1 PUSH2 0x16B1 JUMP JUMPDEST PUSH1 0x40 MLOAD DUP1 SWAP2 SUB SWAP1 RETURN JUMPDEST PUSH2 0x94 PUSH2 0x8F CALLDATASIZE PUSH1 0x4 PUSH2 0x12FD JUMP JUMPDEST PUSH2 0x567 JUMP JUMPDEST PUSH1 0x40 MLOAD PUSH2 0x78 SWAP2 SWAP1 PUSH2 0x16A2 JUMP JUMPDEST PUSH2 0xB4 PUSH2 0xAF CALLDATASIZE PUSH1 0x4 PUSH2 0x1324 JUMP JUMPDEST PUSH2 0xCE3 JUMP JUMPDEST PUSH1 0x40 MLOAD PUSH2 0x78 SWAP2 SWAP1 PUSH2 0x1694 JUMP JUMPDEST PUSH2 0xC9 PUSH2 0xFAC JUMP JUMPDEST PUSH1 0x0 DUP1 DUP4 PUSH1 0x1 PUSH1 0x1 PUSH1 0xA0 SHL SUB AND PUSH4 0x1069143A PUSH1 0x40 MLOAD DUP2 PUSH4 0xFFFFFFFF AND PUSH1 0xE0 SHL DUP2 MSTORE PUSH1 0x4 ADD PUSH1 0x40 DUP1 MLOAD DUP1 DUP4 SUB DUP2 DUP7 DUP1 PUSH2 0xFF PUSH2 0xFFF JUMP JUMPDEST ISZERO DUP1 ISZERO PUSH2 0x114 JUMPI PUSH1 0x0 DUP1 PUSH2 0x111 PUSH2 0xF41 JUMP JUMPDEST POP POP JUMPDEST POP GAS PUSH2 0x11E PUSH2 0x105F JUMP JUMPDEST POP POP POP POP POP ISZERO DUP1 ISZERO PUSH2 0x13D JUMPI RETURNDATASIZE PUSH1 0x0 DUP1 RETURNDATACOPY RETURNDATASIZE PUSH1 0x0 PUSH2 0x13A PUSH2 0xF41 JUMP JUMPDEST POP POP JUMPDEST POP POP POP POP PUSH1 0x40 MLOAD PUSH1 0x1F RETURNDATASIZE SWAP1 DUP2 ADD PUSH1 0x1F NOT AND DUP3 ADD PUSH1 0x40 MSTORE PUSH2 0x160 SWAP2 SWAP1 DUP2 ADD SWAP1 PUSH2 0x1367 JUMP JUMPDEST SWAP2 POP SWAP2 POP PUSH1 0x0 DUP1 PUSH1 0x0 DUP7 PUSH1 0x1 PUSH1 0x1 PUSH1 0xA0 SHL SUB AND PUSH4 0x9E3B34BF PUSH1 0x40 MLOAD DUP2 PUSH4 0xFFFFFFFF AND PUSH1 0xE0 SHL DUP2 MSTORE PUSH1 0x4 ADD PUSH1 0x60 PUSH1 0x40 MLOAD DUP1 DUP4 SUB DUP2 DUP7 DUP1 PUSH2 0x19D PUSH2 0xFFF JUMP JUMPDEST ISZERO DUP1 ISZERO PUSH2 0x1B2 JUMPI PUSH1 0x0 DUP1 PUSH2 0x1AF PUSH2 0xF41 JUMP JUMPDEST POP POP JUMPDEST POP GAS PUSH2 0x1BC PUSH2 0x105F JUMP JUMPDEST POP POP POP POP POP ISZERO DUP1 ISZERO PUSH2 0x1DB JUMPI RETURNDATASIZE PUSH1 0x0 DUP1 RETURNDATACOPY RETURNDATASIZE PUSH1 0x0 PUSH2 0x1D8 PUSH2 0xF41 JUMP JUMPDEST POP POP JUMPDEST POP POP POP POP PUSH1 0x40 MLOAD PUSH1 0x1F RETURNDATASIZE SWAP1 DUP2 ADD PUSH1 0x1F NOT AND DUP3 ADD PUSH1 0x40 MSTORE PUSH2 0x1FE SWAP2 SWAP1 DUP2 ADD SWAP1 PUSH2 0x12A7 JUMP JUMPDEST SWAP3 POP SWAP3 POP SWAP3 POP PUSH1 0x0 DUP1 PUSH1 0x0 DUP10 PUSH1 0x1 PUSH1 0x1 PUSH1 0xA0 SHL SUB AND PUSH4 0x98508ECD PUSH1 0x40 MLOAD DUP2 PUSH4 0xFFFFFFFF AND PUSH1 0xE0 SHL DUP2 MSTORE PUSH1 0x4 ADD PUSH1 0x60 PUSH1 0x40 MLOAD DUP1 DUP4 SUB DUP2 DUP7 DUP1 PUSH2 0x23D PUSH2 0xFFF JUMP JUMPDEST ISZERO DUP1 ISZERO PUSH2 0x252 JUMPI PUSH1 0x0 DUP1 PUSH2 0x24F PUSH2 0xF41 JUMP JUMPDEST POP POP JUMPDEST POP GAS PUSH2 0x25C PUSH2 0x105F JUMP JUMPDEST POP POP POP POP POP ISZERO DUP1 ISZERO PUSH2 0x27B JUMPI RETURNDATASIZE PUSH1 0x0 DUP1 RETURNDATACOPY RETURNDATASIZE PUSH1 0x0 PUSH2 0x278 PUSH2 0xF41 JUMP JUMPDEST POP POP JUMPDEST POP POP POP POP PUSH1 0x40 MLOAD PUSH1 0x1F RETURNDATASIZE SWAP1 DUP2 ADD PUSH1 0x1F NOT AND DUP3 ADD PUSH1 0x40 MSTORE PUSH2 0x29E SWAP2 SWAP1 DUP2 ADD SWAP1 PUSH2 0x12A7 JUMP JUMPDEST SWAP3 POP SWAP3 POP SWAP3 POP PUSH1 0x0 DUP1 PUSH1 0x0 DUP13 PUSH1 0x1 PUSH1 0x1 PUSH1 0xA0 SHL SUB AND PUSH4 0x9AF1D35A PUSH1 0x40 MLOAD DUP2 PUSH4 0xFFFFFFFF AND PUSH1 0xE0 SHL DUP2 MSTORE PUSH1 0x4 ADD PUSH1 0x60 PUSH1 0x40 MLOAD DUP1 DUP4 SUB DUP2 DUP7 DUP1 PUSH2 0x2DD PUSH2 0xFFF JUMP JUMPDEST ISZERO DUP1 ISZERO PUSH2 0x2F2 JUMPI PUSH1 0x0 DUP1 PUSH2 0x2EF PUSH2 0xF41 JUMP JUMPDEST POP POP JUMPDEST POP GAS PUSH2 0x2FC PUSH2 0x105F JUMP JUMPDEST POP POP POP POP POP ISZERO DUP1 ISZERO PUSH2 0x31B JUMPI RETURNDATASIZE PUSH1 0x0 DUP1 RETURNDATACOPY RETURNDATASIZE PUSH1 0x0 PUSH2 0x318 PUSH2 0xF41 JUMP JUMPDEST POP POP JUMPDEST POP POP POP POP PUSH1 0x40 MLOAD PUSH1 0x1F RETURNDATASIZE SWAP1 DUP2 ADD PUSH1 0x1F NOT AND DUP3 ADD PUSH1 0x40 MSTORE PUSH2 0x33E SWAP2 SWAP1 DUP2 ADD SWAP1 PUSH2 0x12A7 JUMP JUMPDEST SWAP3 POP SWAP3 POP SWAP3 POP PUSH2 0x34C PUSH2 0xFAC JUMP JUMPDEST PUSH1 0x40 MLOAD DUP1 PUSH1 0xC0 ADD PUSH1 0x40 MSTORE DUP1 DUP16 PUSH1 0x1 PUSH1 0x1 PUSH1 0xA0 SHL SUB AND PUSH4 0x2D05D3F PUSH1 0x40 MLOAD DUP2 PUSH4 0xFFFFFFFF AND PUSH1 0xE0 SHL DUP2 MSTORE PUSH1 0x4 ADD PUSH1 0x20 PUSH1 0x40 MLOAD DUP1 DUP4 SUB DUP2 DUP7 DUP1 PUSH2 0x38B PUSH2 0xFFF JUMP JUMPDEST ISZERO DUP1 ISZERO PUSH2 0x3A0 JUMPI PUSH1 0x0 DUP1 PUSH2 0x39D PUSH2 0xF41 JUMP JUMPDEST POP POP JUMPDEST POP GAS PUSH2 0x3AA PUSH2 0x105F JUMP JUMPDEST POP POP POP POP POP ISZERO DUP1 ISZERO PUSH2 0x3C9 JUMPI RETURNDATASIZE PUSH1 0x0 DUP1 RETURNDATACOPY RETURNDATASIZE PUSH1 0x0 PUSH2 0x3C6 PUSH2 0xF41 JUMP JUMPDEST POP POP JUMPDEST POP POP POP POP PUSH1 0x40 MLOAD PUSH1 0x1F RETURNDATASIZE SWAP1 DUP2 ADD PUSH1 0x1F NOT AND DUP3 ADD PUSH1 0x40 MSTORE PUSH2 0x3EC SWAP2 SWAP1 DUP2 ADD SWAP1 PUSH2 0x1251 JUMP JUMPDEST PUSH1 0x1 PUSH1 0x1 PUSH1 0xA0 SHL SUB AND DUP2 MSTORE PUSH1 0x20 ADD PUSH1 0x40 MLOAD DUP1 PUSH1 0x40 ADD PUSH1 0x40 MSTORE DUP1 DUP16 PUSH1 0x1 PUSH1 0x1 PUSH1 0xA0 SHL SUB AND DUP2 MSTORE PUSH1 0x20 ADD DUP15 PUSH1 0x1 PUSH1 0x1 PUSH1 0xA0 SHL SUB AND DUP2 MSTORE POP DUP2 MSTORE PUSH1 0x20 ADD PUSH1 0x40 MLOAD DUP1 PUSH1 0x60 ADD PUSH1 0x40 MSTORE DUP1 DUP14 DUP2 MSTORE PUSH1 0x20 ADD DUP13 DUP2 MSTORE PUSH1 0x20 ADD DUP12 DUP2 MSTORE POP DUP2 MSTORE PUSH1 0x20 ADD PUSH1 0x40 MLOAD DUP1 PUSH1 0x60 ADD PUSH1 0x40 MSTORE DUP1 DUP11 DUP2 MSTORE PUSH1 0x20 ADD DUP10 DUP2 MSTORE PUSH1 0x20 ADD DUP9 DUP2 MSTORE POP DUP2 MSTORE PUSH1 0x20 ADD PUSH1 0x40 MLOAD DUP1 PUSH1 0x60 ADD PUSH1 0x40 MSTORE DUP1 DUP8 DUP2 MSTORE PUSH1 0x20 ADD DUP7 DUP2 MSTORE PUSH1 0x20 ADD DUP6 DUP2 MSTORE POP DUP2 MSTORE PUSH1 0x20 ADD PUSH1 0x40 MLOAD DUP1 PUSH1 0x40 ADD PUSH1 0x40 MSTORE DUP1 PUSH1 0x0 DUP2 MSTORE PUSH1 0x20 ADD PUSH1 0x0 DUP2 MSTORE POP DUP2 MSTORE POP SWAP1 POP PUSH1 0x0 DUP1 DUP16 PUSH1 0x1 PUSH1 0x1 PUSH1 0xA0 SHL SUB AND PUSH4 0xBE5AF9FE PUSH1 0x40 MLOAD DUP2 PUSH4 0xFFFFFFFF AND PUSH1 0xE0 SHL DUP2 MSTORE PUSH1 0x4 ADD PUSH1 0x40 DUP1 MLOAD DUP1 DUP4 SUB DUP2 DUP7 DUP1 PUSH2 0x4D8 PUSH2 0xFFF JUMP JUMPDEST ISZERO DUP1 ISZERO PUSH2 0x4ED JUMPI PUSH1 0x0 DUP1 PUSH2 0x4EA PUSH2 0xF41 JUMP JUMPDEST POP POP JUMPDEST POP GAS PUSH2 0x4F7 PUSH2 0x105F JUMP JUMPDEST POP POP POP POP POP ISZERO DUP1 ISZERO PUSH2 0x516 JUMPI RETURNDATASIZE PUSH1 0x0 DUP1 RETURNDATACOPY RETURNDATASIZE PUSH1 0x0 PUSH2 0x513 PUSH2 0xF41 JUMP JUMPDEST POP POP JUMPDEST POP POP POP POP PUSH1 0x40 MLOAD PUSH1 0x1F RETURNDATASIZE SWAP1 DUP2 ADD PUSH1 0x1F NOT AND DUP3 ADD PUSH1 0x40 MSTORE PUSH2 0x539 SWAP2 SWAP1 DUP2 ADD SWAP1 PUSH2 0x1415 JUMP JUMPDEST SWAP2 POP SWAP2 POP PUSH1 0x40 MLOAD PUSH1 0x40 DUP1 DUP3 ADD SWAP1 MSTORE SWAP2 DUP3 MSTORE PUSH1 0x20 DUP3 ADD MSTORE PUSH1 0xA0 DUP3 ADD MSTORE SWAP12 POP POP POP POP POP POP POP POP POP POP POP POP JUMPDEST SWAP2 SWAP1 POP JUMP JUMPDEST PUSH2 0x56F PUSH2 0x1118 JUMP JUMPDEST PUSH1 0x0 DUP1 DUP4 PUSH1 0x1 PUSH1 0x1 PUSH1 0xA0 SHL SUB AND PUSH4 0xC7A5BDC8 PUSH1 0x40 MLOAD DUP2 PUSH4 0xFFFFFFFF AND PUSH1 0xE0 SHL DUP2 MSTORE PUSH1 0x4 ADD PUSH1 0x40 DUP1 MLOAD DUP1 DUP4 SUB DUP2 DUP7 DUP1 PUSH2 0x5A5 PUSH2 0xFFF JUMP JUMPDEST ISZERO DUP1 ISZERO PUSH2 0x5BA JUMPI PUSH1 0x0 DUP1 PUSH2 0x5B7 PUSH2 0xF41 JUMP JUMPDEST POP POP JUMPDEST POP GAS PUSH2 0x5C4 PUSH2 0x105F JUMP JUMPDEST POP POP POP POP POP ISZERO DUP1 ISZERO PUSH2 0x5E3 JUMPI RETURNDATASIZE PUSH1 0x0 DUP1 RETURNDATACOPY RETURNDATASIZE PUSH1 0x0 PUSH2 0x5E0 PUSH2 0xF41 JUMP JUMPDEST POP POP JUMPDEST POP POP POP POP PUSH1 0x40 MLOAD PUSH1 0x1F RETURNDATASIZE SWAP1 DUP2 ADD PUSH1 0x1F NOT AND DUP3 ADD PUSH1 0x40 MSTORE PUSH2 0x606 SWAP2 SWAP1 DUP2 ADD SWAP1 PUSH2 0x1415 JUMP JUMPDEST SWAP2 POP SWAP2 POP PUSH1 0x0 DUP1 DUP6 PUSH1 0x1 PUSH1 0x1 PUSH1 0xA0 SHL SUB AND PUSH4 0x3D7A783B PUSH1 0x40 MLOAD DUP2 PUSH4 0xFFFFFFFF AND PUSH1 0xE0 SHL DUP2 MSTORE PUSH1 0x4 ADD PUSH1 0x40 DUP1 MLOAD DUP1 DUP4 SUB DUP2 DUP7 DUP1 PUSH2 0x640 PUSH2 0xFFF JUMP JUMPDEST ISZERO DUP1 ISZERO PUSH2 0x655 JUMPI PUSH1 0x0 DUP1 PUSH2 0x652 PUSH2 0xF41 JUMP JUMPDEST POP POP JUMPDEST POP GAS PUSH2 0x65F PUSH2 0x105F JUMP JUMPDEST POP POP POP POP POP ISZERO DUP1 ISZERO PUSH2 0x67E JUMPI RETURNDATASIZE PUSH1 0x0 DUP1 RETURNDATACOPY RETURNDATASIZE PUSH1 0x0 PUSH2 0x67B PUSH2 0xF41 JUMP JUMPDEST POP POP JUMPDEST POP POP POP POP PUSH1 0x40 MLOAD PUSH1 0x1F RETURNDATASIZE SWAP1 DUP2 ADD PUSH1 0x1F NOT AND DUP3 ADD PUSH1 0x40 MSTORE PUSH2 0x6A1 SWAP2 SWAP1 DUP2 ADD SWAP1 PUSH2 0x1415 JUMP JUMPDEST SWAP2 POP SWAP2 POP PUSH1 0x0 DUP1 DUP8 PUSH1 0x1 PUSH1 0x1 PUSH1 0xA0 SHL SUB AND PUSH4 0xD068CDC5 PUSH1 0x40 MLOAD DUP2 PUSH4 0xFFFFFFFF AND PUSH1 0xE0 SHL DUP2 MSTORE PUSH1 0x4 ADD PUSH1 0x40 DUP1 MLOAD DUP1 DUP4 SUB DUP2 DUP7 DUP1 PUSH2 0x6DB PUSH2 0xFFF JUMP JUMPDEST ISZERO DUP1 ISZERO PUSH2 0x6F0 JUMPI PUSH1 0x0 DUP1 PUSH2 0x6ED PUSH2 0xF41 JUMP JUMPDEST POP POP JUMPDEST POP GAS PUSH2 0x6FA PUSH2 0x105F JUMP JUMPDEST POP POP POP POP POP ISZERO DUP1 ISZERO PUSH2 0x719 JUMPI RETURNDATASIZE PUSH1 0x0 DUP1 RETURNDATACOPY RETURNDATASIZE PUSH1 0x0 PUSH2 0x716 PUSH2 0xF41 JUMP JUMPDEST POP POP JUMPDEST POP POP POP POP PUSH1 0x40 MLOAD PUSH1 0x1F RETURNDATASIZE SWAP1 DUP2 ADD PUSH1 0x1F NOT AND DUP3 ADD PUSH1 0x40 MSTORE PUSH2 0x73C SWAP2 SWAP1 DUP2 ADD SWAP1 PUSH2 0x1415 JUMP JUMPDEST SWAP2 POP SWAP2 POP PUSH1 0x0 DUP1 DUP10 PUSH1 0x1 PUSH1 0x1 PUSH1 0xA0 SHL SUB AND PUSH4 0x8B034136 PUSH1 0x40 MLOAD DUP2 PUSH4 0xFFFFFFFF AND PUSH1 0xE0 SHL DUP2 MSTORE PUSH1 0x4 ADD PUSH1 0x40 DUP1 MLOAD DUP1 DUP4 SUB DUP2 DUP7 DUP1 PUSH2 0x776 PUSH2 0xFFF JUMP JUMPDEST ISZERO DUP1 ISZERO PUSH2 0x78B JUMPI PUSH1 0x0 DUP1 PUSH2 0x788 PUSH2 0xF41 JUMP JUMPDEST POP POP JUMPDEST POP GAS PUSH2 0x795 PUSH2 0x105F JUMP JUMPDEST POP POP POP POP POP ISZERO DUP1 ISZERO PUSH2 0x7B4 JUMPI RETURNDATASIZE PUSH1 0x0 DUP1 RETURNDATACOPY RETURNDATASIZE PUSH1 0x0 PUSH2 0x7B1 PUSH2 0xF41 JUMP JUMPDEST POP POP JUMPDEST POP POP POP POP PUSH1 0x40 MLOAD PUSH1 0x1F RETURNDATASIZE SWAP1 DUP2 ADD PUSH1 0x1F NOT AND DUP3 ADD PUSH1 0x40 MSTORE PUSH2 0x7D7 SWAP2 SWAP1 DUP2 ADD SWAP1 PUSH2 0x1415 JUMP JUMPDEST SWAP2 POP SWAP2 POP PUSH1 0x0 DUP1 DUP12 PUSH1 0x1 PUSH1 0x1 PUSH1 0xA0 SHL SUB AND PUSH4 0xD3419BF3 PUSH1 0x40 MLOAD DUP2 PUSH4 0xFFFFFFFF AND PUSH1 0xE0 SHL DUP2 MSTORE PUSH1 0x4 ADD PUSH1 0x40 DUP1 MLOAD DUP1 DUP4 SUB DUP2 DUP7 DUP1 PUSH2 0x811 PUSH2 0xFFF JUMP JUMPDEST ISZERO DUP1 ISZERO PUSH2 0x826 JUMPI PUSH1 0x0 DUP1 PUSH2 0x823 PUSH2 0xF41 JUMP JUMPDEST POP POP JUMPDEST POP GAS PUSH2 0x830 PUSH2 0x105F JUMP JUMPDEST POP POP POP POP POP ISZERO DUP1 ISZERO PUSH2 0x84F JUMPI RETURNDATASIZE PUSH1 0x0 DUP1 RETURNDATACOPY RETURNDATASIZE PUSH1 0x0 PUSH2 0x84C PUSH2 0xF41 JUMP JUMPDEST POP POP JUMPDEST POP POP POP POP PUSH1 0x40 MLOAD PUSH1 0x1F RETURNDATASIZE SWAP1 DUP2 ADD PUSH1 0x1F NOT AND DUP3 ADD PUSH1 0x40 MSTORE PUSH2 0x872 SWAP2 SWAP1 DUP2 ADD SWAP1 PUSH2 0x1415 JUMP JUMPDEST SWAP2 POP SWAP2 POP PUSH1 0x40 MLOAD DUP1 PUSH2 0x120 ADD PUSH1 0x40 MSTORE DUP1 PUSH1 0x40 MLOAD DUP1 PUSH1 0x40 ADD PUSH1 0x40 MSTORE DUP1 DUP14 DUP2 MSTORE PUSH1 0x20 ADD DUP13 DUP2 MSTORE POP DUP2 MSTORE PUSH1 0x20 ADD PUSH1 0x40 MLOAD DUP1 PUSH1 0x40 ADD PUSH1 0x40 MSTORE DUP1 DUP6 DUP2 MSTORE PUSH1 0x20 ADD DUP5 DUP2 MSTORE POP DUP2 MSTORE PUSH1 0x20 ADD PUSH1 0x40 MLOAD DUP1 PUSH1 0x40 ADD PUSH1 0x40 MSTORE DUP1 DUP16 PUSH1 0x1 PUSH1 0x1 PUSH1 0xA0 SHL SUB AND PUSH4 0xEEF49EE3 PUSH1 0x40 MLOAD DUP2 PUSH4 0xFFFFFFFF AND PUSH1 0xE0 SHL DUP2 MSTORE PUSH1 0x4 ADD PUSH1 0x20 PUSH1 0x40 MLOAD DUP1 DUP4 SUB DUP2 DUP7 DUP1 PUSH2 0x8F5 PUSH2 0xFFF JUMP JUMPDEST ISZERO DUP1 ISZERO PUSH2 0x90A JUMPI PUSH1 0x0 DUP1 PUSH2 0x907 PUSH2 0xF41 JUMP JUMPDEST POP POP JUMPDEST POP GAS PUSH2 0x914 PUSH2 0x105F JUMP JUMPDEST POP POP POP POP POP ISZERO DUP1 ISZERO PUSH2 0x933 JUMPI RETURNDATASIZE PUSH1 0x0 DUP1 RETURNDATACOPY RETURNDATASIZE PUSH1 0x0 PUSH2 0x930 PUSH2 0xF41 JUMP JUMPDEST POP POP JUMPDEST POP POP POP POP PUSH1 0x40 MLOAD PUSH1 0x1F RETURNDATASIZE SWAP1 DUP2 ADD PUSH1 0x1F NOT AND DUP3 ADD PUSH1 0x40 MSTORE PUSH2 0x956 SWAP2 SWAP1 DUP2 ADD SWAP1 PUSH2 0x13EE JUMP JUMPDEST DUP2 MSTORE PUSH1 0x20 ADD DUP16 PUSH1 0x1 PUSH1 0x1 PUSH1 0xA0 SHL SUB AND PUSH4 0x2115E303 PUSH1 0x40 MLOAD DUP2 PUSH4 0xFFFFFFFF AND PUSH1 0xE0 SHL DUP2 MSTORE PUSH1 0x4 ADD PUSH1 0x20 PUSH1 0x40 MLOAD DUP1 DUP4 SUB DUP2 DUP7 DUP1 PUSH2 0x98F PUSH2 0xFFF JUMP JUMPDEST ISZERO DUP1 ISZERO PUSH2 0x9A4 JUMPI PUSH1 0x0 DUP1 PUSH2 0x9A1 PUSH2 0xF41 JUMP JUMPDEST POP POP JUMPDEST POP GAS PUSH2 0x9AE PUSH2 0x105F JUMP JUMPDEST POP POP POP POP POP ISZERO DUP1 ISZERO PUSH2 0x9CD JUMPI RETURNDATASIZE PUSH1 0x0 DUP1 RETURNDATACOPY RETURNDATASIZE PUSH1 0x0 PUSH2 0x9CA PUSH2 0xF41 JUMP JUMPDEST POP POP JUMPDEST POP POP POP POP PUSH1 0x40 MLOAD PUSH1 0x1F RETURNDATASIZE SWAP1 DUP2 ADD PUSH1 0x1F NOT AND DUP3 ADD PUSH1 0x40 MSTORE PUSH2 0x9F0 SWAP2 SWAP1 DUP2 ADD SWAP1 PUSH2 0x13EE JUMP JUMPDEST SWAP1 MSTORE DUP2 MSTORE PUSH1 0x20 ADD PUSH1 0x40 MLOAD DUP1 PUSH1 0x40 ADD PUSH1 0x40 MSTORE DUP1 DUP16 PUSH1 0x1 PUSH1 0x1 PUSH1 0xA0 SHL SUB AND PUSH4 0x3F6FA655 PUSH1 0x40 MLOAD DUP2 PUSH4 0xFFFFFFFF AND PUSH1 0xE0 SHL DUP2 MSTORE PUSH1 0x4 ADD PUSH1 0x20 PUSH1 0x40 MLOAD DUP1 DUP4 SUB DUP2 DUP7 DUP1 PUSH2 0xA36 PUSH2 0xFFF JUMP JUMPDEST ISZERO DUP1 ISZERO PUSH2 0xA4B JUMPI PUSH1 0x0 DUP1 PUSH2 0xA48 PUSH2 0xF41 JUMP JUMPDEST POP POP JUMPDEST POP GAS PUSH2 0xA55 PUSH2 0x105F JUMP JUMPDEST POP POP POP POP POP ISZERO DUP1 ISZERO PUSH2 0xA74 JUMPI RETURNDATASIZE PUSH1 0x0 DUP1 RETURNDATACOPY RETURNDATASIZE PUSH1 0x0 PUSH2 0xA71 PUSH2 0xF41 JUMP JUMPDEST POP POP JUMPDEST POP POP POP POP PUSH1 0x40 MLOAD PUSH1 0x1F RETURNDATASIZE SWAP1 DUP2 ADD PUSH1 0x1F NOT AND DUP3 ADD PUSH1 0x40 MSTORE PUSH2 0xA97 SWAP2 SWAP1 DUP2 ADD SWAP1 PUSH2 0x1280 JUMP JUMPDEST ISZERO ISZERO DUP2 MSTORE PUSH1 0x20 ADD DUP16 PUSH1 0x1 PUSH1 0x1 PUSH1 0xA0 SHL SUB AND PUSH4 0xAC3791E3 PUSH1 0x40 MLOAD DUP2 PUSH4 0xFFFFFFFF AND PUSH1 0xE0 SHL DUP2 MSTORE PUSH1 0x4 ADD PUSH1 0x20 PUSH1 0x40 MLOAD DUP1 DUP4 SUB DUP2 DUP7 DUP1 PUSH2 0xAD2 PUSH2 0xFFF JUMP JUMPDEST ISZERO DUP1 ISZERO PUSH2 0xAE7 JUMPI PUSH1 0x0 DUP1 PUSH2 0xAE4 PUSH2 0xF41 JUMP JUMPDEST POP POP JUMPDEST POP GAS PUSH2 0xAF1 PUSH2 0x105F JUMP JUMPDEST POP POP POP POP POP ISZERO DUP1 ISZERO PUSH2 0xB10 JUMPI RETURNDATASIZE PUSH1 0x0 DUP1 RETURNDATACOPY RETURNDATASIZE PUSH1 0x0 PUSH2 0xB0D PUSH2 0xF41 JUMP JUMPDEST POP POP JUMPDEST POP POP POP POP PUSH1 0x40 MLOAD PUSH1 0x1F RETURNDATASIZE SWAP1 DUP2 ADD PUSH1 0x1F NOT AND DUP3 ADD PUSH1 0x40 MSTORE PUSH2 0xB33 SWAP2 SWAP1 DUP2 ADD SWAP1 PUSH2 0x1280 JUMP JUMPDEST ISZERO ISZERO SWAP1 MSTORE DUP2 MSTORE PUSH1 0x20 ADD PUSH1 0x1 PUSH1 0x1 PUSH1 0xA0 SHL SUB DUP15 AND PUSH4 0xB1C9FE6E PUSH1 0x40 MLOAD DUP2 PUSH4 0xFFFFFFFF AND PUSH1 0xE0 SHL DUP2 MSTORE PUSH1 0x4 ADD PUSH1 0x20 PUSH1 0x40 MLOAD DUP1 DUP4 SUB DUP2 DUP7 DUP1 PUSH2 0xB70 PUSH2 0xFFF JUMP JUMPDEST ISZERO DUP1 ISZERO PUSH2 0xB85 JUMPI PUSH1 0x0 DUP1 PUSH2 0xB82 PUSH2 0xF41 JUMP JUMPDEST POP POP JUMPDEST POP GAS PUSH2 0xB8F PUSH2 0x105F JUMP JUMPDEST POP POP POP POP POP ISZERO DUP1 ISZERO PUSH2 0xBAE JUMPI RETURNDATASIZE PUSH1 0x0 DUP1 RETURNDATACOPY RETURNDATASIZE PUSH1 0x0 PUSH2 0xBAB PUSH2 0xF41 JUMP JUMPDEST POP POP JUMPDEST POP POP POP POP PUSH1 0x40 MLOAD PUSH1 0x1F RETURNDATASIZE SWAP1 DUP2 ADD PUSH1 0x1F NOT AND DUP3 ADD PUSH1 0x40 MSTORE PUSH2 0xBD1 SWAP2 SWAP1 DUP2 ADD SWAP1 PUSH2 0x13A0 JUMP JUMPDEST PUSH1 0x3 DUP2 GT ISZERO PUSH2 0xBDC JUMPI INVALID JUMPDEST DUP2 MSTORE PUSH1 0x20 ADD DUP14 PUSH1 0x1 PUSH1 0x1 PUSH1 0xA0 SHL SUB AND PUSH4 0x65372147 PUSH1 0x40 MLOAD DUP2 PUSH4 0xFFFFFFFF AND PUSH1 0xE0 SHL DUP2 MSTORE PUSH1 0x4 ADD PUSH1 0x20 PUSH1 0x40 MLOAD DUP1 DUP4 SUB DUP2 DUP7 DUP1 PUSH2 0xC15 PUSH2 0xFFF JUMP JUMPDEST ISZERO DUP1 ISZERO PUSH2 0xC2A JUMPI PUSH1 0x0 DUP1 PUSH2 0xC27 PUSH2 0xF41 JUMP JUMPDEST POP POP JUMPDEST POP GAS PUSH2 0xC34 PUSH2 0x105F JUMP JUMPDEST POP POP POP POP POP ISZERO DUP1 ISZERO PUSH2 0xC53 JUMPI RETURNDATASIZE PUSH1 0x0 DUP1 RETURNDATACOPY RETURNDATASIZE PUSH1 0x0 PUSH2 0xC50 PUSH2 0xF41 JUMP JUMPDEST POP POP JUMPDEST POP POP POP POP PUSH1 0x40 MLOAD PUSH1 0x1F RETURNDATASIZE SWAP1 DUP2 ADD PUSH1 0x1F NOT AND DUP3 ADD PUSH1 0x40 MSTORE PUSH2 0xC76 SWAP2 SWAP1 DUP2 ADD SWAP1 PUSH2 0x13C7 JUMP JUMPDEST PUSH1 0x1 DUP2 GT ISZERO PUSH2 0xC81 JUMPI INVALID JUMPDEST DUP2 MSTORE PUSH1 0x20 ADD PUSH1 0x40 MLOAD DUP1 PUSH1 0x40 ADD PUSH1 0x40 MSTORE DUP1 DUP8 DUP2 MSTORE PUSH1 0x20 ADD DUP7 DUP2 MSTORE POP DUP2 MSTORE PUSH1 0x20 ADD PUSH1 0x40 MLOAD DUP1 PUSH1 0x40 ADD PUSH1 0x40 MSTORE DUP1 DUP12 DUP2 MSTORE PUSH1 0x20 ADD DUP11 DUP2 MSTORE POP DUP2 MSTORE PUSH1 0x20 ADD PUSH1 0x40 MLOAD DUP1 PUSH1 0x40 ADD PUSH1 0x40 MSTORE DUP1 DUP10 DUP2 MSTORE PUSH1 0x20 ADD DUP9 DUP2 MSTORE POP DUP2 MSTORE POP SWAP11 POP POP POP POP POP POP POP POP POP POP POP SWAP2 SWAP1 POP JUMP JUMPDEST PUSH2 0xCEB PUSH2 0x117B JUMP JUMPDEST PUSH1 0x0 DUP1 DUP5 PUSH1 0x1 PUSH1 0x1 PUSH1 0xA0 SHL SUB AND PUSH4 0x29E77B5D DUP6 PUSH1 0x40 MLOAD DUP3 PUSH4 0xFFFFFFFF AND PUSH1 0xE0 SHL DUP2 MSTORE PUSH1 0x4 ADD PUSH2 0xD1A SWAP2 SWAP1 PUSH2 0x1686 JUMP JUMPDEST PUSH1 0x40 DUP1 MLOAD DUP1 DUP4 SUB DUP2 DUP7 DUP1 PUSH2 0xD2C PUSH2 0xFFF JUMP JUMPDEST ISZERO DUP1 ISZERO PUSH2 0xD41 JUMPI PUSH1 0x0 DUP1 PUSH2 0xD3E PUSH2 0xF41 JUMP JUMPDEST POP POP JUMPDEST POP GAS PUSH2 0xD4B PUSH2 0x105F JUMP JUMPDEST POP POP POP POP POP ISZERO DUP1 ISZERO PUSH2 0xD6A JUMPI RETURNDATASIZE PUSH1 0x0 DUP1 RETURNDATACOPY RETURNDATASIZE PUSH1 0x0 PUSH2 0xD67 PUSH2 0xF41 JUMP JUMPDEST POP POP JUMPDEST POP POP POP POP PUSH1 0x40 MLOAD PUSH1 0x1F RETURNDATASIZE SWAP1 DUP2 ADD PUSH1 0x1F NOT AND DUP3 ADD PUSH1 0x40 MSTORE PUSH2 0xD8D SWAP2 SWAP1 DUP2 ADD SWAP1 PUSH2 0x1415 JUMP JUMPDEST SWAP2 POP SWAP2 POP PUSH1 0x0 DUP1 DUP7 PUSH1 0x1 PUSH1 0x1 PUSH1 0xA0 SHL SUB AND PUSH4 0x408E82AF DUP8 PUSH1 0x40 MLOAD DUP3 PUSH4 0xFFFFFFFF AND PUSH1 0xE0 SHL DUP2 MSTORE PUSH1 0x4 ADD PUSH2 0xDC0 SWAP2 SWAP1 PUSH2 0x1686 JUMP JUMPDEST PUSH1 0x40 DUP1 MLOAD DUP1 DUP4 SUB DUP2 DUP7 DUP1 PUSH2 0xDD2 PUSH2 0xFFF JUMP JUMPDEST ISZERO DUP1 ISZERO PUSH2 0xDE7 JUMPI PUSH1 0x0 DUP1 PUSH2 0xDE4 PUSH2 0xF41 JUMP JUMPDEST POP POP JUMPDEST POP GAS PUSH2 0xDF1 PUSH2 0x105F JUMP JUMPDEST POP POP POP POP POP ISZERO DUP1 ISZERO PUSH2 0xE10 JUMPI RETURNDATASIZE PUSH1 0x0 DUP1 RETURNDATACOPY RETURNDATASIZE PUSH1 0x0 PUSH2 0xE0D PUSH2 0xF41 JUMP JUMPDEST POP POP JUMPDEST POP POP POP POP PUSH1 0x40 MLOAD PUSH1 0x1F RETURNDATASIZE SWAP1 DUP2 ADD PUSH1 0x1F NOT AND DUP3 ADD PUSH1 0x40 MSTORE PUSH2 0xE33 SWAP2 SWAP1 DUP2 ADD SWAP1 PUSH2 0x1415 JUMP JUMPDEST SWAP2 POP SWAP2 POP PUSH1 0x0 DUP1 DUP9 PUSH1 0x1 PUSH1 0x1 PUSH1 0xA0 SHL SUB AND PUSH4 0x6392A51F DUP10 PUSH1 0x40 MLOAD DUP3 PUSH4 0xFFFFFFFF AND PUSH1 0xE0 SHL DUP2 MSTORE PUSH1 0x4 ADD PUSH2 0xE66 SWAP2 SWAP1 PUSH2 0x1686 JUMP JUMPDEST PUSH1 0x40 DUP1 MLOAD DUP1 DUP4 SUB DUP2 DUP7 DUP1 PUSH2 0xE78 PUSH2 0xFFF JUMP JUMPDEST ISZERO DUP1 ISZERO PUSH2 0xE8D JUMPI PUSH1 0x0 DUP1 PUSH2 0xE8A PUSH2 0xF41 JUMP JUMPDEST POP POP JUMPDEST POP GAS PUSH2 0xE97 PUSH2 0x105F JUMP JUMPDEST POP POP POP POP POP ISZERO DUP1 ISZERO PUSH2 0xEB6 JUMPI RETURNDATASIZE PUSH1 0x0 DUP1 RETURNDATACOPY RETURNDATASIZE PUSH1 0x0 PUSH2 0xEB3 PUSH2 0xF41 JUMP JUMPDEST POP POP JUMPDEST POP POP POP POP PUSH1 0x40 MLOAD PUSH1 0x1F RETURNDATASIZE SWAP1 DUP2 ADD PUSH1 0x1F NOT AND DUP3 ADD PUSH1 0x40 MSTORE PUSH2 0xED9 SWAP2 SWAP1 DUP2 ADD SWAP1 PUSH2 0x1415 JUMP JUMPDEST SWAP2 POP SWAP2 POP PUSH1 0x40 MLOAD DUP1 PUSH1 0x60 ADD PUSH1 0x40 MSTORE DUP1 PUSH1 0x40 MLOAD DUP1 PUSH1 0x40 ADD PUSH1 0x40 MSTORE DUP1 DUP10 DUP2 MSTORE PUSH1 0x20 ADD DUP9 DUP2 MSTORE POP DUP2 MSTORE PUSH1 0x20 ADD PUSH1 0x40 MLOAD DUP1 PUSH1 0x40 ADD PUSH1 0x40 MSTORE DUP1 DUP8 DUP2 MSTORE PUSH1 0x20 ADD DUP7 DUP2 MSTORE POP DUP2 MSTORE PUSH1 0x20 ADD PUSH1 0x40 MLOAD PUSH1 0x40 DUP1 DUP3 ADD SWAP1 MSTORE SWAP4 DUP5 MSTORE PUSH1 0x20 DUP5 ADD SWAP3 SWAP1 SWAP3 MSTORE SWAP2 SWAP1 MSTORE SWAP5 POP POP POP POP POP JUMPDEST SWAP3 SWAP2 POP POP JUMP JUMPDEST PUSH4 0x2A2A7ADB MSIZE DUP2 PUSH1 0xE0 SHL DUP2 MSTORE PUSH1 0x4 DUP2 ADD PUSH1 0x20 DUP2 MSTORE DUP6 PUSH1 0x20 DUP3 ADD MSTORE PUSH1 0x0 JUMPDEST DUP7 DUP2 LT ISZERO PUSH2 0xF79 JUMPI DUP1 DUP7 ADD MLOAD DUP3 DUP3 ADD PUSH1 0x40 ADD MSTORE PUSH1 0x20 ADD PUSH2 0xF5E JUMP JUMPDEST POP PUSH1 0x20 DUP3 DUP8 PUSH1 0x64 ADD DUP5 CALLER PUSH1 0x0 SWAP1 GAS CALL PC PUSH1 0xE ADD JUMPI RETURNDATASIZE PUSH1 0x0 DUP1 RETURNDATACOPY RETURNDATASIZE PUSH1 0x0 REVERT JUMPDEST RETURNDATASIZE PUSH1 0x1 EQ ISZERO PC PUSH1 0xA ADD JUMPI PUSH1 0x1 PUSH1 0x0 RETURN JUMPDEST POP POP POP JUMP JUMPDEST PUSH1 0x40 MLOAD PUSH1 0xC0 DUP2 ADD PUSH1 0x40 MSTORE PUSH1 0x0 DUP2 MSTORE PUSH1 0x20 DUP2 ADD PUSH2 0xFC6 PUSH2 0x118A JUMP JUMPDEST DUP2 MSTORE PUSH1 0x20 ADD PUSH2 0xFD3 PUSH2 0x11A1 JUMP JUMPDEST DUP2 MSTORE PUSH1 0x20 ADD PUSH2 0xFE0 PUSH2 0x11C2 JUMP JUMPDEST DUP2 MSTORE PUSH1 0x20 ADD PUSH2 0xFED PUSH2 0x11A1 JUMP JUMPDEST DUP2 MSTORE PUSH1 0x20 ADD PUSH2 0xFFA PUSH2 0x118A JUMP JUMPDEST SWAP1 MSTORE SWAP1 JUMP JUMPDEST PUSH4 0x8435035B MSIZE DUP2 PUSH1 0xE0 SHL DUP2 MSTORE DUP4 PUSH1 0x4 DUP3 ADD MSTORE PUSH1 0x20 DUP2 PUSH1 0x24 DUP4 CALLER PUSH1 0x0 SWAP1 GAS CALL PC PUSH1 0xE ADD JUMPI RETURNDATASIZE PUSH1 0x0 DUP1 RETURNDATACOPY RETURNDATASIZE PUSH1 0x0 REVERT JUMPDEST RETURNDATASIZE PUSH1 0x1 EQ ISZERO PC PUSH1 0xA ADD JUMPI PUSH1 0x1 PUSH1 0x0 RETURN JUMPDEST DUP1 MLOAD SWAP4 POP PUSH1 0x0 JUMPDEST PUSH1 0x40 DUP2 LT ISZERO PUSH2 0x105A JUMPI PUSH1 0x0 DUP3 DUP3 ADD MSTORE PUSH1 0x20 ADD PUSH2 0x1043 JUMP JUMPDEST POP POP POP JUMP JUMPDEST PUSH4 0x8540661F MSIZE DUP2 PUSH1 0xE0 SHL DUP2 MSTORE DUP4 PUSH1 0x4 DUP3 ADD MSTORE DUP5 PUSH1 0x24 DUP3 ADD MSTORE PUSH1 0x60 PUSH1 0x44 DUP3 ADD MSTORE DUP7 PUSH1 0x64 DUP3 ADD MSTORE PUSH1 0x84 DUP2 ADD PUSH1 0x0 JUMPDEST DUP9 DUP2 LT ISZERO PUSH2 0x10A3 JUMPI DUP1 DUP9 ADD MLOAD DUP3 DUP3 ADD MSTORE PUSH1 0x20 ADD PUSH2 0x108B JUMP JUMPDEST POP DUP8 PUSH2 0x104 ADD DUP3 ADD PUSH1 0x60 DUP4 DUP11 PUSH2 0x104 ADD DUP6 CALLER PUSH1 0x0 SWAP1 GAS CALL PC PUSH1 0xE ADD JUMPI RETURNDATASIZE PUSH1 0x0 DUP1 RETURNDATACOPY RETURNDATASIZE PUSH1 0x0 REVERT JUMPDEST RETURNDATASIZE PUSH1 0x1 EQ ISZERO PC PUSH1 0xA ADD JUMPI PUSH1 0x1 PUSH1 0x0 RETURN JUMPDEST DUP3 MLOAD PUSH1 0x40 DUP5 ADD MLOAD RETURNDATASIZE PUSH1 0x0 DUP7 RETURNDATACOPY DUP13 DUP13 DUP3 PUSH1 0x60 DUP9 ADD CALLER POP PUSH1 0x0 PUSH1 0x4 GAS CALL POP MSIZE DUP6 JUMPDEST DUP2 DUP2 LT ISZERO PUSH2 0x110C JUMPI PUSH1 0x0 DUP2 MSTORE PUSH1 0x20 ADD PUSH2 0x10F8 JUMP JUMPDEST POP SWAP2 SWAP13 POP POP POP POP POP POP POP JUMP JUMPDEST PUSH1 0x40 MLOAD DUP1 PUSH2 0x120 ADD PUSH1 0x40 MSTORE DUP1 PUSH2 0x112C PUSH2 0x118A JUMP JUMPDEST DUP2 MSTORE PUSH1 0x20 ADD PUSH2 0x1139 PUSH2 0x118A JUMP JUMPDEST DUP2 MSTORE PUSH1 0x20 ADD PUSH2 0x1146 PUSH2 0x118A JUMP JUMPDEST DUP2 MSTORE PUSH1 0x20 ADD PUSH2 0x1153 PUSH2 0x118A JUMP JUMPDEST DUP2 MSTORE PUSH1 0x20 ADD PUSH1 0x0 DUP2 MSTORE PUSH1 0x20 ADD PUSH1 0x0 DUP2 MSTORE PUSH1 0x20 ADD PUSH2 0x116E PUSH2 0x118A JUMP JUMPDEST DUP2 MSTORE PUSH1 0x20 ADD PUSH2 0xFED PUSH2 0x118A JUMP JUMPDEST PUSH1 0x40 MLOAD DUP1 PUSH1 0x60 ADD PUSH1 0x40 MSTORE DUP1 PUSH2 0x116E JUMPDEST PUSH1 0x40 MLOAD PUSH1 0x40 DUP1 DUP3 ADD SWAP1 MSTORE PUSH1 0x0 DUP1 DUP3 MSTORE PUSH1 0x20 DUP3 ADD MSTORE SWAP1 JUMP JUMPDEST PUSH1 0x40 MLOAD DUP1 PUSH1 0x60 ADD PUSH1 0x40 MSTORE DUP1 PUSH1 0x0 DUP2 MSTORE PUSH1 0x20 ADD PUSH1 0x0 DUP2 MSTORE PUSH1 0x20 ADD PUSH1 0x0 DUP2 MSTORE POP SWAP1 JUMP JUMPDEST PUSH1 0x40 MLOAD PUSH1 0x60 DUP2 ADD PUSH1 0x40 SWAP1 DUP2 MSTORE PUSH1 0x0 DUP1 DUP4 MSTORE PUSH1 0x20 DUP4 ADD DUP2 SWAP1 MSTORE SWAP1 DUP3 ADD MSTORE SWAP1 JUMP JUMPDEST DUP1 CALLDATALOAD PUSH2 0xF3B DUP2 PUSH2 0x172B JUMP JUMPDEST PUSH1 0x0 DUP2 MLOAD SWAP1 POP PUSH2 0xF3B DUP2 PUSH2 0x172B JUMP JUMPDEST PUSH1 0x0 DUP2 MLOAD SWAP1 POP PUSH2 0xF3B DUP2 PUSH2 0x1745 JUMP JUMPDEST PUSH1 0x0 DUP2 MLOAD SWAP1 POP PUSH2 0xF3B DUP2 PUSH2 0x174E JUMP JUMPDEST DUP1 CALLDATALOAD PUSH2 0xF3B DUP2 PUSH2 0x1757 JUMP JUMPDEST PUSH1 0x0 DUP2 MLOAD SWAP1 POP PUSH2 0xF3B DUP2 PUSH2 0x1757 JUMP JUMPDEST PUSH1 0x0 DUP2 MLOAD SWAP1 POP PUSH2 0xF3B DUP2 PUSH2 0x1760 JUMP JUMPDEST PUSH1 0x0 DUP2 MLOAD SWAP1 POP PUSH2 0xF3B DUP2 PUSH2 0x1773 JUMP JUMPDEST PUSH1 0x0 PUSH1 0x20 DUP3 DUP5 SUB SLT ISZERO PUSH2 0x126C JUMPI PUSH1 0x0 DUP1 PUSH2 0x1269 PUSH2 0xF41 JUMP JUMPDEST POP POP JUMPDEST PUSH1 0x0 PUSH2 0x1278 DUP5 DUP5 PUSH2 0x11EC JUMP JUMPDEST SWAP5 SWAP4 POP POP POP POP JUMP JUMPDEST PUSH1 0x0 PUSH1 0x20 DUP3 DUP5 SUB SLT ISZERO PUSH2 0x129B JUMPI PUSH1 0x0 DUP1 PUSH2 0x1298 PUSH2 0xF41 JUMP JUMPDEST POP POP JUMPDEST PUSH1 0x0 PUSH2 0x1278 DUP5 DUP5 PUSH2 0x11FB JUMP JUMPDEST PUSH1 0x0 DUP1 PUSH1 0x0 PUSH1 0x60 DUP5 DUP7 SUB SLT ISZERO PUSH2 0x12C5 JUMPI PUSH1 0x0 DUP1 PUSH2 0x12C2 PUSH2 0xF41 JUMP JUMPDEST POP POP JUMPDEST PUSH1 0x0 PUSH2 0x12D1 DUP7 DUP7 PUSH2 0x120A JUMP JUMPDEST SWAP4 POP POP PUSH1 0x20 PUSH2 0x12E2 DUP7 DUP3 DUP8 ADD PUSH2 0x120A JUMP JUMPDEST SWAP3 POP POP PUSH1 0x40 PUSH2 0x12F3 DUP7 DUP3 DUP8 ADD PUSH2 0x120A JUMP JUMPDEST SWAP2 POP POP SWAP3 POP SWAP3 POP SWAP3 JUMP JUMPDEST PUSH1 0x0 PUSH1 0x20 DUP3 DUP5 SUB SLT ISZERO PUSH2 0x1318 JUMPI PUSH1 0x0 DUP1 PUSH2 0x1315 PUSH2 0xF41 JUMP JUMPDEST POP POP JUMPDEST PUSH1 0x0 PUSH2 0x1278 DUP5 DUP5 PUSH2 0x1219 JUMP JUMPDEST PUSH1 0x0 DUP1 PUSH1 0x40 DUP4 DUP6 SUB SLT ISZERO PUSH2 0x1340 JUMPI PUSH1 0x0 DUP1 PUSH2 0x133D PUSH2 0xF41 JUMP JUMPDEST POP POP JUMPDEST PUSH1 0x0 PUSH2 0x134C DUP6 DUP6 PUSH2 0x1219 JUMP JUMPDEST SWAP3 POP POP PUSH1 0x20 PUSH2 0x135D DUP6 DUP3 DUP7 ADD PUSH2 0x11E1 JUMP JUMPDEST SWAP2 POP POP SWAP3 POP SWAP3 SWAP1 POP JUMP JUMPDEST PUSH1 0x0 DUP1 PUSH1 0x40 DUP4 DUP6 SUB SLT ISZERO PUSH2 0x1383 JUMPI PUSH1 0x0 DUP1 PUSH2 0x1380 PUSH2 0xF41 JUMP JUMPDEST POP POP JUMPDEST PUSH1 0x0 PUSH2 0x138F DUP6 DUP6 PUSH2 0x1224 JUMP JUMPDEST SWAP3 POP POP PUSH1 0x20 PUSH2 0x135D DUP6 DUP3 DUP7 ADD PUSH2 0x1224 JUMP JUMPDEST PUSH1 0x0 PUSH1 0x20 DUP3 DUP5 SUB SLT ISZERO PUSH2 0x13BB JUMPI PUSH1 0x0 DUP1 PUSH2 0x13B8 PUSH2 0xF41 JUMP JUMPDEST POP POP JUMPDEST PUSH1 0x0 PUSH2 0x1278 DUP5 DUP5 PUSH2 0x1233 JUMP JUMPDEST PUSH1 0x0 PUSH1 0x20 DUP3 DUP5 SUB SLT ISZERO PUSH2 0x13E2 JUMPI PUSH1 0x0 DUP1 PUSH2 0x13DF PUSH2 0xF41 JUMP JUMPDEST POP POP JUMPDEST PUSH1 0x0 PUSH2 0x1278 DUP5 DUP5 PUSH2 0x1242 JUMP JUMPDEST PUSH1 0x0 PUSH1 0x20 DUP3 DUP5 SUB SLT ISZERO PUSH2 0x1409 JUMPI PUSH1 0x0 DUP1 PUSH2 0x1406 PUSH2 0xF41 JUMP JUMPDEST POP POP JUMPDEST PUSH1 0x0 PUSH2 0x1278 DUP5 DUP5 PUSH2 0x120A JUMP JUMPDEST PUSH1 0x0 DUP1 PUSH1 0x40 DUP4 DUP6 SUB SLT ISZERO PUSH2 0x1431 JUMPI PUSH1 0x0 DUP1 PUSH2 0x142E PUSH2 0xF41 JUMP JUMPDEST POP POP JUMPDEST PUSH1 0x0 PUSH2 0x143D DUP6 DUP6 PUSH2 0x120A JUMP JUMPDEST SWAP3 POP POP PUSH1 0x20 PUSH2 0x135D DUP6 DUP3 DUP7 ADD PUSH2 0x120A JUMP JUMPDEST PUSH2 0x1457 DUP2 PUSH2 0x16C0 JUMP JUMPDEST DUP3 MSTORE POP POP JUMP JUMPDEST PUSH2 0x1457 DUP2 PUSH2 0x16CB JUMP JUMPDEST PUSH2 0x1457 DUP2 PUSH2 0x16D0 JUMP JUMPDEST PUSH2 0x1457 DUP2 PUSH2 0x16D3 JUMP JUMPDEST PUSH2 0x1457 DUP2 PUSH2 0x16FE JUMP JUMPDEST PUSH2 0x1457 DUP2 PUSH2 0x1709 JUMP JUMPDEST PUSH1 0xC0 DUP3 ADD DUP2 MLOAD PUSH2 0x149A DUP5 DUP3 PUSH2 0x14C6 JUMP JUMPDEST POP PUSH1 0x20 DUP3 ADD MLOAD PUSH2 0x14AD PUSH1 0x40 DUP6 ADD DUP3 PUSH2 0x14C6 JUMP JUMPDEST POP PUSH1 0x40 DUP3 ADD MLOAD PUSH2 0x14C0 PUSH1 0x80 DUP6 ADD DUP3 PUSH2 0x14C6 JUMP JUMPDEST POP POP POP POP JUMP JUMPDEST PUSH1 0x40 DUP3 ADD DUP2 MLOAD PUSH2 0x14D6 DUP5 DUP3 PUSH2 0x1466 JUMP JUMPDEST POP PUSH1 0x20 DUP3 ADD MLOAD PUSH2 0x14C0 PUSH1 0x20 DUP6 ADD DUP3 PUSH2 0x1466 JUMP JUMPDEST PUSH1 0x60 DUP3 ADD DUP2 MLOAD PUSH2 0x14F9 DUP5 DUP3 PUSH2 0x1466 JUMP JUMPDEST POP PUSH1 0x20 DUP3 ADD MLOAD PUSH2 0x150C PUSH1 0x20 DUP6 ADD DUP3 PUSH2 0x1466 JUMP JUMPDEST POP PUSH1 0x40 DUP3 ADD MLOAD PUSH2 0x14C0 PUSH1 0x40 DUP6 ADD DUP3 PUSH2 0x1466 JUMP JUMPDEST PUSH2 0x200 DUP3 ADD DUP2 MLOAD PUSH2 0x1530 DUP5 DUP3 PUSH2 0x14C6 JUMP JUMPDEST POP PUSH1 0x20 DUP3 ADD MLOAD PUSH2 0x1543 PUSH1 0x40 DUP6 ADD DUP3 PUSH2 0x14C6 JUMP JUMPDEST POP PUSH1 0x40 DUP3 ADD MLOAD PUSH2 0x1556 PUSH1 0x80 DUP6 ADD DUP3 PUSH2 0x14C6 JUMP JUMPDEST POP PUSH1 0x60 DUP3 ADD MLOAD PUSH2 0x1569 PUSH1 0xC0 DUP6 ADD DUP3 PUSH2 0x1663 JUMP JUMPDEST POP PUSH1 0x80 DUP3 ADD MLOAD PUSH2 0x157D PUSH2 0x100 DUP6 ADD DUP3 PUSH2 0x1478 JUMP JUMPDEST POP PUSH1 0xA0 DUP3 ADD MLOAD PUSH2 0x1591 PUSH2 0x120 DUP6 ADD DUP3 PUSH2 0x1481 JUMP JUMPDEST POP PUSH1 0xC0 DUP3 ADD MLOAD PUSH2 0x15A5 PUSH2 0x140 DUP6 ADD DUP3 PUSH2 0x14C6 JUMP JUMPDEST POP PUSH1 0xE0 DUP3 ADD MLOAD PUSH2 0x15B9 PUSH2 0x180 DUP6 ADD DUP3 PUSH2 0x14C6 JUMP JUMPDEST POP PUSH2 0x100 DUP3 ADD MLOAD PUSH2 0x14C0 PUSH2 0x1C0 DUP6 ADD DUP3 PUSH2 0x14C6 JUMP JUMPDEST PUSH2 0x1C0 DUP3 ADD DUP2 MLOAD PUSH2 0x15DF DUP5 DUP3 PUSH2 0x144E JUMP JUMPDEST POP PUSH1 0x20 DUP3 ADD MLOAD PUSH2 0x15F2 PUSH1 0x20 DUP6 ADD DUP3 PUSH2 0x1640 JUMP JUMPDEST POP PUSH1 0x40 DUP3 ADD MLOAD PUSH2 0x1605 PUSH1 0x60 DUP6 ADD DUP3 PUSH2 0x14E9 JUMP JUMPDEST POP PUSH1 0x60 DUP3 ADD MLOAD PUSH2 0x1618 PUSH1 0xC0 DUP6 ADD DUP3 PUSH2 0x14E9 JUMP JUMPDEST POP PUSH1 0x80 DUP3 ADD MLOAD PUSH2 0x162C PUSH2 0x120 DUP6 ADD DUP3 PUSH2 0x14E9 JUMP JUMPDEST POP PUSH1 0xA0 DUP3 ADD MLOAD PUSH2 0x14C0 PUSH2 0x180 DUP6 ADD DUP3 PUSH2 0x14C6 JUMP JUMPDEST PUSH1 0x40 DUP3 ADD DUP2 MLOAD PUSH2 0x1650 DUP5 DUP3 PUSH2 0x146F JUMP JUMPDEST POP PUSH1 0x20 DUP3 ADD MLOAD PUSH2 0x14C0 PUSH1 0x20 DUP6 ADD DUP3 PUSH2 0x146F JUMP JUMPDEST PUSH1 0x40 DUP3 ADD DUP2 MLOAD PUSH2 0x1673 DUP5 DUP3 PUSH2 0x145D JUMP JUMPDEST POP PUSH1 0x20 DUP3 ADD MLOAD PUSH2 0x14C0 PUSH1 0x20 DUP6 ADD DUP3 PUSH2 0x145D JUMP JUMPDEST PUSH1 0x20 DUP2 ADD PUSH2 0xF3B DUP3 DUP5 PUSH2 0x144E JUMP JUMPDEST PUSH1 0xC0 DUP2 ADD PUSH2 0xF3B DUP3 DUP5 PUSH2 0x148A JUMP JUMPDEST PUSH2 0x200 DUP2 ADD PUSH2 0xF3B DUP3 DUP5 PUSH2 0x151F JUMP JUMPDEST PUSH2 0x1C0 DUP2 ADD PUSH2 0xF3B DUP3 DUP5 PUSH2 0x15CE JUMP JUMPDEST PUSH1 0x0 PUSH2 0xF3B DUP3 PUSH2 0x16F2 JUMP JUMPDEST ISZERO ISZERO SWAP1 JUMP JUMPDEST SWAP1 JUMP JUMPDEST PUSH1 0x0 PUSH2 0xF3B DUP3 PUSH2 0x16C0 JUMP JUMPDEST DUP1 PUSH2 0x562 DUP2 PUSH2 0x1714 JUMP JUMPDEST DUP1 PUSH2 0x562 DUP2 PUSH2 0x1721 JUMP JUMPDEST PUSH1 0x1 PUSH1 0x1 PUSH1 0xA0 SHL SUB AND SWAP1 JUMP JUMPDEST PUSH1 0x0 PUSH2 0xF3B DUP3 PUSH2 0x16DE JUMP JUMPDEST PUSH1 0x0 PUSH2 0xF3B DUP3 PUSH2 0x16E8 JUMP JUMPDEST PUSH1 0x4 DUP2 LT PUSH2 0x171E JUMPI INVALID JUMPDEST POP JUMP JUMPDEST PUSH1 0x2 DUP2 LT PUSH2 0x171E JUMPI INVALID JUMPDEST PUSH2 0x1734 DUP2 PUSH2 0x16C0 JUMP JUMPDEST DUP2 EQ PUSH2 0x171E JUMPI PUSH1 0x0 DUP1 PUSH2 0x105A PUSH2 0xF41 JUMP JUMPDEST PUSH2 0x1734 DUP2 PUSH2 0x16CB JUMP JUMPDEST PUSH2 0x1734 DUP2 PUSH2 0x16D0 JUMP JUMPDEST PUSH2 0x1734 DUP2 PUSH2 0x16D3 JUMP JUMPDEST PUSH1 0x4 DUP2 LT PUSH2 0x171E JUMPI PUSH1 0x0 DUP1 PUSH2 0x105A PUSH2 0xF41 JUMP JUMPDEST PUSH1 0x2 DUP2 LT PUSH2 0x171E JUMPI PUSH1 0x0 DUP1 PUSH2 0x105A PUSH2 0xF41 JUMP "
		},
		"deployedBytecode": {
			"linkReferences": {},
			"object": "608060405234801561001957600080610016610f41565b50505b506004361061004a5760003560e01c80631216fc7b14610058578063a30c302d14610081578063dca5f5c3146100a1575b600080610055610f41565b50505b61006b6100663660046112fd565b6100c1565b60405161007891906116b1565b60405180910390f35b61009461008f3660046112fd565b610567565b60405161007891906116a2565b6100b46100af366004611324565b610ce3565b6040516100789190611694565b6100c9610fac565b600080836001600160a01b0316631069143a6040518163ffffffff1660e01b8152600401604080518083038186806100ff610fff565b15801561011457600080610111610f41565b50505b505a61011e61105f565b505050505015801561013d573d6000803e3d600061013a610f41565b50505b50505050604051601f3d908101601f191682016040526101609190810190611367565b915091506000806000866001600160a01b0316639e3b34bf6040518163ffffffff1660e01b8152600401606060405180830381868061019d610fff565b1580156101b2576000806101af610f41565b50505b505a6101bc61105f565b50505050501580156101db573d6000803e3d60006101d8610f41565b50505b50505050604051601f3d908101601f191682016040526101fe91908101906112a7565b9250925092506000806000896001600160a01b03166398508ecd6040518163ffffffff1660e01b8152600401606060405180830381868061023d610fff565b1580156102525760008061024f610f41565b50505b505a61025c61105f565b505050505015801561027b573d6000803e3d6000610278610f41565b50505b50505050604051601f3d908101601f1916820160405261029e91908101906112a7565b92509250925060008060008c6001600160a01b0316639af1d35a6040518163ffffffff1660e01b815260040160606040518083038186806102dd610fff565b1580156102f2576000806102ef610f41565b50505b505a6102fc61105f565b505050505015801561031b573d6000803e3d6000610318610f41565b50505b50505050604051601f3d908101601f1916820160405261033e91908101906112a7565b92509250925061034c610fac565b6040518060c001604052808f6001600160a01b03166302d05d3f6040518163ffffffff1660e01b8152600401602060405180830381868061038b610fff565b1580156103a05760008061039d610f41565b50505b505a6103aa61105f565b50505050501580156103c9573d6000803e3d60006103c6610f41565b50505b50505050604051601f3d908101601f191682016040526103ec9190810190611251565b6001600160a01b0316815260200160405180604001604052808f6001600160a01b031681526020018e6001600160a01b0316815250815260200160405180606001604052808d81526020018c81526020018b815250815260200160405180606001604052808a81526020018981526020018881525081526020016040518060600160405280878152602001868152602001858152508152602001604051806040016040528060008152602001600081525081525090506000808f6001600160a01b031663be5af9fe6040518163ffffffff1660e01b8152600401604080518083038186806104d8610fff565b1580156104ed576000806104ea610f41565b50505b505a6104f761105f565b5050505050158015610516573d6000803e3d6000610513610f41565b50505b50505050604051601f3d908101601f191682016040526105399190810190611415565b9150915060405160408082019052918252602082015260a08201529b5050505050505050505050505b919050565b61056f611118565b600080836001600160a01b031663c7a5bdc86040518163ffffffff1660e01b8152600401604080518083038186806105a5610fff565b1580156105ba576000806105b7610f41565b50505b505a6105c461105f565b50505050501580156105e3573d6000803e3d60006105e0610f41565b50505b50505050604051601f3d908101601f191682016040526106069190810190611415565b91509150600080856001600160a01b0316633d7a783b6040518163ffffffff1660e01b815260040160408051808303818680610640610fff565b15801561065557600080610652610f41565b50505b505a61065f61105f565b505050505015801561067e573d6000803e3d600061067b610f41565b50505b50505050604051601f3d908101601f191682016040526106a19190810190611415565b91509150600080876001600160a01b031663d068cdc56040518163ffffffff1660e01b8152600401604080518083038186806106db610fff565b1580156106f0576000806106ed610f41565b50505b505a6106fa61105f565b5050505050158015610719573d6000803e3d6000610716610f41565b50505b50505050604051601f3d908101601f1916820160405261073c9190810190611415565b91509150600080896001600160a01b0316638b0341366040518163ffffffff1660e01b815260040160408051808303818680610776610fff565b15801561078b57600080610788610f41565b50505b505a61079561105f565b50505050501580156107b4573d6000803e3d60006107b1610f41565b50505b50505050604051601f3d908101601f191682016040526107d79190810190611415565b915091506000808b6001600160a01b031663d3419bf36040518163ffffffff1660e01b815260040160408051808303818680610811610fff565b15801561082657600080610823610f41565b50505b505a61083061105f565b505050505015801561084f573d6000803e3d600061084c610f41565b50505b50505050604051601f3d908101601f191682016040526108729190810190611415565b9150915060405180610120016040528060405180604001604052808d81526020018c8152508152602001604051806040016040528085815260200184815250815260200160405180604001604052808f6001600160a01b031663eef49ee36040518163ffffffff1660e01b815260040160206040518083038186806108f5610fff565b15801561090a57600080610907610f41565b50505b505a61091461105f565b5050505050158015610933573d6000803e3d6000610930610f41565b50505b50505050604051601f3d908101601f1916820160405261095691908101906113ee565b81526020018f6001600160a01b0316632115e3036040518163ffffffff1660e01b8152600401602060405180830381868061098f610fff565b1580156109a4576000806109a1610f41565b50505b505a6109ae61105f565b50505050501580156109cd573d6000803e3d60006109ca610f41565b50505b50505050604051601f3d908101601f191682016040526109f091908101906113ee565b9052815260200160405180604001604052808f6001600160a01b0316633f6fa6556040518163ffffffff1660e01b81526004016020604051808303818680610a36610fff565b158015610a4b57600080610a48610f41565b50505b505a610a5561105f565b5050505050158015610a74573d6000803e3d6000610a71610f41565b50505b50505050604051601f3d908101601f19168201604052610a979190810190611280565b151581526020018f6001600160a01b031663ac3791e36040518163ffffffff1660e01b81526004016020604051808303818680610ad2610fff565b158015610ae757600080610ae4610f41565b50505b505a610af161105f565b5050505050158015610b10573d6000803e3d6000610b0d610f41565b50505b50505050604051601f3d908101601f19168201604052610b339190810190611280565b1515905281526020016001600160a01b038e1663b1c9fe6e6040518163ffffffff1660e01b81526004016020604051808303818680610b70610fff565b158015610b8557600080610b82610f41565b50505b505a610b8f61105f565b5050505050158015610bae573d6000803e3d6000610bab610f41565b50505b50505050604051601f3d908101601f19168201604052610bd191908101906113a0565b6003811115610bdc57fe5b81526020018d6001600160a01b031663653721476040518163ffffffff1660e01b81526004016020604051808303818680610c15610fff565b158015610c2a57600080610c27610f41565b50505b505a610c3461105f565b5050505050158015610c53573d6000803e3d6000610c50610f41565b50505b50505050604051601f3d908101601f19168201604052610c7691908101906113c7565b6001811115610c8157fe5b8152602001604051806040016040528087815260200186815250815260200160405180604001604052808b81526020018a81525081526020016040518060400160405280898152602001888152508152509a5050505050505050505050919050565b610ceb61117b565b600080846001600160a01b03166329e77b5d856040518263ffffffff1660e01b8152600401610d1a9190611686565b60408051808303818680610d2c610fff565b158015610d4157600080610d3e610f41565b50505b505a610d4b61105f565b5050505050158015610d6a573d6000803e3d6000610d67610f41565b50505b50505050604051601f3d908101601f19168201604052610d8d9190810190611415565b91509150600080866001600160a01b031663408e82af876040518263ffffffff1660e01b8152600401610dc09190611686565b60408051808303818680610dd2610fff565b158015610de757600080610de4610f41565b50505b505a610df161105f565b5050505050158015610e10573d6000803e3d6000610e0d610f41565b50505b50505050604051601f3d908101601f19168201604052610e339190810190611415565b91509150600080886001600160a01b0316636392a51f896040518263ffffffff1660e01b8152600401610e669190611686565b60408051808303818680610e78610fff565b158015610e8d57600080610e8a610f41565b50505b505a610e9761105f565b5050505050158015610eb6573d6000803e3d6000610eb3610f41565b50505b50505050604051601f3d908101601f19168201604052610ed99190810190611415565b915091506040518060600160405280604051806040016040528089815260200188815250815260200160405180604001604052808781526020018681525081526020016040516040808201905293845260208401929092529190529450505050505b92915050565b632a2a7adb598160e01b8152600481016020815285602082015260005b86811015610f79578086015182820160400152602001610f5e565b506020828760640184336000905af158601d01573d60011458600c01573d6000803e3d621234565260ea61109c52505050565b60405160c081016040526000815260208101610fc661118a565b8152602001610fd36111a1565b8152602001610fe06111c2565b8152602001610fed6111a1565b8152602001610ffa61118a565b905290565b638435035b598160e01b8152836004820152602081602483336000905af158601d01573d60011458600c01573d6000803e3d621234565260ea61109c528051935060005b604081101561105a57600082820152602001611043565b505050565b638540661f598160e01b8152836004820152846024820152606060448201528660648201526084810160005b888110156110a357808801518282015260200161108b565b50876101040182016060838a6101040185336000905af158601d01573d60011458600c01573d6000803e3d621234565260ea61109c52825160408401513d6000863e8c8c82606088013350600060045af15059855b8181101561110c57600081526020016110f8565b50919c50505050505050565b60405180610120016040528061112c61118a565b815260200161113961118a565b815260200161114661118a565b815260200161115361118a565b8152602001600081526020016000815260200161116e61118a565b8152602001610fed61118a565b604051806060016040528061116e5b604051604080820190526000808252602082015290565b60405180606001604052806000815260200160008152602001600081525090565b6040516060810160409081526000808352602083018190529082015290565b8035610f3b8161172b565b600081519050610f3b8161172b565b600081519050610f3b81611745565b600081519050610f3b8161174e565b8035610f3b81611757565b600081519050610f3b81611757565b600081519050610f3b81611760565b600081519050610f3b81611773565b60006020828403121561126c57600080611269610f41565b50505b600061127884846111ec565b949350505050565b60006020828403121561129b57600080611298610f41565b50505b600061127884846111fb565b6000806000606084860312156112c5576000806112c2610f41565b50505b60006112d1868661120a565b93505060206112e28682870161120a565b92505060406112f38682870161120a565b9150509250925092565b60006020828403121561131857600080611315610f41565b50505b60006112788484611219565b600080604083850312156113405760008061133d610f41565b50505b600061134c8585611219565b925050602061135d858286016111e1565b9150509250929050565b6000806040838503121561138357600080611380610f41565b50505b600061138f8585611224565b925050602061135d85828601611224565b6000602082840312156113bb576000806113b8610f41565b50505b60006112788484611233565b6000602082840312156113e2576000806113df610f41565b50505b60006112788484611242565b60006020828403121561140957600080611406610f41565b50505b6000611278848461120a565b600080604083850312156114315760008061142e610f41565b50505b600061143d858561120a565b925050602061135d8582860161120a565b611457816116c0565b82525050565b611457816116cb565b611457816116d0565b611457816116d3565b611457816116fe565b61145781611709565b60c08201815161149a84826114c6565b5060208201516114ad60408501826114c6565b5060408201516114c060808501826114c6565b50505050565b6040820181516114d68482611466565b5060208201516114c06020850182611466565b6060820181516114f98482611466565b50602082015161150c6020850182611466565b5060408201516114c06040850182611466565b6102008201815161153084826114c6565b50602082015161154360408501826114c6565b50604082015161155660808501826114c6565b50606082015161156960c0850182611663565b50608082015161157d610100850182611478565b5060a0820151611591610120850182611481565b5060c08201516115a56101408501826114c6565b5060e08201516115b96101808501826114c6565b506101008201516114c06101c08501826114c6565b6101c0820181516115df848261144e565b5060208201516115f26020850182611640565b50604082015161160560608501826114e9565b50606082015161161860c08501826114e9565b50608082015161162c6101208501826114e9565b5060a08201516114c06101808501826114c6565b604082018151611650848261146f565b5060208201516114c0602085018261146f565b604082018151611673848261145d565b5060208201516114c0602085018261145d565b60208101610f3b828461144e565b60c08101610f3b828461148a565b6102008101610f3b828461151f565b6101c08101610f3b82846115ce565b6000610f3b826116f2565b151590565b90565b6000610f3b826116c0565b8061056281611714565b8061056281611721565b6001600160a01b031690565b6000610f3b826116de565b6000610f3b826116e8565b6004811061171e57fe5b50565b6002811061171e57fe5b611734816116c0565b811461171e5760008061105a610f41565b611734816116cb565b611734816116d0565b611734816116d3565b6004811061171e5760008061105a610f41565b6002811061171e5760008061105a610f4156",
			"opcodes": "PUSH1 0x80 PUSH1 0x40 MSTORE CALLVALUE DUP1 ISZERO PUSH2 0x19 JUMPI PUSH1 0x0 DUP1 PUSH2 0x16 PUSH2 0xF41 JUMP JUMPDEST POP POP JUMPDEST POP PUSH1 0x4 CALLDATASIZE LT PUSH2 0x4A JUMPI PUSH1 0x0 CALLDATALOAD PUSH1 0xE0 SHR DUP1 PUSH4 0x1216FC7B EQ PUSH2 0x58 JUMPI DUP1 PUSH4 0xA30C302D EQ PUSH2 0x81 JUMPI DUP1 PUSH4 0xDCA5F5C3 EQ PUSH2 0xA1 JUMPI JUMPDEST PUSH1 0x0 DUP1 PUSH2 0x55 PUSH2 0xF41 JUMP JUMPDEST POP POP JUMPDEST PUSH2 0x6B PUSH2 0x66 CALLDATASIZE PUSH1 0x4 PUSH2 0x12FD JUMP JUMPDEST PUSH2 0xC1 JUMP JUMPDEST PUSH1 0x40 MLOAD PUSH2 0x78 SWAP2 SWAP1 PUSH2 0x16B1 JUMP JUMPDEST PUSH1 0x40 MLOAD DUP1 SWAP2 SUB SWAP1 RETURN JUMPDEST PUSH2 0x94 PUSH2 0x8F CALLDATASIZE PUSH1 0x4 PUSH2 0x12FD JUMP JUMPDEST PUSH2 0x567 JUMP JUMPDEST PUSH1 0x40 MLOAD PUSH2 0x78 SWAP2 SWAP1 PUSH2 0x16A2 JUMP JUMPDEST PUSH2 0xB4 PUSH2 0xAF CALLDATASIZE PUSH1 0x4 PUSH2 0x1324 JUMP JUMPDEST PUSH2 0xCE3 JUMP JUMPDEST PUSH1 0x40 MLOAD PUSH2 0x78 SWAP2 SWAP1 PUSH2 0x1694 JUMP JUMPDEST PUSH2 0xC9 PUSH2 0xFAC JUMP JUMPDEST PUSH1 0x0 DUP1 DUP4 PUSH1 0x1 PUSH1 0x1 PUSH1 0xA0 SHL SUB AND PUSH4 0x1069143A PUSH1 0x40 MLOAD DUP2 PUSH4 0xFFFFFFFF AND PUSH1 0xE0 SHL DUP2 MSTORE PUSH1 0x4 ADD PUSH1 0x40 DUP1 MLOAD DUP1 DUP4 SUB DUP2 DUP7 DUP1 PUSH2 0xFF PUSH2 0xFFF JUMP JUMPDEST ISZERO DUP1 ISZERO PUSH2 0x114 JUMPI PUSH1 0x0 DUP1 PUSH2 0x111 PUSH2 0xF41 JUMP JUMPDEST POP POP JUMPDEST POP GAS PUSH2 0x11E PUSH2 0x105F JUMP JUMPDEST POP POP POP POP POP ISZERO DUP1 ISZERO PUSH2 0x13D JUMPI RETURNDATASIZE PUSH1 0x0 DUP1 RETURNDATACOPY RETURNDATASIZE PUSH1 0x0 PUSH2 0x13A PUSH2 0xF41 JUMP JUMPDEST POP POP JUMPDEST POP POP POP POP PUSH1 0x40 MLOAD PUSH1 0x1F RETURNDATASIZE SWAP1 DUP2 ADD PUSH1 0x1F NOT AND DUP3 ADD PUSH1 0x40 MSTORE PUSH2 0x160 SWAP2 SWAP1 DUP2 ADD SWAP1 PUSH2 0x1367 JUMP JUMPDEST SWAP2 POP SWAP2 POP PUSH1 0x0 DUP1 PUSH1 0x0 DUP7 PUSH1 0x1 PUSH1 0x1 PUSH1 0xA0 SHL SUB AND PUSH4 0x9E3B34BF PUSH1 0x40 MLOAD DUP2 PUSH4 0xFFFFFFFF AND PUSH1 0xE0 SHL DUP2 MSTORE PUSH1 0x4 ADD PUSH1 0x60 PUSH1 0x40 MLOAD DUP1 DUP4 SUB DUP2 DUP7 DUP1 PUSH2 0x19D PUSH2 0xFFF JUMP JUMPDEST ISZERO DUP1 ISZERO PUSH2 0x1B2 JUMPI PUSH1 0x0 DUP1 PUSH2 0x1AF PUSH2 0xF41 JUMP JUMPDEST POP POP JUMPDEST POP GAS PUSH2 0x1BC PUSH2 0x105F JUMP JUMPDEST POP POP POP POP POP ISZERO DUP1 ISZERO PUSH2 0x1DB JUMPI RETURNDATASIZE PUSH1 0x0 DUP1 RETURNDATACOPY RETURNDATASIZE PUSH1 0x0 PUSH2 0x1D8 PUSH2 0xF41 JUMP JUMPDEST POP POP JUMPDEST POP POP POP POP PUSH1 0x40 MLOAD PUSH1 0x1F RETURNDATASIZE SWAP1 DUP2 ADD PUSH1 0x1F NOT AND DUP3 ADD PUSH1 0x40 MSTORE PUSH2 0x1FE SWAP2 SWAP1 DUP2 ADD SWAP1 PUSH2 0x12A7 JUMP JUMPDEST SWAP3 POP SWAP3 POP SWAP3 POP PUSH1 0x0 DUP1 PUSH1 0x0 DUP10 PUSH1 0x1 PUSH1 0x1 PUSH1 0xA0 SHL SUB AND PUSH4 0x98508ECD PUSH1 0x40 MLOAD DUP2 PUSH4 0xFFFFFFFF AND PUSH1 0xE0 SHL DUP2 MSTORE PUSH1 0x4 ADD PUSH1 0x60 PUSH1 0x40 MLOAD DUP1 DUP4 SUB DUP2 DUP7 DUP1 PUSH2 0x23D PUSH2 0xFFF JUMP JUMPDEST ISZERO DUP1 ISZERO PUSH2 0x252 JUMPI PUSH1 0x0 DUP1 PUSH2 0x24F PUSH2 0xF41 JUMP JUMPDEST POP POP JUMPDEST POP GAS PUSH2 0x25C PUSH2 0x105F JUMP JUMPDEST POP POP POP POP POP ISZERO DUP1 ISZERO PUSH2 0x27B JUMPI RETURNDATASIZE PUSH1 0x0 DUP1 RETURNDATACOPY RETURNDATASIZE PUSH1 0x0 PUSH2 0x278 PUSH2 0xF41 JUMP JUMPDEST POP POP JUMPDEST POP POP POP POP PUSH1 0x40 MLOAD PUSH1 0x1F RETURNDATASIZE SWAP1 DUP2 ADD PUSH1 0x1F NOT AND DUP3 ADD PUSH1 0x40 MSTORE PUSH2 0x29E SWAP2 SWAP1 DUP2 ADD SWAP1 PUSH2 0x12A7 JUMP JUMPDEST SWAP3 POP SWAP3 POP SWAP3 POP PUSH1 0x0 DUP1 PUSH1 0x0 DUP13 PUSH1 0x1 PUSH1 0x1 PUSH1 0xA0 SHL SUB AND PUSH4 0x9AF1D35A PUSH1 0x40 MLOAD DUP2 PUSH4 0xFFFFFFFF AND PUSH1 0xE0 SHL DUP2 MSTORE PUSH1 0x4 ADD PUSH1 0x60 PUSH1 0x40 MLOAD DUP1 DUP4 SUB DUP2 DUP7 DUP1 PUSH2 0x2DD PUSH2 0xFFF JUMP JUMPDEST ISZERO DUP1 ISZERO PUSH2 0x2F2 JUMPI PUSH1 0x0 DUP1 PUSH2 0x2EF PUSH2 0xF41 JUMP JUMPDEST POP POP JUMPDEST POP GAS PUSH2 0x2FC PUSH2 0x105F JUMP JUMPDEST POP POP POP POP POP ISZERO DUP1 ISZERO PUSH2 0x31B JUMPI RETURNDATASIZE PUSH1 0x0 DUP1 RETURNDATACOPY RETURNDATASIZE PUSH1 0x0 PUSH2 0x318 PUSH2 0xF41 JUMP JUMPDEST POP POP JUMPDEST POP POP POP POP PUSH1 0x40 MLOAD PUSH1 0x1F RETURNDATASIZE SWAP1 DUP2 ADD PUSH1 0x1F NOT AND DUP3 ADD PUSH1 0x40 MSTORE PUSH2 0x33E SWAP2 SWAP1 DUP2 ADD SWAP1 PUSH2 0x12A7 JUMP JUMPDEST SWAP3 POP SWAP3 POP SWAP3 POP PUSH2 0x34C PUSH2 0xFAC JUMP JUMPDEST PUSH1 0x40 MLOAD DUP1 PUSH1 0xC0 ADD PUSH1 0x40 MSTORE DUP1 DUP16 PUSH1 0x1 PUSH1 0x1 PUSH1 0xA0 SHL SUB AND PUSH4 0x2D05D3F PUSH1 0x40 MLOAD DUP2 PUSH4 0xFFFFFFFF AND PUSH1 0xE0 SHL DUP2 MSTORE PUSH1 0x4 ADD PUSH1 0x20 PUSH1 0x40 MLOAD DUP1 DUP4 SUB DUP2 DUP7 DUP1 PUSH2 0x38B PUSH2 0xFFF JUMP JUMPDEST ISZERO DUP1 ISZERO PUSH2 0x3A0 JUMPI PUSH1 0x0 DUP1 PUSH2 0x39D PUSH2 0xF41 JUMP JUMPDEST POP POP JUMPDEST POP GAS PUSH2 0x3AA PUSH2 0x105F JUMP JUMPDEST POP POP POP POP POP ISZERO DUP1 ISZERO PUSH2 0x3C9 JUMPI RETURNDATASIZE PUSH1 0x0 DUP1 RETURNDATACOPY RETURNDATASIZE PUSH1 0x0 PUSH2 0x3C6 PUSH2 0xF41 JUMP JUMPDEST POP POP JUMPDEST POP POP POP POP PUSH1 0x40 MLOAD PUSH1 0x1F RETURNDATASIZE SWAP1 DUP2 ADD PUSH1 0x1F NOT AND DUP3 ADD PUSH1 0x40 MSTORE PUSH2 0x3EC SWAP2 SWAP1 DUP2 ADD SWAP1 PUSH2 0x1251 JUMP JUMPDEST PUSH1 0x1 PUSH1 0x1 PUSH1 0xA0 SHL SUB AND DUP2 MSTORE PUSH1 0x20 ADD PUSH1 0x40 MLOAD DUP1 PUSH1 0x40 ADD PUSH1 0x40 MSTORE DUP1 DUP16 PUSH1 0x1 PUSH1 0x1 PUSH1 0xA0 SHL SUB AND DUP2 MSTORE PUSH1 0x20 ADD DUP15 PUSH1 0x1 PUSH1 0x1 PUSH1 0xA0 SHL SUB AND DUP2 MSTORE POP DUP2 MSTORE PUSH1 0x20 ADD PUSH1 0x40 MLOAD DUP1 PUSH1 0x60 ADD PUSH1 0x40 MSTORE DUP1 DUP14 DUP2 MSTORE PUSH1 0x20 ADD DUP13 DUP2 MSTORE PUSH1 0x20 ADD DUP12 DUP2 MSTORE POP DUP2 MSTORE PUSH1 0x20 ADD PUSH1 0x40 MLOAD DUP1 PUSH1 0x60 ADD PUSH1 0x40 MSTORE DUP1 DUP11 DUP2 MSTORE PUSH1 0x20 ADD DUP10 DUP2 MSTORE PUSH1 0x20 ADD DUP9 DUP2 MSTORE POP DUP2 MSTORE PUSH1 0x20 ADD PUSH1 0x40 MLOAD DUP1 PUSH1 0x60 ADD PUSH1 0x40 MSTORE DUP1 DUP8 DUP2 MSTORE PUSH1 0x20 ADD DUP7 DUP2 MSTORE PUSH1 0x20 ADD DUP6 DUP2 MSTORE POP DUP2 MSTORE PUSH1 0x20 ADD PUSH1 0x40 MLOAD DUP1 PUSH1 0x40 ADD PUSH1 0x40 MSTORE DUP1 PUSH1 0x0 DUP2 MSTORE PUSH1 0x20 ADD PUSH1 0x0 DUP2 MSTORE POP DUP2 MSTORE POP SWAP1 POP PUSH1 0x0 DUP1 DUP16 PUSH1 0x1 PUSH1 0x1 PUSH1 0xA0 SHL SUB AND PUSH4 0xBE5AF9FE PUSH1 0x40 MLOAD DUP2 PUSH4 0xFFFFFFFF AND PUSH1 0xE0 SHL DUP2 MSTORE PUSH1 0x4 ADD PUSH1 0x40 DUP1 MLOAD DUP1 DUP4 SUB DUP2 DUP7 DUP1 PUSH2 0x4D8 PUSH2 0xFFF JUMP JUMPDEST ISZERO DUP1 ISZERO PUSH2 0x4ED JUMPI PUSH1 0x0 DUP1 PUSH2 0x4EA PUSH2 0xF41 JUMP JUMPDEST POP POP JUMPDEST POP GAS PUSH2 0x4F7 PUSH2 0x105F JUMP JUMPDEST POP POP POP POP POP ISZERO DUP1 ISZERO PUSH2 0x516 JUMPI RETURNDATASIZE PUSH1 0x0 DUP1 RETURNDATACOPY RETURNDATASIZE PUSH1 0x0 PUSH2 0x513 PUSH2 0xF41 JUMP JUMPDEST POP POP JUMPDEST POP POP POP POP PUSH1 0x40 MLOAD PUSH1 0x1F RETURNDATASIZE SWAP1 DUP2 ADD PUSH1 0x1F NOT AND DUP3 ADD PUSH1 0x40 MSTORE PUSH2 0x539 SWAP2 SWAP1 DUP2 ADD SWAP1 PUSH2 0x1415 JUMP JUMPDEST SWAP2 POP SWAP2 POP PUSH1 0x40 MLOAD PUSH1 0x40 DUP1 DUP3 ADD SWAP1 MSTORE SWAP2 DUP3 MSTORE PUSH1 0x20 DUP3 ADD MSTORE PUSH1 0xA0 DUP3 ADD MSTORE SWAP12 POP POP POP POP POP POP POP POP POP POP POP POP JUMPDEST SWAP2 SWAP1 POP JUMP JUMPDEST PUSH2 0x56F PUSH2 0x1118 JUMP JUMPDEST PUSH1 0x0 DUP1 DUP4 PUSH1 0x1 PUSH1 0x1 PUSH1 0xA0 SHL SUB AND PUSH4 0xC7A5BDC8 PUSH1 0x40 MLOAD DUP2 PUSH4 0xFFFFFFFF AND PUSH1 0xE0 SHL DUP2 MSTORE PUSH1 0x4 ADD PUSH1 0x40 DUP1 MLOAD DUP1 DUP4 SUB DUP2 DUP7 DUP1 PUSH2 0x5A5 PUSH2 0xFFF JUMP JUMPDEST ISZERO DUP1 ISZERO PUSH2 0x5BA JUMPI PUSH1 0x0 DUP1 PUSH2 0x5B7 PUSH2 0xF41 JUMP JUMPDEST POP POP JUMPDEST POP GAS PUSH2 0x5C4 PUSH2 0x105F JUMP JUMPDEST POP POP POP POP POP ISZERO DUP1 ISZERO PUSH2 0x5E3 JUMPI RETURNDATASIZE PUSH1 0x0 DUP1 RETURNDATACOPY RETURNDATASIZE PUSH1 0x0 PUSH2 0x5E0 PUSH2 0xF41 JUMP JUMPDEST POP POP JUMPDEST POP POP POP POP PUSH1 0x40 MLOAD PUSH1 0x1F RETURNDATASIZE SWAP1 DUP2 ADD PUSH1 0x1F NOT AND DUP3 ADD PUSH1 0x40 MSTORE PUSH2 0x606 SWAP2 SWAP1 DUP2 ADD SWAP1 PUSH2 0x1415 JUMP JUMPDEST SWAP2 POP SWAP2 POP PUSH1 0x0 DUP1 DUP6 PUSH1 0x1 PUSH1 0x1 PUSH1 0xA0 SHL SUB AND PUSH4 0x3D7A783B PUSH1 0x40 MLOAD DUP2 PUSH4 0xFFFFFFFF AND PUSH1 0xE0 SHL DUP2 MSTORE PUSH1 0x4 ADD PUSH1 0x40 DUP1 MLOAD DUP1 DUP4 SUB DUP2 DUP7 DUP1 PUSH2 0x640 PUSH2 0xFFF JUMP JUMPDEST ISZERO DUP1 ISZERO PUSH2 0x655 JUMPI PUSH1 0x0 DUP1 PUSH2 0x652 PUSH2 0xF41 JUMP JUMPDEST POP POP JUMPDEST POP GAS PUSH2 0x65F PUSH2 0x105F JUMP JUMPDEST POP POP POP POP POP ISZERO DUP1 ISZERO PUSH2 0x67E JUMPI RETURNDATASIZE PUSH1 0x0 DUP1 RETURNDATACOPY RETURNDATASIZE PUSH1 0x0 PUSH2 0x67B PUSH2 0xF41 JUMP JUMPDEST POP POP JUMPDEST POP POP POP POP PUSH1 0x40 MLOAD PUSH1 0x1F RETURNDATASIZE SWAP1 DUP2 ADD PUSH1 0x1F NOT AND DUP3 ADD PUSH1 0x40 MSTORE PUSH2 0x6A1 SWAP2 SWAP1 DUP2 ADD SWAP1 PUSH2 0x1415 JUMP JUMPDEST SWAP2 POP SWAP2 POP PUSH1 0x0 DUP1 DUP8 PUSH1 0x1 PUSH1 0x1 PUSH1 0xA0 SHL SUB AND PUSH4 0xD068CDC5 PUSH1 0x40 MLOAD DUP2 PUSH4 0xFFFFFFFF AND PUSH1 0xE0 SHL DUP2 MSTORE PUSH1 0x4 ADD PUSH1 0x40 DUP1 MLOAD DUP1 DUP4 SUB DUP2 DUP7 DUP1 PUSH2 0x6DB PUSH2 0xFFF JUMP JUMPDEST ISZERO DUP1 ISZERO PUSH2 0x6F0 JUMPI PUSH1 0x0 DUP1 PUSH2 0x6ED PUSH2 0xF41 JUMP JUMPDEST POP POP JUMPDEST POP GAS PUSH2 0x6FA PUSH2 0x105F JUMP JUMPDEST POP POP POP POP POP ISZERO DUP1 ISZERO PUSH2 0x719 JUMPI RETURNDATASIZE PUSH1 0x0 DUP1 RETURNDATACOPY RETURNDATASIZE PUSH1 0x0 PUSH2 0x716 PUSH2 0xF41 JUMP JUMPDEST POP POP JUMPDEST POP POP POP POP PUSH1 0x40 MLOAD PUSH1 0x1F RETURNDATASIZE SWAP1 DUP2 ADD PUSH1 0x1F NOT AND DUP3 ADD PUSH1 0x40 MSTORE PUSH2 0x73C SWAP2 SWAP1 DUP2 ADD SWAP1 PUSH2 0x1415 JUMP JUMPDEST SWAP2 POP SWAP2 POP PUSH1 0x0 DUP1 DUP10 PUSH1 0x1 PUSH1 0x1 PUSH1 0xA0 SHL SUB AND PUSH4 0x8B034136 PUSH1 0x40 MLOAD DUP2 PUSH4 0xFFFFFFFF AND PUSH1 0xE0 SHL DUP2 MSTORE PUSH1 0x4 ADD PUSH1 0x40 DUP1 MLOAD DUP1 DUP4 SUB DUP2 DUP7 DUP1 PUSH2 0x776 PUSH2 0xFFF JUMP JUMPDEST ISZERO DUP1 ISZERO PUSH2 0x78B JUMPI PUSH1 0x0 DUP1 PUSH2 0x788 PUSH2 0xF41 JUMP JUMPDEST POP POP JUMPDEST POP GAS PUSH2 0x795 PUSH2 0x105F JUMP JUMPDEST POP POP POP POP POP ISZERO DUP1 ISZERO PUSH2 0x7B4 JUMPI RETURNDATASIZE PUSH1 0x0 DUP1 RETURNDATACOPY RETURNDATASIZE PUSH1 0x0 PUSH2 0x7B1 PUSH2 0xF41 JUMP JUMPDEST POP POP JUMPDEST POP POP POP POP PUSH1 0x40 MLOAD PUSH1 0x1F RETURNDATASIZE SWAP1 DUP2 ADD PUSH1 0x1F NOT AND DUP3 ADD PUSH1 0x40 MSTORE PUSH2 0x7D7 SWAP2 SWAP1 DUP2 ADD SWAP1 PUSH2 0x1415 JUMP JUMPDEST SWAP2 POP SWAP2 POP PUSH1 0x0 DUP1 DUP12 PUSH1 0x1 PUSH1 0x1 PUSH1 0xA0 SHL SUB AND PUSH4 0xD3419BF3 PUSH1 0x40 MLOAD DUP2 PUSH4 0xFFFFFFFF AND PUSH1 0xE0 SHL DUP2 MSTORE PUSH1 0x4 ADD PUSH1 0x40 DUP1 MLOAD DUP1 DUP4 SUB DUP2 DUP7 DUP1 PUSH2 0x811 PUSH2 0xFFF JUMP JUMPDEST ISZERO DUP1 ISZERO PUSH2 0x826 JUMPI PUSH1 0x0 DUP1 PUSH2 0x823 PUSH2 0xF41 JUMP JUMPDEST POP POP JUMPDEST POP GAS PUSH2 0x830 PUSH2 0x105F JUMP JUMPDEST POP POP POP POP POP ISZERO DUP1 ISZERO PUSH2 0x84F JUMPI RETURNDATASIZE PUSH1 0x0 DUP1 RETURNDATACOPY RETURNDATASIZE PUSH1 0x0 PUSH2 0x84C PUSH2 0xF41 JUMP JUMPDEST POP POP JUMPDEST POP POP POP POP PUSH1 0x40 MLOAD PUSH1 0x1F RETURNDATASIZE SWAP1 DUP2 ADD PUSH1 0x1F NOT AND DUP3 ADD PUSH1 0x40 MSTORE PUSH2 0x872 SWAP2 SWAP1 DUP2 ADD SWAP1 PUSH2 0x1415 JUMP JUMPDEST SWAP2 POP SWAP2 POP PUSH1 0x40 MLOAD DUP1 PUSH2 0x120 ADD PUSH1 0x40 MSTORE DUP1 PUSH1 0x40 MLOAD DUP1 PUSH1 0x40 ADD PUSH1 0x40 MSTORE DUP1 DUP14 DUP2 MSTORE PUSH1 0x20 ADD DUP13 DUP2 MSTORE POP DUP2 MSTORE PUSH1 0x20 ADD PUSH1 0x40 MLOAD DUP1 PUSH1 0x40 ADD PUSH1 0x40 MSTORE DUP1 DUP6 DUP2 MSTORE PUSH1 0x20 ADD DUP5 DUP2 MSTORE POP DUP2 MSTORE PUSH1 0x20 ADD PUSH1 0x40 MLOAD DUP1 PUSH1 0x40 ADD PUSH1 0x40 MSTORE DUP1 DUP16 PUSH1 0x1 PUSH1 0x1 PUSH1 0xA0 SHL SUB AND PUSH4 0xEEF49EE3 PUSH1 0x40 MLOAD DUP2 PUSH4 0xFFFFFFFF AND PUSH1 0xE0 SHL DUP2 MSTORE PUSH1 0x4 ADD PUSH1 0x20 PUSH1 0x40 MLOAD DUP1 DUP4 SUB DUP2 DUP7 DUP1 PUSH2 0x8F5 PUSH2 0xFFF JUMP JUMPDEST ISZERO DUP1 ISZERO PUSH2 0x90A JUMPI PUSH1 0x0 DUP1 PUSH2 0x907 PUSH2 0xF41 JUMP JUMPDEST POP POP JUMPDEST POP GAS PUSH2 0x914 PUSH2 0x105F JUMP JUMPDEST POP POP POP POP POP ISZERO DUP1 ISZERO PUSH2 0x933 JUMPI RETURNDATASIZE PUSH1 0x0 DUP1 RETURNDATACOPY RETURNDATASIZE PUSH1 0x0 PUSH2 0x930 PUSH2 0xF41 JUMP JUMPDEST POP POP JUMPDEST POP POP POP POP PUSH1 0x40 MLOAD PUSH1 0x1F RETURNDATASIZE SWAP1 DUP2 ADD PUSH1 0x1F NOT AND DUP3 ADD PUSH1 0x40 MSTORE PUSH2 0x956 SWAP2 SWAP1 DUP2 ADD SWAP1 PUSH2 0x13EE JUMP JUMPDEST DUP2 MSTORE PUSH1 0x20 ADD DUP16 PUSH1 0x1 PUSH1 0x1 PUSH1 0xA0 SHL SUB AND PUSH4 0x2115E303 PUSH1 0x40 MLOAD DUP2 PUSH4 0xFFFFFFFF AND PUSH1 0xE0 SHL DUP2 MSTORE PUSH1 0x4 ADD PUSH1 0x20 PUSH1 0x40 MLOAD DUP1 DUP4 SUB DUP2 DUP7 DUP1 PUSH2 0x98F PUSH2 0xFFF JUMP JUMPDEST ISZERO DUP1 ISZERO PUSH2 0x9A4 JUMPI PUSH1 0x0 DUP1 PUSH2 0x9A1 PUSH2 0xF41 JUMP JUMPDEST POP POP JUMPDEST POP GAS PUSH2 0x9AE PUSH2 0x105F JUMP JUMPDEST POP POP POP POP POP ISZERO DUP1 ISZERO PUSH2 0x9CD JUMPI RETURNDATASIZE PUSH1 0x0 DUP1 RETURNDATACOPY RETURNDATASIZE PUSH1 0x0 PUSH2 0x9CA PUSH2 0xF41 JUMP JUMPDEST POP POP JUMPDEST POP POP POP POP PUSH1 0x40 MLOAD PUSH1 0x1F RETURNDATASIZE SWAP1 DUP2 ADD PUSH1 0x1F NOT AND DUP3 ADD PUSH1 0x40 MSTORE PUSH2 0x9F0 SWAP2 SWAP1 DUP2 ADD SWAP1 PUSH2 0x13EE JUMP JUMPDEST SWAP1 MSTORE DUP2 MSTORE PUSH1 0x20 ADD PUSH1 0x40 MLOAD DUP1 PUSH1 0x40 ADD PUSH1 0x40 MSTORE DUP1 DUP16 PUSH1 0x1 PUSH1 0x1 PUSH1 0xA0 SHL SUB AND PUSH4 0x3F6FA655 PUSH1 0x40 MLOAD DUP2 PUSH4 0xFFFFFFFF AND PUSH1 0xE0 SHL DUP2 MSTORE PUSH1 0x4 ADD PUSH1 0x20 PUSH1 0x40 MLOAD DUP1 DUP4 SUB DUP2 DUP7 DUP1 PUSH2 0xA36 PUSH2 0xFFF JUMP JUMPDEST ISZERO DUP1 ISZERO PUSH2 0xA4B JUMPI PUSH1 0x0 DUP1 PUSH2 0xA48 PUSH2 0xF41 JUMP JUMPDEST POP POP JUMPDEST POP GAS PUSH2 0xA55 PUSH2 0x105F JUMP JUMPDEST POP POP POP POP POP ISZERO DUP1 ISZERO PUSH2 0xA74 JUMPI RETURNDATASIZE PUSH1 0x0 DUP1 RETURNDATACOPY RETURNDATASIZE PUSH1 0x0 PUSH2 0xA71 PUSH2 0xF41 JUMP JUMPDEST POP POP JUMPDEST POP POP POP POP PUSH1 0x40 MLOAD PUSH1 0x1F RETURNDATASIZE SWAP1 DUP2 ADD PUSH1 0x1F NOT AND DUP3 ADD PUSH1 0x40 MSTORE PUSH2 0xA97 SWAP2 SWAP1 DUP2 ADD SWAP1 PUSH2 0x1280 JUMP JUMPDEST ISZERO ISZERO DUP2 MSTORE PUSH1 0x20 ADD DUP16 PUSH1 0x1 PUSH1 0x1 PUSH1 0xA0 SHL SUB AND PUSH4 0xAC3791E3 PUSH1 0x40 MLOAD DUP2 PUSH4 0xFFFFFFFF AND PUSH1 0xE0 SHL DUP2 MSTORE PUSH1 0x4 ADD PUSH1 0x20 PUSH1 0x40 MLOAD DUP1 DUP4 SUB DUP2 DUP7 DUP1 PUSH2 0xAD2 PUSH2 0xFFF JUMP JUMPDEST ISZERO DUP1 ISZERO PUSH2 0xAE7 JUMPI PUSH1 0x0 DUP1 PUSH2 0xAE4 PUSH2 0xF41 JUMP JUMPDEST POP POP JUMPDEST POP GAS PUSH2 0xAF1 PUSH2 0x105F JUMP JUMPDEST POP POP POP POP POP ISZERO DUP1 ISZERO PUSH2 0xB10 JUMPI RETURNDATASIZE PUSH1 0x0 DUP1 RETURNDATACOPY RETURNDATASIZE PUSH1 0x0 PUSH2 0xB0D PUSH2 0xF41 JUMP JUMPDEST POP POP JUMPDEST POP POP POP POP PUSH1 0x40 MLOAD PUSH1 0x1F RETURNDATASIZE SWAP1 DUP2 ADD PUSH1 0x1F NOT AND DUP3 ADD PUSH1 0x40 MSTORE PUSH2 0xB33 SWAP2 SWAP1 DUP2 ADD SWAP1 PUSH2 0x1280 JUMP JUMPDEST ISZERO ISZERO SWAP1 MSTORE DUP2 MSTORE PUSH1 0x20 ADD PUSH1 0x1 PUSH1 0x1 PUSH1 0xA0 SHL SUB DUP15 AND PUSH4 0xB1C9FE6E PUSH1 0x40 MLOAD DUP2 PUSH4 0xFFFFFFFF AND PUSH1 0xE0 SHL DUP2 MSTORE PUSH1 0x4 ADD PUSH1 0x20 PUSH1 0x40 MLOAD DUP1 DUP4 SUB DUP2 DUP7 DUP1 PUSH2 0xB70 PUSH2 0xFFF JUMP JUMPDEST ISZERO DUP1 ISZERO PUSH2 0xB85 JUMPI PUSH1 0x0 DUP1 PUSH2 0xB82 PUSH2 0xF41 JUMP JUMPDEST POP POP JUMPDEST POP GAS PUSH2 0xB8F PUSH2 0x105F JUMP JUMPDEST POP POP POP POP POP ISZERO DUP1 ISZERO PUSH2 0xBAE JUMPI RETURNDATASIZE PUSH1 0x0 DUP1 RETURNDATACOPY RETURNDATASIZE PUSH1 0x0 PUSH2 0xBAB PUSH2 0xF41 JUMP JUMPDEST POP POP JUMPDEST POP POP POP POP PUSH1 0x40 MLOAD PUSH1 0x1F RETURNDATASIZE SWAP1 DUP2 ADD PUSH1 0x1F NOT AND DUP3 ADD PUSH1 0x40 MSTORE PUSH2 0xBD1 SWAP2 SWAP1 DUP2 ADD SWAP1 PUSH2 0x13A0 JUMP JUMPDEST PUSH1 0x3 DUP2 GT ISZERO PUSH2 0xBDC JUMPI INVALID JUMPDEST DUP2 MSTORE PUSH1 0x20 ADD DUP14 PUSH1 0x1 PUSH1 0x1 PUSH1 0xA0 SHL SUB AND PUSH4 0x65372147 PUSH1 0x40 MLOAD DUP2 PUSH4 0xFFFFFFFF AND PUSH1 0xE0 SHL DUP2 MSTORE PUSH1 0x4 ADD PUSH1 0x20 PUSH1 0x40 MLOAD DUP1 DUP4 SUB DUP2 DUP7 DUP1 PUSH2 0xC15 PUSH2 0xFFF JUMP JUMPDEST ISZERO DUP1 ISZERO PUSH2 0xC2A JUMPI PUSH1 0x0 DUP1 PUSH2 0xC27 PUSH2 0xF41 JUMP JUMPDEST POP POP JUMPDEST POP GAS PUSH2 0xC34 PUSH2 0x105F JUMP JUMPDEST POP POP POP POP POP ISZERO DUP1 ISZERO PUSH2 0xC53 JUMPI RETURNDATASIZE PUSH1 0x0 DUP1 RETURNDATACOPY RETURNDATASIZE PUSH1 0x0 PUSH2 0xC50 PUSH2 0xF41 JUMP JUMPDEST POP POP JUMPDEST POP POP POP POP PUSH1 0x40 MLOAD PUSH1 0x1F RETURNDATASIZE SWAP1 DUP2 ADD PUSH1 0x1F NOT AND DUP3 ADD PUSH1 0x40 MSTORE PUSH2 0xC76 SWAP2 SWAP1 DUP2 ADD SWAP1 PUSH2 0x13C7 JUMP JUMPDEST PUSH1 0x1 DUP2 GT ISZERO PUSH2 0xC81 JUMPI INVALID JUMPDEST DUP2 MSTORE PUSH1 0x20 ADD PUSH1 0x40 MLOAD DUP1 PUSH1 0x40 ADD PUSH1 0x40 MSTORE DUP1 DUP8 DUP2 MSTORE PUSH1 0x20 ADD DUP7 DUP2 MSTORE POP DUP2 MSTORE PUSH1 0x20 ADD PUSH1 0x40 MLOAD DUP1 PUSH1 0x40 ADD PUSH1 0x40 MSTORE DUP1 DUP12 DUP2 MSTORE PUSH1 0x20 ADD DUP11 DUP2 MSTORE POP DUP2 MSTORE PUSH1 0x20 ADD PUSH1 0x40 MLOAD DUP1 PUSH1 0x40 ADD PUSH1 0x40 MSTORE DUP1 DUP10 DUP2 MSTORE PUSH1 0x20 ADD DUP9 DUP2 MSTORE POP DUP2 MSTORE POP SWAP11 POP POP POP POP POP POP POP POP POP POP POP SWAP2 SWAP1 POP JUMP JUMPDEST PUSH2 0xCEB PUSH2 0x117B JUMP JUMPDEST PUSH1 0x0 DUP1 DUP5 PUSH1 0x1 PUSH1 0x1 PUSH1 0xA0 SHL SUB AND PUSH4 0x29E77B5D DUP6 PUSH1 0x40 MLOAD DUP3 PUSH4 0xFFFFFFFF AND PUSH1 0xE0 SHL DUP2 MSTORE PUSH1 0x4 ADD PUSH2 0xD1A SWAP2 SWAP1 PUSH2 0x1686 JUMP JUMPDEST PUSH1 0x40 DUP1 MLOAD DUP1 DUP4 SUB DUP2 DUP7 DUP1 PUSH2 0xD2C PUSH2 0xFFF JUMP JUMPDEST ISZERO DUP1 ISZERO PUSH2 0xD41 JUMPI PUSH1 0x0 DUP1 PUSH2 0xD3E PUSH2 0xF41 JUMP JUMPDEST POP POP JUMPDEST POP GAS PUSH2 0xD4B PUSH2 0x105F JUMP JUMPDEST POP POP POP POP POP ISZERO DUP1 ISZERO PUSH2 0xD6A JUMPI RETURNDATASIZE PUSH1 0x0 DUP1 RETURNDATACOPY RETURNDATASIZE PUSH1 0x0 PUSH2 0xD67 PUSH2 0xF41 JUMP JUMPDEST POP POP JUMPDEST POP POP POP POP PUSH1 0x40 MLOAD PUSH1 0x1F RETURNDATASIZE SWAP1 DUP2 ADD PUSH1 0x1F NOT AND DUP3 ADD PUSH1 0x40 MSTORE PUSH2 0xD8D SWAP2 SWAP1 DUP2 ADD SWAP1 PUSH2 0x1415 JUMP JUMPDEST SWAP2 POP SWAP2 POP PUSH1 0x0 DUP1 DUP7 PUSH1 0x1 PUSH1 0x1 PUSH1 0xA0 SHL SUB AND PUSH4 0x408E82AF DUP8 PUSH1 0x40 MLOAD DUP3 PUSH4 0xFFFFFFFF AND PUSH1 0xE0 SHL DUP2 MSTORE PUSH1 0x4 ADD PUSH2 0xDC0 SWAP2 SWAP1 PUSH2 0x1686 JUMP JUMPDEST PUSH1 0x40 DUP1 MLOAD DUP1 DUP4 SUB DUP2 DUP7 DUP1 PUSH2 0xDD2 PUSH2 0xFFF JUMP JUMPDEST ISZERO DUP1 ISZERO PUSH2 0xDE7 JUMPI PUSH1 0x0 DUP1 PUSH2 0xDE4 PUSH2 0xF41 JUMP JUMPDEST POP POP JUMPDEST POP GAS PUSH2 0xDF1 PUSH2 0x105F JUMP JUMPDEST POP POP POP POP POP ISZERO DUP1 ISZERO PUSH2 0xE10 JUMPI RETURNDATASIZE PUSH1 0x0 DUP1 RETURNDATACOPY RETURNDATASIZE PUSH1 0x0 PUSH2 0xE0D PUSH2 0xF41 JUMP JUMPDEST POP POP JUMPDEST POP POP POP POP PUSH1 0x40 MLOAD PUSH1 0x1F RETURNDATASIZE SWAP1 DUP2 ADD PUSH1 0x1F NOT AND DUP3 ADD PUSH1 0x40 MSTORE PUSH2 0xE33 SWAP2 SWAP1 DUP2 ADD SWAP1 PUSH2 0x1415 JUMP JUMPDEST SWAP2 POP SWAP2 POP PUSH1 0x0 DUP1 DUP9 PUSH1 0x1 PUSH1 0x1 PUSH1 0xA0 SHL SUB AND PUSH4 0x6392A51F DUP10 PUSH1 0x40 MLOAD DUP3 PUSH4 0xFFFFFFFF AND PUSH1 0xE0 SHL DUP2 MSTORE PUSH1 0x4 ADD PUSH2 0xE66 SWAP2 SWAP1 PUSH2 0x1686 JUMP JUMPDEST PUSH1 0x40 DUP1 MLOAD DUP1 DUP4 SUB DUP2 DUP7 DUP1 PUSH2 0xE78 PUSH2 0xFFF JUMP JUMPDEST ISZERO DUP1 ISZERO PUSH2 0xE8D JUMPI PUSH1 0x0 DUP1 PUSH2 0xE8A PUSH2 0xF41 JUMP JUMPDEST POP POP JUMPDEST POP GAS PUSH2 0xE97 PUSH2 0x105F JUMP JUMPDEST POP POP POP POP POP ISZERO DUP1 ISZERO PUSH2 0xEB6 JUMPI RETURNDATASIZE PUSH1 0x0 DUP1 RETURNDATACOPY RETURNDATASIZE PUSH1 0x0 PUSH2 0xEB3 PUSH2 0xF41 JUMP JUMPDEST POP POP JUMPDEST POP POP POP POP PUSH1 0x40 MLOAD PUSH1 0x1F RETURNDATASIZE SWAP1 DUP2 ADD PUSH1 0x1F NOT AND DUP3 ADD PUSH1 0x40 MSTORE PUSH2 0xED9 SWAP2 SWAP1 DUP2 ADD SWAP1 PUSH2 0x1415 JUMP JUMPDEST SWAP2 POP SWAP2 POP PUSH1 0x40 MLOAD DUP1 PUSH1 0x60 ADD PUSH1 0x40 MSTORE DUP1 PUSH1 0x40 MLOAD DUP1 PUSH1 0x40 ADD PUSH1 0x40 MSTORE DUP1 DUP10 DUP2 MSTORE PUSH1 0x20 ADD DUP9 DUP2 MSTORE POP DUP2 MSTORE PUSH1 0x20 ADD PUSH1 0x40 MLOAD DUP1 PUSH1 0x40 ADD PUSH1 0x40 MSTORE DUP1 DUP8 DUP2 MSTORE PUSH1 0x20 ADD DUP7 DUP2 MSTORE POP DUP2 MSTORE PUSH1 0x20 ADD PUSH1 0x40 MLOAD PUSH1 0x40 DUP1 DUP3 ADD SWAP1 MSTORE SWAP4 DUP5 MSTORE PUSH1 0x20 DUP5 ADD SWAP3 SWAP1 SWAP3 MSTORE SWAP2 SWAP1 MSTORE SWAP5 POP POP POP POP POP JUMPDEST SWAP3 SWAP2 POP POP JUMP JUMPDEST PUSH4 0x2A2A7ADB MSIZE DUP2 PUSH1 0xE0 SHL DUP2 MSTORE PUSH1 0x4 DUP2 ADD PUSH1 0x20 DUP2 MSTORE DUP6 PUSH1 0x20 DUP3 ADD MSTORE PUSH1 0x0 JUMPDEST DUP7 DUP2 LT ISZERO PUSH2 0xF79 JUMPI DUP1 DUP7 ADD MLOAD DUP3 DUP3 ADD PUSH1 0x40 ADD MSTORE PUSH1 0x20 ADD PUSH2 0xF5E JUMP JUMPDEST POP PUSH1 0x20 DUP3 DUP8 PUSH1 0x64 ADD DUP5 CALLER PUSH1 0x0 SWAP1 GAS CALL PC PUSH1 0x1D ADD JUMPI RETURNDATASIZE PUSH1 0x1 EQ PC PUSH1 0xC ADD JUMPI RETURNDATASIZE PUSH1 0x0 DUP1 RETURNDATACOPY RETURNDATASIZE PUSH3 0x123456 MSTORE PUSH1 0xEA PUSH2 0x109C MSTORE POP POP POP JUMP JUMPDEST PUSH1 0x40 MLOAD PUSH1 0xC0 DUP2 ADD PUSH1 0x40 MSTORE PUSH1 0x0 DUP2 MSTORE PUSH1 0x20 DUP2 ADD PUSH2 0xFC6 PUSH2 0x118A JUMP JUMPDEST DUP2 MSTORE PUSH1 0x20 ADD PUSH2 0xFD3 PUSH2 0x11A1 JUMP JUMPDEST DUP2 MSTORE PUSH1 0x20 ADD PUSH2 0xFE0 PUSH2 0x11C2 JUMP JUMPDEST DUP2 MSTORE PUSH1 0x20 ADD PUSH2 0xFED PUSH2 0x11A1 JUMP JUMPDEST DUP2 MSTORE PUSH1 0x20 ADD PUSH2 0xFFA PUSH2 0x118A JUMP JUMPDEST SWAP1 MSTORE SWAP1 JUMP JUMPDEST PUSH4 0x8435035B MSIZE DUP2 PUSH1 0xE0 SHL DUP2 MSTORE DUP4 PUSH1 0x4 DUP3 ADD MSTORE PUSH1 0x20 DUP2 PUSH1 0x24 DUP4 CALLER PUSH1 0x0 SWAP1 GAS CALL PC PUSH1 0x1D ADD JUMPI RETURNDATASIZE PUSH1 0x1 EQ PC PUSH1 0xC ADD JUMPI RETURNDATASIZE PUSH1 0x0 DUP1 RETURNDATACOPY RETURNDATASIZE PUSH3 0x123456 MSTORE PUSH1 0xEA PUSH2 0x109C MSTORE DUP1 MLOAD SWAP4 POP PUSH1 0x0 JUMPDEST PUSH1 0x40 DUP2 LT ISZERO PUSH2 0x105A JUMPI PUSH1 0x0 DUP3 DUP3 ADD MSTORE PUSH1 0x20 ADD PUSH2 0x1043 JUMP JUMPDEST POP POP POP JUMP JUMPDEST PUSH4 0x8540661F MSIZE DUP2 PUSH1 0xE0 SHL DUP2 MSTORE DUP4 PUSH1 0x4 DUP3 ADD MSTORE DUP5 PUSH1 0x24 DUP3 ADD MSTORE PUSH1 0x60 PUSH1 0x44 DUP3 ADD MSTORE DUP7 PUSH1 0x64 DUP3 ADD MSTORE PUSH1 0x84 DUP2 ADD PUSH1 0x0 JUMPDEST DUP9 DUP2 LT ISZERO PUSH2 0x10A3 JUMPI DUP1 DUP9 ADD MLOAD DUP3 DUP3 ADD MSTORE PUSH1 0x20 ADD PUSH2 0x108B JUMP JUMPDEST POP DUP8 PUSH2 0x104 ADD DUP3 ADD PUSH1 0x60 DUP4 DUP11 PUSH2 0x104 ADD DUP6 CALLER PUSH1 0x0 SWAP1 GAS CALL PC PUSH1 0x1D ADD JUMPI RETURNDATASIZE PUSH1 0x1 EQ PC PUSH1 0xC ADD JUMPI RETURNDATASIZE PUSH1 0x0 DUP1 RETURNDATACOPY RETURNDATASIZE PUSH3 0x123456 MSTORE PUSH1 0xEA PUSH2 0x109C MSTORE DUP3 MLOAD PUSH1 0x40 DUP5 ADD MLOAD RETURNDATASIZE PUSH1 0x0 DUP7 RETURNDATACOPY DUP13 DUP13 DUP3 PUSH1 0x60 DUP9 ADD CALLER POP PUSH1 0x0 PUSH1 0x4 GAS CALL POP MSIZE DUP6 JUMPDEST DUP2 DUP2 LT ISZERO PUSH2 0x110C JUMPI PUSH1 0x0 DUP2 MSTORE PUSH1 0x20 ADD PUSH2 0x10F8 JUMP JUMPDEST POP SWAP2 SWAP13 POP POP POP POP POP POP POP JUMP JUMPDEST PUSH1 0x40 MLOAD DUP1 PUSH2 0x120 ADD PUSH1 0x40 MSTORE DUP1 PUSH2 0x112C PUSH2 0x118A JUMP JUMPDEST DUP2 MSTORE PUSH1 0x20 ADD PUSH2 0x1139 PUSH2 0x118A JUMP JUMPDEST DUP2 MSTORE PUSH1 0x20 ADD PUSH2 0x1146 PUSH2 0x118A JUMP JUMPDEST DUP2 MSTORE PUSH1 0x20 ADD PUSH2 0x1153 PUSH2 0x118A JUMP JUMPDEST DUP2 MSTORE PUSH1 0x20 ADD PUSH1 0x0 DUP2 MSTORE PUSH1 0x20 ADD PUSH1 0x0 DUP2 MSTORE PUSH1 0x20 ADD PUSH2 0x116E PUSH2 0x118A JUMP JUMPDEST DUP2 MSTORE PUSH1 0x20 ADD PUSH2 0xFED PUSH2 0x118A JUMP JUMPDEST PUSH1 0x40 MLOAD DUP1 PUSH1 0x60 ADD PUSH1 0x40 MSTORE DUP1 PUSH2 0x116E JUMPDEST PUSH1 0x40 MLOAD PUSH1 0x40 DUP1 DUP3 ADD SWAP1 MSTORE PUSH1 0x0 DUP1 DUP3 MSTORE PUSH1 0x20 DUP3 ADD MSTORE SWAP1 JUMP JUMPDEST PUSH1 0x40 MLOAD DUP1 PUSH1 0x60 ADD PUSH1 0x40 MSTORE DUP1 PUSH1 0x0 DUP2 MSTORE PUSH1 0x20 ADD PUSH1 0x0 DUP2 MSTORE PUSH1 0x20 ADD PUSH1 0x0 DUP2 MSTORE POP SWAP1 JUMP JUMPDEST PUSH1 0x40 MLOAD PUSH1 0x60 DUP2 ADD PUSH1 0x40 SWAP1 DUP2 MSTORE PUSH1 0x0 DUP1 DUP4 MSTORE PUSH1 0x20 DUP4 ADD DUP2 SWAP1 MSTORE SWAP1 DUP3 ADD MSTORE SWAP1 JUMP JUMPDEST DUP1 CALLDATALOAD PUSH2 0xF3B DUP2 PUSH2 0x172B JUMP JUMPDEST PUSH1 0x0 DUP2 MLOAD SWAP1 POP PUSH2 0xF3B DUP2 PUSH2 0x172B JUMP JUMPDEST PUSH1 0x0 DUP2 MLOAD SWAP1 POP PUSH2 0xF3B DUP2 PUSH2 0x1745 JUMP JUMPDEST PUSH1 0x0 DUP2 MLOAD SWAP1 POP PUSH2 0xF3B DUP2 PUSH2 0x174E JUMP JUMPDEST DUP1 CALLDATALOAD PUSH2 0xF3B DUP2 PUSH2 0x1757 JUMP JUMPDEST PUSH1 0x0 DUP2 MLOAD SWAP1 POP PUSH2 0xF3B DUP2 PUSH2 0x1757 JUMP JUMPDEST PUSH1 0x0 DUP2 MLOAD SWAP1 POP PUSH2 0xF3B DUP2 PUSH2 0x1760 JUMP JUMPDEST PUSH1 0x0 DUP2 MLOAD SWAP1 POP PUSH2 0xF3B DUP2 PUSH2 0x1773 JUMP JUMPDEST PUSH1 0x0 PUSH1 0x20 DUP3 DUP5 SUB SLT ISZERO PUSH2 0x126C JUMPI PUSH1 0x0 DUP1 PUSH2 0x1269 PUSH2 0xF41 JUMP JUMPDEST POP POP JUMPDEST PUSH1 0x0 PUSH2 0x1278 DUP5 DUP5 PUSH2 0x11EC JUMP JUMPDEST SWAP5 SWAP4 POP POP POP POP JUMP JUMPDEST PUSH1 0x0 PUSH1 0x20 DUP3 DUP5 SUB SLT ISZERO PUSH2 0x129B JUMPI PUSH1 0x0 DUP1 PUSH2 0x1298 PUSH2 0xF41 JUMP JUMPDEST POP POP JUMPDEST PUSH1 0x0 PUSH2 0x1278 DUP5 DUP5 PUSH2 0x11FB JUMP JUMPDEST PUSH1 0x0 DUP1 PUSH1 0x0 PUSH1 0x60 DUP5 DUP7 SUB SLT ISZERO PUSH2 0x12C5 JUMPI PUSH1 0x0 DUP1 PUSH2 0x12C2 PUSH2 0xF41 JUMP JUMPDEST POP POP JUMPDEST PUSH1 0x0 PUSH2 0x12D1 DUP7 DUP7 PUSH2 0x120A JUMP JUMPDEST SWAP4 POP POP PUSH1 0x20 PUSH2 0x12E2 DUP7 DUP3 DUP8 ADD PUSH2 0x120A JUMP JUMPDEST SWAP3 POP POP PUSH1 0x40 PUSH2 0x12F3 DUP7 DUP3 DUP8 ADD PUSH2 0x120A JUMP JUMPDEST SWAP2 POP POP SWAP3 POP SWAP3 POP SWAP3 JUMP JUMPDEST PUSH1 0x0 PUSH1 0x20 DUP3 DUP5 SUB SLT ISZERO PUSH2 0x1318 JUMPI PUSH1 0x0 DUP1 PUSH2 0x1315 PUSH2 0xF41 JUMP JUMPDEST POP POP JUMPDEST PUSH1 0x0 PUSH2 0x1278 DUP5 DUP5 PUSH2 0x1219 JUMP JUMPDEST PUSH1 0x0 DUP1 PUSH1 0x40 DUP4 DUP6 SUB SLT ISZERO PUSH2 0x1340 JUMPI PUSH1 0x0 DUP1 PUSH2 0x133D PUSH2 0xF41 JUMP JUMPDEST POP POP JUMPDEST PUSH1 0x0 PUSH2 0x134C DUP6 DUP6 PUSH2 0x1219 JUMP JUMPDEST SWAP3 POP POP PUSH1 0x20 PUSH2 0x135D DUP6 DUP3 DUP7 ADD PUSH2 0x11E1 JUMP JUMPDEST SWAP2 POP POP SWAP3 POP SWAP3 SWAP1 POP JUMP JUMPDEST PUSH1 0x0 DUP1 PUSH1 0x40 DUP4 DUP6 SUB SLT ISZERO PUSH2 0x1383 JUMPI PUSH1 0x0 DUP1 PUSH2 0x1380 PUSH2 0xF41 JUMP JUMPDEST POP POP JUMPDEST PUSH1 0x0 PUSH2 0x138F DUP6 DUP6 PUSH2 0x1224 JUMP JUMPDEST SWAP3 POP POP PUSH1 0x20 PUSH2 0x135D DUP6 DUP3 DUP7 ADD PUSH2 0x1224 JUMP JUMPDEST PUSH1 0x0 PUSH1 0x20 DUP3 DUP5 SUB SLT ISZERO PUSH2 0x13BB JUMPI PUSH1 0x0 DUP1 PUSH2 0x13B8 PUSH2 0xF41 JUMP JUMPDEST POP POP JUMPDEST PUSH1 0x0 PUSH2 0x1278 DUP5 DUP5 PUSH2 0x1233 JUMP JUMPDEST PUSH1 0x0 PUSH1 0x20 DUP3 DUP5 SUB SLT ISZERO PUSH2 0x13E2 JUMPI PUSH1 0x0 DUP1 PUSH2 0x13DF PUSH2 0xF41 JUMP JUMPDEST POP POP JUMPDEST PUSH1 0x0 PUSH2 0x1278 DUP5 DUP5 PUSH2 0x1242 JUMP JUMPDEST PUSH1 0x0 PUSH1 0x20 DUP3 DUP5 SUB SLT ISZERO PUSH2 0x1409 JUMPI PUSH1 0x0 DUP1 PUSH2 0x1406 PUSH2 0xF41 JUMP JUMPDEST POP POP JUMPDEST PUSH1 0x0 PUSH2 0x1278 DUP5 DUP5 PUSH2 0x120A JUMP JUMPDEST PUSH1 0x0 DUP1 PUSH1 0x40 DUP4 DUP6 SUB SLT ISZERO PUSH2 0x1431 JUMPI PUSH1 0x0 DUP1 PUSH2 0x142E PUSH2 0xF41 JUMP JUMPDEST POP POP JUMPDEST PUSH1 0x0 PUSH2 0x143D DUP6 DUP6 PUSH2 0x120A JUMP JUMPDEST SWAP3 POP POP PUSH1 0x20 PUSH2 0x135D DUP6 DUP3 DUP7 ADD PUSH2 0x120A JUMP JUMPDEST PUSH2 0x1457 DUP2 PUSH2 0x16C0 JUMP JUMPDEST DUP3 MSTORE POP POP JUMP JUMPDEST PUSH2 0x1457 DUP2 PUSH2 0x16CB JUMP JUMPDEST PUSH2 0x1457 DUP2 PUSH2 0x16D0 JUMP JUMPDEST PUSH2 0x1457 DUP2 PUSH2 0x16D3 JUMP JUMPDEST PUSH2 0x1457 DUP2 PUSH2 0x16FE JUMP JUMPDEST PUSH2 0x1457 DUP2 PUSH2 0x1709 JUMP JUMPDEST PUSH1 0xC0 DUP3 ADD DUP2 MLOAD PUSH2 0x149A DUP5 DUP3 PUSH2 0x14C6 JUMP JUMPDEST POP PUSH1 0x20 DUP3 ADD MLOAD PUSH2 0x14AD PUSH1 0x40 DUP6 ADD DUP3 PUSH2 0x14C6 JUMP JUMPDEST POP PUSH1 0x40 DUP3 ADD MLOAD PUSH2 0x14C0 PUSH1 0x80 DUP6 ADD DUP3 PUSH2 0x14C6 JUMP JUMPDEST POP POP POP POP JUMP JUMPDEST PUSH1 0x40 DUP3 ADD DUP2 MLOAD PUSH2 0x14D6 DUP5 DUP3 PUSH2 0x1466 JUMP JUMPDEST POP PUSH1 0x20 DUP3 ADD MLOAD PUSH2 0x14C0 PUSH1 0x20 DUP6 ADD DUP3 PUSH2 0x1466 JUMP JUMPDEST PUSH1 0x60 DUP3 ADD DUP2 MLOAD PUSH2 0x14F9 DUP5 DUP3 PUSH2 0x1466 JUMP JUMPDEST POP PUSH1 0x20 DUP3 ADD MLOAD PUSH2 0x150C PUSH1 0x20 DUP6 ADD DUP3 PUSH2 0x1466 JUMP JUMPDEST POP PUSH1 0x40 DUP3 ADD MLOAD PUSH2 0x14C0 PUSH1 0x40 DUP6 ADD DUP3 PUSH2 0x1466 JUMP JUMPDEST PUSH2 0x200 DUP3 ADD DUP2 MLOAD PUSH2 0x1530 DUP5 DUP3 PUSH2 0x14C6 JUMP JUMPDEST POP PUSH1 0x20 DUP3 ADD MLOAD PUSH2 0x1543 PUSH1 0x40 DUP6 ADD DUP3 PUSH2 0x14C6 JUMP JUMPDEST POP PUSH1 0x40 DUP3 ADD MLOAD PUSH2 0x1556 PUSH1 0x80 DUP6 ADD DUP3 PUSH2 0x14C6 JUMP JUMPDEST POP PUSH1 0x60 DUP3 ADD MLOAD PUSH2 0x1569 PUSH1 0xC0 DUP6 ADD DUP3 PUSH2 0x1663 JUMP JUMPDEST POP PUSH1 0x80 DUP3 ADD MLOAD PUSH2 0x157D PUSH2 0x100 DUP6 ADD DUP3 PUSH2 0x1478 JUMP JUMPDEST POP PUSH1 0xA0 DUP3 ADD MLOAD PUSH2 0x1591 PUSH2 0x120 DUP6 ADD DUP3 PUSH2 0x1481 JUMP JUMPDEST POP PUSH1 0xC0 DUP3 ADD MLOAD PUSH2 0x15A5 PUSH2 0x140 DUP6 ADD DUP3 PUSH2 0x14C6 JUMP JUMPDEST POP PUSH1 0xE0 DUP3 ADD MLOAD PUSH2 0x15B9 PUSH2 0x180 DUP6 ADD DUP3 PUSH2 0x14C6 JUMP JUMPDEST POP PUSH2 0x100 DUP3 ADD MLOAD PUSH2 0x14C0 PUSH2 0x1C0 DUP6 ADD DUP3 PUSH2 0x14C6 JUMP JUMPDEST PUSH2 0x1C0 DUP3 ADD DUP2 MLOAD PUSH2 0x15DF DUP5 DUP3 PUSH2 0x144E JUMP JUMPDEST POP PUSH1 0x20 DUP3 ADD MLOAD PUSH2 0x15F2 PUSH1 0x20 DUP6 ADD DUP3 PUSH2 0x1640 JUMP JUMPDEST POP PUSH1 0x40 DUP3 ADD MLOAD PUSH2 0x1605 PUSH1 0x60 DUP6 ADD DUP3 PUSH2 0x14E9 JUMP JUMPDEST POP PUSH1 0x60 DUP3 ADD MLOAD PUSH2 0x1618 PUSH1 0xC0 DUP6 ADD DUP3 PUSH2 0x14E9 JUMP JUMPDEST POP PUSH1 0x80 DUP3 ADD MLOAD PUSH2 0x162C PUSH2 0x120 DUP6 ADD DUP3 PUSH2 0x14E9 JUMP JUMPDEST POP PUSH1 0xA0 DUP3 ADD MLOAD PUSH2 0x14C0 PUSH2 0x180 DUP6 ADD DUP3 PUSH2 0x14C6 JUMP JUMPDEST PUSH1 0x40 DUP3 ADD DUP2 MLOAD PUSH2 0x1650 DUP5 DUP3 PUSH2 0x146F JUMP JUMPDEST POP PUSH1 0x20 DUP3 ADD MLOAD PUSH2 0x14C0 PUSH1 0x20 DUP6 ADD DUP3 PUSH2 0x146F JUMP JUMPDEST PUSH1 0x40 DUP3 ADD DUP2 MLOAD PUSH2 0x1673 DUP5 DUP3 PUSH2 0x145D JUMP JUMPDEST POP PUSH1 0x20 DUP3 ADD MLOAD PUSH2 0x14C0 PUSH1 0x20 DUP6 ADD DUP3 PUSH2 0x145D JUMP JUMPDEST PUSH1 0x20 DUP2 ADD PUSH2 0xF3B DUP3 DUP5 PUSH2 0x144E JUMP JUMPDEST PUSH1 0xC0 DUP2 ADD PUSH2 0xF3B DUP3 DUP5 PUSH2 0x148A JUMP JUMPDEST PUSH2 0x200 DUP2 ADD PUSH2 0xF3B DUP3 DUP5 PUSH2 0x151F JUMP JUMPDEST PUSH2 0x1C0 DUP2 ADD PUSH2 0xF3B DUP3 DUP5 PUSH2 0x15CE JUMP JUMPDEST PUSH1 0x0 PUSH2 0xF3B DUP3 PUSH2 0x16F2 JUMP JUMPDEST ISZERO ISZERO SWAP1 JUMP JUMPDEST SWAP1 JUMP JUMPDEST PUSH1 0x0 PUSH2 0xF3B DUP3 PUSH2 0x16C0 JUMP JUMPDEST DUP1 PUSH2 0x562 DUP2 PUSH2 0x1714 JUMP JUMPDEST DUP1 PUSH2 0x562 DUP2 PUSH2 0x1721 JUMP JUMPDEST PUSH1 0x1 PUSH1 0x1 PUSH1 0xA0 SHL SUB AND SWAP1 JUMP JUMPDEST PUSH1 0x0 PUSH2 0xF3B DUP3 PUSH2 0x16DE JUMP JUMPDEST PUSH1 0x0 PUSH2 0xF3B DUP3 PUSH2 0x16E8 JUMP JUMPDEST PUSH1 0x4 DUP2 LT PUSH2 0x171E JUMPI INVALID JUMPDEST POP JUMP JUMPDEST PUSH1 0x2 DUP2 LT PUSH2 0x171E JUMPI INVALID JUMPDEST PUSH2 0x1734 DUP2 PUSH2 0x16C0 JUMP JUMPDEST DUP2 EQ PUSH2 0x171E JUMPI PUSH1 0x0 DUP1 PUSH2 0x105A PUSH2 0xF41 JUMP JUMPDEST PUSH2 0x1734 DUP2 PUSH2 0x16CB JUMP JUMPDEST PUSH2 0x1734 DUP2 PUSH2 0x16D0 JUMP JUMPDEST PUSH2 0x1734 DUP2 PUSH2 0x16D3 JUMP JUMPDEST PUSH1 0x4 DUP2 LT PUSH2 0x171E JUMPI PUSH1 0x0 DUP1 PUSH2 0x105A PUSH2 0xF41 JUMP JUMPDEST PUSH1 0x2 DUP2 LT PUSH2 0x171E JUMPI PUSH1 0x0 DUP1 PUSH2 0x105A PUSH2 0xF41 JUMP "
		}
	}
}