{
	"abi": [
		{
			"inputs": [
				{
					"internalType": "address",
					"name": "_owner",
					"type": "address"
				},
				{
					"internalType": "address",
					"name": "_resolver",
					"type": "address"
				}
			],
			"payable": false,
			"stateMutability": "nonpayable",
			"type": "constructor"
		},
		{
			"anonymous": false,
			"inputs": [
				{
					"indexed": true,
					"internalType": "address",
					"name": "account",
					"type": "address"
				},
				{
					"indexed": false,
					"internalType": "bytes32",
					"name": "src",
					"type": "bytes32"
				},
				{
					"indexed": false,
					"internalType": "uint256",
					"name": "amount",
					"type": "uint256"
				},
				{
					"indexed": false,
					"internalType": "bytes32",
					"name": "dest",
					"type": "bytes32"
				},
				{
					"indexed": false,
					"internalType": "uint256",
					"name": "amountReceived",
					"type": "uint256"
				},
				{
					"indexed": false,
					"internalType": "uint256",
					"name": "exchangeFeeRate",
					"type": "uint256"
				},
				{
					"indexed": false,
					"internalType": "uint256",
					"name": "roundIdForSrc",
					"type": "uint256"
				},
				{
					"indexed": false,
					"internalType": "uint256",
					"name": "roundIdForDest",
					"type": "uint256"
				}
			],
			"name": "ExchangeEntryAppended",
			"type": "event"
		},
		{
			"anonymous": false,
			"inputs": [
				{
					"indexed": true,
					"internalType": "address",
					"name": "from",
					"type": "address"
				},
				{
					"indexed": false,
					"internalType": "bytes32",
					"name": "src",
					"type": "bytes32"
				},
				{
					"indexed": false,
					"internalType": "uint256",
					"name": "amount",
					"type": "uint256"
				},
				{
					"indexed": false,
					"internalType": "bytes32",
					"name": "dest",
					"type": "bytes32"
				},
				{
					"indexed": false,
					"internalType": "uint256",
					"name": "reclaim",
					"type": "uint256"
				},
				{
					"indexed": false,
					"internalType": "uint256",
					"name": "rebate",
					"type": "uint256"
				},
				{
					"indexed": false,
					"internalType": "uint256",
					"name": "srcRoundIdAtPeriodEnd",
					"type": "uint256"
				},
				{
					"indexed": false,
					"internalType": "uint256",
					"name": "destRoundIdAtPeriodEnd",
					"type": "uint256"
				},
				{
					"indexed": false,
					"internalType": "uint256",
					"name": "exchangeTimestamp",
					"type": "uint256"
				}
			],
			"name": "ExchangeEntrySettled",
			"type": "event"
		},
		{
			"anonymous": false,
			"inputs": [
				{
					"indexed": false,
					"internalType": "address",
					"name": "oldOwner",
					"type": "address"
				},
				{
					"indexed": false,
					"internalType": "address",
					"name": "newOwner",
					"type": "address"
				}
			],
			"name": "OwnerChanged",
			"type": "event"
		},
		{
			"anonymous": false,
			"inputs": [
				{
					"indexed": false,
					"internalType": "address",
					"name": "newOwner",
					"type": "address"
				}
			],
			"name": "OwnerNominated",
			"type": "event"
		},
		{
			"constant": true,
			"inputs": [],
			"name": "CIRCUIT_BREAKER_SUSPENSION_REASON",
			"outputs": [
				{
					"internalType": "uint256",
					"name": "",
					"type": "uint256"
				}
			],
			"payable": false,
			"stateMutability": "view",
			"type": "function"
		},
		{
			"constant": true,
			"inputs": [],
			"name": "MAX_ADDRESSES_FROM_RESOLVER",
			"outputs": [
				{
					"internalType": "uint256",
					"name": "",
					"type": "uint256"
				}
			],
			"payable": false,
			"stateMutability": "view",
			"type": "function"
		},
		{
			"constant": false,
			"inputs": [],
			"name": "acceptOwnership",
			"outputs": [],
			"payable": false,
			"stateMutability": "nonpayable",
			"type": "function"
		},
		{
			"constant": true,
			"inputs": [
				{
					"internalType": "address",
					"name": "from",
					"type": "address"
				},
				{
					"internalType": "bytes32",
					"name": "currencyKey",
					"type": "bytes32"
				},
				{
					"internalType": "uint256",
					"name": "amount",
					"type": "uint256"
				},
				{
					"internalType": "uint256",
					"name": "refunded",
					"type": "uint256"
				}
			],
			"name": "calculateAmountAfterSettlement",
			"outputs": [
				{
					"internalType": "uint256",
					"name": "amountAfterSettlement",
					"type": "uint256"
				}
			],
			"payable": false,
			"stateMutability": "view",
			"type": "function"
		},
		{
			"constant": false,
			"inputs": [
				{
					"internalType": "address",
					"name": "from",
					"type": "address"
				},
				{
					"internalType": "bytes32",
					"name": "sourceCurrencyKey",
					"type": "bytes32"
				},
				{
					"internalType": "uint256",
					"name": "sourceAmount",
					"type": "uint256"
				},
				{
					"internalType": "bytes32",
					"name": "destinationCurrencyKey",
					"type": "bytes32"
				},
				{
					"internalType": "address",
					"name": "destinationAddress",
					"type": "address"
				}
			],
			"name": "exchange",
			"outputs": [
				{
					"internalType": "uint256",
					"name": "amountReceived",
					"type": "uint256"
				}
			],
			"payable": false,
			"stateMutability": "nonpayable",
			"type": "function"
		},
		{
			"constant": false,
			"inputs": [
				{
					"internalType": "address",
					"name": "exchangeForAddress",
					"type": "address"
				},
				{
					"internalType": "address",
					"name": "from",
					"type": "address"
				},
				{
					"internalType": "bytes32",
					"name": "sourceCurrencyKey",
					"type": "bytes32"
				},
				{
					"internalType": "uint256",
					"name": "sourceAmount",
					"type": "uint256"
				},
				{
					"internalType": "bytes32",
					"name": "destinationCurrencyKey",
					"type": "bytes32"
				}
			],
			"name": "exchangeOnBehalf",
			"outputs": [
				{
					"internalType": "uint256",
					"name": "amountReceived",
					"type": "uint256"
				}
			],
			"payable": false,
			"stateMutability": "nonpayable",
			"type": "function"
		},
		{
			"constant": false,
			"inputs": [
				{
					"internalType": "address",
					"name": "exchangeForAddress",
					"type": "address"
				},
				{
					"internalType": "address",
					"name": "from",
					"type": "address"
				},
				{
					"internalType": "bytes32",
					"name": "sourceCurrencyKey",
					"type": "bytes32"
				},
				{
					"internalType": "uint256",
					"name": "sourceAmount",
					"type": "uint256"
				},
				{
					"internalType": "bytes32",
					"name": "destinationCurrencyKey",
					"type": "bytes32"
				},
				{
					"internalType": "address",
					"name": "originator",
					"type": "address"
				},
				{
					"internalType": "bytes32",
					"name": "trackingCode",
					"type": "bytes32"
				}
			],
			"name": "exchangeOnBehalfWithTracking",
			"outputs": [
				{
					"internalType": "uint256",
					"name": "amountReceived",
					"type": "uint256"
				}
			],
			"payable": false,
			"stateMutability": "nonpayable",
			"type": "function"
		},
		{
			"constant": false,
			"inputs": [
				{
					"internalType": "address",
					"name": "from",
					"type": "address"
				},
				{
					"internalType": "bytes32",
					"name": "sourceCurrencyKey",
					"type": "bytes32"
				},
				{
					"internalType": "uint256",
					"name": "sourceAmount",
					"type": "uint256"
				},
				{
					"internalType": "bytes32",
					"name": "destinationCurrencyKey",
					"type": "bytes32"
				},
				{
					"internalType": "address",
					"name": "destinationAddress",
					"type": "address"
				},
				{
					"internalType": "address",
					"name": "originator",
					"type": "address"
				},
				{
					"internalType": "bytes32",
					"name": "trackingCode",
					"type": "bytes32"
				}
			],
			"name": "exchangeWithTracking",
			"outputs": [
				{
					"internalType": "uint256",
					"name": "amountReceived",
					"type": "uint256"
				}
			],
			"payable": false,
			"stateMutability": "nonpayable",
			"type": "function"
		},
		{
			"constant": true,
			"inputs": [
				{
					"internalType": "bytes32",
					"name": "sourceCurrencyKey",
					"type": "bytes32"
				},
				{
					"internalType": "bytes32",
					"name": "destinationCurrencyKey",
					"type": "bytes32"
				}
			],
			"name": "feeRateForExchange",
			"outputs": [
				{
					"internalType": "uint256",
					"name": "exchangeFeeRate",
					"type": "uint256"
				}
			],
			"payable": false,
			"stateMutability": "view",
			"type": "function"
		},
		{
			"constant": true,
			"inputs": [
				{
					"internalType": "uint256",
					"name": "sourceAmount",
					"type": "uint256"
				},
				{
					"internalType": "bytes32",
					"name": "sourceCurrencyKey",
					"type": "bytes32"
				},
				{
					"internalType": "bytes32",
					"name": "destinationCurrencyKey",
					"type": "bytes32"
				}
			],
			"name": "getAmountsForExchange",
			"outputs": [
				{
					"internalType": "uint256",
					"name": "amountReceived",
					"type": "uint256"
				},
				{
					"internalType": "uint256",
					"name": "fee",
					"type": "uint256"
				},
				{
					"internalType": "uint256",
					"name": "exchangeFeeRate",
					"type": "uint256"
				}
			],
			"payable": false,
			"stateMutability": "view",
			"type": "function"
		},
		{
			"constant": true,
			"inputs": [],
			"name": "getResolverAddressesRequired",
			"outputs": [
				{
					"internalType": "bytes32[24]",
					"name": "addressesRequired",
					"type": "bytes32[24]"
				}
			],
			"payable": false,
			"stateMutability": "view",
			"type": "function"
		},
		{
			"constant": true,
			"inputs": [
				{
					"internalType": "address",
					"name": "account",
					"type": "address"
				},
				{
					"internalType": "bytes32",
					"name": "currencyKey",
					"type": "bytes32"
				}
			],
			"name": "hasWaitingPeriodOrSettlementOwing",
			"outputs": [
				{
					"internalType": "bool",
					"name": "",
					"type": "bool"
				}
			],
			"payable": false,
			"stateMutability": "view",
			"type": "function"
		},
		{
			"constant": true,
			"inputs": [
				{
					"internalType": "contract AddressResolver",
					"name": "_resolver",
					"type": "address"
				}
			],
			"name": "isResolverCached",
			"outputs": [
				{
					"internalType": "bool",
					"name": "",
					"type": "bool"
				}
			],
			"payable": false,
			"stateMutability": "view",
			"type": "function"
		},
		{
			"constant": true,
			"inputs": [
				{
					"internalType": "bytes32",
					"name": "currencyKey",
					"type": "bytes32"
				}
			],
			"name": "isSynthRateInvalid",
			"outputs": [
				{
					"internalType": "bool",
					"name": "",
					"type": "bool"
				}
			],
			"payable": false,
			"stateMutability": "view",
			"type": "function"
		},
		{
			"constant": true,
			"inputs": [
				{
					"internalType": "bytes32",
					"name": "",
					"type": "bytes32"
				}
			],
			"name": "lastExchangeRate",
			"outputs": [
				{
					"internalType": "uint256",
					"name": "",
					"type": "uint256"
				}
			],
			"payable": false,
			"stateMutability": "view",
			"type": "function"
		},
		{
			"constant": true,
			"inputs": [
				{
					"internalType": "address",
					"name": "account",
					"type": "address"
				},
				{
					"internalType": "bytes32",
					"name": "currencyKey",
					"type": "bytes32"
				}
			],
			"name": "maxSecsLeftInWaitingPeriod",
			"outputs": [
				{
					"internalType": "uint256",
					"name": "",
					"type": "uint256"
				}
			],
			"payable": false,
			"stateMutability": "view",
			"type": "function"
		},
		{
			"constant": false,
			"inputs": [
				{
					"internalType": "address",
					"name": "_owner",
					"type": "address"
				}
			],
			"name": "nominateNewOwner",
			"outputs": [],
			"payable": false,
			"stateMutability": "nonpayable",
			"type": "function"
		},
		{
			"constant": true,
			"inputs": [],
			"name": "nominatedOwner",
			"outputs": [
				{
					"internalType": "address",
					"name": "",
					"type": "address"
				}
			],
			"payable": false,
			"stateMutability": "view",
			"type": "function"
		},
		{
			"constant": true,
			"inputs": [],
			"name": "owner",
			"outputs": [
				{
					"internalType": "address",
					"name": "",
					"type": "address"
				}
			],
			"payable": false,
			"stateMutability": "view",
			"type": "function"
		},
		{
			"constant": true,
			"inputs": [],
			"name": "priceDeviationThresholdFactor",
			"outputs": [
				{
					"internalType": "uint256",
					"name": "",
					"type": "uint256"
				}
			],
			"payable": false,
			"stateMutability": "view",
			"type": "function"
		},
		{
			"constant": true,
			"inputs": [],
			"name": "resolver",
			"outputs": [
				{
					"internalType": "contract AddressResolver",
					"name": "",
					"type": "address"
				}
			],
			"payable": false,
			"stateMutability": "view",
			"type": "function"
		},
		{
			"constant": true,
			"inputs": [
				{
					"internalType": "uint256",
					"name": "",
					"type": "uint256"
				}
			],
			"name": "resolverAddressesRequired",
			"outputs": [
				{
					"internalType": "bytes32",
					"name": "",
					"type": "bytes32"
				}
			],
			"payable": false,
			"stateMutability": "view",
			"type": "function"
		},
		{
			"constant": false,
			"inputs": [
				{
					"internalType": "bytes32",
					"name": "currencyKey",
					"type": "bytes32"
				},
				{
					"internalType": "uint256",
					"name": "rate",
					"type": "uint256"
				}
			],
			"name": "setLastExchangeRateForSynth",
			"outputs": [],
			"payable": false,
			"stateMutability": "nonpayable",
			"type": "function"
		},
		{
			"constant": false,
			"inputs": [
				{
					"internalType": "contract AddressResolver",
					"name": "_resolver",
					"type": "address"
				}
			],
			"name": "setResolverAndSyncCache",
			"outputs": [],
			"payable": false,
			"stateMutability": "nonpayable",
			"type": "function"
		},
		{
			"constant": false,
			"inputs": [
				{
					"internalType": "address",
					"name": "from",
					"type": "address"
				},
				{
					"internalType": "bytes32",
					"name": "currencyKey",
					"type": "bytes32"
				}
			],
			"name": "settle",
			"outputs": [
				{
					"internalType": "uint256",
					"name": "reclaimed",
					"type": "uint256"
				},
				{
					"internalType": "uint256",
					"name": "refunded",
					"type": "uint256"
				},
				{
					"internalType": "uint256",
					"name": "numEntriesSettled",
					"type": "uint256"
				}
			],
			"payable": false,
			"stateMutability": "nonpayable",
			"type": "function"
		},
		{
			"constant": true,
			"inputs": [
				{
					"internalType": "address",
					"name": "account",
					"type": "address"
				},
				{
					"internalType": "bytes32",
					"name": "currencyKey",
					"type": "bytes32"
				}
			],
			"name": "settlementOwing",
			"outputs": [
				{
					"internalType": "uint256",
					"name": "reclaimAmount",
					"type": "uint256"
				},
				{
					"internalType": "uint256",
					"name": "rebateAmount",
					"type": "uint256"
				},
				{
					"internalType": "uint256",
					"name": "numEntries",
					"type": "uint256"
				}
			],
			"payable": false,
			"stateMutability": "view",
			"type": "function"
		},
		{
			"constant": false,
			"inputs": [
				{
					"internalType": "bytes32",
					"name": "currencyKey",
					"type": "bytes32"
				}
			],
			"name": "suspendSynthWithInvalidRate",
			"outputs": [],
			"payable": false,
			"stateMutability": "nonpayable",
			"type": "function"
		},
		{
			"constant": true,
			"inputs": [],
			"name": "tradingRewardsEnabled",
			"outputs": [
				{
					"internalType": "bool",
					"name": "",
					"type": "bool"
				}
			],
			"payable": false,
			"stateMutability": "view",
			"type": "function"
		},
		{
			"constant": true,
			"inputs": [],
			"name": "waitingPeriodSecs",
			"outputs": [
				{
					"internalType": "uint256",
					"name": "",
					"type": "uint256"
				}
			],
			"payable": false,
			"stateMutability": "view",
			"type": "function"
		}
	],
	"evm": {
		"bytecode": {
			"linkReferences": {
				"Exchanger.sol": {
					"SafeDecimalMath": [
						{
							"length": 20,
							"start": 19031
						}
					]
				}
			},
			"object": "6080604052604051610100810160409081526b53797374656d53746174757360a01b82526c45786368616e6765537461746560981b60208301526c45786368616e6765526174657360981b90820152680a6f2dce8d0cae8d2f60bb1b606082015266119959541bdbdb60ca1b60808201526d54726164696e675265776172647360901b60a08201527044656c6567617465417070726f76616c7360781b60c08201526524b9b9bab2b960d11b60e0820152620000c09060069060086200057a565b50348015620000d957600080620000d6620005c8565b50505b506040516200562338038062005623833981810160405260408110156200010a5760008062000107620005c8565b50505b810190808051929190602001805192508291506006905060186103006040519081016040529190610300830182845b816200014462000635565b815260200190600101908083116200013957508793505050506001600160a01b038116620001c35760405162461bcd60e51b815260206004820152601960248201527f4f776e657220616464726573732063616e6e6f74206265203000000000000000604482015260640160405180910390620001c0620005c8565b50505b806000600181620001d362000635565b816001600160a01b0302191690836001600160a01b0316021790620001f762000697565b5050507fb532073b38c83145e3e5135377a08bf9aab55bc0fd7c1179cd4fb995d2a5159c6000826040516001600160a01b039283168152911660208201526040908101905180910390a150600080806200025062000635565b906101000a90046001600160a01b03166001600160a01b03161415620002bb5760405162461bcd60e51b815260206004820152601160248201527013dddb995c881b5d5cdd081899481cd95d607a1b604482015260640160405180910390620002b8620005c8565b50505b60005b60188110156200034b576000828260188110620002d757fe5b6020020151146200033c576004828260188110620002f157fe5b602002015190806001816200030562000635565b0180826200031262000697565b50506000928352916000198301915060209020919291016200033362000697565b50505062000342565b6200034b565b600101620002be565b508160026001816200035c62000635565b816001600160a01b0302191690836001600160a01b03160217906200038062000697565b5050505050620003a86e466c657869626c6553746f7261676560881b620003b060201b60201c565b50506200081d565b80600480600181620003c162000635565b018082620003ce62000697565b5050600092835291600019830191506020902091929101620003ef62000697565b50505060186004806200040162000635565b905010620004605760405162461bcd60e51b815260206004820152601b60248201527f4d6178207265736f6c7665722063616368652073697a65206d657400000000006044820152606401604051809103906200045d620005c8565b50505b600060026200046e62000635565b906101000a90046001600160a01b03166001600160a01b03166321f8a721826040516001600160e01b031960e084901b16815260048101919091526024016020604051808303818680620004c1620006e6565b158015620004d957600080620004d6620005c8565b50505b505a620004e562000733565b505050505015801562000507573d6000803e3d600062000504620005c8565b50505b505050506040513d6020811015620005295760008062000526620005c8565b50505b81019080805160008581526003602052909350604092509050206001816200055062000635565b816001600160a01b0302191690836001600160a01b03160217906200057462000697565b50505050565b8260188101928215620005b6579160200282015b82811115620005b657825182620005a462000697565b5050916020019190600101906200058e565b50620005c4929150620007f0565b5090565b632a2a7adb598160e01b8152600481016020815285602082015260005b8681101562000602578086015182820160400152602001620005e5565b506020828760640184336000905af158600e01573d6000803e3d6000fd5b3d6001141558600a015760016000f35b505050565b6303daa959598160e01b8152836004820152602081602483336000905af158600e01573d6000803e3d6000fd5b3d6001141558600a015760016000f35b8051935060005b6040811015620006925760008282015260200162000679565b505050565b6322bd64c0598160e01b8152836004820152846024820152600081604483336000905af158600e01573d6000803e3d6000fd5b3d6001141558600a015760016000f35b60008152602062000679565b638435035b598160e01b8152836004820152602081602483336000905af158600e01573d6000803e3d6000fd5b3d6001141558600a015760016000f35b8051600082529350602062000679565b638540661f598160e01b8152836004820152846024820152606060448201528660648201526084810160005b88811015620007795780880151828201526020016200075f565b50876101040182016060838a6101040185336000905af158600e01573d6000803e3d6000fd5b3d6001141558600a015760016000f35b825160408401513d6000863e8c8c82606088013350600060045af15059855b81811015620007e45760008152602001620007ce565b50919c50505050505050565b6200081a91905b80821115620005c457600080826200080e62000697565b505050600101620007f7565b90565b614df6806200082d6000396000f3fe6080604052348015610019576000806100166148bc565b50505b50600436106101d85760003560e01c8063631e14441161010d578063ab49848c116100ab578063d6f32e061161007a578063d6f32e061461061b578063dfffca7614610650578063e3235c91146106a9578063f450aa34146106b1576101d8565b8063ab49848c14610580578063c193f0d8146105c1578063c6c9d828146105c9578063ce096940146105ef576101d8565b80637dd1a57a116100e75780637dd1a57a146104f157806386baa45c1461051757806389257117146105705780638da5cb5b14610578576101d8565b8063631e14441461046f5780636a1c47581461049e57806379ba5097146104e9576101d8565b80631b16802c1161017a5780633fa70f45116101545780633fa70f45146103e45780634c268fc8146103ec57806353a47bb71461042d57806357af302c14610435576101d8565b80631b16802c14610378578063372a395a146103ad5780633be99e6f146103b5576101d8565b80630b9e31c9116101b65780630b9e31c91461029c5780631627540c146102c457806319d5c665146102f35780631a5c60951461034c576101d8565b806304f3bcec146101e6578063059c29ec1461020a5780630a1e187d14610251575b6000806101e36148bc565b50505b6101ee6106e3565b6040516001600160a01b03909116815260200160405180910390f35b61023f60048036036040811015610229576000806102266148bc565b50505b506001600160a01b038135169060200135610702565b60405190815260200160405180910390f35b61023f600480360360a08110156102705760008061026d6148bc565b50505b506001600160a01b038135811691602081013591604082013591606081013591608090910135166107d4565b6102c2600480360360208110156102bb576000806102b86148bc565b50505b5035610932565b005b6102c2600480360360208110156102e3576000806102e06148bc565b50505b50356001600160a01b0316610c64565b610328600480360360408110156103125760008061030f6148bc565b50505b506001600160a01b038135169060200135610cde565b60405180848152602001838152602001828152602001935050505060405180910390f35b61023f6004803603604081101561036b576000806103686148bc565b50505b5080359060200135610cfc565b61032860048036036040811015610397576000806103946148bc565b50505b506001600160a01b038135169060200135610d08565b61023f610db1565b6102c2600480360360208110156103d4576000806103d16148bc565b50505b50356001600160a01b0316610dc0565b61023f610f8a565b61023f6004803603608081101561040b576000806104086148bc565b50505b506001600160a01b038135169060208101359060408101359060600135610f8f565b6101ee611123565b61045b60048036036020811015610454576000806104516148bc565b50505b503561112f565b604051901515815260200160405180910390f35b61045b6004803603602081101561048e5760008061048b6148bc565b50505b50356001600160a01b0316611186565b61023f600480360360a08110156104bd576000806104ba6148bc565b50505b506001600160a01b03813581169160208101359091169060408101359060608101359060800135611360565b6102c26115cd565b61023f600480360360208110156105105760008061050d6148bc565b50505b5035611750565b61023f600480360360e0811015610536576000806105336148bc565b50505b506001600160a01b038135811691602081013591604082013591606081013591608082013581169160a08101359091169060c0013561176b565b61023f6118d6565b6101ee6118e0565b6105886118eb565b604051808261030080838360005b838110156105ae578082015183820152602001610596565b5050505090500191505060405180910390f35b61045b61194d565b61023f600480360360208110156105e8576000806105e56148bc565b50505b5035611957565b6102c26004803603604081101561060e5760008061060b6148bc565b50505b508035906020013561197f565b61045b6004803603604081101561063a576000806106376148bc565b50505b506001600160a01b038135169060200135611a77565b61023f600480360360e081101561066f5760008061066c6148bc565b50505b506001600160a01b038135811691602081013582169160408201359160608101359160808201359160a08101359091169060c00135611aa9565b61023f611d21565b610328600480360360608110156106d0576000806106cd6148bc565b50505b5080359060208101359060400135611d26565b600060026106ef614927565b906101000a90046001600160a01b031681565b60006107cb61070f611d46565b6001600160a01b031663f1406dc885856040516001600160e01b031960e085901b1681526001600160a01b0390921660048301526024820152604401602060405180830381868061075e614982565b158015610773576000806107706148bc565b50505b505a61077d6149ce565b505050505015801561079c573d6000803e3d60006107996148bc565b50505b505050506040513d60208110156107bb576000806107b86148bc565b50505b8101908080519250611d95915050565b90505b92915050565b6000806107df611e04565b9050806001600160a01b03165a6107f4614a87565b6001600160a01b031614806108c5575060006001600160a01b0382166316b2213f5a61081e614a87565b6040516001600160e01b031960e084901b1681526001600160a01b0390911660048201526024016020604051808303818680610858614982565b15801561086d5760008061086a6148bc565b50505b505a6108776149ce565b5050505050158015610896573d6000803e3d60006108936148bc565b50505b505050506040513d60208110156108b5576000806108b26148bc565b50505b8101908080519390931415925050505b6109095760405162461bcd60e51b8152600401808060200182810382526045815260200180614d1c60459139606001915050604051809103906109066148bc565b50505b60006109188888888888611e4f565b909350905061092781856127c8565b505095945050505050565b61093a612894565b6001600160a01b031663086dabd16040518163ffffffff1660e01b8152600401600060405180830381868061096d614982565b1580156109825760008061097f6148bc565b50505b505a61098c6149ce565b50505050501580156109ab573d6000803e3d60006109a86148bc565b50505b5050505060006001600160a01b03166109c26128e2565b6001600160a01b03166332608039836040516001600160e01b031960e084901b16815260048101919091526024016020604051808303818680610a03614982565b158015610a1857600080610a156148bc565b50505b505a610a226149ce565b5050505050158015610a41573d6000803e3d6000610a3e6148bc565b50505b505050506040513d6020811015610a6057600080610a5d6148bc565b50505b8101908080516001600160a01b031693909314159250610ac29150505760405162461bcd60e51b815260206004820152600d60248201526c09cde40e6eac6d040e6f2dce8d609b1b604482015260640160405180910390610abf6148bc565b50505b610b7c81610ace612923565b6001600160a01b031663ac82f608846040516001600160e01b031960e084901b16815260048101919091526024016020604051808303818680610b0f614982565b158015610b2457600080610b216148bc565b50505b505a610b2e6149ce565b5050505050158015610b4d573d6000803e3d6000610b4a6148bc565b50505b505050506040513d6020811015610b6c57600080610b696148bc565b50505b8101908080519250612972915050565b610bcc5760405162461bcd60e51b815260206004820152601460248201527314de5b9d1a081c1c9a58d9481a5cc81d985b1a5960621b604482015260640160405180910390610bc96148bc565b50505b610bd4612894565b6001600160a01b031663abc0bb6e8260416040516001600160e01b031960e085901b1681526004810192909252602482015260440160006040518083038160008780610c1e614982565b158015610c3357600080610c306148bc565b50505b505a610c3d614acd565b505050505050158015610c5d573d6000803e3d6000610c5a6148bc565b50505b5050505050565b610c6c612c34565b8060018080610c79614927565b816001600160a01b0302191690836001600160a01b0316021790610c9b614b86565b5050507f906a1c6bd7e3091ea86693dd029a831c19049ce77f1dce2ce0bab1cacbabce22816040516001600160a01b03909116815260200160405180910390a150565b6000806000610ced8585612cae565b50919790965090945092505050565b60006107cb8383612fd7565b6000806000610d15612894565b6001600160a01b03166342a28e21856040516001600160e01b031960e084901b16815260048101919091526024016000604051808303818680610d56614982565b158015610d6b57600080610d686148bc565b50505b505a610d756149ce565b5050505050158015610d94573d6000803e3d6000610d916148bc565b50505b50505050610da485856001612fe2565b9250925092509250925092565b6000610dbb6133a8565b905090565b610dc8612c34565b806002600181610dd6614927565b816001600160a01b0302191690836001600160a01b0316021790610df8614b86565b5060009150505b600480610e0a614927565b9050811015610f8657600060048281610e21614927565b8110610e2957fe5b90600052602060002001610e3b614927565b905060006002610e49614927565b906101000a90046001600160a01b03166001600160a01b031663dacb2d01826040516001600160e01b031960e084901b1681526004810191909152604060248201819052601760448301527f5265736f6c766572206d697373696e6720746172676574000000000000000000606483015260849091019060209051808303818680610ed2614982565b158015610ee757600080610ee46148bc565b50505b505a610ef16149ce565b5050505050158015610f10573d6000803e3d6000610f0d6148bc565b50505b505050506040513d6020811015610f2f57600080610f2c6148bc565b50505b8101908080516000858152600360205290935060409250905020600181610f54614927565b816001600160a01b0302191690836001600160a01b0316021790610f76614b86565b505060019092019150610dff9050565b5050565b604181565b816000610f9a6128e2565b6001600160a01b03166332608039866040516001600160e01b031960e084901b16815260048101919091526024016020604051808303818680610fdb614982565b158015610ff057600080610fed6148bc565b50505b505a610ffa6149ce565b5050505050158015611019573d6000803e3d60006110166148bc565b50505b505050506040513d6020811015611038576000806110356148bc565b50505b8101908080516001600160a01b031692506370a0823191508890506040516001600160e01b031960e084901b1681526001600160a01b039091166004820152602401602060405180830381868061108d614982565b1580156110a25760008061109f6148bc565b50505b505a6110ac6149ce565b50505050501580156110cb573d6000803e3d60006110c86148bc565b50505b505050506040513d60208110156110ea576000806110e76148bc565b50505b810190808051935050505080821115611101578091505b821561111a57611117828463ffffffff61349516565b91505b50949350505050565b600060016106ef614927565b600061117e8261113d612923565b6001600160a01b031663ac82f608856040516001600160e01b031960e084901b16815260048101919091526024016020604051808303818680610b0f614982565b90505b919050565b60006001600160a01b03821681600261119d614927565b906101000a90046001600160a01b03166001600160a01b0316146111c357506000611181565b60005b6004806111d1614927565b9050811015611357576000600482816111e8614927565b81106111f057fe5b90600052602060002001611202614927565b600081815260036020529091506040902060009061121e614927565b6001600160a01b036101009290920a9004166000600261123c614927565b906101000a90046001600160a01b03166001600160a01b03166321f8a721836040516001600160e01b031960e084901b1681526004810191909152602401602060405180830381868061128d614982565b1580156112a25760008061129f6148bc565b50505b505a6112ac6149ce565b50505050501580156112cb573d6000803e3d60006112c86148bc565b50505b505050506040513d60208110156112ea576000806112e76148bc565b50505b8101908080516001600160a01b03169390931415925082915061133e905057506000818152600360205260408120600090611323614927565b906101000a90046001600160a01b03166001600160a01b0316145b1561134e57600092505050611181565b506001016111c6565b50600192915050565b60008061136b611e04565b9050806001600160a01b03165a611380614a87565b6001600160a01b03161480611451575060006001600160a01b0382166316b2213f5a6113aa614a87565b6040516001600160e01b031960e084901b1681526001600160a01b03909116600482015260240160206040518083038186806113e4614982565b1580156113f9576000806113f66148bc565b50505b505a6114036149ce565b5050505050158015611422573d6000803e3d600061141f6148bc565b50505b505050506040513d60208110156114415760008061143e6148bc565b50505b8101908080519390931415925050505b6114955760405162461bcd60e51b8152600401808060200182810382526045815260200180614d1c60459139606001915050604051809103906114926148bc565b50505b61149d6134fd565b6001600160a01b031663faf431bb88886040516001600160e01b031960e085901b1681526001600160a01b0392831660048201529116602482015260440160206040518083038186806114ee614982565b158015611503576000806115006148bc565b50505b505a61150d6149ce565b505050505015801561152c573d6000803e3d60006115296148bc565b50505b505050506040513d602081101561154b576000806115486148bc565b50505b81019080805192506115af9150505760405162461bcd60e51b815260206004820152601d60248201527f4e6f7420617070726f76656420746f20616374206f6e20626568616c660000006044820152606401604051809103906115ac6148bc565b50505b60006115be888787878c611e4f565b909350905061092781896127c8565b600060016115d9614927565b906101000a90046001600160a01b03166001600160a01b03165a6115fb614a87565b6001600160a01b0316146116495760405162461bcd60e51b8152600401808060200182810382526035815260200180614cc660359139604001915050604051809103906116466148bc565b50505b7fb532073b38c83145e3e5135377a08bf9aab55bc0fd7c1179cd4fb995d2a5159c600080611675614927565b906101000a90046001600160a01b03166001600090611692614927565b906101000a90046001600160a01b03166040516001600160a01b039283168152911660208201526040908101905180910390a1600060016116d1614927565b906101000a90046001600160a01b03166000806101000a816116f1614927565b816001600160a01b0302191690836001600160a01b0316021790611713614b86565b5050506000600160006101000a81611729614927565b816001600160a01b0302191690836001600160a01b031602179061174b614b86565b505050565b60056020528060005260406000209050611768614927565b81565b600080611776611e04565b9050806001600160a01b03165a61178b614a87565b6001600160a01b0316148061185c575060006001600160a01b0382166316b2213f5a6117b5614a87565b6040516001600160e01b031960e084901b1681526001600160a01b03909116600482015260240160206040518083038186806117ef614982565b158015611804576000806118016148bc565b50505b505a61180e6149ce565b505050505015801561182d573d6000803e3d600061182a6148bc565b50505b505050506040513d602081101561184c576000806118496148bc565b50505b8101908080519390931415925050505b6118a05760405162461bcd60e51b8152600401808060200182810382526045815260200180614d1c604591396060019150506040518091039061189d6148bc565b50505b60006118af8a8a8a8a8a611e4f565b90935090506118be81866127c8565b6118c9848885613533565b5050979650505050505050565b6000610dbb6135d4565b6000806106ef614927565b6118f3614bd4565b60005b600480611901614927565b90508110156119495760048181611916614927565b811061191e57fe5b90600052602060002001611930614927565b82826018811061193c57fe5b60200201526001016118f6565b5090565b6000610dbb61364a565b60048181611963614927565b811061196b57fe5b906000526020600020019050611768614927565b6000611989612923565b9050806001600160a01b03165a61199e614a87565b6001600160a01b031614611a015760405162461bcd60e51b815260206004820152601b60248201527f5265737472696374656420746f2045786368616e6765526174657300000000006044820152606401604051809103906119fe6148bc565b50505b60008211611a555760405162461bcd60e51b8152602060048201526014602482015273052617465206d7573742062652061626f766520360641b604482015260640160405180910390611a526148bc565b50505b600083815260056020528290604090208190611a6f614b86565b505050505050565b6000611a838383610702565b15611a90575060016107ce565b6000611a9c8484612cae565b5050501515949350505050565b600080611ab4611e04565b9050806001600160a01b03165a611ac9614a87565b6001600160a01b03161480611b9a575060006001600160a01b0382166316b2213f5a611af3614a87565b6040516001600160e01b031960e084901b1681526001600160a01b0390911660048201526024016020604051808303818680611b2d614982565b158015611b4257600080611b3f6148bc565b50505b505a611b4c6149ce565b5050505050158015611b6b573d6000803e3d6000611b686148bc565b50505b505050506040513d6020811015611b8a57600080611b876148bc565b50505b8101908080519390931415925050505b611bde5760405162461bcd60e51b8152600401808060200182810382526045815260200180614d1c6045913960600191505060405180910390611bdb6148bc565b50505b611be66134fd565b6001600160a01b031663faf431bb8a8a6040516001600160e01b031960e085901b1681526001600160a01b039283166004820152911660248201526044016020604051808303818680611c37614982565b158015611c4c57600080611c496148bc565b50505b505a611c566149ce565b5050505050158015611c75573d6000803e3d6000611c726148bc565b50505b505050506040513d6020811015611c9457600080611c916148bc565b50505b8101908080519250611cf89150505760405162461bcd60e51b815260206004820152601d60248201527f4e6f7420617070726f76656420746f20616374206f6e20626568616c66000000604482015260640160405180910390611cf56148bc565b50505b6000611d078a8989898e611e4f565b9093509050611d1681866127c8565b6118c9848785613533565b601881565b6000806000611d368686866136c4565b5092999198509650945050505050565b6000610dbb6c45786368616e6765537461746560981b60405160408082019052601d81527f4d697373696e672045786368616e67655374617465206164647265737300000060208201526137dd565b600080611da06135d4565b9050821580611dc65750611dba838263ffffffff61349516565b5a611dc3614bf1565b10155b15611dd5576000915050611181565b611dfd5a611de1614bf1565b611df1858463ffffffff61349516565b9063ffffffff6138a616565b9392505050565b6000610dbb680a6f2dce8d0cae8d2f60bb1b60405160408082019052601981527f4d697373696e672053796e74686574697820616464726573730000000000000060208201526137dd565b600080611e5d86868661390b565b600080611e6c89896000612fe2565b90935091508790508115611e9d57611e868a8a8a86610f8f565b905080611e9d5750600093508392506127be915050565b6000806000611ead848d8c6136c4565b939b50919950945092509050611ec38c83612972565b15611f7057611ed0612894565b6001600160a01b031663abc0bb6e8d60416040516001600160e01b031960e085901b1681526004810192909252602482015260440160006040518083038160008780611f1a614982565b158015611f2f57600080611f2c6148bc565b50505b505a611f39614acd565b505050505050158015611f59573d6000803e3d6000611f566148bc565b50505b5060009a508a99506127be98505050505050505050565b60008c815260056020528290604090208190611f8a614b86565b505050611f978a82612972565b15611fee57611fa4612894565b6001600160a01b031663abc0bb6e8b60416040516001600160e01b031960e085901b1681526004810192909252602482015260440160006040518083038160008780611f1a614982565b60008a815260056020528190604090208190612008614b86565b5050506120136128e2565b6001600160a01b031663326080398d6040516001600160e01b031960e084901b16815260048101919091526024016020604051808303818680612054614982565b158015612069576000806120666148bc565b50505b505a6120736149ce565b5050505050158015612092573d6000803e3d600061208f6148bc565b50505b505050506040513d60208110156120b1576000806120ae6148bc565b50505b8101908080516001600160a01b03169250639dc29fac91508f9050866040516001600160e01b031960e085901b1681526001600160a01b03909216600483015260248201526044016000604051808303816000878061210e614982565b158015612123576000806121206148bc565b50505b505a61212d614acd565b50505050505015801561214d573d6000803e3d600061214a6148bc565b50505b505050506121596128e2565b6001600160a01b031663326080398b6040516001600160e01b031960e084901b1681526004810191909152602401602060405180830381868061219a614982565b1580156121af576000806121ac6148bc565b50505b505a6121b96149ce565b50505050501580156121d8573d6000803e3d60006121d56148bc565b50505b505050506040513d60208110156121f7576000806121f46148bc565b50505b8101908080516001600160a01b0316925063867904b491508b90508a6040516001600160e01b031960e085901b1681526001600160a01b039092166004830152602482015260440160006040518083038160008780612254614982565b158015612269576000806122666148bc565b50505b505a612273614acd565b505050505050158015612293573d6000803e3d60006122906148bc565b50505b5050505060008711156125e8576122a8612923565b6001600160a01b031663654a60ac8b89631cd554d160e21b6040516001600160e01b031960e086901b16815260048101939093526024830191909152604482015260640160206040518083038186806122ff614982565b158015612314576000806123116148bc565b50505b505a61231e6149ce565b505050505015801561233d573d6000803e3d600061233a6148bc565b50505b505050506040513d602081101561235c576000806123596148bc565b50505b810190808051995061237192506128e2915050565b6001600160a01b03166332608039631cd554d160e21b6040516001600160e01b031960e084901b168152600481019190915260240160206040518083038186806123b9614982565b1580156123ce576000806123cb6148bc565b50505b505a6123d86149ce565b50505050501580156123f7573d6000803e3d60006123f46148bc565b50505b505050506040513d6020811015612416576000806124136148bc565b50505b8101908080516001600160a01b0316925063867904b491506124389050613b41565b6001600160a01b031663eb1edd616040518163ffffffff1660e01b8152600401602060405180830381868061246b614982565b1580156124805760008061247d6148bc565b50505b505a61248a6149ce565b50505050501580156124a9573d6000803e3d60006124a66148bc565b50505b505050506040513d60208110156124c8576000806124c56148bc565b50505b81019080805192508b915060409050516001600160e01b031960e085901b1681526001600160a01b039092166004830152602482015260440160006040518083038160008780612516614982565b15801561252b576000806125286148bc565b50505b505a612535614acd565b505050505050158015612555573d6000803e3d60006125526148bc565b50505b50505050612561613b41565b6001600160a01b03166322bf55ef886040516001600160e01b031960e084901b1681526004810191909152602401600060405180830381600087806125a4614982565b1580156125b9576000806125b66148bc565b50505b505a6125c3614acd565b5050505050501580156125e3573d6000803e3d60006125e06148bc565b50505b505050505b6125f06128e2565b6001600160a01b0316639e342f71604051604080820181528f8252602082018e9052516040808201815286825260208201869052516001600160e01b031960e085901b1681526004018083604080838360005b8381101561265b578082015183820152602001612643565b5050505090500182600260200280838360005b8381101561268657808201518382015260200161266e565b5050505090500192505050600060405180830381600087806126a6614982565b1580156126bb576000806126b86148bc565b50505b505a6126c5614acd565b5050505050501580156126e5573d6000803e3d60006126e26148bc565b50505b505050506126f1611e04565b6001600160a01b0316636c00f3108e8e878e8d8f6040516001600160e01b031960e089901b1681526001600160a01b039687166004820152602481019590955260448501939093526064840191909152608483015290911660a482015260c40160006040518083038160008780612766614982565b15801561277b576000806127786148bc565b50505b505a612785614acd565b5050505050501580156127a5573d6000803e3d60006127a26148bc565b50505b505050506127b7898d868d8c88613b8a565b5050505050505b9550959350505050565b6000821180156127e057506001600160a01b03811615155b80156127ef57506127ef61364a565b15610f86576127fc613e47565b6001600160a01b03166321cad77483836040516001600160e01b031960e085901b16815260048101929092526001600160a01b031660248201526044016000604051808303816000878061284e614982565b158015612863576000806128606148bc565b50505b505a61286d614acd565b505050505050158015611a6f573d6000803e3d600061288a6148bc565b5050505050505050565b6000610dbb6b53797374656d53746174757360a01b60405160408082019052601c81527f4d697373696e672053797374656d53746174757320616464726573730000000060208201526137dd565b6000610dbb6524b9b9bab2b960d11b6040516040808201905260168152754d697373696e6720497373756572206164647265737360501b60208201526137dd565b6000610dbb6c45786368616e6765526174657360981b60405160408082019052601d81527f4d697373696e672045786368616e67655261746573206164647265737300000060208201526137dd565b600081612981575060016107ce565b6000838152600560205260408120612997614927565b905080156129b1576129a98184613e97565b9150506107ce565b60606129bb612923565b6001600160a01b0316632d7371e18660046040516001600160e01b031960e085901b168152600481019290925260248201526044016000604051808303818680612a03614982565b158015612a1857600080612a156148bc565b50505b505a612a226149ce565b5050505050158015612a41573d6000803e3d6000612a3e6148bc565b50505b505050506040513d6000823e601f3d908101601f191682016040908152811015612a7357600080612a706148bc565b50505b8101908080516040519392919084640100000000821115612a9c57600080612a996148bc565b50505b908301906020820185811115612aba57600080612ab76148bc565b50505b8251866020820283011164010000000082111715612ae057600080612add6148bc565b50505b825250602001908051906020019060200280838360005b83811015612b0f578082015183820152602001612af7565b5050505090500160405260200180516040519392919084640100000000821115612b4157600080612b3e6148bc565b50505b908301906020820185811115612b5f57600080612b5c6148bc565b50505b8251866020820283011164010000000082111715612b8557600080612b826148bc565b50505b825250602001908051906020019060200280838360005b83811015612bb4578082015183820152602001612b9c565b505050509050016040525050505090506000600190505b8151811015612c28576000828281518110612be257fe5b6020026020010151118015612c0f5750612c0f828281518110612c0157fe5b602002602001015186613e97565b15612c2057600193505050506107ce565b600101612bcb565b50600095945050505050565b600080612c3f614927565b906101000a90046001600160a01b03166001600160a01b03165a612c61614a87565b6001600160a01b031614612cac5760405162461bcd60e51b815260040180806020018281038252602f815260200180614d61602f913960400191505060405180910390610f866148bc565b565b60008060006060612cbd611d46565b6001600160a01b031663b44e975387876040516001600160e01b031960e085901b1681526001600160a01b03909216600483015260248201526044016020604051808303818680612d0c614982565b158015612d2157600080612d1e6148bc565b50505b505a612d2b6149ce565b5050505050158015612d4a573d6000803e3d6000612d476148bc565b50505b505050506040513d6020811015612d6957600080612d666148bc565b50505b8101908080519450606092508491506040905051908082528060200260200182016040528015612db357816020015b612da0614c37565b815260200190600190039081612d985790505b50905060005b83811015612fcb57600080612dcc614c37565b612dd78b8b86613ef6565b9050600080612de583614068565b915091506000612df3612923565b6001600160a01b031663266da16b85518660200151876040015187876040516001600160e01b031960e088901b1681526004810195909552602485019390935260448401919091526064830152608482015260a4016020604051808303818680612e5b614982565b158015612e7057600080612e6d6148bc565b50505b505a612e7a6149ce565b5050505050158015612e99573d6000803e3d6000612e966148bc565b50505b505050506040513d6020811015612eb857600080612eb56148bc565b50505b810190808051935060009250612ed69150839050608087015161421f565b9050612ee6856060015182613e97565b612f5a578085606001511115612f2457612f0b8186606001519063ffffffff6138a616565b9650612f1d8d8863ffffffff61349516565b9c50612f5a565b8460600151811115612f5a57612f458560600151829063ffffffff6138a616565b9550612f578c8763ffffffff61349516565b9b505b6040516101008101604052808651815260200186602001518152602001866040015181526020018881526020018781526020018581526020018481526020018660a001519052898981518110612fac57fe5b6020026020010181905250505050505050508080600101915050612db9565b50905092959194509250565b60006107cb826142e8565b6000806000612ff18686610702565b156130365760405162461bcd60e51b8152600401808060200182810382526023815260200180614dd360239139604001915050604051809103906130336148bc565b50505b600080600060606130478a8a612cae565b93509350935093508284111561307957613067848463ffffffff6138a616565b96506130748a8a896143f6565b61309e565b8383111561309e57613091838563ffffffff6138a616565b955061309e8a8a8861459e565b87156131b957606060016040519080825280602002602001820160405280156130d1578160200160208202803883390190505b50905089816000815181106130e257fe5b6020026020010181815250506130f66128e2565b6001600160a01b031663fe1d77e7826040518263ffffffff1660e01b81526004018080602001828103825283818151815260200191508051906020019060200280838360005b8381101561315457808201518382015260200161313c565b505050509050019250505060006040518083038160008780613174614982565b158015613189576000806131866148bc565b50505b505a613193614acd565b5050505050501580156131b3573d6000803e3d60006131b06148bc565b50505b50505050505b60005b81518110156132fb578a6001600160a01b03167f8e3ad1f68bec55de3b6fa12ae2674a2a683a17c918a4cbf5157ac5d9ddc6e9408383815181106131fc57fe5b60200260200101515184848151811061321157fe5b60200260200101516020015185858151811061322957fe5b60200260200101516040015186868151811061324157fe5b60200260200101516060015187878151811061325957fe5b60200260200101516080015188888151811061327157fe5b602002602001015160a0015189898151811061328957fe5b602002602001015160c001518a8a815181106132a157fe5b602002602001015160e00151604051808981526020018881526020018781526020018681526020018581526020018481526020018381526020018281526020019850505050505050505060405180910390a26001016131bc565b50819450613307611d46565b6001600160a01b031663d0d3d62a8b8b6040516001600160e01b031960e085901b1681526001600160a01b039092166004830152602482015260440160006040518083038160008780613358614982565b15801561336d5760008061336a6148bc565b50505b505a613377614acd565b505050505050158015613397573d6000803e3d60006133946148bc565b50505b505050505050505093509350939050565b60006133b2614746565b6001600160a01b03166323257c2b6d53797374656d53657474696e677360901b7f7072696365446576696174696f6e5468726573686f6c64466163746f720000006040516001600160e01b031960e085901b16815260048101929092526024820152604401602060405180830381868061342a614982565b15801561343f5760008061343c6148bc565b50505b505a6134496149ce565b5050505050158015613468573d6000803e3d60006134656148bc565b50505b505050506040513d6020811015613487576000806134846148bc565b50505b810190808051935050505090565b6000828201838110156107cb5760405162461bcd60e51b815260206004820152601b60248201527f536166654d6174683a206164646974696f6e206f766572666c6f7700000000006044820152606401604051809103906134f46148bc565b50509392505050565b6000610dbb7044656c6567617465417070726f76616c7360781b604051606081016040526021808252614cfb60208301396137dd565b61353b611e04565b6001600160a01b031663ddd03a3f8484846040516001600160e01b031960e086901b1681526004810193909352602483019190915260448201526064016000604051808303816000878061358d614982565b1580156135a25760008061359f6148bc565b50505b505a6135ac614acd565b505050505050158015610c5a573d6000803e3d60006135c96148bc565b505050505050505050565b60006135de614746565b6001600160a01b03166323257c2b6d53797374656d53657474696e677360901b7077616974696e67506572696f645365637360781b6040516001600160e01b031960e085901b16815260048101929092526024820152604401602060405180830381868061342a614982565b6000613654614746565b6001600160a01b031663d994502d6d53797374656d53657474696e677360901b741d1c98591a5b99d4995dd85c991cd15b98589b1959605a1b6040516001600160e01b031960e085901b16815260048101929092526024820152604401602060405180830381868061342a614982565b6000806000806000806136d5612923565b6001600160a01b0316638295016a898b8a6040516001600160e01b031960e086901b1681526004810193909352602483019190915260448201526064016060604051808303818680613725614982565b15801561373a576000806137376148bc565b50505b505a6137446149ce565b5050505050158015613763573d6000803e3d60006137606148bc565b50505b505050506040513d60608110156137825760008061377f6148bc565b50505b810190808051929190602001805192919060200180519397509295509293506137b192508a9150899050612fd7565b93506137bd818561421f565b95506137cf818763ffffffff6138a616565b945050939792965093509350565b6000828152600360205280604081206000906137f7614927565b6001600160a01b036101009290920a9004169050828161389e5760405162461bcd60e51b81526004018080602001828103825283818151815260200191508051906020019080838360005b8381101561385a578082015183820152602001613842565b50505050905090810190601f1680156138875780820380516001836020036101000a031916815260200191505b50925050506040518091039061389b6148bc565b50505b509392505050565b6000828211156139055760405162461bcd60e51b815260206004820152601e60248201527f536166654d6174683a207375627472616374696f6e206f766572666c6f7700006044820152606401604051809103906139026148bc565b50505b50900390565b8083141561395e5760405162461bcd60e51b8152602060048201526013602482015272086c2dc4ee840c4ca40e6c2daca40e6f2dce8d606b1b60448201526064016040518091039061395b6148bc565b50505b600082116139a95760405162461bcd60e51b815260206004820152600b60248201526a16995c9bc8185b5bdd5b9d60aa1b6044820152606401604051809103906139a66148bc565b50505b606060026040519080825280602002602001820160405280156139d6578160200160208202803883390190505b50905083816000815181106139e757fe5b6020026020010181815250508181600181518110613a0157fe5b602002602001018181525050613a15612923565b6001600160a01b0316630a7d36d1826040518263ffffffff1660e01b81526004018080602001828103825283818151815260200191508051906020019060200280838360005b83811015613a73578082015183820152602001613a5b565b50505050905001925050506020604051808303818680613a91614982565b158015613aa657600080613aa36148bc565b50505b505a613ab06149ce565b5050505050158015613acf573d6000803e3d6000613acc6148bc565b50505b505050506040513d6020811015613aee57600080613aeb6148bc565b50505b810190808051159250613b3b9150505760405162461bcd60e51b8152600401808060200182810382526022815260200180614db16022913960400191505060405180910390611a6f6148bc565b50505050565b6000610dbb66119959541bdbdb60ca1b60405160408082019052601781527f4d697373696e6720466565506f6f6c206164647265737300000000000000000060208201526137dd565b6000613b94612923565b90506000816001600160a01b0316637a018a1e886040516001600160e01b031960e084901b16815260048101919091526024016020604051808303818680613bda614982565b158015613bef57600080613bec6148bc565b50505b505a613bf96149ce565b5050505050158015613c18573d6000803e3d6000613c156148bc565b50505b505050506040513d6020811015613c3757600080613c346148bc565b50505b81019080805193506000925050506001600160a01b038316637a018a1e876040516001600160e01b031960e084901b16815260048101919091526024016020604051808303818680613c87614982565b158015613c9c57600080613c996148bc565b50505b505a613ca66149ce565b5050505050158015613cc5573d6000803e3d6000613cc26148bc565b50505b505050506040513d6020811015613ce457600080613ce16148bc565b50505b8101908080519350613cf99250611d46915050565b6001600160a01b0316633ca9d85c8a8a8a8a8a8a5a613d16614bf1565b8a8a6040516001600160e01b031960e08c901b1681526001600160a01b0390991660048a0152602489019790975260448801959095526064870193909352608486019190915260a485015260c484015260e48301526101048201526101240160006040518083038160008780613d8a614982565b158015613d9f57600080613d9c6148bc565b50505b505a613da9614acd565b505050505050158015613dc9573d6000803e3d6000613dc66148bc565b50505b50505050886001600160a01b03167f62e40d554c7abcdd31074960d8347a2225daeb04d93bc748f049ba2ce94623988989898989888860405196875260208701959095526040808701949094526060860192909252608085015260a084015260c083019190915260e0909101905180910390a2505050505050505050565b6000610dbb6d54726164696e675265776172647360901b60405160408082019052601e81527f4d697373696e672054726164696e67526577617264732061646472657373000060208201526137dd565b6000821580613ea4575081155b15613eb1575060016107ce565b600083831115613ed257613ecb838563ffffffff61479716565b9050613ee5565b613ee2848463ffffffff61479716565b90505b613eed6133a8565b11159392505050565b613efe614c37565b600080600080600080600080613f12611d46565b6001600160a01b03166315987eb68d8d8d6040516001600160e01b031960e086901b1681526001600160a01b03909316600484015260248301919091526044820152606401610100604051808303818680613f6b614982565b158015613f8057600080613f7d6148bc565b50505b505a613f8a6149ce565b5050505050158015613fa9573d6000803e3d6000613fa66148bc565b50505b505050506040513d610100811015613fc957600080613fc66148bc565b50505b8101908080519291906020018051929190602001805192919060200180519291906020018051929190602001805192919060200180519291906020018051906020019092919050505097509750975097509750975097509750604051610100810160409081529881526020810197909752968601949094526060850192909252608084015260a083015260c082015260e0810191909152949350505050565b6000806000614075612923565b905060006140816135d4565b90506001600160a01b03821663109e46a286518760c001518860a00151856040516001600160e01b031960e087901b168152600481019490945260248401929092526044830152606482015260840160206040518083038186806140e3614982565b1580156140f8576000806140f56148bc565b50505b505a6141026149ce565b5050505050158015614121573d6000803e3d600061411e6148bc565b50505b505050506040513d60208110156141405760008061413d6148bc565b50505b810190808051965050506001600160a01b038316905063109e46a260408701518760e001518860a00151856040516001600160e01b031960e087901b168152600481019490945260248401929092526044830152606482015260840160206040518083038186806141af614982565b1580156141c4576000806141c16148bc565b50505b505a6141ce6149ce565b50505050501580156141ed573d6000803e3d60006141ea6148bc565b50505b505050506040513d602081101561420c576000806142096148bc565b50505b8101908080519698969750505050505050565b60006107cb6142db8373__$cc56be524fc9a50cd50be137f56c651270$__63907af6c06040518163ffffffff1660e01b81526004016020604051808303818680614267614982565b15801561427c576000806142796148bc565b50505b505a614286614c82565b50505050501580156142a5573d6000803e3d60006142a26148bc565b50505b505050506040513d60208110156142c4576000806142c16148bc565b50505b8101908080519392505063ffffffff6138a6169050565b849063ffffffff6147c116565b60006142f2614746565b6001600160a01b03166323257c2b6d53797374656d53657474696e677360901b6e65786368616e67654665655261746560881b856040516020018083815260200182815260200192505050604051602081830303815290604052805190602001206040516001600160e01b031960e085901b16815260048101929092526024820152604401602060405180830381868061438a614982565b15801561439f5760008061439c6148bc565b50505b505a6143a96149ce565b50505050501580156143c8573d6000803e3d60006143c56148bc565b50505b505050506040513d60208110156143e7576000806143e46148bc565b50505b81019080805195945050505050565b6143fe6128e2565b6001600160a01b03166332608039836040516001600160e01b031960e084901b1681526004810191909152602401602060405180830381868061443f614982565b158015614454576000806144516148bc565b50505b505a61445e6149ce565b505050505015801561447d573d6000803e3d600061447a6148bc565b50505b505050506040513d602081101561449c576000806144996148bc565b50505b8101908080516001600160a01b03169250639dc29fac9150859050836040516001600160e01b031960e085901b1681526001600160a01b0390921660048301526024820152604401600060405180830381600087806144f9614982565b15801561450e5760008061450b6148bc565b50505b505a614518614acd565b505050505050158015614538573d6000803e3d60006145356148bc565b50505b50505050614544611e04565b6001600160a01b031663ace88afd8484846040516001600160e01b031960e086901b1681526001600160a01b039093166004840152602483019190915260448201526064016000604051808303816000878061358d614982565b6145a66128e2565b6001600160a01b03166332608039836040516001600160e01b031960e084901b168152600481019190915260240160206040518083038186806145e7614982565b1580156145fc576000806145f96148bc565b50505b505a6146066149ce565b5050505050158015614625573d6000803e3d60006146226148bc565b50505b505050506040513d6020811015614644576000806146416148bc565b50505b8101908080516001600160a01b0316925063867904b49150859050836040516001600160e01b031960e085901b1681526001600160a01b0390921660048301526024820152604401600060405180830381600087806146a1614982565b1580156146b6576000806146b36148bc565b50505b505a6146c0614acd565b5050505050501580156146e0573d6000803e3d60006146dd6148bc565b50505b505050506146ec611e04565b6001600160a01b0316636f01a9868484846040516001600160e01b031960e086901b1681526001600160a01b039093166004840152602483019190915260448201526064016000604051808303816000878061358d614982565b6000610dbb6e466c657869626c6553746f7261676560881b60405160408082019052601f81527f4d697373696e6720466c657869626c6553746f7261676520616464726573730060208201526137dd565b60006107cb826147b585670de0b6b3a764000063ffffffff6147eb16565b9063ffffffff61484a16565b6000670de0b6b3a76400006147dc848463ffffffff6147eb16565b816147e357fe5b049392505050565b6000826147fa575060006107ce565b8282028284828161480757fe5b04146107cb5760405162461bcd60e51b8152600401808060200182810382526021815260200180614d9060219139604001915050604051809103906134f46148bc565b60008082116148a85760405162461bcd60e51b815260206004820152601a60248201527f536166654d6174683a206469766973696f6e206279207a65726f0000000000006044820152606401604051809103906148a56148bc565b50505b60008284816148b357fe5b04949350505050565b632a2a7adb598160e01b8152600481016020815285602082015260005b868110156148f45780860151828201604001526020016148d9565b506020828760640184336000905af158600e01573d6000803e3d6000fd5b3d6001141558600a015760016000f35b505050565b6303daa959598160e01b8152836004820152602081602483336000905af158600e01573d6000803e3d6000fd5b3d6001141558600a015760016000f35b8051935060005b604081101561174b5760008282015260200161496b565b638435035b598160e01b8152836004820152602081602483336000905af158600e01573d6000803e3d6000fd5b3d6001141558600a015760016000f35b8051600082529350602061496b565b638540661f598160e01b8152836004820152846024820152606060448201528660648201526084810160005b88811015614a125780880151828201526020016149fa565b50876101040182016060838a6101040185336000905af158600e01573d6000803e3d6000fd5b3d6001141558600a015760016000f35b825160408401513d6000863e8c8c82606088013350600060045af15059855b81811015614a7b5760008152602001614a67565b50919c50505050505050565b6373509064598160e01b8152602081600483336000905af158600e01573d6000803e3d6000fd5b3d6001141558600a015760016000f35b8051600082529350602061496b565b6385979f76598160e01b8152836004820152846024820152606060448201528760648201526084810160005b89811015614b11578089015182820152602001614af9565b50886101040182016060838b6101040185336000905af158600e01573d6000803e3d6000fd5b3d6001141558600a015760016000f35b825160408401513d6000863e8d8d82606088013350600060045af15059855b81811015614b7a5760008152602001614b66565b50919d50505050505050565b6322bd64c0598160e01b8152836004820152846024820152600081604483336000905af158600e01573d6000803e3d6000fd5b3d6001141558600a015760016000f35b60008152602061496b565b604051610300808201604052601890829080388339509192915050565b63bdbf8c36598160e01b8152602081600483336000905af158600e01573d6000803e3d6000fd5b3d6001141558600a015760016000f35b8051600082529350602061496b565b60405180610100016040528060008019168152602001600081526020016000801916815260200160008152602001600081526020016000815260200160008152602001600081525090565b63ffe73914598160e01b81528360048201528460248201526060604482015286606482015260848101600088811015614a125780880151828201526020016149fa56fe596f75206d757374206265206e6f6d696e61746564206265666f726520796f752063616e20616363657074206f776e6572736869704d697373696e672044656c6567617465417070726f76616c73206164647265737345786368616e6765723a204f6e6c792073796e746865746978206f7220612073796e746820636f6e74726163742063616e20706572666f726d207468697320616374696f6e4f6e6c792074686520636f6e7472616374206f776e6572206d617920706572666f726d207468697320616374696f6e536166654d6174683a206d756c7469706c69636174696f6e206f766572666c6f775372632f64657374207261746520696e76616c6964206f72206e6f7420666f756e6443616e6e6f7420736574746c6520647572696e672077616974696e6720706572696f64",
			"opcodes": "PUSH1 0x80 PUSH1 0x40 MSTORE PUSH1 0x40 MLOAD PUSH2 0x100 DUP2 ADD PUSH1 0x40 SWAP1 DUP2 MSTORE PUSH12 0x53797374656D537461747573 PUSH1 0xA0 SHL DUP3 MSTORE PUSH13 0x45786368616E67655374617465 PUSH1 0x98 SHL PUSH1 0x20 DUP4 ADD MSTORE PUSH13 0x45786368616E67655261746573 PUSH1 0x98 SHL SWAP1 DUP3 ADD MSTORE PUSH9 0xA6F2DCE8D0CAE8D2F PUSH1 0xBB SHL PUSH1 0x60 DUP3 ADD MSTORE PUSH7 0x119959541BDBDB PUSH1 0xCA SHL PUSH1 0x80 DUP3 ADD MSTORE PUSH14 0x54726164696E6752657761726473 PUSH1 0x90 SHL PUSH1 0xA0 DUP3 ADD MSTORE PUSH17 0x44656C6567617465417070726F76616C73 PUSH1 0x78 SHL PUSH1 0xC0 DUP3 ADD MSTORE PUSH6 0x24B9B9BAB2B9 PUSH1 0xD1 SHL PUSH1 0xE0 DUP3 ADD MSTORE PUSH3 0xC0 SWAP1 PUSH1 0x6 SWAP1 PUSH1 0x8 PUSH3 0x57A JUMP JUMPDEST POP CALLVALUE DUP1 ISZERO PUSH3 0xD9 JUMPI PUSH1 0x0 DUP1 PUSH3 0xD6 PUSH3 0x5C8 JUMP JUMPDEST POP POP JUMPDEST POP PUSH1 0x40 MLOAD PUSH3 0x5623 CODESIZE SUB DUP1 PUSH3 0x5623 DUP4 CODECOPY DUP2 DUP2 ADD PUSH1 0x40 MSTORE PUSH1 0x40 DUP2 LT ISZERO PUSH3 0x10A JUMPI PUSH1 0x0 DUP1 PUSH3 0x107 PUSH3 0x5C8 JUMP JUMPDEST POP POP JUMPDEST DUP2 ADD SWAP1 DUP1 DUP1 MLOAD SWAP3 SWAP2 SWAP1 PUSH1 0x20 ADD DUP1 MLOAD SWAP3 POP DUP3 SWAP2 POP PUSH1 0x6 SWAP1 POP PUSH1 0x18 PUSH2 0x300 PUSH1 0x40 MLOAD SWAP1 DUP2 ADD PUSH1 0x40 MSTORE SWAP2 SWAP1 PUSH2 0x300 DUP4 ADD DUP3 DUP5 JUMPDEST DUP2 PUSH3 0x144 PUSH3 0x635 JUMP JUMPDEST DUP2 MSTORE PUSH1 0x20 ADD SWAP1 PUSH1 0x1 ADD SWAP1 DUP1 DUP4 GT PUSH3 0x139 JUMPI POP DUP8 SWAP4 POP POP POP POP PUSH1 0x1 PUSH1 0x1 PUSH1 0xA0 SHL SUB DUP2 AND PUSH3 0x1C3 JUMPI PUSH1 0x40 MLOAD PUSH3 0x461BCD PUSH1 0xE5 SHL DUP2 MSTORE PUSH1 0x20 PUSH1 0x4 DUP3 ADD MSTORE PUSH1 0x19 PUSH1 0x24 DUP3 ADD MSTORE PUSH32 0x4F776E657220616464726573732063616E6E6F74206265203000000000000000 PUSH1 0x44 DUP3 ADD MSTORE PUSH1 0x64 ADD PUSH1 0x40 MLOAD DUP1 SWAP2 SUB SWAP1 PUSH3 0x1C0 PUSH3 0x5C8 JUMP JUMPDEST POP POP JUMPDEST DUP1 PUSH1 0x0 PUSH1 0x1 DUP2 PUSH3 0x1D3 PUSH3 0x635 JUMP JUMPDEST DUP2 PUSH1 0x1 PUSH1 0x1 PUSH1 0xA0 SHL SUB MUL NOT AND SWAP1 DUP4 PUSH1 0x1 PUSH1 0x1 PUSH1 0xA0 SHL SUB AND MUL OR SWAP1 PUSH3 0x1F7 PUSH3 0x697 JUMP JUMPDEST POP POP POP PUSH32 0xB532073B38C83145E3E5135377A08BF9AAB55BC0FD7C1179CD4FB995D2A5159C PUSH1 0x0 DUP3 PUSH1 0x40 MLOAD PUSH1 0x1 PUSH1 0x1 PUSH1 0xA0 SHL SUB SWAP3 DUP4 AND DUP2 MSTORE SWAP2 AND PUSH1 0x20 DUP3 ADD MSTORE PUSH1 0x40 SWAP1 DUP2 ADD SWAP1 MLOAD DUP1 SWAP2 SUB SWAP1 LOG1 POP PUSH1 0x0 DUP1 DUP1 PUSH3 0x250 PUSH3 0x635 JUMP JUMPDEST SWAP1 PUSH2 0x100 EXP SWAP1 DIV PUSH1 0x1 PUSH1 0x1 PUSH1 0xA0 SHL SUB AND PUSH1 0x1 PUSH1 0x1 PUSH1 0xA0 SHL SUB AND EQ ISZERO PUSH3 0x2BB JUMPI PUSH1 0x40 MLOAD PUSH3 0x461BCD PUSH1 0xE5 SHL DUP2 MSTORE PUSH1 0x20 PUSH1 0x4 DUP3 ADD MSTORE PUSH1 0x11 PUSH1 0x24 DUP3 ADD MSTORE PUSH17 0x13DDDB995C881B5D5CDD081899481CD95D PUSH1 0x7A SHL PUSH1 0x44 DUP3 ADD MSTORE PUSH1 0x64 ADD PUSH1 0x40 MLOAD DUP1 SWAP2 SUB SWAP1 PUSH3 0x2B8 PUSH3 0x5C8 JUMP JUMPDEST POP POP JUMPDEST PUSH1 0x0 JUMPDEST PUSH1 0x18 DUP2 LT ISZERO PUSH3 0x34B JUMPI PUSH1 0x0 DUP3 DUP3 PUSH1 0x18 DUP2 LT PUSH3 0x2D7 JUMPI INVALID JUMPDEST PUSH1 0x20 MUL ADD MLOAD EQ PUSH3 0x33C JUMPI PUSH1 0x4 DUP3 DUP3 PUSH1 0x18 DUP2 LT PUSH3 0x2F1 JUMPI INVALID JUMPDEST PUSH1 0x20 MUL ADD MLOAD SWAP1 DUP1 PUSH1 0x1 DUP2 PUSH3 0x305 PUSH3 0x635 JUMP JUMPDEST ADD DUP1 DUP3 PUSH3 0x312 PUSH3 0x697 JUMP JUMPDEST POP POP PUSH1 0x0 SWAP3 DUP4 MSTORE SWAP2 PUSH1 0x0 NOT DUP4 ADD SWAP2 POP PUSH1 0x20 SWAP1 KECCAK256 SWAP2 SWAP3 SWAP2 ADD PUSH3 0x333 PUSH3 0x697 JUMP JUMPDEST POP POP POP PUSH3 0x342 JUMP JUMPDEST PUSH3 0x34B JUMP JUMPDEST PUSH1 0x1 ADD PUSH3 0x2BE JUMP JUMPDEST POP DUP2 PUSH1 0x2 PUSH1 0x1 DUP2 PUSH3 0x35C PUSH3 0x635 JUMP JUMPDEST DUP2 PUSH1 0x1 PUSH1 0x1 PUSH1 0xA0 SHL SUB MUL NOT AND SWAP1 DUP4 PUSH1 0x1 PUSH1 0x1 PUSH1 0xA0 SHL SUB AND MUL OR SWAP1 PUSH3 0x380 PUSH3 0x697 JUMP JUMPDEST POP POP POP POP POP PUSH3 0x3A8 PUSH15 0x466C657869626C6553746F72616765 PUSH1 0x88 SHL PUSH3 0x3B0 PUSH1 0x20 SHL PUSH1 0x20 SHR JUMP JUMPDEST POP POP PUSH3 0x81D JUMP JUMPDEST DUP1 PUSH1 0x4 DUP1 PUSH1 0x1 DUP2 PUSH3 0x3C1 PUSH3 0x635 JUMP JUMPDEST ADD DUP1 DUP3 PUSH3 0x3CE PUSH3 0x697 JUMP JUMPDEST POP POP PUSH1 0x0 SWAP3 DUP4 MSTORE SWAP2 PUSH1 0x0 NOT DUP4 ADD SWAP2 POP PUSH1 0x20 SWAP1 KECCAK256 SWAP2 SWAP3 SWAP2 ADD PUSH3 0x3EF PUSH3 0x697 JUMP JUMPDEST POP POP POP PUSH1 0x18 PUSH1 0x4 DUP1 PUSH3 0x401 PUSH3 0x635 JUMP JUMPDEST SWAP1 POP LT PUSH3 0x460 JUMPI PUSH1 0x40 MLOAD PUSH3 0x461BCD PUSH1 0xE5 SHL DUP2 MSTORE PUSH1 0x20 PUSH1 0x4 DUP3 ADD MSTORE PUSH1 0x1B PUSH1 0x24 DUP3 ADD MSTORE PUSH32 0x4D6178207265736F6C7665722063616368652073697A65206D65740000000000 PUSH1 0x44 DUP3 ADD MSTORE PUSH1 0x64 ADD PUSH1 0x40 MLOAD DUP1 SWAP2 SUB SWAP1 PUSH3 0x45D PUSH3 0x5C8 JUMP JUMPDEST POP POP JUMPDEST PUSH1 0x0 PUSH1 0x2 PUSH3 0x46E PUSH3 0x635 JUMP JUMPDEST SWAP1 PUSH2 0x100 EXP SWAP1 DIV PUSH1 0x1 PUSH1 0x1 PUSH1 0xA0 SHL SUB AND PUSH1 0x1 PUSH1 0x1 PUSH1 0xA0 SHL SUB AND PUSH4 0x21F8A721 DUP3 PUSH1 0x40 MLOAD PUSH1 0x1 PUSH1 0x1 PUSH1 0xE0 SHL SUB NOT PUSH1 0xE0 DUP5 SWAP1 SHL AND DUP2 MSTORE PUSH1 0x4 DUP2 ADD SWAP2 SWAP1 SWAP2 MSTORE PUSH1 0x24 ADD PUSH1 0x20 PUSH1 0x40 MLOAD DUP1 DUP4 SUB DUP2 DUP7 DUP1 PUSH3 0x4C1 PUSH3 0x6E6 JUMP JUMPDEST ISZERO DUP1 ISZERO PUSH3 0x4D9 JUMPI PUSH1 0x0 DUP1 PUSH3 0x4D6 PUSH3 0x5C8 JUMP JUMPDEST POP POP JUMPDEST POP GAS PUSH3 0x4E5 PUSH3 0x733 JUMP JUMPDEST POP POP POP POP POP ISZERO DUP1 ISZERO PUSH3 0x507 JUMPI RETURNDATASIZE PUSH1 0x0 DUP1 RETURNDATACOPY RETURNDATASIZE PUSH1 0x0 PUSH3 0x504 PUSH3 0x5C8 JUMP JUMPDEST POP POP JUMPDEST POP POP POP POP PUSH1 0x40 MLOAD RETURNDATASIZE PUSH1 0x20 DUP2 LT ISZERO PUSH3 0x529 JUMPI PUSH1 0x0 DUP1 PUSH3 0x526 PUSH3 0x5C8 JUMP JUMPDEST POP POP JUMPDEST DUP2 ADD SWAP1 DUP1 DUP1 MLOAD PUSH1 0x0 DUP6 DUP2 MSTORE PUSH1 0x3 PUSH1 0x20 MSTORE SWAP1 SWAP4 POP PUSH1 0x40 SWAP3 POP SWAP1 POP KECCAK256 PUSH1 0x1 DUP2 PUSH3 0x550 PUSH3 0x635 JUMP JUMPDEST DUP2 PUSH1 0x1 PUSH1 0x1 PUSH1 0xA0 SHL SUB MUL NOT AND SWAP1 DUP4 PUSH1 0x1 PUSH1 0x1 PUSH1 0xA0 SHL SUB AND MUL OR SWAP1 PUSH3 0x574 PUSH3 0x697 JUMP JUMPDEST POP POP POP POP JUMP JUMPDEST DUP3 PUSH1 0x18 DUP2 ADD SWAP3 DUP3 ISZERO PUSH3 0x5B6 JUMPI SWAP2 PUSH1 0x20 MUL DUP3 ADD JUMPDEST DUP3 DUP2 GT ISZERO PUSH3 0x5B6 JUMPI DUP3 MLOAD DUP3 PUSH3 0x5A4 PUSH3 0x697 JUMP JUMPDEST POP POP SWAP2 PUSH1 0x20 ADD SWAP2 SWAP1 PUSH1 0x1 ADD SWAP1 PUSH3 0x58E JUMP JUMPDEST POP PUSH3 0x5C4 SWAP3 SWAP2 POP PUSH3 0x7F0 JUMP JUMPDEST POP SWAP1 JUMP JUMPDEST PUSH4 0x2A2A7ADB MSIZE DUP2 PUSH1 0xE0 SHL DUP2 MSTORE PUSH1 0x4 DUP2 ADD PUSH1 0x20 DUP2 MSTORE DUP6 PUSH1 0x20 DUP3 ADD MSTORE PUSH1 0x0 JUMPDEST DUP7 DUP2 LT ISZERO PUSH3 0x602 JUMPI DUP1 DUP7 ADD MLOAD DUP3 DUP3 ADD PUSH1 0x40 ADD MSTORE PUSH1 0x20 ADD PUSH3 0x5E5 JUMP JUMPDEST POP PUSH1 0x20 DUP3 DUP8 PUSH1 0x64 ADD DUP5 CALLER PUSH1 0x0 SWAP1 GAS CALL PC PUSH1 0xE ADD JUMPI RETURNDATASIZE PUSH1 0x0 DUP1 RETURNDATACOPY RETURNDATASIZE PUSH1 0x0 REVERT JUMPDEST RETURNDATASIZE PUSH1 0x1 EQ ISZERO PC PUSH1 0xA ADD JUMPI PUSH1 0x1 PUSH1 0x0 RETURN JUMPDEST POP POP POP JUMP JUMPDEST PUSH4 0x3DAA959 MSIZE DUP2 PUSH1 0xE0 SHL DUP2 MSTORE DUP4 PUSH1 0x4 DUP3 ADD MSTORE PUSH1 0x20 DUP2 PUSH1 0x24 DUP4 CALLER PUSH1 0x0 SWAP1 GAS CALL PC PUSH1 0xE ADD JUMPI RETURNDATASIZE PUSH1 0x0 DUP1 RETURNDATACOPY RETURNDATASIZE PUSH1 0x0 REVERT JUMPDEST RETURNDATASIZE PUSH1 0x1 EQ ISZERO PC PUSH1 0xA ADD JUMPI PUSH1 0x1 PUSH1 0x0 RETURN JUMPDEST DUP1 MLOAD SWAP4 POP PUSH1 0x0 JUMPDEST PUSH1 0x40 DUP2 LT ISZERO PUSH3 0x692 JUMPI PUSH1 0x0 DUP3 DUP3 ADD MSTORE PUSH1 0x20 ADD PUSH3 0x679 JUMP JUMPDEST POP POP POP JUMP JUMPDEST PUSH4 0x22BD64C0 MSIZE DUP2 PUSH1 0xE0 SHL DUP2 MSTORE DUP4 PUSH1 0x4 DUP3 ADD MSTORE DUP5 PUSH1 0x24 DUP3 ADD MSTORE PUSH1 0x0 DUP2 PUSH1 0x44 DUP4 CALLER PUSH1 0x0 SWAP1 GAS CALL PC PUSH1 0xE ADD JUMPI RETURNDATASIZE PUSH1 0x0 DUP1 RETURNDATACOPY RETURNDATASIZE PUSH1 0x0 REVERT JUMPDEST RETURNDATASIZE PUSH1 0x1 EQ ISZERO PC PUSH1 0xA ADD JUMPI PUSH1 0x1 PUSH1 0x0 RETURN JUMPDEST PUSH1 0x0 DUP2 MSTORE PUSH1 0x20 PUSH3 0x679 JUMP JUMPDEST PUSH4 0x8435035B MSIZE DUP2 PUSH1 0xE0 SHL DUP2 MSTORE DUP4 PUSH1 0x4 DUP3 ADD MSTORE PUSH1 0x20 DUP2 PUSH1 0x24 DUP4 CALLER PUSH1 0x0 SWAP1 GAS CALL PC PUSH1 0xE ADD JUMPI RETURNDATASIZE PUSH1 0x0 DUP1 RETURNDATACOPY RETURNDATASIZE PUSH1 0x0 REVERT JUMPDEST RETURNDATASIZE PUSH1 0x1 EQ ISZERO PC PUSH1 0xA ADD JUMPI PUSH1 0x1 PUSH1 0x0 RETURN JUMPDEST DUP1 MLOAD PUSH1 0x0 DUP3 MSTORE SWAP4 POP PUSH1 0x20 PUSH3 0x679 JUMP JUMPDEST PUSH4 0x8540661F MSIZE DUP2 PUSH1 0xE0 SHL DUP2 MSTORE DUP4 PUSH1 0x4 DUP3 ADD MSTORE DUP5 PUSH1 0x24 DUP3 ADD MSTORE PUSH1 0x60 PUSH1 0x44 DUP3 ADD MSTORE DUP7 PUSH1 0x64 DUP3 ADD MSTORE PUSH1 0x84 DUP2 ADD PUSH1 0x0 JUMPDEST DUP9 DUP2 LT ISZERO PUSH3 0x779 JUMPI DUP1 DUP9 ADD MLOAD DUP3 DUP3 ADD MSTORE PUSH1 0x20 ADD PUSH3 0x75F JUMP JUMPDEST POP DUP8 PUSH2 0x104 ADD DUP3 ADD PUSH1 0x60 DUP4 DUP11 PUSH2 0x104 ADD DUP6 CALLER PUSH1 0x0 SWAP1 GAS CALL PC PUSH1 0xE ADD JUMPI RETURNDATASIZE PUSH1 0x0 DUP1 RETURNDATACOPY RETURNDATASIZE PUSH1 0x0 REVERT JUMPDEST RETURNDATASIZE PUSH1 0x1 EQ ISZERO PC PUSH1 0xA ADD JUMPI PUSH1 0x1 PUSH1 0x0 RETURN JUMPDEST DUP3 MLOAD PUSH1 0x40 DUP5 ADD MLOAD RETURNDATASIZE PUSH1 0x0 DUP7 RETURNDATACOPY DUP13 DUP13 DUP3 PUSH1 0x60 DUP9 ADD CALLER POP PUSH1 0x0 PUSH1 0x4 GAS CALL POP MSIZE DUP6 JUMPDEST DUP2 DUP2 LT ISZERO PUSH3 0x7E4 JUMPI PUSH1 0x0 DUP2 MSTORE PUSH1 0x20 ADD PUSH3 0x7CE JUMP JUMPDEST POP SWAP2 SWAP13 POP POP POP POP POP POP POP JUMP JUMPDEST PUSH3 0x81A SWAP2 SWAP1 JUMPDEST DUP1 DUP3 GT ISZERO PUSH3 0x5C4 JUMPI PUSH1 0x0 DUP1 DUP3 PUSH3 0x80E PUSH3 0x697 JUMP JUMPDEST POP POP POP PUSH1 0x1 ADD PUSH3 0x7F7 JUMP JUMPDEST SWAP1 JUMP JUMPDEST PUSH2 0x4DF6 DUP1 PUSH3 0x82D PUSH1 0x0 CODECOPY PUSH1 0x0 RETURN INVALID PUSH1 0x80 PUSH1 0x40 MSTORE CALLVALUE DUP1 ISZERO PUSH2 0x19 JUMPI PUSH1 0x0 DUP1 PUSH2 0x16 PUSH2 0x48BC JUMP JUMPDEST POP POP JUMPDEST POP PUSH1 0x4 CALLDATASIZE LT PUSH2 0x1D8 JUMPI PUSH1 0x0 CALLDATALOAD PUSH1 0xE0 SHR DUP1 PUSH4 0x631E1444 GT PUSH2 0x10D JUMPI DUP1 PUSH4 0xAB49848C GT PUSH2 0xAB JUMPI DUP1 PUSH4 0xD6F32E06 GT PUSH2 0x7A JUMPI DUP1 PUSH4 0xD6F32E06 EQ PUSH2 0x61B JUMPI DUP1 PUSH4 0xDFFFCA76 EQ PUSH2 0x650 JUMPI DUP1 PUSH4 0xE3235C91 EQ PUSH2 0x6A9 JUMPI DUP1 PUSH4 0xF450AA34 EQ PUSH2 0x6B1 JUMPI PUSH2 0x1D8 JUMP JUMPDEST DUP1 PUSH4 0xAB49848C EQ PUSH2 0x580 JUMPI DUP1 PUSH4 0xC193F0D8 EQ PUSH2 0x5C1 JUMPI DUP1 PUSH4 0xC6C9D828 EQ PUSH2 0x5C9 JUMPI DUP1 PUSH4 0xCE096940 EQ PUSH2 0x5EF JUMPI PUSH2 0x1D8 JUMP JUMPDEST DUP1 PUSH4 0x7DD1A57A GT PUSH2 0xE7 JUMPI DUP1 PUSH4 0x7DD1A57A EQ PUSH2 0x4F1 JUMPI DUP1 PUSH4 0x86BAA45C EQ PUSH2 0x517 JUMPI DUP1 PUSH4 0x89257117 EQ PUSH2 0x570 JUMPI DUP1 PUSH4 0x8DA5CB5B EQ PUSH2 0x578 JUMPI PUSH2 0x1D8 JUMP JUMPDEST DUP1 PUSH4 0x631E1444 EQ PUSH2 0x46F JUMPI DUP1 PUSH4 0x6A1C4758 EQ PUSH2 0x49E JUMPI DUP1 PUSH4 0x79BA5097 EQ PUSH2 0x4E9 JUMPI PUSH2 0x1D8 JUMP JUMPDEST DUP1 PUSH4 0x1B16802C GT PUSH2 0x17A JUMPI DUP1 PUSH4 0x3FA70F45 GT PUSH2 0x154 JUMPI DUP1 PUSH4 0x3FA70F45 EQ PUSH2 0x3E4 JUMPI DUP1 PUSH4 0x4C268FC8 EQ PUSH2 0x3EC JUMPI DUP1 PUSH4 0x53A47BB7 EQ PUSH2 0x42D JUMPI DUP1 PUSH4 0x57AF302C EQ PUSH2 0x435 JUMPI PUSH2 0x1D8 JUMP JUMPDEST DUP1 PUSH4 0x1B16802C EQ PUSH2 0x378 JUMPI DUP1 PUSH4 0x372A395A EQ PUSH2 0x3AD JUMPI DUP1 PUSH4 0x3BE99E6F EQ PUSH2 0x3B5 JUMPI PUSH2 0x1D8 JUMP JUMPDEST DUP1 PUSH4 0xB9E31C9 GT PUSH2 0x1B6 JUMPI DUP1 PUSH4 0xB9E31C9 EQ PUSH2 0x29C JUMPI DUP1 PUSH4 0x1627540C EQ PUSH2 0x2C4 JUMPI DUP1 PUSH4 0x19D5C665 EQ PUSH2 0x2F3 JUMPI DUP1 PUSH4 0x1A5C6095 EQ PUSH2 0x34C JUMPI PUSH2 0x1D8 JUMP JUMPDEST DUP1 PUSH4 0x4F3BCEC EQ PUSH2 0x1E6 JUMPI DUP1 PUSH4 0x59C29EC EQ PUSH2 0x20A JUMPI DUP1 PUSH4 0xA1E187D EQ PUSH2 0x251 JUMPI JUMPDEST PUSH1 0x0 DUP1 PUSH2 0x1E3 PUSH2 0x48BC JUMP JUMPDEST POP POP JUMPDEST PUSH2 0x1EE PUSH2 0x6E3 JUMP JUMPDEST PUSH1 0x40 MLOAD PUSH1 0x1 PUSH1 0x1 PUSH1 0xA0 SHL SUB SWAP1 SWAP2 AND DUP2 MSTORE PUSH1 0x20 ADD PUSH1 0x40 MLOAD DUP1 SWAP2 SUB SWAP1 RETURN JUMPDEST PUSH2 0x23F PUSH1 0x4 DUP1 CALLDATASIZE SUB PUSH1 0x40 DUP2 LT ISZERO PUSH2 0x229 JUMPI PUSH1 0x0 DUP1 PUSH2 0x226 PUSH2 0x48BC JUMP JUMPDEST POP POP JUMPDEST POP PUSH1 0x1 PUSH1 0x1 PUSH1 0xA0 SHL SUB DUP2 CALLDATALOAD AND SWAP1 PUSH1 0x20 ADD CALLDATALOAD PUSH2 0x702 JUMP JUMPDEST PUSH1 0x40 MLOAD SWAP1 DUP2 MSTORE PUSH1 0x20 ADD PUSH1 0x40 MLOAD DUP1 SWAP2 SUB SWAP1 RETURN JUMPDEST PUSH2 0x23F PUSH1 0x4 DUP1 CALLDATASIZE SUB PUSH1 0xA0 DUP2 LT ISZERO PUSH2 0x270 JUMPI PUSH1 0x0 DUP1 PUSH2 0x26D PUSH2 0x48BC JUMP JUMPDEST POP POP JUMPDEST POP PUSH1 0x1 PUSH1 0x1 PUSH1 0xA0 SHL SUB DUP2 CALLDATALOAD DUP2 AND SWAP2 PUSH1 0x20 DUP2 ADD CALLDATALOAD SWAP2 PUSH1 0x40 DUP3 ADD CALLDATALOAD SWAP2 PUSH1 0x60 DUP2 ADD CALLDATALOAD SWAP2 PUSH1 0x80 SWAP1 SWAP2 ADD CALLDATALOAD AND PUSH2 0x7D4 JUMP JUMPDEST PUSH2 0x2C2 PUSH1 0x4 DUP1 CALLDATASIZE SUB PUSH1 0x20 DUP2 LT ISZERO PUSH2 0x2BB JUMPI PUSH1 0x0 DUP1 PUSH2 0x2B8 PUSH2 0x48BC JUMP JUMPDEST POP POP JUMPDEST POP CALLDATALOAD PUSH2 0x932 JUMP JUMPDEST STOP JUMPDEST PUSH2 0x2C2 PUSH1 0x4 DUP1 CALLDATASIZE SUB PUSH1 0x20 DUP2 LT ISZERO PUSH2 0x2E3 JUMPI PUSH1 0x0 DUP1 PUSH2 0x2E0 PUSH2 0x48BC JUMP JUMPDEST POP POP JUMPDEST POP CALLDATALOAD PUSH1 0x1 PUSH1 0x1 PUSH1 0xA0 SHL SUB AND PUSH2 0xC64 JUMP JUMPDEST PUSH2 0x328 PUSH1 0x4 DUP1 CALLDATASIZE SUB PUSH1 0x40 DUP2 LT ISZERO PUSH2 0x312 JUMPI PUSH1 0x0 DUP1 PUSH2 0x30F PUSH2 0x48BC JUMP JUMPDEST POP POP JUMPDEST POP PUSH1 0x1 PUSH1 0x1 PUSH1 0xA0 SHL SUB DUP2 CALLDATALOAD AND SWAP1 PUSH1 0x20 ADD CALLDATALOAD PUSH2 0xCDE JUMP JUMPDEST PUSH1 0x40 MLOAD DUP1 DUP5 DUP2 MSTORE PUSH1 0x20 ADD DUP4 DUP2 MSTORE PUSH1 0x20 ADD DUP3 DUP2 MSTORE PUSH1 0x20 ADD SWAP4 POP POP POP POP PUSH1 0x40 MLOAD DUP1 SWAP2 SUB SWAP1 RETURN JUMPDEST PUSH2 0x23F PUSH1 0x4 DUP1 CALLDATASIZE SUB PUSH1 0x40 DUP2 LT ISZERO PUSH2 0x36B JUMPI PUSH1 0x0 DUP1 PUSH2 0x368 PUSH2 0x48BC JUMP JUMPDEST POP POP JUMPDEST POP DUP1 CALLDATALOAD SWAP1 PUSH1 0x20 ADD CALLDATALOAD PUSH2 0xCFC JUMP JUMPDEST PUSH2 0x328 PUSH1 0x4 DUP1 CALLDATASIZE SUB PUSH1 0x40 DUP2 LT ISZERO PUSH2 0x397 JUMPI PUSH1 0x0 DUP1 PUSH2 0x394 PUSH2 0x48BC JUMP JUMPDEST POP POP JUMPDEST POP PUSH1 0x1 PUSH1 0x1 PUSH1 0xA0 SHL SUB DUP2 CALLDATALOAD AND SWAP1 PUSH1 0x20 ADD CALLDATALOAD PUSH2 0xD08 JUMP JUMPDEST PUSH2 0x23F PUSH2 0xDB1 JUMP JUMPDEST PUSH2 0x2C2 PUSH1 0x4 DUP1 CALLDATASIZE SUB PUSH1 0x20 DUP2 LT ISZERO PUSH2 0x3D4 JUMPI PUSH1 0x0 DUP1 PUSH2 0x3D1 PUSH2 0x48BC JUMP JUMPDEST POP POP JUMPDEST POP CALLDATALOAD PUSH1 0x1 PUSH1 0x1 PUSH1 0xA0 SHL SUB AND PUSH2 0xDC0 JUMP JUMPDEST PUSH2 0x23F PUSH2 0xF8A JUMP JUMPDEST PUSH2 0x23F PUSH1 0x4 DUP1 CALLDATASIZE SUB PUSH1 0x80 DUP2 LT ISZERO PUSH2 0x40B JUMPI PUSH1 0x0 DUP1 PUSH2 0x408 PUSH2 0x48BC JUMP JUMPDEST POP POP JUMPDEST POP PUSH1 0x1 PUSH1 0x1 PUSH1 0xA0 SHL SUB DUP2 CALLDATALOAD AND SWAP1 PUSH1 0x20 DUP2 ADD CALLDATALOAD SWAP1 PUSH1 0x40 DUP2 ADD CALLDATALOAD SWAP1 PUSH1 0x60 ADD CALLDATALOAD PUSH2 0xF8F JUMP JUMPDEST PUSH2 0x1EE PUSH2 0x1123 JUMP JUMPDEST PUSH2 0x45B PUSH1 0x4 DUP1 CALLDATASIZE SUB PUSH1 0x20 DUP2 LT ISZERO PUSH2 0x454 JUMPI PUSH1 0x0 DUP1 PUSH2 0x451 PUSH2 0x48BC JUMP JUMPDEST POP POP JUMPDEST POP CALLDATALOAD PUSH2 0x112F JUMP JUMPDEST PUSH1 0x40 MLOAD SWAP1 ISZERO ISZERO DUP2 MSTORE PUSH1 0x20 ADD PUSH1 0x40 MLOAD DUP1 SWAP2 SUB SWAP1 RETURN JUMPDEST PUSH2 0x45B PUSH1 0x4 DUP1 CALLDATASIZE SUB PUSH1 0x20 DUP2 LT ISZERO PUSH2 0x48E JUMPI PUSH1 0x0 DUP1 PUSH2 0x48B PUSH2 0x48BC JUMP JUMPDEST POP POP JUMPDEST POP CALLDATALOAD PUSH1 0x1 PUSH1 0x1 PUSH1 0xA0 SHL SUB AND PUSH2 0x1186 JUMP JUMPDEST PUSH2 0x23F PUSH1 0x4 DUP1 CALLDATASIZE SUB PUSH1 0xA0 DUP2 LT ISZERO PUSH2 0x4BD JUMPI PUSH1 0x0 DUP1 PUSH2 0x4BA PUSH2 0x48BC JUMP JUMPDEST POP POP JUMPDEST POP PUSH1 0x1 PUSH1 0x1 PUSH1 0xA0 SHL SUB DUP2 CALLDATALOAD DUP2 AND SWAP2 PUSH1 0x20 DUP2 ADD CALLDATALOAD SWAP1 SWAP2 AND SWAP1 PUSH1 0x40 DUP2 ADD CALLDATALOAD SWAP1 PUSH1 0x60 DUP2 ADD CALLDATALOAD SWAP1 PUSH1 0x80 ADD CALLDATALOAD PUSH2 0x1360 JUMP JUMPDEST PUSH2 0x2C2 PUSH2 0x15CD JUMP JUMPDEST PUSH2 0x23F PUSH1 0x4 DUP1 CALLDATASIZE SUB PUSH1 0x20 DUP2 LT ISZERO PUSH2 0x510 JUMPI PUSH1 0x0 DUP1 PUSH2 0x50D PUSH2 0x48BC JUMP JUMPDEST POP POP JUMPDEST POP CALLDATALOAD PUSH2 0x1750 JUMP JUMPDEST PUSH2 0x23F PUSH1 0x4 DUP1 CALLDATASIZE SUB PUSH1 0xE0 DUP2 LT ISZERO PUSH2 0x536 JUMPI PUSH1 0x0 DUP1 PUSH2 0x533 PUSH2 0x48BC JUMP JUMPDEST POP POP JUMPDEST POP PUSH1 0x1 PUSH1 0x1 PUSH1 0xA0 SHL SUB DUP2 CALLDATALOAD DUP2 AND SWAP2 PUSH1 0x20 DUP2 ADD CALLDATALOAD SWAP2 PUSH1 0x40 DUP3 ADD CALLDATALOAD SWAP2 PUSH1 0x60 DUP2 ADD CALLDATALOAD SWAP2 PUSH1 0x80 DUP3 ADD CALLDATALOAD DUP2 AND SWAP2 PUSH1 0xA0 DUP2 ADD CALLDATALOAD SWAP1 SWAP2 AND SWAP1 PUSH1 0xC0 ADD CALLDATALOAD PUSH2 0x176B JUMP JUMPDEST PUSH2 0x23F PUSH2 0x18D6 JUMP JUMPDEST PUSH2 0x1EE PUSH2 0x18E0 JUMP JUMPDEST PUSH2 0x588 PUSH2 0x18EB JUMP JUMPDEST PUSH1 0x40 MLOAD DUP1 DUP3 PUSH2 0x300 DUP1 DUP4 DUP4 PUSH1 0x0 JUMPDEST DUP4 DUP2 LT ISZERO PUSH2 0x5AE JUMPI DUP1 DUP3 ADD MLOAD DUP4 DUP3 ADD MSTORE PUSH1 0x20 ADD PUSH2 0x596 JUMP JUMPDEST POP POP POP POP SWAP1 POP ADD SWAP2 POP POP PUSH1 0x40 MLOAD DUP1 SWAP2 SUB SWAP1 RETURN JUMPDEST PUSH2 0x45B PUSH2 0x194D JUMP JUMPDEST PUSH2 0x23F PUSH1 0x4 DUP1 CALLDATASIZE SUB PUSH1 0x20 DUP2 LT ISZERO PUSH2 0x5E8 JUMPI PUSH1 0x0 DUP1 PUSH2 0x5E5 PUSH2 0x48BC JUMP JUMPDEST POP POP JUMPDEST POP CALLDATALOAD PUSH2 0x1957 JUMP JUMPDEST PUSH2 0x2C2 PUSH1 0x4 DUP1 CALLDATASIZE SUB PUSH1 0x40 DUP2 LT ISZERO PUSH2 0x60E JUMPI PUSH1 0x0 DUP1 PUSH2 0x60B PUSH2 0x48BC JUMP JUMPDEST POP POP JUMPDEST POP DUP1 CALLDATALOAD SWAP1 PUSH1 0x20 ADD CALLDATALOAD PUSH2 0x197F JUMP JUMPDEST PUSH2 0x45B PUSH1 0x4 DUP1 CALLDATASIZE SUB PUSH1 0x40 DUP2 LT ISZERO PUSH2 0x63A JUMPI PUSH1 0x0 DUP1 PUSH2 0x637 PUSH2 0x48BC JUMP JUMPDEST POP POP JUMPDEST POP PUSH1 0x1 PUSH1 0x1 PUSH1 0xA0 SHL SUB DUP2 CALLDATALOAD AND SWAP1 PUSH1 0x20 ADD CALLDATALOAD PUSH2 0x1A77 JUMP JUMPDEST PUSH2 0x23F PUSH1 0x4 DUP1 CALLDATASIZE SUB PUSH1 0xE0 DUP2 LT ISZERO PUSH2 0x66F JUMPI PUSH1 0x0 DUP1 PUSH2 0x66C PUSH2 0x48BC JUMP JUMPDEST POP POP JUMPDEST POP PUSH1 0x1 PUSH1 0x1 PUSH1 0xA0 SHL SUB DUP2 CALLDATALOAD DUP2 AND SWAP2 PUSH1 0x20 DUP2 ADD CALLDATALOAD DUP3 AND SWAP2 PUSH1 0x40 DUP3 ADD CALLDATALOAD SWAP2 PUSH1 0x60 DUP2 ADD CALLDATALOAD SWAP2 PUSH1 0x80 DUP3 ADD CALLDATALOAD SWAP2 PUSH1 0xA0 DUP2 ADD CALLDATALOAD SWAP1 SWAP2 AND SWAP1 PUSH1 0xC0 ADD CALLDATALOAD PUSH2 0x1AA9 JUMP JUMPDEST PUSH2 0x23F PUSH2 0x1D21 JUMP JUMPDEST PUSH2 0x328 PUSH1 0x4 DUP1 CALLDATASIZE SUB PUSH1 0x60 DUP2 LT ISZERO PUSH2 0x6D0 JUMPI PUSH1 0x0 DUP1 PUSH2 0x6CD PUSH2 0x48BC JUMP JUMPDEST POP POP JUMPDEST POP DUP1 CALLDATALOAD SWAP1 PUSH1 0x20 DUP2 ADD CALLDATALOAD SWAP1 PUSH1 0x40 ADD CALLDATALOAD PUSH2 0x1D26 JUMP JUMPDEST PUSH1 0x0 PUSH1 0x2 PUSH2 0x6EF PUSH2 0x4927 JUMP JUMPDEST SWAP1 PUSH2 0x100 EXP SWAP1 DIV PUSH1 0x1 PUSH1 0x1 PUSH1 0xA0 SHL SUB AND DUP2 JUMP JUMPDEST PUSH1 0x0 PUSH2 0x7CB PUSH2 0x70F PUSH2 0x1D46 JUMP JUMPDEST PUSH1 0x1 PUSH1 0x1 PUSH1 0xA0 SHL SUB AND PUSH4 0xF1406DC8 DUP6 DUP6 PUSH1 0x40 MLOAD PUSH1 0x1 PUSH1 0x1 PUSH1 0xE0 SHL SUB NOT PUSH1 0xE0 DUP6 SWAP1 SHL AND DUP2 MSTORE PUSH1 0x1 PUSH1 0x1 PUSH1 0xA0 SHL SUB SWAP1 SWAP3 AND PUSH1 0x4 DUP4 ADD MSTORE PUSH1 0x24 DUP3 ADD MSTORE PUSH1 0x44 ADD PUSH1 0x20 PUSH1 0x40 MLOAD DUP1 DUP4 SUB DUP2 DUP7 DUP1 PUSH2 0x75E PUSH2 0x4982 JUMP JUMPDEST ISZERO DUP1 ISZERO PUSH2 0x773 JUMPI PUSH1 0x0 DUP1 PUSH2 0x770 PUSH2 0x48BC JUMP JUMPDEST POP POP JUMPDEST POP GAS PUSH2 0x77D PUSH2 0x49CE JUMP JUMPDEST POP POP POP POP POP ISZERO DUP1 ISZERO PUSH2 0x79C JUMPI RETURNDATASIZE PUSH1 0x0 DUP1 RETURNDATACOPY RETURNDATASIZE PUSH1 0x0 PUSH2 0x799 PUSH2 0x48BC JUMP JUMPDEST POP POP JUMPDEST POP POP POP POP PUSH1 0x40 MLOAD RETURNDATASIZE PUSH1 0x20 DUP2 LT ISZERO PUSH2 0x7BB JUMPI PUSH1 0x0 DUP1 PUSH2 0x7B8 PUSH2 0x48BC JUMP JUMPDEST POP POP JUMPDEST DUP2 ADD SWAP1 DUP1 DUP1 MLOAD SWAP3 POP PUSH2 0x1D95 SWAP2 POP POP JUMP JUMPDEST SWAP1 POP JUMPDEST SWAP3 SWAP2 POP POP JUMP JUMPDEST PUSH1 0x0 DUP1 PUSH2 0x7DF PUSH2 0x1E04 JUMP JUMPDEST SWAP1 POP DUP1 PUSH1 0x1 PUSH1 0x1 PUSH1 0xA0 SHL SUB AND GAS PUSH2 0x7F4 PUSH2 0x4A87 JUMP JUMPDEST PUSH1 0x1 PUSH1 0x1 PUSH1 0xA0 SHL SUB AND EQ DUP1 PUSH2 0x8C5 JUMPI POP PUSH1 0x0 PUSH1 0x1 PUSH1 0x1 PUSH1 0xA0 SHL SUB DUP3 AND PUSH4 0x16B2213F GAS PUSH2 0x81E PUSH2 0x4A87 JUMP JUMPDEST PUSH1 0x40 MLOAD PUSH1 0x1 PUSH1 0x1 PUSH1 0xE0 SHL SUB NOT PUSH1 0xE0 DUP5 SWAP1 SHL AND DUP2 MSTORE PUSH1 0x1 PUSH1 0x1 PUSH1 0xA0 SHL SUB SWAP1 SWAP2 AND PUSH1 0x4 DUP3 ADD MSTORE PUSH1 0x24 ADD PUSH1 0x20 PUSH1 0x40 MLOAD DUP1 DUP4 SUB DUP2 DUP7 DUP1 PUSH2 0x858 PUSH2 0x4982 JUMP JUMPDEST ISZERO DUP1 ISZERO PUSH2 0x86D JUMPI PUSH1 0x0 DUP1 PUSH2 0x86A PUSH2 0x48BC JUMP JUMPDEST POP POP JUMPDEST POP GAS PUSH2 0x877 PUSH2 0x49CE JUMP JUMPDEST POP POP POP POP POP ISZERO DUP1 ISZERO PUSH2 0x896 JUMPI RETURNDATASIZE PUSH1 0x0 DUP1 RETURNDATACOPY RETURNDATASIZE PUSH1 0x0 PUSH2 0x893 PUSH2 0x48BC JUMP JUMPDEST POP POP JUMPDEST POP POP POP POP PUSH1 0x40 MLOAD RETURNDATASIZE PUSH1 0x20 DUP2 LT ISZERO PUSH2 0x8B5 JUMPI PUSH1 0x0 DUP1 PUSH2 0x8B2 PUSH2 0x48BC JUMP JUMPDEST POP POP JUMPDEST DUP2 ADD SWAP1 DUP1 DUP1 MLOAD SWAP4 SWAP1 SWAP4 EQ ISZERO SWAP3 POP POP POP JUMPDEST PUSH2 0x909 JUMPI PUSH1 0x40 MLOAD PUSH3 0x461BCD PUSH1 0xE5 SHL DUP2 MSTORE PUSH1 0x4 ADD DUP1 DUP1 PUSH1 0x20 ADD DUP3 DUP2 SUB DUP3 MSTORE PUSH1 0x45 DUP2 MSTORE PUSH1 0x20 ADD DUP1 PUSH2 0x4D1C PUSH1 0x45 SWAP2 CODECOPY PUSH1 0x60 ADD SWAP2 POP POP PUSH1 0x40 MLOAD DUP1 SWAP2 SUB SWAP1 PUSH2 0x906 PUSH2 0x48BC JUMP JUMPDEST POP POP JUMPDEST PUSH1 0x0 PUSH2 0x918 DUP9 DUP9 DUP9 DUP9 DUP9 PUSH2 0x1E4F JUMP JUMPDEST SWAP1 SWAP4 POP SWAP1 POP PUSH2 0x927 DUP2 DUP6 PUSH2 0x27C8 JUMP JUMPDEST POP POP SWAP6 SWAP5 POP POP POP POP POP JUMP JUMPDEST PUSH2 0x93A PUSH2 0x2894 JUMP JUMPDEST PUSH1 0x1 PUSH1 0x1 PUSH1 0xA0 SHL SUB AND PUSH4 0x86DABD1 PUSH1 0x40 MLOAD DUP2 PUSH4 0xFFFFFFFF AND PUSH1 0xE0 SHL DUP2 MSTORE PUSH1 0x4 ADD PUSH1 0x0 PUSH1 0x40 MLOAD DUP1 DUP4 SUB DUP2 DUP7 DUP1 PUSH2 0x96D PUSH2 0x4982 JUMP JUMPDEST ISZERO DUP1 ISZERO PUSH2 0x982 JUMPI PUSH1 0x0 DUP1 PUSH2 0x97F PUSH2 0x48BC JUMP JUMPDEST POP POP JUMPDEST POP GAS PUSH2 0x98C PUSH2 0x49CE JUMP JUMPDEST POP POP POP POP POP ISZERO DUP1 ISZERO PUSH2 0x9AB JUMPI RETURNDATASIZE PUSH1 0x0 DUP1 RETURNDATACOPY RETURNDATASIZE PUSH1 0x0 PUSH2 0x9A8 PUSH2 0x48BC JUMP JUMPDEST POP POP JUMPDEST POP POP POP POP PUSH1 0x0 PUSH1 0x1 PUSH1 0x1 PUSH1 0xA0 SHL SUB AND PUSH2 0x9C2 PUSH2 0x28E2 JUMP JUMPDEST PUSH1 0x1 PUSH1 0x1 PUSH1 0xA0 SHL SUB AND PUSH4 0x32608039 DUP4 PUSH1 0x40 MLOAD PUSH1 0x1 PUSH1 0x1 PUSH1 0xE0 SHL SUB NOT PUSH1 0xE0 DUP5 SWAP1 SHL AND DUP2 MSTORE PUSH1 0x4 DUP2 ADD SWAP2 SWAP1 SWAP2 MSTORE PUSH1 0x24 ADD PUSH1 0x20 PUSH1 0x40 MLOAD DUP1 DUP4 SUB DUP2 DUP7 DUP1 PUSH2 0xA03 PUSH2 0x4982 JUMP JUMPDEST ISZERO DUP1 ISZERO PUSH2 0xA18 JUMPI PUSH1 0x0 DUP1 PUSH2 0xA15 PUSH2 0x48BC JUMP JUMPDEST POP POP JUMPDEST POP GAS PUSH2 0xA22 PUSH2 0x49CE JUMP JUMPDEST POP POP POP POP POP ISZERO DUP1 ISZERO PUSH2 0xA41 JUMPI RETURNDATASIZE PUSH1 0x0 DUP1 RETURNDATACOPY RETURNDATASIZE PUSH1 0x0 PUSH2 0xA3E PUSH2 0x48BC JUMP JUMPDEST POP POP JUMPDEST POP POP POP POP PUSH1 0x40 MLOAD RETURNDATASIZE PUSH1 0x20 DUP2 LT ISZERO PUSH2 0xA60 JUMPI PUSH1 0x0 DUP1 PUSH2 0xA5D PUSH2 0x48BC JUMP JUMPDEST POP POP JUMPDEST DUP2 ADD SWAP1 DUP1 DUP1 MLOAD PUSH1 0x1 PUSH1 0x1 PUSH1 0xA0 SHL SUB AND SWAP4 SWAP1 SWAP4 EQ ISZERO SWAP3 POP PUSH2 0xAC2 SWAP2 POP POP JUMPI PUSH1 0x40 MLOAD PUSH3 0x461BCD PUSH1 0xE5 SHL DUP2 MSTORE PUSH1 0x20 PUSH1 0x4 DUP3 ADD MSTORE PUSH1 0xD PUSH1 0x24 DUP3 ADD MSTORE PUSH13 0x9CDE40E6EAC6D040E6F2DCE8D PUSH1 0x9B SHL PUSH1 0x44 DUP3 ADD MSTORE PUSH1 0x64 ADD PUSH1 0x40 MLOAD DUP1 SWAP2 SUB SWAP1 PUSH2 0xABF PUSH2 0x48BC JUMP JUMPDEST POP POP JUMPDEST PUSH2 0xB7C DUP2 PUSH2 0xACE PUSH2 0x2923 JUMP JUMPDEST PUSH1 0x1 PUSH1 0x1 PUSH1 0xA0 SHL SUB AND PUSH4 0xAC82F608 DUP5 PUSH1 0x40 MLOAD PUSH1 0x1 PUSH1 0x1 PUSH1 0xE0 SHL SUB NOT PUSH1 0xE0 DUP5 SWAP1 SHL AND DUP2 MSTORE PUSH1 0x4 DUP2 ADD SWAP2 SWAP1 SWAP2 MSTORE PUSH1 0x24 ADD PUSH1 0x20 PUSH1 0x40 MLOAD DUP1 DUP4 SUB DUP2 DUP7 DUP1 PUSH2 0xB0F PUSH2 0x4982 JUMP JUMPDEST ISZERO DUP1 ISZERO PUSH2 0xB24 JUMPI PUSH1 0x0 DUP1 PUSH2 0xB21 PUSH2 0x48BC JUMP JUMPDEST POP POP JUMPDEST POP GAS PUSH2 0xB2E PUSH2 0x49CE JUMP JUMPDEST POP POP POP POP POP ISZERO DUP1 ISZERO PUSH2 0xB4D JUMPI RETURNDATASIZE PUSH1 0x0 DUP1 RETURNDATACOPY RETURNDATASIZE PUSH1 0x0 PUSH2 0xB4A PUSH2 0x48BC JUMP JUMPDEST POP POP JUMPDEST POP POP POP POP PUSH1 0x40 MLOAD RETURNDATASIZE PUSH1 0x20 DUP2 LT ISZERO PUSH2 0xB6C JUMPI PUSH1 0x0 DUP1 PUSH2 0xB69 PUSH2 0x48BC JUMP JUMPDEST POP POP JUMPDEST DUP2 ADD SWAP1 DUP1 DUP1 MLOAD SWAP3 POP PUSH2 0x2972 SWAP2 POP POP JUMP JUMPDEST PUSH2 0xBCC JUMPI PUSH1 0x40 MLOAD PUSH3 0x461BCD PUSH1 0xE5 SHL DUP2 MSTORE PUSH1 0x20 PUSH1 0x4 DUP3 ADD MSTORE PUSH1 0x14 PUSH1 0x24 DUP3 ADD MSTORE PUSH20 0x14DE5B9D1A081C1C9A58D9481A5CC81D985B1A59 PUSH1 0x62 SHL PUSH1 0x44 DUP3 ADD MSTORE PUSH1 0x64 ADD PUSH1 0x40 MLOAD DUP1 SWAP2 SUB SWAP1 PUSH2 0xBC9 PUSH2 0x48BC JUMP JUMPDEST POP POP JUMPDEST PUSH2 0xBD4 PUSH2 0x2894 JUMP JUMPDEST PUSH1 0x1 PUSH1 0x1 PUSH1 0xA0 SHL SUB AND PUSH4 0xABC0BB6E DUP3 PUSH1 0x41 PUSH1 0x40 MLOAD PUSH1 0x1 PUSH1 0x1 PUSH1 0xE0 SHL SUB NOT PUSH1 0xE0 DUP6 SWAP1 SHL AND DUP2 MSTORE PUSH1 0x4 DUP2 ADD SWAP3 SWAP1 SWAP3 MSTORE PUSH1 0x24 DUP3 ADD MSTORE PUSH1 0x44 ADD PUSH1 0x0 PUSH1 0x40 MLOAD DUP1 DUP4 SUB DUP2 PUSH1 0x0 DUP8 DUP1 PUSH2 0xC1E PUSH2 0x4982 JUMP JUMPDEST ISZERO DUP1 ISZERO PUSH2 0xC33 JUMPI PUSH1 0x0 DUP1 PUSH2 0xC30 PUSH2 0x48BC JUMP JUMPDEST POP POP JUMPDEST POP GAS PUSH2 0xC3D PUSH2 0x4ACD JUMP JUMPDEST POP POP POP POP POP POP ISZERO DUP1 ISZERO PUSH2 0xC5D JUMPI RETURNDATASIZE PUSH1 0x0 DUP1 RETURNDATACOPY RETURNDATASIZE PUSH1 0x0 PUSH2 0xC5A PUSH2 0x48BC JUMP JUMPDEST POP POP JUMPDEST POP POP POP POP POP JUMP JUMPDEST PUSH2 0xC6C PUSH2 0x2C34 JUMP JUMPDEST DUP1 PUSH1 0x1 DUP1 DUP1 PUSH2 0xC79 PUSH2 0x4927 JUMP JUMPDEST DUP2 PUSH1 0x1 PUSH1 0x1 PUSH1 0xA0 SHL SUB MUL NOT AND SWAP1 DUP4 PUSH1 0x1 PUSH1 0x1 PUSH1 0xA0 SHL SUB AND MUL OR SWAP1 PUSH2 0xC9B PUSH2 0x4B86 JUMP JUMPDEST POP POP POP PUSH32 0x906A1C6BD7E3091EA86693DD029A831C19049CE77F1DCE2CE0BAB1CACBABCE22 DUP2 PUSH1 0x40 MLOAD PUSH1 0x1 PUSH1 0x1 PUSH1 0xA0 SHL SUB SWAP1 SWAP2 AND DUP2 MSTORE PUSH1 0x20 ADD PUSH1 0x40 MLOAD DUP1 SWAP2 SUB SWAP1 LOG1 POP JUMP JUMPDEST PUSH1 0x0 DUP1 PUSH1 0x0 PUSH2 0xCED DUP6 DUP6 PUSH2 0x2CAE JUMP JUMPDEST POP SWAP2 SWAP8 SWAP1 SWAP7 POP SWAP1 SWAP5 POP SWAP3 POP POP POP JUMP JUMPDEST PUSH1 0x0 PUSH2 0x7CB DUP4 DUP4 PUSH2 0x2FD7 JUMP JUMPDEST PUSH1 0x0 DUP1 PUSH1 0x0 PUSH2 0xD15 PUSH2 0x2894 JUMP JUMPDEST PUSH1 0x1 PUSH1 0x1 PUSH1 0xA0 SHL SUB AND PUSH4 0x42A28E21 DUP6 PUSH1 0x40 MLOAD PUSH1 0x1 PUSH1 0x1 PUSH1 0xE0 SHL SUB NOT PUSH1 0xE0 DUP5 SWAP1 SHL AND DUP2 MSTORE PUSH1 0x4 DUP2 ADD SWAP2 SWAP1 SWAP2 MSTORE PUSH1 0x24 ADD PUSH1 0x0 PUSH1 0x40 MLOAD DUP1 DUP4 SUB DUP2 DUP7 DUP1 PUSH2 0xD56 PUSH2 0x4982 JUMP JUMPDEST ISZERO DUP1 ISZERO PUSH2 0xD6B JUMPI PUSH1 0x0 DUP1 PUSH2 0xD68 PUSH2 0x48BC JUMP JUMPDEST POP POP JUMPDEST POP GAS PUSH2 0xD75 PUSH2 0x49CE JUMP JUMPDEST POP POP POP POP POP ISZERO DUP1 ISZERO PUSH2 0xD94 JUMPI RETURNDATASIZE PUSH1 0x0 DUP1 RETURNDATACOPY RETURNDATASIZE PUSH1 0x0 PUSH2 0xD91 PUSH2 0x48BC JUMP JUMPDEST POP POP JUMPDEST POP POP POP POP PUSH2 0xDA4 DUP6 DUP6 PUSH1 0x1 PUSH2 0x2FE2 JUMP JUMPDEST SWAP3 POP SWAP3 POP SWAP3 POP SWAP3 POP SWAP3 POP SWAP3 JUMP JUMPDEST PUSH1 0x0 PUSH2 0xDBB PUSH2 0x33A8 JUMP JUMPDEST SWAP1 POP SWAP1 JUMP JUMPDEST PUSH2 0xDC8 PUSH2 0x2C34 JUMP JUMPDEST DUP1 PUSH1 0x2 PUSH1 0x1 DUP2 PUSH2 0xDD6 PUSH2 0x4927 JUMP JUMPDEST DUP2 PUSH1 0x1 PUSH1 0x1 PUSH1 0xA0 SHL SUB MUL NOT AND SWAP1 DUP4 PUSH1 0x1 PUSH1 0x1 PUSH1 0xA0 SHL SUB AND MUL OR SWAP1 PUSH2 0xDF8 PUSH2 0x4B86 JUMP JUMPDEST POP PUSH1 0x0 SWAP2 POP POP JUMPDEST PUSH1 0x4 DUP1 PUSH2 0xE0A PUSH2 0x4927 JUMP JUMPDEST SWAP1 POP DUP2 LT ISZERO PUSH2 0xF86 JUMPI PUSH1 0x0 PUSH1 0x4 DUP3 DUP2 PUSH2 0xE21 PUSH2 0x4927 JUMP JUMPDEST DUP2 LT PUSH2 0xE29 JUMPI INVALID JUMPDEST SWAP1 PUSH1 0x0 MSTORE PUSH1 0x20 PUSH1 0x0 KECCAK256 ADD PUSH2 0xE3B PUSH2 0x4927 JUMP JUMPDEST SWAP1 POP PUSH1 0x0 PUSH1 0x2 PUSH2 0xE49 PUSH2 0x4927 JUMP JUMPDEST SWAP1 PUSH2 0x100 EXP SWAP1 DIV PUSH1 0x1 PUSH1 0x1 PUSH1 0xA0 SHL SUB AND PUSH1 0x1 PUSH1 0x1 PUSH1 0xA0 SHL SUB AND PUSH4 0xDACB2D01 DUP3 PUSH1 0x40 MLOAD PUSH1 0x1 PUSH1 0x1 PUSH1 0xE0 SHL SUB NOT PUSH1 0xE0 DUP5 SWAP1 SHL AND DUP2 MSTORE PUSH1 0x4 DUP2 ADD SWAP2 SWAP1 SWAP2 MSTORE PUSH1 0x40 PUSH1 0x24 DUP3 ADD DUP2 SWAP1 MSTORE PUSH1 0x17 PUSH1 0x44 DUP4 ADD MSTORE PUSH32 0x5265736F6C766572206D697373696E6720746172676574000000000000000000 PUSH1 0x64 DUP4 ADD MSTORE PUSH1 0x84 SWAP1 SWAP2 ADD SWAP1 PUSH1 0x20 SWAP1 MLOAD DUP1 DUP4 SUB DUP2 DUP7 DUP1 PUSH2 0xED2 PUSH2 0x4982 JUMP JUMPDEST ISZERO DUP1 ISZERO PUSH2 0xEE7 JUMPI PUSH1 0x0 DUP1 PUSH2 0xEE4 PUSH2 0x48BC JUMP JUMPDEST POP POP JUMPDEST POP GAS PUSH2 0xEF1 PUSH2 0x49CE JUMP JUMPDEST POP POP POP POP POP ISZERO DUP1 ISZERO PUSH2 0xF10 JUMPI RETURNDATASIZE PUSH1 0x0 DUP1 RETURNDATACOPY RETURNDATASIZE PUSH1 0x0 PUSH2 0xF0D PUSH2 0x48BC JUMP JUMPDEST POP POP JUMPDEST POP POP POP POP PUSH1 0x40 MLOAD RETURNDATASIZE PUSH1 0x20 DUP2 LT ISZERO PUSH2 0xF2F JUMPI PUSH1 0x0 DUP1 PUSH2 0xF2C PUSH2 0x48BC JUMP JUMPDEST POP POP JUMPDEST DUP2 ADD SWAP1 DUP1 DUP1 MLOAD PUSH1 0x0 DUP6 DUP2 MSTORE PUSH1 0x3 PUSH1 0x20 MSTORE SWAP1 SWAP4 POP PUSH1 0x40 SWAP3 POP SWAP1 POP KECCAK256 PUSH1 0x1 DUP2 PUSH2 0xF54 PUSH2 0x4927 JUMP JUMPDEST DUP2 PUSH1 0x1 PUSH1 0x1 PUSH1 0xA0 SHL SUB MUL NOT AND SWAP1 DUP4 PUSH1 0x1 PUSH1 0x1 PUSH1 0xA0 SHL SUB AND MUL OR SWAP1 PUSH2 0xF76 PUSH2 0x4B86 JUMP JUMPDEST POP POP PUSH1 0x1 SWAP1 SWAP3 ADD SWAP2 POP PUSH2 0xDFF SWAP1 POP JUMP JUMPDEST POP POP JUMP JUMPDEST PUSH1 0x41 DUP2 JUMP JUMPDEST DUP2 PUSH1 0x0 PUSH2 0xF9A PUSH2 0x28E2 JUMP JUMPDEST PUSH1 0x1 PUSH1 0x1 PUSH1 0xA0 SHL SUB AND PUSH4 0x32608039 DUP7 PUSH1 0x40 MLOAD PUSH1 0x1 PUSH1 0x1 PUSH1 0xE0 SHL SUB NOT PUSH1 0xE0 DUP5 SWAP1 SHL AND DUP2 MSTORE PUSH1 0x4 DUP2 ADD SWAP2 SWAP1 SWAP2 MSTORE PUSH1 0x24 ADD PUSH1 0x20 PUSH1 0x40 MLOAD DUP1 DUP4 SUB DUP2 DUP7 DUP1 PUSH2 0xFDB PUSH2 0x4982 JUMP JUMPDEST ISZERO DUP1 ISZERO PUSH2 0xFF0 JUMPI PUSH1 0x0 DUP1 PUSH2 0xFED PUSH2 0x48BC JUMP JUMPDEST POP POP JUMPDEST POP GAS PUSH2 0xFFA PUSH2 0x49CE JUMP JUMPDEST POP POP POP POP POP ISZERO DUP1 ISZERO PUSH2 0x1019 JUMPI RETURNDATASIZE PUSH1 0x0 DUP1 RETURNDATACOPY RETURNDATASIZE PUSH1 0x0 PUSH2 0x1016 PUSH2 0x48BC JUMP JUMPDEST POP POP JUMPDEST POP POP POP POP PUSH1 0x40 MLOAD RETURNDATASIZE PUSH1 0x20 DUP2 LT ISZERO PUSH2 0x1038 JUMPI PUSH1 0x0 DUP1 PUSH2 0x1035 PUSH2 0x48BC JUMP JUMPDEST POP POP JUMPDEST DUP2 ADD SWAP1 DUP1 DUP1 MLOAD PUSH1 0x1 PUSH1 0x1 PUSH1 0xA0 SHL SUB AND SWAP3 POP PUSH4 0x70A08231 SWAP2 POP DUP9 SWAP1 POP PUSH1 0x40 MLOAD PUSH1 0x1 PUSH1 0x1 PUSH1 0xE0 SHL SUB NOT PUSH1 0xE0 DUP5 SWAP1 SHL AND DUP2 MSTORE PUSH1 0x1 PUSH1 0x1 PUSH1 0xA0 SHL SUB SWAP1 SWAP2 AND PUSH1 0x4 DUP3 ADD MSTORE PUSH1 0x24 ADD PUSH1 0x20 PUSH1 0x40 MLOAD DUP1 DUP4 SUB DUP2 DUP7 DUP1 PUSH2 0x108D PUSH2 0x4982 JUMP JUMPDEST ISZERO DUP1 ISZERO PUSH2 0x10A2 JUMPI PUSH1 0x0 DUP1 PUSH2 0x109F PUSH2 0x48BC JUMP JUMPDEST POP POP JUMPDEST POP GAS PUSH2 0x10AC PUSH2 0x49CE JUMP JUMPDEST POP POP POP POP POP ISZERO DUP1 ISZERO PUSH2 0x10CB JUMPI RETURNDATASIZE PUSH1 0x0 DUP1 RETURNDATACOPY RETURNDATASIZE PUSH1 0x0 PUSH2 0x10C8 PUSH2 0x48BC JUMP JUMPDEST POP POP JUMPDEST POP POP POP POP PUSH1 0x40 MLOAD RETURNDATASIZE PUSH1 0x20 DUP2 LT ISZERO PUSH2 0x10EA JUMPI PUSH1 0x0 DUP1 PUSH2 0x10E7 PUSH2 0x48BC JUMP JUMPDEST POP POP JUMPDEST DUP2 ADD SWAP1 DUP1 DUP1 MLOAD SWAP4 POP POP POP POP DUP1 DUP3 GT ISZERO PUSH2 0x1101 JUMPI DUP1 SWAP2 POP JUMPDEST DUP3 ISZERO PUSH2 0x111A JUMPI PUSH2 0x1117 DUP3 DUP5 PUSH4 0xFFFFFFFF PUSH2 0x3495 AND JUMP JUMPDEST SWAP2 POP JUMPDEST POP SWAP5 SWAP4 POP POP POP POP JUMP JUMPDEST PUSH1 0x0 PUSH1 0x1 PUSH2 0x6EF PUSH2 0x4927 JUMP JUMPDEST PUSH1 0x0 PUSH2 0x117E DUP3 PUSH2 0x113D PUSH2 0x2923 JUMP JUMPDEST PUSH1 0x1 PUSH1 0x1 PUSH1 0xA0 SHL SUB AND PUSH4 0xAC82F608 DUP6 PUSH1 0x40 MLOAD PUSH1 0x1 PUSH1 0x1 PUSH1 0xE0 SHL SUB NOT PUSH1 0xE0 DUP5 SWAP1 SHL AND DUP2 MSTORE PUSH1 0x4 DUP2 ADD SWAP2 SWAP1 SWAP2 MSTORE PUSH1 0x24 ADD PUSH1 0x20 PUSH1 0x40 MLOAD DUP1 DUP4 SUB DUP2 DUP7 DUP1 PUSH2 0xB0F PUSH2 0x4982 JUMP JUMPDEST SWAP1 POP JUMPDEST SWAP2 SWAP1 POP JUMP JUMPDEST PUSH1 0x0 PUSH1 0x1 PUSH1 0x1 PUSH1 0xA0 SHL SUB DUP3 AND DUP2 PUSH1 0x2 PUSH2 0x119D PUSH2 0x4927 JUMP JUMPDEST SWAP1 PUSH2 0x100 EXP SWAP1 DIV PUSH1 0x1 PUSH1 0x1 PUSH1 0xA0 SHL SUB AND PUSH1 0x1 PUSH1 0x1 PUSH1 0xA0 SHL SUB AND EQ PUSH2 0x11C3 JUMPI POP PUSH1 0x0 PUSH2 0x1181 JUMP JUMPDEST PUSH1 0x0 JUMPDEST PUSH1 0x4 DUP1 PUSH2 0x11D1 PUSH2 0x4927 JUMP JUMPDEST SWAP1 POP DUP2 LT ISZERO PUSH2 0x1357 JUMPI PUSH1 0x0 PUSH1 0x4 DUP3 DUP2 PUSH2 0x11E8 PUSH2 0x4927 JUMP JUMPDEST DUP2 LT PUSH2 0x11F0 JUMPI INVALID JUMPDEST SWAP1 PUSH1 0x0 MSTORE PUSH1 0x20 PUSH1 0x0 KECCAK256 ADD PUSH2 0x1202 PUSH2 0x4927 JUMP JUMPDEST PUSH1 0x0 DUP2 DUP2 MSTORE PUSH1 0x3 PUSH1 0x20 MSTORE SWAP1 SWAP2 POP PUSH1 0x40 SWAP1 KECCAK256 PUSH1 0x0 SWAP1 PUSH2 0x121E PUSH2 0x4927 JUMP JUMPDEST PUSH1 0x1 PUSH1 0x1 PUSH1 0xA0 SHL SUB PUSH2 0x100 SWAP3 SWAP1 SWAP3 EXP SWAP1 DIV AND PUSH1 0x0 PUSH1 0x2 PUSH2 0x123C PUSH2 0x4927 JUMP JUMPDEST SWAP1 PUSH2 0x100 EXP SWAP1 DIV PUSH1 0x1 PUSH1 0x1 PUSH1 0xA0 SHL SUB AND PUSH1 0x1 PUSH1 0x1 PUSH1 0xA0 SHL SUB AND PUSH4 0x21F8A721 DUP4 PUSH1 0x40 MLOAD PUSH1 0x1 PUSH1 0x1 PUSH1 0xE0 SHL SUB NOT PUSH1 0xE0 DUP5 SWAP1 SHL AND DUP2 MSTORE PUSH1 0x4 DUP2 ADD SWAP2 SWAP1 SWAP2 MSTORE PUSH1 0x24 ADD PUSH1 0x20 PUSH1 0x40 MLOAD DUP1 DUP4 SUB DUP2 DUP7 DUP1 PUSH2 0x128D PUSH2 0x4982 JUMP JUMPDEST ISZERO DUP1 ISZERO PUSH2 0x12A2 JUMPI PUSH1 0x0 DUP1 PUSH2 0x129F PUSH2 0x48BC JUMP JUMPDEST POP POP JUMPDEST POP GAS PUSH2 0x12AC PUSH2 0x49CE JUMP JUMPDEST POP POP POP POP POP ISZERO DUP1 ISZERO PUSH2 0x12CB JUMPI RETURNDATASIZE PUSH1 0x0 DUP1 RETURNDATACOPY RETURNDATASIZE PUSH1 0x0 PUSH2 0x12C8 PUSH2 0x48BC JUMP JUMPDEST POP POP JUMPDEST POP POP POP POP PUSH1 0x40 MLOAD RETURNDATASIZE PUSH1 0x20 DUP2 LT ISZERO PUSH2 0x12EA JUMPI PUSH1 0x0 DUP1 PUSH2 0x12E7 PUSH2 0x48BC JUMP JUMPDEST POP POP JUMPDEST DUP2 ADD SWAP1 DUP1 DUP1 MLOAD PUSH1 0x1 PUSH1 0x1 PUSH1 0xA0 SHL SUB AND SWAP4 SWAP1 SWAP4 EQ ISZERO SWAP3 POP DUP3 SWAP2 POP PUSH2 0x133E SWAP1 POP JUMPI POP PUSH1 0x0 DUP2 DUP2 MSTORE PUSH1 0x3 PUSH1 0x20 MSTORE PUSH1 0x40 DUP2 KECCAK256 PUSH1 0x0 SWAP1 PUSH2 0x1323 PUSH2 0x4927 JUMP JUMPDEST SWAP1 PUSH2 0x100 EXP SWAP1 DIV PUSH1 0x1 PUSH1 0x1 PUSH1 0xA0 SHL SUB AND PUSH1 0x1 PUSH1 0x1 PUSH1 0xA0 SHL SUB AND EQ JUMPDEST ISZERO PUSH2 0x134E JUMPI PUSH1 0x0 SWAP3 POP POP POP PUSH2 0x1181 JUMP JUMPDEST POP PUSH1 0x1 ADD PUSH2 0x11C6 JUMP JUMPDEST POP PUSH1 0x1 SWAP3 SWAP2 POP POP JUMP JUMPDEST PUSH1 0x0 DUP1 PUSH2 0x136B PUSH2 0x1E04 JUMP JUMPDEST SWAP1 POP DUP1 PUSH1 0x1 PUSH1 0x1 PUSH1 0xA0 SHL SUB AND GAS PUSH2 0x1380 PUSH2 0x4A87 JUMP JUMPDEST PUSH1 0x1 PUSH1 0x1 PUSH1 0xA0 SHL SUB AND EQ DUP1 PUSH2 0x1451 JUMPI POP PUSH1 0x0 PUSH1 0x1 PUSH1 0x1 PUSH1 0xA0 SHL SUB DUP3 AND PUSH4 0x16B2213F GAS PUSH2 0x13AA PUSH2 0x4A87 JUMP JUMPDEST PUSH1 0x40 MLOAD PUSH1 0x1 PUSH1 0x1 PUSH1 0xE0 SHL SUB NOT PUSH1 0xE0 DUP5 SWAP1 SHL AND DUP2 MSTORE PUSH1 0x1 PUSH1 0x1 PUSH1 0xA0 SHL SUB SWAP1 SWAP2 AND PUSH1 0x4 DUP3 ADD MSTORE PUSH1 0x24 ADD PUSH1 0x20 PUSH1 0x40 MLOAD DUP1 DUP4 SUB DUP2 DUP7 DUP1 PUSH2 0x13E4 PUSH2 0x4982 JUMP JUMPDEST ISZERO DUP1 ISZERO PUSH2 0x13F9 JUMPI PUSH1 0x0 DUP1 PUSH2 0x13F6 PUSH2 0x48BC JUMP JUMPDEST POP POP JUMPDEST POP GAS PUSH2 0x1403 PUSH2 0x49CE JUMP JUMPDEST POP POP POP POP POP ISZERO DUP1 ISZERO PUSH2 0x1422 JUMPI RETURNDATASIZE PUSH1 0x0 DUP1 RETURNDATACOPY RETURNDATASIZE PUSH1 0x0 PUSH2 0x141F PUSH2 0x48BC JUMP JUMPDEST POP POP JUMPDEST POP POP POP POP PUSH1 0x40 MLOAD RETURNDATASIZE PUSH1 0x20 DUP2 LT ISZERO PUSH2 0x1441 JUMPI PUSH1 0x0 DUP1 PUSH2 0x143E PUSH2 0x48BC JUMP JUMPDEST POP POP JUMPDEST DUP2 ADD SWAP1 DUP1 DUP1 MLOAD SWAP4 SWAP1 SWAP4 EQ ISZERO SWAP3 POP POP POP JUMPDEST PUSH2 0x1495 JUMPI PUSH1 0x40 MLOAD PUSH3 0x461BCD PUSH1 0xE5 SHL DUP2 MSTORE PUSH1 0x4 ADD DUP1 DUP1 PUSH1 0x20 ADD DUP3 DUP2 SUB DUP3 MSTORE PUSH1 0x45 DUP2 MSTORE PUSH1 0x20 ADD DUP1 PUSH2 0x4D1C PUSH1 0x45 SWAP2 CODECOPY PUSH1 0x60 ADD SWAP2 POP POP PUSH1 0x40 MLOAD DUP1 SWAP2 SUB SWAP1 PUSH2 0x1492 PUSH2 0x48BC JUMP JUMPDEST POP POP JUMPDEST PUSH2 0x149D PUSH2 0x34FD JUMP JUMPDEST PUSH1 0x1 PUSH1 0x1 PUSH1 0xA0 SHL SUB AND PUSH4 0xFAF431BB DUP9 DUP9 PUSH1 0x40 MLOAD PUSH1 0x1 PUSH1 0x1 PUSH1 0xE0 SHL SUB NOT PUSH1 0xE0 DUP6 SWAP1 SHL AND DUP2 MSTORE PUSH1 0x1 PUSH1 0x1 PUSH1 0xA0 SHL SUB SWAP3 DUP4 AND PUSH1 0x4 DUP3 ADD MSTORE SWAP2 AND PUSH1 0x24 DUP3 ADD MSTORE PUSH1 0x44 ADD PUSH1 0x20 PUSH1 0x40 MLOAD DUP1 DUP4 SUB DUP2 DUP7 DUP1 PUSH2 0x14EE PUSH2 0x4982 JUMP JUMPDEST ISZERO DUP1 ISZERO PUSH2 0x1503 JUMPI PUSH1 0x0 DUP1 PUSH2 0x1500 PUSH2 0x48BC JUMP JUMPDEST POP POP JUMPDEST POP GAS PUSH2 0x150D PUSH2 0x49CE JUMP JUMPDEST POP POP POP POP POP ISZERO DUP1 ISZERO PUSH2 0x152C JUMPI RETURNDATASIZE PUSH1 0x0 DUP1 RETURNDATACOPY RETURNDATASIZE PUSH1 0x0 PUSH2 0x1529 PUSH2 0x48BC JUMP JUMPDEST POP POP JUMPDEST POP POP POP POP PUSH1 0x40 MLOAD RETURNDATASIZE PUSH1 0x20 DUP2 LT ISZERO PUSH2 0x154B JUMPI PUSH1 0x0 DUP1 PUSH2 0x1548 PUSH2 0x48BC JUMP JUMPDEST POP POP JUMPDEST DUP2 ADD SWAP1 DUP1 DUP1 MLOAD SWAP3 POP PUSH2 0x15AF SWAP2 POP POP JUMPI PUSH1 0x40 MLOAD PUSH3 0x461BCD PUSH1 0xE5 SHL DUP2 MSTORE PUSH1 0x20 PUSH1 0x4 DUP3 ADD MSTORE PUSH1 0x1D PUSH1 0x24 DUP3 ADD MSTORE PUSH32 0x4E6F7420617070726F76656420746F20616374206F6E20626568616C66000000 PUSH1 0x44 DUP3 ADD MSTORE PUSH1 0x64 ADD PUSH1 0x40 MLOAD DUP1 SWAP2 SUB SWAP1 PUSH2 0x15AC PUSH2 0x48BC JUMP JUMPDEST POP POP JUMPDEST PUSH1 0x0 PUSH2 0x15BE DUP9 DUP8 DUP8 DUP8 DUP13 PUSH2 0x1E4F JUMP JUMPDEST SWAP1 SWAP4 POP SWAP1 POP PUSH2 0x927 DUP2 DUP10 PUSH2 0x27C8 JUMP JUMPDEST PUSH1 0x0 PUSH1 0x1 PUSH2 0x15D9 PUSH2 0x4927 JUMP JUMPDEST SWAP1 PUSH2 0x100 EXP SWAP1 DIV PUSH1 0x1 PUSH1 0x1 PUSH1 0xA0 SHL SUB AND PUSH1 0x1 PUSH1 0x1 PUSH1 0xA0 SHL SUB AND GAS PUSH2 0x15FB PUSH2 0x4A87 JUMP JUMPDEST PUSH1 0x1 PUSH1 0x1 PUSH1 0xA0 SHL SUB AND EQ PUSH2 0x1649 JUMPI PUSH1 0x40 MLOAD PUSH3 0x461BCD PUSH1 0xE5 SHL DUP2 MSTORE PUSH1 0x4 ADD DUP1 DUP1 PUSH1 0x20 ADD DUP3 DUP2 SUB DUP3 MSTORE PUSH1 0x35 DUP2 MSTORE PUSH1 0x20 ADD DUP1 PUSH2 0x4CC6 PUSH1 0x35 SWAP2 CODECOPY PUSH1 0x40 ADD SWAP2 POP POP PUSH1 0x40 MLOAD DUP1 SWAP2 SUB SWAP1 PUSH2 0x1646 PUSH2 0x48BC JUMP JUMPDEST POP POP JUMPDEST PUSH32 0xB532073B38C83145E3E5135377A08BF9AAB55BC0FD7C1179CD4FB995D2A5159C PUSH1 0x0 DUP1 PUSH2 0x1675 PUSH2 0x4927 JUMP JUMPDEST SWAP1 PUSH2 0x100 EXP SWAP1 DIV PUSH1 0x1 PUSH1 0x1 PUSH1 0xA0 SHL SUB AND PUSH1 0x1 PUSH1 0x0 SWAP1 PUSH2 0x1692 PUSH2 0x4927 JUMP JUMPDEST SWAP1 PUSH2 0x100 EXP SWAP1 DIV PUSH1 0x1 PUSH1 0x1 PUSH1 0xA0 SHL SUB AND PUSH1 0x40 MLOAD PUSH1 0x1 PUSH1 0x1 PUSH1 0xA0 SHL SUB SWAP3 DUP4 AND DUP2 MSTORE SWAP2 AND PUSH1 0x20 DUP3 ADD MSTORE PUSH1 0x40 SWAP1 DUP2 ADD SWAP1 MLOAD DUP1 SWAP2 SUB SWAP1 LOG1 PUSH1 0x0 PUSH1 0x1 PUSH2 0x16D1 PUSH2 0x4927 JUMP JUMPDEST SWAP1 PUSH2 0x100 EXP SWAP1 DIV PUSH1 0x1 PUSH1 0x1 PUSH1 0xA0 SHL SUB AND PUSH1 0x0 DUP1 PUSH2 0x100 EXP DUP2 PUSH2 0x16F1 PUSH2 0x4927 JUMP JUMPDEST DUP2 PUSH1 0x1 PUSH1 0x1 PUSH1 0xA0 SHL SUB MUL NOT AND SWAP1 DUP4 PUSH1 0x1 PUSH1 0x1 PUSH1 0xA0 SHL SUB AND MUL OR SWAP1 PUSH2 0x1713 PUSH2 0x4B86 JUMP JUMPDEST POP POP POP PUSH1 0x0 PUSH1 0x1 PUSH1 0x0 PUSH2 0x100 EXP DUP2 PUSH2 0x1729 PUSH2 0x4927 JUMP JUMPDEST DUP2 PUSH1 0x1 PUSH1 0x1 PUSH1 0xA0 SHL SUB MUL NOT AND SWAP1 DUP4 PUSH1 0x1 PUSH1 0x1 PUSH1 0xA0 SHL SUB AND MUL OR SWAP1 PUSH2 0x174B PUSH2 0x4B86 JUMP JUMPDEST POP POP POP JUMP JUMPDEST PUSH1 0x5 PUSH1 0x20 MSTORE DUP1 PUSH1 0x0 MSTORE PUSH1 0x40 PUSH1 0x0 KECCAK256 SWAP1 POP PUSH2 0x1768 PUSH2 0x4927 JUMP JUMPDEST DUP2 JUMP JUMPDEST PUSH1 0x0 DUP1 PUSH2 0x1776 PUSH2 0x1E04 JUMP JUMPDEST SWAP1 POP DUP1 PUSH1 0x1 PUSH1 0x1 PUSH1 0xA0 SHL SUB AND GAS PUSH2 0x178B PUSH2 0x4A87 JUMP JUMPDEST PUSH1 0x1 PUSH1 0x1 PUSH1 0xA0 SHL SUB AND EQ DUP1 PUSH2 0x185C JUMPI POP PUSH1 0x0 PUSH1 0x1 PUSH1 0x1 PUSH1 0xA0 SHL SUB DUP3 AND PUSH4 0x16B2213F GAS PUSH2 0x17B5 PUSH2 0x4A87 JUMP JUMPDEST PUSH1 0x40 MLOAD PUSH1 0x1 PUSH1 0x1 PUSH1 0xE0 SHL SUB NOT PUSH1 0xE0 DUP5 SWAP1 SHL AND DUP2 MSTORE PUSH1 0x1 PUSH1 0x1 PUSH1 0xA0 SHL SUB SWAP1 SWAP2 AND PUSH1 0x4 DUP3 ADD MSTORE PUSH1 0x24 ADD PUSH1 0x20 PUSH1 0x40 MLOAD DUP1 DUP4 SUB DUP2 DUP7 DUP1 PUSH2 0x17EF PUSH2 0x4982 JUMP JUMPDEST ISZERO DUP1 ISZERO PUSH2 0x1804 JUMPI PUSH1 0x0 DUP1 PUSH2 0x1801 PUSH2 0x48BC JUMP JUMPDEST POP POP JUMPDEST POP GAS PUSH2 0x180E PUSH2 0x49CE JUMP JUMPDEST POP POP POP POP POP ISZERO DUP1 ISZERO PUSH2 0x182D JUMPI RETURNDATASIZE PUSH1 0x0 DUP1 RETURNDATACOPY RETURNDATASIZE PUSH1 0x0 PUSH2 0x182A PUSH2 0x48BC JUMP JUMPDEST POP POP JUMPDEST POP POP POP POP PUSH1 0x40 MLOAD RETURNDATASIZE PUSH1 0x20 DUP2 LT ISZERO PUSH2 0x184C JUMPI PUSH1 0x0 DUP1 PUSH2 0x1849 PUSH2 0x48BC JUMP JUMPDEST POP POP JUMPDEST DUP2 ADD SWAP1 DUP1 DUP1 MLOAD SWAP4 SWAP1 SWAP4 EQ ISZERO SWAP3 POP POP POP JUMPDEST PUSH2 0x18A0 JUMPI PUSH1 0x40 MLOAD PUSH3 0x461BCD PUSH1 0xE5 SHL DUP2 MSTORE PUSH1 0x4 ADD DUP1 DUP1 PUSH1 0x20 ADD DUP3 DUP2 SUB DUP3 MSTORE PUSH1 0x45 DUP2 MSTORE PUSH1 0x20 ADD DUP1 PUSH2 0x4D1C PUSH1 0x45 SWAP2 CODECOPY PUSH1 0x60 ADD SWAP2 POP POP PUSH1 0x40 MLOAD DUP1 SWAP2 SUB SWAP1 PUSH2 0x189D PUSH2 0x48BC JUMP JUMPDEST POP POP JUMPDEST PUSH1 0x0 PUSH2 0x18AF DUP11 DUP11 DUP11 DUP11 DUP11 PUSH2 0x1E4F JUMP JUMPDEST SWAP1 SWAP4 POP SWAP1 POP PUSH2 0x18BE DUP2 DUP7 PUSH2 0x27C8 JUMP JUMPDEST PUSH2 0x18C9 DUP5 DUP9 DUP6 PUSH2 0x3533 JUMP JUMPDEST POP POP SWAP8 SWAP7 POP POP POP POP POP POP POP JUMP JUMPDEST PUSH1 0x0 PUSH2 0xDBB PUSH2 0x35D4 JUMP JUMPDEST PUSH1 0x0 DUP1 PUSH2 0x6EF PUSH2 0x4927 JUMP JUMPDEST PUSH2 0x18F3 PUSH2 0x4BD4 JUMP JUMPDEST PUSH1 0x0 JUMPDEST PUSH1 0x4 DUP1 PUSH2 0x1901 PUSH2 0x4927 JUMP JUMPDEST SWAP1 POP DUP2 LT ISZERO PUSH2 0x1949 JUMPI PUSH1 0x4 DUP2 DUP2 PUSH2 0x1916 PUSH2 0x4927 JUMP JUMPDEST DUP2 LT PUSH2 0x191E JUMPI INVALID JUMPDEST SWAP1 PUSH1 0x0 MSTORE PUSH1 0x20 PUSH1 0x0 KECCAK256 ADD PUSH2 0x1930 PUSH2 0x4927 JUMP JUMPDEST DUP3 DUP3 PUSH1 0x18 DUP2 LT PUSH2 0x193C JUMPI INVALID JUMPDEST PUSH1 0x20 MUL ADD MSTORE PUSH1 0x1 ADD PUSH2 0x18F6 JUMP JUMPDEST POP SWAP1 JUMP JUMPDEST PUSH1 0x0 PUSH2 0xDBB PUSH2 0x364A JUMP JUMPDEST PUSH1 0x4 DUP2 DUP2 PUSH2 0x1963 PUSH2 0x4927 JUMP JUMPDEST DUP2 LT PUSH2 0x196B JUMPI INVALID JUMPDEST SWAP1 PUSH1 0x0 MSTORE PUSH1 0x20 PUSH1 0x0 KECCAK256 ADD SWAP1 POP PUSH2 0x1768 PUSH2 0x4927 JUMP JUMPDEST PUSH1 0x0 PUSH2 0x1989 PUSH2 0x2923 JUMP JUMPDEST SWAP1 POP DUP1 PUSH1 0x1 PUSH1 0x1 PUSH1 0xA0 SHL SUB AND GAS PUSH2 0x199E PUSH2 0x4A87 JUMP JUMPDEST PUSH1 0x1 PUSH1 0x1 PUSH1 0xA0 SHL SUB AND EQ PUSH2 0x1A01 JUMPI PUSH1 0x40 MLOAD PUSH3 0x461BCD PUSH1 0xE5 SHL DUP2 MSTORE PUSH1 0x20 PUSH1 0x4 DUP3 ADD MSTORE PUSH1 0x1B PUSH1 0x24 DUP3 ADD MSTORE PUSH32 0x5265737472696374656420746F2045786368616E676552617465730000000000 PUSH1 0x44 DUP3 ADD MSTORE PUSH1 0x64 ADD PUSH1 0x40 MLOAD DUP1 SWAP2 SUB SWAP1 PUSH2 0x19FE PUSH2 0x48BC JUMP JUMPDEST POP POP JUMPDEST PUSH1 0x0 DUP3 GT PUSH2 0x1A55 JUMPI PUSH1 0x40 MLOAD PUSH3 0x461BCD PUSH1 0xE5 SHL DUP2 MSTORE PUSH1 0x20 PUSH1 0x4 DUP3 ADD MSTORE PUSH1 0x14 PUSH1 0x24 DUP3 ADD MSTORE PUSH20 0x52617465206D7573742062652061626F7665203 PUSH1 0x64 SHL PUSH1 0x44 DUP3 ADD MSTORE PUSH1 0x64 ADD PUSH1 0x40 MLOAD DUP1 SWAP2 SUB SWAP1 PUSH2 0x1A52 PUSH2 0x48BC JUMP JUMPDEST POP POP JUMPDEST PUSH1 0x0 DUP4 DUP2 MSTORE PUSH1 0x5 PUSH1 0x20 MSTORE DUP3 SWAP1 PUSH1 0x40 SWAP1 KECCAK256 DUP2 SWAP1 PUSH2 0x1A6F PUSH2 0x4B86 JUMP JUMPDEST POP POP POP POP POP POP JUMP JUMPDEST PUSH1 0x0 PUSH2 0x1A83 DUP4 DUP4 PUSH2 0x702 JUMP JUMPDEST ISZERO PUSH2 0x1A90 JUMPI POP PUSH1 0x1 PUSH2 0x7CE JUMP JUMPDEST PUSH1 0x0 PUSH2 0x1A9C DUP5 DUP5 PUSH2 0x2CAE JUMP JUMPDEST POP POP POP ISZERO ISZERO SWAP5 SWAP4 POP POP POP POP JUMP JUMPDEST PUSH1 0x0 DUP1 PUSH2 0x1AB4 PUSH2 0x1E04 JUMP JUMPDEST SWAP1 POP DUP1 PUSH1 0x1 PUSH1 0x1 PUSH1 0xA0 SHL SUB AND GAS PUSH2 0x1AC9 PUSH2 0x4A87 JUMP JUMPDEST PUSH1 0x1 PUSH1 0x1 PUSH1 0xA0 SHL SUB AND EQ DUP1 PUSH2 0x1B9A JUMPI POP PUSH1 0x0 PUSH1 0x1 PUSH1 0x1 PUSH1 0xA0 SHL SUB DUP3 AND PUSH4 0x16B2213F GAS PUSH2 0x1AF3 PUSH2 0x4A87 JUMP JUMPDEST PUSH1 0x40 MLOAD PUSH1 0x1 PUSH1 0x1 PUSH1 0xE0 SHL SUB NOT PUSH1 0xE0 DUP5 SWAP1 SHL AND DUP2 MSTORE PUSH1 0x1 PUSH1 0x1 PUSH1 0xA0 SHL SUB SWAP1 SWAP2 AND PUSH1 0x4 DUP3 ADD MSTORE PUSH1 0x24 ADD PUSH1 0x20 PUSH1 0x40 MLOAD DUP1 DUP4 SUB DUP2 DUP7 DUP1 PUSH2 0x1B2D PUSH2 0x4982 JUMP JUMPDEST ISZERO DUP1 ISZERO PUSH2 0x1B42 JUMPI PUSH1 0x0 DUP1 PUSH2 0x1B3F PUSH2 0x48BC JUMP JUMPDEST POP POP JUMPDEST POP GAS PUSH2 0x1B4C PUSH2 0x49CE JUMP JUMPDEST POP POP POP POP POP ISZERO DUP1 ISZERO PUSH2 0x1B6B JUMPI RETURNDATASIZE PUSH1 0x0 DUP1 RETURNDATACOPY RETURNDATASIZE PUSH1 0x0 PUSH2 0x1B68 PUSH2 0x48BC JUMP JUMPDEST POP POP JUMPDEST POP POP POP POP PUSH1 0x40 MLOAD RETURNDATASIZE PUSH1 0x20 DUP2 LT ISZERO PUSH2 0x1B8A JUMPI PUSH1 0x0 DUP1 PUSH2 0x1B87 PUSH2 0x48BC JUMP JUMPDEST POP POP JUMPDEST DUP2 ADD SWAP1 DUP1 DUP1 MLOAD SWAP4 SWAP1 SWAP4 EQ ISZERO SWAP3 POP POP POP JUMPDEST PUSH2 0x1BDE JUMPI PUSH1 0x40 MLOAD PUSH3 0x461BCD PUSH1 0xE5 SHL DUP2 MSTORE PUSH1 0x4 ADD DUP1 DUP1 PUSH1 0x20 ADD DUP3 DUP2 SUB DUP3 MSTORE PUSH1 0x45 DUP2 MSTORE PUSH1 0x20 ADD DUP1 PUSH2 0x4D1C PUSH1 0x45 SWAP2 CODECOPY PUSH1 0x60 ADD SWAP2 POP POP PUSH1 0x40 MLOAD DUP1 SWAP2 SUB SWAP1 PUSH2 0x1BDB PUSH2 0x48BC JUMP JUMPDEST POP POP JUMPDEST PUSH2 0x1BE6 PUSH2 0x34FD JUMP JUMPDEST PUSH1 0x1 PUSH1 0x1 PUSH1 0xA0 SHL SUB AND PUSH4 0xFAF431BB DUP11 DUP11 PUSH1 0x40 MLOAD PUSH1 0x1 PUSH1 0x1 PUSH1 0xE0 SHL SUB NOT PUSH1 0xE0 DUP6 SWAP1 SHL AND DUP2 MSTORE PUSH1 0x1 PUSH1 0x1 PUSH1 0xA0 SHL SUB SWAP3 DUP4 AND PUSH1 0x4 DUP3 ADD MSTORE SWAP2 AND PUSH1 0x24 DUP3 ADD MSTORE PUSH1 0x44 ADD PUSH1 0x20 PUSH1 0x40 MLOAD DUP1 DUP4 SUB DUP2 DUP7 DUP1 PUSH2 0x1C37 PUSH2 0x4982 JUMP JUMPDEST ISZERO DUP1 ISZERO PUSH2 0x1C4C JUMPI PUSH1 0x0 DUP1 PUSH2 0x1C49 PUSH2 0x48BC JUMP JUMPDEST POP POP JUMPDEST POP GAS PUSH2 0x1C56 PUSH2 0x49CE JUMP JUMPDEST POP POP POP POP POP ISZERO DUP1 ISZERO PUSH2 0x1C75 JUMPI RETURNDATASIZE PUSH1 0x0 DUP1 RETURNDATACOPY RETURNDATASIZE PUSH1 0x0 PUSH2 0x1C72 PUSH2 0x48BC JUMP JUMPDEST POP POP JUMPDEST POP POP POP POP PUSH1 0x40 MLOAD RETURNDATASIZE PUSH1 0x20 DUP2 LT ISZERO PUSH2 0x1C94 JUMPI PUSH1 0x0 DUP1 PUSH2 0x1C91 PUSH2 0x48BC JUMP JUMPDEST POP POP JUMPDEST DUP2 ADD SWAP1 DUP1 DUP1 MLOAD SWAP3 POP PUSH2 0x1CF8 SWAP2 POP POP JUMPI PUSH1 0x40 MLOAD PUSH3 0x461BCD PUSH1 0xE5 SHL DUP2 MSTORE PUSH1 0x20 PUSH1 0x4 DUP3 ADD MSTORE PUSH1 0x1D PUSH1 0x24 DUP3 ADD MSTORE PUSH32 0x4E6F7420617070726F76656420746F20616374206F6E20626568616C66000000 PUSH1 0x44 DUP3 ADD MSTORE PUSH1 0x64 ADD PUSH1 0x40 MLOAD DUP1 SWAP2 SUB SWAP1 PUSH2 0x1CF5 PUSH2 0x48BC JUMP JUMPDEST POP POP JUMPDEST PUSH1 0x0 PUSH2 0x1D07 DUP11 DUP10 DUP10 DUP10 DUP15 PUSH2 0x1E4F JUMP JUMPDEST SWAP1 SWAP4 POP SWAP1 POP PUSH2 0x1D16 DUP2 DUP7 PUSH2 0x27C8 JUMP JUMPDEST PUSH2 0x18C9 DUP5 DUP8 DUP6 PUSH2 0x3533 JUMP JUMPDEST PUSH1 0x18 DUP2 JUMP JUMPDEST PUSH1 0x0 DUP1 PUSH1 0x0 PUSH2 0x1D36 DUP7 DUP7 DUP7 PUSH2 0x36C4 JUMP JUMPDEST POP SWAP3 SWAP10 SWAP2 SWAP9 POP SWAP7 POP SWAP5 POP POP POP POP POP JUMP JUMPDEST PUSH1 0x0 PUSH2 0xDBB PUSH13 0x45786368616E67655374617465 PUSH1 0x98 SHL PUSH1 0x40 MLOAD PUSH1 0x40 DUP1 DUP3 ADD SWAP1 MSTORE PUSH1 0x1D DUP2 MSTORE PUSH32 0x4D697373696E672045786368616E676553746174652061646472657373000000 PUSH1 0x20 DUP3 ADD MSTORE PUSH2 0x37DD JUMP JUMPDEST PUSH1 0x0 DUP1 PUSH2 0x1DA0 PUSH2 0x35D4 JUMP JUMPDEST SWAP1 POP DUP3 ISZERO DUP1 PUSH2 0x1DC6 JUMPI POP PUSH2 0x1DBA DUP4 DUP3 PUSH4 0xFFFFFFFF PUSH2 0x3495 AND JUMP JUMPDEST GAS PUSH2 0x1DC3 PUSH2 0x4BF1 JUMP JUMPDEST LT ISZERO JUMPDEST ISZERO PUSH2 0x1DD5 JUMPI PUSH1 0x0 SWAP2 POP POP PUSH2 0x1181 JUMP JUMPDEST PUSH2 0x1DFD GAS PUSH2 0x1DE1 PUSH2 0x4BF1 JUMP JUMPDEST PUSH2 0x1DF1 DUP6 DUP5 PUSH4 0xFFFFFFFF PUSH2 0x3495 AND JUMP JUMPDEST SWAP1 PUSH4 0xFFFFFFFF PUSH2 0x38A6 AND JUMP JUMPDEST SWAP4 SWAP3 POP POP POP JUMP JUMPDEST PUSH1 0x0 PUSH2 0xDBB PUSH9 0xA6F2DCE8D0CAE8D2F PUSH1 0xBB SHL PUSH1 0x40 MLOAD PUSH1 0x40 DUP1 DUP3 ADD SWAP1 MSTORE PUSH1 0x19 DUP2 MSTORE PUSH32 0x4D697373696E672053796E746865746978206164647265737300000000000000 PUSH1 0x20 DUP3 ADD MSTORE PUSH2 0x37DD JUMP JUMPDEST PUSH1 0x0 DUP1 PUSH2 0x1E5D DUP7 DUP7 DUP7 PUSH2 0x390B JUMP JUMPDEST PUSH1 0x0 DUP1 PUSH2 0x1E6C DUP10 DUP10 PUSH1 0x0 PUSH2 0x2FE2 JUMP JUMPDEST SWAP1 SWAP4 POP SWAP2 POP DUP8 SWAP1 POP DUP2 ISZERO PUSH2 0x1E9D JUMPI PUSH2 0x1E86 DUP11 DUP11 DUP11 DUP7 PUSH2 0xF8F JUMP JUMPDEST SWAP1 POP DUP1 PUSH2 0x1E9D JUMPI POP PUSH1 0x0 SWAP4 POP DUP4 SWAP3 POP PUSH2 0x27BE SWAP2 POP POP JUMP JUMPDEST PUSH1 0x0 DUP1 PUSH1 0x0 PUSH2 0x1EAD DUP5 DUP14 DUP13 PUSH2 0x36C4 JUMP JUMPDEST SWAP4 SWAP12 POP SWAP2 SWAP10 POP SWAP5 POP SWAP3 POP SWAP1 POP PUSH2 0x1EC3 DUP13 DUP4 PUSH2 0x2972 JUMP JUMPDEST ISZERO PUSH2 0x1F70 JUMPI PUSH2 0x1ED0 PUSH2 0x2894 JUMP JUMPDEST PUSH1 0x1 PUSH1 0x1 PUSH1 0xA0 SHL SUB AND PUSH4 0xABC0BB6E DUP14 PUSH1 0x41 PUSH1 0x40 MLOAD PUSH1 0x1 PUSH1 0x1 PUSH1 0xE0 SHL SUB NOT PUSH1 0xE0 DUP6 SWAP1 SHL AND DUP2 MSTORE PUSH1 0x4 DUP2 ADD SWAP3 SWAP1 SWAP3 MSTORE PUSH1 0x24 DUP3 ADD MSTORE PUSH1 0x44 ADD PUSH1 0x0 PUSH1 0x40 MLOAD DUP1 DUP4 SUB DUP2 PUSH1 0x0 DUP8 DUP1 PUSH2 0x1F1A PUSH2 0x4982 JUMP JUMPDEST ISZERO DUP1 ISZERO PUSH2 0x1F2F JUMPI PUSH1 0x0 DUP1 PUSH2 0x1F2C PUSH2 0x48BC JUMP JUMPDEST POP POP JUMPDEST POP GAS PUSH2 0x1F39 PUSH2 0x4ACD JUMP JUMPDEST POP POP POP POP POP POP ISZERO DUP1 ISZERO PUSH2 0x1F59 JUMPI RETURNDATASIZE PUSH1 0x0 DUP1 RETURNDATACOPY RETURNDATASIZE PUSH1 0x0 PUSH2 0x1F56 PUSH2 0x48BC JUMP JUMPDEST POP POP JUMPDEST POP PUSH1 0x0 SWAP11 POP DUP11 SWAP10 POP PUSH2 0x27BE SWAP9 POP POP POP POP POP POP POP POP POP JUMP JUMPDEST PUSH1 0x0 DUP13 DUP2 MSTORE PUSH1 0x5 PUSH1 0x20 MSTORE DUP3 SWAP1 PUSH1 0x40 SWAP1 KECCAK256 DUP2 SWAP1 PUSH2 0x1F8A PUSH2 0x4B86 JUMP JUMPDEST POP POP POP PUSH2 0x1F97 DUP11 DUP3 PUSH2 0x2972 JUMP JUMPDEST ISZERO PUSH2 0x1FEE JUMPI PUSH2 0x1FA4 PUSH2 0x2894 JUMP JUMPDEST PUSH1 0x1 PUSH1 0x1 PUSH1 0xA0 SHL SUB AND PUSH4 0xABC0BB6E DUP12 PUSH1 0x41 PUSH1 0x40 MLOAD PUSH1 0x1 PUSH1 0x1 PUSH1 0xE0 SHL SUB NOT PUSH1 0xE0 DUP6 SWAP1 SHL AND DUP2 MSTORE PUSH1 0x4 DUP2 ADD SWAP3 SWAP1 SWAP3 MSTORE PUSH1 0x24 DUP3 ADD MSTORE PUSH1 0x44 ADD PUSH1 0x0 PUSH1 0x40 MLOAD DUP1 DUP4 SUB DUP2 PUSH1 0x0 DUP8 DUP1 PUSH2 0x1F1A PUSH2 0x4982 JUMP JUMPDEST PUSH1 0x0 DUP11 DUP2 MSTORE PUSH1 0x5 PUSH1 0x20 MSTORE DUP2 SWAP1 PUSH1 0x40 SWAP1 KECCAK256 DUP2 SWAP1 PUSH2 0x2008 PUSH2 0x4B86 JUMP JUMPDEST POP POP POP PUSH2 0x2013 PUSH2 0x28E2 JUMP JUMPDEST PUSH1 0x1 PUSH1 0x1 PUSH1 0xA0 SHL SUB AND PUSH4 0x32608039 DUP14 PUSH1 0x40 MLOAD PUSH1 0x1 PUSH1 0x1 PUSH1 0xE0 SHL SUB NOT PUSH1 0xE0 DUP5 SWAP1 SHL AND DUP2 MSTORE PUSH1 0x4 DUP2 ADD SWAP2 SWAP1 SWAP2 MSTORE PUSH1 0x24 ADD PUSH1 0x20 PUSH1 0x40 MLOAD DUP1 DUP4 SUB DUP2 DUP7 DUP1 PUSH2 0x2054 PUSH2 0x4982 JUMP JUMPDEST ISZERO DUP1 ISZERO PUSH2 0x2069 JUMPI PUSH1 0x0 DUP1 PUSH2 0x2066 PUSH2 0x48BC JUMP JUMPDEST POP POP JUMPDEST POP GAS PUSH2 0x2073 PUSH2 0x49CE JUMP JUMPDEST POP POP POP POP POP ISZERO DUP1 ISZERO PUSH2 0x2092 JUMPI RETURNDATASIZE PUSH1 0x0 DUP1 RETURNDATACOPY RETURNDATASIZE PUSH1 0x0 PUSH2 0x208F PUSH2 0x48BC JUMP JUMPDEST POP POP JUMPDEST POP POP POP POP PUSH1 0x40 MLOAD RETURNDATASIZE PUSH1 0x20 DUP2 LT ISZERO PUSH2 0x20B1 JUMPI PUSH1 0x0 DUP1 PUSH2 0x20AE PUSH2 0x48BC JUMP JUMPDEST POP POP JUMPDEST DUP2 ADD SWAP1 DUP1 DUP1 MLOAD PUSH1 0x1 PUSH1 0x1 PUSH1 0xA0 SHL SUB AND SWAP3 POP PUSH4 0x9DC29FAC SWAP2 POP DUP16 SWAP1 POP DUP7 PUSH1 0x40 MLOAD PUSH1 0x1 PUSH1 0x1 PUSH1 0xE0 SHL SUB NOT PUSH1 0xE0 DUP6 SWAP1 SHL AND DUP2 MSTORE PUSH1 0x1 PUSH1 0x1 PUSH1 0xA0 SHL SUB SWAP1 SWAP3 AND PUSH1 0x4 DUP4 ADD MSTORE PUSH1 0x24 DUP3 ADD MSTORE PUSH1 0x44 ADD PUSH1 0x0 PUSH1 0x40 MLOAD DUP1 DUP4 SUB DUP2 PUSH1 0x0 DUP8 DUP1 PUSH2 0x210E PUSH2 0x4982 JUMP JUMPDEST ISZERO DUP1 ISZERO PUSH2 0x2123 JUMPI PUSH1 0x0 DUP1 PUSH2 0x2120 PUSH2 0x48BC JUMP JUMPDEST POP POP JUMPDEST POP GAS PUSH2 0x212D PUSH2 0x4ACD JUMP JUMPDEST POP POP POP POP POP POP ISZERO DUP1 ISZERO PUSH2 0x214D JUMPI RETURNDATASIZE PUSH1 0x0 DUP1 RETURNDATACOPY RETURNDATASIZE PUSH1 0x0 PUSH2 0x214A PUSH2 0x48BC JUMP JUMPDEST POP POP JUMPDEST POP POP POP POP PUSH2 0x2159 PUSH2 0x28E2 JUMP JUMPDEST PUSH1 0x1 PUSH1 0x1 PUSH1 0xA0 SHL SUB AND PUSH4 0x32608039 DUP12 PUSH1 0x40 MLOAD PUSH1 0x1 PUSH1 0x1 PUSH1 0xE0 SHL SUB NOT PUSH1 0xE0 DUP5 SWAP1 SHL AND DUP2 MSTORE PUSH1 0x4 DUP2 ADD SWAP2 SWAP1 SWAP2 MSTORE PUSH1 0x24 ADD PUSH1 0x20 PUSH1 0x40 MLOAD DUP1 DUP4 SUB DUP2 DUP7 DUP1 PUSH2 0x219A PUSH2 0x4982 JUMP JUMPDEST ISZERO DUP1 ISZERO PUSH2 0x21AF JUMPI PUSH1 0x0 DUP1 PUSH2 0x21AC PUSH2 0x48BC JUMP JUMPDEST POP POP JUMPDEST POP GAS PUSH2 0x21B9 PUSH2 0x49CE JUMP JUMPDEST POP POP POP POP POP ISZERO DUP1 ISZERO PUSH2 0x21D8 JUMPI RETURNDATASIZE PUSH1 0x0 DUP1 RETURNDATACOPY RETURNDATASIZE PUSH1 0x0 PUSH2 0x21D5 PUSH2 0x48BC JUMP JUMPDEST POP POP JUMPDEST POP POP POP POP PUSH1 0x40 MLOAD RETURNDATASIZE PUSH1 0x20 DUP2 LT ISZERO PUSH2 0x21F7 JUMPI PUSH1 0x0 DUP1 PUSH2 0x21F4 PUSH2 0x48BC JUMP JUMPDEST POP POP JUMPDEST DUP2 ADD SWAP1 DUP1 DUP1 MLOAD PUSH1 0x1 PUSH1 0x1 PUSH1 0xA0 SHL SUB AND SWAP3 POP PUSH4 0x867904B4 SWAP2 POP DUP12 SWAP1 POP DUP11 PUSH1 0x40 MLOAD PUSH1 0x1 PUSH1 0x1 PUSH1 0xE0 SHL SUB NOT PUSH1 0xE0 DUP6 SWAP1 SHL AND DUP2 MSTORE PUSH1 0x1 PUSH1 0x1 PUSH1 0xA0 SHL SUB SWAP1 SWAP3 AND PUSH1 0x4 DUP4 ADD MSTORE PUSH1 0x24 DUP3 ADD MSTORE PUSH1 0x44 ADD PUSH1 0x0 PUSH1 0x40 MLOAD DUP1 DUP4 SUB DUP2 PUSH1 0x0 DUP8 DUP1 PUSH2 0x2254 PUSH2 0x4982 JUMP JUMPDEST ISZERO DUP1 ISZERO PUSH2 0x2269 JUMPI PUSH1 0x0 DUP1 PUSH2 0x2266 PUSH2 0x48BC JUMP JUMPDEST POP POP JUMPDEST POP GAS PUSH2 0x2273 PUSH2 0x4ACD JUMP JUMPDEST POP POP POP POP POP POP ISZERO DUP1 ISZERO PUSH2 0x2293 JUMPI RETURNDATASIZE PUSH1 0x0 DUP1 RETURNDATACOPY RETURNDATASIZE PUSH1 0x0 PUSH2 0x2290 PUSH2 0x48BC JUMP JUMPDEST POP POP JUMPDEST POP POP POP POP PUSH1 0x0 DUP8 GT ISZERO PUSH2 0x25E8 JUMPI PUSH2 0x22A8 PUSH2 0x2923 JUMP JUMPDEST PUSH1 0x1 PUSH1 0x1 PUSH1 0xA0 SHL SUB AND PUSH4 0x654A60AC DUP12 DUP10 PUSH4 0x1CD554D1 PUSH1 0xE2 SHL PUSH1 0x40 MLOAD PUSH1 0x1 PUSH1 0x1 PUSH1 0xE0 SHL SUB NOT PUSH1 0xE0 DUP7 SWAP1 SHL AND DUP2 MSTORE PUSH1 0x4 DUP2 ADD SWAP4 SWAP1 SWAP4 MSTORE PUSH1 0x24 DUP4 ADD SWAP2 SWAP1 SWAP2 MSTORE PUSH1 0x44 DUP3 ADD MSTORE PUSH1 0x64 ADD PUSH1 0x20 PUSH1 0x40 MLOAD DUP1 DUP4 SUB DUP2 DUP7 DUP1 PUSH2 0x22FF PUSH2 0x4982 JUMP JUMPDEST ISZERO DUP1 ISZERO PUSH2 0x2314 JUMPI PUSH1 0x0 DUP1 PUSH2 0x2311 PUSH2 0x48BC JUMP JUMPDEST POP POP JUMPDEST POP GAS PUSH2 0x231E PUSH2 0x49CE JUMP JUMPDEST POP POP POP POP POP ISZERO DUP1 ISZERO PUSH2 0x233D JUMPI RETURNDATASIZE PUSH1 0x0 DUP1 RETURNDATACOPY RETURNDATASIZE PUSH1 0x0 PUSH2 0x233A PUSH2 0x48BC JUMP JUMPDEST POP POP JUMPDEST POP POP POP POP PUSH1 0x40 MLOAD RETURNDATASIZE PUSH1 0x20 DUP2 LT ISZERO PUSH2 0x235C JUMPI PUSH1 0x0 DUP1 PUSH2 0x2359 PUSH2 0x48BC JUMP JUMPDEST POP POP JUMPDEST DUP2 ADD SWAP1 DUP1 DUP1 MLOAD SWAP10 POP PUSH2 0x2371 SWAP3 POP PUSH2 0x28E2 SWAP2 POP POP JUMP JUMPDEST PUSH1 0x1 PUSH1 0x1 PUSH1 0xA0 SHL SUB AND PUSH4 0x32608039 PUSH4 0x1CD554D1 PUSH1 0xE2 SHL PUSH1 0x40 MLOAD PUSH1 0x1 PUSH1 0x1 PUSH1 0xE0 SHL SUB NOT PUSH1 0xE0 DUP5 SWAP1 SHL AND DUP2 MSTORE PUSH1 0x4 DUP2 ADD SWAP2 SWAP1 SWAP2 MSTORE PUSH1 0x24 ADD PUSH1 0x20 PUSH1 0x40 MLOAD DUP1 DUP4 SUB DUP2 DUP7 DUP1 PUSH2 0x23B9 PUSH2 0x4982 JUMP JUMPDEST ISZERO DUP1 ISZERO PUSH2 0x23CE JUMPI PUSH1 0x0 DUP1 PUSH2 0x23CB PUSH2 0x48BC JUMP JUMPDEST POP POP JUMPDEST POP GAS PUSH2 0x23D8 PUSH2 0x49CE JUMP JUMPDEST POP POP POP POP POP ISZERO DUP1 ISZERO PUSH2 0x23F7 JUMPI RETURNDATASIZE PUSH1 0x0 DUP1 RETURNDATACOPY RETURNDATASIZE PUSH1 0x0 PUSH2 0x23F4 PUSH2 0x48BC JUMP JUMPDEST POP POP JUMPDEST POP POP POP POP PUSH1 0x40 MLOAD RETURNDATASIZE PUSH1 0x20 DUP2 LT ISZERO PUSH2 0x2416 JUMPI PUSH1 0x0 DUP1 PUSH2 0x2413 PUSH2 0x48BC JUMP JUMPDEST POP POP JUMPDEST DUP2 ADD SWAP1 DUP1 DUP1 MLOAD PUSH1 0x1 PUSH1 0x1 PUSH1 0xA0 SHL SUB AND SWAP3 POP PUSH4 0x867904B4 SWAP2 POP PUSH2 0x2438 SWAP1 POP PUSH2 0x3B41 JUMP JUMPDEST PUSH1 0x1 PUSH1 0x1 PUSH1 0xA0 SHL SUB AND PUSH4 0xEB1EDD61 PUSH1 0x40 MLOAD DUP2 PUSH4 0xFFFFFFFF AND PUSH1 0xE0 SHL DUP2 MSTORE PUSH1 0x4 ADD PUSH1 0x20 PUSH1 0x40 MLOAD DUP1 DUP4 SUB DUP2 DUP7 DUP1 PUSH2 0x246B PUSH2 0x4982 JUMP JUMPDEST ISZERO DUP1 ISZERO PUSH2 0x2480 JUMPI PUSH1 0x0 DUP1 PUSH2 0x247D PUSH2 0x48BC JUMP JUMPDEST POP POP JUMPDEST POP GAS PUSH2 0x248A PUSH2 0x49CE JUMP JUMPDEST POP POP POP POP POP ISZERO DUP1 ISZERO PUSH2 0x24A9 JUMPI RETURNDATASIZE PUSH1 0x0 DUP1 RETURNDATACOPY RETURNDATASIZE PUSH1 0x0 PUSH2 0x24A6 PUSH2 0x48BC JUMP JUMPDEST POP POP JUMPDEST POP POP POP POP PUSH1 0x40 MLOAD RETURNDATASIZE PUSH1 0x20 DUP2 LT ISZERO PUSH2 0x24C8 JUMPI PUSH1 0x0 DUP1 PUSH2 0x24C5 PUSH2 0x48BC JUMP JUMPDEST POP POP JUMPDEST DUP2 ADD SWAP1 DUP1 DUP1 MLOAD SWAP3 POP DUP12 SWAP2 POP PUSH1 0x40 SWAP1 POP MLOAD PUSH1 0x1 PUSH1 0x1 PUSH1 0xE0 SHL SUB NOT PUSH1 0xE0 DUP6 SWAP1 SHL AND DUP2 MSTORE PUSH1 0x1 PUSH1 0x1 PUSH1 0xA0 SHL SUB SWAP1 SWAP3 AND PUSH1 0x4 DUP4 ADD MSTORE PUSH1 0x24 DUP3 ADD MSTORE PUSH1 0x44 ADD PUSH1 0x0 PUSH1 0x40 MLOAD DUP1 DUP4 SUB DUP2 PUSH1 0x0 DUP8 DUP1 PUSH2 0x2516 PUSH2 0x4982 JUMP JUMPDEST ISZERO DUP1 ISZERO PUSH2 0x252B JUMPI PUSH1 0x0 DUP1 PUSH2 0x2528 PUSH2 0x48BC JUMP JUMPDEST POP POP JUMPDEST POP GAS PUSH2 0x2535 PUSH2 0x4ACD JUMP JUMPDEST POP POP POP POP POP POP ISZERO DUP1 ISZERO PUSH2 0x2555 JUMPI RETURNDATASIZE PUSH1 0x0 DUP1 RETURNDATACOPY RETURNDATASIZE PUSH1 0x0 PUSH2 0x2552 PUSH2 0x48BC JUMP JUMPDEST POP POP JUMPDEST POP POP POP POP PUSH2 0x2561 PUSH2 0x3B41 JUMP JUMPDEST PUSH1 0x1 PUSH1 0x1 PUSH1 0xA0 SHL SUB AND PUSH4 0x22BF55EF DUP9 PUSH1 0x40 MLOAD PUSH1 0x1 PUSH1 0x1 PUSH1 0xE0 SHL SUB NOT PUSH1 0xE0 DUP5 SWAP1 SHL AND DUP2 MSTORE PUSH1 0x4 DUP2 ADD SWAP2 SWAP1 SWAP2 MSTORE PUSH1 0x24 ADD PUSH1 0x0 PUSH1 0x40 MLOAD DUP1 DUP4 SUB DUP2 PUSH1 0x0 DUP8 DUP1 PUSH2 0x25A4 PUSH2 0x4982 JUMP JUMPDEST ISZERO DUP1 ISZERO PUSH2 0x25B9 JUMPI PUSH1 0x0 DUP1 PUSH2 0x25B6 PUSH2 0x48BC JUMP JUMPDEST POP POP JUMPDEST POP GAS PUSH2 0x25C3 PUSH2 0x4ACD JUMP JUMPDEST POP POP POP POP POP POP ISZERO DUP1 ISZERO PUSH2 0x25E3 JUMPI RETURNDATASIZE PUSH1 0x0 DUP1 RETURNDATACOPY RETURNDATASIZE PUSH1 0x0 PUSH2 0x25E0 PUSH2 0x48BC JUMP JUMPDEST POP POP JUMPDEST POP POP POP POP JUMPDEST PUSH2 0x25F0 PUSH2 0x28E2 JUMP JUMPDEST PUSH1 0x1 PUSH1 0x1 PUSH1 0xA0 SHL SUB AND PUSH4 0x9E342F71 PUSH1 0x40 MLOAD PUSH1 0x40 DUP1 DUP3 ADD DUP2 MSTORE DUP16 DUP3 MSTORE PUSH1 0x20 DUP3 ADD DUP15 SWAP1 MSTORE MLOAD PUSH1 0x40 DUP1 DUP3 ADD DUP2 MSTORE DUP7 DUP3 MSTORE PUSH1 0x20 DUP3 ADD DUP7 SWAP1 MSTORE MLOAD PUSH1 0x1 PUSH1 0x1 PUSH1 0xE0 SHL SUB NOT PUSH1 0xE0 DUP6 SWAP1 SHL AND DUP2 MSTORE PUSH1 0x4 ADD DUP1 DUP4 PUSH1 0x40 DUP1 DUP4 DUP4 PUSH1 0x0 JUMPDEST DUP4 DUP2 LT ISZERO PUSH2 0x265B JUMPI DUP1 DUP3 ADD MLOAD DUP4 DUP3 ADD MSTORE PUSH1 0x20 ADD PUSH2 0x2643 JUMP JUMPDEST POP POP POP POP SWAP1 POP ADD DUP3 PUSH1 0x2 PUSH1 0x20 MUL DUP1 DUP4 DUP4 PUSH1 0x0 JUMPDEST DUP4 DUP2 LT ISZERO PUSH2 0x2686 JUMPI DUP1 DUP3 ADD MLOAD DUP4 DUP3 ADD MSTORE PUSH1 0x20 ADD PUSH2 0x266E JUMP JUMPDEST POP POP POP POP SWAP1 POP ADD SWAP3 POP POP POP PUSH1 0x0 PUSH1 0x40 MLOAD DUP1 DUP4 SUB DUP2 PUSH1 0x0 DUP8 DUP1 PUSH2 0x26A6 PUSH2 0x4982 JUMP JUMPDEST ISZERO DUP1 ISZERO PUSH2 0x26BB JUMPI PUSH1 0x0 DUP1 PUSH2 0x26B8 PUSH2 0x48BC JUMP JUMPDEST POP POP JUMPDEST POP GAS PUSH2 0x26C5 PUSH2 0x4ACD JUMP JUMPDEST POP POP POP POP POP POP ISZERO DUP1 ISZERO PUSH2 0x26E5 JUMPI RETURNDATASIZE PUSH1 0x0 DUP1 RETURNDATACOPY RETURNDATASIZE PUSH1 0x0 PUSH2 0x26E2 PUSH2 0x48BC JUMP JUMPDEST POP POP JUMPDEST POP POP POP POP PUSH2 0x26F1 PUSH2 0x1E04 JUMP JUMPDEST PUSH1 0x1 PUSH1 0x1 PUSH1 0xA0 SHL SUB AND PUSH4 0x6C00F310 DUP15 DUP15 DUP8 DUP15 DUP14 DUP16 PUSH1 0x40 MLOAD PUSH1 0x1 PUSH1 0x1 PUSH1 0xE0 SHL SUB NOT PUSH1 0xE0 DUP10 SWAP1 SHL AND DUP2 MSTORE PUSH1 0x1 PUSH1 0x1 PUSH1 0xA0 SHL SUB SWAP7 DUP8 AND PUSH1 0x4 DUP3 ADD MSTORE PUSH1 0x24 DUP2 ADD SWAP6 SWAP1 SWAP6 MSTORE PUSH1 0x44 DUP6 ADD SWAP4 SWAP1 SWAP4 MSTORE PUSH1 0x64 DUP5 ADD SWAP2 SWAP1 SWAP2 MSTORE PUSH1 0x84 DUP4 ADD MSTORE SWAP1 SWAP2 AND PUSH1 0xA4 DUP3 ADD MSTORE PUSH1 0xC4 ADD PUSH1 0x0 PUSH1 0x40 MLOAD DUP1 DUP4 SUB DUP2 PUSH1 0x0 DUP8 DUP1 PUSH2 0x2766 PUSH2 0x4982 JUMP JUMPDEST ISZERO DUP1 ISZERO PUSH2 0x277B JUMPI PUSH1 0x0 DUP1 PUSH2 0x2778 PUSH2 0x48BC JUMP JUMPDEST POP POP JUMPDEST POP GAS PUSH2 0x2785 PUSH2 0x4ACD JUMP JUMPDEST POP POP POP POP POP POP ISZERO DUP1 ISZERO PUSH2 0x27A5 JUMPI RETURNDATASIZE PUSH1 0x0 DUP1 RETURNDATACOPY RETURNDATASIZE PUSH1 0x0 PUSH2 0x27A2 PUSH2 0x48BC JUMP JUMPDEST POP POP JUMPDEST POP POP POP POP PUSH2 0x27B7 DUP10 DUP14 DUP7 DUP14 DUP13 DUP9 PUSH2 0x3B8A JUMP JUMPDEST POP POP POP POP POP POP JUMPDEST SWAP6 POP SWAP6 SWAP4 POP POP POP POP JUMP JUMPDEST PUSH1 0x0 DUP3 GT DUP1 ISZERO PUSH2 0x27E0 JUMPI POP PUSH1 0x1 PUSH1 0x1 PUSH1 0xA0 SHL SUB DUP2 AND ISZERO ISZERO JUMPDEST DUP1 ISZERO PUSH2 0x27EF JUMPI POP PUSH2 0x27EF PUSH2 0x364A JUMP JUMPDEST ISZERO PUSH2 0xF86 JUMPI PUSH2 0x27FC PUSH2 0x3E47 JUMP JUMPDEST PUSH1 0x1 PUSH1 0x1 PUSH1 0xA0 SHL SUB AND PUSH4 0x21CAD774 DUP4 DUP4 PUSH1 0x40 MLOAD PUSH1 0x1 PUSH1 0x1 PUSH1 0xE0 SHL SUB NOT PUSH1 0xE0 DUP6 SWAP1 SHL AND DUP2 MSTORE PUSH1 0x4 DUP2 ADD SWAP3 SWAP1 SWAP3 MSTORE PUSH1 0x1 PUSH1 0x1 PUSH1 0xA0 SHL SUB AND PUSH1 0x24 DUP3 ADD MSTORE PUSH1 0x44 ADD PUSH1 0x0 PUSH1 0x40 MLOAD DUP1 DUP4 SUB DUP2 PUSH1 0x0 DUP8 DUP1 PUSH2 0x284E PUSH2 0x4982 JUMP JUMPDEST ISZERO DUP1 ISZERO PUSH2 0x2863 JUMPI PUSH1 0x0 DUP1 PUSH2 0x2860 PUSH2 0x48BC JUMP JUMPDEST POP POP JUMPDEST POP GAS PUSH2 0x286D PUSH2 0x4ACD JUMP JUMPDEST POP POP POP POP POP POP ISZERO DUP1 ISZERO PUSH2 0x1A6F JUMPI RETURNDATASIZE PUSH1 0x0 DUP1 RETURNDATACOPY RETURNDATASIZE PUSH1 0x0 PUSH2 0x288A PUSH2 0x48BC JUMP JUMPDEST POP POP POP POP POP POP POP POP JUMP JUMPDEST PUSH1 0x0 PUSH2 0xDBB PUSH12 0x53797374656D537461747573 PUSH1 0xA0 SHL PUSH1 0x40 MLOAD PUSH1 0x40 DUP1 DUP3 ADD SWAP1 MSTORE PUSH1 0x1C DUP2 MSTORE PUSH32 0x4D697373696E672053797374656D537461747573206164647265737300000000 PUSH1 0x20 DUP3 ADD MSTORE PUSH2 0x37DD JUMP JUMPDEST PUSH1 0x0 PUSH2 0xDBB PUSH6 0x24B9B9BAB2B9 PUSH1 0xD1 SHL PUSH1 0x40 MLOAD PUSH1 0x40 DUP1 DUP3 ADD SWAP1 MSTORE PUSH1 0x16 DUP2 MSTORE PUSH22 0x4D697373696E67204973737565722061646472657373 PUSH1 0x50 SHL PUSH1 0x20 DUP3 ADD MSTORE PUSH2 0x37DD JUMP JUMPDEST PUSH1 0x0 PUSH2 0xDBB PUSH13 0x45786368616E67655261746573 PUSH1 0x98 SHL PUSH1 0x40 MLOAD PUSH1 0x40 DUP1 DUP3 ADD SWAP1 MSTORE PUSH1 0x1D DUP2 MSTORE PUSH32 0x4D697373696E672045786368616E676552617465732061646472657373000000 PUSH1 0x20 DUP3 ADD MSTORE PUSH2 0x37DD JUMP JUMPDEST PUSH1 0x0 DUP2 PUSH2 0x2981 JUMPI POP PUSH1 0x1 PUSH2 0x7CE JUMP JUMPDEST PUSH1 0x0 DUP4 DUP2 MSTORE PUSH1 0x5 PUSH1 0x20 MSTORE PUSH1 0x40 DUP2 KECCAK256 PUSH2 0x2997 PUSH2 0x4927 JUMP JUMPDEST SWAP1 POP DUP1 ISZERO PUSH2 0x29B1 JUMPI PUSH2 0x29A9 DUP2 DUP5 PUSH2 0x3E97 JUMP JUMPDEST SWAP2 POP POP PUSH2 0x7CE JUMP JUMPDEST PUSH1 0x60 PUSH2 0x29BB PUSH2 0x2923 JUMP JUMPDEST PUSH1 0x1 PUSH1 0x1 PUSH1 0xA0 SHL SUB AND PUSH4 0x2D7371E1 DUP7 PUSH1 0x4 PUSH1 0x40 MLOAD PUSH1 0x1 PUSH1 0x1 PUSH1 0xE0 SHL SUB NOT PUSH1 0xE0 DUP6 SWAP1 SHL AND DUP2 MSTORE PUSH1 0x4 DUP2 ADD SWAP3 SWAP1 SWAP3 MSTORE PUSH1 0x24 DUP3 ADD MSTORE PUSH1 0x44 ADD PUSH1 0x0 PUSH1 0x40 MLOAD DUP1 DUP4 SUB DUP2 DUP7 DUP1 PUSH2 0x2A03 PUSH2 0x4982 JUMP JUMPDEST ISZERO DUP1 ISZERO PUSH2 0x2A18 JUMPI PUSH1 0x0 DUP1 PUSH2 0x2A15 PUSH2 0x48BC JUMP JUMPDEST POP POP JUMPDEST POP GAS PUSH2 0x2A22 PUSH2 0x49CE JUMP JUMPDEST POP POP POP POP POP ISZERO DUP1 ISZERO PUSH2 0x2A41 JUMPI RETURNDATASIZE PUSH1 0x0 DUP1 RETURNDATACOPY RETURNDATASIZE PUSH1 0x0 PUSH2 0x2A3E PUSH2 0x48BC JUMP JUMPDEST POP POP JUMPDEST POP POP POP POP PUSH1 0x40 MLOAD RETURNDATASIZE PUSH1 0x0 DUP3 RETURNDATACOPY PUSH1 0x1F RETURNDATASIZE SWAP1 DUP2 ADD PUSH1 0x1F NOT AND DUP3 ADD PUSH1 0x40 SWAP1 DUP2 MSTORE DUP2 LT ISZERO PUSH2 0x2A73 JUMPI PUSH1 0x0 DUP1 PUSH2 0x2A70 PUSH2 0x48BC JUMP JUMPDEST POP POP JUMPDEST DUP2 ADD SWAP1 DUP1 DUP1 MLOAD PUSH1 0x40 MLOAD SWAP4 SWAP3 SWAP2 SWAP1 DUP5 PUSH5 0x100000000 DUP3 GT ISZERO PUSH2 0x2A9C JUMPI PUSH1 0x0 DUP1 PUSH2 0x2A99 PUSH2 0x48BC JUMP JUMPDEST POP POP JUMPDEST SWAP1 DUP4 ADD SWAP1 PUSH1 0x20 DUP3 ADD DUP6 DUP2 GT ISZERO PUSH2 0x2ABA JUMPI PUSH1 0x0 DUP1 PUSH2 0x2AB7 PUSH2 0x48BC JUMP JUMPDEST POP POP JUMPDEST DUP3 MLOAD DUP7 PUSH1 0x20 DUP3 MUL DUP4 ADD GT PUSH5 0x100000000 DUP3 GT OR ISZERO PUSH2 0x2AE0 JUMPI PUSH1 0x0 DUP1 PUSH2 0x2ADD PUSH2 0x48BC JUMP JUMPDEST POP POP JUMPDEST DUP3 MSTORE POP PUSH1 0x20 ADD SWAP1 DUP1 MLOAD SWAP1 PUSH1 0x20 ADD SWAP1 PUSH1 0x20 MUL DUP1 DUP4 DUP4 PUSH1 0x0 JUMPDEST DUP4 DUP2 LT ISZERO PUSH2 0x2B0F JUMPI DUP1 DUP3 ADD MLOAD DUP4 DUP3 ADD MSTORE PUSH1 0x20 ADD PUSH2 0x2AF7 JUMP JUMPDEST POP POP POP POP SWAP1 POP ADD PUSH1 0x40 MSTORE PUSH1 0x20 ADD DUP1 MLOAD PUSH1 0x40 MLOAD SWAP4 SWAP3 SWAP2 SWAP1 DUP5 PUSH5 0x100000000 DUP3 GT ISZERO PUSH2 0x2B41 JUMPI PUSH1 0x0 DUP1 PUSH2 0x2B3E PUSH2 0x48BC JUMP JUMPDEST POP POP JUMPDEST SWAP1 DUP4 ADD SWAP1 PUSH1 0x20 DUP3 ADD DUP6 DUP2 GT ISZERO PUSH2 0x2B5F JUMPI PUSH1 0x0 DUP1 PUSH2 0x2B5C PUSH2 0x48BC JUMP JUMPDEST POP POP JUMPDEST DUP3 MLOAD DUP7 PUSH1 0x20 DUP3 MUL DUP4 ADD GT PUSH5 0x100000000 DUP3 GT OR ISZERO PUSH2 0x2B85 JUMPI PUSH1 0x0 DUP1 PUSH2 0x2B82 PUSH2 0x48BC JUMP JUMPDEST POP POP JUMPDEST DUP3 MSTORE POP PUSH1 0x20 ADD SWAP1 DUP1 MLOAD SWAP1 PUSH1 0x20 ADD SWAP1 PUSH1 0x20 MUL DUP1 DUP4 DUP4 PUSH1 0x0 JUMPDEST DUP4 DUP2 LT ISZERO PUSH2 0x2BB4 JUMPI DUP1 DUP3 ADD MLOAD DUP4 DUP3 ADD MSTORE PUSH1 0x20 ADD PUSH2 0x2B9C JUMP JUMPDEST POP POP POP POP SWAP1 POP ADD PUSH1 0x40 MSTORE POP POP POP POP SWAP1 POP PUSH1 0x0 PUSH1 0x1 SWAP1 POP JUMPDEST DUP2 MLOAD DUP2 LT ISZERO PUSH2 0x2C28 JUMPI PUSH1 0x0 DUP3 DUP3 DUP2 MLOAD DUP2 LT PUSH2 0x2BE2 JUMPI INVALID JUMPDEST PUSH1 0x20 MUL PUSH1 0x20 ADD ADD MLOAD GT DUP1 ISZERO PUSH2 0x2C0F JUMPI POP PUSH2 0x2C0F DUP3 DUP3 DUP2 MLOAD DUP2 LT PUSH2 0x2C01 JUMPI INVALID JUMPDEST PUSH1 0x20 MUL PUSH1 0x20 ADD ADD MLOAD DUP7 PUSH2 0x3E97 JUMP JUMPDEST ISZERO PUSH2 0x2C20 JUMPI PUSH1 0x1 SWAP4 POP POP POP POP PUSH2 0x7CE JUMP JUMPDEST PUSH1 0x1 ADD PUSH2 0x2BCB JUMP JUMPDEST POP PUSH1 0x0 SWAP6 SWAP5 POP POP POP POP POP JUMP JUMPDEST PUSH1 0x0 DUP1 PUSH2 0x2C3F PUSH2 0x4927 JUMP JUMPDEST SWAP1 PUSH2 0x100 EXP SWAP1 DIV PUSH1 0x1 PUSH1 0x1 PUSH1 0xA0 SHL SUB AND PUSH1 0x1 PUSH1 0x1 PUSH1 0xA0 SHL SUB AND GAS PUSH2 0x2C61 PUSH2 0x4A87 JUMP JUMPDEST PUSH1 0x1 PUSH1 0x1 PUSH1 0xA0 SHL SUB AND EQ PUSH2 0x2CAC JUMPI PUSH1 0x40 MLOAD PUSH3 0x461BCD PUSH1 0xE5 SHL DUP2 MSTORE PUSH1 0x4 ADD DUP1 DUP1 PUSH1 0x20 ADD DUP3 DUP2 SUB DUP3 MSTORE PUSH1 0x2F DUP2 MSTORE PUSH1 0x20 ADD DUP1 PUSH2 0x4D61 PUSH1 0x2F SWAP2 CODECOPY PUSH1 0x40 ADD SWAP2 POP POP PUSH1 0x40 MLOAD DUP1 SWAP2 SUB SWAP1 PUSH2 0xF86 PUSH2 0x48BC JUMP JUMPDEST JUMP JUMPDEST PUSH1 0x0 DUP1 PUSH1 0x0 PUSH1 0x60 PUSH2 0x2CBD PUSH2 0x1D46 JUMP JUMPDEST PUSH1 0x1 PUSH1 0x1 PUSH1 0xA0 SHL SUB AND PUSH4 0xB44E9753 DUP8 DUP8 PUSH1 0x40 MLOAD PUSH1 0x1 PUSH1 0x1 PUSH1 0xE0 SHL SUB NOT PUSH1 0xE0 DUP6 SWAP1 SHL AND DUP2 MSTORE PUSH1 0x1 PUSH1 0x1 PUSH1 0xA0 SHL SUB SWAP1 SWAP3 AND PUSH1 0x4 DUP4 ADD MSTORE PUSH1 0x24 DUP3 ADD MSTORE PUSH1 0x44 ADD PUSH1 0x20 PUSH1 0x40 MLOAD DUP1 DUP4 SUB DUP2 DUP7 DUP1 PUSH2 0x2D0C PUSH2 0x4982 JUMP JUMPDEST ISZERO DUP1 ISZERO PUSH2 0x2D21 JUMPI PUSH1 0x0 DUP1 PUSH2 0x2D1E PUSH2 0x48BC JUMP JUMPDEST POP POP JUMPDEST POP GAS PUSH2 0x2D2B PUSH2 0x49CE JUMP JUMPDEST POP POP POP POP POP ISZERO DUP1 ISZERO PUSH2 0x2D4A JUMPI RETURNDATASIZE PUSH1 0x0 DUP1 RETURNDATACOPY RETURNDATASIZE PUSH1 0x0 PUSH2 0x2D47 PUSH2 0x48BC JUMP JUMPDEST POP POP JUMPDEST POP POP POP POP PUSH1 0x40 MLOAD RETURNDATASIZE PUSH1 0x20 DUP2 LT ISZERO PUSH2 0x2D69 JUMPI PUSH1 0x0 DUP1 PUSH2 0x2D66 PUSH2 0x48BC JUMP JUMPDEST POP POP JUMPDEST DUP2 ADD SWAP1 DUP1 DUP1 MLOAD SWAP5 POP PUSH1 0x60 SWAP3 POP DUP5 SWAP2 POP PUSH1 0x40 SWAP1 POP MLOAD SWAP1 DUP1 DUP3 MSTORE DUP1 PUSH1 0x20 MUL PUSH1 0x20 ADD DUP3 ADD PUSH1 0x40 MSTORE DUP1 ISZERO PUSH2 0x2DB3 JUMPI DUP2 PUSH1 0x20 ADD JUMPDEST PUSH2 0x2DA0 PUSH2 0x4C37 JUMP JUMPDEST DUP2 MSTORE PUSH1 0x20 ADD SWAP1 PUSH1 0x1 SWAP1 SUB SWAP1 DUP2 PUSH2 0x2D98 JUMPI SWAP1 POP JUMPDEST POP SWAP1 POP PUSH1 0x0 JUMPDEST DUP4 DUP2 LT ISZERO PUSH2 0x2FCB JUMPI PUSH1 0x0 DUP1 PUSH2 0x2DCC PUSH2 0x4C37 JUMP JUMPDEST PUSH2 0x2DD7 DUP12 DUP12 DUP7 PUSH2 0x3EF6 JUMP JUMPDEST SWAP1 POP PUSH1 0x0 DUP1 PUSH2 0x2DE5 DUP4 PUSH2 0x4068 JUMP JUMPDEST SWAP2 POP SWAP2 POP PUSH1 0x0 PUSH2 0x2DF3 PUSH2 0x2923 JUMP JUMPDEST PUSH1 0x1 PUSH1 0x1 PUSH1 0xA0 SHL SUB AND PUSH4 0x266DA16B DUP6 MLOAD DUP7 PUSH1 0x20 ADD MLOAD DUP8 PUSH1 0x40 ADD MLOAD DUP8 DUP8 PUSH1 0x40 MLOAD PUSH1 0x1 PUSH1 0x1 PUSH1 0xE0 SHL SUB NOT PUSH1 0xE0 DUP9 SWAP1 SHL AND DUP2 MSTORE PUSH1 0x4 DUP2 ADD SWAP6 SWAP1 SWAP6 MSTORE PUSH1 0x24 DUP6 ADD SWAP4 SWAP1 SWAP4 MSTORE PUSH1 0x44 DUP5 ADD SWAP2 SWAP1 SWAP2 MSTORE PUSH1 0x64 DUP4 ADD MSTORE PUSH1 0x84 DUP3 ADD MSTORE PUSH1 0xA4 ADD PUSH1 0x20 PUSH1 0x40 MLOAD DUP1 DUP4 SUB DUP2 DUP7 DUP1 PUSH2 0x2E5B PUSH2 0x4982 JUMP JUMPDEST ISZERO DUP1 ISZERO PUSH2 0x2E70 JUMPI PUSH1 0x0 DUP1 PUSH2 0x2E6D PUSH2 0x48BC JUMP JUMPDEST POP POP JUMPDEST POP GAS PUSH2 0x2E7A PUSH2 0x49CE JUMP JUMPDEST POP POP POP POP POP ISZERO DUP1 ISZERO PUSH2 0x2E99 JUMPI RETURNDATASIZE PUSH1 0x0 DUP1 RETURNDATACOPY RETURNDATASIZE PUSH1 0x0 PUSH2 0x2E96 PUSH2 0x48BC JUMP JUMPDEST POP POP JUMPDEST POP POP POP POP PUSH1 0x40 MLOAD RETURNDATASIZE PUSH1 0x20 DUP2 LT ISZERO PUSH2 0x2EB8 JUMPI PUSH1 0x0 DUP1 PUSH2 0x2EB5 PUSH2 0x48BC JUMP JUMPDEST POP POP JUMPDEST DUP2 ADD SWAP1 DUP1 DUP1 MLOAD SWAP4 POP PUSH1 0x0 SWAP3 POP PUSH2 0x2ED6 SWAP2 POP DUP4 SWAP1 POP PUSH1 0x80 DUP8 ADD MLOAD PUSH2 0x421F JUMP JUMPDEST SWAP1 POP PUSH2 0x2EE6 DUP6 PUSH1 0x60 ADD MLOAD DUP3 PUSH2 0x3E97 JUMP JUMPDEST PUSH2 0x2F5A JUMPI DUP1 DUP6 PUSH1 0x60 ADD MLOAD GT ISZERO PUSH2 0x2F24 JUMPI PUSH2 0x2F0B DUP2 DUP7 PUSH1 0x60 ADD MLOAD SWAP1 PUSH4 0xFFFFFFFF PUSH2 0x38A6 AND JUMP JUMPDEST SWAP7 POP PUSH2 0x2F1D DUP14 DUP9 PUSH4 0xFFFFFFFF PUSH2 0x3495 AND JUMP JUMPDEST SWAP13 POP PUSH2 0x2F5A JUMP JUMPDEST DUP5 PUSH1 0x60 ADD MLOAD DUP2 GT ISZERO PUSH2 0x2F5A JUMPI PUSH2 0x2F45 DUP6 PUSH1 0x60 ADD MLOAD DUP3 SWAP1 PUSH4 0xFFFFFFFF PUSH2 0x38A6 AND JUMP JUMPDEST SWAP6 POP PUSH2 0x2F57 DUP13 DUP8 PUSH4 0xFFFFFFFF PUSH2 0x3495 AND JUMP JUMPDEST SWAP12 POP JUMPDEST PUSH1 0x40 MLOAD PUSH2 0x100 DUP2 ADD PUSH1 0x40 MSTORE DUP1 DUP7 MLOAD DUP2 MSTORE PUSH1 0x20 ADD DUP7 PUSH1 0x20 ADD MLOAD DUP2 MSTORE PUSH1 0x20 ADD DUP7 PUSH1 0x40 ADD MLOAD DUP2 MSTORE PUSH1 0x20 ADD DUP9 DUP2 MSTORE PUSH1 0x20 ADD DUP8 DUP2 MSTORE PUSH1 0x20 ADD DUP6 DUP2 MSTORE PUSH1 0x20 ADD DUP5 DUP2 MSTORE PUSH1 0x20 ADD DUP7 PUSH1 0xA0 ADD MLOAD SWAP1 MSTORE DUP10 DUP10 DUP2 MLOAD DUP2 LT PUSH2 0x2FAC JUMPI INVALID JUMPDEST PUSH1 0x20 MUL PUSH1 0x20 ADD ADD DUP2 SWAP1 MSTORE POP POP POP POP POP POP POP POP DUP1 DUP1 PUSH1 0x1 ADD SWAP2 POP POP PUSH2 0x2DB9 JUMP JUMPDEST POP SWAP1 POP SWAP3 SWAP6 SWAP2 SWAP5 POP SWAP3 POP JUMP JUMPDEST PUSH1 0x0 PUSH2 0x7CB DUP3 PUSH2 0x42E8 JUMP JUMPDEST PUSH1 0x0 DUP1 PUSH1 0x0 PUSH2 0x2FF1 DUP7 DUP7 PUSH2 0x702 JUMP JUMPDEST ISZERO PUSH2 0x3036 JUMPI PUSH1 0x40 MLOAD PUSH3 0x461BCD PUSH1 0xE5 SHL DUP2 MSTORE PUSH1 0x4 ADD DUP1 DUP1 PUSH1 0x20 ADD DUP3 DUP2 SUB DUP3 MSTORE PUSH1 0x23 DUP2 MSTORE PUSH1 0x20 ADD DUP1 PUSH2 0x4DD3 PUSH1 0x23 SWAP2 CODECOPY PUSH1 0x40 ADD SWAP2 POP POP PUSH1 0x40 MLOAD DUP1 SWAP2 SUB SWAP1 PUSH2 0x3033 PUSH2 0x48BC JUMP JUMPDEST POP POP JUMPDEST PUSH1 0x0 DUP1 PUSH1 0x0 PUSH1 0x60 PUSH2 0x3047 DUP11 DUP11 PUSH2 0x2CAE JUMP JUMPDEST SWAP4 POP SWAP4 POP SWAP4 POP SWAP4 POP DUP3 DUP5 GT ISZERO PUSH2 0x3079 JUMPI PUSH2 0x3067 DUP5 DUP5 PUSH4 0xFFFFFFFF PUSH2 0x38A6 AND JUMP JUMPDEST SWAP7 POP PUSH2 0x3074 DUP11 DUP11 DUP10 PUSH2 0x43F6 JUMP JUMPDEST PUSH2 0x309E JUMP JUMPDEST DUP4 DUP4 GT ISZERO PUSH2 0x309E JUMPI PUSH2 0x3091 DUP4 DUP6 PUSH4 0xFFFFFFFF PUSH2 0x38A6 AND JUMP JUMPDEST SWAP6 POP PUSH2 0x309E DUP11 DUP11 DUP9 PUSH2 0x459E JUMP JUMPDEST DUP8 ISZERO PUSH2 0x31B9 JUMPI PUSH1 0x60 PUSH1 0x1 PUSH1 0x40 MLOAD SWAP1 DUP1 DUP3 MSTORE DUP1 PUSH1 0x20 MUL PUSH1 0x20 ADD DUP3 ADD PUSH1 0x40 MSTORE DUP1 ISZERO PUSH2 0x30D1 JUMPI DUP2 PUSH1 0x20 ADD PUSH1 0x20 DUP3 MUL DUP1 CODESIZE DUP4 CODECOPY ADD SWAP1 POP JUMPDEST POP SWAP1 POP DUP10 DUP2 PUSH1 0x0 DUP2 MLOAD DUP2 LT PUSH2 0x30E2 JUMPI INVALID JUMPDEST PUSH1 0x20 MUL PUSH1 0x20 ADD ADD DUP2 DUP2 MSTORE POP POP PUSH2 0x30F6 PUSH2 0x28E2 JUMP JUMPDEST PUSH1 0x1 PUSH1 0x1 PUSH1 0xA0 SHL SUB AND PUSH4 0xFE1D77E7 DUP3 PUSH1 0x40 MLOAD DUP3 PUSH4 0xFFFFFFFF AND PUSH1 0xE0 SHL DUP2 MSTORE PUSH1 0x4 ADD DUP1 DUP1 PUSH1 0x20 ADD DUP3 DUP2 SUB DUP3 MSTORE DUP4 DUP2 DUP2 MLOAD DUP2 MSTORE PUSH1 0x20 ADD SWAP2 POP DUP1 MLOAD SWAP1 PUSH1 0x20 ADD SWAP1 PUSH1 0x20 MUL DUP1 DUP4 DUP4 PUSH1 0x0 JUMPDEST DUP4 DUP2 LT ISZERO PUSH2 0x3154 JUMPI DUP1 DUP3 ADD MLOAD DUP4 DUP3 ADD MSTORE PUSH1 0x20 ADD PUSH2 0x313C JUMP JUMPDEST POP POP POP POP SWAP1 POP ADD SWAP3 POP POP POP PUSH1 0x0 PUSH1 0x40 MLOAD DUP1 DUP4 SUB DUP2 PUSH1 0x0 DUP8 DUP1 PUSH2 0x3174 PUSH2 0x4982 JUMP JUMPDEST ISZERO DUP1 ISZERO PUSH2 0x3189 JUMPI PUSH1 0x0 DUP1 PUSH2 0x3186 PUSH2 0x48BC JUMP JUMPDEST POP POP JUMPDEST POP GAS PUSH2 0x3193 PUSH2 0x4ACD JUMP JUMPDEST POP POP POP POP POP POP ISZERO DUP1 ISZERO PUSH2 0x31B3 JUMPI RETURNDATASIZE PUSH1 0x0 DUP1 RETURNDATACOPY RETURNDATASIZE PUSH1 0x0 PUSH2 0x31B0 PUSH2 0x48BC JUMP JUMPDEST POP POP JUMPDEST POP POP POP POP POP JUMPDEST PUSH1 0x0 JUMPDEST DUP2 MLOAD DUP2 LT ISZERO PUSH2 0x32FB JUMPI DUP11 PUSH1 0x1 PUSH1 0x1 PUSH1 0xA0 SHL SUB AND PUSH32 0x8E3AD1F68BEC55DE3B6FA12AE2674A2A683A17C918A4CBF5157AC5D9DDC6E940 DUP4 DUP4 DUP2 MLOAD DUP2 LT PUSH2 0x31FC JUMPI INVALID JUMPDEST PUSH1 0x20 MUL PUSH1 0x20 ADD ADD MLOAD MLOAD DUP5 DUP5 DUP2 MLOAD DUP2 LT PUSH2 0x3211 JUMPI INVALID JUMPDEST PUSH1 0x20 MUL PUSH1 0x20 ADD ADD MLOAD PUSH1 0x20 ADD MLOAD DUP6 DUP6 DUP2 MLOAD DUP2 LT PUSH2 0x3229 JUMPI INVALID JUMPDEST PUSH1 0x20 MUL PUSH1 0x20 ADD ADD MLOAD PUSH1 0x40 ADD MLOAD DUP7 DUP7 DUP2 MLOAD DUP2 LT PUSH2 0x3241 JUMPI INVALID JUMPDEST PUSH1 0x20 MUL PUSH1 0x20 ADD ADD MLOAD PUSH1 0x60 ADD MLOAD DUP8 DUP8 DUP2 MLOAD DUP2 LT PUSH2 0x3259 JUMPI INVALID JUMPDEST PUSH1 0x20 MUL PUSH1 0x20 ADD ADD MLOAD PUSH1 0x80 ADD MLOAD DUP9 DUP9 DUP2 MLOAD DUP2 LT PUSH2 0x3271 JUMPI INVALID JUMPDEST PUSH1 0x20 MUL PUSH1 0x20 ADD ADD MLOAD PUSH1 0xA0 ADD MLOAD DUP10 DUP10 DUP2 MLOAD DUP2 LT PUSH2 0x3289 JUMPI INVALID JUMPDEST PUSH1 0x20 MUL PUSH1 0x20 ADD ADD MLOAD PUSH1 0xC0 ADD MLOAD DUP11 DUP11 DUP2 MLOAD DUP2 LT PUSH2 0x32A1 JUMPI INVALID JUMPDEST PUSH1 0x20 MUL PUSH1 0x20 ADD ADD MLOAD PUSH1 0xE0 ADD MLOAD PUSH1 0x40 MLOAD DUP1 DUP10 DUP2 MSTORE PUSH1 0x20 ADD DUP9 DUP2 MSTORE PUSH1 0x20 ADD DUP8 DUP2 MSTORE PUSH1 0x20 ADD DUP7 DUP2 MSTORE PUSH1 0x20 ADD DUP6 DUP2 MSTORE PUSH1 0x20 ADD DUP5 DUP2 MSTORE PUSH1 0x20 ADD DUP4 DUP2 MSTORE PUSH1 0x20 ADD DUP3 DUP2 MSTORE PUSH1 0x20 ADD SWAP9 POP POP POP POP POP POP POP POP POP PUSH1 0x40 MLOAD DUP1 SWAP2 SUB SWAP1 LOG2 PUSH1 0x1 ADD PUSH2 0x31BC JUMP JUMPDEST POP DUP2 SWAP5 POP PUSH2 0x3307 PUSH2 0x1D46 JUMP JUMPDEST PUSH1 0x1 PUSH1 0x1 PUSH1 0xA0 SHL SUB AND PUSH4 0xD0D3D62A DUP12 DUP12 PUSH1 0x40 MLOAD PUSH1 0x1 PUSH1 0x1 PUSH1 0xE0 SHL SUB NOT PUSH1 0xE0 DUP6 SWAP1 SHL AND DUP2 MSTORE PUSH1 0x1 PUSH1 0x1 PUSH1 0xA0 SHL SUB SWAP1 SWAP3 AND PUSH1 0x4 DUP4 ADD MSTORE PUSH1 0x24 DUP3 ADD MSTORE PUSH1 0x44 ADD PUSH1 0x0 PUSH1 0x40 MLOAD DUP1 DUP4 SUB DUP2 PUSH1 0x0 DUP8 DUP1 PUSH2 0x3358 PUSH2 0x4982 JUMP JUMPDEST ISZERO DUP1 ISZERO PUSH2 0x336D JUMPI PUSH1 0x0 DUP1 PUSH2 0x336A PUSH2 0x48BC JUMP JUMPDEST POP POP JUMPDEST POP GAS PUSH2 0x3377 PUSH2 0x4ACD JUMP JUMPDEST POP POP POP POP POP POP ISZERO DUP1 ISZERO PUSH2 0x3397 JUMPI RETURNDATASIZE PUSH1 0x0 DUP1 RETURNDATACOPY RETURNDATASIZE PUSH1 0x0 PUSH2 0x3394 PUSH2 0x48BC JUMP JUMPDEST POP POP JUMPDEST POP POP POP POP POP POP POP POP SWAP4 POP SWAP4 POP SWAP4 SWAP1 POP JUMP JUMPDEST PUSH1 0x0 PUSH2 0x33B2 PUSH2 0x4746 JUMP JUMPDEST PUSH1 0x1 PUSH1 0x1 PUSH1 0xA0 SHL SUB AND PUSH4 0x23257C2B PUSH14 0x53797374656D53657474696E6773 PUSH1 0x90 SHL PUSH32 0x7072696365446576696174696F6E5468726573686F6C64466163746F72000000 PUSH1 0x40 MLOAD PUSH1 0x1 PUSH1 0x1 PUSH1 0xE0 SHL SUB NOT PUSH1 0xE0 DUP6 SWAP1 SHL AND DUP2 MSTORE PUSH1 0x4 DUP2 ADD SWAP3 SWAP1 SWAP3 MSTORE PUSH1 0x24 DUP3 ADD MSTORE PUSH1 0x44 ADD PUSH1 0x20 PUSH1 0x40 MLOAD DUP1 DUP4 SUB DUP2 DUP7 DUP1 PUSH2 0x342A PUSH2 0x4982 JUMP JUMPDEST ISZERO DUP1 ISZERO PUSH2 0x343F JUMPI PUSH1 0x0 DUP1 PUSH2 0x343C PUSH2 0x48BC JUMP JUMPDEST POP POP JUMPDEST POP GAS PUSH2 0x3449 PUSH2 0x49CE JUMP JUMPDEST POP POP POP POP POP ISZERO DUP1 ISZERO PUSH2 0x3468 JUMPI RETURNDATASIZE PUSH1 0x0 DUP1 RETURNDATACOPY RETURNDATASIZE PUSH1 0x0 PUSH2 0x3465 PUSH2 0x48BC JUMP JUMPDEST POP POP JUMPDEST POP POP POP POP PUSH1 0x40 MLOAD RETURNDATASIZE PUSH1 0x20 DUP2 LT ISZERO PUSH2 0x3487 JUMPI PUSH1 0x0 DUP1 PUSH2 0x3484 PUSH2 0x48BC JUMP JUMPDEST POP POP JUMPDEST DUP2 ADD SWAP1 DUP1 DUP1 MLOAD SWAP4 POP POP POP POP SWAP1 JUMP JUMPDEST PUSH1 0x0 DUP3 DUP3 ADD DUP4 DUP2 LT ISZERO PUSH2 0x7CB JUMPI PUSH1 0x40 MLOAD PUSH3 0x461BCD PUSH1 0xE5 SHL DUP2 MSTORE PUSH1 0x20 PUSH1 0x4 DUP3 ADD MSTORE PUSH1 0x1B PUSH1 0x24 DUP3 ADD MSTORE PUSH32 0x536166654D6174683A206164646974696F6E206F766572666C6F770000000000 PUSH1 0x44 DUP3 ADD MSTORE PUSH1 0x64 ADD PUSH1 0x40 MLOAD DUP1 SWAP2 SUB SWAP1 PUSH2 0x34F4 PUSH2 0x48BC JUMP JUMPDEST POP POP SWAP4 SWAP3 POP POP POP JUMP JUMPDEST PUSH1 0x0 PUSH2 0xDBB PUSH17 0x44656C6567617465417070726F76616C73 PUSH1 0x78 SHL PUSH1 0x40 MLOAD PUSH1 0x60 DUP2 ADD PUSH1 0x40 MSTORE PUSH1 0x21 DUP1 DUP3 MSTORE PUSH2 0x4CFB PUSH1 0x20 DUP4 ADD CODECOPY PUSH2 0x37DD JUMP JUMPDEST PUSH2 0x353B PUSH2 0x1E04 JUMP JUMPDEST PUSH1 0x1 PUSH1 0x1 PUSH1 0xA0 SHL SUB AND PUSH4 0xDDD03A3F DUP5 DUP5 DUP5 PUSH1 0x40 MLOAD PUSH1 0x1 PUSH1 0x1 PUSH1 0xE0 SHL SUB NOT PUSH1 0xE0 DUP7 SWAP1 SHL AND DUP2 MSTORE PUSH1 0x4 DUP2 ADD SWAP4 SWAP1 SWAP4 MSTORE PUSH1 0x24 DUP4 ADD SWAP2 SWAP1 SWAP2 MSTORE PUSH1 0x44 DUP3 ADD MSTORE PUSH1 0x64 ADD PUSH1 0x0 PUSH1 0x40 MLOAD DUP1 DUP4 SUB DUP2 PUSH1 0x0 DUP8 DUP1 PUSH2 0x358D PUSH2 0x4982 JUMP JUMPDEST ISZERO DUP1 ISZERO PUSH2 0x35A2 JUMPI PUSH1 0x0 DUP1 PUSH2 0x359F PUSH2 0x48BC JUMP JUMPDEST POP POP JUMPDEST POP GAS PUSH2 0x35AC PUSH2 0x4ACD JUMP JUMPDEST POP POP POP POP POP POP ISZERO DUP1 ISZERO PUSH2 0xC5A JUMPI RETURNDATASIZE PUSH1 0x0 DUP1 RETURNDATACOPY RETURNDATASIZE PUSH1 0x0 PUSH2 0x35C9 PUSH2 0x48BC JUMP JUMPDEST POP POP POP POP POP POP POP POP POP JUMP JUMPDEST PUSH1 0x0 PUSH2 0x35DE PUSH2 0x4746 JUMP JUMPDEST PUSH1 0x1 PUSH1 0x1 PUSH1 0xA0 SHL SUB AND PUSH4 0x23257C2B PUSH14 0x53797374656D53657474696E6773 PUSH1 0x90 SHL PUSH17 0x77616974696E67506572696F6453656373 PUSH1 0x78 SHL PUSH1 0x40 MLOAD PUSH1 0x1 PUSH1 0x1 PUSH1 0xE0 SHL SUB NOT PUSH1 0xE0 DUP6 SWAP1 SHL AND DUP2 MSTORE PUSH1 0x4 DUP2 ADD SWAP3 SWAP1 SWAP3 MSTORE PUSH1 0x24 DUP3 ADD MSTORE PUSH1 0x44 ADD PUSH1 0x20 PUSH1 0x40 MLOAD DUP1 DUP4 SUB DUP2 DUP7 DUP1 PUSH2 0x342A PUSH2 0x4982 JUMP JUMPDEST PUSH1 0x0 PUSH2 0x3654 PUSH2 0x4746 JUMP JUMPDEST PUSH1 0x1 PUSH1 0x1 PUSH1 0xA0 SHL SUB AND PUSH4 0xD994502D PUSH14 0x53797374656D53657474696E6773 PUSH1 0x90 SHL PUSH21 0x1D1C98591A5B99D4995DD85C991CD15B98589B1959 PUSH1 0x5A SHL PUSH1 0x40 MLOAD PUSH1 0x1 PUSH1 0x1 PUSH1 0xE0 SHL SUB NOT PUSH1 0xE0 DUP6 SWAP1 SHL AND DUP2 MSTORE PUSH1 0x4 DUP2 ADD SWAP3 SWAP1 SWAP3 MSTORE PUSH1 0x24 DUP3 ADD MSTORE PUSH1 0x44 ADD PUSH1 0x20 PUSH1 0x40 MLOAD DUP1 DUP4 SUB DUP2 DUP7 DUP1 PUSH2 0x342A PUSH2 0x4982 JUMP JUMPDEST PUSH1 0x0 DUP1 PUSH1 0x0 DUP1 PUSH1 0x0 DUP1 PUSH2 0x36D5 PUSH2 0x2923 JUMP JUMPDEST PUSH1 0x1 PUSH1 0x1 PUSH1 0xA0 SHL SUB AND PUSH4 0x8295016A DUP10 DUP12 DUP11 PUSH1 0x40 MLOAD PUSH1 0x1 PUSH1 0x1 PUSH1 0xE0 SHL SUB NOT PUSH1 0xE0 DUP7 SWAP1 SHL AND DUP2 MSTORE PUSH1 0x4 DUP2 ADD SWAP4 SWAP1 SWAP4 MSTORE PUSH1 0x24 DUP4 ADD SWAP2 SWAP1 SWAP2 MSTORE PUSH1 0x44 DUP3 ADD MSTORE PUSH1 0x64 ADD PUSH1 0x60 PUSH1 0x40 MLOAD DUP1 DUP4 SUB DUP2 DUP7 DUP1 PUSH2 0x3725 PUSH2 0x4982 JUMP JUMPDEST ISZERO DUP1 ISZERO PUSH2 0x373A JUMPI PUSH1 0x0 DUP1 PUSH2 0x3737 PUSH2 0x48BC JUMP JUMPDEST POP POP JUMPDEST POP GAS PUSH2 0x3744 PUSH2 0x49CE JUMP JUMPDEST POP POP POP POP POP ISZERO DUP1 ISZERO PUSH2 0x3763 JUMPI RETURNDATASIZE PUSH1 0x0 DUP1 RETURNDATACOPY RETURNDATASIZE PUSH1 0x0 PUSH2 0x3760 PUSH2 0x48BC JUMP JUMPDEST POP POP JUMPDEST POP POP POP POP PUSH1 0x40 MLOAD RETURNDATASIZE PUSH1 0x60 DUP2 LT ISZERO PUSH2 0x3782 JUMPI PUSH1 0x0 DUP1 PUSH2 0x377F PUSH2 0x48BC JUMP JUMPDEST POP POP JUMPDEST DUP2 ADD SWAP1 DUP1 DUP1 MLOAD SWAP3 SWAP2 SWAP1 PUSH1 0x20 ADD DUP1 MLOAD SWAP3 SWAP2 SWAP1 PUSH1 0x20 ADD DUP1 MLOAD SWAP4 SWAP8 POP SWAP3 SWAP6 POP SWAP3 SWAP4 POP PUSH2 0x37B1 SWAP3 POP DUP11 SWAP2 POP DUP10 SWAP1 POP PUSH2 0x2FD7 JUMP JUMPDEST SWAP4 POP PUSH2 0x37BD DUP2 DUP6 PUSH2 0x421F JUMP JUMPDEST SWAP6 POP PUSH2 0x37CF DUP2 DUP8 PUSH4 0xFFFFFFFF PUSH2 0x38A6 AND JUMP JUMPDEST SWAP5 POP POP SWAP4 SWAP8 SWAP3 SWAP7 POP SWAP4 POP SWAP4 POP JUMP JUMPDEST PUSH1 0x0 DUP3 DUP2 MSTORE PUSH1 0x3 PUSH1 0x20 MSTORE DUP1 PUSH1 0x40 DUP2 KECCAK256 PUSH1 0x0 SWAP1 PUSH2 0x37F7 PUSH2 0x4927 JUMP JUMPDEST PUSH1 0x1 PUSH1 0x1 PUSH1 0xA0 SHL SUB PUSH2 0x100 SWAP3 SWAP1 SWAP3 EXP SWAP1 DIV AND SWAP1 POP DUP3 DUP2 PUSH2 0x389E JUMPI PUSH1 0x40 MLOAD PUSH3 0x461BCD PUSH1 0xE5 SHL DUP2 MSTORE PUSH1 0x4 ADD DUP1 DUP1 PUSH1 0x20 ADD DUP3 DUP2 SUB DUP3 MSTORE DUP4 DUP2 DUP2 MLOAD DUP2 MSTORE PUSH1 0x20 ADD SWAP2 POP DUP1 MLOAD SWAP1 PUSH1 0x20 ADD SWAP1 DUP1 DUP4 DUP4 PUSH1 0x0 JUMPDEST DUP4 DUP2 LT ISZERO PUSH2 0x385A JUMPI DUP1 DUP3 ADD MLOAD DUP4 DUP3 ADD MSTORE PUSH1 0x20 ADD PUSH2 0x3842 JUMP JUMPDEST POP POP POP POP SWAP1 POP SWAP1 DUP2 ADD SWAP1 PUSH1 0x1F AND DUP1 ISZERO PUSH2 0x3887 JUMPI DUP1 DUP3 SUB DUP1 MLOAD PUSH1 0x1 DUP4 PUSH1 0x20 SUB PUSH2 0x100 EXP SUB NOT AND DUP2 MSTORE PUSH1 0x20 ADD SWAP2 POP JUMPDEST POP SWAP3 POP POP POP PUSH1 0x40 MLOAD DUP1 SWAP2 SUB SWAP1 PUSH2 0x389B PUSH2 0x48BC JUMP JUMPDEST POP POP JUMPDEST POP SWAP4 SWAP3 POP POP POP JUMP JUMPDEST PUSH1 0x0 DUP3 DUP3 GT ISZERO PUSH2 0x3905 JUMPI PUSH1 0x40 MLOAD PUSH3 0x461BCD PUSH1 0xE5 SHL DUP2 MSTORE PUSH1 0x20 PUSH1 0x4 DUP3 ADD MSTORE PUSH1 0x1E PUSH1 0x24 DUP3 ADD MSTORE PUSH32 0x536166654D6174683A207375627472616374696F6E206F766572666C6F770000 PUSH1 0x44 DUP3 ADD MSTORE PUSH1 0x64 ADD PUSH1 0x40 MLOAD DUP1 SWAP2 SUB SWAP1 PUSH2 0x3902 PUSH2 0x48BC JUMP JUMPDEST POP POP JUMPDEST POP SWAP1 SUB SWAP1 JUMP JUMPDEST DUP1 DUP4 EQ ISZERO PUSH2 0x395E JUMPI PUSH1 0x40 MLOAD PUSH3 0x461BCD PUSH1 0xE5 SHL DUP2 MSTORE PUSH1 0x20 PUSH1 0x4 DUP3 ADD MSTORE PUSH1 0x13 PUSH1 0x24 DUP3 ADD MSTORE PUSH19 0x86C2DC4EE840C4CA40E6C2DACA40E6F2DCE8D PUSH1 0x6B SHL PUSH1 0x44 DUP3 ADD MSTORE PUSH1 0x64 ADD PUSH1 0x40 MLOAD DUP1 SWAP2 SUB SWAP1 PUSH2 0x395B PUSH2 0x48BC JUMP JUMPDEST POP POP JUMPDEST PUSH1 0x0 DUP3 GT PUSH2 0x39A9 JUMPI PUSH1 0x40 MLOAD PUSH3 0x461BCD PUSH1 0xE5 SHL DUP2 MSTORE PUSH1 0x20 PUSH1 0x4 DUP3 ADD MSTORE PUSH1 0xB PUSH1 0x24 DUP3 ADD MSTORE PUSH11 0x16995C9BC8185B5BDD5B9D PUSH1 0xAA SHL PUSH1 0x44 DUP3 ADD MSTORE PUSH1 0x64 ADD PUSH1 0x40 MLOAD DUP1 SWAP2 SUB SWAP1 PUSH2 0x39A6 PUSH2 0x48BC JUMP JUMPDEST POP POP JUMPDEST PUSH1 0x60 PUSH1 0x2 PUSH1 0x40 MLOAD SWAP1 DUP1 DUP3 MSTORE DUP1 PUSH1 0x20 MUL PUSH1 0x20 ADD DUP3 ADD PUSH1 0x40 MSTORE DUP1 ISZERO PUSH2 0x39D6 JUMPI DUP2 PUSH1 0x20 ADD PUSH1 0x20 DUP3 MUL DUP1 CODESIZE DUP4 CODECOPY ADD SWAP1 POP JUMPDEST POP SWAP1 POP DUP4 DUP2 PUSH1 0x0 DUP2 MLOAD DUP2 LT PUSH2 0x39E7 JUMPI INVALID JUMPDEST PUSH1 0x20 MUL PUSH1 0x20 ADD ADD DUP2 DUP2 MSTORE POP POP DUP2 DUP2 PUSH1 0x1 DUP2 MLOAD DUP2 LT PUSH2 0x3A01 JUMPI INVALID JUMPDEST PUSH1 0x20 MUL PUSH1 0x20 ADD ADD DUP2 DUP2 MSTORE POP POP PUSH2 0x3A15 PUSH2 0x2923 JUMP JUMPDEST PUSH1 0x1 PUSH1 0x1 PUSH1 0xA0 SHL SUB AND PUSH4 0xA7D36D1 DUP3 PUSH1 0x40 MLOAD DUP3 PUSH4 0xFFFFFFFF AND PUSH1 0xE0 SHL DUP2 MSTORE PUSH1 0x4 ADD DUP1 DUP1 PUSH1 0x20 ADD DUP3 DUP2 SUB DUP3 MSTORE DUP4 DUP2 DUP2 MLOAD DUP2 MSTORE PUSH1 0x20 ADD SWAP2 POP DUP1 MLOAD SWAP1 PUSH1 0x20 ADD SWAP1 PUSH1 0x20 MUL DUP1 DUP4 DUP4 PUSH1 0x0 JUMPDEST DUP4 DUP2 LT ISZERO PUSH2 0x3A73 JUMPI DUP1 DUP3 ADD MLOAD DUP4 DUP3 ADD MSTORE PUSH1 0x20 ADD PUSH2 0x3A5B JUMP JUMPDEST POP POP POP POP SWAP1 POP ADD SWAP3 POP POP POP PUSH1 0x20 PUSH1 0x40 MLOAD DUP1 DUP4 SUB DUP2 DUP7 DUP1 PUSH2 0x3A91 PUSH2 0x4982 JUMP JUMPDEST ISZERO DUP1 ISZERO PUSH2 0x3AA6 JUMPI PUSH1 0x0 DUP1 PUSH2 0x3AA3 PUSH2 0x48BC JUMP JUMPDEST POP POP JUMPDEST POP GAS PUSH2 0x3AB0 PUSH2 0x49CE JUMP JUMPDEST POP POP POP POP POP ISZERO DUP1 ISZERO PUSH2 0x3ACF JUMPI RETURNDATASIZE PUSH1 0x0 DUP1 RETURNDATACOPY RETURNDATASIZE PUSH1 0x0 PUSH2 0x3ACC PUSH2 0x48BC JUMP JUMPDEST POP POP JUMPDEST POP POP POP POP PUSH1 0x40 MLOAD RETURNDATASIZE PUSH1 0x20 DUP2 LT ISZERO PUSH2 0x3AEE JUMPI PUSH1 0x0 DUP1 PUSH2 0x3AEB PUSH2 0x48BC JUMP JUMPDEST POP POP JUMPDEST DUP2 ADD SWAP1 DUP1 DUP1 MLOAD ISZERO SWAP3 POP PUSH2 0x3B3B SWAP2 POP POP JUMPI PUSH1 0x40 MLOAD PUSH3 0x461BCD PUSH1 0xE5 SHL DUP2 MSTORE PUSH1 0x4 ADD DUP1 DUP1 PUSH1 0x20 ADD DUP3 DUP2 SUB DUP3 MSTORE PUSH1 0x22 DUP2 MSTORE PUSH1 0x20 ADD DUP1 PUSH2 0x4DB1 PUSH1 0x22 SWAP2 CODECOPY PUSH1 0x40 ADD SWAP2 POP POP PUSH1 0x40 MLOAD DUP1 SWAP2 SUB SWAP1 PUSH2 0x1A6F PUSH2 0x48BC JUMP JUMPDEST POP POP POP POP JUMP JUMPDEST PUSH1 0x0 PUSH2 0xDBB PUSH7 0x119959541BDBDB PUSH1 0xCA SHL PUSH1 0x40 MLOAD PUSH1 0x40 DUP1 DUP3 ADD SWAP1 MSTORE PUSH1 0x17 DUP2 MSTORE PUSH32 0x4D697373696E6720466565506F6F6C2061646472657373000000000000000000 PUSH1 0x20 DUP3 ADD MSTORE PUSH2 0x37DD JUMP JUMPDEST PUSH1 0x0 PUSH2 0x3B94 PUSH2 0x2923 JUMP JUMPDEST SWAP1 POP PUSH1 0x0 DUP2 PUSH1 0x1 PUSH1 0x1 PUSH1 0xA0 SHL SUB AND PUSH4 0x7A018A1E DUP9 PUSH1 0x40 MLOAD PUSH1 0x1 PUSH1 0x1 PUSH1 0xE0 SHL SUB NOT PUSH1 0xE0 DUP5 SWAP1 SHL AND DUP2 MSTORE PUSH1 0x4 DUP2 ADD SWAP2 SWAP1 SWAP2 MSTORE PUSH1 0x24 ADD PUSH1 0x20 PUSH1 0x40 MLOAD DUP1 DUP4 SUB DUP2 DUP7 DUP1 PUSH2 0x3BDA PUSH2 0x4982 JUMP JUMPDEST ISZERO DUP1 ISZERO PUSH2 0x3BEF JUMPI PUSH1 0x0 DUP1 PUSH2 0x3BEC PUSH2 0x48BC JUMP JUMPDEST POP POP JUMPDEST POP GAS PUSH2 0x3BF9 PUSH2 0x49CE JUMP JUMPDEST POP POP POP POP POP ISZERO DUP1 ISZERO PUSH2 0x3C18 JUMPI RETURNDATASIZE PUSH1 0x0 DUP1 RETURNDATACOPY RETURNDATASIZE PUSH1 0x0 PUSH2 0x3C15 PUSH2 0x48BC JUMP JUMPDEST POP POP JUMPDEST POP POP POP POP PUSH1 0x40 MLOAD RETURNDATASIZE PUSH1 0x20 DUP2 LT ISZERO PUSH2 0x3C37 JUMPI PUSH1 0x0 DUP1 PUSH2 0x3C34 PUSH2 0x48BC JUMP JUMPDEST POP POP JUMPDEST DUP2 ADD SWAP1 DUP1 DUP1 MLOAD SWAP4 POP PUSH1 0x0 SWAP3 POP POP POP PUSH1 0x1 PUSH1 0x1 PUSH1 0xA0 SHL SUB DUP4 AND PUSH4 0x7A018A1E DUP8 PUSH1 0x40 MLOAD PUSH1 0x1 PUSH1 0x1 PUSH1 0xE0 SHL SUB NOT PUSH1 0xE0 DUP5 SWAP1 SHL AND DUP2 MSTORE PUSH1 0x4 DUP2 ADD SWAP2 SWAP1 SWAP2 MSTORE PUSH1 0x24 ADD PUSH1 0x20 PUSH1 0x40 MLOAD DUP1 DUP4 SUB DUP2 DUP7 DUP1 PUSH2 0x3C87 PUSH2 0x4982 JUMP JUMPDEST ISZERO DUP1 ISZERO PUSH2 0x3C9C JUMPI PUSH1 0x0 DUP1 PUSH2 0x3C99 PUSH2 0x48BC JUMP JUMPDEST POP POP JUMPDEST POP GAS PUSH2 0x3CA6 PUSH2 0x49CE JUMP JUMPDEST POP POP POP POP POP ISZERO DUP1 ISZERO PUSH2 0x3CC5 JUMPI RETURNDATASIZE PUSH1 0x0 DUP1 RETURNDATACOPY RETURNDATASIZE PUSH1 0x0 PUSH2 0x3CC2 PUSH2 0x48BC JUMP JUMPDEST POP POP JUMPDEST POP POP POP POP PUSH1 0x40 MLOAD RETURNDATASIZE PUSH1 0x20 DUP2 LT ISZERO PUSH2 0x3CE4 JUMPI PUSH1 0x0 DUP1 PUSH2 0x3CE1 PUSH2 0x48BC JUMP JUMPDEST POP POP JUMPDEST DUP2 ADD SWAP1 DUP1 DUP1 MLOAD SWAP4 POP PUSH2 0x3CF9 SWAP3 POP PUSH2 0x1D46 SWAP2 POP POP JUMP JUMPDEST PUSH1 0x1 PUSH1 0x1 PUSH1 0xA0 SHL SUB AND PUSH4 0x3CA9D85C DUP11 DUP11 DUP11 DUP11 DUP11 DUP11 GAS PUSH2 0x3D16 PUSH2 0x4BF1 JUMP JUMPDEST DUP11 DUP11 PUSH1 0x40 MLOAD PUSH1 0x1 PUSH1 0x1 PUSH1 0xE0 SHL SUB NOT PUSH1 0xE0 DUP13 SWAP1 SHL AND DUP2 MSTORE PUSH1 0x1 PUSH1 0x1 PUSH1 0xA0 SHL SUB SWAP1 SWAP10 AND PUSH1 0x4 DUP11 ADD MSTORE PUSH1 0x24 DUP10 ADD SWAP8 SWAP1 SWAP8 MSTORE PUSH1 0x44 DUP9 ADD SWAP6 SWAP1 SWAP6 MSTORE PUSH1 0x64 DUP8 ADD SWAP4 SWAP1 SWAP4 MSTORE PUSH1 0x84 DUP7 ADD SWAP2 SWAP1 SWAP2 MSTORE PUSH1 0xA4 DUP6 ADD MSTORE PUSH1 0xC4 DUP5 ADD MSTORE PUSH1 0xE4 DUP4 ADD MSTORE PUSH2 0x104 DUP3 ADD MSTORE PUSH2 0x124 ADD PUSH1 0x0 PUSH1 0x40 MLOAD DUP1 DUP4 SUB DUP2 PUSH1 0x0 DUP8 DUP1 PUSH2 0x3D8A PUSH2 0x4982 JUMP JUMPDEST ISZERO DUP1 ISZERO PUSH2 0x3D9F JUMPI PUSH1 0x0 DUP1 PUSH2 0x3D9C PUSH2 0x48BC JUMP JUMPDEST POP POP JUMPDEST POP GAS PUSH2 0x3DA9 PUSH2 0x4ACD JUMP JUMPDEST POP POP POP POP POP POP ISZERO DUP1 ISZERO PUSH2 0x3DC9 JUMPI RETURNDATASIZE PUSH1 0x0 DUP1 RETURNDATACOPY RETURNDATASIZE PUSH1 0x0 PUSH2 0x3DC6 PUSH2 0x48BC JUMP JUMPDEST POP POP JUMPDEST POP POP POP POP DUP9 PUSH1 0x1 PUSH1 0x1 PUSH1 0xA0 SHL SUB AND PUSH32 0x62E40D554C7ABCDD31074960D8347A2225DAEB04D93BC748F049BA2CE9462398 DUP10 DUP10 DUP10 DUP10 DUP10 DUP9 DUP9 PUSH1 0x40 MLOAD SWAP7 DUP8 MSTORE PUSH1 0x20 DUP8 ADD SWAP6 SWAP1 SWAP6 MSTORE PUSH1 0x40 DUP1 DUP8 ADD SWAP5 SWAP1 SWAP5 MSTORE PUSH1 0x60 DUP7 ADD SWAP3 SWAP1 SWAP3 MSTORE PUSH1 0x80 DUP6 ADD MSTORE PUSH1 0xA0 DUP5 ADD MSTORE PUSH1 0xC0 DUP4 ADD SWAP2 SWAP1 SWAP2 MSTORE PUSH1 0xE0 SWAP1 SWAP2 ADD SWAP1 MLOAD DUP1 SWAP2 SUB SWAP1 LOG2 POP POP POP POP POP POP POP POP POP JUMP JUMPDEST PUSH1 0x0 PUSH2 0xDBB PUSH14 0x54726164696E6752657761726473 PUSH1 0x90 SHL PUSH1 0x40 MLOAD PUSH1 0x40 DUP1 DUP3 ADD SWAP1 MSTORE PUSH1 0x1E DUP2 MSTORE PUSH32 0x4D697373696E672054726164696E675265776172647320616464726573730000 PUSH1 0x20 DUP3 ADD MSTORE PUSH2 0x37DD JUMP JUMPDEST PUSH1 0x0 DUP3 ISZERO DUP1 PUSH2 0x3EA4 JUMPI POP DUP2 ISZERO JUMPDEST ISZERO PUSH2 0x3EB1 JUMPI POP PUSH1 0x1 PUSH2 0x7CE JUMP JUMPDEST PUSH1 0x0 DUP4 DUP4 GT ISZERO PUSH2 0x3ED2 JUMPI PUSH2 0x3ECB DUP4 DUP6 PUSH4 0xFFFFFFFF PUSH2 0x4797 AND JUMP JUMPDEST SWAP1 POP PUSH2 0x3EE5 JUMP JUMPDEST PUSH2 0x3EE2 DUP5 DUP5 PUSH4 0xFFFFFFFF PUSH2 0x4797 AND JUMP JUMPDEST SWAP1 POP JUMPDEST PUSH2 0x3EED PUSH2 0x33A8 JUMP JUMPDEST GT ISZERO SWAP4 SWAP3 POP POP POP JUMP JUMPDEST PUSH2 0x3EFE PUSH2 0x4C37 JUMP JUMPDEST PUSH1 0x0 DUP1 PUSH1 0x0 DUP1 PUSH1 0x0 DUP1 PUSH1 0x0 DUP1 PUSH2 0x3F12 PUSH2 0x1D46 JUMP JUMPDEST PUSH1 0x1 PUSH1 0x1 PUSH1 0xA0 SHL SUB AND PUSH4 0x15987EB6 DUP14 DUP14 DUP14 PUSH1 0x40 MLOAD PUSH1 0x1 PUSH1 0x1 PUSH1 0xE0 SHL SUB NOT PUSH1 0xE0 DUP7 SWAP1 SHL AND DUP2 MSTORE PUSH1 0x1 PUSH1 0x1 PUSH1 0xA0 SHL SUB SWAP1 SWAP4 AND PUSH1 0x4 DUP5 ADD MSTORE PUSH1 0x24 DUP4 ADD SWAP2 SWAP1 SWAP2 MSTORE PUSH1 0x44 DUP3 ADD MSTORE PUSH1 0x64 ADD PUSH2 0x100 PUSH1 0x40 MLOAD DUP1 DUP4 SUB DUP2 DUP7 DUP1 PUSH2 0x3F6B PUSH2 0x4982 JUMP JUMPDEST ISZERO DUP1 ISZERO PUSH2 0x3F80 JUMPI PUSH1 0x0 DUP1 PUSH2 0x3F7D PUSH2 0x48BC JUMP JUMPDEST POP POP JUMPDEST POP GAS PUSH2 0x3F8A PUSH2 0x49CE JUMP JUMPDEST POP POP POP POP POP ISZERO DUP1 ISZERO PUSH2 0x3FA9 JUMPI RETURNDATASIZE PUSH1 0x0 DUP1 RETURNDATACOPY RETURNDATASIZE PUSH1 0x0 PUSH2 0x3FA6 PUSH2 0x48BC JUMP JUMPDEST POP POP JUMPDEST POP POP POP POP PUSH1 0x40 MLOAD RETURNDATASIZE PUSH2 0x100 DUP2 LT ISZERO PUSH2 0x3FC9 JUMPI PUSH1 0x0 DUP1 PUSH2 0x3FC6 PUSH2 0x48BC JUMP JUMPDEST POP POP JUMPDEST DUP2 ADD SWAP1 DUP1 DUP1 MLOAD SWAP3 SWAP2 SWAP1 PUSH1 0x20 ADD DUP1 MLOAD SWAP3 SWAP2 SWAP1 PUSH1 0x20 ADD DUP1 MLOAD SWAP3 SWAP2 SWAP1 PUSH1 0x20 ADD DUP1 MLOAD SWAP3 SWAP2 SWAP1 PUSH1 0x20 ADD DUP1 MLOAD SWAP3 SWAP2 SWAP1 PUSH1 0x20 ADD DUP1 MLOAD SWAP3 SWAP2 SWAP1 PUSH1 0x20 ADD DUP1 MLOAD SWAP3 SWAP2 SWAP1 PUSH1 0x20 ADD DUP1 MLOAD SWAP1 PUSH1 0x20 ADD SWAP1 SWAP3 SWAP2 SWAP1 POP POP POP SWAP8 POP SWAP8 POP SWAP8 POP SWAP8 POP SWAP8 POP SWAP8 POP SWAP8 POP SWAP8 POP PUSH1 0x40 MLOAD PUSH2 0x100 DUP2 ADD PUSH1 0x40 SWAP1 DUP2 MSTORE SWAP9 DUP2 MSTORE PUSH1 0x20 DUP2 ADD SWAP8 SWAP1 SWAP8 MSTORE SWAP7 DUP7 ADD SWAP5 SWAP1 SWAP5 MSTORE PUSH1 0x60 DUP6 ADD SWAP3 SWAP1 SWAP3 MSTORE PUSH1 0x80 DUP5 ADD MSTORE PUSH1 0xA0 DUP4 ADD MSTORE PUSH1 0xC0 DUP3 ADD MSTORE PUSH1 0xE0 DUP2 ADD SWAP2 SWAP1 SWAP2 MSTORE SWAP5 SWAP4 POP POP POP POP JUMP JUMPDEST PUSH1 0x0 DUP1 PUSH1 0x0 PUSH2 0x4075 PUSH2 0x2923 JUMP JUMPDEST SWAP1 POP PUSH1 0x0 PUSH2 0x4081 PUSH2 0x35D4 JUMP JUMPDEST SWAP1 POP PUSH1 0x1 PUSH1 0x1 PUSH1 0xA0 SHL SUB DUP3 AND PUSH4 0x109E46A2 DUP7 MLOAD DUP8 PUSH1 0xC0 ADD MLOAD DUP9 PUSH1 0xA0 ADD MLOAD DUP6 PUSH1 0x40 MLOAD PUSH1 0x1 PUSH1 0x1 PUSH1 0xE0 SHL SUB NOT PUSH1 0xE0 DUP8 SWAP1 SHL AND DUP2 MSTORE PUSH1 0x4 DUP2 ADD SWAP5 SWAP1 SWAP5 MSTORE PUSH1 0x24 DUP5 ADD SWAP3 SWAP1 SWAP3 MSTORE PUSH1 0x44 DUP4 ADD MSTORE PUSH1 0x64 DUP3 ADD MSTORE PUSH1 0x84 ADD PUSH1 0x20 PUSH1 0x40 MLOAD DUP1 DUP4 SUB DUP2 DUP7 DUP1 PUSH2 0x40E3 PUSH2 0x4982 JUMP JUMPDEST ISZERO DUP1 ISZERO PUSH2 0x40F8 JUMPI PUSH1 0x0 DUP1 PUSH2 0x40F5 PUSH2 0x48BC JUMP JUMPDEST POP POP JUMPDEST POP GAS PUSH2 0x4102 PUSH2 0x49CE JUMP JUMPDEST POP POP POP POP POP ISZERO DUP1 ISZERO PUSH2 0x4121 JUMPI RETURNDATASIZE PUSH1 0x0 DUP1 RETURNDATACOPY RETURNDATASIZE PUSH1 0x0 PUSH2 0x411E PUSH2 0x48BC JUMP JUMPDEST POP POP JUMPDEST POP POP POP POP PUSH1 0x40 MLOAD RETURNDATASIZE PUSH1 0x20 DUP2 LT ISZERO PUSH2 0x4140 JUMPI PUSH1 0x0 DUP1 PUSH2 0x413D PUSH2 0x48BC JUMP JUMPDEST POP POP JUMPDEST DUP2 ADD SWAP1 DUP1 DUP1 MLOAD SWAP7 POP POP POP PUSH1 0x1 PUSH1 0x1 PUSH1 0xA0 SHL SUB DUP4 AND SWAP1 POP PUSH4 0x109E46A2 PUSH1 0x40 DUP8 ADD MLOAD DUP8 PUSH1 0xE0 ADD MLOAD DUP9 PUSH1 0xA0 ADD MLOAD DUP6 PUSH1 0x40 MLOAD PUSH1 0x1 PUSH1 0x1 PUSH1 0xE0 SHL SUB NOT PUSH1 0xE0 DUP8 SWAP1 SHL AND DUP2 MSTORE PUSH1 0x4 DUP2 ADD SWAP5 SWAP1 SWAP5 MSTORE PUSH1 0x24 DUP5 ADD SWAP3 SWAP1 SWAP3 MSTORE PUSH1 0x44 DUP4 ADD MSTORE PUSH1 0x64 DUP3 ADD MSTORE PUSH1 0x84 ADD PUSH1 0x20 PUSH1 0x40 MLOAD DUP1 DUP4 SUB DUP2 DUP7 DUP1 PUSH2 0x41AF PUSH2 0x4982 JUMP JUMPDEST ISZERO DUP1 ISZERO PUSH2 0x41C4 JUMPI PUSH1 0x0 DUP1 PUSH2 0x41C1 PUSH2 0x48BC JUMP JUMPDEST POP POP JUMPDEST POP GAS PUSH2 0x41CE PUSH2 0x49CE JUMP JUMPDEST POP POP POP POP POP ISZERO DUP1 ISZERO PUSH2 0x41ED JUMPI RETURNDATASIZE PUSH1 0x0 DUP1 RETURNDATACOPY RETURNDATASIZE PUSH1 0x0 PUSH2 0x41EA PUSH2 0x48BC JUMP JUMPDEST POP POP JUMPDEST POP POP POP POP PUSH1 0x40 MLOAD RETURNDATASIZE PUSH1 0x20 DUP2 LT ISZERO PUSH2 0x420C JUMPI PUSH1 0x0 DUP1 PUSH2 0x4209 PUSH2 0x48BC JUMP JUMPDEST POP POP JUMPDEST DUP2 ADD SWAP1 DUP1 DUP1 MLOAD SWAP7 SWAP9 SWAP7 SWAP8 POP POP POP POP POP POP POP JUMP JUMPDEST PUSH1 0x0 PUSH2 0x7CB PUSH2 0x42DB DUP4 PUSH20 0x0 PUSH4 0x907AF6C0 PUSH1 0x40 MLOAD DUP2 PUSH4 0xFFFFFFFF AND PUSH1 0xE0 SHL DUP2 MSTORE PUSH1 0x4 ADD PUSH1 0x20 PUSH1 0x40 MLOAD DUP1 DUP4 SUB DUP2 DUP7 DUP1 PUSH2 0x4267 PUSH2 0x4982 JUMP JUMPDEST ISZERO DUP1 ISZERO PUSH2 0x427C JUMPI PUSH1 0x0 DUP1 PUSH2 0x4279 PUSH2 0x48BC JUMP JUMPDEST POP POP JUMPDEST POP GAS PUSH2 0x4286 PUSH2 0x4C82 JUMP JUMPDEST POP POP POP POP POP ISZERO DUP1 ISZERO PUSH2 0x42A5 JUMPI RETURNDATASIZE PUSH1 0x0 DUP1 RETURNDATACOPY RETURNDATASIZE PUSH1 0x0 PUSH2 0x42A2 PUSH2 0x48BC JUMP JUMPDEST POP POP JUMPDEST POP POP POP POP PUSH1 0x40 MLOAD RETURNDATASIZE PUSH1 0x20 DUP2 LT ISZERO PUSH2 0x42C4 JUMPI PUSH1 0x0 DUP1 PUSH2 0x42C1 PUSH2 0x48BC JUMP JUMPDEST POP POP JUMPDEST DUP2 ADD SWAP1 DUP1 DUP1 MLOAD SWAP4 SWAP3 POP POP PUSH4 0xFFFFFFFF PUSH2 0x38A6 AND SWAP1 POP JUMP JUMPDEST DUP5 SWAP1 PUSH4 0xFFFFFFFF PUSH2 0x47C1 AND JUMP JUMPDEST PUSH1 0x0 PUSH2 0x42F2 PUSH2 0x4746 JUMP JUMPDEST PUSH1 0x1 PUSH1 0x1 PUSH1 0xA0 SHL SUB AND PUSH4 0x23257C2B PUSH14 0x53797374656D53657474696E6773 PUSH1 0x90 SHL PUSH15 0x65786368616E676546656552617465 PUSH1 0x88 SHL DUP6 PUSH1 0x40 MLOAD PUSH1 0x20 ADD DUP1 DUP4 DUP2 MSTORE PUSH1 0x20 ADD DUP3 DUP2 MSTORE PUSH1 0x20 ADD SWAP3 POP POP POP PUSH1 0x40 MLOAD PUSH1 0x20 DUP2 DUP4 SUB SUB DUP2 MSTORE SWAP1 PUSH1 0x40 MSTORE DUP1 MLOAD SWAP1 PUSH1 0x20 ADD KECCAK256 PUSH1 0x40 MLOAD PUSH1 0x1 PUSH1 0x1 PUSH1 0xE0 SHL SUB NOT PUSH1 0xE0 DUP6 SWAP1 SHL AND DUP2 MSTORE PUSH1 0x4 DUP2 ADD SWAP3 SWAP1 SWAP3 MSTORE PUSH1 0x24 DUP3 ADD MSTORE PUSH1 0x44 ADD PUSH1 0x20 PUSH1 0x40 MLOAD DUP1 DUP4 SUB DUP2 DUP7 DUP1 PUSH2 0x438A PUSH2 0x4982 JUMP JUMPDEST ISZERO DUP1 ISZERO PUSH2 0x439F JUMPI PUSH1 0x0 DUP1 PUSH2 0x439C PUSH2 0x48BC JUMP JUMPDEST POP POP JUMPDEST POP GAS PUSH2 0x43A9 PUSH2 0x49CE JUMP JUMPDEST POP POP POP POP POP ISZERO DUP1 ISZERO PUSH2 0x43C8 JUMPI RETURNDATASIZE PUSH1 0x0 DUP1 RETURNDATACOPY RETURNDATASIZE PUSH1 0x0 PUSH2 0x43C5 PUSH2 0x48BC JUMP JUMPDEST POP POP JUMPDEST POP POP POP POP PUSH1 0x40 MLOAD RETURNDATASIZE PUSH1 0x20 DUP2 LT ISZERO PUSH2 0x43E7 JUMPI PUSH1 0x0 DUP1 PUSH2 0x43E4 PUSH2 0x48BC JUMP JUMPDEST POP POP JUMPDEST DUP2 ADD SWAP1 DUP1 DUP1 MLOAD SWAP6 SWAP5 POP POP POP POP POP JUMP JUMPDEST PUSH2 0x43FE PUSH2 0x28E2 JUMP JUMPDEST PUSH1 0x1 PUSH1 0x1 PUSH1 0xA0 SHL SUB AND PUSH4 0x32608039 DUP4 PUSH1 0x40 MLOAD PUSH1 0x1 PUSH1 0x1 PUSH1 0xE0 SHL SUB NOT PUSH1 0xE0 DUP5 SWAP1 SHL AND DUP2 MSTORE PUSH1 0x4 DUP2 ADD SWAP2 SWAP1 SWAP2 MSTORE PUSH1 0x24 ADD PUSH1 0x20 PUSH1 0x40 MLOAD DUP1 DUP4 SUB DUP2 DUP7 DUP1 PUSH2 0x443F PUSH2 0x4982 JUMP JUMPDEST ISZERO DUP1 ISZERO PUSH2 0x4454 JUMPI PUSH1 0x0 DUP1 PUSH2 0x4451 PUSH2 0x48BC JUMP JUMPDEST POP POP JUMPDEST POP GAS PUSH2 0x445E PUSH2 0x49CE JUMP JUMPDEST POP POP POP POP POP ISZERO DUP1 ISZERO PUSH2 0x447D JUMPI RETURNDATASIZE PUSH1 0x0 DUP1 RETURNDATACOPY RETURNDATASIZE PUSH1 0x0 PUSH2 0x447A PUSH2 0x48BC JUMP JUMPDEST POP POP JUMPDEST POP POP POP POP PUSH1 0x40 MLOAD RETURNDATASIZE PUSH1 0x20 DUP2 LT ISZERO PUSH2 0x449C JUMPI PUSH1 0x0 DUP1 PUSH2 0x4499 PUSH2 0x48BC JUMP JUMPDEST POP POP JUMPDEST DUP2 ADD SWAP1 DUP1 DUP1 MLOAD PUSH1 0x1 PUSH1 0x1 PUSH1 0xA0 SHL SUB AND SWAP3 POP PUSH4 0x9DC29FAC SWAP2 POP DUP6 SWAP1 POP DUP4 PUSH1 0x40 MLOAD PUSH1 0x1 PUSH1 0x1 PUSH1 0xE0 SHL SUB NOT PUSH1 0xE0 DUP6 SWAP1 SHL AND DUP2 MSTORE PUSH1 0x1 PUSH1 0x1 PUSH1 0xA0 SHL SUB SWAP1 SWAP3 AND PUSH1 0x4 DUP4 ADD MSTORE PUSH1 0x24 DUP3 ADD MSTORE PUSH1 0x44 ADD PUSH1 0x0 PUSH1 0x40 MLOAD DUP1 DUP4 SUB DUP2 PUSH1 0x0 DUP8 DUP1 PUSH2 0x44F9 PUSH2 0x4982 JUMP JUMPDEST ISZERO DUP1 ISZERO PUSH2 0x450E JUMPI PUSH1 0x0 DUP1 PUSH2 0x450B PUSH2 0x48BC JUMP JUMPDEST POP POP JUMPDEST POP GAS PUSH2 0x4518 PUSH2 0x4ACD JUMP JUMPDEST POP POP POP POP POP POP ISZERO DUP1 ISZERO PUSH2 0x4538 JUMPI RETURNDATASIZE PUSH1 0x0 DUP1 RETURNDATACOPY RETURNDATASIZE PUSH1 0x0 PUSH2 0x4535 PUSH2 0x48BC JUMP JUMPDEST POP POP JUMPDEST POP POP POP POP PUSH2 0x4544 PUSH2 0x1E04 JUMP JUMPDEST PUSH1 0x1 PUSH1 0x1 PUSH1 0xA0 SHL SUB AND PUSH4 0xACE88AFD DUP5 DUP5 DUP5 PUSH1 0x40 MLOAD PUSH1 0x1 PUSH1 0x1 PUSH1 0xE0 SHL SUB NOT PUSH1 0xE0 DUP7 SWAP1 SHL AND DUP2 MSTORE PUSH1 0x1 PUSH1 0x1 PUSH1 0xA0 SHL SUB SWAP1 SWAP4 AND PUSH1 0x4 DUP5 ADD MSTORE PUSH1 0x24 DUP4 ADD SWAP2 SWAP1 SWAP2 MSTORE PUSH1 0x44 DUP3 ADD MSTORE PUSH1 0x64 ADD PUSH1 0x0 PUSH1 0x40 MLOAD DUP1 DUP4 SUB DUP2 PUSH1 0x0 DUP8 DUP1 PUSH2 0x358D PUSH2 0x4982 JUMP JUMPDEST PUSH2 0x45A6 PUSH2 0x28E2 JUMP JUMPDEST PUSH1 0x1 PUSH1 0x1 PUSH1 0xA0 SHL SUB AND PUSH4 0x32608039 DUP4 PUSH1 0x40 MLOAD PUSH1 0x1 PUSH1 0x1 PUSH1 0xE0 SHL SUB NOT PUSH1 0xE0 DUP5 SWAP1 SHL AND DUP2 MSTORE PUSH1 0x4 DUP2 ADD SWAP2 SWAP1 SWAP2 MSTORE PUSH1 0x24 ADD PUSH1 0x20 PUSH1 0x40 MLOAD DUP1 DUP4 SUB DUP2 DUP7 DUP1 PUSH2 0x45E7 PUSH2 0x4982 JUMP JUMPDEST ISZERO DUP1 ISZERO PUSH2 0x45FC JUMPI PUSH1 0x0 DUP1 PUSH2 0x45F9 PUSH2 0x48BC JUMP JUMPDEST POP POP JUMPDEST POP GAS PUSH2 0x4606 PUSH2 0x49CE JUMP JUMPDEST POP POP POP POP POP ISZERO DUP1 ISZERO PUSH2 0x4625 JUMPI RETURNDATASIZE PUSH1 0x0 DUP1 RETURNDATACOPY RETURNDATASIZE PUSH1 0x0 PUSH2 0x4622 PUSH2 0x48BC JUMP JUMPDEST POP POP JUMPDEST POP POP POP POP PUSH1 0x40 MLOAD RETURNDATASIZE PUSH1 0x20 DUP2 LT ISZERO PUSH2 0x4644 JUMPI PUSH1 0x0 DUP1 PUSH2 0x4641 PUSH2 0x48BC JUMP JUMPDEST POP POP JUMPDEST DUP2 ADD SWAP1 DUP1 DUP1 MLOAD PUSH1 0x1 PUSH1 0x1 PUSH1 0xA0 SHL SUB AND SWAP3 POP PUSH4 0x867904B4 SWAP2 POP DUP6 SWAP1 POP DUP4 PUSH1 0x40 MLOAD PUSH1 0x1 PUSH1 0x1 PUSH1 0xE0 SHL SUB NOT PUSH1 0xE0 DUP6 SWAP1 SHL AND DUP2 MSTORE PUSH1 0x1 PUSH1 0x1 PUSH1 0xA0 SHL SUB SWAP1 SWAP3 AND PUSH1 0x4 DUP4 ADD MSTORE PUSH1 0x24 DUP3 ADD MSTORE PUSH1 0x44 ADD PUSH1 0x0 PUSH1 0x40 MLOAD DUP1 DUP4 SUB DUP2 PUSH1 0x0 DUP8 DUP1 PUSH2 0x46A1 PUSH2 0x4982 JUMP JUMPDEST ISZERO DUP1 ISZERO PUSH2 0x46B6 JUMPI PUSH1 0x0 DUP1 PUSH2 0x46B3 PUSH2 0x48BC JUMP JUMPDEST POP POP JUMPDEST POP GAS PUSH2 0x46C0 PUSH2 0x4ACD JUMP JUMPDEST POP POP POP POP POP POP ISZERO DUP1 ISZERO PUSH2 0x46E0 JUMPI RETURNDATASIZE PUSH1 0x0 DUP1 RETURNDATACOPY RETURNDATASIZE PUSH1 0x0 PUSH2 0x46DD PUSH2 0x48BC JUMP JUMPDEST POP POP JUMPDEST POP POP POP POP PUSH2 0x46EC PUSH2 0x1E04 JUMP JUMPDEST PUSH1 0x1 PUSH1 0x1 PUSH1 0xA0 SHL SUB AND PUSH4 0x6F01A986 DUP5 DUP5 DUP5 PUSH1 0x40 MLOAD PUSH1 0x1 PUSH1 0x1 PUSH1 0xE0 SHL SUB NOT PUSH1 0xE0 DUP7 SWAP1 SHL AND DUP2 MSTORE PUSH1 0x1 PUSH1 0x1 PUSH1 0xA0 SHL SUB SWAP1 SWAP4 AND PUSH1 0x4 DUP5 ADD MSTORE PUSH1 0x24 DUP4 ADD SWAP2 SWAP1 SWAP2 MSTORE PUSH1 0x44 DUP3 ADD MSTORE PUSH1 0x64 ADD PUSH1 0x0 PUSH1 0x40 MLOAD DUP1 DUP4 SUB DUP2 PUSH1 0x0 DUP8 DUP1 PUSH2 0x358D PUSH2 0x4982 JUMP JUMPDEST PUSH1 0x0 PUSH2 0xDBB PUSH15 0x466C657869626C6553746F72616765 PUSH1 0x88 SHL PUSH1 0x40 MLOAD PUSH1 0x40 DUP1 DUP3 ADD SWAP1 MSTORE PUSH1 0x1F DUP2 MSTORE PUSH32 0x4D697373696E6720466C657869626C6553746F72616765206164647265737300 PUSH1 0x20 DUP3 ADD MSTORE PUSH2 0x37DD JUMP JUMPDEST PUSH1 0x0 PUSH2 0x7CB DUP3 PUSH2 0x47B5 DUP6 PUSH8 0xDE0B6B3A7640000 PUSH4 0xFFFFFFFF PUSH2 0x47EB AND JUMP JUMPDEST SWAP1 PUSH4 0xFFFFFFFF PUSH2 0x484A AND JUMP JUMPDEST PUSH1 0x0 PUSH8 0xDE0B6B3A7640000 PUSH2 0x47DC DUP5 DUP5 PUSH4 0xFFFFFFFF PUSH2 0x47EB AND JUMP JUMPDEST DUP2 PUSH2 0x47E3 JUMPI INVALID JUMPDEST DIV SWAP4 SWAP3 POP POP POP JUMP JUMPDEST PUSH1 0x0 DUP3 PUSH2 0x47FA JUMPI POP PUSH1 0x0 PUSH2 0x7CE JUMP JUMPDEST DUP3 DUP3 MUL DUP3 DUP5 DUP3 DUP2 PUSH2 0x4807 JUMPI INVALID JUMPDEST DIV EQ PUSH2 0x7CB JUMPI PUSH1 0x40 MLOAD PUSH3 0x461BCD PUSH1 0xE5 SHL DUP2 MSTORE PUSH1 0x4 ADD DUP1 DUP1 PUSH1 0x20 ADD DUP3 DUP2 SUB DUP3 MSTORE PUSH1 0x21 DUP2 MSTORE PUSH1 0x20 ADD DUP1 PUSH2 0x4D90 PUSH1 0x21 SWAP2 CODECOPY PUSH1 0x40 ADD SWAP2 POP POP PUSH1 0x40 MLOAD DUP1 SWAP2 SUB SWAP1 PUSH2 0x34F4 PUSH2 0x48BC JUMP JUMPDEST PUSH1 0x0 DUP1 DUP3 GT PUSH2 0x48A8 JUMPI PUSH1 0x40 MLOAD PUSH3 0x461BCD PUSH1 0xE5 SHL DUP2 MSTORE PUSH1 0x20 PUSH1 0x4 DUP3 ADD MSTORE PUSH1 0x1A PUSH1 0x24 DUP3 ADD MSTORE PUSH32 0x536166654D6174683A206469766973696F6E206279207A65726F000000000000 PUSH1 0x44 DUP3 ADD MSTORE PUSH1 0x64 ADD PUSH1 0x40 MLOAD DUP1 SWAP2 SUB SWAP1 PUSH2 0x48A5 PUSH2 0x48BC JUMP JUMPDEST POP POP JUMPDEST PUSH1 0x0 DUP3 DUP5 DUP2 PUSH2 0x48B3 JUMPI INVALID JUMPDEST DIV SWAP5 SWAP4 POP POP POP POP JUMP JUMPDEST PUSH4 0x2A2A7ADB MSIZE DUP2 PUSH1 0xE0 SHL DUP2 MSTORE PUSH1 0x4 DUP2 ADD PUSH1 0x20 DUP2 MSTORE DUP6 PUSH1 0x20 DUP3 ADD MSTORE PUSH1 0x0 JUMPDEST DUP7 DUP2 LT ISZERO PUSH2 0x48F4 JUMPI DUP1 DUP7 ADD MLOAD DUP3 DUP3 ADD PUSH1 0x40 ADD MSTORE PUSH1 0x20 ADD PUSH2 0x48D9 JUMP JUMPDEST POP PUSH1 0x20 DUP3 DUP8 PUSH1 0x64 ADD DUP5 CALLER PUSH1 0x0 SWAP1 GAS CALL PC PUSH1 0xE ADD JUMPI RETURNDATASIZE PUSH1 0x0 DUP1 RETURNDATACOPY RETURNDATASIZE PUSH1 0x0 REVERT JUMPDEST RETURNDATASIZE PUSH1 0x1 EQ ISZERO PC PUSH1 0xA ADD JUMPI PUSH1 0x1 PUSH1 0x0 RETURN JUMPDEST POP POP POP JUMP JUMPDEST PUSH4 0x3DAA959 MSIZE DUP2 PUSH1 0xE0 SHL DUP2 MSTORE DUP4 PUSH1 0x4 DUP3 ADD MSTORE PUSH1 0x20 DUP2 PUSH1 0x24 DUP4 CALLER PUSH1 0x0 SWAP1 GAS CALL PC PUSH1 0xE ADD JUMPI RETURNDATASIZE PUSH1 0x0 DUP1 RETURNDATACOPY RETURNDATASIZE PUSH1 0x0 REVERT JUMPDEST RETURNDATASIZE PUSH1 0x1 EQ ISZERO PC PUSH1 0xA ADD JUMPI PUSH1 0x1 PUSH1 0x0 RETURN JUMPDEST DUP1 MLOAD SWAP4 POP PUSH1 0x0 JUMPDEST PUSH1 0x40 DUP2 LT ISZERO PUSH2 0x174B JUMPI PUSH1 0x0 DUP3 DUP3 ADD MSTORE PUSH1 0x20 ADD PUSH2 0x496B JUMP JUMPDEST PUSH4 0x8435035B MSIZE DUP2 PUSH1 0xE0 SHL DUP2 MSTORE DUP4 PUSH1 0x4 DUP3 ADD MSTORE PUSH1 0x20 DUP2 PUSH1 0x24 DUP4 CALLER PUSH1 0x0 SWAP1 GAS CALL PC PUSH1 0xE ADD JUMPI RETURNDATASIZE PUSH1 0x0 DUP1 RETURNDATACOPY RETURNDATASIZE PUSH1 0x0 REVERT JUMPDEST RETURNDATASIZE PUSH1 0x1 EQ ISZERO PC PUSH1 0xA ADD JUMPI PUSH1 0x1 PUSH1 0x0 RETURN JUMPDEST DUP1 MLOAD PUSH1 0x0 DUP3 MSTORE SWAP4 POP PUSH1 0x20 PUSH2 0x496B JUMP JUMPDEST PUSH4 0x8540661F MSIZE DUP2 PUSH1 0xE0 SHL DUP2 MSTORE DUP4 PUSH1 0x4 DUP3 ADD MSTORE DUP5 PUSH1 0x24 DUP3 ADD MSTORE PUSH1 0x60 PUSH1 0x44 DUP3 ADD MSTORE DUP7 PUSH1 0x64 DUP3 ADD MSTORE PUSH1 0x84 DUP2 ADD PUSH1 0x0 JUMPDEST DUP9 DUP2 LT ISZERO PUSH2 0x4A12 JUMPI DUP1 DUP9 ADD MLOAD DUP3 DUP3 ADD MSTORE PUSH1 0x20 ADD PUSH2 0x49FA JUMP JUMPDEST POP DUP8 PUSH2 0x104 ADD DUP3 ADD PUSH1 0x60 DUP4 DUP11 PUSH2 0x104 ADD DUP6 CALLER PUSH1 0x0 SWAP1 GAS CALL PC PUSH1 0xE ADD JUMPI RETURNDATASIZE PUSH1 0x0 DUP1 RETURNDATACOPY RETURNDATASIZE PUSH1 0x0 REVERT JUMPDEST RETURNDATASIZE PUSH1 0x1 EQ ISZERO PC PUSH1 0xA ADD JUMPI PUSH1 0x1 PUSH1 0x0 RETURN JUMPDEST DUP3 MLOAD PUSH1 0x40 DUP5 ADD MLOAD RETURNDATASIZE PUSH1 0x0 DUP7 RETURNDATACOPY DUP13 DUP13 DUP3 PUSH1 0x60 DUP9 ADD CALLER POP PUSH1 0x0 PUSH1 0x4 GAS CALL POP MSIZE DUP6 JUMPDEST DUP2 DUP2 LT ISZERO PUSH2 0x4A7B JUMPI PUSH1 0x0 DUP2 MSTORE PUSH1 0x20 ADD PUSH2 0x4A67 JUMP JUMPDEST POP SWAP2 SWAP13 POP POP POP POP POP POP POP JUMP JUMPDEST PUSH4 0x73509064 MSIZE DUP2 PUSH1 0xE0 SHL DUP2 MSTORE PUSH1 0x20 DUP2 PUSH1 0x4 DUP4 CALLER PUSH1 0x0 SWAP1 GAS CALL PC PUSH1 0xE ADD JUMPI RETURNDATASIZE PUSH1 0x0 DUP1 RETURNDATACOPY RETURNDATASIZE PUSH1 0x0 REVERT JUMPDEST RETURNDATASIZE PUSH1 0x1 EQ ISZERO PC PUSH1 0xA ADD JUMPI PUSH1 0x1 PUSH1 0x0 RETURN JUMPDEST DUP1 MLOAD PUSH1 0x0 DUP3 MSTORE SWAP4 POP PUSH1 0x20 PUSH2 0x496B JUMP JUMPDEST PUSH4 0x85979F76 MSIZE DUP2 PUSH1 0xE0 SHL DUP2 MSTORE DUP4 PUSH1 0x4 DUP3 ADD MSTORE DUP5 PUSH1 0x24 DUP3 ADD MSTORE PUSH1 0x60 PUSH1 0x44 DUP3 ADD MSTORE DUP8 PUSH1 0x64 DUP3 ADD MSTORE PUSH1 0x84 DUP2 ADD PUSH1 0x0 JUMPDEST DUP10 DUP2 LT ISZERO PUSH2 0x4B11 JUMPI DUP1 DUP10 ADD MLOAD DUP3 DUP3 ADD MSTORE PUSH1 0x20 ADD PUSH2 0x4AF9 JUMP JUMPDEST POP DUP9 PUSH2 0x104 ADD DUP3 ADD PUSH1 0x60 DUP4 DUP12 PUSH2 0x104 ADD DUP6 CALLER PUSH1 0x0 SWAP1 GAS CALL PC PUSH1 0xE ADD JUMPI RETURNDATASIZE PUSH1 0x0 DUP1 RETURNDATACOPY RETURNDATASIZE PUSH1 0x0 REVERT JUMPDEST RETURNDATASIZE PUSH1 0x1 EQ ISZERO PC PUSH1 0xA ADD JUMPI PUSH1 0x1 PUSH1 0x0 RETURN JUMPDEST DUP3 MLOAD PUSH1 0x40 DUP5 ADD MLOAD RETURNDATASIZE PUSH1 0x0 DUP7 RETURNDATACOPY DUP14 DUP14 DUP3 PUSH1 0x60 DUP9 ADD CALLER POP PUSH1 0x0 PUSH1 0x4 GAS CALL POP MSIZE DUP6 JUMPDEST DUP2 DUP2 LT ISZERO PUSH2 0x4B7A JUMPI PUSH1 0x0 DUP2 MSTORE PUSH1 0x20 ADD PUSH2 0x4B66 JUMP JUMPDEST POP SWAP2 SWAP14 POP POP POP POP POP POP POP JUMP JUMPDEST PUSH4 0x22BD64C0 MSIZE DUP2 PUSH1 0xE0 SHL DUP2 MSTORE DUP4 PUSH1 0x4 DUP3 ADD MSTORE DUP5 PUSH1 0x24 DUP3 ADD MSTORE PUSH1 0x0 DUP2 PUSH1 0x44 DUP4 CALLER PUSH1 0x0 SWAP1 GAS CALL PC PUSH1 0xE ADD JUMPI RETURNDATASIZE PUSH1 0x0 DUP1 RETURNDATACOPY RETURNDATASIZE PUSH1 0x0 REVERT JUMPDEST RETURNDATASIZE PUSH1 0x1 EQ ISZERO PC PUSH1 0xA ADD JUMPI PUSH1 0x1 PUSH1 0x0 RETURN JUMPDEST PUSH1 0x0 DUP2 MSTORE PUSH1 0x20 PUSH2 0x496B JUMP JUMPDEST PUSH1 0x40 MLOAD PUSH2 0x300 DUP1 DUP3 ADD PUSH1 0x40 MSTORE PUSH1 0x18 SWAP1 DUP3 SWAP1 DUP1 CODESIZE DUP4 CODECOPY POP SWAP2 SWAP3 SWAP2 POP POP JUMP JUMPDEST PUSH4 0xBDBF8C36 MSIZE DUP2 PUSH1 0xE0 SHL DUP2 MSTORE PUSH1 0x20 DUP2 PUSH1 0x4 DUP4 CALLER PUSH1 0x0 SWAP1 GAS CALL PC PUSH1 0xE ADD JUMPI RETURNDATASIZE PUSH1 0x0 DUP1 RETURNDATACOPY RETURNDATASIZE PUSH1 0x0 REVERT JUMPDEST RETURNDATASIZE PUSH1 0x1 EQ ISZERO PC PUSH1 0xA ADD JUMPI PUSH1 0x1 PUSH1 0x0 RETURN JUMPDEST DUP1 MLOAD PUSH1 0x0 DUP3 MSTORE SWAP4 POP PUSH1 0x20 PUSH2 0x496B JUMP JUMPDEST PUSH1 0x40 MLOAD DUP1 PUSH2 0x100 ADD PUSH1 0x40 MSTORE DUP1 PUSH1 0x0 DUP1 NOT AND DUP2 MSTORE PUSH1 0x20 ADD PUSH1 0x0 DUP2 MSTORE PUSH1 0x20 ADD PUSH1 0x0 DUP1 NOT AND DUP2 MSTORE PUSH1 0x20 ADD PUSH1 0x0 DUP2 MSTORE PUSH1 0x20 ADD PUSH1 0x0 DUP2 MSTORE PUSH1 0x20 ADD PUSH1 0x0 DUP2 MSTORE PUSH1 0x20 ADD PUSH1 0x0 DUP2 MSTORE PUSH1 0x20 ADD PUSH1 0x0 DUP2 MSTORE POP SWAP1 JUMP JUMPDEST PUSH4 0xFFE73914 MSIZE DUP2 PUSH1 0xE0 SHL DUP2 MSTORE DUP4 PUSH1 0x4 DUP3 ADD MSTORE DUP5 PUSH1 0x24 DUP3 ADD MSTORE PUSH1 0x60 PUSH1 0x44 DUP3 ADD MSTORE DUP7 PUSH1 0x64 DUP3 ADD MSTORE PUSH1 0x84 DUP2 ADD PUSH1 0x0 DUP9 DUP2 LT ISZERO PUSH2 0x4A12 JUMPI DUP1 DUP9 ADD MLOAD DUP3 DUP3 ADD MSTORE PUSH1 0x20 ADD PUSH2 0x49FA JUMP INVALID MSIZE PUSH16 0x75206D757374206265206E6F6D696E61 PUSH21 0x6564206265666F726520796F752063616E20616363 PUSH6 0x7074206F776E PUSH6 0x72736869704D PUSH10 0x7373696E672044656C65 PUSH8 0x617465417070726F PUSH23 0x616C73206164647265737345786368616E6765723A204F PUSH15 0x6C792073796E746865746978206F72 KECCAK256 PUSH2 0x2073 PUSH26 0x6E746820636F6E74726163742063616E20706572666F726D2074 PUSH9 0x697320616374696F6E 0x4F PUSH15 0x6C792074686520636F6E7472616374 KECCAK256 PUSH16 0x776E6572206D617920706572666F726D KECCAK256 PUSH21 0x68697320616374696F6E536166654D6174683A206D PUSH22 0x6C7469706C69636174696F6E206F766572666C6F7753 PUSH19 0x632F64657374207261746520696E76616C6964 KECCAK256 PUSH16 0x72206E6F7420666F756E6443616E6E6F PUSH21 0x20736574746C6520647572696E672077616974696E PUSH8 0x20706572696F6400 "
		},
		"deployedBytecode": {
			"linkReferences": {
				"Exchanger.sol": {
					"SafeDecimalMath": [
						{
							"length": 20,
							"start": 16938
						}
					]
				}
			},
			"object": "6080604052348015610019576000806100166148bc565b50505b50600436106101d85760003560e01c8063631e14441161010d578063ab49848c116100ab578063d6f32e061161007a578063d6f32e061461061b578063dfffca7614610650578063e3235c91146106a9578063f450aa34146106b1576101d8565b8063ab49848c14610580578063c193f0d8146105c1578063c6c9d828146105c9578063ce096940146105ef576101d8565b80637dd1a57a116100e75780637dd1a57a146104f157806386baa45c1461051757806389257117146105705780638da5cb5b14610578576101d8565b8063631e14441461046f5780636a1c47581461049e57806379ba5097146104e9576101d8565b80631b16802c1161017a5780633fa70f45116101545780633fa70f45146103e45780634c268fc8146103ec57806353a47bb71461042d57806357af302c14610435576101d8565b80631b16802c14610378578063372a395a146103ad5780633be99e6f146103b5576101d8565b80630b9e31c9116101b65780630b9e31c91461029c5780631627540c146102c457806319d5c665146102f35780631a5c60951461034c576101d8565b806304f3bcec146101e6578063059c29ec1461020a5780630a1e187d14610251575b6000806101e36148bc565b50505b6101ee6106e3565b6040516001600160a01b03909116815260200160405180910390f35b61023f60048036036040811015610229576000806102266148bc565b50505b506001600160a01b038135169060200135610702565b60405190815260200160405180910390f35b61023f600480360360a08110156102705760008061026d6148bc565b50505b506001600160a01b038135811691602081013591604082013591606081013591608090910135166107d4565b6102c2600480360360208110156102bb576000806102b86148bc565b50505b5035610932565b005b6102c2600480360360208110156102e3576000806102e06148bc565b50505b50356001600160a01b0316610c64565b610328600480360360408110156103125760008061030f6148bc565b50505b506001600160a01b038135169060200135610cde565b60405180848152602001838152602001828152602001935050505060405180910390f35b61023f6004803603604081101561036b576000806103686148bc565b50505b5080359060200135610cfc565b61032860048036036040811015610397576000806103946148bc565b50505b506001600160a01b038135169060200135610d08565b61023f610db1565b6102c2600480360360208110156103d4576000806103d16148bc565b50505b50356001600160a01b0316610dc0565b61023f610f8a565b61023f6004803603608081101561040b576000806104086148bc565b50505b506001600160a01b038135169060208101359060408101359060600135610f8f565b6101ee611123565b61045b60048036036020811015610454576000806104516148bc565b50505b503561112f565b604051901515815260200160405180910390f35b61045b6004803603602081101561048e5760008061048b6148bc565b50505b50356001600160a01b0316611186565b61023f600480360360a08110156104bd576000806104ba6148bc565b50505b506001600160a01b03813581169160208101359091169060408101359060608101359060800135611360565b6102c26115cd565b61023f600480360360208110156105105760008061050d6148bc565b50505b5035611750565b61023f600480360360e0811015610536576000806105336148bc565b50505b506001600160a01b038135811691602081013591604082013591606081013591608082013581169160a08101359091169060c0013561176b565b61023f6118d6565b6101ee6118e0565b6105886118eb565b604051808261030080838360005b838110156105ae578082015183820152602001610596565b5050505090500191505060405180910390f35b61045b61194d565b61023f600480360360208110156105e8576000806105e56148bc565b50505b5035611957565b6102c26004803603604081101561060e5760008061060b6148bc565b50505b508035906020013561197f565b61045b6004803603604081101561063a576000806106376148bc565b50505b506001600160a01b038135169060200135611a77565b61023f600480360360e081101561066f5760008061066c6148bc565b50505b506001600160a01b038135811691602081013582169160408201359160608101359160808201359160a08101359091169060c00135611aa9565b61023f611d21565b610328600480360360608110156106d0576000806106cd6148bc565b50505b5080359060208101359060400135611d26565b600060026106ef614927565b906101000a90046001600160a01b031681565b60006107cb61070f611d46565b6001600160a01b031663f1406dc885856040516001600160e01b031960e085901b1681526001600160a01b0390921660048301526024820152604401602060405180830381868061075e614982565b158015610773576000806107706148bc565b50505b505a61077d6149ce565b505050505015801561079c573d6000803e3d60006107996148bc565b50505b505050506040513d60208110156107bb576000806107b86148bc565b50505b8101908080519250611d95915050565b90505b92915050565b6000806107df611e04565b9050806001600160a01b03165a6107f4614a87565b6001600160a01b031614806108c5575060006001600160a01b0382166316b2213f5a61081e614a87565b6040516001600160e01b031960e084901b1681526001600160a01b0390911660048201526024016020604051808303818680610858614982565b15801561086d5760008061086a6148bc565b50505b505a6108776149ce565b5050505050158015610896573d6000803e3d60006108936148bc565b50505b505050506040513d60208110156108b5576000806108b26148bc565b50505b8101908080519390931415925050505b6109095760405162461bcd60e51b8152600401808060200182810382526045815260200180614d1c60459139606001915050604051809103906109066148bc565b50505b60006109188888888888611e4f565b909350905061092781856127c8565b505095945050505050565b61093a612894565b6001600160a01b031663086dabd16040518163ffffffff1660e01b8152600401600060405180830381868061096d614982565b1580156109825760008061097f6148bc565b50505b505a61098c6149ce565b50505050501580156109ab573d6000803e3d60006109a86148bc565b50505b5050505060006001600160a01b03166109c26128e2565b6001600160a01b03166332608039836040516001600160e01b031960e084901b16815260048101919091526024016020604051808303818680610a03614982565b158015610a1857600080610a156148bc565b50505b505a610a226149ce565b5050505050158015610a41573d6000803e3d6000610a3e6148bc565b50505b505050506040513d6020811015610a6057600080610a5d6148bc565b50505b8101908080516001600160a01b031693909314159250610ac29150505760405162461bcd60e51b815260206004820152600d60248201526c09cde40e6eac6d040e6f2dce8d609b1b604482015260640160405180910390610abf6148bc565b50505b610b7c81610ace612923565b6001600160a01b031663ac82f608846040516001600160e01b031960e084901b16815260048101919091526024016020604051808303818680610b0f614982565b158015610b2457600080610b216148bc565b50505b505a610b2e6149ce565b5050505050158015610b4d573d6000803e3d6000610b4a6148bc565b50505b505050506040513d6020811015610b6c57600080610b696148bc565b50505b8101908080519250612972915050565b610bcc5760405162461bcd60e51b815260206004820152601460248201527314de5b9d1a081c1c9a58d9481a5cc81d985b1a5960621b604482015260640160405180910390610bc96148bc565b50505b610bd4612894565b6001600160a01b031663abc0bb6e8260416040516001600160e01b031960e085901b1681526004810192909252602482015260440160006040518083038160008780610c1e614982565b158015610c3357600080610c306148bc565b50505b505a610c3d614acd565b505050505050158015610c5d573d6000803e3d6000610c5a6148bc565b50505b5050505050565b610c6c612c34565b8060018080610c79614927565b816001600160a01b0302191690836001600160a01b0316021790610c9b614b86565b5050507f906a1c6bd7e3091ea86693dd029a831c19049ce77f1dce2ce0bab1cacbabce22816040516001600160a01b03909116815260200160405180910390a150565b6000806000610ced8585612cae565b50919790965090945092505050565b60006107cb8383612fd7565b6000806000610d15612894565b6001600160a01b03166342a28e21856040516001600160e01b031960e084901b16815260048101919091526024016000604051808303818680610d56614982565b158015610d6b57600080610d686148bc565b50505b505a610d756149ce565b5050505050158015610d94573d6000803e3d6000610d916148bc565b50505b50505050610da485856001612fe2565b9250925092509250925092565b6000610dbb6133a8565b905090565b610dc8612c34565b806002600181610dd6614927565b816001600160a01b0302191690836001600160a01b0316021790610df8614b86565b5060009150505b600480610e0a614927565b9050811015610f8657600060048281610e21614927565b8110610e2957fe5b90600052602060002001610e3b614927565b905060006002610e49614927565b906101000a90046001600160a01b03166001600160a01b031663dacb2d01826040516001600160e01b031960e084901b1681526004810191909152604060248201819052601760448301527f5265736f6c766572206d697373696e6720746172676574000000000000000000606483015260849091019060209051808303818680610ed2614982565b158015610ee757600080610ee46148bc565b50505b505a610ef16149ce565b5050505050158015610f10573d6000803e3d6000610f0d6148bc565b50505b505050506040513d6020811015610f2f57600080610f2c6148bc565b50505b8101908080516000858152600360205290935060409250905020600181610f54614927565b816001600160a01b0302191690836001600160a01b0316021790610f76614b86565b505060019092019150610dff9050565b5050565b604181565b816000610f9a6128e2565b6001600160a01b03166332608039866040516001600160e01b031960e084901b16815260048101919091526024016020604051808303818680610fdb614982565b158015610ff057600080610fed6148bc565b50505b505a610ffa6149ce565b5050505050158015611019573d6000803e3d60006110166148bc565b50505b505050506040513d6020811015611038576000806110356148bc565b50505b8101908080516001600160a01b031692506370a0823191508890506040516001600160e01b031960e084901b1681526001600160a01b039091166004820152602401602060405180830381868061108d614982565b1580156110a25760008061109f6148bc565b50505b505a6110ac6149ce565b50505050501580156110cb573d6000803e3d60006110c86148bc565b50505b505050506040513d60208110156110ea576000806110e76148bc565b50505b810190808051935050505080821115611101578091505b821561111a57611117828463ffffffff61349516565b91505b50949350505050565b600060016106ef614927565b600061117e8261113d612923565b6001600160a01b031663ac82f608856040516001600160e01b031960e084901b16815260048101919091526024016020604051808303818680610b0f614982565b90505b919050565b60006001600160a01b03821681600261119d614927565b906101000a90046001600160a01b03166001600160a01b0316146111c357506000611181565b60005b6004806111d1614927565b9050811015611357576000600482816111e8614927565b81106111f057fe5b90600052602060002001611202614927565b600081815260036020529091506040902060009061121e614927565b6001600160a01b036101009290920a9004166000600261123c614927565b906101000a90046001600160a01b03166001600160a01b03166321f8a721836040516001600160e01b031960e084901b1681526004810191909152602401602060405180830381868061128d614982565b1580156112a25760008061129f6148bc565b50505b505a6112ac6149ce565b50505050501580156112cb573d6000803e3d60006112c86148bc565b50505b505050506040513d60208110156112ea576000806112e76148bc565b50505b8101908080516001600160a01b03169390931415925082915061133e905057506000818152600360205260408120600090611323614927565b906101000a90046001600160a01b03166001600160a01b0316145b1561134e57600092505050611181565b506001016111c6565b50600192915050565b60008061136b611e04565b9050806001600160a01b03165a611380614a87565b6001600160a01b03161480611451575060006001600160a01b0382166316b2213f5a6113aa614a87565b6040516001600160e01b031960e084901b1681526001600160a01b03909116600482015260240160206040518083038186806113e4614982565b1580156113f9576000806113f66148bc565b50505b505a6114036149ce565b5050505050158015611422573d6000803e3d600061141f6148bc565b50505b505050506040513d60208110156114415760008061143e6148bc565b50505b8101908080519390931415925050505b6114955760405162461bcd60e51b8152600401808060200182810382526045815260200180614d1c60459139606001915050604051809103906114926148bc565b50505b61149d6134fd565b6001600160a01b031663faf431bb88886040516001600160e01b031960e085901b1681526001600160a01b0392831660048201529116602482015260440160206040518083038186806114ee614982565b158015611503576000806115006148bc565b50505b505a61150d6149ce565b505050505015801561152c573d6000803e3d60006115296148bc565b50505b505050506040513d602081101561154b576000806115486148bc565b50505b81019080805192506115af9150505760405162461bcd60e51b815260206004820152601d60248201527f4e6f7420617070726f76656420746f20616374206f6e20626568616c660000006044820152606401604051809103906115ac6148bc565b50505b60006115be888787878c611e4f565b909350905061092781896127c8565b600060016115d9614927565b906101000a90046001600160a01b03166001600160a01b03165a6115fb614a87565b6001600160a01b0316146116495760405162461bcd60e51b8152600401808060200182810382526035815260200180614cc660359139604001915050604051809103906116466148bc565b50505b7fb532073b38c83145e3e5135377a08bf9aab55bc0fd7c1179cd4fb995d2a5159c600080611675614927565b906101000a90046001600160a01b03166001600090611692614927565b906101000a90046001600160a01b03166040516001600160a01b039283168152911660208201526040908101905180910390a1600060016116d1614927565b906101000a90046001600160a01b03166000806101000a816116f1614927565b816001600160a01b0302191690836001600160a01b0316021790611713614b86565b5050506000600160006101000a81611729614927565b816001600160a01b0302191690836001600160a01b031602179061174b614b86565b505050565b60056020528060005260406000209050611768614927565b81565b600080611776611e04565b9050806001600160a01b03165a61178b614a87565b6001600160a01b0316148061185c575060006001600160a01b0382166316b2213f5a6117b5614a87565b6040516001600160e01b031960e084901b1681526001600160a01b03909116600482015260240160206040518083038186806117ef614982565b158015611804576000806118016148bc565b50505b505a61180e6149ce565b505050505015801561182d573d6000803e3d600061182a6148bc565b50505b505050506040513d602081101561184c576000806118496148bc565b50505b8101908080519390931415925050505b6118a05760405162461bcd60e51b8152600401808060200182810382526045815260200180614d1c604591396060019150506040518091039061189d6148bc565b50505b60006118af8a8a8a8a8a611e4f565b90935090506118be81866127c8565b6118c9848885613533565b5050979650505050505050565b6000610dbb6135d4565b6000806106ef614927565b6118f3614bd4565b60005b600480611901614927565b90508110156119495760048181611916614927565b811061191e57fe5b90600052602060002001611930614927565b82826018811061193c57fe5b60200201526001016118f6565b5090565b6000610dbb61364a565b60048181611963614927565b811061196b57fe5b906000526020600020019050611768614927565b6000611989612923565b9050806001600160a01b03165a61199e614a87565b6001600160a01b031614611a015760405162461bcd60e51b815260206004820152601b60248201527f5265737472696374656420746f2045786368616e6765526174657300000000006044820152606401604051809103906119fe6148bc565b50505b60008211611a555760405162461bcd60e51b8152602060048201526014602482015273052617465206d7573742062652061626f766520360641b604482015260640160405180910390611a526148bc565b50505b600083815260056020528290604090208190611a6f614b86565b505050505050565b6000611a838383610702565b15611a90575060016107ce565b6000611a9c8484612cae565b5050501515949350505050565b600080611ab4611e04565b9050806001600160a01b03165a611ac9614a87565b6001600160a01b03161480611b9a575060006001600160a01b0382166316b2213f5a611af3614a87565b6040516001600160e01b031960e084901b1681526001600160a01b0390911660048201526024016020604051808303818680611b2d614982565b158015611b4257600080611b3f6148bc565b50505b505a611b4c6149ce565b5050505050158015611b6b573d6000803e3d6000611b686148bc565b50505b505050506040513d6020811015611b8a57600080611b876148bc565b50505b8101908080519390931415925050505b611bde5760405162461bcd60e51b8152600401808060200182810382526045815260200180614d1c6045913960600191505060405180910390611bdb6148bc565b50505b611be66134fd565b6001600160a01b031663faf431bb8a8a6040516001600160e01b031960e085901b1681526001600160a01b039283166004820152911660248201526044016020604051808303818680611c37614982565b158015611c4c57600080611c496148bc565b50505b505a611c566149ce565b5050505050158015611c75573d6000803e3d6000611c726148bc565b50505b505050506040513d6020811015611c9457600080611c916148bc565b50505b8101908080519250611cf89150505760405162461bcd60e51b815260206004820152601d60248201527f4e6f7420617070726f76656420746f20616374206f6e20626568616c66000000604482015260640160405180910390611cf56148bc565b50505b6000611d078a8989898e611e4f565b9093509050611d1681866127c8565b6118c9848785613533565b601881565b6000806000611d368686866136c4565b5092999198509650945050505050565b6000610dbb6c45786368616e6765537461746560981b60405160408082019052601d81527f4d697373696e672045786368616e67655374617465206164647265737300000060208201526137dd565b600080611da06135d4565b9050821580611dc65750611dba838263ffffffff61349516565b5a611dc3614bf1565b10155b15611dd5576000915050611181565b611dfd5a611de1614bf1565b611df1858463ffffffff61349516565b9063ffffffff6138a616565b9392505050565b6000610dbb680a6f2dce8d0cae8d2f60bb1b60405160408082019052601981527f4d697373696e672053796e74686574697820616464726573730000000000000060208201526137dd565b600080611e5d86868661390b565b600080611e6c89896000612fe2565b90935091508790508115611e9d57611e868a8a8a86610f8f565b905080611e9d5750600093508392506127be915050565b6000806000611ead848d8c6136c4565b939b50919950945092509050611ec38c83612972565b15611f7057611ed0612894565b6001600160a01b031663abc0bb6e8d60416040516001600160e01b031960e085901b1681526004810192909252602482015260440160006040518083038160008780611f1a614982565b158015611f2f57600080611f2c6148bc565b50505b505a611f39614acd565b505050505050158015611f59573d6000803e3d6000611f566148bc565b50505b5060009a508a99506127be98505050505050505050565b60008c815260056020528290604090208190611f8a614b86565b505050611f978a82612972565b15611fee57611fa4612894565b6001600160a01b031663abc0bb6e8b60416040516001600160e01b031960e085901b1681526004810192909252602482015260440160006040518083038160008780611f1a614982565b60008a815260056020528190604090208190612008614b86565b5050506120136128e2565b6001600160a01b031663326080398d6040516001600160e01b031960e084901b16815260048101919091526024016020604051808303818680612054614982565b158015612069576000806120666148bc565b50505b505a6120736149ce565b5050505050158015612092573d6000803e3d600061208f6148bc565b50505b505050506040513d60208110156120b1576000806120ae6148bc565b50505b8101908080516001600160a01b03169250639dc29fac91508f9050866040516001600160e01b031960e085901b1681526001600160a01b03909216600483015260248201526044016000604051808303816000878061210e614982565b158015612123576000806121206148bc565b50505b505a61212d614acd565b50505050505015801561214d573d6000803e3d600061214a6148bc565b50505b505050506121596128e2565b6001600160a01b031663326080398b6040516001600160e01b031960e084901b1681526004810191909152602401602060405180830381868061219a614982565b1580156121af576000806121ac6148bc565b50505b505a6121b96149ce565b50505050501580156121d8573d6000803e3d60006121d56148bc565b50505b505050506040513d60208110156121f7576000806121f46148bc565b50505b8101908080516001600160a01b0316925063867904b491508b90508a6040516001600160e01b031960e085901b1681526001600160a01b039092166004830152602482015260440160006040518083038160008780612254614982565b158015612269576000806122666148bc565b50505b505a612273614acd565b505050505050158015612293573d6000803e3d60006122906148bc565b50505b5050505060008711156125e8576122a8612923565b6001600160a01b031663654a60ac8b89631cd554d160e21b6040516001600160e01b031960e086901b16815260048101939093526024830191909152604482015260640160206040518083038186806122ff614982565b158015612314576000806123116148bc565b50505b505a61231e6149ce565b505050505015801561233d573d6000803e3d600061233a6148bc565b50505b505050506040513d602081101561235c576000806123596148bc565b50505b810190808051995061237192506128e2915050565b6001600160a01b03166332608039631cd554d160e21b6040516001600160e01b031960e084901b168152600481019190915260240160206040518083038186806123b9614982565b1580156123ce576000806123cb6148bc565b50505b505a6123d86149ce565b50505050501580156123f7573d6000803e3d60006123f46148bc565b50505b505050506040513d6020811015612416576000806124136148bc565b50505b8101908080516001600160a01b0316925063867904b491506124389050613b41565b6001600160a01b031663eb1edd616040518163ffffffff1660e01b8152600401602060405180830381868061246b614982565b1580156124805760008061247d6148bc565b50505b505a61248a6149ce565b50505050501580156124a9573d6000803e3d60006124a66148bc565b50505b505050506040513d60208110156124c8576000806124c56148bc565b50505b81019080805192508b915060409050516001600160e01b031960e085901b1681526001600160a01b039092166004830152602482015260440160006040518083038160008780612516614982565b15801561252b576000806125286148bc565b50505b505a612535614acd565b505050505050158015612555573d6000803e3d60006125526148bc565b50505b50505050612561613b41565b6001600160a01b03166322bf55ef886040516001600160e01b031960e084901b1681526004810191909152602401600060405180830381600087806125a4614982565b1580156125b9576000806125b66148bc565b50505b505a6125c3614acd565b5050505050501580156125e3573d6000803e3d60006125e06148bc565b50505b505050505b6125f06128e2565b6001600160a01b0316639e342f71604051604080820181528f8252602082018e9052516040808201815286825260208201869052516001600160e01b031960e085901b1681526004018083604080838360005b8381101561265b578082015183820152602001612643565b5050505090500182600260200280838360005b8381101561268657808201518382015260200161266e565b5050505090500192505050600060405180830381600087806126a6614982565b1580156126bb576000806126b86148bc565b50505b505a6126c5614acd565b5050505050501580156126e5573d6000803e3d60006126e26148bc565b50505b505050506126f1611e04565b6001600160a01b0316636c00f3108e8e878e8d8f6040516001600160e01b031960e089901b1681526001600160a01b039687166004820152602481019590955260448501939093526064840191909152608483015290911660a482015260c40160006040518083038160008780612766614982565b15801561277b576000806127786148bc565b50505b505a612785614acd565b5050505050501580156127a5573d6000803e3d60006127a26148bc565b50505b505050506127b7898d868d8c88613b8a565b5050505050505b9550959350505050565b6000821180156127e057506001600160a01b03811615155b80156127ef57506127ef61364a565b15610f86576127fc613e47565b6001600160a01b03166321cad77483836040516001600160e01b031960e085901b16815260048101929092526001600160a01b031660248201526044016000604051808303816000878061284e614982565b158015612863576000806128606148bc565b50505b505a61286d614acd565b505050505050158015611a6f573d6000803e3d600061288a6148bc565b5050505050505050565b6000610dbb6b53797374656d53746174757360a01b60405160408082019052601c81527f4d697373696e672053797374656d53746174757320616464726573730000000060208201526137dd565b6000610dbb6524b9b9bab2b960d11b6040516040808201905260168152754d697373696e6720497373756572206164647265737360501b60208201526137dd565b6000610dbb6c45786368616e6765526174657360981b60405160408082019052601d81527f4d697373696e672045786368616e67655261746573206164647265737300000060208201526137dd565b600081612981575060016107ce565b6000838152600560205260408120612997614927565b905080156129b1576129a98184613e97565b9150506107ce565b60606129bb612923565b6001600160a01b0316632d7371e18660046040516001600160e01b031960e085901b168152600481019290925260248201526044016000604051808303818680612a03614982565b158015612a1857600080612a156148bc565b50505b505a612a226149ce565b5050505050158015612a41573d6000803e3d6000612a3e6148bc565b50505b505050506040513d6000823e601f3d908101601f191682016040908152811015612a7357600080612a706148bc565b50505b8101908080516040519392919084640100000000821115612a9c57600080612a996148bc565b50505b908301906020820185811115612aba57600080612ab76148bc565b50505b8251866020820283011164010000000082111715612ae057600080612add6148bc565b50505b825250602001908051906020019060200280838360005b83811015612b0f578082015183820152602001612af7565b5050505090500160405260200180516040519392919084640100000000821115612b4157600080612b3e6148bc565b50505b908301906020820185811115612b5f57600080612b5c6148bc565b50505b8251866020820283011164010000000082111715612b8557600080612b826148bc565b50505b825250602001908051906020019060200280838360005b83811015612bb4578082015183820152602001612b9c565b505050509050016040525050505090506000600190505b8151811015612c28576000828281518110612be257fe5b6020026020010151118015612c0f5750612c0f828281518110612c0157fe5b602002602001015186613e97565b15612c2057600193505050506107ce565b600101612bcb565b50600095945050505050565b600080612c3f614927565b906101000a90046001600160a01b03166001600160a01b03165a612c61614a87565b6001600160a01b031614612cac5760405162461bcd60e51b815260040180806020018281038252602f815260200180614d61602f913960400191505060405180910390610f866148bc565b565b60008060006060612cbd611d46565b6001600160a01b031663b44e975387876040516001600160e01b031960e085901b1681526001600160a01b03909216600483015260248201526044016020604051808303818680612d0c614982565b158015612d2157600080612d1e6148bc565b50505b505a612d2b6149ce565b5050505050158015612d4a573d6000803e3d6000612d476148bc565b50505b505050506040513d6020811015612d6957600080612d666148bc565b50505b8101908080519450606092508491506040905051908082528060200260200182016040528015612db357816020015b612da0614c37565b815260200190600190039081612d985790505b50905060005b83811015612fcb57600080612dcc614c37565b612dd78b8b86613ef6565b9050600080612de583614068565b915091506000612df3612923565b6001600160a01b031663266da16b85518660200151876040015187876040516001600160e01b031960e088901b1681526004810195909552602485019390935260448401919091526064830152608482015260a4016020604051808303818680612e5b614982565b158015612e7057600080612e6d6148bc565b50505b505a612e7a6149ce565b5050505050158015612e99573d6000803e3d6000612e966148bc565b50505b505050506040513d6020811015612eb857600080612eb56148bc565b50505b810190808051935060009250612ed69150839050608087015161421f565b9050612ee6856060015182613e97565b612f5a578085606001511115612f2457612f0b8186606001519063ffffffff6138a616565b9650612f1d8d8863ffffffff61349516565b9c50612f5a565b8460600151811115612f5a57612f458560600151829063ffffffff6138a616565b9550612f578c8763ffffffff61349516565b9b505b6040516101008101604052808651815260200186602001518152602001866040015181526020018881526020018781526020018581526020018481526020018660a001519052898981518110612fac57fe5b6020026020010181905250505050505050508080600101915050612db9565b50905092959194509250565b60006107cb826142e8565b6000806000612ff18686610702565b156130365760405162461bcd60e51b8152600401808060200182810382526023815260200180614dd360239139604001915050604051809103906130336148bc565b50505b600080600060606130478a8a612cae565b93509350935093508284111561307957613067848463ffffffff6138a616565b96506130748a8a896143f6565b61309e565b8383111561309e57613091838563ffffffff6138a616565b955061309e8a8a8861459e565b87156131b957606060016040519080825280602002602001820160405280156130d1578160200160208202803883390190505b50905089816000815181106130e257fe5b6020026020010181815250506130f66128e2565b6001600160a01b031663fe1d77e7826040518263ffffffff1660e01b81526004018080602001828103825283818151815260200191508051906020019060200280838360005b8381101561315457808201518382015260200161313c565b505050509050019250505060006040518083038160008780613174614982565b158015613189576000806131866148bc565b50505b505a613193614acd565b5050505050501580156131b3573d6000803e3d60006131b06148bc565b50505b50505050505b60005b81518110156132fb578a6001600160a01b03167f8e3ad1f68bec55de3b6fa12ae2674a2a683a17c918a4cbf5157ac5d9ddc6e9408383815181106131fc57fe5b60200260200101515184848151811061321157fe5b60200260200101516020015185858151811061322957fe5b60200260200101516040015186868151811061324157fe5b60200260200101516060015187878151811061325957fe5b60200260200101516080015188888151811061327157fe5b602002602001015160a0015189898151811061328957fe5b602002602001015160c001518a8a815181106132a157fe5b602002602001015160e00151604051808981526020018881526020018781526020018681526020018581526020018481526020018381526020018281526020019850505050505050505060405180910390a26001016131bc565b50819450613307611d46565b6001600160a01b031663d0d3d62a8b8b6040516001600160e01b031960e085901b1681526001600160a01b039092166004830152602482015260440160006040518083038160008780613358614982565b15801561336d5760008061336a6148bc565b50505b505a613377614acd565b505050505050158015613397573d6000803e3d60006133946148bc565b50505b505050505050505093509350939050565b60006133b2614746565b6001600160a01b03166323257c2b6d53797374656d53657474696e677360901b7f7072696365446576696174696f6e5468726573686f6c64466163746f720000006040516001600160e01b031960e085901b16815260048101929092526024820152604401602060405180830381868061342a614982565b15801561343f5760008061343c6148bc565b50505b505a6134496149ce565b5050505050158015613468573d6000803e3d60006134656148bc565b50505b505050506040513d6020811015613487576000806134846148bc565b50505b810190808051935050505090565b6000828201838110156107cb5760405162461bcd60e51b815260206004820152601b60248201527f536166654d6174683a206164646974696f6e206f766572666c6f7700000000006044820152606401604051809103906134f46148bc565b50509392505050565b6000610dbb7044656c6567617465417070726f76616c7360781b604051606081016040526021808252614cfb60208301396137dd565b61353b611e04565b6001600160a01b031663ddd03a3f8484846040516001600160e01b031960e086901b1681526004810193909352602483019190915260448201526064016000604051808303816000878061358d614982565b1580156135a25760008061359f6148bc565b50505b505a6135ac614acd565b505050505050158015610c5a573d6000803e3d60006135c96148bc565b505050505050505050565b60006135de614746565b6001600160a01b03166323257c2b6d53797374656d53657474696e677360901b7077616974696e67506572696f645365637360781b6040516001600160e01b031960e085901b16815260048101929092526024820152604401602060405180830381868061342a614982565b6000613654614746565b6001600160a01b031663d994502d6d53797374656d53657474696e677360901b741d1c98591a5b99d4995dd85c991cd15b98589b1959605a1b6040516001600160e01b031960e085901b16815260048101929092526024820152604401602060405180830381868061342a614982565b6000806000806000806136d5612923565b6001600160a01b0316638295016a898b8a6040516001600160e01b031960e086901b1681526004810193909352602483019190915260448201526064016060604051808303818680613725614982565b15801561373a576000806137376148bc565b50505b505a6137446149ce565b5050505050158015613763573d6000803e3d60006137606148bc565b50505b505050506040513d60608110156137825760008061377f6148bc565b50505b810190808051929190602001805192919060200180519397509295509293506137b192508a9150899050612fd7565b93506137bd818561421f565b95506137cf818763ffffffff6138a616565b945050939792965093509350565b6000828152600360205280604081206000906137f7614927565b6001600160a01b036101009290920a9004169050828161389e5760405162461bcd60e51b81526004018080602001828103825283818151815260200191508051906020019080838360005b8381101561385a578082015183820152602001613842565b50505050905090810190601f1680156138875780820380516001836020036101000a031916815260200191505b50925050506040518091039061389b6148bc565b50505b509392505050565b6000828211156139055760405162461bcd60e51b815260206004820152601e60248201527f536166654d6174683a207375627472616374696f6e206f766572666c6f7700006044820152606401604051809103906139026148bc565b50505b50900390565b8083141561395e5760405162461bcd60e51b8152602060048201526013602482015272086c2dc4ee840c4ca40e6c2daca40e6f2dce8d606b1b60448201526064016040518091039061395b6148bc565b50505b600082116139a95760405162461bcd60e51b815260206004820152600b60248201526a16995c9bc8185b5bdd5b9d60aa1b6044820152606401604051809103906139a66148bc565b50505b606060026040519080825280602002602001820160405280156139d6578160200160208202803883390190505b50905083816000815181106139e757fe5b6020026020010181815250508181600181518110613a0157fe5b602002602001018181525050613a15612923565b6001600160a01b0316630a7d36d1826040518263ffffffff1660e01b81526004018080602001828103825283818151815260200191508051906020019060200280838360005b83811015613a73578082015183820152602001613a5b565b50505050905001925050506020604051808303818680613a91614982565b158015613aa657600080613aa36148bc565b50505b505a613ab06149ce565b5050505050158015613acf573d6000803e3d6000613acc6148bc565b50505b505050506040513d6020811015613aee57600080613aeb6148bc565b50505b810190808051159250613b3b9150505760405162461bcd60e51b8152600401808060200182810382526022815260200180614db16022913960400191505060405180910390611a6f6148bc565b50505050565b6000610dbb66119959541bdbdb60ca1b60405160408082019052601781527f4d697373696e6720466565506f6f6c206164647265737300000000000000000060208201526137dd565b6000613b94612923565b90506000816001600160a01b0316637a018a1e886040516001600160e01b031960e084901b16815260048101919091526024016020604051808303818680613bda614982565b158015613bef57600080613bec6148bc565b50505b505a613bf96149ce565b5050505050158015613c18573d6000803e3d6000613c156148bc565b50505b505050506040513d6020811015613c3757600080613c346148bc565b50505b81019080805193506000925050506001600160a01b038316637a018a1e876040516001600160e01b031960e084901b16815260048101919091526024016020604051808303818680613c87614982565b158015613c9c57600080613c996148bc565b50505b505a613ca66149ce565b5050505050158015613cc5573d6000803e3d6000613cc26148bc565b50505b505050506040513d6020811015613ce457600080613ce16148bc565b50505b8101908080519350613cf99250611d46915050565b6001600160a01b0316633ca9d85c8a8a8a8a8a8a5a613d16614bf1565b8a8a6040516001600160e01b031960e08c901b1681526001600160a01b0390991660048a0152602489019790975260448801959095526064870193909352608486019190915260a485015260c484015260e48301526101048201526101240160006040518083038160008780613d8a614982565b158015613d9f57600080613d9c6148bc565b50505b505a613da9614acd565b505050505050158015613dc9573d6000803e3d6000613dc66148bc565b50505b50505050886001600160a01b03167f62e40d554c7abcdd31074960d8347a2225daeb04d93bc748f049ba2ce94623988989898989888860405196875260208701959095526040808701949094526060860192909252608085015260a084015260c083019190915260e0909101905180910390a2505050505050505050565b6000610dbb6d54726164696e675265776172647360901b60405160408082019052601e81527f4d697373696e672054726164696e67526577617264732061646472657373000060208201526137dd565b6000821580613ea4575081155b15613eb1575060016107ce565b600083831115613ed257613ecb838563ffffffff61479716565b9050613ee5565b613ee2848463ffffffff61479716565b90505b613eed6133a8565b11159392505050565b613efe614c37565b600080600080600080600080613f12611d46565b6001600160a01b03166315987eb68d8d8d6040516001600160e01b031960e086901b1681526001600160a01b03909316600484015260248301919091526044820152606401610100604051808303818680613f6b614982565b158015613f8057600080613f7d6148bc565b50505b505a613f8a6149ce565b5050505050158015613fa9573d6000803e3d6000613fa66148bc565b50505b505050506040513d610100811015613fc957600080613fc66148bc565b50505b8101908080519291906020018051929190602001805192919060200180519291906020018051929190602001805192919060200180519291906020018051906020019092919050505097509750975097509750975097509750604051610100810160409081529881526020810197909752968601949094526060850192909252608084015260a083015260c082015260e0810191909152949350505050565b6000806000614075612923565b905060006140816135d4565b90506001600160a01b03821663109e46a286518760c001518860a00151856040516001600160e01b031960e087901b168152600481019490945260248401929092526044830152606482015260840160206040518083038186806140e3614982565b1580156140f8576000806140f56148bc565b50505b505a6141026149ce565b5050505050158015614121573d6000803e3d600061411e6148bc565b50505b505050506040513d60208110156141405760008061413d6148bc565b50505b810190808051965050506001600160a01b038316905063109e46a260408701518760e001518860a00151856040516001600160e01b031960e087901b168152600481019490945260248401929092526044830152606482015260840160206040518083038186806141af614982565b1580156141c4576000806141c16148bc565b50505b505a6141ce6149ce565b50505050501580156141ed573d6000803e3d60006141ea6148bc565b50505b505050506040513d602081101561420c576000806142096148bc565b50505b8101908080519698969750505050505050565b60006107cb6142db8373__$cc56be524fc9a50cd50be137f56c651270$__63907af6c06040518163ffffffff1660e01b81526004016020604051808303818680614267614982565b15801561427c576000806142796148bc565b50505b505a614286614c82565b50505050501580156142a5573d6000803e3d60006142a26148bc565b50505b505050506040513d60208110156142c4576000806142c16148bc565b50505b8101908080519392505063ffffffff6138a6169050565b849063ffffffff6147c116565b60006142f2614746565b6001600160a01b03166323257c2b6d53797374656d53657474696e677360901b6e65786368616e67654665655261746560881b856040516020018083815260200182815260200192505050604051602081830303815290604052805190602001206040516001600160e01b031960e085901b16815260048101929092526024820152604401602060405180830381868061438a614982565b15801561439f5760008061439c6148bc565b50505b505a6143a96149ce565b50505050501580156143c8573d6000803e3d60006143c56148bc565b50505b505050506040513d60208110156143e7576000806143e46148bc565b50505b81019080805195945050505050565b6143fe6128e2565b6001600160a01b03166332608039836040516001600160e01b031960e084901b1681526004810191909152602401602060405180830381868061443f614982565b158015614454576000806144516148bc565b50505b505a61445e6149ce565b505050505015801561447d573d6000803e3d600061447a6148bc565b50505b505050506040513d602081101561449c576000806144996148bc565b50505b8101908080516001600160a01b03169250639dc29fac9150859050836040516001600160e01b031960e085901b1681526001600160a01b0390921660048301526024820152604401600060405180830381600087806144f9614982565b15801561450e5760008061450b6148bc565b50505b505a614518614acd565b505050505050158015614538573d6000803e3d60006145356148bc565b50505b50505050614544611e04565b6001600160a01b031663ace88afd8484846040516001600160e01b031960e086901b1681526001600160a01b039093166004840152602483019190915260448201526064016000604051808303816000878061358d614982565b6145a66128e2565b6001600160a01b03166332608039836040516001600160e01b031960e084901b168152600481019190915260240160206040518083038186806145e7614982565b1580156145fc576000806145f96148bc565b50505b505a6146066149ce565b5050505050158015614625573d6000803e3d60006146226148bc565b50505b505050506040513d6020811015614644576000806146416148bc565b50505b8101908080516001600160a01b0316925063867904b49150859050836040516001600160e01b031960e085901b1681526001600160a01b0390921660048301526024820152604401600060405180830381600087806146a1614982565b1580156146b6576000806146b36148bc565b50505b505a6146c0614acd565b5050505050501580156146e0573d6000803e3d60006146dd6148bc565b50505b505050506146ec611e04565b6001600160a01b0316636f01a9868484846040516001600160e01b031960e086901b1681526001600160a01b039093166004840152602483019190915260448201526064016000604051808303816000878061358d614982565b6000610dbb6e466c657869626c6553746f7261676560881b60405160408082019052601f81527f4d697373696e6720466c657869626c6553746f7261676520616464726573730060208201526137dd565b60006107cb826147b585670de0b6b3a764000063ffffffff6147eb16565b9063ffffffff61484a16565b6000670de0b6b3a76400006147dc848463ffffffff6147eb16565b816147e357fe5b049392505050565b6000826147fa575060006107ce565b8282028284828161480757fe5b04146107cb5760405162461bcd60e51b8152600401808060200182810382526021815260200180614d9060219139604001915050604051809103906134f46148bc565b60008082116148a85760405162461bcd60e51b815260206004820152601a60248201527f536166654d6174683a206469766973696f6e206279207a65726f0000000000006044820152606401604051809103906148a56148bc565b50505b60008284816148b357fe5b04949350505050565b632a2a7adb598160e01b8152600481016020815285602082015260005b868110156148f45780860151828201604001526020016148d9565b506020828760640184336000905af158601d01573d60011458600c01573d6000803e3d621234565260ea61109c52505050565b6303daa959598160e01b8152836004820152602081602483336000905af158601d01573d60011458600c01573d6000803e3d621234565260ea61109c528051935060005b604081101561174b5760008282015260200161496b565b638435035b598160e01b8152836004820152602081602483336000905af158601d01573d60011458600c01573d6000803e3d621234565260ea61109c528051600082529350602061496b565b638540661f598160e01b8152836004820152846024820152606060448201528660648201526084810160005b88811015614a125780880151828201526020016149fa565b50876101040182016060838a6101040185336000905af158601d01573d60011458600c01573d6000803e3d621234565260ea61109c52825160408401513d6000863e8c8c82606088013350600060045af15059855b81811015614a7b5760008152602001614a67565b50919c50505050505050565b6373509064598160e01b8152602081600483336000905af158601d01573d60011458600c01573d6000803e3d621234565260ea61109c528051600082529350602061496b565b6385979f76598160e01b8152836004820152846024820152606060448201528760648201526084810160005b89811015614b11578089015182820152602001614af9565b50886101040182016060838b6101040185336000905af158601d01573d60011458600c01573d6000803e3d621234565260ea61109c52825160408401513d6000863e8d8d82606088013350600060045af15059855b81811015614b7a5760008152602001614b66565b50919d50505050505050565b6322bd64c0598160e01b8152836004820152846024820152600081604483336000905af158601d01573d60011458600c01573d6000803e3d621234565260ea61109c5260008152602061496b565b604051610300808201604052601890829080388339509192915050565b63bdbf8c36598160e01b8152602081600483336000905af158601d01573d60011458600c01573d6000803e3d621234565260ea61109c528051600082529350602061496b565b60405180610100016040528060008019168152602001600081526020016000801916815260200160008152602001600081526020016000815260200160008152602001600081525090565b63ffe73914598160e01b81528360048201528460248201526060604482015286606482015260848101600088811015614a125780880151828201526020016149fa56fe596f75206d757374206265206e6f6d696e61746564206265666f726520796f752063616e20616363657074206f776e6572736869704d697373696e672044656c6567617465417070726f76616c73206164647265737345786368616e6765723a204f6e6c792073796e746865746978206f7220612073796e746820636f6e74726163742063616e20706572666f726d207468697320616374696f6e4f6e6c792074686520636f6e7472616374206f776e6572206d617920706572666f726d207468697320616374696f6e536166654d6174683a206d756c7469706c69636174696f6e206f766572666c6f775372632f64657374207261746520696e76616c6964206f72206e6f7420666f756e6443616e6e6f7420736574746c6520647572696e672077616974696e6720706572696f64",
			"opcodes": "PUSH1 0x80 PUSH1 0x40 MSTORE CALLVALUE DUP1 ISZERO PUSH2 0x19 JUMPI PUSH1 0x0 DUP1 PUSH2 0x16 PUSH2 0x48BC JUMP JUMPDEST POP POP JUMPDEST POP PUSH1 0x4 CALLDATASIZE LT PUSH2 0x1D8 JUMPI PUSH1 0x0 CALLDATALOAD PUSH1 0xE0 SHR DUP1 PUSH4 0x631E1444 GT PUSH2 0x10D JUMPI DUP1 PUSH4 0xAB49848C GT PUSH2 0xAB JUMPI DUP1 PUSH4 0xD6F32E06 GT PUSH2 0x7A JUMPI DUP1 PUSH4 0xD6F32E06 EQ PUSH2 0x61B JUMPI DUP1 PUSH4 0xDFFFCA76 EQ PUSH2 0x650 JUMPI DUP1 PUSH4 0xE3235C91 EQ PUSH2 0x6A9 JUMPI DUP1 PUSH4 0xF450AA34 EQ PUSH2 0x6B1 JUMPI PUSH2 0x1D8 JUMP JUMPDEST DUP1 PUSH4 0xAB49848C EQ PUSH2 0x580 JUMPI DUP1 PUSH4 0xC193F0D8 EQ PUSH2 0x5C1 JUMPI DUP1 PUSH4 0xC6C9D828 EQ PUSH2 0x5C9 JUMPI DUP1 PUSH4 0xCE096940 EQ PUSH2 0x5EF JUMPI PUSH2 0x1D8 JUMP JUMPDEST DUP1 PUSH4 0x7DD1A57A GT PUSH2 0xE7 JUMPI DUP1 PUSH4 0x7DD1A57A EQ PUSH2 0x4F1 JUMPI DUP1 PUSH4 0x86BAA45C EQ PUSH2 0x517 JUMPI DUP1 PUSH4 0x89257117 EQ PUSH2 0x570 JUMPI DUP1 PUSH4 0x8DA5CB5B EQ PUSH2 0x578 JUMPI PUSH2 0x1D8 JUMP JUMPDEST DUP1 PUSH4 0x631E1444 EQ PUSH2 0x46F JUMPI DUP1 PUSH4 0x6A1C4758 EQ PUSH2 0x49E JUMPI DUP1 PUSH4 0x79BA5097 EQ PUSH2 0x4E9 JUMPI PUSH2 0x1D8 JUMP JUMPDEST DUP1 PUSH4 0x1B16802C GT PUSH2 0x17A JUMPI DUP1 PUSH4 0x3FA70F45 GT PUSH2 0x154 JUMPI DUP1 PUSH4 0x3FA70F45 EQ PUSH2 0x3E4 JUMPI DUP1 PUSH4 0x4C268FC8 EQ PUSH2 0x3EC JUMPI DUP1 PUSH4 0x53A47BB7 EQ PUSH2 0x42D JUMPI DUP1 PUSH4 0x57AF302C EQ PUSH2 0x435 JUMPI PUSH2 0x1D8 JUMP JUMPDEST DUP1 PUSH4 0x1B16802C EQ PUSH2 0x378 JUMPI DUP1 PUSH4 0x372A395A EQ PUSH2 0x3AD JUMPI DUP1 PUSH4 0x3BE99E6F EQ PUSH2 0x3B5 JUMPI PUSH2 0x1D8 JUMP JUMPDEST DUP1 PUSH4 0xB9E31C9 GT PUSH2 0x1B6 JUMPI DUP1 PUSH4 0xB9E31C9 EQ PUSH2 0x29C JUMPI DUP1 PUSH4 0x1627540C EQ PUSH2 0x2C4 JUMPI DUP1 PUSH4 0x19D5C665 EQ PUSH2 0x2F3 JUMPI DUP1 PUSH4 0x1A5C6095 EQ PUSH2 0x34C JUMPI PUSH2 0x1D8 JUMP JUMPDEST DUP1 PUSH4 0x4F3BCEC EQ PUSH2 0x1E6 JUMPI DUP1 PUSH4 0x59C29EC EQ PUSH2 0x20A JUMPI DUP1 PUSH4 0xA1E187D EQ PUSH2 0x251 JUMPI JUMPDEST PUSH1 0x0 DUP1 PUSH2 0x1E3 PUSH2 0x48BC JUMP JUMPDEST POP POP JUMPDEST PUSH2 0x1EE PUSH2 0x6E3 JUMP JUMPDEST PUSH1 0x40 MLOAD PUSH1 0x1 PUSH1 0x1 PUSH1 0xA0 SHL SUB SWAP1 SWAP2 AND DUP2 MSTORE PUSH1 0x20 ADD PUSH1 0x40 MLOAD DUP1 SWAP2 SUB SWAP1 RETURN JUMPDEST PUSH2 0x23F PUSH1 0x4 DUP1 CALLDATASIZE SUB PUSH1 0x40 DUP2 LT ISZERO PUSH2 0x229 JUMPI PUSH1 0x0 DUP1 PUSH2 0x226 PUSH2 0x48BC JUMP JUMPDEST POP POP JUMPDEST POP PUSH1 0x1 PUSH1 0x1 PUSH1 0xA0 SHL SUB DUP2 CALLDATALOAD AND SWAP1 PUSH1 0x20 ADD CALLDATALOAD PUSH2 0x702 JUMP JUMPDEST PUSH1 0x40 MLOAD SWAP1 DUP2 MSTORE PUSH1 0x20 ADD PUSH1 0x40 MLOAD DUP1 SWAP2 SUB SWAP1 RETURN JUMPDEST PUSH2 0x23F PUSH1 0x4 DUP1 CALLDATASIZE SUB PUSH1 0xA0 DUP2 LT ISZERO PUSH2 0x270 JUMPI PUSH1 0x0 DUP1 PUSH2 0x26D PUSH2 0x48BC JUMP JUMPDEST POP POP JUMPDEST POP PUSH1 0x1 PUSH1 0x1 PUSH1 0xA0 SHL SUB DUP2 CALLDATALOAD DUP2 AND SWAP2 PUSH1 0x20 DUP2 ADD CALLDATALOAD SWAP2 PUSH1 0x40 DUP3 ADD CALLDATALOAD SWAP2 PUSH1 0x60 DUP2 ADD CALLDATALOAD SWAP2 PUSH1 0x80 SWAP1 SWAP2 ADD CALLDATALOAD AND PUSH2 0x7D4 JUMP JUMPDEST PUSH2 0x2C2 PUSH1 0x4 DUP1 CALLDATASIZE SUB PUSH1 0x20 DUP2 LT ISZERO PUSH2 0x2BB JUMPI PUSH1 0x0 DUP1 PUSH2 0x2B8 PUSH2 0x48BC JUMP JUMPDEST POP POP JUMPDEST POP CALLDATALOAD PUSH2 0x932 JUMP JUMPDEST STOP JUMPDEST PUSH2 0x2C2 PUSH1 0x4 DUP1 CALLDATASIZE SUB PUSH1 0x20 DUP2 LT ISZERO PUSH2 0x2E3 JUMPI PUSH1 0x0 DUP1 PUSH2 0x2E0 PUSH2 0x48BC JUMP JUMPDEST POP POP JUMPDEST POP CALLDATALOAD PUSH1 0x1 PUSH1 0x1 PUSH1 0xA0 SHL SUB AND PUSH2 0xC64 JUMP JUMPDEST PUSH2 0x328 PUSH1 0x4 DUP1 CALLDATASIZE SUB PUSH1 0x40 DUP2 LT ISZERO PUSH2 0x312 JUMPI PUSH1 0x0 DUP1 PUSH2 0x30F PUSH2 0x48BC JUMP JUMPDEST POP POP JUMPDEST POP PUSH1 0x1 PUSH1 0x1 PUSH1 0xA0 SHL SUB DUP2 CALLDATALOAD AND SWAP1 PUSH1 0x20 ADD CALLDATALOAD PUSH2 0xCDE JUMP JUMPDEST PUSH1 0x40 MLOAD DUP1 DUP5 DUP2 MSTORE PUSH1 0x20 ADD DUP4 DUP2 MSTORE PUSH1 0x20 ADD DUP3 DUP2 MSTORE PUSH1 0x20 ADD SWAP4 POP POP POP POP PUSH1 0x40 MLOAD DUP1 SWAP2 SUB SWAP1 RETURN JUMPDEST PUSH2 0x23F PUSH1 0x4 DUP1 CALLDATASIZE SUB PUSH1 0x40 DUP2 LT ISZERO PUSH2 0x36B JUMPI PUSH1 0x0 DUP1 PUSH2 0x368 PUSH2 0x48BC JUMP JUMPDEST POP POP JUMPDEST POP DUP1 CALLDATALOAD SWAP1 PUSH1 0x20 ADD CALLDATALOAD PUSH2 0xCFC JUMP JUMPDEST PUSH2 0x328 PUSH1 0x4 DUP1 CALLDATASIZE SUB PUSH1 0x40 DUP2 LT ISZERO PUSH2 0x397 JUMPI PUSH1 0x0 DUP1 PUSH2 0x394 PUSH2 0x48BC JUMP JUMPDEST POP POP JUMPDEST POP PUSH1 0x1 PUSH1 0x1 PUSH1 0xA0 SHL SUB DUP2 CALLDATALOAD AND SWAP1 PUSH1 0x20 ADD CALLDATALOAD PUSH2 0xD08 JUMP JUMPDEST PUSH2 0x23F PUSH2 0xDB1 JUMP JUMPDEST PUSH2 0x2C2 PUSH1 0x4 DUP1 CALLDATASIZE SUB PUSH1 0x20 DUP2 LT ISZERO PUSH2 0x3D4 JUMPI PUSH1 0x0 DUP1 PUSH2 0x3D1 PUSH2 0x48BC JUMP JUMPDEST POP POP JUMPDEST POP CALLDATALOAD PUSH1 0x1 PUSH1 0x1 PUSH1 0xA0 SHL SUB AND PUSH2 0xDC0 JUMP JUMPDEST PUSH2 0x23F PUSH2 0xF8A JUMP JUMPDEST PUSH2 0x23F PUSH1 0x4 DUP1 CALLDATASIZE SUB PUSH1 0x80 DUP2 LT ISZERO PUSH2 0x40B JUMPI PUSH1 0x0 DUP1 PUSH2 0x408 PUSH2 0x48BC JUMP JUMPDEST POP POP JUMPDEST POP PUSH1 0x1 PUSH1 0x1 PUSH1 0xA0 SHL SUB DUP2 CALLDATALOAD AND SWAP1 PUSH1 0x20 DUP2 ADD CALLDATALOAD SWAP1 PUSH1 0x40 DUP2 ADD CALLDATALOAD SWAP1 PUSH1 0x60 ADD CALLDATALOAD PUSH2 0xF8F JUMP JUMPDEST PUSH2 0x1EE PUSH2 0x1123 JUMP JUMPDEST PUSH2 0x45B PUSH1 0x4 DUP1 CALLDATASIZE SUB PUSH1 0x20 DUP2 LT ISZERO PUSH2 0x454 JUMPI PUSH1 0x0 DUP1 PUSH2 0x451 PUSH2 0x48BC JUMP JUMPDEST POP POP JUMPDEST POP CALLDATALOAD PUSH2 0x112F JUMP JUMPDEST PUSH1 0x40 MLOAD SWAP1 ISZERO ISZERO DUP2 MSTORE PUSH1 0x20 ADD PUSH1 0x40 MLOAD DUP1 SWAP2 SUB SWAP1 RETURN JUMPDEST PUSH2 0x45B PUSH1 0x4 DUP1 CALLDATASIZE SUB PUSH1 0x20 DUP2 LT ISZERO PUSH2 0x48E JUMPI PUSH1 0x0 DUP1 PUSH2 0x48B PUSH2 0x48BC JUMP JUMPDEST POP POP JUMPDEST POP CALLDATALOAD PUSH1 0x1 PUSH1 0x1 PUSH1 0xA0 SHL SUB AND PUSH2 0x1186 JUMP JUMPDEST PUSH2 0x23F PUSH1 0x4 DUP1 CALLDATASIZE SUB PUSH1 0xA0 DUP2 LT ISZERO PUSH2 0x4BD JUMPI PUSH1 0x0 DUP1 PUSH2 0x4BA PUSH2 0x48BC JUMP JUMPDEST POP POP JUMPDEST POP PUSH1 0x1 PUSH1 0x1 PUSH1 0xA0 SHL SUB DUP2 CALLDATALOAD DUP2 AND SWAP2 PUSH1 0x20 DUP2 ADD CALLDATALOAD SWAP1 SWAP2 AND SWAP1 PUSH1 0x40 DUP2 ADD CALLDATALOAD SWAP1 PUSH1 0x60 DUP2 ADD CALLDATALOAD SWAP1 PUSH1 0x80 ADD CALLDATALOAD PUSH2 0x1360 JUMP JUMPDEST PUSH2 0x2C2 PUSH2 0x15CD JUMP JUMPDEST PUSH2 0x23F PUSH1 0x4 DUP1 CALLDATASIZE SUB PUSH1 0x20 DUP2 LT ISZERO PUSH2 0x510 JUMPI PUSH1 0x0 DUP1 PUSH2 0x50D PUSH2 0x48BC JUMP JUMPDEST POP POP JUMPDEST POP CALLDATALOAD PUSH2 0x1750 JUMP JUMPDEST PUSH2 0x23F PUSH1 0x4 DUP1 CALLDATASIZE SUB PUSH1 0xE0 DUP2 LT ISZERO PUSH2 0x536 JUMPI PUSH1 0x0 DUP1 PUSH2 0x533 PUSH2 0x48BC JUMP JUMPDEST POP POP JUMPDEST POP PUSH1 0x1 PUSH1 0x1 PUSH1 0xA0 SHL SUB DUP2 CALLDATALOAD DUP2 AND SWAP2 PUSH1 0x20 DUP2 ADD CALLDATALOAD SWAP2 PUSH1 0x40 DUP3 ADD CALLDATALOAD SWAP2 PUSH1 0x60 DUP2 ADD CALLDATALOAD SWAP2 PUSH1 0x80 DUP3 ADD CALLDATALOAD DUP2 AND SWAP2 PUSH1 0xA0 DUP2 ADD CALLDATALOAD SWAP1 SWAP2 AND SWAP1 PUSH1 0xC0 ADD CALLDATALOAD PUSH2 0x176B JUMP JUMPDEST PUSH2 0x23F PUSH2 0x18D6 JUMP JUMPDEST PUSH2 0x1EE PUSH2 0x18E0 JUMP JUMPDEST PUSH2 0x588 PUSH2 0x18EB JUMP JUMPDEST PUSH1 0x40 MLOAD DUP1 DUP3 PUSH2 0x300 DUP1 DUP4 DUP4 PUSH1 0x0 JUMPDEST DUP4 DUP2 LT ISZERO PUSH2 0x5AE JUMPI DUP1 DUP3 ADD MLOAD DUP4 DUP3 ADD MSTORE PUSH1 0x20 ADD PUSH2 0x596 JUMP JUMPDEST POP POP POP POP SWAP1 POP ADD SWAP2 POP POP PUSH1 0x40 MLOAD DUP1 SWAP2 SUB SWAP1 RETURN JUMPDEST PUSH2 0x45B PUSH2 0x194D JUMP JUMPDEST PUSH2 0x23F PUSH1 0x4 DUP1 CALLDATASIZE SUB PUSH1 0x20 DUP2 LT ISZERO PUSH2 0x5E8 JUMPI PUSH1 0x0 DUP1 PUSH2 0x5E5 PUSH2 0x48BC JUMP JUMPDEST POP POP JUMPDEST POP CALLDATALOAD PUSH2 0x1957 JUMP JUMPDEST PUSH2 0x2C2 PUSH1 0x4 DUP1 CALLDATASIZE SUB PUSH1 0x40 DUP2 LT ISZERO PUSH2 0x60E JUMPI PUSH1 0x0 DUP1 PUSH2 0x60B PUSH2 0x48BC JUMP JUMPDEST POP POP JUMPDEST POP DUP1 CALLDATALOAD SWAP1 PUSH1 0x20 ADD CALLDATALOAD PUSH2 0x197F JUMP JUMPDEST PUSH2 0x45B PUSH1 0x4 DUP1 CALLDATASIZE SUB PUSH1 0x40 DUP2 LT ISZERO PUSH2 0x63A JUMPI PUSH1 0x0 DUP1 PUSH2 0x637 PUSH2 0x48BC JUMP JUMPDEST POP POP JUMPDEST POP PUSH1 0x1 PUSH1 0x1 PUSH1 0xA0 SHL SUB DUP2 CALLDATALOAD AND SWAP1 PUSH1 0x20 ADD CALLDATALOAD PUSH2 0x1A77 JUMP JUMPDEST PUSH2 0x23F PUSH1 0x4 DUP1 CALLDATASIZE SUB PUSH1 0xE0 DUP2 LT ISZERO PUSH2 0x66F JUMPI PUSH1 0x0 DUP1 PUSH2 0x66C PUSH2 0x48BC JUMP JUMPDEST POP POP JUMPDEST POP PUSH1 0x1 PUSH1 0x1 PUSH1 0xA0 SHL SUB DUP2 CALLDATALOAD DUP2 AND SWAP2 PUSH1 0x20 DUP2 ADD CALLDATALOAD DUP3 AND SWAP2 PUSH1 0x40 DUP3 ADD CALLDATALOAD SWAP2 PUSH1 0x60 DUP2 ADD CALLDATALOAD SWAP2 PUSH1 0x80 DUP3 ADD CALLDATALOAD SWAP2 PUSH1 0xA0 DUP2 ADD CALLDATALOAD SWAP1 SWAP2 AND SWAP1 PUSH1 0xC0 ADD CALLDATALOAD PUSH2 0x1AA9 JUMP JUMPDEST PUSH2 0x23F PUSH2 0x1D21 JUMP JUMPDEST PUSH2 0x328 PUSH1 0x4 DUP1 CALLDATASIZE SUB PUSH1 0x60 DUP2 LT ISZERO PUSH2 0x6D0 JUMPI PUSH1 0x0 DUP1 PUSH2 0x6CD PUSH2 0x48BC JUMP JUMPDEST POP POP JUMPDEST POP DUP1 CALLDATALOAD SWAP1 PUSH1 0x20 DUP2 ADD CALLDATALOAD SWAP1 PUSH1 0x40 ADD CALLDATALOAD PUSH2 0x1D26 JUMP JUMPDEST PUSH1 0x0 PUSH1 0x2 PUSH2 0x6EF PUSH2 0x4927 JUMP JUMPDEST SWAP1 PUSH2 0x100 EXP SWAP1 DIV PUSH1 0x1 PUSH1 0x1 PUSH1 0xA0 SHL SUB AND DUP2 JUMP JUMPDEST PUSH1 0x0 PUSH2 0x7CB PUSH2 0x70F PUSH2 0x1D46 JUMP JUMPDEST PUSH1 0x1 PUSH1 0x1 PUSH1 0xA0 SHL SUB AND PUSH4 0xF1406DC8 DUP6 DUP6 PUSH1 0x40 MLOAD PUSH1 0x1 PUSH1 0x1 PUSH1 0xE0 SHL SUB NOT PUSH1 0xE0 DUP6 SWAP1 SHL AND DUP2 MSTORE PUSH1 0x1 PUSH1 0x1 PUSH1 0xA0 SHL SUB SWAP1 SWAP3 AND PUSH1 0x4 DUP4 ADD MSTORE PUSH1 0x24 DUP3 ADD MSTORE PUSH1 0x44 ADD PUSH1 0x20 PUSH1 0x40 MLOAD DUP1 DUP4 SUB DUP2 DUP7 DUP1 PUSH2 0x75E PUSH2 0x4982 JUMP JUMPDEST ISZERO DUP1 ISZERO PUSH2 0x773 JUMPI PUSH1 0x0 DUP1 PUSH2 0x770 PUSH2 0x48BC JUMP JUMPDEST POP POP JUMPDEST POP GAS PUSH2 0x77D PUSH2 0x49CE JUMP JUMPDEST POP POP POP POP POP ISZERO DUP1 ISZERO PUSH2 0x79C JUMPI RETURNDATASIZE PUSH1 0x0 DUP1 RETURNDATACOPY RETURNDATASIZE PUSH1 0x0 PUSH2 0x799 PUSH2 0x48BC JUMP JUMPDEST POP POP JUMPDEST POP POP POP POP PUSH1 0x40 MLOAD RETURNDATASIZE PUSH1 0x20 DUP2 LT ISZERO PUSH2 0x7BB JUMPI PUSH1 0x0 DUP1 PUSH2 0x7B8 PUSH2 0x48BC JUMP JUMPDEST POP POP JUMPDEST DUP2 ADD SWAP1 DUP1 DUP1 MLOAD SWAP3 POP PUSH2 0x1D95 SWAP2 POP POP JUMP JUMPDEST SWAP1 POP JUMPDEST SWAP3 SWAP2 POP POP JUMP JUMPDEST PUSH1 0x0 DUP1 PUSH2 0x7DF PUSH2 0x1E04 JUMP JUMPDEST SWAP1 POP DUP1 PUSH1 0x1 PUSH1 0x1 PUSH1 0xA0 SHL SUB AND GAS PUSH2 0x7F4 PUSH2 0x4A87 JUMP JUMPDEST PUSH1 0x1 PUSH1 0x1 PUSH1 0xA0 SHL SUB AND EQ DUP1 PUSH2 0x8C5 JUMPI POP PUSH1 0x0 PUSH1 0x1 PUSH1 0x1 PUSH1 0xA0 SHL SUB DUP3 AND PUSH4 0x16B2213F GAS PUSH2 0x81E PUSH2 0x4A87 JUMP JUMPDEST PUSH1 0x40 MLOAD PUSH1 0x1 PUSH1 0x1 PUSH1 0xE0 SHL SUB NOT PUSH1 0xE0 DUP5 SWAP1 SHL AND DUP2 MSTORE PUSH1 0x1 PUSH1 0x1 PUSH1 0xA0 SHL SUB SWAP1 SWAP2 AND PUSH1 0x4 DUP3 ADD MSTORE PUSH1 0x24 ADD PUSH1 0x20 PUSH1 0x40 MLOAD DUP1 DUP4 SUB DUP2 DUP7 DUP1 PUSH2 0x858 PUSH2 0x4982 JUMP JUMPDEST ISZERO DUP1 ISZERO PUSH2 0x86D JUMPI PUSH1 0x0 DUP1 PUSH2 0x86A PUSH2 0x48BC JUMP JUMPDEST POP POP JUMPDEST POP GAS PUSH2 0x877 PUSH2 0x49CE JUMP JUMPDEST POP POP POP POP POP ISZERO DUP1 ISZERO PUSH2 0x896 JUMPI RETURNDATASIZE PUSH1 0x0 DUP1 RETURNDATACOPY RETURNDATASIZE PUSH1 0x0 PUSH2 0x893 PUSH2 0x48BC JUMP JUMPDEST POP POP JUMPDEST POP POP POP POP PUSH1 0x40 MLOAD RETURNDATASIZE PUSH1 0x20 DUP2 LT ISZERO PUSH2 0x8B5 JUMPI PUSH1 0x0 DUP1 PUSH2 0x8B2 PUSH2 0x48BC JUMP JUMPDEST POP POP JUMPDEST DUP2 ADD SWAP1 DUP1 DUP1 MLOAD SWAP4 SWAP1 SWAP4 EQ ISZERO SWAP3 POP POP POP JUMPDEST PUSH2 0x909 JUMPI PUSH1 0x40 MLOAD PUSH3 0x461BCD PUSH1 0xE5 SHL DUP2 MSTORE PUSH1 0x4 ADD DUP1 DUP1 PUSH1 0x20 ADD DUP3 DUP2 SUB DUP3 MSTORE PUSH1 0x45 DUP2 MSTORE PUSH1 0x20 ADD DUP1 PUSH2 0x4D1C PUSH1 0x45 SWAP2 CODECOPY PUSH1 0x60 ADD SWAP2 POP POP PUSH1 0x40 MLOAD DUP1 SWAP2 SUB SWAP1 PUSH2 0x906 PUSH2 0x48BC JUMP JUMPDEST POP POP JUMPDEST PUSH1 0x0 PUSH2 0x918 DUP9 DUP9 DUP9 DUP9 DUP9 PUSH2 0x1E4F JUMP JUMPDEST SWAP1 SWAP4 POP SWAP1 POP PUSH2 0x927 DUP2 DUP6 PUSH2 0x27C8 JUMP JUMPDEST POP POP SWAP6 SWAP5 POP POP POP POP POP JUMP JUMPDEST PUSH2 0x93A PUSH2 0x2894 JUMP JUMPDEST PUSH1 0x1 PUSH1 0x1 PUSH1 0xA0 SHL SUB AND PUSH4 0x86DABD1 PUSH1 0x40 MLOAD DUP2 PUSH4 0xFFFFFFFF AND PUSH1 0xE0 SHL DUP2 MSTORE PUSH1 0x4 ADD PUSH1 0x0 PUSH1 0x40 MLOAD DUP1 DUP4 SUB DUP2 DUP7 DUP1 PUSH2 0x96D PUSH2 0x4982 JUMP JUMPDEST ISZERO DUP1 ISZERO PUSH2 0x982 JUMPI PUSH1 0x0 DUP1 PUSH2 0x97F PUSH2 0x48BC JUMP JUMPDEST POP POP JUMPDEST POP GAS PUSH2 0x98C PUSH2 0x49CE JUMP JUMPDEST POP POP POP POP POP ISZERO DUP1 ISZERO PUSH2 0x9AB JUMPI RETURNDATASIZE PUSH1 0x0 DUP1 RETURNDATACOPY RETURNDATASIZE PUSH1 0x0 PUSH2 0x9A8 PUSH2 0x48BC JUMP JUMPDEST POP POP JUMPDEST POP POP POP POP PUSH1 0x0 PUSH1 0x1 PUSH1 0x1 PUSH1 0xA0 SHL SUB AND PUSH2 0x9C2 PUSH2 0x28E2 JUMP JUMPDEST PUSH1 0x1 PUSH1 0x1 PUSH1 0xA0 SHL SUB AND PUSH4 0x32608039 DUP4 PUSH1 0x40 MLOAD PUSH1 0x1 PUSH1 0x1 PUSH1 0xE0 SHL SUB NOT PUSH1 0xE0 DUP5 SWAP1 SHL AND DUP2 MSTORE PUSH1 0x4 DUP2 ADD SWAP2 SWAP1 SWAP2 MSTORE PUSH1 0x24 ADD PUSH1 0x20 PUSH1 0x40 MLOAD DUP1 DUP4 SUB DUP2 DUP7 DUP1 PUSH2 0xA03 PUSH2 0x4982 JUMP JUMPDEST ISZERO DUP1 ISZERO PUSH2 0xA18 JUMPI PUSH1 0x0 DUP1 PUSH2 0xA15 PUSH2 0x48BC JUMP JUMPDEST POP POP JUMPDEST POP GAS PUSH2 0xA22 PUSH2 0x49CE JUMP JUMPDEST POP POP POP POP POP ISZERO DUP1 ISZERO PUSH2 0xA41 JUMPI RETURNDATASIZE PUSH1 0x0 DUP1 RETURNDATACOPY RETURNDATASIZE PUSH1 0x0 PUSH2 0xA3E PUSH2 0x48BC JUMP JUMPDEST POP POP JUMPDEST POP POP POP POP PUSH1 0x40 MLOAD RETURNDATASIZE PUSH1 0x20 DUP2 LT ISZERO PUSH2 0xA60 JUMPI PUSH1 0x0 DUP1 PUSH2 0xA5D PUSH2 0x48BC JUMP JUMPDEST POP POP JUMPDEST DUP2 ADD SWAP1 DUP1 DUP1 MLOAD PUSH1 0x1 PUSH1 0x1 PUSH1 0xA0 SHL SUB AND SWAP4 SWAP1 SWAP4 EQ ISZERO SWAP3 POP PUSH2 0xAC2 SWAP2 POP POP JUMPI PUSH1 0x40 MLOAD PUSH3 0x461BCD PUSH1 0xE5 SHL DUP2 MSTORE PUSH1 0x20 PUSH1 0x4 DUP3 ADD MSTORE PUSH1 0xD PUSH1 0x24 DUP3 ADD MSTORE PUSH13 0x9CDE40E6EAC6D040E6F2DCE8D PUSH1 0x9B SHL PUSH1 0x44 DUP3 ADD MSTORE PUSH1 0x64 ADD PUSH1 0x40 MLOAD DUP1 SWAP2 SUB SWAP1 PUSH2 0xABF PUSH2 0x48BC JUMP JUMPDEST POP POP JUMPDEST PUSH2 0xB7C DUP2 PUSH2 0xACE PUSH2 0x2923 JUMP JUMPDEST PUSH1 0x1 PUSH1 0x1 PUSH1 0xA0 SHL SUB AND PUSH4 0xAC82F608 DUP5 PUSH1 0x40 MLOAD PUSH1 0x1 PUSH1 0x1 PUSH1 0xE0 SHL SUB NOT PUSH1 0xE0 DUP5 SWAP1 SHL AND DUP2 MSTORE PUSH1 0x4 DUP2 ADD SWAP2 SWAP1 SWAP2 MSTORE PUSH1 0x24 ADD PUSH1 0x20 PUSH1 0x40 MLOAD DUP1 DUP4 SUB DUP2 DUP7 DUP1 PUSH2 0xB0F PUSH2 0x4982 JUMP JUMPDEST ISZERO DUP1 ISZERO PUSH2 0xB24 JUMPI PUSH1 0x0 DUP1 PUSH2 0xB21 PUSH2 0x48BC JUMP JUMPDEST POP POP JUMPDEST POP GAS PUSH2 0xB2E PUSH2 0x49CE JUMP JUMPDEST POP POP POP POP POP ISZERO DUP1 ISZERO PUSH2 0xB4D JUMPI RETURNDATASIZE PUSH1 0x0 DUP1 RETURNDATACOPY RETURNDATASIZE PUSH1 0x0 PUSH2 0xB4A PUSH2 0x48BC JUMP JUMPDEST POP POP JUMPDEST POP POP POP POP PUSH1 0x40 MLOAD RETURNDATASIZE PUSH1 0x20 DUP2 LT ISZERO PUSH2 0xB6C JUMPI PUSH1 0x0 DUP1 PUSH2 0xB69 PUSH2 0x48BC JUMP JUMPDEST POP POP JUMPDEST DUP2 ADD SWAP1 DUP1 DUP1 MLOAD SWAP3 POP PUSH2 0x2972 SWAP2 POP POP JUMP JUMPDEST PUSH2 0xBCC JUMPI PUSH1 0x40 MLOAD PUSH3 0x461BCD PUSH1 0xE5 SHL DUP2 MSTORE PUSH1 0x20 PUSH1 0x4 DUP3 ADD MSTORE PUSH1 0x14 PUSH1 0x24 DUP3 ADD MSTORE PUSH20 0x14DE5B9D1A081C1C9A58D9481A5CC81D985B1A59 PUSH1 0x62 SHL PUSH1 0x44 DUP3 ADD MSTORE PUSH1 0x64 ADD PUSH1 0x40 MLOAD DUP1 SWAP2 SUB SWAP1 PUSH2 0xBC9 PUSH2 0x48BC JUMP JUMPDEST POP POP JUMPDEST PUSH2 0xBD4 PUSH2 0x2894 JUMP JUMPDEST PUSH1 0x1 PUSH1 0x1 PUSH1 0xA0 SHL SUB AND PUSH4 0xABC0BB6E DUP3 PUSH1 0x41 PUSH1 0x40 MLOAD PUSH1 0x1 PUSH1 0x1 PUSH1 0xE0 SHL SUB NOT PUSH1 0xE0 DUP6 SWAP1 SHL AND DUP2 MSTORE PUSH1 0x4 DUP2 ADD SWAP3 SWAP1 SWAP3 MSTORE PUSH1 0x24 DUP3 ADD MSTORE PUSH1 0x44 ADD PUSH1 0x0 PUSH1 0x40 MLOAD DUP1 DUP4 SUB DUP2 PUSH1 0x0 DUP8 DUP1 PUSH2 0xC1E PUSH2 0x4982 JUMP JUMPDEST ISZERO DUP1 ISZERO PUSH2 0xC33 JUMPI PUSH1 0x0 DUP1 PUSH2 0xC30 PUSH2 0x48BC JUMP JUMPDEST POP POP JUMPDEST POP GAS PUSH2 0xC3D PUSH2 0x4ACD JUMP JUMPDEST POP POP POP POP POP POP ISZERO DUP1 ISZERO PUSH2 0xC5D JUMPI RETURNDATASIZE PUSH1 0x0 DUP1 RETURNDATACOPY RETURNDATASIZE PUSH1 0x0 PUSH2 0xC5A PUSH2 0x48BC JUMP JUMPDEST POP POP JUMPDEST POP POP POP POP POP JUMP JUMPDEST PUSH2 0xC6C PUSH2 0x2C34 JUMP JUMPDEST DUP1 PUSH1 0x1 DUP1 DUP1 PUSH2 0xC79 PUSH2 0x4927 JUMP JUMPDEST DUP2 PUSH1 0x1 PUSH1 0x1 PUSH1 0xA0 SHL SUB MUL NOT AND SWAP1 DUP4 PUSH1 0x1 PUSH1 0x1 PUSH1 0xA0 SHL SUB AND MUL OR SWAP1 PUSH2 0xC9B PUSH2 0x4B86 JUMP JUMPDEST POP POP POP PUSH32 0x906A1C6BD7E3091EA86693DD029A831C19049CE77F1DCE2CE0BAB1CACBABCE22 DUP2 PUSH1 0x40 MLOAD PUSH1 0x1 PUSH1 0x1 PUSH1 0xA0 SHL SUB SWAP1 SWAP2 AND DUP2 MSTORE PUSH1 0x20 ADD PUSH1 0x40 MLOAD DUP1 SWAP2 SUB SWAP1 LOG1 POP JUMP JUMPDEST PUSH1 0x0 DUP1 PUSH1 0x0 PUSH2 0xCED DUP6 DUP6 PUSH2 0x2CAE JUMP JUMPDEST POP SWAP2 SWAP8 SWAP1 SWAP7 POP SWAP1 SWAP5 POP SWAP3 POP POP POP JUMP JUMPDEST PUSH1 0x0 PUSH2 0x7CB DUP4 DUP4 PUSH2 0x2FD7 JUMP JUMPDEST PUSH1 0x0 DUP1 PUSH1 0x0 PUSH2 0xD15 PUSH2 0x2894 JUMP JUMPDEST PUSH1 0x1 PUSH1 0x1 PUSH1 0xA0 SHL SUB AND PUSH4 0x42A28E21 DUP6 PUSH1 0x40 MLOAD PUSH1 0x1 PUSH1 0x1 PUSH1 0xE0 SHL SUB NOT PUSH1 0xE0 DUP5 SWAP1 SHL AND DUP2 MSTORE PUSH1 0x4 DUP2 ADD SWAP2 SWAP1 SWAP2 MSTORE PUSH1 0x24 ADD PUSH1 0x0 PUSH1 0x40 MLOAD DUP1 DUP4 SUB DUP2 DUP7 DUP1 PUSH2 0xD56 PUSH2 0x4982 JUMP JUMPDEST ISZERO DUP1 ISZERO PUSH2 0xD6B JUMPI PUSH1 0x0 DUP1 PUSH2 0xD68 PUSH2 0x48BC JUMP JUMPDEST POP POP JUMPDEST POP GAS PUSH2 0xD75 PUSH2 0x49CE JUMP JUMPDEST POP POP POP POP POP ISZERO DUP1 ISZERO PUSH2 0xD94 JUMPI RETURNDATASIZE PUSH1 0x0 DUP1 RETURNDATACOPY RETURNDATASIZE PUSH1 0x0 PUSH2 0xD91 PUSH2 0x48BC JUMP JUMPDEST POP POP JUMPDEST POP POP POP POP PUSH2 0xDA4 DUP6 DUP6 PUSH1 0x1 PUSH2 0x2FE2 JUMP JUMPDEST SWAP3 POP SWAP3 POP SWAP3 POP SWAP3 POP SWAP3 POP SWAP3 JUMP JUMPDEST PUSH1 0x0 PUSH2 0xDBB PUSH2 0x33A8 JUMP JUMPDEST SWAP1 POP SWAP1 JUMP JUMPDEST PUSH2 0xDC8 PUSH2 0x2C34 JUMP JUMPDEST DUP1 PUSH1 0x2 PUSH1 0x1 DUP2 PUSH2 0xDD6 PUSH2 0x4927 JUMP JUMPDEST DUP2 PUSH1 0x1 PUSH1 0x1 PUSH1 0xA0 SHL SUB MUL NOT AND SWAP1 DUP4 PUSH1 0x1 PUSH1 0x1 PUSH1 0xA0 SHL SUB AND MUL OR SWAP1 PUSH2 0xDF8 PUSH2 0x4B86 JUMP JUMPDEST POP PUSH1 0x0 SWAP2 POP POP JUMPDEST PUSH1 0x4 DUP1 PUSH2 0xE0A PUSH2 0x4927 JUMP JUMPDEST SWAP1 POP DUP2 LT ISZERO PUSH2 0xF86 JUMPI PUSH1 0x0 PUSH1 0x4 DUP3 DUP2 PUSH2 0xE21 PUSH2 0x4927 JUMP JUMPDEST DUP2 LT PUSH2 0xE29 JUMPI INVALID JUMPDEST SWAP1 PUSH1 0x0 MSTORE PUSH1 0x20 PUSH1 0x0 KECCAK256 ADD PUSH2 0xE3B PUSH2 0x4927 JUMP JUMPDEST SWAP1 POP PUSH1 0x0 PUSH1 0x2 PUSH2 0xE49 PUSH2 0x4927 JUMP JUMPDEST SWAP1 PUSH2 0x100 EXP SWAP1 DIV PUSH1 0x1 PUSH1 0x1 PUSH1 0xA0 SHL SUB AND PUSH1 0x1 PUSH1 0x1 PUSH1 0xA0 SHL SUB AND PUSH4 0xDACB2D01 DUP3 PUSH1 0x40 MLOAD PUSH1 0x1 PUSH1 0x1 PUSH1 0xE0 SHL SUB NOT PUSH1 0xE0 DUP5 SWAP1 SHL AND DUP2 MSTORE PUSH1 0x4 DUP2 ADD SWAP2 SWAP1 SWAP2 MSTORE PUSH1 0x40 PUSH1 0x24 DUP3 ADD DUP2 SWAP1 MSTORE PUSH1 0x17 PUSH1 0x44 DUP4 ADD MSTORE PUSH32 0x5265736F6C766572206D697373696E6720746172676574000000000000000000 PUSH1 0x64 DUP4 ADD MSTORE PUSH1 0x84 SWAP1 SWAP2 ADD SWAP1 PUSH1 0x20 SWAP1 MLOAD DUP1 DUP4 SUB DUP2 DUP7 DUP1 PUSH2 0xED2 PUSH2 0x4982 JUMP JUMPDEST ISZERO DUP1 ISZERO PUSH2 0xEE7 JUMPI PUSH1 0x0 DUP1 PUSH2 0xEE4 PUSH2 0x48BC JUMP JUMPDEST POP POP JUMPDEST POP GAS PUSH2 0xEF1 PUSH2 0x49CE JUMP JUMPDEST POP POP POP POP POP ISZERO DUP1 ISZERO PUSH2 0xF10 JUMPI RETURNDATASIZE PUSH1 0x0 DUP1 RETURNDATACOPY RETURNDATASIZE PUSH1 0x0 PUSH2 0xF0D PUSH2 0x48BC JUMP JUMPDEST POP POP JUMPDEST POP POP POP POP PUSH1 0x40 MLOAD RETURNDATASIZE PUSH1 0x20 DUP2 LT ISZERO PUSH2 0xF2F JUMPI PUSH1 0x0 DUP1 PUSH2 0xF2C PUSH2 0x48BC JUMP JUMPDEST POP POP JUMPDEST DUP2 ADD SWAP1 DUP1 DUP1 MLOAD PUSH1 0x0 DUP6 DUP2 MSTORE PUSH1 0x3 PUSH1 0x20 MSTORE SWAP1 SWAP4 POP PUSH1 0x40 SWAP3 POP SWAP1 POP KECCAK256 PUSH1 0x1 DUP2 PUSH2 0xF54 PUSH2 0x4927 JUMP JUMPDEST DUP2 PUSH1 0x1 PUSH1 0x1 PUSH1 0xA0 SHL SUB MUL NOT AND SWAP1 DUP4 PUSH1 0x1 PUSH1 0x1 PUSH1 0xA0 SHL SUB AND MUL OR SWAP1 PUSH2 0xF76 PUSH2 0x4B86 JUMP JUMPDEST POP POP PUSH1 0x1 SWAP1 SWAP3 ADD SWAP2 POP PUSH2 0xDFF SWAP1 POP JUMP JUMPDEST POP POP JUMP JUMPDEST PUSH1 0x41 DUP2 JUMP JUMPDEST DUP2 PUSH1 0x0 PUSH2 0xF9A PUSH2 0x28E2 JUMP JUMPDEST PUSH1 0x1 PUSH1 0x1 PUSH1 0xA0 SHL SUB AND PUSH4 0x32608039 DUP7 PUSH1 0x40 MLOAD PUSH1 0x1 PUSH1 0x1 PUSH1 0xE0 SHL SUB NOT PUSH1 0xE0 DUP5 SWAP1 SHL AND DUP2 MSTORE PUSH1 0x4 DUP2 ADD SWAP2 SWAP1 SWAP2 MSTORE PUSH1 0x24 ADD PUSH1 0x20 PUSH1 0x40 MLOAD DUP1 DUP4 SUB DUP2 DUP7 DUP1 PUSH2 0xFDB PUSH2 0x4982 JUMP JUMPDEST ISZERO DUP1 ISZERO PUSH2 0xFF0 JUMPI PUSH1 0x0 DUP1 PUSH2 0xFED PUSH2 0x48BC JUMP JUMPDEST POP POP JUMPDEST POP GAS PUSH2 0xFFA PUSH2 0x49CE JUMP JUMPDEST POP POP POP POP POP ISZERO DUP1 ISZERO PUSH2 0x1019 JUMPI RETURNDATASIZE PUSH1 0x0 DUP1 RETURNDATACOPY RETURNDATASIZE PUSH1 0x0 PUSH2 0x1016 PUSH2 0x48BC JUMP JUMPDEST POP POP JUMPDEST POP POP POP POP PUSH1 0x40 MLOAD RETURNDATASIZE PUSH1 0x20 DUP2 LT ISZERO PUSH2 0x1038 JUMPI PUSH1 0x0 DUP1 PUSH2 0x1035 PUSH2 0x48BC JUMP JUMPDEST POP POP JUMPDEST DUP2 ADD SWAP1 DUP1 DUP1 MLOAD PUSH1 0x1 PUSH1 0x1 PUSH1 0xA0 SHL SUB AND SWAP3 POP PUSH4 0x70A08231 SWAP2 POP DUP9 SWAP1 POP PUSH1 0x40 MLOAD PUSH1 0x1 PUSH1 0x1 PUSH1 0xE0 SHL SUB NOT PUSH1 0xE0 DUP5 SWAP1 SHL AND DUP2 MSTORE PUSH1 0x1 PUSH1 0x1 PUSH1 0xA0 SHL SUB SWAP1 SWAP2 AND PUSH1 0x4 DUP3 ADD MSTORE PUSH1 0x24 ADD PUSH1 0x20 PUSH1 0x40 MLOAD DUP1 DUP4 SUB DUP2 DUP7 DUP1 PUSH2 0x108D PUSH2 0x4982 JUMP JUMPDEST ISZERO DUP1 ISZERO PUSH2 0x10A2 JUMPI PUSH1 0x0 DUP1 PUSH2 0x109F PUSH2 0x48BC JUMP JUMPDEST POP POP JUMPDEST POP GAS PUSH2 0x10AC PUSH2 0x49CE JUMP JUMPDEST POP POP POP POP POP ISZERO DUP1 ISZERO PUSH2 0x10CB JUMPI RETURNDATASIZE PUSH1 0x0 DUP1 RETURNDATACOPY RETURNDATASIZE PUSH1 0x0 PUSH2 0x10C8 PUSH2 0x48BC JUMP JUMPDEST POP POP JUMPDEST POP POP POP POP PUSH1 0x40 MLOAD RETURNDATASIZE PUSH1 0x20 DUP2 LT ISZERO PUSH2 0x10EA JUMPI PUSH1 0x0 DUP1 PUSH2 0x10E7 PUSH2 0x48BC JUMP JUMPDEST POP POP JUMPDEST DUP2 ADD SWAP1 DUP1 DUP1 MLOAD SWAP4 POP POP POP POP DUP1 DUP3 GT ISZERO PUSH2 0x1101 JUMPI DUP1 SWAP2 POP JUMPDEST DUP3 ISZERO PUSH2 0x111A JUMPI PUSH2 0x1117 DUP3 DUP5 PUSH4 0xFFFFFFFF PUSH2 0x3495 AND JUMP JUMPDEST SWAP2 POP JUMPDEST POP SWAP5 SWAP4 POP POP POP POP JUMP JUMPDEST PUSH1 0x0 PUSH1 0x1 PUSH2 0x6EF PUSH2 0x4927 JUMP JUMPDEST PUSH1 0x0 PUSH2 0x117E DUP3 PUSH2 0x113D PUSH2 0x2923 JUMP JUMPDEST PUSH1 0x1 PUSH1 0x1 PUSH1 0xA0 SHL SUB AND PUSH4 0xAC82F608 DUP6 PUSH1 0x40 MLOAD PUSH1 0x1 PUSH1 0x1 PUSH1 0xE0 SHL SUB NOT PUSH1 0xE0 DUP5 SWAP1 SHL AND DUP2 MSTORE PUSH1 0x4 DUP2 ADD SWAP2 SWAP1 SWAP2 MSTORE PUSH1 0x24 ADD PUSH1 0x20 PUSH1 0x40 MLOAD DUP1 DUP4 SUB DUP2 DUP7 DUP1 PUSH2 0xB0F PUSH2 0x4982 JUMP JUMPDEST SWAP1 POP JUMPDEST SWAP2 SWAP1 POP JUMP JUMPDEST PUSH1 0x0 PUSH1 0x1 PUSH1 0x1 PUSH1 0xA0 SHL SUB DUP3 AND DUP2 PUSH1 0x2 PUSH2 0x119D PUSH2 0x4927 JUMP JUMPDEST SWAP1 PUSH2 0x100 EXP SWAP1 DIV PUSH1 0x1 PUSH1 0x1 PUSH1 0xA0 SHL SUB AND PUSH1 0x1 PUSH1 0x1 PUSH1 0xA0 SHL SUB AND EQ PUSH2 0x11C3 JUMPI POP PUSH1 0x0 PUSH2 0x1181 JUMP JUMPDEST PUSH1 0x0 JUMPDEST PUSH1 0x4 DUP1 PUSH2 0x11D1 PUSH2 0x4927 JUMP JUMPDEST SWAP1 POP DUP2 LT ISZERO PUSH2 0x1357 JUMPI PUSH1 0x0 PUSH1 0x4 DUP3 DUP2 PUSH2 0x11E8 PUSH2 0x4927 JUMP JUMPDEST DUP2 LT PUSH2 0x11F0 JUMPI INVALID JUMPDEST SWAP1 PUSH1 0x0 MSTORE PUSH1 0x20 PUSH1 0x0 KECCAK256 ADD PUSH2 0x1202 PUSH2 0x4927 JUMP JUMPDEST PUSH1 0x0 DUP2 DUP2 MSTORE PUSH1 0x3 PUSH1 0x20 MSTORE SWAP1 SWAP2 POP PUSH1 0x40 SWAP1 KECCAK256 PUSH1 0x0 SWAP1 PUSH2 0x121E PUSH2 0x4927 JUMP JUMPDEST PUSH1 0x1 PUSH1 0x1 PUSH1 0xA0 SHL SUB PUSH2 0x100 SWAP3 SWAP1 SWAP3 EXP SWAP1 DIV AND PUSH1 0x0 PUSH1 0x2 PUSH2 0x123C PUSH2 0x4927 JUMP JUMPDEST SWAP1 PUSH2 0x100 EXP SWAP1 DIV PUSH1 0x1 PUSH1 0x1 PUSH1 0xA0 SHL SUB AND PUSH1 0x1 PUSH1 0x1 PUSH1 0xA0 SHL SUB AND PUSH4 0x21F8A721 DUP4 PUSH1 0x40 MLOAD PUSH1 0x1 PUSH1 0x1 PUSH1 0xE0 SHL SUB NOT PUSH1 0xE0 DUP5 SWAP1 SHL AND DUP2 MSTORE PUSH1 0x4 DUP2 ADD SWAP2 SWAP1 SWAP2 MSTORE PUSH1 0x24 ADD PUSH1 0x20 PUSH1 0x40 MLOAD DUP1 DUP4 SUB DUP2 DUP7 DUP1 PUSH2 0x128D PUSH2 0x4982 JUMP JUMPDEST ISZERO DUP1 ISZERO PUSH2 0x12A2 JUMPI PUSH1 0x0 DUP1 PUSH2 0x129F PUSH2 0x48BC JUMP JUMPDEST POP POP JUMPDEST POP GAS PUSH2 0x12AC PUSH2 0x49CE JUMP JUMPDEST POP POP POP POP POP ISZERO DUP1 ISZERO PUSH2 0x12CB JUMPI RETURNDATASIZE PUSH1 0x0 DUP1 RETURNDATACOPY RETURNDATASIZE PUSH1 0x0 PUSH2 0x12C8 PUSH2 0x48BC JUMP JUMPDEST POP POP JUMPDEST POP POP POP POP PUSH1 0x40 MLOAD RETURNDATASIZE PUSH1 0x20 DUP2 LT ISZERO PUSH2 0x12EA JUMPI PUSH1 0x0 DUP1 PUSH2 0x12E7 PUSH2 0x48BC JUMP JUMPDEST POP POP JUMPDEST DUP2 ADD SWAP1 DUP1 DUP1 MLOAD PUSH1 0x1 PUSH1 0x1 PUSH1 0xA0 SHL SUB AND SWAP4 SWAP1 SWAP4 EQ ISZERO SWAP3 POP DUP3 SWAP2 POP PUSH2 0x133E SWAP1 POP JUMPI POP PUSH1 0x0 DUP2 DUP2 MSTORE PUSH1 0x3 PUSH1 0x20 MSTORE PUSH1 0x40 DUP2 KECCAK256 PUSH1 0x0 SWAP1 PUSH2 0x1323 PUSH2 0x4927 JUMP JUMPDEST SWAP1 PUSH2 0x100 EXP SWAP1 DIV PUSH1 0x1 PUSH1 0x1 PUSH1 0xA0 SHL SUB AND PUSH1 0x1 PUSH1 0x1 PUSH1 0xA0 SHL SUB AND EQ JUMPDEST ISZERO PUSH2 0x134E JUMPI PUSH1 0x0 SWAP3 POP POP POP PUSH2 0x1181 JUMP JUMPDEST POP PUSH1 0x1 ADD PUSH2 0x11C6 JUMP JUMPDEST POP PUSH1 0x1 SWAP3 SWAP2 POP POP JUMP JUMPDEST PUSH1 0x0 DUP1 PUSH2 0x136B PUSH2 0x1E04 JUMP JUMPDEST SWAP1 POP DUP1 PUSH1 0x1 PUSH1 0x1 PUSH1 0xA0 SHL SUB AND GAS PUSH2 0x1380 PUSH2 0x4A87 JUMP JUMPDEST PUSH1 0x1 PUSH1 0x1 PUSH1 0xA0 SHL SUB AND EQ DUP1 PUSH2 0x1451 JUMPI POP PUSH1 0x0 PUSH1 0x1 PUSH1 0x1 PUSH1 0xA0 SHL SUB DUP3 AND PUSH4 0x16B2213F GAS PUSH2 0x13AA PUSH2 0x4A87 JUMP JUMPDEST PUSH1 0x40 MLOAD PUSH1 0x1 PUSH1 0x1 PUSH1 0xE0 SHL SUB NOT PUSH1 0xE0 DUP5 SWAP1 SHL AND DUP2 MSTORE PUSH1 0x1 PUSH1 0x1 PUSH1 0xA0 SHL SUB SWAP1 SWAP2 AND PUSH1 0x4 DUP3 ADD MSTORE PUSH1 0x24 ADD PUSH1 0x20 PUSH1 0x40 MLOAD DUP1 DUP4 SUB DUP2 DUP7 DUP1 PUSH2 0x13E4 PUSH2 0x4982 JUMP JUMPDEST ISZERO DUP1 ISZERO PUSH2 0x13F9 JUMPI PUSH1 0x0 DUP1 PUSH2 0x13F6 PUSH2 0x48BC JUMP JUMPDEST POP POP JUMPDEST POP GAS PUSH2 0x1403 PUSH2 0x49CE JUMP JUMPDEST POP POP POP POP POP ISZERO DUP1 ISZERO PUSH2 0x1422 JUMPI RETURNDATASIZE PUSH1 0x0 DUP1 RETURNDATACOPY RETURNDATASIZE PUSH1 0x0 PUSH2 0x141F PUSH2 0x48BC JUMP JUMPDEST POP POP JUMPDEST POP POP POP POP PUSH1 0x40 MLOAD RETURNDATASIZE PUSH1 0x20 DUP2 LT ISZERO PUSH2 0x1441 JUMPI PUSH1 0x0 DUP1 PUSH2 0x143E PUSH2 0x48BC JUMP JUMPDEST POP POP JUMPDEST DUP2 ADD SWAP1 DUP1 DUP1 MLOAD SWAP4 SWAP1 SWAP4 EQ ISZERO SWAP3 POP POP POP JUMPDEST PUSH2 0x1495 JUMPI PUSH1 0x40 MLOAD PUSH3 0x461BCD PUSH1 0xE5 SHL DUP2 MSTORE PUSH1 0x4 ADD DUP1 DUP1 PUSH1 0x20 ADD DUP3 DUP2 SUB DUP3 MSTORE PUSH1 0x45 DUP2 MSTORE PUSH1 0x20 ADD DUP1 PUSH2 0x4D1C PUSH1 0x45 SWAP2 CODECOPY PUSH1 0x60 ADD SWAP2 POP POP PUSH1 0x40 MLOAD DUP1 SWAP2 SUB SWAP1 PUSH2 0x1492 PUSH2 0x48BC JUMP JUMPDEST POP POP JUMPDEST PUSH2 0x149D PUSH2 0x34FD JUMP JUMPDEST PUSH1 0x1 PUSH1 0x1 PUSH1 0xA0 SHL SUB AND PUSH4 0xFAF431BB DUP9 DUP9 PUSH1 0x40 MLOAD PUSH1 0x1 PUSH1 0x1 PUSH1 0xE0 SHL SUB NOT PUSH1 0xE0 DUP6 SWAP1 SHL AND DUP2 MSTORE PUSH1 0x1 PUSH1 0x1 PUSH1 0xA0 SHL SUB SWAP3 DUP4 AND PUSH1 0x4 DUP3 ADD MSTORE SWAP2 AND PUSH1 0x24 DUP3 ADD MSTORE PUSH1 0x44 ADD PUSH1 0x20 PUSH1 0x40 MLOAD DUP1 DUP4 SUB DUP2 DUP7 DUP1 PUSH2 0x14EE PUSH2 0x4982 JUMP JUMPDEST ISZERO DUP1 ISZERO PUSH2 0x1503 JUMPI PUSH1 0x0 DUP1 PUSH2 0x1500 PUSH2 0x48BC JUMP JUMPDEST POP POP JUMPDEST POP GAS PUSH2 0x150D PUSH2 0x49CE JUMP JUMPDEST POP POP POP POP POP ISZERO DUP1 ISZERO PUSH2 0x152C JUMPI RETURNDATASIZE PUSH1 0x0 DUP1 RETURNDATACOPY RETURNDATASIZE PUSH1 0x0 PUSH2 0x1529 PUSH2 0x48BC JUMP JUMPDEST POP POP JUMPDEST POP POP POP POP PUSH1 0x40 MLOAD RETURNDATASIZE PUSH1 0x20 DUP2 LT ISZERO PUSH2 0x154B JUMPI PUSH1 0x0 DUP1 PUSH2 0x1548 PUSH2 0x48BC JUMP JUMPDEST POP POP JUMPDEST DUP2 ADD SWAP1 DUP1 DUP1 MLOAD SWAP3 POP PUSH2 0x15AF SWAP2 POP POP JUMPI PUSH1 0x40 MLOAD PUSH3 0x461BCD PUSH1 0xE5 SHL DUP2 MSTORE PUSH1 0x20 PUSH1 0x4 DUP3 ADD MSTORE PUSH1 0x1D PUSH1 0x24 DUP3 ADD MSTORE PUSH32 0x4E6F7420617070726F76656420746F20616374206F6E20626568616C66000000 PUSH1 0x44 DUP3 ADD MSTORE PUSH1 0x64 ADD PUSH1 0x40 MLOAD DUP1 SWAP2 SUB SWAP1 PUSH2 0x15AC PUSH2 0x48BC JUMP JUMPDEST POP POP JUMPDEST PUSH1 0x0 PUSH2 0x15BE DUP9 DUP8 DUP8 DUP8 DUP13 PUSH2 0x1E4F JUMP JUMPDEST SWAP1 SWAP4 POP SWAP1 POP PUSH2 0x927 DUP2 DUP10 PUSH2 0x27C8 JUMP JUMPDEST PUSH1 0x0 PUSH1 0x1 PUSH2 0x15D9 PUSH2 0x4927 JUMP JUMPDEST SWAP1 PUSH2 0x100 EXP SWAP1 DIV PUSH1 0x1 PUSH1 0x1 PUSH1 0xA0 SHL SUB AND PUSH1 0x1 PUSH1 0x1 PUSH1 0xA0 SHL SUB AND GAS PUSH2 0x15FB PUSH2 0x4A87 JUMP JUMPDEST PUSH1 0x1 PUSH1 0x1 PUSH1 0xA0 SHL SUB AND EQ PUSH2 0x1649 JUMPI PUSH1 0x40 MLOAD PUSH3 0x461BCD PUSH1 0xE5 SHL DUP2 MSTORE PUSH1 0x4 ADD DUP1 DUP1 PUSH1 0x20 ADD DUP3 DUP2 SUB DUP3 MSTORE PUSH1 0x35 DUP2 MSTORE PUSH1 0x20 ADD DUP1 PUSH2 0x4CC6 PUSH1 0x35 SWAP2 CODECOPY PUSH1 0x40 ADD SWAP2 POP POP PUSH1 0x40 MLOAD DUP1 SWAP2 SUB SWAP1 PUSH2 0x1646 PUSH2 0x48BC JUMP JUMPDEST POP POP JUMPDEST PUSH32 0xB532073B38C83145E3E5135377A08BF9AAB55BC0FD7C1179CD4FB995D2A5159C PUSH1 0x0 DUP1 PUSH2 0x1675 PUSH2 0x4927 JUMP JUMPDEST SWAP1 PUSH2 0x100 EXP SWAP1 DIV PUSH1 0x1 PUSH1 0x1 PUSH1 0xA0 SHL SUB AND PUSH1 0x1 PUSH1 0x0 SWAP1 PUSH2 0x1692 PUSH2 0x4927 JUMP JUMPDEST SWAP1 PUSH2 0x100 EXP SWAP1 DIV PUSH1 0x1 PUSH1 0x1 PUSH1 0xA0 SHL SUB AND PUSH1 0x40 MLOAD PUSH1 0x1 PUSH1 0x1 PUSH1 0xA0 SHL SUB SWAP3 DUP4 AND DUP2 MSTORE SWAP2 AND PUSH1 0x20 DUP3 ADD MSTORE PUSH1 0x40 SWAP1 DUP2 ADD SWAP1 MLOAD DUP1 SWAP2 SUB SWAP1 LOG1 PUSH1 0x0 PUSH1 0x1 PUSH2 0x16D1 PUSH2 0x4927 JUMP JUMPDEST SWAP1 PUSH2 0x100 EXP SWAP1 DIV PUSH1 0x1 PUSH1 0x1 PUSH1 0xA0 SHL SUB AND PUSH1 0x0 DUP1 PUSH2 0x100 EXP DUP2 PUSH2 0x16F1 PUSH2 0x4927 JUMP JUMPDEST DUP2 PUSH1 0x1 PUSH1 0x1 PUSH1 0xA0 SHL SUB MUL NOT AND SWAP1 DUP4 PUSH1 0x1 PUSH1 0x1 PUSH1 0xA0 SHL SUB AND MUL OR SWAP1 PUSH2 0x1713 PUSH2 0x4B86 JUMP JUMPDEST POP POP POP PUSH1 0x0 PUSH1 0x1 PUSH1 0x0 PUSH2 0x100 EXP DUP2 PUSH2 0x1729 PUSH2 0x4927 JUMP JUMPDEST DUP2 PUSH1 0x1 PUSH1 0x1 PUSH1 0xA0 SHL SUB MUL NOT AND SWAP1 DUP4 PUSH1 0x1 PUSH1 0x1 PUSH1 0xA0 SHL SUB AND MUL OR SWAP1 PUSH2 0x174B PUSH2 0x4B86 JUMP JUMPDEST POP POP POP JUMP JUMPDEST PUSH1 0x5 PUSH1 0x20 MSTORE DUP1 PUSH1 0x0 MSTORE PUSH1 0x40 PUSH1 0x0 KECCAK256 SWAP1 POP PUSH2 0x1768 PUSH2 0x4927 JUMP JUMPDEST DUP2 JUMP JUMPDEST PUSH1 0x0 DUP1 PUSH2 0x1776 PUSH2 0x1E04 JUMP JUMPDEST SWAP1 POP DUP1 PUSH1 0x1 PUSH1 0x1 PUSH1 0xA0 SHL SUB AND GAS PUSH2 0x178B PUSH2 0x4A87 JUMP JUMPDEST PUSH1 0x1 PUSH1 0x1 PUSH1 0xA0 SHL SUB AND EQ DUP1 PUSH2 0x185C JUMPI POP PUSH1 0x0 PUSH1 0x1 PUSH1 0x1 PUSH1 0xA0 SHL SUB DUP3 AND PUSH4 0x16B2213F GAS PUSH2 0x17B5 PUSH2 0x4A87 JUMP JUMPDEST PUSH1 0x40 MLOAD PUSH1 0x1 PUSH1 0x1 PUSH1 0xE0 SHL SUB NOT PUSH1 0xE0 DUP5 SWAP1 SHL AND DUP2 MSTORE PUSH1 0x1 PUSH1 0x1 PUSH1 0xA0 SHL SUB SWAP1 SWAP2 AND PUSH1 0x4 DUP3 ADD MSTORE PUSH1 0x24 ADD PUSH1 0x20 PUSH1 0x40 MLOAD DUP1 DUP4 SUB DUP2 DUP7 DUP1 PUSH2 0x17EF PUSH2 0x4982 JUMP JUMPDEST ISZERO DUP1 ISZERO PUSH2 0x1804 JUMPI PUSH1 0x0 DUP1 PUSH2 0x1801 PUSH2 0x48BC JUMP JUMPDEST POP POP JUMPDEST POP GAS PUSH2 0x180E PUSH2 0x49CE JUMP JUMPDEST POP POP POP POP POP ISZERO DUP1 ISZERO PUSH2 0x182D JUMPI RETURNDATASIZE PUSH1 0x0 DUP1 RETURNDATACOPY RETURNDATASIZE PUSH1 0x0 PUSH2 0x182A PUSH2 0x48BC JUMP JUMPDEST POP POP JUMPDEST POP POP POP POP PUSH1 0x40 MLOAD RETURNDATASIZE PUSH1 0x20 DUP2 LT ISZERO PUSH2 0x184C JUMPI PUSH1 0x0 DUP1 PUSH2 0x1849 PUSH2 0x48BC JUMP JUMPDEST POP POP JUMPDEST DUP2 ADD SWAP1 DUP1 DUP1 MLOAD SWAP4 SWAP1 SWAP4 EQ ISZERO SWAP3 POP POP POP JUMPDEST PUSH2 0x18A0 JUMPI PUSH1 0x40 MLOAD PUSH3 0x461BCD PUSH1 0xE5 SHL DUP2 MSTORE PUSH1 0x4 ADD DUP1 DUP1 PUSH1 0x20 ADD DUP3 DUP2 SUB DUP3 MSTORE PUSH1 0x45 DUP2 MSTORE PUSH1 0x20 ADD DUP1 PUSH2 0x4D1C PUSH1 0x45 SWAP2 CODECOPY PUSH1 0x60 ADD SWAP2 POP POP PUSH1 0x40 MLOAD DUP1 SWAP2 SUB SWAP1 PUSH2 0x189D PUSH2 0x48BC JUMP JUMPDEST POP POP JUMPDEST PUSH1 0x0 PUSH2 0x18AF DUP11 DUP11 DUP11 DUP11 DUP11 PUSH2 0x1E4F JUMP JUMPDEST SWAP1 SWAP4 POP SWAP1 POP PUSH2 0x18BE DUP2 DUP7 PUSH2 0x27C8 JUMP JUMPDEST PUSH2 0x18C9 DUP5 DUP9 DUP6 PUSH2 0x3533 JUMP JUMPDEST POP POP SWAP8 SWAP7 POP POP POP POP POP POP POP JUMP JUMPDEST PUSH1 0x0 PUSH2 0xDBB PUSH2 0x35D4 JUMP JUMPDEST PUSH1 0x0 DUP1 PUSH2 0x6EF PUSH2 0x4927 JUMP JUMPDEST PUSH2 0x18F3 PUSH2 0x4BD4 JUMP JUMPDEST PUSH1 0x0 JUMPDEST PUSH1 0x4 DUP1 PUSH2 0x1901 PUSH2 0x4927 JUMP JUMPDEST SWAP1 POP DUP2 LT ISZERO PUSH2 0x1949 JUMPI PUSH1 0x4 DUP2 DUP2 PUSH2 0x1916 PUSH2 0x4927 JUMP JUMPDEST DUP2 LT PUSH2 0x191E JUMPI INVALID JUMPDEST SWAP1 PUSH1 0x0 MSTORE PUSH1 0x20 PUSH1 0x0 KECCAK256 ADD PUSH2 0x1930 PUSH2 0x4927 JUMP JUMPDEST DUP3 DUP3 PUSH1 0x18 DUP2 LT PUSH2 0x193C JUMPI INVALID JUMPDEST PUSH1 0x20 MUL ADD MSTORE PUSH1 0x1 ADD PUSH2 0x18F6 JUMP JUMPDEST POP SWAP1 JUMP JUMPDEST PUSH1 0x0 PUSH2 0xDBB PUSH2 0x364A JUMP JUMPDEST PUSH1 0x4 DUP2 DUP2 PUSH2 0x1963 PUSH2 0x4927 JUMP JUMPDEST DUP2 LT PUSH2 0x196B JUMPI INVALID JUMPDEST SWAP1 PUSH1 0x0 MSTORE PUSH1 0x20 PUSH1 0x0 KECCAK256 ADD SWAP1 POP PUSH2 0x1768 PUSH2 0x4927 JUMP JUMPDEST PUSH1 0x0 PUSH2 0x1989 PUSH2 0x2923 JUMP JUMPDEST SWAP1 POP DUP1 PUSH1 0x1 PUSH1 0x1 PUSH1 0xA0 SHL SUB AND GAS PUSH2 0x199E PUSH2 0x4A87 JUMP JUMPDEST PUSH1 0x1 PUSH1 0x1 PUSH1 0xA0 SHL SUB AND EQ PUSH2 0x1A01 JUMPI PUSH1 0x40 MLOAD PUSH3 0x461BCD PUSH1 0xE5 SHL DUP2 MSTORE PUSH1 0x20 PUSH1 0x4 DUP3 ADD MSTORE PUSH1 0x1B PUSH1 0x24 DUP3 ADD MSTORE PUSH32 0x5265737472696374656420746F2045786368616E676552617465730000000000 PUSH1 0x44 DUP3 ADD MSTORE PUSH1 0x64 ADD PUSH1 0x40 MLOAD DUP1 SWAP2 SUB SWAP1 PUSH2 0x19FE PUSH2 0x48BC JUMP JUMPDEST POP POP JUMPDEST PUSH1 0x0 DUP3 GT PUSH2 0x1A55 JUMPI PUSH1 0x40 MLOAD PUSH3 0x461BCD PUSH1 0xE5 SHL DUP2 MSTORE PUSH1 0x20 PUSH1 0x4 DUP3 ADD MSTORE PUSH1 0x14 PUSH1 0x24 DUP3 ADD MSTORE PUSH20 0x52617465206D7573742062652061626F7665203 PUSH1 0x64 SHL PUSH1 0x44 DUP3 ADD MSTORE PUSH1 0x64 ADD PUSH1 0x40 MLOAD DUP1 SWAP2 SUB SWAP1 PUSH2 0x1A52 PUSH2 0x48BC JUMP JUMPDEST POP POP JUMPDEST PUSH1 0x0 DUP4 DUP2 MSTORE PUSH1 0x5 PUSH1 0x20 MSTORE DUP3 SWAP1 PUSH1 0x40 SWAP1 KECCAK256 DUP2 SWAP1 PUSH2 0x1A6F PUSH2 0x4B86 JUMP JUMPDEST POP POP POP POP POP POP JUMP JUMPDEST PUSH1 0x0 PUSH2 0x1A83 DUP4 DUP4 PUSH2 0x702 JUMP JUMPDEST ISZERO PUSH2 0x1A90 JUMPI POP PUSH1 0x1 PUSH2 0x7CE JUMP JUMPDEST PUSH1 0x0 PUSH2 0x1A9C DUP5 DUP5 PUSH2 0x2CAE JUMP JUMPDEST POP POP POP ISZERO ISZERO SWAP5 SWAP4 POP POP POP POP JUMP JUMPDEST PUSH1 0x0 DUP1 PUSH2 0x1AB4 PUSH2 0x1E04 JUMP JUMPDEST SWAP1 POP DUP1 PUSH1 0x1 PUSH1 0x1 PUSH1 0xA0 SHL SUB AND GAS PUSH2 0x1AC9 PUSH2 0x4A87 JUMP JUMPDEST PUSH1 0x1 PUSH1 0x1 PUSH1 0xA0 SHL SUB AND EQ DUP1 PUSH2 0x1B9A JUMPI POP PUSH1 0x0 PUSH1 0x1 PUSH1 0x1 PUSH1 0xA0 SHL SUB DUP3 AND PUSH4 0x16B2213F GAS PUSH2 0x1AF3 PUSH2 0x4A87 JUMP JUMPDEST PUSH1 0x40 MLOAD PUSH1 0x1 PUSH1 0x1 PUSH1 0xE0 SHL SUB NOT PUSH1 0xE0 DUP5 SWAP1 SHL AND DUP2 MSTORE PUSH1 0x1 PUSH1 0x1 PUSH1 0xA0 SHL SUB SWAP1 SWAP2 AND PUSH1 0x4 DUP3 ADD MSTORE PUSH1 0x24 ADD PUSH1 0x20 PUSH1 0x40 MLOAD DUP1 DUP4 SUB DUP2 DUP7 DUP1 PUSH2 0x1B2D PUSH2 0x4982 JUMP JUMPDEST ISZERO DUP1 ISZERO PUSH2 0x1B42 JUMPI PUSH1 0x0 DUP1 PUSH2 0x1B3F PUSH2 0x48BC JUMP JUMPDEST POP POP JUMPDEST POP GAS PUSH2 0x1B4C PUSH2 0x49CE JUMP JUMPDEST POP POP POP POP POP ISZERO DUP1 ISZERO PUSH2 0x1B6B JUMPI RETURNDATASIZE PUSH1 0x0 DUP1 RETURNDATACOPY RETURNDATASIZE PUSH1 0x0 PUSH2 0x1B68 PUSH2 0x48BC JUMP JUMPDEST POP POP JUMPDEST POP POP POP POP PUSH1 0x40 MLOAD RETURNDATASIZE PUSH1 0x20 DUP2 LT ISZERO PUSH2 0x1B8A JUMPI PUSH1 0x0 DUP1 PUSH2 0x1B87 PUSH2 0x48BC JUMP JUMPDEST POP POP JUMPDEST DUP2 ADD SWAP1 DUP1 DUP1 MLOAD SWAP4 SWAP1 SWAP4 EQ ISZERO SWAP3 POP POP POP JUMPDEST PUSH2 0x1BDE JUMPI PUSH1 0x40 MLOAD PUSH3 0x461BCD PUSH1 0xE5 SHL DUP2 MSTORE PUSH1 0x4 ADD DUP1 DUP1 PUSH1 0x20 ADD DUP3 DUP2 SUB DUP3 MSTORE PUSH1 0x45 DUP2 MSTORE PUSH1 0x20 ADD DUP1 PUSH2 0x4D1C PUSH1 0x45 SWAP2 CODECOPY PUSH1 0x60 ADD SWAP2 POP POP PUSH1 0x40 MLOAD DUP1 SWAP2 SUB SWAP1 PUSH2 0x1BDB PUSH2 0x48BC JUMP JUMPDEST POP POP JUMPDEST PUSH2 0x1BE6 PUSH2 0x34FD JUMP JUMPDEST PUSH1 0x1 PUSH1 0x1 PUSH1 0xA0 SHL SUB AND PUSH4 0xFAF431BB DUP11 DUP11 PUSH1 0x40 MLOAD PUSH1 0x1 PUSH1 0x1 PUSH1 0xE0 SHL SUB NOT PUSH1 0xE0 DUP6 SWAP1 SHL AND DUP2 MSTORE PUSH1 0x1 PUSH1 0x1 PUSH1 0xA0 SHL SUB SWAP3 DUP4 AND PUSH1 0x4 DUP3 ADD MSTORE SWAP2 AND PUSH1 0x24 DUP3 ADD MSTORE PUSH1 0x44 ADD PUSH1 0x20 PUSH1 0x40 MLOAD DUP1 DUP4 SUB DUP2 DUP7 DUP1 PUSH2 0x1C37 PUSH2 0x4982 JUMP JUMPDEST ISZERO DUP1 ISZERO PUSH2 0x1C4C JUMPI PUSH1 0x0 DUP1 PUSH2 0x1C49 PUSH2 0x48BC JUMP JUMPDEST POP POP JUMPDEST POP GAS PUSH2 0x1C56 PUSH2 0x49CE JUMP JUMPDEST POP POP POP POP POP ISZERO DUP1 ISZERO PUSH2 0x1C75 JUMPI RETURNDATASIZE PUSH1 0x0 DUP1 RETURNDATACOPY RETURNDATASIZE PUSH1 0x0 PUSH2 0x1C72 PUSH2 0x48BC JUMP JUMPDEST POP POP JUMPDEST POP POP POP POP PUSH1 0x40 MLOAD RETURNDATASIZE PUSH1 0x20 DUP2 LT ISZERO PUSH2 0x1C94 JUMPI PUSH1 0x0 DUP1 PUSH2 0x1C91 PUSH2 0x48BC JUMP JUMPDEST POP POP JUMPDEST DUP2 ADD SWAP1 DUP1 DUP1 MLOAD SWAP3 POP PUSH2 0x1CF8 SWAP2 POP POP JUMPI PUSH1 0x40 MLOAD PUSH3 0x461BCD PUSH1 0xE5 SHL DUP2 MSTORE PUSH1 0x20 PUSH1 0x4 DUP3 ADD MSTORE PUSH1 0x1D PUSH1 0x24 DUP3 ADD MSTORE PUSH32 0x4E6F7420617070726F76656420746F20616374206F6E20626568616C66000000 PUSH1 0x44 DUP3 ADD MSTORE PUSH1 0x64 ADD PUSH1 0x40 MLOAD DUP1 SWAP2 SUB SWAP1 PUSH2 0x1CF5 PUSH2 0x48BC JUMP JUMPDEST POP POP JUMPDEST PUSH1 0x0 PUSH2 0x1D07 DUP11 DUP10 DUP10 DUP10 DUP15 PUSH2 0x1E4F JUMP JUMPDEST SWAP1 SWAP4 POP SWAP1 POP PUSH2 0x1D16 DUP2 DUP7 PUSH2 0x27C8 JUMP JUMPDEST PUSH2 0x18C9 DUP5 DUP8 DUP6 PUSH2 0x3533 JUMP JUMPDEST PUSH1 0x18 DUP2 JUMP JUMPDEST PUSH1 0x0 DUP1 PUSH1 0x0 PUSH2 0x1D36 DUP7 DUP7 DUP7 PUSH2 0x36C4 JUMP JUMPDEST POP SWAP3 SWAP10 SWAP2 SWAP9 POP SWAP7 POP SWAP5 POP POP POP POP POP JUMP JUMPDEST PUSH1 0x0 PUSH2 0xDBB PUSH13 0x45786368616E67655374617465 PUSH1 0x98 SHL PUSH1 0x40 MLOAD PUSH1 0x40 DUP1 DUP3 ADD SWAP1 MSTORE PUSH1 0x1D DUP2 MSTORE PUSH32 0x4D697373696E672045786368616E676553746174652061646472657373000000 PUSH1 0x20 DUP3 ADD MSTORE PUSH2 0x37DD JUMP JUMPDEST PUSH1 0x0 DUP1 PUSH2 0x1DA0 PUSH2 0x35D4 JUMP JUMPDEST SWAP1 POP DUP3 ISZERO DUP1 PUSH2 0x1DC6 JUMPI POP PUSH2 0x1DBA DUP4 DUP3 PUSH4 0xFFFFFFFF PUSH2 0x3495 AND JUMP JUMPDEST GAS PUSH2 0x1DC3 PUSH2 0x4BF1 JUMP JUMPDEST LT ISZERO JUMPDEST ISZERO PUSH2 0x1DD5 JUMPI PUSH1 0x0 SWAP2 POP POP PUSH2 0x1181 JUMP JUMPDEST PUSH2 0x1DFD GAS PUSH2 0x1DE1 PUSH2 0x4BF1 JUMP JUMPDEST PUSH2 0x1DF1 DUP6 DUP5 PUSH4 0xFFFFFFFF PUSH2 0x3495 AND JUMP JUMPDEST SWAP1 PUSH4 0xFFFFFFFF PUSH2 0x38A6 AND JUMP JUMPDEST SWAP4 SWAP3 POP POP POP JUMP JUMPDEST PUSH1 0x0 PUSH2 0xDBB PUSH9 0xA6F2DCE8D0CAE8D2F PUSH1 0xBB SHL PUSH1 0x40 MLOAD PUSH1 0x40 DUP1 DUP3 ADD SWAP1 MSTORE PUSH1 0x19 DUP2 MSTORE PUSH32 0x4D697373696E672053796E746865746978206164647265737300000000000000 PUSH1 0x20 DUP3 ADD MSTORE PUSH2 0x37DD JUMP JUMPDEST PUSH1 0x0 DUP1 PUSH2 0x1E5D DUP7 DUP7 DUP7 PUSH2 0x390B JUMP JUMPDEST PUSH1 0x0 DUP1 PUSH2 0x1E6C DUP10 DUP10 PUSH1 0x0 PUSH2 0x2FE2 JUMP JUMPDEST SWAP1 SWAP4 POP SWAP2 POP DUP8 SWAP1 POP DUP2 ISZERO PUSH2 0x1E9D JUMPI PUSH2 0x1E86 DUP11 DUP11 DUP11 DUP7 PUSH2 0xF8F JUMP JUMPDEST SWAP1 POP DUP1 PUSH2 0x1E9D JUMPI POP PUSH1 0x0 SWAP4 POP DUP4 SWAP3 POP PUSH2 0x27BE SWAP2 POP POP JUMP JUMPDEST PUSH1 0x0 DUP1 PUSH1 0x0 PUSH2 0x1EAD DUP5 DUP14 DUP13 PUSH2 0x36C4 JUMP JUMPDEST SWAP4 SWAP12 POP SWAP2 SWAP10 POP SWAP5 POP SWAP3 POP SWAP1 POP PUSH2 0x1EC3 DUP13 DUP4 PUSH2 0x2972 JUMP JUMPDEST ISZERO PUSH2 0x1F70 JUMPI PUSH2 0x1ED0 PUSH2 0x2894 JUMP JUMPDEST PUSH1 0x1 PUSH1 0x1 PUSH1 0xA0 SHL SUB AND PUSH4 0xABC0BB6E DUP14 PUSH1 0x41 PUSH1 0x40 MLOAD PUSH1 0x1 PUSH1 0x1 PUSH1 0xE0 SHL SUB NOT PUSH1 0xE0 DUP6 SWAP1 SHL AND DUP2 MSTORE PUSH1 0x4 DUP2 ADD SWAP3 SWAP1 SWAP3 MSTORE PUSH1 0x24 DUP3 ADD MSTORE PUSH1 0x44 ADD PUSH1 0x0 PUSH1 0x40 MLOAD DUP1 DUP4 SUB DUP2 PUSH1 0x0 DUP8 DUP1 PUSH2 0x1F1A PUSH2 0x4982 JUMP JUMPDEST ISZERO DUP1 ISZERO PUSH2 0x1F2F JUMPI PUSH1 0x0 DUP1 PUSH2 0x1F2C PUSH2 0x48BC JUMP JUMPDEST POP POP JUMPDEST POP GAS PUSH2 0x1F39 PUSH2 0x4ACD JUMP JUMPDEST POP POP POP POP POP POP ISZERO DUP1 ISZERO PUSH2 0x1F59 JUMPI RETURNDATASIZE PUSH1 0x0 DUP1 RETURNDATACOPY RETURNDATASIZE PUSH1 0x0 PUSH2 0x1F56 PUSH2 0x48BC JUMP JUMPDEST POP POP JUMPDEST POP PUSH1 0x0 SWAP11 POP DUP11 SWAP10 POP PUSH2 0x27BE SWAP9 POP POP POP POP POP POP POP POP POP JUMP JUMPDEST PUSH1 0x0 DUP13 DUP2 MSTORE PUSH1 0x5 PUSH1 0x20 MSTORE DUP3 SWAP1 PUSH1 0x40 SWAP1 KECCAK256 DUP2 SWAP1 PUSH2 0x1F8A PUSH2 0x4B86 JUMP JUMPDEST POP POP POP PUSH2 0x1F97 DUP11 DUP3 PUSH2 0x2972 JUMP JUMPDEST ISZERO PUSH2 0x1FEE JUMPI PUSH2 0x1FA4 PUSH2 0x2894 JUMP JUMPDEST PUSH1 0x1 PUSH1 0x1 PUSH1 0xA0 SHL SUB AND PUSH4 0xABC0BB6E DUP12 PUSH1 0x41 PUSH1 0x40 MLOAD PUSH1 0x1 PUSH1 0x1 PUSH1 0xE0 SHL SUB NOT PUSH1 0xE0 DUP6 SWAP1 SHL AND DUP2 MSTORE PUSH1 0x4 DUP2 ADD SWAP3 SWAP1 SWAP3 MSTORE PUSH1 0x24 DUP3 ADD MSTORE PUSH1 0x44 ADD PUSH1 0x0 PUSH1 0x40 MLOAD DUP1 DUP4 SUB DUP2 PUSH1 0x0 DUP8 DUP1 PUSH2 0x1F1A PUSH2 0x4982 JUMP JUMPDEST PUSH1 0x0 DUP11 DUP2 MSTORE PUSH1 0x5 PUSH1 0x20 MSTORE DUP2 SWAP1 PUSH1 0x40 SWAP1 KECCAK256 DUP2 SWAP1 PUSH2 0x2008 PUSH2 0x4B86 JUMP JUMPDEST POP POP POP PUSH2 0x2013 PUSH2 0x28E2 JUMP JUMPDEST PUSH1 0x1 PUSH1 0x1 PUSH1 0xA0 SHL SUB AND PUSH4 0x32608039 DUP14 PUSH1 0x40 MLOAD PUSH1 0x1 PUSH1 0x1 PUSH1 0xE0 SHL SUB NOT PUSH1 0xE0 DUP5 SWAP1 SHL AND DUP2 MSTORE PUSH1 0x4 DUP2 ADD SWAP2 SWAP1 SWAP2 MSTORE PUSH1 0x24 ADD PUSH1 0x20 PUSH1 0x40 MLOAD DUP1 DUP4 SUB DUP2 DUP7 DUP1 PUSH2 0x2054 PUSH2 0x4982 JUMP JUMPDEST ISZERO DUP1 ISZERO PUSH2 0x2069 JUMPI PUSH1 0x0 DUP1 PUSH2 0x2066 PUSH2 0x48BC JUMP JUMPDEST POP POP JUMPDEST POP GAS PUSH2 0x2073 PUSH2 0x49CE JUMP JUMPDEST POP POP POP POP POP ISZERO DUP1 ISZERO PUSH2 0x2092 JUMPI RETURNDATASIZE PUSH1 0x0 DUP1 RETURNDATACOPY RETURNDATASIZE PUSH1 0x0 PUSH2 0x208F PUSH2 0x48BC JUMP JUMPDEST POP POP JUMPDEST POP POP POP POP PUSH1 0x40 MLOAD RETURNDATASIZE PUSH1 0x20 DUP2 LT ISZERO PUSH2 0x20B1 JUMPI PUSH1 0x0 DUP1 PUSH2 0x20AE PUSH2 0x48BC JUMP JUMPDEST POP POP JUMPDEST DUP2 ADD SWAP1 DUP1 DUP1 MLOAD PUSH1 0x1 PUSH1 0x1 PUSH1 0xA0 SHL SUB AND SWAP3 POP PUSH4 0x9DC29FAC SWAP2 POP DUP16 SWAP1 POP DUP7 PUSH1 0x40 MLOAD PUSH1 0x1 PUSH1 0x1 PUSH1 0xE0 SHL SUB NOT PUSH1 0xE0 DUP6 SWAP1 SHL AND DUP2 MSTORE PUSH1 0x1 PUSH1 0x1 PUSH1 0xA0 SHL SUB SWAP1 SWAP3 AND PUSH1 0x4 DUP4 ADD MSTORE PUSH1 0x24 DUP3 ADD MSTORE PUSH1 0x44 ADD PUSH1 0x0 PUSH1 0x40 MLOAD DUP1 DUP4 SUB DUP2 PUSH1 0x0 DUP8 DUP1 PUSH2 0x210E PUSH2 0x4982 JUMP JUMPDEST ISZERO DUP1 ISZERO PUSH2 0x2123 JUMPI PUSH1 0x0 DUP1 PUSH2 0x2120 PUSH2 0x48BC JUMP JUMPDEST POP POP JUMPDEST POP GAS PUSH2 0x212D PUSH2 0x4ACD JUMP JUMPDEST POP POP POP POP POP POP ISZERO DUP1 ISZERO PUSH2 0x214D JUMPI RETURNDATASIZE PUSH1 0x0 DUP1 RETURNDATACOPY RETURNDATASIZE PUSH1 0x0 PUSH2 0x214A PUSH2 0x48BC JUMP JUMPDEST POP POP JUMPDEST POP POP POP POP PUSH2 0x2159 PUSH2 0x28E2 JUMP JUMPDEST PUSH1 0x1 PUSH1 0x1 PUSH1 0xA0 SHL SUB AND PUSH4 0x32608039 DUP12 PUSH1 0x40 MLOAD PUSH1 0x1 PUSH1 0x1 PUSH1 0xE0 SHL SUB NOT PUSH1 0xE0 DUP5 SWAP1 SHL AND DUP2 MSTORE PUSH1 0x4 DUP2 ADD SWAP2 SWAP1 SWAP2 MSTORE PUSH1 0x24 ADD PUSH1 0x20 PUSH1 0x40 MLOAD DUP1 DUP4 SUB DUP2 DUP7 DUP1 PUSH2 0x219A PUSH2 0x4982 JUMP JUMPDEST ISZERO DUP1 ISZERO PUSH2 0x21AF JUMPI PUSH1 0x0 DUP1 PUSH2 0x21AC PUSH2 0x48BC JUMP JUMPDEST POP POP JUMPDEST POP GAS PUSH2 0x21B9 PUSH2 0x49CE JUMP JUMPDEST POP POP POP POP POP ISZERO DUP1 ISZERO PUSH2 0x21D8 JUMPI RETURNDATASIZE PUSH1 0x0 DUP1 RETURNDATACOPY RETURNDATASIZE PUSH1 0x0 PUSH2 0x21D5 PUSH2 0x48BC JUMP JUMPDEST POP POP JUMPDEST POP POP POP POP PUSH1 0x40 MLOAD RETURNDATASIZE PUSH1 0x20 DUP2 LT ISZERO PUSH2 0x21F7 JUMPI PUSH1 0x0 DUP1 PUSH2 0x21F4 PUSH2 0x48BC JUMP JUMPDEST POP POP JUMPDEST DUP2 ADD SWAP1 DUP1 DUP1 MLOAD PUSH1 0x1 PUSH1 0x1 PUSH1 0xA0 SHL SUB AND SWAP3 POP PUSH4 0x867904B4 SWAP2 POP DUP12 SWAP1 POP DUP11 PUSH1 0x40 MLOAD PUSH1 0x1 PUSH1 0x1 PUSH1 0xE0 SHL SUB NOT PUSH1 0xE0 DUP6 SWAP1 SHL AND DUP2 MSTORE PUSH1 0x1 PUSH1 0x1 PUSH1 0xA0 SHL SUB SWAP1 SWAP3 AND PUSH1 0x4 DUP4 ADD MSTORE PUSH1 0x24 DUP3 ADD MSTORE PUSH1 0x44 ADD PUSH1 0x0 PUSH1 0x40 MLOAD DUP1 DUP4 SUB DUP2 PUSH1 0x0 DUP8 DUP1 PUSH2 0x2254 PUSH2 0x4982 JUMP JUMPDEST ISZERO DUP1 ISZERO PUSH2 0x2269 JUMPI PUSH1 0x0 DUP1 PUSH2 0x2266 PUSH2 0x48BC JUMP JUMPDEST POP POP JUMPDEST POP GAS PUSH2 0x2273 PUSH2 0x4ACD JUMP JUMPDEST POP POP POP POP POP POP ISZERO DUP1 ISZERO PUSH2 0x2293 JUMPI RETURNDATASIZE PUSH1 0x0 DUP1 RETURNDATACOPY RETURNDATASIZE PUSH1 0x0 PUSH2 0x2290 PUSH2 0x48BC JUMP JUMPDEST POP POP JUMPDEST POP POP POP POP PUSH1 0x0 DUP8 GT ISZERO PUSH2 0x25E8 JUMPI PUSH2 0x22A8 PUSH2 0x2923 JUMP JUMPDEST PUSH1 0x1 PUSH1 0x1 PUSH1 0xA0 SHL SUB AND PUSH4 0x654A60AC DUP12 DUP10 PUSH4 0x1CD554D1 PUSH1 0xE2 SHL PUSH1 0x40 MLOAD PUSH1 0x1 PUSH1 0x1 PUSH1 0xE0 SHL SUB NOT PUSH1 0xE0 DUP7 SWAP1 SHL AND DUP2 MSTORE PUSH1 0x4 DUP2 ADD SWAP4 SWAP1 SWAP4 MSTORE PUSH1 0x24 DUP4 ADD SWAP2 SWAP1 SWAP2 MSTORE PUSH1 0x44 DUP3 ADD MSTORE PUSH1 0x64 ADD PUSH1 0x20 PUSH1 0x40 MLOAD DUP1 DUP4 SUB DUP2 DUP7 DUP1 PUSH2 0x22FF PUSH2 0x4982 JUMP JUMPDEST ISZERO DUP1 ISZERO PUSH2 0x2314 JUMPI PUSH1 0x0 DUP1 PUSH2 0x2311 PUSH2 0x48BC JUMP JUMPDEST POP POP JUMPDEST POP GAS PUSH2 0x231E PUSH2 0x49CE JUMP JUMPDEST POP POP POP POP POP ISZERO DUP1 ISZERO PUSH2 0x233D JUMPI RETURNDATASIZE PUSH1 0x0 DUP1 RETURNDATACOPY RETURNDATASIZE PUSH1 0x0 PUSH2 0x233A PUSH2 0x48BC JUMP JUMPDEST POP POP JUMPDEST POP POP POP POP PUSH1 0x40 MLOAD RETURNDATASIZE PUSH1 0x20 DUP2 LT ISZERO PUSH2 0x235C JUMPI PUSH1 0x0 DUP1 PUSH2 0x2359 PUSH2 0x48BC JUMP JUMPDEST POP POP JUMPDEST DUP2 ADD SWAP1 DUP1 DUP1 MLOAD SWAP10 POP PUSH2 0x2371 SWAP3 POP PUSH2 0x28E2 SWAP2 POP POP JUMP JUMPDEST PUSH1 0x1 PUSH1 0x1 PUSH1 0xA0 SHL SUB AND PUSH4 0x32608039 PUSH4 0x1CD554D1 PUSH1 0xE2 SHL PUSH1 0x40 MLOAD PUSH1 0x1 PUSH1 0x1 PUSH1 0xE0 SHL SUB NOT PUSH1 0xE0 DUP5 SWAP1 SHL AND DUP2 MSTORE PUSH1 0x4 DUP2 ADD SWAP2 SWAP1 SWAP2 MSTORE PUSH1 0x24 ADD PUSH1 0x20 PUSH1 0x40 MLOAD DUP1 DUP4 SUB DUP2 DUP7 DUP1 PUSH2 0x23B9 PUSH2 0x4982 JUMP JUMPDEST ISZERO DUP1 ISZERO PUSH2 0x23CE JUMPI PUSH1 0x0 DUP1 PUSH2 0x23CB PUSH2 0x48BC JUMP JUMPDEST POP POP JUMPDEST POP GAS PUSH2 0x23D8 PUSH2 0x49CE JUMP JUMPDEST POP POP POP POP POP ISZERO DUP1 ISZERO PUSH2 0x23F7 JUMPI RETURNDATASIZE PUSH1 0x0 DUP1 RETURNDATACOPY RETURNDATASIZE PUSH1 0x0 PUSH2 0x23F4 PUSH2 0x48BC JUMP JUMPDEST POP POP JUMPDEST POP POP POP POP PUSH1 0x40 MLOAD RETURNDATASIZE PUSH1 0x20 DUP2 LT ISZERO PUSH2 0x2416 JUMPI PUSH1 0x0 DUP1 PUSH2 0x2413 PUSH2 0x48BC JUMP JUMPDEST POP POP JUMPDEST DUP2 ADD SWAP1 DUP1 DUP1 MLOAD PUSH1 0x1 PUSH1 0x1 PUSH1 0xA0 SHL SUB AND SWAP3 POP PUSH4 0x867904B4 SWAP2 POP PUSH2 0x2438 SWAP1 POP PUSH2 0x3B41 JUMP JUMPDEST PUSH1 0x1 PUSH1 0x1 PUSH1 0xA0 SHL SUB AND PUSH4 0xEB1EDD61 PUSH1 0x40 MLOAD DUP2 PUSH4 0xFFFFFFFF AND PUSH1 0xE0 SHL DUP2 MSTORE PUSH1 0x4 ADD PUSH1 0x20 PUSH1 0x40 MLOAD DUP1 DUP4 SUB DUP2 DUP7 DUP1 PUSH2 0x246B PUSH2 0x4982 JUMP JUMPDEST ISZERO DUP1 ISZERO PUSH2 0x2480 JUMPI PUSH1 0x0 DUP1 PUSH2 0x247D PUSH2 0x48BC JUMP JUMPDEST POP POP JUMPDEST POP GAS PUSH2 0x248A PUSH2 0x49CE JUMP JUMPDEST POP POP POP POP POP ISZERO DUP1 ISZERO PUSH2 0x24A9 JUMPI RETURNDATASIZE PUSH1 0x0 DUP1 RETURNDATACOPY RETURNDATASIZE PUSH1 0x0 PUSH2 0x24A6 PUSH2 0x48BC JUMP JUMPDEST POP POP JUMPDEST POP POP POP POP PUSH1 0x40 MLOAD RETURNDATASIZE PUSH1 0x20 DUP2 LT ISZERO PUSH2 0x24C8 JUMPI PUSH1 0x0 DUP1 PUSH2 0x24C5 PUSH2 0x48BC JUMP JUMPDEST POP POP JUMPDEST DUP2 ADD SWAP1 DUP1 DUP1 MLOAD SWAP3 POP DUP12 SWAP2 POP PUSH1 0x40 SWAP1 POP MLOAD PUSH1 0x1 PUSH1 0x1 PUSH1 0xE0 SHL SUB NOT PUSH1 0xE0 DUP6 SWAP1 SHL AND DUP2 MSTORE PUSH1 0x1 PUSH1 0x1 PUSH1 0xA0 SHL SUB SWAP1 SWAP3 AND PUSH1 0x4 DUP4 ADD MSTORE PUSH1 0x24 DUP3 ADD MSTORE PUSH1 0x44 ADD PUSH1 0x0 PUSH1 0x40 MLOAD DUP1 DUP4 SUB DUP2 PUSH1 0x0 DUP8 DUP1 PUSH2 0x2516 PUSH2 0x4982 JUMP JUMPDEST ISZERO DUP1 ISZERO PUSH2 0x252B JUMPI PUSH1 0x0 DUP1 PUSH2 0x2528 PUSH2 0x48BC JUMP JUMPDEST POP POP JUMPDEST POP GAS PUSH2 0x2535 PUSH2 0x4ACD JUMP JUMPDEST POP POP POP POP POP POP ISZERO DUP1 ISZERO PUSH2 0x2555 JUMPI RETURNDATASIZE PUSH1 0x0 DUP1 RETURNDATACOPY RETURNDATASIZE PUSH1 0x0 PUSH2 0x2552 PUSH2 0x48BC JUMP JUMPDEST POP POP JUMPDEST POP POP POP POP PUSH2 0x2561 PUSH2 0x3B41 JUMP JUMPDEST PUSH1 0x1 PUSH1 0x1 PUSH1 0xA0 SHL SUB AND PUSH4 0x22BF55EF DUP9 PUSH1 0x40 MLOAD PUSH1 0x1 PUSH1 0x1 PUSH1 0xE0 SHL SUB NOT PUSH1 0xE0 DUP5 SWAP1 SHL AND DUP2 MSTORE PUSH1 0x4 DUP2 ADD SWAP2 SWAP1 SWAP2 MSTORE PUSH1 0x24 ADD PUSH1 0x0 PUSH1 0x40 MLOAD DUP1 DUP4 SUB DUP2 PUSH1 0x0 DUP8 DUP1 PUSH2 0x25A4 PUSH2 0x4982 JUMP JUMPDEST ISZERO DUP1 ISZERO PUSH2 0x25B9 JUMPI PUSH1 0x0 DUP1 PUSH2 0x25B6 PUSH2 0x48BC JUMP JUMPDEST POP POP JUMPDEST POP GAS PUSH2 0x25C3 PUSH2 0x4ACD JUMP JUMPDEST POP POP POP POP POP POP ISZERO DUP1 ISZERO PUSH2 0x25E3 JUMPI RETURNDATASIZE PUSH1 0x0 DUP1 RETURNDATACOPY RETURNDATASIZE PUSH1 0x0 PUSH2 0x25E0 PUSH2 0x48BC JUMP JUMPDEST POP POP JUMPDEST POP POP POP POP JUMPDEST PUSH2 0x25F0 PUSH2 0x28E2 JUMP JUMPDEST PUSH1 0x1 PUSH1 0x1 PUSH1 0xA0 SHL SUB AND PUSH4 0x9E342F71 PUSH1 0x40 MLOAD PUSH1 0x40 DUP1 DUP3 ADD DUP2 MSTORE DUP16 DUP3 MSTORE PUSH1 0x20 DUP3 ADD DUP15 SWAP1 MSTORE MLOAD PUSH1 0x40 DUP1 DUP3 ADD DUP2 MSTORE DUP7 DUP3 MSTORE PUSH1 0x20 DUP3 ADD DUP7 SWAP1 MSTORE MLOAD PUSH1 0x1 PUSH1 0x1 PUSH1 0xE0 SHL SUB NOT PUSH1 0xE0 DUP6 SWAP1 SHL AND DUP2 MSTORE PUSH1 0x4 ADD DUP1 DUP4 PUSH1 0x40 DUP1 DUP4 DUP4 PUSH1 0x0 JUMPDEST DUP4 DUP2 LT ISZERO PUSH2 0x265B JUMPI DUP1 DUP3 ADD MLOAD DUP4 DUP3 ADD MSTORE PUSH1 0x20 ADD PUSH2 0x2643 JUMP JUMPDEST POP POP POP POP SWAP1 POP ADD DUP3 PUSH1 0x2 PUSH1 0x20 MUL DUP1 DUP4 DUP4 PUSH1 0x0 JUMPDEST DUP4 DUP2 LT ISZERO PUSH2 0x2686 JUMPI DUP1 DUP3 ADD MLOAD DUP4 DUP3 ADD MSTORE PUSH1 0x20 ADD PUSH2 0x266E JUMP JUMPDEST POP POP POP POP SWAP1 POP ADD SWAP3 POP POP POP PUSH1 0x0 PUSH1 0x40 MLOAD DUP1 DUP4 SUB DUP2 PUSH1 0x0 DUP8 DUP1 PUSH2 0x26A6 PUSH2 0x4982 JUMP JUMPDEST ISZERO DUP1 ISZERO PUSH2 0x26BB JUMPI PUSH1 0x0 DUP1 PUSH2 0x26B8 PUSH2 0x48BC JUMP JUMPDEST POP POP JUMPDEST POP GAS PUSH2 0x26C5 PUSH2 0x4ACD JUMP JUMPDEST POP POP POP POP POP POP ISZERO DUP1 ISZERO PUSH2 0x26E5 JUMPI RETURNDATASIZE PUSH1 0x0 DUP1 RETURNDATACOPY RETURNDATASIZE PUSH1 0x0 PUSH2 0x26E2 PUSH2 0x48BC JUMP JUMPDEST POP POP JUMPDEST POP POP POP POP PUSH2 0x26F1 PUSH2 0x1E04 JUMP JUMPDEST PUSH1 0x1 PUSH1 0x1 PUSH1 0xA0 SHL SUB AND PUSH4 0x6C00F310 DUP15 DUP15 DUP8 DUP15 DUP14 DUP16 PUSH1 0x40 MLOAD PUSH1 0x1 PUSH1 0x1 PUSH1 0xE0 SHL SUB NOT PUSH1 0xE0 DUP10 SWAP1 SHL AND DUP2 MSTORE PUSH1 0x1 PUSH1 0x1 PUSH1 0xA0 SHL SUB SWAP7 DUP8 AND PUSH1 0x4 DUP3 ADD MSTORE PUSH1 0x24 DUP2 ADD SWAP6 SWAP1 SWAP6 MSTORE PUSH1 0x44 DUP6 ADD SWAP4 SWAP1 SWAP4 MSTORE PUSH1 0x64 DUP5 ADD SWAP2 SWAP1 SWAP2 MSTORE PUSH1 0x84 DUP4 ADD MSTORE SWAP1 SWAP2 AND PUSH1 0xA4 DUP3 ADD MSTORE PUSH1 0xC4 ADD PUSH1 0x0 PUSH1 0x40 MLOAD DUP1 DUP4 SUB DUP2 PUSH1 0x0 DUP8 DUP1 PUSH2 0x2766 PUSH2 0x4982 JUMP JUMPDEST ISZERO DUP1 ISZERO PUSH2 0x277B JUMPI PUSH1 0x0 DUP1 PUSH2 0x2778 PUSH2 0x48BC JUMP JUMPDEST POP POP JUMPDEST POP GAS PUSH2 0x2785 PUSH2 0x4ACD JUMP JUMPDEST POP POP POP POP POP POP ISZERO DUP1 ISZERO PUSH2 0x27A5 JUMPI RETURNDATASIZE PUSH1 0x0 DUP1 RETURNDATACOPY RETURNDATASIZE PUSH1 0x0 PUSH2 0x27A2 PUSH2 0x48BC JUMP JUMPDEST POP POP JUMPDEST POP POP POP POP PUSH2 0x27B7 DUP10 DUP14 DUP7 DUP14 DUP13 DUP9 PUSH2 0x3B8A JUMP JUMPDEST POP POP POP POP POP POP JUMPDEST SWAP6 POP SWAP6 SWAP4 POP POP POP POP JUMP JUMPDEST PUSH1 0x0 DUP3 GT DUP1 ISZERO PUSH2 0x27E0 JUMPI POP PUSH1 0x1 PUSH1 0x1 PUSH1 0xA0 SHL SUB DUP2 AND ISZERO ISZERO JUMPDEST DUP1 ISZERO PUSH2 0x27EF JUMPI POP PUSH2 0x27EF PUSH2 0x364A JUMP JUMPDEST ISZERO PUSH2 0xF86 JUMPI PUSH2 0x27FC PUSH2 0x3E47 JUMP JUMPDEST PUSH1 0x1 PUSH1 0x1 PUSH1 0xA0 SHL SUB AND PUSH4 0x21CAD774 DUP4 DUP4 PUSH1 0x40 MLOAD PUSH1 0x1 PUSH1 0x1 PUSH1 0xE0 SHL SUB NOT PUSH1 0xE0 DUP6 SWAP1 SHL AND DUP2 MSTORE PUSH1 0x4 DUP2 ADD SWAP3 SWAP1 SWAP3 MSTORE PUSH1 0x1 PUSH1 0x1 PUSH1 0xA0 SHL SUB AND PUSH1 0x24 DUP3 ADD MSTORE PUSH1 0x44 ADD PUSH1 0x0 PUSH1 0x40 MLOAD DUP1 DUP4 SUB DUP2 PUSH1 0x0 DUP8 DUP1 PUSH2 0x284E PUSH2 0x4982 JUMP JUMPDEST ISZERO DUP1 ISZERO PUSH2 0x2863 JUMPI PUSH1 0x0 DUP1 PUSH2 0x2860 PUSH2 0x48BC JUMP JUMPDEST POP POP JUMPDEST POP GAS PUSH2 0x286D PUSH2 0x4ACD JUMP JUMPDEST POP POP POP POP POP POP ISZERO DUP1 ISZERO PUSH2 0x1A6F JUMPI RETURNDATASIZE PUSH1 0x0 DUP1 RETURNDATACOPY RETURNDATASIZE PUSH1 0x0 PUSH2 0x288A PUSH2 0x48BC JUMP JUMPDEST POP POP POP POP POP POP POP POP JUMP JUMPDEST PUSH1 0x0 PUSH2 0xDBB PUSH12 0x53797374656D537461747573 PUSH1 0xA0 SHL PUSH1 0x40 MLOAD PUSH1 0x40 DUP1 DUP3 ADD SWAP1 MSTORE PUSH1 0x1C DUP2 MSTORE PUSH32 0x4D697373696E672053797374656D537461747573206164647265737300000000 PUSH1 0x20 DUP3 ADD MSTORE PUSH2 0x37DD JUMP JUMPDEST PUSH1 0x0 PUSH2 0xDBB PUSH6 0x24B9B9BAB2B9 PUSH1 0xD1 SHL PUSH1 0x40 MLOAD PUSH1 0x40 DUP1 DUP3 ADD SWAP1 MSTORE PUSH1 0x16 DUP2 MSTORE PUSH22 0x4D697373696E67204973737565722061646472657373 PUSH1 0x50 SHL PUSH1 0x20 DUP3 ADD MSTORE PUSH2 0x37DD JUMP JUMPDEST PUSH1 0x0 PUSH2 0xDBB PUSH13 0x45786368616E67655261746573 PUSH1 0x98 SHL PUSH1 0x40 MLOAD PUSH1 0x40 DUP1 DUP3 ADD SWAP1 MSTORE PUSH1 0x1D DUP2 MSTORE PUSH32 0x4D697373696E672045786368616E676552617465732061646472657373000000 PUSH1 0x20 DUP3 ADD MSTORE PUSH2 0x37DD JUMP JUMPDEST PUSH1 0x0 DUP2 PUSH2 0x2981 JUMPI POP PUSH1 0x1 PUSH2 0x7CE JUMP JUMPDEST PUSH1 0x0 DUP4 DUP2 MSTORE PUSH1 0x5 PUSH1 0x20 MSTORE PUSH1 0x40 DUP2 KECCAK256 PUSH2 0x2997 PUSH2 0x4927 JUMP JUMPDEST SWAP1 POP DUP1 ISZERO PUSH2 0x29B1 JUMPI PUSH2 0x29A9 DUP2 DUP5 PUSH2 0x3E97 JUMP JUMPDEST SWAP2 POP POP PUSH2 0x7CE JUMP JUMPDEST PUSH1 0x60 PUSH2 0x29BB PUSH2 0x2923 JUMP JUMPDEST PUSH1 0x1 PUSH1 0x1 PUSH1 0xA0 SHL SUB AND PUSH4 0x2D7371E1 DUP7 PUSH1 0x4 PUSH1 0x40 MLOAD PUSH1 0x1 PUSH1 0x1 PUSH1 0xE0 SHL SUB NOT PUSH1 0xE0 DUP6 SWAP1 SHL AND DUP2 MSTORE PUSH1 0x4 DUP2 ADD SWAP3 SWAP1 SWAP3 MSTORE PUSH1 0x24 DUP3 ADD MSTORE PUSH1 0x44 ADD PUSH1 0x0 PUSH1 0x40 MLOAD DUP1 DUP4 SUB DUP2 DUP7 DUP1 PUSH2 0x2A03 PUSH2 0x4982 JUMP JUMPDEST ISZERO DUP1 ISZERO PUSH2 0x2A18 JUMPI PUSH1 0x0 DUP1 PUSH2 0x2A15 PUSH2 0x48BC JUMP JUMPDEST POP POP JUMPDEST POP GAS PUSH2 0x2A22 PUSH2 0x49CE JUMP JUMPDEST POP POP POP POP POP ISZERO DUP1 ISZERO PUSH2 0x2A41 JUMPI RETURNDATASIZE PUSH1 0x0 DUP1 RETURNDATACOPY RETURNDATASIZE PUSH1 0x0 PUSH2 0x2A3E PUSH2 0x48BC JUMP JUMPDEST POP POP JUMPDEST POP POP POP POP PUSH1 0x40 MLOAD RETURNDATASIZE PUSH1 0x0 DUP3 RETURNDATACOPY PUSH1 0x1F RETURNDATASIZE SWAP1 DUP2 ADD PUSH1 0x1F NOT AND DUP3 ADD PUSH1 0x40 SWAP1 DUP2 MSTORE DUP2 LT ISZERO PUSH2 0x2A73 JUMPI PUSH1 0x0 DUP1 PUSH2 0x2A70 PUSH2 0x48BC JUMP JUMPDEST POP POP JUMPDEST DUP2 ADD SWAP1 DUP1 DUP1 MLOAD PUSH1 0x40 MLOAD SWAP4 SWAP3 SWAP2 SWAP1 DUP5 PUSH5 0x100000000 DUP3 GT ISZERO PUSH2 0x2A9C JUMPI PUSH1 0x0 DUP1 PUSH2 0x2A99 PUSH2 0x48BC JUMP JUMPDEST POP POP JUMPDEST SWAP1 DUP4 ADD SWAP1 PUSH1 0x20 DUP3 ADD DUP6 DUP2 GT ISZERO PUSH2 0x2ABA JUMPI PUSH1 0x0 DUP1 PUSH2 0x2AB7 PUSH2 0x48BC JUMP JUMPDEST POP POP JUMPDEST DUP3 MLOAD DUP7 PUSH1 0x20 DUP3 MUL DUP4 ADD GT PUSH5 0x100000000 DUP3 GT OR ISZERO PUSH2 0x2AE0 JUMPI PUSH1 0x0 DUP1 PUSH2 0x2ADD PUSH2 0x48BC JUMP JUMPDEST POP POP JUMPDEST DUP3 MSTORE POP PUSH1 0x20 ADD SWAP1 DUP1 MLOAD SWAP1 PUSH1 0x20 ADD SWAP1 PUSH1 0x20 MUL DUP1 DUP4 DUP4 PUSH1 0x0 JUMPDEST DUP4 DUP2 LT ISZERO PUSH2 0x2B0F JUMPI DUP1 DUP3 ADD MLOAD DUP4 DUP3 ADD MSTORE PUSH1 0x20 ADD PUSH2 0x2AF7 JUMP JUMPDEST POP POP POP POP SWAP1 POP ADD PUSH1 0x40 MSTORE PUSH1 0x20 ADD DUP1 MLOAD PUSH1 0x40 MLOAD SWAP4 SWAP3 SWAP2 SWAP1 DUP5 PUSH5 0x100000000 DUP3 GT ISZERO PUSH2 0x2B41 JUMPI PUSH1 0x0 DUP1 PUSH2 0x2B3E PUSH2 0x48BC JUMP JUMPDEST POP POP JUMPDEST SWAP1 DUP4 ADD SWAP1 PUSH1 0x20 DUP3 ADD DUP6 DUP2 GT ISZERO PUSH2 0x2B5F JUMPI PUSH1 0x0 DUP1 PUSH2 0x2B5C PUSH2 0x48BC JUMP JUMPDEST POP POP JUMPDEST DUP3 MLOAD DUP7 PUSH1 0x20 DUP3 MUL DUP4 ADD GT PUSH5 0x100000000 DUP3 GT OR ISZERO PUSH2 0x2B85 JUMPI PUSH1 0x0 DUP1 PUSH2 0x2B82 PUSH2 0x48BC JUMP JUMPDEST POP POP JUMPDEST DUP3 MSTORE POP PUSH1 0x20 ADD SWAP1 DUP1 MLOAD SWAP1 PUSH1 0x20 ADD SWAP1 PUSH1 0x20 MUL DUP1 DUP4 DUP4 PUSH1 0x0 JUMPDEST DUP4 DUP2 LT ISZERO PUSH2 0x2BB4 JUMPI DUP1 DUP3 ADD MLOAD DUP4 DUP3 ADD MSTORE PUSH1 0x20 ADD PUSH2 0x2B9C JUMP JUMPDEST POP POP POP POP SWAP1 POP ADD PUSH1 0x40 MSTORE POP POP POP POP SWAP1 POP PUSH1 0x0 PUSH1 0x1 SWAP1 POP JUMPDEST DUP2 MLOAD DUP2 LT ISZERO PUSH2 0x2C28 JUMPI PUSH1 0x0 DUP3 DUP3 DUP2 MLOAD DUP2 LT PUSH2 0x2BE2 JUMPI INVALID JUMPDEST PUSH1 0x20 MUL PUSH1 0x20 ADD ADD MLOAD GT DUP1 ISZERO PUSH2 0x2C0F JUMPI POP PUSH2 0x2C0F DUP3 DUP3 DUP2 MLOAD DUP2 LT PUSH2 0x2C01 JUMPI INVALID JUMPDEST PUSH1 0x20 MUL PUSH1 0x20 ADD ADD MLOAD DUP7 PUSH2 0x3E97 JUMP JUMPDEST ISZERO PUSH2 0x2C20 JUMPI PUSH1 0x1 SWAP4 POP POP POP POP PUSH2 0x7CE JUMP JUMPDEST PUSH1 0x1 ADD PUSH2 0x2BCB JUMP JUMPDEST POP PUSH1 0x0 SWAP6 SWAP5 POP POP POP POP POP JUMP JUMPDEST PUSH1 0x0 DUP1 PUSH2 0x2C3F PUSH2 0x4927 JUMP JUMPDEST SWAP1 PUSH2 0x100 EXP SWAP1 DIV PUSH1 0x1 PUSH1 0x1 PUSH1 0xA0 SHL SUB AND PUSH1 0x1 PUSH1 0x1 PUSH1 0xA0 SHL SUB AND GAS PUSH2 0x2C61 PUSH2 0x4A87 JUMP JUMPDEST PUSH1 0x1 PUSH1 0x1 PUSH1 0xA0 SHL SUB AND EQ PUSH2 0x2CAC JUMPI PUSH1 0x40 MLOAD PUSH3 0x461BCD PUSH1 0xE5 SHL DUP2 MSTORE PUSH1 0x4 ADD DUP1 DUP1 PUSH1 0x20 ADD DUP3 DUP2 SUB DUP3 MSTORE PUSH1 0x2F DUP2 MSTORE PUSH1 0x20 ADD DUP1 PUSH2 0x4D61 PUSH1 0x2F SWAP2 CODECOPY PUSH1 0x40 ADD SWAP2 POP POP PUSH1 0x40 MLOAD DUP1 SWAP2 SUB SWAP1 PUSH2 0xF86 PUSH2 0x48BC JUMP JUMPDEST JUMP JUMPDEST PUSH1 0x0 DUP1 PUSH1 0x0 PUSH1 0x60 PUSH2 0x2CBD PUSH2 0x1D46 JUMP JUMPDEST PUSH1 0x1 PUSH1 0x1 PUSH1 0xA0 SHL SUB AND PUSH4 0xB44E9753 DUP8 DUP8 PUSH1 0x40 MLOAD PUSH1 0x1 PUSH1 0x1 PUSH1 0xE0 SHL SUB NOT PUSH1 0xE0 DUP6 SWAP1 SHL AND DUP2 MSTORE PUSH1 0x1 PUSH1 0x1 PUSH1 0xA0 SHL SUB SWAP1 SWAP3 AND PUSH1 0x4 DUP4 ADD MSTORE PUSH1 0x24 DUP3 ADD MSTORE PUSH1 0x44 ADD PUSH1 0x20 PUSH1 0x40 MLOAD DUP1 DUP4 SUB DUP2 DUP7 DUP1 PUSH2 0x2D0C PUSH2 0x4982 JUMP JUMPDEST ISZERO DUP1 ISZERO PUSH2 0x2D21 JUMPI PUSH1 0x0 DUP1 PUSH2 0x2D1E PUSH2 0x48BC JUMP JUMPDEST POP POP JUMPDEST POP GAS PUSH2 0x2D2B PUSH2 0x49CE JUMP JUMPDEST POP POP POP POP POP ISZERO DUP1 ISZERO PUSH2 0x2D4A JUMPI RETURNDATASIZE PUSH1 0x0 DUP1 RETURNDATACOPY RETURNDATASIZE PUSH1 0x0 PUSH2 0x2D47 PUSH2 0x48BC JUMP JUMPDEST POP POP JUMPDEST POP POP POP POP PUSH1 0x40 MLOAD RETURNDATASIZE PUSH1 0x20 DUP2 LT ISZERO PUSH2 0x2D69 JUMPI PUSH1 0x0 DUP1 PUSH2 0x2D66 PUSH2 0x48BC JUMP JUMPDEST POP POP JUMPDEST DUP2 ADD SWAP1 DUP1 DUP1 MLOAD SWAP5 POP PUSH1 0x60 SWAP3 POP DUP5 SWAP2 POP PUSH1 0x40 SWAP1 POP MLOAD SWAP1 DUP1 DUP3 MSTORE DUP1 PUSH1 0x20 MUL PUSH1 0x20 ADD DUP3 ADD PUSH1 0x40 MSTORE DUP1 ISZERO PUSH2 0x2DB3 JUMPI DUP2 PUSH1 0x20 ADD JUMPDEST PUSH2 0x2DA0 PUSH2 0x4C37 JUMP JUMPDEST DUP2 MSTORE PUSH1 0x20 ADD SWAP1 PUSH1 0x1 SWAP1 SUB SWAP1 DUP2 PUSH2 0x2D98 JUMPI SWAP1 POP JUMPDEST POP SWAP1 POP PUSH1 0x0 JUMPDEST DUP4 DUP2 LT ISZERO PUSH2 0x2FCB JUMPI PUSH1 0x0 DUP1 PUSH2 0x2DCC PUSH2 0x4C37 JUMP JUMPDEST PUSH2 0x2DD7 DUP12 DUP12 DUP7 PUSH2 0x3EF6 JUMP JUMPDEST SWAP1 POP PUSH1 0x0 DUP1 PUSH2 0x2DE5 DUP4 PUSH2 0x4068 JUMP JUMPDEST SWAP2 POP SWAP2 POP PUSH1 0x0 PUSH2 0x2DF3 PUSH2 0x2923 JUMP JUMPDEST PUSH1 0x1 PUSH1 0x1 PUSH1 0xA0 SHL SUB AND PUSH4 0x266DA16B DUP6 MLOAD DUP7 PUSH1 0x20 ADD MLOAD DUP8 PUSH1 0x40 ADD MLOAD DUP8 DUP8 PUSH1 0x40 MLOAD PUSH1 0x1 PUSH1 0x1 PUSH1 0xE0 SHL SUB NOT PUSH1 0xE0 DUP9 SWAP1 SHL AND DUP2 MSTORE PUSH1 0x4 DUP2 ADD SWAP6 SWAP1 SWAP6 MSTORE PUSH1 0x24 DUP6 ADD SWAP4 SWAP1 SWAP4 MSTORE PUSH1 0x44 DUP5 ADD SWAP2 SWAP1 SWAP2 MSTORE PUSH1 0x64 DUP4 ADD MSTORE PUSH1 0x84 DUP3 ADD MSTORE PUSH1 0xA4 ADD PUSH1 0x20 PUSH1 0x40 MLOAD DUP1 DUP4 SUB DUP2 DUP7 DUP1 PUSH2 0x2E5B PUSH2 0x4982 JUMP JUMPDEST ISZERO DUP1 ISZERO PUSH2 0x2E70 JUMPI PUSH1 0x0 DUP1 PUSH2 0x2E6D PUSH2 0x48BC JUMP JUMPDEST POP POP JUMPDEST POP GAS PUSH2 0x2E7A PUSH2 0x49CE JUMP JUMPDEST POP POP POP POP POP ISZERO DUP1 ISZERO PUSH2 0x2E99 JUMPI RETURNDATASIZE PUSH1 0x0 DUP1 RETURNDATACOPY RETURNDATASIZE PUSH1 0x0 PUSH2 0x2E96 PUSH2 0x48BC JUMP JUMPDEST POP POP JUMPDEST POP POP POP POP PUSH1 0x40 MLOAD RETURNDATASIZE PUSH1 0x20 DUP2 LT ISZERO PUSH2 0x2EB8 JUMPI PUSH1 0x0 DUP1 PUSH2 0x2EB5 PUSH2 0x48BC JUMP JUMPDEST POP POP JUMPDEST DUP2 ADD SWAP1 DUP1 DUP1 MLOAD SWAP4 POP PUSH1 0x0 SWAP3 POP PUSH2 0x2ED6 SWAP2 POP DUP4 SWAP1 POP PUSH1 0x80 DUP8 ADD MLOAD PUSH2 0x421F JUMP JUMPDEST SWAP1 POP PUSH2 0x2EE6 DUP6 PUSH1 0x60 ADD MLOAD DUP3 PUSH2 0x3E97 JUMP JUMPDEST PUSH2 0x2F5A JUMPI DUP1 DUP6 PUSH1 0x60 ADD MLOAD GT ISZERO PUSH2 0x2F24 JUMPI PUSH2 0x2F0B DUP2 DUP7 PUSH1 0x60 ADD MLOAD SWAP1 PUSH4 0xFFFFFFFF PUSH2 0x38A6 AND JUMP JUMPDEST SWAP7 POP PUSH2 0x2F1D DUP14 DUP9 PUSH4 0xFFFFFFFF PUSH2 0x3495 AND JUMP JUMPDEST SWAP13 POP PUSH2 0x2F5A JUMP JUMPDEST DUP5 PUSH1 0x60 ADD MLOAD DUP2 GT ISZERO PUSH2 0x2F5A JUMPI PUSH2 0x2F45 DUP6 PUSH1 0x60 ADD MLOAD DUP3 SWAP1 PUSH4 0xFFFFFFFF PUSH2 0x38A6 AND JUMP JUMPDEST SWAP6 POP PUSH2 0x2F57 DUP13 DUP8 PUSH4 0xFFFFFFFF PUSH2 0x3495 AND JUMP JUMPDEST SWAP12 POP JUMPDEST PUSH1 0x40 MLOAD PUSH2 0x100 DUP2 ADD PUSH1 0x40 MSTORE DUP1 DUP7 MLOAD DUP2 MSTORE PUSH1 0x20 ADD DUP7 PUSH1 0x20 ADD MLOAD DUP2 MSTORE PUSH1 0x20 ADD DUP7 PUSH1 0x40 ADD MLOAD DUP2 MSTORE PUSH1 0x20 ADD DUP9 DUP2 MSTORE PUSH1 0x20 ADD DUP8 DUP2 MSTORE PUSH1 0x20 ADD DUP6 DUP2 MSTORE PUSH1 0x20 ADD DUP5 DUP2 MSTORE PUSH1 0x20 ADD DUP7 PUSH1 0xA0 ADD MLOAD SWAP1 MSTORE DUP10 DUP10 DUP2 MLOAD DUP2 LT PUSH2 0x2FAC JUMPI INVALID JUMPDEST PUSH1 0x20 MUL PUSH1 0x20 ADD ADD DUP2 SWAP1 MSTORE POP POP POP POP POP POP POP POP DUP1 DUP1 PUSH1 0x1 ADD SWAP2 POP POP PUSH2 0x2DB9 JUMP JUMPDEST POP SWAP1 POP SWAP3 SWAP6 SWAP2 SWAP5 POP SWAP3 POP JUMP JUMPDEST PUSH1 0x0 PUSH2 0x7CB DUP3 PUSH2 0x42E8 JUMP JUMPDEST PUSH1 0x0 DUP1 PUSH1 0x0 PUSH2 0x2FF1 DUP7 DUP7 PUSH2 0x702 JUMP JUMPDEST ISZERO PUSH2 0x3036 JUMPI PUSH1 0x40 MLOAD PUSH3 0x461BCD PUSH1 0xE5 SHL DUP2 MSTORE PUSH1 0x4 ADD DUP1 DUP1 PUSH1 0x20 ADD DUP3 DUP2 SUB DUP3 MSTORE PUSH1 0x23 DUP2 MSTORE PUSH1 0x20 ADD DUP1 PUSH2 0x4DD3 PUSH1 0x23 SWAP2 CODECOPY PUSH1 0x40 ADD SWAP2 POP POP PUSH1 0x40 MLOAD DUP1 SWAP2 SUB SWAP1 PUSH2 0x3033 PUSH2 0x48BC JUMP JUMPDEST POP POP JUMPDEST PUSH1 0x0 DUP1 PUSH1 0x0 PUSH1 0x60 PUSH2 0x3047 DUP11 DUP11 PUSH2 0x2CAE JUMP JUMPDEST SWAP4 POP SWAP4 POP SWAP4 POP SWAP4 POP DUP3 DUP5 GT ISZERO PUSH2 0x3079 JUMPI PUSH2 0x3067 DUP5 DUP5 PUSH4 0xFFFFFFFF PUSH2 0x38A6 AND JUMP JUMPDEST SWAP7 POP PUSH2 0x3074 DUP11 DUP11 DUP10 PUSH2 0x43F6 JUMP JUMPDEST PUSH2 0x309E JUMP JUMPDEST DUP4 DUP4 GT ISZERO PUSH2 0x309E JUMPI PUSH2 0x3091 DUP4 DUP6 PUSH4 0xFFFFFFFF PUSH2 0x38A6 AND JUMP JUMPDEST SWAP6 POP PUSH2 0x309E DUP11 DUP11 DUP9 PUSH2 0x459E JUMP JUMPDEST DUP8 ISZERO PUSH2 0x31B9 JUMPI PUSH1 0x60 PUSH1 0x1 PUSH1 0x40 MLOAD SWAP1 DUP1 DUP3 MSTORE DUP1 PUSH1 0x20 MUL PUSH1 0x20 ADD DUP3 ADD PUSH1 0x40 MSTORE DUP1 ISZERO PUSH2 0x30D1 JUMPI DUP2 PUSH1 0x20 ADD PUSH1 0x20 DUP3 MUL DUP1 CODESIZE DUP4 CODECOPY ADD SWAP1 POP JUMPDEST POP SWAP1 POP DUP10 DUP2 PUSH1 0x0 DUP2 MLOAD DUP2 LT PUSH2 0x30E2 JUMPI INVALID JUMPDEST PUSH1 0x20 MUL PUSH1 0x20 ADD ADD DUP2 DUP2 MSTORE POP POP PUSH2 0x30F6 PUSH2 0x28E2 JUMP JUMPDEST PUSH1 0x1 PUSH1 0x1 PUSH1 0xA0 SHL SUB AND PUSH4 0xFE1D77E7 DUP3 PUSH1 0x40 MLOAD DUP3 PUSH4 0xFFFFFFFF AND PUSH1 0xE0 SHL DUP2 MSTORE PUSH1 0x4 ADD DUP1 DUP1 PUSH1 0x20 ADD DUP3 DUP2 SUB DUP3 MSTORE DUP4 DUP2 DUP2 MLOAD DUP2 MSTORE PUSH1 0x20 ADD SWAP2 POP DUP1 MLOAD SWAP1 PUSH1 0x20 ADD SWAP1 PUSH1 0x20 MUL DUP1 DUP4 DUP4 PUSH1 0x0 JUMPDEST DUP4 DUP2 LT ISZERO PUSH2 0x3154 JUMPI DUP1 DUP3 ADD MLOAD DUP4 DUP3 ADD MSTORE PUSH1 0x20 ADD PUSH2 0x313C JUMP JUMPDEST POP POP POP POP SWAP1 POP ADD SWAP3 POP POP POP PUSH1 0x0 PUSH1 0x40 MLOAD DUP1 DUP4 SUB DUP2 PUSH1 0x0 DUP8 DUP1 PUSH2 0x3174 PUSH2 0x4982 JUMP JUMPDEST ISZERO DUP1 ISZERO PUSH2 0x3189 JUMPI PUSH1 0x0 DUP1 PUSH2 0x3186 PUSH2 0x48BC JUMP JUMPDEST POP POP JUMPDEST POP GAS PUSH2 0x3193 PUSH2 0x4ACD JUMP JUMPDEST POP POP POP POP POP POP ISZERO DUP1 ISZERO PUSH2 0x31B3 JUMPI RETURNDATASIZE PUSH1 0x0 DUP1 RETURNDATACOPY RETURNDATASIZE PUSH1 0x0 PUSH2 0x31B0 PUSH2 0x48BC JUMP JUMPDEST POP POP JUMPDEST POP POP POP POP POP JUMPDEST PUSH1 0x0 JUMPDEST DUP2 MLOAD DUP2 LT ISZERO PUSH2 0x32FB JUMPI DUP11 PUSH1 0x1 PUSH1 0x1 PUSH1 0xA0 SHL SUB AND PUSH32 0x8E3AD1F68BEC55DE3B6FA12AE2674A2A683A17C918A4CBF5157AC5D9DDC6E940 DUP4 DUP4 DUP2 MLOAD DUP2 LT PUSH2 0x31FC JUMPI INVALID JUMPDEST PUSH1 0x20 MUL PUSH1 0x20 ADD ADD MLOAD MLOAD DUP5 DUP5 DUP2 MLOAD DUP2 LT PUSH2 0x3211 JUMPI INVALID JUMPDEST PUSH1 0x20 MUL PUSH1 0x20 ADD ADD MLOAD PUSH1 0x20 ADD MLOAD DUP6 DUP6 DUP2 MLOAD DUP2 LT PUSH2 0x3229 JUMPI INVALID JUMPDEST PUSH1 0x20 MUL PUSH1 0x20 ADD ADD MLOAD PUSH1 0x40 ADD MLOAD DUP7 DUP7 DUP2 MLOAD DUP2 LT PUSH2 0x3241 JUMPI INVALID JUMPDEST PUSH1 0x20 MUL PUSH1 0x20 ADD ADD MLOAD PUSH1 0x60 ADD MLOAD DUP8 DUP8 DUP2 MLOAD DUP2 LT PUSH2 0x3259 JUMPI INVALID JUMPDEST PUSH1 0x20 MUL PUSH1 0x20 ADD ADD MLOAD PUSH1 0x80 ADD MLOAD DUP9 DUP9 DUP2 MLOAD DUP2 LT PUSH2 0x3271 JUMPI INVALID JUMPDEST PUSH1 0x20 MUL PUSH1 0x20 ADD ADD MLOAD PUSH1 0xA0 ADD MLOAD DUP10 DUP10 DUP2 MLOAD DUP2 LT PUSH2 0x3289 JUMPI INVALID JUMPDEST PUSH1 0x20 MUL PUSH1 0x20 ADD ADD MLOAD PUSH1 0xC0 ADD MLOAD DUP11 DUP11 DUP2 MLOAD DUP2 LT PUSH2 0x32A1 JUMPI INVALID JUMPDEST PUSH1 0x20 MUL PUSH1 0x20 ADD ADD MLOAD PUSH1 0xE0 ADD MLOAD PUSH1 0x40 MLOAD DUP1 DUP10 DUP2 MSTORE PUSH1 0x20 ADD DUP9 DUP2 MSTORE PUSH1 0x20 ADD DUP8 DUP2 MSTORE PUSH1 0x20 ADD DUP7 DUP2 MSTORE PUSH1 0x20 ADD DUP6 DUP2 MSTORE PUSH1 0x20 ADD DUP5 DUP2 MSTORE PUSH1 0x20 ADD DUP4 DUP2 MSTORE PUSH1 0x20 ADD DUP3 DUP2 MSTORE PUSH1 0x20 ADD SWAP9 POP POP POP POP POP POP POP POP POP PUSH1 0x40 MLOAD DUP1 SWAP2 SUB SWAP1 LOG2 PUSH1 0x1 ADD PUSH2 0x31BC JUMP JUMPDEST POP DUP2 SWAP5 POP PUSH2 0x3307 PUSH2 0x1D46 JUMP JUMPDEST PUSH1 0x1 PUSH1 0x1 PUSH1 0xA0 SHL SUB AND PUSH4 0xD0D3D62A DUP12 DUP12 PUSH1 0x40 MLOAD PUSH1 0x1 PUSH1 0x1 PUSH1 0xE0 SHL SUB NOT PUSH1 0xE0 DUP6 SWAP1 SHL AND DUP2 MSTORE PUSH1 0x1 PUSH1 0x1 PUSH1 0xA0 SHL SUB SWAP1 SWAP3 AND PUSH1 0x4 DUP4 ADD MSTORE PUSH1 0x24 DUP3 ADD MSTORE PUSH1 0x44 ADD PUSH1 0x0 PUSH1 0x40 MLOAD DUP1 DUP4 SUB DUP2 PUSH1 0x0 DUP8 DUP1 PUSH2 0x3358 PUSH2 0x4982 JUMP JUMPDEST ISZERO DUP1 ISZERO PUSH2 0x336D JUMPI PUSH1 0x0 DUP1 PUSH2 0x336A PUSH2 0x48BC JUMP JUMPDEST POP POP JUMPDEST POP GAS PUSH2 0x3377 PUSH2 0x4ACD JUMP JUMPDEST POP POP POP POP POP POP ISZERO DUP1 ISZERO PUSH2 0x3397 JUMPI RETURNDATASIZE PUSH1 0x0 DUP1 RETURNDATACOPY RETURNDATASIZE PUSH1 0x0 PUSH2 0x3394 PUSH2 0x48BC JUMP JUMPDEST POP POP JUMPDEST POP POP POP POP POP POP POP POP SWAP4 POP SWAP4 POP SWAP4 SWAP1 POP JUMP JUMPDEST PUSH1 0x0 PUSH2 0x33B2 PUSH2 0x4746 JUMP JUMPDEST PUSH1 0x1 PUSH1 0x1 PUSH1 0xA0 SHL SUB AND PUSH4 0x23257C2B PUSH14 0x53797374656D53657474696E6773 PUSH1 0x90 SHL PUSH32 0x7072696365446576696174696F6E5468726573686F6C64466163746F72000000 PUSH1 0x40 MLOAD PUSH1 0x1 PUSH1 0x1 PUSH1 0xE0 SHL SUB NOT PUSH1 0xE0 DUP6 SWAP1 SHL AND DUP2 MSTORE PUSH1 0x4 DUP2 ADD SWAP3 SWAP1 SWAP3 MSTORE PUSH1 0x24 DUP3 ADD MSTORE PUSH1 0x44 ADD PUSH1 0x20 PUSH1 0x40 MLOAD DUP1 DUP4 SUB DUP2 DUP7 DUP1 PUSH2 0x342A PUSH2 0x4982 JUMP JUMPDEST ISZERO DUP1 ISZERO PUSH2 0x343F JUMPI PUSH1 0x0 DUP1 PUSH2 0x343C PUSH2 0x48BC JUMP JUMPDEST POP POP JUMPDEST POP GAS PUSH2 0x3449 PUSH2 0x49CE JUMP JUMPDEST POP POP POP POP POP ISZERO DUP1 ISZERO PUSH2 0x3468 JUMPI RETURNDATASIZE PUSH1 0x0 DUP1 RETURNDATACOPY RETURNDATASIZE PUSH1 0x0 PUSH2 0x3465 PUSH2 0x48BC JUMP JUMPDEST POP POP JUMPDEST POP POP POP POP PUSH1 0x40 MLOAD RETURNDATASIZE PUSH1 0x20 DUP2 LT ISZERO PUSH2 0x3487 JUMPI PUSH1 0x0 DUP1 PUSH2 0x3484 PUSH2 0x48BC JUMP JUMPDEST POP POP JUMPDEST DUP2 ADD SWAP1 DUP1 DUP1 MLOAD SWAP4 POP POP POP POP SWAP1 JUMP JUMPDEST PUSH1 0x0 DUP3 DUP3 ADD DUP4 DUP2 LT ISZERO PUSH2 0x7CB JUMPI PUSH1 0x40 MLOAD PUSH3 0x461BCD PUSH1 0xE5 SHL DUP2 MSTORE PUSH1 0x20 PUSH1 0x4 DUP3 ADD MSTORE PUSH1 0x1B PUSH1 0x24 DUP3 ADD MSTORE PUSH32 0x536166654D6174683A206164646974696F6E206F766572666C6F770000000000 PUSH1 0x44 DUP3 ADD MSTORE PUSH1 0x64 ADD PUSH1 0x40 MLOAD DUP1 SWAP2 SUB SWAP1 PUSH2 0x34F4 PUSH2 0x48BC JUMP JUMPDEST POP POP SWAP4 SWAP3 POP POP POP JUMP JUMPDEST PUSH1 0x0 PUSH2 0xDBB PUSH17 0x44656C6567617465417070726F76616C73 PUSH1 0x78 SHL PUSH1 0x40 MLOAD PUSH1 0x60 DUP2 ADD PUSH1 0x40 MSTORE PUSH1 0x21 DUP1 DUP3 MSTORE PUSH2 0x4CFB PUSH1 0x20 DUP4 ADD CODECOPY PUSH2 0x37DD JUMP JUMPDEST PUSH2 0x353B PUSH2 0x1E04 JUMP JUMPDEST PUSH1 0x1 PUSH1 0x1 PUSH1 0xA0 SHL SUB AND PUSH4 0xDDD03A3F DUP5 DUP5 DUP5 PUSH1 0x40 MLOAD PUSH1 0x1 PUSH1 0x1 PUSH1 0xE0 SHL SUB NOT PUSH1 0xE0 DUP7 SWAP1 SHL AND DUP2 MSTORE PUSH1 0x4 DUP2 ADD SWAP4 SWAP1 SWAP4 MSTORE PUSH1 0x24 DUP4 ADD SWAP2 SWAP1 SWAP2 MSTORE PUSH1 0x44 DUP3 ADD MSTORE PUSH1 0x64 ADD PUSH1 0x0 PUSH1 0x40 MLOAD DUP1 DUP4 SUB DUP2 PUSH1 0x0 DUP8 DUP1 PUSH2 0x358D PUSH2 0x4982 JUMP JUMPDEST ISZERO DUP1 ISZERO PUSH2 0x35A2 JUMPI PUSH1 0x0 DUP1 PUSH2 0x359F PUSH2 0x48BC JUMP JUMPDEST POP POP JUMPDEST POP GAS PUSH2 0x35AC PUSH2 0x4ACD JUMP JUMPDEST POP POP POP POP POP POP ISZERO DUP1 ISZERO PUSH2 0xC5A JUMPI RETURNDATASIZE PUSH1 0x0 DUP1 RETURNDATACOPY RETURNDATASIZE PUSH1 0x0 PUSH2 0x35C9 PUSH2 0x48BC JUMP JUMPDEST POP POP POP POP POP POP POP POP POP JUMP JUMPDEST PUSH1 0x0 PUSH2 0x35DE PUSH2 0x4746 JUMP JUMPDEST PUSH1 0x1 PUSH1 0x1 PUSH1 0xA0 SHL SUB AND PUSH4 0x23257C2B PUSH14 0x53797374656D53657474696E6773 PUSH1 0x90 SHL PUSH17 0x77616974696E67506572696F6453656373 PUSH1 0x78 SHL PUSH1 0x40 MLOAD PUSH1 0x1 PUSH1 0x1 PUSH1 0xE0 SHL SUB NOT PUSH1 0xE0 DUP6 SWAP1 SHL AND DUP2 MSTORE PUSH1 0x4 DUP2 ADD SWAP3 SWAP1 SWAP3 MSTORE PUSH1 0x24 DUP3 ADD MSTORE PUSH1 0x44 ADD PUSH1 0x20 PUSH1 0x40 MLOAD DUP1 DUP4 SUB DUP2 DUP7 DUP1 PUSH2 0x342A PUSH2 0x4982 JUMP JUMPDEST PUSH1 0x0 PUSH2 0x3654 PUSH2 0x4746 JUMP JUMPDEST PUSH1 0x1 PUSH1 0x1 PUSH1 0xA0 SHL SUB AND PUSH4 0xD994502D PUSH14 0x53797374656D53657474696E6773 PUSH1 0x90 SHL PUSH21 0x1D1C98591A5B99D4995DD85C991CD15B98589B1959 PUSH1 0x5A SHL PUSH1 0x40 MLOAD PUSH1 0x1 PUSH1 0x1 PUSH1 0xE0 SHL SUB NOT PUSH1 0xE0 DUP6 SWAP1 SHL AND DUP2 MSTORE PUSH1 0x4 DUP2 ADD SWAP3 SWAP1 SWAP3 MSTORE PUSH1 0x24 DUP3 ADD MSTORE PUSH1 0x44 ADD PUSH1 0x20 PUSH1 0x40 MLOAD DUP1 DUP4 SUB DUP2 DUP7 DUP1 PUSH2 0x342A PUSH2 0x4982 JUMP JUMPDEST PUSH1 0x0 DUP1 PUSH1 0x0 DUP1 PUSH1 0x0 DUP1 PUSH2 0x36D5 PUSH2 0x2923 JUMP JUMPDEST PUSH1 0x1 PUSH1 0x1 PUSH1 0xA0 SHL SUB AND PUSH4 0x8295016A DUP10 DUP12 DUP11 PUSH1 0x40 MLOAD PUSH1 0x1 PUSH1 0x1 PUSH1 0xE0 SHL SUB NOT PUSH1 0xE0 DUP7 SWAP1 SHL AND DUP2 MSTORE PUSH1 0x4 DUP2 ADD SWAP4 SWAP1 SWAP4 MSTORE PUSH1 0x24 DUP4 ADD SWAP2 SWAP1 SWAP2 MSTORE PUSH1 0x44 DUP3 ADD MSTORE PUSH1 0x64 ADD PUSH1 0x60 PUSH1 0x40 MLOAD DUP1 DUP4 SUB DUP2 DUP7 DUP1 PUSH2 0x3725 PUSH2 0x4982 JUMP JUMPDEST ISZERO DUP1 ISZERO PUSH2 0x373A JUMPI PUSH1 0x0 DUP1 PUSH2 0x3737 PUSH2 0x48BC JUMP JUMPDEST POP POP JUMPDEST POP GAS PUSH2 0x3744 PUSH2 0x49CE JUMP JUMPDEST POP POP POP POP POP ISZERO DUP1 ISZERO PUSH2 0x3763 JUMPI RETURNDATASIZE PUSH1 0x0 DUP1 RETURNDATACOPY RETURNDATASIZE PUSH1 0x0 PUSH2 0x3760 PUSH2 0x48BC JUMP JUMPDEST POP POP JUMPDEST POP POP POP POP PUSH1 0x40 MLOAD RETURNDATASIZE PUSH1 0x60 DUP2 LT ISZERO PUSH2 0x3782 JUMPI PUSH1 0x0 DUP1 PUSH2 0x377F PUSH2 0x48BC JUMP JUMPDEST POP POP JUMPDEST DUP2 ADD SWAP1 DUP1 DUP1 MLOAD SWAP3 SWAP2 SWAP1 PUSH1 0x20 ADD DUP1 MLOAD SWAP3 SWAP2 SWAP1 PUSH1 0x20 ADD DUP1 MLOAD SWAP4 SWAP8 POP SWAP3 SWAP6 POP SWAP3 SWAP4 POP PUSH2 0x37B1 SWAP3 POP DUP11 SWAP2 POP DUP10 SWAP1 POP PUSH2 0x2FD7 JUMP JUMPDEST SWAP4 POP PUSH2 0x37BD DUP2 DUP6 PUSH2 0x421F JUMP JUMPDEST SWAP6 POP PUSH2 0x37CF DUP2 DUP8 PUSH4 0xFFFFFFFF PUSH2 0x38A6 AND JUMP JUMPDEST SWAP5 POP POP SWAP4 SWAP8 SWAP3 SWAP7 POP SWAP4 POP SWAP4 POP JUMP JUMPDEST PUSH1 0x0 DUP3 DUP2 MSTORE PUSH1 0x3 PUSH1 0x20 MSTORE DUP1 PUSH1 0x40 DUP2 KECCAK256 PUSH1 0x0 SWAP1 PUSH2 0x37F7 PUSH2 0x4927 JUMP JUMPDEST PUSH1 0x1 PUSH1 0x1 PUSH1 0xA0 SHL SUB PUSH2 0x100 SWAP3 SWAP1 SWAP3 EXP SWAP1 DIV AND SWAP1 POP DUP3 DUP2 PUSH2 0x389E JUMPI PUSH1 0x40 MLOAD PUSH3 0x461BCD PUSH1 0xE5 SHL DUP2 MSTORE PUSH1 0x4 ADD DUP1 DUP1 PUSH1 0x20 ADD DUP3 DUP2 SUB DUP3 MSTORE DUP4 DUP2 DUP2 MLOAD DUP2 MSTORE PUSH1 0x20 ADD SWAP2 POP DUP1 MLOAD SWAP1 PUSH1 0x20 ADD SWAP1 DUP1 DUP4 DUP4 PUSH1 0x0 JUMPDEST DUP4 DUP2 LT ISZERO PUSH2 0x385A JUMPI DUP1 DUP3 ADD MLOAD DUP4 DUP3 ADD MSTORE PUSH1 0x20 ADD PUSH2 0x3842 JUMP JUMPDEST POP POP POP POP SWAP1 POP SWAP1 DUP2 ADD SWAP1 PUSH1 0x1F AND DUP1 ISZERO PUSH2 0x3887 JUMPI DUP1 DUP3 SUB DUP1 MLOAD PUSH1 0x1 DUP4 PUSH1 0x20 SUB PUSH2 0x100 EXP SUB NOT AND DUP2 MSTORE PUSH1 0x20 ADD SWAP2 POP JUMPDEST POP SWAP3 POP POP POP PUSH1 0x40 MLOAD DUP1 SWAP2 SUB SWAP1 PUSH2 0x389B PUSH2 0x48BC JUMP JUMPDEST POP POP JUMPDEST POP SWAP4 SWAP3 POP POP POP JUMP JUMPDEST PUSH1 0x0 DUP3 DUP3 GT ISZERO PUSH2 0x3905 JUMPI PUSH1 0x40 MLOAD PUSH3 0x461BCD PUSH1 0xE5 SHL DUP2 MSTORE PUSH1 0x20 PUSH1 0x4 DUP3 ADD MSTORE PUSH1 0x1E PUSH1 0x24 DUP3 ADD MSTORE PUSH32 0x536166654D6174683A207375627472616374696F6E206F766572666C6F770000 PUSH1 0x44 DUP3 ADD MSTORE PUSH1 0x64 ADD PUSH1 0x40 MLOAD DUP1 SWAP2 SUB SWAP1 PUSH2 0x3902 PUSH2 0x48BC JUMP JUMPDEST POP POP JUMPDEST POP SWAP1 SUB SWAP1 JUMP JUMPDEST DUP1 DUP4 EQ ISZERO PUSH2 0x395E JUMPI PUSH1 0x40 MLOAD PUSH3 0x461BCD PUSH1 0xE5 SHL DUP2 MSTORE PUSH1 0x20 PUSH1 0x4 DUP3 ADD MSTORE PUSH1 0x13 PUSH1 0x24 DUP3 ADD MSTORE PUSH19 0x86C2DC4EE840C4CA40E6C2DACA40E6F2DCE8D PUSH1 0x6B SHL PUSH1 0x44 DUP3 ADD MSTORE PUSH1 0x64 ADD PUSH1 0x40 MLOAD DUP1 SWAP2 SUB SWAP1 PUSH2 0x395B PUSH2 0x48BC JUMP JUMPDEST POP POP JUMPDEST PUSH1 0x0 DUP3 GT PUSH2 0x39A9 JUMPI PUSH1 0x40 MLOAD PUSH3 0x461BCD PUSH1 0xE5 SHL DUP2 MSTORE PUSH1 0x20 PUSH1 0x4 DUP3 ADD MSTORE PUSH1 0xB PUSH1 0x24 DUP3 ADD MSTORE PUSH11 0x16995C9BC8185B5BDD5B9D PUSH1 0xAA SHL PUSH1 0x44 DUP3 ADD MSTORE PUSH1 0x64 ADD PUSH1 0x40 MLOAD DUP1 SWAP2 SUB SWAP1 PUSH2 0x39A6 PUSH2 0x48BC JUMP JUMPDEST POP POP JUMPDEST PUSH1 0x60 PUSH1 0x2 PUSH1 0x40 MLOAD SWAP1 DUP1 DUP3 MSTORE DUP1 PUSH1 0x20 MUL PUSH1 0x20 ADD DUP3 ADD PUSH1 0x40 MSTORE DUP1 ISZERO PUSH2 0x39D6 JUMPI DUP2 PUSH1 0x20 ADD PUSH1 0x20 DUP3 MUL DUP1 CODESIZE DUP4 CODECOPY ADD SWAP1 POP JUMPDEST POP SWAP1 POP DUP4 DUP2 PUSH1 0x0 DUP2 MLOAD DUP2 LT PUSH2 0x39E7 JUMPI INVALID JUMPDEST PUSH1 0x20 MUL PUSH1 0x20 ADD ADD DUP2 DUP2 MSTORE POP POP DUP2 DUP2 PUSH1 0x1 DUP2 MLOAD DUP2 LT PUSH2 0x3A01 JUMPI INVALID JUMPDEST PUSH1 0x20 MUL PUSH1 0x20 ADD ADD DUP2 DUP2 MSTORE POP POP PUSH2 0x3A15 PUSH2 0x2923 JUMP JUMPDEST PUSH1 0x1 PUSH1 0x1 PUSH1 0xA0 SHL SUB AND PUSH4 0xA7D36D1 DUP3 PUSH1 0x40 MLOAD DUP3 PUSH4 0xFFFFFFFF AND PUSH1 0xE0 SHL DUP2 MSTORE PUSH1 0x4 ADD DUP1 DUP1 PUSH1 0x20 ADD DUP3 DUP2 SUB DUP3 MSTORE DUP4 DUP2 DUP2 MLOAD DUP2 MSTORE PUSH1 0x20 ADD SWAP2 POP DUP1 MLOAD SWAP1 PUSH1 0x20 ADD SWAP1 PUSH1 0x20 MUL DUP1 DUP4 DUP4 PUSH1 0x0 JUMPDEST DUP4 DUP2 LT ISZERO PUSH2 0x3A73 JUMPI DUP1 DUP3 ADD MLOAD DUP4 DUP3 ADD MSTORE PUSH1 0x20 ADD PUSH2 0x3A5B JUMP JUMPDEST POP POP POP POP SWAP1 POP ADD SWAP3 POP POP POP PUSH1 0x20 PUSH1 0x40 MLOAD DUP1 DUP4 SUB DUP2 DUP7 DUP1 PUSH2 0x3A91 PUSH2 0x4982 JUMP JUMPDEST ISZERO DUP1 ISZERO PUSH2 0x3AA6 JUMPI PUSH1 0x0 DUP1 PUSH2 0x3AA3 PUSH2 0x48BC JUMP JUMPDEST POP POP JUMPDEST POP GAS PUSH2 0x3AB0 PUSH2 0x49CE JUMP JUMPDEST POP POP POP POP POP ISZERO DUP1 ISZERO PUSH2 0x3ACF JUMPI RETURNDATASIZE PUSH1 0x0 DUP1 RETURNDATACOPY RETURNDATASIZE PUSH1 0x0 PUSH2 0x3ACC PUSH2 0x48BC JUMP JUMPDEST POP POP JUMPDEST POP POP POP POP PUSH1 0x40 MLOAD RETURNDATASIZE PUSH1 0x20 DUP2 LT ISZERO PUSH2 0x3AEE JUMPI PUSH1 0x0 DUP1 PUSH2 0x3AEB PUSH2 0x48BC JUMP JUMPDEST POP POP JUMPDEST DUP2 ADD SWAP1 DUP1 DUP1 MLOAD ISZERO SWAP3 POP PUSH2 0x3B3B SWAP2 POP POP JUMPI PUSH1 0x40 MLOAD PUSH3 0x461BCD PUSH1 0xE5 SHL DUP2 MSTORE PUSH1 0x4 ADD DUP1 DUP1 PUSH1 0x20 ADD DUP3 DUP2 SUB DUP3 MSTORE PUSH1 0x22 DUP2 MSTORE PUSH1 0x20 ADD DUP1 PUSH2 0x4DB1 PUSH1 0x22 SWAP2 CODECOPY PUSH1 0x40 ADD SWAP2 POP POP PUSH1 0x40 MLOAD DUP1 SWAP2 SUB SWAP1 PUSH2 0x1A6F PUSH2 0x48BC JUMP JUMPDEST POP POP POP POP JUMP JUMPDEST PUSH1 0x0 PUSH2 0xDBB PUSH7 0x119959541BDBDB PUSH1 0xCA SHL PUSH1 0x40 MLOAD PUSH1 0x40 DUP1 DUP3 ADD SWAP1 MSTORE PUSH1 0x17 DUP2 MSTORE PUSH32 0x4D697373696E6720466565506F6F6C2061646472657373000000000000000000 PUSH1 0x20 DUP3 ADD MSTORE PUSH2 0x37DD JUMP JUMPDEST PUSH1 0x0 PUSH2 0x3B94 PUSH2 0x2923 JUMP JUMPDEST SWAP1 POP PUSH1 0x0 DUP2 PUSH1 0x1 PUSH1 0x1 PUSH1 0xA0 SHL SUB AND PUSH4 0x7A018A1E DUP9 PUSH1 0x40 MLOAD PUSH1 0x1 PUSH1 0x1 PUSH1 0xE0 SHL SUB NOT PUSH1 0xE0 DUP5 SWAP1 SHL AND DUP2 MSTORE PUSH1 0x4 DUP2 ADD SWAP2 SWAP1 SWAP2 MSTORE PUSH1 0x24 ADD PUSH1 0x20 PUSH1 0x40 MLOAD DUP1 DUP4 SUB DUP2 DUP7 DUP1 PUSH2 0x3BDA PUSH2 0x4982 JUMP JUMPDEST ISZERO DUP1 ISZERO PUSH2 0x3BEF JUMPI PUSH1 0x0 DUP1 PUSH2 0x3BEC PUSH2 0x48BC JUMP JUMPDEST POP POP JUMPDEST POP GAS PUSH2 0x3BF9 PUSH2 0x49CE JUMP JUMPDEST POP POP POP POP POP ISZERO DUP1 ISZERO PUSH2 0x3C18 JUMPI RETURNDATASIZE PUSH1 0x0 DUP1 RETURNDATACOPY RETURNDATASIZE PUSH1 0x0 PUSH2 0x3C15 PUSH2 0x48BC JUMP JUMPDEST POP POP JUMPDEST POP POP POP POP PUSH1 0x40 MLOAD RETURNDATASIZE PUSH1 0x20 DUP2 LT ISZERO PUSH2 0x3C37 JUMPI PUSH1 0x0 DUP1 PUSH2 0x3C34 PUSH2 0x48BC JUMP JUMPDEST POP POP JUMPDEST DUP2 ADD SWAP1 DUP1 DUP1 MLOAD SWAP4 POP PUSH1 0x0 SWAP3 POP POP POP PUSH1 0x1 PUSH1 0x1 PUSH1 0xA0 SHL SUB DUP4 AND PUSH4 0x7A018A1E DUP8 PUSH1 0x40 MLOAD PUSH1 0x1 PUSH1 0x1 PUSH1 0xE0 SHL SUB NOT PUSH1 0xE0 DUP5 SWAP1 SHL AND DUP2 MSTORE PUSH1 0x4 DUP2 ADD SWAP2 SWAP1 SWAP2 MSTORE PUSH1 0x24 ADD PUSH1 0x20 PUSH1 0x40 MLOAD DUP1 DUP4 SUB DUP2 DUP7 DUP1 PUSH2 0x3C87 PUSH2 0x4982 JUMP JUMPDEST ISZERO DUP1 ISZERO PUSH2 0x3C9C JUMPI PUSH1 0x0 DUP1 PUSH2 0x3C99 PUSH2 0x48BC JUMP JUMPDEST POP POP JUMPDEST POP GAS PUSH2 0x3CA6 PUSH2 0x49CE JUMP JUMPDEST POP POP POP POP POP ISZERO DUP1 ISZERO PUSH2 0x3CC5 JUMPI RETURNDATASIZE PUSH1 0x0 DUP1 RETURNDATACOPY RETURNDATASIZE PUSH1 0x0 PUSH2 0x3CC2 PUSH2 0x48BC JUMP JUMPDEST POP POP JUMPDEST POP POP POP POP PUSH1 0x40 MLOAD RETURNDATASIZE PUSH1 0x20 DUP2 LT ISZERO PUSH2 0x3CE4 JUMPI PUSH1 0x0 DUP1 PUSH2 0x3CE1 PUSH2 0x48BC JUMP JUMPDEST POP POP JUMPDEST DUP2 ADD SWAP1 DUP1 DUP1 MLOAD SWAP4 POP PUSH2 0x3CF9 SWAP3 POP PUSH2 0x1D46 SWAP2 POP POP JUMP JUMPDEST PUSH1 0x1 PUSH1 0x1 PUSH1 0xA0 SHL SUB AND PUSH4 0x3CA9D85C DUP11 DUP11 DUP11 DUP11 DUP11 DUP11 GAS PUSH2 0x3D16 PUSH2 0x4BF1 JUMP JUMPDEST DUP11 DUP11 PUSH1 0x40 MLOAD PUSH1 0x1 PUSH1 0x1 PUSH1 0xE0 SHL SUB NOT PUSH1 0xE0 DUP13 SWAP1 SHL AND DUP2 MSTORE PUSH1 0x1 PUSH1 0x1 PUSH1 0xA0 SHL SUB SWAP1 SWAP10 AND PUSH1 0x4 DUP11 ADD MSTORE PUSH1 0x24 DUP10 ADD SWAP8 SWAP1 SWAP8 MSTORE PUSH1 0x44 DUP9 ADD SWAP6 SWAP1 SWAP6 MSTORE PUSH1 0x64 DUP8 ADD SWAP4 SWAP1 SWAP4 MSTORE PUSH1 0x84 DUP7 ADD SWAP2 SWAP1 SWAP2 MSTORE PUSH1 0xA4 DUP6 ADD MSTORE PUSH1 0xC4 DUP5 ADD MSTORE PUSH1 0xE4 DUP4 ADD MSTORE PUSH2 0x104 DUP3 ADD MSTORE PUSH2 0x124 ADD PUSH1 0x0 PUSH1 0x40 MLOAD DUP1 DUP4 SUB DUP2 PUSH1 0x0 DUP8 DUP1 PUSH2 0x3D8A PUSH2 0x4982 JUMP JUMPDEST ISZERO DUP1 ISZERO PUSH2 0x3D9F JUMPI PUSH1 0x0 DUP1 PUSH2 0x3D9C PUSH2 0x48BC JUMP JUMPDEST POP POP JUMPDEST POP GAS PUSH2 0x3DA9 PUSH2 0x4ACD JUMP JUMPDEST POP POP POP POP POP POP ISZERO DUP1 ISZERO PUSH2 0x3DC9 JUMPI RETURNDATASIZE PUSH1 0x0 DUP1 RETURNDATACOPY RETURNDATASIZE PUSH1 0x0 PUSH2 0x3DC6 PUSH2 0x48BC JUMP JUMPDEST POP POP JUMPDEST POP POP POP POP DUP9 PUSH1 0x1 PUSH1 0x1 PUSH1 0xA0 SHL SUB AND PUSH32 0x62E40D554C7ABCDD31074960D8347A2225DAEB04D93BC748F049BA2CE9462398 DUP10 DUP10 DUP10 DUP10 DUP10 DUP9 DUP9 PUSH1 0x40 MLOAD SWAP7 DUP8 MSTORE PUSH1 0x20 DUP8 ADD SWAP6 SWAP1 SWAP6 MSTORE PUSH1 0x40 DUP1 DUP8 ADD SWAP5 SWAP1 SWAP5 MSTORE PUSH1 0x60 DUP7 ADD SWAP3 SWAP1 SWAP3 MSTORE PUSH1 0x80 DUP6 ADD MSTORE PUSH1 0xA0 DUP5 ADD MSTORE PUSH1 0xC0 DUP4 ADD SWAP2 SWAP1 SWAP2 MSTORE PUSH1 0xE0 SWAP1 SWAP2 ADD SWAP1 MLOAD DUP1 SWAP2 SUB SWAP1 LOG2 POP POP POP POP POP POP POP POP POP JUMP JUMPDEST PUSH1 0x0 PUSH2 0xDBB PUSH14 0x54726164696E6752657761726473 PUSH1 0x90 SHL PUSH1 0x40 MLOAD PUSH1 0x40 DUP1 DUP3 ADD SWAP1 MSTORE PUSH1 0x1E DUP2 MSTORE PUSH32 0x4D697373696E672054726164696E675265776172647320616464726573730000 PUSH1 0x20 DUP3 ADD MSTORE PUSH2 0x37DD JUMP JUMPDEST PUSH1 0x0 DUP3 ISZERO DUP1 PUSH2 0x3EA4 JUMPI POP DUP2 ISZERO JUMPDEST ISZERO PUSH2 0x3EB1 JUMPI POP PUSH1 0x1 PUSH2 0x7CE JUMP JUMPDEST PUSH1 0x0 DUP4 DUP4 GT ISZERO PUSH2 0x3ED2 JUMPI PUSH2 0x3ECB DUP4 DUP6 PUSH4 0xFFFFFFFF PUSH2 0x4797 AND JUMP JUMPDEST SWAP1 POP PUSH2 0x3EE5 JUMP JUMPDEST PUSH2 0x3EE2 DUP5 DUP5 PUSH4 0xFFFFFFFF PUSH2 0x4797 AND JUMP JUMPDEST SWAP1 POP JUMPDEST PUSH2 0x3EED PUSH2 0x33A8 JUMP JUMPDEST GT ISZERO SWAP4 SWAP3 POP POP POP JUMP JUMPDEST PUSH2 0x3EFE PUSH2 0x4C37 JUMP JUMPDEST PUSH1 0x0 DUP1 PUSH1 0x0 DUP1 PUSH1 0x0 DUP1 PUSH1 0x0 DUP1 PUSH2 0x3F12 PUSH2 0x1D46 JUMP JUMPDEST PUSH1 0x1 PUSH1 0x1 PUSH1 0xA0 SHL SUB AND PUSH4 0x15987EB6 DUP14 DUP14 DUP14 PUSH1 0x40 MLOAD PUSH1 0x1 PUSH1 0x1 PUSH1 0xE0 SHL SUB NOT PUSH1 0xE0 DUP7 SWAP1 SHL AND DUP2 MSTORE PUSH1 0x1 PUSH1 0x1 PUSH1 0xA0 SHL SUB SWAP1 SWAP4 AND PUSH1 0x4 DUP5 ADD MSTORE PUSH1 0x24 DUP4 ADD SWAP2 SWAP1 SWAP2 MSTORE PUSH1 0x44 DUP3 ADD MSTORE PUSH1 0x64 ADD PUSH2 0x100 PUSH1 0x40 MLOAD DUP1 DUP4 SUB DUP2 DUP7 DUP1 PUSH2 0x3F6B PUSH2 0x4982 JUMP JUMPDEST ISZERO DUP1 ISZERO PUSH2 0x3F80 JUMPI PUSH1 0x0 DUP1 PUSH2 0x3F7D PUSH2 0x48BC JUMP JUMPDEST POP POP JUMPDEST POP GAS PUSH2 0x3F8A PUSH2 0x49CE JUMP JUMPDEST POP POP POP POP POP ISZERO DUP1 ISZERO PUSH2 0x3FA9 JUMPI RETURNDATASIZE PUSH1 0x0 DUP1 RETURNDATACOPY RETURNDATASIZE PUSH1 0x0 PUSH2 0x3FA6 PUSH2 0x48BC JUMP JUMPDEST POP POP JUMPDEST POP POP POP POP PUSH1 0x40 MLOAD RETURNDATASIZE PUSH2 0x100 DUP2 LT ISZERO PUSH2 0x3FC9 JUMPI PUSH1 0x0 DUP1 PUSH2 0x3FC6 PUSH2 0x48BC JUMP JUMPDEST POP POP JUMPDEST DUP2 ADD SWAP1 DUP1 DUP1 MLOAD SWAP3 SWAP2 SWAP1 PUSH1 0x20 ADD DUP1 MLOAD SWAP3 SWAP2 SWAP1 PUSH1 0x20 ADD DUP1 MLOAD SWAP3 SWAP2 SWAP1 PUSH1 0x20 ADD DUP1 MLOAD SWAP3 SWAP2 SWAP1 PUSH1 0x20 ADD DUP1 MLOAD SWAP3 SWAP2 SWAP1 PUSH1 0x20 ADD DUP1 MLOAD SWAP3 SWAP2 SWAP1 PUSH1 0x20 ADD DUP1 MLOAD SWAP3 SWAP2 SWAP1 PUSH1 0x20 ADD DUP1 MLOAD SWAP1 PUSH1 0x20 ADD SWAP1 SWAP3 SWAP2 SWAP1 POP POP POP SWAP8 POP SWAP8 POP SWAP8 POP SWAP8 POP SWAP8 POP SWAP8 POP SWAP8 POP SWAP8 POP PUSH1 0x40 MLOAD PUSH2 0x100 DUP2 ADD PUSH1 0x40 SWAP1 DUP2 MSTORE SWAP9 DUP2 MSTORE PUSH1 0x20 DUP2 ADD SWAP8 SWAP1 SWAP8 MSTORE SWAP7 DUP7 ADD SWAP5 SWAP1 SWAP5 MSTORE PUSH1 0x60 DUP6 ADD SWAP3 SWAP1 SWAP3 MSTORE PUSH1 0x80 DUP5 ADD MSTORE PUSH1 0xA0 DUP4 ADD MSTORE PUSH1 0xC0 DUP3 ADD MSTORE PUSH1 0xE0 DUP2 ADD SWAP2 SWAP1 SWAP2 MSTORE SWAP5 SWAP4 POP POP POP POP JUMP JUMPDEST PUSH1 0x0 DUP1 PUSH1 0x0 PUSH2 0x4075 PUSH2 0x2923 JUMP JUMPDEST SWAP1 POP PUSH1 0x0 PUSH2 0x4081 PUSH2 0x35D4 JUMP JUMPDEST SWAP1 POP PUSH1 0x1 PUSH1 0x1 PUSH1 0xA0 SHL SUB DUP3 AND PUSH4 0x109E46A2 DUP7 MLOAD DUP8 PUSH1 0xC0 ADD MLOAD DUP9 PUSH1 0xA0 ADD MLOAD DUP6 PUSH1 0x40 MLOAD PUSH1 0x1 PUSH1 0x1 PUSH1 0xE0 SHL SUB NOT PUSH1 0xE0 DUP8 SWAP1 SHL AND DUP2 MSTORE PUSH1 0x4 DUP2 ADD SWAP5 SWAP1 SWAP5 MSTORE PUSH1 0x24 DUP5 ADD SWAP3 SWAP1 SWAP3 MSTORE PUSH1 0x44 DUP4 ADD MSTORE PUSH1 0x64 DUP3 ADD MSTORE PUSH1 0x84 ADD PUSH1 0x20 PUSH1 0x40 MLOAD DUP1 DUP4 SUB DUP2 DUP7 DUP1 PUSH2 0x40E3 PUSH2 0x4982 JUMP JUMPDEST ISZERO DUP1 ISZERO PUSH2 0x40F8 JUMPI PUSH1 0x0 DUP1 PUSH2 0x40F5 PUSH2 0x48BC JUMP JUMPDEST POP POP JUMPDEST POP GAS PUSH2 0x4102 PUSH2 0x49CE JUMP JUMPDEST POP POP POP POP POP ISZERO DUP1 ISZERO PUSH2 0x4121 JUMPI RETURNDATASIZE PUSH1 0x0 DUP1 RETURNDATACOPY RETURNDATASIZE PUSH1 0x0 PUSH2 0x411E PUSH2 0x48BC JUMP JUMPDEST POP POP JUMPDEST POP POP POP POP PUSH1 0x40 MLOAD RETURNDATASIZE PUSH1 0x20 DUP2 LT ISZERO PUSH2 0x4140 JUMPI PUSH1 0x0 DUP1 PUSH2 0x413D PUSH2 0x48BC JUMP JUMPDEST POP POP JUMPDEST DUP2 ADD SWAP1 DUP1 DUP1 MLOAD SWAP7 POP POP POP PUSH1 0x1 PUSH1 0x1 PUSH1 0xA0 SHL SUB DUP4 AND SWAP1 POP PUSH4 0x109E46A2 PUSH1 0x40 DUP8 ADD MLOAD DUP8 PUSH1 0xE0 ADD MLOAD DUP9 PUSH1 0xA0 ADD MLOAD DUP6 PUSH1 0x40 MLOAD PUSH1 0x1 PUSH1 0x1 PUSH1 0xE0 SHL SUB NOT PUSH1 0xE0 DUP8 SWAP1 SHL AND DUP2 MSTORE PUSH1 0x4 DUP2 ADD SWAP5 SWAP1 SWAP5 MSTORE PUSH1 0x24 DUP5 ADD SWAP3 SWAP1 SWAP3 MSTORE PUSH1 0x44 DUP4 ADD MSTORE PUSH1 0x64 DUP3 ADD MSTORE PUSH1 0x84 ADD PUSH1 0x20 PUSH1 0x40 MLOAD DUP1 DUP4 SUB DUP2 DUP7 DUP1 PUSH2 0x41AF PUSH2 0x4982 JUMP JUMPDEST ISZERO DUP1 ISZERO PUSH2 0x41C4 JUMPI PUSH1 0x0 DUP1 PUSH2 0x41C1 PUSH2 0x48BC JUMP JUMPDEST POP POP JUMPDEST POP GAS PUSH2 0x41CE PUSH2 0x49CE JUMP JUMPDEST POP POP POP POP POP ISZERO DUP1 ISZERO PUSH2 0x41ED JUMPI RETURNDATASIZE PUSH1 0x0 DUP1 RETURNDATACOPY RETURNDATASIZE PUSH1 0x0 PUSH2 0x41EA PUSH2 0x48BC JUMP JUMPDEST POP POP JUMPDEST POP POP POP POP PUSH1 0x40 MLOAD RETURNDATASIZE PUSH1 0x20 DUP2 LT ISZERO PUSH2 0x420C JUMPI PUSH1 0x0 DUP1 PUSH2 0x4209 PUSH2 0x48BC JUMP JUMPDEST POP POP JUMPDEST DUP2 ADD SWAP1 DUP1 DUP1 MLOAD SWAP7 SWAP9 SWAP7 SWAP8 POP POP POP POP POP POP POP JUMP JUMPDEST PUSH1 0x0 PUSH2 0x7CB PUSH2 0x42DB DUP4 PUSH20 0x0 PUSH4 0x907AF6C0 PUSH1 0x40 MLOAD DUP2 PUSH4 0xFFFFFFFF AND PUSH1 0xE0 SHL DUP2 MSTORE PUSH1 0x4 ADD PUSH1 0x20 PUSH1 0x40 MLOAD DUP1 DUP4 SUB DUP2 DUP7 DUP1 PUSH2 0x4267 PUSH2 0x4982 JUMP JUMPDEST ISZERO DUP1 ISZERO PUSH2 0x427C JUMPI PUSH1 0x0 DUP1 PUSH2 0x4279 PUSH2 0x48BC JUMP JUMPDEST POP POP JUMPDEST POP GAS PUSH2 0x4286 PUSH2 0x4C82 JUMP JUMPDEST POP POP POP POP POP ISZERO DUP1 ISZERO PUSH2 0x42A5 JUMPI RETURNDATASIZE PUSH1 0x0 DUP1 RETURNDATACOPY RETURNDATASIZE PUSH1 0x0 PUSH2 0x42A2 PUSH2 0x48BC JUMP JUMPDEST POP POP JUMPDEST POP POP POP POP PUSH1 0x40 MLOAD RETURNDATASIZE PUSH1 0x20 DUP2 LT ISZERO PUSH2 0x42C4 JUMPI PUSH1 0x0 DUP1 PUSH2 0x42C1 PUSH2 0x48BC JUMP JUMPDEST POP POP JUMPDEST DUP2 ADD SWAP1 DUP1 DUP1 MLOAD SWAP4 SWAP3 POP POP PUSH4 0xFFFFFFFF PUSH2 0x38A6 AND SWAP1 POP JUMP JUMPDEST DUP5 SWAP1 PUSH4 0xFFFFFFFF PUSH2 0x47C1 AND JUMP JUMPDEST PUSH1 0x0 PUSH2 0x42F2 PUSH2 0x4746 JUMP JUMPDEST PUSH1 0x1 PUSH1 0x1 PUSH1 0xA0 SHL SUB AND PUSH4 0x23257C2B PUSH14 0x53797374656D53657474696E6773 PUSH1 0x90 SHL PUSH15 0x65786368616E676546656552617465 PUSH1 0x88 SHL DUP6 PUSH1 0x40 MLOAD PUSH1 0x20 ADD DUP1 DUP4 DUP2 MSTORE PUSH1 0x20 ADD DUP3 DUP2 MSTORE PUSH1 0x20 ADD SWAP3 POP POP POP PUSH1 0x40 MLOAD PUSH1 0x20 DUP2 DUP4 SUB SUB DUP2 MSTORE SWAP1 PUSH1 0x40 MSTORE DUP1 MLOAD SWAP1 PUSH1 0x20 ADD KECCAK256 PUSH1 0x40 MLOAD PUSH1 0x1 PUSH1 0x1 PUSH1 0xE0 SHL SUB NOT PUSH1 0xE0 DUP6 SWAP1 SHL AND DUP2 MSTORE PUSH1 0x4 DUP2 ADD SWAP3 SWAP1 SWAP3 MSTORE PUSH1 0x24 DUP3 ADD MSTORE PUSH1 0x44 ADD PUSH1 0x20 PUSH1 0x40 MLOAD DUP1 DUP4 SUB DUP2 DUP7 DUP1 PUSH2 0x438A PUSH2 0x4982 JUMP JUMPDEST ISZERO DUP1 ISZERO PUSH2 0x439F JUMPI PUSH1 0x0 DUP1 PUSH2 0x439C PUSH2 0x48BC JUMP JUMPDEST POP POP JUMPDEST POP GAS PUSH2 0x43A9 PUSH2 0x49CE JUMP JUMPDEST POP POP POP POP POP ISZERO DUP1 ISZERO PUSH2 0x43C8 JUMPI RETURNDATASIZE PUSH1 0x0 DUP1 RETURNDATACOPY RETURNDATASIZE PUSH1 0x0 PUSH2 0x43C5 PUSH2 0x48BC JUMP JUMPDEST POP POP JUMPDEST POP POP POP POP PUSH1 0x40 MLOAD RETURNDATASIZE PUSH1 0x20 DUP2 LT ISZERO PUSH2 0x43E7 JUMPI PUSH1 0x0 DUP1 PUSH2 0x43E4 PUSH2 0x48BC JUMP JUMPDEST POP POP JUMPDEST DUP2 ADD SWAP1 DUP1 DUP1 MLOAD SWAP6 SWAP5 POP POP POP POP POP JUMP JUMPDEST PUSH2 0x43FE PUSH2 0x28E2 JUMP JUMPDEST PUSH1 0x1 PUSH1 0x1 PUSH1 0xA0 SHL SUB AND PUSH4 0x32608039 DUP4 PUSH1 0x40 MLOAD PUSH1 0x1 PUSH1 0x1 PUSH1 0xE0 SHL SUB NOT PUSH1 0xE0 DUP5 SWAP1 SHL AND DUP2 MSTORE PUSH1 0x4 DUP2 ADD SWAP2 SWAP1 SWAP2 MSTORE PUSH1 0x24 ADD PUSH1 0x20 PUSH1 0x40 MLOAD DUP1 DUP4 SUB DUP2 DUP7 DUP1 PUSH2 0x443F PUSH2 0x4982 JUMP JUMPDEST ISZERO DUP1 ISZERO PUSH2 0x4454 JUMPI PUSH1 0x0 DUP1 PUSH2 0x4451 PUSH2 0x48BC JUMP JUMPDEST POP POP JUMPDEST POP GAS PUSH2 0x445E PUSH2 0x49CE JUMP JUMPDEST POP POP POP POP POP ISZERO DUP1 ISZERO PUSH2 0x447D JUMPI RETURNDATASIZE PUSH1 0x0 DUP1 RETURNDATACOPY RETURNDATASIZE PUSH1 0x0 PUSH2 0x447A PUSH2 0x48BC JUMP JUMPDEST POP POP JUMPDEST POP POP POP POP PUSH1 0x40 MLOAD RETURNDATASIZE PUSH1 0x20 DUP2 LT ISZERO PUSH2 0x449C JUMPI PUSH1 0x0 DUP1 PUSH2 0x4499 PUSH2 0x48BC JUMP JUMPDEST POP POP JUMPDEST DUP2 ADD SWAP1 DUP1 DUP1 MLOAD PUSH1 0x1 PUSH1 0x1 PUSH1 0xA0 SHL SUB AND SWAP3 POP PUSH4 0x9DC29FAC SWAP2 POP DUP6 SWAP1 POP DUP4 PUSH1 0x40 MLOAD PUSH1 0x1 PUSH1 0x1 PUSH1 0xE0 SHL SUB NOT PUSH1 0xE0 DUP6 SWAP1 SHL AND DUP2 MSTORE PUSH1 0x1 PUSH1 0x1 PUSH1 0xA0 SHL SUB SWAP1 SWAP3 AND PUSH1 0x4 DUP4 ADD MSTORE PUSH1 0x24 DUP3 ADD MSTORE PUSH1 0x44 ADD PUSH1 0x0 PUSH1 0x40 MLOAD DUP1 DUP4 SUB DUP2 PUSH1 0x0 DUP8 DUP1 PUSH2 0x44F9 PUSH2 0x4982 JUMP JUMPDEST ISZERO DUP1 ISZERO PUSH2 0x450E JUMPI PUSH1 0x0 DUP1 PUSH2 0x450B PUSH2 0x48BC JUMP JUMPDEST POP POP JUMPDEST POP GAS PUSH2 0x4518 PUSH2 0x4ACD JUMP JUMPDEST POP POP POP POP POP POP ISZERO DUP1 ISZERO PUSH2 0x4538 JUMPI RETURNDATASIZE PUSH1 0x0 DUP1 RETURNDATACOPY RETURNDATASIZE PUSH1 0x0 PUSH2 0x4535 PUSH2 0x48BC JUMP JUMPDEST POP POP JUMPDEST POP POP POP POP PUSH2 0x4544 PUSH2 0x1E04 JUMP JUMPDEST PUSH1 0x1 PUSH1 0x1 PUSH1 0xA0 SHL SUB AND PUSH4 0xACE88AFD DUP5 DUP5 DUP5 PUSH1 0x40 MLOAD PUSH1 0x1 PUSH1 0x1 PUSH1 0xE0 SHL SUB NOT PUSH1 0xE0 DUP7 SWAP1 SHL AND DUP2 MSTORE PUSH1 0x1 PUSH1 0x1 PUSH1 0xA0 SHL SUB SWAP1 SWAP4 AND PUSH1 0x4 DUP5 ADD MSTORE PUSH1 0x24 DUP4 ADD SWAP2 SWAP1 SWAP2 MSTORE PUSH1 0x44 DUP3 ADD MSTORE PUSH1 0x64 ADD PUSH1 0x0 PUSH1 0x40 MLOAD DUP1 DUP4 SUB DUP2 PUSH1 0x0 DUP8 DUP1 PUSH2 0x358D PUSH2 0x4982 JUMP JUMPDEST PUSH2 0x45A6 PUSH2 0x28E2 JUMP JUMPDEST PUSH1 0x1 PUSH1 0x1 PUSH1 0xA0 SHL SUB AND PUSH4 0x32608039 DUP4 PUSH1 0x40 MLOAD PUSH1 0x1 PUSH1 0x1 PUSH1 0xE0 SHL SUB NOT PUSH1 0xE0 DUP5 SWAP1 SHL AND DUP2 MSTORE PUSH1 0x4 DUP2 ADD SWAP2 SWAP1 SWAP2 MSTORE PUSH1 0x24 ADD PUSH1 0x20 PUSH1 0x40 MLOAD DUP1 DUP4 SUB DUP2 DUP7 DUP1 PUSH2 0x45E7 PUSH2 0x4982 JUMP JUMPDEST ISZERO DUP1 ISZERO PUSH2 0x45FC JUMPI PUSH1 0x0 DUP1 PUSH2 0x45F9 PUSH2 0x48BC JUMP JUMPDEST POP POP JUMPDEST POP GAS PUSH2 0x4606 PUSH2 0x49CE JUMP JUMPDEST POP POP POP POP POP ISZERO DUP1 ISZERO PUSH2 0x4625 JUMPI RETURNDATASIZE PUSH1 0x0 DUP1 RETURNDATACOPY RETURNDATASIZE PUSH1 0x0 PUSH2 0x4622 PUSH2 0x48BC JUMP JUMPDEST POP POP JUMPDEST POP POP POP POP PUSH1 0x40 MLOAD RETURNDATASIZE PUSH1 0x20 DUP2 LT ISZERO PUSH2 0x4644 JUMPI PUSH1 0x0 DUP1 PUSH2 0x4641 PUSH2 0x48BC JUMP JUMPDEST POP POP JUMPDEST DUP2 ADD SWAP1 DUP1 DUP1 MLOAD PUSH1 0x1 PUSH1 0x1 PUSH1 0xA0 SHL SUB AND SWAP3 POP PUSH4 0x867904B4 SWAP2 POP DUP6 SWAP1 POP DUP4 PUSH1 0x40 MLOAD PUSH1 0x1 PUSH1 0x1 PUSH1 0xE0 SHL SUB NOT PUSH1 0xE0 DUP6 SWAP1 SHL AND DUP2 MSTORE PUSH1 0x1 PUSH1 0x1 PUSH1 0xA0 SHL SUB SWAP1 SWAP3 AND PUSH1 0x4 DUP4 ADD MSTORE PUSH1 0x24 DUP3 ADD MSTORE PUSH1 0x44 ADD PUSH1 0x0 PUSH1 0x40 MLOAD DUP1 DUP4 SUB DUP2 PUSH1 0x0 DUP8 DUP1 PUSH2 0x46A1 PUSH2 0x4982 JUMP JUMPDEST ISZERO DUP1 ISZERO PUSH2 0x46B6 JUMPI PUSH1 0x0 DUP1 PUSH2 0x46B3 PUSH2 0x48BC JUMP JUMPDEST POP POP JUMPDEST POP GAS PUSH2 0x46C0 PUSH2 0x4ACD JUMP JUMPDEST POP POP POP POP POP POP ISZERO DUP1 ISZERO PUSH2 0x46E0 JUMPI RETURNDATASIZE PUSH1 0x0 DUP1 RETURNDATACOPY RETURNDATASIZE PUSH1 0x0 PUSH2 0x46DD PUSH2 0x48BC JUMP JUMPDEST POP POP JUMPDEST POP POP POP POP PUSH2 0x46EC PUSH2 0x1E04 JUMP JUMPDEST PUSH1 0x1 PUSH1 0x1 PUSH1 0xA0 SHL SUB AND PUSH4 0x6F01A986 DUP5 DUP5 DUP5 PUSH1 0x40 MLOAD PUSH1 0x1 PUSH1 0x1 PUSH1 0xE0 SHL SUB NOT PUSH1 0xE0 DUP7 SWAP1 SHL AND DUP2 MSTORE PUSH1 0x1 PUSH1 0x1 PUSH1 0xA0 SHL SUB SWAP1 SWAP4 AND PUSH1 0x4 DUP5 ADD MSTORE PUSH1 0x24 DUP4 ADD SWAP2 SWAP1 SWAP2 MSTORE PUSH1 0x44 DUP3 ADD MSTORE PUSH1 0x64 ADD PUSH1 0x0 PUSH1 0x40 MLOAD DUP1 DUP4 SUB DUP2 PUSH1 0x0 DUP8 DUP1 PUSH2 0x358D PUSH2 0x4982 JUMP JUMPDEST PUSH1 0x0 PUSH2 0xDBB PUSH15 0x466C657869626C6553746F72616765 PUSH1 0x88 SHL PUSH1 0x40 MLOAD PUSH1 0x40 DUP1 DUP3 ADD SWAP1 MSTORE PUSH1 0x1F DUP2 MSTORE PUSH32 0x4D697373696E6720466C657869626C6553746F72616765206164647265737300 PUSH1 0x20 DUP3 ADD MSTORE PUSH2 0x37DD JUMP JUMPDEST PUSH1 0x0 PUSH2 0x7CB DUP3 PUSH2 0x47B5 DUP6 PUSH8 0xDE0B6B3A7640000 PUSH4 0xFFFFFFFF PUSH2 0x47EB AND JUMP JUMPDEST SWAP1 PUSH4 0xFFFFFFFF PUSH2 0x484A AND JUMP JUMPDEST PUSH1 0x0 PUSH8 0xDE0B6B3A7640000 PUSH2 0x47DC DUP5 DUP5 PUSH4 0xFFFFFFFF PUSH2 0x47EB AND JUMP JUMPDEST DUP2 PUSH2 0x47E3 JUMPI INVALID JUMPDEST DIV SWAP4 SWAP3 POP POP POP JUMP JUMPDEST PUSH1 0x0 DUP3 PUSH2 0x47FA JUMPI POP PUSH1 0x0 PUSH2 0x7CE JUMP JUMPDEST DUP3 DUP3 MUL DUP3 DUP5 DUP3 DUP2 PUSH2 0x4807 JUMPI INVALID JUMPDEST DIV EQ PUSH2 0x7CB JUMPI PUSH1 0x40 MLOAD PUSH3 0x461BCD PUSH1 0xE5 SHL DUP2 MSTORE PUSH1 0x4 ADD DUP1 DUP1 PUSH1 0x20 ADD DUP3 DUP2 SUB DUP3 MSTORE PUSH1 0x21 DUP2 MSTORE PUSH1 0x20 ADD DUP1 PUSH2 0x4D90 PUSH1 0x21 SWAP2 CODECOPY PUSH1 0x40 ADD SWAP2 POP POP PUSH1 0x40 MLOAD DUP1 SWAP2 SUB SWAP1 PUSH2 0x34F4 PUSH2 0x48BC JUMP JUMPDEST PUSH1 0x0 DUP1 DUP3 GT PUSH2 0x48A8 JUMPI PUSH1 0x40 MLOAD PUSH3 0x461BCD PUSH1 0xE5 SHL DUP2 MSTORE PUSH1 0x20 PUSH1 0x4 DUP3 ADD MSTORE PUSH1 0x1A PUSH1 0x24 DUP3 ADD MSTORE PUSH32 0x536166654D6174683A206469766973696F6E206279207A65726F000000000000 PUSH1 0x44 DUP3 ADD MSTORE PUSH1 0x64 ADD PUSH1 0x40 MLOAD DUP1 SWAP2 SUB SWAP1 PUSH2 0x48A5 PUSH2 0x48BC JUMP JUMPDEST POP POP JUMPDEST PUSH1 0x0 DUP3 DUP5 DUP2 PUSH2 0x48B3 JUMPI INVALID JUMPDEST DIV SWAP5 SWAP4 POP POP POP POP JUMP JUMPDEST PUSH4 0x2A2A7ADB MSIZE DUP2 PUSH1 0xE0 SHL DUP2 MSTORE PUSH1 0x4 DUP2 ADD PUSH1 0x20 DUP2 MSTORE DUP6 PUSH1 0x20 DUP3 ADD MSTORE PUSH1 0x0 JUMPDEST DUP7 DUP2 LT ISZERO PUSH2 0x48F4 JUMPI DUP1 DUP7 ADD MLOAD DUP3 DUP3 ADD PUSH1 0x40 ADD MSTORE PUSH1 0x20 ADD PUSH2 0x48D9 JUMP JUMPDEST POP PUSH1 0x20 DUP3 DUP8 PUSH1 0x64 ADD DUP5 CALLER PUSH1 0x0 SWAP1 GAS CALL PC PUSH1 0x1D ADD JUMPI RETURNDATASIZE PUSH1 0x1 EQ PC PUSH1 0xC ADD JUMPI RETURNDATASIZE PUSH1 0x0 DUP1 RETURNDATACOPY RETURNDATASIZE PUSH3 0x123456 MSTORE PUSH1 0xEA PUSH2 0x109C MSTORE POP POP POP JUMP JUMPDEST PUSH4 0x3DAA959 MSIZE DUP2 PUSH1 0xE0 SHL DUP2 MSTORE DUP4 PUSH1 0x4 DUP3 ADD MSTORE PUSH1 0x20 DUP2 PUSH1 0x24 DUP4 CALLER PUSH1 0x0 SWAP1 GAS CALL PC PUSH1 0x1D ADD JUMPI RETURNDATASIZE PUSH1 0x1 EQ PC PUSH1 0xC ADD JUMPI RETURNDATASIZE PUSH1 0x0 DUP1 RETURNDATACOPY RETURNDATASIZE PUSH3 0x123456 MSTORE PUSH1 0xEA PUSH2 0x109C MSTORE DUP1 MLOAD SWAP4 POP PUSH1 0x0 JUMPDEST PUSH1 0x40 DUP2 LT ISZERO PUSH2 0x174B JUMPI PUSH1 0x0 DUP3 DUP3 ADD MSTORE PUSH1 0x20 ADD PUSH2 0x496B JUMP JUMPDEST PUSH4 0x8435035B MSIZE DUP2 PUSH1 0xE0 SHL DUP2 MSTORE DUP4 PUSH1 0x4 DUP3 ADD MSTORE PUSH1 0x20 DUP2 PUSH1 0x24 DUP4 CALLER PUSH1 0x0 SWAP1 GAS CALL PC PUSH1 0x1D ADD JUMPI RETURNDATASIZE PUSH1 0x1 EQ PC PUSH1 0xC ADD JUMPI RETURNDATASIZE PUSH1 0x0 DUP1 RETURNDATACOPY RETURNDATASIZE PUSH3 0x123456 MSTORE PUSH1 0xEA PUSH2 0x109C MSTORE DUP1 MLOAD PUSH1 0x0 DUP3 MSTORE SWAP4 POP PUSH1 0x20 PUSH2 0x496B JUMP JUMPDEST PUSH4 0x8540661F MSIZE DUP2 PUSH1 0xE0 SHL DUP2 MSTORE DUP4 PUSH1 0x4 DUP3 ADD MSTORE DUP5 PUSH1 0x24 DUP3 ADD MSTORE PUSH1 0x60 PUSH1 0x44 DUP3 ADD MSTORE DUP7 PUSH1 0x64 DUP3 ADD MSTORE PUSH1 0x84 DUP2 ADD PUSH1 0x0 JUMPDEST DUP9 DUP2 LT ISZERO PUSH2 0x4A12 JUMPI DUP1 DUP9 ADD MLOAD DUP3 DUP3 ADD MSTORE PUSH1 0x20 ADD PUSH2 0x49FA JUMP JUMPDEST POP DUP8 PUSH2 0x104 ADD DUP3 ADD PUSH1 0x60 DUP4 DUP11 PUSH2 0x104 ADD DUP6 CALLER PUSH1 0x0 SWAP1 GAS CALL PC PUSH1 0x1D ADD JUMPI RETURNDATASIZE PUSH1 0x1 EQ PC PUSH1 0xC ADD JUMPI RETURNDATASIZE PUSH1 0x0 DUP1 RETURNDATACOPY RETURNDATASIZE PUSH3 0x123456 MSTORE PUSH1 0xEA PUSH2 0x109C MSTORE DUP3 MLOAD PUSH1 0x40 DUP5 ADD MLOAD RETURNDATASIZE PUSH1 0x0 DUP7 RETURNDATACOPY DUP13 DUP13 DUP3 PUSH1 0x60 DUP9 ADD CALLER POP PUSH1 0x0 PUSH1 0x4 GAS CALL POP MSIZE DUP6 JUMPDEST DUP2 DUP2 LT ISZERO PUSH2 0x4A7B JUMPI PUSH1 0x0 DUP2 MSTORE PUSH1 0x20 ADD PUSH2 0x4A67 JUMP JUMPDEST POP SWAP2 SWAP13 POP POP POP POP POP POP POP JUMP JUMPDEST PUSH4 0x73509064 MSIZE DUP2 PUSH1 0xE0 SHL DUP2 MSTORE PUSH1 0x20 DUP2 PUSH1 0x4 DUP4 CALLER PUSH1 0x0 SWAP1 GAS CALL PC PUSH1 0x1D ADD JUMPI RETURNDATASIZE PUSH1 0x1 EQ PC PUSH1 0xC ADD JUMPI RETURNDATASIZE PUSH1 0x0 DUP1 RETURNDATACOPY RETURNDATASIZE PUSH3 0x123456 MSTORE PUSH1 0xEA PUSH2 0x109C MSTORE DUP1 MLOAD PUSH1 0x0 DUP3 MSTORE SWAP4 POP PUSH1 0x20 PUSH2 0x496B JUMP JUMPDEST PUSH4 0x85979F76 MSIZE DUP2 PUSH1 0xE0 SHL DUP2 MSTORE DUP4 PUSH1 0x4 DUP3 ADD MSTORE DUP5 PUSH1 0x24 DUP3 ADD MSTORE PUSH1 0x60 PUSH1 0x44 DUP3 ADD MSTORE DUP8 PUSH1 0x64 DUP3 ADD MSTORE PUSH1 0x84 DUP2 ADD PUSH1 0x0 JUMPDEST DUP10 DUP2 LT ISZERO PUSH2 0x4B11 JUMPI DUP1 DUP10 ADD MLOAD DUP3 DUP3 ADD MSTORE PUSH1 0x20 ADD PUSH2 0x4AF9 JUMP JUMPDEST POP DUP9 PUSH2 0x104 ADD DUP3 ADD PUSH1 0x60 DUP4 DUP12 PUSH2 0x104 ADD DUP6 CALLER PUSH1 0x0 SWAP1 GAS CALL PC PUSH1 0x1D ADD JUMPI RETURNDATASIZE PUSH1 0x1 EQ PC PUSH1 0xC ADD JUMPI RETURNDATASIZE PUSH1 0x0 DUP1 RETURNDATACOPY RETURNDATASIZE PUSH3 0x123456 MSTORE PUSH1 0xEA PUSH2 0x109C MSTORE DUP3 MLOAD PUSH1 0x40 DUP5 ADD MLOAD RETURNDATASIZE PUSH1 0x0 DUP7 RETURNDATACOPY DUP14 DUP14 DUP3 PUSH1 0x60 DUP9 ADD CALLER POP PUSH1 0x0 PUSH1 0x4 GAS CALL POP MSIZE DUP6 JUMPDEST DUP2 DUP2 LT ISZERO PUSH2 0x4B7A JUMPI PUSH1 0x0 DUP2 MSTORE PUSH1 0x20 ADD PUSH2 0x4B66 JUMP JUMPDEST POP SWAP2 SWAP14 POP POP POP POP POP POP POP JUMP JUMPDEST PUSH4 0x22BD64C0 MSIZE DUP2 PUSH1 0xE0 SHL DUP2 MSTORE DUP4 PUSH1 0x4 DUP3 ADD MSTORE DUP5 PUSH1 0x24 DUP3 ADD MSTORE PUSH1 0x0 DUP2 PUSH1 0x44 DUP4 CALLER PUSH1 0x0 SWAP1 GAS CALL PC PUSH1 0x1D ADD JUMPI RETURNDATASIZE PUSH1 0x1 EQ PC PUSH1 0xC ADD JUMPI RETURNDATASIZE PUSH1 0x0 DUP1 RETURNDATACOPY RETURNDATASIZE PUSH3 0x123456 MSTORE PUSH1 0xEA PUSH2 0x109C MSTORE PUSH1 0x0 DUP2 MSTORE PUSH1 0x20 PUSH2 0x496B JUMP JUMPDEST PUSH1 0x40 MLOAD PUSH2 0x300 DUP1 DUP3 ADD PUSH1 0x40 MSTORE PUSH1 0x18 SWAP1 DUP3 SWAP1 DUP1 CODESIZE DUP4 CODECOPY POP SWAP2 SWAP3 SWAP2 POP POP JUMP JUMPDEST PUSH4 0xBDBF8C36 MSIZE DUP2 PUSH1 0xE0 SHL DUP2 MSTORE PUSH1 0x20 DUP2 PUSH1 0x4 DUP4 CALLER PUSH1 0x0 SWAP1 GAS CALL PC PUSH1 0x1D ADD JUMPI RETURNDATASIZE PUSH1 0x1 EQ PC PUSH1 0xC ADD JUMPI RETURNDATASIZE PUSH1 0x0 DUP1 RETURNDATACOPY RETURNDATASIZE PUSH3 0x123456 MSTORE PUSH1 0xEA PUSH2 0x109C MSTORE DUP1 MLOAD PUSH1 0x0 DUP3 MSTORE SWAP4 POP PUSH1 0x20 PUSH2 0x496B JUMP JUMPDEST PUSH1 0x40 MLOAD DUP1 PUSH2 0x100 ADD PUSH1 0x40 MSTORE DUP1 PUSH1 0x0 DUP1 NOT AND DUP2 MSTORE PUSH1 0x20 ADD PUSH1 0x0 DUP2 MSTORE PUSH1 0x20 ADD PUSH1 0x0 DUP1 NOT AND DUP2 MSTORE PUSH1 0x20 ADD PUSH1 0x0 DUP2 MSTORE PUSH1 0x20 ADD PUSH1 0x0 DUP2 MSTORE PUSH1 0x20 ADD PUSH1 0x0 DUP2 MSTORE PUSH1 0x20 ADD PUSH1 0x0 DUP2 MSTORE PUSH1 0x20 ADD PUSH1 0x0 DUP2 MSTORE POP SWAP1 JUMP JUMPDEST PUSH4 0xFFE73914 MSIZE DUP2 PUSH1 0xE0 SHL DUP2 MSTORE DUP4 PUSH1 0x4 DUP3 ADD MSTORE DUP5 PUSH1 0x24 DUP3 ADD MSTORE PUSH1 0x60 PUSH1 0x44 DUP3 ADD MSTORE DUP7 PUSH1 0x64 DUP3 ADD MSTORE PUSH1 0x84 DUP2 ADD PUSH1 0x0 DUP9 DUP2 LT ISZERO PUSH2 0x4A12 JUMPI DUP1 DUP9 ADD MLOAD DUP3 DUP3 ADD MSTORE PUSH1 0x20 ADD PUSH2 0x49FA JUMP INVALID MSIZE PUSH16 0x75206D757374206265206E6F6D696E61 PUSH21 0x6564206265666F726520796F752063616E20616363 PUSH6 0x7074206F776E PUSH6 0x72736869704D PUSH10 0x7373696E672044656C65 PUSH8 0x617465417070726F PUSH23 0x616C73206164647265737345786368616E6765723A204F PUSH15 0x6C792073796E746865746978206F72 KECCAK256 PUSH2 0x2073 PUSH26 0x6E746820636F6E74726163742063616E20706572666F726D2074 PUSH9 0x697320616374696F6E 0x4F PUSH15 0x6C792074686520636F6E7472616374 KECCAK256 PUSH16 0x776E6572206D617920706572666F726D KECCAK256 PUSH21 0x68697320616374696F6E536166654D6174683A206D PUSH22 0x6C7469706C69636174696F6E206F766572666C6F7753 PUSH19 0x632F64657374207261746520696E76616C6964 KECCAK256 PUSH16 0x72206E6F7420666F756E6443616E6E6F PUSH21 0x20736574746C6520647572696E672077616974696E PUSH8 0x20706572696F6400 "
		}
	}
}