{
	"abi": [
		{
			"inputs": [
				{
					"internalType": "address payable",
					"name": "_proxy",
					"type": "address"
				},
				{
					"internalType": "contract TokenState",
					"name": "_tokenState",
					"type": "address"
				},
				{
					"internalType": "address",
					"name": "_owner",
					"type": "address"
				},
				{
					"internalType": "uint256",
					"name": "_totalSupply",
					"type": "uint256"
				},
				{
					"internalType": "address",
					"name": "_resolver",
					"type": "address"
				}
			],
			"payable": false,
			"stateMutability": "nonpayable",
			"type": "constructor"
		},
		{
			"anonymous": false,
			"inputs": [
				{
					"indexed": true,
					"internalType": "address",
					"name": "account",
					"type": "address"
				},
				{
					"indexed": false,
					"internalType": "uint256",
					"name": "snxRedeemed",
					"type": "uint256"
				},
				{
					"indexed": false,
					"internalType": "uint256",
					"name": "amountLiquidated",
					"type": "uint256"
				},
				{
					"indexed": false,
					"internalType": "address",
					"name": "liquidator",
					"type": "address"
				}
			],
			"name": "AccountLiquidated",
			"type": "event"
		},
		{
			"anonymous": false,
			"inputs": [
				{
					"indexed": true,
					"internalType": "address",
					"name": "owner",
					"type": "address"
				},
				{
					"indexed": true,
					"internalType": "address",
					"name": "spender",
					"type": "address"
				},
				{
					"indexed": false,
					"internalType": "uint256",
					"name": "value",
					"type": "uint256"
				}
			],
			"name": "Approval",
			"type": "event"
		},
		{
			"anonymous": false,
			"inputs": [
				{
					"indexed": true,
					"internalType": "address",
					"name": "account",
					"type": "address"
				},
				{
					"indexed": false,
					"internalType": "bytes32",
					"name": "currencyKey",
					"type": "bytes32"
				},
				{
					"indexed": false,
					"internalType": "uint256",
					"name": "amount",
					"type": "uint256"
				}
			],
			"name": "ExchangeRebate",
			"type": "event"
		},
		{
			"anonymous": false,
			"inputs": [
				{
					"indexed": true,
					"internalType": "address",
					"name": "account",
					"type": "address"
				},
				{
					"indexed": false,
					"internalType": "bytes32",
					"name": "currencyKey",
					"type": "bytes32"
				},
				{
					"indexed": false,
					"internalType": "uint256",
					"name": "amount",
					"type": "uint256"
				}
			],
			"name": "ExchangeReclaim",
			"type": "event"
		},
		{
			"anonymous": false,
			"inputs": [
				{
					"indexed": true,
					"internalType": "bytes32",
					"name": "trackingCode",
					"type": "bytes32"
				},
				{
					"indexed": false,
					"internalType": "bytes32",
					"name": "toCurrencyKey",
					"type": "bytes32"
				},
				{
					"indexed": false,
					"internalType": "uint256",
					"name": "toAmount",
					"type": "uint256"
				}
			],
			"name": "ExchangeTracking",
			"type": "event"
		},
		{
			"anonymous": false,
			"inputs": [
				{
					"indexed": false,
					"internalType": "address",
					"name": "oldOwner",
					"type": "address"
				},
				{
					"indexed": false,
					"internalType": "address",
					"name": "newOwner",
					"type": "address"
				}
			],
			"name": "OwnerChanged",
			"type": "event"
		},
		{
			"anonymous": false,
			"inputs": [
				{
					"indexed": false,
					"internalType": "address",
					"name": "newOwner",
					"type": "address"
				}
			],
			"name": "OwnerNominated",
			"type": "event"
		},
		{
			"anonymous": false,
			"inputs": [
				{
					"indexed": false,
					"internalType": "address",
					"name": "proxyAddress",
					"type": "address"
				}
			],
			"name": "ProxyUpdated",
			"type": "event"
		},
		{
			"anonymous": false,
			"inputs": [
				{
					"indexed": false,
					"internalType": "address",
					"name": "newBeneficiary",
					"type": "address"
				}
			],
			"name": "SelfDestructBeneficiaryUpdated",
			"type": "event"
		},
		{
			"anonymous": false,
			"inputs": [
				{
					"indexed": false,
					"internalType": "uint256",
					"name": "selfDestructDelay",
					"type": "uint256"
				}
			],
			"name": "SelfDestructInitiated",
			"type": "event"
		},
		{
			"anonymous": false,
			"inputs": [],
			"name": "SelfDestructTerminated",
			"type": "event"
		},
		{
			"anonymous": false,
			"inputs": [
				{
					"indexed": false,
					"internalType": "address",
					"name": "beneficiary",
					"type": "address"
				}
			],
			"name": "SelfDestructed",
			"type": "event"
		},
		{
			"anonymous": false,
			"inputs": [
				{
					"indexed": true,
					"internalType": "address",
					"name": "account",
					"type": "address"
				},
				{
					"indexed": false,
					"internalType": "bytes32",
					"name": "fromCurrencyKey",
					"type": "bytes32"
				},
				{
					"indexed": false,
					"internalType": "uint256",
					"name": "fromAmount",
					"type": "uint256"
				},
				{
					"indexed": false,
					"internalType": "bytes32",
					"name": "toCurrencyKey",
					"type": "bytes32"
				},
				{
					"indexed": false,
					"internalType": "uint256",
					"name": "toAmount",
					"type": "uint256"
				},
				{
					"indexed": false,
					"internalType": "address",
					"name": "toAddress",
					"type": "address"
				}
			],
			"name": "SynthExchange",
			"type": "event"
		},
		{
			"anonymous": false,
			"inputs": [
				{
					"indexed": false,
					"internalType": "address",
					"name": "newTokenState",
					"type": "address"
				}
			],
			"name": "TokenStateUpdated",
			"type": "event"
		},
		{
			"anonymous": false,
			"inputs": [
				{
					"indexed": true,
					"internalType": "address",
					"name": "from",
					"type": "address"
				},
				{
					"indexed": true,
					"internalType": "address",
					"name": "to",
					"type": "address"
				},
				{
					"indexed": false,
					"internalType": "uint256",
					"name": "value",
					"type": "uint256"
				}
			],
			"name": "Transfer",
			"type": "event"
		},
		{
			"constant": true,
			"inputs": [],
			"name": "DECIMALS",
			"outputs": [
				{
					"internalType": "uint8",
					"name": "",
					"type": "uint8"
				}
			],
			"payable": false,
			"stateMutability": "view",
			"type": "function"
		},
		{
			"constant": true,
			"inputs": [],
			"name": "MAX_ADDRESSES_FROM_RESOLVER",
			"outputs": [
				{
					"internalType": "uint256",
					"name": "",
					"type": "uint256"
				}
			],
			"payable": false,
			"stateMutability": "view",
			"type": "function"
		},
		{
			"constant": true,
			"inputs": [],
			"name": "SELFDESTRUCT_DELAY",
			"outputs": [
				{
					"internalType": "uint256",
					"name": "",
					"type": "uint256"
				}
			],
			"payable": false,
			"stateMutability": "view",
			"type": "function"
		},
		{
			"constant": true,
			"inputs": [],
			"name": "TOKEN_NAME",
			"outputs": [
				{
					"internalType": "string",
					"name": "",
					"type": "string"
				}
			],
			"payable": false,
			"stateMutability": "view",
			"type": "function"
		},
		{
			"constant": true,
			"inputs": [],
			"name": "TOKEN_SYMBOL",
			"outputs": [
				{
					"internalType": "string",
					"name": "",
					"type": "string"
				}
			],
			"payable": false,
			"stateMutability": "view",
			"type": "function"
		},
		{
			"constant": false,
			"inputs": [],
			"name": "acceptOwnership",
			"outputs": [],
			"payable": false,
			"stateMutability": "nonpayable",
			"type": "function"
		},
		{
			"constant": true,
			"inputs": [
				{
					"internalType": "address",
					"name": "owner",
					"type": "address"
				},
				{
					"internalType": "address",
					"name": "spender",
					"type": "address"
				}
			],
			"name": "allowance",
			"outputs": [
				{
					"internalType": "uint256",
					"name": "",
					"type": "uint256"
				}
			],
			"payable": false,
			"stateMutability": "view",
			"type": "function"
		},
		{
			"constant": true,
			"inputs": [],
			"name": "anySynthOrSNXRateIsInvalid",
			"outputs": [
				{
					"internalType": "bool",
					"name": "anyRateInvalid",
					"type": "bool"
				}
			],
			"payable": false,
			"stateMutability": "view",
			"type": "function"
		},
		{
			"constant": false,
			"inputs": [
				{
					"internalType": "address",
					"name": "spender",
					"type": "address"
				},
				{
					"internalType": "uint256",
					"name": "value",
					"type": "uint256"
				}
			],
			"name": "approve",
			"outputs": [
				{
					"internalType": "bool",
					"name": "",
					"type": "bool"
				}
			],
			"payable": false,
			"stateMutability": "nonpayable",
			"type": "function"
		},
		{
			"constant": true,
			"inputs": [],
			"name": "availableCurrencyKeys",
			"outputs": [
				{
					"internalType": "bytes32[]",
					"name": "",
					"type": "bytes32[]"
				}
			],
			"payable": false,
			"stateMutability": "view",
			"type": "function"
		},
		{
			"constant": true,
			"inputs": [],
			"name": "availableSynthCount",
			"outputs": [
				{
					"internalType": "uint256",
					"name": "",
					"type": "uint256"
				}
			],
			"payable": false,
			"stateMutability": "view",
			"type": "function"
		},
		{
			"constant": true,
			"inputs": [
				{
					"internalType": "uint256",
					"name": "index",
					"type": "uint256"
				}
			],
			"name": "availableSynths",
			"outputs": [
				{
					"internalType": "contract ISynth",
					"name": "",
					"type": "address"
				}
			],
			"payable": false,
			"stateMutability": "view",
			"type": "function"
		},
		{
			"constant": true,
			"inputs": [
				{
					"internalType": "address",
					"name": "account",
					"type": "address"
				}
			],
			"name": "balanceOf",
			"outputs": [
				{
					"internalType": "uint256",
					"name": "",
					"type": "uint256"
				}
			],
			"payable": false,
			"stateMutability": "view",
			"type": "function"
		},
		{
			"constant": false,
			"inputs": [
				{
					"internalType": "address",
					"name": "account",
					"type": "address"
				},
				{
					"internalType": "uint256",
					"name": "amount",
					"type": "uint256"
				}
			],
			"name": "burnSecondary",
			"outputs": [],
			"payable": false,
			"stateMutability": "nonpayable",
			"type": "function"
		},
		{
			"constant": false,
			"inputs": [
				{
					"internalType": "uint256",
					"name": "amount",
					"type": "uint256"
				}
			],
			"name": "burnSynths",
			"outputs": [],
			"payable": false,
			"stateMutability": "nonpayable",
			"type": "function"
		},
		{
			"constant": false,
			"inputs": [
				{
					"internalType": "address",
					"name": "burnForAddress",
					"type": "address"
				},
				{
					"internalType": "uint256",
					"name": "amount",
					"type": "uint256"
				}
			],
			"name": "burnSynthsOnBehalf",
			"outputs": [],
			"payable": false,
			"stateMutability": "nonpayable",
			"type": "function"
		},
		{
			"constant": false,
			"inputs": [],
			"name": "burnSynthsToTarget",
			"outputs": [],
			"payable": false,
			"stateMutability": "nonpayable",
			"type": "function"
		},
		{
			"constant": false,
			"inputs": [
				{
					"internalType": "address",
					"name": "burnForAddress",
					"type": "address"
				}
			],
			"name": "burnSynthsToTargetOnBehalf",
			"outputs": [],
			"payable": false,
			"stateMutability": "nonpayable",
			"type": "function"
		},
		{
			"constant": true,
			"inputs": [
				{
					"internalType": "address",
					"name": "account",
					"type": "address"
				}
			],
			"name": "collateral",
			"outputs": [
				{
					"internalType": "uint256",
					"name": "",
					"type": "uint256"
				}
			],
			"payable": false,
			"stateMutability": "view",
			"type": "function"
		},
		{
			"constant": true,
			"inputs": [
				{
					"internalType": "address",
					"name": "_issuer",
					"type": "address"
				}
			],
			"name": "collateralisationRatio",
			"outputs": [
				{
					"internalType": "uint256",
					"name": "",
					"type": "uint256"
				}
			],
			"payable": false,
			"stateMutability": "view",
			"type": "function"
		},
		{
			"constant": true,
			"inputs": [
				{
					"internalType": "address",
					"name": "account",
					"type": "address"
				},
				{
					"internalType": "bytes32",
					"name": "currencyKey",
					"type": "bytes32"
				}
			],
			"name": "debtBalanceOf",
			"outputs": [
				{
					"internalType": "uint256",
					"name": "",
					"type": "uint256"
				}
			],
			"payable": false,
			"stateMutability": "view",
			"type": "function"
		},
		{
			"constant": true,
			"inputs": [],
			"name": "decimals",
			"outputs": [
				{
					"internalType": "uint8",
					"name": "",
					"type": "uint8"
				}
			],
			"payable": false,
			"stateMutability": "view",
			"type": "function"
		},
		{
			"constant": false,
			"inputs": [
				{
					"internalType": "address",
					"name": "account",
					"type": "address"
				},
				{
					"internalType": "bytes32",
					"name": "currencyKey",
					"type": "bytes32"
				},
				{
					"internalType": "uint256",
					"name": "amount",
					"type": "uint256"
				}
			],
			"name": "emitExchangeRebate",
			"outputs": [],
			"payable": false,
			"stateMutability": "nonpayable",
			"type": "function"
		},
		{
			"constant": false,
			"inputs": [
				{
					"internalType": "address",
					"name": "account",
					"type": "address"
				},
				{
					"internalType": "bytes32",
					"name": "currencyKey",
					"type": "bytes32"
				},
				{
					"internalType": "uint256",
					"name": "amount",
					"type": "uint256"
				}
			],
			"name": "emitExchangeReclaim",
			"outputs": [],
			"payable": false,
			"stateMutability": "nonpayable",
			"type": "function"
		},
		{
			"constant": false,
			"inputs": [
				{
					"internalType": "bytes32",
					"name": "trackingCode",
					"type": "bytes32"
				},
				{
					"internalType": "bytes32",
					"name": "toCurrencyKey",
					"type": "bytes32"
				},
				{
					"internalType": "uint256",
					"name": "toAmount",
					"type": "uint256"
				}
			],
			"name": "emitExchangeTracking",
			"outputs": [],
			"payable": false,
			"stateMutability": "nonpayable",
			"type": "function"
		},
		{
			"constant": false,
			"inputs": [
				{
					"internalType": "address",
					"name": "account",
					"type": "address"
				},
				{
					"internalType": "bytes32",
					"name": "fromCurrencyKey",
					"type": "bytes32"
				},
				{
					"internalType": "uint256",
					"name": "fromAmount",
					"type": "uint256"
				},
				{
					"internalType": "bytes32",
					"name": "toCurrencyKey",
					"type": "bytes32"
				},
				{
					"internalType": "uint256",
					"name": "toAmount",
					"type": "uint256"
				},
				{
					"internalType": "address",
					"name": "toAddress",
					"type": "address"
				}
			],
			"name": "emitSynthExchange",
			"outputs": [],
			"payable": false,
			"stateMutability": "nonpayable",
			"type": "function"
		},
		{
			"constant": false,
			"inputs": [
				{
					"internalType": "bytes32",
					"name": "sourceCurrencyKey",
					"type": "bytes32"
				},
				{
					"internalType": "uint256",
					"name": "sourceAmount",
					"type": "uint256"
				},
				{
					"internalType": "bytes32",
					"name": "destinationCurrencyKey",
					"type": "bytes32"
				}
			],
			"name": "exchange",
			"outputs": [
				{
					"internalType": "uint256",
					"name": "amountReceived",
					"type": "uint256"
				}
			],
			"payable": false,
			"stateMutability": "nonpayable",
			"type": "function"
		},
		{
			"constant": false,
			"inputs": [
				{
					"internalType": "address",
					"name": "exchangeForAddress",
					"type": "address"
				},
				{
					"internalType": "bytes32",
					"name": "sourceCurrencyKey",
					"type": "bytes32"
				},
				{
					"internalType": "uint256",
					"name": "sourceAmount",
					"type": "uint256"
				},
				{
					"internalType": "bytes32",
					"name": "destinationCurrencyKey",
					"type": "bytes32"
				}
			],
			"name": "exchangeOnBehalf",
			"outputs": [
				{
					"internalType": "uint256",
					"name": "amountReceived",
					"type": "uint256"
				}
			],
			"payable": false,
			"stateMutability": "nonpayable",
			"type": "function"
		},
		{
			"constant": false,
			"inputs": [
				{
					"internalType": "address",
					"name": "exchangeForAddress",
					"type": "address"
				},
				{
					"internalType": "bytes32",
					"name": "sourceCurrencyKey",
					"type": "bytes32"
				},
				{
					"internalType": "uint256",
					"name": "sourceAmount",
					"type": "uint256"
				},
				{
					"internalType": "bytes32",
					"name": "destinationCurrencyKey",
					"type": "bytes32"
				},
				{
					"internalType": "address",
					"name": "originator",
					"type": "address"
				},
				{
					"internalType": "bytes32",
					"name": "trackingCode",
					"type": "bytes32"
				}
			],
			"name": "exchangeOnBehalfWithTracking",
			"outputs": [
				{
					"internalType": "uint256",
					"name": "amountReceived",
					"type": "uint256"
				}
			],
			"payable": false,
			"stateMutability": "nonpayable",
			"type": "function"
		},
		{
			"constant": false,
			"inputs": [
				{
					"internalType": "bytes32",
					"name": "sourceCurrencyKey",
					"type": "bytes32"
				},
				{
					"internalType": "uint256",
					"name": "sourceAmount",
					"type": "uint256"
				},
				{
					"internalType": "bytes32",
					"name": "destinationCurrencyKey",
					"type": "bytes32"
				},
				{
					"internalType": "address",
					"name": "originator",
					"type": "address"
				},
				{
					"internalType": "bytes32",
					"name": "trackingCode",
					"type": "bytes32"
				}
			],
			"name": "exchangeWithTracking",
			"outputs": [
				{
					"internalType": "uint256",
					"name": "amountReceived",
					"type": "uint256"
				}
			],
			"payable": false,
			"stateMutability": "nonpayable",
			"type": "function"
		},
		{
			"constant": true,
			"inputs": [],
			"name": "getResolverAddressesRequired",
			"outputs": [
				{
					"internalType": "bytes32[24]",
					"name": "addressesRequired",
					"type": "bytes32[24]"
				}
			],
			"payable": false,
			"stateMutability": "view",
			"type": "function"
		},
		{
			"constant": false,
			"inputs": [],
			"name": "initiateSelfDestruct",
			"outputs": [],
			"payable": false,
			"stateMutability": "nonpayable",
			"type": "function"
		},
		{
			"constant": true,
			"inputs": [],
			"name": "initiationTime",
			"outputs": [
				{
					"internalType": "uint256",
					"name": "",
					"type": "uint256"
				}
			],
			"payable": false,
			"stateMutability": "view",
			"type": "function"
		},
		{
			"constant": true,
			"inputs": [],
			"name": "integrationProxy",
			"outputs": [
				{
					"internalType": "contract Proxy",
					"name": "",
					"type": "address"
				}
			],
			"payable": false,
			"stateMutability": "view",
			"type": "function"
		},
		{
			"constant": true,
			"inputs": [
				{
					"internalType": "contract AddressResolver",
					"name": "_resolver",
					"type": "address"
				}
			],
			"name": "isResolverCached",
			"outputs": [
				{
					"internalType": "bool",
					"name": "",
					"type": "bool"
				}
			],
			"payable": false,
			"stateMutability": "view",
			"type": "function"
		},
		{
			"constant": true,
			"inputs": [
				{
					"internalType": "bytes32",
					"name": "currencyKey",
					"type": "bytes32"
				}
			],
			"name": "isWaitingPeriod",
			"outputs": [
				{
					"internalType": "bool",
					"name": "",
					"type": "bool"
				}
			],
			"payable": false,
			"stateMutability": "view",
			"type": "function"
		},
		{
			"constant": false,
			"inputs": [],
			"name": "issueMaxSynths",
			"outputs": [],
			"payable": false,
			"stateMutability": "nonpayable",
			"type": "function"
		},
		{
			"constant": false,
			"inputs": [
				{
					"internalType": "address",
					"name": "issueForAddress",
					"type": "address"
				}
			],
			"name": "issueMaxSynthsOnBehalf",
			"outputs": [],
			"payable": false,
			"stateMutability": "nonpayable",
			"type": "function"
		},
		{
			"constant": false,
			"inputs": [
				{
					"internalType": "uint256",
					"name": "amount",
					"type": "uint256"
				}
			],
			"name": "issueSynths",
			"outputs": [],
			"payable": false,
			"stateMutability": "nonpayable",
			"type": "function"
		},
		{
			"constant": false,
			"inputs": [
				{
					"internalType": "address",
					"name": "issueForAddress",
					"type": "address"
				},
				{
					"internalType": "uint256",
					"name": "amount",
					"type": "uint256"
				}
			],
			"name": "issueSynthsOnBehalf",
			"outputs": [],
			"payable": false,
			"stateMutability": "nonpayable",
			"type": "function"
		},
		{
			"constant": false,
			"inputs": [
				{
					"internalType": "address",
					"name": "account",
					"type": "address"
				},
				{
					"internalType": "uint256",
					"name": "susdAmount",
					"type": "uint256"
				}
			],
			"name": "liquidateDelinquentAccount",
			"outputs": [
				{
					"internalType": "bool",
					"name": "",
					"type": "bool"
				}
			],
			"payable": false,
			"stateMutability": "nonpayable",
			"type": "function"
		},
		{
			"constant": true,
			"inputs": [
				{
					"internalType": "address",
					"name": "account",
					"type": "address"
				}
			],
			"name": "maxIssuableSynths",
			"outputs": [
				{
					"internalType": "uint256",
					"name": "maxIssuable",
					"type": "uint256"
				}
			],
			"payable": false,
			"stateMutability": "view",
			"type": "function"
		},
		{
			"constant": true,
			"inputs": [],
			"name": "messageSender",
			"outputs": [
				{
					"internalType": "address",
					"name": "",
					"type": "address"
				}
			],
			"payable": false,
			"stateMutability": "view",
			"type": "function"
		},
		{
			"constant": false,
			"inputs": [],
			"name": "mint",
			"outputs": [
				{
					"internalType": "bool",
					"name": "",
					"type": "bool"
				}
			],
			"payable": false,
			"stateMutability": "nonpayable",
			"type": "function"
		},
		{
			"constant": false,
			"inputs": [
				{
					"internalType": "address",
					"name": "account",
					"type": "address"
				},
				{
					"internalType": "uint256",
					"name": "amount",
					"type": "uint256"
				}
			],
			"name": "mintSecondary",
			"outputs": [],
			"payable": false,
			"stateMutability": "nonpayable",
			"type": "function"
		},
		{
			"constant": true,
			"inputs": [],
			"name": "name",
			"outputs": [
				{
					"internalType": "string",
					"name": "",
					"type": "string"
				}
			],
			"payable": false,
			"stateMutability": "view",
			"type": "function"
		},
		{
			"constant": false,
			"inputs": [
				{
					"internalType": "address",
					"name": "_owner",
					"type": "address"
				}
			],
			"name": "nominateNewOwner",
			"outputs": [],
			"payable": false,
			"stateMutability": "nonpayable",
			"type": "function"
		},
		{
			"constant": true,
			"inputs": [],
			"name": "nominatedOwner",
			"outputs": [
				{
					"internalType": "address",
					"name": "",
					"type": "address"
				}
			],
			"payable": false,
			"stateMutability": "view",
			"type": "function"
		},
		{
			"constant": true,
			"inputs": [],
			"name": "owner",
			"outputs": [
				{
					"internalType": "address",
					"name": "",
					"type": "address"
				}
			],
			"payable": false,
			"stateMutability": "view",
			"type": "function"
		},
		{
			"constant": true,
			"inputs": [],
			"name": "proxy",
			"outputs": [
				{
					"internalType": "contract Proxy",
					"name": "",
					"type": "address"
				}
			],
			"payable": false,
			"stateMutability": "view",
			"type": "function"
		},
		{
			"constant": true,
			"inputs": [
				{
					"internalType": "address",
					"name": "account",
					"type": "address"
				}
			],
			"name": "remainingIssuableSynths",
			"outputs": [
				{
					"internalType": "uint256",
					"name": "maxIssuable",
					"type": "uint256"
				},
				{
					"internalType": "uint256",
					"name": "alreadyIssued",
					"type": "uint256"
				},
				{
					"internalType": "uint256",
					"name": "totalSystemDebt",
					"type": "uint256"
				}
			],
			"payable": false,
			"stateMutability": "view",
			"type": "function"
		},
		{
			"constant": true,
			"inputs": [],
			"name": "resolver",
			"outputs": [
				{
					"internalType": "contract AddressResolver",
					"name": "",
					"type": "address"
				}
			],
			"payable": false,
			"stateMutability": "view",
			"type": "function"
		},
		{
			"constant": true,
			"inputs": [
				{
					"internalType": "uint256",
					"name": "",
					"type": "uint256"
				}
			],
			"name": "resolverAddressesRequired",
			"outputs": [
				{
					"internalType": "bytes32",
					"name": "",
					"type": "bytes32"
				}
			],
			"payable": false,
			"stateMutability": "view",
			"type": "function"
		},
		{
			"constant": true,
			"inputs": [],
			"name": "sUSD",
			"outputs": [
				{
					"internalType": "bytes32",
					"name": "",
					"type": "bytes32"
				}
			],
			"payable": false,
			"stateMutability": "view",
			"type": "function"
		},
		{
			"constant": false,
			"inputs": [],
			"name": "selfDestruct",
			"outputs": [],
			"payable": false,
			"stateMutability": "nonpayable",
			"type": "function"
		},
		{
			"constant": true,
			"inputs": [],
			"name": "selfDestructBeneficiary",
			"outputs": [
				{
					"internalType": "address",
					"name": "",
					"type": "address"
				}
			],
			"payable": false,
			"stateMutability": "view",
			"type": "function"
		},
		{
			"constant": true,
			"inputs": [],
			"name": "selfDestructInitiated",
			"outputs": [
				{
					"internalType": "bool",
					"name": "",
					"type": "bool"
				}
			],
			"payable": false,
			"stateMutability": "view",
			"type": "function"
		},
		{
			"constant": false,
			"inputs": [
				{
					"internalType": "address payable",
					"name": "_integrationProxy",
					"type": "address"
				}
			],
			"name": "setIntegrationProxy",
			"outputs": [],
			"payable": false,
			"stateMutability": "nonpayable",
			"type": "function"
		},
		{
			"constant": false,
			"inputs": [
				{
					"internalType": "address",
					"name": "sender",
					"type": "address"
				}
			],
			"name": "setMessageSender",
			"outputs": [],
			"payable": false,
			"stateMutability": "nonpayable",
			"type": "function"
		},
		{
			"constant": false,
			"inputs": [
				{
					"internalType": "address payable",
					"name": "_proxy",
					"type": "address"
				}
			],
			"name": "setProxy",
			"outputs": [],
			"payable": false,
			"stateMutability": "nonpayable",
			"type": "function"
		},
		{
			"constant": false,
			"inputs": [
				{
					"internalType": "contract AddressResolver",
					"name": "_resolver",
					"type": "address"
				}
			],
			"name": "setResolverAndSyncCache",
			"outputs": [],
			"payable": false,
			"stateMutability": "nonpayable",
			"type": "function"
		},
		{
			"constant": false,
			"inputs": [
				{
					"internalType": "address payable",
					"name": "_beneficiary",
					"type": "address"
				}
			],
			"name": "setSelfDestructBeneficiary",
			"outputs": [],
			"payable": false,
			"stateMutability": "nonpayable",
			"type": "function"
		},
		{
			"constant": false,
			"inputs": [
				{
					"internalType": "contract TokenState",
					"name": "_tokenState",
					"type": "address"
				}
			],
			"name": "setTokenState",
			"outputs": [],
			"payable": false,
			"stateMutability": "nonpayable",
			"type": "function"
		},
		{
			"constant": false,
			"inputs": [
				{
					"internalType": "bytes32",
					"name": "currencyKey",
					"type": "bytes32"
				}
			],
			"name": "settle",
			"outputs": [
				{
					"internalType": "uint256",
					"name": "reclaimed",
					"type": "uint256"
				},
				{
					"internalType": "uint256",
					"name": "refunded",
					"type": "uint256"
				},
				{
					"internalType": "uint256",
					"name": "numEntriesSettled",
					"type": "uint256"
				}
			],
			"payable": false,
			"stateMutability": "nonpayable",
			"type": "function"
		},
		{
			"constant": true,
			"inputs": [],
			"name": "symbol",
			"outputs": [
				{
					"internalType": "string",
					"name": "",
					"type": "string"
				}
			],
			"payable": false,
			"stateMutability": "view",
			"type": "function"
		},
		{
			"constant": true,
			"inputs": [
				{
					"internalType": "bytes32",
					"name": "currencyKey",
					"type": "bytes32"
				}
			],
			"name": "synths",
			"outputs": [
				{
					"internalType": "contract ISynth",
					"name": "",
					"type": "address"
				}
			],
			"payable": false,
			"stateMutability": "view",
			"type": "function"
		},
		{
			"constant": true,
			"inputs": [
				{
					"internalType": "address",
					"name": "synthAddress",
					"type": "address"
				}
			],
			"name": "synthsByAddress",
			"outputs": [
				{
					"internalType": "bytes32",
					"name": "",
					"type": "bytes32"
				}
			],
			"payable": false,
			"stateMutability": "view",
			"type": "function"
		},
		{
			"constant": false,
			"inputs": [],
			"name": "terminateSelfDestruct",
			"outputs": [],
			"payable": false,
			"stateMutability": "nonpayable",
			"type": "function"
		},
		{
			"constant": true,
			"inputs": [],
			"name": "tokenState",
			"outputs": [
				{
					"internalType": "contract TokenState",
					"name": "",
					"type": "address"
				}
			],
			"payable": false,
			"stateMutability": "view",
			"type": "function"
		},
		{
			"constant": true,
			"inputs": [
				{
					"internalType": "bytes32",
					"name": "currencyKey",
					"type": "bytes32"
				}
			],
			"name": "totalIssuedSynths",
			"outputs": [
				{
					"internalType": "uint256",
					"name": "",
					"type": "uint256"
				}
			],
			"payable": false,
			"stateMutability": "view",
			"type": "function"
		},
		{
			"constant": true,
			"inputs": [
				{
					"internalType": "bytes32",
					"name": "currencyKey",
					"type": "bytes32"
				}
			],
			"name": "totalIssuedSynthsExcludeEtherCollateral",
			"outputs": [
				{
					"internalType": "uint256",
					"name": "",
					"type": "uint256"
				}
			],
			"payable": false,
			"stateMutability": "view",
			"type": "function"
		},
		{
			"constant": true,
			"inputs": [],
			"name": "totalSupply",
			"outputs": [
				{
					"internalType": "uint256",
					"name": "",
					"type": "uint256"
				}
			],
			"payable": false,
			"stateMutability": "view",
			"type": "function"
		},
		{
			"constant": false,
			"inputs": [
				{
					"internalType": "address",
					"name": "to",
					"type": "address"
				},
				{
					"internalType": "uint256",
					"name": "value",
					"type": "uint256"
				}
			],
			"name": "transfer",
			"outputs": [
				{
					"internalType": "bool",
					"name": "",
					"type": "bool"
				}
			],
			"payable": false,
			"stateMutability": "nonpayable",
			"type": "function"
		},
		{
			"constant": false,
			"inputs": [
				{
					"internalType": "address",
					"name": "from",
					"type": "address"
				},
				{
					"internalType": "address",
					"name": "to",
					"type": "address"
				},
				{
					"internalType": "uint256",
					"name": "value",
					"type": "uint256"
				}
			],
			"name": "transferFrom",
			"outputs": [
				{
					"internalType": "bool",
					"name": "",
					"type": "bool"
				}
			],
			"payable": false,
			"stateMutability": "nonpayable",
			"type": "function"
		},
		{
			"constant": true,
			"inputs": [
				{
					"internalType": "address",
					"name": "account",
					"type": "address"
				}
			],
			"name": "transferableSynthetix",
			"outputs": [
				{
					"internalType": "uint256",
					"name": "transferable",
					"type": "uint256"
				}
			],
			"payable": false,
			"stateMutability": "view",
			"type": "function"
		}
	],
	"evm": {
		"bytecode": {
			"linkReferences": {},
			"object": "608060405260405160c0810160409081526b53797374656d53746174757360a01b82526822bc31b430b733b2b960b91b60208301526524b9b9bab2b960d11b908201526d537570706c795363686564756c6560901b60608201527f52657761726473446973747269627574696f6e0000000000000000000000000060808201526d53796e746865746978537461746560901b60a0820152620000a690600e906006620008a7565b50348015620000bf57600080620000bc620008f5565b50505b506040516200727c3803806200727c833981810160405260a0811015620000f057600080620000ed620008f5565b50505b8101908080519291906020018051929190602001805192919060200180519291906020018051925086915085905084848480600e60186103006040519081016040529190610300830182845b816200014762000962565b815260200190600101908083116200013c575050505050868660405160408082018152601782527f53796e746865746978204e6574776f726b20546f6b656e0000000000000000006020830152516040808201905260038152620a69cb60eb1b60208201528760128a86816001600160a01b038116620002185760405162461bcd60e51b815260206004820152601960248201527f4f776e657220616464726573732063616e6e6f7420626520300000000000000060448201526064016040518091039062000215620008f5565b50505b8060006001816200022862000962565b816001600160a01b0302191690836001600160a01b03160217906200024c620009c4565b5050507fb532073b38c83145e3e5135377a08bf9aab55bc0fd7c1179cd4fb995d2a5159c6000826040516001600160a01b039283168152911660208201526040908101905180910390a15060008080620002a562000962565b906101000a90046001600160a01b03166001600160a01b03161415620003105760405162461bcd60e51b815260206004820152601160248201527013dddb995c881b5d5cdd081899481cd95d607a1b6044820152606401604051809103906200030d620008f5565b50505b6000806200031d62000962565b906101000a90046001600160a01b0316600360016101000a816200034062000962565b816001600160a01b0302191690836001600160a01b031602179062000364620009c4565b5050507fd5da63a0b864b315bc04128dedbc93888c8529ee6cf47ce664dc204339228c53600080906200039662000962565b906101000a90046001600160a01b03166040516001600160a01b03909116815260200160405180910390a160008080620003cf62000962565b906101000a90046001600160a01b03166001600160a01b031614156200043a5760405162461bcd60e51b815260206004820152601160248201527013dddb995c881b5d5cdd081899481cd95d607a1b60448201526064016040518091039062000437620008f5565b50505b8060046001816200044a62000962565b816001600160a01b0302191690836001600160a01b03160217906200046e620009c4565b5050507ffc80377ca9c49cc11ae6982f390a42db976d5530af7c43889264b13fbbd7c57e816040516001600160a01b03909116815260200160405180910390a150856007600181620004bf62000962565b816001600160a01b0302191690836001600160a01b0316021790620004e3620009c4565b505050846008908051620004fc92916020019062000a13565b5060098480516200051292916020019062000a13565b508280600a62000521620009c4565b50505081600b60006101000a816200053862000962565b8160ff021916908360ff1602179062000550620009c4565b5050505050505050505060006001600160a01b0316600080906200057362000962565b906101000a90046001600160a01b03166001600160a01b03161415620005de5760405162461bcd60e51b815260206004820152601160248201527013dddb995c881b5d5cdd081899481cd95d607a1b604482015260640160405180910390620005db620008f5565b50505b60005b60188110156200066e576000828260188110620005fa57fe5b6020020151146200065f57600d8282601881106200061457fe5b602002015190806001816200062862000962565b01808262000635620009c4565b505060009283529160001983019150602090209192910162000656620009c4565b50505062000665565b6200066e565b600101620005e1565b5081600b610100816200068062000962565b816001600160a01b0302191690836001600160a01b0316021790620006a4620009c4565b50505050505050505050620006d26f14d958dbdb99185c9e51195c1bdcda5d60821b620006dd60201b60201c565b505050505062000c1f565b80600d80600181620006ee62000962565b018082620006fb620009c4565b50506000928352916000198301915060209020919291016200071c620009c4565b5050506018600d806200072e62000962565b9050106200078d5760405162461bcd60e51b815260206004820152601b60248201527f4d6178207265736f6c7665722063616368652073697a65206d657400000000006044820152606401604051809103906200078a620008f5565b50505b6001600b6200079b62000962565b906101000a90046001600160a01b03166001600160a01b03166321f8a721826040516001600160e01b031960e084901b16815260048101919091526024016020604051808303818680620007ee62000abe565b158015620008065760008062000803620008f5565b50505b505a6200081262000b0b565b505050505015801562000834573d6000803e3d600062000831620008f5565b50505b505050506040513d6020811015620008565760008062000853620008f5565b50505b8101908080516000858152600c602052909350604092509050206001816200087d62000962565b816001600160a01b0302191690836001600160a01b0316021790620008a1620009c4565b50505050565b8260188101928215620008e3579160200282015b82811115620008e357825182620008d1620009c4565b505091602001919060010190620008bb565b50620008f192915062000bc8565b5090565b632a2a7adb598160e01b8152600481016020815285602082015260005b868110156200092f57808601518282016040015260200162000912565b506020828760640184336000905af158600e01573d6000803e3d6000fd5b3d6001141558600a015760016000f35b505050565b6303daa959598160e01b8152836004820152602081602483336000905af158600e01573d6000803e3d6000fd5b3d6001141558600a015760016000f35b8051935060005b6040811015620009bf57600082820152602001620009a6565b505050565b6322bd64c0598160e01b8152836004820152846024820152600081604483336000905af158600e01573d6000803e3d6000fd5b3d6001141558600a015760016000f35b600081526020620009a6565b828062000a1f62000962565b600181600116156101000203166002900490600052602060002090601f016020900481019282601f1062000a6a57805160ff1916838001178562000a62620009c4565b505062000ab0565b8280016001018562000a7b620009c4565b5050821562000ab0579182015b8281111562000ab05782518262000a9e620009c4565b50509160200191906001019062000a88565b50620008f192915062000bf5565b638435035b598160e01b8152836004820152602081602483336000905af158600e01573d6000803e3d6000fd5b3d6001141558600a015760016000f35b80516000825293506020620009a6565b638540661f598160e01b8152836004820152846024820152606060448201528660648201526084810160005b8881101562000b5157808801518282015260200162000b37565b50876101040182016060838a6101040185336000905af158600e01573d6000803e3d6000fd5b3d6001141558600a015760016000f35b825160408401513d6000863e8c8c82606088013350600060045af15059855b8181101562000bbc576000815260200162000ba6565b50919c50505050505050565b62000bf291905b80821115620008f1576000808262000be6620009c4565b50505060010162000bcf565b90565b62000bf291905b80821115620008f1576000808262000c13620009c4565b50505060010162000bfc565b61664d8062000c2f6000396000f3fe60806040523480156100195760008061001661607a565b50505b50600436106104525760003560e01c80638a2900141161024a578063bc67f83211610144578063dbf63340116100cc578063e8e09b8b11610090578063e8e09b8b14610ec0578063e90dd9e214610ef5578063ec55688914610efd578063edef719a14610f05578063ee52a2f314610f3a57610452565b8063dbf6334014610e12578063dd62ed3e14610e1a578063ddd03a3f14610e51578063e3235c9114610e83578063e6203ed114610e8b57610452565b8063c6c9d82811610113578063c6c9d82814610d48578063c836fa0a14610d6e578063d37c4d8b14610daf578063d60888e414610de4578063d67bdd2514610e0a57610452565b8063bc67f83214610cd4578063bd32aa4414610d03578063c2bf388014610d0b578063c58aaae614610d4057610452565b80639cbdaeb6116101d2578063a9059cbb11610196578063a9059cbb14610c13578063ab49848c14610c48578063ace88afd14610c89578063af086c7e14610cc4578063b8225dec14610ccc57610452565b80639cbdaeb614610b765780639f76980714610b7e578063a311c7c214610bad578063a461fc8214610bdc578063a5fdc5de14610be457610452565b806395d89b411161021957806395d89b4114610b0957806397107d6d14610b115780639741fb2214610b40578063987757dd14610b485780639cb8a26a14610b6e57610452565b80638a29001414610a845780638da5cb5b14610aaa57806391e56b6814610ab25780639324cac714610b0157610452565b80632e0f26251161035b578063631e1444116102e357806370a08231116102a757806370a08231146109a657806372cb051f146109d557806379ba509714610a30578063835e119c14610a3857806383d625d414610a5e57610452565b8063631e144414610889578063666ed4f1146108b85780636ac0bf9c146108ed5780636c00f3101461091c5780636f01a9861461096b57610452565b8063326080391161032a578063326080391461081c5780633278c960146108425780633be99e6f1461084a5780634e99bda91461087957806353a47bb71461088157610452565b80632e0f26251461078057806330ead7601461079e578063313ce567146107e5578063320223db146107ed57610452565b806317c70de4116103de57806320714f88116103ad57806320714f88146106b557806323b872dd146106e4578063295da87d146107235780632a905318146107495780632c955fa71461075157610452565b806317c70de41461067757806318160ddd1461067f57806318821400146106875780631fce304d1461068f57610452565b80631137aedf116104255780631137aedf1461058d5780631249c58b146105e0578063131b0ae7146105e85780631627540c1461061957806316b2213f1461064857610452565b806304f3bcec1461046057806305b3c1c91461048457806306fdde03146104c5578063095ea7b314610544575b60008061045d61607a565b50505b610468610f6c565b6040516001600160a01b03909116815260200160405180910390f35b6104b3600480360360208110156104a3576000806104a061607a565b50505b50356001600160a01b0316610f8b565b60405190815260200160405180910390f35b6104cd61104c565b60405160208082528190810183818151815260200191508051906020019080838360005b838110156105095780820151838201526020016104f1565b50505050905090810190601f1680156105365780820380516001836020036101000a031916815260200191505b509250505060405180910390f35b610579600480360360408110156105635760008061056061607a565b50505b506001600160a01b038135169060200135611105565b604051901515815260200160405180910390f35b6105bc600480360360208110156105ac576000806105a961607a565b50505b50356001600160a01b0316611201565b60405180848152602001838152602001828152602001935050505060405180910390f35b6105796112db565b610617600480360360208110156106075760008061060461607a565b50505b50356001600160a01b0316611a9c565b005b610617600480360360208110156106385760008061063561607a565b50505b50356001600160a01b0316611ada565b6104b3600480360360208110156106675760008061066461607a565b50505b50356001600160a01b0316611b54565b6104b3611ba7565b6104b3611bb4565b6104cd611bbe565b610579600480360360208110156106ae576000806106ab61607a565b50505b5035611bf5565b610617600480360360208110156106d4576000806106d161607a565b50505b50356001600160a01b0316611cda565b610579600480360360608110156107035760008061070061607a565b50505b506001600160a01b03813581169160208101359091169060400135611db9565b610617600480360360208110156107425760008061073f61607a565b50505b5035611e7a565b6104cd611fba565b610617600480360360208110156107705760008061076d61607a565b50505b50356001600160a01b0316611fd7565b6107886120d2565b60405160ff909116815260200160405180910390f35b6104b3600480360360a08110156107bd576000806107ba61607a565b50505b508035906020810135906040810135906001600160a01b0360608201351690608001356120d7565b610788612323565b6106176004803603602081101561080c5760008061080961607a565b50505b50356001600160a01b031661233c565b6104686004803603602081101561083b5760008061083861607a565b50505b50356123e4565b61061761242f565b610617600480360360208110156108695760008061086661607a565b50505b50356001600160a01b03166124a0565b61057961266b565b610468612713565b610579600480360360208110156108a8576000806108a561607a565b50505b50356001600160a01b031661271f565b610617600480360360408110156108d7576000806108d461607a565b50505b506001600160a01b0381351690602001356128fa565b6104b36004803603602081101561090c5760008061090961607a565b50505b50356001600160a01b0316612aef565b610617600480360360c081101561093b5760008061093861607a565b50505b506001600160a01b03813581169160208101359160408201359160608101359160808201359160a0013516612c89565b6106176004803603606081101561098a5760008061098761607a565b50505b506001600160a01b038135169060208101359060400135612e92565b6104b3600480360360208110156109c5576000806109c261607a565b50505b50356001600160a01b0316613078565b6109dd6130de565b60405160208082528190810183818151815260200191508051906020019060200280838360005b83811015610a1c578082015183820152602001610a04565b505050509050019250505060405180910390f35b610617613239565b61046860048036036020811015610a5757600080610a5461607a565b50505b50356133bc565b6104b360048036036020811015610a7d57600080610a7a61607a565b50505b5035613407565b61061760048036036020811015610aa357600080610aa061607a565b50505b503561345b565b610468613502565b6104b3600480360360c0811015610ad157600080610ace61607a565b50505b506001600160a01b0381358116916020810135916040820135916060810135916080820135169060a0013561350d565b6104b361373c565b6104cd613747565b61061760048036036020811015610b3057600080610b2d61607a565b50505b50356001600160a01b03166137e9565b610617613864565b6105bc60048036036020811015610b6757600080610b6461607a565b50505b503561399c565b610617613a59565b610468613b9c565b61061760048036036020811015610b9d57600080610b9a61607a565b50505b50356001600160a01b0316613ba8565b6104b360048036036020811015610bcc57600080610bc961607a565b50505b50356001600160a01b0316613bec565b6104b3613c3f565b6104b360048036036020811015610c0357600080610c0061607a565b50505b50356001600160a01b0316613c46565b61057960048036036040811015610c3257600080610c2f61607a565b50505b506001600160a01b038135169060200135613c99565b610c50613d6d565b604051808261030080838360005b83811015610c76578082015183820152602001610c5e565b5050505090500191505060405180910390f35b61061760048036036060811015610ca857600080610ca561607a565b50505b506001600160a01b038135169060208101359060400135613dcf565b610617613eaf565b610579613f56565b61061760048036036020811015610cf357600080610cf061607a565b50505b50356001600160a01b0316613f62565b610617613f78565b61061760048036036040811015610d2a57600080610d2761607a565b50505b506001600160a01b038135169060200135613ffa565b610468614146565b6104b360048036036020811015610d6757600080610d6461607a565b50505b5035614152565b6104b360048036036080811015610d8d57600080610d8a61607a565b50505b506001600160a01b03813516906020810135906040810135906060013561417a565b6104b360048036036040811015610dce57600080610dcb61607a565b50505b506001600160a01b038135169060200135614396565b6104b360048036036020811015610e0357600080610e0061607a565b50505b503561445c565b6104686144b0565b6104b36144bc565b6104b360048036036040811015610e3957600080610e3661607a565b50505b506001600160a01b03813581169160200135166144f9565b61061760048036036060811015610e7057600080610e6d61607a565b50505b5080359060208101359060400135614567565b6104b36146b0565b61057960048036036040811015610eaa57600080610ea761607a565b50505b506001600160a01b0381351690602001356146b5565b61061760048036036040811015610edf57600080610edc61607a565b50505b506001600160a01b03813516906020013561488c565b610468614934565b610468614940565b61061760048036036040811015610f2457600080610f2161607a565b50505b506001600160a01b03813516906020013561494c565b6104b360048036036060811015610f5957600080610f5661607a565b50505b5080359060208101359060400135614b5f565b6001600b610f786160e5565b906101000a90046001600160a01b031681565b6000610f95614d95565b6001600160a01b03166305b3c1c9836040516001600160e01b031960e084901b1681526001600160a01b0390911660048201526024016020604051808303818680610fde616140565b158015610ff357600080610ff061607a565b50505b505a610ffd61618c565b505050505015801561101c573d6000803e3d600061101961607a565b50505b505050506040513d602081101561103b5760008061103861607a565b50505b81019080805193505050505b919050565b6008806110576160e5565b600181600116156101000203166002900480601f0160208091040260200160405190810160405281815291906020830182806110916160e5565b600181600116156101000203166002900480156110fd5780601f106110cb5761010080836110bd6160e5565b0402835291602001916110fd565b820191906000526020600020905b816110e26160e5565b815290600101906020018083116110d957829003601f168201915b505050505081565b600061110f614ddb565b600080600661111c6160e5565b906101000a90046001600160a01b03169050600760009061113b6160e5565b906101000a90046001600160a01b03166001600160a01b031663da46098c8286866040516001600160e01b031960e086901b1681526001600160a01b0393841660048201529190921660248201526044810191909152606401600060405180830381600087806111a9616140565b1580156111be576000806111bb61607a565b50505b505a6111c8616245565b5050505050501580156111e8573d6000803e3d60006111e561607a565b50505b505050506111f7818585614eb1565b5060019392505050565b600080600061120e614d95565b6001600160a01b0316631137aedf856040516001600160e01b031960e084901b1681526001600160a01b0390911660048201526024016060604051808303818680611257616140565b15801561126c5760008061126961607a565b50505b505a61127661618c565b5050505050158015611295573d6000803e3d600061129261607a565b50505b505050506040513d60608110156112b4576000806112b161607a565b50505b81019080805192919060200180519291906020018051949993985093965091945050505050565b60006112e5614f94565b6001600160a01b0316637c3125416040518163ffffffff1660e01b81526004016000604051808303818680611318616140565b15801561132d5760008061132a61607a565b50505b505a61133761618c565b5050505050158015611356573d6000803e3d600061135361607a565b50505b5050505060006001600160a01b031661136d614fe2565b6001600160a01b031614156113d15760405162461bcd60e51b815260206004820152601b60248201527f52657761726473446973747269627574696f6e206e6f742073657400000000006044820152606401604051809103906113ce61607a565b50505b60006113db61501a565b905060006113e7614fe2565b90506000826001600160a01b031663cc5c095c6040518163ffffffff1660e01b8152600401602060405180830381868061141f616140565b1580156114345760008061143161607a565b50505b505a61143e61618c565b505050505015801561145d573d6000803e3d600061145a61607a565b50505b505050506040513d602081101561147c5760008061147961607a565b50505b8101908080519350505081151590506114dc5760405162461bcd60e51b81526020600482015260156024820152744e6f20737570706c79206973206d696e7461626c6560581b6044820152606401604051809103906114d961607a565b50505b826001600160a01b0316637e7961d7826040516001600160e01b031960e084901b168152600481019190915260240160206040518083038160008780611520616140565b1580156115355760008061153261607a565b50505b505a61153f616245565b50505050505015801561155f573d6000803e3d600061155c61607a565b50505b505050506040513d602081101561157e5760008061157b61607a565b50505b810190808051506000925050506001600160a01b038416639bdd7ac76040518163ffffffff1660e01b815260040160206040518083038186806115bf616140565b1580156115d4576000806115d161607a565b50505b505a6115de61618c565b50505050501580156115fd573d6000803e3d60006115fa61607a565b50505b505050506040513d602081101561161c5760008061161961607a565b50505b81019080805193506000925061163c91508490508363ffffffff61506a16565b90506000600761164a6160e5565b6001600160a01b036101009290920a90041663b46310f68561173f84600060076116726160e5565b906101000a90046001600160a01b03166001600160a01b03166370a082318a6040516001600160e01b031960e084901b1681526001600160a01b03909116600482015260240160206040518083038186806116cb616140565b1580156116e0576000806116dd61607a565b50505b505a6116ea61618c565b5050505050158015611709573d6000803e3d600061170661607a565b50505b505050506040513d60208110156117285760008061172561607a565b50505b8101908080519392505063ffffffff6150cf169050565b6040516001600160e01b031960e085901b1681526001600160a01b039092166004830152602482015260440160006040518083038160008780611780616140565b1580156117955760008061179261607a565b50505b505a61179f616245565b5050505050501580156117bf573d6000803e3d60006117bc61607a565b50505b505050506118265a63996d79a5598160e01b8152602081600483336000905af158600e01573d6000803e3d6000fd5b3d6001141558600a015760016000f35b8051925060005b604081101561181c57600082820152602001611805565b5050508583615138565b836001600160a01b03166359974e38826040516001600160e01b031960e084901b16815260048101919091526024016020604051808303816000878061186a616140565b15801561187f5760008061187c61607a565b50505b505a611889616245565b5050505050501580156118a9573d6000803e3d60006118a661607a565b50505b505050506040513d60208110156118c8576000806118c561607a565b50505b8101908080515060009250600791506118e190506160e5565b906101000a90046001600160a01b03166001600160a01b031663b46310f65a6119086162fe565b61197985600060076119186160e5565b906101000a90046001600160a01b03166001600160a01b03166370a082315a61193f6162fe565b6040516001600160e01b031960e084901b1681526001600160a01b03909116600482015260240160206040518083038186806116cb616140565b6040516001600160e01b031960e085901b1681526001600160a01b0390921660048301526024820152604401600060405180830381600087806119ba616140565b1580156119cf576000806119cc61607a565b50505b505a6119d9616245565b5050505050501580156119f9573d6000803e3d60006119f661607a565b50505b50505050611a685a63996d79a5598160e01b8152602081600483336000905af158600e01573d6000803e3d6000fd5b3d6001141558600a015760016000f35b8051925060005b6040811015611a5657600082820152602001611a3f565b5050505a611a626162fe565b84615138565b611a8283600a611a766160e5565b9063ffffffff6150cf16565b80600a611a8d616344565b50505060019550505050505090565b611aa46151a5565b806005600181611ab26160e5565b816001600160a01b0302191690836001600160a01b0316021790611ad4616344565b50505050565b611ae26151a5565b8060018080611aef6160e5565b816001600160a01b0302191690836001600160a01b0316021790611b11616344565b5050507f906a1c6bd7e3091ea86693dd029a831c19049ce77f1dce2ce0bab1cacbabce22816040516001600160a01b03909116815260200160405180910390a150565b6000611b5e614d95565b6001600160a01b03166316b2213f836040516001600160e01b031960e084901b1681526001600160a01b0390911660048201526024016020604051808303818680610fde616140565b6002611bb16160e5565b81565b600a611bb16160e5565b60405160408082019052601781527f53796e746865746978204e6574776f726b20546f6b656e000000000000000000602082015281565b600080611c0061521d565b6001600160a01b031663059c29ec60006006611c1a6160e5565b906101000a90046001600160a01b0316856040516001600160e01b031960e085901b1681526001600160a01b03909216600483015260248201526044016020604051808303818680611c6a616140565b158015611c7f57600080611c7c61607a565b50505b505a611c8961618c565b5050505050158015611ca8573d6000803e3d6000611ca561607a565b50505b505050506040513d6020811015611cc757600080611cc461607a565b50505b8101908080519390931195945050505050565b611ce26151a5565b6001600160a01b038116611d455760405162461bcd60e51b815260206004820152601c60248201527f42656e6566696369617279206d757374206e6f74206265207a65726f00000000604482015260640160405180910390611d4261607a565b50505b80600361010081611d546160e5565b816001600160a01b0302191690836001600160a01b0316021790611d76616344565b5050507fd5da63a0b864b315bc04128dedbc93888c8529ee6cf47ce664dc204339228c53816040516001600160a01b03909116815260200160405180910390a150565b6000611dc3614ddb565b611dcb614f94565b6001600160a01b031663086dabd16040518163ffffffff1660e01b81526004016000604051808303818680611dfe616140565b158015611e1357600080611e1061607a565b50505b505a611e1d61618c565b5050505050158015611e3c573d6000803e3d6000611e3961607a565b50505b50505050611e4a8483615268565b50611e7260006006611e5a6160e5565b906101000a90046001600160a01b031685858561557d565b949350505050565b611e82614f94565b6001600160a01b0316637c3125416040518163ffffffff1660e01b81526004016000604051808303818680611eb5616140565b158015611eca57600080611ec761607a565b50505b505a611ed461618c565b5050505050158015611ef3573d6000803e3d6000611ef061607a565b50505b50505050611eff614ddb565b611f07614d95565b6001600160a01b031663b06e8c6560006006611f216160e5565b906101000a90046001600160a01b0316836040516001600160e01b031960e085901b1681526001600160a01b039092166004830152602482015260440160006040518083038160008780611f73616140565b158015611f8857600080611f8561607a565b50505b505a611f92616245565b505050505050158015611fb2573d6000803e3d6000611faf61607a565b50505b505050505b50565b6040516040808201905260038152620a69cb60eb1b602082015281565b611fdf614f94565b6001600160a01b0316637c3125416040518163ffffffff1660e01b81526004016000604051808303818680612012616140565b1580156120275760008061202461607a565b50505b505a61203161618c565b5050505050158015612050573d6000803e3d600061204d61607a565b50505b5050505061205c614ddb565b612064614d95565b6001600160a01b0316632b3f41aa826000600661207f6160e5565b906101000a90046001600160a01b03166040516001600160e01b031960e085901b1681526001600160a01b0392831660048201529116602482015260440160006040518083038160008780611f73616140565b601281565b600085846120e3614f94565b6001600160a01b0316637118d4316040518163ffffffff1660e01b81526004016000604051808303818680612116616140565b15801561212b5760008061212861607a565b50505b505a61213561618c565b5050505050158015612154573d6000803e3d600061215161607a565b50505b50505050612160614f94565b6001600160a01b0316636132eba483836040516001600160e01b031960e085901b1681526004810192909252602482015260440160006040518083038186806121a7616140565b1580156121bc576000806121b961607a565b50505b505a6121c661618c565b50505050501580156121e5573d6000803e3d60006121e261607a565b50505b505050506121f1614ddb565b6121f961521d565b6001600160a01b03166386baa45c600060066122136160e5565b906101000a90046001600160a01b03168a8a8a60066000906122336160e5565b906101000a90046001600160a01b03168b8b6040516001600160e01b031960e08a901b1681526001600160a01b0397881660048201526024810196909652604486019490945260648501929092528416608484015290921660a482015260c481019190915260e401602060405180830381600087806122b0616140565b1580156122c5576000806122c261607a565b50505b505a6122cf616245565b5050505050501580156122ef573d6000803e3d60006122ec61607a565b50505b505050506040513d602081101561230e5760008061230b61607a565b50505b8101908080519b9a5050505050505050505050565b6000600b61232f6160e5565b906101000a900460ff1681565b612344614f94565b6001600160a01b0316637c3125416040518163ffffffff1660e01b81526004016000604051808303818680612377616140565b15801561238c5760008061238961607a565b50505b505a61239661618c565b50505050501580156123b5573d6000803e3d60006123b261607a565b50505b505050506123c1614ddb565b6123c9614d95565b6001600160a01b031663fd864ccf826000600661207f6160e5565b60006123ee614d95565b6001600160a01b03166332608039836040516001600160e01b031960e084901b16815260048101919091526024016020604051808303818680610fde616140565b6124376151a5565b6000806002612444616344565b5050506000600360006101000a8161245a6160e5565b8160ff0219169083151502179061246f616344565b5050507f6adcc7125002935e0aa31697538ebbd65cfddf20431eb6ecdcfc3e238bfd082c60405160405180910390a1565b6124a86151a5565b80600b610100816124b76160e5565b816001600160a01b0302191690836001600160a01b03160217906124d9616344565b5060009150505b600d806124eb6160e5565b9050811015612667576000600d82816125026160e5565b811061250a57fe5b9060005260206000200161251c6160e5565b90506001600b61252a6160e5565b906101000a90046001600160a01b03166001600160a01b031663dacb2d01826040516001600160e01b031960e084901b1681526004810191909152604060248201819052601760448301527f5265736f6c766572206d697373696e67207461726765740000000000000000006064830152608490910190602090518083038186806125b3616140565b1580156125c8576000806125c561607a565b50505b505a6125d261618c565b50505050501580156125f1573d6000803e3d60006125ee61607a565b50505b505050506040513d60208110156126105760008061260d61607a565b50505b8101908080516000858152600c602052909350604092509050206001816126356160e5565b816001600160a01b0302191690836001600160a01b0316021790612657616344565b5050600190920191506124e09050565b5050565b6000612675614d95565b6001600160a01b0316634e99bda96040518163ffffffff1660e01b815260040160206040518083038186806126a8616140565b1580156126bd576000806126ba61607a565b50505b505a6126c761618c565b50505050501580156126e6573d6000803e3d60006126e361607a565b50505b505050506040513d60208110156127055760008061270261607a565b50505b810190808051935050505090565b60006001610f786160e5565b60006001600160a01b0382166001600b6127376160e5565b906101000a90046001600160a01b03166001600160a01b03161461275d57506000611047565b60005b600d8061276b6160e5565b90508110156128f1576000600d82816127826160e5565b811061278a57fe5b9060005260206000200161279c6160e5565b6000818152600c602052909150604090206000906127b86160e5565b6001600160a01b036101009290920a9004166001600b6127d66160e5565b906101000a90046001600160a01b03166001600160a01b03166321f8a721836040516001600160e01b031960e084901b16815260048101919091526024016020604051808303818680612827616140565b15801561283c5760008061283961607a565b50505b505a61284661618c565b5050505050158015612865573d6000803e3d600061286261607a565b50505b505050506040513d60208110156128845760008061288161607a565b50505b8101908080516001600160a01b0316939093141592508291506128d8905057506000818152600c602052604081206000906128bd6160e5565b906101000a90046001600160a01b03166001600160a01b0316145b156128e857600092505050611047565b50600101612760565b50600192915050565b6129026156af565b6001600160a01b03165a6129146162fe565b6001600160a01b0316146129625760405162461bcd60e51b81526004018080602001828103825260348152602001806165c6603491396040019150506040518091039061295f61607a565b50505b6000600761296e6160e5565b6001600160a01b036101009290920a90041663b46310f6836129ef84600060076129966160e5565b906101000a90046001600160a01b03166001600160a01b03166370a08231886040516001600160e01b031960e084901b1681526001600160a01b03909116600482015260240160206040518083038186806116cb616140565b6040516001600160e01b031960e085901b1681526001600160a01b039092166004830152602482015260440160006040518083038160008780612a30616140565b158015612a4557600080612a4261607a565b50505b505a612a4f616245565b505050505050158015612a6f573d6000803e3d6000612a6c61607a565b50505b50505050612ad65a63996d79a5598160e01b8152602081600483336000905af158600e01573d6000803e3d6000fd5b3d6001141558600a015760016000f35b8051925060005b6040811015612acc57600082820152602001612ab5565b5050508383615138565b612ae481600a611a766160e5565b80600a611fb2616344565b6000612af9614d95565b6001600160a01b0316636bed04158360006007612b146160e5565b906101000a90046001600160a01b03166001600160a01b03166370a08231866040516001600160e01b031960e084901b1681526001600160a01b0390911660048201526024016020604051808303818680612b6d616140565b158015612b8257600080612b7f61607a565b50505b505a612b8c61618c565b5050505050158015612bab573d6000803e3d6000612ba861607a565b50505b505050506040513d6020811015612bca57600080612bc761607a565b50505b81019080805192506040915050516001600160e01b031960e085901b1681526001600160a01b039092166004830152602482015260440160408051808303818680612c13616140565b158015612c2857600080612c2561607a565b50505b505a612c3261618c565b5050505050158015612c51573d6000803e3d6000612c4e61607a565b50505b505050506040513d6040811015612c7057600080612c6d61607a565b50505b8101908080519291906020018051509295945050505050565b612c9161521d565b6001600160a01b03165a612ca36162fe565b6001600160a01b031614612cf45760405162461bcd60e51b815260206004820152601e6024820152600080516020616453833981519152604482015260640160405180910390612cf161607a565b50505b60006004612d006160e5565b906101000a90046001600160a01b03166001600160a01b031663907dff9786868686866040516020810195909552604080860194909452606085019290925260808401526001600160a01b031660a083015260c09091019051602081830303815290604052600260405180603e6164738239603e0190506040518091039020612d888b6156e4565b6000806040518763ffffffff1660e01b815260040180806020018781526020018681526020018581526020018460001b81526020018360001b8152602001828103825288818151815260200191508051906020019080838360005b83811015612dfb578082015183820152602001612de3565b50505050905090810190601f168015612e285780820380516001836020036101000a031916815260200191505b5097505050505050505060006040518083038160008780612e47616140565b158015612e5c57600080612e5961607a565b50505b505a612e66616245565b505050505050158015612e86573d6000803e3d6000612e8361607a565b50505b50505050505050505050565b612e9a61521d565b6001600160a01b03165a612eac6162fe565b6001600160a01b031614612efd5760405162461bcd60e51b815260206004820152601e6024820152600080516020616453833981519152604482015260640160405180910390612efa61607a565b50505b60006004612f096160e5565b906101000a90046001600160a01b03166001600160a01b031663907dff97838360405160200180838152602001828152602001925050506040516020818303038152906040526002604051806027616576823960270190506040518091039020612f72886156e4565b6000806040518763ffffffff1660e01b815260040180806020018781526020018681526020018581526020018460001b81526020018360001b8152602001828103825288818151815260200191508051906020019080838360005b83811015612fe5578082015183820152602001612fcd565b50505050905090810190601f1680156130125780820380516001836020036101000a031916815260200191505b5097505050505050505060006040518083038160008780613031616140565b1580156130465760008061304361607a565b50505b505a613050616245565b505050505050158015611faf573d6000803e3d600061306d61607a565b505050505050505050565b60008060076130856160e5565b906101000a90046001600160a01b03166001600160a01b03166370a08231836040516001600160e01b031960e084901b1681526001600160a01b0390911660048201526024016020604051808303818680610fde616140565b60606130e8614d95565b6001600160a01b03166372cb051f6040518163ffffffff1660e01b8152600401600060405180830381868061311b616140565b1580156131305760008061312d61607a565b50505b505a61313a61618c565b5050505050158015613159573d6000803e3d600061315661607a565b50505b505050506040513d6000823e601f3d908101601f19168201604052602081101561318b5760008061318861607a565b50505b81019080805160405193929190846401000000008211156131b4576000806131b161607a565b50505b9083019060208201858111156131d2576000806131cf61607a565b50505b82518660208202830111640100000000821117156131f8576000806131f561607a565b50505b825250602001908051906020019060200280838360005b8381101561322757808201518382015260200161320f565b50505050905001604052505050905090565b600060016132456160e5565b906101000a90046001600160a01b03166001600160a01b03165a6132676162fe565b6001600160a01b0316146132b55760405162461bcd60e51b81526004018080602001828103825260358152602001806163f660359139604001915050604051809103906132b261607a565b50505b7fb532073b38c83145e3e5135377a08bf9aab55bc0fd7c1179cd4fb995d2a5159c6000806132e16160e5565b906101000a90046001600160a01b031660016000906132fe6160e5565b906101000a90046001600160a01b03166040516001600160a01b039283168152911660208201526040908101905180910390a16000600161333d6160e5565b906101000a90046001600160a01b03166000806101000a8161335d6160e5565b816001600160a01b0302191690836001600160a01b031602179061337f616344565b5050506000600160006101000a816133956160e5565b816001600160a01b0302191690836001600160a01b03160217906133b7616344565b505050565b60006133c6614d95565b6001600160a01b031663835e119c836040516001600160e01b031960e084901b16815260048101919091526024016020604051808303818680610fde616140565b6000613411614d95565b6001600160a01b0316637b1001b78360006040516001600160e01b031960e085901b1681526004810192909252151560248201526044016020604051808303818680610fde616140565b613463614f94565b6001600160a01b0316637c3125416040518163ffffffff1660e01b81526004016000604051808303818680613496616140565b1580156134ab576000806134a861607a565b50505b505a6134b561618c565b50505050501580156134d4573d6000803e3d60006134d161607a565b50505b505050506134e0614ddb565b6134e8614d95565b6001600160a01b031663042e068860006006611f216160e5565b600080610f786160e5565b60008584613519614f94565b6001600160a01b0316637118d4316040518163ffffffff1660e01b8152600401600060405180830381868061354c616140565b1580156135615760008061355e61607a565b50505b505a61356b61618c565b505050505015801561358a573d6000803e3d600061358761607a565b50505b50505050613596614f94565b6001600160a01b0316636132eba483836040516001600160e01b031960e085901b1681526004810192909252602482015260440160006040518083038186806135dd616140565b1580156135f2576000806135ef61607a565b50505b505a6135fc61618c565b505050505015801561361b573d6000803e3d600061361861607a565b50505b50505050613627614ddb565b61362f61521d565b6001600160a01b031663dfffca768a6000600661364a6160e5565b906101000a90046001600160a01b03168b8b8b8b8b6040516001600160e01b031960e08a901b1681526001600160a01b039788166004820152958716602487015260448601949094526064850192909252608484015290921660a482015260c481019190915260e401602060405180830381600087806136c8616140565b1580156136dd576000806136da61607a565b50505b505a6136e7616245565b505050505050158015613707573d6000803e3d600061370461607a565b50505b505050506040513d60208110156137265760008061372361607a565b50505b8101908080519c9b505050505050505050505050565b631cd554d160e21b81565b6009806137526160e5565b600181600116156101000203166002900480601f01602080910402602001604051908101604052818152919060208301828061378c6160e5565b600181600116156101000203166002900480156110fd5780601f106137b85761010080836110bd6160e5565b820191906000526020600020905b816137cf6160e5565b815290600101906020018083116137c65750859350505050565b6137f16151a5565b8060046001816137ff6160e5565b816001600160a01b0302191690836001600160a01b0316021790613821616344565b5050507ffc80377ca9c49cc11ae6982f390a42db976d5530af7c43889264b13fbbd7c57e816040516001600160a01b03909116815260200160405180910390a150565b61386c614f94565b6001600160a01b0316637c3125416040518163ffffffff1660e01b8152600401600060405180830381868061389f616140565b1580156138b4576000806138b161607a565b50505b505a6138be61618c565b50505050501580156138dd573d6000803e3d60006138da61607a565b50505b505050506138e9614ddb565b6138f1614d95565b6001600160a01b031663497d704a6000600661390b6160e5565b906101000a90046001600160a01b03166040516001600160e01b031960e084901b1681526001600160a01b03909116600482015260240160006040518083038160008780613957616140565b15801561396c5760008061396961607a565b50505b505a613976616245565b505050505050158015611ad4573d6000803e3d600061399361607a565b5050505050505b565b60008060006139a9614ddb565b6139b161521d565b6001600160a01b0316631b16802c600060066139cb6160e5565b906101000a90046001600160a01b0316866040516001600160e01b031960e085901b1681526001600160a01b039092166004830152602482015260440160606040518083038160008780613a1d616140565b158015613a3257600080613a2f61607a565b50505b505a613a3c616245565b505050505050158015611295573d6000803e3d600061129261607a565b613a616151a5565b60006003613a6d6160e5565b906101000a900460ff16613ad05760405162461bcd60e51b815260206004820152601f60248201527f53656c66204465737472756374206e6f742079657420696e6974696174656400604482015260640160405180910390613acd61607a565b50505b5a613ad9616392565b6224ea006002613ae76160e5565b0110613b425760405162461bcd60e51b815260206004820152601b60248201527f53656c662064657374727563742064656c6179206e6f74206d65740000000000604482015260640160405180910390613b3f61607a565b50505b7f8a09e1677ced846cb537dc2b172043bd05a1a81ad7e0033a7ef8ba762df990b760016003613b6f6160e5565b906101000a90046001600160a01b03166040516001600160a01b03909116815260200160405180910390a1565b60006005610f786160e5565b613bb06156f0565b806007600181613bbe6160e5565b816001600160a01b0302191690836001600160a01b0316021790613be0616344565b505050611fb78161587b565b6000613bf6614d95565b6001600160a01b031663a311c7c2836040516001600160e01b031960e084901b1681526001600160a01b0390911660048201526024016020604051808303818680610fde616140565b6224ea0081565b6000613c50614d95565b6001600160a01b031663a5fdc5de836040516001600160e01b031960e084901b1681526001600160a01b0390911660048201526024016020604051808303818680610fde616140565b6000613ca3614ddb565b613cab614f94565b6001600160a01b031663086dabd16040518163ffffffff1660e01b81526004016000604051808303818680613cde616140565b158015613cf357600080613cf061607a565b50505b505a613cfd61618c565b5050505050158015613d1c573d6000803e3d6000613d1961607a565b50505b50505050613d466006600090613d306160e5565b906101000a90046001600160a01b031683615268565b506111f760006006613d566160e5565b906101000a90046001600160a01b031684846159c3565b613d756163d8565b60005b600d80613d836160e5565b9050811015613dcb57600d8181613d986160e5565b8110613da057fe5b90600052602060002001613db26160e5565b828260188110613dbe57fe5b6020020152600101613d78565b5090565b613dd761521d565b6001600160a01b03165a613de96162fe565b6001600160a01b031614613e3a5760405162461bcd60e51b815260206004820152601e6024820152600080516020616453833981519152604482015260640160405180910390613e3761607a565b50505b60006004613e466160e5565b906101000a90046001600160a01b03166001600160a01b031663907dff9783836040516020018083815260200182815260200192505050604051602081830303815290604052600260405180602861642b823960280190506040518091039020612f72886156e4565b613eb7614f94565b6001600160a01b0316637c3125416040518163ffffffff1660e01b81526004016000604051808303818680613eea616140565b158015613eff57600080613efc61607a565b50505b505a613f0961618c565b5050505050158015613f28573d6000803e3d6000613f2561607a565b50505b50505050613f34614ddb565b613f3c614d95565b6001600160a01b031663c89771326000600661390b6160e5565b6000600361232f6160e5565b613f6a6159d0565b806006600181611ab26160e5565b613f806151a5565b5a613f89616392565b806002613f94616344565b5050506001600360006101000a81613faa6160e5565b8160ff02191690831515021790613fbf616344565b5050507fcbd94ca75b8dc45c9d80c77e851670e78843c0d75180cb81db3e2158228fa9a66224ea0060405190815260200160405180910390a1565b614002614f94565b6001600160a01b0316637c3125416040518163ffffffff1660e01b81526004016000604051808303818680614035616140565b15801561404a5760008061404761607a565b50505b505a61405461618c565b5050505050158015614073573d6000803e3d600061407061607a565b50505b5050505061407f614ddb565b614087614d95565b6001600160a01b0316639a5154b483600060066140a26160e5565b906101000a90046001600160a01b0316846040516001600160e01b031960e086901b1681526001600160a01b039384166004820152919092166024820152604481019190915260640160006040518083038160008780614100616140565b1580156141155760008061411261607a565b50505b505a61411f616245565b505050505050158015613993573d6000803e3d600061413c61607a565b5050505050505050565b60016003610f786160e5565b600d818161415e6160e5565b811061416657fe5b906000526020600020019050611bb16160e5565b60008382614186614f94565b6001600160a01b0316637118d4316040518163ffffffff1660e01b815260040160006040518083038186806141b9616140565b1580156141ce576000806141cb61607a565b50505b505a6141d861618c565b50505050501580156141f7573d6000803e3d60006141f461607a565b50505b50505050614203614f94565b6001600160a01b0316636132eba483836040516001600160e01b031960e085901b16815260048101929092526024820152604401600060405180830381868061424a616140565b15801561425f5760008061425c61607a565b50505b505a61426961618c565b5050505050158015614288573d6000803e3d600061428561607a565b50505b50505050614294614ddb565b61429c61521d565b6001600160a01b0316636a1c475888600060066142b76160e5565b906101000a90046001600160a01b03168989896040516001600160e01b031960e088901b1681526001600160a01b03958616600482015293909416602484015260448301919091526064820152608481019190915260a40160206040518083038160008780614324616140565b1580156143395760008061433661607a565b50505b505a614343616245565b505050505050158015614363573d6000803e3d600061436061607a565b50505b505050506040513d60208110156143825760008061437f61607a565b50505b8101908080519a9950505050505050505050565b60006143a0614d95565b6001600160a01b031663d37c4d8b84846040516001600160e01b031960e085901b1681526001600160a01b039092166004830152602482015260440160206040518083038186806143ef616140565b1580156144045760008061440161607a565b50505b505a61440e61618c565b505050505015801561442d573d6000803e3d600061442a61607a565b50505b505050506040513d602081101561444c5760008061444961607a565b50505b8101908080519695505050505050565b6000614466614d95565b6001600160a01b0316637b1001b78360016040516001600160e01b031960e085901b1681526004810192909252151560248201526044016020604051808303818680610fde616140565b60006006610f786160e5565b60006144c6614d95565b6001600160a01b031663dbf633406040518163ffffffff1660e01b815260040160206040518083038186806126a8616140565b60008060076145066160e5565b906101000a90046001600160a01b03166001600160a01b031663dd62ed3e84846040516001600160e01b031960e085901b1681526001600160a01b0392831660048201529116602482015260440160206040518083038186806143ef616140565b61456f61521d565b6001600160a01b03165a6145816162fe565b6001600160a01b0316146145d25760405162461bcd60e51b815260206004820152601e60248201526000805160206164538339815191526044820152606401604051809103906145cf61607a565b50505b600060046145de6160e5565b906101000a90046001600160a01b03166001600160a01b031663907dff9783836040516020018083815260200182815260200192505050604051602081830303815290604052600260405180602961659d823960290190506040518091039020876000806040518763ffffffff1660e01b815260040180806020018781526020018681526020018581526020018460001b81526020018360001b815260200182810382528881815181526020019150805160209091019080838360008315612fe5578082015183820152602001612fcd565b601881565b60006146bf614f94565b6001600160a01b031663086dabd16040518163ffffffff1660e01b815260040160006040518083038186806146f2616140565b1580156147075760008061470461607a565b50505b505a61471161618c565b5050505050158015614730573d6000803e3d600061472d61607a565b50505b5050505061473c614ddb565b600080614747614d95565b6001600160a01b031663a63c4df48686600060066147636160e5565b906101000a90046001600160a01b03166040516001600160e01b031960e086901b1681526001600160a01b039384166004820152602481019290925290911660448201526064016040805180830381600087806147be616140565b1580156147d3576000806147d061607a565b50505b505a6147dd616245565b5050505050501580156147fd573d6000803e3d60006147fa61607a565b50505b505050506040513d604081101561481c5760008061481961607a565b50505b810190808051929190602001805193955092935061485d925087915084905083600060066148486160e5565b906101000a90046001600160a01b0316615a9d565b614883856000600661486d6160e5565b906101000a90046001600160a01b0316846159c3565b95945050505050565b614894614f94565b6001600160a01b0316637c3125416040518163ffffffff1660e01b815260040160006040518083038186806148c7616140565b1580156148dc576000806148d961607a565b50505b505a6148e661618c565b5050505050158015614905573d6000803e3d600061490261607a565b50505b50505050614911614ddb565b614919614d95565b6001600160a01b03166344ec6b6283600060066140a26160e5565b60006007610f786160e5565b60006004610f786160e5565b6149546156af565b6001600160a01b03165a6149666162fe565b6001600160a01b0316146149b45760405162461bcd60e51b81526004018080602001828103825260348152602001806165c660349139604001915050604051809103906149b161607a565b50505b600060076149c06160e5565b6001600160a01b036101009290920a90041663b46310f683614ab584600060076149e86160e5565b906101000a90046001600160a01b03166001600160a01b03166370a08231886040516001600160e01b031960e084901b1681526001600160a01b0390911660048201526024016020604051808303818680614a41616140565b158015614a5657600080614a5361607a565b50505b505a614a6061618c565b5050505050158015614a7f573d6000803e3d6000614a7c61607a565b50505b505050506040513d6020811015614a9e57600080614a9b61607a565b50505b8101908080519392505063ffffffff61506a169050565b6040516001600160e01b031960e085901b1681526001600160a01b039092166004830152602482015260440160006040518083038160008780614af6616140565b158015614b0b57600080614b0861607a565b50505b505a614b15616245565b505050505050158015614b35573d6000803e3d6000614b3261607a565b50505b50505050614b4582600083615138565b612ae481600a614b536160e5565b9063ffffffff61506a16565b60008382614b6b614f94565b6001600160a01b0316637118d4316040518163ffffffff1660e01b81526004016000604051808303818680614b9e616140565b158015614bb357600080614bb061607a565b50505b505a614bbd61618c565b5050505050158015614bdc573d6000803e3d6000614bd961607a565b50505b50505050614be8614f94565b6001600160a01b0316636132eba483836040516001600160e01b031960e085901b168152600481019290925260248201526044016000604051808303818680614c2f616140565b158015614c4457600080614c4161607a565b50505b505a614c4e61618c565b5050505050158015614c6d573d6000803e3d6000614c6a61607a565b50505b50505050614c79614ddb565b614c8161521d565b6001600160a01b0316630a1e187d60006006614c9b6160e5565b906101000a90046001600160a01b03168888886006600090614cbb6160e5565b906101000a90046001600160a01b03166040516001600160e01b031960e088901b1681526001600160a01b039586166004820152602481019490945260448401929092526064830152909116608482015260a40160206040518083038160008780614d24616140565b158015614d3957600080614d3661607a565b50505b505a614d43616245565b505050505050158015614d63573d6000803e3d6000614d6061607a565b50505b505050506040513d6020811015614d8257600080614d7f61607a565b50505b8101908080519998505050505050505050565b6000614dd66524b9b9bab2b960d11b6040516040808201905260168152754d697373696e6720497373756572206164647265737360501b6020820152615c1d565b905090565b60006004614de76160e5565b906101000a90046001600160a01b03166001600160a01b03165a614e096162fe565b6001600160a01b031614158015614e55575060006005614e276160e5565b906101000a90046001600160a01b03166001600160a01b03165a614e496162fe565b6001600160a01b031614155b8015614e9657505a614e656162fe565b6001600160a01b031660006006614e7a6160e5565b906101000a90046001600160a01b03166001600160a01b031614155b1561399a575a614ea46162fe565b60066001816133956160e5565b60006004614ebd6160e5565b906101000a90046001600160a01b03166001600160a01b031663907dff9782604051602001808281526020019150506040516020818303038152906040526003604051806021616506823960210190506040518091039020614f1e886156e4565b614f27886156e4565b60006040518763ffffffff1660e01b815260040180806020018781526020018681526020018581526020018481526020018360001b815260200182810382528881815181526020019150805160209091019080838360008315612fe5578082015183820152602001612fcd565b6000614dd66b53797374656d53746174757360a01b60405160408082019052601c81527f4d697373696e672053797374656d5374617475732061646472657373000000006020820152615c1d565b6000614dd6722932bbb0b93239a234b9ba3934b13aba34b7b760691b6040516060810160405260238082526165536020830139615c1d565b6000614dd66d537570706c795363686564756c6560901b60405160408082019052601e81527f4d697373696e6720537570706c795363686564756c65206164647265737300006020820152615c1d565b6000828211156150c95760405162461bcd60e51b815260206004820152601e60248201527f536166654d6174683a207375627472616374696f6e206f766572666c6f7700006044820152606401604051809103906150c661607a565b50505b50900390565b6000828201838110156151315760405162461bcd60e51b815260206004820152601b60248201527f536166654d6174683a206164646974696f6e206f766572666c6f77000000000060448201526064016040518091039061512e61607a565b50505b9392505050565b600060046151446160e5565b906101000a90046001600160a01b03166001600160a01b031663907dff978260405160200180828152602001915050604051602081830303815290604052600360405180602161662c823960210190506040518091039020614f1e886156e4565b6000806151b06160e5565b906101000a90046001600160a01b03166001600160a01b03165a6151d26162fe565b6001600160a01b03161461399a5760405162461bcd60e51b815260040180806020018281038252602f8152602001806164d7602f91396040019150506040518091039061266761607a565b6000614dd66822bc31b430b733b2b960b91b60405160408082019052601981527f4d697373696e672045786368616e6765722061646472657373000000000000006020820152615c1d565b600080615273615ce6565b6001600160a01b0316638b3f8088856040516001600160e01b031960e084901b1681526001600160a01b039091166004820152602401604080518083038186806152bb616140565b1580156152d0576000806152cd61607a565b50505b505a6152da61618c565b50505050501580156152f9573d6000803e3d60006152f661607a565b50505b505050506040513d60408110156153185760008061531561607a565b50505b81019080805192919060200180515092935050821591506111f7905057600080615340614d95565b6001600160a01b0316636bed0415876000600761535b6160e5565b906101000a90046001600160a01b03166001600160a01b03166370a082318a6040516001600160e01b031960e084901b1681526001600160a01b03909116600482015260240160206040518083038186806153b4616140565b1580156153c9576000806153c661607a565b50505b505a6153d361618c565b50505050501580156153f2573d6000803e3d60006153ef61607a565b50505b505050506040513d60208110156154115760008061540e61607a565b50505b81019080805192506040915050516001600160e01b031960e085901b1681526001600160a01b03909216600483015260248201526044016040805180830381868061545a616140565b15801561546f5760008061546c61607a565b50505b505a61547961618c565b5050505050158015615498573d6000803e3d600061549561607a565b50505b505050506040513d60408110156154b7576000806154b461607a565b50505b8101908080519291906020018051939550929350505050818511156155165760405162461bcd60e51b81526004018080602001828103825260268152602001806164b1602691396040019150506040518091039061551361607a565b50505b80156155715760405162461bcd60e51b815260206004820152601e60248201527f412073796e7468206f7220534e58207261746520697320696e76616c6964000060448201526064016040518091039061556e61607a565b50505b50600195945050505050565b600080600761558a6160e5565b6001600160a01b036101009290920a90041663da46098c858761561486600060076155b36160e5565b906101000a90046001600160a01b03166001600160a01b031663dd62ed3e8b8d6040516001600160e01b031960e085901b1681526001600160a01b039283166004820152911660248201526044016020604051808303818680614a41616140565b6040516001600160e01b031960e086901b1681526001600160a01b039384166004820152919092166024820152604481019190915260640160006040518083038160008780615661616140565b1580156156765760008061567361607a565b50505b505a615680616245565b5050505050501580156156a0573d6000803e3d600061569d61607a565b50505b50505050614883848484615d36565b6000614dd66f14d958dbdb99185c9e51195c1bdcda5d60821b60405160608101604052602c8082526165276020830139615c1d565b6001600160a01b031690565b600060046156fc6160e5565b906101000a90046001600160a01b03166001600160a01b03165a61571e6162fe565b6001600160a01b03161415801561576a57506000600561573c6160e5565b906101000a90046001600160a01b03166001600160a01b03165a61575e6162fe565b6001600160a01b031614155b80156157ab57505a61577a6162fe565b6001600160a01b03166000600661578f6160e5565b906101000a90046001600160a01b03166001600160a01b031614155b156157ec575a6157b96162fe565b60066001816157c66160e5565b816001600160a01b0302191690836001600160a01b03160217906157e8616344565b5050505b6000806157f76160e5565b6001600160a01b036101009290920a900416600060066158156160e5565b906101000a90046001600160a01b03166001600160a01b03161461399a5760405162461bcd60e51b815260206004820152601360248201527227bbb732b91037b7363c90333ab731ba34b7b760691b60448201526064016040518091039061266761607a565b600060046158876160e5565b906101000a90046001600160a01b03166001600160a01b031663907dff97826040516001600160a01b0390911660208201526040908101905160208183030381529060405260016040517f546f6b656e5374617465557064617465642861646472657373290000000000008152601a01604051809103902060008060006040518763ffffffff1660e01b815260040180806020018781526020018681526020018560001b81526020018460001b81526020018360001b8152602001828103825288818151815260200191508051906020019080838360005b8381101561597757808201518382015260200161595f565b50505050905090810190601f1680156159a45780820380516001836020036101000a031916815260200191505b5097505050505050505060006040518083038160008780611f73616140565b6000611e72848484615d36565b600060046159dc6160e5565b906101000a90046001600160a01b03166001600160a01b03165a6159fe6162fe565b6001600160a01b03161480615a47575060006005615a1a6160e5565b906101000a90046001600160a01b03166001600160a01b03165a615a3c6162fe565b6001600160a01b0316145b61399a5760405162461bcd60e51b815260206004820152601760248201527f4f6e6c79207468652070726f78792063616e2063616c6c00000000000000000060448201526064016040518091039061266761607a565b60006004615aa96160e5565b906101000a90046001600160a01b03166001600160a01b031663907dff9784848460405160208101939093526040808401929092526001600160a01b031660608301526080909101905160208183030381529060405260026040518060326165fa823960320190506040518091039020615b22896156e4565b6000806040518763ffffffff1660e01b815260040180806020018781526020018681526020018581526020018460001b81526020018360001b8152602001828103825288818151815260200191508051906020019080838360005b83811015615b95578082015183820152602001615b7d565b50505050905090810190601f168015615bc25780820380516001836020036101000a031916815260200191505b5097505050505050505060006040518083038160008780615be1616140565b158015615bf657600080615bf361607a565b50505b505a615c00616245565b50505050505015801561413c573d6000803e3d6000612e8661607a565b6000828152600c6020528060408120600090615c376160e5565b6001600160a01b036101009290920a90041690508281615cde5760405162461bcd60e51b81526004018080602001828103825283818151815260200191508051906020019080838360005b83811015615c9a578082015183820152602001615c82565b50505050905090810190601f168015615cc75780820380516001836020036101000a031916815260200191505b509250505060405180910390615cdb61607a565b50505b509392505050565b6000614dd66d53796e746865746978537461746560901b60405160408082019052601e81527f4d697373696e672053796e7468657469785374617465206164647265737300006020820152615c1d565b60006001600160a01b03831615801590615dba57505a63996d79a5598160e01b8152602081600483336000905af158600e01573d6000803e3d6000fd5b3d6001141558600a015760016000f35b8051925060005b6040811015615da157600082820152602001615d8a565b5050506001600160a01b0316836001600160a01b031614155b8015615df3575060006004615dcd6160e5565b906101000a90046001600160a01b03166001600160a01b0316836001600160a01b031614155b615e4c5760405162461bcd60e51b815260206004820152601f60248201527f43616e6e6f74207472616e7366657220746f2074686973206164647265737300604482015260640160405180910390615e4961607a565b50505b60006007615e586160e5565b6001600160a01b036101009290920a90041663b46310f685615ed98560006007615e806160e5565b906101000a90046001600160a01b03166001600160a01b03166370a082318a6040516001600160e01b031960e084901b1681526001600160a01b0390911660048201526024016020604051808303818680614a41616140565b6040516001600160e01b031960e085901b1681526001600160a01b039092166004830152602482015260440160006040518083038160008780615f1a616140565b158015615f2f57600080615f2c61607a565b50505b505a615f39616245565b505050505050158015615f59573d6000803e3d6000615f5661607a565b50505b505050506007600090615f6a6160e5565b6001600160a01b036101009290920a90041663b46310f684615feb8560006007615f926160e5565b906101000a90046001600160a01b03166001600160a01b03166370a08231896040516001600160e01b031960e084901b1681526001600160a01b03909116600482015260240160206040518083038186806116cb616140565b6040516001600160e01b031960e085901b1681526001600160a01b03909216600483015260248201526044016000604051808303816000878061602c616140565b1580156160415760008061603e61607a565b50505b505a61604b616245565b50505050505015801561606b573d6000803e3d600061606861607a565b50505b505050506111f7848484615138565b632a2a7adb598160e01b8152600481016020815285602082015260005b868110156160b2578086015182820160400152602001616097565b506020828760640184336000905af158600e01573d6000803e3d6000fd5b3d6001141558600a015760016000f35b505050565b6303daa959598160e01b8152836004820152602081602483336000905af158600e01573d6000803e3d6000fd5b3d6001141558600a015760016000f35b8051935060005b60408110156133b757600082820152602001616129565b638435035b598160e01b8152836004820152602081602483336000905af158600e01573d6000803e3d6000fd5b3d6001141558600a015760016000f35b80516000825293506020616129565b638540661f598160e01b8152836004820152846024820152606060448201528660648201526084810160005b888110156161d05780880151828201526020016161b8565b50876101040182016060838a6101040185336000905af158600e01573d6000803e3d6000fd5b3d6001141558600a015760016000f35b825160408401513d6000863e8c8c82606088013350600060045af15059855b818110156162395760008152602001616225565b50919c50505050505050565b6385979f76598160e01b8152836004820152846024820152606060448201528760648201526084810160005b89811015616289578089015182820152602001616271565b50886101040182016060838b6101040185336000905af158600e01573d6000803e3d6000fd5b3d6001141558600a015760016000f35b825160408401513d6000863e8d8d82606088013350600060045af15059855b818110156162f257600081526020016162de565b50919d50505050505050565b6373509064598160e01b8152602081600483336000905af158600e01573d6000803e3d6000fd5b3d6001141558600a015760016000f35b80516000825293506020616129565b6322bd64c0598160e01b8152836004820152846024820152600081604483336000905af158600e01573d6000803e3d6000fd5b3d6001141558600a015760016000f35b600081526020616129565b63bdbf8c36598160e01b8152602081600483336000905af158600e01573d6000803e3d6000fd5b3d6001141558600a015760016000f35b80516000825293506020616129565b60405161030080820160405260189082908038833950919291505056fe596f75206d757374206265206e6f6d696e61746564206265666f726520796f752063616e20616363657074206f776e65727368697045786368616e67655265636c61696d28616464726573732c627974657333322c75696e74323536294f6e6c792045786368616e6765722063616e20696e766f6b652074686973000053796e746845786368616e676528616464726573732c627974657333322c75696e743235362c627974657333322c75696e743235362c616464726573732943616e6e6f74207472616e73666572207374616b6564206f7220657363726f77656420534e584f6e6c792074686520636f6e7472616374206f776e6572206d617920706572666f726d207468697320616374696f6e417070726f76616c28616464726573732c616464726573732c75696e74323536295265736f6c766572206973206d697373696e67205365636f6e646172794465706f73697420616464726573734d697373696e672052657761726473446973747269627574696f6e206164647265737345786368616e676552656261746528616464726573732c627974657333322c75696e743235362945786368616e6765547261636b696e6728627974657333322c627974657333322c75696e743235362943616e206f6e6c7920626520696e766f6b656420627920746865205365636f6e646172794465706f73697420636f6e74726163744163636f756e744c69717569646174656428616464726573732c75696e743235362c75696e743235362c61646472657373295472616e7366657228616464726573732c616464726573732c75696e7432353629",
			"opcodes": "PUSH1 0x80 PUSH1 0x40 MSTORE PUSH1 0x40 MLOAD PUSH1 0xC0 DUP2 ADD PUSH1 0x40 SWAP1 DUP2 MSTORE PUSH12 0x53797374656D537461747573 PUSH1 0xA0 SHL DUP3 MSTORE PUSH9 0x22BC31B430B733B2B9 PUSH1 0xB9 SHL PUSH1 0x20 DUP4 ADD MSTORE PUSH6 0x24B9B9BAB2B9 PUSH1 0xD1 SHL SWAP1 DUP3 ADD MSTORE PUSH14 0x537570706C795363686564756C65 PUSH1 0x90 SHL PUSH1 0x60 DUP3 ADD MSTORE PUSH32 0x52657761726473446973747269627574696F6E00000000000000000000000000 PUSH1 0x80 DUP3 ADD MSTORE PUSH14 0x53796E7468657469785374617465 PUSH1 0x90 SHL PUSH1 0xA0 DUP3 ADD MSTORE PUSH3 0xA6 SWAP1 PUSH1 0xE SWAP1 PUSH1 0x6 PUSH3 0x8A7 JUMP JUMPDEST POP CALLVALUE DUP1 ISZERO PUSH3 0xBF JUMPI PUSH1 0x0 DUP1 PUSH3 0xBC PUSH3 0x8F5 JUMP JUMPDEST POP POP JUMPDEST POP PUSH1 0x40 MLOAD PUSH3 0x727C CODESIZE SUB DUP1 PUSH3 0x727C DUP4 CODECOPY DUP2 DUP2 ADD PUSH1 0x40 MSTORE PUSH1 0xA0 DUP2 LT ISZERO PUSH3 0xF0 JUMPI PUSH1 0x0 DUP1 PUSH3 0xED PUSH3 0x8F5 JUMP JUMPDEST POP POP JUMPDEST DUP2 ADD SWAP1 DUP1 DUP1 MLOAD SWAP3 SWAP2 SWAP1 PUSH1 0x20 ADD DUP1 MLOAD SWAP3 SWAP2 SWAP1 PUSH1 0x20 ADD DUP1 MLOAD SWAP3 SWAP2 SWAP1 PUSH1 0x20 ADD DUP1 MLOAD SWAP3 SWAP2 SWAP1 PUSH1 0x20 ADD DUP1 MLOAD SWAP3 POP DUP7 SWAP2 POP DUP6 SWAP1 POP DUP5 DUP5 DUP5 DUP1 PUSH1 0xE PUSH1 0x18 PUSH2 0x300 PUSH1 0x40 MLOAD SWAP1 DUP2 ADD PUSH1 0x40 MSTORE SWAP2 SWAP1 PUSH2 0x300 DUP4 ADD DUP3 DUP5 JUMPDEST DUP2 PUSH3 0x147 PUSH3 0x962 JUMP JUMPDEST DUP2 MSTORE PUSH1 0x20 ADD SWAP1 PUSH1 0x1 ADD SWAP1 DUP1 DUP4 GT PUSH3 0x13C JUMPI POP POP POP POP POP DUP7 DUP7 PUSH1 0x40 MLOAD PUSH1 0x40 DUP1 DUP3 ADD DUP2 MSTORE PUSH1 0x17 DUP3 MSTORE PUSH32 0x53796E746865746978204E6574776F726B20546F6B656E000000000000000000 PUSH1 0x20 DUP4 ADD MSTORE MLOAD PUSH1 0x40 DUP1 DUP3 ADD SWAP1 MSTORE PUSH1 0x3 DUP2 MSTORE PUSH3 0xA69CB PUSH1 0xEB SHL PUSH1 0x20 DUP3 ADD MSTORE DUP8 PUSH1 0x12 DUP11 DUP7 DUP2 PUSH1 0x1 PUSH1 0x1 PUSH1 0xA0 SHL SUB DUP2 AND PUSH3 0x218 JUMPI PUSH1 0x40 MLOAD PUSH3 0x461BCD PUSH1 0xE5 SHL DUP2 MSTORE PUSH1 0x20 PUSH1 0x4 DUP3 ADD MSTORE PUSH1 0x19 PUSH1 0x24 DUP3 ADD MSTORE PUSH32 0x4F776E657220616464726573732063616E6E6F74206265203000000000000000 PUSH1 0x44 DUP3 ADD MSTORE PUSH1 0x64 ADD PUSH1 0x40 MLOAD DUP1 SWAP2 SUB SWAP1 PUSH3 0x215 PUSH3 0x8F5 JUMP JUMPDEST POP POP JUMPDEST DUP1 PUSH1 0x0 PUSH1 0x1 DUP2 PUSH3 0x228 PUSH3 0x962 JUMP JUMPDEST DUP2 PUSH1 0x1 PUSH1 0x1 PUSH1 0xA0 SHL SUB MUL NOT AND SWAP1 DUP4 PUSH1 0x1 PUSH1 0x1 PUSH1 0xA0 SHL SUB AND MUL OR SWAP1 PUSH3 0x24C PUSH3 0x9C4 JUMP JUMPDEST POP POP POP PUSH32 0xB532073B38C83145E3E5135377A08BF9AAB55BC0FD7C1179CD4FB995D2A5159C PUSH1 0x0 DUP3 PUSH1 0x40 MLOAD PUSH1 0x1 PUSH1 0x1 PUSH1 0xA0 SHL SUB SWAP3 DUP4 AND DUP2 MSTORE SWAP2 AND PUSH1 0x20 DUP3 ADD MSTORE PUSH1 0x40 SWAP1 DUP2 ADD SWAP1 MLOAD DUP1 SWAP2 SUB SWAP1 LOG1 POP PUSH1 0x0 DUP1 DUP1 PUSH3 0x2A5 PUSH3 0x962 JUMP JUMPDEST SWAP1 PUSH2 0x100 EXP SWAP1 DIV PUSH1 0x1 PUSH1 0x1 PUSH1 0xA0 SHL SUB AND PUSH1 0x1 PUSH1 0x1 PUSH1 0xA0 SHL SUB AND EQ ISZERO PUSH3 0x310 JUMPI PUSH1 0x40 MLOAD PUSH3 0x461BCD PUSH1 0xE5 SHL DUP2 MSTORE PUSH1 0x20 PUSH1 0x4 DUP3 ADD MSTORE PUSH1 0x11 PUSH1 0x24 DUP3 ADD MSTORE PUSH17 0x13DDDB995C881B5D5CDD081899481CD95D PUSH1 0x7A SHL PUSH1 0x44 DUP3 ADD MSTORE PUSH1 0x64 ADD PUSH1 0x40 MLOAD DUP1 SWAP2 SUB SWAP1 PUSH3 0x30D PUSH3 0x8F5 JUMP JUMPDEST POP POP JUMPDEST PUSH1 0x0 DUP1 PUSH3 0x31D PUSH3 0x962 JUMP JUMPDEST SWAP1 PUSH2 0x100 EXP SWAP1 DIV PUSH1 0x1 PUSH1 0x1 PUSH1 0xA0 SHL SUB AND PUSH1 0x3 PUSH1 0x1 PUSH2 0x100 EXP DUP2 PUSH3 0x340 PUSH3 0x962 JUMP JUMPDEST DUP2 PUSH1 0x1 PUSH1 0x1 PUSH1 0xA0 SHL SUB MUL NOT AND SWAP1 DUP4 PUSH1 0x1 PUSH1 0x1 PUSH1 0xA0 SHL SUB AND MUL OR SWAP1 PUSH3 0x364 PUSH3 0x9C4 JUMP JUMPDEST POP POP POP PUSH32 0xD5DA63A0B864B315BC04128DEDBC93888C8529EE6CF47CE664DC204339228C53 PUSH1 0x0 DUP1 SWAP1 PUSH3 0x396 PUSH3 0x962 JUMP JUMPDEST SWAP1 PUSH2 0x100 EXP SWAP1 DIV PUSH1 0x1 PUSH1 0x1 PUSH1 0xA0 SHL SUB AND PUSH1 0x40 MLOAD PUSH1 0x1 PUSH1 0x1 PUSH1 0xA0 SHL SUB SWAP1 SWAP2 AND DUP2 MSTORE PUSH1 0x20 ADD PUSH1 0x40 MLOAD DUP1 SWAP2 SUB SWAP1 LOG1 PUSH1 0x0 DUP1 DUP1 PUSH3 0x3CF PUSH3 0x962 JUMP JUMPDEST SWAP1 PUSH2 0x100 EXP SWAP1 DIV PUSH1 0x1 PUSH1 0x1 PUSH1 0xA0 SHL SUB AND PUSH1 0x1 PUSH1 0x1 PUSH1 0xA0 SHL SUB AND EQ ISZERO PUSH3 0x43A JUMPI PUSH1 0x40 MLOAD PUSH3 0x461BCD PUSH1 0xE5 SHL DUP2 MSTORE PUSH1 0x20 PUSH1 0x4 DUP3 ADD MSTORE PUSH1 0x11 PUSH1 0x24 DUP3 ADD MSTORE PUSH17 0x13DDDB995C881B5D5CDD081899481CD95D PUSH1 0x7A SHL PUSH1 0x44 DUP3 ADD MSTORE PUSH1 0x64 ADD PUSH1 0x40 MLOAD DUP1 SWAP2 SUB SWAP1 PUSH3 0x437 PUSH3 0x8F5 JUMP JUMPDEST POP POP JUMPDEST DUP1 PUSH1 0x4 PUSH1 0x1 DUP2 PUSH3 0x44A PUSH3 0x962 JUMP JUMPDEST DUP2 PUSH1 0x1 PUSH1 0x1 PUSH1 0xA0 SHL SUB MUL NOT AND SWAP1 DUP4 PUSH1 0x1 PUSH1 0x1 PUSH1 0xA0 SHL SUB AND MUL OR SWAP1 PUSH3 0x46E PUSH3 0x9C4 JUMP JUMPDEST POP POP POP PUSH32 0xFC80377CA9C49CC11AE6982F390A42DB976D5530AF7C43889264B13FBBD7C57E DUP2 PUSH1 0x40 MLOAD PUSH1 0x1 PUSH1 0x1 PUSH1 0xA0 SHL SUB SWAP1 SWAP2 AND DUP2 MSTORE PUSH1 0x20 ADD PUSH1 0x40 MLOAD DUP1 SWAP2 SUB SWAP1 LOG1 POP DUP6 PUSH1 0x7 PUSH1 0x1 DUP2 PUSH3 0x4BF PUSH3 0x962 JUMP JUMPDEST DUP2 PUSH1 0x1 PUSH1 0x1 PUSH1 0xA0 SHL SUB MUL NOT AND SWAP1 DUP4 PUSH1 0x1 PUSH1 0x1 PUSH1 0xA0 SHL SUB AND MUL OR SWAP1 PUSH3 0x4E3 PUSH3 0x9C4 JUMP JUMPDEST POP POP POP DUP5 PUSH1 0x8 SWAP1 DUP1 MLOAD PUSH3 0x4FC SWAP3 SWAP2 PUSH1 0x20 ADD SWAP1 PUSH3 0xA13 JUMP JUMPDEST POP PUSH1 0x9 DUP5 DUP1 MLOAD PUSH3 0x512 SWAP3 SWAP2 PUSH1 0x20 ADD SWAP1 PUSH3 0xA13 JUMP JUMPDEST POP DUP3 DUP1 PUSH1 0xA PUSH3 0x521 PUSH3 0x9C4 JUMP JUMPDEST POP POP POP DUP2 PUSH1 0xB PUSH1 0x0 PUSH2 0x100 EXP DUP2 PUSH3 0x538 PUSH3 0x962 JUMP JUMPDEST DUP2 PUSH1 0xFF MUL NOT AND SWAP1 DUP4 PUSH1 0xFF AND MUL OR SWAP1 PUSH3 0x550 PUSH3 0x9C4 JUMP JUMPDEST POP POP POP POP POP POP POP POP POP POP PUSH1 0x0 PUSH1 0x1 PUSH1 0x1 PUSH1 0xA0 SHL SUB AND PUSH1 0x0 DUP1 SWAP1 PUSH3 0x573 PUSH3 0x962 JUMP JUMPDEST SWAP1 PUSH2 0x100 EXP SWAP1 DIV PUSH1 0x1 PUSH1 0x1 PUSH1 0xA0 SHL SUB AND PUSH1 0x1 PUSH1 0x1 PUSH1 0xA0 SHL SUB AND EQ ISZERO PUSH3 0x5DE JUMPI PUSH1 0x40 MLOAD PUSH3 0x461BCD PUSH1 0xE5 SHL DUP2 MSTORE PUSH1 0x20 PUSH1 0x4 DUP3 ADD MSTORE PUSH1 0x11 PUSH1 0x24 DUP3 ADD MSTORE PUSH17 0x13DDDB995C881B5D5CDD081899481CD95D PUSH1 0x7A SHL PUSH1 0x44 DUP3 ADD MSTORE PUSH1 0x64 ADD PUSH1 0x40 MLOAD DUP1 SWAP2 SUB SWAP1 PUSH3 0x5DB PUSH3 0x8F5 JUMP JUMPDEST POP POP JUMPDEST PUSH1 0x0 JUMPDEST PUSH1 0x18 DUP2 LT ISZERO PUSH3 0x66E JUMPI PUSH1 0x0 DUP3 DUP3 PUSH1 0x18 DUP2 LT PUSH3 0x5FA JUMPI INVALID JUMPDEST PUSH1 0x20 MUL ADD MLOAD EQ PUSH3 0x65F JUMPI PUSH1 0xD DUP3 DUP3 PUSH1 0x18 DUP2 LT PUSH3 0x614 JUMPI INVALID JUMPDEST PUSH1 0x20 MUL ADD MLOAD SWAP1 DUP1 PUSH1 0x1 DUP2 PUSH3 0x628 PUSH3 0x962 JUMP JUMPDEST ADD DUP1 DUP3 PUSH3 0x635 PUSH3 0x9C4 JUMP JUMPDEST POP POP PUSH1 0x0 SWAP3 DUP4 MSTORE SWAP2 PUSH1 0x0 NOT DUP4 ADD SWAP2 POP PUSH1 0x20 SWAP1 KECCAK256 SWAP2 SWAP3 SWAP2 ADD PUSH3 0x656 PUSH3 0x9C4 JUMP JUMPDEST POP POP POP PUSH3 0x665 JUMP JUMPDEST PUSH3 0x66E JUMP JUMPDEST PUSH1 0x1 ADD PUSH3 0x5E1 JUMP JUMPDEST POP DUP2 PUSH1 0xB PUSH2 0x100 DUP2 PUSH3 0x680 PUSH3 0x962 JUMP JUMPDEST DUP2 PUSH1 0x1 PUSH1 0x1 PUSH1 0xA0 SHL SUB MUL NOT AND SWAP1 DUP4 PUSH1 0x1 PUSH1 0x1 PUSH1 0xA0 SHL SUB AND MUL OR SWAP1 PUSH3 0x6A4 PUSH3 0x9C4 JUMP JUMPDEST POP POP POP POP POP POP POP POP POP POP PUSH3 0x6D2 PUSH16 0x14D958DBDB99185C9E51195C1BDCDA5D PUSH1 0x82 SHL PUSH3 0x6DD PUSH1 0x20 SHL PUSH1 0x20 SHR JUMP JUMPDEST POP POP POP POP POP PUSH3 0xC1F JUMP JUMPDEST DUP1 PUSH1 0xD DUP1 PUSH1 0x1 DUP2 PUSH3 0x6EE PUSH3 0x962 JUMP JUMPDEST ADD DUP1 DUP3 PUSH3 0x6FB PUSH3 0x9C4 JUMP JUMPDEST POP POP PUSH1 0x0 SWAP3 DUP4 MSTORE SWAP2 PUSH1 0x0 NOT DUP4 ADD SWAP2 POP PUSH1 0x20 SWAP1 KECCAK256 SWAP2 SWAP3 SWAP2 ADD PUSH3 0x71C PUSH3 0x9C4 JUMP JUMPDEST POP POP POP PUSH1 0x18 PUSH1 0xD DUP1 PUSH3 0x72E PUSH3 0x962 JUMP JUMPDEST SWAP1 POP LT PUSH3 0x78D JUMPI PUSH1 0x40 MLOAD PUSH3 0x461BCD PUSH1 0xE5 SHL DUP2 MSTORE PUSH1 0x20 PUSH1 0x4 DUP3 ADD MSTORE PUSH1 0x1B PUSH1 0x24 DUP3 ADD MSTORE PUSH32 0x4D6178207265736F6C7665722063616368652073697A65206D65740000000000 PUSH1 0x44 DUP3 ADD MSTORE PUSH1 0x64 ADD PUSH1 0x40 MLOAD DUP1 SWAP2 SUB SWAP1 PUSH3 0x78A PUSH3 0x8F5 JUMP JUMPDEST POP POP JUMPDEST PUSH1 0x1 PUSH1 0xB PUSH3 0x79B PUSH3 0x962 JUMP JUMPDEST SWAP1 PUSH2 0x100 EXP SWAP1 DIV PUSH1 0x1 PUSH1 0x1 PUSH1 0xA0 SHL SUB AND PUSH1 0x1 PUSH1 0x1 PUSH1 0xA0 SHL SUB AND PUSH4 0x21F8A721 DUP3 PUSH1 0x40 MLOAD PUSH1 0x1 PUSH1 0x1 PUSH1 0xE0 SHL SUB NOT PUSH1 0xE0 DUP5 SWAP1 SHL AND DUP2 MSTORE PUSH1 0x4 DUP2 ADD SWAP2 SWAP1 SWAP2 MSTORE PUSH1 0x24 ADD PUSH1 0x20 PUSH1 0x40 MLOAD DUP1 DUP4 SUB DUP2 DUP7 DUP1 PUSH3 0x7EE PUSH3 0xABE JUMP JUMPDEST ISZERO DUP1 ISZERO PUSH3 0x806 JUMPI PUSH1 0x0 DUP1 PUSH3 0x803 PUSH3 0x8F5 JUMP JUMPDEST POP POP JUMPDEST POP GAS PUSH3 0x812 PUSH3 0xB0B JUMP JUMPDEST POP POP POP POP POP ISZERO DUP1 ISZERO PUSH3 0x834 JUMPI RETURNDATASIZE PUSH1 0x0 DUP1 RETURNDATACOPY RETURNDATASIZE PUSH1 0x0 PUSH3 0x831 PUSH3 0x8F5 JUMP JUMPDEST POP POP JUMPDEST POP POP POP POP PUSH1 0x40 MLOAD RETURNDATASIZE PUSH1 0x20 DUP2 LT ISZERO PUSH3 0x856 JUMPI PUSH1 0x0 DUP1 PUSH3 0x853 PUSH3 0x8F5 JUMP JUMPDEST POP POP JUMPDEST DUP2 ADD SWAP1 DUP1 DUP1 MLOAD PUSH1 0x0 DUP6 DUP2 MSTORE PUSH1 0xC PUSH1 0x20 MSTORE SWAP1 SWAP4 POP PUSH1 0x40 SWAP3 POP SWAP1 POP KECCAK256 PUSH1 0x1 DUP2 PUSH3 0x87D PUSH3 0x962 JUMP JUMPDEST DUP2 PUSH1 0x1 PUSH1 0x1 PUSH1 0xA0 SHL SUB MUL NOT AND SWAP1 DUP4 PUSH1 0x1 PUSH1 0x1 PUSH1 0xA0 SHL SUB AND MUL OR SWAP1 PUSH3 0x8A1 PUSH3 0x9C4 JUMP JUMPDEST POP POP POP POP JUMP JUMPDEST DUP3 PUSH1 0x18 DUP2 ADD SWAP3 DUP3 ISZERO PUSH3 0x8E3 JUMPI SWAP2 PUSH1 0x20 MUL DUP3 ADD JUMPDEST DUP3 DUP2 GT ISZERO PUSH3 0x8E3 JUMPI DUP3 MLOAD DUP3 PUSH3 0x8D1 PUSH3 0x9C4 JUMP JUMPDEST POP POP SWAP2 PUSH1 0x20 ADD SWAP2 SWAP1 PUSH1 0x1 ADD SWAP1 PUSH3 0x8BB JUMP JUMPDEST POP PUSH3 0x8F1 SWAP3 SWAP2 POP PUSH3 0xBC8 JUMP JUMPDEST POP SWAP1 JUMP JUMPDEST PUSH4 0x2A2A7ADB MSIZE DUP2 PUSH1 0xE0 SHL DUP2 MSTORE PUSH1 0x4 DUP2 ADD PUSH1 0x20 DUP2 MSTORE DUP6 PUSH1 0x20 DUP3 ADD MSTORE PUSH1 0x0 JUMPDEST DUP7 DUP2 LT ISZERO PUSH3 0x92F JUMPI DUP1 DUP7 ADD MLOAD DUP3 DUP3 ADD PUSH1 0x40 ADD MSTORE PUSH1 0x20 ADD PUSH3 0x912 JUMP JUMPDEST POP PUSH1 0x20 DUP3 DUP8 PUSH1 0x64 ADD DUP5 CALLER PUSH1 0x0 SWAP1 GAS CALL PC PUSH1 0xE ADD JUMPI RETURNDATASIZE PUSH1 0x0 DUP1 RETURNDATACOPY RETURNDATASIZE PUSH1 0x0 REVERT JUMPDEST RETURNDATASIZE PUSH1 0x1 EQ ISZERO PC PUSH1 0xA ADD JUMPI PUSH1 0x1 PUSH1 0x0 RETURN JUMPDEST POP POP POP JUMP JUMPDEST PUSH4 0x3DAA959 MSIZE DUP2 PUSH1 0xE0 SHL DUP2 MSTORE DUP4 PUSH1 0x4 DUP3 ADD MSTORE PUSH1 0x20 DUP2 PUSH1 0x24 DUP4 CALLER PUSH1 0x0 SWAP1 GAS CALL PC PUSH1 0xE ADD JUMPI RETURNDATASIZE PUSH1 0x0 DUP1 RETURNDATACOPY RETURNDATASIZE PUSH1 0x0 REVERT JUMPDEST RETURNDATASIZE PUSH1 0x1 EQ ISZERO PC PUSH1 0xA ADD JUMPI PUSH1 0x1 PUSH1 0x0 RETURN JUMPDEST DUP1 MLOAD SWAP4 POP PUSH1 0x0 JUMPDEST PUSH1 0x40 DUP2 LT ISZERO PUSH3 0x9BF JUMPI PUSH1 0x0 DUP3 DUP3 ADD MSTORE PUSH1 0x20 ADD PUSH3 0x9A6 JUMP JUMPDEST POP POP POP JUMP JUMPDEST PUSH4 0x22BD64C0 MSIZE DUP2 PUSH1 0xE0 SHL DUP2 MSTORE DUP4 PUSH1 0x4 DUP3 ADD MSTORE DUP5 PUSH1 0x24 DUP3 ADD MSTORE PUSH1 0x0 DUP2 PUSH1 0x44 DUP4 CALLER PUSH1 0x0 SWAP1 GAS CALL PC PUSH1 0xE ADD JUMPI RETURNDATASIZE PUSH1 0x0 DUP1 RETURNDATACOPY RETURNDATASIZE PUSH1 0x0 REVERT JUMPDEST RETURNDATASIZE PUSH1 0x1 EQ ISZERO PC PUSH1 0xA ADD JUMPI PUSH1 0x1 PUSH1 0x0 RETURN JUMPDEST PUSH1 0x0 DUP2 MSTORE PUSH1 0x20 PUSH3 0x9A6 JUMP JUMPDEST DUP3 DUP1 PUSH3 0xA1F PUSH3 0x962 JUMP JUMPDEST PUSH1 0x1 DUP2 PUSH1 0x1 AND ISZERO PUSH2 0x100 MUL SUB AND PUSH1 0x2 SWAP1 DIV SWAP1 PUSH1 0x0 MSTORE PUSH1 0x20 PUSH1 0x0 KECCAK256 SWAP1 PUSH1 0x1F ADD PUSH1 0x20 SWAP1 DIV DUP2 ADD SWAP3 DUP3 PUSH1 0x1F LT PUSH3 0xA6A JUMPI DUP1 MLOAD PUSH1 0xFF NOT AND DUP4 DUP1 ADD OR DUP6 PUSH3 0xA62 PUSH3 0x9C4 JUMP JUMPDEST POP POP PUSH3 0xAB0 JUMP JUMPDEST DUP3 DUP1 ADD PUSH1 0x1 ADD DUP6 PUSH3 0xA7B PUSH3 0x9C4 JUMP JUMPDEST POP POP DUP3 ISZERO PUSH3 0xAB0 JUMPI SWAP2 DUP3 ADD JUMPDEST DUP3 DUP2 GT ISZERO PUSH3 0xAB0 JUMPI DUP3 MLOAD DUP3 PUSH3 0xA9E PUSH3 0x9C4 JUMP JUMPDEST POP POP SWAP2 PUSH1 0x20 ADD SWAP2 SWAP1 PUSH1 0x1 ADD SWAP1 PUSH3 0xA88 JUMP JUMPDEST POP PUSH3 0x8F1 SWAP3 SWAP2 POP PUSH3 0xBF5 JUMP JUMPDEST PUSH4 0x8435035B MSIZE DUP2 PUSH1 0xE0 SHL DUP2 MSTORE DUP4 PUSH1 0x4 DUP3 ADD MSTORE PUSH1 0x20 DUP2 PUSH1 0x24 DUP4 CALLER PUSH1 0x0 SWAP1 GAS CALL PC PUSH1 0xE ADD JUMPI RETURNDATASIZE PUSH1 0x0 DUP1 RETURNDATACOPY RETURNDATASIZE PUSH1 0x0 REVERT JUMPDEST RETURNDATASIZE PUSH1 0x1 EQ ISZERO PC PUSH1 0xA ADD JUMPI PUSH1 0x1 PUSH1 0x0 RETURN JUMPDEST DUP1 MLOAD PUSH1 0x0 DUP3 MSTORE SWAP4 POP PUSH1 0x20 PUSH3 0x9A6 JUMP JUMPDEST PUSH4 0x8540661F MSIZE DUP2 PUSH1 0xE0 SHL DUP2 MSTORE DUP4 PUSH1 0x4 DUP3 ADD MSTORE DUP5 PUSH1 0x24 DUP3 ADD MSTORE PUSH1 0x60 PUSH1 0x44 DUP3 ADD MSTORE DUP7 PUSH1 0x64 DUP3 ADD MSTORE PUSH1 0x84 DUP2 ADD PUSH1 0x0 JUMPDEST DUP9 DUP2 LT ISZERO PUSH3 0xB51 JUMPI DUP1 DUP9 ADD MLOAD DUP3 DUP3 ADD MSTORE PUSH1 0x20 ADD PUSH3 0xB37 JUMP JUMPDEST POP DUP8 PUSH2 0x104 ADD DUP3 ADD PUSH1 0x60 DUP4 DUP11 PUSH2 0x104 ADD DUP6 CALLER PUSH1 0x0 SWAP1 GAS CALL PC PUSH1 0xE ADD JUMPI RETURNDATASIZE PUSH1 0x0 DUP1 RETURNDATACOPY RETURNDATASIZE PUSH1 0x0 REVERT JUMPDEST RETURNDATASIZE PUSH1 0x1 EQ ISZERO PC PUSH1 0xA ADD JUMPI PUSH1 0x1 PUSH1 0x0 RETURN JUMPDEST DUP3 MLOAD PUSH1 0x40 DUP5 ADD MLOAD RETURNDATASIZE PUSH1 0x0 DUP7 RETURNDATACOPY DUP13 DUP13 DUP3 PUSH1 0x60 DUP9 ADD CALLER POP PUSH1 0x0 PUSH1 0x4 GAS CALL POP MSIZE DUP6 JUMPDEST DUP2 DUP2 LT ISZERO PUSH3 0xBBC JUMPI PUSH1 0x0 DUP2 MSTORE PUSH1 0x20 ADD PUSH3 0xBA6 JUMP JUMPDEST POP SWAP2 SWAP13 POP POP POP POP POP POP POP JUMP JUMPDEST PUSH3 0xBF2 SWAP2 SWAP1 JUMPDEST DUP1 DUP3 GT ISZERO PUSH3 0x8F1 JUMPI PUSH1 0x0 DUP1 DUP3 PUSH3 0xBE6 PUSH3 0x9C4 JUMP JUMPDEST POP POP POP PUSH1 0x1 ADD PUSH3 0xBCF JUMP JUMPDEST SWAP1 JUMP JUMPDEST PUSH3 0xBF2 SWAP2 SWAP1 JUMPDEST DUP1 DUP3 GT ISZERO PUSH3 0x8F1 JUMPI PUSH1 0x0 DUP1 DUP3 PUSH3 0xC13 PUSH3 0x9C4 JUMP JUMPDEST POP POP POP PUSH1 0x1 ADD PUSH3 0xBFC JUMP JUMPDEST PUSH2 0x664D DUP1 PUSH3 0xC2F PUSH1 0x0 CODECOPY PUSH1 0x0 RETURN INVALID PUSH1 0x80 PUSH1 0x40 MSTORE CALLVALUE DUP1 ISZERO PUSH2 0x19 JUMPI PUSH1 0x0 DUP1 PUSH2 0x16 PUSH2 0x607A JUMP JUMPDEST POP POP JUMPDEST POP PUSH1 0x4 CALLDATASIZE LT PUSH2 0x452 JUMPI PUSH1 0x0 CALLDATALOAD PUSH1 0xE0 SHR DUP1 PUSH4 0x8A290014 GT PUSH2 0x24A JUMPI DUP1 PUSH4 0xBC67F832 GT PUSH2 0x144 JUMPI DUP1 PUSH4 0xDBF63340 GT PUSH2 0xCC JUMPI DUP1 PUSH4 0xE8E09B8B GT PUSH2 0x90 JUMPI DUP1 PUSH4 0xE8E09B8B EQ PUSH2 0xEC0 JUMPI DUP1 PUSH4 0xE90DD9E2 EQ PUSH2 0xEF5 JUMPI DUP1 PUSH4 0xEC556889 EQ PUSH2 0xEFD JUMPI DUP1 PUSH4 0xEDEF719A EQ PUSH2 0xF05 JUMPI DUP1 PUSH4 0xEE52A2F3 EQ PUSH2 0xF3A JUMPI PUSH2 0x452 JUMP JUMPDEST DUP1 PUSH4 0xDBF63340 EQ PUSH2 0xE12 JUMPI DUP1 PUSH4 0xDD62ED3E EQ PUSH2 0xE1A JUMPI DUP1 PUSH4 0xDDD03A3F EQ PUSH2 0xE51 JUMPI DUP1 PUSH4 0xE3235C91 EQ PUSH2 0xE83 JUMPI DUP1 PUSH4 0xE6203ED1 EQ PUSH2 0xE8B JUMPI PUSH2 0x452 JUMP JUMPDEST DUP1 PUSH4 0xC6C9D828 GT PUSH2 0x113 JUMPI DUP1 PUSH4 0xC6C9D828 EQ PUSH2 0xD48 JUMPI DUP1 PUSH4 0xC836FA0A EQ PUSH2 0xD6E JUMPI DUP1 PUSH4 0xD37C4D8B EQ PUSH2 0xDAF JUMPI DUP1 PUSH4 0xD60888E4 EQ PUSH2 0xDE4 JUMPI DUP1 PUSH4 0xD67BDD25 EQ PUSH2 0xE0A JUMPI PUSH2 0x452 JUMP JUMPDEST DUP1 PUSH4 0xBC67F832 EQ PUSH2 0xCD4 JUMPI DUP1 PUSH4 0xBD32AA44 EQ PUSH2 0xD03 JUMPI DUP1 PUSH4 0xC2BF3880 EQ PUSH2 0xD0B JUMPI DUP1 PUSH4 0xC58AAAE6 EQ PUSH2 0xD40 JUMPI PUSH2 0x452 JUMP JUMPDEST DUP1 PUSH4 0x9CBDAEB6 GT PUSH2 0x1D2 JUMPI DUP1 PUSH4 0xA9059CBB GT PUSH2 0x196 JUMPI DUP1 PUSH4 0xA9059CBB EQ PUSH2 0xC13 JUMPI DUP1 PUSH4 0xAB49848C EQ PUSH2 0xC48 JUMPI DUP1 PUSH4 0xACE88AFD EQ PUSH2 0xC89 JUMPI DUP1 PUSH4 0xAF086C7E EQ PUSH2 0xCC4 JUMPI DUP1 PUSH4 0xB8225DEC EQ PUSH2 0xCCC JUMPI PUSH2 0x452 JUMP JUMPDEST DUP1 PUSH4 0x9CBDAEB6 EQ PUSH2 0xB76 JUMPI DUP1 PUSH4 0x9F769807 EQ PUSH2 0xB7E JUMPI DUP1 PUSH4 0xA311C7C2 EQ PUSH2 0xBAD JUMPI DUP1 PUSH4 0xA461FC82 EQ PUSH2 0xBDC JUMPI DUP1 PUSH4 0xA5FDC5DE EQ PUSH2 0xBE4 JUMPI PUSH2 0x452 JUMP JUMPDEST DUP1 PUSH4 0x95D89B41 GT PUSH2 0x219 JUMPI DUP1 PUSH4 0x95D89B41 EQ PUSH2 0xB09 JUMPI DUP1 PUSH4 0x97107D6D EQ PUSH2 0xB11 JUMPI DUP1 PUSH4 0x9741FB22 EQ PUSH2 0xB40 JUMPI DUP1 PUSH4 0x987757DD EQ PUSH2 0xB48 JUMPI DUP1 PUSH4 0x9CB8A26A EQ PUSH2 0xB6E JUMPI PUSH2 0x452 JUMP JUMPDEST DUP1 PUSH4 0x8A290014 EQ PUSH2 0xA84 JUMPI DUP1 PUSH4 0x8DA5CB5B EQ PUSH2 0xAAA JUMPI DUP1 PUSH4 0x91E56B68 EQ PUSH2 0xAB2 JUMPI DUP1 PUSH4 0x9324CAC7 EQ PUSH2 0xB01 JUMPI PUSH2 0x452 JUMP JUMPDEST DUP1 PUSH4 0x2E0F2625 GT PUSH2 0x35B JUMPI DUP1 PUSH4 0x631E1444 GT PUSH2 0x2E3 JUMPI DUP1 PUSH4 0x70A08231 GT PUSH2 0x2A7 JUMPI DUP1 PUSH4 0x70A08231 EQ PUSH2 0x9A6 JUMPI DUP1 PUSH4 0x72CB051F EQ PUSH2 0x9D5 JUMPI DUP1 PUSH4 0x79BA5097 EQ PUSH2 0xA30 JUMPI DUP1 PUSH4 0x835E119C EQ PUSH2 0xA38 JUMPI DUP1 PUSH4 0x83D625D4 EQ PUSH2 0xA5E JUMPI PUSH2 0x452 JUMP JUMPDEST DUP1 PUSH4 0x631E1444 EQ PUSH2 0x889 JUMPI DUP1 PUSH4 0x666ED4F1 EQ PUSH2 0x8B8 JUMPI DUP1 PUSH4 0x6AC0BF9C EQ PUSH2 0x8ED JUMPI DUP1 PUSH4 0x6C00F310 EQ PUSH2 0x91C JUMPI DUP1 PUSH4 0x6F01A986 EQ PUSH2 0x96B JUMPI PUSH2 0x452 JUMP JUMPDEST DUP1 PUSH4 0x32608039 GT PUSH2 0x32A JUMPI DUP1 PUSH4 0x32608039 EQ PUSH2 0x81C JUMPI DUP1 PUSH4 0x3278C960 EQ PUSH2 0x842 JUMPI DUP1 PUSH4 0x3BE99E6F EQ PUSH2 0x84A JUMPI DUP1 PUSH4 0x4E99BDA9 EQ PUSH2 0x879 JUMPI DUP1 PUSH4 0x53A47BB7 EQ PUSH2 0x881 JUMPI PUSH2 0x452 JUMP JUMPDEST DUP1 PUSH4 0x2E0F2625 EQ PUSH2 0x780 JUMPI DUP1 PUSH4 0x30EAD760 EQ PUSH2 0x79E JUMPI DUP1 PUSH4 0x313CE567 EQ PUSH2 0x7E5 JUMPI DUP1 PUSH4 0x320223DB EQ PUSH2 0x7ED JUMPI PUSH2 0x452 JUMP JUMPDEST DUP1 PUSH4 0x17C70DE4 GT PUSH2 0x3DE JUMPI DUP1 PUSH4 0x20714F88 GT PUSH2 0x3AD JUMPI DUP1 PUSH4 0x20714F88 EQ PUSH2 0x6B5 JUMPI DUP1 PUSH4 0x23B872DD EQ PUSH2 0x6E4 JUMPI DUP1 PUSH4 0x295DA87D EQ PUSH2 0x723 JUMPI DUP1 PUSH4 0x2A905318 EQ PUSH2 0x749 JUMPI DUP1 PUSH4 0x2C955FA7 EQ PUSH2 0x751 JUMPI PUSH2 0x452 JUMP JUMPDEST DUP1 PUSH4 0x17C70DE4 EQ PUSH2 0x677 JUMPI DUP1 PUSH4 0x18160DDD EQ PUSH2 0x67F JUMPI DUP1 PUSH4 0x18821400 EQ PUSH2 0x687 JUMPI DUP1 PUSH4 0x1FCE304D EQ PUSH2 0x68F JUMPI PUSH2 0x452 JUMP JUMPDEST DUP1 PUSH4 0x1137AEDF GT PUSH2 0x425 JUMPI DUP1 PUSH4 0x1137AEDF EQ PUSH2 0x58D JUMPI DUP1 PUSH4 0x1249C58B EQ PUSH2 0x5E0 JUMPI DUP1 PUSH4 0x131B0AE7 EQ PUSH2 0x5E8 JUMPI DUP1 PUSH4 0x1627540C EQ PUSH2 0x619 JUMPI DUP1 PUSH4 0x16B2213F EQ PUSH2 0x648 JUMPI PUSH2 0x452 JUMP JUMPDEST DUP1 PUSH4 0x4F3BCEC EQ PUSH2 0x460 JUMPI DUP1 PUSH4 0x5B3C1C9 EQ PUSH2 0x484 JUMPI DUP1 PUSH4 0x6FDDE03 EQ PUSH2 0x4C5 JUMPI DUP1 PUSH4 0x95EA7B3 EQ PUSH2 0x544 JUMPI JUMPDEST PUSH1 0x0 DUP1 PUSH2 0x45D PUSH2 0x607A JUMP JUMPDEST POP POP JUMPDEST PUSH2 0x468 PUSH2 0xF6C JUMP JUMPDEST PUSH1 0x40 MLOAD PUSH1 0x1 PUSH1 0x1 PUSH1 0xA0 SHL SUB SWAP1 SWAP2 AND DUP2 MSTORE PUSH1 0x20 ADD PUSH1 0x40 MLOAD DUP1 SWAP2 SUB SWAP1 RETURN JUMPDEST PUSH2 0x4B3 PUSH1 0x4 DUP1 CALLDATASIZE SUB PUSH1 0x20 DUP2 LT ISZERO PUSH2 0x4A3 JUMPI PUSH1 0x0 DUP1 PUSH2 0x4A0 PUSH2 0x607A JUMP JUMPDEST POP POP JUMPDEST POP CALLDATALOAD PUSH1 0x1 PUSH1 0x1 PUSH1 0xA0 SHL SUB AND PUSH2 0xF8B JUMP JUMPDEST PUSH1 0x40 MLOAD SWAP1 DUP2 MSTORE PUSH1 0x20 ADD PUSH1 0x40 MLOAD DUP1 SWAP2 SUB SWAP1 RETURN JUMPDEST PUSH2 0x4CD PUSH2 0x104C JUMP JUMPDEST PUSH1 0x40 MLOAD PUSH1 0x20 DUP1 DUP3 MSTORE DUP2 SWAP1 DUP2 ADD DUP4 DUP2 DUP2 MLOAD DUP2 MSTORE PUSH1 0x20 ADD SWAP2 POP DUP1 MLOAD SWAP1 PUSH1 0x20 ADD SWAP1 DUP1 DUP4 DUP4 PUSH1 0x0 JUMPDEST DUP4 DUP2 LT ISZERO PUSH2 0x509 JUMPI DUP1 DUP3 ADD MLOAD DUP4 DUP3 ADD MSTORE PUSH1 0x20 ADD PUSH2 0x4F1 JUMP JUMPDEST POP POP POP POP SWAP1 POP SWAP1 DUP2 ADD SWAP1 PUSH1 0x1F AND DUP1 ISZERO PUSH2 0x536 JUMPI DUP1 DUP3 SUB DUP1 MLOAD PUSH1 0x1 DUP4 PUSH1 0x20 SUB PUSH2 0x100 EXP SUB NOT AND DUP2 MSTORE PUSH1 0x20 ADD SWAP2 POP JUMPDEST POP SWAP3 POP POP POP PUSH1 0x40 MLOAD DUP1 SWAP2 SUB SWAP1 RETURN JUMPDEST PUSH2 0x579 PUSH1 0x4 DUP1 CALLDATASIZE SUB PUSH1 0x40 DUP2 LT ISZERO PUSH2 0x563 JUMPI PUSH1 0x0 DUP1 PUSH2 0x560 PUSH2 0x607A JUMP JUMPDEST POP POP JUMPDEST POP PUSH1 0x1 PUSH1 0x1 PUSH1 0xA0 SHL SUB DUP2 CALLDATALOAD AND SWAP1 PUSH1 0x20 ADD CALLDATALOAD PUSH2 0x1105 JUMP JUMPDEST PUSH1 0x40 MLOAD SWAP1 ISZERO ISZERO DUP2 MSTORE PUSH1 0x20 ADD PUSH1 0x40 MLOAD DUP1 SWAP2 SUB SWAP1 RETURN JUMPDEST PUSH2 0x5BC PUSH1 0x4 DUP1 CALLDATASIZE SUB PUSH1 0x20 DUP2 LT ISZERO PUSH2 0x5AC JUMPI PUSH1 0x0 DUP1 PUSH2 0x5A9 PUSH2 0x607A JUMP JUMPDEST POP POP JUMPDEST POP CALLDATALOAD PUSH1 0x1 PUSH1 0x1 PUSH1 0xA0 SHL SUB AND PUSH2 0x1201 JUMP JUMPDEST PUSH1 0x40 MLOAD DUP1 DUP5 DUP2 MSTORE PUSH1 0x20 ADD DUP4 DUP2 MSTORE PUSH1 0x20 ADD DUP3 DUP2 MSTORE PUSH1 0x20 ADD SWAP4 POP POP POP POP PUSH1 0x40 MLOAD DUP1 SWAP2 SUB SWAP1 RETURN JUMPDEST PUSH2 0x579 PUSH2 0x12DB JUMP JUMPDEST PUSH2 0x617 PUSH1 0x4 DUP1 CALLDATASIZE SUB PUSH1 0x20 DUP2 LT ISZERO PUSH2 0x607 JUMPI PUSH1 0x0 DUP1 PUSH2 0x604 PUSH2 0x607A JUMP JUMPDEST POP POP JUMPDEST POP CALLDATALOAD PUSH1 0x1 PUSH1 0x1 PUSH1 0xA0 SHL SUB AND PUSH2 0x1A9C JUMP JUMPDEST STOP JUMPDEST PUSH2 0x617 PUSH1 0x4 DUP1 CALLDATASIZE SUB PUSH1 0x20 DUP2 LT ISZERO PUSH2 0x638 JUMPI PUSH1 0x0 DUP1 PUSH2 0x635 PUSH2 0x607A JUMP JUMPDEST POP POP JUMPDEST POP CALLDATALOAD PUSH1 0x1 PUSH1 0x1 PUSH1 0xA0 SHL SUB AND PUSH2 0x1ADA JUMP JUMPDEST PUSH2 0x4B3 PUSH1 0x4 DUP1 CALLDATASIZE SUB PUSH1 0x20 DUP2 LT ISZERO PUSH2 0x667 JUMPI PUSH1 0x0 DUP1 PUSH2 0x664 PUSH2 0x607A JUMP JUMPDEST POP POP JUMPDEST POP CALLDATALOAD PUSH1 0x1 PUSH1 0x1 PUSH1 0xA0 SHL SUB AND PUSH2 0x1B54 JUMP JUMPDEST PUSH2 0x4B3 PUSH2 0x1BA7 JUMP JUMPDEST PUSH2 0x4B3 PUSH2 0x1BB4 JUMP JUMPDEST PUSH2 0x4CD PUSH2 0x1BBE JUMP JUMPDEST PUSH2 0x579 PUSH1 0x4 DUP1 CALLDATASIZE SUB PUSH1 0x20 DUP2 LT ISZERO PUSH2 0x6AE JUMPI PUSH1 0x0 DUP1 PUSH2 0x6AB PUSH2 0x607A JUMP JUMPDEST POP POP JUMPDEST POP CALLDATALOAD PUSH2 0x1BF5 JUMP JUMPDEST PUSH2 0x617 PUSH1 0x4 DUP1 CALLDATASIZE SUB PUSH1 0x20 DUP2 LT ISZERO PUSH2 0x6D4 JUMPI PUSH1 0x0 DUP1 PUSH2 0x6D1 PUSH2 0x607A JUMP JUMPDEST POP POP JUMPDEST POP CALLDATALOAD PUSH1 0x1 PUSH1 0x1 PUSH1 0xA0 SHL SUB AND PUSH2 0x1CDA JUMP JUMPDEST PUSH2 0x579 PUSH1 0x4 DUP1 CALLDATASIZE SUB PUSH1 0x60 DUP2 LT ISZERO PUSH2 0x703 JUMPI PUSH1 0x0 DUP1 PUSH2 0x700 PUSH2 0x607A JUMP JUMPDEST POP POP JUMPDEST POP PUSH1 0x1 PUSH1 0x1 PUSH1 0xA0 SHL SUB DUP2 CALLDATALOAD DUP2 AND SWAP2 PUSH1 0x20 DUP2 ADD CALLDATALOAD SWAP1 SWAP2 AND SWAP1 PUSH1 0x40 ADD CALLDATALOAD PUSH2 0x1DB9 JUMP JUMPDEST PUSH2 0x617 PUSH1 0x4 DUP1 CALLDATASIZE SUB PUSH1 0x20 DUP2 LT ISZERO PUSH2 0x742 JUMPI PUSH1 0x0 DUP1 PUSH2 0x73F PUSH2 0x607A JUMP JUMPDEST POP POP JUMPDEST POP CALLDATALOAD PUSH2 0x1E7A JUMP JUMPDEST PUSH2 0x4CD PUSH2 0x1FBA JUMP JUMPDEST PUSH2 0x617 PUSH1 0x4 DUP1 CALLDATASIZE SUB PUSH1 0x20 DUP2 LT ISZERO PUSH2 0x770 JUMPI PUSH1 0x0 DUP1 PUSH2 0x76D PUSH2 0x607A JUMP JUMPDEST POP POP JUMPDEST POP CALLDATALOAD PUSH1 0x1 PUSH1 0x1 PUSH1 0xA0 SHL SUB AND PUSH2 0x1FD7 JUMP JUMPDEST PUSH2 0x788 PUSH2 0x20D2 JUMP JUMPDEST PUSH1 0x40 MLOAD PUSH1 0xFF SWAP1 SWAP2 AND DUP2 MSTORE PUSH1 0x20 ADD PUSH1 0x40 MLOAD DUP1 SWAP2 SUB SWAP1 RETURN JUMPDEST PUSH2 0x4B3 PUSH1 0x4 DUP1 CALLDATASIZE SUB PUSH1 0xA0 DUP2 LT ISZERO PUSH2 0x7BD JUMPI PUSH1 0x0 DUP1 PUSH2 0x7BA PUSH2 0x607A JUMP JUMPDEST POP POP JUMPDEST POP DUP1 CALLDATALOAD SWAP1 PUSH1 0x20 DUP2 ADD CALLDATALOAD SWAP1 PUSH1 0x40 DUP2 ADD CALLDATALOAD SWAP1 PUSH1 0x1 PUSH1 0x1 PUSH1 0xA0 SHL SUB PUSH1 0x60 DUP3 ADD CALLDATALOAD AND SWAP1 PUSH1 0x80 ADD CALLDATALOAD PUSH2 0x20D7 JUMP JUMPDEST PUSH2 0x788 PUSH2 0x2323 JUMP JUMPDEST PUSH2 0x617 PUSH1 0x4 DUP1 CALLDATASIZE SUB PUSH1 0x20 DUP2 LT ISZERO PUSH2 0x80C JUMPI PUSH1 0x0 DUP1 PUSH2 0x809 PUSH2 0x607A JUMP JUMPDEST POP POP JUMPDEST POP CALLDATALOAD PUSH1 0x1 PUSH1 0x1 PUSH1 0xA0 SHL SUB AND PUSH2 0x233C JUMP JUMPDEST PUSH2 0x468 PUSH1 0x4 DUP1 CALLDATASIZE SUB PUSH1 0x20 DUP2 LT ISZERO PUSH2 0x83B JUMPI PUSH1 0x0 DUP1 PUSH2 0x838 PUSH2 0x607A JUMP JUMPDEST POP POP JUMPDEST POP CALLDATALOAD PUSH2 0x23E4 JUMP JUMPDEST PUSH2 0x617 PUSH2 0x242F JUMP JUMPDEST PUSH2 0x617 PUSH1 0x4 DUP1 CALLDATASIZE SUB PUSH1 0x20 DUP2 LT ISZERO PUSH2 0x869 JUMPI PUSH1 0x0 DUP1 PUSH2 0x866 PUSH2 0x607A JUMP JUMPDEST POP POP JUMPDEST POP CALLDATALOAD PUSH1 0x1 PUSH1 0x1 PUSH1 0xA0 SHL SUB AND PUSH2 0x24A0 JUMP JUMPDEST PUSH2 0x579 PUSH2 0x266B JUMP JUMPDEST PUSH2 0x468 PUSH2 0x2713 JUMP JUMPDEST PUSH2 0x579 PUSH1 0x4 DUP1 CALLDATASIZE SUB PUSH1 0x20 DUP2 LT ISZERO PUSH2 0x8A8 JUMPI PUSH1 0x0 DUP1 PUSH2 0x8A5 PUSH2 0x607A JUMP JUMPDEST POP POP JUMPDEST POP CALLDATALOAD PUSH1 0x1 PUSH1 0x1 PUSH1 0xA0 SHL SUB AND PUSH2 0x271F JUMP JUMPDEST PUSH2 0x617 PUSH1 0x4 DUP1 CALLDATASIZE SUB PUSH1 0x40 DUP2 LT ISZERO PUSH2 0x8D7 JUMPI PUSH1 0x0 DUP1 PUSH2 0x8D4 PUSH2 0x607A JUMP JUMPDEST POP POP JUMPDEST POP PUSH1 0x1 PUSH1 0x1 PUSH1 0xA0 SHL SUB DUP2 CALLDATALOAD AND SWAP1 PUSH1 0x20 ADD CALLDATALOAD PUSH2 0x28FA JUMP JUMPDEST PUSH2 0x4B3 PUSH1 0x4 DUP1 CALLDATASIZE SUB PUSH1 0x20 DUP2 LT ISZERO PUSH2 0x90C JUMPI PUSH1 0x0 DUP1 PUSH2 0x909 PUSH2 0x607A JUMP JUMPDEST POP POP JUMPDEST POP CALLDATALOAD PUSH1 0x1 PUSH1 0x1 PUSH1 0xA0 SHL SUB AND PUSH2 0x2AEF JUMP JUMPDEST PUSH2 0x617 PUSH1 0x4 DUP1 CALLDATASIZE SUB PUSH1 0xC0 DUP2 LT ISZERO PUSH2 0x93B JUMPI PUSH1 0x0 DUP1 PUSH2 0x938 PUSH2 0x607A JUMP JUMPDEST POP POP JUMPDEST POP PUSH1 0x1 PUSH1 0x1 PUSH1 0xA0 SHL SUB DUP2 CALLDATALOAD DUP2 AND SWAP2 PUSH1 0x20 DUP2 ADD CALLDATALOAD SWAP2 PUSH1 0x40 DUP3 ADD CALLDATALOAD SWAP2 PUSH1 0x60 DUP2 ADD CALLDATALOAD SWAP2 PUSH1 0x80 DUP3 ADD CALLDATALOAD SWAP2 PUSH1 0xA0 ADD CALLDATALOAD AND PUSH2 0x2C89 JUMP JUMPDEST PUSH2 0x617 PUSH1 0x4 DUP1 CALLDATASIZE SUB PUSH1 0x60 DUP2 LT ISZERO PUSH2 0x98A JUMPI PUSH1 0x0 DUP1 PUSH2 0x987 PUSH2 0x607A JUMP JUMPDEST POP POP JUMPDEST POP PUSH1 0x1 PUSH1 0x1 PUSH1 0xA0 SHL SUB DUP2 CALLDATALOAD AND SWAP1 PUSH1 0x20 DUP2 ADD CALLDATALOAD SWAP1 PUSH1 0x40 ADD CALLDATALOAD PUSH2 0x2E92 JUMP JUMPDEST PUSH2 0x4B3 PUSH1 0x4 DUP1 CALLDATASIZE SUB PUSH1 0x20 DUP2 LT ISZERO PUSH2 0x9C5 JUMPI PUSH1 0x0 DUP1 PUSH2 0x9C2 PUSH2 0x607A JUMP JUMPDEST POP POP JUMPDEST POP CALLDATALOAD PUSH1 0x1 PUSH1 0x1 PUSH1 0xA0 SHL SUB AND PUSH2 0x3078 JUMP JUMPDEST PUSH2 0x9DD PUSH2 0x30DE JUMP JUMPDEST PUSH1 0x40 MLOAD PUSH1 0x20 DUP1 DUP3 MSTORE DUP2 SWAP1 DUP2 ADD DUP4 DUP2 DUP2 MLOAD DUP2 MSTORE PUSH1 0x20 ADD SWAP2 POP DUP1 MLOAD SWAP1 PUSH1 0x20 ADD SWAP1 PUSH1 0x20 MUL DUP1 DUP4 DUP4 PUSH1 0x0 JUMPDEST DUP4 DUP2 LT ISZERO PUSH2 0xA1C JUMPI DUP1 DUP3 ADD MLOAD DUP4 DUP3 ADD MSTORE PUSH1 0x20 ADD PUSH2 0xA04 JUMP JUMPDEST POP POP POP POP SWAP1 POP ADD SWAP3 POP POP POP PUSH1 0x40 MLOAD DUP1 SWAP2 SUB SWAP1 RETURN JUMPDEST PUSH2 0x617 PUSH2 0x3239 JUMP JUMPDEST PUSH2 0x468 PUSH1 0x4 DUP1 CALLDATASIZE SUB PUSH1 0x20 DUP2 LT ISZERO PUSH2 0xA57 JUMPI PUSH1 0x0 DUP1 PUSH2 0xA54 PUSH2 0x607A JUMP JUMPDEST POP POP JUMPDEST POP CALLDATALOAD PUSH2 0x33BC JUMP JUMPDEST PUSH2 0x4B3 PUSH1 0x4 DUP1 CALLDATASIZE SUB PUSH1 0x20 DUP2 LT ISZERO PUSH2 0xA7D JUMPI PUSH1 0x0 DUP1 PUSH2 0xA7A PUSH2 0x607A JUMP JUMPDEST POP POP JUMPDEST POP CALLDATALOAD PUSH2 0x3407 JUMP JUMPDEST PUSH2 0x617 PUSH1 0x4 DUP1 CALLDATASIZE SUB PUSH1 0x20 DUP2 LT ISZERO PUSH2 0xAA3 JUMPI PUSH1 0x0 DUP1 PUSH2 0xAA0 PUSH2 0x607A JUMP JUMPDEST POP POP JUMPDEST POP CALLDATALOAD PUSH2 0x345B JUMP JUMPDEST PUSH2 0x468 PUSH2 0x3502 JUMP JUMPDEST PUSH2 0x4B3 PUSH1 0x4 DUP1 CALLDATASIZE SUB PUSH1 0xC0 DUP2 LT ISZERO PUSH2 0xAD1 JUMPI PUSH1 0x0 DUP1 PUSH2 0xACE PUSH2 0x607A JUMP JUMPDEST POP POP JUMPDEST POP PUSH1 0x1 PUSH1 0x1 PUSH1 0xA0 SHL SUB DUP2 CALLDATALOAD DUP2 AND SWAP2 PUSH1 0x20 DUP2 ADD CALLDATALOAD SWAP2 PUSH1 0x40 DUP3 ADD CALLDATALOAD SWAP2 PUSH1 0x60 DUP2 ADD CALLDATALOAD SWAP2 PUSH1 0x80 DUP3 ADD CALLDATALOAD AND SWAP1 PUSH1 0xA0 ADD CALLDATALOAD PUSH2 0x350D JUMP JUMPDEST PUSH2 0x4B3 PUSH2 0x373C JUMP JUMPDEST PUSH2 0x4CD PUSH2 0x3747 JUMP JUMPDEST PUSH2 0x617 PUSH1 0x4 DUP1 CALLDATASIZE SUB PUSH1 0x20 DUP2 LT ISZERO PUSH2 0xB30 JUMPI PUSH1 0x0 DUP1 PUSH2 0xB2D PUSH2 0x607A JUMP JUMPDEST POP POP JUMPDEST POP CALLDATALOAD PUSH1 0x1 PUSH1 0x1 PUSH1 0xA0 SHL SUB AND PUSH2 0x37E9 JUMP JUMPDEST PUSH2 0x617 PUSH2 0x3864 JUMP JUMPDEST PUSH2 0x5BC PUSH1 0x4 DUP1 CALLDATASIZE SUB PUSH1 0x20 DUP2 LT ISZERO PUSH2 0xB67 JUMPI PUSH1 0x0 DUP1 PUSH2 0xB64 PUSH2 0x607A JUMP JUMPDEST POP POP JUMPDEST POP CALLDATALOAD PUSH2 0x399C JUMP JUMPDEST PUSH2 0x617 PUSH2 0x3A59 JUMP JUMPDEST PUSH2 0x468 PUSH2 0x3B9C JUMP JUMPDEST PUSH2 0x617 PUSH1 0x4 DUP1 CALLDATASIZE SUB PUSH1 0x20 DUP2 LT ISZERO PUSH2 0xB9D JUMPI PUSH1 0x0 DUP1 PUSH2 0xB9A PUSH2 0x607A JUMP JUMPDEST POP POP JUMPDEST POP CALLDATALOAD PUSH1 0x1 PUSH1 0x1 PUSH1 0xA0 SHL SUB AND PUSH2 0x3BA8 JUMP JUMPDEST PUSH2 0x4B3 PUSH1 0x4 DUP1 CALLDATASIZE SUB PUSH1 0x20 DUP2 LT ISZERO PUSH2 0xBCC JUMPI PUSH1 0x0 DUP1 PUSH2 0xBC9 PUSH2 0x607A JUMP JUMPDEST POP POP JUMPDEST POP CALLDATALOAD PUSH1 0x1 PUSH1 0x1 PUSH1 0xA0 SHL SUB AND PUSH2 0x3BEC JUMP JUMPDEST PUSH2 0x4B3 PUSH2 0x3C3F JUMP JUMPDEST PUSH2 0x4B3 PUSH1 0x4 DUP1 CALLDATASIZE SUB PUSH1 0x20 DUP2 LT ISZERO PUSH2 0xC03 JUMPI PUSH1 0x0 DUP1 PUSH2 0xC00 PUSH2 0x607A JUMP JUMPDEST POP POP JUMPDEST POP CALLDATALOAD PUSH1 0x1 PUSH1 0x1 PUSH1 0xA0 SHL SUB AND PUSH2 0x3C46 JUMP JUMPDEST PUSH2 0x579 PUSH1 0x4 DUP1 CALLDATASIZE SUB PUSH1 0x40 DUP2 LT ISZERO PUSH2 0xC32 JUMPI PUSH1 0x0 DUP1 PUSH2 0xC2F PUSH2 0x607A JUMP JUMPDEST POP POP JUMPDEST POP PUSH1 0x1 PUSH1 0x1 PUSH1 0xA0 SHL SUB DUP2 CALLDATALOAD AND SWAP1 PUSH1 0x20 ADD CALLDATALOAD PUSH2 0x3C99 JUMP JUMPDEST PUSH2 0xC50 PUSH2 0x3D6D JUMP JUMPDEST PUSH1 0x40 MLOAD DUP1 DUP3 PUSH2 0x300 DUP1 DUP4 DUP4 PUSH1 0x0 JUMPDEST DUP4 DUP2 LT ISZERO PUSH2 0xC76 JUMPI DUP1 DUP3 ADD MLOAD DUP4 DUP3 ADD MSTORE PUSH1 0x20 ADD PUSH2 0xC5E JUMP JUMPDEST POP POP POP POP SWAP1 POP ADD SWAP2 POP POP PUSH1 0x40 MLOAD DUP1 SWAP2 SUB SWAP1 RETURN JUMPDEST PUSH2 0x617 PUSH1 0x4 DUP1 CALLDATASIZE SUB PUSH1 0x60 DUP2 LT ISZERO PUSH2 0xCA8 JUMPI PUSH1 0x0 DUP1 PUSH2 0xCA5 PUSH2 0x607A JUMP JUMPDEST POP POP JUMPDEST POP PUSH1 0x1 PUSH1 0x1 PUSH1 0xA0 SHL SUB DUP2 CALLDATALOAD AND SWAP1 PUSH1 0x20 DUP2 ADD CALLDATALOAD SWAP1 PUSH1 0x40 ADD CALLDATALOAD PUSH2 0x3DCF JUMP JUMPDEST PUSH2 0x617 PUSH2 0x3EAF JUMP JUMPDEST PUSH2 0x579 PUSH2 0x3F56 JUMP JUMPDEST PUSH2 0x617 PUSH1 0x4 DUP1 CALLDATASIZE SUB PUSH1 0x20 DUP2 LT ISZERO PUSH2 0xCF3 JUMPI PUSH1 0x0 DUP1 PUSH2 0xCF0 PUSH2 0x607A JUMP JUMPDEST POP POP JUMPDEST POP CALLDATALOAD PUSH1 0x1 PUSH1 0x1 PUSH1 0xA0 SHL SUB AND PUSH2 0x3F62 JUMP JUMPDEST PUSH2 0x617 PUSH2 0x3F78 JUMP JUMPDEST PUSH2 0x617 PUSH1 0x4 DUP1 CALLDATASIZE SUB PUSH1 0x40 DUP2 LT ISZERO PUSH2 0xD2A JUMPI PUSH1 0x0 DUP1 PUSH2 0xD27 PUSH2 0x607A JUMP JUMPDEST POP POP JUMPDEST POP PUSH1 0x1 PUSH1 0x1 PUSH1 0xA0 SHL SUB DUP2 CALLDATALOAD AND SWAP1 PUSH1 0x20 ADD CALLDATALOAD PUSH2 0x3FFA JUMP JUMPDEST PUSH2 0x468 PUSH2 0x4146 JUMP JUMPDEST PUSH2 0x4B3 PUSH1 0x4 DUP1 CALLDATASIZE SUB PUSH1 0x20 DUP2 LT ISZERO PUSH2 0xD67 JUMPI PUSH1 0x0 DUP1 PUSH2 0xD64 PUSH2 0x607A JUMP JUMPDEST POP POP JUMPDEST POP CALLDATALOAD PUSH2 0x4152 JUMP JUMPDEST PUSH2 0x4B3 PUSH1 0x4 DUP1 CALLDATASIZE SUB PUSH1 0x80 DUP2 LT ISZERO PUSH2 0xD8D JUMPI PUSH1 0x0 DUP1 PUSH2 0xD8A PUSH2 0x607A JUMP JUMPDEST POP POP JUMPDEST POP PUSH1 0x1 PUSH1 0x1 PUSH1 0xA0 SHL SUB DUP2 CALLDATALOAD AND SWAP1 PUSH1 0x20 DUP2 ADD CALLDATALOAD SWAP1 PUSH1 0x40 DUP2 ADD CALLDATALOAD SWAP1 PUSH1 0x60 ADD CALLDATALOAD PUSH2 0x417A JUMP JUMPDEST PUSH2 0x4B3 PUSH1 0x4 DUP1 CALLDATASIZE SUB PUSH1 0x40 DUP2 LT ISZERO PUSH2 0xDCE JUMPI PUSH1 0x0 DUP1 PUSH2 0xDCB PUSH2 0x607A JUMP JUMPDEST POP POP JUMPDEST POP PUSH1 0x1 PUSH1 0x1 PUSH1 0xA0 SHL SUB DUP2 CALLDATALOAD AND SWAP1 PUSH1 0x20 ADD CALLDATALOAD PUSH2 0x4396 JUMP JUMPDEST PUSH2 0x4B3 PUSH1 0x4 DUP1 CALLDATASIZE SUB PUSH1 0x20 DUP2 LT ISZERO PUSH2 0xE03 JUMPI PUSH1 0x0 DUP1 PUSH2 0xE00 PUSH2 0x607A JUMP JUMPDEST POP POP JUMPDEST POP CALLDATALOAD PUSH2 0x445C JUMP JUMPDEST PUSH2 0x468 PUSH2 0x44B0 JUMP JUMPDEST PUSH2 0x4B3 PUSH2 0x44BC JUMP JUMPDEST PUSH2 0x4B3 PUSH1 0x4 DUP1 CALLDATASIZE SUB PUSH1 0x40 DUP2 LT ISZERO PUSH2 0xE39 JUMPI PUSH1 0x0 DUP1 PUSH2 0xE36 PUSH2 0x607A JUMP JUMPDEST POP POP JUMPDEST POP PUSH1 0x1 PUSH1 0x1 PUSH1 0xA0 SHL SUB DUP2 CALLDATALOAD DUP2 AND SWAP2 PUSH1 0x20 ADD CALLDATALOAD AND PUSH2 0x44F9 JUMP JUMPDEST PUSH2 0x617 PUSH1 0x4 DUP1 CALLDATASIZE SUB PUSH1 0x60 DUP2 LT ISZERO PUSH2 0xE70 JUMPI PUSH1 0x0 DUP1 PUSH2 0xE6D PUSH2 0x607A JUMP JUMPDEST POP POP JUMPDEST POP DUP1 CALLDATALOAD SWAP1 PUSH1 0x20 DUP2 ADD CALLDATALOAD SWAP1 PUSH1 0x40 ADD CALLDATALOAD PUSH2 0x4567 JUMP JUMPDEST PUSH2 0x4B3 PUSH2 0x46B0 JUMP JUMPDEST PUSH2 0x579 PUSH1 0x4 DUP1 CALLDATASIZE SUB PUSH1 0x40 DUP2 LT ISZERO PUSH2 0xEAA JUMPI PUSH1 0x0 DUP1 PUSH2 0xEA7 PUSH2 0x607A JUMP JUMPDEST POP POP JUMPDEST POP PUSH1 0x1 PUSH1 0x1 PUSH1 0xA0 SHL SUB DUP2 CALLDATALOAD AND SWAP1 PUSH1 0x20 ADD CALLDATALOAD PUSH2 0x46B5 JUMP JUMPDEST PUSH2 0x617 PUSH1 0x4 DUP1 CALLDATASIZE SUB PUSH1 0x40 DUP2 LT ISZERO PUSH2 0xEDF JUMPI PUSH1 0x0 DUP1 PUSH2 0xEDC PUSH2 0x607A JUMP JUMPDEST POP POP JUMPDEST POP PUSH1 0x1 PUSH1 0x1 PUSH1 0xA0 SHL SUB DUP2 CALLDATALOAD AND SWAP1 PUSH1 0x20 ADD CALLDATALOAD PUSH2 0x488C JUMP JUMPDEST PUSH2 0x468 PUSH2 0x4934 JUMP JUMPDEST PUSH2 0x468 PUSH2 0x4940 JUMP JUMPDEST PUSH2 0x617 PUSH1 0x4 DUP1 CALLDATASIZE SUB PUSH1 0x40 DUP2 LT ISZERO PUSH2 0xF24 JUMPI PUSH1 0x0 DUP1 PUSH2 0xF21 PUSH2 0x607A JUMP JUMPDEST POP POP JUMPDEST POP PUSH1 0x1 PUSH1 0x1 PUSH1 0xA0 SHL SUB DUP2 CALLDATALOAD AND SWAP1 PUSH1 0x20 ADD CALLDATALOAD PUSH2 0x494C JUMP JUMPDEST PUSH2 0x4B3 PUSH1 0x4 DUP1 CALLDATASIZE SUB PUSH1 0x60 DUP2 LT ISZERO PUSH2 0xF59 JUMPI PUSH1 0x0 DUP1 PUSH2 0xF56 PUSH2 0x607A JUMP JUMPDEST POP POP JUMPDEST POP DUP1 CALLDATALOAD SWAP1 PUSH1 0x20 DUP2 ADD CALLDATALOAD SWAP1 PUSH1 0x40 ADD CALLDATALOAD PUSH2 0x4B5F JUMP JUMPDEST PUSH1 0x1 PUSH1 0xB PUSH2 0xF78 PUSH2 0x60E5 JUMP JUMPDEST SWAP1 PUSH2 0x100 EXP SWAP1 DIV PUSH1 0x1 PUSH1 0x1 PUSH1 0xA0 SHL SUB AND DUP2 JUMP JUMPDEST PUSH1 0x0 PUSH2 0xF95 PUSH2 0x4D95 JUMP JUMPDEST PUSH1 0x1 PUSH1 0x1 PUSH1 0xA0 SHL SUB AND PUSH4 0x5B3C1C9 DUP4 PUSH1 0x40 MLOAD PUSH1 0x1 PUSH1 0x1 PUSH1 0xE0 SHL SUB NOT PUSH1 0xE0 DUP5 SWAP1 SHL AND DUP2 MSTORE PUSH1 0x1 PUSH1 0x1 PUSH1 0xA0 SHL SUB SWAP1 SWAP2 AND PUSH1 0x4 DUP3 ADD MSTORE PUSH1 0x24 ADD PUSH1 0x20 PUSH1 0x40 MLOAD DUP1 DUP4 SUB DUP2 DUP7 DUP1 PUSH2 0xFDE PUSH2 0x6140 JUMP JUMPDEST ISZERO DUP1 ISZERO PUSH2 0xFF3 JUMPI PUSH1 0x0 DUP1 PUSH2 0xFF0 PUSH2 0x607A JUMP JUMPDEST POP POP JUMPDEST POP GAS PUSH2 0xFFD PUSH2 0x618C JUMP JUMPDEST POP POP POP POP POP ISZERO DUP1 ISZERO PUSH2 0x101C JUMPI RETURNDATASIZE PUSH1 0x0 DUP1 RETURNDATACOPY RETURNDATASIZE PUSH1 0x0 PUSH2 0x1019 PUSH2 0x607A JUMP JUMPDEST POP POP JUMPDEST POP POP POP POP PUSH1 0x40 MLOAD RETURNDATASIZE PUSH1 0x20 DUP2 LT ISZERO PUSH2 0x103B JUMPI PUSH1 0x0 DUP1 PUSH2 0x1038 PUSH2 0x607A JUMP JUMPDEST POP POP JUMPDEST DUP2 ADD SWAP1 DUP1 DUP1 MLOAD SWAP4 POP POP POP POP JUMPDEST SWAP2 SWAP1 POP JUMP JUMPDEST PUSH1 0x8 DUP1 PUSH2 0x1057 PUSH2 0x60E5 JUMP JUMPDEST PUSH1 0x1 DUP2 PUSH1 0x1 AND ISZERO PUSH2 0x100 MUL SUB AND PUSH1 0x2 SWAP1 DIV DUP1 PUSH1 0x1F ADD PUSH1 0x20 DUP1 SWAP2 DIV MUL PUSH1 0x20 ADD PUSH1 0x40 MLOAD SWAP1 DUP2 ADD PUSH1 0x40 MSTORE DUP2 DUP2 MSTORE SWAP2 SWAP1 PUSH1 0x20 DUP4 ADD DUP3 DUP1 PUSH2 0x1091 PUSH2 0x60E5 JUMP JUMPDEST PUSH1 0x1 DUP2 PUSH1 0x1 AND ISZERO PUSH2 0x100 MUL SUB AND PUSH1 0x2 SWAP1 DIV DUP1 ISZERO PUSH2 0x10FD JUMPI DUP1 PUSH1 0x1F LT PUSH2 0x10CB JUMPI PUSH2 0x100 DUP1 DUP4 PUSH2 0x10BD PUSH2 0x60E5 JUMP JUMPDEST DIV MUL DUP4 MSTORE SWAP2 PUSH1 0x20 ADD SWAP2 PUSH2 0x10FD JUMP JUMPDEST DUP3 ADD SWAP2 SWAP1 PUSH1 0x0 MSTORE PUSH1 0x20 PUSH1 0x0 KECCAK256 SWAP1 JUMPDEST DUP2 PUSH2 0x10E2 PUSH2 0x60E5 JUMP JUMPDEST DUP2 MSTORE SWAP1 PUSH1 0x1 ADD SWAP1 PUSH1 0x20 ADD DUP1 DUP4 GT PUSH2 0x10D9 JUMPI DUP3 SWAP1 SUB PUSH1 0x1F AND DUP3 ADD SWAP2 JUMPDEST POP POP POP POP POP DUP2 JUMP JUMPDEST PUSH1 0x0 PUSH2 0x110F PUSH2 0x4DDB JUMP JUMPDEST PUSH1 0x0 DUP1 PUSH1 0x6 PUSH2 0x111C PUSH2 0x60E5 JUMP JUMPDEST SWAP1 PUSH2 0x100 EXP SWAP1 DIV PUSH1 0x1 PUSH1 0x1 PUSH1 0xA0 SHL SUB AND SWAP1 POP PUSH1 0x7 PUSH1 0x0 SWAP1 PUSH2 0x113B PUSH2 0x60E5 JUMP JUMPDEST SWAP1 PUSH2 0x100 EXP SWAP1 DIV PUSH1 0x1 PUSH1 0x1 PUSH1 0xA0 SHL SUB AND PUSH1 0x1 PUSH1 0x1 PUSH1 0xA0 SHL SUB AND PUSH4 0xDA46098C DUP3 DUP7 DUP7 PUSH1 0x40 MLOAD PUSH1 0x1 PUSH1 0x1 PUSH1 0xE0 SHL SUB NOT PUSH1 0xE0 DUP7 SWAP1 SHL AND DUP2 MSTORE PUSH1 0x1 PUSH1 0x1 PUSH1 0xA0 SHL SUB SWAP4 DUP5 AND PUSH1 0x4 DUP3 ADD MSTORE SWAP2 SWAP1 SWAP3 AND PUSH1 0x24 DUP3 ADD MSTORE PUSH1 0x44 DUP2 ADD SWAP2 SWAP1 SWAP2 MSTORE PUSH1 0x64 ADD PUSH1 0x0 PUSH1 0x40 MLOAD DUP1 DUP4 SUB DUP2 PUSH1 0x0 DUP8 DUP1 PUSH2 0x11A9 PUSH2 0x6140 JUMP JUMPDEST ISZERO DUP1 ISZERO PUSH2 0x11BE JUMPI PUSH1 0x0 DUP1 PUSH2 0x11BB PUSH2 0x607A JUMP JUMPDEST POP POP JUMPDEST POP GAS PUSH2 0x11C8 PUSH2 0x6245 JUMP JUMPDEST POP POP POP POP POP POP ISZERO DUP1 ISZERO PUSH2 0x11E8 JUMPI RETURNDATASIZE PUSH1 0x0 DUP1 RETURNDATACOPY RETURNDATASIZE PUSH1 0x0 PUSH2 0x11E5 PUSH2 0x607A JUMP JUMPDEST POP POP JUMPDEST POP POP POP POP PUSH2 0x11F7 DUP2 DUP6 DUP6 PUSH2 0x4EB1 JUMP JUMPDEST POP PUSH1 0x1 SWAP4 SWAP3 POP POP POP JUMP JUMPDEST PUSH1 0x0 DUP1 PUSH1 0x0 PUSH2 0x120E PUSH2 0x4D95 JUMP JUMPDEST PUSH1 0x1 PUSH1 0x1 PUSH1 0xA0 SHL SUB AND PUSH4 0x1137AEDF DUP6 PUSH1 0x40 MLOAD PUSH1 0x1 PUSH1 0x1 PUSH1 0xE0 SHL SUB NOT PUSH1 0xE0 DUP5 SWAP1 SHL AND DUP2 MSTORE PUSH1 0x1 PUSH1 0x1 PUSH1 0xA0 SHL SUB SWAP1 SWAP2 AND PUSH1 0x4 DUP3 ADD MSTORE PUSH1 0x24 ADD PUSH1 0x60 PUSH1 0x40 MLOAD DUP1 DUP4 SUB DUP2 DUP7 DUP1 PUSH2 0x1257 PUSH2 0x6140 JUMP JUMPDEST ISZERO DUP1 ISZERO PUSH2 0x126C JUMPI PUSH1 0x0 DUP1 PUSH2 0x1269 PUSH2 0x607A JUMP JUMPDEST POP POP JUMPDEST POP GAS PUSH2 0x1276 PUSH2 0x618C JUMP JUMPDEST POP POP POP POP POP ISZERO DUP1 ISZERO PUSH2 0x1295 JUMPI RETURNDATASIZE PUSH1 0x0 DUP1 RETURNDATACOPY RETURNDATASIZE PUSH1 0x0 PUSH2 0x1292 PUSH2 0x607A JUMP JUMPDEST POP POP JUMPDEST POP POP POP POP PUSH1 0x40 MLOAD RETURNDATASIZE PUSH1 0x60 DUP2 LT ISZERO PUSH2 0x12B4 JUMPI PUSH1 0x0 DUP1 PUSH2 0x12B1 PUSH2 0x607A JUMP JUMPDEST POP POP JUMPDEST DUP2 ADD SWAP1 DUP1 DUP1 MLOAD SWAP3 SWAP2 SWAP1 PUSH1 0x20 ADD DUP1 MLOAD SWAP3 SWAP2 SWAP1 PUSH1 0x20 ADD DUP1 MLOAD SWAP5 SWAP10 SWAP4 SWAP9 POP SWAP4 SWAP7 POP SWAP2 SWAP5 POP POP POP POP POP JUMP JUMPDEST PUSH1 0x0 PUSH2 0x12E5 PUSH2 0x4F94 JUMP JUMPDEST PUSH1 0x1 PUSH1 0x1 PUSH1 0xA0 SHL SUB AND PUSH4 0x7C312541 PUSH1 0x40 MLOAD DUP2 PUSH4 0xFFFFFFFF AND PUSH1 0xE0 SHL DUP2 MSTORE PUSH1 0x4 ADD PUSH1 0x0 PUSH1 0x40 MLOAD DUP1 DUP4 SUB DUP2 DUP7 DUP1 PUSH2 0x1318 PUSH2 0x6140 JUMP JUMPDEST ISZERO DUP1 ISZERO PUSH2 0x132D JUMPI PUSH1 0x0 DUP1 PUSH2 0x132A PUSH2 0x607A JUMP JUMPDEST POP POP JUMPDEST POP GAS PUSH2 0x1337 PUSH2 0x618C JUMP JUMPDEST POP POP POP POP POP ISZERO DUP1 ISZERO PUSH2 0x1356 JUMPI RETURNDATASIZE PUSH1 0x0 DUP1 RETURNDATACOPY RETURNDATASIZE PUSH1 0x0 PUSH2 0x1353 PUSH2 0x607A JUMP JUMPDEST POP POP JUMPDEST POP POP POP POP PUSH1 0x0 PUSH1 0x1 PUSH1 0x1 PUSH1 0xA0 SHL SUB AND PUSH2 0x136D PUSH2 0x4FE2 JUMP JUMPDEST PUSH1 0x1 PUSH1 0x1 PUSH1 0xA0 SHL SUB AND EQ ISZERO PUSH2 0x13D1 JUMPI PUSH1 0x40 MLOAD PUSH3 0x461BCD PUSH1 0xE5 SHL DUP2 MSTORE PUSH1 0x20 PUSH1 0x4 DUP3 ADD MSTORE PUSH1 0x1B PUSH1 0x24 DUP3 ADD MSTORE PUSH32 0x52657761726473446973747269627574696F6E206E6F74207365740000000000 PUSH1 0x44 DUP3 ADD MSTORE PUSH1 0x64 ADD PUSH1 0x40 MLOAD DUP1 SWAP2 SUB SWAP1 PUSH2 0x13CE PUSH2 0x607A JUMP JUMPDEST POP POP JUMPDEST PUSH1 0x0 PUSH2 0x13DB PUSH2 0x501A JUMP JUMPDEST SWAP1 POP PUSH1 0x0 PUSH2 0x13E7 PUSH2 0x4FE2 JUMP JUMPDEST SWAP1 POP PUSH1 0x0 DUP3 PUSH1 0x1 PUSH1 0x1 PUSH1 0xA0 SHL SUB AND PUSH4 0xCC5C095C PUSH1 0x40 MLOAD DUP2 PUSH4 0xFFFFFFFF AND PUSH1 0xE0 SHL DUP2 MSTORE PUSH1 0x4 ADD PUSH1 0x20 PUSH1 0x40 MLOAD DUP1 DUP4 SUB DUP2 DUP7 DUP1 PUSH2 0x141F PUSH2 0x6140 JUMP JUMPDEST ISZERO DUP1 ISZERO PUSH2 0x1434 JUMPI PUSH1 0x0 DUP1 PUSH2 0x1431 PUSH2 0x607A JUMP JUMPDEST POP POP JUMPDEST POP GAS PUSH2 0x143E PUSH2 0x618C JUMP JUMPDEST POP POP POP POP POP ISZERO DUP1 ISZERO PUSH2 0x145D JUMPI RETURNDATASIZE PUSH1 0x0 DUP1 RETURNDATACOPY RETURNDATASIZE PUSH1 0x0 PUSH2 0x145A PUSH2 0x607A JUMP JUMPDEST POP POP JUMPDEST POP POP POP POP PUSH1 0x40 MLOAD RETURNDATASIZE PUSH1 0x20 DUP2 LT ISZERO PUSH2 0x147C JUMPI PUSH1 0x0 DUP1 PUSH2 0x1479 PUSH2 0x607A JUMP JUMPDEST POP POP JUMPDEST DUP2 ADD SWAP1 DUP1 DUP1 MLOAD SWAP4 POP POP POP DUP2 ISZERO ISZERO SWAP1 POP PUSH2 0x14DC JUMPI PUSH1 0x40 MLOAD PUSH3 0x461BCD PUSH1 0xE5 SHL DUP2 MSTORE PUSH1 0x20 PUSH1 0x4 DUP3 ADD MSTORE PUSH1 0x15 PUSH1 0x24 DUP3 ADD MSTORE PUSH21 0x4E6F20737570706C79206973206D696E7461626C65 PUSH1 0x58 SHL PUSH1 0x44 DUP3 ADD MSTORE PUSH1 0x64 ADD PUSH1 0x40 MLOAD DUP1 SWAP2 SUB SWAP1 PUSH2 0x14D9 PUSH2 0x607A JUMP JUMPDEST POP POP JUMPDEST DUP3 PUSH1 0x1 PUSH1 0x1 PUSH1 0xA0 SHL SUB AND PUSH4 0x7E7961D7 DUP3 PUSH1 0x40 MLOAD PUSH1 0x1 PUSH1 0x1 PUSH1 0xE0 SHL SUB NOT PUSH1 0xE0 DUP5 SWAP1 SHL AND DUP2 MSTORE PUSH1 0x4 DUP2 ADD SWAP2 SWAP1 SWAP2 MSTORE PUSH1 0x24 ADD PUSH1 0x20 PUSH1 0x40 MLOAD DUP1 DUP4 SUB DUP2 PUSH1 0x0 DUP8 DUP1 PUSH2 0x1520 PUSH2 0x6140 JUMP JUMPDEST ISZERO DUP1 ISZERO PUSH2 0x1535 JUMPI PUSH1 0x0 DUP1 PUSH2 0x1532 PUSH2 0x607A JUMP JUMPDEST POP POP JUMPDEST POP GAS PUSH2 0x153F PUSH2 0x6245 JUMP JUMPDEST POP POP POP POP POP POP ISZERO DUP1 ISZERO PUSH2 0x155F JUMPI RETURNDATASIZE PUSH1 0x0 DUP1 RETURNDATACOPY RETURNDATASIZE PUSH1 0x0 PUSH2 0x155C PUSH2 0x607A JUMP JUMPDEST POP POP JUMPDEST POP POP POP POP PUSH1 0x40 MLOAD RETURNDATASIZE PUSH1 0x20 DUP2 LT ISZERO PUSH2 0x157E JUMPI PUSH1 0x0 DUP1 PUSH2 0x157B PUSH2 0x607A JUMP JUMPDEST POP POP JUMPDEST DUP2 ADD SWAP1 DUP1 DUP1 MLOAD POP PUSH1 0x0 SWAP3 POP POP POP PUSH1 0x1 PUSH1 0x1 PUSH1 0xA0 SHL SUB DUP5 AND PUSH4 0x9BDD7AC7 PUSH1 0x40 MLOAD DUP2 PUSH4 0xFFFFFFFF AND PUSH1 0xE0 SHL DUP2 MSTORE PUSH1 0x4 ADD PUSH1 0x20 PUSH1 0x40 MLOAD DUP1 DUP4 SUB DUP2 DUP7 DUP1 PUSH2 0x15BF PUSH2 0x6140 JUMP JUMPDEST ISZERO DUP1 ISZERO PUSH2 0x15D4 JUMPI PUSH1 0x0 DUP1 PUSH2 0x15D1 PUSH2 0x607A JUMP JUMPDEST POP POP JUMPDEST POP GAS PUSH2 0x15DE PUSH2 0x618C JUMP JUMPDEST POP POP POP POP POP ISZERO DUP1 ISZERO PUSH2 0x15FD JUMPI RETURNDATASIZE PUSH1 0x0 DUP1 RETURNDATACOPY RETURNDATASIZE PUSH1 0x0 PUSH2 0x15FA PUSH2 0x607A JUMP JUMPDEST POP POP JUMPDEST POP POP POP POP PUSH1 0x40 MLOAD RETURNDATASIZE PUSH1 0x20 DUP2 LT ISZERO PUSH2 0x161C JUMPI PUSH1 0x0 DUP1 PUSH2 0x1619 PUSH2 0x607A JUMP JUMPDEST POP POP JUMPDEST DUP2 ADD SWAP1 DUP1 DUP1 MLOAD SWAP4 POP PUSH1 0x0 SWAP3 POP PUSH2 0x163C SWAP2 POP DUP5 SWAP1 POP DUP4 PUSH4 0xFFFFFFFF PUSH2 0x506A AND JUMP JUMPDEST SWAP1 POP PUSH1 0x0 PUSH1 0x7 PUSH2 0x164A PUSH2 0x60E5 JUMP JUMPDEST PUSH1 0x1 PUSH1 0x1 PUSH1 0xA0 SHL SUB PUSH2 0x100 SWAP3 SWAP1 SWAP3 EXP SWAP1 DIV AND PUSH4 0xB46310F6 DUP6 PUSH2 0x173F DUP5 PUSH1 0x0 PUSH1 0x7 PUSH2 0x1672 PUSH2 0x60E5 JUMP JUMPDEST SWAP1 PUSH2 0x100 EXP SWAP1 DIV PUSH1 0x1 PUSH1 0x1 PUSH1 0xA0 SHL SUB AND PUSH1 0x1 PUSH1 0x1 PUSH1 0xA0 SHL SUB AND PUSH4 0x70A08231 DUP11 PUSH1 0x40 MLOAD PUSH1 0x1 PUSH1 0x1 PUSH1 0xE0 SHL SUB NOT PUSH1 0xE0 DUP5 SWAP1 SHL AND DUP2 MSTORE PUSH1 0x1 PUSH1 0x1 PUSH1 0xA0 SHL SUB SWAP1 SWAP2 AND PUSH1 0x4 DUP3 ADD MSTORE PUSH1 0x24 ADD PUSH1 0x20 PUSH1 0x40 MLOAD DUP1 DUP4 SUB DUP2 DUP7 DUP1 PUSH2 0x16CB PUSH2 0x6140 JUMP JUMPDEST ISZERO DUP1 ISZERO PUSH2 0x16E0 JUMPI PUSH1 0x0 DUP1 PUSH2 0x16DD PUSH2 0x607A JUMP JUMPDEST POP POP JUMPDEST POP GAS PUSH2 0x16EA PUSH2 0x618C JUMP JUMPDEST POP POP POP POP POP ISZERO DUP1 ISZERO PUSH2 0x1709 JUMPI RETURNDATASIZE PUSH1 0x0 DUP1 RETURNDATACOPY RETURNDATASIZE PUSH1 0x0 PUSH2 0x1706 PUSH2 0x607A JUMP JUMPDEST POP POP JUMPDEST POP POP POP POP PUSH1 0x40 MLOAD RETURNDATASIZE PUSH1 0x20 DUP2 LT ISZERO PUSH2 0x1728 JUMPI PUSH1 0x0 DUP1 PUSH2 0x1725 PUSH2 0x607A JUMP JUMPDEST POP POP JUMPDEST DUP2 ADD SWAP1 DUP1 DUP1 MLOAD SWAP4 SWAP3 POP POP PUSH4 0xFFFFFFFF PUSH2 0x50CF AND SWAP1 POP JUMP JUMPDEST PUSH1 0x40 MLOAD PUSH1 0x1 PUSH1 0x1 PUSH1 0xE0 SHL SUB NOT PUSH1 0xE0 DUP6 SWAP1 SHL AND DUP2 MSTORE PUSH1 0x1 PUSH1 0x1 PUSH1 0xA0 SHL SUB SWAP1 SWAP3 AND PUSH1 0x4 DUP4 ADD MSTORE PUSH1 0x24 DUP3 ADD MSTORE PUSH1 0x44 ADD PUSH1 0x0 PUSH1 0x40 MLOAD DUP1 DUP4 SUB DUP2 PUSH1 0x0 DUP8 DUP1 PUSH2 0x1780 PUSH2 0x6140 JUMP JUMPDEST ISZERO DUP1 ISZERO PUSH2 0x1795 JUMPI PUSH1 0x0 DUP1 PUSH2 0x1792 PUSH2 0x607A JUMP JUMPDEST POP POP JUMPDEST POP GAS PUSH2 0x179F PUSH2 0x6245 JUMP JUMPDEST POP POP POP POP POP POP ISZERO DUP1 ISZERO PUSH2 0x17BF JUMPI RETURNDATASIZE PUSH1 0x0 DUP1 RETURNDATACOPY RETURNDATASIZE PUSH1 0x0 PUSH2 0x17BC PUSH2 0x607A JUMP JUMPDEST POP POP JUMPDEST POP POP POP POP PUSH2 0x1826 GAS PUSH4 0x996D79A5 MSIZE DUP2 PUSH1 0xE0 SHL DUP2 MSTORE PUSH1 0x20 DUP2 PUSH1 0x4 DUP4 CALLER PUSH1 0x0 SWAP1 GAS CALL PC PUSH1 0xE ADD JUMPI RETURNDATASIZE PUSH1 0x0 DUP1 RETURNDATACOPY RETURNDATASIZE PUSH1 0x0 REVERT JUMPDEST RETURNDATASIZE PUSH1 0x1 EQ ISZERO PC PUSH1 0xA ADD JUMPI PUSH1 0x1 PUSH1 0x0 RETURN JUMPDEST DUP1 MLOAD SWAP3 POP PUSH1 0x0 JUMPDEST PUSH1 0x40 DUP2 LT ISZERO PUSH2 0x181C JUMPI PUSH1 0x0 DUP3 DUP3 ADD MSTORE PUSH1 0x20 ADD PUSH2 0x1805 JUMP JUMPDEST POP POP POP DUP6 DUP4 PUSH2 0x5138 JUMP JUMPDEST DUP4 PUSH1 0x1 PUSH1 0x1 PUSH1 0xA0 SHL SUB AND PUSH4 0x59974E38 DUP3 PUSH1 0x40 MLOAD PUSH1 0x1 PUSH1 0x1 PUSH1 0xE0 SHL SUB NOT PUSH1 0xE0 DUP5 SWAP1 SHL AND DUP2 MSTORE PUSH1 0x4 DUP2 ADD SWAP2 SWAP1 SWAP2 MSTORE PUSH1 0x24 ADD PUSH1 0x20 PUSH1 0x40 MLOAD DUP1 DUP4 SUB DUP2 PUSH1 0x0 DUP8 DUP1 PUSH2 0x186A PUSH2 0x6140 JUMP JUMPDEST ISZERO DUP1 ISZERO PUSH2 0x187F JUMPI PUSH1 0x0 DUP1 PUSH2 0x187C PUSH2 0x607A JUMP JUMPDEST POP POP JUMPDEST POP GAS PUSH2 0x1889 PUSH2 0x6245 JUMP JUMPDEST POP POP POP POP POP POP ISZERO DUP1 ISZERO PUSH2 0x18A9 JUMPI RETURNDATASIZE PUSH1 0x0 DUP1 RETURNDATACOPY RETURNDATASIZE PUSH1 0x0 PUSH2 0x18A6 PUSH2 0x607A JUMP JUMPDEST POP POP JUMPDEST POP POP POP POP PUSH1 0x40 MLOAD RETURNDATASIZE PUSH1 0x20 DUP2 LT ISZERO PUSH2 0x18C8 JUMPI PUSH1 0x0 DUP1 PUSH2 0x18C5 PUSH2 0x607A JUMP JUMPDEST POP POP JUMPDEST DUP2 ADD SWAP1 DUP1 DUP1 MLOAD POP PUSH1 0x0 SWAP3 POP PUSH1 0x7 SWAP2 POP PUSH2 0x18E1 SWAP1 POP PUSH2 0x60E5 JUMP JUMPDEST SWAP1 PUSH2 0x100 EXP SWAP1 DIV PUSH1 0x1 PUSH1 0x1 PUSH1 0xA0 SHL SUB AND PUSH1 0x1 PUSH1 0x1 PUSH1 0xA0 SHL SUB AND PUSH4 0xB46310F6 GAS PUSH2 0x1908 PUSH2 0x62FE JUMP JUMPDEST PUSH2 0x1979 DUP6 PUSH1 0x0 PUSH1 0x7 PUSH2 0x1918 PUSH2 0x60E5 JUMP JUMPDEST SWAP1 PUSH2 0x100 EXP SWAP1 DIV PUSH1 0x1 PUSH1 0x1 PUSH1 0xA0 SHL SUB AND PUSH1 0x1 PUSH1 0x1 PUSH1 0xA0 SHL SUB AND PUSH4 0x70A08231 GAS PUSH2 0x193F PUSH2 0x62FE JUMP JUMPDEST PUSH1 0x40 MLOAD PUSH1 0x1 PUSH1 0x1 PUSH1 0xE0 SHL SUB NOT PUSH1 0xE0 DUP5 SWAP1 SHL AND DUP2 MSTORE PUSH1 0x1 PUSH1 0x1 PUSH1 0xA0 SHL SUB SWAP1 SWAP2 AND PUSH1 0x4 DUP3 ADD MSTORE PUSH1 0x24 ADD PUSH1 0x20 PUSH1 0x40 MLOAD DUP1 DUP4 SUB DUP2 DUP7 DUP1 PUSH2 0x16CB PUSH2 0x6140 JUMP JUMPDEST PUSH1 0x40 MLOAD PUSH1 0x1 PUSH1 0x1 PUSH1 0xE0 SHL SUB NOT PUSH1 0xE0 DUP6 SWAP1 SHL AND DUP2 MSTORE PUSH1 0x1 PUSH1 0x1 PUSH1 0xA0 SHL SUB SWAP1 SWAP3 AND PUSH1 0x4 DUP4 ADD MSTORE PUSH1 0x24 DUP3 ADD MSTORE PUSH1 0x44 ADD PUSH1 0x0 PUSH1 0x40 MLOAD DUP1 DUP4 SUB DUP2 PUSH1 0x0 DUP8 DUP1 PUSH2 0x19BA PUSH2 0x6140 JUMP JUMPDEST ISZERO DUP1 ISZERO PUSH2 0x19CF JUMPI PUSH1 0x0 DUP1 PUSH2 0x19CC PUSH2 0x607A JUMP JUMPDEST POP POP JUMPDEST POP GAS PUSH2 0x19D9 PUSH2 0x6245 JUMP JUMPDEST POP POP POP POP POP POP ISZERO DUP1 ISZERO PUSH2 0x19F9 JUMPI RETURNDATASIZE PUSH1 0x0 DUP1 RETURNDATACOPY RETURNDATASIZE PUSH1 0x0 PUSH2 0x19F6 PUSH2 0x607A JUMP JUMPDEST POP POP JUMPDEST POP POP POP POP PUSH2 0x1A68 GAS PUSH4 0x996D79A5 MSIZE DUP2 PUSH1 0xE0 SHL DUP2 MSTORE PUSH1 0x20 DUP2 PUSH1 0x4 DUP4 CALLER PUSH1 0x0 SWAP1 GAS CALL PC PUSH1 0xE ADD JUMPI RETURNDATASIZE PUSH1 0x0 DUP1 RETURNDATACOPY RETURNDATASIZE PUSH1 0x0 REVERT JUMPDEST RETURNDATASIZE PUSH1 0x1 EQ ISZERO PC PUSH1 0xA ADD JUMPI PUSH1 0x1 PUSH1 0x0 RETURN JUMPDEST DUP1 MLOAD SWAP3 POP PUSH1 0x0 JUMPDEST PUSH1 0x40 DUP2 LT ISZERO PUSH2 0x1A56 JUMPI PUSH1 0x0 DUP3 DUP3 ADD MSTORE PUSH1 0x20 ADD PUSH2 0x1A3F JUMP JUMPDEST POP POP POP GAS PUSH2 0x1A62 PUSH2 0x62FE JUMP JUMPDEST DUP5 PUSH2 0x5138 JUMP JUMPDEST PUSH2 0x1A82 DUP4 PUSH1 0xA PUSH2 0x1A76 PUSH2 0x60E5 JUMP JUMPDEST SWAP1 PUSH4 0xFFFFFFFF PUSH2 0x50CF AND JUMP JUMPDEST DUP1 PUSH1 0xA PUSH2 0x1A8D PUSH2 0x6344 JUMP JUMPDEST POP POP POP PUSH1 0x1 SWAP6 POP POP POP POP POP POP SWAP1 JUMP JUMPDEST PUSH2 0x1AA4 PUSH2 0x51A5 JUMP JUMPDEST DUP1 PUSH1 0x5 PUSH1 0x1 DUP2 PUSH2 0x1AB2 PUSH2 0x60E5 JUMP JUMPDEST DUP2 PUSH1 0x1 PUSH1 0x1 PUSH1 0xA0 SHL SUB MUL NOT AND SWAP1 DUP4 PUSH1 0x1 PUSH1 0x1 PUSH1 0xA0 SHL SUB AND MUL OR SWAP1 PUSH2 0x1AD4 PUSH2 0x6344 JUMP JUMPDEST POP POP POP POP JUMP JUMPDEST PUSH2 0x1AE2 PUSH2 0x51A5 JUMP JUMPDEST DUP1 PUSH1 0x1 DUP1 DUP1 PUSH2 0x1AEF PUSH2 0x60E5 JUMP JUMPDEST DUP2 PUSH1 0x1 PUSH1 0x1 PUSH1 0xA0 SHL SUB MUL NOT AND SWAP1 DUP4 PUSH1 0x1 PUSH1 0x1 PUSH1 0xA0 SHL SUB AND MUL OR SWAP1 PUSH2 0x1B11 PUSH2 0x6344 JUMP JUMPDEST POP POP POP PUSH32 0x906A1C6BD7E3091EA86693DD029A831C19049CE77F1DCE2CE0BAB1CACBABCE22 DUP2 PUSH1 0x40 MLOAD PUSH1 0x1 PUSH1 0x1 PUSH1 0xA0 SHL SUB SWAP1 SWAP2 AND DUP2 MSTORE PUSH1 0x20 ADD PUSH1 0x40 MLOAD DUP1 SWAP2 SUB SWAP1 LOG1 POP JUMP JUMPDEST PUSH1 0x0 PUSH2 0x1B5E PUSH2 0x4D95 JUMP JUMPDEST PUSH1 0x1 PUSH1 0x1 PUSH1 0xA0 SHL SUB AND PUSH4 0x16B2213F DUP4 PUSH1 0x40 MLOAD PUSH1 0x1 PUSH1 0x1 PUSH1 0xE0 SHL SUB NOT PUSH1 0xE0 DUP5 SWAP1 SHL AND DUP2 MSTORE PUSH1 0x1 PUSH1 0x1 PUSH1 0xA0 SHL SUB SWAP1 SWAP2 AND PUSH1 0x4 DUP3 ADD MSTORE PUSH1 0x24 ADD PUSH1 0x20 PUSH1 0x40 MLOAD DUP1 DUP4 SUB DUP2 DUP7 DUP1 PUSH2 0xFDE PUSH2 0x6140 JUMP JUMPDEST PUSH1 0x2 PUSH2 0x1BB1 PUSH2 0x60E5 JUMP JUMPDEST DUP2 JUMP JUMPDEST PUSH1 0xA PUSH2 0x1BB1 PUSH2 0x60E5 JUMP JUMPDEST PUSH1 0x40 MLOAD PUSH1 0x40 DUP1 DUP3 ADD SWAP1 MSTORE PUSH1 0x17 DUP2 MSTORE PUSH32 0x53796E746865746978204E6574776F726B20546F6B656E000000000000000000 PUSH1 0x20 DUP3 ADD MSTORE DUP2 JUMP JUMPDEST PUSH1 0x0 DUP1 PUSH2 0x1C00 PUSH2 0x521D JUMP JUMPDEST PUSH1 0x1 PUSH1 0x1 PUSH1 0xA0 SHL SUB AND PUSH4 0x59C29EC PUSH1 0x0 PUSH1 0x6 PUSH2 0x1C1A PUSH2 0x60E5 JUMP JUMPDEST SWAP1 PUSH2 0x100 EXP SWAP1 DIV PUSH1 0x1 PUSH1 0x1 PUSH1 0xA0 SHL SUB AND DUP6 PUSH1 0x40 MLOAD PUSH1 0x1 PUSH1 0x1 PUSH1 0xE0 SHL SUB NOT PUSH1 0xE0 DUP6 SWAP1 SHL AND DUP2 MSTORE PUSH1 0x1 PUSH1 0x1 PUSH1 0xA0 SHL SUB SWAP1 SWAP3 AND PUSH1 0x4 DUP4 ADD MSTORE PUSH1 0x24 DUP3 ADD MSTORE PUSH1 0x44 ADD PUSH1 0x20 PUSH1 0x40 MLOAD DUP1 DUP4 SUB DUP2 DUP7 DUP1 PUSH2 0x1C6A PUSH2 0x6140 JUMP JUMPDEST ISZERO DUP1 ISZERO PUSH2 0x1C7F JUMPI PUSH1 0x0 DUP1 PUSH2 0x1C7C PUSH2 0x607A JUMP JUMPDEST POP POP JUMPDEST POP GAS PUSH2 0x1C89 PUSH2 0x618C JUMP JUMPDEST POP POP POP POP POP ISZERO DUP1 ISZERO PUSH2 0x1CA8 JUMPI RETURNDATASIZE PUSH1 0x0 DUP1 RETURNDATACOPY RETURNDATASIZE PUSH1 0x0 PUSH2 0x1CA5 PUSH2 0x607A JUMP JUMPDEST POP POP JUMPDEST POP POP POP POP PUSH1 0x40 MLOAD RETURNDATASIZE PUSH1 0x20 DUP2 LT ISZERO PUSH2 0x1CC7 JUMPI PUSH1 0x0 DUP1 PUSH2 0x1CC4 PUSH2 0x607A JUMP JUMPDEST POP POP JUMPDEST DUP2 ADD SWAP1 DUP1 DUP1 MLOAD SWAP4 SWAP1 SWAP4 GT SWAP6 SWAP5 POP POP POP POP POP JUMP JUMPDEST PUSH2 0x1CE2 PUSH2 0x51A5 JUMP JUMPDEST PUSH1 0x1 PUSH1 0x1 PUSH1 0xA0 SHL SUB DUP2 AND PUSH2 0x1D45 JUMPI PUSH1 0x40 MLOAD PUSH3 0x461BCD PUSH1 0xE5 SHL DUP2 MSTORE PUSH1 0x20 PUSH1 0x4 DUP3 ADD MSTORE PUSH1 0x1C PUSH1 0x24 DUP3 ADD MSTORE PUSH32 0x42656E6566696369617279206D757374206E6F74206265207A65726F00000000 PUSH1 0x44 DUP3 ADD MSTORE PUSH1 0x64 ADD PUSH1 0x40 MLOAD DUP1 SWAP2 SUB SWAP1 PUSH2 0x1D42 PUSH2 0x607A JUMP JUMPDEST POP POP JUMPDEST DUP1 PUSH1 0x3 PUSH2 0x100 DUP2 PUSH2 0x1D54 PUSH2 0x60E5 JUMP JUMPDEST DUP2 PUSH1 0x1 PUSH1 0x1 PUSH1 0xA0 SHL SUB MUL NOT AND SWAP1 DUP4 PUSH1 0x1 PUSH1 0x1 PUSH1 0xA0 SHL SUB AND MUL OR SWAP1 PUSH2 0x1D76 PUSH2 0x6344 JUMP JUMPDEST POP POP POP PUSH32 0xD5DA63A0B864B315BC04128DEDBC93888C8529EE6CF47CE664DC204339228C53 DUP2 PUSH1 0x40 MLOAD PUSH1 0x1 PUSH1 0x1 PUSH1 0xA0 SHL SUB SWAP1 SWAP2 AND DUP2 MSTORE PUSH1 0x20 ADD PUSH1 0x40 MLOAD DUP1 SWAP2 SUB SWAP1 LOG1 POP JUMP JUMPDEST PUSH1 0x0 PUSH2 0x1DC3 PUSH2 0x4DDB JUMP JUMPDEST PUSH2 0x1DCB PUSH2 0x4F94 JUMP JUMPDEST PUSH1 0x1 PUSH1 0x1 PUSH1 0xA0 SHL SUB AND PUSH4 0x86DABD1 PUSH1 0x40 MLOAD DUP2 PUSH4 0xFFFFFFFF AND PUSH1 0xE0 SHL DUP2 MSTORE PUSH1 0x4 ADD PUSH1 0x0 PUSH1 0x40 MLOAD DUP1 DUP4 SUB DUP2 DUP7 DUP1 PUSH2 0x1DFE PUSH2 0x6140 JUMP JUMPDEST ISZERO DUP1 ISZERO PUSH2 0x1E13 JUMPI PUSH1 0x0 DUP1 PUSH2 0x1E10 PUSH2 0x607A JUMP JUMPDEST POP POP JUMPDEST POP GAS PUSH2 0x1E1D PUSH2 0x618C JUMP JUMPDEST POP POP POP POP POP ISZERO DUP1 ISZERO PUSH2 0x1E3C JUMPI RETURNDATASIZE PUSH1 0x0 DUP1 RETURNDATACOPY RETURNDATASIZE PUSH1 0x0 PUSH2 0x1E39 PUSH2 0x607A JUMP JUMPDEST POP POP JUMPDEST POP POP POP POP PUSH2 0x1E4A DUP5 DUP4 PUSH2 0x5268 JUMP JUMPDEST POP PUSH2 0x1E72 PUSH1 0x0 PUSH1 0x6 PUSH2 0x1E5A PUSH2 0x60E5 JUMP JUMPDEST SWAP1 PUSH2 0x100 EXP SWAP1 DIV PUSH1 0x1 PUSH1 0x1 PUSH1 0xA0 SHL SUB AND DUP6 DUP6 DUP6 PUSH2 0x557D JUMP JUMPDEST SWAP5 SWAP4 POP POP POP POP JUMP JUMPDEST PUSH2 0x1E82 PUSH2 0x4F94 JUMP JUMPDEST PUSH1 0x1 PUSH1 0x1 PUSH1 0xA0 SHL SUB AND PUSH4 0x7C312541 PUSH1 0x40 MLOAD DUP2 PUSH4 0xFFFFFFFF AND PUSH1 0xE0 SHL DUP2 MSTORE PUSH1 0x4 ADD PUSH1 0x0 PUSH1 0x40 MLOAD DUP1 DUP4 SUB DUP2 DUP7 DUP1 PUSH2 0x1EB5 PUSH2 0x6140 JUMP JUMPDEST ISZERO DUP1 ISZERO PUSH2 0x1ECA JUMPI PUSH1 0x0 DUP1 PUSH2 0x1EC7 PUSH2 0x607A JUMP JUMPDEST POP POP JUMPDEST POP GAS PUSH2 0x1ED4 PUSH2 0x618C JUMP JUMPDEST POP POP POP POP POP ISZERO DUP1 ISZERO PUSH2 0x1EF3 JUMPI RETURNDATASIZE PUSH1 0x0 DUP1 RETURNDATACOPY RETURNDATASIZE PUSH1 0x0 PUSH2 0x1EF0 PUSH2 0x607A JUMP JUMPDEST POP POP JUMPDEST POP POP POP POP PUSH2 0x1EFF PUSH2 0x4DDB JUMP JUMPDEST PUSH2 0x1F07 PUSH2 0x4D95 JUMP JUMPDEST PUSH1 0x1 PUSH1 0x1 PUSH1 0xA0 SHL SUB AND PUSH4 0xB06E8C65 PUSH1 0x0 PUSH1 0x6 PUSH2 0x1F21 PUSH2 0x60E5 JUMP JUMPDEST SWAP1 PUSH2 0x100 EXP SWAP1 DIV PUSH1 0x1 PUSH1 0x1 PUSH1 0xA0 SHL SUB AND DUP4 PUSH1 0x40 MLOAD PUSH1 0x1 PUSH1 0x1 PUSH1 0xE0 SHL SUB NOT PUSH1 0xE0 DUP6 SWAP1 SHL AND DUP2 MSTORE PUSH1 0x1 PUSH1 0x1 PUSH1 0xA0 SHL SUB SWAP1 SWAP3 AND PUSH1 0x4 DUP4 ADD MSTORE PUSH1 0x24 DUP3 ADD MSTORE PUSH1 0x44 ADD PUSH1 0x0 PUSH1 0x40 MLOAD DUP1 DUP4 SUB DUP2 PUSH1 0x0 DUP8 DUP1 PUSH2 0x1F73 PUSH2 0x6140 JUMP JUMPDEST ISZERO DUP1 ISZERO PUSH2 0x1F88 JUMPI PUSH1 0x0 DUP1 PUSH2 0x1F85 PUSH2 0x607A JUMP JUMPDEST POP POP JUMPDEST POP GAS PUSH2 0x1F92 PUSH2 0x6245 JUMP JUMPDEST POP POP POP POP POP POP ISZERO DUP1 ISZERO PUSH2 0x1FB2 JUMPI RETURNDATASIZE PUSH1 0x0 DUP1 RETURNDATACOPY RETURNDATASIZE PUSH1 0x0 PUSH2 0x1FAF PUSH2 0x607A JUMP JUMPDEST POP POP JUMPDEST POP POP POP POP JUMPDEST POP JUMP JUMPDEST PUSH1 0x40 MLOAD PUSH1 0x40 DUP1 DUP3 ADD SWAP1 MSTORE PUSH1 0x3 DUP2 MSTORE PUSH3 0xA69CB PUSH1 0xEB SHL PUSH1 0x20 DUP3 ADD MSTORE DUP2 JUMP JUMPDEST PUSH2 0x1FDF PUSH2 0x4F94 JUMP JUMPDEST PUSH1 0x1 PUSH1 0x1 PUSH1 0xA0 SHL SUB AND PUSH4 0x7C312541 PUSH1 0x40 MLOAD DUP2 PUSH4 0xFFFFFFFF AND PUSH1 0xE0 SHL DUP2 MSTORE PUSH1 0x4 ADD PUSH1 0x0 PUSH1 0x40 MLOAD DUP1 DUP4 SUB DUP2 DUP7 DUP1 PUSH2 0x2012 PUSH2 0x6140 JUMP JUMPDEST ISZERO DUP1 ISZERO PUSH2 0x2027 JUMPI PUSH1 0x0 DUP1 PUSH2 0x2024 PUSH2 0x607A JUMP JUMPDEST POP POP JUMPDEST POP GAS PUSH2 0x2031 PUSH2 0x618C JUMP JUMPDEST POP POP POP POP POP ISZERO DUP1 ISZERO PUSH2 0x2050 JUMPI RETURNDATASIZE PUSH1 0x0 DUP1 RETURNDATACOPY RETURNDATASIZE PUSH1 0x0 PUSH2 0x204D PUSH2 0x607A JUMP JUMPDEST POP POP JUMPDEST POP POP POP POP PUSH2 0x205C PUSH2 0x4DDB JUMP JUMPDEST PUSH2 0x2064 PUSH2 0x4D95 JUMP JUMPDEST PUSH1 0x1 PUSH1 0x1 PUSH1 0xA0 SHL SUB AND PUSH4 0x2B3F41AA DUP3 PUSH1 0x0 PUSH1 0x6 PUSH2 0x207F PUSH2 0x60E5 JUMP JUMPDEST SWAP1 PUSH2 0x100 EXP SWAP1 DIV PUSH1 0x1 PUSH1 0x1 PUSH1 0xA0 SHL SUB AND PUSH1 0x40 MLOAD PUSH1 0x1 PUSH1 0x1 PUSH1 0xE0 SHL SUB NOT PUSH1 0xE0 DUP6 SWAP1 SHL AND DUP2 MSTORE PUSH1 0x1 PUSH1 0x1 PUSH1 0xA0 SHL SUB SWAP3 DUP4 AND PUSH1 0x4 DUP3 ADD MSTORE SWAP2 AND PUSH1 0x24 DUP3 ADD MSTORE PUSH1 0x44 ADD PUSH1 0x0 PUSH1 0x40 MLOAD DUP1 DUP4 SUB DUP2 PUSH1 0x0 DUP8 DUP1 PUSH2 0x1F73 PUSH2 0x6140 JUMP JUMPDEST PUSH1 0x12 DUP2 JUMP JUMPDEST PUSH1 0x0 DUP6 DUP5 PUSH2 0x20E3 PUSH2 0x4F94 JUMP JUMPDEST PUSH1 0x1 PUSH1 0x1 PUSH1 0xA0 SHL SUB AND PUSH4 0x7118D431 PUSH1 0x40 MLOAD DUP2 PUSH4 0xFFFFFFFF AND PUSH1 0xE0 SHL DUP2 MSTORE PUSH1 0x4 ADD PUSH1 0x0 PUSH1 0x40 MLOAD DUP1 DUP4 SUB DUP2 DUP7 DUP1 PUSH2 0x2116 PUSH2 0x6140 JUMP JUMPDEST ISZERO DUP1 ISZERO PUSH2 0x212B JUMPI PUSH1 0x0 DUP1 PUSH2 0x2128 PUSH2 0x607A JUMP JUMPDEST POP POP JUMPDEST POP GAS PUSH2 0x2135 PUSH2 0x618C JUMP JUMPDEST POP POP POP POP POP ISZERO DUP1 ISZERO PUSH2 0x2154 JUMPI RETURNDATASIZE PUSH1 0x0 DUP1 RETURNDATACOPY RETURNDATASIZE PUSH1 0x0 PUSH2 0x2151 PUSH2 0x607A JUMP JUMPDEST POP POP JUMPDEST POP POP POP POP PUSH2 0x2160 PUSH2 0x4F94 JUMP JUMPDEST PUSH1 0x1 PUSH1 0x1 PUSH1 0xA0 SHL SUB AND PUSH4 0x6132EBA4 DUP4 DUP4 PUSH1 0x40 MLOAD PUSH1 0x1 PUSH1 0x1 PUSH1 0xE0 SHL SUB NOT PUSH1 0xE0 DUP6 SWAP1 SHL AND DUP2 MSTORE PUSH1 0x4 DUP2 ADD SWAP3 SWAP1 SWAP3 MSTORE PUSH1 0x24 DUP3 ADD MSTORE PUSH1 0x44 ADD PUSH1 0x0 PUSH1 0x40 MLOAD DUP1 DUP4 SUB DUP2 DUP7 DUP1 PUSH2 0x21A7 PUSH2 0x6140 JUMP JUMPDEST ISZERO DUP1 ISZERO PUSH2 0x21BC JUMPI PUSH1 0x0 DUP1 PUSH2 0x21B9 PUSH2 0x607A JUMP JUMPDEST POP POP JUMPDEST POP GAS PUSH2 0x21C6 PUSH2 0x618C JUMP JUMPDEST POP POP POP POP POP ISZERO DUP1 ISZERO PUSH2 0x21E5 JUMPI RETURNDATASIZE PUSH1 0x0 DUP1 RETURNDATACOPY RETURNDATASIZE PUSH1 0x0 PUSH2 0x21E2 PUSH2 0x607A JUMP JUMPDEST POP POP JUMPDEST POP POP POP POP PUSH2 0x21F1 PUSH2 0x4DDB JUMP JUMPDEST PUSH2 0x21F9 PUSH2 0x521D JUMP JUMPDEST PUSH1 0x1 PUSH1 0x1 PUSH1 0xA0 SHL SUB AND PUSH4 0x86BAA45C PUSH1 0x0 PUSH1 0x6 PUSH2 0x2213 PUSH2 0x60E5 JUMP JUMPDEST SWAP1 PUSH2 0x100 EXP SWAP1 DIV PUSH1 0x1 PUSH1 0x1 PUSH1 0xA0 SHL SUB AND DUP11 DUP11 DUP11 PUSH1 0x6 PUSH1 0x0 SWAP1 PUSH2 0x2233 PUSH2 0x60E5 JUMP JUMPDEST SWAP1 PUSH2 0x100 EXP SWAP1 DIV PUSH1 0x1 PUSH1 0x1 PUSH1 0xA0 SHL SUB AND DUP12 DUP12 PUSH1 0x40 MLOAD PUSH1 0x1 PUSH1 0x1 PUSH1 0xE0 SHL SUB NOT PUSH1 0xE0 DUP11 SWAP1 SHL AND DUP2 MSTORE PUSH1 0x1 PUSH1 0x1 PUSH1 0xA0 SHL SUB SWAP8 DUP9 AND PUSH1 0x4 DUP3 ADD MSTORE PUSH1 0x24 DUP2 ADD SWAP7 SWAP1 SWAP7 MSTORE PUSH1 0x44 DUP7 ADD SWAP5 SWAP1 SWAP5 MSTORE PUSH1 0x64 DUP6 ADD SWAP3 SWAP1 SWAP3 MSTORE DUP5 AND PUSH1 0x84 DUP5 ADD MSTORE SWAP1 SWAP3 AND PUSH1 0xA4 DUP3 ADD MSTORE PUSH1 0xC4 DUP2 ADD SWAP2 SWAP1 SWAP2 MSTORE PUSH1 0xE4 ADD PUSH1 0x20 PUSH1 0x40 MLOAD DUP1 DUP4 SUB DUP2 PUSH1 0x0 DUP8 DUP1 PUSH2 0x22B0 PUSH2 0x6140 JUMP JUMPDEST ISZERO DUP1 ISZERO PUSH2 0x22C5 JUMPI PUSH1 0x0 DUP1 PUSH2 0x22C2 PUSH2 0x607A JUMP JUMPDEST POP POP JUMPDEST POP GAS PUSH2 0x22CF PUSH2 0x6245 JUMP JUMPDEST POP POP POP POP POP POP ISZERO DUP1 ISZERO PUSH2 0x22EF JUMPI RETURNDATASIZE PUSH1 0x0 DUP1 RETURNDATACOPY RETURNDATASIZE PUSH1 0x0 PUSH2 0x22EC PUSH2 0x607A JUMP JUMPDEST POP POP JUMPDEST POP POP POP POP PUSH1 0x40 MLOAD RETURNDATASIZE PUSH1 0x20 DUP2 LT ISZERO PUSH2 0x230E JUMPI PUSH1 0x0 DUP1 PUSH2 0x230B PUSH2 0x607A JUMP JUMPDEST POP POP JUMPDEST DUP2 ADD SWAP1 DUP1 DUP1 MLOAD SWAP12 SWAP11 POP POP POP POP POP POP POP POP POP POP POP JUMP JUMPDEST PUSH1 0x0 PUSH1 0xB PUSH2 0x232F PUSH2 0x60E5 JUMP JUMPDEST SWAP1 PUSH2 0x100 EXP SWAP1 DIV PUSH1 0xFF AND DUP2 JUMP JUMPDEST PUSH2 0x2344 PUSH2 0x4F94 JUMP JUMPDEST PUSH1 0x1 PUSH1 0x1 PUSH1 0xA0 SHL SUB AND PUSH4 0x7C312541 PUSH1 0x40 MLOAD DUP2 PUSH4 0xFFFFFFFF AND PUSH1 0xE0 SHL DUP2 MSTORE PUSH1 0x4 ADD PUSH1 0x0 PUSH1 0x40 MLOAD DUP1 DUP4 SUB DUP2 DUP7 DUP1 PUSH2 0x2377 PUSH2 0x6140 JUMP JUMPDEST ISZERO DUP1 ISZERO PUSH2 0x238C JUMPI PUSH1 0x0 DUP1 PUSH2 0x2389 PUSH2 0x607A JUMP JUMPDEST POP POP JUMPDEST POP GAS PUSH2 0x2396 PUSH2 0x618C JUMP JUMPDEST POP POP POP POP POP ISZERO DUP1 ISZERO PUSH2 0x23B5 JUMPI RETURNDATASIZE PUSH1 0x0 DUP1 RETURNDATACOPY RETURNDATASIZE PUSH1 0x0 PUSH2 0x23B2 PUSH2 0x607A JUMP JUMPDEST POP POP JUMPDEST POP POP POP POP PUSH2 0x23C1 PUSH2 0x4DDB JUMP JUMPDEST PUSH2 0x23C9 PUSH2 0x4D95 JUMP JUMPDEST PUSH1 0x1 PUSH1 0x1 PUSH1 0xA0 SHL SUB AND PUSH4 0xFD864CCF DUP3 PUSH1 0x0 PUSH1 0x6 PUSH2 0x207F PUSH2 0x60E5 JUMP JUMPDEST PUSH1 0x0 PUSH2 0x23EE PUSH2 0x4D95 JUMP JUMPDEST PUSH1 0x1 PUSH1 0x1 PUSH1 0xA0 SHL SUB AND PUSH4 0x32608039 DUP4 PUSH1 0x40 MLOAD PUSH1 0x1 PUSH1 0x1 PUSH1 0xE0 SHL SUB NOT PUSH1 0xE0 DUP5 SWAP1 SHL AND DUP2 MSTORE PUSH1 0x4 DUP2 ADD SWAP2 SWAP1 SWAP2 MSTORE PUSH1 0x24 ADD PUSH1 0x20 PUSH1 0x40 MLOAD DUP1 DUP4 SUB DUP2 DUP7 DUP1 PUSH2 0xFDE PUSH2 0x6140 JUMP JUMPDEST PUSH2 0x2437 PUSH2 0x51A5 JUMP JUMPDEST PUSH1 0x0 DUP1 PUSH1 0x2 PUSH2 0x2444 PUSH2 0x6344 JUMP JUMPDEST POP POP POP PUSH1 0x0 PUSH1 0x3 PUSH1 0x0 PUSH2 0x100 EXP DUP2 PUSH2 0x245A PUSH2 0x60E5 JUMP JUMPDEST DUP2 PUSH1 0xFF MUL NOT AND SWAP1 DUP4 ISZERO ISZERO MUL OR SWAP1 PUSH2 0x246F PUSH2 0x6344 JUMP JUMPDEST POP POP POP PUSH32 0x6ADCC7125002935E0AA31697538EBBD65CFDDF20431EB6ECDCFC3E238BFD082C PUSH1 0x40 MLOAD PUSH1 0x40 MLOAD DUP1 SWAP2 SUB SWAP1 LOG1 JUMP JUMPDEST PUSH2 0x24A8 PUSH2 0x51A5 JUMP JUMPDEST DUP1 PUSH1 0xB PUSH2 0x100 DUP2 PUSH2 0x24B7 PUSH2 0x60E5 JUMP JUMPDEST DUP2 PUSH1 0x1 PUSH1 0x1 PUSH1 0xA0 SHL SUB MUL NOT AND SWAP1 DUP4 PUSH1 0x1 PUSH1 0x1 PUSH1 0xA0 SHL SUB AND MUL OR SWAP1 PUSH2 0x24D9 PUSH2 0x6344 JUMP JUMPDEST POP PUSH1 0x0 SWAP2 POP POP JUMPDEST PUSH1 0xD DUP1 PUSH2 0x24EB PUSH2 0x60E5 JUMP JUMPDEST SWAP1 POP DUP2 LT ISZERO PUSH2 0x2667 JUMPI PUSH1 0x0 PUSH1 0xD DUP3 DUP2 PUSH2 0x2502 PUSH2 0x60E5 JUMP JUMPDEST DUP2 LT PUSH2 0x250A JUMPI INVALID JUMPDEST SWAP1 PUSH1 0x0 MSTORE PUSH1 0x20 PUSH1 0x0 KECCAK256 ADD PUSH2 0x251C PUSH2 0x60E5 JUMP JUMPDEST SWAP1 POP PUSH1 0x1 PUSH1 0xB PUSH2 0x252A PUSH2 0x60E5 JUMP JUMPDEST SWAP1 PUSH2 0x100 EXP SWAP1 DIV PUSH1 0x1 PUSH1 0x1 PUSH1 0xA0 SHL SUB AND PUSH1 0x1 PUSH1 0x1 PUSH1 0xA0 SHL SUB AND PUSH4 0xDACB2D01 DUP3 PUSH1 0x40 MLOAD PUSH1 0x1 PUSH1 0x1 PUSH1 0xE0 SHL SUB NOT PUSH1 0xE0 DUP5 SWAP1 SHL AND DUP2 MSTORE PUSH1 0x4 DUP2 ADD SWAP2 SWAP1 SWAP2 MSTORE PUSH1 0x40 PUSH1 0x24 DUP3 ADD DUP2 SWAP1 MSTORE PUSH1 0x17 PUSH1 0x44 DUP4 ADD MSTORE PUSH32 0x5265736F6C766572206D697373696E6720746172676574000000000000000000 PUSH1 0x64 DUP4 ADD MSTORE PUSH1 0x84 SWAP1 SWAP2 ADD SWAP1 PUSH1 0x20 SWAP1 MLOAD DUP1 DUP4 SUB DUP2 DUP7 DUP1 PUSH2 0x25B3 PUSH2 0x6140 JUMP JUMPDEST ISZERO DUP1 ISZERO PUSH2 0x25C8 JUMPI PUSH1 0x0 DUP1 PUSH2 0x25C5 PUSH2 0x607A JUMP JUMPDEST POP POP JUMPDEST POP GAS PUSH2 0x25D2 PUSH2 0x618C JUMP JUMPDEST POP POP POP POP POP ISZERO DUP1 ISZERO PUSH2 0x25F1 JUMPI RETURNDATASIZE PUSH1 0x0 DUP1 RETURNDATACOPY RETURNDATASIZE PUSH1 0x0 PUSH2 0x25EE PUSH2 0x607A JUMP JUMPDEST POP POP JUMPDEST POP POP POP POP PUSH1 0x40 MLOAD RETURNDATASIZE PUSH1 0x20 DUP2 LT ISZERO PUSH2 0x2610 JUMPI PUSH1 0x0 DUP1 PUSH2 0x260D PUSH2 0x607A JUMP JUMPDEST POP POP JUMPDEST DUP2 ADD SWAP1 DUP1 DUP1 MLOAD PUSH1 0x0 DUP6 DUP2 MSTORE PUSH1 0xC PUSH1 0x20 MSTORE SWAP1 SWAP4 POP PUSH1 0x40 SWAP3 POP SWAP1 POP KECCAK256 PUSH1 0x1 DUP2 PUSH2 0x2635 PUSH2 0x60E5 JUMP JUMPDEST DUP2 PUSH1 0x1 PUSH1 0x1 PUSH1 0xA0 SHL SUB MUL NOT AND SWAP1 DUP4 PUSH1 0x1 PUSH1 0x1 PUSH1 0xA0 SHL SUB AND MUL OR SWAP1 PUSH2 0x2657 PUSH2 0x6344 JUMP JUMPDEST POP POP PUSH1 0x1 SWAP1 SWAP3 ADD SWAP2 POP PUSH2 0x24E0 SWAP1 POP JUMP JUMPDEST POP POP JUMP JUMPDEST PUSH1 0x0 PUSH2 0x2675 PUSH2 0x4D95 JUMP JUMPDEST PUSH1 0x1 PUSH1 0x1 PUSH1 0xA0 SHL SUB AND PUSH4 0x4E99BDA9 PUSH1 0x40 MLOAD DUP2 PUSH4 0xFFFFFFFF AND PUSH1 0xE0 SHL DUP2 MSTORE PUSH1 0x4 ADD PUSH1 0x20 PUSH1 0x40 MLOAD DUP1 DUP4 SUB DUP2 DUP7 DUP1 PUSH2 0x26A8 PUSH2 0x6140 JUMP JUMPDEST ISZERO DUP1 ISZERO PUSH2 0x26BD JUMPI PUSH1 0x0 DUP1 PUSH2 0x26BA PUSH2 0x607A JUMP JUMPDEST POP POP JUMPDEST POP GAS PUSH2 0x26C7 PUSH2 0x618C JUMP JUMPDEST POP POP POP POP POP ISZERO DUP1 ISZERO PUSH2 0x26E6 JUMPI RETURNDATASIZE PUSH1 0x0 DUP1 RETURNDATACOPY RETURNDATASIZE PUSH1 0x0 PUSH2 0x26E3 PUSH2 0x607A JUMP JUMPDEST POP POP JUMPDEST POP POP POP POP PUSH1 0x40 MLOAD RETURNDATASIZE PUSH1 0x20 DUP2 LT ISZERO PUSH2 0x2705 JUMPI PUSH1 0x0 DUP1 PUSH2 0x2702 PUSH2 0x607A JUMP JUMPDEST POP POP JUMPDEST DUP2 ADD SWAP1 DUP1 DUP1 MLOAD SWAP4 POP POP POP POP SWAP1 JUMP JUMPDEST PUSH1 0x0 PUSH1 0x1 PUSH2 0xF78 PUSH2 0x60E5 JUMP JUMPDEST PUSH1 0x0 PUSH1 0x1 PUSH1 0x1 PUSH1 0xA0 SHL SUB DUP3 AND PUSH1 0x1 PUSH1 0xB PUSH2 0x2737 PUSH2 0x60E5 JUMP JUMPDEST SWAP1 PUSH2 0x100 EXP SWAP1 DIV PUSH1 0x1 PUSH1 0x1 PUSH1 0xA0 SHL SUB AND PUSH1 0x1 PUSH1 0x1 PUSH1 0xA0 SHL SUB AND EQ PUSH2 0x275D JUMPI POP PUSH1 0x0 PUSH2 0x1047 JUMP JUMPDEST PUSH1 0x0 JUMPDEST PUSH1 0xD DUP1 PUSH2 0x276B PUSH2 0x60E5 JUMP JUMPDEST SWAP1 POP DUP2 LT ISZERO PUSH2 0x28F1 JUMPI PUSH1 0x0 PUSH1 0xD DUP3 DUP2 PUSH2 0x2782 PUSH2 0x60E5 JUMP JUMPDEST DUP2 LT PUSH2 0x278A JUMPI INVALID JUMPDEST SWAP1 PUSH1 0x0 MSTORE PUSH1 0x20 PUSH1 0x0 KECCAK256 ADD PUSH2 0x279C PUSH2 0x60E5 JUMP JUMPDEST PUSH1 0x0 DUP2 DUP2 MSTORE PUSH1 0xC PUSH1 0x20 MSTORE SWAP1 SWAP2 POP PUSH1 0x40 SWAP1 KECCAK256 PUSH1 0x0 SWAP1 PUSH2 0x27B8 PUSH2 0x60E5 JUMP JUMPDEST PUSH1 0x1 PUSH1 0x1 PUSH1 0xA0 SHL SUB PUSH2 0x100 SWAP3 SWAP1 SWAP3 EXP SWAP1 DIV AND PUSH1 0x1 PUSH1 0xB PUSH2 0x27D6 PUSH2 0x60E5 JUMP JUMPDEST SWAP1 PUSH2 0x100 EXP SWAP1 DIV PUSH1 0x1 PUSH1 0x1 PUSH1 0xA0 SHL SUB AND PUSH1 0x1 PUSH1 0x1 PUSH1 0xA0 SHL SUB AND PUSH4 0x21F8A721 DUP4 PUSH1 0x40 MLOAD PUSH1 0x1 PUSH1 0x1 PUSH1 0xE0 SHL SUB NOT PUSH1 0xE0 DUP5 SWAP1 SHL AND DUP2 MSTORE PUSH1 0x4 DUP2 ADD SWAP2 SWAP1 SWAP2 MSTORE PUSH1 0x24 ADD PUSH1 0x20 PUSH1 0x40 MLOAD DUP1 DUP4 SUB DUP2 DUP7 DUP1 PUSH2 0x2827 PUSH2 0x6140 JUMP JUMPDEST ISZERO DUP1 ISZERO PUSH2 0x283C JUMPI PUSH1 0x0 DUP1 PUSH2 0x2839 PUSH2 0x607A JUMP JUMPDEST POP POP JUMPDEST POP GAS PUSH2 0x2846 PUSH2 0x618C JUMP JUMPDEST POP POP POP POP POP ISZERO DUP1 ISZERO PUSH2 0x2865 JUMPI RETURNDATASIZE PUSH1 0x0 DUP1 RETURNDATACOPY RETURNDATASIZE PUSH1 0x0 PUSH2 0x2862 PUSH2 0x607A JUMP JUMPDEST POP POP JUMPDEST POP POP POP POP PUSH1 0x40 MLOAD RETURNDATASIZE PUSH1 0x20 DUP2 LT ISZERO PUSH2 0x2884 JUMPI PUSH1 0x0 DUP1 PUSH2 0x2881 PUSH2 0x607A JUMP JUMPDEST POP POP JUMPDEST DUP2 ADD SWAP1 DUP1 DUP1 MLOAD PUSH1 0x1 PUSH1 0x1 PUSH1 0xA0 SHL SUB AND SWAP4 SWAP1 SWAP4 EQ ISZERO SWAP3 POP DUP3 SWAP2 POP PUSH2 0x28D8 SWAP1 POP JUMPI POP PUSH1 0x0 DUP2 DUP2 MSTORE PUSH1 0xC PUSH1 0x20 MSTORE PUSH1 0x40 DUP2 KECCAK256 PUSH1 0x0 SWAP1 PUSH2 0x28BD PUSH2 0x60E5 JUMP JUMPDEST SWAP1 PUSH2 0x100 EXP SWAP1 DIV PUSH1 0x1 PUSH1 0x1 PUSH1 0xA0 SHL SUB AND PUSH1 0x1 PUSH1 0x1 PUSH1 0xA0 SHL SUB AND EQ JUMPDEST ISZERO PUSH2 0x28E8 JUMPI PUSH1 0x0 SWAP3 POP POP POP PUSH2 0x1047 JUMP JUMPDEST POP PUSH1 0x1 ADD PUSH2 0x2760 JUMP JUMPDEST POP PUSH1 0x1 SWAP3 SWAP2 POP POP JUMP JUMPDEST PUSH2 0x2902 PUSH2 0x56AF JUMP JUMPDEST PUSH1 0x1 PUSH1 0x1 PUSH1 0xA0 SHL SUB AND GAS PUSH2 0x2914 PUSH2 0x62FE JUMP JUMPDEST PUSH1 0x1 PUSH1 0x1 PUSH1 0xA0 SHL SUB AND EQ PUSH2 0x2962 JUMPI PUSH1 0x40 MLOAD PUSH3 0x461BCD PUSH1 0xE5 SHL DUP2 MSTORE PUSH1 0x4 ADD DUP1 DUP1 PUSH1 0x20 ADD DUP3 DUP2 SUB DUP3 MSTORE PUSH1 0x34 DUP2 MSTORE PUSH1 0x20 ADD DUP1 PUSH2 0x65C6 PUSH1 0x34 SWAP2 CODECOPY PUSH1 0x40 ADD SWAP2 POP POP PUSH1 0x40 MLOAD DUP1 SWAP2 SUB SWAP1 PUSH2 0x295F PUSH2 0x607A JUMP JUMPDEST POP POP JUMPDEST PUSH1 0x0 PUSH1 0x7 PUSH2 0x296E PUSH2 0x60E5 JUMP JUMPDEST PUSH1 0x1 PUSH1 0x1 PUSH1 0xA0 SHL SUB PUSH2 0x100 SWAP3 SWAP1 SWAP3 EXP SWAP1 DIV AND PUSH4 0xB46310F6 DUP4 PUSH2 0x29EF DUP5 PUSH1 0x0 PUSH1 0x7 PUSH2 0x2996 PUSH2 0x60E5 JUMP JUMPDEST SWAP1 PUSH2 0x100 EXP SWAP1 DIV PUSH1 0x1 PUSH1 0x1 PUSH1 0xA0 SHL SUB AND PUSH1 0x1 PUSH1 0x1 PUSH1 0xA0 SHL SUB AND PUSH4 0x70A08231 DUP9 PUSH1 0x40 MLOAD PUSH1 0x1 PUSH1 0x1 PUSH1 0xE0 SHL SUB NOT PUSH1 0xE0 DUP5 SWAP1 SHL AND DUP2 MSTORE PUSH1 0x1 PUSH1 0x1 PUSH1 0xA0 SHL SUB SWAP1 SWAP2 AND PUSH1 0x4 DUP3 ADD MSTORE PUSH1 0x24 ADD PUSH1 0x20 PUSH1 0x40 MLOAD DUP1 DUP4 SUB DUP2 DUP7 DUP1 PUSH2 0x16CB PUSH2 0x6140 JUMP JUMPDEST PUSH1 0x40 MLOAD PUSH1 0x1 PUSH1 0x1 PUSH1 0xE0 SHL SUB NOT PUSH1 0xE0 DUP6 SWAP1 SHL AND DUP2 MSTORE PUSH1 0x1 PUSH1 0x1 PUSH1 0xA0 SHL SUB SWAP1 SWAP3 AND PUSH1 0x4 DUP4 ADD MSTORE PUSH1 0x24 DUP3 ADD MSTORE PUSH1 0x44 ADD PUSH1 0x0 PUSH1 0x40 MLOAD DUP1 DUP4 SUB DUP2 PUSH1 0x0 DUP8 DUP1 PUSH2 0x2A30 PUSH2 0x6140 JUMP JUMPDEST ISZERO DUP1 ISZERO PUSH2 0x2A45 JUMPI PUSH1 0x0 DUP1 PUSH2 0x2A42 PUSH2 0x607A JUMP JUMPDEST POP POP JUMPDEST POP GAS PUSH2 0x2A4F PUSH2 0x6245 JUMP JUMPDEST POP POP POP POP POP POP ISZERO DUP1 ISZERO PUSH2 0x2A6F JUMPI RETURNDATASIZE PUSH1 0x0 DUP1 RETURNDATACOPY RETURNDATASIZE PUSH1 0x0 PUSH2 0x2A6C PUSH2 0x607A JUMP JUMPDEST POP POP JUMPDEST POP POP POP POP PUSH2 0x2AD6 GAS PUSH4 0x996D79A5 MSIZE DUP2 PUSH1 0xE0 SHL DUP2 MSTORE PUSH1 0x20 DUP2 PUSH1 0x4 DUP4 CALLER PUSH1 0x0 SWAP1 GAS CALL PC PUSH1 0xE ADD JUMPI RETURNDATASIZE PUSH1 0x0 DUP1 RETURNDATACOPY RETURNDATASIZE PUSH1 0x0 REVERT JUMPDEST RETURNDATASIZE PUSH1 0x1 EQ ISZERO PC PUSH1 0xA ADD JUMPI PUSH1 0x1 PUSH1 0x0 RETURN JUMPDEST DUP1 MLOAD SWAP3 POP PUSH1 0x0 JUMPDEST PUSH1 0x40 DUP2 LT ISZERO PUSH2 0x2ACC JUMPI PUSH1 0x0 DUP3 DUP3 ADD MSTORE PUSH1 0x20 ADD PUSH2 0x2AB5 JUMP JUMPDEST POP POP POP DUP4 DUP4 PUSH2 0x5138 JUMP JUMPDEST PUSH2 0x2AE4 DUP2 PUSH1 0xA PUSH2 0x1A76 PUSH2 0x60E5 JUMP JUMPDEST DUP1 PUSH1 0xA PUSH2 0x1FB2 PUSH2 0x6344 JUMP JUMPDEST PUSH1 0x0 PUSH2 0x2AF9 PUSH2 0x4D95 JUMP JUMPDEST PUSH1 0x1 PUSH1 0x1 PUSH1 0xA0 SHL SUB AND PUSH4 0x6BED0415 DUP4 PUSH1 0x0 PUSH1 0x7 PUSH2 0x2B14 PUSH2 0x60E5 JUMP JUMPDEST SWAP1 PUSH2 0x100 EXP SWAP1 DIV PUSH1 0x1 PUSH1 0x1 PUSH1 0xA0 SHL SUB AND PUSH1 0x1 PUSH1 0x1 PUSH1 0xA0 SHL SUB AND PUSH4 0x70A08231 DUP7 PUSH1 0x40 MLOAD PUSH1 0x1 PUSH1 0x1 PUSH1 0xE0 SHL SUB NOT PUSH1 0xE0 DUP5 SWAP1 SHL AND DUP2 MSTORE PUSH1 0x1 PUSH1 0x1 PUSH1 0xA0 SHL SUB SWAP1 SWAP2 AND PUSH1 0x4 DUP3 ADD MSTORE PUSH1 0x24 ADD PUSH1 0x20 PUSH1 0x40 MLOAD DUP1 DUP4 SUB DUP2 DUP7 DUP1 PUSH2 0x2B6D PUSH2 0x6140 JUMP JUMPDEST ISZERO DUP1 ISZERO PUSH2 0x2B82 JUMPI PUSH1 0x0 DUP1 PUSH2 0x2B7F PUSH2 0x607A JUMP JUMPDEST POP POP JUMPDEST POP GAS PUSH2 0x2B8C PUSH2 0x618C JUMP JUMPDEST POP POP POP POP POP ISZERO DUP1 ISZERO PUSH2 0x2BAB JUMPI RETURNDATASIZE PUSH1 0x0 DUP1 RETURNDATACOPY RETURNDATASIZE PUSH1 0x0 PUSH2 0x2BA8 PUSH2 0x607A JUMP JUMPDEST POP POP JUMPDEST POP POP POP POP PUSH1 0x40 MLOAD RETURNDATASIZE PUSH1 0x20 DUP2 LT ISZERO PUSH2 0x2BCA JUMPI PUSH1 0x0 DUP1 PUSH2 0x2BC7 PUSH2 0x607A JUMP JUMPDEST POP POP JUMPDEST DUP2 ADD SWAP1 DUP1 DUP1 MLOAD SWAP3 POP PUSH1 0x40 SWAP2 POP POP MLOAD PUSH1 0x1 PUSH1 0x1 PUSH1 0xE0 SHL SUB NOT PUSH1 0xE0 DUP6 SWAP1 SHL AND DUP2 MSTORE PUSH1 0x1 PUSH1 0x1 PUSH1 0xA0 SHL SUB SWAP1 SWAP3 AND PUSH1 0x4 DUP4 ADD MSTORE PUSH1 0x24 DUP3 ADD MSTORE PUSH1 0x44 ADD PUSH1 0x40 DUP1 MLOAD DUP1 DUP4 SUB DUP2 DUP7 DUP1 PUSH2 0x2C13 PUSH2 0x6140 JUMP JUMPDEST ISZERO DUP1 ISZERO PUSH2 0x2C28 JUMPI PUSH1 0x0 DUP1 PUSH2 0x2C25 PUSH2 0x607A JUMP JUMPDEST POP POP JUMPDEST POP GAS PUSH2 0x2C32 PUSH2 0x618C JUMP JUMPDEST POP POP POP POP POP ISZERO DUP1 ISZERO PUSH2 0x2C51 JUMPI RETURNDATASIZE PUSH1 0x0 DUP1 RETURNDATACOPY RETURNDATASIZE PUSH1 0x0 PUSH2 0x2C4E PUSH2 0x607A JUMP JUMPDEST POP POP JUMPDEST POP POP POP POP PUSH1 0x40 MLOAD RETURNDATASIZE PUSH1 0x40 DUP2 LT ISZERO PUSH2 0x2C70 JUMPI PUSH1 0x0 DUP1 PUSH2 0x2C6D PUSH2 0x607A JUMP JUMPDEST POP POP JUMPDEST DUP2 ADD SWAP1 DUP1 DUP1 MLOAD SWAP3 SWAP2 SWAP1 PUSH1 0x20 ADD DUP1 MLOAD POP SWAP3 SWAP6 SWAP5 POP POP POP POP POP JUMP JUMPDEST PUSH2 0x2C91 PUSH2 0x521D JUMP JUMPDEST PUSH1 0x1 PUSH1 0x1 PUSH1 0xA0 SHL SUB AND GAS PUSH2 0x2CA3 PUSH2 0x62FE JUMP JUMPDEST PUSH1 0x1 PUSH1 0x1 PUSH1 0xA0 SHL SUB AND EQ PUSH2 0x2CF4 JUMPI PUSH1 0x40 MLOAD PUSH3 0x461BCD PUSH1 0xE5 SHL DUP2 MSTORE PUSH1 0x20 PUSH1 0x4 DUP3 ADD MSTORE PUSH1 0x1E PUSH1 0x24 DUP3 ADD MSTORE PUSH1 0x0 DUP1 MLOAD PUSH1 0x20 PUSH2 0x6453 DUP4 CODECOPY DUP2 MLOAD SWAP2 MSTORE PUSH1 0x44 DUP3 ADD MSTORE PUSH1 0x64 ADD PUSH1 0x40 MLOAD DUP1 SWAP2 SUB SWAP1 PUSH2 0x2CF1 PUSH2 0x607A JUMP JUMPDEST POP POP JUMPDEST PUSH1 0x0 PUSH1 0x4 PUSH2 0x2D00 PUSH2 0x60E5 JUMP JUMPDEST SWAP1 PUSH2 0x100 EXP SWAP1 DIV PUSH1 0x1 PUSH1 0x1 PUSH1 0xA0 SHL SUB AND PUSH1 0x1 PUSH1 0x1 PUSH1 0xA0 SHL SUB AND PUSH4 0x907DFF97 DUP7 DUP7 DUP7 DUP7 DUP7 PUSH1 0x40 MLOAD PUSH1 0x20 DUP2 ADD SWAP6 SWAP1 SWAP6 MSTORE PUSH1 0x40 DUP1 DUP7 ADD SWAP5 SWAP1 SWAP5 MSTORE PUSH1 0x60 DUP6 ADD SWAP3 SWAP1 SWAP3 MSTORE PUSH1 0x80 DUP5 ADD MSTORE PUSH1 0x1 PUSH1 0x1 PUSH1 0xA0 SHL SUB AND PUSH1 0xA0 DUP4 ADD MSTORE PUSH1 0xC0 SWAP1 SWAP2 ADD SWAP1 MLOAD PUSH1 0x20 DUP2 DUP4 SUB SUB DUP2 MSTORE SWAP1 PUSH1 0x40 MSTORE PUSH1 0x2 PUSH1 0x40 MLOAD DUP1 PUSH1 0x3E PUSH2 0x6473 DUP3 CODECOPY PUSH1 0x3E ADD SWAP1 POP PUSH1 0x40 MLOAD DUP1 SWAP2 SUB SWAP1 KECCAK256 PUSH2 0x2D88 DUP12 PUSH2 0x56E4 JUMP JUMPDEST PUSH1 0x0 DUP1 PUSH1 0x40 MLOAD DUP8 PUSH4 0xFFFFFFFF AND PUSH1 0xE0 SHL DUP2 MSTORE PUSH1 0x4 ADD DUP1 DUP1 PUSH1 0x20 ADD DUP8 DUP2 MSTORE PUSH1 0x20 ADD DUP7 DUP2 MSTORE PUSH1 0x20 ADD DUP6 DUP2 MSTORE PUSH1 0x20 ADD DUP5 PUSH1 0x0 SHL DUP2 MSTORE PUSH1 0x20 ADD DUP4 PUSH1 0x0 SHL DUP2 MSTORE PUSH1 0x20 ADD DUP3 DUP2 SUB DUP3 MSTORE DUP9 DUP2 DUP2 MLOAD DUP2 MSTORE PUSH1 0x20 ADD SWAP2 POP DUP1 MLOAD SWAP1 PUSH1 0x20 ADD SWAP1 DUP1 DUP4 DUP4 PUSH1 0x0 JUMPDEST DUP4 DUP2 LT ISZERO PUSH2 0x2DFB JUMPI DUP1 DUP3 ADD MLOAD DUP4 DUP3 ADD MSTORE PUSH1 0x20 ADD PUSH2 0x2DE3 JUMP JUMPDEST POP POP POP POP SWAP1 POP SWAP1 DUP2 ADD SWAP1 PUSH1 0x1F AND DUP1 ISZERO PUSH2 0x2E28 JUMPI DUP1 DUP3 SUB DUP1 MLOAD PUSH1 0x1 DUP4 PUSH1 0x20 SUB PUSH2 0x100 EXP SUB NOT AND DUP2 MSTORE PUSH1 0x20 ADD SWAP2 POP JUMPDEST POP SWAP8 POP POP POP POP POP POP POP POP PUSH1 0x0 PUSH1 0x40 MLOAD DUP1 DUP4 SUB DUP2 PUSH1 0x0 DUP8 DUP1 PUSH2 0x2E47 PUSH2 0x6140 JUMP JUMPDEST ISZERO DUP1 ISZERO PUSH2 0x2E5C JUMPI PUSH1 0x0 DUP1 PUSH2 0x2E59 PUSH2 0x607A JUMP JUMPDEST POP POP JUMPDEST POP GAS PUSH2 0x2E66 PUSH2 0x6245 JUMP JUMPDEST POP POP POP POP POP POP ISZERO DUP1 ISZERO PUSH2 0x2E86 JUMPI RETURNDATASIZE PUSH1 0x0 DUP1 RETURNDATACOPY RETURNDATASIZE PUSH1 0x0 PUSH2 0x2E83 PUSH2 0x607A JUMP JUMPDEST POP POP JUMPDEST POP POP POP POP POP POP POP POP POP POP JUMP JUMPDEST PUSH2 0x2E9A PUSH2 0x521D JUMP JUMPDEST PUSH1 0x1 PUSH1 0x1 PUSH1 0xA0 SHL SUB AND GAS PUSH2 0x2EAC PUSH2 0x62FE JUMP JUMPDEST PUSH1 0x1 PUSH1 0x1 PUSH1 0xA0 SHL SUB AND EQ PUSH2 0x2EFD JUMPI PUSH1 0x40 MLOAD PUSH3 0x461BCD PUSH1 0xE5 SHL DUP2 MSTORE PUSH1 0x20 PUSH1 0x4 DUP3 ADD MSTORE PUSH1 0x1E PUSH1 0x24 DUP3 ADD MSTORE PUSH1 0x0 DUP1 MLOAD PUSH1 0x20 PUSH2 0x6453 DUP4 CODECOPY DUP2 MLOAD SWAP2 MSTORE PUSH1 0x44 DUP3 ADD MSTORE PUSH1 0x64 ADD PUSH1 0x40 MLOAD DUP1 SWAP2 SUB SWAP1 PUSH2 0x2EFA PUSH2 0x607A JUMP JUMPDEST POP POP JUMPDEST PUSH1 0x0 PUSH1 0x4 PUSH2 0x2F09 PUSH2 0x60E5 JUMP JUMPDEST SWAP1 PUSH2 0x100 EXP SWAP1 DIV PUSH1 0x1 PUSH1 0x1 PUSH1 0xA0 SHL SUB AND PUSH1 0x1 PUSH1 0x1 PUSH1 0xA0 SHL SUB AND PUSH4 0x907DFF97 DUP4 DUP4 PUSH1 0x40 MLOAD PUSH1 0x20 ADD DUP1 DUP4 DUP2 MSTORE PUSH1 0x20 ADD DUP3 DUP2 MSTORE PUSH1 0x20 ADD SWAP3 POP POP POP PUSH1 0x40 MLOAD PUSH1 0x20 DUP2 DUP4 SUB SUB DUP2 MSTORE SWAP1 PUSH1 0x40 MSTORE PUSH1 0x2 PUSH1 0x40 MLOAD DUP1 PUSH1 0x27 PUSH2 0x6576 DUP3 CODECOPY PUSH1 0x27 ADD SWAP1 POP PUSH1 0x40 MLOAD DUP1 SWAP2 SUB SWAP1 KECCAK256 PUSH2 0x2F72 DUP9 PUSH2 0x56E4 JUMP JUMPDEST PUSH1 0x0 DUP1 PUSH1 0x40 MLOAD DUP8 PUSH4 0xFFFFFFFF AND PUSH1 0xE0 SHL DUP2 MSTORE PUSH1 0x4 ADD DUP1 DUP1 PUSH1 0x20 ADD DUP8 DUP2 MSTORE PUSH1 0x20 ADD DUP7 DUP2 MSTORE PUSH1 0x20 ADD DUP6 DUP2 MSTORE PUSH1 0x20 ADD DUP5 PUSH1 0x0 SHL DUP2 MSTORE PUSH1 0x20 ADD DUP4 PUSH1 0x0 SHL DUP2 MSTORE PUSH1 0x20 ADD DUP3 DUP2 SUB DUP3 MSTORE DUP9 DUP2 DUP2 MLOAD DUP2 MSTORE PUSH1 0x20 ADD SWAP2 POP DUP1 MLOAD SWAP1 PUSH1 0x20 ADD SWAP1 DUP1 DUP4 DUP4 PUSH1 0x0 JUMPDEST DUP4 DUP2 LT ISZERO PUSH2 0x2FE5 JUMPI DUP1 DUP3 ADD MLOAD DUP4 DUP3 ADD MSTORE PUSH1 0x20 ADD PUSH2 0x2FCD JUMP JUMPDEST POP POP POP POP SWAP1 POP SWAP1 DUP2 ADD SWAP1 PUSH1 0x1F AND DUP1 ISZERO PUSH2 0x3012 JUMPI DUP1 DUP3 SUB DUP1 MLOAD PUSH1 0x1 DUP4 PUSH1 0x20 SUB PUSH2 0x100 EXP SUB NOT AND DUP2 MSTORE PUSH1 0x20 ADD SWAP2 POP JUMPDEST POP SWAP8 POP POP POP POP POP POP POP POP PUSH1 0x0 PUSH1 0x40 MLOAD DUP1 DUP4 SUB DUP2 PUSH1 0x0 DUP8 DUP1 PUSH2 0x3031 PUSH2 0x6140 JUMP JUMPDEST ISZERO DUP1 ISZERO PUSH2 0x3046 JUMPI PUSH1 0x0 DUP1 PUSH2 0x3043 PUSH2 0x607A JUMP JUMPDEST POP POP JUMPDEST POP GAS PUSH2 0x3050 PUSH2 0x6245 JUMP JUMPDEST POP POP POP POP POP POP ISZERO DUP1 ISZERO PUSH2 0x1FAF JUMPI RETURNDATASIZE PUSH1 0x0 DUP1 RETURNDATACOPY RETURNDATASIZE PUSH1 0x0 PUSH2 0x306D PUSH2 0x607A JUMP JUMPDEST POP POP POP POP POP POP POP POP POP JUMP JUMPDEST PUSH1 0x0 DUP1 PUSH1 0x7 PUSH2 0x3085 PUSH2 0x60E5 JUMP JUMPDEST SWAP1 PUSH2 0x100 EXP SWAP1 DIV PUSH1 0x1 PUSH1 0x1 PUSH1 0xA0 SHL SUB AND PUSH1 0x1 PUSH1 0x1 PUSH1 0xA0 SHL SUB AND PUSH4 0x70A08231 DUP4 PUSH1 0x40 MLOAD PUSH1 0x1 PUSH1 0x1 PUSH1 0xE0 SHL SUB NOT PUSH1 0xE0 DUP5 SWAP1 SHL AND DUP2 MSTORE PUSH1 0x1 PUSH1 0x1 PUSH1 0xA0 SHL SUB SWAP1 SWAP2 AND PUSH1 0x4 DUP3 ADD MSTORE PUSH1 0x24 ADD PUSH1 0x20 PUSH1 0x40 MLOAD DUP1 DUP4 SUB DUP2 DUP7 DUP1 PUSH2 0xFDE PUSH2 0x6140 JUMP JUMPDEST PUSH1 0x60 PUSH2 0x30E8 PUSH2 0x4D95 JUMP JUMPDEST PUSH1 0x1 PUSH1 0x1 PUSH1 0xA0 SHL SUB AND PUSH4 0x72CB051F PUSH1 0x40 MLOAD DUP2 PUSH4 0xFFFFFFFF AND PUSH1 0xE0 SHL DUP2 MSTORE PUSH1 0x4 ADD PUSH1 0x0 PUSH1 0x40 MLOAD DUP1 DUP4 SUB DUP2 DUP7 DUP1 PUSH2 0x311B PUSH2 0x6140 JUMP JUMPDEST ISZERO DUP1 ISZERO PUSH2 0x3130 JUMPI PUSH1 0x0 DUP1 PUSH2 0x312D PUSH2 0x607A JUMP JUMPDEST POP POP JUMPDEST POP GAS PUSH2 0x313A PUSH2 0x618C JUMP JUMPDEST POP POP POP POP POP ISZERO DUP1 ISZERO PUSH2 0x3159 JUMPI RETURNDATASIZE PUSH1 0x0 DUP1 RETURNDATACOPY RETURNDATASIZE PUSH1 0x0 PUSH2 0x3156 PUSH2 0x607A JUMP JUMPDEST POP POP JUMPDEST POP POP POP POP PUSH1 0x40 MLOAD RETURNDATASIZE PUSH1 0x0 DUP3 RETURNDATACOPY PUSH1 0x1F RETURNDATASIZE SWAP1 DUP2 ADD PUSH1 0x1F NOT AND DUP3 ADD PUSH1 0x40 MSTORE PUSH1 0x20 DUP2 LT ISZERO PUSH2 0x318B JUMPI PUSH1 0x0 DUP1 PUSH2 0x3188 PUSH2 0x607A JUMP JUMPDEST POP POP JUMPDEST DUP2 ADD SWAP1 DUP1 DUP1 MLOAD PUSH1 0x40 MLOAD SWAP4 SWAP3 SWAP2 SWAP1 DUP5 PUSH5 0x100000000 DUP3 GT ISZERO PUSH2 0x31B4 JUMPI PUSH1 0x0 DUP1 PUSH2 0x31B1 PUSH2 0x607A JUMP JUMPDEST POP POP JUMPDEST SWAP1 DUP4 ADD SWAP1 PUSH1 0x20 DUP3 ADD DUP6 DUP2 GT ISZERO PUSH2 0x31D2 JUMPI PUSH1 0x0 DUP1 PUSH2 0x31CF PUSH2 0x607A JUMP JUMPDEST POP POP JUMPDEST DUP3 MLOAD DUP7 PUSH1 0x20 DUP3 MUL DUP4 ADD GT PUSH5 0x100000000 DUP3 GT OR ISZERO PUSH2 0x31F8 JUMPI PUSH1 0x0 DUP1 PUSH2 0x31F5 PUSH2 0x607A JUMP JUMPDEST POP POP JUMPDEST DUP3 MSTORE POP PUSH1 0x20 ADD SWAP1 DUP1 MLOAD SWAP1 PUSH1 0x20 ADD SWAP1 PUSH1 0x20 MUL DUP1 DUP4 DUP4 PUSH1 0x0 JUMPDEST DUP4 DUP2 LT ISZERO PUSH2 0x3227 JUMPI DUP1 DUP3 ADD MLOAD DUP4 DUP3 ADD MSTORE PUSH1 0x20 ADD PUSH2 0x320F JUMP JUMPDEST POP POP POP POP SWAP1 POP ADD PUSH1 0x40 MSTORE POP POP POP SWAP1 POP SWAP1 JUMP JUMPDEST PUSH1 0x0 PUSH1 0x1 PUSH2 0x3245 PUSH2 0x60E5 JUMP JUMPDEST SWAP1 PUSH2 0x100 EXP SWAP1 DIV PUSH1 0x1 PUSH1 0x1 PUSH1 0xA0 SHL SUB AND PUSH1 0x1 PUSH1 0x1 PUSH1 0xA0 SHL SUB AND GAS PUSH2 0x3267 PUSH2 0x62FE JUMP JUMPDEST PUSH1 0x1 PUSH1 0x1 PUSH1 0xA0 SHL SUB AND EQ PUSH2 0x32B5 JUMPI PUSH1 0x40 MLOAD PUSH3 0x461BCD PUSH1 0xE5 SHL DUP2 MSTORE PUSH1 0x4 ADD DUP1 DUP1 PUSH1 0x20 ADD DUP3 DUP2 SUB DUP3 MSTORE PUSH1 0x35 DUP2 MSTORE PUSH1 0x20 ADD DUP1 PUSH2 0x63F6 PUSH1 0x35 SWAP2 CODECOPY PUSH1 0x40 ADD SWAP2 POP POP PUSH1 0x40 MLOAD DUP1 SWAP2 SUB SWAP1 PUSH2 0x32B2 PUSH2 0x607A JUMP JUMPDEST POP POP JUMPDEST PUSH32 0xB532073B38C83145E3E5135377A08BF9AAB55BC0FD7C1179CD4FB995D2A5159C PUSH1 0x0 DUP1 PUSH2 0x32E1 PUSH2 0x60E5 JUMP JUMPDEST SWAP1 PUSH2 0x100 EXP SWAP1 DIV PUSH1 0x1 PUSH1 0x1 PUSH1 0xA0 SHL SUB AND PUSH1 0x1 PUSH1 0x0 SWAP1 PUSH2 0x32FE PUSH2 0x60E5 JUMP JUMPDEST SWAP1 PUSH2 0x100 EXP SWAP1 DIV PUSH1 0x1 PUSH1 0x1 PUSH1 0xA0 SHL SUB AND PUSH1 0x40 MLOAD PUSH1 0x1 PUSH1 0x1 PUSH1 0xA0 SHL SUB SWAP3 DUP4 AND DUP2 MSTORE SWAP2 AND PUSH1 0x20 DUP3 ADD MSTORE PUSH1 0x40 SWAP1 DUP2 ADD SWAP1 MLOAD DUP1 SWAP2 SUB SWAP1 LOG1 PUSH1 0x0 PUSH1 0x1 PUSH2 0x333D PUSH2 0x60E5 JUMP JUMPDEST SWAP1 PUSH2 0x100 EXP SWAP1 DIV PUSH1 0x1 PUSH1 0x1 PUSH1 0xA0 SHL SUB AND PUSH1 0x0 DUP1 PUSH2 0x100 EXP DUP2 PUSH2 0x335D PUSH2 0x60E5 JUMP JUMPDEST DUP2 PUSH1 0x1 PUSH1 0x1 PUSH1 0xA0 SHL SUB MUL NOT AND SWAP1 DUP4 PUSH1 0x1 PUSH1 0x1 PUSH1 0xA0 SHL SUB AND MUL OR SWAP1 PUSH2 0x337F PUSH2 0x6344 JUMP JUMPDEST POP POP POP PUSH1 0x0 PUSH1 0x1 PUSH1 0x0 PUSH2 0x100 EXP DUP2 PUSH2 0x3395 PUSH2 0x60E5 JUMP JUMPDEST DUP2 PUSH1 0x1 PUSH1 0x1 PUSH1 0xA0 SHL SUB MUL NOT AND SWAP1 DUP4 PUSH1 0x1 PUSH1 0x1 PUSH1 0xA0 SHL SUB AND MUL OR SWAP1 PUSH2 0x33B7 PUSH2 0x6344 JUMP JUMPDEST POP POP POP JUMP JUMPDEST PUSH1 0x0 PUSH2 0x33C6 PUSH2 0x4D95 JUMP JUMPDEST PUSH1 0x1 PUSH1 0x1 PUSH1 0xA0 SHL SUB AND PUSH4 0x835E119C DUP4 PUSH1 0x40 MLOAD PUSH1 0x1 PUSH1 0x1 PUSH1 0xE0 SHL SUB NOT PUSH1 0xE0 DUP5 SWAP1 SHL AND DUP2 MSTORE PUSH1 0x4 DUP2 ADD SWAP2 SWAP1 SWAP2 MSTORE PUSH1 0x24 ADD PUSH1 0x20 PUSH1 0x40 MLOAD DUP1 DUP4 SUB DUP2 DUP7 DUP1 PUSH2 0xFDE PUSH2 0x6140 JUMP JUMPDEST PUSH1 0x0 PUSH2 0x3411 PUSH2 0x4D95 JUMP JUMPDEST PUSH1 0x1 PUSH1 0x1 PUSH1 0xA0 SHL SUB AND PUSH4 0x7B1001B7 DUP4 PUSH1 0x0 PUSH1 0x40 MLOAD PUSH1 0x1 PUSH1 0x1 PUSH1 0xE0 SHL SUB NOT PUSH1 0xE0 DUP6 SWAP1 SHL AND DUP2 MSTORE PUSH1 0x4 DUP2 ADD SWAP3 SWAP1 SWAP3 MSTORE ISZERO ISZERO PUSH1 0x24 DUP3 ADD MSTORE PUSH1 0x44 ADD PUSH1 0x20 PUSH1 0x40 MLOAD DUP1 DUP4 SUB DUP2 DUP7 DUP1 PUSH2 0xFDE PUSH2 0x6140 JUMP JUMPDEST PUSH2 0x3463 PUSH2 0x4F94 JUMP JUMPDEST PUSH1 0x1 PUSH1 0x1 PUSH1 0xA0 SHL SUB AND PUSH4 0x7C312541 PUSH1 0x40 MLOAD DUP2 PUSH4 0xFFFFFFFF AND PUSH1 0xE0 SHL DUP2 MSTORE PUSH1 0x4 ADD PUSH1 0x0 PUSH1 0x40 MLOAD DUP1 DUP4 SUB DUP2 DUP7 DUP1 PUSH2 0x3496 PUSH2 0x6140 JUMP JUMPDEST ISZERO DUP1 ISZERO PUSH2 0x34AB JUMPI PUSH1 0x0 DUP1 PUSH2 0x34A8 PUSH2 0x607A JUMP JUMPDEST POP POP JUMPDEST POP GAS PUSH2 0x34B5 PUSH2 0x618C JUMP JUMPDEST POP POP POP POP POP ISZERO DUP1 ISZERO PUSH2 0x34D4 JUMPI RETURNDATASIZE PUSH1 0x0 DUP1 RETURNDATACOPY RETURNDATASIZE PUSH1 0x0 PUSH2 0x34D1 PUSH2 0x607A JUMP JUMPDEST POP POP JUMPDEST POP POP POP POP PUSH2 0x34E0 PUSH2 0x4DDB JUMP JUMPDEST PUSH2 0x34E8 PUSH2 0x4D95 JUMP JUMPDEST PUSH1 0x1 PUSH1 0x1 PUSH1 0xA0 SHL SUB AND PUSH4 0x42E0688 PUSH1 0x0 PUSH1 0x6 PUSH2 0x1F21 PUSH2 0x60E5 JUMP JUMPDEST PUSH1 0x0 DUP1 PUSH2 0xF78 PUSH2 0x60E5 JUMP JUMPDEST PUSH1 0x0 DUP6 DUP5 PUSH2 0x3519 PUSH2 0x4F94 JUMP JUMPDEST PUSH1 0x1 PUSH1 0x1 PUSH1 0xA0 SHL SUB AND PUSH4 0x7118D431 PUSH1 0x40 MLOAD DUP2 PUSH4 0xFFFFFFFF AND PUSH1 0xE0 SHL DUP2 MSTORE PUSH1 0x4 ADD PUSH1 0x0 PUSH1 0x40 MLOAD DUP1 DUP4 SUB DUP2 DUP7 DUP1 PUSH2 0x354C PUSH2 0x6140 JUMP JUMPDEST ISZERO DUP1 ISZERO PUSH2 0x3561 JUMPI PUSH1 0x0 DUP1 PUSH2 0x355E PUSH2 0x607A JUMP JUMPDEST POP POP JUMPDEST POP GAS PUSH2 0x356B PUSH2 0x618C JUMP JUMPDEST POP POP POP POP POP ISZERO DUP1 ISZERO PUSH2 0x358A JUMPI RETURNDATASIZE PUSH1 0x0 DUP1 RETURNDATACOPY RETURNDATASIZE PUSH1 0x0 PUSH2 0x3587 PUSH2 0x607A JUMP JUMPDEST POP POP JUMPDEST POP POP POP POP PUSH2 0x3596 PUSH2 0x4F94 JUMP JUMPDEST PUSH1 0x1 PUSH1 0x1 PUSH1 0xA0 SHL SUB AND PUSH4 0x6132EBA4 DUP4 DUP4 PUSH1 0x40 MLOAD PUSH1 0x1 PUSH1 0x1 PUSH1 0xE0 SHL SUB NOT PUSH1 0xE0 DUP6 SWAP1 SHL AND DUP2 MSTORE PUSH1 0x4 DUP2 ADD SWAP3 SWAP1 SWAP3 MSTORE PUSH1 0x24 DUP3 ADD MSTORE PUSH1 0x44 ADD PUSH1 0x0 PUSH1 0x40 MLOAD DUP1 DUP4 SUB DUP2 DUP7 DUP1 PUSH2 0x35DD PUSH2 0x6140 JUMP JUMPDEST ISZERO DUP1 ISZERO PUSH2 0x35F2 JUMPI PUSH1 0x0 DUP1 PUSH2 0x35EF PUSH2 0x607A JUMP JUMPDEST POP POP JUMPDEST POP GAS PUSH2 0x35FC PUSH2 0x618C JUMP JUMPDEST POP POP POP POP POP ISZERO DUP1 ISZERO PUSH2 0x361B JUMPI RETURNDATASIZE PUSH1 0x0 DUP1 RETURNDATACOPY RETURNDATASIZE PUSH1 0x0 PUSH2 0x3618 PUSH2 0x607A JUMP JUMPDEST POP POP JUMPDEST POP POP POP POP PUSH2 0x3627 PUSH2 0x4DDB JUMP JUMPDEST PUSH2 0x362F PUSH2 0x521D JUMP JUMPDEST PUSH1 0x1 PUSH1 0x1 PUSH1 0xA0 SHL SUB AND PUSH4 0xDFFFCA76 DUP11 PUSH1 0x0 PUSH1 0x6 PUSH2 0x364A PUSH2 0x60E5 JUMP JUMPDEST SWAP1 PUSH2 0x100 EXP SWAP1 DIV PUSH1 0x1 PUSH1 0x1 PUSH1 0xA0 SHL SUB AND DUP12 DUP12 DUP12 DUP12 DUP12 PUSH1 0x40 MLOAD PUSH1 0x1 PUSH1 0x1 PUSH1 0xE0 SHL SUB NOT PUSH1 0xE0 DUP11 SWAP1 SHL AND DUP2 MSTORE PUSH1 0x1 PUSH1 0x1 PUSH1 0xA0 SHL SUB SWAP8 DUP9 AND PUSH1 0x4 DUP3 ADD MSTORE SWAP6 DUP8 AND PUSH1 0x24 DUP8 ADD MSTORE PUSH1 0x44 DUP7 ADD SWAP5 SWAP1 SWAP5 MSTORE PUSH1 0x64 DUP6 ADD SWAP3 SWAP1 SWAP3 MSTORE PUSH1 0x84 DUP5 ADD MSTORE SWAP1 SWAP3 AND PUSH1 0xA4 DUP3 ADD MSTORE PUSH1 0xC4 DUP2 ADD SWAP2 SWAP1 SWAP2 MSTORE PUSH1 0xE4 ADD PUSH1 0x20 PUSH1 0x40 MLOAD DUP1 DUP4 SUB DUP2 PUSH1 0x0 DUP8 DUP1 PUSH2 0x36C8 PUSH2 0x6140 JUMP JUMPDEST ISZERO DUP1 ISZERO PUSH2 0x36DD JUMPI PUSH1 0x0 DUP1 PUSH2 0x36DA PUSH2 0x607A JUMP JUMPDEST POP POP JUMPDEST POP GAS PUSH2 0x36E7 PUSH2 0x6245 JUMP JUMPDEST POP POP POP POP POP POP ISZERO DUP1 ISZERO PUSH2 0x3707 JUMPI RETURNDATASIZE PUSH1 0x0 DUP1 RETURNDATACOPY RETURNDATASIZE PUSH1 0x0 PUSH2 0x3704 PUSH2 0x607A JUMP JUMPDEST POP POP JUMPDEST POP POP POP POP PUSH1 0x40 MLOAD RETURNDATASIZE PUSH1 0x20 DUP2 LT ISZERO PUSH2 0x3726 JUMPI PUSH1 0x0 DUP1 PUSH2 0x3723 PUSH2 0x607A JUMP JUMPDEST POP POP JUMPDEST DUP2 ADD SWAP1 DUP1 DUP1 MLOAD SWAP13 SWAP12 POP POP POP POP POP POP POP POP POP POP POP POP JUMP JUMPDEST PUSH4 0x1CD554D1 PUSH1 0xE2 SHL DUP2 JUMP JUMPDEST PUSH1 0x9 DUP1 PUSH2 0x3752 PUSH2 0x60E5 JUMP JUMPDEST PUSH1 0x1 DUP2 PUSH1 0x1 AND ISZERO PUSH2 0x100 MUL SUB AND PUSH1 0x2 SWAP1 DIV DUP1 PUSH1 0x1F ADD PUSH1 0x20 DUP1 SWAP2 DIV MUL PUSH1 0x20 ADD PUSH1 0x40 MLOAD SWAP1 DUP2 ADD PUSH1 0x40 MSTORE DUP2 DUP2 MSTORE SWAP2 SWAP1 PUSH1 0x20 DUP4 ADD DUP3 DUP1 PUSH2 0x378C PUSH2 0x60E5 JUMP JUMPDEST PUSH1 0x1 DUP2 PUSH1 0x1 AND ISZERO PUSH2 0x100 MUL SUB AND PUSH1 0x2 SWAP1 DIV DUP1 ISZERO PUSH2 0x10FD JUMPI DUP1 PUSH1 0x1F LT PUSH2 0x37B8 JUMPI PUSH2 0x100 DUP1 DUP4 PUSH2 0x10BD PUSH2 0x60E5 JUMP JUMPDEST DUP3 ADD SWAP2 SWAP1 PUSH1 0x0 MSTORE PUSH1 0x20 PUSH1 0x0 KECCAK256 SWAP1 JUMPDEST DUP2 PUSH2 0x37CF PUSH2 0x60E5 JUMP JUMPDEST DUP2 MSTORE SWAP1 PUSH1 0x1 ADD SWAP1 PUSH1 0x20 ADD DUP1 DUP4 GT PUSH2 0x37C6 JUMPI POP DUP6 SWAP4 POP POP POP POP JUMP JUMPDEST PUSH2 0x37F1 PUSH2 0x51A5 JUMP JUMPDEST DUP1 PUSH1 0x4 PUSH1 0x1 DUP2 PUSH2 0x37FF PUSH2 0x60E5 JUMP JUMPDEST DUP2 PUSH1 0x1 PUSH1 0x1 PUSH1 0xA0 SHL SUB MUL NOT AND SWAP1 DUP4 PUSH1 0x1 PUSH1 0x1 PUSH1 0xA0 SHL SUB AND MUL OR SWAP1 PUSH2 0x3821 PUSH2 0x6344 JUMP JUMPDEST POP POP POP PUSH32 0xFC80377CA9C49CC11AE6982F390A42DB976D5530AF7C43889264B13FBBD7C57E DUP2 PUSH1 0x40 MLOAD PUSH1 0x1 PUSH1 0x1 PUSH1 0xA0 SHL SUB SWAP1 SWAP2 AND DUP2 MSTORE PUSH1 0x20 ADD PUSH1 0x40 MLOAD DUP1 SWAP2 SUB SWAP1 LOG1 POP JUMP JUMPDEST PUSH2 0x386C PUSH2 0x4F94 JUMP JUMPDEST PUSH1 0x1 PUSH1 0x1 PUSH1 0xA0 SHL SUB AND PUSH4 0x7C312541 PUSH1 0x40 MLOAD DUP2 PUSH4 0xFFFFFFFF AND PUSH1 0xE0 SHL DUP2 MSTORE PUSH1 0x4 ADD PUSH1 0x0 PUSH1 0x40 MLOAD DUP1 DUP4 SUB DUP2 DUP7 DUP1 PUSH2 0x389F PUSH2 0x6140 JUMP JUMPDEST ISZERO DUP1 ISZERO PUSH2 0x38B4 JUMPI PUSH1 0x0 DUP1 PUSH2 0x38B1 PUSH2 0x607A JUMP JUMPDEST POP POP JUMPDEST POP GAS PUSH2 0x38BE PUSH2 0x618C JUMP JUMPDEST POP POP POP POP POP ISZERO DUP1 ISZERO PUSH2 0x38DD JUMPI RETURNDATASIZE PUSH1 0x0 DUP1 RETURNDATACOPY RETURNDATASIZE PUSH1 0x0 PUSH2 0x38DA PUSH2 0x607A JUMP JUMPDEST POP POP JUMPDEST POP POP POP POP PUSH2 0x38E9 PUSH2 0x4DDB JUMP JUMPDEST PUSH2 0x38F1 PUSH2 0x4D95 JUMP JUMPDEST PUSH1 0x1 PUSH1 0x1 PUSH1 0xA0 SHL SUB AND PUSH4 0x497D704A PUSH1 0x0 PUSH1 0x6 PUSH2 0x390B PUSH2 0x60E5 JUMP JUMPDEST SWAP1 PUSH2 0x100 EXP SWAP1 DIV PUSH1 0x1 PUSH1 0x1 PUSH1 0xA0 SHL SUB AND PUSH1 0x40 MLOAD PUSH1 0x1 PUSH1 0x1 PUSH1 0xE0 SHL SUB NOT PUSH1 0xE0 DUP5 SWAP1 SHL AND DUP2 MSTORE PUSH1 0x1 PUSH1 0x1 PUSH1 0xA0 SHL SUB SWAP1 SWAP2 AND PUSH1 0x4 DUP3 ADD MSTORE PUSH1 0x24 ADD PUSH1 0x0 PUSH1 0x40 MLOAD DUP1 DUP4 SUB DUP2 PUSH1 0x0 DUP8 DUP1 PUSH2 0x3957 PUSH2 0x6140 JUMP JUMPDEST ISZERO DUP1 ISZERO PUSH2 0x396C JUMPI PUSH1 0x0 DUP1 PUSH2 0x3969 PUSH2 0x607A JUMP JUMPDEST POP POP JUMPDEST POP GAS PUSH2 0x3976 PUSH2 0x6245 JUMP JUMPDEST POP POP POP POP POP POP ISZERO DUP1 ISZERO PUSH2 0x1AD4 JUMPI RETURNDATASIZE PUSH1 0x0 DUP1 RETURNDATACOPY RETURNDATASIZE PUSH1 0x0 PUSH2 0x3993 PUSH2 0x607A JUMP JUMPDEST POP POP POP POP POP POP JUMPDEST JUMP JUMPDEST PUSH1 0x0 DUP1 PUSH1 0x0 PUSH2 0x39A9 PUSH2 0x4DDB JUMP JUMPDEST PUSH2 0x39B1 PUSH2 0x521D JUMP JUMPDEST PUSH1 0x1 PUSH1 0x1 PUSH1 0xA0 SHL SUB AND PUSH4 0x1B16802C PUSH1 0x0 PUSH1 0x6 PUSH2 0x39CB PUSH2 0x60E5 JUMP JUMPDEST SWAP1 PUSH2 0x100 EXP SWAP1 DIV PUSH1 0x1 PUSH1 0x1 PUSH1 0xA0 SHL SUB AND DUP7 PUSH1 0x40 MLOAD PUSH1 0x1 PUSH1 0x1 PUSH1 0xE0 SHL SUB NOT PUSH1 0xE0 DUP6 SWAP1 SHL AND DUP2 MSTORE PUSH1 0x1 PUSH1 0x1 PUSH1 0xA0 SHL SUB SWAP1 SWAP3 AND PUSH1 0x4 DUP4 ADD MSTORE PUSH1 0x24 DUP3 ADD MSTORE PUSH1 0x44 ADD PUSH1 0x60 PUSH1 0x40 MLOAD DUP1 DUP4 SUB DUP2 PUSH1 0x0 DUP8 DUP1 PUSH2 0x3A1D PUSH2 0x6140 JUMP JUMPDEST ISZERO DUP1 ISZERO PUSH2 0x3A32 JUMPI PUSH1 0x0 DUP1 PUSH2 0x3A2F PUSH2 0x607A JUMP JUMPDEST POP POP JUMPDEST POP GAS PUSH2 0x3A3C PUSH2 0x6245 JUMP JUMPDEST POP POP POP POP POP POP ISZERO DUP1 ISZERO PUSH2 0x1295 JUMPI RETURNDATASIZE PUSH1 0x0 DUP1 RETURNDATACOPY RETURNDATASIZE PUSH1 0x0 PUSH2 0x1292 PUSH2 0x607A JUMP JUMPDEST PUSH2 0x3A61 PUSH2 0x51A5 JUMP JUMPDEST PUSH1 0x0 PUSH1 0x3 PUSH2 0x3A6D PUSH2 0x60E5 JUMP JUMPDEST SWAP1 PUSH2 0x100 EXP SWAP1 DIV PUSH1 0xFF AND PUSH2 0x3AD0 JUMPI PUSH1 0x40 MLOAD PUSH3 0x461BCD PUSH1 0xE5 SHL DUP2 MSTORE PUSH1 0x20 PUSH1 0x4 DUP3 ADD MSTORE PUSH1 0x1F PUSH1 0x24 DUP3 ADD MSTORE PUSH32 0x53656C66204465737472756374206E6F742079657420696E6974696174656400 PUSH1 0x44 DUP3 ADD MSTORE PUSH1 0x64 ADD PUSH1 0x40 MLOAD DUP1 SWAP2 SUB SWAP1 PUSH2 0x3ACD PUSH2 0x607A JUMP JUMPDEST POP POP JUMPDEST GAS PUSH2 0x3AD9 PUSH2 0x6392 JUMP JUMPDEST PUSH3 0x24EA00 PUSH1 0x2 PUSH2 0x3AE7 PUSH2 0x60E5 JUMP JUMPDEST ADD LT PUSH2 0x3B42 JUMPI PUSH1 0x40 MLOAD PUSH3 0x461BCD PUSH1 0xE5 SHL DUP2 MSTORE PUSH1 0x20 PUSH1 0x4 DUP3 ADD MSTORE PUSH1 0x1B PUSH1 0x24 DUP3 ADD MSTORE PUSH32 0x53656C662064657374727563742064656C6179206E6F74206D65740000000000 PUSH1 0x44 DUP3 ADD MSTORE PUSH1 0x64 ADD PUSH1 0x40 MLOAD DUP1 SWAP2 SUB SWAP1 PUSH2 0x3B3F PUSH2 0x607A JUMP JUMPDEST POP POP JUMPDEST PUSH32 0x8A09E1677CED846CB537DC2B172043BD05A1A81AD7E0033A7EF8BA762DF990B7 PUSH1 0x1 PUSH1 0x3 PUSH2 0x3B6F PUSH2 0x60E5 JUMP JUMPDEST SWAP1 PUSH2 0x100 EXP SWAP1 DIV PUSH1 0x1 PUSH1 0x1 PUSH1 0xA0 SHL SUB AND PUSH1 0x40 MLOAD PUSH1 0x1 PUSH1 0x1 PUSH1 0xA0 SHL SUB SWAP1 SWAP2 AND DUP2 MSTORE PUSH1 0x20 ADD PUSH1 0x40 MLOAD DUP1 SWAP2 SUB SWAP1 LOG1 JUMP JUMPDEST PUSH1 0x0 PUSH1 0x5 PUSH2 0xF78 PUSH2 0x60E5 JUMP JUMPDEST PUSH2 0x3BB0 PUSH2 0x56F0 JUMP JUMPDEST DUP1 PUSH1 0x7 PUSH1 0x1 DUP2 PUSH2 0x3BBE PUSH2 0x60E5 JUMP JUMPDEST DUP2 PUSH1 0x1 PUSH1 0x1 PUSH1 0xA0 SHL SUB MUL NOT AND SWAP1 DUP4 PUSH1 0x1 PUSH1 0x1 PUSH1 0xA0 SHL SUB AND MUL OR SWAP1 PUSH2 0x3BE0 PUSH2 0x6344 JUMP JUMPDEST POP POP POP PUSH2 0x1FB7 DUP2 PUSH2 0x587B JUMP JUMPDEST PUSH1 0x0 PUSH2 0x3BF6 PUSH2 0x4D95 JUMP JUMPDEST PUSH1 0x1 PUSH1 0x1 PUSH1 0xA0 SHL SUB AND PUSH4 0xA311C7C2 DUP4 PUSH1 0x40 MLOAD PUSH1 0x1 PUSH1 0x1 PUSH1 0xE0 SHL SUB NOT PUSH1 0xE0 DUP5 SWAP1 SHL AND DUP2 MSTORE PUSH1 0x1 PUSH1 0x1 PUSH1 0xA0 SHL SUB SWAP1 SWAP2 AND PUSH1 0x4 DUP3 ADD MSTORE PUSH1 0x24 ADD PUSH1 0x20 PUSH1 0x40 MLOAD DUP1 DUP4 SUB DUP2 DUP7 DUP1 PUSH2 0xFDE PUSH2 0x6140 JUMP JUMPDEST PUSH3 0x24EA00 DUP2 JUMP JUMPDEST PUSH1 0x0 PUSH2 0x3C50 PUSH2 0x4D95 JUMP JUMPDEST PUSH1 0x1 PUSH1 0x1 PUSH1 0xA0 SHL SUB AND PUSH4 0xA5FDC5DE DUP4 PUSH1 0x40 MLOAD PUSH1 0x1 PUSH1 0x1 PUSH1 0xE0 SHL SUB NOT PUSH1 0xE0 DUP5 SWAP1 SHL AND DUP2 MSTORE PUSH1 0x1 PUSH1 0x1 PUSH1 0xA0 SHL SUB SWAP1 SWAP2 AND PUSH1 0x4 DUP3 ADD MSTORE PUSH1 0x24 ADD PUSH1 0x20 PUSH1 0x40 MLOAD DUP1 DUP4 SUB DUP2 DUP7 DUP1 PUSH2 0xFDE PUSH2 0x6140 JUMP JUMPDEST PUSH1 0x0 PUSH2 0x3CA3 PUSH2 0x4DDB JUMP JUMPDEST PUSH2 0x3CAB PUSH2 0x4F94 JUMP JUMPDEST PUSH1 0x1 PUSH1 0x1 PUSH1 0xA0 SHL SUB AND PUSH4 0x86DABD1 PUSH1 0x40 MLOAD DUP2 PUSH4 0xFFFFFFFF AND PUSH1 0xE0 SHL DUP2 MSTORE PUSH1 0x4 ADD PUSH1 0x0 PUSH1 0x40 MLOAD DUP1 DUP4 SUB DUP2 DUP7 DUP1 PUSH2 0x3CDE PUSH2 0x6140 JUMP JUMPDEST ISZERO DUP1 ISZERO PUSH2 0x3CF3 JUMPI PUSH1 0x0 DUP1 PUSH2 0x3CF0 PUSH2 0x607A JUMP JUMPDEST POP POP JUMPDEST POP GAS PUSH2 0x3CFD PUSH2 0x618C JUMP JUMPDEST POP POP POP POP POP ISZERO DUP1 ISZERO PUSH2 0x3D1C JUMPI RETURNDATASIZE PUSH1 0x0 DUP1 RETURNDATACOPY RETURNDATASIZE PUSH1 0x0 PUSH2 0x3D19 PUSH2 0x607A JUMP JUMPDEST POP POP JUMPDEST POP POP POP POP PUSH2 0x3D46 PUSH1 0x6 PUSH1 0x0 SWAP1 PUSH2 0x3D30 PUSH2 0x60E5 JUMP JUMPDEST SWAP1 PUSH2 0x100 EXP SWAP1 DIV PUSH1 0x1 PUSH1 0x1 PUSH1 0xA0 SHL SUB AND DUP4 PUSH2 0x5268 JUMP JUMPDEST POP PUSH2 0x11F7 PUSH1 0x0 PUSH1 0x6 PUSH2 0x3D56 PUSH2 0x60E5 JUMP JUMPDEST SWAP1 PUSH2 0x100 EXP SWAP1 DIV PUSH1 0x1 PUSH1 0x1 PUSH1 0xA0 SHL SUB AND DUP5 DUP5 PUSH2 0x59C3 JUMP JUMPDEST PUSH2 0x3D75 PUSH2 0x63D8 JUMP JUMPDEST PUSH1 0x0 JUMPDEST PUSH1 0xD DUP1 PUSH2 0x3D83 PUSH2 0x60E5 JUMP JUMPDEST SWAP1 POP DUP2 LT ISZERO PUSH2 0x3DCB JUMPI PUSH1 0xD DUP2 DUP2 PUSH2 0x3D98 PUSH2 0x60E5 JUMP JUMPDEST DUP2 LT PUSH2 0x3DA0 JUMPI INVALID JUMPDEST SWAP1 PUSH1 0x0 MSTORE PUSH1 0x20 PUSH1 0x0 KECCAK256 ADD PUSH2 0x3DB2 PUSH2 0x60E5 JUMP JUMPDEST DUP3 DUP3 PUSH1 0x18 DUP2 LT PUSH2 0x3DBE JUMPI INVALID JUMPDEST PUSH1 0x20 MUL ADD MSTORE PUSH1 0x1 ADD PUSH2 0x3D78 JUMP JUMPDEST POP SWAP1 JUMP JUMPDEST PUSH2 0x3DD7 PUSH2 0x521D JUMP JUMPDEST PUSH1 0x1 PUSH1 0x1 PUSH1 0xA0 SHL SUB AND GAS PUSH2 0x3DE9 PUSH2 0x62FE JUMP JUMPDEST PUSH1 0x1 PUSH1 0x1 PUSH1 0xA0 SHL SUB AND EQ PUSH2 0x3E3A JUMPI PUSH1 0x40 MLOAD PUSH3 0x461BCD PUSH1 0xE5 SHL DUP2 MSTORE PUSH1 0x20 PUSH1 0x4 DUP3 ADD MSTORE PUSH1 0x1E PUSH1 0x24 DUP3 ADD MSTORE PUSH1 0x0 DUP1 MLOAD PUSH1 0x20 PUSH2 0x6453 DUP4 CODECOPY DUP2 MLOAD SWAP2 MSTORE PUSH1 0x44 DUP3 ADD MSTORE PUSH1 0x64 ADD PUSH1 0x40 MLOAD DUP1 SWAP2 SUB SWAP1 PUSH2 0x3E37 PUSH2 0x607A JUMP JUMPDEST POP POP JUMPDEST PUSH1 0x0 PUSH1 0x4 PUSH2 0x3E46 PUSH2 0x60E5 JUMP JUMPDEST SWAP1 PUSH2 0x100 EXP SWAP1 DIV PUSH1 0x1 PUSH1 0x1 PUSH1 0xA0 SHL SUB AND PUSH1 0x1 PUSH1 0x1 PUSH1 0xA0 SHL SUB AND PUSH4 0x907DFF97 DUP4 DUP4 PUSH1 0x40 MLOAD PUSH1 0x20 ADD DUP1 DUP4 DUP2 MSTORE PUSH1 0x20 ADD DUP3 DUP2 MSTORE PUSH1 0x20 ADD SWAP3 POP POP POP PUSH1 0x40 MLOAD PUSH1 0x20 DUP2 DUP4 SUB SUB DUP2 MSTORE SWAP1 PUSH1 0x40 MSTORE PUSH1 0x2 PUSH1 0x40 MLOAD DUP1 PUSH1 0x28 PUSH2 0x642B DUP3 CODECOPY PUSH1 0x28 ADD SWAP1 POP PUSH1 0x40 MLOAD DUP1 SWAP2 SUB SWAP1 KECCAK256 PUSH2 0x2F72 DUP9 PUSH2 0x56E4 JUMP JUMPDEST PUSH2 0x3EB7 PUSH2 0x4F94 JUMP JUMPDEST PUSH1 0x1 PUSH1 0x1 PUSH1 0xA0 SHL SUB AND PUSH4 0x7C312541 PUSH1 0x40 MLOAD DUP2 PUSH4 0xFFFFFFFF AND PUSH1 0xE0 SHL DUP2 MSTORE PUSH1 0x4 ADD PUSH1 0x0 PUSH1 0x40 MLOAD DUP1 DUP4 SUB DUP2 DUP7 DUP1 PUSH2 0x3EEA PUSH2 0x6140 JUMP JUMPDEST ISZERO DUP1 ISZERO PUSH2 0x3EFF JUMPI PUSH1 0x0 DUP1 PUSH2 0x3EFC PUSH2 0x607A JUMP JUMPDEST POP POP JUMPDEST POP GAS PUSH2 0x3F09 PUSH2 0x618C JUMP JUMPDEST POP POP POP POP POP ISZERO DUP1 ISZERO PUSH2 0x3F28 JUMPI RETURNDATASIZE PUSH1 0x0 DUP1 RETURNDATACOPY RETURNDATASIZE PUSH1 0x0 PUSH2 0x3F25 PUSH2 0x607A JUMP JUMPDEST POP POP JUMPDEST POP POP POP POP PUSH2 0x3F34 PUSH2 0x4DDB JUMP JUMPDEST PUSH2 0x3F3C PUSH2 0x4D95 JUMP JUMPDEST PUSH1 0x1 PUSH1 0x1 PUSH1 0xA0 SHL SUB AND PUSH4 0xC8977132 PUSH1 0x0 PUSH1 0x6 PUSH2 0x390B PUSH2 0x60E5 JUMP JUMPDEST PUSH1 0x0 PUSH1 0x3 PUSH2 0x232F PUSH2 0x60E5 JUMP JUMPDEST PUSH2 0x3F6A PUSH2 0x59D0 JUMP JUMPDEST DUP1 PUSH1 0x6 PUSH1 0x1 DUP2 PUSH2 0x1AB2 PUSH2 0x60E5 JUMP JUMPDEST PUSH2 0x3F80 PUSH2 0x51A5 JUMP JUMPDEST GAS PUSH2 0x3F89 PUSH2 0x6392 JUMP JUMPDEST DUP1 PUSH1 0x2 PUSH2 0x3F94 PUSH2 0x6344 JUMP JUMPDEST POP POP POP PUSH1 0x1 PUSH1 0x3 PUSH1 0x0 PUSH2 0x100 EXP DUP2 PUSH2 0x3FAA PUSH2 0x60E5 JUMP JUMPDEST DUP2 PUSH1 0xFF MUL NOT AND SWAP1 DUP4 ISZERO ISZERO MUL OR SWAP1 PUSH2 0x3FBF PUSH2 0x6344 JUMP JUMPDEST POP POP POP PUSH32 0xCBD94CA75B8DC45C9D80C77E851670E78843C0D75180CB81DB3E2158228FA9A6 PUSH3 0x24EA00 PUSH1 0x40 MLOAD SWAP1 DUP2 MSTORE PUSH1 0x20 ADD PUSH1 0x40 MLOAD DUP1 SWAP2 SUB SWAP1 LOG1 JUMP JUMPDEST PUSH2 0x4002 PUSH2 0x4F94 JUMP JUMPDEST PUSH1 0x1 PUSH1 0x1 PUSH1 0xA0 SHL SUB AND PUSH4 0x7C312541 PUSH1 0x40 MLOAD DUP2 PUSH4 0xFFFFFFFF AND PUSH1 0xE0 SHL DUP2 MSTORE PUSH1 0x4 ADD PUSH1 0x0 PUSH1 0x40 MLOAD DUP1 DUP4 SUB DUP2 DUP7 DUP1 PUSH2 0x4035 PUSH2 0x6140 JUMP JUMPDEST ISZERO DUP1 ISZERO PUSH2 0x404A JUMPI PUSH1 0x0 DUP1 PUSH2 0x4047 PUSH2 0x607A JUMP JUMPDEST POP POP JUMPDEST POP GAS PUSH2 0x4054 PUSH2 0x618C JUMP JUMPDEST POP POP POP POP POP ISZERO DUP1 ISZERO PUSH2 0x4073 JUMPI RETURNDATASIZE PUSH1 0x0 DUP1 RETURNDATACOPY RETURNDATASIZE PUSH1 0x0 PUSH2 0x4070 PUSH2 0x607A JUMP JUMPDEST POP POP JUMPDEST POP POP POP POP PUSH2 0x407F PUSH2 0x4DDB JUMP JUMPDEST PUSH2 0x4087 PUSH2 0x4D95 JUMP JUMPDEST PUSH1 0x1 PUSH1 0x1 PUSH1 0xA0 SHL SUB AND PUSH4 0x9A5154B4 DUP4 PUSH1 0x0 PUSH1 0x6 PUSH2 0x40A2 PUSH2 0x60E5 JUMP JUMPDEST SWAP1 PUSH2 0x100 EXP SWAP1 DIV PUSH1 0x1 PUSH1 0x1 PUSH1 0xA0 SHL SUB AND DUP5 PUSH1 0x40 MLOAD PUSH1 0x1 PUSH1 0x1 PUSH1 0xE0 SHL SUB NOT PUSH1 0xE0 DUP7 SWAP1 SHL AND DUP2 MSTORE PUSH1 0x1 PUSH1 0x1 PUSH1 0xA0 SHL SUB SWAP4 DUP5 AND PUSH1 0x4 DUP3 ADD MSTORE SWAP2 SWAP1 SWAP3 AND PUSH1 0x24 DUP3 ADD MSTORE PUSH1 0x44 DUP2 ADD SWAP2 SWAP1 SWAP2 MSTORE PUSH1 0x64 ADD PUSH1 0x0 PUSH1 0x40 MLOAD DUP1 DUP4 SUB DUP2 PUSH1 0x0 DUP8 DUP1 PUSH2 0x4100 PUSH2 0x6140 JUMP JUMPDEST ISZERO DUP1 ISZERO PUSH2 0x4115 JUMPI PUSH1 0x0 DUP1 PUSH2 0x4112 PUSH2 0x607A JUMP JUMPDEST POP POP JUMPDEST POP GAS PUSH2 0x411F PUSH2 0x6245 JUMP JUMPDEST POP POP POP POP POP POP ISZERO DUP1 ISZERO PUSH2 0x3993 JUMPI RETURNDATASIZE PUSH1 0x0 DUP1 RETURNDATACOPY RETURNDATASIZE PUSH1 0x0 PUSH2 0x413C PUSH2 0x607A JUMP JUMPDEST POP POP POP POP POP POP POP POP JUMP JUMPDEST PUSH1 0x1 PUSH1 0x3 PUSH2 0xF78 PUSH2 0x60E5 JUMP JUMPDEST PUSH1 0xD DUP2 DUP2 PUSH2 0x415E PUSH2 0x60E5 JUMP JUMPDEST DUP2 LT PUSH2 0x4166 JUMPI INVALID JUMPDEST SWAP1 PUSH1 0x0 MSTORE PUSH1 0x20 PUSH1 0x0 KECCAK256 ADD SWAP1 POP PUSH2 0x1BB1 PUSH2 0x60E5 JUMP JUMPDEST PUSH1 0x0 DUP4 DUP3 PUSH2 0x4186 PUSH2 0x4F94 JUMP JUMPDEST PUSH1 0x1 PUSH1 0x1 PUSH1 0xA0 SHL SUB AND PUSH4 0x7118D431 PUSH1 0x40 MLOAD DUP2 PUSH4 0xFFFFFFFF AND PUSH1 0xE0 SHL DUP2 MSTORE PUSH1 0x4 ADD PUSH1 0x0 PUSH1 0x40 MLOAD DUP1 DUP4 SUB DUP2 DUP7 DUP1 PUSH2 0x41B9 PUSH2 0x6140 JUMP JUMPDEST ISZERO DUP1 ISZERO PUSH2 0x41CE JUMPI PUSH1 0x0 DUP1 PUSH2 0x41CB PUSH2 0x607A JUMP JUMPDEST POP POP JUMPDEST POP GAS PUSH2 0x41D8 PUSH2 0x618C JUMP JUMPDEST POP POP POP POP POP ISZERO DUP1 ISZERO PUSH2 0x41F7 JUMPI RETURNDATASIZE PUSH1 0x0 DUP1 RETURNDATACOPY RETURNDATASIZE PUSH1 0x0 PUSH2 0x41F4 PUSH2 0x607A JUMP JUMPDEST POP POP JUMPDEST POP POP POP POP PUSH2 0x4203 PUSH2 0x4F94 JUMP JUMPDEST PUSH1 0x1 PUSH1 0x1 PUSH1 0xA0 SHL SUB AND PUSH4 0x6132EBA4 DUP4 DUP4 PUSH1 0x40 MLOAD PUSH1 0x1 PUSH1 0x1 PUSH1 0xE0 SHL SUB NOT PUSH1 0xE0 DUP6 SWAP1 SHL AND DUP2 MSTORE PUSH1 0x4 DUP2 ADD SWAP3 SWAP1 SWAP3 MSTORE PUSH1 0x24 DUP3 ADD MSTORE PUSH1 0x44 ADD PUSH1 0x0 PUSH1 0x40 MLOAD DUP1 DUP4 SUB DUP2 DUP7 DUP1 PUSH2 0x424A PUSH2 0x6140 JUMP JUMPDEST ISZERO DUP1 ISZERO PUSH2 0x425F JUMPI PUSH1 0x0 DUP1 PUSH2 0x425C PUSH2 0x607A JUMP JUMPDEST POP POP JUMPDEST POP GAS PUSH2 0x4269 PUSH2 0x618C JUMP JUMPDEST POP POP POP POP POP ISZERO DUP1 ISZERO PUSH2 0x4288 JUMPI RETURNDATASIZE PUSH1 0x0 DUP1 RETURNDATACOPY RETURNDATASIZE PUSH1 0x0 PUSH2 0x4285 PUSH2 0x607A JUMP JUMPDEST POP POP JUMPDEST POP POP POP POP PUSH2 0x4294 PUSH2 0x4DDB JUMP JUMPDEST PUSH2 0x429C PUSH2 0x521D JUMP JUMPDEST PUSH1 0x1 PUSH1 0x1 PUSH1 0xA0 SHL SUB AND PUSH4 0x6A1C4758 DUP9 PUSH1 0x0 PUSH1 0x6 PUSH2 0x42B7 PUSH2 0x60E5 JUMP JUMPDEST SWAP1 PUSH2 0x100 EXP SWAP1 DIV PUSH1 0x1 PUSH1 0x1 PUSH1 0xA0 SHL SUB AND DUP10 DUP10 DUP10 PUSH1 0x40 MLOAD PUSH1 0x1 PUSH1 0x1 PUSH1 0xE0 SHL SUB NOT PUSH1 0xE0 DUP9 SWAP1 SHL AND DUP2 MSTORE PUSH1 0x1 PUSH1 0x1 PUSH1 0xA0 SHL SUB SWAP6 DUP7 AND PUSH1 0x4 DUP3 ADD MSTORE SWAP4 SWAP1 SWAP5 AND PUSH1 0x24 DUP5 ADD MSTORE PUSH1 0x44 DUP4 ADD SWAP2 SWAP1 SWAP2 MSTORE PUSH1 0x64 DUP3 ADD MSTORE PUSH1 0x84 DUP2 ADD SWAP2 SWAP1 SWAP2 MSTORE PUSH1 0xA4 ADD PUSH1 0x20 PUSH1 0x40 MLOAD DUP1 DUP4 SUB DUP2 PUSH1 0x0 DUP8 DUP1 PUSH2 0x4324 PUSH2 0x6140 JUMP JUMPDEST ISZERO DUP1 ISZERO PUSH2 0x4339 JUMPI PUSH1 0x0 DUP1 PUSH2 0x4336 PUSH2 0x607A JUMP JUMPDEST POP POP JUMPDEST POP GAS PUSH2 0x4343 PUSH2 0x6245 JUMP JUMPDEST POP POP POP POP POP POP ISZERO DUP1 ISZERO PUSH2 0x4363 JUMPI RETURNDATASIZE PUSH1 0x0 DUP1 RETURNDATACOPY RETURNDATASIZE PUSH1 0x0 PUSH2 0x4360 PUSH2 0x607A JUMP JUMPDEST POP POP JUMPDEST POP POP POP POP PUSH1 0x40 MLOAD RETURNDATASIZE PUSH1 0x20 DUP2 LT ISZERO PUSH2 0x4382 JUMPI PUSH1 0x0 DUP1 PUSH2 0x437F PUSH2 0x607A JUMP JUMPDEST POP POP JUMPDEST DUP2 ADD SWAP1 DUP1 DUP1 MLOAD SWAP11 SWAP10 POP POP POP POP POP POP POP POP POP POP JUMP JUMPDEST PUSH1 0x0 PUSH2 0x43A0 PUSH2 0x4D95 JUMP JUMPDEST PUSH1 0x1 PUSH1 0x1 PUSH1 0xA0 SHL SUB AND PUSH4 0xD37C4D8B DUP5 DUP5 PUSH1 0x40 MLOAD PUSH1 0x1 PUSH1 0x1 PUSH1 0xE0 SHL SUB NOT PUSH1 0xE0 DUP6 SWAP1 SHL AND DUP2 MSTORE PUSH1 0x1 PUSH1 0x1 PUSH1 0xA0 SHL SUB SWAP1 SWAP3 AND PUSH1 0x4 DUP4 ADD MSTORE PUSH1 0x24 DUP3 ADD MSTORE PUSH1 0x44 ADD PUSH1 0x20 PUSH1 0x40 MLOAD DUP1 DUP4 SUB DUP2 DUP7 DUP1 PUSH2 0x43EF PUSH2 0x6140 JUMP JUMPDEST ISZERO DUP1 ISZERO PUSH2 0x4404 JUMPI PUSH1 0x0 DUP1 PUSH2 0x4401 PUSH2 0x607A JUMP JUMPDEST POP POP JUMPDEST POP GAS PUSH2 0x440E PUSH2 0x618C JUMP JUMPDEST POP POP POP POP POP ISZERO DUP1 ISZERO PUSH2 0x442D JUMPI RETURNDATASIZE PUSH1 0x0 DUP1 RETURNDATACOPY RETURNDATASIZE PUSH1 0x0 PUSH2 0x442A PUSH2 0x607A JUMP JUMPDEST POP POP JUMPDEST POP POP POP POP PUSH1 0x40 MLOAD RETURNDATASIZE PUSH1 0x20 DUP2 LT ISZERO PUSH2 0x444C JUMPI PUSH1 0x0 DUP1 PUSH2 0x4449 PUSH2 0x607A JUMP JUMPDEST POP POP JUMPDEST DUP2 ADD SWAP1 DUP1 DUP1 MLOAD SWAP7 SWAP6 POP POP POP POP POP POP JUMP JUMPDEST PUSH1 0x0 PUSH2 0x4466 PUSH2 0x4D95 JUMP JUMPDEST PUSH1 0x1 PUSH1 0x1 PUSH1 0xA0 SHL SUB AND PUSH4 0x7B1001B7 DUP4 PUSH1 0x1 PUSH1 0x40 MLOAD PUSH1 0x1 PUSH1 0x1 PUSH1 0xE0 SHL SUB NOT PUSH1 0xE0 DUP6 SWAP1 SHL AND DUP2 MSTORE PUSH1 0x4 DUP2 ADD SWAP3 SWAP1 SWAP3 MSTORE ISZERO ISZERO PUSH1 0x24 DUP3 ADD MSTORE PUSH1 0x44 ADD PUSH1 0x20 PUSH1 0x40 MLOAD DUP1 DUP4 SUB DUP2 DUP7 DUP1 PUSH2 0xFDE PUSH2 0x6140 JUMP JUMPDEST PUSH1 0x0 PUSH1 0x6 PUSH2 0xF78 PUSH2 0x60E5 JUMP JUMPDEST PUSH1 0x0 PUSH2 0x44C6 PUSH2 0x4D95 JUMP JUMPDEST PUSH1 0x1 PUSH1 0x1 PUSH1 0xA0 SHL SUB AND PUSH4 0xDBF63340 PUSH1 0x40 MLOAD DUP2 PUSH4 0xFFFFFFFF AND PUSH1 0xE0 SHL DUP2 MSTORE PUSH1 0x4 ADD PUSH1 0x20 PUSH1 0x40 MLOAD DUP1 DUP4 SUB DUP2 DUP7 DUP1 PUSH2 0x26A8 PUSH2 0x6140 JUMP JUMPDEST PUSH1 0x0 DUP1 PUSH1 0x7 PUSH2 0x4506 PUSH2 0x60E5 JUMP JUMPDEST SWAP1 PUSH2 0x100 EXP SWAP1 DIV PUSH1 0x1 PUSH1 0x1 PUSH1 0xA0 SHL SUB AND PUSH1 0x1 PUSH1 0x1 PUSH1 0xA0 SHL SUB AND PUSH4 0xDD62ED3E DUP5 DUP5 PUSH1 0x40 MLOAD PUSH1 0x1 PUSH1 0x1 PUSH1 0xE0 SHL SUB NOT PUSH1 0xE0 DUP6 SWAP1 SHL AND DUP2 MSTORE PUSH1 0x1 PUSH1 0x1 PUSH1 0xA0 SHL SUB SWAP3 DUP4 AND PUSH1 0x4 DUP3 ADD MSTORE SWAP2 AND PUSH1 0x24 DUP3 ADD MSTORE PUSH1 0x44 ADD PUSH1 0x20 PUSH1 0x40 MLOAD DUP1 DUP4 SUB DUP2 DUP7 DUP1 PUSH2 0x43EF PUSH2 0x6140 JUMP JUMPDEST PUSH2 0x456F PUSH2 0x521D JUMP JUMPDEST PUSH1 0x1 PUSH1 0x1 PUSH1 0xA0 SHL SUB AND GAS PUSH2 0x4581 PUSH2 0x62FE JUMP JUMPDEST PUSH1 0x1 PUSH1 0x1 PUSH1 0xA0 SHL SUB AND EQ PUSH2 0x45D2 JUMPI PUSH1 0x40 MLOAD PUSH3 0x461BCD PUSH1 0xE5 SHL DUP2 MSTORE PUSH1 0x20 PUSH1 0x4 DUP3 ADD MSTORE PUSH1 0x1E PUSH1 0x24 DUP3 ADD MSTORE PUSH1 0x0 DUP1 MLOAD PUSH1 0x20 PUSH2 0x6453 DUP4 CODECOPY DUP2 MLOAD SWAP2 MSTORE PUSH1 0x44 DUP3 ADD MSTORE PUSH1 0x64 ADD PUSH1 0x40 MLOAD DUP1 SWAP2 SUB SWAP1 PUSH2 0x45CF PUSH2 0x607A JUMP JUMPDEST POP POP JUMPDEST PUSH1 0x0 PUSH1 0x4 PUSH2 0x45DE PUSH2 0x60E5 JUMP JUMPDEST SWAP1 PUSH2 0x100 EXP SWAP1 DIV PUSH1 0x1 PUSH1 0x1 PUSH1 0xA0 SHL SUB AND PUSH1 0x1 PUSH1 0x1 PUSH1 0xA0 SHL SUB AND PUSH4 0x907DFF97 DUP4 DUP4 PUSH1 0x40 MLOAD PUSH1 0x20 ADD DUP1 DUP4 DUP2 MSTORE PUSH1 0x20 ADD DUP3 DUP2 MSTORE PUSH1 0x20 ADD SWAP3 POP POP POP PUSH1 0x40 MLOAD PUSH1 0x20 DUP2 DUP4 SUB SUB DUP2 MSTORE SWAP1 PUSH1 0x40 MSTORE PUSH1 0x2 PUSH1 0x40 MLOAD DUP1 PUSH1 0x29 PUSH2 0x659D DUP3 CODECOPY PUSH1 0x29 ADD SWAP1 POP PUSH1 0x40 MLOAD DUP1 SWAP2 SUB SWAP1 KECCAK256 DUP8 PUSH1 0x0 DUP1 PUSH1 0x40 MLOAD DUP8 PUSH4 0xFFFFFFFF AND PUSH1 0xE0 SHL DUP2 MSTORE PUSH1 0x4 ADD DUP1 DUP1 PUSH1 0x20 ADD DUP8 DUP2 MSTORE PUSH1 0x20 ADD DUP7 DUP2 MSTORE PUSH1 0x20 ADD DUP6 DUP2 MSTORE PUSH1 0x20 ADD DUP5 PUSH1 0x0 SHL DUP2 MSTORE PUSH1 0x20 ADD DUP4 PUSH1 0x0 SHL DUP2 MSTORE PUSH1 0x20 ADD DUP3 DUP2 SUB DUP3 MSTORE DUP9 DUP2 DUP2 MLOAD DUP2 MSTORE PUSH1 0x20 ADD SWAP2 POP DUP1 MLOAD PUSH1 0x20 SWAP1 SWAP2 ADD SWAP1 DUP1 DUP4 DUP4 PUSH1 0x0 DUP4 ISZERO PUSH2 0x2FE5 JUMPI DUP1 DUP3 ADD MLOAD DUP4 DUP3 ADD MSTORE PUSH1 0x20 ADD PUSH2 0x2FCD JUMP JUMPDEST PUSH1 0x18 DUP2 JUMP JUMPDEST PUSH1 0x0 PUSH2 0x46BF PUSH2 0x4F94 JUMP JUMPDEST PUSH1 0x1 PUSH1 0x1 PUSH1 0xA0 SHL SUB AND PUSH4 0x86DABD1 PUSH1 0x40 MLOAD DUP2 PUSH4 0xFFFFFFFF AND PUSH1 0xE0 SHL DUP2 MSTORE PUSH1 0x4 ADD PUSH1 0x0 PUSH1 0x40 MLOAD DUP1 DUP4 SUB DUP2 DUP7 DUP1 PUSH2 0x46F2 PUSH2 0x6140 JUMP JUMPDEST ISZERO DUP1 ISZERO PUSH2 0x4707 JUMPI PUSH1 0x0 DUP1 PUSH2 0x4704 PUSH2 0x607A JUMP JUMPDEST POP POP JUMPDEST POP GAS PUSH2 0x4711 PUSH2 0x618C JUMP JUMPDEST POP POP POP POP POP ISZERO DUP1 ISZERO PUSH2 0x4730 JUMPI RETURNDATASIZE PUSH1 0x0 DUP1 RETURNDATACOPY RETURNDATASIZE PUSH1 0x0 PUSH2 0x472D PUSH2 0x607A JUMP JUMPDEST POP POP JUMPDEST POP POP POP POP PUSH2 0x473C PUSH2 0x4DDB JUMP JUMPDEST PUSH1 0x0 DUP1 PUSH2 0x4747 PUSH2 0x4D95 JUMP JUMPDEST PUSH1 0x1 PUSH1 0x1 PUSH1 0xA0 SHL SUB AND PUSH4 0xA63C4DF4 DUP7 DUP7 PUSH1 0x0 PUSH1 0x6 PUSH2 0x4763 PUSH2 0x60E5 JUMP JUMPDEST SWAP1 PUSH2 0x100 EXP SWAP1 DIV PUSH1 0x1 PUSH1 0x1 PUSH1 0xA0 SHL SUB AND PUSH1 0x40 MLOAD PUSH1 0x1 PUSH1 0x1 PUSH1 0xE0 SHL SUB NOT PUSH1 0xE0 DUP7 SWAP1 SHL AND DUP2 MSTORE PUSH1 0x1 PUSH1 0x1 PUSH1 0xA0 SHL SUB SWAP4 DUP5 AND PUSH1 0x4 DUP3 ADD MSTORE PUSH1 0x24 DUP2 ADD SWAP3 SWAP1 SWAP3 MSTORE SWAP1 SWAP2 AND PUSH1 0x44 DUP3 ADD MSTORE PUSH1 0x64 ADD PUSH1 0x40 DUP1 MLOAD DUP1 DUP4 SUB DUP2 PUSH1 0x0 DUP8 DUP1 PUSH2 0x47BE PUSH2 0x6140 JUMP JUMPDEST ISZERO DUP1 ISZERO PUSH2 0x47D3 JUMPI PUSH1 0x0 DUP1 PUSH2 0x47D0 PUSH2 0x607A JUMP JUMPDEST POP POP JUMPDEST POP GAS PUSH2 0x47DD PUSH2 0x6245 JUMP JUMPDEST POP POP POP POP POP POP ISZERO DUP1 ISZERO PUSH2 0x47FD JUMPI RETURNDATASIZE PUSH1 0x0 DUP1 RETURNDATACOPY RETURNDATASIZE PUSH1 0x0 PUSH2 0x47FA PUSH2 0x607A JUMP JUMPDEST POP POP JUMPDEST POP POP POP POP PUSH1 0x40 MLOAD RETURNDATASIZE PUSH1 0x40 DUP2 LT ISZERO PUSH2 0x481C JUMPI PUSH1 0x0 DUP1 PUSH2 0x4819 PUSH2 0x607A JUMP JUMPDEST POP POP JUMPDEST DUP2 ADD SWAP1 DUP1 DUP1 MLOAD SWAP3 SWAP2 SWAP1 PUSH1 0x20 ADD DUP1 MLOAD SWAP4 SWAP6 POP SWAP3 SWAP4 POP PUSH2 0x485D SWAP3 POP DUP8 SWAP2 POP DUP5 SWAP1 POP DUP4 PUSH1 0x0 PUSH1 0x6 PUSH2 0x4848 PUSH2 0x60E5 JUMP JUMPDEST SWAP1 PUSH2 0x100 EXP SWAP1 DIV PUSH1 0x1 PUSH1 0x1 PUSH1 0xA0 SHL SUB AND PUSH2 0x5A9D JUMP JUMPDEST PUSH2 0x4883 DUP6 PUSH1 0x0 PUSH1 0x6 PUSH2 0x486D PUSH2 0x60E5 JUMP JUMPDEST SWAP1 PUSH2 0x100 EXP SWAP1 DIV PUSH1 0x1 PUSH1 0x1 PUSH1 0xA0 SHL SUB AND DUP5 PUSH2 0x59C3 JUMP JUMPDEST SWAP6 SWAP5 POP POP POP POP POP JUMP JUMPDEST PUSH2 0x4894 PUSH2 0x4F94 JUMP JUMPDEST PUSH1 0x1 PUSH1 0x1 PUSH1 0xA0 SHL SUB AND PUSH4 0x7C312541 PUSH1 0x40 MLOAD DUP2 PUSH4 0xFFFFFFFF AND PUSH1 0xE0 SHL DUP2 MSTORE PUSH1 0x4 ADD PUSH1 0x0 PUSH1 0x40 MLOAD DUP1 DUP4 SUB DUP2 DUP7 DUP1 PUSH2 0x48C7 PUSH2 0x6140 JUMP JUMPDEST ISZERO DUP1 ISZERO PUSH2 0x48DC JUMPI PUSH1 0x0 DUP1 PUSH2 0x48D9 PUSH2 0x607A JUMP JUMPDEST POP POP JUMPDEST POP GAS PUSH2 0x48E6 PUSH2 0x618C JUMP JUMPDEST POP POP POP POP POP ISZERO DUP1 ISZERO PUSH2 0x4905 JUMPI RETURNDATASIZE PUSH1 0x0 DUP1 RETURNDATACOPY RETURNDATASIZE PUSH1 0x0 PUSH2 0x4902 PUSH2 0x607A JUMP JUMPDEST POP POP JUMPDEST POP POP POP POP PUSH2 0x4911 PUSH2 0x4DDB JUMP JUMPDEST PUSH2 0x4919 PUSH2 0x4D95 JUMP JUMPDEST PUSH1 0x1 PUSH1 0x1 PUSH1 0xA0 SHL SUB AND PUSH4 0x44EC6B62 DUP4 PUSH1 0x0 PUSH1 0x6 PUSH2 0x40A2 PUSH2 0x60E5 JUMP JUMPDEST PUSH1 0x0 PUSH1 0x7 PUSH2 0xF78 PUSH2 0x60E5 JUMP JUMPDEST PUSH1 0x0 PUSH1 0x4 PUSH2 0xF78 PUSH2 0x60E5 JUMP JUMPDEST PUSH2 0x4954 PUSH2 0x56AF JUMP JUMPDEST PUSH1 0x1 PUSH1 0x1 PUSH1 0xA0 SHL SUB AND GAS PUSH2 0x4966 PUSH2 0x62FE JUMP JUMPDEST PUSH1 0x1 PUSH1 0x1 PUSH1 0xA0 SHL SUB AND EQ PUSH2 0x49B4 JUMPI PUSH1 0x40 MLOAD PUSH3 0x461BCD PUSH1 0xE5 SHL DUP2 MSTORE PUSH1 0x4 ADD DUP1 DUP1 PUSH1 0x20 ADD DUP3 DUP2 SUB DUP3 MSTORE PUSH1 0x34 DUP2 MSTORE PUSH1 0x20 ADD DUP1 PUSH2 0x65C6 PUSH1 0x34 SWAP2 CODECOPY PUSH1 0x40 ADD SWAP2 POP POP PUSH1 0x40 MLOAD DUP1 SWAP2 SUB SWAP1 PUSH2 0x49B1 PUSH2 0x607A JUMP JUMPDEST POP POP JUMPDEST PUSH1 0x0 PUSH1 0x7 PUSH2 0x49C0 PUSH2 0x60E5 JUMP JUMPDEST PUSH1 0x1 PUSH1 0x1 PUSH1 0xA0 SHL SUB PUSH2 0x100 SWAP3 SWAP1 SWAP3 EXP SWAP1 DIV AND PUSH4 0xB46310F6 DUP4 PUSH2 0x4AB5 DUP5 PUSH1 0x0 PUSH1 0x7 PUSH2 0x49E8 PUSH2 0x60E5 JUMP JUMPDEST SWAP1 PUSH2 0x100 EXP SWAP1 DIV PUSH1 0x1 PUSH1 0x1 PUSH1 0xA0 SHL SUB AND PUSH1 0x1 PUSH1 0x1 PUSH1 0xA0 SHL SUB AND PUSH4 0x70A08231 DUP9 PUSH1 0x40 MLOAD PUSH1 0x1 PUSH1 0x1 PUSH1 0xE0 SHL SUB NOT PUSH1 0xE0 DUP5 SWAP1 SHL AND DUP2 MSTORE PUSH1 0x1 PUSH1 0x1 PUSH1 0xA0 SHL SUB SWAP1 SWAP2 AND PUSH1 0x4 DUP3 ADD MSTORE PUSH1 0x24 ADD PUSH1 0x20 PUSH1 0x40 MLOAD DUP1 DUP4 SUB DUP2 DUP7 DUP1 PUSH2 0x4A41 PUSH2 0x6140 JUMP JUMPDEST ISZERO DUP1 ISZERO PUSH2 0x4A56 JUMPI PUSH1 0x0 DUP1 PUSH2 0x4A53 PUSH2 0x607A JUMP JUMPDEST POP POP JUMPDEST POP GAS PUSH2 0x4A60 PUSH2 0x618C JUMP JUMPDEST POP POP POP POP POP ISZERO DUP1 ISZERO PUSH2 0x4A7F JUMPI RETURNDATASIZE PUSH1 0x0 DUP1 RETURNDATACOPY RETURNDATASIZE PUSH1 0x0 PUSH2 0x4A7C PUSH2 0x607A JUMP JUMPDEST POP POP JUMPDEST POP POP POP POP PUSH1 0x40 MLOAD RETURNDATASIZE PUSH1 0x20 DUP2 LT ISZERO PUSH2 0x4A9E JUMPI PUSH1 0x0 DUP1 PUSH2 0x4A9B PUSH2 0x607A JUMP JUMPDEST POP POP JUMPDEST DUP2 ADD SWAP1 DUP1 DUP1 MLOAD SWAP4 SWAP3 POP POP PUSH4 0xFFFFFFFF PUSH2 0x506A AND SWAP1 POP JUMP JUMPDEST PUSH1 0x40 MLOAD PUSH1 0x1 PUSH1 0x1 PUSH1 0xE0 SHL SUB NOT PUSH1 0xE0 DUP6 SWAP1 SHL AND DUP2 MSTORE PUSH1 0x1 PUSH1 0x1 PUSH1 0xA0 SHL SUB SWAP1 SWAP3 AND PUSH1 0x4 DUP4 ADD MSTORE PUSH1 0x24 DUP3 ADD MSTORE PUSH1 0x44 ADD PUSH1 0x0 PUSH1 0x40 MLOAD DUP1 DUP4 SUB DUP2 PUSH1 0x0 DUP8 DUP1 PUSH2 0x4AF6 PUSH2 0x6140 JUMP JUMPDEST ISZERO DUP1 ISZERO PUSH2 0x4B0B JUMPI PUSH1 0x0 DUP1 PUSH2 0x4B08 PUSH2 0x607A JUMP JUMPDEST POP POP JUMPDEST POP GAS PUSH2 0x4B15 PUSH2 0x6245 JUMP JUMPDEST POP POP POP POP POP POP ISZERO DUP1 ISZERO PUSH2 0x4B35 JUMPI RETURNDATASIZE PUSH1 0x0 DUP1 RETURNDATACOPY RETURNDATASIZE PUSH1 0x0 PUSH2 0x4B32 PUSH2 0x607A JUMP JUMPDEST POP POP JUMPDEST POP POP POP POP PUSH2 0x4B45 DUP3 PUSH1 0x0 DUP4 PUSH2 0x5138 JUMP JUMPDEST PUSH2 0x2AE4 DUP2 PUSH1 0xA PUSH2 0x4B53 PUSH2 0x60E5 JUMP JUMPDEST SWAP1 PUSH4 0xFFFFFFFF PUSH2 0x506A AND JUMP JUMPDEST PUSH1 0x0 DUP4 DUP3 PUSH2 0x4B6B PUSH2 0x4F94 JUMP JUMPDEST PUSH1 0x1 PUSH1 0x1 PUSH1 0xA0 SHL SUB AND PUSH4 0x7118D431 PUSH1 0x40 MLOAD DUP2 PUSH4 0xFFFFFFFF AND PUSH1 0xE0 SHL DUP2 MSTORE PUSH1 0x4 ADD PUSH1 0x0 PUSH1 0x40 MLOAD DUP1 DUP4 SUB DUP2 DUP7 DUP1 PUSH2 0x4B9E PUSH2 0x6140 JUMP JUMPDEST ISZERO DUP1 ISZERO PUSH2 0x4BB3 JUMPI PUSH1 0x0 DUP1 PUSH2 0x4BB0 PUSH2 0x607A JUMP JUMPDEST POP POP JUMPDEST POP GAS PUSH2 0x4BBD PUSH2 0x618C JUMP JUMPDEST POP POP POP POP POP ISZERO DUP1 ISZERO PUSH2 0x4BDC JUMPI RETURNDATASIZE PUSH1 0x0 DUP1 RETURNDATACOPY RETURNDATASIZE PUSH1 0x0 PUSH2 0x4BD9 PUSH2 0x607A JUMP JUMPDEST POP POP JUMPDEST POP POP POP POP PUSH2 0x4BE8 PUSH2 0x4F94 JUMP JUMPDEST PUSH1 0x1 PUSH1 0x1 PUSH1 0xA0 SHL SUB AND PUSH4 0x6132EBA4 DUP4 DUP4 PUSH1 0x40 MLOAD PUSH1 0x1 PUSH1 0x1 PUSH1 0xE0 SHL SUB NOT PUSH1 0xE0 DUP6 SWAP1 SHL AND DUP2 MSTORE PUSH1 0x4 DUP2 ADD SWAP3 SWAP1 SWAP3 MSTORE PUSH1 0x24 DUP3 ADD MSTORE PUSH1 0x44 ADD PUSH1 0x0 PUSH1 0x40 MLOAD DUP1 DUP4 SUB DUP2 DUP7 DUP1 PUSH2 0x4C2F PUSH2 0x6140 JUMP JUMPDEST ISZERO DUP1 ISZERO PUSH2 0x4C44 JUMPI PUSH1 0x0 DUP1 PUSH2 0x4C41 PUSH2 0x607A JUMP JUMPDEST POP POP JUMPDEST POP GAS PUSH2 0x4C4E PUSH2 0x618C JUMP JUMPDEST POP POP POP POP POP ISZERO DUP1 ISZERO PUSH2 0x4C6D JUMPI RETURNDATASIZE PUSH1 0x0 DUP1 RETURNDATACOPY RETURNDATASIZE PUSH1 0x0 PUSH2 0x4C6A PUSH2 0x607A JUMP JUMPDEST POP POP JUMPDEST POP POP POP POP PUSH2 0x4C79 PUSH2 0x4DDB JUMP JUMPDEST PUSH2 0x4C81 PUSH2 0x521D JUMP JUMPDEST PUSH1 0x1 PUSH1 0x1 PUSH1 0xA0 SHL SUB AND PUSH4 0xA1E187D PUSH1 0x0 PUSH1 0x6 PUSH2 0x4C9B PUSH2 0x60E5 JUMP JUMPDEST SWAP1 PUSH2 0x100 EXP SWAP1 DIV PUSH1 0x1 PUSH1 0x1 PUSH1 0xA0 SHL SUB AND DUP9 DUP9 DUP9 PUSH1 0x6 PUSH1 0x0 SWAP1 PUSH2 0x4CBB PUSH2 0x60E5 JUMP JUMPDEST SWAP1 PUSH2 0x100 EXP SWAP1 DIV PUSH1 0x1 PUSH1 0x1 PUSH1 0xA0 SHL SUB AND PUSH1 0x40 MLOAD PUSH1 0x1 PUSH1 0x1 PUSH1 0xE0 SHL SUB NOT PUSH1 0xE0 DUP9 SWAP1 SHL AND DUP2 MSTORE PUSH1 0x1 PUSH1 0x1 PUSH1 0xA0 SHL SUB SWAP6 DUP7 AND PUSH1 0x4 DUP3 ADD MSTORE PUSH1 0x24 DUP2 ADD SWAP5 SWAP1 SWAP5 MSTORE PUSH1 0x44 DUP5 ADD SWAP3 SWAP1 SWAP3 MSTORE PUSH1 0x64 DUP4 ADD MSTORE SWAP1 SWAP2 AND PUSH1 0x84 DUP3 ADD MSTORE PUSH1 0xA4 ADD PUSH1 0x20 PUSH1 0x40 MLOAD DUP1 DUP4 SUB DUP2 PUSH1 0x0 DUP8 DUP1 PUSH2 0x4D24 PUSH2 0x6140 JUMP JUMPDEST ISZERO DUP1 ISZERO PUSH2 0x4D39 JUMPI PUSH1 0x0 DUP1 PUSH2 0x4D36 PUSH2 0x607A JUMP JUMPDEST POP POP JUMPDEST POP GAS PUSH2 0x4D43 PUSH2 0x6245 JUMP JUMPDEST POP POP POP POP POP POP ISZERO DUP1 ISZERO PUSH2 0x4D63 JUMPI RETURNDATASIZE PUSH1 0x0 DUP1 RETURNDATACOPY RETURNDATASIZE PUSH1 0x0 PUSH2 0x4D60 PUSH2 0x607A JUMP JUMPDEST POP POP JUMPDEST POP POP POP POP PUSH1 0x40 MLOAD RETURNDATASIZE PUSH1 0x20 DUP2 LT ISZERO PUSH2 0x4D82 JUMPI PUSH1 0x0 DUP1 PUSH2 0x4D7F PUSH2 0x607A JUMP JUMPDEST POP POP JUMPDEST DUP2 ADD SWAP1 DUP1 DUP1 MLOAD SWAP10 SWAP9 POP POP POP POP POP POP POP POP POP JUMP JUMPDEST PUSH1 0x0 PUSH2 0x4DD6 PUSH6 0x24B9B9BAB2B9 PUSH1 0xD1 SHL PUSH1 0x40 MLOAD PUSH1 0x40 DUP1 DUP3 ADD SWAP1 MSTORE PUSH1 0x16 DUP2 MSTORE PUSH22 0x4D697373696E67204973737565722061646472657373 PUSH1 0x50 SHL PUSH1 0x20 DUP3 ADD MSTORE PUSH2 0x5C1D JUMP JUMPDEST SWAP1 POP SWAP1 JUMP JUMPDEST PUSH1 0x0 PUSH1 0x4 PUSH2 0x4DE7 PUSH2 0x60E5 JUMP JUMPDEST SWAP1 PUSH2 0x100 EXP SWAP1 DIV PUSH1 0x1 PUSH1 0x1 PUSH1 0xA0 SHL SUB AND PUSH1 0x1 PUSH1 0x1 PUSH1 0xA0 SHL SUB AND GAS PUSH2 0x4E09 PUSH2 0x62FE JUMP JUMPDEST PUSH1 0x1 PUSH1 0x1 PUSH1 0xA0 SHL SUB AND EQ ISZERO DUP1 ISZERO PUSH2 0x4E55 JUMPI POP PUSH1 0x0 PUSH1 0x5 PUSH2 0x4E27 PUSH2 0x60E5 JUMP JUMPDEST SWAP1 PUSH2 0x100 EXP SWAP1 DIV PUSH1 0x1 PUSH1 0x1 PUSH1 0xA0 SHL SUB AND PUSH1 0x1 PUSH1 0x1 PUSH1 0xA0 SHL SUB AND GAS PUSH2 0x4E49 PUSH2 0x62FE JUMP JUMPDEST PUSH1 0x1 PUSH1 0x1 PUSH1 0xA0 SHL SUB AND EQ ISZERO JUMPDEST DUP1 ISZERO PUSH2 0x4E96 JUMPI POP GAS PUSH2 0x4E65 PUSH2 0x62FE JUMP JUMPDEST PUSH1 0x1 PUSH1 0x1 PUSH1 0xA0 SHL SUB AND PUSH1 0x0 PUSH1 0x6 PUSH2 0x4E7A PUSH2 0x60E5 JUMP JUMPDEST SWAP1 PUSH2 0x100 EXP SWAP1 DIV PUSH1 0x1 PUSH1 0x1 PUSH1 0xA0 SHL SUB AND PUSH1 0x1 PUSH1 0x1 PUSH1 0xA0 SHL SUB AND EQ ISZERO JUMPDEST ISZERO PUSH2 0x399A JUMPI GAS PUSH2 0x4EA4 PUSH2 0x62FE JUMP JUMPDEST PUSH1 0x6 PUSH1 0x1 DUP2 PUSH2 0x3395 PUSH2 0x60E5 JUMP JUMPDEST PUSH1 0x0 PUSH1 0x4 PUSH2 0x4EBD PUSH2 0x60E5 JUMP JUMPDEST SWAP1 PUSH2 0x100 EXP SWAP1 DIV PUSH1 0x1 PUSH1 0x1 PUSH1 0xA0 SHL SUB AND PUSH1 0x1 PUSH1 0x1 PUSH1 0xA0 SHL SUB AND PUSH4 0x907DFF97 DUP3 PUSH1 0x40 MLOAD PUSH1 0x20 ADD DUP1 DUP3 DUP2 MSTORE PUSH1 0x20 ADD SWAP2 POP POP PUSH1 0x40 MLOAD PUSH1 0x20 DUP2 DUP4 SUB SUB DUP2 MSTORE SWAP1 PUSH1 0x40 MSTORE PUSH1 0x3 PUSH1 0x40 MLOAD DUP1 PUSH1 0x21 PUSH2 0x6506 DUP3 CODECOPY PUSH1 0x21 ADD SWAP1 POP PUSH1 0x40 MLOAD DUP1 SWAP2 SUB SWAP1 KECCAK256 PUSH2 0x4F1E DUP9 PUSH2 0x56E4 JUMP JUMPDEST PUSH2 0x4F27 DUP9 PUSH2 0x56E4 JUMP JUMPDEST PUSH1 0x0 PUSH1 0x40 MLOAD DUP8 PUSH4 0xFFFFFFFF AND PUSH1 0xE0 SHL DUP2 MSTORE PUSH1 0x4 ADD DUP1 DUP1 PUSH1 0x20 ADD DUP8 DUP2 MSTORE PUSH1 0x20 ADD DUP7 DUP2 MSTORE PUSH1 0x20 ADD DUP6 DUP2 MSTORE PUSH1 0x20 ADD DUP5 DUP2 MSTORE PUSH1 0x20 ADD DUP4 PUSH1 0x0 SHL DUP2 MSTORE PUSH1 0x20 ADD DUP3 DUP2 SUB DUP3 MSTORE DUP9 DUP2 DUP2 MLOAD DUP2 MSTORE PUSH1 0x20 ADD SWAP2 POP DUP1 MLOAD PUSH1 0x20 SWAP1 SWAP2 ADD SWAP1 DUP1 DUP4 DUP4 PUSH1 0x0 DUP4 ISZERO PUSH2 0x2FE5 JUMPI DUP1 DUP3 ADD MLOAD DUP4 DUP3 ADD MSTORE PUSH1 0x20 ADD PUSH2 0x2FCD JUMP JUMPDEST PUSH1 0x0 PUSH2 0x4DD6 PUSH12 0x53797374656D537461747573 PUSH1 0xA0 SHL PUSH1 0x40 MLOAD PUSH1 0x40 DUP1 DUP3 ADD SWAP1 MSTORE PUSH1 0x1C DUP2 MSTORE PUSH32 0x4D697373696E672053797374656D537461747573206164647265737300000000 PUSH1 0x20 DUP3 ADD MSTORE PUSH2 0x5C1D JUMP JUMPDEST PUSH1 0x0 PUSH2 0x4DD6 PUSH19 0x2932BBB0B93239A234B9BA3934B13ABA34B7B7 PUSH1 0x69 SHL PUSH1 0x40 MLOAD PUSH1 0x60 DUP2 ADD PUSH1 0x40 MSTORE PUSH1 0x23 DUP1 DUP3 MSTORE PUSH2 0x6553 PUSH1 0x20 DUP4 ADD CODECOPY PUSH2 0x5C1D JUMP JUMPDEST PUSH1 0x0 PUSH2 0x4DD6 PUSH14 0x537570706C795363686564756C65 PUSH1 0x90 SHL PUSH1 0x40 MLOAD PUSH1 0x40 DUP1 DUP3 ADD SWAP1 MSTORE PUSH1 0x1E DUP2 MSTORE PUSH32 0x4D697373696E6720537570706C795363686564756C6520616464726573730000 PUSH1 0x20 DUP3 ADD MSTORE PUSH2 0x5C1D JUMP JUMPDEST PUSH1 0x0 DUP3 DUP3 GT ISZERO PUSH2 0x50C9 JUMPI PUSH1 0x40 MLOAD PUSH3 0x461BCD PUSH1 0xE5 SHL DUP2 MSTORE PUSH1 0x20 PUSH1 0x4 DUP3 ADD MSTORE PUSH1 0x1E PUSH1 0x24 DUP3 ADD MSTORE PUSH32 0x536166654D6174683A207375627472616374696F6E206F766572666C6F770000 PUSH1 0x44 DUP3 ADD MSTORE PUSH1 0x64 ADD PUSH1 0x40 MLOAD DUP1 SWAP2 SUB SWAP1 PUSH2 0x50C6 PUSH2 0x607A JUMP JUMPDEST POP POP JUMPDEST POP SWAP1 SUB SWAP1 JUMP JUMPDEST PUSH1 0x0 DUP3 DUP3 ADD DUP4 DUP2 LT ISZERO PUSH2 0x5131 JUMPI PUSH1 0x40 MLOAD PUSH3 0x461BCD PUSH1 0xE5 SHL DUP2 MSTORE PUSH1 0x20 PUSH1 0x4 DUP3 ADD MSTORE PUSH1 0x1B PUSH1 0x24 DUP3 ADD MSTORE PUSH32 0x536166654D6174683A206164646974696F6E206F766572666C6F770000000000 PUSH1 0x44 DUP3 ADD MSTORE PUSH1 0x64 ADD PUSH1 0x40 MLOAD DUP1 SWAP2 SUB SWAP1 PUSH2 0x512E PUSH2 0x607A JUMP JUMPDEST POP POP JUMPDEST SWAP4 SWAP3 POP POP POP JUMP JUMPDEST PUSH1 0x0 PUSH1 0x4 PUSH2 0x5144 PUSH2 0x60E5 JUMP JUMPDEST SWAP1 PUSH2 0x100 EXP SWAP1 DIV PUSH1 0x1 PUSH1 0x1 PUSH1 0xA0 SHL SUB AND PUSH1 0x1 PUSH1 0x1 PUSH1 0xA0 SHL SUB AND PUSH4 0x907DFF97 DUP3 PUSH1 0x40 MLOAD PUSH1 0x20 ADD DUP1 DUP3 DUP2 MSTORE PUSH1 0x20 ADD SWAP2 POP POP PUSH1 0x40 MLOAD PUSH1 0x20 DUP2 DUP4 SUB SUB DUP2 MSTORE SWAP1 PUSH1 0x40 MSTORE PUSH1 0x3 PUSH1 0x40 MLOAD DUP1 PUSH1 0x21 PUSH2 0x662C DUP3 CODECOPY PUSH1 0x21 ADD SWAP1 POP PUSH1 0x40 MLOAD DUP1 SWAP2 SUB SWAP1 KECCAK256 PUSH2 0x4F1E DUP9 PUSH2 0x56E4 JUMP JUMPDEST PUSH1 0x0 DUP1 PUSH2 0x51B0 PUSH2 0x60E5 JUMP JUMPDEST SWAP1 PUSH2 0x100 EXP SWAP1 DIV PUSH1 0x1 PUSH1 0x1 PUSH1 0xA0 SHL SUB AND PUSH1 0x1 PUSH1 0x1 PUSH1 0xA0 SHL SUB AND GAS PUSH2 0x51D2 PUSH2 0x62FE JUMP JUMPDEST PUSH1 0x1 PUSH1 0x1 PUSH1 0xA0 SHL SUB AND EQ PUSH2 0x399A JUMPI PUSH1 0x40 MLOAD PUSH3 0x461BCD PUSH1 0xE5 SHL DUP2 MSTORE PUSH1 0x4 ADD DUP1 DUP1 PUSH1 0x20 ADD DUP3 DUP2 SUB DUP3 MSTORE PUSH1 0x2F DUP2 MSTORE PUSH1 0x20 ADD DUP1 PUSH2 0x64D7 PUSH1 0x2F SWAP2 CODECOPY PUSH1 0x40 ADD SWAP2 POP POP PUSH1 0x40 MLOAD DUP1 SWAP2 SUB SWAP1 PUSH2 0x2667 PUSH2 0x607A JUMP JUMPDEST PUSH1 0x0 PUSH2 0x4DD6 PUSH9 0x22BC31B430B733B2B9 PUSH1 0xB9 SHL PUSH1 0x40 MLOAD PUSH1 0x40 DUP1 DUP3 ADD SWAP1 MSTORE PUSH1 0x19 DUP2 MSTORE PUSH32 0x4D697373696E672045786368616E676572206164647265737300000000000000 PUSH1 0x20 DUP3 ADD MSTORE PUSH2 0x5C1D JUMP JUMPDEST PUSH1 0x0 DUP1 PUSH2 0x5273 PUSH2 0x5CE6 JUMP JUMPDEST PUSH1 0x1 PUSH1 0x1 PUSH1 0xA0 SHL SUB AND PUSH4 0x8B3F8088 DUP6 PUSH1 0x40 MLOAD PUSH1 0x1 PUSH1 0x1 PUSH1 0xE0 SHL SUB NOT PUSH1 0xE0 DUP5 SWAP1 SHL AND DUP2 MSTORE PUSH1 0x1 PUSH1 0x1 PUSH1 0xA0 SHL SUB SWAP1 SWAP2 AND PUSH1 0x4 DUP3 ADD MSTORE PUSH1 0x24 ADD PUSH1 0x40 DUP1 MLOAD DUP1 DUP4 SUB DUP2 DUP7 DUP1 PUSH2 0x52BB PUSH2 0x6140 JUMP JUMPDEST ISZERO DUP1 ISZERO PUSH2 0x52D0 JUMPI PUSH1 0x0 DUP1 PUSH2 0x52CD PUSH2 0x607A JUMP JUMPDEST POP POP JUMPDEST POP GAS PUSH2 0x52DA PUSH2 0x618C JUMP JUMPDEST POP POP POP POP POP ISZERO DUP1 ISZERO PUSH2 0x52F9 JUMPI RETURNDATASIZE PUSH1 0x0 DUP1 RETURNDATACOPY RETURNDATASIZE PUSH1 0x0 PUSH2 0x52F6 PUSH2 0x607A JUMP JUMPDEST POP POP JUMPDEST POP POP POP POP PUSH1 0x40 MLOAD RETURNDATASIZE PUSH1 0x40 DUP2 LT ISZERO PUSH2 0x5318 JUMPI PUSH1 0x0 DUP1 PUSH2 0x5315 PUSH2 0x607A JUMP JUMPDEST POP POP JUMPDEST DUP2 ADD SWAP1 DUP1 DUP1 MLOAD SWAP3 SWAP2 SWAP1 PUSH1 0x20 ADD DUP1 MLOAD POP SWAP3 SWAP4 POP POP DUP3 ISZERO SWAP2 POP PUSH2 0x11F7 SWAP1 POP JUMPI PUSH1 0x0 DUP1 PUSH2 0x5340 PUSH2 0x4D95 JUMP JUMPDEST PUSH1 0x1 PUSH1 0x1 PUSH1 0xA0 SHL SUB AND PUSH4 0x6BED0415 DUP8 PUSH1 0x0 PUSH1 0x7 PUSH2 0x535B PUSH2 0x60E5 JUMP JUMPDEST SWAP1 PUSH2 0x100 EXP SWAP1 DIV PUSH1 0x1 PUSH1 0x1 PUSH1 0xA0 SHL SUB AND PUSH1 0x1 PUSH1 0x1 PUSH1 0xA0 SHL SUB AND PUSH4 0x70A08231 DUP11 PUSH1 0x40 MLOAD PUSH1 0x1 PUSH1 0x1 PUSH1 0xE0 SHL SUB NOT PUSH1 0xE0 DUP5 SWAP1 SHL AND DUP2 MSTORE PUSH1 0x1 PUSH1 0x1 PUSH1 0xA0 SHL SUB SWAP1 SWAP2 AND PUSH1 0x4 DUP3 ADD MSTORE PUSH1 0x24 ADD PUSH1 0x20 PUSH1 0x40 MLOAD DUP1 DUP4 SUB DUP2 DUP7 DUP1 PUSH2 0x53B4 PUSH2 0x6140 JUMP JUMPDEST ISZERO DUP1 ISZERO PUSH2 0x53C9 JUMPI PUSH1 0x0 DUP1 PUSH2 0x53C6 PUSH2 0x607A JUMP JUMPDEST POP POP JUMPDEST POP GAS PUSH2 0x53D3 PUSH2 0x618C JUMP JUMPDEST POP POP POP POP POP ISZERO DUP1 ISZERO PUSH2 0x53F2 JUMPI RETURNDATASIZE PUSH1 0x0 DUP1 RETURNDATACOPY RETURNDATASIZE PUSH1 0x0 PUSH2 0x53EF PUSH2 0x607A JUMP JUMPDEST POP POP JUMPDEST POP POP POP POP PUSH1 0x40 MLOAD RETURNDATASIZE PUSH1 0x20 DUP2 LT ISZERO PUSH2 0x5411 JUMPI PUSH1 0x0 DUP1 PUSH2 0x540E PUSH2 0x607A JUMP JUMPDEST POP POP JUMPDEST DUP2 ADD SWAP1 DUP1 DUP1 MLOAD SWAP3 POP PUSH1 0x40 SWAP2 POP POP MLOAD PUSH1 0x1 PUSH1 0x1 PUSH1 0xE0 SHL SUB NOT PUSH1 0xE0 DUP6 SWAP1 SHL AND DUP2 MSTORE PUSH1 0x1 PUSH1 0x1 PUSH1 0xA0 SHL SUB SWAP1 SWAP3 AND PUSH1 0x4 DUP4 ADD MSTORE PUSH1 0x24 DUP3 ADD MSTORE PUSH1 0x44 ADD PUSH1 0x40 DUP1 MLOAD DUP1 DUP4 SUB DUP2 DUP7 DUP1 PUSH2 0x545A PUSH2 0x6140 JUMP JUMPDEST ISZERO DUP1 ISZERO PUSH2 0x546F JUMPI PUSH1 0x0 DUP1 PUSH2 0x546C PUSH2 0x607A JUMP JUMPDEST POP POP JUMPDEST POP GAS PUSH2 0x5479 PUSH2 0x618C JUMP JUMPDEST POP POP POP POP POP ISZERO DUP1 ISZERO PUSH2 0x5498 JUMPI RETURNDATASIZE PUSH1 0x0 DUP1 RETURNDATACOPY RETURNDATASIZE PUSH1 0x0 PUSH2 0x5495 PUSH2 0x607A JUMP JUMPDEST POP POP JUMPDEST POP POP POP POP PUSH1 0x40 MLOAD RETURNDATASIZE PUSH1 0x40 DUP2 LT ISZERO PUSH2 0x54B7 JUMPI PUSH1 0x0 DUP1 PUSH2 0x54B4 PUSH2 0x607A JUMP JUMPDEST POP POP JUMPDEST DUP2 ADD SWAP1 DUP1 DUP1 MLOAD SWAP3 SWAP2 SWAP1 PUSH1 0x20 ADD DUP1 MLOAD SWAP4 SWAP6 POP SWAP3 SWAP4 POP POP POP POP DUP2 DUP6 GT ISZERO PUSH2 0x5516 JUMPI PUSH1 0x40 MLOAD PUSH3 0x461BCD PUSH1 0xE5 SHL DUP2 MSTORE PUSH1 0x4 ADD DUP1 DUP1 PUSH1 0x20 ADD DUP3 DUP2 SUB DUP3 MSTORE PUSH1 0x26 DUP2 MSTORE PUSH1 0x20 ADD DUP1 PUSH2 0x64B1 PUSH1 0x26 SWAP2 CODECOPY PUSH1 0x40 ADD SWAP2 POP POP PUSH1 0x40 MLOAD DUP1 SWAP2 SUB SWAP1 PUSH2 0x5513 PUSH2 0x607A JUMP JUMPDEST POP POP JUMPDEST DUP1 ISZERO PUSH2 0x5571 JUMPI PUSH1 0x40 MLOAD PUSH3 0x461BCD PUSH1 0xE5 SHL DUP2 MSTORE PUSH1 0x20 PUSH1 0x4 DUP3 ADD MSTORE PUSH1 0x1E PUSH1 0x24 DUP3 ADD MSTORE PUSH32 0x412073796E7468206F7220534E58207261746520697320696E76616C69640000 PUSH1 0x44 DUP3 ADD MSTORE PUSH1 0x64 ADD PUSH1 0x40 MLOAD DUP1 SWAP2 SUB SWAP1 PUSH2 0x556E PUSH2 0x607A JUMP JUMPDEST POP POP JUMPDEST POP PUSH1 0x1 SWAP6 SWAP5 POP POP POP POP POP JUMP JUMPDEST PUSH1 0x0 DUP1 PUSH1 0x7 PUSH2 0x558A PUSH2 0x60E5 JUMP JUMPDEST PUSH1 0x1 PUSH1 0x1 PUSH1 0xA0 SHL SUB PUSH2 0x100 SWAP3 SWAP1 SWAP3 EXP SWAP1 DIV AND PUSH4 0xDA46098C DUP6 DUP8 PUSH2 0x5614 DUP7 PUSH1 0x0 PUSH1 0x7 PUSH2 0x55B3 PUSH2 0x60E5 JUMP JUMPDEST SWAP1 PUSH2 0x100 EXP SWAP1 DIV PUSH1 0x1 PUSH1 0x1 PUSH1 0xA0 SHL SUB AND PUSH1 0x1 PUSH1 0x1 PUSH1 0xA0 SHL SUB AND PUSH4 0xDD62ED3E DUP12 DUP14 PUSH1 0x40 MLOAD PUSH1 0x1 PUSH1 0x1 PUSH1 0xE0 SHL SUB NOT PUSH1 0xE0 DUP6 SWAP1 SHL AND DUP2 MSTORE PUSH1 0x1 PUSH1 0x1 PUSH1 0xA0 SHL SUB SWAP3 DUP4 AND PUSH1 0x4 DUP3 ADD MSTORE SWAP2 AND PUSH1 0x24 DUP3 ADD MSTORE PUSH1 0x44 ADD PUSH1 0x20 PUSH1 0x40 MLOAD DUP1 DUP4 SUB DUP2 DUP7 DUP1 PUSH2 0x4A41 PUSH2 0x6140 JUMP JUMPDEST PUSH1 0x40 MLOAD PUSH1 0x1 PUSH1 0x1 PUSH1 0xE0 SHL SUB NOT PUSH1 0xE0 DUP7 SWAP1 SHL AND DUP2 MSTORE PUSH1 0x1 PUSH1 0x1 PUSH1 0xA0 SHL SUB SWAP4 DUP5 AND PUSH1 0x4 DUP3 ADD MSTORE SWAP2 SWAP1 SWAP3 AND PUSH1 0x24 DUP3 ADD MSTORE PUSH1 0x44 DUP2 ADD SWAP2 SWAP1 SWAP2 MSTORE PUSH1 0x64 ADD PUSH1 0x0 PUSH1 0x40 MLOAD DUP1 DUP4 SUB DUP2 PUSH1 0x0 DUP8 DUP1 PUSH2 0x5661 PUSH2 0x6140 JUMP JUMPDEST ISZERO DUP1 ISZERO PUSH2 0x5676 JUMPI PUSH1 0x0 DUP1 PUSH2 0x5673 PUSH2 0x607A JUMP JUMPDEST POP POP JUMPDEST POP GAS PUSH2 0x5680 PUSH2 0x6245 JUMP JUMPDEST POP POP POP POP POP POP ISZERO DUP1 ISZERO PUSH2 0x56A0 JUMPI RETURNDATASIZE PUSH1 0x0 DUP1 RETURNDATACOPY RETURNDATASIZE PUSH1 0x0 PUSH2 0x569D PUSH2 0x607A JUMP JUMPDEST POP POP JUMPDEST POP POP POP POP PUSH2 0x4883 DUP5 DUP5 DUP5 PUSH2 0x5D36 JUMP JUMPDEST PUSH1 0x0 PUSH2 0x4DD6 PUSH16 0x14D958DBDB99185C9E51195C1BDCDA5D PUSH1 0x82 SHL PUSH1 0x40 MLOAD PUSH1 0x60 DUP2 ADD PUSH1 0x40 MSTORE PUSH1 0x2C DUP1 DUP3 MSTORE PUSH2 0x6527 PUSH1 0x20 DUP4 ADD CODECOPY PUSH2 0x5C1D JUMP JUMPDEST PUSH1 0x1 PUSH1 0x1 PUSH1 0xA0 SHL SUB AND SWAP1 JUMP JUMPDEST PUSH1 0x0 PUSH1 0x4 PUSH2 0x56FC PUSH2 0x60E5 JUMP JUMPDEST SWAP1 PUSH2 0x100 EXP SWAP1 DIV PUSH1 0x1 PUSH1 0x1 PUSH1 0xA0 SHL SUB AND PUSH1 0x1 PUSH1 0x1 PUSH1 0xA0 SHL SUB AND GAS PUSH2 0x571E PUSH2 0x62FE JUMP JUMPDEST PUSH1 0x1 PUSH1 0x1 PUSH1 0xA0 SHL SUB AND EQ ISZERO DUP1 ISZERO PUSH2 0x576A JUMPI POP PUSH1 0x0 PUSH1 0x5 PUSH2 0x573C PUSH2 0x60E5 JUMP JUMPDEST SWAP1 PUSH2 0x100 EXP SWAP1 DIV PUSH1 0x1 PUSH1 0x1 PUSH1 0xA0 SHL SUB AND PUSH1 0x1 PUSH1 0x1 PUSH1 0xA0 SHL SUB AND GAS PUSH2 0x575E PUSH2 0x62FE JUMP JUMPDEST PUSH1 0x1 PUSH1 0x1 PUSH1 0xA0 SHL SUB AND EQ ISZERO JUMPDEST DUP1 ISZERO PUSH2 0x57AB JUMPI POP GAS PUSH2 0x577A PUSH2 0x62FE JUMP JUMPDEST PUSH1 0x1 PUSH1 0x1 PUSH1 0xA0 SHL SUB AND PUSH1 0x0 PUSH1 0x6 PUSH2 0x578F PUSH2 0x60E5 JUMP JUMPDEST SWAP1 PUSH2 0x100 EXP SWAP1 DIV PUSH1 0x1 PUSH1 0x1 PUSH1 0xA0 SHL SUB AND PUSH1 0x1 PUSH1 0x1 PUSH1 0xA0 SHL SUB AND EQ ISZERO JUMPDEST ISZERO PUSH2 0x57EC JUMPI GAS PUSH2 0x57B9 PUSH2 0x62FE JUMP JUMPDEST PUSH1 0x6 PUSH1 0x1 DUP2 PUSH2 0x57C6 PUSH2 0x60E5 JUMP JUMPDEST DUP2 PUSH1 0x1 PUSH1 0x1 PUSH1 0xA0 SHL SUB MUL NOT AND SWAP1 DUP4 PUSH1 0x1 PUSH1 0x1 PUSH1 0xA0 SHL SUB AND MUL OR SWAP1 PUSH2 0x57E8 PUSH2 0x6344 JUMP JUMPDEST POP POP POP JUMPDEST PUSH1 0x0 DUP1 PUSH2 0x57F7 PUSH2 0x60E5 JUMP JUMPDEST PUSH1 0x1 PUSH1 0x1 PUSH1 0xA0 SHL SUB PUSH2 0x100 SWAP3 SWAP1 SWAP3 EXP SWAP1 DIV AND PUSH1 0x0 PUSH1 0x6 PUSH2 0x5815 PUSH2 0x60E5 JUMP JUMPDEST SWAP1 PUSH2 0x100 EXP SWAP1 DIV PUSH1 0x1 PUSH1 0x1 PUSH1 0xA0 SHL SUB AND PUSH1 0x1 PUSH1 0x1 PUSH1 0xA0 SHL SUB AND EQ PUSH2 0x399A JUMPI PUSH1 0x40 MLOAD PUSH3 0x461BCD PUSH1 0xE5 SHL DUP2 MSTORE PUSH1 0x20 PUSH1 0x4 DUP3 ADD MSTORE PUSH1 0x13 PUSH1 0x24 DUP3 ADD MSTORE PUSH19 0x27BBB732B91037B7363C90333AB731BA34B7B7 PUSH1 0x69 SHL PUSH1 0x44 DUP3 ADD MSTORE PUSH1 0x64 ADD PUSH1 0x40 MLOAD DUP1 SWAP2 SUB SWAP1 PUSH2 0x2667 PUSH2 0x607A JUMP JUMPDEST PUSH1 0x0 PUSH1 0x4 PUSH2 0x5887 PUSH2 0x60E5 JUMP JUMPDEST SWAP1 PUSH2 0x100 EXP SWAP1 DIV PUSH1 0x1 PUSH1 0x1 PUSH1 0xA0 SHL SUB AND PUSH1 0x1 PUSH1 0x1 PUSH1 0xA0 SHL SUB AND PUSH4 0x907DFF97 DUP3 PUSH1 0x40 MLOAD PUSH1 0x1 PUSH1 0x1 PUSH1 0xA0 SHL SUB SWAP1 SWAP2 AND PUSH1 0x20 DUP3 ADD MSTORE PUSH1 0x40 SWAP1 DUP2 ADD SWAP1 MLOAD PUSH1 0x20 DUP2 DUP4 SUB SUB DUP2 MSTORE SWAP1 PUSH1 0x40 MSTORE PUSH1 0x1 PUSH1 0x40 MLOAD PUSH32 0x546F6B656E537461746555706461746564286164647265737329000000000000 DUP2 MSTORE PUSH1 0x1A ADD PUSH1 0x40 MLOAD DUP1 SWAP2 SUB SWAP1 KECCAK256 PUSH1 0x0 DUP1 PUSH1 0x0 PUSH1 0x40 MLOAD DUP8 PUSH4 0xFFFFFFFF AND PUSH1 0xE0 SHL DUP2 MSTORE PUSH1 0x4 ADD DUP1 DUP1 PUSH1 0x20 ADD DUP8 DUP2 MSTORE PUSH1 0x20 ADD DUP7 DUP2 MSTORE PUSH1 0x20 ADD DUP6 PUSH1 0x0 SHL DUP2 MSTORE PUSH1 0x20 ADD DUP5 PUSH1 0x0 SHL DUP2 MSTORE PUSH1 0x20 ADD DUP4 PUSH1 0x0 SHL DUP2 MSTORE PUSH1 0x20 ADD DUP3 DUP2 SUB DUP3 MSTORE DUP9 DUP2 DUP2 MLOAD DUP2 MSTORE PUSH1 0x20 ADD SWAP2 POP DUP1 MLOAD SWAP1 PUSH1 0x20 ADD SWAP1 DUP1 DUP4 DUP4 PUSH1 0x0 JUMPDEST DUP4 DUP2 LT ISZERO PUSH2 0x5977 JUMPI DUP1 DUP3 ADD MLOAD DUP4 DUP3 ADD MSTORE PUSH1 0x20 ADD PUSH2 0x595F JUMP JUMPDEST POP POP POP POP SWAP1 POP SWAP1 DUP2 ADD SWAP1 PUSH1 0x1F AND DUP1 ISZERO PUSH2 0x59A4 JUMPI DUP1 DUP3 SUB DUP1 MLOAD PUSH1 0x1 DUP4 PUSH1 0x20 SUB PUSH2 0x100 EXP SUB NOT AND DUP2 MSTORE PUSH1 0x20 ADD SWAP2 POP JUMPDEST POP SWAP8 POP POP POP POP POP POP POP POP PUSH1 0x0 PUSH1 0x40 MLOAD DUP1 DUP4 SUB DUP2 PUSH1 0x0 DUP8 DUP1 PUSH2 0x1F73 PUSH2 0x6140 JUMP JUMPDEST PUSH1 0x0 PUSH2 0x1E72 DUP5 DUP5 DUP5 PUSH2 0x5D36 JUMP JUMPDEST PUSH1 0x0 PUSH1 0x4 PUSH2 0x59DC PUSH2 0x60E5 JUMP JUMPDEST SWAP1 PUSH2 0x100 EXP SWAP1 DIV PUSH1 0x1 PUSH1 0x1 PUSH1 0xA0 SHL SUB AND PUSH1 0x1 PUSH1 0x1 PUSH1 0xA0 SHL SUB AND GAS PUSH2 0x59FE PUSH2 0x62FE JUMP JUMPDEST PUSH1 0x1 PUSH1 0x1 PUSH1 0xA0 SHL SUB AND EQ DUP1 PUSH2 0x5A47 JUMPI POP PUSH1 0x0 PUSH1 0x5 PUSH2 0x5A1A PUSH2 0x60E5 JUMP JUMPDEST SWAP1 PUSH2 0x100 EXP SWAP1 DIV PUSH1 0x1 PUSH1 0x1 PUSH1 0xA0 SHL SUB AND PUSH1 0x1 PUSH1 0x1 PUSH1 0xA0 SHL SUB AND GAS PUSH2 0x5A3C PUSH2 0x62FE JUMP JUMPDEST PUSH1 0x1 PUSH1 0x1 PUSH1 0xA0 SHL SUB AND EQ JUMPDEST PUSH2 0x399A JUMPI PUSH1 0x40 MLOAD PUSH3 0x461BCD PUSH1 0xE5 SHL DUP2 MSTORE PUSH1 0x20 PUSH1 0x4 DUP3 ADD MSTORE PUSH1 0x17 PUSH1 0x24 DUP3 ADD MSTORE PUSH32 0x4F6E6C79207468652070726F78792063616E2063616C6C000000000000000000 PUSH1 0x44 DUP3 ADD MSTORE PUSH1 0x64 ADD PUSH1 0x40 MLOAD DUP1 SWAP2 SUB SWAP1 PUSH2 0x2667 PUSH2 0x607A JUMP JUMPDEST PUSH1 0x0 PUSH1 0x4 PUSH2 0x5AA9 PUSH2 0x60E5 JUMP JUMPDEST SWAP1 PUSH2 0x100 EXP SWAP1 DIV PUSH1 0x1 PUSH1 0x1 PUSH1 0xA0 SHL SUB AND PUSH1 0x1 PUSH1 0x1 PUSH1 0xA0 SHL SUB AND PUSH4 0x907DFF97 DUP5 DUP5 DUP5 PUSH1 0x40 MLOAD PUSH1 0x20 DUP2 ADD SWAP4 SWAP1 SWAP4 MSTORE PUSH1 0x40 DUP1 DUP5 ADD SWAP3 SWAP1 SWAP3 MSTORE PUSH1 0x1 PUSH1 0x1 PUSH1 0xA0 SHL SUB AND PUSH1 0x60 DUP4 ADD MSTORE PUSH1 0x80 SWAP1 SWAP2 ADD SWAP1 MLOAD PUSH1 0x20 DUP2 DUP4 SUB SUB DUP2 MSTORE SWAP1 PUSH1 0x40 MSTORE PUSH1 0x2 PUSH1 0x40 MLOAD DUP1 PUSH1 0x32 PUSH2 0x65FA DUP3 CODECOPY PUSH1 0x32 ADD SWAP1 POP PUSH1 0x40 MLOAD DUP1 SWAP2 SUB SWAP1 KECCAK256 PUSH2 0x5B22 DUP10 PUSH2 0x56E4 JUMP JUMPDEST PUSH1 0x0 DUP1 PUSH1 0x40 MLOAD DUP8 PUSH4 0xFFFFFFFF AND PUSH1 0xE0 SHL DUP2 MSTORE PUSH1 0x4 ADD DUP1 DUP1 PUSH1 0x20 ADD DUP8 DUP2 MSTORE PUSH1 0x20 ADD DUP7 DUP2 MSTORE PUSH1 0x20 ADD DUP6 DUP2 MSTORE PUSH1 0x20 ADD DUP5 PUSH1 0x0 SHL DUP2 MSTORE PUSH1 0x20 ADD DUP4 PUSH1 0x0 SHL DUP2 MSTORE PUSH1 0x20 ADD DUP3 DUP2 SUB DUP3 MSTORE DUP9 DUP2 DUP2 MLOAD DUP2 MSTORE PUSH1 0x20 ADD SWAP2 POP DUP1 MLOAD SWAP1 PUSH1 0x20 ADD SWAP1 DUP1 DUP4 DUP4 PUSH1 0x0 JUMPDEST DUP4 DUP2 LT ISZERO PUSH2 0x5B95 JUMPI DUP1 DUP3 ADD MLOAD DUP4 DUP3 ADD MSTORE PUSH1 0x20 ADD PUSH2 0x5B7D JUMP JUMPDEST POP POP POP POP SWAP1 POP SWAP1 DUP2 ADD SWAP1 PUSH1 0x1F AND DUP1 ISZERO PUSH2 0x5BC2 JUMPI DUP1 DUP3 SUB DUP1 MLOAD PUSH1 0x1 DUP4 PUSH1 0x20 SUB PUSH2 0x100 EXP SUB NOT AND DUP2 MSTORE PUSH1 0x20 ADD SWAP2 POP JUMPDEST POP SWAP8 POP POP POP POP POP POP POP POP PUSH1 0x0 PUSH1 0x40 MLOAD DUP1 DUP4 SUB DUP2 PUSH1 0x0 DUP8 DUP1 PUSH2 0x5BE1 PUSH2 0x6140 JUMP JUMPDEST ISZERO DUP1 ISZERO PUSH2 0x5BF6 JUMPI PUSH1 0x0 DUP1 PUSH2 0x5BF3 PUSH2 0x607A JUMP JUMPDEST POP POP JUMPDEST POP GAS PUSH2 0x5C00 PUSH2 0x6245 JUMP JUMPDEST POP POP POP POP POP POP ISZERO DUP1 ISZERO PUSH2 0x413C JUMPI RETURNDATASIZE PUSH1 0x0 DUP1 RETURNDATACOPY RETURNDATASIZE PUSH1 0x0 PUSH2 0x2E86 PUSH2 0x607A JUMP JUMPDEST PUSH1 0x0 DUP3 DUP2 MSTORE PUSH1 0xC PUSH1 0x20 MSTORE DUP1 PUSH1 0x40 DUP2 KECCAK256 PUSH1 0x0 SWAP1 PUSH2 0x5C37 PUSH2 0x60E5 JUMP JUMPDEST PUSH1 0x1 PUSH1 0x1 PUSH1 0xA0 SHL SUB PUSH2 0x100 SWAP3 SWAP1 SWAP3 EXP SWAP1 DIV AND SWAP1 POP DUP3 DUP2 PUSH2 0x5CDE JUMPI PUSH1 0x40 MLOAD PUSH3 0x461BCD PUSH1 0xE5 SHL DUP2 MSTORE PUSH1 0x4 ADD DUP1 DUP1 PUSH1 0x20 ADD DUP3 DUP2 SUB DUP3 MSTORE DUP4 DUP2 DUP2 MLOAD DUP2 MSTORE PUSH1 0x20 ADD SWAP2 POP DUP1 MLOAD SWAP1 PUSH1 0x20 ADD SWAP1 DUP1 DUP4 DUP4 PUSH1 0x0 JUMPDEST DUP4 DUP2 LT ISZERO PUSH2 0x5C9A JUMPI DUP1 DUP3 ADD MLOAD DUP4 DUP3 ADD MSTORE PUSH1 0x20 ADD PUSH2 0x5C82 JUMP JUMPDEST POP POP POP POP SWAP1 POP SWAP1 DUP2 ADD SWAP1 PUSH1 0x1F AND DUP1 ISZERO PUSH2 0x5CC7 JUMPI DUP1 DUP3 SUB DUP1 MLOAD PUSH1 0x1 DUP4 PUSH1 0x20 SUB PUSH2 0x100 EXP SUB NOT AND DUP2 MSTORE PUSH1 0x20 ADD SWAP2 POP JUMPDEST POP SWAP3 POP POP POP PUSH1 0x40 MLOAD DUP1 SWAP2 SUB SWAP1 PUSH2 0x5CDB PUSH2 0x607A JUMP JUMPDEST POP POP JUMPDEST POP SWAP4 SWAP3 POP POP POP JUMP JUMPDEST PUSH1 0x0 PUSH2 0x4DD6 PUSH14 0x53796E7468657469785374617465 PUSH1 0x90 SHL PUSH1 0x40 MLOAD PUSH1 0x40 DUP1 DUP3 ADD SWAP1 MSTORE PUSH1 0x1E DUP2 MSTORE PUSH32 0x4D697373696E672053796E746865746978537461746520616464726573730000 PUSH1 0x20 DUP3 ADD MSTORE PUSH2 0x5C1D JUMP JUMPDEST PUSH1 0x0 PUSH1 0x1 PUSH1 0x1 PUSH1 0xA0 SHL SUB DUP4 AND ISZERO DUP1 ISZERO SWAP1 PUSH2 0x5DBA JUMPI POP GAS PUSH4 0x996D79A5 MSIZE DUP2 PUSH1 0xE0 SHL DUP2 MSTORE PUSH1 0x20 DUP2 PUSH1 0x4 DUP4 CALLER PUSH1 0x0 SWAP1 GAS CALL PC PUSH1 0xE ADD JUMPI RETURNDATASIZE PUSH1 0x0 DUP1 RETURNDATACOPY RETURNDATASIZE PUSH1 0x0 REVERT JUMPDEST RETURNDATASIZE PUSH1 0x1 EQ ISZERO PC PUSH1 0xA ADD JUMPI PUSH1 0x1 PUSH1 0x0 RETURN JUMPDEST DUP1 MLOAD SWAP3 POP PUSH1 0x0 JUMPDEST PUSH1 0x40 DUP2 LT ISZERO PUSH2 0x5DA1 JUMPI PUSH1 0x0 DUP3 DUP3 ADD MSTORE PUSH1 0x20 ADD PUSH2 0x5D8A JUMP JUMPDEST POP POP POP PUSH1 0x1 PUSH1 0x1 PUSH1 0xA0 SHL SUB AND DUP4 PUSH1 0x1 PUSH1 0x1 PUSH1 0xA0 SHL SUB AND EQ ISZERO JUMPDEST DUP1 ISZERO PUSH2 0x5DF3 JUMPI POP PUSH1 0x0 PUSH1 0x4 PUSH2 0x5DCD PUSH2 0x60E5 JUMP JUMPDEST SWAP1 PUSH2 0x100 EXP SWAP1 DIV PUSH1 0x1 PUSH1 0x1 PUSH1 0xA0 SHL SUB AND PUSH1 0x1 PUSH1 0x1 PUSH1 0xA0 SHL SUB AND DUP4 PUSH1 0x1 PUSH1 0x1 PUSH1 0xA0 SHL SUB AND EQ ISZERO JUMPDEST PUSH2 0x5E4C JUMPI PUSH1 0x40 MLOAD PUSH3 0x461BCD PUSH1 0xE5 SHL DUP2 MSTORE PUSH1 0x20 PUSH1 0x4 DUP3 ADD MSTORE PUSH1 0x1F PUSH1 0x24 DUP3 ADD MSTORE PUSH32 0x43616E6E6F74207472616E7366657220746F2074686973206164647265737300 PUSH1 0x44 DUP3 ADD MSTORE PUSH1 0x64 ADD PUSH1 0x40 MLOAD DUP1 SWAP2 SUB SWAP1 PUSH2 0x5E49 PUSH2 0x607A JUMP JUMPDEST POP POP JUMPDEST PUSH1 0x0 PUSH1 0x7 PUSH2 0x5E58 PUSH2 0x60E5 JUMP JUMPDEST PUSH1 0x1 PUSH1 0x1 PUSH1 0xA0 SHL SUB PUSH2 0x100 SWAP3 SWAP1 SWAP3 EXP SWAP1 DIV AND PUSH4 0xB46310F6 DUP6 PUSH2 0x5ED9 DUP6 PUSH1 0x0 PUSH1 0x7 PUSH2 0x5E80 PUSH2 0x60E5 JUMP JUMPDEST SWAP1 PUSH2 0x100 EXP SWAP1 DIV PUSH1 0x1 PUSH1 0x1 PUSH1 0xA0 SHL SUB AND PUSH1 0x1 PUSH1 0x1 PUSH1 0xA0 SHL SUB AND PUSH4 0x70A08231 DUP11 PUSH1 0x40 MLOAD PUSH1 0x1 PUSH1 0x1 PUSH1 0xE0 SHL SUB NOT PUSH1 0xE0 DUP5 SWAP1 SHL AND DUP2 MSTORE PUSH1 0x1 PUSH1 0x1 PUSH1 0xA0 SHL SUB SWAP1 SWAP2 AND PUSH1 0x4 DUP3 ADD MSTORE PUSH1 0x24 ADD PUSH1 0x20 PUSH1 0x40 MLOAD DUP1 DUP4 SUB DUP2 DUP7 DUP1 PUSH2 0x4A41 PUSH2 0x6140 JUMP JUMPDEST PUSH1 0x40 MLOAD PUSH1 0x1 PUSH1 0x1 PUSH1 0xE0 SHL SUB NOT PUSH1 0xE0 DUP6 SWAP1 SHL AND DUP2 MSTORE PUSH1 0x1 PUSH1 0x1 PUSH1 0xA0 SHL SUB SWAP1 SWAP3 AND PUSH1 0x4 DUP4 ADD MSTORE PUSH1 0x24 DUP3 ADD MSTORE PUSH1 0x44 ADD PUSH1 0x0 PUSH1 0x40 MLOAD DUP1 DUP4 SUB DUP2 PUSH1 0x0 DUP8 DUP1 PUSH2 0x5F1A PUSH2 0x6140 JUMP JUMPDEST ISZERO DUP1 ISZERO PUSH2 0x5F2F JUMPI PUSH1 0x0 DUP1 PUSH2 0x5F2C PUSH2 0x607A JUMP JUMPDEST POP POP JUMPDEST POP GAS PUSH2 0x5F39 PUSH2 0x6245 JUMP JUMPDEST POP POP POP POP POP POP ISZERO DUP1 ISZERO PUSH2 0x5F59 JUMPI RETURNDATASIZE PUSH1 0x0 DUP1 RETURNDATACOPY RETURNDATASIZE PUSH1 0x0 PUSH2 0x5F56 PUSH2 0x607A JUMP JUMPDEST POP POP JUMPDEST POP POP POP POP PUSH1 0x7 PUSH1 0x0 SWAP1 PUSH2 0x5F6A PUSH2 0x60E5 JUMP JUMPDEST PUSH1 0x1 PUSH1 0x1 PUSH1 0xA0 SHL SUB PUSH2 0x100 SWAP3 SWAP1 SWAP3 EXP SWAP1 DIV AND PUSH4 0xB46310F6 DUP5 PUSH2 0x5FEB DUP6 PUSH1 0x0 PUSH1 0x7 PUSH2 0x5F92 PUSH2 0x60E5 JUMP JUMPDEST SWAP1 PUSH2 0x100 EXP SWAP1 DIV PUSH1 0x1 PUSH1 0x1 PUSH1 0xA0 SHL SUB AND PUSH1 0x1 PUSH1 0x1 PUSH1 0xA0 SHL SUB AND PUSH4 0x70A08231 DUP10 PUSH1 0x40 MLOAD PUSH1 0x1 PUSH1 0x1 PUSH1 0xE0 SHL SUB NOT PUSH1 0xE0 DUP5 SWAP1 SHL AND DUP2 MSTORE PUSH1 0x1 PUSH1 0x1 PUSH1 0xA0 SHL SUB SWAP1 SWAP2 AND PUSH1 0x4 DUP3 ADD MSTORE PUSH1 0x24 ADD PUSH1 0x20 PUSH1 0x40 MLOAD DUP1 DUP4 SUB DUP2 DUP7 DUP1 PUSH2 0x16CB PUSH2 0x6140 JUMP JUMPDEST PUSH1 0x40 MLOAD PUSH1 0x1 PUSH1 0x1 PUSH1 0xE0 SHL SUB NOT PUSH1 0xE0 DUP6 SWAP1 SHL AND DUP2 MSTORE PUSH1 0x1 PUSH1 0x1 PUSH1 0xA0 SHL SUB SWAP1 SWAP3 AND PUSH1 0x4 DUP4 ADD MSTORE PUSH1 0x24 DUP3 ADD MSTORE PUSH1 0x44 ADD PUSH1 0x0 PUSH1 0x40 MLOAD DUP1 DUP4 SUB DUP2 PUSH1 0x0 DUP8 DUP1 PUSH2 0x602C PUSH2 0x6140 JUMP JUMPDEST ISZERO DUP1 ISZERO PUSH2 0x6041 JUMPI PUSH1 0x0 DUP1 PUSH2 0x603E PUSH2 0x607A JUMP JUMPDEST POP POP JUMPDEST POP GAS PUSH2 0x604B PUSH2 0x6245 JUMP JUMPDEST POP POP POP POP POP POP ISZERO DUP1 ISZERO PUSH2 0x606B JUMPI RETURNDATASIZE PUSH1 0x0 DUP1 RETURNDATACOPY RETURNDATASIZE PUSH1 0x0 PUSH2 0x6068 PUSH2 0x607A JUMP JUMPDEST POP POP JUMPDEST POP POP POP POP PUSH2 0x11F7 DUP5 DUP5 DUP5 PUSH2 0x5138 JUMP JUMPDEST PUSH4 0x2A2A7ADB MSIZE DUP2 PUSH1 0xE0 SHL DUP2 MSTORE PUSH1 0x4 DUP2 ADD PUSH1 0x20 DUP2 MSTORE DUP6 PUSH1 0x20 DUP3 ADD MSTORE PUSH1 0x0 JUMPDEST DUP7 DUP2 LT ISZERO PUSH2 0x60B2 JUMPI DUP1 DUP7 ADD MLOAD DUP3 DUP3 ADD PUSH1 0x40 ADD MSTORE PUSH1 0x20 ADD PUSH2 0x6097 JUMP JUMPDEST POP PUSH1 0x20 DUP3 DUP8 PUSH1 0x64 ADD DUP5 CALLER PUSH1 0x0 SWAP1 GAS CALL PC PUSH1 0xE ADD JUMPI RETURNDATASIZE PUSH1 0x0 DUP1 RETURNDATACOPY RETURNDATASIZE PUSH1 0x0 REVERT JUMPDEST RETURNDATASIZE PUSH1 0x1 EQ ISZERO PC PUSH1 0xA ADD JUMPI PUSH1 0x1 PUSH1 0x0 RETURN JUMPDEST POP POP POP JUMP JUMPDEST PUSH4 0x3DAA959 MSIZE DUP2 PUSH1 0xE0 SHL DUP2 MSTORE DUP4 PUSH1 0x4 DUP3 ADD MSTORE PUSH1 0x20 DUP2 PUSH1 0x24 DUP4 CALLER PUSH1 0x0 SWAP1 GAS CALL PC PUSH1 0xE ADD JUMPI RETURNDATASIZE PUSH1 0x0 DUP1 RETURNDATACOPY RETURNDATASIZE PUSH1 0x0 REVERT JUMPDEST RETURNDATASIZE PUSH1 0x1 EQ ISZERO PC PUSH1 0xA ADD JUMPI PUSH1 0x1 PUSH1 0x0 RETURN JUMPDEST DUP1 MLOAD SWAP4 POP PUSH1 0x0 JUMPDEST PUSH1 0x40 DUP2 LT ISZERO PUSH2 0x33B7 JUMPI PUSH1 0x0 DUP3 DUP3 ADD MSTORE PUSH1 0x20 ADD PUSH2 0x6129 JUMP JUMPDEST PUSH4 0x8435035B MSIZE DUP2 PUSH1 0xE0 SHL DUP2 MSTORE DUP4 PUSH1 0x4 DUP3 ADD MSTORE PUSH1 0x20 DUP2 PUSH1 0x24 DUP4 CALLER PUSH1 0x0 SWAP1 GAS CALL PC PUSH1 0xE ADD JUMPI RETURNDATASIZE PUSH1 0x0 DUP1 RETURNDATACOPY RETURNDATASIZE PUSH1 0x0 REVERT JUMPDEST RETURNDATASIZE PUSH1 0x1 EQ ISZERO PC PUSH1 0xA ADD JUMPI PUSH1 0x1 PUSH1 0x0 RETURN JUMPDEST DUP1 MLOAD PUSH1 0x0 DUP3 MSTORE SWAP4 POP PUSH1 0x20 PUSH2 0x6129 JUMP JUMPDEST PUSH4 0x8540661F MSIZE DUP2 PUSH1 0xE0 SHL DUP2 MSTORE DUP4 PUSH1 0x4 DUP3 ADD MSTORE DUP5 PUSH1 0x24 DUP3 ADD MSTORE PUSH1 0x60 PUSH1 0x44 DUP3 ADD MSTORE DUP7 PUSH1 0x64 DUP3 ADD MSTORE PUSH1 0x84 DUP2 ADD PUSH1 0x0 JUMPDEST DUP9 DUP2 LT ISZERO PUSH2 0x61D0 JUMPI DUP1 DUP9 ADD MLOAD DUP3 DUP3 ADD MSTORE PUSH1 0x20 ADD PUSH2 0x61B8 JUMP JUMPDEST POP DUP8 PUSH2 0x104 ADD DUP3 ADD PUSH1 0x60 DUP4 DUP11 PUSH2 0x104 ADD DUP6 CALLER PUSH1 0x0 SWAP1 GAS CALL PC PUSH1 0xE ADD JUMPI RETURNDATASIZE PUSH1 0x0 DUP1 RETURNDATACOPY RETURNDATASIZE PUSH1 0x0 REVERT JUMPDEST RETURNDATASIZE PUSH1 0x1 EQ ISZERO PC PUSH1 0xA ADD JUMPI PUSH1 0x1 PUSH1 0x0 RETURN JUMPDEST DUP3 MLOAD PUSH1 0x40 DUP5 ADD MLOAD RETURNDATASIZE PUSH1 0x0 DUP7 RETURNDATACOPY DUP13 DUP13 DUP3 PUSH1 0x60 DUP9 ADD CALLER POP PUSH1 0x0 PUSH1 0x4 GAS CALL POP MSIZE DUP6 JUMPDEST DUP2 DUP2 LT ISZERO PUSH2 0x6239 JUMPI PUSH1 0x0 DUP2 MSTORE PUSH1 0x20 ADD PUSH2 0x6225 JUMP JUMPDEST POP SWAP2 SWAP13 POP POP POP POP POP POP POP JUMP JUMPDEST PUSH4 0x85979F76 MSIZE DUP2 PUSH1 0xE0 SHL DUP2 MSTORE DUP4 PUSH1 0x4 DUP3 ADD MSTORE DUP5 PUSH1 0x24 DUP3 ADD MSTORE PUSH1 0x60 PUSH1 0x44 DUP3 ADD MSTORE DUP8 PUSH1 0x64 DUP3 ADD MSTORE PUSH1 0x84 DUP2 ADD PUSH1 0x0 JUMPDEST DUP10 DUP2 LT ISZERO PUSH2 0x6289 JUMPI DUP1 DUP10 ADD MLOAD DUP3 DUP3 ADD MSTORE PUSH1 0x20 ADD PUSH2 0x6271 JUMP JUMPDEST POP DUP9 PUSH2 0x104 ADD DUP3 ADD PUSH1 0x60 DUP4 DUP12 PUSH2 0x104 ADD DUP6 CALLER PUSH1 0x0 SWAP1 GAS CALL PC PUSH1 0xE ADD JUMPI RETURNDATASIZE PUSH1 0x0 DUP1 RETURNDATACOPY RETURNDATASIZE PUSH1 0x0 REVERT JUMPDEST RETURNDATASIZE PUSH1 0x1 EQ ISZERO PC PUSH1 0xA ADD JUMPI PUSH1 0x1 PUSH1 0x0 RETURN JUMPDEST DUP3 MLOAD PUSH1 0x40 DUP5 ADD MLOAD RETURNDATASIZE PUSH1 0x0 DUP7 RETURNDATACOPY DUP14 DUP14 DUP3 PUSH1 0x60 DUP9 ADD CALLER POP PUSH1 0x0 PUSH1 0x4 GAS CALL POP MSIZE DUP6 JUMPDEST DUP2 DUP2 LT ISZERO PUSH2 0x62F2 JUMPI PUSH1 0x0 DUP2 MSTORE PUSH1 0x20 ADD PUSH2 0x62DE JUMP JUMPDEST POP SWAP2 SWAP14 POP POP POP POP POP POP POP JUMP JUMPDEST PUSH4 0x73509064 MSIZE DUP2 PUSH1 0xE0 SHL DUP2 MSTORE PUSH1 0x20 DUP2 PUSH1 0x4 DUP4 CALLER PUSH1 0x0 SWAP1 GAS CALL PC PUSH1 0xE ADD JUMPI RETURNDATASIZE PUSH1 0x0 DUP1 RETURNDATACOPY RETURNDATASIZE PUSH1 0x0 REVERT JUMPDEST RETURNDATASIZE PUSH1 0x1 EQ ISZERO PC PUSH1 0xA ADD JUMPI PUSH1 0x1 PUSH1 0x0 RETURN JUMPDEST DUP1 MLOAD PUSH1 0x0 DUP3 MSTORE SWAP4 POP PUSH1 0x20 PUSH2 0x6129 JUMP JUMPDEST PUSH4 0x22BD64C0 MSIZE DUP2 PUSH1 0xE0 SHL DUP2 MSTORE DUP4 PUSH1 0x4 DUP3 ADD MSTORE DUP5 PUSH1 0x24 DUP3 ADD MSTORE PUSH1 0x0 DUP2 PUSH1 0x44 DUP4 CALLER PUSH1 0x0 SWAP1 GAS CALL PC PUSH1 0xE ADD JUMPI RETURNDATASIZE PUSH1 0x0 DUP1 RETURNDATACOPY RETURNDATASIZE PUSH1 0x0 REVERT JUMPDEST RETURNDATASIZE PUSH1 0x1 EQ ISZERO PC PUSH1 0xA ADD JUMPI PUSH1 0x1 PUSH1 0x0 RETURN JUMPDEST PUSH1 0x0 DUP2 MSTORE PUSH1 0x20 PUSH2 0x6129 JUMP JUMPDEST PUSH4 0xBDBF8C36 MSIZE DUP2 PUSH1 0xE0 SHL DUP2 MSTORE PUSH1 0x20 DUP2 PUSH1 0x4 DUP4 CALLER PUSH1 0x0 SWAP1 GAS CALL PC PUSH1 0xE ADD JUMPI RETURNDATASIZE PUSH1 0x0 DUP1 RETURNDATACOPY RETURNDATASIZE PUSH1 0x0 REVERT JUMPDEST RETURNDATASIZE PUSH1 0x1 EQ ISZERO PC PUSH1 0xA ADD JUMPI PUSH1 0x1 PUSH1 0x0 RETURN JUMPDEST DUP1 MLOAD PUSH1 0x0 DUP3 MSTORE SWAP4 POP PUSH1 0x20 PUSH2 0x6129 JUMP JUMPDEST PUSH1 0x40 MLOAD PUSH2 0x300 DUP1 DUP3 ADD PUSH1 0x40 MSTORE PUSH1 0x18 SWAP1 DUP3 SWAP1 DUP1 CODESIZE DUP4 CODECOPY POP SWAP2 SWAP3 SWAP2 POP POP JUMP INVALID MSIZE PUSH16 0x75206D757374206265206E6F6D696E61 PUSH21 0x6564206265666F726520796F752063616E20616363 PUSH6 0x7074206F776E PUSH6 0x727368697045 PUSH25 0x6368616E67655265636C61696D28616464726573732C627974 PUSH6 0x7333322C7569 PUSH15 0x74323536294F6E6C79204578636861 PUSH15 0x6765722063616E20696E766F6B6520 PUSH21 0x686973000053796E746845786368616E6765286164 PUSH5 0x726573732C PUSH3 0x797465 PUSH20 0x33322C75696E743235362C627974657333322C75 PUSH10 0x6E743235362C61646472 PUSH6 0x73732943616E PUSH15 0x6F74207472616E7366657220737461 PUSH12 0x6564206F7220657363726F77 PUSH6 0x6420534E584F PUSH15 0x6C792074686520636F6E7472616374 KECCAK256 PUSH16 0x776E6572206D617920706572666F726D KECCAK256 PUSH21 0x68697320616374696F6E417070726F76616C286164 PUSH5 0x726573732C PUSH2 0x6464 PUSH19 0x6573732C75696E74323536295265736F6C7665 PUSH19 0x206973206D697373696E67205365636F6E6461 PUSH19 0x794465706F73697420616464726573734D6973 PUSH20 0x696E672052657761726473446973747269627574 PUSH10 0x6F6E2061646472657373 GASLIMIT PUSH25 0x6368616E676552656261746528616464726573732C62797465 PUSH20 0x33322C75696E743235362945786368616E676554 PUSH19 0x61636B696E6728627974657333322C62797465 PUSH20 0x33322C75696E743235362943616E206F6E6C7920 PUSH3 0x652069 PUSH15 0x766F6B656420627920746865205365 PUSH4 0x6F6E6461 PUSH19 0x794465706F73697420636F6E74726163744163 PUSH4 0x6F756E74 0x4C PUSH10 0x71756964617465642861 PUSH5 0x6472657373 0x2C PUSH22 0x696E743235362C75696E743235362C61646472657373 0x29 SLOAD PUSH19 0x616E7366657228616464726573732C61646472 PUSH6 0x73732C75696E PUSH21 0x323536290000000000000000000000000000000000 "
		},
		"deployedBytecode": {
			"linkReferences": {},
			"object": "60806040523480156100195760008061001661607a565b50505b50600436106104525760003560e01c80638a2900141161024a578063bc67f83211610144578063dbf63340116100cc578063e8e09b8b11610090578063e8e09b8b14610ec0578063e90dd9e214610ef5578063ec55688914610efd578063edef719a14610f05578063ee52a2f314610f3a57610452565b8063dbf6334014610e12578063dd62ed3e14610e1a578063ddd03a3f14610e51578063e3235c9114610e83578063e6203ed114610e8b57610452565b8063c6c9d82811610113578063c6c9d82814610d48578063c836fa0a14610d6e578063d37c4d8b14610daf578063d60888e414610de4578063d67bdd2514610e0a57610452565b8063bc67f83214610cd4578063bd32aa4414610d03578063c2bf388014610d0b578063c58aaae614610d4057610452565b80639cbdaeb6116101d2578063a9059cbb11610196578063a9059cbb14610c13578063ab49848c14610c48578063ace88afd14610c89578063af086c7e14610cc4578063b8225dec14610ccc57610452565b80639cbdaeb614610b765780639f76980714610b7e578063a311c7c214610bad578063a461fc8214610bdc578063a5fdc5de14610be457610452565b806395d89b411161021957806395d89b4114610b0957806397107d6d14610b115780639741fb2214610b40578063987757dd14610b485780639cb8a26a14610b6e57610452565b80638a29001414610a845780638da5cb5b14610aaa57806391e56b6814610ab25780639324cac714610b0157610452565b80632e0f26251161035b578063631e1444116102e357806370a08231116102a757806370a08231146109a657806372cb051f146109d557806379ba509714610a30578063835e119c14610a3857806383d625d414610a5e57610452565b8063631e144414610889578063666ed4f1146108b85780636ac0bf9c146108ed5780636c00f3101461091c5780636f01a9861461096b57610452565b8063326080391161032a578063326080391461081c5780633278c960146108425780633be99e6f1461084a5780634e99bda91461087957806353a47bb71461088157610452565b80632e0f26251461078057806330ead7601461079e578063313ce567146107e5578063320223db146107ed57610452565b806317c70de4116103de57806320714f88116103ad57806320714f88146106b557806323b872dd146106e4578063295da87d146107235780632a905318146107495780632c955fa71461075157610452565b806317c70de41461067757806318160ddd1461067f57806318821400146106875780631fce304d1461068f57610452565b80631137aedf116104255780631137aedf1461058d5780631249c58b146105e0578063131b0ae7146105e85780631627540c1461061957806316b2213f1461064857610452565b806304f3bcec1461046057806305b3c1c91461048457806306fdde03146104c5578063095ea7b314610544575b60008061045d61607a565b50505b610468610f6c565b6040516001600160a01b03909116815260200160405180910390f35b6104b3600480360360208110156104a3576000806104a061607a565b50505b50356001600160a01b0316610f8b565b60405190815260200160405180910390f35b6104cd61104c565b60405160208082528190810183818151815260200191508051906020019080838360005b838110156105095780820151838201526020016104f1565b50505050905090810190601f1680156105365780820380516001836020036101000a031916815260200191505b509250505060405180910390f35b610579600480360360408110156105635760008061056061607a565b50505b506001600160a01b038135169060200135611105565b604051901515815260200160405180910390f35b6105bc600480360360208110156105ac576000806105a961607a565b50505b50356001600160a01b0316611201565b60405180848152602001838152602001828152602001935050505060405180910390f35b6105796112db565b610617600480360360208110156106075760008061060461607a565b50505b50356001600160a01b0316611a9c565b005b610617600480360360208110156106385760008061063561607a565b50505b50356001600160a01b0316611ada565b6104b3600480360360208110156106675760008061066461607a565b50505b50356001600160a01b0316611b54565b6104b3611ba7565b6104b3611bb4565b6104cd611bbe565b610579600480360360208110156106ae576000806106ab61607a565b50505b5035611bf5565b610617600480360360208110156106d4576000806106d161607a565b50505b50356001600160a01b0316611cda565b610579600480360360608110156107035760008061070061607a565b50505b506001600160a01b03813581169160208101359091169060400135611db9565b610617600480360360208110156107425760008061073f61607a565b50505b5035611e7a565b6104cd611fba565b610617600480360360208110156107705760008061076d61607a565b50505b50356001600160a01b0316611fd7565b6107886120d2565b60405160ff909116815260200160405180910390f35b6104b3600480360360a08110156107bd576000806107ba61607a565b50505b508035906020810135906040810135906001600160a01b0360608201351690608001356120d7565b610788612323565b6106176004803603602081101561080c5760008061080961607a565b50505b50356001600160a01b031661233c565b6104686004803603602081101561083b5760008061083861607a565b50505b50356123e4565b61061761242f565b610617600480360360208110156108695760008061086661607a565b50505b50356001600160a01b03166124a0565b61057961266b565b610468612713565b610579600480360360208110156108a8576000806108a561607a565b50505b50356001600160a01b031661271f565b610617600480360360408110156108d7576000806108d461607a565b50505b506001600160a01b0381351690602001356128fa565b6104b36004803603602081101561090c5760008061090961607a565b50505b50356001600160a01b0316612aef565b610617600480360360c081101561093b5760008061093861607a565b50505b506001600160a01b03813581169160208101359160408201359160608101359160808201359160a0013516612c89565b6106176004803603606081101561098a5760008061098761607a565b50505b506001600160a01b038135169060208101359060400135612e92565b6104b3600480360360208110156109c5576000806109c261607a565b50505b50356001600160a01b0316613078565b6109dd6130de565b60405160208082528190810183818151815260200191508051906020019060200280838360005b83811015610a1c578082015183820152602001610a04565b505050509050019250505060405180910390f35b610617613239565b61046860048036036020811015610a5757600080610a5461607a565b50505b50356133bc565b6104b360048036036020811015610a7d57600080610a7a61607a565b50505b5035613407565b61061760048036036020811015610aa357600080610aa061607a565b50505b503561345b565b610468613502565b6104b3600480360360c0811015610ad157600080610ace61607a565b50505b506001600160a01b0381358116916020810135916040820135916060810135916080820135169060a0013561350d565b6104b361373c565b6104cd613747565b61061760048036036020811015610b3057600080610b2d61607a565b50505b50356001600160a01b03166137e9565b610617613864565b6105bc60048036036020811015610b6757600080610b6461607a565b50505b503561399c565b610617613a59565b610468613b9c565b61061760048036036020811015610b9d57600080610b9a61607a565b50505b50356001600160a01b0316613ba8565b6104b360048036036020811015610bcc57600080610bc961607a565b50505b50356001600160a01b0316613bec565b6104b3613c3f565b6104b360048036036020811015610c0357600080610c0061607a565b50505b50356001600160a01b0316613c46565b61057960048036036040811015610c3257600080610c2f61607a565b50505b506001600160a01b038135169060200135613c99565b610c50613d6d565b604051808261030080838360005b83811015610c76578082015183820152602001610c5e565b5050505090500191505060405180910390f35b61061760048036036060811015610ca857600080610ca561607a565b50505b506001600160a01b038135169060208101359060400135613dcf565b610617613eaf565b610579613f56565b61061760048036036020811015610cf357600080610cf061607a565b50505b50356001600160a01b0316613f62565b610617613f78565b61061760048036036040811015610d2a57600080610d2761607a565b50505b506001600160a01b038135169060200135613ffa565b610468614146565b6104b360048036036020811015610d6757600080610d6461607a565b50505b5035614152565b6104b360048036036080811015610d8d57600080610d8a61607a565b50505b506001600160a01b03813516906020810135906040810135906060013561417a565b6104b360048036036040811015610dce57600080610dcb61607a565b50505b506001600160a01b038135169060200135614396565b6104b360048036036020811015610e0357600080610e0061607a565b50505b503561445c565b6104686144b0565b6104b36144bc565b6104b360048036036040811015610e3957600080610e3661607a565b50505b506001600160a01b03813581169160200135166144f9565b61061760048036036060811015610e7057600080610e6d61607a565b50505b5080359060208101359060400135614567565b6104b36146b0565b61057960048036036040811015610eaa57600080610ea761607a565b50505b506001600160a01b0381351690602001356146b5565b61061760048036036040811015610edf57600080610edc61607a565b50505b506001600160a01b03813516906020013561488c565b610468614934565b610468614940565b61061760048036036040811015610f2457600080610f2161607a565b50505b506001600160a01b03813516906020013561494c565b6104b360048036036060811015610f5957600080610f5661607a565b50505b5080359060208101359060400135614b5f565b6001600b610f786160e5565b906101000a90046001600160a01b031681565b6000610f95614d95565b6001600160a01b03166305b3c1c9836040516001600160e01b031960e084901b1681526001600160a01b0390911660048201526024016020604051808303818680610fde616140565b158015610ff357600080610ff061607a565b50505b505a610ffd61618c565b505050505015801561101c573d6000803e3d600061101961607a565b50505b505050506040513d602081101561103b5760008061103861607a565b50505b81019080805193505050505b919050565b6008806110576160e5565b600181600116156101000203166002900480601f0160208091040260200160405190810160405281815291906020830182806110916160e5565b600181600116156101000203166002900480156110fd5780601f106110cb5761010080836110bd6160e5565b0402835291602001916110fd565b820191906000526020600020905b816110e26160e5565b815290600101906020018083116110d957829003601f168201915b505050505081565b600061110f614ddb565b600080600661111c6160e5565b906101000a90046001600160a01b03169050600760009061113b6160e5565b906101000a90046001600160a01b03166001600160a01b031663da46098c8286866040516001600160e01b031960e086901b1681526001600160a01b0393841660048201529190921660248201526044810191909152606401600060405180830381600087806111a9616140565b1580156111be576000806111bb61607a565b50505b505a6111c8616245565b5050505050501580156111e8573d6000803e3d60006111e561607a565b50505b505050506111f7818585614eb1565b5060019392505050565b600080600061120e614d95565b6001600160a01b0316631137aedf856040516001600160e01b031960e084901b1681526001600160a01b0390911660048201526024016060604051808303818680611257616140565b15801561126c5760008061126961607a565b50505b505a61127661618c565b5050505050158015611295573d6000803e3d600061129261607a565b50505b505050506040513d60608110156112b4576000806112b161607a565b50505b81019080805192919060200180519291906020018051949993985093965091945050505050565b60006112e5614f94565b6001600160a01b0316637c3125416040518163ffffffff1660e01b81526004016000604051808303818680611318616140565b15801561132d5760008061132a61607a565b50505b505a61133761618c565b5050505050158015611356573d6000803e3d600061135361607a565b50505b5050505060006001600160a01b031661136d614fe2565b6001600160a01b031614156113d15760405162461bcd60e51b815260206004820152601b60248201527f52657761726473446973747269627574696f6e206e6f742073657400000000006044820152606401604051809103906113ce61607a565b50505b60006113db61501a565b905060006113e7614fe2565b90506000826001600160a01b031663cc5c095c6040518163ffffffff1660e01b8152600401602060405180830381868061141f616140565b1580156114345760008061143161607a565b50505b505a61143e61618c565b505050505015801561145d573d6000803e3d600061145a61607a565b50505b505050506040513d602081101561147c5760008061147961607a565b50505b8101908080519350505081151590506114dc5760405162461bcd60e51b81526020600482015260156024820152744e6f20737570706c79206973206d696e7461626c6560581b6044820152606401604051809103906114d961607a565b50505b826001600160a01b0316637e7961d7826040516001600160e01b031960e084901b168152600481019190915260240160206040518083038160008780611520616140565b1580156115355760008061153261607a565b50505b505a61153f616245565b50505050505015801561155f573d6000803e3d600061155c61607a565b50505b505050506040513d602081101561157e5760008061157b61607a565b50505b810190808051506000925050506001600160a01b038416639bdd7ac76040518163ffffffff1660e01b815260040160206040518083038186806115bf616140565b1580156115d4576000806115d161607a565b50505b505a6115de61618c565b50505050501580156115fd573d6000803e3d60006115fa61607a565b50505b505050506040513d602081101561161c5760008061161961607a565b50505b81019080805193506000925061163c91508490508363ffffffff61506a16565b90506000600761164a6160e5565b6001600160a01b036101009290920a90041663b46310f68561173f84600060076116726160e5565b906101000a90046001600160a01b03166001600160a01b03166370a082318a6040516001600160e01b031960e084901b1681526001600160a01b03909116600482015260240160206040518083038186806116cb616140565b1580156116e0576000806116dd61607a565b50505b505a6116ea61618c565b5050505050158015611709573d6000803e3d600061170661607a565b50505b505050506040513d60208110156117285760008061172561607a565b50505b8101908080519392505063ffffffff6150cf169050565b6040516001600160e01b031960e085901b1681526001600160a01b039092166004830152602482015260440160006040518083038160008780611780616140565b1580156117955760008061179261607a565b50505b505a61179f616245565b5050505050501580156117bf573d6000803e3d60006117bc61607a565b50505b505050506118265a63996d79a5598160e01b8152602081600483336000905af158601d01573d60011458600c01573d6000803e3d621234565260ea61109c528051925060005b604081101561181c57600082820152602001611805565b5050508583615138565b836001600160a01b03166359974e38826040516001600160e01b031960e084901b16815260048101919091526024016020604051808303816000878061186a616140565b15801561187f5760008061187c61607a565b50505b505a611889616245565b5050505050501580156118a9573d6000803e3d60006118a661607a565b50505b505050506040513d60208110156118c8576000806118c561607a565b50505b8101908080515060009250600791506118e190506160e5565b906101000a90046001600160a01b03166001600160a01b031663b46310f65a6119086162fe565b61197985600060076119186160e5565b906101000a90046001600160a01b03166001600160a01b03166370a082315a61193f6162fe565b6040516001600160e01b031960e084901b1681526001600160a01b03909116600482015260240160206040518083038186806116cb616140565b6040516001600160e01b031960e085901b1681526001600160a01b0390921660048301526024820152604401600060405180830381600087806119ba616140565b1580156119cf576000806119cc61607a565b50505b505a6119d9616245565b5050505050501580156119f9573d6000803e3d60006119f661607a565b50505b50505050611a685a63996d79a5598160e01b8152602081600483336000905af158601d01573d60011458600c01573d6000803e3d621234565260ea61109c528051925060005b6040811015611a5657600082820152602001611a3f565b5050505a611a626162fe565b84615138565b611a8283600a611a766160e5565b9063ffffffff6150cf16565b80600a611a8d616344565b50505060019550505050505090565b611aa46151a5565b806005600181611ab26160e5565b816001600160a01b0302191690836001600160a01b0316021790611ad4616344565b50505050565b611ae26151a5565b8060018080611aef6160e5565b816001600160a01b0302191690836001600160a01b0316021790611b11616344565b5050507f906a1c6bd7e3091ea86693dd029a831c19049ce77f1dce2ce0bab1cacbabce22816040516001600160a01b03909116815260200160405180910390a150565b6000611b5e614d95565b6001600160a01b03166316b2213f836040516001600160e01b031960e084901b1681526001600160a01b0390911660048201526024016020604051808303818680610fde616140565b6002611bb16160e5565b81565b600a611bb16160e5565b60405160408082019052601781527f53796e746865746978204e6574776f726b20546f6b656e000000000000000000602082015281565b600080611c0061521d565b6001600160a01b031663059c29ec60006006611c1a6160e5565b906101000a90046001600160a01b0316856040516001600160e01b031960e085901b1681526001600160a01b03909216600483015260248201526044016020604051808303818680611c6a616140565b158015611c7f57600080611c7c61607a565b50505b505a611c8961618c565b5050505050158015611ca8573d6000803e3d6000611ca561607a565b50505b505050506040513d6020811015611cc757600080611cc461607a565b50505b8101908080519390931195945050505050565b611ce26151a5565b6001600160a01b038116611d455760405162461bcd60e51b815260206004820152601c60248201527f42656e6566696369617279206d757374206e6f74206265207a65726f00000000604482015260640160405180910390611d4261607a565b50505b80600361010081611d546160e5565b816001600160a01b0302191690836001600160a01b0316021790611d76616344565b5050507fd5da63a0b864b315bc04128dedbc93888c8529ee6cf47ce664dc204339228c53816040516001600160a01b03909116815260200160405180910390a150565b6000611dc3614ddb565b611dcb614f94565b6001600160a01b031663086dabd16040518163ffffffff1660e01b81526004016000604051808303818680611dfe616140565b158015611e1357600080611e1061607a565b50505b505a611e1d61618c565b5050505050158015611e3c573d6000803e3d6000611e3961607a565b50505b50505050611e4a8483615268565b50611e7260006006611e5a6160e5565b906101000a90046001600160a01b031685858561557d565b949350505050565b611e82614f94565b6001600160a01b0316637c3125416040518163ffffffff1660e01b81526004016000604051808303818680611eb5616140565b158015611eca57600080611ec761607a565b50505b505a611ed461618c565b5050505050158015611ef3573d6000803e3d6000611ef061607a565b50505b50505050611eff614ddb565b611f07614d95565b6001600160a01b031663b06e8c6560006006611f216160e5565b906101000a90046001600160a01b0316836040516001600160e01b031960e085901b1681526001600160a01b039092166004830152602482015260440160006040518083038160008780611f73616140565b158015611f8857600080611f8561607a565b50505b505a611f92616245565b505050505050158015611fb2573d6000803e3d6000611faf61607a565b50505b505050505b50565b6040516040808201905260038152620a69cb60eb1b602082015281565b611fdf614f94565b6001600160a01b0316637c3125416040518163ffffffff1660e01b81526004016000604051808303818680612012616140565b1580156120275760008061202461607a565b50505b505a61203161618c565b5050505050158015612050573d6000803e3d600061204d61607a565b50505b5050505061205c614ddb565b612064614d95565b6001600160a01b0316632b3f41aa826000600661207f6160e5565b906101000a90046001600160a01b03166040516001600160e01b031960e085901b1681526001600160a01b0392831660048201529116602482015260440160006040518083038160008780611f73616140565b601281565b600085846120e3614f94565b6001600160a01b0316637118d4316040518163ffffffff1660e01b81526004016000604051808303818680612116616140565b15801561212b5760008061212861607a565b50505b505a61213561618c565b5050505050158015612154573d6000803e3d600061215161607a565b50505b50505050612160614f94565b6001600160a01b0316636132eba483836040516001600160e01b031960e085901b1681526004810192909252602482015260440160006040518083038186806121a7616140565b1580156121bc576000806121b961607a565b50505b505a6121c661618c565b50505050501580156121e5573d6000803e3d60006121e261607a565b50505b505050506121f1614ddb565b6121f961521d565b6001600160a01b03166386baa45c600060066122136160e5565b906101000a90046001600160a01b03168a8a8a60066000906122336160e5565b906101000a90046001600160a01b03168b8b6040516001600160e01b031960e08a901b1681526001600160a01b0397881660048201526024810196909652604486019490945260648501929092528416608484015290921660a482015260c481019190915260e401602060405180830381600087806122b0616140565b1580156122c5576000806122c261607a565b50505b505a6122cf616245565b5050505050501580156122ef573d6000803e3d60006122ec61607a565b50505b505050506040513d602081101561230e5760008061230b61607a565b50505b8101908080519b9a5050505050505050505050565b6000600b61232f6160e5565b906101000a900460ff1681565b612344614f94565b6001600160a01b0316637c3125416040518163ffffffff1660e01b81526004016000604051808303818680612377616140565b15801561238c5760008061238961607a565b50505b505a61239661618c565b50505050501580156123b5573d6000803e3d60006123b261607a565b50505b505050506123c1614ddb565b6123c9614d95565b6001600160a01b031663fd864ccf826000600661207f6160e5565b60006123ee614d95565b6001600160a01b03166332608039836040516001600160e01b031960e084901b16815260048101919091526024016020604051808303818680610fde616140565b6124376151a5565b6000806002612444616344565b5050506000600360006101000a8161245a6160e5565b8160ff0219169083151502179061246f616344565b5050507f6adcc7125002935e0aa31697538ebbd65cfddf20431eb6ecdcfc3e238bfd082c60405160405180910390a1565b6124a86151a5565b80600b610100816124b76160e5565b816001600160a01b0302191690836001600160a01b03160217906124d9616344565b5060009150505b600d806124eb6160e5565b9050811015612667576000600d82816125026160e5565b811061250a57fe5b9060005260206000200161251c6160e5565b90506001600b61252a6160e5565b906101000a90046001600160a01b03166001600160a01b031663dacb2d01826040516001600160e01b031960e084901b1681526004810191909152604060248201819052601760448301527f5265736f6c766572206d697373696e67207461726765740000000000000000006064830152608490910190602090518083038186806125b3616140565b1580156125c8576000806125c561607a565b50505b505a6125d261618c565b50505050501580156125f1573d6000803e3d60006125ee61607a565b50505b505050506040513d60208110156126105760008061260d61607a565b50505b8101908080516000858152600c602052909350604092509050206001816126356160e5565b816001600160a01b0302191690836001600160a01b0316021790612657616344565b5050600190920191506124e09050565b5050565b6000612675614d95565b6001600160a01b0316634e99bda96040518163ffffffff1660e01b815260040160206040518083038186806126a8616140565b1580156126bd576000806126ba61607a565b50505b505a6126c761618c565b50505050501580156126e6573d6000803e3d60006126e361607a565b50505b505050506040513d60208110156127055760008061270261607a565b50505b810190808051935050505090565b60006001610f786160e5565b60006001600160a01b0382166001600b6127376160e5565b906101000a90046001600160a01b03166001600160a01b03161461275d57506000611047565b60005b600d8061276b6160e5565b90508110156128f1576000600d82816127826160e5565b811061278a57fe5b9060005260206000200161279c6160e5565b6000818152600c602052909150604090206000906127b86160e5565b6001600160a01b036101009290920a9004166001600b6127d66160e5565b906101000a90046001600160a01b03166001600160a01b03166321f8a721836040516001600160e01b031960e084901b16815260048101919091526024016020604051808303818680612827616140565b15801561283c5760008061283961607a565b50505b505a61284661618c565b5050505050158015612865573d6000803e3d600061286261607a565b50505b505050506040513d60208110156128845760008061288161607a565b50505b8101908080516001600160a01b0316939093141592508291506128d8905057506000818152600c602052604081206000906128bd6160e5565b906101000a90046001600160a01b03166001600160a01b0316145b156128e857600092505050611047565b50600101612760565b50600192915050565b6129026156af565b6001600160a01b03165a6129146162fe565b6001600160a01b0316146129625760405162461bcd60e51b81526004018080602001828103825260348152602001806165c6603491396040019150506040518091039061295f61607a565b50505b6000600761296e6160e5565b6001600160a01b036101009290920a90041663b46310f6836129ef84600060076129966160e5565b906101000a90046001600160a01b03166001600160a01b03166370a08231886040516001600160e01b031960e084901b1681526001600160a01b03909116600482015260240160206040518083038186806116cb616140565b6040516001600160e01b031960e085901b1681526001600160a01b039092166004830152602482015260440160006040518083038160008780612a30616140565b158015612a4557600080612a4261607a565b50505b505a612a4f616245565b505050505050158015612a6f573d6000803e3d6000612a6c61607a565b50505b50505050612ad65a63996d79a5598160e01b8152602081600483336000905af158601d01573d60011458600c01573d6000803e3d621234565260ea61109c528051925060005b6040811015612acc57600082820152602001612ab5565b5050508383615138565b612ae481600a611a766160e5565b80600a611fb2616344565b6000612af9614d95565b6001600160a01b0316636bed04158360006007612b146160e5565b906101000a90046001600160a01b03166001600160a01b03166370a08231866040516001600160e01b031960e084901b1681526001600160a01b0390911660048201526024016020604051808303818680612b6d616140565b158015612b8257600080612b7f61607a565b50505b505a612b8c61618c565b5050505050158015612bab573d6000803e3d6000612ba861607a565b50505b505050506040513d6020811015612bca57600080612bc761607a565b50505b81019080805192506040915050516001600160e01b031960e085901b1681526001600160a01b039092166004830152602482015260440160408051808303818680612c13616140565b158015612c2857600080612c2561607a565b50505b505a612c3261618c565b5050505050158015612c51573d6000803e3d6000612c4e61607a565b50505b505050506040513d6040811015612c7057600080612c6d61607a565b50505b8101908080519291906020018051509295945050505050565b612c9161521d565b6001600160a01b03165a612ca36162fe565b6001600160a01b031614612cf45760405162461bcd60e51b815260206004820152601e6024820152600080516020616453833981519152604482015260640160405180910390612cf161607a565b50505b60006004612d006160e5565b906101000a90046001600160a01b03166001600160a01b031663907dff9786868686866040516020810195909552604080860194909452606085019290925260808401526001600160a01b031660a083015260c09091019051602081830303815290604052600260405180603e6164738239603e0190506040518091039020612d888b6156e4565b6000806040518763ffffffff1660e01b815260040180806020018781526020018681526020018581526020018460001b81526020018360001b8152602001828103825288818151815260200191508051906020019080838360005b83811015612dfb578082015183820152602001612de3565b50505050905090810190601f168015612e285780820380516001836020036101000a031916815260200191505b5097505050505050505060006040518083038160008780612e47616140565b158015612e5c57600080612e5961607a565b50505b505a612e66616245565b505050505050158015612e86573d6000803e3d6000612e8361607a565b50505b50505050505050505050565b612e9a61521d565b6001600160a01b03165a612eac6162fe565b6001600160a01b031614612efd5760405162461bcd60e51b815260206004820152601e6024820152600080516020616453833981519152604482015260640160405180910390612efa61607a565b50505b60006004612f096160e5565b906101000a90046001600160a01b03166001600160a01b031663907dff97838360405160200180838152602001828152602001925050506040516020818303038152906040526002604051806027616576823960270190506040518091039020612f72886156e4565b6000806040518763ffffffff1660e01b815260040180806020018781526020018681526020018581526020018460001b81526020018360001b8152602001828103825288818151815260200191508051906020019080838360005b83811015612fe5578082015183820152602001612fcd565b50505050905090810190601f1680156130125780820380516001836020036101000a031916815260200191505b5097505050505050505060006040518083038160008780613031616140565b1580156130465760008061304361607a565b50505b505a613050616245565b505050505050158015611faf573d6000803e3d600061306d61607a565b505050505050505050565b60008060076130856160e5565b906101000a90046001600160a01b03166001600160a01b03166370a08231836040516001600160e01b031960e084901b1681526001600160a01b0390911660048201526024016020604051808303818680610fde616140565b60606130e8614d95565b6001600160a01b03166372cb051f6040518163ffffffff1660e01b8152600401600060405180830381868061311b616140565b1580156131305760008061312d61607a565b50505b505a61313a61618c565b5050505050158015613159573d6000803e3d600061315661607a565b50505b505050506040513d6000823e601f3d908101601f19168201604052602081101561318b5760008061318861607a565b50505b81019080805160405193929190846401000000008211156131b4576000806131b161607a565b50505b9083019060208201858111156131d2576000806131cf61607a565b50505b82518660208202830111640100000000821117156131f8576000806131f561607a565b50505b825250602001908051906020019060200280838360005b8381101561322757808201518382015260200161320f565b50505050905001604052505050905090565b600060016132456160e5565b906101000a90046001600160a01b03166001600160a01b03165a6132676162fe565b6001600160a01b0316146132b55760405162461bcd60e51b81526004018080602001828103825260358152602001806163f660359139604001915050604051809103906132b261607a565b50505b7fb532073b38c83145e3e5135377a08bf9aab55bc0fd7c1179cd4fb995d2a5159c6000806132e16160e5565b906101000a90046001600160a01b031660016000906132fe6160e5565b906101000a90046001600160a01b03166040516001600160a01b039283168152911660208201526040908101905180910390a16000600161333d6160e5565b906101000a90046001600160a01b03166000806101000a8161335d6160e5565b816001600160a01b0302191690836001600160a01b031602179061337f616344565b5050506000600160006101000a816133956160e5565b816001600160a01b0302191690836001600160a01b03160217906133b7616344565b505050565b60006133c6614d95565b6001600160a01b031663835e119c836040516001600160e01b031960e084901b16815260048101919091526024016020604051808303818680610fde616140565b6000613411614d95565b6001600160a01b0316637b1001b78360006040516001600160e01b031960e085901b1681526004810192909252151560248201526044016020604051808303818680610fde616140565b613463614f94565b6001600160a01b0316637c3125416040518163ffffffff1660e01b81526004016000604051808303818680613496616140565b1580156134ab576000806134a861607a565b50505b505a6134b561618c565b50505050501580156134d4573d6000803e3d60006134d161607a565b50505b505050506134e0614ddb565b6134e8614d95565b6001600160a01b031663042e068860006006611f216160e5565b600080610f786160e5565b60008584613519614f94565b6001600160a01b0316637118d4316040518163ffffffff1660e01b8152600401600060405180830381868061354c616140565b1580156135615760008061355e61607a565b50505b505a61356b61618c565b505050505015801561358a573d6000803e3d600061358761607a565b50505b50505050613596614f94565b6001600160a01b0316636132eba483836040516001600160e01b031960e085901b1681526004810192909252602482015260440160006040518083038186806135dd616140565b1580156135f2576000806135ef61607a565b50505b505a6135fc61618c565b505050505015801561361b573d6000803e3d600061361861607a565b50505b50505050613627614ddb565b61362f61521d565b6001600160a01b031663dfffca768a6000600661364a6160e5565b906101000a90046001600160a01b03168b8b8b8b8b6040516001600160e01b031960e08a901b1681526001600160a01b039788166004820152958716602487015260448601949094526064850192909252608484015290921660a482015260c481019190915260e401602060405180830381600087806136c8616140565b1580156136dd576000806136da61607a565b50505b505a6136e7616245565b505050505050158015613707573d6000803e3d600061370461607a565b50505b505050506040513d60208110156137265760008061372361607a565b50505b8101908080519c9b505050505050505050505050565b631cd554d160e21b81565b6009806137526160e5565b600181600116156101000203166002900480601f01602080910402602001604051908101604052818152919060208301828061378c6160e5565b600181600116156101000203166002900480156110fd5780601f106137b85761010080836110bd6160e5565b820191906000526020600020905b816137cf6160e5565b815290600101906020018083116137c65750859350505050565b6137f16151a5565b8060046001816137ff6160e5565b816001600160a01b0302191690836001600160a01b0316021790613821616344565b5050507ffc80377ca9c49cc11ae6982f390a42db976d5530af7c43889264b13fbbd7c57e816040516001600160a01b03909116815260200160405180910390a150565b61386c614f94565b6001600160a01b0316637c3125416040518163ffffffff1660e01b8152600401600060405180830381868061389f616140565b1580156138b4576000806138b161607a565b50505b505a6138be61618c565b50505050501580156138dd573d6000803e3d60006138da61607a565b50505b505050506138e9614ddb565b6138f1614d95565b6001600160a01b031663497d704a6000600661390b6160e5565b906101000a90046001600160a01b03166040516001600160e01b031960e084901b1681526001600160a01b03909116600482015260240160006040518083038160008780613957616140565b15801561396c5760008061396961607a565b50505b505a613976616245565b505050505050158015611ad4573d6000803e3d600061399361607a565b5050505050505b565b60008060006139a9614ddb565b6139b161521d565b6001600160a01b0316631b16802c600060066139cb6160e5565b906101000a90046001600160a01b0316866040516001600160e01b031960e085901b1681526001600160a01b039092166004830152602482015260440160606040518083038160008780613a1d616140565b158015613a3257600080613a2f61607a565b50505b505a613a3c616245565b505050505050158015611295573d6000803e3d600061129261607a565b613a616151a5565b60006003613a6d6160e5565b906101000a900460ff16613ad05760405162461bcd60e51b815260206004820152601f60248201527f53656c66204465737472756374206e6f742079657420696e6974696174656400604482015260640160405180910390613acd61607a565b50505b5a613ad9616392565b6224ea006002613ae76160e5565b0110613b425760405162461bcd60e51b815260206004820152601b60248201527f53656c662064657374727563742064656c6179206e6f74206d65740000000000604482015260640160405180910390613b3f61607a565b50505b7f8a09e1677ced846cb537dc2b172043bd05a1a81ad7e0033a7ef8ba762df990b760016003613b6f6160e5565b906101000a90046001600160a01b03166040516001600160a01b03909116815260200160405180910390a1565b60006005610f786160e5565b613bb06156f0565b806007600181613bbe6160e5565b816001600160a01b0302191690836001600160a01b0316021790613be0616344565b505050611fb78161587b565b6000613bf6614d95565b6001600160a01b031663a311c7c2836040516001600160e01b031960e084901b1681526001600160a01b0390911660048201526024016020604051808303818680610fde616140565b6224ea0081565b6000613c50614d95565b6001600160a01b031663a5fdc5de836040516001600160e01b031960e084901b1681526001600160a01b0390911660048201526024016020604051808303818680610fde616140565b6000613ca3614ddb565b613cab614f94565b6001600160a01b031663086dabd16040518163ffffffff1660e01b81526004016000604051808303818680613cde616140565b158015613cf357600080613cf061607a565b50505b505a613cfd61618c565b5050505050158015613d1c573d6000803e3d6000613d1961607a565b50505b50505050613d466006600090613d306160e5565b906101000a90046001600160a01b031683615268565b506111f760006006613d566160e5565b906101000a90046001600160a01b031684846159c3565b613d756163d8565b60005b600d80613d836160e5565b9050811015613dcb57600d8181613d986160e5565b8110613da057fe5b90600052602060002001613db26160e5565b828260188110613dbe57fe5b6020020152600101613d78565b5090565b613dd761521d565b6001600160a01b03165a613de96162fe565b6001600160a01b031614613e3a5760405162461bcd60e51b815260206004820152601e6024820152600080516020616453833981519152604482015260640160405180910390613e3761607a565b50505b60006004613e466160e5565b906101000a90046001600160a01b03166001600160a01b031663907dff9783836040516020018083815260200182815260200192505050604051602081830303815290604052600260405180602861642b823960280190506040518091039020612f72886156e4565b613eb7614f94565b6001600160a01b0316637c3125416040518163ffffffff1660e01b81526004016000604051808303818680613eea616140565b158015613eff57600080613efc61607a565b50505b505a613f0961618c565b5050505050158015613f28573d6000803e3d6000613f2561607a565b50505b50505050613f34614ddb565b613f3c614d95565b6001600160a01b031663c89771326000600661390b6160e5565b6000600361232f6160e5565b613f6a6159d0565b806006600181611ab26160e5565b613f806151a5565b5a613f89616392565b806002613f94616344565b5050506001600360006101000a81613faa6160e5565b8160ff02191690831515021790613fbf616344565b5050507fcbd94ca75b8dc45c9d80c77e851670e78843c0d75180cb81db3e2158228fa9a66224ea0060405190815260200160405180910390a1565b614002614f94565b6001600160a01b0316637c3125416040518163ffffffff1660e01b81526004016000604051808303818680614035616140565b15801561404a5760008061404761607a565b50505b505a61405461618c565b5050505050158015614073573d6000803e3d600061407061607a565b50505b5050505061407f614ddb565b614087614d95565b6001600160a01b0316639a5154b483600060066140a26160e5565b906101000a90046001600160a01b0316846040516001600160e01b031960e086901b1681526001600160a01b039384166004820152919092166024820152604481019190915260640160006040518083038160008780614100616140565b1580156141155760008061411261607a565b50505b505a61411f616245565b505050505050158015613993573d6000803e3d600061413c61607a565b5050505050505050565b60016003610f786160e5565b600d818161415e6160e5565b811061416657fe5b906000526020600020019050611bb16160e5565b60008382614186614f94565b6001600160a01b0316637118d4316040518163ffffffff1660e01b815260040160006040518083038186806141b9616140565b1580156141ce576000806141cb61607a565b50505b505a6141d861618c565b50505050501580156141f7573d6000803e3d60006141f461607a565b50505b50505050614203614f94565b6001600160a01b0316636132eba483836040516001600160e01b031960e085901b16815260048101929092526024820152604401600060405180830381868061424a616140565b15801561425f5760008061425c61607a565b50505b505a61426961618c565b5050505050158015614288573d6000803e3d600061428561607a565b50505b50505050614294614ddb565b61429c61521d565b6001600160a01b0316636a1c475888600060066142b76160e5565b906101000a90046001600160a01b03168989896040516001600160e01b031960e088901b1681526001600160a01b03958616600482015293909416602484015260448301919091526064820152608481019190915260a40160206040518083038160008780614324616140565b1580156143395760008061433661607a565b50505b505a614343616245565b505050505050158015614363573d6000803e3d600061436061607a565b50505b505050506040513d60208110156143825760008061437f61607a565b50505b8101908080519a9950505050505050505050565b60006143a0614d95565b6001600160a01b031663d37c4d8b84846040516001600160e01b031960e085901b1681526001600160a01b039092166004830152602482015260440160206040518083038186806143ef616140565b1580156144045760008061440161607a565b50505b505a61440e61618c565b505050505015801561442d573d6000803e3d600061442a61607a565b50505b505050506040513d602081101561444c5760008061444961607a565b50505b8101908080519695505050505050565b6000614466614d95565b6001600160a01b0316637b1001b78360016040516001600160e01b031960e085901b1681526004810192909252151560248201526044016020604051808303818680610fde616140565b60006006610f786160e5565b60006144c6614d95565b6001600160a01b031663dbf633406040518163ffffffff1660e01b815260040160206040518083038186806126a8616140565b60008060076145066160e5565b906101000a90046001600160a01b03166001600160a01b031663dd62ed3e84846040516001600160e01b031960e085901b1681526001600160a01b0392831660048201529116602482015260440160206040518083038186806143ef616140565b61456f61521d565b6001600160a01b03165a6145816162fe565b6001600160a01b0316146145d25760405162461bcd60e51b815260206004820152601e60248201526000805160206164538339815191526044820152606401604051809103906145cf61607a565b50505b600060046145de6160e5565b906101000a90046001600160a01b03166001600160a01b031663907dff9783836040516020018083815260200182815260200192505050604051602081830303815290604052600260405180602961659d823960290190506040518091039020876000806040518763ffffffff1660e01b815260040180806020018781526020018681526020018581526020018460001b81526020018360001b815260200182810382528881815181526020019150805160209091019080838360008315612fe5578082015183820152602001612fcd565b601881565b60006146bf614f94565b6001600160a01b031663086dabd16040518163ffffffff1660e01b815260040160006040518083038186806146f2616140565b1580156147075760008061470461607a565b50505b505a61471161618c565b5050505050158015614730573d6000803e3d600061472d61607a565b50505b5050505061473c614ddb565b600080614747614d95565b6001600160a01b031663a63c4df48686600060066147636160e5565b906101000a90046001600160a01b03166040516001600160e01b031960e086901b1681526001600160a01b039384166004820152602481019290925290911660448201526064016040805180830381600087806147be616140565b1580156147d3576000806147d061607a565b50505b505a6147dd616245565b5050505050501580156147fd573d6000803e3d60006147fa61607a565b50505b505050506040513d604081101561481c5760008061481961607a565b50505b810190808051929190602001805193955092935061485d925087915084905083600060066148486160e5565b906101000a90046001600160a01b0316615a9d565b614883856000600661486d6160e5565b906101000a90046001600160a01b0316846159c3565b95945050505050565b614894614f94565b6001600160a01b0316637c3125416040518163ffffffff1660e01b815260040160006040518083038186806148c7616140565b1580156148dc576000806148d961607a565b50505b505a6148e661618c565b5050505050158015614905573d6000803e3d600061490261607a565b50505b50505050614911614ddb565b614919614d95565b6001600160a01b03166344ec6b6283600060066140a26160e5565b60006007610f786160e5565b60006004610f786160e5565b6149546156af565b6001600160a01b03165a6149666162fe565b6001600160a01b0316146149b45760405162461bcd60e51b81526004018080602001828103825260348152602001806165c660349139604001915050604051809103906149b161607a565b50505b600060076149c06160e5565b6001600160a01b036101009290920a90041663b46310f683614ab584600060076149e86160e5565b906101000a90046001600160a01b03166001600160a01b03166370a08231886040516001600160e01b031960e084901b1681526001600160a01b0390911660048201526024016020604051808303818680614a41616140565b158015614a5657600080614a5361607a565b50505b505a614a6061618c565b5050505050158015614a7f573d6000803e3d6000614a7c61607a565b50505b505050506040513d6020811015614a9e57600080614a9b61607a565b50505b8101908080519392505063ffffffff61506a169050565b6040516001600160e01b031960e085901b1681526001600160a01b039092166004830152602482015260440160006040518083038160008780614af6616140565b158015614b0b57600080614b0861607a565b50505b505a614b15616245565b505050505050158015614b35573d6000803e3d6000614b3261607a565b50505b50505050614b4582600083615138565b612ae481600a614b536160e5565b9063ffffffff61506a16565b60008382614b6b614f94565b6001600160a01b0316637118d4316040518163ffffffff1660e01b81526004016000604051808303818680614b9e616140565b158015614bb357600080614bb061607a565b50505b505a614bbd61618c565b5050505050158015614bdc573d6000803e3d6000614bd961607a565b50505b50505050614be8614f94565b6001600160a01b0316636132eba483836040516001600160e01b031960e085901b168152600481019290925260248201526044016000604051808303818680614c2f616140565b158015614c4457600080614c4161607a565b50505b505a614c4e61618c565b5050505050158015614c6d573d6000803e3d6000614c6a61607a565b50505b50505050614c79614ddb565b614c8161521d565b6001600160a01b0316630a1e187d60006006614c9b6160e5565b906101000a90046001600160a01b03168888886006600090614cbb6160e5565b906101000a90046001600160a01b03166040516001600160e01b031960e088901b1681526001600160a01b039586166004820152602481019490945260448401929092526064830152909116608482015260a40160206040518083038160008780614d24616140565b158015614d3957600080614d3661607a565b50505b505a614d43616245565b505050505050158015614d63573d6000803e3d6000614d6061607a565b50505b505050506040513d6020811015614d8257600080614d7f61607a565b50505b8101908080519998505050505050505050565b6000614dd66524b9b9bab2b960d11b6040516040808201905260168152754d697373696e6720497373756572206164647265737360501b6020820152615c1d565b905090565b60006004614de76160e5565b906101000a90046001600160a01b03166001600160a01b03165a614e096162fe565b6001600160a01b031614158015614e55575060006005614e276160e5565b906101000a90046001600160a01b03166001600160a01b03165a614e496162fe565b6001600160a01b031614155b8015614e9657505a614e656162fe565b6001600160a01b031660006006614e7a6160e5565b906101000a90046001600160a01b03166001600160a01b031614155b1561399a575a614ea46162fe565b60066001816133956160e5565b60006004614ebd6160e5565b906101000a90046001600160a01b03166001600160a01b031663907dff9782604051602001808281526020019150506040516020818303038152906040526003604051806021616506823960210190506040518091039020614f1e886156e4565b614f27886156e4565b60006040518763ffffffff1660e01b815260040180806020018781526020018681526020018581526020018481526020018360001b815260200182810382528881815181526020019150805160209091019080838360008315612fe5578082015183820152602001612fcd565b6000614dd66b53797374656d53746174757360a01b60405160408082019052601c81527f4d697373696e672053797374656d5374617475732061646472657373000000006020820152615c1d565b6000614dd6722932bbb0b93239a234b9ba3934b13aba34b7b760691b6040516060810160405260238082526165536020830139615c1d565b6000614dd66d537570706c795363686564756c6560901b60405160408082019052601e81527f4d697373696e6720537570706c795363686564756c65206164647265737300006020820152615c1d565b6000828211156150c95760405162461bcd60e51b815260206004820152601e60248201527f536166654d6174683a207375627472616374696f6e206f766572666c6f7700006044820152606401604051809103906150c661607a565b50505b50900390565b6000828201838110156151315760405162461bcd60e51b815260206004820152601b60248201527f536166654d6174683a206164646974696f6e206f766572666c6f77000000000060448201526064016040518091039061512e61607a565b50505b9392505050565b600060046151446160e5565b906101000a90046001600160a01b03166001600160a01b031663907dff978260405160200180828152602001915050604051602081830303815290604052600360405180602161662c823960210190506040518091039020614f1e886156e4565b6000806151b06160e5565b906101000a90046001600160a01b03166001600160a01b03165a6151d26162fe565b6001600160a01b03161461399a5760405162461bcd60e51b815260040180806020018281038252602f8152602001806164d7602f91396040019150506040518091039061266761607a565b6000614dd66822bc31b430b733b2b960b91b60405160408082019052601981527f4d697373696e672045786368616e6765722061646472657373000000000000006020820152615c1d565b600080615273615ce6565b6001600160a01b0316638b3f8088856040516001600160e01b031960e084901b1681526001600160a01b039091166004820152602401604080518083038186806152bb616140565b1580156152d0576000806152cd61607a565b50505b505a6152da61618c565b50505050501580156152f9573d6000803e3d60006152f661607a565b50505b505050506040513d60408110156153185760008061531561607a565b50505b81019080805192919060200180515092935050821591506111f7905057600080615340614d95565b6001600160a01b0316636bed0415876000600761535b6160e5565b906101000a90046001600160a01b03166001600160a01b03166370a082318a6040516001600160e01b031960e084901b1681526001600160a01b03909116600482015260240160206040518083038186806153b4616140565b1580156153c9576000806153c661607a565b50505b505a6153d361618c565b50505050501580156153f2573d6000803e3d60006153ef61607a565b50505b505050506040513d60208110156154115760008061540e61607a565b50505b81019080805192506040915050516001600160e01b031960e085901b1681526001600160a01b03909216600483015260248201526044016040805180830381868061545a616140565b15801561546f5760008061546c61607a565b50505b505a61547961618c565b5050505050158015615498573d6000803e3d600061549561607a565b50505b505050506040513d60408110156154b7576000806154b461607a565b50505b8101908080519291906020018051939550929350505050818511156155165760405162461bcd60e51b81526004018080602001828103825260268152602001806164b1602691396040019150506040518091039061551361607a565b50505b80156155715760405162461bcd60e51b815260206004820152601e60248201527f412073796e7468206f7220534e58207261746520697320696e76616c6964000060448201526064016040518091039061556e61607a565b50505b50600195945050505050565b600080600761558a6160e5565b6001600160a01b036101009290920a90041663da46098c858761561486600060076155b36160e5565b906101000a90046001600160a01b03166001600160a01b031663dd62ed3e8b8d6040516001600160e01b031960e085901b1681526001600160a01b039283166004820152911660248201526044016020604051808303818680614a41616140565b6040516001600160e01b031960e086901b1681526001600160a01b039384166004820152919092166024820152604481019190915260640160006040518083038160008780615661616140565b1580156156765760008061567361607a565b50505b505a615680616245565b5050505050501580156156a0573d6000803e3d600061569d61607a565b50505b50505050614883848484615d36565b6000614dd66f14d958dbdb99185c9e51195c1bdcda5d60821b60405160608101604052602c8082526165276020830139615c1d565b6001600160a01b031690565b600060046156fc6160e5565b906101000a90046001600160a01b03166001600160a01b03165a61571e6162fe565b6001600160a01b03161415801561576a57506000600561573c6160e5565b906101000a90046001600160a01b03166001600160a01b03165a61575e6162fe565b6001600160a01b031614155b80156157ab57505a61577a6162fe565b6001600160a01b03166000600661578f6160e5565b906101000a90046001600160a01b03166001600160a01b031614155b156157ec575a6157b96162fe565b60066001816157c66160e5565b816001600160a01b0302191690836001600160a01b03160217906157e8616344565b5050505b6000806157f76160e5565b6001600160a01b036101009290920a900416600060066158156160e5565b906101000a90046001600160a01b03166001600160a01b03161461399a5760405162461bcd60e51b815260206004820152601360248201527227bbb732b91037b7363c90333ab731ba34b7b760691b60448201526064016040518091039061266761607a565b600060046158876160e5565b906101000a90046001600160a01b03166001600160a01b031663907dff97826040516001600160a01b0390911660208201526040908101905160208183030381529060405260016040517f546f6b656e5374617465557064617465642861646472657373290000000000008152601a01604051809103902060008060006040518763ffffffff1660e01b815260040180806020018781526020018681526020018560001b81526020018460001b81526020018360001b8152602001828103825288818151815260200191508051906020019080838360005b8381101561597757808201518382015260200161595f565b50505050905090810190601f1680156159a45780820380516001836020036101000a031916815260200191505b5097505050505050505060006040518083038160008780611f73616140565b6000611e72848484615d36565b600060046159dc6160e5565b906101000a90046001600160a01b03166001600160a01b03165a6159fe6162fe565b6001600160a01b03161480615a47575060006005615a1a6160e5565b906101000a90046001600160a01b03166001600160a01b03165a615a3c6162fe565b6001600160a01b0316145b61399a5760405162461bcd60e51b815260206004820152601760248201527f4f6e6c79207468652070726f78792063616e2063616c6c00000000000000000060448201526064016040518091039061266761607a565b60006004615aa96160e5565b906101000a90046001600160a01b03166001600160a01b031663907dff9784848460405160208101939093526040808401929092526001600160a01b031660608301526080909101905160208183030381529060405260026040518060326165fa823960320190506040518091039020615b22896156e4565b6000806040518763ffffffff1660e01b815260040180806020018781526020018681526020018581526020018460001b81526020018360001b8152602001828103825288818151815260200191508051906020019080838360005b83811015615b95578082015183820152602001615b7d565b50505050905090810190601f168015615bc25780820380516001836020036101000a031916815260200191505b5097505050505050505060006040518083038160008780615be1616140565b158015615bf657600080615bf361607a565b50505b505a615c00616245565b50505050505015801561413c573d6000803e3d6000612e8661607a565b6000828152600c6020528060408120600090615c376160e5565b6001600160a01b036101009290920a90041690508281615cde5760405162461bcd60e51b81526004018080602001828103825283818151815260200191508051906020019080838360005b83811015615c9a578082015183820152602001615c82565b50505050905090810190601f168015615cc75780820380516001836020036101000a031916815260200191505b509250505060405180910390615cdb61607a565b50505b509392505050565b6000614dd66d53796e746865746978537461746560901b60405160408082019052601e81527f4d697373696e672053796e7468657469785374617465206164647265737300006020820152615c1d565b60006001600160a01b03831615801590615dba57505a63996d79a5598160e01b8152602081600483336000905af158601d01573d60011458600c01573d6000803e3d621234565260ea61109c528051925060005b6040811015615da157600082820152602001615d8a565b5050506001600160a01b0316836001600160a01b031614155b8015615df3575060006004615dcd6160e5565b906101000a90046001600160a01b03166001600160a01b0316836001600160a01b031614155b615e4c5760405162461bcd60e51b815260206004820152601f60248201527f43616e6e6f74207472616e7366657220746f2074686973206164647265737300604482015260640160405180910390615e4961607a565b50505b60006007615e586160e5565b6001600160a01b036101009290920a90041663b46310f685615ed98560006007615e806160e5565b906101000a90046001600160a01b03166001600160a01b03166370a082318a6040516001600160e01b031960e084901b1681526001600160a01b0390911660048201526024016020604051808303818680614a41616140565b6040516001600160e01b031960e085901b1681526001600160a01b039092166004830152602482015260440160006040518083038160008780615f1a616140565b158015615f2f57600080615f2c61607a565b50505b505a615f39616245565b505050505050158015615f59573d6000803e3d6000615f5661607a565b50505b505050506007600090615f6a6160e5565b6001600160a01b036101009290920a90041663b46310f684615feb8560006007615f926160e5565b906101000a90046001600160a01b03166001600160a01b03166370a08231896040516001600160e01b031960e084901b1681526001600160a01b03909116600482015260240160206040518083038186806116cb616140565b6040516001600160e01b031960e085901b1681526001600160a01b03909216600483015260248201526044016000604051808303816000878061602c616140565b1580156160415760008061603e61607a565b50505b505a61604b616245565b50505050505015801561606b573d6000803e3d600061606861607a565b50505b505050506111f7848484615138565b632a2a7adb598160e01b8152600481016020815285602082015260005b868110156160b2578086015182820160400152602001616097565b506020828760640184336000905af158601d01573d60011458600c01573d6000803e3d621234565260ea61109c52505050565b6303daa959598160e01b8152836004820152602081602483336000905af158601d01573d60011458600c01573d6000803e3d621234565260ea61109c528051935060005b60408110156133b757600082820152602001616129565b638435035b598160e01b8152836004820152602081602483336000905af158601d01573d60011458600c01573d6000803e3d621234565260ea61109c5280516000825293506020616129565b638540661f598160e01b8152836004820152846024820152606060448201528660648201526084810160005b888110156161d05780880151828201526020016161b8565b50876101040182016060838a6101040185336000905af158601d01573d60011458600c01573d6000803e3d621234565260ea61109c52825160408401513d6000863e8c8c82606088013350600060045af15059855b818110156162395760008152602001616225565b50919c50505050505050565b6385979f76598160e01b8152836004820152846024820152606060448201528760648201526084810160005b89811015616289578089015182820152602001616271565b50886101040182016060838b6101040185336000905af158601d01573d60011458600c01573d6000803e3d621234565260ea61109c52825160408401513d6000863e8d8d82606088013350600060045af15059855b818110156162f257600081526020016162de565b50919d50505050505050565b6373509064598160e01b8152602081600483336000905af158601d01573d60011458600c01573d6000803e3d621234565260ea61109c5280516000825293506020616129565b6322bd64c0598160e01b8152836004820152846024820152600081604483336000905af158601d01573d60011458600c01573d6000803e3d621234565260ea61109c52600081526020616129565b63bdbf8c36598160e01b8152602081600483336000905af158601d01573d60011458600c01573d6000803e3d621234565260ea61109c5280516000825293506020616129565b60405161030080820160405260189082908038833950919291505056fe596f75206d757374206265206e6f6d696e61746564206265666f726520796f752063616e20616363657074206f776e65727368697045786368616e67655265636c61696d28616464726573732c627974657333322c75696e74323536294f6e6c792045786368616e6765722063616e20696e766f6b652074686973000053796e746845786368616e676528616464726573732c627974657333322c75696e743235362c627974657333322c75696e743235362c616464726573732943616e6e6f74207472616e73666572207374616b6564206f7220657363726f77656420534e584f6e6c792074686520636f6e7472616374206f776e6572206d617920706572666f726d207468697320616374696f6e417070726f76616c28616464726573732c616464726573732c75696e74323536295265736f6c766572206973206d697373696e67205365636f6e646172794465706f73697420616464726573734d697373696e672052657761726473446973747269627574696f6e206164647265737345786368616e676552656261746528616464726573732c627974657333322c75696e743235362945786368616e6765547261636b696e6728627974657333322c627974657333322c75696e743235362943616e206f6e6c7920626520696e766f6b656420627920746865205365636f6e646172794465706f73697420636f6e74726163744163636f756e744c69717569646174656428616464726573732c75696e743235362c75696e743235362c61646472657373295472616e7366657228616464726573732c616464726573732c75696e7432353629",
			"opcodes": "PUSH1 0x80 PUSH1 0x40 MSTORE CALLVALUE DUP1 ISZERO PUSH2 0x19 JUMPI PUSH1 0x0 DUP1 PUSH2 0x16 PUSH2 0x607A JUMP JUMPDEST POP POP JUMPDEST POP PUSH1 0x4 CALLDATASIZE LT PUSH2 0x452 JUMPI PUSH1 0x0 CALLDATALOAD PUSH1 0xE0 SHR DUP1 PUSH4 0x8A290014 GT PUSH2 0x24A JUMPI DUP1 PUSH4 0xBC67F832 GT PUSH2 0x144 JUMPI DUP1 PUSH4 0xDBF63340 GT PUSH2 0xCC JUMPI DUP1 PUSH4 0xE8E09B8B GT PUSH2 0x90 JUMPI DUP1 PUSH4 0xE8E09B8B EQ PUSH2 0xEC0 JUMPI DUP1 PUSH4 0xE90DD9E2 EQ PUSH2 0xEF5 JUMPI DUP1 PUSH4 0xEC556889 EQ PUSH2 0xEFD JUMPI DUP1 PUSH4 0xEDEF719A EQ PUSH2 0xF05 JUMPI DUP1 PUSH4 0xEE52A2F3 EQ PUSH2 0xF3A JUMPI PUSH2 0x452 JUMP JUMPDEST DUP1 PUSH4 0xDBF63340 EQ PUSH2 0xE12 JUMPI DUP1 PUSH4 0xDD62ED3E EQ PUSH2 0xE1A JUMPI DUP1 PUSH4 0xDDD03A3F EQ PUSH2 0xE51 JUMPI DUP1 PUSH4 0xE3235C91 EQ PUSH2 0xE83 JUMPI DUP1 PUSH4 0xE6203ED1 EQ PUSH2 0xE8B JUMPI PUSH2 0x452 JUMP JUMPDEST DUP1 PUSH4 0xC6C9D828 GT PUSH2 0x113 JUMPI DUP1 PUSH4 0xC6C9D828 EQ PUSH2 0xD48 JUMPI DUP1 PUSH4 0xC836FA0A EQ PUSH2 0xD6E JUMPI DUP1 PUSH4 0xD37C4D8B EQ PUSH2 0xDAF JUMPI DUP1 PUSH4 0xD60888E4 EQ PUSH2 0xDE4 JUMPI DUP1 PUSH4 0xD67BDD25 EQ PUSH2 0xE0A JUMPI PUSH2 0x452 JUMP JUMPDEST DUP1 PUSH4 0xBC67F832 EQ PUSH2 0xCD4 JUMPI DUP1 PUSH4 0xBD32AA44 EQ PUSH2 0xD03 JUMPI DUP1 PUSH4 0xC2BF3880 EQ PUSH2 0xD0B JUMPI DUP1 PUSH4 0xC58AAAE6 EQ PUSH2 0xD40 JUMPI PUSH2 0x452 JUMP JUMPDEST DUP1 PUSH4 0x9CBDAEB6 GT PUSH2 0x1D2 JUMPI DUP1 PUSH4 0xA9059CBB GT PUSH2 0x196 JUMPI DUP1 PUSH4 0xA9059CBB EQ PUSH2 0xC13 JUMPI DUP1 PUSH4 0xAB49848C EQ PUSH2 0xC48 JUMPI DUP1 PUSH4 0xACE88AFD EQ PUSH2 0xC89 JUMPI DUP1 PUSH4 0xAF086C7E EQ PUSH2 0xCC4 JUMPI DUP1 PUSH4 0xB8225DEC EQ PUSH2 0xCCC JUMPI PUSH2 0x452 JUMP JUMPDEST DUP1 PUSH4 0x9CBDAEB6 EQ PUSH2 0xB76 JUMPI DUP1 PUSH4 0x9F769807 EQ PUSH2 0xB7E JUMPI DUP1 PUSH4 0xA311C7C2 EQ PUSH2 0xBAD JUMPI DUP1 PUSH4 0xA461FC82 EQ PUSH2 0xBDC JUMPI DUP1 PUSH4 0xA5FDC5DE EQ PUSH2 0xBE4 JUMPI PUSH2 0x452 JUMP JUMPDEST DUP1 PUSH4 0x95D89B41 GT PUSH2 0x219 JUMPI DUP1 PUSH4 0x95D89B41 EQ PUSH2 0xB09 JUMPI DUP1 PUSH4 0x97107D6D EQ PUSH2 0xB11 JUMPI DUP1 PUSH4 0x9741FB22 EQ PUSH2 0xB40 JUMPI DUP1 PUSH4 0x987757DD EQ PUSH2 0xB48 JUMPI DUP1 PUSH4 0x9CB8A26A EQ PUSH2 0xB6E JUMPI PUSH2 0x452 JUMP JUMPDEST DUP1 PUSH4 0x8A290014 EQ PUSH2 0xA84 JUMPI DUP1 PUSH4 0x8DA5CB5B EQ PUSH2 0xAAA JUMPI DUP1 PUSH4 0x91E56B68 EQ PUSH2 0xAB2 JUMPI DUP1 PUSH4 0x9324CAC7 EQ PUSH2 0xB01 JUMPI PUSH2 0x452 JUMP JUMPDEST DUP1 PUSH4 0x2E0F2625 GT PUSH2 0x35B JUMPI DUP1 PUSH4 0x631E1444 GT PUSH2 0x2E3 JUMPI DUP1 PUSH4 0x70A08231 GT PUSH2 0x2A7 JUMPI DUP1 PUSH4 0x70A08231 EQ PUSH2 0x9A6 JUMPI DUP1 PUSH4 0x72CB051F EQ PUSH2 0x9D5 JUMPI DUP1 PUSH4 0x79BA5097 EQ PUSH2 0xA30 JUMPI DUP1 PUSH4 0x835E119C EQ PUSH2 0xA38 JUMPI DUP1 PUSH4 0x83D625D4 EQ PUSH2 0xA5E JUMPI PUSH2 0x452 JUMP JUMPDEST DUP1 PUSH4 0x631E1444 EQ PUSH2 0x889 JUMPI DUP1 PUSH4 0x666ED4F1 EQ PUSH2 0x8B8 JUMPI DUP1 PUSH4 0x6AC0BF9C EQ PUSH2 0x8ED JUMPI DUP1 PUSH4 0x6C00F310 EQ PUSH2 0x91C JUMPI DUP1 PUSH4 0x6F01A986 EQ PUSH2 0x96B JUMPI PUSH2 0x452 JUMP JUMPDEST DUP1 PUSH4 0x32608039 GT PUSH2 0x32A JUMPI DUP1 PUSH4 0x32608039 EQ PUSH2 0x81C JUMPI DUP1 PUSH4 0x3278C960 EQ PUSH2 0x842 JUMPI DUP1 PUSH4 0x3BE99E6F EQ PUSH2 0x84A JUMPI DUP1 PUSH4 0x4E99BDA9 EQ PUSH2 0x879 JUMPI DUP1 PUSH4 0x53A47BB7 EQ PUSH2 0x881 JUMPI PUSH2 0x452 JUMP JUMPDEST DUP1 PUSH4 0x2E0F2625 EQ PUSH2 0x780 JUMPI DUP1 PUSH4 0x30EAD760 EQ PUSH2 0x79E JUMPI DUP1 PUSH4 0x313CE567 EQ PUSH2 0x7E5 JUMPI DUP1 PUSH4 0x320223DB EQ PUSH2 0x7ED JUMPI PUSH2 0x452 JUMP JUMPDEST DUP1 PUSH4 0x17C70DE4 GT PUSH2 0x3DE JUMPI DUP1 PUSH4 0x20714F88 GT PUSH2 0x3AD JUMPI DUP1 PUSH4 0x20714F88 EQ PUSH2 0x6B5 JUMPI DUP1 PUSH4 0x23B872DD EQ PUSH2 0x6E4 JUMPI DUP1 PUSH4 0x295DA87D EQ PUSH2 0x723 JUMPI DUP1 PUSH4 0x2A905318 EQ PUSH2 0x749 JUMPI DUP1 PUSH4 0x2C955FA7 EQ PUSH2 0x751 JUMPI PUSH2 0x452 JUMP JUMPDEST DUP1 PUSH4 0x17C70DE4 EQ PUSH2 0x677 JUMPI DUP1 PUSH4 0x18160DDD EQ PUSH2 0x67F JUMPI DUP1 PUSH4 0x18821400 EQ PUSH2 0x687 JUMPI DUP1 PUSH4 0x1FCE304D EQ PUSH2 0x68F JUMPI PUSH2 0x452 JUMP JUMPDEST DUP1 PUSH4 0x1137AEDF GT PUSH2 0x425 JUMPI DUP1 PUSH4 0x1137AEDF EQ PUSH2 0x58D JUMPI DUP1 PUSH4 0x1249C58B EQ PUSH2 0x5E0 JUMPI DUP1 PUSH4 0x131B0AE7 EQ PUSH2 0x5E8 JUMPI DUP1 PUSH4 0x1627540C EQ PUSH2 0x619 JUMPI DUP1 PUSH4 0x16B2213F EQ PUSH2 0x648 JUMPI PUSH2 0x452 JUMP JUMPDEST DUP1 PUSH4 0x4F3BCEC EQ PUSH2 0x460 JUMPI DUP1 PUSH4 0x5B3C1C9 EQ PUSH2 0x484 JUMPI DUP1 PUSH4 0x6FDDE03 EQ PUSH2 0x4C5 JUMPI DUP1 PUSH4 0x95EA7B3 EQ PUSH2 0x544 JUMPI JUMPDEST PUSH1 0x0 DUP1 PUSH2 0x45D PUSH2 0x607A JUMP JUMPDEST POP POP JUMPDEST PUSH2 0x468 PUSH2 0xF6C JUMP JUMPDEST PUSH1 0x40 MLOAD PUSH1 0x1 PUSH1 0x1 PUSH1 0xA0 SHL SUB SWAP1 SWAP2 AND DUP2 MSTORE PUSH1 0x20 ADD PUSH1 0x40 MLOAD DUP1 SWAP2 SUB SWAP1 RETURN JUMPDEST PUSH2 0x4B3 PUSH1 0x4 DUP1 CALLDATASIZE SUB PUSH1 0x20 DUP2 LT ISZERO PUSH2 0x4A3 JUMPI PUSH1 0x0 DUP1 PUSH2 0x4A0 PUSH2 0x607A JUMP JUMPDEST POP POP JUMPDEST POP CALLDATALOAD PUSH1 0x1 PUSH1 0x1 PUSH1 0xA0 SHL SUB AND PUSH2 0xF8B JUMP JUMPDEST PUSH1 0x40 MLOAD SWAP1 DUP2 MSTORE PUSH1 0x20 ADD PUSH1 0x40 MLOAD DUP1 SWAP2 SUB SWAP1 RETURN JUMPDEST PUSH2 0x4CD PUSH2 0x104C JUMP JUMPDEST PUSH1 0x40 MLOAD PUSH1 0x20 DUP1 DUP3 MSTORE DUP2 SWAP1 DUP2 ADD DUP4 DUP2 DUP2 MLOAD DUP2 MSTORE PUSH1 0x20 ADD SWAP2 POP DUP1 MLOAD SWAP1 PUSH1 0x20 ADD SWAP1 DUP1 DUP4 DUP4 PUSH1 0x0 JUMPDEST DUP4 DUP2 LT ISZERO PUSH2 0x509 JUMPI DUP1 DUP3 ADD MLOAD DUP4 DUP3 ADD MSTORE PUSH1 0x20 ADD PUSH2 0x4F1 JUMP JUMPDEST POP POP POP POP SWAP1 POP SWAP1 DUP2 ADD SWAP1 PUSH1 0x1F AND DUP1 ISZERO PUSH2 0x536 JUMPI DUP1 DUP3 SUB DUP1 MLOAD PUSH1 0x1 DUP4 PUSH1 0x20 SUB PUSH2 0x100 EXP SUB NOT AND DUP2 MSTORE PUSH1 0x20 ADD SWAP2 POP JUMPDEST POP SWAP3 POP POP POP PUSH1 0x40 MLOAD DUP1 SWAP2 SUB SWAP1 RETURN JUMPDEST PUSH2 0x579 PUSH1 0x4 DUP1 CALLDATASIZE SUB PUSH1 0x40 DUP2 LT ISZERO PUSH2 0x563 JUMPI PUSH1 0x0 DUP1 PUSH2 0x560 PUSH2 0x607A JUMP JUMPDEST POP POP JUMPDEST POP PUSH1 0x1 PUSH1 0x1 PUSH1 0xA0 SHL SUB DUP2 CALLDATALOAD AND SWAP1 PUSH1 0x20 ADD CALLDATALOAD PUSH2 0x1105 JUMP JUMPDEST PUSH1 0x40 MLOAD SWAP1 ISZERO ISZERO DUP2 MSTORE PUSH1 0x20 ADD PUSH1 0x40 MLOAD DUP1 SWAP2 SUB SWAP1 RETURN JUMPDEST PUSH2 0x5BC PUSH1 0x4 DUP1 CALLDATASIZE SUB PUSH1 0x20 DUP2 LT ISZERO PUSH2 0x5AC JUMPI PUSH1 0x0 DUP1 PUSH2 0x5A9 PUSH2 0x607A JUMP JUMPDEST POP POP JUMPDEST POP CALLDATALOAD PUSH1 0x1 PUSH1 0x1 PUSH1 0xA0 SHL SUB AND PUSH2 0x1201 JUMP JUMPDEST PUSH1 0x40 MLOAD DUP1 DUP5 DUP2 MSTORE PUSH1 0x20 ADD DUP4 DUP2 MSTORE PUSH1 0x20 ADD DUP3 DUP2 MSTORE PUSH1 0x20 ADD SWAP4 POP POP POP POP PUSH1 0x40 MLOAD DUP1 SWAP2 SUB SWAP1 RETURN JUMPDEST PUSH2 0x579 PUSH2 0x12DB JUMP JUMPDEST PUSH2 0x617 PUSH1 0x4 DUP1 CALLDATASIZE SUB PUSH1 0x20 DUP2 LT ISZERO PUSH2 0x607 JUMPI PUSH1 0x0 DUP1 PUSH2 0x604 PUSH2 0x607A JUMP JUMPDEST POP POP JUMPDEST POP CALLDATALOAD PUSH1 0x1 PUSH1 0x1 PUSH1 0xA0 SHL SUB AND PUSH2 0x1A9C JUMP JUMPDEST STOP JUMPDEST PUSH2 0x617 PUSH1 0x4 DUP1 CALLDATASIZE SUB PUSH1 0x20 DUP2 LT ISZERO PUSH2 0x638 JUMPI PUSH1 0x0 DUP1 PUSH2 0x635 PUSH2 0x607A JUMP JUMPDEST POP POP JUMPDEST POP CALLDATALOAD PUSH1 0x1 PUSH1 0x1 PUSH1 0xA0 SHL SUB AND PUSH2 0x1ADA JUMP JUMPDEST PUSH2 0x4B3 PUSH1 0x4 DUP1 CALLDATASIZE SUB PUSH1 0x20 DUP2 LT ISZERO PUSH2 0x667 JUMPI PUSH1 0x0 DUP1 PUSH2 0x664 PUSH2 0x607A JUMP JUMPDEST POP POP JUMPDEST POP CALLDATALOAD PUSH1 0x1 PUSH1 0x1 PUSH1 0xA0 SHL SUB AND PUSH2 0x1B54 JUMP JUMPDEST PUSH2 0x4B3 PUSH2 0x1BA7 JUMP JUMPDEST PUSH2 0x4B3 PUSH2 0x1BB4 JUMP JUMPDEST PUSH2 0x4CD PUSH2 0x1BBE JUMP JUMPDEST PUSH2 0x579 PUSH1 0x4 DUP1 CALLDATASIZE SUB PUSH1 0x20 DUP2 LT ISZERO PUSH2 0x6AE JUMPI PUSH1 0x0 DUP1 PUSH2 0x6AB PUSH2 0x607A JUMP JUMPDEST POP POP JUMPDEST POP CALLDATALOAD PUSH2 0x1BF5 JUMP JUMPDEST PUSH2 0x617 PUSH1 0x4 DUP1 CALLDATASIZE SUB PUSH1 0x20 DUP2 LT ISZERO PUSH2 0x6D4 JUMPI PUSH1 0x0 DUP1 PUSH2 0x6D1 PUSH2 0x607A JUMP JUMPDEST POP POP JUMPDEST POP CALLDATALOAD PUSH1 0x1 PUSH1 0x1 PUSH1 0xA0 SHL SUB AND PUSH2 0x1CDA JUMP JUMPDEST PUSH2 0x579 PUSH1 0x4 DUP1 CALLDATASIZE SUB PUSH1 0x60 DUP2 LT ISZERO PUSH2 0x703 JUMPI PUSH1 0x0 DUP1 PUSH2 0x700 PUSH2 0x607A JUMP JUMPDEST POP POP JUMPDEST POP PUSH1 0x1 PUSH1 0x1 PUSH1 0xA0 SHL SUB DUP2 CALLDATALOAD DUP2 AND SWAP2 PUSH1 0x20 DUP2 ADD CALLDATALOAD SWAP1 SWAP2 AND SWAP1 PUSH1 0x40 ADD CALLDATALOAD PUSH2 0x1DB9 JUMP JUMPDEST PUSH2 0x617 PUSH1 0x4 DUP1 CALLDATASIZE SUB PUSH1 0x20 DUP2 LT ISZERO PUSH2 0x742 JUMPI PUSH1 0x0 DUP1 PUSH2 0x73F PUSH2 0x607A JUMP JUMPDEST POP POP JUMPDEST POP CALLDATALOAD PUSH2 0x1E7A JUMP JUMPDEST PUSH2 0x4CD PUSH2 0x1FBA JUMP JUMPDEST PUSH2 0x617 PUSH1 0x4 DUP1 CALLDATASIZE SUB PUSH1 0x20 DUP2 LT ISZERO PUSH2 0x770 JUMPI PUSH1 0x0 DUP1 PUSH2 0x76D PUSH2 0x607A JUMP JUMPDEST POP POP JUMPDEST POP CALLDATALOAD PUSH1 0x1 PUSH1 0x1 PUSH1 0xA0 SHL SUB AND PUSH2 0x1FD7 JUMP JUMPDEST PUSH2 0x788 PUSH2 0x20D2 JUMP JUMPDEST PUSH1 0x40 MLOAD PUSH1 0xFF SWAP1 SWAP2 AND DUP2 MSTORE PUSH1 0x20 ADD PUSH1 0x40 MLOAD DUP1 SWAP2 SUB SWAP1 RETURN JUMPDEST PUSH2 0x4B3 PUSH1 0x4 DUP1 CALLDATASIZE SUB PUSH1 0xA0 DUP2 LT ISZERO PUSH2 0x7BD JUMPI PUSH1 0x0 DUP1 PUSH2 0x7BA PUSH2 0x607A JUMP JUMPDEST POP POP JUMPDEST POP DUP1 CALLDATALOAD SWAP1 PUSH1 0x20 DUP2 ADD CALLDATALOAD SWAP1 PUSH1 0x40 DUP2 ADD CALLDATALOAD SWAP1 PUSH1 0x1 PUSH1 0x1 PUSH1 0xA0 SHL SUB PUSH1 0x60 DUP3 ADD CALLDATALOAD AND SWAP1 PUSH1 0x80 ADD CALLDATALOAD PUSH2 0x20D7 JUMP JUMPDEST PUSH2 0x788 PUSH2 0x2323 JUMP JUMPDEST PUSH2 0x617 PUSH1 0x4 DUP1 CALLDATASIZE SUB PUSH1 0x20 DUP2 LT ISZERO PUSH2 0x80C JUMPI PUSH1 0x0 DUP1 PUSH2 0x809 PUSH2 0x607A JUMP JUMPDEST POP POP JUMPDEST POP CALLDATALOAD PUSH1 0x1 PUSH1 0x1 PUSH1 0xA0 SHL SUB AND PUSH2 0x233C JUMP JUMPDEST PUSH2 0x468 PUSH1 0x4 DUP1 CALLDATASIZE SUB PUSH1 0x20 DUP2 LT ISZERO PUSH2 0x83B JUMPI PUSH1 0x0 DUP1 PUSH2 0x838 PUSH2 0x607A JUMP JUMPDEST POP POP JUMPDEST POP CALLDATALOAD PUSH2 0x23E4 JUMP JUMPDEST PUSH2 0x617 PUSH2 0x242F JUMP JUMPDEST PUSH2 0x617 PUSH1 0x4 DUP1 CALLDATASIZE SUB PUSH1 0x20 DUP2 LT ISZERO PUSH2 0x869 JUMPI PUSH1 0x0 DUP1 PUSH2 0x866 PUSH2 0x607A JUMP JUMPDEST POP POP JUMPDEST POP CALLDATALOAD PUSH1 0x1 PUSH1 0x1 PUSH1 0xA0 SHL SUB AND PUSH2 0x24A0 JUMP JUMPDEST PUSH2 0x579 PUSH2 0x266B JUMP JUMPDEST PUSH2 0x468 PUSH2 0x2713 JUMP JUMPDEST PUSH2 0x579 PUSH1 0x4 DUP1 CALLDATASIZE SUB PUSH1 0x20 DUP2 LT ISZERO PUSH2 0x8A8 JUMPI PUSH1 0x0 DUP1 PUSH2 0x8A5 PUSH2 0x607A JUMP JUMPDEST POP POP JUMPDEST POP CALLDATALOAD PUSH1 0x1 PUSH1 0x1 PUSH1 0xA0 SHL SUB AND PUSH2 0x271F JUMP JUMPDEST PUSH2 0x617 PUSH1 0x4 DUP1 CALLDATASIZE SUB PUSH1 0x40 DUP2 LT ISZERO PUSH2 0x8D7 JUMPI PUSH1 0x0 DUP1 PUSH2 0x8D4 PUSH2 0x607A JUMP JUMPDEST POP POP JUMPDEST POP PUSH1 0x1 PUSH1 0x1 PUSH1 0xA0 SHL SUB DUP2 CALLDATALOAD AND SWAP1 PUSH1 0x20 ADD CALLDATALOAD PUSH2 0x28FA JUMP JUMPDEST PUSH2 0x4B3 PUSH1 0x4 DUP1 CALLDATASIZE SUB PUSH1 0x20 DUP2 LT ISZERO PUSH2 0x90C JUMPI PUSH1 0x0 DUP1 PUSH2 0x909 PUSH2 0x607A JUMP JUMPDEST POP POP JUMPDEST POP CALLDATALOAD PUSH1 0x1 PUSH1 0x1 PUSH1 0xA0 SHL SUB AND PUSH2 0x2AEF JUMP JUMPDEST PUSH2 0x617 PUSH1 0x4 DUP1 CALLDATASIZE SUB PUSH1 0xC0 DUP2 LT ISZERO PUSH2 0x93B JUMPI PUSH1 0x0 DUP1 PUSH2 0x938 PUSH2 0x607A JUMP JUMPDEST POP POP JUMPDEST POP PUSH1 0x1 PUSH1 0x1 PUSH1 0xA0 SHL SUB DUP2 CALLDATALOAD DUP2 AND SWAP2 PUSH1 0x20 DUP2 ADD CALLDATALOAD SWAP2 PUSH1 0x40 DUP3 ADD CALLDATALOAD SWAP2 PUSH1 0x60 DUP2 ADD CALLDATALOAD SWAP2 PUSH1 0x80 DUP3 ADD CALLDATALOAD SWAP2 PUSH1 0xA0 ADD CALLDATALOAD AND PUSH2 0x2C89 JUMP JUMPDEST PUSH2 0x617 PUSH1 0x4 DUP1 CALLDATASIZE SUB PUSH1 0x60 DUP2 LT ISZERO PUSH2 0x98A JUMPI PUSH1 0x0 DUP1 PUSH2 0x987 PUSH2 0x607A JUMP JUMPDEST POP POP JUMPDEST POP PUSH1 0x1 PUSH1 0x1 PUSH1 0xA0 SHL SUB DUP2 CALLDATALOAD AND SWAP1 PUSH1 0x20 DUP2 ADD CALLDATALOAD SWAP1 PUSH1 0x40 ADD CALLDATALOAD PUSH2 0x2E92 JUMP JUMPDEST PUSH2 0x4B3 PUSH1 0x4 DUP1 CALLDATASIZE SUB PUSH1 0x20 DUP2 LT ISZERO PUSH2 0x9C5 JUMPI PUSH1 0x0 DUP1 PUSH2 0x9C2 PUSH2 0x607A JUMP JUMPDEST POP POP JUMPDEST POP CALLDATALOAD PUSH1 0x1 PUSH1 0x1 PUSH1 0xA0 SHL SUB AND PUSH2 0x3078 JUMP JUMPDEST PUSH2 0x9DD PUSH2 0x30DE JUMP JUMPDEST PUSH1 0x40 MLOAD PUSH1 0x20 DUP1 DUP3 MSTORE DUP2 SWAP1 DUP2 ADD DUP4 DUP2 DUP2 MLOAD DUP2 MSTORE PUSH1 0x20 ADD SWAP2 POP DUP1 MLOAD SWAP1 PUSH1 0x20 ADD SWAP1 PUSH1 0x20 MUL DUP1 DUP4 DUP4 PUSH1 0x0 JUMPDEST DUP4 DUP2 LT ISZERO PUSH2 0xA1C JUMPI DUP1 DUP3 ADD MLOAD DUP4 DUP3 ADD MSTORE PUSH1 0x20 ADD PUSH2 0xA04 JUMP JUMPDEST POP POP POP POP SWAP1 POP ADD SWAP3 POP POP POP PUSH1 0x40 MLOAD DUP1 SWAP2 SUB SWAP1 RETURN JUMPDEST PUSH2 0x617 PUSH2 0x3239 JUMP JUMPDEST PUSH2 0x468 PUSH1 0x4 DUP1 CALLDATASIZE SUB PUSH1 0x20 DUP2 LT ISZERO PUSH2 0xA57 JUMPI PUSH1 0x0 DUP1 PUSH2 0xA54 PUSH2 0x607A JUMP JUMPDEST POP POP JUMPDEST POP CALLDATALOAD PUSH2 0x33BC JUMP JUMPDEST PUSH2 0x4B3 PUSH1 0x4 DUP1 CALLDATASIZE SUB PUSH1 0x20 DUP2 LT ISZERO PUSH2 0xA7D JUMPI PUSH1 0x0 DUP1 PUSH2 0xA7A PUSH2 0x607A JUMP JUMPDEST POP POP JUMPDEST POP CALLDATALOAD PUSH2 0x3407 JUMP JUMPDEST PUSH2 0x617 PUSH1 0x4 DUP1 CALLDATASIZE SUB PUSH1 0x20 DUP2 LT ISZERO PUSH2 0xAA3 JUMPI PUSH1 0x0 DUP1 PUSH2 0xAA0 PUSH2 0x607A JUMP JUMPDEST POP POP JUMPDEST POP CALLDATALOAD PUSH2 0x345B JUMP JUMPDEST PUSH2 0x468 PUSH2 0x3502 JUMP JUMPDEST PUSH2 0x4B3 PUSH1 0x4 DUP1 CALLDATASIZE SUB PUSH1 0xC0 DUP2 LT ISZERO PUSH2 0xAD1 JUMPI PUSH1 0x0 DUP1 PUSH2 0xACE PUSH2 0x607A JUMP JUMPDEST POP POP JUMPDEST POP PUSH1 0x1 PUSH1 0x1 PUSH1 0xA0 SHL SUB DUP2 CALLDATALOAD DUP2 AND SWAP2 PUSH1 0x20 DUP2 ADD CALLDATALOAD SWAP2 PUSH1 0x40 DUP3 ADD CALLDATALOAD SWAP2 PUSH1 0x60 DUP2 ADD CALLDATALOAD SWAP2 PUSH1 0x80 DUP3 ADD CALLDATALOAD AND SWAP1 PUSH1 0xA0 ADD CALLDATALOAD PUSH2 0x350D JUMP JUMPDEST PUSH2 0x4B3 PUSH2 0x373C JUMP JUMPDEST PUSH2 0x4CD PUSH2 0x3747 JUMP JUMPDEST PUSH2 0x617 PUSH1 0x4 DUP1 CALLDATASIZE SUB PUSH1 0x20 DUP2 LT ISZERO PUSH2 0xB30 JUMPI PUSH1 0x0 DUP1 PUSH2 0xB2D PUSH2 0x607A JUMP JUMPDEST POP POP JUMPDEST POP CALLDATALOAD PUSH1 0x1 PUSH1 0x1 PUSH1 0xA0 SHL SUB AND PUSH2 0x37E9 JUMP JUMPDEST PUSH2 0x617 PUSH2 0x3864 JUMP JUMPDEST PUSH2 0x5BC PUSH1 0x4 DUP1 CALLDATASIZE SUB PUSH1 0x20 DUP2 LT ISZERO PUSH2 0xB67 JUMPI PUSH1 0x0 DUP1 PUSH2 0xB64 PUSH2 0x607A JUMP JUMPDEST POP POP JUMPDEST POP CALLDATALOAD PUSH2 0x399C JUMP JUMPDEST PUSH2 0x617 PUSH2 0x3A59 JUMP JUMPDEST PUSH2 0x468 PUSH2 0x3B9C JUMP JUMPDEST PUSH2 0x617 PUSH1 0x4 DUP1 CALLDATASIZE SUB PUSH1 0x20 DUP2 LT ISZERO PUSH2 0xB9D JUMPI PUSH1 0x0 DUP1 PUSH2 0xB9A PUSH2 0x607A JUMP JUMPDEST POP POP JUMPDEST POP CALLDATALOAD PUSH1 0x1 PUSH1 0x1 PUSH1 0xA0 SHL SUB AND PUSH2 0x3BA8 JUMP JUMPDEST PUSH2 0x4B3 PUSH1 0x4 DUP1 CALLDATASIZE SUB PUSH1 0x20 DUP2 LT ISZERO PUSH2 0xBCC JUMPI PUSH1 0x0 DUP1 PUSH2 0xBC9 PUSH2 0x607A JUMP JUMPDEST POP POP JUMPDEST POP CALLDATALOAD PUSH1 0x1 PUSH1 0x1 PUSH1 0xA0 SHL SUB AND PUSH2 0x3BEC JUMP JUMPDEST PUSH2 0x4B3 PUSH2 0x3C3F JUMP JUMPDEST PUSH2 0x4B3 PUSH1 0x4 DUP1 CALLDATASIZE SUB PUSH1 0x20 DUP2 LT ISZERO PUSH2 0xC03 JUMPI PUSH1 0x0 DUP1 PUSH2 0xC00 PUSH2 0x607A JUMP JUMPDEST POP POP JUMPDEST POP CALLDATALOAD PUSH1 0x1 PUSH1 0x1 PUSH1 0xA0 SHL SUB AND PUSH2 0x3C46 JUMP JUMPDEST PUSH2 0x579 PUSH1 0x4 DUP1 CALLDATASIZE SUB PUSH1 0x40 DUP2 LT ISZERO PUSH2 0xC32 JUMPI PUSH1 0x0 DUP1 PUSH2 0xC2F PUSH2 0x607A JUMP JUMPDEST POP POP JUMPDEST POP PUSH1 0x1 PUSH1 0x1 PUSH1 0xA0 SHL SUB DUP2 CALLDATALOAD AND SWAP1 PUSH1 0x20 ADD CALLDATALOAD PUSH2 0x3C99 JUMP JUMPDEST PUSH2 0xC50 PUSH2 0x3D6D JUMP JUMPDEST PUSH1 0x40 MLOAD DUP1 DUP3 PUSH2 0x300 DUP1 DUP4 DUP4 PUSH1 0x0 JUMPDEST DUP4 DUP2 LT ISZERO PUSH2 0xC76 JUMPI DUP1 DUP3 ADD MLOAD DUP4 DUP3 ADD MSTORE PUSH1 0x20 ADD PUSH2 0xC5E JUMP JUMPDEST POP POP POP POP SWAP1 POP ADD SWAP2 POP POP PUSH1 0x40 MLOAD DUP1 SWAP2 SUB SWAP1 RETURN JUMPDEST PUSH2 0x617 PUSH1 0x4 DUP1 CALLDATASIZE SUB PUSH1 0x60 DUP2 LT ISZERO PUSH2 0xCA8 JUMPI PUSH1 0x0 DUP1 PUSH2 0xCA5 PUSH2 0x607A JUMP JUMPDEST POP POP JUMPDEST POP PUSH1 0x1 PUSH1 0x1 PUSH1 0xA0 SHL SUB DUP2 CALLDATALOAD AND SWAP1 PUSH1 0x20 DUP2 ADD CALLDATALOAD SWAP1 PUSH1 0x40 ADD CALLDATALOAD PUSH2 0x3DCF JUMP JUMPDEST PUSH2 0x617 PUSH2 0x3EAF JUMP JUMPDEST PUSH2 0x579 PUSH2 0x3F56 JUMP JUMPDEST PUSH2 0x617 PUSH1 0x4 DUP1 CALLDATASIZE SUB PUSH1 0x20 DUP2 LT ISZERO PUSH2 0xCF3 JUMPI PUSH1 0x0 DUP1 PUSH2 0xCF0 PUSH2 0x607A JUMP JUMPDEST POP POP JUMPDEST POP CALLDATALOAD PUSH1 0x1 PUSH1 0x1 PUSH1 0xA0 SHL SUB AND PUSH2 0x3F62 JUMP JUMPDEST PUSH2 0x617 PUSH2 0x3F78 JUMP JUMPDEST PUSH2 0x617 PUSH1 0x4 DUP1 CALLDATASIZE SUB PUSH1 0x40 DUP2 LT ISZERO PUSH2 0xD2A JUMPI PUSH1 0x0 DUP1 PUSH2 0xD27 PUSH2 0x607A JUMP JUMPDEST POP POP JUMPDEST POP PUSH1 0x1 PUSH1 0x1 PUSH1 0xA0 SHL SUB DUP2 CALLDATALOAD AND SWAP1 PUSH1 0x20 ADD CALLDATALOAD PUSH2 0x3FFA JUMP JUMPDEST PUSH2 0x468 PUSH2 0x4146 JUMP JUMPDEST PUSH2 0x4B3 PUSH1 0x4 DUP1 CALLDATASIZE SUB PUSH1 0x20 DUP2 LT ISZERO PUSH2 0xD67 JUMPI PUSH1 0x0 DUP1 PUSH2 0xD64 PUSH2 0x607A JUMP JUMPDEST POP POP JUMPDEST POP CALLDATALOAD PUSH2 0x4152 JUMP JUMPDEST PUSH2 0x4B3 PUSH1 0x4 DUP1 CALLDATASIZE SUB PUSH1 0x80 DUP2 LT ISZERO PUSH2 0xD8D JUMPI PUSH1 0x0 DUP1 PUSH2 0xD8A PUSH2 0x607A JUMP JUMPDEST POP POP JUMPDEST POP PUSH1 0x1 PUSH1 0x1 PUSH1 0xA0 SHL SUB DUP2 CALLDATALOAD AND SWAP1 PUSH1 0x20 DUP2 ADD CALLDATALOAD SWAP1 PUSH1 0x40 DUP2 ADD CALLDATALOAD SWAP1 PUSH1 0x60 ADD CALLDATALOAD PUSH2 0x417A JUMP JUMPDEST PUSH2 0x4B3 PUSH1 0x4 DUP1 CALLDATASIZE SUB PUSH1 0x40 DUP2 LT ISZERO PUSH2 0xDCE JUMPI PUSH1 0x0 DUP1 PUSH2 0xDCB PUSH2 0x607A JUMP JUMPDEST POP POP JUMPDEST POP PUSH1 0x1 PUSH1 0x1 PUSH1 0xA0 SHL SUB DUP2 CALLDATALOAD AND SWAP1 PUSH1 0x20 ADD CALLDATALOAD PUSH2 0x4396 JUMP JUMPDEST PUSH2 0x4B3 PUSH1 0x4 DUP1 CALLDATASIZE SUB PUSH1 0x20 DUP2 LT ISZERO PUSH2 0xE03 JUMPI PUSH1 0x0 DUP1 PUSH2 0xE00 PUSH2 0x607A JUMP JUMPDEST POP POP JUMPDEST POP CALLDATALOAD PUSH2 0x445C JUMP JUMPDEST PUSH2 0x468 PUSH2 0x44B0 JUMP JUMPDEST PUSH2 0x4B3 PUSH2 0x44BC JUMP JUMPDEST PUSH2 0x4B3 PUSH1 0x4 DUP1 CALLDATASIZE SUB PUSH1 0x40 DUP2 LT ISZERO PUSH2 0xE39 JUMPI PUSH1 0x0 DUP1 PUSH2 0xE36 PUSH2 0x607A JUMP JUMPDEST POP POP JUMPDEST POP PUSH1 0x1 PUSH1 0x1 PUSH1 0xA0 SHL SUB DUP2 CALLDATALOAD DUP2 AND SWAP2 PUSH1 0x20 ADD CALLDATALOAD AND PUSH2 0x44F9 JUMP JUMPDEST PUSH2 0x617 PUSH1 0x4 DUP1 CALLDATASIZE SUB PUSH1 0x60 DUP2 LT ISZERO PUSH2 0xE70 JUMPI PUSH1 0x0 DUP1 PUSH2 0xE6D PUSH2 0x607A JUMP JUMPDEST POP POP JUMPDEST POP DUP1 CALLDATALOAD SWAP1 PUSH1 0x20 DUP2 ADD CALLDATALOAD SWAP1 PUSH1 0x40 ADD CALLDATALOAD PUSH2 0x4567 JUMP JUMPDEST PUSH2 0x4B3 PUSH2 0x46B0 JUMP JUMPDEST PUSH2 0x579 PUSH1 0x4 DUP1 CALLDATASIZE SUB PUSH1 0x40 DUP2 LT ISZERO PUSH2 0xEAA JUMPI PUSH1 0x0 DUP1 PUSH2 0xEA7 PUSH2 0x607A JUMP JUMPDEST POP POP JUMPDEST POP PUSH1 0x1 PUSH1 0x1 PUSH1 0xA0 SHL SUB DUP2 CALLDATALOAD AND SWAP1 PUSH1 0x20 ADD CALLDATALOAD PUSH2 0x46B5 JUMP JUMPDEST PUSH2 0x617 PUSH1 0x4 DUP1 CALLDATASIZE SUB PUSH1 0x40 DUP2 LT ISZERO PUSH2 0xEDF JUMPI PUSH1 0x0 DUP1 PUSH2 0xEDC PUSH2 0x607A JUMP JUMPDEST POP POP JUMPDEST POP PUSH1 0x1 PUSH1 0x1 PUSH1 0xA0 SHL SUB DUP2 CALLDATALOAD AND SWAP1 PUSH1 0x20 ADD CALLDATALOAD PUSH2 0x488C JUMP JUMPDEST PUSH2 0x468 PUSH2 0x4934 JUMP JUMPDEST PUSH2 0x468 PUSH2 0x4940 JUMP JUMPDEST PUSH2 0x617 PUSH1 0x4 DUP1 CALLDATASIZE SUB PUSH1 0x40 DUP2 LT ISZERO PUSH2 0xF24 JUMPI PUSH1 0x0 DUP1 PUSH2 0xF21 PUSH2 0x607A JUMP JUMPDEST POP POP JUMPDEST POP PUSH1 0x1 PUSH1 0x1 PUSH1 0xA0 SHL SUB DUP2 CALLDATALOAD AND SWAP1 PUSH1 0x20 ADD CALLDATALOAD PUSH2 0x494C JUMP JUMPDEST PUSH2 0x4B3 PUSH1 0x4 DUP1 CALLDATASIZE SUB PUSH1 0x60 DUP2 LT ISZERO PUSH2 0xF59 JUMPI PUSH1 0x0 DUP1 PUSH2 0xF56 PUSH2 0x607A JUMP JUMPDEST POP POP JUMPDEST POP DUP1 CALLDATALOAD SWAP1 PUSH1 0x20 DUP2 ADD CALLDATALOAD SWAP1 PUSH1 0x40 ADD CALLDATALOAD PUSH2 0x4B5F JUMP JUMPDEST PUSH1 0x1 PUSH1 0xB PUSH2 0xF78 PUSH2 0x60E5 JUMP JUMPDEST SWAP1 PUSH2 0x100 EXP SWAP1 DIV PUSH1 0x1 PUSH1 0x1 PUSH1 0xA0 SHL SUB AND DUP2 JUMP JUMPDEST PUSH1 0x0 PUSH2 0xF95 PUSH2 0x4D95 JUMP JUMPDEST PUSH1 0x1 PUSH1 0x1 PUSH1 0xA0 SHL SUB AND PUSH4 0x5B3C1C9 DUP4 PUSH1 0x40 MLOAD PUSH1 0x1 PUSH1 0x1 PUSH1 0xE0 SHL SUB NOT PUSH1 0xE0 DUP5 SWAP1 SHL AND DUP2 MSTORE PUSH1 0x1 PUSH1 0x1 PUSH1 0xA0 SHL SUB SWAP1 SWAP2 AND PUSH1 0x4 DUP3 ADD MSTORE PUSH1 0x24 ADD PUSH1 0x20 PUSH1 0x40 MLOAD DUP1 DUP4 SUB DUP2 DUP7 DUP1 PUSH2 0xFDE PUSH2 0x6140 JUMP JUMPDEST ISZERO DUP1 ISZERO PUSH2 0xFF3 JUMPI PUSH1 0x0 DUP1 PUSH2 0xFF0 PUSH2 0x607A JUMP JUMPDEST POP POP JUMPDEST POP GAS PUSH2 0xFFD PUSH2 0x618C JUMP JUMPDEST POP POP POP POP POP ISZERO DUP1 ISZERO PUSH2 0x101C JUMPI RETURNDATASIZE PUSH1 0x0 DUP1 RETURNDATACOPY RETURNDATASIZE PUSH1 0x0 PUSH2 0x1019 PUSH2 0x607A JUMP JUMPDEST POP POP JUMPDEST POP POP POP POP PUSH1 0x40 MLOAD RETURNDATASIZE PUSH1 0x20 DUP2 LT ISZERO PUSH2 0x103B JUMPI PUSH1 0x0 DUP1 PUSH2 0x1038 PUSH2 0x607A JUMP JUMPDEST POP POP JUMPDEST DUP2 ADD SWAP1 DUP1 DUP1 MLOAD SWAP4 POP POP POP POP JUMPDEST SWAP2 SWAP1 POP JUMP JUMPDEST PUSH1 0x8 DUP1 PUSH2 0x1057 PUSH2 0x60E5 JUMP JUMPDEST PUSH1 0x1 DUP2 PUSH1 0x1 AND ISZERO PUSH2 0x100 MUL SUB AND PUSH1 0x2 SWAP1 DIV DUP1 PUSH1 0x1F ADD PUSH1 0x20 DUP1 SWAP2 DIV MUL PUSH1 0x20 ADD PUSH1 0x40 MLOAD SWAP1 DUP2 ADD PUSH1 0x40 MSTORE DUP2 DUP2 MSTORE SWAP2 SWAP1 PUSH1 0x20 DUP4 ADD DUP3 DUP1 PUSH2 0x1091 PUSH2 0x60E5 JUMP JUMPDEST PUSH1 0x1 DUP2 PUSH1 0x1 AND ISZERO PUSH2 0x100 MUL SUB AND PUSH1 0x2 SWAP1 DIV DUP1 ISZERO PUSH2 0x10FD JUMPI DUP1 PUSH1 0x1F LT PUSH2 0x10CB JUMPI PUSH2 0x100 DUP1 DUP4 PUSH2 0x10BD PUSH2 0x60E5 JUMP JUMPDEST DIV MUL DUP4 MSTORE SWAP2 PUSH1 0x20 ADD SWAP2 PUSH2 0x10FD JUMP JUMPDEST DUP3 ADD SWAP2 SWAP1 PUSH1 0x0 MSTORE PUSH1 0x20 PUSH1 0x0 KECCAK256 SWAP1 JUMPDEST DUP2 PUSH2 0x10E2 PUSH2 0x60E5 JUMP JUMPDEST DUP2 MSTORE SWAP1 PUSH1 0x1 ADD SWAP1 PUSH1 0x20 ADD DUP1 DUP4 GT PUSH2 0x10D9 JUMPI DUP3 SWAP1 SUB PUSH1 0x1F AND DUP3 ADD SWAP2 JUMPDEST POP POP POP POP POP DUP2 JUMP JUMPDEST PUSH1 0x0 PUSH2 0x110F PUSH2 0x4DDB JUMP JUMPDEST PUSH1 0x0 DUP1 PUSH1 0x6 PUSH2 0x111C PUSH2 0x60E5 JUMP JUMPDEST SWAP1 PUSH2 0x100 EXP SWAP1 DIV PUSH1 0x1 PUSH1 0x1 PUSH1 0xA0 SHL SUB AND SWAP1 POP PUSH1 0x7 PUSH1 0x0 SWAP1 PUSH2 0x113B PUSH2 0x60E5 JUMP JUMPDEST SWAP1 PUSH2 0x100 EXP SWAP1 DIV PUSH1 0x1 PUSH1 0x1 PUSH1 0xA0 SHL SUB AND PUSH1 0x1 PUSH1 0x1 PUSH1 0xA0 SHL SUB AND PUSH4 0xDA46098C DUP3 DUP7 DUP7 PUSH1 0x40 MLOAD PUSH1 0x1 PUSH1 0x1 PUSH1 0xE0 SHL SUB NOT PUSH1 0xE0 DUP7 SWAP1 SHL AND DUP2 MSTORE PUSH1 0x1 PUSH1 0x1 PUSH1 0xA0 SHL SUB SWAP4 DUP5 AND PUSH1 0x4 DUP3 ADD MSTORE SWAP2 SWAP1 SWAP3 AND PUSH1 0x24 DUP3 ADD MSTORE PUSH1 0x44 DUP2 ADD SWAP2 SWAP1 SWAP2 MSTORE PUSH1 0x64 ADD PUSH1 0x0 PUSH1 0x40 MLOAD DUP1 DUP4 SUB DUP2 PUSH1 0x0 DUP8 DUP1 PUSH2 0x11A9 PUSH2 0x6140 JUMP JUMPDEST ISZERO DUP1 ISZERO PUSH2 0x11BE JUMPI PUSH1 0x0 DUP1 PUSH2 0x11BB PUSH2 0x607A JUMP JUMPDEST POP POP JUMPDEST POP GAS PUSH2 0x11C8 PUSH2 0x6245 JUMP JUMPDEST POP POP POP POP POP POP ISZERO DUP1 ISZERO PUSH2 0x11E8 JUMPI RETURNDATASIZE PUSH1 0x0 DUP1 RETURNDATACOPY RETURNDATASIZE PUSH1 0x0 PUSH2 0x11E5 PUSH2 0x607A JUMP JUMPDEST POP POP JUMPDEST POP POP POP POP PUSH2 0x11F7 DUP2 DUP6 DUP6 PUSH2 0x4EB1 JUMP JUMPDEST POP PUSH1 0x1 SWAP4 SWAP3 POP POP POP JUMP JUMPDEST PUSH1 0x0 DUP1 PUSH1 0x0 PUSH2 0x120E PUSH2 0x4D95 JUMP JUMPDEST PUSH1 0x1 PUSH1 0x1 PUSH1 0xA0 SHL SUB AND PUSH4 0x1137AEDF DUP6 PUSH1 0x40 MLOAD PUSH1 0x1 PUSH1 0x1 PUSH1 0xE0 SHL SUB NOT PUSH1 0xE0 DUP5 SWAP1 SHL AND DUP2 MSTORE PUSH1 0x1 PUSH1 0x1 PUSH1 0xA0 SHL SUB SWAP1 SWAP2 AND PUSH1 0x4 DUP3 ADD MSTORE PUSH1 0x24 ADD PUSH1 0x60 PUSH1 0x40 MLOAD DUP1 DUP4 SUB DUP2 DUP7 DUP1 PUSH2 0x1257 PUSH2 0x6140 JUMP JUMPDEST ISZERO DUP1 ISZERO PUSH2 0x126C JUMPI PUSH1 0x0 DUP1 PUSH2 0x1269 PUSH2 0x607A JUMP JUMPDEST POP POP JUMPDEST POP GAS PUSH2 0x1276 PUSH2 0x618C JUMP JUMPDEST POP POP POP POP POP ISZERO DUP1 ISZERO PUSH2 0x1295 JUMPI RETURNDATASIZE PUSH1 0x0 DUP1 RETURNDATACOPY RETURNDATASIZE PUSH1 0x0 PUSH2 0x1292 PUSH2 0x607A JUMP JUMPDEST POP POP JUMPDEST POP POP POP POP PUSH1 0x40 MLOAD RETURNDATASIZE PUSH1 0x60 DUP2 LT ISZERO PUSH2 0x12B4 JUMPI PUSH1 0x0 DUP1 PUSH2 0x12B1 PUSH2 0x607A JUMP JUMPDEST POP POP JUMPDEST DUP2 ADD SWAP1 DUP1 DUP1 MLOAD SWAP3 SWAP2 SWAP1 PUSH1 0x20 ADD DUP1 MLOAD SWAP3 SWAP2 SWAP1 PUSH1 0x20 ADD DUP1 MLOAD SWAP5 SWAP10 SWAP4 SWAP9 POP SWAP4 SWAP7 POP SWAP2 SWAP5 POP POP POP POP POP JUMP JUMPDEST PUSH1 0x0 PUSH2 0x12E5 PUSH2 0x4F94 JUMP JUMPDEST PUSH1 0x1 PUSH1 0x1 PUSH1 0xA0 SHL SUB AND PUSH4 0x7C312541 PUSH1 0x40 MLOAD DUP2 PUSH4 0xFFFFFFFF AND PUSH1 0xE0 SHL DUP2 MSTORE PUSH1 0x4 ADD PUSH1 0x0 PUSH1 0x40 MLOAD DUP1 DUP4 SUB DUP2 DUP7 DUP1 PUSH2 0x1318 PUSH2 0x6140 JUMP JUMPDEST ISZERO DUP1 ISZERO PUSH2 0x132D JUMPI PUSH1 0x0 DUP1 PUSH2 0x132A PUSH2 0x607A JUMP JUMPDEST POP POP JUMPDEST POP GAS PUSH2 0x1337 PUSH2 0x618C JUMP JUMPDEST POP POP POP POP POP ISZERO DUP1 ISZERO PUSH2 0x1356 JUMPI RETURNDATASIZE PUSH1 0x0 DUP1 RETURNDATACOPY RETURNDATASIZE PUSH1 0x0 PUSH2 0x1353 PUSH2 0x607A JUMP JUMPDEST POP POP JUMPDEST POP POP POP POP PUSH1 0x0 PUSH1 0x1 PUSH1 0x1 PUSH1 0xA0 SHL SUB AND PUSH2 0x136D PUSH2 0x4FE2 JUMP JUMPDEST PUSH1 0x1 PUSH1 0x1 PUSH1 0xA0 SHL SUB AND EQ ISZERO PUSH2 0x13D1 JUMPI PUSH1 0x40 MLOAD PUSH3 0x461BCD PUSH1 0xE5 SHL DUP2 MSTORE PUSH1 0x20 PUSH1 0x4 DUP3 ADD MSTORE PUSH1 0x1B PUSH1 0x24 DUP3 ADD MSTORE PUSH32 0x52657761726473446973747269627574696F6E206E6F74207365740000000000 PUSH1 0x44 DUP3 ADD MSTORE PUSH1 0x64 ADD PUSH1 0x40 MLOAD DUP1 SWAP2 SUB SWAP1 PUSH2 0x13CE PUSH2 0x607A JUMP JUMPDEST POP POP JUMPDEST PUSH1 0x0 PUSH2 0x13DB PUSH2 0x501A JUMP JUMPDEST SWAP1 POP PUSH1 0x0 PUSH2 0x13E7 PUSH2 0x4FE2 JUMP JUMPDEST SWAP1 POP PUSH1 0x0 DUP3 PUSH1 0x1 PUSH1 0x1 PUSH1 0xA0 SHL SUB AND PUSH4 0xCC5C095C PUSH1 0x40 MLOAD DUP2 PUSH4 0xFFFFFFFF AND PUSH1 0xE0 SHL DUP2 MSTORE PUSH1 0x4 ADD PUSH1 0x20 PUSH1 0x40 MLOAD DUP1 DUP4 SUB DUP2 DUP7 DUP1 PUSH2 0x141F PUSH2 0x6140 JUMP JUMPDEST ISZERO DUP1 ISZERO PUSH2 0x1434 JUMPI PUSH1 0x0 DUP1 PUSH2 0x1431 PUSH2 0x607A JUMP JUMPDEST POP POP JUMPDEST POP GAS PUSH2 0x143E PUSH2 0x618C JUMP JUMPDEST POP POP POP POP POP ISZERO DUP1 ISZERO PUSH2 0x145D JUMPI RETURNDATASIZE PUSH1 0x0 DUP1 RETURNDATACOPY RETURNDATASIZE PUSH1 0x0 PUSH2 0x145A PUSH2 0x607A JUMP JUMPDEST POP POP JUMPDEST POP POP POP POP PUSH1 0x40 MLOAD RETURNDATASIZE PUSH1 0x20 DUP2 LT ISZERO PUSH2 0x147C JUMPI PUSH1 0x0 DUP1 PUSH2 0x1479 PUSH2 0x607A JUMP JUMPDEST POP POP JUMPDEST DUP2 ADD SWAP1 DUP1 DUP1 MLOAD SWAP4 POP POP POP DUP2 ISZERO ISZERO SWAP1 POP PUSH2 0x14DC JUMPI PUSH1 0x40 MLOAD PUSH3 0x461BCD PUSH1 0xE5 SHL DUP2 MSTORE PUSH1 0x20 PUSH1 0x4 DUP3 ADD MSTORE PUSH1 0x15 PUSH1 0x24 DUP3 ADD MSTORE PUSH21 0x4E6F20737570706C79206973206D696E7461626C65 PUSH1 0x58 SHL PUSH1 0x44 DUP3 ADD MSTORE PUSH1 0x64 ADD PUSH1 0x40 MLOAD DUP1 SWAP2 SUB SWAP1 PUSH2 0x14D9 PUSH2 0x607A JUMP JUMPDEST POP POP JUMPDEST DUP3 PUSH1 0x1 PUSH1 0x1 PUSH1 0xA0 SHL SUB AND PUSH4 0x7E7961D7 DUP3 PUSH1 0x40 MLOAD PUSH1 0x1 PUSH1 0x1 PUSH1 0xE0 SHL SUB NOT PUSH1 0xE0 DUP5 SWAP1 SHL AND DUP2 MSTORE PUSH1 0x4 DUP2 ADD SWAP2 SWAP1 SWAP2 MSTORE PUSH1 0x24 ADD PUSH1 0x20 PUSH1 0x40 MLOAD DUP1 DUP4 SUB DUP2 PUSH1 0x0 DUP8 DUP1 PUSH2 0x1520 PUSH2 0x6140 JUMP JUMPDEST ISZERO DUP1 ISZERO PUSH2 0x1535 JUMPI PUSH1 0x0 DUP1 PUSH2 0x1532 PUSH2 0x607A JUMP JUMPDEST POP POP JUMPDEST POP GAS PUSH2 0x153F PUSH2 0x6245 JUMP JUMPDEST POP POP POP POP POP POP ISZERO DUP1 ISZERO PUSH2 0x155F JUMPI RETURNDATASIZE PUSH1 0x0 DUP1 RETURNDATACOPY RETURNDATASIZE PUSH1 0x0 PUSH2 0x155C PUSH2 0x607A JUMP JUMPDEST POP POP JUMPDEST POP POP POP POP PUSH1 0x40 MLOAD RETURNDATASIZE PUSH1 0x20 DUP2 LT ISZERO PUSH2 0x157E JUMPI PUSH1 0x0 DUP1 PUSH2 0x157B PUSH2 0x607A JUMP JUMPDEST POP POP JUMPDEST DUP2 ADD SWAP1 DUP1 DUP1 MLOAD POP PUSH1 0x0 SWAP3 POP POP POP PUSH1 0x1 PUSH1 0x1 PUSH1 0xA0 SHL SUB DUP5 AND PUSH4 0x9BDD7AC7 PUSH1 0x40 MLOAD DUP2 PUSH4 0xFFFFFFFF AND PUSH1 0xE0 SHL DUP2 MSTORE PUSH1 0x4 ADD PUSH1 0x20 PUSH1 0x40 MLOAD DUP1 DUP4 SUB DUP2 DUP7 DUP1 PUSH2 0x15BF PUSH2 0x6140 JUMP JUMPDEST ISZERO DUP1 ISZERO PUSH2 0x15D4 JUMPI PUSH1 0x0 DUP1 PUSH2 0x15D1 PUSH2 0x607A JUMP JUMPDEST POP POP JUMPDEST POP GAS PUSH2 0x15DE PUSH2 0x618C JUMP JUMPDEST POP POP POP POP POP ISZERO DUP1 ISZERO PUSH2 0x15FD JUMPI RETURNDATASIZE PUSH1 0x0 DUP1 RETURNDATACOPY RETURNDATASIZE PUSH1 0x0 PUSH2 0x15FA PUSH2 0x607A JUMP JUMPDEST POP POP JUMPDEST POP POP POP POP PUSH1 0x40 MLOAD RETURNDATASIZE PUSH1 0x20 DUP2 LT ISZERO PUSH2 0x161C JUMPI PUSH1 0x0 DUP1 PUSH2 0x1619 PUSH2 0x607A JUMP JUMPDEST POP POP JUMPDEST DUP2 ADD SWAP1 DUP1 DUP1 MLOAD SWAP4 POP PUSH1 0x0 SWAP3 POP PUSH2 0x163C SWAP2 POP DUP5 SWAP1 POP DUP4 PUSH4 0xFFFFFFFF PUSH2 0x506A AND JUMP JUMPDEST SWAP1 POP PUSH1 0x0 PUSH1 0x7 PUSH2 0x164A PUSH2 0x60E5 JUMP JUMPDEST PUSH1 0x1 PUSH1 0x1 PUSH1 0xA0 SHL SUB PUSH2 0x100 SWAP3 SWAP1 SWAP3 EXP SWAP1 DIV AND PUSH4 0xB46310F6 DUP6 PUSH2 0x173F DUP5 PUSH1 0x0 PUSH1 0x7 PUSH2 0x1672 PUSH2 0x60E5 JUMP JUMPDEST SWAP1 PUSH2 0x100 EXP SWAP1 DIV PUSH1 0x1 PUSH1 0x1 PUSH1 0xA0 SHL SUB AND PUSH1 0x1 PUSH1 0x1 PUSH1 0xA0 SHL SUB AND PUSH4 0x70A08231 DUP11 PUSH1 0x40 MLOAD PUSH1 0x1 PUSH1 0x1 PUSH1 0xE0 SHL SUB NOT PUSH1 0xE0 DUP5 SWAP1 SHL AND DUP2 MSTORE PUSH1 0x1 PUSH1 0x1 PUSH1 0xA0 SHL SUB SWAP1 SWAP2 AND PUSH1 0x4 DUP3 ADD MSTORE PUSH1 0x24 ADD PUSH1 0x20 PUSH1 0x40 MLOAD DUP1 DUP4 SUB DUP2 DUP7 DUP1 PUSH2 0x16CB PUSH2 0x6140 JUMP JUMPDEST ISZERO DUP1 ISZERO PUSH2 0x16E0 JUMPI PUSH1 0x0 DUP1 PUSH2 0x16DD PUSH2 0x607A JUMP JUMPDEST POP POP JUMPDEST POP GAS PUSH2 0x16EA PUSH2 0x618C JUMP JUMPDEST POP POP POP POP POP ISZERO DUP1 ISZERO PUSH2 0x1709 JUMPI RETURNDATASIZE PUSH1 0x0 DUP1 RETURNDATACOPY RETURNDATASIZE PUSH1 0x0 PUSH2 0x1706 PUSH2 0x607A JUMP JUMPDEST POP POP JUMPDEST POP POP POP POP PUSH1 0x40 MLOAD RETURNDATASIZE PUSH1 0x20 DUP2 LT ISZERO PUSH2 0x1728 JUMPI PUSH1 0x0 DUP1 PUSH2 0x1725 PUSH2 0x607A JUMP JUMPDEST POP POP JUMPDEST DUP2 ADD SWAP1 DUP1 DUP1 MLOAD SWAP4 SWAP3 POP POP PUSH4 0xFFFFFFFF PUSH2 0x50CF AND SWAP1 POP JUMP JUMPDEST PUSH1 0x40 MLOAD PUSH1 0x1 PUSH1 0x1 PUSH1 0xE0 SHL SUB NOT PUSH1 0xE0 DUP6 SWAP1 SHL AND DUP2 MSTORE PUSH1 0x1 PUSH1 0x1 PUSH1 0xA0 SHL SUB SWAP1 SWAP3 AND PUSH1 0x4 DUP4 ADD MSTORE PUSH1 0x24 DUP3 ADD MSTORE PUSH1 0x44 ADD PUSH1 0x0 PUSH1 0x40 MLOAD DUP1 DUP4 SUB DUP2 PUSH1 0x0 DUP8 DUP1 PUSH2 0x1780 PUSH2 0x6140 JUMP JUMPDEST ISZERO DUP1 ISZERO PUSH2 0x1795 JUMPI PUSH1 0x0 DUP1 PUSH2 0x1792 PUSH2 0x607A JUMP JUMPDEST POP POP JUMPDEST POP GAS PUSH2 0x179F PUSH2 0x6245 JUMP JUMPDEST POP POP POP POP POP POP ISZERO DUP1 ISZERO PUSH2 0x17BF JUMPI RETURNDATASIZE PUSH1 0x0 DUP1 RETURNDATACOPY RETURNDATASIZE PUSH1 0x0 PUSH2 0x17BC PUSH2 0x607A JUMP JUMPDEST POP POP JUMPDEST POP POP POP POP PUSH2 0x1826 GAS PUSH4 0x996D79A5 MSIZE DUP2 PUSH1 0xE0 SHL DUP2 MSTORE PUSH1 0x20 DUP2 PUSH1 0x4 DUP4 CALLER PUSH1 0x0 SWAP1 GAS CALL PC PUSH1 0x1D ADD JUMPI RETURNDATASIZE PUSH1 0x1 EQ PC PUSH1 0xC ADD JUMPI RETURNDATASIZE PUSH1 0x0 DUP1 RETURNDATACOPY RETURNDATASIZE PUSH3 0x123456 MSTORE PUSH1 0xEA PUSH2 0x109C MSTORE DUP1 MLOAD SWAP3 POP PUSH1 0x0 JUMPDEST PUSH1 0x40 DUP2 LT ISZERO PUSH2 0x181C JUMPI PUSH1 0x0 DUP3 DUP3 ADD MSTORE PUSH1 0x20 ADD PUSH2 0x1805 JUMP JUMPDEST POP POP POP DUP6 DUP4 PUSH2 0x5138 JUMP JUMPDEST DUP4 PUSH1 0x1 PUSH1 0x1 PUSH1 0xA0 SHL SUB AND PUSH4 0x59974E38 DUP3 PUSH1 0x40 MLOAD PUSH1 0x1 PUSH1 0x1 PUSH1 0xE0 SHL SUB NOT PUSH1 0xE0 DUP5 SWAP1 SHL AND DUP2 MSTORE PUSH1 0x4 DUP2 ADD SWAP2 SWAP1 SWAP2 MSTORE PUSH1 0x24 ADD PUSH1 0x20 PUSH1 0x40 MLOAD DUP1 DUP4 SUB DUP2 PUSH1 0x0 DUP8 DUP1 PUSH2 0x186A PUSH2 0x6140 JUMP JUMPDEST ISZERO DUP1 ISZERO PUSH2 0x187F JUMPI PUSH1 0x0 DUP1 PUSH2 0x187C PUSH2 0x607A JUMP JUMPDEST POP POP JUMPDEST POP GAS PUSH2 0x1889 PUSH2 0x6245 JUMP JUMPDEST POP POP POP POP POP POP ISZERO DUP1 ISZERO PUSH2 0x18A9 JUMPI RETURNDATASIZE PUSH1 0x0 DUP1 RETURNDATACOPY RETURNDATASIZE PUSH1 0x0 PUSH2 0x18A6 PUSH2 0x607A JUMP JUMPDEST POP POP JUMPDEST POP POP POP POP PUSH1 0x40 MLOAD RETURNDATASIZE PUSH1 0x20 DUP2 LT ISZERO PUSH2 0x18C8 JUMPI PUSH1 0x0 DUP1 PUSH2 0x18C5 PUSH2 0x607A JUMP JUMPDEST POP POP JUMPDEST DUP2 ADD SWAP1 DUP1 DUP1 MLOAD POP PUSH1 0x0 SWAP3 POP PUSH1 0x7 SWAP2 POP PUSH2 0x18E1 SWAP1 POP PUSH2 0x60E5 JUMP JUMPDEST SWAP1 PUSH2 0x100 EXP SWAP1 DIV PUSH1 0x1 PUSH1 0x1 PUSH1 0xA0 SHL SUB AND PUSH1 0x1 PUSH1 0x1 PUSH1 0xA0 SHL SUB AND PUSH4 0xB46310F6 GAS PUSH2 0x1908 PUSH2 0x62FE JUMP JUMPDEST PUSH2 0x1979 DUP6 PUSH1 0x0 PUSH1 0x7 PUSH2 0x1918 PUSH2 0x60E5 JUMP JUMPDEST SWAP1 PUSH2 0x100 EXP SWAP1 DIV PUSH1 0x1 PUSH1 0x1 PUSH1 0xA0 SHL SUB AND PUSH1 0x1 PUSH1 0x1 PUSH1 0xA0 SHL SUB AND PUSH4 0x70A08231 GAS PUSH2 0x193F PUSH2 0x62FE JUMP JUMPDEST PUSH1 0x40 MLOAD PUSH1 0x1 PUSH1 0x1 PUSH1 0xE0 SHL SUB NOT PUSH1 0xE0 DUP5 SWAP1 SHL AND DUP2 MSTORE PUSH1 0x1 PUSH1 0x1 PUSH1 0xA0 SHL SUB SWAP1 SWAP2 AND PUSH1 0x4 DUP3 ADD MSTORE PUSH1 0x24 ADD PUSH1 0x20 PUSH1 0x40 MLOAD DUP1 DUP4 SUB DUP2 DUP7 DUP1 PUSH2 0x16CB PUSH2 0x6140 JUMP JUMPDEST PUSH1 0x40 MLOAD PUSH1 0x1 PUSH1 0x1 PUSH1 0xE0 SHL SUB NOT PUSH1 0xE0 DUP6 SWAP1 SHL AND DUP2 MSTORE PUSH1 0x1 PUSH1 0x1 PUSH1 0xA0 SHL SUB SWAP1 SWAP3 AND PUSH1 0x4 DUP4 ADD MSTORE PUSH1 0x24 DUP3 ADD MSTORE PUSH1 0x44 ADD PUSH1 0x0 PUSH1 0x40 MLOAD DUP1 DUP4 SUB DUP2 PUSH1 0x0 DUP8 DUP1 PUSH2 0x19BA PUSH2 0x6140 JUMP JUMPDEST ISZERO DUP1 ISZERO PUSH2 0x19CF JUMPI PUSH1 0x0 DUP1 PUSH2 0x19CC PUSH2 0x607A JUMP JUMPDEST POP POP JUMPDEST POP GAS PUSH2 0x19D9 PUSH2 0x6245 JUMP JUMPDEST POP POP POP POP POP POP ISZERO DUP1 ISZERO PUSH2 0x19F9 JUMPI RETURNDATASIZE PUSH1 0x0 DUP1 RETURNDATACOPY RETURNDATASIZE PUSH1 0x0 PUSH2 0x19F6 PUSH2 0x607A JUMP JUMPDEST POP POP JUMPDEST POP POP POP POP PUSH2 0x1A68 GAS PUSH4 0x996D79A5 MSIZE DUP2 PUSH1 0xE0 SHL DUP2 MSTORE PUSH1 0x20 DUP2 PUSH1 0x4 DUP4 CALLER PUSH1 0x0 SWAP1 GAS CALL PC PUSH1 0x1D ADD JUMPI RETURNDATASIZE PUSH1 0x1 EQ PC PUSH1 0xC ADD JUMPI RETURNDATASIZE PUSH1 0x0 DUP1 RETURNDATACOPY RETURNDATASIZE PUSH3 0x123456 MSTORE PUSH1 0xEA PUSH2 0x109C MSTORE DUP1 MLOAD SWAP3 POP PUSH1 0x0 JUMPDEST PUSH1 0x40 DUP2 LT ISZERO PUSH2 0x1A56 JUMPI PUSH1 0x0 DUP3 DUP3 ADD MSTORE PUSH1 0x20 ADD PUSH2 0x1A3F JUMP JUMPDEST POP POP POP GAS PUSH2 0x1A62 PUSH2 0x62FE JUMP JUMPDEST DUP5 PUSH2 0x5138 JUMP JUMPDEST PUSH2 0x1A82 DUP4 PUSH1 0xA PUSH2 0x1A76 PUSH2 0x60E5 JUMP JUMPDEST SWAP1 PUSH4 0xFFFFFFFF PUSH2 0x50CF AND JUMP JUMPDEST DUP1 PUSH1 0xA PUSH2 0x1A8D PUSH2 0x6344 JUMP JUMPDEST POP POP POP PUSH1 0x1 SWAP6 POP POP POP POP POP POP SWAP1 JUMP JUMPDEST PUSH2 0x1AA4 PUSH2 0x51A5 JUMP JUMPDEST DUP1 PUSH1 0x5 PUSH1 0x1 DUP2 PUSH2 0x1AB2 PUSH2 0x60E5 JUMP JUMPDEST DUP2 PUSH1 0x1 PUSH1 0x1 PUSH1 0xA0 SHL SUB MUL NOT AND SWAP1 DUP4 PUSH1 0x1 PUSH1 0x1 PUSH1 0xA0 SHL SUB AND MUL OR SWAP1 PUSH2 0x1AD4 PUSH2 0x6344 JUMP JUMPDEST POP POP POP POP JUMP JUMPDEST PUSH2 0x1AE2 PUSH2 0x51A5 JUMP JUMPDEST DUP1 PUSH1 0x1 DUP1 DUP1 PUSH2 0x1AEF PUSH2 0x60E5 JUMP JUMPDEST DUP2 PUSH1 0x1 PUSH1 0x1 PUSH1 0xA0 SHL SUB MUL NOT AND SWAP1 DUP4 PUSH1 0x1 PUSH1 0x1 PUSH1 0xA0 SHL SUB AND MUL OR SWAP1 PUSH2 0x1B11 PUSH2 0x6344 JUMP JUMPDEST POP POP POP PUSH32 0x906A1C6BD7E3091EA86693DD029A831C19049CE77F1DCE2CE0BAB1CACBABCE22 DUP2 PUSH1 0x40 MLOAD PUSH1 0x1 PUSH1 0x1 PUSH1 0xA0 SHL SUB SWAP1 SWAP2 AND DUP2 MSTORE PUSH1 0x20 ADD PUSH1 0x40 MLOAD DUP1 SWAP2 SUB SWAP1 LOG1 POP JUMP JUMPDEST PUSH1 0x0 PUSH2 0x1B5E PUSH2 0x4D95 JUMP JUMPDEST PUSH1 0x1 PUSH1 0x1 PUSH1 0xA0 SHL SUB AND PUSH4 0x16B2213F DUP4 PUSH1 0x40 MLOAD PUSH1 0x1 PUSH1 0x1 PUSH1 0xE0 SHL SUB NOT PUSH1 0xE0 DUP5 SWAP1 SHL AND DUP2 MSTORE PUSH1 0x1 PUSH1 0x1 PUSH1 0xA0 SHL SUB SWAP1 SWAP2 AND PUSH1 0x4 DUP3 ADD MSTORE PUSH1 0x24 ADD PUSH1 0x20 PUSH1 0x40 MLOAD DUP1 DUP4 SUB DUP2 DUP7 DUP1 PUSH2 0xFDE PUSH2 0x6140 JUMP JUMPDEST PUSH1 0x2 PUSH2 0x1BB1 PUSH2 0x60E5 JUMP JUMPDEST DUP2 JUMP JUMPDEST PUSH1 0xA PUSH2 0x1BB1 PUSH2 0x60E5 JUMP JUMPDEST PUSH1 0x40 MLOAD PUSH1 0x40 DUP1 DUP3 ADD SWAP1 MSTORE PUSH1 0x17 DUP2 MSTORE PUSH32 0x53796E746865746978204E6574776F726B20546F6B656E000000000000000000 PUSH1 0x20 DUP3 ADD MSTORE DUP2 JUMP JUMPDEST PUSH1 0x0 DUP1 PUSH2 0x1C00 PUSH2 0x521D JUMP JUMPDEST PUSH1 0x1 PUSH1 0x1 PUSH1 0xA0 SHL SUB AND PUSH4 0x59C29EC PUSH1 0x0 PUSH1 0x6 PUSH2 0x1C1A PUSH2 0x60E5 JUMP JUMPDEST SWAP1 PUSH2 0x100 EXP SWAP1 DIV PUSH1 0x1 PUSH1 0x1 PUSH1 0xA0 SHL SUB AND DUP6 PUSH1 0x40 MLOAD PUSH1 0x1 PUSH1 0x1 PUSH1 0xE0 SHL SUB NOT PUSH1 0xE0 DUP6 SWAP1 SHL AND DUP2 MSTORE PUSH1 0x1 PUSH1 0x1 PUSH1 0xA0 SHL SUB SWAP1 SWAP3 AND PUSH1 0x4 DUP4 ADD MSTORE PUSH1 0x24 DUP3 ADD MSTORE PUSH1 0x44 ADD PUSH1 0x20 PUSH1 0x40 MLOAD DUP1 DUP4 SUB DUP2 DUP7 DUP1 PUSH2 0x1C6A PUSH2 0x6140 JUMP JUMPDEST ISZERO DUP1 ISZERO PUSH2 0x1C7F JUMPI PUSH1 0x0 DUP1 PUSH2 0x1C7C PUSH2 0x607A JUMP JUMPDEST POP POP JUMPDEST POP GAS PUSH2 0x1C89 PUSH2 0x618C JUMP JUMPDEST POP POP POP POP POP ISZERO DUP1 ISZERO PUSH2 0x1CA8 JUMPI RETURNDATASIZE PUSH1 0x0 DUP1 RETURNDATACOPY RETURNDATASIZE PUSH1 0x0 PUSH2 0x1CA5 PUSH2 0x607A JUMP JUMPDEST POP POP JUMPDEST POP POP POP POP PUSH1 0x40 MLOAD RETURNDATASIZE PUSH1 0x20 DUP2 LT ISZERO PUSH2 0x1CC7 JUMPI PUSH1 0x0 DUP1 PUSH2 0x1CC4 PUSH2 0x607A JUMP JUMPDEST POP POP JUMPDEST DUP2 ADD SWAP1 DUP1 DUP1 MLOAD SWAP4 SWAP1 SWAP4 GT SWAP6 SWAP5 POP POP POP POP POP JUMP JUMPDEST PUSH2 0x1CE2 PUSH2 0x51A5 JUMP JUMPDEST PUSH1 0x1 PUSH1 0x1 PUSH1 0xA0 SHL SUB DUP2 AND PUSH2 0x1D45 JUMPI PUSH1 0x40 MLOAD PUSH3 0x461BCD PUSH1 0xE5 SHL DUP2 MSTORE PUSH1 0x20 PUSH1 0x4 DUP3 ADD MSTORE PUSH1 0x1C PUSH1 0x24 DUP3 ADD MSTORE PUSH32 0x42656E6566696369617279206D757374206E6F74206265207A65726F00000000 PUSH1 0x44 DUP3 ADD MSTORE PUSH1 0x64 ADD PUSH1 0x40 MLOAD DUP1 SWAP2 SUB SWAP1 PUSH2 0x1D42 PUSH2 0x607A JUMP JUMPDEST POP POP JUMPDEST DUP1 PUSH1 0x3 PUSH2 0x100 DUP2 PUSH2 0x1D54 PUSH2 0x60E5 JUMP JUMPDEST DUP2 PUSH1 0x1 PUSH1 0x1 PUSH1 0xA0 SHL SUB MUL NOT AND SWAP1 DUP4 PUSH1 0x1 PUSH1 0x1 PUSH1 0xA0 SHL SUB AND MUL OR SWAP1 PUSH2 0x1D76 PUSH2 0x6344 JUMP JUMPDEST POP POP POP PUSH32 0xD5DA63A0B864B315BC04128DEDBC93888C8529EE6CF47CE664DC204339228C53 DUP2 PUSH1 0x40 MLOAD PUSH1 0x1 PUSH1 0x1 PUSH1 0xA0 SHL SUB SWAP1 SWAP2 AND DUP2 MSTORE PUSH1 0x20 ADD PUSH1 0x40 MLOAD DUP1 SWAP2 SUB SWAP1 LOG1 POP JUMP JUMPDEST PUSH1 0x0 PUSH2 0x1DC3 PUSH2 0x4DDB JUMP JUMPDEST PUSH2 0x1DCB PUSH2 0x4F94 JUMP JUMPDEST PUSH1 0x1 PUSH1 0x1 PUSH1 0xA0 SHL SUB AND PUSH4 0x86DABD1 PUSH1 0x40 MLOAD DUP2 PUSH4 0xFFFFFFFF AND PUSH1 0xE0 SHL DUP2 MSTORE PUSH1 0x4 ADD PUSH1 0x0 PUSH1 0x40 MLOAD DUP1 DUP4 SUB DUP2 DUP7 DUP1 PUSH2 0x1DFE PUSH2 0x6140 JUMP JUMPDEST ISZERO DUP1 ISZERO PUSH2 0x1E13 JUMPI PUSH1 0x0 DUP1 PUSH2 0x1E10 PUSH2 0x607A JUMP JUMPDEST POP POP JUMPDEST POP GAS PUSH2 0x1E1D PUSH2 0x618C JUMP JUMPDEST POP POP POP POP POP ISZERO DUP1 ISZERO PUSH2 0x1E3C JUMPI RETURNDATASIZE PUSH1 0x0 DUP1 RETURNDATACOPY RETURNDATASIZE PUSH1 0x0 PUSH2 0x1E39 PUSH2 0x607A JUMP JUMPDEST POP POP JUMPDEST POP POP POP POP PUSH2 0x1E4A DUP5 DUP4 PUSH2 0x5268 JUMP JUMPDEST POP PUSH2 0x1E72 PUSH1 0x0 PUSH1 0x6 PUSH2 0x1E5A PUSH2 0x60E5 JUMP JUMPDEST SWAP1 PUSH2 0x100 EXP SWAP1 DIV PUSH1 0x1 PUSH1 0x1 PUSH1 0xA0 SHL SUB AND DUP6 DUP6 DUP6 PUSH2 0x557D JUMP JUMPDEST SWAP5 SWAP4 POP POP POP POP JUMP JUMPDEST PUSH2 0x1E82 PUSH2 0x4F94 JUMP JUMPDEST PUSH1 0x1 PUSH1 0x1 PUSH1 0xA0 SHL SUB AND PUSH4 0x7C312541 PUSH1 0x40 MLOAD DUP2 PUSH4 0xFFFFFFFF AND PUSH1 0xE0 SHL DUP2 MSTORE PUSH1 0x4 ADD PUSH1 0x0 PUSH1 0x40 MLOAD DUP1 DUP4 SUB DUP2 DUP7 DUP1 PUSH2 0x1EB5 PUSH2 0x6140 JUMP JUMPDEST ISZERO DUP1 ISZERO PUSH2 0x1ECA JUMPI PUSH1 0x0 DUP1 PUSH2 0x1EC7 PUSH2 0x607A JUMP JUMPDEST POP POP JUMPDEST POP GAS PUSH2 0x1ED4 PUSH2 0x618C JUMP JUMPDEST POP POP POP POP POP ISZERO DUP1 ISZERO PUSH2 0x1EF3 JUMPI RETURNDATASIZE PUSH1 0x0 DUP1 RETURNDATACOPY RETURNDATASIZE PUSH1 0x0 PUSH2 0x1EF0 PUSH2 0x607A JUMP JUMPDEST POP POP JUMPDEST POP POP POP POP PUSH2 0x1EFF PUSH2 0x4DDB JUMP JUMPDEST PUSH2 0x1F07 PUSH2 0x4D95 JUMP JUMPDEST PUSH1 0x1 PUSH1 0x1 PUSH1 0xA0 SHL SUB AND PUSH4 0xB06E8C65 PUSH1 0x0 PUSH1 0x6 PUSH2 0x1F21 PUSH2 0x60E5 JUMP JUMPDEST SWAP1 PUSH2 0x100 EXP SWAP1 DIV PUSH1 0x1 PUSH1 0x1 PUSH1 0xA0 SHL SUB AND DUP4 PUSH1 0x40 MLOAD PUSH1 0x1 PUSH1 0x1 PUSH1 0xE0 SHL SUB NOT PUSH1 0xE0 DUP6 SWAP1 SHL AND DUP2 MSTORE PUSH1 0x1 PUSH1 0x1 PUSH1 0xA0 SHL SUB SWAP1 SWAP3 AND PUSH1 0x4 DUP4 ADD MSTORE PUSH1 0x24 DUP3 ADD MSTORE PUSH1 0x44 ADD PUSH1 0x0 PUSH1 0x40 MLOAD DUP1 DUP4 SUB DUP2 PUSH1 0x0 DUP8 DUP1 PUSH2 0x1F73 PUSH2 0x6140 JUMP JUMPDEST ISZERO DUP1 ISZERO PUSH2 0x1F88 JUMPI PUSH1 0x0 DUP1 PUSH2 0x1F85 PUSH2 0x607A JUMP JUMPDEST POP POP JUMPDEST POP GAS PUSH2 0x1F92 PUSH2 0x6245 JUMP JUMPDEST POP POP POP POP POP POP ISZERO DUP1 ISZERO PUSH2 0x1FB2 JUMPI RETURNDATASIZE PUSH1 0x0 DUP1 RETURNDATACOPY RETURNDATASIZE PUSH1 0x0 PUSH2 0x1FAF PUSH2 0x607A JUMP JUMPDEST POP POP JUMPDEST POP POP POP POP JUMPDEST POP JUMP JUMPDEST PUSH1 0x40 MLOAD PUSH1 0x40 DUP1 DUP3 ADD SWAP1 MSTORE PUSH1 0x3 DUP2 MSTORE PUSH3 0xA69CB PUSH1 0xEB SHL PUSH1 0x20 DUP3 ADD MSTORE DUP2 JUMP JUMPDEST PUSH2 0x1FDF PUSH2 0x4F94 JUMP JUMPDEST PUSH1 0x1 PUSH1 0x1 PUSH1 0xA0 SHL SUB AND PUSH4 0x7C312541 PUSH1 0x40 MLOAD DUP2 PUSH4 0xFFFFFFFF AND PUSH1 0xE0 SHL DUP2 MSTORE PUSH1 0x4 ADD PUSH1 0x0 PUSH1 0x40 MLOAD DUP1 DUP4 SUB DUP2 DUP7 DUP1 PUSH2 0x2012 PUSH2 0x6140 JUMP JUMPDEST ISZERO DUP1 ISZERO PUSH2 0x2027 JUMPI PUSH1 0x0 DUP1 PUSH2 0x2024 PUSH2 0x607A JUMP JUMPDEST POP POP JUMPDEST POP GAS PUSH2 0x2031 PUSH2 0x618C JUMP JUMPDEST POP POP POP POP POP ISZERO DUP1 ISZERO PUSH2 0x2050 JUMPI RETURNDATASIZE PUSH1 0x0 DUP1 RETURNDATACOPY RETURNDATASIZE PUSH1 0x0 PUSH2 0x204D PUSH2 0x607A JUMP JUMPDEST POP POP JUMPDEST POP POP POP POP PUSH2 0x205C PUSH2 0x4DDB JUMP JUMPDEST PUSH2 0x2064 PUSH2 0x4D95 JUMP JUMPDEST PUSH1 0x1 PUSH1 0x1 PUSH1 0xA0 SHL SUB AND PUSH4 0x2B3F41AA DUP3 PUSH1 0x0 PUSH1 0x6 PUSH2 0x207F PUSH2 0x60E5 JUMP JUMPDEST SWAP1 PUSH2 0x100 EXP SWAP1 DIV PUSH1 0x1 PUSH1 0x1 PUSH1 0xA0 SHL SUB AND PUSH1 0x40 MLOAD PUSH1 0x1 PUSH1 0x1 PUSH1 0xE0 SHL SUB NOT PUSH1 0xE0 DUP6 SWAP1 SHL AND DUP2 MSTORE PUSH1 0x1 PUSH1 0x1 PUSH1 0xA0 SHL SUB SWAP3 DUP4 AND PUSH1 0x4 DUP3 ADD MSTORE SWAP2 AND PUSH1 0x24 DUP3 ADD MSTORE PUSH1 0x44 ADD PUSH1 0x0 PUSH1 0x40 MLOAD DUP1 DUP4 SUB DUP2 PUSH1 0x0 DUP8 DUP1 PUSH2 0x1F73 PUSH2 0x6140 JUMP JUMPDEST PUSH1 0x12 DUP2 JUMP JUMPDEST PUSH1 0x0 DUP6 DUP5 PUSH2 0x20E3 PUSH2 0x4F94 JUMP JUMPDEST PUSH1 0x1 PUSH1 0x1 PUSH1 0xA0 SHL SUB AND PUSH4 0x7118D431 PUSH1 0x40 MLOAD DUP2 PUSH4 0xFFFFFFFF AND PUSH1 0xE0 SHL DUP2 MSTORE PUSH1 0x4 ADD PUSH1 0x0 PUSH1 0x40 MLOAD DUP1 DUP4 SUB DUP2 DUP7 DUP1 PUSH2 0x2116 PUSH2 0x6140 JUMP JUMPDEST ISZERO DUP1 ISZERO PUSH2 0x212B JUMPI PUSH1 0x0 DUP1 PUSH2 0x2128 PUSH2 0x607A JUMP JUMPDEST POP POP JUMPDEST POP GAS PUSH2 0x2135 PUSH2 0x618C JUMP JUMPDEST POP POP POP POP POP ISZERO DUP1 ISZERO PUSH2 0x2154 JUMPI RETURNDATASIZE PUSH1 0x0 DUP1 RETURNDATACOPY RETURNDATASIZE PUSH1 0x0 PUSH2 0x2151 PUSH2 0x607A JUMP JUMPDEST POP POP JUMPDEST POP POP POP POP PUSH2 0x2160 PUSH2 0x4F94 JUMP JUMPDEST PUSH1 0x1 PUSH1 0x1 PUSH1 0xA0 SHL SUB AND PUSH4 0x6132EBA4 DUP4 DUP4 PUSH1 0x40 MLOAD PUSH1 0x1 PUSH1 0x1 PUSH1 0xE0 SHL SUB NOT PUSH1 0xE0 DUP6 SWAP1 SHL AND DUP2 MSTORE PUSH1 0x4 DUP2 ADD SWAP3 SWAP1 SWAP3 MSTORE PUSH1 0x24 DUP3 ADD MSTORE PUSH1 0x44 ADD PUSH1 0x0 PUSH1 0x40 MLOAD DUP1 DUP4 SUB DUP2 DUP7 DUP1 PUSH2 0x21A7 PUSH2 0x6140 JUMP JUMPDEST ISZERO DUP1 ISZERO PUSH2 0x21BC JUMPI PUSH1 0x0 DUP1 PUSH2 0x21B9 PUSH2 0x607A JUMP JUMPDEST POP POP JUMPDEST POP GAS PUSH2 0x21C6 PUSH2 0x618C JUMP JUMPDEST POP POP POP POP POP ISZERO DUP1 ISZERO PUSH2 0x21E5 JUMPI RETURNDATASIZE PUSH1 0x0 DUP1 RETURNDATACOPY RETURNDATASIZE PUSH1 0x0 PUSH2 0x21E2 PUSH2 0x607A JUMP JUMPDEST POP POP JUMPDEST POP POP POP POP PUSH2 0x21F1 PUSH2 0x4DDB JUMP JUMPDEST PUSH2 0x21F9 PUSH2 0x521D JUMP JUMPDEST PUSH1 0x1 PUSH1 0x1 PUSH1 0xA0 SHL SUB AND PUSH4 0x86BAA45C PUSH1 0x0 PUSH1 0x6 PUSH2 0x2213 PUSH2 0x60E5 JUMP JUMPDEST SWAP1 PUSH2 0x100 EXP SWAP1 DIV PUSH1 0x1 PUSH1 0x1 PUSH1 0xA0 SHL SUB AND DUP11 DUP11 DUP11 PUSH1 0x6 PUSH1 0x0 SWAP1 PUSH2 0x2233 PUSH2 0x60E5 JUMP JUMPDEST SWAP1 PUSH2 0x100 EXP SWAP1 DIV PUSH1 0x1 PUSH1 0x1 PUSH1 0xA0 SHL SUB AND DUP12 DUP12 PUSH1 0x40 MLOAD PUSH1 0x1 PUSH1 0x1 PUSH1 0xE0 SHL SUB NOT PUSH1 0xE0 DUP11 SWAP1 SHL AND DUP2 MSTORE PUSH1 0x1 PUSH1 0x1 PUSH1 0xA0 SHL SUB SWAP8 DUP9 AND PUSH1 0x4 DUP3 ADD MSTORE PUSH1 0x24 DUP2 ADD SWAP7 SWAP1 SWAP7 MSTORE PUSH1 0x44 DUP7 ADD SWAP5 SWAP1 SWAP5 MSTORE PUSH1 0x64 DUP6 ADD SWAP3 SWAP1 SWAP3 MSTORE DUP5 AND PUSH1 0x84 DUP5 ADD MSTORE SWAP1 SWAP3 AND PUSH1 0xA4 DUP3 ADD MSTORE PUSH1 0xC4 DUP2 ADD SWAP2 SWAP1 SWAP2 MSTORE PUSH1 0xE4 ADD PUSH1 0x20 PUSH1 0x40 MLOAD DUP1 DUP4 SUB DUP2 PUSH1 0x0 DUP8 DUP1 PUSH2 0x22B0 PUSH2 0x6140 JUMP JUMPDEST ISZERO DUP1 ISZERO PUSH2 0x22C5 JUMPI PUSH1 0x0 DUP1 PUSH2 0x22C2 PUSH2 0x607A JUMP JUMPDEST POP POP JUMPDEST POP GAS PUSH2 0x22CF PUSH2 0x6245 JUMP JUMPDEST POP POP POP POP POP POP ISZERO DUP1 ISZERO PUSH2 0x22EF JUMPI RETURNDATASIZE PUSH1 0x0 DUP1 RETURNDATACOPY RETURNDATASIZE PUSH1 0x0 PUSH2 0x22EC PUSH2 0x607A JUMP JUMPDEST POP POP JUMPDEST POP POP POP POP PUSH1 0x40 MLOAD RETURNDATASIZE PUSH1 0x20 DUP2 LT ISZERO PUSH2 0x230E JUMPI PUSH1 0x0 DUP1 PUSH2 0x230B PUSH2 0x607A JUMP JUMPDEST POP POP JUMPDEST DUP2 ADD SWAP1 DUP1 DUP1 MLOAD SWAP12 SWAP11 POP POP POP POP POP POP POP POP POP POP POP JUMP JUMPDEST PUSH1 0x0 PUSH1 0xB PUSH2 0x232F PUSH2 0x60E5 JUMP JUMPDEST SWAP1 PUSH2 0x100 EXP SWAP1 DIV PUSH1 0xFF AND DUP2 JUMP JUMPDEST PUSH2 0x2344 PUSH2 0x4F94 JUMP JUMPDEST PUSH1 0x1 PUSH1 0x1 PUSH1 0xA0 SHL SUB AND PUSH4 0x7C312541 PUSH1 0x40 MLOAD DUP2 PUSH4 0xFFFFFFFF AND PUSH1 0xE0 SHL DUP2 MSTORE PUSH1 0x4 ADD PUSH1 0x0 PUSH1 0x40 MLOAD DUP1 DUP4 SUB DUP2 DUP7 DUP1 PUSH2 0x2377 PUSH2 0x6140 JUMP JUMPDEST ISZERO DUP1 ISZERO PUSH2 0x238C JUMPI PUSH1 0x0 DUP1 PUSH2 0x2389 PUSH2 0x607A JUMP JUMPDEST POP POP JUMPDEST POP GAS PUSH2 0x2396 PUSH2 0x618C JUMP JUMPDEST POP POP POP POP POP ISZERO DUP1 ISZERO PUSH2 0x23B5 JUMPI RETURNDATASIZE PUSH1 0x0 DUP1 RETURNDATACOPY RETURNDATASIZE PUSH1 0x0 PUSH2 0x23B2 PUSH2 0x607A JUMP JUMPDEST POP POP JUMPDEST POP POP POP POP PUSH2 0x23C1 PUSH2 0x4DDB JUMP JUMPDEST PUSH2 0x23C9 PUSH2 0x4D95 JUMP JUMPDEST PUSH1 0x1 PUSH1 0x1 PUSH1 0xA0 SHL SUB AND PUSH4 0xFD864CCF DUP3 PUSH1 0x0 PUSH1 0x6 PUSH2 0x207F PUSH2 0x60E5 JUMP JUMPDEST PUSH1 0x0 PUSH2 0x23EE PUSH2 0x4D95 JUMP JUMPDEST PUSH1 0x1 PUSH1 0x1 PUSH1 0xA0 SHL SUB AND PUSH4 0x32608039 DUP4 PUSH1 0x40 MLOAD PUSH1 0x1 PUSH1 0x1 PUSH1 0xE0 SHL SUB NOT PUSH1 0xE0 DUP5 SWAP1 SHL AND DUP2 MSTORE PUSH1 0x4 DUP2 ADD SWAP2 SWAP1 SWAP2 MSTORE PUSH1 0x24 ADD PUSH1 0x20 PUSH1 0x40 MLOAD DUP1 DUP4 SUB DUP2 DUP7 DUP1 PUSH2 0xFDE PUSH2 0x6140 JUMP JUMPDEST PUSH2 0x2437 PUSH2 0x51A5 JUMP JUMPDEST PUSH1 0x0 DUP1 PUSH1 0x2 PUSH2 0x2444 PUSH2 0x6344 JUMP JUMPDEST POP POP POP PUSH1 0x0 PUSH1 0x3 PUSH1 0x0 PUSH2 0x100 EXP DUP2 PUSH2 0x245A PUSH2 0x60E5 JUMP JUMPDEST DUP2 PUSH1 0xFF MUL NOT AND SWAP1 DUP4 ISZERO ISZERO MUL OR SWAP1 PUSH2 0x246F PUSH2 0x6344 JUMP JUMPDEST POP POP POP PUSH32 0x6ADCC7125002935E0AA31697538EBBD65CFDDF20431EB6ECDCFC3E238BFD082C PUSH1 0x40 MLOAD PUSH1 0x40 MLOAD DUP1 SWAP2 SUB SWAP1 LOG1 JUMP JUMPDEST PUSH2 0x24A8 PUSH2 0x51A5 JUMP JUMPDEST DUP1 PUSH1 0xB PUSH2 0x100 DUP2 PUSH2 0x24B7 PUSH2 0x60E5 JUMP JUMPDEST DUP2 PUSH1 0x1 PUSH1 0x1 PUSH1 0xA0 SHL SUB MUL NOT AND SWAP1 DUP4 PUSH1 0x1 PUSH1 0x1 PUSH1 0xA0 SHL SUB AND MUL OR SWAP1 PUSH2 0x24D9 PUSH2 0x6344 JUMP JUMPDEST POP PUSH1 0x0 SWAP2 POP POP JUMPDEST PUSH1 0xD DUP1 PUSH2 0x24EB PUSH2 0x60E5 JUMP JUMPDEST SWAP1 POP DUP2 LT ISZERO PUSH2 0x2667 JUMPI PUSH1 0x0 PUSH1 0xD DUP3 DUP2 PUSH2 0x2502 PUSH2 0x60E5 JUMP JUMPDEST DUP2 LT PUSH2 0x250A JUMPI INVALID JUMPDEST SWAP1 PUSH1 0x0 MSTORE PUSH1 0x20 PUSH1 0x0 KECCAK256 ADD PUSH2 0x251C PUSH2 0x60E5 JUMP JUMPDEST SWAP1 POP PUSH1 0x1 PUSH1 0xB PUSH2 0x252A PUSH2 0x60E5 JUMP JUMPDEST SWAP1 PUSH2 0x100 EXP SWAP1 DIV PUSH1 0x1 PUSH1 0x1 PUSH1 0xA0 SHL SUB AND PUSH1 0x1 PUSH1 0x1 PUSH1 0xA0 SHL SUB AND PUSH4 0xDACB2D01 DUP3 PUSH1 0x40 MLOAD PUSH1 0x1 PUSH1 0x1 PUSH1 0xE0 SHL SUB NOT PUSH1 0xE0 DUP5 SWAP1 SHL AND DUP2 MSTORE PUSH1 0x4 DUP2 ADD SWAP2 SWAP1 SWAP2 MSTORE PUSH1 0x40 PUSH1 0x24 DUP3 ADD DUP2 SWAP1 MSTORE PUSH1 0x17 PUSH1 0x44 DUP4 ADD MSTORE PUSH32 0x5265736F6C766572206D697373696E6720746172676574000000000000000000 PUSH1 0x64 DUP4 ADD MSTORE PUSH1 0x84 SWAP1 SWAP2 ADD SWAP1 PUSH1 0x20 SWAP1 MLOAD DUP1 DUP4 SUB DUP2 DUP7 DUP1 PUSH2 0x25B3 PUSH2 0x6140 JUMP JUMPDEST ISZERO DUP1 ISZERO PUSH2 0x25C8 JUMPI PUSH1 0x0 DUP1 PUSH2 0x25C5 PUSH2 0x607A JUMP JUMPDEST POP POP JUMPDEST POP GAS PUSH2 0x25D2 PUSH2 0x618C JUMP JUMPDEST POP POP POP POP POP ISZERO DUP1 ISZERO PUSH2 0x25F1 JUMPI RETURNDATASIZE PUSH1 0x0 DUP1 RETURNDATACOPY RETURNDATASIZE PUSH1 0x0 PUSH2 0x25EE PUSH2 0x607A JUMP JUMPDEST POP POP JUMPDEST POP POP POP POP PUSH1 0x40 MLOAD RETURNDATASIZE PUSH1 0x20 DUP2 LT ISZERO PUSH2 0x2610 JUMPI PUSH1 0x0 DUP1 PUSH2 0x260D PUSH2 0x607A JUMP JUMPDEST POP POP JUMPDEST DUP2 ADD SWAP1 DUP1 DUP1 MLOAD PUSH1 0x0 DUP6 DUP2 MSTORE PUSH1 0xC PUSH1 0x20 MSTORE SWAP1 SWAP4 POP PUSH1 0x40 SWAP3 POP SWAP1 POP KECCAK256 PUSH1 0x1 DUP2 PUSH2 0x2635 PUSH2 0x60E5 JUMP JUMPDEST DUP2 PUSH1 0x1 PUSH1 0x1 PUSH1 0xA0 SHL SUB MUL NOT AND SWAP1 DUP4 PUSH1 0x1 PUSH1 0x1 PUSH1 0xA0 SHL SUB AND MUL OR SWAP1 PUSH2 0x2657 PUSH2 0x6344 JUMP JUMPDEST POP POP PUSH1 0x1 SWAP1 SWAP3 ADD SWAP2 POP PUSH2 0x24E0 SWAP1 POP JUMP JUMPDEST POP POP JUMP JUMPDEST PUSH1 0x0 PUSH2 0x2675 PUSH2 0x4D95 JUMP JUMPDEST PUSH1 0x1 PUSH1 0x1 PUSH1 0xA0 SHL SUB AND PUSH4 0x4E99BDA9 PUSH1 0x40 MLOAD DUP2 PUSH4 0xFFFFFFFF AND PUSH1 0xE0 SHL DUP2 MSTORE PUSH1 0x4 ADD PUSH1 0x20 PUSH1 0x40 MLOAD DUP1 DUP4 SUB DUP2 DUP7 DUP1 PUSH2 0x26A8 PUSH2 0x6140 JUMP JUMPDEST ISZERO DUP1 ISZERO PUSH2 0x26BD JUMPI PUSH1 0x0 DUP1 PUSH2 0x26BA PUSH2 0x607A JUMP JUMPDEST POP POP JUMPDEST POP GAS PUSH2 0x26C7 PUSH2 0x618C JUMP JUMPDEST POP POP POP POP POP ISZERO DUP1 ISZERO PUSH2 0x26E6 JUMPI RETURNDATASIZE PUSH1 0x0 DUP1 RETURNDATACOPY RETURNDATASIZE PUSH1 0x0 PUSH2 0x26E3 PUSH2 0x607A JUMP JUMPDEST POP POP JUMPDEST POP POP POP POP PUSH1 0x40 MLOAD RETURNDATASIZE PUSH1 0x20 DUP2 LT ISZERO PUSH2 0x2705 JUMPI PUSH1 0x0 DUP1 PUSH2 0x2702 PUSH2 0x607A JUMP JUMPDEST POP POP JUMPDEST DUP2 ADD SWAP1 DUP1 DUP1 MLOAD SWAP4 POP POP POP POP SWAP1 JUMP JUMPDEST PUSH1 0x0 PUSH1 0x1 PUSH2 0xF78 PUSH2 0x60E5 JUMP JUMPDEST PUSH1 0x0 PUSH1 0x1 PUSH1 0x1 PUSH1 0xA0 SHL SUB DUP3 AND PUSH1 0x1 PUSH1 0xB PUSH2 0x2737 PUSH2 0x60E5 JUMP JUMPDEST SWAP1 PUSH2 0x100 EXP SWAP1 DIV PUSH1 0x1 PUSH1 0x1 PUSH1 0xA0 SHL SUB AND PUSH1 0x1 PUSH1 0x1 PUSH1 0xA0 SHL SUB AND EQ PUSH2 0x275D JUMPI POP PUSH1 0x0 PUSH2 0x1047 JUMP JUMPDEST PUSH1 0x0 JUMPDEST PUSH1 0xD DUP1 PUSH2 0x276B PUSH2 0x60E5 JUMP JUMPDEST SWAP1 POP DUP2 LT ISZERO PUSH2 0x28F1 JUMPI PUSH1 0x0 PUSH1 0xD DUP3 DUP2 PUSH2 0x2782 PUSH2 0x60E5 JUMP JUMPDEST DUP2 LT PUSH2 0x278A JUMPI INVALID JUMPDEST SWAP1 PUSH1 0x0 MSTORE PUSH1 0x20 PUSH1 0x0 KECCAK256 ADD PUSH2 0x279C PUSH2 0x60E5 JUMP JUMPDEST PUSH1 0x0 DUP2 DUP2 MSTORE PUSH1 0xC PUSH1 0x20 MSTORE SWAP1 SWAP2 POP PUSH1 0x40 SWAP1 KECCAK256 PUSH1 0x0 SWAP1 PUSH2 0x27B8 PUSH2 0x60E5 JUMP JUMPDEST PUSH1 0x1 PUSH1 0x1 PUSH1 0xA0 SHL SUB PUSH2 0x100 SWAP3 SWAP1 SWAP3 EXP SWAP1 DIV AND PUSH1 0x1 PUSH1 0xB PUSH2 0x27D6 PUSH2 0x60E5 JUMP JUMPDEST SWAP1 PUSH2 0x100 EXP SWAP1 DIV PUSH1 0x1 PUSH1 0x1 PUSH1 0xA0 SHL SUB AND PUSH1 0x1 PUSH1 0x1 PUSH1 0xA0 SHL SUB AND PUSH4 0x21F8A721 DUP4 PUSH1 0x40 MLOAD PUSH1 0x1 PUSH1 0x1 PUSH1 0xE0 SHL SUB NOT PUSH1 0xE0 DUP5 SWAP1 SHL AND DUP2 MSTORE PUSH1 0x4 DUP2 ADD SWAP2 SWAP1 SWAP2 MSTORE PUSH1 0x24 ADD PUSH1 0x20 PUSH1 0x40 MLOAD DUP1 DUP4 SUB DUP2 DUP7 DUP1 PUSH2 0x2827 PUSH2 0x6140 JUMP JUMPDEST ISZERO DUP1 ISZERO PUSH2 0x283C JUMPI PUSH1 0x0 DUP1 PUSH2 0x2839 PUSH2 0x607A JUMP JUMPDEST POP POP JUMPDEST POP GAS PUSH2 0x2846 PUSH2 0x618C JUMP JUMPDEST POP POP POP POP POP ISZERO DUP1 ISZERO PUSH2 0x2865 JUMPI RETURNDATASIZE PUSH1 0x0 DUP1 RETURNDATACOPY RETURNDATASIZE PUSH1 0x0 PUSH2 0x2862 PUSH2 0x607A JUMP JUMPDEST POP POP JUMPDEST POP POP POP POP PUSH1 0x40 MLOAD RETURNDATASIZE PUSH1 0x20 DUP2 LT ISZERO PUSH2 0x2884 JUMPI PUSH1 0x0 DUP1 PUSH2 0x2881 PUSH2 0x607A JUMP JUMPDEST POP POP JUMPDEST DUP2 ADD SWAP1 DUP1 DUP1 MLOAD PUSH1 0x1 PUSH1 0x1 PUSH1 0xA0 SHL SUB AND SWAP4 SWAP1 SWAP4 EQ ISZERO SWAP3 POP DUP3 SWAP2 POP PUSH2 0x28D8 SWAP1 POP JUMPI POP PUSH1 0x0 DUP2 DUP2 MSTORE PUSH1 0xC PUSH1 0x20 MSTORE PUSH1 0x40 DUP2 KECCAK256 PUSH1 0x0 SWAP1 PUSH2 0x28BD PUSH2 0x60E5 JUMP JUMPDEST SWAP1 PUSH2 0x100 EXP SWAP1 DIV PUSH1 0x1 PUSH1 0x1 PUSH1 0xA0 SHL SUB AND PUSH1 0x1 PUSH1 0x1 PUSH1 0xA0 SHL SUB AND EQ JUMPDEST ISZERO PUSH2 0x28E8 JUMPI PUSH1 0x0 SWAP3 POP POP POP PUSH2 0x1047 JUMP JUMPDEST POP PUSH1 0x1 ADD PUSH2 0x2760 JUMP JUMPDEST POP PUSH1 0x1 SWAP3 SWAP2 POP POP JUMP JUMPDEST PUSH2 0x2902 PUSH2 0x56AF JUMP JUMPDEST PUSH1 0x1 PUSH1 0x1 PUSH1 0xA0 SHL SUB AND GAS PUSH2 0x2914 PUSH2 0x62FE JUMP JUMPDEST PUSH1 0x1 PUSH1 0x1 PUSH1 0xA0 SHL SUB AND EQ PUSH2 0x2962 JUMPI PUSH1 0x40 MLOAD PUSH3 0x461BCD PUSH1 0xE5 SHL DUP2 MSTORE PUSH1 0x4 ADD DUP1 DUP1 PUSH1 0x20 ADD DUP3 DUP2 SUB DUP3 MSTORE PUSH1 0x34 DUP2 MSTORE PUSH1 0x20 ADD DUP1 PUSH2 0x65C6 PUSH1 0x34 SWAP2 CODECOPY PUSH1 0x40 ADD SWAP2 POP POP PUSH1 0x40 MLOAD DUP1 SWAP2 SUB SWAP1 PUSH2 0x295F PUSH2 0x607A JUMP JUMPDEST POP POP JUMPDEST PUSH1 0x0 PUSH1 0x7 PUSH2 0x296E PUSH2 0x60E5 JUMP JUMPDEST PUSH1 0x1 PUSH1 0x1 PUSH1 0xA0 SHL SUB PUSH2 0x100 SWAP3 SWAP1 SWAP3 EXP SWAP1 DIV AND PUSH4 0xB46310F6 DUP4 PUSH2 0x29EF DUP5 PUSH1 0x0 PUSH1 0x7 PUSH2 0x2996 PUSH2 0x60E5 JUMP JUMPDEST SWAP1 PUSH2 0x100 EXP SWAP1 DIV PUSH1 0x1 PUSH1 0x1 PUSH1 0xA0 SHL SUB AND PUSH1 0x1 PUSH1 0x1 PUSH1 0xA0 SHL SUB AND PUSH4 0x70A08231 DUP9 PUSH1 0x40 MLOAD PUSH1 0x1 PUSH1 0x1 PUSH1 0xE0 SHL SUB NOT PUSH1 0xE0 DUP5 SWAP1 SHL AND DUP2 MSTORE PUSH1 0x1 PUSH1 0x1 PUSH1 0xA0 SHL SUB SWAP1 SWAP2 AND PUSH1 0x4 DUP3 ADD MSTORE PUSH1 0x24 ADD PUSH1 0x20 PUSH1 0x40 MLOAD DUP1 DUP4 SUB DUP2 DUP7 DUP1 PUSH2 0x16CB PUSH2 0x6140 JUMP JUMPDEST PUSH1 0x40 MLOAD PUSH1 0x1 PUSH1 0x1 PUSH1 0xE0 SHL SUB NOT PUSH1 0xE0 DUP6 SWAP1 SHL AND DUP2 MSTORE PUSH1 0x1 PUSH1 0x1 PUSH1 0xA0 SHL SUB SWAP1 SWAP3 AND PUSH1 0x4 DUP4 ADD MSTORE PUSH1 0x24 DUP3 ADD MSTORE PUSH1 0x44 ADD PUSH1 0x0 PUSH1 0x40 MLOAD DUP1 DUP4 SUB DUP2 PUSH1 0x0 DUP8 DUP1 PUSH2 0x2A30 PUSH2 0x6140 JUMP JUMPDEST ISZERO DUP1 ISZERO PUSH2 0x2A45 JUMPI PUSH1 0x0 DUP1 PUSH2 0x2A42 PUSH2 0x607A JUMP JUMPDEST POP POP JUMPDEST POP GAS PUSH2 0x2A4F PUSH2 0x6245 JUMP JUMPDEST POP POP POP POP POP POP ISZERO DUP1 ISZERO PUSH2 0x2A6F JUMPI RETURNDATASIZE PUSH1 0x0 DUP1 RETURNDATACOPY RETURNDATASIZE PUSH1 0x0 PUSH2 0x2A6C PUSH2 0x607A JUMP JUMPDEST POP POP JUMPDEST POP POP POP POP PUSH2 0x2AD6 GAS PUSH4 0x996D79A5 MSIZE DUP2 PUSH1 0xE0 SHL DUP2 MSTORE PUSH1 0x20 DUP2 PUSH1 0x4 DUP4 CALLER PUSH1 0x0 SWAP1 GAS CALL PC PUSH1 0x1D ADD JUMPI RETURNDATASIZE PUSH1 0x1 EQ PC PUSH1 0xC ADD JUMPI RETURNDATASIZE PUSH1 0x0 DUP1 RETURNDATACOPY RETURNDATASIZE PUSH3 0x123456 MSTORE PUSH1 0xEA PUSH2 0x109C MSTORE DUP1 MLOAD SWAP3 POP PUSH1 0x0 JUMPDEST PUSH1 0x40 DUP2 LT ISZERO PUSH2 0x2ACC JUMPI PUSH1 0x0 DUP3 DUP3 ADD MSTORE PUSH1 0x20 ADD PUSH2 0x2AB5 JUMP JUMPDEST POP POP POP DUP4 DUP4 PUSH2 0x5138 JUMP JUMPDEST PUSH2 0x2AE4 DUP2 PUSH1 0xA PUSH2 0x1A76 PUSH2 0x60E5 JUMP JUMPDEST DUP1 PUSH1 0xA PUSH2 0x1FB2 PUSH2 0x6344 JUMP JUMPDEST PUSH1 0x0 PUSH2 0x2AF9 PUSH2 0x4D95 JUMP JUMPDEST PUSH1 0x1 PUSH1 0x1 PUSH1 0xA0 SHL SUB AND PUSH4 0x6BED0415 DUP4 PUSH1 0x0 PUSH1 0x7 PUSH2 0x2B14 PUSH2 0x60E5 JUMP JUMPDEST SWAP1 PUSH2 0x100 EXP SWAP1 DIV PUSH1 0x1 PUSH1 0x1 PUSH1 0xA0 SHL SUB AND PUSH1 0x1 PUSH1 0x1 PUSH1 0xA0 SHL SUB AND PUSH4 0x70A08231 DUP7 PUSH1 0x40 MLOAD PUSH1 0x1 PUSH1 0x1 PUSH1 0xE0 SHL SUB NOT PUSH1 0xE0 DUP5 SWAP1 SHL AND DUP2 MSTORE PUSH1 0x1 PUSH1 0x1 PUSH1 0xA0 SHL SUB SWAP1 SWAP2 AND PUSH1 0x4 DUP3 ADD MSTORE PUSH1 0x24 ADD PUSH1 0x20 PUSH1 0x40 MLOAD DUP1 DUP4 SUB DUP2 DUP7 DUP1 PUSH2 0x2B6D PUSH2 0x6140 JUMP JUMPDEST ISZERO DUP1 ISZERO PUSH2 0x2B82 JUMPI PUSH1 0x0 DUP1 PUSH2 0x2B7F PUSH2 0x607A JUMP JUMPDEST POP POP JUMPDEST POP GAS PUSH2 0x2B8C PUSH2 0x618C JUMP JUMPDEST POP POP POP POP POP ISZERO DUP1 ISZERO PUSH2 0x2BAB JUMPI RETURNDATASIZE PUSH1 0x0 DUP1 RETURNDATACOPY RETURNDATASIZE PUSH1 0x0 PUSH2 0x2BA8 PUSH2 0x607A JUMP JUMPDEST POP POP JUMPDEST POP POP POP POP PUSH1 0x40 MLOAD RETURNDATASIZE PUSH1 0x20 DUP2 LT ISZERO PUSH2 0x2BCA JUMPI PUSH1 0x0 DUP1 PUSH2 0x2BC7 PUSH2 0x607A JUMP JUMPDEST POP POP JUMPDEST DUP2 ADD SWAP1 DUP1 DUP1 MLOAD SWAP3 POP PUSH1 0x40 SWAP2 POP POP MLOAD PUSH1 0x1 PUSH1 0x1 PUSH1 0xE0 SHL SUB NOT PUSH1 0xE0 DUP6 SWAP1 SHL AND DUP2 MSTORE PUSH1 0x1 PUSH1 0x1 PUSH1 0xA0 SHL SUB SWAP1 SWAP3 AND PUSH1 0x4 DUP4 ADD MSTORE PUSH1 0x24 DUP3 ADD MSTORE PUSH1 0x44 ADD PUSH1 0x40 DUP1 MLOAD DUP1 DUP4 SUB DUP2 DUP7 DUP1 PUSH2 0x2C13 PUSH2 0x6140 JUMP JUMPDEST ISZERO DUP1 ISZERO PUSH2 0x2C28 JUMPI PUSH1 0x0 DUP1 PUSH2 0x2C25 PUSH2 0x607A JUMP JUMPDEST POP POP JUMPDEST POP GAS PUSH2 0x2C32 PUSH2 0x618C JUMP JUMPDEST POP POP POP POP POP ISZERO DUP1 ISZERO PUSH2 0x2C51 JUMPI RETURNDATASIZE PUSH1 0x0 DUP1 RETURNDATACOPY RETURNDATASIZE PUSH1 0x0 PUSH2 0x2C4E PUSH2 0x607A JUMP JUMPDEST POP POP JUMPDEST POP POP POP POP PUSH1 0x40 MLOAD RETURNDATASIZE PUSH1 0x40 DUP2 LT ISZERO PUSH2 0x2C70 JUMPI PUSH1 0x0 DUP1 PUSH2 0x2C6D PUSH2 0x607A JUMP JUMPDEST POP POP JUMPDEST DUP2 ADD SWAP1 DUP1 DUP1 MLOAD SWAP3 SWAP2 SWAP1 PUSH1 0x20 ADD DUP1 MLOAD POP SWAP3 SWAP6 SWAP5 POP POP POP POP POP JUMP JUMPDEST PUSH2 0x2C91 PUSH2 0x521D JUMP JUMPDEST PUSH1 0x1 PUSH1 0x1 PUSH1 0xA0 SHL SUB AND GAS PUSH2 0x2CA3 PUSH2 0x62FE JUMP JUMPDEST PUSH1 0x1 PUSH1 0x1 PUSH1 0xA0 SHL SUB AND EQ PUSH2 0x2CF4 JUMPI PUSH1 0x40 MLOAD PUSH3 0x461BCD PUSH1 0xE5 SHL DUP2 MSTORE PUSH1 0x20 PUSH1 0x4 DUP3 ADD MSTORE PUSH1 0x1E PUSH1 0x24 DUP3 ADD MSTORE PUSH1 0x0 DUP1 MLOAD PUSH1 0x20 PUSH2 0x6453 DUP4 CODECOPY DUP2 MLOAD SWAP2 MSTORE PUSH1 0x44 DUP3 ADD MSTORE PUSH1 0x64 ADD PUSH1 0x40 MLOAD DUP1 SWAP2 SUB SWAP1 PUSH2 0x2CF1 PUSH2 0x607A JUMP JUMPDEST POP POP JUMPDEST PUSH1 0x0 PUSH1 0x4 PUSH2 0x2D00 PUSH2 0x60E5 JUMP JUMPDEST SWAP1 PUSH2 0x100 EXP SWAP1 DIV PUSH1 0x1 PUSH1 0x1 PUSH1 0xA0 SHL SUB AND PUSH1 0x1 PUSH1 0x1 PUSH1 0xA0 SHL SUB AND PUSH4 0x907DFF97 DUP7 DUP7 DUP7 DUP7 DUP7 PUSH1 0x40 MLOAD PUSH1 0x20 DUP2 ADD SWAP6 SWAP1 SWAP6 MSTORE PUSH1 0x40 DUP1 DUP7 ADD SWAP5 SWAP1 SWAP5 MSTORE PUSH1 0x60 DUP6 ADD SWAP3 SWAP1 SWAP3 MSTORE PUSH1 0x80 DUP5 ADD MSTORE PUSH1 0x1 PUSH1 0x1 PUSH1 0xA0 SHL SUB AND PUSH1 0xA0 DUP4 ADD MSTORE PUSH1 0xC0 SWAP1 SWAP2 ADD SWAP1 MLOAD PUSH1 0x20 DUP2 DUP4 SUB SUB DUP2 MSTORE SWAP1 PUSH1 0x40 MSTORE PUSH1 0x2 PUSH1 0x40 MLOAD DUP1 PUSH1 0x3E PUSH2 0x6473 DUP3 CODECOPY PUSH1 0x3E ADD SWAP1 POP PUSH1 0x40 MLOAD DUP1 SWAP2 SUB SWAP1 KECCAK256 PUSH2 0x2D88 DUP12 PUSH2 0x56E4 JUMP JUMPDEST PUSH1 0x0 DUP1 PUSH1 0x40 MLOAD DUP8 PUSH4 0xFFFFFFFF AND PUSH1 0xE0 SHL DUP2 MSTORE PUSH1 0x4 ADD DUP1 DUP1 PUSH1 0x20 ADD DUP8 DUP2 MSTORE PUSH1 0x20 ADD DUP7 DUP2 MSTORE PUSH1 0x20 ADD DUP6 DUP2 MSTORE PUSH1 0x20 ADD DUP5 PUSH1 0x0 SHL DUP2 MSTORE PUSH1 0x20 ADD DUP4 PUSH1 0x0 SHL DUP2 MSTORE PUSH1 0x20 ADD DUP3 DUP2 SUB DUP3 MSTORE DUP9 DUP2 DUP2 MLOAD DUP2 MSTORE PUSH1 0x20 ADD SWAP2 POP DUP1 MLOAD SWAP1 PUSH1 0x20 ADD SWAP1 DUP1 DUP4 DUP4 PUSH1 0x0 JUMPDEST DUP4 DUP2 LT ISZERO PUSH2 0x2DFB JUMPI DUP1 DUP3 ADD MLOAD DUP4 DUP3 ADD MSTORE PUSH1 0x20 ADD PUSH2 0x2DE3 JUMP JUMPDEST POP POP POP POP SWAP1 POP SWAP1 DUP2 ADD SWAP1 PUSH1 0x1F AND DUP1 ISZERO PUSH2 0x2E28 JUMPI DUP1 DUP3 SUB DUP1 MLOAD PUSH1 0x1 DUP4 PUSH1 0x20 SUB PUSH2 0x100 EXP SUB NOT AND DUP2 MSTORE PUSH1 0x20 ADD SWAP2 POP JUMPDEST POP SWAP8 POP POP POP POP POP POP POP POP PUSH1 0x0 PUSH1 0x40 MLOAD DUP1 DUP4 SUB DUP2 PUSH1 0x0 DUP8 DUP1 PUSH2 0x2E47 PUSH2 0x6140 JUMP JUMPDEST ISZERO DUP1 ISZERO PUSH2 0x2E5C JUMPI PUSH1 0x0 DUP1 PUSH2 0x2E59 PUSH2 0x607A JUMP JUMPDEST POP POP JUMPDEST POP GAS PUSH2 0x2E66 PUSH2 0x6245 JUMP JUMPDEST POP POP POP POP POP POP ISZERO DUP1 ISZERO PUSH2 0x2E86 JUMPI RETURNDATASIZE PUSH1 0x0 DUP1 RETURNDATACOPY RETURNDATASIZE PUSH1 0x0 PUSH2 0x2E83 PUSH2 0x607A JUMP JUMPDEST POP POP JUMPDEST POP POP POP POP POP POP POP POP POP POP JUMP JUMPDEST PUSH2 0x2E9A PUSH2 0x521D JUMP JUMPDEST PUSH1 0x1 PUSH1 0x1 PUSH1 0xA0 SHL SUB AND GAS PUSH2 0x2EAC PUSH2 0x62FE JUMP JUMPDEST PUSH1 0x1 PUSH1 0x1 PUSH1 0xA0 SHL SUB AND EQ PUSH2 0x2EFD JUMPI PUSH1 0x40 MLOAD PUSH3 0x461BCD PUSH1 0xE5 SHL DUP2 MSTORE PUSH1 0x20 PUSH1 0x4 DUP3 ADD MSTORE PUSH1 0x1E PUSH1 0x24 DUP3 ADD MSTORE PUSH1 0x0 DUP1 MLOAD PUSH1 0x20 PUSH2 0x6453 DUP4 CODECOPY DUP2 MLOAD SWAP2 MSTORE PUSH1 0x44 DUP3 ADD MSTORE PUSH1 0x64 ADD PUSH1 0x40 MLOAD DUP1 SWAP2 SUB SWAP1 PUSH2 0x2EFA PUSH2 0x607A JUMP JUMPDEST POP POP JUMPDEST PUSH1 0x0 PUSH1 0x4 PUSH2 0x2F09 PUSH2 0x60E5 JUMP JUMPDEST SWAP1 PUSH2 0x100 EXP SWAP1 DIV PUSH1 0x1 PUSH1 0x1 PUSH1 0xA0 SHL SUB AND PUSH1 0x1 PUSH1 0x1 PUSH1 0xA0 SHL SUB AND PUSH4 0x907DFF97 DUP4 DUP4 PUSH1 0x40 MLOAD PUSH1 0x20 ADD DUP1 DUP4 DUP2 MSTORE PUSH1 0x20 ADD DUP3 DUP2 MSTORE PUSH1 0x20 ADD SWAP3 POP POP POP PUSH1 0x40 MLOAD PUSH1 0x20 DUP2 DUP4 SUB SUB DUP2 MSTORE SWAP1 PUSH1 0x40 MSTORE PUSH1 0x2 PUSH1 0x40 MLOAD DUP1 PUSH1 0x27 PUSH2 0x6576 DUP3 CODECOPY PUSH1 0x27 ADD SWAP1 POP PUSH1 0x40 MLOAD DUP1 SWAP2 SUB SWAP1 KECCAK256 PUSH2 0x2F72 DUP9 PUSH2 0x56E4 JUMP JUMPDEST PUSH1 0x0 DUP1 PUSH1 0x40 MLOAD DUP8 PUSH4 0xFFFFFFFF AND PUSH1 0xE0 SHL DUP2 MSTORE PUSH1 0x4 ADD DUP1 DUP1 PUSH1 0x20 ADD DUP8 DUP2 MSTORE PUSH1 0x20 ADD DUP7 DUP2 MSTORE PUSH1 0x20 ADD DUP6 DUP2 MSTORE PUSH1 0x20 ADD DUP5 PUSH1 0x0 SHL DUP2 MSTORE PUSH1 0x20 ADD DUP4 PUSH1 0x0 SHL DUP2 MSTORE PUSH1 0x20 ADD DUP3 DUP2 SUB DUP3 MSTORE DUP9 DUP2 DUP2 MLOAD DUP2 MSTORE PUSH1 0x20 ADD SWAP2 POP DUP1 MLOAD SWAP1 PUSH1 0x20 ADD SWAP1 DUP1 DUP4 DUP4 PUSH1 0x0 JUMPDEST DUP4 DUP2 LT ISZERO PUSH2 0x2FE5 JUMPI DUP1 DUP3 ADD MLOAD DUP4 DUP3 ADD MSTORE PUSH1 0x20 ADD PUSH2 0x2FCD JUMP JUMPDEST POP POP POP POP SWAP1 POP SWAP1 DUP2 ADD SWAP1 PUSH1 0x1F AND DUP1 ISZERO PUSH2 0x3012 JUMPI DUP1 DUP3 SUB DUP1 MLOAD PUSH1 0x1 DUP4 PUSH1 0x20 SUB PUSH2 0x100 EXP SUB NOT AND DUP2 MSTORE PUSH1 0x20 ADD SWAP2 POP JUMPDEST POP SWAP8 POP POP POP POP POP POP POP POP PUSH1 0x0 PUSH1 0x40 MLOAD DUP1 DUP4 SUB DUP2 PUSH1 0x0 DUP8 DUP1 PUSH2 0x3031 PUSH2 0x6140 JUMP JUMPDEST ISZERO DUP1 ISZERO PUSH2 0x3046 JUMPI PUSH1 0x0 DUP1 PUSH2 0x3043 PUSH2 0x607A JUMP JUMPDEST POP POP JUMPDEST POP GAS PUSH2 0x3050 PUSH2 0x6245 JUMP JUMPDEST POP POP POP POP POP POP ISZERO DUP1 ISZERO PUSH2 0x1FAF JUMPI RETURNDATASIZE PUSH1 0x0 DUP1 RETURNDATACOPY RETURNDATASIZE PUSH1 0x0 PUSH2 0x306D PUSH2 0x607A JUMP JUMPDEST POP POP POP POP POP POP POP POP POP JUMP JUMPDEST PUSH1 0x0 DUP1 PUSH1 0x7 PUSH2 0x3085 PUSH2 0x60E5 JUMP JUMPDEST SWAP1 PUSH2 0x100 EXP SWAP1 DIV PUSH1 0x1 PUSH1 0x1 PUSH1 0xA0 SHL SUB AND PUSH1 0x1 PUSH1 0x1 PUSH1 0xA0 SHL SUB AND PUSH4 0x70A08231 DUP4 PUSH1 0x40 MLOAD PUSH1 0x1 PUSH1 0x1 PUSH1 0xE0 SHL SUB NOT PUSH1 0xE0 DUP5 SWAP1 SHL AND DUP2 MSTORE PUSH1 0x1 PUSH1 0x1 PUSH1 0xA0 SHL SUB SWAP1 SWAP2 AND PUSH1 0x4 DUP3 ADD MSTORE PUSH1 0x24 ADD PUSH1 0x20 PUSH1 0x40 MLOAD DUP1 DUP4 SUB DUP2 DUP7 DUP1 PUSH2 0xFDE PUSH2 0x6140 JUMP JUMPDEST PUSH1 0x60 PUSH2 0x30E8 PUSH2 0x4D95 JUMP JUMPDEST PUSH1 0x1 PUSH1 0x1 PUSH1 0xA0 SHL SUB AND PUSH4 0x72CB051F PUSH1 0x40 MLOAD DUP2 PUSH4 0xFFFFFFFF AND PUSH1 0xE0 SHL DUP2 MSTORE PUSH1 0x4 ADD PUSH1 0x0 PUSH1 0x40 MLOAD DUP1 DUP4 SUB DUP2 DUP7 DUP1 PUSH2 0x311B PUSH2 0x6140 JUMP JUMPDEST ISZERO DUP1 ISZERO PUSH2 0x3130 JUMPI PUSH1 0x0 DUP1 PUSH2 0x312D PUSH2 0x607A JUMP JUMPDEST POP POP JUMPDEST POP GAS PUSH2 0x313A PUSH2 0x618C JUMP JUMPDEST POP POP POP POP POP ISZERO DUP1 ISZERO PUSH2 0x3159 JUMPI RETURNDATASIZE PUSH1 0x0 DUP1 RETURNDATACOPY RETURNDATASIZE PUSH1 0x0 PUSH2 0x3156 PUSH2 0x607A JUMP JUMPDEST POP POP JUMPDEST POP POP POP POP PUSH1 0x40 MLOAD RETURNDATASIZE PUSH1 0x0 DUP3 RETURNDATACOPY PUSH1 0x1F RETURNDATASIZE SWAP1 DUP2 ADD PUSH1 0x1F NOT AND DUP3 ADD PUSH1 0x40 MSTORE PUSH1 0x20 DUP2 LT ISZERO PUSH2 0x318B JUMPI PUSH1 0x0 DUP1 PUSH2 0x3188 PUSH2 0x607A JUMP JUMPDEST POP POP JUMPDEST DUP2 ADD SWAP1 DUP1 DUP1 MLOAD PUSH1 0x40 MLOAD SWAP4 SWAP3 SWAP2 SWAP1 DUP5 PUSH5 0x100000000 DUP3 GT ISZERO PUSH2 0x31B4 JUMPI PUSH1 0x0 DUP1 PUSH2 0x31B1 PUSH2 0x607A JUMP JUMPDEST POP POP JUMPDEST SWAP1 DUP4 ADD SWAP1 PUSH1 0x20 DUP3 ADD DUP6 DUP2 GT ISZERO PUSH2 0x31D2 JUMPI PUSH1 0x0 DUP1 PUSH2 0x31CF PUSH2 0x607A JUMP JUMPDEST POP POP JUMPDEST DUP3 MLOAD DUP7 PUSH1 0x20 DUP3 MUL DUP4 ADD GT PUSH5 0x100000000 DUP3 GT OR ISZERO PUSH2 0x31F8 JUMPI PUSH1 0x0 DUP1 PUSH2 0x31F5 PUSH2 0x607A JUMP JUMPDEST POP POP JUMPDEST DUP3 MSTORE POP PUSH1 0x20 ADD SWAP1 DUP1 MLOAD SWAP1 PUSH1 0x20 ADD SWAP1 PUSH1 0x20 MUL DUP1 DUP4 DUP4 PUSH1 0x0 JUMPDEST DUP4 DUP2 LT ISZERO PUSH2 0x3227 JUMPI DUP1 DUP3 ADD MLOAD DUP4 DUP3 ADD MSTORE PUSH1 0x20 ADD PUSH2 0x320F JUMP JUMPDEST POP POP POP POP SWAP1 POP ADD PUSH1 0x40 MSTORE POP POP POP SWAP1 POP SWAP1 JUMP JUMPDEST PUSH1 0x0 PUSH1 0x1 PUSH2 0x3245 PUSH2 0x60E5 JUMP JUMPDEST SWAP1 PUSH2 0x100 EXP SWAP1 DIV PUSH1 0x1 PUSH1 0x1 PUSH1 0xA0 SHL SUB AND PUSH1 0x1 PUSH1 0x1 PUSH1 0xA0 SHL SUB AND GAS PUSH2 0x3267 PUSH2 0x62FE JUMP JUMPDEST PUSH1 0x1 PUSH1 0x1 PUSH1 0xA0 SHL SUB AND EQ PUSH2 0x32B5 JUMPI PUSH1 0x40 MLOAD PUSH3 0x461BCD PUSH1 0xE5 SHL DUP2 MSTORE PUSH1 0x4 ADD DUP1 DUP1 PUSH1 0x20 ADD DUP3 DUP2 SUB DUP3 MSTORE PUSH1 0x35 DUP2 MSTORE PUSH1 0x20 ADD DUP1 PUSH2 0x63F6 PUSH1 0x35 SWAP2 CODECOPY PUSH1 0x40 ADD SWAP2 POP POP PUSH1 0x40 MLOAD DUP1 SWAP2 SUB SWAP1 PUSH2 0x32B2 PUSH2 0x607A JUMP JUMPDEST POP POP JUMPDEST PUSH32 0xB532073B38C83145E3E5135377A08BF9AAB55BC0FD7C1179CD4FB995D2A5159C PUSH1 0x0 DUP1 PUSH2 0x32E1 PUSH2 0x60E5 JUMP JUMPDEST SWAP1 PUSH2 0x100 EXP SWAP1 DIV PUSH1 0x1 PUSH1 0x1 PUSH1 0xA0 SHL SUB AND PUSH1 0x1 PUSH1 0x0 SWAP1 PUSH2 0x32FE PUSH2 0x60E5 JUMP JUMPDEST SWAP1 PUSH2 0x100 EXP SWAP1 DIV PUSH1 0x1 PUSH1 0x1 PUSH1 0xA0 SHL SUB AND PUSH1 0x40 MLOAD PUSH1 0x1 PUSH1 0x1 PUSH1 0xA0 SHL SUB SWAP3 DUP4 AND DUP2 MSTORE SWAP2 AND PUSH1 0x20 DUP3 ADD MSTORE PUSH1 0x40 SWAP1 DUP2 ADD SWAP1 MLOAD DUP1 SWAP2 SUB SWAP1 LOG1 PUSH1 0x0 PUSH1 0x1 PUSH2 0x333D PUSH2 0x60E5 JUMP JUMPDEST SWAP1 PUSH2 0x100 EXP SWAP1 DIV PUSH1 0x1 PUSH1 0x1 PUSH1 0xA0 SHL SUB AND PUSH1 0x0 DUP1 PUSH2 0x100 EXP DUP2 PUSH2 0x335D PUSH2 0x60E5 JUMP JUMPDEST DUP2 PUSH1 0x1 PUSH1 0x1 PUSH1 0xA0 SHL SUB MUL NOT AND SWAP1 DUP4 PUSH1 0x1 PUSH1 0x1 PUSH1 0xA0 SHL SUB AND MUL OR SWAP1 PUSH2 0x337F PUSH2 0x6344 JUMP JUMPDEST POP POP POP PUSH1 0x0 PUSH1 0x1 PUSH1 0x0 PUSH2 0x100 EXP DUP2 PUSH2 0x3395 PUSH2 0x60E5 JUMP JUMPDEST DUP2 PUSH1 0x1 PUSH1 0x1 PUSH1 0xA0 SHL SUB MUL NOT AND SWAP1 DUP4 PUSH1 0x1 PUSH1 0x1 PUSH1 0xA0 SHL SUB AND MUL OR SWAP1 PUSH2 0x33B7 PUSH2 0x6344 JUMP JUMPDEST POP POP POP JUMP JUMPDEST PUSH1 0x0 PUSH2 0x33C6 PUSH2 0x4D95 JUMP JUMPDEST PUSH1 0x1 PUSH1 0x1 PUSH1 0xA0 SHL SUB AND PUSH4 0x835E119C DUP4 PUSH1 0x40 MLOAD PUSH1 0x1 PUSH1 0x1 PUSH1 0xE0 SHL SUB NOT PUSH1 0xE0 DUP5 SWAP1 SHL AND DUP2 MSTORE PUSH1 0x4 DUP2 ADD SWAP2 SWAP1 SWAP2 MSTORE PUSH1 0x24 ADD PUSH1 0x20 PUSH1 0x40 MLOAD DUP1 DUP4 SUB DUP2 DUP7 DUP1 PUSH2 0xFDE PUSH2 0x6140 JUMP JUMPDEST PUSH1 0x0 PUSH2 0x3411 PUSH2 0x4D95 JUMP JUMPDEST PUSH1 0x1 PUSH1 0x1 PUSH1 0xA0 SHL SUB AND PUSH4 0x7B1001B7 DUP4 PUSH1 0x0 PUSH1 0x40 MLOAD PUSH1 0x1 PUSH1 0x1 PUSH1 0xE0 SHL SUB NOT PUSH1 0xE0 DUP6 SWAP1 SHL AND DUP2 MSTORE PUSH1 0x4 DUP2 ADD SWAP3 SWAP1 SWAP3 MSTORE ISZERO ISZERO PUSH1 0x24 DUP3 ADD MSTORE PUSH1 0x44 ADD PUSH1 0x20 PUSH1 0x40 MLOAD DUP1 DUP4 SUB DUP2 DUP7 DUP1 PUSH2 0xFDE PUSH2 0x6140 JUMP JUMPDEST PUSH2 0x3463 PUSH2 0x4F94 JUMP JUMPDEST PUSH1 0x1 PUSH1 0x1 PUSH1 0xA0 SHL SUB AND PUSH4 0x7C312541 PUSH1 0x40 MLOAD DUP2 PUSH4 0xFFFFFFFF AND PUSH1 0xE0 SHL DUP2 MSTORE PUSH1 0x4 ADD PUSH1 0x0 PUSH1 0x40 MLOAD DUP1 DUP4 SUB DUP2 DUP7 DUP1 PUSH2 0x3496 PUSH2 0x6140 JUMP JUMPDEST ISZERO DUP1 ISZERO PUSH2 0x34AB JUMPI PUSH1 0x0 DUP1 PUSH2 0x34A8 PUSH2 0x607A JUMP JUMPDEST POP POP JUMPDEST POP GAS PUSH2 0x34B5 PUSH2 0x618C JUMP JUMPDEST POP POP POP POP POP ISZERO DUP1 ISZERO PUSH2 0x34D4 JUMPI RETURNDATASIZE PUSH1 0x0 DUP1 RETURNDATACOPY RETURNDATASIZE PUSH1 0x0 PUSH2 0x34D1 PUSH2 0x607A JUMP JUMPDEST POP POP JUMPDEST POP POP POP POP PUSH2 0x34E0 PUSH2 0x4DDB JUMP JUMPDEST PUSH2 0x34E8 PUSH2 0x4D95 JUMP JUMPDEST PUSH1 0x1 PUSH1 0x1 PUSH1 0xA0 SHL SUB AND PUSH4 0x42E0688 PUSH1 0x0 PUSH1 0x6 PUSH2 0x1F21 PUSH2 0x60E5 JUMP JUMPDEST PUSH1 0x0 DUP1 PUSH2 0xF78 PUSH2 0x60E5 JUMP JUMPDEST PUSH1 0x0 DUP6 DUP5 PUSH2 0x3519 PUSH2 0x4F94 JUMP JUMPDEST PUSH1 0x1 PUSH1 0x1 PUSH1 0xA0 SHL SUB AND PUSH4 0x7118D431 PUSH1 0x40 MLOAD DUP2 PUSH4 0xFFFFFFFF AND PUSH1 0xE0 SHL DUP2 MSTORE PUSH1 0x4 ADD PUSH1 0x0 PUSH1 0x40 MLOAD DUP1 DUP4 SUB DUP2 DUP7 DUP1 PUSH2 0x354C PUSH2 0x6140 JUMP JUMPDEST ISZERO DUP1 ISZERO PUSH2 0x3561 JUMPI PUSH1 0x0 DUP1 PUSH2 0x355E PUSH2 0x607A JUMP JUMPDEST POP POP JUMPDEST POP GAS PUSH2 0x356B PUSH2 0x618C JUMP JUMPDEST POP POP POP POP POP ISZERO DUP1 ISZERO PUSH2 0x358A JUMPI RETURNDATASIZE PUSH1 0x0 DUP1 RETURNDATACOPY RETURNDATASIZE PUSH1 0x0 PUSH2 0x3587 PUSH2 0x607A JUMP JUMPDEST POP POP JUMPDEST POP POP POP POP PUSH2 0x3596 PUSH2 0x4F94 JUMP JUMPDEST PUSH1 0x1 PUSH1 0x1 PUSH1 0xA0 SHL SUB AND PUSH4 0x6132EBA4 DUP4 DUP4 PUSH1 0x40 MLOAD PUSH1 0x1 PUSH1 0x1 PUSH1 0xE0 SHL SUB NOT PUSH1 0xE0 DUP6 SWAP1 SHL AND DUP2 MSTORE PUSH1 0x4 DUP2 ADD SWAP3 SWAP1 SWAP3 MSTORE PUSH1 0x24 DUP3 ADD MSTORE PUSH1 0x44 ADD PUSH1 0x0 PUSH1 0x40 MLOAD DUP1 DUP4 SUB DUP2 DUP7 DUP1 PUSH2 0x35DD PUSH2 0x6140 JUMP JUMPDEST ISZERO DUP1 ISZERO PUSH2 0x35F2 JUMPI PUSH1 0x0 DUP1 PUSH2 0x35EF PUSH2 0x607A JUMP JUMPDEST POP POP JUMPDEST POP GAS PUSH2 0x35FC PUSH2 0x618C JUMP JUMPDEST POP POP POP POP POP ISZERO DUP1 ISZERO PUSH2 0x361B JUMPI RETURNDATASIZE PUSH1 0x0 DUP1 RETURNDATACOPY RETURNDATASIZE PUSH1 0x0 PUSH2 0x3618 PUSH2 0x607A JUMP JUMPDEST POP POP JUMPDEST POP POP POP POP PUSH2 0x3627 PUSH2 0x4DDB JUMP JUMPDEST PUSH2 0x362F PUSH2 0x521D JUMP JUMPDEST PUSH1 0x1 PUSH1 0x1 PUSH1 0xA0 SHL SUB AND PUSH4 0xDFFFCA76 DUP11 PUSH1 0x0 PUSH1 0x6 PUSH2 0x364A PUSH2 0x60E5 JUMP JUMPDEST SWAP1 PUSH2 0x100 EXP SWAP1 DIV PUSH1 0x1 PUSH1 0x1 PUSH1 0xA0 SHL SUB AND DUP12 DUP12 DUP12 DUP12 DUP12 PUSH1 0x40 MLOAD PUSH1 0x1 PUSH1 0x1 PUSH1 0xE0 SHL SUB NOT PUSH1 0xE0 DUP11 SWAP1 SHL AND DUP2 MSTORE PUSH1 0x1 PUSH1 0x1 PUSH1 0xA0 SHL SUB SWAP8 DUP9 AND PUSH1 0x4 DUP3 ADD MSTORE SWAP6 DUP8 AND PUSH1 0x24 DUP8 ADD MSTORE PUSH1 0x44 DUP7 ADD SWAP5 SWAP1 SWAP5 MSTORE PUSH1 0x64 DUP6 ADD SWAP3 SWAP1 SWAP3 MSTORE PUSH1 0x84 DUP5 ADD MSTORE SWAP1 SWAP3 AND PUSH1 0xA4 DUP3 ADD MSTORE PUSH1 0xC4 DUP2 ADD SWAP2 SWAP1 SWAP2 MSTORE PUSH1 0xE4 ADD PUSH1 0x20 PUSH1 0x40 MLOAD DUP1 DUP4 SUB DUP2 PUSH1 0x0 DUP8 DUP1 PUSH2 0x36C8 PUSH2 0x6140 JUMP JUMPDEST ISZERO DUP1 ISZERO PUSH2 0x36DD JUMPI PUSH1 0x0 DUP1 PUSH2 0x36DA PUSH2 0x607A JUMP JUMPDEST POP POP JUMPDEST POP GAS PUSH2 0x36E7 PUSH2 0x6245 JUMP JUMPDEST POP POP POP POP POP POP ISZERO DUP1 ISZERO PUSH2 0x3707 JUMPI RETURNDATASIZE PUSH1 0x0 DUP1 RETURNDATACOPY RETURNDATASIZE PUSH1 0x0 PUSH2 0x3704 PUSH2 0x607A JUMP JUMPDEST POP POP JUMPDEST POP POP POP POP PUSH1 0x40 MLOAD RETURNDATASIZE PUSH1 0x20 DUP2 LT ISZERO PUSH2 0x3726 JUMPI PUSH1 0x0 DUP1 PUSH2 0x3723 PUSH2 0x607A JUMP JUMPDEST POP POP JUMPDEST DUP2 ADD SWAP1 DUP1 DUP1 MLOAD SWAP13 SWAP12 POP POP POP POP POP POP POP POP POP POP POP POP JUMP JUMPDEST PUSH4 0x1CD554D1 PUSH1 0xE2 SHL DUP2 JUMP JUMPDEST PUSH1 0x9 DUP1 PUSH2 0x3752 PUSH2 0x60E5 JUMP JUMPDEST PUSH1 0x1 DUP2 PUSH1 0x1 AND ISZERO PUSH2 0x100 MUL SUB AND PUSH1 0x2 SWAP1 DIV DUP1 PUSH1 0x1F ADD PUSH1 0x20 DUP1 SWAP2 DIV MUL PUSH1 0x20 ADD PUSH1 0x40 MLOAD SWAP1 DUP2 ADD PUSH1 0x40 MSTORE DUP2 DUP2 MSTORE SWAP2 SWAP1 PUSH1 0x20 DUP4 ADD DUP3 DUP1 PUSH2 0x378C PUSH2 0x60E5 JUMP JUMPDEST PUSH1 0x1 DUP2 PUSH1 0x1 AND ISZERO PUSH2 0x100 MUL SUB AND PUSH1 0x2 SWAP1 DIV DUP1 ISZERO PUSH2 0x10FD JUMPI DUP1 PUSH1 0x1F LT PUSH2 0x37B8 JUMPI PUSH2 0x100 DUP1 DUP4 PUSH2 0x10BD PUSH2 0x60E5 JUMP JUMPDEST DUP3 ADD SWAP2 SWAP1 PUSH1 0x0 MSTORE PUSH1 0x20 PUSH1 0x0 KECCAK256 SWAP1 JUMPDEST DUP2 PUSH2 0x37CF PUSH2 0x60E5 JUMP JUMPDEST DUP2 MSTORE SWAP1 PUSH1 0x1 ADD SWAP1 PUSH1 0x20 ADD DUP1 DUP4 GT PUSH2 0x37C6 JUMPI POP DUP6 SWAP4 POP POP POP POP JUMP JUMPDEST PUSH2 0x37F1 PUSH2 0x51A5 JUMP JUMPDEST DUP1 PUSH1 0x4 PUSH1 0x1 DUP2 PUSH2 0x37FF PUSH2 0x60E5 JUMP JUMPDEST DUP2 PUSH1 0x1 PUSH1 0x1 PUSH1 0xA0 SHL SUB MUL NOT AND SWAP1 DUP4 PUSH1 0x1 PUSH1 0x1 PUSH1 0xA0 SHL SUB AND MUL OR SWAP1 PUSH2 0x3821 PUSH2 0x6344 JUMP JUMPDEST POP POP POP PUSH32 0xFC80377CA9C49CC11AE6982F390A42DB976D5530AF7C43889264B13FBBD7C57E DUP2 PUSH1 0x40 MLOAD PUSH1 0x1 PUSH1 0x1 PUSH1 0xA0 SHL SUB SWAP1 SWAP2 AND DUP2 MSTORE PUSH1 0x20 ADD PUSH1 0x40 MLOAD DUP1 SWAP2 SUB SWAP1 LOG1 POP JUMP JUMPDEST PUSH2 0x386C PUSH2 0x4F94 JUMP JUMPDEST PUSH1 0x1 PUSH1 0x1 PUSH1 0xA0 SHL SUB AND PUSH4 0x7C312541 PUSH1 0x40 MLOAD DUP2 PUSH4 0xFFFFFFFF AND PUSH1 0xE0 SHL DUP2 MSTORE PUSH1 0x4 ADD PUSH1 0x0 PUSH1 0x40 MLOAD DUP1 DUP4 SUB DUP2 DUP7 DUP1 PUSH2 0x389F PUSH2 0x6140 JUMP JUMPDEST ISZERO DUP1 ISZERO PUSH2 0x38B4 JUMPI PUSH1 0x0 DUP1 PUSH2 0x38B1 PUSH2 0x607A JUMP JUMPDEST POP POP JUMPDEST POP GAS PUSH2 0x38BE PUSH2 0x618C JUMP JUMPDEST POP POP POP POP POP ISZERO DUP1 ISZERO PUSH2 0x38DD JUMPI RETURNDATASIZE PUSH1 0x0 DUP1 RETURNDATACOPY RETURNDATASIZE PUSH1 0x0 PUSH2 0x38DA PUSH2 0x607A JUMP JUMPDEST POP POP JUMPDEST POP POP POP POP PUSH2 0x38E9 PUSH2 0x4DDB JUMP JUMPDEST PUSH2 0x38F1 PUSH2 0x4D95 JUMP JUMPDEST PUSH1 0x1 PUSH1 0x1 PUSH1 0xA0 SHL SUB AND PUSH4 0x497D704A PUSH1 0x0 PUSH1 0x6 PUSH2 0x390B PUSH2 0x60E5 JUMP JUMPDEST SWAP1 PUSH2 0x100 EXP SWAP1 DIV PUSH1 0x1 PUSH1 0x1 PUSH1 0xA0 SHL SUB AND PUSH1 0x40 MLOAD PUSH1 0x1 PUSH1 0x1 PUSH1 0xE0 SHL SUB NOT PUSH1 0xE0 DUP5 SWAP1 SHL AND DUP2 MSTORE PUSH1 0x1 PUSH1 0x1 PUSH1 0xA0 SHL SUB SWAP1 SWAP2 AND PUSH1 0x4 DUP3 ADD MSTORE PUSH1 0x24 ADD PUSH1 0x0 PUSH1 0x40 MLOAD DUP1 DUP4 SUB DUP2 PUSH1 0x0 DUP8 DUP1 PUSH2 0x3957 PUSH2 0x6140 JUMP JUMPDEST ISZERO DUP1 ISZERO PUSH2 0x396C JUMPI PUSH1 0x0 DUP1 PUSH2 0x3969 PUSH2 0x607A JUMP JUMPDEST POP POP JUMPDEST POP GAS PUSH2 0x3976 PUSH2 0x6245 JUMP JUMPDEST POP POP POP POP POP POP ISZERO DUP1 ISZERO PUSH2 0x1AD4 JUMPI RETURNDATASIZE PUSH1 0x0 DUP1 RETURNDATACOPY RETURNDATASIZE PUSH1 0x0 PUSH2 0x3993 PUSH2 0x607A JUMP JUMPDEST POP POP POP POP POP POP JUMPDEST JUMP JUMPDEST PUSH1 0x0 DUP1 PUSH1 0x0 PUSH2 0x39A9 PUSH2 0x4DDB JUMP JUMPDEST PUSH2 0x39B1 PUSH2 0x521D JUMP JUMPDEST PUSH1 0x1 PUSH1 0x1 PUSH1 0xA0 SHL SUB AND PUSH4 0x1B16802C PUSH1 0x0 PUSH1 0x6 PUSH2 0x39CB PUSH2 0x60E5 JUMP JUMPDEST SWAP1 PUSH2 0x100 EXP SWAP1 DIV PUSH1 0x1 PUSH1 0x1 PUSH1 0xA0 SHL SUB AND DUP7 PUSH1 0x40 MLOAD PUSH1 0x1 PUSH1 0x1 PUSH1 0xE0 SHL SUB NOT PUSH1 0xE0 DUP6 SWAP1 SHL AND DUP2 MSTORE PUSH1 0x1 PUSH1 0x1 PUSH1 0xA0 SHL SUB SWAP1 SWAP3 AND PUSH1 0x4 DUP4 ADD MSTORE PUSH1 0x24 DUP3 ADD MSTORE PUSH1 0x44 ADD PUSH1 0x60 PUSH1 0x40 MLOAD DUP1 DUP4 SUB DUP2 PUSH1 0x0 DUP8 DUP1 PUSH2 0x3A1D PUSH2 0x6140 JUMP JUMPDEST ISZERO DUP1 ISZERO PUSH2 0x3A32 JUMPI PUSH1 0x0 DUP1 PUSH2 0x3A2F PUSH2 0x607A JUMP JUMPDEST POP POP JUMPDEST POP GAS PUSH2 0x3A3C PUSH2 0x6245 JUMP JUMPDEST POP POP POP POP POP POP ISZERO DUP1 ISZERO PUSH2 0x1295 JUMPI RETURNDATASIZE PUSH1 0x0 DUP1 RETURNDATACOPY RETURNDATASIZE PUSH1 0x0 PUSH2 0x1292 PUSH2 0x607A JUMP JUMPDEST PUSH2 0x3A61 PUSH2 0x51A5 JUMP JUMPDEST PUSH1 0x0 PUSH1 0x3 PUSH2 0x3A6D PUSH2 0x60E5 JUMP JUMPDEST SWAP1 PUSH2 0x100 EXP SWAP1 DIV PUSH1 0xFF AND PUSH2 0x3AD0 JUMPI PUSH1 0x40 MLOAD PUSH3 0x461BCD PUSH1 0xE5 SHL DUP2 MSTORE PUSH1 0x20 PUSH1 0x4 DUP3 ADD MSTORE PUSH1 0x1F PUSH1 0x24 DUP3 ADD MSTORE PUSH32 0x53656C66204465737472756374206E6F742079657420696E6974696174656400 PUSH1 0x44 DUP3 ADD MSTORE PUSH1 0x64 ADD PUSH1 0x40 MLOAD DUP1 SWAP2 SUB SWAP1 PUSH2 0x3ACD PUSH2 0x607A JUMP JUMPDEST POP POP JUMPDEST GAS PUSH2 0x3AD9 PUSH2 0x6392 JUMP JUMPDEST PUSH3 0x24EA00 PUSH1 0x2 PUSH2 0x3AE7 PUSH2 0x60E5 JUMP JUMPDEST ADD LT PUSH2 0x3B42 JUMPI PUSH1 0x40 MLOAD PUSH3 0x461BCD PUSH1 0xE5 SHL DUP2 MSTORE PUSH1 0x20 PUSH1 0x4 DUP3 ADD MSTORE PUSH1 0x1B PUSH1 0x24 DUP3 ADD MSTORE PUSH32 0x53656C662064657374727563742064656C6179206E6F74206D65740000000000 PUSH1 0x44 DUP3 ADD MSTORE PUSH1 0x64 ADD PUSH1 0x40 MLOAD DUP1 SWAP2 SUB SWAP1 PUSH2 0x3B3F PUSH2 0x607A JUMP JUMPDEST POP POP JUMPDEST PUSH32 0x8A09E1677CED846CB537DC2B172043BD05A1A81AD7E0033A7EF8BA762DF990B7 PUSH1 0x1 PUSH1 0x3 PUSH2 0x3B6F PUSH2 0x60E5 JUMP JUMPDEST SWAP1 PUSH2 0x100 EXP SWAP1 DIV PUSH1 0x1 PUSH1 0x1 PUSH1 0xA0 SHL SUB AND PUSH1 0x40 MLOAD PUSH1 0x1 PUSH1 0x1 PUSH1 0xA0 SHL SUB SWAP1 SWAP2 AND DUP2 MSTORE PUSH1 0x20 ADD PUSH1 0x40 MLOAD DUP1 SWAP2 SUB SWAP1 LOG1 JUMP JUMPDEST PUSH1 0x0 PUSH1 0x5 PUSH2 0xF78 PUSH2 0x60E5 JUMP JUMPDEST PUSH2 0x3BB0 PUSH2 0x56F0 JUMP JUMPDEST DUP1 PUSH1 0x7 PUSH1 0x1 DUP2 PUSH2 0x3BBE PUSH2 0x60E5 JUMP JUMPDEST DUP2 PUSH1 0x1 PUSH1 0x1 PUSH1 0xA0 SHL SUB MUL NOT AND SWAP1 DUP4 PUSH1 0x1 PUSH1 0x1 PUSH1 0xA0 SHL SUB AND MUL OR SWAP1 PUSH2 0x3BE0 PUSH2 0x6344 JUMP JUMPDEST POP POP POP PUSH2 0x1FB7 DUP2 PUSH2 0x587B JUMP JUMPDEST PUSH1 0x0 PUSH2 0x3BF6 PUSH2 0x4D95 JUMP JUMPDEST PUSH1 0x1 PUSH1 0x1 PUSH1 0xA0 SHL SUB AND PUSH4 0xA311C7C2 DUP4 PUSH1 0x40 MLOAD PUSH1 0x1 PUSH1 0x1 PUSH1 0xE0 SHL SUB NOT PUSH1 0xE0 DUP5 SWAP1 SHL AND DUP2 MSTORE PUSH1 0x1 PUSH1 0x1 PUSH1 0xA0 SHL SUB SWAP1 SWAP2 AND PUSH1 0x4 DUP3 ADD MSTORE PUSH1 0x24 ADD PUSH1 0x20 PUSH1 0x40 MLOAD DUP1 DUP4 SUB DUP2 DUP7 DUP1 PUSH2 0xFDE PUSH2 0x6140 JUMP JUMPDEST PUSH3 0x24EA00 DUP2 JUMP JUMPDEST PUSH1 0x0 PUSH2 0x3C50 PUSH2 0x4D95 JUMP JUMPDEST PUSH1 0x1 PUSH1 0x1 PUSH1 0xA0 SHL SUB AND PUSH4 0xA5FDC5DE DUP4 PUSH1 0x40 MLOAD PUSH1 0x1 PUSH1 0x1 PUSH1 0xE0 SHL SUB NOT PUSH1 0xE0 DUP5 SWAP1 SHL AND DUP2 MSTORE PUSH1 0x1 PUSH1 0x1 PUSH1 0xA0 SHL SUB SWAP1 SWAP2 AND PUSH1 0x4 DUP3 ADD MSTORE PUSH1 0x24 ADD PUSH1 0x20 PUSH1 0x40 MLOAD DUP1 DUP4 SUB DUP2 DUP7 DUP1 PUSH2 0xFDE PUSH2 0x6140 JUMP JUMPDEST PUSH1 0x0 PUSH2 0x3CA3 PUSH2 0x4DDB JUMP JUMPDEST PUSH2 0x3CAB PUSH2 0x4F94 JUMP JUMPDEST PUSH1 0x1 PUSH1 0x1 PUSH1 0xA0 SHL SUB AND PUSH4 0x86DABD1 PUSH1 0x40 MLOAD DUP2 PUSH4 0xFFFFFFFF AND PUSH1 0xE0 SHL DUP2 MSTORE PUSH1 0x4 ADD PUSH1 0x0 PUSH1 0x40 MLOAD DUP1 DUP4 SUB DUP2 DUP7 DUP1 PUSH2 0x3CDE PUSH2 0x6140 JUMP JUMPDEST ISZERO DUP1 ISZERO PUSH2 0x3CF3 JUMPI PUSH1 0x0 DUP1 PUSH2 0x3CF0 PUSH2 0x607A JUMP JUMPDEST POP POP JUMPDEST POP GAS PUSH2 0x3CFD PUSH2 0x618C JUMP JUMPDEST POP POP POP POP POP ISZERO DUP1 ISZERO PUSH2 0x3D1C JUMPI RETURNDATASIZE PUSH1 0x0 DUP1 RETURNDATACOPY RETURNDATASIZE PUSH1 0x0 PUSH2 0x3D19 PUSH2 0x607A JUMP JUMPDEST POP POP JUMPDEST POP POP POP POP PUSH2 0x3D46 PUSH1 0x6 PUSH1 0x0 SWAP1 PUSH2 0x3D30 PUSH2 0x60E5 JUMP JUMPDEST SWAP1 PUSH2 0x100 EXP SWAP1 DIV PUSH1 0x1 PUSH1 0x1 PUSH1 0xA0 SHL SUB AND DUP4 PUSH2 0x5268 JUMP JUMPDEST POP PUSH2 0x11F7 PUSH1 0x0 PUSH1 0x6 PUSH2 0x3D56 PUSH2 0x60E5 JUMP JUMPDEST SWAP1 PUSH2 0x100 EXP SWAP1 DIV PUSH1 0x1 PUSH1 0x1 PUSH1 0xA0 SHL SUB AND DUP5 DUP5 PUSH2 0x59C3 JUMP JUMPDEST PUSH2 0x3D75 PUSH2 0x63D8 JUMP JUMPDEST PUSH1 0x0 JUMPDEST PUSH1 0xD DUP1 PUSH2 0x3D83 PUSH2 0x60E5 JUMP JUMPDEST SWAP1 POP DUP2 LT ISZERO PUSH2 0x3DCB JUMPI PUSH1 0xD DUP2 DUP2 PUSH2 0x3D98 PUSH2 0x60E5 JUMP JUMPDEST DUP2 LT PUSH2 0x3DA0 JUMPI INVALID JUMPDEST SWAP1 PUSH1 0x0 MSTORE PUSH1 0x20 PUSH1 0x0 KECCAK256 ADD PUSH2 0x3DB2 PUSH2 0x60E5 JUMP JUMPDEST DUP3 DUP3 PUSH1 0x18 DUP2 LT PUSH2 0x3DBE JUMPI INVALID JUMPDEST PUSH1 0x20 MUL ADD MSTORE PUSH1 0x1 ADD PUSH2 0x3D78 JUMP JUMPDEST POP SWAP1 JUMP JUMPDEST PUSH2 0x3DD7 PUSH2 0x521D JUMP JUMPDEST PUSH1 0x1 PUSH1 0x1 PUSH1 0xA0 SHL SUB AND GAS PUSH2 0x3DE9 PUSH2 0x62FE JUMP JUMPDEST PUSH1 0x1 PUSH1 0x1 PUSH1 0xA0 SHL SUB AND EQ PUSH2 0x3E3A JUMPI PUSH1 0x40 MLOAD PUSH3 0x461BCD PUSH1 0xE5 SHL DUP2 MSTORE PUSH1 0x20 PUSH1 0x4 DUP3 ADD MSTORE PUSH1 0x1E PUSH1 0x24 DUP3 ADD MSTORE PUSH1 0x0 DUP1 MLOAD PUSH1 0x20 PUSH2 0x6453 DUP4 CODECOPY DUP2 MLOAD SWAP2 MSTORE PUSH1 0x44 DUP3 ADD MSTORE PUSH1 0x64 ADD PUSH1 0x40 MLOAD DUP1 SWAP2 SUB SWAP1 PUSH2 0x3E37 PUSH2 0x607A JUMP JUMPDEST POP POP JUMPDEST PUSH1 0x0 PUSH1 0x4 PUSH2 0x3E46 PUSH2 0x60E5 JUMP JUMPDEST SWAP1 PUSH2 0x100 EXP SWAP1 DIV PUSH1 0x1 PUSH1 0x1 PUSH1 0xA0 SHL SUB AND PUSH1 0x1 PUSH1 0x1 PUSH1 0xA0 SHL SUB AND PUSH4 0x907DFF97 DUP4 DUP4 PUSH1 0x40 MLOAD PUSH1 0x20 ADD DUP1 DUP4 DUP2 MSTORE PUSH1 0x20 ADD DUP3 DUP2 MSTORE PUSH1 0x20 ADD SWAP3 POP POP POP PUSH1 0x40 MLOAD PUSH1 0x20 DUP2 DUP4 SUB SUB DUP2 MSTORE SWAP1 PUSH1 0x40 MSTORE PUSH1 0x2 PUSH1 0x40 MLOAD DUP1 PUSH1 0x28 PUSH2 0x642B DUP3 CODECOPY PUSH1 0x28 ADD SWAP1 POP PUSH1 0x40 MLOAD DUP1 SWAP2 SUB SWAP1 KECCAK256 PUSH2 0x2F72 DUP9 PUSH2 0x56E4 JUMP JUMPDEST PUSH2 0x3EB7 PUSH2 0x4F94 JUMP JUMPDEST PUSH1 0x1 PUSH1 0x1 PUSH1 0xA0 SHL SUB AND PUSH4 0x7C312541 PUSH1 0x40 MLOAD DUP2 PUSH4 0xFFFFFFFF AND PUSH1 0xE0 SHL DUP2 MSTORE PUSH1 0x4 ADD PUSH1 0x0 PUSH1 0x40 MLOAD DUP1 DUP4 SUB DUP2 DUP7 DUP1 PUSH2 0x3EEA PUSH2 0x6140 JUMP JUMPDEST ISZERO DUP1 ISZERO PUSH2 0x3EFF JUMPI PUSH1 0x0 DUP1 PUSH2 0x3EFC PUSH2 0x607A JUMP JUMPDEST POP POP JUMPDEST POP GAS PUSH2 0x3F09 PUSH2 0x618C JUMP JUMPDEST POP POP POP POP POP ISZERO DUP1 ISZERO PUSH2 0x3F28 JUMPI RETURNDATASIZE PUSH1 0x0 DUP1 RETURNDATACOPY RETURNDATASIZE PUSH1 0x0 PUSH2 0x3F25 PUSH2 0x607A JUMP JUMPDEST POP POP JUMPDEST POP POP POP POP PUSH2 0x3F34 PUSH2 0x4DDB JUMP JUMPDEST PUSH2 0x3F3C PUSH2 0x4D95 JUMP JUMPDEST PUSH1 0x1 PUSH1 0x1 PUSH1 0xA0 SHL SUB AND PUSH4 0xC8977132 PUSH1 0x0 PUSH1 0x6 PUSH2 0x390B PUSH2 0x60E5 JUMP JUMPDEST PUSH1 0x0 PUSH1 0x3 PUSH2 0x232F PUSH2 0x60E5 JUMP JUMPDEST PUSH2 0x3F6A PUSH2 0x59D0 JUMP JUMPDEST DUP1 PUSH1 0x6 PUSH1 0x1 DUP2 PUSH2 0x1AB2 PUSH2 0x60E5 JUMP JUMPDEST PUSH2 0x3F80 PUSH2 0x51A5 JUMP JUMPDEST GAS PUSH2 0x3F89 PUSH2 0x6392 JUMP JUMPDEST DUP1 PUSH1 0x2 PUSH2 0x3F94 PUSH2 0x6344 JUMP JUMPDEST POP POP POP PUSH1 0x1 PUSH1 0x3 PUSH1 0x0 PUSH2 0x100 EXP DUP2 PUSH2 0x3FAA PUSH2 0x60E5 JUMP JUMPDEST DUP2 PUSH1 0xFF MUL NOT AND SWAP1 DUP4 ISZERO ISZERO MUL OR SWAP1 PUSH2 0x3FBF PUSH2 0x6344 JUMP JUMPDEST POP POP POP PUSH32 0xCBD94CA75B8DC45C9D80C77E851670E78843C0D75180CB81DB3E2158228FA9A6 PUSH3 0x24EA00 PUSH1 0x40 MLOAD SWAP1 DUP2 MSTORE PUSH1 0x20 ADD PUSH1 0x40 MLOAD DUP1 SWAP2 SUB SWAP1 LOG1 JUMP JUMPDEST PUSH2 0x4002 PUSH2 0x4F94 JUMP JUMPDEST PUSH1 0x1 PUSH1 0x1 PUSH1 0xA0 SHL SUB AND PUSH4 0x7C312541 PUSH1 0x40 MLOAD DUP2 PUSH4 0xFFFFFFFF AND PUSH1 0xE0 SHL DUP2 MSTORE PUSH1 0x4 ADD PUSH1 0x0 PUSH1 0x40 MLOAD DUP1 DUP4 SUB DUP2 DUP7 DUP1 PUSH2 0x4035 PUSH2 0x6140 JUMP JUMPDEST ISZERO DUP1 ISZERO PUSH2 0x404A JUMPI PUSH1 0x0 DUP1 PUSH2 0x4047 PUSH2 0x607A JUMP JUMPDEST POP POP JUMPDEST POP GAS PUSH2 0x4054 PUSH2 0x618C JUMP JUMPDEST POP POP POP POP POP ISZERO DUP1 ISZERO PUSH2 0x4073 JUMPI RETURNDATASIZE PUSH1 0x0 DUP1 RETURNDATACOPY RETURNDATASIZE PUSH1 0x0 PUSH2 0x4070 PUSH2 0x607A JUMP JUMPDEST POP POP JUMPDEST POP POP POP POP PUSH2 0x407F PUSH2 0x4DDB JUMP JUMPDEST PUSH2 0x4087 PUSH2 0x4D95 JUMP JUMPDEST PUSH1 0x1 PUSH1 0x1 PUSH1 0xA0 SHL SUB AND PUSH4 0x9A5154B4 DUP4 PUSH1 0x0 PUSH1 0x6 PUSH2 0x40A2 PUSH2 0x60E5 JUMP JUMPDEST SWAP1 PUSH2 0x100 EXP SWAP1 DIV PUSH1 0x1 PUSH1 0x1 PUSH1 0xA0 SHL SUB AND DUP5 PUSH1 0x40 MLOAD PUSH1 0x1 PUSH1 0x1 PUSH1 0xE0 SHL SUB NOT PUSH1 0xE0 DUP7 SWAP1 SHL AND DUP2 MSTORE PUSH1 0x1 PUSH1 0x1 PUSH1 0xA0 SHL SUB SWAP4 DUP5 AND PUSH1 0x4 DUP3 ADD MSTORE SWAP2 SWAP1 SWAP3 AND PUSH1 0x24 DUP3 ADD MSTORE PUSH1 0x44 DUP2 ADD SWAP2 SWAP1 SWAP2 MSTORE PUSH1 0x64 ADD PUSH1 0x0 PUSH1 0x40 MLOAD DUP1 DUP4 SUB DUP2 PUSH1 0x0 DUP8 DUP1 PUSH2 0x4100 PUSH2 0x6140 JUMP JUMPDEST ISZERO DUP1 ISZERO PUSH2 0x4115 JUMPI PUSH1 0x0 DUP1 PUSH2 0x4112 PUSH2 0x607A JUMP JUMPDEST POP POP JUMPDEST POP GAS PUSH2 0x411F PUSH2 0x6245 JUMP JUMPDEST POP POP POP POP POP POP ISZERO DUP1 ISZERO PUSH2 0x3993 JUMPI RETURNDATASIZE PUSH1 0x0 DUP1 RETURNDATACOPY RETURNDATASIZE PUSH1 0x0 PUSH2 0x413C PUSH2 0x607A JUMP JUMPDEST POP POP POP POP POP POP POP POP JUMP JUMPDEST PUSH1 0x1 PUSH1 0x3 PUSH2 0xF78 PUSH2 0x60E5 JUMP JUMPDEST PUSH1 0xD DUP2 DUP2 PUSH2 0x415E PUSH2 0x60E5 JUMP JUMPDEST DUP2 LT PUSH2 0x4166 JUMPI INVALID JUMPDEST SWAP1 PUSH1 0x0 MSTORE PUSH1 0x20 PUSH1 0x0 KECCAK256 ADD SWAP1 POP PUSH2 0x1BB1 PUSH2 0x60E5 JUMP JUMPDEST PUSH1 0x0 DUP4 DUP3 PUSH2 0x4186 PUSH2 0x4F94 JUMP JUMPDEST PUSH1 0x1 PUSH1 0x1 PUSH1 0xA0 SHL SUB AND PUSH4 0x7118D431 PUSH1 0x40 MLOAD DUP2 PUSH4 0xFFFFFFFF AND PUSH1 0xE0 SHL DUP2 MSTORE PUSH1 0x4 ADD PUSH1 0x0 PUSH1 0x40 MLOAD DUP1 DUP4 SUB DUP2 DUP7 DUP1 PUSH2 0x41B9 PUSH2 0x6140 JUMP JUMPDEST ISZERO DUP1 ISZERO PUSH2 0x41CE JUMPI PUSH1 0x0 DUP1 PUSH2 0x41CB PUSH2 0x607A JUMP JUMPDEST POP POP JUMPDEST POP GAS PUSH2 0x41D8 PUSH2 0x618C JUMP JUMPDEST POP POP POP POP POP ISZERO DUP1 ISZERO PUSH2 0x41F7 JUMPI RETURNDATASIZE PUSH1 0x0 DUP1 RETURNDATACOPY RETURNDATASIZE PUSH1 0x0 PUSH2 0x41F4 PUSH2 0x607A JUMP JUMPDEST POP POP JUMPDEST POP POP POP POP PUSH2 0x4203 PUSH2 0x4F94 JUMP JUMPDEST PUSH1 0x1 PUSH1 0x1 PUSH1 0xA0 SHL SUB AND PUSH4 0x6132EBA4 DUP4 DUP4 PUSH1 0x40 MLOAD PUSH1 0x1 PUSH1 0x1 PUSH1 0xE0 SHL SUB NOT PUSH1 0xE0 DUP6 SWAP1 SHL AND DUP2 MSTORE PUSH1 0x4 DUP2 ADD SWAP3 SWAP1 SWAP3 MSTORE PUSH1 0x24 DUP3 ADD MSTORE PUSH1 0x44 ADD PUSH1 0x0 PUSH1 0x40 MLOAD DUP1 DUP4 SUB DUP2 DUP7 DUP1 PUSH2 0x424A PUSH2 0x6140 JUMP JUMPDEST ISZERO DUP1 ISZERO PUSH2 0x425F JUMPI PUSH1 0x0 DUP1 PUSH2 0x425C PUSH2 0x607A JUMP JUMPDEST POP POP JUMPDEST POP GAS PUSH2 0x4269 PUSH2 0x618C JUMP JUMPDEST POP POP POP POP POP ISZERO DUP1 ISZERO PUSH2 0x4288 JUMPI RETURNDATASIZE PUSH1 0x0 DUP1 RETURNDATACOPY RETURNDATASIZE PUSH1 0x0 PUSH2 0x4285 PUSH2 0x607A JUMP JUMPDEST POP POP JUMPDEST POP POP POP POP PUSH2 0x4294 PUSH2 0x4DDB JUMP JUMPDEST PUSH2 0x429C PUSH2 0x521D JUMP JUMPDEST PUSH1 0x1 PUSH1 0x1 PUSH1 0xA0 SHL SUB AND PUSH4 0x6A1C4758 DUP9 PUSH1 0x0 PUSH1 0x6 PUSH2 0x42B7 PUSH2 0x60E5 JUMP JUMPDEST SWAP1 PUSH2 0x100 EXP SWAP1 DIV PUSH1 0x1 PUSH1 0x1 PUSH1 0xA0 SHL SUB AND DUP10 DUP10 DUP10 PUSH1 0x40 MLOAD PUSH1 0x1 PUSH1 0x1 PUSH1 0xE0 SHL SUB NOT PUSH1 0xE0 DUP9 SWAP1 SHL AND DUP2 MSTORE PUSH1 0x1 PUSH1 0x1 PUSH1 0xA0 SHL SUB SWAP6 DUP7 AND PUSH1 0x4 DUP3 ADD MSTORE SWAP4 SWAP1 SWAP5 AND PUSH1 0x24 DUP5 ADD MSTORE PUSH1 0x44 DUP4 ADD SWAP2 SWAP1 SWAP2 MSTORE PUSH1 0x64 DUP3 ADD MSTORE PUSH1 0x84 DUP2 ADD SWAP2 SWAP1 SWAP2 MSTORE PUSH1 0xA4 ADD PUSH1 0x20 PUSH1 0x40 MLOAD DUP1 DUP4 SUB DUP2 PUSH1 0x0 DUP8 DUP1 PUSH2 0x4324 PUSH2 0x6140 JUMP JUMPDEST ISZERO DUP1 ISZERO PUSH2 0x4339 JUMPI PUSH1 0x0 DUP1 PUSH2 0x4336 PUSH2 0x607A JUMP JUMPDEST POP POP JUMPDEST POP GAS PUSH2 0x4343 PUSH2 0x6245 JUMP JUMPDEST POP POP POP POP POP POP ISZERO DUP1 ISZERO PUSH2 0x4363 JUMPI RETURNDATASIZE PUSH1 0x0 DUP1 RETURNDATACOPY RETURNDATASIZE PUSH1 0x0 PUSH2 0x4360 PUSH2 0x607A JUMP JUMPDEST POP POP JUMPDEST POP POP POP POP PUSH1 0x40 MLOAD RETURNDATASIZE PUSH1 0x20 DUP2 LT ISZERO PUSH2 0x4382 JUMPI PUSH1 0x0 DUP1 PUSH2 0x437F PUSH2 0x607A JUMP JUMPDEST POP POP JUMPDEST DUP2 ADD SWAP1 DUP1 DUP1 MLOAD SWAP11 SWAP10 POP POP POP POP POP POP POP POP POP POP JUMP JUMPDEST PUSH1 0x0 PUSH2 0x43A0 PUSH2 0x4D95 JUMP JUMPDEST PUSH1 0x1 PUSH1 0x1 PUSH1 0xA0 SHL SUB AND PUSH4 0xD37C4D8B DUP5 DUP5 PUSH1 0x40 MLOAD PUSH1 0x1 PUSH1 0x1 PUSH1 0xE0 SHL SUB NOT PUSH1 0xE0 DUP6 SWAP1 SHL AND DUP2 MSTORE PUSH1 0x1 PUSH1 0x1 PUSH1 0xA0 SHL SUB SWAP1 SWAP3 AND PUSH1 0x4 DUP4 ADD MSTORE PUSH1 0x24 DUP3 ADD MSTORE PUSH1 0x44 ADD PUSH1 0x20 PUSH1 0x40 MLOAD DUP1 DUP4 SUB DUP2 DUP7 DUP1 PUSH2 0x43EF PUSH2 0x6140 JUMP JUMPDEST ISZERO DUP1 ISZERO PUSH2 0x4404 JUMPI PUSH1 0x0 DUP1 PUSH2 0x4401 PUSH2 0x607A JUMP JUMPDEST POP POP JUMPDEST POP GAS PUSH2 0x440E PUSH2 0x618C JUMP JUMPDEST POP POP POP POP POP ISZERO DUP1 ISZERO PUSH2 0x442D JUMPI RETURNDATASIZE PUSH1 0x0 DUP1 RETURNDATACOPY RETURNDATASIZE PUSH1 0x0 PUSH2 0x442A PUSH2 0x607A JUMP JUMPDEST POP POP JUMPDEST POP POP POP POP PUSH1 0x40 MLOAD RETURNDATASIZE PUSH1 0x20 DUP2 LT ISZERO PUSH2 0x444C JUMPI PUSH1 0x0 DUP1 PUSH2 0x4449 PUSH2 0x607A JUMP JUMPDEST POP POP JUMPDEST DUP2 ADD SWAP1 DUP1 DUP1 MLOAD SWAP7 SWAP6 POP POP POP POP POP POP JUMP JUMPDEST PUSH1 0x0 PUSH2 0x4466 PUSH2 0x4D95 JUMP JUMPDEST PUSH1 0x1 PUSH1 0x1 PUSH1 0xA0 SHL SUB AND PUSH4 0x7B1001B7 DUP4 PUSH1 0x1 PUSH1 0x40 MLOAD PUSH1 0x1 PUSH1 0x1 PUSH1 0xE0 SHL SUB NOT PUSH1 0xE0 DUP6 SWAP1 SHL AND DUP2 MSTORE PUSH1 0x4 DUP2 ADD SWAP3 SWAP1 SWAP3 MSTORE ISZERO ISZERO PUSH1 0x24 DUP3 ADD MSTORE PUSH1 0x44 ADD PUSH1 0x20 PUSH1 0x40 MLOAD DUP1 DUP4 SUB DUP2 DUP7 DUP1 PUSH2 0xFDE PUSH2 0x6140 JUMP JUMPDEST PUSH1 0x0 PUSH1 0x6 PUSH2 0xF78 PUSH2 0x60E5 JUMP JUMPDEST PUSH1 0x0 PUSH2 0x44C6 PUSH2 0x4D95 JUMP JUMPDEST PUSH1 0x1 PUSH1 0x1 PUSH1 0xA0 SHL SUB AND PUSH4 0xDBF63340 PUSH1 0x40 MLOAD DUP2 PUSH4 0xFFFFFFFF AND PUSH1 0xE0 SHL DUP2 MSTORE PUSH1 0x4 ADD PUSH1 0x20 PUSH1 0x40 MLOAD DUP1 DUP4 SUB DUP2 DUP7 DUP1 PUSH2 0x26A8 PUSH2 0x6140 JUMP JUMPDEST PUSH1 0x0 DUP1 PUSH1 0x7 PUSH2 0x4506 PUSH2 0x60E5 JUMP JUMPDEST SWAP1 PUSH2 0x100 EXP SWAP1 DIV PUSH1 0x1 PUSH1 0x1 PUSH1 0xA0 SHL SUB AND PUSH1 0x1 PUSH1 0x1 PUSH1 0xA0 SHL SUB AND PUSH4 0xDD62ED3E DUP5 DUP5 PUSH1 0x40 MLOAD PUSH1 0x1 PUSH1 0x1 PUSH1 0xE0 SHL SUB NOT PUSH1 0xE0 DUP6 SWAP1 SHL AND DUP2 MSTORE PUSH1 0x1 PUSH1 0x1 PUSH1 0xA0 SHL SUB SWAP3 DUP4 AND PUSH1 0x4 DUP3 ADD MSTORE SWAP2 AND PUSH1 0x24 DUP3 ADD MSTORE PUSH1 0x44 ADD PUSH1 0x20 PUSH1 0x40 MLOAD DUP1 DUP4 SUB DUP2 DUP7 DUP1 PUSH2 0x43EF PUSH2 0x6140 JUMP JUMPDEST PUSH2 0x456F PUSH2 0x521D JUMP JUMPDEST PUSH1 0x1 PUSH1 0x1 PUSH1 0xA0 SHL SUB AND GAS PUSH2 0x4581 PUSH2 0x62FE JUMP JUMPDEST PUSH1 0x1 PUSH1 0x1 PUSH1 0xA0 SHL SUB AND EQ PUSH2 0x45D2 JUMPI PUSH1 0x40 MLOAD PUSH3 0x461BCD PUSH1 0xE5 SHL DUP2 MSTORE PUSH1 0x20 PUSH1 0x4 DUP3 ADD MSTORE PUSH1 0x1E PUSH1 0x24 DUP3 ADD MSTORE PUSH1 0x0 DUP1 MLOAD PUSH1 0x20 PUSH2 0x6453 DUP4 CODECOPY DUP2 MLOAD SWAP2 MSTORE PUSH1 0x44 DUP3 ADD MSTORE PUSH1 0x64 ADD PUSH1 0x40 MLOAD DUP1 SWAP2 SUB SWAP1 PUSH2 0x45CF PUSH2 0x607A JUMP JUMPDEST POP POP JUMPDEST PUSH1 0x0 PUSH1 0x4 PUSH2 0x45DE PUSH2 0x60E5 JUMP JUMPDEST SWAP1 PUSH2 0x100 EXP SWAP1 DIV PUSH1 0x1 PUSH1 0x1 PUSH1 0xA0 SHL SUB AND PUSH1 0x1 PUSH1 0x1 PUSH1 0xA0 SHL SUB AND PUSH4 0x907DFF97 DUP4 DUP4 PUSH1 0x40 MLOAD PUSH1 0x20 ADD DUP1 DUP4 DUP2 MSTORE PUSH1 0x20 ADD DUP3 DUP2 MSTORE PUSH1 0x20 ADD SWAP3 POP POP POP PUSH1 0x40 MLOAD PUSH1 0x20 DUP2 DUP4 SUB SUB DUP2 MSTORE SWAP1 PUSH1 0x40 MSTORE PUSH1 0x2 PUSH1 0x40 MLOAD DUP1 PUSH1 0x29 PUSH2 0x659D DUP3 CODECOPY PUSH1 0x29 ADD SWAP1 POP PUSH1 0x40 MLOAD DUP1 SWAP2 SUB SWAP1 KECCAK256 DUP8 PUSH1 0x0 DUP1 PUSH1 0x40 MLOAD DUP8 PUSH4 0xFFFFFFFF AND PUSH1 0xE0 SHL DUP2 MSTORE PUSH1 0x4 ADD DUP1 DUP1 PUSH1 0x20 ADD DUP8 DUP2 MSTORE PUSH1 0x20 ADD DUP7 DUP2 MSTORE PUSH1 0x20 ADD DUP6 DUP2 MSTORE PUSH1 0x20 ADD DUP5 PUSH1 0x0 SHL DUP2 MSTORE PUSH1 0x20 ADD DUP4 PUSH1 0x0 SHL DUP2 MSTORE PUSH1 0x20 ADD DUP3 DUP2 SUB DUP3 MSTORE DUP9 DUP2 DUP2 MLOAD DUP2 MSTORE PUSH1 0x20 ADD SWAP2 POP DUP1 MLOAD PUSH1 0x20 SWAP1 SWAP2 ADD SWAP1 DUP1 DUP4 DUP4 PUSH1 0x0 DUP4 ISZERO PUSH2 0x2FE5 JUMPI DUP1 DUP3 ADD MLOAD DUP4 DUP3 ADD MSTORE PUSH1 0x20 ADD PUSH2 0x2FCD JUMP JUMPDEST PUSH1 0x18 DUP2 JUMP JUMPDEST PUSH1 0x0 PUSH2 0x46BF PUSH2 0x4F94 JUMP JUMPDEST PUSH1 0x1 PUSH1 0x1 PUSH1 0xA0 SHL SUB AND PUSH4 0x86DABD1 PUSH1 0x40 MLOAD DUP2 PUSH4 0xFFFFFFFF AND PUSH1 0xE0 SHL DUP2 MSTORE PUSH1 0x4 ADD PUSH1 0x0 PUSH1 0x40 MLOAD DUP1 DUP4 SUB DUP2 DUP7 DUP1 PUSH2 0x46F2 PUSH2 0x6140 JUMP JUMPDEST ISZERO DUP1 ISZERO PUSH2 0x4707 JUMPI PUSH1 0x0 DUP1 PUSH2 0x4704 PUSH2 0x607A JUMP JUMPDEST POP POP JUMPDEST POP GAS PUSH2 0x4711 PUSH2 0x618C JUMP JUMPDEST POP POP POP POP POP ISZERO DUP1 ISZERO PUSH2 0x4730 JUMPI RETURNDATASIZE PUSH1 0x0 DUP1 RETURNDATACOPY RETURNDATASIZE PUSH1 0x0 PUSH2 0x472D PUSH2 0x607A JUMP JUMPDEST POP POP JUMPDEST POP POP POP POP PUSH2 0x473C PUSH2 0x4DDB JUMP JUMPDEST PUSH1 0x0 DUP1 PUSH2 0x4747 PUSH2 0x4D95 JUMP JUMPDEST PUSH1 0x1 PUSH1 0x1 PUSH1 0xA0 SHL SUB AND PUSH4 0xA63C4DF4 DUP7 DUP7 PUSH1 0x0 PUSH1 0x6 PUSH2 0x4763 PUSH2 0x60E5 JUMP JUMPDEST SWAP1 PUSH2 0x100 EXP SWAP1 DIV PUSH1 0x1 PUSH1 0x1 PUSH1 0xA0 SHL SUB AND PUSH1 0x40 MLOAD PUSH1 0x1 PUSH1 0x1 PUSH1 0xE0 SHL SUB NOT PUSH1 0xE0 DUP7 SWAP1 SHL AND DUP2 MSTORE PUSH1 0x1 PUSH1 0x1 PUSH1 0xA0 SHL SUB SWAP4 DUP5 AND PUSH1 0x4 DUP3 ADD MSTORE PUSH1 0x24 DUP2 ADD SWAP3 SWAP1 SWAP3 MSTORE SWAP1 SWAP2 AND PUSH1 0x44 DUP3 ADD MSTORE PUSH1 0x64 ADD PUSH1 0x40 DUP1 MLOAD DUP1 DUP4 SUB DUP2 PUSH1 0x0 DUP8 DUP1 PUSH2 0x47BE PUSH2 0x6140 JUMP JUMPDEST ISZERO DUP1 ISZERO PUSH2 0x47D3 JUMPI PUSH1 0x0 DUP1 PUSH2 0x47D0 PUSH2 0x607A JUMP JUMPDEST POP POP JUMPDEST POP GAS PUSH2 0x47DD PUSH2 0x6245 JUMP JUMPDEST POP POP POP POP POP POP ISZERO DUP1 ISZERO PUSH2 0x47FD JUMPI RETURNDATASIZE PUSH1 0x0 DUP1 RETURNDATACOPY RETURNDATASIZE PUSH1 0x0 PUSH2 0x47FA PUSH2 0x607A JUMP JUMPDEST POP POP JUMPDEST POP POP POP POP PUSH1 0x40 MLOAD RETURNDATASIZE PUSH1 0x40 DUP2 LT ISZERO PUSH2 0x481C JUMPI PUSH1 0x0 DUP1 PUSH2 0x4819 PUSH2 0x607A JUMP JUMPDEST POP POP JUMPDEST DUP2 ADD SWAP1 DUP1 DUP1 MLOAD SWAP3 SWAP2 SWAP1 PUSH1 0x20 ADD DUP1 MLOAD SWAP4 SWAP6 POP SWAP3 SWAP4 POP PUSH2 0x485D SWAP3 POP DUP8 SWAP2 POP DUP5 SWAP1 POP DUP4 PUSH1 0x0 PUSH1 0x6 PUSH2 0x4848 PUSH2 0x60E5 JUMP JUMPDEST SWAP1 PUSH2 0x100 EXP SWAP1 DIV PUSH1 0x1 PUSH1 0x1 PUSH1 0xA0 SHL SUB AND PUSH2 0x5A9D JUMP JUMPDEST PUSH2 0x4883 DUP6 PUSH1 0x0 PUSH1 0x6 PUSH2 0x486D PUSH2 0x60E5 JUMP JUMPDEST SWAP1 PUSH2 0x100 EXP SWAP1 DIV PUSH1 0x1 PUSH1 0x1 PUSH1 0xA0 SHL SUB AND DUP5 PUSH2 0x59C3 JUMP JUMPDEST SWAP6 SWAP5 POP POP POP POP POP JUMP JUMPDEST PUSH2 0x4894 PUSH2 0x4F94 JUMP JUMPDEST PUSH1 0x1 PUSH1 0x1 PUSH1 0xA0 SHL SUB AND PUSH4 0x7C312541 PUSH1 0x40 MLOAD DUP2 PUSH4 0xFFFFFFFF AND PUSH1 0xE0 SHL DUP2 MSTORE PUSH1 0x4 ADD PUSH1 0x0 PUSH1 0x40 MLOAD DUP1 DUP4 SUB DUP2 DUP7 DUP1 PUSH2 0x48C7 PUSH2 0x6140 JUMP JUMPDEST ISZERO DUP1 ISZERO PUSH2 0x48DC JUMPI PUSH1 0x0 DUP1 PUSH2 0x48D9 PUSH2 0x607A JUMP JUMPDEST POP POP JUMPDEST POP GAS PUSH2 0x48E6 PUSH2 0x618C JUMP JUMPDEST POP POP POP POP POP ISZERO DUP1 ISZERO PUSH2 0x4905 JUMPI RETURNDATASIZE PUSH1 0x0 DUP1 RETURNDATACOPY RETURNDATASIZE PUSH1 0x0 PUSH2 0x4902 PUSH2 0x607A JUMP JUMPDEST POP POP JUMPDEST POP POP POP POP PUSH2 0x4911 PUSH2 0x4DDB JUMP JUMPDEST PUSH2 0x4919 PUSH2 0x4D95 JUMP JUMPDEST PUSH1 0x1 PUSH1 0x1 PUSH1 0xA0 SHL SUB AND PUSH4 0x44EC6B62 DUP4 PUSH1 0x0 PUSH1 0x6 PUSH2 0x40A2 PUSH2 0x60E5 JUMP JUMPDEST PUSH1 0x0 PUSH1 0x7 PUSH2 0xF78 PUSH2 0x60E5 JUMP JUMPDEST PUSH1 0x0 PUSH1 0x4 PUSH2 0xF78 PUSH2 0x60E5 JUMP JUMPDEST PUSH2 0x4954 PUSH2 0x56AF JUMP JUMPDEST PUSH1 0x1 PUSH1 0x1 PUSH1 0xA0 SHL SUB AND GAS PUSH2 0x4966 PUSH2 0x62FE JUMP JUMPDEST PUSH1 0x1 PUSH1 0x1 PUSH1 0xA0 SHL SUB AND EQ PUSH2 0x49B4 JUMPI PUSH1 0x40 MLOAD PUSH3 0x461BCD PUSH1 0xE5 SHL DUP2 MSTORE PUSH1 0x4 ADD DUP1 DUP1 PUSH1 0x20 ADD DUP3 DUP2 SUB DUP3 MSTORE PUSH1 0x34 DUP2 MSTORE PUSH1 0x20 ADD DUP1 PUSH2 0x65C6 PUSH1 0x34 SWAP2 CODECOPY PUSH1 0x40 ADD SWAP2 POP POP PUSH1 0x40 MLOAD DUP1 SWAP2 SUB SWAP1 PUSH2 0x49B1 PUSH2 0x607A JUMP JUMPDEST POP POP JUMPDEST PUSH1 0x0 PUSH1 0x7 PUSH2 0x49C0 PUSH2 0x60E5 JUMP JUMPDEST PUSH1 0x1 PUSH1 0x1 PUSH1 0xA0 SHL SUB PUSH2 0x100 SWAP3 SWAP1 SWAP3 EXP SWAP1 DIV AND PUSH4 0xB46310F6 DUP4 PUSH2 0x4AB5 DUP5 PUSH1 0x0 PUSH1 0x7 PUSH2 0x49E8 PUSH2 0x60E5 JUMP JUMPDEST SWAP1 PUSH2 0x100 EXP SWAP1 DIV PUSH1 0x1 PUSH1 0x1 PUSH1 0xA0 SHL SUB AND PUSH1 0x1 PUSH1 0x1 PUSH1 0xA0 SHL SUB AND PUSH4 0x70A08231 DUP9 PUSH1 0x40 MLOAD PUSH1 0x1 PUSH1 0x1 PUSH1 0xE0 SHL SUB NOT PUSH1 0xE0 DUP5 SWAP1 SHL AND DUP2 MSTORE PUSH1 0x1 PUSH1 0x1 PUSH1 0xA0 SHL SUB SWAP1 SWAP2 AND PUSH1 0x4 DUP3 ADD MSTORE PUSH1 0x24 ADD PUSH1 0x20 PUSH1 0x40 MLOAD DUP1 DUP4 SUB DUP2 DUP7 DUP1 PUSH2 0x4A41 PUSH2 0x6140 JUMP JUMPDEST ISZERO DUP1 ISZERO PUSH2 0x4A56 JUMPI PUSH1 0x0 DUP1 PUSH2 0x4A53 PUSH2 0x607A JUMP JUMPDEST POP POP JUMPDEST POP GAS PUSH2 0x4A60 PUSH2 0x618C JUMP JUMPDEST POP POP POP POP POP ISZERO DUP1 ISZERO PUSH2 0x4A7F JUMPI RETURNDATASIZE PUSH1 0x0 DUP1 RETURNDATACOPY RETURNDATASIZE PUSH1 0x0 PUSH2 0x4A7C PUSH2 0x607A JUMP JUMPDEST POP POP JUMPDEST POP POP POP POP PUSH1 0x40 MLOAD RETURNDATASIZE PUSH1 0x20 DUP2 LT ISZERO PUSH2 0x4A9E JUMPI PUSH1 0x0 DUP1 PUSH2 0x4A9B PUSH2 0x607A JUMP JUMPDEST POP POP JUMPDEST DUP2 ADD SWAP1 DUP1 DUP1 MLOAD SWAP4 SWAP3 POP POP PUSH4 0xFFFFFFFF PUSH2 0x506A AND SWAP1 POP JUMP JUMPDEST PUSH1 0x40 MLOAD PUSH1 0x1 PUSH1 0x1 PUSH1 0xE0 SHL SUB NOT PUSH1 0xE0 DUP6 SWAP1 SHL AND DUP2 MSTORE PUSH1 0x1 PUSH1 0x1 PUSH1 0xA0 SHL SUB SWAP1 SWAP3 AND PUSH1 0x4 DUP4 ADD MSTORE PUSH1 0x24 DUP3 ADD MSTORE PUSH1 0x44 ADD PUSH1 0x0 PUSH1 0x40 MLOAD DUP1 DUP4 SUB DUP2 PUSH1 0x0 DUP8 DUP1 PUSH2 0x4AF6 PUSH2 0x6140 JUMP JUMPDEST ISZERO DUP1 ISZERO PUSH2 0x4B0B JUMPI PUSH1 0x0 DUP1 PUSH2 0x4B08 PUSH2 0x607A JUMP JUMPDEST POP POP JUMPDEST POP GAS PUSH2 0x4B15 PUSH2 0x6245 JUMP JUMPDEST POP POP POP POP POP POP ISZERO DUP1 ISZERO PUSH2 0x4B35 JUMPI RETURNDATASIZE PUSH1 0x0 DUP1 RETURNDATACOPY RETURNDATASIZE PUSH1 0x0 PUSH2 0x4B32 PUSH2 0x607A JUMP JUMPDEST POP POP JUMPDEST POP POP POP POP PUSH2 0x4B45 DUP3 PUSH1 0x0 DUP4 PUSH2 0x5138 JUMP JUMPDEST PUSH2 0x2AE4 DUP2 PUSH1 0xA PUSH2 0x4B53 PUSH2 0x60E5 JUMP JUMPDEST SWAP1 PUSH4 0xFFFFFFFF PUSH2 0x506A AND JUMP JUMPDEST PUSH1 0x0 DUP4 DUP3 PUSH2 0x4B6B PUSH2 0x4F94 JUMP JUMPDEST PUSH1 0x1 PUSH1 0x1 PUSH1 0xA0 SHL SUB AND PUSH4 0x7118D431 PUSH1 0x40 MLOAD DUP2 PUSH4 0xFFFFFFFF AND PUSH1 0xE0 SHL DUP2 MSTORE PUSH1 0x4 ADD PUSH1 0x0 PUSH1 0x40 MLOAD DUP1 DUP4 SUB DUP2 DUP7 DUP1 PUSH2 0x4B9E PUSH2 0x6140 JUMP JUMPDEST ISZERO DUP1 ISZERO PUSH2 0x4BB3 JUMPI PUSH1 0x0 DUP1 PUSH2 0x4BB0 PUSH2 0x607A JUMP JUMPDEST POP POP JUMPDEST POP GAS PUSH2 0x4BBD PUSH2 0x618C JUMP JUMPDEST POP POP POP POP POP ISZERO DUP1 ISZERO PUSH2 0x4BDC JUMPI RETURNDATASIZE PUSH1 0x0 DUP1 RETURNDATACOPY RETURNDATASIZE PUSH1 0x0 PUSH2 0x4BD9 PUSH2 0x607A JUMP JUMPDEST POP POP JUMPDEST POP POP POP POP PUSH2 0x4BE8 PUSH2 0x4F94 JUMP JUMPDEST PUSH1 0x1 PUSH1 0x1 PUSH1 0xA0 SHL SUB AND PUSH4 0x6132EBA4 DUP4 DUP4 PUSH1 0x40 MLOAD PUSH1 0x1 PUSH1 0x1 PUSH1 0xE0 SHL SUB NOT PUSH1 0xE0 DUP6 SWAP1 SHL AND DUP2 MSTORE PUSH1 0x4 DUP2 ADD SWAP3 SWAP1 SWAP3 MSTORE PUSH1 0x24 DUP3 ADD MSTORE PUSH1 0x44 ADD PUSH1 0x0 PUSH1 0x40 MLOAD DUP1 DUP4 SUB DUP2 DUP7 DUP1 PUSH2 0x4C2F PUSH2 0x6140 JUMP JUMPDEST ISZERO DUP1 ISZERO PUSH2 0x4C44 JUMPI PUSH1 0x0 DUP1 PUSH2 0x4C41 PUSH2 0x607A JUMP JUMPDEST POP POP JUMPDEST POP GAS PUSH2 0x4C4E PUSH2 0x618C JUMP JUMPDEST POP POP POP POP POP ISZERO DUP1 ISZERO PUSH2 0x4C6D JUMPI RETURNDATASIZE PUSH1 0x0 DUP1 RETURNDATACOPY RETURNDATASIZE PUSH1 0x0 PUSH2 0x4C6A PUSH2 0x607A JUMP JUMPDEST POP POP JUMPDEST POP POP POP POP PUSH2 0x4C79 PUSH2 0x4DDB JUMP JUMPDEST PUSH2 0x4C81 PUSH2 0x521D JUMP JUMPDEST PUSH1 0x1 PUSH1 0x1 PUSH1 0xA0 SHL SUB AND PUSH4 0xA1E187D PUSH1 0x0 PUSH1 0x6 PUSH2 0x4C9B PUSH2 0x60E5 JUMP JUMPDEST SWAP1 PUSH2 0x100 EXP SWAP1 DIV PUSH1 0x1 PUSH1 0x1 PUSH1 0xA0 SHL SUB AND DUP9 DUP9 DUP9 PUSH1 0x6 PUSH1 0x0 SWAP1 PUSH2 0x4CBB PUSH2 0x60E5 JUMP JUMPDEST SWAP1 PUSH2 0x100 EXP SWAP1 DIV PUSH1 0x1 PUSH1 0x1 PUSH1 0xA0 SHL SUB AND PUSH1 0x40 MLOAD PUSH1 0x1 PUSH1 0x1 PUSH1 0xE0 SHL SUB NOT PUSH1 0xE0 DUP9 SWAP1 SHL AND DUP2 MSTORE PUSH1 0x1 PUSH1 0x1 PUSH1 0xA0 SHL SUB SWAP6 DUP7 AND PUSH1 0x4 DUP3 ADD MSTORE PUSH1 0x24 DUP2 ADD SWAP5 SWAP1 SWAP5 MSTORE PUSH1 0x44 DUP5 ADD SWAP3 SWAP1 SWAP3 MSTORE PUSH1 0x64 DUP4 ADD MSTORE SWAP1 SWAP2 AND PUSH1 0x84 DUP3 ADD MSTORE PUSH1 0xA4 ADD PUSH1 0x20 PUSH1 0x40 MLOAD DUP1 DUP4 SUB DUP2 PUSH1 0x0 DUP8 DUP1 PUSH2 0x4D24 PUSH2 0x6140 JUMP JUMPDEST ISZERO DUP1 ISZERO PUSH2 0x4D39 JUMPI PUSH1 0x0 DUP1 PUSH2 0x4D36 PUSH2 0x607A JUMP JUMPDEST POP POP JUMPDEST POP GAS PUSH2 0x4D43 PUSH2 0x6245 JUMP JUMPDEST POP POP POP POP POP POP ISZERO DUP1 ISZERO PUSH2 0x4D63 JUMPI RETURNDATASIZE PUSH1 0x0 DUP1 RETURNDATACOPY RETURNDATASIZE PUSH1 0x0 PUSH2 0x4D60 PUSH2 0x607A JUMP JUMPDEST POP POP JUMPDEST POP POP POP POP PUSH1 0x40 MLOAD RETURNDATASIZE PUSH1 0x20 DUP2 LT ISZERO PUSH2 0x4D82 JUMPI PUSH1 0x0 DUP1 PUSH2 0x4D7F PUSH2 0x607A JUMP JUMPDEST POP POP JUMPDEST DUP2 ADD SWAP1 DUP1 DUP1 MLOAD SWAP10 SWAP9 POP POP POP POP POP POP POP POP POP JUMP JUMPDEST PUSH1 0x0 PUSH2 0x4DD6 PUSH6 0x24B9B9BAB2B9 PUSH1 0xD1 SHL PUSH1 0x40 MLOAD PUSH1 0x40 DUP1 DUP3 ADD SWAP1 MSTORE PUSH1 0x16 DUP2 MSTORE PUSH22 0x4D697373696E67204973737565722061646472657373 PUSH1 0x50 SHL PUSH1 0x20 DUP3 ADD MSTORE PUSH2 0x5C1D JUMP JUMPDEST SWAP1 POP SWAP1 JUMP JUMPDEST PUSH1 0x0 PUSH1 0x4 PUSH2 0x4DE7 PUSH2 0x60E5 JUMP JUMPDEST SWAP1 PUSH2 0x100 EXP SWAP1 DIV PUSH1 0x1 PUSH1 0x1 PUSH1 0xA0 SHL SUB AND PUSH1 0x1 PUSH1 0x1 PUSH1 0xA0 SHL SUB AND GAS PUSH2 0x4E09 PUSH2 0x62FE JUMP JUMPDEST PUSH1 0x1 PUSH1 0x1 PUSH1 0xA0 SHL SUB AND EQ ISZERO DUP1 ISZERO PUSH2 0x4E55 JUMPI POP PUSH1 0x0 PUSH1 0x5 PUSH2 0x4E27 PUSH2 0x60E5 JUMP JUMPDEST SWAP1 PUSH2 0x100 EXP SWAP1 DIV PUSH1 0x1 PUSH1 0x1 PUSH1 0xA0 SHL SUB AND PUSH1 0x1 PUSH1 0x1 PUSH1 0xA0 SHL SUB AND GAS PUSH2 0x4E49 PUSH2 0x62FE JUMP JUMPDEST PUSH1 0x1 PUSH1 0x1 PUSH1 0xA0 SHL SUB AND EQ ISZERO JUMPDEST DUP1 ISZERO PUSH2 0x4E96 JUMPI POP GAS PUSH2 0x4E65 PUSH2 0x62FE JUMP JUMPDEST PUSH1 0x1 PUSH1 0x1 PUSH1 0xA0 SHL SUB AND PUSH1 0x0 PUSH1 0x6 PUSH2 0x4E7A PUSH2 0x60E5 JUMP JUMPDEST SWAP1 PUSH2 0x100 EXP SWAP1 DIV PUSH1 0x1 PUSH1 0x1 PUSH1 0xA0 SHL SUB AND PUSH1 0x1 PUSH1 0x1 PUSH1 0xA0 SHL SUB AND EQ ISZERO JUMPDEST ISZERO PUSH2 0x399A JUMPI GAS PUSH2 0x4EA4 PUSH2 0x62FE JUMP JUMPDEST PUSH1 0x6 PUSH1 0x1 DUP2 PUSH2 0x3395 PUSH2 0x60E5 JUMP JUMPDEST PUSH1 0x0 PUSH1 0x4 PUSH2 0x4EBD PUSH2 0x60E5 JUMP JUMPDEST SWAP1 PUSH2 0x100 EXP SWAP1 DIV PUSH1 0x1 PUSH1 0x1 PUSH1 0xA0 SHL SUB AND PUSH1 0x1 PUSH1 0x1 PUSH1 0xA0 SHL SUB AND PUSH4 0x907DFF97 DUP3 PUSH1 0x40 MLOAD PUSH1 0x20 ADD DUP1 DUP3 DUP2 MSTORE PUSH1 0x20 ADD SWAP2 POP POP PUSH1 0x40 MLOAD PUSH1 0x20 DUP2 DUP4 SUB SUB DUP2 MSTORE SWAP1 PUSH1 0x40 MSTORE PUSH1 0x3 PUSH1 0x40 MLOAD DUP1 PUSH1 0x21 PUSH2 0x6506 DUP3 CODECOPY PUSH1 0x21 ADD SWAP1 POP PUSH1 0x40 MLOAD DUP1 SWAP2 SUB SWAP1 KECCAK256 PUSH2 0x4F1E DUP9 PUSH2 0x56E4 JUMP JUMPDEST PUSH2 0x4F27 DUP9 PUSH2 0x56E4 JUMP JUMPDEST PUSH1 0x0 PUSH1 0x40 MLOAD DUP8 PUSH4 0xFFFFFFFF AND PUSH1 0xE0 SHL DUP2 MSTORE PUSH1 0x4 ADD DUP1 DUP1 PUSH1 0x20 ADD DUP8 DUP2 MSTORE PUSH1 0x20 ADD DUP7 DUP2 MSTORE PUSH1 0x20 ADD DUP6 DUP2 MSTORE PUSH1 0x20 ADD DUP5 DUP2 MSTORE PUSH1 0x20 ADD DUP4 PUSH1 0x0 SHL DUP2 MSTORE PUSH1 0x20 ADD DUP3 DUP2 SUB DUP3 MSTORE DUP9 DUP2 DUP2 MLOAD DUP2 MSTORE PUSH1 0x20 ADD SWAP2 POP DUP1 MLOAD PUSH1 0x20 SWAP1 SWAP2 ADD SWAP1 DUP1 DUP4 DUP4 PUSH1 0x0 DUP4 ISZERO PUSH2 0x2FE5 JUMPI DUP1 DUP3 ADD MLOAD DUP4 DUP3 ADD MSTORE PUSH1 0x20 ADD PUSH2 0x2FCD JUMP JUMPDEST PUSH1 0x0 PUSH2 0x4DD6 PUSH12 0x53797374656D537461747573 PUSH1 0xA0 SHL PUSH1 0x40 MLOAD PUSH1 0x40 DUP1 DUP3 ADD SWAP1 MSTORE PUSH1 0x1C DUP2 MSTORE PUSH32 0x4D697373696E672053797374656D537461747573206164647265737300000000 PUSH1 0x20 DUP3 ADD MSTORE PUSH2 0x5C1D JUMP JUMPDEST PUSH1 0x0 PUSH2 0x4DD6 PUSH19 0x2932BBB0B93239A234B9BA3934B13ABA34B7B7 PUSH1 0x69 SHL PUSH1 0x40 MLOAD PUSH1 0x60 DUP2 ADD PUSH1 0x40 MSTORE PUSH1 0x23 DUP1 DUP3 MSTORE PUSH2 0x6553 PUSH1 0x20 DUP4 ADD CODECOPY PUSH2 0x5C1D JUMP JUMPDEST PUSH1 0x0 PUSH2 0x4DD6 PUSH14 0x537570706C795363686564756C65 PUSH1 0x90 SHL PUSH1 0x40 MLOAD PUSH1 0x40 DUP1 DUP3 ADD SWAP1 MSTORE PUSH1 0x1E DUP2 MSTORE PUSH32 0x4D697373696E6720537570706C795363686564756C6520616464726573730000 PUSH1 0x20 DUP3 ADD MSTORE PUSH2 0x5C1D JUMP JUMPDEST PUSH1 0x0 DUP3 DUP3 GT ISZERO PUSH2 0x50C9 JUMPI PUSH1 0x40 MLOAD PUSH3 0x461BCD PUSH1 0xE5 SHL DUP2 MSTORE PUSH1 0x20 PUSH1 0x4 DUP3 ADD MSTORE PUSH1 0x1E PUSH1 0x24 DUP3 ADD MSTORE PUSH32 0x536166654D6174683A207375627472616374696F6E206F766572666C6F770000 PUSH1 0x44 DUP3 ADD MSTORE PUSH1 0x64 ADD PUSH1 0x40 MLOAD DUP1 SWAP2 SUB SWAP1 PUSH2 0x50C6 PUSH2 0x607A JUMP JUMPDEST POP POP JUMPDEST POP SWAP1 SUB SWAP1 JUMP JUMPDEST PUSH1 0x0 DUP3 DUP3 ADD DUP4 DUP2 LT ISZERO PUSH2 0x5131 JUMPI PUSH1 0x40 MLOAD PUSH3 0x461BCD PUSH1 0xE5 SHL DUP2 MSTORE PUSH1 0x20 PUSH1 0x4 DUP3 ADD MSTORE PUSH1 0x1B PUSH1 0x24 DUP3 ADD MSTORE PUSH32 0x536166654D6174683A206164646974696F6E206F766572666C6F770000000000 PUSH1 0x44 DUP3 ADD MSTORE PUSH1 0x64 ADD PUSH1 0x40 MLOAD DUP1 SWAP2 SUB SWAP1 PUSH2 0x512E PUSH2 0x607A JUMP JUMPDEST POP POP JUMPDEST SWAP4 SWAP3 POP POP POP JUMP JUMPDEST PUSH1 0x0 PUSH1 0x4 PUSH2 0x5144 PUSH2 0x60E5 JUMP JUMPDEST SWAP1 PUSH2 0x100 EXP SWAP1 DIV PUSH1 0x1 PUSH1 0x1 PUSH1 0xA0 SHL SUB AND PUSH1 0x1 PUSH1 0x1 PUSH1 0xA0 SHL SUB AND PUSH4 0x907DFF97 DUP3 PUSH1 0x40 MLOAD PUSH1 0x20 ADD DUP1 DUP3 DUP2 MSTORE PUSH1 0x20 ADD SWAP2 POP POP PUSH1 0x40 MLOAD PUSH1 0x20 DUP2 DUP4 SUB SUB DUP2 MSTORE SWAP1 PUSH1 0x40 MSTORE PUSH1 0x3 PUSH1 0x40 MLOAD DUP1 PUSH1 0x21 PUSH2 0x662C DUP3 CODECOPY PUSH1 0x21 ADD SWAP1 POP PUSH1 0x40 MLOAD DUP1 SWAP2 SUB SWAP1 KECCAK256 PUSH2 0x4F1E DUP9 PUSH2 0x56E4 JUMP JUMPDEST PUSH1 0x0 DUP1 PUSH2 0x51B0 PUSH2 0x60E5 JUMP JUMPDEST SWAP1 PUSH2 0x100 EXP SWAP1 DIV PUSH1 0x1 PUSH1 0x1 PUSH1 0xA0 SHL SUB AND PUSH1 0x1 PUSH1 0x1 PUSH1 0xA0 SHL SUB AND GAS PUSH2 0x51D2 PUSH2 0x62FE JUMP JUMPDEST PUSH1 0x1 PUSH1 0x1 PUSH1 0xA0 SHL SUB AND EQ PUSH2 0x399A JUMPI PUSH1 0x40 MLOAD PUSH3 0x461BCD PUSH1 0xE5 SHL DUP2 MSTORE PUSH1 0x4 ADD DUP1 DUP1 PUSH1 0x20 ADD DUP3 DUP2 SUB DUP3 MSTORE PUSH1 0x2F DUP2 MSTORE PUSH1 0x20 ADD DUP1 PUSH2 0x64D7 PUSH1 0x2F SWAP2 CODECOPY PUSH1 0x40 ADD SWAP2 POP POP PUSH1 0x40 MLOAD DUP1 SWAP2 SUB SWAP1 PUSH2 0x2667 PUSH2 0x607A JUMP JUMPDEST PUSH1 0x0 PUSH2 0x4DD6 PUSH9 0x22BC31B430B733B2B9 PUSH1 0xB9 SHL PUSH1 0x40 MLOAD PUSH1 0x40 DUP1 DUP3 ADD SWAP1 MSTORE PUSH1 0x19 DUP2 MSTORE PUSH32 0x4D697373696E672045786368616E676572206164647265737300000000000000 PUSH1 0x20 DUP3 ADD MSTORE PUSH2 0x5C1D JUMP JUMPDEST PUSH1 0x0 DUP1 PUSH2 0x5273 PUSH2 0x5CE6 JUMP JUMPDEST PUSH1 0x1 PUSH1 0x1 PUSH1 0xA0 SHL SUB AND PUSH4 0x8B3F8088 DUP6 PUSH1 0x40 MLOAD PUSH1 0x1 PUSH1 0x1 PUSH1 0xE0 SHL SUB NOT PUSH1 0xE0 DUP5 SWAP1 SHL AND DUP2 MSTORE PUSH1 0x1 PUSH1 0x1 PUSH1 0xA0 SHL SUB SWAP1 SWAP2 AND PUSH1 0x4 DUP3 ADD MSTORE PUSH1 0x24 ADD PUSH1 0x40 DUP1 MLOAD DUP1 DUP4 SUB DUP2 DUP7 DUP1 PUSH2 0x52BB PUSH2 0x6140 JUMP JUMPDEST ISZERO DUP1 ISZERO PUSH2 0x52D0 JUMPI PUSH1 0x0 DUP1 PUSH2 0x52CD PUSH2 0x607A JUMP JUMPDEST POP POP JUMPDEST POP GAS PUSH2 0x52DA PUSH2 0x618C JUMP JUMPDEST POP POP POP POP POP ISZERO DUP1 ISZERO PUSH2 0x52F9 JUMPI RETURNDATASIZE PUSH1 0x0 DUP1 RETURNDATACOPY RETURNDATASIZE PUSH1 0x0 PUSH2 0x52F6 PUSH2 0x607A JUMP JUMPDEST POP POP JUMPDEST POP POP POP POP PUSH1 0x40 MLOAD RETURNDATASIZE PUSH1 0x40 DUP2 LT ISZERO PUSH2 0x5318 JUMPI PUSH1 0x0 DUP1 PUSH2 0x5315 PUSH2 0x607A JUMP JUMPDEST POP POP JUMPDEST DUP2 ADD SWAP1 DUP1 DUP1 MLOAD SWAP3 SWAP2 SWAP1 PUSH1 0x20 ADD DUP1 MLOAD POP SWAP3 SWAP4 POP POP DUP3 ISZERO SWAP2 POP PUSH2 0x11F7 SWAP1 POP JUMPI PUSH1 0x0 DUP1 PUSH2 0x5340 PUSH2 0x4D95 JUMP JUMPDEST PUSH1 0x1 PUSH1 0x1 PUSH1 0xA0 SHL SUB AND PUSH4 0x6BED0415 DUP8 PUSH1 0x0 PUSH1 0x7 PUSH2 0x535B PUSH2 0x60E5 JUMP JUMPDEST SWAP1 PUSH2 0x100 EXP SWAP1 DIV PUSH1 0x1 PUSH1 0x1 PUSH1 0xA0 SHL SUB AND PUSH1 0x1 PUSH1 0x1 PUSH1 0xA0 SHL SUB AND PUSH4 0x70A08231 DUP11 PUSH1 0x40 MLOAD PUSH1 0x1 PUSH1 0x1 PUSH1 0xE0 SHL SUB NOT PUSH1 0xE0 DUP5 SWAP1 SHL AND DUP2 MSTORE PUSH1 0x1 PUSH1 0x1 PUSH1 0xA0 SHL SUB SWAP1 SWAP2 AND PUSH1 0x4 DUP3 ADD MSTORE PUSH1 0x24 ADD PUSH1 0x20 PUSH1 0x40 MLOAD DUP1 DUP4 SUB DUP2 DUP7 DUP1 PUSH2 0x53B4 PUSH2 0x6140 JUMP JUMPDEST ISZERO DUP1 ISZERO PUSH2 0x53C9 JUMPI PUSH1 0x0 DUP1 PUSH2 0x53C6 PUSH2 0x607A JUMP JUMPDEST POP POP JUMPDEST POP GAS PUSH2 0x53D3 PUSH2 0x618C JUMP JUMPDEST POP POP POP POP POP ISZERO DUP1 ISZERO PUSH2 0x53F2 JUMPI RETURNDATASIZE PUSH1 0x0 DUP1 RETURNDATACOPY RETURNDATASIZE PUSH1 0x0 PUSH2 0x53EF PUSH2 0x607A JUMP JUMPDEST POP POP JUMPDEST POP POP POP POP PUSH1 0x40 MLOAD RETURNDATASIZE PUSH1 0x20 DUP2 LT ISZERO PUSH2 0x5411 JUMPI PUSH1 0x0 DUP1 PUSH2 0x540E PUSH2 0x607A JUMP JUMPDEST POP POP JUMPDEST DUP2 ADD SWAP1 DUP1 DUP1 MLOAD SWAP3 POP PUSH1 0x40 SWAP2 POP POP MLOAD PUSH1 0x1 PUSH1 0x1 PUSH1 0xE0 SHL SUB NOT PUSH1 0xE0 DUP6 SWAP1 SHL AND DUP2 MSTORE PUSH1 0x1 PUSH1 0x1 PUSH1 0xA0 SHL SUB SWAP1 SWAP3 AND PUSH1 0x4 DUP4 ADD MSTORE PUSH1 0x24 DUP3 ADD MSTORE PUSH1 0x44 ADD PUSH1 0x40 DUP1 MLOAD DUP1 DUP4 SUB DUP2 DUP7 DUP1 PUSH2 0x545A PUSH2 0x6140 JUMP JUMPDEST ISZERO DUP1 ISZERO PUSH2 0x546F JUMPI PUSH1 0x0 DUP1 PUSH2 0x546C PUSH2 0x607A JUMP JUMPDEST POP POP JUMPDEST POP GAS PUSH2 0x5479 PUSH2 0x618C JUMP JUMPDEST POP POP POP POP POP ISZERO DUP1 ISZERO PUSH2 0x5498 JUMPI RETURNDATASIZE PUSH1 0x0 DUP1 RETURNDATACOPY RETURNDATASIZE PUSH1 0x0 PUSH2 0x5495 PUSH2 0x607A JUMP JUMPDEST POP POP JUMPDEST POP POP POP POP PUSH1 0x40 MLOAD RETURNDATASIZE PUSH1 0x40 DUP2 LT ISZERO PUSH2 0x54B7 JUMPI PUSH1 0x0 DUP1 PUSH2 0x54B4 PUSH2 0x607A JUMP JUMPDEST POP POP JUMPDEST DUP2 ADD SWAP1 DUP1 DUP1 MLOAD SWAP3 SWAP2 SWAP1 PUSH1 0x20 ADD DUP1 MLOAD SWAP4 SWAP6 POP SWAP3 SWAP4 POP POP POP POP DUP2 DUP6 GT ISZERO PUSH2 0x5516 JUMPI PUSH1 0x40 MLOAD PUSH3 0x461BCD PUSH1 0xE5 SHL DUP2 MSTORE PUSH1 0x4 ADD DUP1 DUP1 PUSH1 0x20 ADD DUP3 DUP2 SUB DUP3 MSTORE PUSH1 0x26 DUP2 MSTORE PUSH1 0x20 ADD DUP1 PUSH2 0x64B1 PUSH1 0x26 SWAP2 CODECOPY PUSH1 0x40 ADD SWAP2 POP POP PUSH1 0x40 MLOAD DUP1 SWAP2 SUB SWAP1 PUSH2 0x5513 PUSH2 0x607A JUMP JUMPDEST POP POP JUMPDEST DUP1 ISZERO PUSH2 0x5571 JUMPI PUSH1 0x40 MLOAD PUSH3 0x461BCD PUSH1 0xE5 SHL DUP2 MSTORE PUSH1 0x20 PUSH1 0x4 DUP3 ADD MSTORE PUSH1 0x1E PUSH1 0x24 DUP3 ADD MSTORE PUSH32 0x412073796E7468206F7220534E58207261746520697320696E76616C69640000 PUSH1 0x44 DUP3 ADD MSTORE PUSH1 0x64 ADD PUSH1 0x40 MLOAD DUP1 SWAP2 SUB SWAP1 PUSH2 0x556E PUSH2 0x607A JUMP JUMPDEST POP POP JUMPDEST POP PUSH1 0x1 SWAP6 SWAP5 POP POP POP POP POP JUMP JUMPDEST PUSH1 0x0 DUP1 PUSH1 0x7 PUSH2 0x558A PUSH2 0x60E5 JUMP JUMPDEST PUSH1 0x1 PUSH1 0x1 PUSH1 0xA0 SHL SUB PUSH2 0x100 SWAP3 SWAP1 SWAP3 EXP SWAP1 DIV AND PUSH4 0xDA46098C DUP6 DUP8 PUSH2 0x5614 DUP7 PUSH1 0x0 PUSH1 0x7 PUSH2 0x55B3 PUSH2 0x60E5 JUMP JUMPDEST SWAP1 PUSH2 0x100 EXP SWAP1 DIV PUSH1 0x1 PUSH1 0x1 PUSH1 0xA0 SHL SUB AND PUSH1 0x1 PUSH1 0x1 PUSH1 0xA0 SHL SUB AND PUSH4 0xDD62ED3E DUP12 DUP14 PUSH1 0x40 MLOAD PUSH1 0x1 PUSH1 0x1 PUSH1 0xE0 SHL SUB NOT PUSH1 0xE0 DUP6 SWAP1 SHL AND DUP2 MSTORE PUSH1 0x1 PUSH1 0x1 PUSH1 0xA0 SHL SUB SWAP3 DUP4 AND PUSH1 0x4 DUP3 ADD MSTORE SWAP2 AND PUSH1 0x24 DUP3 ADD MSTORE PUSH1 0x44 ADD PUSH1 0x20 PUSH1 0x40 MLOAD DUP1 DUP4 SUB DUP2 DUP7 DUP1 PUSH2 0x4A41 PUSH2 0x6140 JUMP JUMPDEST PUSH1 0x40 MLOAD PUSH1 0x1 PUSH1 0x1 PUSH1 0xE0 SHL SUB NOT PUSH1 0xE0 DUP7 SWAP1 SHL AND DUP2 MSTORE PUSH1 0x1 PUSH1 0x1 PUSH1 0xA0 SHL SUB SWAP4 DUP5 AND PUSH1 0x4 DUP3 ADD MSTORE SWAP2 SWAP1 SWAP3 AND PUSH1 0x24 DUP3 ADD MSTORE PUSH1 0x44 DUP2 ADD SWAP2 SWAP1 SWAP2 MSTORE PUSH1 0x64 ADD PUSH1 0x0 PUSH1 0x40 MLOAD DUP1 DUP4 SUB DUP2 PUSH1 0x0 DUP8 DUP1 PUSH2 0x5661 PUSH2 0x6140 JUMP JUMPDEST ISZERO DUP1 ISZERO PUSH2 0x5676 JUMPI PUSH1 0x0 DUP1 PUSH2 0x5673 PUSH2 0x607A JUMP JUMPDEST POP POP JUMPDEST POP GAS PUSH2 0x5680 PUSH2 0x6245 JUMP JUMPDEST POP POP POP POP POP POP ISZERO DUP1 ISZERO PUSH2 0x56A0 JUMPI RETURNDATASIZE PUSH1 0x0 DUP1 RETURNDATACOPY RETURNDATASIZE PUSH1 0x0 PUSH2 0x569D PUSH2 0x607A JUMP JUMPDEST POP POP JUMPDEST POP POP POP POP PUSH2 0x4883 DUP5 DUP5 DUP5 PUSH2 0x5D36 JUMP JUMPDEST PUSH1 0x0 PUSH2 0x4DD6 PUSH16 0x14D958DBDB99185C9E51195C1BDCDA5D PUSH1 0x82 SHL PUSH1 0x40 MLOAD PUSH1 0x60 DUP2 ADD PUSH1 0x40 MSTORE PUSH1 0x2C DUP1 DUP3 MSTORE PUSH2 0x6527 PUSH1 0x20 DUP4 ADD CODECOPY PUSH2 0x5C1D JUMP JUMPDEST PUSH1 0x1 PUSH1 0x1 PUSH1 0xA0 SHL SUB AND SWAP1 JUMP JUMPDEST PUSH1 0x0 PUSH1 0x4 PUSH2 0x56FC PUSH2 0x60E5 JUMP JUMPDEST SWAP1 PUSH2 0x100 EXP SWAP1 DIV PUSH1 0x1 PUSH1 0x1 PUSH1 0xA0 SHL SUB AND PUSH1 0x1 PUSH1 0x1 PUSH1 0xA0 SHL SUB AND GAS PUSH2 0x571E PUSH2 0x62FE JUMP JUMPDEST PUSH1 0x1 PUSH1 0x1 PUSH1 0xA0 SHL SUB AND EQ ISZERO DUP1 ISZERO PUSH2 0x576A JUMPI POP PUSH1 0x0 PUSH1 0x5 PUSH2 0x573C PUSH2 0x60E5 JUMP JUMPDEST SWAP1 PUSH2 0x100 EXP SWAP1 DIV PUSH1 0x1 PUSH1 0x1 PUSH1 0xA0 SHL SUB AND PUSH1 0x1 PUSH1 0x1 PUSH1 0xA0 SHL SUB AND GAS PUSH2 0x575E PUSH2 0x62FE JUMP JUMPDEST PUSH1 0x1 PUSH1 0x1 PUSH1 0xA0 SHL SUB AND EQ ISZERO JUMPDEST DUP1 ISZERO PUSH2 0x57AB JUMPI POP GAS PUSH2 0x577A PUSH2 0x62FE JUMP JUMPDEST PUSH1 0x1 PUSH1 0x1 PUSH1 0xA0 SHL SUB AND PUSH1 0x0 PUSH1 0x6 PUSH2 0x578F PUSH2 0x60E5 JUMP JUMPDEST SWAP1 PUSH2 0x100 EXP SWAP1 DIV PUSH1 0x1 PUSH1 0x1 PUSH1 0xA0 SHL SUB AND PUSH1 0x1 PUSH1 0x1 PUSH1 0xA0 SHL SUB AND EQ ISZERO JUMPDEST ISZERO PUSH2 0x57EC JUMPI GAS PUSH2 0x57B9 PUSH2 0x62FE JUMP JUMPDEST PUSH1 0x6 PUSH1 0x1 DUP2 PUSH2 0x57C6 PUSH2 0x60E5 JUMP JUMPDEST DUP2 PUSH1 0x1 PUSH1 0x1 PUSH1 0xA0 SHL SUB MUL NOT AND SWAP1 DUP4 PUSH1 0x1 PUSH1 0x1 PUSH1 0xA0 SHL SUB AND MUL OR SWAP1 PUSH2 0x57E8 PUSH2 0x6344 JUMP JUMPDEST POP POP POP JUMPDEST PUSH1 0x0 DUP1 PUSH2 0x57F7 PUSH2 0x60E5 JUMP JUMPDEST PUSH1 0x1 PUSH1 0x1 PUSH1 0xA0 SHL SUB PUSH2 0x100 SWAP3 SWAP1 SWAP3 EXP SWAP1 DIV AND PUSH1 0x0 PUSH1 0x6 PUSH2 0x5815 PUSH2 0x60E5 JUMP JUMPDEST SWAP1 PUSH2 0x100 EXP SWAP1 DIV PUSH1 0x1 PUSH1 0x1 PUSH1 0xA0 SHL SUB AND PUSH1 0x1 PUSH1 0x1 PUSH1 0xA0 SHL SUB AND EQ PUSH2 0x399A JUMPI PUSH1 0x40 MLOAD PUSH3 0x461BCD PUSH1 0xE5 SHL DUP2 MSTORE PUSH1 0x20 PUSH1 0x4 DUP3 ADD MSTORE PUSH1 0x13 PUSH1 0x24 DUP3 ADD MSTORE PUSH19 0x27BBB732B91037B7363C90333AB731BA34B7B7 PUSH1 0x69 SHL PUSH1 0x44 DUP3 ADD MSTORE PUSH1 0x64 ADD PUSH1 0x40 MLOAD DUP1 SWAP2 SUB SWAP1 PUSH2 0x2667 PUSH2 0x607A JUMP JUMPDEST PUSH1 0x0 PUSH1 0x4 PUSH2 0x5887 PUSH2 0x60E5 JUMP JUMPDEST SWAP1 PUSH2 0x100 EXP SWAP1 DIV PUSH1 0x1 PUSH1 0x1 PUSH1 0xA0 SHL SUB AND PUSH1 0x1 PUSH1 0x1 PUSH1 0xA0 SHL SUB AND PUSH4 0x907DFF97 DUP3 PUSH1 0x40 MLOAD PUSH1 0x1 PUSH1 0x1 PUSH1 0xA0 SHL SUB SWAP1 SWAP2 AND PUSH1 0x20 DUP3 ADD MSTORE PUSH1 0x40 SWAP1 DUP2 ADD SWAP1 MLOAD PUSH1 0x20 DUP2 DUP4 SUB SUB DUP2 MSTORE SWAP1 PUSH1 0x40 MSTORE PUSH1 0x1 PUSH1 0x40 MLOAD PUSH32 0x546F6B656E537461746555706461746564286164647265737329000000000000 DUP2 MSTORE PUSH1 0x1A ADD PUSH1 0x40 MLOAD DUP1 SWAP2 SUB SWAP1 KECCAK256 PUSH1 0x0 DUP1 PUSH1 0x0 PUSH1 0x40 MLOAD DUP8 PUSH4 0xFFFFFFFF AND PUSH1 0xE0 SHL DUP2 MSTORE PUSH1 0x4 ADD DUP1 DUP1 PUSH1 0x20 ADD DUP8 DUP2 MSTORE PUSH1 0x20 ADD DUP7 DUP2 MSTORE PUSH1 0x20 ADD DUP6 PUSH1 0x0 SHL DUP2 MSTORE PUSH1 0x20 ADD DUP5 PUSH1 0x0 SHL DUP2 MSTORE PUSH1 0x20 ADD DUP4 PUSH1 0x0 SHL DUP2 MSTORE PUSH1 0x20 ADD DUP3 DUP2 SUB DUP3 MSTORE DUP9 DUP2 DUP2 MLOAD DUP2 MSTORE PUSH1 0x20 ADD SWAP2 POP DUP1 MLOAD SWAP1 PUSH1 0x20 ADD SWAP1 DUP1 DUP4 DUP4 PUSH1 0x0 JUMPDEST DUP4 DUP2 LT ISZERO PUSH2 0x5977 JUMPI DUP1 DUP3 ADD MLOAD DUP4 DUP3 ADD MSTORE PUSH1 0x20 ADD PUSH2 0x595F JUMP JUMPDEST POP POP POP POP SWAP1 POP SWAP1 DUP2 ADD SWAP1 PUSH1 0x1F AND DUP1 ISZERO PUSH2 0x59A4 JUMPI DUP1 DUP3 SUB DUP1 MLOAD PUSH1 0x1 DUP4 PUSH1 0x20 SUB PUSH2 0x100 EXP SUB NOT AND DUP2 MSTORE PUSH1 0x20 ADD SWAP2 POP JUMPDEST POP SWAP8 POP POP POP POP POP POP POP POP PUSH1 0x0 PUSH1 0x40 MLOAD DUP1 DUP4 SUB DUP2 PUSH1 0x0 DUP8 DUP1 PUSH2 0x1F73 PUSH2 0x6140 JUMP JUMPDEST PUSH1 0x0 PUSH2 0x1E72 DUP5 DUP5 DUP5 PUSH2 0x5D36 JUMP JUMPDEST PUSH1 0x0 PUSH1 0x4 PUSH2 0x59DC PUSH2 0x60E5 JUMP JUMPDEST SWAP1 PUSH2 0x100 EXP SWAP1 DIV PUSH1 0x1 PUSH1 0x1 PUSH1 0xA0 SHL SUB AND PUSH1 0x1 PUSH1 0x1 PUSH1 0xA0 SHL SUB AND GAS PUSH2 0x59FE PUSH2 0x62FE JUMP JUMPDEST PUSH1 0x1 PUSH1 0x1 PUSH1 0xA0 SHL SUB AND EQ DUP1 PUSH2 0x5A47 JUMPI POP PUSH1 0x0 PUSH1 0x5 PUSH2 0x5A1A PUSH2 0x60E5 JUMP JUMPDEST SWAP1 PUSH2 0x100 EXP SWAP1 DIV PUSH1 0x1 PUSH1 0x1 PUSH1 0xA0 SHL SUB AND PUSH1 0x1 PUSH1 0x1 PUSH1 0xA0 SHL SUB AND GAS PUSH2 0x5A3C PUSH2 0x62FE JUMP JUMPDEST PUSH1 0x1 PUSH1 0x1 PUSH1 0xA0 SHL SUB AND EQ JUMPDEST PUSH2 0x399A JUMPI PUSH1 0x40 MLOAD PUSH3 0x461BCD PUSH1 0xE5 SHL DUP2 MSTORE PUSH1 0x20 PUSH1 0x4 DUP3 ADD MSTORE PUSH1 0x17 PUSH1 0x24 DUP3 ADD MSTORE PUSH32 0x4F6E6C79207468652070726F78792063616E2063616C6C000000000000000000 PUSH1 0x44 DUP3 ADD MSTORE PUSH1 0x64 ADD PUSH1 0x40 MLOAD DUP1 SWAP2 SUB SWAP1 PUSH2 0x2667 PUSH2 0x607A JUMP JUMPDEST PUSH1 0x0 PUSH1 0x4 PUSH2 0x5AA9 PUSH2 0x60E5 JUMP JUMPDEST SWAP1 PUSH2 0x100 EXP SWAP1 DIV PUSH1 0x1 PUSH1 0x1 PUSH1 0xA0 SHL SUB AND PUSH1 0x1 PUSH1 0x1 PUSH1 0xA0 SHL SUB AND PUSH4 0x907DFF97 DUP5 DUP5 DUP5 PUSH1 0x40 MLOAD PUSH1 0x20 DUP2 ADD SWAP4 SWAP1 SWAP4 MSTORE PUSH1 0x40 DUP1 DUP5 ADD SWAP3 SWAP1 SWAP3 MSTORE PUSH1 0x1 PUSH1 0x1 PUSH1 0xA0 SHL SUB AND PUSH1 0x60 DUP4 ADD MSTORE PUSH1 0x80 SWAP1 SWAP2 ADD SWAP1 MLOAD PUSH1 0x20 DUP2 DUP4 SUB SUB DUP2 MSTORE SWAP1 PUSH1 0x40 MSTORE PUSH1 0x2 PUSH1 0x40 MLOAD DUP1 PUSH1 0x32 PUSH2 0x65FA DUP3 CODECOPY PUSH1 0x32 ADD SWAP1 POP PUSH1 0x40 MLOAD DUP1 SWAP2 SUB SWAP1 KECCAK256 PUSH2 0x5B22 DUP10 PUSH2 0x56E4 JUMP JUMPDEST PUSH1 0x0 DUP1 PUSH1 0x40 MLOAD DUP8 PUSH4 0xFFFFFFFF AND PUSH1 0xE0 SHL DUP2 MSTORE PUSH1 0x4 ADD DUP1 DUP1 PUSH1 0x20 ADD DUP8 DUP2 MSTORE PUSH1 0x20 ADD DUP7 DUP2 MSTORE PUSH1 0x20 ADD DUP6 DUP2 MSTORE PUSH1 0x20 ADD DUP5 PUSH1 0x0 SHL DUP2 MSTORE PUSH1 0x20 ADD DUP4 PUSH1 0x0 SHL DUP2 MSTORE PUSH1 0x20 ADD DUP3 DUP2 SUB DUP3 MSTORE DUP9 DUP2 DUP2 MLOAD DUP2 MSTORE PUSH1 0x20 ADD SWAP2 POP DUP1 MLOAD SWAP1 PUSH1 0x20 ADD SWAP1 DUP1 DUP4 DUP4 PUSH1 0x0 JUMPDEST DUP4 DUP2 LT ISZERO PUSH2 0x5B95 JUMPI DUP1 DUP3 ADD MLOAD DUP4 DUP3 ADD MSTORE PUSH1 0x20 ADD PUSH2 0x5B7D JUMP JUMPDEST POP POP POP POP SWAP1 POP SWAP1 DUP2 ADD SWAP1 PUSH1 0x1F AND DUP1 ISZERO PUSH2 0x5BC2 JUMPI DUP1 DUP3 SUB DUP1 MLOAD PUSH1 0x1 DUP4 PUSH1 0x20 SUB PUSH2 0x100 EXP SUB NOT AND DUP2 MSTORE PUSH1 0x20 ADD SWAP2 POP JUMPDEST POP SWAP8 POP POP POP POP POP POP POP POP PUSH1 0x0 PUSH1 0x40 MLOAD DUP1 DUP4 SUB DUP2 PUSH1 0x0 DUP8 DUP1 PUSH2 0x5BE1 PUSH2 0x6140 JUMP JUMPDEST ISZERO DUP1 ISZERO PUSH2 0x5BF6 JUMPI PUSH1 0x0 DUP1 PUSH2 0x5BF3 PUSH2 0x607A JUMP JUMPDEST POP POP JUMPDEST POP GAS PUSH2 0x5C00 PUSH2 0x6245 JUMP JUMPDEST POP POP POP POP POP POP ISZERO DUP1 ISZERO PUSH2 0x413C JUMPI RETURNDATASIZE PUSH1 0x0 DUP1 RETURNDATACOPY RETURNDATASIZE PUSH1 0x0 PUSH2 0x2E86 PUSH2 0x607A JUMP JUMPDEST PUSH1 0x0 DUP3 DUP2 MSTORE PUSH1 0xC PUSH1 0x20 MSTORE DUP1 PUSH1 0x40 DUP2 KECCAK256 PUSH1 0x0 SWAP1 PUSH2 0x5C37 PUSH2 0x60E5 JUMP JUMPDEST PUSH1 0x1 PUSH1 0x1 PUSH1 0xA0 SHL SUB PUSH2 0x100 SWAP3 SWAP1 SWAP3 EXP SWAP1 DIV AND SWAP1 POP DUP3 DUP2 PUSH2 0x5CDE JUMPI PUSH1 0x40 MLOAD PUSH3 0x461BCD PUSH1 0xE5 SHL DUP2 MSTORE PUSH1 0x4 ADD DUP1 DUP1 PUSH1 0x20 ADD DUP3 DUP2 SUB DUP3 MSTORE DUP4 DUP2 DUP2 MLOAD DUP2 MSTORE PUSH1 0x20 ADD SWAP2 POP DUP1 MLOAD SWAP1 PUSH1 0x20 ADD SWAP1 DUP1 DUP4 DUP4 PUSH1 0x0 JUMPDEST DUP4 DUP2 LT ISZERO PUSH2 0x5C9A JUMPI DUP1 DUP3 ADD MLOAD DUP4 DUP3 ADD MSTORE PUSH1 0x20 ADD PUSH2 0x5C82 JUMP JUMPDEST POP POP POP POP SWAP1 POP SWAP1 DUP2 ADD SWAP1 PUSH1 0x1F AND DUP1 ISZERO PUSH2 0x5CC7 JUMPI DUP1 DUP3 SUB DUP1 MLOAD PUSH1 0x1 DUP4 PUSH1 0x20 SUB PUSH2 0x100 EXP SUB NOT AND DUP2 MSTORE PUSH1 0x20 ADD SWAP2 POP JUMPDEST POP SWAP3 POP POP POP PUSH1 0x40 MLOAD DUP1 SWAP2 SUB SWAP1 PUSH2 0x5CDB PUSH2 0x607A JUMP JUMPDEST POP POP JUMPDEST POP SWAP4 SWAP3 POP POP POP JUMP JUMPDEST PUSH1 0x0 PUSH2 0x4DD6 PUSH14 0x53796E7468657469785374617465 PUSH1 0x90 SHL PUSH1 0x40 MLOAD PUSH1 0x40 DUP1 DUP3 ADD SWAP1 MSTORE PUSH1 0x1E DUP2 MSTORE PUSH32 0x4D697373696E672053796E746865746978537461746520616464726573730000 PUSH1 0x20 DUP3 ADD MSTORE PUSH2 0x5C1D JUMP JUMPDEST PUSH1 0x0 PUSH1 0x1 PUSH1 0x1 PUSH1 0xA0 SHL SUB DUP4 AND ISZERO DUP1 ISZERO SWAP1 PUSH2 0x5DBA JUMPI POP GAS PUSH4 0x996D79A5 MSIZE DUP2 PUSH1 0xE0 SHL DUP2 MSTORE PUSH1 0x20 DUP2 PUSH1 0x4 DUP4 CALLER PUSH1 0x0 SWAP1 GAS CALL PC PUSH1 0x1D ADD JUMPI RETURNDATASIZE PUSH1 0x1 EQ PC PUSH1 0xC ADD JUMPI RETURNDATASIZE PUSH1 0x0 DUP1 RETURNDATACOPY RETURNDATASIZE PUSH3 0x123456 MSTORE PUSH1 0xEA PUSH2 0x109C MSTORE DUP1 MLOAD SWAP3 POP PUSH1 0x0 JUMPDEST PUSH1 0x40 DUP2 LT ISZERO PUSH2 0x5DA1 JUMPI PUSH1 0x0 DUP3 DUP3 ADD MSTORE PUSH1 0x20 ADD PUSH2 0x5D8A JUMP JUMPDEST POP POP POP PUSH1 0x1 PUSH1 0x1 PUSH1 0xA0 SHL SUB AND DUP4 PUSH1 0x1 PUSH1 0x1 PUSH1 0xA0 SHL SUB AND EQ ISZERO JUMPDEST DUP1 ISZERO PUSH2 0x5DF3 JUMPI POP PUSH1 0x0 PUSH1 0x4 PUSH2 0x5DCD PUSH2 0x60E5 JUMP JUMPDEST SWAP1 PUSH2 0x100 EXP SWAP1 DIV PUSH1 0x1 PUSH1 0x1 PUSH1 0xA0 SHL SUB AND PUSH1 0x1 PUSH1 0x1 PUSH1 0xA0 SHL SUB AND DUP4 PUSH1 0x1 PUSH1 0x1 PUSH1 0xA0 SHL SUB AND EQ ISZERO JUMPDEST PUSH2 0x5E4C JUMPI PUSH1 0x40 MLOAD PUSH3 0x461BCD PUSH1 0xE5 SHL DUP2 MSTORE PUSH1 0x20 PUSH1 0x4 DUP3 ADD MSTORE PUSH1 0x1F PUSH1 0x24 DUP3 ADD MSTORE PUSH32 0x43616E6E6F74207472616E7366657220746F2074686973206164647265737300 PUSH1 0x44 DUP3 ADD MSTORE PUSH1 0x64 ADD PUSH1 0x40 MLOAD DUP1 SWAP2 SUB SWAP1 PUSH2 0x5E49 PUSH2 0x607A JUMP JUMPDEST POP POP JUMPDEST PUSH1 0x0 PUSH1 0x7 PUSH2 0x5E58 PUSH2 0x60E5 JUMP JUMPDEST PUSH1 0x1 PUSH1 0x1 PUSH1 0xA0 SHL SUB PUSH2 0x100 SWAP3 SWAP1 SWAP3 EXP SWAP1 DIV AND PUSH4 0xB46310F6 DUP6 PUSH2 0x5ED9 DUP6 PUSH1 0x0 PUSH1 0x7 PUSH2 0x5E80 PUSH2 0x60E5 JUMP JUMPDEST SWAP1 PUSH2 0x100 EXP SWAP1 DIV PUSH1 0x1 PUSH1 0x1 PUSH1 0xA0 SHL SUB AND PUSH1 0x1 PUSH1 0x1 PUSH1 0xA0 SHL SUB AND PUSH4 0x70A08231 DUP11 PUSH1 0x40 MLOAD PUSH1 0x1 PUSH1 0x1 PUSH1 0xE0 SHL SUB NOT PUSH1 0xE0 DUP5 SWAP1 SHL AND DUP2 MSTORE PUSH1 0x1 PUSH1 0x1 PUSH1 0xA0 SHL SUB SWAP1 SWAP2 AND PUSH1 0x4 DUP3 ADD MSTORE PUSH1 0x24 ADD PUSH1 0x20 PUSH1 0x40 MLOAD DUP1 DUP4 SUB DUP2 DUP7 DUP1 PUSH2 0x4A41 PUSH2 0x6140 JUMP JUMPDEST PUSH1 0x40 MLOAD PUSH1 0x1 PUSH1 0x1 PUSH1 0xE0 SHL SUB NOT PUSH1 0xE0 DUP6 SWAP1 SHL AND DUP2 MSTORE PUSH1 0x1 PUSH1 0x1 PUSH1 0xA0 SHL SUB SWAP1 SWAP3 AND PUSH1 0x4 DUP4 ADD MSTORE PUSH1 0x24 DUP3 ADD MSTORE PUSH1 0x44 ADD PUSH1 0x0 PUSH1 0x40 MLOAD DUP1 DUP4 SUB DUP2 PUSH1 0x0 DUP8 DUP1 PUSH2 0x5F1A PUSH2 0x6140 JUMP JUMPDEST ISZERO DUP1 ISZERO PUSH2 0x5F2F JUMPI PUSH1 0x0 DUP1 PUSH2 0x5F2C PUSH2 0x607A JUMP JUMPDEST POP POP JUMPDEST POP GAS PUSH2 0x5F39 PUSH2 0x6245 JUMP JUMPDEST POP POP POP POP POP POP ISZERO DUP1 ISZERO PUSH2 0x5F59 JUMPI RETURNDATASIZE PUSH1 0x0 DUP1 RETURNDATACOPY RETURNDATASIZE PUSH1 0x0 PUSH2 0x5F56 PUSH2 0x607A JUMP JUMPDEST POP POP JUMPDEST POP POP POP POP PUSH1 0x7 PUSH1 0x0 SWAP1 PUSH2 0x5F6A PUSH2 0x60E5 JUMP JUMPDEST PUSH1 0x1 PUSH1 0x1 PUSH1 0xA0 SHL SUB PUSH2 0x100 SWAP3 SWAP1 SWAP3 EXP SWAP1 DIV AND PUSH4 0xB46310F6 DUP5 PUSH2 0x5FEB DUP6 PUSH1 0x0 PUSH1 0x7 PUSH2 0x5F92 PUSH2 0x60E5 JUMP JUMPDEST SWAP1 PUSH2 0x100 EXP SWAP1 DIV PUSH1 0x1 PUSH1 0x1 PUSH1 0xA0 SHL SUB AND PUSH1 0x1 PUSH1 0x1 PUSH1 0xA0 SHL SUB AND PUSH4 0x70A08231 DUP10 PUSH1 0x40 MLOAD PUSH1 0x1 PUSH1 0x1 PUSH1 0xE0 SHL SUB NOT PUSH1 0xE0 DUP5 SWAP1 SHL AND DUP2 MSTORE PUSH1 0x1 PUSH1 0x1 PUSH1 0xA0 SHL SUB SWAP1 SWAP2 AND PUSH1 0x4 DUP3 ADD MSTORE PUSH1 0x24 ADD PUSH1 0x20 PUSH1 0x40 MLOAD DUP1 DUP4 SUB DUP2 DUP7 DUP1 PUSH2 0x16CB PUSH2 0x6140 JUMP JUMPDEST PUSH1 0x40 MLOAD PUSH1 0x1 PUSH1 0x1 PUSH1 0xE0 SHL SUB NOT PUSH1 0xE0 DUP6 SWAP1 SHL AND DUP2 MSTORE PUSH1 0x1 PUSH1 0x1 PUSH1 0xA0 SHL SUB SWAP1 SWAP3 AND PUSH1 0x4 DUP4 ADD MSTORE PUSH1 0x24 DUP3 ADD MSTORE PUSH1 0x44 ADD PUSH1 0x0 PUSH1 0x40 MLOAD DUP1 DUP4 SUB DUP2 PUSH1 0x0 DUP8 DUP1 PUSH2 0x602C PUSH2 0x6140 JUMP JUMPDEST ISZERO DUP1 ISZERO PUSH2 0x6041 JUMPI PUSH1 0x0 DUP1 PUSH2 0x603E PUSH2 0x607A JUMP JUMPDEST POP POP JUMPDEST POP GAS PUSH2 0x604B PUSH2 0x6245 JUMP JUMPDEST POP POP POP POP POP POP ISZERO DUP1 ISZERO PUSH2 0x606B JUMPI RETURNDATASIZE PUSH1 0x0 DUP1 RETURNDATACOPY RETURNDATASIZE PUSH1 0x0 PUSH2 0x6068 PUSH2 0x607A JUMP JUMPDEST POP POP JUMPDEST POP POP POP POP PUSH2 0x11F7 DUP5 DUP5 DUP5 PUSH2 0x5138 JUMP JUMPDEST PUSH4 0x2A2A7ADB MSIZE DUP2 PUSH1 0xE0 SHL DUP2 MSTORE PUSH1 0x4 DUP2 ADD PUSH1 0x20 DUP2 MSTORE DUP6 PUSH1 0x20 DUP3 ADD MSTORE PUSH1 0x0 JUMPDEST DUP7 DUP2 LT ISZERO PUSH2 0x60B2 JUMPI DUP1 DUP7 ADD MLOAD DUP3 DUP3 ADD PUSH1 0x40 ADD MSTORE PUSH1 0x20 ADD PUSH2 0x6097 JUMP JUMPDEST POP PUSH1 0x20 DUP3 DUP8 PUSH1 0x64 ADD DUP5 CALLER PUSH1 0x0 SWAP1 GAS CALL PC PUSH1 0x1D ADD JUMPI RETURNDATASIZE PUSH1 0x1 EQ PC PUSH1 0xC ADD JUMPI RETURNDATASIZE PUSH1 0x0 DUP1 RETURNDATACOPY RETURNDATASIZE PUSH3 0x123456 MSTORE PUSH1 0xEA PUSH2 0x109C MSTORE POP POP POP JUMP JUMPDEST PUSH4 0x3DAA959 MSIZE DUP2 PUSH1 0xE0 SHL DUP2 MSTORE DUP4 PUSH1 0x4 DUP3 ADD MSTORE PUSH1 0x20 DUP2 PUSH1 0x24 DUP4 CALLER PUSH1 0x0 SWAP1 GAS CALL PC PUSH1 0x1D ADD JUMPI RETURNDATASIZE PUSH1 0x1 EQ PC PUSH1 0xC ADD JUMPI RETURNDATASIZE PUSH1 0x0 DUP1 RETURNDATACOPY RETURNDATASIZE PUSH3 0x123456 MSTORE PUSH1 0xEA PUSH2 0x109C MSTORE DUP1 MLOAD SWAP4 POP PUSH1 0x0 JUMPDEST PUSH1 0x40 DUP2 LT ISZERO PUSH2 0x33B7 JUMPI PUSH1 0x0 DUP3 DUP3 ADD MSTORE PUSH1 0x20 ADD PUSH2 0x6129 JUMP JUMPDEST PUSH4 0x8435035B MSIZE DUP2 PUSH1 0xE0 SHL DUP2 MSTORE DUP4 PUSH1 0x4 DUP3 ADD MSTORE PUSH1 0x20 DUP2 PUSH1 0x24 DUP4 CALLER PUSH1 0x0 SWAP1 GAS CALL PC PUSH1 0x1D ADD JUMPI RETURNDATASIZE PUSH1 0x1 EQ PC PUSH1 0xC ADD JUMPI RETURNDATASIZE PUSH1 0x0 DUP1 RETURNDATACOPY RETURNDATASIZE PUSH3 0x123456 MSTORE PUSH1 0xEA PUSH2 0x109C MSTORE DUP1 MLOAD PUSH1 0x0 DUP3 MSTORE SWAP4 POP PUSH1 0x20 PUSH2 0x6129 JUMP JUMPDEST PUSH4 0x8540661F MSIZE DUP2 PUSH1 0xE0 SHL DUP2 MSTORE DUP4 PUSH1 0x4 DUP3 ADD MSTORE DUP5 PUSH1 0x24 DUP3 ADD MSTORE PUSH1 0x60 PUSH1 0x44 DUP3 ADD MSTORE DUP7 PUSH1 0x64 DUP3 ADD MSTORE PUSH1 0x84 DUP2 ADD PUSH1 0x0 JUMPDEST DUP9 DUP2 LT ISZERO PUSH2 0x61D0 JUMPI DUP1 DUP9 ADD MLOAD DUP3 DUP3 ADD MSTORE PUSH1 0x20 ADD PUSH2 0x61B8 JUMP JUMPDEST POP DUP8 PUSH2 0x104 ADD DUP3 ADD PUSH1 0x60 DUP4 DUP11 PUSH2 0x104 ADD DUP6 CALLER PUSH1 0x0 SWAP1 GAS CALL PC PUSH1 0x1D ADD JUMPI RETURNDATASIZE PUSH1 0x1 EQ PC PUSH1 0xC ADD JUMPI RETURNDATASIZE PUSH1 0x0 DUP1 RETURNDATACOPY RETURNDATASIZE PUSH3 0x123456 MSTORE PUSH1 0xEA PUSH2 0x109C MSTORE DUP3 MLOAD PUSH1 0x40 DUP5 ADD MLOAD RETURNDATASIZE PUSH1 0x0 DUP7 RETURNDATACOPY DUP13 DUP13 DUP3 PUSH1 0x60 DUP9 ADD CALLER POP PUSH1 0x0 PUSH1 0x4 GAS CALL POP MSIZE DUP6 JUMPDEST DUP2 DUP2 LT ISZERO PUSH2 0x6239 JUMPI PUSH1 0x0 DUP2 MSTORE PUSH1 0x20 ADD PUSH2 0x6225 JUMP JUMPDEST POP SWAP2 SWAP13 POP POP POP POP POP POP POP JUMP JUMPDEST PUSH4 0x85979F76 MSIZE DUP2 PUSH1 0xE0 SHL DUP2 MSTORE DUP4 PUSH1 0x4 DUP3 ADD MSTORE DUP5 PUSH1 0x24 DUP3 ADD MSTORE PUSH1 0x60 PUSH1 0x44 DUP3 ADD MSTORE DUP8 PUSH1 0x64 DUP3 ADD MSTORE PUSH1 0x84 DUP2 ADD PUSH1 0x0 JUMPDEST DUP10 DUP2 LT ISZERO PUSH2 0x6289 JUMPI DUP1 DUP10 ADD MLOAD DUP3 DUP3 ADD MSTORE PUSH1 0x20 ADD PUSH2 0x6271 JUMP JUMPDEST POP DUP9 PUSH2 0x104 ADD DUP3 ADD PUSH1 0x60 DUP4 DUP12 PUSH2 0x104 ADD DUP6 CALLER PUSH1 0x0 SWAP1 GAS CALL PC PUSH1 0x1D ADD JUMPI RETURNDATASIZE PUSH1 0x1 EQ PC PUSH1 0xC ADD JUMPI RETURNDATASIZE PUSH1 0x0 DUP1 RETURNDATACOPY RETURNDATASIZE PUSH3 0x123456 MSTORE PUSH1 0xEA PUSH2 0x109C MSTORE DUP3 MLOAD PUSH1 0x40 DUP5 ADD MLOAD RETURNDATASIZE PUSH1 0x0 DUP7 RETURNDATACOPY DUP14 DUP14 DUP3 PUSH1 0x60 DUP9 ADD CALLER POP PUSH1 0x0 PUSH1 0x4 GAS CALL POP MSIZE DUP6 JUMPDEST DUP2 DUP2 LT ISZERO PUSH2 0x62F2 JUMPI PUSH1 0x0 DUP2 MSTORE PUSH1 0x20 ADD PUSH2 0x62DE JUMP JUMPDEST POP SWAP2 SWAP14 POP POP POP POP POP POP POP JUMP JUMPDEST PUSH4 0x73509064 MSIZE DUP2 PUSH1 0xE0 SHL DUP2 MSTORE PUSH1 0x20 DUP2 PUSH1 0x4 DUP4 CALLER PUSH1 0x0 SWAP1 GAS CALL PC PUSH1 0x1D ADD JUMPI RETURNDATASIZE PUSH1 0x1 EQ PC PUSH1 0xC ADD JUMPI RETURNDATASIZE PUSH1 0x0 DUP1 RETURNDATACOPY RETURNDATASIZE PUSH3 0x123456 MSTORE PUSH1 0xEA PUSH2 0x109C MSTORE DUP1 MLOAD PUSH1 0x0 DUP3 MSTORE SWAP4 POP PUSH1 0x20 PUSH2 0x6129 JUMP JUMPDEST PUSH4 0x22BD64C0 MSIZE DUP2 PUSH1 0xE0 SHL DUP2 MSTORE DUP4 PUSH1 0x4 DUP3 ADD MSTORE DUP5 PUSH1 0x24 DUP3 ADD MSTORE PUSH1 0x0 DUP2 PUSH1 0x44 DUP4 CALLER PUSH1 0x0 SWAP1 GAS CALL PC PUSH1 0x1D ADD JUMPI RETURNDATASIZE PUSH1 0x1 EQ PC PUSH1 0xC ADD JUMPI RETURNDATASIZE PUSH1 0x0 DUP1 RETURNDATACOPY RETURNDATASIZE PUSH3 0x123456 MSTORE PUSH1 0xEA PUSH2 0x109C MSTORE PUSH1 0x0 DUP2 MSTORE PUSH1 0x20 PUSH2 0x6129 JUMP JUMPDEST PUSH4 0xBDBF8C36 MSIZE DUP2 PUSH1 0xE0 SHL DUP2 MSTORE PUSH1 0x20 DUP2 PUSH1 0x4 DUP4 CALLER PUSH1 0x0 SWAP1 GAS CALL PC PUSH1 0x1D ADD JUMPI RETURNDATASIZE PUSH1 0x1 EQ PC PUSH1 0xC ADD JUMPI RETURNDATASIZE PUSH1 0x0 DUP1 RETURNDATACOPY RETURNDATASIZE PUSH3 0x123456 MSTORE PUSH1 0xEA PUSH2 0x109C MSTORE DUP1 MLOAD PUSH1 0x0 DUP3 MSTORE SWAP4 POP PUSH1 0x20 PUSH2 0x6129 JUMP JUMPDEST PUSH1 0x40 MLOAD PUSH2 0x300 DUP1 DUP3 ADD PUSH1 0x40 MSTORE PUSH1 0x18 SWAP1 DUP3 SWAP1 DUP1 CODESIZE DUP4 CODECOPY POP SWAP2 SWAP3 SWAP2 POP POP JUMP INVALID MSIZE PUSH16 0x75206D757374206265206E6F6D696E61 PUSH21 0x6564206265666F726520796F752063616E20616363 PUSH6 0x7074206F776E PUSH6 0x727368697045 PUSH25 0x6368616E67655265636C61696D28616464726573732C627974 PUSH6 0x7333322C7569 PUSH15 0x74323536294F6E6C79204578636861 PUSH15 0x6765722063616E20696E766F6B6520 PUSH21 0x686973000053796E746845786368616E6765286164 PUSH5 0x726573732C PUSH3 0x797465 PUSH20 0x33322C75696E743235362C627974657333322C75 PUSH10 0x6E743235362C61646472 PUSH6 0x73732943616E PUSH15 0x6F74207472616E7366657220737461 PUSH12 0x6564206F7220657363726F77 PUSH6 0x6420534E584F PUSH15 0x6C792074686520636F6E7472616374 KECCAK256 PUSH16 0x776E6572206D617920706572666F726D KECCAK256 PUSH21 0x68697320616374696F6E417070726F76616C286164 PUSH5 0x726573732C PUSH2 0x6464 PUSH19 0x6573732C75696E74323536295265736F6C7665 PUSH19 0x206973206D697373696E67205365636F6E6461 PUSH19 0x794465706F73697420616464726573734D6973 PUSH20 0x696E672052657761726473446973747269627574 PUSH10 0x6F6E2061646472657373 GASLIMIT PUSH25 0x6368616E676552656261746528616464726573732C62797465 PUSH20 0x33322C75696E743235362945786368616E676554 PUSH19 0x61636B696E6728627974657333322C62797465 PUSH20 0x33322C75696E743235362943616E206F6E6C7920 PUSH3 0x652069 PUSH15 0x766F6B656420627920746865205365 PUSH4 0x6F6E6461 PUSH19 0x794465706F73697420636F6E74726163744163 PUSH4 0x6F756E74 0x4C PUSH10 0x71756964617465642861 PUSH5 0x6472657373 0x2C PUSH22 0x696E743235362C75696E743235362C61646472657373 0x29 SLOAD PUSH19 0x616E7366657228616464726573732C61646472 PUSH6 0x73732C75696E PUSH21 0x323536290000000000000000000000000000000000 "
		}
	}
}