{
	"abi": [
		{
			"inputs": [
				{
					"internalType": "address",
					"name": "_owner",
					"type": "address"
				},
				{
					"internalType": "address",
					"name": "_rewardsDistribution",
					"type": "address"
				},
				{
					"internalType": "address",
					"name": "_rewardsToken",
					"type": "address"
				},
				{
					"internalType": "address",
					"name": "_stakingToken",
					"type": "address"
				}
			],
			"payable": false,
			"stateMutability": "nonpayable",
			"type": "constructor"
		},
		{
			"anonymous": false,
			"inputs": [
				{
					"indexed": false,
					"internalType": "address",
					"name": "oldOwner",
					"type": "address"
				},
				{
					"indexed": false,
					"internalType": "address",
					"name": "newOwner",
					"type": "address"
				}
			],
			"name": "OwnerChanged",
			"type": "event"
		},
		{
			"anonymous": false,
			"inputs": [
				{
					"indexed": false,
					"internalType": "address",
					"name": "newOwner",
					"type": "address"
				}
			],
			"name": "OwnerNominated",
			"type": "event"
		},
		{
			"anonymous": false,
			"inputs": [
				{
					"indexed": false,
					"internalType": "bool",
					"name": "isPaused",
					"type": "bool"
				}
			],
			"name": "PauseChanged",
			"type": "event"
		},
		{
			"anonymous": false,
			"inputs": [
				{
					"indexed": false,
					"internalType": "address",
					"name": "token",
					"type": "address"
				},
				{
					"indexed": false,
					"internalType": "uint256",
					"name": "amount",
					"type": "uint256"
				}
			],
			"name": "Recovered",
			"type": "event"
		},
		{
			"anonymous": false,
			"inputs": [
				{
					"indexed": false,
					"internalType": "uint256",
					"name": "reward",
					"type": "uint256"
				}
			],
			"name": "RewardAdded",
			"type": "event"
		},
		{
			"anonymous": false,
			"inputs": [
				{
					"indexed": true,
					"internalType": "address",
					"name": "user",
					"type": "address"
				},
				{
					"indexed": false,
					"internalType": "uint256",
					"name": "reward",
					"type": "uint256"
				}
			],
			"name": "RewardPaid",
			"type": "event"
		},
		{
			"anonymous": false,
			"inputs": [
				{
					"indexed": false,
					"internalType": "uint256",
					"name": "newDuration",
					"type": "uint256"
				}
			],
			"name": "RewardsDurationUpdated",
			"type": "event"
		},
		{
			"anonymous": false,
			"inputs": [
				{
					"indexed": true,
					"internalType": "address",
					"name": "user",
					"type": "address"
				},
				{
					"indexed": false,
					"internalType": "uint256",
					"name": "amount",
					"type": "uint256"
				}
			],
			"name": "Staked",
			"type": "event"
		},
		{
			"anonymous": false,
			"inputs": [
				{
					"indexed": true,
					"internalType": "address",
					"name": "user",
					"type": "address"
				},
				{
					"indexed": false,
					"internalType": "uint256",
					"name": "amount",
					"type": "uint256"
				}
			],
			"name": "Withdrawn",
			"type": "event"
		},
		{
			"constant": false,
			"inputs": [],
			"name": "acceptOwnership",
			"outputs": [],
			"payable": false,
			"stateMutability": "nonpayable",
			"type": "function"
		},
		{
			"constant": true,
			"inputs": [
				{
					"internalType": "address",
					"name": "account",
					"type": "address"
				}
			],
			"name": "balanceOf",
			"outputs": [
				{
					"internalType": "uint256",
					"name": "",
					"type": "uint256"
				}
			],
			"payable": false,
			"stateMutability": "view",
			"type": "function"
		},
		{
			"constant": true,
			"inputs": [
				{
					"internalType": "address",
					"name": "account",
					"type": "address"
				}
			],
			"name": "earned",
			"outputs": [
				{
					"internalType": "uint256",
					"name": "",
					"type": "uint256"
				}
			],
			"payable": false,
			"stateMutability": "view",
			"type": "function"
		},
		{
			"constant": false,
			"inputs": [],
			"name": "exit",
			"outputs": [],
			"payable": false,
			"stateMutability": "nonpayable",
			"type": "function"
		},
		{
			"constant": false,
			"inputs": [],
			"name": "getReward",
			"outputs": [],
			"payable": false,
			"stateMutability": "nonpayable",
			"type": "function"
		},
		{
			"constant": true,
			"inputs": [],
			"name": "getRewardForDuration",
			"outputs": [
				{
					"internalType": "uint256",
					"name": "",
					"type": "uint256"
				}
			],
			"payable": false,
			"stateMutability": "view",
			"type": "function"
		},
		{
			"constant": true,
			"inputs": [],
			"name": "lastPauseTime",
			"outputs": [
				{
					"internalType": "uint256",
					"name": "",
					"type": "uint256"
				}
			],
			"payable": false,
			"stateMutability": "view",
			"type": "function"
		},
		{
			"constant": true,
			"inputs": [],
			"name": "lastTimeRewardApplicable",
			"outputs": [
				{
					"internalType": "uint256",
					"name": "",
					"type": "uint256"
				}
			],
			"payable": false,
			"stateMutability": "view",
			"type": "function"
		},
		{
			"constant": true,
			"inputs": [],
			"name": "lastUpdateTime",
			"outputs": [
				{
					"internalType": "uint256",
					"name": "",
					"type": "uint256"
				}
			],
			"payable": false,
			"stateMutability": "view",
			"type": "function"
		},
		{
			"constant": false,
			"inputs": [
				{
					"internalType": "address",
					"name": "_owner",
					"type": "address"
				}
			],
			"name": "nominateNewOwner",
			"outputs": [],
			"payable": false,
			"stateMutability": "nonpayable",
			"type": "function"
		},
		{
			"constant": true,
			"inputs": [],
			"name": "nominatedOwner",
			"outputs": [
				{
					"internalType": "address",
					"name": "",
					"type": "address"
				}
			],
			"payable": false,
			"stateMutability": "view",
			"type": "function"
		},
		{
			"constant": false,
			"inputs": [
				{
					"internalType": "uint256",
					"name": "reward",
					"type": "uint256"
				}
			],
			"name": "notifyRewardAmount",
			"outputs": [],
			"payable": false,
			"stateMutability": "nonpayable",
			"type": "function"
		},
		{
			"constant": true,
			"inputs": [],
			"name": "owner",
			"outputs": [
				{
					"internalType": "address",
					"name": "",
					"type": "address"
				}
			],
			"payable": false,
			"stateMutability": "view",
			"type": "function"
		},
		{
			"constant": true,
			"inputs": [],
			"name": "paused",
			"outputs": [
				{
					"internalType": "bool",
					"name": "",
					"type": "bool"
				}
			],
			"payable": false,
			"stateMutability": "view",
			"type": "function"
		},
		{
			"constant": true,
			"inputs": [],
			"name": "periodFinish",
			"outputs": [
				{
					"internalType": "uint256",
					"name": "",
					"type": "uint256"
				}
			],
			"payable": false,
			"stateMutability": "view",
			"type": "function"
		},
		{
			"constant": false,
			"inputs": [
				{
					"internalType": "address",
					"name": "tokenAddress",
					"type": "address"
				},
				{
					"internalType": "uint256",
					"name": "tokenAmount",
					"type": "uint256"
				}
			],
			"name": "recoverERC20",
			"outputs": [],
			"payable": false,
			"stateMutability": "nonpayable",
			"type": "function"
		},
		{
			"constant": true,
			"inputs": [],
			"name": "rewardPerToken",
			"outputs": [
				{
					"internalType": "uint256",
					"name": "",
					"type": "uint256"
				}
			],
			"payable": false,
			"stateMutability": "view",
			"type": "function"
		},
		{
			"constant": true,
			"inputs": [],
			"name": "rewardPerTokenStored",
			"outputs": [
				{
					"internalType": "uint256",
					"name": "",
					"type": "uint256"
				}
			],
			"payable": false,
			"stateMutability": "view",
			"type": "function"
		},
		{
			"constant": true,
			"inputs": [],
			"name": "rewardRate",
			"outputs": [
				{
					"internalType": "uint256",
					"name": "",
					"type": "uint256"
				}
			],
			"payable": false,
			"stateMutability": "view",
			"type": "function"
		},
		{
			"constant": true,
			"inputs": [
				{
					"internalType": "address",
					"name": "",
					"type": "address"
				}
			],
			"name": "rewards",
			"outputs": [
				{
					"internalType": "uint256",
					"name": "",
					"type": "uint256"
				}
			],
			"payable": false,
			"stateMutability": "view",
			"type": "function"
		},
		{
			"constant": true,
			"inputs": [],
			"name": "rewardsDistribution",
			"outputs": [
				{
					"internalType": "address",
					"name": "",
					"type": "address"
				}
			],
			"payable": false,
			"stateMutability": "view",
			"type": "function"
		},
		{
			"constant": true,
			"inputs": [],
			"name": "rewardsDuration",
			"outputs": [
				{
					"internalType": "uint256",
					"name": "",
					"type": "uint256"
				}
			],
			"payable": false,
			"stateMutability": "view",
			"type": "function"
		},
		{
			"constant": true,
			"inputs": [],
			"name": "rewardsToken",
			"outputs": [
				{
					"internalType": "contract IERC20",
					"name": "",
					"type": "address"
				}
			],
			"payable": false,
			"stateMutability": "view",
			"type": "function"
		},
		{
			"constant": false,
			"inputs": [
				{
					"internalType": "bool",
					"name": "_paused",
					"type": "bool"
				}
			],
			"name": "setPaused",
			"outputs": [],
			"payable": false,
			"stateMutability": "nonpayable",
			"type": "function"
		},
		{
			"constant": false,
			"inputs": [
				{
					"internalType": "address",
					"name": "_rewardsDistribution",
					"type": "address"
				}
			],
			"name": "setRewardsDistribution",
			"outputs": [],
			"payable": false,
			"stateMutability": "nonpayable",
			"type": "function"
		},
		{
			"constant": false,
			"inputs": [
				{
					"internalType": "uint256",
					"name": "_rewardsDuration",
					"type": "uint256"
				}
			],
			"name": "setRewardsDuration",
			"outputs": [],
			"payable": false,
			"stateMutability": "nonpayable",
			"type": "function"
		},
		{
			"constant": false,
			"inputs": [
				{
					"internalType": "uint256",
					"name": "amount",
					"type": "uint256"
				}
			],
			"name": "stake",
			"outputs": [],
			"payable": false,
			"stateMutability": "nonpayable",
			"type": "function"
		},
		{
			"constant": true,
			"inputs": [],
			"name": "stakingToken",
			"outputs": [
				{
					"internalType": "contract IERC20",
					"name": "",
					"type": "address"
				}
			],
			"payable": false,
			"stateMutability": "view",
			"type": "function"
		},
		{
			"constant": true,
			"inputs": [],
			"name": "totalSupply",
			"outputs": [
				{
					"internalType": "uint256",
					"name": "",
					"type": "uint256"
				}
			],
			"payable": false,
			"stateMutability": "view",
			"type": "function"
		},
		{
			"constant": true,
			"inputs": [
				{
					"internalType": "address",
					"name": "",
					"type": "address"
				}
			],
			"name": "userRewardPerTokenPaid",
			"outputs": [
				{
					"internalType": "uint256",
					"name": "",
					"type": "uint256"
				}
			],
			"payable": false,
			"stateMutability": "view",
			"type": "function"
		},
		{
			"constant": false,
			"inputs": [
				{
					"internalType": "uint256",
					"name": "amount",
					"type": "uint256"
				}
			],
			"name": "withdraw",
			"outputs": [],
			"payable": false,
			"stateMutability": "nonpayable",
			"type": "function"
		}
	],
	"evm": {
		"bytecode": {
			"linkReferences": {},
			"object": "60806040526000600762000012620002cd565b50506000600862000022620002cd565b505062093a80600962000034620002cd565b50503480156200004e576000806200004b62000331565b50505b506040516200277838038062002778833981810160405260808110156200007f576000806200007c62000331565b50505b8101908080519291906020018051929190602001805192919060200180519250859150506001600160a01b038116620001095760405162461bcd60e51b815260206004820152601960248201527f4f776e657220616464726573732063616e6e6f742062652030000000000000006044820152606401604051809103906200010662000331565b50505b806000600181620001196200039e565b816001600160a01b0302191690836001600160a01b03160217906200013d620002cd565b5050507fb532073b38c83145e3e5135377a08bf9aab55bc0fd7c1179cd4fb995d2a5159c6000826040516001600160a01b039283168152911660208201526040908101905180910390a150600180600362000197620002cd565b506000915081905080620001aa6200039e565b906101000a90046001600160a01b03166001600160a01b03161415620002155760405162461bcd60e51b815260206004820152601160248201527013dddb995c881b5d5cdd081899481cd95d607a1b6044820152606401604051809103906200021262000331565b50505b81600561010081620002266200039e565b816001600160a01b0302191690836001600160a01b03160217906200024a620002cd565b50505080600660006101000a81620002616200039e565b816001600160a01b0302191690836001600160a01b031602179062000285620002cd565b50505082600260006101000a816200029c6200039e565b816001600160a01b0302191690836001600160a01b0316021790620002c0620002cd565b50505050505050620003eb565b6322bd64c0598160e01b8152836004820152846024820152600081604483336000905af158600e01573d6000803e3d6000fd5b3d6001141558600a015760016000f35b60005b60408110156200032c5760008282015260200162000313565b505050565b632a2a7adb598160e01b8152600481016020815285602082015260005b868110156200036b5780860151828201604001526020016200034e565b506020828760640184336000905af158600e01573d6000803e3d6000fd5b3d6001141558600a015760016000f35b505050565b6303daa959598160e01b8152836004820152602081602483336000905af158600e01573d6000803e3d6000fd5b3d6001141558600a015760016000f35b8051600082529350602062000313565b61237d80620003fb6000396000f3fe608060405234801561001957600080610016611e84565b50505b50600436106101ed5760003560e01c806372f702f311610118578063a694fc3a116100ab578063d1af0c7d1161007a578063d1af0c7d146104c6578063df136d65146104ce578063e9fad8ee146104d6578063ebe2b12b146104de576101ed565b8063a694fc3a1461046a578063c8f33c9114610490578063cc1a378f14610498578063cd3daf9d146104be576101ed565b80638980f11f116100e75780638980f11f146103f65780638b8763471461042b5780638da5cb5b1461045a57806391b4ded914610462576101ed565b806372f702f3146103d657806379ba5097146103de5780637b0a47ee146103e657806380faa57d146103ee576101ed565b80632e1a7d4d116101905780633fc6df6e1161015f5780633fc6df6e1461035f57806353a47bb7146103835780635c975abb1461038b57806370a08231146103a7576101ed565b80632e1a7d4d14610303578063386a9525146103295780633c6b16ab146103315780633d18b91214610357576101ed565b806316c38b3c116101cc57806316c38b3c1461029c57806318160ddd146102c457806319762143146102cc5780631c1f78eb146102fb576101ed565b80628cc262146101fb5780630700037d1461023c5780631627540c1461026b575b6000806101f8611e84565b50505b61022a6004803603602081101561021a57600080610217611e84565b50505b50356001600160a01b03166104e6565b60405190815260200160405180910390f35b61022a6004803603602081101561025b57600080610258611e84565b50505b50356001600160a01b031661059d565b61029a6004803603602081101561028a57600080610287611e84565b50505b50356001600160a01b03166105b8565b005b61029a600480360360208110156102bb576000806102b8611e84565b50505b50351515610632565b61022a610708565b61029a600480360360208110156102eb576000806102e8611e84565b50505b50356001600160a01b031661071a565b61022a610758565b61029a600480360360208110156103225760008061031f611e84565b50505b5035610771565b61022a610a06565b61029a600480360360208110156103505760008061034d611e84565b50505b5035610a10565b61029a610dee565b610367611002565b6040516001600160a01b03909116815260200160405180910390f35b610367611021565b61039361102d565b604051901515815260200160405180910390f35b61022a600480360360208110156103c6576000806103c3611e84565b50505b50356001600160a01b0316611046565b610367611066565b61029a611072565b61022a6111f0565b61022a6111fa565b61029a6004803603604081101561041557600080610412611e84565b50505b506001600160a01b038135169060200135611217565b61022a6004803603602081101561044a57600080610447611e84565b50505b50356001600160a01b03166114e9565b610367611501565b61022a61150c565b61029a6004803603602081101561048957600080610486611e84565b50505b5035611516565b61022a611802565b61029a600480360360208110156104b7576000806104b4611e84565b50505b503561180c565b61022a6118ba565b610367611923565b61022a61192f565b61029a611939565b61022a611980565b6001600160a01b0381166000908152600d60205261059760408220610509611eef565b6001600160a01b0384166000908152600c60205261058b90670de0b6b3a76400009061057f90610553906040902061053f611eef565b6105476118ba565b9063ffffffff61198a16565b6001600160a01b0388166000908152600f60205260409020610573611eef565b9063ffffffff6119ef16565b9063ffffffff611a5816565b9063ffffffff611aca16565b92915050565b600d60205280600052604060002090506105b5611eef565b81565b6105c0611b29565b80600180806105cd611eef565b816001600160a01b0302191690836001600160a01b03160217906105ef611f4a565b5050507f906a1c6bd7e3091ea86693dd029a831c19049ce77f1dce2ce0bab1cacbabce22816040516001600160a01b03909116815260200160405180910390a150565b61063a611b29565b60006005610646611eef565b906101000a900460ff161515811515141561066057610705565b80600560018161066e611eef565b8160ff02191690831515021790610683611f4a565b5050506005600090610693611eef565b906101000a900460ff16156106ba575a6106ab611f98565b8060046106b6611f4a565b5050505b7f8fb6c181ee25a520cf3dd6565006ef91229fcfe5a989566c2a3b8c115570cec5600060056106e7611eef565b906101000a900460ff16604051901515815260200160405180910390a15b50565b6000600e610714611eef565b90505b90565b610722611b29565b806002600181610730611eef565b816001600160a01b0302191690836001600160a01b0316021790610752611f4a565b50505050565b60006107146009610767611eef565b6008610573611eef565b6001600360008282610781611eef565b01925050819061078f611f4a565b5050506000600361079e611eef565b90505a6107a9611fde565b6107b16118ba565b80600b6107bc611f4a565b5050506107c76111fa565b80600a6107d2611f4a565b5050506001600160a01b03811615610842576107ed816104e6565b6001600160a01b0382166000908152600d60205260409020819061080f611f4a565b505050600b61081c611eef565b6001600160a01b0382166000908152600c60205260409020819061083e611f4a565b5050505b600083116108935760405162461bcd60e51b8152602060048201526011602482015270043616e6e6f74207769746864726177203607c1b604482015260640160405180910390610890611e84565b50505b6108a183600e610547611eef565b80600e6108ac611f4a565b5050506108e883600f60005a6108c0611fde565b6001600160a01b03166001600160a01b03168152602001908152602001600020610547611eef565b600f60005a6108f5611fde565b6001600160a01b03166001600160a01b03168152602001908152602001600020819061091f611f4a565b50505061095a5a61092e611fde565b846000600661093b611eef565b6001600160a01b036101009290920a900416919063ffffffff611ba116565b5a610963611fde565b6001600160a01b03167f7084f5476618d8e60b11ef0d7d3f06914655adb8793e28ff7f018d4c76d505d58460405190815260200160405180910390a25060036109aa611eef565b8114610a025760405162461bcd60e51b815260206004820152601f60248201527f5265656e7472616e637947756172643a207265656e7472616e742063616c6c00604482015260640160405180910390610752611e84565b5050565b60096105b5611eef565b60006002610a1c611eef565b906101000a90046001600160a01b03166001600160a01b03165a610a3e611fde565b6001600160a01b031614610a8c5760405162461bcd60e51b815260040180806020018281038252602a815260200180612329602a913960400191505060405180910390610a89611e84565b50505b6000610a966118ba565b80600b610aa1611f4a565b505050610aac6111fa565b80600a610ab7611f4a565b5050506001600160a01b03811615610b2757610ad2816104e6565b6001600160a01b0382166000908152600d602052604090208190610af4611f4a565b505050600b610b01611eef565b6001600160a01b0382166000908152600c602052604090208190610b23611f4a565b5050505b6007610b31611eef565b5a610b3a611f98565b10610b6c57610b596009610b4c611eef565b839063ffffffff611a5816565b806008610b64611f4a565b505050610bd2565b6000610b845a610b7a611f98565b6007610547611eef565b90506000610ba26008610b95611eef565b839063ffffffff6119ef16565b9050610bc16009610bb1611eef565b61057f868463ffffffff611aca16565b806008610bcc611f4a565b50505050505b600060016005610be0611eef565b906101000a90046001600160a01b03166001600160a01b03166370a082315a63996d79a5598160e01b8152602081600483336000905af158600e01573d6000803e3d6000fd5b3d6001141558600a015760016000f35b8051925060005b6040811015610c5457600082820152602001610c3d565b5050506040516001600160e01b031960e084901b1681526001600160a01b0390911660048201526024016020604051808303818680610c91612024565b158015610ca657600080610ca3611e84565b50505b505a610cb0612070565b5050505050158015610ccf573d6000803e3d6000610ccc611e84565b50505b505050506040513d6020811015610cee57600080610ceb611e84565b50505b8101908080519350610d16925060099150610d099050611eef565b829063ffffffff611a5816565b6008610d20611eef565b1115610d7b5760405162461bcd60e51b815260206004820152601860248201527f50726f76696465642072657761726420746f6f20686967680000000000000000604482015260640160405180910390610d78611e84565b50505b5a610d84611f98565b80600a610d8f611f4a565b505050610da86009610d9f611eef565b5a61058b611f98565b806007610db3611f4a565b5050507fde88a922e0d3b88b24e9623efeb464919c6bf9f66857a65e2bfcf2ce87a9433d8360405190815260200160405180910390a1505050565b6001600360008282610dfe611eef565b019250508190610e0c611f4a565b50505060006003610e1b611eef565b90505a610e26611fde565b610e2e6118ba565b80600b610e39611f4a565b505050610e446111fa565b80600a610e4f611f4a565b5050506001600160a01b03811615610ebf57610e6a816104e6565b6001600160a01b0382166000908152600d602052604090208190610e8c611f4a565b505050600b610e99611eef565b6001600160a01b0382166000908152600c602052604090208190610ebb611f4a565b5050505b6000600d60005a610ece611fde565b6001600160a01b03166001600160a01b03168152602001908152602001600020610ef6611eef565b90508015610f99576000600d60005a610f0d611fde565b6001600160a01b03166001600160a01b031681526020019081526020016000208190610f37611f4a565b505050610f535a610f46611fde565b826001600561093b611eef565b5a610f5c611fde565b6001600160a01b03167fe2403640ba68fed3a2f88b7557551d1993f84b99bb10ff833f0cf8db0c5e04868260405190815260200160405180910390a25b50506003610fa5611eef565b81146107055760405162461bcd60e51b815260206004820152601f60248201527f5265656e7472616e637947756172643a207265656e7472616e742063616c6c00604482015260640160405180910390610ffd611e84565b505050565b6000600261100e611eef565b906101000a90046001600160a01b031681565b6000600161100e611eef565b60006005611039611eef565b906101000a900460ff1681565b6001600160a01b0381166000908152600f60205260408120610597611eef565b6000600661100e611eef565b6000600161107e611eef565b906101000a90046001600160a01b03166001600160a01b03165a6110a0611fde565b6001600160a01b0316146110ee5760405162461bcd60e51b815260040180806020018281038252603581526020018061223b60359139604001915050604051809103906110eb611e84565b50505b7fb532073b38c83145e3e5135377a08bf9aab55bc0fd7c1179cd4fb995d2a5159c60008061111a611eef565b906101000a90046001600160a01b03166001600090611137611eef565b906101000a90046001600160a01b03166040516001600160a01b039283168152911660208201526040908101905180910390a160006001611176611eef565b906101000a90046001600160a01b03166000806101000a81611196611eef565b816001600160a01b0302191690836001600160a01b03160217906111b8611f4a565b5050506000600160006101000a816111ce611eef565b816001600160a01b0302191690836001600160a01b0316021790610ffd611f4a565b60086105b5611eef565b60006107145a611208611f98565b6007611212611eef565b611bfd565b61121f611b29565b6000826001600160a01b03166395d89b416040518163ffffffff1660e01b81526004016000604051808303818680611255612024565b15801561126a57600080611267611e84565b50505b505a611274612070565b5050505050158015611293573d6000803e3d6000611290611e84565b50505b505050506040513d6000823e601f3d908101601f1916820160405260208110156112c5576000806112c2611e84565b50505b81019080805160405193929190846401000000008211156112ee576000806112eb611e84565b50505b90830190602082018581111561130c57600080611309611e84565b50505b825164010000000081118282018810171561132f5760008061132c611e84565b50505b825250602001908051906020019080838360005b8381101561135b578082015183820152602001611343565b50505050905090810190601f1680156113885780820380516001836020036101000a031916815260200191505b50604052505050805190602001206040516040808201905260038152620a69cb60eb1b602082015280519060200120149050600060066113c6611eef565b906101000a90046001600160a01b03166001600160a01b0316836001600160a01b0316141580156114245750600160056113fe611eef565b906101000a90046001600160a01b03166001600160a01b0316836001600160a01b031614155b801561142e575080155b6114725760405162461bcd60e51b815260040180806020018281038252602d8152602001806122fc602d91396040019150506040518091039061146f611e84565b50505b6114a0600080611480611eef565b6001600160a01b03868116926101000a909104168463ffffffff611ba116565b7f8c1256b8896378cd5044f80c202f9772b9d77dc85c8a6eb51967210b09bfaa2883836040516001600160a01b03909216825260208201526040908101905180910390a1505050565b600c60205280600052604060002090506105b5611eef565b60008061100e611eef565b60046105b5611eef565b6001600360008282611526611eef565b019250508190611534611f4a565b50505060006003611543611eef565b905060006005611551611eef565b906101000a900460ff16156115a05760405162461bcd60e51b815260040180806020018281038252603c8152602001806122c0603c91396040019150506040518091039061159d611e84565b50505b5a6115a9611fde565b6115b16118ba565b80600b6115bc611f4a565b5050506115c76111fa565b80600a6115d2611f4a565b5050506001600160a01b03811615611642576115ed816104e6565b6001600160a01b0382166000908152600d60205260409020819061160f611f4a565b505050600b61161c611eef565b6001600160a01b0382166000908152600c60205260409020819061163e611f4a565b5050505b600083116116905760405162461bcd60e51b815260206004820152600e60248201526d043616e6e6f74207374616b6520360941b60448201526064016040518091039061168d611e84565b50505b61169e83600e61058b611eef565b80600e6116a9611f4a565b5050506116e583600f60005a6116bd611fde565b6001600160a01b03166001600160a01b0316815260200190815260200160002061058b611eef565b600f60005a6116f2611fde565b6001600160a01b03166001600160a01b03168152602001908152602001600020819061171c611f4a565b5050506117b25a61172b611fde565b5a63996d79a5598160e01b8152602081600483336000905af158600e01573d6000803e3d6000fd5b3d6001141558600a015760016000f35b8051925060005b60408110156117815760008282015260200161176a565b505050856006600090611792611eef565b6001600160a01b036101009290920a90041692919063ffffffff611c1316565b5a6117bb611fde565b6001600160a01b03167f9e71bc8eea02a63969f509818f2dafb9254532904319f9dbda79b67bd34a5f3d8460405190815260200160405180910390a25060036109aa611eef565b600a6105b5611eef565b611814611b29565b600761181e611eef565b5a611827611f98565b1161186c5760405162461bcd60e51b81526004018080602001828103825260588152602001806121e36058913960600191505060405180910390611869611e84565b50505b80806009611878611f4a565b5050507ffb46ca5a5e06d4540d6387b930a7c978bce0db5f449ec6b3f5d07c6e1d44f2d360096118a6611eef565b60405190815260200160405180910390a150565b6000600e6118c6611eef565b6118db57600b6118d4611eef565b9050610717565b610714611919600e6118eb611eef565b61057f670de0b6b3a76400006105736008611904611eef565b610573600a611911611eef565b6105476111fa565b600b61058b611eef565b6001600561100e611eef565b600b6105b5611eef565b611976600f60005a611949611fde565b6001600160a01b03166001600160a01b03168152602001908152602001600020611971611eef565b610771565b61197e610dee565b565b60076105b5611eef565b6000828211156119e95760405162461bcd60e51b815260206004820152601e60248201527f536166654d6174683a207375627472616374696f6e206f766572666c6f7700006044820152606401604051809103906119e6611e84565b50505b50900390565b6000826119fe57506000610597565b82820282848281611a0b57fe5b0414611a515760405162461bcd60e51b815260040180806020018281038252602181526020018061229f6021913960400191505060405180910390611a4e611e84565b50505b9392505050565b6000808211611ab65760405162461bcd60e51b815260206004820152601a60248201527f536166654d6174683a206469766973696f6e206279207a65726f000000000000604482015260640160405180910390611ab3611e84565b50505b6000828481611ac157fe5b04949350505050565b600082820183811015611a515760405162461bcd60e51b815260206004820152601b60248201527f536166654d6174683a206164646974696f6e206f766572666c6f770000000000604482015260640160405180910390611a4e611e84565b600080611b34611eef565b906101000a90046001600160a01b03166001600160a01b03165a611b56611fde565b6001600160a01b03161461197e5760405162461bcd60e51b815260040180806020018281038252602f815260200180612270602f913960400191505060405180910390610a02611e84565b610ffd8363a9059cbb60e01b84846040516001600160a01b0390921660248301526044820152606401604051602081830303815290604052906001600160e01b0319166020820180516001600160e01b03169091179052611c78565b6000818310611c0c5781611a51565b5090919050565b610752846323b872dd60e01b8585856040516001600160a01b0393841660248201529190921660448201526064810191909152608401604051602081830303815290604052906001600160e01b0319166020820180516001600160e01b031690911790525b611c8a826001600160a01b0316611e6f565b611ce35760405162461bcd60e51b815260206004820152601f60248201527f5361666545524332303a2063616c6c20746f206e6f6e2d636f6e747261637400604482015260640160405180910390611ce0611e84565b50505b60006060836001600160a01b0316836040518082805190602001908083835b60208310611d215780518252601f199092019160209182019101611d02565b6001836020036101000a0380198251168184511680821785525050505050509050019150506000604051808303816000865a611d5b612129565b5050505050509150503d8060008114611d90576040513d603f01601f191681016040523d815291503d6000602084013e611d95565b606091505b509150915081611df45760405162461bcd60e51b815260206004820181905260248201527f5361666545524332303a206c6f772d6c6576656c2063616c6c206661696c6564604482015260640160405180910390611df1611e84565b50505b600081511115610752576020810181516020811015611e1b57600080611e18611e84565b50505b81019080805192506107529150505760405162461bcd60e51b815260040180806020018281038252602a815260200180612353602a913960400191505060405180910390611e67611e84565b505050505050565b60008082611e7b612024565b15159392505050565b632a2a7adb598160e01b8152600481016020815285602082015260005b86811015611ebc578086015182820160400152602001611ea1565b506020828760640184336000905af158600e01573d6000803e3d6000fd5b3d6001141558600a015760016000f35b505050565b6303daa959598160e01b8152836004820152602081602483336000905af158600e01573d6000803e3d6000fd5b3d6001141558600a015760016000f35b8051935060005b6040811015610ffd57600082820152602001611f33565b6322bd64c0598160e01b8152836004820152846024820152600081604483336000905af158600e01573d6000803e3d6000fd5b3d6001141558600a015760016000f35b600081526020611f33565b63bdbf8c36598160e01b8152602081600483336000905af158600e01573d6000803e3d6000fd5b3d6001141558600a015760016000f35b80516000825293506020611f33565b6373509064598160e01b8152602081600483336000905af158600e01573d6000803e3d6000fd5b3d6001141558600a015760016000f35b80516000825293506020611f33565b638435035b598160e01b8152836004820152602081602483336000905af158600e01573d6000803e3d6000fd5b3d6001141558600a015760016000f35b80516000825293506020611f33565b638540661f598160e01b8152836004820152846024820152606060448201528660648201526084810160005b888110156120b457808801518282015260200161209c565b50876101040182016060838a6101040185336000905af158600e01573d6000803e3d6000fd5b3d6001141558600a015760016000f35b825160408401513d6000863e8c8c82606088013350600060045af15059855b8181101561211d5760008152602001612109565b50919c50505050505050565b6385979f76598160e01b8152836004820152846024820152606060448201528760648201526084810160005b8981101561216d578089015182820152602001612155565b50886101040182016060838b6101040185336000905af158600e01573d6000803e3d6000fd5b3d6001141558600a015760016000f35b825160408401513d6000863e8d8d82606088013350600060045af15059855b818110156121d657600081526020016121c2565b50919d5050505050505056fe50726576696f7573207265776172647320706572696f64206d75737420626520636f6d706c657465206265666f7265206368616e67696e6720746865206475726174696f6e20666f7220746865206e657720706572696f64596f75206d757374206265206e6f6d696e61746564206265666f726520796f752063616e20616363657074206f776e6572736869704f6e6c792074686520636f6e7472616374206f776e6572206d617920706572666f726d207468697320616374696f6e536166654d6174683a206d756c7469706c69636174696f6e206f766572666c6f775468697320616374696f6e2063616e6e6f7420626520706572666f726d6564207768696c652074686520636f6e74726163742069732070617573656443616e6e6f7420776974686472617720746865207374616b696e67206f72207265776172647320746f6b656e7343616c6c6572206973206e6f742052657761726473446973747269627574696f6e20636f6e74726163745361666545524332303a204552433230206f7065726174696f6e20646964206e6f742073756363656564",
			"opcodes": "PUSH1 0x80 PUSH1 0x40 MSTORE PUSH1 0x0 PUSH1 0x7 PUSH3 0x12 PUSH3 0x2CD JUMP JUMPDEST POP POP PUSH1 0x0 PUSH1 0x8 PUSH3 0x22 PUSH3 0x2CD JUMP JUMPDEST POP POP PUSH3 0x93A80 PUSH1 0x9 PUSH3 0x34 PUSH3 0x2CD JUMP JUMPDEST POP POP CALLVALUE DUP1 ISZERO PUSH3 0x4E JUMPI PUSH1 0x0 DUP1 PUSH3 0x4B PUSH3 0x331 JUMP JUMPDEST POP POP JUMPDEST POP PUSH1 0x40 MLOAD PUSH3 0x2778 CODESIZE SUB DUP1 PUSH3 0x2778 DUP4 CODECOPY DUP2 DUP2 ADD PUSH1 0x40 MSTORE PUSH1 0x80 DUP2 LT ISZERO PUSH3 0x7F JUMPI PUSH1 0x0 DUP1 PUSH3 0x7C PUSH3 0x331 JUMP JUMPDEST POP POP JUMPDEST DUP2 ADD SWAP1 DUP1 DUP1 MLOAD SWAP3 SWAP2 SWAP1 PUSH1 0x20 ADD DUP1 MLOAD SWAP3 SWAP2 SWAP1 PUSH1 0x20 ADD DUP1 MLOAD SWAP3 SWAP2 SWAP1 PUSH1 0x20 ADD DUP1 MLOAD SWAP3 POP DUP6 SWAP2 POP POP PUSH1 0x1 PUSH1 0x1 PUSH1 0xA0 SHL SUB DUP2 AND PUSH3 0x109 JUMPI PUSH1 0x40 MLOAD PUSH3 0x461BCD PUSH1 0xE5 SHL DUP2 MSTORE PUSH1 0x20 PUSH1 0x4 DUP3 ADD MSTORE PUSH1 0x19 PUSH1 0x24 DUP3 ADD MSTORE PUSH32 0x4F776E657220616464726573732063616E6E6F74206265203000000000000000 PUSH1 0x44 DUP3 ADD MSTORE PUSH1 0x64 ADD PUSH1 0x40 MLOAD DUP1 SWAP2 SUB SWAP1 PUSH3 0x106 PUSH3 0x331 JUMP JUMPDEST POP POP JUMPDEST DUP1 PUSH1 0x0 PUSH1 0x1 DUP2 PUSH3 0x119 PUSH3 0x39E JUMP JUMPDEST DUP2 PUSH1 0x1 PUSH1 0x1 PUSH1 0xA0 SHL SUB MUL NOT AND SWAP1 DUP4 PUSH1 0x1 PUSH1 0x1 PUSH1 0xA0 SHL SUB AND MUL OR SWAP1 PUSH3 0x13D PUSH3 0x2CD JUMP JUMPDEST POP POP POP PUSH32 0xB532073B38C83145E3E5135377A08BF9AAB55BC0FD7C1179CD4FB995D2A5159C PUSH1 0x0 DUP3 PUSH1 0x40 MLOAD PUSH1 0x1 PUSH1 0x1 PUSH1 0xA0 SHL SUB SWAP3 DUP4 AND DUP2 MSTORE SWAP2 AND PUSH1 0x20 DUP3 ADD MSTORE PUSH1 0x40 SWAP1 DUP2 ADD SWAP1 MLOAD DUP1 SWAP2 SUB SWAP1 LOG1 POP PUSH1 0x1 DUP1 PUSH1 0x3 PUSH3 0x197 PUSH3 0x2CD JUMP JUMPDEST POP PUSH1 0x0 SWAP2 POP DUP2 SWAP1 POP DUP1 PUSH3 0x1AA PUSH3 0x39E JUMP JUMPDEST SWAP1 PUSH2 0x100 EXP SWAP1 DIV PUSH1 0x1 PUSH1 0x1 PUSH1 0xA0 SHL SUB AND PUSH1 0x1 PUSH1 0x1 PUSH1 0xA0 SHL SUB AND EQ ISZERO PUSH3 0x215 JUMPI PUSH1 0x40 MLOAD PUSH3 0x461BCD PUSH1 0xE5 SHL DUP2 MSTORE PUSH1 0x20 PUSH1 0x4 DUP3 ADD MSTORE PUSH1 0x11 PUSH1 0x24 DUP3 ADD MSTORE PUSH17 0x13DDDB995C881B5D5CDD081899481CD95D PUSH1 0x7A SHL PUSH1 0x44 DUP3 ADD MSTORE PUSH1 0x64 ADD PUSH1 0x40 MLOAD DUP1 SWAP2 SUB SWAP1 PUSH3 0x212 PUSH3 0x331 JUMP JUMPDEST POP POP JUMPDEST DUP2 PUSH1 0x5 PUSH2 0x100 DUP2 PUSH3 0x226 PUSH3 0x39E JUMP JUMPDEST DUP2 PUSH1 0x1 PUSH1 0x1 PUSH1 0xA0 SHL SUB MUL NOT AND SWAP1 DUP4 PUSH1 0x1 PUSH1 0x1 PUSH1 0xA0 SHL SUB AND MUL OR SWAP1 PUSH3 0x24A PUSH3 0x2CD JUMP JUMPDEST POP POP POP DUP1 PUSH1 0x6 PUSH1 0x0 PUSH2 0x100 EXP DUP2 PUSH3 0x261 PUSH3 0x39E JUMP JUMPDEST DUP2 PUSH1 0x1 PUSH1 0x1 PUSH1 0xA0 SHL SUB MUL NOT AND SWAP1 DUP4 PUSH1 0x1 PUSH1 0x1 PUSH1 0xA0 SHL SUB AND MUL OR SWAP1 PUSH3 0x285 PUSH3 0x2CD JUMP JUMPDEST POP POP POP DUP3 PUSH1 0x2 PUSH1 0x0 PUSH2 0x100 EXP DUP2 PUSH3 0x29C PUSH3 0x39E JUMP JUMPDEST DUP2 PUSH1 0x1 PUSH1 0x1 PUSH1 0xA0 SHL SUB MUL NOT AND SWAP1 DUP4 PUSH1 0x1 PUSH1 0x1 PUSH1 0xA0 SHL SUB AND MUL OR SWAP1 PUSH3 0x2C0 PUSH3 0x2CD JUMP JUMPDEST POP POP POP POP POP POP POP PUSH3 0x3EB JUMP JUMPDEST PUSH4 0x22BD64C0 MSIZE DUP2 PUSH1 0xE0 SHL DUP2 MSTORE DUP4 PUSH1 0x4 DUP3 ADD MSTORE DUP5 PUSH1 0x24 DUP3 ADD MSTORE PUSH1 0x0 DUP2 PUSH1 0x44 DUP4 CALLER PUSH1 0x0 SWAP1 GAS CALL PC PUSH1 0xE ADD JUMPI RETURNDATASIZE PUSH1 0x0 DUP1 RETURNDATACOPY RETURNDATASIZE PUSH1 0x0 REVERT JUMPDEST RETURNDATASIZE PUSH1 0x1 EQ ISZERO PC PUSH1 0xA ADD JUMPI PUSH1 0x1 PUSH1 0x0 RETURN JUMPDEST PUSH1 0x0 JUMPDEST PUSH1 0x40 DUP2 LT ISZERO PUSH3 0x32C JUMPI PUSH1 0x0 DUP3 DUP3 ADD MSTORE PUSH1 0x20 ADD PUSH3 0x313 JUMP JUMPDEST POP POP POP JUMP JUMPDEST PUSH4 0x2A2A7ADB MSIZE DUP2 PUSH1 0xE0 SHL DUP2 MSTORE PUSH1 0x4 DUP2 ADD PUSH1 0x20 DUP2 MSTORE DUP6 PUSH1 0x20 DUP3 ADD MSTORE PUSH1 0x0 JUMPDEST DUP7 DUP2 LT ISZERO PUSH3 0x36B JUMPI DUP1 DUP7 ADD MLOAD DUP3 DUP3 ADD PUSH1 0x40 ADD MSTORE PUSH1 0x20 ADD PUSH3 0x34E JUMP JUMPDEST POP PUSH1 0x20 DUP3 DUP8 PUSH1 0x64 ADD DUP5 CALLER PUSH1 0x0 SWAP1 GAS CALL PC PUSH1 0xE ADD JUMPI RETURNDATASIZE PUSH1 0x0 DUP1 RETURNDATACOPY RETURNDATASIZE PUSH1 0x0 REVERT JUMPDEST RETURNDATASIZE PUSH1 0x1 EQ ISZERO PC PUSH1 0xA ADD JUMPI PUSH1 0x1 PUSH1 0x0 RETURN JUMPDEST POP POP POP JUMP JUMPDEST PUSH4 0x3DAA959 MSIZE DUP2 PUSH1 0xE0 SHL DUP2 MSTORE DUP4 PUSH1 0x4 DUP3 ADD MSTORE PUSH1 0x20 DUP2 PUSH1 0x24 DUP4 CALLER PUSH1 0x0 SWAP1 GAS CALL PC PUSH1 0xE ADD JUMPI RETURNDATASIZE PUSH1 0x0 DUP1 RETURNDATACOPY RETURNDATASIZE PUSH1 0x0 REVERT JUMPDEST RETURNDATASIZE PUSH1 0x1 EQ ISZERO PC PUSH1 0xA ADD JUMPI PUSH1 0x1 PUSH1 0x0 RETURN JUMPDEST DUP1 MLOAD PUSH1 0x0 DUP3 MSTORE SWAP4 POP PUSH1 0x20 PUSH3 0x313 JUMP JUMPDEST PUSH2 0x237D DUP1 PUSH3 0x3FB PUSH1 0x0 CODECOPY PUSH1 0x0 RETURN INVALID PUSH1 0x80 PUSH1 0x40 MSTORE CALLVALUE DUP1 ISZERO PUSH2 0x19 JUMPI PUSH1 0x0 DUP1 PUSH2 0x16 PUSH2 0x1E84 JUMP JUMPDEST POP POP JUMPDEST POP PUSH1 0x4 CALLDATASIZE LT PUSH2 0x1ED JUMPI PUSH1 0x0 CALLDATALOAD PUSH1 0xE0 SHR DUP1 PUSH4 0x72F702F3 GT PUSH2 0x118 JUMPI DUP1 PUSH4 0xA694FC3A GT PUSH2 0xAB JUMPI DUP1 PUSH4 0xD1AF0C7D GT PUSH2 0x7A JUMPI DUP1 PUSH4 0xD1AF0C7D EQ PUSH2 0x4C6 JUMPI DUP1 PUSH4 0xDF136D65 EQ PUSH2 0x4CE JUMPI DUP1 PUSH4 0xE9FAD8EE EQ PUSH2 0x4D6 JUMPI DUP1 PUSH4 0xEBE2B12B EQ PUSH2 0x4DE JUMPI PUSH2 0x1ED JUMP JUMPDEST DUP1 PUSH4 0xA694FC3A EQ PUSH2 0x46A JUMPI DUP1 PUSH4 0xC8F33C91 EQ PUSH2 0x490 JUMPI DUP1 PUSH4 0xCC1A378F EQ PUSH2 0x498 JUMPI DUP1 PUSH4 0xCD3DAF9D EQ PUSH2 0x4BE JUMPI PUSH2 0x1ED JUMP JUMPDEST DUP1 PUSH4 0x8980F11F GT PUSH2 0xE7 JUMPI DUP1 PUSH4 0x8980F11F EQ PUSH2 0x3F6 JUMPI DUP1 PUSH4 0x8B876347 EQ PUSH2 0x42B JUMPI DUP1 PUSH4 0x8DA5CB5B EQ PUSH2 0x45A JUMPI DUP1 PUSH4 0x91B4DED9 EQ PUSH2 0x462 JUMPI PUSH2 0x1ED JUMP JUMPDEST DUP1 PUSH4 0x72F702F3 EQ PUSH2 0x3D6 JUMPI DUP1 PUSH4 0x79BA5097 EQ PUSH2 0x3DE JUMPI DUP1 PUSH4 0x7B0A47EE EQ PUSH2 0x3E6 JUMPI DUP1 PUSH4 0x80FAA57D EQ PUSH2 0x3EE JUMPI PUSH2 0x1ED JUMP JUMPDEST DUP1 PUSH4 0x2E1A7D4D GT PUSH2 0x190 JUMPI DUP1 PUSH4 0x3FC6DF6E GT PUSH2 0x15F JUMPI DUP1 PUSH4 0x3FC6DF6E EQ PUSH2 0x35F JUMPI DUP1 PUSH4 0x53A47BB7 EQ PUSH2 0x383 JUMPI DUP1 PUSH4 0x5C975ABB EQ PUSH2 0x38B JUMPI DUP1 PUSH4 0x70A08231 EQ PUSH2 0x3A7 JUMPI PUSH2 0x1ED JUMP JUMPDEST DUP1 PUSH4 0x2E1A7D4D EQ PUSH2 0x303 JUMPI DUP1 PUSH4 0x386A9525 EQ PUSH2 0x329 JUMPI DUP1 PUSH4 0x3C6B16AB EQ PUSH2 0x331 JUMPI DUP1 PUSH4 0x3D18B912 EQ PUSH2 0x357 JUMPI PUSH2 0x1ED JUMP JUMPDEST DUP1 PUSH4 0x16C38B3C GT PUSH2 0x1CC JUMPI DUP1 PUSH4 0x16C38B3C EQ PUSH2 0x29C JUMPI DUP1 PUSH4 0x18160DDD EQ PUSH2 0x2C4 JUMPI DUP1 PUSH4 0x19762143 EQ PUSH2 0x2CC JUMPI DUP1 PUSH4 0x1C1F78EB EQ PUSH2 0x2FB JUMPI PUSH2 0x1ED JUMP JUMPDEST DUP1 PUSH3 0x8CC262 EQ PUSH2 0x1FB JUMPI DUP1 PUSH4 0x700037D EQ PUSH2 0x23C JUMPI DUP1 PUSH4 0x1627540C EQ PUSH2 0x26B JUMPI JUMPDEST PUSH1 0x0 DUP1 PUSH2 0x1F8 PUSH2 0x1E84 JUMP JUMPDEST POP POP JUMPDEST PUSH2 0x22A PUSH1 0x4 DUP1 CALLDATASIZE SUB PUSH1 0x20 DUP2 LT ISZERO PUSH2 0x21A JUMPI PUSH1 0x0 DUP1 PUSH2 0x217 PUSH2 0x1E84 JUMP JUMPDEST POP POP JUMPDEST POP CALLDATALOAD PUSH1 0x1 PUSH1 0x1 PUSH1 0xA0 SHL SUB AND PUSH2 0x4E6 JUMP JUMPDEST PUSH1 0x40 MLOAD SWAP1 DUP2 MSTORE PUSH1 0x20 ADD PUSH1 0x40 MLOAD DUP1 SWAP2 SUB SWAP1 RETURN JUMPDEST PUSH2 0x22A PUSH1 0x4 DUP1 CALLDATASIZE SUB PUSH1 0x20 DUP2 LT ISZERO PUSH2 0x25B JUMPI PUSH1 0x0 DUP1 PUSH2 0x258 PUSH2 0x1E84 JUMP JUMPDEST POP POP JUMPDEST POP CALLDATALOAD PUSH1 0x1 PUSH1 0x1 PUSH1 0xA0 SHL SUB AND PUSH2 0x59D JUMP JUMPDEST PUSH2 0x29A PUSH1 0x4 DUP1 CALLDATASIZE SUB PUSH1 0x20 DUP2 LT ISZERO PUSH2 0x28A JUMPI PUSH1 0x0 DUP1 PUSH2 0x287 PUSH2 0x1E84 JUMP JUMPDEST POP POP JUMPDEST POP CALLDATALOAD PUSH1 0x1 PUSH1 0x1 PUSH1 0xA0 SHL SUB AND PUSH2 0x5B8 JUMP JUMPDEST STOP JUMPDEST PUSH2 0x29A PUSH1 0x4 DUP1 CALLDATASIZE SUB PUSH1 0x20 DUP2 LT ISZERO PUSH2 0x2BB JUMPI PUSH1 0x0 DUP1 PUSH2 0x2B8 PUSH2 0x1E84 JUMP JUMPDEST POP POP JUMPDEST POP CALLDATALOAD ISZERO ISZERO PUSH2 0x632 JUMP JUMPDEST PUSH2 0x22A PUSH2 0x708 JUMP JUMPDEST PUSH2 0x29A PUSH1 0x4 DUP1 CALLDATASIZE SUB PUSH1 0x20 DUP2 LT ISZERO PUSH2 0x2EB JUMPI PUSH1 0x0 DUP1 PUSH2 0x2E8 PUSH2 0x1E84 JUMP JUMPDEST POP POP JUMPDEST POP CALLDATALOAD PUSH1 0x1 PUSH1 0x1 PUSH1 0xA0 SHL SUB AND PUSH2 0x71A JUMP JUMPDEST PUSH2 0x22A PUSH2 0x758 JUMP JUMPDEST PUSH2 0x29A PUSH1 0x4 DUP1 CALLDATASIZE SUB PUSH1 0x20 DUP2 LT ISZERO PUSH2 0x322 JUMPI PUSH1 0x0 DUP1 PUSH2 0x31F PUSH2 0x1E84 JUMP JUMPDEST POP POP JUMPDEST POP CALLDATALOAD PUSH2 0x771 JUMP JUMPDEST PUSH2 0x22A PUSH2 0xA06 JUMP JUMPDEST PUSH2 0x29A PUSH1 0x4 DUP1 CALLDATASIZE SUB PUSH1 0x20 DUP2 LT ISZERO PUSH2 0x350 JUMPI PUSH1 0x0 DUP1 PUSH2 0x34D PUSH2 0x1E84 JUMP JUMPDEST POP POP JUMPDEST POP CALLDATALOAD PUSH2 0xA10 JUMP JUMPDEST PUSH2 0x29A PUSH2 0xDEE JUMP JUMPDEST PUSH2 0x367 PUSH2 0x1002 JUMP JUMPDEST PUSH1 0x40 MLOAD PUSH1 0x1 PUSH1 0x1 PUSH1 0xA0 SHL SUB SWAP1 SWAP2 AND DUP2 MSTORE PUSH1 0x20 ADD PUSH1 0x40 MLOAD DUP1 SWAP2 SUB SWAP1 RETURN JUMPDEST PUSH2 0x367 PUSH2 0x1021 JUMP JUMPDEST PUSH2 0x393 PUSH2 0x102D JUMP JUMPDEST PUSH1 0x40 MLOAD SWAP1 ISZERO ISZERO DUP2 MSTORE PUSH1 0x20 ADD PUSH1 0x40 MLOAD DUP1 SWAP2 SUB SWAP1 RETURN JUMPDEST PUSH2 0x22A PUSH1 0x4 DUP1 CALLDATASIZE SUB PUSH1 0x20 DUP2 LT ISZERO PUSH2 0x3C6 JUMPI PUSH1 0x0 DUP1 PUSH2 0x3C3 PUSH2 0x1E84 JUMP JUMPDEST POP POP JUMPDEST POP CALLDATALOAD PUSH1 0x1 PUSH1 0x1 PUSH1 0xA0 SHL SUB AND PUSH2 0x1046 JUMP JUMPDEST PUSH2 0x367 PUSH2 0x1066 JUMP JUMPDEST PUSH2 0x29A PUSH2 0x1072 JUMP JUMPDEST PUSH2 0x22A PUSH2 0x11F0 JUMP JUMPDEST PUSH2 0x22A PUSH2 0x11FA JUMP JUMPDEST PUSH2 0x29A PUSH1 0x4 DUP1 CALLDATASIZE SUB PUSH1 0x40 DUP2 LT ISZERO PUSH2 0x415 JUMPI PUSH1 0x0 DUP1 PUSH2 0x412 PUSH2 0x1E84 JUMP JUMPDEST POP POP JUMPDEST POP PUSH1 0x1 PUSH1 0x1 PUSH1 0xA0 SHL SUB DUP2 CALLDATALOAD AND SWAP1 PUSH1 0x20 ADD CALLDATALOAD PUSH2 0x1217 JUMP JUMPDEST PUSH2 0x22A PUSH1 0x4 DUP1 CALLDATASIZE SUB PUSH1 0x20 DUP2 LT ISZERO PUSH2 0x44A JUMPI PUSH1 0x0 DUP1 PUSH2 0x447 PUSH2 0x1E84 JUMP JUMPDEST POP POP JUMPDEST POP CALLDATALOAD PUSH1 0x1 PUSH1 0x1 PUSH1 0xA0 SHL SUB AND PUSH2 0x14E9 JUMP JUMPDEST PUSH2 0x367 PUSH2 0x1501 JUMP JUMPDEST PUSH2 0x22A PUSH2 0x150C JUMP JUMPDEST PUSH2 0x29A PUSH1 0x4 DUP1 CALLDATASIZE SUB PUSH1 0x20 DUP2 LT ISZERO PUSH2 0x489 JUMPI PUSH1 0x0 DUP1 PUSH2 0x486 PUSH2 0x1E84 JUMP JUMPDEST POP POP JUMPDEST POP CALLDATALOAD PUSH2 0x1516 JUMP JUMPDEST PUSH2 0x22A PUSH2 0x1802 JUMP JUMPDEST PUSH2 0x29A PUSH1 0x4 DUP1 CALLDATASIZE SUB PUSH1 0x20 DUP2 LT ISZERO PUSH2 0x4B7 JUMPI PUSH1 0x0 DUP1 PUSH2 0x4B4 PUSH2 0x1E84 JUMP JUMPDEST POP POP JUMPDEST POP CALLDATALOAD PUSH2 0x180C JUMP JUMPDEST PUSH2 0x22A PUSH2 0x18BA JUMP JUMPDEST PUSH2 0x367 PUSH2 0x1923 JUMP JUMPDEST PUSH2 0x22A PUSH2 0x192F JUMP JUMPDEST PUSH2 0x29A PUSH2 0x1939 JUMP JUMPDEST PUSH2 0x22A PUSH2 0x1980 JUMP JUMPDEST PUSH1 0x1 PUSH1 0x1 PUSH1 0xA0 SHL SUB DUP2 AND PUSH1 0x0 SWAP1 DUP2 MSTORE PUSH1 0xD PUSH1 0x20 MSTORE PUSH2 0x597 PUSH1 0x40 DUP3 KECCAK256 PUSH2 0x509 PUSH2 0x1EEF JUMP JUMPDEST PUSH1 0x1 PUSH1 0x1 PUSH1 0xA0 SHL SUB DUP5 AND PUSH1 0x0 SWAP1 DUP2 MSTORE PUSH1 0xC PUSH1 0x20 MSTORE PUSH2 0x58B SWAP1 PUSH8 0xDE0B6B3A7640000 SWAP1 PUSH2 0x57F SWAP1 PUSH2 0x553 SWAP1 PUSH1 0x40 SWAP1 KECCAK256 PUSH2 0x53F PUSH2 0x1EEF JUMP JUMPDEST PUSH2 0x547 PUSH2 0x18BA JUMP JUMPDEST SWAP1 PUSH4 0xFFFFFFFF PUSH2 0x198A AND JUMP JUMPDEST PUSH1 0x1 PUSH1 0x1 PUSH1 0xA0 SHL SUB DUP9 AND PUSH1 0x0 SWAP1 DUP2 MSTORE PUSH1 0xF PUSH1 0x20 MSTORE PUSH1 0x40 SWAP1 KECCAK256 PUSH2 0x573 PUSH2 0x1EEF JUMP JUMPDEST SWAP1 PUSH4 0xFFFFFFFF PUSH2 0x19EF AND JUMP JUMPDEST SWAP1 PUSH4 0xFFFFFFFF PUSH2 0x1A58 AND JUMP JUMPDEST SWAP1 PUSH4 0xFFFFFFFF PUSH2 0x1ACA AND JUMP JUMPDEST SWAP3 SWAP2 POP POP JUMP JUMPDEST PUSH1 0xD PUSH1 0x20 MSTORE DUP1 PUSH1 0x0 MSTORE PUSH1 0x40 PUSH1 0x0 KECCAK256 SWAP1 POP PUSH2 0x5B5 PUSH2 0x1EEF JUMP JUMPDEST DUP2 JUMP JUMPDEST PUSH2 0x5C0 PUSH2 0x1B29 JUMP JUMPDEST DUP1 PUSH1 0x1 DUP1 DUP1 PUSH2 0x5CD PUSH2 0x1EEF JUMP JUMPDEST DUP2 PUSH1 0x1 PUSH1 0x1 PUSH1 0xA0 SHL SUB MUL NOT AND SWAP1 DUP4 PUSH1 0x1 PUSH1 0x1 PUSH1 0xA0 SHL SUB AND MUL OR SWAP1 PUSH2 0x5EF PUSH2 0x1F4A JUMP JUMPDEST POP POP POP PUSH32 0x906A1C6BD7E3091EA86693DD029A831C19049CE77F1DCE2CE0BAB1CACBABCE22 DUP2 PUSH1 0x40 MLOAD PUSH1 0x1 PUSH1 0x1 PUSH1 0xA0 SHL SUB SWAP1 SWAP2 AND DUP2 MSTORE PUSH1 0x20 ADD PUSH1 0x40 MLOAD DUP1 SWAP2 SUB SWAP1 LOG1 POP JUMP JUMPDEST PUSH2 0x63A PUSH2 0x1B29 JUMP JUMPDEST PUSH1 0x0 PUSH1 0x5 PUSH2 0x646 PUSH2 0x1EEF JUMP JUMPDEST SWAP1 PUSH2 0x100 EXP SWAP1 DIV PUSH1 0xFF AND ISZERO ISZERO DUP2 ISZERO ISZERO EQ ISZERO PUSH2 0x660 JUMPI PUSH2 0x705 JUMP JUMPDEST DUP1 PUSH1 0x5 PUSH1 0x1 DUP2 PUSH2 0x66E PUSH2 0x1EEF JUMP JUMPDEST DUP2 PUSH1 0xFF MUL NOT AND SWAP1 DUP4 ISZERO ISZERO MUL OR SWAP1 PUSH2 0x683 PUSH2 0x1F4A JUMP JUMPDEST POP POP POP PUSH1 0x5 PUSH1 0x0 SWAP1 PUSH2 0x693 PUSH2 0x1EEF JUMP JUMPDEST SWAP1 PUSH2 0x100 EXP SWAP1 DIV PUSH1 0xFF AND ISZERO PUSH2 0x6BA JUMPI GAS PUSH2 0x6AB PUSH2 0x1F98 JUMP JUMPDEST DUP1 PUSH1 0x4 PUSH2 0x6B6 PUSH2 0x1F4A JUMP JUMPDEST POP POP POP JUMPDEST PUSH32 0x8FB6C181EE25A520CF3DD6565006EF91229FCFE5A989566C2A3B8C115570CEC5 PUSH1 0x0 PUSH1 0x5 PUSH2 0x6E7 PUSH2 0x1EEF JUMP JUMPDEST SWAP1 PUSH2 0x100 EXP SWAP1 DIV PUSH1 0xFF AND PUSH1 0x40 MLOAD SWAP1 ISZERO ISZERO DUP2 MSTORE PUSH1 0x20 ADD PUSH1 0x40 MLOAD DUP1 SWAP2 SUB SWAP1 LOG1 JUMPDEST POP JUMP JUMPDEST PUSH1 0x0 PUSH1 0xE PUSH2 0x714 PUSH2 0x1EEF JUMP JUMPDEST SWAP1 POP JUMPDEST SWAP1 JUMP JUMPDEST PUSH2 0x722 PUSH2 0x1B29 JUMP JUMPDEST DUP1 PUSH1 0x2 PUSH1 0x1 DUP2 PUSH2 0x730 PUSH2 0x1EEF JUMP JUMPDEST DUP2 PUSH1 0x1 PUSH1 0x1 PUSH1 0xA0 SHL SUB MUL NOT AND SWAP1 DUP4 PUSH1 0x1 PUSH1 0x1 PUSH1 0xA0 SHL SUB AND MUL OR SWAP1 PUSH2 0x752 PUSH2 0x1F4A JUMP JUMPDEST POP POP POP POP JUMP JUMPDEST PUSH1 0x0 PUSH2 0x714 PUSH1 0x9 PUSH2 0x767 PUSH2 0x1EEF JUMP JUMPDEST PUSH1 0x8 PUSH2 0x573 PUSH2 0x1EEF JUMP JUMPDEST PUSH1 0x1 PUSH1 0x3 PUSH1 0x0 DUP3 DUP3 PUSH2 0x781 PUSH2 0x1EEF JUMP JUMPDEST ADD SWAP3 POP POP DUP2 SWAP1 PUSH2 0x78F PUSH2 0x1F4A JUMP JUMPDEST POP POP POP PUSH1 0x0 PUSH1 0x3 PUSH2 0x79E PUSH2 0x1EEF JUMP JUMPDEST SWAP1 POP GAS PUSH2 0x7A9 PUSH2 0x1FDE JUMP JUMPDEST PUSH2 0x7B1 PUSH2 0x18BA JUMP JUMPDEST DUP1 PUSH1 0xB PUSH2 0x7BC PUSH2 0x1F4A JUMP JUMPDEST POP POP POP PUSH2 0x7C7 PUSH2 0x11FA JUMP JUMPDEST DUP1 PUSH1 0xA PUSH2 0x7D2 PUSH2 0x1F4A JUMP JUMPDEST POP POP POP PUSH1 0x1 PUSH1 0x1 PUSH1 0xA0 SHL SUB DUP2 AND ISZERO PUSH2 0x842 JUMPI PUSH2 0x7ED DUP2 PUSH2 0x4E6 JUMP JUMPDEST PUSH1 0x1 PUSH1 0x1 PUSH1 0xA0 SHL SUB DUP3 AND PUSH1 0x0 SWAP1 DUP2 MSTORE PUSH1 0xD PUSH1 0x20 MSTORE PUSH1 0x40 SWAP1 KECCAK256 DUP2 SWAP1 PUSH2 0x80F PUSH2 0x1F4A JUMP JUMPDEST POP POP POP PUSH1 0xB PUSH2 0x81C PUSH2 0x1EEF JUMP JUMPDEST PUSH1 0x1 PUSH1 0x1 PUSH1 0xA0 SHL SUB DUP3 AND PUSH1 0x0 SWAP1 DUP2 MSTORE PUSH1 0xC PUSH1 0x20 MSTORE PUSH1 0x40 SWAP1 KECCAK256 DUP2 SWAP1 PUSH2 0x83E PUSH2 0x1F4A JUMP JUMPDEST POP POP POP JUMPDEST PUSH1 0x0 DUP4 GT PUSH2 0x893 JUMPI PUSH1 0x40 MLOAD PUSH3 0x461BCD PUSH1 0xE5 SHL DUP2 MSTORE PUSH1 0x20 PUSH1 0x4 DUP3 ADD MSTORE PUSH1 0x11 PUSH1 0x24 DUP3 ADD MSTORE PUSH17 0x43616E6E6F74207769746864726177203 PUSH1 0x7C SHL PUSH1 0x44 DUP3 ADD MSTORE PUSH1 0x64 ADD PUSH1 0x40 MLOAD DUP1 SWAP2 SUB SWAP1 PUSH2 0x890 PUSH2 0x1E84 JUMP JUMPDEST POP POP JUMPDEST PUSH2 0x8A1 DUP4 PUSH1 0xE PUSH2 0x547 PUSH2 0x1EEF JUMP JUMPDEST DUP1 PUSH1 0xE PUSH2 0x8AC PUSH2 0x1F4A JUMP JUMPDEST POP POP POP PUSH2 0x8E8 DUP4 PUSH1 0xF PUSH1 0x0 GAS PUSH2 0x8C0 PUSH2 0x1FDE JUMP JUMPDEST PUSH1 0x1 PUSH1 0x1 PUSH1 0xA0 SHL SUB AND PUSH1 0x1 PUSH1 0x1 PUSH1 0xA0 SHL SUB AND DUP2 MSTORE PUSH1 0x20 ADD SWAP1 DUP2 MSTORE PUSH1 0x20 ADD PUSH1 0x0 KECCAK256 PUSH2 0x547 PUSH2 0x1EEF JUMP JUMPDEST PUSH1 0xF PUSH1 0x0 GAS PUSH2 0x8F5 PUSH2 0x1FDE JUMP JUMPDEST PUSH1 0x1 PUSH1 0x1 PUSH1 0xA0 SHL SUB AND PUSH1 0x1 PUSH1 0x1 PUSH1 0xA0 SHL SUB AND DUP2 MSTORE PUSH1 0x20 ADD SWAP1 DUP2 MSTORE PUSH1 0x20 ADD PUSH1 0x0 KECCAK256 DUP2 SWAP1 PUSH2 0x91F PUSH2 0x1F4A JUMP JUMPDEST POP POP POP PUSH2 0x95A GAS PUSH2 0x92E PUSH2 0x1FDE JUMP JUMPDEST DUP5 PUSH1 0x0 PUSH1 0x6 PUSH2 0x93B PUSH2 0x1EEF JUMP JUMPDEST PUSH1 0x1 PUSH1 0x1 PUSH1 0xA0 SHL SUB PUSH2 0x100 SWAP3 SWAP1 SWAP3 EXP SWAP1 DIV AND SWAP2 SWAP1 PUSH4 0xFFFFFFFF PUSH2 0x1BA1 AND JUMP JUMPDEST GAS PUSH2 0x963 PUSH2 0x1FDE JUMP JUMPDEST PUSH1 0x1 PUSH1 0x1 PUSH1 0xA0 SHL SUB AND PUSH32 0x7084F5476618D8E60B11EF0D7D3F06914655ADB8793E28FF7F018D4C76D505D5 DUP5 PUSH1 0x40 MLOAD SWAP1 DUP2 MSTORE PUSH1 0x20 ADD PUSH1 0x40 MLOAD DUP1 SWAP2 SUB SWAP1 LOG2 POP PUSH1 0x3 PUSH2 0x9AA PUSH2 0x1EEF JUMP JUMPDEST DUP2 EQ PUSH2 0xA02 JUMPI PUSH1 0x40 MLOAD PUSH3 0x461BCD PUSH1 0xE5 SHL DUP2 MSTORE PUSH1 0x20 PUSH1 0x4 DUP3 ADD MSTORE PUSH1 0x1F PUSH1 0x24 DUP3 ADD MSTORE PUSH32 0x5265656E7472616E637947756172643A207265656E7472616E742063616C6C00 PUSH1 0x44 DUP3 ADD MSTORE PUSH1 0x64 ADD PUSH1 0x40 MLOAD DUP1 SWAP2 SUB SWAP1 PUSH2 0x752 PUSH2 0x1E84 JUMP JUMPDEST POP POP JUMP JUMPDEST PUSH1 0x9 PUSH2 0x5B5 PUSH2 0x1EEF JUMP JUMPDEST PUSH1 0x0 PUSH1 0x2 PUSH2 0xA1C PUSH2 0x1EEF JUMP JUMPDEST SWAP1 PUSH2 0x100 EXP SWAP1 DIV PUSH1 0x1 PUSH1 0x1 PUSH1 0xA0 SHL SUB AND PUSH1 0x1 PUSH1 0x1 PUSH1 0xA0 SHL SUB AND GAS PUSH2 0xA3E PUSH2 0x1FDE JUMP JUMPDEST PUSH1 0x1 PUSH1 0x1 PUSH1 0xA0 SHL SUB AND EQ PUSH2 0xA8C JUMPI PUSH1 0x40 MLOAD PUSH3 0x461BCD PUSH1 0xE5 SHL DUP2 MSTORE PUSH1 0x4 ADD DUP1 DUP1 PUSH1 0x20 ADD DUP3 DUP2 SUB DUP3 MSTORE PUSH1 0x2A DUP2 MSTORE PUSH1 0x20 ADD DUP1 PUSH2 0x2329 PUSH1 0x2A SWAP2 CODECOPY PUSH1 0x40 ADD SWAP2 POP POP PUSH1 0x40 MLOAD DUP1 SWAP2 SUB SWAP1 PUSH2 0xA89 PUSH2 0x1E84 JUMP JUMPDEST POP POP JUMPDEST PUSH1 0x0 PUSH2 0xA96 PUSH2 0x18BA JUMP JUMPDEST DUP1 PUSH1 0xB PUSH2 0xAA1 PUSH2 0x1F4A JUMP JUMPDEST POP POP POP PUSH2 0xAAC PUSH2 0x11FA JUMP JUMPDEST DUP1 PUSH1 0xA PUSH2 0xAB7 PUSH2 0x1F4A JUMP JUMPDEST POP POP POP PUSH1 0x1 PUSH1 0x1 PUSH1 0xA0 SHL SUB DUP2 AND ISZERO PUSH2 0xB27 JUMPI PUSH2 0xAD2 DUP2 PUSH2 0x4E6 JUMP JUMPDEST PUSH1 0x1 PUSH1 0x1 PUSH1 0xA0 SHL SUB DUP3 AND PUSH1 0x0 SWAP1 DUP2 MSTORE PUSH1 0xD PUSH1 0x20 MSTORE PUSH1 0x40 SWAP1 KECCAK256 DUP2 SWAP1 PUSH2 0xAF4 PUSH2 0x1F4A JUMP JUMPDEST POP POP POP PUSH1 0xB PUSH2 0xB01 PUSH2 0x1EEF JUMP JUMPDEST PUSH1 0x1 PUSH1 0x1 PUSH1 0xA0 SHL SUB DUP3 AND PUSH1 0x0 SWAP1 DUP2 MSTORE PUSH1 0xC PUSH1 0x20 MSTORE PUSH1 0x40 SWAP1 KECCAK256 DUP2 SWAP1 PUSH2 0xB23 PUSH2 0x1F4A JUMP JUMPDEST POP POP POP JUMPDEST PUSH1 0x7 PUSH2 0xB31 PUSH2 0x1EEF JUMP JUMPDEST GAS PUSH2 0xB3A PUSH2 0x1F98 JUMP JUMPDEST LT PUSH2 0xB6C JUMPI PUSH2 0xB59 PUSH1 0x9 PUSH2 0xB4C PUSH2 0x1EEF JUMP JUMPDEST DUP4 SWAP1 PUSH4 0xFFFFFFFF PUSH2 0x1A58 AND JUMP JUMPDEST DUP1 PUSH1 0x8 PUSH2 0xB64 PUSH2 0x1F4A JUMP JUMPDEST POP POP POP PUSH2 0xBD2 JUMP JUMPDEST PUSH1 0x0 PUSH2 0xB84 GAS PUSH2 0xB7A PUSH2 0x1F98 JUMP JUMPDEST PUSH1 0x7 PUSH2 0x547 PUSH2 0x1EEF JUMP JUMPDEST SWAP1 POP PUSH1 0x0 PUSH2 0xBA2 PUSH1 0x8 PUSH2 0xB95 PUSH2 0x1EEF JUMP JUMPDEST DUP4 SWAP1 PUSH4 0xFFFFFFFF PUSH2 0x19EF AND JUMP JUMPDEST SWAP1 POP PUSH2 0xBC1 PUSH1 0x9 PUSH2 0xBB1 PUSH2 0x1EEF JUMP JUMPDEST PUSH2 0x57F DUP7 DUP5 PUSH4 0xFFFFFFFF PUSH2 0x1ACA AND JUMP JUMPDEST DUP1 PUSH1 0x8 PUSH2 0xBCC PUSH2 0x1F4A JUMP JUMPDEST POP POP POP POP POP JUMPDEST PUSH1 0x0 PUSH1 0x1 PUSH1 0x5 PUSH2 0xBE0 PUSH2 0x1EEF JUMP JUMPDEST SWAP1 PUSH2 0x100 EXP SWAP1 DIV PUSH1 0x1 PUSH1 0x1 PUSH1 0xA0 SHL SUB AND PUSH1 0x1 PUSH1 0x1 PUSH1 0xA0 SHL SUB AND PUSH4 0x70A08231 GAS PUSH4 0x996D79A5 MSIZE DUP2 PUSH1 0xE0 SHL DUP2 MSTORE PUSH1 0x20 DUP2 PUSH1 0x4 DUP4 CALLER PUSH1 0x0 SWAP1 GAS CALL PC PUSH1 0xE ADD JUMPI RETURNDATASIZE PUSH1 0x0 DUP1 RETURNDATACOPY RETURNDATASIZE PUSH1 0x0 REVERT JUMPDEST RETURNDATASIZE PUSH1 0x1 EQ ISZERO PC PUSH1 0xA ADD JUMPI PUSH1 0x1 PUSH1 0x0 RETURN JUMPDEST DUP1 MLOAD SWAP3 POP PUSH1 0x0 JUMPDEST PUSH1 0x40 DUP2 LT ISZERO PUSH2 0xC54 JUMPI PUSH1 0x0 DUP3 DUP3 ADD MSTORE PUSH1 0x20 ADD PUSH2 0xC3D JUMP JUMPDEST POP POP POP PUSH1 0x40 MLOAD PUSH1 0x1 PUSH1 0x1 PUSH1 0xE0 SHL SUB NOT PUSH1 0xE0 DUP5 SWAP1 SHL AND DUP2 MSTORE PUSH1 0x1 PUSH1 0x1 PUSH1 0xA0 SHL SUB SWAP1 SWAP2 AND PUSH1 0x4 DUP3 ADD MSTORE PUSH1 0x24 ADD PUSH1 0x20 PUSH1 0x40 MLOAD DUP1 DUP4 SUB DUP2 DUP7 DUP1 PUSH2 0xC91 PUSH2 0x2024 JUMP JUMPDEST ISZERO DUP1 ISZERO PUSH2 0xCA6 JUMPI PUSH1 0x0 DUP1 PUSH2 0xCA3 PUSH2 0x1E84 JUMP JUMPDEST POP POP JUMPDEST POP GAS PUSH2 0xCB0 PUSH2 0x2070 JUMP JUMPDEST POP POP POP POP POP ISZERO DUP1 ISZERO PUSH2 0xCCF JUMPI RETURNDATASIZE PUSH1 0x0 DUP1 RETURNDATACOPY RETURNDATASIZE PUSH1 0x0 PUSH2 0xCCC PUSH2 0x1E84 JUMP JUMPDEST POP POP JUMPDEST POP POP POP POP PUSH1 0x40 MLOAD RETURNDATASIZE PUSH1 0x20 DUP2 LT ISZERO PUSH2 0xCEE JUMPI PUSH1 0x0 DUP1 PUSH2 0xCEB PUSH2 0x1E84 JUMP JUMPDEST POP POP JUMPDEST DUP2 ADD SWAP1 DUP1 DUP1 MLOAD SWAP4 POP PUSH2 0xD16 SWAP3 POP PUSH1 0x9 SWAP2 POP PUSH2 0xD09 SWAP1 POP PUSH2 0x1EEF JUMP JUMPDEST DUP3 SWAP1 PUSH4 0xFFFFFFFF PUSH2 0x1A58 AND JUMP JUMPDEST PUSH1 0x8 PUSH2 0xD20 PUSH2 0x1EEF JUMP JUMPDEST GT ISZERO PUSH2 0xD7B JUMPI PUSH1 0x40 MLOAD PUSH3 0x461BCD PUSH1 0xE5 SHL DUP2 MSTORE PUSH1 0x20 PUSH1 0x4 DUP3 ADD MSTORE PUSH1 0x18 PUSH1 0x24 DUP3 ADD MSTORE PUSH32 0x50726F76696465642072657761726420746F6F20686967680000000000000000 PUSH1 0x44 DUP3 ADD MSTORE PUSH1 0x64 ADD PUSH1 0x40 MLOAD DUP1 SWAP2 SUB SWAP1 PUSH2 0xD78 PUSH2 0x1E84 JUMP JUMPDEST POP POP JUMPDEST GAS PUSH2 0xD84 PUSH2 0x1F98 JUMP JUMPDEST DUP1 PUSH1 0xA PUSH2 0xD8F PUSH2 0x1F4A JUMP JUMPDEST POP POP POP PUSH2 0xDA8 PUSH1 0x9 PUSH2 0xD9F PUSH2 0x1EEF JUMP JUMPDEST GAS PUSH2 0x58B PUSH2 0x1F98 JUMP JUMPDEST DUP1 PUSH1 0x7 PUSH2 0xDB3 PUSH2 0x1F4A JUMP JUMPDEST POP POP POP PUSH32 0xDE88A922E0D3B88B24E9623EFEB464919C6BF9F66857A65E2BFCF2CE87A9433D DUP4 PUSH1 0x40 MLOAD SWAP1 DUP2 MSTORE PUSH1 0x20 ADD PUSH1 0x40 MLOAD DUP1 SWAP2 SUB SWAP1 LOG1 POP POP POP JUMP JUMPDEST PUSH1 0x1 PUSH1 0x3 PUSH1 0x0 DUP3 DUP3 PUSH2 0xDFE PUSH2 0x1EEF JUMP JUMPDEST ADD SWAP3 POP POP DUP2 SWAP1 PUSH2 0xE0C PUSH2 0x1F4A JUMP JUMPDEST POP POP POP PUSH1 0x0 PUSH1 0x3 PUSH2 0xE1B PUSH2 0x1EEF JUMP JUMPDEST SWAP1 POP GAS PUSH2 0xE26 PUSH2 0x1FDE JUMP JUMPDEST PUSH2 0xE2E PUSH2 0x18BA JUMP JUMPDEST DUP1 PUSH1 0xB PUSH2 0xE39 PUSH2 0x1F4A JUMP JUMPDEST POP POP POP PUSH2 0xE44 PUSH2 0x11FA JUMP JUMPDEST DUP1 PUSH1 0xA PUSH2 0xE4F PUSH2 0x1F4A JUMP JUMPDEST POP POP POP PUSH1 0x1 PUSH1 0x1 PUSH1 0xA0 SHL SUB DUP2 AND ISZERO PUSH2 0xEBF JUMPI PUSH2 0xE6A DUP2 PUSH2 0x4E6 JUMP JUMPDEST PUSH1 0x1 PUSH1 0x1 PUSH1 0xA0 SHL SUB DUP3 AND PUSH1 0x0 SWAP1 DUP2 MSTORE PUSH1 0xD PUSH1 0x20 MSTORE PUSH1 0x40 SWAP1 KECCAK256 DUP2 SWAP1 PUSH2 0xE8C PUSH2 0x1F4A JUMP JUMPDEST POP POP POP PUSH1 0xB PUSH2 0xE99 PUSH2 0x1EEF JUMP JUMPDEST PUSH1 0x1 PUSH1 0x1 PUSH1 0xA0 SHL SUB DUP3 AND PUSH1 0x0 SWAP1 DUP2 MSTORE PUSH1 0xC PUSH1 0x20 MSTORE PUSH1 0x40 SWAP1 KECCAK256 DUP2 SWAP1 PUSH2 0xEBB PUSH2 0x1F4A JUMP JUMPDEST POP POP POP JUMPDEST PUSH1 0x0 PUSH1 0xD PUSH1 0x0 GAS PUSH2 0xECE PUSH2 0x1FDE JUMP JUMPDEST PUSH1 0x1 PUSH1 0x1 PUSH1 0xA0 SHL SUB AND PUSH1 0x1 PUSH1 0x1 PUSH1 0xA0 SHL SUB AND DUP2 MSTORE PUSH1 0x20 ADD SWAP1 DUP2 MSTORE PUSH1 0x20 ADD PUSH1 0x0 KECCAK256 PUSH2 0xEF6 PUSH2 0x1EEF JUMP JUMPDEST SWAP1 POP DUP1 ISZERO PUSH2 0xF99 JUMPI PUSH1 0x0 PUSH1 0xD PUSH1 0x0 GAS PUSH2 0xF0D PUSH2 0x1FDE JUMP JUMPDEST PUSH1 0x1 PUSH1 0x1 PUSH1 0xA0 SHL SUB AND PUSH1 0x1 PUSH1 0x1 PUSH1 0xA0 SHL SUB AND DUP2 MSTORE PUSH1 0x20 ADD SWAP1 DUP2 MSTORE PUSH1 0x20 ADD PUSH1 0x0 KECCAK256 DUP2 SWAP1 PUSH2 0xF37 PUSH2 0x1F4A JUMP JUMPDEST POP POP POP PUSH2 0xF53 GAS PUSH2 0xF46 PUSH2 0x1FDE JUMP JUMPDEST DUP3 PUSH1 0x1 PUSH1 0x5 PUSH2 0x93B PUSH2 0x1EEF JUMP JUMPDEST GAS PUSH2 0xF5C PUSH2 0x1FDE JUMP JUMPDEST PUSH1 0x1 PUSH1 0x1 PUSH1 0xA0 SHL SUB AND PUSH32 0xE2403640BA68FED3A2F88B7557551D1993F84B99BB10FF833F0CF8DB0C5E0486 DUP3 PUSH1 0x40 MLOAD SWAP1 DUP2 MSTORE PUSH1 0x20 ADD PUSH1 0x40 MLOAD DUP1 SWAP2 SUB SWAP1 LOG2 JUMPDEST POP POP PUSH1 0x3 PUSH2 0xFA5 PUSH2 0x1EEF JUMP JUMPDEST DUP2 EQ PUSH2 0x705 JUMPI PUSH1 0x40 MLOAD PUSH3 0x461BCD PUSH1 0xE5 SHL DUP2 MSTORE PUSH1 0x20 PUSH1 0x4 DUP3 ADD MSTORE PUSH1 0x1F PUSH1 0x24 DUP3 ADD MSTORE PUSH32 0x5265656E7472616E637947756172643A207265656E7472616E742063616C6C00 PUSH1 0x44 DUP3 ADD MSTORE PUSH1 0x64 ADD PUSH1 0x40 MLOAD DUP1 SWAP2 SUB SWAP1 PUSH2 0xFFD PUSH2 0x1E84 JUMP JUMPDEST POP POP POP JUMP JUMPDEST PUSH1 0x0 PUSH1 0x2 PUSH2 0x100E PUSH2 0x1EEF JUMP JUMPDEST SWAP1 PUSH2 0x100 EXP SWAP1 DIV PUSH1 0x1 PUSH1 0x1 PUSH1 0xA0 SHL SUB AND DUP2 JUMP JUMPDEST PUSH1 0x0 PUSH1 0x1 PUSH2 0x100E PUSH2 0x1EEF JUMP JUMPDEST PUSH1 0x0 PUSH1 0x5 PUSH2 0x1039 PUSH2 0x1EEF JUMP JUMPDEST SWAP1 PUSH2 0x100 EXP SWAP1 DIV PUSH1 0xFF AND DUP2 JUMP JUMPDEST PUSH1 0x1 PUSH1 0x1 PUSH1 0xA0 SHL SUB DUP2 AND PUSH1 0x0 SWAP1 DUP2 MSTORE PUSH1 0xF PUSH1 0x20 MSTORE PUSH1 0x40 DUP2 KECCAK256 PUSH2 0x597 PUSH2 0x1EEF JUMP JUMPDEST PUSH1 0x0 PUSH1 0x6 PUSH2 0x100E PUSH2 0x1EEF JUMP JUMPDEST PUSH1 0x0 PUSH1 0x1 PUSH2 0x107E PUSH2 0x1EEF JUMP JUMPDEST SWAP1 PUSH2 0x100 EXP SWAP1 DIV PUSH1 0x1 PUSH1 0x1 PUSH1 0xA0 SHL SUB AND PUSH1 0x1 PUSH1 0x1 PUSH1 0xA0 SHL SUB AND GAS PUSH2 0x10A0 PUSH2 0x1FDE JUMP JUMPDEST PUSH1 0x1 PUSH1 0x1 PUSH1 0xA0 SHL SUB AND EQ PUSH2 0x10EE JUMPI PUSH1 0x40 MLOAD PUSH3 0x461BCD PUSH1 0xE5 SHL DUP2 MSTORE PUSH1 0x4 ADD DUP1 DUP1 PUSH1 0x20 ADD DUP3 DUP2 SUB DUP3 MSTORE PUSH1 0x35 DUP2 MSTORE PUSH1 0x20 ADD DUP1 PUSH2 0x223B PUSH1 0x35 SWAP2 CODECOPY PUSH1 0x40 ADD SWAP2 POP POP PUSH1 0x40 MLOAD DUP1 SWAP2 SUB SWAP1 PUSH2 0x10EB PUSH2 0x1E84 JUMP JUMPDEST POP POP JUMPDEST PUSH32 0xB532073B38C83145E3E5135377A08BF9AAB55BC0FD7C1179CD4FB995D2A5159C PUSH1 0x0 DUP1 PUSH2 0x111A PUSH2 0x1EEF JUMP JUMPDEST SWAP1 PUSH2 0x100 EXP SWAP1 DIV PUSH1 0x1 PUSH1 0x1 PUSH1 0xA0 SHL SUB AND PUSH1 0x1 PUSH1 0x0 SWAP1 PUSH2 0x1137 PUSH2 0x1EEF JUMP JUMPDEST SWAP1 PUSH2 0x100 EXP SWAP1 DIV PUSH1 0x1 PUSH1 0x1 PUSH1 0xA0 SHL SUB AND PUSH1 0x40 MLOAD PUSH1 0x1 PUSH1 0x1 PUSH1 0xA0 SHL SUB SWAP3 DUP4 AND DUP2 MSTORE SWAP2 AND PUSH1 0x20 DUP3 ADD MSTORE PUSH1 0x40 SWAP1 DUP2 ADD SWAP1 MLOAD DUP1 SWAP2 SUB SWAP1 LOG1 PUSH1 0x0 PUSH1 0x1 PUSH2 0x1176 PUSH2 0x1EEF JUMP JUMPDEST SWAP1 PUSH2 0x100 EXP SWAP1 DIV PUSH1 0x1 PUSH1 0x1 PUSH1 0xA0 SHL SUB AND PUSH1 0x0 DUP1 PUSH2 0x100 EXP DUP2 PUSH2 0x1196 PUSH2 0x1EEF JUMP JUMPDEST DUP2 PUSH1 0x1 PUSH1 0x1 PUSH1 0xA0 SHL SUB MUL NOT AND SWAP1 DUP4 PUSH1 0x1 PUSH1 0x1 PUSH1 0xA0 SHL SUB AND MUL OR SWAP1 PUSH2 0x11B8 PUSH2 0x1F4A JUMP JUMPDEST POP POP POP PUSH1 0x0 PUSH1 0x1 PUSH1 0x0 PUSH2 0x100 EXP DUP2 PUSH2 0x11CE PUSH2 0x1EEF JUMP JUMPDEST DUP2 PUSH1 0x1 PUSH1 0x1 PUSH1 0xA0 SHL SUB MUL NOT AND SWAP1 DUP4 PUSH1 0x1 PUSH1 0x1 PUSH1 0xA0 SHL SUB AND MUL OR SWAP1 PUSH2 0xFFD PUSH2 0x1F4A JUMP JUMPDEST PUSH1 0x8 PUSH2 0x5B5 PUSH2 0x1EEF JUMP JUMPDEST PUSH1 0x0 PUSH2 0x714 GAS PUSH2 0x1208 PUSH2 0x1F98 JUMP JUMPDEST PUSH1 0x7 PUSH2 0x1212 PUSH2 0x1EEF JUMP JUMPDEST PUSH2 0x1BFD JUMP JUMPDEST PUSH2 0x121F PUSH2 0x1B29 JUMP JUMPDEST PUSH1 0x0 DUP3 PUSH1 0x1 PUSH1 0x1 PUSH1 0xA0 SHL SUB AND PUSH4 0x95D89B41 PUSH1 0x40 MLOAD DUP2 PUSH4 0xFFFFFFFF AND PUSH1 0xE0 SHL DUP2 MSTORE PUSH1 0x4 ADD PUSH1 0x0 PUSH1 0x40 MLOAD DUP1 DUP4 SUB DUP2 DUP7 DUP1 PUSH2 0x1255 PUSH2 0x2024 JUMP JUMPDEST ISZERO DUP1 ISZERO PUSH2 0x126A JUMPI PUSH1 0x0 DUP1 PUSH2 0x1267 PUSH2 0x1E84 JUMP JUMPDEST POP POP JUMPDEST POP GAS PUSH2 0x1274 PUSH2 0x2070 JUMP JUMPDEST POP POP POP POP POP ISZERO DUP1 ISZERO PUSH2 0x1293 JUMPI RETURNDATASIZE PUSH1 0x0 DUP1 RETURNDATACOPY RETURNDATASIZE PUSH1 0x0 PUSH2 0x1290 PUSH2 0x1E84 JUMP JUMPDEST POP POP JUMPDEST POP POP POP POP PUSH1 0x40 MLOAD RETURNDATASIZE PUSH1 0x0 DUP3 RETURNDATACOPY PUSH1 0x1F RETURNDATASIZE SWAP1 DUP2 ADD PUSH1 0x1F NOT AND DUP3 ADD PUSH1 0x40 MSTORE PUSH1 0x20 DUP2 LT ISZERO PUSH2 0x12C5 JUMPI PUSH1 0x0 DUP1 PUSH2 0x12C2 PUSH2 0x1E84 JUMP JUMPDEST POP POP JUMPDEST DUP2 ADD SWAP1 DUP1 DUP1 MLOAD PUSH1 0x40 MLOAD SWAP4 SWAP3 SWAP2 SWAP1 DUP5 PUSH5 0x100000000 DUP3 GT ISZERO PUSH2 0x12EE JUMPI PUSH1 0x0 DUP1 PUSH2 0x12EB PUSH2 0x1E84 JUMP JUMPDEST POP POP JUMPDEST SWAP1 DUP4 ADD SWAP1 PUSH1 0x20 DUP3 ADD DUP6 DUP2 GT ISZERO PUSH2 0x130C JUMPI PUSH1 0x0 DUP1 PUSH2 0x1309 PUSH2 0x1E84 JUMP JUMPDEST POP POP JUMPDEST DUP3 MLOAD PUSH5 0x100000000 DUP2 GT DUP3 DUP3 ADD DUP9 LT OR ISZERO PUSH2 0x132F JUMPI PUSH1 0x0 DUP1 PUSH2 0x132C PUSH2 0x1E84 JUMP JUMPDEST POP POP JUMPDEST DUP3 MSTORE POP PUSH1 0x20 ADD SWAP1 DUP1 MLOAD SWAP1 PUSH1 0x20 ADD SWAP1 DUP1 DUP4 DUP4 PUSH1 0x0 JUMPDEST DUP4 DUP2 LT ISZERO PUSH2 0x135B JUMPI DUP1 DUP3 ADD MLOAD DUP4 DUP3 ADD MSTORE PUSH1 0x20 ADD PUSH2 0x1343 JUMP JUMPDEST POP POP POP POP SWAP1 POP SWAP1 DUP2 ADD SWAP1 PUSH1 0x1F AND DUP1 ISZERO PUSH2 0x1388 JUMPI DUP1 DUP3 SUB DUP1 MLOAD PUSH1 0x1 DUP4 PUSH1 0x20 SUB PUSH2 0x100 EXP SUB NOT AND DUP2 MSTORE PUSH1 0x20 ADD SWAP2 POP JUMPDEST POP PUSH1 0x40 MSTORE POP POP POP DUP1 MLOAD SWAP1 PUSH1 0x20 ADD KECCAK256 PUSH1 0x40 MLOAD PUSH1 0x40 DUP1 DUP3 ADD SWAP1 MSTORE PUSH1 0x3 DUP2 MSTORE PUSH3 0xA69CB PUSH1 0xEB SHL PUSH1 0x20 DUP3 ADD MSTORE DUP1 MLOAD SWAP1 PUSH1 0x20 ADD KECCAK256 EQ SWAP1 POP PUSH1 0x0 PUSH1 0x6 PUSH2 0x13C6 PUSH2 0x1EEF JUMP JUMPDEST SWAP1 PUSH2 0x100 EXP SWAP1 DIV PUSH1 0x1 PUSH1 0x1 PUSH1 0xA0 SHL SUB AND PUSH1 0x1 PUSH1 0x1 PUSH1 0xA0 SHL SUB AND DUP4 PUSH1 0x1 PUSH1 0x1 PUSH1 0xA0 SHL SUB AND EQ ISZERO DUP1 ISZERO PUSH2 0x1424 JUMPI POP PUSH1 0x1 PUSH1 0x5 PUSH2 0x13FE PUSH2 0x1EEF JUMP JUMPDEST SWAP1 PUSH2 0x100 EXP SWAP1 DIV PUSH1 0x1 PUSH1 0x1 PUSH1 0xA0 SHL SUB AND PUSH1 0x1 PUSH1 0x1 PUSH1 0xA0 SHL SUB AND DUP4 PUSH1 0x1 PUSH1 0x1 PUSH1 0xA0 SHL SUB AND EQ ISZERO JUMPDEST DUP1 ISZERO PUSH2 0x142E JUMPI POP DUP1 ISZERO JUMPDEST PUSH2 0x1472 JUMPI PUSH1 0x40 MLOAD PUSH3 0x461BCD PUSH1 0xE5 SHL DUP2 MSTORE PUSH1 0x4 ADD DUP1 DUP1 PUSH1 0x20 ADD DUP3 DUP2 SUB DUP3 MSTORE PUSH1 0x2D DUP2 MSTORE PUSH1 0x20 ADD DUP1 PUSH2 0x22FC PUSH1 0x2D SWAP2 CODECOPY PUSH1 0x40 ADD SWAP2 POP POP PUSH1 0x40 MLOAD DUP1 SWAP2 SUB SWAP1 PUSH2 0x146F PUSH2 0x1E84 JUMP JUMPDEST POP POP JUMPDEST PUSH2 0x14A0 PUSH1 0x0 DUP1 PUSH2 0x1480 PUSH2 0x1EEF JUMP JUMPDEST PUSH1 0x1 PUSH1 0x1 PUSH1 0xA0 SHL SUB DUP7 DUP2 AND SWAP3 PUSH2 0x100 EXP SWAP1 SWAP2 DIV AND DUP5 PUSH4 0xFFFFFFFF PUSH2 0x1BA1 AND JUMP JUMPDEST PUSH32 0x8C1256B8896378CD5044F80C202F9772B9D77DC85C8A6EB51967210B09BFAA28 DUP4 DUP4 PUSH1 0x40 MLOAD PUSH1 0x1 PUSH1 0x1 PUSH1 0xA0 SHL SUB SWAP1 SWAP3 AND DUP3 MSTORE PUSH1 0x20 DUP3 ADD MSTORE PUSH1 0x40 SWAP1 DUP2 ADD SWAP1 MLOAD DUP1 SWAP2 SUB SWAP1 LOG1 POP POP POP JUMP JUMPDEST PUSH1 0xC PUSH1 0x20 MSTORE DUP1 PUSH1 0x0 MSTORE PUSH1 0x40 PUSH1 0x0 KECCAK256 SWAP1 POP PUSH2 0x5B5 PUSH2 0x1EEF JUMP JUMPDEST PUSH1 0x0 DUP1 PUSH2 0x100E PUSH2 0x1EEF JUMP JUMPDEST PUSH1 0x4 PUSH2 0x5B5 PUSH2 0x1EEF JUMP JUMPDEST PUSH1 0x1 PUSH1 0x3 PUSH1 0x0 DUP3 DUP3 PUSH2 0x1526 PUSH2 0x1EEF JUMP JUMPDEST ADD SWAP3 POP POP DUP2 SWAP1 PUSH2 0x1534 PUSH2 0x1F4A JUMP JUMPDEST POP POP POP PUSH1 0x0 PUSH1 0x3 PUSH2 0x1543 PUSH2 0x1EEF JUMP JUMPDEST SWAP1 POP PUSH1 0x0 PUSH1 0x5 PUSH2 0x1551 PUSH2 0x1EEF JUMP JUMPDEST SWAP1 PUSH2 0x100 EXP SWAP1 DIV PUSH1 0xFF AND ISZERO PUSH2 0x15A0 JUMPI PUSH1 0x40 MLOAD PUSH3 0x461BCD PUSH1 0xE5 SHL DUP2 MSTORE PUSH1 0x4 ADD DUP1 DUP1 PUSH1 0x20 ADD DUP3 DUP2 SUB DUP3 MSTORE PUSH1 0x3C DUP2 MSTORE PUSH1 0x20 ADD DUP1 PUSH2 0x22C0 PUSH1 0x3C SWAP2 CODECOPY PUSH1 0x40 ADD SWAP2 POP POP PUSH1 0x40 MLOAD DUP1 SWAP2 SUB SWAP1 PUSH2 0x159D PUSH2 0x1E84 JUMP JUMPDEST POP POP JUMPDEST GAS PUSH2 0x15A9 PUSH2 0x1FDE JUMP JUMPDEST PUSH2 0x15B1 PUSH2 0x18BA JUMP JUMPDEST DUP1 PUSH1 0xB PUSH2 0x15BC PUSH2 0x1F4A JUMP JUMPDEST POP POP POP PUSH2 0x15C7 PUSH2 0x11FA JUMP JUMPDEST DUP1 PUSH1 0xA PUSH2 0x15D2 PUSH2 0x1F4A JUMP JUMPDEST POP POP POP PUSH1 0x1 PUSH1 0x1 PUSH1 0xA0 SHL SUB DUP2 AND ISZERO PUSH2 0x1642 JUMPI PUSH2 0x15ED DUP2 PUSH2 0x4E6 JUMP JUMPDEST PUSH1 0x1 PUSH1 0x1 PUSH1 0xA0 SHL SUB DUP3 AND PUSH1 0x0 SWAP1 DUP2 MSTORE PUSH1 0xD PUSH1 0x20 MSTORE PUSH1 0x40 SWAP1 KECCAK256 DUP2 SWAP1 PUSH2 0x160F PUSH2 0x1F4A JUMP JUMPDEST POP POP POP PUSH1 0xB PUSH2 0x161C PUSH2 0x1EEF JUMP JUMPDEST PUSH1 0x1 PUSH1 0x1 PUSH1 0xA0 SHL SUB DUP3 AND PUSH1 0x0 SWAP1 DUP2 MSTORE PUSH1 0xC PUSH1 0x20 MSTORE PUSH1 0x40 SWAP1 KECCAK256 DUP2 SWAP1 PUSH2 0x163E PUSH2 0x1F4A JUMP JUMPDEST POP POP POP JUMPDEST PUSH1 0x0 DUP4 GT PUSH2 0x1690 JUMPI PUSH1 0x40 MLOAD PUSH3 0x461BCD PUSH1 0xE5 SHL DUP2 MSTORE PUSH1 0x20 PUSH1 0x4 DUP3 ADD MSTORE PUSH1 0xE PUSH1 0x24 DUP3 ADD MSTORE PUSH14 0x43616E6E6F74207374616B65203 PUSH1 0x94 SHL PUSH1 0x44 DUP3 ADD MSTORE PUSH1 0x64 ADD PUSH1 0x40 MLOAD DUP1 SWAP2 SUB SWAP1 PUSH2 0x168D PUSH2 0x1E84 JUMP JUMPDEST POP POP JUMPDEST PUSH2 0x169E DUP4 PUSH1 0xE PUSH2 0x58B PUSH2 0x1EEF JUMP JUMPDEST DUP1 PUSH1 0xE PUSH2 0x16A9 PUSH2 0x1F4A JUMP JUMPDEST POP POP POP PUSH2 0x16E5 DUP4 PUSH1 0xF PUSH1 0x0 GAS PUSH2 0x16BD PUSH2 0x1FDE JUMP JUMPDEST PUSH1 0x1 PUSH1 0x1 PUSH1 0xA0 SHL SUB AND PUSH1 0x1 PUSH1 0x1 PUSH1 0xA0 SHL SUB AND DUP2 MSTORE PUSH1 0x20 ADD SWAP1 DUP2 MSTORE PUSH1 0x20 ADD PUSH1 0x0 KECCAK256 PUSH2 0x58B PUSH2 0x1EEF JUMP JUMPDEST PUSH1 0xF PUSH1 0x0 GAS PUSH2 0x16F2 PUSH2 0x1FDE JUMP JUMPDEST PUSH1 0x1 PUSH1 0x1 PUSH1 0xA0 SHL SUB AND PUSH1 0x1 PUSH1 0x1 PUSH1 0xA0 SHL SUB AND DUP2 MSTORE PUSH1 0x20 ADD SWAP1 DUP2 MSTORE PUSH1 0x20 ADD PUSH1 0x0 KECCAK256 DUP2 SWAP1 PUSH2 0x171C PUSH2 0x1F4A JUMP JUMPDEST POP POP POP PUSH2 0x17B2 GAS PUSH2 0x172B PUSH2 0x1FDE JUMP JUMPDEST GAS PUSH4 0x996D79A5 MSIZE DUP2 PUSH1 0xE0 SHL DUP2 MSTORE PUSH1 0x20 DUP2 PUSH1 0x4 DUP4 CALLER PUSH1 0x0 SWAP1 GAS CALL PC PUSH1 0xE ADD JUMPI RETURNDATASIZE PUSH1 0x0 DUP1 RETURNDATACOPY RETURNDATASIZE PUSH1 0x0 REVERT JUMPDEST RETURNDATASIZE PUSH1 0x1 EQ ISZERO PC PUSH1 0xA ADD JUMPI PUSH1 0x1 PUSH1 0x0 RETURN JUMPDEST DUP1 MLOAD SWAP3 POP PUSH1 0x0 JUMPDEST PUSH1 0x40 DUP2 LT ISZERO PUSH2 0x1781 JUMPI PUSH1 0x0 DUP3 DUP3 ADD MSTORE PUSH1 0x20 ADD PUSH2 0x176A JUMP JUMPDEST POP POP POP DUP6 PUSH1 0x6 PUSH1 0x0 SWAP1 PUSH2 0x1792 PUSH2 0x1EEF JUMP JUMPDEST PUSH1 0x1 PUSH1 0x1 PUSH1 0xA0 SHL SUB PUSH2 0x100 SWAP3 SWAP1 SWAP3 EXP SWAP1 DIV AND SWAP3 SWAP2 SWAP1 PUSH4 0xFFFFFFFF PUSH2 0x1C13 AND JUMP JUMPDEST GAS PUSH2 0x17BB PUSH2 0x1FDE JUMP JUMPDEST PUSH1 0x1 PUSH1 0x1 PUSH1 0xA0 SHL SUB AND PUSH32 0x9E71BC8EEA02A63969F509818F2DAFB9254532904319F9DBDA79B67BD34A5F3D DUP5 PUSH1 0x40 MLOAD SWAP1 DUP2 MSTORE PUSH1 0x20 ADD PUSH1 0x40 MLOAD DUP1 SWAP2 SUB SWAP1 LOG2 POP PUSH1 0x3 PUSH2 0x9AA PUSH2 0x1EEF JUMP JUMPDEST PUSH1 0xA PUSH2 0x5B5 PUSH2 0x1EEF JUMP JUMPDEST PUSH2 0x1814 PUSH2 0x1B29 JUMP JUMPDEST PUSH1 0x7 PUSH2 0x181E PUSH2 0x1EEF JUMP JUMPDEST GAS PUSH2 0x1827 PUSH2 0x1F98 JUMP JUMPDEST GT PUSH2 0x186C JUMPI PUSH1 0x40 MLOAD PUSH3 0x461BCD PUSH1 0xE5 SHL DUP2 MSTORE PUSH1 0x4 ADD DUP1 DUP1 PUSH1 0x20 ADD DUP3 DUP2 SUB DUP3 MSTORE PUSH1 0x58 DUP2 MSTORE PUSH1 0x20 ADD DUP1 PUSH2 0x21E3 PUSH1 0x58 SWAP2 CODECOPY PUSH1 0x60 ADD SWAP2 POP POP PUSH1 0x40 MLOAD DUP1 SWAP2 SUB SWAP1 PUSH2 0x1869 PUSH2 0x1E84 JUMP JUMPDEST POP POP JUMPDEST DUP1 DUP1 PUSH1 0x9 PUSH2 0x1878 PUSH2 0x1F4A JUMP JUMPDEST POP POP POP PUSH32 0xFB46CA5A5E06D4540D6387B930A7C978BCE0DB5F449EC6B3F5D07C6E1D44F2D3 PUSH1 0x9 PUSH2 0x18A6 PUSH2 0x1EEF JUMP JUMPDEST PUSH1 0x40 MLOAD SWAP1 DUP2 MSTORE PUSH1 0x20 ADD PUSH1 0x40 MLOAD DUP1 SWAP2 SUB SWAP1 LOG1 POP JUMP JUMPDEST PUSH1 0x0 PUSH1 0xE PUSH2 0x18C6 PUSH2 0x1EEF JUMP JUMPDEST PUSH2 0x18DB JUMPI PUSH1 0xB PUSH2 0x18D4 PUSH2 0x1EEF JUMP JUMPDEST SWAP1 POP PUSH2 0x717 JUMP JUMPDEST PUSH2 0x714 PUSH2 0x1919 PUSH1 0xE PUSH2 0x18EB PUSH2 0x1EEF JUMP JUMPDEST PUSH2 0x57F PUSH8 0xDE0B6B3A7640000 PUSH2 0x573 PUSH1 0x8 PUSH2 0x1904 PUSH2 0x1EEF JUMP JUMPDEST PUSH2 0x573 PUSH1 0xA PUSH2 0x1911 PUSH2 0x1EEF JUMP JUMPDEST PUSH2 0x547 PUSH2 0x11FA JUMP JUMPDEST PUSH1 0xB PUSH2 0x58B PUSH2 0x1EEF JUMP JUMPDEST PUSH1 0x1 PUSH1 0x5 PUSH2 0x100E PUSH2 0x1EEF JUMP JUMPDEST PUSH1 0xB PUSH2 0x5B5 PUSH2 0x1EEF JUMP JUMPDEST PUSH2 0x1976 PUSH1 0xF PUSH1 0x0 GAS PUSH2 0x1949 PUSH2 0x1FDE JUMP JUMPDEST PUSH1 0x1 PUSH1 0x1 PUSH1 0xA0 SHL SUB AND PUSH1 0x1 PUSH1 0x1 PUSH1 0xA0 SHL SUB AND DUP2 MSTORE PUSH1 0x20 ADD SWAP1 DUP2 MSTORE PUSH1 0x20 ADD PUSH1 0x0 KECCAK256 PUSH2 0x1971 PUSH2 0x1EEF JUMP JUMPDEST PUSH2 0x771 JUMP JUMPDEST PUSH2 0x197E PUSH2 0xDEE JUMP JUMPDEST JUMP JUMPDEST PUSH1 0x7 PUSH2 0x5B5 PUSH2 0x1EEF JUMP JUMPDEST PUSH1 0x0 DUP3 DUP3 GT ISZERO PUSH2 0x19E9 JUMPI PUSH1 0x40 MLOAD PUSH3 0x461BCD PUSH1 0xE5 SHL DUP2 MSTORE PUSH1 0x20 PUSH1 0x4 DUP3 ADD MSTORE PUSH1 0x1E PUSH1 0x24 DUP3 ADD MSTORE PUSH32 0x536166654D6174683A207375627472616374696F6E206F766572666C6F770000 PUSH1 0x44 DUP3 ADD MSTORE PUSH1 0x64 ADD PUSH1 0x40 MLOAD DUP1 SWAP2 SUB SWAP1 PUSH2 0x19E6 PUSH2 0x1E84 JUMP JUMPDEST POP POP JUMPDEST POP SWAP1 SUB SWAP1 JUMP JUMPDEST PUSH1 0x0 DUP3 PUSH2 0x19FE JUMPI POP PUSH1 0x0 PUSH2 0x597 JUMP JUMPDEST DUP3 DUP3 MUL DUP3 DUP5 DUP3 DUP2 PUSH2 0x1A0B JUMPI INVALID JUMPDEST DIV EQ PUSH2 0x1A51 JUMPI PUSH1 0x40 MLOAD PUSH3 0x461BCD PUSH1 0xE5 SHL DUP2 MSTORE PUSH1 0x4 ADD DUP1 DUP1 PUSH1 0x20 ADD DUP3 DUP2 SUB DUP3 MSTORE PUSH1 0x21 DUP2 MSTORE PUSH1 0x20 ADD DUP1 PUSH2 0x229F PUSH1 0x21 SWAP2 CODECOPY PUSH1 0x40 ADD SWAP2 POP POP PUSH1 0x40 MLOAD DUP1 SWAP2 SUB SWAP1 PUSH2 0x1A4E PUSH2 0x1E84 JUMP JUMPDEST POP POP JUMPDEST SWAP4 SWAP3 POP POP POP JUMP JUMPDEST PUSH1 0x0 DUP1 DUP3 GT PUSH2 0x1AB6 JUMPI PUSH1 0x40 MLOAD PUSH3 0x461BCD PUSH1 0xE5 SHL DUP2 MSTORE PUSH1 0x20 PUSH1 0x4 DUP3 ADD MSTORE PUSH1 0x1A PUSH1 0x24 DUP3 ADD MSTORE PUSH32 0x536166654D6174683A206469766973696F6E206279207A65726F000000000000 PUSH1 0x44 DUP3 ADD MSTORE PUSH1 0x64 ADD PUSH1 0x40 MLOAD DUP1 SWAP2 SUB SWAP1 PUSH2 0x1AB3 PUSH2 0x1E84 JUMP JUMPDEST POP POP JUMPDEST PUSH1 0x0 DUP3 DUP5 DUP2 PUSH2 0x1AC1 JUMPI INVALID JUMPDEST DIV SWAP5 SWAP4 POP POP POP POP JUMP JUMPDEST PUSH1 0x0 DUP3 DUP3 ADD DUP4 DUP2 LT ISZERO PUSH2 0x1A51 JUMPI PUSH1 0x40 MLOAD PUSH3 0x461BCD PUSH1 0xE5 SHL DUP2 MSTORE PUSH1 0x20 PUSH1 0x4 DUP3 ADD MSTORE PUSH1 0x1B PUSH1 0x24 DUP3 ADD MSTORE PUSH32 0x536166654D6174683A206164646974696F6E206F766572666C6F770000000000 PUSH1 0x44 DUP3 ADD MSTORE PUSH1 0x64 ADD PUSH1 0x40 MLOAD DUP1 SWAP2 SUB SWAP1 PUSH2 0x1A4E PUSH2 0x1E84 JUMP JUMPDEST PUSH1 0x0 DUP1 PUSH2 0x1B34 PUSH2 0x1EEF JUMP JUMPDEST SWAP1 PUSH2 0x100 EXP SWAP1 DIV PUSH1 0x1 PUSH1 0x1 PUSH1 0xA0 SHL SUB AND PUSH1 0x1 PUSH1 0x1 PUSH1 0xA0 SHL SUB AND GAS PUSH2 0x1B56 PUSH2 0x1FDE JUMP JUMPDEST PUSH1 0x1 PUSH1 0x1 PUSH1 0xA0 SHL SUB AND EQ PUSH2 0x197E JUMPI PUSH1 0x40 MLOAD PUSH3 0x461BCD PUSH1 0xE5 SHL DUP2 MSTORE PUSH1 0x4 ADD DUP1 DUP1 PUSH1 0x20 ADD DUP3 DUP2 SUB DUP3 MSTORE PUSH1 0x2F DUP2 MSTORE PUSH1 0x20 ADD DUP1 PUSH2 0x2270 PUSH1 0x2F SWAP2 CODECOPY PUSH1 0x40 ADD SWAP2 POP POP PUSH1 0x40 MLOAD DUP1 SWAP2 SUB SWAP1 PUSH2 0xA02 PUSH2 0x1E84 JUMP JUMPDEST PUSH2 0xFFD DUP4 PUSH4 0xA9059CBB PUSH1 0xE0 SHL DUP5 DUP5 PUSH1 0x40 MLOAD PUSH1 0x1 PUSH1 0x1 PUSH1 0xA0 SHL SUB SWAP1 SWAP3 AND PUSH1 0x24 DUP4 ADD MSTORE PUSH1 0x44 DUP3 ADD MSTORE PUSH1 0x64 ADD PUSH1 0x40 MLOAD PUSH1 0x20 DUP2 DUP4 SUB SUB DUP2 MSTORE SWAP1 PUSH1 0x40 MSTORE SWAP1 PUSH1 0x1 PUSH1 0x1 PUSH1 0xE0 SHL SUB NOT AND PUSH1 0x20 DUP3 ADD DUP1 MLOAD PUSH1 0x1 PUSH1 0x1 PUSH1 0xE0 SHL SUB AND SWAP1 SWAP2 OR SWAP1 MSTORE PUSH2 0x1C78 JUMP JUMPDEST PUSH1 0x0 DUP2 DUP4 LT PUSH2 0x1C0C JUMPI DUP2 PUSH2 0x1A51 JUMP JUMPDEST POP SWAP1 SWAP2 SWAP1 POP JUMP JUMPDEST PUSH2 0x752 DUP5 PUSH4 0x23B872DD PUSH1 0xE0 SHL DUP6 DUP6 DUP6 PUSH1 0x40 MLOAD PUSH1 0x1 PUSH1 0x1 PUSH1 0xA0 SHL SUB SWAP4 DUP5 AND PUSH1 0x24 DUP3 ADD MSTORE SWAP2 SWAP1 SWAP3 AND PUSH1 0x44 DUP3 ADD MSTORE PUSH1 0x64 DUP2 ADD SWAP2 SWAP1 SWAP2 MSTORE PUSH1 0x84 ADD PUSH1 0x40 MLOAD PUSH1 0x20 DUP2 DUP4 SUB SUB DUP2 MSTORE SWAP1 PUSH1 0x40 MSTORE SWAP1 PUSH1 0x1 PUSH1 0x1 PUSH1 0xE0 SHL SUB NOT AND PUSH1 0x20 DUP3 ADD DUP1 MLOAD PUSH1 0x1 PUSH1 0x1 PUSH1 0xE0 SHL SUB AND SWAP1 SWAP2 OR SWAP1 MSTORE JUMPDEST PUSH2 0x1C8A DUP3 PUSH1 0x1 PUSH1 0x1 PUSH1 0xA0 SHL SUB AND PUSH2 0x1E6F JUMP JUMPDEST PUSH2 0x1CE3 JUMPI PUSH1 0x40 MLOAD PUSH3 0x461BCD PUSH1 0xE5 SHL DUP2 MSTORE PUSH1 0x20 PUSH1 0x4 DUP3 ADD MSTORE PUSH1 0x1F PUSH1 0x24 DUP3 ADD MSTORE PUSH32 0x5361666545524332303A2063616C6C20746F206E6F6E2D636F6E747261637400 PUSH1 0x44 DUP3 ADD MSTORE PUSH1 0x64 ADD PUSH1 0x40 MLOAD DUP1 SWAP2 SUB SWAP1 PUSH2 0x1CE0 PUSH2 0x1E84 JUMP JUMPDEST POP POP JUMPDEST PUSH1 0x0 PUSH1 0x60 DUP4 PUSH1 0x1 PUSH1 0x1 PUSH1 0xA0 SHL SUB AND DUP4 PUSH1 0x40 MLOAD DUP1 DUP3 DUP1 MLOAD SWAP1 PUSH1 0x20 ADD SWAP1 DUP1 DUP4 DUP4 JUMPDEST PUSH1 0x20 DUP4 LT PUSH2 0x1D21 JUMPI DUP1 MLOAD DUP3 MSTORE PUSH1 0x1F NOT SWAP1 SWAP3 ADD SWAP2 PUSH1 0x20 SWAP2 DUP3 ADD SWAP2 ADD PUSH2 0x1D02 JUMP JUMPDEST PUSH1 0x1 DUP4 PUSH1 0x20 SUB PUSH2 0x100 EXP SUB DUP1 NOT DUP3 MLOAD AND DUP2 DUP5 MLOAD AND DUP1 DUP3 OR DUP6 MSTORE POP POP POP POP POP POP SWAP1 POP ADD SWAP2 POP POP PUSH1 0x0 PUSH1 0x40 MLOAD DUP1 DUP4 SUB DUP2 PUSH1 0x0 DUP7 GAS PUSH2 0x1D5B PUSH2 0x2129 JUMP JUMPDEST POP POP POP POP POP POP SWAP2 POP POP RETURNDATASIZE DUP1 PUSH1 0x0 DUP2 EQ PUSH2 0x1D90 JUMPI PUSH1 0x40 MLOAD RETURNDATASIZE PUSH1 0x3F ADD PUSH1 0x1F NOT AND DUP2 ADD PUSH1 0x40 MSTORE RETURNDATASIZE DUP2 MSTORE SWAP2 POP RETURNDATASIZE PUSH1 0x0 PUSH1 0x20 DUP5 ADD RETURNDATACOPY PUSH2 0x1D95 JUMP JUMPDEST PUSH1 0x60 SWAP2 POP JUMPDEST POP SWAP2 POP SWAP2 POP DUP2 PUSH2 0x1DF4 JUMPI PUSH1 0x40 MLOAD PUSH3 0x461BCD PUSH1 0xE5 SHL DUP2 MSTORE PUSH1 0x20 PUSH1 0x4 DUP3 ADD DUP2 SWAP1 MSTORE PUSH1 0x24 DUP3 ADD MSTORE PUSH32 0x5361666545524332303A206C6F772D6C6576656C2063616C6C206661696C6564 PUSH1 0x44 DUP3 ADD MSTORE PUSH1 0x64 ADD PUSH1 0x40 MLOAD DUP1 SWAP2 SUB SWAP1 PUSH2 0x1DF1 PUSH2 0x1E84 JUMP JUMPDEST POP POP JUMPDEST PUSH1 0x0 DUP2 MLOAD GT ISZERO PUSH2 0x752 JUMPI PUSH1 0x20 DUP2 ADD DUP2 MLOAD PUSH1 0x20 DUP2 LT ISZERO PUSH2 0x1E1B JUMPI PUSH1 0x0 DUP1 PUSH2 0x1E18 PUSH2 0x1E84 JUMP JUMPDEST POP POP JUMPDEST DUP2 ADD SWAP1 DUP1 DUP1 MLOAD SWAP3 POP PUSH2 0x752 SWAP2 POP POP JUMPI PUSH1 0x40 MLOAD PUSH3 0x461BCD PUSH1 0xE5 SHL DUP2 MSTORE PUSH1 0x4 ADD DUP1 DUP1 PUSH1 0x20 ADD DUP3 DUP2 SUB DUP3 MSTORE PUSH1 0x2A DUP2 MSTORE PUSH1 0x20 ADD DUP1 PUSH2 0x2353 PUSH1 0x2A SWAP2 CODECOPY PUSH1 0x40 ADD SWAP2 POP POP PUSH1 0x40 MLOAD DUP1 SWAP2 SUB SWAP1 PUSH2 0x1E67 PUSH2 0x1E84 JUMP JUMPDEST POP POP POP POP POP POP JUMP JUMPDEST PUSH1 0x0 DUP1 DUP3 PUSH2 0x1E7B PUSH2 0x2024 JUMP JUMPDEST ISZERO ISZERO SWAP4 SWAP3 POP POP POP JUMP JUMPDEST PUSH4 0x2A2A7ADB MSIZE DUP2 PUSH1 0xE0 SHL DUP2 MSTORE PUSH1 0x4 DUP2 ADD PUSH1 0x20 DUP2 MSTORE DUP6 PUSH1 0x20 DUP3 ADD MSTORE PUSH1 0x0 JUMPDEST DUP7 DUP2 LT ISZERO PUSH2 0x1EBC JUMPI DUP1 DUP7 ADD MLOAD DUP3 DUP3 ADD PUSH1 0x40 ADD MSTORE PUSH1 0x20 ADD PUSH2 0x1EA1 JUMP JUMPDEST POP PUSH1 0x20 DUP3 DUP8 PUSH1 0x64 ADD DUP5 CALLER PUSH1 0x0 SWAP1 GAS CALL PC PUSH1 0xE ADD JUMPI RETURNDATASIZE PUSH1 0x0 DUP1 RETURNDATACOPY RETURNDATASIZE PUSH1 0x0 REVERT JUMPDEST RETURNDATASIZE PUSH1 0x1 EQ ISZERO PC PUSH1 0xA ADD JUMPI PUSH1 0x1 PUSH1 0x0 RETURN JUMPDEST POP POP POP JUMP JUMPDEST PUSH4 0x3DAA959 MSIZE DUP2 PUSH1 0xE0 SHL DUP2 MSTORE DUP4 PUSH1 0x4 DUP3 ADD MSTORE PUSH1 0x20 DUP2 PUSH1 0x24 DUP4 CALLER PUSH1 0x0 SWAP1 GAS CALL PC PUSH1 0xE ADD JUMPI RETURNDATASIZE PUSH1 0x0 DUP1 RETURNDATACOPY RETURNDATASIZE PUSH1 0x0 REVERT JUMPDEST RETURNDATASIZE PUSH1 0x1 EQ ISZERO PC PUSH1 0xA ADD JUMPI PUSH1 0x1 PUSH1 0x0 RETURN JUMPDEST DUP1 MLOAD SWAP4 POP PUSH1 0x0 JUMPDEST PUSH1 0x40 DUP2 LT ISZERO PUSH2 0xFFD JUMPI PUSH1 0x0 DUP3 DUP3 ADD MSTORE PUSH1 0x20 ADD PUSH2 0x1F33 JUMP JUMPDEST PUSH4 0x22BD64C0 MSIZE DUP2 PUSH1 0xE0 SHL DUP2 MSTORE DUP4 PUSH1 0x4 DUP3 ADD MSTORE DUP5 PUSH1 0x24 DUP3 ADD MSTORE PUSH1 0x0 DUP2 PUSH1 0x44 DUP4 CALLER PUSH1 0x0 SWAP1 GAS CALL PC PUSH1 0xE ADD JUMPI RETURNDATASIZE PUSH1 0x0 DUP1 RETURNDATACOPY RETURNDATASIZE PUSH1 0x0 REVERT JUMPDEST RETURNDATASIZE PUSH1 0x1 EQ ISZERO PC PUSH1 0xA ADD JUMPI PUSH1 0x1 PUSH1 0x0 RETURN JUMPDEST PUSH1 0x0 DUP2 MSTORE PUSH1 0x20 PUSH2 0x1F33 JUMP JUMPDEST PUSH4 0xBDBF8C36 MSIZE DUP2 PUSH1 0xE0 SHL DUP2 MSTORE PUSH1 0x20 DUP2 PUSH1 0x4 DUP4 CALLER PUSH1 0x0 SWAP1 GAS CALL PC PUSH1 0xE ADD JUMPI RETURNDATASIZE PUSH1 0x0 DUP1 RETURNDATACOPY RETURNDATASIZE PUSH1 0x0 REVERT JUMPDEST RETURNDATASIZE PUSH1 0x1 EQ ISZERO PC PUSH1 0xA ADD JUMPI PUSH1 0x1 PUSH1 0x0 RETURN JUMPDEST DUP1 MLOAD PUSH1 0x0 DUP3 MSTORE SWAP4 POP PUSH1 0x20 PUSH2 0x1F33 JUMP JUMPDEST PUSH4 0x73509064 MSIZE DUP2 PUSH1 0xE0 SHL DUP2 MSTORE PUSH1 0x20 DUP2 PUSH1 0x4 DUP4 CALLER PUSH1 0x0 SWAP1 GAS CALL PC PUSH1 0xE ADD JUMPI RETURNDATASIZE PUSH1 0x0 DUP1 RETURNDATACOPY RETURNDATASIZE PUSH1 0x0 REVERT JUMPDEST RETURNDATASIZE PUSH1 0x1 EQ ISZERO PC PUSH1 0xA ADD JUMPI PUSH1 0x1 PUSH1 0x0 RETURN JUMPDEST DUP1 MLOAD PUSH1 0x0 DUP3 MSTORE SWAP4 POP PUSH1 0x20 PUSH2 0x1F33 JUMP JUMPDEST PUSH4 0x8435035B MSIZE DUP2 PUSH1 0xE0 SHL DUP2 MSTORE DUP4 PUSH1 0x4 DUP3 ADD MSTORE PUSH1 0x20 DUP2 PUSH1 0x24 DUP4 CALLER PUSH1 0x0 SWAP1 GAS CALL PC PUSH1 0xE ADD JUMPI RETURNDATASIZE PUSH1 0x0 DUP1 RETURNDATACOPY RETURNDATASIZE PUSH1 0x0 REVERT JUMPDEST RETURNDATASIZE PUSH1 0x1 EQ ISZERO PC PUSH1 0xA ADD JUMPI PUSH1 0x1 PUSH1 0x0 RETURN JUMPDEST DUP1 MLOAD PUSH1 0x0 DUP3 MSTORE SWAP4 POP PUSH1 0x20 PUSH2 0x1F33 JUMP JUMPDEST PUSH4 0x8540661F MSIZE DUP2 PUSH1 0xE0 SHL DUP2 MSTORE DUP4 PUSH1 0x4 DUP3 ADD MSTORE DUP5 PUSH1 0x24 DUP3 ADD MSTORE PUSH1 0x60 PUSH1 0x44 DUP3 ADD MSTORE DUP7 PUSH1 0x64 DUP3 ADD MSTORE PUSH1 0x84 DUP2 ADD PUSH1 0x0 JUMPDEST DUP9 DUP2 LT ISZERO PUSH2 0x20B4 JUMPI DUP1 DUP9 ADD MLOAD DUP3 DUP3 ADD MSTORE PUSH1 0x20 ADD PUSH2 0x209C JUMP JUMPDEST POP DUP8 PUSH2 0x104 ADD DUP3 ADD PUSH1 0x60 DUP4 DUP11 PUSH2 0x104 ADD DUP6 CALLER PUSH1 0x0 SWAP1 GAS CALL PC PUSH1 0xE ADD JUMPI RETURNDATASIZE PUSH1 0x0 DUP1 RETURNDATACOPY RETURNDATASIZE PUSH1 0x0 REVERT JUMPDEST RETURNDATASIZE PUSH1 0x1 EQ ISZERO PC PUSH1 0xA ADD JUMPI PUSH1 0x1 PUSH1 0x0 RETURN JUMPDEST DUP3 MLOAD PUSH1 0x40 DUP5 ADD MLOAD RETURNDATASIZE PUSH1 0x0 DUP7 RETURNDATACOPY DUP13 DUP13 DUP3 PUSH1 0x60 DUP9 ADD CALLER POP PUSH1 0x0 PUSH1 0x4 GAS CALL POP MSIZE DUP6 JUMPDEST DUP2 DUP2 LT ISZERO PUSH2 0x211D JUMPI PUSH1 0x0 DUP2 MSTORE PUSH1 0x20 ADD PUSH2 0x2109 JUMP JUMPDEST POP SWAP2 SWAP13 POP POP POP POP POP POP POP JUMP JUMPDEST PUSH4 0x85979F76 MSIZE DUP2 PUSH1 0xE0 SHL DUP2 MSTORE DUP4 PUSH1 0x4 DUP3 ADD MSTORE DUP5 PUSH1 0x24 DUP3 ADD MSTORE PUSH1 0x60 PUSH1 0x44 DUP3 ADD MSTORE DUP8 PUSH1 0x64 DUP3 ADD MSTORE PUSH1 0x84 DUP2 ADD PUSH1 0x0 JUMPDEST DUP10 DUP2 LT ISZERO PUSH2 0x216D JUMPI DUP1 DUP10 ADD MLOAD DUP3 DUP3 ADD MSTORE PUSH1 0x20 ADD PUSH2 0x2155 JUMP JUMPDEST POP DUP9 PUSH2 0x104 ADD DUP3 ADD PUSH1 0x60 DUP4 DUP12 PUSH2 0x104 ADD DUP6 CALLER PUSH1 0x0 SWAP1 GAS CALL PC PUSH1 0xE ADD JUMPI RETURNDATASIZE PUSH1 0x0 DUP1 RETURNDATACOPY RETURNDATASIZE PUSH1 0x0 REVERT JUMPDEST RETURNDATASIZE PUSH1 0x1 EQ ISZERO PC PUSH1 0xA ADD JUMPI PUSH1 0x1 PUSH1 0x0 RETURN JUMPDEST DUP3 MLOAD PUSH1 0x40 DUP5 ADD MLOAD RETURNDATASIZE PUSH1 0x0 DUP7 RETURNDATACOPY DUP14 DUP14 DUP3 PUSH1 0x60 DUP9 ADD CALLER POP PUSH1 0x0 PUSH1 0x4 GAS CALL POP MSIZE DUP6 JUMPDEST DUP2 DUP2 LT ISZERO PUSH2 0x21D6 JUMPI PUSH1 0x0 DUP2 MSTORE PUSH1 0x20 ADD PUSH2 0x21C2 JUMP JUMPDEST POP SWAP2 SWAP14 POP POP POP POP POP POP POP JUMP INVALID POP PUSH19 0x6576696F757320726577617264732070657269 PUSH16 0x64206D75737420626520636F6D706C65 PUSH21 0x65206265666F7265206368616E67696E6720746865 KECCAK256 PUSH5 0x7572617469 PUSH16 0x6E20666F7220746865206E6577207065 PUSH19 0x696F64596F75206D757374206265206E6F6D69 PUSH15 0x61746564206265666F726520796F75 KECCAK256 PUSH4 0x616E2061 PUSH4 0x63657074 KECCAK256 PUSH16 0x776E6572736869704F6E6C7920746865 KECCAK256 PUSH4 0x6F6E7472 PUSH2 0x6374 KECCAK256 PUSH16 0x776E6572206D617920706572666F726D KECCAK256 PUSH21 0x68697320616374696F6E536166654D6174683A206D PUSH22 0x6C7469706C69636174696F6E206F766572666C6F7754 PUSH9 0x697320616374696F6E KECCAK256 PUSH4 0x616E6E6F PUSH21 0x20626520706572666F726D6564207768696C652074 PUSH9 0x6520636F6E74726163 PUSH21 0x2069732070617573656443616E6E6F742077697468 PUSH5 0x7261772074 PUSH9 0x65207374616B696E67 KECCAK256 PUSH16 0x72207265776172647320746F6B656E73 NUMBER PUSH2 0x6C6C PUSH6 0x72206973206E PUSH16 0x74205265776172647344697374726962 PUSH22 0x74696F6E20636F6E7472616374536166654552433230 GASPRICE KECCAK256 GASLIMIT MSTORE NUMBER ORIGIN ADDRESS KECCAK256 PUSH16 0x7065726174696F6E20646964206E6F74 KECCAK256 PUSH20 0x7563636565640000000000000000000000000000 "
		},
		"deployedBytecode": {
			"linkReferences": {},
			"object": "608060405234801561001957600080610016611e84565b50505b50600436106101ed5760003560e01c806372f702f311610118578063a694fc3a116100ab578063d1af0c7d1161007a578063d1af0c7d146104c6578063df136d65146104ce578063e9fad8ee146104d6578063ebe2b12b146104de576101ed565b8063a694fc3a1461046a578063c8f33c9114610490578063cc1a378f14610498578063cd3daf9d146104be576101ed565b80638980f11f116100e75780638980f11f146103f65780638b8763471461042b5780638da5cb5b1461045a57806391b4ded914610462576101ed565b806372f702f3146103d657806379ba5097146103de5780637b0a47ee146103e657806380faa57d146103ee576101ed565b80632e1a7d4d116101905780633fc6df6e1161015f5780633fc6df6e1461035f57806353a47bb7146103835780635c975abb1461038b57806370a08231146103a7576101ed565b80632e1a7d4d14610303578063386a9525146103295780633c6b16ab146103315780633d18b91214610357576101ed565b806316c38b3c116101cc57806316c38b3c1461029c57806318160ddd146102c457806319762143146102cc5780631c1f78eb146102fb576101ed565b80628cc262146101fb5780630700037d1461023c5780631627540c1461026b575b6000806101f8611e84565b50505b61022a6004803603602081101561021a57600080610217611e84565b50505b50356001600160a01b03166104e6565b60405190815260200160405180910390f35b61022a6004803603602081101561025b57600080610258611e84565b50505b50356001600160a01b031661059d565b61029a6004803603602081101561028a57600080610287611e84565b50505b50356001600160a01b03166105b8565b005b61029a600480360360208110156102bb576000806102b8611e84565b50505b50351515610632565b61022a610708565b61029a600480360360208110156102eb576000806102e8611e84565b50505b50356001600160a01b031661071a565b61022a610758565b61029a600480360360208110156103225760008061031f611e84565b50505b5035610771565b61022a610a06565b61029a600480360360208110156103505760008061034d611e84565b50505b5035610a10565b61029a610dee565b610367611002565b6040516001600160a01b03909116815260200160405180910390f35b610367611021565b61039361102d565b604051901515815260200160405180910390f35b61022a600480360360208110156103c6576000806103c3611e84565b50505b50356001600160a01b0316611046565b610367611066565b61029a611072565b61022a6111f0565b61022a6111fa565b61029a6004803603604081101561041557600080610412611e84565b50505b506001600160a01b038135169060200135611217565b61022a6004803603602081101561044a57600080610447611e84565b50505b50356001600160a01b03166114e9565b610367611501565b61022a61150c565b61029a6004803603602081101561048957600080610486611e84565b50505b5035611516565b61022a611802565b61029a600480360360208110156104b7576000806104b4611e84565b50505b503561180c565b61022a6118ba565b610367611923565b61022a61192f565b61029a611939565b61022a611980565b6001600160a01b0381166000908152600d60205261059760408220610509611eef565b6001600160a01b0384166000908152600c60205261058b90670de0b6b3a76400009061057f90610553906040902061053f611eef565b6105476118ba565b9063ffffffff61198a16565b6001600160a01b0388166000908152600f60205260409020610573611eef565b9063ffffffff6119ef16565b9063ffffffff611a5816565b9063ffffffff611aca16565b92915050565b600d60205280600052604060002090506105b5611eef565b81565b6105c0611b29565b80600180806105cd611eef565b816001600160a01b0302191690836001600160a01b03160217906105ef611f4a565b5050507f906a1c6bd7e3091ea86693dd029a831c19049ce77f1dce2ce0bab1cacbabce22816040516001600160a01b03909116815260200160405180910390a150565b61063a611b29565b60006005610646611eef565b906101000a900460ff161515811515141561066057610705565b80600560018161066e611eef565b8160ff02191690831515021790610683611f4a565b5050506005600090610693611eef565b906101000a900460ff16156106ba575a6106ab611f98565b8060046106b6611f4a565b5050505b7f8fb6c181ee25a520cf3dd6565006ef91229fcfe5a989566c2a3b8c115570cec5600060056106e7611eef565b906101000a900460ff16604051901515815260200160405180910390a15b50565b6000600e610714611eef565b90505b90565b610722611b29565b806002600181610730611eef565b816001600160a01b0302191690836001600160a01b0316021790610752611f4a565b50505050565b60006107146009610767611eef565b6008610573611eef565b6001600360008282610781611eef565b01925050819061078f611f4a565b5050506000600361079e611eef565b90505a6107a9611fde565b6107b16118ba565b80600b6107bc611f4a565b5050506107c76111fa565b80600a6107d2611f4a565b5050506001600160a01b03811615610842576107ed816104e6565b6001600160a01b0382166000908152600d60205260409020819061080f611f4a565b505050600b61081c611eef565b6001600160a01b0382166000908152600c60205260409020819061083e611f4a565b5050505b600083116108935760405162461bcd60e51b8152602060048201526011602482015270043616e6e6f74207769746864726177203607c1b604482015260640160405180910390610890611e84565b50505b6108a183600e610547611eef565b80600e6108ac611f4a565b5050506108e883600f60005a6108c0611fde565b6001600160a01b03166001600160a01b03168152602001908152602001600020610547611eef565b600f60005a6108f5611fde565b6001600160a01b03166001600160a01b03168152602001908152602001600020819061091f611f4a565b50505061095a5a61092e611fde565b846000600661093b611eef565b6001600160a01b036101009290920a900416919063ffffffff611ba116565b5a610963611fde565b6001600160a01b03167f7084f5476618d8e60b11ef0d7d3f06914655adb8793e28ff7f018d4c76d505d58460405190815260200160405180910390a25060036109aa611eef565b8114610a025760405162461bcd60e51b815260206004820152601f60248201527f5265656e7472616e637947756172643a207265656e7472616e742063616c6c00604482015260640160405180910390610752611e84565b5050565b60096105b5611eef565b60006002610a1c611eef565b906101000a90046001600160a01b03166001600160a01b03165a610a3e611fde565b6001600160a01b031614610a8c5760405162461bcd60e51b815260040180806020018281038252602a815260200180612329602a913960400191505060405180910390610a89611e84565b50505b6000610a966118ba565b80600b610aa1611f4a565b505050610aac6111fa565b80600a610ab7611f4a565b5050506001600160a01b03811615610b2757610ad2816104e6565b6001600160a01b0382166000908152600d602052604090208190610af4611f4a565b505050600b610b01611eef565b6001600160a01b0382166000908152600c602052604090208190610b23611f4a565b5050505b6007610b31611eef565b5a610b3a611f98565b10610b6c57610b596009610b4c611eef565b839063ffffffff611a5816565b806008610b64611f4a565b505050610bd2565b6000610b845a610b7a611f98565b6007610547611eef565b90506000610ba26008610b95611eef565b839063ffffffff6119ef16565b9050610bc16009610bb1611eef565b61057f868463ffffffff611aca16565b806008610bcc611f4a565b50505050505b600060016005610be0611eef565b906101000a90046001600160a01b03166001600160a01b03166370a082315a63996d79a5598160e01b8152602081600483336000905af158601d01573d60011458600c01573d6000803e3d621234565260ea61109c528051925060005b6040811015610c5457600082820152602001610c3d565b5050506040516001600160e01b031960e084901b1681526001600160a01b0390911660048201526024016020604051808303818680610c91612024565b158015610ca657600080610ca3611e84565b50505b505a610cb0612070565b5050505050158015610ccf573d6000803e3d6000610ccc611e84565b50505b505050506040513d6020811015610cee57600080610ceb611e84565b50505b8101908080519350610d16925060099150610d099050611eef565b829063ffffffff611a5816565b6008610d20611eef565b1115610d7b5760405162461bcd60e51b815260206004820152601860248201527f50726f76696465642072657761726420746f6f20686967680000000000000000604482015260640160405180910390610d78611e84565b50505b5a610d84611f98565b80600a610d8f611f4a565b505050610da86009610d9f611eef565b5a61058b611f98565b806007610db3611f4a565b5050507fde88a922e0d3b88b24e9623efeb464919c6bf9f66857a65e2bfcf2ce87a9433d8360405190815260200160405180910390a1505050565b6001600360008282610dfe611eef565b019250508190610e0c611f4a565b50505060006003610e1b611eef565b90505a610e26611fde565b610e2e6118ba565b80600b610e39611f4a565b505050610e446111fa565b80600a610e4f611f4a565b5050506001600160a01b03811615610ebf57610e6a816104e6565b6001600160a01b0382166000908152600d602052604090208190610e8c611f4a565b505050600b610e99611eef565b6001600160a01b0382166000908152600c602052604090208190610ebb611f4a565b5050505b6000600d60005a610ece611fde565b6001600160a01b03166001600160a01b03168152602001908152602001600020610ef6611eef565b90508015610f99576000600d60005a610f0d611fde565b6001600160a01b03166001600160a01b031681526020019081526020016000208190610f37611f4a565b505050610f535a610f46611fde565b826001600561093b611eef565b5a610f5c611fde565b6001600160a01b03167fe2403640ba68fed3a2f88b7557551d1993f84b99bb10ff833f0cf8db0c5e04868260405190815260200160405180910390a25b50506003610fa5611eef565b81146107055760405162461bcd60e51b815260206004820152601f60248201527f5265656e7472616e637947756172643a207265656e7472616e742063616c6c00604482015260640160405180910390610ffd611e84565b505050565b6000600261100e611eef565b906101000a90046001600160a01b031681565b6000600161100e611eef565b60006005611039611eef565b906101000a900460ff1681565b6001600160a01b0381166000908152600f60205260408120610597611eef565b6000600661100e611eef565b6000600161107e611eef565b906101000a90046001600160a01b03166001600160a01b03165a6110a0611fde565b6001600160a01b0316146110ee5760405162461bcd60e51b815260040180806020018281038252603581526020018061223b60359139604001915050604051809103906110eb611e84565b50505b7fb532073b38c83145e3e5135377a08bf9aab55bc0fd7c1179cd4fb995d2a5159c60008061111a611eef565b906101000a90046001600160a01b03166001600090611137611eef565b906101000a90046001600160a01b03166040516001600160a01b039283168152911660208201526040908101905180910390a160006001611176611eef565b906101000a90046001600160a01b03166000806101000a81611196611eef565b816001600160a01b0302191690836001600160a01b03160217906111b8611f4a565b5050506000600160006101000a816111ce611eef565b816001600160a01b0302191690836001600160a01b0316021790610ffd611f4a565b60086105b5611eef565b60006107145a611208611f98565b6007611212611eef565b611bfd565b61121f611b29565b6000826001600160a01b03166395d89b416040518163ffffffff1660e01b81526004016000604051808303818680611255612024565b15801561126a57600080611267611e84565b50505b505a611274612070565b5050505050158015611293573d6000803e3d6000611290611e84565b50505b505050506040513d6000823e601f3d908101601f1916820160405260208110156112c5576000806112c2611e84565b50505b81019080805160405193929190846401000000008211156112ee576000806112eb611e84565b50505b90830190602082018581111561130c57600080611309611e84565b50505b825164010000000081118282018810171561132f5760008061132c611e84565b50505b825250602001908051906020019080838360005b8381101561135b578082015183820152602001611343565b50505050905090810190601f1680156113885780820380516001836020036101000a031916815260200191505b50604052505050805190602001206040516040808201905260038152620a69cb60eb1b602082015280519060200120149050600060066113c6611eef565b906101000a90046001600160a01b03166001600160a01b0316836001600160a01b0316141580156114245750600160056113fe611eef565b906101000a90046001600160a01b03166001600160a01b0316836001600160a01b031614155b801561142e575080155b6114725760405162461bcd60e51b815260040180806020018281038252602d8152602001806122fc602d91396040019150506040518091039061146f611e84565b50505b6114a0600080611480611eef565b6001600160a01b03868116926101000a909104168463ffffffff611ba116565b7f8c1256b8896378cd5044f80c202f9772b9d77dc85c8a6eb51967210b09bfaa2883836040516001600160a01b03909216825260208201526040908101905180910390a1505050565b600c60205280600052604060002090506105b5611eef565b60008061100e611eef565b60046105b5611eef565b6001600360008282611526611eef565b019250508190611534611f4a565b50505060006003611543611eef565b905060006005611551611eef565b906101000a900460ff16156115a05760405162461bcd60e51b815260040180806020018281038252603c8152602001806122c0603c91396040019150506040518091039061159d611e84565b50505b5a6115a9611fde565b6115b16118ba565b80600b6115bc611f4a565b5050506115c76111fa565b80600a6115d2611f4a565b5050506001600160a01b03811615611642576115ed816104e6565b6001600160a01b0382166000908152600d60205260409020819061160f611f4a565b505050600b61161c611eef565b6001600160a01b0382166000908152600c60205260409020819061163e611f4a565b5050505b600083116116905760405162461bcd60e51b815260206004820152600e60248201526d043616e6e6f74207374616b6520360941b60448201526064016040518091039061168d611e84565b50505b61169e83600e61058b611eef565b80600e6116a9611f4a565b5050506116e583600f60005a6116bd611fde565b6001600160a01b03166001600160a01b0316815260200190815260200160002061058b611eef565b600f60005a6116f2611fde565b6001600160a01b03166001600160a01b03168152602001908152602001600020819061171c611f4a565b5050506117b25a61172b611fde565b5a63996d79a5598160e01b8152602081600483336000905af158601d01573d60011458600c01573d6000803e3d621234565260ea61109c528051925060005b60408110156117815760008282015260200161176a565b505050856006600090611792611eef565b6001600160a01b036101009290920a90041692919063ffffffff611c1316565b5a6117bb611fde565b6001600160a01b03167f9e71bc8eea02a63969f509818f2dafb9254532904319f9dbda79b67bd34a5f3d8460405190815260200160405180910390a25060036109aa611eef565b600a6105b5611eef565b611814611b29565b600761181e611eef565b5a611827611f98565b1161186c5760405162461bcd60e51b81526004018080602001828103825260588152602001806121e36058913960600191505060405180910390611869611e84565b50505b80806009611878611f4a565b5050507ffb46ca5a5e06d4540d6387b930a7c978bce0db5f449ec6b3f5d07c6e1d44f2d360096118a6611eef565b60405190815260200160405180910390a150565b6000600e6118c6611eef565b6118db57600b6118d4611eef565b9050610717565b610714611919600e6118eb611eef565b61057f670de0b6b3a76400006105736008611904611eef565b610573600a611911611eef565b6105476111fa565b600b61058b611eef565b6001600561100e611eef565b600b6105b5611eef565b611976600f60005a611949611fde565b6001600160a01b03166001600160a01b03168152602001908152602001600020611971611eef565b610771565b61197e610dee565b565b60076105b5611eef565b6000828211156119e95760405162461bcd60e51b815260206004820152601e60248201527f536166654d6174683a207375627472616374696f6e206f766572666c6f7700006044820152606401604051809103906119e6611e84565b50505b50900390565b6000826119fe57506000610597565b82820282848281611a0b57fe5b0414611a515760405162461bcd60e51b815260040180806020018281038252602181526020018061229f6021913960400191505060405180910390611a4e611e84565b50505b9392505050565b6000808211611ab65760405162461bcd60e51b815260206004820152601a60248201527f536166654d6174683a206469766973696f6e206279207a65726f000000000000604482015260640160405180910390611ab3611e84565b50505b6000828481611ac157fe5b04949350505050565b600082820183811015611a515760405162461bcd60e51b815260206004820152601b60248201527f536166654d6174683a206164646974696f6e206f766572666c6f770000000000604482015260640160405180910390611a4e611e84565b600080611b34611eef565b906101000a90046001600160a01b03166001600160a01b03165a611b56611fde565b6001600160a01b03161461197e5760405162461bcd60e51b815260040180806020018281038252602f815260200180612270602f913960400191505060405180910390610a02611e84565b610ffd8363a9059cbb60e01b84846040516001600160a01b0390921660248301526044820152606401604051602081830303815290604052906001600160e01b0319166020820180516001600160e01b03169091179052611c78565b6000818310611c0c5781611a51565b5090919050565b610752846323b872dd60e01b8585856040516001600160a01b0393841660248201529190921660448201526064810191909152608401604051602081830303815290604052906001600160e01b0319166020820180516001600160e01b031690911790525b611c8a826001600160a01b0316611e6f565b611ce35760405162461bcd60e51b815260206004820152601f60248201527f5361666545524332303a2063616c6c20746f206e6f6e2d636f6e747261637400604482015260640160405180910390611ce0611e84565b50505b60006060836001600160a01b0316836040518082805190602001908083835b60208310611d215780518252601f199092019160209182019101611d02565b6001836020036101000a0380198251168184511680821785525050505050509050019150506000604051808303816000865a611d5b612129565b5050505050509150503d8060008114611d90576040513d603f01601f191681016040523d815291503d6000602084013e611d95565b606091505b509150915081611df45760405162461bcd60e51b815260206004820181905260248201527f5361666545524332303a206c6f772d6c6576656c2063616c6c206661696c6564604482015260640160405180910390611df1611e84565b50505b600081511115610752576020810181516020811015611e1b57600080611e18611e84565b50505b81019080805192506107529150505760405162461bcd60e51b815260040180806020018281038252602a815260200180612353602a913960400191505060405180910390611e67611e84565b505050505050565b60008082611e7b612024565b15159392505050565b632a2a7adb598160e01b8152600481016020815285602082015260005b86811015611ebc578086015182820160400152602001611ea1565b506020828760640184336000905af158601d01573d60011458600c01573d6000803e3d621234565260ea61109c52505050565b6303daa959598160e01b8152836004820152602081602483336000905af158601d01573d60011458600c01573d6000803e3d621234565260ea61109c528051935060005b6040811015610ffd57600082820152602001611f33565b6322bd64c0598160e01b8152836004820152846024820152600081604483336000905af158601d01573d60011458600c01573d6000803e3d621234565260ea61109c52600081526020611f33565b63bdbf8c36598160e01b8152602081600483336000905af158601d01573d60011458600c01573d6000803e3d621234565260ea61109c5280516000825293506020611f33565b6373509064598160e01b8152602081600483336000905af158601d01573d60011458600c01573d6000803e3d621234565260ea61109c5280516000825293506020611f33565b638435035b598160e01b8152836004820152602081602483336000905af158601d01573d60011458600c01573d6000803e3d621234565260ea61109c5280516000825293506020611f33565b638540661f598160e01b8152836004820152846024820152606060448201528660648201526084810160005b888110156120b457808801518282015260200161209c565b50876101040182016060838a6101040185336000905af158601d01573d60011458600c01573d6000803e3d621234565260ea61109c52825160408401513d6000863e8c8c82606088013350600060045af15059855b8181101561211d5760008152602001612109565b50919c50505050505050565b6385979f76598160e01b8152836004820152846024820152606060448201528760648201526084810160005b8981101561216d578089015182820152602001612155565b50886101040182016060838b6101040185336000905af158601d01573d60011458600c01573d6000803e3d621234565260ea61109c52825160408401513d6000863e8d8d82606088013350600060045af15059855b818110156121d657600081526020016121c2565b50919d5050505050505056fe50726576696f7573207265776172647320706572696f64206d75737420626520636f6d706c657465206265666f7265206368616e67696e6720746865206475726174696f6e20666f7220746865206e657720706572696f64596f75206d757374206265206e6f6d696e61746564206265666f726520796f752063616e20616363657074206f776e6572736869704f6e6c792074686520636f6e7472616374206f776e6572206d617920706572666f726d207468697320616374696f6e536166654d6174683a206d756c7469706c69636174696f6e206f766572666c6f775468697320616374696f6e2063616e6e6f7420626520706572666f726d6564207768696c652074686520636f6e74726163742069732070617573656443616e6e6f7420776974686472617720746865207374616b696e67206f72207265776172647320746f6b656e7343616c6c6572206973206e6f742052657761726473446973747269627574696f6e20636f6e74726163745361666545524332303a204552433230206f7065726174696f6e20646964206e6f742073756363656564",
			"opcodes": "PUSH1 0x80 PUSH1 0x40 MSTORE CALLVALUE DUP1 ISZERO PUSH2 0x19 JUMPI PUSH1 0x0 DUP1 PUSH2 0x16 PUSH2 0x1E84 JUMP JUMPDEST POP POP JUMPDEST POP PUSH1 0x4 CALLDATASIZE LT PUSH2 0x1ED JUMPI PUSH1 0x0 CALLDATALOAD PUSH1 0xE0 SHR DUP1 PUSH4 0x72F702F3 GT PUSH2 0x118 JUMPI DUP1 PUSH4 0xA694FC3A GT PUSH2 0xAB JUMPI DUP1 PUSH4 0xD1AF0C7D GT PUSH2 0x7A JUMPI DUP1 PUSH4 0xD1AF0C7D EQ PUSH2 0x4C6 JUMPI DUP1 PUSH4 0xDF136D65 EQ PUSH2 0x4CE JUMPI DUP1 PUSH4 0xE9FAD8EE EQ PUSH2 0x4D6 JUMPI DUP1 PUSH4 0xEBE2B12B EQ PUSH2 0x4DE JUMPI PUSH2 0x1ED JUMP JUMPDEST DUP1 PUSH4 0xA694FC3A EQ PUSH2 0x46A JUMPI DUP1 PUSH4 0xC8F33C91 EQ PUSH2 0x490 JUMPI DUP1 PUSH4 0xCC1A378F EQ PUSH2 0x498 JUMPI DUP1 PUSH4 0xCD3DAF9D EQ PUSH2 0x4BE JUMPI PUSH2 0x1ED JUMP JUMPDEST DUP1 PUSH4 0x8980F11F GT PUSH2 0xE7 JUMPI DUP1 PUSH4 0x8980F11F EQ PUSH2 0x3F6 JUMPI DUP1 PUSH4 0x8B876347 EQ PUSH2 0x42B JUMPI DUP1 PUSH4 0x8DA5CB5B EQ PUSH2 0x45A JUMPI DUP1 PUSH4 0x91B4DED9 EQ PUSH2 0x462 JUMPI PUSH2 0x1ED JUMP JUMPDEST DUP1 PUSH4 0x72F702F3 EQ PUSH2 0x3D6 JUMPI DUP1 PUSH4 0x79BA5097 EQ PUSH2 0x3DE JUMPI DUP1 PUSH4 0x7B0A47EE EQ PUSH2 0x3E6 JUMPI DUP1 PUSH4 0x80FAA57D EQ PUSH2 0x3EE JUMPI PUSH2 0x1ED JUMP JUMPDEST DUP1 PUSH4 0x2E1A7D4D GT PUSH2 0x190 JUMPI DUP1 PUSH4 0x3FC6DF6E GT PUSH2 0x15F JUMPI DUP1 PUSH4 0x3FC6DF6E EQ PUSH2 0x35F JUMPI DUP1 PUSH4 0x53A47BB7 EQ PUSH2 0x383 JUMPI DUP1 PUSH4 0x5C975ABB EQ PUSH2 0x38B JUMPI DUP1 PUSH4 0x70A08231 EQ PUSH2 0x3A7 JUMPI PUSH2 0x1ED JUMP JUMPDEST DUP1 PUSH4 0x2E1A7D4D EQ PUSH2 0x303 JUMPI DUP1 PUSH4 0x386A9525 EQ PUSH2 0x329 JUMPI DUP1 PUSH4 0x3C6B16AB EQ PUSH2 0x331 JUMPI DUP1 PUSH4 0x3D18B912 EQ PUSH2 0x357 JUMPI PUSH2 0x1ED JUMP JUMPDEST DUP1 PUSH4 0x16C38B3C GT PUSH2 0x1CC JUMPI DUP1 PUSH4 0x16C38B3C EQ PUSH2 0x29C JUMPI DUP1 PUSH4 0x18160DDD EQ PUSH2 0x2C4 JUMPI DUP1 PUSH4 0x19762143 EQ PUSH2 0x2CC JUMPI DUP1 PUSH4 0x1C1F78EB EQ PUSH2 0x2FB JUMPI PUSH2 0x1ED JUMP JUMPDEST DUP1 PUSH3 0x8CC262 EQ PUSH2 0x1FB JUMPI DUP1 PUSH4 0x700037D EQ PUSH2 0x23C JUMPI DUP1 PUSH4 0x1627540C EQ PUSH2 0x26B JUMPI JUMPDEST PUSH1 0x0 DUP1 PUSH2 0x1F8 PUSH2 0x1E84 JUMP JUMPDEST POP POP JUMPDEST PUSH2 0x22A PUSH1 0x4 DUP1 CALLDATASIZE SUB PUSH1 0x20 DUP2 LT ISZERO PUSH2 0x21A JUMPI PUSH1 0x0 DUP1 PUSH2 0x217 PUSH2 0x1E84 JUMP JUMPDEST POP POP JUMPDEST POP CALLDATALOAD PUSH1 0x1 PUSH1 0x1 PUSH1 0xA0 SHL SUB AND PUSH2 0x4E6 JUMP JUMPDEST PUSH1 0x40 MLOAD SWAP1 DUP2 MSTORE PUSH1 0x20 ADD PUSH1 0x40 MLOAD DUP1 SWAP2 SUB SWAP1 RETURN JUMPDEST PUSH2 0x22A PUSH1 0x4 DUP1 CALLDATASIZE SUB PUSH1 0x20 DUP2 LT ISZERO PUSH2 0x25B JUMPI PUSH1 0x0 DUP1 PUSH2 0x258 PUSH2 0x1E84 JUMP JUMPDEST POP POP JUMPDEST POP CALLDATALOAD PUSH1 0x1 PUSH1 0x1 PUSH1 0xA0 SHL SUB AND PUSH2 0x59D JUMP JUMPDEST PUSH2 0x29A PUSH1 0x4 DUP1 CALLDATASIZE SUB PUSH1 0x20 DUP2 LT ISZERO PUSH2 0x28A JUMPI PUSH1 0x0 DUP1 PUSH2 0x287 PUSH2 0x1E84 JUMP JUMPDEST POP POP JUMPDEST POP CALLDATALOAD PUSH1 0x1 PUSH1 0x1 PUSH1 0xA0 SHL SUB AND PUSH2 0x5B8 JUMP JUMPDEST STOP JUMPDEST PUSH2 0x29A PUSH1 0x4 DUP1 CALLDATASIZE SUB PUSH1 0x20 DUP2 LT ISZERO PUSH2 0x2BB JUMPI PUSH1 0x0 DUP1 PUSH2 0x2B8 PUSH2 0x1E84 JUMP JUMPDEST POP POP JUMPDEST POP CALLDATALOAD ISZERO ISZERO PUSH2 0x632 JUMP JUMPDEST PUSH2 0x22A PUSH2 0x708 JUMP JUMPDEST PUSH2 0x29A PUSH1 0x4 DUP1 CALLDATASIZE SUB PUSH1 0x20 DUP2 LT ISZERO PUSH2 0x2EB JUMPI PUSH1 0x0 DUP1 PUSH2 0x2E8 PUSH2 0x1E84 JUMP JUMPDEST POP POP JUMPDEST POP CALLDATALOAD PUSH1 0x1 PUSH1 0x1 PUSH1 0xA0 SHL SUB AND PUSH2 0x71A JUMP JUMPDEST PUSH2 0x22A PUSH2 0x758 JUMP JUMPDEST PUSH2 0x29A PUSH1 0x4 DUP1 CALLDATASIZE SUB PUSH1 0x20 DUP2 LT ISZERO PUSH2 0x322 JUMPI PUSH1 0x0 DUP1 PUSH2 0x31F PUSH2 0x1E84 JUMP JUMPDEST POP POP JUMPDEST POP CALLDATALOAD PUSH2 0x771 JUMP JUMPDEST PUSH2 0x22A PUSH2 0xA06 JUMP JUMPDEST PUSH2 0x29A PUSH1 0x4 DUP1 CALLDATASIZE SUB PUSH1 0x20 DUP2 LT ISZERO PUSH2 0x350 JUMPI PUSH1 0x0 DUP1 PUSH2 0x34D PUSH2 0x1E84 JUMP JUMPDEST POP POP JUMPDEST POP CALLDATALOAD PUSH2 0xA10 JUMP JUMPDEST PUSH2 0x29A PUSH2 0xDEE JUMP JUMPDEST PUSH2 0x367 PUSH2 0x1002 JUMP JUMPDEST PUSH1 0x40 MLOAD PUSH1 0x1 PUSH1 0x1 PUSH1 0xA0 SHL SUB SWAP1 SWAP2 AND DUP2 MSTORE PUSH1 0x20 ADD PUSH1 0x40 MLOAD DUP1 SWAP2 SUB SWAP1 RETURN JUMPDEST PUSH2 0x367 PUSH2 0x1021 JUMP JUMPDEST PUSH2 0x393 PUSH2 0x102D JUMP JUMPDEST PUSH1 0x40 MLOAD SWAP1 ISZERO ISZERO DUP2 MSTORE PUSH1 0x20 ADD PUSH1 0x40 MLOAD DUP1 SWAP2 SUB SWAP1 RETURN JUMPDEST PUSH2 0x22A PUSH1 0x4 DUP1 CALLDATASIZE SUB PUSH1 0x20 DUP2 LT ISZERO PUSH2 0x3C6 JUMPI PUSH1 0x0 DUP1 PUSH2 0x3C3 PUSH2 0x1E84 JUMP JUMPDEST POP POP JUMPDEST POP CALLDATALOAD PUSH1 0x1 PUSH1 0x1 PUSH1 0xA0 SHL SUB AND PUSH2 0x1046 JUMP JUMPDEST PUSH2 0x367 PUSH2 0x1066 JUMP JUMPDEST PUSH2 0x29A PUSH2 0x1072 JUMP JUMPDEST PUSH2 0x22A PUSH2 0x11F0 JUMP JUMPDEST PUSH2 0x22A PUSH2 0x11FA JUMP JUMPDEST PUSH2 0x29A PUSH1 0x4 DUP1 CALLDATASIZE SUB PUSH1 0x40 DUP2 LT ISZERO PUSH2 0x415 JUMPI PUSH1 0x0 DUP1 PUSH2 0x412 PUSH2 0x1E84 JUMP JUMPDEST POP POP JUMPDEST POP PUSH1 0x1 PUSH1 0x1 PUSH1 0xA0 SHL SUB DUP2 CALLDATALOAD AND SWAP1 PUSH1 0x20 ADD CALLDATALOAD PUSH2 0x1217 JUMP JUMPDEST PUSH2 0x22A PUSH1 0x4 DUP1 CALLDATASIZE SUB PUSH1 0x20 DUP2 LT ISZERO PUSH2 0x44A JUMPI PUSH1 0x0 DUP1 PUSH2 0x447 PUSH2 0x1E84 JUMP JUMPDEST POP POP JUMPDEST POP CALLDATALOAD PUSH1 0x1 PUSH1 0x1 PUSH1 0xA0 SHL SUB AND PUSH2 0x14E9 JUMP JUMPDEST PUSH2 0x367 PUSH2 0x1501 JUMP JUMPDEST PUSH2 0x22A PUSH2 0x150C JUMP JUMPDEST PUSH2 0x29A PUSH1 0x4 DUP1 CALLDATASIZE SUB PUSH1 0x20 DUP2 LT ISZERO PUSH2 0x489 JUMPI PUSH1 0x0 DUP1 PUSH2 0x486 PUSH2 0x1E84 JUMP JUMPDEST POP POP JUMPDEST POP CALLDATALOAD PUSH2 0x1516 JUMP JUMPDEST PUSH2 0x22A PUSH2 0x1802 JUMP JUMPDEST PUSH2 0x29A PUSH1 0x4 DUP1 CALLDATASIZE SUB PUSH1 0x20 DUP2 LT ISZERO PUSH2 0x4B7 JUMPI PUSH1 0x0 DUP1 PUSH2 0x4B4 PUSH2 0x1E84 JUMP JUMPDEST POP POP JUMPDEST POP CALLDATALOAD PUSH2 0x180C JUMP JUMPDEST PUSH2 0x22A PUSH2 0x18BA JUMP JUMPDEST PUSH2 0x367 PUSH2 0x1923 JUMP JUMPDEST PUSH2 0x22A PUSH2 0x192F JUMP JUMPDEST PUSH2 0x29A PUSH2 0x1939 JUMP JUMPDEST PUSH2 0x22A PUSH2 0x1980 JUMP JUMPDEST PUSH1 0x1 PUSH1 0x1 PUSH1 0xA0 SHL SUB DUP2 AND PUSH1 0x0 SWAP1 DUP2 MSTORE PUSH1 0xD PUSH1 0x20 MSTORE PUSH2 0x597 PUSH1 0x40 DUP3 KECCAK256 PUSH2 0x509 PUSH2 0x1EEF JUMP JUMPDEST PUSH1 0x1 PUSH1 0x1 PUSH1 0xA0 SHL SUB DUP5 AND PUSH1 0x0 SWAP1 DUP2 MSTORE PUSH1 0xC PUSH1 0x20 MSTORE PUSH2 0x58B SWAP1 PUSH8 0xDE0B6B3A7640000 SWAP1 PUSH2 0x57F SWAP1 PUSH2 0x553 SWAP1 PUSH1 0x40 SWAP1 KECCAK256 PUSH2 0x53F PUSH2 0x1EEF JUMP JUMPDEST PUSH2 0x547 PUSH2 0x18BA JUMP JUMPDEST SWAP1 PUSH4 0xFFFFFFFF PUSH2 0x198A AND JUMP JUMPDEST PUSH1 0x1 PUSH1 0x1 PUSH1 0xA0 SHL SUB DUP9 AND PUSH1 0x0 SWAP1 DUP2 MSTORE PUSH1 0xF PUSH1 0x20 MSTORE PUSH1 0x40 SWAP1 KECCAK256 PUSH2 0x573 PUSH2 0x1EEF JUMP JUMPDEST SWAP1 PUSH4 0xFFFFFFFF PUSH2 0x19EF AND JUMP JUMPDEST SWAP1 PUSH4 0xFFFFFFFF PUSH2 0x1A58 AND JUMP JUMPDEST SWAP1 PUSH4 0xFFFFFFFF PUSH2 0x1ACA AND JUMP JUMPDEST SWAP3 SWAP2 POP POP JUMP JUMPDEST PUSH1 0xD PUSH1 0x20 MSTORE DUP1 PUSH1 0x0 MSTORE PUSH1 0x40 PUSH1 0x0 KECCAK256 SWAP1 POP PUSH2 0x5B5 PUSH2 0x1EEF JUMP JUMPDEST DUP2 JUMP JUMPDEST PUSH2 0x5C0 PUSH2 0x1B29 JUMP JUMPDEST DUP1 PUSH1 0x1 DUP1 DUP1 PUSH2 0x5CD PUSH2 0x1EEF JUMP JUMPDEST DUP2 PUSH1 0x1 PUSH1 0x1 PUSH1 0xA0 SHL SUB MUL NOT AND SWAP1 DUP4 PUSH1 0x1 PUSH1 0x1 PUSH1 0xA0 SHL SUB AND MUL OR SWAP1 PUSH2 0x5EF PUSH2 0x1F4A JUMP JUMPDEST POP POP POP PUSH32 0x906A1C6BD7E3091EA86693DD029A831C19049CE77F1DCE2CE0BAB1CACBABCE22 DUP2 PUSH1 0x40 MLOAD PUSH1 0x1 PUSH1 0x1 PUSH1 0xA0 SHL SUB SWAP1 SWAP2 AND DUP2 MSTORE PUSH1 0x20 ADD PUSH1 0x40 MLOAD DUP1 SWAP2 SUB SWAP1 LOG1 POP JUMP JUMPDEST PUSH2 0x63A PUSH2 0x1B29 JUMP JUMPDEST PUSH1 0x0 PUSH1 0x5 PUSH2 0x646 PUSH2 0x1EEF JUMP JUMPDEST SWAP1 PUSH2 0x100 EXP SWAP1 DIV PUSH1 0xFF AND ISZERO ISZERO DUP2 ISZERO ISZERO EQ ISZERO PUSH2 0x660 JUMPI PUSH2 0x705 JUMP JUMPDEST DUP1 PUSH1 0x5 PUSH1 0x1 DUP2 PUSH2 0x66E PUSH2 0x1EEF JUMP JUMPDEST DUP2 PUSH1 0xFF MUL NOT AND SWAP1 DUP4 ISZERO ISZERO MUL OR SWAP1 PUSH2 0x683 PUSH2 0x1F4A JUMP JUMPDEST POP POP POP PUSH1 0x5 PUSH1 0x0 SWAP1 PUSH2 0x693 PUSH2 0x1EEF JUMP JUMPDEST SWAP1 PUSH2 0x100 EXP SWAP1 DIV PUSH1 0xFF AND ISZERO PUSH2 0x6BA JUMPI GAS PUSH2 0x6AB PUSH2 0x1F98 JUMP JUMPDEST DUP1 PUSH1 0x4 PUSH2 0x6B6 PUSH2 0x1F4A JUMP JUMPDEST POP POP POP JUMPDEST PUSH32 0x8FB6C181EE25A520CF3DD6565006EF91229FCFE5A989566C2A3B8C115570CEC5 PUSH1 0x0 PUSH1 0x5 PUSH2 0x6E7 PUSH2 0x1EEF JUMP JUMPDEST SWAP1 PUSH2 0x100 EXP SWAP1 DIV PUSH1 0xFF AND PUSH1 0x40 MLOAD SWAP1 ISZERO ISZERO DUP2 MSTORE PUSH1 0x20 ADD PUSH1 0x40 MLOAD DUP1 SWAP2 SUB SWAP1 LOG1 JUMPDEST POP JUMP JUMPDEST PUSH1 0x0 PUSH1 0xE PUSH2 0x714 PUSH2 0x1EEF JUMP JUMPDEST SWAP1 POP JUMPDEST SWAP1 JUMP JUMPDEST PUSH2 0x722 PUSH2 0x1B29 JUMP JUMPDEST DUP1 PUSH1 0x2 PUSH1 0x1 DUP2 PUSH2 0x730 PUSH2 0x1EEF JUMP JUMPDEST DUP2 PUSH1 0x1 PUSH1 0x1 PUSH1 0xA0 SHL SUB MUL NOT AND SWAP1 DUP4 PUSH1 0x1 PUSH1 0x1 PUSH1 0xA0 SHL SUB AND MUL OR SWAP1 PUSH2 0x752 PUSH2 0x1F4A JUMP JUMPDEST POP POP POP POP JUMP JUMPDEST PUSH1 0x0 PUSH2 0x714 PUSH1 0x9 PUSH2 0x767 PUSH2 0x1EEF JUMP JUMPDEST PUSH1 0x8 PUSH2 0x573 PUSH2 0x1EEF JUMP JUMPDEST PUSH1 0x1 PUSH1 0x3 PUSH1 0x0 DUP3 DUP3 PUSH2 0x781 PUSH2 0x1EEF JUMP JUMPDEST ADD SWAP3 POP POP DUP2 SWAP1 PUSH2 0x78F PUSH2 0x1F4A JUMP JUMPDEST POP POP POP PUSH1 0x0 PUSH1 0x3 PUSH2 0x79E PUSH2 0x1EEF JUMP JUMPDEST SWAP1 POP GAS PUSH2 0x7A9 PUSH2 0x1FDE JUMP JUMPDEST PUSH2 0x7B1 PUSH2 0x18BA JUMP JUMPDEST DUP1 PUSH1 0xB PUSH2 0x7BC PUSH2 0x1F4A JUMP JUMPDEST POP POP POP PUSH2 0x7C7 PUSH2 0x11FA JUMP JUMPDEST DUP1 PUSH1 0xA PUSH2 0x7D2 PUSH2 0x1F4A JUMP JUMPDEST POP POP POP PUSH1 0x1 PUSH1 0x1 PUSH1 0xA0 SHL SUB DUP2 AND ISZERO PUSH2 0x842 JUMPI PUSH2 0x7ED DUP2 PUSH2 0x4E6 JUMP JUMPDEST PUSH1 0x1 PUSH1 0x1 PUSH1 0xA0 SHL SUB DUP3 AND PUSH1 0x0 SWAP1 DUP2 MSTORE PUSH1 0xD PUSH1 0x20 MSTORE PUSH1 0x40 SWAP1 KECCAK256 DUP2 SWAP1 PUSH2 0x80F PUSH2 0x1F4A JUMP JUMPDEST POP POP POP PUSH1 0xB PUSH2 0x81C PUSH2 0x1EEF JUMP JUMPDEST PUSH1 0x1 PUSH1 0x1 PUSH1 0xA0 SHL SUB DUP3 AND PUSH1 0x0 SWAP1 DUP2 MSTORE PUSH1 0xC PUSH1 0x20 MSTORE PUSH1 0x40 SWAP1 KECCAK256 DUP2 SWAP1 PUSH2 0x83E PUSH2 0x1F4A JUMP JUMPDEST POP POP POP JUMPDEST PUSH1 0x0 DUP4 GT PUSH2 0x893 JUMPI PUSH1 0x40 MLOAD PUSH3 0x461BCD PUSH1 0xE5 SHL DUP2 MSTORE PUSH1 0x20 PUSH1 0x4 DUP3 ADD MSTORE PUSH1 0x11 PUSH1 0x24 DUP3 ADD MSTORE PUSH17 0x43616E6E6F74207769746864726177203 PUSH1 0x7C SHL PUSH1 0x44 DUP3 ADD MSTORE PUSH1 0x64 ADD PUSH1 0x40 MLOAD DUP1 SWAP2 SUB SWAP1 PUSH2 0x890 PUSH2 0x1E84 JUMP JUMPDEST POP POP JUMPDEST PUSH2 0x8A1 DUP4 PUSH1 0xE PUSH2 0x547 PUSH2 0x1EEF JUMP JUMPDEST DUP1 PUSH1 0xE PUSH2 0x8AC PUSH2 0x1F4A JUMP JUMPDEST POP POP POP PUSH2 0x8E8 DUP4 PUSH1 0xF PUSH1 0x0 GAS PUSH2 0x8C0 PUSH2 0x1FDE JUMP JUMPDEST PUSH1 0x1 PUSH1 0x1 PUSH1 0xA0 SHL SUB AND PUSH1 0x1 PUSH1 0x1 PUSH1 0xA0 SHL SUB AND DUP2 MSTORE PUSH1 0x20 ADD SWAP1 DUP2 MSTORE PUSH1 0x20 ADD PUSH1 0x0 KECCAK256 PUSH2 0x547 PUSH2 0x1EEF JUMP JUMPDEST PUSH1 0xF PUSH1 0x0 GAS PUSH2 0x8F5 PUSH2 0x1FDE JUMP JUMPDEST PUSH1 0x1 PUSH1 0x1 PUSH1 0xA0 SHL SUB AND PUSH1 0x1 PUSH1 0x1 PUSH1 0xA0 SHL SUB AND DUP2 MSTORE PUSH1 0x20 ADD SWAP1 DUP2 MSTORE PUSH1 0x20 ADD PUSH1 0x0 KECCAK256 DUP2 SWAP1 PUSH2 0x91F PUSH2 0x1F4A JUMP JUMPDEST POP POP POP PUSH2 0x95A GAS PUSH2 0x92E PUSH2 0x1FDE JUMP JUMPDEST DUP5 PUSH1 0x0 PUSH1 0x6 PUSH2 0x93B PUSH2 0x1EEF JUMP JUMPDEST PUSH1 0x1 PUSH1 0x1 PUSH1 0xA0 SHL SUB PUSH2 0x100 SWAP3 SWAP1 SWAP3 EXP SWAP1 DIV AND SWAP2 SWAP1 PUSH4 0xFFFFFFFF PUSH2 0x1BA1 AND JUMP JUMPDEST GAS PUSH2 0x963 PUSH2 0x1FDE JUMP JUMPDEST PUSH1 0x1 PUSH1 0x1 PUSH1 0xA0 SHL SUB AND PUSH32 0x7084F5476618D8E60B11EF0D7D3F06914655ADB8793E28FF7F018D4C76D505D5 DUP5 PUSH1 0x40 MLOAD SWAP1 DUP2 MSTORE PUSH1 0x20 ADD PUSH1 0x40 MLOAD DUP1 SWAP2 SUB SWAP1 LOG2 POP PUSH1 0x3 PUSH2 0x9AA PUSH2 0x1EEF JUMP JUMPDEST DUP2 EQ PUSH2 0xA02 JUMPI PUSH1 0x40 MLOAD PUSH3 0x461BCD PUSH1 0xE5 SHL DUP2 MSTORE PUSH1 0x20 PUSH1 0x4 DUP3 ADD MSTORE PUSH1 0x1F PUSH1 0x24 DUP3 ADD MSTORE PUSH32 0x5265656E7472616E637947756172643A207265656E7472616E742063616C6C00 PUSH1 0x44 DUP3 ADD MSTORE PUSH1 0x64 ADD PUSH1 0x40 MLOAD DUP1 SWAP2 SUB SWAP1 PUSH2 0x752 PUSH2 0x1E84 JUMP JUMPDEST POP POP JUMP JUMPDEST PUSH1 0x9 PUSH2 0x5B5 PUSH2 0x1EEF JUMP JUMPDEST PUSH1 0x0 PUSH1 0x2 PUSH2 0xA1C PUSH2 0x1EEF JUMP JUMPDEST SWAP1 PUSH2 0x100 EXP SWAP1 DIV PUSH1 0x1 PUSH1 0x1 PUSH1 0xA0 SHL SUB AND PUSH1 0x1 PUSH1 0x1 PUSH1 0xA0 SHL SUB AND GAS PUSH2 0xA3E PUSH2 0x1FDE JUMP JUMPDEST PUSH1 0x1 PUSH1 0x1 PUSH1 0xA0 SHL SUB AND EQ PUSH2 0xA8C JUMPI PUSH1 0x40 MLOAD PUSH3 0x461BCD PUSH1 0xE5 SHL DUP2 MSTORE PUSH1 0x4 ADD DUP1 DUP1 PUSH1 0x20 ADD DUP3 DUP2 SUB DUP3 MSTORE PUSH1 0x2A DUP2 MSTORE PUSH1 0x20 ADD DUP1 PUSH2 0x2329 PUSH1 0x2A SWAP2 CODECOPY PUSH1 0x40 ADD SWAP2 POP POP PUSH1 0x40 MLOAD DUP1 SWAP2 SUB SWAP1 PUSH2 0xA89 PUSH2 0x1E84 JUMP JUMPDEST POP POP JUMPDEST PUSH1 0x0 PUSH2 0xA96 PUSH2 0x18BA JUMP JUMPDEST DUP1 PUSH1 0xB PUSH2 0xAA1 PUSH2 0x1F4A JUMP JUMPDEST POP POP POP PUSH2 0xAAC PUSH2 0x11FA JUMP JUMPDEST DUP1 PUSH1 0xA PUSH2 0xAB7 PUSH2 0x1F4A JUMP JUMPDEST POP POP POP PUSH1 0x1 PUSH1 0x1 PUSH1 0xA0 SHL SUB DUP2 AND ISZERO PUSH2 0xB27 JUMPI PUSH2 0xAD2 DUP2 PUSH2 0x4E6 JUMP JUMPDEST PUSH1 0x1 PUSH1 0x1 PUSH1 0xA0 SHL SUB DUP3 AND PUSH1 0x0 SWAP1 DUP2 MSTORE PUSH1 0xD PUSH1 0x20 MSTORE PUSH1 0x40 SWAP1 KECCAK256 DUP2 SWAP1 PUSH2 0xAF4 PUSH2 0x1F4A JUMP JUMPDEST POP POP POP PUSH1 0xB PUSH2 0xB01 PUSH2 0x1EEF JUMP JUMPDEST PUSH1 0x1 PUSH1 0x1 PUSH1 0xA0 SHL SUB DUP3 AND PUSH1 0x0 SWAP1 DUP2 MSTORE PUSH1 0xC PUSH1 0x20 MSTORE PUSH1 0x40 SWAP1 KECCAK256 DUP2 SWAP1 PUSH2 0xB23 PUSH2 0x1F4A JUMP JUMPDEST POP POP POP JUMPDEST PUSH1 0x7 PUSH2 0xB31 PUSH2 0x1EEF JUMP JUMPDEST GAS PUSH2 0xB3A PUSH2 0x1F98 JUMP JUMPDEST LT PUSH2 0xB6C JUMPI PUSH2 0xB59 PUSH1 0x9 PUSH2 0xB4C PUSH2 0x1EEF JUMP JUMPDEST DUP4 SWAP1 PUSH4 0xFFFFFFFF PUSH2 0x1A58 AND JUMP JUMPDEST DUP1 PUSH1 0x8 PUSH2 0xB64 PUSH2 0x1F4A JUMP JUMPDEST POP POP POP PUSH2 0xBD2 JUMP JUMPDEST PUSH1 0x0 PUSH2 0xB84 GAS PUSH2 0xB7A PUSH2 0x1F98 JUMP JUMPDEST PUSH1 0x7 PUSH2 0x547 PUSH2 0x1EEF JUMP JUMPDEST SWAP1 POP PUSH1 0x0 PUSH2 0xBA2 PUSH1 0x8 PUSH2 0xB95 PUSH2 0x1EEF JUMP JUMPDEST DUP4 SWAP1 PUSH4 0xFFFFFFFF PUSH2 0x19EF AND JUMP JUMPDEST SWAP1 POP PUSH2 0xBC1 PUSH1 0x9 PUSH2 0xBB1 PUSH2 0x1EEF JUMP JUMPDEST PUSH2 0x57F DUP7 DUP5 PUSH4 0xFFFFFFFF PUSH2 0x1ACA AND JUMP JUMPDEST DUP1 PUSH1 0x8 PUSH2 0xBCC PUSH2 0x1F4A JUMP JUMPDEST POP POP POP POP POP JUMPDEST PUSH1 0x0 PUSH1 0x1 PUSH1 0x5 PUSH2 0xBE0 PUSH2 0x1EEF JUMP JUMPDEST SWAP1 PUSH2 0x100 EXP SWAP1 DIV PUSH1 0x1 PUSH1 0x1 PUSH1 0xA0 SHL SUB AND PUSH1 0x1 PUSH1 0x1 PUSH1 0xA0 SHL SUB AND PUSH4 0x70A08231 GAS PUSH4 0x996D79A5 MSIZE DUP2 PUSH1 0xE0 SHL DUP2 MSTORE PUSH1 0x20 DUP2 PUSH1 0x4 DUP4 CALLER PUSH1 0x0 SWAP1 GAS CALL PC PUSH1 0x1D ADD JUMPI RETURNDATASIZE PUSH1 0x1 EQ PC PUSH1 0xC ADD JUMPI RETURNDATASIZE PUSH1 0x0 DUP1 RETURNDATACOPY RETURNDATASIZE PUSH3 0x123456 MSTORE PUSH1 0xEA PUSH2 0x109C MSTORE DUP1 MLOAD SWAP3 POP PUSH1 0x0 JUMPDEST PUSH1 0x40 DUP2 LT ISZERO PUSH2 0xC54 JUMPI PUSH1 0x0 DUP3 DUP3 ADD MSTORE PUSH1 0x20 ADD PUSH2 0xC3D JUMP JUMPDEST POP POP POP PUSH1 0x40 MLOAD PUSH1 0x1 PUSH1 0x1 PUSH1 0xE0 SHL SUB NOT PUSH1 0xE0 DUP5 SWAP1 SHL AND DUP2 MSTORE PUSH1 0x1 PUSH1 0x1 PUSH1 0xA0 SHL SUB SWAP1 SWAP2 AND PUSH1 0x4 DUP3 ADD MSTORE PUSH1 0x24 ADD PUSH1 0x20 PUSH1 0x40 MLOAD DUP1 DUP4 SUB DUP2 DUP7 DUP1 PUSH2 0xC91 PUSH2 0x2024 JUMP JUMPDEST ISZERO DUP1 ISZERO PUSH2 0xCA6 JUMPI PUSH1 0x0 DUP1 PUSH2 0xCA3 PUSH2 0x1E84 JUMP JUMPDEST POP POP JUMPDEST POP GAS PUSH2 0xCB0 PUSH2 0x2070 JUMP JUMPDEST POP POP POP POP POP ISZERO DUP1 ISZERO PUSH2 0xCCF JUMPI RETURNDATASIZE PUSH1 0x0 DUP1 RETURNDATACOPY RETURNDATASIZE PUSH1 0x0 PUSH2 0xCCC PUSH2 0x1E84 JUMP JUMPDEST POP POP JUMPDEST POP POP POP POP PUSH1 0x40 MLOAD RETURNDATASIZE PUSH1 0x20 DUP2 LT ISZERO PUSH2 0xCEE JUMPI PUSH1 0x0 DUP1 PUSH2 0xCEB PUSH2 0x1E84 JUMP JUMPDEST POP POP JUMPDEST DUP2 ADD SWAP1 DUP1 DUP1 MLOAD SWAP4 POP PUSH2 0xD16 SWAP3 POP PUSH1 0x9 SWAP2 POP PUSH2 0xD09 SWAP1 POP PUSH2 0x1EEF JUMP JUMPDEST DUP3 SWAP1 PUSH4 0xFFFFFFFF PUSH2 0x1A58 AND JUMP JUMPDEST PUSH1 0x8 PUSH2 0xD20 PUSH2 0x1EEF JUMP JUMPDEST GT ISZERO PUSH2 0xD7B JUMPI PUSH1 0x40 MLOAD PUSH3 0x461BCD PUSH1 0xE5 SHL DUP2 MSTORE PUSH1 0x20 PUSH1 0x4 DUP3 ADD MSTORE PUSH1 0x18 PUSH1 0x24 DUP3 ADD MSTORE PUSH32 0x50726F76696465642072657761726420746F6F20686967680000000000000000 PUSH1 0x44 DUP3 ADD MSTORE PUSH1 0x64 ADD PUSH1 0x40 MLOAD DUP1 SWAP2 SUB SWAP1 PUSH2 0xD78 PUSH2 0x1E84 JUMP JUMPDEST POP POP JUMPDEST GAS PUSH2 0xD84 PUSH2 0x1F98 JUMP JUMPDEST DUP1 PUSH1 0xA PUSH2 0xD8F PUSH2 0x1F4A JUMP JUMPDEST POP POP POP PUSH2 0xDA8 PUSH1 0x9 PUSH2 0xD9F PUSH2 0x1EEF JUMP JUMPDEST GAS PUSH2 0x58B PUSH2 0x1F98 JUMP JUMPDEST DUP1 PUSH1 0x7 PUSH2 0xDB3 PUSH2 0x1F4A JUMP JUMPDEST POP POP POP PUSH32 0xDE88A922E0D3B88B24E9623EFEB464919C6BF9F66857A65E2BFCF2CE87A9433D DUP4 PUSH1 0x40 MLOAD SWAP1 DUP2 MSTORE PUSH1 0x20 ADD PUSH1 0x40 MLOAD DUP1 SWAP2 SUB SWAP1 LOG1 POP POP POP JUMP JUMPDEST PUSH1 0x1 PUSH1 0x3 PUSH1 0x0 DUP3 DUP3 PUSH2 0xDFE PUSH2 0x1EEF JUMP JUMPDEST ADD SWAP3 POP POP DUP2 SWAP1 PUSH2 0xE0C PUSH2 0x1F4A JUMP JUMPDEST POP POP POP PUSH1 0x0 PUSH1 0x3 PUSH2 0xE1B PUSH2 0x1EEF JUMP JUMPDEST SWAP1 POP GAS PUSH2 0xE26 PUSH2 0x1FDE JUMP JUMPDEST PUSH2 0xE2E PUSH2 0x18BA JUMP JUMPDEST DUP1 PUSH1 0xB PUSH2 0xE39 PUSH2 0x1F4A JUMP JUMPDEST POP POP POP PUSH2 0xE44 PUSH2 0x11FA JUMP JUMPDEST DUP1 PUSH1 0xA PUSH2 0xE4F PUSH2 0x1F4A JUMP JUMPDEST POP POP POP PUSH1 0x1 PUSH1 0x1 PUSH1 0xA0 SHL SUB DUP2 AND ISZERO PUSH2 0xEBF JUMPI PUSH2 0xE6A DUP2 PUSH2 0x4E6 JUMP JUMPDEST PUSH1 0x1 PUSH1 0x1 PUSH1 0xA0 SHL SUB DUP3 AND PUSH1 0x0 SWAP1 DUP2 MSTORE PUSH1 0xD PUSH1 0x20 MSTORE PUSH1 0x40 SWAP1 KECCAK256 DUP2 SWAP1 PUSH2 0xE8C PUSH2 0x1F4A JUMP JUMPDEST POP POP POP PUSH1 0xB PUSH2 0xE99 PUSH2 0x1EEF JUMP JUMPDEST PUSH1 0x1 PUSH1 0x1 PUSH1 0xA0 SHL SUB DUP3 AND PUSH1 0x0 SWAP1 DUP2 MSTORE PUSH1 0xC PUSH1 0x20 MSTORE PUSH1 0x40 SWAP1 KECCAK256 DUP2 SWAP1 PUSH2 0xEBB PUSH2 0x1F4A JUMP JUMPDEST POP POP POP JUMPDEST PUSH1 0x0 PUSH1 0xD PUSH1 0x0 GAS PUSH2 0xECE PUSH2 0x1FDE JUMP JUMPDEST PUSH1 0x1 PUSH1 0x1 PUSH1 0xA0 SHL SUB AND PUSH1 0x1 PUSH1 0x1 PUSH1 0xA0 SHL SUB AND DUP2 MSTORE PUSH1 0x20 ADD SWAP1 DUP2 MSTORE PUSH1 0x20 ADD PUSH1 0x0 KECCAK256 PUSH2 0xEF6 PUSH2 0x1EEF JUMP JUMPDEST SWAP1 POP DUP1 ISZERO PUSH2 0xF99 JUMPI PUSH1 0x0 PUSH1 0xD PUSH1 0x0 GAS PUSH2 0xF0D PUSH2 0x1FDE JUMP JUMPDEST PUSH1 0x1 PUSH1 0x1 PUSH1 0xA0 SHL SUB AND PUSH1 0x1 PUSH1 0x1 PUSH1 0xA0 SHL SUB AND DUP2 MSTORE PUSH1 0x20 ADD SWAP1 DUP2 MSTORE PUSH1 0x20 ADD PUSH1 0x0 KECCAK256 DUP2 SWAP1 PUSH2 0xF37 PUSH2 0x1F4A JUMP JUMPDEST POP POP POP PUSH2 0xF53 GAS PUSH2 0xF46 PUSH2 0x1FDE JUMP JUMPDEST DUP3 PUSH1 0x1 PUSH1 0x5 PUSH2 0x93B PUSH2 0x1EEF JUMP JUMPDEST GAS PUSH2 0xF5C PUSH2 0x1FDE JUMP JUMPDEST PUSH1 0x1 PUSH1 0x1 PUSH1 0xA0 SHL SUB AND PUSH32 0xE2403640BA68FED3A2F88B7557551D1993F84B99BB10FF833F0CF8DB0C5E0486 DUP3 PUSH1 0x40 MLOAD SWAP1 DUP2 MSTORE PUSH1 0x20 ADD PUSH1 0x40 MLOAD DUP1 SWAP2 SUB SWAP1 LOG2 JUMPDEST POP POP PUSH1 0x3 PUSH2 0xFA5 PUSH2 0x1EEF JUMP JUMPDEST DUP2 EQ PUSH2 0x705 JUMPI PUSH1 0x40 MLOAD PUSH3 0x461BCD PUSH1 0xE5 SHL DUP2 MSTORE PUSH1 0x20 PUSH1 0x4 DUP3 ADD MSTORE PUSH1 0x1F PUSH1 0x24 DUP3 ADD MSTORE PUSH32 0x5265656E7472616E637947756172643A207265656E7472616E742063616C6C00 PUSH1 0x44 DUP3 ADD MSTORE PUSH1 0x64 ADD PUSH1 0x40 MLOAD DUP1 SWAP2 SUB SWAP1 PUSH2 0xFFD PUSH2 0x1E84 JUMP JUMPDEST POP POP POP JUMP JUMPDEST PUSH1 0x0 PUSH1 0x2 PUSH2 0x100E PUSH2 0x1EEF JUMP JUMPDEST SWAP1 PUSH2 0x100 EXP SWAP1 DIV PUSH1 0x1 PUSH1 0x1 PUSH1 0xA0 SHL SUB AND DUP2 JUMP JUMPDEST PUSH1 0x0 PUSH1 0x1 PUSH2 0x100E PUSH2 0x1EEF JUMP JUMPDEST PUSH1 0x0 PUSH1 0x5 PUSH2 0x1039 PUSH2 0x1EEF JUMP JUMPDEST SWAP1 PUSH2 0x100 EXP SWAP1 DIV PUSH1 0xFF AND DUP2 JUMP JUMPDEST PUSH1 0x1 PUSH1 0x1 PUSH1 0xA0 SHL SUB DUP2 AND PUSH1 0x0 SWAP1 DUP2 MSTORE PUSH1 0xF PUSH1 0x20 MSTORE PUSH1 0x40 DUP2 KECCAK256 PUSH2 0x597 PUSH2 0x1EEF JUMP JUMPDEST PUSH1 0x0 PUSH1 0x6 PUSH2 0x100E PUSH2 0x1EEF JUMP JUMPDEST PUSH1 0x0 PUSH1 0x1 PUSH2 0x107E PUSH2 0x1EEF JUMP JUMPDEST SWAP1 PUSH2 0x100 EXP SWAP1 DIV PUSH1 0x1 PUSH1 0x1 PUSH1 0xA0 SHL SUB AND PUSH1 0x1 PUSH1 0x1 PUSH1 0xA0 SHL SUB AND GAS PUSH2 0x10A0 PUSH2 0x1FDE JUMP JUMPDEST PUSH1 0x1 PUSH1 0x1 PUSH1 0xA0 SHL SUB AND EQ PUSH2 0x10EE JUMPI PUSH1 0x40 MLOAD PUSH3 0x461BCD PUSH1 0xE5 SHL DUP2 MSTORE PUSH1 0x4 ADD DUP1 DUP1 PUSH1 0x20 ADD DUP3 DUP2 SUB DUP3 MSTORE PUSH1 0x35 DUP2 MSTORE PUSH1 0x20 ADD DUP1 PUSH2 0x223B PUSH1 0x35 SWAP2 CODECOPY PUSH1 0x40 ADD SWAP2 POP POP PUSH1 0x40 MLOAD DUP1 SWAP2 SUB SWAP1 PUSH2 0x10EB PUSH2 0x1E84 JUMP JUMPDEST POP POP JUMPDEST PUSH32 0xB532073B38C83145E3E5135377A08BF9AAB55BC0FD7C1179CD4FB995D2A5159C PUSH1 0x0 DUP1 PUSH2 0x111A PUSH2 0x1EEF JUMP JUMPDEST SWAP1 PUSH2 0x100 EXP SWAP1 DIV PUSH1 0x1 PUSH1 0x1 PUSH1 0xA0 SHL SUB AND PUSH1 0x1 PUSH1 0x0 SWAP1 PUSH2 0x1137 PUSH2 0x1EEF JUMP JUMPDEST SWAP1 PUSH2 0x100 EXP SWAP1 DIV PUSH1 0x1 PUSH1 0x1 PUSH1 0xA0 SHL SUB AND PUSH1 0x40 MLOAD PUSH1 0x1 PUSH1 0x1 PUSH1 0xA0 SHL SUB SWAP3 DUP4 AND DUP2 MSTORE SWAP2 AND PUSH1 0x20 DUP3 ADD MSTORE PUSH1 0x40 SWAP1 DUP2 ADD SWAP1 MLOAD DUP1 SWAP2 SUB SWAP1 LOG1 PUSH1 0x0 PUSH1 0x1 PUSH2 0x1176 PUSH2 0x1EEF JUMP JUMPDEST SWAP1 PUSH2 0x100 EXP SWAP1 DIV PUSH1 0x1 PUSH1 0x1 PUSH1 0xA0 SHL SUB AND PUSH1 0x0 DUP1 PUSH2 0x100 EXP DUP2 PUSH2 0x1196 PUSH2 0x1EEF JUMP JUMPDEST DUP2 PUSH1 0x1 PUSH1 0x1 PUSH1 0xA0 SHL SUB MUL NOT AND SWAP1 DUP4 PUSH1 0x1 PUSH1 0x1 PUSH1 0xA0 SHL SUB AND MUL OR SWAP1 PUSH2 0x11B8 PUSH2 0x1F4A JUMP JUMPDEST POP POP POP PUSH1 0x0 PUSH1 0x1 PUSH1 0x0 PUSH2 0x100 EXP DUP2 PUSH2 0x11CE PUSH2 0x1EEF JUMP JUMPDEST DUP2 PUSH1 0x1 PUSH1 0x1 PUSH1 0xA0 SHL SUB MUL NOT AND SWAP1 DUP4 PUSH1 0x1 PUSH1 0x1 PUSH1 0xA0 SHL SUB AND MUL OR SWAP1 PUSH2 0xFFD PUSH2 0x1F4A JUMP JUMPDEST PUSH1 0x8 PUSH2 0x5B5 PUSH2 0x1EEF JUMP JUMPDEST PUSH1 0x0 PUSH2 0x714 GAS PUSH2 0x1208 PUSH2 0x1F98 JUMP JUMPDEST PUSH1 0x7 PUSH2 0x1212 PUSH2 0x1EEF JUMP JUMPDEST PUSH2 0x1BFD JUMP JUMPDEST PUSH2 0x121F PUSH2 0x1B29 JUMP JUMPDEST PUSH1 0x0 DUP3 PUSH1 0x1 PUSH1 0x1 PUSH1 0xA0 SHL SUB AND PUSH4 0x95D89B41 PUSH1 0x40 MLOAD DUP2 PUSH4 0xFFFFFFFF AND PUSH1 0xE0 SHL DUP2 MSTORE PUSH1 0x4 ADD PUSH1 0x0 PUSH1 0x40 MLOAD DUP1 DUP4 SUB DUP2 DUP7 DUP1 PUSH2 0x1255 PUSH2 0x2024 JUMP JUMPDEST ISZERO DUP1 ISZERO PUSH2 0x126A JUMPI PUSH1 0x0 DUP1 PUSH2 0x1267 PUSH2 0x1E84 JUMP JUMPDEST POP POP JUMPDEST POP GAS PUSH2 0x1274 PUSH2 0x2070 JUMP JUMPDEST POP POP POP POP POP ISZERO DUP1 ISZERO PUSH2 0x1293 JUMPI RETURNDATASIZE PUSH1 0x0 DUP1 RETURNDATACOPY RETURNDATASIZE PUSH1 0x0 PUSH2 0x1290 PUSH2 0x1E84 JUMP JUMPDEST POP POP JUMPDEST POP POP POP POP PUSH1 0x40 MLOAD RETURNDATASIZE PUSH1 0x0 DUP3 RETURNDATACOPY PUSH1 0x1F RETURNDATASIZE SWAP1 DUP2 ADD PUSH1 0x1F NOT AND DUP3 ADD PUSH1 0x40 MSTORE PUSH1 0x20 DUP2 LT ISZERO PUSH2 0x12C5 JUMPI PUSH1 0x0 DUP1 PUSH2 0x12C2 PUSH2 0x1E84 JUMP JUMPDEST POP POP JUMPDEST DUP2 ADD SWAP1 DUP1 DUP1 MLOAD PUSH1 0x40 MLOAD SWAP4 SWAP3 SWAP2 SWAP1 DUP5 PUSH5 0x100000000 DUP3 GT ISZERO PUSH2 0x12EE JUMPI PUSH1 0x0 DUP1 PUSH2 0x12EB PUSH2 0x1E84 JUMP JUMPDEST POP POP JUMPDEST SWAP1 DUP4 ADD SWAP1 PUSH1 0x20 DUP3 ADD DUP6 DUP2 GT ISZERO PUSH2 0x130C JUMPI PUSH1 0x0 DUP1 PUSH2 0x1309 PUSH2 0x1E84 JUMP JUMPDEST POP POP JUMPDEST DUP3 MLOAD PUSH5 0x100000000 DUP2 GT DUP3 DUP3 ADD DUP9 LT OR ISZERO PUSH2 0x132F JUMPI PUSH1 0x0 DUP1 PUSH2 0x132C PUSH2 0x1E84 JUMP JUMPDEST POP POP JUMPDEST DUP3 MSTORE POP PUSH1 0x20 ADD SWAP1 DUP1 MLOAD SWAP1 PUSH1 0x20 ADD SWAP1 DUP1 DUP4 DUP4 PUSH1 0x0 JUMPDEST DUP4 DUP2 LT ISZERO PUSH2 0x135B JUMPI DUP1 DUP3 ADD MLOAD DUP4 DUP3 ADD MSTORE PUSH1 0x20 ADD PUSH2 0x1343 JUMP JUMPDEST POP POP POP POP SWAP1 POP SWAP1 DUP2 ADD SWAP1 PUSH1 0x1F AND DUP1 ISZERO PUSH2 0x1388 JUMPI DUP1 DUP3 SUB DUP1 MLOAD PUSH1 0x1 DUP4 PUSH1 0x20 SUB PUSH2 0x100 EXP SUB NOT AND DUP2 MSTORE PUSH1 0x20 ADD SWAP2 POP JUMPDEST POP PUSH1 0x40 MSTORE POP POP POP DUP1 MLOAD SWAP1 PUSH1 0x20 ADD KECCAK256 PUSH1 0x40 MLOAD PUSH1 0x40 DUP1 DUP3 ADD SWAP1 MSTORE PUSH1 0x3 DUP2 MSTORE PUSH3 0xA69CB PUSH1 0xEB SHL PUSH1 0x20 DUP3 ADD MSTORE DUP1 MLOAD SWAP1 PUSH1 0x20 ADD KECCAK256 EQ SWAP1 POP PUSH1 0x0 PUSH1 0x6 PUSH2 0x13C6 PUSH2 0x1EEF JUMP JUMPDEST SWAP1 PUSH2 0x100 EXP SWAP1 DIV PUSH1 0x1 PUSH1 0x1 PUSH1 0xA0 SHL SUB AND PUSH1 0x1 PUSH1 0x1 PUSH1 0xA0 SHL SUB AND DUP4 PUSH1 0x1 PUSH1 0x1 PUSH1 0xA0 SHL SUB AND EQ ISZERO DUP1 ISZERO PUSH2 0x1424 JUMPI POP PUSH1 0x1 PUSH1 0x5 PUSH2 0x13FE PUSH2 0x1EEF JUMP JUMPDEST SWAP1 PUSH2 0x100 EXP SWAP1 DIV PUSH1 0x1 PUSH1 0x1 PUSH1 0xA0 SHL SUB AND PUSH1 0x1 PUSH1 0x1 PUSH1 0xA0 SHL SUB AND DUP4 PUSH1 0x1 PUSH1 0x1 PUSH1 0xA0 SHL SUB AND EQ ISZERO JUMPDEST DUP1 ISZERO PUSH2 0x142E JUMPI POP DUP1 ISZERO JUMPDEST PUSH2 0x1472 JUMPI PUSH1 0x40 MLOAD PUSH3 0x461BCD PUSH1 0xE5 SHL DUP2 MSTORE PUSH1 0x4 ADD DUP1 DUP1 PUSH1 0x20 ADD DUP3 DUP2 SUB DUP3 MSTORE PUSH1 0x2D DUP2 MSTORE PUSH1 0x20 ADD DUP1 PUSH2 0x22FC PUSH1 0x2D SWAP2 CODECOPY PUSH1 0x40 ADD SWAP2 POP POP PUSH1 0x40 MLOAD DUP1 SWAP2 SUB SWAP1 PUSH2 0x146F PUSH2 0x1E84 JUMP JUMPDEST POP POP JUMPDEST PUSH2 0x14A0 PUSH1 0x0 DUP1 PUSH2 0x1480 PUSH2 0x1EEF JUMP JUMPDEST PUSH1 0x1 PUSH1 0x1 PUSH1 0xA0 SHL SUB DUP7 DUP2 AND SWAP3 PUSH2 0x100 EXP SWAP1 SWAP2 DIV AND DUP5 PUSH4 0xFFFFFFFF PUSH2 0x1BA1 AND JUMP JUMPDEST PUSH32 0x8C1256B8896378CD5044F80C202F9772B9D77DC85C8A6EB51967210B09BFAA28 DUP4 DUP4 PUSH1 0x40 MLOAD PUSH1 0x1 PUSH1 0x1 PUSH1 0xA0 SHL SUB SWAP1 SWAP3 AND DUP3 MSTORE PUSH1 0x20 DUP3 ADD MSTORE PUSH1 0x40 SWAP1 DUP2 ADD SWAP1 MLOAD DUP1 SWAP2 SUB SWAP1 LOG1 POP POP POP JUMP JUMPDEST PUSH1 0xC PUSH1 0x20 MSTORE DUP1 PUSH1 0x0 MSTORE PUSH1 0x40 PUSH1 0x0 KECCAK256 SWAP1 POP PUSH2 0x5B5 PUSH2 0x1EEF JUMP JUMPDEST PUSH1 0x0 DUP1 PUSH2 0x100E PUSH2 0x1EEF JUMP JUMPDEST PUSH1 0x4 PUSH2 0x5B5 PUSH2 0x1EEF JUMP JUMPDEST PUSH1 0x1 PUSH1 0x3 PUSH1 0x0 DUP3 DUP3 PUSH2 0x1526 PUSH2 0x1EEF JUMP JUMPDEST ADD SWAP3 POP POP DUP2 SWAP1 PUSH2 0x1534 PUSH2 0x1F4A JUMP JUMPDEST POP POP POP PUSH1 0x0 PUSH1 0x3 PUSH2 0x1543 PUSH2 0x1EEF JUMP JUMPDEST SWAP1 POP PUSH1 0x0 PUSH1 0x5 PUSH2 0x1551 PUSH2 0x1EEF JUMP JUMPDEST SWAP1 PUSH2 0x100 EXP SWAP1 DIV PUSH1 0xFF AND ISZERO PUSH2 0x15A0 JUMPI PUSH1 0x40 MLOAD PUSH3 0x461BCD PUSH1 0xE5 SHL DUP2 MSTORE PUSH1 0x4 ADD DUP1 DUP1 PUSH1 0x20 ADD DUP3 DUP2 SUB DUP3 MSTORE PUSH1 0x3C DUP2 MSTORE PUSH1 0x20 ADD DUP1 PUSH2 0x22C0 PUSH1 0x3C SWAP2 CODECOPY PUSH1 0x40 ADD SWAP2 POP POP PUSH1 0x40 MLOAD DUP1 SWAP2 SUB SWAP1 PUSH2 0x159D PUSH2 0x1E84 JUMP JUMPDEST POP POP JUMPDEST GAS PUSH2 0x15A9 PUSH2 0x1FDE JUMP JUMPDEST PUSH2 0x15B1 PUSH2 0x18BA JUMP JUMPDEST DUP1 PUSH1 0xB PUSH2 0x15BC PUSH2 0x1F4A JUMP JUMPDEST POP POP POP PUSH2 0x15C7 PUSH2 0x11FA JUMP JUMPDEST DUP1 PUSH1 0xA PUSH2 0x15D2 PUSH2 0x1F4A JUMP JUMPDEST POP POP POP PUSH1 0x1 PUSH1 0x1 PUSH1 0xA0 SHL SUB DUP2 AND ISZERO PUSH2 0x1642 JUMPI PUSH2 0x15ED DUP2 PUSH2 0x4E6 JUMP JUMPDEST PUSH1 0x1 PUSH1 0x1 PUSH1 0xA0 SHL SUB DUP3 AND PUSH1 0x0 SWAP1 DUP2 MSTORE PUSH1 0xD PUSH1 0x20 MSTORE PUSH1 0x40 SWAP1 KECCAK256 DUP2 SWAP1 PUSH2 0x160F PUSH2 0x1F4A JUMP JUMPDEST POP POP POP PUSH1 0xB PUSH2 0x161C PUSH2 0x1EEF JUMP JUMPDEST PUSH1 0x1 PUSH1 0x1 PUSH1 0xA0 SHL SUB DUP3 AND PUSH1 0x0 SWAP1 DUP2 MSTORE PUSH1 0xC PUSH1 0x20 MSTORE PUSH1 0x40 SWAP1 KECCAK256 DUP2 SWAP1 PUSH2 0x163E PUSH2 0x1F4A JUMP JUMPDEST POP POP POP JUMPDEST PUSH1 0x0 DUP4 GT PUSH2 0x1690 JUMPI PUSH1 0x40 MLOAD PUSH3 0x461BCD PUSH1 0xE5 SHL DUP2 MSTORE PUSH1 0x20 PUSH1 0x4 DUP3 ADD MSTORE PUSH1 0xE PUSH1 0x24 DUP3 ADD MSTORE PUSH14 0x43616E6E6F74207374616B65203 PUSH1 0x94 SHL PUSH1 0x44 DUP3 ADD MSTORE PUSH1 0x64 ADD PUSH1 0x40 MLOAD DUP1 SWAP2 SUB SWAP1 PUSH2 0x168D PUSH2 0x1E84 JUMP JUMPDEST POP POP JUMPDEST PUSH2 0x169E DUP4 PUSH1 0xE PUSH2 0x58B PUSH2 0x1EEF JUMP JUMPDEST DUP1 PUSH1 0xE PUSH2 0x16A9 PUSH2 0x1F4A JUMP JUMPDEST POP POP POP PUSH2 0x16E5 DUP4 PUSH1 0xF PUSH1 0x0 GAS PUSH2 0x16BD PUSH2 0x1FDE JUMP JUMPDEST PUSH1 0x1 PUSH1 0x1 PUSH1 0xA0 SHL SUB AND PUSH1 0x1 PUSH1 0x1 PUSH1 0xA0 SHL SUB AND DUP2 MSTORE PUSH1 0x20 ADD SWAP1 DUP2 MSTORE PUSH1 0x20 ADD PUSH1 0x0 KECCAK256 PUSH2 0x58B PUSH2 0x1EEF JUMP JUMPDEST PUSH1 0xF PUSH1 0x0 GAS PUSH2 0x16F2 PUSH2 0x1FDE JUMP JUMPDEST PUSH1 0x1 PUSH1 0x1 PUSH1 0xA0 SHL SUB AND PUSH1 0x1 PUSH1 0x1 PUSH1 0xA0 SHL SUB AND DUP2 MSTORE PUSH1 0x20 ADD SWAP1 DUP2 MSTORE PUSH1 0x20 ADD PUSH1 0x0 KECCAK256 DUP2 SWAP1 PUSH2 0x171C PUSH2 0x1F4A JUMP JUMPDEST POP POP POP PUSH2 0x17B2 GAS PUSH2 0x172B PUSH2 0x1FDE JUMP JUMPDEST GAS PUSH4 0x996D79A5 MSIZE DUP2 PUSH1 0xE0 SHL DUP2 MSTORE PUSH1 0x20 DUP2 PUSH1 0x4 DUP4 CALLER PUSH1 0x0 SWAP1 GAS CALL PC PUSH1 0x1D ADD JUMPI RETURNDATASIZE PUSH1 0x1 EQ PC PUSH1 0xC ADD JUMPI RETURNDATASIZE PUSH1 0x0 DUP1 RETURNDATACOPY RETURNDATASIZE PUSH3 0x123456 MSTORE PUSH1 0xEA PUSH2 0x109C MSTORE DUP1 MLOAD SWAP3 POP PUSH1 0x0 JUMPDEST PUSH1 0x40 DUP2 LT ISZERO PUSH2 0x1781 JUMPI PUSH1 0x0 DUP3 DUP3 ADD MSTORE PUSH1 0x20 ADD PUSH2 0x176A JUMP JUMPDEST POP POP POP DUP6 PUSH1 0x6 PUSH1 0x0 SWAP1 PUSH2 0x1792 PUSH2 0x1EEF JUMP JUMPDEST PUSH1 0x1 PUSH1 0x1 PUSH1 0xA0 SHL SUB PUSH2 0x100 SWAP3 SWAP1 SWAP3 EXP SWAP1 DIV AND SWAP3 SWAP2 SWAP1 PUSH4 0xFFFFFFFF PUSH2 0x1C13 AND JUMP JUMPDEST GAS PUSH2 0x17BB PUSH2 0x1FDE JUMP JUMPDEST PUSH1 0x1 PUSH1 0x1 PUSH1 0xA0 SHL SUB AND PUSH32 0x9E71BC8EEA02A63969F509818F2DAFB9254532904319F9DBDA79B67BD34A5F3D DUP5 PUSH1 0x40 MLOAD SWAP1 DUP2 MSTORE PUSH1 0x20 ADD PUSH1 0x40 MLOAD DUP1 SWAP2 SUB SWAP1 LOG2 POP PUSH1 0x3 PUSH2 0x9AA PUSH2 0x1EEF JUMP JUMPDEST PUSH1 0xA PUSH2 0x5B5 PUSH2 0x1EEF JUMP JUMPDEST PUSH2 0x1814 PUSH2 0x1B29 JUMP JUMPDEST PUSH1 0x7 PUSH2 0x181E PUSH2 0x1EEF JUMP JUMPDEST GAS PUSH2 0x1827 PUSH2 0x1F98 JUMP JUMPDEST GT PUSH2 0x186C JUMPI PUSH1 0x40 MLOAD PUSH3 0x461BCD PUSH1 0xE5 SHL DUP2 MSTORE PUSH1 0x4 ADD DUP1 DUP1 PUSH1 0x20 ADD DUP3 DUP2 SUB DUP3 MSTORE PUSH1 0x58 DUP2 MSTORE PUSH1 0x20 ADD DUP1 PUSH2 0x21E3 PUSH1 0x58 SWAP2 CODECOPY PUSH1 0x60 ADD SWAP2 POP POP PUSH1 0x40 MLOAD DUP1 SWAP2 SUB SWAP1 PUSH2 0x1869 PUSH2 0x1E84 JUMP JUMPDEST POP POP JUMPDEST DUP1 DUP1 PUSH1 0x9 PUSH2 0x1878 PUSH2 0x1F4A JUMP JUMPDEST POP POP POP PUSH32 0xFB46CA5A5E06D4540D6387B930A7C978BCE0DB5F449EC6B3F5D07C6E1D44F2D3 PUSH1 0x9 PUSH2 0x18A6 PUSH2 0x1EEF JUMP JUMPDEST PUSH1 0x40 MLOAD SWAP1 DUP2 MSTORE PUSH1 0x20 ADD PUSH1 0x40 MLOAD DUP1 SWAP2 SUB SWAP1 LOG1 POP JUMP JUMPDEST PUSH1 0x0 PUSH1 0xE PUSH2 0x18C6 PUSH2 0x1EEF JUMP JUMPDEST PUSH2 0x18DB JUMPI PUSH1 0xB PUSH2 0x18D4 PUSH2 0x1EEF JUMP JUMPDEST SWAP1 POP PUSH2 0x717 JUMP JUMPDEST PUSH2 0x714 PUSH2 0x1919 PUSH1 0xE PUSH2 0x18EB PUSH2 0x1EEF JUMP JUMPDEST PUSH2 0x57F PUSH8 0xDE0B6B3A7640000 PUSH2 0x573 PUSH1 0x8 PUSH2 0x1904 PUSH2 0x1EEF JUMP JUMPDEST PUSH2 0x573 PUSH1 0xA PUSH2 0x1911 PUSH2 0x1EEF JUMP JUMPDEST PUSH2 0x547 PUSH2 0x11FA JUMP JUMPDEST PUSH1 0xB PUSH2 0x58B PUSH2 0x1EEF JUMP JUMPDEST PUSH1 0x1 PUSH1 0x5 PUSH2 0x100E PUSH2 0x1EEF JUMP JUMPDEST PUSH1 0xB PUSH2 0x5B5 PUSH2 0x1EEF JUMP JUMPDEST PUSH2 0x1976 PUSH1 0xF PUSH1 0x0 GAS PUSH2 0x1949 PUSH2 0x1FDE JUMP JUMPDEST PUSH1 0x1 PUSH1 0x1 PUSH1 0xA0 SHL SUB AND PUSH1 0x1 PUSH1 0x1 PUSH1 0xA0 SHL SUB AND DUP2 MSTORE PUSH1 0x20 ADD SWAP1 DUP2 MSTORE PUSH1 0x20 ADD PUSH1 0x0 KECCAK256 PUSH2 0x1971 PUSH2 0x1EEF JUMP JUMPDEST PUSH2 0x771 JUMP JUMPDEST PUSH2 0x197E PUSH2 0xDEE JUMP JUMPDEST JUMP JUMPDEST PUSH1 0x7 PUSH2 0x5B5 PUSH2 0x1EEF JUMP JUMPDEST PUSH1 0x0 DUP3 DUP3 GT ISZERO PUSH2 0x19E9 JUMPI PUSH1 0x40 MLOAD PUSH3 0x461BCD PUSH1 0xE5 SHL DUP2 MSTORE PUSH1 0x20 PUSH1 0x4 DUP3 ADD MSTORE PUSH1 0x1E PUSH1 0x24 DUP3 ADD MSTORE PUSH32 0x536166654D6174683A207375627472616374696F6E206F766572666C6F770000 PUSH1 0x44 DUP3 ADD MSTORE PUSH1 0x64 ADD PUSH1 0x40 MLOAD DUP1 SWAP2 SUB SWAP1 PUSH2 0x19E6 PUSH2 0x1E84 JUMP JUMPDEST POP POP JUMPDEST POP SWAP1 SUB SWAP1 JUMP JUMPDEST PUSH1 0x0 DUP3 PUSH2 0x19FE JUMPI POP PUSH1 0x0 PUSH2 0x597 JUMP JUMPDEST DUP3 DUP3 MUL DUP3 DUP5 DUP3 DUP2 PUSH2 0x1A0B JUMPI INVALID JUMPDEST DIV EQ PUSH2 0x1A51 JUMPI PUSH1 0x40 MLOAD PUSH3 0x461BCD PUSH1 0xE5 SHL DUP2 MSTORE PUSH1 0x4 ADD DUP1 DUP1 PUSH1 0x20 ADD DUP3 DUP2 SUB DUP3 MSTORE PUSH1 0x21 DUP2 MSTORE PUSH1 0x20 ADD DUP1 PUSH2 0x229F PUSH1 0x21 SWAP2 CODECOPY PUSH1 0x40 ADD SWAP2 POP POP PUSH1 0x40 MLOAD DUP1 SWAP2 SUB SWAP1 PUSH2 0x1A4E PUSH2 0x1E84 JUMP JUMPDEST POP POP JUMPDEST SWAP4 SWAP3 POP POP POP JUMP JUMPDEST PUSH1 0x0 DUP1 DUP3 GT PUSH2 0x1AB6 JUMPI PUSH1 0x40 MLOAD PUSH3 0x461BCD PUSH1 0xE5 SHL DUP2 MSTORE PUSH1 0x20 PUSH1 0x4 DUP3 ADD MSTORE PUSH1 0x1A PUSH1 0x24 DUP3 ADD MSTORE PUSH32 0x536166654D6174683A206469766973696F6E206279207A65726F000000000000 PUSH1 0x44 DUP3 ADD MSTORE PUSH1 0x64 ADD PUSH1 0x40 MLOAD DUP1 SWAP2 SUB SWAP1 PUSH2 0x1AB3 PUSH2 0x1E84 JUMP JUMPDEST POP POP JUMPDEST PUSH1 0x0 DUP3 DUP5 DUP2 PUSH2 0x1AC1 JUMPI INVALID JUMPDEST DIV SWAP5 SWAP4 POP POP POP POP JUMP JUMPDEST PUSH1 0x0 DUP3 DUP3 ADD DUP4 DUP2 LT ISZERO PUSH2 0x1A51 JUMPI PUSH1 0x40 MLOAD PUSH3 0x461BCD PUSH1 0xE5 SHL DUP2 MSTORE PUSH1 0x20 PUSH1 0x4 DUP3 ADD MSTORE PUSH1 0x1B PUSH1 0x24 DUP3 ADD MSTORE PUSH32 0x536166654D6174683A206164646974696F6E206F766572666C6F770000000000 PUSH1 0x44 DUP3 ADD MSTORE PUSH1 0x64 ADD PUSH1 0x40 MLOAD DUP1 SWAP2 SUB SWAP1 PUSH2 0x1A4E PUSH2 0x1E84 JUMP JUMPDEST PUSH1 0x0 DUP1 PUSH2 0x1B34 PUSH2 0x1EEF JUMP JUMPDEST SWAP1 PUSH2 0x100 EXP SWAP1 DIV PUSH1 0x1 PUSH1 0x1 PUSH1 0xA0 SHL SUB AND PUSH1 0x1 PUSH1 0x1 PUSH1 0xA0 SHL SUB AND GAS PUSH2 0x1B56 PUSH2 0x1FDE JUMP JUMPDEST PUSH1 0x1 PUSH1 0x1 PUSH1 0xA0 SHL SUB AND EQ PUSH2 0x197E JUMPI PUSH1 0x40 MLOAD PUSH3 0x461BCD PUSH1 0xE5 SHL DUP2 MSTORE PUSH1 0x4 ADD DUP1 DUP1 PUSH1 0x20 ADD DUP3 DUP2 SUB DUP3 MSTORE PUSH1 0x2F DUP2 MSTORE PUSH1 0x20 ADD DUP1 PUSH2 0x2270 PUSH1 0x2F SWAP2 CODECOPY PUSH1 0x40 ADD SWAP2 POP POP PUSH1 0x40 MLOAD DUP1 SWAP2 SUB SWAP1 PUSH2 0xA02 PUSH2 0x1E84 JUMP JUMPDEST PUSH2 0xFFD DUP4 PUSH4 0xA9059CBB PUSH1 0xE0 SHL DUP5 DUP5 PUSH1 0x40 MLOAD PUSH1 0x1 PUSH1 0x1 PUSH1 0xA0 SHL SUB SWAP1 SWAP3 AND PUSH1 0x24 DUP4 ADD MSTORE PUSH1 0x44 DUP3 ADD MSTORE PUSH1 0x64 ADD PUSH1 0x40 MLOAD PUSH1 0x20 DUP2 DUP4 SUB SUB DUP2 MSTORE SWAP1 PUSH1 0x40 MSTORE SWAP1 PUSH1 0x1 PUSH1 0x1 PUSH1 0xE0 SHL SUB NOT AND PUSH1 0x20 DUP3 ADD DUP1 MLOAD PUSH1 0x1 PUSH1 0x1 PUSH1 0xE0 SHL SUB AND SWAP1 SWAP2 OR SWAP1 MSTORE PUSH2 0x1C78 JUMP JUMPDEST PUSH1 0x0 DUP2 DUP4 LT PUSH2 0x1C0C JUMPI DUP2 PUSH2 0x1A51 JUMP JUMPDEST POP SWAP1 SWAP2 SWAP1 POP JUMP JUMPDEST PUSH2 0x752 DUP5 PUSH4 0x23B872DD PUSH1 0xE0 SHL DUP6 DUP6 DUP6 PUSH1 0x40 MLOAD PUSH1 0x1 PUSH1 0x1 PUSH1 0xA0 SHL SUB SWAP4 DUP5 AND PUSH1 0x24 DUP3 ADD MSTORE SWAP2 SWAP1 SWAP3 AND PUSH1 0x44 DUP3 ADD MSTORE PUSH1 0x64 DUP2 ADD SWAP2 SWAP1 SWAP2 MSTORE PUSH1 0x84 ADD PUSH1 0x40 MLOAD PUSH1 0x20 DUP2 DUP4 SUB SUB DUP2 MSTORE SWAP1 PUSH1 0x40 MSTORE SWAP1 PUSH1 0x1 PUSH1 0x1 PUSH1 0xE0 SHL SUB NOT AND PUSH1 0x20 DUP3 ADD DUP1 MLOAD PUSH1 0x1 PUSH1 0x1 PUSH1 0xE0 SHL SUB AND SWAP1 SWAP2 OR SWAP1 MSTORE JUMPDEST PUSH2 0x1C8A DUP3 PUSH1 0x1 PUSH1 0x1 PUSH1 0xA0 SHL SUB AND PUSH2 0x1E6F JUMP JUMPDEST PUSH2 0x1CE3 JUMPI PUSH1 0x40 MLOAD PUSH3 0x461BCD PUSH1 0xE5 SHL DUP2 MSTORE PUSH1 0x20 PUSH1 0x4 DUP3 ADD MSTORE PUSH1 0x1F PUSH1 0x24 DUP3 ADD MSTORE PUSH32 0x5361666545524332303A2063616C6C20746F206E6F6E2D636F6E747261637400 PUSH1 0x44 DUP3 ADD MSTORE PUSH1 0x64 ADD PUSH1 0x40 MLOAD DUP1 SWAP2 SUB SWAP1 PUSH2 0x1CE0 PUSH2 0x1E84 JUMP JUMPDEST POP POP JUMPDEST PUSH1 0x0 PUSH1 0x60 DUP4 PUSH1 0x1 PUSH1 0x1 PUSH1 0xA0 SHL SUB AND DUP4 PUSH1 0x40 MLOAD DUP1 DUP3 DUP1 MLOAD SWAP1 PUSH1 0x20 ADD SWAP1 DUP1 DUP4 DUP4 JUMPDEST PUSH1 0x20 DUP4 LT PUSH2 0x1D21 JUMPI DUP1 MLOAD DUP3 MSTORE PUSH1 0x1F NOT SWAP1 SWAP3 ADD SWAP2 PUSH1 0x20 SWAP2 DUP3 ADD SWAP2 ADD PUSH2 0x1D02 JUMP JUMPDEST PUSH1 0x1 DUP4 PUSH1 0x20 SUB PUSH2 0x100 EXP SUB DUP1 NOT DUP3 MLOAD AND DUP2 DUP5 MLOAD AND DUP1 DUP3 OR DUP6 MSTORE POP POP POP POP POP POP SWAP1 POP ADD SWAP2 POP POP PUSH1 0x0 PUSH1 0x40 MLOAD DUP1 DUP4 SUB DUP2 PUSH1 0x0 DUP7 GAS PUSH2 0x1D5B PUSH2 0x2129 JUMP JUMPDEST POP POP POP POP POP POP SWAP2 POP POP RETURNDATASIZE DUP1 PUSH1 0x0 DUP2 EQ PUSH2 0x1D90 JUMPI PUSH1 0x40 MLOAD RETURNDATASIZE PUSH1 0x3F ADD PUSH1 0x1F NOT AND DUP2 ADD PUSH1 0x40 MSTORE RETURNDATASIZE DUP2 MSTORE SWAP2 POP RETURNDATASIZE PUSH1 0x0 PUSH1 0x20 DUP5 ADD RETURNDATACOPY PUSH2 0x1D95 JUMP JUMPDEST PUSH1 0x60 SWAP2 POP JUMPDEST POP SWAP2 POP SWAP2 POP DUP2 PUSH2 0x1DF4 JUMPI PUSH1 0x40 MLOAD PUSH3 0x461BCD PUSH1 0xE5 SHL DUP2 MSTORE PUSH1 0x20 PUSH1 0x4 DUP3 ADD DUP2 SWAP1 MSTORE PUSH1 0x24 DUP3 ADD MSTORE PUSH32 0x5361666545524332303A206C6F772D6C6576656C2063616C6C206661696C6564 PUSH1 0x44 DUP3 ADD MSTORE PUSH1 0x64 ADD PUSH1 0x40 MLOAD DUP1 SWAP2 SUB SWAP1 PUSH2 0x1DF1 PUSH2 0x1E84 JUMP JUMPDEST POP POP JUMPDEST PUSH1 0x0 DUP2 MLOAD GT ISZERO PUSH2 0x752 JUMPI PUSH1 0x20 DUP2 ADD DUP2 MLOAD PUSH1 0x20 DUP2 LT ISZERO PUSH2 0x1E1B JUMPI PUSH1 0x0 DUP1 PUSH2 0x1E18 PUSH2 0x1E84 JUMP JUMPDEST POP POP JUMPDEST DUP2 ADD SWAP1 DUP1 DUP1 MLOAD SWAP3 POP PUSH2 0x752 SWAP2 POP POP JUMPI PUSH1 0x40 MLOAD PUSH3 0x461BCD PUSH1 0xE5 SHL DUP2 MSTORE PUSH1 0x4 ADD DUP1 DUP1 PUSH1 0x20 ADD DUP3 DUP2 SUB DUP3 MSTORE PUSH1 0x2A DUP2 MSTORE PUSH1 0x20 ADD DUP1 PUSH2 0x2353 PUSH1 0x2A SWAP2 CODECOPY PUSH1 0x40 ADD SWAP2 POP POP PUSH1 0x40 MLOAD DUP1 SWAP2 SUB SWAP1 PUSH2 0x1E67 PUSH2 0x1E84 JUMP JUMPDEST POP POP POP POP POP POP JUMP JUMPDEST PUSH1 0x0 DUP1 DUP3 PUSH2 0x1E7B PUSH2 0x2024 JUMP JUMPDEST ISZERO ISZERO SWAP4 SWAP3 POP POP POP JUMP JUMPDEST PUSH4 0x2A2A7ADB MSIZE DUP2 PUSH1 0xE0 SHL DUP2 MSTORE PUSH1 0x4 DUP2 ADD PUSH1 0x20 DUP2 MSTORE DUP6 PUSH1 0x20 DUP3 ADD MSTORE PUSH1 0x0 JUMPDEST DUP7 DUP2 LT ISZERO PUSH2 0x1EBC JUMPI DUP1 DUP7 ADD MLOAD DUP3 DUP3 ADD PUSH1 0x40 ADD MSTORE PUSH1 0x20 ADD PUSH2 0x1EA1 JUMP JUMPDEST POP PUSH1 0x20 DUP3 DUP8 PUSH1 0x64 ADD DUP5 CALLER PUSH1 0x0 SWAP1 GAS CALL PC PUSH1 0x1D ADD JUMPI RETURNDATASIZE PUSH1 0x1 EQ PC PUSH1 0xC ADD JUMPI RETURNDATASIZE PUSH1 0x0 DUP1 RETURNDATACOPY RETURNDATASIZE PUSH3 0x123456 MSTORE PUSH1 0xEA PUSH2 0x109C MSTORE POP POP POP JUMP JUMPDEST PUSH4 0x3DAA959 MSIZE DUP2 PUSH1 0xE0 SHL DUP2 MSTORE DUP4 PUSH1 0x4 DUP3 ADD MSTORE PUSH1 0x20 DUP2 PUSH1 0x24 DUP4 CALLER PUSH1 0x0 SWAP1 GAS CALL PC PUSH1 0x1D ADD JUMPI RETURNDATASIZE PUSH1 0x1 EQ PC PUSH1 0xC ADD JUMPI RETURNDATASIZE PUSH1 0x0 DUP1 RETURNDATACOPY RETURNDATASIZE PUSH3 0x123456 MSTORE PUSH1 0xEA PUSH2 0x109C MSTORE DUP1 MLOAD SWAP4 POP PUSH1 0x0 JUMPDEST PUSH1 0x40 DUP2 LT ISZERO PUSH2 0xFFD JUMPI PUSH1 0x0 DUP3 DUP3 ADD MSTORE PUSH1 0x20 ADD PUSH2 0x1F33 JUMP JUMPDEST PUSH4 0x22BD64C0 MSIZE DUP2 PUSH1 0xE0 SHL DUP2 MSTORE DUP4 PUSH1 0x4 DUP3 ADD MSTORE DUP5 PUSH1 0x24 DUP3 ADD MSTORE PUSH1 0x0 DUP2 PUSH1 0x44 DUP4 CALLER PUSH1 0x0 SWAP1 GAS CALL PC PUSH1 0x1D ADD JUMPI RETURNDATASIZE PUSH1 0x1 EQ PC PUSH1 0xC ADD JUMPI RETURNDATASIZE PUSH1 0x0 DUP1 RETURNDATACOPY RETURNDATASIZE PUSH3 0x123456 MSTORE PUSH1 0xEA PUSH2 0x109C MSTORE PUSH1 0x0 DUP2 MSTORE PUSH1 0x20 PUSH2 0x1F33 JUMP JUMPDEST PUSH4 0xBDBF8C36 MSIZE DUP2 PUSH1 0xE0 SHL DUP2 MSTORE PUSH1 0x20 DUP2 PUSH1 0x4 DUP4 CALLER PUSH1 0x0 SWAP1 GAS CALL PC PUSH1 0x1D ADD JUMPI RETURNDATASIZE PUSH1 0x1 EQ PC PUSH1 0xC ADD JUMPI RETURNDATASIZE PUSH1 0x0 DUP1 RETURNDATACOPY RETURNDATASIZE PUSH3 0x123456 MSTORE PUSH1 0xEA PUSH2 0x109C MSTORE DUP1 MLOAD PUSH1 0x0 DUP3 MSTORE SWAP4 POP PUSH1 0x20 PUSH2 0x1F33 JUMP JUMPDEST PUSH4 0x73509064 MSIZE DUP2 PUSH1 0xE0 SHL DUP2 MSTORE PUSH1 0x20 DUP2 PUSH1 0x4 DUP4 CALLER PUSH1 0x0 SWAP1 GAS CALL PC PUSH1 0x1D ADD JUMPI RETURNDATASIZE PUSH1 0x1 EQ PC PUSH1 0xC ADD JUMPI RETURNDATASIZE PUSH1 0x0 DUP1 RETURNDATACOPY RETURNDATASIZE PUSH3 0x123456 MSTORE PUSH1 0xEA PUSH2 0x109C MSTORE DUP1 MLOAD PUSH1 0x0 DUP3 MSTORE SWAP4 POP PUSH1 0x20 PUSH2 0x1F33 JUMP JUMPDEST PUSH4 0x8435035B MSIZE DUP2 PUSH1 0xE0 SHL DUP2 MSTORE DUP4 PUSH1 0x4 DUP3 ADD MSTORE PUSH1 0x20 DUP2 PUSH1 0x24 DUP4 CALLER PUSH1 0x0 SWAP1 GAS CALL PC PUSH1 0x1D ADD JUMPI RETURNDATASIZE PUSH1 0x1 EQ PC PUSH1 0xC ADD JUMPI RETURNDATASIZE PUSH1 0x0 DUP1 RETURNDATACOPY RETURNDATASIZE PUSH3 0x123456 MSTORE PUSH1 0xEA PUSH2 0x109C MSTORE DUP1 MLOAD PUSH1 0x0 DUP3 MSTORE SWAP4 POP PUSH1 0x20 PUSH2 0x1F33 JUMP JUMPDEST PUSH4 0x8540661F MSIZE DUP2 PUSH1 0xE0 SHL DUP2 MSTORE DUP4 PUSH1 0x4 DUP3 ADD MSTORE DUP5 PUSH1 0x24 DUP3 ADD MSTORE PUSH1 0x60 PUSH1 0x44 DUP3 ADD MSTORE DUP7 PUSH1 0x64 DUP3 ADD MSTORE PUSH1 0x84 DUP2 ADD PUSH1 0x0 JUMPDEST DUP9 DUP2 LT ISZERO PUSH2 0x20B4 JUMPI DUP1 DUP9 ADD MLOAD DUP3 DUP3 ADD MSTORE PUSH1 0x20 ADD PUSH2 0x209C JUMP JUMPDEST POP DUP8 PUSH2 0x104 ADD DUP3 ADD PUSH1 0x60 DUP4 DUP11 PUSH2 0x104 ADD DUP6 CALLER PUSH1 0x0 SWAP1 GAS CALL PC PUSH1 0x1D ADD JUMPI RETURNDATASIZE PUSH1 0x1 EQ PC PUSH1 0xC ADD JUMPI RETURNDATASIZE PUSH1 0x0 DUP1 RETURNDATACOPY RETURNDATASIZE PUSH3 0x123456 MSTORE PUSH1 0xEA PUSH2 0x109C MSTORE DUP3 MLOAD PUSH1 0x40 DUP5 ADD MLOAD RETURNDATASIZE PUSH1 0x0 DUP7 RETURNDATACOPY DUP13 DUP13 DUP3 PUSH1 0x60 DUP9 ADD CALLER POP PUSH1 0x0 PUSH1 0x4 GAS CALL POP MSIZE DUP6 JUMPDEST DUP2 DUP2 LT ISZERO PUSH2 0x211D JUMPI PUSH1 0x0 DUP2 MSTORE PUSH1 0x20 ADD PUSH2 0x2109 JUMP JUMPDEST POP SWAP2 SWAP13 POP POP POP POP POP POP POP JUMP JUMPDEST PUSH4 0x85979F76 MSIZE DUP2 PUSH1 0xE0 SHL DUP2 MSTORE DUP4 PUSH1 0x4 DUP3 ADD MSTORE DUP5 PUSH1 0x24 DUP3 ADD MSTORE PUSH1 0x60 PUSH1 0x44 DUP3 ADD MSTORE DUP8 PUSH1 0x64 DUP3 ADD MSTORE PUSH1 0x84 DUP2 ADD PUSH1 0x0 JUMPDEST DUP10 DUP2 LT ISZERO PUSH2 0x216D JUMPI DUP1 DUP10 ADD MLOAD DUP3 DUP3 ADD MSTORE PUSH1 0x20 ADD PUSH2 0x2155 JUMP JUMPDEST POP DUP9 PUSH2 0x104 ADD DUP3 ADD PUSH1 0x60 DUP4 DUP12 PUSH2 0x104 ADD DUP6 CALLER PUSH1 0x0 SWAP1 GAS CALL PC PUSH1 0x1D ADD JUMPI RETURNDATASIZE PUSH1 0x1 EQ PC PUSH1 0xC ADD JUMPI RETURNDATASIZE PUSH1 0x0 DUP1 RETURNDATACOPY RETURNDATASIZE PUSH3 0x123456 MSTORE PUSH1 0xEA PUSH2 0x109C MSTORE DUP3 MLOAD PUSH1 0x40 DUP5 ADD MLOAD RETURNDATASIZE PUSH1 0x0 DUP7 RETURNDATACOPY DUP14 DUP14 DUP3 PUSH1 0x60 DUP9 ADD CALLER POP PUSH1 0x0 PUSH1 0x4 GAS CALL POP MSIZE DUP6 JUMPDEST DUP2 DUP2 LT ISZERO PUSH2 0x21D6 JUMPI PUSH1 0x0 DUP2 MSTORE PUSH1 0x20 ADD PUSH2 0x21C2 JUMP JUMPDEST POP SWAP2 SWAP14 POP POP POP POP POP POP POP JUMP INVALID POP PUSH19 0x6576696F757320726577617264732070657269 PUSH16 0x64206D75737420626520636F6D706C65 PUSH21 0x65206265666F7265206368616E67696E6720746865 KECCAK256 PUSH5 0x7572617469 PUSH16 0x6E20666F7220746865206E6577207065 PUSH19 0x696F64596F75206D757374206265206E6F6D69 PUSH15 0x61746564206265666F726520796F75 KECCAK256 PUSH4 0x616E2061 PUSH4 0x63657074 KECCAK256 PUSH16 0x776E6572736869704F6E6C7920746865 KECCAK256 PUSH4 0x6F6E7472 PUSH2 0x6374 KECCAK256 PUSH16 0x776E6572206D617920706572666F726D KECCAK256 PUSH21 0x68697320616374696F6E536166654D6174683A206D PUSH22 0x6C7469706C69636174696F6E206F766572666C6F7754 PUSH9 0x697320616374696F6E KECCAK256 PUSH4 0x616E6E6F PUSH21 0x20626520706572666F726D6564207768696C652074 PUSH9 0x6520636F6E74726163 PUSH21 0x2069732070617573656443616E6E6F742077697468 PUSH5 0x7261772074 PUSH9 0x65207374616B696E67 KECCAK256 PUSH16 0x72207265776172647320746F6B656E73 NUMBER PUSH2 0x6C6C PUSH6 0x72206973206E PUSH16 0x74205265776172647344697374726962 PUSH22 0x74696F6E20636F6E7472616374536166654552433230 GASPRICE KECCAK256 GASLIMIT MSTORE NUMBER ORIGIN ADDRESS KECCAK256 PUSH16 0x7065726174696F6E20646964206E6F74 KECCAK256 PUSH20 0x7563636565640000000000000000000000000000 "
		}
	}
}